{
    "balance_change": {
        "balanceChanges": [
            {
                "account": "0x2e3381202988d535e8185e7089f633f7c9998e83",
                "assets": [
                    {
                        "address": "0xbbc2ae13b23d715c30720f079fcd9b4a74093505",
                        "amount": "1,105.5109",
                        "iconUrl": "",
                        "isERC1155": false,
                        "isERC721": false,
                        "sign": false,
                        "value": "18877.23333"
                    },
                    {
                        "address": "0xeeeeeeeeeeeeeeeeeeeeeeeeeeeeeeeeeeeeeeee",
                        "amount": "3.935473595686876512",
                        "iconUrl": "https://assets.blocksec.com/image/1663669189317-3.png",
                        "isERC1155": false,
                        "isERC721": false,
                        "sign": true,
                        "value": "18877.23333"
                    }
                ]
            },
            {
                "account": "0x570febdf89c07f256c75686caca215289bb11cfc",
                "assets": [
                    {
                        "address": "0xbbc2ae13b23d715c30720f079fcd9b4a74093505",
                        "amount": "1,105.5109",
                        "iconUrl": "",
                        "isERC1155": false,
                        "isERC721": false,
                        "sign": true,
                        "value": "18877.23333"
                    },
                    {
                        "address": "0xc02aaa39b223fe8d0a0e5c4f27ead9083c756cc2",
                        "amount": "3.935473595686876512",
                        "iconUrl": "https://assets.blocksec.com/icon/f1cb2d02c471d545bbc7722daf3277fd852d98e63d118771af7047bd8256c516.png",
                        "isERC1155": false,
                        "isERC721": false,
                        "sign": false,
                        "value": "18877.23333"
                    }
                ]
            },
            {
                "account": "0xc02aaa39b223fe8d0a0e5c4f27ead9083c756cc2",
                "assets": [
                    {
                        "address": "0xeeeeeeeeeeeeeeeeeeeeeeeeeeeeeeeeeeeeeeee",
                        "amount": "3.935473595686876512",
                        "iconUrl": "https://assets.blocksec.com/image/1663669189317-3.png",
                        "isERC1155": false,
                        "isERC721": false,
                        "sign": false,
                        "value": "18877.23333"
                    },
                    {
                        "address": "0xc02aaa39b223fe8d0a0e5c4f27ead9083c756cc2",
                        "amount": "3.935473595686876512",
                        "iconUrl": "https://assets.blocksec.com/icon/f1cb2d02c471d545bbc7722daf3277fd852d98e63d118771af7047bd8256c516.png",
                        "isERC1155": false,
                        "isERC721": false,
                        "sign": true,
                        "value": "18877.23333"
                    }
                ]
            }
        ]
    },
    "profile": {
        "basic_info": {
            "baseFee": "269.16603859",
            "blockNumber": 13579355,
            "callData": "0x18cbafe500000000000000000000000000000000000000000000003bee0bb24d5e63400000000000000000000000000000000000000000000000000036395a719a48b56000000000000000000000000000000000000000000000000000000000000000a00000000000000000000000002e3381202988d535e8185e7089f633f7c9998e8300000000000000000000000000000000000000000000000000000000618b20cc0000000000000000000000000000000000000000000000000000000000000002000000000000000000000000bbc2ae13b23d715c30720f079fcd9b4a74093505000000000000000000000000c02aaa39b223fe8d0a0e5c4f27ead9083c756cc2",
            "debugEnable": true,
            "errorInfo": "",
            "eventCount": 6,
            "feeRecipient": "0x829bd824b016326a401d083b33d092293333a830",
            "formatValue": "0",
            "gasLimit": 154289,
            "gasPrice": "279",
            "gasUsed": 118149,
            "intTxnCount": 9,
            "internalRevert": false,
            "internalRevertMessage": "",
            "isContractCreation": false,
            "isFlashloan": false,
            "maxFee": "",
            "nonce": 194345,
            "overwritedBlockNumber": -1,
            "priorityFee": "",
            "receiver": "0x7a250d5630b4cf539739df2c5dacb4c659f2488d",
            "revertMessage": "",
            "sender": "0x2e3381202988d535e8185e7089f633f7c9998e83",
            "simulationEnable": true,
            "sourceTxnHash": "0x00ece04c9600170c98be39c407a48c62769acdf5f71832a62b9610f4bc4a3097",
            "status": true,
            "timestamp": "2021-11-09T01:45:59Z",
            "transactionFee": "0.032963571",
            "txnHash": "0x00ece04c9600170c98be39c407a48c62769acdf5f71832a62b9610f4bc4a3097",
            "txnIndex": 97,
            "type": 0,
            "value": "0"
        },
        "fund_flow": [
            {
                "amount": "1,105.5109",
                "from": "0x2e3381202988d535e8185e7089f633f7c9998e83",
                "id": 1,
                "isERC1155": false,
                "isERC721": false,
                "isReverted": false,
                "order": 1,
                "to": "0x570febdf89c07f256c75686caca215289bb11cfc",
                "token": "0xbbc2ae13b23d715c30720f079fcd9b4a74093505"
            },
            {
                "amount": "3.935473595686876512",
                "from": "0x570febdf89c07f256c75686caca215289bb11cfc",
                "id": 2,
                "isERC1155": false,
                "isERC721": false,
                "isReverted": false,
                "order": 2,
                "to": "0x7a250d5630b4cf539739df2c5dacb4c659f2488d",
                "token": "0xc02aaa39b223fe8d0a0e5c4f27ead9083c756cc2"
            },
            {
                "amount": "3.935473595686876512",
                "from": "0xc02aaa39b223fe8d0a0e5c4f27ead9083c756cc2",
                "id": 3,
                "isERC1155": false,
                "isERC721": false,
                "isReverted": false,
                "order": 3,
                "to": "0x7a250d5630b4cf539739df2c5dacb4c659f2488d",
                "token": "0xeeeeeeeeeeeeeeeeeeeeeeeeeeeeeeeeeeeeeeee"
            },
            {
                "amount": "3.935473595686876512",
                "from": "0x7a250d5630b4cf539739df2c5dacb4c659f2488d",
                "id": 4,
                "isERC1155": false,
                "isERC721": false,
                "isReverted": false,
                "order": 4,
                "to": "0xc02aaa39b223fe8d0a0e5c4f27ead9083c756cc2",
                "token": "0xc02aaa39b223fe8d0a0e5c4f27ead9083c756cc2"
            },
            {
                "amount": "3.935473595686876512",
                "from": "0x7a250d5630b4cf539739df2c5dacb4c659f2488d",
                "id": 5,
                "isERC1155": false,
                "isERC721": false,
                "isReverted": false,
                "order": 5,
                "to": "0x2e3381202988d535e8185e7089f633f7c9998e83",
                "token": "0xeeeeeeeeeeeeeeeeeeeeeeeeeeeeeeeeeeeeeeee"
            }
        ],
        "token_infos": [
            {
                "address": "0xbbc2ae13b23d715c30720f079fcd9b4a74093505",
                "decimals": 18
            },
            {
                "address": "0xc02aaa39b223fe8d0a0e5c4f27ead9083c756cc2",
                "decimals": 18
            },
            {
                "address": "0xeeeeeeeeeeeeeeeeeeeeeeeeeeeeeeeeeeeeeeee",
                "decimals": 18
            }
        ]
    },
    "address_label": {
        "labels": [
            {
                "address": "0xeeeeeeeeeeeeeeeeeeeeeeeeeeeeeeeeeeeeeeee",
                "label": "Ether"
            },
            {
                "address": "0x7a250d5630b4cf539739df2c5dacb4c659f2488d",
                "label": "Uniswap V2: Router 2"
            },
            {
                "address": "0x0000000000000000000000000000000000000003",
                "label": "Precompiled"
            },
            {
                "address": "0x0000000000000000000000000000000000000004",
                "label": "Precompiled"
            },
            {
                "address": "0x0000000000000000000000000000000000000002",
                "label": "Precompiled"
            },
            {
                "address": "0xc02aaa39b223fe8d0a0e5c4f27ead9083c756cc2",
                "label": "Wrapped Ether (WETH)"
            },
            {
                "address": "0x570febdf89c07f256c75686caca215289bb11cfc",
                "label": "Uniswap V2: ERN 9"
            },
            {
                "address": "0xbbc2ae13b23d715c30720f079fcd9b4a74093505",
                "label": "Ethernity Chain: ERN Token"
            },
            {
                "address": "0x0000000000000000000000000000000000000001",
                "label": "Precompiled"
            }
        ]
    },
    "trace": {
        "accountLabels": null,
        "dataMap": {
            "-1": {
                "invocation": {
                    "address": "0x2e3381202988d535e8185e7089f633f7c9998e83",
                    "callData": "",
                    "decodedMethod": null,
                    "errorInfo": "",
                    "fromAddress": "",
                    "gasUsed": 0,
                    "id": -1,
                    "methodDecoded": false,
                    "operation": "",
                    "output": "",
                    "revert": false,
                    "revertMessage": "",
                    "selector": "",
                    "status": false,
                    "value": ""
                },
                "nodeType": 0
            },
            "0": {
                "invocation": {
                    "address": "0x7a250d5630b4cf539739df2c5dacb4c659f2488d",
                    "callData": "0x00000000000000000000000000000000000000000000003bee0bb24d5e63400000000000000000000000000000000000000000000000000036395a719a48b56000000000000000000000000000000000000000000000000000000000000000a00000000000000000000000002e3381202988d535e8185e7089f633f7c9998e8300000000000000000000000000000000000000000000000000000000618b20cc0000000000000000000000000000000000000000000000000000000000000002000000000000000000000000bbc2ae13b23d715c30720f079fcd9b4a74093505000000000000000000000000c02aaa39b223fe8d0a0e5c4f27ead9083c756cc2",
                    "decodedMethod": {
                        "callParams": [
                            {
                                "name": "amountIn",
                                "type": "uint256",
                                "value": "1,105,510,900,000,000,000,000"
                            },
                            {
                                "name": "amountOutMin",
                                "type": "uint256",
                                "value": "3,907,253,595,686,876,512"
                            },
                            {
                                "name": "path",
                                "type": "address[]",
                                "value": [
                                    "0xbbc2ae13b23d715c30720f079fcd9b4a74093505",
                                    "0xc02aaa39b223fe8d0a0e5c4f27ead9083c756cc2"
                                ]
                            },
                            {
                                "name": "to",
                                "type": "address",
                                "value": "0x2e3381202988d535e8185e7089f633f7c9998e83"
                            },
                            {
                                "name": "deadline",
                                "type": "uint256",
                                "value": "1,636,507,852"
                            }
                        ],
                        "constructorArguments": "",
                        "name": "swapExactTokensForETH",
                        "returnParams": [
                            {
                                "name": "amounts",
                                "type": "uint256[]",
                                "value": [
                                    "1,105,510,900,000,000,000,000",
                                    "3,935,473,595,686,876,512"
                                ]
                            }
                        ],
                        "signature": "swapExactTokensForETH(uint256,uint256,address[],address,uint256)"
                    },
                    "errorInfo": "",
                    "fromAddress": "0x2e3381202988d535e8185e7089f633f7c9998e83",
                    "gasUsed": 118149,
                    "id": 0,
                    "methodDecoded": true,
                    "operation": "CALL",
                    "output": "0x0000000000000000000000000000000000000000000000000000000000000020000000000000000000000000000000000000000000000000000000000000000200000000000000000000000000000000000000000000003bee0bb24d5e634000000000000000000000000000000000000000000000000000369d9c625dd87560",
                    "revert": false,
                    "revertMessage": "",
                    "selector": "0x18cbafe5",
                    "status": true,
                    "value": "0"
                },
                "nodeType": 0
            },
            "1": {
                "invocation": {
                    "address": "0x570febdf89c07f256c75686caca215289bb11cfc",
                    "callData": "0x",
                    "decodedMethod": {
                        "callParams": [],
                        "constructorArguments": "",
                        "name": "getReserves",
                        "returnParams": [
                            {
                                "name": "_reserve0",
                                "type": "uint112",
                                "value": "322,935,072,352,399,905,784,096"
                            },
                            {
                                "name": "_reserve1",
                                "type": "uint112",
                                "value": "1,157,001,110,718,636,525,335"
                            },
                            {
                                "name": "_blockTimestampLast",
                                "type": "uint32",
                                "value": "1,636,417,055"
                            }
                        ],
                        "signature": "getReserves()"
                    },
                    "errorInfo": "",
                    "fromAddress": "0x7a250d5630b4cf539739df2c5dacb4c659f2488d",
                    "gasUsed": 2504,
                    "id": 1,
                    "methodDecoded": true,
                    "operation": "STATICCALL",
                    "output": "0x0000000000000000000000000000000000000000000044625868e92a3a84012000000000000000000000000000000000000000000000003eb89dac24dcba8717000000000000000000000000000000000000000000000000000000006189be1f",
                    "revert": false,
                    "revertMessage": "",
                    "selector": "0x0902f1ac",
                    "status": true,
                    "value": "0"
                },
                "nodeType": 0
            },
            "10": {
                "event": {
                    "contract": "0x570febdf89c07f256c75686caca215289bb11cfc",
                    "decodedLog": {
                        "name": "Sync",
                        "params": [
                            {
                                "name": "reserve0",
                                "type": "uint112",
                                "value": "324,040,583,252,399,905,784,096"
                            },
                            {
                                "name": "reserve1",
                                "type": "uint112",
                                "value": "1,153,065,637,122,949,648,823"
                            }
                        ],
                        "signature": "Sync(uint112,uint112)"
                    },
                    "id": 10,
                    "logData": "0x00000000000000000000000000000000000000000000449e46749b7798e7412000000000000000000000000000000000000000000000003e82000fc27ee211b7",
                    "logDecoded": true,
                    "operation": "EVENT",
                    "revert": false,
                    "status": true,
                    "topics": [
                        "0x1c411e9a96e071241c2f21f7726b17ae89e3cab4c78be50e062b03a9fffbbad1"
                    ]
                },
                "nodeType": 1
            },
            "11": {
                "event": {
                    "contract": "0x570febdf89c07f256c75686caca215289bb11cfc",
                    "decodedLog": {
                        "name": "Swap",
                        "params": [
                            {
                                "name": "sender",
                                "type": "address",
                                "value": "0x7a250d5630b4cf539739df2c5dacb4c659f2488d"
                            },
                            {
                                "name": "to",
                                "type": "address",
                                "value": "0x7a250d5630b4cf539739df2c5dacb4c659f2488d"
                            },
                            {
                                "name": "amount0In",
                                "type": "uint256",
                                "value": "1,105,510,900,000,000,000,000"
                            },
                            {
                                "name": "amount1In",
                                "type": "uint256",
                                "value": "0"
                            },
                            {
                                "name": "amount0Out",
                                "type": "uint256",
                                "value": "0"
                            },
                            {
                                "name": "amount1Out",
                                "type": "uint256",
                                "value": "3,935,473,595,686,876,512"
                            }
                        ],
                        "signature": "Swap(address,uint256,uint256,uint256,uint256,address)"
                    },
                    "id": 11,
                    "logData": "0x00000000000000000000000000000000000000000000003bee0bb24d5e63400000000000000000000000000000000000000000000000000000000000000000000000000000000000000000000000000000000000000000000000000000000000000000000000000000000000000000000000000000000000369d9c625dd87560",
                    "logDecoded": true,
                    "operation": "EVENT",
                    "revert": false,
                    "status": true,
                    "topics": [
                        "0xd78ad95fa46c994b6551d0da85fc275fe613ce37657fb8d5e3d130840159d822",
                        "0x0000000000000000000000007a250d5630b4cf539739df2c5dacb4c659f2488d",
                        "0x0000000000000000000000007a250d5630b4cf539739df2c5dacb4c659f2488d"
                    ]
                },
                "nodeType": 1
            },
            "12": {
                "invocation": {
                    "address": "0xc02aaa39b223fe8d0a0e5c4f27ead9083c756cc2",
                    "callData": "0x000000000000000000000000000000000000000000000000369d9c625dd87560",
                    "decodedMethod": {
                        "callParams": [
                            {
                                "name": "wad",
                                "type": "uint256",
                                "value": "3,935,473,595,686,876,512"
                            }
                        ],
                        "constructorArguments": "",
                        "name": "withdraw",
                        "returnParams": [],
                        "signature": "withdraw(uint256)"
                    },
                    "errorInfo": "",
                    "fromAddress": "0x7a250d5630b4cf539739df2c5dacb4c659f2488d",
                    "gasUsed": 9223,
                    "id": 12,
                    "methodDecoded": true,
                    "operation": "CALL",
                    "output": "",
                    "revert": false,
                    "revertMessage": "",
                    "selector": "0x2e1a7d4d",
                    "status": true,
                    "value": "0"
                },
                "nodeType": 0
            },
            "13": {
                "invocation": {
                    "address": "0x7a250d5630b4cf539739df2c5dacb4c659f2488d",
                    "callData": "0x",
                    "decodedMethod": null,
                    "errorInfo": "",
                    "fromAddress": "0xc02aaa39b223fe8d0a0e5c4f27ead9083c756cc2",
                    "gasUsed": 83,
                    "id": 13,
                    "methodDecoded": false,
                    "operation": "CALL",
                    "output": "",
                    "revert": false,
                    "revertMessage": "",
                    "selector": "fallback",
                    "status": true,
                    "value": "3.935473595686876512"
                },
                "nodeType": 0
            },
            "14": {
                "event": {
                    "contract": "0xc02aaa39b223fe8d0a0e5c4f27ead9083c756cc2",
                    "decodedLog": {
                        "name": "Withdrawal",
                        "params": [
                            {
                                "name": "src",
                                "type": "address",
                                "value": "0x7a250d5630b4cf539739df2c5dacb4c659f2488d"
                            },
                            {
                                "name": "wad",
                                "type": "uint256",
                                "value": "3,935,473,595,686,876,512"
                            }
                        ],
                        "signature": "Withdrawal(address,uint256)"
                    },
                    "id": 14,
                    "logData": "0x000000000000000000000000000000000000000000000000369d9c625dd87560",
                    "logDecoded": true,
                    "operation": "EVENT",
                    "revert": false,
                    "status": true,
                    "topics": [
                        "0x7fcf532c15f0a6db0bd6d0e038bea71d30d808c7d98cb3bf7268a95bf5081b65",
                        "0x0000000000000000000000007a250d5630b4cf539739df2c5dacb4c659f2488d"
                    ]
                },
                "nodeType": 1
            },
            "15": {
                "invocation": {
                    "address": "0x2e3381202988d535e8185e7089f633f7c9998e83",
                    "callData": "0x",
                    "decodedMethod": null,
                    "errorInfo": "",
                    "fromAddress": "0x7a250d5630b4cf539739df2c5dacb4c659f2488d",
                    "gasUsed": 0,
                    "id": 15,
                    "methodDecoded": false,
                    "operation": "CALL",
                    "output": "",
                    "revert": false,
                    "revertMessage": "",
                    "selector": "fallback",
                    "status": true,
                    "value": "3.935473595686876512"
                },
                "nodeType": 0
            },
            "2": {
                "invocation": {
                    "address": "0xbbc2ae13b23d715c30720f079fcd9b4a74093505",
                    "callData": "0x0000000000000000000000002e3381202988d535e8185e7089f633f7c9998e83000000000000000000000000570febdf89c07f256c75686caca215289bb11cfc00000000000000000000000000000000000000000000003bee0bb24d5e634000",
                    "decodedMethod": {
                        "callParams": [
                            {
                                "name": "sender",
                                "type": "address",
                                "value": "0x2e3381202988d535e8185e7089f633f7c9998e83"
                            },
                            {
                                "name": "recipient",
                                "type": "address",
                                "value": "0x570febdf89c07f256c75686caca215289bb11cfc"
                            },
                            {
                                "decimalAvailable": true,
                                "name": "amount",
                                "type": "uint256",
                                "value": "1,105,510,900,000,000,000,000"
                            }
                        ],
                        "constructorArguments": "",
                        "name": "transferFrom",
                        "returnParams": [
                            {
                                "name": "",
                                "type": "bool",
                                "value": true
                            }
                        ],
                        "signature": "transferFrom(address,address,uint256)"
                    },
                    "errorInfo": "",
                    "fromAddress": "0x7a250d5630b4cf539739df2c5dacb4c659f2488d",
                    "gasUsed": 20688,
                    "id": 2,
                    "methodDecoded": true,
                    "operation": "CALL",
                    "output": "0x0000000000000000000000000000000000000000000000000000000000000001",
                    "revert": false,
                    "revertMessage": "",
                    "selector": "0x23b872dd",
                    "status": true,
                    "value": "0"
                },
                "nodeType": 0
            },
            "3": {
                "event": {
                    "contract": "0xbbc2ae13b23d715c30720f079fcd9b4a74093505",
                    "decodedLog": {
                        "name": "Transfer",
                        "params": [
                            {
                                "name": "from",
                                "type": "address",
                                "value": "0x2e3381202988d535e8185e7089f633f7c9998e83"
                            },
                            {
                                "name": "to",
                                "type": "address",
                                "value": "0x570febdf89c07f256c75686caca215289bb11cfc"
                            },
                            {
                                "decimalAvailable": true,
                                "name": "value",
                                "type": "uint256",
                                "value": "1,105,510,900,000,000,000,000"
                            }
                        ],
                        "signature": "Transfer(address,address,uint256)"
                    },
                    "id": 3,
                    "logData": "0x00000000000000000000000000000000000000000000003bee0bb24d5e634000",
                    "logDecoded": true,
                    "operation": "EVENT",
                    "revert": false,
                    "status": true,
                    "topics": [
                        "0xddf252ad1be2c89b69c2b068fc378daa952ba7f163c4a11628f55a4df523b3ef",
                        "0x0000000000000000000000002e3381202988d535e8185e7089f633f7c9998e83",
                        "0x000000000000000000000000570febdf89c07f256c75686caca215289bb11cfc"
                    ]
                },
                "nodeType": 1
            },
            "4": {
                "event": {
                    "contract": "0xbbc2ae13b23d715c30720f079fcd9b4a74093505",
                    "decodedLog": {
                        "name": "Approval",
                        "params": [
                            {
                                "name": "owner",
                                "type": "address",
                                "value": "0x2e3381202988d535e8185e7089f633f7c9998e83"
                            },
                            {
                                "name": "spender",
                                "type": "address",
                                "value": "0x7a250d5630b4cf539739df2c5dacb4c659f2488d"
                            },
                            {
                                "decimalAvailable": true,
                                "name": "value",
                                "type": "uint256",
                                "value": "115,792,089,237,316,195,423,570,985,008,687,907,853,269,984,665,640,563,813,789,008,807,913,129,639,935"
                            }
                        ],
                        "signature": "Approval(address,address,uint256)"
                    },
                    "id": 4,
                    "logData": "0xffffffffffffffffffffffffffffffffffffffffffffd0367b6602f451a1ffff",
                    "logDecoded": true,
                    "operation": "EVENT",
                    "revert": false,
                    "status": true,
                    "topics": [
                        "0x8c5be1e5ebec7d5bd14f71427d1e84f3dd0314c0f7b2291e5b200ac8c7c3b925",
                        "0x0000000000000000000000002e3381202988d535e8185e7089f633f7c9998e83",
                        "0x0000000000000000000000007a250d5630b4cf539739df2c5dacb4c659f2488d"
                    ]
                },
                "nodeType": 1
            },
            "5": {
                "invocation": {
                    "address": "0x570febdf89c07f256c75686caca215289bb11cfc",
                    "callData": "0x0000000000000000000000000000000000000000000000000000000000000000000000000000000000000000000000000000000000000000369d9c625dd875600000000000000000000000007a250d5630b4cf539739df2c5dacb4c659f2488d00000000000000000000000000000000000000000000000000000000000000800000000000000000000000000000000000000000000000000000000000000000",
                    "decodedMethod": {
                        "callParams": [
                            {
                                "name": "amount0Out",
                                "type": "uint256",
                                "value": "0"
                            },
                            {
                                "name": "amount1Out",
                                "type": "uint256",
                                "value": "3,935,473,595,686,876,512"
                            },
                            {
                                "name": "to",
                                "type": "address",
                                "value": "0x7a250d5630b4cf539739df2c5dacb4c659f2488d"
                            },
                            {
                                "name": "data",
                                "type": "bytes",
                                "value": "0x"
                            }
                        ],
                        "constructorArguments": "",
                        "name": "swap",
                        "returnParams": [],
                        "signature": "swap(uint256,uint256,address,bytes)"
                    },
                    "errorInfo": "",
                    "fromAddress": "0x7a250d5630b4cf539739df2c5dacb4c659f2488d",
                    "gasUsed": 64837,
                    "id": 5,
                    "methodDecoded": true,
                    "operation": "CALL",
                    "output": "",
                    "revert": false,
                    "revertMessage": "",
                    "selector": "0x022c0d9f",
                    "status": true,
                    "value": "0"
                },
                "nodeType": 0
            },
            "6": {
                "invocation": {
                    "address": "0xc02aaa39b223fe8d0a0e5c4f27ead9083c756cc2",
                    "callData": "0x0000000000000000000000007a250d5630b4cf539739df2c5dacb4c659f2488d000000000000000000000000000000000000000000000000369d9c625dd87560",
                    "decodedMethod": {
                        "callParams": [
                            {
                                "name": "dst",
                                "type": "address",
                                "value": "0x7a250d5630b4cf539739df2c5dacb4c659f2488d"
                            },
                            {
                                "decimalAvailable": true,
                                "name": "wad",
                                "type": "uint256",
                                "value": "3,935,473,595,686,876,512"
                            }
                        ],
                        "constructorArguments": "",
                        "name": "transfer",
                        "returnParams": [
                            {
                                "name": "",
                                "type": "bool",
                                "value": true
                            }
                        ],
                        "signature": "transfer(address,uint256)"
                    },
                    "errorInfo": "",
                    "fromAddress": "0x570febdf89c07f256c75686caca215289bb11cfc",
                    "gasUsed": 29962,
                    "id": 6,
                    "methodDecoded": true,
                    "operation": "CALL",
                    "output": "0x0000000000000000000000000000000000000000000000000000000000000001",
                    "revert": false,
                    "revertMessage": "",
                    "selector": "0xa9059cbb",
                    "status": true,
                    "value": "0"
                },
                "nodeType": 0
            },
            "7": {
                "event": {
                    "contract": "0xc02aaa39b223fe8d0a0e5c4f27ead9083c756cc2",
                    "decodedLog": {
                        "name": "Transfer",
                        "params": [
                            {
                                "name": "src",
                                "type": "address",
                                "value": "0x570febdf89c07f256c75686caca215289bb11cfc"
                            },
                            {
                                "name": "dst",
                                "type": "address",
                                "value": "0x7a250d5630b4cf539739df2c5dacb4c659f2488d"
                            },
                            {
                                "decimalAvailable": true,
                                "name": "wad",
                                "type": "uint256",
                                "value": "3,935,473,595,686,876,512"
                            }
                        ],
                        "signature": "Transfer(address,address,uint256)"
                    },
                    "id": 7,
                    "logData": "0x000000000000000000000000000000000000000000000000369d9c625dd87560",
                    "logDecoded": true,
                    "operation": "EVENT",
                    "revert": false,
                    "status": true,
                    "topics": [
                        "0xddf252ad1be2c89b69c2b068fc378daa952ba7f163c4a11628f55a4df523b3ef",
                        "0x000000000000000000000000570febdf89c07f256c75686caca215289bb11cfc",
                        "0x0000000000000000000000007a250d5630b4cf539739df2c5dacb4c659f2488d"
                    ]
                },
                "nodeType": 1
            },
            "8": {
                "invocation": {
                    "address": "0xbbc2ae13b23d715c30720f079fcd9b4a74093505",
                    "callData": "0x000000000000000000000000570febdf89c07f256c75686caca215289bb11cfc",
                    "decodedMethod": {
                        "callParams": [
                            {
                                "name": "account",
                                "type": "address",
                                "value": "0x570febdf89c07f256c75686caca215289bb11cfc"
                            }
                        ],
                        "constructorArguments": "",
                        "name": "balanceOf",
                        "returnParams": [
                            {
                                "decimalAvailable": true,
                                "name": "",
                                "type": "uint256",
                                "value": "324,040,583,252,399,905,784,096"
                            }
                        ],
                        "signature": "balanceOf(address)"
                    },
                    "errorInfo": "",
                    "fromAddress": "0x570febdf89c07f256c75686caca215289bb11cfc",
                    "gasUsed": 518,
                    "id": 8,
                    "methodDecoded": true,
                    "operation": "STATICCALL",
                    "output": "0x00000000000000000000000000000000000000000000449e46749b7798e74120",
                    "revert": false,
                    "revertMessage": "",
                    "selector": "0x70a08231",
                    "status": true,
                    "value": "0"
                },
                "nodeType": 0
            },
            "9": {
                "invocation": {
                    "address": "0xc02aaa39b223fe8d0a0e5c4f27ead9083c756cc2",
                    "callData": "0x000000000000000000000000570febdf89c07f256c75686caca215289bb11cfc",
                    "decodedMethod": {
                        "callParams": [
                            {
                                "name": "",
                                "type": "address",
                                "value": "0x570febdf89c07f256c75686caca215289bb11cfc"
                            }
                        ],
                        "constructorArguments": "",
                        "name": "balanceOf",
                        "returnParams": [
                            {
                                "decimalAvailable": true,
                                "name": "",
                                "type": "uint256",
                                "value": "1,153,065,637,122,949,648,823"
                            }
                        ],
                        "signature": "balanceOf(address)"
                    },
                    "errorInfo": "",
                    "fromAddress": "0x570febdf89c07f256c75686caca215289bb11cfc",
                    "gasUsed": 534,
                    "id": 9,
                    "methodDecoded": true,
                    "operation": "STATICCALL",
                    "output": "0x00000000000000000000000000000000000000000000003e82000fc27ee211b7",
                    "revert": false,
                    "revertMessage": "",
                    "selector": "0x70a08231",
                    "status": true,
                    "value": "0"
                },
                "nodeType": 0
            }
        },
        "gasFlame": [
            {
                "children": [
                    {
                        "children": [
                            {
                                "children": [],
                                "depth": 0,
                                "name": "Initial Gas",
                                "value": 23072
                            },
                            {
                                "children": [
                                    {
                                        "children": [],
                                        "depth": 1,
                                        "name": "getReserves",
                                        "value": 2504
                                    },
                                    {
                                        "children": [],
                                        "depth": 1,
                                        "name": "transferFrom",
                                        "value": 20688
                                    },
                                    {
                                        "children": [
                                            {
                                                "children": [],
                                                "depth": 2,
                                                "name": "transfer",
                                                "value": 29962
                                            },
                                            {
                                                "children": [],
                                                "depth": 2,
                                                "name": "balanceOf",
                                                "value": 518
                                            },
                                            {
                                                "children": [],
                                                "depth": 2,
                                                "name": "balanceOf",
                                                "value": 534
                                            }
                                        ],
                                        "depth": 1,
                                        "name": "swap",
                                        "value": 64837
                                    },
                                    {
                                        "children": [
                                            {
                                                "children": [],
                                                "depth": 2,
                                                "name": "fallback",
                                                "value": 83
                                            }
                                        ],
                                        "depth": 1,
                                        "name": "withdraw",
                                        "value": 9223
                                    },
                                    {
                                        "children": [],
                                        "depth": 1,
                                        "name": "fallback",
                                        "value": 0
                                    }
                                ],
                                "depth": 0,
                                "name": "Executed Gas",
                                "value": 117777
                            }
                        ],
                        "depth": -1,
                        "name": "Actual Gas Used",
                        "value": 118149
                    },
                    {
                        "children": [],
                        "depth": -1,
                        "name": "Refunded Gas",
                        "value": 22700
                    }
                ],
                "depth": -2,
                "name": "Total Gas",
                "value": 140849
            }
        ],
        "isConfirmed": true,
        "mainTrace": [
            {
                "children": [
                    {
                        "children": [
                            {
                                "children": [],
                                "depth": 1,
                                "id": 1,
                                "order": 1
                            },
                            {
                                "children": [
                                    {
                                        "children": [],
                                        "depth": 2,
                                        "id": 3,
                                        "order": 3
                                    },
                                    {
                                        "children": [],
                                        "depth": 2,
                                        "id": 4,
                                        "order": 4
                                    }
                                ],
                                "depth": 1,
                                "id": 2,
                                "order": 2
                            },
                            {
                                "children": [
                                    {
                                        "children": [
                                            {
                                                "children": [],
                                                "depth": 3,
                                                "id": 7,
                                                "order": 7
                                            }
                                        ],
                                        "depth": 2,
                                        "id": 6,
                                        "order": 6
                                    },
                                    {
                                        "children": [],
                                        "depth": 2,
                                        "id": 8,
                                        "order": 8
                                    },
                                    {
                                        "children": [],
                                        "depth": 2,
                                        "id": 9,
                                        "order": 9
                                    },
                                    {
                                        "children": [],
                                        "depth": 2,
                                        "id": 10,
                                        "order": 10
                                    },
                                    {
                                        "children": [],
                                        "depth": 2,
                                        "id": 11,
                                        "order": 11
                                    }
                                ],
                                "depth": 1,
                                "id": 5,
                                "order": 5
                            },
                            {
                                "children": [
                                    {
                                        "children": [],
                                        "depth": 2,
                                        "id": 13,
                                        "order": 13
                                    },
                                    {
                                        "children": [],
                                        "depth": 2,
                                        "id": 14,
                                        "order": 14
                                    }
                                ],
                                "depth": 1,
                                "id": 12,
                                "order": 12
                            },
                            {
                                "children": [],
                                "depth": 1,
                                "id": 15,
                                "order": 15
                            }
                        ],
                        "depth": 0,
                        "id": 0,
                        "order": 0
                    }
                ],
                "depth": -1,
                "id": -1,
                "order": -1
            }
        ],
        "mainTraceNodeCount": 16,
        "parentIdMap": {
            "0": -1,
            "1": 0,
            "10": 5,
            "11": 5,
            "12": 0,
            "13": 12,
            "14": 12,
            "15": 0,
            "2": 0,
            "3": 2,
            "4": 2,
            "5": 0,
            "6": 5,
            "7": 6,
            "8": 5,
            "9": 5
        },
        "tidyTrace": [
            {
                "children": [
                    {
                        "children": [
                            {
                                "children": [
                                    {
                                        "children": [],
                                        "depth": 2,
                                        "id": 3,
                                        "order": 3
                                    },
                                    {
                                        "children": [],
                                        "depth": 2,
                                        "id": 4,
                                        "order": 4
                                    }
                                ],
                                "depth": 1,
                                "id": 2,
                                "order": 2
                            },
                            {
                                "children": [
                                    {
                                        "children": [
                                            {
                                                "children": [],
                                                "depth": 3,
                                                "id": 7,
                                                "order": 7
                                            }
                                        ],
                                        "depth": 2,
                                        "id": 6,
                                        "order": 6
                                    },
                                    {
                                        "children": [],
                                        "depth": 2,
                                        "id": 10,
                                        "order": 10
                                    },
                                    {
                                        "children": [],
                                        "depth": 2,
                                        "id": 11,
                                        "order": 11
                                    }
                                ],
                                "depth": 1,
                                "id": 5,
                                "order": 5
                            },
                            {
                                "children": [
                                    {
                                        "children": [],
                                        "depth": 2,
                                        "id": 13,
                                        "order": 13
                                    },
                                    {
                                        "children": [],
                                        "depth": 2,
                                        "id": 14,
                                        "order": 14
                                    }
                                ],
                                "depth": 1,
                                "id": 12,
                                "order": 12
                            },
                            {
                                "children": [],
                                "depth": 1,
                                "id": 15,
                                "order": 15
                            }
                        ],
                        "depth": 0,
                        "id": 0,
                        "order": 0
                    }
                ],
                "depth": -1,
                "id": -1,
                "order": -1
            }
        ],
        "tidyTraceNodeCount": 13
    },
    "state_change": {
        "stateChanges": [
            {
                "address": "0x570febdf89c07f256c75686caca215289bb11cfc",
                "erc": "ERC-20",
                "slots": [
                    {
                        "current": "0x00000000000000000000000000000002150c09efee07b49fcd23e99669dbdaa3",
                        "key": "0x0000000000000000000000000000000000000000000000000000000000000009",
                        "prev": "0x0000000000000000000000000000000214f9092b9554bba2e901c56ad9a2e393"
                    },
                    {
                        "current": "0x000000000000000000000000000131f1b151db87c91fa8ddf1b611dfbf1c2a7a",
                        "key": "0x000000000000000000000000000000000000000000000000000000000000000a",
                        "prev": "0x000000000000000000000000000131db1a6dd2ce851e276039901e9314ba59da"
                    },
                    {
                        "current": "0x6189d2d700000000003e82000fc27ee211b700000000449e46749b7798e74120",
                        "key": "0x0000000000000000000000000000000000000000000000000000000000000008",
                        "prev": "0x6189be1f00000000003eb89dac24dcba87170000000044625868e92a3a840120"
                    }
                ],
                "storageVariables": [
                    {
                        "name": "price0CumulativeLast",
                        "type": "uint256",
                        "value": {
                            "current": "708541030866546599755480597718508493475",
                            "prev": "708442361670063539762652580306563031955",
                            "typeTag": 1
                        }
                    },
                    {
                        "name": "price1CumulativeLast",
                        "type": "uint256",
                        "value": {
                            "current": "26651490957998726618245772237005936729533050",
                            "prev": "26643804177706476955032492794125760968939994",
                            "typeTag": 1
                        }
                    },
                    {
                        "name": "reserve0",
                        "type": "uint112",
                        "value": {
                            "current": "324040583252399905784096",
                            "prev": "322935072352399905784096",
                            "typeTag": 1
                        }
                    },
                    {
                        "name": "reserve1",
                        "type": "uint112",
                        "value": {
                            "current": "1153065637122949648823",
                            "prev": "1157001110718636525335",
                            "typeTag": 1
                        }
                    },
                    {
                        "name": "blockTimestampLast",
                        "type": "uint32",
                        "value": {
                            "current": "1636422359",
                            "prev": "1636417055",
                            "typeTag": 1
                        }
                    }
                ]
            },
            {
                "address": "0xbbc2ae13b23d715c30720f079fcd9b4a74093505",
                "erc": "ERC-20",
                "slots": [
                    {
                        "current": "0x00000000000000000000000000000000000000000000000061eca883c01c8000",
                        "key": "0x236653029f8d874a94e86f92e1a222bb4b4eaeb7fe9667363dd841b73f194095",
                        "prev": "0x00000000000000000000000000000000000000000000003c4ff85ad11e7fc000"
                    },
                    {
                        "current": "0x00000000000000000000000000000000000000000000449e46749b7798e74120",
                        "key": "0x1ff4d4c56a1758dc9e7cbd8eeea73a44d03cd53ce6cc324cfc3034d4cf1a61d9",
                        "prev": "0x0000000000000000000000000000000000000000000044625868e92a3a840120"
                    },
                    {
                        "current": "0xffffffffffffffffffffffffffffffffffffffffffffd0367b6602f451a1ffff",
                        "key": "0xc55e19d2b9c1c47dbd8b9d73e33977d1c5e871c21f91a0aad31639aac009062e",
                        "prev": "0xffffffffffffffffffffffffffffffffffffffffffffd0726971b541b0053fff"
                    }
                ],
                "storageVariables": [
                    {
                        "name": "_balances",
                        "type": "mapping(address => uint256)",
                        "value": {
                            "pairs": [
                                {
                                    "key": "0x2e3381202988d535e8185e7089f633f7c9998e83",
                                    "value": {
                                        "current": "7056200000000000000",
                                        "prev": "1112567100000000000000",
                                        "typeTag": 1
                                    }
                                },
                                {
                                    "key": "0x570febdf89c07f256c75686caca215289bb11cfc",
                                    "value": {
                                        "current": "324040583252399905784096",
                                        "prev": "322935072352399905784096",
                                        "typeTag": 1
                                    }
                                }
                            ],
                            "typeTag": 4
                        }
                    },
                    {
                        "name": "_allowances",
                        "type": "mapping(address => mapping(address => uint256))",
                        "value": {
                            "pairs": [
                                {
                                    "key": "0x2e3381202988d535e8185e7089f633f7c9998e83",
                                    "value": {
                                        "pairs": [
                                            {
                                                "key": "0x7a250d5630b4cf539739df2c5dacb4c659f2488d",
                                                "value": {
                                                    "current": "115792089237316195423570985008687907853269984665640563813789008807913129639935",
                                                    "prev": "115792089237316195423570985008687907853269984665640563814894519707913129639935",
                                                    "typeTag": 1
                                                }
                                            }
                                        ],
                                        "typeTag": 4
                                    }
                                }
                            ],
                            "typeTag": 4
                        }
                    }
                ]
            },
            {
                "address": "0xc02aaa39b223fe8d0a0e5c4f27ead9083c756cc2",
                "erc": "ERC-20",
                "slots": [
                    {
                        "current": "0x00000000000000000000000000000000000000000000003e82000fc27ee211b7",
                        "key": "0x7b2222137926690f5a18eb878ed99731920bd1d3cb0c6f265a506f85f0c0abe1",
                        "prev": "0x00000000000000000000000000000000000000000000003eb89dac24dcba8717"
                    }
                ],
                "storageVariables": [
                    {
                        "name": "balanceOf",
                        "type": "mapping(address => uint256)",
                        "value": {
                            "pairs": [
                                {
                                    "key": "0x570febdf89c07f256c75686caca215289bb11cfc",
                                    "value": {
                                        "current": "1153065637122949648823",
                                        "prev": "1157001110718636525335",
                                        "typeTag": 1
                                    }
                                }
                            ],
                            "typeTag": 4
                        }
                    }
                ]
            }
        ]
    }
}