{
    "balance_change": {
        "balanceChanges": []
    },
    "profile": {
        "basic_info": {
            "baseFee": "",
            "blockNumber": 6751944,
            "callData": "0xef343588000000000000000000000000000000000000000000000067fd7b9884585400000000000000000000000000000000000000000000000000000534439a8a2070000000000000000000000000000000000000000000000000000000000000000000000000000000000000000000000000000000000000000000000000000005d5fd000000000000000000000000000000000000000000000067fd7b98845854000000000000000000000000000000000000000000000000000000000000000000ac00000000000000000000000000000000000000000000000000038d7ea4c68000000000000000000000000000000000000000000000000000002f5e9f9e6513b4000000000000000000000000c12d099be31567add4e4e4d0d45691c3f58f56630000000000000000000000000000000000000000000000000000000000000000000000000000000000000000b212cd1fe3967fb39e3bf8ad5a81932382607baf000000000000000000000000f992782af63e666e3e40ef728ba5fc5f15ae6875000000000000000000000000000000000000000000000000000000000000001b000000000000000000000000000000000000000000000000000000000000001bd987174995aa206f7405c6f16aa92b9671e2f9ac2089db95429658c87c6db3967f6eef0ac72a38314de228ffad6c0c3e6d7e5c7b81e8d88bcac3732c3b76ad8ae7bfdc53920dbc89458050d51719f6516ef34c234fec02f1f6d6903ef727da2909dcaaee654ca2658aacdb10173c5a136a7211f5cd097dfe4f3ceda2fc7c6a04",
            "debugEnable": true,
            "errorInfo": "",
            "eventCount": 0,
            "feeRecipient": "0xff1b891969773159366ab6310ff63a69ac4acffd",
            "formatValue": "0",
            "gasLimit": 400000,
            "gasPrice": "20",
            "gasUsed": 142452,
            "intTxnCount": 2,
            "internalRevert": false,
            "internalRevertMessage": "",
            "isContractCreation": false,
            "isFlashloan": false,
            "maxFee": "",
            "nonce": 2043479,
            "overwritedBlockNumber": -1,
            "priorityFee": "",
            "receiver": "0x2a0c0dbecc7e4d658f48e01e3fa353f44050c208",
            "revertMessage": "",
            "sender": "0xa7a7899d944fe658c4b0a1803bab2f490bd3849e",
            "simulationEnable": true,
            "sourceTxnHash": "0x001c9a69d8c49e1d8273affad248d533783016254a6645ef3970d9d8885c6372",
            "status": true,
            "timestamp": "2018-11-22T13:38:35Z",
            "transactionFee": "0.00284904",
            "txnHash": "0x001c9a69d8c49e1d8273affad248d533783016254a6645ef3970d9d8885c6372",
            "txnIndex": 58,
            "type": 0,
            "value": "0"
        },
        "fund_flow": [],
        "token_infos": [
            {
                "address": "0xc02aaa39b223fe8d0a0e5c4f27ead9083c756cc2",
                "decimals": 18
            },
            {
                "address": "0xeeeeeeeeeeeeeeeeeeeeeeeeeeeeeeeeeeeeeeee",
                "decimals": 18
            }
        ]
    },
    "address_label": {
        "labels": [
            {
                "address": "0x0000000000000000000000000000000000000000",
                "label": "Null Address"
            },
            {
                "address": "0x0000000000000000000000000000000000000001",
                "label": "Precompiled"
            },
            {
                "address": "0x0000000000000000000000000000000000000002",
                "label": "Precompiled"
            },
            {
                "address": "0x0000000000000000000000000000000000000003",
                "label": "Precompiled"
            },
            {
                "address": "0x0000000000000000000000000000000000000004",
                "label": "Precompiled"
            },
            {
                "address": "0xeeeeeeeeeeeeeeeeeeeeeeeeeeeeeeeeeeeeeeee",
                "label": "Ether"
            },
            {
                "address": "0xc12d099be31567add4e4e4d0d45691c3f58f5663",
                "label": "Auctus: AUC Token"
            },
            {
                "address": "0xa7a7899d944fe658c4b0a1803bab2f490bd3849e",
                "label": "IDEX 2"
            },
            {
                "address": "0x2a0c0dbecc7e4d658f48e01e3fa353f44050c208",
                "label": "IDEX"
            }
        ]
    },
    "trace": {
        "accountLabels": null,
        "dataMap": {
            "-1": {
                "invocation": {
                    "address": "0xa7a7899d944fe658c4b0a1803bab2f490bd3849e",
                    "callData": "",
                    "decodedMethod": null,
                    "errorInfo": "",
                    "fromAddress": "",
                    "gasUsed": 0,
                    "id": -1,
                    "methodDecoded": false,
                    "operation": "",
                    "output": "",
                    "revert": false,
                    "revertMessage": "",
                    "selector": "",
                    "status": false,
                    "value": ""
                },
                "nodeType": 0
            },
            "0": {
                "invocation": {
                    "address": "0x2a0c0dbecc7e4d658f48e01e3fa353f44050c208",
                    "callData": "0x000000000000000000000000000000000000000000000067fd7b9884585400000000000000000000000000000000000000000000000000000534439a8a2070000000000000000000000000000000000000000000000000000000000000000000000000000000000000000000000000000000000000000000000000000005d5fd000000000000000000000000000000000000000000000067fd7b98845854000000000000000000000000000000000000000000000000000000000000000000ac00000000000000000000000000000000000000000000000000038d7ea4c68000000000000000000000000000000000000000000000000000002f5e9f9e6513b4000000000000000000000000c12d099be31567add4e4e4d0d45691c3f58f56630000000000000000000000000000000000000000000000000000000000000000000000000000000000000000b212cd1fe3967fb39e3bf8ad5a81932382607baf000000000000000000000000f992782af63e666e3e40ef728ba5fc5f15ae6875000000000000000000000000000000000000000000000000000000000000001b000000000000000000000000000000000000000000000000000000000000001bd987174995aa206f7405c6f16aa92b9671e2f9ac2089db95429658c87c6db3967f6eef0ac72a38314de228ffad6c0c3e6d7e5c7b81e8d88bcac3732c3b76ad8ae7bfdc53920dbc89458050d51719f6516ef34c234fec02f1f6d6903ef727da2909dcaaee654ca2658aacdb10173c5a136a7211f5cd097dfe4f3ceda2fc7c6a04",
                    "decodedMethod": {
                        "callParams": [
                            {
                                "name": "tradeValues",
                                "type": "uint256[8]",
                                "value": [
                                    "1,918,280,000,000,000,000,000",
                                    "374,999,000,000,000,000",
                                    "0",
                                    "382,461",
                                    "1,918,280,000,000,000,000,000",
                                    "172",
                                    "1,000,000,000,000,000",
                                    "13,333,363,555,636,148"
                                ]
                            },
                            {
                                "name": "tradeAddresses",
                                "type": "address[4]",
                                "value": [
                                    "0xc12d099be31567add4e4e4d0d45691c3f58f5663",
                                    "0x0000000000000000000000000000000000000000",
                                    "0xb212cd1fe3967fb39e3bf8ad5a81932382607baf",
                                    "0xf992782af63e666e3e40ef728ba5fc5f15ae6875"
                                ]
                            },
                            {
                                "name": "v",
                                "type": "uint8[2]",
                                "value": [
                                    "27",
                                    "27"
                                ]
                            },
                            {
                                "name": "rs",
                                "type": "bytes32[4]",
                                "value": [
                                    "0xd987174995aa206f7405c6f16aa92b9671e2f9ac2089db95429658c87c6db396",
                                    "0x7f6eef0ac72a38314de228ffad6c0c3e6d7e5c7b81e8d88bcac3732c3b76ad8a",
                                    "0xe7bfdc53920dbc89458050d51719f6516ef34c234fec02f1f6d6903ef727da29",
                                    "0x09dcaaee654ca2658aacdb10173c5a136a7211f5cd097dfe4f3ceda2fc7c6a04"
                                ]
                            }
                        ],
                        "constructorArguments": "",
                        "name": "trade",
                        "returnParams": [
                            {
                                "name": "success",
                                "type": "bool",
                                "value": false
                            }
                        ],
                        "signature": "trade(uint256[8],address[4],uint8[2],bytes32[4])"
                    },
                    "errorInfo": "",
                    "fromAddress": "0xa7a7899d944fe658c4b0a1803bab2f490bd3849e",
                    "gasUsed": 142452,
                    "id": 0,
                    "methodDecoded": true,
                    "operation": "CALL",
                    "output": "0x0000000000000000000000000000000000000000000000000000000000000000",
                    "revert": false,
                    "revertMessage": "",
                    "selector": "0xef343588",
                    "status": true,
                    "value": "0"
                },
                "nodeType": 0
            },
            "1": {
                "invocation": {
                    "address": "0x0000000000000000000000000000000000000001",
                    "callData": "0x7d111554d46ddd187dde3695be85897f1471dca4983ae6dd8a597cc4000000000000000000000000000000000000000000000000000000000000001bd987174995aa206f7405c6f16aa92b9671e2f9ac2089db95429658c87c6db3967f6eef0ac72a38314de228ffad6c0c3e6d7e5c7b81e8d88bcac3732c3b76ad8a",
                    "decodedMethod": {
                        "callParams": [
                            {
                                "name": "hash",
                                "type": "bytes32",
                                "value": "0x2f1a13977d111554d46ddd187dde3695be85897f1471dca4983ae6dd8a597cc4"
                            },
                            {
                                "name": "v",
                                "type": "uint256",
                                "value": "27"
                            },
                            {
                                "name": "r",
                                "type": "bytes32",
                                "value": "0xd987174995aa206f7405c6f16aa92b9671e2f9ac2089db95429658c87c6db396"
                            },
                            {
                                "name": "s",
                                "type": "bytes32",
                                "value": "0x7f6eef0ac72a38314de228ffad6c0c3e6d7e5c7b81e8d88bcac3732c3b76ad8a"
                            }
                        ],
                        "constructorArguments": "",
                        "name": "ecrecover",
                        "returnParams": [
                            {
                                "name": "",
                                "type": "address",
                                "value": "0xb212cd1fe3967fb39e3bf8ad5a81932382607baf"
                            }
                        ],
                        "signature": "ecrecover(bytes32,uint256,bytes32,bytes32)"
                    },
                    "errorInfo": "",
                    "fromAddress": "0x2a0c0dbecc7e4d658f48e01e3fa353f44050c208",
                    "gasUsed": 3000,
                    "id": 1,
                    "methodDecoded": true,
                    "operation": "CALL",
                    "output": "0x000000000000000000000000b212cd1fe3967fb39e3bf8ad5a81932382607baf",
                    "revert": false,
                    "revertMessage": "",
                    "selector": "0x2f1a1397",
                    "status": true,
                    "value": "0"
                },
                "nodeType": 0
            },
            "2": {
                "invocation": {
                    "address": "0x0000000000000000000000000000000000000001",
                    "callData": "0xa5308ab087e351e9530176eed08628d1915d9aba21462ff83ae4610d000000000000000000000000000000000000000000000000000000000000001be7bfdc53920dbc89458050d51719f6516ef34c234fec02f1f6d6903ef727da2909dcaaee654ca2658aacdb10173c5a136a7211f5cd097dfe4f3ceda2fc7c6a04",
                    "decodedMethod": {
                        "callParams": [
                            {
                                "name": "hash",
                                "type": "bytes32",
                                "value": "0xd597e0dca5308ab087e351e9530176eed08628d1915d9aba21462ff83ae4610d"
                            },
                            {
                                "name": "v",
                                "type": "uint256",
                                "value": "27"
                            },
                            {
                                "name": "r",
                                "type": "bytes32",
                                "value": "0xe7bfdc53920dbc89458050d51719f6516ef34c234fec02f1f6d6903ef727da29"
                            },
                            {
                                "name": "s",
                                "type": "bytes32",
                                "value": "0x09dcaaee654ca2658aacdb10173c5a136a7211f5cd097dfe4f3ceda2fc7c6a04"
                            }
                        ],
                        "constructorArguments": "",
                        "name": "ecrecover",
                        "returnParams": [
                            {
                                "name": "",
                                "type": "address",
                                "value": "0xf992782af63e666e3e40ef728ba5fc5f15ae6875"
                            }
                        ],
                        "signature": "ecrecover(bytes32,uint256,bytes32,bytes32)"
                    },
                    "errorInfo": "",
                    "fromAddress": "0x2a0c0dbecc7e4d658f48e01e3fa353f44050c208",
                    "gasUsed": 3000,
                    "id": 2,
                    "methodDecoded": true,
                    "operation": "CALL",
                    "output": "0x000000000000000000000000f992782af63e666e3e40ef728ba5fc5f15ae6875",
                    "revert": false,
                    "revertMessage": "",
                    "selector": "0xd597e0dc",
                    "status": true,
                    "value": "0"
                },
                "nodeType": 0
            }
        },
        "gasFlame": [
            {
                "children": [
                    {
                        "children": [
                            {
                                "children": [],
                                "depth": 0,
                                "name": "Initial Gas",
                                "value": 38168
                            },
                            {
                                "children": [
                                    {
                                        "children": [],
                                        "depth": 1,
                                        "name": "ecrecover",
                                        "value": 3000
                                    },
                                    {
                                        "children": [],
                                        "depth": 1,
                                        "name": "ecrecover",
                                        "value": 3000
                                    }
                                ],
                                "depth": 0,
                                "name": "Executed Gas",
                                "value": 104284
                            }
                        ],
                        "depth": -1,
                        "name": "Actual Gas Used",
                        "value": 142452
                    },
                    {
                        "children": [],
                        "depth": -1,
                        "name": "Refunded Gas",
                        "value": 0
                    }
                ],
                "depth": -2,
                "name": "Total Gas",
                "value": 142452
            }
        ],
        "isConfirmed": true,
        "mainTrace": [
            {
                "children": [
                    {
                        "children": [
                            {
                                "children": [],
                                "depth": 1,
                                "id": 1,
                                "order": 1
                            },
                            {
                                "children": [],
                                "depth": 1,
                                "id": 2,
                                "order": 2
                            }
                        ],
                        "depth": 0,
                        "id": 0,
                        "order": 0
                    }
                ],
                "depth": -1,
                "id": -1,
                "order": -1
            }
        ],
        "mainTraceNodeCount": 3,
        "parentIdMap": {
            "0": -1,
            "1": 0,
            "2": 0
        },
        "tidyTrace": [
            {
                "children": [
                    {
                        "children": [
                            {
                                "children": [],
                                "depth": 1,
                                "id": 1,
                                "order": 1
                            },
                            {
                                "children": [],
                                "depth": 1,
                                "id": 2,
                                "order": 2
                            }
                        ],
                        "depth": 0,
                        "id": 0,
                        "order": 0
                    }
                ],
                "depth": -1,
                "id": -1,
                "order": -1
            }
        ],
        "tidyTraceNodeCount": 3
    },
    "state_change": {
        "stateChanges": [
            {
                "address": "0x2a0c0dbecc7e4d658f48e01e3fa353f44050c208",
                "erc": "",
                "slots": [
                    {
                        "current": "0x00000000000000000000000000000000000000000000000000000000006706c8",
                        "key": "0xc9137932443b4d683310b993fb5e40e6c4594e68f8b0137b28db200bb7d8db2f",
                        "prev": "0x0000000000000000000000000000000000000000000000000000000000670403"
                    },
                    {
                        "current": "0x0000000000000000000000000000000000000000000000000000000000000001",
                        "key": "0x0fb11708dee6aa17b5a726917b2867d19d647d04cf6cbd241c9f37d51583f2bc",
                        "prev": "0x0000000000000000000000000000000000000000000000000000000000000000"
                    },
                    {
                        "current": "0x000000000000000000000000000000000000000000000193845af852ca158dc8",
                        "key": "0x44071efa3bfe3c1825f7df3cbdeb8766ac5ab638d08e90e7b1621284b133381e",
                        "prev": "0x00000000000000000000000000000000000000000000019369bbded3ae590dc8"
                    },
                    {
                        "current": "0x000000000000000000000000000000000000000000000067fd7b988458540000",
                        "key": "0xfafdbb9e657cc8b0ae7a0d341fe789ea14f1e8e388c400928777184c83ba2345",
                        "prev": "0x0000000000000000000000000000000000000000000000000000000000000000"
                    },
                    {
                        "current": "0x0000000000000000000000000000000000000000000012bc94cb63e250bd3e75",
                        "key": "0x357c0ac27a2406e73101b65528dd25f70d3bbe39318f27eec14762df4f680b0d",
                        "prev": "0x000000000000000000000000000000000000000000001254b1eee4dd1425be75"
                    },
                    {
                        "current": "0x000000000000000000000000000000000000000000000000b6eb3016e5a4ba1b",
                        "key": "0x8facbe6b8acb8c47d67fa6516acbeb1bb4c8d5ce87e022945c0676a9d97870c1",
                        "prev": "0x000000000000000000000000000000000000000000000000bc1f73b16fc52a1b"
                    },
                    {
                        "current": "0x000000000000000000000000000000000000000000000002df24ba650d4b8393",
                        "key": "0xa479640fe4a3336d09a1690dc5e1b6e2a72e05e23af34365bdae446314ca4290",
                        "prev": "0x000000000000000000000000000000000000000000000002da023a4343d5ff93"
                    },
                    {
                        "current": "0x000000000000000000000000000000000000000000000004efc18ac1add5b643",
                        "key": "0x3ccb72d91c5c66cba135a4135963ed23443b8a63817f501517468fcd5097e277",
                        "prev": "0x000000000000000000000000000000000000000000000004efafc748ed2aca44"
                    },
                    {
                        "current": "0x00000000000000000000000000000000000000000000000000000000006706c8",
                        "key": "0x0703a564398552875f2e8acf9ba4046b3a3b64c0108a542c377fdaf5432e68dc",
                        "prev": "0x00000000000000000000000000000000000000000000000000000000006706aa"
                    },
                    {
                        "current": "0x000000000000000000000000000000000000000000000452ba64b0e2e2910000",
                        "key": "0x49fd1aa467f03fc0e1a09456f4a8ca89e09b39bb24e0f84df182ff7644013685",
                        "prev": "0x0000000000000000000000000000000000000000000004bab7e049673ae50000"
                    }
                ],
                "storageVariables": [
                    {
                        "name": "tokens",
                        "type": "mapping(address => mapping(address => uint256))",
                        "value": {
                            "pairs": [
                                {
                                    "key": "0x0000000000000000000000000000000000000000",
                                    "value": {
                                        "pairs": [
                                            {
                                                "key": "0x034767f3c519f361c5ecf46ebfc08981c629d381",
                                                "value": {
                                                    "current": "91063218504857925187",
                                                    "prev": "91058218506857925188",
                                                    "typeTag": 1
                                                }
                                            },
                                            {
                                                "key": "0xb212cd1fe3967fb39e3bf8ad5a81932382607baf",
                                                "value": {
                                                    "current": "13180681609330080283",
                                                    "prev": "13555680609330080283",
                                                    "typeTag": 1
                                                }
                                            },
                                            {
                                                "key": "0xf992782af63e666e3e40ef728ba5fc5f15ae6875",
                                                "value": {
                                                    "current": "52972669660216132499",
                                                    "prev": "52602670658216132499",
                                                    "typeTag": 1
                                                }
                                            }
                                        ],
                                        "typeTag": 4
                                    }
                                },
                                {
                                    "key": "0xc12d099be31567add4e4e4d0d45691c3f58f5663",
                                    "value": {
                                        "pairs": [
                                            {
                                                "key": "0x034767f3c519f361c5ecf46ebfc08981c629d381",
                                                "value": {
                                                    "current": "7443575069900321164744",
                                                    "prev": "7441656789900321164744",
                                                    "typeTag": 1
                                                }
                                            },
                                            {
                                                "key": "0xb212cd1fe3967fb39e3bf8ad5a81932382607baf",
                                                "value": {
                                                    "current": "88481306350672563486325",
                                                    "prev": "86564944630672563486325",
                                                    "typeTag": 1
                                                }
                                            },
                                            {
                                                "key": "0xf992782af63e666e3e40ef728ba5fc5f15ae6875",
                                                "value": {
                                                    "current": "20415530000000000000000",
                                                    "prev": "22333810000000000000000",
                                                    "typeTag": 1
                                                }
                                            }
                                        ],
                                        "typeTag": 4
                                    }
                                }
                            ],
                            "typeTag": 4
                        }
                    },
                    {
                        "name": "lastActiveTransaction",
                        "type": "mapping(address => uint256)",
                        "value": {
                            "pairs": [
                                {
                                    "key": "0xb212cd1fe3967fb39e3bf8ad5a81932382607baf",
                                    "value": {
                                        "current": "6751944",
                                        "prev": "6751235",
                                        "typeTag": 1
                                    }
                                },
                                {
                                    "key": "0xf992782af63e666e3e40ef728ba5fc5f15ae6875",
                                    "value": {
                                        "current": "6751944",
                                        "prev": "6751914",
                                        "typeTag": 1
                                    }
                                }
                            ],
                            "typeTag": 4
                        }
                    },
                    {
                        "name": "orderFills",
                        "type": "mapping(bytes32 => uint256)",
                        "value": {
                            "pairs": [
                                {
                                    "key": "0xb747fcfb67fadb4c9a511b314cff4f348c09b39bda4a7e5647c5228f5bf31e1b",
                                    "value": {
                                        "current": "1918280000000000000000",
                                        "prev": "0",
                                        "typeTag": 1
                                    }
                                }
                            ],
                            "typeTag": 4
                        }
                    },
                    {
                        "name": "traded",
                        "type": "mapping(bytes32 => bool)",
                        "value": {
                            "pairs": [
                                {
                                    "key": "0x1d0b6437188e53a4528489f04ad4c3cbb2e2fec42a6dc3976326793bc3626b02",
                                    "value": {
                                        "current": "true",
                                        "prev": "false",
                                        "typeTag": 1
                                    }
                                }
                            ],
                            "typeTag": 4
                        }
                    }
                ]
            }
        ]
    }
}