{
    "balance_change": {
        "balanceChanges": [
            {
                "account": "0x18e0f4e4d954eb3498aae0d990801f96b135b1b2",
                "assets": [
                    {
                        "address": "0x09233d553058c2f42ba751c87816a8e9fae7ef10",
                        "amount": "1",
                        "iconUrl": "https://assets.blocksec.com/nft/icon/nft_94ee28f2-b5d5-4acb-af85-6f158344b362.png",
                        "isERC1155": false,
                        "isERC721": true,
                        "sign": true,
                        "tokenID": "7619",
                        "value": ""
                    },
                    {
                        "address": "0xeeeeeeeeeeeeeeeeeeeeeeeeeeeeeeeeeeeeeeee",
                        "amount": "0.24",
                        "iconUrl": "https://assets.blocksec.com/image/1663669189317-3.png",
                        "isERC1155": false,
                        "isERC721": false,
                        "sign": false,
                        "value": "907.8024"
                    },
                    {
                        "address": "0x09233d553058c2f42ba751c87816a8e9fae7ef10",
                        "amount": "1",
                        "iconUrl": "https://assets.blocksec.com/nft/icon/nft_94ee28f2-b5d5-4acb-af85-6f158344b362.png",
                        "isERC1155": false,
                        "isERC721": true,
                        "sign": true,
                        "tokenID": "7617",
                        "value": ""
                    },
                    {
                        "address": "0x09233d553058c2f42ba751c87816a8e9fae7ef10",
                        "amount": "1",
                        "iconUrl": "https://assets.blocksec.com/nft/icon/nft_94ee28f2-b5d5-4acb-af85-6f158344b362.png",
                        "isERC1155": false,
                        "isERC721": true,
                        "sign": true,
                        "tokenID": "7618",
                        "value": ""
                    }
                ]
            },
            {
                "account": "0x09233d553058c2f42ba751c87816a8e9fae7ef10",
                "assets": [
                    {
                        "address": "0xeeeeeeeeeeeeeeeeeeeeeeeeeeeeeeeeeeeeeeee",
                        "amount": "0.24",
                        "iconUrl": "https://assets.blocksec.com/image/1663669189317-3.png",
                        "isERC1155": false,
                        "isERC721": false,
                        "sign": true,
                        "value": "907.8024"
                    }
                ]
            },
            {
                "account": "0x0000000000000000000000000000000000000000",
                "assets": [
                    {
                        "address": "0x09233d553058c2f42ba751c87816a8e9fae7ef10",
                        "amount": "1",
                        "iconUrl": "https://assets.blocksec.com/nft/icon/nft_94ee28f2-b5d5-4acb-af85-6f158344b362.png",
                        "isERC1155": false,
                        "isERC721": true,
                        "sign": false,
                        "tokenID": "7617",
                        "value": ""
                    },
                    {
                        "address": "0x09233d553058c2f42ba751c87816a8e9fae7ef10",
                        "amount": "1",
                        "iconUrl": "https://assets.blocksec.com/nft/icon/nft_94ee28f2-b5d5-4acb-af85-6f158344b362.png",
                        "isERC1155": false,
                        "isERC721": true,
                        "sign": false,
                        "tokenID": "7618",
                        "value": ""
                    },
                    {
                        "address": "0x09233d553058c2f42ba751c87816a8e9fae7ef10",
                        "amount": "1",
                        "iconUrl": "https://assets.blocksec.com/nft/icon/nft_94ee28f2-b5d5-4acb-af85-6f158344b362.png",
                        "isERC1155": false,
                        "isERC721": true,
                        "sign": false,
                        "tokenID": "7619",
                        "value": ""
                    }
                ]
            }
        ]
    },
    "profile": {
        "basic_info": {
            "baseFee": "48.900991529",
            "blockNumber": 13802170,
            "callData": "0xa0712d680000000000000000000000000000000000000000000000000000000000000003",
            "debugEnable": true,
            "errorInfo": "",
            "eventCount": 3,
            "feeRecipient": "0x829bd824b016326a401d083b33d092293333a830",
            "formatValue": "0.24",
            "gasLimit": 635545,
            "gasPrice": "49.900991529",
            "gasUsed": 418705,
            "intTxnCount": 4,
            "internalRevert": false,
            "internalRevertMessage": "",
            "isContractCreation": false,
            "isFlashloan": false,
            "maxFee": "50",
            "nonce": 16,
            "overwritedBlockNumber": -1,
            "priorityFee": "1",
            "receiver": "0x09233d553058c2f42ba751c87816a8e9fae7ef10",
            "revertMessage": "",
            "sender": "0x18e0f4e4d954eb3498aae0d990801f96b135b1b2",
            "simulationEnable": true,
            "sourceTxnHash": "0x00cd8ee302006408bf9faad907946bed0adbbf01078596d31594fe1b02ad971f",
            "status": true,
            "timestamp": "2021-12-14T08:21:56Z",
            "transactionFee": "0.020893794658149945",
            "txnHash": "0x00cd8ee302006408bf9faad907946bed0adbbf01078596d31594fe1b02ad971f",
            "txnIndex": 112,
            "type": 2,
            "value": "240000000000000000"
        },
        "fund_flow": [
            {
                "amount": "0.24",
                "from": "0x18e0f4e4d954eb3498aae0d990801f96b135b1b2",
                "id": 1,
                "isERC1155": false,
                "isERC721": false,
                "isReverted": false,
                "order": 1,
                "to": "0x09233d553058c2f42ba751c87816a8e9fae7ef10",
                "token": "0xeeeeeeeeeeeeeeeeeeeeeeeeeeeeeeeeeeeeeeee"
            },
            {
                "amount": "1",
                "from": "0x0000000000000000000000000000000000000000",
                "id": 2,
                "isERC1155": false,
                "isERC721": true,
                "isReverted": false,
                "order": 2,
                "to": "0x18e0f4e4d954eb3498aae0d990801f96b135b1b2",
                "token": "0x09233d553058c2f42ba751c87816a8e9fae7ef10",
                "tokenID": "7617"
            },
            {
                "amount": "1",
                "from": "0x0000000000000000000000000000000000000000",
                "id": 3,
                "isERC1155": false,
                "isERC721": true,
                "isReverted": false,
                "order": 3,
                "to": "0x18e0f4e4d954eb3498aae0d990801f96b135b1b2",
                "token": "0x09233d553058c2f42ba751c87816a8e9fae7ef10",
                "tokenID": "7618"
            },
            {
                "amount": "1",
                "from": "0x0000000000000000000000000000000000000000",
                "id": 4,
                "isERC1155": false,
                "isERC721": true,
                "isReverted": false,
                "order": 4,
                "to": "0x18e0f4e4d954eb3498aae0d990801f96b135b1b2",
                "token": "0x09233d553058c2f42ba751c87816a8e9fae7ef10",
                "tokenID": "7619"
            }
        ],
        "token_infos": [
            {
                "address": "0xc02aaa39b223fe8d0a0e5c4f27ead9083c756cc2",
                "decimals": 18
            },
            {
                "address": "0xeeeeeeeeeeeeeeeeeeeeeeeeeeeeeeeeeeeeeeee",
                "decimals": 18
            }
        ]
    },
    "address_label": {
        "labels": [
            {
                "address": "0x0000000000000000000000000000000000000002",
                "label": "Precompiled"
            },
            {
                "address": "0x0000000000000000000000000000000000000003",
                "label": "Precompiled"
            },
            {
                "address": "0x0000000000000000000000000000000000000004",
                "label": "Precompiled"
            },
            {
                "address": "0xeeeeeeeeeeeeeeeeeeeeeeeeeeeeeeeeeeeeeeee",
                "label": "Ether"
            },
            {
                "address": "0x09233d553058c2f42ba751c87816a8e9fae7ef10",
                "label": "My Pet Hooligan: MPH Token"
            },
            {
                "address": "0xe0d17cf343665afc2fc58da1ca52ae022ac98515",
                "label": "MPHPresale"
            },
            {
                "address": "0x0000000000000000000000000000000000000001",
                "label": "Precompiled"
            }
        ]
    },
    "trace": {
        "accountLabels": null,
        "dataMap": {
            "-1": {
                "invocation": {
                    "address": "0x18e0f4e4d954eb3498aae0d990801f96b135b1b2",
                    "callData": "",
                    "decodedMethod": null,
                    "errorInfo": "",
                    "fromAddress": "",
                    "gasUsed": 0,
                    "id": -1,
                    "methodDecoded": false,
                    "operation": "",
                    "output": "",
                    "revert": false,
                    "revertMessage": "",
                    "selector": "",
                    "status": false,
                    "value": ""
                },
                "nodeType": 0
            },
            "0": {
                "invocation": {
                    "address": "0x09233d553058c2f42ba751c87816a8e9fae7ef10",
                    "callData": "0x0000000000000000000000000000000000000000000000000000000000000003",
                    "decodedMethod": {
                        "callParams": [
                            {
                                "name": "_count",
                                "type": "uint256",
                                "value": "3"
                            }
                        ],
                        "constructorArguments": "",
                        "name": "mint",
                        "returnParams": [],
                        "signature": "mint(uint256)"
                    },
                    "errorInfo": "",
                    "fromAddress": "0x18e0f4e4d954eb3498aae0d990801f96b135b1b2",
                    "gasUsed": 418705,
                    "id": 0,
                    "methodDecoded": true,
                    "operation": "CALL",
                    "output": "",
                    "revert": false,
                    "revertMessage": "",
                    "selector": "0xa0712d68",
                    "status": true,
                    "value": "0.24"
                },
                "nodeType": 0
            },
            "1": {
                "invocation": {
                    "address": "0xe0d17cf343665afc2fc58da1ca52ae022ac98515",
                    "callData": "0x00000000000000000000000018e0f4e4d954eb3498aae0d990801f96b135b1b2",
                    "decodedMethod": {
                        "callParams": [
                            {
                                "name": "_address",
                                "type": "address",
                                "value": "0x18e0f4e4d954eb3498aae0d990801f96b135b1b2"
                            }
                        ],
                        "constructorArguments": "",
                        "name": "isInPresale",
                        "returnParams": [
                            {
                                "name": "",
                                "type": "uint8",
                                "value": "3"
                            }
                        ],
                        "signature": "isInPresale(address)"
                    },
                    "errorInfo": "",
                    "fromAddress": "0x09233d553058c2f42ba751c87816a8e9fae7ef10",
                    "gasUsed": 2927,
                    "id": 1,
                    "methodDecoded": true,
                    "operation": "STATICCALL",
                    "output": "0x0000000000000000000000000000000000000000000000000000000000000003",
                    "revert": false,
                    "revertMessage": "",
                    "selector": "0xbb996844",
                    "status": true,
                    "value": "0"
                },
                "nodeType": 0
            },
            "2": {
                "invocation": {
                    "address": "0xe0d17cf343665afc2fc58da1ca52ae022ac98515",
                    "callData": "0x00000000000000000000000018e0f4e4d954eb3498aae0d990801f96b135b1b2",
                    "decodedMethod": {
                        "callParams": [
                            {
                                "name": "_address",
                                "type": "address",
                                "value": "0x18e0f4e4d954eb3498aae0d990801f96b135b1b2"
                            }
                        ],
                        "constructorArguments": "",
                        "name": "isInPresale",
                        "returnParams": [
                            {
                                "name": "",
                                "type": "uint8",
                                "value": "3"
                            }
                        ],
                        "signature": "isInPresale(address)"
                    },
                    "errorInfo": "",
                    "fromAddress": "0x09233d553058c2f42ba751c87816a8e9fae7ef10",
                    "gasUsed": 927,
                    "id": 2,
                    "methodDecoded": true,
                    "operation": "STATICCALL",
                    "output": "0x0000000000000000000000000000000000000000000000000000000000000003",
                    "revert": false,
                    "revertMessage": "",
                    "selector": "0xbb996844",
                    "status": true,
                    "value": "0"
                },
                "nodeType": 0
            },
            "3": {
                "invocation": {
                    "address": "0xe0d17cf343665afc2fc58da1ca52ae022ac98515",
                    "callData": "0x00000000000000000000000018e0f4e4d954eb3498aae0d990801f96b135b1b2",
                    "decodedMethod": {
                        "callParams": [
                            {
                                "name": "_address",
                                "type": "address",
                                "value": "0x18e0f4e4d954eb3498aae0d990801f96b135b1b2"
                            }
                        ],
                        "constructorArguments": "",
                        "name": "isInMintedPresale",
                        "returnParams": [
                            {
                                "name": "",
                                "type": "bool",
                                "value": false
                            }
                        ],
                        "signature": "isInMintedPresale(address)"
                    },
                    "errorInfo": "",
                    "fromAddress": "0x09233d553058c2f42ba751c87816a8e9fae7ef10",
                    "gasUsed": 2884,
                    "id": 3,
                    "methodDecoded": true,
                    "operation": "STATICCALL",
                    "output": "0x0000000000000000000000000000000000000000000000000000000000000000",
                    "revert": false,
                    "revertMessage": "",
                    "selector": "0x201bd068",
                    "status": true,
                    "value": "0"
                },
                "nodeType": 0
            },
            "4": {
                "event": {
                    "contract": "0x09233d553058c2f42ba751c87816a8e9fae7ef10",
                    "decodedLog": {
                        "name": "Transfer",
                        "params": [
                            {
                                "name": "from",
                                "type": "address",
                                "value": "0x0000000000000000000000000000000000000000"
                            },
                            {
                                "name": "to",
                                "type": "address",
                                "value": "0x18e0f4e4d954eb3498aae0d990801f96b135b1b2"
                            },
                            {
                                "decimalAvailable": true,
                                "name": "tokenId",
                                "type": "uint256",
                                "value": "7,617"
                            }
                        ],
                        "signature": "Transfer(address,address,uint256)"
                    },
                    "id": 4,
                    "logData": "0x",
                    "logDecoded": true,
                    "operation": "EVENT",
                    "revert": false,
                    "status": true,
                    "topics": [
                        "0xddf252ad1be2c89b69c2b068fc378daa952ba7f163c4a11628f55a4df523b3ef",
                        "0x0000000000000000000000000000000000000000000000000000000000000000",
                        "0x00000000000000000000000018e0f4e4d954eb3498aae0d990801f96b135b1b2",
                        "0x0000000000000000000000000000000000000000000000000000000000001dc1"
                    ]
                },
                "nodeType": 1
            },
            "5": {
                "event": {
                    "contract": "0x09233d553058c2f42ba751c87816a8e9fae7ef10",
                    "decodedLog": {
                        "name": "Transfer",
                        "params": [
                            {
                                "name": "from",
                                "type": "address",
                                "value": "0x0000000000000000000000000000000000000000"
                            },
                            {
                                "name": "to",
                                "type": "address",
                                "value": "0x18e0f4e4d954eb3498aae0d990801f96b135b1b2"
                            },
                            {
                                "decimalAvailable": true,
                                "name": "tokenId",
                                "type": "uint256",
                                "value": "7,618"
                            }
                        ],
                        "signature": "Transfer(address,address,uint256)"
                    },
                    "id": 5,
                    "logData": "0x",
                    "logDecoded": true,
                    "operation": "EVENT",
                    "revert": false,
                    "status": true,
                    "topics": [
                        "0xddf252ad1be2c89b69c2b068fc378daa952ba7f163c4a11628f55a4df523b3ef",
                        "0x0000000000000000000000000000000000000000000000000000000000000000",
                        "0x00000000000000000000000018e0f4e4d954eb3498aae0d990801f96b135b1b2",
                        "0x0000000000000000000000000000000000000000000000000000000000001dc2"
                    ]
                },
                "nodeType": 1
            },
            "6": {
                "event": {
                    "contract": "0x09233d553058c2f42ba751c87816a8e9fae7ef10",
                    "decodedLog": {
                        "name": "Transfer",
                        "params": [
                            {
                                "name": "from",
                                "type": "address",
                                "value": "0x0000000000000000000000000000000000000000"
                            },
                            {
                                "name": "to",
                                "type": "address",
                                "value": "0x18e0f4e4d954eb3498aae0d990801f96b135b1b2"
                            },
                            {
                                "decimalAvailable": true,
                                "name": "tokenId",
                                "type": "uint256",
                                "value": "7,619"
                            }
                        ],
                        "signature": "Transfer(address,address,uint256)"
                    },
                    "id": 6,
                    "logData": "0x",
                    "logDecoded": true,
                    "operation": "EVENT",
                    "revert": false,
                    "status": true,
                    "topics": [
                        "0xddf252ad1be2c89b69c2b068fc378daa952ba7f163c4a11628f55a4df523b3ef",
                        "0x0000000000000000000000000000000000000000000000000000000000000000",
                        "0x00000000000000000000000018e0f4e4d954eb3498aae0d990801f96b135b1b2",
                        "0x0000000000000000000000000000000000000000000000000000000000001dc3"
                    ]
                },
                "nodeType": 1
            },
            "7": {
                "invocation": {
                    "address": "0xe0d17cf343665afc2fc58da1ca52ae022ac98515",
                    "callData": "0x00000000000000000000000018e0f4e4d954eb3498aae0d990801f96b135b1b2",
                    "decodedMethod": {
                        "callParams": [
                            {
                                "name": "_address",
                                "type": "address",
                                "value": "0x18e0f4e4d954eb3498aae0d990801f96b135b1b2"
                            }
                        ],
                        "constructorArguments": "",
                        "name": "addToMinted",
                        "returnParams": [],
                        "signature": "addToMinted(address)"
                    },
                    "errorInfo": "",
                    "fromAddress": "0x09233d553058c2f42ba751c87816a8e9fae7ef10",
                    "gasUsed": 22970,
                    "id": 7,
                    "methodDecoded": true,
                    "operation": "CALL",
                    "output": "",
                    "revert": false,
                    "revertMessage": "",
                    "selector": "0xd6c6f294",
                    "status": true,
                    "value": "0"
                },
                "nodeType": 0
            }
        },
        "gasFlame": [
            {
                "children": [
                    {
                        "children": [
                            {
                                "children": [],
                                "depth": 0,
                                "name": "Initial Gas",
                                "value": 21204
                            },
                            {
                                "children": [
                                    {
                                        "children": [],
                                        "depth": 1,
                                        "name": "isInPresale",
                                        "value": 2927
                                    },
                                    {
                                        "children": [],
                                        "depth": 1,
                                        "name": "isInPresale",
                                        "value": 927
                                    },
                                    {
                                        "children": [],
                                        "depth": 1,
                                        "name": "isInMintedPresale",
                                        "value": 2884
                                    },
                                    {
                                        "children": [],
                                        "depth": 1,
                                        "name": "addToMinted",
                                        "value": 22970
                                    }
                                ],
                                "depth": 0,
                                "name": "Executed Gas",
                                "value": 400301
                            }
                        ],
                        "depth": -1,
                        "name": "Actual Gas Used",
                        "value": 418705
                    },
                    {
                        "children": [],
                        "depth": -1,
                        "name": "Refunded Gas",
                        "value": 2800
                    }
                ],
                "depth": -2,
                "name": "Total Gas",
                "value": 421505
            }
        ],
        "isConfirmed": true,
        "mainTrace": [
            {
                "children": [
                    {
                        "children": [
                            {
                                "children": [],
                                "depth": 1,
                                "id": 1,
                                "order": 1
                            },
                            {
                                "children": [],
                                "depth": 1,
                                "id": 2,
                                "order": 2
                            },
                            {
                                "children": [],
                                "depth": 1,
                                "id": 3,
                                "order": 3
                            },
                            {
                                "children": [],
                                "depth": 1,
                                "id": 4,
                                "order": 4
                            },
                            {
                                "children": [],
                                "depth": 1,
                                "id": 5,
                                "order": 5
                            },
                            {
                                "children": [],
                                "depth": 1,
                                "id": 6,
                                "order": 6
                            },
                            {
                                "children": [],
                                "depth": 1,
                                "id": 7,
                                "order": 7
                            }
                        ],
                        "depth": 0,
                        "id": 0,
                        "order": 0
                    }
                ],
                "depth": -1,
                "id": -1,
                "order": -1
            }
        ],
        "mainTraceNodeCount": 8,
        "parentIdMap": {
            "0": -1,
            "1": 0,
            "2": 0,
            "3": 0,
            "4": 0,
            "5": 0,
            "6": 0,
            "7": 0
        },
        "tidyTrace": [
            {
                "children": [
                    {
                        "children": [
                            {
                                "children": [],
                                "depth": 1,
                                "id": 4,
                                "order": 4
                            },
                            {
                                "children": [],
                                "depth": 1,
                                "id": 5,
                                "order": 5
                            },
                            {
                                "children": [],
                                "depth": 1,
                                "id": 6,
                                "order": 6
                            },
                            {
                                "children": [],
                                "depth": 1,
                                "id": 7,
                                "order": 7
                            }
                        ],
                        "depth": 0,
                        "id": 0,
                        "order": 0
                    }
                ],
                "depth": -1,
                "id": -1,
                "order": -1
            }
        ],
        "tidyTraceNodeCount": 5
    },
    "state_change": {
        "stateChanges": [
            {
                "address": "0x09233d553058c2f42ba751c87816a8e9fae7ef10",
                "erc": "ERC-721",
                "slots": [
                    {
                        "current": "0x0000000000000000000000000000000000000000000000000000000000001dc2",
                        "key": "0x7a721806f23d5a87e8a5256b95f4f189e677e3e7f6d75b4e8b88702996331bd7",
                        "prev": "0x0000000000000000000000000000000000000000000000000000000000000000"
                    },
                    {
                        "current": "0x0000000000000000000000000000000000000000000000000000000000000001",
                        "key": "0x706af6468130f37019d0542184a0b47326953ffada9a8d325d33c9f4619eecfa",
                        "prev": "0x0000000000000000000000000000000000000000000000000000000000000000"
                    },
                    {
                        "current": "0x0000000000000000000000000000000000000000000000000000000000001dc3",
                        "key": "0xf4c20bbbfdb7966252650e5b75d5f8de1e2e71b086f49ac14448b7dcef4f2939",
                        "prev": "0x0000000000000000000000000000000000000000000000000000000000000000"
                    },
                    {
                        "current": "0x0000000000000000000000000000000000000000000000000000000000001dc1",
                        "key": "0x9e245659337021816b6c50fffa7c56d1244e1af95da65101b2e3464ffc3aef08",
                        "prev": "0x0000000000000000000000000000000000000000000000000000000000000000"
                    },
                    {
                        "current": "0x0000000000000000000000000000000000000000000000000000000000001dc4",
                        "key": "0x0000000000000000000000000000000000000000000000000000000000000008",
                        "prev": "0x0000000000000000000000000000000000000000000000000000000000001dc1"
                    },
                    {
                        "current": "0x0000000000000000000000000000000000000000000000000000000000001dc2",
                        "key": "0x11bd20e34fbe3d88e6a4e6ba15c48372fa3113bc68cc38695f1ba2a0bf287c45",
                        "prev": "0x0000000000000000000000000000000000000000000000000000000000000000"
                    },
                    {
                        "current": "0x0000000000000000000000000000000000000000000000000000000000001dc1",
                        "key": "0xf3f7a9fe364faab93b216da50a3214154f22a0a2b415b23a84c8169e8b638ca4",
                        "prev": "0x0000000000000000000000000000000000000000000000000000000000000000"
                    },
                    {
                        "current": "0x0000000000000000000000000000000000000000000000000000000000001dc2",
                        "key": "0xf3f7a9fe364faab93b216da50a3214154f22a0a2b415b23a84c8169e8b638ca5",
                        "prev": "0x0000000000000000000000000000000000000000000000000000000000000000"
                    },
                    {
                        "current": "0x0000000000000000000000000000000000000000000000000000000000001dc3",
                        "key": "0xf3f7a9fe364faab93b216da50a3214154f22a0a2b415b23a84c8169e8b638ca6",
                        "prev": "0x0000000000000000000000000000000000000000000000000000000000000000"
                    },
                    {
                        "current": "0x0000000000000000000000000000000000000000000000000000000000000003",
                        "key": "0xee07dd69604db01ea0e5d968e32061367bb61bcc6f9c3272288e80ee2b0911b1",
                        "prev": "0x0000000000000000000000000000000000000000000000000000000000000000"
                    },
                    {
                        "current": "0x00000000000000000000000018e0f4e4d954eb3498aae0d990801f96b135b1b2",
                        "key": "0x79ef3c8be698db4dfc0e5b2fe43e3cfe236dfd3efece23c4731590b5bce2f632",
                        "prev": "0x0000000000000000000000000000000000000000000000000000000000000000"
                    },
                    {
                        "current": "0x0000000000000000000000000000000000000000000000000000000000000002",
                        "key": "0xfff1fad3b1dcb7d3ab5b6b1dac36b45eba6c34488f1bdf6556b2120945a95989",
                        "prev": "0x0000000000000000000000000000000000000000000000000000000000000000"
                    },
                    {
                        "current": "0x00000000000000000000000018e0f4e4d954eb3498aae0d990801f96b135b1b2",
                        "key": "0x50be7ec4ec4e4598dd3690b7c76c7729a2dea96ffa175d70c1cf6eb0de9ad15e",
                        "prev": "0x0000000000000000000000000000000000000000000000000000000000000000"
                    },
                    {
                        "current": "0x0000000000000000000000000000000000000000000000000000000000001dc1",
                        "key": "0xb0cc2bdae3a1b4565b3d741a34f7b2aa42ebd5d229b83ffd2cd2d4fe98466e9a",
                        "prev": "0x0000000000000000000000000000000000000000000000000000000000000000"
                    },
                    {
                        "current": "0x00000000000000000000000018e0f4e4d954eb3498aae0d990801f96b135b1b2",
                        "key": "0xe3445ee1a38fa1206a224bc77560041c4ef60140154f8914242f0ecaec2e2b61",
                        "prev": "0x0000000000000000000000000000000000000000000000000000000000000000"
                    },
                    {
                        "current": "0x0000000000000000000000000000000000000000000000000000000000001dc3",
                        "key": "0x774e67afa1294aac3cf176ee7e9e86a7d760d8cea4346e3c73d8f92e72962541",
                        "prev": "0x0000000000000000000000000000000000000000000000000000000000000000"
                    }
                ],
                "storageVariables": [
                    {
                        "name": "_allTokens",
                        "type": "uint256[]",
                        "value": {
                            "elemType": "uint256",
                            "elems": [
                                {
                                    "index": 7617,
                                    "value": {
                                        "current": "7617",
                                        "prev": "0",
                                        "typeTag": 1
                                    }
                                },
                                {
                                    "index": 7618,
                                    "value": {
                                        "current": "7618",
                                        "prev": "0",
                                        "typeTag": 1
                                    }
                                },
                                {
                                    "index": 7619,
                                    "value": {
                                        "current": "7619",
                                        "prev": "0",
                                        "typeTag": 1
                                    }
                                }
                            ],
                            "typeTag": 2
                        }
                    },
                    {
                        "name": "_owners",
                        "type": "mapping(uint256 => address)",
                        "value": {
                            "pairs": [
                                {
                                    "key": "7617",
                                    "value": {
                                        "current": "0x18e0f4e4d954eb3498aae0d990801f96b135b1b2",
                                        "prev": "0x0000000000000000000000000000000000000000",
                                        "typeTag": 1
                                    }
                                },
                                {
                                    "key": "7618",
                                    "value": {
                                        "current": "0x18e0f4e4d954eb3498aae0d990801f96b135b1b2",
                                        "prev": "0x0000000000000000000000000000000000000000",
                                        "typeTag": 1
                                    }
                                },
                                {
                                    "key": "7619",
                                    "value": {
                                        "current": "0x18e0f4e4d954eb3498aae0d990801f96b135b1b2",
                                        "prev": "0x0000000000000000000000000000000000000000",
                                        "typeTag": 1
                                    }
                                }
                            ],
                            "typeTag": 4
                        }
                    },
                    {
                        "name": "_ownedTokens",
                        "type": "mapping(address => mapping(uint256 => uint256))",
                        "value": {
                            "pairs": [
                                {
                                    "key": "0x18e0f4e4d954eb3498aae0d990801f96b135b1b2",
                                    "value": {
                                        "pairs": [
                                            {
                                                "key": "0",
                                                "value": {
                                                    "current": "7617",
                                                    "prev": "0",
                                                    "typeTag": 1
                                                }
                                            },
                                            {
                                                "key": "1",
                                                "value": {
                                                    "current": "7618",
                                                    "prev": "0",
                                                    "typeTag": 1
                                                }
                                            },
                                            {
                                                "key": "2",
                                                "value": {
                                                    "current": "7619",
                                                    "prev": "0",
                                                    "typeTag": 1
                                                }
                                            }
                                        ],
                                        "typeTag": 4
                                    }
                                }
                            ],
                            "typeTag": 4
                        }
                    },
                    {
                        "name": "_balances",
                        "type": "mapping(address => uint256)",
                        "value": {
                            "pairs": [
                                {
                                    "key": "0x18e0f4e4d954eb3498aae0d990801f96b135b1b2",
                                    "value": {
                                        "current": "3",
                                        "prev": "0",
                                        "typeTag": 1
                                    }
                                }
                            ],
                            "typeTag": 4
                        }
                    },
                    {
                        "name": "_ownedTokensIndex",
                        "type": "mapping(uint256 => uint256)",
                        "value": {
                            "pairs": [
                                {
                                    "key": "7618",
                                    "value": {
                                        "current": "1",
                                        "prev": "0",
                                        "typeTag": 1
                                    }
                                },
                                {
                                    "key": "7619",
                                    "value": {
                                        "current": "2",
                                        "prev": "0",
                                        "typeTag": 1
                                    }
                                }
                            ],
                            "typeTag": 4
                        }
                    },
                    {
                        "name": "_allTokensIndex",
                        "type": "mapping(uint256 => uint256)",
                        "value": {
                            "pairs": [
                                {
                                    "key": "7617",
                                    "value": {
                                        "current": "7617",
                                        "prev": "0",
                                        "typeTag": 1
                                    }
                                },
                                {
                                    "key": "7618",
                                    "value": {
                                        "current": "7618",
                                        "prev": "0",
                                        "typeTag": 1
                                    }
                                },
                                {
                                    "key": "7619",
                                    "value": {
                                        "current": "7619",
                                        "prev": "0",
                                        "typeTag": 1
                                    }
                                }
                            ],
                            "typeTag": 4
                        }
                    }
                ]
            },
            {
                "address": "0xe0d17cf343665afc2fc58da1ca52ae022ac98515",
                "erc": "",
                "slots": [
                    {
                        "current": "0x0000000000000000000000000000000000000000000000000000000000000001",
                        "key": "0x47bed02fb80dd63f182f6111adbfb6df9733a311fb9a7cce521c8066c57c9281",
                        "prev": "0x0000000000000000000000000000000000000000000000000000000000000000"
                    }
                ],
                "storageVariables": [
                    {
                        "name": "_presaleAddressesMinted",
                        "type": "mapping(address => bool)",
                        "value": {
                            "pairs": [
                                {
                                    "key": "0x18e0f4e4d954eb3498aae0d990801f96b135b1b2",
                                    "value": {
                                        "current": "true",
                                        "prev": "false",
                                        "typeTag": 1
                                    }
                                }
                            ],
                            "typeTag": 4
                        }
                    }
                ]
            }
        ]
    }
}