{
    "balance_change": {
        "balanceChanges": []
    },
    "profile": {
        "basic_info": {
            "baseFee": "",
            "blockNumber": 8307004,
            "callData": "0x23b872dd000000000000000000000000664e7e53f8c517d2510c0b388211b448a390989e000000000000000000000000645830ee2c984bb6ec14da7eeca8ee30b399fb11000000000000000000000000000000000000000000008d2c09496426a6680000",
            "debugEnable": true,
            "errorInfo": "execution reverted",
            "eventCount": 0,
            "feeRecipient": "0xcc22cb1b6625b64e81909456111d76be6158dfbc",
            "formatValue": "0",
            "gasLimit": 180000,
            "gasPrice": "4.28125",
            "gasUsed": 25457,
            "intTxnCount": 0,
            "internalRevert": false,
            "internalRevertMessage": "",
            "isContractCreation": false,
            "isFlashloan": false,
            "maxFee": "",
            "nonce": 28862,
            "overwritedBlockNumber": -1,
            "priorityFee": "",
            "receiver": "0x7a3d3c4f30c46f51b814bee23d970a7c9b757a32",
            "revertMessage": "",
            "sender": "0x211f4bf57ba49ca363b73d71b368c916e46635c1",
            "simulationEnable": true,
            "sourceTxnHash": "0x00c172af6dfae45f5cc7550ae3bccedff2f4bbb544aa7226a01fdd1a78416695",
            "status": false,
            "timestamp": "2019-08-08T01:20:13Z",
            "transactionFee": "0.00010898778125",
            "txnHash": "0x00c172af6dfae45f5cc7550ae3bccedff2f4bbb544aa7226a01fdd1a78416695",
            "txnIndex": 143,
            "type": 0,
            "value": "0"
        },
        "fund_flow": [],
        "token_infos": [
            {
                "address": "0xc02aaa39b223fe8d0a0e5c4f27ead9083c756cc2",
                "decimals": 18
            },
            {
                "address": "0xeeeeeeeeeeeeeeeeeeeeeeeeeeeeeeeeeeeeeeee",
                "decimals": 18
            }
        ]
    },
    "address_label": {
        "labels": [
            {
                "address": "0x0000000000000000000000000000000000000002",
                "label": "Precompiled"
            },
            {
                "address": "0x0000000000000000000000000000000000000003",
                "label": "Precompiled"
            },
            {
                "address": "0x0000000000000000000000000000000000000004",
                "label": "Precompiled"
            },
            {
                "address": "0xeeeeeeeeeeeeeeeeeeeeeeeeeeeeeeeeeeeeeeee",
                "label": "Ether"
            },
            {
                "address": "0x7a3d3c4f30c46f51b814bee23d970a7c9b757a32",
                "label": "Asgardecofund.io: ASG Token"
            },
            {
                "address": "0x0000000000000000000000000000000000000001",
                "label": "Precompiled"
            }
        ]
    },
    "trace": {
        "accountLabels": null,
        "dataMap": {
            "-1": {
                "invocation": {
                    "address": "0x211f4bf57ba49ca363b73d71b368c916e46635c1",
                    "callData": "",
                    "decodedMethod": null,
                    "errorInfo": "",
                    "fromAddress": "",
                    "gasUsed": 0,
                    "id": -1,
                    "methodDecoded": false,
                    "operation": "",
                    "output": "",
                    "revert": false,
                    "revertMessage": "",
                    "selector": "",
                    "status": false,
                    "value": ""
                },
                "nodeType": 0
            },
            "0": {
                "invocation": {
                    "address": "0x7a3d3c4f30c46f51b814bee23d970a7c9b757a32",
                    "callData": "0x000000000000000000000000664e7e53f8c517d2510c0b388211b448a390989e000000000000000000000000645830ee2c984bb6ec14da7eeca8ee30b399fb11000000000000000000000000000000000000000000008d2c09496426a6680000",
                    "decodedMethod": {
                        "callParams": [
                            {
                                "name": "_from",
                                "type": "address",
                                "value": "0x664e7e53f8c517d2510c0b388211b448a390989e"
                            },
                            {
                                "name": "_to",
                                "type": "address",
                                "value": "0x645830ee2c984bb6ec14da7eeca8ee30b399fb11"
                            },
                            {
                                "decimalAvailable": true,
                                "name": "_value",
                                "type": "uint256",
                                "value": "666,666,000,000,000,000,000,000"
                            }
                        ],
                        "constructorArguments": "",
                        "name": "transferFrom",
                        "returnParams": [],
                        "signature": "transferFrom(address,address,uint256)"
                    },
                    "errorInfo": "execution reverted",
                    "fromAddress": "0x211f4bf57ba49ca363b73d71b368c916e46635c1",
                    "gasUsed": 25457,
                    "id": 0,
                    "methodDecoded": true,
                    "operation": "CALL",
                    "output": "",
                    "revert": true,
                    "revertMessage": "",
                    "selector": "0x23b872dd",
                    "status": false,
                    "value": "0"
                },
                "nodeType": 0
            }
        },
        "gasFlame": [
            {
                "children": [
                    {
                        "children": [
                            {
                                "children": [],
                                "depth": 0,
                                "name": "Initial Gas",
                                "value": 24728
                            },
                            {
                                "children": [],
                                "depth": 0,
                                "name": "Executed Gas",
                                "value": 729
                            }
                        ],
                        "depth": -1,
                        "name": "Actual Gas Used",
                        "value": 25457
                    },
                    {
                        "children": [],
                        "depth": -1,
                        "name": "Refunded Gas",
                        "value": 0
                    }
                ],
                "depth": -2,
                "name": "Total Gas",
                "value": 25457
            }
        ],
        "isConfirmed": true,
        "mainTrace": [
            {
                "children": [
                    {
                        "children": [],
                        "depth": 0,
                        "id": 0,
                        "order": 0
                    }
                ],
                "depth": -1,
                "id": -1,
                "order": -1
            }
        ],
        "mainTraceNodeCount": 1,
        "parentIdMap": {
            "0": -1
        },
        "tidyTrace": [
            {
                "children": [
                    {
                        "children": [],
                        "depth": 0,
                        "id": 0,
                        "order": 0
                    }
                ],
                "depth": -1,
                "id": -1,
                "order": -1
            }
        ],
        "tidyTraceNodeCount": 1
    },
    "state_change": {
        "stateChanges": []
    }
}