{
    "balance_change": {
        "balanceChanges": [
            {
                "account": "0xe17ee7b3c676701c66b395a35f0df4c2276a344e",
                "assets": [
                    {
                        "address": "0x70a72833d6bf7f508c8224ce59ea1ef3d0ea3a38",
                        "amount": "10,407",
                        "iconUrl": "",
                        "isERC1155": false,
                        "isERC721": false,
                        "sign": false,
                        "value": ""
                    }
                ]
            },
            {
                "account": "0xe6521286a26122a87cf7ef166eab0b9e8e15b911",
                "assets": [
                    {
                        "address": "0x70a72833d6bf7f508c8224ce59ea1ef3d0ea3a38",
                        "amount": "10,407",
                        "iconUrl": "",
                        "isERC1155": false,
                        "isERC721": false,
                        "sign": true,
                        "value": ""
                    }
                ]
            }
        ]
    },
    "profile": {
        "basic_info": {
            "baseFee": "",
            "blockNumber": 8562809,
            "callData": "0xa9059cbb000000000000000000000000e6521286a26122a87cf7ef166eab0b9e8e15b9110000000000000000000000000000000000000000000002342a234159d23c0000",
            "debugEnable": true,
            "errorInfo": "",
            "eventCount": 1,
            "feeRecipient": "0xb2930b35844a230f00e51431acae96fe543a0347",
            "formatValue": "0",
            "gasLimit": 60000,
            "gasPrice": "50",
            "gasUsed": 52219,
            "intTxnCount": 0,
            "internalRevert": false,
            "internalRevertMessage": "",
            "isContractCreation": false,
            "isFlashloan": false,
            "maxFee": "",
            "nonce": 30421,
            "overwritedBlockNumber": -1,
            "priorityFee": "",
            "receiver": "0x70a72833d6bf7f508c8224ce59ea1ef3d0ea3a38",
            "revertMessage": "",
            "sender": "0xe17ee7b3c676701c66b395a35f0df4c2276a344e",
            "simulationEnable": true,
            "sourceTxnHash": "0x0027296a135ab2d2e01eeb9c2f8e2f2ffae8287a7727ccc2befc4759fc4309e0",
            "status": true,
            "timestamp": "2019-09-16T20:59:40Z",
            "transactionFee": "0.00261095",
            "txnHash": "0x0027296a135ab2d2e01eeb9c2f8e2f2ffae8287a7727ccc2befc4759fc4309e0",
            "txnIndex": 0,
            "type": 0,
            "value": "0"
        },
        "fund_flow": [
            {
                "amount": "10,407",
                "from": "0xe17ee7b3c676701c66b395a35f0df4c2276a344e",
                "id": 1,
                "isERC1155": false,
                "isERC721": false,
                "isReverted": false,
                "order": 1,
                "to": "0xe6521286a26122a87cf7ef166eab0b9e8e15b911",
                "token": "0x70a72833d6bf7f508c8224ce59ea1ef3d0ea3a38"
            }
        ],
        "token_infos": [
            {
                "address": "0x70a72833d6bf7f508c8224ce59ea1ef3d0ea3a38",
                "decimals": 18
            },
            {
                "address": "0xc02aaa39b223fe8d0a0e5c4f27ead9083c756cc2",
                "decimals": 18
            },
            {
                "address": "0xeeeeeeeeeeeeeeeeeeeeeeeeeeeeeeeeeeeeeeee",
                "decimals": 18
            }
        ]
    },
    "address_label": {
        "labels": [
            {
                "address": "0xe17ee7b3c676701c66b395a35f0df4c2276a344e",
                "label": "DigiFinex"
            },
            {
                "address": "0xe6521286a26122a87cf7ef166eab0b9e8e15b911",
                "label": "KUCOIN"
            },
            {
                "address": "0x0000000000000000000000000000000000000001",
                "label": "Precompiled"
            },
            {
                "address": "0x0000000000000000000000000000000000000002",
                "label": "Precompiled"
            },
            {
                "address": "0x0000000000000000000000000000000000000003",
                "label": "Precompiled"
            },
            {
                "address": "0x0000000000000000000000000000000000000004",
                "label": "Precompiled"
            },
            {
                "address": "0xeeeeeeeeeeeeeeeeeeeeeeeeeeeeeeeeeeeeeeee",
                "label": "Ether"
            },
            {
                "address": "0x70a72833d6bf7f508c8224ce59ea1ef3d0ea3a38",
                "label": "UTRUST: Old UTK Token"
            }
        ]
    },
    "trace": {
        "accountLabels": null,
        "dataMap": {
            "-1": {
                "invocation": {
                    "address": "0xe17ee7b3c676701c66b395a35f0df4c2276a344e",
                    "callData": "",
                    "decodedMethod": null,
                    "errorInfo": "",
                    "fromAddress": "",
                    "gasUsed": 0,
                    "id": -1,
                    "methodDecoded": false,
                    "operation": "",
                    "output": "",
                    "revert": false,
                    "revertMessage": "",
                    "selector": "",
                    "status": false,
                    "value": ""
                },
                "nodeType": 0
            },
            "0": {
                "invocation": {
                    "address": "0x70a72833d6bf7f508c8224ce59ea1ef3d0ea3a38",
                    "callData": "0x000000000000000000000000e6521286a26122a87cf7ef166eab0b9e8e15b9110000000000000000000000000000000000000000000002342a234159d23c0000",
                    "decodedMethod": {
                        "callParams": [
                            {
                                "name": "_to",
                                "type": "address",
                                "value": "0xe6521286a26122a87cf7ef166eab0b9e8e15b911"
                            },
                            {
                                "decimalAvailable": true,
                                "name": "_value",
                                "type": "uint256",
                                "value": "10,407,000,000,000,000,000,000"
                            }
                        ],
                        "constructorArguments": "",
                        "name": "transfer",
                        "returnParams": [
                            {
                                "name": "",
                                "type": "bool",
                                "value": true
                            }
                        ],
                        "signature": "transfer(address,uint256)"
                    },
                    "errorInfo": "",
                    "fromAddress": "0xe17ee7b3c676701c66b395a35f0df4c2276a344e",
                    "gasUsed": 52219,
                    "id": 0,
                    "methodDecoded": true,
                    "operation": "CALL",
                    "output": "0x0000000000000000000000000000000000000000000000000000000000000001",
                    "revert": false,
                    "revertMessage": "",
                    "selector": "0xa9059cbb",
                    "status": true,
                    "value": "0"
                },
                "nodeType": 0
            },
            "1": {
                "event": {
                    "contract": "0x70a72833d6bf7f508c8224ce59ea1ef3d0ea3a38",
                    "decodedLog": {
                        "name": "Transfer",
                        "params": [
                            {
                                "name": "from",
                                "type": "address",
                                "value": "0xe17ee7b3c676701c66b395a35f0df4c2276a344e"
                            },
                            {
                                "name": "to",
                                "type": "address",
                                "value": "0xe6521286a26122a87cf7ef166eab0b9e8e15b911"
                            },
                            {
                                "decimalAvailable": true,
                                "name": "value",
                                "type": "uint256",
                                "value": "10,407,000,000,000,000,000,000"
                            }
                        ],
                        "signature": "Transfer(address,address,uint256)"
                    },
                    "id": 1,
                    "logData": "0x0000000000000000000000000000000000000000000002342a234159d23c0000",
                    "logDecoded": true,
                    "operation": "EVENT",
                    "revert": false,
                    "status": true,
                    "topics": [
                        "0xddf252ad1be2c89b69c2b068fc378daa952ba7f163c4a11628f55a4df523b3ef",
                        "0x000000000000000000000000e17ee7b3c676701c66b395a35f0df4c2276a344e",
                        "0x000000000000000000000000e6521286a26122a87cf7ef166eab0b9e8e15b911"
                    ]
                },
                "nodeType": 1
            }
        },
        "gasFlame": [
            {
                "children": [
                    {
                        "children": [
                            {
                                "children": [],
                                "depth": 0,
                                "name": "Initial Gas",
                                "value": 23320
                            },
                            {
                                "children": [],
                                "depth": 0,
                                "name": "Executed Gas",
                                "value": 28899
                            }
                        ],
                        "depth": -1,
                        "name": "Actual Gas Used",
                        "value": 52219
                    },
                    {
                        "children": [],
                        "depth": -1,
                        "name": "Refunded Gas",
                        "value": 0
                    }
                ],
                "depth": -2,
                "name": "Total Gas",
                "value": 52219
            }
        ],
        "isConfirmed": true,
        "mainTrace": [
            {
                "children": [
                    {
                        "children": [
                            {
                                "children": [],
                                "depth": 1,
                                "id": 1,
                                "order": 1
                            }
                        ],
                        "depth": 0,
                        "id": 0,
                        "order": 0
                    }
                ],
                "depth": -1,
                "id": -1,
                "order": -1
            }
        ],
        "mainTraceNodeCount": 2,
        "parentIdMap": {
            "0": -1,
            "1": 0
        },
        "tidyTrace": [
            {
                "children": [
                    {
                        "children": [
                            {
                                "children": [],
                                "depth": 1,
                                "id": 1,
                                "order": 1
                            }
                        ],
                        "depth": 0,
                        "id": 0,
                        "order": 0
                    }
                ],
                "depth": -1,
                "id": -1,
                "order": -1
            }
        ],
        "tidyTraceNodeCount": 2
    },
    "state_change": {
        "stateChanges": [
            {
                "address": "0x70a72833d6bf7f508c8224ce59ea1ef3d0ea3a38",
                "erc": "ERC-20",
                "slots": [
                    {
                        "current": "0x00000000000000000000000000000000000000000005096acafa626944f49400",
                        "key": "0x6ddf4ed587182e373671d85f5425e67e567e9bfc40a5b97730e4658462383a37",
                        "prev": "0x000000000000000000000000000000000000000000050b9ef51da3c317309400"
                    },
                    {
                        "current": "0x0000000000000000000000000000000000000000000002342a234159d23c0000",
                        "key": "0x1821b50911d0f4b12cd5e59ce7deb81944014d4e6783c54cbd2b3a28552c1ea5",
                        "prev": "0x0000000000000000000000000000000000000000000000000000000000000000"
                    }
                ],
                "storageVariables": [
                    {
                        "name": "balances",
                        "type": "mapping(address => uint256)",
                        "value": {
                            "pairs": [
                                {
                                    "key": "0xe17ee7b3c676701c66b395a35f0df4c2276a344e",
                                    "value": {
                                        "current": "6089100377401730000000000",
                                        "prev": "6099507377401730000000000",
                                        "typeTag": 1
                                    }
                                },
                                {
                                    "key": "0xe6521286a26122a87cf7ef166eab0b9e8e15b911",
                                    "value": {
                                        "current": "10407000000000000000000",
                                        "prev": "0",
                                        "typeTag": 1
                                    }
                                }
                            ],
                            "typeTag": 4
                        }
                    }
                ]
            }
        ]
    }
}