{
    "balance_change": {
        "balanceChanges": [
            {
                "account": "0xaab326fd8541f11c861938b2e116d35276c01314",
                "assets": [
                    {
                        "address": "0xf44745fbd41f6a1ba151df190db0564c5fcc4410",
                        "amount": "2.2493",
                        "iconUrl": "",
                        "isERC1155": false,
                        "isERC721": false,
                        "sign": false,
                        "value": ""
                    }
                ]
            },
            {
                "account": "0x3e0b25e0ca96b33cd78b87dd5d3e4ee5575fa29d",
                "assets": [
                    {
                        "address": "0xf44745fbd41f6a1ba151df190db0564c5fcc4410",
                        "amount": "2.2493",
                        "iconUrl": "",
                        "isERC1155": false,
                        "isERC721": false,
                        "sign": true,
                        "value": ""
                    }
                ]
            }
        ]
    },
    "profile": {
        "basic_info": {
            "baseFee": "",
            "blockNumber": 5132664,
            "callData": "0xa9059cbb0000000000000000000000003e0b25e0ca96b33cd78b87dd5d3e4ee5575fa29d0000000000000000000000000000000000000000000000001f371e6ec5494000",
            "debugEnable": true,
            "errorInfo": "",
            "eventCount": 1,
            "feeRecipient": "0x829bd824b016326a401d083b33d092293333a830",
            "formatValue": "0",
            "gasLimit": 100000,
            "gasPrice": "5",
            "gasUsed": 37465,
            "intTxnCount": 0,
            "internalRevert": false,
            "internalRevertMessage": "",
            "isContractCreation": false,
            "isFlashloan": false,
            "maxFee": "",
            "nonce": 24572,
            "overwritedBlockNumber": -1,
            "priorityFee": "",
            "receiver": "0xf44745fbd41f6a1ba151df190db0564c5fcc4410",
            "revertMessage": "",
            "sender": "0xaab326fd8541f11c861938b2e116d35276c01314",
            "simulationEnable": true,
            "sourceTxnHash": "0x00b382741ba2564bb2b765ed5268ed00ae979924faa86c4b05bcf91f1101be08",
            "status": true,
            "timestamp": "2018-02-21T22:28:58Z",
            "transactionFee": "0.000187325",
            "txnHash": "0x00b382741ba2564bb2b765ed5268ed00ae979924faa86c4b05bcf91f1101be08",
            "txnIndex": 119,
            "type": 0,
            "value": "0"
        },
        "fund_flow": [
            {
                "amount": "2.2493",
                "from": "0xaab326fd8541f11c861938b2e116d35276c01314",
                "id": 1,
                "isERC1155": false,
                "isERC721": false,
                "isReverted": false,
                "order": 1,
                "to": "0x3e0b25e0ca96b33cd78b87dd5d3e4ee5575fa29d",
                "token": "0xf44745fbd41f6a1ba151df190db0564c5fcc4410"
            }
        ],
        "token_infos": [
            {
                "address": "0xeeeeeeeeeeeeeeeeeeeeeeeeeeeeeeeeeeeeeeee",
                "decimals": 18
            },
            {
                "address": "0xc02aaa39b223fe8d0a0e5c4f27ead9083c756cc2",
                "decimals": 18
            },
            {
                "address": "0xf44745fbd41f6a1ba151df190db0564c5fcc4410",
                "decimals": 18
            }
        ]
    },
    "address_label": {
        "labels": [
            {
                "address": "0x0000000000000000000000000000000000000004",
                "label": "Precompiled"
            },
            {
                "address": "0xeeeeeeeeeeeeeeeeeeeeeeeeeeeeeeeeeeeeeeee",
                "label": "Ether"
            },
            {
                "address": "0xf44745fbd41f6a1ba151df190db0564c5fcc4410",
                "label": "Copytrack: Old Token"
            },
            {
                "address": "0x0000000000000000000000000000000000000001",
                "label": "Precompiled"
            },
            {
                "address": "0x0000000000000000000000000000000000000002",
                "label": "Precompiled"
            },
            {
                "address": "0x0000000000000000000000000000000000000003",
                "label": "Precompiled"
            }
        ]
    },
    "trace": {
        "accountLabels": null,
        "dataMap": {
            "-1": {
                "invocation": {
                    "address": "0xaab326fd8541f11c861938b2e116d35276c01314",
                    "callData": "",
                    "decodedMethod": null,
                    "errorInfo": "",
                    "fromAddress": "",
                    "gasUsed": 0,
                    "id": -1,
                    "methodDecoded": false,
                    "operation": "",
                    "output": "",
                    "revert": false,
                    "revertMessage": "",
                    "selector": "",
                    "status": false,
                    "value": ""
                },
                "nodeType": 0
            },
            "0": {
                "invocation": {
                    "address": "0xf44745fbd41f6a1ba151df190db0564c5fcc4410",
                    "callData": "0x0000000000000000000000003e0b25e0ca96b33cd78b87dd5d3e4ee5575fa29d0000000000000000000000000000000000000000000000001f371e6ec5494000",
                    "decodedMethod": {
                        "callParams": [
                            {
                                "name": "_to",
                                "type": "address",
                                "value": "0x3e0b25e0ca96b33cd78b87dd5d3e4ee5575fa29d"
                            },
                            {
                                "decimalAvailable": true,
                                "name": "_value",
                                "type": "uint256",
                                "value": "2,249,300,000,000,000,000"
                            }
                        ],
                        "constructorArguments": "",
                        "name": "transfer",
                        "returnParams": [
                            {
                                "name": "success",
                                "type": "bool",
                                "value": true
                            }
                        ],
                        "signature": "transfer(address,uint256)"
                    },
                    "errorInfo": "",
                    "fromAddress": "0xaab326fd8541f11c861938b2e116d35276c01314",
                    "gasUsed": 37465,
                    "id": 0,
                    "methodDecoded": true,
                    "operation": "CALL",
                    "output": "0x0000000000000000000000000000000000000000000000000000000000000001",
                    "revert": false,
                    "revertMessage": "",
                    "selector": "0xa9059cbb",
                    "status": true,
                    "value": "0"
                },
                "nodeType": 0
            },
            "1": {
                "event": {
                    "contract": "0xf44745fbd41f6a1ba151df190db0564c5fcc4410",
                    "decodedLog": {
                        "name": "Transfer",
                        "params": [
                            {
                                "name": "from",
                                "type": "address",
                                "value": "0xaab326fd8541f11c861938b2e116d35276c01314"
                            },
                            {
                                "name": "to",
                                "type": "address",
                                "value": "0x3e0b25e0ca96b33cd78b87dd5d3e4ee5575fa29d"
                            },
                            {
                                "decimalAvailable": true,
                                "name": "value",
                                "type": "uint256",
                                "value": "2,249,300,000,000,000,000"
                            }
                        ],
                        "signature": "Transfer(address,address,uint256)"
                    },
                    "id": 1,
                    "logData": "0x0000000000000000000000000000000000000000000000001f371e6ec5494000",
                    "logDecoded": true,
                    "operation": "EVENT",
                    "revert": false,
                    "status": true,
                    "topics": [
                        "0xddf252ad1be2c89b69c2b068fc378daa952ba7f163c4a11628f55a4df523b3ef",
                        "0x000000000000000000000000aab326fd8541f11c861938b2e116d35276c01314",
                        "0x0000000000000000000000003e0b25e0ca96b33cd78b87dd5d3e4ee5575fa29d"
                    ]
                },
                "nodeType": 1
            }
        },
        "gasFlame": [
            {
                "children": [
                    {
                        "children": [
                            {
                                "children": [],
                                "depth": 0,
                                "name": "Initial Gas",
                                "value": 23256
                            },
                            {
                                "children": [],
                                "depth": 0,
                                "name": "Executed Gas",
                                "value": 14209
                            }
                        ],
                        "depth": -1,
                        "name": "Actual Gas Used",
                        "value": 37465
                    },
                    {
                        "children": [],
                        "depth": -1,
                        "name": "Refunded Gas",
                        "value": 0
                    }
                ],
                "depth": -2,
                "name": "Total Gas",
                "value": 37465
            }
        ],
        "isConfirmed": true,
        "mainTrace": [
            {
                "children": [
                    {
                        "children": [
                            {
                                "children": [],
                                "depth": 1,
                                "id": 1,
                                "order": 1
                            }
                        ],
                        "depth": 0,
                        "id": 0,
                        "order": 0
                    }
                ],
                "depth": -1,
                "id": -1,
                "order": -1
            }
        ],
        "mainTraceNodeCount": 2,
        "parentIdMap": {
            "0": -1,
            "1": 0
        },
        "tidyTrace": [
            {
                "children": [
                    {
                        "children": [
                            {
                                "children": [],
                                "depth": 1,
                                "id": 1,
                                "order": 1
                            }
                        ],
                        "depth": 0,
                        "id": 0,
                        "order": 0
                    }
                ],
                "depth": -1,
                "id": -1,
                "order": -1
            }
        ],
        "tidyTraceNodeCount": 2
    },
    "state_change": {
        "stateChanges": [
            {
                "address": "0xf44745fbd41f6a1ba151df190db0564c5fcc4410",
                "erc": "ERC-20",
                "slots": [
                    {
                        "current": "0x000000000000000000000000000000000000000000001d8f561e01e9b40da000",
                        "key": "0xb17a0751bc00dc9b618c4b07da6020ef7fcd8c1309f89d7aa71992b5667ff4c9",
                        "prev": "0x000000000000000000000000000000000000000000001d8f755520587956e000"
                    },
                    {
                        "current": "0x000000000000000000000000000000000000000000000003a7b724109e9f8000",
                        "key": "0x98b3bf1c9736cadba67a42e577ca3cf88b80c9a2c29b46a761f23c74f38aaebb",
                        "prev": "0x000000000000000000000000000000000000000000000003888005a1d9564000"
                    }
                ],
                "storageVariables": [
                    {
                        "name": "balances",
                        "type": "mapping(address => uint256)",
                        "value": {
                            "pairs": [
                                {
                                    "key": "0x3e0b25e0ca96b33cd78b87dd5d3e4ee5575fa29d",
                                    "value": {
                                        "current": "67425400000000000000",
                                        "prev": "65176100000000000000",
                                        "typeTag": 1
                                    }
                                },
                                {
                                    "key": "0xaab326fd8541f11c861938b2e116d35276c01314",
                                    "value": {
                                        "current": "139592717805200000000000",
                                        "prev": "139594967105200000000000",
                                        "typeTag": 1
                                    }
                                }
                            ],
                            "typeTag": 4
                        }
                    }
                ]
            }
        ]
    }
}