{
    "balance_change": {
        "balanceChanges": [
            {
                "account": "0xb6a52d14efad3810cc4bc4611f3f23e8089c13c2",
                "assets": [
                    {
                        "address": "0x2296e7310247c20da8be722a5ec5950741e1948f",
                        "amount": "9,999.999989999999999999",
                        "iconUrl": "",
                        "isERC1155": false,
                        "isERC721": false,
                        "sign": false,
                        "value": ""
                    }
                ]
            },
            {
                "account": "0x1800246b58dc9edf07013b66a5a6800a9596f419",
                "assets": [
                    {
                        "address": "0x2296e7310247c20da8be722a5ec5950741e1948f",
                        "amount": "9,999.999989999999999999",
                        "iconUrl": "",
                        "isERC1155": false,
                        "isERC721": false,
                        "sign": true,
                        "value": ""
                    }
                ]
            }
        ]
    },
    "profile": {
        "basic_info": {
            "baseFee": "",
            "blockNumber": 8085962,
            "callData": "0xa9059cbb0000000000000000000000001800246b58dc9edf07013b66a5a6800a9596f41900000000000000000000000000000000000000000000021e19e0c0a263cd5fff",
            "debugEnable": true,
            "errorInfo": "",
            "eventCount": 1,
            "feeRecipient": "0x09ab1303d3ccaf5f018cd511146b07a240c70294",
            "formatValue": "0",
            "gasLimit": 100000,
            "gasPrice": "10",
            "gasUsed": 38093,
            "intTxnCount": 0,
            "internalRevert": false,
            "internalRevertMessage": "",
            "isContractCreation": false,
            "isFlashloan": false,
            "maxFee": "",
            "nonce": 0,
            "overwritedBlockNumber": -1,
            "priorityFee": "",
            "receiver": "0x2296e7310247c20da8be722a5ec5950741e1948f",
            "revertMessage": "",
            "sender": "0xb6a52d14efad3810cc4bc4611f3f23e8089c13c2",
            "simulationEnable": true,
            "sourceTxnHash": "0x00984abbb5333ce7f358a573d565f9ce6660f9f8a8063fb3fd03ad079a144a67",
            "status": true,
            "timestamp": "2019-07-04T16:40:42Z",
            "transactionFee": "0.00038093",
            "txnHash": "0x00984abbb5333ce7f358a573d565f9ce6660f9f8a8063fb3fd03ad079a144a67",
            "txnIndex": 85,
            "type": 0,
            "value": "0"
        },
        "fund_flow": [
            {
                "amount": "9,999.999989999999999999",
                "from": "0xb6a52d14efad3810cc4bc4611f3f23e8089c13c2",
                "id": 1,
                "isERC1155": false,
                "isERC721": false,
                "isReverted": false,
                "order": 1,
                "to": "0x1800246b58dc9edf07013b66a5a6800a9596f419",
                "token": "0x2296e7310247c20da8be722a5ec5950741e1948f"
            }
        ],
        "token_infos": [
            {
                "address": "0x2296e7310247c20da8be722a5ec5950741e1948f",
                "decimals": 18
            },
            {
                "address": "0xc02aaa39b223fe8d0a0e5c4f27ead9083c756cc2",
                "decimals": 18
            },
            {
                "address": "0xeeeeeeeeeeeeeeeeeeeeeeeeeeeeeeeeeeeeeeee",
                "decimals": 18
            }
        ]
    },
    "address_label": {
        "labels": [
            {
                "address": "0xeeeeeeeeeeeeeeeeeeeeeeeeeeeeeeeeeeeeeeee",
                "label": "Ether"
            },
            {
                "address": "0x2296e7310247c20da8be722a5ec5950741e1948f",
                "label": "NTTC"
            },
            {
                "address": "0x0000000000000000000000000000000000000001",
                "label": "Precompiled"
            },
            {
                "address": "0x0000000000000000000000000000000000000002",
                "label": "Precompiled"
            },
            {
                "address": "0x0000000000000000000000000000000000000003",
                "label": "Precompiled"
            },
            {
                "address": "0x0000000000000000000000000000000000000004",
                "label": "Precompiled"
            }
        ]
    },
    "trace": {
        "accountLabels": null,
        "dataMap": {
            "-1": {
                "invocation": {
                    "address": "0xb6a52d14efad3810cc4bc4611f3f23e8089c13c2",
                    "callData": "",
                    "decodedMethod": null,
                    "errorInfo": "",
                    "fromAddress": "",
                    "gasUsed": 0,
                    "id": -1,
                    "methodDecoded": false,
                    "operation": "",
                    "output": "",
                    "revert": false,
                    "revertMessage": "",
                    "selector": "",
                    "status": false,
                    "value": ""
                },
                "nodeType": 0
            },
            "0": {
                "invocation": {
                    "address": "0x2296e7310247c20da8be722a5ec5950741e1948f",
                    "callData": "0x0000000000000000000000001800246b58dc9edf07013b66a5a6800a9596f41900000000000000000000000000000000000000000000021e19e0c0a263cd5fff",
                    "decodedMethod": {
                        "callParams": [
                            {
                                "name": "recipient",
                                "type": "address",
                                "value": "0x1800246b58dc9edf07013b66a5a6800a9596f419"
                            },
                            {
                                "decimalAvailable": true,
                                "name": "amount",
                                "type": "uint256",
                                "value": "9,999,999,989,999,999,999,999"
                            }
                        ],
                        "constructorArguments": "",
                        "name": "transfer",
                        "returnParams": [
                            {
                                "name": "",
                                "type": "bool",
                                "value": true
                            }
                        ],
                        "signature": "transfer(address,uint256)"
                    },
                    "errorInfo": "",
                    "fromAddress": "0xb6a52d14efad3810cc4bc4611f3f23e8089c13c2",
                    "gasUsed": 38093,
                    "id": 0,
                    "methodDecoded": true,
                    "operation": "CALL",
                    "output": "0x0000000000000000000000000000000000000000000000000000000000000001",
                    "revert": false,
                    "revertMessage": "",
                    "selector": "0xa9059cbb",
                    "status": true,
                    "value": "0"
                },
                "nodeType": 0
            },
            "1": {
                "event": {
                    "contract": "0x2296e7310247c20da8be722a5ec5950741e1948f",
                    "decodedLog": {
                        "name": "Transfer",
                        "params": [
                            {
                                "name": "from",
                                "type": "address",
                                "value": "0xb6a52d14efad3810cc4bc4611f3f23e8089c13c2"
                            },
                            {
                                "name": "to",
                                "type": "address",
                                "value": "0x1800246b58dc9edf07013b66a5a6800a9596f419"
                            },
                            {
                                "decimalAvailable": true,
                                "name": "value",
                                "type": "uint256",
                                "value": "9,999,999,989,999,999,999,999"
                            }
                        ],
                        "signature": "Transfer(address,address,uint256)"
                    },
                    "id": 1,
                    "logData": "0x00000000000000000000000000000000000000000000021e19e0c0a263cd5fff",
                    "logDecoded": true,
                    "operation": "EVENT",
                    "revert": false,
                    "status": true,
                    "topics": [
                        "0xddf252ad1be2c89b69c2b068fc378daa952ba7f163c4a11628f55a4df523b3ef",
                        "0x000000000000000000000000b6a52d14efad3810cc4bc4611f3f23e8089c13c2",
                        "0x0000000000000000000000001800246b58dc9edf07013b66a5a6800a9596f419"
                    ]
                },
                "nodeType": 1
            }
        },
        "gasFlame": [
            {
                "children": [
                    {
                        "children": [
                            {
                                "children": [],
                                "depth": 0,
                                "name": "Initial Gas",
                                "value": 23384
                            },
                            {
                                "children": [],
                                "depth": 0,
                                "name": "Executed Gas",
                                "value": 14709
                            }
                        ],
                        "depth": -1,
                        "name": "Actual Gas Used",
                        "value": 38093
                    },
                    {
                        "children": [],
                        "depth": -1,
                        "name": "Refunded Gas",
                        "value": 0
                    }
                ],
                "depth": -2,
                "name": "Total Gas",
                "value": 38093
            }
        ],
        "isConfirmed": true,
        "mainTrace": [
            {
                "children": [
                    {
                        "children": [
                            {
                                "children": [],
                                "depth": 1,
                                "id": 1,
                                "order": 1
                            }
                        ],
                        "depth": 0,
                        "id": 0,
                        "order": 0
                    }
                ],
                "depth": -1,
                "id": -1,
                "order": -1
            }
        ],
        "mainTraceNodeCount": 2,
        "parentIdMap": {
            "0": -1,
            "1": 0
        },
        "tidyTrace": [
            {
                "children": [
                    {
                        "children": [
                            {
                                "children": [],
                                "depth": 1,
                                "id": 1,
                                "order": 1
                            }
                        ],
                        "depth": 0,
                        "id": 0,
                        "order": 0
                    }
                ],
                "depth": -1,
                "id": -1,
                "order": -1
            }
        ],
        "tidyTraceNodeCount": 2
    },
    "state_change": {
        "stateChanges": [
            {
                "address": "0x2296e7310247c20da8be722a5ec5950741e1948f",
                "erc": "",
                "slots": [
                    {
                        "current": "0x000000000000000000000000000000000000000000000000000009184e72a001",
                        "key": "0x5b74f2a85c1c192a43d6f5eb99cd4321f5a4fd79a8b019810d8985c5544f45eb",
                        "prev": "0x00000000000000000000000000000000000000000000021e19e0c9bab2400000"
                    },
                    {
                        "current": "0x000000000000000000000000000000000000000000463b08a276d0fc9c1f9b0b",
                        "key": "0xc87ad4cf8fd2480f72cefb1c63857501bf0ff5a50b6c9cb07f724aced6215960",
                        "prev": "0x0000000000000000000000000000000000000000004638ea8896105a38523b0c"
                    }
                ],
                "storageVariables": []
            }
        ]
    }
}