{
    "balance_change": {
        "balanceChanges": [
            {
                "account": "0x195ebc6d9625d29f29465eb74341686094342ce1",
                "assets": [
                    {
                        "address": "0x3b50805453023a91a8bf641e279401a0b23fa6f9",
                        "amount": "753",
                        "iconUrl": "",
                        "isERC1155": false,
                        "isERC721": false,
                        "sign": false,
                        "value": "131.1958389"
                    }
                ]
            },
            {
                "account": "0x71f80456c44bc883ef55cef514834d9a6935c42b",
                "assets": [
                    {
                        "address": "0x3b50805453023a91a8bf641e279401a0b23fa6f9",
                        "amount": "753",
                        "iconUrl": "",
                        "isERC1155": false,
                        "isERC721": false,
                        "sign": true,
                        "value": "131.1958389"
                    }
                ]
            }
        ]
    },
    "profile": {
        "basic_info": {
            "baseFee": "4.883702254",
            "blockNumber": 19806771,
            "callData": "0xa9059cbb00000000000000000000000071f80456c44bc883ef55cef514834d9a6935c42b000000000000000000000000000000000000000000000028d1f9666f5d240000",
            "debugEnable": true,
            "errorInfo": "",
            "eventCount": 1,
            "feeRecipient": "0x388c818ca8b9251b393131c08a736a67ccb19297",
            "formatValue": "0",
            "gasLimit": 85869,
            "gasPrice": "4.896497845",
            "gasUsed": 52221,
            "intTxnCount": 0,
            "internalRevert": false,
            "internalRevertMessage": "",
            "isContractCreation": false,
            "isFlashloan": false,
            "maxFee": "6.152163235",
            "nonce": 11,
            "overwritedBlockNumber": -1,
            "priorityFee": "0.012795591",
            "receiver": "0x3b50805453023a91a8bf641e279401a0b23fa6f9",
            "revertMessage": "",
            "sender": "0x195ebc6d9625d29f29465eb74341686094342ce1",
            "simulationEnable": true,
            "sourceTxnHash": "0x01c878cab35a81327105e546ebabc25ca9889a9eeaeffda5a790fc1e619b43cd",
            "status": true,
            "timestamp": "2024-05-05T22:08:11Z",
            "transactionFee": "0.000255700013963745",
            "txnHash": "0x01c878cab35a81327105e546ebabc25ca9889a9eeaeffda5a790fc1e619b43cd",
            "txnIndex": 64,
            "type": 2,
            "value": "0"
        },
        "fund_flow": [
            {
                "amount": "753",
                "from": "0x195ebc6d9625d29f29465eb74341686094342ce1",
                "id": 1,
                "isERC1155": false,
                "isERC721": false,
                "isReverted": false,
                "order": 1,
                "to": "0x71f80456c44bc883ef55cef514834d9a6935c42b",
                "token": "0x3b50805453023a91a8bf641e279401a0b23fa6f9"
            }
        ],
        "token_infos": [
            {
                "address": "0x3b50805453023a91a8bf641e279401a0b23fa6f9",
                "decimals": 18
            },
            {
                "address": "0xc02aaa39b223fe8d0a0e5c4f27ead9083c756cc2",
                "decimals": 18
            },
            {
                "address": "0xeeeeeeeeeeeeeeeeeeeeeeeeeeeeeeeeeeeeeeee",
                "decimals": 18
            }
        ]
    },
    "address_label": {
        "labels": [
            {
                "address": "0x0000000000000000000000000000000000000003",
                "label": "Precompiled"
            },
            {
                "address": "0x0000000000000000000000000000000000000004",
                "label": "Precompiled"
            },
            {
                "address": "0xeeeeeeeeeeeeeeeeeeeeeeeeeeeeeeeeeeeeeeee",
                "label": "Ether"
            },
            {
                "address": "0x3b50805453023a91a8bf641e279401a0b23fa6f9",
                "label": "Renzo Protocol: REZ Token"
            },
            {
                "address": "0x388c818ca8b9251b393131c08a736a67ccb19297",
                "label": "LidoExecutionLayerRewardsVault"
            },
            {
                "address": "0x0000000000000000000000000000000000000001",
                "label": "Precompiled"
            },
            {
                "address": "0x0000000000000000000000000000000000000002",
                "label": "Precompiled"
            }
        ]
    },
    "trace": {
        "accountLabels": null,
        "dataMap": {
            "-1": {
                "invocation": {
                    "address": "0x195ebc6d9625d29f29465eb74341686094342ce1",
                    "callData": "",
                    "decodedMethod": null,
                    "errorInfo": "",
                    "fromAddress": "",
                    "gasUsed": 0,
                    "id": -1,
                    "methodDecoded": false,
                    "operation": "",
                    "output": "",
                    "revert": false,
                    "revertMessage": "",
                    "selector": "",
                    "status": false,
                    "value": ""
                },
                "nodeType": 0
            },
            "0": {
                "invocation": {
                    "address": "0x3b50805453023a91a8bf641e279401a0b23fa6f9",
                    "callData": "0x00000000000000000000000071f80456c44bc883ef55cef514834d9a6935c42b000000000000000000000000000000000000000000000028d1f9666f5d240000",
                    "decodedMethod": {
                        "callParams": [
                            {
                                "name": "to",
                                "type": "address",
                                "value": "0x71f80456c44bc883ef55cef514834d9a6935c42b"
                            },
                            {
                                "decimalAvailable": true,
                                "name": "value",
                                "type": "uint256",
                                "value": "753,000,000,000,000,000,000"
                            }
                        ],
                        "constructorArguments": "",
                        "name": "transfer",
                        "returnParams": [
                            {
                                "name": "",
                                "type": "bool",
                                "value": true
                            }
                        ],
                        "signature": "transfer(address,uint256)"
                    },
                    "errorInfo": "",
                    "fromAddress": "0x195ebc6d9625d29f29465eb74341686094342ce1",
                    "gasUsed": 52221,
                    "id": 0,
                    "methodDecoded": true,
                    "operation": "CALL",
                    "output": "0x0000000000000000000000000000000000000000000000000000000000000001",
                    "revert": false,
                    "revertMessage": "",
                    "selector": "0xa9059cbb",
                    "status": true,
                    "value": "0"
                },
                "nodeType": 0
            },
            "1": {
                "event": {
                    "contract": "0x3b50805453023a91a8bf641e279401a0b23fa6f9",
                    "decodedLog": {
                        "name": "Transfer",
                        "params": [
                            {
                                "name": "from",
                                "type": "address",
                                "value": "0x195ebc6d9625d29f29465eb74341686094342ce1"
                            },
                            {
                                "name": "to",
                                "type": "address",
                                "value": "0x71f80456c44bc883ef55cef514834d9a6935c42b"
                            },
                            {
                                "decimalAvailable": true,
                                "name": "value",
                                "type": "uint256",
                                "value": "753,000,000,000,000,000,000"
                            }
                        ],
                        "signature": "Transfer(address,address,uint256)"
                    },
                    "id": 1,
                    "logData": "0x000000000000000000000000000000000000000000000028d1f9666f5d240000",
                    "logDecoded": true,
                    "operation": "EVENT",
                    "revert": false,
                    "status": true,
                    "topics": [
                        "0xddf252ad1be2c89b69c2b068fc378daa952ba7f163c4a11628f55a4df523b3ef",
                        "0x000000000000000000000000195ebc6d9625d29f29465eb74341686094342ce1",
                        "0x00000000000000000000000071f80456c44bc883ef55cef514834d9a6935c42b"
                    ]
                },
                "nodeType": 1
            }
        },
        "gasFlame": [
            {
                "children": [
                    {
                        "children": [
                            {
                                "children": [],
                                "depth": 0,
                                "name": "Initial Gas",
                                "value": 21644
                            },
                            {
                                "children": [],
                                "depth": 0,
                                "name": "Executed Gas",
                                "value": 35377
                            }
                        ],
                        "depth": -1,
                        "name": "Actual Gas Used",
                        "value": 52221
                    },
                    {
                        "children": [],
                        "depth": -1,
                        "name": "Refunded Gas",
                        "value": 4800
                    }
                ],
                "depth": -2,
                "name": "Total Gas",
                "value": 57021
            }
        ],
        "isConfirmed": true,
        "mainTrace": [
            {
                "children": [
                    {
                        "children": [
                            {
                                "children": [],
                                "depth": 1,
                                "id": 1,
                                "order": 1
                            }
                        ],
                        "depth": 0,
                        "id": 0,
                        "order": 0
                    }
                ],
                "depth": -1,
                "id": -1,
                "order": -1
            }
        ],
        "mainTraceNodeCount": 2,
        "parentIdMap": {
            "0": -1,
            "1": 0
        },
        "tidyTrace": [
            {
                "children": [
                    {
                        "children": [
                            {
                                "children": [],
                                "depth": 1,
                                "id": 1,
                                "order": 1
                            }
                        ],
                        "depth": 0,
                        "id": 0,
                        "order": 0
                    }
                ],
                "depth": -1,
                "id": -1,
                "order": -1
            }
        ],
        "tidyTraceNodeCount": 2
    },
    "state_change": {
        "stateChanges": [
            {
                "address": "0x3b50805453023a91a8bf641e279401a0b23fa6f9",
                "erc": "ERC-20",
                "slots": [
                    {
                        "current": "0x0000000000000000000000000000000000000000000000000000000000000000",
                        "key": "0xf9d7b1f390a93eb2b95e42e15f626f7c619ae8b3b7d24553a87a5e4f02994cda",
                        "prev": "0x000000000000000000000000000000000000000000000028d1f9666f5d240000"
                    },
                    {
                        "current": "0x000000000000000000000000000000000000000000000028d1f9666f5d240000",
                        "key": "0xa784747b0291558576bd645b6e6952e592b83113b1ba1889e933bead5a4663c9",
                        "prev": "0x0000000000000000000000000000000000000000000000000000000000000000"
                    }
                ],
                "storageVariables": [
                    {
                        "name": "_balances",
                        "type": "mapping(address => uint256)",
                        "value": {
                            "pairs": [
                                {
                                    "key": "0x195ebc6d9625d29f29465eb74341686094342ce1",
                                    "value": {
                                        "current": "0",
                                        "prev": "753000000000000000000",
                                        "typeTag": 1
                                    }
                                },
                                {
                                    "key": "0x71f80456c44bc883ef55cef514834d9a6935c42b",
                                    "value": {
                                        "current": "753000000000000000000",
                                        "prev": "0",
                                        "typeTag": 1
                                    }
                                }
                            ],
                            "typeTag": 4
                        }
                    }
                ]
            }
        ]
    }
}