{
    "balance_change": {
        "balanceChanges": [
            {
                "account": "0x9a1c51a24c0e99db8d965e72cbf922367c09b3d0",
                "assets": [
                    {
                        "address": "0x8360c91b02e60e4c1db4e2d298e2f2c441d1aca4",
                        "amount": "500",
                        "iconUrl": "",
                        "isERC1155": false,
                        "isERC721": false,
                        "sign": false,
                        "value": ""
                    }
                ]
            },
            {
                "account": "0x96b26852cbba1b2fc1c314330c26cb23457d4ef2",
                "assets": [
                    {
                        "address": "0x8360c91b02e60e4c1db4e2d298e2f2c441d1aca4",
                        "amount": "500",
                        "iconUrl": "",
                        "isERC1155": false,
                        "isERC721": false,
                        "sign": true,
                        "value": ""
                    }
                ]
            }
        ]
    },
    "profile": {
        "basic_info": {
            "baseFee": "",
            "blockNumber": 3257538,
            "callData": "0xa9059cbb00000000000000000000000096b26852cbba1b2fc1c314330c26cb23457d4ef200000000000000000000000000000000000000000000000000000000004c4b40",
            "debugEnable": true,
            "errorInfo": "",
            "eventCount": 1,
            "feeRecipient": "0xb2930b35844a230f00e51431acae96fe543a0347",
            "formatValue": "0",
            "gasLimit": 136817,
            "gasPrice": "10",
            "gasUsed": 36817,
            "intTxnCount": 0,
            "internalRevert": false,
            "internalRevertMessage": "",
            "isContractCreation": false,
            "isFlashloan": false,
            "maxFee": "",
            "nonce": 1963,
            "overwritedBlockNumber": -1,
            "priorityFee": "",
            "receiver": "0x8360c91b02e60e4c1db4e2d298e2f2c441d1aca4",
            "revertMessage": "",
            "sender": "0x9a1c51a24c0e99db8d965e72cbf922367c09b3d0",
            "simulationEnable": true,
            "sourceTxnHash": "0x01c8f3045425e96169bd77c75cab5c78465e64c689b52e125522390eea9ad579",
            "status": true,
            "timestamp": "2017-02-27T01:47:47Z",
            "transactionFee": "0.00036817",
            "txnHash": "0x01c8f3045425e96169bd77c75cab5c78465e64c689b52e125522390eea9ad579",
            "txnIndex": 1,
            "type": 0,
            "value": "0"
        },
        "fund_flow": [
            {
                "amount": "500",
                "from": "0x9a1c51a24c0e99db8d965e72cbf922367c09b3d0",
                "id": 1,
                "isERC1155": false,
                "isERC721": false,
                "isReverted": false,
                "order": 1,
                "to": "0x96b26852cbba1b2fc1c314330c26cb23457d4ef2",
                "token": "0x8360c91b02e60e4c1db4e2d298e2f2c441d1aca4"
            }
        ],
        "token_infos": [
            {
                "address": "0x8360c91b02e60e4c1db4e2d298e2f2c441d1aca4",
                "decimals": 4
            },
            {
                "address": "0xc02aaa39b223fe8d0a0e5c4f27ead9083c756cc2",
                "decimals": 18
            },
            {
                "address": "0xeeeeeeeeeeeeeeeeeeeeeeeeeeeeeeeeeeeeeeee",
                "decimals": 18
            }
        ]
    },
    "address_label": {
        "labels": [
            {
                "address": "0x0000000000000000000000000000000000000001",
                "label": "Precompiled"
            },
            {
                "address": "0x0000000000000000000000000000000000000002",
                "label": "Precompiled"
            },
            {
                "address": "0x0000000000000000000000000000000000000003",
                "label": "Precompiled"
            },
            {
                "address": "0x0000000000000000000000000000000000000004",
                "label": "Precompiled"
            },
            {
                "address": "0xeeeeeeeeeeeeeeeeeeeeeeeeeeeeeeeeeeeeeeee",
                "label": "Ether"
            },
            {
                "address": "0x8360c91b02e60e4c1db4e2d298e2f2c441d1aca4",
                "label": "Color Fortune Coin (CFC)"
            }
        ]
    },
    "trace": {
        "accountLabels": null,
        "dataMap": {
            "-1": {
                "invocation": {
                    "address": "0x9a1c51a24c0e99db8d965e72cbf922367c09b3d0",
                    "callData": "",
                    "decodedMethod": null,
                    "errorInfo": "",
                    "fromAddress": "",
                    "gasUsed": 0,
                    "id": -1,
                    "methodDecoded": false,
                    "operation": "",
                    "output": "",
                    "revert": false,
                    "revertMessage": "",
                    "selector": "",
                    "status": false,
                    "value": ""
                },
                "nodeType": 0
            },
            "0": {
                "invocation": {
                    "address": "0x8360c91b02e60e4c1db4e2d298e2f2c441d1aca4",
                    "callData": "0x00000000000000000000000096b26852cbba1b2fc1c314330c26cb23457d4ef200000000000000000000000000000000000000000000000000000000004c4b40",
                    "decodedMethod": {
                        "callParams": [
                            {
                                "name": "_to",
                                "type": "address",
                                "value": "0x96b26852cbba1b2fc1c314330c26cb23457d4ef2"
                            },
                            {
                                "decimalAvailable": true,
                                "name": "_value",
                                "type": "uint256",
                                "value": "5,000,000"
                            }
                        ],
                        "constructorArguments": "",
                        "name": "transfer",
                        "returnParams": [],
                        "signature": "transfer(address,uint256)"
                    },
                    "errorInfo": "",
                    "fromAddress": "0x9a1c51a24c0e99db8d965e72cbf922367c09b3d0",
                    "gasUsed": 36817,
                    "id": 0,
                    "methodDecoded": true,
                    "operation": "CALL",
                    "output": "",
                    "revert": false,
                    "revertMessage": "",
                    "selector": "0xa9059cbb",
                    "status": true,
                    "value": "0"
                },
                "nodeType": 0
            },
            "1": {
                "event": {
                    "contract": "0x8360c91b02e60e4c1db4e2d298e2f2c441d1aca4",
                    "decodedLog": {
                        "name": "Transfer",
                        "params": [
                            {
                                "name": "from",
                                "type": "address",
                                "value": "0x9a1c51a24c0e99db8d965e72cbf922367c09b3d0"
                            },
                            {
                                "name": "to",
                                "type": "address",
                                "value": "0x96b26852cbba1b2fc1c314330c26cb23457d4ef2"
                            },
                            {
                                "decimalAvailable": true,
                                "name": "value",
                                "type": "uint256",
                                "value": "5,000,000"
                            }
                        ],
                        "signature": "Transfer(address,address,uint256)"
                    },
                    "id": 1,
                    "logData": "0x00000000000000000000000000000000000000000000000000000000004c4b40",
                    "logDecoded": true,
                    "operation": "EVENT",
                    "revert": false,
                    "status": true,
                    "topics": [
                        "0xddf252ad1be2c89b69c2b068fc378daa952ba7f163c4a11628f55a4df523b3ef",
                        "0x0000000000000000000000009a1c51a24c0e99db8d965e72cbf922367c09b3d0",
                        "0x00000000000000000000000096b26852cbba1b2fc1c314330c26cb23457d4ef2"
                    ]
                },
                "nodeType": 1
            }
        },
        "gasFlame": [
            {
                "children": [
                    {
                        "children": [
                            {
                                "children": [],
                                "depth": 0,
                                "name": "Initial Gas",
                                "value": 23000
                            },
                            {
                                "children": [],
                                "depth": 0,
                                "name": "Executed Gas",
                                "value": 13817
                            }
                        ],
                        "depth": -1,
                        "name": "Actual Gas Used",
                        "value": 36817
                    },
                    {
                        "children": [],
                        "depth": -1,
                        "name": "Refunded Gas",
                        "value": 0
                    }
                ],
                "depth": -2,
                "name": "Total Gas",
                "value": 36817
            }
        ],
        "isConfirmed": true,
        "mainTrace": [
            {
                "children": [
                    {
                        "children": [
                            {
                                "children": [],
                                "depth": 1,
                                "id": 1,
                                "order": 1
                            }
                        ],
                        "depth": 0,
                        "id": 0,
                        "order": 0
                    }
                ],
                "depth": -1,
                "id": -1,
                "order": -1
            }
        ],
        "mainTraceNodeCount": 2,
        "parentIdMap": {
            "0": -1,
            "1": 0
        },
        "tidyTrace": [
            {
                "children": [
                    {
                        "children": [
                            {
                                "children": [],
                                "depth": 1,
                                "id": 1,
                                "order": 1
                            }
                        ],
                        "depth": 0,
                        "id": 0,
                        "order": 0
                    }
                ],
                "depth": -1,
                "id": -1,
                "order": -1
            }
        ],
        "tidyTraceNodeCount": 2
    },
    "state_change": {
        "stateChanges": [
            {
                "address": "0x8360c91b02e60e4c1db4e2d298e2f2c441d1aca4",
                "erc": "",
                "slots": [
                    {
                        "current": "0x0000000000000000000000000000000000000000000000000000000002dc6c00",
                        "key": "0xd984a91326f1ee648abdf166ac360eefaf75c4f0a22c0b6ba0ba131385c86767",
                        "prev": "0x00000000000000000000000000000000000000000000000000000000029020c0"
                    },
                    {
                        "current": "0x00000000000000000000000000000000000000000000000000000000ede2cbcc",
                        "key": "0xc99fa799d7a4319cb575ec0b62df487ec50bbfb05dda97e92629db232906507f",
                        "prev": "0x00000000000000000000000000000000000000000000000000000000ee2f170c"
                    }
                ],
                "storageVariables": []
            }
        ]
    }
}