{
    "balance_change": {
        "balanceChanges": [
            {
                "account": "0x0a2ad955dbe99883072e94911e0cfed0dc4d7d70",
                "assets": [
                    {
                        "address": "0xeeeeeeeeeeeeeeeeeeeeeeeeeeeeeeeeeeeeeeee",
                        "amount": "0.01400001",
                        "iconUrl": "https://assets.blocksec.com/image/1663669189317-3.png",
                        "isERC1155": false,
                        "isERC721": false,
                        "sign": false,
                        "value": ""
                    }
                ]
            },
            {
                "account": "0x8888882056160e5ff4a0f26607d4a05bc506ca8c",
                "assets": [
                    {
                        "address": "0xeeeeeeeeeeeeeeeeeeeeeeeeeeeeeeeeeeeeeeee",
                        "amount": "0.0100800072",
                        "iconUrl": "https://assets.blocksec.com/image/1663669189317-3.png",
                        "isERC1155": false,
                        "isERC721": false,
                        "sign": true,
                        "value": ""
                    }
                ]
            },
            {
                "account": "0x8888887c5ede327afbeb15019598aaa3b4fae759",
                "assets": [
                    {
                        "address": "0xeeeeeeeeeeeeeeeeeeeeeeeeeeeeeeeeeeeeeeee",
                        "amount": "0.001799001285",
                        "iconUrl": "https://assets.blocksec.com/image/1663669189317-3.png",
                        "isERC1155": false,
                        "isERC721": false,
                        "sign": true,
                        "value": ""
                    }
                ]
            },
            {
                "account": "0xd7657bdf782f43ba7f5f5e8456b481616e636ae9",
                "assets": [
                    {
                        "address": "0xeeeeeeeeeeeeeeeeeeeeeeeeeeeeeeeeeeeeeeee",
                        "amount": "0.002121001515",
                        "iconUrl": "https://assets.blocksec.com/image/1663669189317-3.png",
                        "isERC1155": false,
                        "isERC721": false,
                        "sign": true,
                        "value": ""
                    }
                ]
            }
        ]
    },
    "profile": {
        "basic_info": {
            "baseFee": "",
            "blockNumber": 7062831,
            "callData": "0x492cc76900000000000000000000000000000000000000000000000000000000000000200000000000000000000000000000000000000000000000000000000000000021426c61636b2d486f6c6564204d6f6f6e205768616c6520697320436f6d696e672100000000000000000000000000000000000000000000000000000000000000",
            "debugEnable": true,
            "errorInfo": "",
            "eventCount": 0,
            "feeRecipient": "0xb2930b35844a230f00e51431acae96fe543a0347",
            "formatValue": "0.01400001",
            "gasLimit": 1228279,
            "gasPrice": "5",
            "gasUsed": 806300,
            "intTxnCount": 17,
            "internalRevert": false,
            "internalRevertMessage": "",
            "isContractCreation": false,
            "isFlashloan": false,
            "maxFee": "",
            "nonce": 2,
            "overwritedBlockNumber": -1,
            "priorityFee": "",
            "receiver": "0x8888882056160e5ff4a0f26607d4a05bc506ca8c",
            "revertMessage": "",
            "sender": "0x0a2ad955dbe99883072e94911e0cfed0dc4d7d70",
            "simulationEnable": true,
            "sourceTxnHash": "0x019c2b8a91306a1c875eecb7f0ea506f22864ded894237d7379e8d7bf99a82b7",
            "status": true,
            "timestamp": "2019-01-14T04:13:36Z",
            "transactionFee": "0.0040315",
            "txnHash": "0x019c2b8a91306a1c875eecb7f0ea506f22864ded894237d7379e8d7bf99a82b7",
            "txnIndex": 41,
            "type": 0,
            "value": "14000010000000000"
        },
        "fund_flow": [
            {
                "amount": "0.01400001",
                "from": "0x0a2ad955dbe99883072e94911e0cfed0dc4d7d70",
                "id": 1,
                "isERC1155": false,
                "isERC721": false,
                "isReverted": false,
                "order": 1,
                "to": "0x8888882056160e5ff4a0f26607d4a05bc506ca8c",
                "token": "0xeeeeeeeeeeeeeeeeeeeeeeeeeeeeeeeeeeeeeeee"
            },
            {
                "amount": "0.0021000015",
                "from": "0x8888882056160e5ff4a0f26607d4a05bc506ca8c",
                "id": 2,
                "isERC1155": false,
                "isERC721": false,
                "isReverted": false,
                "order": 2,
                "to": "0xd7657bdf782f43ba7f5f5e8456b481616e636ae9",
                "token": "0xeeeeeeeeeeeeeeeeeeeeeeeeeeeeeeeeeeeeeeee"
            },
            {
                "amount": "0.0018200013",
                "from": "0x8888882056160e5ff4a0f26607d4a05bc506ca8c",
                "id": 3,
                "isERC1155": false,
                "isERC721": false,
                "isReverted": false,
                "order": 3,
                "to": "0x8888887c5ede327afbeb15019598aaa3b4fae759",
                "token": "0xeeeeeeeeeeeeeeeeeeeeeeeeeeeeeeeeeeeeeeee"
            },
            {
                "amount": "0.000021000015",
                "from": "0x8888887c5ede327afbeb15019598aaa3b4fae759",
                "id": 4,
                "isERC1155": false,
                "isERC721": false,
                "isReverted": false,
                "order": 4,
                "to": "0xd7657bdf782f43ba7f5f5e8456b481616e636ae9",
                "token": "0xeeeeeeeeeeeeeeeeeeeeeeeeeeeeeeeeeeeeeeee"
            }
        ],
        "token_infos": [
            {
                "address": "0xc02aaa39b223fe8d0a0e5c4f27ead9083c756cc2",
                "decimals": 18
            },
            {
                "address": "0xeeeeeeeeeeeeeeeeeeeeeeeeeeeeeeeeeeeeeeee",
                "decimals": 18
            }
        ]
    },
    "address_label": {
        "labels": [
            {
                "address": "0xd7657bdf782f43ba7f5f5e8456b481616e636ae9",
                "label": "Citizen"
            },
            {
                "address": "0x0000000000000000000000000000000000000001",
                "label": "Precompiled"
            },
            {
                "address": "0x0000000000000000000000000000000000000002",
                "label": "Precompiled"
            },
            {
                "address": "0x0000000000000000000000000000000000000003",
                "label": "Precompiled"
            },
            {
                "address": "0x0000000000000000000000000000000000000004",
                "label": "Precompiled"
            },
            {
                "address": "0xeeeeeeeeeeeeeeeeeeeeeeeeeeeeeeeeeeeeeeee",
                "label": "Ether"
            },
            {
                "address": "0x8888887c5ede327afbeb15019598aaa3b4fae759",
                "label": "F2M"
            },
            {
                "address": "0x8888882056160e5ff4a0f26607d4a05bc506ca8c",
                "label": "Lottery"
            }
        ]
    },
    "trace": {
        "accountLabels": null,
        "dataMap": {
            "-1": {
                "invocation": {
                    "address": "0x0a2ad955dbe99883072e94911e0cfed0dc4d7d70",
                    "callData": "",
                    "decodedMethod": null,
                    "errorInfo": "",
                    "fromAddress": "",
                    "gasUsed": 0,
                    "id": -1,
                    "methodDecoded": false,
                    "operation": "",
                    "output": "",
                    "revert": false,
                    "revertMessage": "",
                    "selector": "",
                    "status": false,
                    "value": ""
                },
                "nodeType": 0
            },
            "0": {
                "invocation": {
                    "address": "0x8888882056160e5ff4a0f26607d4a05bc506ca8c",
                    "callData": "0x00000000000000000000000000000000000000000000000000000000000000200000000000000000000000000000000000000000000000000000000000000021426c61636b2d486f6c6564204d6f6f6e205768616c6520697320436f6d696e672100000000000000000000000000000000000000000000000000000000000000",
                    "decodedMethod": {
                        "callParams": [
                            {
                                "name": "_sSalt",
                                "type": "string",
                                "value": "Black-Holed Moon Whale is Coming!"
                            }
                        ],
                        "constructorArguments": "",
                        "name": "buy",
                        "returnParams": [],
                        "signature": "buy(string)"
                    },
                    "errorInfo": "",
                    "fromAddress": "0x0a2ad955dbe99883072e94911e0cfed0dc4d7d70",
                    "gasUsed": 806300,
                    "id": 0,
                    "methodDecoded": true,
                    "operation": "CALL",
                    "output": "",
                    "revert": false,
                    "revertMessage": "",
                    "selector": "0x492cc769",
                    "status": true,
                    "value": "0.01400001"
                },
                "nodeType": 0
            },
            "1": {
                "invocation": {
                    "address": "0xfe00bdcee68a70bbb7559f83fcdb24da2a357ffe",
                    "callData": "0x00000000000000000000000000000000000000000000000000000000000000200000000000000000000000000000000000000000000000000000000000000021426c61636b2d486f6c6564204d6f6f6e205768616c6520697320436f6d696e672100000000000000000000000000000000000000000000000000000000000000",
                    "decodedMethod": {
                        "callParams": [
                            {
                                "name": "s",
                                "type": "string",
                                "value": "Black-Holed Moon Whale is Coming!"
                            }
                        ],
                        "constructorArguments": "",
                        "name": "stringToUint",
                        "returnParams": [
                            {
                                "name": "",
                                "type": "uint256",
                                "value": "30,044,139,639,209,049,406,595,937,000,228,614,417,416,112,218,562,418,991,783,738,444,004,842,892,903"
                            }
                        ],
                        "signature": "stringToUint(string)"
                    },
                    "errorInfo": "",
                    "fromAddress": "0x8888882056160e5ff4a0f26607d4a05bc506ca8c",
                    "gasUsed": 656,
                    "id": 1,
                    "methodDecoded": true,
                    "operation": "DELEGATECALL",
                    "output": "0x426c61636b2d486f6c6564204d6f6f6e205768616c6520697320436f6d696e67",
                    "revert": false,
                    "revertMessage": "",
                    "selector": "0x1bd95155",
                    "status": true,
                    "value": "0.01400001"
                },
                "nodeType": 0
            },
            "10": {
                "invocation": {
                    "address": "0x8888887c5ede327afbeb15019598aaa3b4fae759",
                    "callData": "0x",
                    "decodedMethod": {
                        "callParams": [],
                        "constructorArguments": "",
                        "name": "pushDividends",
                        "returnParams": [],
                        "signature": "pushDividends()"
                    },
                    "errorInfo": "",
                    "fromAddress": "0x8888882056160e5ff4a0f26607d4a05bc506ca8c",
                    "gasUsed": 56065,
                    "id": 10,
                    "methodDecoded": true,
                    "operation": "CALL",
                    "output": "",
                    "revert": false,
                    "revertMessage": "",
                    "selector": "0xbdb66236",
                    "status": true,
                    "value": "0.0016800012"
                },
                "nodeType": 0
            },
            "11": {
                "invocation": {
                    "address": "0x8888882056160e5ff4a0f26607d4a05bc506ca8c",
                    "callData": "0x",
                    "decodedMethod": {
                        "callParams": [],
                        "constructorArguments": "",
                        "name": "getCurRoundId",
                        "returnParams": [
                            {
                                "name": "",
                                "type": "uint256",
                                "value": "1"
                            }
                        ],
                        "signature": "getCurRoundId()"
                    },
                    "errorInfo": "",
                    "fromAddress": "0x8888887c5ede327afbeb15019598aaa3b4fae759",
                    "gasUsed": 2052,
                    "id": 11,
                    "methodDecoded": true,
                    "operation": "CALL",
                    "output": "0x0000000000000000000000000000000000000000000000000000000000000001",
                    "revert": false,
                    "revertMessage": "",
                    "selector": "0xeb95f0bf",
                    "status": true,
                    "value": "0"
                },
                "nodeType": 0
            },
            "12": {
                "invocation": {
                    "address": "0x8888887c5ede327afbeb15019598aaa3b4fae759",
                    "callData": "0x0000000000000000000000000a2ad955dbe99883072e94911e0cfed0dc4d7d70",
                    "decodedMethod": {
                        "callParams": [
                            {
                                "name": "_buyer",
                                "type": "address",
                                "value": "0x0a2ad955dbe99883072e94911e0cfed0dc4d7d70"
                            }
                        ],
                        "constructorArguments": "",
                        "name": "buyFor",
                        "returnParams": [],
                        "signature": "buyFor(address)"
                    },
                    "errorInfo": "",
                    "fromAddress": "0x8888882056160e5ff4a0f26607d4a05bc506ca8c",
                    "gasUsed": 183235,
                    "id": 12,
                    "methodDecoded": true,
                    "operation": "CALL",
                    "output": "",
                    "revert": false,
                    "revertMessage": "",
                    "selector": "0x6f0b5180",
                    "status": true,
                    "value": "0.0001400001"
                },
                "nodeType": 0
            },
            "13": {
                "invocation": {
                    "address": "0x8888882056160e5ff4a0f26607d4a05bc506ca8c",
                    "callData": "0x",
                    "decodedMethod": {
                        "callParams": [],
                        "constructorArguments": "",
                        "name": "getCurRoundId",
                        "returnParams": [
                            {
                                "name": "",
                                "type": "uint256",
                                "value": "1"
                            }
                        ],
                        "signature": "getCurRoundId()"
                    },
                    "errorInfo": "",
                    "fromAddress": "0x8888887c5ede327afbeb15019598aaa3b4fae759",
                    "gasUsed": 2052,
                    "id": 13,
                    "methodDecoded": true,
                    "operation": "CALL",
                    "output": "0x0000000000000000000000000000000000000000000000000000000000000001",
                    "revert": false,
                    "revertMessage": "",
                    "selector": "0xeb95f0bf",
                    "status": true,
                    "value": "0"
                },
                "nodeType": 0
            },
            "14": {
                "invocation": {
                    "address": "0xd7657bdf782f43ba7f5f5e8456b481616e636ae9",
                    "callData": "0x0000000000000000000000008888882056160e5ff4a0f26607d4a05bc506ca8c",
                    "decodedMethod": {
                        "callParams": [
                            {
                                "name": "_sender",
                                "type": "address",
                                "value": "0x8888882056160e5ff4a0f26607d4a05bc506ca8c"
                            }
                        ],
                        "constructorArguments": "",
                        "name": "pushRefIncome",
                        "returnParams": [],
                        "signature": "pushRefIncome(address)"
                    },
                    "errorInfo": "",
                    "fromAddress": "0x8888887c5ede327afbeb15019598aaa3b4fae759",
                    "gasUsed": 55117,
                    "id": 14,
                    "methodDecoded": true,
                    "operation": "CALL",
                    "output": "",
                    "revert": false,
                    "revertMessage": "",
                    "selector": "0xe947962b",
                    "status": true,
                    "value": "0.000021000015"
                },
                "nodeType": 0
            },
            "15": {
                "invocation": {
                    "address": "0x8888882056160e5ff4a0f26607d4a05bc506ca8c",
                    "callData": "0x",
                    "decodedMethod": {
                        "callParams": [],
                        "constructorArguments": "",
                        "name": "getCurRoundId",
                        "returnParams": [
                            {
                                "name": "",
                                "type": "uint256",
                                "value": "1"
                            }
                        ],
                        "signature": "getCurRoundId()"
                    },
                    "errorInfo": "",
                    "fromAddress": "0xd7657bdf782f43ba7f5f5e8456b481616e636ae9",
                    "gasUsed": 2052,
                    "id": 15,
                    "methodDecoded": true,
                    "operation": "CALL",
                    "output": "0x0000000000000000000000000000000000000000000000000000000000000001",
                    "revert": false,
                    "revertMessage": "",
                    "selector": "0xeb95f0bf",
                    "status": true,
                    "value": "0"
                },
                "nodeType": 0
            },
            "16": {
                "invocation": {
                    "address": "0x8888882056160e5ff4a0f26607d4a05bc506ca8c",
                    "callData": "0x",
                    "decodedMethod": {
                        "callParams": [],
                        "constructorArguments": "",
                        "name": "getCurRoundId",
                        "returnParams": [
                            {
                                "name": "",
                                "type": "uint256",
                                "value": "1"
                            }
                        ],
                        "signature": "getCurRoundId()"
                    },
                    "errorInfo": "",
                    "fromAddress": "0x8888887c5ede327afbeb15019598aaa3b4fae759",
                    "gasUsed": 2052,
                    "id": 16,
                    "methodDecoded": true,
                    "operation": "CALL",
                    "output": "0x0000000000000000000000000000000000000000000000000000000000000001",
                    "revert": false,
                    "revertMessage": "",
                    "selector": "0xeb95f0bf",
                    "status": true,
                    "value": "0"
                },
                "nodeType": 0
            },
            "17": {
                "invocation": {
                    "address": "0x8888882056160e5ff4a0f26607d4a05bc506ca8c",
                    "callData": "0x",
                    "decodedMethod": {
                        "callParams": [],
                        "constructorArguments": "",
                        "name": "getCurRoundId",
                        "returnParams": [
                            {
                                "name": "",
                                "type": "uint256",
                                "value": "1"
                            }
                        ],
                        "signature": "getCurRoundId()"
                    },
                    "errorInfo": "",
                    "fromAddress": "0x8888887c5ede327afbeb15019598aaa3b4fae759",
                    "gasUsed": 2052,
                    "id": 17,
                    "methodDecoded": true,
                    "operation": "CALL",
                    "output": "0x0000000000000000000000000000000000000000000000000000000000000001",
                    "revert": false,
                    "revertMessage": "",
                    "selector": "0xeb95f0bf",
                    "status": true,
                    "value": "0"
                },
                "nodeType": 0
            },
            "2": {
                "invocation": {
                    "address": "0xfe00bdcee68a70bbb7559f83fcdb24da2a357ffe",
                    "callData": "0x0000000000000000000000000000000000000000000000000000000000009eb5",
                    "decodedMethod": {
                        "callParams": [
                            {
                                "name": "_ticketSum",
                                "type": "uint256",
                                "value": "40,629"
                            }
                        ],
                        "constructorArguments": "",
                        "name": "getTPrice",
                        "returnParams": [
                            {
                                "name": "",
                                "type": "uint256",
                                "value": "2,000,000,000,002,280"
                            }
                        ],
                        "signature": "getTPrice(uint256)"
                    },
                    "errorInfo": "",
                    "fromAddress": "0x8888882056160e5ff4a0f26607d4a05bc506ca8c",
                    "gasUsed": 1610,
                    "id": 2,
                    "methodDecoded": true,
                    "operation": "DELEGATECALL",
                    "output": "0x00000000000000000000000000000000000000000000000000071afd498d08e8",
                    "revert": false,
                    "revertMessage": "",
                    "selector": "0xdacc8e11",
                    "status": true,
                    "value": "0.01400001"
                },
                "nodeType": 0
            },
            "3": {
                "invocation": {
                    "address": "0xfe00bdcee68a70bbb7559f83fcdb24da2a357ffe",
                    "callData": "0x0000000000000000000000000000000000000000000000000031bcef56e6e4000000000000000000000000000000000000000000000000000000000000009eb5",
                    "decodedMethod": {
                        "callParams": [
                            {
                                "name": "_ethAmount",
                                "type": "uint256",
                                "value": "14,000,010,000,000,000"
                            },
                            {
                                "name": "_ticketSum",
                                "type": "uint256",
                                "value": "40,629"
                            }
                        ],
                        "constructorArguments": "",
                        "name": "getTAmount",
                        "returnParams": [
                            {
                                "name": "",
                                "type": "uint256",
                                "value": "7"
                            }
                        ],
                        "signature": "getTAmount(uint256,uint256)"
                    },
                    "errorInfo": "",
                    "fromAddress": "0x8888882056160e5ff4a0f26607d4a05bc506ca8c",
                    "gasUsed": 1457,
                    "id": 3,
                    "methodDecoded": true,
                    "operation": "DELEGATECALL",
                    "output": "0x0000000000000000000000000000000000000000000000000000000000000007",
                    "revert": false,
                    "revertMessage": "",
                    "selector": "0x61101bed",
                    "status": true,
                    "value": "0.01400001"
                },
                "nodeType": 0
            },
            "4": {
                "invocation": {
                    "address": "0xfe00bdcee68a70bbb7559f83fcdb24da2a357ffe",
                    "callData": "0x0000000000000000000000000000000000000000000000000000000000009eb5",
                    "decodedMethod": null,
                    "errorInfo": "",
                    "fromAddress": "0x8888882056160e5ff4a0f26607d4a05bc506ca8c",
                    "gasUsed": 1085,
                    "id": 4,
                    "methodDecoded": false,
                    "operation": "DELEGATECALL",
                    "output": "0x0000000000000000000000000000000000000000000000000000000000000001",
                    "revert": false,
                    "revertMessage": "",
                    "selector": "0x12d6c704",
                    "status": true,
                    "value": "0.01400001"
                },
                "nodeType": 0
            },
            "5": {
                "invocation": {
                    "address": "0xfe00bdcee68a70bbb7559f83fcdb24da2a357ffe",
                    "callData": "0x0000000000000000000000000000000000000000000000000000000000009eb5",
                    "decodedMethod": {
                        "callParams": [
                            {
                                "name": "_ticketSum",
                                "type": "uint256",
                                "value": "40,629"
                            }
                        ],
                        "constructorArguments": "",
                        "name": "getEarlyIncomeMul",
                        "returnParams": [
                            {
                                "name": "",
                                "type": "uint256",
                                "value": "14"
                            }
                        ],
                        "signature": "getEarlyIncomeMul(uint256)"
                    },
                    "errorInfo": "",
                    "fromAddress": "0x8888882056160e5ff4a0f26607d4a05bc506ca8c",
                    "gasUsed": 1273,
                    "id": 5,
                    "methodDecoded": true,
                    "operation": "DELEGATECALL",
                    "output": "0x000000000000000000000000000000000000000000000000000000000000000e",
                    "revert": false,
                    "revertMessage": "",
                    "selector": "0x61129a80",
                    "status": true,
                    "value": "0.01400001"
                },
                "nodeType": 0
            },
            "6": {
                "invocation": {
                    "address": "0xfe00bdcee68a70bbb7559f83fcdb24da2a357ffe",
                    "callData": "0x0000000000000000000000000000000000000000000000000000000000009eb50000000000000000000000000000000000000000000000000000000000000007",
                    "decodedMethod": {
                        "callParams": [
                            {
                                "name": "_rTicketSum",
                                "type": "uint256",
                                "value": "40,629"
                            },
                            {
                                "name": "_tAmount",
                                "type": "uint256",
                                "value": "7"
                            }
                        ],
                        "constructorArguments": "",
                        "name": "getAddedTime",
                        "returnParams": [
                            {
                                "name": "",
                                "type": "uint256",
                                "value": "210"
                            }
                        ],
                        "signature": "getAddedTime(uint256,uint256)"
                    },
                    "errorInfo": "",
                    "fromAddress": "0x8888882056160e5ff4a0f26607d4a05bc506ca8c",
                    "gasUsed": 1568,
                    "id": 6,
                    "methodDecoded": true,
                    "operation": "DELEGATECALL",
                    "output": "0x00000000000000000000000000000000000000000000000000000000000000d2",
                    "revert": false,
                    "revertMessage": "",
                    "selector": "0x6acd8e4a",
                    "status": true,
                    "value": "0.01400001"
                },
                "nodeType": 0
            },
            "7": {
                "invocation": {
                    "address": "0xfe00bdcee68a70bbb7559f83fcdb24da2a357ffe",
                    "callData": "0x00000000000000000000000000000000000000000000000000000000000000d2000000000000000000000000000000000000000000000000000000005c3cae30000000000000000000000000000000000000000000000000000000005c44ab65",
                    "decodedMethod": {
                        "callParams": [
                            {
                                "name": "toAddTime",
                                "type": "uint256",
                                "value": "210"
                            },
                            {
                                "name": "slideEndTime",
                                "type": "uint256",
                                "value": "1,547,480,624"
                            },
                            {
                                "name": "fixedEndTime",
                                "type": "uint256",
                                "value": "1,548,004,197"
                            }
                        ],
                        "constructorArguments": "",
                        "name": "getNewEndTime",
                        "returnParams": [
                            {
                                "name": "",
                                "type": "uint256",
                                "value": "1,547,480,834"
                            }
                        ],
                        "signature": "getNewEndTime(uint256,uint256,uint256)"
                    },
                    "errorInfo": "",
                    "fromAddress": "0x8888882056160e5ff4a0f26607d4a05bc506ca8c",
                    "gasUsed": 1136,
                    "id": 7,
                    "methodDecoded": true,
                    "operation": "DELEGATECALL",
                    "output": "0x000000000000000000000000000000000000000000000000000000005c3caf02",
                    "revert": false,
                    "revertMessage": "",
                    "selector": "0xabcd0d9d",
                    "status": true,
                    "value": "0.01400001"
                },
                "nodeType": 0
            },
            "8": {
                "invocation": {
                    "address": "0xd7657bdf782f43ba7f5f5e8456b481616e636ae9",
                    "callData": "0x0000000000000000000000000a2ad955dbe99883072e94911e0cfed0dc4d7d70",
                    "decodedMethod": {
                        "callParams": [
                            {
                                "name": "_sender",
                                "type": "address",
                                "value": "0x0a2ad955dbe99883072e94911e0cfed0dc4d7d70"
                            }
                        ],
                        "constructorArguments": "",
                        "name": "pushRefIncome",
                        "returnParams": [],
                        "signature": "pushRefIncome(address)"
                    },
                    "errorInfo": "",
                    "fromAddress": "0x8888882056160e5ff4a0f26607d4a05bc506ca8c",
                    "gasUsed": 211337,
                    "id": 8,
                    "methodDecoded": true,
                    "operation": "CALL",
                    "output": "",
                    "revert": false,
                    "revertMessage": "",
                    "selector": "0xe947962b",
                    "status": true,
                    "value": "0.0021000015"
                },
                "nodeType": 0
            },
            "9": {
                "invocation": {
                    "address": "0x8888882056160e5ff4a0f26607d4a05bc506ca8c",
                    "callData": "0x",
                    "decodedMethod": {
                        "callParams": [],
                        "constructorArguments": "",
                        "name": "getCurRoundId",
                        "returnParams": [
                            {
                                "name": "",
                                "type": "uint256",
                                "value": "1"
                            }
                        ],
                        "signature": "getCurRoundId()"
                    },
                    "errorInfo": "",
                    "fromAddress": "0xd7657bdf782f43ba7f5f5e8456b481616e636ae9",
                    "gasUsed": 2052,
                    "id": 9,
                    "methodDecoded": true,
                    "operation": "CALL",
                    "output": "0x0000000000000000000000000000000000000000000000000000000000000001",
                    "revert": false,
                    "revertMessage": "",
                    "selector": "0xeb95f0bf",
                    "status": true,
                    "value": "0"
                },
                "nodeType": 0
            }
        },
        "gasFlame": [
            {
                "children": [
                    {
                        "children": [
                            {
                                "children": [],
                                "depth": 0,
                                "name": "Initial Gas",
                                "value": 24024
                            },
                            {
                                "children": [
                                    {
                                        "children": [],
                                        "depth": 1,
                                        "name": "stringToUint",
                                        "value": 656
                                    },
                                    {
                                        "children": [],
                                        "depth": 1,
                                        "name": "getTPrice",
                                        "value": 1610
                                    },
                                    {
                                        "children": [],
                                        "depth": 1,
                                        "name": "getTAmount",
                                        "value": 1457
                                    },
                                    {
                                        "children": [],
                                        "depth": 1,
                                        "name": "0x12d6c704",
                                        "value": 1085
                                    },
                                    {
                                        "children": [],
                                        "depth": 1,
                                        "name": "getEarlyIncomeMul",
                                        "value": 1273
                                    },
                                    {
                                        "children": [],
                                        "depth": 1,
                                        "name": "getAddedTime",
                                        "value": 1568
                                    },
                                    {
                                        "children": [],
                                        "depth": 1,
                                        "name": "getNewEndTime",
                                        "value": 1136
                                    },
                                    {
                                        "children": [
                                            {
                                                "children": [],
                                                "depth": 2,
                                                "name": "getCurRoundId",
                                                "value": 2052
                                            }
                                        ],
                                        "depth": 1,
                                        "name": "pushRefIncome",
                                        "value": 211337
                                    },
                                    {
                                        "children": [
                                            {
                                                "children": [],
                                                "depth": 2,
                                                "name": "getCurRoundId",
                                                "value": 2052
                                            }
                                        ],
                                        "depth": 1,
                                        "name": "pushDividends",
                                        "value": 56065
                                    },
                                    {
                                        "children": [
                                            {
                                                "children": [],
                                                "depth": 2,
                                                "name": "getCurRoundId",
                                                "value": 2052
                                            },
                                            {
                                                "children": [
                                                    {
                                                        "children": [],
                                                        "depth": 3,
                                                        "name": "getCurRoundId",
                                                        "value": 2052
                                                    }
                                                ],
                                                "depth": 2,
                                                "name": "pushRefIncome",
                                                "value": 55117
                                            },
                                            {
                                                "children": [],
                                                "depth": 2,
                                                "name": "getCurRoundId",
                                                "value": 2052
                                            },
                                            {
                                                "children": [],
                                                "depth": 2,
                                                "name": "getCurRoundId",
                                                "value": 2052
                                            }
                                        ],
                                        "depth": 1,
                                        "name": "buyFor",
                                        "value": 183235
                                    }
                                ],
                                "depth": 0,
                                "name": "Executed Gas",
                                "value": 782276
                            }
                        ],
                        "depth": -1,
                        "name": "Actual Gas Used",
                        "value": 806300
                    },
                    {
                        "children": [],
                        "depth": -1,
                        "name": "Refunded Gas",
                        "value": 0
                    }
                ],
                "depth": -2,
                "name": "Total Gas",
                "value": 806300
            }
        ],
        "isConfirmed": true,
        "mainTrace": [
            {
                "children": [
                    {
                        "children": [
                            {
                                "children": [],
                                "depth": 1,
                                "id": 1,
                                "order": 1
                            },
                            {
                                "children": [],
                                "depth": 1,
                                "id": 2,
                                "order": 2
                            },
                            {
                                "children": [],
                                "depth": 1,
                                "id": 3,
                                "order": 3
                            },
                            {
                                "children": [],
                                "depth": 1,
                                "id": 4,
                                "order": 4
                            },
                            {
                                "children": [],
                                "depth": 1,
                                "id": 5,
                                "order": 5
                            },
                            {
                                "children": [],
                                "depth": 1,
                                "id": 6,
                                "order": 6
                            },
                            {
                                "children": [],
                                "depth": 1,
                                "id": 7,
                                "order": 7
                            },
                            {
                                "children": [
                                    {
                                        "children": [],
                                        "depth": 2,
                                        "id": 9,
                                        "order": 9
                                    }
                                ],
                                "depth": 1,
                                "id": 8,
                                "order": 8
                            },
                            {
                                "children": [
                                    {
                                        "children": [],
                                        "depth": 2,
                                        "id": 11,
                                        "order": 11
                                    }
                                ],
                                "depth": 1,
                                "id": 10,
                                "order": 10
                            },
                            {
                                "children": [
                                    {
                                        "children": [],
                                        "depth": 2,
                                        "id": 13,
                                        "order": 13
                                    },
                                    {
                                        "children": [
                                            {
                                                "children": [],
                                                "depth": 3,
                                                "id": 15,
                                                "order": 15
                                            }
                                        ],
                                        "depth": 2,
                                        "id": 14,
                                        "order": 14
                                    },
                                    {
                                        "children": [],
                                        "depth": 2,
                                        "id": 16,
                                        "order": 16
                                    },
                                    {
                                        "children": [],
                                        "depth": 2,
                                        "id": 17,
                                        "order": 17
                                    }
                                ],
                                "depth": 1,
                                "id": 12,
                                "order": 12
                            }
                        ],
                        "depth": 0,
                        "id": 0,
                        "order": 0
                    }
                ],
                "depth": -1,
                "id": -1,
                "order": -1
            }
        ],
        "mainTraceNodeCount": 18,
        "parentIdMap": {
            "0": -1,
            "1": 0,
            "10": 0,
            "11": 10,
            "12": 0,
            "13": 12,
            "14": 12,
            "15": 14,
            "16": 12,
            "17": 12,
            "2": 0,
            "3": 0,
            "4": 0,
            "5": 0,
            "6": 0,
            "7": 0,
            "8": 0,
            "9": 8
        },
        "tidyTrace": [
            {
                "children": [
                    {
                        "children": [
                            {
                                "children": [],
                                "depth": 1,
                                "id": 1,
                                "order": 1
                            },
                            {
                                "children": [],
                                "depth": 1,
                                "id": 2,
                                "order": 2
                            },
                            {
                                "children": [],
                                "depth": 1,
                                "id": 3,
                                "order": 3
                            },
                            {
                                "children": [],
                                "depth": 1,
                                "id": 4,
                                "order": 4
                            },
                            {
                                "children": [],
                                "depth": 1,
                                "id": 5,
                                "order": 5
                            },
                            {
                                "children": [],
                                "depth": 1,
                                "id": 6,
                                "order": 6
                            },
                            {
                                "children": [],
                                "depth": 1,
                                "id": 7,
                                "order": 7
                            },
                            {
                                "children": [
                                    {
                                        "children": [],
                                        "depth": 2,
                                        "id": 9,
                                        "order": 9
                                    }
                                ],
                                "depth": 1,
                                "id": 8,
                                "order": 8
                            },
                            {
                                "children": [
                                    {
                                        "children": [],
                                        "depth": 2,
                                        "id": 11,
                                        "order": 11
                                    }
                                ],
                                "depth": 1,
                                "id": 10,
                                "order": 10
                            },
                            {
                                "children": [
                                    {
                                        "children": [],
                                        "depth": 2,
                                        "id": 13,
                                        "order": 13
                                    },
                                    {
                                        "children": [
                                            {
                                                "children": [],
                                                "depth": 3,
                                                "id": 15,
                                                "order": 15
                                            }
                                        ],
                                        "depth": 2,
                                        "id": 14,
                                        "order": 14
                                    },
                                    {
                                        "children": [],
                                        "depth": 2,
                                        "id": 16,
                                        "order": 16
                                    },
                                    {
                                        "children": [],
                                        "depth": 2,
                                        "id": 17,
                                        "order": 17
                                    }
                                ],
                                "depth": 1,
                                "id": 12,
                                "order": 12
                            }
                        ],
                        "depth": 0,
                        "id": 0,
                        "order": 0
                    }
                ],
                "depth": -1,
                "id": -1,
                "order": -1
            }
        ],
        "tidyTraceNodeCount": 18
    },
    "state_change": {
        "stateChanges": [
            {
                "address": "0x8888882056160e5ff4a0f26607d4a05bc506ca8c",
                "erc": "",
                "slots": [
                    {
                        "current": "0xc8c381e6e63222c4601ec71eb508753419906eba062ea4745bc113476bcd5126",
                        "key": "0x000000000000000000000000000000000000000000000000000000000000001f",
                        "prev": "0x865720837b04da54f3b962fe679905c5f939065899c9840ae8a0cfd7fe63e2bf"
                    },
                    {
                        "current": "0x00000000000000000000000000000000000000000000000000000000000000c4",
                        "key": "0x09cbce825b12200b86b17fdf100f900bd1429adc8614b314212e754f0f3b8977",
                        "prev": "0x0000000000000000000000000000000000000000000000000000000000000062"
                    },
                    {
                        "current": "0x0000000000000000000000000a2ad955dbe99883072e94911e0cfed0dc4d7d70",
                        "key": "0xb10e2d527612073b26eecdfd717e6a320cf44b4afac2b0732d9fcbe2b7fa2496",
                        "prev": "0x0000000000000000000000000000000000000000000000000000000000000000"
                    },
                    {
                        "current": "0x0000000000000000000000000000000000000000000000000031bcef56e6e400",
                        "key": "0xb10e2d527612073b26eecdfd717e6a320cf44b4afac2b0732d9fcbe2b7fa249b",
                        "prev": "0x0000000000000000000000000000000000000000000000000000000000000000"
                    },
                    {
                        "current": "0x0000000000000000000000000000000000000000000000000000000000000360",
                        "key": "0x3152bde92fc819c693243de6c57bf22b2c57f9cd6bb54be8a0b3d04f93249779",
                        "prev": "0x0000000000000000000000000000000000000000000000000000000000000000"
                    },
                    {
                        "current": "0x00000000000000000000000000000000000000000000000f2aee5803fa18e96d",
                        "key": "0x0000000000000000000000000000000000000000000000000000000000000013",
                        "prev": "0x00000000000000000000000000000000000000000000000f2add6ed1524f876d"
                    },
                    {
                        "current": "0x000000000000000000000000000000000000000000000000000000005c3caf02",
                        "key": "0x9fafca4c9c0d5c2cbf85f49fd8ab8212430ce78c2a0cb75b51e0f9c4f9ace00c",
                        "prev": "0x000000000000000000000000000000000000000000000000000000005c3cae30"
                    },
                    {
                        "current": "0x000000000000000000000000000000000000000000000000021d3ca0bee9626e",
                        "key": "0x9fafca4c9c0d5c2cbf85f49fd8ab8212430ce78c2a0cb75b51e0f9c4f9ace00a",
                        "prev": "0x000000000000000000000000000000000000000000000000021d37b437fb0af1"
                    },
                    {
                        "current": "0x0000000000000000000000000000000000000000000000000000000000009ebc",
                        "key": "0xb10e2d527612073b26eecdfd717e6a320cf44b4afac2b0732d9fcbe2b7fa249a",
                        "prev": "0x0000000000000000000000000000000000000000000000000000000000000000"
                    },
                    {
                        "current": "0x0000000000000000000000000000000000000000000000000000000000009ebc",
                        "key": "0x9fafca4c9c0d5c2cbf85f49fd8ab8212430ce78c2a0cb75b51e0f9c4f9ace00e",
                        "prev": "0x0000000000000000000000000000000000000000000000000000000000009eb5"
                    },
                    {
                        "current": "0x000000000000000000000000000000000000000000000004686a10fac0c42814",
                        "key": "0x9fafca4c9c0d5c2cbf85f49fd8ab8212430ce78c2a0cb75b51e0f9c4f9ace00f",
                        "prev": "0x0000000000000000000000000000000000000000000000046838540b69dd4414"
                    },
                    {
                        "current": "0x000000000000000000000000000000000000000000000001c8d0bf0f86d5bc18",
                        "key": "0x0000000000000000000000000000000000000000000000000000000000000015",
                        "prev": "0x000000000000000000000000000000000000000000000001c8cec1be45eb3818"
                    },
                    {
                        "current": "0x000000000000000000000000000000000000000000000000000000000008ae48",
                        "key": "0x9fafca4c9c0d5c2cbf85f49fd8ab8212430ce78c2a0cb75b51e0f9c4f9ace003",
                        "prev": "0x000000000000000000000000000000000000000000000000000000000008ade6"
                    },
                    {
                        "current": "0x426c61636b2d486f6c6564204d6f6f6e205768616c6520697320436f6d696e67",
                        "key": "0xb10e2d527612073b26eecdfd717e6a320cf44b4afac2b0732d9fcbe2b7fa249c",
                        "prev": "0x0000000000000000000000000000000000000000000000000000000000000000"
                    },
                    {
                        "current": "0x0000000000000000000000000000000000000000000000055a723d2e94813448",
                        "key": "0x0000000000000000000000000000000000000000000000000000000000000014",
                        "prev": "0x0000000000000000000000000000000000000000000000055a6c453ad1c1a848"
                    },
                    {
                        "current": "0x000000000000000000000000000000000000000000000000000000000000000e",
                        "key": "0x7723d8e10fc0acc181c252abfd711641edb641983a8ed6cf9cfffd713d5578f3",
                        "prev": "0x0000000000000000000000000000000000000000000000000000000000000007"
                    },
                    {
                        "current": "0x0000000000000000000000000000000000000000000000019e4d23038276a80a",
                        "key": "0xbc73b8372f552fb4a20d2451719ae77116410a86b96a7e797026e6a2995d63cb",
                        "prev": "0x000000000000000000000000000000000000000000000000cf1dd006145c77c8"
                    },
                    {
                        "current": "0x0000000000000000000000000000000000000000000000000000000000000361",
                        "key": "0x9fafca4c9c0d5c2cbf85f49fd8ab8212430ce78c2a0cb75b51e0f9c4f9ace010",
                        "prev": "0x0000000000000000000000000000000000000000000000000000000000000360"
                    },
                    {
                        "current": "0x000000000000000000000000000000000000000000000000006379deadcdc800",
                        "key": "0xa4a8bc61ebf1cbeba9e5fc9396ad36983a7c7e375a97ea92eecb32de042f41f8",
                        "prev": "0x0000000000000000000000000000000000000000000000000031bcef56e6e400"
                    },
                    {
                        "current": "0x000000000000000000000000000000000000000000000000006379deadcdc800",
                        "key": "0x822180424fede1c1a9bea539fb40621f76cdd63dc13ef0b42a548183618cb8b7",
                        "prev": "0x0000000000000000000000000000000000000000000000000031bcef56e6e400"
                    },
                    {
                        "current": "0x0000000000000000000000000000000000000000000000000000000000009ebc",
                        "key": "0x0000000000000000000000000000000000000000000000000000000000000020",
                        "prev": "0x0000000000000000000000000000000000000000000000000000000000009eb5"
                    },
                    {
                        "current": "0x0000000000000000000000000000000000000000000000000000000000000002",
                        "key": "0x37436390a3d58a1285ad651618a72608e3a215a2a6de156367309c3a15c0b1f3",
                        "prev": "0x0000000000000000000000000000000000000000000000000000000000000001"
                    },
                    {
                        "current": "0x0000000000000000000000000000000000000000000000000000000000000001",
                        "key": "0xb10e2d527612073b26eecdfd717e6a320cf44b4afac2b0732d9fcbe2b7fa2497",
                        "prev": "0x0000000000000000000000000000000000000000000000000000000000000000"
                    },
                    {
                        "current": "0x0000000000000000000000000000000000000000000000000000000000000361",
                        "key": "0x0000000000000000000000000000000000000000000000000000000000000001",
                        "prev": "0x0000000000000000000000000000000000000000000000000000000000000360"
                    },
                    {
                        "current": "0x0000000000000000000000000000000000000000000000000000000000009ebc",
                        "key": "0xb10e2d527612073b26eecdfd717e6a320cf44b4afac2b0732d9fcbe2b7fa2499",
                        "prev": "0x0000000000000000000000000000000000000000000000000000000000000000"
                    },
                    {
                        "current": "0x0000000000000000000000000000000000000000000000000000000000009ebc",
                        "key": "0x000000000000000000000000000000000000000000000000000000000000001e",
                        "prev": "0x0000000000000000000000000000000000000000000000000000000000009eb5"
                    },
                    {
                        "current": "0x0000000000000000000000000000000000000000000000000000000000009eb6",
                        "key": "0xb10e2d527612073b26eecdfd717e6a320cf44b4afac2b0732d9fcbe2b7fa2498",
                        "prev": "0x0000000000000000000000000000000000000000000000000000000000000000"
                    },
                    {
                        "current": "0x00000000000000000000000000000000000000000000000000000000006bd2c3",
                        "key": "0x9fafca4c9c0d5c2cbf85f49fd8ab8212430ce78c2a0cb75b51e0f9c4f9ace004",
                        "prev": "0x00000000000000000000000000000000000000000000000000000000006bd2b1"
                    },
                    {
                        "current": "0x000000000000000000000000000000000000000000000000000000000000000e",
                        "key": "0x844c1e18b7b57921056d92b38e5935a76f1ce5c7635be36efc89f759e548efca",
                        "prev": "0x0000000000000000000000000000000000000000000000000000000000000007"
                    }
                ],
                "storageVariables": [
                    {
                        "name": "pTicketSum",
                        "type": "mapping(address => uint256)",
                        "value": {
                            "pairs": [
                                {
                                    "key": "0x0a2ad955dbe99883072e94911e0cfed0dc4d7d70",
                                    "value": {
                                        "current": "14",
                                        "prev": "7",
                                        "typeTag": 1
                                    }
                                }
                            ],
                            "typeTag": 4
                        }
                    },
                    {
                        "name": "curRSalt",
                        "type": "uint256",
                        "value": {
                            "current": "90808001444593983805606280944635988571144005252576416505154242247047263375654",
                            "prev": "60763861805384934399010343944407374153727893034013997513370503803042420482751",
                            "typeTag": 1
                        }
                    },
                    {
                        "name": "curRWeight",
                        "type": "uint256",
                        "value": {
                            "current": "40636",
                            "prev": "40629",
                            "typeTag": 1
                        }
                    },
                    {
                        "name": "pInvestedSum",
                        "type": "mapping(address => uint256)",
                        "value": {
                            "pairs": [
                                {
                                    "key": "0x0a2ad955dbe99883072e94911e0cfed0dc4d7d70",
                                    "value": {
                                        "current": "28000020000000000",
                                        "prev": "14000010000000000",
                                        "typeTag": 1
                                    }
                                }
                            ],
                            "typeTag": 4
                        }
                    },
                    {
                        "name": "majorPot",
                        "type": "uint256",
                        "value": {
                            "current": "98751059249575572552",
                            "prev": "98749379248375572552",
                            "typeTag": 1
                        }
                    },
                    {
                        "name": "round",
                        "type": "mapping(uint256 => struct Lottery.Round)",
                        "value": {
                            "pairs": [
                                {
                                    "key": "1",
                                    "value": {
                                        "fields": [
                                            {
                                                "name": "rEarlyIncomeWeight",
                                                "type": "uint256",
                                                "value": {
                                                    "current": "568904",
                                                    "prev": "568806",
                                                    "typeTag": 1
                                                }
                                            },
                                            {
                                                "name": "keyBlockNr",
                                                "type": "uint256",
                                                "value": {
                                                    "current": "7066307",
                                                    "prev": "7066289",
                                                    "typeTag": 1
                                                }
                                            },
                                            {
                                                "name": "pTicketSum",
                                                "type": "mapping(address => uint256)",
                                                "value": {
                                                    "pairs": [
                                                        {
                                                            "key": "0x0a2ad955dbe99883072e94911e0cfed0dc4d7d70",
                                                            "value": {
                                                                "current": "14",
                                                                "prev": "7",
                                                                "typeTag": 1
                                                            }
                                                        }
                                                    ],
                                                    "typeTag": 4
                                                }
                                            },
                                            {
                                                "name": "pInvestedSum",
                                                "type": "mapping(address => uint256)",
                                                "value": {
                                                    "pairs": [
                                                        {
                                                            "key": "0x0a2ad955dbe99883072e94911e0cfed0dc4d7d70",
                                                            "value": {
                                                                "current": "28000020000000000",
                                                                "prev": "14000010000000000",
                                                                "typeTag": 1
                                                            }
                                                        }
                                                    ],
                                                    "typeTag": 4
                                                }
                                            },
                                            {
                                                "name": "pEarlyIncomeWeight",
                                                "type": "mapping(address => uint256)",
                                                "value": {
                                                    "pairs": [
                                                        {
                                                            "key": "0x0a2ad955dbe99883072e94911e0cfed0dc4d7d70",
                                                            "value": {
                                                                "current": "196",
                                                                "prev": "98",
                                                                "typeTag": 1
                                                            }
                                                        }
                                                    ],
                                                    "typeTag": 4
                                                }
                                            },
                                            {
                                                "name": "pEarlyIncomeCredit",
                                                "type": "mapping(address => uint256)",
                                                "value": {
                                                    "pairs": [
                                                        {
                                                            "key": "0x0a2ad955dbe99883072e94911e0cfed0dc4d7d70",
                                                            "value": {
                                                                "current": "29853556002889574410",
                                                                "prev": "14924313464705677256",
                                                                "typeTag": 1
                                                            }
                                                        }
                                                    ],
                                                    "typeTag": 4
                                                }
                                            },
                                            {
                                                "name": "ppw",
                                                "type": "uint256",
                                                "value": {
                                                    "current": "152344623495864942",
                                                    "prev": "152339209573305073",
                                                    "typeTag": 1
                                                }
                                            },
                                            {
                                                "name": "slideEndTime",
                                                "type": "uint256",
                                                "value": {
                                                    "current": "1547480834",
                                                    "prev": "1547480624",
                                                    "typeTag": 1
                                                }
                                            },
                                            {
                                                "name": "ticketSum",
                                                "type": "uint256",
                                                "value": {
                                                    "current": "40636",
                                                    "prev": "40629",
                                                    "typeTag": 1
                                                }
                                            },
                                            {
                                                "name": "investedSum",
                                                "type": "uint256",
                                                "value": {
                                                    "current": "81310821091475990548",
                                                    "prev": "81296821081475990548",
                                                    "typeTag": 1
                                                }
                                            },
                                            {
                                                "name": "slotSum",
                                                "type": "uint256",
                                                "value": {
                                                    "current": "865",
                                                    "prev": "864",
                                                    "typeTag": 1
                                                }
                                            }
                                        ],
                                        "typeTag": 3
                                    }
                                }
                            ],
                            "typeTag": 4
                        }
                    },
                    {
                        "name": "slot",
                        "type": "struct Lottery.Slot[]",
                        "value": {
                            "elemType": "struct Lottery.Slot",
                            "elems": [
                                {
                                    "index": 864,
                                    "value": {
                                        "fields": [
                                            {
                                                "name": "buyer",
                                                "type": "address",
                                                "value": {
                                                    "current": "0x0a2ad955dbe99883072e94911e0cfed0dc4d7d70",
                                                    "prev": "0x0000000000000000000000000000000000000000",
                                                    "typeTag": 1
                                                }
                                            },
                                            {
                                                "name": "rId",
                                                "type": "uint256",
                                                "value": {
                                                    "current": "1",
                                                    "prev": "0",
                                                    "typeTag": 1
                                                }
                                            },
                                            {
                                                "name": "tNumberFrom",
                                                "type": "uint256",
                                                "value": {
                                                    "current": "40630",
                                                    "prev": "0",
                                                    "typeTag": 1
                                                }
                                            },
                                            {
                                                "name": "tNumberTo",
                                                "type": "uint256",
                                                "value": {
                                                    "current": "40636",
                                                    "prev": "0",
                                                    "typeTag": 1
                                                }
                                            },
                                            {
                                                "name": "wTo",
                                                "type": "uint256",
                                                "value": {
                                                    "current": "40636",
                                                    "prev": "0",
                                                    "typeTag": 1
                                                }
                                            },
                                            {
                                                "name": "ethAmount",
                                                "type": "uint256",
                                                "value": {
                                                    "current": "14000010000000000",
                                                    "prev": "0",
                                                    "typeTag": 1
                                                }
                                            },
                                            {
                                                "name": "salt",
                                                "type": "uint256",
                                                "value": {
                                                    "current": "30044139639209049406595937000228614417416112218562418991783738444004842892903",
                                                    "prev": "0",
                                                    "typeTag": 1
                                                }
                                            }
                                        ],
                                        "typeTag": 3
                                    }
                                }
                            ],
                            "typeTag": 2
                        }
                    },
                    {
                        "name": "curRTicketSum",
                        "type": "uint256",
                        "value": {
                            "current": "40636",
                            "prev": "40629",
                            "typeTag": 1
                        }
                    },
                    {
                        "name": "pSlot",
                        "type": "mapping(address => uint256[])",
                        "value": {
                            "pairs": [
                                {
                                    "key": "0x0a2ad955dbe99883072e94911e0cfed0dc4d7d70",
                                    "value": {
                                        "elemType": "uint256",
                                        "elems": [
                                            {
                                                "index": 1,
                                                "value": {
                                                    "current": "864",
                                                    "prev": "0",
                                                    "typeTag": 1
                                                }
                                            }
                                        ],
                                        "typeTag": 2
                                    }
                                }
                            ],
                            "typeTag": 4
                        }
                    },
                    {
                        "name": "grandPot",
                        "type": "uint256",
                        "value": {
                            "current": "279794667873797466477",
                            "prev": "279789907870397466477",
                            "typeTag": 1
                        }
                    },
                    {
                        "name": "minorPot",
                        "type": "uint256",
                        "value": {
                            "current": "32917019749858524184",
                            "prev": "32916459749458524184",
                            "typeTag": 1
                        }
                    }
                ]
            },
            {
                "address": "0x8888887c5ede327afbeb15019598aaa3b4fae759",
                "erc": "",
                "slots": [
                    {
                        "current": "0x0000000000000000000000000000000000000000000000000000becc94ac04eb",
                        "key": "0x5002296317edfa74196c7d85a612d93777adfd2096146520a2ed69b22817e6e5",
                        "prev": "0x00000000000000000000000000000000000000000000000000005f6f9a60ac45"
                    },
                    {
                        "current": "0x0000000000000000000000000000000000000000000000000000001d88502a1b",
                        "key": "0x3f68f77a1934ae09842369c4ec3587e34c951d9f9be3456654dc16fcf96ed954",
                        "prev": "0x0000000000000000000000000000000000000000000000000000000caceee055"
                    },
                    {
                        "current": "0x00000000000000000000000000000000000000000000000311759db992c635ae",
                        "key": "0xf3794665d3af9b6fb6f858b70185898134f96768ef31c325d52e04f0ac195a4d",
                        "prev": "0x000000000000000000000000000000000000000000000003117097b2cedc752e"
                    },
                    {
                        "current": "0x0000000000000000000000000000000000000000000000478ce1824af0d014a1",
                        "key": "0x0000000000000000000000000000000000000000000000000000000000000015",
                        "prev": "0x0000000000000000000000000000000000000000000000478ce102f6a09573a1"
                    },
                    {
                        "current": "0x000000000000000000000000000000000000000000000000ddcca7f8b8e72eb1",
                        "key": "0x93dca75d568bd1fce509f0c7c232b6fafb908b2c300b51aa05ecd059b339fdef",
                        "prev": "0x000000000000000000000000000000000000000000000000ddcc28a468ac8db1"
                    },
                    {
                        "current": "0x000000000000000000000000000000000000000000000000001d6d4c15772d71",
                        "key": "0x0000000000000000000000000000000000000000000000000000000000000000",
                        "prev": "0x000000000000000000000000000000000000000000000000001d6d4bfffef8db"
                    },
                    {
                        "current": "0x00000000000000000000000000000000000000000000000798878eba2b5b9924",
                        "key": "0x0000000000000000000000000000000000000000000000000000000000000017",
                        "prev": "0x000000000000000000000000000000000000000000000007988288b36771d8a4"
                    },
                    {
                        "current": "0x00000000000000000000000000000000000000000000002eea44d8dee5f05e29",
                        "key": "0x6153b36fad14fb4fc4956ff9e0482458f9904dd1b4ad32ea391a1e354ecd2d27",
                        "prev": "0x00000000000000000000000000000000000000000000002eea4ae01a376f4529"
                    },
                    {
                        "current": "0x000000000000000000000000000000000000000000000029516ac80fded0ec55",
                        "key": "0x0000000000000000000000000000000000000000000000000000000000000014",
                        "prev": "0x000000000000000000000000000000000000000000000029516a6b1c8fc4d815"
                    },
                    {
                        "current": "0x000000000000000000000000000000000000000000000000000000002af58c89",
                        "key": "0x822180424fede1c1a9bea539fb40621f76cdd63dc13ef0b42a548183618cb8b7",
                        "prev": "0x00000000000000000000000000000000000000000000000000000000157d57f3"
                    },
                    {
                        "current": "0x00000000000000000000000000000000000000000000000019121ffe0ff571f4",
                        "key": "0x1d0fb1f1b508f9068f26a1064f5316e8aec80c94ff7d068254c0214285d39b0e",
                        "prev": "0x000000000000000000000000000000000000000000000000190d19f74c0bb174"
                    },
                    {
                        "current": "0x000000000000000000000000000000000000000000000000000004972a9af39e",
                        "key": "0xa3b957c6d25d4ef5d5feba1fb842a0bf62ece9412a4a8fef04a74050427fffcf",
                        "prev": "0x00000000000000000000000000000000000000000000000000000249c2974da6"
                    },
                    {
                        "current": "0x0000000000000000000000000000000000000000000000000000fea8a0754200",
                        "key": "0x4e7b0d3f75c50a1a909e8be7fd06a365bac5d68fd03e7ff5292a22c8b61b9a1f",
                        "prev": "0x00000000000000000000000000000000000000000000000000007f54503aa100"
                    }
                ],
                "storageVariables": [
                    {
                        "name": "totalDividends",
                        "type": "uint256",
                        "value": {
                            "current": "140118118861830330660",
                            "prev": "140116704860820330660",
                            "typeTag": 1
                        }
                    },
                    {
                        "name": "investedAmount",
                        "type": "uint256",
                        "value": {
                            "current": "762183228457183407189",
                            "prev": "762183126257110407189",
                            "typeTag": 1
                        }
                    },
                    {
                        "name": "divInDay",
                        "type": "mapping(uint256 => uint256)",
                        "value": {
                            "pairs": [
                                {
                                    "key": "17910",
                                    "value": {
                                        "current": "1806541576578888180",
                                        "prev": "1805127575568888180",
                                        "typeTag": 1
                                    }
                                }
                            ],
                            "typeTag": 4
                        }
                    },
                    {
                        "name": "pInvestedSum",
                        "type": "mapping(address => uint256)",
                        "value": {
                            "pairs": [
                                {
                                    "key": "0x0a2ad955dbe99883072e94911e0cfed0dc4d7d70",
                                    "value": {
                                        "current": "280000200000000",
                                        "prev": "140000100000000",
                                        "typeTag": 1
                                    }
                                }
                            ],
                            "typeTag": 4
                        }
                    },
                    {
                        "name": "totalDividendsByRound",
                        "type": "mapping(uint256 => uint256)",
                        "value": {
                            "pairs": [
                                {
                                    "key": "1",
                                    "value": {
                                        "current": "56598317312405550510",
                                        "prev": "56596903311395550510",
                                        "typeTag": 1
                                    }
                                }
                            ],
                            "typeTag": 4
                        }
                    },
                    {
                        "name": "totalBuyVolume",
                        "type": "uint256",
                        "value": {
                            "current": "1319870367526827332769",
                            "prev": "1319870227526727332769",
                            "typeTag": 1
                        }
                    },
                    {
                        "name": "totalSupply",
                        "type": "uint256",
                        "value": {
                            "current": "8282947869683057",
                            "prev": "8282947509483739",
                            "typeTag": 1
                        }
                    },
                    {
                        "name": "credit",
                        "type": "mapping(address => int256)",
                        "value": {
                            "pairs": [
                                {
                                    "key": "0x0a2ad955dbe99883072e94911e0cfed0dc4d7d70",
                                    "value": {
                                        "current": "209785876907243",
                                        "prev": "104932936035397",
                                        "typeTag": 1
                                    }
                                },
                                {
                                    "key": "0x96504e1f83e380984b1d4eccc0e8b9f0559b2ad2",
                                    "value": {
                                        "current": "865431083145782910505",
                                        "prev": "865432779946994910505",
                                        "typeTag": 1
                                    }
                                }
                            ],
                            "typeTag": 4
                        }
                    },
                    {
                        "name": "balances",
                        "type": "mapping(address => uint256)",
                        "value": {
                            "pairs": [
                                {
                                    "key": "0x0a2ad955dbe99883072e94911e0cfed0dc4d7d70",
                                    "value": {
                                        "current": "720735369",
                                        "prev": "360536051",
                                        "typeTag": 1
                                    }
                                }
                            ],
                            "typeTag": 4
                        }
                    },
                    {
                        "name": "rCredit",
                        "type": "mapping(address => mapping(uint256 => int256))",
                        "value": {
                            "pairs": [
                                {
                                    "key": "0x0a2ad955dbe99883072e94911e0cfed0dc4d7d70",
                                    "value": {
                                        "pairs": [
                                            {
                                                "key": "1",
                                                "value": {
                                                    "current": "5047301370782",
                                                    "prev": "2515820563878",
                                                    "typeTag": 1
                                                }
                                            }
                                        ],
                                        "typeTag": 4
                                    }
                                }
                            ],
                            "typeTag": 4
                        }
                    },
                    {
                        "name": "totalBuyVolumeInDay",
                        "type": "mapping(uint256 => uint256)",
                        "value": {
                            "pairs": [
                                {
                                    "key": "17910",
                                    "value": {
                                        "current": "15982333864326934193",
                                        "prev": "15982193864226934193",
                                        "typeTag": 1
                                    }
                                }
                            ],
                            "typeTag": 4
                        }
                    },
                    {
                        "name": "todayCredit",
                        "type": "mapping(address => int256)",
                        "value": {
                            "pairs": [
                                {
                                    "key": "0x0a2ad955dbe99883072e94911e0cfed0dc4d7d70",
                                    "value": {
                                        "current": "126841006619",
                                        "prev": "54440943701",
                                        "typeTag": 1
                                    }
                                }
                            ],
                            "typeTag": 4
                        }
                    }
                ]
            },
            {
                "address": "0xd7657bdf782f43ba7f5f5e8456b481616e636ae9",
                "erc": "",
                "slots": [
                    {
                        "current": "0x000000000000000000000000000000000000000000000000000cca2ed74d4680",
                        "key": "0xfcbb4b4f1be2d73122985e4b8195427191672a040b75bba080ce4864576ccaca",
                        "prev": "0x00000000000000000000000000000000000000000000000000090f367d958f00"
                    },
                    {
                        "current": "0x00000000000000000000000000000000000000000000000001f0d9ce073a77a8",
                        "key": "0xec9d8f534f2e571bfc916455b3e526b18bc28bf0f5c45445c6a1865dec8c205e",
                        "prev": "0x00000000000000000000000000000000000000000000000001f0626efc0380b8"
                    },
                    {
                        "current": "0x00000000000000000000000000000000000000000000000001b14fa437544114",
                        "key": "0xe8fb2fe3bda5859cb2b03b8178adaf788ec409119f58908654408d0c498f3f01",
                        "prev": "0x00000000000000000000000000000000000000000000000001b13c8ac4e50f54"
                    },
                    {
                        "current": "0x00000000000000000000000000000000000000000000000001f0d9ce073a77a8",
                        "key": "0xec9d8f534f2e571bfc916455b3e526b18bc28bf0f5c45445c6a1865dec8c2057",
                        "prev": "0x00000000000000000000000000000000000000000000000001f0626efc0380b8"
                    },
                    {
                        "current": "0x000000000000000000000000000000000000000000000000000997a32ca6fac0",
                        "key": "0xd3d7c0dbaac845d2d39b183d564d277f48ebb34a13f0ca9c1fb00c05ec2394b7",
                        "prev": "0x0000000000000000000000000000000000000000000000000007ba26ffcb1f00"
                    },
                    {
                        "current": "0x000000000000000000000000000000000000000000000000000997a32ca6fac0",
                        "key": "0x8b086850124f3673d21670371a8879de674477e1d26e7a8e5e571904c2dd5c32",
                        "prev": "0x0000000000000000000000000000000000000000000000000007ba26ffcb1f00"
                    },
                    {
                        "current": "0x00000000000000000000000000000000000000000000000000f86ce7039d3bd3",
                        "key": "0x4bc716276418b536cf347050735866b7c35dd227d5c3685824eaaa51b73b3d3f",
                        "prev": "0x00000000000000000000000000000000000000000000000000f831377e01c05b"
                    },
                    {
                        "current": "0x0000000000000000000000000000000000000000000000001ae6fa04afa83470",
                        "key": "0x5155017b6ea3c883e053ea8d9612963a702d79f4611e247f9da1b15fbb0220c6",
                        "prev": "0x0000000000000000000000000000000000000000000000001ae6f649b74e7cb9"
                    },
                    {
                        "current": "0x000000000000000000000000000000000000000000000009ac02d5fb82bb9008",
                        "key": "0xab846d2f18e92bfa0c50395ef8fc9479aa6f1759544425c02ee3eab8037b1c2d",
                        "prev": "0x000000000000000000000000000000000000000000000009ac02bf2717f2a692"
                    },
                    {
                        "current": "0x00000000000000000000000000000000000000000000000003e1b39c0e74ef50",
                        "key": "0x911e432ee37dcd8bf32ad76a42b62aeef3357767bc2020be9b1b70be627ca3d2",
                        "prev": "0x00000000000000000000000000000000000000000000000003e0c4ddf8070170"
                    },
                    {
                        "current": "0x000000000000000000000000000000000000000000000000000cca2ed74d4680",
                        "key": "0xb6810b6d60904b1a6f2f6eb12d2b33d9bb2d1793b022fa318c89cf173abd8cd6",
                        "prev": "0x00000000000000000000000000000000000000000000000000090f367d958f00"
                    },
                    {
                        "current": "0x00000000000000000000000000000000000000000000000b64cb5617410965b6",
                        "key": "0x000000000000000000000000000000000000000000000000000000000000000c",
                        "prev": "0x00000000000000000000000000000000000000000000000b64c3cd0d1b2ac4f6"
                    },
                    {
                        "current": "0x0000000000000000000000000000000000000000000000001f912dfb48733d15",
                        "key": "0x01b32cd1b675f809652566e4ffe82c79f499707a109fbeb7d90c0ab79bcb96d1",
                        "prev": "0x0000000000000000000000000000000000000000000000001f912a405019855e"
                    },
                    {
                        "current": "0x00000000000000000000000000000000000000000000000001aa1c623a1aa575",
                        "key": "0x39adfcd85f25302016a9b7f3b1e7a828bc503855703c713514d013daeda1a921",
                        "prev": "0x00000000000000000000000000000000000000000000000001a9fe8a774ce7b9"
                    },
                    {
                        "current": "0x00000000000000000000000000000000000000000000000001aa1c623a1aa575",
                        "key": "0xb0bcbd27bcec62512ce7f7f4a60c51f8ff59c0608f4f4b3dbf53119d3c836f58",
                        "prev": "0x00000000000000000000000000000000000000000000000001a9fe8a774ce7b9"
                    },
                    {
                        "current": "0x000000000000000000000000000000000000000000000000044aeff8476afc5b",
                        "key": "0x4558e94b45dd7537a7505e0085e225e50e32b0412b321a4e44d477c0188a3b1b",
                        "prev": "0x000000000000000000000000000000000000000000000000044ae88256b78cec"
                    },
                    {
                        "current": "0x000000000000000000000000000000000000000000000000011854547af8c541",
                        "key": "0xdab3a9026343aa6fa8997902e81558d0952adadeed9c8f419cd88ac4ea3701f9",
                        "prev": "0x000000000000000000000000000000000000000000000000011845689991e663"
                    },
                    {
                        "current": "0x0000000000000000000000000000000000000000000000001f912dfb48733d15",
                        "key": "0x01b32cd1b675f809652566e4ffe82c79f499707a109fbeb7d90c0ab79bcb96d8",
                        "prev": "0x0000000000000000000000000000000000000000000000001f912a405019855e"
                    },
                    {
                        "current": "0x00000000000000000000000000000000000000000000000000f86ce7039d3bd3",
                        "key": "0x7fb96426361dc034b8f789cdbb30544585cc330b73b39ad40c84683808c7deb3",
                        "prev": "0x00000000000000000000000000000000000000000000000000f831377e01c05b"
                    },
                    {
                        "current": "0x00000000000000000000000000000000000000000000000003e1b39c0e74ef50",
                        "key": "0x9a83b81103bb5fa56b19a09d4c423faa3a14ece0fdd759261a12f414a07a525d",
                        "prev": "0x00000000000000000000000000000000000000000000000003e0c4ddf8070170"
                    },
                    {
                        "current": "0x000000000000000000000000000000000000000000000000000eebe166dede00",
                        "key": "0x63fa93a75447cfcb151ac991fd1d87b5003796ef4927ebf28a4ed72dfa9c6f14",
                        "prev": "0x000000000000000000000000000000000000000000000000000775f0b36f6f00"
                    },
                    {
                        "current": "0x000000000000000000000000000000000000000000000000000997a32ca6fac0",
                        "key": "0x8b086850124f3673d21670371a8879de674477e1d26e7a8e5e571904c2dd5c2b",
                        "prev": "0x0000000000000000000000000000000000000000000000000007ba26ffcb1f00"
                    },
                    {
                        "current": "0x0000000000000000000000000000000000000000000000049a306c965c295085",
                        "key": "0x72c6bfb7988af3a1efa6568f02a999bc52252641c659d85961ca3d372b57d5cf",
                        "prev": "0x0000000000000000000000000000000000000000000000049a28e38c364aafc5"
                    },
                    {
                        "current": "0x0000000000000000000000000000000000000000000000000117f12dac1047f1",
                        "key": "0x215cef68158d6b2a245d6e9670b480bfaf2ae8b49de55d2a70872d7fea03bbda",
                        "prev": "0x0000000000000000000000000000000000000000000000000117e241caa96913"
                    },
                    {
                        "current": "0x00000000000000000000000000000000000000000000000001f0d9ce073a77a8",
                        "key": "0xc531b349673ea5edb69fc3f6e5cf00e6ae7b4cac854ba6f534c759e0cf75461f",
                        "prev": "0x00000000000000000000000000000000000000000000000001f0626efc0380b8"
                    },
                    {
                        "current": "0x00000000000000000000000000000000000000000000000000f86ce7039d3bd3",
                        "key": "0x7fb96426361dc034b8f789cdbb30544585cc330b73b39ad40c84683808c7deac",
                        "prev": "0x00000000000000000000000000000000000000000000000000f831377e01c05b"
                    },
                    {
                        "current": "0x00000000000000000000000000000000000000000000000003e1b39c0e74ef50",
                        "key": "0x911e432ee37dcd8bf32ad76a42b62aeef3357767bc2020be9b1b70be627ca3d9",
                        "prev": "0x00000000000000000000000000000000000000000000000003e0c4ddf8070170"
                    },
                    {
                        "current": "0x0000000000000000000000000000000000000000000000000747737c1044f9d2",
                        "key": "0x8cabeed6de571cfc4430542186aff003a27d6cad980332ae2a1d4d792de34b37",
                        "prev": "0x00000000000000000000000000000000000000000000000007476c061f918a63"
                    },
                    {
                        "current": "0x00000000000000000000000000000000000000000000000001aa1c623a1aa575",
                        "key": "0x39adfcd85f25302016a9b7f3b1e7a828bc503855703c713514d013daeda1a928",
                        "prev": "0x00000000000000000000000000000000000000000000000001a9fe8a774ce7b9"
                    },
                    {
                        "current": "0x000000000000000000000000000000000000000000000000000cca2ed74d4680",
                        "key": "0xb6810b6d60904b1a6f2f6eb12d2b33d9bb2d1793b022fa318c89cf173abd8ccf",
                        "prev": "0x00000000000000000000000000000000000000000000000000090f367d958f00"
                    },
                    {
                        "current": "0x000000000000000000000000000000000000000000000000011854547af8c541",
                        "key": "0xdab3a9026343aa6fa8997902e81558d0952adadeed9c8f419cd88ac4ea370200",
                        "prev": "0x000000000000000000000000000000000000000000000000011845689991e663"
                    },
                    {
                        "current": "0x0000000000000000000000000000000000000000000000000747737c1044f9d2",
                        "key": "0x8cabeed6de571cfc4430542186aff003a27d6cad980332ae2a1d4d792de34b30",
                        "prev": "0x00000000000000000000000000000000000000000000000007476c061f918a63"
                    },
                    {
                        "current": "0x000000000000000000000000000000000000000000000001829b236a22996e28",
                        "key": "0xab846d2f18e92bfa0c50395ef8fc9479aa6f1759544425c02ee3eab8037b1c26",
                        "prev": "0x000000000000000000000000000000000000000000000001829b0c95b7d084b2"
                    },
                    {
                        "current": "0x000000000000000000000000000000000000000000000002f479d3723c49f3be",
                        "key": "0xfe21b700aae61592b83000ec9b504b0aa7abce1185f6964c3358bfbd128d5ada",
                        "prev": "0x000000000000000000000000000000000000000000000002f479bc9dd1810a48"
                    }
                ],
                "storageVariables": [
                    {
                        "name": "citizen",
                        "type": "mapping(address => struct Citizen.Profile)",
                        "value": {
                            "pairs": [
                                {
                                    "key": "0x0a2ad955dbe99883072e94911e0cfed0dc4d7d70",
                                    "value": {
                                        "fields": [
                                            {
                                                "name": "totalSale",
                                                "type": "uint256",
                                                "value": {
                                                    "current": "4200003000000000",
                                                    "prev": "2100001500000000",
                                                    "typeTag": 1
                                                }
                                            }
                                        ],
                                        "typeTag": 3
                                    }
                                },
                                {
                                    "key": "0x3d3e9e79d44570d653d3d89935da8411da81a90e",
                                    "value": {
                                        "fields": [
                                            {
                                                "name": "refWallet",
                                                "type": "uint256",
                                                "value": {
                                                    "current": "524514858298046930",
                                                    "prev": "524506655167187555",
                                                    "typeTag": 1
                                                }
                                            },
                                            {
                                                "name": "allRoundRefIncome",
                                                "type": "uint256",
                                                "value": {
                                                    "current": "524514858298046930",
                                                    "prev": "524506655167187555",
                                                    "typeTag": 1
                                                }
                                            },
                                            {
                                                "name": "roundRefIncome",
                                                "type": "mapping(uint256 => uint256)",
                                                "value": {
                                                    "pairs": [
                                                        {
                                                            "key": "1",
                                                            "value": {
                                                                "current": "309323374057421915",
                                                                "prev": "309315170926562540",
                                                                "typeTag": 1
                                                            }
                                                        }
                                                    ],
                                                    "typeTag": 4
                                                }
                                            }
                                        ],
                                        "typeTag": 3
                                    }
                                },
                                {
                                    "key": "0x406a901f89f0e5d68b4fc001a573eea26f14fbf2",
                                    "value": {
                                        "fields": [
                                            {
                                                "name": "refWallet",
                                                "type": "uint256",
                                                "value": {
                                                    "current": "139851067356247976",
                                                    "prev": "139719817262497976",
                                                    "typeTag": 1
                                                }
                                            },
                                            {
                                                "name": "allRoundRefIncome",
                                                "type": "uint256",
                                                "value": {
                                                    "current": "139851067356247976",
                                                    "prev": "139719817262497976",
                                                    "typeTag": 1
                                                }
                                            },
                                            {
                                                "name": "roundRefIncome",
                                                "type": "mapping(uint256 => uint256)",
                                                "value": {
                                                    "pairs": [
                                                        {
                                                            "key": "1",
                                                            "value": {
                                                                "current": "139851067356247976",
                                                                "prev": "139719817262497976",
                                                                "typeTag": 1
                                                            }
                                                        }
                                                    ],
                                                    "typeTag": 4
                                                }
                                            }
                                        ],
                                        "typeTag": 3
                                    }
                                },
                                {
                                    "key": "0x5107cdbb6e35b6be17a43fcfd43e23abcb9312a0",
                                    "value": {
                                        "fields": [
                                            {
                                                "name": "refWallet",
                                                "type": "uint256",
                                                "value": {
                                                    "current": "2700001875000000",
                                                    "prev": "2175001500000000",
                                                    "typeTag": 1
                                                }
                                            },
                                            {
                                                "name": "allRoundRefIncome",
                                                "type": "uint256",
                                                "value": {
                                                    "current": "2700001875000000",
                                                    "prev": "2175001500000000",
                                                    "typeTag": 1
                                                }
                                            },
                                            {
                                                "name": "roundRefIncome",
                                                "type": "mapping(uint256 => uint256)",
                                                "value": {
                                                    "pairs": [
                                                        {
                                                            "key": "1",
                                                            "value": {
                                                                "current": "2700001875000000",
                                                                "prev": "2175001500000000",
                                                                "typeTag": 1
                                                            }
                                                        }
                                                    ],
                                                    "typeTag": 4
                                                }
                                            }
                                        ],
                                        "typeTag": 3
                                    }
                                },
                                {
                                    "key": "0x57da9e8c1870108121e518ce85d0d5ede4471e05",
                                    "value": {
                                        "fields": [
                                            {
                                                "name": "refWallet",
                                                "type": "uint256",
                                                "value": {
                                                    "current": "3600002250000000",
                                                    "prev": "2550001500000000",
                                                    "typeTag": 1
                                                }
                                            },
                                            {
                                                "name": "allRoundRefIncome",
                                                "type": "uint256",
                                                "value": {
                                                    "current": "3600002250000000",
                                                    "prev": "2550001500000000",
                                                    "typeTag": 1
                                                }
                                            },
                                            {
                                                "name": "roundRefIncome",
                                                "type": "mapping(uint256 => uint256)",
                                                "value": {
                                                    "pairs": [
                                                        {
                                                            "key": "1",
                                                            "value": {
                                                                "current": "3600002250000000",
                                                                "prev": "2550001500000000",
                                                                "typeTag": 1
                                                            }
                                                        }
                                                    ],
                                                    "typeTag": 4
                                                }
                                            }
                                        ],
                                        "typeTag": 3
                                    }
                                },
                                {
                                    "key": "0x5e868551b27655a4c0a5e18442af4730b39c014d",
                                    "value": {
                                        "fields": [
                                            {
                                                "name": "refWallet",
                                                "type": "uint256",
                                                "value": {
                                                    "current": "279702134712495952",
                                                    "prev": "279439634524995952",
                                                    "typeTag": 1
                                                }
                                            },
                                            {
                                                "name": "allRoundRefIncome",
                                                "type": "uint256",
                                                "value": {
                                                    "current": "279702134712495952",
                                                    "prev": "279439634524995952",
                                                    "typeTag": 1
                                                }
                                            },
                                            {
                                                "name": "roundRefIncome",
                                                "type": "mapping(uint256 => uint256)",
                                                "value": {
                                                    "pairs": [
                                                        {
                                                            "key": "1",
                                                            "value": {
                                                                "current": "279702134712495952",
                                                                "prev": "279439634524995952",
                                                                "typeTag": 1
                                                            }
                                                        }
                                                    ],
                                                    "typeTag": 4
                                                }
                                            }
                                        ],
                                        "typeTag": 3
                                    }
                                },
                                {
                                    "key": "0x879cccaa74bf9a18b98e20d438c3886867a165e1",
                                    "value": {
                                        "fields": [
                                            {
                                                "name": "refWallet",
                                                "type": "uint256",
                                                "value": {
                                                    "current": "2274649844074364181",
                                                    "prev": "2274645742508934494",
                                                    "typeTag": 1
                                                }
                                            },
                                            {
                                                "name": "allRoundRefIncome",
                                                "type": "uint256",
                                                "value": {
                                                    "current": "2274649844074364181",
                                                    "prev": "2274645742508934494",
                                                    "typeTag": 1
                                                }
                                            },
                                            {
                                                "name": "roundRefIncome",
                                                "type": "mapping(uint256 => uint256)",
                                                "value": {
                                                    "pairs": [
                                                        {
                                                            "key": "1",
                                                            "value": {
                                                                "current": "1938511587663426672",
                                                                "prev": "1938507486097996985",
                                                                "typeTag": 1
                                                            }
                                                        }
                                                    ],
                                                    "typeTag": 4
                                                }
                                            }
                                        ],
                                        "typeTag": 3
                                    }
                                },
                                {
                                    "key": "0x8888882056160e5ff4a0f26607d4a05bc506ca8c",
                                    "value": {
                                        "fields": [
                                            {
                                                "name": "totalSale",
                                                "type": "uint256",
                                                "value": {
                                                    "current": "121966231637213460",
                                                    "prev": "121945231622213460",
                                                    "typeTag": 1
                                                }
                                            }
                                        ],
                                        "typeTag": 3
                                    }
                                },
                                {
                                    "key": "0x96504e1f83e380984b1d4eccc0e8b9f0559b2ad2",
                                    "value": {
                                        "fields": [
                                            {
                                                "name": "refWallet",
                                                "type": "uint256",
                                                "value": {
                                                    "current": "27857898858784321064",
                                                    "prev": "27857873757203891378",
                                                    "typeTag": 1
                                                }
                                            },
                                            {
                                                "name": "allRoundRefIncome",
                                                "type": "uint256",
                                                "value": {
                                                    "current": "178415401064069828616",
                                                    "prev": "178415375962489398930",
                                                    "typeTag": 1
                                                }
                                            },
                                            {
                                                "name": "roundRefIncome",
                                                "type": "mapping(uint256 => uint256)",
                                                "value": {
                                                    "pairs": [
                                                        {
                                                            "key": "1",
                                                            "value": {
                                                                "current": "54509832052446720958",
                                                                "prev": "54509806950866291272",
                                                                "typeTag": 1
                                                            }
                                                        }
                                                    ],
                                                    "typeTag": 4
                                                }
                                            }
                                        ],
                                        "typeTag": 3
                                    }
                                },
                                {
                                    "key": "0xbf1a809beb1aa9eb68d93e14b253a6f2fc8721cb",
                                    "value": {
                                        "fields": [
                                            {
                                                "name": "refWallet",
                                                "type": "uint256",
                                                "value": {
                                                    "current": "69925533678123987",
                                                    "prev": "69859908631248987",
                                                    "typeTag": 1
                                                }
                                            },
                                            {
                                                "name": "allRoundRefIncome",
                                                "type": "uint256",
                                                "value": {
                                                    "current": "69925533678123987",
                                                    "prev": "69859908631248987",
                                                    "typeTag": 1
                                                }
                                            },
                                            {
                                                "name": "roundRefIncome",
                                                "type": "mapping(uint256 => uint256)",
                                                "value": {
                                                    "pairs": [
                                                        {
                                                            "key": "1",
                                                            "value": {
                                                                "current": "69925533678123987",
                                                                "prev": "69859908631248987",
                                                                "typeTag": 1
                                                            }
                                                        }
                                                    ],
                                                    "typeTag": 4
                                                }
                                            }
                                        ],
                                        "typeTag": 3
                                    }
                                },
                                {
                                    "key": "0xcb4cc721761d710c66b78658b081784fc1b43ea8",
                                    "value": {
                                        "fields": [
                                            {
                                                "name": "refWallet",
                                                "type": "uint256",
                                                "value": {
                                                    "current": "119939548285937013",
                                                    "prev": "119906735762499513",
                                                    "typeTag": 1
                                                }
                                            },
                                            {
                                                "name": "allRoundRefIncome",
                                                "type": "uint256",
                                                "value": {
                                                    "current": "119939548285937013",
                                                    "prev": "119906735762499513",
                                                    "typeTag": 1
                                                }
                                            },
                                            {
                                                "name": "roundRefIncome",
                                                "type": "mapping(uint256 => uint256)",
                                                "value": {
                                                    "pairs": [
                                                        {
                                                            "key": "1",
                                                            "value": {
                                                                "current": "119939548285937013",
                                                                "prev": "119906735762499513",
                                                                "typeTag": 1
                                                            }
                                                        }
                                                    ],
                                                    "typeTag": 4
                                                }
                                            }
                                        ],
                                        "typeTag": 3
                                    }
                                },
                                {
                                    "key": "0xdfabdc200a5d69a88a00fa27daa8013bc3967481",
                                    "value": {
                                        "fields": [
                                            {
                                                "name": "refWallet",
                                                "type": "uint256",
                                                "value": {
                                                    "current": "78905715296093505",
                                                    "prev": "78889309034374755",
                                                    "typeTag": 1
                                                }
                                            },
                                            {
                                                "name": "allRoundRefIncome",
                                                "type": "uint256",
                                                "value": {
                                                    "current": "78905715296093505",
                                                    "prev": "78889309034374755",
                                                    "typeTag": 1
                                                }
                                            },
                                            {
                                                "name": "roundRefIncome",
                                                "type": "mapping(uint256 => uint256)",
                                                "value": {
                                                    "pairs": [
                                                        {
                                                            "key": "1",
                                                            "value": {
                                                                "current": "78796696964843505",
                                                                "prev": "78780290703124755",
                                                                "typeTag": 1
                                                            }
                                                        }
                                                    ],
                                                    "typeTag": 4
                                                }
                                            }
                                        ],
                                        "typeTag": 3
                                    }
                                }
                            ],
                            "typeTag": 4
                        }
                    },
                    {
                        "name": "totalRefByRound",
                        "type": "mapping(uint256 => uint256)",
                        "value": {
                            "pairs": [
                                {
                                    "key": "1",
                                    "value": {
                                        "current": "84897475968608325765",
                                        "prev": "84895354967093325765",
                                        "typeTag": 1
                                    }
                                }
                            ],
                            "typeTag": 4
                        }
                    },
                    {
                        "name": "totalRefAllround",
                        "type": "uint256",
                        "value": {
                            "current": "210177178292745495990",
                            "prev": "210175057291230495990",
                            "typeTag": 1
                        }
                    }
                ]
            }
        ]
    }
}