{
    "balance_change": {
        "balanceChanges": [
            {
                "account": "0xce90a7949bb78892f159f428d0dc23a8e3584d75",
                "assets": [
                    {
                        "address": "0xb66a603f4cfe17e3d27b87a8bfcad319856518b8",
                        "amount": "1",
                        "iconUrl": "",
                        "isERC1155": true,
                        "isERC721": false,
                        "sign": true,
                        "tokenID": "52364229623920799842355426350685202868422325367115252705885209510677024079873",
                        "value": ""
                    }
                ]
            },
            {
                "account": "0x73c51a89f8764c6a34af19db9d8fccc5169f2b5d",
                "assets": [
                    {
                        "address": "0xb66a603f4cfe17e3d27b87a8bfcad319856518b8",
                        "amount": "1",
                        "iconUrl": "",
                        "isERC1155": true,
                        "isERC721": false,
                        "sign": false,
                        "tokenID": "52364229623920799842355426350685202868422325367115252705885209510677024079873",
                        "value": ""
                    }
                ]
            }
        ]
    },
    "profile": {
        "basic_info": {
            "baseFee": "19.400743588",
            "blockNumber": 14415516,
            "callData": "0xf242432a00000000000000000000000073c51a89f8764c6a34af19db9d8fccc5169f2b5d000000000000000000000000ce90a7949bb78892f159f428d0dc23a8e3584d7573c51a89f8764c6a34af19db9d8fccc5169f2b5d000000000000000000000001000000000000000000000000000000000000000000000000000000000000000100000000000000000000000000000000000000000000000000000000000000a00000000000000000000000000000000000000000000000000000000000000000",
            "debugEnable": true,
            "errorInfo": "",
            "eventCount": 1,
            "feeRecipient": "0x829bd824b016326a401d083b33d092293333a830",
            "formatValue": "0",
            "gasLimit": 65128,
            "gasPrice": "21.900743588",
            "gasUsed": 64616,
            "intTxnCount": 1,
            "internalRevert": false,
            "internalRevertMessage": "",
            "isContractCreation": false,
            "isFlashloan": false,
            "maxFee": "43.694135292",
            "nonce": 24,
            "overwritedBlockNumber": -1,
            "priorityFee": "2.5",
            "receiver": "0xb66a603f4cfe17e3d27b87a8bfcad319856518b8",
            "revertMessage": "",
            "sender": "0x73c51a89f8764c6a34af19db9d8fccc5169f2b5d",
            "simulationEnable": true,
            "sourceTxnHash": "0x01d571297b66568fcfabcf2939e13c9239766cbc3b911263a09da460033f78c5",
            "status": true,
            "timestamp": "2022-03-19T07:23:40Z",
            "transactionFee": "0.001415138447682208",
            "txnHash": "0x01d571297b66568fcfabcf2939e13c9239766cbc3b911263a09da460033f78c5",
            "txnIndex": 60,
            "type": 2,
            "value": "0"
        },
        "fund_flow": [
            {
                "amount": "1",
                "from": "0x73c51a89f8764c6a34af19db9d8fccc5169f2b5d",
                "id": 1,
                "isERC1155": true,
                "isERC721": false,
                "isReverted": false,
                "order": 1,
                "to": "0xce90a7949bb78892f159f428d0dc23a8e3584d75",
                "token": "0xb66a603f4cfe17e3d27b87a8bfcad319856518b8",
                "tokenID": "52364229623920799842355426350685202868422325367115252705885209510677024079873"
            }
        ],
        "token_infos": [
            {
                "address": "0xeeeeeeeeeeeeeeeeeeeeeeeeeeeeeeeeeeeeeeee",
                "decimals": 18
            },
            {
                "address": "0xc02aaa39b223fe8d0a0e5c4f27ead9083c756cc2",
                "decimals": 18
            }
        ]
    },
    "address_label": {
        "labels": [
            {
                "address": "0x0000000000000000000000000000000000000003",
                "label": "Precompiled"
            },
            {
                "address": "0x0000000000000000000000000000000000000004",
                "label": "Precompiled"
            },
            {
                "address": "0xeeeeeeeeeeeeeeeeeeeeeeeeeeeeeeeeeeeeeeee",
                "label": "Ether"
            },
            {
                "address": "0xb66a603f4cfe17e3d27b87a8bfcad319856518b8",
                "label": "Rarible: Asset Contract ERC1155"
            },
            {
                "address": "0xce90a7949bb78892f159f428d0dc23a8e3584d75",
                "label": "CozomoMedici"
            },
            {
                "address": "0x588da869464f8c8eafa264f5b446e6c9bd4543ac",
                "label": "ERC1155Rarible"
            },
            {
                "address": "0x0000000000000000000000000000000000000001",
                "label": "Precompiled"
            },
            {
                "address": "0x0000000000000000000000000000000000000002",
                "label": "Precompiled"
            }
        ]
    },
    "trace": {
        "accountLabels": null,
        "dataMap": {
            "-1": {
                "invocation": {
                    "address": "0x73c51a89f8764c6a34af19db9d8fccc5169f2b5d",
                    "callData": "",
                    "decodedMethod": null,
                    "errorInfo": "",
                    "fromAddress": "",
                    "gasUsed": 0,
                    "id": -1,
                    "methodDecoded": false,
                    "operation": "",
                    "output": "",
                    "revert": false,
                    "revertMessage": "",
                    "selector": "",
                    "status": false,
                    "value": ""
                },
                "nodeType": 0
            },
            "0": {
                "invocation": {
                    "address": "0xb66a603f4cfe17e3d27b87a8bfcad319856518b8",
                    "callData": "0x00000000000000000000000073c51a89f8764c6a34af19db9d8fccc5169f2b5d000000000000000000000000ce90a7949bb78892f159f428d0dc23a8e3584d7573c51a89f8764c6a34af19db9d8fccc5169f2b5d000000000000000000000001000000000000000000000000000000000000000000000000000000000000000100000000000000000000000000000000000000000000000000000000000000a00000000000000000000000000000000000000000000000000000000000000000",
                    "decodedMethod": {
                        "callParams": [
                            {
                                "name": "from",
                                "type": "address",
                                "value": "0x73c51a89f8764c6a34af19db9d8fccc5169f2b5d"
                            },
                            {
                                "name": "to",
                                "type": "address",
                                "value": "0xce90a7949bb78892f159f428d0dc23a8e3584d75"
                            },
                            {
                                "name": "id",
                                "type": "uint256",
                                "value": "52,364,229,623,920,799,842,355,426,350,685,202,868,422,325,367,115,252,705,885,209,510,677,024,079,873"
                            },
                            {
                                "name": "amount",
                                "type": "uint256",
                                "value": "1"
                            },
                            {
                                "name": "data",
                                "type": "bytes",
                                "value": "0x"
                            }
                        ],
                        "constructorArguments": "",
                        "name": "safeTransferFrom",
                        "returnParams": [],
                        "signature": "safeTransferFrom(address,address,uint256,uint256,bytes)"
                    },
                    "errorInfo": "",
                    "fromAddress": "0x73c51a89f8764c6a34af19db9d8fccc5169f2b5d",
                    "gasUsed": 64616,
                    "id": 0,
                    "methodDecoded": true,
                    "operation": "CALL",
                    "output": "",
                    "revert": false,
                    "revertMessage": "",
                    "selector": "0xf242432a",
                    "status": true,
                    "value": "0"
                },
                "nodeType": 0
            },
            "1": {
                "invocation": {
                    "address": "0x588da869464f8c8eafa264f5b446e6c9bd4543ac",
                    "callData": "0x00000000000000000000000073c51a89f8764c6a34af19db9d8fccc5169f2b5d000000000000000000000000ce90a7949bb78892f159f428d0dc23a8e3584d7573c51a89f8764c6a34af19db9d8fccc5169f2b5d000000000000000000000001000000000000000000000000000000000000000000000000000000000000000100000000000000000000000000000000000000000000000000000000000000a00000000000000000000000000000000000000000000000000000000000000000",
                    "decodedMethod": {
                        "callParams": [
                            {
                                "name": "from",
                                "type": "address",
                                "value": "0x73c51a89f8764c6a34af19db9d8fccc5169f2b5d"
                            },
                            {
                                "name": "to",
                                "type": "address",
                                "value": "0xce90a7949bb78892f159f428d0dc23a8e3584d75"
                            },
                            {
                                "name": "id",
                                "type": "uint256",
                                "value": "52,364,229,623,920,799,842,355,426,350,685,202,868,422,325,367,115,252,705,885,209,510,677,024,079,873"
                            },
                            {
                                "name": "amount",
                                "type": "uint256",
                                "value": "1"
                            },
                            {
                                "name": "data",
                                "type": "bytes",
                                "value": "0x"
                            }
                        ],
                        "constructorArguments": "",
                        "name": "safeTransferFrom",
                        "returnParams": [],
                        "signature": "safeTransferFrom(address,address,uint256,uint256,bytes)"
                    },
                    "errorInfo": "",
                    "fromAddress": "0xb66a603f4cfe17e3d27b87a8bfcad319856518b8",
                    "gasUsed": 34673,
                    "id": 1,
                    "methodDecoded": true,
                    "operation": "DELEGATECALL",
                    "output": "",
                    "revert": false,
                    "revertMessage": "",
                    "selector": "0xf242432a",
                    "status": true,
                    "value": "0"
                },
                "nodeType": 0
            },
            "2": {
                "event": {
                    "contract": "0xb66a603f4cfe17e3d27b87a8bfcad319856518b8",
                    "decodedLog": {
                        "name": "TransferSingle",
                        "params": [
                            {
                                "name": "operator",
                                "type": "address",
                                "value": "0x73c51a89f8764c6a34af19db9d8fccc5169f2b5d"
                            },
                            {
                                "name": "from",
                                "type": "address",
                                "value": "0x73c51a89f8764c6a34af19db9d8fccc5169f2b5d"
                            },
                            {
                                "name": "to",
                                "type": "address",
                                "value": "0xce90a7949bb78892f159f428d0dc23a8e3584d75"
                            },
                            {
                                "name": "id",
                                "type": "uint256",
                                "value": "52,364,229,623,920,799,842,355,426,350,685,202,868,422,325,367,115,252,705,885,209,510,677,024,079,873"
                            },
                            {
                                "name": "value",
                                "type": "uint256",
                                "value": "1"
                            }
                        ],
                        "signature": "TransferSingle(address,address,address,uint256,uint256)"
                    },
                    "id": 2,
                    "logData": "0x73c51a89f8764c6a34af19db9d8fccc5169f2b5d0000000000000000000000010000000000000000000000000000000000000000000000000000000000000001",
                    "logDecoded": true,
                    "operation": "EVENT",
                    "revert": false,
                    "status": true,
                    "topics": [
                        "0xc3d58168c5ae7397731d063d5bbf3d657854427343f4c083240f7aacaa2d0f62",
                        "0x00000000000000000000000073c51a89f8764c6a34af19db9d8fccc5169f2b5d",
                        "0x00000000000000000000000073c51a89f8764c6a34af19db9d8fccc5169f2b5d",
                        "0x000000000000000000000000ce90a7949bb78892f159f428d0dc23a8e3584d75"
                    ]
                },
                "nodeType": 1
            }
        },
        "gasFlame": [
            {
                "children": [
                    {
                        "children": [
                            {
                                "children": [],
                                "depth": 0,
                                "name": "Initial Gas",
                                "value": 22588
                            },
                            {
                                "children": [
                                    {
                                        "children": [],
                                        "depth": 1,
                                        "name": "safeTransferFrom",
                                        "value": 34673
                                    }
                                ],
                                "depth": 0,
                                "name": "Executed Gas",
                                "value": 42028
                            }
                        ],
                        "depth": -1,
                        "name": "Actual Gas Used",
                        "value": 64616
                    },
                    {
                        "children": [],
                        "depth": -1,
                        "name": "Refunded Gas",
                        "value": 0
                    }
                ],
                "depth": -2,
                "name": "Total Gas",
                "value": 64616
            }
        ],
        "isConfirmed": true,
        "mainTrace": [
            {
                "children": [
                    {
                        "children": [
                            {
                                "children": [
                                    {
                                        "children": [],
                                        "depth": 2,
                                        "id": 2,
                                        "order": 2
                                    }
                                ],
                                "depth": 1,
                                "id": 1,
                                "order": 1
                            }
                        ],
                        "depth": 0,
                        "id": 0,
                        "order": 0
                    }
                ],
                "depth": -1,
                "id": -1,
                "order": -1
            }
        ],
        "mainTraceNodeCount": 3,
        "parentIdMap": {
            "0": -1,
            "1": 0,
            "2": 1
        },
        "tidyTrace": [
            {
                "children": [
                    {
                        "children": [
                            {
                                "children": [
                                    {
                                        "children": [],
                                        "depth": 2,
                                        "id": 2,
                                        "order": 2
                                    }
                                ],
                                "depth": 1,
                                "id": 1,
                                "order": 1
                            }
                        ],
                        "depth": 0,
                        "id": 0,
                        "order": 0
                    }
                ],
                "depth": -1,
                "id": -1,
                "order": -1
            }
        ],
        "tidyTraceNodeCount": 3
    },
    "state_change": {
        "stateChanges": [
            {
                "address": "0xb66a603f4cfe17e3d27b87a8bfcad319856518b8",
                "erc": "ERC-1155",
                "slots": [
                    {
                        "current": "0x0000000000000000000000000000000000000000000000000000000000000026",
                        "key": "0x182d0e624f127e2175490f91f3e0630f8483e6d71eefe90776033253afc85963",
                        "prev": "0x0000000000000000000000000000000000000000000000000000000000000027"
                    },
                    {
                        "current": "0x0000000000000000000000000000000000000000000000000000000000000001",
                        "key": "0x3fd4211222aa9fd5fb75694b29a75a339e4b4e8a9b56bb7383fbcda8d263890f",
                        "prev": "0x0000000000000000000000000000000000000000000000000000000000000000"
                    }
                ],
                "storageVariables": [
                    {
                        "name": "_balances",
                        "type": "mapping(uint256 => mapping(address => uint256))",
                        "value": {
                            "pairs": [
                                {
                                    "key": "52364229623920799842355426350685202868422325367115252705885209510677024079873",
                                    "value": {
                                        "pairs": [
                                            {
                                                "key": "0x73c51a89f8764c6a34af19db9d8fccc5169f2b5d",
                                                "value": {
                                                    "current": "38",
                                                    "prev": "39",
                                                    "typeTag": 1
                                                }
                                            },
                                            {
                                                "key": "0xce90a7949bb78892f159f428d0dc23a8e3584d75",
                                                "value": {
                                                    "current": "1",
                                                    "prev": "0",
                                                    "typeTag": 1
                                                }
                                            }
                                        ],
                                        "typeTag": 4
                                    }
                                }
                            ],
                            "typeTag": 4
                        }
                    }
                ]
            }
        ]
    }
}