{
    "balance_change": {
        "balanceChanges": [
            {
                "account": "0x61fb217f6a9fde302751fd3d16f08f89c6049ca9",
                "assets": [
                    {
                        "address": "0x355a458d555151d3b27f94227960ade1504e526a",
                        "amount": "5",
                        "iconUrl": "",
                        "isERC1155": false,
                        "isERC721": false,
                        "sign": false,
                        "value": ""
                    }
                ]
            },
            {
                "account": "0xc73babd03b8b266514da705b859f2021252a060b",
                "assets": [
                    {
                        "address": "0x355a458d555151d3b27f94227960ade1504e526a",
                        "amount": "5",
                        "iconUrl": "",
                        "isERC1155": false,
                        "isERC721": false,
                        "sign": true,
                        "value": ""
                    }
                ]
            }
        ]
    },
    "profile": {
        "basic_info": {
            "baseFee": "",
            "blockNumber": 5338240,
            "callData": "0xa9059cbb000000000000000000000000c73babd03b8b266514da705b859f2021252a060b0000000000000000000000000000000000000000000000004563918244f40000",
            "debugEnable": true,
            "errorInfo": "",
            "eventCount": 1,
            "feeRecipient": "0xb2930b35844a230f00e51431acae96fe543a0347",
            "formatValue": "0",
            "gasLimit": 60000,
            "gasPrice": "3",
            "gasUsed": 53291,
            "intTxnCount": 0,
            "internalRevert": false,
            "internalRevertMessage": "",
            "isContractCreation": false,
            "isFlashloan": false,
            "maxFee": "",
            "nonce": 2557,
            "overwritedBlockNumber": -1,
            "priorityFee": "",
            "receiver": "0x355a458d555151d3b27f94227960ade1504e526a",
            "revertMessage": "",
            "sender": "0x61fb217f6a9fde302751fd3d16f08f89c6049ca9",
            "simulationEnable": true,
            "sourceTxnHash": "0x018b8c19081ca769f2e6756f0bffebb19aa4f40ed92ca8111352e346bd657024",
            "status": true,
            "timestamp": "2018-03-28T17:17:52Z",
            "transactionFee": "0.000159873",
            "txnHash": "0x018b8c19081ca769f2e6756f0bffebb19aa4f40ed92ca8111352e346bd657024",
            "txnIndex": 106,
            "type": 0,
            "value": "0"
        },
        "fund_flow": [
            {
                "amount": "5",
                "from": "0x61fb217f6a9fde302751fd3d16f08f89c6049ca9",
                "id": 1,
                "isERC1155": false,
                "isERC721": false,
                "isReverted": false,
                "order": 1,
                "to": "0xc73babd03b8b266514da705b859f2021252a060b",
                "token": "0x355a458d555151d3b27f94227960ade1504e526a"
            }
        ],
        "token_infos": [
            {
                "address": "0x355a458d555151d3b27f94227960ade1504e526a",
                "decimals": 18
            },
            {
                "address": "0xc02aaa39b223fe8d0a0e5c4f27ead9083c756cc2",
                "decimals": 18
            },
            {
                "address": "0xeeeeeeeeeeeeeeeeeeeeeeeeeeeeeeeeeeeeeeee",
                "decimals": 18
            }
        ]
    },
    "address_label": {
        "labels": [
            {
                "address": "0xeeeeeeeeeeeeeeeeeeeeeeeeeeeeeeeeeeeeeeee",
                "label": "Ether"
            },
            {
                "address": "0x355a458d555151d3b27f94227960ade1504e526a",
                "label": "StockChain: SCC Token"
            },
            {
                "address": "0x0000000000000000000000000000000000000001",
                "label": "Precompiled"
            },
            {
                "address": "0x0000000000000000000000000000000000000002",
                "label": "Precompiled"
            },
            {
                "address": "0x0000000000000000000000000000000000000003",
                "label": "Precompiled"
            },
            {
                "address": "0x0000000000000000000000000000000000000004",
                "label": "Precompiled"
            }
        ]
    },
    "trace": {
        "accountLabels": null,
        "dataMap": {
            "-1": {
                "invocation": {
                    "address": "0x61fb217f6a9fde302751fd3d16f08f89c6049ca9",
                    "callData": "",
                    "decodedMethod": null,
                    "errorInfo": "",
                    "fromAddress": "",
                    "gasUsed": 0,
                    "id": -1,
                    "methodDecoded": false,
                    "operation": "",
                    "output": "",
                    "revert": false,
                    "revertMessage": "",
                    "selector": "",
                    "status": false,
                    "value": ""
                },
                "nodeType": 0
            },
            "0": {
                "invocation": {
                    "address": "0x355a458d555151d3b27f94227960ade1504e526a",
                    "callData": "0x000000000000000000000000c73babd03b8b266514da705b859f2021252a060b0000000000000000000000000000000000000000000000004563918244f40000",
                    "decodedMethod": {
                        "callParams": [
                            {
                                "name": "_to",
                                "type": "address",
                                "value": "0xc73babd03b8b266514da705b859f2021252a060b"
                            },
                            {
                                "decimalAvailable": true,
                                "name": "_value",
                                "type": "uint256",
                                "value": "5,000,000,000,000,000,000"
                            }
                        ],
                        "constructorArguments": "",
                        "name": "transfer",
                        "returnParams": [],
                        "signature": "transfer(address,uint256)"
                    },
                    "errorInfo": "",
                    "fromAddress": "0x61fb217f6a9fde302751fd3d16f08f89c6049ca9",
                    "gasUsed": 53291,
                    "id": 0,
                    "methodDecoded": true,
                    "operation": "CALL",
                    "output": "",
                    "revert": false,
                    "revertMessage": "",
                    "selector": "0xa9059cbb",
                    "status": true,
                    "value": "0"
                },
                "nodeType": 0
            },
            "1": {
                "event": {
                    "contract": "0x355a458d555151d3b27f94227960ade1504e526a",
                    "decodedLog": {
                        "name": "Transfer",
                        "params": [
                            {
                                "name": "from",
                                "type": "address",
                                "value": "0x61fb217f6a9fde302751fd3d16f08f89c6049ca9"
                            },
                            {
                                "name": "to",
                                "type": "address",
                                "value": "0xc73babd03b8b266514da705b859f2021252a060b"
                            },
                            {
                                "decimalAvailable": true,
                                "name": "value",
                                "type": "uint256",
                                "value": "5,000,000,000,000,000,000"
                            }
                        ],
                        "signature": "Transfer(address,address,uint256)"
                    },
                    "id": 1,
                    "logData": "0x0000000000000000000000000000000000000000000000004563918244f40000",
                    "logDecoded": true,
                    "operation": "EVENT",
                    "revert": false,
                    "status": true,
                    "topics": [
                        "0xddf252ad1be2c89b69c2b068fc378daa952ba7f163c4a11628f55a4df523b3ef",
                        "0x00000000000000000000000061fb217f6a9fde302751fd3d16f08f89c6049ca9",
                        "0x000000000000000000000000c73babd03b8b266514da705b859f2021252a060b"
                    ]
                },
                "nodeType": 1
            }
        },
        "gasFlame": [
            {
                "children": [
                    {
                        "children": [
                            {
                                "children": [],
                                "depth": 0,
                                "name": "Initial Gas",
                                "value": 23192
                            },
                            {
                                "children": [],
                                "depth": 0,
                                "name": "Executed Gas",
                                "value": 30099
                            }
                        ],
                        "depth": -1,
                        "name": "Actual Gas Used",
                        "value": 53291
                    },
                    {
                        "children": [],
                        "depth": -1,
                        "name": "Refunded Gas",
                        "value": 0
                    }
                ],
                "depth": -2,
                "name": "Total Gas",
                "value": 53291
            }
        ],
        "isConfirmed": true,
        "mainTrace": [
            {
                "children": [
                    {
                        "children": [
                            {
                                "children": [],
                                "depth": 1,
                                "id": 1,
                                "order": 1
                            }
                        ],
                        "depth": 0,
                        "id": 0,
                        "order": 0
                    }
                ],
                "depth": -1,
                "id": -1,
                "order": -1
            }
        ],
        "mainTraceNodeCount": 2,
        "parentIdMap": {
            "0": -1,
            "1": 0
        },
        "tidyTrace": [
            {
                "children": [
                    {
                        "children": [
                            {
                                "children": [],
                                "depth": 1,
                                "id": 1,
                                "order": 1
                            }
                        ],
                        "depth": 0,
                        "id": 0,
                        "order": 0
                    }
                ],
                "depth": -1,
                "id": -1,
                "order": -1
            }
        ],
        "tidyTraceNodeCount": 2
    },
    "state_change": {
        "stateChanges": [
            {
                "address": "0x355a458d555151d3b27f94227960ade1504e526a",
                "erc": "",
                "slots": [
                    {
                        "current": "0x000000000000000000000000000000000000000000000097846abb7490cc0000",
                        "key": "0xdc849d03278ab755a274218f410a74bebd2136402ec99d101cb5bebbfd09c458",
                        "prev": "0x000000000000000000000000000000000000000000000097c9ce4cf6d5c00000"
                    },
                    {
                        "current": "0x0000000000000000000000000000000000000000000000004563918244f40000",
                        "key": "0x2856d66298f34074666740feec9daf4f7d5557c20bf1cb2c1d569cd132fca32e",
                        "prev": "0x0000000000000000000000000000000000000000000000000000000000000000"
                    }
                ],
                "storageVariables": [
                    {
                        "name": "balanceOf",
                        "type": "mapping(address => uint256)",
                        "value": {
                            "pairs": [
                                {
                                    "key": "0x61fb217f6a9fde302751fd3d16f08f89c6049ca9",
                                    "value": {
                                        "current": "2795000000000000000000",
                                        "prev": "2800000000000000000000",
                                        "typeTag": 1
                                    }
                                },
                                {
                                    "key": "0xc73babd03b8b266514da705b859f2021252a060b",
                                    "value": {
                                        "current": "5000000000000000000",
                                        "prev": "0",
                                        "typeTag": 1
                                    }
                                }
                            ],
                            "typeTag": 4
                        }
                    }
                ]
            }
        ]
    }
}