{
    "balance_change": {
        "balanceChanges": [
            {
                "account": "0x03c24d6910e612ca0c2933b798e26f09223ec13f",
                "assets": [
                    {
                        "address": "0xeeeeeeeeeeeeeeeeeeeeeeeeeeeeeeeeeeeeeeee",
                        "amount": "0.02",
                        "iconUrl": "https://assets.blocksec.com/image/1663669189317-3.png",
                        "isERC1155": false,
                        "isERC721": false,
                        "sign": false,
                        "value": "31.404977514312527091"
                    },
                    {
                        "address": "0x40a3ff5971822ad4c1529a7157f8e2c445b2494f",
                        "amount": "1",
                        "iconUrl": "",
                        "isERC1155": false,
                        "isERC721": true,
                        "sign": true,
                        "tokenID": "16657",
                        "value": ""
                    },
                    {
                        "address": "0x40a3ff5971822ad4c1529a7157f8e2c445b2494f",
                        "amount": "1",
                        "iconUrl": "",
                        "isERC1155": false,
                        "isERC721": true,
                        "sign": true,
                        "tokenID": "16658",
                        "value": ""
                    },
                    {
                        "address": "0x40a3ff5971822ad4c1529a7157f8e2c445b2494f",
                        "amount": "1",
                        "iconUrl": "",
                        "isERC1155": false,
                        "isERC721": true,
                        "sign": true,
                        "tokenID": "16659",
                        "value": ""
                    },
                    {
                        "address": "0x40a3ff5971822ad4c1529a7157f8e2c445b2494f",
                        "amount": "1",
                        "iconUrl": "",
                        "isERC1155": false,
                        "isERC721": true,
                        "sign": true,
                        "tokenID": "16660",
                        "value": ""
                    },
                    {
                        "address": "0x40a3ff5971822ad4c1529a7157f8e2c445b2494f",
                        "amount": "1",
                        "iconUrl": "",
                        "isERC1155": false,
                        "isERC721": true,
                        "sign": true,
                        "tokenID": "16661",
                        "value": ""
                    }
                ]
            },
            {
                "account": "0x40a3ff5971822ad4c1529a7157f8e2c445b2494f",
                "assets": [
                    {
                        "address": "0xeeeeeeeeeeeeeeeeeeeeeeeeeeeeeeeeeeeeeeee",
                        "amount": "0.02",
                        "iconUrl": "https://assets.blocksec.com/image/1663669189317-3.png",
                        "isERC1155": false,
                        "isERC721": false,
                        "sign": true,
                        "value": "31.404977514312527091"
                    }
                ]
            },
            {
                "account": "0x0000000000000000000000000000000000000000",
                "assets": [
                    {
                        "address": "0x40a3ff5971822ad4c1529a7157f8e2c445b2494f",
                        "amount": "1",
                        "iconUrl": "",
                        "isERC1155": false,
                        "isERC721": true,
                        "sign": false,
                        "tokenID": "16661",
                        "value": ""
                    },
                    {
                        "address": "0x40a3ff5971822ad4c1529a7157f8e2c445b2494f",
                        "amount": "1",
                        "iconUrl": "",
                        "isERC1155": false,
                        "isERC721": true,
                        "sign": false,
                        "tokenID": "16657",
                        "value": ""
                    },
                    {
                        "address": "0x40a3ff5971822ad4c1529a7157f8e2c445b2494f",
                        "amount": "1",
                        "iconUrl": "",
                        "isERC1155": false,
                        "isERC721": true,
                        "sign": false,
                        "tokenID": "16658",
                        "value": ""
                    },
                    {
                        "address": "0x40a3ff5971822ad4c1529a7157f8e2c445b2494f",
                        "amount": "1",
                        "iconUrl": "",
                        "isERC1155": false,
                        "isERC721": true,
                        "sign": false,
                        "tokenID": "16659",
                        "value": ""
                    },
                    {
                        "address": "0x40a3ff5971822ad4c1529a7157f8e2c445b2494f",
                        "amount": "1",
                        "iconUrl": "",
                        "isERC1155": false,
                        "isERC721": true,
                        "sign": false,
                        "tokenID": "16660",
                        "value": ""
                    }
                ]
            }
        ]
    },
    "profile": {
        "basic_info": {
            "baseFee": "16.692311516",
            "blockNumber": 15868127,
            "callData": "0x7bc9200e00000000000000000000000000000000000000000000000000000000000000050000000000000000000000000000000000000000000000000000000000000040000000000000000000000000000000000000000000000000000000000000000b66d9ff1db9ad6c6a1af41d6159b9783a39f3c4829395523760bb07b268e3a4569e957f072eb13b5f42cd1648d2012b990e06f60ee177448b8fddb4f6465076800f7c1ea9e341edbe503daaf6b25b19c790dad988effad374a2f72efe99d57fc99346a4cd347fdcc9fe48599c931168625f711ece2a3e587e3741056e04e1c7513fc072d9d887d2fba6f5881b54728a7a24b7335570f161050457489246d6834336d90eebc5f2fecd6c7c8ce221419296fef005c1958aa5da2c1544de48a6eadf6b5cc8e68b5d6afea9af26bcd33dbb8d58839aa37f588b6999f52d53198fa56b97a297431b4c287541dbfd0f35c0c88c2518c7fe308ac568d949ff0daf67d7b6ac27c245ae1ffd7a968131e9c8628cd454918b0b3d9dcafcc8a24f225da3bc8f4407ff5a982920ede2f0b8f79952f17d08f3d7ad477b39fcf1a668537e7977a0ca809427cf0d713e72bc5a327182808bf97017ab6d3fa23953b2145f27bad180",
            "debugEnable": true,
            "errorInfo": "",
            "eventCount": 5,
            "feeRecipient": "0x9c0e21126a9f47f09ca966e58759c7cfe9449a5c",
            "formatValue": "0.02",
            "gasLimit": 654964,
            "gasPrice": "18.192311516",
            "gasUsed": 645307,
            "intTxnCount": 1,
            "internalRevert": false,
            "internalRevertMessage": "",
            "isContractCreation": false,
            "isFlashloan": false,
            "maxFee": "21.578194392",
            "nonce": 7,
            "overwritedBlockNumber": -1,
            "priorityFee": "1.5",
            "receiver": "0x40a3ff5971822ad4c1529a7157f8e2c445b2494f",
            "revertMessage": "",
            "sender": "0x03c24d6910e612ca0c2933b798e26f09223ec13f",
            "simulationEnable": true,
            "sourceTxnHash": "0x02805b4d305828d71bc4babfe99a9c3b80c1c2dac1e12a36ff7d9b63c6cfed43",
            "status": true,
            "timestamp": "2022-10-31T12:45:23Z",
            "transactionFee": "0.011739625967455412",
            "txnHash": "0x02805b4d305828d71bc4babfe99a9c3b80c1c2dac1e12a36ff7d9b63c6cfed43",
            "txnIndex": 45,
            "type": 2,
            "value": "20000000000000000"
        },
        "fund_flow": [
            {
                "amount": "0.02",
                "from": "0x03c24d6910e612ca0c2933b798e26f09223ec13f",
                "id": 1,
                "isERC1155": false,
                "isERC721": false,
                "isReverted": false,
                "order": 1,
                "to": "0x40a3ff5971822ad4c1529a7157f8e2c445b2494f",
                "token": "0xeeeeeeeeeeeeeeeeeeeeeeeeeeeeeeeeeeeeeeee"
            },
            {
                "amount": "1",
                "from": "0x0000000000000000000000000000000000000000",
                "id": 2,
                "isERC1155": false,
                "isERC721": true,
                "isReverted": false,
                "order": 2,
                "to": "0x03c24d6910e612ca0c2933b798e26f09223ec13f",
                "token": "0x40a3ff5971822ad4c1529a7157f8e2c445b2494f",
                "tokenID": "16657"
            },
            {
                "amount": "1",
                "from": "0x0000000000000000000000000000000000000000",
                "id": 3,
                "isERC1155": false,
                "isERC721": true,
                "isReverted": false,
                "order": 3,
                "to": "0x03c24d6910e612ca0c2933b798e26f09223ec13f",
                "token": "0x40a3ff5971822ad4c1529a7157f8e2c445b2494f",
                "tokenID": "16658"
            },
            {
                "amount": "1",
                "from": "0x0000000000000000000000000000000000000000",
                "id": 4,
                "isERC1155": false,
                "isERC721": true,
                "isReverted": false,
                "order": 4,
                "to": "0x03c24d6910e612ca0c2933b798e26f09223ec13f",
                "token": "0x40a3ff5971822ad4c1529a7157f8e2c445b2494f",
                "tokenID": "16659"
            },
            {
                "amount": "1",
                "from": "0x0000000000000000000000000000000000000000",
                "id": 5,
                "isERC1155": false,
                "isERC721": true,
                "isReverted": false,
                "order": 5,
                "to": "0x03c24d6910e612ca0c2933b798e26f09223ec13f",
                "token": "0x40a3ff5971822ad4c1529a7157f8e2c445b2494f",
                "tokenID": "16660"
            },
            {
                "amount": "1",
                "from": "0x0000000000000000000000000000000000000000",
                "id": 6,
                "isERC1155": false,
                "isERC721": true,
                "isReverted": false,
                "order": 6,
                "to": "0x03c24d6910e612ca0c2933b798e26f09223ec13f",
                "token": "0x40a3ff5971822ad4c1529a7157f8e2c445b2494f",
                "tokenID": "16661"
            }
        ],
        "token_infos": [
            {
                "address": "0xc02aaa39b223fe8d0a0e5c4f27ead9083c756cc2",
                "decimals": 18
            },
            {
                "address": "0xeeeeeeeeeeeeeeeeeeeeeeeeeeeeeeeeeeeeeeee",
                "decimals": 18
            }
        ]
    },
    "address_label": {
        "labels": [
            {
                "address": "0x2514743ff0586b55728d465b46f83426acd9564e",
                "label": "EPASSVer1"
            },
            {
                "address": "0x0000000000000000000000000000000000000001",
                "label": "Precompiled"
            },
            {
                "address": "0x0000000000000000000000000000000000000002",
                "label": "Precompiled"
            },
            {
                "address": "0x0000000000000000000000000000000000000003",
                "label": "Precompiled"
            },
            {
                "address": "0x0000000000000000000000000000000000000004",
                "label": "Precompiled"
            },
            {
                "address": "0xeeeeeeeeeeeeeeeeeeeeeeeeeeeeeeeeeeeeeeee",
                "label": "Ether"
            },
            {
                "address": "0x40a3ff5971822ad4c1529a7157f8e2c445b2494f",
                "label": "EDUCATION PASSPORT NFT (EPASS)"
            }
        ]
    },
    "trace": {
        "accountLabels": null,
        "dataMap": {
            "-1": {
                "invocation": {
                    "address": "0x03c24d6910e612ca0c2933b798e26f09223ec13f",
                    "callData": "",
                    "decodedMethod": null,
                    "errorInfo": "",
                    "fromAddress": "",
                    "gasUsed": 0,
                    "id": -1,
                    "methodDecoded": false,
                    "operation": "",
                    "output": "",
                    "revert": false,
                    "revertMessage": "",
                    "selector": "",
                    "status": false,
                    "value": ""
                },
                "nodeType": 0
            },
            "0": {
                "invocation": {
                    "address": "0x40a3ff5971822ad4c1529a7157f8e2c445b2494f",
                    "callData": "0x00000000000000000000000000000000000000000000000000000000000000050000000000000000000000000000000000000000000000000000000000000040000000000000000000000000000000000000000000000000000000000000000b66d9ff1db9ad6c6a1af41d6159b9783a39f3c4829395523760bb07b268e3a4569e957f072eb13b5f42cd1648d2012b990e06f60ee177448b8fddb4f6465076800f7c1ea9e341edbe503daaf6b25b19c790dad988effad374a2f72efe99d57fc99346a4cd347fdcc9fe48599c931168625f711ece2a3e587e3741056e04e1c7513fc072d9d887d2fba6f5881b54728a7a24b7335570f161050457489246d6834336d90eebc5f2fecd6c7c8ce221419296fef005c1958aa5da2c1544de48a6eadf6b5cc8e68b5d6afea9af26bcd33dbb8d58839aa37f588b6999f52d53198fa56b97a297431b4c287541dbfd0f35c0c88c2518c7fe308ac568d949ff0daf67d7b6ac27c245ae1ffd7a968131e9c8628cd454918b0b3d9dcafcc8a24f225da3bc8f4407ff5a982920ede2f0b8f79952f17d08f3d7ad477b39fcf1a668537e7977a0ca809427cf0d713e72bc5a327182808bf97017ab6d3fa23953b2145f27bad180",
                    "decodedMethod": {
                        "callParams": [
                            {
                                "name": "quantity",
                                "type": "uint256",
                                "value": "5"
                            },
                            {
                                "name": "merkleProof",
                                "type": "bytes32[]",
                                "value": [
                                    "0x66d9ff1db9ad6c6a1af41d6159b9783a39f3c4829395523760bb07b268e3a456",
                                    "0x9e957f072eb13b5f42cd1648d2012b990e06f60ee177448b8fddb4f646507680",
                                    "0x0f7c1ea9e341edbe503daaf6b25b19c790dad988effad374a2f72efe99d57fc9",
                                    "0x9346a4cd347fdcc9fe48599c931168625f711ece2a3e587e3741056e04e1c751",
                                    "0x3fc072d9d887d2fba6f5881b54728a7a24b7335570f161050457489246d68343",
                                    "0x36d90eebc5f2fecd6c7c8ce221419296fef005c1958aa5da2c1544de48a6eadf",
                                    "0x6b5cc8e68b5d6afea9af26bcd33dbb8d58839aa37f588b6999f52d53198fa56b",
                                    "0x97a297431b4c287541dbfd0f35c0c88c2518c7fe308ac568d949ff0daf67d7b6",
                                    "0xac27c245ae1ffd7a968131e9c8628cd454918b0b3d9dcafcc8a24f225da3bc8f",
                                    "0x4407ff5a982920ede2f0b8f79952f17d08f3d7ad477b39fcf1a668537e7977a0",
                                    "0xca809427cf0d713e72bc5a327182808bf97017ab6d3fa23953b2145f27bad180"
                                ]
                            }
                        ],
                        "constructorArguments": "",
                        "name": "allowlistMint",
                        "returnParams": [],
                        "signature": "allowlistMint(uint256,bytes32[])"
                    },
                    "errorInfo": "",
                    "fromAddress": "0x03c24d6910e612ca0c2933b798e26f09223ec13f",
                    "gasUsed": 645307,
                    "id": 0,
                    "methodDecoded": true,
                    "operation": "CALL",
                    "output": "",
                    "revert": false,
                    "revertMessage": "",
                    "selector": "0x7bc9200e",
                    "status": true,
                    "value": "0.02"
                },
                "nodeType": 0
            },
            "1": {
                "invocation": {
                    "address": "0x2514743ff0586b55728d465b46f83426acd9564e",
                    "callData": "0x00000000000000000000000000000000000000000000000000000000000000050000000000000000000000000000000000000000000000000000000000000040000000000000000000000000000000000000000000000000000000000000000b66d9ff1db9ad6c6a1af41d6159b9783a39f3c4829395523760bb07b268e3a4569e957f072eb13b5f42cd1648d2012b990e06f60ee177448b8fddb4f6465076800f7c1ea9e341edbe503daaf6b25b19c790dad988effad374a2f72efe99d57fc99346a4cd347fdcc9fe48599c931168625f711ece2a3e587e3741056e04e1c7513fc072d9d887d2fba6f5881b54728a7a24b7335570f161050457489246d6834336d90eebc5f2fecd6c7c8ce221419296fef005c1958aa5da2c1544de48a6eadf6b5cc8e68b5d6afea9af26bcd33dbb8d58839aa37f588b6999f52d53198fa56b97a297431b4c287541dbfd0f35c0c88c2518c7fe308ac568d949ff0daf67d7b6ac27c245ae1ffd7a968131e9c8628cd454918b0b3d9dcafcc8a24f225da3bc8f4407ff5a982920ede2f0b8f79952f17d08f3d7ad477b39fcf1a668537e7977a0ca809427cf0d713e72bc5a327182808bf97017ab6d3fa23953b2145f27bad180",
                    "decodedMethod": {
                        "callParams": [
                            {
                                "name": "quantity",
                                "type": "uint256",
                                "value": "5"
                            },
                            {
                                "name": "merkleProof",
                                "type": "bytes32[]",
                                "value": [
                                    "0x66d9ff1db9ad6c6a1af41d6159b9783a39f3c4829395523760bb07b268e3a456",
                                    "0x9e957f072eb13b5f42cd1648d2012b990e06f60ee177448b8fddb4f646507680",
                                    "0x0f7c1ea9e341edbe503daaf6b25b19c790dad988effad374a2f72efe99d57fc9",
                                    "0x9346a4cd347fdcc9fe48599c931168625f711ece2a3e587e3741056e04e1c751",
                                    "0x3fc072d9d887d2fba6f5881b54728a7a24b7335570f161050457489246d68343",
                                    "0x36d90eebc5f2fecd6c7c8ce221419296fef005c1958aa5da2c1544de48a6eadf",
                                    "0x6b5cc8e68b5d6afea9af26bcd33dbb8d58839aa37f588b6999f52d53198fa56b",
                                    "0x97a297431b4c287541dbfd0f35c0c88c2518c7fe308ac568d949ff0daf67d7b6",
                                    "0xac27c245ae1ffd7a968131e9c8628cd454918b0b3d9dcafcc8a24f225da3bc8f",
                                    "0x4407ff5a982920ede2f0b8f79952f17d08f3d7ad477b39fcf1a668537e7977a0",
                                    "0xca809427cf0d713e72bc5a327182808bf97017ab6d3fa23953b2145f27bad180"
                                ]
                            }
                        ],
                        "constructorArguments": "",
                        "name": "allowlistMint",
                        "returnParams": [],
                        "signature": "allowlistMint(uint256,bytes32[])"
                    },
                    "errorInfo": "",
                    "fromAddress": "0x40a3ff5971822ad4c1529a7157f8e2c445b2494f",
                    "gasUsed": 610800,
                    "id": 1,
                    "methodDecoded": true,
                    "operation": "DELEGATECALL",
                    "output": "",
                    "revert": false,
                    "revertMessage": "",
                    "selector": "0x7bc9200e",
                    "status": true,
                    "value": "0.02"
                },
                "nodeType": 0
            },
            "2": {
                "event": {
                    "contract": "0x40a3ff5971822ad4c1529a7157f8e2c445b2494f",
                    "decodedLog": {
                        "name": "Transfer",
                        "params": [
                            {
                                "name": "from",
                                "type": "address",
                                "value": "0x0000000000000000000000000000000000000000"
                            },
                            {
                                "name": "to",
                                "type": "address",
                                "value": "0x03c24d6910e612ca0c2933b798e26f09223ec13f"
                            },
                            {
                                "decimalAvailable": true,
                                "name": "tokenId",
                                "type": "uint256",
                                "value": "16,657"
                            }
                        ],
                        "signature": "Transfer(address,address,uint256)"
                    },
                    "id": 2,
                    "logData": "0x",
                    "logDecoded": true,
                    "operation": "EVENT",
                    "revert": false,
                    "status": true,
                    "topics": [
                        "0xddf252ad1be2c89b69c2b068fc378daa952ba7f163c4a11628f55a4df523b3ef",
                        "0x0000000000000000000000000000000000000000000000000000000000000000",
                        "0x00000000000000000000000003c24d6910e612ca0c2933b798e26f09223ec13f",
                        "0x0000000000000000000000000000000000000000000000000000000000004111"
                    ]
                },
                "nodeType": 1
            },
            "3": {
                "event": {
                    "contract": "0x40a3ff5971822ad4c1529a7157f8e2c445b2494f",
                    "decodedLog": {
                        "name": "Transfer",
                        "params": [
                            {
                                "name": "from",
                                "type": "address",
                                "value": "0x0000000000000000000000000000000000000000"
                            },
                            {
                                "name": "to",
                                "type": "address",
                                "value": "0x03c24d6910e612ca0c2933b798e26f09223ec13f"
                            },
                            {
                                "decimalAvailable": true,
                                "name": "tokenId",
                                "type": "uint256",
                                "value": "16,658"
                            }
                        ],
                        "signature": "Transfer(address,address,uint256)"
                    },
                    "id": 3,
                    "logData": "0x",
                    "logDecoded": true,
                    "operation": "EVENT",
                    "revert": false,
                    "status": true,
                    "topics": [
                        "0xddf252ad1be2c89b69c2b068fc378daa952ba7f163c4a11628f55a4df523b3ef",
                        "0x0000000000000000000000000000000000000000000000000000000000000000",
                        "0x00000000000000000000000003c24d6910e612ca0c2933b798e26f09223ec13f",
                        "0x0000000000000000000000000000000000000000000000000000000000004112"
                    ]
                },
                "nodeType": 1
            },
            "4": {
                "event": {
                    "contract": "0x40a3ff5971822ad4c1529a7157f8e2c445b2494f",
                    "decodedLog": {
                        "name": "Transfer",
                        "params": [
                            {
                                "name": "from",
                                "type": "address",
                                "value": "0x0000000000000000000000000000000000000000"
                            },
                            {
                                "name": "to",
                                "type": "address",
                                "value": "0x03c24d6910e612ca0c2933b798e26f09223ec13f"
                            },
                            {
                                "decimalAvailable": true,
                                "name": "tokenId",
                                "type": "uint256",
                                "value": "16,659"
                            }
                        ],
                        "signature": "Transfer(address,address,uint256)"
                    },
                    "id": 4,
                    "logData": "0x",
                    "logDecoded": true,
                    "operation": "EVENT",
                    "revert": false,
                    "status": true,
                    "topics": [
                        "0xddf252ad1be2c89b69c2b068fc378daa952ba7f163c4a11628f55a4df523b3ef",
                        "0x0000000000000000000000000000000000000000000000000000000000000000",
                        "0x00000000000000000000000003c24d6910e612ca0c2933b798e26f09223ec13f",
                        "0x0000000000000000000000000000000000000000000000000000000000004113"
                    ]
                },
                "nodeType": 1
            },
            "5": {
                "event": {
                    "contract": "0x40a3ff5971822ad4c1529a7157f8e2c445b2494f",
                    "decodedLog": {
                        "name": "Transfer",
                        "params": [
                            {
                                "name": "from",
                                "type": "address",
                                "value": "0x0000000000000000000000000000000000000000"
                            },
                            {
                                "name": "to",
                                "type": "address",
                                "value": "0x03c24d6910e612ca0c2933b798e26f09223ec13f"
                            },
                            {
                                "decimalAvailable": true,
                                "name": "tokenId",
                                "type": "uint256",
                                "value": "16,660"
                            }
                        ],
                        "signature": "Transfer(address,address,uint256)"
                    },
                    "id": 5,
                    "logData": "0x",
                    "logDecoded": true,
                    "operation": "EVENT",
                    "revert": false,
                    "status": true,
                    "topics": [
                        "0xddf252ad1be2c89b69c2b068fc378daa952ba7f163c4a11628f55a4df523b3ef",
                        "0x0000000000000000000000000000000000000000000000000000000000000000",
                        "0x00000000000000000000000003c24d6910e612ca0c2933b798e26f09223ec13f",
                        "0x0000000000000000000000000000000000000000000000000000000000004114"
                    ]
                },
                "nodeType": 1
            },
            "6": {
                "event": {
                    "contract": "0x40a3ff5971822ad4c1529a7157f8e2c445b2494f",
                    "decodedLog": {
                        "name": "Transfer",
                        "params": [
                            {
                                "name": "from",
                                "type": "address",
                                "value": "0x0000000000000000000000000000000000000000"
                            },
                            {
                                "name": "to",
                                "type": "address",
                                "value": "0x03c24d6910e612ca0c2933b798e26f09223ec13f"
                            },
                            {
                                "decimalAvailable": true,
                                "name": "tokenId",
                                "type": "uint256",
                                "value": "16,661"
                            }
                        ],
                        "signature": "Transfer(address,address,uint256)"
                    },
                    "id": 6,
                    "logData": "0x",
                    "logDecoded": true,
                    "operation": "EVENT",
                    "revert": false,
                    "status": true,
                    "topics": [
                        "0xddf252ad1be2c89b69c2b068fc378daa952ba7f163c4a11628f55a4df523b3ef",
                        "0x0000000000000000000000000000000000000000000000000000000000000000",
                        "0x00000000000000000000000003c24d6910e612ca0c2933b798e26f09223ec13f",
                        "0x0000000000000000000000000000000000000000000000000000000000004115"
                    ]
                },
                "nodeType": 1
            }
        },
        "gasFlame": [
            {
                "children": [
                    {
                        "children": [
                            {
                                "children": [],
                                "depth": 0,
                                "name": "Initial Gas",
                                "value": 27116
                            },
                            {
                                "children": [
                                    {
                                        "children": [],
                                        "depth": 1,
                                        "name": "allowlistMint",
                                        "value": 610800
                                    }
                                ],
                                "depth": 0,
                                "name": "Executed Gas",
                                "value": 618191
                            }
                        ],
                        "depth": -1,
                        "name": "Actual Gas Used",
                        "value": 645307
                    },
                    {
                        "children": [],
                        "depth": -1,
                        "name": "Refunded Gas",
                        "value": 0
                    }
                ],
                "depth": -2,
                "name": "Total Gas",
                "value": 645307
            }
        ],
        "isConfirmed": true,
        "mainTrace": [
            {
                "children": [
                    {
                        "children": [
                            {
                                "children": [
                                    {
                                        "children": [],
                                        "depth": 2,
                                        "id": 2,
                                        "order": 2
                                    },
                                    {
                                        "children": [],
                                        "depth": 2,
                                        "id": 3,
                                        "order": 3
                                    },
                                    {
                                        "children": [],
                                        "depth": 2,
                                        "id": 4,
                                        "order": 4
                                    },
                                    {
                                        "children": [],
                                        "depth": 2,
                                        "id": 5,
                                        "order": 5
                                    },
                                    {
                                        "children": [],
                                        "depth": 2,
                                        "id": 6,
                                        "order": 6
                                    }
                                ],
                                "depth": 1,
                                "id": 1,
                                "order": 1
                            }
                        ],
                        "depth": 0,
                        "id": 0,
                        "order": 0
                    }
                ],
                "depth": -1,
                "id": -1,
                "order": -1
            }
        ],
        "mainTraceNodeCount": 7,
        "parentIdMap": {
            "0": -1,
            "1": 0,
            "2": 1,
            "3": 1,
            "4": 1,
            "5": 1,
            "6": 1
        },
        "tidyTrace": [
            {
                "children": [
                    {
                        "children": [
                            {
                                "children": [
                                    {
                                        "children": [],
                                        "depth": 2,
                                        "id": 2,
                                        "order": 2
                                    },
                                    {
                                        "children": [],
                                        "depth": 2,
                                        "id": 3,
                                        "order": 3
                                    },
                                    {
                                        "children": [],
                                        "depth": 2,
                                        "id": 4,
                                        "order": 4
                                    },
                                    {
                                        "children": [],
                                        "depth": 2,
                                        "id": 5,
                                        "order": 5
                                    },
                                    {
                                        "children": [],
                                        "depth": 2,
                                        "id": 6,
                                        "order": 6
                                    }
                                ],
                                "depth": 1,
                                "id": 1,
                                "order": 1
                            }
                        ],
                        "depth": 0,
                        "id": 0,
                        "order": 0
                    }
                ],
                "depth": -1,
                "id": -1,
                "order": -1
            }
        ],
        "tidyTraceNodeCount": 7
    },
    "state_change": {
        "stateChanges": [
            {
                "address": "0x40a3ff5971822ad4c1529a7157f8e2c445b2494f",
                "erc": "ERC-721",
                "slots": [
                    {
                        "current": "0x000000000000000000000000000000000000000000000000000000000000002e",
                        "key": "0x10223a19f24be537cad6186e7392407c6f46bd2a40d4210c7ba4e8a5708c2b41",
                        "prev": "0x0000000000000000000000000000000000000000000000000000000000000000"
                    },
                    {
                        "current": "0x00000000000000000000000003c24d6910e612ca0c2933b798e26f09223ec13f",
                        "key": "0x1bc267c5969bff2158c0f6e1bffd180d36cd10fd334ce442bcb23a0375043346",
                        "prev": "0x0000000000000000000000000000000000000000000000000000000000000000"
                    },
                    {
                        "current": "0x00000000000000000000000003c24d6910e612ca0c2933b798e26f09223ec13f",
                        "key": "0xdc9f63662b2b6e26f96bd43cfee2b0d9970e4ffc71770f688de2c280eef205d7",
                        "prev": "0x0000000000000000000000000000000000000000000000000000000000000000"
                    },
                    {
                        "current": "0x000000000000000000000000000000000000000000000000000000000000002d",
                        "key": "0x7699600ffda27c3674f314e3a50d53d16744bab730278b61a9a2362f8faafb61",
                        "prev": "0x0000000000000000000000000000000000000000000000000000000000000000"
                    },
                    {
                        "current": "0x000000000000000000000000000000000000000000000000000000000000002f",
                        "key": "0xd930cbba39bde8567c96707fd5a2bdfef3034a3259f5f3d5ab5f2c2ad794fe96",
                        "prev": "0x0000000000000000000000000000000000000000000000000000000000000000"
                    },
                    {
                        "current": "0x0000000000000000000000000000000000000000000000000000000000004115",
                        "key": "0x72a152ddfb8e864297c917af52ea6c1c68aead0fee1a62673fcc7e0c9497de14",
                        "prev": "0x0000000000000000000000000000000000000000000000000000000000000000"
                    },
                    {
                        "current": "0x0000000000000000000000000000000000000000000000000000000000004114",
                        "key": "0x72a152ddfb8e864297c917af52ea6c1c68aead0fee1a62673fcc7e0c9497de13",
                        "prev": "0x0000000000000000000000000000000000000000000000000000000000000000"
                    },
                    {
                        "current": "0x0000000000000000000000000000000000000000000000000000000000004115",
                        "key": "0x0000000000000000000000000000000000000000000000000000000000000099",
                        "prev": "0x0000000000000000000000000000000000000000000000000000000000004110"
                    },
                    {
                        "current": "0x00000000000000000000000003c24d6910e612ca0c2933b798e26f09223ec13f",
                        "key": "0x087bcbe880e01673f42636ef4976225d8b6b4613d631184a48d0da6c1a2cafff",
                        "prev": "0x0000000000000000000000000000000000000000000000000000000000000000"
                    },
                    {
                        "current": "0x0000000000000000000000000000000000000000000000000000000000000032",
                        "key": "0xcac1f11b3f6a881b0fabfc72c17d65ebc67c054fa4807f7d4fbadfc3e5116ec5",
                        "prev": "0x000000000000000000000000000000000000000000000000000000000000002d"
                    },
                    {
                        "current": "0x0000000000000000000000000000000000000000000000000000000000004111",
                        "key": "0xeb3a57a3399795df142564c2929df607807fdf9e9a152f2745d5ad6709586847",
                        "prev": "0x0000000000000000000000000000000000000000000000000000000000000000"
                    },
                    {
                        "current": "0x0000000000000000000000000000000000000000000000000000000000004113",
                        "key": "0x72a152ddfb8e864297c917af52ea6c1c68aead0fee1a62673fcc7e0c9497de12",
                        "prev": "0x0000000000000000000000000000000000000000000000000000000000000000"
                    },
                    {
                        "current": "0x0000000000000000000000000000000000000000000000000000000000004115",
                        "key": "0x0000000000000000000000000000000000000000000000000000000000000130",
                        "prev": "0x0000000000000000000000000000000000000000000000000000000000004110"
                    },
                    {
                        "current": "0x0000000000000000000000000000000000000000000000000000000000004112",
                        "key": "0x344f2b7796a485af7dc7d24cecc7809bb3c8e0a3423a58653ccdeb328e87439a",
                        "prev": "0x0000000000000000000000000000000000000000000000000000000000000000"
                    },
                    {
                        "current": "0x0000000000000000000000000000000000000000000000000000000000004112",
                        "key": "0x2d2b8a4d9b48642c7f0980a6d9b1ca722853913cf0204f532ac5c17c9567b85e",
                        "prev": "0x0000000000000000000000000000000000000000000000000000000000000000"
                    },
                    {
                        "current": "0x0000000000000000000000000000000000000000000000000000000000004114",
                        "key": "0xdce93c28d14bae226b4fb028055da49e12e57571c90b87f3f315f076feebba60",
                        "prev": "0x0000000000000000000000000000000000000000000000000000000000000000"
                    },
                    {
                        "current": "0x0000000000000000000000000000000000000000000000000000000000000031",
                        "key": "0x838fe8515df0e821bdd818ddb52da0a796f1ef08dc2450e9d797ab3cadc2daf0",
                        "prev": "0x0000000000000000000000000000000000000000000000000000000000000000"
                    },
                    {
                        "current": "0x0000000000000000000000000000000000000000000000000000000000004115",
                        "key": "0x1fdcc583b1ca29e3a6f69f6e4f3a96a6c82bd28a16219cd4de9757d078065b6d",
                        "prev": "0x0000000000000000000000000000000000000000000000000000000000000000"
                    },
                    {
                        "current": "0x0000000000000000000000000000000000000000000000000000000000004114",
                        "key": "0x744800d3c2e5c6adc10e7db764837b63dd168cae7fd37b046696002a9bf610bb",
                        "prev": "0x0000000000000000000000000000000000000000000000000000000000000000"
                    },
                    {
                        "current": "0x00000000000000000000000003c24d6910e612ca0c2933b798e26f09223ec13f",
                        "key": "0xd6748b08a572375a7be2b0e0b75d06fd0a8992c47325fe0cc8c9de5375ab4f80",
                        "prev": "0x0000000000000000000000000000000000000000000000000000000000000000"
                    },
                    {
                        "current": "0x0000000000000000000000000000000000000000000000000000000000004110",
                        "key": "0xfa2213ca1749ddf069709ffe14cce1a0a1bf2b8f7fe24887cec50154cdb1d6ea",
                        "prev": "0x0000000000000000000000000000000000000000000000000000000000000000"
                    },
                    {
                        "current": "0x0000000000000000000000000000000000000000000000000000000000004111",
                        "key": "0x98b1ac134a2bd770616f83a218980285d1d2666cf69beb4aa2701c77f4c6ef82",
                        "prev": "0x0000000000000000000000000000000000000000000000000000000000000000"
                    },
                    {
                        "current": "0x0000000000000000000000000000000000000000000000000000000000004113",
                        "key": "0xb7ad6faaca249830618cd9a9acc5ddaf5944acf61392d7ab674eca8767026635",
                        "prev": "0x0000000000000000000000000000000000000000000000000000000000000000"
                    },
                    {
                        "current": "0x0000000000000000000000000000000000000000000000000000000000000030",
                        "key": "0xa2e4e4faf6a46c354b512cfacc3f63b87a2ee79ef254b30595367da82df491c9",
                        "prev": "0x0000000000000000000000000000000000000000000000000000000000000000"
                    },
                    {
                        "current": "0x00000000000000000000000003c24d6910e612ca0c2933b798e26f09223ec13f",
                        "key": "0x7cae478c56aa4aaad72f6fb6b051c187bc38623488ddfd1905785e750eafaae8",
                        "prev": "0x0000000000000000000000000000000000000000000000000000000000000000"
                    },
                    {
                        "current": "0x0000000000000000000000000000000000000000000000000000000000004113",
                        "key": "0xe067dfb87901be04462de10bc5acdc037fb77626a90ee10b054d8d3c54c14b01",
                        "prev": "0x0000000000000000000000000000000000000000000000000000000000000000"
                    },
                    {
                        "current": "0x0000000000000000000000000000000000000000000000000000000000000032",
                        "key": "0xfda861caa1791838503cf1737228862653712107ec2c61822e2f0b7a7abe3be4",
                        "prev": "0x000000000000000000000000000000000000000000000000000000000000002d"
                    },
                    {
                        "current": "0x0000000000000000000000000000000000000000000000000000000000004111",
                        "key": "0x72a152ddfb8e864297c917af52ea6c1c68aead0fee1a62673fcc7e0c9497de10",
                        "prev": "0x0000000000000000000000000000000000000000000000000000000000000000"
                    },
                    {
                        "current": "0x0000000000000000000000000000000000000000000000000000000000004112",
                        "key": "0x72a152ddfb8e864297c917af52ea6c1c68aead0fee1a62673fcc7e0c9497de11",
                        "prev": "0x0000000000000000000000000000000000000000000000000000000000000000"
                    }
                ],
                "storageVariables": [
                    {
                        "name": "_balances",
                        "type": "mapping(address => uint256)",
                        "value": {
                            "pairs": [
                                {
                                    "key": "0x03c24d6910e612ca0c2933b798e26f09223ec13f",
                                    "value": {
                                        "current": "50",
                                        "prev": "45",
                                        "typeTag": 1
                                    }
                                }
                            ],
                            "typeTag": 4
                        }
                    },
                    {
                        "name": "_allTokens",
                        "type": "uint256[]",
                        "value": {
                            "elemType": "uint256",
                            "elems": [
                                {
                                    "index": 16656,
                                    "value": {
                                        "current": "16657",
                                        "prev": "0",
                                        "typeTag": 1
                                    }
                                },
                                {
                                    "index": 16657,
                                    "value": {
                                        "current": "16658",
                                        "prev": "0",
                                        "typeTag": 1
                                    }
                                },
                                {
                                    "index": 16658,
                                    "value": {
                                        "current": "16659",
                                        "prev": "0",
                                        "typeTag": 1
                                    }
                                },
                                {
                                    "index": 16659,
                                    "value": {
                                        "current": "16660",
                                        "prev": "0",
                                        "typeTag": 1
                                    }
                                },
                                {
                                    "index": 16660,
                                    "value": {
                                        "current": "16661",
                                        "prev": "0",
                                        "typeTag": 1
                                    }
                                }
                            ],
                            "typeTag": 2
                        }
                    },
                    {
                        "name": "_tokenIdCounter",
                        "type": "struct CountersUpgradeable.Counter",
                        "value": {
                            "fields": [
                                {
                                    "name": "_value",
                                    "type": "uint256",
                                    "value": {
                                        "current": "16661",
                                        "prev": "16656",
                                        "typeTag": 1
                                    }
                                }
                            ],
                            "typeTag": 3
                        }
                    },
                    {
                        "name": "_ownedTokensIndex",
                        "type": "mapping(uint256 => uint256)",
                        "value": {
                            "pairs": [
                                {
                                    "key": "16657",
                                    "value": {
                                        "current": "45",
                                        "prev": "0",
                                        "typeTag": 1
                                    }
                                },
                                {
                                    "key": "16658",
                                    "value": {
                                        "current": "46",
                                        "prev": "0",
                                        "typeTag": 1
                                    }
                                },
                                {
                                    "key": "16659",
                                    "value": {
                                        "current": "47",
                                        "prev": "0",
                                        "typeTag": 1
                                    }
                                },
                                {
                                    "key": "16660",
                                    "value": {
                                        "current": "48",
                                        "prev": "0",
                                        "typeTag": 1
                                    }
                                },
                                {
                                    "key": "16661",
                                    "value": {
                                        "current": "49",
                                        "prev": "0",
                                        "typeTag": 1
                                    }
                                }
                            ],
                            "typeTag": 4
                        }
                    },
                    {
                        "name": "_ownedTokens",
                        "type": "mapping(address => mapping(uint256 => uint256))",
                        "value": {
                            "pairs": [
                                {
                                    "key": "0x03c24d6910e612ca0c2933b798e26f09223ec13f",
                                    "value": {
                                        "pairs": [
                                            {
                                                "key": "45",
                                                "value": {
                                                    "current": "16657",
                                                    "prev": "0",
                                                    "typeTag": 1
                                                }
                                            },
                                            {
                                                "key": "46",
                                                "value": {
                                                    "current": "16658",
                                                    "prev": "0",
                                                    "typeTag": 1
                                                }
                                            },
                                            {
                                                "key": "47",
                                                "value": {
                                                    "current": "16659",
                                                    "prev": "0",
                                                    "typeTag": 1
                                                }
                                            },
                                            {
                                                "key": "48",
                                                "value": {
                                                    "current": "16660",
                                                    "prev": "0",
                                                    "typeTag": 1
                                                }
                                            },
                                            {
                                                "key": "49",
                                                "value": {
                                                    "current": "16661",
                                                    "prev": "0",
                                                    "typeTag": 1
                                                }
                                            }
                                        ],
                                        "typeTag": 4
                                    }
                                }
                            ],
                            "typeTag": 4
                        }
                    },
                    {
                        "name": "_allTokensIndex",
                        "type": "mapping(uint256 => uint256)",
                        "value": {
                            "pairs": [
                                {
                                    "key": "16657",
                                    "value": {
                                        "current": "16656",
                                        "prev": "0",
                                        "typeTag": 1
                                    }
                                },
                                {
                                    "key": "16658",
                                    "value": {
                                        "current": "16657",
                                        "prev": "0",
                                        "typeTag": 1
                                    }
                                },
                                {
                                    "key": "16659",
                                    "value": {
                                        "current": "16658",
                                        "prev": "0",
                                        "typeTag": 1
                                    }
                                },
                                {
                                    "key": "16660",
                                    "value": {
                                        "current": "16659",
                                        "prev": "0",
                                        "typeTag": 1
                                    }
                                },
                                {
                                    "key": "16661",
                                    "value": {
                                        "current": "16660",
                                        "prev": "0",
                                        "typeTag": 1
                                    }
                                }
                            ],
                            "typeTag": 4
                        }
                    },
                    {
                        "name": "allowListMemberMintCount",
                        "type": "mapping(address => uint256)",
                        "value": {
                            "pairs": [
                                {
                                    "key": "0x03c24d6910e612ca0c2933b798e26f09223ec13f",
                                    "value": {
                                        "current": "50",
                                        "prev": "45",
                                        "typeTag": 1
                                    }
                                }
                            ],
                            "typeTag": 4
                        }
                    },
                    {
                        "name": "_owners",
                        "type": "mapping(uint256 => address)",
                        "value": {
                            "pairs": [
                                {
                                    "key": "16657",
                                    "value": {
                                        "current": "0x03c24d6910e612ca0c2933b798e26f09223ec13f",
                                        "prev": "0x0000000000000000000000000000000000000000",
                                        "typeTag": 1
                                    }
                                },
                                {
                                    "key": "16658",
                                    "value": {
                                        "current": "0x03c24d6910e612ca0c2933b798e26f09223ec13f",
                                        "prev": "0x0000000000000000000000000000000000000000",
                                        "typeTag": 1
                                    }
                                },
                                {
                                    "key": "16659",
                                    "value": {
                                        "current": "0x03c24d6910e612ca0c2933b798e26f09223ec13f",
                                        "prev": "0x0000000000000000000000000000000000000000",
                                        "typeTag": 1
                                    }
                                },
                                {
                                    "key": "16660",
                                    "value": {
                                        "current": "0x03c24d6910e612ca0c2933b798e26f09223ec13f",
                                        "prev": "0x0000000000000000000000000000000000000000",
                                        "typeTag": 1
                                    }
                                },
                                {
                                    "key": "16661",
                                    "value": {
                                        "current": "0x03c24d6910e612ca0c2933b798e26f09223ec13f",
                                        "prev": "0x0000000000000000000000000000000000000000",
                                        "typeTag": 1
                                    }
                                }
                            ],
                            "typeTag": 4
                        }
                    }
                ]
            }
        ]
    }
}