{
    "balance_change": {
        "balanceChanges": [
            {
                "account": "0x35348ad788687777a5b3c095fd09a85b45270f2f",
                "assets": [
                    {
                        "address": "0x0e2d206e4d6a61a68c18bdafb1cfe132913d94d9",
                        "amount": "774.1845609",
                        "iconUrl": "",
                        "isERC1155": false,
                        "isERC721": false,
                        "sign": false,
                        "value": "45.67256719"
                    },
                    {
                        "address": "0xeeeeeeeeeeeeeeeeeeeeeeeeeeeeeeeeeeeeeeee",
                        "amount": "0.02128394399840992",
                        "iconUrl": "https://assets.blocksec.com/image/1663669189317-3.png",
                        "isERC1155": false,
                        "isERC721": false,
                        "sign": true,
                        "value": "38.934080240879999614"
                    }
                ]
            },
            {
                "account": "0x0526c94165f60dae2346722bef8b4b750e2e8f28",
                "assets": [
                    {
                        "address": "0x0e2d206e4d6a61a68c18bdafb1cfe132913d94d9",
                        "amount": "1,517.40173938",
                        "iconUrl": "",
                        "isERC1155": false,
                        "isERC721": false,
                        "sign": true,
                        "value": "87.3301305"
                    },
                    {
                        "address": "0xc02aaa39b223fe8d0a0e5c4f27ead9083c756cc2",
                        "amount": "0.042767859859174439",
                        "iconUrl": "https://assets.blocksec.com/icon/f1cb2d02c471d545bbc7722daf3277fd852d98e63d118771af7047bd8256c516.png",
                        "isERC1155": false,
                        "isERC721": false,
                        "sign": false,
                        "value": "78.23396300610219922"
                    }
                ]
            },
            {
                "account": "0x0e2d206e4d6a61a68c18bdafb1cfe132913d94d9",
                "assets": [
                    {
                        "address": "0x0e2d206e4d6a61a68c18bdafb1cfe132913d94d9",
                        "amount": "743.21717848",
                        "iconUrl": "",
                        "isERC1155": false,
                        "isERC721": false,
                        "sign": false,
                        "value": "43.40994847"
                    }
                ]
            },
            {
                "account": "0x8d1c616e746131c06baea32cb20b069bbd78cf23",
                "assets": [
                    {
                        "address": "0xeeeeeeeeeeeeeeeeeeeeeeeeeeeeeeeeeeeeeeee",
                        "amount": "0.021483915860764519",
                        "iconUrl": "https://assets.blocksec.com/image/1663669189317-3.png",
                        "isERC1155": false,
                        "isERC721": false,
                        "sign": true,
                        "value": "39.29988276522219961"
                    }
                ]
            },
            {
                "account": "0xc02aaa39b223fe8d0a0e5c4f27ead9083c756cc2",
                "assets": [
                    {
                        "address": "0xeeeeeeeeeeeeeeeeeeeeeeeeeeeeeeeeeeeeeeee",
                        "amount": "0.042767859859174439",
                        "iconUrl": "https://assets.blocksec.com/image/1663669189317-3.png",
                        "isERC1155": false,
                        "isERC721": false,
                        "sign": false,
                        "value": "78.23396300610219922"
                    },
                    {
                        "address": "0xc02aaa39b223fe8d0a0e5c4f27ead9083c756cc2",
                        "amount": "0.042767859859174439",
                        "iconUrl": "https://assets.blocksec.com/icon/f1cb2d02c471d545bbc7722daf3277fd852d98e63d118771af7047bd8256c516.png",
                        "isERC1155": false,
                        "isERC721": false,
                        "sign": true,
                        "value": "78.23396300610219922"
                    }
                ]
            }
        ]
    },
    "profile": {
        "basic_info": {
            "baseFee": "20.688054505",
            "blockNumber": 17857020,
            "callData": "0x3593564c000000000000000000000000000000000000000000000000000000000000006000000000000000000000000000000000000000000000000000000000000000a00000000000000000000000000000000000000000000000000000000064cfcceb0000000000000000000000000000000000000000000000000000000000000002080c0000000000000000000000000000000000000000000000000000000000000000000000000000000000000000000000000000000000000000000000000002000000000000000000000000000000000000000000000000000000000000004000000000000000000000000000000000000000000000000000000000000001600000000000000000000000000000000000000000000000000000000000000100000000000000000000000000000000000000000000000000000000000000000200000000000000000000000000000000000000000000000000000012067fe41a000000000000000000000000000000000000000000000000004a04f573b0778200000000000000000000000000000000000000000000000000000000000000a0000000000000000000000000000000000000000000000000000000000000000100000000000000000000000000000000000000000000000000000000000000020000000000000000000000000e2d206e4d6a61a68c18bdafb1cfe132913d94d9000000000000000000000000c02aaa39b223fe8d0a0e5c4f27ead9083c756cc200000000000000000000000000000000000000000000000000000000000000400000000000000000000000000000000000000000000000000000000000000001000000000000000000000000000000000000000000000000004a04f573b07782",
            "debugEnable": true,
            "errorInfo": "",
            "eventCount": 15,
            "feeRecipient": "0x690b9a9e9aa1c9db991c7721a92d351db4fac990",
            "formatValue": "0",
            "gasLimit": 368215,
            "gasPrice": "20.788054505",
            "gasUsed": 243719,
            "intTxnCount": 28,
            "internalRevert": false,
            "internalRevertMessage": "",
            "isContractCreation": false,
            "isFlashloan": false,
            "maxFee": "28.309683119",
            "nonce": 5,
            "overwritedBlockNumber": -1,
            "priorityFee": "0.1",
            "receiver": "0x3fc91a3afd70395cd496c647d5a6cc9d4b2b7fad",
            "revertMessage": "",
            "sender": "0x35348ad788687777a5b3c095fd09a85b45270f2f",
            "simulationEnable": true,
            "sourceTxnHash": "0x0269f84926babfe81fa92d221820f28e9943c186c667c5fac6afd7882403d1fe",
            "status": true,
            "timestamp": "2023-08-06T16:10:47Z",
            "transactionFee": "0.005066443855904095",
            "txnHash": "0x0269f84926babfe81fa92d221820f28e9943c186c667c5fac6afd7882403d1fe",
            "txnIndex": 72,
            "type": 2,
            "value": "0"
        },
        "fund_flow": [
            {
                "amount": "15.48369121",
                "from": "0x0e2d206e4d6a61a68c18bdafb1cfe132913d94d9",
                "id": 1,
                "isERC1155": false,
                "isERC721": false,
                "isReverted": false,
                "order": 1,
                "to": "0x0e2d206e4d6a61a68c18bdafb1cfe132913d94d9",
                "token": "0x0e2d206e4d6a61a68c18bdafb1cfe132913d94d9"
            },
            {
                "amount": "758.70086969",
                "from": "0x0e2d206e4d6a61a68c18bdafb1cfe132913d94d9",
                "id": 2,
                "isERC1155": false,
                "isERC721": false,
                "isReverted": false,
                "order": 2,
                "to": "0x0526c94165f60dae2346722bef8b4b750e2e8f28",
                "token": "0x0e2d206e4d6a61a68c18bdafb1cfe132913d94d9"
            },
            {
                "amount": "0.021483915860764519",
                "from": "0x0526c94165f60dae2346722bef8b4b750e2e8f28",
                "id": 3,
                "isERC1155": false,
                "isERC721": false,
                "isReverted": false,
                "order": 3,
                "to": "0x7a250d5630b4cf539739df2c5dacb4c659f2488d",
                "token": "0xc02aaa39b223fe8d0a0e5c4f27ead9083c756cc2"
            },
            {
                "amount": "0.021483915860764519",
                "from": "0xc02aaa39b223fe8d0a0e5c4f27ead9083c756cc2",
                "id": 4,
                "isERC1155": false,
                "isERC721": false,
                "isReverted": false,
                "order": 4,
                "to": "0x7a250d5630b4cf539739df2c5dacb4c659f2488d",
                "token": "0xeeeeeeeeeeeeeeeeeeeeeeeeeeeeeeeeeeeeeeee"
            },
            {
                "amount": "0.021483915860764519",
                "from": "0x7a250d5630b4cf539739df2c5dacb4c659f2488d",
                "id": 5,
                "isERC1155": false,
                "isERC721": false,
                "isReverted": false,
                "order": 5,
                "to": "0xc02aaa39b223fe8d0a0e5c4f27ead9083c756cc2",
                "token": "0xc02aaa39b223fe8d0a0e5c4f27ead9083c756cc2"
            },
            {
                "amount": "0.021483915860764519",
                "from": "0x7a250d5630b4cf539739df2c5dacb4c659f2488d",
                "id": 6,
                "isERC1155": false,
                "isERC721": false,
                "isReverted": false,
                "order": 6,
                "to": "0x0e2d206e4d6a61a68c18bdafb1cfe132913d94d9",
                "token": "0xeeeeeeeeeeeeeeeeeeeeeeeeeeeeeeeeeeeeeeee"
            },
            {
                "amount": "0.021483915860764519",
                "from": "0x0e2d206e4d6a61a68c18bdafb1cfe132913d94d9",
                "id": 7,
                "isERC1155": false,
                "isERC721": false,
                "isReverted": false,
                "order": 7,
                "to": "0x8d1c616e746131c06baea32cb20b069bbd78cf23",
                "token": "0xeeeeeeeeeeeeeeeeeeeeeeeeeeeeeeeeeeeeeeee"
            },
            {
                "amount": "15.48369121",
                "from": "0x35348ad788687777a5b3c095fd09a85b45270f2f",
                "id": 8,
                "isERC1155": false,
                "isERC721": false,
                "isReverted": false,
                "order": 8,
                "to": "0x0e2d206e4d6a61a68c18bdafb1cfe132913d94d9",
                "token": "0x0e2d206e4d6a61a68c18bdafb1cfe132913d94d9"
            },
            {
                "amount": "758.70086969",
                "from": "0x35348ad788687777a5b3c095fd09a85b45270f2f",
                "id": 9,
                "isERC1155": false,
                "isERC721": false,
                "isReverted": false,
                "order": 9,
                "to": "0x0526c94165f60dae2346722bef8b4b750e2e8f28",
                "token": "0x0e2d206e4d6a61a68c18bdafb1cfe132913d94d9"
            },
            {
                "amount": "0.02128394399840992",
                "from": "0x0526c94165f60dae2346722bef8b4b750e2e8f28",
                "id": 10,
                "isERC1155": false,
                "isERC721": false,
                "isReverted": false,
                "order": 10,
                "to": "0x3fc91a3afd70395cd496c647d5a6cc9d4b2b7fad",
                "token": "0xc02aaa39b223fe8d0a0e5c4f27ead9083c756cc2"
            },
            {
                "amount": "0.02128394399840992",
                "from": "0xc02aaa39b223fe8d0a0e5c4f27ead9083c756cc2",
                "id": 11,
                "isERC1155": false,
                "isERC721": false,
                "isReverted": false,
                "order": 11,
                "to": "0x3fc91a3afd70395cd496c647d5a6cc9d4b2b7fad",
                "token": "0xeeeeeeeeeeeeeeeeeeeeeeeeeeeeeeeeeeeeeeee"
            },
            {
                "amount": "0.02128394399840992",
                "from": "0x3fc91a3afd70395cd496c647d5a6cc9d4b2b7fad",
                "id": 12,
                "isERC1155": false,
                "isERC721": false,
                "isReverted": false,
                "order": 12,
                "to": "0xc02aaa39b223fe8d0a0e5c4f27ead9083c756cc2",
                "token": "0xc02aaa39b223fe8d0a0e5c4f27ead9083c756cc2"
            },
            {
                "amount": "0.02128394399840992",
                "from": "0x3fc91a3afd70395cd496c647d5a6cc9d4b2b7fad",
                "id": 13,
                "isERC1155": false,
                "isERC721": false,
                "isReverted": false,
                "order": 13,
                "to": "0x35348ad788687777a5b3c095fd09a85b45270f2f",
                "token": "0xeeeeeeeeeeeeeeeeeeeeeeeeeeeeeeeeeeeeeeee"
            }
        ],
        "token_infos": [
            {
                "address": "0x0e2d206e4d6a61a68c18bdafb1cfe132913d94d9",
                "decimals": 8
            },
            {
                "address": "0xc02aaa39b223fe8d0a0e5c4f27ead9083c756cc2",
                "decimals": 18
            },
            {
                "address": "0xeeeeeeeeeeeeeeeeeeeeeeeeeeeeeeeeeeeeeeee",
                "decimals": 18
            }
        ]
    },
    "address_label": {
        "labels": [
            {
                "address": "0xeeeeeeeeeeeeeeeeeeeeeeeeeeeeeeeeeeeeeeee",
                "label": "Ether"
            },
            {
                "address": "0x0526c94165f60dae2346722bef8b4b750e2e8f28",
                "label": "UNI-V2"
            },
            {
                "address": "0x0000000000000000000000000000000000000001",
                "label": "Precompiled"
            },
            {
                "address": "0xc02aaa39b223fe8d0a0e5c4f27ead9083c756cc2",
                "label": "Wrapped Ether (WETH)"
            },
            {
                "address": "0x0e2d206e4d6a61a68c18bdafb1cfe132913d94d9",
                "label": "HarryPotterMuskObamaZuckInu (DOGE)"
            },
            {
                "address": "0x0000000000000000000000000000000000000002",
                "label": "Precompiled"
            },
            {
                "address": "0x0000000000000000000000000000000000000003",
                "label": "Precompiled"
            },
            {
                "address": "0x0000000000000000000000000000000000000004",
                "label": "Precompiled"
            },
            {
                "address": "0x000000000022d473030f116ddee9f6b43ac78ba3",
                "label": "Permit2"
            },
            {
                "address": "0x3fc91a3afd70395cd496c647d5a6cc9d4b2b7fad",
                "label": "Uniswap: Universal Router"
            },
            {
                "address": "0x7a250d5630b4cf539739df2c5dacb4c659f2488d",
                "label": "Uniswap V2: Router 2"
            }
        ]
    },
    "trace": {
        "accountLabels": null,
        "dataMap": {
            "-1": {
                "invocation": {
                    "address": "0x35348ad788687777a5b3c095fd09a85b45270f2f",
                    "callData": "",
                    "decodedMethod": null,
                    "errorInfo": "",
                    "fromAddress": "",
                    "gasUsed": 0,
                    "id": -1,
                    "methodDecoded": false,
                    "operation": "",
                    "output": "",
                    "revert": false,
                    "revertMessage": "",
                    "selector": "",
                    "status": false,
                    "value": ""
                },
                "nodeType": 0
            },
            "0": {
                "invocation": {
                    "address": "0x3fc91a3afd70395cd496c647d5a6cc9d4b2b7fad",
                    "callData": "0x000000000000000000000000000000000000000000000000000000000000006000000000000000000000000000000000000000000000000000000000000000a00000000000000000000000000000000000000000000000000000000064cfcceb0000000000000000000000000000000000000000000000000000000000000002080c0000000000000000000000000000000000000000000000000000000000000000000000000000000000000000000000000000000000000000000000000002000000000000000000000000000000000000000000000000000000000000004000000000000000000000000000000000000000000000000000000000000001600000000000000000000000000000000000000000000000000000000000000100000000000000000000000000000000000000000000000000000000000000000200000000000000000000000000000000000000000000000000000012067fe41a000000000000000000000000000000000000000000000000004a04f573b0778200000000000000000000000000000000000000000000000000000000000000a0000000000000000000000000000000000000000000000000000000000000000100000000000000000000000000000000000000000000000000000000000000020000000000000000000000000e2d206e4d6a61a68c18bdafb1cfe132913d94d9000000000000000000000000c02aaa39b223fe8d0a0e5c4f27ead9083c756cc200000000000000000000000000000000000000000000000000000000000000400000000000000000000000000000000000000000000000000000000000000001000000000000000000000000000000000000000000000000004a04f573b07782",
                    "decodedMethod": {
                        "callParams": [
                            {
                                "name": "commands",
                                "type": "bytes",
                                "value": "0x080c"
                            },
                            {
                                "name": "inputs",
                                "type": "bytes[]",
                                "value": [
                                    "0x000000000000000000000000000000000000000000000000000000000000000200000000000000000000000000000000000000000000000000000012067fe41a000000000000000000000000000000000000000000000000004a04f573b0778200000000000000000000000000000000000000000000000000000000000000a0000000000000000000000000000000000000000000000000000000000000000100000000000000000000000000000000000000000000000000000000000000020000000000000000000000000e2d206e4d6a61a68c18bdafb1cfe132913d94d9000000000000000000000000c02aaa39b223fe8d0a0e5c4f27ead9083c756cc2",
                                    "0x0000000000000000000000000000000000000000000000000000000000000001000000000000000000000000000000000000000000000000004a04f573b07782"
                                ]
                            },
                            {
                                "name": "deadline",
                                "type": "uint256",
                                "value": "1,691,340,011"
                            }
                        ],
                        "constructorArguments": "",
                        "name": "execute",
                        "returnParams": [],
                        "signature": "execute(bytes,bytes[],uint256)"
                    },
                    "errorInfo": "",
                    "fromAddress": "0x35348ad788687777a5b3c095fd09a85b45270f2f",
                    "gasUsed": 243719,
                    "id": 0,
                    "methodDecoded": true,
                    "operation": "CALL",
                    "output": "",
                    "revert": false,
                    "revertMessage": "",
                    "selector": "0x3593564c",
                    "status": true,
                    "value": "0"
                },
                "nodeType": 0
            },
            "1": {
                "invocation": {
                    "address": "0x000000000022d473030f116ddee9f6b43ac78ba3",
                    "callData": "0x00000000000000000000000035348ad788687777a5b3c095fd09a85b45270f2f0000000000000000000000000526c94165f60dae2346722bef8b4b750e2e8f2800000000000000000000000000000000000000000000000000000012067fe41a0000000000000000000000000e2d206e4d6a61a68c18bdafb1cfe132913d94d9",
                    "decodedMethod": {
                        "callParams": [
                            {
                                "name": "from",
                                "type": "address",
                                "value": "0x35348ad788687777a5b3c095fd09a85b45270f2f"
                            },
                            {
                                "name": "to",
                                "type": "address",
                                "value": "0x0526c94165f60dae2346722bef8b4b750e2e8f28"
                            },
                            {
                                "name": "amount",
                                "type": "uint160",
                                "value": "77,418,456,090"
                            },
                            {
                                "name": "token",
                                "type": "address",
                                "value": "0x0e2d206e4d6a61a68c18bdafb1cfe132913d94d9"
                            }
                        ],
                        "constructorArguments": "",
                        "name": "transferFrom",
                        "returnParams": [],
                        "signature": "transferFrom(address,address,uint160,address)"
                    },
                    "errorInfo": "",
                    "fromAddress": "0x3fc91a3afd70395cd496c647d5a6cc9d4b2b7fad",
                    "gasUsed": 206061,
                    "id": 1,
                    "methodDecoded": true,
                    "operation": "CALL",
                    "output": "",
                    "revert": false,
                    "revertMessage": "",
                    "selector": "0x36c78516",
                    "status": true,
                    "value": "0"
                },
                "nodeType": 0
            },
            "10": {
                "invocation": {
                    "address": "0x0526c94165f60dae2346722bef8b4b750e2e8f28",
                    "callData": "0x",
                    "decodedMethod": {
                        "callParams": [],
                        "constructorArguments": "",
                        "name": "getReserves",
                        "returnParams": [
                            {
                                "name": "_reserve0",
                                "type": "uint112",
                                "value": "16,126,193,367,347"
                            },
                            {
                                "name": "_reserve1",
                                "type": "uint112",
                                "value": "4,601,632,484,970,673,986"
                            },
                            {
                                "name": "_blockTimestampLast",
                                "type": "uint32",
                                "value": "1,691,338,247"
                            }
                        ],
                        "signature": "getReserves()"
                    },
                    "errorInfo": "",
                    "fromAddress": "0x7a250d5630b4cf539739df2c5dacb4c659f2488d",
                    "gasUsed": 2504,
                    "id": 10,
                    "methodDecoded": true,
                    "operation": "STATICCALL",
                    "output": "0x00000000000000000000000000000000000000000000000000000eaaac06f9330000000000000000000000000000000000000000000000003fdc485d559337420000000000000000000000000000000000000000000000000000000064cfc607",
                    "revert": false,
                    "revertMessage": "",
                    "selector": "0x0902f1ac",
                    "status": true,
                    "value": "0"
                },
                "nodeType": 0
            },
            "11": {
                "invocation": {
                    "address": "0x0e2d206e4d6a61a68c18bdafb1cfe132913d94d9",
                    "callData": "0x0000000000000000000000000526c94165f60dae2346722bef8b4b750e2e8f28",
                    "decodedMethod": {
                        "callParams": [
                            {
                                "name": "account",
                                "type": "address",
                                "value": "0x0526c94165f60dae2346722bef8b4b750e2e8f28"
                            }
                        ],
                        "constructorArguments": "",
                        "name": "balanceOf",
                        "returnParams": [
                            {
                                "decimalAvailable": true,
                                "name": "",
                                "type": "uint256",
                                "value": "16,202,063,454,316"
                            }
                        ],
                        "signature": "balanceOf(address)"
                    },
                    "errorInfo": "",
                    "fromAddress": "0x7a250d5630b4cf539739df2c5dacb4c659f2488d",
                    "gasUsed": 620,
                    "id": 11,
                    "methodDecoded": true,
                    "operation": "STATICCALL",
                    "output": "0x00000000000000000000000000000000000000000000000000000ebc563ca06c",
                    "revert": false,
                    "revertMessage": "",
                    "selector": "0x70a08231",
                    "status": true,
                    "value": "0"
                },
                "nodeType": 0
            },
            "12": {
                "invocation": {
                    "address": "0x0526c94165f60dae2346722bef8b4b750e2e8f28",
                    "callData": "0x0000000000000000000000000000000000000000000000000000000000000000000000000000000000000000000000000000000000000000004c5381f543e7670000000000000000000000007a250d5630b4cf539739df2c5dacb4c659f2488d00000000000000000000000000000000000000000000000000000000000000800000000000000000000000000000000000000000000000000000000000000000",
                    "decodedMethod": {
                        "callParams": [
                            {
                                "name": "amount0Out",
                                "type": "uint256",
                                "value": "0"
                            },
                            {
                                "name": "amount1Out",
                                "type": "uint256",
                                "value": "21,483,915,860,764,519"
                            },
                            {
                                "name": "to",
                                "type": "address",
                                "value": "0x7a250d5630b4cf539739df2c5dacb4c659f2488d"
                            },
                            {
                                "name": "data",
                                "type": "bytes",
                                "value": "0x"
                            }
                        ],
                        "constructorArguments": "",
                        "name": "swap",
                        "returnParams": [],
                        "signature": "swap(uint256,uint256,address,bytes)"
                    },
                    "errorInfo": "",
                    "fromAddress": "0x7a250d5630b4cf539739df2c5dacb4c659f2488d",
                    "gasUsed": 54523,
                    "id": 12,
                    "methodDecoded": true,
                    "operation": "CALL",
                    "output": "",
                    "revert": false,
                    "revertMessage": "",
                    "selector": "0x022c0d9f",
                    "status": true,
                    "value": "0"
                },
                "nodeType": 0
            },
            "13": {
                "invocation": {
                    "address": "0xc02aaa39b223fe8d0a0e5c4f27ead9083c756cc2",
                    "callData": "0x0000000000000000000000007a250d5630b4cf539739df2c5dacb4c659f2488d000000000000000000000000000000000000000000000000004c5381f543e767",
                    "decodedMethod": {
                        "callParams": [
                            {
                                "name": "dst",
                                "type": "address",
                                "value": "0x7a250d5630b4cf539739df2c5dacb4c659f2488d"
                            },
                            {
                                "decimalAvailable": true,
                                "name": "wad",
                                "type": "uint256",
                                "value": "21,483,915,860,764,519"
                            }
                        ],
                        "constructorArguments": "",
                        "name": "transfer",
                        "returnParams": [
                            {
                                "name": "",
                                "type": "bool",
                                "value": true
                            }
                        ],
                        "signature": "transfer(address,uint256)"
                    },
                    "errorInfo": "",
                    "fromAddress": "0x0526c94165f60dae2346722bef8b4b750e2e8f28",
                    "gasUsed": 29962,
                    "id": 13,
                    "methodDecoded": true,
                    "operation": "CALL",
                    "output": "0x0000000000000000000000000000000000000000000000000000000000000001",
                    "revert": false,
                    "revertMessage": "",
                    "selector": "0xa9059cbb",
                    "status": true,
                    "value": "0"
                },
                "nodeType": 0
            },
            "14": {
                "event": {
                    "contract": "0xc02aaa39b223fe8d0a0e5c4f27ead9083c756cc2",
                    "decodedLog": {
                        "name": "Transfer",
                        "params": [
                            {
                                "name": "src",
                                "type": "address",
                                "value": "0x0526c94165f60dae2346722bef8b4b750e2e8f28"
                            },
                            {
                                "name": "dst",
                                "type": "address",
                                "value": "0x7a250d5630b4cf539739df2c5dacb4c659f2488d"
                            },
                            {
                                "decimalAvailable": true,
                                "name": "wad",
                                "type": "uint256",
                                "value": "21,483,915,860,764,519"
                            }
                        ],
                        "signature": "Transfer(address,address,uint256)"
                    },
                    "id": 14,
                    "logData": "0x000000000000000000000000000000000000000000000000004c5381f543e767",
                    "logDecoded": true,
                    "operation": "EVENT",
                    "revert": false,
                    "status": true,
                    "topics": [
                        "0xddf252ad1be2c89b69c2b068fc378daa952ba7f163c4a11628f55a4df523b3ef",
                        "0x0000000000000000000000000526c94165f60dae2346722bef8b4b750e2e8f28",
                        "0x0000000000000000000000007a250d5630b4cf539739df2c5dacb4c659f2488d"
                    ]
                },
                "nodeType": 1
            },
            "15": {
                "invocation": {
                    "address": "0x0e2d206e4d6a61a68c18bdafb1cfe132913d94d9",
                    "callData": "0x0000000000000000000000000526c94165f60dae2346722bef8b4b750e2e8f28",
                    "decodedMethod": {
                        "callParams": [
                            {
                                "name": "account",
                                "type": "address",
                                "value": "0x0526c94165f60dae2346722bef8b4b750e2e8f28"
                            }
                        ],
                        "constructorArguments": "",
                        "name": "balanceOf",
                        "returnParams": [
                            {
                                "decimalAvailable": true,
                                "name": "",
                                "type": "uint256",
                                "value": "16,202,063,454,316"
                            }
                        ],
                        "signature": "balanceOf(address)"
                    },
                    "errorInfo": "",
                    "fromAddress": "0x0526c94165f60dae2346722bef8b4b750e2e8f28",
                    "gasUsed": 620,
                    "id": 15,
                    "methodDecoded": true,
                    "operation": "STATICCALL",
                    "output": "0x00000000000000000000000000000000000000000000000000000ebc563ca06c",
                    "revert": false,
                    "revertMessage": "",
                    "selector": "0x70a08231",
                    "status": true,
                    "value": "0"
                },
                "nodeType": 0
            },
            "16": {
                "invocation": {
                    "address": "0xc02aaa39b223fe8d0a0e5c4f27ead9083c756cc2",
                    "callData": "0x0000000000000000000000000526c94165f60dae2346722bef8b4b750e2e8f28",
                    "decodedMethod": {
                        "callParams": [
                            {
                                "name": "",
                                "type": "address",
                                "value": "0x0526c94165f60dae2346722bef8b4b750e2e8f28"
                            }
                        ],
                        "constructorArguments": "",
                        "name": "balanceOf",
                        "returnParams": [
                            {
                                "decimalAvailable": true,
                                "name": "",
                                "type": "uint256",
                                "value": "4,580,148,569,109,909,467"
                            }
                        ],
                        "signature": "balanceOf(address)"
                    },
                    "errorInfo": "",
                    "fromAddress": "0x0526c94165f60dae2346722bef8b4b750e2e8f28",
                    "gasUsed": 534,
                    "id": 16,
                    "methodDecoded": true,
                    "operation": "STATICCALL",
                    "output": "0x0000000000000000000000000000000000000000000000003f8ff4db604f4fdb",
                    "revert": false,
                    "revertMessage": "",
                    "selector": "0x70a08231",
                    "status": true,
                    "value": "0"
                },
                "nodeType": 0
            },
            "17": {
                "event": {
                    "contract": "0x0526c94165f60dae2346722bef8b4b750e2e8f28",
                    "decodedLog": {
                        "name": "Sync",
                        "params": [
                            {
                                "name": "reserve0",
                                "type": "uint112",
                                "value": "16,202,063,454,316"
                            },
                            {
                                "name": "reserve1",
                                "type": "uint112",
                                "value": "4,580,148,569,109,909,467"
                            }
                        ],
                        "signature": "Sync(uint112,uint112)"
                    },
                    "id": 17,
                    "logData": "0x00000000000000000000000000000000000000000000000000000ebc563ca06c0000000000000000000000000000000000000000000000003f8ff4db604f4fdb",
                    "logDecoded": true,
                    "operation": "EVENT",
                    "revert": false,
                    "status": true,
                    "topics": [
                        "0x1c411e9a96e071241c2f21f7726b17ae89e3cab4c78be50e062b03a9fffbbad1"
                    ]
                },
                "nodeType": 1
            },
            "18": {
                "event": {
                    "contract": "0x0526c94165f60dae2346722bef8b4b750e2e8f28",
                    "decodedLog": {
                        "name": "Swap",
                        "params": [
                            {
                                "name": "sender",
                                "type": "address",
                                "value": "0x7a250d5630b4cf539739df2c5dacb4c659f2488d"
                            },
                            {
                                "name": "to",
                                "type": "address",
                                "value": "0x7a250d5630b4cf539739df2c5dacb4c659f2488d"
                            },
                            {
                                "name": "amount0In",
                                "type": "uint256",
                                "value": "75,870,086,969"
                            },
                            {
                                "name": "amount1In",
                                "type": "uint256",
                                "value": "0"
                            },
                            {
                                "name": "amount0Out",
                                "type": "uint256",
                                "value": "0"
                            },
                            {
                                "name": "amount1Out",
                                "type": "uint256",
                                "value": "21,483,915,860,764,519"
                            }
                        ],
                        "signature": "Swap(address,uint256,uint256,uint256,uint256,address)"
                    },
                    "id": 18,
                    "logData": "0x00000000000000000000000000000000000000000000000000000011aa35a73900000000000000000000000000000000000000000000000000000000000000000000000000000000000000000000000000000000000000000000000000000000000000000000000000000000000000000000000000000000004c5381f543e767",
                    "logDecoded": true,
                    "operation": "EVENT",
                    "revert": false,
                    "status": true,
                    "topics": [
                        "0xd78ad95fa46c994b6551d0da85fc275fe613ce37657fb8d5e3d130840159d822",
                        "0x0000000000000000000000007a250d5630b4cf539739df2c5dacb4c659f2488d",
                        "0x0000000000000000000000007a250d5630b4cf539739df2c5dacb4c659f2488d"
                    ]
                },
                "nodeType": 1
            },
            "19": {
                "invocation": {
                    "address": "0xc02aaa39b223fe8d0a0e5c4f27ead9083c756cc2",
                    "callData": "0x0000000000000000000000007a250d5630b4cf539739df2c5dacb4c659f2488d",
                    "decodedMethod": {
                        "callParams": [
                            {
                                "name": "",
                                "type": "address",
                                "value": "0x7a250d5630b4cf539739df2c5dacb4c659f2488d"
                            }
                        ],
                        "constructorArguments": "",
                        "name": "balanceOf",
                        "returnParams": [
                            {
                                "decimalAvailable": true,
                                "name": "",
                                "type": "uint256",
                                "value": "21,483,915,860,764,519"
                            }
                        ],
                        "signature": "balanceOf(address)"
                    },
                    "errorInfo": "",
                    "fromAddress": "0x7a250d5630b4cf539739df2c5dacb4c659f2488d",
                    "gasUsed": 534,
                    "id": 19,
                    "methodDecoded": true,
                    "operation": "STATICCALL",
                    "output": "0x000000000000000000000000000000000000000000000000004c5381f543e767",
                    "revert": false,
                    "revertMessage": "",
                    "selector": "0x70a08231",
                    "status": true,
                    "value": "0"
                },
                "nodeType": 0
            },
            "2": {
                "invocation": {
                    "address": "0x0e2d206e4d6a61a68c18bdafb1cfe132913d94d9",
                    "callData": "0x00000000000000000000000035348ad788687777a5b3c095fd09a85b45270f2f0000000000000000000000000526c94165f60dae2346722bef8b4b750e2e8f2800000000000000000000000000000000000000000000000000000012067fe41a",
                    "decodedMethod": {
                        "callParams": [
                            {
                                "name": "sender",
                                "type": "address",
                                "value": "0x35348ad788687777a5b3c095fd09a85b45270f2f"
                            },
                            {
                                "name": "recipient",
                                "type": "address",
                                "value": "0x0526c94165f60dae2346722bef8b4b750e2e8f28"
                            },
                            {
                                "decimalAvailable": true,
                                "name": "amount",
                                "type": "uint256",
                                "value": "77,418,456,090"
                            }
                        ],
                        "constructorArguments": "",
                        "name": "transferFrom",
                        "returnParams": [
                            {
                                "name": "",
                                "type": "bool",
                                "value": true
                            }
                        ],
                        "signature": "transferFrom(address,address,uint256)"
                    },
                    "errorInfo": "",
                    "fromAddress": "0x000000000022d473030f116ddee9f6b43ac78ba3",
                    "gasUsed": 200354,
                    "id": 2,
                    "methodDecoded": true,
                    "operation": "CALL",
                    "output": "0x0000000000000000000000000000000000000000000000000000000000000001",
                    "revert": false,
                    "revertMessage": "",
                    "selector": "0x23b872dd",
                    "status": true,
                    "value": "0"
                },
                "nodeType": 0
            },
            "20": {
                "invocation": {
                    "address": "0xc02aaa39b223fe8d0a0e5c4f27ead9083c756cc2",
                    "callData": "0x000000000000000000000000000000000000000000000000004c5381f543e767",
                    "decodedMethod": {
                        "callParams": [
                            {
                                "name": "wad",
                                "type": "uint256",
                                "value": "21,483,915,860,764,519"
                            }
                        ],
                        "constructorArguments": "",
                        "name": "withdraw",
                        "returnParams": [],
                        "signature": "withdraw(uint256)"
                    },
                    "errorInfo": "",
                    "fromAddress": "0x7a250d5630b4cf539739df2c5dacb4c659f2488d",
                    "gasUsed": 9223,
                    "id": 20,
                    "methodDecoded": true,
                    "operation": "CALL",
                    "output": "",
                    "revert": false,
                    "revertMessage": "",
                    "selector": "0x2e1a7d4d",
                    "status": true,
                    "value": "0"
                },
                "nodeType": 0
            },
            "21": {
                "invocation": {
                    "address": "0x7a250d5630b4cf539739df2c5dacb4c659f2488d",
                    "callData": "0x",
                    "decodedMethod": null,
                    "errorInfo": "",
                    "fromAddress": "0xc02aaa39b223fe8d0a0e5c4f27ead9083c756cc2",
                    "gasUsed": 83,
                    "id": 21,
                    "methodDecoded": false,
                    "operation": "CALL",
                    "output": "",
                    "revert": false,
                    "revertMessage": "",
                    "selector": "fallback",
                    "status": true,
                    "value": "0.021483915860764519"
                },
                "nodeType": 0
            },
            "22": {
                "event": {
                    "contract": "0xc02aaa39b223fe8d0a0e5c4f27ead9083c756cc2",
                    "decodedLog": {
                        "name": "Withdrawal",
                        "params": [
                            {
                                "name": "src",
                                "type": "address",
                                "value": "0x7a250d5630b4cf539739df2c5dacb4c659f2488d"
                            },
                            {
                                "name": "wad",
                                "type": "uint256",
                                "value": "21,483,915,860,764,519"
                            }
                        ],
                        "signature": "Withdrawal(address,uint256)"
                    },
                    "id": 22,
                    "logData": "0x000000000000000000000000000000000000000000000000004c5381f543e767",
                    "logDecoded": true,
                    "operation": "EVENT",
                    "revert": false,
                    "status": true,
                    "topics": [
                        "0x7fcf532c15f0a6db0bd6d0e038bea71d30d808c7d98cb3bf7268a95bf5081b65",
                        "0x0000000000000000000000007a250d5630b4cf539739df2c5dacb4c659f2488d"
                    ]
                },
                "nodeType": 1
            },
            "23": {
                "invocation": {
                    "address": "0x0e2d206e4d6a61a68c18bdafb1cfe132913d94d9",
                    "callData": "0x",
                    "decodedMethod": null,
                    "errorInfo": "",
                    "fromAddress": "0x7a250d5630b4cf539739df2c5dacb4c659f2488d",
                    "gasUsed": 55,
                    "id": 23,
                    "methodDecoded": false,
                    "operation": "CALL",
                    "output": "",
                    "revert": false,
                    "revertMessage": "",
                    "selector": "fallback",
                    "status": true,
                    "value": "0.021483915860764519"
                },
                "nodeType": 0
            },
            "24": {
                "invocation": {
                    "address": "0x8d1c616e746131c06baea32cb20b069bbd78cf23",
                    "callData": "0x",
                    "decodedMethod": null,
                    "errorInfo": "",
                    "fromAddress": "0x0e2d206e4d6a61a68c18bdafb1cfe132913d94d9",
                    "gasUsed": 0,
                    "id": 24,
                    "methodDecoded": false,
                    "operation": "CALL",
                    "output": "",
                    "revert": false,
                    "revertMessage": "",
                    "selector": "fallback",
                    "status": true,
                    "value": "0.021483915860764519"
                },
                "nodeType": 0
            },
            "25": {
                "event": {
                    "contract": "0x0e2d206e4d6a61a68c18bdafb1cfe132913d94d9",
                    "decodedLog": {
                        "name": "Transfer",
                        "params": [
                            {
                                "name": "from",
                                "type": "address",
                                "value": "0x35348ad788687777a5b3c095fd09a85b45270f2f"
                            },
                            {
                                "name": "to",
                                "type": "address",
                                "value": "0x0e2d206e4d6a61a68c18bdafb1cfe132913d94d9"
                            },
                            {
                                "decimalAvailable": true,
                                "name": "value",
                                "type": "uint256",
                                "value": "1,548,369,121"
                            }
                        ],
                        "signature": "Transfer(address,address,uint256)"
                    },
                    "id": 25,
                    "logData": "0x000000000000000000000000000000000000000000000000000000005c4a3ce1",
                    "logDecoded": true,
                    "operation": "EVENT",
                    "revert": false,
                    "status": true,
                    "topics": [
                        "0xddf252ad1be2c89b69c2b068fc378daa952ba7f163c4a11628f55a4df523b3ef",
                        "0x00000000000000000000000035348ad788687777a5b3c095fd09a85b45270f2f",
                        "0x0000000000000000000000000e2d206e4d6a61a68c18bdafb1cfe132913d94d9"
                    ]
                },
                "nodeType": 1
            },
            "26": {
                "event": {
                    "contract": "0x0e2d206e4d6a61a68c18bdafb1cfe132913d94d9",
                    "decodedLog": {
                        "name": "Transfer",
                        "params": [
                            {
                                "name": "from",
                                "type": "address",
                                "value": "0x35348ad788687777a5b3c095fd09a85b45270f2f"
                            },
                            {
                                "name": "to",
                                "type": "address",
                                "value": "0x0526c94165f60dae2346722bef8b4b750e2e8f28"
                            },
                            {
                                "decimalAvailable": true,
                                "name": "value",
                                "type": "uint256",
                                "value": "75,870,086,969"
                            }
                        ],
                        "signature": "Transfer(address,address,uint256)"
                    },
                    "id": 26,
                    "logData": "0x00000000000000000000000000000000000000000000000000000011aa35a739",
                    "logDecoded": true,
                    "operation": "EVENT",
                    "revert": false,
                    "status": true,
                    "topics": [
                        "0xddf252ad1be2c89b69c2b068fc378daa952ba7f163c4a11628f55a4df523b3ef",
                        "0x00000000000000000000000035348ad788687777a5b3c095fd09a85b45270f2f",
                        "0x0000000000000000000000000526c94165f60dae2346722bef8b4b750e2e8f28"
                    ]
                },
                "nodeType": 1
            },
            "27": {
                "event": {
                    "contract": "0x0e2d206e4d6a61a68c18bdafb1cfe132913d94d9",
                    "decodedLog": {
                        "name": "Approval",
                        "params": [
                            {
                                "name": "owner",
                                "type": "address",
                                "value": "0x35348ad788687777a5b3c095fd09a85b45270f2f"
                            },
                            {
                                "name": "spender",
                                "type": "address",
                                "value": "0x000000000022d473030f116ddee9f6b43ac78ba3"
                            },
                            {
                                "decimalAvailable": true,
                                "name": "value",
                                "type": "uint256",
                                "value": "115,792,089,237,316,195,423,570,985,008,687,907,853,269,984,665,640,564,039,457,584,007,735,711,183,845"
                            }
                        ],
                        "signature": "Approval(address,address,uint256)"
                    },
                    "id": 27,
                    "logData": "0xffffffffffffffffffffffffffffffffffffffffffffffffffffffd6b10933e5",
                    "logDecoded": true,
                    "operation": "EVENT",
                    "revert": false,
                    "status": true,
                    "topics": [
                        "0x8c5be1e5ebec7d5bd14f71427d1e84f3dd0314c0f7b2291e5b200ac8c7c3b925",
                        "0x00000000000000000000000035348ad788687777a5b3c095fd09a85b45270f2f",
                        "0x000000000000000000000000000000000022d473030f116ddee9f6b43ac78ba3"
                    ]
                },
                "nodeType": 1
            },
            "28": {
                "invocation": {
                    "address": "0xc02aaa39b223fe8d0a0e5c4f27ead9083c756cc2",
                    "callData": "0x0000000000000000000000003fc91a3afd70395cd496c647d5a6cc9d4b2b7fad",
                    "decodedMethod": {
                        "callParams": [
                            {
                                "name": "",
                                "type": "address",
                                "value": "0x3fc91a3afd70395cd496c647d5a6cc9d4b2b7fad"
                            }
                        ],
                        "constructorArguments": "",
                        "name": "balanceOf",
                        "returnParams": [
                            {
                                "decimalAvailable": true,
                                "name": "",
                                "type": "uint256",
                                "value": "0"
                            }
                        ],
                        "signature": "balanceOf(address)"
                    },
                    "errorInfo": "",
                    "fromAddress": "0x3fc91a3afd70395cd496c647d5a6cc9d4b2b7fad",
                    "gasUsed": 2534,
                    "id": 28,
                    "methodDecoded": true,
                    "operation": "STATICCALL",
                    "output": "0x0000000000000000000000000000000000000000000000000000000000000000",
                    "revert": false,
                    "revertMessage": "",
                    "selector": "0x70a08231",
                    "status": true,
                    "value": "0"
                },
                "nodeType": 0
            },
            "29": {
                "invocation": {
                    "address": "0x0526c94165f60dae2346722bef8b4b750e2e8f28",
                    "callData": "0x",
                    "decodedMethod": {
                        "callParams": [],
                        "constructorArguments": "",
                        "name": "getReserves",
                        "returnParams": [
                            {
                                "name": "_reserve0",
                                "type": "uint112",
                                "value": "16,202,063,454,316"
                            },
                            {
                                "name": "_reserve1",
                                "type": "uint112",
                                "value": "4,580,148,569,109,909,467"
                            },
                            {
                                "name": "_blockTimestampLast",
                                "type": "uint32",
                                "value": "1,691,338,247"
                            }
                        ],
                        "signature": "getReserves()"
                    },
                    "errorInfo": "",
                    "fromAddress": "0x3fc91a3afd70395cd496c647d5a6cc9d4b2b7fad",
                    "gasUsed": 504,
                    "id": 29,
                    "methodDecoded": true,
                    "operation": "STATICCALL",
                    "output": "0x00000000000000000000000000000000000000000000000000000ebc563ca06c0000000000000000000000000000000000000000000000003f8ff4db604f4fdb0000000000000000000000000000000000000000000000000000000064cfc607",
                    "revert": false,
                    "revertMessage": "",
                    "selector": "0x0902f1ac",
                    "status": true,
                    "value": "0"
                },
                "nodeType": 0
            },
            "3": {
                "invocation": {
                    "address": "0x7a250d5630b4cf539739df2c5dacb4c659f2488d",
                    "callData": "0x",
                    "decodedMethod": {
                        "callParams": [],
                        "constructorArguments": "",
                        "name": "WETH",
                        "returnParams": [
                            {
                                "name": "",
                                "type": "address",
                                "value": "0xc02aaa39b223fe8d0a0e5c4f27ead9083c756cc2"
                            }
                        ],
                        "signature": "WETH()"
                    },
                    "errorInfo": "",
                    "fromAddress": "0x0e2d206e4d6a61a68c18bdafb1cfe132913d94d9",
                    "gasUsed": 275,
                    "id": 3,
                    "methodDecoded": true,
                    "operation": "STATICCALL",
                    "output": "0x000000000000000000000000c02aaa39b223fe8d0a0e5c4f27ead9083c756cc2",
                    "revert": false,
                    "revertMessage": "",
                    "selector": "0xad5c4648",
                    "status": true,
                    "value": "0"
                },
                "nodeType": 0
            },
            "30": {
                "invocation": {
                    "address": "0x0e2d206e4d6a61a68c18bdafb1cfe132913d94d9",
                    "callData": "0x0000000000000000000000000526c94165f60dae2346722bef8b4b750e2e8f28",
                    "decodedMethod": {
                        "callParams": [
                            {
                                "name": "account",
                                "type": "address",
                                "value": "0x0526c94165f60dae2346722bef8b4b750e2e8f28"
                            }
                        ],
                        "constructorArguments": "",
                        "name": "balanceOf",
                        "returnParams": [
                            {
                                "decimalAvailable": true,
                                "name": "",
                                "type": "uint256",
                                "value": "16,277,933,541,285"
                            }
                        ],
                        "signature": "balanceOf(address)"
                    },
                    "errorInfo": "",
                    "fromAddress": "0x3fc91a3afd70395cd496c647d5a6cc9d4b2b7fad",
                    "gasUsed": 620,
                    "id": 30,
                    "methodDecoded": true,
                    "operation": "STATICCALL",
                    "output": "0x00000000000000000000000000000000000000000000000000000ece007247a5",
                    "revert": false,
                    "revertMessage": "",
                    "selector": "0x70a08231",
                    "status": true,
                    "value": "0"
                },
                "nodeType": 0
            },
            "31": {
                "invocation": {
                    "address": "0x0526c94165f60dae2346722bef8b4b750e2e8f28",
                    "callData": "0x0000000000000000000000000000000000000000000000000000000000000000000000000000000000000000000000000000000000000000004b9da26171ccc00000000000000000000000003fc91a3afd70395cd496c647d5a6cc9d4b2b7fad00000000000000000000000000000000000000000000000000000000000000800000000000000000000000000000000000000000000000000000000000000000",
                    "decodedMethod": {
                        "callParams": [
                            {
                                "name": "amount0Out",
                                "type": "uint256",
                                "value": "0"
                            },
                            {
                                "name": "amount1Out",
                                "type": "uint256",
                                "value": "21,283,943,998,409,920"
                            },
                            {
                                "name": "to",
                                "type": "address",
                                "value": "0x3fc91a3afd70395cd496c647d5a6cc9d4b2b7fad"
                            },
                            {
                                "name": "data",
                                "type": "bytes",
                                "value": "0x"
                            }
                        ],
                        "constructorArguments": "",
                        "name": "swap",
                        "returnParams": [],
                        "signature": "swap(uint256,uint256,address,bytes)"
                    },
                    "errorInfo": "",
                    "fromAddress": "0x3fc91a3afd70395cd496c647d5a6cc9d4b2b7fad",
                    "gasUsed": 36423,
                    "id": 31,
                    "methodDecoded": true,
                    "operation": "CALL",
                    "output": "",
                    "revert": false,
                    "revertMessage": "",
                    "selector": "0x022c0d9f",
                    "status": true,
                    "value": "0"
                },
                "nodeType": 0
            },
            "32": {
                "invocation": {
                    "address": "0xc02aaa39b223fe8d0a0e5c4f27ead9083c756cc2",
                    "callData": "0x0000000000000000000000003fc91a3afd70395cd496c647d5a6cc9d4b2b7fad000000000000000000000000000000000000000000000000004b9da26171ccc0",
                    "decodedMethod": {
                        "callParams": [
                            {
                                "name": "dst",
                                "type": "address",
                                "value": "0x3fc91a3afd70395cd496c647d5a6cc9d4b2b7fad"
                            },
                            {
                                "decimalAvailable": true,
                                "name": "wad",
                                "type": "uint256",
                                "value": "21,283,943,998,409,920"
                            }
                        ],
                        "constructorArguments": "",
                        "name": "transfer",
                        "returnParams": [
                            {
                                "name": "",
                                "type": "bool",
                                "value": true
                            }
                        ],
                        "signature": "transfer(address,uint256)"
                    },
                    "errorInfo": "",
                    "fromAddress": "0x0526c94165f60dae2346722bef8b4b750e2e8f28",
                    "gasUsed": 23162,
                    "id": 32,
                    "methodDecoded": true,
                    "operation": "CALL",
                    "output": "0x0000000000000000000000000000000000000000000000000000000000000001",
                    "revert": false,
                    "revertMessage": "",
                    "selector": "0xa9059cbb",
                    "status": true,
                    "value": "0"
                },
                "nodeType": 0
            },
            "33": {
                "event": {
                    "contract": "0xc02aaa39b223fe8d0a0e5c4f27ead9083c756cc2",
                    "decodedLog": {
                        "name": "Transfer",
                        "params": [
                            {
                                "name": "src",
                                "type": "address",
                                "value": "0x0526c94165f60dae2346722bef8b4b750e2e8f28"
                            },
                            {
                                "name": "dst",
                                "type": "address",
                                "value": "0x3fc91a3afd70395cd496c647d5a6cc9d4b2b7fad"
                            },
                            {
                                "decimalAvailable": true,
                                "name": "wad",
                                "type": "uint256",
                                "value": "21,283,943,998,409,920"
                            }
                        ],
                        "signature": "Transfer(address,address,uint256)"
                    },
                    "id": 33,
                    "logData": "0x000000000000000000000000000000000000000000000000004b9da26171ccc0",
                    "logDecoded": true,
                    "operation": "EVENT",
                    "revert": false,
                    "status": true,
                    "topics": [
                        "0xddf252ad1be2c89b69c2b068fc378daa952ba7f163c4a11628f55a4df523b3ef",
                        "0x0000000000000000000000000526c94165f60dae2346722bef8b4b750e2e8f28",
                        "0x0000000000000000000000003fc91a3afd70395cd496c647d5a6cc9d4b2b7fad"
                    ]
                },
                "nodeType": 1
            },
            "34": {
                "invocation": {
                    "address": "0x0e2d206e4d6a61a68c18bdafb1cfe132913d94d9",
                    "callData": "0x0000000000000000000000000526c94165f60dae2346722bef8b4b750e2e8f28",
                    "decodedMethod": {
                        "callParams": [
                            {
                                "name": "account",
                                "type": "address",
                                "value": "0x0526c94165f60dae2346722bef8b4b750e2e8f28"
                            }
                        ],
                        "constructorArguments": "",
                        "name": "balanceOf",
                        "returnParams": [
                            {
                                "decimalAvailable": true,
                                "name": "",
                                "type": "uint256",
                                "value": "16,277,933,541,285"
                            }
                        ],
                        "signature": "balanceOf(address)"
                    },
                    "errorInfo": "",
                    "fromAddress": "0x0526c94165f60dae2346722bef8b4b750e2e8f28",
                    "gasUsed": 620,
                    "id": 34,
                    "methodDecoded": true,
                    "operation": "STATICCALL",
                    "output": "0x00000000000000000000000000000000000000000000000000000ece007247a5",
                    "revert": false,
                    "revertMessage": "",
                    "selector": "0x70a08231",
                    "status": true,
                    "value": "0"
                },
                "nodeType": 0
            },
            "35": {
                "invocation": {
                    "address": "0xc02aaa39b223fe8d0a0e5c4f27ead9083c756cc2",
                    "callData": "0x0000000000000000000000000526c94165f60dae2346722bef8b4b750e2e8f28",
                    "decodedMethod": {
                        "callParams": [
                            {
                                "name": "",
                                "type": "address",
                                "value": "0x0526c94165f60dae2346722bef8b4b750e2e8f28"
                            }
                        ],
                        "constructorArguments": "",
                        "name": "balanceOf",
                        "returnParams": [
                            {
                                "decimalAvailable": true,
                                "name": "",
                                "type": "uint256",
                                "value": "4,558,864,625,111,499,547"
                            }
                        ],
                        "signature": "balanceOf(address)"
                    },
                    "errorInfo": "",
                    "fromAddress": "0x0526c94165f60dae2346722bef8b4b750e2e8f28",
                    "gasUsed": 534,
                    "id": 35,
                    "methodDecoded": true,
                    "operation": "STATICCALL",
                    "output": "0x0000000000000000000000000000000000000000000000003f445738fedd831b",
                    "revert": false,
                    "revertMessage": "",
                    "selector": "0x70a08231",
                    "status": true,
                    "value": "0"
                },
                "nodeType": 0
            },
            "36": {
                "event": {
                    "contract": "0x0526c94165f60dae2346722bef8b4b750e2e8f28",
                    "decodedLog": {
                        "name": "Sync",
                        "params": [
                            {
                                "name": "reserve0",
                                "type": "uint112",
                                "value": "16,277,933,541,285"
                            },
                            {
                                "name": "reserve1",
                                "type": "uint112",
                                "value": "4,558,864,625,111,499,547"
                            }
                        ],
                        "signature": "Sync(uint112,uint112)"
                    },
                    "id": 36,
                    "logData": "0x00000000000000000000000000000000000000000000000000000ece007247a50000000000000000000000000000000000000000000000003f445738fedd831b",
                    "logDecoded": true,
                    "operation": "EVENT",
                    "revert": false,
                    "status": true,
                    "topics": [
                        "0x1c411e9a96e071241c2f21f7726b17ae89e3cab4c78be50e062b03a9fffbbad1"
                    ]
                },
                "nodeType": 1
            },
            "37": {
                "event": {
                    "contract": "0x0526c94165f60dae2346722bef8b4b750e2e8f28",
                    "decodedLog": {
                        "name": "Swap",
                        "params": [
                            {
                                "name": "sender",
                                "type": "address",
                                "value": "0x3fc91a3afd70395cd496c647d5a6cc9d4b2b7fad"
                            },
                            {
                                "name": "to",
                                "type": "address",
                                "value": "0x3fc91a3afd70395cd496c647d5a6cc9d4b2b7fad"
                            },
                            {
                                "name": "amount0In",
                                "type": "uint256",
                                "value": "75,870,086,969"
                            },
                            {
                                "name": "amount1In",
                                "type": "uint256",
                                "value": "0"
                            },
                            {
                                "name": "amount0Out",
                                "type": "uint256",
                                "value": "0"
                            },
                            {
                                "name": "amount1Out",
                                "type": "uint256",
                                "value": "21,283,943,998,409,920"
                            }
                        ],
                        "signature": "Swap(address,uint256,uint256,uint256,uint256,address)"
                    },
                    "id": 37,
                    "logData": "0x00000000000000000000000000000000000000000000000000000011aa35a73900000000000000000000000000000000000000000000000000000000000000000000000000000000000000000000000000000000000000000000000000000000000000000000000000000000000000000000000000000000004b9da26171ccc0",
                    "logDecoded": true,
                    "operation": "EVENT",
                    "revert": false,
                    "status": true,
                    "topics": [
                        "0xd78ad95fa46c994b6551d0da85fc275fe613ce37657fb8d5e3d130840159d822",
                        "0x0000000000000000000000003fc91a3afd70395cd496c647d5a6cc9d4b2b7fad",
                        "0x0000000000000000000000003fc91a3afd70395cd496c647d5a6cc9d4b2b7fad"
                    ]
                },
                "nodeType": 1
            },
            "38": {
                "invocation": {
                    "address": "0xc02aaa39b223fe8d0a0e5c4f27ead9083c756cc2",
                    "callData": "0x0000000000000000000000003fc91a3afd70395cd496c647d5a6cc9d4b2b7fad",
                    "decodedMethod": {
                        "callParams": [
                            {
                                "name": "",
                                "type": "address",
                                "value": "0x3fc91a3afd70395cd496c647d5a6cc9d4b2b7fad"
                            }
                        ],
                        "constructorArguments": "",
                        "name": "balanceOf",
                        "returnParams": [
                            {
                                "decimalAvailable": true,
                                "name": "",
                                "type": "uint256",
                                "value": "21,283,943,998,409,920"
                            }
                        ],
                        "signature": "balanceOf(address)"
                    },
                    "errorInfo": "",
                    "fromAddress": "0x3fc91a3afd70395cd496c647d5a6cc9d4b2b7fad",
                    "gasUsed": 534,
                    "id": 38,
                    "methodDecoded": true,
                    "operation": "STATICCALL",
                    "output": "0x000000000000000000000000000000000000000000000000004b9da26171ccc0",
                    "revert": false,
                    "revertMessage": "",
                    "selector": "0x70a08231",
                    "status": true,
                    "value": "0"
                },
                "nodeType": 0
            },
            "39": {
                "invocation": {
                    "address": "0xc02aaa39b223fe8d0a0e5c4f27ead9083c756cc2",
                    "callData": "0x0000000000000000000000003fc91a3afd70395cd496c647d5a6cc9d4b2b7fad",
                    "decodedMethod": {
                        "callParams": [
                            {
                                "name": "",
                                "type": "address",
                                "value": "0x3fc91a3afd70395cd496c647d5a6cc9d4b2b7fad"
                            }
                        ],
                        "constructorArguments": "",
                        "name": "balanceOf",
                        "returnParams": [
                            {
                                "decimalAvailable": true,
                                "name": "",
                                "type": "uint256",
                                "value": "21,283,943,998,409,920"
                            }
                        ],
                        "signature": "balanceOf(address)"
                    },
                    "errorInfo": "",
                    "fromAddress": "0x3fc91a3afd70395cd496c647d5a6cc9d4b2b7fad",
                    "gasUsed": 534,
                    "id": 39,
                    "methodDecoded": true,
                    "operation": "STATICCALL",
                    "output": "0x000000000000000000000000000000000000000000000000004b9da26171ccc0",
                    "revert": false,
                    "revertMessage": "",
                    "selector": "0x70a08231",
                    "status": true,
                    "value": "0"
                },
                "nodeType": 0
            },
            "4": {
                "event": {
                    "contract": "0x0e2d206e4d6a61a68c18bdafb1cfe132913d94d9",
                    "decodedLog": {
                        "name": "Approval",
                        "params": [
                            {
                                "name": "owner",
                                "type": "address",
                                "value": "0x0e2d206e4d6a61a68c18bdafb1cfe132913d94d9"
                            },
                            {
                                "name": "spender",
                                "type": "address",
                                "value": "0x7a250d5630b4cf539739df2c5dacb4c659f2488d"
                            },
                            {
                                "decimalAvailable": true,
                                "name": "value",
                                "type": "uint256",
                                "value": "77,418,456,090"
                            }
                        ],
                        "signature": "Approval(address,address,uint256)"
                    },
                    "id": 4,
                    "logData": "0x00000000000000000000000000000000000000000000000000000012067fe41a",
                    "logDecoded": true,
                    "operation": "EVENT",
                    "revert": false,
                    "status": true,
                    "topics": [
                        "0x8c5be1e5ebec7d5bd14f71427d1e84f3dd0314c0f7b2291e5b200ac8c7c3b925",
                        "0x0000000000000000000000000e2d206e4d6a61a68c18bdafb1cfe132913d94d9",
                        "0x0000000000000000000000007a250d5630b4cf539739df2c5dacb4c659f2488d"
                    ]
                },
                "nodeType": 1
            },
            "40": {
                "invocation": {
                    "address": "0xc02aaa39b223fe8d0a0e5c4f27ead9083c756cc2",
                    "callData": "0x000000000000000000000000000000000000000000000000004b9da26171ccc0",
                    "decodedMethod": {
                        "callParams": [
                            {
                                "name": "wad",
                                "type": "uint256",
                                "value": "21,283,943,998,409,920"
                            }
                        ],
                        "constructorArguments": "",
                        "name": "withdraw",
                        "returnParams": [],
                        "signature": "withdraw(uint256)"
                    },
                    "errorInfo": "",
                    "fromAddress": "0x3fc91a3afd70395cd496c647d5a6cc9d4b2b7fad",
                    "gasUsed": 9220,
                    "id": 40,
                    "methodDecoded": true,
                    "operation": "CALL",
                    "output": "",
                    "revert": false,
                    "revertMessage": "",
                    "selector": "0x2e1a7d4d",
                    "status": true,
                    "value": "0"
                },
                "nodeType": 0
            },
            "41": {
                "invocation": {
                    "address": "0x3fc91a3afd70395cd496c647d5a6cc9d4b2b7fad",
                    "callData": "0x",
                    "decodedMethod": null,
                    "errorInfo": "",
                    "fromAddress": "0xc02aaa39b223fe8d0a0e5c4f27ead9083c756cc2",
                    "gasUsed": 80,
                    "id": 41,
                    "methodDecoded": false,
                    "operation": "CALL",
                    "output": "",
                    "revert": false,
                    "revertMessage": "",
                    "selector": "fallback",
                    "status": true,
                    "value": "0.02128394399840992"
                },
                "nodeType": 0
            },
            "42": {
                "event": {
                    "contract": "0xc02aaa39b223fe8d0a0e5c4f27ead9083c756cc2",
                    "decodedLog": {
                        "name": "Withdrawal",
                        "params": [
                            {
                                "name": "src",
                                "type": "address",
                                "value": "0x3fc91a3afd70395cd496c647d5a6cc9d4b2b7fad"
                            },
                            {
                                "name": "wad",
                                "type": "uint256",
                                "value": "21,283,943,998,409,920"
                            }
                        ],
                        "signature": "Withdrawal(address,uint256)"
                    },
                    "id": 42,
                    "logData": "0x000000000000000000000000000000000000000000000000004b9da26171ccc0",
                    "logDecoded": true,
                    "operation": "EVENT",
                    "revert": false,
                    "status": true,
                    "topics": [
                        "0x7fcf532c15f0a6db0bd6d0e038bea71d30d808c7d98cb3bf7268a95bf5081b65",
                        "0x0000000000000000000000003fc91a3afd70395cd496c647d5a6cc9d4b2b7fad"
                    ]
                },
                "nodeType": 1
            },
            "43": {
                "invocation": {
                    "address": "0x35348ad788687777a5b3c095fd09a85b45270f2f",
                    "callData": "0x",
                    "decodedMethod": null,
                    "errorInfo": "",
                    "fromAddress": "0x3fc91a3afd70395cd496c647d5a6cc9d4b2b7fad",
                    "gasUsed": 0,
                    "id": 43,
                    "methodDecoded": false,
                    "operation": "CALL",
                    "output": "",
                    "revert": false,
                    "revertMessage": "",
                    "selector": "fallback",
                    "status": true,
                    "value": "0.02128394399840992"
                },
                "nodeType": 0
            },
            "5": {
                "invocation": {
                    "address": "0x7a250d5630b4cf539739df2c5dacb4c659f2488d",
                    "callData": "0x00000000000000000000000000000000000000000000000000000012067fe41a000000000000000000000000000000000000000000000000000000000000000000000000000000000000000000000000000000000000000000000000000000a00000000000000000000000000e2d206e4d6a61a68c18bdafb1cfe132913d94d90000000000000000000000000000000000000000000000000000000064cfc60700000000000000000000000000000000000000000000000000000000000000020000000000000000000000000e2d206e4d6a61a68c18bdafb1cfe132913d94d9000000000000000000000000c02aaa39b223fe8d0a0e5c4f27ead9083c756cc2",
                    "decodedMethod": {
                        "callParams": [
                            {
                                "name": "amountIn",
                                "type": "uint256",
                                "value": "77,418,456,090"
                            },
                            {
                                "name": "amountOutMin",
                                "type": "uint256",
                                "value": "0"
                            },
                            {
                                "name": "path",
                                "type": "address[]",
                                "value": [
                                    "0x0e2d206e4d6a61a68c18bdafb1cfe132913d94d9",
                                    "0xc02aaa39b223fe8d0a0e5c4f27ead9083c756cc2"
                                ]
                            },
                            {
                                "name": "to",
                                "type": "address",
                                "value": "0x0e2d206e4d6a61a68c18bdafb1cfe132913d94d9"
                            },
                            {
                                "name": "deadline",
                                "type": "uint256",
                                "value": "1,691,338,247"
                            }
                        ],
                        "constructorArguments": "",
                        "name": "swapExactTokensForETHSupportingFeeOnTransferTokens",
                        "returnParams": [],
                        "signature": "swapExactTokensForETHSupportingFeeOnTransferTokens(uint256,uint256,address[],address,uint256)"
                    },
                    "errorInfo": "",
                    "fromAddress": "0x0e2d206e4d6a61a68c18bdafb1cfe132913d94d9",
                    "gasUsed": 105489,
                    "id": 5,
                    "methodDecoded": true,
                    "operation": "CALL",
                    "output": "",
                    "revert": false,
                    "revertMessage": "",
                    "selector": "0x791ac947",
                    "status": true,
                    "value": "0"
                },
                "nodeType": 0
            },
            "6": {
                "invocation": {
                    "address": "0x0e2d206e4d6a61a68c18bdafb1cfe132913d94d9",
                    "callData": "0x0000000000000000000000000e2d206e4d6a61a68c18bdafb1cfe132913d94d90000000000000000000000000526c94165f60dae2346722bef8b4b750e2e8f2800000000000000000000000000000000000000000000000000000012067fe41a",
                    "decodedMethod": {
                        "callParams": [
                            {
                                "name": "sender",
                                "type": "address",
                                "value": "0x0e2d206e4d6a61a68c18bdafb1cfe132913d94d9"
                            },
                            {
                                "name": "recipient",
                                "type": "address",
                                "value": "0x0526c94165f60dae2346722bef8b4b750e2e8f28"
                            },
                            {
                                "decimalAvailable": true,
                                "name": "amount",
                                "type": "uint256",
                                "value": "77,418,456,090"
                            }
                        ],
                        "constructorArguments": "",
                        "name": "transferFrom",
                        "returnParams": [
                            {
                                "name": "",
                                "type": "bool",
                                "value": true
                            }
                        ],
                        "signature": "transferFrom(address,address,uint256)"
                    },
                    "errorInfo": "",
                    "fromAddress": "0x7a250d5630b4cf539739df2c5dacb4c659f2488d",
                    "gasUsed": 21393,
                    "id": 6,
                    "methodDecoded": true,
                    "operation": "CALL",
                    "output": "0x0000000000000000000000000000000000000000000000000000000000000001",
                    "revert": false,
                    "revertMessage": "",
                    "selector": "0x23b872dd",
                    "status": true,
                    "value": "0"
                },
                "nodeType": 0
            },
            "7": {
                "event": {
                    "contract": "0x0e2d206e4d6a61a68c18bdafb1cfe132913d94d9",
                    "decodedLog": {
                        "name": "Transfer",
                        "params": [
                            {
                                "name": "from",
                                "type": "address",
                                "value": "0x0e2d206e4d6a61a68c18bdafb1cfe132913d94d9"
                            },
                            {
                                "name": "to",
                                "type": "address",
                                "value": "0x0e2d206e4d6a61a68c18bdafb1cfe132913d94d9"
                            },
                            {
                                "decimalAvailable": true,
                                "name": "value",
                                "type": "uint256",
                                "value": "1,548,369,121"
                            }
                        ],
                        "signature": "Transfer(address,address,uint256)"
                    },
                    "id": 7,
                    "logData": "0x000000000000000000000000000000000000000000000000000000005c4a3ce1",
                    "logDecoded": true,
                    "operation": "EVENT",
                    "revert": false,
                    "status": true,
                    "topics": [
                        "0xddf252ad1be2c89b69c2b068fc378daa952ba7f163c4a11628f55a4df523b3ef",
                        "0x0000000000000000000000000e2d206e4d6a61a68c18bdafb1cfe132913d94d9",
                        "0x0000000000000000000000000e2d206e4d6a61a68c18bdafb1cfe132913d94d9"
                    ]
                },
                "nodeType": 1
            },
            "8": {
                "event": {
                    "contract": "0x0e2d206e4d6a61a68c18bdafb1cfe132913d94d9",
                    "decodedLog": {
                        "name": "Transfer",
                        "params": [
                            {
                                "name": "from",
                                "type": "address",
                                "value": "0x0e2d206e4d6a61a68c18bdafb1cfe132913d94d9"
                            },
                            {
                                "name": "to",
                                "type": "address",
                                "value": "0x0526c94165f60dae2346722bef8b4b750e2e8f28"
                            },
                            {
                                "decimalAvailable": true,
                                "name": "value",
                                "type": "uint256",
                                "value": "75,870,086,969"
                            }
                        ],
                        "signature": "Transfer(address,address,uint256)"
                    },
                    "id": 8,
                    "logData": "0x00000000000000000000000000000000000000000000000000000011aa35a739",
                    "logDecoded": true,
                    "operation": "EVENT",
                    "revert": false,
                    "status": true,
                    "topics": [
                        "0xddf252ad1be2c89b69c2b068fc378daa952ba7f163c4a11628f55a4df523b3ef",
                        "0x0000000000000000000000000e2d206e4d6a61a68c18bdafb1cfe132913d94d9",
                        "0x0000000000000000000000000526c94165f60dae2346722bef8b4b750e2e8f28"
                    ]
                },
                "nodeType": 1
            },
            "9": {
                "event": {
                    "contract": "0x0e2d206e4d6a61a68c18bdafb1cfe132913d94d9",
                    "decodedLog": {
                        "name": "Approval",
                        "params": [
                            {
                                "name": "owner",
                                "type": "address",
                                "value": "0x0e2d206e4d6a61a68c18bdafb1cfe132913d94d9"
                            },
                            {
                                "name": "spender",
                                "type": "address",
                                "value": "0x7a250d5630b4cf539739df2c5dacb4c659f2488d"
                            },
                            {
                                "decimalAvailable": true,
                                "name": "value",
                                "type": "uint256",
                                "value": "0"
                            }
                        ],
                        "signature": "Approval(address,address,uint256)"
                    },
                    "id": 9,
                    "logData": "0x0000000000000000000000000000000000000000000000000000000000000000",
                    "logDecoded": true,
                    "operation": "EVENT",
                    "revert": false,
                    "status": true,
                    "topics": [
                        "0x8c5be1e5ebec7d5bd14f71427d1e84f3dd0314c0f7b2291e5b200ac8c7c3b925",
                        "0x0000000000000000000000000e2d206e4d6a61a68c18bdafb1cfe132913d94d9",
                        "0x0000000000000000000000007a250d5630b4cf539739df2c5dacb4c659f2488d"
                    ]
                },
                "nodeType": 1
            }
        },
        "gasFlame": [
            {
                "children": [
                    {
                        "children": [
                            {
                                "children": [],
                                "depth": 0,
                                "name": "Initial Gas",
                                "value": 24572
                            },
                            {
                                "children": [
                                    {
                                        "children": [
                                            {
                                                "children": [
                                                    {
                                                        "children": [],
                                                        "depth": 3,
                                                        "name": "WETH",
                                                        "value": 275
                                                    },
                                                    {
                                                        "children": [
                                                            {
                                                                "children": [],
                                                                "depth": 4,
                                                                "name": "transferFrom",
                                                                "value": 21393
                                                            },
                                                            {
                                                                "children": [],
                                                                "depth": 4,
                                                                "name": "getReserves",
                                                                "value": 2504
                                                            },
                                                            {
                                                                "children": [],
                                                                "depth": 4,
                                                                "name": "balanceOf",
                                                                "value": 620
                                                            },
                                                            {
                                                                "children": [
                                                                    {
                                                                        "children": [],
                                                                        "depth": 5,
                                                                        "name": "transfer",
                                                                        "value": 29962
                                                                    },
                                                                    {
                                                                        "children": [],
                                                                        "depth": 5,
                                                                        "name": "balanceOf",
                                                                        "value": 620
                                                                    },
                                                                    {
                                                                        "children": [],
                                                                        "depth": 5,
                                                                        "name": "balanceOf",
                                                                        "value": 534
                                                                    }
                                                                ],
                                                                "depth": 4,
                                                                "name": "swap",
                                                                "value": 54523
                                                            },
                                                            {
                                                                "children": [],
                                                                "depth": 4,
                                                                "name": "balanceOf",
                                                                "value": 534
                                                            },
                                                            {
                                                                "children": [
                                                                    {
                                                                        "children": [],
                                                                        "depth": 5,
                                                                        "name": "fallback",
                                                                        "value": 83
                                                                    }
                                                                ],
                                                                "depth": 4,
                                                                "name": "withdraw",
                                                                "value": 9223
                                                            },
                                                            {
                                                                "children": [],
                                                                "depth": 4,
                                                                "name": "fallback",
                                                                "value": 55
                                                            }
                                                        ],
                                                        "depth": 3,
                                                        "name": "swapExactTokensForETHSupportingFeeOnTransferTokens",
                                                        "value": 105489
                                                    },
                                                    {
                                                        "children": [],
                                                        "depth": 3,
                                                        "name": "fallback",
                                                        "value": 0
                                                    }
                                                ],
                                                "depth": 2,
                                                "name": "transferFrom",
                                                "value": 200354
                                            }
                                        ],
                                        "depth": 1,
                                        "name": "transferFrom",
                                        "value": 206061
                                    },
                                    {
                                        "children": [],
                                        "depth": 1,
                                        "name": "balanceOf",
                                        "value": 2534
                                    },
                                    {
                                        "children": [],
                                        "depth": 1,
                                        "name": "getReserves",
                                        "value": 504
                                    },
                                    {
                                        "children": [],
                                        "depth": 1,
                                        "name": "balanceOf",
                                        "value": 620
                                    },
                                    {
                                        "children": [
                                            {
                                                "children": [],
                                                "depth": 2,
                                                "name": "transfer",
                                                "value": 23162
                                            },
                                            {
                                                "children": [],
                                                "depth": 2,
                                                "name": "balanceOf",
                                                "value": 620
                                            },
                                            {
                                                "children": [],
                                                "depth": 2,
                                                "name": "balanceOf",
                                                "value": 534
                                            }
                                        ],
                                        "depth": 1,
                                        "name": "swap",
                                        "value": 36423
                                    },
                                    {
                                        "children": [],
                                        "depth": 1,
                                        "name": "balanceOf",
                                        "value": 534
                                    },
                                    {
                                        "children": [],
                                        "depth": 1,
                                        "name": "balanceOf",
                                        "value": 534
                                    },
                                    {
                                        "children": [
                                            {
                                                "children": [],
                                                "depth": 2,
                                                "name": "fallback",
                                                "value": 80
                                            }
                                        ],
                                        "depth": 1,
                                        "name": "withdraw",
                                        "value": 9220
                                    },
                                    {
                                        "children": [],
                                        "depth": 1,
                                        "name": "fallback",
                                        "value": 0
                                    }
                                ],
                                "depth": 0,
                                "name": "Executed Gas",
                                "value": 280076
                            }
                        ],
                        "depth": -1,
                        "name": "Actual Gas Used",
                        "value": 243719
                    },
                    {
                        "children": [],
                        "depth": -1,
                        "name": "Refunded Gas",
                        "value": 60929
                    }
                ],
                "depth": -2,
                "name": "Total Gas",
                "value": 304648
            }
        ],
        "isConfirmed": true,
        "mainTrace": [
            {
                "children": [
                    {
                        "children": [
                            {
                                "children": [
                                    {
                                        "children": [
                                            {
                                                "children": [],
                                                "depth": 3,
                                                "id": 3,
                                                "order": 3
                                            },
                                            {
                                                "children": [],
                                                "depth": 3,
                                                "id": 4,
                                                "order": 4
                                            },
                                            {
                                                "children": [
                                                    {
                                                        "children": [
                                                            {
                                                                "children": [],
                                                                "depth": 5,
                                                                "id": 7,
                                                                "order": 7
                                                            },
                                                            {
                                                                "children": [],
                                                                "depth": 5,
                                                                "id": 8,
                                                                "order": 8
                                                            },
                                                            {
                                                                "children": [],
                                                                "depth": 5,
                                                                "id": 9,
                                                                "order": 9
                                                            }
                                                        ],
                                                        "depth": 4,
                                                        "id": 6,
                                                        "order": 6
                                                    },
                                                    {
                                                        "children": [],
                                                        "depth": 4,
                                                        "id": 10,
                                                        "order": 10
                                                    },
                                                    {
                                                        "children": [],
                                                        "depth": 4,
                                                        "id": 11,
                                                        "order": 11
                                                    },
                                                    {
                                                        "children": [
                                                            {
                                                                "children": [
                                                                    {
                                                                        "children": [],
                                                                        "depth": 6,
                                                                        "id": 14,
                                                                        "order": 14
                                                                    }
                                                                ],
                                                                "depth": 5,
                                                                "id": 13,
                                                                "order": 13
                                                            },
                                                            {
                                                                "children": [],
                                                                "depth": 5,
                                                                "id": 15,
                                                                "order": 15
                                                            },
                                                            {
                                                                "children": [],
                                                                "depth": 5,
                                                                "id": 16,
                                                                "order": 16
                                                            },
                                                            {
                                                                "children": [],
                                                                "depth": 5,
                                                                "id": 17,
                                                                "order": 17
                                                            },
                                                            {
                                                                "children": [],
                                                                "depth": 5,
                                                                "id": 18,
                                                                "order": 18
                                                            }
                                                        ],
                                                        "depth": 4,
                                                        "id": 12,
                                                        "order": 12
                                                    },
                                                    {
                                                        "children": [],
                                                        "depth": 4,
                                                        "id": 19,
                                                        "order": 19
                                                    },
                                                    {
                                                        "children": [
                                                            {
                                                                "children": [],
                                                                "depth": 5,
                                                                "id": 21,
                                                                "order": 21
                                                            },
                                                            {
                                                                "children": [],
                                                                "depth": 5,
                                                                "id": 22,
                                                                "order": 22
                                                            }
                                                        ],
                                                        "depth": 4,
                                                        "id": 20,
                                                        "order": 20
                                                    },
                                                    {
                                                        "children": [],
                                                        "depth": 4,
                                                        "id": 23,
                                                        "order": 23
                                                    }
                                                ],
                                                "depth": 3,
                                                "id": 5,
                                                "order": 5
                                            },
                                            {
                                                "children": [],
                                                "depth": 3,
                                                "id": 24,
                                                "order": 24
                                            },
                                            {
                                                "children": [],
                                                "depth": 3,
                                                "id": 25,
                                                "order": 25
                                            },
                                            {
                                                "children": [],
                                                "depth": 3,
                                                "id": 26,
                                                "order": 26
                                            },
                                            {
                                                "children": [],
                                                "depth": 3,
                                                "id": 27,
                                                "order": 27
                                            }
                                        ],
                                        "depth": 2,
                                        "id": 2,
                                        "order": 2
                                    }
                                ],
                                "depth": 1,
                                "id": 1,
                                "order": 1
                            },
                            {
                                "children": [],
                                "depth": 1,
                                "id": 28,
                                "order": 28
                            },
                            {
                                "children": [],
                                "depth": 1,
                                "id": 29,
                                "order": 29
                            },
                            {
                                "children": [],
                                "depth": 1,
                                "id": 30,
                                "order": 30
                            },
                            {
                                "children": [
                                    {
                                        "children": [
                                            {
                                                "children": [],
                                                "depth": 3,
                                                "id": 33,
                                                "order": 33
                                            }
                                        ],
                                        "depth": 2,
                                        "id": 32,
                                        "order": 32
                                    },
                                    {
                                        "children": [],
                                        "depth": 2,
                                        "id": 34,
                                        "order": 34
                                    },
                                    {
                                        "children": [],
                                        "depth": 2,
                                        "id": 35,
                                        "order": 35
                                    },
                                    {
                                        "children": [],
                                        "depth": 2,
                                        "id": 36,
                                        "order": 36
                                    },
                                    {
                                        "children": [],
                                        "depth": 2,
                                        "id": 37,
                                        "order": 37
                                    }
                                ],
                                "depth": 1,
                                "id": 31,
                                "order": 31
                            },
                            {
                                "children": [],
                                "depth": 1,
                                "id": 38,
                                "order": 38
                            },
                            {
                                "children": [],
                                "depth": 1,
                                "id": 39,
                                "order": 39
                            },
                            {
                                "children": [
                                    {
                                        "children": [],
                                        "depth": 2,
                                        "id": 41,
                                        "order": 41
                                    },
                                    {
                                        "children": [],
                                        "depth": 2,
                                        "id": 42,
                                        "order": 42
                                    }
                                ],
                                "depth": 1,
                                "id": 40,
                                "order": 40
                            },
                            {
                                "children": [],
                                "depth": 1,
                                "id": 43,
                                "order": 43
                            }
                        ],
                        "depth": 0,
                        "id": 0,
                        "order": 0
                    }
                ],
                "depth": -1,
                "id": -1,
                "order": -1
            }
        ],
        "mainTraceNodeCount": 44,
        "parentIdMap": {
            "0": -1,
            "1": 0,
            "10": 5,
            "11": 5,
            "12": 5,
            "13": 12,
            "14": 13,
            "15": 12,
            "16": 12,
            "17": 12,
            "18": 12,
            "19": 5,
            "2": 1,
            "20": 5,
            "21": 20,
            "22": 20,
            "23": 5,
            "24": 2,
            "25": 2,
            "26": 2,
            "27": 2,
            "28": 0,
            "29": 0,
            "3": 2,
            "30": 0,
            "31": 0,
            "32": 31,
            "33": 32,
            "34": 31,
            "35": 31,
            "36": 31,
            "37": 31,
            "38": 0,
            "39": 0,
            "4": 2,
            "40": 0,
            "41": 40,
            "42": 40,
            "43": 0,
            "5": 2,
            "6": 5,
            "7": 6,
            "8": 6,
            "9": 6
        },
        "tidyTrace": [
            {
                "children": [
                    {
                        "children": [
                            {
                                "children": [
                                    {
                                        "children": [
                                            {
                                                "children": [],
                                                "depth": 3,
                                                "id": 4,
                                                "order": 4
                                            },
                                            {
                                                "children": [
                                                    {
                                                        "children": [
                                                            {
                                                                "children": [],
                                                                "depth": 5,
                                                                "id": 7,
                                                                "order": 7
                                                            },
                                                            {
                                                                "children": [],
                                                                "depth": 5,
                                                                "id": 8,
                                                                "order": 8
                                                            },
                                                            {
                                                                "children": [],
                                                                "depth": 5,
                                                                "id": 9,
                                                                "order": 9
                                                            }
                                                        ],
                                                        "depth": 4,
                                                        "id": 6,
                                                        "order": 6
                                                    },
                                                    {
                                                        "children": [
                                                            {
                                                                "children": [
                                                                    {
                                                                        "children": [],
                                                                        "depth": 6,
                                                                        "id": 14,
                                                                        "order": 14
                                                                    }
                                                                ],
                                                                "depth": 5,
                                                                "id": 13,
                                                                "order": 13
                                                            },
                                                            {
                                                                "children": [],
                                                                "depth": 5,
                                                                "id": 17,
                                                                "order": 17
                                                            },
                                                            {
                                                                "children": [],
                                                                "depth": 5,
                                                                "id": 18,
                                                                "order": 18
                                                            }
                                                        ],
                                                        "depth": 4,
                                                        "id": 12,
                                                        "order": 12
                                                    },
                                                    {
                                                        "children": [
                                                            {
                                                                "children": [],
                                                                "depth": 5,
                                                                "id": 21,
                                                                "order": 21
                                                            },
                                                            {
                                                                "children": [],
                                                                "depth": 5,
                                                                "id": 22,
                                                                "order": 22
                                                            }
                                                        ],
                                                        "depth": 4,
                                                        "id": 20,
                                                        "order": 20
                                                    },
                                                    {
                                                        "children": [],
                                                        "depth": 4,
                                                        "id": 23,
                                                        "order": 23
                                                    }
                                                ],
                                                "depth": 3,
                                                "id": 5,
                                                "order": 5
                                            },
                                            {
                                                "children": [],
                                                "depth": 3,
                                                "id": 24,
                                                "order": 24
                                            },
                                            {
                                                "children": [],
                                                "depth": 3,
                                                "id": 25,
                                                "order": 25
                                            },
                                            {
                                                "children": [],
                                                "depth": 3,
                                                "id": 26,
                                                "order": 26
                                            },
                                            {
                                                "children": [],
                                                "depth": 3,
                                                "id": 27,
                                                "order": 27
                                            }
                                        ],
                                        "depth": 2,
                                        "id": 2,
                                        "order": 2
                                    }
                                ],
                                "depth": 1,
                                "id": 1,
                                "order": 1
                            },
                            {
                                "children": [
                                    {
                                        "children": [
                                            {
                                                "children": [],
                                                "depth": 3,
                                                "id": 33,
                                                "order": 33
                                            }
                                        ],
                                        "depth": 2,
                                        "id": 32,
                                        "order": 32
                                    },
                                    {
                                        "children": [],
                                        "depth": 2,
                                        "id": 36,
                                        "order": 36
                                    },
                                    {
                                        "children": [],
                                        "depth": 2,
                                        "id": 37,
                                        "order": 37
                                    }
                                ],
                                "depth": 1,
                                "id": 31,
                                "order": 31
                            },
                            {
                                "children": [
                                    {
                                        "children": [],
                                        "depth": 2,
                                        "id": 41,
                                        "order": 41
                                    },
                                    {
                                        "children": [],
                                        "depth": 2,
                                        "id": 42,
                                        "order": 42
                                    }
                                ],
                                "depth": 1,
                                "id": 40,
                                "order": 40
                            },
                            {
                                "children": [],
                                "depth": 1,
                                "id": 43,
                                "order": 43
                            }
                        ],
                        "depth": 0,
                        "id": 0,
                        "order": 0
                    }
                ],
                "depth": -1,
                "id": -1,
                "order": -1
            }
        ],
        "tidyTraceNodeCount": 31
    },
    "state_change": {
        "stateChanges": [
            {
                "address": "0x0526c94165f60dae2346722bef8b4b750e2e8f28",
                "erc": "ERC-20",
                "slots": [
                    {
                        "current": "0x64cfc6070000000000003f445738fedd831b00000000000000000ece007247a5",
                        "key": "0x0000000000000000000000000000000000000000000000000000000000000008",
                        "prev": "0x64cfc6070000000000003fdc485d5593374200000000000000000eaaac06f933"
                    }
                ],
                "storageVariables": [
                    {
                        "name": "reserve0",
                        "type": "uint112",
                        "value": {
                            "current": "16277933541285",
                            "prev": "16126193367347",
                            "typeTag": 1
                        }
                    },
                    {
                        "name": "reserve1",
                        "type": "uint112",
                        "value": {
                            "current": "4558864625111499547",
                            "prev": "4601632484970673986",
                            "typeTag": 1
                        }
                    },
                    {
                        "name": "blockTimestampLast",
                        "type": "uint32",
                        "value": {
                            "current": "1691338247",
                            "prev": "1691338247",
                            "typeTag": 1
                        }
                    }
                ]
            },
            {
                "address": "0x0e2d206e4d6a61a68c18bdafb1cfe132913d94d9",
                "erc": "ERC-20",
                "slots": [
                    {
                        "current": "0xffffffffffffffffffffffffffffffffffffffffffffffffffffffd6b10933e5",
                        "key": "0xd143394af809ef942f879b2b9644216e073fa19dee13b2f9ac70798a15be2a82",
                        "prev": "0xffffffffffffffffffffffffffffffffffffffffffffffffffffffe8b78917ff"
                    },
                    {
                        "current": "0x000000000000000000000000000000000000000000000000000005681bec7f2b",
                        "key": "0x5df65c9b900bb1c10185de86ff6be1242de586d5930246d7ece3c96730b51524",
                        "prev": "0x0000000000000000000000000000000000000000000000000000057969d7e983"
                    },
                    {
                        "current": "0x00000000000000000000000000000000000000000000000000000ece007247a5",
                        "key": "0x49b1d1519eb830826387ebd9db58265ba8d9ab0f7cbb9ff85a29cb27cad70213",
                        "prev": "0x00000000000000000000000000000000000000000000000000000eaaac06f933"
                    },
                    {
                        "current": "0x0000000000000000000000000000000000000000000000000000000000000000",
                        "key": "0x3b132e4ba8b8300298040ed0fc8401af5e44e4be92922a4761b61505dbb61233",
                        "prev": "0x00000000000000000000000000000000000000000000000000000012067fe41a"
                    }
                ],
                "storageVariables": [
                    {
                        "name": "_allowances",
                        "type": "mapping(address => mapping(address => uint256))",
                        "value": {
                            "pairs": [
                                {
                                    "key": "0x35348ad788687777a5b3c095fd09a85b45270f2f",
                                    "value": {
                                        "pairs": [
                                            {
                                                "key": "0x000000000022d473030f116ddee9f6b43ac78ba3",
                                                "value": {
                                                    "current": "115792089237316195423570985008687907853269984665640564039457584007735711183845",
                                                    "prev": "115792089237316195423570985008687907853269984665640564039457584007813129639935",
                                                    "typeTag": 1
                                                }
                                            }
                                        ],
                                        "typeTag": 4
                                    }
                                }
                            ],
                            "typeTag": 4
                        }
                    },
                    {
                        "name": "_balances",
                        "type": "mapping(address => uint256)",
                        "value": {
                            "pairs": [
                                {
                                    "key": "0x0526c94165f60dae2346722bef8b4b750e2e8f28",
                                    "value": {
                                        "current": "16277933541285",
                                        "prev": "16126193367347",
                                        "typeTag": 1
                                    }
                                },
                                {
                                    "key": "0x0e2d206e4d6a61a68c18bdafb1cfe132913d94d9",
                                    "value": {
                                        "current": "5944703221547",
                                        "prev": "6019024939395",
                                        "typeTag": 1
                                    }
                                },
                                {
                                    "key": "0x35348ad788687777a5b3c095fd09a85b45270f2f",
                                    "value": {
                                        "current": "0",
                                        "prev": "77418456090",
                                        "typeTag": 1
                                    }
                                }
                            ],
                            "typeTag": 4
                        }
                    }
                ]
            },
            {
                "address": "0xc02aaa39b223fe8d0a0e5c4f27ead9083c756cc2",
                "erc": "ERC-20",
                "slots": [
                    {
                        "current": "0x0000000000000000000000000000000000000000000000003f445738fedd831b",
                        "key": "0xadbcf0afd6283b3635238c57c0649a513f944360fbe36aa227651fcd8c15af68",
                        "prev": "0x0000000000000000000000000000000000000000000000003fdc485d55933742"
                    }
                ],
                "storageVariables": [
                    {
                        "name": "balanceOf",
                        "type": "mapping(address => uint256)",
                        "value": {
                            "pairs": [
                                {
                                    "key": "0x0526c94165f60dae2346722bef8b4b750e2e8f28",
                                    "value": {
                                        "current": "4558864625111499547",
                                        "prev": "4601632484970673986",
                                        "typeTag": 1
                                    }
                                }
                            ],
                            "typeTag": 4
                        }
                    }
                ]
            }
        ]
    }
}