{
    "balance_change": {
        "balanceChanges": [
            {
                "account": "0x86e915743aa6f12b8e326cc6ab5cadf210a2fcfd",
                "assets": [
                    {
                        "address": "0x98f777fb9139576902bf7f35956ca015ddc1569f",
                        "amount": "505.448585",
                        "iconUrl": "",
                        "isERC1155": false,
                        "isERC721": false,
                        "sign": false,
                        "value": ""
                    }
                ]
            },
            {
                "account": "0xe05e391c437fd065d2b288947a74d8df9dcfc300",
                "assets": [
                    {
                        "address": "0x98f777fb9139576902bf7f35956ca015ddc1569f",
                        "amount": "505.448585",
                        "iconUrl": "",
                        "isERC1155": false,
                        "isERC721": false,
                        "sign": true,
                        "value": ""
                    }
                ]
            }
        ]
    },
    "profile": {
        "basic_info": {
            "baseFee": "",
            "blockNumber": 8056788,
            "callData": "0xa9059cbb000000000000000000000000e05e391c437fd065d2b288947a74d8df9dcfc3000000000000000000000000000000000000000000000000000000000bc4b55584",
            "debugEnable": true,
            "errorInfo": "",
            "eventCount": 1,
            "feeRecipient": "0xea674fdde714fd979de3edf0f56aa9716b898ec8",
            "formatValue": "0",
            "gasLimit": 90000,
            "gasPrice": "10",
            "gasUsed": 23070,
            "intTxnCount": 0,
            "internalRevert": false,
            "internalRevertMessage": "",
            "isContractCreation": false,
            "isFlashloan": false,
            "maxFee": "",
            "nonce": 2,
            "overwritedBlockNumber": -1,
            "priorityFee": "",
            "receiver": "0x98f777fb9139576902bf7f35956ca015ddc1569f",
            "revertMessage": "",
            "sender": "0x86e915743aa6f12b8e326cc6ab5cadf210a2fcfd",
            "simulationEnable": true,
            "sourceTxnHash": "0x02831eb3304752d57487aab445105b7527acb3ceaf7f1026f6895de6877d79bd",
            "status": true,
            "timestamp": "2019-06-30T03:30:17Z",
            "transactionFee": "0.0002307",
            "txnHash": "0x02831eb3304752d57487aab445105b7527acb3ceaf7f1026f6895de6877d79bd",
            "txnIndex": 162,
            "type": 0,
            "value": "0"
        },
        "fund_flow": [
            {
                "amount": "505.448585",
                "from": "0x86e915743aa6f12b8e326cc6ab5cadf210a2fcfd",
                "id": 1,
                "isERC1155": false,
                "isERC721": false,
                "isReverted": false,
                "order": 1,
                "to": "0xe05e391c437fd065d2b288947a74d8df9dcfc300",
                "token": "0x98f777fb9139576902bf7f35956ca015ddc1569f"
            }
        ],
        "token_infos": [
            {
                "address": "0x98f777fb9139576902bf7f35956ca015ddc1569f",
                "decimals": 8
            },
            {
                "address": "0xc02aaa39b223fe8d0a0e5c4f27ead9083c756cc2",
                "decimals": 18
            },
            {
                "address": "0xeeeeeeeeeeeeeeeeeeeeeeeeeeeeeeeeeeeeeeee",
                "decimals": 18
            }
        ]
    },
    "address_label": {
        "labels": [
            {
                "address": "0x0000000000000000000000000000000000000004",
                "label": "Precompiled"
            },
            {
                "address": "0xeeeeeeeeeeeeeeeeeeeeeeeeeeeeeeeeeeeeeeee",
                "label": "Ether"
            },
            {
                "address": "0x98f777fb9139576902bf7f35956ca015ddc1569f",
                "label": "ETJ"
            },
            {
                "address": "0x0000000000000000000000000000000000000001",
                "label": "Precompiled"
            },
            {
                "address": "0x0000000000000000000000000000000000000002",
                "label": "Precompiled"
            },
            {
                "address": "0x0000000000000000000000000000000000000003",
                "label": "Precompiled"
            }
        ]
    },
    "trace": {
        "accountLabels": null,
        "dataMap": {
            "-1": {
                "invocation": {
                    "address": "0x86e915743aa6f12b8e326cc6ab5cadf210a2fcfd",
                    "callData": "",
                    "decodedMethod": null,
                    "errorInfo": "",
                    "fromAddress": "",
                    "gasUsed": 0,
                    "id": -1,
                    "methodDecoded": false,
                    "operation": "",
                    "output": "",
                    "revert": false,
                    "revertMessage": "",
                    "selector": "",
                    "status": false,
                    "value": ""
                },
                "nodeType": 0
            },
            "0": {
                "invocation": {
                    "address": "0x98f777fb9139576902bf7f35956ca015ddc1569f",
                    "callData": "0x000000000000000000000000e05e391c437fd065d2b288947a74d8df9dcfc3000000000000000000000000000000000000000000000000000000000bc4b55584",
                    "decodedMethod": {
                        "callParams": [
                            {
                                "name": "_to",
                                "type": "address",
                                "value": "0xe05e391c437fd065d2b288947a74d8df9dcfc300"
                            },
                            {
                                "decimalAvailable": true,
                                "name": "_value",
                                "type": "uint256",
                                "value": "50,544,858,500"
                            }
                        ],
                        "constructorArguments": "",
                        "name": "transfer",
                        "returnParams": [],
                        "signature": "transfer(address,uint256)"
                    },
                    "errorInfo": "",
                    "fromAddress": "0x86e915743aa6f12b8e326cc6ab5cadf210a2fcfd",
                    "gasUsed": 23070,
                    "id": 0,
                    "methodDecoded": true,
                    "operation": "CALL",
                    "output": "",
                    "revert": false,
                    "revertMessage": "",
                    "selector": "0xa9059cbb",
                    "status": true,
                    "value": "0"
                },
                "nodeType": 0
            },
            "1": {
                "event": {
                    "contract": "0x98f777fb9139576902bf7f35956ca015ddc1569f",
                    "decodedLog": {
                        "name": "Transfer",
                        "params": [
                            {
                                "name": "from",
                                "type": "address",
                                "value": "0x86e915743aa6f12b8e326cc6ab5cadf210a2fcfd"
                            },
                            {
                                "name": "to",
                                "type": "address",
                                "value": "0xe05e391c437fd065d2b288947a74d8df9dcfc300"
                            },
                            {
                                "decimalAvailable": true,
                                "name": "value",
                                "type": "uint256",
                                "value": "50,544,858,500"
                            }
                        ],
                        "signature": "Transfer(address,address,uint256)"
                    },
                    "id": 1,
                    "logData": "0x0000000000000000000000000000000000000000000000000000000bc4b55584",
                    "logDecoded": true,
                    "operation": "EVENT",
                    "revert": false,
                    "status": true,
                    "topics": [
                        "0xddf252ad1be2c89b69c2b068fc378daa952ba7f163c4a11628f55a4df523b3ef",
                        "0x00000000000000000000000086e915743aa6f12b8e326cc6ab5cadf210a2fcfd",
                        "0x000000000000000000000000e05e391c437fd065d2b288947a74d8df9dcfc300"
                    ]
                },
                "nodeType": 1
            }
        },
        "gasFlame": [
            {
                "children": [
                    {
                        "children": [
                            {
                                "children": [],
                                "depth": 0,
                                "name": "Initial Gas",
                                "value": 23064
                            },
                            {
                                "children": [],
                                "depth": 0,
                                "name": "Executed Gas",
                                "value": 15006
                            }
                        ],
                        "depth": -1,
                        "name": "Actual Gas Used",
                        "value": 23070
                    },
                    {
                        "children": [],
                        "depth": -1,
                        "name": "Refunded Gas",
                        "value": 15000
                    }
                ],
                "depth": -2,
                "name": "Total Gas",
                "value": 38070
            }
        ],
        "isConfirmed": true,
        "mainTrace": [
            {
                "children": [
                    {
                        "children": [
                            {
                                "children": [],
                                "depth": 1,
                                "id": 1,
                                "order": 1
                            }
                        ],
                        "depth": 0,
                        "id": 0,
                        "order": 0
                    }
                ],
                "depth": -1,
                "id": -1,
                "order": -1
            }
        ],
        "mainTraceNodeCount": 2,
        "parentIdMap": {
            "0": -1,
            "1": 0
        },
        "tidyTrace": [
            {
                "children": [
                    {
                        "children": [
                            {
                                "children": [],
                                "depth": 1,
                                "id": 1,
                                "order": 1
                            }
                        ],
                        "depth": 0,
                        "id": 0,
                        "order": 0
                    }
                ],
                "depth": -1,
                "id": -1,
                "order": -1
            }
        ],
        "tidyTraceNodeCount": 2
    },
    "state_change": {
        "stateChanges": [
            {
                "address": "0x98f777fb9139576902bf7f35956ca015ddc1569f",
                "erc": "",
                "slots": [
                    {
                        "current": "0x00000000000000000000000000000000000000000000000000001b133f369dfa",
                        "key": "0x39545ee57a66b1e1bfe90b8d99b7e750c44d389685be15951ea701c02665cdd2",
                        "prev": "0x00000000000000000000000000000000000000000000000000001b077a814876"
                    },
                    {
                        "current": "0x0000000000000000000000000000000000000000000000000000000000000000",
                        "key": "0x6807706a7325baad0b49e6fcbabcdc50d7ca74a70d04273d7dd248a9caee0a91",
                        "prev": "0x0000000000000000000000000000000000000000000000000000000bc4b55584"
                    }
                ],
                "storageVariables": [
                    {
                        "name": "balanceOf",
                        "type": "mapping(address => uint256)",
                        "value": {
                            "pairs": [
                                {
                                    "key": "0x86e915743aa6f12b8e326cc6ab5cadf210a2fcfd",
                                    "value": {
                                        "current": "0",
                                        "prev": "50544858500",
                                        "typeTag": 1
                                    }
                                },
                                {
                                    "key": "0xe05e391c437fd065d2b288947a74d8df9dcfc300",
                                    "value": {
                                        "current": "29769478872570",
                                        "prev": "29718934014070",
                                        "typeTag": 1
                                    }
                                }
                            ],
                            "typeTag": 4
                        }
                    }
                ]
            }
        ]
    }
}