{
    "balance_change": {
        "balanceChanges": []
    },
    "profile": {
        "basic_info": {
            "baseFee": "22.100334705",
            "blockNumber": 16790622,
            "callData": "0xa98e9367000000000000000000000000000000000000000000000000000000000000466800000000000000000000000000000000000000000000000000000000000000c000000000000000000000000000000000000000000000000000000000000000e00000000000000000000000000000000000000000000000000000000000000160000000000000000000000000000000000000000000000000000000000000000900000000000000000000000000000000000000000000000000000000000001800000000000000000000000000000000000000000000000000000000000000000000000000000000000000000000000000000000000000000000000000000000300000000000000000000000000000000000000000000000000000000000000ab000000000000000000000000000000000000000000000000000000000000029e000000000000000000000000000000000000000000000000000000000000162e0000000000000000000000000000000000000000000000000000000000000000000000000000000000000000000000000000000000000000000000000000004156b27d8ad01840e460246ca6f4c11272673f98b3b7fab22946fa51404c6ef2901c161aca37153471e2216ce58fa0c5af4f5e715d42b0333aa3edd857b34a09c91c00000000000000000000000000000000000000000000000000000000000000",
            "debugEnable": true,
            "errorInfo": "",
            "eventCount": 1,
            "feeRecipient": "0x2f777e9f26aa138ed21c404079e80656b448c711",
            "formatValue": "0",
            "gasLimit": 208020,
            "gasPrice": "22.200334705",
            "gasUsed": 164240,
            "intTxnCount": 14,
            "internalRevert": false,
            "internalRevertMessage": "",
            "isContractCreation": false,
            "isFlashloan": false,
            "maxFee": "32.893773708",
            "nonce": 23,
            "overwritedBlockNumber": -1,
            "priorityFee": "0.1",
            "receiver": "0xe1b81cd6a494cbca06a8e2055a62c2cf0fa5a8ac",
            "revertMessage": "",
            "sender": "0x7cc96565bbacbb43224a87330cd4590bd8ca117f",
            "simulationEnable": true,
            "sourceTxnHash": "0x020b2b3c36087f3dd9188482e03b4078dd4673bdd0960da05101d864299bf36a",
            "status": true,
            "timestamp": "2023-03-09T12:22:23Z",
            "transactionFee": "0.0036461829719492",
            "txnHash": "0x020b2b3c36087f3dd9188482e03b4078dd4673bdd0960da05101d864299bf36a",
            "txnIndex": 50,
            "type": 2,
            "value": "0"
        },
        "fund_flow": [],
        "token_infos": [
            {
                "address": "0xc02aaa39b223fe8d0a0e5c4f27ead9083c756cc2",
                "decimals": 18
            },
            {
                "address": "0xeeeeeeeeeeeeeeeeeeeeeeeeeeeeeeeeeeeeeeee",
                "decimals": 18
            }
        ]
    },
    "address_label": {
        "labels": [
            {
                "address": "0x0000000000000000000000000000000000000001",
                "label": "Precompiled"
            },
            {
                "address": "0x0000000000000000000000000000000000000003",
                "label": "Precompiled"
            },
            {
                "address": "0x0000000000000000000000000000000000000004",
                "label": "Precompiled"
            },
            {
                "address": "0xeb2dfc54ebafca8f50efcc1e21a9d100b5aeb349",
                "label": "Kubz: Kubz Token"
            },
            {
                "address": "0xe1b81cd6a494cbca06a8e2055a62c2cf0fa5a8ac",
                "label": "Kubz Relic (Kubz Relic)"
            },
            {
                "address": "0xb92ffe360b30f28d1a669f6f84fe0b0e11ca42e1",
                "label": "KubzTreasure"
            },
            {
                "address": "0xeeeeeeeeeeeeeeeeeeeeeeeeeeeeeeeeeeeeeeee",
                "label": "Ether"
            },
            {
                "address": "0xcfdbbc3e53542d36ab6c9e91b20f4a82bb0c2c61",
                "label": "Kubz"
            },
            {
                "address": "0x0000000000000000000000000000000000000002",
                "label": "Precompiled"
            }
        ]
    },
    "trace": {
        "accountLabels": null,
        "dataMap": {
            "-1": {
                "invocation": {
                    "address": "0x7cc96565bbacbb43224a87330cd4590bd8ca117f",
                    "callData": "",
                    "decodedMethod": null,
                    "errorInfo": "",
                    "fromAddress": "",
                    "gasUsed": 0,
                    "id": -1,
                    "methodDecoded": false,
                    "operation": "",
                    "output": "",
                    "revert": false,
                    "revertMessage": "",
                    "selector": "",
                    "status": false,
                    "value": ""
                },
                "nodeType": 0
            },
            "0": {
                "invocation": {
                    "address": "0xe1b81cd6a494cbca06a8e2055a62c2cf0fa5a8ac",
                    "callData": "0x000000000000000000000000000000000000000000000000000000000000466800000000000000000000000000000000000000000000000000000000000000c000000000000000000000000000000000000000000000000000000000000000e00000000000000000000000000000000000000000000000000000000000000160000000000000000000000000000000000000000000000000000000000000000900000000000000000000000000000000000000000000000000000000000001800000000000000000000000000000000000000000000000000000000000000000000000000000000000000000000000000000000000000000000000000000000300000000000000000000000000000000000000000000000000000000000000ab000000000000000000000000000000000000000000000000000000000000029e000000000000000000000000000000000000000000000000000000000000162e0000000000000000000000000000000000000000000000000000000000000000000000000000000000000000000000000000000000000000000000000000004156b27d8ad01840e460246ca6f4c11272673f98b3b7fab22946fa51404c6ef2901c161aca37153471e2216ce58fa0c5af4f5e715d42b0333aa3edd857b34a09c91c00000000000000000000000000000000000000000000000000000000000000",
                    "decodedMethod": {
                        "callParams": [
                            {
                                "name": "tokenId",
                                "type": "uint256",
                                "value": "18,024"
                            },
                            {
                                "name": "kzgTokenIds",
                                "type": "uint256[]",
                                "value": []
                            },
                            {
                                "name": "kubzTokenIds",
                                "type": "uint256[]",
                                "value": [
                                    "171",
                                    "670",
                                    "5,678"
                                ]
                            },
                            {
                                "name": "burnRelicTokenIds",
                                "type": "uint256[]",
                                "value": []
                            },
                            {
                                "name": "myPotions",
                                "type": "uint256",
                                "value": "9"
                            },
                            {
                                "name": "signature",
                                "type": "bytes",
                                "value": "0x56b27d8ad01840e460246ca6f4c11272673f98b3b7fab22946fa51404c6ef2901c161aca37153471e2216ce58fa0c5af4f5e715d42b0333aa3edd857b34a09c91c"
                            }
                        ],
                        "constructorArguments": "",
                        "name": "craftUsingPotions",
                        "returnParams": [],
                        "signature": "craftUsingPotions(uint256,uint256[],uint256[],uint256[],uint256,bytes)"
                    },
                    "errorInfo": "",
                    "fromAddress": "0x7cc96565bbacbb43224a87330cd4590bd8ca117f",
                    "gasUsed": 164240,
                    "id": 0,
                    "methodDecoded": true,
                    "operation": "CALL",
                    "output": "",
                    "revert": false,
                    "revertMessage": "",
                    "selector": "0xa98e9367",
                    "status": true,
                    "value": "0"
                },
                "nodeType": 0
            },
            "1": {
                "invocation": {
                    "address": "0xb92ffe360b30f28d1a669f6f84fe0b0e11ca42e1",
                    "callData": "0x000000000000000000000000000000000000000000000000000000000000466800000000000000000000000000000000000000000000000000000000000000c000000000000000000000000000000000000000000000000000000000000000e00000000000000000000000000000000000000000000000000000000000000160000000000000000000000000000000000000000000000000000000000000000900000000000000000000000000000000000000000000000000000000000001800000000000000000000000000000000000000000000000000000000000000000000000000000000000000000000000000000000000000000000000000000000300000000000000000000000000000000000000000000000000000000000000ab000000000000000000000000000000000000000000000000000000000000029e000000000000000000000000000000000000000000000000000000000000162e0000000000000000000000000000000000000000000000000000000000000000000000000000000000000000000000000000000000000000000000000000004156b27d8ad01840e460246ca6f4c11272673f98b3b7fab22946fa51404c6ef2901c161aca37153471e2216ce58fa0c5af4f5e715d42b0333aa3edd857b34a09c91c00000000000000000000000000000000000000000000000000000000000000",
                    "decodedMethod": {
                        "callParams": [
                            {
                                "name": "tokenId",
                                "type": "uint256",
                                "value": "18,024"
                            },
                            {
                                "name": "kzgTokenIds",
                                "type": "uint256[]",
                                "value": []
                            },
                            {
                                "name": "kubzTokenIds",
                                "type": "uint256[]",
                                "value": [
                                    "171",
                                    "670",
                                    "5,678"
                                ]
                            },
                            {
                                "name": "burnRelicTokenIds",
                                "type": "uint256[]",
                                "value": []
                            },
                            {
                                "name": "myPotions",
                                "type": "uint256",
                                "value": "9"
                            },
                            {
                                "name": "signature",
                                "type": "bytes",
                                "value": "0x56b27d8ad01840e460246ca6f4c11272673f98b3b7fab22946fa51404c6ef2901c161aca37153471e2216ce58fa0c5af4f5e715d42b0333aa3edd857b34a09c91c"
                            }
                        ],
                        "constructorArguments": "",
                        "name": "craftUsingPotions",
                        "returnParams": [],
                        "signature": "craftUsingPotions(uint256,uint256[],uint256[],uint256[],uint256,bytes)"
                    },
                    "errorInfo": "",
                    "fromAddress": "0xe1b81cd6a494cbca06a8e2055a62c2cf0fa5a8ac",
                    "gasUsed": 173801,
                    "id": 1,
                    "methodDecoded": true,
                    "operation": "DELEGATECALL",
                    "output": "",
                    "revert": false,
                    "revertMessage": "",
                    "selector": "0xa98e9367",
                    "status": true,
                    "value": "0"
                },
                "nodeType": 0
            },
            "10": {
                "invocation": {
                    "address": "0xcfdbbc3e53542d36ab6c9e91b20f4a82bb0c2c61",
                    "callData": "0x00000000000000000000000000000000000000000000000000000000000000ab",
                    "decodedMethod": {
                        "callParams": [
                            {
                                "name": "tokenId",
                                "type": "uint256",
                                "value": "171"
                            }
                        ],
                        "constructorArguments": "",
                        "name": "ownerOf",
                        "returnParams": [
                            {
                                "name": "",
                                "type": "address",
                                "value": "0x7cc96565bbacbb43224a87330cd4590bd8ca117f"
                            }
                        ],
                        "signature": "ownerOf(uint256)"
                    },
                    "errorInfo": "",
                    "fromAddress": "0xeb2dfc54ebafca8f50efcc1e21a9d100b5aeb349",
                    "gasUsed": 898,
                    "id": 10,
                    "methodDecoded": true,
                    "operation": "DELEGATECALL",
                    "output": "0x0000000000000000000000007cc96565bbacbb43224a87330cd4590bd8ca117f",
                    "revert": false,
                    "revertMessage": "",
                    "selector": "0x6352211e",
                    "status": true,
                    "value": "0"
                },
                "nodeType": 0
            },
            "11": {
                "invocation": {
                    "address": "0xeb2dfc54ebafca8f50efcc1e21a9d100b5aeb349",
                    "callData": "0x000000000000000000000000000000000000000000000000000000000000029e",
                    "decodedMethod": {
                        "callParams": [
                            {
                                "name": "tokenId",
                                "type": "uint256",
                                "value": "670"
                            }
                        ],
                        "constructorArguments": "",
                        "name": "ownerOf",
                        "returnParams": [
                            {
                                "name": "",
                                "type": "address",
                                "value": "0x7cc96565bbacbb43224a87330cd4590bd8ca117f"
                            }
                        ],
                        "signature": "ownerOf(uint256)"
                    },
                    "errorInfo": "",
                    "fromAddress": "0xe1b81cd6a494cbca06a8e2055a62c2cf0fa5a8ac",
                    "gasUsed": 1729,
                    "id": 11,
                    "methodDecoded": true,
                    "operation": "STATICCALL",
                    "output": "0x0000000000000000000000007cc96565bbacbb43224a87330cd4590bd8ca117f",
                    "revert": false,
                    "revertMessage": "",
                    "selector": "0x6352211e",
                    "status": true,
                    "value": "0"
                },
                "nodeType": 0
            },
            "12": {
                "invocation": {
                    "address": "0xcfdbbc3e53542d36ab6c9e91b20f4a82bb0c2c61",
                    "callData": "0x000000000000000000000000000000000000000000000000000000000000029e",
                    "decodedMethod": {
                        "callParams": [
                            {
                                "name": "tokenId",
                                "type": "uint256",
                                "value": "670"
                            }
                        ],
                        "constructorArguments": "",
                        "name": "ownerOf",
                        "returnParams": [
                            {
                                "name": "",
                                "type": "address",
                                "value": "0x7cc96565bbacbb43224a87330cd4590bd8ca117f"
                            }
                        ],
                        "signature": "ownerOf(uint256)"
                    },
                    "errorInfo": "",
                    "fromAddress": "0xeb2dfc54ebafca8f50efcc1e21a9d100b5aeb349",
                    "gasUsed": 898,
                    "id": 12,
                    "methodDecoded": true,
                    "operation": "DELEGATECALL",
                    "output": "0x0000000000000000000000007cc96565bbacbb43224a87330cd4590bd8ca117f",
                    "revert": false,
                    "revertMessage": "",
                    "selector": "0x6352211e",
                    "status": true,
                    "value": "0"
                },
                "nodeType": 0
            },
            "13": {
                "invocation": {
                    "address": "0xeb2dfc54ebafca8f50efcc1e21a9d100b5aeb349",
                    "callData": "0x000000000000000000000000000000000000000000000000000000000000162e",
                    "decodedMethod": {
                        "callParams": [
                            {
                                "name": "tokenId",
                                "type": "uint256",
                                "value": "5,678"
                            }
                        ],
                        "constructorArguments": "",
                        "name": "ownerOf",
                        "returnParams": [
                            {
                                "name": "",
                                "type": "address",
                                "value": "0x7cc96565bbacbb43224a87330cd4590bd8ca117f"
                            }
                        ],
                        "signature": "ownerOf(uint256)"
                    },
                    "errorInfo": "",
                    "fromAddress": "0xe1b81cd6a494cbca06a8e2055a62c2cf0fa5a8ac",
                    "gasUsed": 1729,
                    "id": 13,
                    "methodDecoded": true,
                    "operation": "STATICCALL",
                    "output": "0x0000000000000000000000007cc96565bbacbb43224a87330cd4590bd8ca117f",
                    "revert": false,
                    "revertMessage": "",
                    "selector": "0x6352211e",
                    "status": true,
                    "value": "0"
                },
                "nodeType": 0
            },
            "14": {
                "invocation": {
                    "address": "0xcfdbbc3e53542d36ab6c9e91b20f4a82bb0c2c61",
                    "callData": "0x000000000000000000000000000000000000000000000000000000000000162e",
                    "decodedMethod": {
                        "callParams": [
                            {
                                "name": "tokenId",
                                "type": "uint256",
                                "value": "5,678"
                            }
                        ],
                        "constructorArguments": "",
                        "name": "ownerOf",
                        "returnParams": [
                            {
                                "name": "",
                                "type": "address",
                                "value": "0x7cc96565bbacbb43224a87330cd4590bd8ca117f"
                            }
                        ],
                        "signature": "ownerOf(uint256)"
                    },
                    "errorInfo": "",
                    "fromAddress": "0xeb2dfc54ebafca8f50efcc1e21a9d100b5aeb349",
                    "gasUsed": 898,
                    "id": 14,
                    "methodDecoded": true,
                    "operation": "DELEGATECALL",
                    "output": "0x0000000000000000000000007cc96565bbacbb43224a87330cd4590bd8ca117f",
                    "revert": false,
                    "revertMessage": "",
                    "selector": "0x6352211e",
                    "status": true,
                    "value": "0"
                },
                "nodeType": 0
            },
            "15": {
                "event": {
                    "contract": "0xe1b81cd6a494cbca06a8e2055a62c2cf0fa5a8ac",
                    "decodedLog": {
                        "name": "RelicCraft",
                        "params": [
                            {
                                "name": "tokenId",
                                "type": "uint256",
                                "value": "18,024"
                            },
                            {
                                "name": "fromRarity",
                                "type": "uint256",
                                "value": "1"
                            },
                            {
                                "name": "burnRelicRarity",
                                "type": "uint256",
                                "value": "1"
                            },
                            {
                                "name": "sender",
                                "type": "address",
                                "value": "0x7cc96565bbacbb43224a87330cd4590bd8ca117f"
                            },
                            {
                                "name": "kzgTokenIds",
                                "type": "uint256[]",
                                "value": []
                            },
                            {
                                "name": "kubzTokenIds",
                                "type": "uint256[]",
                                "value": [
                                    "171",
                                    "670",
                                    "5,678"
                                ]
                            },
                            {
                                "name": "burnRelicTokenIds",
                                "type": "uint256[]",
                                "value": []
                            }
                        ],
                        "signature": "RelicCraft(address,uint256,uint256,uint256,uint256[],uint256[],uint256[])"
                    },
                    "id": 15,
                    "logData": "0x0000000000000000000000007cc96565bbacbb43224a87330cd4590bd8ca117f000000000000000000000000000000000000000000000000000000000000008000000000000000000000000000000000000000000000000000000000000000a000000000000000000000000000000000000000000000000000000000000001200000000000000000000000000000000000000000000000000000000000000000000000000000000000000000000000000000000000000000000000000000000300000000000000000000000000000000000000000000000000000000000000ab000000000000000000000000000000000000000000000000000000000000029e000000000000000000000000000000000000000000000000000000000000162e0000000000000000000000000000000000000000000000000000000000000000",
                    "logDecoded": true,
                    "operation": "EVENT",
                    "revert": false,
                    "status": true,
                    "topics": [
                        "0x6ecc55d9c49e85d50a3ccdb5b7c490179694cd317ecb04bbc27e91f7cfb3c40b",
                        "0x0000000000000000000000000000000000000000000000000000000000004668",
                        "0x0000000000000000000000000000000000000000000000000000000000000001",
                        "0x0000000000000000000000000000000000000000000000000000000000000001"
                    ]
                },
                "nodeType": 1
            },
            "2": {
                "invocation": {
                    "address": "0x0000000000000000000000000000000000000001",
                    "callData": "0x204983d7955c010cc9f656d3f5792ad964b80e1b59e7834a05b3921e000000000000000000000000000000000000000000000000000000000000001c56b27d8ad01840e460246ca6f4c11272673f98b3b7fab22946fa51404c6ef2901c161aca37153471e2216ce58fa0c5af4f5e715d42b0333aa3edd857b34a09c9",
                    "decodedMethod": {
                        "callParams": [
                            {
                                "name": "hash",
                                "type": "bytes32",
                                "value": "0x7229229a204983d7955c010cc9f656d3f5792ad964b80e1b59e7834a05b3921e"
                            },
                            {
                                "name": "v",
                                "type": "uint256",
                                "value": "28"
                            },
                            {
                                "name": "r",
                                "type": "bytes32",
                                "value": "0x56b27d8ad01840e460246ca6f4c11272673f98b3b7fab22946fa51404c6ef290"
                            },
                            {
                                "name": "s",
                                "type": "bytes32",
                                "value": "0x1c161aca37153471e2216ce58fa0c5af4f5e715d42b0333aa3edd857b34a09c9"
                            }
                        ],
                        "constructorArguments": "",
                        "name": "ecrecover",
                        "returnParams": [
                            {
                                "name": "",
                                "type": "address",
                                "value": "0xdcba0b3b511b3388c0389c978e859dfe26587bc7"
                            }
                        ],
                        "signature": "ecrecover(bytes32,uint256,bytes32,bytes32)"
                    },
                    "errorInfo": "",
                    "fromAddress": "0xe1b81cd6a494cbca06a8e2055a62c2cf0fa5a8ac",
                    "gasUsed": 3000,
                    "id": 2,
                    "methodDecoded": true,
                    "operation": "STATICCALL",
                    "output": "0x000000000000000000000000dcba0b3b511b3388c0389c978e859dfe26587bc7",
                    "revert": false,
                    "revertMessage": "",
                    "selector": "0x7229229a",
                    "status": true,
                    "value": "0"
                },
                "nodeType": 0
            },
            "3": {
                "invocation": {
                    "address": "0xeb2dfc54ebafca8f50efcc1e21a9d100b5aeb349",
                    "callData": "0x00000000000000000000000000000000000000000000000000000000000000ab",
                    "decodedMethod": {
                        "callParams": [
                            {
                                "name": "tokenId",
                                "type": "uint256",
                                "value": "171"
                            }
                        ],
                        "constructorArguments": "",
                        "name": "ownerOf",
                        "returnParams": [
                            {
                                "name": "",
                                "type": "address",
                                "value": "0x7cc96565bbacbb43224a87330cd4590bd8ca117f"
                            }
                        ],
                        "signature": "ownerOf(uint256)"
                    },
                    "errorInfo": "",
                    "fromAddress": "0xe1b81cd6a494cbca06a8e2055a62c2cf0fa5a8ac",
                    "gasUsed": 12229,
                    "id": 3,
                    "methodDecoded": true,
                    "operation": "STATICCALL",
                    "output": "0x0000000000000000000000007cc96565bbacbb43224a87330cd4590bd8ca117f",
                    "revert": false,
                    "revertMessage": "",
                    "selector": "0x6352211e",
                    "status": true,
                    "value": "0"
                },
                "nodeType": 0
            },
            "4": {
                "invocation": {
                    "address": "0xcfdbbc3e53542d36ab6c9e91b20f4a82bb0c2c61",
                    "callData": "0x00000000000000000000000000000000000000000000000000000000000000ab",
                    "decodedMethod": {
                        "callParams": [
                            {
                                "name": "tokenId",
                                "type": "uint256",
                                "value": "171"
                            }
                        ],
                        "constructorArguments": "",
                        "name": "ownerOf",
                        "returnParams": [
                            {
                                "name": "",
                                "type": "address",
                                "value": "0x7cc96565bbacbb43224a87330cd4590bd8ca117f"
                            }
                        ],
                        "signature": "ownerOf(uint256)"
                    },
                    "errorInfo": "",
                    "fromAddress": "0xeb2dfc54ebafca8f50efcc1e21a9d100b5aeb349",
                    "gasUsed": 4898,
                    "id": 4,
                    "methodDecoded": true,
                    "operation": "DELEGATECALL",
                    "output": "0x0000000000000000000000007cc96565bbacbb43224a87330cd4590bd8ca117f",
                    "revert": false,
                    "revertMessage": "",
                    "selector": "0x6352211e",
                    "status": true,
                    "value": "0"
                },
                "nodeType": 0
            },
            "5": {
                "invocation": {
                    "address": "0xeb2dfc54ebafca8f50efcc1e21a9d100b5aeb349",
                    "callData": "0x000000000000000000000000000000000000000000000000000000000000029e",
                    "decodedMethod": {
                        "callParams": [
                            {
                                "name": "tokenId",
                                "type": "uint256",
                                "value": "670"
                            }
                        ],
                        "constructorArguments": "",
                        "name": "ownerOf",
                        "returnParams": [
                            {
                                "name": "",
                                "type": "address",
                                "value": "0x7cc96565bbacbb43224a87330cd4590bd8ca117f"
                            }
                        ],
                        "signature": "ownerOf(uint256)"
                    },
                    "errorInfo": "",
                    "fromAddress": "0xe1b81cd6a494cbca06a8e2055a62c2cf0fa5a8ac",
                    "gasUsed": 3729,
                    "id": 5,
                    "methodDecoded": true,
                    "operation": "STATICCALL",
                    "output": "0x0000000000000000000000007cc96565bbacbb43224a87330cd4590bd8ca117f",
                    "revert": false,
                    "revertMessage": "",
                    "selector": "0x6352211e",
                    "status": true,
                    "value": "0"
                },
                "nodeType": 0
            },
            "6": {
                "invocation": {
                    "address": "0xcfdbbc3e53542d36ab6c9e91b20f4a82bb0c2c61",
                    "callData": "0x000000000000000000000000000000000000000000000000000000000000029e",
                    "decodedMethod": {
                        "callParams": [
                            {
                                "name": "tokenId",
                                "type": "uint256",
                                "value": "670"
                            }
                        ],
                        "constructorArguments": "",
                        "name": "ownerOf",
                        "returnParams": [
                            {
                                "name": "",
                                "type": "address",
                                "value": "0x7cc96565bbacbb43224a87330cd4590bd8ca117f"
                            }
                        ],
                        "signature": "ownerOf(uint256)"
                    },
                    "errorInfo": "",
                    "fromAddress": "0xeb2dfc54ebafca8f50efcc1e21a9d100b5aeb349",
                    "gasUsed": 2898,
                    "id": 6,
                    "methodDecoded": true,
                    "operation": "DELEGATECALL",
                    "output": "0x0000000000000000000000007cc96565bbacbb43224a87330cd4590bd8ca117f",
                    "revert": false,
                    "revertMessage": "",
                    "selector": "0x6352211e",
                    "status": true,
                    "value": "0"
                },
                "nodeType": 0
            },
            "7": {
                "invocation": {
                    "address": "0xeb2dfc54ebafca8f50efcc1e21a9d100b5aeb349",
                    "callData": "0x000000000000000000000000000000000000000000000000000000000000162e",
                    "decodedMethod": {
                        "callParams": [
                            {
                                "name": "tokenId",
                                "type": "uint256",
                                "value": "5,678"
                            }
                        ],
                        "constructorArguments": "",
                        "name": "ownerOf",
                        "returnParams": [
                            {
                                "name": "",
                                "type": "address",
                                "value": "0x7cc96565bbacbb43224a87330cd4590bd8ca117f"
                            }
                        ],
                        "signature": "ownerOf(uint256)"
                    },
                    "errorInfo": "",
                    "fromAddress": "0xe1b81cd6a494cbca06a8e2055a62c2cf0fa5a8ac",
                    "gasUsed": 3729,
                    "id": 7,
                    "methodDecoded": true,
                    "operation": "STATICCALL",
                    "output": "0x0000000000000000000000007cc96565bbacbb43224a87330cd4590bd8ca117f",
                    "revert": false,
                    "revertMessage": "",
                    "selector": "0x6352211e",
                    "status": true,
                    "value": "0"
                },
                "nodeType": 0
            },
            "8": {
                "invocation": {
                    "address": "0xcfdbbc3e53542d36ab6c9e91b20f4a82bb0c2c61",
                    "callData": "0x000000000000000000000000000000000000000000000000000000000000162e",
                    "decodedMethod": {
                        "callParams": [
                            {
                                "name": "tokenId",
                                "type": "uint256",
                                "value": "5,678"
                            }
                        ],
                        "constructorArguments": "",
                        "name": "ownerOf",
                        "returnParams": [
                            {
                                "name": "",
                                "type": "address",
                                "value": "0x7cc96565bbacbb43224a87330cd4590bd8ca117f"
                            }
                        ],
                        "signature": "ownerOf(uint256)"
                    },
                    "errorInfo": "",
                    "fromAddress": "0xeb2dfc54ebafca8f50efcc1e21a9d100b5aeb349",
                    "gasUsed": 2898,
                    "id": 8,
                    "methodDecoded": true,
                    "operation": "DELEGATECALL",
                    "output": "0x0000000000000000000000007cc96565bbacbb43224a87330cd4590bd8ca117f",
                    "revert": false,
                    "revertMessage": "",
                    "selector": "0x6352211e",
                    "status": true,
                    "value": "0"
                },
                "nodeType": 0
            },
            "9": {
                "invocation": {
                    "address": "0xeb2dfc54ebafca8f50efcc1e21a9d100b5aeb349",
                    "callData": "0x00000000000000000000000000000000000000000000000000000000000000ab",
                    "decodedMethod": {
                        "callParams": [
                            {
                                "name": "tokenId",
                                "type": "uint256",
                                "value": "171"
                            }
                        ],
                        "constructorArguments": "",
                        "name": "ownerOf",
                        "returnParams": [
                            {
                                "name": "",
                                "type": "address",
                                "value": "0x7cc96565bbacbb43224a87330cd4590bd8ca117f"
                            }
                        ],
                        "signature": "ownerOf(uint256)"
                    },
                    "errorInfo": "",
                    "fromAddress": "0xe1b81cd6a494cbca06a8e2055a62c2cf0fa5a8ac",
                    "gasUsed": 1729,
                    "id": 9,
                    "methodDecoded": true,
                    "operation": "STATICCALL",
                    "output": "0x0000000000000000000000007cc96565bbacbb43224a87330cd4590bd8ca117f",
                    "revert": false,
                    "revertMessage": "",
                    "selector": "0x6352211e",
                    "status": true,
                    "value": "0"
                },
                "nodeType": 0
            }
        },
        "gasFlame": [
            {
                "children": [
                    {
                        "children": [
                            {
                                "children": [],
                                "depth": 0,
                                "name": "Initial Gas",
                                "value": 24084
                            },
                            {
                                "children": [
                                    {
                                        "children": [
                                            {
                                                "children": [],
                                                "depth": 2,
                                                "name": "ecrecover",
                                                "value": 3000
                                            },
                                            {
                                                "children": [
                                                    {
                                                        "children": [],
                                                        "depth": 3,
                                                        "name": "ownerOf",
                                                        "value": 4898
                                                    }
                                                ],
                                                "depth": 2,
                                                "name": "ownerOf",
                                                "value": 12229
                                            },
                                            {
                                                "children": [
                                                    {
                                                        "children": [],
                                                        "depth": 3,
                                                        "name": "ownerOf",
                                                        "value": 2898
                                                    }
                                                ],
                                                "depth": 2,
                                                "name": "ownerOf",
                                                "value": 3729
                                            },
                                            {
                                                "children": [
                                                    {
                                                        "children": [],
                                                        "depth": 3,
                                                        "name": "ownerOf",
                                                        "value": 2898
                                                    }
                                                ],
                                                "depth": 2,
                                                "name": "ownerOf",
                                                "value": 3729
                                            },
                                            {
                                                "children": [
                                                    {
                                                        "children": [],
                                                        "depth": 3,
                                                        "name": "ownerOf",
                                                        "value": 898
                                                    }
                                                ],
                                                "depth": 2,
                                                "name": "ownerOf",
                                                "value": 1729
                                            },
                                            {
                                                "children": [
                                                    {
                                                        "children": [],
                                                        "depth": 3,
                                                        "name": "ownerOf",
                                                        "value": 898
                                                    }
                                                ],
                                                "depth": 2,
                                                "name": "ownerOf",
                                                "value": 1729
                                            },
                                            {
                                                "children": [
                                                    {
                                                        "children": [],
                                                        "depth": 3,
                                                        "name": "ownerOf",
                                                        "value": 898
                                                    }
                                                ],
                                                "depth": 2,
                                                "name": "ownerOf",
                                                "value": 1729
                                            }
                                        ],
                                        "depth": 1,
                                        "name": "craftUsingPotions",
                                        "value": 173801
                                    }
                                ],
                                "depth": 0,
                                "name": "Executed Gas",
                                "value": 181216
                            }
                        ],
                        "depth": -1,
                        "name": "Actual Gas Used",
                        "value": 164240
                    },
                    {
                        "children": [],
                        "depth": -1,
                        "name": "Refunded Gas",
                        "value": 41060
                    }
                ],
                "depth": -2,
                "name": "Total Gas",
                "value": 205300
            }
        ],
        "isConfirmed": true,
        "mainTrace": [
            {
                "children": [
                    {
                        "children": [
                            {
                                "children": [
                                    {
                                        "children": [],
                                        "depth": 2,
                                        "id": 2,
                                        "order": 2
                                    },
                                    {
                                        "children": [
                                            {
                                                "children": [],
                                                "depth": 3,
                                                "id": 4,
                                                "order": 4
                                            }
                                        ],
                                        "depth": 2,
                                        "id": 3,
                                        "order": 3
                                    },
                                    {
                                        "children": [
                                            {
                                                "children": [],
                                                "depth": 3,
                                                "id": 6,
                                                "order": 6
                                            }
                                        ],
                                        "depth": 2,
                                        "id": 5,
                                        "order": 5
                                    },
                                    {
                                        "children": [
                                            {
                                                "children": [],
                                                "depth": 3,
                                                "id": 8,
                                                "order": 8
                                            }
                                        ],
                                        "depth": 2,
                                        "id": 7,
                                        "order": 7
                                    },
                                    {
                                        "children": [
                                            {
                                                "children": [],
                                                "depth": 3,
                                                "id": 10,
                                                "order": 10
                                            }
                                        ],
                                        "depth": 2,
                                        "id": 9,
                                        "order": 9
                                    },
                                    {
                                        "children": [
                                            {
                                                "children": [],
                                                "depth": 3,
                                                "id": 12,
                                                "order": 12
                                            }
                                        ],
                                        "depth": 2,
                                        "id": 11,
                                        "order": 11
                                    },
                                    {
                                        "children": [
                                            {
                                                "children": [],
                                                "depth": 3,
                                                "id": 14,
                                                "order": 14
                                            }
                                        ],
                                        "depth": 2,
                                        "id": 13,
                                        "order": 13
                                    },
                                    {
                                        "children": [],
                                        "depth": 2,
                                        "id": 15,
                                        "order": 15
                                    }
                                ],
                                "depth": 1,
                                "id": 1,
                                "order": 1
                            }
                        ],
                        "depth": 0,
                        "id": 0,
                        "order": 0
                    }
                ],
                "depth": -1,
                "id": -1,
                "order": -1
            }
        ],
        "mainTraceNodeCount": 16,
        "parentIdMap": {
            "0": -1,
            "1": 0,
            "10": 9,
            "11": 1,
            "12": 11,
            "13": 1,
            "14": 13,
            "15": 1,
            "2": 1,
            "3": 1,
            "4": 3,
            "5": 1,
            "6": 5,
            "7": 1,
            "8": 7,
            "9": 1
        },
        "tidyTrace": [
            {
                "children": [
                    {
                        "children": [
                            {
                                "children": [
                                    {
                                        "children": [],
                                        "depth": 2,
                                        "id": 15,
                                        "order": 15
                                    }
                                ],
                                "depth": 1,
                                "id": 1,
                                "order": 1
                            }
                        ],
                        "depth": 0,
                        "id": 0,
                        "order": 0
                    }
                ],
                "depth": -1,
                "id": -1,
                "order": -1
            }
        ],
        "tidyTraceNodeCount": 3
    },
    "state_change": {
        "stateChanges": [
            {
                "address": "0xe1b81cd6a494cbca06a8e2055a62c2cf0fa5a8ac",
                "erc": "ERC-721",
                "slots": [
                    {
                        "current": "0x000000000000000000000000000000000000000000000000000000006409cf7f",
                        "key": "0x76d2d36ee1f1e3594683c40abfff25ca13e61b1c080d21da74a8eb6566fd3296",
                        "prev": "0x000000000000000000000000000000000000000000000000000000006401dd2b"
                    },
                    {
                        "current": "0x000000000000000000000000000000000000000000000000000000006409cf7f",
                        "key": "0x3529c01b15f7662b064fb65efe96b717e95894e933d91bf70555e59e8b2deb39",
                        "prev": "0x000000000000000000000000000000000000000000000000000000006401dd2b"
                    },
                    {
                        "current": "0x000000000000000000000000000000000000000000000000000000006409cf7f",
                        "key": "0x3800e500ca55d967d83c62608f24e2adf93d04ad658fcab2b7b305f8125c8531",
                        "prev": "0x000000000000000000000000000000000000000000000000000000006401dd2b"
                    },
                    {
                        "current": "0x000000000000000000000000000000000000000000000000000000006409cf7f",
                        "key": "0x779c6f85c5362a322c162546325151945cd98dbd862e6cc08e32c8e1ba09b690",
                        "prev": "0x000000000000000000000000000000000000000000000000000000006401dd2b"
                    },
                    {
                        "current": "0x0000000000000000000000000000000000000000000000000000000000000003",
                        "key": "0x6de7fd4d0e6c8a8e33f25025eaf70f54d5d017bbaa85f7d850a5a96bb5b390b4",
                        "prev": "0x0000000000000000000000000000000000000000000000000000000000000000"
                    }
                ],
                "storageVariables": [
                    {
                        "name": "kubzLastCraft",
                        "type": "mapping(uint256 => uint256)",
                        "value": {
                            "pairs": [
                                {
                                    "key": "171",
                                    "value": {
                                        "current": "1678364543",
                                        "prev": "1677843755",
                                        "typeTag": 1
                                    }
                                },
                                {
                                    "key": "5678",
                                    "value": {
                                        "current": "1678364543",
                                        "prev": "1677843755",
                                        "typeTag": 1
                                    }
                                },
                                {
                                    "key": "670",
                                    "value": {
                                        "current": "1678364543",
                                        "prev": "1677843755",
                                        "typeTag": 1
                                    }
                                }
                            ],
                            "typeTag": 4
                        }
                    },
                    {
                        "name": "relicLastCraft",
                        "type": "mapping(uint256 => uint256)",
                        "value": {
                            "pairs": [
                                {
                                    "key": "18024",
                                    "value": {
                                        "current": "1678364543",
                                        "prev": "1677843755",
                                        "typeTag": 1
                                    }
                                }
                            ],
                            "typeTag": 4
                        }
                    },
                    {
                        "name": "potionsUsed",
                        "type": "mapping(address => uint256)",
                        "value": {
                            "pairs": [
                                {
                                    "key": "0x7cc96565bbacbb43224a87330cd4590bd8ca117f",
                                    "value": {
                                        "current": "3",
                                        "prev": "0",
                                        "typeTag": 1
                                    }
                                }
                            ],
                            "typeTag": 4
                        }
                    }
                ]
            }
        ]
    }
}