{
    "balance_change": {
        "balanceChanges": [
            {
                "account": "0xeb1cae15b25ef6f78312e9774022b123f13bd969",
                "assets": [
                    {
                        "address": "0xde30da39c46104798bb5aa3fe8b9e0e1f348163f",
                        "amount": "5",
                        "iconUrl": "https://assets.blocksec.com/icon/953dc5fbf57dad97b0da359dd8fa43a22305fec95d716248a18aeb59723d006a.png",
                        "isERC1155": false,
                        "isERC721": false,
                        "sign": false,
                        "value": "4.8370000000000001883"
                    }
                ]
            },
            {
                "account": "0x0e3efd5be54cc0f4c64e0d186b0af4b7f2a0e95f",
                "assets": [
                    {
                        "address": "0xde30da39c46104798bb5aa3fe8b9e0e1f348163f",
                        "amount": "5",
                        "iconUrl": "https://assets.blocksec.com/icon/953dc5fbf57dad97b0da359dd8fa43a22305fec95d716248a18aeb59723d006a.png",
                        "isERC1155": false,
                        "isERC721": false,
                        "sign": true,
                        "value": "4.8370000000000001883"
                    }
                ]
            }
        ]
    },
    "profile": {
        "basic_info": {
            "baseFee": "15.742083233",
            "blockNumber": 17516250,
            "callData": "0x7b0472f000000000000000000000000000000000000000000000000000000000000000030000000000000000000000000000000000000000000000004563918244f40000",
            "debugEnable": true,
            "errorInfo": "",
            "eventCount": 3,
            "feeRecipient": "0xdafea492d9c6733ae3d56b7ed1adb60692c98bc5",
            "formatValue": "0",
            "gasLimit": 89046,
            "gasPrice": "15.842083233",
            "gasUsed": 89046,
            "intTxnCount": 1,
            "internalRevert": false,
            "internalRevertMessage": "",
            "isContractCreation": false,
            "isFlashloan": false,
            "maxFee": "21.131968729",
            "nonce": 8,
            "overwritedBlockNumber": -1,
            "priorityFee": "0.1",
            "receiver": "0x0e3efd5be54cc0f4c64e0d186b0af4b7f2a0e95f",
            "revertMessage": "",
            "sender": "0xeb1cae15b25ef6f78312e9774022b123f13bd969",
            "simulationEnable": true,
            "sourceTxnHash": "0x0226a5abdbc1bf853ff3819b3380d15488407d3678bb16a488a4645e4f272bc8",
            "status": true,
            "timestamp": "2023-06-19T20:46:59Z",
            "transactionFee": "0.001410674143565718",
            "txnHash": "0x0226a5abdbc1bf853ff3819b3380d15488407d3678bb16a488a4645e4f272bc8",
            "txnIndex": 118,
            "type": 2,
            "value": "0"
        },
        "fund_flow": [
            {
                "amount": "5",
                "from": "0xeb1cae15b25ef6f78312e9774022b123f13bd969",
                "id": 1,
                "isERC1155": false,
                "isERC721": false,
                "isReverted": false,
                "order": 1,
                "to": "0x0e3efd5be54cc0f4c64e0d186b0af4b7f2a0e95f",
                "token": "0xde30da39c46104798bb5aa3fe8b9e0e1f348163f"
            }
        ],
        "token_infos": [
            {
                "address": "0xde30da39c46104798bb5aa3fe8b9e0e1f348163f",
                "decimals": 18
            },
            {
                "address": "0xeeeeeeeeeeeeeeeeeeeeeeeeeeeeeeeeeeeeeeee",
                "decimals": 18
            },
            {
                "address": "0xc02aaa39b223fe8d0a0e5c4f27ead9083c756cc2",
                "decimals": 18
            }
        ]
    },
    "address_label": {
        "labels": [
            {
                "address": "0x0000000000000000000000000000000000000001",
                "label": "Precompiled"
            },
            {
                "address": "0x0000000000000000000000000000000000000002",
                "label": "Precompiled"
            },
            {
                "address": "0x0000000000000000000000000000000000000003",
                "label": "Precompiled"
            },
            {
                "address": "0x0000000000000000000000000000000000000004",
                "label": "Precompiled"
            },
            {
                "address": "0xeeeeeeeeeeeeeeeeeeeeeeeeeeeeeeeeeeeeeeee",
                "label": "Ether"
            },
            {
                "address": "0xde30da39c46104798bb5aa3fe8b9e0e1f348163f",
                "label": "Gitcoin: GTC Token"
            },
            {
                "address": "0x0e3efd5be54cc0f4c64e0d186b0af4b7f2a0e95f",
                "label": "IDStaking"
            }
        ]
    },
    "trace": {
        "accountLabels": null,
        "dataMap": {
            "-1": {
                "invocation": {
                    "address": "0xeb1cae15b25ef6f78312e9774022b123f13bd969",
                    "callData": "",
                    "decodedMethod": null,
                    "errorInfo": "",
                    "fromAddress": "",
                    "gasUsed": 0,
                    "id": -1,
                    "methodDecoded": false,
                    "operation": "",
                    "output": "",
                    "revert": false,
                    "revertMessage": "",
                    "selector": "",
                    "status": false,
                    "value": ""
                },
                "nodeType": 0
            },
            "0": {
                "invocation": {
                    "address": "0x0e3efd5be54cc0f4c64e0d186b0af4b7f2a0e95f",
                    "callData": "0x00000000000000000000000000000000000000000000000000000000000000030000000000000000000000000000000000000000000000004563918244f40000",
                    "decodedMethod": {
                        "callParams": [
                            {
                                "name": "roundId",
                                "type": "uint256",
                                "value": "3"
                            },
                            {
                                "name": "amount",
                                "type": "uint256",
                                "value": "5,000,000,000,000,000,000"
                            }
                        ],
                        "constructorArguments": "",
                        "name": "stake",
                        "returnParams": [],
                        "signature": "stake(uint256,uint256)"
                    },
                    "errorInfo": "",
                    "fromAddress": "0xeb1cae15b25ef6f78312e9774022b123f13bd969",
                    "gasUsed": 89046,
                    "id": 0,
                    "methodDecoded": true,
                    "operation": "CALL",
                    "output": "",
                    "revert": false,
                    "revertMessage": "",
                    "selector": "0x7b0472f0",
                    "status": true,
                    "value": "0"
                },
                "nodeType": 0
            },
            "1": {
                "invocation": {
                    "address": "0xde30da39c46104798bb5aa3fe8b9e0e1f348163f",
                    "callData": "0x000000000000000000000000eb1cae15b25ef6f78312e9774022b123f13bd9690000000000000000000000000e3efd5be54cc0f4c64e0d186b0af4b7f2a0e95f0000000000000000000000000000000000000000000000004563918244f40000",
                    "decodedMethod": {
                        "callParams": [
                            {
                                "name": "src",
                                "type": "address",
                                "value": "0xeb1cae15b25ef6f78312e9774022b123f13bd969"
                            },
                            {
                                "name": "dst",
                                "type": "address",
                                "value": "0x0e3efd5be54cc0f4c64e0d186b0af4b7f2a0e95f"
                            },
                            {
                                "decimalAvailable": true,
                                "name": "rawAmount",
                                "type": "uint256",
                                "value": "5,000,000,000,000,000,000"
                            }
                        ],
                        "constructorArguments": "",
                        "name": "transferFrom",
                        "returnParams": [
                            {
                                "name": "",
                                "type": "bool",
                                "value": true
                            }
                        ],
                        "signature": "transferFrom(address,address,uint256)"
                    },
                    "errorInfo": "",
                    "fromAddress": "0x0e3efd5be54cc0f4c64e0d186b0af4b7f2a0e95f",
                    "gasUsed": 26080,
                    "id": 1,
                    "methodDecoded": true,
                    "operation": "CALL",
                    "output": "0x0000000000000000000000000000000000000000000000000000000000000001",
                    "revert": false,
                    "revertMessage": "",
                    "selector": "0x23b872dd",
                    "status": true,
                    "value": "0"
                },
                "nodeType": 0
            },
            "2": {
                "event": {
                    "contract": "0xde30da39c46104798bb5aa3fe8b9e0e1f348163f",
                    "decodedLog": {
                        "name": "Approval",
                        "params": [
                            {
                                "name": "owner",
                                "type": "address",
                                "value": "0xeb1cae15b25ef6f78312e9774022b123f13bd969"
                            },
                            {
                                "name": "spender",
                                "type": "address",
                                "value": "0x0e3efd5be54cc0f4c64e0d186b0af4b7f2a0e95f"
                            },
                            {
                                "decimalAvailable": true,
                                "name": "amount",
                                "type": "uint256",
                                "value": "5,506,998,800,000,000,000"
                            }
                        ],
                        "signature": "Approval(address,address,uint256)"
                    },
                    "id": 2,
                    "logData": "0x0000000000000000000000000000000000000000000000004c6cca3b3480a000",
                    "logDecoded": true,
                    "operation": "EVENT",
                    "revert": false,
                    "status": true,
                    "topics": [
                        "0x8c5be1e5ebec7d5bd14f71427d1e84f3dd0314c0f7b2291e5b200ac8c7c3b925",
                        "0x000000000000000000000000eb1cae15b25ef6f78312e9774022b123f13bd969",
                        "0x0000000000000000000000000e3efd5be54cc0f4c64e0d186b0af4b7f2a0e95f"
                    ]
                },
                "nodeType": 1
            },
            "3": {
                "event": {
                    "contract": "0xde30da39c46104798bb5aa3fe8b9e0e1f348163f",
                    "decodedLog": {
                        "name": "Transfer",
                        "params": [
                            {
                                "name": "from",
                                "type": "address",
                                "value": "0xeb1cae15b25ef6f78312e9774022b123f13bd969"
                            },
                            {
                                "name": "to",
                                "type": "address",
                                "value": "0x0e3efd5be54cc0f4c64e0d186b0af4b7f2a0e95f"
                            },
                            {
                                "decimalAvailable": true,
                                "name": "amount",
                                "type": "uint256",
                                "value": "5,000,000,000,000,000,000"
                            }
                        ],
                        "signature": "Transfer(address,address,uint256)"
                    },
                    "id": 3,
                    "logData": "0x0000000000000000000000000000000000000000000000004563918244f40000",
                    "logDecoded": true,
                    "operation": "EVENT",
                    "revert": false,
                    "status": true,
                    "topics": [
                        "0xddf252ad1be2c89b69c2b068fc378daa952ba7f163c4a11628f55a4df523b3ef",
                        "0x000000000000000000000000eb1cae15b25ef6f78312e9774022b123f13bd969",
                        "0x0000000000000000000000000e3efd5be54cc0f4c64e0d186b0af4b7f2a0e95f"
                    ]
                },
                "nodeType": 1
            },
            "4": {
                "event": {
                    "contract": "0x0e3efd5be54cc0f4c64e0d186b0af4b7f2a0e95f",
                    "decodedLog": {
                        "name": "selfStake",
                        "params": [
                            {
                                "name": "roundId",
                                "type": "uint256",
                                "value": "3"
                            },
                            {
                                "name": "staker",
                                "type": "address",
                                "value": "0xeb1cae15b25ef6f78312e9774022b123f13bd969"
                            },
                            {
                                "name": "amount",
                                "type": "uint256",
                                "value": "5,000,000,000,000,000,000"
                            },
                            {
                                "name": "staked",
                                "type": "bool",
                                "value": true
                            }
                        ],
                        "signature": "selfStake(uint256,address,uint256,bool)"
                    },
                    "id": 4,
                    "logData": "0x0000000000000000000000000000000000000000000000000000000000000003000000000000000000000000eb1cae15b25ef6f78312e9774022b123f13bd9690000000000000000000000000000000000000000000000004563918244f400000000000000000000000000000000000000000000000000000000000000000001",
                    "logDecoded": true,
                    "operation": "EVENT",
                    "revert": false,
                    "status": true,
                    "topics": [
                        "0xdcf891885e788b94db6de05809e1c074e1396e919fa3ef010342de9dfbdd8361"
                    ]
                },
                "nodeType": 1
            }
        },
        "gasFlame": [
            {
                "children": [
                    {
                        "children": [
                            {
                                "children": [],
                                "depth": 0,
                                "name": "Initial Gas",
                                "value": 21404
                            },
                            {
                                "children": [
                                    {
                                        "children": [],
                                        "depth": 1,
                                        "name": "transferFrom",
                                        "value": 26080
                                    }
                                ],
                                "depth": 0,
                                "name": "Executed Gas",
                                "value": 67642
                            }
                        ],
                        "depth": -1,
                        "name": "Actual Gas Used",
                        "value": 89046
                    },
                    {
                        "children": [],
                        "depth": -1,
                        "name": "Refunded Gas",
                        "value": 0
                    }
                ],
                "depth": -2,
                "name": "Total Gas",
                "value": 89046
            }
        ],
        "isConfirmed": true,
        "mainTrace": [
            {
                "children": [
                    {
                        "children": [
                            {
                                "children": [
                                    {
                                        "children": [],
                                        "depth": 2,
                                        "id": 2,
                                        "order": 2
                                    },
                                    {
                                        "children": [],
                                        "depth": 2,
                                        "id": 3,
                                        "order": 3
                                    }
                                ],
                                "depth": 1,
                                "id": 1,
                                "order": 1
                            },
                            {
                                "children": [],
                                "depth": 1,
                                "id": 4,
                                "order": 4
                            }
                        ],
                        "depth": 0,
                        "id": 0,
                        "order": 0
                    }
                ],
                "depth": -1,
                "id": -1,
                "order": -1
            }
        ],
        "mainTraceNodeCount": 5,
        "parentIdMap": {
            "0": -1,
            "1": 0,
            "2": 1,
            "3": 1,
            "4": 0
        },
        "tidyTrace": [
            {
                "children": [
                    {
                        "children": [
                            {
                                "children": [
                                    {
                                        "children": [],
                                        "depth": 2,
                                        "id": 2,
                                        "order": 2
                                    },
                                    {
                                        "children": [],
                                        "depth": 2,
                                        "id": 3,
                                        "order": 3
                                    }
                                ],
                                "depth": 1,
                                "id": 1,
                                "order": 1
                            },
                            {
                                "children": [],
                                "depth": 1,
                                "id": 4,
                                "order": 4
                            }
                        ],
                        "depth": 0,
                        "id": 0,
                        "order": 0
                    }
                ],
                "depth": -1,
                "id": -1,
                "order": -1
            }
        ],
        "tidyTraceNodeCount": 5
    },
    "state_change": {
        "stateChanges": [
            {
                "address": "0x0e3efd5be54cc0f4c64e0d186b0af4b7f2a0e95f",
                "erc": "",
                "slots": [
                    {
                        "current": "0x0000000000000000000000000000000000000000000000004563918244f40000",
                        "key": "0x911de83a4bd9136d77198c5504ba60b768234918a572cf62cdcf210e733ed5e2",
                        "prev": "0x0000000000000000000000000000000000000000000000000000000000000000"
                    },
                    {
                        "current": "0x0000000000000000000000000000000000000000000024285d234e1a41ae8bb8",
                        "key": "0x75f96ab15d697e93042dc45b5c896c4b27e89bb6eaf39475c5c371cb2513f7d3",
                        "prev": "0x00000000000000000000000000000000000000000000242817bfbc97fcba8bb8"
                    }
                ],
                "storageVariables": [
                    {
                        "name": "stakes",
                        "type": "mapping(uint256 => mapping(address => uint256))",
                        "value": {
                            "pairs": [
                                {
                                    "key": "3",
                                    "value": {
                                        "pairs": [
                                            {
                                                "key": "0xeb1cae15b25ef6f78312e9774022b123f13bd969",
                                                "value": {
                                                    "current": "5000000000000000000",
                                                    "prev": "0",
                                                    "typeTag": 1
                                                }
                                            }
                                        ],
                                        "typeTag": 4
                                    }
                                }
                            ],
                            "typeTag": 4
                        }
                    },
                    {
                        "name": "rounds",
                        "type": "mapping(uint256 => struct IDStaking.Round)",
                        "value": {
                            "pairs": [
                                {
                                    "key": "3",
                                    "value": {
                                        "fields": [
                                            {
                                                "name": "tvl",
                                                "type": "uint256",
                                                "value": {
                                                    "current": "170749774440000000003000",
                                                    "prev": "170744774440000000003000",
                                                    "typeTag": 1
                                                }
                                            }
                                        ],
                                        "typeTag": 3
                                    }
                                }
                            ],
                            "typeTag": 4
                        }
                    }
                ]
            },
            {
                "address": "0xde30da39c46104798bb5aa3fe8b9e0e1f348163f",
                "erc": "ERC-20",
                "slots": [
                    {
                        "current": "0x00000000000000000000000000000000000000000000456a23952a9379717873",
                        "key": "0xe80359485e9210366a455e3ee72ad650e8d8e83d55ec14e69717c5b1757c1897",
                        "prev": "0x000000000000000000000000000000000000000000004569de319911347d7873"
                    },
                    {
                        "current": "0x0000000000000000000000000000000000000000000000004c6cca3b3480a000",
                        "key": "0xd65704c1f7515d8b8240f3ddcaa2f9f1cb89fb22675b3f23dcb1d196a58a7f4f",
                        "prev": "0x00000000000000000000000000000000000000000000000091d05bbd7974a000"
                    },
                    {
                        "current": "0x0000000000000000000000000000000000000000000000004c6cca3b3480a000",
                        "key": "0x9235e54927db79e3c688dea7dc807838ba0b5b86400a762a6bac165793d09081",
                        "prev": "0x00000000000000000000000000000000000000000000000091d05bbd7974a000"
                    }
                ],
                "storageVariables": [
                    {
                        "name": "balances",
                        "type": "mapping(address => uint96)",
                        "value": {
                            "pairs": [
                                {
                                    "key": "0x0e3efd5be54cc0f4c64e0d186b0af4b7f2a0e95f",
                                    "value": {
                                        "current": "327801206192194475620467",
                                        "prev": "327796206192194475620467",
                                        "typeTag": 1
                                    }
                                },
                                {
                                    "key": "0xeb1cae15b25ef6f78312e9774022b123f13bd969",
                                    "value": {
                                        "current": "5506998800000000000",
                                        "prev": "10506998800000000000",
                                        "typeTag": 1
                                    }
                                }
                            ],
                            "typeTag": 4
                        }
                    },
                    {
                        "name": "allowances",
                        "type": "mapping(address => mapping(address => uint96))",
                        "value": {
                            "pairs": [
                                {
                                    "key": "0xeb1cae15b25ef6f78312e9774022b123f13bd969",
                                    "value": {
                                        "pairs": [
                                            {
                                                "key": "0x0e3efd5be54cc0f4c64e0d186b0af4b7f2a0e95f",
                                                "value": {
                                                    "current": "5506998800000000000",
                                                    "prev": "10506998800000000000",
                                                    "typeTag": 1
                                                }
                                            }
                                        ],
                                        "typeTag": 4
                                    }
                                }
                            ],
                            "typeTag": 4
                        }
                    }
                ]
            }
        ]
    }
}