{
    "balance_change": {
        "balanceChanges": [
            {
                "account": "0x0b795953f7b693b123cc3bd31887b6b7ea0fd61c",
                "assets": [
                    {
                        "address": "0xeeeeeeeeeeeeeeeeeeeeeeeeeeeeeeeeeeeeeeee",
                        "amount": "0.399254",
                        "iconUrl": "https://assets.blocksec.com/image/1663669189317-3.png",
                        "isERC1155": false,
                        "isERC721": false,
                        "sign": false,
                        "value": "1427.504985"
                    }
                ]
            },
            {
                "account": "0x52de8d3febd3a06d3c627f59d56e6892b80dcf12",
                "assets": [
                    {
                        "address": "0xeeeeeeeeeeeeeeeeeeeeeeeeeeeeeeeeeeeeeeee",
                        "amount": "0.399254",
                        "iconUrl": "https://assets.blocksec.com/image/1663669189317-3.png",
                        "isERC1155": false,
                        "isERC721": false,
                        "sign": true,
                        "value": "1427.504985"
                    }
                ]
            }
        ]
    },
    "profile": {
        "basic_info": {
            "baseFee": "59.112765856",
            "blockNumber": 13240349,
            "callData": "0xb6b4af05000000000000000000000000000000000000000000000000058a6f65cd2760000000000000000000000000000000000000000000000000000000000f0ea357cb000000000000000000000000000000000000000000000000000000006143f41591269c32aa633af86b6198b9434b716c9f9b016c2394192c343a54f938b020d174e01be408cee5a34e12acd7bdfe1db71f64135289253ea1bfe2f99ffa4bfa38000000000000000000000000000000000000000000000000000000000000001c2ba735ebdbf47bd95878249e224a042a6678e29898801927617373cdb6d49d465b2a04c5ed550af5e54e46ccbc61c1d4778a9a495f199acce4f0030f618d449d0000000000000000000000000000000000000000000000000000000000000000",
            "debugEnable": true,
            "errorInfo": "",
            "eventCount": 1,
            "feeRecipient": "0x45a36a8e118c37e4c47ef4ab827a7c9e579e11e2",
            "formatValue": "0.399254",
            "gasLimit": 300000,
            "gasPrice": "64.670095307",
            "gasUsed": 56524,
            "intTxnCount": 1,
            "internalRevert": false,
            "internalRevertMessage": "",
            "isContractCreation": false,
            "isFlashloan": false,
            "maxFee": "64.670095307",
            "nonce": 1035,
            "overwritedBlockNumber": -1,
            "priorityFee": "64.670095307",
            "receiver": "0x52de8d3febd3a06d3c627f59d56e6892b80dcf12",
            "revertMessage": "",
            "sender": "0x0b795953f7b693b123cc3bd31887b6b7ea0fd61c",
            "simulationEnable": true,
            "sourceTxnHash": "0x0378c0a06458a0ba586dda9efed4ce65ceb6ee62a8c4c2deef0a1da6382a0a5b",
            "status": true,
            "timestamp": "2021-09-17T01:39:35Z",
            "transactionFee": "0.003655412467132868",
            "txnHash": "0x0378c0a06458a0ba586dda9efed4ce65ceb6ee62a8c4c2deef0a1da6382a0a5b",
            "txnIndex": 32,
            "type": 2,
            "value": "399254000000000000"
        },
        "fund_flow": [
            {
                "amount": "0.399254",
                "from": "0x0b795953f7b693b123cc3bd31887b6b7ea0fd61c",
                "id": 1,
                "isERC1155": false,
                "isERC721": false,
                "isReverted": false,
                "order": 1,
                "to": "0x52de8d3febd3a06d3c627f59d56e6892b80dcf12",
                "token": "0xeeeeeeeeeeeeeeeeeeeeeeeeeeeeeeeeeeeeeeee"
            }
        ],
        "token_infos": [
            {
                "address": "0xc02aaa39b223fe8d0a0e5c4f27ead9083c756cc2",
                "decimals": 18
            },
            {
                "address": "0xeeeeeeeeeeeeeeeeeeeeeeeeeeeeeeeeeeeeeeee",
                "decimals": 18
            }
        ]
    },
    "address_label": {
        "labels": [
            {
                "address": "0x0000000000000000000000000000000000000002",
                "label": "Precompiled"
            },
            {
                "address": "0x0000000000000000000000000000000000000003",
                "label": "Precompiled"
            },
            {
                "address": "0x0000000000000000000000000000000000000004",
                "label": "Precompiled"
            },
            {
                "address": "0xeeeeeeeeeeeeeeeeeeeeeeeeeeeeeeeeeeeeeeee",
                "label": "Ether"
            },
            {
                "address": "0x52de8d3febd3a06d3c627f59d56e6892b80dcf12",
                "label": "BitPay: Invoice 2"
            },
            {
                "address": "0x0000000000000000000000000000000000000000",
                "label": "Null Address"
            },
            {
                "address": "0x0000000000000000000000000000000000000001",
                "label": "Precompiled"
            }
        ]
    },
    "trace": {
        "accountLabels": null,
        "dataMap": {
            "-1": {
                "invocation": {
                    "address": "0x0b795953f7b693b123cc3bd31887b6b7ea0fd61c",
                    "callData": "",
                    "decodedMethod": null,
                    "errorInfo": "",
                    "fromAddress": "",
                    "gasUsed": 0,
                    "id": -1,
                    "methodDecoded": false,
                    "operation": "",
                    "output": "",
                    "revert": false,
                    "revertMessage": "",
                    "selector": "",
                    "status": false,
                    "value": ""
                },
                "nodeType": 0
            },
            "0": {
                "invocation": {
                    "address": "0x52de8d3febd3a06d3c627f59d56e6892b80dcf12",
                    "callData": "0x000000000000000000000000000000000000000000000000058a6f65cd2760000000000000000000000000000000000000000000000000000000000f0ea357cb000000000000000000000000000000000000000000000000000000006143f41591269c32aa633af86b6198b9434b716c9f9b016c2394192c343a54f938b020d174e01be408cee5a34e12acd7bdfe1db71f64135289253ea1bfe2f99ffa4bfa38000000000000000000000000000000000000000000000000000000000000001c2ba735ebdbf47bd95878249e224a042a6678e29898801927617373cdb6d49d465b2a04c5ed550af5e54e46ccbc61c1d4778a9a495f199acce4f0030f618d449d0000000000000000000000000000000000000000000000000000000000000000",
                    "decodedMethod": {
                        "callParams": [
                            {
                                "name": "value",
                                "type": "uint256",
                                "value": "399,254,000,000,000,000"
                            },
                            {
                                "name": "gasPrice",
                                "type": "uint256",
                                "value": "64,670,095,307"
                            },
                            {
                                "name": "expiration",
                                "type": "uint256",
                                "value": "1,631,843,349"
                            },
                            {
                                "name": "payload",
                                "type": "bytes32",
                                "value": "0x91269c32aa633af86b6198b9434b716c9f9b016c2394192c343a54f938b020d1"
                            },
                            {
                                "name": "hash",
                                "type": "bytes32",
                                "value": "0x74e01be408cee5a34e12acd7bdfe1db71f64135289253ea1bfe2f99ffa4bfa38"
                            },
                            {
                                "name": "v",
                                "type": "uint8",
                                "value": "28"
                            },
                            {
                                "name": "r",
                                "type": "bytes32",
                                "value": "0x2ba735ebdbf47bd95878249e224a042a6678e29898801927617373cdb6d49d46"
                            },
                            {
                                "name": "s",
                                "type": "bytes32",
                                "value": "0x5b2a04c5ed550af5e54e46ccbc61c1d4778a9a495f199acce4f0030f618d449d"
                            },
                            {
                                "name": "tokenContract",
                                "type": "address",
                                "value": "0x0000000000000000000000000000000000000000"
                            }
                        ],
                        "constructorArguments": "",
                        "name": "pay",
                        "returnParams": [],
                        "signature": "pay(uint256,uint256,uint256,bytes32,bytes32,uint8,bytes32,bytes32,address)"
                    },
                    "errorInfo": "",
                    "fromAddress": "0x0b795953f7b693b123cc3bd31887b6b7ea0fd61c",
                    "gasUsed": 56524,
                    "id": 0,
                    "methodDecoded": true,
                    "operation": "CALL",
                    "output": "",
                    "revert": false,
                    "revertMessage": "",
                    "selector": "0xb6b4af05",
                    "status": true,
                    "value": "0.399254"
                },
                "nodeType": 0
            },
            "1": {
                "invocation": {
                    "address": "0x0000000000000000000000000000000000000001",
                    "callData": "0xcebbb239f3e679c1eb7827a07b562575827e2c61a6b5dceb9ad2ef52000000000000000000000000000000000000000000000000000000000000001c2ba735ebdbf47bd95878249e224a042a6678e29898801927617373cdb6d49d465b2a04c5ed550af5e54e46ccbc61c1d4778a9a495f199acce4f0030f618d449d",
                    "decodedMethod": {
                        "callParams": [
                            {
                                "name": "hash",
                                "type": "bytes32",
                                "value": "0xd6d616d5cebbb239f3e679c1eb7827a07b562575827e2c61a6b5dceb9ad2ef52"
                            },
                            {
                                "name": "v",
                                "type": "uint256",
                                "value": "28"
                            },
                            {
                                "name": "r",
                                "type": "bytes32",
                                "value": "0x2ba735ebdbf47bd95878249e224a042a6678e29898801927617373cdb6d49d46"
                            },
                            {
                                "name": "s",
                                "type": "bytes32",
                                "value": "0x5b2a04c5ed550af5e54e46ccbc61c1d4778a9a495f199acce4f0030f618d449d"
                            }
                        ],
                        "constructorArguments": "",
                        "name": "ecrecover",
                        "returnParams": [
                            {
                                "name": "",
                                "type": "address",
                                "value": "0xa97ceb180ca61d124b6a4aadc5530bc53198922f"
                            }
                        ],
                        "signature": "ecrecover(bytes32,uint256,bytes32,bytes32)"
                    },
                    "errorInfo": "",
                    "fromAddress": "0x52de8d3febd3a06d3c627f59d56e6892b80dcf12",
                    "gasUsed": 3000,
                    "id": 1,
                    "methodDecoded": true,
                    "operation": "CALL",
                    "output": "0x000000000000000000000000a97ceb180ca61d124b6a4aadc5530bc53198922f",
                    "revert": false,
                    "revertMessage": "",
                    "selector": "0xd6d616d5",
                    "status": true,
                    "value": "0"
                },
                "nodeType": 0
            },
            "2": {
                "event": {
                    "contract": "0x52de8d3febd3a06d3c627f59d56e6892b80dcf12",
                    "decodedLog": {
                        "name": "PaymentAccepted",
                        "params": [
                            {
                                "name": "hash",
                                "type": "bytes32",
                                "value": "0x74e01be408cee5a34e12acd7bdfe1db71f64135289253ea1bfe2f99ffa4bfa38"
                            },
                            {
                                "name": "tokenContract",
                                "type": "address",
                                "value": "0x0000000000000000000000000000000000000000"
                            },
                            {
                                "name": "time",
                                "type": "uint256",
                                "value": "1,631,842,775"
                            },
                            {
                                "name": "value",
                                "type": "uint256",
                                "value": "399,254,000,000,000,000"
                            }
                        ],
                        "signature": "PaymentAccepted(bytes32,address,uint256,uint256)"
                    },
                    "id": 2,
                    "logData": "0x000000000000000000000000000000000000000000000000000000006143f1d7000000000000000000000000000000000000000000000000058a6f65cd276000",
                    "logDecoded": true,
                    "operation": "EVENT",
                    "revert": false,
                    "status": true,
                    "topics": [
                        "0x826e7792f434a28ba302e6767da85b4b8e56b83a5e028687f30e848e32667f95",
                        "0x74e01be408cee5a34e12acd7bdfe1db71f64135289253ea1bfe2f99ffa4bfa38",
                        "0x0000000000000000000000000000000000000000000000000000000000000000"
                    ]
                },
                "nodeType": 1
            }
        },
        "gasFlame": [
            {
                "children": [
                    {
                        "children": [
                            {
                                "children": [],
                                "depth": 0,
                                "name": "Initial Gas",
                                "value": 23956
                            },
                            {
                                "children": [
                                    {
                                        "children": [],
                                        "depth": 1,
                                        "name": "ecrecover",
                                        "value": 3000
                                    }
                                ],
                                "depth": 0,
                                "name": "Executed Gas",
                                "value": 32568
                            }
                        ],
                        "depth": -1,
                        "name": "Actual Gas Used",
                        "value": 56524
                    },
                    {
                        "children": [],
                        "depth": -1,
                        "name": "Refunded Gas",
                        "value": 0
                    }
                ],
                "depth": -2,
                "name": "Total Gas",
                "value": 56524
            }
        ],
        "isConfirmed": true,
        "mainTrace": [
            {
                "children": [
                    {
                        "children": [
                            {
                                "children": [],
                                "depth": 1,
                                "id": 1,
                                "order": 1
                            },
                            {
                                "children": [],
                                "depth": 1,
                                "id": 2,
                                "order": 2
                            }
                        ],
                        "depth": 0,
                        "id": 0,
                        "order": 0
                    }
                ],
                "depth": -1,
                "id": -1,
                "order": -1
            }
        ],
        "mainTraceNodeCount": 3,
        "parentIdMap": {
            "0": -1,
            "1": 0,
            "2": 0
        },
        "tidyTrace": [
            {
                "children": [
                    {
                        "children": [
                            {
                                "children": [],
                                "depth": 1,
                                "id": 1,
                                "order": 1
                            },
                            {
                                "children": [],
                                "depth": 1,
                                "id": 2,
                                "order": 2
                            }
                        ],
                        "depth": 0,
                        "id": 0,
                        "order": 0
                    }
                ],
                "depth": -1,
                "id": -1,
                "order": -1
            }
        ],
        "tidyTraceNodeCount": 3
    },
    "state_change": {
        "stateChanges": [
            {
                "address": "0x52de8d3febd3a06d3c627f59d56e6892b80dcf12",
                "erc": "",
                "slots": [
                    {
                        "current": "0x0000000000000000000000000000000000000000000000000000000000000001",
                        "key": "0xeb0c3e022225cb98c1771a5b29a4ad8a46470a65bf28531e9d850966787216a5",
                        "prev": "0x0000000000000000000000000000000000000000000000000000000000000000"
                    }
                ],
                "storageVariables": [
                    {
                        "name": "isPaid",
                        "type": "mapping(bytes32 => bool)",
                        "value": {
                            "pairs": [
                                {
                                    "key": "0x91269c32aa633af86b6198b9434b716c9f9b016c2394192c343a54f938b020d1",
                                    "value": {
                                        "current": "true",
                                        "prev": "false",
                                        "typeTag": 1
                                    }
                                }
                            ],
                            "typeTag": 4
                        }
                    }
                ]
            }
        ]
    }
}