{
    "balance_change": {
        "balanceChanges": []
    },
    "profile": {
        "basic_info": {
            "baseFee": "2.318911084",
            "blockNumber": 20628772,
            "callData": "0x09c182c30200000000000000000000000000000000000000000000000000000000000000c1d6f7cdc171ddca4e191f36bfda243db946c26b714a7d675102dc1754d9fa660000000000000000000000000d0bb71a3c473cf754203d7d0e2e67a684bebedc000000000000000000000000c02aaa39b223fe8d0a0e5c4f27ead9083c756cc2000000000000000000000000d7cfdb3cdc33dbeb9e9a4c95b61953cf12a008b30000000000000000000000000000000000000000000000000000000000000220000000000000000000000000000000000000000000083068134c1ffd5380000000000000000000000000000000000000000000000000000006f05b59d3b20000ffffffffffffffffffffffffffffffffffffffffffffffffffffffffffffffff0000000000000000000000000000000000000000000000000000000000000000000000000000000000000000000000000000000000000000000009184e72a000000000000000000000000000000000000000000000000000000000000000002d0000000000000000000000000000000000000000000000000000000000000063000000000000000000000000000000000000000000000000016345785d8a000000000000000000000000000000000000000000000000000000000000000000010000000000000000000000000000000000000000000000000000000000000001000000000000000000000000000000000000000000000000000000000000000000000000000000000000000000000000000000000000000000000000000000010000000000000000000000005f772efc1722f3a888f80b667bf9fa43e0e54bf1",
            "debugEnable": true,
            "errorInfo": "execution reverted",
            "eventCount": 1,
            "feeRecipient": "0x1f9090aae28b8a3dceadf281b0f12828e676c326",
            "formatValue": "0",
            "gasLimit": 1000029,
            "gasPrice": "5.618911084",
            "gasUsed": 116969,
            "intTxnCount": 6,
            "internalRevert": true,
            "internalRevertMessage": "",
            "isContractCreation": false,
            "isFlashloan": false,
            "maxFee": "6.36096263",
            "nonce": 882,
            "overwritedBlockNumber": -1,
            "priorityFee": "3.3",
            "receiver": "0x635f1259683b5f471538ee3180fd9604b4a478f3",
            "revertMessage": "",
            "sender": "0x5f772efc1722f3a888f80b667bf9fa43e0e54bf1",
            "simulationEnable": true,
            "sourceTxnHash": "0x038c8de91e6730caa0590776696e016c756e4fcbe2366ed5390efbe2fbb24cd5",
            "status": false,
            "timestamp": "2024-08-28T18:07:23Z",
            "transactionFee": "0.000657238410584396",
            "txnHash": "0x038c8de91e6730caa0590776696e016c756e4fcbe2366ed5390efbe2fbb24cd5",
            "txnIndex": 10,
            "type": 2,
            "value": "0"
        },
        "fund_flow": [],
        "token_infos": [
            {
                "address": "0xc02aaa39b223fe8d0a0e5c4f27ead9083c756cc2",
                "decimals": 18
            },
            {
                "address": "0xeeeeeeeeeeeeeeeeeeeeeeeeeeeeeeeeeeeeeeee",
                "decimals": 18
            }
        ]
    },
    "address_label": {
        "labels": [
            {
                "address": "0x0000000000000000000000000000000000000004",
                "label": "Precompiled"
            },
            {
                "address": "0xeeeeeeeeeeeeeeeeeeeeeeeeeeeeeeeeeeeeeeee",
                "label": "Ether"
            },
            {
                "address": "0xc02aaa39b223fe8d0a0e5c4f27ead9083c756cc2",
                "label": "Wrapped Ether (WETH)"
            },
            {
                "address": "0x0d0bb71a3c473cf754203d7d0e2e67a684bebedc",
                "label": "Uniswap V2: BRUH 42"
            },
            {
                "address": "0xd7cfdb3cdc33dbeb9e9a4c95b61953cf12a008b3",
                "label": "BRUH"
            },
            {
                "address": "0x0000000000000000000000000000000000000001",
                "label": "Precompiled"
            },
            {
                "address": "0x0000000000000000000000000000000000000002",
                "label": "Precompiled"
            },
            {
                "address": "0x0000000000000000000000000000000000000003",
                "label": "Precompiled"
            }
        ]
    },
    "trace": {
        "accountLabels": null,
        "dataMap": {
            "-1": {
                "invocation": {
                    "address": "0x5f772efc1722f3a888f80b667bf9fa43e0e54bf1",
                    "callData": "",
                    "decodedMethod": null,
                    "errorInfo": "",
                    "fromAddress": "",
                    "gasUsed": 0,
                    "id": -1,
                    "methodDecoded": false,
                    "operation": "",
                    "output": "",
                    "revert": false,
                    "revertMessage": "",
                    "selector": "",
                    "status": false,
                    "value": ""
                },
                "nodeType": 0
            },
            "0": {
                "invocation": {
                    "address": "0x635f1259683b5f471538ee3180fd9604b4a478f3",
                    "callData": "0x0200000000000000000000000000000000000000000000000000000000000000c1d6f7cdc171ddca4e191f36bfda243db946c26b714a7d675102dc1754d9fa660000000000000000000000000d0bb71a3c473cf754203d7d0e2e67a684bebedc000000000000000000000000c02aaa39b223fe8d0a0e5c4f27ead9083c756cc2000000000000000000000000d7cfdb3cdc33dbeb9e9a4c95b61953cf12a008b30000000000000000000000000000000000000000000000000000000000000220000000000000000000000000000000000000000000083068134c1ffd5380000000000000000000000000000000000000000000000000000006f05b59d3b20000ffffffffffffffffffffffffffffffffffffffffffffffffffffffffffffffff0000000000000000000000000000000000000000000000000000000000000000000000000000000000000000000000000000000000000000000009184e72a000000000000000000000000000000000000000000000000000000000000000002d0000000000000000000000000000000000000000000000000000000000000063000000000000000000000000000000000000000000000000016345785d8a000000000000000000000000000000000000000000000000000000000000000000010000000000000000000000000000000000000000000000000000000000000001000000000000000000000000000000000000000000000000000000000000000000000000000000000000000000000000000000000000000000000000000000010000000000000000000000005f772efc1722f3a888f80b667bf9fa43e0e54bf1",
                    "decodedMethod": null,
                    "errorInfo": "execution reverted",
                    "fromAddress": "0x5f772efc1722f3a888f80b667bf9fa43e0e54bf1",
                    "gasUsed": 116969,
                    "id": 0,
                    "methodDecoded": false,
                    "operation": "CALL",
                    "output": "",
                    "revert": true,
                    "revertMessage": "",
                    "selector": "0x09c182c3",
                    "status": false,
                    "value": "0"
                },
                "nodeType": 0
            },
            "1": {
                "invocation": {
                    "address": "0x0d0bb71a3c473cf754203d7d0e2e67a684bebedc",
                    "callData": "0x",
                    "decodedMethod": {
                        "callParams": [],
                        "constructorArguments": "",
                        "name": "getReserves",
                        "returnParams": [
                            {
                                "name": "_reserve0",
                                "type": "uint112",
                                "value": "1,000,000,000,000,000,000"
                            },
                            {
                                "name": "_reserve1",
                                "type": "uint112",
                                "value": "1,000,000,000,000,000,000,000,000,000"
                            },
                            {
                                "name": "_blockTimestampLast",
                                "type": "uint32",
                                "value": "1,724,867,243"
                            }
                        ],
                        "signature": "getReserves()"
                    },
                    "errorInfo": "",
                    "fromAddress": "0x635f1259683b5f471538ee3180fd9604b4a478f3",
                    "gasUsed": 2504,
                    "id": 1,
                    "methodDecoded": true,
                    "operation": "STATICCALL",
                    "output": "0x0000000000000000000000000000000000000000000000000de0b6b3a76400000000000000000000000000000000000000000000033b2e3c9fd0803ce80000000000000000000000000000000000000000000000000000000000000066cf62ab",
                    "revert": true,
                    "revertMessage": "",
                    "selector": "0x0902f1ac",
                    "status": true,
                    "value": "0"
                },
                "nodeType": 0
            },
            "2": {
                "invocation": {
                    "address": "0xc02aaa39b223fe8d0a0e5c4f27ead9083c756cc2",
                    "callData": "0x0000000000000000000000000d0bb71a3c473cf754203d7d0e2e67a684bebedc000000000000000000000000000000000000000000000000000009184e72a000",
                    "decodedMethod": {
                        "callParams": [
                            {
                                "name": "dst",
                                "type": "address",
                                "value": "0x0d0bb71a3c473cf754203d7d0e2e67a684bebedc"
                            },
                            {
                                "decimalAvailable": true,
                                "name": "wad",
                                "type": "uint256",
                                "value": "10,000,000,000,000"
                            }
                        ],
                        "constructorArguments": "",
                        "name": "transfer",
                        "returnParams": [
                            {
                                "name": "",
                                "type": "bool",
                                "value": true
                            }
                        ],
                        "signature": "transfer(address,uint256)"
                    },
                    "errorInfo": "",
                    "fromAddress": "0x635f1259683b5f471538ee3180fd9604b4a478f3",
                    "gasUsed": 12862,
                    "id": 2,
                    "methodDecoded": true,
                    "operation": "CALL",
                    "output": "0x0000000000000000000000000000000000000000000000000000000000000001",
                    "revert": true,
                    "revertMessage": "",
                    "selector": "0xa9059cbb",
                    "status": true,
                    "value": "0"
                },
                "nodeType": 0
            },
            "3": {
                "event": {
                    "contract": "0xc02aaa39b223fe8d0a0e5c4f27ead9083c756cc2",
                    "decodedLog": {
                        "name": "Transfer",
                        "params": [
                            {
                                "name": "src",
                                "type": "address",
                                "value": "0x635f1259683b5f471538ee3180fd9604b4a478f3"
                            },
                            {
                                "name": "dst",
                                "type": "address",
                                "value": "0x0d0bb71a3c473cf754203d7d0e2e67a684bebedc"
                            },
                            {
                                "decimalAvailable": true,
                                "name": "wad",
                                "type": "uint256",
                                "value": "10,000,000,000,000"
                            }
                        ],
                        "signature": "Transfer(address,address,uint256)"
                    },
                    "id": 3,
                    "logData": "0x000000000000000000000000000000000000000000000000000009184e72a000",
                    "logDecoded": true,
                    "operation": "EVENT",
                    "revert": true,
                    "status": false,
                    "topics": [
                        "0xddf252ad1be2c89b69c2b068fc378daa952ba7f163c4a11628f55a4df523b3ef",
                        "0x000000000000000000000000635f1259683b5f471538ee3180fd9604b4a478f3",
                        "0x0000000000000000000000000d0bb71a3c473cf754203d7d0e2e67a684bebedc"
                    ]
                },
                "nodeType": 1
            },
            "4": {
                "invocation": {
                    "address": "0x0f8ec64c90d30eaf829b4c30924e99fb3f075976",
                    "callData": "",
                    "decodedMethod": null,
                    "errorInfo": "execution reverted",
                    "fromAddress": "0x635f1259683b5f471538ee3180fd9604b4a478f3",
                    "gasUsed": 26202,
                    "id": 4,
                    "methodDecoded": false,
                    "operation": "CREATE",
                    "output": "0x9f0000",
                    "revert": true,
                    "revertMessage": "",
                    "selector": "",
                    "status": false,
                    "value": "0"
                },
                "nodeType": 0
            },
            "5": {
                "invocation": {
                    "address": "0x0d0bb71a3c473cf754203d7d0e2e67a684bebedc",
                    "callData": "0x",
                    "decodedMethod": {
                        "callParams": [],
                        "constructorArguments": "",
                        "name": "getReserves",
                        "returnParams": [
                            {
                                "name": "_reserve0",
                                "type": "uint112",
                                "value": "1,000,000,000,000,000,000"
                            },
                            {
                                "name": "_reserve1",
                                "type": "uint112",
                                "value": "1,000,000,000,000,000,000,000,000,000"
                            },
                            {
                                "name": "_blockTimestampLast",
                                "type": "uint32",
                                "value": "1,724,867,243"
                            }
                        ],
                        "signature": "getReserves()"
                    },
                    "errorInfo": "",
                    "fromAddress": "0x0f8ec64c90d30eaf829b4c30924e99fb3f075976",
                    "gasUsed": 504,
                    "id": 5,
                    "methodDecoded": true,
                    "operation": "CALL",
                    "output": "0x0000000000000000000000000000000000000000000000000de0b6b3a76400000000000000000000000000000000000000000000033b2e3c9fd0803ce80000000000000000000000000000000000000000000000000000000000000066cf62ab",
                    "revert": true,
                    "revertMessage": "",
                    "selector": "0x0902f1ac",
                    "status": true,
                    "value": "0"
                },
                "nodeType": 0
            },
            "6": {
                "invocation": {
                    "address": "0x0d0bb71a3c473cf754203d7d0e2e67a684bebedc",
                    "callData": "0x000000000000000000000000000000000000000000000000000000000000000000000000000000000000000000000000000000000000021c782a3cfc4ae61dcf0000000000000000000000000f8ec64c90d30eaf829b4c30924e99fb3f07597600000000000000000000000000000000000000000000000000000000000000800000000000000000000000000000000000000000000000000000000000000000",
                    "decodedMethod": {
                        "callParams": [
                            {
                                "name": "amount0Out",
                                "type": "uint256",
                                "value": "0"
                            },
                            {
                                "name": "amount1Out",
                                "type": "uint256",
                                "value": "9,969,900,600,091,017,092,559"
                            },
                            {
                                "name": "to",
                                "type": "address",
                                "value": "0x0f8ec64c90d30eaf829b4c30924e99fb3f075976"
                            },
                            {
                                "name": "data",
                                "type": "bytes",
                                "value": "0x"
                            }
                        ],
                        "constructorArguments": "",
                        "name": "swap",
                        "returnParams": [],
                        "signature": "swap(uint256,uint256,address,bytes)"
                    },
                    "errorInfo": "execution reverted",
                    "fromAddress": "0x0f8ec64c90d30eaf829b4c30924e99fb3f075976",
                    "gasUsed": 25244,
                    "id": 6,
                    "methodDecoded": true,
                    "operation": "CALL",
                    "output": "0x08c379a00000000000000000000000000000000000000000000000000000000000000020000000000000000000000000000000000000000000000000000000000000001a556e697377617056323a205452414e534645525f4641494c4544000000000000",
                    "revert": true,
                    "revertMessage": "UniswapV2: TRANSFER_FAILED",
                    "selector": "0x022c0d9f",
                    "status": false,
                    "value": "0"
                },
                "nodeType": 0
            },
            "7": {
                "invocation": {
                    "address": "0xd7cfdb3cdc33dbeb9e9a4c95b61953cf12a008b3",
                    "callData": "0x0000000000000000000000000f8ec64c90d30eaf829b4c30924e99fb3f07597600000000000000000000000000000000000000000000021c782a3cfc4ae61dcf",
                    "decodedMethod": {
                        "callParams": [
                            {
                                "name": "to",
                                "type": "address",
                                "value": "0x0f8ec64c90d30eaf829b4c30924e99fb3f075976"
                            },
                            {
                                "decimalAvailable": true,
                                "name": "amount",
                                "type": "uint256",
                                "value": "9,969,900,600,091,017,092,559"
                            }
                        ],
                        "constructorArguments": "",
                        "name": "transfer",
                        "returnParams": [],
                        "signature": "transfer(address,uint256)"
                    },
                    "errorInfo": "execution reverted",
                    "fromAddress": "0x0d0bb71a3c473cf754203d7d0e2e67a684bebedc",
                    "gasUsed": 11562,
                    "id": 7,
                    "methodDecoded": true,
                    "operation": "CALL",
                    "output": "0x08c379a00000000000000000000000000000000000000000000000000000000000000020000000000000000000000000000000000000000000000000000000000000001254726164696e67206e6f74206163746976650000000000000000000000000000",
                    "revert": true,
                    "revertMessage": "Trading not active",
                    "selector": "0xa9059cbb",
                    "status": false,
                    "value": "0"
                },
                "nodeType": 0
            }
        },
        "gasFlame": [
            {
                "children": [
                    {
                        "children": [
                            {
                                "children": [],
                                "depth": 0,
                                "name": "Initial Gas",
                                "value": 25632
                            },
                            {
                                "children": [
                                    {
                                        "children": [],
                                        "depth": 1,
                                        "name": "getReserves",
                                        "value": 2504
                                    },
                                    {
                                        "children": [],
                                        "depth": 1,
                                        "name": "transfer",
                                        "value": 12862
                                    },
                                    {
                                        "children": [
                                            {
                                                "children": [],
                                                "depth": 2,
                                                "name": "getReserves",
                                                "value": 504
                                            },
                                            {
                                                "children": [
                                                    {
                                                        "children": [],
                                                        "depth": 3,
                                                        "name": "transfer",
                                                        "value": 11562
                                                    }
                                                ],
                                                "depth": 2,
                                                "name": "swap",
                                                "value": 25244
                                            }
                                        ],
                                        "depth": 1,
                                        "name": "contract creation",
                                        "value": 26202
                                    }
                                ],
                                "depth": 0,
                                "name": "Executed Gas",
                                "value": 91337
                            }
                        ],
                        "depth": -1,
                        "name": "Actual Gas Used",
                        "value": 116969
                    },
                    {
                        "children": [],
                        "depth": -1,
                        "name": "Refunded Gas",
                        "value": 0
                    }
                ],
                "depth": -2,
                "name": "Total Gas",
                "value": 116969
            }
        ],
        "isConfirmed": true,
        "mainTrace": [
            {
                "children": [
                    {
                        "children": [
                            {
                                "children": [],
                                "depth": 1,
                                "id": 1,
                                "order": 1
                            },
                            {
                                "children": [
                                    {
                                        "children": [],
                                        "depth": 2,
                                        "id": 3,
                                        "order": 3
                                    }
                                ],
                                "depth": 1,
                                "id": 2,
                                "order": 2
                            },
                            {
                                "children": [
                                    {
                                        "children": [],
                                        "depth": 2,
                                        "id": 5,
                                        "order": 5
                                    },
                                    {
                                        "children": [
                                            {
                                                "children": [],
                                                "depth": 3,
                                                "id": 7,
                                                "order": 7
                                            }
                                        ],
                                        "depth": 2,
                                        "id": 6,
                                        "order": 6
                                    }
                                ],
                                "depth": 1,
                                "id": 4,
                                "order": 4
                            }
                        ],
                        "depth": 0,
                        "id": 0,
                        "order": 0
                    }
                ],
                "depth": -1,
                "id": -1,
                "order": -1
            }
        ],
        "mainTraceNodeCount": 8,
        "parentIdMap": {
            "0": -1,
            "1": 0,
            "2": 0,
            "3": 2,
            "4": 0,
            "5": 4,
            "6": 4,
            "7": 6
        },
        "tidyTrace": [
            {
                "children": [
                    {
                        "children": [
                            {
                                "children": [
                                    {
                                        "children": [],
                                        "depth": 2,
                                        "id": 3,
                                        "order": 3
                                    }
                                ],
                                "depth": 1,
                                "id": 2,
                                "order": 2
                            },
                            {
                                "children": [
                                    {
                                        "children": [],
                                        "depth": 2,
                                        "id": 5,
                                        "order": 5
                                    },
                                    {
                                        "children": [
                                            {
                                                "children": [],
                                                "depth": 3,
                                                "id": 7,
                                                "order": 7
                                            }
                                        ],
                                        "depth": 2,
                                        "id": 6,
                                        "order": 6
                                    }
                                ],
                                "depth": 1,
                                "id": 4,
                                "order": 4
                            }
                        ],
                        "depth": 0,
                        "id": 0,
                        "order": 0
                    }
                ],
                "depth": -1,
                "id": -1,
                "order": -1
            }
        ],
        "tidyTraceNodeCount": 7
    },
    "state_change": {
        "stateChanges": []
    }
}