{
    "balance_change": {
        "balanceChanges": [
            {
                "account": "0x6aceab8ffac7929aa44ffcdb435ed0a3c1b7c179",
                "assets": [
                    {
                        "address": "0x9b9647431632af44be02ddd22477ed94d14aacaa",
                        "amount": "22.9275929817",
                        "iconUrl": "",
                        "isERC1155": false,
                        "isERC721": false,
                        "sign": false,
                        "value": ""
                    }
                ]
            },
            {
                "account": "0x1aba2a7c8d905f3b2553363c43ff56b9f35d0584",
                "assets": [
                    {
                        "address": "0x9b9647431632af44be02ddd22477ed94d14aacaa",
                        "amount": "22.9275929817",
                        "iconUrl": "",
                        "isERC1155": false,
                        "isERC721": false,
                        "sign": true,
                        "value": ""
                    }
                ]
            }
        ]
    },
    "profile": {
        "basic_info": {
            "baseFee": "14.887987219",
            "blockNumber": 15858125,
            "callData": "0xa9059cbb0000000000000000000000001aba2a7c8d905f3b2553363c43ff56b9f35d05840000000000000000000000000000000000000000000000013e2f2c575cf7b900",
            "debugEnable": true,
            "errorInfo": "",
            "eventCount": 1,
            "feeRecipient": "0x4675c7e5baafbffbca748158becba61ef3b0a263",
            "formatValue": "0",
            "gasLimit": 80000,
            "gasPrice": "35",
            "gasUsed": 41315,
            "intTxnCount": 0,
            "internalRevert": false,
            "internalRevertMessage": "",
            "isContractCreation": false,
            "isFlashloan": false,
            "maxFee": "",
            "nonce": 432103,
            "overwritedBlockNumber": -1,
            "priorityFee": "",
            "receiver": "0x9b9647431632af44be02ddd22477ed94d14aacaa",
            "revertMessage": "",
            "sender": "0x6aceab8ffac7929aa44ffcdb435ed0a3c1b7c179",
            "simulationEnable": true,
            "sourceTxnHash": "0x03519f998e1d361ceabd36312b445daa87f3433de5c4712e654df90dc7355a42",
            "status": true,
            "timestamp": "2022-10-30T03:15:47Z",
            "transactionFee": "0.001446025",
            "txnHash": "0x03519f998e1d361ceabd36312b445daa87f3433de5c4712e654df90dc7355a42",
            "txnIndex": 1,
            "type": 0,
            "value": "0"
        },
        "fund_flow": [
            {
                "amount": "22.9275929817",
                "from": "0x6aceab8ffac7929aa44ffcdb435ed0a3c1b7c179",
                "id": 1,
                "isERC1155": false,
                "isERC721": false,
                "isReverted": false,
                "order": 1,
                "to": "0x1aba2a7c8d905f3b2553363c43ff56b9f35d0584",
                "token": "0x9b9647431632af44be02ddd22477ed94d14aacaa"
            }
        ],
        "token_infos": [
            {
                "address": "0x9b9647431632af44be02ddd22477ed94d14aacaa",
                "decimals": 18
            },
            {
                "address": "0xc02aaa39b223fe8d0a0e5c4f27ead9083c756cc2",
                "decimals": 18
            },
            {
                "address": "0xeeeeeeeeeeeeeeeeeeeeeeeeeeeeeeeeeeeeeeee",
                "decimals": 18
            }
        ]
    },
    "address_label": {
        "labels": [
            {
                "address": "0x0000000000000000000000000000000000000003",
                "label": "Precompiled"
            },
            {
                "address": "0x0000000000000000000000000000000000000004",
                "label": "Precompiled"
            },
            {
                "address": "0xeeeeeeeeeeeeeeeeeeeeeeeeeeeeeeeeeeeeeeee",
                "label": "Ether"
            },
            {
                "address": "0x1aba2a7c8d905f3b2553363c43ff56b9f35d0584",
                "label": "KUCOIN"
            },
            {
                "address": "0x9b9647431632af44be02ddd22477ed94d14aacaa",
                "label": "KOK PLAY: KOK Token"
            },
            {
                "address": "0x0000000000000000000000000000000000000001",
                "label": "Precompiled"
            },
            {
                "address": "0x0000000000000000000000000000000000000002",
                "label": "Precompiled"
            }
        ]
    },
    "trace": {
        "accountLabels": null,
        "dataMap": {
            "-1": {
                "invocation": {
                    "address": "0x6aceab8ffac7929aa44ffcdb435ed0a3c1b7c179",
                    "callData": "",
                    "decodedMethod": null,
                    "errorInfo": "",
                    "fromAddress": "",
                    "gasUsed": 0,
                    "id": -1,
                    "methodDecoded": false,
                    "operation": "",
                    "output": "",
                    "revert": false,
                    "revertMessage": "",
                    "selector": "",
                    "status": false,
                    "value": ""
                },
                "nodeType": 0
            },
            "0": {
                "invocation": {
                    "address": "0x9b9647431632af44be02ddd22477ed94d14aacaa",
                    "callData": "0x0000000000000000000000001aba2a7c8d905f3b2553363c43ff56b9f35d05840000000000000000000000000000000000000000000000013e2f2c575cf7b900",
                    "decodedMethod": {
                        "callParams": [
                            {
                                "name": "_to",
                                "type": "address",
                                "value": "0x1aba2a7c8d905f3b2553363c43ff56b9f35d0584"
                            },
                            {
                                "decimalAvailable": true,
                                "name": "_value",
                                "type": "uint256",
                                "value": "22,927,592,981,700,000,000"
                            }
                        ],
                        "constructorArguments": "",
                        "name": "transfer",
                        "returnParams": [
                            {
                                "name": "success",
                                "type": "bool",
                                "value": true
                            }
                        ],
                        "signature": "transfer(address,uint256)"
                    },
                    "errorInfo": "",
                    "fromAddress": "0x6aceab8ffac7929aa44ffcdb435ed0a3c1b7c179",
                    "gasUsed": 41315,
                    "id": 0,
                    "methodDecoded": true,
                    "operation": "CALL",
                    "output": "0x0000000000000000000000000000000000000000000000000000000000000001",
                    "revert": false,
                    "revertMessage": "",
                    "selector": "0xa9059cbb",
                    "status": true,
                    "value": "0"
                },
                "nodeType": 0
            },
            "1": {
                "event": {
                    "contract": "0x9b9647431632af44be02ddd22477ed94d14aacaa",
                    "decodedLog": {
                        "name": "Transfer",
                        "params": [
                            {
                                "name": "_from",
                                "type": "address",
                                "value": "0x6aceab8ffac7929aa44ffcdb435ed0a3c1b7c179"
                            },
                            {
                                "name": "_to",
                                "type": "address",
                                "value": "0x1aba2a7c8d905f3b2553363c43ff56b9f35d0584"
                            },
                            {
                                "decimalAvailable": true,
                                "name": "_value",
                                "type": "uint256",
                                "value": "22,927,592,981,700,000,000"
                            }
                        ],
                        "signature": "Transfer(address,address,uint256)"
                    },
                    "id": 1,
                    "logData": "0x0000000000000000000000000000000000000000000000013e2f2c575cf7b900",
                    "logDecoded": true,
                    "operation": "EVENT",
                    "revert": false,
                    "status": true,
                    "topics": [
                        "0xddf252ad1be2c89b69c2b068fc378daa952ba7f163c4a11628f55a4df523b3ef",
                        "0x0000000000000000000000006aceab8ffac7929aa44ffcdb435ed0a3c1b7c179",
                        "0x0000000000000000000000001aba2a7c8d905f3b2553363c43ff56b9f35d0584"
                    ]
                },
                "nodeType": 1
            }
        },
        "gasFlame": [
            {
                "children": [
                    {
                        "children": [
                            {
                                "children": [],
                                "depth": 0,
                                "name": "Initial Gas",
                                "value": 21656
                            },
                            {
                                "children": [],
                                "depth": 0,
                                "name": "Executed Gas",
                                "value": 19659
                            }
                        ],
                        "depth": -1,
                        "name": "Actual Gas Used",
                        "value": 41315
                    },
                    {
                        "children": [],
                        "depth": -1,
                        "name": "Refunded Gas",
                        "value": 0
                    }
                ],
                "depth": -2,
                "name": "Total Gas",
                "value": 41315
            }
        ],
        "isConfirmed": true,
        "mainTrace": [
            {
                "children": [
                    {
                        "children": [
                            {
                                "children": [],
                                "depth": 1,
                                "id": 1,
                                "order": 1
                            }
                        ],
                        "depth": 0,
                        "id": 0,
                        "order": 0
                    }
                ],
                "depth": -1,
                "id": -1,
                "order": -1
            }
        ],
        "mainTraceNodeCount": 2,
        "parentIdMap": {
            "0": -1,
            "1": 0
        },
        "tidyTrace": [
            {
                "children": [
                    {
                        "children": [
                            {
                                "children": [],
                                "depth": 1,
                                "id": 1,
                                "order": 1
                            }
                        ],
                        "depth": 0,
                        "id": 0,
                        "order": 0
                    }
                ],
                "depth": -1,
                "id": -1,
                "order": -1
            }
        ],
        "tidyTraceNodeCount": 2
    },
    "state_change": {
        "stateChanges": [
            {
                "address": "0x9b9647431632af44be02ddd22477ed94d14aacaa",
                "erc": "ERC-20",
                "slots": [
                    {
                        "current": "0x0000000000000000000000000000000000000000000d93e68764fe2bb8b68c0b",
                        "key": "0x370af7a2f2c92060248911ec6a5c034096bc464cf29b05bb3cfe921fc4fcc07b",
                        "prev": "0x0000000000000000000000000000000000000000000d93e7c5942a8315ae450b"
                    },
                    {
                        "current": "0x0000000000000000000000000000000000000000000000021160295837e95300",
                        "key": "0x61a4d28a685251df356e376936182bd66b216561dcfef9f526b46a6eac7017dd",
                        "prev": "0x000000000000000000000000000000000000000000000000d330fd00daf19a00"
                    }
                ],
                "storageVariables": [
                    {
                        "name": "balances",
                        "type": "mapping(address => uint256)",
                        "value": {
                            "pairs": [
                                {
                                    "key": "0x1aba2a7c8d905f3b2553363c43ff56b9f35d0584",
                                    "value": {
                                        "current": "38145534302700000000",
                                        "prev": "15217941321000000000",
                                        "typeTag": 1
                                    }
                                },
                                {
                                    "key": "0x6aceab8ffac7929aa44ffcdb435ed0a3c1b7c179",
                                    "value": {
                                        "current": "16414476035311126841822219",
                                        "prev": "16414498962904108541822219",
                                        "typeTag": 1
                                    }
                                }
                            ],
                            "typeTag": 4
                        }
                    }
                ]
            }
        ]
    }
}