{
    "balance_change": {
        "balanceChanges": [
            {
                "account": "0xdfd5293d8e347dfe59e90efd55b2956a1343963d",
                "assets": [
                    {
                        "address": "0xf433089366899d83a9f26a773d59ec7ecf30355e",
                        "amount": "26,398.20545208",
                        "iconUrl": "https://assets.blocksec.com/icon/3e3e761eda078226a3d912bc4823468b7ba9fc53f842f519de81cb28e52212b8.png",
                        "isERC1155": false,
                        "isERC721": false,
                        "sign": false,
                        "value": "16588.77945"
                    }
                ]
            },
            {
                "account": "0xe3792a9c235d434b702023b33f03c48c41631090",
                "assets": [
                    {
                        "address": "0xf433089366899d83a9f26a773d59ec7ecf30355e",
                        "amount": "26,398.20545208",
                        "iconUrl": "https://assets.blocksec.com/icon/3e3e761eda078226a3d912bc4823468b7ba9fc53f842f519de81cb28e52212b8.png",
                        "isERC1155": false,
                        "isERC721": false,
                        "sign": true,
                        "value": "16588.77945"
                    }
                ]
            }
        ]
    },
    "profile": {
        "basic_info": {
            "baseFee": "29.543288433",
            "blockNumber": 19568133,
            "callData": "0xa9059cbb000000000000000000000000e3792a9c235d434b702023b33f03c48c4163109000000000000000000000000000000000000000000000000000000266a190dcb8",
            "debugEnable": true,
            "errorInfo": "",
            "eventCount": 1,
            "feeRecipient": "0x4838b106fce9647bdf1e7877bf73ce8b0bad5f97",
            "formatValue": "0",
            "gasLimit": 207128,
            "gasPrice": "31.543288433",
            "gasUsed": 51766,
            "intTxnCount": 0,
            "internalRevert": false,
            "internalRevertMessage": "",
            "isContractCreation": false,
            "isFlashloan": false,
            "maxFee": "102",
            "nonce": 8683441,
            "overwritedBlockNumber": -1,
            "priorityFee": "2",
            "receiver": "0xf433089366899d83a9f26a773d59ec7ecf30355e",
            "revertMessage": "",
            "sender": "0xdfd5293d8e347dfe59e90efd55b2956a1343963d",
            "simulationEnable": true,
            "sourceTxnHash": "0x035ddee393806415adc69295662beb7f1f5efd5edf3640248c63dfd0b5ac650a",
            "status": true,
            "timestamp": "2024-04-02T12:32:23Z",
            "transactionFee": "0.001632869869022678",
            "txnHash": "0x035ddee393806415adc69295662beb7f1f5efd5edf3640248c63dfd0b5ac650a",
            "txnIndex": 21,
            "type": 2,
            "value": "0"
        },
        "fund_flow": [
            {
                "amount": "26,398.20545208",
                "from": "0xdfd5293d8e347dfe59e90efd55b2956a1343963d",
                "id": 1,
                "isERC1155": false,
                "isERC721": false,
                "isReverted": false,
                "order": 1,
                "to": "0xe3792a9c235d434b702023b33f03c48c41631090",
                "token": "0xf433089366899d83a9f26a773d59ec7ecf30355e"
            }
        ],
        "token_infos": [
            {
                "address": "0xc02aaa39b223fe8d0a0e5c4f27ead9083c756cc2",
                "decimals": 18
            },
            {
                "address": "0xf433089366899d83a9f26a773d59ec7ecf30355e",
                "decimals": 8
            },
            {
                "address": "0xeeeeeeeeeeeeeeeeeeeeeeeeeeeeeeeeeeeeeeee",
                "decimals": 18
            }
        ]
    },
    "address_label": {
        "labels": [
            {
                "address": "0xf433089366899d83a9f26a773d59ec7ecf30355e",
                "label": "Metal: MTL Token"
            },
            {
                "address": "0x0000000000000000000000000000000000000001",
                "label": "Precompiled"
            },
            {
                "address": "0x0000000000000000000000000000000000000002",
                "label": "Precompiled"
            },
            {
                "address": "0x0000000000000000000000000000000000000003",
                "label": "Precompiled"
            },
            {
                "address": "0x0000000000000000000000000000000000000004",
                "label": "Precompiled"
            },
            {
                "address": "0xeeeeeeeeeeeeeeeeeeeeeeeeeeeeeeeeeeeeeeee",
                "label": "Ether"
            },
            {
                "address": "0xdfd5293d8e347dfe59e90efd55b2956a1343963d",
                "label": "Binance 16"
            },
            {
                "address": "0xe3792a9c235d434b702023b33f03c48c41631090",
                "label": "UPBIT"
            }
        ]
    },
    "trace": {
        "accountLabels": null,
        "dataMap": {
            "-1": {
                "invocation": {
                    "address": "0xdfd5293d8e347dfe59e90efd55b2956a1343963d",
                    "callData": "",
                    "decodedMethod": null,
                    "errorInfo": "",
                    "fromAddress": "",
                    "gasUsed": 0,
                    "id": -1,
                    "methodDecoded": false,
                    "operation": "",
                    "output": "",
                    "revert": false,
                    "revertMessage": "",
                    "selector": "",
                    "status": false,
                    "value": ""
                },
                "nodeType": 0
            },
            "0": {
                "invocation": {
                    "address": "0xf433089366899d83a9f26a773d59ec7ecf30355e",
                    "callData": "0x000000000000000000000000e3792a9c235d434b702023b33f03c48c4163109000000000000000000000000000000000000000000000000000000266a190dcb8",
                    "decodedMethod": {
                        "callParams": [
                            {
                                "name": "_to",
                                "type": "address",
                                "value": "0xe3792a9c235d434b702023b33f03c48c41631090"
                            },
                            {
                                "decimalAvailable": true,
                                "name": "_value",
                                "type": "uint256",
                                "value": "2,639,820,545,208"
                            }
                        ],
                        "constructorArguments": "",
                        "name": "transfer",
                        "returnParams": [],
                        "signature": "transfer(address,uint256)"
                    },
                    "errorInfo": "",
                    "fromAddress": "0xdfd5293d8e347dfe59e90efd55b2956a1343963d",
                    "gasUsed": 51766,
                    "id": 0,
                    "methodDecoded": true,
                    "operation": "CALL",
                    "output": "",
                    "revert": false,
                    "revertMessage": "",
                    "selector": "0xa9059cbb",
                    "status": true,
                    "value": "0"
                },
                "nodeType": 0
            },
            "1": {
                "event": {
                    "contract": "0xf433089366899d83a9f26a773d59ec7ecf30355e",
                    "decodedLog": {
                        "name": "Transfer",
                        "params": [
                            {
                                "name": "from",
                                "type": "address",
                                "value": "0xdfd5293d8e347dfe59e90efd55b2956a1343963d"
                            },
                            {
                                "name": "to",
                                "type": "address",
                                "value": "0xe3792a9c235d434b702023b33f03c48c41631090"
                            },
                            {
                                "decimalAvailable": true,
                                "name": "value",
                                "type": "uint256",
                                "value": "2,639,820,545,208"
                            }
                        ],
                        "signature": "Transfer(address,address,uint256)"
                    },
                    "id": 1,
                    "logData": "0x00000000000000000000000000000000000000000000000000000266a190dcb8",
                    "logDecoded": true,
                    "operation": "EVENT",
                    "revert": false,
                    "status": true,
                    "topics": [
                        "0xddf252ad1be2c89b69c2b068fc378daa952ba7f163c4a11628f55a4df523b3ef",
                        "0x000000000000000000000000dfd5293d8e347dfe59e90efd55b2956a1343963d",
                        "0x000000000000000000000000e3792a9c235d434b702023b33f03c48c41631090"
                    ]
                },
                "nodeType": 1
            }
        },
        "gasFlame": [
            {
                "children": [
                    {
                        "children": [
                            {
                                "children": [],
                                "depth": 0,
                                "name": "Initial Gas",
                                "value": 21632
                            },
                            {
                                "children": [],
                                "depth": 0,
                                "name": "Executed Gas",
                                "value": 30134
                            }
                        ],
                        "depth": -1,
                        "name": "Actual Gas Used",
                        "value": 51766
                    },
                    {
                        "children": [],
                        "depth": -1,
                        "name": "Refunded Gas",
                        "value": 0
                    }
                ],
                "depth": -2,
                "name": "Total Gas",
                "value": 51766
            }
        ],
        "isConfirmed": true,
        "mainTrace": [
            {
                "children": [
                    {
                        "children": [
                            {
                                "children": [],
                                "depth": 1,
                                "id": 1,
                                "order": 1
                            }
                        ],
                        "depth": 0,
                        "id": 0,
                        "order": 0
                    }
                ],
                "depth": -1,
                "id": -1,
                "order": -1
            }
        ],
        "mainTraceNodeCount": 2,
        "parentIdMap": {
            "0": -1,
            "1": 0
        },
        "tidyTrace": [
            {
                "children": [
                    {
                        "children": [
                            {
                                "children": [],
                                "depth": 1,
                                "id": 1,
                                "order": 1
                            }
                        ],
                        "depth": 0,
                        "id": 0,
                        "order": 0
                    }
                ],
                "depth": -1,
                "id": -1,
                "order": -1
            }
        ],
        "tidyTraceNodeCount": 2
    },
    "state_change": {
        "stateChanges": [
            {
                "address": "0xf433089366899d83a9f26a773d59ec7ecf30355e",
                "erc": "ERC-20",
                "slots": [
                    {
                        "current": "0x00000000000000000000000000000000000000000000000000000ac91995cd65",
                        "key": "0x507f23fce2bd949c083e53237d2f1d0ac2c6004816f78e2de31cb8aec270174b",
                        "prev": "0x00000000000000000000000000000000000000000000000000000d2fbb26aa1d"
                    },
                    {
                        "current": "0x00000000000000000000000000000000000000000000000000000266a190dcb8",
                        "key": "0x0a18ae118f3d8e538eff6933d792229e78c8a7a98409f690729a13fdfd215ab2",
                        "prev": "0x0000000000000000000000000000000000000000000000000000000000000000"
                    }
                ],
                "storageVariables": []
            }
        ]
    }
}