{
    "balance_change": {
        "balanceChanges": [
            {
                "account": "0x2df94d642deac08aa1070e12b4c711f67a9c83a9",
                "assets": [
                    {
                        "address": "0x5da8d37485b4374fc338fc1f1ea31d07eb7bedd3",
                        "amount": "103",
                        "iconUrl": "",
                        "isERC1155": false,
                        "isERC721": false,
                        "sign": false,
                        "value": ""
                    }
                ]
            },
            {
                "account": "0x0000000000000000000000000000000000000000",
                "assets": [
                    {
                        "address": "0x5da8d37485b4374fc338fc1f1ea31d07eb7bedd3",
                        "amount": "66.126",
                        "iconUrl": "",
                        "isERC1155": false,
                        "isERC721": false,
                        "sign": true,
                        "value": ""
                    }
                ]
            },
            {
                "account": "0x2dc5a03407e21828af96fcdb7cc372b2e09c71f1",
                "assets": [
                    {
                        "address": "0x5da8d37485b4374fc338fc1f1ea31d07eb7bedd3",
                        "amount": "36.874",
                        "iconUrl": "",
                        "isERC1155": false,
                        "isERC721": false,
                        "sign": true,
                        "value": ""
                    }
                ]
            }
        ]
    },
    "profile": {
        "basic_info": {
            "baseFee": "",
            "blockNumber": 6561292,
            "callData": "0xd2a3899c0000000000000000000000000000000000000000000000000004436534a6bc400000000000000000000000000000000000000000000000000000000265ed8700000000000000000000000000000000000000000000000000000000018a2444c0",
            "debugEnable": true,
            "errorInfo": "",
            "eventCount": 4,
            "feeRecipient": "0xd4383232c8d1dbe0e03bdfab849871fa17e61807",
            "formatValue": "0",
            "gasLimit": 100000,
            "gasPrice": "17",
            "gasUsed": 54963,
            "intTxnCount": 0,
            "internalRevert": false,
            "internalRevertMessage": "",
            "isContractCreation": false,
            "isFlashloan": false,
            "maxFee": "",
            "nonce": 171,
            "overwritedBlockNumber": -1,
            "priorityFee": "",
            "receiver": "0x5da8d37485b4374fc338fc1f1ea31d07eb7bedd3",
            "revertMessage": "",
            "sender": "0x2df94d642deac08aa1070e12b4c711f67a9c83a9",
            "simulationEnable": true,
            "sourceTxnHash": "0x046040984f5193bab206fa4f9f5782435f641b3da6d925068143ef146cbea8d9",
            "status": true,
            "timestamp": "2018-10-22T07:46:41Z",
            "transactionFee": "0.000934371",
            "txnHash": "0x046040984f5193bab206fa4f9f5782435f641b3da6d925068143ef146cbea8d9",
            "txnIndex": 3,
            "type": 0,
            "value": "0"
        },
        "fund_flow": [
            {
                "amount": "36.874",
                "from": "0x2df94d642deac08aa1070e12b4c711f67a9c83a9",
                "id": 1,
                "isERC1155": false,
                "isERC721": false,
                "isReverted": false,
                "order": 1,
                "to": "0x2dc5a03407e21828af96fcdb7cc372b2e09c71f1",
                "token": "0x5da8d37485b4374fc338fc1f1ea31d07eb7bedd3"
            },
            {
                "amount": "66.126",
                "from": "0x2df94d642deac08aa1070e12b4c711f67a9c83a9",
                "id": 2,
                "isERC1155": false,
                "isERC721": false,
                "isReverted": false,
                "order": 2,
                "to": "0x0000000000000000000000000000000000000000",
                "token": "0x5da8d37485b4374fc338fc1f1ea31d07eb7bedd3"
            }
        ],
        "token_infos": [
            {
                "address": "0x5da8d37485b4374fc338fc1f1ea31d07eb7bedd3",
                "decimals": 8
            },
            {
                "address": "0xc02aaa39b223fe8d0a0e5c4f27ead9083c756cc2",
                "decimals": 18
            },
            {
                "address": "0xeeeeeeeeeeeeeeeeeeeeeeeeeeeeeeeeeeeeeeee",
                "decimals": 18
            }
        ]
    },
    "address_label": {
        "labels": [
            {
                "address": "0x0000000000000000000000000000000000000004",
                "label": "Precompiled"
            },
            {
                "address": "0xeeeeeeeeeeeeeeeeeeeeeeeeeeeeeeeeeeeeeeee",
                "label": "Ether"
            },
            {
                "address": "0x5da8d37485b4374fc338fc1f1ea31d07eb7bedd3",
                "label": "Tuzy Coin (TUC)"
            },
            {
                "address": "0x0000000000000000000000000000000000000001",
                "label": "Precompiled"
            },
            {
                "address": "0x0000000000000000000000000000000000000002",
                "label": "Precompiled"
            },
            {
                "address": "0x0000000000000000000000000000000000000003",
                "label": "Precompiled"
            }
        ]
    },
    "trace": {
        "accountLabels": null,
        "dataMap": {
            "-1": {
                "invocation": {
                    "address": "0x2df94d642deac08aa1070e12b4c711f67a9c83a9",
                    "callData": "",
                    "decodedMethod": null,
                    "errorInfo": "",
                    "fromAddress": "",
                    "gasUsed": 0,
                    "id": -1,
                    "methodDecoded": false,
                    "operation": "",
                    "output": "",
                    "revert": false,
                    "revertMessage": "",
                    "selector": "",
                    "status": false,
                    "value": ""
                },
                "nodeType": 0
            },
            "0": {
                "invocation": {
                    "address": "0x5da8d37485b4374fc338fc1f1ea31d07eb7bedd3",
                    "callData": "0x0000000000000000000000000000000000000000000000000004436534a6bc400000000000000000000000000000000000000000000000000000000265ed8700000000000000000000000000000000000000000000000000000000018a2444c0",
                    "decodedMethod": {
                        "callParams": [
                            {
                                "name": "_orderId",
                                "type": "uint256",
                                "value": "1,200,001,860,942,912"
                            },
                            {
                                "name": "_amount",
                                "type": "uint256",
                                "value": "10,300,000,000"
                            },
                            {
                                "name": "_burnAmount",
                                "type": "uint256",
                                "value": "6,612,600,000"
                            }
                        ],
                        "constructorArguments": "",
                        "name": "payOrder",
                        "returnParams": [],
                        "signature": "payOrder(uint256,uint256,uint256)"
                    },
                    "errorInfo": "",
                    "fromAddress": "0x2df94d642deac08aa1070e12b4c711f67a9c83a9",
                    "gasUsed": 54963,
                    "id": 0,
                    "methodDecoded": true,
                    "operation": "CALL",
                    "output": "",
                    "revert": false,
                    "revertMessage": "",
                    "selector": "0xd2a3899c",
                    "status": true,
                    "value": "0"
                },
                "nodeType": 0
            },
            "1": {
                "event": {
                    "contract": "0x5da8d37485b4374fc338fc1f1ea31d07eb7bedd3",
                    "decodedLog": {
                        "name": "Transfer",
                        "params": [
                            {
                                "name": "from",
                                "type": "address",
                                "value": "0x2df94d642deac08aa1070e12b4c711f67a9c83a9"
                            },
                            {
                                "name": "to",
                                "type": "address",
                                "value": "0x2dc5a03407e21828af96fcdb7cc372b2e09c71f1"
                            },
                            {
                                "decimalAvailable": true,
                                "name": "value",
                                "type": "uint256",
                                "value": "3,687,400,000"
                            }
                        ],
                        "signature": "Transfer(address,address,uint256)"
                    },
                    "id": 1,
                    "logData": "0x00000000000000000000000000000000000000000000000000000000dbc94240",
                    "logDecoded": true,
                    "operation": "EVENT",
                    "revert": false,
                    "status": true,
                    "topics": [
                        "0xddf252ad1be2c89b69c2b068fc378daa952ba7f163c4a11628f55a4df523b3ef",
                        "0x0000000000000000000000002df94d642deac08aa1070e12b4c711f67a9c83a9",
                        "0x0000000000000000000000002dc5a03407e21828af96fcdb7cc372b2e09c71f1"
                    ]
                },
                "nodeType": 1
            },
            "2": {
                "event": {
                    "contract": "0x5da8d37485b4374fc338fc1f1ea31d07eb7bedd3",
                    "decodedLog": {
                        "name": "Burn",
                        "params": [
                            {
                                "name": "burner",
                                "type": "address",
                                "value": "0x2df94d642deac08aa1070e12b4c711f67a9c83a9"
                            },
                            {
                                "name": "value",
                                "type": "uint256",
                                "value": "6,612,600,000"
                            }
                        ],
                        "signature": "Burn(address,uint256)"
                    },
                    "id": 2,
                    "logData": "0x000000000000000000000000000000000000000000000000000000018a2444c0",
                    "logDecoded": true,
                    "operation": "EVENT",
                    "revert": false,
                    "status": true,
                    "topics": [
                        "0xcc16f5dbb4873280815c1ee09dbd06736cffcc184412cf7a71a0fdb75d397ca5",
                        "0x0000000000000000000000002df94d642deac08aa1070e12b4c711f67a9c83a9"
                    ]
                },
                "nodeType": 1
            },
            "3": {
                "event": {
                    "contract": "0x5da8d37485b4374fc338fc1f1ea31d07eb7bedd3",
                    "decodedLog": {
                        "name": "Transfer",
                        "params": [
                            {
                                "name": "from",
                                "type": "address",
                                "value": "0x2df94d642deac08aa1070e12b4c711f67a9c83a9"
                            },
                            {
                                "name": "to",
                                "type": "address",
                                "value": "0x0000000000000000000000000000000000000000"
                            },
                            {
                                "decimalAvailable": true,
                                "name": "value",
                                "type": "uint256",
                                "value": "6,612,600,000"
                            }
                        ],
                        "signature": "Transfer(address,address,uint256)"
                    },
                    "id": 3,
                    "logData": "0x000000000000000000000000000000000000000000000000000000018a2444c0",
                    "logDecoded": true,
                    "operation": "EVENT",
                    "revert": false,
                    "status": true,
                    "topics": [
                        "0xddf252ad1be2c89b69c2b068fc378daa952ba7f163c4a11628f55a4df523b3ef",
                        "0x0000000000000000000000002df94d642deac08aa1070e12b4c711f67a9c83a9",
                        "0x0000000000000000000000000000000000000000000000000000000000000000"
                    ]
                },
                "nodeType": 1
            },
            "4": {
                "event": {
                    "contract": "0x5da8d37485b4374fc338fc1f1ea31d07eb7bedd3",
                    "decodedLog": {
                        "name": "Pay",
                        "params": [
                            {
                                "name": "owner",
                                "type": "address",
                                "value": "0x2df94d642deac08aa1070e12b4c711f67a9c83a9"
                            },
                            {
                                "name": "orderId",
                                "type": "uint256",
                                "value": "1,200,001,860,942,912"
                            },
                            {
                                "name": "amount",
                                "type": "uint256",
                                "value": "10,300,000,000"
                            },
                            {
                                "name": "burnAmount",
                                "type": "uint256",
                                "value": "6,612,600,000"
                            }
                        ],
                        "signature": "Pay(address,uint256,uint256,uint256)"
                    },
                    "id": 4,
                    "logData": "0x0000000000000000000000000000000000000000000000000004436534a6bc400000000000000000000000000000000000000000000000000000000265ed8700000000000000000000000000000000000000000000000000000000018a2444c0",
                    "logDecoded": true,
                    "operation": "EVENT",
                    "revert": false,
                    "status": true,
                    "topics": [
                        "0xd133b80671e5a3f860649b812b907a135bacbba732b668f4f223f4ea55c34b1e",
                        "0x0000000000000000000000002df94d642deac08aa1070e12b4c711f67a9c83a9"
                    ]
                },
                "nodeType": 1
            }
        },
        "gasFlame": [
            {
                "children": [
                    {
                        "children": [
                            {
                                "children": [],
                                "depth": 0,
                                "name": "Initial Gas",
                                "value": 22680
                            },
                            {
                                "children": [],
                                "depth": 0,
                                "name": "Executed Gas",
                                "value": 32283
                            }
                        ],
                        "depth": -1,
                        "name": "Actual Gas Used",
                        "value": 54963
                    },
                    {
                        "children": [],
                        "depth": -1,
                        "name": "Refunded Gas",
                        "value": 0
                    }
                ],
                "depth": -2,
                "name": "Total Gas",
                "value": 54963
            }
        ],
        "isConfirmed": true,
        "mainTrace": [
            {
                "children": [
                    {
                        "children": [
                            {
                                "children": [],
                                "depth": 1,
                                "id": 1,
                                "order": 1
                            },
                            {
                                "children": [],
                                "depth": 1,
                                "id": 2,
                                "order": 2
                            },
                            {
                                "children": [],
                                "depth": 1,
                                "id": 3,
                                "order": 3
                            },
                            {
                                "children": [],
                                "depth": 1,
                                "id": 4,
                                "order": 4
                            }
                        ],
                        "depth": 0,
                        "id": 0,
                        "order": 0
                    }
                ],
                "depth": -1,
                "id": -1,
                "order": -1
            }
        ],
        "mainTraceNodeCount": 5,
        "parentIdMap": {
            "0": -1,
            "1": 0,
            "2": 0,
            "3": 0,
            "4": 0
        },
        "tidyTrace": [
            {
                "children": [
                    {
                        "children": [
                            {
                                "children": [],
                                "depth": 1,
                                "id": 1,
                                "order": 1
                            },
                            {
                                "children": [],
                                "depth": 1,
                                "id": 2,
                                "order": 2
                            },
                            {
                                "children": [],
                                "depth": 1,
                                "id": 3,
                                "order": 3
                            },
                            {
                                "children": [],
                                "depth": 1,
                                "id": 4,
                                "order": 4
                            }
                        ],
                        "depth": 0,
                        "id": 0,
                        "order": 0
                    }
                ],
                "depth": -1,
                "id": -1,
                "order": -1
            }
        ],
        "tidyTraceNodeCount": 5
    },
    "state_change": {
        "stateChanges": [
            {
                "address": "0x5da8d37485b4374fc338fc1f1ea31d07eb7bedd3",
                "erc": "ERC-20",
                "slots": [
                    {
                        "current": "0x0000000000000000000000000000000000000000000000000000005b45055000",
                        "key": "0xd1f1e85d3f5473c291b20def13c6b8afbc7090fc2494a970153c3675983695fe",
                        "prev": "0x0000000000000000000000000000000000000000000000000000005daaf2d700"
                    },
                    {
                        "current": "0x000000000000000000000000000000000000000000000000000487b25e78151d",
                        "key": "0x3a00729d3a81af077063d782b30df5e4b2e0c3450341047543a57a9af4a6050b",
                        "prev": "0x000000000000000000000000000000000000000000000000000487b182aed2dd"
                    },
                    {
                        "current": "0x000000000000000000000000000000000000000000000000022f5ad2d9d7fb1d",
                        "key": "0x0000000000000000000000000000000000000000000000000000000000000001",
                        "prev": "0x000000000000000000000000000000000000000000000000022f5ad463fc3fdd"
                    }
                ],
                "storageVariables": [
                    {
                        "name": "balances",
                        "type": "mapping(address => uint256)",
                        "value": {
                            "pairs": [
                                {
                                    "key": "0x2dc5a03407e21828af96fcdb7cc372b2e09c71f1",
                                    "value": {
                                        "current": "1275100065699101",
                                        "prev": "1275096378299101",
                                        "typeTag": 1
                                    }
                                },
                                {
                                    "key": "0x2df94d642deac08aa1070e12b4c711f67a9c83a9",
                                    "value": {
                                        "current": "392000000000",
                                        "prev": "402300000000",
                                        "typeTag": 1
                                    }
                                }
                            ],
                            "typeTag": 4
                        }
                    },
                    {
                        "name": "totalSupply_",
                        "type": "uint256",
                        "value": {
                            "current": "157444373625699101",
                            "prev": "157444380238299101",
                            "typeTag": 1
                        }
                    }
                ]
            }
        ]
    }
}