{
    "balance_change": {
        "balanceChanges": [
            {
                "account": "0x063806e3dfaf7fadc29f25f6796e7aea76100579",
                "assets": [
                    {
                        "address": "0x809826cceab68c387726af962713b64cb5cb3cca",
                        "amount": "200",
                        "iconUrl": "https://assets.blocksec.com/icon/9bc915826f2aa100bb645e882d79dfbcba1c6071b911136685516b8cffe78e96.png",
                        "isERC1155": false,
                        "isERC721": false,
                        "sign": false,
                        "value": ""
                    }
                ]
            },
            {
                "account": "0x3f5ce5fbfe3e9af3971dd833d26ba9b5c936f0be",
                "assets": [
                    {
                        "address": "0x809826cceab68c387726af962713b64cb5cb3cca",
                        "amount": "200",
                        "iconUrl": "https://assets.blocksec.com/icon/9bc915826f2aa100bb645e882d79dfbcba1c6071b911136685516b8cffe78e96.png",
                        "isERC1155": false,
                        "isERC721": false,
                        "sign": true,
                        "value": ""
                    }
                ]
            }
        ]
    },
    "profile": {
        "basic_info": {
            "baseFee": "",
            "blockNumber": 8889755,
            "callData": "0xa9059cbb0000000000000000000000003f5ce5fbfe3e9af3971dd833d26ba9b5c936f0be00000000000000000000000000000000000000000000000ad78ebc5ac6200000",
            "debugEnable": true,
            "errorInfo": "",
            "eventCount": 1,
            "feeRecipient": "0x5a0b54d5dc17e0aadc383d2db43b0a0d3e029c4c",
            "formatValue": "0",
            "gasLimit": 75188,
            "gasPrice": "20",
            "gasUsed": 22594,
            "intTxnCount": 0,
            "internalRevert": false,
            "internalRevertMessage": "",
            "isContractCreation": false,
            "isFlashloan": false,
            "maxFee": "",
            "nonce": 0,
            "overwritedBlockNumber": -1,
            "priorityFee": "",
            "receiver": "0x809826cceab68c387726af962713b64cb5cb3cca",
            "revertMessage": "",
            "sender": "0x063806e3dfaf7fadc29f25f6796e7aea76100579",
            "simulationEnable": true,
            "sourceTxnHash": "0x059abd11497234711456befdee33adc0ca5e83b0429e15097e6af99477bdab87",
            "status": true,
            "timestamp": "2019-11-07T11:25:09Z",
            "transactionFee": "0.00045188",
            "txnHash": "0x059abd11497234711456befdee33adc0ca5e83b0429e15097e6af99477bdab87",
            "txnIndex": 109,
            "type": 0,
            "value": "0"
        },
        "fund_flow": [
            {
                "amount": "200",
                "from": "0x063806e3dfaf7fadc29f25f6796e7aea76100579",
                "id": 1,
                "isERC1155": false,
                "isERC721": false,
                "isReverted": false,
                "order": 1,
                "to": "0x3f5ce5fbfe3e9af3971dd833d26ba9b5c936f0be",
                "token": "0x809826cceab68c387726af962713b64cb5cb3cca"
            }
        ],
        "token_infos": [
            {
                "address": "0xc02aaa39b223fe8d0a0e5c4f27ead9083c756cc2",
                "decimals": 18
            },
            {
                "address": "0xeeeeeeeeeeeeeeeeeeeeeeeeeeeeeeeeeeeeeeee",
                "decimals": 18
            },
            {
                "address": "0x809826cceab68c387726af962713b64cb5cb3cca",
                "decimals": 18
            }
        ]
    },
    "address_label": {
        "labels": [
            {
                "address": "0x0000000000000000000000000000000000000001",
                "label": "Precompiled"
            },
            {
                "address": "0x0000000000000000000000000000000000000002",
                "label": "Precompiled"
            },
            {
                "address": "0x0000000000000000000000000000000000000003",
                "label": "Precompiled"
            },
            {
                "address": "0x0000000000000000000000000000000000000004",
                "label": "Precompiled"
            },
            {
                "address": "0xeeeeeeeeeeeeeeeeeeeeeeeeeeeeeeeeeeeeeeee",
                "label": "Ether"
            },
            {
                "address": "0x063806e3dfaf7fadc29f25f6796e7aea76100579",
                "label": "BINANCE"
            },
            {
                "address": "0x3f5ce5fbfe3e9af3971dd833d26ba9b5c936f0be",
                "label": "Binance"
            },
            {
                "address": "0x809826cceab68c387726af962713b64cb5cb3cca",
                "label": "Nucleus Vision Token"
            }
        ]
    },
    "trace": {
        "accountLabels": null,
        "dataMap": {
            "-1": {
                "invocation": {
                    "address": "0x063806e3dfaf7fadc29f25f6796e7aea76100579",
                    "callData": "",
                    "decodedMethod": null,
                    "errorInfo": "",
                    "fromAddress": "",
                    "gasUsed": 0,
                    "id": -1,
                    "methodDecoded": false,
                    "operation": "",
                    "output": "",
                    "revert": false,
                    "revertMessage": "",
                    "selector": "",
                    "status": false,
                    "value": ""
                },
                "nodeType": 0
            },
            "0": {
                "invocation": {
                    "address": "0x809826cceab68c387726af962713b64cb5cb3cca",
                    "callData": "0x0000000000000000000000003f5ce5fbfe3e9af3971dd833d26ba9b5c936f0be00000000000000000000000000000000000000000000000ad78ebc5ac6200000",
                    "decodedMethod": {
                        "callParams": [
                            {
                                "name": "to",
                                "type": "address",
                                "value": "0x3f5ce5fbfe3e9af3971dd833d26ba9b5c936f0be"
                            },
                            {
                                "decimalAvailable": true,
                                "name": "value",
                                "type": "uint256",
                                "value": "200,000,000,000,000,000,000"
                            }
                        ],
                        "constructorArguments": "",
                        "name": "transfer",
                        "returnParams": [
                            {
                                "name": "",
                                "type": "bool",
                                "value": true
                            }
                        ],
                        "signature": "transfer(address,uint256)"
                    },
                    "errorInfo": "",
                    "fromAddress": "0x063806e3dfaf7fadc29f25f6796e7aea76100579",
                    "gasUsed": 22594,
                    "id": 0,
                    "methodDecoded": true,
                    "operation": "CALL",
                    "output": "0x0000000000000000000000000000000000000000000000000000000000000001",
                    "revert": false,
                    "revertMessage": "",
                    "selector": "0xa9059cbb",
                    "status": true,
                    "value": "0"
                },
                "nodeType": 0
            },
            "1": {
                "event": {
                    "contract": "0x809826cceab68c387726af962713b64cb5cb3cca",
                    "decodedLog": {
                        "name": "Transfer",
                        "params": [
                            {
                                "name": "from",
                                "type": "address",
                                "value": "0x063806e3dfaf7fadc29f25f6796e7aea76100579"
                            },
                            {
                                "name": "to",
                                "type": "address",
                                "value": "0x3f5ce5fbfe3e9af3971dd833d26ba9b5c936f0be"
                            },
                            {
                                "decimalAvailable": true,
                                "name": "value",
                                "type": "uint256",
                                "value": "200,000,000,000,000,000,000"
                            }
                        ],
                        "signature": "Transfer(address,address,uint256)"
                    },
                    "id": 1,
                    "logData": "0x00000000000000000000000000000000000000000000000ad78ebc5ac6200000",
                    "logDecoded": true,
                    "operation": "EVENT",
                    "revert": false,
                    "status": true,
                    "topics": [
                        "0xddf252ad1be2c89b69c2b068fc378daa952ba7f163c4a11628f55a4df523b3ef",
                        "0x000000000000000000000000063806e3dfaf7fadc29f25f6796e7aea76100579",
                        "0x0000000000000000000000003f5ce5fbfe3e9af3971dd833d26ba9b5c936f0be"
                    ]
                },
                "nodeType": 1
            }
        },
        "gasFlame": [
            {
                "children": [
                    {
                        "children": [
                            {
                                "children": [],
                                "depth": 0,
                                "name": "Initial Gas",
                                "value": 23256
                            },
                            {
                                "children": [],
                                "depth": 0,
                                "name": "Executed Gas",
                                "value": 14338
                            }
                        ],
                        "depth": -1,
                        "name": "Actual Gas Used",
                        "value": 22594
                    },
                    {
                        "children": [],
                        "depth": -1,
                        "name": "Refunded Gas",
                        "value": 15000
                    }
                ],
                "depth": -2,
                "name": "Total Gas",
                "value": 37594
            }
        ],
        "isConfirmed": true,
        "mainTrace": [
            {
                "children": [
                    {
                        "children": [
                            {
                                "children": [],
                                "depth": 1,
                                "id": 1,
                                "order": 1
                            }
                        ],
                        "depth": 0,
                        "id": 0,
                        "order": 0
                    }
                ],
                "depth": -1,
                "id": -1,
                "order": -1
            }
        ],
        "mainTraceNodeCount": 2,
        "parentIdMap": {
            "0": -1,
            "1": 0
        },
        "tidyTrace": [
            {
                "children": [
                    {
                        "children": [
                            {
                                "children": [],
                                "depth": 1,
                                "id": 1,
                                "order": 1
                            }
                        ],
                        "depth": 0,
                        "id": 0,
                        "order": 0
                    }
                ],
                "depth": -1,
                "id": -1,
                "order": -1
            }
        ],
        "tidyTraceNodeCount": 2
    },
    "state_change": {
        "stateChanges": [
            {
                "address": "0x809826cceab68c387726af962713b64cb5cb3cca",
                "erc": "ERC-20",
                "slots": [
                    {
                        "current": "0x00000000000000000000000000000000000000000013f676e8685eb75729bd5f",
                        "key": "0x70571e0937d308e48dbe6a59e67c45883ee934fe35a8749f1652cd54e334aac8",
                        "prev": "0x00000000000000000000000000000000000000000013f66c10d9a25c9109bd5f"
                    },
                    {
                        "current": "0x0000000000000000000000000000000000000000000000000000000000000000",
                        "key": "0x33eb4d9472a19aac11333d27c38fbbb8d4ba1d7bcecbc446af814ad7fbdc5ce5",
                        "prev": "0x00000000000000000000000000000000000000000000000ad78ebc5ac6200000"
                    }
                ],
                "storageVariables": [
                    {
                        "name": "balances",
                        "type": "mapping(address => uint256)",
                        "value": {
                            "pairs": [
                                {
                                    "key": "0x063806e3dfaf7fadc29f25f6796e7aea76100579",
                                    "value": {
                                        "current": "0",
                                        "prev": "200000000000000000000",
                                        "typeTag": 1
                                    }
                                },
                                {
                                    "key": "0x3f5ce5fbfe3e9af3971dd833d26ba9b5c936f0be",
                                    "value": {
                                        "current": "24133486190003940680645983",
                                        "prev": "24133286190003940680645983",
                                        "typeTag": 1
                                    }
                                }
                            ],
                            "typeTag": 4
                        }
                    }
                ]
            }
        ]
    }
}