{
    "balance_change": {
        "balanceChanges": [
            {
                "account": "0x29c6746511daeb8f32abf62314f134d61637fe3f",
                "assets": [
                    {
                        "address": "0xeadc218ac4cb7895a5a56e6484646b48f841c45a",
                        "amount": "50",
                        "iconUrl": "",
                        "isERC1155": false,
                        "isERC721": false,
                        "sign": false,
                        "value": "2762.999876"
                    },
                    {
                        "address": "0xa7ed29b253d8b4e3109ce07c80fc570f81b63696",
                        "amount": "24.249306311659552213",
                        "iconUrl": "https://assets.blocksec.com/icon/e838ac89f87e35a5c948c29c4256c5927beb7e953e10b77a2a44cbcb8cf89086.png",
                        "isERC1155": false,
                        "isERC721": false,
                        "sign": true,
                        "value": "2678.013598"
                    }
                ]
            },
            {
                "account": "0x0000000000000000000000000000000000000000",
                "assets": [
                    {
                        "address": "0xeadc218ac4cb7895a5a56e6484646b48f841c45a",
                        "amount": "1",
                        "iconUrl": "",
                        "isERC1155": false,
                        "isERC721": false,
                        "sign": true,
                        "value": "51.67289237"
                    }
                ]
            },
            {
                "account": "0x0379da7a5895d13037b6937b109fa8607a659adf",
                "assets": [
                    {
                        "address": "0x6b175474e89094c44da98b954eedeac495271d0f",
                        "amount": "2,697.622639456896123457",
                        "iconUrl": "https://assets.blocksec.com/icon/39aead569b9c011cb6f69734d9abbc9ab6a80049fe93bbd12bb473a3e0e859a3.png",
                        "isERC1155": false,
                        "isERC721": false,
                        "sign": true,
                        "value": "2697.622639"
                    },
                    {
                        "address": "0xa7ed29b253d8b4e3109ce07c80fc570f81b63696",
                        "amount": "24.249306311659552213",
                        "iconUrl": "https://assets.blocksec.com/icon/e838ac89f87e35a5c948c29c4256c5927beb7e953e10b77a2a44cbcb8cf89086.png",
                        "isERC1155": false,
                        "isERC721": false,
                        "sign": false,
                        "value": "2678.013598"
                    }
                ]
            },
            {
                "account": "0xa478c2975ab1ea89e8196811f51a7b7ade33eb11",
                "assets": [
                    {
                        "address": "0xc02aaa39b223fe8d0a0e5c4f27ead9083c756cc2",
                        "amount": "2.067190399165414186",
                        "iconUrl": "https://assets.blocksec.com/icon/f1cb2d02c471d545bbc7722daf3277fd852d98e63d118771af7047bd8256c516.png",
                        "isERC1155": false,
                        "isERC721": false,
                        "sign": true,
                        "value": "2708.961986"
                    },
                    {
                        "address": "0x6b175474e89094c44da98b954eedeac495271d0f",
                        "amount": "2,697.622639456896123457",
                        "iconUrl": "https://assets.blocksec.com/icon/39aead569b9c011cb6f69734d9abbc9ab6a80049fe93bbd12bb473a3e0e859a3.png",
                        "isERC1155": false,
                        "isERC721": false,
                        "sign": false,
                        "value": "2697.622639"
                    }
                ]
            },
            {
                "account": "0xe7f15f697ee71df9e208ccf15ff95e7ad41a067a",
                "assets": [
                    {
                        "address": "0xeadc218ac4cb7895a5a56e6484646b48f841c45a",
                        "amount": "49",
                        "iconUrl": "",
                        "isERC1155": false,
                        "isERC721": false,
                        "sign": true,
                        "value": "2589.249331"
                    },
                    {
                        "address": "0xc02aaa39b223fe8d0a0e5c4f27ead9083c756cc2",
                        "amount": "2.067190399165414186",
                        "iconUrl": "https://assets.blocksec.com/icon/f1cb2d02c471d545bbc7722daf3277fd852d98e63d118771af7047bd8256c516.png",
                        "isERC1155": false,
                        "isERC721": false,
                        "sign": false,
                        "value": "2708.961986"
                    }
                ]
            }
        ]
    },
    "profile": {
        "basic_info": {
            "baseFee": "",
            "blockNumber": 11691887,
            "callData": "0x5c11d795000000000000000000000000000000000000000000000002b5e3af16b188000000000000000000000000000000000000000000000000000146e5f6660675061900000000000000000000000000000000000000000000000000000000000000a000000000000000000000000029c6746511daeb8f32abf62314f134d61637fe3f000000000000000000000000000000000000000000000000000000006008127f0000000000000000000000000000000000000000000000000000000000000004000000000000000000000000eadc218ac4cb7895a5a56e6484646b48f841c45a000000000000000000000000c02aaa39b223fe8d0a0e5c4f27ead9083c756cc20000000000000000000000006b175474e89094c44da98b954eedeac495271d0f000000000000000000000000a7ed29b253d8b4e3109ce07c80fc570f81b63696",
            "debugEnable": true,
            "errorInfo": "",
            "eventCount": 11,
            "feeRecipient": "0xb3b7874f13387d44a3398d298b075b7a3505d8d4",
            "formatValue": "0",
            "gasLimit": 297658,
            "gasPrice": "98",
            "gasUsed": 270015,
            "intTxnCount": 21,
            "internalRevert": false,
            "internalRevertMessage": "",
            "isContractCreation": false,
            "isFlashloan": false,
            "maxFee": "",
            "nonce": 312,
            "overwritedBlockNumber": -1,
            "priorityFee": "",
            "receiver": "0x7a250d5630b4cf539739df2c5dacb4c659f2488d",
            "revertMessage": "",
            "sender": "0x29c6746511daeb8f32abf62314f134d61637fe3f",
            "simulationEnable": true,
            "sourceTxnHash": "0x05e09f838b4ab70052c216dd8018409aadc8b4cf2bcd6c19f580e4765b51ffe9",
            "status": true,
            "timestamp": "2021-01-20T11:02:51Z",
            "transactionFee": "0.02646147",
            "txnHash": "0x05e09f838b4ab70052c216dd8018409aadc8b4cf2bcd6c19f580e4765b51ffe9",
            "txnIndex": 126,
            "type": 0,
            "value": "0"
        },
        "fund_flow": [
            {
                "amount": "49",
                "from": "0x29c6746511daeb8f32abf62314f134d61637fe3f",
                "id": 1,
                "isERC1155": false,
                "isERC721": false,
                "isReverted": false,
                "order": 1,
                "to": "0xe7f15f697ee71df9e208ccf15ff95e7ad41a067a",
                "token": "0xeadc218ac4cb7895a5a56e6484646b48f841c45a"
            },
            {
                "amount": "1",
                "from": "0x29c6746511daeb8f32abf62314f134d61637fe3f",
                "id": 2,
                "isERC1155": false,
                "isERC721": false,
                "isReverted": false,
                "order": 2,
                "to": "0x0000000000000000000000000000000000000000",
                "token": "0xeadc218ac4cb7895a5a56e6484646b48f841c45a"
            },
            {
                "amount": "2.067190399165414186",
                "from": "0xe7f15f697ee71df9e208ccf15ff95e7ad41a067a",
                "id": 3,
                "isERC1155": false,
                "isERC721": false,
                "isReverted": false,
                "order": 3,
                "to": "0xa478c2975ab1ea89e8196811f51a7b7ade33eb11",
                "token": "0xc02aaa39b223fe8d0a0e5c4f27ead9083c756cc2"
            },
            {
                "amount": "2,697.622639456896123457",
                "from": "0xa478c2975ab1ea89e8196811f51a7b7ade33eb11",
                "id": 4,
                "isERC1155": false,
                "isERC721": false,
                "isReverted": false,
                "order": 4,
                "to": "0x0379da7a5895d13037b6937b109fa8607a659adf",
                "token": "0x6b175474e89094c44da98b954eedeac495271d0f"
            },
            {
                "amount": "24.249306311659552213",
                "from": "0x0379da7a5895d13037b6937b109fa8607a659adf",
                "id": 5,
                "isERC1155": false,
                "isERC721": false,
                "isReverted": false,
                "order": 5,
                "to": "0x29c6746511daeb8f32abf62314f134d61637fe3f",
                "token": "0xa7ed29b253d8b4e3109ce07c80fc570f81b63696"
            }
        ],
        "token_infos": [
            {
                "address": "0xeeeeeeeeeeeeeeeeeeeeeeeeeeeeeeeeeeeeeeee",
                "decimals": 18
            },
            {
                "address": "0x6b175474e89094c44da98b954eedeac495271d0f",
                "decimals": 18
            },
            {
                "address": "0xa7ed29b253d8b4e3109ce07c80fc570f81b63696",
                "decimals": 18
            },
            {
                "address": "0xc02aaa39b223fe8d0a0e5c4f27ead9083c756cc2",
                "decimals": 18
            },
            {
                "address": "0xeadc218ac4cb7895a5a56e6484646b48f841c45a",
                "decimals": 18
            }
        ]
    },
    "address_label": {
        "labels": [
            {
                "address": "0x0379da7a5895d13037b6937b109fa8607a659adf",
                "label": "Uniswap V2: DAI-BAS"
            },
            {
                "address": "0x0000000000000000000000000000000000000004",
                "label": "Precompiled"
            },
            {
                "address": "0xeeeeeeeeeeeeeeeeeeeeeeeeeeeeeeeeeeeeeeee",
                "label": "Ether"
            },
            {
                "address": "0x6b175474e89094c44da98b954eedeac495271d0f",
                "label": "Sky: Dai Stablecoin"
            },
            {
                "address": "0x0000000000000000000000000000000000000003",
                "label": "Precompiled"
            },
            {
                "address": "0xc02aaa39b223fe8d0a0e5c4f27ead9083c756cc2",
                "label": "Wrapped Ether (WETH)"
            },
            {
                "address": "0xa7ed29b253d8b4e3109ce07c80fc570f81b63696",
                "label": "Basis Cash: BAS Token"
            },
            {
                "address": "0xa478c2975ab1ea89e8196811f51a7b7ade33eb11",
                "label": "Uniswap V2: DAI"
            },
            {
                "address": "0x0000000000000000000000000000000000000001",
                "label": "Precompiled"
            },
            {
                "address": "0xe7f15f697ee71df9e208ccf15ff95e7ad41a067a",
                "label": "Uniswap V2: MFI 4"
            },
            {
                "address": "0x7a250d5630b4cf539739df2c5dacb4c659f2488d",
                "label": "Uniswap V2: Router 2"
            },
            {
                "address": "0xeadc218ac4cb7895a5a56e6484646b48f841c45a",
                "label": "Metapool: MFI Token"
            },
            {
                "address": "0x0000000000000000000000000000000000000002",
                "label": "Precompiled"
            }
        ]
    },
    "trace": {
        "accountLabels": null,
        "dataMap": {
            "-1": {
                "invocation": {
                    "address": "0x29c6746511daeb8f32abf62314f134d61637fe3f",
                    "callData": "",
                    "decodedMethod": null,
                    "errorInfo": "",
                    "fromAddress": "",
                    "gasUsed": 0,
                    "id": -1,
                    "methodDecoded": false,
                    "operation": "",
                    "output": "",
                    "revert": false,
                    "revertMessage": "",
                    "selector": "",
                    "status": false,
                    "value": ""
                },
                "nodeType": 0
            },
            "0": {
                "invocation": {
                    "address": "0x7a250d5630b4cf539739df2c5dacb4c659f2488d",
                    "callData": "0x000000000000000000000000000000000000000000000002b5e3af16b188000000000000000000000000000000000000000000000000000146e5f6660675061900000000000000000000000000000000000000000000000000000000000000a000000000000000000000000029c6746511daeb8f32abf62314f134d61637fe3f000000000000000000000000000000000000000000000000000000006008127f0000000000000000000000000000000000000000000000000000000000000004000000000000000000000000eadc218ac4cb7895a5a56e6484646b48f841c45a000000000000000000000000c02aaa39b223fe8d0a0e5c4f27ead9083c756cc20000000000000000000000006b175474e89094c44da98b954eedeac495271d0f000000000000000000000000a7ed29b253d8b4e3109ce07c80fc570f81b63696",
                    "decodedMethod": {
                        "callParams": [
                            {
                                "name": "amountIn",
                                "type": "uint256",
                                "value": "50,000,000,000,000,000,000"
                            },
                            {
                                "name": "amountOutMin",
                                "type": "uint256",
                                "value": "23,555,504,344,086,677,017"
                            },
                            {
                                "name": "path",
                                "type": "address[]",
                                "value": [
                                    "0xeadc218ac4cb7895a5a56e6484646b48f841c45a",
                                    "0xc02aaa39b223fe8d0a0e5c4f27ead9083c756cc2",
                                    "0x6b175474e89094c44da98b954eedeac495271d0f",
                                    "0xa7ed29b253d8b4e3109ce07c80fc570f81b63696"
                                ]
                            },
                            {
                                "name": "to",
                                "type": "address",
                                "value": "0x29c6746511daeb8f32abf62314f134d61637fe3f"
                            },
                            {
                                "name": "deadline",
                                "type": "uint256",
                                "value": "1,611,141,759"
                            }
                        ],
                        "constructorArguments": "",
                        "name": "swapExactTokensForTokensSupportingFeeOnTransferTokens",
                        "returnParams": [],
                        "signature": "swapExactTokensForTokensSupportingFeeOnTransferTokens(uint256,uint256,address[],address,uint256)"
                    },
                    "errorInfo": "",
                    "fromAddress": "0x29c6746511daeb8f32abf62314f134d61637fe3f",
                    "gasUsed": 270015,
                    "id": 0,
                    "methodDecoded": true,
                    "operation": "CALL",
                    "output": "",
                    "revert": false,
                    "revertMessage": "",
                    "selector": "0x5c11d795",
                    "status": true,
                    "value": "0"
                },
                "nodeType": 0
            },
            "1": {
                "invocation": {
                    "address": "0xeadc218ac4cb7895a5a56e6484646b48f841c45a",
                    "callData": "0x00000000000000000000000029c6746511daeb8f32abf62314f134d61637fe3f000000000000000000000000e7f15f697ee71df9e208ccf15ff95e7ad41a067a000000000000000000000000000000000000000000000002b5e3af16b1880000",
                    "decodedMethod": {
                        "callParams": [
                            {
                                "name": "from",
                                "type": "address",
                                "value": "0x29c6746511daeb8f32abf62314f134d61637fe3f"
                            },
                            {
                                "name": "to",
                                "type": "address",
                                "value": "0xe7f15f697ee71df9e208ccf15ff95e7ad41a067a"
                            },
                            {
                                "decimalAvailable": true,
                                "name": "tokens",
                                "type": "uint256",
                                "value": "50,000,000,000,000,000,000"
                            }
                        ],
                        "constructorArguments": "",
                        "name": "transferFrom",
                        "returnParams": [
                            {
                                "name": "success",
                                "type": "bool",
                                "value": true
                            }
                        ],
                        "signature": "transferFrom(address,address,uint256)"
                    },
                    "errorInfo": "",
                    "fromAddress": "0x7a250d5630b4cf539739df2c5dacb4c659f2488d",
                    "gasUsed": 34649,
                    "id": 1,
                    "methodDecoded": true,
                    "operation": "CALL",
                    "output": "0x0000000000000000000000000000000000000000000000000000000000000001",
                    "revert": false,
                    "revertMessage": "",
                    "selector": "0x23b872dd",
                    "status": true,
                    "value": "0"
                },
                "nodeType": 0
            },
            "10": {
                "invocation": {
                    "address": "0xc02aaa39b223fe8d0a0e5c4f27ead9083c756cc2",
                    "callData": "0x000000000000000000000000e7f15f697ee71df9e208ccf15ff95e7ad41a067a",
                    "decodedMethod": {
                        "callParams": [
                            {
                                "name": "",
                                "type": "address",
                                "value": "0xe7f15f697ee71df9e208ccf15ff95e7ad41a067a"
                            }
                        ],
                        "constructorArguments": "",
                        "name": "balanceOf",
                        "returnParams": [
                            {
                                "decimalAvailable": true,
                                "name": "",
                                "type": "uint256",
                                "value": "91,404,854,730,788,192,682"
                            }
                        ],
                        "signature": "balanceOf(address)"
                    },
                    "errorInfo": "",
                    "fromAddress": "0xe7f15f697ee71df9e208ccf15ff95e7ad41a067a",
                    "gasUsed": 1234,
                    "id": 10,
                    "methodDecoded": true,
                    "operation": "STATICCALL",
                    "output": "0x000000000000000000000000000000000000000000000004f47f47180ed041aa",
                    "revert": false,
                    "revertMessage": "",
                    "selector": "0x70a08231",
                    "status": true,
                    "value": "0"
                },
                "nodeType": 0
            },
            "11": {
                "invocation": {
                    "address": "0xeadc218ac4cb7895a5a56e6484646b48f841c45a",
                    "callData": "0x000000000000000000000000e7f15f697ee71df9e208ccf15ff95e7ad41a067a",
                    "decodedMethod": {
                        "callParams": [
                            {
                                "name": "tokenOwner",
                                "type": "address",
                                "value": "0xe7f15f697ee71df9e208ccf15ff95e7ad41a067a"
                            }
                        ],
                        "constructorArguments": "",
                        "name": "balanceOf",
                        "returnParams": [
                            {
                                "decimalAvailable": true,
                                "name": "balance",
                                "type": "uint256",
                                "value": "2,209,130,663,322,551,219,080"
                            }
                        ],
                        "signature": "balanceOf(address)"
                    },
                    "errorInfo": "",
                    "fromAddress": "0xe7f15f697ee71df9e208ccf15ff95e7ad41a067a",
                    "gasUsed": 1307,
                    "id": 11,
                    "methodDecoded": true,
                    "operation": "STATICCALL",
                    "output": "0x000000000000000000000000000000000000000000000077c1d8b9d0e3ba7388",
                    "revert": false,
                    "revertMessage": "",
                    "selector": "0x70a08231",
                    "status": true,
                    "value": "0"
                },
                "nodeType": 0
            },
            "12": {
                "event": {
                    "contract": "0xe7f15f697ee71df9e208ccf15ff95e7ad41a067a",
                    "decodedLog": {
                        "name": "Sync",
                        "params": [
                            {
                                "name": "reserve0",
                                "type": "uint112",
                                "value": "91,404,854,730,788,192,682"
                            },
                            {
                                "name": "reserve1",
                                "type": "uint112",
                                "value": "2,209,130,663,322,551,219,080"
                            }
                        ],
                        "signature": "Sync(uint112,uint112)"
                    },
                    "id": 12,
                    "logData": "0x000000000000000000000000000000000000000000000004f47f47180ed041aa000000000000000000000000000000000000000000000077c1d8b9d0e3ba7388",
                    "logDecoded": true,
                    "operation": "EVENT",
                    "revert": false,
                    "status": true,
                    "topics": [
                        "0x1c411e9a96e071241c2f21f7726b17ae89e3cab4c78be50e062b03a9fffbbad1"
                    ]
                },
                "nodeType": 1
            },
            "13": {
                "event": {
                    "contract": "0xe7f15f697ee71df9e208ccf15ff95e7ad41a067a",
                    "decodedLog": {
                        "name": "Swap",
                        "params": [
                            {
                                "name": "sender",
                                "type": "address",
                                "value": "0x7a250d5630b4cf539739df2c5dacb4c659f2488d"
                            },
                            {
                                "name": "to",
                                "type": "address",
                                "value": "0xa478c2975ab1ea89e8196811f51a7b7ade33eb11"
                            },
                            {
                                "name": "amount0In",
                                "type": "uint256",
                                "value": "0"
                            },
                            {
                                "name": "amount1In",
                                "type": "uint256",
                                "value": "49,000,000,000,000,000,000"
                            },
                            {
                                "name": "amount0Out",
                                "type": "uint256",
                                "value": "2,067,190,399,165,414,186"
                            },
                            {
                                "name": "amount1Out",
                                "type": "uint256",
                                "value": "0"
                            }
                        ],
                        "signature": "Swap(address,uint256,uint256,uint256,uint256,address)"
                    },
                    "id": 13,
                    "logData": "0x0000000000000000000000000000000000000000000000000000000000000000000000000000000000000000000000000000000000000002a802f8630a2400000000000000000000000000000000000000000000000000001cb022b7315a3b2a0000000000000000000000000000000000000000000000000000000000000000",
                    "logDecoded": true,
                    "operation": "EVENT",
                    "revert": false,
                    "status": true,
                    "topics": [
                        "0xd78ad95fa46c994b6551d0da85fc275fe613ce37657fb8d5e3d130840159d822",
                        "0x0000000000000000000000007a250d5630b4cf539739df2c5dacb4c659f2488d",
                        "0x000000000000000000000000a478c2975ab1ea89e8196811f51a7b7ade33eb11"
                    ]
                },
                "nodeType": 1
            },
            "14": {
                "invocation": {
                    "address": "0xa478c2975ab1ea89e8196811f51a7b7ade33eb11",
                    "callData": "0x",
                    "decodedMethod": {
                        "callParams": [],
                        "constructorArguments": "",
                        "name": "getReserves",
                        "returnParams": [
                            {
                                "name": "_reserve0",
                                "type": "uint112",
                                "value": "107,562,855,013,753,404,561,030,155"
                            },
                            {
                                "name": "_reserve1",
                                "type": "uint112",
                                "value": "82,176,164,847,944,379,369,473"
                            },
                            {
                                "name": "_blockTimestampLast",
                                "type": "uint32",
                                "value": "1,611,140,550"
                            }
                        ],
                        "signature": "getReserves()"
                    },
                    "errorInfo": "",
                    "fromAddress": "0x7a250d5630b4cf539739df2c5dacb4c659f2488d",
                    "gasUsed": 1204,
                    "id": 14,
                    "methodDecoded": true,
                    "operation": "STATICCALL",
                    "output": "0x00000000000000000000000000000000000000000058f9520de2325f1e8bfc0b000000000000000000000000000000000000000000001166c760ed3962af88010000000000000000000000000000000000000000000000000000000060080dc6",
                    "revert": false,
                    "revertMessage": "",
                    "selector": "0x0902f1ac",
                    "status": true,
                    "value": "0"
                },
                "nodeType": 0
            },
            "15": {
                "invocation": {
                    "address": "0xc02aaa39b223fe8d0a0e5c4f27ead9083c756cc2",
                    "callData": "0x000000000000000000000000a478c2975ab1ea89e8196811f51a7b7ade33eb11",
                    "decodedMethod": {
                        "callParams": [
                            {
                                "name": "",
                                "type": "address",
                                "value": "0xa478c2975ab1ea89e8196811f51a7b7ade33eb11"
                            }
                        ],
                        "constructorArguments": "",
                        "name": "balanceOf",
                        "returnParams": [
                            {
                                "decimalAvailable": true,
                                "name": "",
                                "type": "uint256",
                                "value": "82,178,232,038,343,544,783,659"
                            }
                        ],
                        "signature": "balanceOf(address)"
                    },
                    "errorInfo": "",
                    "fromAddress": "0x7a250d5630b4cf539739df2c5dacb4c659f2488d",
                    "gasUsed": 1234,
                    "id": 15,
                    "methodDecoded": true,
                    "operation": "STATICCALL",
                    "output": "0x000000000000000000000000000000000000000000001166e4110ff09409c32b",
                    "revert": false,
                    "revertMessage": "",
                    "selector": "0x70a08231",
                    "status": true,
                    "value": "0"
                },
                "nodeType": 0
            },
            "16": {
                "invocation": {
                    "address": "0xa478c2975ab1ea89e8196811f51a7b7ade33eb11",
                    "callData": "0x0000000000000000000000000000000000000000000000923d08d9f7fff3824100000000000000000000000000000000000000000000000000000000000000000000000000000000000000000379da7a5895d13037b6937b109fa8607a659adf00000000000000000000000000000000000000000000000000000000000000800000000000000000000000000000000000000000000000000000000000000000",
                    "decodedMethod": {
                        "callParams": [
                            {
                                "name": "amount0Out",
                                "type": "uint256",
                                "value": "2,697,622,639,456,896,123,457"
                            },
                            {
                                "name": "amount1Out",
                                "type": "uint256",
                                "value": "0"
                            },
                            {
                                "name": "to",
                                "type": "address",
                                "value": "0x0379da7a5895d13037b6937b109fa8607a659adf"
                            },
                            {
                                "name": "data",
                                "type": "bytes",
                                "value": "0x"
                            }
                        ],
                        "constructorArguments": "",
                        "name": "swap",
                        "returnParams": [],
                        "signature": "swap(uint256,uint256,address,bytes)"
                    },
                    "errorInfo": "",
                    "fromAddress": "0x7a250d5630b4cf539739df2c5dacb4c659f2488d",
                    "gasUsed": 56933,
                    "id": 16,
                    "methodDecoded": true,
                    "operation": "CALL",
                    "output": "",
                    "revert": false,
                    "revertMessage": "",
                    "selector": "0x022c0d9f",
                    "status": true,
                    "value": "0"
                },
                "nodeType": 0
            },
            "17": {
                "invocation": {
                    "address": "0x6b175474e89094c44da98b954eedeac495271d0f",
                    "callData": "0x0000000000000000000000000379da7a5895d13037b6937b109fa8607a659adf0000000000000000000000000000000000000000000000923d08d9f7fff38241",
                    "decodedMethod": {
                        "callParams": [
                            {
                                "name": "dst",
                                "type": "address",
                                "value": "0x0379da7a5895d13037b6937b109fa8607a659adf"
                            },
                            {
                                "decimalAvailable": true,
                                "name": "wad",
                                "type": "uint256",
                                "value": "2,697,622,639,456,896,123,457"
                            }
                        ],
                        "constructorArguments": "",
                        "name": "transfer",
                        "returnParams": [
                            {
                                "name": "",
                                "type": "bool",
                                "value": true
                            }
                        ],
                        "signature": "transfer(address,uint256)"
                    },
                    "errorInfo": "",
                    "fromAddress": "0xa478c2975ab1ea89e8196811f51a7b7ade33eb11",
                    "gasUsed": 15374,
                    "id": 17,
                    "methodDecoded": true,
                    "operation": "CALL",
                    "output": "0x0000000000000000000000000000000000000000000000000000000000000001",
                    "revert": false,
                    "revertMessage": "",
                    "selector": "0xa9059cbb",
                    "status": true,
                    "value": "0"
                },
                "nodeType": 0
            },
            "18": {
                "event": {
                    "contract": "0x6b175474e89094c44da98b954eedeac495271d0f",
                    "decodedLog": {
                        "name": "Transfer",
                        "params": [
                            {
                                "name": "src",
                                "type": "address",
                                "value": "0xa478c2975ab1ea89e8196811f51a7b7ade33eb11"
                            },
                            {
                                "name": "dst",
                                "type": "address",
                                "value": "0x0379da7a5895d13037b6937b109fa8607a659adf"
                            },
                            {
                                "decimalAvailable": true,
                                "name": "wad",
                                "type": "uint256",
                                "value": "2,697,622,639,456,896,123,457"
                            }
                        ],
                        "signature": "Transfer(address,address,uint256)"
                    },
                    "id": 18,
                    "logData": "0x0000000000000000000000000000000000000000000000923d08d9f7fff38241",
                    "logDecoded": true,
                    "operation": "EVENT",
                    "revert": false,
                    "status": true,
                    "topics": [
                        "0xddf252ad1be2c89b69c2b068fc378daa952ba7f163c4a11628f55a4df523b3ef",
                        "0x000000000000000000000000a478c2975ab1ea89e8196811f51a7b7ade33eb11",
                        "0x0000000000000000000000000379da7a5895d13037b6937b109fa8607a659adf"
                    ]
                },
                "nodeType": 1
            },
            "19": {
                "invocation": {
                    "address": "0x6b175474e89094c44da98b954eedeac495271d0f",
                    "callData": "0x000000000000000000000000a478c2975ab1ea89e8196811f51a7b7ade33eb11",
                    "decodedMethod": {
                        "callParams": [
                            {
                                "name": "",
                                "type": "address",
                                "value": "0xa478c2975ab1ea89e8196811f51a7b7ade33eb11"
                            }
                        ],
                        "constructorArguments": "",
                        "name": "balanceOf",
                        "returnParams": [
                            {
                                "decimalAvailable": true,
                                "name": "",
                                "type": "uint256",
                                "value": "107,560,157,391,113,947,664,906,698"
                            }
                        ],
                        "signature": "balanceOf(address)"
                    },
                    "errorInfo": "",
                    "fromAddress": "0xa478c2975ab1ea89e8196811f51a7b7ade33eb11",
                    "gasUsed": 1302,
                    "id": 19,
                    "methodDecoded": true,
                    "operation": "STATICCALL",
                    "output": "0x00000000000000000000000000000000000000000058f8bfd0d958671e9879ca",
                    "revert": false,
                    "revertMessage": "",
                    "selector": "0x70a08231",
                    "status": true,
                    "value": "0"
                },
                "nodeType": 0
            },
            "2": {
                "event": {
                    "contract": "0xeadc218ac4cb7895a5a56e6484646b48f841c45a",
                    "decodedLog": {
                        "name": "Transfer",
                        "params": [
                            {
                                "name": "from",
                                "type": "address",
                                "value": "0x29c6746511daeb8f32abf62314f134d61637fe3f"
                            },
                            {
                                "name": "to",
                                "type": "address",
                                "value": "0xe7f15f697ee71df9e208ccf15ff95e7ad41a067a"
                            },
                            {
                                "decimalAvailable": true,
                                "name": "tokens",
                                "type": "uint256",
                                "value": "49,000,000,000,000,000,000"
                            }
                        ],
                        "signature": "Transfer(address,address,uint256)"
                    },
                    "id": 2,
                    "logData": "0x000000000000000000000000000000000000000000000002a802f8630a240000",
                    "logDecoded": true,
                    "operation": "EVENT",
                    "revert": false,
                    "status": true,
                    "topics": [
                        "0xddf252ad1be2c89b69c2b068fc378daa952ba7f163c4a11628f55a4df523b3ef",
                        "0x00000000000000000000000029c6746511daeb8f32abf62314f134d61637fe3f",
                        "0x000000000000000000000000e7f15f697ee71df9e208ccf15ff95e7ad41a067a"
                    ]
                },
                "nodeType": 1
            },
            "20": {
                "invocation": {
                    "address": "0xc02aaa39b223fe8d0a0e5c4f27ead9083c756cc2",
                    "callData": "0x000000000000000000000000a478c2975ab1ea89e8196811f51a7b7ade33eb11",
                    "decodedMethod": {
                        "callParams": [
                            {
                                "name": "",
                                "type": "address",
                                "value": "0xa478c2975ab1ea89e8196811f51a7b7ade33eb11"
                            }
                        ],
                        "constructorArguments": "",
                        "name": "balanceOf",
                        "returnParams": [
                            {
                                "decimalAvailable": true,
                                "name": "",
                                "type": "uint256",
                                "value": "82,178,232,038,343,544,783,659"
                            }
                        ],
                        "signature": "balanceOf(address)"
                    },
                    "errorInfo": "",
                    "fromAddress": "0xa478c2975ab1ea89e8196811f51a7b7ade33eb11",
                    "gasUsed": 1234,
                    "id": 20,
                    "methodDecoded": true,
                    "operation": "STATICCALL",
                    "output": "0x000000000000000000000000000000000000000000001166e4110ff09409c32b",
                    "revert": false,
                    "revertMessage": "",
                    "selector": "0x70a08231",
                    "status": true,
                    "value": "0"
                },
                "nodeType": 0
            },
            "21": {
                "event": {
                    "contract": "0xa478c2975ab1ea89e8196811f51a7b7ade33eb11",
                    "decodedLog": {
                        "name": "Sync",
                        "params": [
                            {
                                "name": "reserve0",
                                "type": "uint112",
                                "value": "107,560,157,391,113,947,664,906,698"
                            },
                            {
                                "name": "reserve1",
                                "type": "uint112",
                                "value": "82,178,232,038,343,544,783,659"
                            }
                        ],
                        "signature": "Sync(uint112,uint112)"
                    },
                    "id": 21,
                    "logData": "0x00000000000000000000000000000000000000000058f8bfd0d958671e9879ca000000000000000000000000000000000000000000001166e4110ff09409c32b",
                    "logDecoded": true,
                    "operation": "EVENT",
                    "revert": false,
                    "status": true,
                    "topics": [
                        "0x1c411e9a96e071241c2f21f7726b17ae89e3cab4c78be50e062b03a9fffbbad1"
                    ]
                },
                "nodeType": 1
            },
            "22": {
                "event": {
                    "contract": "0xa478c2975ab1ea89e8196811f51a7b7ade33eb11",
                    "decodedLog": {
                        "name": "Swap",
                        "params": [
                            {
                                "name": "sender",
                                "type": "address",
                                "value": "0x7a250d5630b4cf539739df2c5dacb4c659f2488d"
                            },
                            {
                                "name": "to",
                                "type": "address",
                                "value": "0x0379da7a5895d13037b6937b109fa8607a659adf"
                            },
                            {
                                "name": "amount0In",
                                "type": "uint256",
                                "value": "0"
                            },
                            {
                                "name": "amount1In",
                                "type": "uint256",
                                "value": "2,067,190,399,165,414,186"
                            },
                            {
                                "name": "amount0Out",
                                "type": "uint256",
                                "value": "2,697,622,639,456,896,123,457"
                            },
                            {
                                "name": "amount1Out",
                                "type": "uint256",
                                "value": "0"
                            }
                        ],
                        "signature": "Swap(address,uint256,uint256,uint256,uint256,address)"
                    },
                    "id": 22,
                    "logData": "0x00000000000000000000000000000000000000000000000000000000000000000000000000000000000000000000000000000000000000001cb022b7315a3b2a0000000000000000000000000000000000000000000000923d08d9f7fff382410000000000000000000000000000000000000000000000000000000000000000",
                    "logDecoded": true,
                    "operation": "EVENT",
                    "revert": false,
                    "status": true,
                    "topics": [
                        "0xd78ad95fa46c994b6551d0da85fc275fe613ce37657fb8d5e3d130840159d822",
                        "0x0000000000000000000000007a250d5630b4cf539739df2c5dacb4c659f2488d",
                        "0x0000000000000000000000000379da7a5895d13037b6937b109fa8607a659adf"
                    ]
                },
                "nodeType": 1
            },
            "23": {
                "invocation": {
                    "address": "0x0379da7a5895d13037b6937b109fa8607a659adf",
                    "callData": "0x",
                    "decodedMethod": {
                        "callParams": [],
                        "constructorArguments": "",
                        "name": "getReserves",
                        "returnParams": [
                            {
                                "name": "_reserve0",
                                "type": "uint112",
                                "value": "4,172,076,985,323,866,608,124,874"
                            },
                            {
                                "name": "_reserve1",
                                "type": "uint112",
                                "value": "37,640,480,159,584,597,144,001"
                            },
                            {
                                "name": "_blockTimestampLast",
                                "type": "uint32",
                                "value": "1,611,139,706"
                            }
                        ],
                        "signature": "getReserves()"
                    },
                    "errorInfo": "",
                    "fromAddress": "0x7a250d5630b4cf539739df2c5dacb4c659f2488d",
                    "gasUsed": 1204,
                    "id": 23,
                    "methodDecoded": true,
                    "operation": "STATICCALL",
                    "output": "0x000000000000000000000000000000000000000000037378bf1ec4d3db1443ca0000000000000000000000000000000000000000000007f87e98bd54ca8971c10000000000000000000000000000000000000000000000000000000060080a7a",
                    "revert": false,
                    "revertMessage": "",
                    "selector": "0x0902f1ac",
                    "status": true,
                    "value": "0"
                },
                "nodeType": 0
            },
            "24": {
                "invocation": {
                    "address": "0x6b175474e89094c44da98b954eedeac495271d0f",
                    "callData": "0x0000000000000000000000000379da7a5895d13037b6937b109fa8607a659adf",
                    "decodedMethod": {
                        "callParams": [
                            {
                                "name": "",
                                "type": "address",
                                "value": "0x0379da7a5895d13037b6937b109fa8607a659adf"
                            }
                        ],
                        "constructorArguments": "",
                        "name": "balanceOf",
                        "returnParams": [
                            {
                                "decimalAvailable": true,
                                "name": "",
                                "type": "uint256",
                                "value": "4,174,774,607,963,323,504,248,331"
                            }
                        ],
                        "signature": "balanceOf(address)"
                    },
                    "errorInfo": "",
                    "fromAddress": "0x7a250d5630b4cf539739df2c5dacb4c659f2488d",
                    "gasUsed": 1302,
                    "id": 24,
                    "methodDecoded": true,
                    "operation": "STATICCALL",
                    "output": "0x00000000000000000000000000000000000000000003740afc279ecbdb07c60b",
                    "revert": false,
                    "revertMessage": "",
                    "selector": "0x70a08231",
                    "status": true,
                    "value": "0"
                },
                "nodeType": 0
            },
            "25": {
                "invocation": {
                    "address": "0x0379da7a5895d13037b6937b109fa8607a659adf",
                    "callData": "0x00000000000000000000000000000000000000000000000000000000000000000000000000000000000000000000000000000000000000015086d79cb41afdd500000000000000000000000029c6746511daeb8f32abf62314f134d61637fe3f00000000000000000000000000000000000000000000000000000000000000800000000000000000000000000000000000000000000000000000000000000000",
                    "decodedMethod": {
                        "callParams": [
                            {
                                "name": "amount0Out",
                                "type": "uint256",
                                "value": "0"
                            },
                            {
                                "name": "amount1Out",
                                "type": "uint256",
                                "value": "24,249,306,311,659,552,213"
                            },
                            {
                                "name": "to",
                                "type": "address",
                                "value": "0x29c6746511daeb8f32abf62314f134d61637fe3f"
                            },
                            {
                                "name": "data",
                                "type": "bytes",
                                "value": "0x"
                            }
                        ],
                        "constructorArguments": "",
                        "name": "swap",
                        "returnParams": [],
                        "signature": "swap(uint256,uint256,address,bytes)"
                    },
                    "errorInfo": "",
                    "fromAddress": "0x7a250d5630b4cf539739df2c5dacb4c659f2488d",
                    "gasUsed": 71273,
                    "id": 25,
                    "methodDecoded": true,
                    "operation": "CALL",
                    "output": "",
                    "revert": false,
                    "revertMessage": "",
                    "selector": "0x022c0d9f",
                    "status": true,
                    "value": "0"
                },
                "nodeType": 0
            },
            "26": {
                "invocation": {
                    "address": "0xa7ed29b253d8b4e3109ce07c80fc570f81b63696",
                    "callData": "0x00000000000000000000000029c6746511daeb8f32abf62314f134d61637fe3f0000000000000000000000000000000000000000000000015086d79cb41afdd5",
                    "decodedMethod": {
                        "callParams": [
                            {
                                "name": "recipient",
                                "type": "address",
                                "value": "0x29c6746511daeb8f32abf62314f134d61637fe3f"
                            },
                            {
                                "decimalAvailable": true,
                                "name": "amount",
                                "type": "uint256",
                                "value": "24,249,306,311,659,552,213"
                            }
                        ],
                        "constructorArguments": "",
                        "name": "transfer",
                        "returnParams": [
                            {
                                "name": "",
                                "type": "bool",
                                "value": true
                            }
                        ],
                        "signature": "transfer(address,uint256)"
                    },
                    "errorInfo": "",
                    "fromAddress": "0x0379da7a5895d13037b6937b109fa8607a659adf",
                    "gasUsed": 29707,
                    "id": 26,
                    "methodDecoded": true,
                    "operation": "CALL",
                    "output": "0x0000000000000000000000000000000000000000000000000000000000000001",
                    "revert": false,
                    "revertMessage": "",
                    "selector": "0xa9059cbb",
                    "status": true,
                    "value": "0"
                },
                "nodeType": 0
            },
            "27": {
                "event": {
                    "contract": "0xa7ed29b253d8b4e3109ce07c80fc570f81b63696",
                    "decodedLog": {
                        "name": "Transfer",
                        "params": [
                            {
                                "name": "from",
                                "type": "address",
                                "value": "0x0379da7a5895d13037b6937b109fa8607a659adf"
                            },
                            {
                                "name": "to",
                                "type": "address",
                                "value": "0x29c6746511daeb8f32abf62314f134d61637fe3f"
                            },
                            {
                                "decimalAvailable": true,
                                "name": "value",
                                "type": "uint256",
                                "value": "24,249,306,311,659,552,213"
                            }
                        ],
                        "signature": "Transfer(address,address,uint256)"
                    },
                    "id": 27,
                    "logData": "0x0000000000000000000000000000000000000000000000015086d79cb41afdd5",
                    "logDecoded": true,
                    "operation": "EVENT",
                    "revert": false,
                    "status": true,
                    "topics": [
                        "0xddf252ad1be2c89b69c2b068fc378daa952ba7f163c4a11628f55a4df523b3ef",
                        "0x0000000000000000000000000379da7a5895d13037b6937b109fa8607a659adf",
                        "0x00000000000000000000000029c6746511daeb8f32abf62314f134d61637fe3f"
                    ]
                },
                "nodeType": 1
            },
            "28": {
                "invocation": {
                    "address": "0x6b175474e89094c44da98b954eedeac495271d0f",
                    "callData": "0x0000000000000000000000000379da7a5895d13037b6937b109fa8607a659adf",
                    "decodedMethod": {
                        "callParams": [
                            {
                                "name": "",
                                "type": "address",
                                "value": "0x0379da7a5895d13037b6937b109fa8607a659adf"
                            }
                        ],
                        "constructorArguments": "",
                        "name": "balanceOf",
                        "returnParams": [
                            {
                                "decimalAvailable": true,
                                "name": "",
                                "type": "uint256",
                                "value": "4,174,774,607,963,323,504,248,331"
                            }
                        ],
                        "signature": "balanceOf(address)"
                    },
                    "errorInfo": "",
                    "fromAddress": "0x0379da7a5895d13037b6937b109fa8607a659adf",
                    "gasUsed": 1302,
                    "id": 28,
                    "methodDecoded": true,
                    "operation": "STATICCALL",
                    "output": "0x00000000000000000000000000000000000000000003740afc279ecbdb07c60b",
                    "revert": false,
                    "revertMessage": "",
                    "selector": "0x70a08231",
                    "status": true,
                    "value": "0"
                },
                "nodeType": 0
            },
            "29": {
                "invocation": {
                    "address": "0xa7ed29b253d8b4e3109ce07c80fc570f81b63696",
                    "callData": "0x0000000000000000000000000379da7a5895d13037b6937b109fa8607a659adf",
                    "decodedMethod": {
                        "callParams": [
                            {
                                "name": "account",
                                "type": "address",
                                "value": "0x0379da7a5895d13037b6937b109fa8607a659adf"
                            }
                        ],
                        "constructorArguments": "",
                        "name": "balanceOf",
                        "returnParams": [
                            {
                                "decimalAvailable": true,
                                "name": "",
                                "type": "uint256",
                                "value": "37,616,230,853,272,937,591,788"
                            }
                        ],
                        "signature": "balanceOf(address)"
                    },
                    "errorInfo": "",
                    "fromAddress": "0x0379da7a5895d13037b6937b109fa8607a659adf",
                    "gasUsed": 1241,
                    "id": 29,
                    "methodDecoded": true,
                    "operation": "STATICCALL",
                    "output": "0x0000000000000000000000000000000000000000000007f72e11e5b8166e73ec",
                    "revert": false,
                    "revertMessage": "",
                    "selector": "0x70a08231",
                    "status": true,
                    "value": "0"
                },
                "nodeType": 0
            },
            "3": {
                "event": {
                    "contract": "0xeadc218ac4cb7895a5a56e6484646b48f841c45a",
                    "decodedLog": {
                        "name": "Transfer",
                        "params": [
                            {
                                "name": "from",
                                "type": "address",
                                "value": "0x29c6746511daeb8f32abf62314f134d61637fe3f"
                            },
                            {
                                "name": "to",
                                "type": "address",
                                "value": "0x0000000000000000000000000000000000000000"
                            },
                            {
                                "decimalAvailable": true,
                                "name": "tokens",
                                "type": "uint256",
                                "value": "1,000,000,000,000,000,000"
                            }
                        ],
                        "signature": "Transfer(address,address,uint256)"
                    },
                    "id": 3,
                    "logData": "0x0000000000000000000000000000000000000000000000000de0b6b3a7640000",
                    "logDecoded": true,
                    "operation": "EVENT",
                    "revert": false,
                    "status": true,
                    "topics": [
                        "0xddf252ad1be2c89b69c2b068fc378daa952ba7f163c4a11628f55a4df523b3ef",
                        "0x00000000000000000000000029c6746511daeb8f32abf62314f134d61637fe3f",
                        "0x0000000000000000000000000000000000000000000000000000000000000000"
                    ]
                },
                "nodeType": 1
            },
            "30": {
                "event": {
                    "contract": "0x0379da7a5895d13037b6937b109fa8607a659adf",
                    "decodedLog": {
                        "name": "Sync",
                        "params": [
                            {
                                "name": "reserve0",
                                "type": "uint112",
                                "value": "4,174,774,607,963,323,504,248,331"
                            },
                            {
                                "name": "reserve1",
                                "type": "uint112",
                                "value": "37,616,230,853,272,937,591,788"
                            }
                        ],
                        "signature": "Sync(uint112,uint112)"
                    },
                    "id": 30,
                    "logData": "0x00000000000000000000000000000000000000000003740afc279ecbdb07c60b0000000000000000000000000000000000000000000007f72e11e5b8166e73ec",
                    "logDecoded": true,
                    "operation": "EVENT",
                    "revert": false,
                    "status": true,
                    "topics": [
                        "0x1c411e9a96e071241c2f21f7726b17ae89e3cab4c78be50e062b03a9fffbbad1"
                    ]
                },
                "nodeType": 1
            },
            "31": {
                "event": {
                    "contract": "0x0379da7a5895d13037b6937b109fa8607a659adf",
                    "decodedLog": {
                        "name": "Swap",
                        "params": [
                            {
                                "name": "sender",
                                "type": "address",
                                "value": "0x7a250d5630b4cf539739df2c5dacb4c659f2488d"
                            },
                            {
                                "name": "to",
                                "type": "address",
                                "value": "0x29c6746511daeb8f32abf62314f134d61637fe3f"
                            },
                            {
                                "name": "amount0In",
                                "type": "uint256",
                                "value": "2,697,622,639,456,896,123,457"
                            },
                            {
                                "name": "amount1In",
                                "type": "uint256",
                                "value": "0"
                            },
                            {
                                "name": "amount0Out",
                                "type": "uint256",
                                "value": "0"
                            },
                            {
                                "name": "amount1Out",
                                "type": "uint256",
                                "value": "24,249,306,311,659,552,213"
                            }
                        ],
                        "signature": "Swap(address,uint256,uint256,uint256,uint256,address)"
                    },
                    "id": 31,
                    "logData": "0x0000000000000000000000000000000000000000000000923d08d9f7fff38241000000000000000000000000000000000000000000000000000000000000000000000000000000000000000000000000000000000000000000000000000000000000000000000000000000000000000000000000000000015086d79cb41afdd5",
                    "logDecoded": true,
                    "operation": "EVENT",
                    "revert": false,
                    "status": true,
                    "topics": [
                        "0xd78ad95fa46c994b6551d0da85fc275fe613ce37657fb8d5e3d130840159d822",
                        "0x0000000000000000000000007a250d5630b4cf539739df2c5dacb4c659f2488d",
                        "0x00000000000000000000000029c6746511daeb8f32abf62314f134d61637fe3f"
                    ]
                },
                "nodeType": 1
            },
            "32": {
                "invocation": {
                    "address": "0xa7ed29b253d8b4e3109ce07c80fc570f81b63696",
                    "callData": "0x00000000000000000000000029c6746511daeb8f32abf62314f134d61637fe3f",
                    "decodedMethod": {
                        "callParams": [
                            {
                                "name": "account",
                                "type": "address",
                                "value": "0x29c6746511daeb8f32abf62314f134d61637fe3f"
                            }
                        ],
                        "constructorArguments": "",
                        "name": "balanceOf",
                        "returnParams": [
                            {
                                "decimalAvailable": true,
                                "name": "",
                                "type": "uint256",
                                "value": "24,249,306,311,659,552,213"
                            }
                        ],
                        "signature": "balanceOf(address)"
                    },
                    "errorInfo": "",
                    "fromAddress": "0x7a250d5630b4cf539739df2c5dacb4c659f2488d",
                    "gasUsed": 1241,
                    "id": 32,
                    "methodDecoded": true,
                    "operation": "STATICCALL",
                    "output": "0x0000000000000000000000000000000000000000000000015086d79cb41afdd5",
                    "revert": false,
                    "revertMessage": "",
                    "selector": "0x70a08231",
                    "status": true,
                    "value": "0"
                },
                "nodeType": 0
            },
            "4": {
                "invocation": {
                    "address": "0xa7ed29b253d8b4e3109ce07c80fc570f81b63696",
                    "callData": "0x00000000000000000000000029c6746511daeb8f32abf62314f134d61637fe3f",
                    "decodedMethod": {
                        "callParams": [
                            {
                                "name": "account",
                                "type": "address",
                                "value": "0x29c6746511daeb8f32abf62314f134d61637fe3f"
                            }
                        ],
                        "constructorArguments": "",
                        "name": "balanceOf",
                        "returnParams": [
                            {
                                "decimalAvailable": true,
                                "name": "",
                                "type": "uint256",
                                "value": "0"
                            }
                        ],
                        "signature": "balanceOf(address)"
                    },
                    "errorInfo": "",
                    "fromAddress": "0x7a250d5630b4cf539739df2c5dacb4c659f2488d",
                    "gasUsed": 1241,
                    "id": 4,
                    "methodDecoded": true,
                    "operation": "STATICCALL",
                    "output": "0x0000000000000000000000000000000000000000000000000000000000000000",
                    "revert": false,
                    "revertMessage": "",
                    "selector": "0x70a08231",
                    "status": true,
                    "value": "0"
                },
                "nodeType": 0
            },
            "5": {
                "invocation": {
                    "address": "0xe7f15f697ee71df9e208ccf15ff95e7ad41a067a",
                    "callData": "0x",
                    "decodedMethod": {
                        "callParams": [],
                        "constructorArguments": "",
                        "name": "getReserves",
                        "returnParams": [
                            {
                                "name": "_reserve0",
                                "type": "uint112",
                                "value": "93,472,045,129,953,606,868"
                            },
                            {
                                "name": "_reserve1",
                                "type": "uint112",
                                "value": "2,160,130,663,322,551,219,080"
                            },
                            {
                                "name": "_blockTimestampLast",
                                "type": "uint32",
                                "value": "1,611,140,284"
                            }
                        ],
                        "signature": "getReserves()"
                    },
                    "errorInfo": "",
                    "fromAddress": "0x7a250d5630b4cf539739df2c5dacb4c659f2488d",
                    "gasUsed": 1204,
                    "id": 5,
                    "methodDecoded": true,
                    "operation": "STATICCALL",
                    "output": "0x000000000000000000000000000000000000000000000005112f69cf402a7cd400000000000000000000000000000000000000000000007519d5c16dd99673880000000000000000000000000000000000000000000000000000000060080cbc",
                    "revert": false,
                    "revertMessage": "",
                    "selector": "0x0902f1ac",
                    "status": true,
                    "value": "0"
                },
                "nodeType": 0
            },
            "6": {
                "invocation": {
                    "address": "0xeadc218ac4cb7895a5a56e6484646b48f841c45a",
                    "callData": "0x000000000000000000000000e7f15f697ee71df9e208ccf15ff95e7ad41a067a",
                    "decodedMethod": {
                        "callParams": [
                            {
                                "name": "tokenOwner",
                                "type": "address",
                                "value": "0xe7f15f697ee71df9e208ccf15ff95e7ad41a067a"
                            }
                        ],
                        "constructorArguments": "",
                        "name": "balanceOf",
                        "returnParams": [
                            {
                                "decimalAvailable": true,
                                "name": "balance",
                                "type": "uint256",
                                "value": "2,209,130,663,322,551,219,080"
                            }
                        ],
                        "signature": "balanceOf(address)"
                    },
                    "errorInfo": "",
                    "fromAddress": "0x7a250d5630b4cf539739df2c5dacb4c659f2488d",
                    "gasUsed": 1307,
                    "id": 6,
                    "methodDecoded": true,
                    "operation": "STATICCALL",
                    "output": "0x000000000000000000000000000000000000000000000077c1d8b9d0e3ba7388",
                    "revert": false,
                    "revertMessage": "",
                    "selector": "0x70a08231",
                    "status": true,
                    "value": "0"
                },
                "nodeType": 0
            },
            "7": {
                "invocation": {
                    "address": "0xe7f15f697ee71df9e208ccf15ff95e7ad41a067a",
                    "callData": "0x0000000000000000000000000000000000000000000000001cb022b7315a3b2a0000000000000000000000000000000000000000000000000000000000000000000000000000000000000000a478c2975ab1ea89e8196811f51a7b7ade33eb1100000000000000000000000000000000000000000000000000000000000000800000000000000000000000000000000000000000000000000000000000000000",
                    "decodedMethod": {
                        "callParams": [
                            {
                                "name": "amount0Out",
                                "type": "uint256",
                                "value": "2,067,190,399,165,414,186"
                            },
                            {
                                "name": "amount1Out",
                                "type": "uint256",
                                "value": "0"
                            },
                            {
                                "name": "to",
                                "type": "address",
                                "value": "0xa478c2975ab1ea89e8196811f51a7b7ade33eb11"
                            },
                            {
                                "name": "data",
                                "type": "bytes",
                                "value": "0x"
                            }
                        ],
                        "constructorArguments": "",
                        "name": "swap",
                        "returnParams": [],
                        "signature": "swap(uint256,uint256,address,bytes)"
                    },
                    "errorInfo": "",
                    "fromAddress": "0x7a250d5630b4cf539739df2c5dacb4c659f2488d",
                    "gasUsed": 56726,
                    "id": 7,
                    "methodDecoded": true,
                    "operation": "CALL",
                    "output": "",
                    "revert": false,
                    "revertMessage": "",
                    "selector": "0x022c0d9f",
                    "status": true,
                    "value": "0"
                },
                "nodeType": 0
            },
            "8": {
                "invocation": {
                    "address": "0xc02aaa39b223fe8d0a0e5c4f27ead9083c756cc2",
                    "callData": "0x000000000000000000000000a478c2975ab1ea89e8196811f51a7b7ade33eb110000000000000000000000000000000000000000000000001cb022b7315a3b2a",
                    "decodedMethod": {
                        "callParams": [
                            {
                                "name": "dst",
                                "type": "address",
                                "value": "0xa478c2975ab1ea89e8196811f51a7b7ade33eb11"
                            },
                            {
                                "decimalAvailable": true,
                                "name": "wad",
                                "type": "uint256",
                                "value": "2,067,190,399,165,414,186"
                            }
                        ],
                        "constructorArguments": "",
                        "name": "transfer",
                        "returnParams": [
                            {
                                "name": "",
                                "type": "bool",
                                "value": true
                            }
                        ],
                        "signature": "transfer(address,uint256)"
                    },
                    "errorInfo": "",
                    "fromAddress": "0xe7f15f697ee71df9e208ccf15ff95e7ad41a067a",
                    "gasUsed": 15162,
                    "id": 8,
                    "methodDecoded": true,
                    "operation": "CALL",
                    "output": "0x0000000000000000000000000000000000000000000000000000000000000001",
                    "revert": false,
                    "revertMessage": "",
                    "selector": "0xa9059cbb",
                    "status": true,
                    "value": "0"
                },
                "nodeType": 0
            },
            "9": {
                "event": {
                    "contract": "0xc02aaa39b223fe8d0a0e5c4f27ead9083c756cc2",
                    "decodedLog": {
                        "name": "Transfer",
                        "params": [
                            {
                                "name": "src",
                                "type": "address",
                                "value": "0xe7f15f697ee71df9e208ccf15ff95e7ad41a067a"
                            },
                            {
                                "name": "dst",
                                "type": "address",
                                "value": "0xa478c2975ab1ea89e8196811f51a7b7ade33eb11"
                            },
                            {
                                "decimalAvailable": true,
                                "name": "wad",
                                "type": "uint256",
                                "value": "2,067,190,399,165,414,186"
                            }
                        ],
                        "signature": "Transfer(address,address,uint256)"
                    },
                    "id": 9,
                    "logData": "0x0000000000000000000000000000000000000000000000001cb022b7315a3b2a",
                    "logDecoded": true,
                    "operation": "EVENT",
                    "revert": false,
                    "status": true,
                    "topics": [
                        "0xddf252ad1be2c89b69c2b068fc378daa952ba7f163c4a11628f55a4df523b3ef",
                        "0x000000000000000000000000e7f15f697ee71df9e208ccf15ff95e7ad41a067a",
                        "0x000000000000000000000000a478c2975ab1ea89e8196811f51a7b7ade33eb11"
                    ]
                },
                "nodeType": 1
            }
        },
        "gasFlame": [
            {
                "children": [
                    {
                        "children": [
                            {
                                "children": [],
                                "depth": 0,
                                "name": "Initial Gas",
                                "value": 23808
                            },
                            {
                                "children": [
                                    {
                                        "children": [],
                                        "depth": 1,
                                        "name": "transferFrom",
                                        "value": 34649
                                    },
                                    {
                                        "children": [],
                                        "depth": 1,
                                        "name": "balanceOf",
                                        "value": 1241
                                    },
                                    {
                                        "children": [],
                                        "depth": 1,
                                        "name": "getReserves",
                                        "value": 1204
                                    },
                                    {
                                        "children": [],
                                        "depth": 1,
                                        "name": "balanceOf",
                                        "value": 1307
                                    },
                                    {
                                        "children": [
                                            {
                                                "children": [],
                                                "depth": 2,
                                                "name": "transfer",
                                                "value": 15162
                                            },
                                            {
                                                "children": [],
                                                "depth": 2,
                                                "name": "balanceOf",
                                                "value": 1234
                                            },
                                            {
                                                "children": [],
                                                "depth": 2,
                                                "name": "balanceOf",
                                                "value": 1307
                                            }
                                        ],
                                        "depth": 1,
                                        "name": "swap",
                                        "value": 56726
                                    },
                                    {
                                        "children": [],
                                        "depth": 1,
                                        "name": "getReserves",
                                        "value": 1204
                                    },
                                    {
                                        "children": [],
                                        "depth": 1,
                                        "name": "balanceOf",
                                        "value": 1234
                                    },
                                    {
                                        "children": [
                                            {
                                                "children": [],
                                                "depth": 2,
                                                "name": "transfer",
                                                "value": 15374
                                            },
                                            {
                                                "children": [],
                                                "depth": 2,
                                                "name": "balanceOf",
                                                "value": 1302
                                            },
                                            {
                                                "children": [],
                                                "depth": 2,
                                                "name": "balanceOf",
                                                "value": 1234
                                            }
                                        ],
                                        "depth": 1,
                                        "name": "swap",
                                        "value": 56933
                                    },
                                    {
                                        "children": [],
                                        "depth": 1,
                                        "name": "getReserves",
                                        "value": 1204
                                    },
                                    {
                                        "children": [],
                                        "depth": 1,
                                        "name": "balanceOf",
                                        "value": 1302
                                    },
                                    {
                                        "children": [
                                            {
                                                "children": [],
                                                "depth": 2,
                                                "name": "transfer",
                                                "value": 29707
                                            },
                                            {
                                                "children": [],
                                                "depth": 2,
                                                "name": "balanceOf",
                                                "value": 1302
                                            },
                                            {
                                                "children": [],
                                                "depth": 2,
                                                "name": "balanceOf",
                                                "value": 1241
                                            }
                                        ],
                                        "depth": 1,
                                        "name": "swap",
                                        "value": 71273
                                    },
                                    {
                                        "children": [],
                                        "depth": 1,
                                        "name": "balanceOf",
                                        "value": 1241
                                    }
                                ],
                                "depth": 0,
                                "name": "Executed Gas",
                                "value": 258807
                            }
                        ],
                        "depth": -1,
                        "name": "Actual Gas Used",
                        "value": 270015
                    },
                    {
                        "children": [],
                        "depth": -1,
                        "name": "Refunded Gas",
                        "value": 12600
                    }
                ],
                "depth": -2,
                "name": "Total Gas",
                "value": 282615
            }
        ],
        "isConfirmed": true,
        "mainTrace": [
            {
                "children": [
                    {
                        "children": [
                            {
                                "children": [
                                    {
                                        "children": [],
                                        "depth": 2,
                                        "id": 2,
                                        "order": 2
                                    },
                                    {
                                        "children": [],
                                        "depth": 2,
                                        "id": 3,
                                        "order": 3
                                    }
                                ],
                                "depth": 1,
                                "id": 1,
                                "order": 1
                            },
                            {
                                "children": [],
                                "depth": 1,
                                "id": 4,
                                "order": 4
                            },
                            {
                                "children": [],
                                "depth": 1,
                                "id": 5,
                                "order": 5
                            },
                            {
                                "children": [],
                                "depth": 1,
                                "id": 6,
                                "order": 6
                            },
                            {
                                "children": [
                                    {
                                        "children": [
                                            {
                                                "children": [],
                                                "depth": 3,
                                                "id": 9,
                                                "order": 9
                                            }
                                        ],
                                        "depth": 2,
                                        "id": 8,
                                        "order": 8
                                    },
                                    {
                                        "children": [],
                                        "depth": 2,
                                        "id": 10,
                                        "order": 10
                                    },
                                    {
                                        "children": [],
                                        "depth": 2,
                                        "id": 11,
                                        "order": 11
                                    },
                                    {
                                        "children": [],
                                        "depth": 2,
                                        "id": 12,
                                        "order": 12
                                    },
                                    {
                                        "children": [],
                                        "depth": 2,
                                        "id": 13,
                                        "order": 13
                                    }
                                ],
                                "depth": 1,
                                "id": 7,
                                "order": 7
                            },
                            {
                                "children": [],
                                "depth": 1,
                                "id": 14,
                                "order": 14
                            },
                            {
                                "children": [],
                                "depth": 1,
                                "id": 15,
                                "order": 15
                            },
                            {
                                "children": [
                                    {
                                        "children": [
                                            {
                                                "children": [],
                                                "depth": 3,
                                                "id": 18,
                                                "order": 18
                                            }
                                        ],
                                        "depth": 2,
                                        "id": 17,
                                        "order": 17
                                    },
                                    {
                                        "children": [],
                                        "depth": 2,
                                        "id": 19,
                                        "order": 19
                                    },
                                    {
                                        "children": [],
                                        "depth": 2,
                                        "id": 20,
                                        "order": 20
                                    },
                                    {
                                        "children": [],
                                        "depth": 2,
                                        "id": 21,
                                        "order": 21
                                    },
                                    {
                                        "children": [],
                                        "depth": 2,
                                        "id": 22,
                                        "order": 22
                                    }
                                ],
                                "depth": 1,
                                "id": 16,
                                "order": 16
                            },
                            {
                                "children": [],
                                "depth": 1,
                                "id": 23,
                                "order": 23
                            },
                            {
                                "children": [],
                                "depth": 1,
                                "id": 24,
                                "order": 24
                            },
                            {
                                "children": [
                                    {
                                        "children": [
                                            {
                                                "children": [],
                                                "depth": 3,
                                                "id": 27,
                                                "order": 27
                                            }
                                        ],
                                        "depth": 2,
                                        "id": 26,
                                        "order": 26
                                    },
                                    {
                                        "children": [],
                                        "depth": 2,
                                        "id": 28,
                                        "order": 28
                                    },
                                    {
                                        "children": [],
                                        "depth": 2,
                                        "id": 29,
                                        "order": 29
                                    },
                                    {
                                        "children": [],
                                        "depth": 2,
                                        "id": 30,
                                        "order": 30
                                    },
                                    {
                                        "children": [],
                                        "depth": 2,
                                        "id": 31,
                                        "order": 31
                                    }
                                ],
                                "depth": 1,
                                "id": 25,
                                "order": 25
                            },
                            {
                                "children": [],
                                "depth": 1,
                                "id": 32,
                                "order": 32
                            }
                        ],
                        "depth": 0,
                        "id": 0,
                        "order": 0
                    }
                ],
                "depth": -1,
                "id": -1,
                "order": -1
            }
        ],
        "mainTraceNodeCount": 33,
        "parentIdMap": {
            "0": -1,
            "1": 0,
            "10": 7,
            "11": 7,
            "12": 7,
            "13": 7,
            "14": 0,
            "15": 0,
            "16": 0,
            "17": 16,
            "18": 17,
            "19": 16,
            "2": 1,
            "20": 16,
            "21": 16,
            "22": 16,
            "23": 0,
            "24": 0,
            "25": 0,
            "26": 25,
            "27": 26,
            "28": 25,
            "29": 25,
            "3": 1,
            "30": 25,
            "31": 25,
            "32": 0,
            "4": 0,
            "5": 0,
            "6": 0,
            "7": 0,
            "8": 7,
            "9": 8
        },
        "tidyTrace": [
            {
                "children": [
                    {
                        "children": [
                            {
                                "children": [
                                    {
                                        "children": [],
                                        "depth": 2,
                                        "id": 2,
                                        "order": 2
                                    },
                                    {
                                        "children": [],
                                        "depth": 2,
                                        "id": 3,
                                        "order": 3
                                    }
                                ],
                                "depth": 1,
                                "id": 1,
                                "order": 1
                            },
                            {
                                "children": [
                                    {
                                        "children": [
                                            {
                                                "children": [],
                                                "depth": 3,
                                                "id": 9,
                                                "order": 9
                                            }
                                        ],
                                        "depth": 2,
                                        "id": 8,
                                        "order": 8
                                    },
                                    {
                                        "children": [],
                                        "depth": 2,
                                        "id": 12,
                                        "order": 12
                                    },
                                    {
                                        "children": [],
                                        "depth": 2,
                                        "id": 13,
                                        "order": 13
                                    }
                                ],
                                "depth": 1,
                                "id": 7,
                                "order": 7
                            },
                            {
                                "children": [
                                    {
                                        "children": [
                                            {
                                                "children": [],
                                                "depth": 3,
                                                "id": 18,
                                                "order": 18
                                            }
                                        ],
                                        "depth": 2,
                                        "id": 17,
                                        "order": 17
                                    },
                                    {
                                        "children": [],
                                        "depth": 2,
                                        "id": 21,
                                        "order": 21
                                    },
                                    {
                                        "children": [],
                                        "depth": 2,
                                        "id": 22,
                                        "order": 22
                                    }
                                ],
                                "depth": 1,
                                "id": 16,
                                "order": 16
                            },
                            {
                                "children": [
                                    {
                                        "children": [
                                            {
                                                "children": [],
                                                "depth": 3,
                                                "id": 27,
                                                "order": 27
                                            }
                                        ],
                                        "depth": 2,
                                        "id": 26,
                                        "order": 26
                                    },
                                    {
                                        "children": [],
                                        "depth": 2,
                                        "id": 30,
                                        "order": 30
                                    },
                                    {
                                        "children": [],
                                        "depth": 2,
                                        "id": 31,
                                        "order": 31
                                    }
                                ],
                                "depth": 1,
                                "id": 25,
                                "order": 25
                            }
                        ],
                        "depth": 0,
                        "id": 0,
                        "order": 0
                    }
                ],
                "depth": -1,
                "id": -1,
                "order": -1
            }
        ],
        "tidyTraceNodeCount": 19
    },
    "state_change": {
        "stateChanges": [
            {
                "address": "0x0379da7a5895d13037b6937b109fa8607a659adf",
                "erc": "ERC-20",
                "slots": [
                    {
                        "current": "0x000000000000000000000000000000008a2180dd8585657101f2576a6679b13a",
                        "key": "0x0000000000000000000000000000000000000000000000000000000000000009",
                        "prev": "0x000000000000000000000000000000008a19b30896fb6a1fbebd82a9a8d87d81"
                    },
                    {
                        "current": "0x0000000000000000000000000000494f35cbc1dffc8d441402224cb66617e959",
                        "key": "0x000000000000000000000000000000000000000000000000000000000000000a",
                        "prev": "0x0000000000000000000000000000494dbf4704026811a3422629dc579e94a8a3"
                    },
                    {
                        "current": "0x60080ddb0000000007f72e11e5b8166e73ec00000003740afc279ecbdb07c60b",
                        "key": "0x0000000000000000000000000000000000000000000000000000000000000008",
                        "prev": "0x60080a7a0000000007f87e98bd54ca8971c1000000037378bf1ec4d3db1443ca"
                    }
                ],
                "storageVariables": [
                    {
                        "name": "price0CumulativeLast",
                        "type": "uint256",
                        "value": {
                            "current": "183607422913825995322584514755806474554",
                            "prev": "183566902071652807924924792035205479809",
                            "typeTag": 1
                        }
                    },
                    {
                        "name": "price1CumulativeLast",
                        "type": "uint256",
                        "value": {
                            "current": "6386150687057542121676382644348449422043481",
                            "prev": "6385652866553002444298072296765636216137891",
                            "typeTag": 1
                        }
                    },
                    {
                        "name": "reserve0",
                        "type": "uint112",
                        "value": {
                            "current": "4174774607963323504248331",
                            "prev": "4172076985323866608124874",
                            "typeTag": 1
                        }
                    },
                    {
                        "name": "reserve1",
                        "type": "uint112",
                        "value": {
                            "current": "37616230853272937591788",
                            "prev": "37640480159584597144001",
                            "typeTag": 1
                        }
                    },
                    {
                        "name": "blockTimestampLast",
                        "type": "uint32",
                        "value": {
                            "current": "1611140571",
                            "prev": "1611139706",
                            "typeTag": 1
                        }
                    }
                ]
            },
            {
                "address": "0x6b175474e89094c44da98b954eedeac495271d0f",
                "erc": "ERC-20",
                "slots": [
                    {
                        "current": "0x00000000000000000000000000000000000000000058f8bfd0d958671e9879ca",
                        "key": "0xd86cc1e239204d48eb0055f151744c4bb3d2337612287be803ae8247e95a67d2",
                        "prev": "0x00000000000000000000000000000000000000000058f9520de2325f1e8bfc0b"
                    },
                    {
                        "current": "0x00000000000000000000000000000000000000000003740afc279ecbdb07c60b",
                        "key": "0x19a1d7f851521d65868bf795feb84e7020f22954e9d974b541388c8c4eaf8f3e",
                        "prev": "0x000000000000000000000000000000000000000000037378bf1ec4d3db1443ca"
                    }
                ],
                "storageVariables": [
                    {
                        "name": "balanceOf",
                        "type": "mapping(address => uint256)",
                        "value": {
                            "pairs": [
                                {
                                    "key": "0x0379da7a5895d13037b6937b109fa8607a659adf",
                                    "value": {
                                        "current": "4174774607963323504248331",
                                        "prev": "4172076985323866608124874",
                                        "typeTag": 1
                                    }
                                },
                                {
                                    "key": "0xa478c2975ab1ea89e8196811f51a7b7ade33eb11",
                                    "value": {
                                        "current": "107560157391113947664906698",
                                        "prev": "107562855013753404561030155",
                                        "typeTag": 1
                                    }
                                }
                            ],
                            "typeTag": 4
                        }
                    }
                ]
            },
            {
                "address": "0xa478c2975ab1ea89e8196811f51a7b7ade33eb11",
                "erc": "ERC-20",
                "slots": [
                    {
                        "current": "0x00000000000000000000000000000000f2119b98af82e6853df7e3e5424ecaf6",
                        "key": "0x0000000000000000000000000000000000000000000000000000000000000009",
                        "prev": "0x00000000000000000000000000000000f211977d3ff03ac54dca63a4e00b46d7"
                    },
                    {
                        "current": "0x00000000000000000000000000022ebe35c1980f539f9b0cdefd1080b329b05c",
                        "key": "0x000000000000000000000000000000000000000000000000000000000000000a",
                        "prev": "0x00000000000000000000000000022ebdca620fe2a54ebf3cb892215167ac42cb"
                    },
                    {
                        "current": "0x60080ddb000000001166e4110ff09409c32b00000058f8bfd0d958671e9879ca",
                        "key": "0x0000000000000000000000000000000000000000000000000000000000000008",
                        "prev": "0x60080dc6000000001166c760ed3962af880100000058f9520de2325f1e8bfc0b"
                    }
                ],
                "storageVariables": [
                    {
                        "name": "price0CumulativeLast",
                        "type": "uint256",
                        "value": {
                            "current": "321764599897032127166959951838748527350",
                            "prev": "321764516593703174350004783791173486295",
                            "typeTag": 1
                        }
                    },
                    {
                        "name": "price1CumulativeLast",
                        "type": "uint256",
                        "value": {
                            "current": "48673380653918406797037165899646746116075612",
                            "prev": "48673237930492708556839073239367219376046795",
                            "typeTag": 1
                        }
                    },
                    {
                        "name": "reserve0",
                        "type": "uint112",
                        "value": {
                            "current": "107560157391113947664906698",
                            "prev": "107562855013753404561030155",
                            "typeTag": 1
                        }
                    },
                    {
                        "name": "reserve1",
                        "type": "uint112",
                        "value": {
                            "current": "82178232038343544783659",
                            "prev": "82176164847944379369473",
                            "typeTag": 1
                        }
                    },
                    {
                        "name": "blockTimestampLast",
                        "type": "uint32",
                        "value": {
                            "current": "1611140571",
                            "prev": "1611140550",
                            "typeTag": 1
                        }
                    }
                ]
            },
            {
                "address": "0xa7ed29b253d8b4e3109ce07c80fc570f81b63696",
                "erc": "ERC-20",
                "slots": [
                    {
                        "current": "0x0000000000000000000000000000000000000000000007f72e11e5b8166e73ec",
                        "key": "0xa336005d271c1269ed4536ba2947dbf550cd22fc5e7574ba7e9f1bc400f7b709",
                        "prev": "0x0000000000000000000000000000000000000000000007f87e98bd54ca8971c1"
                    },
                    {
                        "current": "0x0000000000000000000000000000000000000000000000015086d79cb41afdd5",
                        "key": "0xb3cb662a23582a5930ef16a5f7ac11df7949ca9b3525a33a9cdd1f880a139905",
                        "prev": "0x0000000000000000000000000000000000000000000000000000000000000000"
                    }
                ],
                "storageVariables": [
                    {
                        "name": "_balances",
                        "type": "mapping(address => uint256)",
                        "value": {
                            "pairs": [
                                {
                                    "key": "0x0379da7a5895d13037b6937b109fa8607a659adf",
                                    "value": {
                                        "current": "37616230853272937591788",
                                        "prev": "37640480159584597144001",
                                        "typeTag": 1
                                    }
                                },
                                {
                                    "key": "0x29c6746511daeb8f32abf62314f134d61637fe3f",
                                    "value": {
                                        "current": "24249306311659552213",
                                        "prev": "0",
                                        "typeTag": 1
                                    }
                                }
                            ],
                            "typeTag": 4
                        }
                    }
                ]
            },
            {
                "address": "0xc02aaa39b223fe8d0a0e5c4f27ead9083c756cc2",
                "erc": "ERC-20",
                "slots": [
                    {
                        "current": "0x000000000000000000000000000000000000000000000004f47f47180ed041aa",
                        "key": "0x2c8664c5a501727c244ccf6c344bf6dd3ea99c90fdcfbebc9d16445c72c43eb3",
                        "prev": "0x000000000000000000000000000000000000000000000005112f69cf402a7cd4"
                    },
                    {
                        "current": "0x000000000000000000000000000000000000000000001166e4110ff09409c32b",
                        "key": "0xa535fbd0ab3e0ad4ee444570368f3d474545b71fcc49228fe96a6406676fc126",
                        "prev": "0x000000000000000000000000000000000000000000001166c760ed3962af8801"
                    }
                ],
                "storageVariables": [
                    {
                        "name": "balanceOf",
                        "type": "mapping(address => uint256)",
                        "value": {
                            "pairs": [
                                {
                                    "key": "0xa478c2975ab1ea89e8196811f51a7b7ade33eb11",
                                    "value": {
                                        "current": "82178232038343544783659",
                                        "prev": "82176164847944379369473",
                                        "typeTag": 1
                                    }
                                },
                                {
                                    "key": "0xe7f15f697ee71df9e208ccf15ff95e7ad41a067a",
                                    "value": {
                                        "current": "91404854730788192682",
                                        "prev": "93472045129953606868",
                                        "typeTag": 1
                                    }
                                }
                            ],
                            "typeTag": 4
                        }
                    }
                ]
            },
            {
                "address": "0xe7f15f697ee71df9e208ccf15ff95e7ad41a067a",
                "erc": "ERC-20",
                "slots": [
                    {
                        "current": "0x000000000000000000000000000003a23f819cb0c2997d9b7ca4fbca422f204f",
                        "key": "0x0000000000000000000000000000000000000000000000000000000000000009",
                        "prev": "0x000000000000000000000000000003a22599114b538270896c552663044e35c4"
                    },
                    {
                        "current": "0x000000000000000000000000000000256436af96f603f925eb63ede9dae5595f",
                        "key": "0x000000000000000000000000000000000000000000000000000000000000000a",
                        "prev": "0x00000000000000000000000000000025642a4459033adbe4a92186a556e4104c"
                    },
                    {
                        "current": "0x60080ddb000000000077c1d8b9d0e3ba7388000000000004f47f47180ed041aa",
                        "key": "0x0000000000000000000000000000000000000000000000000000000000000008",
                        "prev": "0x60080cbc00000000007519d5c16dd9967388000000000005112f69cf402a7cd4"
                    }
                ],
                "storageVariables": [
                    {
                        "name": "price0CumulativeLast",
                        "type": "uint256",
                        "value": {
                            "current": "316547015584562252136586293994733469376591",
                            "prev": "316512577444505089135122991215063421826500",
                            "typeTag": 1
                        }
                    },
                    {
                        "name": "price1CumulativeLast",
                        "type": "uint256",
                        "value": {
                            "current": "12723654321065618748071411815878798694751",
                            "prev": "12723589838377432321422060587155498209356",
                            "typeTag": 1
                        }
                    },
                    {
                        "name": "reserve0",
                        "type": "uint112",
                        "value": {
                            "current": "91404854730788192682",
                            "prev": "93472045129953606868",
                            "typeTag": 1
                        }
                    },
                    {
                        "name": "reserve1",
                        "type": "uint112",
                        "value": {
                            "current": "2209130663322551219080",
                            "prev": "2160130663322551219080",
                            "typeTag": 1
                        }
                    },
                    {
                        "name": "blockTimestampLast",
                        "type": "uint32",
                        "value": {
                            "current": "1611140571",
                            "prev": "1611140284",
                            "typeTag": 1
                        }
                    }
                ]
            },
            {
                "address": "0xeadc218ac4cb7895a5a56e6484646b48f841c45a",
                "erc": "ERC-20",
                "slots": [
                    {
                        "current": "0x000000000000000000000000000000000000000000000077c1d8b9d0e3ba7388",
                        "key": "0x7f542940795530633e9a30f7c5ab02277b8f8083a41f9ec0bbc00519c0fd9ee1",
                        "prev": "0x00000000000000000000000000000000000000000000007519d5c16dd9967388"
                    },
                    {
                        "current": "0x0000000000000000000000000000000000000000000001b7436ea641e40d81e5",
                        "key": "0x5eff886ea0ce6ca488a3d6e336d6c0f75f46d19b42c06ce5ee98e42c96d256c7",
                        "prev": "0x0000000000000000000000000000000000000000000001b7358def8e3ca981e5"
                    },
                    {
                        "current": "0x000000000000000000000000000000000000000000000012f939c99edab80000",
                        "key": "0x1dbf874d414e5608f1928fefbab292c3d359ebe83efea4f0b14e4fd5cdeaaee8",
                        "prev": "0x000000000000000000000000000000000000000000000015af1d78b58c400000"
                    },
                    {
                        "current": "0xfffffffffffffffffffffffffffffffffffffffffffffff3198ee07a6a597e3c",
                        "key": "0x4f247eeffd70b09b8faf607555ffcf47ab31b720d0668e559e3532a1dd36fc80",
                        "prev": "0xfffffffffffffffffffffffffffffffffffffffffffffff5cf728f911be17e3c"
                    }
                ],
                "storageVariables": [
                    {
                        "name": "balances",
                        "type": "mapping(address => uint256)",
                        "value": {
                            "pairs": [
                                {
                                    "key": "0x0000000000000000000000000000000000000000",
                                    "value": {
                                        "current": "8102979652208401678821",
                                        "prev": "8101979652208401678821",
                                        "typeTag": 1
                                    }
                                },
                                {
                                    "key": "0x29c6746511daeb8f32abf62314f134d61637fe3f",
                                    "value": {
                                        "current": "350000000000000000000",
                                        "prev": "400000000000000000000",
                                        "typeTag": 1
                                    }
                                },
                                {
                                    "key": "0xe7f15f697ee71df9e208ccf15ff95e7ad41a067a",
                                    "value": {
                                        "current": "2209130663322551219080",
                                        "prev": "2160130663322551219080",
                                        "typeTag": 1
                                    }
                                }
                            ],
                            "typeTag": 4
                        }
                    },
                    {
                        "name": "allowed",
                        "type": "mapping(address => mapping(address => uint256))",
                        "value": {
                            "pairs": [
                                {
                                    "key": "0x29c6746511daeb8f32abf62314f134d61637fe3f",
                                    "value": {
                                        "pairs": [
                                            {
                                                "key": "0x7a250d5630b4cf539739df2c5dacb4c659f2488d",
                                                "value": {
                                                    "current": "115792089237316195423570985008687907853269984665640564039219617991068921462332",
                                                    "prev": "115792089237316195423570985008687907853269984665640564039269617991068921462332",
                                                    "typeTag": 1
                                                }
                                            }
                                        ],
                                        "typeTag": 4
                                    }
                                }
                            ],
                            "typeTag": 4
                        }
                    }
                ]
            }
        ]
    }
}