{
    "balance_change": {
        "balanceChanges": []
    },
    "profile": {
        "basic_info": {
            "baseFee": "16.17031825",
            "blockNumber": 19643273,
            "callData": "0xbaeeba440000000000000000000000000000000000000000000000000de0b6b3a764000000000000000000000000000000000000000000000000000000000000000000400000000000000000000000000000000000000000000000000000000000000041f9af2d473b8ab061231c345f393e8e9d0c6efaa802287e9f329103c00ff6c09f5b6ca407f0c32a9be7ba830c2c0d532bfee79dce8648937494a8f8241049fd111b00000000000000000000000000000000000000000000000000000000000000",
            "debugEnable": true,
            "errorInfo": "execution reverted",
            "eventCount": 0,
            "feeRecipient": "0x95222290dd7278aa3ddd389cc1e1d165cc4bafe5",
            "formatValue": "1",
            "gasLimit": 118528,
            "gasPrice": "26.17031825",
            "gasUsed": 40232,
            "intTxnCount": 1,
            "internalRevert": true,
            "internalRevertMessage": "",
            "isContractCreation": false,
            "isFlashloan": false,
            "maxFee": "100",
            "nonce": 0,
            "overwritedBlockNumber": -1,
            "priorityFee": "10",
            "receiver": "0x01b05bb6a57945978f1649712a8a97e58cdfeda1",
            "revertMessage": "IMO tokens are sold out",
            "sender": "0x18523acc9a9d21d08c91c830870666563a16c122",
            "simulationEnable": true,
            "sourceTxnHash": "0x05cc9cc3673418b2b890f292a27c1dfc9e42d37f8d05c73c9b9a751437325c9e",
            "status": false,
            "timestamp": "2024-04-13T01:05:23Z",
            "transactionFee": "0.001052884243834",
            "txnHash": "0x05cc9cc3673418b2b890f292a27c1dfc9e42d37f8d05c73c9b9a751437325c9e",
            "txnIndex": 39,
            "type": 2,
            "value": "1000000000000000000"
        },
        "fund_flow": [],
        "token_infos": [
            {
                "address": "0xc02aaa39b223fe8d0a0e5c4f27ead9083c756cc2",
                "decimals": 18
            },
            {
                "address": "0xeeeeeeeeeeeeeeeeeeeeeeeeeeeeeeeeeeeeeeee",
                "decimals": 18
            }
        ]
    },
    "address_label": {
        "labels": [
            {
                "address": "0x01b05bb6a57945978f1649712a8a97e58cdfeda1",
                "label": "IMO"
            },
            {
                "address": "0x0000000000000000000000000000000000000001",
                "label": "Precompiled"
            },
            {
                "address": "0x0000000000000000000000000000000000000002",
                "label": "Precompiled"
            },
            {
                "address": "0x0000000000000000000000000000000000000003",
                "label": "Precompiled"
            },
            {
                "address": "0x0000000000000000000000000000000000000004",
                "label": "Precompiled"
            },
            {
                "address": "0xeeeeeeeeeeeeeeeeeeeeeeeeeeeeeeeeeeeeeeee",
                "label": "Ether"
            },
            {
                "address": "0xe5018913f2fdf33971864804ddb5fca25c539032",
                "label": "OpenLM RevShare Token: OLM Token"
            }
        ]
    },
    "trace": {
        "accountLabels": null,
        "dataMap": {
            "-1": {
                "invocation": {
                    "address": "0x18523acc9a9d21d08c91c830870666563a16c122",
                    "callData": "",
                    "decodedMethod": null,
                    "errorInfo": "",
                    "fromAddress": "",
                    "gasUsed": 0,
                    "id": -1,
                    "methodDecoded": false,
                    "operation": "",
                    "output": "",
                    "revert": false,
                    "revertMessage": "",
                    "selector": "",
                    "status": false,
                    "value": ""
                },
                "nodeType": 0
            },
            "0": {
                "invocation": {
                    "address": "0x01b05bb6a57945978f1649712a8a97e58cdfeda1",
                    "callData": "0x0000000000000000000000000000000000000000000000000de0b6b3a764000000000000000000000000000000000000000000000000000000000000000000400000000000000000000000000000000000000000000000000000000000000041f9af2d473b8ab061231c345f393e8e9d0c6efaa802287e9f329103c00ff6c09f5b6ca407f0c32a9be7ba830c2c0d532bfee79dce8648937494a8f8241049fd111b00000000000000000000000000000000000000000000000000000000000000",
                    "decodedMethod": {
                        "callParams": [
                            {
                                "name": "buyAmount",
                                "type": "uint256",
                                "value": "1,000,000,000,000,000,000"
                            },
                            {
                                "name": "signature",
                                "type": "bytes",
                                "value": "0xf9af2d473b8ab061231c345f393e8e9d0c6efaa802287e9f329103c00ff6c09f5b6ca407f0c32a9be7ba830c2c0d532bfee79dce8648937494a8f8241049fd111b"
                            }
                        ],
                        "constructorArguments": "",
                        "name": "buyIMOToken",
                        "returnParams": [],
                        "signature": "buyIMOToken(uint256,bytes)"
                    },
                    "errorInfo": "execution reverted",
                    "fromAddress": "0x18523acc9a9d21d08c91c830870666563a16c122",
                    "gasUsed": 40232,
                    "id": 0,
                    "methodDecoded": true,
                    "operation": "CALL",
                    "output": "0x08c379a000000000000000000000000000000000000000000000000000000000000000200000000000000000000000000000000000000000000000000000000000000017494d4f20746f6b656e732061726520736f6c64206f7574000000000000000000",
                    "revert": true,
                    "revertMessage": "IMO tokens are sold out",
                    "selector": "0xbaeeba44",
                    "status": false,
                    "value": "1"
                },
                "nodeType": 0
            },
            "1": {
                "invocation": {
                    "address": "0xe5018913f2fdf33971864804ddb5fca25c539032",
                    "callData": "0x00000000000000000000000001b05bb6a57945978f1649712a8a97e58cdfeda1",
                    "decodedMethod": {
                        "callParams": [
                            {
                                "name": "account",
                                "type": "address",
                                "value": "0x01b05bb6a57945978f1649712a8a97e58cdfeda1"
                            }
                        ],
                        "constructorArguments": "",
                        "name": "balanceOf",
                        "returnParams": [
                            {
                                "decimalAvailable": true,
                                "name": "",
                                "type": "uint256",
                                "value": "0"
                            }
                        ],
                        "signature": "balanceOf(address)"
                    },
                    "errorInfo": "",
                    "fromAddress": "0x01b05bb6a57945978f1649712a8a97e58cdfeda1",
                    "gasUsed": 2607,
                    "id": 1,
                    "methodDecoded": true,
                    "operation": "STATICCALL",
                    "output": "0x0000000000000000000000000000000000000000000000000000000000000000",
                    "revert": true,
                    "revertMessage": "",
                    "selector": "0x70a08231",
                    "status": true,
                    "value": "0"
                },
                "nodeType": 0
            }
        },
        "gasFlame": [
            {
                "children": [
                    {
                        "children": [
                            {
                                "children": [],
                                "depth": 0,
                                "name": "Initial Gas",
                                "value": 22708
                            },
                            {
                                "children": [
                                    {
                                        "children": [],
                                        "depth": 1,
                                        "name": "balanceOf",
                                        "value": 2607
                                    }
                                ],
                                "depth": 0,
                                "name": "Executed Gas",
                                "value": 17524
                            }
                        ],
                        "depth": -1,
                        "name": "Actual Gas Used",
                        "value": 40232
                    },
                    {
                        "children": [],
                        "depth": -1,
                        "name": "Refunded Gas",
                        "value": 0
                    }
                ],
                "depth": -2,
                "name": "Total Gas",
                "value": 40232
            }
        ],
        "isConfirmed": true,
        "mainTrace": [
            {
                "children": [
                    {
                        "children": [
                            {
                                "children": [],
                                "depth": 1,
                                "id": 1,
                                "order": 1
                            }
                        ],
                        "depth": 0,
                        "id": 0,
                        "order": 0
                    }
                ],
                "depth": -1,
                "id": -1,
                "order": -1
            }
        ],
        "mainTraceNodeCount": 2,
        "parentIdMap": {
            "0": -1,
            "1": 0
        },
        "tidyTrace": [
            {
                "children": [
                    {
                        "children": [],
                        "depth": 0,
                        "id": 0,
                        "order": 0
                    }
                ],
                "depth": -1,
                "id": -1,
                "order": -1
            }
        ],
        "tidyTraceNodeCount": 1
    },
    "state_change": {
        "stateChanges": []
    }
}