{
    "balance_change": {
        "balanceChanges": [
            {
                "account": "0x0000000000000000000000000000000000000000",
                "assets": [
                    {
                        "address": "0x5d00d312e171be5342067c09bae883f9bcb2003b",
                        "amount": "1",
                        "iconUrl": "",
                        "isERC1155": false,
                        "isERC721": true,
                        "sign": false,
                        "tokenID": "50129",
                        "value": ""
                    }
                ]
            },
            {
                "account": "0x06a2c1a237c7a2a0db69d25d2b25cb2e8b3ab9af",
                "assets": [
                    {
                        "address": "0x5d00d312e171be5342067c09bae883f9bcb2003b",
                        "amount": "1",
                        "iconUrl": "",
                        "isERC1155": false,
                        "isERC721": true,
                        "sign": true,
                        "tokenID": "50129",
                        "value": ""
                    }
                ]
            }
        ]
    },
    "profile": {
        "basic_info": {
            "baseFee": "",
            "blockNumber": 7202437,
            "callData": "0x15834ebd000000000000000000000000000000000000000000000000000000000000001b000000000000000000000000000000000000000000000000000000000000004000000000000000000000000000000000000000000000000000000000000000054b79617269000000000000000000000000000000000000000000000000000000",
            "debugEnable": true,
            "errorInfo": "",
            "eventCount": 1,
            "feeRecipient": "0x52bc44d5378309ee2abf1539bf71de1b7d7be3b5",
            "formatValue": "0",
            "gasLimit": 600000,
            "gasPrice": "1.1",
            "gasUsed": 409481,
            "intTxnCount": 15,
            "internalRevert": false,
            "internalRevertMessage": "",
            "isContractCreation": false,
            "isFlashloan": false,
            "maxFee": "",
            "nonce": 699,
            "overwritedBlockNumber": -1,
            "priorityFee": "",
            "receiver": "0x5f480ca354304aae88d7dd66cd4735c59d543af0",
            "revertMessage": "",
            "sender": "0x06a2c1a237c7a2a0db69d25d2b25cb2e8b3ab9af",
            "simulationEnable": true,
            "sourceTxnHash": "0x05e7e908d3600de01b5a41624110c56683bfeec09cefb46a6785b82ae76d4783",
            "status": true,
            "timestamp": "2019-02-10T11:53:04Z",
            "transactionFee": "0.0004504291",
            "txnHash": "0x05e7e908d3600de01b5a41624110c56683bfeec09cefb46a6785b82ae76d4783",
            "txnIndex": 34,
            "type": 0,
            "value": "0"
        },
        "fund_flow": [
            {
                "amount": "1",
                "from": "0x0000000000000000000000000000000000000000",
                "id": 1,
                "isERC1155": false,
                "isERC721": true,
                "isReverted": false,
                "order": 1,
                "to": "0x06a2c1a237c7a2a0db69d25d2b25cb2e8b3ab9af",
                "token": "0x5d00d312e171be5342067c09bae883f9bcb2003b",
                "tokenID": "50129"
            }
        ],
        "token_infos": [
            {
                "address": "0xc02aaa39b223fe8d0a0e5c4f27ead9083c756cc2",
                "decimals": 18
            },
            {
                "address": "0xeeeeeeeeeeeeeeeeeeeeeeeeeeeeeeeeeeeeeeee",
                "decimals": 18
            }
        ]
    },
    "address_label": {
        "labels": [
            {
                "address": "0xeeeeeeeeeeeeeeeeeeeeeeeeeeeeeeeeeeeeeeee",
                "label": "Ether"
            },
            {
                "address": "0x5d00d312e171be5342067c09bae883f9bcb2003b",
                "label": "Etheremon Monster Token"
            },
            {
                "address": "0x0000000000000000000000000000000000000000",
                "label": "Null Address"
            },
            {
                "address": "0x0000000000000000000000000000000000000001",
                "label": "Precompiled"
            },
            {
                "address": "0x0000000000000000000000000000000000000003",
                "label": "Precompiled"
            },
            {
                "address": "0xabc1c404424bdf24c19a5cc5ef8f47781d18eb3e",
                "label": "Etheremon: Data"
            },
            {
                "address": "0x5f480ca354304aae88d7dd66cd4735c59d543af0",
                "label": "EtheremonWorldNFT"
            },
            {
                "address": "0x0000000000000000000000000000000000000002",
                "label": "Precompiled"
            },
            {
                "address": "0x0000000000000000000000000000000000000004",
                "label": "Precompiled"
            }
        ]
    },
    "trace": {
        "accountLabels": null,
        "dataMap": {
            "-1": {
                "invocation": {
                    "address": "0x06a2c1a237c7a2a0db69d25d2b25cb2e8b3ab9af",
                    "callData": "",
                    "decodedMethod": null,
                    "errorInfo": "",
                    "fromAddress": "",
                    "gasUsed": 0,
                    "id": -1,
                    "methodDecoded": false,
                    "operation": "",
                    "output": "",
                    "revert": false,
                    "revertMessage": "",
                    "selector": "",
                    "status": false,
                    "value": ""
                },
                "nodeType": 0
            },
            "0": {
                "invocation": {
                    "address": "0x5f480ca354304aae88d7dd66cd4735c59d543af0",
                    "callData": "0x000000000000000000000000000000000000000000000000000000000000001b000000000000000000000000000000000000000000000000000000000000004000000000000000000000000000000000000000000000000000000000000000054b79617269000000000000000000000000000000000000000000000000000000",
                    "decodedMethod": {
                        "callParams": [
                            {
                                "name": "_classId",
                                "type": "uint32",
                                "value": "27"
                            },
                            {
                                "name": "_name",
                                "type": "string",
                                "value": "Kyari"
                            }
                        ],
                        "constructorArguments": "",
                        "name": "catchMonsterNFT",
                        "returnParams": [],
                        "signature": "catchMonsterNFT(uint32,string)"
                    },
                    "errorInfo": "",
                    "fromAddress": "0x06a2c1a237c7a2a0db69d25d2b25cb2e8b3ab9af",
                    "gasUsed": 409481,
                    "id": 0,
                    "methodDecoded": true,
                    "operation": "CALL",
                    "output": "",
                    "revert": false,
                    "revertMessage": "",
                    "selector": "0x15834ebd",
                    "status": true,
                    "value": "0"
                },
                "nodeType": 0
            },
            "1": {
                "invocation": {
                    "address": "0xabc1c404424bdf24c19a5cc5ef8f47781d18eb3e",
                    "callData": "0x000000000000000000000000000000000000000000000000000000000000001b",
                    "decodedMethod": {
                        "callParams": [
                            {
                                "name": "_classId",
                                "type": "uint32",
                                "value": "27"
                            }
                        ],
                        "constructorArguments": "",
                        "name": "getMonsterClass",
                        "returnParams": [
                            {
                                "name": "classId",
                                "type": "uint32",
                                "value": "27"
                            },
                            {
                                "name": "price",
                                "type": "uint256",
                                "value": "0"
                            },
                            {
                                "name": "returnPrice",
                                "type": "uint256",
                                "value": "0"
                            },
                            {
                                "name": "total",
                                "type": "uint32",
                                "value": "10,486"
                            },
                            {
                                "name": "catchable",
                                "type": "bool",
                                "value": true
                            }
                        ],
                        "signature": "getMonsterClass(uint32)"
                    },
                    "errorInfo": "",
                    "fromAddress": "0x5f480ca354304aae88d7dd66cd4735c59d543af0",
                    "gasUsed": 2252,
                    "id": 1,
                    "methodDecoded": true,
                    "operation": "CALL",
                    "output": "0x000000000000000000000000000000000000000000000000000000000000001b0000000000000000000000000000000000000000000000000000000000000000000000000000000000000000000000000000000000000000000000000000000000000000000000000000000000000000000000000000000000000000000028f60000000000000000000000000000000000000000000000000000000000000001",
                    "revert": false,
                    "revertMessage": "",
                    "selector": "0x9d29cac4",
                    "status": true,
                    "value": "0"
                },
                "nodeType": 0
            },
            "10": {
                "invocation": {
                    "address": "0xabc1c404424bdf24c19a5cc5ef8f47781d18eb3e",
                    "callData": "0x0000000000000000000000000000000000000000000000000000000000000003000000000000000000000000000000000000000000000000000000000000c3d10000000000000000000000000000000000000000000000000000000000000043",
                    "decodedMethod": {
                        "callParams": [
                            {
                                "name": "_type",
                                "type": "uint8",
                                "value": "3"
                            },
                            {
                                "name": "_id",
                                "type": "uint64",
                                "value": "50,129"
                            },
                            {
                                "name": "_value",
                                "type": "uint8",
                                "value": "67"
                            }
                        ],
                        "constructorArguments": "",
                        "name": "addElementToArrayType",
                        "returnParams": [
                            {
                                "name": "",
                                "type": "uint256",
                                "value": "4"
                            }
                        ],
                        "signature": "addElementToArrayType(uint8,uint64,uint8)"
                    },
                    "errorInfo": "",
                    "fromAddress": "0x5f480ca354304aae88d7dd66cd4735c59d543af0",
                    "gasUsed": 20663,
                    "id": 10,
                    "methodDecoded": true,
                    "operation": "CALL",
                    "output": "0x0000000000000000000000000000000000000000000000000000000000000004",
                    "revert": false,
                    "revertMessage": "",
                    "selector": "0x26bda739",
                    "status": true,
                    "value": "0"
                },
                "nodeType": 0
            },
            "11": {
                "invocation": {
                    "address": "0xabc1c404424bdf24c19a5cc5ef8f47781d18eb3e",
                    "callData": "0x0000000000000000000000000000000000000000000000000000000000000002000000000000000000000000000000000000000000000000000000000000001b0000000000000000000000000000000000000000000000000000000000000004",
                    "decodedMethod": {
                        "callParams": [
                            {
                                "name": "_type",
                                "type": "uint8",
                                "value": "2"
                            },
                            {
                                "name": "_id",
                                "type": "uint64",
                                "value": "27"
                            },
                            {
                                "name": "_index",
                                "type": "uint256",
                                "value": "4"
                            }
                        ],
                        "constructorArguments": "",
                        "name": "getElementInArrayType",
                        "returnParams": [
                            {
                                "name": "",
                                "type": "uint8",
                                "value": "45"
                            }
                        ],
                        "signature": "getElementInArrayType(uint8,uint64,uint256)"
                    },
                    "errorInfo": "",
                    "fromAddress": "0x5f480ca354304aae88d7dd66cd4735c59d543af0",
                    "gasUsed": 1915,
                    "id": 11,
                    "methodDecoded": true,
                    "operation": "CALL",
                    "output": "0x000000000000000000000000000000000000000000000000000000000000002d",
                    "revert": false,
                    "revertMessage": "",
                    "selector": "0x62b21ad7",
                    "status": true,
                    "value": "0"
                },
                "nodeType": 0
            },
            "12": {
                "invocation": {
                    "address": "0xabc1c404424bdf24c19a5cc5ef8f47781d18eb3e",
                    "callData": "0x0000000000000000000000000000000000000000000000000000000000000003000000000000000000000000000000000000000000000000000000000000c3d10000000000000000000000000000000000000000000000000000000000000035",
                    "decodedMethod": {
                        "callParams": [
                            {
                                "name": "_type",
                                "type": "uint8",
                                "value": "3"
                            },
                            {
                                "name": "_id",
                                "type": "uint64",
                                "value": "50,129"
                            },
                            {
                                "name": "_value",
                                "type": "uint8",
                                "value": "53"
                            }
                        ],
                        "constructorArguments": "",
                        "name": "addElementToArrayType",
                        "returnParams": [
                            {
                                "name": "",
                                "type": "uint256",
                                "value": "5"
                            }
                        ],
                        "signature": "addElementToArrayType(uint8,uint64,uint8)"
                    },
                    "errorInfo": "",
                    "fromAddress": "0x5f480ca354304aae88d7dd66cd4735c59d543af0",
                    "gasUsed": 20663,
                    "id": 12,
                    "methodDecoded": true,
                    "operation": "CALL",
                    "output": "0x0000000000000000000000000000000000000000000000000000000000000005",
                    "revert": false,
                    "revertMessage": "",
                    "selector": "0x26bda739",
                    "status": true,
                    "value": "0"
                },
                "nodeType": 0
            },
            "13": {
                "invocation": {
                    "address": "0xabc1c404424bdf24c19a5cc5ef8f47781d18eb3e",
                    "callData": "0x0000000000000000000000000000000000000000000000000000000000000002000000000000000000000000000000000000000000000000000000000000001b0000000000000000000000000000000000000000000000000000000000000005",
                    "decodedMethod": {
                        "callParams": [
                            {
                                "name": "_type",
                                "type": "uint8",
                                "value": "2"
                            },
                            {
                                "name": "_id",
                                "type": "uint64",
                                "value": "27"
                            },
                            {
                                "name": "_index",
                                "type": "uint256",
                                "value": "5"
                            }
                        ],
                        "constructorArguments": "",
                        "name": "getElementInArrayType",
                        "returnParams": [
                            {
                                "name": "",
                                "type": "uint8",
                                "value": "58"
                            }
                        ],
                        "signature": "getElementInArrayType(uint8,uint64,uint256)"
                    },
                    "errorInfo": "",
                    "fromAddress": "0x5f480ca354304aae88d7dd66cd4735c59d543af0",
                    "gasUsed": 1915,
                    "id": 13,
                    "methodDecoded": true,
                    "operation": "CALL",
                    "output": "0x000000000000000000000000000000000000000000000000000000000000003a",
                    "revert": false,
                    "revertMessage": "",
                    "selector": "0x62b21ad7",
                    "status": true,
                    "value": "0"
                },
                "nodeType": 0
            },
            "14": {
                "invocation": {
                    "address": "0xabc1c404424bdf24c19a5cc5ef8f47781d18eb3e",
                    "callData": "0x0000000000000000000000000000000000000000000000000000000000000003000000000000000000000000000000000000000000000000000000000000c3d1000000000000000000000000000000000000000000000000000000000000003f",
                    "decodedMethod": {
                        "callParams": [
                            {
                                "name": "_type",
                                "type": "uint8",
                                "value": "3"
                            },
                            {
                                "name": "_id",
                                "type": "uint64",
                                "value": "50,129"
                            },
                            {
                                "name": "_value",
                                "type": "uint8",
                                "value": "63"
                            }
                        ],
                        "constructorArguments": "",
                        "name": "addElementToArrayType",
                        "returnParams": [
                            {
                                "name": "",
                                "type": "uint256",
                                "value": "6"
                            }
                        ],
                        "signature": "addElementToArrayType(uint8,uint64,uint8)"
                    },
                    "errorInfo": "",
                    "fromAddress": "0x5f480ca354304aae88d7dd66cd4735c59d543af0",
                    "gasUsed": 20663,
                    "id": 14,
                    "methodDecoded": true,
                    "operation": "CALL",
                    "output": "0x0000000000000000000000000000000000000000000000000000000000000006",
                    "revert": false,
                    "revertMessage": "",
                    "selector": "0x26bda739",
                    "status": true,
                    "value": "0"
                },
                "nodeType": 0
            },
            "15": {
                "invocation": {
                    "address": "0x5d00d312e171be5342067c09bae883f9bcb2003b",
                    "callData": "0x000000000000000000000000000000000000000000000000000000000000000000000000000000000000000006a2c1a237c7a2a0db69d25d2b25cb2e8b3ab9af000000000000000000000000000000000000000000000000000000000000c3d1",
                    "decodedMethod": {
                        "callParams": [
                            {
                                "name": "_from",
                                "type": "address",
                                "value": "0x0000000000000000000000000000000000000000"
                            },
                            {
                                "name": "_to",
                                "type": "address",
                                "value": "0x06a2c1a237c7a2a0db69d25d2b25cb2e8b3ab9af"
                            },
                            {
                                "name": "_tokenId",
                                "type": "uint256",
                                "value": "50,129"
                            }
                        ],
                        "constructorArguments": "",
                        "name": "triggerTransferEvent",
                        "returnParams": [],
                        "signature": "triggerTransferEvent(address,address,uint256)"
                    },
                    "errorInfo": "",
                    "fromAddress": "0x5f480ca354304aae88d7dd66cd4735c59d543af0",
                    "gasUsed": 4386,
                    "id": 15,
                    "methodDecoded": true,
                    "operation": "CALL",
                    "output": "",
                    "revert": false,
                    "revertMessage": "",
                    "selector": "0xc463b008",
                    "status": true,
                    "value": "0"
                },
                "nodeType": 0
            },
            "16": {
                "event": {
                    "contract": "0x5d00d312e171be5342067c09bae883f9bcb2003b",
                    "decodedLog": {
                        "name": "Transfer",
                        "params": [
                            {
                                "name": "_from",
                                "type": "address",
                                "value": "0x0000000000000000000000000000000000000000"
                            },
                            {
                                "name": "_to",
                                "type": "address",
                                "value": "0x06a2c1a237c7a2a0db69d25d2b25cb2e8b3ab9af"
                            },
                            {
                                "decimalAvailable": true,
                                "name": "_tokenId",
                                "type": "uint256",
                                "value": "50,129"
                            }
                        ],
                        "signature": "Transfer(address,address,uint256)"
                    },
                    "id": 16,
                    "logData": "0x",
                    "logDecoded": true,
                    "operation": "EVENT",
                    "revert": false,
                    "status": true,
                    "topics": [
                        "0xddf252ad1be2c89b69c2b068fc378daa952ba7f163c4a11628f55a4df523b3ef",
                        "0x0000000000000000000000000000000000000000000000000000000000000000",
                        "0x00000000000000000000000006a2c1a237c7a2a0db69d25d2b25cb2e8b3ab9af",
                        "0x000000000000000000000000000000000000000000000000000000000000c3d1"
                    ]
                },
                "nodeType": 1
            },
            "2": {
                "invocation": {
                    "address": "0xabc1c404424bdf24c19a5cc5ef8f47781d18eb3e",
                    "callData": "0x000000000000000000000000000000000000000000000000000000000000001b00000000000000000000000006a2c1a237c7a2a0db69d25d2b25cb2e8b3ab9af000000000000000000000000000000000000000000000000000000000000006000000000000000000000000000000000000000000000000000000000000000054b79617269",
                    "decodedMethod": {
                        "callParams": [
                            {
                                "name": "_classId",
                                "type": "uint32",
                                "value": "27"
                            },
                            {
                                "name": "_trainer",
                                "type": "address",
                                "value": "0x06a2c1a237c7a2a0db69d25d2b25cb2e8b3ab9af"
                            },
                            {
                                "name": "_name",
                                "type": "string",
                                "value": "Kyari"
                            }
                        ],
                        "constructorArguments": "",
                        "name": "addMonsterObj",
                        "returnParams": [
                            {
                                "name": "",
                                "type": "uint64",
                                "value": "50,129"
                            }
                        ],
                        "signature": "addMonsterObj(uint32,address,string)"
                    },
                    "errorInfo": "",
                    "fromAddress": "0x5f480ca354304aae88d7dd66cd4735c59d543af0",
                    "gasUsed": 186368,
                    "id": 2,
                    "methodDecoded": true,
                    "operation": "CALL",
                    "output": "0x000000000000000000000000000000000000000000000000000000000000c3d1",
                    "revert": false,
                    "revertMessage": "",
                    "selector": "0xfc4d20f5",
                    "status": true,
                    "value": "0"
                },
                "nodeType": 0
            },
            "3": {
                "invocation": {
                    "address": "0xabc1c404424bdf24c19a5cc5ef8f47781d18eb3e",
                    "callData": "0x0000000000000000000000000000000000000000000000000000000000000002000000000000000000000000000000000000000000000000000000000000001b0000000000000000000000000000000000000000000000000000000000000000",
                    "decodedMethod": {
                        "callParams": [
                            {
                                "name": "_type",
                                "type": "uint8",
                                "value": "2"
                            },
                            {
                                "name": "_id",
                                "type": "uint64",
                                "value": "27"
                            },
                            {
                                "name": "_index",
                                "type": "uint256",
                                "value": "0"
                            }
                        ],
                        "constructorArguments": "",
                        "name": "getElementInArrayType",
                        "returnParams": [
                            {
                                "name": "",
                                "type": "uint8",
                                "value": "41"
                            }
                        ],
                        "signature": "getElementInArrayType(uint8,uint64,uint256)"
                    },
                    "errorInfo": "",
                    "fromAddress": "0x5f480ca354304aae88d7dd66cd4735c59d543af0",
                    "gasUsed": 1865,
                    "id": 3,
                    "methodDecoded": true,
                    "operation": "CALL",
                    "output": "0x0000000000000000000000000000000000000000000000000000000000000029",
                    "revert": false,
                    "revertMessage": "",
                    "selector": "0x62b21ad7",
                    "status": true,
                    "value": "0"
                },
                "nodeType": 0
            },
            "4": {
                "invocation": {
                    "address": "0xabc1c404424bdf24c19a5cc5ef8f47781d18eb3e",
                    "callData": "0x0000000000000000000000000000000000000000000000000000000000000003000000000000000000000000000000000000000000000000000000000000c3d10000000000000000000000000000000000000000000000000000000000000035",
                    "decodedMethod": {
                        "callParams": [
                            {
                                "name": "_type",
                                "type": "uint8",
                                "value": "3"
                            },
                            {
                                "name": "_id",
                                "type": "uint64",
                                "value": "50,129"
                            },
                            {
                                "name": "_value",
                                "type": "uint8",
                                "value": "53"
                            }
                        ],
                        "constructorArguments": "",
                        "name": "addElementToArrayType",
                        "returnParams": [
                            {
                                "name": "",
                                "type": "uint256",
                                "value": "1"
                            }
                        ],
                        "signature": "addElementToArrayType(uint8,uint64,uint8)"
                    },
                    "errorInfo": "",
                    "fromAddress": "0x5f480ca354304aae88d7dd66cd4735c59d543af0",
                    "gasUsed": 50613,
                    "id": 4,
                    "methodDecoded": true,
                    "operation": "CALL",
                    "output": "0x0000000000000000000000000000000000000000000000000000000000000001",
                    "revert": false,
                    "revertMessage": "",
                    "selector": "0x26bda739",
                    "status": true,
                    "value": "0"
                },
                "nodeType": 0
            },
            "5": {
                "invocation": {
                    "address": "0xabc1c404424bdf24c19a5cc5ef8f47781d18eb3e",
                    "callData": "0x0000000000000000000000000000000000000000000000000000000000000002000000000000000000000000000000000000000000000000000000000000001b0000000000000000000000000000000000000000000000000000000000000001",
                    "decodedMethod": {
                        "callParams": [
                            {
                                "name": "_type",
                                "type": "uint8",
                                "value": "2"
                            },
                            {
                                "name": "_id",
                                "type": "uint64",
                                "value": "27"
                            },
                            {
                                "name": "_index",
                                "type": "uint256",
                                "value": "1"
                            }
                        ],
                        "constructorArguments": "",
                        "name": "getElementInArrayType",
                        "returnParams": [
                            {
                                "name": "",
                                "type": "uint8",
                                "value": "59"
                            }
                        ],
                        "signature": "getElementInArrayType(uint8,uint64,uint256)"
                    },
                    "errorInfo": "",
                    "fromAddress": "0x5f480ca354304aae88d7dd66cd4735c59d543af0",
                    "gasUsed": 1915,
                    "id": 5,
                    "methodDecoded": true,
                    "operation": "CALL",
                    "output": "0x000000000000000000000000000000000000000000000000000000000000003b",
                    "revert": false,
                    "revertMessage": "",
                    "selector": "0x62b21ad7",
                    "status": true,
                    "value": "0"
                },
                "nodeType": 0
            },
            "6": {
                "invocation": {
                    "address": "0xabc1c404424bdf24c19a5cc5ef8f47781d18eb3e",
                    "callData": "0x0000000000000000000000000000000000000000000000000000000000000003000000000000000000000000000000000000000000000000000000000000c3d10000000000000000000000000000000000000000000000000000000000000050",
                    "decodedMethod": {
                        "callParams": [
                            {
                                "name": "_type",
                                "type": "uint8",
                                "value": "3"
                            },
                            {
                                "name": "_id",
                                "type": "uint64",
                                "value": "50,129"
                            },
                            {
                                "name": "_value",
                                "type": "uint8",
                                "value": "80"
                            }
                        ],
                        "constructorArguments": "",
                        "name": "addElementToArrayType",
                        "returnParams": [
                            {
                                "name": "",
                                "type": "uint256",
                                "value": "2"
                            }
                        ],
                        "signature": "addElementToArrayType(uint8,uint64,uint8)"
                    },
                    "errorInfo": "",
                    "fromAddress": "0x5f480ca354304aae88d7dd66cd4735c59d543af0",
                    "gasUsed": 20663,
                    "id": 6,
                    "methodDecoded": true,
                    "operation": "CALL",
                    "output": "0x0000000000000000000000000000000000000000000000000000000000000002",
                    "revert": false,
                    "revertMessage": "",
                    "selector": "0x26bda739",
                    "status": true,
                    "value": "0"
                },
                "nodeType": 0
            },
            "7": {
                "invocation": {
                    "address": "0xabc1c404424bdf24c19a5cc5ef8f47781d18eb3e",
                    "callData": "0x0000000000000000000000000000000000000000000000000000000000000002000000000000000000000000000000000000000000000000000000000000001b0000000000000000000000000000000000000000000000000000000000000002",
                    "decodedMethod": {
                        "callParams": [
                            {
                                "name": "_type",
                                "type": "uint8",
                                "value": "2"
                            },
                            {
                                "name": "_id",
                                "type": "uint64",
                                "value": "27"
                            },
                            {
                                "name": "_index",
                                "type": "uint256",
                                "value": "2"
                            }
                        ],
                        "constructorArguments": "",
                        "name": "getElementInArrayType",
                        "returnParams": [
                            {
                                "name": "",
                                "type": "uint8",
                                "value": "48"
                            }
                        ],
                        "signature": "getElementInArrayType(uint8,uint64,uint256)"
                    },
                    "errorInfo": "",
                    "fromAddress": "0x5f480ca354304aae88d7dd66cd4735c59d543af0",
                    "gasUsed": 1915,
                    "id": 7,
                    "methodDecoded": true,
                    "operation": "CALL",
                    "output": "0x0000000000000000000000000000000000000000000000000000000000000030",
                    "revert": false,
                    "revertMessage": "",
                    "selector": "0x62b21ad7",
                    "status": true,
                    "value": "0"
                },
                "nodeType": 0
            },
            "8": {
                "invocation": {
                    "address": "0xabc1c404424bdf24c19a5cc5ef8f47781d18eb3e",
                    "callData": "0x0000000000000000000000000000000000000000000000000000000000000003000000000000000000000000000000000000000000000000000000000000c3d1000000000000000000000000000000000000000000000000000000000000003d",
                    "decodedMethod": {
                        "callParams": [
                            {
                                "name": "_type",
                                "type": "uint8",
                                "value": "3"
                            },
                            {
                                "name": "_id",
                                "type": "uint64",
                                "value": "50,129"
                            },
                            {
                                "name": "_value",
                                "type": "uint8",
                                "value": "61"
                            }
                        ],
                        "constructorArguments": "",
                        "name": "addElementToArrayType",
                        "returnParams": [
                            {
                                "name": "",
                                "type": "uint256",
                                "value": "3"
                            }
                        ],
                        "signature": "addElementToArrayType(uint8,uint64,uint8)"
                    },
                    "errorInfo": "",
                    "fromAddress": "0x5f480ca354304aae88d7dd66cd4735c59d543af0",
                    "gasUsed": 20663,
                    "id": 8,
                    "methodDecoded": true,
                    "operation": "CALL",
                    "output": "0x0000000000000000000000000000000000000000000000000000000000000003",
                    "revert": false,
                    "revertMessage": "",
                    "selector": "0x26bda739",
                    "status": true,
                    "value": "0"
                },
                "nodeType": 0
            },
            "9": {
                "invocation": {
                    "address": "0xabc1c404424bdf24c19a5cc5ef8f47781d18eb3e",
                    "callData": "0x0000000000000000000000000000000000000000000000000000000000000002000000000000000000000000000000000000000000000000000000000000001b0000000000000000000000000000000000000000000000000000000000000003",
                    "decodedMethod": {
                        "callParams": [
                            {
                                "name": "_type",
                                "type": "uint8",
                                "value": "2"
                            },
                            {
                                "name": "_id",
                                "type": "uint64",
                                "value": "27"
                            },
                            {
                                "name": "_index",
                                "type": "uint256",
                                "value": "3"
                            }
                        ],
                        "constructorArguments": "",
                        "name": "getElementInArrayType",
                        "returnParams": [
                            {
                                "name": "",
                                "type": "uint8",
                                "value": "60"
                            }
                        ],
                        "signature": "getElementInArrayType(uint8,uint64,uint256)"
                    },
                    "errorInfo": "",
                    "fromAddress": "0x5f480ca354304aae88d7dd66cd4735c59d543af0",
                    "gasUsed": 1915,
                    "id": 9,
                    "methodDecoded": true,
                    "operation": "CALL",
                    "output": "0x000000000000000000000000000000000000000000000000000000000000003c",
                    "revert": false,
                    "revertMessage": "",
                    "selector": "0x62b21ad7",
                    "status": true,
                    "value": "0"
                },
                "nodeType": 0
            }
        },
        "gasFlame": [
            {
                "children": [
                    {
                        "children": [
                            {
                                "children": [],
                                "depth": 0,
                                "name": "Initial Gas",
                                "value": 22296
                            },
                            {
                                "children": [
                                    {
                                        "children": [],
                                        "depth": 1,
                                        "name": "getMonsterClass",
                                        "value": 2252
                                    },
                                    {
                                        "children": [],
                                        "depth": 1,
                                        "name": "addMonsterObj",
                                        "value": 186368
                                    },
                                    {
                                        "children": [],
                                        "depth": 1,
                                        "name": "getElementInArrayType",
                                        "value": 1865
                                    },
                                    {
                                        "children": [],
                                        "depth": 1,
                                        "name": "addElementToArrayType",
                                        "value": 50613
                                    },
                                    {
                                        "children": [],
                                        "depth": 1,
                                        "name": "getElementInArrayType",
                                        "value": 1915
                                    },
                                    {
                                        "children": [],
                                        "depth": 1,
                                        "name": "addElementToArrayType",
                                        "value": 20663
                                    },
                                    {
                                        "children": [],
                                        "depth": 1,
                                        "name": "getElementInArrayType",
                                        "value": 1915
                                    },
                                    {
                                        "children": [],
                                        "depth": 1,
                                        "name": "addElementToArrayType",
                                        "value": 20663
                                    },
                                    {
                                        "children": [],
                                        "depth": 1,
                                        "name": "getElementInArrayType",
                                        "value": 1915
                                    },
                                    {
                                        "children": [],
                                        "depth": 1,
                                        "name": "addElementToArrayType",
                                        "value": 20663
                                    },
                                    {
                                        "children": [],
                                        "depth": 1,
                                        "name": "getElementInArrayType",
                                        "value": 1915
                                    },
                                    {
                                        "children": [],
                                        "depth": 1,
                                        "name": "addElementToArrayType",
                                        "value": 20663
                                    },
                                    {
                                        "children": [],
                                        "depth": 1,
                                        "name": "getElementInArrayType",
                                        "value": 1915
                                    },
                                    {
                                        "children": [],
                                        "depth": 1,
                                        "name": "addElementToArrayType",
                                        "value": 20663
                                    },
                                    {
                                        "children": [],
                                        "depth": 1,
                                        "name": "triggerTransferEvent",
                                        "value": 4386
                                    }
                                ],
                                "depth": 0,
                                "name": "Executed Gas",
                                "value": 387185
                            }
                        ],
                        "depth": -1,
                        "name": "Actual Gas Used",
                        "value": 409481
                    },
                    {
                        "children": [],
                        "depth": -1,
                        "name": "Refunded Gas",
                        "value": 0
                    }
                ],
                "depth": -2,
                "name": "Total Gas",
                "value": 409481
            }
        ],
        "isConfirmed": true,
        "mainTrace": [
            {
                "children": [
                    {
                        "children": [
                            {
                                "children": [],
                                "depth": 1,
                                "id": 1,
                                "order": 1
                            },
                            {
                                "children": [],
                                "depth": 1,
                                "id": 2,
                                "order": 2
                            },
                            {
                                "children": [],
                                "depth": 1,
                                "id": 3,
                                "order": 3
                            },
                            {
                                "children": [],
                                "depth": 1,
                                "id": 4,
                                "order": 4
                            },
                            {
                                "children": [],
                                "depth": 1,
                                "id": 5,
                                "order": 5
                            },
                            {
                                "children": [],
                                "depth": 1,
                                "id": 6,
                                "order": 6
                            },
                            {
                                "children": [],
                                "depth": 1,
                                "id": 7,
                                "order": 7
                            },
                            {
                                "children": [],
                                "depth": 1,
                                "id": 8,
                                "order": 8
                            },
                            {
                                "children": [],
                                "depth": 1,
                                "id": 9,
                                "order": 9
                            },
                            {
                                "children": [],
                                "depth": 1,
                                "id": 10,
                                "order": 10
                            },
                            {
                                "children": [],
                                "depth": 1,
                                "id": 11,
                                "order": 11
                            },
                            {
                                "children": [],
                                "depth": 1,
                                "id": 12,
                                "order": 12
                            },
                            {
                                "children": [],
                                "depth": 1,
                                "id": 13,
                                "order": 13
                            },
                            {
                                "children": [],
                                "depth": 1,
                                "id": 14,
                                "order": 14
                            },
                            {
                                "children": [
                                    {
                                        "children": [],
                                        "depth": 2,
                                        "id": 16,
                                        "order": 16
                                    }
                                ],
                                "depth": 1,
                                "id": 15,
                                "order": 15
                            }
                        ],
                        "depth": 0,
                        "id": 0,
                        "order": 0
                    }
                ],
                "depth": -1,
                "id": -1,
                "order": -1
            }
        ],
        "mainTraceNodeCount": 17,
        "parentIdMap": {
            "0": -1,
            "1": 0,
            "10": 0,
            "11": 0,
            "12": 0,
            "13": 0,
            "14": 0,
            "15": 0,
            "16": 15,
            "2": 0,
            "3": 0,
            "4": 0,
            "5": 0,
            "6": 0,
            "7": 0,
            "8": 0,
            "9": 0
        },
        "tidyTrace": [
            {
                "children": [
                    {
                        "children": [
                            {
                                "children": [],
                                "depth": 1,
                                "id": 1,
                                "order": 1
                            },
                            {
                                "children": [],
                                "depth": 1,
                                "id": 2,
                                "order": 2
                            },
                            {
                                "children": [],
                                "depth": 1,
                                "id": 3,
                                "order": 3
                            },
                            {
                                "children": [],
                                "depth": 1,
                                "id": 4,
                                "order": 4
                            },
                            {
                                "children": [],
                                "depth": 1,
                                "id": 5,
                                "order": 5
                            },
                            {
                                "children": [],
                                "depth": 1,
                                "id": 6,
                                "order": 6
                            },
                            {
                                "children": [],
                                "depth": 1,
                                "id": 7,
                                "order": 7
                            },
                            {
                                "children": [],
                                "depth": 1,
                                "id": 8,
                                "order": 8
                            },
                            {
                                "children": [],
                                "depth": 1,
                                "id": 9,
                                "order": 9
                            },
                            {
                                "children": [],
                                "depth": 1,
                                "id": 10,
                                "order": 10
                            },
                            {
                                "children": [],
                                "depth": 1,
                                "id": 11,
                                "order": 11
                            },
                            {
                                "children": [],
                                "depth": 1,
                                "id": 12,
                                "order": 12
                            },
                            {
                                "children": [],
                                "depth": 1,
                                "id": 13,
                                "order": 13
                            },
                            {
                                "children": [],
                                "depth": 1,
                                "id": 14,
                                "order": 14
                            },
                            {
                                "children": [
                                    {
                                        "children": [],
                                        "depth": 2,
                                        "id": 16,
                                        "order": 16
                                    }
                                ],
                                "depth": 1,
                                "id": 15,
                                "order": 15
                            }
                        ],
                        "depth": 0,
                        "id": 0,
                        "order": 0
                    }
                ],
                "depth": -1,
                "id": -1,
                "order": -1
            }
        ],
        "tidyTraceNodeCount": 17
    },
    "state_change": {
        "stateChanges": [
            {
                "address": "0xabc1c404424bdf24c19a5cc5ef8f47781d18eb3e",
                "erc": "",
                "slots": [
                    {
                        "current": "0x000000000000000000000000000000000000000000000000000000005c6010a0",
                        "key": "0x393279d1e612aa74a97d23875f4625840e16b1e471753cabc8d9ee74d761491d",
                        "prev": "0x0000000000000000000000000000000000000000000000000000000000000000"
                    },
                    {
                        "current": "0x000000000000c3d1000000000000c3be000000000000c2b8000000000000c20a",
                        "key": "0x5b69dac397a665ff2532bf2044a6c1c5c98657dc4b0169c174bc7b832b3e710f",
                        "prev": "0x0000000000000000000000000000c3be000000000000c2b8000000000000c20a"
                    },
                    {
                        "current": "0x0000000000000000000000000000000000000000000000000000000000000018",
                        "key": "0x8506a5ead3662b7a868a6ea118290733544c6680a3d30773664946dc169836b2",
                        "prev": "0x0000000000000000000000000000000000000000000000000000000000000017"
                    },
                    {
                        "current": "0x06a2c1a237c7a2a0db69d25d2b25cb2e8b3ab9af0000001b000000000000c3d1",
                        "key": "0x393279d1e612aa74a97d23875f4625840e16b1e471753cabc8d9ee74d7614917",
                        "prev": "0x0000000000000000000000000000000000000000000000000000000000000000"
                    },
                    {
                        "current": "0x0000000000000000000000000000000000000000000000000000000000000001",
                        "key": "0x393279d1e612aa74a97d23875f4625840e16b1e471753cabc8d9ee74d7614919",
                        "prev": "0x0000000000000000000000000000000000000000000000000000000000000000"
                    },
                    {
                        "current": "0x4b7961726900000000000000000000000000000000000000000000000000000a",
                        "key": "0x393279d1e612aa74a97d23875f4625840e16b1e471753cabc8d9ee74d7614918",
                        "prev": "0x0000000000000000000000000000000000000000000000000000000000000000"
                    },
                    {
                        "current": "0x000000000000000000000000000000000000000000000000000028f7000028f7",
                        "key": "0x393279d1e612aa74a97d23875f4625840e16b1e471753cabc8d9ee74d761491c",
                        "prev": "0x0000000000000000000000000000000000000000000000000000000000000000"
                    },
                    {
                        "current": "0x00000000000000000000000000000000000000000000000000003f35433d5035",
                        "key": "0xc8575ef8865bf4126f3d392c3c226af4e2dc95f89d3ae070688f13c74144a43a",
                        "prev": "0x0000000000000000000000000000000000000000000000000000000000000000"
                    },
                    {
                        "current": "0x0000000000000000000000000000000000000000000000000000000000000006",
                        "key": "0x393279d1e612aa74a97d23875f4625840e16b1e471753cabc8d9ee74d761491a",
                        "prev": "0x0000000000000000000000000000000000000000000000000000000000000000"
                    },
                    {
                        "current": "0x0000000000000000000000000000000000000000000000a4000000000000c3d1",
                        "key": "0x0000000000000000000000000000000000000000000000000000000000000002",
                        "prev": "0x0000000000000000000000000000000000000000000000a4000000000000c3d0"
                    },
                    {
                        "current": "0x00000000000000000000000000000000000000000000000000000001000028f7",
                        "key": "0x925be0b447003e4366d6addf976a9e5448b14e56ca3733fe4a9ca6f86b0dcbdb",
                        "prev": "0x00000000000000000000000000000000000000000000000000000001000028f6"
                    }
                ],
                "storageVariables": [
                    {
                        "name": "monsterWorld",
                        "type": "mapping(uint64 => struct EtheremonData.MonsterObj)",
                        "value": {
                            "pairs": [
                                {
                                    "key": "50129",
                                    "value": {
                                        "fields": [
                                            {
                                                "name": "monsterId",
                                                "type": "uint64",
                                                "value": {
                                                    "current": "50129",
                                                    "prev": "0",
                                                    "typeTag": 1
                                                }
                                            },
                                            {
                                                "name": "classId",
                                                "type": "uint32",
                                                "value": {
                                                    "current": "27",
                                                    "prev": "0",
                                                    "typeTag": 1
                                                }
                                            },
                                            {
                                                "name": "trainer",
                                                "type": "address",
                                                "value": {
                                                    "current": "0x06a2c1a237c7a2a0db69d25d2b25cb2e8b3ab9af",
                                                    "prev": "0x0000000000000000000000000000000000000000",
                                                    "typeTag": 1
                                                }
                                            },
                                            {
                                                "name": "name",
                                                "type": "string",
                                                "value": {
                                                    "current": "Kyari",
                                                    "prev": "",
                                                    "typeTag": 1
                                                }
                                            },
                                            {
                                                "name": "exp",
                                                "type": "uint32",
                                                "value": {
                                                    "current": "1",
                                                    "prev": "0",
                                                    "typeTag": 1
                                                }
                                            },
                                            {
                                                "name": "statBases",
                                                "type": "uint8[]",
                                                "value": {
                                                    "elemType": "uint8",
                                                    "elems": [
                                                        {
                                                            "index": 0,
                                                            "value": {
                                                                "current": "53",
                                                                "prev": "0",
                                                                "typeTag": 1
                                                            }
                                                        },
                                                        {
                                                            "index": 1,
                                                            "value": {
                                                                "current": "80",
                                                                "prev": "0",
                                                                "typeTag": 1
                                                            }
                                                        },
                                                        {
                                                            "index": 2,
                                                            "value": {
                                                                "current": "61",
                                                                "prev": "0",
                                                                "typeTag": 1
                                                            }
                                                        },
                                                        {
                                                            "index": 3,
                                                            "value": {
                                                                "current": "67",
                                                                "prev": "0",
                                                                "typeTag": 1
                                                            }
                                                        },
                                                        {
                                                            "index": 4,
                                                            "value": {
                                                                "current": "53",
                                                                "prev": "0",
                                                                "typeTag": 1
                                                            }
                                                        },
                                                        {
                                                            "index": 5,
                                                            "value": {
                                                                "current": "63",
                                                                "prev": "0",
                                                                "typeTag": 1
                                                            }
                                                        }
                                                    ],
                                                    "typeTag": 2
                                                }
                                            },
                                            {
                                                "name": "createIndex",
                                                "type": "uint32",
                                                "value": {
                                                    "current": "10487",
                                                    "prev": "0",
                                                    "typeTag": 1
                                                }
                                            },
                                            {
                                                "name": "lastClaimIndex",
                                                "type": "uint32",
                                                "value": {
                                                    "current": "10487",
                                                    "prev": "0",
                                                    "typeTag": 1
                                                }
                                            },
                                            {
                                                "name": "createTime",
                                                "type": "uint256",
                                                "value": {
                                                    "current": "1549799584",
                                                    "prev": "0",
                                                    "typeTag": 1
                                                }
                                            }
                                        ],
                                        "typeTag": 3
                                    }
                                }
                            ],
                            "typeTag": 4
                        }
                    },
                    {
                        "name": "trainerDex",
                        "type": "mapping(address => uint64[])",
                        "value": {
                            "pairs": [
                                {
                                    "key": "0x06a2c1a237c7a2a0db69d25d2b25cb2e8b3ab9af",
                                    "value": {
                                        "elemType": "uint64",
                                        "elems": [
                                            {
                                                "index": 19,
                                                "value": {
                                                    "current": "50129",
                                                    "prev": "0",
                                                    "typeTag": 1
                                                }
                                            },
                                            {
                                                "index": 20,
                                                "value": {
                                                    "current": "49674",
                                                    "prev": "49674",
                                                    "typeTag": 1
                                                }
                                            },
                                            {
                                                "index": 21,
                                                "value": {
                                                    "current": "49848",
                                                    "prev": "49848",
                                                    "typeTag": 1
                                                }
                                            },
                                            {
                                                "index": 22,
                                                "value": {
                                                    "current": "50110",
                                                    "prev": "50110",
                                                    "typeTag": 1
                                                }
                                            }
                                        ],
                                        "typeTag": 2
                                    }
                                }
                            ],
                            "typeTag": 4
                        }
                    },
                    {
                        "name": "totalMonster",
                        "type": "uint64",
                        "value": {
                            "current": "50129",
                            "prev": "50128",
                            "typeTag": 1
                        }
                    },
                    {
                        "name": "totalClass",
                        "type": "uint32",
                        "value": {
                            "current": "164",
                            "prev": "164",
                            "typeTag": 1
                        }
                    },
                    {
                        "name": "monsterClass",
                        "type": "mapping(uint32 => struct EtheremonData.MonsterClass)",
                        "value": {
                            "pairs": [
                                {
                                    "key": "27",
                                    "value": {
                                        "fields": [
                                            {
                                                "name": "total",
                                                "type": "uint32",
                                                "value": {
                                                    "current": "10487",
                                                    "prev": "10486",
                                                    "typeTag": 1
                                                }
                                            },
                                            {
                                                "name": "catchable",
                                                "type": "bool",
                                                "value": {
                                                    "current": "true",
                                                    "prev": "true",
                                                    "typeTag": 1
                                                }
                                            }
                                        ],
                                        "typeTag": 3
                                    }
                                }
                            ],
                            "typeTag": 4
                        }
                    }
                ]
            }
        ]
    }
}