{
    "balance_change": {
        "balanceChanges": []
    },
    "profile": {
        "basic_info": {
            "baseFee": "",
            "blockNumber": 4531969,
            "callData": "0x0a19b14a00000000000000000000000014839bf22810f09fb163af69bd21bd5476f445cd0000000000000000000000000000000000000000000004f91fd8bf2320d4000000000000000000000000000000000000000000000000000000000000000000000000000000000000000000000000000000000000000000029f651943329bdd000000000000000000000000000000000000000000000000000000000000454e01000000000000000000000000000000000000000000000000000000001a5e554c00000000000000000000000007c26bccbef5ba6c7bc2e3f84458745a26a03439000000000000000000000000000000000000000000000000000000000000001b3f6b859ccb21beb99df597890dd0e026cef3fe4c0c1e3e6fcfd83d7533f358293fba26e1d8d93c67152b6cfaffc8cf8dc9eadd8abc4a220083efdc3f3045d00b0000000000000000000000000000000000000000000004f91fd8bf2320d40000",
            "debugEnable": true,
            "errorInfo": "",
            "eventCount": 1,
            "feeRecipient": "0x5a0b54d5dc17e0aadc383d2db43b0a0d3e029c4c",
            "formatValue": "0",
            "gasLimit": 250000,
            "gasPrice": "5",
            "gasUsed": 108306,
            "intTxnCount": 2,
            "internalRevert": false,
            "internalRevertMessage": "",
            "isContractCreation": false,
            "isFlashloan": false,
            "maxFee": "",
            "nonce": 575,
            "overwritedBlockNumber": -1,
            "priorityFee": "",
            "receiver": "0x8d12a197cb00d4747a1fe03395095ce2a5cc6819",
            "revertMessage": "",
            "sender": "0x82e4d78c6c62d461251fa5a1d4deb9f0fe378e30",
            "simulationEnable": true,
            "sourceTxnHash": "0x05a57ad8aa6ce61c07ccb2514a0350a980572c92fafe33ee66b525093d40816b",
            "status": true,
            "timestamp": "2017-11-11T10:58:47Z",
            "transactionFee": "0.00054153",
            "txnHash": "0x05a57ad8aa6ce61c07ccb2514a0350a980572c92fafe33ee66b525093d40816b",
            "txnIndex": 84,
            "type": 0,
            "value": "0"
        },
        "fund_flow": [],
        "token_infos": [
            {
                "address": "0xc02aaa39b223fe8d0a0e5c4f27ead9083c756cc2",
                "decimals": 18
            },
            {
                "address": "0xeeeeeeeeeeeeeeeeeeeeeeeeeeeeeeeeeeeeeeee",
                "decimals": 18
            }
        ]
    },
    "address_label": {
        "labels": [
            {
                "address": "0x0000000000000000000000000000000000000003",
                "label": "Precompiled"
            },
            {
                "address": "0x0000000000000000000000000000000000000004",
                "label": "Precompiled"
            },
            {
                "address": "0xeeeeeeeeeeeeeeeeeeeeeeeeeeeeeeeeeeeeeeee",
                "label": "Ether"
            },
            {
                "address": "0x8d12a197cb00d4747a1fe03395095ce2a5cc6819",
                "label": "EtherDelta"
            },
            {
                "address": "0x0000000000000000000000000000000000000002",
                "label": "Precompiled"
            },
            {
                "address": "0x0000000000000000000000000000000000000000",
                "label": "Null Address"
            },
            {
                "address": "0x14839bf22810f09fb163af69bd21bd5476f445cd",
                "label": "CFD"
            },
            {
                "address": "0x0000000000000000000000000000000000000001",
                "label": "Precompiled"
            }
        ]
    },
    "trace": {
        "accountLabels": null,
        "dataMap": {
            "-1": {
                "invocation": {
                    "address": "0x82e4d78c6c62d461251fa5a1d4deb9f0fe378e30",
                    "callData": "",
                    "decodedMethod": null,
                    "errorInfo": "",
                    "fromAddress": "",
                    "gasUsed": 0,
                    "id": -1,
                    "methodDecoded": false,
                    "operation": "",
                    "output": "",
                    "revert": false,
                    "revertMessage": "",
                    "selector": "",
                    "status": false,
                    "value": ""
                },
                "nodeType": 0
            },
            "0": {
                "invocation": {
                    "address": "0x8d12a197cb00d4747a1fe03395095ce2a5cc6819",
                    "callData": "0x00000000000000000000000014839bf22810f09fb163af69bd21bd5476f445cd0000000000000000000000000000000000000000000004f91fd8bf2320d4000000000000000000000000000000000000000000000000000000000000000000000000000000000000000000000000000000000000000000029f651943329bdd000000000000000000000000000000000000000000000000000000000000454e01000000000000000000000000000000000000000000000000000000001a5e554c00000000000000000000000007c26bccbef5ba6c7bc2e3f84458745a26a03439000000000000000000000000000000000000000000000000000000000000001b3f6b859ccb21beb99df597890dd0e026cef3fe4c0c1e3e6fcfd83d7533f358293fba26e1d8d93c67152b6cfaffc8cf8dc9eadd8abc4a220083efdc3f3045d00b0000000000000000000000000000000000000000000004f91fd8bf2320d40000",
                    "decodedMethod": {
                        "callParams": [
                            {
                                "name": "tokenGet",
                                "type": "address",
                                "value": "0x14839bf22810f09fb163af69bd21bd5476f445cd"
                            },
                            {
                                "name": "amountGet",
                                "type": "uint256",
                                "value": "23,485,000,000,000,000,000,000"
                            },
                            {
                                "name": "tokenGive",
                                "type": "address",
                                "value": "0x0000000000000000000000000000000000000000"
                            },
                            {
                                "name": "amountGive",
                                "type": "uint256",
                                "value": "48,379,102,348,500,000,000"
                            },
                            {
                                "name": "expires",
                                "type": "uint256",
                                "value": "4,541,953"
                            },
                            {
                                "name": "nonce",
                                "type": "uint256",
                                "value": "442,389,836"
                            },
                            {
                                "name": "user",
                                "type": "address",
                                "value": "0x07c26bccbef5ba6c7bc2e3f84458745a26a03439"
                            },
                            {
                                "name": "v",
                                "type": "uint8",
                                "value": "27"
                            },
                            {
                                "name": "r",
                                "type": "bytes32",
                                "value": "0x3f6b859ccb21beb99df597890dd0e026cef3fe4c0c1e3e6fcfd83d7533f35829"
                            },
                            {
                                "name": "s",
                                "type": "bytes32",
                                "value": "0x3fba26e1d8d93c67152b6cfaffc8cf8dc9eadd8abc4a220083efdc3f3045d00b"
                            },
                            {
                                "name": "amount",
                                "type": "uint256",
                                "value": "23,485,000,000,000,000,000,000"
                            }
                        ],
                        "constructorArguments": "",
                        "name": "trade",
                        "returnParams": [],
                        "signature": "trade(address,uint256,address,uint256,uint256,uint256,address,uint8,bytes32,bytes32,uint256)"
                    },
                    "errorInfo": "",
                    "fromAddress": "0x82e4d78c6c62d461251fa5a1d4deb9f0fe378e30",
                    "gasUsed": 108306,
                    "id": 0,
                    "methodDecoded": true,
                    "operation": "CALL",
                    "output": "",
                    "revert": false,
                    "revertMessage": "",
                    "selector": "0x0a19b14a",
                    "status": true,
                    "value": "0"
                },
                "nodeType": 0
            },
            "1": {
                "invocation": {
                    "address": "0x0000000000000000000000000000000000000002",
                    "callData": "0xcb00d4747a1fe03395095ce2a5cc681914839bf22810f09fb163af69bd21bd5476f445cd0000000000000000000000000000000000000000000004f91fd8bf2320d4000000000000000000000000000000000000000000000000000000000000000000000000000000000000000000029f651943329bdd000000000000000000000000000000000000000000000000000000000000454e01000000000000000000000000000000000000000000000000000000001a5e554c",
                    "decodedMethod": {
                        "callParams": [
                            {
                                "name": "data",
                                "type": "bytes",
                                "value": "0x8d12a197cb00d4747a1fe03395095ce2a5cc681914839bf22810f09fb163af69bd21bd5476f445cd0000000000000000000000000000000000000000000004f91fd8bf2320d4000000000000000000000000000000000000000000000000000000000000000000000000000000000000000000029f651943329bdd000000000000000000000000000000000000000000000000000000000000454e01000000000000000000000000000000000000000000000000000000001a5e554c"
                            }
                        ],
                        "constructorArguments": "",
                        "name": "sha256hash",
                        "returnParams": [
                            {
                                "name": "hash",
                                "type": "bytes32",
                                "value": "0xe0d53a78bb7722c553502ca9fb33401269569af116cc44484692edca06e2b2c4"
                            }
                        ],
                        "signature": "sha256hash(bytes)"
                    },
                    "errorInfo": "",
                    "fromAddress": "0x8d12a197cb00d4747a1fe03395095ce2a5cc6819",
                    "gasUsed": 132,
                    "id": 1,
                    "methodDecoded": true,
                    "operation": "CALL",
                    "output": "0xe0d53a78bb7722c553502ca9fb33401269569af116cc44484692edca06e2b2c4",
                    "revert": false,
                    "revertMessage": "",
                    "selector": "0x8d12a197",
                    "status": true,
                    "value": "0"
                },
                "nodeType": 0
            },
            "2": {
                "invocation": {
                    "address": "0x0000000000000000000000000000000000000001",
                    "callData": "0x4d00088059931a0ef293779e7545f2502928bc037a4e7f781cc6828e000000000000000000000000000000000000000000000000000000000000001b3f6b859ccb21beb99df597890dd0e026cef3fe4c0c1e3e6fcfd83d7533f358293fba26e1d8d93c67152b6cfaffc8cf8dc9eadd8abc4a220083efdc3f3045d00b",
                    "decodedMethod": {
                        "callParams": [
                            {
                                "name": "hash",
                                "type": "bytes32",
                                "value": "0xe7e738d04d00088059931a0ef293779e7545f2502928bc037a4e7f781cc6828e"
                            },
                            {
                                "name": "v",
                                "type": "uint256",
                                "value": "27"
                            },
                            {
                                "name": "r",
                                "type": "bytes32",
                                "value": "0x3f6b859ccb21beb99df597890dd0e026cef3fe4c0c1e3e6fcfd83d7533f35829"
                            },
                            {
                                "name": "s",
                                "type": "bytes32",
                                "value": "0x3fba26e1d8d93c67152b6cfaffc8cf8dc9eadd8abc4a220083efdc3f3045d00b"
                            }
                        ],
                        "constructorArguments": "",
                        "name": "ecrecover",
                        "returnParams": [
                            {
                                "name": "",
                                "type": "address",
                                "value": "0x07c26bccbef5ba6c7bc2e3f84458745a26a03439"
                            }
                        ],
                        "signature": "ecrecover(bytes32,uint256,bytes32,bytes32)"
                    },
                    "errorInfo": "",
                    "fromAddress": "0x8d12a197cb00d4747a1fe03395095ce2a5cc6819",
                    "gasUsed": 3000,
                    "id": 2,
                    "methodDecoded": true,
                    "operation": "CALL",
                    "output": "0x00000000000000000000000007c26bccbef5ba6c7bc2e3f84458745a26a03439",
                    "revert": false,
                    "revertMessage": "",
                    "selector": "0xe7e738d0",
                    "status": true,
                    "value": "0"
                },
                "nodeType": 0
            },
            "3": {
                "event": {
                    "contract": "0x8d12a197cb00d4747a1fe03395095ce2a5cc6819",
                    "decodedLog": {
                        "name": "Trade",
                        "params": [
                            {
                                "name": "tokenGet",
                                "type": "address",
                                "value": "0x14839bf22810f09fb163af69bd21bd5476f445cd"
                            },
                            {
                                "name": "amountGet",
                                "type": "uint256",
                                "value": "23,485,000,000,000,000,000,000"
                            },
                            {
                                "name": "tokenGive",
                                "type": "address",
                                "value": "0x0000000000000000000000000000000000000000"
                            },
                            {
                                "name": "amountGive",
                                "type": "uint256",
                                "value": "48,379,102,348,500,000,000"
                            },
                            {
                                "name": "get",
                                "type": "address",
                                "value": "0x07c26bccbef5ba6c7bc2e3f84458745a26a03439"
                            },
                            {
                                "name": "give",
                                "type": "address",
                                "value": "0x82e4d78c6c62d461251fa5a1d4deb9f0fe378e30"
                            }
                        ],
                        "signature": "Trade(address,uint256,address,uint256,address,address)"
                    },
                    "id": 3,
                    "logData": "0x00000000000000000000000014839bf22810f09fb163af69bd21bd5476f445cd0000000000000000000000000000000000000000000004f91fd8bf2320d4000000000000000000000000000000000000000000000000000000000000000000000000000000000000000000000000000000000000000000029f651943329bdd0000000000000000000000000007c26bccbef5ba6c7bc2e3f84458745a26a0343900000000000000000000000082e4d78c6c62d461251fa5a1d4deb9f0fe378e30",
                    "logDecoded": true,
                    "operation": "EVENT",
                    "revert": false,
                    "status": true,
                    "topics": [
                        "0x6effdda786735d5033bfad5f53e5131abcced9e52be6c507b62d639685fbed6d"
                    ]
                },
                "nodeType": 1
            }
        },
        "gasFlame": [
            {
                "children": [
                    {
                        "children": [
                            {
                                "children": [],
                                "depth": 0,
                                "name": "Initial Gas",
                                "value": 31320
                            },
                            {
                                "children": [
                                    {
                                        "children": [],
                                        "depth": 1,
                                        "name": "sha256hash",
                                        "value": 132
                                    },
                                    {
                                        "children": [],
                                        "depth": 1,
                                        "name": "ecrecover",
                                        "value": 3000
                                    }
                                ],
                                "depth": 0,
                                "name": "Executed Gas",
                                "value": 76986
                            }
                        ],
                        "depth": -1,
                        "name": "Actual Gas Used",
                        "value": 108306
                    },
                    {
                        "children": [],
                        "depth": -1,
                        "name": "Refunded Gas",
                        "value": 0
                    }
                ],
                "depth": -2,
                "name": "Total Gas",
                "value": 108306
            }
        ],
        "isConfirmed": true,
        "mainTrace": [
            {
                "children": [
                    {
                        "children": [
                            {
                                "children": [],
                                "depth": 1,
                                "id": 1,
                                "order": 1
                            },
                            {
                                "children": [],
                                "depth": 1,
                                "id": 2,
                                "order": 2
                            },
                            {
                                "children": [],
                                "depth": 1,
                                "id": 3,
                                "order": 3
                            }
                        ],
                        "depth": 0,
                        "id": 0,
                        "order": 0
                    }
                ],
                "depth": -1,
                "id": -1,
                "order": -1
            }
        ],
        "mainTraceNodeCount": 4,
        "parentIdMap": {
            "0": -1,
            "1": 0,
            "2": 0,
            "3": 0
        },
        "tidyTrace": [
            {
                "children": [
                    {
                        "children": [
                            {
                                "children": [],
                                "depth": 1,
                                "id": 1,
                                "order": 1
                            },
                            {
                                "children": [],
                                "depth": 1,
                                "id": 2,
                                "order": 2
                            },
                            {
                                "children": [],
                                "depth": 1,
                                "id": 3,
                                "order": 3
                            }
                        ],
                        "depth": 0,
                        "id": 0,
                        "order": 0
                    }
                ],
                "depth": -1,
                "id": -1,
                "order": -1
            }
        ],
        "tidyTraceNodeCount": 4
    },
    "state_change": {
        "stateChanges": [
            {
                "address": "0x8d12a197cb00d4747a1fe03395095ce2a5cc6819",
                "erc": "",
                "slots": [
                    {
                        "current": "0x0000000000000000000000000000000000000000000004f91fd8bf2320d40000",
                        "key": "0x1b234ae2b20f07edbbf814e2919b92dc22bc7c10563074c25c52580c52cf8b2c",
                        "prev": "0x0000000000000000000000000000000000000000000000000000000000000000"
                    },
                    {
                        "current": "0x000000000000000000000000000000000000000000000063546ccb056e3ac038",
                        "key": "0x2854cf2e93dd3b87197d864f702b3243f43ea3e6d6ae695db21d1d9a5057eb55",
                        "prev": "0x00000000000000000000000000000000000000000000005f82aa59cecc154038"
                    },
                    {
                        "current": "0x00000000000000000000000000000000000000000000000000033068c6ca2300",
                        "key": "0xbf3fa6375e91e263f51606ecd710ee57619652ae3c9e2fb9f849abb2222234af",
                        "prev": "0x0000000000000000000000000000000000000000000000029f6849abf9660000"
                    },
                    {
                        "current": "0x000000000000000000000000000000000000000000000007452568af0a71ec7e",
                        "key": "0x7c23f0b10ebc707b089cd1616b7bd7a7e98a85f4461c2d1d178367d18d27d1c1",
                        "prev": "0x000000000000000000000000000000000000000000000004a5c04f6bd7d60f7e"
                    },
                    {
                        "current": "0x0000000000000000000000000000000000000000000004f91fd8bf2320d40000",
                        "key": "0x1b374f5d4fb78238aaed454d040d60903a7f32f6f756babc9e8f2e87d594aaac",
                        "prev": "0x0000000000000000000000000000000000000000000000000000000000000000"
                    },
                    {
                        "current": "0x0000000000000000000000000000000000000000000003333a305c6df687acf4",
                        "key": "0x7f542ea953b08e6794cd3f8cabeb75e28aaa6ed7be0d31a7b31ed3376e47007a",
                        "prev": "0x0000000000000000000000000000000000000000000008302bcb8cc7b9812cf4"
                    }
                ],
                "storageVariables": []
            }
        ]
    }
}