{
    "balance_change": {
        "balanceChanges": [
            {
                "account": "0x2f8575db778de75a19b3516685d51d0333e8f230",
                "assets": [
                    {
                        "address": "0xd5b0f341cb6db2a8022e1e1c13dc4404870a510c",
                        "amount": "1",
                        "iconUrl": "",
                        "isERC1155": false,
                        "isERC721": true,
                        "sign": false,
                        "tokenID": "77404534376389532222969750347497767754387895119403596771918568497470",
                        "value": ""
                    }
                ]
            },
            {
                "account": "0xf5beb1a9cd101809ba0027436aae19d48b02d8a7",
                "assets": [
                    {
                        "address": "0xd5b0f341cb6db2a8022e1e1c13dc4404870a510c",
                        "amount": "1",
                        "iconUrl": "",
                        "isERC1155": false,
                        "isERC721": true,
                        "sign": true,
                        "tokenID": "77404534376389532222969750347497767754387895119403596771918568497470",
                        "value": ""
                    }
                ]
            }
        ]
    },
    "profile": {
        "basic_info": {
            "baseFee": "19.823262758",
            "blockNumber": 19504590,
            "callData": "0x42842e0e0000000000000000000000002f8575db778de75a19b3516685d51d0333e8f230000000000000000000000000f5beb1a9cd101809ba0027436aae19d48b02d8a700000002df00000000000000000000000000000000000000000000000000213e",
            "debugEnable": true,
            "errorInfo": "",
            "eventCount": 1,
            "feeRecipient": "0x4838b106fce9647bdf1e7877bf73ce8b0bad5f97",
            "formatValue": "0",
            "gasLimit": 113524,
            "gasPrice": "20.118",
            "gasUsed": 89212,
            "intTxnCount": 2,
            "internalRevert": false,
            "internalRevertMessage": "",
            "isContractCreation": false,
            "isFlashloan": false,
            "maxFee": "20.118",
            "nonce": 2,
            "overwritedBlockNumber": -1,
            "priorityFee": "0.5",
            "receiver": "0xd5b0f341cb6db2a8022e1e1c13dc4404870a510c",
            "revertMessage": "",
            "sender": "0x2f8575db778de75a19b3516685d51d0333e8f230",
            "simulationEnable": true,
            "sourceTxnHash": "0x05fd82c7c4bee1cd4b5fe31d24868704d1ff1abadb558855f96d422a97d85c01",
            "status": true,
            "timestamp": "2024-03-24T13:06:23Z",
            "transactionFee": "0.001794767016",
            "txnHash": "0x05fd82c7c4bee1cd4b5fe31d24868704d1ff1abadb558855f96d422a97d85c01",
            "txnIndex": 28,
            "type": 2,
            "value": "0"
        },
        "fund_flow": [
            {
                "amount": "1",
                "from": "0x2f8575db778de75a19b3516685d51d0333e8f230",
                "id": 1,
                "isERC1155": false,
                "isERC721": true,
                "isReverted": false,
                "order": 1,
                "to": "0xf5beb1a9cd101809ba0027436aae19d48b02d8a7",
                "token": "0xd5b0f341cb6db2a8022e1e1c13dc4404870a510c",
                "tokenID": "77404534376389532222969750347497767754387895119403596771918568497470"
            }
        ],
        "token_infos": [
            {
                "address": "0xc02aaa39b223fe8d0a0e5c4f27ead9083c756cc2",
                "decimals": 18
            },
            {
                "address": "0xeeeeeeeeeeeeeeeeeeeeeeeeeeeeeeeeeeeeeeee",
                "decimals": 18
            }
        ]
    },
    "address_label": {
        "labels": [
            {
                "address": "0x0000000000000000000000000000000000000001",
                "label": "Precompiled"
            },
            {
                "address": "0x0000000000000000000000000000000000000002",
                "label": "Precompiled"
            },
            {
                "address": "0x0000000000000000000000000000000000000003",
                "label": "Precompiled"
            },
            {
                "address": "0x0000000000000000000000000000000000000004",
                "label": "Precompiled"
            },
            {
                "address": "0xeeeeeeeeeeeeeeeeeeeeeeeeeeeeeeeeeeeeeeee",
                "label": "Ether"
            },
            {
                "address": "0xd5b0f341cb6db2a8022e1e1c13dc4404870a510c",
                "label": "Big Time Collection 0 (BT0)"
            }
        ]
    },
    "trace": {
        "accountLabels": null,
        "dataMap": {
            "-1": {
                "invocation": {
                    "address": "0x2f8575db778de75a19b3516685d51d0333e8f230",
                    "callData": "",
                    "decodedMethod": null,
                    "errorInfo": "",
                    "fromAddress": "",
                    "gasUsed": 0,
                    "id": -1,
                    "methodDecoded": false,
                    "operation": "",
                    "output": "",
                    "revert": false,
                    "revertMessage": "",
                    "selector": "",
                    "status": false,
                    "value": ""
                },
                "nodeType": 0
            },
            "0": {
                "invocation": {
                    "address": "0xd5b0f341cb6db2a8022e1e1c13dc4404870a510c",
                    "callData": "0x0000000000000000000000002f8575db778de75a19b3516685d51d0333e8f230000000000000000000000000f5beb1a9cd101809ba0027436aae19d48b02d8a700000002df00000000000000000000000000000000000000000000000000213e",
                    "decodedMethod": {
                        "callParams": [
                            {
                                "name": "from",
                                "type": "address",
                                "value": "0x2f8575db778de75a19b3516685d51d0333e8f230"
                            },
                            {
                                "name": "to",
                                "type": "address",
                                "value": "0xf5beb1a9cd101809ba0027436aae19d48b02d8a7"
                            },
                            {
                                "name": "tokenId",
                                "type": "uint256",
                                "value": "77,404,534,376,389,532,222,969,750,347,497,767,754,387,895,119,403,596,771,918,568,497,470"
                            }
                        ],
                        "constructorArguments": "",
                        "name": "safeTransferFrom",
                        "returnParams": [],
                        "signature": "safeTransferFrom(address,address,uint256)"
                    },
                    "errorInfo": "",
                    "fromAddress": "0x2f8575db778de75a19b3516685d51d0333e8f230",
                    "gasUsed": 89212,
                    "id": 0,
                    "methodDecoded": true,
                    "operation": "CALL",
                    "output": "",
                    "revert": false,
                    "revertMessage": "",
                    "selector": "0x42842e0e",
                    "status": true,
                    "value": "0"
                },
                "nodeType": 0
            },
            "1": {
                "event": {
                    "contract": "0xd5b0f341cb6db2a8022e1e1c13dc4404870a510c",
                    "decodedLog": {
                        "name": "Transfer",
                        "params": [
                            {
                                "name": "from",
                                "type": "address",
                                "value": "0x2f8575db778de75a19b3516685d51d0333e8f230"
                            },
                            {
                                "name": "to",
                                "type": "address",
                                "value": "0xf5beb1a9cd101809ba0027436aae19d48b02d8a7"
                            },
                            {
                                "decimalAvailable": true,
                                "name": "tokenId",
                                "type": "uint256",
                                "value": "77,404,534,376,389,532,222,969,750,347,497,767,754,387,895,119,403,596,771,918,568,497,470"
                            }
                        ],
                        "signature": "Transfer(address,address,uint256)"
                    },
                    "id": 1,
                    "logData": "0x",
                    "logDecoded": true,
                    "operation": "EVENT",
                    "revert": false,
                    "status": true,
                    "topics": [
                        "0xddf252ad1be2c89b69c2b068fc378daa952ba7f163c4a11628f55a4df523b3ef",
                        "0x0000000000000000000000002f8575db778de75a19b3516685d51d0333e8f230",
                        "0x000000000000000000000000f5beb1a9cd101809ba0027436aae19d48b02d8a7",
                        "0x00000002df00000000000000000000000000000000000000000000000000213e"
                    ]
                },
                "nodeType": 1
            },
            "2": {
                "invocation": {
                    "address": "0xf5beb1a9cd101809ba0027436aae19d48b02d8a7",
                    "callData": "0x0000000000000000000000002f8575db778de75a19b3516685d51d0333e8f2300000000000000000000000002f8575db778de75a19b3516685d51d0333e8f23000000002df00000000000000000000000000000000000000000000000000213e00000000000000000000000000000000000000000000000000000000000000800000000000000000000000000000000000000000000000000000000000000000",
                    "decodedMethod": {
                        "callParams": [
                            {
                                "name": "",
                                "type": "address",
                                "value": "0x2f8575db778de75a19b3516685d51d0333e8f230"
                            },
                            {
                                "name": "",
                                "type": "address",
                                "value": "0x2f8575db778de75a19b3516685d51d0333e8f230"
                            },
                            {
                                "name": "",
                                "type": "uint256",
                                "value": "77,404,534,376,389,532,222,969,750,347,497,767,754,387,895,119,403,596,771,918,568,497,470"
                            },
                            {
                                "name": "",
                                "type": "bytes",
                                "value": "0x"
                            }
                        ],
                        "constructorArguments": "",
                        "name": "onERC721Received",
                        "returnParams": [
                            {
                                "name": "",
                                "type": "bytes4",
                                "value": "0x150b7a02"
                            }
                        ],
                        "signature": "onERC721Received(address,address,uint256,bytes)"
                    },
                    "errorInfo": "",
                    "fromAddress": "0xd5b0f341cb6db2a8022e1e1c13dc4404870a510c",
                    "gasUsed": 3434,
                    "id": 2,
                    "methodDecoded": true,
                    "operation": "CALL",
                    "output": "0x150b7a0200000000000000000000000000000000000000000000000000000000",
                    "revert": false,
                    "revertMessage": "",
                    "selector": "0x150b7a02",
                    "status": true,
                    "value": "0"
                },
                "nodeType": 0
            },
            "3": {
                "invocation": {
                    "address": "0xbfac0f451e63d2d639b05bbea3e72318ac5abc09",
                    "callData": "0x0000000000000000000000002f8575db778de75a19b3516685d51d0333e8f2300000000000000000000000002f8575db778de75a19b3516685d51d0333e8f23000000002df00000000000000000000000000000000000000000000000000213e00000000000000000000000000000000000000000000000000000000000000800000000000000000000000000000000000000000000000000000000000000000",
                    "decodedMethod": {
                        "callParams": [
                            {
                                "name": "",
                                "type": "address",
                                "value": "0x2f8575db778de75a19b3516685d51d0333e8f230"
                            },
                            {
                                "name": "",
                                "type": "address",
                                "value": "0x2f8575db778de75a19b3516685d51d0333e8f230"
                            },
                            {
                                "name": "",
                                "type": "uint256",
                                "value": "77,404,534,376,389,532,222,969,750,347,497,767,754,387,895,119,403,596,771,918,568,497,470"
                            },
                            {
                                "name": "",
                                "type": "bytes",
                                "value": "0x"
                            }
                        ],
                        "constructorArguments": "",
                        "name": "onERC721Received",
                        "returnParams": [
                            {
                                "name": "",
                                "type": "bytes4",
                                "value": "0x150b7a02"
                            }
                        ],
                        "signature": "onERC721Received(address,address,uint256,bytes)"
                    },
                    "errorInfo": "",
                    "fromAddress": "0xf5beb1a9cd101809ba0027436aae19d48b02d8a7",
                    "gasUsed": 738,
                    "id": 3,
                    "methodDecoded": true,
                    "operation": "DELEGATECALL",
                    "output": "0x150b7a0200000000000000000000000000000000000000000000000000000000",
                    "revert": false,
                    "revertMessage": "",
                    "selector": "0x150b7a02",
                    "status": true,
                    "value": "0"
                },
                "nodeType": 0
            }
        },
        "gasFlame": [
            {
                "children": [
                    {
                        "children": [
                            {
                                "children": [],
                                "depth": 0,
                                "name": "Initial Gas",
                                "value": 21964
                            },
                            {
                                "children": [
                                    {
                                        "children": [
                                            {
                                                "children": [],
                                                "depth": 2,
                                                "name": "onERC721Received",
                                                "value": 738
                                            }
                                        ],
                                        "depth": 1,
                                        "name": "onERC721Received",
                                        "value": 3434
                                    }
                                ],
                                "depth": 0,
                                "name": "Executed Gas",
                                "value": 72048
                            }
                        ],
                        "depth": -1,
                        "name": "Actual Gas Used",
                        "value": 89212
                    },
                    {
                        "children": [],
                        "depth": -1,
                        "name": "Refunded Gas",
                        "value": 4800
                    }
                ],
                "depth": -2,
                "name": "Total Gas",
                "value": 94012
            }
        ],
        "isConfirmed": true,
        "mainTrace": [
            {
                "children": [
                    {
                        "children": [
                            {
                                "children": [],
                                "depth": 1,
                                "id": 1,
                                "order": 1
                            },
                            {
                                "children": [
                                    {
                                        "children": [],
                                        "depth": 2,
                                        "id": 3,
                                        "order": 3
                                    }
                                ],
                                "depth": 1,
                                "id": 2,
                                "order": 2
                            }
                        ],
                        "depth": 0,
                        "id": 0,
                        "order": 0
                    }
                ],
                "depth": -1,
                "id": -1,
                "order": -1
            }
        ],
        "mainTraceNodeCount": 4,
        "parentIdMap": {
            "0": -1,
            "1": 0,
            "2": 0,
            "3": 2
        },
        "tidyTrace": [
            {
                "children": [
                    {
                        "children": [
                            {
                                "children": [],
                                "depth": 1,
                                "id": 1,
                                "order": 1
                            },
                            {
                                "children": [
                                    {
                                        "children": [],
                                        "depth": 2,
                                        "id": 3,
                                        "order": 3
                                    }
                                ],
                                "depth": 1,
                                "id": 2,
                                "order": 2
                            }
                        ],
                        "depth": 0,
                        "id": 0,
                        "order": 0
                    }
                ],
                "depth": -1,
                "id": -1,
                "order": -1
            }
        ],
        "tidyTraceNodeCount": 4
    },
    "state_change": {
        "stateChanges": [
            {
                "address": "0xd5b0f341cb6db2a8022e1e1c13dc4404870a510c",
                "erc": "ERC-721",
                "slots": [
                    {
                        "current": "0x00000002df00000000000000000000000000000000000000000000000000213e",
                        "key": "0x021ff9a8b52c4a3ca08b7e67479b524ab02b97219dc2916f96ee305a8677f419",
                        "prev": "0x0000000000000000000000000000000000000000000000000000000000000000"
                    },
                    {
                        "current": "0x0000000000000000000000000000000000000000000000000000000000000002",
                        "key": "0xf83f35621642cae8e57e8d848cf87c99431c4b1589000bcd64ecff0df47cef5f",
                        "prev": "0x0000000000000000000000000000000000000000000000000000000000000003"
                    },
                    {
                        "current": "0x0000000000000000000000000000000000000000000000000000000000000213",
                        "key": "0x5e321e7c0ebb5343285f25fc46697f0f5fab39bd8e7a53f97d200f813803d954",
                        "prev": "0x0000000000000000000000000000000000000000000000000000000000000212"
                    },
                    {
                        "current": "0x000000000000000000000000f5beb1a9cd101809ba0027436aae19d48b02d8a7",
                        "key": "0x971ef76055723f9c1df8537a64121188694838f4945b8c0ae13d10e01c276803",
                        "prev": "0x0000000000000000000000002f8575db778de75a19b3516685d51d0333e8f230"
                    },
                    {
                        "current": "0x0000000000000000000000000000000000000000000000000000000000000002",
                        "key": "0x02b0b469120e5569c894956beba72d775d612e5cbc0954764c443f23e1521506",
                        "prev": "0x0000000000000000000000000000000000000000000000000000000000000003"
                    },
                    {
                        "current": "0x0000000000000000000000000000000000000000000000000000000000000000",
                        "key": "0x311cfbf5afe6ef4d6c41fbe0a3a83e543e8ed5bba2128b7870749b611e27609c",
                        "prev": "0x00000002df00000000000000000000000000000000000000000000000000213e"
                    },
                    {
                        "current": "0x0000000000000000000000000000000000000000000000000000000000000212",
                        "key": "0xd25eb2ed80009b66d038377e712aca364e1124b610302d3bc3a907cfaef17e99",
                        "prev": "0x0000000000000000000000000000000000000000000000000000000000000002"
                    },
                    {
                        "current": "0x0000000000000000000000000000000000000000000000000000000000000213",
                        "key": "0xdd9cdfcd3a8538bbbdb834f616e4c4cefe4db774116e3ac5a34f982deef949ee",
                        "prev": "0x0000000000000000000000000000000000000000000000000000000000000212"
                    }
                ],
                "storageVariables": [
                    {
                        "name": "_ownedTokensIndex",
                        "type": "mapping(uint256 => uint256)",
                        "value": {
                            "pairs": [
                                {
                                    "key": "77404534376389532222969750347497767754387895119403596771918568497470",
                                    "value": {
                                        "current": "530",
                                        "prev": "2",
                                        "typeTag": 1
                                    }
                                }
                            ],
                            "typeTag": 4
                        }
                    },
                    {
                        "name": "_ownedTokensCount",
                        "type": "mapping(address => struct Counters.Counter)",
                        "value": {
                            "pairs": [
                                {
                                    "key": "0x2f8575db778de75a19b3516685d51d0333e8f230",
                                    "value": {
                                        "fields": [
                                            {
                                                "name": "_value",
                                                "type": "uint256",
                                                "value": {
                                                    "current": "2",
                                                    "prev": "3",
                                                    "typeTag": 1
                                                }
                                            }
                                        ],
                                        "typeTag": 3
                                    }
                                },
                                {
                                    "key": "0xf5beb1a9cd101809ba0027436aae19d48b02d8a7",
                                    "value": {
                                        "fields": [
                                            {
                                                "name": "_value",
                                                "type": "uint256",
                                                "value": {
                                                    "current": "531",
                                                    "prev": "530",
                                                    "typeTag": 1
                                                }
                                            }
                                        ],
                                        "typeTag": 3
                                    }
                                }
                            ],
                            "typeTag": 4
                        }
                    },
                    {
                        "name": "_tokenOwner",
                        "type": "mapping(uint256 => address)",
                        "value": {
                            "pairs": [
                                {
                                    "key": "77404534376389532222969750347497767754387895119403596771918568497470",
                                    "value": {
                                        "current": "0xf5beb1a9cd101809ba0027436aae19d48b02d8a7",
                                        "prev": "0x2f8575db778de75a19b3516685d51d0333e8f230",
                                        "typeTag": 1
                                    }
                                }
                            ],
                            "typeTag": 4
                        }
                    },
                    {
                        "name": "_ownedTokens",
                        "type": "mapping(address => uint256[])",
                        "value": {
                            "pairs": [
                                {
                                    "key": "0xf5beb1a9cd101809ba0027436aae19d48b02d8a7",
                                    "value": {
                                        "elemType": "uint256",
                                        "elems": [
                                            {
                                                "index": 530,
                                                "value": {
                                                    "current": "77404534376389532222969750347497767754387895119403596771918568497470",
                                                    "prev": "0",
                                                    "typeTag": 1
                                                }
                                            }
                                        ],
                                        "typeTag": 2
                                    }
                                }
                            ],
                            "typeTag": 4
                        }
                    }
                ]
            }
        ]
    }
}