{
    "balance_change": {
        "balanceChanges": [
            {
                "account": "0x670bb2589304e973b7a5bf6ac5b542e59434b79d",
                "assets": [
                    {
                        "address": "0xeeeeeeeeeeeeeeeeeeeeeeeeeeeeeeeeeeeeeeee",
                        "amount": "0.01",
                        "iconUrl": "https://assets.blocksec.com/image/1663669189317-3.png",
                        "isERC1155": false,
                        "isERC721": false,
                        "sign": false,
                        "value": "15.506300000000001091"
                    },
                    {
                        "address": "0x526d490899873cc4695b58789b5c6d63be422577",
                        "amount": "1",
                        "iconUrl": "",
                        "isERC1155": false,
                        "isERC721": true,
                        "sign": true,
                        "tokenID": "764",
                        "value": ""
                    },
                    {
                        "address": "0x526d490899873cc4695b58789b5c6d63be422577",
                        "amount": "1",
                        "iconUrl": "",
                        "isERC1155": false,
                        "isERC721": true,
                        "sign": true,
                        "tokenID": "765",
                        "value": ""
                    }
                ]
            },
            {
                "account": "0x526d490899873cc4695b58789b5c6d63be422577",
                "assets": [
                    {
                        "address": "0xeeeeeeeeeeeeeeeeeeeeeeeeeeeeeeeeeeeeeeee",
                        "amount": "0.01",
                        "iconUrl": "https://assets.blocksec.com/image/1663669189317-3.png",
                        "isERC1155": false,
                        "isERC721": false,
                        "sign": true,
                        "value": "15.506300000000001091"
                    }
                ]
            },
            {
                "account": "0x0000000000000000000000000000000000000000",
                "assets": [
                    {
                        "address": "0x526d490899873cc4695b58789b5c6d63be422577",
                        "amount": "1",
                        "iconUrl": "",
                        "isERC1155": false,
                        "isERC721": true,
                        "sign": false,
                        "tokenID": "764",
                        "value": ""
                    },
                    {
                        "address": "0x526d490899873cc4695b58789b5c6d63be422577",
                        "amount": "1",
                        "iconUrl": "",
                        "isERC1155": false,
                        "isERC721": true,
                        "sign": false,
                        "tokenID": "765",
                        "value": ""
                    }
                ]
            }
        ]
    },
    "profile": {
        "basic_info": {
            "baseFee": "34.080232634",
            "blockNumber": 16414155,
            "callData": "0x93c7efbb00000000000000000000000000000000000000000000000000000000000000020000000000000000000000000000000000000000000000000000000000000040000000000000000000000000000000000000000000000000000000000000000dd8709620d7b02c5ddd62960817283b0262592c68ebfc97647fbbd63a90cc511447669affe9ea0b8277b83345ed75e1628915742875c3d1dd18cb40e22a641dc261b64bf195a135d9eda294babfe99a46699223361f381363188891533e0469267bb873b8041a8e8289f1170dfdcb676019d784032017d69fc1560abebe0141d9317c29bc906297ed75382a9685bbe1b1886dca9711922b7c25c4181855c89e1a313454c5a3541664e960199016c2ee336cd1608e99e48802a54dea0e7fb949bb9e22235230be4f6e6d23ad2d58c6ec1b3cf39832ab4c038cf36b0f5b9dcc3f0318d1fa18ed15af90300afe493f7630af381ef11a5f03255f9c5403c30d0a45a3c468045aea0ee4f1dc151523a401d0f73c10ad798f185583ff3594f36c23024025652c1512f9cf9d6c47484b757e343b8083952888d95044d13fcd73d2f6c4a637b30dbe097705d2ae113e5e957de571181a81b4d761bee24a556e144926049b6ac85ff8c455833a83c13562972d8645cf78a3fafdf583f07da02d175114d935b49934c41f736bf99a834cb7919248b6586f1ae120a809ef4135d627b6cd2614",
            "debugEnable": true,
            "errorInfo": "",
            "eventCount": 2,
            "feeRecipient": "0x95222290dd7278aa3ddd389cc1e1d165cc4bafe5",
            "formatValue": "0.01",
            "gasLimit": 132863,
            "gasPrice": "35.580232634",
            "gasUsed": 132863,
            "intTxnCount": 0,
            "internalRevert": false,
            "internalRevertMessage": "",
            "isContractCreation": false,
            "isFlashloan": false,
            "maxFee": "47.753024091",
            "nonce": 61,
            "overwritedBlockNumber": -1,
            "priorityFee": "1.5",
            "receiver": "0x526d490899873cc4695b58789b5c6d63be422577",
            "revertMessage": "",
            "sender": "0x670bb2589304e973b7a5bf6ac5b542e59434b79d",
            "simulationEnable": true,
            "sourceTxnHash": "0x0634bed849e100a125340a6dbaaad026d31d0fb469e8301f507f528a1284506a",
            "status": true,
            "timestamp": "2023-01-15T19:01:47Z",
            "transactionFee": "0.004727296448451142",
            "txnHash": "0x0634bed849e100a125340a6dbaaad026d31d0fb469e8301f507f528a1284506a",
            "txnIndex": 78,
            "type": 2,
            "value": "10000000000000000"
        },
        "fund_flow": [
            {
                "amount": "0.01",
                "from": "0x670bb2589304e973b7a5bf6ac5b542e59434b79d",
                "id": 1,
                "isERC1155": false,
                "isERC721": false,
                "isReverted": false,
                "order": 1,
                "to": "0x526d490899873cc4695b58789b5c6d63be422577",
                "token": "0xeeeeeeeeeeeeeeeeeeeeeeeeeeeeeeeeeeeeeeee"
            },
            {
                "amount": "1",
                "from": "0x0000000000000000000000000000000000000000",
                "id": 2,
                "isERC1155": false,
                "isERC721": true,
                "isReverted": false,
                "order": 2,
                "to": "0x670bb2589304e973b7a5bf6ac5b542e59434b79d",
                "token": "0x526d490899873cc4695b58789b5c6d63be422577",
                "tokenID": "764"
            },
            {
                "amount": "1",
                "from": "0x0000000000000000000000000000000000000000",
                "id": 3,
                "isERC1155": false,
                "isERC721": true,
                "isReverted": false,
                "order": 3,
                "to": "0x670bb2589304e973b7a5bf6ac5b542e59434b79d",
                "token": "0x526d490899873cc4695b58789b5c6d63be422577",
                "tokenID": "765"
            }
        ],
        "token_infos": [
            {
                "address": "0xc02aaa39b223fe8d0a0e5c4f27ead9083c756cc2",
                "decimals": 18
            },
            {
                "address": "0xeeeeeeeeeeeeeeeeeeeeeeeeeeeeeeeeeeeeeeee",
                "decimals": 18
            }
        ]
    },
    "address_label": {
        "labels": [
            {
                "address": "0xeeeeeeeeeeeeeeeeeeeeeeeeeeeeeeeeeeeeeeee",
                "label": "Ether"
            },
            {
                "address": "0x526d490899873cc4695b58789b5c6d63be422577",
                "label": "WayToku (WTOKU)"
            },
            {
                "address": "0x0000000000000000000000000000000000000001",
                "label": "Precompiled"
            },
            {
                "address": "0x0000000000000000000000000000000000000002",
                "label": "Precompiled"
            },
            {
                "address": "0x0000000000000000000000000000000000000003",
                "label": "Precompiled"
            },
            {
                "address": "0x0000000000000000000000000000000000000004",
                "label": "Precompiled"
            }
        ]
    },
    "trace": {
        "accountLabels": null,
        "dataMap": {
            "-1": {
                "invocation": {
                    "address": "0x670bb2589304e973b7a5bf6ac5b542e59434b79d",
                    "callData": "",
                    "decodedMethod": null,
                    "errorInfo": "",
                    "fromAddress": "",
                    "gasUsed": 0,
                    "id": -1,
                    "methodDecoded": false,
                    "operation": "",
                    "output": "",
                    "revert": false,
                    "revertMessage": "",
                    "selector": "",
                    "status": false,
                    "value": ""
                },
                "nodeType": 0
            },
            "0": {
                "invocation": {
                    "address": "0x526d490899873cc4695b58789b5c6d63be422577",
                    "callData": "0x00000000000000000000000000000000000000000000000000000000000000020000000000000000000000000000000000000000000000000000000000000040000000000000000000000000000000000000000000000000000000000000000dd8709620d7b02c5ddd62960817283b0262592c68ebfc97647fbbd63a90cc511447669affe9ea0b8277b83345ed75e1628915742875c3d1dd18cb40e22a641dc261b64bf195a135d9eda294babfe99a46699223361f381363188891533e0469267bb873b8041a8e8289f1170dfdcb676019d784032017d69fc1560abebe0141d9317c29bc906297ed75382a9685bbe1b1886dca9711922b7c25c4181855c89e1a313454c5a3541664e960199016c2ee336cd1608e99e48802a54dea0e7fb949bb9e22235230be4f6e6d23ad2d58c6ec1b3cf39832ab4c038cf36b0f5b9dcc3f0318d1fa18ed15af90300afe493f7630af381ef11a5f03255f9c5403c30d0a45a3c468045aea0ee4f1dc151523a401d0f73c10ad798f185583ff3594f36c23024025652c1512f9cf9d6c47484b757e343b8083952888d95044d13fcd73d2f6c4a637b30dbe097705d2ae113e5e957de571181a81b4d761bee24a556e144926049b6ac85ff8c455833a83c13562972d8645cf78a3fafdf583f07da02d175114d935b49934c41f736bf99a834cb7919248b6586f1ae120a809ef4135d627b6cd2614",
                    "decodedMethod": {
                        "callParams": [
                            {
                                "name": "_mintAmount",
                                "type": "uint256",
                                "value": "2"
                            },
                            {
                                "name": "_merkleProof",
                                "type": "bytes32[]",
                                "value": [
                                    "0xd8709620d7b02c5ddd62960817283b0262592c68ebfc97647fbbd63a90cc5114",
                                    "0x47669affe9ea0b8277b83345ed75e1628915742875c3d1dd18cb40e22a641dc2",
                                    "0x61b64bf195a135d9eda294babfe99a46699223361f381363188891533e046926",
                                    "0x7bb873b8041a8e8289f1170dfdcb676019d784032017d69fc1560abebe0141d9",
                                    "0x317c29bc906297ed75382a9685bbe1b1886dca9711922b7c25c4181855c89e1a",
                                    "0x313454c5a3541664e960199016c2ee336cd1608e99e48802a54dea0e7fb949bb",
                                    "0x9e22235230be4f6e6d23ad2d58c6ec1b3cf39832ab4c038cf36b0f5b9dcc3f03",
                                    "0x18d1fa18ed15af90300afe493f7630af381ef11a5f03255f9c5403c30d0a45a3",
                                    "0xc468045aea0ee4f1dc151523a401d0f73c10ad798f185583ff3594f36c230240",
                                    "0x25652c1512f9cf9d6c47484b757e343b8083952888d95044d13fcd73d2f6c4a6",
                                    "0x37b30dbe097705d2ae113e5e957de571181a81b4d761bee24a556e144926049b",
                                    "0x6ac85ff8c455833a83c13562972d8645cf78a3fafdf583f07da02d175114d935",
                                    "0xb49934c41f736bf99a834cb7919248b6586f1ae120a809ef4135d627b6cd2614"
                                ]
                            }
                        ],
                        "constructorArguments": "",
                        "name": "WLmint",
                        "returnParams": [],
                        "signature": "WLmint(uint256,bytes32[])"
                    },
                    "errorInfo": "",
                    "fromAddress": "0x670bb2589304e973b7a5bf6ac5b542e59434b79d",
                    "gasUsed": 132863,
                    "id": 0,
                    "methodDecoded": true,
                    "operation": "CALL",
                    "output": "",
                    "revert": false,
                    "revertMessage": "",
                    "selector": "0x93c7efbb",
                    "status": true,
                    "value": "0.01"
                },
                "nodeType": 0
            },
            "1": {
                "event": {
                    "contract": "0x526d490899873cc4695b58789b5c6d63be422577",
                    "decodedLog": {
                        "name": "Transfer",
                        "params": [
                            {
                                "name": "from",
                                "type": "address",
                                "value": "0x0000000000000000000000000000000000000000"
                            },
                            {
                                "name": "to",
                                "type": "address",
                                "value": "0x670bb2589304e973b7a5bf6ac5b542e59434b79d"
                            },
                            {
                                "decimalAvailable": true,
                                "name": "tokenId",
                                "type": "uint256",
                                "value": "764"
                            }
                        ],
                        "signature": "Transfer(address,address,uint256)"
                    },
                    "id": 1,
                    "logData": "0x",
                    "logDecoded": true,
                    "operation": "EVENT",
                    "revert": false,
                    "status": true,
                    "topics": [
                        "0xddf252ad1be2c89b69c2b068fc378daa952ba7f163c4a11628f55a4df523b3ef",
                        "0x0000000000000000000000000000000000000000000000000000000000000000",
                        "0x000000000000000000000000670bb2589304e973b7a5bf6ac5b542e59434b79d",
                        "0x00000000000000000000000000000000000000000000000000000000000002fc"
                    ]
                },
                "nodeType": 1
            },
            "2": {
                "event": {
                    "contract": "0x526d490899873cc4695b58789b5c6d63be422577",
                    "decodedLog": {
                        "name": "Transfer",
                        "params": [
                            {
                                "name": "from",
                                "type": "address",
                                "value": "0x0000000000000000000000000000000000000000"
                            },
                            {
                                "name": "to",
                                "type": "address",
                                "value": "0x670bb2589304e973b7a5bf6ac5b542e59434b79d"
                            },
                            {
                                "decimalAvailable": true,
                                "name": "tokenId",
                                "type": "uint256",
                                "value": "765"
                            }
                        ],
                        "signature": "Transfer(address,address,uint256)"
                    },
                    "id": 2,
                    "logData": "0x",
                    "logDecoded": true,
                    "operation": "EVENT",
                    "revert": false,
                    "status": true,
                    "topics": [
                        "0xddf252ad1be2c89b69c2b068fc378daa952ba7f163c4a11628f55a4df523b3ef",
                        "0x0000000000000000000000000000000000000000000000000000000000000000",
                        "0x000000000000000000000000670bb2589304e973b7a5bf6ac5b542e59434b79d",
                        "0x00000000000000000000000000000000000000000000000000000000000002fd"
                    ]
                },
                "nodeType": 1
            }
        },
        "gasFlame": [
            {
                "children": [
                    {
                        "children": [
                            {
                                "children": [],
                                "depth": 0,
                                "name": "Initial Gas",
                                "value": 28140
                            },
                            {
                                "children": [],
                                "depth": 0,
                                "name": "Executed Gas",
                                "value": 104723
                            }
                        ],
                        "depth": -1,
                        "name": "Actual Gas Used",
                        "value": 132863
                    },
                    {
                        "children": [],
                        "depth": -1,
                        "name": "Refunded Gas",
                        "value": 0
                    }
                ],
                "depth": -2,
                "name": "Total Gas",
                "value": 132863
            }
        ],
        "isConfirmed": true,
        "mainTrace": [
            {
                "children": [
                    {
                        "children": [
                            {
                                "children": [],
                                "depth": 1,
                                "id": 1,
                                "order": 1
                            },
                            {
                                "children": [],
                                "depth": 1,
                                "id": 2,
                                "order": 2
                            }
                        ],
                        "depth": 0,
                        "id": 0,
                        "order": 0
                    }
                ],
                "depth": -1,
                "id": -1,
                "order": -1
            }
        ],
        "mainTraceNodeCount": 3,
        "parentIdMap": {
            "0": -1,
            "1": 0,
            "2": 0
        },
        "tidyTrace": [
            {
                "children": [
                    {
                        "children": [
                            {
                                "children": [],
                                "depth": 1,
                                "id": 1,
                                "order": 1
                            },
                            {
                                "children": [],
                                "depth": 1,
                                "id": 2,
                                "order": 2
                            }
                        ],
                        "depth": 0,
                        "id": 0,
                        "order": 0
                    }
                ],
                "depth": -1,
                "id": -1,
                "order": -1
            }
        ],
        "tidyTraceNodeCount": 3
    },
    "state_change": {
        "stateChanges": [
            {
                "address": "0x526d490899873cc4695b58789b5c6d63be422577",
                "erc": "ERC-721",
                "slots": [
                    {
                        "current": "0x0000000000000000000000000000000000000000000000020000000000000002",
                        "key": "0x06958d3d0e1b083ff8abfa54d2a2e61a588f172d407b31639d0105025dc70917",
                        "prev": "0x0000000000000000000000000000000000000000000000000000000000000000"
                    },
                    {
                        "current": "0x000000000000000063c44d9b670bb2589304e973b7a5bf6ac5b542e59434b79d",
                        "key": "0xdbafd9c2730870799080c39ef6561668027cf49ad1a0c8b998445228cb6924ce",
                        "prev": "0x0000000000000000000000000000000000000000000000000000000000000000"
                    },
                    {
                        "current": "0x00000000000000000000000000000000000000000000000000000000000002fe",
                        "key": "0x0000000000000000000000000000000000000000000000000000000000000000",
                        "prev": "0x00000000000000000000000000000000000000000000000000000000000002fc"
                    },
                    {
                        "current": "0x0000000000000000000000000000000000000000000000000000000000000002",
                        "key": "0xc66ad5e34112d8e8924469d2fb0687b89d474b7d9c2c423687b8925bbd4a1095",
                        "prev": "0x0000000000000000000000000000000000000000000000000000000000000000"
                    },
                    {
                        "current": "0x00000000000000000000000000000000000000000000000000000000000002d5",
                        "key": "0x000000000000000000000000000000000000000000000000000000000000001c",
                        "prev": "0x00000000000000000000000000000000000000000000000000000000000002d3"
                    }
                ],
                "storageVariables": [
                    {
                        "name": "_packedAddressData",
                        "type": "mapping(address => uint256)",
                        "value": {
                            "pairs": [
                                {
                                    "key": "0x670bb2589304e973b7a5bf6ac5b542e59434b79d",
                                    "value": {
                                        "current": "36893488147419103234",
                                        "prev": "0",
                                        "typeTag": 1
                                    }
                                }
                            ],
                            "typeTag": 4
                        }
                    },
                    {
                        "name": "_packedOwnerships",
                        "type": "mapping(uint256 => uint256)",
                        "value": {
                            "pairs": [
                                {
                                    "key": "764",
                                    "value": {
                                        "current": "2446275043348490836921992864449640450997555251842724968349",
                                        "prev": "0",
                                        "typeTag": 1
                                    }
                                }
                            ],
                            "typeTag": 4
                        }
                    },
                    {
                        "name": "_currentIndex",
                        "type": "uint256",
                        "value": {
                            "current": "766",
                            "prev": "764",
                            "typeTag": 1
                        }
                    },
                    {
                        "name": "wlMintCount",
                        "type": "mapping(address => uint256)",
                        "value": {
                            "pairs": [
                                {
                                    "key": "0x670bb2589304e973b7a5bf6ac5b542e59434b79d",
                                    "value": {
                                        "current": "2",
                                        "prev": "0",
                                        "typeTag": 1
                                    }
                                }
                            ],
                            "typeTag": 4
                        }
                    },
                    {
                        "name": "wlMinted",
                        "type": "uint256",
                        "value": {
                            "current": "725",
                            "prev": "723",
                            "typeTag": 1
                        }
                    }
                ]
            }
        ]
    }
}