{
    "balance_change": {
        "balanceChanges": [
            {
                "account": "0xc56e2a3259df9b1c8dff2cc832af2aba4533693e",
                "assets": [
                    {
                        "address": "0xa68920f6d3c996ac3c232e4e93914e9d76150735",
                        "amount": "100",
                        "iconUrl": "",
                        "isERC1155": false,
                        "isERC721": false,
                        "sign": false,
                        "value": ""
                    }
                ]
            },
            {
                "account": "0x0736f9002fbb39924ba0dbaf39c3058c392baa42",
                "assets": [
                    {
                        "address": "0xa68920f6d3c996ac3c232e4e93914e9d76150735",
                        "amount": "100",
                        "iconUrl": "",
                        "isERC1155": false,
                        "isERC721": false,
                        "sign": true,
                        "value": ""
                    }
                ]
            }
        ]
    },
    "profile": {
        "basic_info": {
            "baseFee": "",
            "blockNumber": 5798502,
            "callData": "0xa9059cbb0000000000000000000000000736f9002fbb39924ba0dbaf39c3058c392baa420000000000000000000000000000000000000000000000056bc75e2d63100000",
            "debugEnable": true,
            "errorInfo": "",
            "eventCount": 1,
            "feeRecipient": "0xea674fdde714fd979de3edf0f56aa9716b898ec8",
            "formatValue": "0",
            "gasLimit": 60000,
            "gasPrice": "7.5",
            "gasUsed": 22820,
            "intTxnCount": 0,
            "internalRevert": false,
            "internalRevertMessage": "",
            "isContractCreation": false,
            "isFlashloan": false,
            "maxFee": "",
            "nonce": 0,
            "overwritedBlockNumber": -1,
            "priorityFee": "",
            "receiver": "0xa68920f6d3c996ac3c232e4e93914e9d76150735",
            "revertMessage": "",
            "sender": "0xc56e2a3259df9b1c8dff2cc832af2aba4533693e",
            "simulationEnable": true,
            "sourceTxnHash": "0x06242eb8d342e1988c4757f975daec10c15ac86a69626006cecd5d2a6155763f",
            "status": true,
            "timestamp": "2018-06-16T10:30:40Z",
            "transactionFee": "0.00017115",
            "txnHash": "0x06242eb8d342e1988c4757f975daec10c15ac86a69626006cecd5d2a6155763f",
            "txnIndex": 131,
            "type": 0,
            "value": "0"
        },
        "fund_flow": [
            {
                "amount": "100",
                "from": "0xc56e2a3259df9b1c8dff2cc832af2aba4533693e",
                "id": 1,
                "isERC1155": false,
                "isERC721": false,
                "isReverted": false,
                "order": 1,
                "to": "0x0736f9002fbb39924ba0dbaf39c3058c392baa42",
                "token": "0xa68920f6d3c996ac3c232e4e93914e9d76150735"
            }
        ],
        "token_infos": [
            {
                "address": "0xc02aaa39b223fe8d0a0e5c4f27ead9083c756cc2",
                "decimals": 18
            },
            {
                "address": "0xeeeeeeeeeeeeeeeeeeeeeeeeeeeeeeeeeeeeeeee",
                "decimals": 18
            },
            {
                "address": "0xa68920f6d3c996ac3c232e4e93914e9d76150735",
                "decimals": 18
            }
        ]
    },
    "address_label": {
        "labels": [
            {
                "address": "0x0000000000000000000000000000000000000003",
                "label": "Precompiled"
            },
            {
                "address": "0x0000000000000000000000000000000000000004",
                "label": "Precompiled"
            },
            {
                "address": "0xeeeeeeeeeeeeeeeeeeeeeeeeeeeeeeeeeeeeeeee",
                "label": "Ether"
            },
            {
                "address": "0xa68920f6d3c996ac3c232e4e93914e9d76150735",
                "label": "\u6c11\u5bbf\u901a (MST)"
            },
            {
                "address": "0x0000000000000000000000000000000000000001",
                "label": "Precompiled"
            },
            {
                "address": "0x0000000000000000000000000000000000000002",
                "label": "Precompiled"
            }
        ]
    },
    "trace": {
        "accountLabels": null,
        "dataMap": {
            "-1": {
                "invocation": {
                    "address": "0xc56e2a3259df9b1c8dff2cc832af2aba4533693e",
                    "callData": "",
                    "decodedMethod": null,
                    "errorInfo": "",
                    "fromAddress": "",
                    "gasUsed": 0,
                    "id": -1,
                    "methodDecoded": false,
                    "operation": "",
                    "output": "",
                    "revert": false,
                    "revertMessage": "",
                    "selector": "",
                    "status": false,
                    "value": ""
                },
                "nodeType": 0
            },
            "0": {
                "invocation": {
                    "address": "0xa68920f6d3c996ac3c232e4e93914e9d76150735",
                    "callData": "0x0000000000000000000000000736f9002fbb39924ba0dbaf39c3058c392baa420000000000000000000000000000000000000000000000056bc75e2d63100000",
                    "decodedMethod": {
                        "callParams": [
                            {
                                "name": "_to",
                                "type": "address",
                                "value": "0x0736f9002fbb39924ba0dbaf39c3058c392baa42"
                            },
                            {
                                "decimalAvailable": true,
                                "name": "_value",
                                "type": "uint256",
                                "value": "100,000,000,000,000,000,000"
                            }
                        ],
                        "constructorArguments": "",
                        "name": "transfer",
                        "returnParams": [],
                        "signature": "transfer(address,uint256)"
                    },
                    "errorInfo": "",
                    "fromAddress": "0xc56e2a3259df9b1c8dff2cc832af2aba4533693e",
                    "gasUsed": 22820,
                    "id": 0,
                    "methodDecoded": true,
                    "operation": "CALL",
                    "output": "",
                    "revert": false,
                    "revertMessage": "",
                    "selector": "0xa9059cbb",
                    "status": true,
                    "value": "0"
                },
                "nodeType": 0
            },
            "1": {
                "event": {
                    "contract": "0xa68920f6d3c996ac3c232e4e93914e9d76150735",
                    "decodedLog": {
                        "name": "Transfer",
                        "params": [
                            {
                                "name": "from",
                                "type": "address",
                                "value": "0xc56e2a3259df9b1c8dff2cc832af2aba4533693e"
                            },
                            {
                                "name": "to",
                                "type": "address",
                                "value": "0x0736f9002fbb39924ba0dbaf39c3058c392baa42"
                            },
                            {
                                "decimalAvailable": true,
                                "name": "value",
                                "type": "uint256",
                                "value": "100,000,000,000,000,000,000"
                            }
                        ],
                        "signature": "Transfer(address,address,uint256)"
                    },
                    "id": 1,
                    "logData": "0x0000000000000000000000000000000000000000000000056bc75e2d63100000",
                    "logDecoded": true,
                    "operation": "EVENT",
                    "revert": false,
                    "status": true,
                    "topics": [
                        "0xddf252ad1be2c89b69c2b068fc378daa952ba7f163c4a11628f55a4df523b3ef",
                        "0x000000000000000000000000c56e2a3259df9b1c8dff2cc832af2aba4533693e",
                        "0x0000000000000000000000000736f9002fbb39924ba0dbaf39c3058c392baa42"
                    ]
                },
                "nodeType": 1
            }
        },
        "gasFlame": [
            {
                "children": [
                    {
                        "children": [
                            {
                                "children": [],
                                "depth": 0,
                                "name": "Initial Gas",
                                "value": 23192
                            },
                            {
                                "children": [],
                                "depth": 0,
                                "name": "Executed Gas",
                                "value": 14628
                            }
                        ],
                        "depth": -1,
                        "name": "Actual Gas Used",
                        "value": 22820
                    },
                    {
                        "children": [],
                        "depth": -1,
                        "name": "Refunded Gas",
                        "value": 15000
                    }
                ],
                "depth": -2,
                "name": "Total Gas",
                "value": 37820
            }
        ],
        "isConfirmed": true,
        "mainTrace": [
            {
                "children": [
                    {
                        "children": [
                            {
                                "children": [],
                                "depth": 1,
                                "id": 1,
                                "order": 1
                            }
                        ],
                        "depth": 0,
                        "id": 0,
                        "order": 0
                    }
                ],
                "depth": -1,
                "id": -1,
                "order": -1
            }
        ],
        "mainTraceNodeCount": 2,
        "parentIdMap": {
            "0": -1,
            "1": 0
        },
        "tidyTrace": [
            {
                "children": [
                    {
                        "children": [
                            {
                                "children": [],
                                "depth": 1,
                                "id": 1,
                                "order": 1
                            }
                        ],
                        "depth": 0,
                        "id": 0,
                        "order": 0
                    }
                ],
                "depth": -1,
                "id": -1,
                "order": -1
            }
        ],
        "tidyTraceNodeCount": 2
    },
    "state_change": {
        "stateChanges": [
            {
                "address": "0xa68920f6d3c996ac3c232e4e93914e9d76150735",
                "erc": "",
                "slots": [
                    {
                        "current": "0x0000000000000000000000000000000000000000000000000000000000000000",
                        "key": "0xb6a3a97deecd1ca021a4ad52f5d641ed3c44d6a4aefe9a4af41a137172d44d81",
                        "prev": "0x0000000000000000000000000000000000000000000000056bc75e2d63100000"
                    },
                    {
                        "current": "0x000000000000000000000000000000000000000000002a6f8b0b173083140000",
                        "key": "0xeee553a133b5edc12fadc242a243c896854ee6bfd96e6f34504ce8544c36da78",
                        "prev": "0x000000000000000000000000000000000000000000002a6a1f43b90320040000"
                    }
                ],
                "storageVariables": [
                    {
                        "name": "balanceOf",
                        "type": "mapping(address => uint256)",
                        "value": {
                            "pairs": [
                                {
                                    "key": "0x0736f9002fbb39924ba0dbaf39c3058c392baa42",
                                    "value": {
                                        "current": "200397000000000000000000",
                                        "prev": "200297000000000000000000",
                                        "typeTag": 1
                                    }
                                },
                                {
                                    "key": "0xc56e2a3259df9b1c8dff2cc832af2aba4533693e",
                                    "value": {
                                        "current": "0",
                                        "prev": "100000000000000000000",
                                        "typeTag": 1
                                    }
                                }
                            ],
                            "typeTag": 4
                        }
                    }
                ]
            }
        ]
    }
}