{
    "balance_change": {
        "balanceChanges": [
            {
                "account": "0x0e4302433bb605c2f17f783276873bc6656648b9",
                "assets": [
                    {
                        "address": "0xeeeeeeeeeeeeeeeeeeeeeeeeeeeeeeeeeeeeeeee",
                        "amount": "0.1664",
                        "iconUrl": "https://assets.blocksec.com/image/1663669189317-3.png",
                        "isERC1155": false,
                        "isERC721": false,
                        "sign": false,
                        "value": ""
                    }
                ]
            },
            {
                "account": "0x09678741bd50c3e74301f38fbd0136307099ae5d",
                "assets": [
                    {
                        "address": "0xeeeeeeeeeeeeeeeeeeeeeeeeeeeeeeeeeeeeeeee",
                        "amount": "0.1664",
                        "iconUrl": "https://assets.blocksec.com/image/1663669189317-3.png",
                        "isERC1155": false,
                        "isERC721": false,
                        "sign": true,
                        "value": ""
                    }
                ]
            }
        ]
    },
    "profile": {
        "basic_info": {
            "baseFee": "",
            "blockNumber": 5723996,
            "callData": "0xf1e03d67fa6514bc9f434fbcac7971efe9d30b6000000000000000000000000000000000000000000000000000000000a549e6136e3901b8e1444160a9999415ca2b881a000000000000000000000000efed537ccb064ba179571a72b1826a7a4a4be581000000000000000000000000000000000000000000000000024f2beb1aa0000000000000000000000000000000000000000000000000000000000000000000640000000000000000000000000000000000000000000000000000000000001c20000000000000000000000000000000000000000000000000000000005b13a8b4000000000000000000000000000000000000000000000000000000000000001cef4da4f8e65570b5f825a716576d2ecd83720dae54d5ba5063c4fcd2ae31a70473b67804083bef7dd838d09acb1925639aee1f9a76c8ae4fed0410bd0dd7eadb",
            "debugEnable": true,
            "errorInfo": "",
            "eventCount": 1,
            "feeRecipient": "0x52bc44d5378309ee2abf1539bf71de1b7d7be3b5",
            "formatValue": "0.1664",
            "gasLimit": 75000,
            "gasPrice": "12.6",
            "gasUsed": 69504,
            "intTxnCount": 1,
            "internalRevert": false,
            "internalRevertMessage": "",
            "isContractCreation": false,
            "isFlashloan": false,
            "maxFee": "",
            "nonce": 0,
            "overwritedBlockNumber": -1,
            "priorityFee": "",
            "receiver": "0x09678741bd50c3e74301f38fbd0136307099ae5d",
            "revertMessage": "",
            "sender": "0x0e4302433bb605c2f17f783276873bc6656648b9",
            "simulationEnable": true,
            "sourceTxnHash": "0x06386d7cc3889139f0e60276b9af4fad3c2297c17340a89f8b1689626dae4d76",
            "status": true,
            "timestamp": "2018-06-03T07:37:43Z",
            "transactionFee": "0.0008757504",
            "txnHash": "0x06386d7cc3889139f0e60276b9af4fad3c2297c17340a89f8b1689626dae4d76",
            "txnIndex": 135,
            "type": 0,
            "value": "166400000000000000"
        },
        "fund_flow": [
            {
                "amount": "0.1664",
                "from": "0x0e4302433bb605c2f17f783276873bc6656648b9",
                "id": 1,
                "isERC1155": false,
                "isERC721": false,
                "isReverted": false,
                "order": 1,
                "to": "0x09678741bd50c3e74301f38fbd0136307099ae5d",
                "token": "0xeeeeeeeeeeeeeeeeeeeeeeeeeeeeeeeeeeeeeeee"
            }
        ],
        "token_infos": [
            {
                "address": "0xc02aaa39b223fe8d0a0e5c4f27ead9083c756cc2",
                "decimals": 18
            },
            {
                "address": "0xeeeeeeeeeeeeeeeeeeeeeeeeeeeeeeeeeeeeeeee",
                "decimals": 18
            }
        ]
    },
    "address_label": {
        "labels": [
            {
                "address": "0xeeeeeeeeeeeeeeeeeeeeeeeeeeeeeeeeeeeeeeee",
                "label": "Ether"
            },
            {
                "address": "0x09678741bd50c3e74301f38fbd0136307099ae5d",
                "label": "LocalEthereum 2"
            },
            {
                "address": "0x0000000000000000000000000000000000000001",
                "label": "Precompiled"
            },
            {
                "address": "0x0000000000000000000000000000000000000002",
                "label": "Precompiled"
            },
            {
                "address": "0x0000000000000000000000000000000000000003",
                "label": "Precompiled"
            },
            {
                "address": "0x0000000000000000000000000000000000000004",
                "label": "Precompiled"
            }
        ]
    },
    "trace": {
        "accountLabels": null,
        "dataMap": {
            "-1": {
                "invocation": {
                    "address": "0x0e4302433bb605c2f17f783276873bc6656648b9",
                    "callData": "",
                    "decodedMethod": null,
                    "errorInfo": "",
                    "fromAddress": "",
                    "gasUsed": 0,
                    "id": -1,
                    "methodDecoded": false,
                    "operation": "",
                    "output": "",
                    "revert": false,
                    "revertMessage": "",
                    "selector": "",
                    "status": false,
                    "value": ""
                },
                "nodeType": 0
            },
            "0": {
                "invocation": {
                    "address": "0x09678741bd50c3e74301f38fbd0136307099ae5d",
                    "callData": "0xfa6514bc9f434fbcac7971efe9d30b6000000000000000000000000000000000000000000000000000000000a549e6136e3901b8e1444160a9999415ca2b881a000000000000000000000000efed537ccb064ba179571a72b1826a7a4a4be581000000000000000000000000000000000000000000000000024f2beb1aa0000000000000000000000000000000000000000000000000000000000000000000640000000000000000000000000000000000000000000000000000000000001c20000000000000000000000000000000000000000000000000000000005b13a8b4000000000000000000000000000000000000000000000000000000000000001cef4da4f8e65570b5f825a716576d2ecd83720dae54d5ba5063c4fcd2ae31a70473b67804083bef7dd838d09acb1925639aee1f9a76c8ae4fed0410bd0dd7eadb",
                    "decodedMethod": {
                        "callParams": [
                            {
                                "name": "_tradeID",
                                "type": "bytes16",
                                "value": "0xfa6514bc9f434fbcac7971efe9d30b60"
                            },
                            {
                                "name": "_seller",
                                "type": "address",
                                "value": "0xa549e6136e3901b8e1444160a9999415ca2b881a"
                            },
                            {
                                "name": "_buyer",
                                "type": "address",
                                "value": "0xefed537ccb064ba179571a72b1826a7a4a4be581"
                            },
                            {
                                "name": "_value",
                                "type": "uint256",
                                "value": "166,400,000,000,000,000"
                            },
                            {
                                "name": "_fee",
                                "type": "uint16",
                                "value": "100"
                            },
                            {
                                "name": "_paymentWindowInSeconds",
                                "type": "uint32",
                                "value": "7,200"
                            },
                            {
                                "name": "_expiry",
                                "type": "uint32",
                                "value": "1,528,015,028"
                            },
                            {
                                "name": "_v",
                                "type": "uint8",
                                "value": "28"
                            },
                            {
                                "name": "_r",
                                "type": "bytes32",
                                "value": "0xef4da4f8e65570b5f825a716576d2ecd83720dae54d5ba5063c4fcd2ae31a704"
                            },
                            {
                                "name": "_s",
                                "type": "bytes32",
                                "value": "0x73b67804083bef7dd838d09acb1925639aee1f9a76c8ae4fed0410bd0dd7eadb"
                            }
                        ],
                        "constructorArguments": "",
                        "name": "createEscrow",
                        "returnParams": [],
                        "signature": "createEscrow(bytes16,address,address,uint256,uint16,uint32,uint32,uint8,bytes32,bytes32)"
                    },
                    "errorInfo": "",
                    "fromAddress": "0x0e4302433bb605c2f17f783276873bc6656648b9",
                    "gasUsed": 69504,
                    "id": 0,
                    "methodDecoded": true,
                    "operation": "CALL",
                    "output": "",
                    "revert": false,
                    "revertMessage": "",
                    "selector": "0xf1e03d67",
                    "status": true,
                    "value": "0.1664"
                },
                "nodeType": 0
            },
            "1": {
                "invocation": {
                    "address": "0x0000000000000000000000000000000000000001",
                    "callData": "0x5b75e059f31f61bc429e91e7caf229b9ce664dd99625f4bc56c9b328000000000000000000000000000000000000000000000000000000000000001cef4da4f8e65570b5f825a716576d2ecd83720dae54d5ba5063c4fcd2ae31a70473b67804083bef7dd838d09acb1925639aee1f9a76c8ae4fed0410bd0dd7eadb",
                    "decodedMethod": {
                        "callParams": [
                            {
                                "name": "hash",
                                "type": "bytes32",
                                "value": "0x5f3076225b75e059f31f61bc429e91e7caf229b9ce664dd99625f4bc56c9b328"
                            },
                            {
                                "name": "v",
                                "type": "uint256",
                                "value": "28"
                            },
                            {
                                "name": "r",
                                "type": "bytes32",
                                "value": "0xef4da4f8e65570b5f825a716576d2ecd83720dae54d5ba5063c4fcd2ae31a704"
                            },
                            {
                                "name": "s",
                                "type": "bytes32",
                                "value": "0x73b67804083bef7dd838d09acb1925639aee1f9a76c8ae4fed0410bd0dd7eadb"
                            }
                        ],
                        "constructorArguments": "",
                        "name": "ecrecover",
                        "returnParams": [
                            {
                                "name": "",
                                "type": "address",
                                "value": "0xf008e2c7a7f16ac706c2e0ebd3f015d442016420"
                            }
                        ],
                        "signature": "ecrecover(bytes32,uint256,bytes32,bytes32)"
                    },
                    "errorInfo": "",
                    "fromAddress": "0x09678741bd50c3e74301f38fbd0136307099ae5d",
                    "gasUsed": 3000,
                    "id": 1,
                    "methodDecoded": true,
                    "operation": "CALL",
                    "output": "0x000000000000000000000000f008e2c7a7f16ac706c2e0ebd3f015d442016420",
                    "revert": false,
                    "revertMessage": "",
                    "selector": "0x5f307622",
                    "status": true,
                    "value": "0"
                },
                "nodeType": 0
            },
            "2": {
                "event": {
                    "contract": "0x09678741bd50c3e74301f38fbd0136307099ae5d",
                    "decodedLog": {
                        "name": "Created",
                        "params": [
                            {
                                "name": "_tradeHash",
                                "type": "bytes32",
                                "value": "0x7b7c31d64030ae8abc9579f03d77f1e208df18183ef87e496376745dc170fcd2"
                            }
                        ],
                        "signature": "Created(bytes32)"
                    },
                    "id": 2,
                    "logData": "0x7b7c31d64030ae8abc9579f03d77f1e208df18183ef87e496376745dc170fcd2",
                    "logDecoded": true,
                    "operation": "EVENT",
                    "revert": false,
                    "status": true,
                    "topics": [
                        "0x102d25c49d33fcdb8976a3f2744e0785c98d9e43b88364859e6aec4ae82eff5c"
                    ]
                },
                "nodeType": 1
            }
        },
        "gasFlame": [
            {
                "children": [
                    {
                        "children": [
                            {
                                "children": [],
                                "depth": 0,
                                "name": "Initial Gas",
                                "value": 31128
                            },
                            {
                                "children": [
                                    {
                                        "children": [],
                                        "depth": 1,
                                        "name": "ecrecover",
                                        "value": 3000
                                    }
                                ],
                                "depth": 0,
                                "name": "Executed Gas",
                                "value": 38376
                            }
                        ],
                        "depth": -1,
                        "name": "Actual Gas Used",
                        "value": 69504
                    },
                    {
                        "children": [],
                        "depth": -1,
                        "name": "Refunded Gas",
                        "value": 0
                    }
                ],
                "depth": -2,
                "name": "Total Gas",
                "value": 69504
            }
        ],
        "isConfirmed": true,
        "mainTrace": [
            {
                "children": [
                    {
                        "children": [
                            {
                                "children": [],
                                "depth": 1,
                                "id": 1,
                                "order": 1
                            },
                            {
                                "children": [],
                                "depth": 1,
                                "id": 2,
                                "order": 2
                            }
                        ],
                        "depth": 0,
                        "id": 0,
                        "order": 0
                    }
                ],
                "depth": -1,
                "id": -1,
                "order": -1
            }
        ],
        "mainTraceNodeCount": 3,
        "parentIdMap": {
            "0": -1,
            "1": 0,
            "2": 0
        },
        "tidyTrace": [
            {
                "children": [
                    {
                        "children": [
                            {
                                "children": [],
                                "depth": 1,
                                "id": 1,
                                "order": 1
                            },
                            {
                                "children": [],
                                "depth": 1,
                                "id": 2,
                                "order": 2
                            }
                        ],
                        "depth": 0,
                        "id": 0,
                        "order": 0
                    }
                ],
                "depth": -1,
                "id": -1,
                "order": -1
            }
        ],
        "tidyTraceNodeCount": 3
    },
    "state_change": {
        "stateChanges": [
            {
                "address": "0x09678741bd50c3e74301f38fbd0136307099ae5d",
                "erc": "",
                "slots": [
                    {
                        "current": "0x0000000000000000000000000000000000000000000000000000005b13b6e701",
                        "key": "0x14ede373d5fcd03bdfb3261e50603e99c6d0feefa3b25351ee48a9b24e025988",
                        "prev": "0x0000000000000000000000000000000000000000000000000000000000000000"
                    }
                ],
                "storageVariables": [
                    {
                        "name": "escrows",
                        "type": "mapping(bytes32 => struct LocalEthereumEscrows.Escrow)",
                        "value": {
                            "pairs": [
                                {
                                    "key": "0x7b7c31d64030ae8abc9579f03d77f1e208df18183ef87e496376745dc170fcd2",
                                    "value": {
                                        "fields": [
                                            {
                                                "name": "exists",
                                                "type": "bool",
                                                "value": {
                                                    "current": "true",
                                                    "prev": "false",
                                                    "typeTag": 1
                                                }
                                            },
                                            {
                                                "name": "sellerCanCancelAfter",
                                                "type": "uint32",
                                                "value": {
                                                    "current": "1528018663",
                                                    "prev": "0",
                                                    "typeTag": 1
                                                }
                                            },
                                            {
                                                "name": "totalGasFeesSpentByRelayer",
                                                "type": "uint128",
                                                "value": {
                                                    "current": "0",
                                                    "prev": "0",
                                                    "typeTag": 1
                                                }
                                            }
                                        ],
                                        "typeTag": 3
                                    }
                                }
                            ],
                            "typeTag": 4
                        }
                    }
                ]
            }
        ]
    }
}