{
    "balance_change": {
        "balanceChanges": [
            {
                "account": "0x338f9d033ed239a14580aa3bd2e3ec250db26706",
                "assets": [
                    {
                        "address": "0xeeeeeeeeeeeeeeeeeeeeeeeeeeeeeeeeeeeeeeee",
                        "amount": "0.1",
                        "iconUrl": "https://assets.blocksec.com/image/1663669189317-3.png",
                        "isERC1155": false,
                        "isERC721": false,
                        "sign": false,
                        "value": "70.885400000000004184"
                    },
                    {
                        "address": "0x6b175474e89094c44da98b954eedeac495271d0f",
                        "amount": "68.978832144532570584",
                        "iconUrl": "https://assets.blocksec.com/icon/39aead569b9c011cb6f69734d9abbc9ab6a80049fe93bbd12bb473a3e0e859a3.png",
                        "isERC1155": false,
                        "isERC721": false,
                        "sign": true,
                        "value": "69.20977809"
                    }
                ]
            },
            {
                "account": "0x11ededebf63bef0ea2d2d071bdf88f71543ec6fb",
                "assets": [
                    {
                        "address": "0xeeeeeeeeeeeeeeeeeeeeeeeeeeeeeeeeeeeeeeee",
                        "amount": "0.000875",
                        "iconUrl": "https://assets.blocksec.com/image/1663669189317-3.png",
                        "isERC1155": false,
                        "isERC721": false,
                        "sign": true,
                        "value": "0.6202472500000000366"
                    }
                ]
            },
            {
                "account": "0x2a1530c4c41db0b0b2bb646cb5eb1a67b7158667",
                "assets": [
                    {
                        "address": "0xeeeeeeeeeeeeeeeeeeeeeeeeeeeeeeeeeeeeeeee",
                        "amount": "0.099125",
                        "iconUrl": "https://assets.blocksec.com/image/1663669189317-3.png",
                        "isERC1155": false,
                        "isERC721": false,
                        "sign": true,
                        "value": "70.26515275000000414"
                    },
                    {
                        "address": "0x6b175474e89094c44da98b954eedeac495271d0f",
                        "amount": "68.978832144532570584",
                        "iconUrl": "https://assets.blocksec.com/icon/39aead569b9c011cb6f69734d9abbc9ab6a80049fe93bbd12bb473a3e0e859a3.png",
                        "isERC1155": false,
                        "isERC721": false,
                        "sign": false,
                        "value": "69.20977809"
                    }
                ]
            }
        ]
    },
    "profile": {
        "basic_info": {
            "baseFee": "",
            "blockNumber": 11540106,
            "callData": "0x5f57552900000000000000000000000000000000000000000000000000000000000000800000000000000000000000000000000000000000000000000000000000000000000000000000000000000000000000000000000000000000016345785d8a000000000000000000000000000000000000000000000000000000000000000000c000000000000000000000000000000000000000000000000000000000000000096f6e65496e636856320000000000000000000000000000000000000000000000000000000000000000000000000000000000000000000000000000000000052000000000000000000000000000000000000000000000000000000000000000000000000000000000000000006b175474e89094c44da98b954eedeac495271d0f000000000000000000000000000000000000000000000000016345785d8a0000000000000000000000000000000000000000000000000003aa20ccb8f83caac400000000000000000000000000000000000000000000000000000000000001200000000000000000000000000000000000000000000000000000000000000460000000000000000000000000d47140f6ab73f6d6b6675fb1610bb5e9b5d96fe5000000000000000000000000000000000000000000000000000000000000006000000000000000000000000000000000000000000000000000000000000001c0000000000000000000000000eeeeeeeeeeeeeeeeeeeeeeeeeeeeeeeeeeeeeeee0000000000000000000000006b175474e89094c44da98b954eedeac495271d0f000000000000000000000000d47140f6ab73f6d6b6675fb1610bb5e9b5d96fe500000000000000000000000074de5d4fcbf63e00296fd95d33236b9794016631000000000000000000000000000000000000000000000000016345785d8a0000000000000000000000000000000000000000000000000003aa20ccb8f83caac4000000000000000000000000000000000000000000000003bd460a5eb42901d8000000000000000000000000000000000000000000000000000000000000000000000000000000000000000011ededebf63bef0ea2d2d071bdf88f71543ec6fb0000000000000000000000000000000000000000000000000000000000000140000000000000000000000000000000000000000000000000000000000000000000000000000000000000000000000000000000000000000000000000000000020000000000000000000000000000000000000000000000000000000000000040000000000000000000000000000000000000000000000000000000000000016000000000000000000000000000000000000000000000000000000000000000000000000000000000000000000000000000000000000000000000000000000000000000000000000000000000000000000000000000000000000000000000000000000000000000000000000000000000000000000000000000000000000000800000000000000000000000000000000000000000000000000000000000000064d1660f99000000000000000000000000eeeeeeeeeeeeeeeeeeeeeeeeeeeeeeeeeeeeeeee00000000000000000000000011ededebf63bef0ea2d2d071bdf88f71543ec6fb00000000000000000000000000000000000000000000000000031bced02db000000000000000000000000000000000000000000000000000000000008000000000000000000000002a1530c4c41db0b0b2bb646cb5eb1a67b71586670000000000000000000000000000000000000000000000000000000000000000000000000000000000000000000000000000000000000000016029a98d5c500000000000000000000000000000000000000000000000000000000000000000800000000000000000000000000000000000000000000000000000000000000064ad65d76d0000000000000000000000000000000000000000000000000000000000000001000000000000000000000000000000000000000000000000000000005feaaaaa00000000000000000000000074de5d4fcbf63e00296fd95d33236b979401663100000000000000000000000000000000000000000000000000000000",
            "debugEnable": true,
            "errorInfo": "",
            "eventCount": 5,
            "feeRecipient": "0x5a0b54d5dc17e0aadc383d2db43b0a0d3e029c4c",
            "formatValue": "0.1",
            "gasLimit": 296198,
            "gasPrice": "66",
            "gasUsed": 172429,
            "intTxnCount": 14,
            "internalRevert": false,
            "internalRevertMessage": "",
            "isContractCreation": false,
            "isFlashloan": false,
            "maxFee": "",
            "nonce": 0,
            "overwritedBlockNumber": -1,
            "priorityFee": "",
            "receiver": "0x881d40237659c251811cec9c364ef91dc08d300c",
            "revertMessage": "",
            "sender": "0x338f9d033ed239a14580aa3bd2e3ec250db26706",
            "simulationEnable": true,
            "sourceTxnHash": "0x062ce229f949005cf48e46c4f8168e8e18bfc829395ee2da287713610d9aafce",
            "status": true,
            "timestamp": "2020-12-28T04:04:04Z",
            "transactionFee": "0.011380314",
            "txnHash": "0x062ce229f949005cf48e46c4f8168e8e18bfc829395ee2da287713610d9aafce",
            "txnIndex": 73,
            "type": 0,
            "value": "100000000000000000"
        },
        "fund_flow": [
            {
                "amount": "0.1",
                "from": "0x338f9d033ed239a14580aa3bd2e3ec250db26706",
                "id": 1,
                "isERC1155": false,
                "isERC721": false,
                "isReverted": false,
                "order": 1,
                "to": "0x881d40237659c251811cec9c364ef91dc08d300c",
                "token": "0xeeeeeeeeeeeeeeeeeeeeeeeeeeeeeeeeeeeeeeee"
            },
            {
                "amount": "0.1",
                "from": "0x881d40237659c251811cec9c364ef91dc08d300c",
                "id": 2,
                "isERC1155": false,
                "isERC721": false,
                "isReverted": false,
                "order": 2,
                "to": "0x74de5d4fcbf63e00296fd95d33236b9794016631",
                "token": "0xeeeeeeeeeeeeeeeeeeeeeeeeeeeeeeeeeeeeeeee"
            },
            {
                "amount": "0.1",
                "from": "0x74de5d4fcbf63e00296fd95d33236b9794016631",
                "id": 3,
                "isERC1155": false,
                "isERC721": false,
                "isReverted": false,
                "order": 3,
                "to": "0x111111125434b319222cdbf8c261674adb56f3ae",
                "token": "0xeeeeeeeeeeeeeeeeeeeeeeeeeeeeeeeeeeeeeeee"
            },
            {
                "amount": "0.1",
                "from": "0x111111125434b319222cdbf8c261674adb56f3ae",
                "id": 4,
                "isERC1155": false,
                "isERC721": false,
                "isReverted": false,
                "order": 4,
                "to": "0xd47140f6ab73f6d6b6675fb1610bb5e9b5d96fe5",
                "token": "0xeeeeeeeeeeeeeeeeeeeeeeeeeeeeeeeeeeeeeeee"
            },
            {
                "amount": "0.000875",
                "from": "0xd47140f6ab73f6d6b6675fb1610bb5e9b5d96fe5",
                "id": 5,
                "isERC1155": false,
                "isERC721": false,
                "isReverted": false,
                "order": 5,
                "to": "0x11ededebf63bef0ea2d2d071bdf88f71543ec6fb",
                "token": "0xeeeeeeeeeeeeeeeeeeeeeeeeeeeeeeeeeeeeeeee"
            },
            {
                "amount": "0.099125",
                "from": "0xd47140f6ab73f6d6b6675fb1610bb5e9b5d96fe5",
                "id": 6,
                "isERC1155": false,
                "isERC721": false,
                "isReverted": false,
                "order": 6,
                "to": "0x2a1530c4c41db0b0b2bb646cb5eb1a67b7158667",
                "token": "0xeeeeeeeeeeeeeeeeeeeeeeeeeeeeeeeeeeeeeeee"
            },
            {
                "amount": "68.978832144532570584",
                "from": "0x2a1530c4c41db0b0b2bb646cb5eb1a67b7158667",
                "id": 7,
                "isERC1155": false,
                "isERC721": false,
                "isReverted": false,
                "order": 7,
                "to": "0x74de5d4fcbf63e00296fd95d33236b9794016631",
                "token": "0x6b175474e89094c44da98b954eedeac495271d0f"
            },
            {
                "amount": "68.978832144532570584",
                "from": "0x74de5d4fcbf63e00296fd95d33236b9794016631",
                "id": 8,
                "isERC1155": false,
                "isERC721": false,
                "isReverted": false,
                "order": 8,
                "to": "0x338f9d033ed239a14580aa3bd2e3ec250db26706",
                "token": "0x6b175474e89094c44da98b954eedeac495271d0f"
            }
        ],
        "token_infos": [
            {
                "address": "0x6b175474e89094c44da98b954eedeac495271d0f",
                "decimals": 18
            },
            {
                "address": "0xc02aaa39b223fe8d0a0e5c4f27ead9083c756cc2",
                "decimals": 18
            },
            {
                "address": "0xeeeeeeeeeeeeeeeeeeeeeeeeeeeeeeeeeeeeeeee",
                "decimals": 18
            }
        ]
    },
    "address_label": {
        "labels": [
            {
                "address": "0xeeeeeeeeeeeeeeeeeeeeeeeeeeeeeeeeeeeeeeee",
                "label": "Ether"
            },
            {
                "address": "0x881d40237659c251811cec9c364ef91dc08d300c",
                "label": "Metamask: Swap Router"
            },
            {
                "address": "0x0000000000000000000000000000000000000001",
                "label": "Precompiled"
            },
            {
                "address": "0x11ededebf63bef0ea2d2d071bdf88f71543ec6fb",
                "label": "Metamask: Fees"
            },
            {
                "address": "0x2157a7894439191e520825fe9399ab8655e0f708",
                "label": "Uniswap Exchange Template"
            },
            {
                "address": "0x74de5d4fcbf63e00296fd95d33236b9794016631",
                "label": "MetaMask: Swaps Spender"
            },
            {
                "address": "0x0000000000000000000000000000000000000003",
                "label": "Precompiled"
            },
            {
                "address": "0xd47140f6ab73f6d6b6675fb1610bb5e9b5d96fe5",
                "label": "1inch: Old Router V2"
            },
            {
                "address": "0x0000000000000000000000000000000000000000",
                "label": "Null Address"
            },
            {
                "address": "0x0000000000000000000000000000000000000004",
                "label": "Precompiled"
            },
            {
                "address": "0x6b175474e89094c44da98b954eedeac495271d0f",
                "label": "Sky: Dai Stablecoin"
            },
            {
                "address": "0x2a1530c4c41db0b0b2bb646cb5eb1a67b7158667",
                "label": "Uniswap: DAI"
            },
            {
                "address": "0x111111125434b319222cdbf8c261674adb56f3ae",
                "label": "1inch v2: Aggregation Router"
            },
            {
                "address": "0x0000000000000000000000000000000000000002",
                "label": "Precompiled"
            }
        ]
    },
    "trace": {
        "accountLabels": null,
        "dataMap": {
            "-1": {
                "invocation": {
                    "address": "0x338f9d033ed239a14580aa3bd2e3ec250db26706",
                    "callData": "",
                    "decodedMethod": null,
                    "errorInfo": "",
                    "fromAddress": "",
                    "gasUsed": 0,
                    "id": -1,
                    "methodDecoded": false,
                    "operation": "",
                    "output": "",
                    "revert": false,
                    "revertMessage": "",
                    "selector": "",
                    "status": false,
                    "value": ""
                },
                "nodeType": 0
            },
            "0": {
                "invocation": {
                    "address": "0x881d40237659c251811cec9c364ef91dc08d300c",
                    "callData": "0x00000000000000000000000000000000000000000000000000000000000000800000000000000000000000000000000000000000000000000000000000000000000000000000000000000000000000000000000000000000016345785d8a000000000000000000000000000000000000000000000000000000000000000000c000000000000000000000000000000000000000000000000000000000000000096f6e65496e636856320000000000000000000000000000000000000000000000000000000000000000000000000000000000000000000000000000000000052000000000000000000000000000000000000000000000000000000000000000000000000000000000000000006b175474e89094c44da98b954eedeac495271d0f000000000000000000000000000000000000000000000000016345785d8a0000000000000000000000000000000000000000000000000003aa20ccb8f83caac400000000000000000000000000000000000000000000000000000000000001200000000000000000000000000000000000000000000000000000000000000460000000000000000000000000d47140f6ab73f6d6b6675fb1610bb5e9b5d96fe5000000000000000000000000000000000000000000000000000000000000006000000000000000000000000000000000000000000000000000000000000001c0000000000000000000000000eeeeeeeeeeeeeeeeeeeeeeeeeeeeeeeeeeeeeeee0000000000000000000000006b175474e89094c44da98b954eedeac495271d0f000000000000000000000000d47140f6ab73f6d6b6675fb1610bb5e9b5d96fe500000000000000000000000074de5d4fcbf63e00296fd95d33236b9794016631000000000000000000000000000000000000000000000000016345785d8a0000000000000000000000000000000000000000000000000003aa20ccb8f83caac4000000000000000000000000000000000000000000000003bd460a5eb42901d8000000000000000000000000000000000000000000000000000000000000000000000000000000000000000011ededebf63bef0ea2d2d071bdf88f71543ec6fb0000000000000000000000000000000000000000000000000000000000000140000000000000000000000000000000000000000000000000000000000000000000000000000000000000000000000000000000000000000000000000000000020000000000000000000000000000000000000000000000000000000000000040000000000000000000000000000000000000000000000000000000000000016000000000000000000000000000000000000000000000000000000000000000000000000000000000000000000000000000000000000000000000000000000000000000000000000000000000000000000000000000000000000000000000000000000000000000000000000000000000000000000000000000000000000000800000000000000000000000000000000000000000000000000000000000000064d1660f99000000000000000000000000eeeeeeeeeeeeeeeeeeeeeeeeeeeeeeeeeeeeeeee00000000000000000000000011ededebf63bef0ea2d2d071bdf88f71543ec6fb00000000000000000000000000000000000000000000000000031bced02db000000000000000000000000000000000000000000000000000000000008000000000000000000000002a1530c4c41db0b0b2bb646cb5eb1a67b71586670000000000000000000000000000000000000000000000000000000000000000000000000000000000000000000000000000000000000000016029a98d5c500000000000000000000000000000000000000000000000000000000000000000800000000000000000000000000000000000000000000000000000000000000064ad65d76d0000000000000000000000000000000000000000000000000000000000000001000000000000000000000000000000000000000000000000000000005feaaaaa00000000000000000000000074de5d4fcbf63e00296fd95d33236b979401663100000000000000000000000000000000000000000000000000000000",
                    "decodedMethod": {
                        "callParams": [
                            {
                                "name": "aggregatorId",
                                "type": "string",
                                "value": "oneInchV2"
                            },
                            {
                                "name": "tokenFrom",
                                "type": "address",
                                "value": "0x0000000000000000000000000000000000000000"
                            },
                            {
                                "name": "amount",
                                "type": "uint256",
                                "value": "100,000,000,000,000,000"
                            },
                            {
                                "name": "data",
                                "type": "bytes",
                                "value": "0x00000000000000000000000000000000000000000000000000000000000000000000000000000000000000006b175474e89094c44da98b954eedeac495271d0f000000000000000000000000000000000000000000000000016345785d8a0000000000000000000000000000000000000000000000000003aa20ccb8f83caac400000000000000000000000000000000000000000000000000000000000001200000000000000000000000000000000000000000000000000000000000000460000000000000000000000000d47140f6ab73f6d6b6675fb1610bb5e9b5d96fe5000000000000000000000000000000000000000000000000000000000000006000000000000000000000000000000000000000000000000000000000000001c0000000000000000000000000eeeeeeeeeeeeeeeeeeeeeeeeeeeeeeeeeeeeeeee0000000000000000000000006b175474e89094c44da98b954eedeac495271d0f000000000000000000000000d47140f6ab73f6d6b6675fb1610bb5e9b5d96fe500000000000000000000000074de5d4fcbf63e00296fd95d33236b9794016631000000000000000000000000000000000000000000000000016345785d8a0000000000000000000000000000000000000000000000000003aa20ccb8f83caac4000000000000000000000000000000000000000000000003bd460a5eb42901d8000000000000000000000000000000000000000000000000000000000000000000000000000000000000000011ededebf63bef0ea2d2d071bdf88f71543ec6fb0000000000000000000000000000000000000000000000000000000000000140000000000000000000000000000000000000000000000000000000000000000000000000000000000000000000000000000000000000000000000000000000020000000000000000000000000000000000000000000000000000000000000040000000000000000000000000000000000000000000000000000000000000016000000000000000000000000000000000000000000000000000000000000000000000000000000000000000000000000000000000000000000000000000000000000000000000000000000000000000000000000000000000000000000000000000000000000000000000000000000000000000000000000000000000000000800000000000000000000000000000000000000000000000000000000000000064d1660f99000000000000000000000000eeeeeeeeeeeeeeeeeeeeeeeeeeeeeeeeeeeeeeee00000000000000000000000011ededebf63bef0ea2d2d071bdf88f71543ec6fb00000000000000000000000000000000000000000000000000031bced02db000000000000000000000000000000000000000000000000000000000008000000000000000000000002a1530c4c41db0b0b2bb646cb5eb1a67b71586670000000000000000000000000000000000000000000000000000000000000000000000000000000000000000000000000000000000000000016029a98d5c500000000000000000000000000000000000000000000000000000000000000000800000000000000000000000000000000000000000000000000000000000000064ad65d76d0000000000000000000000000000000000000000000000000000000000000001000000000000000000000000000000000000000000000000000000005feaaaaa00000000000000000000000074de5d4fcbf63e00296fd95d33236b979401663100000000000000000000000000000000000000000000000000000000"
                            }
                        ],
                        "constructorArguments": "",
                        "name": "swap",
                        "returnParams": [],
                        "signature": "swap(string,address,uint256,bytes)"
                    },
                    "errorInfo": "",
                    "fromAddress": "0x338f9d033ed239a14580aa3bd2e3ec250db26706",
                    "gasUsed": 172429,
                    "id": 0,
                    "methodDecoded": true,
                    "operation": "CALL",
                    "output": "",
                    "revert": false,
                    "revertMessage": "",
                    "selector": "0x5f575529",
                    "status": true,
                    "value": "0.1"
                },
                "nodeType": 0
            },
            "1": {
                "invocation": {
                    "address": "0x74de5d4fcbf63e00296fd95d33236b9794016631",
                    "callData": "0x000000000000000000000000ca39643da6dca2a1cea5f99fe0d7d99ffcce5e03000000000000000000000000000000000000000000000000000000000000004000000000000000000000000000000000000000000000000000000000000005a4907b6738000000000000000000000000338f9d033ed239a14580aa3bd2e3ec250db26706000000000000000000000000111111125434b319222cdbf8c261674adb56f3ae000000000000000000000000111111125434b319222cdbf8c261674adb56f3ae90411a320000000000000000000000000000000000000000000000000000000000000000000000000000000000000000000000000000000000000000000000000000000000000000000000006b175474e89094c44da98b954eedeac495271d0f000000000000000000000000000000000000000000000000016345785d8a0000000000000000000000000000000000000000000000000003aa20ccb8f83caac400000000000000000000000000000000000000000000000000000000000001200000000000000000000000000000000000000000000000000000000000000460000000000000000000000000d47140f6ab73f6d6b6675fb1610bb5e9b5d96fe5000000000000000000000000000000000000000000000000000000000000006000000000000000000000000000000000000000000000000000000000000001c0000000000000000000000000eeeeeeeeeeeeeeeeeeeeeeeeeeeeeeeeeeeeeeee0000000000000000000000006b175474e89094c44da98b954eedeac495271d0f000000000000000000000000d47140f6ab73f6d6b6675fb1610bb5e9b5d96fe500000000000000000000000074de5d4fcbf63e00296fd95d33236b9794016631000000000000000000000000000000000000000000000000016345785d8a0000000000000000000000000000000000000000000000000003aa20ccb8f83caac4000000000000000000000000000000000000000000000003bd460a5eb42901d8000000000000000000000000000000000000000000000000000000000000000000000000000000000000000011ededebf63bef0ea2d2d071bdf88f71543ec6fb0000000000000000000000000000000000000000000000000000000000000140000000000000000000000000000000000000000000000000000000000000000000000000000000000000000000000000000000000000000000000000000000020000000000000000000000000000000000000000000000000000000000000040000000000000000000000000000000000000000000000000000000000000016000000000000000000000000000000000000000000000000000000000000000000000000000000000000000000000000000000000000000000000000000000000000000000000000000000000000000000000000000000000000000000000000000000000000000000000000000000000000000000000000000000000000000800000000000000000000000000000000000000000000000000000000000000064d1660f99000000000000000000000000eeeeeeeeeeeeeeeeeeeeeeeeeeeeeeeeeeeeeeee00000000000000000000000011ededebf63bef0ea2d2d071bdf88f71543ec6fb00000000000000000000000000000000000000000000000000031bced02db000000000000000000000000000000000000000000000000000000000008000000000000000000000002a1530c4c41db0b0b2bb646cb5eb1a67b71586670000000000000000000000000000000000000000000000000000000000000000000000000000000000000000000000000000000000000000016029a98d5c500000000000000000000000000000000000000000000000000000000000000000800000000000000000000000000000000000000000000000000000000000000064ad65d76d0000000000000000000000000000000000000000000000000000000000000001000000000000000000000000000000000000000000000000000000005feaaaaa00000000000000000000000074de5d4fcbf63e00296fd95d33236b97940166310000000000000000000000000000000000000000000000000000000000000000000000000000000000000000000000000000000000000000",
                    "decodedMethod": {
                        "callParams": [
                            {
                                "name": "adapter",
                                "type": "address",
                                "value": "0xca39643da6dca2a1cea5f99fe0d7d99ffcce5e03"
                            },
                            {
                                "name": "data",
                                "type": "bytes",
                                "value": "0x907b6738000000000000000000000000338f9d033ed239a14580aa3bd2e3ec250db26706000000000000000000000000111111125434b319222cdbf8c261674adb56f3ae000000000000000000000000111111125434b319222cdbf8c261674adb56f3ae90411a320000000000000000000000000000000000000000000000000000000000000000000000000000000000000000000000000000000000000000000000000000000000000000000000006b175474e89094c44da98b954eedeac495271d0f000000000000000000000000000000000000000000000000016345785d8a0000000000000000000000000000000000000000000000000003aa20ccb8f83caac400000000000000000000000000000000000000000000000000000000000001200000000000000000000000000000000000000000000000000000000000000460000000000000000000000000d47140f6ab73f6d6b6675fb1610bb5e9b5d96fe5000000000000000000000000000000000000000000000000000000000000006000000000000000000000000000000000000000000000000000000000000001c0000000000000000000000000eeeeeeeeeeeeeeeeeeeeeeeeeeeeeeeeeeeeeeee0000000000000000000000006b175474e89094c44da98b954eedeac495271d0f000000000000000000000000d47140f6ab73f6d6b6675fb1610bb5e9b5d96fe500000000000000000000000074de5d4fcbf63e00296fd95d33236b9794016631000000000000000000000000000000000000000000000000016345785d8a0000000000000000000000000000000000000000000000000003aa20ccb8f83caac4000000000000000000000000000000000000000000000003bd460a5eb42901d8000000000000000000000000000000000000000000000000000000000000000000000000000000000000000011ededebf63bef0ea2d2d071bdf88f71543ec6fb0000000000000000000000000000000000000000000000000000000000000140000000000000000000000000000000000000000000000000000000000000000000000000000000000000000000000000000000000000000000000000000000020000000000000000000000000000000000000000000000000000000000000040000000000000000000000000000000000000000000000000000000000000016000000000000000000000000000000000000000000000000000000000000000000000000000000000000000000000000000000000000000000000000000000000000000000000000000000000000000000000000000000000000000000000000000000000000000000000000000000000000000000000000000000000000000800000000000000000000000000000000000000000000000000000000000000064d1660f99000000000000000000000000eeeeeeeeeeeeeeeeeeeeeeeeeeeeeeeeeeeeeeee00000000000000000000000011ededebf63bef0ea2d2d071bdf88f71543ec6fb00000000000000000000000000000000000000000000000000031bced02db000000000000000000000000000000000000000000000000000000000008000000000000000000000002a1530c4c41db0b0b2bb646cb5eb1a67b71586670000000000000000000000000000000000000000000000000000000000000000000000000000000000000000000000000000000000000000016029a98d5c500000000000000000000000000000000000000000000000000000000000000000800000000000000000000000000000000000000000000000000000000000000064ad65d76d0000000000000000000000000000000000000000000000000000000000000001000000000000000000000000000000000000000000000000000000005feaaaaa00000000000000000000000074de5d4fcbf63e00296fd95d33236b979401663100000000000000000000000000000000000000000000000000000000"
                            }
                        ],
                        "constructorArguments": "",
                        "name": "swap",
                        "returnParams": [],
                        "signature": "swap(address,bytes)"
                    },
                    "errorInfo": "",
                    "fromAddress": "0x881d40237659c251811cec9c364ef91dc08d300c",
                    "gasUsed": 137915,
                    "id": 1,
                    "methodDecoded": true,
                    "operation": "CALL",
                    "output": "",
                    "revert": false,
                    "revertMessage": "",
                    "selector": "0xe3547335",
                    "status": true,
                    "value": "0.1"
                },
                "nodeType": 0
            },
            "10": {
                "invocation": {
                    "address": "0x6b175474e89094c44da98b954eedeac495271d0f",
                    "callData": "0x0000000000000000000000002a1530c4c41db0b0b2bb646cb5eb1a67b7158667",
                    "decodedMethod": {
                        "callParams": [
                            {
                                "name": "",
                                "type": "address",
                                "value": "0x2a1530c4c41db0b0b2bb646cb5eb1a67b7158667"
                            }
                        ],
                        "constructorArguments": "",
                        "name": "balanceOf",
                        "returnParams": [
                            {
                                "decimalAvailable": true,
                                "name": "",
                                "type": "uint256",
                                "value": "246,526,439,117,368,513,662,584"
                            }
                        ],
                        "signature": "balanceOf(address)"
                    },
                    "errorInfo": "",
                    "fromAddress": "0x2a1530c4c41db0b0b2bb646cb5eb1a67b7158667",
                    "gasUsed": 1302,
                    "id": 10,
                    "methodDecoded": true,
                    "operation": "STATICCALL",
                    "output": "0x000000000000000000000000000000000000000000003434399c70316a2e0e78",
                    "revert": false,
                    "revertMessage": "",
                    "selector": "0x70a08231",
                    "status": true,
                    "value": "0"
                },
                "nodeType": 0
            },
            "11": {
                "invocation": {
                    "address": "0x6b175474e89094c44da98b954eedeac495271d0f",
                    "callData": "0x00000000000000000000000074de5d4fcbf63e00296fd95d33236b9794016631000000000000000000000000000000000000000000000003bd460a5eb42901d8",
                    "decodedMethod": {
                        "callParams": [
                            {
                                "name": "dst",
                                "type": "address",
                                "value": "0x74de5d4fcbf63e00296fd95d33236b9794016631"
                            },
                            {
                                "decimalAvailable": true,
                                "name": "wad",
                                "type": "uint256",
                                "value": "68,978,832,144,532,570,584"
                            }
                        ],
                        "constructorArguments": "",
                        "name": "transfer",
                        "returnParams": [
                            {
                                "name": "",
                                "type": "bool",
                                "value": true
                            }
                        ],
                        "signature": "transfer(address,uint256)"
                    },
                    "errorInfo": "",
                    "fromAddress": "0x2a1530c4c41db0b0b2bb646cb5eb1a67b7158667",
                    "gasUsed": 30374,
                    "id": 11,
                    "methodDecoded": true,
                    "operation": "CALL",
                    "output": "0x0000000000000000000000000000000000000000000000000000000000000001",
                    "revert": false,
                    "revertMessage": "",
                    "selector": "0xa9059cbb",
                    "status": true,
                    "value": "0"
                },
                "nodeType": 0
            },
            "12": {
                "event": {
                    "contract": "0x6b175474e89094c44da98b954eedeac495271d0f",
                    "decodedLog": {
                        "name": "Transfer",
                        "params": [
                            {
                                "name": "src",
                                "type": "address",
                                "value": "0x2a1530c4c41db0b0b2bb646cb5eb1a67b7158667"
                            },
                            {
                                "name": "dst",
                                "type": "address",
                                "value": "0x74de5d4fcbf63e00296fd95d33236b9794016631"
                            },
                            {
                                "decimalAvailable": true,
                                "name": "wad",
                                "type": "uint256",
                                "value": "68,978,832,144,532,570,584"
                            }
                        ],
                        "signature": "Transfer(address,address,uint256)"
                    },
                    "id": 12,
                    "logData": "0x000000000000000000000000000000000000000000000003bd460a5eb42901d8",
                    "logDecoded": true,
                    "operation": "EVENT",
                    "revert": false,
                    "status": true,
                    "topics": [
                        "0xddf252ad1be2c89b69c2b068fc378daa952ba7f163c4a11628f55a4df523b3ef",
                        "0x0000000000000000000000002a1530c4c41db0b0b2bb646cb5eb1a67b7158667",
                        "0x00000000000000000000000074de5d4fcbf63e00296fd95d33236b9794016631"
                    ]
                },
                "nodeType": 1
            },
            "13": {
                "event": {
                    "contract": "0x2a1530c4c41db0b0b2bb646cb5eb1a67b7158667",
                    "decodedLog": {
                        "name": "TokenPurchase",
                        "params": [
                            {
                                "name": "buyer",
                                "type": "address",
                                "value": "0xd47140f6ab73f6d6b6675fb1610bb5e9b5d96fe5"
                            },
                            {
                                "name": "eth_sold",
                                "type": "uint256",
                                "value": "99,125,000,000,000,000"
                            },
                            {
                                "name": "tokens_bought",
                                "type": "uint256",
                                "value": "68,978,832,144,532,570,584"
                            }
                        ],
                        "signature": "TokenPurchase(address,uint256,uint256)"
                    },
                    "id": 13,
                    "logData": "0x",
                    "logDecoded": true,
                    "operation": "EVENT",
                    "revert": false,
                    "status": true,
                    "topics": [
                        "0xcd60aa75dea3072fbc07ae6d7d856b5dc5f4eee88854f5b4abf7b680ef8bc50f",
                        "0x000000000000000000000000d47140f6ab73f6d6b6675fb1610bb5e9b5d96fe5",
                        "0x000000000000000000000000000000000000000000000000016029a98d5c5000",
                        "0x000000000000000000000000000000000000000000000003bd460a5eb42901d8"
                    ]
                },
                "nodeType": 1
            },
            "14": {
                "invocation": {
                    "address": "0x6b175474e89094c44da98b954eedeac495271d0f",
                    "callData": "0x00000000000000000000000074de5d4fcbf63e00296fd95d33236b9794016631",
                    "decodedMethod": {
                        "callParams": [
                            {
                                "name": "",
                                "type": "address",
                                "value": "0x74de5d4fcbf63e00296fd95d33236b9794016631"
                            }
                        ],
                        "constructorArguments": "",
                        "name": "balanceOf",
                        "returnParams": [
                            {
                                "decimalAvailable": true,
                                "name": "",
                                "type": "uint256",
                                "value": "68,978,832,144,532,570,584"
                            }
                        ],
                        "signature": "balanceOf(address)"
                    },
                    "errorInfo": "",
                    "fromAddress": "0x111111125434b319222cdbf8c261674adb56f3ae",
                    "gasUsed": 1302,
                    "id": 14,
                    "methodDecoded": true,
                    "operation": "STATICCALL",
                    "output": "0x000000000000000000000000000000000000000000000003bd460a5eb42901d8",
                    "revert": false,
                    "revertMessage": "",
                    "selector": "0x70a08231",
                    "status": true,
                    "value": "0"
                },
                "nodeType": 0
            },
            "15": {
                "event": {
                    "contract": "0x111111125434b319222cdbf8c261674adb56f3ae",
                    "decodedLog": {
                        "name": "Swapped",
                        "params": [
                            {
                                "name": "sender",
                                "type": "address",
                                "value": "0x74de5d4fcbf63e00296fd95d33236b9794016631"
                            },
                            {
                                "name": "srcToken",
                                "type": "address",
                                "value": "0xeeeeeeeeeeeeeeeeeeeeeeeeeeeeeeeeeeeeeeee"
                            },
                            {
                                "name": "dstToken",
                                "type": "address",
                                "value": "0x6b175474e89094c44da98b954eedeac495271d0f"
                            },
                            {
                                "name": "dstReceiver",
                                "type": "address",
                                "value": "0x74de5d4fcbf63e00296fd95d33236b9794016631"
                            },
                            {
                                "name": "amount",
                                "type": "uint256",
                                "value": "100,000,000,000,000,000"
                            },
                            {
                                "name": "spentAmount",
                                "type": "uint256",
                                "value": "100,000,000,000,000,000"
                            },
                            {
                                "name": "returnAmount",
                                "type": "uint256",
                                "value": "68,978,832,144,532,570,584"
                            },
                            {
                                "name": "minReturnAmount",
                                "type": "uint256",
                                "value": "67,599,255,501,641,919,172"
                            },
                            {
                                "name": "guaranteedAmount",
                                "type": "uint256",
                                "value": "68,978,832,144,532,570,584"
                            },
                            {
                                "name": "referrer",
                                "type": "address",
                                "value": "0x11ededebf63bef0ea2d2d071bdf88f71543ec6fb"
                            }
                        ],
                        "signature": "Swapped(address,address,address,address,uint256,uint256,uint256,uint256,uint256,address)"
                    },
                    "id": 15,
                    "logData": "0x00000000000000000000000074de5d4fcbf63e00296fd95d33236b9794016631000000000000000000000000000000000000000000000000016345785d8a0000000000000000000000000000000000000000000000000000016345785d8a0000000000000000000000000000000000000000000000000003bd460a5eb42901d8000000000000000000000000000000000000000000000003aa20ccb8f83caac4000000000000000000000000000000000000000000000003bd460a5eb42901d800000000000000000000000011ededebf63bef0ea2d2d071bdf88f71543ec6fb",
                    "logDecoded": true,
                    "operation": "EVENT",
                    "revert": false,
                    "status": true,
                    "topics": [
                        "0x76af224a143865a50b41496e1a73622698692c565c1214bc862f18e22d829c5e",
                        "0x00000000000000000000000074de5d4fcbf63e00296fd95d33236b9794016631",
                        "0x000000000000000000000000eeeeeeeeeeeeeeeeeeeeeeeeeeeeeeeeeeeeeeee",
                        "0x0000000000000000000000006b175474e89094c44da98b954eedeac495271d0f"
                    ]
                },
                "nodeType": 1
            },
            "16": {
                "invocation": {
                    "address": "0x6b175474e89094c44da98b954eedeac495271d0f",
                    "callData": "0x00000000000000000000000074de5d4fcbf63e00296fd95d33236b9794016631",
                    "decodedMethod": {
                        "callParams": [
                            {
                                "name": "",
                                "type": "address",
                                "value": "0x74de5d4fcbf63e00296fd95d33236b9794016631"
                            }
                        ],
                        "constructorArguments": "",
                        "name": "balanceOf",
                        "returnParams": [
                            {
                                "decimalAvailable": true,
                                "name": "",
                                "type": "uint256",
                                "value": "68,978,832,144,532,570,584"
                            }
                        ],
                        "signature": "balanceOf(address)"
                    },
                    "errorInfo": "",
                    "fromAddress": "0x74de5d4fcbf63e00296fd95d33236b9794016631",
                    "gasUsed": 1302,
                    "id": 16,
                    "methodDecoded": true,
                    "operation": "STATICCALL",
                    "output": "0x000000000000000000000000000000000000000000000003bd460a5eb42901d8",
                    "revert": false,
                    "revertMessage": "",
                    "selector": "0x70a08231",
                    "status": true,
                    "value": "0"
                },
                "nodeType": 0
            },
            "17": {
                "invocation": {
                    "address": "0x6b175474e89094c44da98b954eedeac495271d0f",
                    "callData": "0x000000000000000000000000338f9d033ed239a14580aa3bd2e3ec250db26706000000000000000000000000000000000000000000000003bd460a5eb42901d8",
                    "decodedMethod": {
                        "callParams": [
                            {
                                "name": "dst",
                                "type": "address",
                                "value": "0x338f9d033ed239a14580aa3bd2e3ec250db26706"
                            },
                            {
                                "decimalAvailable": true,
                                "name": "wad",
                                "type": "uint256",
                                "value": "68,978,832,144,532,570,584"
                            }
                        ],
                        "constructorArguments": "",
                        "name": "transfer",
                        "returnParams": [
                            {
                                "name": "",
                                "type": "bool",
                                "value": true
                            }
                        ],
                        "signature": "transfer(address,uint256)"
                    },
                    "errorInfo": "",
                    "fromAddress": "0x74de5d4fcbf63e00296fd95d33236b9794016631",
                    "gasUsed": 26174,
                    "id": 17,
                    "methodDecoded": true,
                    "operation": "CALL",
                    "output": "0x0000000000000000000000000000000000000000000000000000000000000001",
                    "revert": false,
                    "revertMessage": "",
                    "selector": "0xa9059cbb",
                    "status": true,
                    "value": "0"
                },
                "nodeType": 0
            },
            "18": {
                "event": {
                    "contract": "0x6b175474e89094c44da98b954eedeac495271d0f",
                    "decodedLog": {
                        "name": "Transfer",
                        "params": [
                            {
                                "name": "src",
                                "type": "address",
                                "value": "0x74de5d4fcbf63e00296fd95d33236b9794016631"
                            },
                            {
                                "name": "dst",
                                "type": "address",
                                "value": "0x338f9d033ed239a14580aa3bd2e3ec250db26706"
                            },
                            {
                                "decimalAvailable": true,
                                "name": "wad",
                                "type": "uint256",
                                "value": "68,978,832,144,532,570,584"
                            }
                        ],
                        "signature": "Transfer(address,address,uint256)"
                    },
                    "id": 18,
                    "logData": "0x000000000000000000000000000000000000000000000003bd460a5eb42901d8",
                    "logDecoded": true,
                    "operation": "EVENT",
                    "revert": false,
                    "status": true,
                    "topics": [
                        "0xddf252ad1be2c89b69c2b068fc378daa952ba7f163c4a11628f55a4df523b3ef",
                        "0x00000000000000000000000074de5d4fcbf63e00296fd95d33236b9794016631",
                        "0x000000000000000000000000338f9d033ed239a14580aa3bd2e3ec250db26706"
                    ]
                },
                "nodeType": 1
            },
            "19": {
                "event": {
                    "contract": "0x881d40237659c251811cec9c364ef91dc08d300c",
                    "decodedLog": {
                        "name": "Swap",
                        "params": [
                            {
                                "name": "aggregatorId",
                                "type": "string",
                                "value": "0x7ea417b1b2720ed2293de2ef0d6a40168b2e44d1d3521237846bae19bb6ce194"
                            },
                            {
                                "name": "sender",
                                "type": "address",
                                "value": "0x338f9d033ed239a14580aa3bd2e3ec250db26706"
                            }
                        ],
                        "signature": "Swap(string,address)"
                    },
                    "id": 19,
                    "logData": "0x",
                    "logDecoded": true,
                    "operation": "EVENT",
                    "revert": false,
                    "status": true,
                    "topics": [
                        "0xbeee1e6e7fe307ddcf84b0a16137a4430ad5e2480fc4f4a8e250ab56ccd7630d",
                        "0x7ea417b1b2720ed2293de2ef0d6a40168b2e44d1d3521237846bae19bb6ce194",
                        "0x000000000000000000000000338f9d033ed239a14580aa3bd2e3ec250db26706"
                    ]
                },
                "nodeType": 1
            },
            "2": {
                "invocation": {
                    "address": "0xca39643da6dca2a1cea5f99fe0d7d99ffcce5e03",
                    "callData": "0x000000000000000000000000338f9d033ed239a14580aa3bd2e3ec250db26706000000000000000000000000111111125434b319222cdbf8c261674adb56f3ae000000000000000000000000111111125434b319222cdbf8c261674adb56f3ae90411a320000000000000000000000000000000000000000000000000000000000000000000000000000000000000000000000000000000000000000000000000000000000000000000000006b175474e89094c44da98b954eedeac495271d0f000000000000000000000000000000000000000000000000016345785d8a0000000000000000000000000000000000000000000000000003aa20ccb8f83caac400000000000000000000000000000000000000000000000000000000000001200000000000000000000000000000000000000000000000000000000000000460000000000000000000000000d47140f6ab73f6d6b6675fb1610bb5e9b5d96fe5000000000000000000000000000000000000000000000000000000000000006000000000000000000000000000000000000000000000000000000000000001c0000000000000000000000000eeeeeeeeeeeeeeeeeeeeeeeeeeeeeeeeeeeeeeee0000000000000000000000006b175474e89094c44da98b954eedeac495271d0f000000000000000000000000d47140f6ab73f6d6b6675fb1610bb5e9b5d96fe500000000000000000000000074de5d4fcbf63e00296fd95d33236b9794016631000000000000000000000000000000000000000000000000016345785d8a0000000000000000000000000000000000000000000000000003aa20ccb8f83caac4000000000000000000000000000000000000000000000003bd460a5eb42901d8000000000000000000000000000000000000000000000000000000000000000000000000000000000000000011ededebf63bef0ea2d2d071bdf88f71543ec6fb0000000000000000000000000000000000000000000000000000000000000140000000000000000000000000000000000000000000000000000000000000000000000000000000000000000000000000000000000000000000000000000000020000000000000000000000000000000000000000000000000000000000000040000000000000000000000000000000000000000000000000000000000000016000000000000000000000000000000000000000000000000000000000000000000000000000000000000000000000000000000000000000000000000000000000000000000000000000000000000000000000000000000000000000000000000000000000000000000000000000000000000000000000000000000000000000800000000000000000000000000000000000000000000000000000000000000064d1660f99000000000000000000000000eeeeeeeeeeeeeeeeeeeeeeeeeeeeeeeeeeeeeeee00000000000000000000000011ededebf63bef0ea2d2d071bdf88f71543ec6fb00000000000000000000000000000000000000000000000000031bced02db000000000000000000000000000000000000000000000000000000000008000000000000000000000002a1530c4c41db0b0b2bb646cb5eb1a67b71586670000000000000000000000000000000000000000000000000000000000000000000000000000000000000000000000000000000000000000016029a98d5c500000000000000000000000000000000000000000000000000000000000000000800000000000000000000000000000000000000000000000000000000000000064ad65d76d0000000000000000000000000000000000000000000000000000000000000001000000000000000000000000000000000000000000000000000000005feaaaaa00000000000000000000000074de5d4fcbf63e00296fd95d33236b979401663100000000000000000000000000000000000000000000000000000000",
                    "decodedMethod": null,
                    "errorInfo": "",
                    "fromAddress": "0x74de5d4fcbf63e00296fd95d33236b9794016631",
                    "gasUsed": 132211,
                    "id": 2,
                    "methodDecoded": false,
                    "operation": "DELEGATECALL",
                    "output": "",
                    "revert": false,
                    "revertMessage": "",
                    "selector": "0x907b6738",
                    "status": true,
                    "value": "0.1"
                },
                "nodeType": 0
            },
            "3": {
                "invocation": {
                    "address": "0x111111125434b319222cdbf8c261674adb56f3ae",
                    "callData": "0x000000000000000000000000d47140f6ab73f6d6b6675fb1610bb5e9b5d96fe5000000000000000000000000000000000000000000000000000000000000006000000000000000000000000000000000000000000000000000000000000001c0000000000000000000000000eeeeeeeeeeeeeeeeeeeeeeeeeeeeeeeeeeeeeeee0000000000000000000000006b175474e89094c44da98b954eedeac495271d0f000000000000000000000000d47140f6ab73f6d6b6675fb1610bb5e9b5d96fe500000000000000000000000074de5d4fcbf63e00296fd95d33236b9794016631000000000000000000000000000000000000000000000000016345785d8a0000000000000000000000000000000000000000000000000003aa20ccb8f83caac4000000000000000000000000000000000000000000000003bd460a5eb42901d8000000000000000000000000000000000000000000000000000000000000000000000000000000000000000011ededebf63bef0ea2d2d071bdf88f71543ec6fb0000000000000000000000000000000000000000000000000000000000000140000000000000000000000000000000000000000000000000000000000000000000000000000000000000000000000000000000000000000000000000000000020000000000000000000000000000000000000000000000000000000000000040000000000000000000000000000000000000000000000000000000000000016000000000000000000000000000000000000000000000000000000000000000000000000000000000000000000000000000000000000000000000000000000000000000000000000000000000000000000000000000000000000000000000000000000000000000000000000000000000000000000000000000000000000000800000000000000000000000000000000000000000000000000000000000000064d1660f99000000000000000000000000eeeeeeeeeeeeeeeeeeeeeeeeeeeeeeeeeeeeeeee00000000000000000000000011ededebf63bef0ea2d2d071bdf88f71543ec6fb00000000000000000000000000000000000000000000000000031bced02db000000000000000000000000000000000000000000000000000000000008000000000000000000000002a1530c4c41db0b0b2bb646cb5eb1a67b71586670000000000000000000000000000000000000000000000000000000000000000000000000000000000000000000000000000000000000000016029a98d5c500000000000000000000000000000000000000000000000000000000000000000800000000000000000000000000000000000000000000000000000000000000064ad65d76d0000000000000000000000000000000000000000000000000000000000000001000000000000000000000000000000000000000000000000000000005feaaaaa00000000000000000000000074de5d4fcbf63e00296fd95d33236b979401663100000000000000000000000000000000000000000000000000000000",
                    "decodedMethod": {
                        "callParams": [
                            {
                                "name": "caller",
                                "type": "address",
                                "value": "0xd47140f6ab73f6d6b6675fb1610bb5e9b5d96fe5"
                            },
                            {
                                "name": "desc",
                                "type": "(address,address,address,address,uint256,uint256,uint256,uint256,address,bytes)",
                                "value": [
                                    {
                                        "name": "srcToken",
                                        "type": "address",
                                        "value": "0xeeeeeeeeeeeeeeeeeeeeeeeeeeeeeeeeeeeeeeee"
                                    },
                                    {
                                        "name": "dstToken",
                                        "type": "address",
                                        "value": "0x6b175474e89094c44da98b954eedeac495271d0f"
                                    },
                                    {
                                        "name": "srcReceiver",
                                        "type": "address",
                                        "value": "0xd47140f6ab73f6d6b6675fb1610bb5e9b5d96fe5"
                                    },
                                    {
                                        "name": "dstReceiver",
                                        "type": "address",
                                        "value": "0x74de5d4fcbf63e00296fd95d33236b9794016631"
                                    },
                                    {
                                        "name": "amount",
                                        "type": "uint256",
                                        "value": "100,000,000,000,000,000"
                                    },
                                    {
                                        "name": "minReturnAmount",
                                        "type": "uint256",
                                        "value": "67,599,255,501,641,919,172"
                                    },
                                    {
                                        "name": "guaranteedAmount",
                                        "type": "uint256",
                                        "value": "68,978,832,144,532,570,584"
                                    },
                                    {
                                        "name": "flags",
                                        "type": "uint256",
                                        "value": "0"
                                    },
                                    {
                                        "name": "referrer",
                                        "type": "address",
                                        "value": "0x11ededebf63bef0ea2d2d071bdf88f71543ec6fb"
                                    },
                                    {
                                        "name": "permit",
                                        "type": "bytes",
                                        "value": "0x"
                                    }
                                ]
                            },
                            {
                                "name": "calls",
                                "type": "(uint256,uint256,uint256,bytes)[]",
                                "value": [
                                    [
                                        {
                                            "name": "targetWithMandatory",
                                            "type": "uint256",
                                            "value": "0"
                                        },
                                        {
                                            "name": "gasLimit",
                                            "type": "uint256",
                                            "value": "0"
                                        },
                                        {
                                            "name": "value",
                                            "type": "uint256",
                                            "value": "0"
                                        },
                                        {
                                            "name": "data",
                                            "type": "bytes",
                                            "value": "0xd1660f99000000000000000000000000eeeeeeeeeeeeeeeeeeeeeeeeeeeeeeeeeeeeeeee00000000000000000000000011ededebf63bef0ea2d2d071bdf88f71543ec6fb00000000000000000000000000000000000000000000000000031bced02db000"
                                        }
                                    ],
                                    [
                                        {
                                            "name": "targetWithMandatory",
                                            "type": "uint256",
                                            "value": "57,896,044,618,658,097,711,785,492,504,584,204,103,004,514,224,406,126,930,861,996,185,030,281,758,311"
                                        },
                                        {
                                            "name": "gasLimit",
                                            "type": "uint256",
                                            "value": "0"
                                        },
                                        {
                                            "name": "value",
                                            "type": "uint256",
                                            "value": "99,125,000,000,000,000"
                                        },
                                        {
                                            "name": "data",
                                            "type": "bytes",
                                            "value": "0xad65d76d0000000000000000000000000000000000000000000000000000000000000001000000000000000000000000000000000000000000000000000000005feaaaaa00000000000000000000000074de5d4fcbf63e00296fd95d33236b9794016631"
                                        }
                                    ]
                                ]
                            }
                        ],
                        "constructorArguments": "",
                        "name": "swap",
                        "returnParams": [
                            {
                                "name": "returnAmount",
                                "type": "uint256",
                                "value": "68,978,832,144,532,570,584"
                            }
                        ],
                        "signature": "swap(address,(address,address,address,address,uint256,uint256,uint256,uint256,address,bytes),(uint256,uint256,uint256,bytes)[])"
                    },
                    "errorInfo": "",
                    "fromAddress": "0x74de5d4fcbf63e00296fd95d33236b9794016631",
                    "gasUsed": 87782,
                    "id": 3,
                    "methodDecoded": true,
                    "operation": "CALL",
                    "output": "0x000000000000000000000000000000000000000000000003bd460a5eb42901d8",
                    "revert": false,
                    "revertMessage": "",
                    "selector": "0x90411a32",
                    "status": true,
                    "value": "0.1"
                },
                "nodeType": 0
            },
            "4": {
                "invocation": {
                    "address": "0x6b175474e89094c44da98b954eedeac495271d0f",
                    "callData": "0x00000000000000000000000074de5d4fcbf63e00296fd95d33236b9794016631",
                    "decodedMethod": {
                        "callParams": [
                            {
                                "name": "",
                                "type": "address",
                                "value": "0x74de5d4fcbf63e00296fd95d33236b9794016631"
                            }
                        ],
                        "constructorArguments": "",
                        "name": "balanceOf",
                        "returnParams": [
                            {
                                "decimalAvailable": true,
                                "name": "",
                                "type": "uint256",
                                "value": "0"
                            }
                        ],
                        "signature": "balanceOf(address)"
                    },
                    "errorInfo": "",
                    "fromAddress": "0x111111125434b319222cdbf8c261674adb56f3ae",
                    "gasUsed": 1302,
                    "id": 4,
                    "methodDecoded": true,
                    "operation": "STATICCALL",
                    "output": "0x0000000000000000000000000000000000000000000000000000000000000000",
                    "revert": false,
                    "revertMessage": "",
                    "selector": "0x70a08231",
                    "status": true,
                    "value": "0"
                },
                "nodeType": 0
            },
            "5": {
                "invocation": {
                    "address": "0xd47140f6ab73f6d6b6675fb1610bb5e9b5d96fe5",
                    "callData": "0x000000000000000000000000000000000000000000000000000000000000002000000000000000000000000000000000000000000000000000000000000000020000000000000000000000000000000000000000000000000000000000000040000000000000000000000000000000000000000000000000000000000000016000000000000000000000000000000000000000000000000000000000000000000000000000000000000000000000000000000000000000000000000000000000000000000000000000000000000000000000000000000000000000000000000000000000000000000000000000000000000000000000000000000000000000800000000000000000000000000000000000000000000000000000000000000064d1660f99000000000000000000000000eeeeeeeeeeeeeeeeeeeeeeeeeeeeeeeeeeeeeeee00000000000000000000000011ededebf63bef0ea2d2d071bdf88f71543ec6fb00000000000000000000000000000000000000000000000000031bced02db000000000000000000000000000000000000000000000000000000000008000000000000000000000002a1530c4c41db0b0b2bb646cb5eb1a67b71586670000000000000000000000000000000000000000000000000000000000000000000000000000000000000000000000000000000000000000016029a98d5c500000000000000000000000000000000000000000000000000000000000000000800000000000000000000000000000000000000000000000000000000000000064ad65d76d0000000000000000000000000000000000000000000000000000000000000001000000000000000000000000000000000000000000000000000000005feaaaaa00000000000000000000000074de5d4fcbf63e00296fd95d33236b979401663100000000000000000000000000000000000000000000000000000000",
                    "decodedMethod": {
                        "callParams": [
                            {
                                "name": "desc",
                                "type": "(uint256,uint256,uint256,bytes)[]",
                                "value": [
                                    [
                                        {
                                            "name": "target",
                                            "type": "uint256",
                                            "value": "0"
                                        },
                                        {
                                            "name": "gasLimit",
                                            "type": "uint256",
                                            "value": "0"
                                        },
                                        {
                                            "name": "value",
                                            "type": "uint256",
                                            "value": "0"
                                        },
                                        {
                                            "name": "data",
                                            "type": "bytes",
                                            "value": "0xd1660f99000000000000000000000000eeeeeeeeeeeeeeeeeeeeeeeeeeeeeeeeeeeeeeee00000000000000000000000011ededebf63bef0ea2d2d071bdf88f71543ec6fb00000000000000000000000000000000000000000000000000031bced02db000"
                                        }
                                    ],
                                    [
                                        {
                                            "name": "target",
                                            "type": "uint256",
                                            "value": "57,896,044,618,658,097,711,785,492,504,584,204,103,004,514,224,406,126,930,861,996,185,030,281,758,311"
                                        },
                                        {
                                            "name": "gasLimit",
                                            "type": "uint256",
                                            "value": "0"
                                        },
                                        {
                                            "name": "value",
                                            "type": "uint256",
                                            "value": "99,125,000,000,000,000"
                                        },
                                        {
                                            "name": "data",
                                            "type": "bytes",
                                            "value": "0xad65d76d0000000000000000000000000000000000000000000000000000000000000001000000000000000000000000000000000000000000000000000000005feaaaaa00000000000000000000000074de5d4fcbf63e00296fd95d33236b9794016631"
                                        }
                                    ]
                                ]
                            }
                        ],
                        "constructorArguments": "",
                        "name": "makeCalls",
                        "returnParams": [],
                        "signature": "makeCalls((uint256,uint256,uint256,bytes)[])"
                    },
                    "errorInfo": "",
                    "fromAddress": "0x111111125434b319222cdbf8c261674adb56f3ae",
                    "gasUsed": 64846,
                    "id": 5,
                    "methodDecoded": true,
                    "operation": "CALL",
                    "output": "",
                    "revert": false,
                    "revertMessage": "",
                    "selector": "0xa8920d2b",
                    "status": true,
                    "value": "0.1"
                },
                "nodeType": 0
            },
            "6": {
                "invocation": {
                    "address": "0xd47140f6ab73f6d6b6675fb1610bb5e9b5d96fe5",
                    "callData": "0x000000000000000000000000eeeeeeeeeeeeeeeeeeeeeeeeeeeeeeeeeeeeeeee00000000000000000000000011ededebf63bef0ea2d2d071bdf88f71543ec6fb00000000000000000000000000000000000000000000000000031bced02db000",
                    "decodedMethod": {
                        "callParams": [
                            {
                                "name": "token",
                                "type": "address",
                                "value": "0xeeeeeeeeeeeeeeeeeeeeeeeeeeeeeeeeeeeeeeee"
                            },
                            {
                                "name": "to",
                                "type": "address",
                                "value": "0x11ededebf63bef0ea2d2d071bdf88f71543ec6fb"
                            },
                            {
                                "name": "value",
                                "type": "uint256",
                                "value": "875,000,000,000,000"
                            }
                        ],
                        "constructorArguments": "",
                        "name": "safeTransfer",
                        "returnParams": [],
                        "signature": "safeTransfer(address,address,uint256)"
                    },
                    "errorInfo": "",
                    "fromAddress": "0xd47140f6ab73f6d6b6675fb1610bb5e9b5d96fe5",
                    "gasUsed": 8132,
                    "id": 6,
                    "methodDecoded": true,
                    "operation": "CALL",
                    "output": "",
                    "revert": false,
                    "revertMessage": "",
                    "selector": "0xd1660f99",
                    "status": true,
                    "value": "0"
                },
                "nodeType": 0
            },
            "7": {
                "invocation": {
                    "address": "0x11ededebf63bef0ea2d2d071bdf88f71543ec6fb",
                    "callData": "0x",
                    "decodedMethod": null,
                    "errorInfo": "",
                    "fromAddress": "0xd47140f6ab73f6d6b6675fb1610bb5e9b5d96fe5",
                    "gasUsed": 0,
                    "id": 7,
                    "methodDecoded": false,
                    "operation": "CALL",
                    "output": "",
                    "revert": false,
                    "revertMessage": "",
                    "selector": "fallback",
                    "status": true,
                    "value": "0.000875"
                },
                "nodeType": 0
            },
            "8": {
                "invocation": {
                    "address": "0x2a1530c4c41db0b0b2bb646cb5eb1a67b7158667",
                    "callData": "0x0000000000000000000000000000000000000000000000000000000000000001000000000000000000000000000000000000000000000000000000005feaaaaa00000000000000000000000074de5d4fcbf63e00296fd95d33236b9794016631",
                    "decodedMethod": {
                        "callParams": [
                            {
                                "name": "min_tokens",
                                "type": "uint256",
                                "value": "1"
                            },
                            {
                                "name": "deadline",
                                "type": "uint256",
                                "value": "1,609,214,634"
                            },
                            {
                                "name": "recipient",
                                "type": "address",
                                "value": "0x74de5d4fcbf63e00296fd95d33236b9794016631"
                            }
                        ],
                        "constructorArguments": "",
                        "name": "ethToTokenTransferInput",
                        "returnParams": [
                            {
                                "name": "out",
                                "type": "uint256",
                                "value": "68,978,832,144,532,570,584"
                            }
                        ],
                        "signature": "ethToTokenTransferInput(uint256,uint256,address)"
                    },
                    "errorInfo": "",
                    "fromAddress": "0xd47140f6ab73f6d6b6675fb1610bb5e9b5d96fe5",
                    "gasUsed": 45711,
                    "id": 8,
                    "methodDecoded": true,
                    "operation": "CALL",
                    "output": "0x000000000000000000000000000000000000000000000003bd460a5eb42901d800000001000000000000000000000000000000000000000000000000000000005feaaaaa00000000000000000000000074de5d4fcbf63e00296fd95d33236b9794016631000000000000000000000000000000000000000000000000000000000000000000000000000000000000000000000000000000000000000000000000000000000000000000000000000000000000000000000000000000000000000000000000000000000000000000000000000000000000000000000000000000000000000000000000000000000000000000000000000000000000000000000000000000000000000000000000000000000000000000000000000000000000000000000000000000000000000000000000000000000000000000000000000000000000000000000000000000000000000000000000000000000000000000000000000000000000000000000000000000000000000000000000000000000000000000000000000000000000000000000000000000000000000000000000000000000000000000000000000000000000000000000000000000000000000000000000000000000000000000000000000000000000000000000000000000000000000000000000000000000000000000000000000000000000000000000000000000000000000000000000000000000000000000000000000000000000000000000000000000000000000000000000000000000000000000000000000000000000000000000000000000000000000000000000000000000000000000000000000000000000000000000000000000000000000000000000000000000000000000000000000000000000000000000000000000000000000000000000000000000000000000000000000000000000000000000000000000000000000000000000000000000000000000000000000000000000000000000000000000000000000000000000000000000000000000000000000000000000000000000000000000000000000000000000000000000000000000000000000000000000000000000000000000000000000000000000000000000000000000000000000000000000000000000000000000000000000000000000000000000000000000000000000000000000000000000000000000000000000000000000000000000000000000000000000000000000000000000000000000000000000000000000000000000000000000000000000000000000000000000000000000000000000000000000000000000000000000000000000000000000000000000000000000000000000000000000000000000000000000000000000000000000000000000000000000000000000000000000000000000000000000000000000000000000000000000000000000000000000000000000000000000000000000000000000000000000000000000000000000000000000000000000000000000000000000000000000000000000000000000000000000000000000000000000000000000000000000000000000000000000000000000000000000000000000000000000000000000000000000000000000000000000000000000000000000000000000000000000000000000000000000000000000000000000000000000000000000000000000000000000000000000000000000000000000000000000000000000000000000000000000000000000000000000000000000000000000000000000000000000000000000000000000000000000000000000000000000000000000000000000000000000000000000000000000000000000000000000000000000000000000000000000000000000000000000000000000000000000000000000000000000000000000000000000000000000000000000000000000000000000000000000000000000000000000000000000000000000000000000000000000000000000000000000000000000000000000000000000000000000000000000000000000000000000000000000000000000000000000000000000000000000000000000000000000000000000000000000000000000000000000000000000000000000000000000000000000000000000000000000000000000000000000000000000000000000000000000000000000000000000000000000000000000000000000000000000000000000000000000000000000000000000000000000000000000000000000000000000000000000000000000000000000000000000000000000000000000000000000000000000000000000000000000000000000000000000000000000000000000000000000000000000000000000000000000000000000000000000000000000000000000000000000000000000000000000000000000000000000000000000000000000000000000000000000000000000000000000000000000000000000000000000000000000000000000000000000000000000000000000000000000000000000000000000000000000000000000000000000000000000000000000000000000000000000000000000000000000000000000000000000000000000000000000000000000000000000000000000000000000000000000000000000000000000000000000000000000000000000000000000000000000000000000000000000000000000000000000000000000000000000000000000000000000000000000000000000000000000000000000000000000000000000000000000000000000000000000000000000000000000000000000000000000000000000000000000000000000000000000000000000000000000000000000000000000000000000000000000000000000000000000000000000000000000000000000000000000000000000000000000000000000000000000000000000000000000000000000000000000000000000000000000000000000000000000000000000000000000000000000000000000000000000000000000000000000000000000000000000000000000000000000000000000000000000000000000000000000000000000000000000000000000000000000000000000000000000000000000000000000000000000000000000000000000000000000000000000000000000000000000000000000000000000000000000000000000000000000000000000000000000000000000000000000000000000000000000000000000000000000000000000000000000000000000000000000000000000000000000000000000000000000000000000000000000000000000000000000000000000000000000000000000000000000000000000000000000000000000000000000000000000000000000000000000000000000000000000000000000000000000000000000000000000000000000000000000000000000000000000000000000000000000000000000000000000000000000000000000000000000000000000000000000000000000000000000000000000000000000000000000000000000000000000000000000000000000000000000000000000000000000000000000000000000000000000000000000000000000000000000000000000000000000000000000000000000000000000000000000000000000000000000000000000000000000000000000000000000000000000000000000000000000000000000000000000000000000000000000000000000000000000000000000000000000000000000000000000000000000000000000000000000000000000000000000000000000000000000000000000000000000000000000000000000000000000000000000000000000000000000000000000000000000000000000000000000000000000000000000000000000000000000000000000000000000000000000000000000000000000000000000000000000000000000000000000000000000000000000000000000000000000000000000000000000000000000000000000000000000000000000000000000000000000000000000000000000000000000000000000000000000000000000000000000000000000000000000000000000000000000000000000000000000000000000000000000000000000000000000000000000000000000000000000000000000000000000000000000000000000000000000000000000000000000000000000000000000000000000000000000000000000000000000000000000000000000000000000000000000000000000000000000000000000000000000000000000000000000000000000000000000000000000000000000000000000000000000000000000000000000000000000000000000000000000000000000000000000000000000000000000000000000000000000000000000000000000000000000000000000000000000000000000000000000000000000000000000000000000000000000000000000000000000000000000000000000000000000000000000000000000000000000000000000000000000000000000000000000000000000000000000000000000000000000000000000000000000000000000000000000000000000000000000000000000000000000000000000000000000000000000000000000000000000000000000000000000000000000000000000000000000000000000000000000000000000000000000000000000000000000000000000000000000000000000000000000000000000000000000000000000000000000000000000000000000000000000000000000000000000000000000000000000000000000000000000000000000000000000000000000000000000000000000000000000000000000000000000000000000000000000000000000000000000000000000000000000000000000000000000000000000000000000000000000000000000000000000000000000000000000000000000000000000000000000000000000000000000000000000000000000000000000000000000000000000000000000000000000000000000000000000000000000000000000000000000000000000000000000000000000000000000000000000000000000000000000000000000000000000000000000000000000000000000000000000000000000000000000000000000000000000000000000000000000000000000000000000000000000000000000000000000000000000000000000000000000000000000000000000000000000000000000000000000000000000000000000000000000000000000000000000000000000000000000000000000000000000000000000000000000000000000000000000000000000000000000000000000000000000000000000000000000000000000000000000000000000000000000000000000000000000000000000000000000000000000000000000000000000000000000000000000000000000000000000000000000000000000000000000000000000000000000000000000000000000000000000000000000000000000000000000000000000000000000000000000000000000000000000000000000000000000000000",
                    "revert": false,
                    "revertMessage": "",
                    "selector": "0xad65d76d",
                    "status": true,
                    "value": "0.099125"
                },
                "nodeType": 0
            },
            "9": {
                "invocation": {
                    "address": "0x2157a7894439191e520825fe9399ab8655e0f708",
                    "callData": "0x0000000000000000000000000000000000000000000000000000000000000001000000000000000000000000000000000000000000000000000000005feaaaaa00000000000000000000000074de5d4fcbf63e00296fd95d33236b9794016631",
                    "decodedMethod": {
                        "callParams": [
                            {
                                "name": "min_tokens",
                                "type": "uint256",
                                "value": "1"
                            },
                            {
                                "name": "deadline",
                                "type": "uint256",
                                "value": "1,609,214,634"
                            },
                            {
                                "name": "recipient",
                                "type": "address",
                                "value": "0x74de5d4fcbf63e00296fd95d33236b9794016631"
                            }
                        ],
                        "constructorArguments": "",
                        "name": "ethToTokenTransferInput",
                        "returnParams": [
                            {
                                "name": "out",
                                "type": "uint256",
                                "value": "68,978,832,144,532,570,584"
                            }
                        ],
                        "signature": "ethToTokenTransferInput(uint256,uint256,address)"
                    },
                    "errorInfo": "",
                    "fromAddress": "0x2a1530c4c41db0b0b2bb646cb5eb1a67b7158667",
                    "gasUsed": 44535,
                    "id": 9,
                    "methodDecoded": true,
                    "operation": "DELEGATECALL",
                    "output": "0x000000000000000000000000000000000000000000000003bd460a5eb42901d8",
                    "revert": false,
                    "revertMessage": "",
                    "selector": "0xad65d76d",
                    "status": true,
                    "value": "0.099125"
                },
                "nodeType": 0
            }
        },
        "gasFlame": [
            {
                "children": [
                    {
                        "children": [
                            {
                                "children": [],
                                "depth": 0,
                                "name": "Initial Gas",
                                "value": 31060
                            },
                            {
                                "children": [
                                    {
                                        "children": [
                                            {
                                                "children": [
                                                    {
                                                        "children": [
                                                            {
                                                                "children": [],
                                                                "depth": 4,
                                                                "name": "balanceOf",
                                                                "value": 1302
                                                            },
                                                            {
                                                                "children": [
                                                                    {
                                                                        "children": [
                                                                            {
                                                                                "children": [],
                                                                                "depth": 6,
                                                                                "name": "fallback",
                                                                                "value": 0
                                                                            }
                                                                        ],
                                                                        "depth": 5,
                                                                        "name": "safeTransfer",
                                                                        "value": 8132
                                                                    },
                                                                    {
                                                                        "children": [
                                                                            {
                                                                                "children": [
                                                                                    {
                                                                                        "children": [],
                                                                                        "depth": 7,
                                                                                        "name": "balanceOf",
                                                                                        "value": 1302
                                                                                    },
                                                                                    {
                                                                                        "children": [],
                                                                                        "depth": 7,
                                                                                        "name": "transfer",
                                                                                        "value": 30374
                                                                                    }
                                                                                ],
                                                                                "depth": 6,
                                                                                "name": "ethToTokenTransferInput",
                                                                                "value": 44535
                                                                            }
                                                                        ],
                                                                        "depth": 5,
                                                                        "name": "ethToTokenTransferInput",
                                                                        "value": 45711
                                                                    }
                                                                ],
                                                                "depth": 4,
                                                                "name": "makeCalls",
                                                                "value": 64846
                                                            },
                                                            {
                                                                "children": [],
                                                                "depth": 4,
                                                                "name": "balanceOf",
                                                                "value": 1302
                                                            }
                                                        ],
                                                        "depth": 3,
                                                        "name": "swap",
                                                        "value": 87782
                                                    },
                                                    {
                                                        "children": [],
                                                        "depth": 3,
                                                        "name": "balanceOf",
                                                        "value": 1302
                                                    },
                                                    {
                                                        "children": [],
                                                        "depth": 3,
                                                        "name": "transfer",
                                                        "value": 26174
                                                    }
                                                ],
                                                "depth": 2,
                                                "name": "0x907b6738",
                                                "value": 132211
                                            }
                                        ],
                                        "depth": 1,
                                        "name": "swap",
                                        "value": 137915
                                    }
                                ],
                                "depth": 0,
                                "name": "Executed Gas",
                                "value": 164769
                            }
                        ],
                        "depth": -1,
                        "name": "Actual Gas Used",
                        "value": 172429
                    },
                    {
                        "children": [],
                        "depth": -1,
                        "name": "Refunded Gas",
                        "value": 23400
                    }
                ],
                "depth": -2,
                "name": "Total Gas",
                "value": 195829
            }
        ],
        "isConfirmed": true,
        "mainTrace": [
            {
                "children": [
                    {
                        "children": [
                            {
                                "children": [
                                    {
                                        "children": [
                                            {
                                                "children": [
                                                    {
                                                        "children": [],
                                                        "depth": 4,
                                                        "id": 4,
                                                        "order": 4
                                                    },
                                                    {
                                                        "children": [
                                                            {
                                                                "children": [
                                                                    {
                                                                        "children": [],
                                                                        "depth": 6,
                                                                        "id": 7,
                                                                        "order": 7
                                                                    }
                                                                ],
                                                                "depth": 5,
                                                                "id": 6,
                                                                "order": 6
                                                            },
                                                            {
                                                                "children": [
                                                                    {
                                                                        "children": [
                                                                            {
                                                                                "children": [],
                                                                                "depth": 7,
                                                                                "id": 10,
                                                                                "order": 10
                                                                            },
                                                                            {
                                                                                "children": [
                                                                                    {
                                                                                        "children": [],
                                                                                        "depth": 8,
                                                                                        "id": 12,
                                                                                        "order": 12
                                                                                    }
                                                                                ],
                                                                                "depth": 7,
                                                                                "id": 11,
                                                                                "order": 11
                                                                            },
                                                                            {
                                                                                "children": [],
                                                                                "depth": 7,
                                                                                "id": 13,
                                                                                "order": 13
                                                                            }
                                                                        ],
                                                                        "depth": 6,
                                                                        "id": 9,
                                                                        "order": 9
                                                                    }
                                                                ],
                                                                "depth": 5,
                                                                "id": 8,
                                                                "order": 8
                                                            }
                                                        ],
                                                        "depth": 4,
                                                        "id": 5,
                                                        "order": 5
                                                    },
                                                    {
                                                        "children": [],
                                                        "depth": 4,
                                                        "id": 14,
                                                        "order": 14
                                                    },
                                                    {
                                                        "children": [],
                                                        "depth": 4,
                                                        "id": 15,
                                                        "order": 15
                                                    }
                                                ],
                                                "depth": 3,
                                                "id": 3,
                                                "order": 3
                                            },
                                            {
                                                "children": [],
                                                "depth": 3,
                                                "id": 16,
                                                "order": 16
                                            },
                                            {
                                                "children": [
                                                    {
                                                        "children": [],
                                                        "depth": 4,
                                                        "id": 18,
                                                        "order": 18
                                                    }
                                                ],
                                                "depth": 3,
                                                "id": 17,
                                                "order": 17
                                            }
                                        ],
                                        "depth": 2,
                                        "id": 2,
                                        "order": 2
                                    }
                                ],
                                "depth": 1,
                                "id": 1,
                                "order": 1
                            },
                            {
                                "children": [],
                                "depth": 1,
                                "id": 19,
                                "order": 19
                            }
                        ],
                        "depth": 0,
                        "id": 0,
                        "order": 0
                    }
                ],
                "depth": -1,
                "id": -1,
                "order": -1
            }
        ],
        "mainTraceNodeCount": 20,
        "parentIdMap": {
            "0": -1,
            "1": 0,
            "10": 9,
            "11": 9,
            "12": 11,
            "13": 9,
            "14": 3,
            "15": 3,
            "16": 2,
            "17": 2,
            "18": 17,
            "19": 0,
            "2": 1,
            "3": 2,
            "4": 3,
            "5": 3,
            "6": 5,
            "7": 6,
            "8": 5,
            "9": 8
        },
        "tidyTrace": [
            {
                "children": [
                    {
                        "children": [
                            {
                                "children": [
                                    {
                                        "children": [
                                            {
                                                "children": [
                                                    {
                                                        "children": [
                                                            {
                                                                "children": [
                                                                    {
                                                                        "children": [],
                                                                        "depth": 6,
                                                                        "id": 7,
                                                                        "order": 7
                                                                    }
                                                                ],
                                                                "depth": 5,
                                                                "id": 6,
                                                                "order": 6
                                                            },
                                                            {
                                                                "children": [
                                                                    {
                                                                        "children": [
                                                                            {
                                                                                "children": [
                                                                                    {
                                                                                        "children": [],
                                                                                        "depth": 8,
                                                                                        "id": 12,
                                                                                        "order": 12
                                                                                    }
                                                                                ],
                                                                                "depth": 7,
                                                                                "id": 11,
                                                                                "order": 11
                                                                            },
                                                                            {
                                                                                "children": [],
                                                                                "depth": 7,
                                                                                "id": 13,
                                                                                "order": 13
                                                                            }
                                                                        ],
                                                                        "depth": 6,
                                                                        "id": 9,
                                                                        "order": 9
                                                                    }
                                                                ],
                                                                "depth": 5,
                                                                "id": 8,
                                                                "order": 8
                                                            }
                                                        ],
                                                        "depth": 4,
                                                        "id": 5,
                                                        "order": 5
                                                    },
                                                    {
                                                        "children": [],
                                                        "depth": 4,
                                                        "id": 15,
                                                        "order": 15
                                                    }
                                                ],
                                                "depth": 3,
                                                "id": 3,
                                                "order": 3
                                            },
                                            {
                                                "children": [
                                                    {
                                                        "children": [],
                                                        "depth": 4,
                                                        "id": 18,
                                                        "order": 18
                                                    }
                                                ],
                                                "depth": 3,
                                                "id": 17,
                                                "order": 17
                                            }
                                        ],
                                        "depth": 2,
                                        "id": 2,
                                        "order": 2
                                    }
                                ],
                                "depth": 1,
                                "id": 1,
                                "order": 1
                            },
                            {
                                "children": [],
                                "depth": 1,
                                "id": 19,
                                "order": 19
                            }
                        ],
                        "depth": 0,
                        "id": 0,
                        "order": 0
                    }
                ],
                "depth": -1,
                "id": -1,
                "order": -1
            }
        ],
        "tidyTraceNodeCount": 16
    },
    "state_change": {
        "stateChanges": [
            {
                "address": "0x6b175474e89094c44da98b954eedeac495271d0f",
                "erc": "ERC-20",
                "slots": [
                    {
                        "current": "0x0000000000000000000000000000000000000000000034307c5665d2b6050ca0",
                        "key": "0x837c5bfb39eca8230be92373f5cc7e6e47190fceaf54c7a19a912534f1a16c1f",
                        "prev": "0x000000000000000000000000000000000000000000003434399c70316a2e0e78"
                    },
                    {
                        "current": "0x000000000000000000000000000000000000000000000003bd460a5eb42901d8",
                        "key": "0x86681d98db5bc494407c85a6aebe23410cc53a753815632e1fc05f163a565c64",
                        "prev": "0x0000000000000000000000000000000000000000000000000000000000000000"
                    }
                ],
                "storageVariables": [
                    {
                        "name": "balanceOf",
                        "type": "mapping(address => uint256)",
                        "value": {
                            "pairs": [
                                {
                                    "key": "0x2a1530c4c41db0b0b2bb646cb5eb1a67b7158667",
                                    "value": {
                                        "current": "246457460285223981092000",
                                        "prev": "246526439117368513662584",
                                        "typeTag": 1
                                    }
                                },
                                {
                                    "key": "0x338f9d033ed239a14580aa3bd2e3ec250db26706",
                                    "value": {
                                        "current": "68978832144532570584",
                                        "prev": "0",
                                        "typeTag": 1
                                    }
                                }
                            ],
                            "typeTag": 4
                        }
                    }
                ]
            }
        ]
    }
}