{
    "balance_change": {
        "balanceChanges": [
            {
                "account": "0x7aa48b06da6e1571f1368f4cd6853ac6a039657d",
                "assets": [
                    {
                        "address": "0x2c702d98d4d7e2af742f071c2038565b1cc07bef",
                        "amount": "20",
                        "iconUrl": "",
                        "isERC1155": false,
                        "isERC721": false,
                        "sign": false,
                        "value": ""
                    }
                ]
            },
            {
                "account": "0x526f3669c8bd7357c7f563da6a9a33e61338b9a9",
                "assets": [
                    {
                        "address": "0x2c702d98d4d7e2af742f071c2038565b1cc07bef",
                        "amount": "20",
                        "iconUrl": "",
                        "isERC1155": false,
                        "isERC721": false,
                        "sign": true,
                        "value": ""
                    }
                ]
            }
        ]
    },
    "profile": {
        "basic_info": {
            "baseFee": "",
            "blockNumber": 9276144,
            "callData": "0xa9059cbb000000000000000000000000526f3669c8bd7357c7f563da6a9a33e61338b9a9000000000000000000000000000000000000000000000001158e460913d00000",
            "debugEnable": true,
            "errorInfo": "",
            "eventCount": 1,
            "feeRecipient": "0xea674fdde714fd979de3edf0f56aa9716b898ec8",
            "formatValue": "0",
            "gasLimit": 100000,
            "gasPrice": "1",
            "gasUsed": 36037,
            "intTxnCount": 0,
            "internalRevert": false,
            "internalRevertMessage": "",
            "isContractCreation": false,
            "isFlashloan": false,
            "maxFee": "",
            "nonce": 2,
            "overwritedBlockNumber": -1,
            "priorityFee": "",
            "receiver": "0x2c702d98d4d7e2af742f071c2038565b1cc07bef",
            "revertMessage": "",
            "sender": "0x7aa48b06da6e1571f1368f4cd6853ac6a039657d",
            "simulationEnable": true,
            "sourceTxnHash": "0x06ae0b7bc31d36f70b3bfeb2e222c6cc5d4945ea2e9ecddeb6557c5f5afc21ad",
            "status": true,
            "timestamp": "2020-01-14T01:13:17Z",
            "transactionFee": "0.000036037",
            "txnHash": "0x06ae0b7bc31d36f70b3bfeb2e222c6cc5d4945ea2e9ecddeb6557c5f5afc21ad",
            "txnIndex": 148,
            "type": 0,
            "value": "0"
        },
        "fund_flow": [
            {
                "amount": "20",
                "from": "0x7aa48b06da6e1571f1368f4cd6853ac6a039657d",
                "id": 1,
                "isERC1155": false,
                "isERC721": false,
                "isReverted": false,
                "order": 1,
                "to": "0x526f3669c8bd7357c7f563da6a9a33e61338b9a9",
                "token": "0x2c702d98d4d7e2af742f071c2038565b1cc07bef"
            }
        ],
        "token_infos": [
            {
                "address": "0x2c702d98d4d7e2af742f071c2038565b1cc07bef",
                "decimals": 18
            },
            {
                "address": "0xc02aaa39b223fe8d0a0e5c4f27ead9083c756cc2",
                "decimals": 18
            },
            {
                "address": "0xeeeeeeeeeeeeeeeeeeeeeeeeeeeeeeeeeeeeeeee",
                "decimals": 18
            }
        ]
    },
    "address_label": {
        "labels": [
            {
                "address": "0xeeeeeeeeeeeeeeeeeeeeeeeeeeeeeeeeeeeeeeee",
                "label": "Ether"
            },
            {
                "address": "0x2c702d98d4d7e2af742f071c2038565b1cc07bef",
                "label": "S3 COIN (S3C)"
            },
            {
                "address": "0x0000000000000000000000000000000000000001",
                "label": "Precompiled"
            },
            {
                "address": "0x0000000000000000000000000000000000000002",
                "label": "Precompiled"
            },
            {
                "address": "0x0000000000000000000000000000000000000003",
                "label": "Precompiled"
            },
            {
                "address": "0x0000000000000000000000000000000000000004",
                "label": "Precompiled"
            }
        ]
    },
    "trace": {
        "accountLabels": null,
        "dataMap": {
            "-1": {
                "invocation": {
                    "address": "0x7aa48b06da6e1571f1368f4cd6853ac6a039657d",
                    "callData": "",
                    "decodedMethod": null,
                    "errorInfo": "",
                    "fromAddress": "",
                    "gasUsed": 0,
                    "id": -1,
                    "methodDecoded": false,
                    "operation": "",
                    "output": "",
                    "revert": false,
                    "revertMessage": "",
                    "selector": "",
                    "status": false,
                    "value": ""
                },
                "nodeType": 0
            },
            "0": {
                "invocation": {
                    "address": "0x2c702d98d4d7e2af742f071c2038565b1cc07bef",
                    "callData": "0x000000000000000000000000526f3669c8bd7357c7f563da6a9a33e61338b9a9000000000000000000000000000000000000000000000001158e460913d00000",
                    "decodedMethod": {
                        "callParams": [
                            {
                                "name": "recipient",
                                "type": "address",
                                "value": "0x526f3669c8bd7357c7f563da6a9a33e61338b9a9"
                            },
                            {
                                "decimalAvailable": true,
                                "name": "amount",
                                "type": "uint256",
                                "value": "20,000,000,000,000,000,000"
                            }
                        ],
                        "constructorArguments": "",
                        "name": "transfer",
                        "returnParams": [
                            {
                                "name": "",
                                "type": "bool",
                                "value": true
                            }
                        ],
                        "signature": "transfer(address,uint256)"
                    },
                    "errorInfo": "",
                    "fromAddress": "0x7aa48b06da6e1571f1368f4cd6853ac6a039657d",
                    "gasUsed": 36037,
                    "id": 0,
                    "methodDecoded": true,
                    "operation": "CALL",
                    "output": "0x0000000000000000000000000000000000000000000000000000000000000001",
                    "revert": false,
                    "revertMessage": "",
                    "selector": "0xa9059cbb",
                    "status": true,
                    "value": "0"
                },
                "nodeType": 0
            },
            "1": {
                "event": {
                    "contract": "0x2c702d98d4d7e2af742f071c2038565b1cc07bef",
                    "decodedLog": {
                        "name": "Transfer",
                        "params": [
                            {
                                "name": "from",
                                "type": "address",
                                "value": "0x7aa48b06da6e1571f1368f4cd6853ac6a039657d"
                            },
                            {
                                "name": "to",
                                "type": "address",
                                "value": "0x526f3669c8bd7357c7f563da6a9a33e61338b9a9"
                            },
                            {
                                "decimalAvailable": true,
                                "name": "value",
                                "type": "uint256",
                                "value": "20,000,000,000,000,000,000"
                            }
                        ],
                        "signature": "Transfer(address,address,uint256)"
                    },
                    "id": 1,
                    "logData": "0x000000000000000000000000000000000000000000000001158e460913d00000",
                    "logDecoded": true,
                    "operation": "EVENT",
                    "revert": false,
                    "status": true,
                    "topics": [
                        "0xddf252ad1be2c89b69c2b068fc378daa952ba7f163c4a11628f55a4df523b3ef",
                        "0x0000000000000000000000007aa48b06da6e1571f1368f4cd6853ac6a039657d",
                        "0x000000000000000000000000526f3669c8bd7357c7f563da6a9a33e61338b9a9"
                    ]
                },
                "nodeType": 1
            }
        },
        "gasFlame": [
            {
                "children": [
                    {
                        "children": [
                            {
                                "children": [],
                                "depth": 0,
                                "name": "Initial Gas",
                                "value": 21644
                            },
                            {
                                "children": [],
                                "depth": 0,
                                "name": "Executed Gas",
                                "value": 14393
                            }
                        ],
                        "depth": -1,
                        "name": "Actual Gas Used",
                        "value": 36037
                    },
                    {
                        "children": [],
                        "depth": -1,
                        "name": "Refunded Gas",
                        "value": 0
                    }
                ],
                "depth": -2,
                "name": "Total Gas",
                "value": 36037
            }
        ],
        "isConfirmed": true,
        "mainTrace": [
            {
                "children": [
                    {
                        "children": [
                            {
                                "children": [],
                                "depth": 1,
                                "id": 1,
                                "order": 1
                            }
                        ],
                        "depth": 0,
                        "id": 0,
                        "order": 0
                    }
                ],
                "depth": -1,
                "id": -1,
                "order": -1
            }
        ],
        "mainTraceNodeCount": 2,
        "parentIdMap": {
            "0": -1,
            "1": 0
        },
        "tidyTrace": [
            {
                "children": [
                    {
                        "children": [
                            {
                                "children": [],
                                "depth": 1,
                                "id": 1,
                                "order": 1
                            }
                        ],
                        "depth": 0,
                        "id": 0,
                        "order": 0
                    }
                ],
                "depth": -1,
                "id": -1,
                "order": -1
            }
        ],
        "tidyTraceNodeCount": 2
    },
    "state_change": {
        "stateChanges": [
            {
                "address": "0x2c702d98d4d7e2af742f071c2038565b1cc07bef",
                "erc": "ERC-20",
                "slots": [
                    {
                        "current": "0x00000000000000000000000000000000000000000000000701122a4610972800",
                        "key": "0xc7cb36eec85963d6a911a0e75f3cad65d6929094589b3c20e75e0402a2a3f9fd",
                        "prev": "0x00000000000000000000000000000000000000000000000816a0704f24672800"
                    },
                    {
                        "current": "0x0000000000000000000000000000000000000000000066866114dc1886925800",
                        "key": "0xa34eb719275092d6979365d832e02e856e3422fecf434465cb401e63ae7690bc",
                        "prev": "0x0000000000000000000000000000000000000000000066854b86960f72c25800"
                    }
                ],
                "storageVariables": [
                    {
                        "name": "_balances",
                        "type": "mapping(address => uint256)",
                        "value": {
                            "pairs": [
                                {
                                    "key": "0x526f3669c8bd7357c7f563da6a9a33e61338b9a9",
                                    "value": {
                                        "current": "484160240416700000000000",
                                        "prev": "484140240416700000000000",
                                        "typeTag": 1
                                    }
                                },
                                {
                                    "key": "0x7aa48b06da6e1571f1368f4cd6853ac6a039657d",
                                    "value": {
                                        "current": "129204379140000000000",
                                        "prev": "149204379140000000000",
                                        "typeTag": 1
                                    }
                                }
                            ],
                            "typeTag": 4
                        }
                    }
                ]
            }
        ]
    }
}