{
    "balance_change": {
        "balanceChanges": [
            {
                "account": "0x6f967d8dea9b8c67cb9926a9892f7cdd37d79a2e",
                "assets": [
                    {
                        "address": "0xcfb152e5b93fc2c9906d4ff41fc8407dfa5e8851",
                        "amount": "10,800",
                        "iconUrl": "",
                        "isERC1155": false,
                        "isERC721": false,
                        "sign": false,
                        "value": ""
                    }
                ]
            },
            {
                "account": "0xcd5602e9c83a41c250e86c5d48caf0d22473c5b3",
                "assets": [
                    {
                        "address": "0xcfb152e5b93fc2c9906d4ff41fc8407dfa5e8851",
                        "amount": "10,800",
                        "iconUrl": "",
                        "isERC1155": false,
                        "isERC721": false,
                        "sign": true,
                        "value": ""
                    }
                ]
            }
        ]
    },
    "profile": {
        "basic_info": {
            "baseFee": "",
            "blockNumber": 11524151,
            "callData": "0xa9059cbb000000000000000000000000cd5602e9c83a41c250e86c5d48caf0d22473c5b3000000000000000000000000000000000000000000000249781bbb25cac00000",
            "debugEnable": true,
            "errorInfo": "",
            "eventCount": 1,
            "feeRecipient": "0xea674fdde714fd979de3edf0f56aa9716b898ec8",
            "formatValue": "0",
            "gasLimit": 60000,
            "gasPrice": "86",
            "gasUsed": 37488,
            "intTxnCount": 0,
            "internalRevert": false,
            "internalRevertMessage": "",
            "isContractCreation": false,
            "isFlashloan": false,
            "maxFee": "",
            "nonce": 6,
            "overwritedBlockNumber": -1,
            "priorityFee": "",
            "receiver": "0xcfb152e5b93fc2c9906d4ff41fc8407dfa5e8851",
            "revertMessage": "",
            "sender": "0x6f967d8dea9b8c67cb9926a9892f7cdd37d79a2e",
            "simulationEnable": true,
            "sourceTxnHash": "0x06dbd458b67f032d5276d8b9561b6af38e160f6ea249b01c602a1df61fc82dfc",
            "status": true,
            "timestamp": "2020-12-25T17:30:51Z",
            "transactionFee": "0.003223968",
            "txnHash": "0x06dbd458b67f032d5276d8b9561b6af38e160f6ea249b01c602a1df61fc82dfc",
            "txnIndex": 53,
            "type": 0,
            "value": "0"
        },
        "fund_flow": [
            {
                "amount": "10,800",
                "from": "0x6f967d8dea9b8c67cb9926a9892f7cdd37d79a2e",
                "id": 1,
                "isERC1155": false,
                "isERC721": false,
                "isReverted": false,
                "order": 1,
                "to": "0xcd5602e9c83a41c250e86c5d48caf0d22473c5b3",
                "token": "0xcfb152e5b93fc2c9906d4ff41fc8407dfa5e8851"
            }
        ],
        "token_infos": [
            {
                "address": "0xc02aaa39b223fe8d0a0e5c4f27ead9083c756cc2",
                "decimals": 18
            },
            {
                "address": "0xcfb152e5b93fc2c9906d4ff41fc8407dfa5e8851",
                "decimals": 18
            },
            {
                "address": "0xeeeeeeeeeeeeeeeeeeeeeeeeeeeeeeeeeeeeeeee",
                "decimals": 18
            }
        ]
    },
    "address_label": {
        "labels": [
            {
                "address": "0xcfb152e5b93fc2c9906d4ff41fc8407dfa5e8851",
                "label": "NTON: NTON Token"
            },
            {
                "address": "0x0000000000000000000000000000000000000001",
                "label": "Precompiled"
            },
            {
                "address": "0x0000000000000000000000000000000000000002",
                "label": "Precompiled"
            },
            {
                "address": "0x0000000000000000000000000000000000000003",
                "label": "Precompiled"
            },
            {
                "address": "0x0000000000000000000000000000000000000004",
                "label": "Precompiled"
            },
            {
                "address": "0xeeeeeeeeeeeeeeeeeeeeeeeeeeeeeeeeeeeeeeee",
                "label": "Ether"
            }
        ]
    },
    "trace": {
        "accountLabels": null,
        "dataMap": {
            "-1": {
                "invocation": {
                    "address": "0x6f967d8dea9b8c67cb9926a9892f7cdd37d79a2e",
                    "callData": "",
                    "decodedMethod": null,
                    "errorInfo": "",
                    "fromAddress": "",
                    "gasUsed": 0,
                    "id": -1,
                    "methodDecoded": false,
                    "operation": "",
                    "output": "",
                    "revert": false,
                    "revertMessage": "",
                    "selector": "",
                    "status": false,
                    "value": ""
                },
                "nodeType": 0
            },
            "0": {
                "invocation": {
                    "address": "0xcfb152e5b93fc2c9906d4ff41fc8407dfa5e8851",
                    "callData": "0x000000000000000000000000cd5602e9c83a41c250e86c5d48caf0d22473c5b3000000000000000000000000000000000000000000000249781bbb25cac00000",
                    "decodedMethod": {
                        "callParams": [
                            {
                                "name": "to",
                                "type": "address",
                                "value": "0xcd5602e9c83a41c250e86c5d48caf0d22473c5b3"
                            },
                            {
                                "decimalAvailable": true,
                                "name": "value",
                                "type": "uint256",
                                "value": "10,800,000,000,000,000,000,000"
                            }
                        ],
                        "constructorArguments": "",
                        "name": "transfer",
                        "returnParams": [
                            {
                                "name": "",
                                "type": "bool",
                                "value": true
                            }
                        ],
                        "signature": "transfer(address,uint256)"
                    },
                    "errorInfo": "",
                    "fromAddress": "0x6f967d8dea9b8c67cb9926a9892f7cdd37d79a2e",
                    "gasUsed": 37488,
                    "id": 0,
                    "methodDecoded": true,
                    "operation": "CALL",
                    "output": "0x0000000000000000000000000000000000000000000000000000000000000001",
                    "revert": false,
                    "revertMessage": "",
                    "selector": "0xa9059cbb",
                    "status": true,
                    "value": "0"
                },
                "nodeType": 0
            },
            "1": {
                "event": {
                    "contract": "0xcfb152e5b93fc2c9906d4ff41fc8407dfa5e8851",
                    "decodedLog": {
                        "name": "Transfer",
                        "params": [
                            {
                                "name": "from",
                                "type": "address",
                                "value": "0x6f967d8dea9b8c67cb9926a9892f7cdd37d79a2e"
                            },
                            {
                                "name": "to",
                                "type": "address",
                                "value": "0xcd5602e9c83a41c250e86c5d48caf0d22473c5b3"
                            },
                            {
                                "decimalAvailable": true,
                                "name": "value",
                                "type": "uint256",
                                "value": "10,800,000,000,000,000,000,000"
                            }
                        ],
                        "signature": "Transfer(address,address,uint256)"
                    },
                    "id": 1,
                    "logData": "0x000000000000000000000000000000000000000000000249781bbb25cac00000",
                    "logDecoded": true,
                    "operation": "EVENT",
                    "revert": false,
                    "status": true,
                    "topics": [
                        "0xddf252ad1be2c89b69c2b068fc378daa952ba7f163c4a11628f55a4df523b3ef",
                        "0x0000000000000000000000006f967d8dea9b8c67cb9926a9892f7cdd37d79a2e",
                        "0x000000000000000000000000cd5602e9c83a41c250e86c5d48caf0d22473c5b3"
                    ]
                },
                "nodeType": 1
            }
        },
        "gasFlame": [
            {
                "children": [
                    {
                        "children": [
                            {
                                "children": [],
                                "depth": 0,
                                "name": "Initial Gas",
                                "value": 21656
                            },
                            {
                                "children": [],
                                "depth": 0,
                                "name": "Executed Gas",
                                "value": 15832
                            }
                        ],
                        "depth": -1,
                        "name": "Actual Gas Used",
                        "value": 37488
                    },
                    {
                        "children": [],
                        "depth": -1,
                        "name": "Refunded Gas",
                        "value": 0
                    }
                ],
                "depth": -2,
                "name": "Total Gas",
                "value": 37488
            }
        ],
        "isConfirmed": true,
        "mainTrace": [
            {
                "children": [
                    {
                        "children": [
                            {
                                "children": [],
                                "depth": 1,
                                "id": 1,
                                "order": 1
                            }
                        ],
                        "depth": 0,
                        "id": 0,
                        "order": 0
                    }
                ],
                "depth": -1,
                "id": -1,
                "order": -1
            }
        ],
        "mainTraceNodeCount": 2,
        "parentIdMap": {
            "0": -1,
            "1": 0
        },
        "tidyTrace": [
            {
                "children": [
                    {
                        "children": [
                            {
                                "children": [],
                                "depth": 1,
                                "id": 1,
                                "order": 1
                            }
                        ],
                        "depth": 0,
                        "id": 0,
                        "order": 0
                    }
                ],
                "depth": -1,
                "id": -1,
                "order": -1
            }
        ],
        "tidyTraceNodeCount": 2
    },
    "state_change": {
        "stateChanges": [
            {
                "address": "0xcfb152e5b93fc2c9906d4ff41fc8407dfa5e8851",
                "erc": "",
                "slots": [
                    {
                        "current": "0x000000000000000000000000000000000000000000097b2ec23b3d95c3b80000",
                        "key": "0x99bb6ee40a4380d7118cc95ffb7bfbdf2cb8b13dc6d39e0de53e37e34e2d41be",
                        "prev": "0x0000000000000000000000000000000000000000000978e54a1f826ff8f80000"
                    },
                    {
                        "current": "0x000000000000000000000000000000000000000000000080dc3fbf9437196400",
                        "key": "0x18557d8cd5919c68e7951240d290d48e8abd79f78656b31c41fcd08a06973d5d",
                        "prev": "0x0000000000000000000000000000000000000000000002ca545b7aba01d96400"
                    }
                ],
                "storageVariables": [
                    {
                        "name": "_balances",
                        "type": "mapping(address => uint256)",
                        "value": {
                            "pairs": [
                                {
                                    "key": "0x6f967d8dea9b8c67cb9926a9892f7cdd37d79a2e",
                                    "value": {
                                        "current": "2377053855690000000000",
                                        "prev": "13177053855690000000000",
                                        "typeTag": 1
                                    }
                                },
                                {
                                    "key": "0xcd5602e9c83a41c250e86c5d48caf0d22473c5b3",
                                    "value": {
                                        "current": "11462046000000000000000000",
                                        "prev": "11451246000000000000000000",
                                        "typeTag": 1
                                    }
                                }
                            ],
                            "typeTag": 4
                        }
                    }
                ]
            }
        ]
    }
}