{
    "balance_change": {
        "balanceChanges": [
            {
                "account": "0xbe595d1a91bc39c13f084f2e410692c0e1f972d2",
                "assets": [
                    {
                        "address": "0x95408930d6323ac7aa69e6c2cbfe58774d565fa8",
                        "amount": "1",
                        "iconUrl": "",
                        "isERC1155": false,
                        "isERC721": false,
                        "sign": false,
                        "value": ""
                    }
                ]
            },
            {
                "account": "0x00f54581612e84c7f3dc3111f25a212aea1c163d",
                "assets": [
                    {
                        "address": "0x95408930d6323ac7aa69e6c2cbfe58774d565fa8",
                        "amount": "1",
                        "iconUrl": "",
                        "isERC1155": false,
                        "isERC721": false,
                        "sign": true,
                        "value": ""
                    }
                ]
            }
        ]
    },
    "profile": {
        "basic_info": {
            "baseFee": "",
            "blockNumber": 4460995,
            "callData": "0xa9059cbb00000000000000000000000000f54581612e84c7f3dc3111f25a212aea1c163d0000000000000000000000000000000000000000000000000000000005f5e100",
            "debugEnable": true,
            "errorInfo": "",
            "eventCount": 1,
            "feeRecipient": "0x829bd824b016326a401d083b33d092293333a830",
            "formatValue": "0",
            "gasLimit": 80000,
            "gasPrice": "0.5",
            "gasUsed": 52123,
            "intTxnCount": 0,
            "internalRevert": false,
            "internalRevertMessage": "",
            "isContractCreation": false,
            "isFlashloan": false,
            "maxFee": "",
            "nonce": 8946,
            "overwritedBlockNumber": -1,
            "priorityFee": "",
            "receiver": "0x95408930d6323ac7aa69e6c2cbfe58774d565fa8",
            "revertMessage": "",
            "sender": "0xbe595d1a91bc39c13f084f2e410692c0e1f972d2",
            "simulationEnable": true,
            "sourceTxnHash": "0x06b2c45f919b9f89942ea08efdceb2c919e64135e03750ae49d03aec9287520c",
            "status": true,
            "timestamp": "2017-10-31T01:00:28Z",
            "transactionFee": "0.0000260615",
            "txnHash": "0x06b2c45f919b9f89942ea08efdceb2c919e64135e03750ae49d03aec9287520c",
            "txnIndex": 91,
            "type": 0,
            "value": "0"
        },
        "fund_flow": [
            {
                "amount": "1",
                "from": "0xbe595d1a91bc39c13f084f2e410692c0e1f972d2",
                "id": 1,
                "isERC1155": false,
                "isERC721": false,
                "isReverted": false,
                "order": 1,
                "to": "0x00f54581612e84c7f3dc3111f25a212aea1c163d",
                "token": "0x95408930d6323ac7aa69e6c2cbfe58774d565fa8"
            }
        ],
        "token_infos": [
            {
                "address": "0x95408930d6323ac7aa69e6c2cbfe58774d565fa8",
                "decimals": 8
            },
            {
                "address": "0xc02aaa39b223fe8d0a0e5c4f27ead9083c756cc2",
                "decimals": 18
            },
            {
                "address": "0xeeeeeeeeeeeeeeeeeeeeeeeeeeeeeeeeeeeeeeee",
                "decimals": 18
            }
        ]
    },
    "address_label": {
        "labels": [
            {
                "address": "0x0000000000000000000000000000000000000004",
                "label": "Precompiled"
            },
            {
                "address": "0xeeeeeeeeeeeeeeeeeeeeeeeeeeeeeeeeeeeeeeee",
                "label": "Ether"
            },
            {
                "address": "0x95408930d6323ac7aa69e6c2cbfe58774d565fa8",
                "label": "DEBIT Coin: DBC Token"
            },
            {
                "address": "0x0000000000000000000000000000000000000001",
                "label": "Precompiled"
            },
            {
                "address": "0x0000000000000000000000000000000000000002",
                "label": "Precompiled"
            },
            {
                "address": "0x0000000000000000000000000000000000000003",
                "label": "Precompiled"
            }
        ]
    },
    "trace": {
        "accountLabels": null,
        "dataMap": {
            "-1": {
                "invocation": {
                    "address": "0xbe595d1a91bc39c13f084f2e410692c0e1f972d2",
                    "callData": "",
                    "decodedMethod": null,
                    "errorInfo": "",
                    "fromAddress": "",
                    "gasUsed": 0,
                    "id": -1,
                    "methodDecoded": false,
                    "operation": "",
                    "output": "",
                    "revert": false,
                    "revertMessage": "",
                    "selector": "",
                    "status": false,
                    "value": ""
                },
                "nodeType": 0
            },
            "0": {
                "invocation": {
                    "address": "0x95408930d6323ac7aa69e6c2cbfe58774d565fa8",
                    "callData": "0x00000000000000000000000000f54581612e84c7f3dc3111f25a212aea1c163d0000000000000000000000000000000000000000000000000000000005f5e100",
                    "decodedMethod": {
                        "callParams": [
                            {
                                "name": "_to",
                                "type": "address",
                                "value": "0x00f54581612e84c7f3dc3111f25a212aea1c163d"
                            },
                            {
                                "decimalAvailable": true,
                                "name": "_value",
                                "type": "uint256",
                                "value": "100,000,000"
                            }
                        ],
                        "constructorArguments": "",
                        "name": "transfer",
                        "returnParams": [
                            {
                                "name": "success",
                                "type": "bool",
                                "value": true
                            }
                        ],
                        "signature": "transfer(address,uint256)"
                    },
                    "errorInfo": "",
                    "fromAddress": "0xbe595d1a91bc39c13f084f2e410692c0e1f972d2",
                    "gasUsed": 52123,
                    "id": 0,
                    "methodDecoded": true,
                    "operation": "CALL",
                    "output": "0x0000000000000000000000000000000000000000000000000000000000000001",
                    "revert": false,
                    "revertMessage": "",
                    "selector": "0xa9059cbb",
                    "status": true,
                    "value": "0"
                },
                "nodeType": 0
            },
            "1": {
                "event": {
                    "contract": "0x95408930d6323ac7aa69e6c2cbfe58774d565fa8",
                    "decodedLog": {
                        "name": "Transfer",
                        "params": [
                            {
                                "name": "_from",
                                "type": "address",
                                "value": "0xbe595d1a91bc39c13f084f2e410692c0e1f972d2"
                            },
                            {
                                "name": "_to",
                                "type": "address",
                                "value": "0x00f54581612e84c7f3dc3111f25a212aea1c163d"
                            },
                            {
                                "decimalAvailable": true,
                                "name": "_value",
                                "type": "uint256",
                                "value": "100,000,000"
                            }
                        ],
                        "signature": "Transfer(address,address,uint256)"
                    },
                    "id": 1,
                    "logData": "0x0000000000000000000000000000000000000000000000000000000005f5e100",
                    "logDecoded": true,
                    "operation": "EVENT",
                    "revert": false,
                    "status": true,
                    "topics": [
                        "0xddf252ad1be2c89b69c2b068fc378daa952ba7f163c4a11628f55a4df523b3ef",
                        "0x000000000000000000000000be595d1a91bc39c13f084f2e410692c0e1f972d2",
                        "0x00000000000000000000000000f54581612e84c7f3dc3111f25a212aea1c163d"
                    ]
                },
                "nodeType": 1
            }
        },
        "gasFlame": [
            {
                "children": [
                    {
                        "children": [
                            {
                                "children": [],
                                "depth": 0,
                                "name": "Initial Gas",
                                "value": 22936
                            },
                            {
                                "children": [],
                                "depth": 0,
                                "name": "Executed Gas",
                                "value": 29187
                            }
                        ],
                        "depth": -1,
                        "name": "Actual Gas Used",
                        "value": 52123
                    },
                    {
                        "children": [],
                        "depth": -1,
                        "name": "Refunded Gas",
                        "value": 0
                    }
                ],
                "depth": -2,
                "name": "Total Gas",
                "value": 52123
            }
        ],
        "isConfirmed": true,
        "mainTrace": [
            {
                "children": [
                    {
                        "children": [
                            {
                                "children": [],
                                "depth": 1,
                                "id": 1,
                                "order": 1
                            }
                        ],
                        "depth": 0,
                        "id": 0,
                        "order": 0
                    }
                ],
                "depth": -1,
                "id": -1,
                "order": -1
            }
        ],
        "mainTraceNodeCount": 2,
        "parentIdMap": {
            "0": -1,
            "1": 0
        },
        "tidyTrace": [
            {
                "children": [
                    {
                        "children": [
                            {
                                "children": [],
                                "depth": 1,
                                "id": 1,
                                "order": 1
                            }
                        ],
                        "depth": 0,
                        "id": 0,
                        "order": 0
                    }
                ],
                "depth": -1,
                "id": -1,
                "order": -1
            }
        ],
        "tidyTraceNodeCount": 2
    },
    "state_change": {
        "stateChanges": [
            {
                "address": "0x95408930d6323ac7aa69e6c2cbfe58774d565fa8",
                "erc": "ERC-20",
                "slots": [
                    {
                        "current": "0x00000000000000000000000000000000000000000000000000003dc10d7807c3",
                        "key": "0x09b59e09d5d5c7f4b96ec8bf9e8f965837c8303f7820a92008f144d876119733",
                        "prev": "0x00000000000000000000000000000000000000000000000000003dc1136de8c3"
                    },
                    {
                        "current": "0x0000000000000000000000000000000000000000000000000000000005f5e100",
                        "key": "0x9170311373bc128fe39db0250da1499cb2be9e3a20c89e580e2959fde98ff0a2",
                        "prev": "0x0000000000000000000000000000000000000000000000000000000000000000"
                    }
                ],
                "storageVariables": [
                    {
                        "name": "balanceOf",
                        "type": "mapping(address => uint256)",
                        "value": {
                            "pairs": [
                                {
                                    "key": "0x00f54581612e84c7f3dc3111f25a212aea1c163d",
                                    "value": {
                                        "current": "100000000",
                                        "prev": "0",
                                        "typeTag": 1
                                    }
                                },
                                {
                                    "key": "0xbe595d1a91bc39c13f084f2e410692c0e1f972d2",
                                    "value": {
                                        "current": "67899363952579",
                                        "prev": "67899463952579",
                                        "typeTag": 1
                                    }
                                }
                            ],
                            "typeTag": 4
                        }
                    }
                ]
            }
        ]
    }
}