{
    "balance_change": {
        "balanceChanges": [
            {
                "account": "0xd64d5700901855b1a34b36f0c4d8b7506b26d5c8",
                "assets": [
                    {
                        "address": "0xa15c7ebe1f07caf6bff097d8a589fb8ac49ae5b3",
                        "amount": "20",
                        "iconUrl": "",
                        "isERC1155": false,
                        "isERC721": false,
                        "sign": false,
                        "value": ""
                    }
                ]
            },
            {
                "account": "0x20b0f24b4ffce7e6e3574e25322fcf28a61a64ab",
                "assets": [
                    {
                        "address": "0xa15c7ebe1f07caf6bff097d8a589fb8ac49ae5b3",
                        "amount": "20",
                        "iconUrl": "",
                        "isERC1155": false,
                        "isERC721": false,
                        "sign": true,
                        "value": ""
                    }
                ]
            }
        ]
    },
    "profile": {
        "basic_info": {
            "baseFee": "",
            "blockNumber": 6637828,
            "callData": "0xa9059cbb00000000000000000000000020b0f24b4ffce7e6e3574e25322fcf28a61a64ab000000000000000000000000000000000000000000000001158e460913d00000",
            "debugEnable": true,
            "errorInfo": "",
            "eventCount": 1,
            "feeRecipient": "0x52e44f279f4203dcf680395379e5f9990a69f13c",
            "formatValue": "0",
            "gasLimit": 52909,
            "gasPrice": "41",
            "gasUsed": 52909,
            "intTxnCount": 0,
            "internalRevert": false,
            "internalRevertMessage": "",
            "isContractCreation": false,
            "isFlashloan": false,
            "maxFee": "",
            "nonce": 7,
            "overwritedBlockNumber": -1,
            "priorityFee": "",
            "receiver": "0xa15c7ebe1f07caf6bff097d8a589fb8ac49ae5b3",
            "revertMessage": "",
            "sender": "0xd64d5700901855b1a34b36f0c4d8b7506b26d5c8",
            "simulationEnable": true,
            "sourceTxnHash": "0x06573d060d40175f2473be5f7c5ef0584cc52821df75f587c15b4c45b29d6cee",
            "status": true,
            "timestamp": "2018-11-03T20:23:14Z",
            "transactionFee": "0.002169269",
            "txnHash": "0x06573d060d40175f2473be5f7c5ef0584cc52821df75f587c15b4c45b29d6cee",
            "txnIndex": 1,
            "type": 0,
            "value": "0"
        },
        "fund_flow": [
            {
                "amount": "20",
                "from": "0xd64d5700901855b1a34b36f0c4d8b7506b26d5c8",
                "id": 1,
                "isERC1155": false,
                "isERC721": false,
                "isReverted": false,
                "order": 1,
                "to": "0x20b0f24b4ffce7e6e3574e25322fcf28a61a64ab",
                "token": "0xa15c7ebe1f07caf6bff097d8a589fb8ac49ae5b3"
            }
        ],
        "token_infos": [
            {
                "address": "0xa15c7ebe1f07caf6bff097d8a589fb8ac49ae5b3",
                "decimals": 18
            },
            {
                "address": "0xc02aaa39b223fe8d0a0e5c4f27ead9083c756cc2",
                "decimals": 18
            },
            {
                "address": "0xeeeeeeeeeeeeeeeeeeeeeeeeeeeeeeeeeeeeeeee",
                "decimals": 18
            }
        ]
    },
    "address_label": {
        "labels": [
            {
                "address": "0xa15c7ebe1f07caf6bff097d8a589fb8ac49ae5b3",
                "label": "Pundi X: Old NPXS Token"
            },
            {
                "address": "0x0000000000000000000000000000000000000001",
                "label": "Precompiled"
            },
            {
                "address": "0x0000000000000000000000000000000000000002",
                "label": "Precompiled"
            },
            {
                "address": "0x0000000000000000000000000000000000000003",
                "label": "Precompiled"
            },
            {
                "address": "0x0000000000000000000000000000000000000004",
                "label": "Precompiled"
            },
            {
                "address": "0xeeeeeeeeeeeeeeeeeeeeeeeeeeeeeeeeeeeeeeee",
                "label": "Ether"
            }
        ]
    },
    "trace": {
        "accountLabels": null,
        "dataMap": {
            "-1": {
                "invocation": {
                    "address": "0xd64d5700901855b1a34b36f0c4d8b7506b26d5c8",
                    "callData": "",
                    "decodedMethod": null,
                    "errorInfo": "",
                    "fromAddress": "",
                    "gasUsed": 0,
                    "id": -1,
                    "methodDecoded": false,
                    "operation": "",
                    "output": "",
                    "revert": false,
                    "revertMessage": "",
                    "selector": "",
                    "status": false,
                    "value": ""
                },
                "nodeType": 0
            },
            "0": {
                "invocation": {
                    "address": "0xa15c7ebe1f07caf6bff097d8a589fb8ac49ae5b3",
                    "callData": "0x00000000000000000000000020b0f24b4ffce7e6e3574e25322fcf28a61a64ab000000000000000000000000000000000000000000000001158e460913d00000",
                    "decodedMethod": {
                        "callParams": [
                            {
                                "name": "_to",
                                "type": "address",
                                "value": "0x20b0f24b4ffce7e6e3574e25322fcf28a61a64ab"
                            },
                            {
                                "decimalAvailable": true,
                                "name": "_value",
                                "type": "uint256",
                                "value": "20,000,000,000,000,000,000"
                            }
                        ],
                        "constructorArguments": "",
                        "name": "transfer",
                        "returnParams": [
                            {
                                "name": "",
                                "type": "bool",
                                "value": true
                            }
                        ],
                        "signature": "transfer(address,uint256)"
                    },
                    "errorInfo": "",
                    "fromAddress": "0xd64d5700901855b1a34b36f0c4d8b7506b26d5c8",
                    "gasUsed": 52909,
                    "id": 0,
                    "methodDecoded": true,
                    "operation": "CALL",
                    "output": "0x0000000000000000000000000000000000000000000000000000000000000001",
                    "revert": false,
                    "revertMessage": "",
                    "selector": "0xa9059cbb",
                    "status": true,
                    "value": "0"
                },
                "nodeType": 0
            },
            "1": {
                "event": {
                    "contract": "0xa15c7ebe1f07caf6bff097d8a589fb8ac49ae5b3",
                    "decodedLog": {
                        "name": "Transfer",
                        "params": [
                            {
                                "name": "from",
                                "type": "address",
                                "value": "0xd64d5700901855b1a34b36f0c4d8b7506b26d5c8"
                            },
                            {
                                "name": "to",
                                "type": "address",
                                "value": "0x20b0f24b4ffce7e6e3574e25322fcf28a61a64ab"
                            },
                            {
                                "decimalAvailable": true,
                                "name": "value",
                                "type": "uint256",
                                "value": "20,000,000,000,000,000,000"
                            }
                        ],
                        "signature": "Transfer(address,address,uint256)"
                    },
                    "id": 1,
                    "logData": "0x000000000000000000000000000000000000000000000001158e460913d00000",
                    "logDecoded": true,
                    "operation": "EVENT",
                    "revert": false,
                    "status": true,
                    "topics": [
                        "0xddf252ad1be2c89b69c2b068fc378daa952ba7f163c4a11628f55a4df523b3ef",
                        "0x000000000000000000000000d64d5700901855b1a34b36f0c4d8b7506b26d5c8",
                        "0x00000000000000000000000020b0f24b4ffce7e6e3574e25322fcf28a61a64ab"
                    ]
                },
                "nodeType": 1
            }
        },
        "gasFlame": [
            {
                "children": [
                    {
                        "children": [
                            {
                                "children": [],
                                "depth": 0,
                                "name": "Initial Gas",
                                "value": 23256
                            },
                            {
                                "children": [],
                                "depth": 0,
                                "name": "Executed Gas",
                                "value": 29653
                            }
                        ],
                        "depth": -1,
                        "name": "Actual Gas Used",
                        "value": 52909
                    },
                    {
                        "children": [],
                        "depth": -1,
                        "name": "Refunded Gas",
                        "value": 0
                    }
                ],
                "depth": -2,
                "name": "Total Gas",
                "value": 52909
            }
        ],
        "isConfirmed": true,
        "mainTrace": [
            {
                "children": [
                    {
                        "children": [
                            {
                                "children": [],
                                "depth": 1,
                                "id": 1,
                                "order": 1
                            }
                        ],
                        "depth": 0,
                        "id": 0,
                        "order": 0
                    }
                ],
                "depth": -1,
                "id": -1,
                "order": -1
            }
        ],
        "mainTraceNodeCount": 2,
        "parentIdMap": {
            "0": -1,
            "1": 0
        },
        "tidyTrace": [
            {
                "children": [
                    {
                        "children": [
                            {
                                "children": [],
                                "depth": 1,
                                "id": 1,
                                "order": 1
                            }
                        ],
                        "depth": 0,
                        "id": 0,
                        "order": 0
                    }
                ],
                "depth": -1,
                "id": -1,
                "order": -1
            }
        ],
        "tidyTraceNodeCount": 2
    },
    "state_change": {
        "stateChanges": [
            {
                "address": "0xa15c7ebe1f07caf6bff097d8a589fb8ac49ae5b3",
                "erc": "ERC-20",
                "slots": [
                    {
                        "current": "0x000000000000000000000000000000000000000000000001158e460913d00000",
                        "key": "0x21d3864bef0fef47f3f965924ab35b166825bd26b6653376f7eaca924417f5c3",
                        "prev": "0x0000000000000000000000000000000000000000000000000000000000000000"
                    },
                    {
                        "current": "0x0000000000000000000000000000000000000000000093d6669f218f0ba43f14",
                        "key": "0x7d8512f64c63e9133351b5e1d6c04d68f3bfd219225e3ac16ee4c5494841a4c5",
                        "prev": "0x0000000000000000000000000000000000000000000093d77c2d67981f743f14"
                    }
                ],
                "storageVariables": [
                    {
                        "name": "balances",
                        "type": "mapping(address => uint256)",
                        "value": {
                            "pairs": [
                                {
                                    "key": "0x20b0f24b4ffce7e6e3574e25322fcf28a61a64ab",
                                    "value": {
                                        "current": "20000000000000000000",
                                        "prev": "0",
                                        "typeTag": 1
                                    }
                                },
                                {
                                    "key": "0xd64d5700901855b1a34b36f0c4d8b7506b26d5c8",
                                    "value": {
                                        "current": "698142870879623115456276",
                                        "prev": "698162870879623115456276",
                                        "typeTag": 1
                                    }
                                }
                            ],
                            "typeTag": 4
                        }
                    }
                ]
            }
        ]
    }
}