{
    "balance_change": {
        "balanceChanges": [
            {
                "account": "0xecff48b40e9099dfe23d558f7e04219fba6ca862",
                "assets": [
                    {
                        "address": "0xa31b1767e09f842ecfd4bc471fe44f830e3891aa",
                        "amount": "2,790",
                        "iconUrl": "",
                        "isERC1155": false,
                        "isERC721": false,
                        "sign": false,
                        "value": ""
                    }
                ]
            },
            {
                "account": "0x17bdaf3415722109316570210274825920055ce9",
                "assets": [
                    {
                        "address": "0xa31b1767e09f842ecfd4bc471fe44f830e3891aa",
                        "amount": "2,790",
                        "iconUrl": "",
                        "isERC1155": false,
                        "isERC721": false,
                        "sign": true,
                        "value": ""
                    }
                ]
            }
        ]
    },
    "profile": {
        "basic_info": {
            "baseFee": "",
            "blockNumber": 8721413,
            "callData": "0xa9059cbb00000000000000000000000017bdaf3415722109316570210274825920055ce90000000000000000000000000000000000000000000000973f0729f24bd80000",
            "debugEnable": true,
            "errorInfo": "",
            "eventCount": 1,
            "feeRecipient": "0x829bd824b016326a401d083b33d092293333a830",
            "formatValue": "0",
            "gasLimit": 63192,
            "gasPrice": "50",
            "gasUsed": 53192,
            "intTxnCount": 0,
            "internalRevert": false,
            "internalRevertMessage": "",
            "isContractCreation": false,
            "isFlashloan": false,
            "maxFee": "",
            "nonce": 26,
            "overwritedBlockNumber": -1,
            "priorityFee": "",
            "receiver": "0xa31b1767e09f842ecfd4bc471fe44f830e3891aa",
            "revertMessage": "",
            "sender": "0xecff48b40e9099dfe23d558f7e04219fba6ca862",
            "simulationEnable": true,
            "sourceTxnHash": "0x07f607c9294e2acd8b8c9d00fda605f7f55aefd545829b9b3929e9b6f00f4189",
            "status": true,
            "timestamp": "2019-10-11T16:10:59Z",
            "transactionFee": "0.0026596",
            "txnHash": "0x07f607c9294e2acd8b8c9d00fda605f7f55aefd545829b9b3929e9b6f00f4189",
            "txnIndex": 2,
            "type": 0,
            "value": "0"
        },
        "fund_flow": [
            {
                "amount": "2,790",
                "from": "0xecff48b40e9099dfe23d558f7e04219fba6ca862",
                "id": 1,
                "isERC1155": false,
                "isERC721": false,
                "isReverted": false,
                "order": 1,
                "to": "0x17bdaf3415722109316570210274825920055ce9",
                "token": "0xa31b1767e09f842ecfd4bc471fe44f830e3891aa"
            }
        ],
        "token_infos": [
            {
                "address": "0xa31b1767e09f842ecfd4bc471fe44f830e3891aa",
                "decimals": 18
            },
            {
                "address": "0xc02aaa39b223fe8d0a0e5c4f27ead9083c756cc2",
                "decimals": 18
            },
            {
                "address": "0xeeeeeeeeeeeeeeeeeeeeeeeeeeeeeeeeeeeeeeee",
                "decimals": 18
            }
        ]
    },
    "address_label": {
        "labels": [
            {
                "address": "0xeeeeeeeeeeeeeeeeeeeeeeeeeeeeeeeeeeeeeeee",
                "label": "Ether"
            },
            {
                "address": "0xa31b1767e09f842ecfd4bc471fe44f830e3891aa",
                "label": "ROOBEE Token"
            },
            {
                "address": "0x0000000000000000000000000000000000000001",
                "label": "Precompiled"
            },
            {
                "address": "0x0000000000000000000000000000000000000002",
                "label": "Precompiled"
            },
            {
                "address": "0x0000000000000000000000000000000000000003",
                "label": "Precompiled"
            },
            {
                "address": "0x0000000000000000000000000000000000000004",
                "label": "Precompiled"
            }
        ]
    },
    "trace": {
        "accountLabels": null,
        "dataMap": {
            "-1": {
                "invocation": {
                    "address": "0xecff48b40e9099dfe23d558f7e04219fba6ca862",
                    "callData": "",
                    "decodedMethod": null,
                    "errorInfo": "",
                    "fromAddress": "",
                    "gasUsed": 0,
                    "id": -1,
                    "methodDecoded": false,
                    "operation": "",
                    "output": "",
                    "revert": false,
                    "revertMessage": "",
                    "selector": "",
                    "status": false,
                    "value": ""
                },
                "nodeType": 0
            },
            "0": {
                "invocation": {
                    "address": "0xa31b1767e09f842ecfd4bc471fe44f830e3891aa",
                    "callData": "0x00000000000000000000000017bdaf3415722109316570210274825920055ce90000000000000000000000000000000000000000000000973f0729f24bd80000",
                    "decodedMethod": {
                        "callParams": [
                            {
                                "name": "to",
                                "type": "address",
                                "value": "0x17bdaf3415722109316570210274825920055ce9"
                            },
                            {
                                "decimalAvailable": true,
                                "name": "value",
                                "type": "uint256",
                                "value": "2,790,000,000,000,000,000,000"
                            }
                        ],
                        "constructorArguments": "",
                        "name": "transfer",
                        "returnParams": [
                            {
                                "name": "",
                                "type": "bool",
                                "value": true
                            }
                        ],
                        "signature": "transfer(address,uint256)"
                    },
                    "errorInfo": "",
                    "fromAddress": "0xecff48b40e9099dfe23d558f7e04219fba6ca862",
                    "gasUsed": 53192,
                    "id": 0,
                    "methodDecoded": true,
                    "operation": "CALL",
                    "output": "0x0000000000000000000000000000000000000000000000000000000000000001",
                    "revert": false,
                    "revertMessage": "",
                    "selector": "0xa9059cbb",
                    "status": true,
                    "value": "0"
                },
                "nodeType": 0
            },
            "1": {
                "event": {
                    "contract": "0xa31b1767e09f842ecfd4bc471fe44f830e3891aa",
                    "decodedLog": {
                        "name": "Transfer",
                        "params": [
                            {
                                "name": "from",
                                "type": "address",
                                "value": "0xecff48b40e9099dfe23d558f7e04219fba6ca862"
                            },
                            {
                                "name": "to",
                                "type": "address",
                                "value": "0x17bdaf3415722109316570210274825920055ce9"
                            },
                            {
                                "decimalAvailable": true,
                                "name": "value",
                                "type": "uint256",
                                "value": "2,790,000,000,000,000,000,000"
                            }
                        ],
                        "signature": "Transfer(address,address,uint256)"
                    },
                    "id": 1,
                    "logData": "0x0000000000000000000000000000000000000000000000973f0729f24bd80000",
                    "logDecoded": true,
                    "operation": "EVENT",
                    "revert": false,
                    "status": true,
                    "topics": [
                        "0xddf252ad1be2c89b69c2b068fc378daa952ba7f163c4a11628f55a4df523b3ef",
                        "0x000000000000000000000000ecff48b40e9099dfe23d558f7e04219fba6ca862",
                        "0x00000000000000000000000017bdaf3415722109316570210274825920055ce9"
                    ]
                },
                "nodeType": 1
            }
        },
        "gasFlame": [
            {
                "children": [
                    {
                        "children": [
                            {
                                "children": [],
                                "depth": 0,
                                "name": "Initial Gas",
                                "value": 23256
                            },
                            {
                                "children": [],
                                "depth": 0,
                                "name": "Executed Gas",
                                "value": 29936
                            }
                        ],
                        "depth": -1,
                        "name": "Actual Gas Used",
                        "value": 53192
                    },
                    {
                        "children": [],
                        "depth": -1,
                        "name": "Refunded Gas",
                        "value": 0
                    }
                ],
                "depth": -2,
                "name": "Total Gas",
                "value": 53192
            }
        ],
        "isConfirmed": true,
        "mainTrace": [
            {
                "children": [
                    {
                        "children": [
                            {
                                "children": [],
                                "depth": 1,
                                "id": 1,
                                "order": 1
                            }
                        ],
                        "depth": 0,
                        "id": 0,
                        "order": 0
                    }
                ],
                "depth": -1,
                "id": -1,
                "order": -1
            }
        ],
        "mainTraceNodeCount": 2,
        "parentIdMap": {
            "0": -1,
            "1": 0
        },
        "tidyTrace": [
            {
                "children": [
                    {
                        "children": [
                            {
                                "children": [],
                                "depth": 1,
                                "id": 1,
                                "order": 1
                            }
                        ],
                        "depth": 0,
                        "id": 0,
                        "order": 0
                    }
                ],
                "depth": -1,
                "id": -1,
                "order": -1
            }
        ],
        "tidyTraceNodeCount": 2
    },
    "state_change": {
        "stateChanges": [
            {
                "address": "0xa31b1767e09f842ecfd4bc471fe44f830e3891aa",
                "erc": "ERC-20",
                "slots": [
                    {
                        "current": "0x0000000000000000000000000000000000000000000000973f0729f24bd80000",
                        "key": "0xe6aaa7c68566fee224cf0ed9221c3cdc218fa219cf5a4046bd85f12017563360",
                        "prev": "0x0000000000000000000000000000000000000000000000000000000000000000"
                    },
                    {
                        "current": "0x00000000000000000000000000000000000000000001be747e157ec05cb14000",
                        "key": "0xc5c396297006eb410a6f15ace04945b47bc9204d4f14c1a20f89a9c6661271e0",
                        "prev": "0x00000000000000000000000000000000000000000001bf0bbd1ca8b2a8894000"
                    }
                ],
                "storageVariables": [
                    {
                        "name": "_balances",
                        "type": "mapping(address => uint256)",
                        "value": {
                            "pairs": [
                                {
                                    "key": "0x17bdaf3415722109316570210274825920055ce9",
                                    "value": {
                                        "current": "2790000000000000000000",
                                        "prev": "0",
                                        "typeTag": 1
                                    }
                                },
                                {
                                    "key": "0xecff48b40e9099dfe23d558f7e04219fba6ca862",
                                    "value": {
                                        "current": "2108324358979600017080320",
                                        "prev": "2111114358979600017080320",
                                        "typeTag": 1
                                    }
                                }
                            ],
                            "typeTag": 4
                        }
                    }
                ]
            }
        ]
    }
}