{
    "balance_change": {
        "balanceChanges": [
            {
                "account": "0x01f9241eed7532b38176d3accedaa94eb2ab6993",
                "assets": [
                    {
                        "address": "0xa0b86991c6218b36c1d19d4a2e9eb0ce3606eb48",
                        "amount": "25",
                        "iconUrl": "https://assets.blocksec.com/icon/0347a86cc07dbd03fdc5db01a4e5ac7e1217f90e0b6e4bb0f75cbcca09160989.png",
                        "isERC1155": false,
                        "isERC721": false,
                        "sign": false,
                        "value": "24.997500000000000275"
                    },
                    {
                        "address": "0xeeeeeeeeeeeeeeeeeeeeeeeeeeeeeeeeeeeeeeee",
                        "amount": "0.015507802197749236",
                        "iconUrl": "https://assets.blocksec.com/image/1663669189317-3.png",
                        "isERC1155": false,
                        "isERC721": false,
                        "sign": true,
                        "value": "23.983281336365999577"
                    }
                ]
            },
            {
                "account": "0x2008b6c3d07b061a84f790c035c2f6dc11a0be70",
                "assets": [
                    {
                        "address": "0xa0b86991c6218b36c1d19d4a2e9eb0ce3606eb48",
                        "amount": "25",
                        "iconUrl": "https://assets.blocksec.com/icon/0347a86cc07dbd03fdc5db01a4e5ac7e1217f90e0b6e4bb0f75cbcca09160989.png",
                        "isERC1155": false,
                        "isERC721": false,
                        "sign": true,
                        "value": "24.997500000000000275"
                    },
                    {
                        "address": "0xc02aaa39b223fe8d0a0e5c4f27ead9083c756cc2",
                        "amount": "0.015522859371339435",
                        "iconUrl": "https://assets.blocksec.com/icon/f1cb2d02c471d545bbc7722daf3277fd852d98e63d118771af7047bd8256c516.png",
                        "isERC1155": false,
                        "isERC721": false,
                        "sign": false,
                        "value": "24.006567701486099576"
                    }
                ]
            },
            {
                "account": "0xad01c20d5886137e056775af56915de824c8fce5",
                "assets": [
                    {
                        "address": "0xeeeeeeeeeeeeeeeeeeeeeeeeeeeeeeeeeeeeeeee",
                        "amount": "0.000015057173590199",
                        "iconUrl": "https://assets.blocksec.com/image/1663669189317-3.png",
                        "isERC1155": false,
                        "isERC721": false,
                        "sign": true,
                        "value": "0.02328637067214269959"
                    }
                ]
            },
            {
                "account": "0xc02aaa39b223fe8d0a0e5c4f27ead9083c756cc2",
                "assets": [
                    {
                        "address": "0xeeeeeeeeeeeeeeeeeeeeeeeeeeeeeeeeeeeeeeee",
                        "amount": "0.015522859371339435",
                        "iconUrl": "https://assets.blocksec.com/image/1663669189317-3.png",
                        "isERC1155": false,
                        "isERC721": false,
                        "sign": false,
                        "value": "24.006567701486099576"
                    },
                    {
                        "address": "0xc02aaa39b223fe8d0a0e5c4f27ead9083c756cc2",
                        "amount": "0.015522859371339435",
                        "iconUrl": "https://assets.blocksec.com/icon/f1cb2d02c471d545bbc7722daf3277fd852d98e63d118771af7047bd8256c516.png",
                        "isERC1155": false,
                        "isERC721": false,
                        "sign": true,
                        "value": "24.006567701486099576"
                    }
                ]
            }
        ]
    },
    "profile": {
        "basic_info": {
            "baseFee": "5.25864291",
            "blockNumber": 18348092,
            "callData": "0x415565b0000000000000000000000000a0b86991c6218b36c1d19d4a2e9eb0ce3606eb48000000000000000000000000eeeeeeeeeeeeeeeeeeeeeeeeeeeeeeeeeeeeeeee00000000000000000000000000000000000000000000000000000000017d7840000000000000000000000000000000000000000000000000003570b9a5ae9b1c00000000000000000000000000000000000000000000000000000000000000a000000000000000000000000000000000000000000000000000000000000000040000000000000000000000000000000000000000000000000000000000000080000000000000000000000000000000000000000000000000000000000000044000000000000000000000000000000000000000000000000000000000000004e000000000000000000000000000000000000000000000000000000000000005e000000000000000000000000000000000000000000000000000000000000000210000000000000000000000000000000000000000000000000000000000000040000000000000000000000000000000000000000000000000000000000000036000000000000000000000000000000000000000000000000000000000000000200000000000000000000000000000000000000000000000000000000000000000000000000000000000000000a0b86991c6218b36c1d19d4a2e9eb0ce3606eb48000000000000000000000000c02aaa39b223fe8d0a0e5c4f27ead9083c756cc2000000000000000000000000000000000000000000000000000000000000024000000000000000000000000000000000000000000000000000000000000002400000000000000000000000000000000000000000000000000000000000000240000000000000000000000000000000000000000000000000000000000000014000000000000000000000000000000000000000000000000000000000017d784000000000000000000000000000000000000000000000000000000000000000000000000000000000000000000000000000000000000000000000000000000180000000000000000000000000000000000000000000000000000000000000000100000000000000000000000000000000000000000000000000000000000000030000000000000000000000000000000000000000000000000000000000000001000000000000000000000000c02aaa39b223fe8d0a0e5c4f27ead9083c756cc2000000000000000000000000a0b86991c6218b36c1d19d4a2e9eb0ce3606eb48000000000000000000000000000000000000000000000000003725f556ba1eab00000000000000000000000000000000000000000000000000000000017d78400000000000000000000000002008b6c3d07b061a84f790c035c2f6dc11a0be70000000000000000000000000000000000000000000000000000000000000000000000000000000000000000001f9241eed7532b38176d3accedaa94eb2ab699300000000652a70a50000000000000000000000000000000000000000652a704c0000000000000000000000000000000000000000000000000000000000000003000000000000000000000000000000000000000000000000000000000000001b10fa58dc88f902cca5d2955fdef6adacf5f37c425e42a8296ee54ccb6c1374a745a656b4d451cfb01241a539fb8d6acf091883418cadd27a9172544519fad58800000000000000000000000000000000000000000000000000000000017d7840000000000000000000000000000000000000000000000000000000000000000600000000000000000000000000000000000000000000000000000000000000400000000000000000000000000000000000000000000000000000000000000040000000000000000000000000c02aaa39b223fe8d0a0e5c4f27ead9083c756cc2ffffffffffffffffffffffffffffffffffffffffffffffffffffffffffffffff000000000000000000000000000000000000000000000000000000000000001b000000000000000000000000000000000000000000000000000000000000004000000000000000000000000000000000000000000000000000000000000000a000000000000000000000000000000000000000000000000000000000000000200000000000000000000000000000000000000000000000000000000000000001000000000000000000000000eeeeeeeeeeeeeeeeeeeeeeeeeeeeeeeeeeeeeeee00000000000000000000000000000000000000000000000000000db1c57bb0b7000000000000000000000000ad01c20d5886137e056775af56915de824c8fce5000000000000000000000000000000000000000000000000000000000000001c000000000000000000000000000000000000000000000000000000000000004000000000000000000000000000000000000000000000000000000000000000c00000000000000000000000000000000000000000000000000000000000000020000000000000000000000000000000000000000000000000000000000000004000000000000000000000000000000000000000000000000000000000000000800000000000000000000000000000000000000000000000000000000000000001000000000000000000000000a0b86991c6218b36c1d19d4a2e9eb0ce3606eb480000000000000000000000000000000000000000000000000000000000000000869584cd000000000000000000000000382ffce2287252f930e1c8dc9328dac5bf282ba1000000000000000000000000000000005f93e3fe5ce94b496fe915cd396e8052",
            "debugEnable": true,
            "errorInfo": "",
            "eventCount": 6,
            "feeRecipient": "0x388c818ca8b9251b393131c08a736a67ccb19297",
            "formatValue": "0",
            "gasLimit": 339449,
            "gasPrice": "5.35864291",
            "gasUsed": 248603,
            "intTxnCount": 29,
            "internalRevert": false,
            "internalRevertMessage": "",
            "isContractCreation": false,
            "isFlashloan": false,
            "maxFee": "6.148098709",
            "nonce": 18,
            "overwritedBlockNumber": -1,
            "priorityFee": "0.1",
            "receiver": "0xdef1c0ded9bec7f1a1670819833240f027b25eff",
            "revertMessage": "",
            "sender": "0x01f9241eed7532b38176d3accedaa94eb2ab6993",
            "simulationEnable": true,
            "sourceTxnHash": "0x07f89aa36a1c808ec3170ad8f11895652ae5f87fef22f9f12f3d2936993361b6",
            "status": true,
            "timestamp": "2023-10-14T10:41:35Z",
            "transactionFee": "0.00133217470335473",
            "txnHash": "0x07f89aa36a1c808ec3170ad8f11895652ae5f87fef22f9f12f3d2936993361b6",
            "txnIndex": 58,
            "type": 2,
            "value": "0"
        },
        "fund_flow": [
            {
                "amount": "25",
                "from": "0x01f9241eed7532b38176d3accedaa94eb2ab6993",
                "id": 1,
                "isERC1155": false,
                "isERC721": false,
                "isReverted": false,
                "order": 1,
                "to": "0x22f9dcf4647084d6c31b2765f6910cd85c178c18",
                "token": "0xa0b86991c6218b36c1d19d4a2e9eb0ce3606eb48"
            },
            {
                "amount": "25",
                "from": "0x22f9dcf4647084d6c31b2765f6910cd85c178c18",
                "id": 2,
                "isERC1155": false,
                "isERC721": false,
                "isReverted": false,
                "order": 2,
                "to": "0x2008b6c3d07b061a84f790c035c2f6dc11a0be70",
                "token": "0xa0b86991c6218b36c1d19d4a2e9eb0ce3606eb48"
            },
            {
                "amount": "0.015522859371339435",
                "from": "0x2008b6c3d07b061a84f790c035c2f6dc11a0be70",
                "id": 3,
                "isERC1155": false,
                "isERC721": false,
                "isReverted": false,
                "order": 3,
                "to": "0x22f9dcf4647084d6c31b2765f6910cd85c178c18",
                "token": "0xc02aaa39b223fe8d0a0e5c4f27ead9083c756cc2"
            },
            {
                "amount": "0.015522859371339435",
                "from": "0xc02aaa39b223fe8d0a0e5c4f27ead9083c756cc2",
                "id": 4,
                "isERC1155": false,
                "isERC721": false,
                "isReverted": false,
                "order": 4,
                "to": "0x22f9dcf4647084d6c31b2765f6910cd85c178c18",
                "token": "0xeeeeeeeeeeeeeeeeeeeeeeeeeeeeeeeeeeeeeeee"
            },
            {
                "amount": "0.015522859371339435",
                "from": "0x22f9dcf4647084d6c31b2765f6910cd85c178c18",
                "id": 5,
                "isERC1155": false,
                "isERC721": false,
                "isReverted": false,
                "order": 5,
                "to": "0xc02aaa39b223fe8d0a0e5c4f27ead9083c756cc2",
                "token": "0xc02aaa39b223fe8d0a0e5c4f27ead9083c756cc2"
            },
            {
                "amount": "0.000015057173590199",
                "from": "0x22f9dcf4647084d6c31b2765f6910cd85c178c18",
                "id": 6,
                "isERC1155": false,
                "isERC721": false,
                "isReverted": false,
                "order": 6,
                "to": "0xad01c20d5886137e056775af56915de824c8fce5",
                "token": "0xeeeeeeeeeeeeeeeeeeeeeeeeeeeeeeeeeeeeeeee"
            },
            {
                "amount": "0.015507802197749236",
                "from": "0x22f9dcf4647084d6c31b2765f6910cd85c178c18",
                "id": 7,
                "isERC1155": false,
                "isERC721": false,
                "isReverted": false,
                "order": 7,
                "to": "0x01f9241eed7532b38176d3accedaa94eb2ab6993",
                "token": "0xeeeeeeeeeeeeeeeeeeeeeeeeeeeeeeeeeeeeeeee"
            }
        ],
        "token_infos": [
            {
                "address": "0xa0b86991c6218b36c1d19d4a2e9eb0ce3606eb48",
                "decimals": 6
            },
            {
                "address": "0xc02aaa39b223fe8d0a0e5c4f27ead9083c756cc2",
                "decimals": 18
            },
            {
                "address": "0xeeeeeeeeeeeeeeeeeeeeeeeeeeeeeeeeeeeeeeee",
                "decimals": 18
            }
        ]
    },
    "address_label": {
        "labels": [
            {
                "address": "0x0000000000000000000000000000000000000001",
                "label": "Precompiled"
            },
            {
                "address": "0x0000000000000000000000000000000000000004",
                "label": "Precompiled"
            },
            {
                "address": "0x2fd08c1f9fc8406c1d7e3a799a13883a7e7949f0",
                "label": "FillQuoteTransformer"
            },
            {
                "address": "0xa2327a938febf5fec13bacfb16ae10ecbc4cbdcf",
                "label": "FiatTokenV2_1"
            },
            {
                "address": "0x2008b6c3d07b061a84f790c035c2f6dc11a0be70",
                "label": "Native: PMM 1"
            },
            {
                "address": "0xb2bc06a4efb20fc6553a69dbfa49b7be938034a7",
                "label": "0x: WETH Transformer"
            },
            {
                "address": "0x0000000000000000000000000000000000000000",
                "label": "Null Address"
            },
            {
                "address": "0x388c818ca8b9251b393131c08a736a67ccb19297",
                "label": "LidoExecutionLayerRewardsVault"
            },
            {
                "address": "0xc02aaa39b223fe8d0a0e5c4f27ead9083c756cc2",
                "label": "Wrapped Ether (WETH)"
            },
            {
                "address": "0x5ebac8dbfbba22168471b0f914131d1976536a25",
                "label": "OtcOrdersFeature"
            },
            {
                "address": "0x0000000000000000000000000000000000000003",
                "label": "Precompiled"
            },
            {
                "address": "0xdef1c0ded9bec7f1a1670819833240f027b25eff",
                "label": "0x: Exchange Proxy"
            },
            {
                "address": "0x0000000000000000000000000000000000000002",
                "label": "Precompiled"
            },
            {
                "address": "0xeeeeeeeeeeeeeeeeeeeeeeeeeeeeeeeeeeeeeeee",
                "label": "Ether"
            },
            {
                "address": "0x44a6999ec971cfca458aff25a808f272f6d492a2",
                "label": "TransformERC20Feature"
            },
            {
                "address": "0x22f9dcf4647084d6c31b2765f6910cd85c178c18",
                "label": "0x: Exchange Proxy Flash Wallet"
            },
            {
                "address": "0xea500d073652336a58846ada15c25f2c6d2d241f",
                "label": "PayTakerTransformer"
            },
            {
                "address": "0x8146cbbe327364b13d0699f2ced39c637f92501a",
                "label": "AffiliateFeeTransformer"
            },
            {
                "address": "0xa0b86991c6218b36c1d19d4a2e9eb0ce3606eb48",
                "label": "Circle: USDC Token"
            }
        ]
    },
    "trace": {
        "accountLabels": null,
        "dataMap": {
            "-1": {
                "invocation": {
                    "address": "0x01f9241eed7532b38176d3accedaa94eb2ab6993",
                    "callData": "",
                    "decodedMethod": null,
                    "errorInfo": "",
                    "fromAddress": "",
                    "gasUsed": 0,
                    "id": -1,
                    "methodDecoded": false,
                    "operation": "",
                    "output": "",
                    "revert": false,
                    "revertMessage": "",
                    "selector": "",
                    "status": false,
                    "value": ""
                },
                "nodeType": 0
            },
            "0": {
                "invocation": {
                    "address": "0xdef1c0ded9bec7f1a1670819833240f027b25eff",
                    "callData": "0x000000000000000000000000a0b86991c6218b36c1d19d4a2e9eb0ce3606eb48000000000000000000000000eeeeeeeeeeeeeeeeeeeeeeeeeeeeeeeeeeeeeeee00000000000000000000000000000000000000000000000000000000017d7840000000000000000000000000000000000000000000000000003570b9a5ae9b1c00000000000000000000000000000000000000000000000000000000000000a000000000000000000000000000000000000000000000000000000000000000040000000000000000000000000000000000000000000000000000000000000080000000000000000000000000000000000000000000000000000000000000044000000000000000000000000000000000000000000000000000000000000004e000000000000000000000000000000000000000000000000000000000000005e000000000000000000000000000000000000000000000000000000000000000210000000000000000000000000000000000000000000000000000000000000040000000000000000000000000000000000000000000000000000000000000036000000000000000000000000000000000000000000000000000000000000000200000000000000000000000000000000000000000000000000000000000000000000000000000000000000000a0b86991c6218b36c1d19d4a2e9eb0ce3606eb48000000000000000000000000c02aaa39b223fe8d0a0e5c4f27ead9083c756cc2000000000000000000000000000000000000000000000000000000000000024000000000000000000000000000000000000000000000000000000000000002400000000000000000000000000000000000000000000000000000000000000240000000000000000000000000000000000000000000000000000000000000014000000000000000000000000000000000000000000000000000000000017d784000000000000000000000000000000000000000000000000000000000000000000000000000000000000000000000000000000000000000000000000000000180000000000000000000000000000000000000000000000000000000000000000100000000000000000000000000000000000000000000000000000000000000030000000000000000000000000000000000000000000000000000000000000001000000000000000000000000c02aaa39b223fe8d0a0e5c4f27ead9083c756cc2000000000000000000000000a0b86991c6218b36c1d19d4a2e9eb0ce3606eb48000000000000000000000000000000000000000000000000003725f556ba1eab00000000000000000000000000000000000000000000000000000000017d78400000000000000000000000002008b6c3d07b061a84f790c035c2f6dc11a0be70000000000000000000000000000000000000000000000000000000000000000000000000000000000000000001f9241eed7532b38176d3accedaa94eb2ab699300000000652a70a50000000000000000000000000000000000000000652a704c0000000000000000000000000000000000000000000000000000000000000003000000000000000000000000000000000000000000000000000000000000001b10fa58dc88f902cca5d2955fdef6adacf5f37c425e42a8296ee54ccb6c1374a745a656b4d451cfb01241a539fb8d6acf091883418cadd27a9172544519fad58800000000000000000000000000000000000000000000000000000000017d7840000000000000000000000000000000000000000000000000000000000000000600000000000000000000000000000000000000000000000000000000000000400000000000000000000000000000000000000000000000000000000000000040000000000000000000000000c02aaa39b223fe8d0a0e5c4f27ead9083c756cc2ffffffffffffffffffffffffffffffffffffffffffffffffffffffffffffffff000000000000000000000000000000000000000000000000000000000000001b000000000000000000000000000000000000000000000000000000000000004000000000000000000000000000000000000000000000000000000000000000a000000000000000000000000000000000000000000000000000000000000000200000000000000000000000000000000000000000000000000000000000000001000000000000000000000000eeeeeeeeeeeeeeeeeeeeeeeeeeeeeeeeeeeeeeee00000000000000000000000000000000000000000000000000000db1c57bb0b7000000000000000000000000ad01c20d5886137e056775af56915de824c8fce5000000000000000000000000000000000000000000000000000000000000001c000000000000000000000000000000000000000000000000000000000000004000000000000000000000000000000000000000000000000000000000000000c00000000000000000000000000000000000000000000000000000000000000020000000000000000000000000000000000000000000000000000000000000004000000000000000000000000000000000000000000000000000000000000000800000000000000000000000000000000000000000000000000000000000000001000000000000000000000000a0b86991c6218b36c1d19d4a2e9eb0ce3606eb480000000000000000000000000000000000000000000000000000000000000000869584cd000000000000000000000000382ffce2287252f930e1c8dc9328dac5bf282ba1000000000000000000000000000000005f93e3fe5ce94b496fe915cd396e8052",
                    "decodedMethod": {
                        "callParams": [
                            {
                                "name": "inputToken",
                                "type": "address",
                                "value": "0xa0b86991c6218b36c1d19d4a2e9eb0ce3606eb48"
                            },
                            {
                                "name": "outputToken",
                                "type": "address",
                                "value": "0xeeeeeeeeeeeeeeeeeeeeeeeeeeeeeeeeeeeeeeee"
                            },
                            {
                                "name": "inputTokenAmount",
                                "type": "uint256",
                                "value": "25,000,000"
                            },
                            {
                                "name": "minOutputTokenAmount",
                                "type": "uint256",
                                "value": "15,042,116,416,609,052"
                            },
                            {
                                "name": "transformations",
                                "type": "(uint32,bytes)[]",
                                "value": [
                                    [
                                        {
                                            "name": "deploymentNonce",
                                            "type": "uint32",
                                            "value": "33"
                                        },
                                        {
                                            "name": "data",
                                            "type": "bytes",
                                            "value": "0x00000000000000000000000000000000000000000000000000000000000000200000000000000000000000000000000000000000000000000000000000000000000000000000000000000000a0b86991c6218b36c1d19d4a2e9eb0ce3606eb48000000000000000000000000c02aaa39b223fe8d0a0e5c4f27ead9083c756cc2000000000000000000000000000000000000000000000000000000000000024000000000000000000000000000000000000000000000000000000000000002400000000000000000000000000000000000000000000000000000000000000240000000000000000000000000000000000000000000000000000000000000014000000000000000000000000000000000000000000000000000000000017d784000000000000000000000000000000000000000000000000000000000000000000000000000000000000000000000000000000000000000000000000000000180000000000000000000000000000000000000000000000000000000000000000100000000000000000000000000000000000000000000000000000000000000030000000000000000000000000000000000000000000000000000000000000001000000000000000000000000c02aaa39b223fe8d0a0e5c4f27ead9083c756cc2000000000000000000000000a0b86991c6218b36c1d19d4a2e9eb0ce3606eb48000000000000000000000000000000000000000000000000003725f556ba1eab00000000000000000000000000000000000000000000000000000000017d78400000000000000000000000002008b6c3d07b061a84f790c035c2f6dc11a0be70000000000000000000000000000000000000000000000000000000000000000000000000000000000000000001f9241eed7532b38176d3accedaa94eb2ab699300000000652a70a50000000000000000000000000000000000000000652a704c0000000000000000000000000000000000000000000000000000000000000003000000000000000000000000000000000000000000000000000000000000001b10fa58dc88f902cca5d2955fdef6adacf5f37c425e42a8296ee54ccb6c1374a745a656b4d451cfb01241a539fb8d6acf091883418cadd27a9172544519fad58800000000000000000000000000000000000000000000000000000000017d7840"
                                        }
                                    ],
                                    [
                                        {
                                            "name": "deploymentNonce",
                                            "type": "uint32",
                                            "value": "6"
                                        },
                                        {
                                            "name": "data",
                                            "type": "bytes",
                                            "value": "0x000000000000000000000000c02aaa39b223fe8d0a0e5c4f27ead9083c756cc2ffffffffffffffffffffffffffffffffffffffffffffffffffffffffffffffff"
                                        }
                                    ],
                                    [
                                        {
                                            "name": "deploymentNonce",
                                            "type": "uint32",
                                            "value": "27"
                                        },
                                        {
                                            "name": "data",
                                            "type": "bytes",
                                            "value": "0x00000000000000000000000000000000000000000000000000000000000000200000000000000000000000000000000000000000000000000000000000000001000000000000000000000000eeeeeeeeeeeeeeeeeeeeeeeeeeeeeeeeeeeeeeee00000000000000000000000000000000000000000000000000000db1c57bb0b7000000000000000000000000ad01c20d5886137e056775af56915de824c8fce5"
                                        }
                                    ],
                                    [
                                        {
                                            "name": "deploymentNonce",
                                            "type": "uint32",
                                            "value": "28"
                                        },
                                        {
                                            "name": "data",
                                            "type": "bytes",
                                            "value": "0x0000000000000000000000000000000000000000000000000000000000000020000000000000000000000000000000000000000000000000000000000000004000000000000000000000000000000000000000000000000000000000000000800000000000000000000000000000000000000000000000000000000000000001000000000000000000000000a0b86991c6218b36c1d19d4a2e9eb0ce3606eb480000000000000000000000000000000000000000000000000000000000000000"
                                        }
                                    ]
                                ]
                            }
                        ],
                        "constructorArguments": "",
                        "name": "transformERC20",
                        "returnParams": [
                            {
                                "name": "outputTokenAmount",
                                "type": "uint256",
                                "value": "15,507,802,197,749,236"
                            }
                        ],
                        "signature": "transformERC20(address,address,uint256,uint256,(uint32,bytes)[])"
                    },
                    "errorInfo": "",
                    "fromAddress": "0x01f9241eed7532b38176d3accedaa94eb2ab6993",
                    "gasUsed": 248603,
                    "id": 0,
                    "methodDecoded": true,
                    "operation": "CALL",
                    "output": "0x00000000000000000000000000000000000000000000000000371843913e6df4",
                    "revert": false,
                    "revertMessage": "",
                    "selector": "0x415565b0",
                    "status": true,
                    "value": "0"
                },
                "nodeType": 0
            },
            "1": {
                "invocation": {
                    "address": "0x44a6999ec971cfca458aff25a808f272f6d492a2",
                    "callData": "0x000000000000000000000000a0b86991c6218b36c1d19d4a2e9eb0ce3606eb48000000000000000000000000eeeeeeeeeeeeeeeeeeeeeeeeeeeeeeeeeeeeeeee00000000000000000000000000000000000000000000000000000000017d7840000000000000000000000000000000000000000000000000003570b9a5ae9b1c00000000000000000000000000000000000000000000000000000000000000a000000000000000000000000000000000000000000000000000000000000000040000000000000000000000000000000000000000000000000000000000000080000000000000000000000000000000000000000000000000000000000000044000000000000000000000000000000000000000000000000000000000000004e000000000000000000000000000000000000000000000000000000000000005e000000000000000000000000000000000000000000000000000000000000000210000000000000000000000000000000000000000000000000000000000000040000000000000000000000000000000000000000000000000000000000000036000000000000000000000000000000000000000000000000000000000000000200000000000000000000000000000000000000000000000000000000000000000000000000000000000000000a0b86991c6218b36c1d19d4a2e9eb0ce3606eb48000000000000000000000000c02aaa39b223fe8d0a0e5c4f27ead9083c756cc2000000000000000000000000000000000000000000000000000000000000024000000000000000000000000000000000000000000000000000000000000002400000000000000000000000000000000000000000000000000000000000000240000000000000000000000000000000000000000000000000000000000000014000000000000000000000000000000000000000000000000000000000017d784000000000000000000000000000000000000000000000000000000000000000000000000000000000000000000000000000000000000000000000000000000180000000000000000000000000000000000000000000000000000000000000000100000000000000000000000000000000000000000000000000000000000000030000000000000000000000000000000000000000000000000000000000000001000000000000000000000000c02aaa39b223fe8d0a0e5c4f27ead9083c756cc2000000000000000000000000a0b86991c6218b36c1d19d4a2e9eb0ce3606eb48000000000000000000000000000000000000000000000000003725f556ba1eab00000000000000000000000000000000000000000000000000000000017d78400000000000000000000000002008b6c3d07b061a84f790c035c2f6dc11a0be70000000000000000000000000000000000000000000000000000000000000000000000000000000000000000001f9241eed7532b38176d3accedaa94eb2ab699300000000652a70a50000000000000000000000000000000000000000652a704c0000000000000000000000000000000000000000000000000000000000000003000000000000000000000000000000000000000000000000000000000000001b10fa58dc88f902cca5d2955fdef6adacf5f37c425e42a8296ee54ccb6c1374a745a656b4d451cfb01241a539fb8d6acf091883418cadd27a9172544519fad58800000000000000000000000000000000000000000000000000000000017d7840000000000000000000000000000000000000000000000000000000000000000600000000000000000000000000000000000000000000000000000000000000400000000000000000000000000000000000000000000000000000000000000040000000000000000000000000c02aaa39b223fe8d0a0e5c4f27ead9083c756cc2ffffffffffffffffffffffffffffffffffffffffffffffffffffffffffffffff000000000000000000000000000000000000000000000000000000000000001b000000000000000000000000000000000000000000000000000000000000004000000000000000000000000000000000000000000000000000000000000000a000000000000000000000000000000000000000000000000000000000000000200000000000000000000000000000000000000000000000000000000000000001000000000000000000000000eeeeeeeeeeeeeeeeeeeeeeeeeeeeeeeeeeeeeeee00000000000000000000000000000000000000000000000000000db1c57bb0b7000000000000000000000000ad01c20d5886137e056775af56915de824c8fce5000000000000000000000000000000000000000000000000000000000000001c000000000000000000000000000000000000000000000000000000000000004000000000000000000000000000000000000000000000000000000000000000c00000000000000000000000000000000000000000000000000000000000000020000000000000000000000000000000000000000000000000000000000000004000000000000000000000000000000000000000000000000000000000000000800000000000000000000000000000000000000000000000000000000000000001000000000000000000000000a0b86991c6218b36c1d19d4a2e9eb0ce3606eb480000000000000000000000000000000000000000000000000000000000000000869584cd000000000000000000000000382ffce2287252f930e1c8dc9328dac5bf282ba1000000000000000000000000000000005f93e3fe5ce94b496fe915cd396e8052",
                    "decodedMethod": {
                        "callParams": [
                            {
                                "name": "inputToken",
                                "type": "address",
                                "value": "0xa0b86991c6218b36c1d19d4a2e9eb0ce3606eb48"
                            },
                            {
                                "name": "outputToken",
                                "type": "address",
                                "value": "0xeeeeeeeeeeeeeeeeeeeeeeeeeeeeeeeeeeeeeeee"
                            },
                            {
                                "name": "inputTokenAmount",
                                "type": "uint256",
                                "value": "25,000,000"
                            },
                            {
                                "name": "minOutputTokenAmount",
                                "type": "uint256",
                                "value": "15,042,116,416,609,052"
                            },
                            {
                                "name": "transformations",
                                "type": "(uint32,bytes)[]",
                                "value": [
                                    [
                                        {
                                            "name": "deploymentNonce",
                                            "type": "uint32",
                                            "value": "33"
                                        },
                                        {
                                            "name": "data",
                                            "type": "bytes",
                                            "value": "0x00000000000000000000000000000000000000000000000000000000000000200000000000000000000000000000000000000000000000000000000000000000000000000000000000000000a0b86991c6218b36c1d19d4a2e9eb0ce3606eb48000000000000000000000000c02aaa39b223fe8d0a0e5c4f27ead9083c756cc2000000000000000000000000000000000000000000000000000000000000024000000000000000000000000000000000000000000000000000000000000002400000000000000000000000000000000000000000000000000000000000000240000000000000000000000000000000000000000000000000000000000000014000000000000000000000000000000000000000000000000000000000017d784000000000000000000000000000000000000000000000000000000000000000000000000000000000000000000000000000000000000000000000000000000180000000000000000000000000000000000000000000000000000000000000000100000000000000000000000000000000000000000000000000000000000000030000000000000000000000000000000000000000000000000000000000000001000000000000000000000000c02aaa39b223fe8d0a0e5c4f27ead9083c756cc2000000000000000000000000a0b86991c6218b36c1d19d4a2e9eb0ce3606eb48000000000000000000000000000000000000000000000000003725f556ba1eab00000000000000000000000000000000000000000000000000000000017d78400000000000000000000000002008b6c3d07b061a84f790c035c2f6dc11a0be70000000000000000000000000000000000000000000000000000000000000000000000000000000000000000001f9241eed7532b38176d3accedaa94eb2ab699300000000652a70a50000000000000000000000000000000000000000652a704c0000000000000000000000000000000000000000000000000000000000000003000000000000000000000000000000000000000000000000000000000000001b10fa58dc88f902cca5d2955fdef6adacf5f37c425e42a8296ee54ccb6c1374a745a656b4d451cfb01241a539fb8d6acf091883418cadd27a9172544519fad58800000000000000000000000000000000000000000000000000000000017d7840"
                                        }
                                    ],
                                    [
                                        {
                                            "name": "deploymentNonce",
                                            "type": "uint32",
                                            "value": "6"
                                        },
                                        {
                                            "name": "data",
                                            "type": "bytes",
                                            "value": "0x000000000000000000000000c02aaa39b223fe8d0a0e5c4f27ead9083c756cc2ffffffffffffffffffffffffffffffffffffffffffffffffffffffffffffffff"
                                        }
                                    ],
                                    [
                                        {
                                            "name": "deploymentNonce",
                                            "type": "uint32",
                                            "value": "27"
                                        },
                                        {
                                            "name": "data",
                                            "type": "bytes",
                                            "value": "0x00000000000000000000000000000000000000000000000000000000000000200000000000000000000000000000000000000000000000000000000000000001000000000000000000000000eeeeeeeeeeeeeeeeeeeeeeeeeeeeeeeeeeeeeeee00000000000000000000000000000000000000000000000000000db1c57bb0b7000000000000000000000000ad01c20d5886137e056775af56915de824c8fce5"
                                        }
                                    ],
                                    [
                                        {
                                            "name": "deploymentNonce",
                                            "type": "uint32",
                                            "value": "28"
                                        },
                                        {
                                            "name": "data",
                                            "type": "bytes",
                                            "value": "0x0000000000000000000000000000000000000000000000000000000000000020000000000000000000000000000000000000000000000000000000000000004000000000000000000000000000000000000000000000000000000000000000800000000000000000000000000000000000000000000000000000000000000001000000000000000000000000a0b86991c6218b36c1d19d4a2e9eb0ce3606eb480000000000000000000000000000000000000000000000000000000000000000"
                                        }
                                    ]
                                ]
                            }
                        ],
                        "constructorArguments": "",
                        "name": "transformERC20",
                        "returnParams": [
                            {
                                "name": "outputTokenAmount",
                                "type": "uint256",
                                "value": "15,507,802,197,749,236"
                            }
                        ],
                        "signature": "transformERC20(address,address,uint256,uint256,(uint32,bytes)[])"
                    },
                    "errorInfo": "",
                    "fromAddress": "0xdef1c0ded9bec7f1a1670819833240f027b25eff",
                    "gasUsed": 247114,
                    "id": 1,
                    "methodDecoded": true,
                    "operation": "DELEGATECALL",
                    "output": "0x00000000000000000000000000000000000000000000000000371843913e6df4",
                    "revert": false,
                    "revertMessage": "",
                    "selector": "0x415565b0",
                    "status": true,
                    "value": "0"
                },
                "nodeType": 0
            },
            "10": {
                "invocation": {
                    "address": "0xa2327a938febf5fec13bacfb16ae10ecbc4cbdcf",
                    "callData": "0x00000000000000000000000022f9dcf4647084d6c31b2765f6910cd85c178c18000000000000000000000000def1c0ded9bec7f1a1670819833240f027b25eff",
                    "decodedMethod": {
                        "callParams": [
                            {
                                "name": "owner",
                                "type": "address",
                                "value": "0x22f9dcf4647084d6c31b2765f6910cd85c178c18"
                            },
                            {
                                "name": "spender",
                                "type": "address",
                                "value": "0xdef1c0ded9bec7f1a1670819833240f027b25eff"
                            }
                        ],
                        "constructorArguments": "",
                        "name": "allowance",
                        "returnParams": [
                            {
                                "decimalAvailable": true,
                                "name": "",
                                "type": "uint256",
                                "value": "115,792,089,237,316,195,423,570,985,008,687,907,853,269,984,665,640,564,039,457,583,194,609,370,722,492"
                            }
                        ],
                        "signature": "allowance(address,address)"
                    },
                    "errorInfo": "",
                    "fromAddress": "0xa0b86991c6218b36c1d19d4a2e9eb0ce3606eb48",
                    "gasUsed": 2637,
                    "id": 10,
                    "methodDecoded": true,
                    "operation": "DELEGATECALL",
                    "output": "0xfffffffffffffffffffffffffffffffffffffffffffffffffffd1c4df65af0bc",
                    "revert": false,
                    "revertMessage": "",
                    "selector": "0xdd62ed3e",
                    "status": true,
                    "value": "0"
                },
                "nodeType": 0
            },
            "11": {
                "invocation": {
                    "address": "0xdef1c0ded9bec7f1a1670819833240f027b25eff",
                    "callData": "0x000000000000000000000000c02aaa39b223fe8d0a0e5c4f27ead9083c756cc2000000000000000000000000a0b86991c6218b36c1d19d4a2e9eb0ce3606eb48000000000000000000000000000000000000000000000000003725f556ba1eab00000000000000000000000000000000000000000000000000000000017d78400000000000000000000000002008b6c3d07b061a84f790c035c2f6dc11a0be70000000000000000000000000000000000000000000000000000000000000000000000000000000000000000001f9241eed7532b38176d3accedaa94eb2ab699300000000652a70a50000000000000000000000000000000000000000652a704c0000000000000000000000000000000000000000000000000000000000000003000000000000000000000000000000000000000000000000000000000000001b10fa58dc88f902cca5d2955fdef6adacf5f37c425e42a8296ee54ccb6c1374a745a656b4d451cfb01241a539fb8d6acf091883418cadd27a9172544519fad58800000000000000000000000000000000000000000000000000000000017d7840",
                    "decodedMethod": {
                        "callParams": [
                            {
                                "name": "order",
                                "type": "(address,address,uint128,uint128,address,address,address,uint256)",
                                "value": [
                                    {
                                        "name": "makerToken",
                                        "type": "address",
                                        "value": "0xc02aaa39b223fe8d0a0e5c4f27ead9083c756cc2"
                                    },
                                    {
                                        "name": "takerToken",
                                        "type": "address",
                                        "value": "0xa0b86991c6218b36c1d19d4a2e9eb0ce3606eb48"
                                    },
                                    {
                                        "name": "makerAmount",
                                        "type": "uint128",
                                        "value": "15,522,859,371,339,435"
                                    },
                                    {
                                        "name": "takerAmount",
                                        "type": "uint128",
                                        "value": "25,000,000"
                                    },
                                    {
                                        "name": "maker",
                                        "type": "address",
                                        "value": "0x2008b6c3d07b061a84f790c035c2f6dc11a0be70"
                                    },
                                    {
                                        "name": "taker",
                                        "type": "address",
                                        "value": "0x0000000000000000000000000000000000000000"
                                    },
                                    {
                                        "name": "txOrigin",
                                        "type": "address",
                                        "value": "0x01f9241eed7532b38176d3accedaa94eb2ab6993"
                                    },
                                    {
                                        "name": "expiryAndNonce",
                                        "type": "uint256",
                                        "value": "10,654,000,269,158,891,865,645,534,705,127,162,883,987,164,505,668,564,834,615,514,787,916"
                                    }
                                ]
                            },
                            {
                                "name": "makerSignature",
                                "type": "(uint8,uint8,bytes32,bytes32)",
                                "value": [
                                    {
                                        "name": "signatureType",
                                        "type": "uint8",
                                        "value": "3"
                                    },
                                    {
                                        "name": "v",
                                        "type": "uint8",
                                        "value": "27"
                                    },
                                    {
                                        "name": "r",
                                        "type": "bytes32",
                                        "value": "0x10fa58dc88f902cca5d2955fdef6adacf5f37c425e42a8296ee54ccb6c1374a7"
                                    },
                                    {
                                        "name": "s",
                                        "type": "bytes32",
                                        "value": "0x45a656b4d451cfb01241a539fb8d6acf091883418cadd27a9172544519fad588"
                                    }
                                ]
                            },
                            {
                                "name": "takerTokenFillAmount",
                                "type": "uint128",
                                "value": "25,000,000"
                            }
                        ],
                        "constructorArguments": "",
                        "name": "fillOtcOrder",
                        "returnParams": [
                            {
                                "name": "takerTokenFilledAmount",
                                "type": "uint128",
                                "value": "25,000,000"
                            },
                            {
                                "name": "makerTokenFilledAmount",
                                "type": "uint128",
                                "value": "15,522,859,371,339,435"
                            }
                        ],
                        "signature": "fillOtcOrder((address,address,uint128,uint128,address,address,address,uint256),(uint8,uint8,bytes32,bytes32),uint128)"
                    },
                    "errorInfo": "",
                    "fromAddress": "0x22f9dcf4647084d6c31b2765f6910cd85c178c18",
                    "gasUsed": 89730,
                    "id": 11,
                    "methodDecoded": true,
                    "operation": "CALL",
                    "output": "0x00000000000000000000000000000000000000000000000000000000017d7840000000000000000000000000000000000000000000000000003725f556ba1eab",
                    "revert": false,
                    "revertMessage": "",
                    "selector": "0xdac748d4",
                    "status": true,
                    "value": "0"
                },
                "nodeType": 0
            },
            "12": {
                "invocation": {
                    "address": "0x5ebac8dbfbba22168471b0f914131d1976536a25",
                    "callData": "0x000000000000000000000000c02aaa39b223fe8d0a0e5c4f27ead9083c756cc2000000000000000000000000a0b86991c6218b36c1d19d4a2e9eb0ce3606eb48000000000000000000000000000000000000000000000000003725f556ba1eab00000000000000000000000000000000000000000000000000000000017d78400000000000000000000000002008b6c3d07b061a84f790c035c2f6dc11a0be70000000000000000000000000000000000000000000000000000000000000000000000000000000000000000001f9241eed7532b38176d3accedaa94eb2ab699300000000652a70a50000000000000000000000000000000000000000652a704c0000000000000000000000000000000000000000000000000000000000000003000000000000000000000000000000000000000000000000000000000000001b10fa58dc88f902cca5d2955fdef6adacf5f37c425e42a8296ee54ccb6c1374a745a656b4d451cfb01241a539fb8d6acf091883418cadd27a9172544519fad58800000000000000000000000000000000000000000000000000000000017d7840",
                    "decodedMethod": {
                        "callParams": [
                            {
                                "name": "order",
                                "type": "(address,address,uint128,uint128,address,address,address,uint256)",
                                "value": [
                                    {
                                        "name": "makerToken",
                                        "type": "address",
                                        "value": "0xc02aaa39b223fe8d0a0e5c4f27ead9083c756cc2"
                                    },
                                    {
                                        "name": "takerToken",
                                        "type": "address",
                                        "value": "0xa0b86991c6218b36c1d19d4a2e9eb0ce3606eb48"
                                    },
                                    {
                                        "name": "makerAmount",
                                        "type": "uint128",
                                        "value": "15,522,859,371,339,435"
                                    },
                                    {
                                        "name": "takerAmount",
                                        "type": "uint128",
                                        "value": "25,000,000"
                                    },
                                    {
                                        "name": "maker",
                                        "type": "address",
                                        "value": "0x2008b6c3d07b061a84f790c035c2f6dc11a0be70"
                                    },
                                    {
                                        "name": "taker",
                                        "type": "address",
                                        "value": "0x0000000000000000000000000000000000000000"
                                    },
                                    {
                                        "name": "txOrigin",
                                        "type": "address",
                                        "value": "0x01f9241eed7532b38176d3accedaa94eb2ab6993"
                                    },
                                    {
                                        "name": "expiryAndNonce",
                                        "type": "uint256",
                                        "value": "10,654,000,269,158,891,865,645,534,705,127,162,883,987,164,505,668,564,834,615,514,787,916"
                                    }
                                ]
                            },
                            {
                                "name": "makerSignature",
                                "type": "(uint8,uint8,bytes32,bytes32)",
                                "value": [
                                    {
                                        "name": "signatureType",
                                        "type": "uint8",
                                        "value": "3"
                                    },
                                    {
                                        "name": "v",
                                        "type": "uint8",
                                        "value": "27"
                                    },
                                    {
                                        "name": "r",
                                        "type": "bytes32",
                                        "value": "0x10fa58dc88f902cca5d2955fdef6adacf5f37c425e42a8296ee54ccb6c1374a7"
                                    },
                                    {
                                        "name": "s",
                                        "type": "bytes32",
                                        "value": "0x45a656b4d451cfb01241a539fb8d6acf091883418cadd27a9172544519fad588"
                                    }
                                ]
                            },
                            {
                                "name": "takerTokenFillAmount",
                                "type": "uint128",
                                "value": "25,000,000"
                            }
                        ],
                        "constructorArguments": "",
                        "name": "fillOtcOrder",
                        "returnParams": [
                            {
                                "name": "takerTokenFilledAmount",
                                "type": "uint128",
                                "value": "25,000,000"
                            },
                            {
                                "name": "makerTokenFilledAmount",
                                "type": "uint128",
                                "value": "15,522,859,371,339,435"
                            }
                        ],
                        "signature": "fillOtcOrder((address,address,uint128,uint128,address,address,address,uint256),(uint8,uint8,bytes32,bytes32),uint128)"
                    },
                    "errorInfo": "",
                    "fromAddress": "0xdef1c0ded9bec7f1a1670819833240f027b25eff",
                    "gasUsed": 83924,
                    "id": 12,
                    "methodDecoded": true,
                    "operation": "DELEGATECALL",
                    "output": "0x00000000000000000000000000000000000000000000000000000000017d7840000000000000000000000000000000000000000000000000003725f556ba1eab",
                    "revert": false,
                    "revertMessage": "",
                    "selector": "0xdac748d4",
                    "status": true,
                    "value": "0"
                },
                "nodeType": 0
            },
            "13": {
                "invocation": {
                    "address": "0x0000000000000000000000000000000000000001",
                    "callData": "0x1d44217d18d0f5cf8659db6ab517417ac4cc0a8ca2805e03b1bdedd1000000000000000000000000000000000000000000000000000000000000001b10fa58dc88f902cca5d2955fdef6adacf5f37c425e42a8296ee54ccb6c1374a745a656b4d451cfb01241a539fb8d6acf091883418cadd27a9172544519fad588",
                    "decodedMethod": {
                        "callParams": [
                            {
                                "name": "hash",
                                "type": "bytes32",
                                "value": "0x3493226b1d44217d18d0f5cf8659db6ab517417ac4cc0a8ca2805e03b1bdedd1"
                            },
                            {
                                "name": "v",
                                "type": "uint256",
                                "value": "27"
                            },
                            {
                                "name": "r",
                                "type": "bytes32",
                                "value": "0x10fa58dc88f902cca5d2955fdef6adacf5f37c425e42a8296ee54ccb6c1374a7"
                            },
                            {
                                "name": "s",
                                "type": "bytes32",
                                "value": "0x45a656b4d451cfb01241a539fb8d6acf091883418cadd27a9172544519fad588"
                            }
                        ],
                        "constructorArguments": "",
                        "name": "ecrecover",
                        "returnParams": [
                            {
                                "name": "",
                                "type": "address",
                                "value": "0x2008b6c3d07b061a84f790c035c2f6dc11a0be70"
                            }
                        ],
                        "signature": "ecrecover(bytes32,uint256,bytes32,bytes32)"
                    },
                    "errorInfo": "",
                    "fromAddress": "0xdef1c0ded9bec7f1a1670819833240f027b25eff",
                    "gasUsed": 3000,
                    "id": 13,
                    "methodDecoded": true,
                    "operation": "STATICCALL",
                    "output": "0x0000000000000000000000002008b6c3d07b061a84f790c035c2f6dc11a0be70",
                    "revert": false,
                    "revertMessage": "",
                    "selector": "0x3493226b",
                    "status": true,
                    "value": "0"
                },
                "nodeType": 0
            },
            "14": {
                "invocation": {
                    "address": "0xa0b86991c6218b36c1d19d4a2e9eb0ce3606eb48",
                    "callData": "0x00000000000000000000000022f9dcf4647084d6c31b2765f6910cd85c178c180000000000000000000000002008b6c3d07b061a84f790c035c2f6dc11a0be7000000000000000000000000000000000000000000000000000000000017d7840",
                    "decodedMethod": {
                        "callParams": [
                            {
                                "name": "from",
                                "type": "address",
                                "value": "0x22f9dcf4647084d6c31b2765f6910cd85c178c18"
                            },
                            {
                                "name": "to",
                                "type": "address",
                                "value": "0x2008b6c3d07b061a84f790c035c2f6dc11a0be70"
                            },
                            {
                                "decimalAvailable": true,
                                "name": "value",
                                "type": "uint256",
                                "value": "25,000,000"
                            }
                        ],
                        "constructorArguments": "",
                        "name": "transferFrom",
                        "returnParams": [
                            {
                                "name": "",
                                "type": "bool",
                                "value": true
                            }
                        ],
                        "signature": "transferFrom(address,address,uint256)"
                    },
                    "errorInfo": "",
                    "fromAddress": "0xdef1c0ded9bec7f1a1670819833240f027b25eff",
                    "gasUsed": 15592,
                    "id": 14,
                    "methodDecoded": true,
                    "operation": "CALL",
                    "output": "0x0000000000000000000000000000000000000000000000000000000000000001",
                    "revert": false,
                    "revertMessage": "",
                    "selector": "0x23b872dd",
                    "status": true,
                    "value": "0"
                },
                "nodeType": 0
            },
            "15": {
                "invocation": {
                    "address": "0xa2327a938febf5fec13bacfb16ae10ecbc4cbdcf",
                    "callData": "0x00000000000000000000000022f9dcf4647084d6c31b2765f6910cd85c178c180000000000000000000000002008b6c3d07b061a84f790c035c2f6dc11a0be7000000000000000000000000000000000000000000000000000000000017d7840",
                    "decodedMethod": {
                        "callParams": [
                            {
                                "name": "from",
                                "type": "address",
                                "value": "0x22f9dcf4647084d6c31b2765f6910cd85c178c18"
                            },
                            {
                                "name": "to",
                                "type": "address",
                                "value": "0x2008b6c3d07b061a84f790c035c2f6dc11a0be70"
                            },
                            {
                                "decimalAvailable": true,
                                "name": "value",
                                "type": "uint256",
                                "value": "25,000,000"
                            }
                        ],
                        "constructorArguments": "",
                        "name": "transferFrom",
                        "returnParams": [
                            {
                                "name": "",
                                "type": "bool",
                                "value": true
                            }
                        ],
                        "signature": "transferFrom(address,address,uint256)"
                    },
                    "errorInfo": "",
                    "fromAddress": "0xa0b86991c6218b36c1d19d4a2e9eb0ce3606eb48",
                    "gasUsed": 14797,
                    "id": 15,
                    "methodDecoded": true,
                    "operation": "DELEGATECALL",
                    "output": "0x0000000000000000000000000000000000000000000000000000000000000001",
                    "revert": false,
                    "revertMessage": "",
                    "selector": "0x23b872dd",
                    "status": true,
                    "value": "0"
                },
                "nodeType": 0
            },
            "16": {
                "event": {
                    "contract": "0xa0b86991c6218b36c1d19d4a2e9eb0ce3606eb48",
                    "decodedLog": {
                        "name": "Transfer",
                        "params": [
                            {
                                "name": "from",
                                "type": "address",
                                "value": "0x22f9dcf4647084d6c31b2765f6910cd85c178c18"
                            },
                            {
                                "name": "to",
                                "type": "address",
                                "value": "0x2008b6c3d07b061a84f790c035c2f6dc11a0be70"
                            },
                            {
                                "decimalAvailable": true,
                                "name": "value",
                                "type": "uint256",
                                "value": "25,000,000"
                            }
                        ],
                        "signature": "Transfer(address,address,uint256)"
                    },
                    "id": 16,
                    "logData": "0x00000000000000000000000000000000000000000000000000000000017d7840",
                    "logDecoded": true,
                    "operation": "EVENT",
                    "revert": false,
                    "status": true,
                    "topics": [
                        "0xddf252ad1be2c89b69c2b068fc378daa952ba7f163c4a11628f55a4df523b3ef",
                        "0x00000000000000000000000022f9dcf4647084d6c31b2765f6910cd85c178c18",
                        "0x0000000000000000000000002008b6c3d07b061a84f790c035c2f6dc11a0be70"
                    ]
                },
                "nodeType": 1
            },
            "17": {
                "invocation": {
                    "address": "0xc02aaa39b223fe8d0a0e5c4f27ead9083c756cc2",
                    "callData": "0x0000000000000000000000002008b6c3d07b061a84f790c035c2f6dc11a0be7000000000000000000000000022f9dcf4647084d6c31b2765f6910cd85c178c18000000000000000000000000000000000000000000000000003725f556ba1eab",
                    "decodedMethod": {
                        "callParams": [
                            {
                                "name": "src",
                                "type": "address",
                                "value": "0x2008b6c3d07b061a84f790c035c2f6dc11a0be70"
                            },
                            {
                                "name": "dst",
                                "type": "address",
                                "value": "0x22f9dcf4647084d6c31b2765f6910cd85c178c18"
                            },
                            {
                                "decimalAvailable": true,
                                "name": "wad",
                                "type": "uint256",
                                "value": "15,522,859,371,339,435"
                            }
                        ],
                        "constructorArguments": "",
                        "name": "transferFrom",
                        "returnParams": [
                            {
                                "name": "",
                                "type": "bool",
                                "value": true
                            }
                        ],
                        "signature": "transferFrom(address,address,uint256)"
                    },
                    "errorInfo": "",
                    "fromAddress": "0xdef1c0ded9bec7f1a1670819833240f027b25eff",
                    "gasUsed": 32125,
                    "id": 17,
                    "methodDecoded": true,
                    "operation": "CALL",
                    "output": "0x0000000000000000000000000000000000000000000000000000000000000001",
                    "revert": false,
                    "revertMessage": "",
                    "selector": "0x23b872dd",
                    "status": true,
                    "value": "0"
                },
                "nodeType": 0
            },
            "18": {
                "event": {
                    "contract": "0xc02aaa39b223fe8d0a0e5c4f27ead9083c756cc2",
                    "decodedLog": {
                        "name": "Transfer",
                        "params": [
                            {
                                "name": "src",
                                "type": "address",
                                "value": "0x2008b6c3d07b061a84f790c035c2f6dc11a0be70"
                            },
                            {
                                "name": "dst",
                                "type": "address",
                                "value": "0x22f9dcf4647084d6c31b2765f6910cd85c178c18"
                            },
                            {
                                "decimalAvailable": true,
                                "name": "wad",
                                "type": "uint256",
                                "value": "15,522,859,371,339,435"
                            }
                        ],
                        "signature": "Transfer(address,address,uint256)"
                    },
                    "id": 18,
                    "logData": "0x000000000000000000000000000000000000000000000000003725f556ba1eab",
                    "logDecoded": true,
                    "operation": "EVENT",
                    "revert": false,
                    "status": true,
                    "topics": [
                        "0xddf252ad1be2c89b69c2b068fc378daa952ba7f163c4a11628f55a4df523b3ef",
                        "0x0000000000000000000000002008b6c3d07b061a84f790c035c2f6dc11a0be70",
                        "0x00000000000000000000000022f9dcf4647084d6c31b2765f6910cd85c178c18"
                    ]
                },
                "nodeType": 1
            },
            "19": {
                "event": {
                    "contract": "0xdef1c0ded9bec7f1a1670819833240f027b25eff",
                    "decodedLog": {
                        "name": "OtcOrderFilled",
                        "params": [
                            {
                                "name": "orderHash",
                                "type": "bytes32",
                                "value": "0x02418b3335c7d3c42f3eec3961922175bdfcda90bca0b536fd30a0999d307d6b"
                            },
                            {
                                "name": "maker",
                                "type": "address",
                                "value": "0x2008b6c3d07b061a84f790c035c2f6dc11a0be70"
                            },
                            {
                                "name": "taker",
                                "type": "address",
                                "value": "0x22f9dcf4647084d6c31b2765f6910cd85c178c18"
                            },
                            {
                                "name": "makerToken",
                                "type": "address",
                                "value": "0xc02aaa39b223fe8d0a0e5c4f27ead9083c756cc2"
                            },
                            {
                                "name": "takerToken",
                                "type": "address",
                                "value": "0xa0b86991c6218b36c1d19d4a2e9eb0ce3606eb48"
                            },
                            {
                                "name": "makerTokenFilledAmount",
                                "type": "uint128",
                                "value": "15,522,859,371,339,435"
                            },
                            {
                                "name": "takerTokenFilledAmount",
                                "type": "uint128",
                                "value": "25,000,000"
                            }
                        ],
                        "signature": "OtcOrderFilled(bytes32,address,address,address,address,uint128,uint128)"
                    },
                    "id": 19,
                    "logData": "0x02418b3335c7d3c42f3eec3961922175bdfcda90bca0b536fd30a0999d307d6b0000000000000000000000002008b6c3d07b061a84f790c035c2f6dc11a0be7000000000000000000000000022f9dcf4647084d6c31b2765f6910cd85c178c18000000000000000000000000c02aaa39b223fe8d0a0e5c4f27ead9083c756cc2000000000000000000000000a0b86991c6218b36c1d19d4a2e9eb0ce3606eb48000000000000000000000000000000000000000000000000003725f556ba1eab00000000000000000000000000000000000000000000000000000000017d7840",
                    "logDecoded": true,
                    "operation": "EVENT",
                    "revert": false,
                    "status": true,
                    "topics": [
                        "0xac75f773e3a92f1a02b12134d65e1f47f8a14eabe4eaf1e24624918e6a8b269f"
                    ]
                },
                "nodeType": 1
            },
            "2": {
                "invocation": {
                    "address": "0xa0b86991c6218b36c1d19d4a2e9eb0ce3606eb48",
                    "callData": "0x00000000000000000000000001f9241eed7532b38176d3accedaa94eb2ab699300000000000000000000000022f9dcf4647084d6c31b2765f6910cd85c178c1800000000000000000000000000000000000000000000000000000000017d7840",
                    "decodedMethod": {
                        "callParams": [
                            {
                                "name": "from",
                                "type": "address",
                                "value": "0x01f9241eed7532b38176d3accedaa94eb2ab6993"
                            },
                            {
                                "name": "to",
                                "type": "address",
                                "value": "0x22f9dcf4647084d6c31b2765f6910cd85c178c18"
                            },
                            {
                                "decimalAvailable": true,
                                "name": "value",
                                "type": "uint256",
                                "value": "25,000,000"
                            }
                        ],
                        "constructorArguments": "",
                        "name": "transferFrom",
                        "returnParams": [
                            {
                                "name": "",
                                "type": "bool",
                                "value": true
                            }
                        ],
                        "signature": "transferFrom(address,address,uint256)"
                    },
                    "errorInfo": "",
                    "fromAddress": "0xdef1c0ded9bec7f1a1670819833240f027b25eff",
                    "gasUsed": 51992,
                    "id": 2,
                    "methodDecoded": true,
                    "operation": "CALL",
                    "output": "0x0000000000000000000000000000000000000000000000000000000000000001",
                    "revert": false,
                    "revertMessage": "",
                    "selector": "0x23b872dd",
                    "status": true,
                    "value": "0"
                },
                "nodeType": 0
            },
            "20": {
                "invocation": {
                    "address": "0x22f9dcf4647084d6c31b2765f6910cd85c178c18",
                    "callData": "0x000000000000000000000000b2bc06a4efb20fc6553a69dbfa49b7be938034a7000000000000000000000000000000000000000000000000000000000000004000000000000000000000000000000000000000000000000000000000000000e4832b24bb000000000000000000000000000000000000000000000000000000000000002000000000000000000000000001f9241eed7532b38176d3accedaa94eb2ab699300000000000000000000000001f9241eed7532b38176d3accedaa94eb2ab699300000000000000000000000000000000000000000000000000000000000000600000000000000000000000000000000000000000000000000000000000000040000000000000000000000000c02aaa39b223fe8d0a0e5c4f27ead9083c756cc2ffffffffffffffffffffffffffffffffffffffffffffffffffffffffffffffff00000000000000000000000000000000000000000000000000000000",
                    "decodedMethod": {
                        "callParams": [
                            {
                                "name": "target",
                                "type": "address",
                                "value": "0xb2bc06a4efb20fc6553a69dbfa49b7be938034a7"
                            },
                            {
                                "name": "callData",
                                "type": "bytes",
                                "value": "0x832b24bb000000000000000000000000000000000000000000000000000000000000002000000000000000000000000001f9241eed7532b38176d3accedaa94eb2ab699300000000000000000000000001f9241eed7532b38176d3accedaa94eb2ab699300000000000000000000000000000000000000000000000000000000000000600000000000000000000000000000000000000000000000000000000000000040000000000000000000000000c02aaa39b223fe8d0a0e5c4f27ead9083c756cc2ffffffffffffffffffffffffffffffffffffffffffffffffffffffffffffffff"
                            }
                        ],
                        "constructorArguments": "",
                        "name": "executeDelegateCall",
                        "returnParams": [
                            {
                                "name": "resultData",
                                "type": "bytes",
                                "value": "0x13c9929e00000000000000000000000000000000000000000000000000000000"
                            }
                        ],
                        "signature": "executeDelegateCall(address,bytes)"
                    },
                    "errorInfo": "",
                    "fromAddress": "0xdef1c0ded9bec7f1a1670819833240f027b25eff",
                    "gasUsed": 15729,
                    "id": 20,
                    "methodDecoded": true,
                    "operation": "CALL",
                    "output": "0x0000000000000000000000000000000000000000000000000000000000000020000000000000000000000000000000000000000000000000000000000000002013c9929e00000000000000000000000000000000000000000000000000000000",
                    "revert": false,
                    "revertMessage": "",
                    "selector": "0xb68df16d",
                    "status": true,
                    "value": "0"
                },
                "nodeType": 0
            },
            "21": {
                "invocation": {
                    "address": "0xb2bc06a4efb20fc6553a69dbfa49b7be938034a7",
                    "callData": "0x000000000000000000000000000000000000000000000000000000000000002000000000000000000000000001f9241eed7532b38176d3accedaa94eb2ab699300000000000000000000000001f9241eed7532b38176d3accedaa94eb2ab699300000000000000000000000000000000000000000000000000000000000000600000000000000000000000000000000000000000000000000000000000000040000000000000000000000000c02aaa39b223fe8d0a0e5c4f27ead9083c756cc2ffffffffffffffffffffffffffffffffffffffffffffffffffffffffffffffff",
                    "decodedMethod": {
                        "callParams": [
                            {
                                "name": "context",
                                "type": "(address,address,bytes)",
                                "value": [
                                    {
                                        "name": "sender",
                                        "type": "address",
                                        "value": "0x01f9241eed7532b38176d3accedaa94eb2ab6993"
                                    },
                                    {
                                        "name": "taker",
                                        "type": "address",
                                        "value": "0x01f9241eed7532b38176d3accedaa94eb2ab6993"
                                    },
                                    {
                                        "name": "data",
                                        "type": "bytes",
                                        "value": "0x000000000000000000000000c02aaa39b223fe8d0a0e5c4f27ead9083c756cc2ffffffffffffffffffffffffffffffffffffffffffffffffffffffffffffffff"
                                    }
                                ]
                            }
                        ],
                        "constructorArguments": "",
                        "name": "transform",
                        "returnParams": [
                            {
                                "name": "success",
                                "type": "bytes4",
                                "value": "0x13c9929e"
                            }
                        ],
                        "signature": "transform((address,address,bytes))"
                    },
                    "errorInfo": "",
                    "fromAddress": "0x22f9dcf4647084d6c31b2765f6910cd85c178c18",
                    "gasUsed": 11962,
                    "id": 21,
                    "methodDecoded": true,
                    "operation": "DELEGATECALL",
                    "output": "0x13c9929e00000000000000000000000000000000000000000000000000000000",
                    "revert": false,
                    "revertMessage": "",
                    "selector": "0x832b24bb",
                    "status": true,
                    "value": "0"
                },
                "nodeType": 0
            },
            "22": {
                "invocation": {
                    "address": "0xc02aaa39b223fe8d0a0e5c4f27ead9083c756cc2",
                    "callData": "0x00000000000000000000000022f9dcf4647084d6c31b2765f6910cd85c178c18",
                    "decodedMethod": {
                        "callParams": [
                            {
                                "name": "",
                                "type": "address",
                                "value": "0x22f9dcf4647084d6c31b2765f6910cd85c178c18"
                            }
                        ],
                        "constructorArguments": "",
                        "name": "balanceOf",
                        "returnParams": [
                            {
                                "decimalAvailable": true,
                                "name": "",
                                "type": "uint256",
                                "value": "15,522,859,371,339,435"
                            }
                        ],
                        "signature": "balanceOf(address)"
                    },
                    "errorInfo": "",
                    "fromAddress": "0x22f9dcf4647084d6c31b2765f6910cd85c178c18",
                    "gasUsed": 534,
                    "id": 22,
                    "methodDecoded": true,
                    "operation": "STATICCALL",
                    "output": "0x000000000000000000000000000000000000000000000000003725f556ba1eab",
                    "revert": false,
                    "revertMessage": "",
                    "selector": "0x70a08231",
                    "status": true,
                    "value": "0"
                },
                "nodeType": 0
            },
            "23": {
                "invocation": {
                    "address": "0xc02aaa39b223fe8d0a0e5c4f27ead9083c756cc2",
                    "callData": "0x000000000000000000000000000000000000000000000000003725f556ba1eab",
                    "decodedMethod": {
                        "callParams": [
                            {
                                "name": "wad",
                                "type": "uint256",
                                "value": "15,522,859,371,339,435"
                            }
                        ],
                        "constructorArguments": "",
                        "name": "withdraw",
                        "returnParams": [],
                        "signature": "withdraw(uint256)"
                    },
                    "errorInfo": "",
                    "fromAddress": "0x22f9dcf4647084d6c31b2765f6910cd85c178c18",
                    "gasUsed": 9195,
                    "id": 23,
                    "methodDecoded": true,
                    "operation": "CALL",
                    "output": "",
                    "revert": false,
                    "revertMessage": "",
                    "selector": "0x2e1a7d4d",
                    "status": true,
                    "value": "0"
                },
                "nodeType": 0
            },
            "24": {
                "invocation": {
                    "address": "0x22f9dcf4647084d6c31b2765f6910cd85c178c18",
                    "callData": "0x",
                    "decodedMethod": null,
                    "errorInfo": "",
                    "fromAddress": "0xc02aaa39b223fe8d0a0e5c4f27ead9083c756cc2",
                    "gasUsed": 55,
                    "id": 24,
                    "methodDecoded": false,
                    "operation": "CALL",
                    "output": "",
                    "revert": false,
                    "revertMessage": "",
                    "selector": "fallback",
                    "status": true,
                    "value": "0.015522859371339435"
                },
                "nodeType": 0
            },
            "25": {
                "event": {
                    "contract": "0xc02aaa39b223fe8d0a0e5c4f27ead9083c756cc2",
                    "decodedLog": {
                        "name": "Withdrawal",
                        "params": [
                            {
                                "name": "src",
                                "type": "address",
                                "value": "0x22f9dcf4647084d6c31b2765f6910cd85c178c18"
                            },
                            {
                                "name": "wad",
                                "type": "uint256",
                                "value": "15,522,859,371,339,435"
                            }
                        ],
                        "signature": "Withdrawal(address,uint256)"
                    },
                    "id": 25,
                    "logData": "0x000000000000000000000000000000000000000000000000003725f556ba1eab",
                    "logDecoded": true,
                    "operation": "EVENT",
                    "revert": false,
                    "status": true,
                    "topics": [
                        "0x7fcf532c15f0a6db0bd6d0e038bea71d30d808c7d98cb3bf7268a95bf5081b65",
                        "0x00000000000000000000000022f9dcf4647084d6c31b2765f6910cd85c178c18"
                    ]
                },
                "nodeType": 1
            },
            "26": {
                "invocation": {
                    "address": "0x22f9dcf4647084d6c31b2765f6910cd85c178c18",
                    "callData": "0x0000000000000000000000008146cbbe327364b13d0699f2ced39c637f92501a00000000000000000000000000000000000000000000000000000000000000400000000000000000000000000000000000000000000000000000000000000144832b24bb000000000000000000000000000000000000000000000000000000000000002000000000000000000000000001f9241eed7532b38176d3accedaa94eb2ab699300000000000000000000000001f9241eed7532b38176d3accedaa94eb2ab6993000000000000000000000000000000000000000000000000000000000000006000000000000000000000000000000000000000000000000000000000000000a000000000000000000000000000000000000000000000000000000000000000200000000000000000000000000000000000000000000000000000000000000001000000000000000000000000eeeeeeeeeeeeeeeeeeeeeeeeeeeeeeeeeeeeeeee00000000000000000000000000000000000000000000000000000db1c57bb0b7000000000000000000000000ad01c20d5886137e056775af56915de824c8fce500000000000000000000000000000000000000000000000000000000",
                    "decodedMethod": {
                        "callParams": [
                            {
                                "name": "target",
                                "type": "address",
                                "value": "0x8146cbbe327364b13d0699f2ced39c637f92501a"
                            },
                            {
                                "name": "callData",
                                "type": "bytes",
                                "value": "0x832b24bb000000000000000000000000000000000000000000000000000000000000002000000000000000000000000001f9241eed7532b38176d3accedaa94eb2ab699300000000000000000000000001f9241eed7532b38176d3accedaa94eb2ab6993000000000000000000000000000000000000000000000000000000000000006000000000000000000000000000000000000000000000000000000000000000a000000000000000000000000000000000000000000000000000000000000000200000000000000000000000000000000000000000000000000000000000000001000000000000000000000000eeeeeeeeeeeeeeeeeeeeeeeeeeeeeeeeeeeeeeee00000000000000000000000000000000000000000000000000000db1c57bb0b7000000000000000000000000ad01c20d5886137e056775af56915de824c8fce5"
                            }
                        ],
                        "constructorArguments": "",
                        "name": "executeDelegateCall",
                        "returnParams": [
                            {
                                "name": "resultData",
                                "type": "bytes",
                                "value": "0x13c9929e00000000000000000000000000000000000000000000000000000000"
                            }
                        ],
                        "signature": "executeDelegateCall(address,bytes)"
                    },
                    "errorInfo": "",
                    "fromAddress": "0xdef1c0ded9bec7f1a1670819833240f027b25eff",
                    "gasUsed": 15173,
                    "id": 26,
                    "methodDecoded": true,
                    "operation": "CALL",
                    "output": "0x0000000000000000000000000000000000000000000000000000000000000020000000000000000000000000000000000000000000000000000000000000002013c9929e00000000000000000000000000000000000000000000000000000000",
                    "revert": false,
                    "revertMessage": "",
                    "selector": "0xb68df16d",
                    "status": true,
                    "value": "0"
                },
                "nodeType": 0
            },
            "27": {
                "invocation": {
                    "address": "0x8146cbbe327364b13d0699f2ced39c637f92501a",
                    "callData": "0x000000000000000000000000000000000000000000000000000000000000002000000000000000000000000001f9241eed7532b38176d3accedaa94eb2ab699300000000000000000000000001f9241eed7532b38176d3accedaa94eb2ab6993000000000000000000000000000000000000000000000000000000000000006000000000000000000000000000000000000000000000000000000000000000a000000000000000000000000000000000000000000000000000000000000000200000000000000000000000000000000000000000000000000000000000000001000000000000000000000000eeeeeeeeeeeeeeeeeeeeeeeeeeeeeeeeeeeeeeee00000000000000000000000000000000000000000000000000000db1c57bb0b7000000000000000000000000ad01c20d5886137e056775af56915de824c8fce5",
                    "decodedMethod": {
                        "callParams": [
                            {
                                "name": "context",
                                "type": "(address,address,bytes)",
                                "value": [
                                    {
                                        "name": "sender",
                                        "type": "address",
                                        "value": "0x01f9241eed7532b38176d3accedaa94eb2ab6993"
                                    },
                                    {
                                        "name": "recipient",
                                        "type": "address",
                                        "value": "0x01f9241eed7532b38176d3accedaa94eb2ab6993"
                                    },
                                    {
                                        "name": "data",
                                        "type": "bytes",
                                        "value": "0x00000000000000000000000000000000000000000000000000000000000000200000000000000000000000000000000000000000000000000000000000000001000000000000000000000000eeeeeeeeeeeeeeeeeeeeeeeeeeeeeeeeeeeeeeee00000000000000000000000000000000000000000000000000000db1c57bb0b7000000000000000000000000ad01c20d5886137e056775af56915de824c8fce5"
                                    }
                                ]
                            }
                        ],
                        "constructorArguments": "",
                        "name": "transform",
                        "returnParams": [
                            {
                                "name": "success",
                                "type": "bytes4",
                                "value": "0x13c9929e"
                            }
                        ],
                        "signature": "transform((address,address,bytes))"
                    },
                    "errorInfo": "",
                    "fromAddress": "0x22f9dcf4647084d6c31b2765f6910cd85c178c18",
                    "gasUsed": 11388,
                    "id": 27,
                    "methodDecoded": true,
                    "operation": "DELEGATECALL",
                    "output": "0x13c9929e00000000000000000000000000000000000000000000000000000000",
                    "revert": false,
                    "revertMessage": "",
                    "selector": "0x832b24bb",
                    "status": true,
                    "value": "0"
                },
                "nodeType": 0
            },
            "28": {
                "invocation": {
                    "address": "0xad01c20d5886137e056775af56915de824c8fce5",
                    "callData": "0x",
                    "decodedMethod": null,
                    "errorInfo": "",
                    "fromAddress": "0x22f9dcf4647084d6c31b2765f6910cd85c178c18",
                    "gasUsed": 0,
                    "id": 28,
                    "methodDecoded": false,
                    "operation": "CALL",
                    "output": "",
                    "revert": false,
                    "revertMessage": "",
                    "selector": "fallback",
                    "status": true,
                    "value": "0.000015057173590199"
                },
                "nodeType": 0
            },
            "29": {
                "invocation": {
                    "address": "0x22f9dcf4647084d6c31b2765f6910cd85c178c18",
                    "callData": "0x000000000000000000000000ea500d073652336a58846ada15c25f2c6d2d241f00000000000000000000000000000000000000000000000000000000000000400000000000000000000000000000000000000000000000000000000000000164832b24bb000000000000000000000000000000000000000000000000000000000000002000000000000000000000000001f9241eed7532b38176d3accedaa94eb2ab699300000000000000000000000001f9241eed7532b38176d3accedaa94eb2ab6993000000000000000000000000000000000000000000000000000000000000006000000000000000000000000000000000000000000000000000000000000000c00000000000000000000000000000000000000000000000000000000000000020000000000000000000000000000000000000000000000000000000000000004000000000000000000000000000000000000000000000000000000000000000800000000000000000000000000000000000000000000000000000000000000001000000000000000000000000a0b86991c6218b36c1d19d4a2e9eb0ce3606eb48000000000000000000000000000000000000000000000000000000000000000000000000000000000000000000000000000000000000000000000000",
                    "decodedMethod": {
                        "callParams": [
                            {
                                "name": "target",
                                "type": "address",
                                "value": "0xea500d073652336a58846ada15c25f2c6d2d241f"
                            },
                            {
                                "name": "callData",
                                "type": "bytes",
                                "value": "0x832b24bb000000000000000000000000000000000000000000000000000000000000002000000000000000000000000001f9241eed7532b38176d3accedaa94eb2ab699300000000000000000000000001f9241eed7532b38176d3accedaa94eb2ab6993000000000000000000000000000000000000000000000000000000000000006000000000000000000000000000000000000000000000000000000000000000c00000000000000000000000000000000000000000000000000000000000000020000000000000000000000000000000000000000000000000000000000000004000000000000000000000000000000000000000000000000000000000000000800000000000000000000000000000000000000000000000000000000000000001000000000000000000000000a0b86991c6218b36c1d19d4a2e9eb0ce3606eb480000000000000000000000000000000000000000000000000000000000000000"
                            }
                        ],
                        "constructorArguments": "",
                        "name": "executeDelegateCall",
                        "returnParams": [
                            {
                                "name": "resultData",
                                "type": "bytes",
                                "value": "0x13c9929e00000000000000000000000000000000000000000000000000000000"
                            }
                        ],
                        "signature": "executeDelegateCall(address,bytes)"
                    },
                    "errorInfo": "",
                    "fromAddress": "0xdef1c0ded9bec7f1a1670819833240f027b25eff",
                    "gasUsed": 7933,
                    "id": 29,
                    "methodDecoded": true,
                    "operation": "CALL",
                    "output": "0x0000000000000000000000000000000000000000000000000000000000000020000000000000000000000000000000000000000000000000000000000000002013c9929e00000000000000000000000000000000000000000000000000000000",
                    "revert": false,
                    "revertMessage": "",
                    "selector": "0xb68df16d",
                    "status": true,
                    "value": "0"
                },
                "nodeType": 0
            },
            "3": {
                "invocation": {
                    "address": "0xa2327a938febf5fec13bacfb16ae10ecbc4cbdcf",
                    "callData": "0x00000000000000000000000001f9241eed7532b38176d3accedaa94eb2ab699300000000000000000000000022f9dcf4647084d6c31b2765f6910cd85c178c1800000000000000000000000000000000000000000000000000000000017d7840",
                    "decodedMethod": {
                        "callParams": [
                            {
                                "name": "from",
                                "type": "address",
                                "value": "0x01f9241eed7532b38176d3accedaa94eb2ab6993"
                            },
                            {
                                "name": "to",
                                "type": "address",
                                "value": "0x22f9dcf4647084d6c31b2765f6910cd85c178c18"
                            },
                            {
                                "decimalAvailable": true,
                                "name": "value",
                                "type": "uint256",
                                "value": "25,000,000"
                            }
                        ],
                        "constructorArguments": "",
                        "name": "transferFrom",
                        "returnParams": [
                            {
                                "name": "",
                                "type": "bool",
                                "value": true
                            }
                        ],
                        "signature": "transferFrom(address,address,uint256)"
                    },
                    "errorInfo": "",
                    "fromAddress": "0xa0b86991c6218b36c1d19d4a2e9eb0ce3606eb48",
                    "gasUsed": 44697,
                    "id": 3,
                    "methodDecoded": true,
                    "operation": "DELEGATECALL",
                    "output": "0x0000000000000000000000000000000000000000000000000000000000000001",
                    "revert": false,
                    "revertMessage": "",
                    "selector": "0x23b872dd",
                    "status": true,
                    "value": "0"
                },
                "nodeType": 0
            },
            "30": {
                "invocation": {
                    "address": "0xea500d073652336a58846ada15c25f2c6d2d241f",
                    "callData": "0x000000000000000000000000000000000000000000000000000000000000002000000000000000000000000001f9241eed7532b38176d3accedaa94eb2ab699300000000000000000000000001f9241eed7532b38176d3accedaa94eb2ab6993000000000000000000000000000000000000000000000000000000000000006000000000000000000000000000000000000000000000000000000000000000c00000000000000000000000000000000000000000000000000000000000000020000000000000000000000000000000000000000000000000000000000000004000000000000000000000000000000000000000000000000000000000000000800000000000000000000000000000000000000000000000000000000000000001000000000000000000000000a0b86991c6218b36c1d19d4a2e9eb0ce3606eb480000000000000000000000000000000000000000000000000000000000000000",
                    "decodedMethod": {
                        "callParams": [
                            {
                                "name": "context",
                                "type": "(address,address,bytes)",
                                "value": [
                                    {
                                        "name": "sender",
                                        "type": "address",
                                        "value": "0x01f9241eed7532b38176d3accedaa94eb2ab6993"
                                    },
                                    {
                                        "name": "recipient",
                                        "type": "address",
                                        "value": "0x01f9241eed7532b38176d3accedaa94eb2ab6993"
                                    },
                                    {
                                        "name": "data",
                                        "type": "bytes",
                                        "value": "0x0000000000000000000000000000000000000000000000000000000000000020000000000000000000000000000000000000000000000000000000000000004000000000000000000000000000000000000000000000000000000000000000800000000000000000000000000000000000000000000000000000000000000001000000000000000000000000a0b86991c6218b36c1d19d4a2e9eb0ce3606eb480000000000000000000000000000000000000000000000000000000000000000"
                                    }
                                ]
                            }
                        ],
                        "constructorArguments": "",
                        "name": "transform",
                        "returnParams": [
                            {
                                "name": "success",
                                "type": "bytes4",
                                "value": "0x13c9929e"
                            }
                        ],
                        "signature": "transform((address,address,bytes))"
                    },
                    "errorInfo": "",
                    "fromAddress": "0x22f9dcf4647084d6c31b2765f6910cd85c178c18",
                    "gasUsed": 4142,
                    "id": 30,
                    "methodDecoded": true,
                    "operation": "DELEGATECALL",
                    "output": "0x13c9929e00000000000000000000000000000000000000000000000000000000",
                    "revert": false,
                    "revertMessage": "",
                    "selector": "0x832b24bb",
                    "status": true,
                    "value": "0"
                },
                "nodeType": 0
            },
            "31": {
                "invocation": {
                    "address": "0xa0b86991c6218b36c1d19d4a2e9eb0ce3606eb48",
                    "callData": "0x00000000000000000000000022f9dcf4647084d6c31b2765f6910cd85c178c18",
                    "decodedMethod": {
                        "callParams": [
                            {
                                "name": "account",
                                "type": "address",
                                "value": "0x22f9dcf4647084d6c31b2765f6910cd85c178c18"
                            }
                        ],
                        "constructorArguments": "",
                        "name": "balanceOf",
                        "returnParams": [
                            {
                                "decimalAvailable": true,
                                "name": "",
                                "type": "uint256",
                                "value": "0"
                            }
                        ],
                        "signature": "balanceOf(address)"
                    },
                    "errorInfo": "",
                    "fromAddress": "0x22f9dcf4647084d6c31b2765f6910cd85c178c18",
                    "gasUsed": 1315,
                    "id": 31,
                    "methodDecoded": true,
                    "operation": "STATICCALL",
                    "output": "0x0000000000000000000000000000000000000000000000000000000000000000",
                    "revert": false,
                    "revertMessage": "",
                    "selector": "0x70a08231",
                    "status": true,
                    "value": "0"
                },
                "nodeType": 0
            },
            "32": {
                "invocation": {
                    "address": "0xa2327a938febf5fec13bacfb16ae10ecbc4cbdcf",
                    "callData": "0x00000000000000000000000022f9dcf4647084d6c31b2765f6910cd85c178c18",
                    "decodedMethod": {
                        "callParams": [
                            {
                                "name": "account",
                                "type": "address",
                                "value": "0x22f9dcf4647084d6c31b2765f6910cd85c178c18"
                            }
                        ],
                        "constructorArguments": "",
                        "name": "balanceOf",
                        "returnParams": [
                            {
                                "decimalAvailable": true,
                                "name": "",
                                "type": "uint256",
                                "value": "0"
                            }
                        ],
                        "signature": "balanceOf(address)"
                    },
                    "errorInfo": "",
                    "fromAddress": "0xa0b86991c6218b36c1d19d4a2e9eb0ce3606eb48",
                    "gasUsed": 529,
                    "id": 32,
                    "methodDecoded": true,
                    "operation": "DELEGATECALL",
                    "output": "0x0000000000000000000000000000000000000000000000000000000000000000",
                    "revert": false,
                    "revertMessage": "",
                    "selector": "0x70a08231",
                    "status": true,
                    "value": "0"
                },
                "nodeType": 0
            },
            "33": {
                "invocation": {
                    "address": "0x22f9dcf4647084d6c31b2765f6910cd85c178c18",
                    "callData": "0x00000000000000000000000001f9241eed7532b38176d3accedaa94eb2ab6993000000000000000000000000000000000000000000000000000000000000006000000000000000000000000000000000000000000000000000371843913e6df40000000000000000000000000000000000000000000000000000000000000000",
                    "decodedMethod": {
                        "callParams": [
                            {
                                "name": "target",
                                "type": "address",
                                "value": "0x01f9241eed7532b38176d3accedaa94eb2ab6993"
                            },
                            {
                                "name": "callData",
                                "type": "bytes",
                                "value": "0x"
                            },
                            {
                                "name": "value",
                                "type": "uint256",
                                "value": "15,507,802,197,749,236"
                            }
                        ],
                        "constructorArguments": "",
                        "name": "executeCall",
                        "returnParams": [
                            {
                                "name": "resultData",
                                "type": "bytes",
                                "value": "0x"
                            }
                        ],
                        "signature": "executeCall(address,bytes,uint256)"
                    },
                    "errorInfo": "",
                    "fromAddress": "0xdef1c0ded9bec7f1a1670819833240f027b25eff",
                    "gasUsed": 7824,
                    "id": 33,
                    "methodDecoded": true,
                    "operation": "CALL",
                    "output": "0x00000000000000000000000000000000000000000000000000000000000000200000000000000000000000000000000000000000000000000000000000000000",
                    "revert": false,
                    "revertMessage": "",
                    "selector": "0x54132d78",
                    "status": true,
                    "value": "0"
                },
                "nodeType": 0
            },
            "34": {
                "invocation": {
                    "address": "0x01f9241eed7532b38176d3accedaa94eb2ab6993",
                    "callData": "0x",
                    "decodedMethod": null,
                    "errorInfo": "",
                    "fromAddress": "0x22f9dcf4647084d6c31b2765f6910cd85c178c18",
                    "gasUsed": 0,
                    "id": 34,
                    "methodDecoded": false,
                    "operation": "CALL",
                    "output": "",
                    "revert": false,
                    "revertMessage": "",
                    "selector": "fallback",
                    "status": true,
                    "value": "0.015507802197749236"
                },
                "nodeType": 0
            },
            "35": {
                "event": {
                    "contract": "0xdef1c0ded9bec7f1a1670819833240f027b25eff",
                    "decodedLog": {
                        "name": "TransformedERC20",
                        "params": [
                            {
                                "name": "taker",
                                "type": "address",
                                "value": "0x01f9241eed7532b38176d3accedaa94eb2ab6993"
                            },
                            {
                                "name": "inputToken",
                                "type": "address",
                                "value": "0xa0b86991c6218b36c1d19d4a2e9eb0ce3606eb48"
                            },
                            {
                                "name": "outputToken",
                                "type": "address",
                                "value": "0xeeeeeeeeeeeeeeeeeeeeeeeeeeeeeeeeeeeeeeee"
                            },
                            {
                                "name": "inputTokenAmount",
                                "type": "uint256",
                                "value": "25,000,000"
                            },
                            {
                                "name": "outputTokenAmount",
                                "type": "uint256",
                                "value": "15,507,802,197,749,236"
                            }
                        ],
                        "signature": "TransformedERC20(address,address,address,uint256,uint256)"
                    },
                    "id": 35,
                    "logData": "0x000000000000000000000000a0b86991c6218b36c1d19d4a2e9eb0ce3606eb48000000000000000000000000eeeeeeeeeeeeeeeeeeeeeeeeeeeeeeeeeeeeeeee00000000000000000000000000000000000000000000000000000000017d784000000000000000000000000000000000000000000000000000371843913e6df4",
                    "logDecoded": true,
                    "operation": "EVENT",
                    "revert": false,
                    "status": true,
                    "topics": [
                        "0x0f6672f78a59ba8e5e5b5d38df3ebc67f3c792e2c9259b8d97d7f00dd78ba1b3",
                        "0x00000000000000000000000001f9241eed7532b38176d3accedaa94eb2ab6993"
                    ]
                },
                "nodeType": 1
            },
            "4": {
                "event": {
                    "contract": "0xa0b86991c6218b36c1d19d4a2e9eb0ce3606eb48",
                    "decodedLog": {
                        "name": "Transfer",
                        "params": [
                            {
                                "name": "from",
                                "type": "address",
                                "value": "0x01f9241eed7532b38176d3accedaa94eb2ab6993"
                            },
                            {
                                "name": "to",
                                "type": "address",
                                "value": "0x22f9dcf4647084d6c31b2765f6910cd85c178c18"
                            },
                            {
                                "decimalAvailable": true,
                                "name": "value",
                                "type": "uint256",
                                "value": "25,000,000"
                            }
                        ],
                        "signature": "Transfer(address,address,uint256)"
                    },
                    "id": 4,
                    "logData": "0x00000000000000000000000000000000000000000000000000000000017d7840",
                    "logDecoded": true,
                    "operation": "EVENT",
                    "revert": false,
                    "status": true,
                    "topics": [
                        "0xddf252ad1be2c89b69c2b068fc378daa952ba7f163c4a11628f55a4df523b3ef",
                        "0x00000000000000000000000001f9241eed7532b38176d3accedaa94eb2ab6993",
                        "0x00000000000000000000000022f9dcf4647084d6c31b2765f6910cd85c178c18"
                    ]
                },
                "nodeType": 1
            },
            "5": {
                "invocation": {
                    "address": "0x22f9dcf4647084d6c31b2765f6910cd85c178c18",
                    "callData": "0x0000000000000000000000002fd08c1f9fc8406c1d7e3a799a13883a7e7949f000000000000000000000000000000000000000000000000000000000000000400000000000000000000000000000000000000000000000000000000000000404832b24bb000000000000000000000000000000000000000000000000000000000000002000000000000000000000000001f9241eed7532b38176d3accedaa94eb2ab699300000000000000000000000001f9241eed7532b38176d3accedaa94eb2ab69930000000000000000000000000000000000000000000000000000000000000060000000000000000000000000000000000000000000000000000000000000036000000000000000000000000000000000000000000000000000000000000000200000000000000000000000000000000000000000000000000000000000000000000000000000000000000000a0b86991c6218b36c1d19d4a2e9eb0ce3606eb48000000000000000000000000c02aaa39b223fe8d0a0e5c4f27ead9083c756cc2000000000000000000000000000000000000000000000000000000000000024000000000000000000000000000000000000000000000000000000000000002400000000000000000000000000000000000000000000000000000000000000240000000000000000000000000000000000000000000000000000000000000014000000000000000000000000000000000000000000000000000000000017d784000000000000000000000000000000000000000000000000000000000000000000000000000000000000000000000000000000000000000000000000000000180000000000000000000000000000000000000000000000000000000000000000100000000000000000000000000000000000000000000000000000000000000030000000000000000000000000000000000000000000000000000000000000001000000000000000000000000c02aaa39b223fe8d0a0e5c4f27ead9083c756cc2000000000000000000000000a0b86991c6218b36c1d19d4a2e9eb0ce3606eb48000000000000000000000000000000000000000000000000003725f556ba1eab00000000000000000000000000000000000000000000000000000000017d78400000000000000000000000002008b6c3d07b061a84f790c035c2f6dc11a0be70000000000000000000000000000000000000000000000000000000000000000000000000000000000000000001f9241eed7532b38176d3accedaa94eb2ab699300000000652a70a50000000000000000000000000000000000000000652a704c0000000000000000000000000000000000000000000000000000000000000003000000000000000000000000000000000000000000000000000000000000001b10fa58dc88f902cca5d2955fdef6adacf5f37c425e42a8296ee54ccb6c1374a745a656b4d451cfb01241a539fb8d6acf091883418cadd27a9172544519fad58800000000000000000000000000000000000000000000000000000000017d784000000000000000000000000000000000000000000000000000000000",
                    "decodedMethod": {
                        "callParams": [
                            {
                                "name": "target",
                                "type": "address",
                                "value": "0x2fd08c1f9fc8406c1d7e3a799a13883a7e7949f0"
                            },
                            {
                                "name": "callData",
                                "type": "bytes",
                                "value": "0x832b24bb000000000000000000000000000000000000000000000000000000000000002000000000000000000000000001f9241eed7532b38176d3accedaa94eb2ab699300000000000000000000000001f9241eed7532b38176d3accedaa94eb2ab69930000000000000000000000000000000000000000000000000000000000000060000000000000000000000000000000000000000000000000000000000000036000000000000000000000000000000000000000000000000000000000000000200000000000000000000000000000000000000000000000000000000000000000000000000000000000000000a0b86991c6218b36c1d19d4a2e9eb0ce3606eb48000000000000000000000000c02aaa39b223fe8d0a0e5c4f27ead9083c756cc2000000000000000000000000000000000000000000000000000000000000024000000000000000000000000000000000000000000000000000000000000002400000000000000000000000000000000000000000000000000000000000000240000000000000000000000000000000000000000000000000000000000000014000000000000000000000000000000000000000000000000000000000017d784000000000000000000000000000000000000000000000000000000000000000000000000000000000000000000000000000000000000000000000000000000180000000000000000000000000000000000000000000000000000000000000000100000000000000000000000000000000000000000000000000000000000000030000000000000000000000000000000000000000000000000000000000000001000000000000000000000000c02aaa39b223fe8d0a0e5c4f27ead9083c756cc2000000000000000000000000a0b86991c6218b36c1d19d4a2e9eb0ce3606eb48000000000000000000000000000000000000000000000000003725f556ba1eab00000000000000000000000000000000000000000000000000000000017d78400000000000000000000000002008b6c3d07b061a84f790c035c2f6dc11a0be70000000000000000000000000000000000000000000000000000000000000000000000000000000000000000001f9241eed7532b38176d3accedaa94eb2ab699300000000652a70a50000000000000000000000000000000000000000652a704c0000000000000000000000000000000000000000000000000000000000000003000000000000000000000000000000000000000000000000000000000000001b10fa58dc88f902cca5d2955fdef6adacf5f37c425e42a8296ee54ccb6c1374a745a656b4d451cfb01241a539fb8d6acf091883418cadd27a9172544519fad58800000000000000000000000000000000000000000000000000000000017d7840"
                            }
                        ],
                        "constructorArguments": "",
                        "name": "executeDelegateCall",
                        "returnParams": [
                            {
                                "name": "resultData",
                                "type": "bytes",
                                "value": "0x13c9929e00000000000000000000000000000000000000000000000000000000"
                            }
                        ],
                        "signature": "executeDelegateCall(address,bytes)"
                    },
                    "errorInfo": "",
                    "fromAddress": "0xdef1c0ded9bec7f1a1670819833240f027b25eff",
                    "gasUsed": 109745,
                    "id": 5,
                    "methodDecoded": true,
                    "operation": "CALL",
                    "output": "0x0000000000000000000000000000000000000000000000000000000000000020000000000000000000000000000000000000000000000000000000000000002013c9929e00000000000000000000000000000000000000000000000000000000",
                    "revert": false,
                    "revertMessage": "",
                    "selector": "0xb68df16d",
                    "status": true,
                    "value": "0"
                },
                "nodeType": 0
            },
            "6": {
                "invocation": {
                    "address": "0x2fd08c1f9fc8406c1d7e3a799a13883a7e7949f0",
                    "callData": "0x000000000000000000000000000000000000000000000000000000000000002000000000000000000000000001f9241eed7532b38176d3accedaa94eb2ab699300000000000000000000000001f9241eed7532b38176d3accedaa94eb2ab69930000000000000000000000000000000000000000000000000000000000000060000000000000000000000000000000000000000000000000000000000000036000000000000000000000000000000000000000000000000000000000000000200000000000000000000000000000000000000000000000000000000000000000000000000000000000000000a0b86991c6218b36c1d19d4a2e9eb0ce3606eb48000000000000000000000000c02aaa39b223fe8d0a0e5c4f27ead9083c756cc2000000000000000000000000000000000000000000000000000000000000024000000000000000000000000000000000000000000000000000000000000002400000000000000000000000000000000000000000000000000000000000000240000000000000000000000000000000000000000000000000000000000000014000000000000000000000000000000000000000000000000000000000017d784000000000000000000000000000000000000000000000000000000000000000000000000000000000000000000000000000000000000000000000000000000180000000000000000000000000000000000000000000000000000000000000000100000000000000000000000000000000000000000000000000000000000000030000000000000000000000000000000000000000000000000000000000000001000000000000000000000000c02aaa39b223fe8d0a0e5c4f27ead9083c756cc2000000000000000000000000a0b86991c6218b36c1d19d4a2e9eb0ce3606eb48000000000000000000000000000000000000000000000000003725f556ba1eab00000000000000000000000000000000000000000000000000000000017d78400000000000000000000000002008b6c3d07b061a84f790c035c2f6dc11a0be70000000000000000000000000000000000000000000000000000000000000000000000000000000000000000001f9241eed7532b38176d3accedaa94eb2ab699300000000652a70a50000000000000000000000000000000000000000652a704c0000000000000000000000000000000000000000000000000000000000000003000000000000000000000000000000000000000000000000000000000000001b10fa58dc88f902cca5d2955fdef6adacf5f37c425e42a8296ee54ccb6c1374a745a656b4d451cfb01241a539fb8d6acf091883418cadd27a9172544519fad58800000000000000000000000000000000000000000000000000000000017d7840",
                    "decodedMethod": {
                        "callParams": [
                            {
                                "name": "context",
                                "type": "(address,address,bytes)",
                                "value": [
                                    {
                                        "name": "sender",
                                        "type": "address",
                                        "value": "0x01f9241eed7532b38176d3accedaa94eb2ab6993"
                                    },
                                    {
                                        "name": "recipient",
                                        "type": "address",
                                        "value": "0x01f9241eed7532b38176d3accedaa94eb2ab6993"
                                    },
                                    {
                                        "name": "data",
                                        "type": "bytes",
                                        "value": "0x00000000000000000000000000000000000000000000000000000000000000200000000000000000000000000000000000000000000000000000000000000000000000000000000000000000a0b86991c6218b36c1d19d4a2e9eb0ce3606eb48000000000000000000000000c02aaa39b223fe8d0a0e5c4f27ead9083c756cc2000000000000000000000000000000000000000000000000000000000000024000000000000000000000000000000000000000000000000000000000000002400000000000000000000000000000000000000000000000000000000000000240000000000000000000000000000000000000000000000000000000000000014000000000000000000000000000000000000000000000000000000000017d784000000000000000000000000000000000000000000000000000000000000000000000000000000000000000000000000000000000000000000000000000000180000000000000000000000000000000000000000000000000000000000000000100000000000000000000000000000000000000000000000000000000000000030000000000000000000000000000000000000000000000000000000000000001000000000000000000000000c02aaa39b223fe8d0a0e5c4f27ead9083c756cc2000000000000000000000000a0b86991c6218b36c1d19d4a2e9eb0ce3606eb48000000000000000000000000000000000000000000000000003725f556ba1eab00000000000000000000000000000000000000000000000000000000017d78400000000000000000000000002008b6c3d07b061a84f790c035c2f6dc11a0be70000000000000000000000000000000000000000000000000000000000000000000000000000000000000000001f9241eed7532b38176d3accedaa94eb2ab699300000000652a70a50000000000000000000000000000000000000000652a704c0000000000000000000000000000000000000000000000000000000000000003000000000000000000000000000000000000000000000000000000000000001b10fa58dc88f902cca5d2955fdef6adacf5f37c425e42a8296ee54ccb6c1374a745a656b4d451cfb01241a539fb8d6acf091883418cadd27a9172544519fad58800000000000000000000000000000000000000000000000000000000017d7840"
                                    }
                                ]
                            }
                        ],
                        "constructorArguments": "",
                        "name": "transform",
                        "returnParams": [
                            {
                                "name": "magicBytes",
                                "type": "bytes4",
                                "value": "0x13c9929e"
                            }
                        ],
                        "signature": "transform((address,address,bytes))"
                    },
                    "errorInfo": "",
                    "fromAddress": "0x22f9dcf4647084d6c31b2765f6910cd85c178c18",
                    "gasUsed": 105826,
                    "id": 6,
                    "methodDecoded": true,
                    "operation": "DELEGATECALL",
                    "output": "0x13c9929e00000000000000000000000000000000000000000000000000000000",
                    "revert": false,
                    "revertMessage": "",
                    "selector": "0x832b24bb",
                    "status": true,
                    "value": "0"
                },
                "nodeType": 0
            },
            "7": {
                "invocation": {
                    "address": "0xa0b86991c6218b36c1d19d4a2e9eb0ce3606eb48",
                    "callData": "0x00000000000000000000000022f9dcf4647084d6c31b2765f6910cd85c178c18",
                    "decodedMethod": {
                        "callParams": [
                            {
                                "name": "account",
                                "type": "address",
                                "value": "0x22f9dcf4647084d6c31b2765f6910cd85c178c18"
                            }
                        ],
                        "constructorArguments": "",
                        "name": "balanceOf",
                        "returnParams": [
                            {
                                "decimalAvailable": true,
                                "name": "",
                                "type": "uint256",
                                "value": "25,000,000"
                            }
                        ],
                        "signature": "balanceOf(address)"
                    },
                    "errorInfo": "",
                    "fromAddress": "0x22f9dcf4647084d6c31b2765f6910cd85c178c18",
                    "gasUsed": 1315,
                    "id": 7,
                    "methodDecoded": true,
                    "operation": "STATICCALL",
                    "output": "0x00000000000000000000000000000000000000000000000000000000017d7840",
                    "revert": false,
                    "revertMessage": "",
                    "selector": "0x70a08231",
                    "status": true,
                    "value": "0"
                },
                "nodeType": 0
            },
            "8": {
                "invocation": {
                    "address": "0xa2327a938febf5fec13bacfb16ae10ecbc4cbdcf",
                    "callData": "0x00000000000000000000000022f9dcf4647084d6c31b2765f6910cd85c178c18",
                    "decodedMethod": {
                        "callParams": [
                            {
                                "name": "account",
                                "type": "address",
                                "value": "0x22f9dcf4647084d6c31b2765f6910cd85c178c18"
                            }
                        ],
                        "constructorArguments": "",
                        "name": "balanceOf",
                        "returnParams": [
                            {
                                "decimalAvailable": true,
                                "name": "",
                                "type": "uint256",
                                "value": "25,000,000"
                            }
                        ],
                        "signature": "balanceOf(address)"
                    },
                    "errorInfo": "",
                    "fromAddress": "0xa0b86991c6218b36c1d19d4a2e9eb0ce3606eb48",
                    "gasUsed": 529,
                    "id": 8,
                    "methodDecoded": true,
                    "operation": "DELEGATECALL",
                    "output": "0x00000000000000000000000000000000000000000000000000000000017d7840",
                    "revert": false,
                    "revertMessage": "",
                    "selector": "0x70a08231",
                    "status": true,
                    "value": "0"
                },
                "nodeType": 0
            },
            "9": {
                "invocation": {
                    "address": "0xa0b86991c6218b36c1d19d4a2e9eb0ce3606eb48",
                    "callData": "0x00000000000000000000000022f9dcf4647084d6c31b2765f6910cd85c178c18000000000000000000000000def1c0ded9bec7f1a1670819833240f027b25eff",
                    "decodedMethod": {
                        "callParams": [
                            {
                                "name": "owner",
                                "type": "address",
                                "value": "0x22f9dcf4647084d6c31b2765f6910cd85c178c18"
                            },
                            {
                                "name": "spender",
                                "type": "address",
                                "value": "0xdef1c0ded9bec7f1a1670819833240f027b25eff"
                            }
                        ],
                        "constructorArguments": "",
                        "name": "allowance",
                        "returnParams": [
                            {
                                "decimalAvailable": true,
                                "name": "",
                                "type": "uint256",
                                "value": "115,792,089,237,316,195,423,570,985,008,687,907,853,269,984,665,640,564,039,457,583,194,609,370,722,492"
                            }
                        ],
                        "signature": "allowance(address,address)"
                    },
                    "errorInfo": "",
                    "fromAddress": "0x22f9dcf4647084d6c31b2765f6910cd85c178c18",
                    "gasUsed": 3426,
                    "id": 9,
                    "methodDecoded": true,
                    "operation": "STATICCALL",
                    "output": "0xfffffffffffffffffffffffffffffffffffffffffffffffffffd1c4df65af0bc",
                    "revert": false,
                    "revertMessage": "",
                    "selector": "0xdd62ed3e",
                    "status": true,
                    "value": "0"
                },
                "nodeType": 0
            }
        },
        "gasFlame": [
            {
                "children": [
                    {
                        "children": [
                            {
                                "children": [],
                                "depth": 0,
                                "name": "Initial Gas",
                                "value": 34840
                            },
                            {
                                "children": [
                                    {
                                        "children": [
                                            {
                                                "children": [
                                                    {
                                                        "children": [],
                                                        "depth": 3,
                                                        "name": "transferFrom",
                                                        "value": 44697
                                                    }
                                                ],
                                                "depth": 2,
                                                "name": "transferFrom",
                                                "value": 51992
                                            },
                                            {
                                                "children": [
                                                    {
                                                        "children": [
                                                            {
                                                                "children": [
                                                                    {
                                                                        "children": [],
                                                                        "depth": 5,
                                                                        "name": "balanceOf",
                                                                        "value": 529
                                                                    }
                                                                ],
                                                                "depth": 4,
                                                                "name": "balanceOf",
                                                                "value": 1315
                                                            },
                                                            {
                                                                "children": [
                                                                    {
                                                                        "children": [],
                                                                        "depth": 5,
                                                                        "name": "allowance",
                                                                        "value": 2637
                                                                    }
                                                                ],
                                                                "depth": 4,
                                                                "name": "allowance",
                                                                "value": 3426
                                                            },
                                                            {
                                                                "children": [
                                                                    {
                                                                        "children": [
                                                                            {
                                                                                "children": [],
                                                                                "depth": 6,
                                                                                "name": "ecrecover",
                                                                                "value": 3000
                                                                            },
                                                                            {
                                                                                "children": [
                                                                                    {
                                                                                        "children": [],
                                                                                        "depth": 7,
                                                                                        "name": "transferFrom",
                                                                                        "value": 14797
                                                                                    }
                                                                                ],
                                                                                "depth": 6,
                                                                                "name": "transferFrom",
                                                                                "value": 15592
                                                                            },
                                                                            {
                                                                                "children": [],
                                                                                "depth": 6,
                                                                                "name": "transferFrom",
                                                                                "value": 32125
                                                                            }
                                                                        ],
                                                                        "depth": 5,
                                                                        "name": "fillOtcOrder",
                                                                        "value": 83924
                                                                    }
                                                                ],
                                                                "depth": 4,
                                                                "name": "fillOtcOrder",
                                                                "value": 89730
                                                            }
                                                        ],
                                                        "depth": 3,
                                                        "name": "transform",
                                                        "value": 105826
                                                    }
                                                ],
                                                "depth": 2,
                                                "name": "executeDelegateCall",
                                                "value": 109745
                                            },
                                            {
                                                "children": [
                                                    {
                                                        "children": [
                                                            {
                                                                "children": [],
                                                                "depth": 4,
                                                                "name": "balanceOf",
                                                                "value": 534
                                                            },
                                                            {
                                                                "children": [
                                                                    {
                                                                        "children": [],
                                                                        "depth": 5,
                                                                        "name": "fallback",
                                                                        "value": 55
                                                                    }
                                                                ],
                                                                "depth": 4,
                                                                "name": "withdraw",
                                                                "value": 9195
                                                            }
                                                        ],
                                                        "depth": 3,
                                                        "name": "transform",
                                                        "value": 11962
                                                    }
                                                ],
                                                "depth": 2,
                                                "name": "executeDelegateCall",
                                                "value": 15729
                                            },
                                            {
                                                "children": [
                                                    {
                                                        "children": [
                                                            {
                                                                "children": [],
                                                                "depth": 4,
                                                                "name": "fallback",
                                                                "value": 0
                                                            }
                                                        ],
                                                        "depth": 3,
                                                        "name": "transform",
                                                        "value": 11388
                                                    }
                                                ],
                                                "depth": 2,
                                                "name": "executeDelegateCall",
                                                "value": 15173
                                            },
                                            {
                                                "children": [
                                                    {
                                                        "children": [
                                                            {
                                                                "children": [
                                                                    {
                                                                        "children": [],
                                                                        "depth": 5,
                                                                        "name": "balanceOf",
                                                                        "value": 529
                                                                    }
                                                                ],
                                                                "depth": 4,
                                                                "name": "balanceOf",
                                                                "value": 1315
                                                            }
                                                        ],
                                                        "depth": 3,
                                                        "name": "transform",
                                                        "value": 4142
                                                    }
                                                ],
                                                "depth": 2,
                                                "name": "executeDelegateCall",
                                                "value": 7933
                                            },
                                            {
                                                "children": [
                                                    {
                                                        "children": [],
                                                        "depth": 3,
                                                        "name": "fallback",
                                                        "value": 0
                                                    }
                                                ],
                                                "depth": 2,
                                                "name": "executeCall",
                                                "value": 7824
                                            }
                                        ],
                                        "depth": 1,
                                        "name": "transformERC20",
                                        "value": 247114
                                    }
                                ],
                                "depth": 0,
                                "name": "Executed Gas",
                                "value": 253563
                            }
                        ],
                        "depth": -1,
                        "name": "Actual Gas Used",
                        "value": 248603
                    },
                    {
                        "children": [],
                        "depth": -1,
                        "name": "Refunded Gas",
                        "value": 39800
                    }
                ],
                "depth": -2,
                "name": "Total Gas",
                "value": 288403
            }
        ],
        "isConfirmed": true,
        "mainTrace": [
            {
                "children": [
                    {
                        "children": [
                            {
                                "children": [
                                    {
                                        "children": [
                                            {
                                                "children": [
                                                    {
                                                        "children": [],
                                                        "depth": 4,
                                                        "id": 4,
                                                        "order": 4
                                                    }
                                                ],
                                                "depth": 3,
                                                "id": 3,
                                                "order": 3
                                            }
                                        ],
                                        "depth": 2,
                                        "id": 2,
                                        "order": 2
                                    },
                                    {
                                        "children": [
                                            {
                                                "children": [
                                                    {
                                                        "children": [
                                                            {
                                                                "children": [],
                                                                "depth": 5,
                                                                "id": 8,
                                                                "order": 8
                                                            }
                                                        ],
                                                        "depth": 4,
                                                        "id": 7,
                                                        "order": 7
                                                    },
                                                    {
                                                        "children": [
                                                            {
                                                                "children": [],
                                                                "depth": 5,
                                                                "id": 10,
                                                                "order": 10
                                                            }
                                                        ],
                                                        "depth": 4,
                                                        "id": 9,
                                                        "order": 9
                                                    },
                                                    {
                                                        "children": [
                                                            {
                                                                "children": [
                                                                    {
                                                                        "children": [],
                                                                        "depth": 6,
                                                                        "id": 13,
                                                                        "order": 13
                                                                    },
                                                                    {
                                                                        "children": [
                                                                            {
                                                                                "children": [
                                                                                    {
                                                                                        "children": [],
                                                                                        "depth": 8,
                                                                                        "id": 16,
                                                                                        "order": 16
                                                                                    }
                                                                                ],
                                                                                "depth": 7,
                                                                                "id": 15,
                                                                                "order": 15
                                                                            }
                                                                        ],
                                                                        "depth": 6,
                                                                        "id": 14,
                                                                        "order": 14
                                                                    },
                                                                    {
                                                                        "children": [
                                                                            {
                                                                                "children": [],
                                                                                "depth": 7,
                                                                                "id": 18,
                                                                                "order": 18
                                                                            }
                                                                        ],
                                                                        "depth": 6,
                                                                        "id": 17,
                                                                        "order": 17
                                                                    },
                                                                    {
                                                                        "children": [],
                                                                        "depth": 6,
                                                                        "id": 19,
                                                                        "order": 19
                                                                    }
                                                                ],
                                                                "depth": 5,
                                                                "id": 12,
                                                                "order": 12
                                                            }
                                                        ],
                                                        "depth": 4,
                                                        "id": 11,
                                                        "order": 11
                                                    }
                                                ],
                                                "depth": 3,
                                                "id": 6,
                                                "order": 6
                                            }
                                        ],
                                        "depth": 2,
                                        "id": 5,
                                        "order": 5
                                    },
                                    {
                                        "children": [
                                            {
                                                "children": [
                                                    {
                                                        "children": [],
                                                        "depth": 4,
                                                        "id": 22,
                                                        "order": 22
                                                    },
                                                    {
                                                        "children": [
                                                            {
                                                                "children": [],
                                                                "depth": 5,
                                                                "id": 24,
                                                                "order": 24
                                                            },
                                                            {
                                                                "children": [],
                                                                "depth": 5,
                                                                "id": 25,
                                                                "order": 25
                                                            }
                                                        ],
                                                        "depth": 4,
                                                        "id": 23,
                                                        "order": 23
                                                    }
                                                ],
                                                "depth": 3,
                                                "id": 21,
                                                "order": 21
                                            }
                                        ],
                                        "depth": 2,
                                        "id": 20,
                                        "order": 20
                                    },
                                    {
                                        "children": [
                                            {
                                                "children": [
                                                    {
                                                        "children": [],
                                                        "depth": 4,
                                                        "id": 28,
                                                        "order": 28
                                                    }
                                                ],
                                                "depth": 3,
                                                "id": 27,
                                                "order": 27
                                            }
                                        ],
                                        "depth": 2,
                                        "id": 26,
                                        "order": 26
                                    },
                                    {
                                        "children": [
                                            {
                                                "children": [
                                                    {
                                                        "children": [
                                                            {
                                                                "children": [],
                                                                "depth": 5,
                                                                "id": 32,
                                                                "order": 32
                                                            }
                                                        ],
                                                        "depth": 4,
                                                        "id": 31,
                                                        "order": 31
                                                    }
                                                ],
                                                "depth": 3,
                                                "id": 30,
                                                "order": 30
                                            }
                                        ],
                                        "depth": 2,
                                        "id": 29,
                                        "order": 29
                                    },
                                    {
                                        "children": [
                                            {
                                                "children": [],
                                                "depth": 3,
                                                "id": 34,
                                                "order": 34
                                            }
                                        ],
                                        "depth": 2,
                                        "id": 33,
                                        "order": 33
                                    },
                                    {
                                        "children": [],
                                        "depth": 2,
                                        "id": 35,
                                        "order": 35
                                    }
                                ],
                                "depth": 1,
                                "id": 1,
                                "order": 1
                            }
                        ],
                        "depth": 0,
                        "id": 0,
                        "order": 0
                    }
                ],
                "depth": -1,
                "id": -1,
                "order": -1
            }
        ],
        "mainTraceNodeCount": 36,
        "parentIdMap": {
            "0": -1,
            "1": 0,
            "10": 9,
            "11": 6,
            "12": 11,
            "13": 12,
            "14": 12,
            "15": 14,
            "16": 15,
            "17": 12,
            "18": 17,
            "19": 12,
            "2": 1,
            "20": 1,
            "21": 20,
            "22": 21,
            "23": 21,
            "24": 23,
            "25": 23,
            "26": 1,
            "27": 26,
            "28": 27,
            "29": 1,
            "3": 2,
            "30": 29,
            "31": 30,
            "32": 31,
            "33": 1,
            "34": 33,
            "35": 1,
            "4": 3,
            "5": 1,
            "6": 5,
            "7": 6,
            "8": 7,
            "9": 6
        },
        "tidyTrace": [
            {
                "children": [
                    {
                        "children": [
                            {
                                "children": [
                                    {
                                        "children": [
                                            {
                                                "children": [
                                                    {
                                                        "children": [],
                                                        "depth": 4,
                                                        "id": 4,
                                                        "order": 4
                                                    }
                                                ],
                                                "depth": 3,
                                                "id": 3,
                                                "order": 3
                                            }
                                        ],
                                        "depth": 2,
                                        "id": 2,
                                        "order": 2
                                    },
                                    {
                                        "children": [
                                            {
                                                "children": [
                                                    {
                                                        "children": [
                                                            {
                                                                "children": [
                                                                    {
                                                                        "children": [
                                                                            {
                                                                                "children": [
                                                                                    {
                                                                                        "children": [],
                                                                                        "depth": 8,
                                                                                        "id": 16,
                                                                                        "order": 16
                                                                                    }
                                                                                ],
                                                                                "depth": 7,
                                                                                "id": 15,
                                                                                "order": 15
                                                                            }
                                                                        ],
                                                                        "depth": 6,
                                                                        "id": 14,
                                                                        "order": 14
                                                                    },
                                                                    {
                                                                        "children": [
                                                                            {
                                                                                "children": [],
                                                                                "depth": 7,
                                                                                "id": 18,
                                                                                "order": 18
                                                                            }
                                                                        ],
                                                                        "depth": 6,
                                                                        "id": 17,
                                                                        "order": 17
                                                                    },
                                                                    {
                                                                        "children": [],
                                                                        "depth": 6,
                                                                        "id": 19,
                                                                        "order": 19
                                                                    }
                                                                ],
                                                                "depth": 5,
                                                                "id": 12,
                                                                "order": 12
                                                            }
                                                        ],
                                                        "depth": 4,
                                                        "id": 11,
                                                        "order": 11
                                                    }
                                                ],
                                                "depth": 3,
                                                "id": 6,
                                                "order": 6
                                            }
                                        ],
                                        "depth": 2,
                                        "id": 5,
                                        "order": 5
                                    },
                                    {
                                        "children": [
                                            {
                                                "children": [
                                                    {
                                                        "children": [
                                                            {
                                                                "children": [],
                                                                "depth": 5,
                                                                "id": 24,
                                                                "order": 24
                                                            },
                                                            {
                                                                "children": [],
                                                                "depth": 5,
                                                                "id": 25,
                                                                "order": 25
                                                            }
                                                        ],
                                                        "depth": 4,
                                                        "id": 23,
                                                        "order": 23
                                                    }
                                                ],
                                                "depth": 3,
                                                "id": 21,
                                                "order": 21
                                            }
                                        ],
                                        "depth": 2,
                                        "id": 20,
                                        "order": 20
                                    },
                                    {
                                        "children": [
                                            {
                                                "children": [
                                                    {
                                                        "children": [],
                                                        "depth": 4,
                                                        "id": 28,
                                                        "order": 28
                                                    }
                                                ],
                                                "depth": 3,
                                                "id": 27,
                                                "order": 27
                                            }
                                        ],
                                        "depth": 2,
                                        "id": 26,
                                        "order": 26
                                    },
                                    {
                                        "children": [
                                            {
                                                "children": [],
                                                "depth": 3,
                                                "id": 30,
                                                "order": 30
                                            }
                                        ],
                                        "depth": 2,
                                        "id": 29,
                                        "order": 29
                                    },
                                    {
                                        "children": [
                                            {
                                                "children": [],
                                                "depth": 3,
                                                "id": 34,
                                                "order": 34
                                            }
                                        ],
                                        "depth": 2,
                                        "id": 33,
                                        "order": 33
                                    },
                                    {
                                        "children": [],
                                        "depth": 2,
                                        "id": 35,
                                        "order": 35
                                    }
                                ],
                                "depth": 1,
                                "id": 1,
                                "order": 1
                            }
                        ],
                        "depth": 0,
                        "id": 0,
                        "order": 0
                    }
                ],
                "depth": -1,
                "id": -1,
                "order": -1
            }
        ],
        "tidyTraceNodeCount": 28
    },
    "state_change": {
        "stateChanges": [
            {
                "address": "0xa0b86991c6218b36c1d19d4a2e9eb0ce3606eb48",
                "erc": "ERC-20",
                "slots": [
                    {
                        "current": "0x000000000000000000000000000000000000000000000000000001f508da9a84",
                        "key": "0x53b6a771805cbfd9c8092dadb833cafbcc81075e5320d3ce2cec81c10a4aae92",
                        "prev": "0x000000000000000000000000000000000000000000000000000001f5075d2244"
                    },
                    {
                        "current": "0xfffffffffffffffffffffffffffffffffffffffffffffffffffd1c4df4dd787c",
                        "key": "0x16262befab6a40d71b5a0230fa7ede66435034712c46a09deb54f6a1a9e5370b",
                        "prev": "0xfffffffffffffffffffffffffffffffffffffffffffffffffffd1c4df65af0bc"
                    },
                    {
                        "current": "0x000000000000000000000000000000000000000000000000000000020487fe4d",
                        "key": "0x4c9f929232e1d592efe156bfbc0fab43fc356309fc985ba71caaed0e1b8813fa",
                        "prev": "0x000000000000000000000000000000000000000000000000000000020605768d"
                    },
                    {
                        "current": "0xfffffffffffffffffffffffffffffffffffffffffffffffffffffffffe8287bf",
                        "key": "0x4a0b602d70a4056671eb7af80f7b8cd0f777b5f3cf2ce951d737c2a83e4641b0",
                        "prev": "0xffffffffffffffffffffffffffffffffffffffffffffffffffffffffffffffff"
                    }
                ],
                "storageVariables": [
                    {
                        "name": "balances",
                        "type": "mapping(address => uint256)",
                        "value": {
                            "pairs": [
                                {
                                    "key": "0x01f9241eed7532b38176d3accedaa94eb2ab6993",
                                    "value": {
                                        "current": "8665955917",
                                        "prev": "8690955917",
                                        "typeTag": 1
                                    }
                                },
                                {
                                    "key": "0x2008b6c3d07b061a84f790c035c2f6dc11a0be70",
                                    "value": {
                                        "current": "2151927159428",
                                        "prev": "2151902159428",
                                        "typeTag": 1
                                    }
                                }
                            ],
                            "typeTag": 4
                        }
                    },
                    {
                        "name": "allowed",
                        "type": "mapping(address => mapping(address => uint256))",
                        "value": {
                            "pairs": [
                                {
                                    "key": "0x01f9241eed7532b38176d3accedaa94eb2ab6993",
                                    "value": {
                                        "pairs": [
                                            {
                                                "key": "0xdef1c0ded9bec7f1a1670819833240f027b25eff",
                                                "value": {
                                                    "current": "115792089237316195423570985008687907853269984665640564039457584007913104639935",
                                                    "prev": "115792089237316195423570985008687907853269984665640564039457584007913129639935",
                                                    "typeTag": 1
                                                }
                                            }
                                        ],
                                        "typeTag": 4
                                    }
                                },
                                {
                                    "key": "0x22f9dcf4647084d6c31b2765f6910cd85c178c18",
                                    "value": {
                                        "pairs": [
                                            {
                                                "key": "0xdef1c0ded9bec7f1a1670819833240f027b25eff",
                                                "value": {
                                                    "current": "115792089237316195423570985008687907853269984665640564039457583194609345722492",
                                                    "prev": "115792089237316195423570985008687907853269984665640564039457583194609370722492",
                                                    "typeTag": 1
                                                }
                                            }
                                        ],
                                        "typeTag": 4
                                    }
                                }
                            ],
                            "typeTag": 4
                        }
                    }
                ]
            },
            {
                "address": "0xc02aaa39b223fe8d0a0e5c4f27ead9083c756cc2",
                "erc": "ERC-20",
                "slots": [
                    {
                        "current": "0x0000000000000000000000000000000000000000000000177207e463029f042b",
                        "key": "0x6a4eff247b7329536ddf871ed3dd8d4d7d9d28d29ceac00d4f1f45bc6a92ef2c",
                        "prev": "0x000000000000000000000000000000000000000000000017723f0a58595922d6"
                    }
                ],
                "storageVariables": [
                    {
                        "name": "balanceOf",
                        "type": "mapping(address => uint256)",
                        "value": {
                            "pairs": [
                                {
                                    "key": "0x2008b6c3d07b061a84f790c035c2f6dc11a0be70",
                                    "value": {
                                        "current": "432491900854377317419",
                                        "prev": "432507423713748656854",
                                        "typeTag": 1
                                    }
                                }
                            ],
                            "typeTag": 4
                        }
                    }
                ]
            },
            {
                "address": "0xdef1c0ded9bec7f1a1670819833240f027b25eff",
                "erc": "",
                "slots": [
                    {
                        "current": "0x00000000000000000000000000000000000000000000000000000000652a704c",
                        "key": "0x9b94ea2d77cf782bcc8218fcd81f4c9504d1fc8a526058a4f18081f44db10908",
                        "prev": "0x0000000000000000000000000000000000000000000000000000000000000000"
                    }
                ],
                "storageVariables": []
            }
        ]
    }
}