{
    "balance_change": {
        "balanceChanges": []
    },
    "profile": {
        "basic_info": {
            "baseFee": "43.444062126",
            "blockNumber": 18800745,
            "callData": "0x5f57552900000000000000000000000000000000000000000000000000000000000000800000000000000000000000001151cb3d861920e07a38e03eead12c32178567f60000000000000000000000000000000000000000000000000000037dfe8b86f400000000000000000000000000000000000000000000000000000000000000c000000000000000000000000000000000000000000000000000000000000000136f6e65496e6368563546656544796e616d69630000000000000000000000000000000000000000000000000000000000000000000000000000000000000002000000000000000000000000001151cb3d861920e07a38e03eead12c32178567f6000000000000000000000000a0b86991c6218b36c1d19d4a2e9eb0ce3606eb480000000000000000000000000000000000000000000000000000037dfe8b86f4000000000000000000000000000000000000000000000000000000002e708c92000000000000000000000000000000000000000000000000000000000000012000000000000000000000000000000000000000000000000000000000006b15b20000000000000000000000002acf35c9a3f4c5c3f4c78ef5fb64c3ee82f07c45000000000000000000000000000000000000000000000000000000000000000100000000000000000000000000000000000000000000000000000000000000c8e449022e0000000000000000000000000000000000000000000000000000037dfe8b86f4000000000000000000000000000000000000000000000000000000002ed97dfe00000000000000000000000000000000000000000000000000000000000000600000000000000000000000000000000000000000000000000000000000000002000000000000000000000000403b1b747b1efb309070436c9ac99bf476f299ea8000000000000000000000008ad599c3a0ff1de082011efddc58f1908eb6e6d8ab4991fe000000000000000000000000000000000000000000000000018e",
            "debugEnable": true,
            "errorInfo": "execution reverted",
            "eventCount": 10,
            "feeRecipient": "0x690b9a9e9aa1c9db991c7721a92d351db4fac990",
            "formatValue": "0",
            "gasLimit": 345252,
            "gasPrice": "43.544062126",
            "gasUsed": 337560,
            "intTxnCount": 49,
            "internalRevert": true,
            "internalRevertMessage": "",
            "isContractCreation": false,
            "isFlashloan": false,
            "maxFee": "59.78446229",
            "nonce": 2,
            "overwritedBlockNumber": -1,
            "priorityFee": "0.1",
            "receiver": "0x881d40237659c251811cec9c364ef91dc08d300c",
            "revertMessage": "SafeERC20: low-level call failed",
            "sender": "0x022e0f309c2986bc7a4f663dc45a7858d9e358d6",
            "simulationEnable": true,
            "sourceTxnHash": "0x0812f1d12b358eb83e82e29918ec2d8a3b3888aedef6b26c0b30ecce295cf158",
            "status": false,
            "timestamp": "2023-12-16T19:37:47Z",
            "transactionFee": "0.01469873361125256",
            "txnHash": "0x0812f1d12b358eb83e82e29918ec2d8a3b3888aedef6b26c0b30ecce295cf158",
            "txnIndex": 128,
            "type": 2,
            "value": "0"
        },
        "fund_flow": [],
        "token_infos": [
            {
                "address": "0xeeeeeeeeeeeeeeeeeeeeeeeeeeeeeeeeeeeeeeee",
                "decimals": 18
            },
            {
                "address": "0x1151cb3d861920e07a38e03eead12c32178567f6",
                "decimals": 5
            },
            {
                "address": "0xa0b86991c6218b36c1d19d4a2e9eb0ce3606eb48",
                "decimals": 6
            },
            {
                "address": "0xc02aaa39b223fe8d0a0e5c4f27ead9083c756cc2",
                "decimals": 18
            }
        ]
    },
    "address_label": {
        "labels": [
            {
                "address": "0x1151cb3d861920e07a38e03eead12c32178567f6",
                "label": "Bonk: Bonk Token"
            },
            {
                "address": "0x8ad599c3a0ff1de082011efddc58f1908eb6e6d8",
                "label": "Uniswap V3: USDC 2"
            },
            {
                "address": "0x2acf35c9a3f4c5c3f4c78ef5fb64c3ee82f07c45",
                "label": "GnosisSafeProxy_2acf_7c45"
            },
            {
                "address": "0x0000000000000000000000000000000000000004",
                "label": "Precompiled"
            },
            {
                "address": "0xeeeeeeeeeeeeeeeeeeeeeeeeeeeeeeeeeeeeeeee",
                "label": "Ether"
            },
            {
                "address": "0x1111111254eeb25477b68fb85ed929f73a960582",
                "label": "Aggregation Router V5"
            },
            {
                "address": "0x381752f5458282d317d12c30d2bd4d6e1fd8841e",
                "label": "BridgeImplementation"
            },
            {
                "address": "0x0000000000000000000000000000000000000001",
                "label": "Precompiled"
            },
            {
                "address": "0x0000000000000000000000000000000000000003",
                "label": "Precompiled"
            },
            {
                "address": "0x403b1b747b1efb309070436c9ac99bf476f299ea",
                "label": "Uniswap V3: Bonk 6"
            },
            {
                "address": "0x74de5d4fcbf63e00296fd95d33236b9794016631",
                "label": "MetaMask: Swaps Spender"
            },
            {
                "address": "0x881d40237659c251811cec9c364ef91dc08d300c",
                "label": "Metamask: Swap Router"
            },
            {
                "address": "0xc02aaa39b223fe8d0a0e5c4f27ead9083c756cc2",
                "label": "Wrapped Ether (WETH)"
            },
            {
                "address": "0x3ee18b2214aff97000d974cf647e7c347e8fa585",
                "label": "Wormhole: Portal Token Bridge"
            },
            {
                "address": "0x0fd04a68d3c3a692d6fa30384d1a87ef93554ee6",
                "label": "TokenImplementation"
            },
            {
                "address": "0xa2327a938febf5fec13bacfb16ae10ecbc4cbdcf",
                "label": "FiatTokenV2_1"
            },
            {
                "address": "0xa0b86991c6218b36c1d19d4a2e9eb0ce3606eb48",
                "label": "Circle: USDC Token"
            },
            {
                "address": "0x0000000000000000000000000000000000000002",
                "label": "Precompiled"
            }
        ]
    },
    "trace": {
        "accountLabels": null,
        "dataMap": {
            "-1": {
                "invocation": {
                    "address": "0x022e0f309c2986bc7a4f663dc45a7858d9e358d6",
                    "callData": "",
                    "decodedMethod": null,
                    "errorInfo": "",
                    "fromAddress": "",
                    "gasUsed": 0,
                    "id": -1,
                    "methodDecoded": false,
                    "operation": "",
                    "output": "",
                    "revert": false,
                    "revertMessage": "",
                    "selector": "",
                    "status": false,
                    "value": ""
                },
                "nodeType": 0
            },
            "0": {
                "invocation": {
                    "address": "0x881d40237659c251811cec9c364ef91dc08d300c",
                    "callData": "0x00000000000000000000000000000000000000000000000000000000000000800000000000000000000000001151cb3d861920e07a38e03eead12c32178567f60000000000000000000000000000000000000000000000000000037dfe8b86f400000000000000000000000000000000000000000000000000000000000000c000000000000000000000000000000000000000000000000000000000000000136f6e65496e6368563546656544796e616d69630000000000000000000000000000000000000000000000000000000000000000000000000000000000000002000000000000000000000000001151cb3d861920e07a38e03eead12c32178567f6000000000000000000000000a0b86991c6218b36c1d19d4a2e9eb0ce3606eb480000000000000000000000000000000000000000000000000000037dfe8b86f4000000000000000000000000000000000000000000000000000000002e708c92000000000000000000000000000000000000000000000000000000000000012000000000000000000000000000000000000000000000000000000000006b15b20000000000000000000000002acf35c9a3f4c5c3f4c78ef5fb64c3ee82f07c45000000000000000000000000000000000000000000000000000000000000000100000000000000000000000000000000000000000000000000000000000000c8e449022e0000000000000000000000000000000000000000000000000000037dfe8b86f4000000000000000000000000000000000000000000000000000000002ed97dfe00000000000000000000000000000000000000000000000000000000000000600000000000000000000000000000000000000000000000000000000000000002000000000000000000000000403b1b747b1efb309070436c9ac99bf476f299ea8000000000000000000000008ad599c3a0ff1de082011efddc58f1908eb6e6d8ab4991fe000000000000000000000000000000000000000000000000018e",
                    "decodedMethod": {
                        "callParams": [
                            {
                                "name": "aggregatorId",
                                "type": "string",
                                "value": "oneInchV5FeeDynamic"
                            },
                            {
                                "name": "tokenFrom",
                                "type": "address",
                                "value": "0x1151cb3d861920e07a38e03eead12c32178567f6"
                            },
                            {
                                "name": "amount",
                                "type": "uint256",
                                "value": "3,839,676,352,244"
                            },
                            {
                                "name": "data",
                                "type": "bytes",
                                "value": "0x0000000000000000000000001151cb3d861920e07a38e03eead12c32178567f6000000000000000000000000a0b86991c6218b36c1d19d4a2e9eb0ce3606eb480000000000000000000000000000000000000000000000000000037dfe8b86f4000000000000000000000000000000000000000000000000000000002e708c92000000000000000000000000000000000000000000000000000000000000012000000000000000000000000000000000000000000000000000000000006b15b20000000000000000000000002acf35c9a3f4c5c3f4c78ef5fb64c3ee82f07c45000000000000000000000000000000000000000000000000000000000000000100000000000000000000000000000000000000000000000000000000000000c8e449022e0000000000000000000000000000000000000000000000000000037dfe8b86f4000000000000000000000000000000000000000000000000000000002ed97dfe00000000000000000000000000000000000000000000000000000000000000600000000000000000000000000000000000000000000000000000000000000002000000000000000000000000403b1b747b1efb309070436c9ac99bf476f299ea8000000000000000000000008ad599c3a0ff1de082011efddc58f1908eb6e6d8ab4991fe000000000000000000000000000000000000000000000000"
                            }
                        ],
                        "constructorArguments": "",
                        "name": "swap",
                        "returnParams": [],
                        "signature": "swap(string,address,uint256,bytes)"
                    },
                    "errorInfo": "execution reverted",
                    "fromAddress": "0x022e0f309c2986bc7a4f663dc45a7858d9e358d6",
                    "gasUsed": 337560,
                    "id": 0,
                    "methodDecoded": true,
                    "operation": "CALL",
                    "output": "0x08c379a0000000000000000000000000000000000000000000000000000000000000002000000000000000000000000000000000000000000000000000000000000000205361666545524332303a206c6f772d6c6576656c2063616c6c206661696c6564",
                    "revert": true,
                    "revertMessage": "SafeERC20: low-level call failed",
                    "selector": "0x5f575529",
                    "status": false,
                    "value": "0"
                },
                "nodeType": 0
            },
            "1": {
                "invocation": {
                    "address": "0x1151cb3d861920e07a38e03eead12c32178567f6",
                    "callData": "0x000000000000000000000000022e0f309c2986bc7a4f663dc45a7858d9e358d600000000000000000000000074de5d4fcbf63e00296fd95d33236b97940166310000000000000000000000000000000000000000000000000000037dfe8b86f4",
                    "decodedMethod": {
                        "callParams": [
                            {
                                "name": "sender",
                                "type": "address",
                                "value": "0x022e0f309c2986bc7a4f663dc45a7858d9e358d6"
                            },
                            {
                                "name": "recipient",
                                "type": "address",
                                "value": "0x74de5d4fcbf63e00296fd95d33236b9794016631"
                            },
                            {
                                "decimalAvailable": true,
                                "name": "amount",
                                "type": "uint256",
                                "value": "3,839,676,352,244"
                            }
                        ],
                        "constructorArguments": "",
                        "name": "transferFrom",
                        "returnParams": [
                            {
                                "name": "",
                                "type": "bool",
                                "value": true
                            }
                        ],
                        "signature": "transferFrom(address,address,uint256)"
                    },
                    "errorInfo": "",
                    "fromAddress": "0x881d40237659c251811cec9c364ef91dc08d300c",
                    "gasUsed": 52742,
                    "id": 1,
                    "methodDecoded": true,
                    "operation": "CALL",
                    "output": "0x0000000000000000000000000000000000000000000000000000000000000001",
                    "revert": true,
                    "revertMessage": "",
                    "selector": "0x23b872dd",
                    "status": true,
                    "value": "0"
                },
                "nodeType": 0
            },
            "10": {
                "invocation": {
                    "address": "0x3ee18b2214aff97000d974cf647e7c347e8fa585",
                    "callData": "0x",
                    "decodedMethod": {
                        "callParams": [],
                        "constructorArguments": "",
                        "name": "implementation",
                        "returnParams": [
                            {
                                "name": "",
                                "type": "address",
                                "value": "0x0fd04a68d3c3a692d6fa30384d1a87ef93554ee6"
                            }
                        ],
                        "signature": "implementation()"
                    },
                    "errorInfo": "",
                    "fromAddress": "0x1151cb3d861920e07a38e03eead12c32178567f6",
                    "gasUsed": 854,
                    "id": 10,
                    "methodDecoded": true,
                    "operation": "STATICCALL",
                    "output": "0x0000000000000000000000000fd04a68d3c3a692d6fa30384d1a87ef93554ee6",
                    "revert": true,
                    "revertMessage": "",
                    "selector": "0x5c60da1b",
                    "status": true,
                    "value": "0"
                },
                "nodeType": 0
            },
            "11": {
                "invocation": {
                    "address": "0x381752f5458282d317d12c30d2bd4d6e1fd8841e",
                    "callData": "0x",
                    "decodedMethod": {
                        "callParams": [],
                        "constructorArguments": "",
                        "name": "implementation",
                        "returnParams": [
                            {
                                "name": "",
                                "type": "address",
                                "value": "0x0fd04a68d3c3a692d6fa30384d1a87ef93554ee6"
                            }
                        ],
                        "signature": "implementation()"
                    },
                    "errorInfo": "",
                    "fromAddress": "0x3ee18b2214aff97000d974cf647e7c347e8fa585",
                    "gasUsed": 459,
                    "id": 11,
                    "methodDecoded": true,
                    "operation": "DELEGATECALL",
                    "output": "0x0000000000000000000000000fd04a68d3c3a692d6fa30384d1a87ef93554ee6",
                    "revert": true,
                    "revertMessage": "",
                    "selector": "0x5c60da1b",
                    "status": true,
                    "value": "0"
                },
                "nodeType": 0
            },
            "12": {
                "invocation": {
                    "address": "0x0fd04a68d3c3a692d6fa30384d1a87ef93554ee6",
                    "callData": "0x00000000000000000000000074de5d4fcbf63e00296fd95d33236b97940166310000000000000000000000001111111254eeb25477b68fb85ed929f73a960582",
                    "decodedMethod": {
                        "callParams": [
                            {
                                "name": "owner_",
                                "type": "address",
                                "value": "0x74de5d4fcbf63e00296fd95d33236b9794016631"
                            },
                            {
                                "name": "spender_",
                                "type": "address",
                                "value": "0x1111111254eeb25477b68fb85ed929f73a960582"
                            }
                        ],
                        "constructorArguments": "",
                        "name": "allowance",
                        "returnParams": [
                            {
                                "decimalAvailable": true,
                                "name": "",
                                "type": "uint256",
                                "value": "115,792,089,237,316,195,423,570,985,008,687,907,853,269,984,665,640,564,039,457,574,444,910,760,232,702"
                            }
                        ],
                        "signature": "allowance(address,address)"
                    },
                    "errorInfo": "",
                    "fromAddress": "0x1151cb3d861920e07a38e03eead12c32178567f6",
                    "gasUsed": 2858,
                    "id": 12,
                    "methodDecoded": true,
                    "operation": "DELEGATECALL",
                    "output": "0xffffffffffffffffffffffffffffffffffffffffffffffffffde068000c906fe",
                    "revert": true,
                    "revertMessage": "",
                    "selector": "0xdd62ed3e",
                    "status": true,
                    "value": "0"
                },
                "nodeType": 0
            },
            "13": {
                "invocation": {
                    "address": "0x1111111254eeb25477b68fb85ed929f73a960582",
                    "callData": "0x0000000000000000000000000000000000000000000000000000037dfe8b86f4000000000000000000000000000000000000000000000000000000002ed97dfe00000000000000000000000000000000000000000000000000000000000000600000000000000000000000000000000000000000000000000000000000000002000000000000000000000000403b1b747b1efb309070436c9ac99bf476f299ea8000000000000000000000008ad599c3a0ff1de082011efddc58f1908eb6e6d8ab4991fe",
                    "decodedMethod": {
                        "callParams": [
                            {
                                "name": "amount",
                                "type": "uint256",
                                "value": "3,839,676,352,244"
                            },
                            {
                                "name": "minReturn",
                                "type": "uint256",
                                "value": "786,005,502"
                            },
                            {
                                "name": "pools",
                                "type": "uint256[]",
                                "value": [
                                    "366,693,544,967,569,663,791,557,610,111,913,695,281,593,620,970",
                                    "57,896,044,618,658,097,711,785,492,505,136,558,106,484,779,439,796,074,528,031,690,994,956,396,586,712"
                                ]
                            }
                        ],
                        "constructorArguments": "",
                        "name": "uniswapV3Swap",
                        "returnParams": [
                            {
                                "name": "returnAmount",
                                "type": "uint256",
                                "value": "793,032,255"
                            }
                        ],
                        "signature": "uniswapV3Swap(uint256,uint256,uint256[])"
                    },
                    "errorInfo": "",
                    "fromAddress": "0x74de5d4fcbf63e00296fd95d33236b9794016631",
                    "gasUsed": 175040,
                    "id": 13,
                    "methodDecoded": true,
                    "operation": "CALL",
                    "output": "0x000000000000000000000000000000000000000000000000000000002f44b63f",
                    "revert": true,
                    "revertMessage": "",
                    "selector": "0xe449022e",
                    "status": true,
                    "value": "0"
                },
                "nodeType": 0
            },
            "14": {
                "invocation": {
                    "address": "0x403b1b747b1efb309070436c9ac99bf476f299ea",
                    "callData": "0x0000000000000000000000001111111254eeb25477b68fb85ed929f73a96058200000000000000000000000000000000000000000000000000000000000000010000000000000000000000000000000000000000000000000000037dfe8b86f400000000000000000000000000000000000000000000000000000001000276a400000000000000000000000000000000000000000000000000000000000000a0000000000000000000000000000000000000000000000000000000000000002000000000000000000000000074de5d4fcbf63e00296fd95d33236b9794016631",
                    "decodedMethod": {
                        "callParams": [
                            {
                                "name": "recipient",
                                "type": "address",
                                "value": "0x1111111254eeb25477b68fb85ed929f73a960582"
                            },
                            {
                                "name": "zeroForOne",
                                "type": "bool",
                                "value": true
                            },
                            {
                                "name": "amountSpecified",
                                "type": "int256",
                                "value": "3,839,676,352,244"
                            },
                            {
                                "name": "sqrtPriceLimitX96",
                                "type": "uint160",
                                "value": "4,295,128,740"
                            },
                            {
                                "name": "data",
                                "type": "bytes",
                                "value": "0x00000000000000000000000074de5d4fcbf63e00296fd95d33236b9794016631"
                            }
                        ],
                        "constructorArguments": "",
                        "name": "swap",
                        "returnParams": [
                            {
                                "name": "amount0",
                                "type": "int256",
                                "value": "3,839,676,352,244"
                            },
                            {
                                "name": "amount1",
                                "type": "int256",
                                "value": "-355,523,934,549,112,057"
                            }
                        ],
                        "signature": "swap(address,bool,int256,uint160,bytes)"
                    },
                    "errorInfo": "",
                    "fromAddress": "0x1111111254eeb25477b68fb85ed929f73a960582",
                    "gasUsed": 77341,
                    "id": 14,
                    "methodDecoded": true,
                    "operation": "CALL",
                    "output": "0x0000000000000000000000000000000000000000000000000000037dfe8b86f4fffffffffffffffffffffffffffffffffffffffffffffffffb10ecdd7c0d0b07",
                    "revert": true,
                    "revertMessage": "",
                    "selector": "0x128acb08",
                    "status": true,
                    "value": "0"
                },
                "nodeType": 0
            },
            "15": {
                "invocation": {
                    "address": "0xc02aaa39b223fe8d0a0e5c4f27ead9083c756cc2",
                    "callData": "0x0000000000000000000000001111111254eeb25477b68fb85ed929f73a96058200000000000000000000000000000000000000000000000004ef132283f2f4f9",
                    "decodedMethod": {
                        "callParams": [
                            {
                                "name": "dst",
                                "type": "address",
                                "value": "0x1111111254eeb25477b68fb85ed929f73a960582"
                            },
                            {
                                "decimalAvailable": true,
                                "name": "wad",
                                "type": "uint256",
                                "value": "355,523,934,549,112,057"
                            }
                        ],
                        "constructorArguments": "",
                        "name": "transfer",
                        "returnParams": [
                            {
                                "name": "",
                                "type": "bool",
                                "value": true
                            }
                        ],
                        "signature": "transfer(address,uint256)"
                    },
                    "errorInfo": "",
                    "fromAddress": "0x403b1b747b1efb309070436c9ac99bf476f299ea",
                    "gasUsed": 12862,
                    "id": 15,
                    "methodDecoded": true,
                    "operation": "CALL",
                    "output": "0x0000000000000000000000000000000000000000000000000000000000000001",
                    "revert": true,
                    "revertMessage": "",
                    "selector": "0xa9059cbb",
                    "status": true,
                    "value": "0"
                },
                "nodeType": 0
            },
            "16": {
                "event": {
                    "contract": "0xc02aaa39b223fe8d0a0e5c4f27ead9083c756cc2",
                    "decodedLog": {
                        "name": "Transfer",
                        "params": [
                            {
                                "name": "src",
                                "type": "address",
                                "value": "0x403b1b747b1efb309070436c9ac99bf476f299ea"
                            },
                            {
                                "name": "dst",
                                "type": "address",
                                "value": "0x1111111254eeb25477b68fb85ed929f73a960582"
                            },
                            {
                                "decimalAvailable": true,
                                "name": "wad",
                                "type": "uint256",
                                "value": "355,523,934,549,112,057"
                            }
                        ],
                        "signature": "Transfer(address,address,uint256)"
                    },
                    "id": 16,
                    "logData": "0x00000000000000000000000000000000000000000000000004ef132283f2f4f9",
                    "logDecoded": true,
                    "operation": "EVENT",
                    "revert": true,
                    "status": false,
                    "topics": [
                        "0xddf252ad1be2c89b69c2b068fc378daa952ba7f163c4a11628f55a4df523b3ef",
                        "0x000000000000000000000000403b1b747b1efb309070436c9ac99bf476f299ea",
                        "0x0000000000000000000000001111111254eeb25477b68fb85ed929f73a960582"
                    ]
                },
                "nodeType": 1
            },
            "17": {
                "invocation": {
                    "address": "0x1151cb3d861920e07a38e03eead12c32178567f6",
                    "callData": "0x000000000000000000000000403b1b747b1efb309070436c9ac99bf476f299ea",
                    "decodedMethod": {
                        "callParams": [
                            {
                                "name": "account",
                                "type": "address",
                                "value": "0x403b1b747b1efb309070436c9ac99bf476f299ea"
                            }
                        ],
                        "constructorArguments": "",
                        "name": "balanceOf",
                        "returnParams": [
                            {
                                "decimalAvailable": true,
                                "name": "",
                                "type": "uint256",
                                "value": "2,090,602,133,057,917"
                            }
                        ],
                        "signature": "balanceOf(address)"
                    },
                    "errorInfo": "",
                    "fromAddress": "0x403b1b747b1efb309070436c9ac99bf476f299ea",
                    "gasUsed": 4421,
                    "id": 17,
                    "methodDecoded": true,
                    "operation": "STATICCALL",
                    "output": "0x00000000000000000000000000000000000000000000000000076d643d81f17d",
                    "revert": true,
                    "revertMessage": "",
                    "selector": "0x70a08231",
                    "status": true,
                    "value": "0"
                },
                "nodeType": 0
            },
            "18": {
                "invocation": {
                    "address": "0x3ee18b2214aff97000d974cf647e7c347e8fa585",
                    "callData": "0x",
                    "decodedMethod": {
                        "callParams": [],
                        "constructorArguments": "",
                        "name": "implementation",
                        "returnParams": [
                            {
                                "name": "",
                                "type": "address",
                                "value": "0x0fd04a68d3c3a692d6fa30384d1a87ef93554ee6"
                            }
                        ],
                        "signature": "implementation()"
                    },
                    "errorInfo": "",
                    "fromAddress": "0x1151cb3d861920e07a38e03eead12c32178567f6",
                    "gasUsed": 854,
                    "id": 18,
                    "methodDecoded": true,
                    "operation": "STATICCALL",
                    "output": "0x0000000000000000000000000fd04a68d3c3a692d6fa30384d1a87ef93554ee6",
                    "revert": true,
                    "revertMessage": "",
                    "selector": "0x5c60da1b",
                    "status": true,
                    "value": "0"
                },
                "nodeType": 0
            },
            "19": {
                "invocation": {
                    "address": "0x381752f5458282d317d12c30d2bd4d6e1fd8841e",
                    "callData": "0x",
                    "decodedMethod": {
                        "callParams": [],
                        "constructorArguments": "",
                        "name": "implementation",
                        "returnParams": [
                            {
                                "name": "",
                                "type": "address",
                                "value": "0x0fd04a68d3c3a692d6fa30384d1a87ef93554ee6"
                            }
                        ],
                        "signature": "implementation()"
                    },
                    "errorInfo": "",
                    "fromAddress": "0x3ee18b2214aff97000d974cf647e7c347e8fa585",
                    "gasUsed": 459,
                    "id": 19,
                    "methodDecoded": true,
                    "operation": "DELEGATECALL",
                    "output": "0x0000000000000000000000000fd04a68d3c3a692d6fa30384d1a87ef93554ee6",
                    "revert": true,
                    "revertMessage": "",
                    "selector": "0x5c60da1b",
                    "status": true,
                    "value": "0"
                },
                "nodeType": 0
            },
            "2": {
                "invocation": {
                    "address": "0x3ee18b2214aff97000d974cf647e7c347e8fa585",
                    "callData": "0x",
                    "decodedMethod": {
                        "callParams": [],
                        "constructorArguments": "",
                        "name": "implementation",
                        "returnParams": [
                            {
                                "name": "",
                                "type": "address",
                                "value": "0x0fd04a68d3c3a692d6fa30384d1a87ef93554ee6"
                            }
                        ],
                        "signature": "implementation()"
                    },
                    "errorInfo": "",
                    "fromAddress": "0x1151cb3d861920e07a38e03eead12c32178567f6",
                    "gasUsed": 7354,
                    "id": 2,
                    "methodDecoded": true,
                    "operation": "STATICCALL",
                    "output": "0x0000000000000000000000000fd04a68d3c3a692d6fa30384d1a87ef93554ee6",
                    "revert": true,
                    "revertMessage": "",
                    "selector": "0x5c60da1b",
                    "status": true,
                    "value": "0"
                },
                "nodeType": 0
            },
            "20": {
                "invocation": {
                    "address": "0x0fd04a68d3c3a692d6fa30384d1a87ef93554ee6",
                    "callData": "0x000000000000000000000000403b1b747b1efb309070436c9ac99bf476f299ea",
                    "decodedMethod": {
                        "callParams": [
                            {
                                "name": "account_",
                                "type": "address",
                                "value": "0x403b1b747b1efb309070436c9ac99bf476f299ea"
                            }
                        ],
                        "constructorArguments": "",
                        "name": "balanceOf",
                        "returnParams": [
                            {
                                "decimalAvailable": true,
                                "name": "",
                                "type": "uint256",
                                "value": "2,090,602,133,057,917"
                            }
                        ],
                        "signature": "balanceOf(address)"
                    },
                    "errorInfo": "",
                    "fromAddress": "0x1151cb3d861920e07a38e03eead12c32178567f6",
                    "gasUsed": 2648,
                    "id": 20,
                    "methodDecoded": true,
                    "operation": "DELEGATECALL",
                    "output": "0x00000000000000000000000000000000000000000000000000076d643d81f17d",
                    "revert": true,
                    "revertMessage": "",
                    "selector": "0x70a08231",
                    "status": true,
                    "value": "0"
                },
                "nodeType": 0
            },
            "21": {
                "invocation": {
                    "address": "0x1111111254eeb25477b68fb85ed929f73a960582",
                    "callData": "0x0000000000000000000000000000000000000000000000000000037dfe8b86f4fffffffffffffffffffffffffffffffffffffffffffffffffb10ecdd7c0d0b070000000000000000000000000000000000000000000000000000000000000060000000000000000000000000000000000000000000000000000000000000002000000000000000000000000074de5d4fcbf63e00296fd95d33236b9794016631",
                    "decodedMethod": {
                        "callParams": [
                            {
                                "name": "amount0Delta",
                                "type": "int256",
                                "value": "3,839,676,352,244"
                            },
                            {
                                "name": "amount1Delta",
                                "type": "int256",
                                "value": "-355,523,934,549,112,057"
                            },
                            {
                                "name": "",
                                "type": "bytes",
                                "value": "0x00000000000000000000000074de5d4fcbf63e00296fd95d33236b9794016631"
                            }
                        ],
                        "constructorArguments": "",
                        "name": "uniswapV3SwapCallback",
                        "returnParams": [],
                        "signature": "uniswapV3SwapCallback(int256,int256,bytes)"
                    },
                    "errorInfo": "",
                    "fromAddress": "0x403b1b747b1efb309070436c9ac99bf476f299ea",
                    "gasUsed": 15809,
                    "id": 21,
                    "methodDecoded": true,
                    "operation": "CALL",
                    "output": "",
                    "revert": true,
                    "revertMessage": "",
                    "selector": "0xfa461e33",
                    "status": true,
                    "value": "0"
                },
                "nodeType": 0
            },
            "22": {
                "invocation": {
                    "address": "0x403b1b747b1efb309070436c9ac99bf476f299ea",
                    "callData": "0x",
                    "decodedMethod": {
                        "callParams": [],
                        "constructorArguments": "",
                        "name": "token0",
                        "returnParams": [
                            {
                                "name": "",
                                "type": "address",
                                "value": "0x1151cb3d861920e07a38e03eead12c32178567f6"
                            }
                        ],
                        "signature": "token0()"
                    },
                    "errorInfo": "",
                    "fromAddress": "0x1111111254eeb25477b68fb85ed929f73a960582",
                    "gasUsed": 266,
                    "id": 22,
                    "methodDecoded": true,
                    "operation": "STATICCALL",
                    "output": "0x0000000000000000000000001151cb3d861920e07a38e03eead12c32178567f6",
                    "revert": true,
                    "revertMessage": "",
                    "selector": "0x0dfe1681",
                    "status": true,
                    "value": "0"
                },
                "nodeType": 0
            },
            "23": {
                "invocation": {
                    "address": "0x403b1b747b1efb309070436c9ac99bf476f299ea",
                    "callData": "0x",
                    "decodedMethod": {
                        "callParams": [],
                        "constructorArguments": "",
                        "name": "token1",
                        "returnParams": [
                            {
                                "name": "",
                                "type": "address",
                                "value": "0xc02aaa39b223fe8d0a0e5c4f27ead9083c756cc2"
                            }
                        ],
                        "signature": "token1()"
                    },
                    "errorInfo": "",
                    "fromAddress": "0x1111111254eeb25477b68fb85ed929f73a960582",
                    "gasUsed": 308,
                    "id": 23,
                    "methodDecoded": true,
                    "operation": "STATICCALL",
                    "output": "0x000000000000000000000000c02aaa39b223fe8d0a0e5c4f27ead9083c756cc2",
                    "revert": true,
                    "revertMessage": "",
                    "selector": "0xd21220a7",
                    "status": true,
                    "value": "0"
                },
                "nodeType": 0
            },
            "24": {
                "invocation": {
                    "address": "0x403b1b747b1efb309070436c9ac99bf476f299ea",
                    "callData": "0x",
                    "decodedMethod": {
                        "callParams": [],
                        "constructorArguments": "",
                        "name": "fee",
                        "returnParams": [
                            {
                                "name": "",
                                "type": "uint24",
                                "value": "10,000"
                            }
                        ],
                        "signature": "fee()"
                    },
                    "errorInfo": "",
                    "fromAddress": "0x1111111254eeb25477b68fb85ed929f73a960582",
                    "gasUsed": 251,
                    "id": 24,
                    "methodDecoded": true,
                    "operation": "STATICCALL",
                    "output": "0x0000000000000000000000000000000000000000000000000000000000002710",
                    "revert": true,
                    "revertMessage": "",
                    "selector": "0xddca3f43",
                    "status": true,
                    "value": "0"
                },
                "nodeType": 0
            },
            "25": {
                "invocation": {
                    "address": "0x1151cb3d861920e07a38e03eead12c32178567f6",
                    "callData": "0x00000000000000000000000074de5d4fcbf63e00296fd95d33236b9794016631000000000000000000000000403b1b747b1efb309070436c9ac99bf476f299ea0000000000000000000000000000000000000000000000000000037dfe8b86f4",
                    "decodedMethod": {
                        "callParams": [
                            {
                                "name": "sender",
                                "type": "address",
                                "value": "0x74de5d4fcbf63e00296fd95d33236b9794016631"
                            },
                            {
                                "name": "recipient",
                                "type": "address",
                                "value": "0x403b1b747b1efb309070436c9ac99bf476f299ea"
                            },
                            {
                                "decimalAvailable": true,
                                "name": "amount",
                                "type": "uint256",
                                "value": "3,839,676,352,244"
                            }
                        ],
                        "constructorArguments": "",
                        "name": "transferFrom",
                        "returnParams": [
                            {
                                "name": "",
                                "type": "bool",
                                "value": true
                            }
                        ],
                        "signature": "transferFrom(address,address,uint256)"
                    },
                    "errorInfo": "",
                    "fromAddress": "0x1111111254eeb25477b68fb85ed929f73a960582",
                    "gasUsed": 13342,
                    "id": 25,
                    "methodDecoded": true,
                    "operation": "CALL",
                    "output": "0x0000000000000000000000000000000000000000000000000000000000000001",
                    "revert": true,
                    "revertMessage": "",
                    "selector": "0x23b872dd",
                    "status": true,
                    "value": "0"
                },
                "nodeType": 0
            },
            "26": {
                "invocation": {
                    "address": "0x3ee18b2214aff97000d974cf647e7c347e8fa585",
                    "callData": "0x",
                    "decodedMethod": {
                        "callParams": [],
                        "constructorArguments": "",
                        "name": "implementation",
                        "returnParams": [
                            {
                                "name": "",
                                "type": "address",
                                "value": "0x0fd04a68d3c3a692d6fa30384d1a87ef93554ee6"
                            }
                        ],
                        "signature": "implementation()"
                    },
                    "errorInfo": "",
                    "fromAddress": "0x1151cb3d861920e07a38e03eead12c32178567f6",
                    "gasUsed": 854,
                    "id": 26,
                    "methodDecoded": true,
                    "operation": "STATICCALL",
                    "output": "0x0000000000000000000000000fd04a68d3c3a692d6fa30384d1a87ef93554ee6",
                    "revert": true,
                    "revertMessage": "",
                    "selector": "0x5c60da1b",
                    "status": true,
                    "value": "0"
                },
                "nodeType": 0
            },
            "27": {
                "invocation": {
                    "address": "0x381752f5458282d317d12c30d2bd4d6e1fd8841e",
                    "callData": "0x",
                    "decodedMethod": {
                        "callParams": [],
                        "constructorArguments": "",
                        "name": "implementation",
                        "returnParams": [
                            {
                                "name": "",
                                "type": "address",
                                "value": "0x0fd04a68d3c3a692d6fa30384d1a87ef93554ee6"
                            }
                        ],
                        "signature": "implementation()"
                    },
                    "errorInfo": "",
                    "fromAddress": "0x3ee18b2214aff97000d974cf647e7c347e8fa585",
                    "gasUsed": 459,
                    "id": 27,
                    "methodDecoded": true,
                    "operation": "DELEGATECALL",
                    "output": "0x0000000000000000000000000fd04a68d3c3a692d6fa30384d1a87ef93554ee6",
                    "revert": true,
                    "revertMessage": "",
                    "selector": "0x5c60da1b",
                    "status": true,
                    "value": "0"
                },
                "nodeType": 0
            },
            "28": {
                "invocation": {
                    "address": "0x0fd04a68d3c3a692d6fa30384d1a87ef93554ee6",
                    "callData": "0x00000000000000000000000074de5d4fcbf63e00296fd95d33236b9794016631000000000000000000000000403b1b747b1efb309070436c9ac99bf476f299ea0000000000000000000000000000000000000000000000000000037dfe8b86f4",
                    "decodedMethod": {
                        "callParams": [
                            {
                                "name": "sender_",
                                "type": "address",
                                "value": "0x74de5d4fcbf63e00296fd95d33236b9794016631"
                            },
                            {
                                "name": "recipient_",
                                "type": "address",
                                "value": "0x403b1b747b1efb309070436c9ac99bf476f299ea"
                            },
                            {
                                "decimalAvailable": true,
                                "name": "amount_",
                                "type": "uint256",
                                "value": "3,839,676,352,244"
                            }
                        ],
                        "constructorArguments": "",
                        "name": "transferFrom",
                        "returnParams": [
                            {
                                "name": "",
                                "type": "bool",
                                "value": true
                            }
                        ],
                        "signature": "transferFrom(address,address,uint256)"
                    },
                    "errorInfo": "",
                    "fromAddress": "0x1151cb3d861920e07a38e03eead12c32178567f6",
                    "gasUsed": 11563,
                    "id": 28,
                    "methodDecoded": true,
                    "operation": "DELEGATECALL",
                    "output": "0x0000000000000000000000000000000000000000000000000000000000000001",
                    "revert": true,
                    "revertMessage": "",
                    "selector": "0x23b872dd",
                    "status": true,
                    "value": "0"
                },
                "nodeType": 0
            },
            "29": {
                "event": {
                    "contract": "0x1151cb3d861920e07a38e03eead12c32178567f6",
                    "decodedLog": {
                        "name": "Transfer",
                        "params": [
                            {
                                "name": "from",
                                "type": "address",
                                "value": "0x74de5d4fcbf63e00296fd95d33236b9794016631"
                            },
                            {
                                "name": "to",
                                "type": "address",
                                "value": "0x403b1b747b1efb309070436c9ac99bf476f299ea"
                            },
                            {
                                "decimalAvailable": true,
                                "name": "value",
                                "type": "uint256",
                                "value": "3,839,676,352,244"
                            }
                        ],
                        "signature": "Transfer(address,address,uint256)"
                    },
                    "id": 29,
                    "logData": "0x0000000000000000000000000000000000000000000000000000037dfe8b86f4",
                    "logDecoded": true,
                    "operation": "EVENT",
                    "revert": true,
                    "status": false,
                    "topics": [
                        "0xddf252ad1be2c89b69c2b068fc378daa952ba7f163c4a11628f55a4df523b3ef",
                        "0x00000000000000000000000074de5d4fcbf63e00296fd95d33236b9794016631",
                        "0x000000000000000000000000403b1b747b1efb309070436c9ac99bf476f299ea"
                    ]
                },
                "nodeType": 1
            },
            "3": {
                "invocation": {
                    "address": "0x381752f5458282d317d12c30d2bd4d6e1fd8841e",
                    "callData": "0x",
                    "decodedMethod": {
                        "callParams": [],
                        "constructorArguments": "",
                        "name": "implementation",
                        "returnParams": [
                            {
                                "name": "",
                                "type": "address",
                                "value": "0x0fd04a68d3c3a692d6fa30384d1a87ef93554ee6"
                            }
                        ],
                        "signature": "implementation()"
                    },
                    "errorInfo": "",
                    "fromAddress": "0x3ee18b2214aff97000d974cf647e7c347e8fa585",
                    "gasUsed": 2459,
                    "id": 3,
                    "methodDecoded": true,
                    "operation": "DELEGATECALL",
                    "output": "0x0000000000000000000000000fd04a68d3c3a692d6fa30384d1a87ef93554ee6",
                    "revert": true,
                    "revertMessage": "",
                    "selector": "0x5c60da1b",
                    "status": true,
                    "value": "0"
                },
                "nodeType": 0
            },
            "30": {
                "event": {
                    "contract": "0x1151cb3d861920e07a38e03eead12c32178567f6",
                    "decodedLog": {
                        "name": "Approval",
                        "params": [
                            {
                                "name": "owner",
                                "type": "address",
                                "value": "0x74de5d4fcbf63e00296fd95d33236b9794016631"
                            },
                            {
                                "name": "spender",
                                "type": "address",
                                "value": "0x1111111254eeb25477b68fb85ed929f73a960582"
                            },
                            {
                                "decimalAvailable": true,
                                "name": "value",
                                "type": "uint256",
                                "value": "115,792,089,237,316,195,423,570,985,008,687,907,853,269,984,665,640,564,039,457,574,441,071,083,880,458"
                            }
                        ],
                        "signature": "Approval(address,address,uint256)"
                    },
                    "id": 30,
                    "logData": "0xffffffffffffffffffffffffffffffffffffffffffffffffffde0302023d800a",
                    "logDecoded": true,
                    "operation": "EVENT",
                    "revert": true,
                    "status": false,
                    "topics": [
                        "0x8c5be1e5ebec7d5bd14f71427d1e84f3dd0314c0f7b2291e5b200ac8c7c3b925",
                        "0x00000000000000000000000074de5d4fcbf63e00296fd95d33236b9794016631",
                        "0x0000000000000000000000001111111254eeb25477b68fb85ed929f73a960582"
                    ]
                },
                "nodeType": 1
            },
            "31": {
                "invocation": {
                    "address": "0x1151cb3d861920e07a38e03eead12c32178567f6",
                    "callData": "0x000000000000000000000000403b1b747b1efb309070436c9ac99bf476f299ea",
                    "decodedMethod": {
                        "callParams": [
                            {
                                "name": "account",
                                "type": "address",
                                "value": "0x403b1b747b1efb309070436c9ac99bf476f299ea"
                            }
                        ],
                        "constructorArguments": "",
                        "name": "balanceOf",
                        "returnParams": [
                            {
                                "decimalAvailable": true,
                                "name": "",
                                "type": "uint256",
                                "value": "2,094,441,809,410,161"
                            }
                        ],
                        "signature": "balanceOf(address)"
                    },
                    "errorInfo": "",
                    "fromAddress": "0x403b1b747b1efb309070436c9ac99bf476f299ea",
                    "gasUsed": 2421,
                    "id": 31,
                    "methodDecoded": true,
                    "operation": "STATICCALL",
                    "output": "0x000000000000000000000000000000000000000000000000000770e23c0d7871",
                    "revert": true,
                    "revertMessage": "",
                    "selector": "0x70a08231",
                    "status": true,
                    "value": "0"
                },
                "nodeType": 0
            },
            "32": {
                "invocation": {
                    "address": "0x3ee18b2214aff97000d974cf647e7c347e8fa585",
                    "callData": "0x",
                    "decodedMethod": {
                        "callParams": [],
                        "constructorArguments": "",
                        "name": "implementation",
                        "returnParams": [
                            {
                                "name": "",
                                "type": "address",
                                "value": "0x0fd04a68d3c3a692d6fa30384d1a87ef93554ee6"
                            }
                        ],
                        "signature": "implementation()"
                    },
                    "errorInfo": "",
                    "fromAddress": "0x1151cb3d861920e07a38e03eead12c32178567f6",
                    "gasUsed": 854,
                    "id": 32,
                    "methodDecoded": true,
                    "operation": "STATICCALL",
                    "output": "0x0000000000000000000000000fd04a68d3c3a692d6fa30384d1a87ef93554ee6",
                    "revert": true,
                    "revertMessage": "",
                    "selector": "0x5c60da1b",
                    "status": true,
                    "value": "0"
                },
                "nodeType": 0
            },
            "33": {
                "invocation": {
                    "address": "0x381752f5458282d317d12c30d2bd4d6e1fd8841e",
                    "callData": "0x",
                    "decodedMethod": {
                        "callParams": [],
                        "constructorArguments": "",
                        "name": "implementation",
                        "returnParams": [
                            {
                                "name": "",
                                "type": "address",
                                "value": "0x0fd04a68d3c3a692d6fa30384d1a87ef93554ee6"
                            }
                        ],
                        "signature": "implementation()"
                    },
                    "errorInfo": "",
                    "fromAddress": "0x3ee18b2214aff97000d974cf647e7c347e8fa585",
                    "gasUsed": 459,
                    "id": 33,
                    "methodDecoded": true,
                    "operation": "DELEGATECALL",
                    "output": "0x0000000000000000000000000fd04a68d3c3a692d6fa30384d1a87ef93554ee6",
                    "revert": true,
                    "revertMessage": "",
                    "selector": "0x5c60da1b",
                    "status": true,
                    "value": "0"
                },
                "nodeType": 0
            },
            "34": {
                "invocation": {
                    "address": "0x0fd04a68d3c3a692d6fa30384d1a87ef93554ee6",
                    "callData": "0x000000000000000000000000403b1b747b1efb309070436c9ac99bf476f299ea",
                    "decodedMethod": {
                        "callParams": [
                            {
                                "name": "account_",
                                "type": "address",
                                "value": "0x403b1b747b1efb309070436c9ac99bf476f299ea"
                            }
                        ],
                        "constructorArguments": "",
                        "name": "balanceOf",
                        "returnParams": [
                            {
                                "decimalAvailable": true,
                                "name": "",
                                "type": "uint256",
                                "value": "2,094,441,809,410,161"
                            }
                        ],
                        "signature": "balanceOf(address)"
                    },
                    "errorInfo": "",
                    "fromAddress": "0x1151cb3d861920e07a38e03eead12c32178567f6",
                    "gasUsed": 648,
                    "id": 34,
                    "methodDecoded": true,
                    "operation": "DELEGATECALL",
                    "output": "0x000000000000000000000000000000000000000000000000000770e23c0d7871",
                    "revert": true,
                    "revertMessage": "",
                    "selector": "0x70a08231",
                    "status": true,
                    "value": "0"
                },
                "nodeType": 0
            },
            "35": {
                "event": {
                    "contract": "0x403b1b747b1efb309070436c9ac99bf476f299ea",
                    "decodedLog": {
                        "name": "Swap",
                        "params": [
                            {
                                "name": "sender",
                                "type": "address",
                                "value": "0x1111111254eeb25477b68fb85ed929f73a960582"
                            },
                            {
                                "name": "recipient",
                                "type": "address",
                                "value": "0x1111111254eeb25477b68fb85ed929f73a960582"
                            },
                            {
                                "name": "amount0",
                                "type": "int256",
                                "value": "3,839,676,352,244"
                            },
                            {
                                "name": "amount1",
                                "type": "int256",
                                "value": "-355,523,934,549,112,057"
                            },
                            {
                                "name": "sqrtPriceX96",
                                "type": "uint160",
                                "value": "24,218,542,387,532,315,517,465,876,841,187"
                            },
                            {
                                "name": "liquidity",
                                "type": "uint128",
                                "value": "1,255,298,527,748,055,519"
                            },
                            {
                                "name": "tick",
                                "type": "int24",
                                "value": "114,456"
                            }
                        ],
                        "signature": "Swap(address,address,int256,int256,uint160,uint128,int24)"
                    },
                    "id": 35,
                    "logData": "0x0000000000000000000000000000000000000000000000000000037dfe8b86f4fffffffffffffffffffffffffffffffffffffffffffffffffb10ecdd7c0d0b070000000000000000000000000000000000000131ae54ba2dbd97b1dc7fb542e3000000000000000000000000000000000000000000000000116bb75c317e61df000000000000000000000000000000000000000000000000000000000001bf18",
                    "logDecoded": true,
                    "operation": "EVENT",
                    "revert": true,
                    "status": false,
                    "topics": [
                        "0xc42079f94a6350d7e6235f29174924f928cc2ac818eb64fed8004e115fbcca67",
                        "0x0000000000000000000000001111111254eeb25477b68fb85ed929f73a960582",
                        "0x0000000000000000000000001111111254eeb25477b68fb85ed929f73a960582"
                    ]
                },
                "nodeType": 1
            },
            "36": {
                "invocation": {
                    "address": "0x8ad599c3a0ff1de082011efddc58f1908eb6e6d8",
                    "callData": "0x00000000000000000000000074de5d4fcbf63e00296fd95d33236b9794016631000000000000000000000000000000000000000000000000000000000000000000000000000000000000000000000000000000000000000004ef132283f2f4f9000000000000000000000000fffd8963efd1fc6a506488495d951d5263988d2500000000000000000000000000000000000000000000000000000000000000a000000000000000000000000000000000000000000000000000000000000000200000000000000000000000001111111254eeb25477b68fb85ed929f73a960582",
                    "decodedMethod": {
                        "callParams": [
                            {
                                "name": "recipient",
                                "type": "address",
                                "value": "0x74de5d4fcbf63e00296fd95d33236b9794016631"
                            },
                            {
                                "name": "zeroForOne",
                                "type": "bool",
                                "value": false
                            },
                            {
                                "name": "amountSpecified",
                                "type": "int256",
                                "value": "355,523,934,549,112,057"
                            },
                            {
                                "name": "sqrtPriceLimitX96",
                                "type": "uint160",
                                "value": "1,461,446,703,485,210,103,287,273,052,203,988,822,378,723,970,341"
                            },
                            {
                                "name": "data",
                                "type": "bytes",
                                "value": "0x0000000000000000000000001111111254eeb25477b68fb85ed929f73a960582"
                            }
                        ],
                        "constructorArguments": "",
                        "name": "swap",
                        "returnParams": [
                            {
                                "name": "amount0",
                                "type": "int256",
                                "value": "-793,032,255"
                            },
                            {
                                "name": "amount1",
                                "type": "int256",
                                "value": "355,523,934,549,112,057"
                            }
                        ],
                        "signature": "swap(address,bool,int256,uint160,bytes)"
                    },
                    "errorInfo": "",
                    "fromAddress": "0x1111111254eeb25477b68fb85ed929f73a960582",
                    "gasUsed": 89119,
                    "id": 36,
                    "methodDecoded": true,
                    "operation": "CALL",
                    "output": "0xffffffffffffffffffffffffffffffffffffffffffffffffffffffffd0bb49c100000000000000000000000000000000000000000000000004ef132283f2f4f9",
                    "revert": true,
                    "revertMessage": "",
                    "selector": "0x128acb08",
                    "status": true,
                    "value": "0"
                },
                "nodeType": 0
            },
            "37": {
                "invocation": {
                    "address": "0xa0b86991c6218b36c1d19d4a2e9eb0ce3606eb48",
                    "callData": "0x00000000000000000000000074de5d4fcbf63e00296fd95d33236b9794016631000000000000000000000000000000000000000000000000000000002f44b63f",
                    "decodedMethod": {
                        "callParams": [
                            {
                                "name": "to",
                                "type": "address",
                                "value": "0x74de5d4fcbf63e00296fd95d33236b9794016631"
                            },
                            {
                                "decimalAvailable": true,
                                "name": "value",
                                "type": "uint256",
                                "value": "793,032,255"
                            }
                        ],
                        "constructorArguments": "",
                        "name": "transfer",
                        "returnParams": [
                            {
                                "name": "",
                                "type": "bool",
                                "value": true
                            }
                        ],
                        "signature": "transfer(address,uint256)"
                    },
                    "errorInfo": "",
                    "fromAddress": "0x8ad599c3a0ff1de082011efddc58f1908eb6e6d8",
                    "gasUsed": 44017,
                    "id": 37,
                    "methodDecoded": true,
                    "operation": "CALL",
                    "output": "0x0000000000000000000000000000000000000000000000000000000000000001",
                    "revert": true,
                    "revertMessage": "",
                    "selector": "0xa9059cbb",
                    "status": true,
                    "value": "0"
                },
                "nodeType": 0
            },
            "38": {
                "invocation": {
                    "address": "0xa2327a938febf5fec13bacfb16ae10ecbc4cbdcf",
                    "callData": "0x00000000000000000000000074de5d4fcbf63e00296fd95d33236b9794016631000000000000000000000000000000000000000000000000000000002f44b63f",
                    "decodedMethod": {
                        "callParams": [
                            {
                                "name": "to",
                                "type": "address",
                                "value": "0x74de5d4fcbf63e00296fd95d33236b9794016631"
                            },
                            {
                                "decimalAvailable": true,
                                "name": "value",
                                "type": "uint256",
                                "value": "793,032,255"
                            }
                        ],
                        "constructorArguments": "",
                        "name": "transfer",
                        "returnParams": [
                            {
                                "name": "",
                                "type": "bool",
                                "value": true
                            }
                        ],
                        "signature": "transfer(address,uint256)"
                    },
                    "errorInfo": "",
                    "fromAddress": "0xa0b86991c6218b36c1d19d4a2e9eb0ce3606eb48",
                    "gasUsed": 36728,
                    "id": 38,
                    "methodDecoded": true,
                    "operation": "DELEGATECALL",
                    "output": "0x0000000000000000000000000000000000000000000000000000000000000001",
                    "revert": true,
                    "revertMessage": "",
                    "selector": "0xa9059cbb",
                    "status": true,
                    "value": "0"
                },
                "nodeType": 0
            },
            "39": {
                "event": {
                    "contract": "0xa0b86991c6218b36c1d19d4a2e9eb0ce3606eb48",
                    "decodedLog": {
                        "name": "Transfer",
                        "params": [
                            {
                                "name": "from",
                                "type": "address",
                                "value": "0x8ad599c3a0ff1de082011efddc58f1908eb6e6d8"
                            },
                            {
                                "name": "to",
                                "type": "address",
                                "value": "0x74de5d4fcbf63e00296fd95d33236b9794016631"
                            },
                            {
                                "decimalAvailable": true,
                                "name": "value",
                                "type": "uint256",
                                "value": "793,032,255"
                            }
                        ],
                        "signature": "Transfer(address,address,uint256)"
                    },
                    "id": 39,
                    "logData": "0x000000000000000000000000000000000000000000000000000000002f44b63f",
                    "logDecoded": true,
                    "operation": "EVENT",
                    "revert": true,
                    "status": false,
                    "topics": [
                        "0xddf252ad1be2c89b69c2b068fc378daa952ba7f163c4a11628f55a4df523b3ef",
                        "0x0000000000000000000000008ad599c3a0ff1de082011efddc58f1908eb6e6d8",
                        "0x00000000000000000000000074de5d4fcbf63e00296fd95d33236b9794016631"
                    ]
                },
                "nodeType": 1
            },
            "4": {
                "invocation": {
                    "address": "0x0fd04a68d3c3a692d6fa30384d1a87ef93554ee6",
                    "callData": "0x000000000000000000000000022e0f309c2986bc7a4f663dc45a7858d9e358d600000000000000000000000074de5d4fcbf63e00296fd95d33236b97940166310000000000000000000000000000000000000000000000000000037dfe8b86f4",
                    "decodedMethod": {
                        "callParams": [
                            {
                                "name": "sender_",
                                "type": "address",
                                "value": "0x022e0f309c2986bc7a4f663dc45a7858d9e358d6"
                            },
                            {
                                "name": "recipient_",
                                "type": "address",
                                "value": "0x74de5d4fcbf63e00296fd95d33236b9794016631"
                            },
                            {
                                "decimalAvailable": true,
                                "name": "amount_",
                                "type": "uint256",
                                "value": "3,839,676,352,244"
                            }
                        ],
                        "constructorArguments": "",
                        "name": "transferFrom",
                        "returnParams": [
                            {
                                "name": "",
                                "type": "bool",
                                "value": true
                            }
                        ],
                        "signature": "transferFrom(address,address,uint256)"
                    },
                    "errorInfo": "",
                    "fromAddress": "0x1151cb3d861920e07a38e03eead12c32178567f6",
                    "gasUsed": 37463,
                    "id": 4,
                    "methodDecoded": true,
                    "operation": "DELEGATECALL",
                    "output": "0x0000000000000000000000000000000000000000000000000000000000000001",
                    "revert": true,
                    "revertMessage": "",
                    "selector": "0x23b872dd",
                    "status": true,
                    "value": "0"
                },
                "nodeType": 0
            },
            "40": {
                "invocation": {
                    "address": "0xc02aaa39b223fe8d0a0e5c4f27ead9083c756cc2",
                    "callData": "0x0000000000000000000000008ad599c3a0ff1de082011efddc58f1908eb6e6d8",
                    "decodedMethod": {
                        "callParams": [
                            {
                                "name": "",
                                "type": "address",
                                "value": "0x8ad599c3a0ff1de082011efddc58f1908eb6e6d8"
                            }
                        ],
                        "constructorArguments": "",
                        "name": "balanceOf",
                        "returnParams": [
                            {
                                "decimalAvailable": true,
                                "name": "",
                                "type": "uint256",
                                "value": "14,206,572,148,302,731,190,689"
                            }
                        ],
                        "signature": "balanceOf(address)"
                    },
                    "errorInfo": "",
                    "fromAddress": "0x8ad599c3a0ff1de082011efddc58f1908eb6e6d8",
                    "gasUsed": 2534,
                    "id": 40,
                    "methodDecoded": true,
                    "operation": "STATICCALL",
                    "output": "0x00000000000000000000000000000000000000000000030223cb333c765aa1a1",
                    "revert": true,
                    "revertMessage": "",
                    "selector": "0x70a08231",
                    "status": true,
                    "value": "0"
                },
                "nodeType": 0
            },
            "41": {
                "invocation": {
                    "address": "0x1111111254eeb25477b68fb85ed929f73a960582",
                    "callData": "0xffffffffffffffffffffffffffffffffffffffffffffffffffffffffd0bb49c100000000000000000000000000000000000000000000000004ef132283f2f4f9000000000000000000000000000000000000000000000000000000000000006000000000000000000000000000000000000000000000000000000000000000200000000000000000000000001111111254eeb25477b68fb85ed929f73a960582",
                    "decodedMethod": {
                        "callParams": [
                            {
                                "name": "amount0Delta",
                                "type": "int256",
                                "value": "-793,032,255"
                            },
                            {
                                "name": "amount1Delta",
                                "type": "int256",
                                "value": "355,523,934,549,112,057"
                            },
                            {
                                "name": "",
                                "type": "bytes",
                                "value": "0x0000000000000000000000001111111254eeb25477b68fb85ed929f73a960582"
                            }
                        ],
                        "constructorArguments": "",
                        "name": "uniswapV3SwapCallback",
                        "returnParams": [],
                        "signature": "uniswapV3SwapCallback(int256,int256,bytes)"
                    },
                    "errorInfo": "",
                    "fromAddress": "0x8ad599c3a0ff1de082011efddc58f1908eb6e6d8",
                    "gasUsed": 8519,
                    "id": 41,
                    "methodDecoded": true,
                    "operation": "CALL",
                    "output": "",
                    "revert": true,
                    "revertMessage": "",
                    "selector": "0xfa461e33",
                    "status": true,
                    "value": "0"
                },
                "nodeType": 0
            },
            "42": {
                "invocation": {
                    "address": "0x8ad599c3a0ff1de082011efddc58f1908eb6e6d8",
                    "callData": "0x",
                    "decodedMethod": {
                        "callParams": [],
                        "constructorArguments": "",
                        "name": "token0",
                        "returnParams": [
                            {
                                "name": "",
                                "type": "address",
                                "value": "0xa0b86991c6218b36c1d19d4a2e9eb0ce3606eb48"
                            }
                        ],
                        "signature": "token0()"
                    },
                    "errorInfo": "",
                    "fromAddress": "0x1111111254eeb25477b68fb85ed929f73a960582",
                    "gasUsed": 266,
                    "id": 42,
                    "methodDecoded": true,
                    "operation": "STATICCALL",
                    "output": "0x000000000000000000000000a0b86991c6218b36c1d19d4a2e9eb0ce3606eb48",
                    "revert": true,
                    "revertMessage": "",
                    "selector": "0x0dfe1681",
                    "status": true,
                    "value": "0"
                },
                "nodeType": 0
            },
            "43": {
                "invocation": {
                    "address": "0x8ad599c3a0ff1de082011efddc58f1908eb6e6d8",
                    "callData": "0x",
                    "decodedMethod": {
                        "callParams": [],
                        "constructorArguments": "",
                        "name": "token1",
                        "returnParams": [
                            {
                                "name": "",
                                "type": "address",
                                "value": "0xc02aaa39b223fe8d0a0e5c4f27ead9083c756cc2"
                            }
                        ],
                        "signature": "token1()"
                    },
                    "errorInfo": "",
                    "fromAddress": "0x1111111254eeb25477b68fb85ed929f73a960582",
                    "gasUsed": 308,
                    "id": 43,
                    "methodDecoded": true,
                    "operation": "STATICCALL",
                    "output": "0x000000000000000000000000c02aaa39b223fe8d0a0e5c4f27ead9083c756cc2",
                    "revert": true,
                    "revertMessage": "",
                    "selector": "0xd21220a7",
                    "status": true,
                    "value": "0"
                },
                "nodeType": 0
            },
            "44": {
                "invocation": {
                    "address": "0x8ad599c3a0ff1de082011efddc58f1908eb6e6d8",
                    "callData": "0x",
                    "decodedMethod": {
                        "callParams": [],
                        "constructorArguments": "",
                        "name": "fee",
                        "returnParams": [
                            {
                                "name": "",
                                "type": "uint24",
                                "value": "3,000"
                            }
                        ],
                        "signature": "fee()"
                    },
                    "errorInfo": "",
                    "fromAddress": "0x1111111254eeb25477b68fb85ed929f73a960582",
                    "gasUsed": 251,
                    "id": 44,
                    "methodDecoded": true,
                    "operation": "STATICCALL",
                    "output": "0x0000000000000000000000000000000000000000000000000000000000000bb8",
                    "revert": true,
                    "revertMessage": "",
                    "selector": "0xddca3f43",
                    "status": true,
                    "value": "0"
                },
                "nodeType": 0
            },
            "45": {
                "invocation": {
                    "address": "0xc02aaa39b223fe8d0a0e5c4f27ead9083c756cc2",
                    "callData": "0x0000000000000000000000008ad599c3a0ff1de082011efddc58f1908eb6e6d800000000000000000000000000000000000000000000000004ef132283f2f4f9",
                    "decodedMethod": {
                        "callParams": [
                            {
                                "name": "dst",
                                "type": "address",
                                "value": "0x8ad599c3a0ff1de082011efddc58f1908eb6e6d8"
                            },
                            {
                                "decimalAvailable": true,
                                "name": "wad",
                                "type": "uint256",
                                "value": "355,523,934,549,112,057"
                            }
                        ],
                        "constructorArguments": "",
                        "name": "transfer",
                        "returnParams": [
                            {
                                "name": "",
                                "type": "bool",
                                "value": true
                            }
                        ],
                        "signature": "transfer(address,uint256)"
                    },
                    "errorInfo": "",
                    "fromAddress": "0x1111111254eeb25477b68fb85ed929f73a960582",
                    "gasUsed": 6062,
                    "id": 45,
                    "methodDecoded": true,
                    "operation": "CALL",
                    "output": "0x0000000000000000000000000000000000000000000000000000000000000001",
                    "revert": true,
                    "revertMessage": "",
                    "selector": "0xa9059cbb",
                    "status": true,
                    "value": "0"
                },
                "nodeType": 0
            },
            "46": {
                "event": {
                    "contract": "0xc02aaa39b223fe8d0a0e5c4f27ead9083c756cc2",
                    "decodedLog": {
                        "name": "Transfer",
                        "params": [
                            {
                                "name": "src",
                                "type": "address",
                                "value": "0x1111111254eeb25477b68fb85ed929f73a960582"
                            },
                            {
                                "name": "dst",
                                "type": "address",
                                "value": "0x8ad599c3a0ff1de082011efddc58f1908eb6e6d8"
                            },
                            {
                                "decimalAvailable": true,
                                "name": "wad",
                                "type": "uint256",
                                "value": "355,523,934,549,112,057"
                            }
                        ],
                        "signature": "Transfer(address,address,uint256)"
                    },
                    "id": 46,
                    "logData": "0x00000000000000000000000000000000000000000000000004ef132283f2f4f9",
                    "logDecoded": true,
                    "operation": "EVENT",
                    "revert": true,
                    "status": false,
                    "topics": [
                        "0xddf252ad1be2c89b69c2b068fc378daa952ba7f163c4a11628f55a4df523b3ef",
                        "0x0000000000000000000000001111111254eeb25477b68fb85ed929f73a960582",
                        "0x0000000000000000000000008ad599c3a0ff1de082011efddc58f1908eb6e6d8"
                    ]
                },
                "nodeType": 1
            },
            "47": {
                "invocation": {
                    "address": "0xc02aaa39b223fe8d0a0e5c4f27ead9083c756cc2",
                    "callData": "0x0000000000000000000000008ad599c3a0ff1de082011efddc58f1908eb6e6d8",
                    "decodedMethod": {
                        "callParams": [
                            {
                                "name": "",
                                "type": "address",
                                "value": "0x8ad599c3a0ff1de082011efddc58f1908eb6e6d8"
                            }
                        ],
                        "constructorArguments": "",
                        "name": "balanceOf",
                        "returnParams": [
                            {
                                "decimalAvailable": true,
                                "name": "",
                                "type": "uint256",
                                "value": "14,206,927,672,237,280,302,746"
                            }
                        ],
                        "signature": "balanceOf(address)"
                    },
                    "errorInfo": "",
                    "fromAddress": "0x8ad599c3a0ff1de082011efddc58f1908eb6e6d8",
                    "gasUsed": 534,
                    "id": 47,
                    "methodDecoded": true,
                    "operation": "STATICCALL",
                    "output": "0x00000000000000000000000000000000000000000000030228ba465efa4d969a",
                    "revert": true,
                    "revertMessage": "",
                    "selector": "0x70a08231",
                    "status": true,
                    "value": "0"
                },
                "nodeType": 0
            },
            "48": {
                "event": {
                    "contract": "0x8ad599c3a0ff1de082011efddc58f1908eb6e6d8",
                    "decodedLog": {
                        "name": "Swap",
                        "params": [
                            {
                                "name": "sender",
                                "type": "address",
                                "value": "0x1111111254eeb25477b68fb85ed929f73a960582"
                            },
                            {
                                "name": "recipient",
                                "type": "address",
                                "value": "0x74de5d4fcbf63e00296fd95d33236b9794016631"
                            },
                            {
                                "name": "amount0",
                                "type": "int256",
                                "value": "-793,032,255"
                            },
                            {
                                "name": "amount1",
                                "type": "int256",
                                "value": "355,523,934,549,112,057"
                            },
                            {
                                "name": "sqrtPriceX96",
                                "type": "uint160",
                                "value": "1,675,007,827,782,959,743,182,563,753,508,797"
                            },
                            {
                                "name": "liquidity",
                                "type": "uint128",
                                "value": "5,336,337,058,313,445,341"
                            },
                            {
                                "name": "tick",
                                "type": "int24",
                                "value": "199,189"
                            }
                        ],
                        "signature": "Swap(address,address,int256,int256,uint160,uint128,int24)"
                    },
                    "id": 48,
                    "logData": "0xffffffffffffffffffffffffffffffffffffffffffffffffffffffffd0bb49c100000000000000000000000000000000000000000000000004ef132283f2f4f90000000000000000000000000000000000005295923104418801bf0afb26bfbd0000000000000000000000000000000000000000000000004a0e7a480a869fdd0000000000000000000000000000000000000000000000000000000000030a15",
                    "logDecoded": true,
                    "operation": "EVENT",
                    "revert": true,
                    "status": false,
                    "topics": [
                        "0xc42079f94a6350d7e6235f29174924f928cc2ac818eb64fed8004e115fbcca67",
                        "0x0000000000000000000000001111111254eeb25477b68fb85ed929f73a960582",
                        "0x00000000000000000000000074de5d4fcbf63e00296fd95d33236b9794016631"
                    ]
                },
                "nodeType": 1
            },
            "49": {
                "invocation": {
                    "address": "0xa0b86991c6218b36c1d19d4a2e9eb0ce3606eb48",
                    "callData": "0x0000000000000000000000002acf35c9a3f4c5c3f4c78ef5fb64c3ee82f07c4500000000000000000000000000000000000000000000000000000000006b15b2",
                    "decodedMethod": {
                        "callParams": [
                            {
                                "name": "to",
                                "type": "address",
                                "value": "0x2acf35c9a3f4c5c3f4c78ef5fb64c3ee82f07c45"
                            },
                            {
                                "decimalAvailable": true,
                                "name": "value",
                                "type": "uint256",
                                "value": "7,017,906"
                            }
                        ],
                        "constructorArguments": "",
                        "name": "transfer",
                        "returnParams": [
                            {
                                "name": "",
                                "type": "bool",
                                "value": true
                            }
                        ],
                        "signature": "transfer(address,uint256)"
                    },
                    "errorInfo": "",
                    "fromAddress": "0x74de5d4fcbf63e00296fd95d33236b9794016631",
                    "gasUsed": 11617,
                    "id": 49,
                    "methodDecoded": true,
                    "operation": "CALL",
                    "output": "0x0000000000000000000000000000000000000000000000000000000000000001",
                    "revert": true,
                    "revertMessage": "",
                    "selector": "0xa9059cbb",
                    "status": true,
                    "value": "0"
                },
                "nodeType": 0
            },
            "5": {
                "event": {
                    "contract": "0x1151cb3d861920e07a38e03eead12c32178567f6",
                    "decodedLog": {
                        "name": "Transfer",
                        "params": [
                            {
                                "name": "from",
                                "type": "address",
                                "value": "0x022e0f309c2986bc7a4f663dc45a7858d9e358d6"
                            },
                            {
                                "name": "to",
                                "type": "address",
                                "value": "0x74de5d4fcbf63e00296fd95d33236b9794016631"
                            },
                            {
                                "decimalAvailable": true,
                                "name": "value",
                                "type": "uint256",
                                "value": "3,839,676,352,244"
                            }
                        ],
                        "signature": "Transfer(address,address,uint256)"
                    },
                    "id": 5,
                    "logData": "0x0000000000000000000000000000000000000000000000000000037dfe8b86f4",
                    "logDecoded": true,
                    "operation": "EVENT",
                    "revert": true,
                    "status": false,
                    "topics": [
                        "0xddf252ad1be2c89b69c2b068fc378daa952ba7f163c4a11628f55a4df523b3ef",
                        "0x000000000000000000000000022e0f309c2986bc7a4f663dc45a7858d9e358d6",
                        "0x00000000000000000000000074de5d4fcbf63e00296fd95d33236b9794016631"
                    ]
                },
                "nodeType": 1
            },
            "50": {
                "invocation": {
                    "address": "0xa2327a938febf5fec13bacfb16ae10ecbc4cbdcf",
                    "callData": "0x0000000000000000000000002acf35c9a3f4c5c3f4c78ef5fb64c3ee82f07c4500000000000000000000000000000000000000000000000000000000006b15b2",
                    "decodedMethod": {
                        "callParams": [
                            {
                                "name": "to",
                                "type": "address",
                                "value": "0x2acf35c9a3f4c5c3f4c78ef5fb64c3ee82f07c45"
                            },
                            {
                                "decimalAvailable": true,
                                "name": "value",
                                "type": "uint256",
                                "value": "7,017,906"
                            }
                        ],
                        "constructorArguments": "",
                        "name": "transfer",
                        "returnParams": [
                            {
                                "name": "",
                                "type": "bool",
                                "value": true
                            }
                        ],
                        "signature": "transfer(address,uint256)"
                    },
                    "errorInfo": "",
                    "fromAddress": "0xa0b86991c6218b36c1d19d4a2e9eb0ce3606eb48",
                    "gasUsed": 10828,
                    "id": 50,
                    "methodDecoded": true,
                    "operation": "DELEGATECALL",
                    "output": "0x0000000000000000000000000000000000000000000000000000000000000001",
                    "revert": true,
                    "revertMessage": "",
                    "selector": "0xa9059cbb",
                    "status": true,
                    "value": "0"
                },
                "nodeType": 0
            },
            "51": {
                "event": {
                    "contract": "0xa0b86991c6218b36c1d19d4a2e9eb0ce3606eb48",
                    "decodedLog": {
                        "name": "Transfer",
                        "params": [
                            {
                                "name": "from",
                                "type": "address",
                                "value": "0x74de5d4fcbf63e00296fd95d33236b9794016631"
                            },
                            {
                                "name": "to",
                                "type": "address",
                                "value": "0x2acf35c9a3f4c5c3f4c78ef5fb64c3ee82f07c45"
                            },
                            {
                                "decimalAvailable": true,
                                "name": "value",
                                "type": "uint256",
                                "value": "7,017,906"
                            }
                        ],
                        "signature": "Transfer(address,address,uint256)"
                    },
                    "id": 51,
                    "logData": "0x00000000000000000000000000000000000000000000000000000000006b15b2",
                    "logDecoded": true,
                    "operation": "EVENT",
                    "revert": true,
                    "status": false,
                    "topics": [
                        "0xddf252ad1be2c89b69c2b068fc378daa952ba7f163c4a11628f55a4df523b3ef",
                        "0x00000000000000000000000074de5d4fcbf63e00296fd95d33236b9794016631",
                        "0x0000000000000000000000002acf35c9a3f4c5c3f4c78ef5fb64c3ee82f07c45"
                    ]
                },
                "nodeType": 1
            },
            "52": {
                "invocation": {
                    "address": "0x1151cb3d861920e07a38e03eead12c32178567f6",
                    "callData": "0x00000000000000000000000074de5d4fcbf63e00296fd95d33236b9794016631",
                    "decodedMethod": {
                        "callParams": [
                            {
                                "name": "account",
                                "type": "address",
                                "value": "0x74de5d4fcbf63e00296fd95d33236b9794016631"
                            }
                        ],
                        "constructorArguments": "",
                        "name": "balanceOf",
                        "returnParams": [
                            {
                                "decimalAvailable": true,
                                "name": "",
                                "type": "uint256",
                                "value": "0"
                            }
                        ],
                        "signature": "balanceOf(address)"
                    },
                    "errorInfo": "",
                    "fromAddress": "0x74de5d4fcbf63e00296fd95d33236b9794016631",
                    "gasUsed": 2421,
                    "id": 52,
                    "methodDecoded": true,
                    "operation": "STATICCALL",
                    "output": "0x0000000000000000000000000000000000000000000000000000000000000000",
                    "revert": true,
                    "revertMessage": "",
                    "selector": "0x70a08231",
                    "status": true,
                    "value": "0"
                },
                "nodeType": 0
            },
            "53": {
                "invocation": {
                    "address": "0x3ee18b2214aff97000d974cf647e7c347e8fa585",
                    "callData": "0x",
                    "decodedMethod": {
                        "callParams": [],
                        "constructorArguments": "",
                        "name": "implementation",
                        "returnParams": [
                            {
                                "name": "",
                                "type": "address",
                                "value": "0x0fd04a68d3c3a692d6fa30384d1a87ef93554ee6"
                            }
                        ],
                        "signature": "implementation()"
                    },
                    "errorInfo": "",
                    "fromAddress": "0x1151cb3d861920e07a38e03eead12c32178567f6",
                    "gasUsed": 854,
                    "id": 53,
                    "methodDecoded": true,
                    "operation": "STATICCALL",
                    "output": "0x0000000000000000000000000fd04a68d3c3a692d6fa30384d1a87ef93554ee6",
                    "revert": true,
                    "revertMessage": "",
                    "selector": "0x5c60da1b",
                    "status": true,
                    "value": "0"
                },
                "nodeType": 0
            },
            "54": {
                "invocation": {
                    "address": "0x381752f5458282d317d12c30d2bd4d6e1fd8841e",
                    "callData": "0x",
                    "decodedMethod": {
                        "callParams": [],
                        "constructorArguments": "",
                        "name": "implementation",
                        "returnParams": [
                            {
                                "name": "",
                                "type": "address",
                                "value": "0x0fd04a68d3c3a692d6fa30384d1a87ef93554ee6"
                            }
                        ],
                        "signature": "implementation()"
                    },
                    "errorInfo": "",
                    "fromAddress": "0x3ee18b2214aff97000d974cf647e7c347e8fa585",
                    "gasUsed": 459,
                    "id": 54,
                    "methodDecoded": true,
                    "operation": "DELEGATECALL",
                    "output": "0x0000000000000000000000000fd04a68d3c3a692d6fa30384d1a87ef93554ee6",
                    "revert": true,
                    "revertMessage": "",
                    "selector": "0x5c60da1b",
                    "status": true,
                    "value": "0"
                },
                "nodeType": 0
            },
            "55": {
                "invocation": {
                    "address": "0x0fd04a68d3c3a692d6fa30384d1a87ef93554ee6",
                    "callData": "0x00000000000000000000000074de5d4fcbf63e00296fd95d33236b9794016631",
                    "decodedMethod": {
                        "callParams": [
                            {
                                "name": "account_",
                                "type": "address",
                                "value": "0x74de5d4fcbf63e00296fd95d33236b9794016631"
                            }
                        ],
                        "constructorArguments": "",
                        "name": "balanceOf",
                        "returnParams": [
                            {
                                "decimalAvailable": true,
                                "name": "",
                                "type": "uint256",
                                "value": "0"
                            }
                        ],
                        "signature": "balanceOf(address)"
                    },
                    "errorInfo": "",
                    "fromAddress": "0x1151cb3d861920e07a38e03eead12c32178567f6",
                    "gasUsed": 648,
                    "id": 55,
                    "methodDecoded": true,
                    "operation": "DELEGATECALL",
                    "output": "0x0000000000000000000000000000000000000000000000000000000000000000",
                    "revert": true,
                    "revertMessage": "",
                    "selector": "0x70a08231",
                    "status": true,
                    "value": "0"
                },
                "nodeType": 0
            },
            "56": {
                "invocation": {
                    "address": "0xa0b86991c6218b36c1d19d4a2e9eb0ce3606eb48",
                    "callData": "0x00000000000000000000000074de5d4fcbf63e00296fd95d33236b9794016631",
                    "decodedMethod": {
                        "callParams": [
                            {
                                "name": "account",
                                "type": "address",
                                "value": "0x74de5d4fcbf63e00296fd95d33236b9794016631"
                            }
                        ],
                        "constructorArguments": "",
                        "name": "balanceOf",
                        "returnParams": [
                            {
                                "decimalAvailable": true,
                                "name": "",
                                "type": "uint256",
                                "value": "786,014,349"
                            }
                        ],
                        "signature": "balanceOf(address)"
                    },
                    "errorInfo": "",
                    "fromAddress": "0x74de5d4fcbf63e00296fd95d33236b9794016631",
                    "gasUsed": 1315,
                    "id": 56,
                    "methodDecoded": true,
                    "operation": "STATICCALL",
                    "output": "0x000000000000000000000000000000000000000000000000000000002ed9a08d",
                    "revert": true,
                    "revertMessage": "",
                    "selector": "0x70a08231",
                    "status": true,
                    "value": "0"
                },
                "nodeType": 0
            },
            "57": {
                "invocation": {
                    "address": "0xa2327a938febf5fec13bacfb16ae10ecbc4cbdcf",
                    "callData": "0x00000000000000000000000074de5d4fcbf63e00296fd95d33236b9794016631",
                    "decodedMethod": {
                        "callParams": [
                            {
                                "name": "account",
                                "type": "address",
                                "value": "0x74de5d4fcbf63e00296fd95d33236b9794016631"
                            }
                        ],
                        "constructorArguments": "",
                        "name": "balanceOf",
                        "returnParams": [
                            {
                                "decimalAvailable": true,
                                "name": "",
                                "type": "uint256",
                                "value": "786,014,349"
                            }
                        ],
                        "signature": "balanceOf(address)"
                    },
                    "errorInfo": "",
                    "fromAddress": "0xa0b86991c6218b36c1d19d4a2e9eb0ce3606eb48",
                    "gasUsed": 529,
                    "id": 57,
                    "methodDecoded": true,
                    "operation": "DELEGATECALL",
                    "output": "0x000000000000000000000000000000000000000000000000000000002ed9a08d",
                    "revert": true,
                    "revertMessage": "",
                    "selector": "0x70a08231",
                    "status": true,
                    "value": "0"
                },
                "nodeType": 0
            },
            "58": {
                "invocation": {
                    "address": "0xa0b86991c6218b36c1d19d4a2e9eb0ce3606eb48",
                    "callData": "0x000000000000000000000000022e0f309c2986bc7a4f663dc45a7858d9e358d6000000000000000000000000000000000000000000000000000000002ed9a08d",
                    "decodedMethod": {
                        "callParams": [
                            {
                                "name": "to",
                                "type": "address",
                                "value": "0x022e0f309c2986bc7a4f663dc45a7858d9e358d6"
                            },
                            {
                                "decimalAvailable": true,
                                "name": "value",
                                "type": "uint256",
                                "value": "786,014,349"
                            }
                        ],
                        "constructorArguments": "",
                        "name": "transfer",
                        "returnParams": [],
                        "signature": "transfer(address,uint256)"
                    },
                    "errorInfo": "execution reverted",
                    "fromAddress": "0x74de5d4fcbf63e00296fd95d33236b9794016631",
                    "gasUsed": 27725,
                    "id": 58,
                    "methodDecoded": true,
                    "operation": "CALL",
                    "output": "",
                    "revert": true,
                    "revertMessage": "",
                    "selector": "0xa9059cbb",
                    "status": false,
                    "value": "0"
                },
                "nodeType": 0
            },
            "59": {
                "invocation": {
                    "address": "0xa2327a938febf5fec13bacfb16ae10ecbc4cbdcf",
                    "callData": "0x000000000000000000000000022e0f309c2986bc7a4f663dc45a7858d9e358d6000000000000000000000000000000000000000000000000000000002ed9a08d",
                    "decodedMethod": {
                        "callParams": [
                            {
                                "name": "to",
                                "type": "address",
                                "value": "0x022e0f309c2986bc7a4f663dc45a7858d9e358d6"
                            },
                            {
                                "decimalAvailable": true,
                                "name": "value",
                                "type": "uint256",
                                "value": "786,014,349"
                            }
                        ],
                        "constructorArguments": "",
                        "name": "transfer",
                        "returnParams": [],
                        "signature": "transfer(address,uint256)"
                    },
                    "errorInfo": "out of gas",
                    "fromAddress": "0xa0b86991c6218b36c1d19d4a2e9eb0ce3606eb48",
                    "gasUsed": 26938,
                    "id": 59,
                    "methodDecoded": true,
                    "operation": "DELEGATECALL",
                    "output": "",
                    "revert": true,
                    "revertMessage": "",
                    "selector": "0xa9059cbb",
                    "status": false,
                    "value": "0"
                },
                "nodeType": 0
            },
            "6": {
                "event": {
                    "contract": "0x1151cb3d861920e07a38e03eead12c32178567f6",
                    "decodedLog": {
                        "name": "Approval",
                        "params": [
                            {
                                "name": "owner",
                                "type": "address",
                                "value": "0x022e0f309c2986bc7a4f663dc45a7858d9e358d6"
                            },
                            {
                                "name": "spender",
                                "type": "address",
                                "value": "0x881d40237659c251811cec9c364ef91dc08d300c"
                            },
                            {
                                "decimalAvailable": true,
                                "name": "value",
                                "type": "uint256",
                                "value": "115,792,089,237,316,195,423,570,985,008,687,907,853,269,984,665,640,564,039,457,584,004,073,453,287,691"
                            }
                        ],
                        "signature": "Approval(address,address,uint256)"
                    },
                    "id": 6,
                    "logData": "0xfffffffffffffffffffffffffffffffffffffffffffffffffffffc820174790b",
                    "logDecoded": true,
                    "operation": "EVENT",
                    "revert": true,
                    "status": false,
                    "topics": [
                        "0x8c5be1e5ebec7d5bd14f71427d1e84f3dd0314c0f7b2291e5b200ac8c7c3b925",
                        "0x000000000000000000000000022e0f309c2986bc7a4f663dc45a7858d9e358d6",
                        "0x000000000000000000000000881d40237659c251811cec9c364ef91dc08d300c"
                    ]
                },
                "nodeType": 1
            },
            "7": {
                "invocation": {
                    "address": "0x74de5d4fcbf63e00296fd95d33236b9794016631",
                    "callData": "0x0000000000000000000000007cdf68ce9a05413cbb76cb7f80eaf415a826e3130000000000000000000000000000000000000000000000000000000000000040000000000000000000000000000000000000000000000000000000000000022492f5f037000000000000000000000000022e0f309c2986bc7a4f663dc45a7858d9e358d60000000000000000000000001151cb3d861920e07a38e03eead12c32178567f6000000000000000000000000a0b86991c6218b36c1d19d4a2e9eb0ce3606eb480000000000000000000000000000000000000000000000000000037dfe8b86f4000000000000000000000000000000000000000000000000000000002e708c92000000000000000000000000000000000000000000000000000000000000012000000000000000000000000000000000000000000000000000000000006b15b20000000000000000000000002acf35c9a3f4c5c3f4c78ef5fb64c3ee82f07c45000000000000000000000000000000000000000000000000000000000000000100000000000000000000000000000000000000000000000000000000000000c8e449022e0000000000000000000000000000000000000000000000000000037dfe8b86f4000000000000000000000000000000000000000000000000000000002ed97dfe00000000000000000000000000000000000000000000000000000000000000600000000000000000000000000000000000000000000000000000000000000002000000000000000000000000403b1b747b1efb309070436c9ac99bf476f299ea8000000000000000000000008ad599c3a0ff1de082011efddc58f1908eb6e6d8ab4991fe00000000000000000000000000000000000000000000000000000000000000000000000000000000000000000000000000000000",
                    "decodedMethod": {
                        "callParams": [
                            {
                                "name": "adapter",
                                "type": "address",
                                "value": "0x7cdf68ce9a05413cbb76cb7f80eaf415a826e313"
                            },
                            {
                                "name": "data",
                                "type": "bytes",
                                "value": "0x92f5f037000000000000000000000000022e0f309c2986bc7a4f663dc45a7858d9e358d60000000000000000000000001151cb3d861920e07a38e03eead12c32178567f6000000000000000000000000a0b86991c6218b36c1d19d4a2e9eb0ce3606eb480000000000000000000000000000000000000000000000000000037dfe8b86f4000000000000000000000000000000000000000000000000000000002e708c92000000000000000000000000000000000000000000000000000000000000012000000000000000000000000000000000000000000000000000000000006b15b20000000000000000000000002acf35c9a3f4c5c3f4c78ef5fb64c3ee82f07c45000000000000000000000000000000000000000000000000000000000000000100000000000000000000000000000000000000000000000000000000000000c8e449022e0000000000000000000000000000000000000000000000000000037dfe8b86f4000000000000000000000000000000000000000000000000000000002ed97dfe00000000000000000000000000000000000000000000000000000000000000600000000000000000000000000000000000000000000000000000000000000002000000000000000000000000403b1b747b1efb309070436c9ac99bf476f299ea8000000000000000000000008ad599c3a0ff1de082011efddc58f1908eb6e6d8ab4991fe000000000000000000000000000000000000000000000000"
                            }
                        ],
                        "constructorArguments": "",
                        "name": "swap",
                        "returnParams": [],
                        "signature": "swap(address,bytes)"
                    },
                    "errorInfo": "execution reverted",
                    "fromAddress": "0x881d40237659c251811cec9c364ef91dc08d300c",
                    "gasUsed": 237257,
                    "id": 7,
                    "methodDecoded": true,
                    "operation": "CALL",
                    "output": "0x08c379a0000000000000000000000000000000000000000000000000000000000000002000000000000000000000000000000000000000000000000000000000000000205361666545524332303a206c6f772d6c6576656c2063616c6c206661696c6564",
                    "revert": true,
                    "revertMessage": "SafeERC20: low-level call failed",
                    "selector": "0xe3547335",
                    "status": false,
                    "value": "0"
                },
                "nodeType": 0
            },
            "8": {
                "invocation": {
                    "address": "0x7cdf68ce9a05413cbb76cb7f80eaf415a826e313",
                    "callData": "0x000000000000000000000000022e0f309c2986bc7a4f663dc45a7858d9e358d60000000000000000000000001151cb3d861920e07a38e03eead12c32178567f6000000000000000000000000a0b86991c6218b36c1d19d4a2e9eb0ce3606eb480000000000000000000000000000000000000000000000000000037dfe8b86f4000000000000000000000000000000000000000000000000000000002e708c92000000000000000000000000000000000000000000000000000000000000012000000000000000000000000000000000000000000000000000000000006b15b20000000000000000000000002acf35c9a3f4c5c3f4c78ef5fb64c3ee82f07c45000000000000000000000000000000000000000000000000000000000000000100000000000000000000000000000000000000000000000000000000000000c8e449022e0000000000000000000000000000000000000000000000000000037dfe8b86f4000000000000000000000000000000000000000000000000000000002ed97dfe00000000000000000000000000000000000000000000000000000000000000600000000000000000000000000000000000000000000000000000000000000002000000000000000000000000403b1b747b1efb309070436c9ac99bf476f299ea8000000000000000000000008ad599c3a0ff1de082011efddc58f1908eb6e6d8ab4991fe000000000000000000000000000000000000000000000000",
                    "decodedMethod": null,
                    "errorInfo": "execution reverted",
                    "fromAddress": "0x74de5d4fcbf63e00296fd95d33236b9794016631",
                    "gasUsed": 232073,
                    "id": 8,
                    "methodDecoded": false,
                    "operation": "DELEGATECALL",
                    "output": "0x08c379a0000000000000000000000000000000000000000000000000000000000000002000000000000000000000000000000000000000000000000000000000000000205361666545524332303a206c6f772d6c6576656c2063616c6c206661696c6564",
                    "revert": true,
                    "revertMessage": "SafeERC20: low-level call failed",
                    "selector": "0x92f5f037",
                    "status": false,
                    "value": "0"
                },
                "nodeType": 0
            },
            "9": {
                "invocation": {
                    "address": "0x1151cb3d861920e07a38e03eead12c32178567f6",
                    "callData": "0x00000000000000000000000074de5d4fcbf63e00296fd95d33236b97940166310000000000000000000000001111111254eeb25477b68fb85ed929f73a960582",
                    "decodedMethod": {
                        "callParams": [
                            {
                                "name": "owner",
                                "type": "address",
                                "value": "0x74de5d4fcbf63e00296fd95d33236b9794016631"
                            },
                            {
                                "name": "spender",
                                "type": "address",
                                "value": "0x1111111254eeb25477b68fb85ed929f73a960582"
                            }
                        ],
                        "constructorArguments": "",
                        "name": "allowance",
                        "returnParams": [
                            {
                                "decimalAvailable": true,
                                "name": "",
                                "type": "uint256",
                                "value": "115,792,089,237,316,195,423,570,985,008,687,907,853,269,984,665,640,564,039,457,574,444,910,760,232,702"
                            }
                        ],
                        "signature": "allowance(address,address)"
                    },
                    "errorInfo": "",
                    "fromAddress": "0x74de5d4fcbf63e00296fd95d33236b9794016631",
                    "gasUsed": 4634,
                    "id": 9,
                    "methodDecoded": true,
                    "operation": "STATICCALL",
                    "output": "0xffffffffffffffffffffffffffffffffffffffffffffffffffde068000c906fe",
                    "revert": true,
                    "revertMessage": "",
                    "selector": "0xdd62ed3e",
                    "status": true,
                    "value": "0"
                },
                "nodeType": 0
            }
        },
        "gasFlame": [
            {
                "children": [
                    {
                        "children": [
                            {
                                "children": [],
                                "depth": 0,
                                "name": "Initial Gas",
                                "value": 26284
                            },
                            {
                                "children": [
                                    {
                                        "children": [
                                            {
                                                "children": [
                                                    {
                                                        "children": [],
                                                        "depth": 3,
                                                        "name": "implementation",
                                                        "value": 2459
                                                    }
                                                ],
                                                "depth": 2,
                                                "name": "implementation",
                                                "value": 7354
                                            },
                                            {
                                                "children": [],
                                                "depth": 2,
                                                "name": "transferFrom",
                                                "value": 37463
                                            }
                                        ],
                                        "depth": 1,
                                        "name": "transferFrom",
                                        "value": 52742
                                    },
                                    {
                                        "children": [
                                            {
                                                "children": [
                                                    {
                                                        "children": [
                                                            {
                                                                "children": [
                                                                    {
                                                                        "children": [],
                                                                        "depth": 5,
                                                                        "name": "implementation",
                                                                        "value": 459
                                                                    }
                                                                ],
                                                                "depth": 4,
                                                                "name": "implementation",
                                                                "value": 854
                                                            },
                                                            {
                                                                "children": [],
                                                                "depth": 4,
                                                                "name": "allowance",
                                                                "value": 2858
                                                            }
                                                        ],
                                                        "depth": 3,
                                                        "name": "allowance",
                                                        "value": 4634
                                                    },
                                                    {
                                                        "children": [
                                                            {
                                                                "children": [
                                                                    {
                                                                        "children": [],
                                                                        "depth": 5,
                                                                        "name": "transfer",
                                                                        "value": 12862
                                                                    },
                                                                    {
                                                                        "children": [
                                                                            {
                                                                                "children": [
                                                                                    {
                                                                                        "children": [],
                                                                                        "depth": 7,
                                                                                        "name": "implementation",
                                                                                        "value": 459
                                                                                    }
                                                                                ],
                                                                                "depth": 6,
                                                                                "name": "implementation",
                                                                                "value": 854
                                                                            },
                                                                            {
                                                                                "children": [],
                                                                                "depth": 6,
                                                                                "name": "balanceOf",
                                                                                "value": 2648
                                                                            }
                                                                        ],
                                                                        "depth": 5,
                                                                        "name": "balanceOf",
                                                                        "value": 4421
                                                                    },
                                                                    {
                                                                        "children": [
                                                                            {
                                                                                "children": [],
                                                                                "depth": 6,
                                                                                "name": "token0",
                                                                                "value": 266
                                                                            },
                                                                            {
                                                                                "children": [],
                                                                                "depth": 6,
                                                                                "name": "token1",
                                                                                "value": 308
                                                                            },
                                                                            {
                                                                                "children": [],
                                                                                "depth": 6,
                                                                                "name": "fee",
                                                                                "value": 251
                                                                            },
                                                                            {
                                                                                "children": [
                                                                                    {
                                                                                        "children": [
                                                                                            {
                                                                                                "children": [],
                                                                                                "depth": 8,
                                                                                                "name": "implementation",
                                                                                                "value": 459
                                                                                            }
                                                                                        ],
                                                                                        "depth": 7,
                                                                                        "name": "implementation",
                                                                                        "value": 854
                                                                                    },
                                                                                    {
                                                                                        "children": [],
                                                                                        "depth": 7,
                                                                                        "name": "transferFrom",
                                                                                        "value": 11563
                                                                                    }
                                                                                ],
                                                                                "depth": 6,
                                                                                "name": "transferFrom",
                                                                                "value": 13342
                                                                            }
                                                                        ],
                                                                        "depth": 5,
                                                                        "name": "uniswapV3SwapCallback",
                                                                        "value": 15809
                                                                    },
                                                                    {
                                                                        "children": [
                                                                            {
                                                                                "children": [
                                                                                    {
                                                                                        "children": [],
                                                                                        "depth": 7,
                                                                                        "name": "implementation",
                                                                                        "value": 459
                                                                                    }
                                                                                ],
                                                                                "depth": 6,
                                                                                "name": "implementation",
                                                                                "value": 854
                                                                            },
                                                                            {
                                                                                "children": [],
                                                                                "depth": 6,
                                                                                "name": "balanceOf",
                                                                                "value": 648
                                                                            }
                                                                        ],
                                                                        "depth": 5,
                                                                        "name": "balanceOf",
                                                                        "value": 2421
                                                                    }
                                                                ],
                                                                "depth": 4,
                                                                "name": "swap",
                                                                "value": 77341
                                                            },
                                                            {
                                                                "children": [
                                                                    {
                                                                        "children": [
                                                                            {
                                                                                "children": [],
                                                                                "depth": 6,
                                                                                "name": "transfer",
                                                                                "value": 36728
                                                                            }
                                                                        ],
                                                                        "depth": 5,
                                                                        "name": "transfer",
                                                                        "value": 44017
                                                                    },
                                                                    {
                                                                        "children": [],
                                                                        "depth": 5,
                                                                        "name": "balanceOf",
                                                                        "value": 2534
                                                                    },
                                                                    {
                                                                        "children": [
                                                                            {
                                                                                "children": [],
                                                                                "depth": 6,
                                                                                "name": "token0",
                                                                                "value": 266
                                                                            },
                                                                            {
                                                                                "children": [],
                                                                                "depth": 6,
                                                                                "name": "token1",
                                                                                "value": 308
                                                                            },
                                                                            {
                                                                                "children": [],
                                                                                "depth": 6,
                                                                                "name": "fee",
                                                                                "value": 251
                                                                            },
                                                                            {
                                                                                "children": [],
                                                                                "depth": 6,
                                                                                "name": "transfer",
                                                                                "value": 6062
                                                                            }
                                                                        ],
                                                                        "depth": 5,
                                                                        "name": "uniswapV3SwapCallback",
                                                                        "value": 8519
                                                                    },
                                                                    {
                                                                        "children": [],
                                                                        "depth": 5,
                                                                        "name": "balanceOf",
                                                                        "value": 534
                                                                    }
                                                                ],
                                                                "depth": 4,
                                                                "name": "swap",
                                                                "value": 89119
                                                            }
                                                        ],
                                                        "depth": 3,
                                                        "name": "uniswapV3Swap",
                                                        "value": 175040
                                                    },
                                                    {
                                                        "children": [
                                                            {
                                                                "children": [],
                                                                "depth": 4,
                                                                "name": "transfer",
                                                                "value": 10828
                                                            }
                                                        ],
                                                        "depth": 3,
                                                        "name": "transfer",
                                                        "value": 11617
                                                    },
                                                    {
                                                        "children": [
                                                            {
                                                                "children": [
                                                                    {
                                                                        "children": [],
                                                                        "depth": 5,
                                                                        "name": "implementation",
                                                                        "value": 459
                                                                    }
                                                                ],
                                                                "depth": 4,
                                                                "name": "implementation",
                                                                "value": 854
                                                            },
                                                            {
                                                                "children": [],
                                                                "depth": 4,
                                                                "name": "balanceOf",
                                                                "value": 648
                                                            }
                                                        ],
                                                        "depth": 3,
                                                        "name": "balanceOf",
                                                        "value": 2421
                                                    },
                                                    {
                                                        "children": [
                                                            {
                                                                "children": [],
                                                                "depth": 4,
                                                                "name": "balanceOf",
                                                                "value": 529
                                                            }
                                                        ],
                                                        "depth": 3,
                                                        "name": "balanceOf",
                                                        "value": 1315
                                                    },
                                                    {
                                                        "children": [
                                                            {
                                                                "children": [],
                                                                "depth": 4,
                                                                "name": "transfer",
                                                                "value": 26938
                                                            }
                                                        ],
                                                        "depth": 3,
                                                        "name": "transfer",
                                                        "value": 27725
                                                    }
                                                ],
                                                "depth": 2,
                                                "name": "0x92f5f037",
                                                "value": 232073
                                            }
                                        ],
                                        "depth": 1,
                                        "name": "swap",
                                        "value": 237257
                                    }
                                ],
                                "depth": 0,
                                "name": "Executed Gas",
                                "value": 311276
                            }
                        ],
                        "depth": -1,
                        "name": "Actual Gas Used",
                        "value": 337560
                    },
                    {
                        "children": [],
                        "depth": -1,
                        "name": "Refunded Gas",
                        "value": 0
                    }
                ],
                "depth": -2,
                "name": "Total Gas",
                "value": 337560
            }
        ],
        "isConfirmed": true,
        "mainTrace": [
            {
                "children": [
                    {
                        "children": [
                            {
                                "children": [
                                    {
                                        "children": [
                                            {
                                                "children": [],
                                                "depth": 3,
                                                "id": 3,
                                                "order": 3
                                            }
                                        ],
                                        "depth": 2,
                                        "id": 2,
                                        "order": 2
                                    },
                                    {
                                        "children": [
                                            {
                                                "children": [],
                                                "depth": 3,
                                                "id": 5,
                                                "order": 5
                                            },
                                            {
                                                "children": [],
                                                "depth": 3,
                                                "id": 6,
                                                "order": 6
                                            }
                                        ],
                                        "depth": 2,
                                        "id": 4,
                                        "order": 4
                                    }
                                ],
                                "depth": 1,
                                "id": 1,
                                "order": 1
                            },
                            {
                                "children": [
                                    {
                                        "children": [
                                            {
                                                "children": [
                                                    {
                                                        "children": [
                                                            {
                                                                "children": [],
                                                                "depth": 5,
                                                                "id": 11,
                                                                "order": 11
                                                            }
                                                        ],
                                                        "depth": 4,
                                                        "id": 10,
                                                        "order": 10
                                                    },
                                                    {
                                                        "children": [],
                                                        "depth": 4,
                                                        "id": 12,
                                                        "order": 12
                                                    }
                                                ],
                                                "depth": 3,
                                                "id": 9,
                                                "order": 9
                                            },
                                            {
                                                "children": [
                                                    {
                                                        "children": [
                                                            {
                                                                "children": [
                                                                    {
                                                                        "children": [],
                                                                        "depth": 6,
                                                                        "id": 16,
                                                                        "order": 16
                                                                    }
                                                                ],
                                                                "depth": 5,
                                                                "id": 15,
                                                                "order": 15
                                                            },
                                                            {
                                                                "children": [
                                                                    {
                                                                        "children": [
                                                                            {
                                                                                "children": [],
                                                                                "depth": 7,
                                                                                "id": 19,
                                                                                "order": 19
                                                                            }
                                                                        ],
                                                                        "depth": 6,
                                                                        "id": 18,
                                                                        "order": 18
                                                                    },
                                                                    {
                                                                        "children": [],
                                                                        "depth": 6,
                                                                        "id": 20,
                                                                        "order": 20
                                                                    }
                                                                ],
                                                                "depth": 5,
                                                                "id": 17,
                                                                "order": 17
                                                            },
                                                            {
                                                                "children": [
                                                                    {
                                                                        "children": [],
                                                                        "depth": 6,
                                                                        "id": 22,
                                                                        "order": 22
                                                                    },
                                                                    {
                                                                        "children": [],
                                                                        "depth": 6,
                                                                        "id": 23,
                                                                        "order": 23
                                                                    },
                                                                    {
                                                                        "children": [],
                                                                        "depth": 6,
                                                                        "id": 24,
                                                                        "order": 24
                                                                    },
                                                                    {
                                                                        "children": [
                                                                            {
                                                                                "children": [
                                                                                    {
                                                                                        "children": [],
                                                                                        "depth": 8,
                                                                                        "id": 27,
                                                                                        "order": 27
                                                                                    }
                                                                                ],
                                                                                "depth": 7,
                                                                                "id": 26,
                                                                                "order": 26
                                                                            },
                                                                            {
                                                                                "children": [
                                                                                    {
                                                                                        "children": [],
                                                                                        "depth": 8,
                                                                                        "id": 29,
                                                                                        "order": 29
                                                                                    },
                                                                                    {
                                                                                        "children": [],
                                                                                        "depth": 8,
                                                                                        "id": 30,
                                                                                        "order": 30
                                                                                    }
                                                                                ],
                                                                                "depth": 7,
                                                                                "id": 28,
                                                                                "order": 28
                                                                            }
                                                                        ],
                                                                        "depth": 6,
                                                                        "id": 25,
                                                                        "order": 25
                                                                    }
                                                                ],
                                                                "depth": 5,
                                                                "id": 21,
                                                                "order": 21
                                                            },
                                                            {
                                                                "children": [
                                                                    {
                                                                        "children": [
                                                                            {
                                                                                "children": [],
                                                                                "depth": 7,
                                                                                "id": 33,
                                                                                "order": 33
                                                                            }
                                                                        ],
                                                                        "depth": 6,
                                                                        "id": 32,
                                                                        "order": 32
                                                                    },
                                                                    {
                                                                        "children": [],
                                                                        "depth": 6,
                                                                        "id": 34,
                                                                        "order": 34
                                                                    }
                                                                ],
                                                                "depth": 5,
                                                                "id": 31,
                                                                "order": 31
                                                            },
                                                            {
                                                                "children": [],
                                                                "depth": 5,
                                                                "id": 35,
                                                                "order": 35
                                                            }
                                                        ],
                                                        "depth": 4,
                                                        "id": 14,
                                                        "order": 14
                                                    },
                                                    {
                                                        "children": [
                                                            {
                                                                "children": [
                                                                    {
                                                                        "children": [
                                                                            {
                                                                                "children": [],
                                                                                "depth": 7,
                                                                                "id": 39,
                                                                                "order": 39
                                                                            }
                                                                        ],
                                                                        "depth": 6,
                                                                        "id": 38,
                                                                        "order": 38
                                                                    }
                                                                ],
                                                                "depth": 5,
                                                                "id": 37,
                                                                "order": 37
                                                            },
                                                            {
                                                                "children": [],
                                                                "depth": 5,
                                                                "id": 40,
                                                                "order": 40
                                                            },
                                                            {
                                                                "children": [
                                                                    {
                                                                        "children": [],
                                                                        "depth": 6,
                                                                        "id": 42,
                                                                        "order": 42
                                                                    },
                                                                    {
                                                                        "children": [],
                                                                        "depth": 6,
                                                                        "id": 43,
                                                                        "order": 43
                                                                    },
                                                                    {
                                                                        "children": [],
                                                                        "depth": 6,
                                                                        "id": 44,
                                                                        "order": 44
                                                                    },
                                                                    {
                                                                        "children": [
                                                                            {
                                                                                "children": [],
                                                                                "depth": 7,
                                                                                "id": 46,
                                                                                "order": 46
                                                                            }
                                                                        ],
                                                                        "depth": 6,
                                                                        "id": 45,
                                                                        "order": 45
                                                                    }
                                                                ],
                                                                "depth": 5,
                                                                "id": 41,
                                                                "order": 41
                                                            },
                                                            {
                                                                "children": [],
                                                                "depth": 5,
                                                                "id": 47,
                                                                "order": 47
                                                            },
                                                            {
                                                                "children": [],
                                                                "depth": 5,
                                                                "id": 48,
                                                                "order": 48
                                                            }
                                                        ],
                                                        "depth": 4,
                                                        "id": 36,
                                                        "order": 36
                                                    }
                                                ],
                                                "depth": 3,
                                                "id": 13,
                                                "order": 13
                                            },
                                            {
                                                "children": [
                                                    {
                                                        "children": [
                                                            {
                                                                "children": [],
                                                                "depth": 5,
                                                                "id": 51,
                                                                "order": 51
                                                            }
                                                        ],
                                                        "depth": 4,
                                                        "id": 50,
                                                        "order": 50
                                                    }
                                                ],
                                                "depth": 3,
                                                "id": 49,
                                                "order": 49
                                            },
                                            {
                                                "children": [
                                                    {
                                                        "children": [
                                                            {
                                                                "children": [],
                                                                "depth": 5,
                                                                "id": 54,
                                                                "order": 54
                                                            }
                                                        ],
                                                        "depth": 4,
                                                        "id": 53,
                                                        "order": 53
                                                    },
                                                    {
                                                        "children": [],
                                                        "depth": 4,
                                                        "id": 55,
                                                        "order": 55
                                                    }
                                                ],
                                                "depth": 3,
                                                "id": 52,
                                                "order": 52
                                            },
                                            {
                                                "children": [
                                                    {
                                                        "children": [],
                                                        "depth": 4,
                                                        "id": 57,
                                                        "order": 57
                                                    }
                                                ],
                                                "depth": 3,
                                                "id": 56,
                                                "order": 56
                                            },
                                            {
                                                "children": [
                                                    {
                                                        "children": [],
                                                        "depth": 4,
                                                        "id": 59,
                                                        "order": 59
                                                    }
                                                ],
                                                "depth": 3,
                                                "id": 58,
                                                "order": 58
                                            }
                                        ],
                                        "depth": 2,
                                        "id": 8,
                                        "order": 8
                                    }
                                ],
                                "depth": 1,
                                "id": 7,
                                "order": 7
                            }
                        ],
                        "depth": 0,
                        "id": 0,
                        "order": 0
                    }
                ],
                "depth": -1,
                "id": -1,
                "order": -1
            }
        ],
        "mainTraceNodeCount": 60,
        "parentIdMap": {
            "0": -1,
            "1": 0,
            "10": 9,
            "11": 10,
            "12": 9,
            "13": 8,
            "14": 13,
            "15": 14,
            "16": 15,
            "17": 14,
            "18": 17,
            "19": 18,
            "2": 1,
            "20": 17,
            "21": 14,
            "22": 21,
            "23": 21,
            "24": 21,
            "25": 21,
            "26": 25,
            "27": 26,
            "28": 25,
            "29": 28,
            "3": 2,
            "30": 28,
            "31": 14,
            "32": 31,
            "33": 32,
            "34": 31,
            "35": 14,
            "36": 13,
            "37": 36,
            "38": 37,
            "39": 38,
            "4": 1,
            "40": 36,
            "41": 36,
            "42": 41,
            "43": 41,
            "44": 41,
            "45": 41,
            "46": 45,
            "47": 36,
            "48": 36,
            "49": 8,
            "5": 4,
            "50": 49,
            "51": 50,
            "52": 8,
            "53": 52,
            "54": 53,
            "55": 52,
            "56": 8,
            "57": 56,
            "58": 8,
            "59": 58,
            "6": 4,
            "7": 0,
            "8": 7,
            "9": 8
        },
        "tidyTrace": [
            {
                "children": [
                    {
                        "children": [
                            {
                                "children": [
                                    {
                                        "children": [
                                            {
                                                "children": [],
                                                "depth": 3,
                                                "id": 5,
                                                "order": 5
                                            },
                                            {
                                                "children": [],
                                                "depth": 3,
                                                "id": 6,
                                                "order": 6
                                            }
                                        ],
                                        "depth": 2,
                                        "id": 4,
                                        "order": 4
                                    }
                                ],
                                "depth": 1,
                                "id": 1,
                                "order": 1
                            },
                            {
                                "children": [
                                    {
                                        "children": [
                                            {
                                                "children": [
                                                    {
                                                        "children": [
                                                            {
                                                                "children": [
                                                                    {
                                                                        "children": [],
                                                                        "depth": 6,
                                                                        "id": 16,
                                                                        "order": 16
                                                                    }
                                                                ],
                                                                "depth": 5,
                                                                "id": 15,
                                                                "order": 15
                                                            },
                                                            {
                                                                "children": [
                                                                    {
                                                                        "children": [
                                                                            {
                                                                                "children": [
                                                                                    {
                                                                                        "children": [],
                                                                                        "depth": 8,
                                                                                        "id": 29,
                                                                                        "order": 29
                                                                                    },
                                                                                    {
                                                                                        "children": [],
                                                                                        "depth": 8,
                                                                                        "id": 30,
                                                                                        "order": 30
                                                                                    }
                                                                                ],
                                                                                "depth": 7,
                                                                                "id": 28,
                                                                                "order": 28
                                                                            }
                                                                        ],
                                                                        "depth": 6,
                                                                        "id": 25,
                                                                        "order": 25
                                                                    }
                                                                ],
                                                                "depth": 5,
                                                                "id": 21,
                                                                "order": 21
                                                            },
                                                            {
                                                                "children": [],
                                                                "depth": 5,
                                                                "id": 35,
                                                                "order": 35
                                                            }
                                                        ],
                                                        "depth": 4,
                                                        "id": 14,
                                                        "order": 14
                                                    },
                                                    {
                                                        "children": [
                                                            {
                                                                "children": [
                                                                    {
                                                                        "children": [
                                                                            {
                                                                                "children": [],
                                                                                "depth": 7,
                                                                                "id": 39,
                                                                                "order": 39
                                                                            }
                                                                        ],
                                                                        "depth": 6,
                                                                        "id": 38,
                                                                        "order": 38
                                                                    }
                                                                ],
                                                                "depth": 5,
                                                                "id": 37,
                                                                "order": 37
                                                            },
                                                            {
                                                                "children": [
                                                                    {
                                                                        "children": [
                                                                            {
                                                                                "children": [],
                                                                                "depth": 7,
                                                                                "id": 46,
                                                                                "order": 46
                                                                            }
                                                                        ],
                                                                        "depth": 6,
                                                                        "id": 45,
                                                                        "order": 45
                                                                    }
                                                                ],
                                                                "depth": 5,
                                                                "id": 41,
                                                                "order": 41
                                                            },
                                                            {
                                                                "children": [],
                                                                "depth": 5,
                                                                "id": 48,
                                                                "order": 48
                                                            }
                                                        ],
                                                        "depth": 4,
                                                        "id": 36,
                                                        "order": 36
                                                    }
                                                ],
                                                "depth": 3,
                                                "id": 13,
                                                "order": 13
                                            },
                                            {
                                                "children": [
                                                    {
                                                        "children": [
                                                            {
                                                                "children": [],
                                                                "depth": 5,
                                                                "id": 51,
                                                                "order": 51
                                                            }
                                                        ],
                                                        "depth": 4,
                                                        "id": 50,
                                                        "order": 50
                                                    }
                                                ],
                                                "depth": 3,
                                                "id": 49,
                                                "order": 49
                                            },
                                            {
                                                "children": [
                                                    {
                                                        "children": [],
                                                        "depth": 4,
                                                        "id": 59,
                                                        "order": 59
                                                    }
                                                ],
                                                "depth": 3,
                                                "id": 58,
                                                "order": 58
                                            }
                                        ],
                                        "depth": 2,
                                        "id": 8,
                                        "order": 8
                                    }
                                ],
                                "depth": 1,
                                "id": 7,
                                "order": 7
                            }
                        ],
                        "depth": 0,
                        "id": 0,
                        "order": 0
                    }
                ],
                "depth": -1,
                "id": -1,
                "order": -1
            }
        ],
        "tidyTraceNodeCount": 30
    },
    "state_change": {
        "stateChanges": []
    }
}