{
    "balance_change": {
        "balanceChanges": []
    },
    "profile": {
        "basic_info": {
            "baseFee": "",
            "blockNumber": 4935619,
            "callData": "0x454a2ab30000000000000000000000000000000000000000000000000000000000020879",
            "debugEnable": true,
            "errorInfo": "execution reverted",
            "eventCount": 0,
            "feeRecipient": "0x829bd824b016326a401d083b33d092293333a830",
            "formatValue": "0.002041065564814815",
            "gasLimit": 135963,
            "gasPrice": "19",
            "gasUsed": 23800,
            "intTxnCount": 0,
            "internalRevert": false,
            "internalRevertMessage": "",
            "isContractCreation": false,
            "isFlashloan": false,
            "maxFee": "",
            "nonce": 3,
            "overwritedBlockNumber": -1,
            "priorityFee": "",
            "receiver": "0xb1690c08e213a35ed9bab7b318de14420fb57d8c",
            "revertMessage": "",
            "sender": "0x282e40d7c30f0e4e4b323a37828c5a3c7e1995e3",
            "simulationEnable": true,
            "sourceTxnHash": "0x08713a91728677e929f8a46a7f65a8cad77e596af9ef3d0d71cc3189879eaa83",
            "status": false,
            "timestamp": "2018-01-19T16:14:16Z",
            "transactionFee": "0.0004522",
            "txnHash": "0x08713a91728677e929f8a46a7f65a8cad77e596af9ef3d0d71cc3189879eaa83",
            "txnIndex": 177,
            "type": 0,
            "value": "2041065564814815"
        },
        "fund_flow": [],
        "token_infos": [
            {
                "address": "0xc02aaa39b223fe8d0a0e5c4f27ead9083c756cc2",
                "decimals": 18
            },
            {
                "address": "0xeeeeeeeeeeeeeeeeeeeeeeeeeeeeeeeeeeeeeeee",
                "decimals": 18
            }
        ]
    },
    "address_label": {
        "labels": [
            {
                "address": "0x0000000000000000000000000000000000000003",
                "label": "Precompiled"
            },
            {
                "address": "0x0000000000000000000000000000000000000004",
                "label": "Precompiled"
            },
            {
                "address": "0xeeeeeeeeeeeeeeeeeeeeeeeeeeeeeeeeeeeeeeee",
                "label": "Ether"
            },
            {
                "address": "0xb1690c08e213a35ed9bab7b318de14420fb57d8c",
                "label": "SaleClockAuction"
            },
            {
                "address": "0x0000000000000000000000000000000000000001",
                "label": "Precompiled"
            },
            {
                "address": "0x0000000000000000000000000000000000000002",
                "label": "Precompiled"
            }
        ]
    },
    "trace": {
        "accountLabels": null,
        "dataMap": {
            "-1": {
                "invocation": {
                    "address": "0x282e40d7c30f0e4e4b323a37828c5a3c7e1995e3",
                    "callData": "",
                    "decodedMethod": null,
                    "errorInfo": "",
                    "fromAddress": "",
                    "gasUsed": 0,
                    "id": -1,
                    "methodDecoded": false,
                    "operation": "",
                    "output": "",
                    "revert": false,
                    "revertMessage": "",
                    "selector": "",
                    "status": false,
                    "value": ""
                },
                "nodeType": 0
            },
            "0": {
                "invocation": {
                    "address": "0xb1690c08e213a35ed9bab7b318de14420fb57d8c",
                    "callData": "0x0000000000000000000000000000000000000000000000000000000000020879",
                    "decodedMethod": {
                        "callParams": [
                            {
                                "name": "_tokenId",
                                "type": "uint256",
                                "value": "133,241"
                            }
                        ],
                        "constructorArguments": "",
                        "name": "bid",
                        "returnParams": [],
                        "signature": "bid(uint256)"
                    },
                    "errorInfo": "execution reverted",
                    "fromAddress": "0x282e40d7c30f0e4e4b323a37828c5a3c7e1995e3",
                    "gasUsed": 23800,
                    "id": 0,
                    "methodDecoded": true,
                    "operation": "CALL",
                    "output": "",
                    "revert": true,
                    "revertMessage": "",
                    "selector": "0x454a2ab3",
                    "status": false,
                    "value": "0.002041065564814815"
                },
                "nodeType": 0
            }
        },
        "gasFlame": [
            {
                "children": [
                    {
                        "children": [
                            {
                                "children": [],
                                "depth": 0,
                                "name": "Initial Gas",
                                "value": 21592
                            },
                            {
                                "children": [],
                                "depth": 0,
                                "name": "Executed Gas",
                                "value": 2208
                            }
                        ],
                        "depth": -1,
                        "name": "Actual Gas Used",
                        "value": 23800
                    },
                    {
                        "children": [],
                        "depth": -1,
                        "name": "Refunded Gas",
                        "value": 0
                    }
                ],
                "depth": -2,
                "name": "Total Gas",
                "value": 23800
            }
        ],
        "isConfirmed": true,
        "mainTrace": [
            {
                "children": [
                    {
                        "children": [],
                        "depth": 0,
                        "id": 0,
                        "order": 0
                    }
                ],
                "depth": -1,
                "id": -1,
                "order": -1
            }
        ],
        "mainTraceNodeCount": 1,
        "parentIdMap": {
            "0": -1
        },
        "tidyTrace": [
            {
                "children": [
                    {
                        "children": [],
                        "depth": 0,
                        "id": 0,
                        "order": 0
                    }
                ],
                "depth": -1,
                "id": -1,
                "order": -1
            }
        ],
        "tidyTraceNodeCount": 1
    },
    "state_change": {
        "stateChanges": []
    }
}