{
    "balance_change": {
        "balanceChanges": []
    },
    "profile": {
        "basic_info": {
            "baseFee": "",
            "blockNumber": 1978622,
            "callData": "0x90fa337d000000000000000000000000000000000000000000000000000000000000006000000000000000000000000000000000000000000000000000038d7ea4c6800000000000000000000000000001a23fd30aabf5ad53bab3093dcd4948e15cec800000000000000000000000000000000000000000000000000000000000000050000000205f03b0d5c48b7913c7bdb6981a9f09e3b1feb18305b782020000000000000000a749840c1790a5e838b0894729cf2ab346cc6ce46ffe668063895e11ead08c262a589c576926051838de405600000000000000000000000000000000",
            "debugEnable": true,
            "errorInfo": "",
            "eventCount": 1,
            "feeRecipient": "0x61c808d82a3ac53231750dadc13c777b59310bd9",
            "formatValue": "0",
            "gasLimit": 1200000,
            "gasPrice": "20",
            "gasUsed": 221214,
            "intTxnCount": 7,
            "internalRevert": false,
            "internalRevertMessage": "",
            "isContractCreation": false,
            "isFlashloan": false,
            "maxFee": "",
            "nonce": 16383,
            "overwritedBlockNumber": -1,
            "priorityFee": "",
            "receiver": "0x41f274c0023f83391de4e0733c609df5a124c3d4",
            "revertMessage": "",
            "sender": "0xac4361f56c82ed59d533d45129f407015d84702a",
            "simulationEnable": true,
            "sourceTxnHash": "0x0812c171b92b008b4b32db1df02409dafb8b8d2cd794b96bde9148886a97ec5c",
            "status": true,
            "timestamp": "2016-07-30T07:37:01Z",
            "transactionFee": "0.00442428",
            "txnHash": "0x0812c171b92b008b4b32db1df02409dafb8b8d2cd794b96bde9148886a97ec5c",
            "txnIndex": 1,
            "type": 0,
            "value": "0"
        },
        "fund_flow": [],
        "token_infos": [
            {
                "address": "0xc02aaa39b223fe8d0a0e5c4f27ead9083c756cc2",
                "decimals": 18
            },
            {
                "address": "0xeeeeeeeeeeeeeeeeeeeeeeeeeeeeeeeeeeeeeeee",
                "decimals": 18
            }
        ]
    },
    "address_label": {
        "labels": [
            {
                "address": "0x0000000000000000000000000000000000000003",
                "label": "Precompiled"
            },
            {
                "address": "0xeeeeeeeeeeeeeeeeeeeeeeeeeeeeeeeeeeeeeeee",
                "label": "Ether"
            },
            {
                "address": "0x41f274c0023f83391de4e0733c609df5a124c3d4",
                "label": "BTCRelay"
            },
            {
                "address": "0x0000000000000000000000000000000000000002",
                "label": "Precompiled"
            },
            {
                "address": "0x0000000000000000000000000000000000000004",
                "label": "Precompiled"
            },
            {
                "address": "0x0000000000000000000000000000000000000001",
                "label": "Precompiled"
            }
        ]
    },
    "trace": {
        "accountLabels": null,
        "dataMap": {
            "-1": {
                "invocation": {
                    "address": "0xac4361f56c82ed59d533d45129f407015d84702a",
                    "callData": "",
                    "decodedMethod": null,
                    "errorInfo": "",
                    "fromAddress": "",
                    "gasUsed": 0,
                    "id": -1,
                    "methodDecoded": false,
                    "operation": "",
                    "output": "",
                    "revert": false,
                    "revertMessage": "",
                    "selector": "",
                    "status": false,
                    "value": ""
                },
                "nodeType": 0
            },
            "0": {
                "invocation": {
                    "address": "0x41f274c0023f83391de4e0733c609df5a124c3d4",
                    "callData": "0x000000000000000000000000000000000000000000000000000000000000006000000000000000000000000000000000000000000000000000038d7ea4c6800000000000000000000000000001a23fd30aabf5ad53bab3093dcd4948e15cec800000000000000000000000000000000000000000000000000000000000000050000000205f03b0d5c48b7913c7bdb6981a9f09e3b1feb18305b782020000000000000000a749840c1790a5e838b0894729cf2ab346cc6ce46ffe668063895e11ead08c262a589c576926051838de405600000000000000000000000000000000",
                    "decodedMethod": null,
                    "errorInfo": "",
                    "fromAddress": "0xac4361f56c82ed59d533d45129f407015d84702a",
                    "gasUsed": 221214,
                    "id": 0,
                    "methodDecoded": false,
                    "operation": "CALL",
                    "output": "0x00000000000000000000000000000000000000000000000000000000000673c5",
                    "revert": false,
                    "revertMessage": "",
                    "selector": "0x90fa337d",
                    "status": true,
                    "value": "0"
                },
                "nodeType": 0
            },
            "1": {
                "invocation": {
                    "address": "0x0000000000000000000000000000000000000004",
                    "callData": "0x0000000000000000000000000000000000000000000000000000000000000020",
                    "decodedMethod": {
                        "callParams": [
                            {
                                "name": "data",
                                "type": "bytes",
                                "value": "0x2b8616290000000000000000000000000000000000000000000000000000000000000020"
                            }
                        ],
                        "constructorArguments": "",
                        "name": "dataCopy()",
                        "returnParams": [
                            {
                                "name": "data",
                                "type": "bytes",
                                "value": "0x2b8616290000000000000000000000000000000000000000000000000000000000000020"
                            }
                        ],
                        "signature": "dataCopy(bytes)"
                    },
                    "errorInfo": "",
                    "fromAddress": "0x41f274c0023f83391de4e0733c609df5a124c3d4",
                    "gasUsed": 21,
                    "id": 1,
                    "methodDecoded": true,
                    "operation": "CALL",
                    "output": "0x2b8616290000000000000000000000000000000000000000000000000000000000000020",
                    "revert": false,
                    "revertMessage": "",
                    "selector": "0x2b861629",
                    "status": true,
                    "value": "0"
                },
                "nodeType": 0
            },
            "2": {
                "invocation": {
                    "address": "0x0000000000000000000000000000000000000004",
                    "callData": "0x00000000000000000000000000000000000000000000000000000050000000205f03b0d5c48b7913c7bdb6981a9f09e3b1feb18305b782020000000000000000a749840c1790a5e838b0894729cf2ab346cc6ce46ffe668063895e11ead08c262a589c576926051838de405600000000000000000000000000000000",
                    "decodedMethod": {
                        "callParams": [
                            {
                                "name": "data",
                                "type": "bytes",
                                "value": "0x0000000000000000000000000000000000000000000000000000000000000050000000205f03b0d5c48b7913c7bdb6981a9f09e3b1feb18305b782020000000000000000a749840c1790a5e838b0894729cf2ab346cc6ce46ffe668063895e11ead08c262a589c576926051838de405600000000000000000000000000000000"
                            }
                        ],
                        "constructorArguments": "",
                        "name": "dataCopy()",
                        "returnParams": [
                            {
                                "name": "data",
                                "type": "bytes",
                                "value": "0x0000000000000000000000000000000000000000000000000000000000000050000000205f03b0d5c48b7913c7bdb6981a9f09e3b1feb18305b782020000000000000000a749840c1790a5e838b0894729cf2ab346cc6ce46ffe668063895e11ead08c262a589c576926051838de405600000000000000000000000000000000"
                            }
                        ],
                        "signature": "dataCopy(bytes)"
                    },
                    "errorInfo": "",
                    "fromAddress": "0x41f274c0023f83391de4e0733c609df5a124c3d4",
                    "gasUsed": 27,
                    "id": 2,
                    "methodDecoded": true,
                    "operation": "CALL",
                    "output": "0x0000000000000000000000000000000000000000000000000000000000000050000000205f03b0d5c48b7913c7bdb6981a9f09e3b1feb18305b782020000000000000000a749840c1790a5e838b0894729cf2ab346cc6ce46ffe668063895e11ead08c262a589c576926051838de405600000000000000000000000000000000",
                    "revert": false,
                    "revertMessage": "",
                    "selector": "0x00000000",
                    "status": true,
                    "value": "0"
                },
                "nodeType": 0
            },
            "3": {
                "invocation": {
                    "address": "0x41f274c0023f83391de4e0733c609df5a124c3d4",
                    "callData": "0x00000000000000000000000000000000000000000000000000000000000000200000000000000000000000000000000000000000000000000000000000000050000000205f03b0d5c48b7913c7bdb6981a9f09e3b1feb18305b782020000000000000000a749840c1790a5e838b0894729cf2ab346cc6ce46ffe668063895e11ead08c262a589c576926051838de405600000000000000000000000000000000",
                    "decodedMethod": {
                        "callParams": [
                            {
                                "name": "header",
                                "type": "bytes",
                                "value": "0x000000205f03b0d5c48b7913c7bdb6981a9f09e3b1feb18305b782020000000000000000a749840c1790a5e838b0894729cf2ab346cc6ce46ffe668063895e11ead08c262a589c576926051838de4056"
                            }
                        ],
                        "constructorArguments": "",
                        "name": "storeBlockHeader",
                        "returnParams": [
                            {
                                "name": "",
                                "type": "uint256",
                                "value": "422,853"
                            }
                        ],
                        "signature": "storeBlockHeader(bytes)"
                    },
                    "errorInfo": "",
                    "fromAddress": "0x41f274c0023f83391de4e0733c609df5a124c3d4",
                    "gasUsed": 162521,
                    "id": 3,
                    "methodDecoded": true,
                    "operation": "CALL",
                    "output": "0x00000000000000000000000000000000000000000000000000000000000673c5",
                    "revert": false,
                    "revertMessage": "",
                    "selector": "0x2b861629",
                    "status": true,
                    "value": "0"
                },
                "nodeType": 0
            },
            "4": {
                "invocation": {
                    "address": "0x0000000000000000000000000000000000000002",
                    "callData": "0x5f03b0d5c48b7913c7bdb6981a9f09e3b1feb18305b782020000000000000000a749840c1790a5e838b0894729cf2ab346cc6ce46ffe668063895e11ead08c262a589c576926051838de4056",
                    "decodedMethod": {
                        "callParams": [
                            {
                                "name": "data",
                                "type": "bytes",
                                "value": "0x000000205f03b0d5c48b7913c7bdb6981a9f09e3b1feb18305b782020000000000000000a749840c1790a5e838b0894729cf2ab346cc6ce46ffe668063895e11ead08c262a589c576926051838de4056"
                            }
                        ],
                        "constructorArguments": "",
                        "name": "sha256hash",
                        "returnParams": [
                            {
                                "name": "hash",
                                "type": "bytes32",
                                "value": "0xafa4c6587b41e2876f5b6b21c94da2b54a6121313d6487c3c76560785dbfba08"
                            }
                        ],
                        "signature": "sha256hash(bytes)"
                    },
                    "errorInfo": "",
                    "fromAddress": "0x41f274c0023f83391de4e0733c609df5a124c3d4",
                    "gasUsed": 96,
                    "id": 4,
                    "methodDecoded": true,
                    "operation": "CALL",
                    "output": "0xafa4c6587b41e2876f5b6b21c94da2b54a6121313d6487c3c76560785dbfba08",
                    "revert": false,
                    "revertMessage": "",
                    "selector": "0x00000020",
                    "status": true,
                    "value": "0"
                },
                "nodeType": 0
            },
            "5": {
                "invocation": {
                    "address": "0x0000000000000000000000000000000000000002",
                    "callData": "0x7b41e2876f5b6b21c94da2b54a6121313d6487c3c76560785dbfba08",
                    "decodedMethod": {
                        "callParams": [
                            {
                                "name": "data",
                                "type": "bytes",
                                "value": "0xafa4c6587b41e2876f5b6b21c94da2b54a6121313d6487c3c76560785dbfba08"
                            }
                        ],
                        "constructorArguments": "",
                        "name": "sha256hash",
                        "returnParams": [
                            {
                                "name": "hash",
                                "type": "bytes32",
                                "value": "0x6ebe8af46b9314074d6f50d3d55f7ad870f72633cc39b4020000000000000000"
                            }
                        ],
                        "signature": "sha256hash(bytes)"
                    },
                    "errorInfo": "",
                    "fromAddress": "0x41f274c0023f83391de4e0733c609df5a124c3d4",
                    "gasUsed": 72,
                    "id": 5,
                    "methodDecoded": true,
                    "operation": "CALL",
                    "output": "0x6ebe8af46b9314074d6f50d3d55f7ad870f72633cc39b4020000000000000000",
                    "revert": false,
                    "revertMessage": "",
                    "selector": "0xafa4c658",
                    "status": true,
                    "value": "0"
                },
                "nodeType": 0
            },
            "6": {
                "event": {
                    "contract": "0x41f274c0023f83391de4e0733c609df5a124c3d4",
                    "decodedLog": null,
                    "id": 6,
                    "logData": "0x",
                    "logDecoded": false,
                    "operation": "EVENT",
                    "revert": false,
                    "status": true,
                    "topics": [
                        "0x055e4f8dd3a534789b3feb8e0681afa2aee8713fdd6472f25b2c30dc7bf4e0f4",
                        "0x000000000000000002b439cc3326f770d87a5fd5d3506f4d0714936bf48abe6e",
                        "0x00000000000000000000000000000000000000000000000000000000000673c5"
                    ]
                },
                "nodeType": 1
            },
            "7": {
                "invocation": {
                    "address": "0x0000000000000000000000000000000000000002",
                    "callData": "0x5f03b0d5c48b7913c7bdb6981a9f09e3b1feb18305b782020000000000000000a749840c1790a5e838b0894729cf2ab346cc6ce46ffe668063895e11ead08c262a589c576926051838de4056",
                    "decodedMethod": {
                        "callParams": [
                            {
                                "name": "data",
                                "type": "bytes",
                                "value": "0x000000205f03b0d5c48b7913c7bdb6981a9f09e3b1feb18305b782020000000000000000a749840c1790a5e838b0894729cf2ab346cc6ce46ffe668063895e11ead08c262a589c576926051838de4056"
                            }
                        ],
                        "constructorArguments": "",
                        "name": "sha256hash",
                        "returnParams": [
                            {
                                "name": "hash",
                                "type": "bytes32",
                                "value": "0xafa4c6587b41e2876f5b6b21c94da2b54a6121313d6487c3c76560785dbfba08"
                            }
                        ],
                        "signature": "sha256hash(bytes)"
                    },
                    "errorInfo": "",
                    "fromAddress": "0x41f274c0023f83391de4e0733c609df5a124c3d4",
                    "gasUsed": 96,
                    "id": 7,
                    "methodDecoded": true,
                    "operation": "CALL",
                    "output": "0xafa4c6587b41e2876f5b6b21c94da2b54a6121313d6487c3c76560785dbfba08",
                    "revert": false,
                    "revertMessage": "",
                    "selector": "0x00000020",
                    "status": true,
                    "value": "0"
                },
                "nodeType": 0
            },
            "8": {
                "invocation": {
                    "address": "0x0000000000000000000000000000000000000002",
                    "callData": "0x7b41e2876f5b6b21c94da2b54a6121313d6487c3c76560785dbfba08",
                    "decodedMethod": {
                        "callParams": [
                            {
                                "name": "data",
                                "type": "bytes",
                                "value": "0xafa4c6587b41e2876f5b6b21c94da2b54a6121313d6487c3c76560785dbfba08"
                            }
                        ],
                        "constructorArguments": "",
                        "name": "sha256hash",
                        "returnParams": [
                            {
                                "name": "hash",
                                "type": "bytes32",
                                "value": "0x6ebe8af46b9314074d6f50d3d55f7ad870f72633cc39b4020000000000000000"
                            }
                        ],
                        "signature": "sha256hash(bytes)"
                    },
                    "errorInfo": "",
                    "fromAddress": "0x41f274c0023f83391de4e0733c609df5a124c3d4",
                    "gasUsed": 72,
                    "id": 8,
                    "methodDecoded": true,
                    "operation": "CALL",
                    "output": "0x6ebe8af46b9314074d6f50d3d55f7ad870f72633cc39b4020000000000000000",
                    "revert": false,
                    "revertMessage": "",
                    "selector": "0xafa4c658",
                    "status": true,
                    "value": "0"
                },
                "nodeType": 0
            }
        },
        "gasFlame": [
            {
                "children": [
                    {
                        "children": [
                            {
                                "children": [],
                                "depth": 0,
                                "name": "Initial Gas",
                                "value": 28376
                            },
                            {
                                "children": [
                                    {
                                        "children": [],
                                        "depth": 1,
                                        "name": "dataCopy()",
                                        "value": 21
                                    },
                                    {
                                        "children": [],
                                        "depth": 1,
                                        "name": "dataCopy()",
                                        "value": 27
                                    },
                                    {
                                        "children": [
                                            {
                                                "children": [],
                                                "depth": 2,
                                                "name": "sha256hash",
                                                "value": 96
                                            },
                                            {
                                                "children": [],
                                                "depth": 2,
                                                "name": "sha256hash",
                                                "value": 72
                                            }
                                        ],
                                        "depth": 1,
                                        "name": "storeBlockHeader",
                                        "value": 162521
                                    },
                                    {
                                        "children": [],
                                        "depth": 1,
                                        "name": "sha256hash",
                                        "value": 96
                                    },
                                    {
                                        "children": [],
                                        "depth": 1,
                                        "name": "sha256hash",
                                        "value": 72
                                    }
                                ],
                                "depth": 0,
                                "name": "Executed Gas",
                                "value": 192838
                            }
                        ],
                        "depth": -1,
                        "name": "Actual Gas Used",
                        "value": 221214
                    },
                    {
                        "children": [],
                        "depth": -1,
                        "name": "Refunded Gas",
                        "value": 0
                    }
                ],
                "depth": -2,
                "name": "Total Gas",
                "value": 221214
            }
        ],
        "isConfirmed": true,
        "mainTrace": [
            {
                "children": [
                    {
                        "children": [
                            {
                                "children": [],
                                "depth": 1,
                                "id": 1,
                                "order": 1
                            },
                            {
                                "children": [],
                                "depth": 1,
                                "id": 2,
                                "order": 2
                            },
                            {
                                "children": [
                                    {
                                        "children": [],
                                        "depth": 2,
                                        "id": 4,
                                        "order": 4
                                    },
                                    {
                                        "children": [],
                                        "depth": 2,
                                        "id": 5,
                                        "order": 5
                                    },
                                    {
                                        "children": [],
                                        "depth": 2,
                                        "id": 6,
                                        "order": 6
                                    }
                                ],
                                "depth": 1,
                                "id": 3,
                                "order": 3
                            },
                            {
                                "children": [],
                                "depth": 1,
                                "id": 7,
                                "order": 7
                            },
                            {
                                "children": [],
                                "depth": 1,
                                "id": 8,
                                "order": 8
                            }
                        ],
                        "depth": 0,
                        "id": 0,
                        "order": 0
                    }
                ],
                "depth": -1,
                "id": -1,
                "order": -1
            }
        ],
        "mainTraceNodeCount": 9,
        "parentIdMap": {
            "0": -1,
            "1": 0,
            "2": 0,
            "3": 0,
            "4": 3,
            "5": 3,
            "6": 3,
            "7": 0,
            "8": 0
        },
        "tidyTrace": [
            {
                "children": [
                    {
                        "children": [
                            {
                                "children": [],
                                "depth": 1,
                                "id": 1,
                                "order": 1
                            },
                            {
                                "children": [],
                                "depth": 1,
                                "id": 2,
                                "order": 2
                            },
                            {
                                "children": [
                                    {
                                        "children": [],
                                        "depth": 2,
                                        "id": 4,
                                        "order": 4
                                    },
                                    {
                                        "children": [],
                                        "depth": 2,
                                        "id": 5,
                                        "order": 5
                                    },
                                    {
                                        "children": [],
                                        "depth": 2,
                                        "id": 6,
                                        "order": 6
                                    }
                                ],
                                "depth": 1,
                                "id": 3,
                                "order": 3
                            },
                            {
                                "children": [],
                                "depth": 1,
                                "id": 7,
                                "order": 7
                            },
                            {
                                "children": [],
                                "depth": 1,
                                "id": 8,
                                "order": 8
                            }
                        ],
                        "depth": 0,
                        "id": 0,
                        "order": 0
                    }
                ],
                "depth": -1,
                "id": -1,
                "order": -1
            }
        ],
        "tidyTraceNodeCount": 9
    },
    "state_change": {
        "stateChanges": [
            {
                "address": "0x41f274c0023f83391de4e0733c609df5a124c3d4",
                "erc": "",
                "slots": [
                    {
                        "current": "0x00000000a749840c1790a5e838b0894729cf2ab346cc6ce46ffe668063895e11",
                        "key": "0x13a90bedd20344cf4ce8c163e126598d528d18f07e51e856907e573dd376ba0f",
                        "prev": "0x0000000000000000000000000000000000000000000000000000000000000000"
                    },
                    {
                        "current": "0x000000000000000002b439cc3326f770d87a5fd5d3506f4d0714936bf48abe6e",
                        "key": "0x0000000000000000000000000000000000000000000000000000000000003d0f",
                        "prev": "0x0000000000000000000000000000000000000000000000000000000000000000"
                    },
                    {
                        "current": "0x0000000000000000000000000000000000000000000000000000000000003d10",
                        "key": "0x0000000000000000000000000000000000000000000000000004000000000000",
                        "prev": "0x0000000000000000000000000000000000000000000000000000000000003d0f"
                    },
                    {
                        "current": "0xead08c262a589c576926051838de405600000000000000000000000000000000",
                        "key": "0x13a90bedd20344cf4ce8c163e126598d528d18f07e51e856907e573dd376ba10",
                        "prev": "0x0000000000000000000000000000000000000000000000000000000000000000"
                    },
                    {
                        "current": "0x000000000000000002b439cc3326f770d87a5fd5d3506f4d0714936bf48abe6e",
                        "key": "0x0000000000000000000000000000000000000000000000000004000000000002",
                        "prev": "0x00000000000000000282b70583b1feb1e3099f1a98b6bdc713798bc4d5b0035f"
                    },
                    {
                        "current": "0x000000000000000000000000000000000000000000165dec4c037f29dab68ad2",
                        "key": "0x0000000000000000000000000000000000000000000000000004000000000003",
                        "prev": "0x000000000000000000000000000000000000000000165dec4c037ef82591805f"
                    },
                    {
                        "current": "0x000000205f03b0d5c48b7913c7bdb6981a9f09e3b1feb18305b7820200000000",
                        "key": "0x13a90bedd20344cf4ce8c163e126598d528d18f07e51e856907e573dd376ba0e",
                        "prev": "0x0000000000000000000000000000000000000000000000000000000000000000"
                    },
                    {
                        "current": "0x01a23fd30aabf5ad53bab3093dcd4948e15cec800000000000038d7ea4c68000",
                        "key": "0x898eadd5d4cffb1003d5e912475d3bafcf34e55610fddbe0e67081fd2dbfcde4",
                        "prev": "0x0000000000000000000000000000000000000000000000000000000000000000"
                    },
                    {
                        "current": "0x00003d0e00003d0c00003d0c00003ca800003bad0000393c0000393c00000000",
                        "key": "0x3ad46c76fce518d5be49abe430be1c5ad6ef4e4a296d8f3751a6094093623b11",
                        "prev": "0x0000000000000000000000000000000000000000000000000000000000000000"
                    },
                    {
                        "current": "0x00000000000673c50000000000003d0f0000000000165dec4c037f29dab68ad2",
                        "key": "0x0846f88d463f48e07b04e6efbd53a147f77acc5f5e2410ced30676d9dca16144",
                        "prev": "0x0000000000000000000000000000000000000000000000000000000000000000"
                    }
                ],
                "storageVariables": []
            }
        ]
    }
}