{
    "balance_change": {
        "balanceChanges": [
            {
                "account": "0xf216b0afc1d9676772d58bb232c58835efc1e75d",
                "assets": [
                    {
                        "address": "0xcdcfc0f66c522fd086a1b725ea3c0eeb9f9e8814",
                        "amount": "36.8872",
                        "iconUrl": "https://assets.blocksec.com/icon/47c94fab31d148348663026ac14c5820455f599d59c403cf39812230e0c53a1e.png",
                        "isERC1155": false,
                        "isERC721": false,
                        "sign": false,
                        "value": ""
                    }
                ]
            },
            {
                "account": "0x4beb5eed5a0db667cff1b772fd83d966025dc90b",
                "assets": [
                    {
                        "address": "0xcdcfc0f66c522fd086a1b725ea3c0eeb9f9e8814",
                        "amount": "36.8872",
                        "iconUrl": "https://assets.blocksec.com/icon/47c94fab31d148348663026ac14c5820455f599d59c403cf39812230e0c53a1e.png",
                        "isERC1155": false,
                        "isERC721": false,
                        "sign": true,
                        "value": ""
                    }
                ]
            }
        ]
    },
    "profile": {
        "basic_info": {
            "baseFee": "",
            "blockNumber": 5781561,
            "callData": "0xa9059cbb0000000000000000000000004beb5eed5a0db667cff1b772fd83d966025dc90b000000000000000000000000000000000000000000000001ffe9a8f696ca0000",
            "debugEnable": true,
            "errorInfo": "",
            "eventCount": 1,
            "feeRecipient": "0x829bd824b016326a401d083b33d092293333a830",
            "formatValue": "0",
            "gasLimit": 100000,
            "gasPrice": "5",
            "gasUsed": 53269,
            "intTxnCount": 0,
            "internalRevert": false,
            "internalRevertMessage": "",
            "isContractCreation": false,
            "isFlashloan": false,
            "maxFee": "",
            "nonce": 23618,
            "overwritedBlockNumber": -1,
            "priorityFee": "",
            "receiver": "0xcdcfc0f66c522fd086a1b725ea3c0eeb9f9e8814",
            "revertMessage": "",
            "sender": "0xf216b0afc1d9676772d58bb232c58835efc1e75d",
            "simulationEnable": true,
            "sourceTxnHash": "0x085d5a7600dfe2b1a722a4b5ef3636fa49499c1535d56036e2439a01d63eb78c",
            "status": true,
            "timestamp": "2018-06-13T12:12:13Z",
            "transactionFee": "0.000266345",
            "txnHash": "0x085d5a7600dfe2b1a722a4b5ef3636fa49499c1535d56036e2439a01d63eb78c",
            "txnIndex": 117,
            "type": 0,
            "value": "0"
        },
        "fund_flow": [
            {
                "amount": "36.8872",
                "from": "0xf216b0afc1d9676772d58bb232c58835efc1e75d",
                "id": 1,
                "isERC1155": false,
                "isERC721": false,
                "isReverted": false,
                "order": 1,
                "to": "0x4beb5eed5a0db667cff1b772fd83d966025dc90b",
                "token": "0xcdcfc0f66c522fd086a1b725ea3c0eeb9f9e8814"
            }
        ],
        "token_infos": [
            {
                "address": "0xc02aaa39b223fe8d0a0e5c4f27ead9083c756cc2",
                "decimals": 18
            },
            {
                "address": "0xcdcfc0f66c522fd086a1b725ea3c0eeb9f9e8814",
                "decimals": 18
            },
            {
                "address": "0xeeeeeeeeeeeeeeeeeeeeeeeeeeeeeeeeeeeeeeee",
                "decimals": 18
            }
        ]
    },
    "address_label": {
        "labels": [
            {
                "address": "0xeeeeeeeeeeeeeeeeeeeeeeeeeeeeeeeeeeeeeeee",
                "label": "Ether"
            },
            {
                "address": "0xcdcfc0f66c522fd086a1b725ea3c0eeb9f9e8814",
                "label": "Aurora DAO: Old Token"
            },
            {
                "address": "0x0000000000000000000000000000000000000001",
                "label": "Precompiled"
            },
            {
                "address": "0x0000000000000000000000000000000000000002",
                "label": "Precompiled"
            },
            {
                "address": "0x0000000000000000000000000000000000000003",
                "label": "Precompiled"
            },
            {
                "address": "0x0000000000000000000000000000000000000004",
                "label": "Precompiled"
            }
        ]
    },
    "trace": {
        "accountLabels": null,
        "dataMap": {
            "-1": {
                "invocation": {
                    "address": "0xf216b0afc1d9676772d58bb232c58835efc1e75d",
                    "callData": "",
                    "decodedMethod": null,
                    "errorInfo": "",
                    "fromAddress": "",
                    "gasUsed": 0,
                    "id": -1,
                    "methodDecoded": false,
                    "operation": "",
                    "output": "",
                    "revert": false,
                    "revertMessage": "",
                    "selector": "",
                    "status": false,
                    "value": ""
                },
                "nodeType": 0
            },
            "0": {
                "invocation": {
                    "address": "0xcdcfc0f66c522fd086a1b725ea3c0eeb9f9e8814",
                    "callData": "0x0000000000000000000000004beb5eed5a0db667cff1b772fd83d966025dc90b000000000000000000000000000000000000000000000001ffe9a8f696ca0000",
                    "decodedMethod": {
                        "callParams": [
                            {
                                "name": "_to",
                                "type": "address",
                                "value": "0x4beb5eed5a0db667cff1b772fd83d966025dc90b"
                            },
                            {
                                "decimalAvailable": true,
                                "name": "_value",
                                "type": "uint256",
                                "value": "36,887,200,000,000,000,000"
                            }
                        ],
                        "constructorArguments": "",
                        "name": "transfer",
                        "returnParams": [
                            {
                                "name": "success",
                                "type": "bool",
                                "value": true
                            }
                        ],
                        "signature": "transfer(address,uint256)"
                    },
                    "errorInfo": "",
                    "fromAddress": "0xf216b0afc1d9676772d58bb232c58835efc1e75d",
                    "gasUsed": 53269,
                    "id": 0,
                    "methodDecoded": true,
                    "operation": "CALL",
                    "output": "0x0000000000000000000000000000000000000000000000000000000000000001",
                    "revert": false,
                    "revertMessage": "",
                    "selector": "0xa9059cbb",
                    "status": true,
                    "value": "0"
                },
                "nodeType": 0
            },
            "1": {
                "event": {
                    "contract": "0xcdcfc0f66c522fd086a1b725ea3c0eeb9f9e8814",
                    "decodedLog": {
                        "name": "Transfer",
                        "params": [
                            {
                                "name": "from",
                                "type": "address",
                                "value": "0xf216b0afc1d9676772d58bb232c58835efc1e75d"
                            },
                            {
                                "name": "to",
                                "type": "address",
                                "value": "0x4beb5eed5a0db667cff1b772fd83d966025dc90b"
                            },
                            {
                                "decimalAvailable": true,
                                "name": "value",
                                "type": "uint256",
                                "value": "36,887,200,000,000,000,000"
                            }
                        ],
                        "signature": "Transfer(address,address,uint256)"
                    },
                    "id": 1,
                    "logData": "0x000000000000000000000000000000000000000000000001ffe9a8f696ca0000",
                    "logDecoded": true,
                    "operation": "EVENT",
                    "revert": false,
                    "status": true,
                    "topics": [
                        "0xddf252ad1be2c89b69c2b068fc378daa952ba7f163c4a11628f55a4df523b3ef",
                        "0x000000000000000000000000f216b0afc1d9676772d58bb232c58835efc1e75d",
                        "0x0000000000000000000000004beb5eed5a0db667cff1b772fd83d966025dc90b"
                    ]
                },
                "nodeType": 1
            }
        },
        "gasFlame": [
            {
                "children": [
                    {
                        "children": [
                            {
                                "children": [],
                                "depth": 0,
                                "name": "Initial Gas",
                                "value": 23256
                            },
                            {
                                "children": [],
                                "depth": 0,
                                "name": "Executed Gas",
                                "value": 30013
                            }
                        ],
                        "depth": -1,
                        "name": "Actual Gas Used",
                        "value": 53269
                    },
                    {
                        "children": [],
                        "depth": -1,
                        "name": "Refunded Gas",
                        "value": 0
                    }
                ],
                "depth": -2,
                "name": "Total Gas",
                "value": 53269
            }
        ],
        "isConfirmed": true,
        "mainTrace": [
            {
                "children": [
                    {
                        "children": [
                            {
                                "children": [],
                                "depth": 1,
                                "id": 1,
                                "order": 1
                            }
                        ],
                        "depth": 0,
                        "id": 0,
                        "order": 0
                    }
                ],
                "depth": -1,
                "id": -1,
                "order": -1
            }
        ],
        "mainTraceNodeCount": 2,
        "parentIdMap": {
            "0": -1,
            "1": 0
        },
        "tidyTrace": [
            {
                "children": [
                    {
                        "children": [
                            {
                                "children": [],
                                "depth": 1,
                                "id": 1,
                                "order": 1
                            }
                        ],
                        "depth": 0,
                        "id": 0,
                        "order": 0
                    }
                ],
                "depth": -1,
                "id": -1,
                "order": -1
            }
        ],
        "tidyTraceNodeCount": 2
    },
    "state_change": {
        "stateChanges": [
            {
                "address": "0xcdcfc0f66c522fd086a1b725ea3c0eeb9f9e8814",
                "erc": "",
                "slots": [
                    {
                        "current": "0x000000000000000000000000000000000000000000000001ffe9a8f696ca0000",
                        "key": "0x0ec4d313e068d2ea0698e143b3815e04f01ef2d6791081860fe5cadb95e73db4",
                        "prev": "0x0000000000000000000000000000000000000000000000000000000000000000"
                    },
                    {
                        "current": "0x000000000000000000000000000000000000000000001601b8ae3584f56a8000",
                        "key": "0x39eba9af98cc847d3a4c64d138174b91a9824c05cf8c3cbb27d0987cb30a6093",
                        "prev": "0x000000000000000000000000000000000000000000001603b897de7b8c348000"
                    }
                ],
                "storageVariables": [
                    {
                        "name": "balanceOf",
                        "type": "mapping(address => uint256)",
                        "value": {
                            "pairs": [
                                {
                                    "key": "0x4beb5eed5a0db667cff1b772fd83d966025dc90b",
                                    "value": {
                                        "current": "36887200000000000000",
                                        "prev": "0",
                                        "typeTag": 1
                                    }
                                },
                                {
                                    "key": "0xf216b0afc1d9676772d58bb232c58835efc1e75d",
                                    "value": {
                                        "current": "103923817000000000000000",
                                        "prev": "103960704200000000000000",
                                        "typeTag": 1
                                    }
                                }
                            ],
                            "typeTag": 4
                        }
                    }
                ]
            }
        ]
    }
}