{
    "balance_change": {
        "balanceChanges": []
    },
    "profile": {
        "basic_info": {
            "baseFee": "",
            "blockNumber": 5576246,
            "callData": "0xe4f20fb2000000000000000000000000fb07e258d0e7b352f3a3a16eed03257d120945350000000000000000000000000000000000000000000000070c1cc73b00c80000",
            "debugEnable": true,
            "errorInfo": "",
            "eventCount": 0,
            "feeRecipient": "0xea674fdde714fd979de3edf0f56aa9716b898ec8",
            "formatValue": "0",
            "gasLimit": 115000,
            "gasPrice": "15",
            "gasUsed": 69220,
            "intTxnCount": 1,
            "internalRevert": false,
            "internalRevertMessage": "",
            "isContractCreation": false,
            "isFlashloan": false,
            "maxFee": "",
            "nonce": 9686,
            "overwritedBlockNumber": -1,
            "priorityFee": "",
            "receiver": "0xb51088f5f37286b5c3462043200a0ce9aee71459",
            "revertMessage": "",
            "sender": "0xef61bdd3730e2a710e4028bed38bff7f8efabc33",
            "simulationEnable": true,
            "sourceTxnHash": "0x08b314f7c4c6bccbe065470192dac3eb19fc0ff04536cff613565b46b1181ba4",
            "status": true,
            "timestamp": "2018-05-08T05:47:55Z",
            "transactionFee": "0.0010383",
            "txnHash": "0x08b314f7c4c6bccbe065470192dac3eb19fc0ff04536cff613565b46b1181ba4",
            "txnIndex": 47,
            "type": 0,
            "value": "0"
        },
        "fund_flow": [],
        "token_infos": [
            {
                "address": "0xc02aaa39b223fe8d0a0e5c4f27ead9083c756cc2",
                "decimals": 18
            },
            {
                "address": "0xeeeeeeeeeeeeeeeeeeeeeeeeeeeeeeeeeeeeeeee",
                "decimals": 18
            }
        ]
    },
    "address_label": {
        "labels": [
            {
                "address": "0x0000000000000000000000000000000000000001",
                "label": "Precompiled"
            },
            {
                "address": "0x0000000000000000000000000000000000000002",
                "label": "Precompiled"
            },
            {
                "address": "0x0000000000000000000000000000000000000003",
                "label": "Precompiled"
            },
            {
                "address": "0x0000000000000000000000000000000000000004",
                "label": "Precompiled"
            },
            {
                "address": "0xeeeeeeeeeeeeeeeeeeeeeeeeeeeeeeeeeeeeeeee",
                "label": "Ether"
            },
            {
                "address": "0xf3b3cad094b89392fce5fafd40bc03b80f2bc624",
                "label": "PATRON (PAT)"
            },
            {
                "address": "0xb51088f5f37286b5c3462043200a0ce9aee71459",
                "label": "Crowdsale"
            }
        ]
    },
    "trace": {
        "accountLabels": null,
        "dataMap": {
            "-1": {
                "invocation": {
                    "address": "0xef61bdd3730e2a710e4028bed38bff7f8efabc33",
                    "callData": "",
                    "decodedMethod": null,
                    "errorInfo": "",
                    "fromAddress": "",
                    "gasUsed": 0,
                    "id": -1,
                    "methodDecoded": false,
                    "operation": "",
                    "output": "",
                    "revert": false,
                    "revertMessage": "",
                    "selector": "",
                    "status": false,
                    "value": ""
                },
                "nodeType": 0
            },
            "0": {
                "invocation": {
                    "address": "0xb51088f5f37286b5c3462043200a0ce9aee71459",
                    "callData": "0x000000000000000000000000fb07e258d0e7b352f3a3a16eed03257d120945350000000000000000000000000000000000000000000000070c1cc73b00c80000",
                    "decodedMethod": {
                        "callParams": [
                            {
                                "name": "_to",
                                "type": "address",
                                "value": "0xfb07e258d0e7b352f3a3a16eed03257d12094535"
                            },
                            {
                                "name": "_amount",
                                "type": "uint256",
                                "value": "130,000,000,000,000,000,000"
                            }
                        ],
                        "constructorArguments": "",
                        "name": "mintPresale",
                        "returnParams": [],
                        "signature": "mintPresale(address,uint256)"
                    },
                    "errorInfo": "",
                    "fromAddress": "0xef61bdd3730e2a710e4028bed38bff7f8efabc33",
                    "gasUsed": 69220,
                    "id": 0,
                    "methodDecoded": true,
                    "operation": "CALL",
                    "output": "",
                    "revert": false,
                    "revertMessage": "",
                    "selector": "0xe4f20fb2",
                    "status": true,
                    "value": "0"
                },
                "nodeType": 0
            },
            "1": {
                "invocation": {
                    "address": "0xf3b3cad094b89392fce5fafd40bc03b80f2bc624",
                    "callData": "0x000000000000000000000000fb07e258d0e7b352f3a3a16eed03257d120945350000000000000000000000000000000000000000000000070c1cc73b00c80000",
                    "decodedMethod": {
                        "callParams": [
                            {
                                "name": "_to",
                                "type": "address",
                                "value": "0xfb07e258d0e7b352f3a3a16eed03257d12094535"
                            },
                            {
                                "name": "_amount",
                                "type": "uint256",
                                "value": "130,000,000,000,000,000,000"
                            }
                        ],
                        "constructorArguments": "",
                        "name": "mint",
                        "returnParams": [
                            {
                                "name": "",
                                "type": "bool",
                                "value": true
                            }
                        ],
                        "signature": "mint(address,uint256)"
                    },
                    "errorInfo": "",
                    "fromAddress": "0xb51088f5f37286b5c3462043200a0ce9aee71459",
                    "gasUsed": 26844,
                    "id": 1,
                    "methodDecoded": true,
                    "operation": "CALL",
                    "output": "0x0000000000000000000000000000000000000000000000000000000000000001",
                    "revert": false,
                    "revertMessage": "",
                    "selector": "0x40c10f19",
                    "status": true,
                    "value": "0"
                },
                "nodeType": 0
            }
        },
        "gasFlame": [
            {
                "children": [
                    {
                        "children": [
                            {
                                "children": [],
                                "depth": 0,
                                "name": "Initial Gas",
                                "value": 23192
                            },
                            {
                                "children": [
                                    {
                                        "children": [],
                                        "depth": 1,
                                        "name": "mint",
                                        "value": 26844
                                    }
                                ],
                                "depth": 0,
                                "name": "Executed Gas",
                                "value": 61028
                            }
                        ],
                        "depth": -1,
                        "name": "Actual Gas Used",
                        "value": 69220
                    },
                    {
                        "children": [],
                        "depth": -1,
                        "name": "Refunded Gas",
                        "value": 15000
                    }
                ],
                "depth": -2,
                "name": "Total Gas",
                "value": 84220
            }
        ],
        "isConfirmed": true,
        "mainTrace": [
            {
                "children": [
                    {
                        "children": [
                            {
                                "children": [],
                                "depth": 1,
                                "id": 1,
                                "order": 1
                            }
                        ],
                        "depth": 0,
                        "id": 0,
                        "order": 0
                    }
                ],
                "depth": -1,
                "id": -1,
                "order": -1
            }
        ],
        "mainTraceNodeCount": 2,
        "parentIdMap": {
            "0": -1,
            "1": 0
        },
        "tidyTrace": [
            {
                "children": [
                    {
                        "children": [
                            {
                                "children": [],
                                "depth": 1,
                                "id": 1,
                                "order": 1
                            }
                        ],
                        "depth": 0,
                        "id": 0,
                        "order": 0
                    }
                ],
                "depth": -1,
                "id": -1,
                "order": -1
            }
        ],
        "tidyTraceNodeCount": 2
    },
    "state_change": {
        "stateChanges": [
            {
                "address": "0xb51088f5f37286b5c3462043200a0ce9aee71459",
                "erc": "",
                "slots": [
                    {
                        "current": "0x00000000000000000000000000000000000000000071891f7916df5579c55c00",
                        "key": "0x0000000000000000000000000000000000000000000000000000000000000004",
                        "prev": "0x0000000000000000000000000000000000000000007189186cfa181a78fd5c00"
                    }
                ],
                "storageVariables": [
                    {
                        "name": "totalSaleSupply",
                        "type": "uint256",
                        "value": {
                            "current": "137256162399079409417280512",
                            "prev": "137256032399079409417280512",
                            "typeTag": 1
                        }
                    }
                ]
            },
            {
                "address": "0xf3b3cad094b89392fce5fafd40bc03b80f2bc624",
                "erc": "ERC-20",
                "slots": [
                    {
                        "current": "0x000000000000000000000000000000000000000000f5e270da56f3da19c55c00",
                        "key": "0x0000000000000000000000000000000000000000000000000000000000000005",
                        "prev": "0x000000000000000000000000000000000000000000f5e269ce3a2c9f18fd5c00"
                    },
                    {
                        "current": "0x0000000000000000000000000000000000000000000000070c1cc73b00c80000",
                        "key": "0x1c9574e1b82583f39c20ad1e0ed285d59426791f0c639b2a38fc23abd5b4e728",
                        "prev": "0x0000000000000000000000000000000000000000000000000000000000000000"
                    }
                ],
                "storageVariables": [
                    {
                        "name": "totalSupply",
                        "type": "uint256",
                        "value": {
                            "current": "297256162399079409417280512",
                            "prev": "297256032399079409417280512",
                            "typeTag": 1
                        }
                    },
                    {
                        "name": "balances",
                        "type": "mapping(address => uint256)",
                        "value": {
                            "pairs": [
                                {
                                    "key": "0xfb07e258d0e7b352f3a3a16eed03257d12094535",
                                    "value": {
                                        "current": "130000000000000000000",
                                        "prev": "0",
                                        "typeTag": 1
                                    }
                                }
                            ],
                            "typeTag": 4
                        }
                    }
                ]
            }
        ]
    }
}