{
    "balance_change": {
        "balanceChanges": [
            {
                "account": "0x9d7a974a2e8042717067ba6b927b36d8762fa60d",
                "assets": [
                    {
                        "address": "0xa22160bea244f00bef5a0b1ca85977b005716fec",
                        "amount": "0.2",
                        "iconUrl": "",
                        "isERC1155": false,
                        "isERC721": false,
                        "sign": false,
                        "value": ""
                    }
                ]
            },
            {
                "account": "0xa750de09a66670d65b5f954c46242f512a05bc27",
                "assets": [
                    {
                        "address": "0xa22160bea244f00bef5a0b1ca85977b005716fec",
                        "amount": "0.2",
                        "iconUrl": "",
                        "isERC1155": false,
                        "isERC721": false,
                        "sign": true,
                        "value": ""
                    }
                ]
            }
        ]
    },
    "profile": {
        "basic_info": {
            "baseFee": "",
            "blockNumber": 8743853,
            "callData": "0x073b423d000000000000000000000000a750de09a66670d65b5f954c46242f512a05bc27000000000000000000000000000000000000000000000000000000000000000000000000000000000000000000000000000000000000000000000000003d5b0900000000000000000000000000000000000000000000000000000000000007d0",
            "debugEnable": true,
            "errorInfo": "",
            "eventCount": 2,
            "feeRecipient": "0xea674fdde714fd979de3edf0f56aa9716b898ec8",
            "formatValue": "0",
            "gasLimit": 200000,
            "gasPrice": "10",
            "gasUsed": 52056,
            "intTxnCount": 0,
            "internalRevert": false,
            "internalRevertMessage": "",
            "isContractCreation": false,
            "isFlashloan": false,
            "maxFee": "",
            "nonce": 389,
            "overwritedBlockNumber": -1,
            "priorityFee": "",
            "receiver": "0xa22160bea244f00bef5a0b1ca85977b005716fec",
            "revertMessage": "",
            "sender": "0x9d7a974a2e8042717067ba6b927b36d8762fa60d",
            "simulationEnable": true,
            "sourceTxnHash": "0x08431ecd107b944f5a3085fa923f5e1d746c56e5bda55a6d33c86d639e6cd0e7",
            "status": true,
            "timestamp": "2019-10-15T04:52:40Z",
            "transactionFee": "0.00052056",
            "txnHash": "0x08431ecd107b944f5a3085fa923f5e1d746c56e5bda55a6d33c86d639e6cd0e7",
            "txnIndex": 55,
            "type": 0,
            "value": "0"
        },
        "fund_flow": [
            {
                "amount": "0.2",
                "from": "0x9d7a974a2e8042717067ba6b927b36d8762fa60d",
                "id": 1,
                "isERC1155": false,
                "isERC721": false,
                "isReverted": false,
                "order": 1,
                "to": "0xa750de09a66670d65b5f954c46242f512a05bc27",
                "token": "0xa22160bea244f00bef5a0b1ca85977b005716fec"
            }
        ],
        "token_infos": [
            {
                "address": "0xa22160bea244f00bef5a0b1ca85977b005716fec",
                "decimals": 4
            },
            {
                "address": "0xc02aaa39b223fe8d0a0e5c4f27ead9083c756cc2",
                "decimals": 18
            },
            {
                "address": "0xeeeeeeeeeeeeeeeeeeeeeeeeeeeeeeeeeeeeeeee",
                "decimals": 18
            }
        ]
    },
    "address_label": {
        "labels": [
            {
                "address": "0x0000000000000000000000000000000000000002",
                "label": "Precompiled"
            },
            {
                "address": "0x0000000000000000000000000000000000000003",
                "label": "Precompiled"
            },
            {
                "address": "0x0000000000000000000000000000000000000004",
                "label": "Precompiled"
            },
            {
                "address": "0xeeeeeeeeeeeeeeeeeeeeeeeeeeeeeeeeeeeeeeee",
                "label": "Ether"
            },
            {
                "address": "0xa22160bea244f00bef5a0b1ca85977b005716fec",
                "label": "FanChain (FANZ)"
            },
            {
                "address": "0x0000000000000000000000000000000000000001",
                "label": "Precompiled"
            }
        ]
    },
    "trace": {
        "accountLabels": null,
        "dataMap": {
            "-1": {
                "invocation": {
                    "address": "0x9d7a974a2e8042717067ba6b927b36d8762fa60d",
                    "callData": "",
                    "decodedMethod": null,
                    "errorInfo": "",
                    "fromAddress": "",
                    "gasUsed": 0,
                    "id": -1,
                    "methodDecoded": false,
                    "operation": "",
                    "output": "",
                    "revert": false,
                    "revertMessage": "",
                    "selector": "",
                    "status": false,
                    "value": ""
                },
                "nodeType": 0
            },
            "0": {
                "invocation": {
                    "address": "0xa22160bea244f00bef5a0b1ca85977b005716fec",
                    "callData": "0x000000000000000000000000a750de09a66670d65b5f954c46242f512a05bc27000000000000000000000000000000000000000000000000000000000000000000000000000000000000000000000000000000000000000000000000003d5b0900000000000000000000000000000000000000000000000000000000000007d0",
                    "decodedMethod": {
                        "callParams": [
                            {
                                "name": "_to",
                                "type": "address",
                                "value": "0xa750de09a66670d65b5f954c46242f512a05bc27"
                            },
                            {
                                "name": "_tokenToStamp",
                                "type": "uint256",
                                "value": "0"
                            },
                            {
                                "name": "_stamp",
                                "type": "uint256",
                                "value": "4,021,001"
                            },
                            {
                                "name": "_amount",
                                "type": "uint256",
                                "value": "2,000"
                            }
                        ],
                        "constructorArguments": "",
                        "name": "mintTransfer",
                        "returnParams": [
                            {
                                "name": "",
                                "type": "bool",
                                "value": true
                            }
                        ],
                        "signature": "mintTransfer(address,uint256,uint256,uint256)"
                    },
                    "errorInfo": "",
                    "fromAddress": "0x9d7a974a2e8042717067ba6b927b36d8762fa60d",
                    "gasUsed": 52056,
                    "id": 0,
                    "methodDecoded": true,
                    "operation": "CALL",
                    "output": "0x0000000000000000000000000000000000000000000000000000000000000001",
                    "revert": false,
                    "revertMessage": "",
                    "selector": "0x073b423d",
                    "status": true,
                    "value": "0"
                },
                "nodeType": 0
            },
            "1": {
                "event": {
                    "contract": "0xa22160bea244f00bef5a0b1ca85977b005716fec",
                    "decodedLog": {
                        "name": "MintTransfer",
                        "params": [
                            {
                                "name": "from",
                                "type": "address",
                                "value": "0x9d7a974a2e8042717067ba6b927b36d8762fa60d"
                            },
                            {
                                "name": "to",
                                "type": "address",
                                "value": "0xa750de09a66670d65b5f954c46242f512a05bc27"
                            },
                            {
                                "name": "originalTokenId",
                                "type": "uint256",
                                "value": "0"
                            },
                            {
                                "name": "tokenId",
                                "type": "uint256",
                                "value": "4,021,001"
                            },
                            {
                                "name": "value",
                                "type": "uint256",
                                "value": "2,000"
                            }
                        ],
                        "signature": "MintTransfer(address,address,uint256,uint256,uint256)"
                    },
                    "id": 1,
                    "logData": "0x000000000000000000000000000000000000000000000000000000000000000000000000000000000000000000000000000000000000000000000000003d5b0900000000000000000000000000000000000000000000000000000000000007d0",
                    "logDecoded": true,
                    "operation": "EVENT",
                    "revert": false,
                    "status": true,
                    "topics": [
                        "0x0e879e07f7f6a4649b35412f7e1b7d4f31e250bad0c37a6fdd49b6ac58d7d7d5",
                        "0x0000000000000000000000009d7a974a2e8042717067ba6b927b36d8762fa60d",
                        "0x000000000000000000000000a750de09a66670d65b5f954c46242f512a05bc27"
                    ]
                },
                "nodeType": 1
            },
            "2": {
                "event": {
                    "contract": "0xa22160bea244f00bef5a0b1ca85977b005716fec",
                    "decodedLog": {
                        "name": "Transfer",
                        "params": [
                            {
                                "name": "from",
                                "type": "address",
                                "value": "0x9d7a974a2e8042717067ba6b927b36d8762fa60d"
                            },
                            {
                                "name": "to",
                                "type": "address",
                                "value": "0xa750de09a66670d65b5f954c46242f512a05bc27"
                            },
                            {
                                "decimalAvailable": true,
                                "name": "value",
                                "type": "uint256",
                                "value": "2,000"
                            }
                        ],
                        "signature": "Transfer(address,address,uint256)"
                    },
                    "id": 2,
                    "logData": "0x00000000000000000000000000000000000000000000000000000000000007d0",
                    "logDecoded": true,
                    "operation": "EVENT",
                    "revert": false,
                    "status": true,
                    "topics": [
                        "0xddf252ad1be2c89b69c2b068fc378daa952ba7f163c4a11628f55a4df523b3ef",
                        "0x0000000000000000000000009d7a974a2e8042717067ba6b927b36d8762fa60d",
                        "0x000000000000000000000000a750de09a66670d65b5f954c46242f512a05bc27"
                    ]
                },
                "nodeType": 1
            }
        },
        "gasFlame": [
            {
                "children": [
                    {
                        "children": [
                            {
                                "children": [],
                                "depth": 0,
                                "name": "Initial Gas",
                                "value": 23384
                            },
                            {
                                "children": [],
                                "depth": 0,
                                "name": "Executed Gas",
                                "value": 28672
                            }
                        ],
                        "depth": -1,
                        "name": "Actual Gas Used",
                        "value": 52056
                    },
                    {
                        "children": [],
                        "depth": -1,
                        "name": "Refunded Gas",
                        "value": 0
                    }
                ],
                "depth": -2,
                "name": "Total Gas",
                "value": 52056
            }
        ],
        "isConfirmed": true,
        "mainTrace": [
            {
                "children": [
                    {
                        "children": [
                            {
                                "children": [],
                                "depth": 1,
                                "id": 1,
                                "order": 1
                            },
                            {
                                "children": [],
                                "depth": 1,
                                "id": 2,
                                "order": 2
                            }
                        ],
                        "depth": 0,
                        "id": 0,
                        "order": 0
                    }
                ],
                "depth": -1,
                "id": -1,
                "order": -1
            }
        ],
        "mainTraceNodeCount": 3,
        "parentIdMap": {
            "0": -1,
            "1": 0,
            "2": 0
        },
        "tidyTrace": [
            {
                "children": [
                    {
                        "children": [
                            {
                                "children": [],
                                "depth": 1,
                                "id": 1,
                                "order": 1
                            },
                            {
                                "children": [],
                                "depth": 1,
                                "id": 2,
                                "order": 2
                            }
                        ],
                        "depth": 0,
                        "id": 0,
                        "order": 0
                    }
                ],
                "depth": -1,
                "id": -1,
                "order": -1
            }
        ],
        "tidyTraceNodeCount": 3
    },
    "state_change": {
        "stateChanges": [
            {
                "address": "0xa22160bea244f00bef5a0b1ca85977b005716fec",
                "erc": "ERC-20",
                "slots": [
                    {
                        "current": "0x000000000000000000000000000000000000000000000000000000000001c6b0",
                        "key": "0xbea6e8da3478f55b741a332e791d5684147039e89e3584ecc61549887aa4913c",
                        "prev": "0x000000000000000000000000000000000000000000000000000000000001bee0"
                    },
                    {
                        "current": "0x000000000000000000000000000000000000000000000000000000003af62d60",
                        "key": "0x3eadbc3ecd94388383db66529be6fe92bbc09614d985e22ee8402fb68f5932a6",
                        "prev": "0x000000000000000000000000000000000000000000000000000000003af63530"
                    },
                    {
                        "current": "0x000000000000000000000000000000000000000000000000000000003af62d60",
                        "key": "0x919470c4c85ab4032fc95db6d7b00dbbcf008be6e033c2425934e962684d7ba7",
                        "prev": "0x000000000000000000000000000000000000000000000000000000003af63530"
                    },
                    {
                        "current": "0x0000000000000000000000000000000000000000000000000000000000004970",
                        "key": "0x441716314d428eded0b924ef727f12c95c2003c3176537882f1fcb246699c5b4",
                        "prev": "0x00000000000000000000000000000000000000000000000000000000000041a0"
                    }
                ],
                "storageVariables": [
                    {
                        "name": "balances",
                        "type": "mapping(address => struct Stampable.AddressBalance)",
                        "value": {
                            "pairs": [
                                {
                                    "key": "0x9d7a974a2e8042717067ba6b927b36d8762fa60d",
                                    "value": {
                                        "fields": [
                                            {
                                                "name": "tokens",
                                                "type": "mapping(uint256 => struct Stampable.TokenBalance)",
                                                "value": {
                                                    "pairs": [
                                                        {
                                                            "key": "0",
                                                            "value": {
                                                                "fields": [
                                                                    {
                                                                        "name": "amount",
                                                                        "type": "uint256",
                                                                        "value": {
                                                                            "current": "989212000",
                                                                            "prev": "989214000",
                                                                            "typeTag": 1
                                                                        }
                                                                    }
                                                                ],
                                                                "typeTag": 3
                                                            }
                                                        }
                                                    ],
                                                    "typeTag": 4
                                                }
                                            }
                                        ],
                                        "typeTag": 3
                                    }
                                },
                                {
                                    "key": "0xa750de09a66670d65b5f954c46242f512a05bc27",
                                    "value": {
                                        "fields": [
                                            {
                                                "name": "tokens",
                                                "type": "mapping(uint256 => struct Stampable.TokenBalance)",
                                                "value": {
                                                    "pairs": [
                                                        {
                                                            "key": "4021001",
                                                            "value": {
                                                                "fields": [
                                                                    {
                                                                        "name": "amount",
                                                                        "type": "uint256",
                                                                        "value": {
                                                                            "current": "18800",
                                                                            "prev": "16800",
                                                                            "typeTag": 1
                                                                        }
                                                                    }
                                                                ],
                                                                "typeTag": 3
                                                            }
                                                        }
                                                    ],
                                                    "typeTag": 4
                                                }
                                            }
                                        ],
                                        "typeTag": 3
                                    }
                                }
                            ],
                            "typeTag": 4
                        }
                    },
                    {
                        "name": "ownershipCount",
                        "type": "mapping(address => uint256)",
                        "value": {
                            "pairs": [
                                {
                                    "key": "0x9d7a974a2e8042717067ba6b927b36d8762fa60d",
                                    "value": {
                                        "current": "989212000",
                                        "prev": "989214000",
                                        "typeTag": 1
                                    }
                                },
                                {
                                    "key": "0xa750de09a66670d65b5f954c46242f512a05bc27",
                                    "value": {
                                        "current": "116400",
                                        "prev": "114400",
                                        "typeTag": 1
                                    }
                                }
                            ],
                            "typeTag": 4
                        }
                    }
                ]
            }
        ]
    }
}