{
    "balance_change": {
        "balanceChanges": [
            {
                "account": "0x1a346ff34dabd3f78d57d78268d1b0a28d2f1b81",
                "assets": [
                    {
                        "address": "0xe954f355d4367a66bbf78b1ecc1a29f1d572d2e8",
                        "amount": "6.5",
                        "iconUrl": "",
                        "isERC1155": false,
                        "isERC721": false,
                        "sign": false,
                        "value": ""
                    }
                ]
            },
            {
                "account": "0xccb00138dbad9c276e39d4d97c9ec6892be0121d",
                "assets": [
                    {
                        "address": "0xe954f355d4367a66bbf78b1ecc1a29f1d572d2e8",
                        "amount": "6.5",
                        "iconUrl": "",
                        "isERC1155": false,
                        "isERC721": false,
                        "sign": true,
                        "value": ""
                    }
                ]
            }
        ]
    },
    "profile": {
        "basic_info": {
            "baseFee": "",
            "blockNumber": 9609126,
            "callData": "0xa9059cbb000000000000000000000000ccb00138dbad9c276e39d4d97c9ec6892be0121d0000000000000000000000000000000000000000000000005a34a38fc00a0000",
            "debugEnable": true,
            "errorInfo": "",
            "eventCount": 1,
            "feeRecipient": "0xea674fdde714fd979de3edf0f56aa9716b898ec8",
            "formatValue": "0",
            "gasLimit": 90000,
            "gasPrice": "10",
            "gasUsed": 52211,
            "intTxnCount": 0,
            "internalRevert": false,
            "internalRevertMessage": "",
            "isContractCreation": false,
            "isFlashloan": false,
            "maxFee": "",
            "nonce": 763,
            "overwritedBlockNumber": -1,
            "priorityFee": "",
            "receiver": "0xe954f355d4367a66bbf78b1ecc1a29f1d572d2e8",
            "revertMessage": "",
            "sender": "0x1a346ff34dabd3f78d57d78268d1b0a28d2f1b81",
            "simulationEnable": true,
            "sourceTxnHash": "0x09bbbfe844c9456247eca83386feb3199855ef2e3ce2df45c3297f52f4095365",
            "status": true,
            "timestamp": "2020-03-05T04:35:53Z",
            "transactionFee": "0.00052211",
            "txnHash": "0x09bbbfe844c9456247eca83386feb3199855ef2e3ce2df45c3297f52f4095365",
            "txnIndex": 29,
            "type": 0,
            "value": "0"
        },
        "fund_flow": [
            {
                "amount": "6.5",
                "from": "0x1a346ff34dabd3f78d57d78268d1b0a28d2f1b81",
                "id": 1,
                "isERC1155": false,
                "isERC721": false,
                "isReverted": false,
                "order": 1,
                "to": "0xccb00138dbad9c276e39d4d97c9ec6892be0121d",
                "token": "0xe954f355d4367a66bbf78b1ecc1a29f1d572d2e8"
            }
        ],
        "token_infos": [
            {
                "address": "0xc02aaa39b223fe8d0a0e5c4f27ead9083c756cc2",
                "decimals": 18
            },
            {
                "address": "0xe954f355d4367a66bbf78b1ecc1a29f1d572d2e8",
                "decimals": 18
            },
            {
                "address": "0xeeeeeeeeeeeeeeeeeeeeeeeeeeeeeeeeeeeeeeee",
                "decimals": 18
            }
        ]
    },
    "address_label": {
        "labels": [
            {
                "address": "0xeeeeeeeeeeeeeeeeeeeeeeeeeeeeeeeeeeeeeeee",
                "label": "Ether"
            },
            {
                "address": "0xe954f355d4367a66bbf78b1ecc1a29f1d572d2e8",
                "label": "ACU"
            },
            {
                "address": "0x0000000000000000000000000000000000000001",
                "label": "Precompiled"
            },
            {
                "address": "0x0000000000000000000000000000000000000002",
                "label": "Precompiled"
            },
            {
                "address": "0x0000000000000000000000000000000000000003",
                "label": "Precompiled"
            },
            {
                "address": "0x0000000000000000000000000000000000000004",
                "label": "Precompiled"
            }
        ]
    },
    "trace": {
        "accountLabels": null,
        "dataMap": {
            "-1": {
                "invocation": {
                    "address": "0x1a346ff34dabd3f78d57d78268d1b0a28d2f1b81",
                    "callData": "",
                    "decodedMethod": null,
                    "errorInfo": "",
                    "fromAddress": "",
                    "gasUsed": 0,
                    "id": -1,
                    "methodDecoded": false,
                    "operation": "",
                    "output": "",
                    "revert": false,
                    "revertMessage": "",
                    "selector": "",
                    "status": false,
                    "value": ""
                },
                "nodeType": 0
            },
            "0": {
                "invocation": {
                    "address": "0xe954f355d4367a66bbf78b1ecc1a29f1d572d2e8",
                    "callData": "0x000000000000000000000000ccb00138dbad9c276e39d4d97c9ec6892be0121d0000000000000000000000000000000000000000000000005a34a38fc00a0000",
                    "decodedMethod": {
                        "callParams": [
                            {
                                "name": "recipient",
                                "type": "address",
                                "value": "0xccb00138dbad9c276e39d4d97c9ec6892be0121d"
                            },
                            {
                                "decimalAvailable": true,
                                "name": "amount",
                                "type": "uint256",
                                "value": "6,500,000,000,000,000,000"
                            }
                        ],
                        "constructorArguments": "",
                        "name": "transfer",
                        "returnParams": [
                            {
                                "name": "",
                                "type": "bool",
                                "value": true
                            }
                        ],
                        "signature": "transfer(address,uint256)"
                    },
                    "errorInfo": "",
                    "fromAddress": "0x1a346ff34dabd3f78d57d78268d1b0a28d2f1b81",
                    "gasUsed": 52211,
                    "id": 0,
                    "methodDecoded": true,
                    "operation": "CALL",
                    "output": "0x0000000000000000000000000000000000000000000000000000000000000001",
                    "revert": false,
                    "revertMessage": "",
                    "selector": "0xa9059cbb",
                    "status": true,
                    "value": "0"
                },
                "nodeType": 0
            },
            "1": {
                "event": {
                    "contract": "0xe954f355d4367a66bbf78b1ecc1a29f1d572d2e8",
                    "decodedLog": {
                        "name": "Transfer",
                        "params": [
                            {
                                "name": "from",
                                "type": "address",
                                "value": "0x1a346ff34dabd3f78d57d78268d1b0a28d2f1b81"
                            },
                            {
                                "name": "to",
                                "type": "address",
                                "value": "0xccb00138dbad9c276e39d4d97c9ec6892be0121d"
                            },
                            {
                                "decimalAvailable": true,
                                "name": "value",
                                "type": "uint256",
                                "value": "6,500,000,000,000,000,000"
                            }
                        ],
                        "signature": "Transfer(address,address,uint256)"
                    },
                    "id": 1,
                    "logData": "0x0000000000000000000000000000000000000000000000005a34a38fc00a0000",
                    "logDecoded": true,
                    "operation": "EVENT",
                    "revert": false,
                    "status": true,
                    "topics": [
                        "0xddf252ad1be2c89b69c2b068fc378daa952ba7f163c4a11628f55a4df523b3ef",
                        "0x0000000000000000000000001a346ff34dabd3f78d57d78268d1b0a28d2f1b81",
                        "0x000000000000000000000000ccb00138dbad9c276e39d4d97c9ec6892be0121d"
                    ]
                },
                "nodeType": 1
            }
        },
        "gasFlame": [
            {
                "children": [
                    {
                        "children": [
                            {
                                "children": [],
                                "depth": 0,
                                "name": "Initial Gas",
                                "value": 21632
                            },
                            {
                                "children": [],
                                "depth": 0,
                                "name": "Executed Gas",
                                "value": 30579
                            }
                        ],
                        "depth": -1,
                        "name": "Actual Gas Used",
                        "value": 52211
                    },
                    {
                        "children": [],
                        "depth": -1,
                        "name": "Refunded Gas",
                        "value": 0
                    }
                ],
                "depth": -2,
                "name": "Total Gas",
                "value": 52211
            }
        ],
        "isConfirmed": true,
        "mainTrace": [
            {
                "children": [
                    {
                        "children": [
                            {
                                "children": [],
                                "depth": 1,
                                "id": 1,
                                "order": 1
                            }
                        ],
                        "depth": 0,
                        "id": 0,
                        "order": 0
                    }
                ],
                "depth": -1,
                "id": -1,
                "order": -1
            }
        ],
        "mainTraceNodeCount": 2,
        "parentIdMap": {
            "0": -1,
            "1": 0
        },
        "tidyTrace": [
            {
                "children": [
                    {
                        "children": [
                            {
                                "children": [],
                                "depth": 1,
                                "id": 1,
                                "order": 1
                            }
                        ],
                        "depth": 0,
                        "id": 0,
                        "order": 0
                    }
                ],
                "depth": -1,
                "id": -1,
                "order": -1
            }
        ],
        "tidyTraceNodeCount": 2
    },
    "state_change": {
        "stateChanges": [
            {
                "address": "0xe954f355d4367a66bbf78b1ecc1a29f1d572d2e8",
                "erc": "",
                "slots": [
                    {
                        "current": "0x00000000000000000000000000000000000000000000030d7e3064c22f400000",
                        "key": "0x1c8adafc992dd179cf57d856db407f8bcb1c7e348ec04c693807e443e1835255",
                        "prev": "0x00000000000000000000000000000000000000000000030dd8650851ef4a0000"
                    },
                    {
                        "current": "0x0000000000000000000000000000000000000000000000005a34a38fc00a0000",
                        "key": "0xbfa6289dc55c75857f74f60c17a385092b4b6dedf1bc8bf653877b2e0ccde9f5",
                        "prev": "0x0000000000000000000000000000000000000000000000000000000000000000"
                    }
                ],
                "storageVariables": []
            }
        ]
    }
}