{
    "balance_change": {
        "balanceChanges": [
            {
                "account": "0x70fdb962a31109022d55b1cb428f59522946fe0d",
                "assets": [
                    {
                        "address": "0xdac17f958d2ee523a2206206994597c13d831ec7",
                        "amount": "249.140847",
                        "iconUrl": "https://assets.blocksec.com/icon/fcea71f3193ce895be44bfdf941f7e4c9381dd587f273c2d1a27f1263d84e4ea.png",
                        "isERC1155": false,
                        "isERC721": false,
                        "sign": false,
                        "value": "248.84187798360000526"
                    },
                    {
                        "address": "0xd29da236dd4aac627346e1bba06a619e8c22d7c5",
                        "amount": "470,550.790285535",
                        "iconUrl": "",
                        "isERC1155": false,
                        "isERC721": false,
                        "sign": true,
                        "value": "247.3887753"
                    }
                ]
            },
            {
                "account": "0x000000fee13a103a10d593b9ae06b3e05f2e7e1c",
                "assets": [
                    {
                        "address": "0xd29da236dd4aac627346e1bba06a619e8c22d7c5",
                        "amount": "1,179.325288936",
                        "iconUrl": "",
                        "isERC1155": false,
                        "isERC721": false,
                        "sign": true,
                        "value": "0.62007771"
                    }
                ]
            },
            {
                "account": "0x0c3fdf9c70835f9be9db9585ecb6a1ee3f20a6c7",
                "assets": [
                    {
                        "address": "0xc02aaa39b223fe8d0a0e5c4f27ead9083c756cc2",
                        "amount": "0.066031166403200383",
                        "iconUrl": "https://assets.blocksec.com/icon/f1cb2d02c471d545bbc7722daf3277fd852d98e63d118771af7047bd8256c516.png",
                        "isERC1155": false,
                        "isERC721": false,
                        "sign": true,
                        "value": "249.47102915251199519"
                    },
                    {
                        "address": "0xd29da236dd4aac627346e1bba06a619e8c22d7c5",
                        "amount": "471,730.115574471",
                        "iconUrl": "",
                        "isERC1155": false,
                        "isERC721": false,
                        "sign": false,
                        "value": "248.0087413"
                    }
                ]
            },
            {
                "account": "0x0d4a11d5eeaac28ec3f61d100daf4d40471f1852",
                "assets": [
                    {
                        "address": "0xdac17f958d2ee523a2206206994597c13d831ec7",
                        "amount": "249.140847",
                        "iconUrl": "https://assets.blocksec.com/icon/fcea71f3193ce895be44bfdf941f7e4c9381dd587f273c2d1a27f1263d84e4ea.png",
                        "isERC1155": false,
                        "isERC721": false,
                        "sign": true,
                        "value": "248.84187798360000526"
                    },
                    {
                        "address": "0xc02aaa39b223fe8d0a0e5c4f27ead9083c756cc2",
                        "amount": "0.066031166403200383",
                        "iconUrl": "https://assets.blocksec.com/icon/f1cb2d02c471d545bbc7722daf3277fd852d98e63d118771af7047bd8256c516.png",
                        "isERC1155": false,
                        "isERC721": false,
                        "sign": false,
                        "value": "249.47102915251199519"
                    }
                ]
            }
        ]
    },
    "profile": {
        "basic_info": {
            "baseFee": "9.46482165",
            "blockNumber": 19978102,
            "callData": "0x3593564c000000000000000000000000000000000000000000000000000000000000006000000000000000000000000000000000000000000000000000000000000000a00000000000000000000000000000000000000000000000000000000066579b6f000000000000000000000000000000000000000000000000000000000000000308060400000000000000000000000000000000000000000000000000000000000000000000000000000000000000000000000000000000000000000000000003000000000000000000000000000000000000000000000000000000000000006000000000000000000000000000000000000000000000000000000000000001a0000000000000000000000000000000000000000000000000000000000000022000000000000000000000000000000000000000000000000000000000000001200000000000000000000000000000000000000000000000000000000000000002000000000000000000000000000000000000000000000000000000000ed9966f00000000000000000000000000000000000000000000000000019e02bbcaee5900000000000000000000000000000000000000000000000000000000000000a000000000000000000000000000000000000000000000000000000000000000010000000000000000000000000000000000000000000000000000000000000003000000000000000000000000dac17f958d2ee523a2206206994597c13d831ec7000000000000000000000000c02aaa39b223fe8d0a0e5c4f27ead9083c756cc2000000000000000000000000d29da236dd4aac627346e1bba06a619e8c22d7c50000000000000000000000000000000000000000000000000000000000000060000000000000000000000000d29da236dd4aac627346e1bba06a619e8c22d7c5000000000000000000000000000000fee13a103a10d593b9ae06b3e05f2e7e1c00000000000000000000000000000000000000000000000000000000000000190000000000000000000000000000000000000000000000000000000000000060000000000000000000000000d29da236dd4aac627346e1bba06a619e8c22d7c5000000000000000000000000000000000000000000000000000000000000000100000000000000000000000000000000000000000000000000019cf9c44880f3",
            "debugEnable": true,
            "errorInfo": "",
            "eventCount": 9,
            "feeRecipient": "0x4838b106fce9647bdf1e7877bf73ce8b0bad5f97",
            "formatValue": "0",
            "gasLimit": 325660,
            "gasPrice": "9.51332165",
            "gasUsed": 255017,
            "intTxnCount": 20,
            "internalRevert": false,
            "internalRevertMessage": "",
            "isContractCreation": false,
            "isFlashloan": false,
            "maxFee": "11.709386621",
            "nonce": 69,
            "overwritedBlockNumber": -1,
            "priorityFee": "0.0485",
            "receiver": "0x3fc91a3afd70395cd496c647d5a6cc9d4b2b7fad",
            "revertMessage": "",
            "sender": "0x70fdb962a31109022d55b1cb428f59522946fe0d",
            "simulationEnable": true,
            "sourceTxnHash": "0x09b5a38d4f2dfcf07542c4b60794832371c43a2101732e6d86b9ddc46a2cdd52",
            "status": true,
            "timestamp": "2024-05-29T21:10:11Z",
            "transactionFee": "0.00242605874721805",
            "txnHash": "0x09b5a38d4f2dfcf07542c4b60794832371c43a2101732e6d86b9ddc46a2cdd52",
            "txnIndex": 99,
            "type": 2,
            "value": "0"
        },
        "fund_flow": [
            {
                "amount": "249.140847",
                "from": "0x70fdb962a31109022d55b1cb428f59522946fe0d",
                "id": 1,
                "isERC1155": false,
                "isERC721": false,
                "isReverted": false,
                "order": 1,
                "to": "0x0d4a11d5eeaac28ec3f61d100daf4d40471f1852",
                "token": "0xdac17f958d2ee523a2206206994597c13d831ec7"
            },
            {
                "amount": "0.066031166403200383",
                "from": "0x0d4a11d5eeaac28ec3f61d100daf4d40471f1852",
                "id": 2,
                "isERC1155": false,
                "isERC721": false,
                "isReverted": false,
                "order": 2,
                "to": "0x0c3fdf9c70835f9be9db9585ecb6a1ee3f20a6c7",
                "token": "0xc02aaa39b223fe8d0a0e5c4f27ead9083c756cc2"
            },
            {
                "amount": "471,730.115574471",
                "from": "0x0c3fdf9c70835f9be9db9585ecb6a1ee3f20a6c7",
                "id": 3,
                "isERC1155": false,
                "isERC721": false,
                "isReverted": false,
                "order": 3,
                "to": "0x3fc91a3afd70395cd496c647d5a6cc9d4b2b7fad",
                "token": "0xd29da236dd4aac627346e1bba06a619e8c22d7c5"
            },
            {
                "amount": "1,179.325288936",
                "from": "0x3fc91a3afd70395cd496c647d5a6cc9d4b2b7fad",
                "id": 4,
                "isERC1155": false,
                "isERC721": false,
                "isReverted": false,
                "order": 4,
                "to": "0x000000fee13a103a10d593b9ae06b3e05f2e7e1c",
                "token": "0xd29da236dd4aac627346e1bba06a619e8c22d7c5"
            },
            {
                "amount": "470,550.790285535",
                "from": "0x3fc91a3afd70395cd496c647d5a6cc9d4b2b7fad",
                "id": 5,
                "isERC1155": false,
                "isERC721": false,
                "isReverted": false,
                "order": 5,
                "to": "0x70fdb962a31109022d55b1cb428f59522946fe0d",
                "token": "0xd29da236dd4aac627346e1bba06a619e8c22d7c5"
            }
        ],
        "token_infos": [
            {
                "address": "0xeeeeeeeeeeeeeeeeeeeeeeeeeeeeeeeeeeeeeeee",
                "decimals": 18
            },
            {
                "address": "0xc02aaa39b223fe8d0a0e5c4f27ead9083c756cc2",
                "decimals": 18
            },
            {
                "address": "0xd29da236dd4aac627346e1bba06a619e8c22d7c5",
                "decimals": 9
            },
            {
                "address": "0xdac17f958d2ee523a2206206994597c13d831ec7",
                "decimals": 6
            }
        ]
    },
    "address_label": {
        "labels": [
            {
                "address": "0x000000000022d473030f116ddee9f6b43ac78ba3",
                "label": "Permit2"
            },
            {
                "address": "0x0d4a11d5eeaac28ec3f61d100daf4d40471f1852",
                "label": "Uniswap V2: USDT"
            },
            {
                "address": "0x0000000000000000000000000000000000000004",
                "label": "Precompiled"
            },
            {
                "address": "0xeeeeeeeeeeeeeeeeeeeeeeeeeeeeeeeeeeeeeeee",
                "label": "Ether"
            },
            {
                "address": "0xc02aaa39b223fe8d0a0e5c4f27ead9083c756cc2",
                "label": "Wrapped Ether (WETH)"
            },
            {
                "address": "0xd29da236dd4aac627346e1bba06a619e8c22d7c5",
                "label": "MagaHat: MAGA Token"
            },
            {
                "address": "0xdac17f958d2ee523a2206206994597c13d831ec7",
                "label": "Tether: USDT Stablecoin"
            },
            {
                "address": "0x0c3fdf9c70835f9be9db9585ecb6a1ee3f20a6c7",
                "label": "UNI-V2"
            },
            {
                "address": "0x0000000000000000000000000000000000000001",
                "label": "Precompiled"
            },
            {
                "address": "0x0000000000000000000000000000000000000002",
                "label": "Precompiled"
            },
            {
                "address": "0x0000000000000000000000000000000000000003",
                "label": "Precompiled"
            },
            {
                "address": "0x3fc91a3afd70395cd496c647d5a6cc9d4b2b7fad",
                "label": "Uniswap: Universal Router"
            }
        ]
    },
    "trace": {
        "accountLabels": null,
        "dataMap": {
            "-1": {
                "invocation": {
                    "address": "0x70fdb962a31109022d55b1cb428f59522946fe0d",
                    "callData": "",
                    "decodedMethod": null,
                    "errorInfo": "",
                    "fromAddress": "",
                    "gasUsed": 0,
                    "id": -1,
                    "methodDecoded": false,
                    "operation": "",
                    "output": "",
                    "revert": false,
                    "revertMessage": "",
                    "selector": "",
                    "status": false,
                    "value": ""
                },
                "nodeType": 0
            },
            "0": {
                "invocation": {
                    "address": "0x3fc91a3afd70395cd496c647d5a6cc9d4b2b7fad",
                    "callData": "0x000000000000000000000000000000000000000000000000000000000000006000000000000000000000000000000000000000000000000000000000000000a00000000000000000000000000000000000000000000000000000000066579b6f000000000000000000000000000000000000000000000000000000000000000308060400000000000000000000000000000000000000000000000000000000000000000000000000000000000000000000000000000000000000000000000003000000000000000000000000000000000000000000000000000000000000006000000000000000000000000000000000000000000000000000000000000001a0000000000000000000000000000000000000000000000000000000000000022000000000000000000000000000000000000000000000000000000000000001200000000000000000000000000000000000000000000000000000000000000002000000000000000000000000000000000000000000000000000000000ed9966f00000000000000000000000000000000000000000000000000019e02bbcaee5900000000000000000000000000000000000000000000000000000000000000a000000000000000000000000000000000000000000000000000000000000000010000000000000000000000000000000000000000000000000000000000000003000000000000000000000000dac17f958d2ee523a2206206994597c13d831ec7000000000000000000000000c02aaa39b223fe8d0a0e5c4f27ead9083c756cc2000000000000000000000000d29da236dd4aac627346e1bba06a619e8c22d7c50000000000000000000000000000000000000000000000000000000000000060000000000000000000000000d29da236dd4aac627346e1bba06a619e8c22d7c5000000000000000000000000000000fee13a103a10d593b9ae06b3e05f2e7e1c00000000000000000000000000000000000000000000000000000000000000190000000000000000000000000000000000000000000000000000000000000060000000000000000000000000d29da236dd4aac627346e1bba06a619e8c22d7c5000000000000000000000000000000000000000000000000000000000000000100000000000000000000000000000000000000000000000000019cf9c44880f3",
                    "decodedMethod": {
                        "callParams": [
                            {
                                "name": "commands",
                                "type": "bytes",
                                "value": "0x080604"
                            },
                            {
                                "name": "inputs",
                                "type": "bytes[]",
                                "value": [
                                    "0x0000000000000000000000000000000000000000000000000000000000000002000000000000000000000000000000000000000000000000000000000ed9966f00000000000000000000000000000000000000000000000000019e02bbcaee5900000000000000000000000000000000000000000000000000000000000000a000000000000000000000000000000000000000000000000000000000000000010000000000000000000000000000000000000000000000000000000000000003000000000000000000000000dac17f958d2ee523a2206206994597c13d831ec7000000000000000000000000c02aaa39b223fe8d0a0e5c4f27ead9083c756cc2000000000000000000000000d29da236dd4aac627346e1bba06a619e8c22d7c5",
                                    "0x000000000000000000000000d29da236dd4aac627346e1bba06a619e8c22d7c5000000000000000000000000000000fee13a103a10d593b9ae06b3e05f2e7e1c0000000000000000000000000000000000000000000000000000000000000019",
                                    "0x000000000000000000000000d29da236dd4aac627346e1bba06a619e8c22d7c5000000000000000000000000000000000000000000000000000000000000000100000000000000000000000000000000000000000000000000019cf9c44880f3"
                                ]
                            },
                            {
                                "name": "deadline",
                                "type": "uint256",
                                "value": "1,717,017,455"
                            }
                        ],
                        "constructorArguments": "",
                        "name": "execute",
                        "returnParams": [],
                        "signature": "execute(bytes,bytes[],uint256)"
                    },
                    "errorInfo": "",
                    "fromAddress": "0x70fdb962a31109022d55b1cb428f59522946fe0d",
                    "gasUsed": 255017,
                    "id": 0,
                    "methodDecoded": true,
                    "operation": "CALL",
                    "output": "",
                    "revert": false,
                    "revertMessage": "",
                    "selector": "0x3593564c",
                    "status": true,
                    "value": "0"
                },
                "nodeType": 0
            },
            "1": {
                "invocation": {
                    "address": "0x000000000022d473030f116ddee9f6b43ac78ba3",
                    "callData": "0x00000000000000000000000070fdb962a31109022d55b1cb428f59522946fe0d0000000000000000000000000d4a11d5eeaac28ec3f61d100daf4d40471f1852000000000000000000000000000000000000000000000000000000000ed9966f000000000000000000000000dac17f958d2ee523a2206206994597c13d831ec7",
                    "decodedMethod": {
                        "callParams": [
                            {
                                "name": "from",
                                "type": "address",
                                "value": "0x70fdb962a31109022d55b1cb428f59522946fe0d"
                            },
                            {
                                "name": "to",
                                "type": "address",
                                "value": "0x0d4a11d5eeaac28ec3f61d100daf4d40471f1852"
                            },
                            {
                                "name": "amount",
                                "type": "uint160",
                                "value": "249,140,847"
                            },
                            {
                                "name": "token",
                                "type": "address",
                                "value": "0xdac17f958d2ee523a2206206994597c13d831ec7"
                            }
                        ],
                        "constructorArguments": "",
                        "name": "transferFrom",
                        "returnParams": [],
                        "signature": "transferFrom(address,address,uint160,address)"
                    },
                    "errorInfo": "",
                    "fromAddress": "0x3fc91a3afd70395cd496c647d5a6cc9d4b2b7fad",
                    "gasUsed": 32237,
                    "id": 1,
                    "methodDecoded": true,
                    "operation": "CALL",
                    "output": "",
                    "revert": false,
                    "revertMessage": "",
                    "selector": "0x36c78516",
                    "status": true,
                    "value": "0"
                },
                "nodeType": 0
            },
            "10": {
                "invocation": {
                    "address": "0xc02aaa39b223fe8d0a0e5c4f27ead9083c756cc2",
                    "callData": "0x0000000000000000000000000d4a11d5eeaac28ec3f61d100daf4d40471f1852",
                    "decodedMethod": {
                        "callParams": [
                            {
                                "name": "",
                                "type": "address",
                                "value": "0x0d4a11d5eeaac28ec3f61d100daf4d40471f1852"
                            }
                        ],
                        "constructorArguments": "",
                        "name": "balanceOf",
                        "returnParams": [
                            {
                                "decimalAvailable": true,
                                "name": "",
                                "type": "uint256",
                                "value": "15,329,631,416,788,736,004,761"
                            }
                        ],
                        "signature": "balanceOf(address)"
                    },
                    "errorInfo": "",
                    "fromAddress": "0x0d4a11d5eeaac28ec3f61d100daf4d40471f1852",
                    "gasUsed": 534,
                    "id": 10,
                    "methodDecoded": true,
                    "operation": "STATICCALL",
                    "output": "0x00000000000000000000000000000000000000000000033f055f39b380b7d299",
                    "revert": false,
                    "revertMessage": "",
                    "selector": "0x70a08231",
                    "status": true,
                    "value": "0"
                },
                "nodeType": 0
            },
            "11": {
                "invocation": {
                    "address": "0xdac17f958d2ee523a2206206994597c13d831ec7",
                    "callData": "0x0000000000000000000000000d4a11d5eeaac28ec3f61d100daf4d40471f1852",
                    "decodedMethod": {
                        "callParams": [
                            {
                                "name": "who",
                                "type": "address",
                                "value": "0x0d4a11d5eeaac28ec3f61d100daf4d40471f1852"
                            }
                        ],
                        "constructorArguments": "",
                        "name": "balanceOf",
                        "returnParams": [
                            {
                                "decimalAvailable": true,
                                "name": "",
                                "type": "uint256",
                                "value": "57,666,648,974,818"
                            }
                        ],
                        "signature": "balanceOf(address)"
                    },
                    "errorInfo": "",
                    "fromAddress": "0x0d4a11d5eeaac28ec3f61d100daf4d40471f1852",
                    "gasUsed": 1031,
                    "id": 11,
                    "methodDecoded": true,
                    "operation": "STATICCALL",
                    "output": "0x000000000000000000000000000000000000000000000000000034729020a5e2",
                    "revert": false,
                    "revertMessage": "",
                    "selector": "0x70a08231",
                    "status": true,
                    "value": "0"
                },
                "nodeType": 0
            },
            "12": {
                "event": {
                    "contract": "0x0d4a11d5eeaac28ec3f61d100daf4d40471f1852",
                    "decodedLog": {
                        "name": "Sync",
                        "params": [
                            {
                                "name": "reserve0",
                                "type": "uint112",
                                "value": "15,329,631,416,788,736,004,761"
                            },
                            {
                                "name": "reserve1",
                                "type": "uint112",
                                "value": "57,666,648,974,818"
                            }
                        ],
                        "signature": "Sync(uint112,uint112)"
                    },
                    "id": 12,
                    "logData": "0x00000000000000000000000000000000000000000000033f055f39b380b7d299000000000000000000000000000000000000000000000000000034729020a5e2",
                    "logDecoded": true,
                    "operation": "EVENT",
                    "revert": false,
                    "status": true,
                    "topics": [
                        "0x1c411e9a96e071241c2f21f7726b17ae89e3cab4c78be50e062b03a9fffbbad1"
                    ]
                },
                "nodeType": 1
            },
            "13": {
                "event": {
                    "contract": "0x0d4a11d5eeaac28ec3f61d100daf4d40471f1852",
                    "decodedLog": {
                        "name": "Swap",
                        "params": [
                            {
                                "name": "sender",
                                "type": "address",
                                "value": "0x3fc91a3afd70395cd496c647d5a6cc9d4b2b7fad"
                            },
                            {
                                "name": "to",
                                "type": "address",
                                "value": "0x0c3fdf9c70835f9be9db9585ecb6a1ee3f20a6c7"
                            },
                            {
                                "name": "amount0In",
                                "type": "uint256",
                                "value": "0"
                            },
                            {
                                "name": "amount1In",
                                "type": "uint256",
                                "value": "249,140,847"
                            },
                            {
                                "name": "amount0Out",
                                "type": "uint256",
                                "value": "66,031,166,403,200,383"
                            },
                            {
                                "name": "amount1Out",
                                "type": "uint256",
                                "value": "0"
                            }
                        ],
                        "signature": "Swap(address,uint256,uint256,uint256,uint256,address)"
                    },
                    "id": 13,
                    "logData": "0x0000000000000000000000000000000000000000000000000000000000000000000000000000000000000000000000000000000000000000000000000ed9966f00000000000000000000000000000000000000000000000000ea96fef991457f0000000000000000000000000000000000000000000000000000000000000000",
                    "logDecoded": true,
                    "operation": "EVENT",
                    "revert": false,
                    "status": true,
                    "topics": [
                        "0xd78ad95fa46c994b6551d0da85fc275fe613ce37657fb8d5e3d130840159d822",
                        "0x0000000000000000000000003fc91a3afd70395cd496c647d5a6cc9d4b2b7fad",
                        "0x0000000000000000000000000c3fdf9c70835f9be9db9585ecb6a1ee3f20a6c7"
                    ]
                },
                "nodeType": 1
            },
            "14": {
                "invocation": {
                    "address": "0x0c3fdf9c70835f9be9db9585ecb6a1ee3f20a6c7",
                    "callData": "0x",
                    "decodedMethod": {
                        "callParams": [],
                        "constructorArguments": "",
                        "name": "getReserves",
                        "returnParams": [
                            {
                                "name": "_reserve0",
                                "type": "uint112",
                                "value": "549,107,996,571,553,928,081"
                            },
                            {
                                "name": "_reserve1",
                                "type": "uint112",
                                "value": "3,935,132,034,721,580,478"
                            },
                            {
                                "name": "_blockTimestampLast",
                                "type": "uint32",
                                "value": "1,717,016,975"
                            }
                        ],
                        "signature": "getReserves()"
                    },
                    "errorInfo": "",
                    "fromAddress": "0x3fc91a3afd70395cd496c647d5a6cc9d4b2b7fad",
                    "gasUsed": 2504,
                    "id": 14,
                    "methodDecoded": true,
                    "operation": "STATICCALL",
                    "output": "0x00000000000000000000000000000000000000000000001dc4677d953de29391000000000000000000000000000000000000000000000000369c65bc81d705be000000000000000000000000000000000000000000000000000000006657998f",
                    "revert": false,
                    "revertMessage": "",
                    "selector": "0x0902f1ac",
                    "status": true,
                    "value": "0"
                },
                "nodeType": 0
            },
            "15": {
                "invocation": {
                    "address": "0xc02aaa39b223fe8d0a0e5c4f27ead9083c756cc2",
                    "callData": "0x0000000000000000000000000c3fdf9c70835f9be9db9585ecb6a1ee3f20a6c7",
                    "decodedMethod": {
                        "callParams": [
                            {
                                "name": "",
                                "type": "address",
                                "value": "0x0c3fdf9c70835f9be9db9585ecb6a1ee3f20a6c7"
                            }
                        ],
                        "constructorArguments": "",
                        "name": "balanceOf",
                        "returnParams": [
                            {
                                "decimalAvailable": true,
                                "name": "",
                                "type": "uint256",
                                "value": "549,174,027,737,957,128,464"
                            }
                        ],
                        "signature": "balanceOf(address)"
                    },
                    "errorInfo": "",
                    "fromAddress": "0x3fc91a3afd70395cd496c647d5a6cc9d4b2b7fad",
                    "gasUsed": 534,
                    "id": 15,
                    "methodDecoded": true,
                    "operation": "STATICCALL",
                    "output": "0x00000000000000000000000000000000000000000000001dc55214943773d910",
                    "revert": false,
                    "revertMessage": "",
                    "selector": "0x70a08231",
                    "status": true,
                    "value": "0"
                },
                "nodeType": 0
            },
            "16": {
                "invocation": {
                    "address": "0x0c3fdf9c70835f9be9db9585ecb6a1ee3f20a6c7",
                    "callData": "0x00000000000000000000000000000000000000000000000000000000000000000000000000000000000000000000000000000000000000000001ad0939f7fac70000000000000000000000003fc91a3afd70395cd496c647d5a6cc9d4b2b7fad00000000000000000000000000000000000000000000000000000000000000800000000000000000000000000000000000000000000000000000000000000000",
                    "decodedMethod": {
                        "callParams": [
                            {
                                "name": "amount0Out",
                                "type": "uint256",
                                "value": "0"
                            },
                            {
                                "name": "amount1Out",
                                "type": "uint256",
                                "value": "471,730,115,574,471"
                            },
                            {
                                "name": "to",
                                "type": "address",
                                "value": "0x3fc91a3afd70395cd496c647d5a6cc9d4b2b7fad"
                            },
                            {
                                "name": "data",
                                "type": "bytes",
                                "value": "0x"
                            }
                        ],
                        "constructorArguments": "",
                        "name": "swap",
                        "returnParams": [],
                        "signature": "swap(uint256,uint256,address,bytes)"
                    },
                    "errorInfo": "",
                    "fromAddress": "0x3fc91a3afd70395cd496c647d5a6cc9d4b2b7fad",
                    "gasUsed": 96689,
                    "id": 16,
                    "methodDecoded": true,
                    "operation": "CALL",
                    "output": "",
                    "revert": false,
                    "revertMessage": "",
                    "selector": "0x022c0d9f",
                    "status": true,
                    "value": "0"
                },
                "nodeType": 0
            },
            "17": {
                "invocation": {
                    "address": "0xd29da236dd4aac627346e1bba06a619e8c22d7c5",
                    "callData": "0x0000000000000000000000003fc91a3afd70395cd496c647d5a6cc9d4b2b7fad0000000000000000000000000000000000000000000000000001ad0939f7fac7",
                    "decodedMethod": {
                        "callParams": [
                            {
                                "name": "recipient",
                                "type": "address",
                                "value": "0x3fc91a3afd70395cd496c647d5a6cc9d4b2b7fad"
                            },
                            {
                                "decimalAvailable": true,
                                "name": "amount",
                                "type": "uint256",
                                "value": "471,730,115,574,471"
                            }
                        ],
                        "constructorArguments": "",
                        "name": "transfer",
                        "returnParams": [
                            {
                                "name": "",
                                "type": "bool",
                                "value": true
                            }
                        ],
                        "signature": "transfer(address,uint256)"
                    },
                    "errorInfo": "",
                    "fromAddress": "0x0c3fdf9c70835f9be9db9585ecb6a1ee3f20a6c7",
                    "gasUsed": 64171,
                    "id": 17,
                    "methodDecoded": true,
                    "operation": "CALL",
                    "output": "0x0000000000000000000000000000000000000000000000000000000000000001",
                    "revert": false,
                    "revertMessage": "",
                    "selector": "0xa9059cbb",
                    "status": true,
                    "value": "0"
                },
                "nodeType": 0
            },
            "18": {
                "event": {
                    "contract": "0xd29da236dd4aac627346e1bba06a619e8c22d7c5",
                    "decodedLog": {
                        "name": "Transfer",
                        "params": [
                            {
                                "name": "from",
                                "type": "address",
                                "value": "0x0c3fdf9c70835f9be9db9585ecb6a1ee3f20a6c7"
                            },
                            {
                                "name": "to",
                                "type": "address",
                                "value": "0x3fc91a3afd70395cd496c647d5a6cc9d4b2b7fad"
                            },
                            {
                                "decimalAvailable": true,
                                "name": "value",
                                "type": "uint256",
                                "value": "471,730,115,574,471"
                            }
                        ],
                        "signature": "Transfer(address,address,uint256)"
                    },
                    "id": 18,
                    "logData": "0x0000000000000000000000000000000000000000000000000001ad0939f7fac7",
                    "logDecoded": true,
                    "operation": "EVENT",
                    "revert": false,
                    "status": true,
                    "topics": [
                        "0xddf252ad1be2c89b69c2b068fc378daa952ba7f163c4a11628f55a4df523b3ef",
                        "0x0000000000000000000000000c3fdf9c70835f9be9db9585ecb6a1ee3f20a6c7",
                        "0x0000000000000000000000003fc91a3afd70395cd496c647d5a6cc9d4b2b7fad"
                    ]
                },
                "nodeType": 1
            },
            "19": {
                "invocation": {
                    "address": "0xc02aaa39b223fe8d0a0e5c4f27ead9083c756cc2",
                    "callData": "0x0000000000000000000000000c3fdf9c70835f9be9db9585ecb6a1ee3f20a6c7",
                    "decodedMethod": {
                        "callParams": [
                            {
                                "name": "",
                                "type": "address",
                                "value": "0x0c3fdf9c70835f9be9db9585ecb6a1ee3f20a6c7"
                            }
                        ],
                        "constructorArguments": "",
                        "name": "balanceOf",
                        "returnParams": [
                            {
                                "decimalAvailable": true,
                                "name": "",
                                "type": "uint256",
                                "value": "549,174,027,737,957,128,464"
                            }
                        ],
                        "signature": "balanceOf(address)"
                    },
                    "errorInfo": "",
                    "fromAddress": "0x0c3fdf9c70835f9be9db9585ecb6a1ee3f20a6c7",
                    "gasUsed": 534,
                    "id": 19,
                    "methodDecoded": true,
                    "operation": "STATICCALL",
                    "output": "0x00000000000000000000000000000000000000000000001dc55214943773d910",
                    "revert": false,
                    "revertMessage": "",
                    "selector": "0x70a08231",
                    "status": true,
                    "value": "0"
                },
                "nodeType": 0
            },
            "2": {
                "invocation": {
                    "address": "0xdac17f958d2ee523a2206206994597c13d831ec7",
                    "callData": "0x00000000000000000000000070fdb962a31109022d55b1cb428f59522946fe0d0000000000000000000000000d4a11d5eeaac28ec3f61d100daf4d40471f1852000000000000000000000000000000000000000000000000000000000ed9966f",
                    "decodedMethod": {
                        "callParams": [
                            {
                                "name": "_from",
                                "type": "address",
                                "value": "0x70fdb962a31109022d55b1cb428f59522946fe0d"
                            },
                            {
                                "name": "_to",
                                "type": "address",
                                "value": "0x0d4a11d5eeaac28ec3f61d100daf4d40471f1852"
                            },
                            {
                                "decimalAvailable": true,
                                "name": "_value",
                                "type": "uint256",
                                "value": "249,140,847"
                            }
                        ],
                        "constructorArguments": "",
                        "name": "transferFrom",
                        "returnParams": [],
                        "signature": "transferFrom(address,address,uint256)"
                    },
                    "errorInfo": "",
                    "fromAddress": "0x000000000022d473030f116ddee9f6b43ac78ba3",
                    "gasUsed": 26530,
                    "id": 2,
                    "methodDecoded": true,
                    "operation": "CALL",
                    "output": "",
                    "revert": false,
                    "revertMessage": "",
                    "selector": "0x23b872dd",
                    "status": true,
                    "value": "0"
                },
                "nodeType": 0
            },
            "20": {
                "invocation": {
                    "address": "0xd29da236dd4aac627346e1bba06a619e8c22d7c5",
                    "callData": "0x0000000000000000000000000c3fdf9c70835f9be9db9585ecb6a1ee3f20a6c7",
                    "decodedMethod": {
                        "callParams": [
                            {
                                "name": "account",
                                "type": "address",
                                "value": "0x0c3fdf9c70835f9be9db9585ecb6a1ee3f20a6c7"
                            }
                        ],
                        "constructorArguments": "",
                        "name": "balanceOf",
                        "returnParams": [
                            {
                                "decimalAvailable": true,
                                "name": "",
                                "type": "uint256",
                                "value": "3,934,660,304,606,006,007"
                            }
                        ],
                        "signature": "balanceOf(address)"
                    },
                    "errorInfo": "",
                    "fromAddress": "0x0c3fdf9c70835f9be9db9585ecb6a1ee3f20a6c7",
                    "gasUsed": 661,
                    "id": 20,
                    "methodDecoded": true,
                    "operation": "STATICCALL",
                    "output": "0x000000000000000000000000000000000000000000000000369ab8b347df0af7",
                    "revert": false,
                    "revertMessage": "",
                    "selector": "0x70a08231",
                    "status": true,
                    "value": "0"
                },
                "nodeType": 0
            },
            "21": {
                "event": {
                    "contract": "0x0c3fdf9c70835f9be9db9585ecb6a1ee3f20a6c7",
                    "decodedLog": {
                        "name": "Sync",
                        "params": [
                            {
                                "name": "reserve0",
                                "type": "uint112",
                                "value": "549,174,027,737,957,128,464"
                            },
                            {
                                "name": "reserve1",
                                "type": "uint112",
                                "value": "3,934,660,304,606,006,007"
                            }
                        ],
                        "signature": "Sync(uint112,uint112)"
                    },
                    "id": 21,
                    "logData": "0x00000000000000000000000000000000000000000000001dc55214943773d910000000000000000000000000000000000000000000000000369ab8b347df0af7",
                    "logDecoded": true,
                    "operation": "EVENT",
                    "revert": false,
                    "status": true,
                    "topics": [
                        "0x1c411e9a96e071241c2f21f7726b17ae89e3cab4c78be50e062b03a9fffbbad1"
                    ]
                },
                "nodeType": 1
            },
            "22": {
                "event": {
                    "contract": "0x0c3fdf9c70835f9be9db9585ecb6a1ee3f20a6c7",
                    "decodedLog": {
                        "name": "Swap",
                        "params": [
                            {
                                "name": "sender",
                                "type": "address",
                                "value": "0x3fc91a3afd70395cd496c647d5a6cc9d4b2b7fad"
                            },
                            {
                                "name": "to",
                                "type": "address",
                                "value": "0x3fc91a3afd70395cd496c647d5a6cc9d4b2b7fad"
                            },
                            {
                                "name": "amount0In",
                                "type": "uint256",
                                "value": "66,031,166,403,200,383"
                            },
                            {
                                "name": "amount1In",
                                "type": "uint256",
                                "value": "0"
                            },
                            {
                                "name": "amount0Out",
                                "type": "uint256",
                                "value": "0"
                            },
                            {
                                "name": "amount1Out",
                                "type": "uint256",
                                "value": "471,730,115,574,471"
                            }
                        ],
                        "signature": "Swap(address,uint256,uint256,uint256,uint256,address)"
                    },
                    "id": 22,
                    "logData": "0x00000000000000000000000000000000000000000000000000ea96fef991457f000000000000000000000000000000000000000000000000000000000000000000000000000000000000000000000000000000000000000000000000000000000000000000000000000000000000000000000000000000000001ad0939f7fac7",
                    "logDecoded": true,
                    "operation": "EVENT",
                    "revert": false,
                    "status": true,
                    "topics": [
                        "0xd78ad95fa46c994b6551d0da85fc275fe613ce37657fb8d5e3d130840159d822",
                        "0x0000000000000000000000003fc91a3afd70395cd496c647d5a6cc9d4b2b7fad",
                        "0x0000000000000000000000003fc91a3afd70395cd496c647d5a6cc9d4b2b7fad"
                    ]
                },
                "nodeType": 1
            },
            "23": {
                "invocation": {
                    "address": "0xd29da236dd4aac627346e1bba06a619e8c22d7c5",
                    "callData": "0x0000000000000000000000003fc91a3afd70395cd496c647d5a6cc9d4b2b7fad",
                    "decodedMethod": {
                        "callParams": [
                            {
                                "name": "account",
                                "type": "address",
                                "value": "0x3fc91a3afd70395cd496c647d5a6cc9d4b2b7fad"
                            }
                        ],
                        "constructorArguments": "",
                        "name": "balanceOf",
                        "returnParams": [
                            {
                                "decimalAvailable": true,
                                "name": "",
                                "type": "uint256",
                                "value": "471,730,115,574,471"
                            }
                        ],
                        "signature": "balanceOf(address)"
                    },
                    "errorInfo": "",
                    "fromAddress": "0x3fc91a3afd70395cd496c647d5a6cc9d4b2b7fad",
                    "gasUsed": 661,
                    "id": 23,
                    "methodDecoded": true,
                    "operation": "STATICCALL",
                    "output": "0x0000000000000000000000000000000000000000000000000001ad0939f7fac7",
                    "revert": false,
                    "revertMessage": "",
                    "selector": "0x70a08231",
                    "status": true,
                    "value": "0"
                },
                "nodeType": 0
            },
            "24": {
                "invocation": {
                    "address": "0xd29da236dd4aac627346e1bba06a619e8c22d7c5",
                    "callData": "0x0000000000000000000000003fc91a3afd70395cd496c647d5a6cc9d4b2b7fad",
                    "decodedMethod": {
                        "callParams": [
                            {
                                "name": "account",
                                "type": "address",
                                "value": "0x3fc91a3afd70395cd496c647d5a6cc9d4b2b7fad"
                            }
                        ],
                        "constructorArguments": "",
                        "name": "balanceOf",
                        "returnParams": [
                            {
                                "decimalAvailable": true,
                                "name": "",
                                "type": "uint256",
                                "value": "471,730,115,574,471"
                            }
                        ],
                        "signature": "balanceOf(address)"
                    },
                    "errorInfo": "",
                    "fromAddress": "0x3fc91a3afd70395cd496c647d5a6cc9d4b2b7fad",
                    "gasUsed": 661,
                    "id": 24,
                    "methodDecoded": true,
                    "operation": "STATICCALL",
                    "output": "0x0000000000000000000000000000000000000000000000000001ad0939f7fac7",
                    "revert": false,
                    "revertMessage": "",
                    "selector": "0x70a08231",
                    "status": true,
                    "value": "0"
                },
                "nodeType": 0
            },
            "25": {
                "invocation": {
                    "address": "0xd29da236dd4aac627346e1bba06a619e8c22d7c5",
                    "callData": "0x000000000000000000000000000000fee13a103a10d593b9ae06b3e05f2e7e1c000000000000000000000000000000000000000000000000000001129543d1e8",
                    "decodedMethod": {
                        "callParams": [
                            {
                                "name": "recipient",
                                "type": "address",
                                "value": "0x000000fee13a103a10d593b9ae06b3e05f2e7e1c"
                            },
                            {
                                "decimalAvailable": true,
                                "name": "amount",
                                "type": "uint256",
                                "value": "1,179,325,288,936"
                            }
                        ],
                        "constructorArguments": "",
                        "name": "transfer",
                        "returnParams": [
                            {
                                "name": "",
                                "type": "bool",
                                "value": true
                            }
                        ],
                        "signature": "transfer(address,uint256)"
                    },
                    "errorInfo": "",
                    "fromAddress": "0x3fc91a3afd70395cd496c647d5a6cc9d4b2b7fad",
                    "gasUsed": 13509,
                    "id": 25,
                    "methodDecoded": true,
                    "operation": "CALL",
                    "output": "0x0000000000000000000000000000000000000000000000000000000000000001",
                    "revert": false,
                    "revertMessage": "",
                    "selector": "0xa9059cbb",
                    "status": true,
                    "value": "0"
                },
                "nodeType": 0
            },
            "26": {
                "event": {
                    "contract": "0xd29da236dd4aac627346e1bba06a619e8c22d7c5",
                    "decodedLog": {
                        "name": "Transfer",
                        "params": [
                            {
                                "name": "from",
                                "type": "address",
                                "value": "0x3fc91a3afd70395cd496c647d5a6cc9d4b2b7fad"
                            },
                            {
                                "name": "to",
                                "type": "address",
                                "value": "0x000000fee13a103a10d593b9ae06b3e05f2e7e1c"
                            },
                            {
                                "decimalAvailable": true,
                                "name": "value",
                                "type": "uint256",
                                "value": "1,179,325,288,936"
                            }
                        ],
                        "signature": "Transfer(address,address,uint256)"
                    },
                    "id": 26,
                    "logData": "0x000000000000000000000000000000000000000000000000000001129543d1e8",
                    "logDecoded": true,
                    "operation": "EVENT",
                    "revert": false,
                    "status": true,
                    "topics": [
                        "0xddf252ad1be2c89b69c2b068fc378daa952ba7f163c4a11628f55a4df523b3ef",
                        "0x0000000000000000000000003fc91a3afd70395cd496c647d5a6cc9d4b2b7fad",
                        "0x000000000000000000000000000000fee13a103a10d593b9ae06b3e05f2e7e1c"
                    ]
                },
                "nodeType": 1
            },
            "27": {
                "invocation": {
                    "address": "0xd29da236dd4aac627346e1bba06a619e8c22d7c5",
                    "callData": "0x0000000000000000000000003fc91a3afd70395cd496c647d5a6cc9d4b2b7fad",
                    "decodedMethod": {
                        "callParams": [
                            {
                                "name": "account",
                                "type": "address",
                                "value": "0x3fc91a3afd70395cd496c647d5a6cc9d4b2b7fad"
                            }
                        ],
                        "constructorArguments": "",
                        "name": "balanceOf",
                        "returnParams": [
                            {
                                "decimalAvailable": true,
                                "name": "",
                                "type": "uint256",
                                "value": "470,550,790,285,535"
                            }
                        ],
                        "signature": "balanceOf(address)"
                    },
                    "errorInfo": "",
                    "fromAddress": "0x3fc91a3afd70395cd496c647d5a6cc9d4b2b7fad",
                    "gasUsed": 661,
                    "id": 27,
                    "methodDecoded": true,
                    "operation": "STATICCALL",
                    "output": "0x0000000000000000000000000000000000000000000000000001abf6a4b428df",
                    "revert": false,
                    "revertMessage": "",
                    "selector": "0x70a08231",
                    "status": true,
                    "value": "0"
                },
                "nodeType": 0
            },
            "28": {
                "invocation": {
                    "address": "0xd29da236dd4aac627346e1bba06a619e8c22d7c5",
                    "callData": "0x00000000000000000000000070fdb962a31109022d55b1cb428f59522946fe0d0000000000000000000000000000000000000000000000000001abf6a4b428df",
                    "decodedMethod": {
                        "callParams": [
                            {
                                "name": "recipient",
                                "type": "address",
                                "value": "0x70fdb962a31109022d55b1cb428f59522946fe0d"
                            },
                            {
                                "decimalAvailable": true,
                                "name": "amount",
                                "type": "uint256",
                                "value": "470,550,790,285,535"
                            }
                        ],
                        "constructorArguments": "",
                        "name": "transfer",
                        "returnParams": [
                            {
                                "name": "",
                                "type": "bool",
                                "value": true
                            }
                        ],
                        "signature": "transfer(address,uint256)"
                    },
                    "errorInfo": "",
                    "fromAddress": "0x3fc91a3afd70395cd496c647d5a6cc9d4b2b7fad",
                    "gasUsed": 30609,
                    "id": 28,
                    "methodDecoded": true,
                    "operation": "CALL",
                    "output": "0x0000000000000000000000000000000000000000000000000000000000000001",
                    "revert": false,
                    "revertMessage": "",
                    "selector": "0xa9059cbb",
                    "status": true,
                    "value": "0"
                },
                "nodeType": 0
            },
            "29": {
                "event": {
                    "contract": "0xd29da236dd4aac627346e1bba06a619e8c22d7c5",
                    "decodedLog": {
                        "name": "Transfer",
                        "params": [
                            {
                                "name": "from",
                                "type": "address",
                                "value": "0x3fc91a3afd70395cd496c647d5a6cc9d4b2b7fad"
                            },
                            {
                                "name": "to",
                                "type": "address",
                                "value": "0x70fdb962a31109022d55b1cb428f59522946fe0d"
                            },
                            {
                                "decimalAvailable": true,
                                "name": "value",
                                "type": "uint256",
                                "value": "470,550,790,285,535"
                            }
                        ],
                        "signature": "Transfer(address,address,uint256)"
                    },
                    "id": 29,
                    "logData": "0x0000000000000000000000000000000000000000000000000001abf6a4b428df",
                    "logDecoded": true,
                    "operation": "EVENT",
                    "revert": false,
                    "status": true,
                    "topics": [
                        "0xddf252ad1be2c89b69c2b068fc378daa952ba7f163c4a11628f55a4df523b3ef",
                        "0x0000000000000000000000003fc91a3afd70395cd496c647d5a6cc9d4b2b7fad",
                        "0x00000000000000000000000070fdb962a31109022d55b1cb428f59522946fe0d"
                    ]
                },
                "nodeType": 1
            },
            "3": {
                "event": {
                    "contract": "0xdac17f958d2ee523a2206206994597c13d831ec7",
                    "decodedLog": {
                        "name": "Transfer",
                        "params": [
                            {
                                "name": "from",
                                "type": "address",
                                "value": "0x70fdb962a31109022d55b1cb428f59522946fe0d"
                            },
                            {
                                "name": "to",
                                "type": "address",
                                "value": "0x0d4a11d5eeaac28ec3f61d100daf4d40471f1852"
                            },
                            {
                                "decimalAvailable": true,
                                "name": "value",
                                "type": "uint256",
                                "value": "249,140,847"
                            }
                        ],
                        "signature": "Transfer(address,address,uint256)"
                    },
                    "id": 3,
                    "logData": "0x000000000000000000000000000000000000000000000000000000000ed9966f",
                    "logDecoded": true,
                    "operation": "EVENT",
                    "revert": false,
                    "status": true,
                    "topics": [
                        "0xddf252ad1be2c89b69c2b068fc378daa952ba7f163c4a11628f55a4df523b3ef",
                        "0x00000000000000000000000070fdb962a31109022d55b1cb428f59522946fe0d",
                        "0x0000000000000000000000000d4a11d5eeaac28ec3f61d100daf4d40471f1852"
                    ]
                },
                "nodeType": 1
            },
            "4": {
                "invocation": {
                    "address": "0xd29da236dd4aac627346e1bba06a619e8c22d7c5",
                    "callData": "0x0000000000000000000000003fc91a3afd70395cd496c647d5a6cc9d4b2b7fad",
                    "decodedMethod": {
                        "callParams": [
                            {
                                "name": "account",
                                "type": "address",
                                "value": "0x3fc91a3afd70395cd496c647d5a6cc9d4b2b7fad"
                            }
                        ],
                        "constructorArguments": "",
                        "name": "balanceOf",
                        "returnParams": [
                            {
                                "decimalAvailable": true,
                                "name": "",
                                "type": "uint256",
                                "value": "0"
                            }
                        ],
                        "signature": "balanceOf(address)"
                    },
                    "errorInfo": "",
                    "fromAddress": "0x3fc91a3afd70395cd496c647d5a6cc9d4b2b7fad",
                    "gasUsed": 2661,
                    "id": 4,
                    "methodDecoded": true,
                    "operation": "STATICCALL",
                    "output": "0x0000000000000000000000000000000000000000000000000000000000000000",
                    "revert": false,
                    "revertMessage": "",
                    "selector": "0x70a08231",
                    "status": true,
                    "value": "0"
                },
                "nodeType": 0
            },
            "5": {
                "invocation": {
                    "address": "0x0d4a11d5eeaac28ec3f61d100daf4d40471f1852",
                    "callData": "0x",
                    "decodedMethod": {
                        "callParams": [],
                        "constructorArguments": "",
                        "name": "getReserves",
                        "returnParams": [
                            {
                                "name": "_reserve0",
                                "type": "uint112",
                                "value": "15,329,697,447,955,139,205,144"
                            },
                            {
                                "name": "_reserve1",
                                "type": "uint112",
                                "value": "57,666,399,833,971"
                            },
                            {
                                "name": "_blockTimestampLast",
                                "type": "uint32",
                                "value": "1,717,016,999"
                            }
                        ],
                        "signature": "getReserves()"
                    },
                    "errorInfo": "",
                    "fromAddress": "0x3fc91a3afd70395cd496c647d5a6cc9d4b2b7fad",
                    "gasUsed": 2504,
                    "id": 5,
                    "methodDecoded": true,
                    "operation": "STATICCALL",
                    "output": "0x00000000000000000000000000000000000000000000033f0649d0b27a4918180000000000000000000000000000000000000000000000000000347281470f7300000000000000000000000000000000000000000000000000000000665799a7",
                    "revert": false,
                    "revertMessage": "",
                    "selector": "0x0902f1ac",
                    "status": true,
                    "value": "0"
                },
                "nodeType": 0
            },
            "6": {
                "invocation": {
                    "address": "0xdac17f958d2ee523a2206206994597c13d831ec7",
                    "callData": "0x0000000000000000000000000d4a11d5eeaac28ec3f61d100daf4d40471f1852",
                    "decodedMethod": {
                        "callParams": [
                            {
                                "name": "who",
                                "type": "address",
                                "value": "0x0d4a11d5eeaac28ec3f61d100daf4d40471f1852"
                            }
                        ],
                        "constructorArguments": "",
                        "name": "balanceOf",
                        "returnParams": [
                            {
                                "decimalAvailable": true,
                                "name": "",
                                "type": "uint256",
                                "value": "57,666,648,974,818"
                            }
                        ],
                        "signature": "balanceOf(address)"
                    },
                    "errorInfo": "",
                    "fromAddress": "0x3fc91a3afd70395cd496c647d5a6cc9d4b2b7fad",
                    "gasUsed": 1031,
                    "id": 6,
                    "methodDecoded": true,
                    "operation": "STATICCALL",
                    "output": "0x000000000000000000000000000000000000000000000000000034729020a5e2",
                    "revert": false,
                    "revertMessage": "",
                    "selector": "0x70a08231",
                    "status": true,
                    "value": "0"
                },
                "nodeType": 0
            },
            "7": {
                "invocation": {
                    "address": "0x0d4a11d5eeaac28ec3f61d100daf4d40471f1852",
                    "callData": "0x00000000000000000000000000000000000000000000000000ea96fef991457f00000000000000000000000000000000000000000000000000000000000000000000000000000000000000000c3fdf9c70835f9be9db9585ecb6a1ee3f20a6c700000000000000000000000000000000000000000000000000000000000000800000000000000000000000000000000000000000000000000000000000000000",
                    "decodedMethod": {
                        "callParams": [
                            {
                                "name": "amount0Out",
                                "type": "uint256",
                                "value": "66,031,166,403,200,383"
                            },
                            {
                                "name": "amount1Out",
                                "type": "uint256",
                                "value": "0"
                            },
                            {
                                "name": "to",
                                "type": "address",
                                "value": "0x0c3fdf9c70835f9be9db9585ecb6a1ee3f20a6c7"
                            },
                            {
                                "name": "data",
                                "type": "bytes",
                                "value": "0x"
                            }
                        ],
                        "constructorArguments": "",
                        "name": "swap",
                        "returnParams": [],
                        "signature": "swap(uint256,uint256,address,bytes)"
                    },
                    "errorInfo": "",
                    "fromAddress": "0x3fc91a3afd70395cd496c647d5a6cc9d4b2b7fad",
                    "gasUsed": 48250,
                    "id": 7,
                    "methodDecoded": true,
                    "operation": "CALL",
                    "output": "",
                    "revert": false,
                    "revertMessage": "",
                    "selector": "0x022c0d9f",
                    "status": true,
                    "value": "0"
                },
                "nodeType": 0
            },
            "8": {
                "invocation": {
                    "address": "0xc02aaa39b223fe8d0a0e5c4f27ead9083c756cc2",
                    "callData": "0x0000000000000000000000000c3fdf9c70835f9be9db9585ecb6a1ee3f20a6c700000000000000000000000000000000000000000000000000ea96fef991457f",
                    "decodedMethod": {
                        "callParams": [
                            {
                                "name": "dst",
                                "type": "address",
                                "value": "0x0c3fdf9c70835f9be9db9585ecb6a1ee3f20a6c7"
                            },
                            {
                                "decimalAvailable": true,
                                "name": "wad",
                                "type": "uint256",
                                "value": "66,031,166,403,200,383"
                            }
                        ],
                        "constructorArguments": "",
                        "name": "transfer",
                        "returnParams": [
                            {
                                "name": "",
                                "type": "bool",
                                "value": true
                            }
                        ],
                        "signature": "transfer(address,uint256)"
                    },
                    "errorInfo": "",
                    "fromAddress": "0x0d4a11d5eeaac28ec3f61d100daf4d40471f1852",
                    "gasUsed": 12862,
                    "id": 8,
                    "methodDecoded": true,
                    "operation": "CALL",
                    "output": "0x0000000000000000000000000000000000000000000000000000000000000001",
                    "revert": false,
                    "revertMessage": "",
                    "selector": "0xa9059cbb",
                    "status": true,
                    "value": "0"
                },
                "nodeType": 0
            },
            "9": {
                "event": {
                    "contract": "0xc02aaa39b223fe8d0a0e5c4f27ead9083c756cc2",
                    "decodedLog": {
                        "name": "Transfer",
                        "params": [
                            {
                                "name": "src",
                                "type": "address",
                                "value": "0x0d4a11d5eeaac28ec3f61d100daf4d40471f1852"
                            },
                            {
                                "name": "dst",
                                "type": "address",
                                "value": "0x0c3fdf9c70835f9be9db9585ecb6a1ee3f20a6c7"
                            },
                            {
                                "decimalAvailable": true,
                                "name": "wad",
                                "type": "uint256",
                                "value": "66,031,166,403,200,383"
                            }
                        ],
                        "signature": "Transfer(address,address,uint256)"
                    },
                    "id": 9,
                    "logData": "0x00000000000000000000000000000000000000000000000000ea96fef991457f",
                    "logDecoded": true,
                    "operation": "EVENT",
                    "revert": false,
                    "status": true,
                    "topics": [
                        "0xddf252ad1be2c89b69c2b068fc378daa952ba7f163c4a11628f55a4df523b3ef",
                        "0x0000000000000000000000000d4a11d5eeaac28ec3f61d100daf4d40471f1852",
                        "0x0000000000000000000000000c3fdf9c70835f9be9db9585ecb6a1ee3f20a6c7"
                    ]
                },
                "nodeType": 1
            }
        },
        "gasFlame": [
            {
                "children": [
                    {
                        "children": [
                            {
                                "children": [],
                                "depth": 0,
                                "name": "Initial Gas",
                                "value": 26452
                            },
                            {
                                "children": [
                                    {
                                        "children": [
                                            {
                                                "children": [],
                                                "depth": 2,
                                                "name": "transferFrom",
                                                "value": 26530
                                            }
                                        ],
                                        "depth": 1,
                                        "name": "transferFrom",
                                        "value": 32237
                                    },
                                    {
                                        "children": [],
                                        "depth": 1,
                                        "name": "balanceOf",
                                        "value": 2661
                                    },
                                    {
                                        "children": [],
                                        "depth": 1,
                                        "name": "getReserves",
                                        "value": 2504
                                    },
                                    {
                                        "children": [],
                                        "depth": 1,
                                        "name": "balanceOf",
                                        "value": 1031
                                    },
                                    {
                                        "children": [
                                            {
                                                "children": [],
                                                "depth": 2,
                                                "name": "transfer",
                                                "value": 12862
                                            },
                                            {
                                                "children": [],
                                                "depth": 2,
                                                "name": "balanceOf",
                                                "value": 534
                                            },
                                            {
                                                "children": [],
                                                "depth": 2,
                                                "name": "balanceOf",
                                                "value": 1031
                                            }
                                        ],
                                        "depth": 1,
                                        "name": "swap",
                                        "value": 48250
                                    },
                                    {
                                        "children": [],
                                        "depth": 1,
                                        "name": "getReserves",
                                        "value": 2504
                                    },
                                    {
                                        "children": [],
                                        "depth": 1,
                                        "name": "balanceOf",
                                        "value": 534
                                    },
                                    {
                                        "children": [
                                            {
                                                "children": [],
                                                "depth": 2,
                                                "name": "transfer",
                                                "value": 64171
                                            },
                                            {
                                                "children": [],
                                                "depth": 2,
                                                "name": "balanceOf",
                                                "value": 534
                                            },
                                            {
                                                "children": [],
                                                "depth": 2,
                                                "name": "balanceOf",
                                                "value": 661
                                            }
                                        ],
                                        "depth": 1,
                                        "name": "swap",
                                        "value": 96689
                                    },
                                    {
                                        "children": [],
                                        "depth": 1,
                                        "name": "balanceOf",
                                        "value": 661
                                    },
                                    {
                                        "children": [],
                                        "depth": 1,
                                        "name": "balanceOf",
                                        "value": 661
                                    },
                                    {
                                        "children": [],
                                        "depth": 1,
                                        "name": "transfer",
                                        "value": 13509
                                    },
                                    {
                                        "children": [],
                                        "depth": 1,
                                        "name": "balanceOf",
                                        "value": 661
                                    },
                                    {
                                        "children": [],
                                        "depth": 1,
                                        "name": "transfer",
                                        "value": 30609
                                    }
                                ],
                                "depth": 0,
                                "name": "Executed Gas",
                                "value": 261665
                            }
                        ],
                        "depth": -1,
                        "name": "Actual Gas Used",
                        "value": 255017
                    },
                    {
                        "children": [],
                        "depth": -1,
                        "name": "Refunded Gas",
                        "value": 33100
                    }
                ],
                "depth": -2,
                "name": "Total Gas",
                "value": 288117
            }
        ],
        "isConfirmed": true,
        "mainTrace": [
            {
                "children": [
                    {
                        "children": [
                            {
                                "children": [
                                    {
                                        "children": [
                                            {
                                                "children": [],
                                                "depth": 3,
                                                "id": 3,
                                                "order": 3
                                            }
                                        ],
                                        "depth": 2,
                                        "id": 2,
                                        "order": 2
                                    }
                                ],
                                "depth": 1,
                                "id": 1,
                                "order": 1
                            },
                            {
                                "children": [],
                                "depth": 1,
                                "id": 4,
                                "order": 4
                            },
                            {
                                "children": [],
                                "depth": 1,
                                "id": 5,
                                "order": 5
                            },
                            {
                                "children": [],
                                "depth": 1,
                                "id": 6,
                                "order": 6
                            },
                            {
                                "children": [
                                    {
                                        "children": [
                                            {
                                                "children": [],
                                                "depth": 3,
                                                "id": 9,
                                                "order": 9
                                            }
                                        ],
                                        "depth": 2,
                                        "id": 8,
                                        "order": 8
                                    },
                                    {
                                        "children": [],
                                        "depth": 2,
                                        "id": 10,
                                        "order": 10
                                    },
                                    {
                                        "children": [],
                                        "depth": 2,
                                        "id": 11,
                                        "order": 11
                                    },
                                    {
                                        "children": [],
                                        "depth": 2,
                                        "id": 12,
                                        "order": 12
                                    },
                                    {
                                        "children": [],
                                        "depth": 2,
                                        "id": 13,
                                        "order": 13
                                    }
                                ],
                                "depth": 1,
                                "id": 7,
                                "order": 7
                            },
                            {
                                "children": [],
                                "depth": 1,
                                "id": 14,
                                "order": 14
                            },
                            {
                                "children": [],
                                "depth": 1,
                                "id": 15,
                                "order": 15
                            },
                            {
                                "children": [
                                    {
                                        "children": [
                                            {
                                                "children": [],
                                                "depth": 3,
                                                "id": 18,
                                                "order": 18
                                            }
                                        ],
                                        "depth": 2,
                                        "id": 17,
                                        "order": 17
                                    },
                                    {
                                        "children": [],
                                        "depth": 2,
                                        "id": 19,
                                        "order": 19
                                    },
                                    {
                                        "children": [],
                                        "depth": 2,
                                        "id": 20,
                                        "order": 20
                                    },
                                    {
                                        "children": [],
                                        "depth": 2,
                                        "id": 21,
                                        "order": 21
                                    },
                                    {
                                        "children": [],
                                        "depth": 2,
                                        "id": 22,
                                        "order": 22
                                    }
                                ],
                                "depth": 1,
                                "id": 16,
                                "order": 16
                            },
                            {
                                "children": [],
                                "depth": 1,
                                "id": 23,
                                "order": 23
                            },
                            {
                                "children": [],
                                "depth": 1,
                                "id": 24,
                                "order": 24
                            },
                            {
                                "children": [
                                    {
                                        "children": [],
                                        "depth": 2,
                                        "id": 26,
                                        "order": 26
                                    }
                                ],
                                "depth": 1,
                                "id": 25,
                                "order": 25
                            },
                            {
                                "children": [],
                                "depth": 1,
                                "id": 27,
                                "order": 27
                            },
                            {
                                "children": [
                                    {
                                        "children": [],
                                        "depth": 2,
                                        "id": 29,
                                        "order": 29
                                    }
                                ],
                                "depth": 1,
                                "id": 28,
                                "order": 28
                            }
                        ],
                        "depth": 0,
                        "id": 0,
                        "order": 0
                    }
                ],
                "depth": -1,
                "id": -1,
                "order": -1
            }
        ],
        "mainTraceNodeCount": 30,
        "parentIdMap": {
            "0": -1,
            "1": 0,
            "10": 7,
            "11": 7,
            "12": 7,
            "13": 7,
            "14": 0,
            "15": 0,
            "16": 0,
            "17": 16,
            "18": 17,
            "19": 16,
            "2": 1,
            "20": 16,
            "21": 16,
            "22": 16,
            "23": 0,
            "24": 0,
            "25": 0,
            "26": 25,
            "27": 0,
            "28": 0,
            "29": 28,
            "3": 2,
            "4": 0,
            "5": 0,
            "6": 0,
            "7": 0,
            "8": 7,
            "9": 8
        },
        "tidyTrace": [
            {
                "children": [
                    {
                        "children": [
                            {
                                "children": [
                                    {
                                        "children": [
                                            {
                                                "children": [],
                                                "depth": 3,
                                                "id": 3,
                                                "order": 3
                                            }
                                        ],
                                        "depth": 2,
                                        "id": 2,
                                        "order": 2
                                    }
                                ],
                                "depth": 1,
                                "id": 1,
                                "order": 1
                            },
                            {
                                "children": [
                                    {
                                        "children": [
                                            {
                                                "children": [],
                                                "depth": 3,
                                                "id": 9,
                                                "order": 9
                                            }
                                        ],
                                        "depth": 2,
                                        "id": 8,
                                        "order": 8
                                    },
                                    {
                                        "children": [],
                                        "depth": 2,
                                        "id": 12,
                                        "order": 12
                                    },
                                    {
                                        "children": [],
                                        "depth": 2,
                                        "id": 13,
                                        "order": 13
                                    }
                                ],
                                "depth": 1,
                                "id": 7,
                                "order": 7
                            },
                            {
                                "children": [
                                    {
                                        "children": [
                                            {
                                                "children": [],
                                                "depth": 3,
                                                "id": 18,
                                                "order": 18
                                            }
                                        ],
                                        "depth": 2,
                                        "id": 17,
                                        "order": 17
                                    },
                                    {
                                        "children": [],
                                        "depth": 2,
                                        "id": 21,
                                        "order": 21
                                    },
                                    {
                                        "children": [],
                                        "depth": 2,
                                        "id": 22,
                                        "order": 22
                                    }
                                ],
                                "depth": 1,
                                "id": 16,
                                "order": 16
                            },
                            {
                                "children": [
                                    {
                                        "children": [],
                                        "depth": 2,
                                        "id": 26,
                                        "order": 26
                                    }
                                ],
                                "depth": 1,
                                "id": 25,
                                "order": 25
                            },
                            {
                                "children": [
                                    {
                                        "children": [],
                                        "depth": 2,
                                        "id": 29,
                                        "order": 29
                                    }
                                ],
                                "depth": 1,
                                "id": 28,
                                "order": 28
                            }
                        ],
                        "depth": 0,
                        "id": 0,
                        "order": 0
                    }
                ],
                "depth": -1,
                "id": -1,
                "order": -1
            }
        ],
        "tidyTraceNodeCount": 18
    },
    "state_change": {
        "stateChanges": [
            {
                "address": "0x0c3fdf9c70835f9be9db9585ecb6a1ee3f20a6c7",
                "erc": "ERC-20",
                "slots": [
                    {
                        "current": "0x0000000000000000000000000000037bf844bba0f71e58e3e4b99291c190434c",
                        "key": "0x000000000000000000000000000000000000000000000000000000000000000a",
                        "prev": "0x0000000000000000000000000000037be4a54bc1824bfb317ba5623301135874"
                    },
                    {
                        "current": "0x665799b3000000000000369ab8b347df0af700000000001dc55214943773d910",
                        "key": "0x0000000000000000000000000000000000000000000000000000000000000008",
                        "prev": "0x6657998f000000000000369c65bc81d705be00000000001dc4677d953de29391"
                    },
                    {
                        "current": "0x00000000000000000000000000000001bc66495b6e91ff8d96b96e015fccb100",
                        "key": "0x0000000000000000000000000000000000000000000000000000000000000009",
                        "prev": "0x00000000000000000000000000000001bc66074fc0f78d2c86fedab9e751f6ec"
                    }
                ],
                "storageVariables": [
                    {
                        "name": "price1CumulativeLast",
                        "type": "uint256",
                        "value": {
                            "current": "303521594351260791820742926173085574906700",
                            "prev": "303495511175088870557515882966365609613428",
                            "typeTag": 1
                        }
                    },
                    {
                        "name": "reserve0",
                        "type": "uint112",
                        "value": {
                            "current": "549174027737957128464",
                            "prev": "549107996571553928081",
                            "typeTag": 1
                        }
                    },
                    {
                        "name": "reserve1",
                        "type": "uint112",
                        "value": {
                            "current": "3934660304606006007",
                            "prev": "3935132034721580478",
                            "typeTag": 1
                        }
                    },
                    {
                        "name": "blockTimestampLast",
                        "type": "uint32",
                        "value": {
                            "current": "1717017011",
                            "prev": "1717016975",
                            "typeTag": 1
                        }
                    },
                    {
                        "name": "price0CumulativeLast",
                        "type": "uint256",
                        "value": {
                            "current": "590708332267956907496893072423093317888",
                            "prev": "590706992703685657414177426112441874156",
                            "typeTag": 1
                        }
                    }
                ]
            },
            {
                "address": "0x0d4a11d5eeaac28ec3f61d100daf4d40471f1852",
                "erc": "ERC-20",
                "slots": [
                    {
                        "current": "0x00000000000000000000000000000000000040eda485660a5ddb0266a7fabc54",
                        "key": "0x0000000000000000000000000000000000000000000000000000000000000009",
                        "prev": "0x00000000000000000000000000000000000040eda3c385102c0e7b42747a8c10"
                    },
                    {
                        "current": "0x00000000000000000000018c492e433022f4a8f00cd31d4b4abdd9c7ae6a08c3",
                        "key": "0x000000000000000000000000000000000000000000000000000000000000000a",
                        "prev": "0x00000000000000000000018c492d850c73ef5327343bc26e46501d48d31ca3d7"
                    },
                    {
                        "current": "0x665799b3000000000000000034729020a5e200000000033f055f39b380b7d299",
                        "key": "0x0000000000000000000000000000000000000000000000000000000000000008",
                        "prev": "0x665799a70000000000000000347281470f7300000000033f0649d0b27a491818"
                    }
                ],
                "storageVariables": [
                    {
                        "name": "price0CumulativeLast",
                        "type": "uint256",
                        "value": {
                            "current": "1316902205960204876174591360941140",
                            "prev": "1316901971575096323978340066823184",
                            "typeTag": 1
                        }
                    },
                    {
                        "name": "price1CumulativeLast",
                        "type": "uint256",
                        "value": {
                            "current": "579172436396490003441488006568138595477867727554755",
                            "prev": "579172419833013150964144163984228210933484721316823",
                            "typeTag": 1
                        }
                    },
                    {
                        "name": "reserve0",
                        "type": "uint112",
                        "value": {
                            "current": "15329631416788736004761",
                            "prev": "15329697447955139205144",
                            "typeTag": 1
                        }
                    },
                    {
                        "name": "reserve1",
                        "type": "uint112",
                        "value": {
                            "current": "57666648974818",
                            "prev": "57666399833971",
                            "typeTag": 1
                        }
                    },
                    {
                        "name": "blockTimestampLast",
                        "type": "uint32",
                        "value": {
                            "current": "1717017011",
                            "prev": "1717016999",
                            "typeTag": 1
                        }
                    }
                ]
            },
            {
                "address": "0xc02aaa39b223fe8d0a0e5c4f27ead9083c756cc2",
                "erc": "ERC-20",
                "slots": [
                    {
                        "current": "0x00000000000000000000000000000000000000000000033f055f39b380b7d299",
                        "key": "0xaced72359d8708e95d2112ba70e71fa267967a5588d15e7c78c1904e0debe410",
                        "prev": "0x00000000000000000000000000000000000000000000033f0649d0b27a491818"
                    },
                    {
                        "current": "0x00000000000000000000000000000000000000000000001dc55214943773d910",
                        "key": "0x9ae386913b01edb131a63cd873a36831c9b1b5a44387ebf613c05e64b1821dbf",
                        "prev": "0x00000000000000000000000000000000000000000000001dc4677d953de29391"
                    }
                ],
                "storageVariables": [
                    {
                        "name": "balanceOf",
                        "type": "mapping(address => uint256)",
                        "value": {
                            "pairs": [
                                {
                                    "key": "0x0c3fdf9c70835f9be9db9585ecb6a1ee3f20a6c7",
                                    "value": {
                                        "current": "549174027737957128464",
                                        "prev": "549107996571553928081",
                                        "typeTag": 1
                                    }
                                },
                                {
                                    "key": "0x0d4a11d5eeaac28ec3f61d100daf4d40471f1852",
                                    "value": {
                                        "current": "15329631416788736004761",
                                        "prev": "15329697447955139205144",
                                        "typeTag": 1
                                    }
                                }
                            ],
                            "typeTag": 4
                        }
                    }
                ]
            },
            {
                "address": "0xd29da236dd4aac627346e1bba06a619e8c22d7c5",
                "erc": "ERC-20",
                "slots": [
                    {
                        "current": "0x000000000000000000000000000000000000000000000000369ab8b347df0af7",
                        "key": "0x8ff20359e05e033c5af92074eb475cc7c615b4955c47f70d48681143ffda395c",
                        "prev": "0x000000000000000000000000000000000000000000000000369c65bc81d705be"
                    },
                    {
                        "current": "0x000000000000000000000000000000000000000000000000000000000000d580",
                        "key": "0x000000000000000000000000000000000000000000000000000000000000000e",
                        "prev": "0x000000000000000000000000000000000000000000000000000000000000d57f"
                    },
                    {
                        "current": "0x0000000000000000000000000000000000000000000000000006987e6488e226",
                        "key": "0x3bba9108b904cfb969b317a6a0847c2d13a92bb924e87f843935fe7b8f315911",
                        "prev": "0x0000000000000000000000000000000000000000000000000006976bcf45103e"
                    },
                    {
                        "current": "0x0000000000000000000000000000000000000000000000000001abf6a4b428df",
                        "key": "0xa2cecc016ddeb128907e2c0e02e23e85a2b04014dff04d128e672c5f9374ea6d",
                        "prev": "0x0000000000000000000000000000000000000000000000000000000000000000"
                    }
                ],
                "storageVariables": [
                    {
                        "name": "_balances",
                        "type": "mapping(address => uint256)",
                        "value": {
                            "pairs": [
                                {
                                    "key": "0x000000fee13a103a10d593b9ae06b3e05f2e7e1c",
                                    "value": {
                                        "current": "1856518480257574",
                                        "prev": "1855339154968638",
                                        "typeTag": 1
                                    }
                                },
                                {
                                    "key": "0x0c3fdf9c70835f9be9db9585ecb6a1ee3f20a6c7",
                                    "value": {
                                        "current": "3934660304606006007",
                                        "prev": "3935132034721580478",
                                        "typeTag": 1
                                    }
                                },
                                {
                                    "key": "0x70fdb962a31109022d55b1cb428f59522946fe0d",
                                    "value": {
                                        "current": "470550790285535",
                                        "prev": "0",
                                        "typeTag": 1
                                    }
                                }
                            ],
                            "typeTag": 4
                        }
                    },
                    {
                        "name": "_buyCount",
                        "type": "uint256",
                        "value": {
                            "current": "54656",
                            "prev": "54655",
                            "typeTag": 1
                        }
                    }
                ]
            },
            {
                "address": "0xdac17f958d2ee523a2206206994597c13d831ec7",
                "erc": "ERC-20",
                "slots": [
                    {
                        "current": "0x0000000000000000000000000000000000000000000000000000000000000000",
                        "key": "0x2163fe46af0ed76136e1e8934e457981436b1ee019b5d7c1dbd784b2e9b1b3b5",
                        "prev": "0x000000000000000000000000000000000000000000000000000000000ed9966f"
                    },
                    {
                        "current": "0x000000000000000000000000000000000000000000000000000034729020a5e2",
                        "key": "0x45b1147656da4d940c556082f0e09e91e3d046c1c84468f8ead64d8fdc1c749a",
                        "prev": "0x0000000000000000000000000000000000000000000000000000347281470f73"
                    }
                ],
                "storageVariables": [
                    {
                        "name": "balances",
                        "type": "mapping(address => uint256)",
                        "value": {
                            "pairs": [
                                {
                                    "key": "0x0d4a11d5eeaac28ec3f61d100daf4d40471f1852",
                                    "value": {
                                        "current": "57666648974818",
                                        "prev": "57666399833971",
                                        "typeTag": 1
                                    }
                                },
                                {
                                    "key": "0x70fdb962a31109022d55b1cb428f59522946fe0d",
                                    "value": {
                                        "current": "0",
                                        "prev": "249140847",
                                        "typeTag": 1
                                    }
                                }
                            ],
                            "typeTag": 4
                        }
                    }
                ]
            }
        ]
    }
}