{
    "balance_change": {
        "balanceChanges": [
            {
                "account": "0x2c6bc9db73fd67956b187149babc1b1360aae59d",
                "assets": [
                    {
                        "address": "0x0550581783f8f11a8cf627ce87af36b4d92f3f33",
                        "amount": "5,000,000,000,000,000,000",
                        "iconUrl": "",
                        "isERC1155": false,
                        "isERC721": false,
                        "sign": false,
                        "value": ""
                    }
                ]
            },
            {
                "account": "0xac14b210af594136f97f18da53144ad84b875444",
                "assets": [
                    {
                        "address": "0x0550581783f8f11a8cf627ce87af36b4d92f3f33",
                        "amount": "5,000,000,000,000,000,000",
                        "iconUrl": "",
                        "isERC1155": false,
                        "isERC721": false,
                        "sign": true,
                        "value": ""
                    }
                ]
            }
        ]
    },
    "profile": {
        "basic_info": {
            "baseFee": "",
            "blockNumber": 5383911,
            "callData": "0xa9059cbb000000000000000000000000ac14b210af594136f97f18da53144ad84b8754440000000000000000000000000000000000000000000000004563918244f40000",
            "debugEnable": true,
            "errorInfo": "",
            "eventCount": 1,
            "feeRecipient": "0xea674fdde714fd979de3edf0f56aa9716b898ec8",
            "formatValue": "0",
            "gasLimit": 100000,
            "gasPrice": "1",
            "gasUsed": 51584,
            "intTxnCount": 0,
            "internalRevert": false,
            "internalRevertMessage": "",
            "isContractCreation": false,
            "isFlashloan": false,
            "maxFee": "",
            "nonce": 697,
            "overwritedBlockNumber": -1,
            "priorityFee": "",
            "receiver": "0x0550581783f8f11a8cf627ce87af36b4d92f3f33",
            "revertMessage": "",
            "sender": "0x2c6bc9db73fd67956b187149babc1b1360aae59d",
            "simulationEnable": true,
            "sourceTxnHash": "0x09f36d2f7101093622110399ee320dc3cd203027149d0edd0ff2a51aa5f61ffe",
            "status": true,
            "timestamp": "2018-04-05T07:57:37Z",
            "transactionFee": "0.000051584",
            "txnHash": "0x09f36d2f7101093622110399ee320dc3cd203027149d0edd0ff2a51aa5f61ffe",
            "txnIndex": 36,
            "type": 0,
            "value": "0"
        },
        "fund_flow": [
            {
                "amount": "5,000,000,000,000,000,000",
                "from": "0x2c6bc9db73fd67956b187149babc1b1360aae59d",
                "id": 1,
                "isERC1155": false,
                "isERC721": false,
                "isReverted": false,
                "order": 1,
                "to": "0xac14b210af594136f97f18da53144ad84b875444",
                "token": "0x0550581783f8f11a8cf627ce87af36b4d92f3f33"
            }
        ],
        "token_infos": [
            {
                "address": "0xeeeeeeeeeeeeeeeeeeeeeeeeeeeeeeeeeeeeeeee",
                "decimals": 18
            },
            {
                "address": "0xc02aaa39b223fe8d0a0e5c4f27ead9083c756cc2",
                "decimals": 18
            }
        ]
    },
    "address_label": {
        "labels": [
            {
                "address": "0xeeeeeeeeeeeeeeeeeeeeeeeeeeeeeeeeeeeeeeee",
                "label": "Ether"
            },
            {
                "address": "0x0550581783f8f11a8cf627ce87af36b4d92f3f33",
                "label": "HedgeConnect"
            },
            {
                "address": "0x0000000000000000000000000000000000000001",
                "label": "Precompiled"
            },
            {
                "address": "0x0000000000000000000000000000000000000002",
                "label": "Precompiled"
            },
            {
                "address": "0x0000000000000000000000000000000000000003",
                "label": "Precompiled"
            },
            {
                "address": "0x0000000000000000000000000000000000000004",
                "label": "Precompiled"
            }
        ]
    },
    "trace": {
        "accountLabels": null,
        "dataMap": {
            "-1": {
                "invocation": {
                    "address": "0x2c6bc9db73fd67956b187149babc1b1360aae59d",
                    "callData": "",
                    "decodedMethod": null,
                    "errorInfo": "",
                    "fromAddress": "",
                    "gasUsed": 0,
                    "id": -1,
                    "methodDecoded": false,
                    "operation": "",
                    "output": "",
                    "revert": false,
                    "revertMessage": "",
                    "selector": "",
                    "status": false,
                    "value": ""
                },
                "nodeType": 0
            },
            "0": {
                "invocation": {
                    "address": "0x0550581783f8f11a8cf627ce87af36b4d92f3f33",
                    "callData": "0x000000000000000000000000ac14b210af594136f97f18da53144ad84b8754440000000000000000000000000000000000000000000000004563918244f40000",
                    "decodedMethod": {
                        "callParams": [
                            {
                                "name": "_to",
                                "type": "address",
                                "value": "0xac14b210af594136f97f18da53144ad84b875444"
                            },
                            {
                                "decimalAvailable": true,
                                "name": "_value",
                                "type": "uint256",
                                "value": "5,000,000,000,000,000,000"
                            }
                        ],
                        "constructorArguments": "",
                        "name": "transfer",
                        "returnParams": [
                            {
                                "name": "",
                                "type": "bool",
                                "value": true
                            }
                        ],
                        "signature": "transfer(address,uint256)"
                    },
                    "errorInfo": "",
                    "fromAddress": "0x2c6bc9db73fd67956b187149babc1b1360aae59d",
                    "gasUsed": 51584,
                    "id": 0,
                    "methodDecoded": true,
                    "operation": "CALL",
                    "output": "0x0000000000000000000000000000000000000000000000000000000000000001",
                    "revert": false,
                    "revertMessage": "",
                    "selector": "0xa9059cbb",
                    "status": true,
                    "value": "0"
                },
                "nodeType": 0
            },
            "1": {
                "event": {
                    "contract": "0x0550581783f8f11a8cf627ce87af36b4d92f3f33",
                    "decodedLog": {
                        "name": "Transfer",
                        "params": [
                            {
                                "name": "from",
                                "type": "address",
                                "value": "0x2c6bc9db73fd67956b187149babc1b1360aae59d"
                            },
                            {
                                "name": "to",
                                "type": "address",
                                "value": "0xac14b210af594136f97f18da53144ad84b875444"
                            },
                            {
                                "decimalAvailable": true,
                                "name": "value",
                                "type": "uint256",
                                "value": "5,000,000,000,000,000,000"
                            }
                        ],
                        "signature": "Transfer(address,address,uint256)"
                    },
                    "id": 1,
                    "logData": "0x0000000000000000000000000000000000000000000000004563918244f40000",
                    "logDecoded": true,
                    "operation": "EVENT",
                    "revert": false,
                    "status": true,
                    "topics": [
                        "0xddf252ad1be2c89b69c2b068fc378daa952ba7f163c4a11628f55a4df523b3ef",
                        "0x0000000000000000000000002c6bc9db73fd67956b187149babc1b1360aae59d",
                        "0x000000000000000000000000ac14b210af594136f97f18da53144ad84b875444"
                    ]
                },
                "nodeType": 1
            }
        },
        "gasFlame": [
            {
                "children": [
                    {
                        "children": [
                            {
                                "children": [],
                                "depth": 0,
                                "name": "Initial Gas",
                                "value": 23192
                            },
                            {
                                "children": [],
                                "depth": 0,
                                "name": "Executed Gas",
                                "value": 28392
                            }
                        ],
                        "depth": -1,
                        "name": "Actual Gas Used",
                        "value": 51584
                    },
                    {
                        "children": [],
                        "depth": -1,
                        "name": "Refunded Gas",
                        "value": 0
                    }
                ],
                "depth": -2,
                "name": "Total Gas",
                "value": 51584
            }
        ],
        "isConfirmed": true,
        "mainTrace": [
            {
                "children": [
                    {
                        "children": [
                            {
                                "children": [],
                                "depth": 1,
                                "id": 1,
                                "order": 1
                            }
                        ],
                        "depth": 0,
                        "id": 0,
                        "order": 0
                    }
                ],
                "depth": -1,
                "id": -1,
                "order": -1
            }
        ],
        "mainTraceNodeCount": 2,
        "parentIdMap": {
            "0": -1,
            "1": 0
        },
        "tidyTrace": [
            {
                "children": [
                    {
                        "children": [
                            {
                                "children": [],
                                "depth": 1,
                                "id": 1,
                                "order": 1
                            }
                        ],
                        "depth": 0,
                        "id": 0,
                        "order": 0
                    }
                ],
                "depth": -1,
                "id": -1,
                "order": -1
            }
        ],
        "tidyTraceNodeCount": 2
    },
    "state_change": {
        "stateChanges": [
            {
                "address": "0x0550581783f8f11a8cf627ce87af36b4d92f3f33",
                "erc": "ERC-20",
                "slots": [
                    {
                        "current": "0x0000000000000000000000000000000000000000000000004563918244f40000",
                        "key": "0x90bffeb8cdbc208d69e976915e656b04fd0bf94428fdda8c949df3cc12247496",
                        "prev": "0x0000000000000000000000000000000000000000000000000000000000000000"
                    },
                    {
                        "current": "0x000000000000000000000000000000000000000000142ce74abb0fa49a862f91",
                        "key": "0x18f3c69a0edf8b9ccfabc47694081b01e976609787de46d714185d41370a2713",
                        "prev": "0x000000000000000000000000000000000000000000142ce7901ea126df7a2f91"
                    }
                ],
                "storageVariables": [
                    {
                        "name": "balances",
                        "type": "mapping(address => uint256)",
                        "value": {
                            "pairs": [
                                {
                                    "key": "0x2c6bc9db73fd67956b187149babc1b1360aae59d",
                                    "value": {
                                        "current": "24390567100334853883047825",
                                        "prev": "24390572100334853883047825",
                                        "typeTag": 1
                                    }
                                },
                                {
                                    "key": "0xac14b210af594136f97f18da53144ad84b875444",
                                    "value": {
                                        "current": "5000000000000000000",
                                        "prev": "0",
                                        "typeTag": 1
                                    }
                                }
                            ],
                            "typeTag": 4
                        }
                    }
                ]
            }
        ]
    }
}