{
    "balance_change": {
        "balanceChanges": [
            {
                "account": "0x72e8185c5f7d1973a727c90f46132ef0185af793",
                "assets": [
                    {
                        "address": "0x3597bfd533a99c9aa083587b074434e61eb0a258",
                        "amount": "959,058.085",
                        "iconUrl": "https://assets.blocksec.com/icon/b016a2d1f45541b969fb5b24876dedcebceb6bc5f22539b1969335ffef3588d8.png",
                        "isERC1155": false,
                        "isERC721": false,
                        "sign": false,
                        "value": "708.8622921"
                    }
                ]
            },
            {
                "account": "0x59c005f6bcfef4f9a112748df079fe8b327d7e53",
                "assets": [
                    {
                        "address": "0x3597bfd533a99c9aa083587b074434e61eb0a258",
                        "amount": "959,058.085",
                        "iconUrl": "https://assets.blocksec.com/icon/b016a2d1f45541b969fb5b24876dedcebceb6bc5f22539b1969335ffef3588d8.png",
                        "isERC1155": false,
                        "isERC721": false,
                        "sign": true,
                        "value": "708.8622921"
                    }
                ]
            }
        ]
    },
    "profile": {
        "basic_info": {
            "baseFee": "6.605967098",
            "blockNumber": 20777197,
            "callData": "0xa9059cbb00000000000000000000000059c005f6bcfef4f9a112748df079fe8b327d7e5300000000000000000000000000000000000000000000000000005739cfa5c520",
            "debugEnable": true,
            "errorInfo": "",
            "eventCount": 1,
            "feeRecipient": "0x95222290dd7278aa3ddd389cc1e1d165cc4bafe5",
            "formatValue": "0",
            "gasLimit": 54689,
            "gasPrice": "7.819822188",
            "gasUsed": 49689,
            "intTxnCount": 0,
            "internalRevert": false,
            "internalRevertMessage": "",
            "isContractCreation": false,
            "isFlashloan": false,
            "maxFee": "10.453030841",
            "nonce": 8,
            "overwritedBlockNumber": -1,
            "priorityFee": "1.21385509",
            "receiver": "0x3597bfd533a99c9aa083587b074434e61eb0a258",
            "revertMessage": "",
            "sender": "0x72e8185c5f7d1973a727c90f46132ef0185af793",
            "simulationEnable": true,
            "sourceTxnHash": "0x09bd1de6fda3481ddc7ae4172ca1c92e1f7efbf3121af02b7c817b4e4e3d8c01",
            "status": true,
            "timestamp": "2024-09-18T11:31:59Z",
            "transactionFee": "0.000388559144699532",
            "txnHash": "0x09bd1de6fda3481ddc7ae4172ca1c92e1f7efbf3121af02b7c817b4e4e3d8c01",
            "txnIndex": 90,
            "type": 2,
            "value": "0"
        },
        "fund_flow": [
            {
                "amount": "959,058.085",
                "from": "0x72e8185c5f7d1973a727c90f46132ef0185af793",
                "id": 1,
                "isERC1155": false,
                "isERC721": false,
                "isReverted": false,
                "order": 1,
                "to": "0x59c005f6bcfef4f9a112748df079fe8b327d7e53",
                "token": "0x3597bfd533a99c9aa083587b074434e61eb0a258"
            }
        ],
        "token_infos": [
            {
                "address": "0x3597bfd533a99c9aa083587b074434e61eb0a258",
                "decimals": 8
            },
            {
                "address": "0xc02aaa39b223fe8d0a0e5c4f27ead9083c756cc2",
                "decimals": 18
            },
            {
                "address": "0xeeeeeeeeeeeeeeeeeeeeeeeeeeeeeeeeeeeeeeee",
                "decimals": 18
            }
        ]
    },
    "address_label": {
        "labels": [
            {
                "address": "0xeeeeeeeeeeeeeeeeeeeeeeeeeeeeeeeeeeeeeeee",
                "label": "Ether"
            },
            {
                "address": "0x3597bfd533a99c9aa083587b074434e61eb0a258",
                "label": "DENT Token"
            },
            {
                "address": "0x0000000000000000000000000000000000000001",
                "label": "Precompiled"
            },
            {
                "address": "0x0000000000000000000000000000000000000002",
                "label": "Precompiled"
            },
            {
                "address": "0x0000000000000000000000000000000000000003",
                "label": "Precompiled"
            },
            {
                "address": "0x0000000000000000000000000000000000000004",
                "label": "Precompiled"
            }
        ]
    },
    "trace": {
        "accountLabels": null,
        "dataMap": {
            "-1": {
                "invocation": {
                    "address": "0x72e8185c5f7d1973a727c90f46132ef0185af793",
                    "callData": "",
                    "decodedMethod": null,
                    "errorInfo": "",
                    "fromAddress": "",
                    "gasUsed": 0,
                    "id": -1,
                    "methodDecoded": false,
                    "operation": "",
                    "output": "",
                    "revert": false,
                    "revertMessage": "",
                    "selector": "",
                    "status": false,
                    "value": ""
                },
                "nodeType": 0
            },
            "0": {
                "invocation": {
                    "address": "0x3597bfd533a99c9aa083587b074434e61eb0a258",
                    "callData": "0x00000000000000000000000059c005f6bcfef4f9a112748df079fe8b327d7e5300000000000000000000000000000000000000000000000000005739cfa5c520",
                    "decodedMethod": {
                        "callParams": [
                            {
                                "name": "_to",
                                "type": "address",
                                "value": "0x59c005f6bcfef4f9a112748df079fe8b327d7e53"
                            },
                            {
                                "decimalAvailable": true,
                                "name": "_value",
                                "type": "uint256",
                                "value": "95,905,808,500,000"
                            }
                        ],
                        "constructorArguments": "",
                        "name": "transfer",
                        "returnParams": [
                            {
                                "name": "success",
                                "type": "bool",
                                "value": true
                            }
                        ],
                        "signature": "transfer(address,uint256)"
                    },
                    "errorInfo": "",
                    "fromAddress": "0x72e8185c5f7d1973a727c90f46132ef0185af793",
                    "gasUsed": 49689,
                    "id": 0,
                    "methodDecoded": true,
                    "operation": "CALL",
                    "output": "0x0000000000000000000000000000000000000000000000000000000000000001",
                    "revert": false,
                    "revertMessage": "",
                    "selector": "0xa9059cbb",
                    "status": true,
                    "value": "0"
                },
                "nodeType": 0
            },
            "1": {
                "event": {
                    "contract": "0x3597bfd533a99c9aa083587b074434e61eb0a258",
                    "decodedLog": {
                        "name": "Transfer",
                        "params": [
                            {
                                "name": "from",
                                "type": "address",
                                "value": "0x72e8185c5f7d1973a727c90f46132ef0185af793"
                            },
                            {
                                "name": "to",
                                "type": "address",
                                "value": "0x59c005f6bcfef4f9a112748df079fe8b327d7e53"
                            },
                            {
                                "decimalAvailable": true,
                                "name": "value",
                                "type": "uint256",
                                "value": "95,905,808,500,000"
                            }
                        ],
                        "signature": "Transfer(address,address,uint256)"
                    },
                    "id": 1,
                    "logData": "0x00000000000000000000000000000000000000000000000000005739cfa5c520",
                    "logDecoded": true,
                    "operation": "EVENT",
                    "revert": false,
                    "status": true,
                    "topics": [
                        "0xddf252ad1be2c89b69c2b068fc378daa952ba7f163c4a11628f55a4df523b3ef",
                        "0x00000000000000000000000072e8185c5f7d1973a727c90f46132ef0185af793",
                        "0x00000000000000000000000059c005f6bcfef4f9a112748df079fe8b327d7e53"
                    ]
                },
                "nodeType": 1
            }
        },
        "gasFlame": [
            {
                "children": [
                    {
                        "children": [
                            {
                                "children": [],
                                "depth": 0,
                                "name": "Initial Gas",
                                "value": 21632
                            },
                            {
                                "children": [],
                                "depth": 0,
                                "name": "Executed Gas",
                                "value": 32857
                            }
                        ],
                        "depth": -1,
                        "name": "Actual Gas Used",
                        "value": 49689
                    },
                    {
                        "children": [],
                        "depth": -1,
                        "name": "Refunded Gas",
                        "value": 4800
                    }
                ],
                "depth": -2,
                "name": "Total Gas",
                "value": 54489
            }
        ],
        "isConfirmed": true,
        "mainTrace": [
            {
                "children": [
                    {
                        "children": [
                            {
                                "children": [],
                                "depth": 1,
                                "id": 1,
                                "order": 1
                            }
                        ],
                        "depth": 0,
                        "id": 0,
                        "order": 0
                    }
                ],
                "depth": -1,
                "id": -1,
                "order": -1
            }
        ],
        "mainTraceNodeCount": 2,
        "parentIdMap": {
            "0": -1,
            "1": 0
        },
        "tidyTrace": [
            {
                "children": [
                    {
                        "children": [
                            {
                                "children": [],
                                "depth": 1,
                                "id": 1,
                                "order": 1
                            }
                        ],
                        "depth": 0,
                        "id": 0,
                        "order": 0
                    }
                ],
                "depth": -1,
                "id": -1,
                "order": -1
            }
        ],
        "tidyTraceNodeCount": 2
    },
    "state_change": {
        "stateChanges": [
            {
                "address": "0x3597bfd533a99c9aa083587b074434e61eb0a258",
                "erc": "ERC-20",
                "slots": [
                    {
                        "current": "0x0000000000000000000000000000000000000000000000000000000000000000",
                        "key": "0x6a12d9138cd5a982cb841489d3e19e432601e2e86449ebd0ba1c740401fff091",
                        "prev": "0x00000000000000000000000000000000000000000000000000005739cfa5c520"
                    },
                    {
                        "current": "0x00000000000000000000000000000000000000000000000000005739cfa5c520",
                        "key": "0xb7e28e0ab26b001ae37174a2344104d2e2384a869798eb84ce3efefedc315330",
                        "prev": "0x0000000000000000000000000000000000000000000000000000000000000000"
                    }
                ],
                "storageVariables": []
            }
        ]
    }
}