{
    "balance_change": {
        "balanceChanges": []
    },
    "profile": {
        "basic_info": {
            "baseFee": "",
            "blockNumber": 3752565,
            "callData": "0xa9059cbb000000000000000000000000c541fb02443d41f9db8846596b4240633a213bb600000000000000000000000000000000000000000000000001c331d3be798000",
            "debugEnable": true,
            "errorInfo": "",
            "eventCount": 1,
            "feeRecipient": "0x73b8865eda227d6fffabc83c78124dea8c347fea",
            "formatValue": "0",
            "gasLimit": 165000,
            "gasPrice": "21.774088183",
            "gasUsed": 37358,
            "intTxnCount": 0,
            "internalRevert": false,
            "internalRevertMessage": "",
            "isContractCreation": false,
            "isFlashloan": false,
            "maxFee": "",
            "nonce": 504912,
            "overwritedBlockNumber": -1,
            "priorityFee": "",
            "receiver": "0x37a9679c41e99db270bda88de8ff50c0cd23f326",
            "revertMessage": "",
            "sender": "0x9e0b9ddba97dd4f7addab0b5f67036eebe687606",
            "simulationEnable": true,
            "sourceTxnHash": "0x0a42457585c108eb26103c9ffd354079a22ccdeabfb919c8e7568f95a7e1724e",
            "status": true,
            "timestamp": "2017-05-23T04:47:19Z",
            "transactionFee": "0.000813436386340514",
            "txnHash": "0x0a42457585c108eb26103c9ffd354079a22ccdeabfb919c8e7568f95a7e1724e",
            "txnIndex": 5,
            "type": 0,
            "value": "0"
        },
        "fund_flow": [],
        "token_infos": [
            {
                "address": "0xc02aaa39b223fe8d0a0e5c4f27ead9083c756cc2",
                "decimals": 18
            },
            {
                "address": "0xeeeeeeeeeeeeeeeeeeeeeeeeeeeeeeeeeeeeeeee",
                "decimals": 18
            }
        ]
    },
    "address_label": {
        "labels": [
            {
                "address": "0x0000000000000000000000000000000000000001",
                "label": "Precompiled"
            },
            {
                "address": "0x0000000000000000000000000000000000000002",
                "label": "Precompiled"
            },
            {
                "address": "0x0000000000000000000000000000000000000003",
                "label": "Precompiled"
            },
            {
                "address": "0x0000000000000000000000000000000000000004",
                "label": "Precompiled"
            },
            {
                "address": "0xeeeeeeeeeeeeeeeeeeeeeeeeeeeeeeeeeeeeeeee",
                "label": "Ether"
            },
            {
                "address": "0x37a9679c41e99db270bda88de8ff50c0cd23f326",
                "label": "YoCoin"
            }
        ]
    },
    "trace": {
        "accountLabels": null,
        "dataMap": {
            "-1": {
                "invocation": {
                    "address": "0x9e0b9ddba97dd4f7addab0b5f67036eebe687606",
                    "callData": "",
                    "decodedMethod": null,
                    "errorInfo": "",
                    "fromAddress": "",
                    "gasUsed": 0,
                    "id": -1,
                    "methodDecoded": false,
                    "operation": "",
                    "output": "",
                    "revert": false,
                    "revertMessage": "",
                    "selector": "",
                    "status": false,
                    "value": ""
                },
                "nodeType": 0
            },
            "0": {
                "invocation": {
                    "address": "0x37a9679c41e99db270bda88de8ff50c0cd23f326",
                    "callData": "0x000000000000000000000000c541fb02443d41f9db8846596b4240633a213bb600000000000000000000000000000000000000000000000001c331d3be798000",
                    "decodedMethod": {
                        "callParams": [
                            {
                                "name": "_to",
                                "type": "address",
                                "value": "0xc541fb02443d41f9db8846596b4240633a213bb6"
                            },
                            {
                                "decimalAvailable": true,
                                "name": "_value",
                                "type": "uint256",
                                "value": "127,000,000,000,000,000"
                            }
                        ],
                        "constructorArguments": "",
                        "name": "transfer",
                        "returnParams": [],
                        "signature": "transfer(address,uint256)"
                    },
                    "errorInfo": "",
                    "fromAddress": "0x9e0b9ddba97dd4f7addab0b5f67036eebe687606",
                    "gasUsed": 37358,
                    "id": 0,
                    "methodDecoded": true,
                    "operation": "CALL",
                    "output": "",
                    "revert": false,
                    "revertMessage": "",
                    "selector": "0xa9059cbb",
                    "status": true,
                    "value": "0"
                },
                "nodeType": 0
            },
            "1": {
                "event": {
                    "contract": "0x37a9679c41e99db270bda88de8ff50c0cd23f326",
                    "decodedLog": {
                        "name": "Transfer",
                        "params": [
                            {
                                "name": "from",
                                "type": "address",
                                "value": "0x9e0b9ddba97dd4f7addab0b5f67036eebe687606"
                            },
                            {
                                "name": "to",
                                "type": "address",
                                "value": "0xc541fb02443d41f9db8846596b4240633a213bb6"
                            },
                            {
                                "name": "value",
                                "type": "int256",
                                "value": "127,000,000,000,000,000"
                            }
                        ],
                        "signature": "Transfer(address,address,int256)"
                    },
                    "id": 1,
                    "logData": "0x00000000000000000000000000000000000000000000000001c331d3be798000",
                    "logDecoded": true,
                    "operation": "EVENT",
                    "revert": false,
                    "status": true,
                    "topics": [
                        "0x8b0c34a52f9e28d78caaa7066cd047b398dae74941a208b77777420f492bd7e1",
                        "0x0000000000000000000000009e0b9ddba97dd4f7addab0b5f67036eebe687606",
                        "0x000000000000000000000000c541fb02443d41f9db8846596b4240633a213bb6"
                    ]
                },
                "nodeType": 1
            }
        },
        "gasFlame": [
            {
                "children": [
                    {
                        "children": [
                            {
                                "children": [],
                                "depth": 0,
                                "name": "Initial Gas",
                                "value": 23256
                            },
                            {
                                "children": [],
                                "depth": 0,
                                "name": "Executed Gas",
                                "value": 14102
                            }
                        ],
                        "depth": -1,
                        "name": "Actual Gas Used",
                        "value": 37358
                    },
                    {
                        "children": [],
                        "depth": -1,
                        "name": "Refunded Gas",
                        "value": 0
                    }
                ],
                "depth": -2,
                "name": "Total Gas",
                "value": 37358
            }
        ],
        "isConfirmed": true,
        "mainTrace": [
            {
                "children": [
                    {
                        "children": [
                            {
                                "children": [],
                                "depth": 1,
                                "id": 1,
                                "order": 1
                            }
                        ],
                        "depth": 0,
                        "id": 0,
                        "order": 0
                    }
                ],
                "depth": -1,
                "id": -1,
                "order": -1
            }
        ],
        "mainTraceNodeCount": 2,
        "parentIdMap": {
            "0": -1,
            "1": 0
        },
        "tidyTrace": [
            {
                "children": [
                    {
                        "children": [
                            {
                                "children": [],
                                "depth": 1,
                                "id": 1,
                                "order": 1
                            }
                        ],
                        "depth": 0,
                        "id": 0,
                        "order": 0
                    }
                ],
                "depth": -1,
                "id": -1,
                "order": -1
            }
        ],
        "tidyTraceNodeCount": 2
    },
    "state_change": {
        "stateChanges": [
            {
                "address": "0x37a9679c41e99db270bda88de8ff50c0cd23f326",
                "erc": "",
                "slots": [
                    {
                        "current": "0x0000000000000000000000000000000000000000000005b7ee0dbf1d667c0a00",
                        "key": "0xde9e05d799821d025edb97284e7d7b6d2ce368ed5f0071af3b56e75c418aadd4",
                        "prev": "0x0000000000000000000000000000000000000000000005b7efd0f0f124f58a00"
                    },
                    {
                        "current": "0x0000000000000000000000000000000000000000000000059e924cc928fe0000",
                        "key": "0x476955f9249561eef1d3af2fd0addbe236e2323b0f42a31732aa0305ee180951",
                        "prev": "0x0000000000000000000000000000000000000000000000059ccf1af56a848000"
                    }
                ],
                "storageVariables": []
            }
        ]
    }
}