{
    "balance_change": {
        "balanceChanges": []
    },
    "profile": {
        "basic_info": {
            "baseFee": "",
            "blockNumber": 4388882,
            "callData": "0x6f23e7d8000000000000000000000000000000000000000000000000000000000000006000000000000000000000000000000000000000000000000000000000000000c000000000000000000000000000000000000000000000000000000000000002800000000000000000000000000000000000000000000000000000000000000002000000000000000000000000827423c110c4077877102b4b0427b79199ec4ec50000000000000000000000009ba6f2851c8afe6be654fbd4c3dc7e9e64cffe53000000000000000000000000000000000000000000000000000000000000000d000000000000000000000000000000000000000000000000bdaa9523c0c94000000000000000000000000000000000000000000000000239e92ee7bd21a400000000000000000000000000000000000000000000000000000000000000431f1c000000000000000000000000000000000000000000000000000000004179f9560000000000000000000000000000000000000000000000056bc75e2d6310000000000000000000000000000000000000000000000000000001dc1a62ab7598000000000000000000000000000000000000000000000000000000000000431dc4000000000000000000000000000000000000000000000000000000006b95c2fd00000000000000000000000000000000000000000000000001cdda4faccd0000000000000000000000000000000000000000000000000005679d8dc44a720000000000000000000000000000000000000000000000000000000000000000001c000000000000000000000000000000000000000000000000000000000000001c000000000000000000000000000000000000000000000000000000000000001a000000000000000000000000000000000000000000000000000000000000000648bf85cc64a88d2a32a5868ecd1086b47449c001682671067bbac5db6c71d8464b8e3dc3aaba86441fe0b5826475e4b48e1c91ac7daac7c254375f72a59378eaebca58680fda9b23b32b6e4a102b8aa1d4d33fe2dce48274ec7e934e382f2c15955645e6a333b444c9c96ad8c3899e457967453d5eef744dec2c5e81aaf899587856c4c326a5206b6159cb995e0534bdf5b4044262bbd483d0c7bfcf4a6b9fbfb844023e166103dbae86731fbc6d1f928d6c824dadd7e5b5b233d386de53e9ef",
            "debugEnable": true,
            "errorInfo": "",
            "eventCount": 2,
            "feeRecipient": "0x829bd824b016326a401d083b33d092293333a830",
            "formatValue": "0",
            "gasLimit": 235000,
            "gasPrice": "10.839336015",
            "gasUsed": 171666,
            "intTxnCount": 10,
            "internalRevert": false,
            "internalRevertMessage": "",
            "isContractCreation": false,
            "isFlashloan": false,
            "maxFee": "",
            "nonce": 273,
            "overwritedBlockNumber": -1,
            "priorityFee": "",
            "receiver": "0x273a5d3e6721b9f5c1a6474f560c1334c63dda01",
            "revertMessage": "",
            "sender": "0x009b30b999c85058dcd342d7548729bcccb16b4c",
            "simulationEnable": true,
            "sourceTxnHash": "0x0a21ebf78bdb025f5467a1b86f00e07e6dd98290af2efe923bad4d70fc27b5ef",
            "status": true,
            "timestamp": "2017-10-19T10:26:41Z",
            "transactionFee": "0.00186074545635099",
            "txnHash": "0x0a21ebf78bdb025f5467a1b86f00e07e6dd98290af2efe923bad4d70fc27b5ef",
            "txnIndex": 55,
            "type": 0,
            "value": "0"
        },
        "fund_flow": [],
        "token_infos": [
            {
                "address": "0xc02aaa39b223fe8d0a0e5c4f27ead9083c756cc2",
                "decimals": 18
            },
            {
                "address": "0xeeeeeeeeeeeeeeeeeeeeeeeeeeeeeeeeeeeeeeee",
                "decimals": 18
            }
        ]
    },
    "address_label": {
        "labels": [
            {
                "address": "0x0000000000000000000000000000000000000001",
                "label": "Precompiled"
            },
            {
                "address": "0x0000000000000000000000000000000000000003",
                "label": "Precompiled"
            },
            {
                "address": "0x0000000000000000000000000000000000000004",
                "label": "Precompiled"
            },
            {
                "address": "0xeeeeeeeeeeeeeeeeeeeeeeeeeeeeeeeeeeeeeeee",
                "label": "Ether"
            },
            {
                "address": "0x8d12a197cb00d4747a1fe03395095ce2a5cc6819",
                "label": "EtherDelta"
            },
            {
                "address": "0x0000000000000000000000000000000000000002",
                "label": "Precompiled"
            },
            {
                "address": "0x3d1ba9be9f66b8ee101911bc36d3fb562eac2244",
                "label": "RivetToken"
            },
            {
                "address": "0x0000000000000000000000000000000000000000",
                "label": "Null Address"
            }
        ]
    },
    "trace": {
        "accountLabels": null,
        "dataMap": {
            "-1": {
                "invocation": {
                    "address": "0x009b30b999c85058dcd342d7548729bcccb16b4c",
                    "callData": "",
                    "decodedMethod": null,
                    "errorInfo": "",
                    "fromAddress": "",
                    "gasUsed": 0,
                    "id": -1,
                    "methodDecoded": false,
                    "operation": "",
                    "output": "",
                    "revert": false,
                    "revertMessage": "",
                    "selector": "",
                    "status": false,
                    "value": ""
                },
                "nodeType": 0
            },
            "0": {
                "invocation": {
                    "address": "0x273a5d3e6721b9f5c1a6474f560c1334c63dda01",
                    "callData": "0x000000000000000000000000000000000000000000000000000000000000006000000000000000000000000000000000000000000000000000000000000000c000000000000000000000000000000000000000000000000000000000000002800000000000000000000000000000000000000000000000000000000000000002000000000000000000000000827423c110c4077877102b4b0427b79199ec4ec50000000000000000000000009ba6f2851c8afe6be654fbd4c3dc7e9e64cffe53000000000000000000000000000000000000000000000000000000000000000d000000000000000000000000000000000000000000000000bdaa9523c0c94000000000000000000000000000000000000000000000000239e92ee7bd21a400000000000000000000000000000000000000000000000000000000000000431f1c000000000000000000000000000000000000000000000000000000004179f9560000000000000000000000000000000000000000000000056bc75e2d6310000000000000000000000000000000000000000000000000000001dc1a62ab7598000000000000000000000000000000000000000000000000000000000000431dc4000000000000000000000000000000000000000000000000000000006b95c2fd00000000000000000000000000000000000000000000000001cdda4faccd0000000000000000000000000000000000000000000000000005679d8dc44a720000000000000000000000000000000000000000000000000000000000000000001c000000000000000000000000000000000000000000000000000000000000001c000000000000000000000000000000000000000000000000000000000000001a000000000000000000000000000000000000000000000000000000000000000648bf85cc64a88d2a32a5868ecd1086b47449c001682671067bbac5db6c71d8464b8e3dc3aaba86441fe0b5826475e4b48e1c91ac7daac7c254375f72a59378eaebca58680fda9b23b32b6e4a102b8aa1d4d33fe2dce48274ec7e934e382f2c15955645e6a333b444c9c96ad8c3899e457967453d5eef744dec2c5e81aaf899587856c4c326a5206b6159cb995e0534bdf5b4044262bbd483d0c7bfcf4a6b9fbfb844023e166103dbae86731fbc6d1f928d6c824dadd7e5b5b233d386de53e9ef",
                    "decodedMethod": null,
                    "errorInfo": "",
                    "fromAddress": "0x009b30b999c85058dcd342d7548729bcccb16b4c",
                    "gasUsed": 171666,
                    "id": 0,
                    "methodDecoded": false,
                    "operation": "CALL",
                    "output": "",
                    "revert": false,
                    "revertMessage": "",
                    "selector": "0x6f23e7d8",
                    "status": true,
                    "value": "0"
                },
                "nodeType": 0
            },
            "1": {
                "invocation": {
                    "address": "0x8d12a197cb00d4747a1fe03395095ce2a5cc6819",
                    "callData": "0x000000000000000000000000827423c110c4077877102b4b0427b79199ec4ec5ebca58680fda9b23b32b6e4a102b8aa1d4d33fe2dce48274ec7e934e382f2c15",
                    "decodedMethod": {
                        "callParams": [
                            {
                                "name": "",
                                "type": "address",
                                "value": "0x827423c110c4077877102b4b0427b79199ec4ec5"
                            },
                            {
                                "name": "",
                                "type": "bytes32",
                                "value": "0xebca58680fda9b23b32b6e4a102b8aa1d4d33fe2dce48274ec7e934e382f2c15"
                            }
                        ],
                        "constructorArguments": "",
                        "name": "orderFills",
                        "returnParams": [
                            {
                                "name": "",
                                "type": "uint256",
                                "value": "12,130,990,910,257,300,360"
                            }
                        ],
                        "signature": "orderFills(address,bytes32)"
                    },
                    "errorInfo": "",
                    "fromAddress": "0x273a5d3e6721b9f5c1a6474f560c1334c63dda01",
                    "gasUsed": 705,
                    "id": 1,
                    "methodDecoded": true,
                    "operation": "CALL",
                    "output": "0x000000000000000000000000000000000000000000000000a859eff5cb610388",
                    "revert": false,
                    "revertMessage": "",
                    "selector": "0x19774d43",
                    "status": true,
                    "value": "0"
                },
                "nodeType": 0
            },
            "10": {
                "invocation": {
                    "address": "0x0000000000000000000000000000000000000002",
                    "callData": "0xcb00d4747a1fe03395095ce2a5cc68193d1ba9be9f66b8ee101911bc36d3fb562eac22440000000000000000000000000000000000000000000000056bc75e2d63100000000000000000000000000000000000000000000000000000000000000000000000000000000000000000000001dc1a62ab7598000000000000000000000000000000000000000000000000000000000000431dc4000000000000000000000000000000000000000000000000000000006b95c2fd",
                    "decodedMethod": {
                        "callParams": [
                            {
                                "name": "data",
                                "type": "bytes",
                                "value": "0x8d12a197cb00d4747a1fe03395095ce2a5cc68193d1ba9be9f66b8ee101911bc36d3fb562eac22440000000000000000000000000000000000000000000000056bc75e2d63100000000000000000000000000000000000000000000000000000000000000000000000000000000000000000000001dc1a62ab7598000000000000000000000000000000000000000000000000000000000000431dc4000000000000000000000000000000000000000000000000000000006b95c2fd"
                            }
                        ],
                        "constructorArguments": "",
                        "name": "sha256hash",
                        "returnParams": [
                            {
                                "name": "hash",
                                "type": "bytes32",
                                "value": "0xb844023e166103dbae86731fbc6d1f928d6c824dadd7e5b5b233d386de53e9ef"
                            }
                        ],
                        "signature": "sha256hash(bytes)"
                    },
                    "errorInfo": "",
                    "fromAddress": "0x8d12a197cb00d4747a1fe03395095ce2a5cc6819",
                    "gasUsed": 132,
                    "id": 10,
                    "methodDecoded": true,
                    "operation": "CALL",
                    "output": "0xb844023e166103dbae86731fbc6d1f928d6c824dadd7e5b5b233d386de53e9ef",
                    "revert": false,
                    "revertMessage": "",
                    "selector": "0x8d12a197",
                    "status": true,
                    "value": "0"
                },
                "nodeType": 0
            },
            "11": {
                "invocation": {
                    "address": "0x0000000000000000000000000000000000000001",
                    "callData": "0x5aee575aaefca17d6aadfffc51278553af9bbd01a243771b6bb5ba03000000000000000000000000000000000000000000000000000000000000001c955645e6a333b444c9c96ad8c3899e457967453d5eef744dec2c5e81aaf899587856c4c326a5206b6159cb995e0534bdf5b4044262bbd483d0c7bfcf4a6b9fbf",
                    "decodedMethod": {
                        "callParams": [
                            {
                                "name": "hash",
                                "type": "bytes32",
                                "value": "0xedd6cc5d5aee575aaefca17d6aadfffc51278553af9bbd01a243771b6bb5ba03"
                            },
                            {
                                "name": "v",
                                "type": "uint256",
                                "value": "28"
                            },
                            {
                                "name": "r",
                                "type": "bytes32",
                                "value": "0x955645e6a333b444c9c96ad8c3899e457967453d5eef744dec2c5e81aaf89958"
                            },
                            {
                                "name": "s",
                                "type": "bytes32",
                                "value": "0x7856c4c326a5206b6159cb995e0534bdf5b4044262bbd483d0c7bfcf4a6b9fbf"
                            }
                        ],
                        "constructorArguments": "",
                        "name": "ecrecover",
                        "returnParams": [
                            {
                                "name": "",
                                "type": "address",
                                "value": "0x9ba6f2851c8afe6be654fbd4c3dc7e9e64cffe53"
                            }
                        ],
                        "signature": "ecrecover(bytes32,uint256,bytes32,bytes32)"
                    },
                    "errorInfo": "",
                    "fromAddress": "0x8d12a197cb00d4747a1fe03395095ce2a5cc6819",
                    "gasUsed": 3000,
                    "id": 11,
                    "methodDecoded": true,
                    "operation": "CALL",
                    "output": "0x0000000000000000000000009ba6f2851c8afe6be654fbd4c3dc7e9e64cffe53",
                    "revert": false,
                    "revertMessage": "",
                    "selector": "0xedd6cc5d",
                    "status": true,
                    "value": "0"
                },
                "nodeType": 0
            },
            "12": {
                "event": {
                    "contract": "0x8d12a197cb00d4747a1fe03395095ce2a5cc6819",
                    "decodedLog": {
                        "name": "Trade",
                        "params": [
                            {
                                "name": "tokenGet",
                                "type": "address",
                                "value": "0x3d1ba9be9f66b8ee101911bc36d3fb562eac2244"
                            },
                            {
                                "name": "amountGet",
                                "type": "uint256",
                                "value": "99,700,000,000,000,000,000"
                            },
                            {
                                "name": "tokenGive",
                                "type": "address",
                                "value": "0x0000000000000000000000000000000000000000"
                            },
                            {
                                "name": "amountGive",
                                "type": "uint256",
                                "value": "133,609,066,700,000,000"
                            },
                            {
                                "name": "get",
                                "type": "address",
                                "value": "0x9ba6f2851c8afe6be654fbd4c3dc7e9e64cffe53"
                            },
                            {
                                "name": "give",
                                "type": "address",
                                "value": "0x273a5d3e6721b9f5c1a6474f560c1334c63dda01"
                            }
                        ],
                        "signature": "Trade(address,uint256,address,uint256,address,address)"
                    },
                    "id": 12,
                    "logData": "0x0000000000000000000000003d1ba9be9f66b8ee101911bc36d3fb562eac2244000000000000000000000000000000000000000000000005679d8dc44a720000000000000000000000000000000000000000000000000000000000000000000000000000000000000000000000000000000000000000000001daacbcff6ccb000000000000000000000000009ba6f2851c8afe6be654fbd4c3dc7e9e64cffe53000000000000000000000000273a5d3e6721b9f5c1a6474f560c1334c63dda01",
                    "logDecoded": true,
                    "operation": "EVENT",
                    "revert": false,
                    "status": true,
                    "topics": [
                        "0x6effdda786735d5033bfad5f53e5131abcced9e52be6c507b62d639685fbed6d"
                    ]
                },
                "nodeType": 1
            },
            "2": {
                "invocation": {
                    "address": "0x8d12a197cb00d4747a1fe03395095ce2a5cc6819",
                    "callData": "0x0000000000000000000000003d1ba9be9f66b8ee101911bc36d3fb562eac2244000000000000000000000000827423c110c4077877102b4b0427b79199ec4ec5",
                    "decodedMethod": {
                        "callParams": [
                            {
                                "name": "",
                                "type": "address",
                                "value": "0x3d1ba9be9f66b8ee101911bc36d3fb562eac2244"
                            },
                            {
                                "name": "",
                                "type": "address",
                                "value": "0x827423c110c4077877102b4b0427b79199ec4ec5"
                            }
                        ],
                        "constructorArguments": "",
                        "name": "tokens",
                        "returnParams": [
                            {
                                "name": "",
                                "type": "uint256",
                                "value": "1,181,468,530,571,307,415,386"
                            }
                        ],
                        "signature": "tokens(address,address)"
                    },
                    "errorInfo": "",
                    "fromAddress": "0x273a5d3e6721b9f5c1a6474f560c1334c63dda01",
                    "gasUsed": 824,
                    "id": 2,
                    "methodDecoded": true,
                    "operation": "CALL",
                    "output": "0x0000000000000000000000000000000000000000000000400c2b68ddb584775a",
                    "revert": false,
                    "revertMessage": "",
                    "selector": "0x508493bc",
                    "status": true,
                    "value": "0"
                },
                "nodeType": 0
            },
            "3": {
                "invocation": {
                    "address": "0x8d12a197cb00d4747a1fe03395095ce2a5cc6819",
                    "callData": "0x0000000000000000000000009ba6f2851c8afe6be654fbd4c3dc7e9e64cffe53b844023e166103dbae86731fbc6d1f928d6c824dadd7e5b5b233d386de53e9ef",
                    "decodedMethod": {
                        "callParams": [
                            {
                                "name": "",
                                "type": "address",
                                "value": "0x9ba6f2851c8afe6be654fbd4c3dc7e9e64cffe53"
                            },
                            {
                                "name": "",
                                "type": "bytes32",
                                "value": "0xb844023e166103dbae86731fbc6d1f928d6c824dadd7e5b5b233d386de53e9ef"
                            }
                        ],
                        "constructorArguments": "",
                        "name": "orderFills",
                        "returnParams": [
                            {
                                "name": "",
                                "type": "uint256",
                                "value": "0"
                            }
                        ],
                        "signature": "orderFills(address,bytes32)"
                    },
                    "errorInfo": "",
                    "fromAddress": "0x273a5d3e6721b9f5c1a6474f560c1334c63dda01",
                    "gasUsed": 705,
                    "id": 3,
                    "methodDecoded": true,
                    "operation": "CALL",
                    "output": "0x0000000000000000000000000000000000000000000000000000000000000000",
                    "revert": false,
                    "revertMessage": "",
                    "selector": "0x19774d43",
                    "status": true,
                    "value": "0"
                },
                "nodeType": 0
            },
            "4": {
                "invocation": {
                    "address": "0x8d12a197cb00d4747a1fe03395095ce2a5cc6819",
                    "callData": "0x00000000000000000000000000000000000000000000000000000000000000000000000000000000000000009ba6f2851c8afe6be654fbd4c3dc7e9e64cffe53",
                    "decodedMethod": {
                        "callParams": [
                            {
                                "name": "",
                                "type": "address",
                                "value": "0x0000000000000000000000000000000000000000"
                            },
                            {
                                "name": "",
                                "type": "address",
                                "value": "0x9ba6f2851c8afe6be654fbd4c3dc7e9e64cffe53"
                            }
                        ],
                        "constructorArguments": "",
                        "name": "tokens",
                        "returnParams": [
                            {
                                "name": "",
                                "type": "uint256",
                                "value": "308,252,853,435,233,960"
                            }
                        ],
                        "signature": "tokens(address,address)"
                    },
                    "errorInfo": "",
                    "fromAddress": "0x273a5d3e6721b9f5c1a6474f560c1334c63dda01",
                    "gasUsed": 824,
                    "id": 4,
                    "methodDecoded": true,
                    "operation": "CALL",
                    "output": "0x000000000000000000000000000000000000000000000000044722564601f6a8",
                    "revert": false,
                    "revertMessage": "",
                    "selector": "0x508493bc",
                    "status": true,
                    "value": "0"
                },
                "nodeType": 0
            },
            "5": {
                "invocation": {
                    "address": "0x8d12a197cb00d4747a1fe03395095ce2a5cc6819",
                    "callData": "0x0000000000000000000000000000000000000000000000000000000000000000000000000000000000000000000000000000000000000000bdaa9523c0c940000000000000000000000000003d1ba9be9f66b8ee101911bc36d3fb562eac2244000000000000000000000000000000000000000000000239e92ee7bd21a400000000000000000000000000000000000000000000000000000000000000431f1c000000000000000000000000000000000000000000000000000000004179f956000000000000000000000000827423c110c4077877102b4b0427b79199ec4ec5000000000000000000000000000000000000000000000000000000000000001c48bf85cc64a88d2a32a5868ecd1086b47449c001682671067bbac5db6c71d8464b8e3dc3aaba86441fe0b5826475e4b48e1c91ac7daac7c254375f72a59378ea00000000000000000000000000000000000000000000000001cdda4faccd0000",
                    "decodedMethod": {
                        "callParams": [
                            {
                                "name": "tokenGet",
                                "type": "address",
                                "value": "0x0000000000000000000000000000000000000000"
                            },
                            {
                                "name": "amountGet",
                                "type": "uint256",
                                "value": "13,666,900,000,000,000,000"
                            },
                            {
                                "name": "tokenGive",
                                "type": "address",
                                "value": "0x3d1ba9be9f66b8ee101911bc36d3fb562eac2244"
                            },
                            {
                                "name": "amountGive",
                                "type": "uint256",
                                "value": "10,513,000,000,000,000,000,000"
                            },
                            {
                                "name": "expires",
                                "type": "uint256",
                                "value": "4,398,876"
                            },
                            {
                                "name": "nonce",
                                "type": "uint256",
                                "value": "1,098,512,726"
                            },
                            {
                                "name": "user",
                                "type": "address",
                                "value": "0x827423c110c4077877102b4b0427b79199ec4ec5"
                            },
                            {
                                "name": "v",
                                "type": "uint8",
                                "value": "28"
                            },
                            {
                                "name": "r",
                                "type": "bytes32",
                                "value": "0x48bf85cc64a88d2a32a5868ecd1086b47449c001682671067bbac5db6c71d846"
                            },
                            {
                                "name": "s",
                                "type": "bytes32",
                                "value": "0x4b8e3dc3aaba86441fe0b5826475e4b48e1c91ac7daac7c254375f72a59378ea"
                            },
                            {
                                "name": "amount",
                                "type": "uint256",
                                "value": "130,000,000,000,000,000"
                            }
                        ],
                        "constructorArguments": "",
                        "name": "trade",
                        "returnParams": [],
                        "signature": "trade(address,uint256,address,uint256,uint256,uint256,address,uint8,bytes32,bytes32,uint256)"
                    },
                    "errorInfo": "",
                    "fromAddress": "0x273a5d3e6721b9f5c1a6474f560c1334c63dda01",
                    "gasUsed": 46986,
                    "id": 5,
                    "methodDecoded": true,
                    "operation": "CALL",
                    "output": "",
                    "revert": false,
                    "revertMessage": "",
                    "selector": "0x0a19b14a",
                    "status": true,
                    "value": "0"
                },
                "nodeType": 0
            },
            "6": {
                "invocation": {
                    "address": "0x0000000000000000000000000000000000000002",
                    "callData": "0xcb00d4747a1fe03395095ce2a5cc68190000000000000000000000000000000000000000000000000000000000000000000000000000000000000000bdaa9523c0c940003d1ba9be9f66b8ee101911bc36d3fb562eac2244000000000000000000000000000000000000000000000239e92ee7bd21a400000000000000000000000000000000000000000000000000000000000000431f1c000000000000000000000000000000000000000000000000000000004179f956",
                    "decodedMethod": {
                        "callParams": [
                            {
                                "name": "data",
                                "type": "bytes",
                                "value": "0x8d12a197cb00d4747a1fe03395095ce2a5cc68190000000000000000000000000000000000000000000000000000000000000000000000000000000000000000bdaa9523c0c940003d1ba9be9f66b8ee101911bc36d3fb562eac2244000000000000000000000000000000000000000000000239e92ee7bd21a400000000000000000000000000000000000000000000000000000000000000431f1c000000000000000000000000000000000000000000000000000000004179f956"
                            }
                        ],
                        "constructorArguments": "",
                        "name": "sha256hash",
                        "returnParams": [
                            {
                                "name": "hash",
                                "type": "bytes32",
                                "value": "0xebca58680fda9b23b32b6e4a102b8aa1d4d33fe2dce48274ec7e934e382f2c15"
                            }
                        ],
                        "signature": "sha256hash(bytes)"
                    },
                    "errorInfo": "",
                    "fromAddress": "0x8d12a197cb00d4747a1fe03395095ce2a5cc6819",
                    "gasUsed": 132,
                    "id": 6,
                    "methodDecoded": true,
                    "operation": "CALL",
                    "output": "0xebca58680fda9b23b32b6e4a102b8aa1d4d33fe2dce48274ec7e934e382f2c15",
                    "revert": false,
                    "revertMessage": "",
                    "selector": "0x8d12a197",
                    "status": true,
                    "value": "0"
                },
                "nodeType": 0
            },
            "7": {
                "invocation": {
                    "address": "0x0000000000000000000000000000000000000001",
                    "callData": "0x3da2b1cd9327b4cbd5182f91cb0116d4a0bbaefa4cd9538584323de8000000000000000000000000000000000000000000000000000000000000001c48bf85cc64a88d2a32a5868ecd1086b47449c001682671067bbac5db6c71d8464b8e3dc3aaba86441fe0b5826475e4b48e1c91ac7daac7c254375f72a59378ea",
                    "decodedMethod": {
                        "callParams": [
                            {
                                "name": "hash",
                                "type": "bytes32",
                                "value": "0x8981f4e83da2b1cd9327b4cbd5182f91cb0116d4a0bbaefa4cd9538584323de8"
                            },
                            {
                                "name": "v",
                                "type": "uint256",
                                "value": "28"
                            },
                            {
                                "name": "r",
                                "type": "bytes32",
                                "value": "0x48bf85cc64a88d2a32a5868ecd1086b47449c001682671067bbac5db6c71d846"
                            },
                            {
                                "name": "s",
                                "type": "bytes32",
                                "value": "0x4b8e3dc3aaba86441fe0b5826475e4b48e1c91ac7daac7c254375f72a59378ea"
                            }
                        ],
                        "constructorArguments": "",
                        "name": "ecrecover",
                        "returnParams": [
                            {
                                "name": "",
                                "type": "address",
                                "value": "0x827423c110c4077877102b4b0427b79199ec4ec5"
                            }
                        ],
                        "signature": "ecrecover(bytes32,uint256,bytes32,bytes32)"
                    },
                    "errorInfo": "",
                    "fromAddress": "0x8d12a197cb00d4747a1fe03395095ce2a5cc6819",
                    "gasUsed": 3000,
                    "id": 7,
                    "methodDecoded": true,
                    "operation": "CALL",
                    "output": "0x000000000000000000000000827423c110c4077877102b4b0427b79199ec4ec5",
                    "revert": false,
                    "revertMessage": "",
                    "selector": "0x8981f4e8",
                    "status": true,
                    "value": "0"
                },
                "nodeType": 0
            },
            "8": {
                "event": {
                    "contract": "0x8d12a197cb00d4747a1fe03395095ce2a5cc6819",
                    "decodedLog": {
                        "name": "Trade",
                        "params": [
                            {
                                "name": "tokenGet",
                                "type": "address",
                                "value": "0x0000000000000000000000000000000000000000"
                            },
                            {
                                "name": "amountGet",
                                "type": "uint256",
                                "value": "130,000,000,000,000,000"
                            },
                            {
                                "name": "tokenGive",
                                "type": "address",
                                "value": "0x3d1ba9be9f66b8ee101911bc36d3fb562eac2244"
                            },
                            {
                                "name": "amountGive",
                                "type": "uint256",
                                "value": "100,000,000,000,000,000,000"
                            },
                            {
                                "name": "get",
                                "type": "address",
                                "value": "0x827423c110c4077877102b4b0427b79199ec4ec5"
                            },
                            {
                                "name": "give",
                                "type": "address",
                                "value": "0x273a5d3e6721b9f5c1a6474f560c1334c63dda01"
                            }
                        ],
                        "signature": "Trade(address,uint256,address,uint256,address,address)"
                    },
                    "id": 8,
                    "logData": "0x000000000000000000000000000000000000000000000000000000000000000000000000000000000000000000000000000000000000000001cdda4faccd00000000000000000000000000003d1ba9be9f66b8ee101911bc36d3fb562eac22440000000000000000000000000000000000000000000000056bc75e2d63100000000000000000000000000000827423c110c4077877102b4b0427b79199ec4ec5000000000000000000000000273a5d3e6721b9f5c1a6474f560c1334c63dda01",
                    "logDecoded": true,
                    "operation": "EVENT",
                    "revert": false,
                    "status": true,
                    "topics": [
                        "0x6effdda786735d5033bfad5f53e5131abcced9e52be6c507b62d639685fbed6d"
                    ]
                },
                "nodeType": 1
            },
            "9": {
                "invocation": {
                    "address": "0x8d12a197cb00d4747a1fe03395095ce2a5cc6819",
                    "callData": "0x0000000000000000000000003d1ba9be9f66b8ee101911bc36d3fb562eac22440000000000000000000000000000000000000000000000056bc75e2d63100000000000000000000000000000000000000000000000000000000000000000000000000000000000000000000000000000000000000000000001dc1a62ab7598000000000000000000000000000000000000000000000000000000000000431dc4000000000000000000000000000000000000000000000000000000006b95c2fd0000000000000000000000009ba6f2851c8afe6be654fbd4c3dc7e9e64cffe53000000000000000000000000000000000000000000000000000000000000001c955645e6a333b444c9c96ad8c3899e457967453d5eef744dec2c5e81aaf899587856c4c326a5206b6159cb995e0534bdf5b4044262bbd483d0c7bfcf4a6b9fbf000000000000000000000000000000000000000000000005679d8dc44a720000",
                    "decodedMethod": {
                        "callParams": [
                            {
                                "name": "tokenGet",
                                "type": "address",
                                "value": "0x3d1ba9be9f66b8ee101911bc36d3fb562eac2244"
                            },
                            {
                                "name": "amountGet",
                                "type": "uint256",
                                "value": "100,000,000,000,000,000,000"
                            },
                            {
                                "name": "tokenGive",
                                "type": "address",
                                "value": "0x0000000000000000000000000000000000000000"
                            },
                            {
                                "name": "amountGive",
                                "type": "uint256",
                                "value": "134,011,100,000,000,000"
                            },
                            {
                                "name": "expires",
                                "type": "uint256",
                                "value": "4,398,532"
                            },
                            {
                                "name": "nonce",
                                "type": "uint256",
                                "value": "1,804,976,893"
                            },
                            {
                                "name": "user",
                                "type": "address",
                                "value": "0x9ba6f2851c8afe6be654fbd4c3dc7e9e64cffe53"
                            },
                            {
                                "name": "v",
                                "type": "uint8",
                                "value": "28"
                            },
                            {
                                "name": "r",
                                "type": "bytes32",
                                "value": "0x955645e6a333b444c9c96ad8c3899e457967453d5eef744dec2c5e81aaf89958"
                            },
                            {
                                "name": "s",
                                "type": "bytes32",
                                "value": "0x7856c4c326a5206b6159cb995e0534bdf5b4044262bbd483d0c7bfcf4a6b9fbf"
                            },
                            {
                                "name": "amount",
                                "type": "uint256",
                                "value": "99,700,000,000,000,000,000"
                            }
                        ],
                        "constructorArguments": "",
                        "name": "trade",
                        "returnParams": [],
                        "signature": "trade(address,uint256,address,uint256,uint256,uint256,address,uint8,bytes32,bytes32,uint256)"
                    },
                    "errorInfo": "",
                    "fromAddress": "0x273a5d3e6721b9f5c1a6474f560c1334c63dda01",
                    "gasUsed": 61986,
                    "id": 9,
                    "methodDecoded": true,
                    "operation": "CALL",
                    "output": "",
                    "revert": false,
                    "revertMessage": "",
                    "selector": "0x0a19b14a",
                    "status": true,
                    "value": "0"
                },
                "nodeType": 0
            }
        },
        "gasFlame": [
            {
                "children": [
                    {
                        "children": [
                            {
                                "children": [],
                                "depth": 0,
                                "name": "Initial Gas",
                                "value": 43800
                            },
                            {
                                "children": [
                                    {
                                        "children": [],
                                        "depth": 1,
                                        "name": "orderFills",
                                        "value": 705
                                    },
                                    {
                                        "children": [],
                                        "depth": 1,
                                        "name": "tokens",
                                        "value": 824
                                    },
                                    {
                                        "children": [],
                                        "depth": 1,
                                        "name": "orderFills",
                                        "value": 705
                                    },
                                    {
                                        "children": [],
                                        "depth": 1,
                                        "name": "tokens",
                                        "value": 824
                                    },
                                    {
                                        "children": [
                                            {
                                                "children": [],
                                                "depth": 2,
                                                "name": "sha256hash",
                                                "value": 132
                                            },
                                            {
                                                "children": [],
                                                "depth": 2,
                                                "name": "ecrecover",
                                                "value": 3000
                                            }
                                        ],
                                        "depth": 1,
                                        "name": "trade",
                                        "value": 46986
                                    },
                                    {
                                        "children": [
                                            {
                                                "children": [],
                                                "depth": 2,
                                                "name": "sha256hash",
                                                "value": 132
                                            },
                                            {
                                                "children": [],
                                                "depth": 2,
                                                "name": "ecrecover",
                                                "value": 3000
                                            }
                                        ],
                                        "depth": 1,
                                        "name": "trade",
                                        "value": 61986
                                    }
                                ],
                                "depth": 0,
                                "name": "Executed Gas",
                                "value": 127866
                            }
                        ],
                        "depth": -1,
                        "name": "Actual Gas Used",
                        "value": 171666
                    },
                    {
                        "children": [],
                        "depth": -1,
                        "name": "Refunded Gas",
                        "value": 0
                    }
                ],
                "depth": -2,
                "name": "Total Gas",
                "value": 171666
            }
        ],
        "isConfirmed": true,
        "mainTrace": [
            {
                "children": [
                    {
                        "children": [
                            {
                                "children": [],
                                "depth": 1,
                                "id": 1,
                                "order": 1
                            },
                            {
                                "children": [],
                                "depth": 1,
                                "id": 2,
                                "order": 2
                            },
                            {
                                "children": [],
                                "depth": 1,
                                "id": 3,
                                "order": 3
                            },
                            {
                                "children": [],
                                "depth": 1,
                                "id": 4,
                                "order": 4
                            },
                            {
                                "children": [
                                    {
                                        "children": [],
                                        "depth": 2,
                                        "id": 6,
                                        "order": 6
                                    },
                                    {
                                        "children": [],
                                        "depth": 2,
                                        "id": 7,
                                        "order": 7
                                    },
                                    {
                                        "children": [],
                                        "depth": 2,
                                        "id": 8,
                                        "order": 8
                                    }
                                ],
                                "depth": 1,
                                "id": 5,
                                "order": 5
                            },
                            {
                                "children": [
                                    {
                                        "children": [],
                                        "depth": 2,
                                        "id": 10,
                                        "order": 10
                                    },
                                    {
                                        "children": [],
                                        "depth": 2,
                                        "id": 11,
                                        "order": 11
                                    },
                                    {
                                        "children": [],
                                        "depth": 2,
                                        "id": 12,
                                        "order": 12
                                    }
                                ],
                                "depth": 1,
                                "id": 9,
                                "order": 9
                            }
                        ],
                        "depth": 0,
                        "id": 0,
                        "order": 0
                    }
                ],
                "depth": -1,
                "id": -1,
                "order": -1
            }
        ],
        "mainTraceNodeCount": 13,
        "parentIdMap": {
            "0": -1,
            "1": 0,
            "10": 9,
            "11": 9,
            "12": 9,
            "2": 0,
            "3": 0,
            "4": 0,
            "5": 0,
            "6": 5,
            "7": 5,
            "8": 5,
            "9": 0
        },
        "tidyTrace": [
            {
                "children": [
                    {
                        "children": [
                            {
                                "children": [],
                                "depth": 1,
                                "id": 1,
                                "order": 1
                            },
                            {
                                "children": [],
                                "depth": 1,
                                "id": 2,
                                "order": 2
                            },
                            {
                                "children": [],
                                "depth": 1,
                                "id": 3,
                                "order": 3
                            },
                            {
                                "children": [],
                                "depth": 1,
                                "id": 4,
                                "order": 4
                            },
                            {
                                "children": [
                                    {
                                        "children": [],
                                        "depth": 2,
                                        "id": 6,
                                        "order": 6
                                    },
                                    {
                                        "children": [],
                                        "depth": 2,
                                        "id": 7,
                                        "order": 7
                                    },
                                    {
                                        "children": [],
                                        "depth": 2,
                                        "id": 8,
                                        "order": 8
                                    }
                                ],
                                "depth": 1,
                                "id": 5,
                                "order": 5
                            },
                            {
                                "children": [
                                    {
                                        "children": [],
                                        "depth": 2,
                                        "id": 10,
                                        "order": 10
                                    },
                                    {
                                        "children": [],
                                        "depth": 2,
                                        "id": 11,
                                        "order": 11
                                    },
                                    {
                                        "children": [],
                                        "depth": 2,
                                        "id": 12,
                                        "order": 12
                                    }
                                ],
                                "depth": 1,
                                "id": 9,
                                "order": 9
                            }
                        ],
                        "depth": 0,
                        "id": 0,
                        "order": 0
                    }
                ],
                "depth": -1,
                "id": -1,
                "order": -1
            }
        ],
        "tidyTraceNodeCount": 13
    },
    "state_change": {
        "stateChanges": [
            {
                "address": "0x8d12a197cb00d4747a1fe03395095ce2a5cc6819",
                "erc": "",
                "slots": [
                    {
                        "current": "0x0000000000000000000000000000000000000000000000000879f0b0635f549e",
                        "key": "0x5a16b85032f3fbc44757f6960390d9160f5afc3e4d9c08d4570e40658d43534a",
                        "prev": "0x0000000000000000000000000000000000000000000000000876be24cf13149e"
                    },
                    {
                        "current": "0x0000000000000000000000000000000000000000000000041be8fec72d42e32d",
                        "key": "0xd214251a56fcaad32be3ddd743e58224fc3d90c834938d6ed011ea6beefa7d27",
                        "prev": "0x0000000000000000000000000000000000000000000000041bdd8f0dce19782d"
                    },
                    {
                        "current": "0x000000000000000000000000000000000000000000000000b394152c82ab8388",
                        "key": "0x8b03fa21024a0d8d37c3e1a1f4da8a967065e52bc3f9c86b227d50c66546f940",
                        "prev": "0x000000000000000000000000000000000000000000000000b1c63adcd5de8388"
                    },
                    {
                        "current": "0x0000000000000000000000000000000000000000000000040188e9dbeb7db9cc",
                        "key": "0x9db71ea29ae27159ae6b0bc7608a91ca5e83d8e7e559f64559591e0344fb950e",
                        "prev": "0x00000000000000000000000000000000000000000000000401878727f80759cc"
                    },
                    {
                        "current": "0x00000000000000000000000000000000000000000000003aa0640ab05274775a",
                        "key": "0x29d9137aee68325ceceafc35a06adba5d08c8309f00e1f0b7e7c60dacbd40f13",
                        "prev": "0x0000000000000000000000000000000000000000000000400c2b68ddb584775a"
                    },
                    {
                        "current": "0x0000000000000000000000000000000000000000000000d5649954f860d90feb",
                        "key": "0x3fd9f458eb74534b8cd4c245e01846a227af06843dcd324b94308af303a13a82",
                        "prev": "0x0000000000000000000000000000000000000000000000cffcfbc73416670feb"
                    },
                    {
                        "current": "0x000000000000000000000000000000000000000000000000aa27ca45782e0388",
                        "key": "0xd9ffdc9e85ead2945326325f49aeb2688af86f68e0ac68438202318477dbe33c",
                        "prev": "0x000000000000000000000000000000000000000000000000a859eff5cb610388"
                    },
                    {
                        "current": "0x000000000000000000000000000000000000000000000000026c759946952ba8",
                        "key": "0x80ba3ac181b102673347589176bfc1315398748107a4494f4a7496fe5192ac09",
                        "prev": "0x000000000000000000000000000000000000000000000000044722564601f6a8"
                    },
                    {
                        "current": "0x000000000000000000000000000000000000000000000005679d8dc44a720000",
                        "key": "0xfa2981027c701b5ffb81a01649bd901b28fee3addea364218ff76f6ed4693c6b",
                        "prev": "0x0000000000000000000000000000000000000000000000000000000000000000"
                    },
                    {
                        "current": "0x00000000000000000000000000000000000000000000002b7f1634622994dc0f",
                        "key": "0xe4ccb0a25c95dc593f06304b6e05a96bb7a1e4cfb64e67a019df09c7071aee5e",
                        "prev": "0x00000000000000000000000000000000000000000000002b7aef9684a5431c0f"
                    }
                ],
                "storageVariables": []
            }
        ]
    }
}