{
    "balance_change": {
        "balanceChanges": [
            {
                "account": "0x842e4a89d27ae47d5df3a05c0b3a55db5448bcfb",
                "assets": [
                    {
                        "address": "0xeeeeeeeeeeeeeeeeeeeeeeeeeeeeeeeeeeeeeeee",
                        "amount": "0.085253329599882933",
                        "iconUrl": "https://assets.blocksec.com/image/1663669189317-3.png",
                        "isERC1155": false,
                        "isERC721": false,
                        "sign": false,
                        "value": "162.29846862611200232"
                    },
                    {
                        "address": "0xd4416b13d2b3a9abae7acd5d6c2bbdbe25686401",
                        "amount": "1",
                        "iconUrl": "",
                        "isERC1155": true,
                        "isERC721": false,
                        "sign": true,
                        "tokenID": "65175024023097751408242144589176220324641379182596889876329640515748274205098",
                        "value": ""
                    }
                ]
            },
            {
                "account": "0x253553366da8546fc250f225fe3d25d0c782303b",
                "assets": [
                    {
                        "address": "0xeeeeeeeeeeeeeeeeeeeeeeeeeeeeeeeeeeeeeeee",
                        "amount": "0.085253329599882933",
                        "iconUrl": "https://assets.blocksec.com/image/1663669189317-3.png",
                        "isERC1155": false,
                        "isERC721": false,
                        "sign": true,
                        "value": "162.29846862611200232"
                    }
                ]
            },
            {
                "account": "0x0000000000000000000000000000000000000000",
                "assets": [
                    {
                        "address": "0xd4416b13d2b3a9abae7acd5d6c2bbdbe25686401",
                        "amount": "1",
                        "iconUrl": "",
                        "isERC1155": true,
                        "isERC721": false,
                        "sign": false,
                        "tokenID": "65175024023097751408242144589176220324641379182596889876329640515748274205098",
                        "value": ""
                    }
                ]
            },
            {
                "account": "0xcfe7321fd5aca6912694ecf85d41617e0d884fdc",
                "assets": [
                    {
                        "address": "0x57f1887a8bf19b14fc0df6fd9b2acc9af147ea85",
                        "amount": "1",
                        "iconUrl": "https://assets.blocksec.com/nft/icon/nft_be0542b7-4f14-457c-a46f-8a69d57f084c.png",
                        "isERC1155": false,
                        "isERC721": true,
                        "sign": false,
                        "tokenID": "93098947971102567816336636455290064959709316159688337041922639433294581984254",
                        "value": ""
                    }
                ]
            },
            {
                "account": "0xd4416b13d2b3a9abae7acd5d6c2bbdbe25686401",
                "assets": [
                    {
                        "address": "0x57f1887a8bf19b14fc0df6fd9b2acc9af147ea85",
                        "amount": "1",
                        "iconUrl": "https://assets.blocksec.com/nft/icon/nft_be0542b7-4f14-457c-a46f-8a69d57f084c.png",
                        "isERC1155": false,
                        "isERC721": true,
                        "sign": true,
                        "tokenID": "93098947971102567816336636455290064959709316159688337041922639433294581984254",
                        "value": ""
                    }
                ]
            }
        ]
    },
    "profile": {
        "basic_info": {
            "baseFee": "22.705413917",
            "blockNumber": 17396569,
            "callData": "0x74694a2b0000000000000000000000000000000000000000000000000000000000000100000000000000000000000000842e4a89d27ae47d5df3a05c0b3a55db5448bcfb0000000000000000000000000000000000000000000000000000000001e133809923eb9400000003948a23fb11202fc5940d618b904c5b1e35ca98d630c7cff9000000000000000000000000231b0ee14048e9dccd1d247744d114a4eb5e8e6300000000000000000000000000000000000000000000000000000000000001400000000000000000000000000000000000000000000000000000000000000001000000000000000000000000000000000000000000000000000000000000000000000000000000000000000000000000000000000000000000000000000000046361796f000000000000000000000000000000000000000000000000000000000000000000000000000000000000000000000000000000000000000000000001000000000000000000000000000000000000000000000000000000000000002000000000000000000000000000000000000000000000000000000000000000a48b95dd719017c19fc6d8d7eecd95faed784fd661c46a6b78877168ad8bf5d00d94f171aa000000000000000000000000000000000000000000000000000000000000003c00000000000000000000000000000000000000000000000000000000000000600000000000000000000000000000000000000000000000000000000000000014842e4a89d27ae47d5df3a05c0b3a55db5448bcfb00000000000000000000000000000000000000000000000000000000000000000000000000000000",
            "debugEnable": true,
            "errorInfo": "",
            "eventCount": 14,
            "feeRecipient": "0x388c818ca8b9251b393131c08a736a67ccb19297",
            "formatValue": "0.085258349418287023",
            "gasLimit": 366287,
            "gasPrice": "22.805413917",
            "gasUsed": 323230,
            "intTxnCount": 18,
            "internalRevert": false,
            "internalRevertMessage": "",
            "isContractCreation": false,
            "isFlashloan": false,
            "maxFee": "29.648940372",
            "nonce": 105,
            "overwritedBlockNumber": -1,
            "priorityFee": "0.1",
            "receiver": "0x253553366da8546fc250f225fe3d25d0c782303b",
            "revertMessage": "",
            "sender": "0x842e4a89d27ae47d5df3a05c0b3a55db5448bcfb",
            "simulationEnable": true,
            "sourceTxnHash": "0x0a5e1e1aec60777fbf97021814e6a230380fbfedc83de8cf8b63155ea4cfcdbe",
            "status": true,
            "timestamp": "2023-06-03T00:23:11Z",
            "transactionFee": "0.00737139394039191",
            "txnHash": "0x0a5e1e1aec60777fbf97021814e6a230380fbfedc83de8cf8b63155ea4cfcdbe",
            "txnIndex": 186,
            "type": 2,
            "value": "85258349418287023"
        },
        "fund_flow": [
            {
                "amount": "0.085258349418287023",
                "from": "0x842e4a89d27ae47d5df3a05c0b3a55db5448bcfb",
                "id": 1,
                "isERC1155": false,
                "isERC721": false,
                "isReverted": false,
                "order": 1,
                "to": "0x253553366da8546fc250f225fe3d25d0c782303b",
                "token": "0xeeeeeeeeeeeeeeeeeeeeeeeeeeeeeeeeeeeeeeee"
            },
            {
                "amount": "1",
                "from": "0xcfe7321fd5aca6912694ecf85d41617e0d884fdc",
                "id": 2,
                "isERC1155": false,
                "isERC721": true,
                "isReverted": false,
                "order": 2,
                "to": "0x0000000000000000000000000000000000000000",
                "token": "0x57f1887a8bf19b14fc0df6fd9b2acc9af147ea85",
                "tokenID": "93098947971102567816336636455290064959709316159688337041922639433294581984254"
            },
            {
                "amount": "1",
                "from": "0x0000000000000000000000000000000000000000",
                "id": 3,
                "isERC1155": false,
                "isERC721": true,
                "isReverted": false,
                "order": 3,
                "to": "0xd4416b13d2b3a9abae7acd5d6c2bbdbe25686401",
                "token": "0x57f1887a8bf19b14fc0df6fd9b2acc9af147ea85",
                "tokenID": "93098947971102567816336636455290064959709316159688337041922639433294581984254"
            },
            {
                "amount": "1",
                "from": "0x0000000000000000000000000000000000000000",
                "id": 4,
                "isERC1155": true,
                "isERC721": false,
                "isReverted": false,
                "order": 4,
                "to": "0x842e4a89d27ae47d5df3a05c0b3a55db5448bcfb",
                "token": "0xd4416b13d2b3a9abae7acd5d6c2bbdbe25686401",
                "tokenID": "65175024023097751408242144589176220324641379182596889876329640515748274205098"
            },
            {
                "amount": "0.00000501981840409",
                "from": "0x253553366da8546fc250f225fe3d25d0c782303b",
                "id": 5,
                "isERC1155": false,
                "isERC721": false,
                "isReverted": false,
                "order": 5,
                "to": "0x842e4a89d27ae47d5df3a05c0b3a55db5448bcfb",
                "token": "0xeeeeeeeeeeeeeeeeeeeeeeeeeeeeeeeeeeeeeeee"
            }
        ],
        "token_infos": [
            {
                "address": "0xc02aaa39b223fe8d0a0e5c4f27ead9083c756cc2",
                "decimals": 18
            },
            {
                "address": "0xeeeeeeeeeeeeeeeeeeeeeeeeeeeeeeeeeeeeeeee",
                "decimals": 18
            }
        ]
    },
    "address_label": {
        "labels": [
            {
                "address": "0x00000000000c2e074ec69a0dfb2997ba6c7d2e1e",
                "label": "ENS: Registry with Fallback"
            },
            {
                "address": "0xa58e81fe9b61b5c3fe2afd33cf304c454abfc7cb",
                "label": "ENS: Reverse Registrar"
            },
            {
                "address": "0x0000000000000000000000000000000000000001",
                "label": "Precompiled"
            },
            {
                "address": "0x57f1887a8bf19b14fc0df6fd9b2acc9af147ea85",
                "label": "ENS: Base Registrar Implementation"
            },
            {
                "address": "0xe62b71cf983019bff55bc83b48601ce8419650cc",
                "label": "AccessControlledOffchainAggregator"
            },
            {
                "address": "0x0000000000000000000000000000000000000004",
                "label": "Precompiled"
            },
            {
                "address": "0xeeeeeeeeeeeeeeeeeeeeeeeeeeeeeeeeeeeeeeee",
                "label": "Ether"
            },
            {
                "address": "0x253553366da8546fc250f225fe3d25d0c782303b",
                "label": "ENS: ETH Registrar Controller"
            },
            {
                "address": "0x0000000000000000000000000000000000000003",
                "label": "Precompiled"
            },
            {
                "address": "0xd4416b13d2b3a9abae7acd5d6c2bbdbe25686401",
                "label": "ENS: Name Wrapper"
            },
            {
                "address": "0x388c818ca8b9251b393131c08a736a67ccb19297",
                "label": "LidoExecutionLayerRewardsVault"
            },
            {
                "address": "0x0000000000000000000000000000000000000002",
                "label": "Precompiled"
            },
            {
                "address": "0x231b0ee14048e9dccd1d247744d114a4eb5e8e63",
                "label": "ENS: Public Resolver"
            },
            {
                "address": "0x7542565191d074ce84fbfa92cae13acb84788ca9",
                "label": "ExponentialPremiumPriceOracle"
            },
            {
                "address": "0x5f4ec3df9cbd43714fe2740f5e3616155c5b8419",
                "label": "EACAggregatorProxy"
            }
        ]
    },
    "trace": {
        "accountLabels": null,
        "dataMap": {
            "-1": {
                "invocation": {
                    "address": "0x842e4a89d27ae47d5df3a05c0b3a55db5448bcfb",
                    "callData": "",
                    "decodedMethod": null,
                    "errorInfo": "",
                    "fromAddress": "",
                    "gasUsed": 0,
                    "id": -1,
                    "methodDecoded": false,
                    "operation": "",
                    "output": "",
                    "revert": false,
                    "revertMessage": "",
                    "selector": "",
                    "status": false,
                    "value": ""
                },
                "nodeType": 0
            },
            "0": {
                "invocation": {
                    "address": "0x253553366da8546fc250f225fe3d25d0c782303b",
                    "callData": "0x0000000000000000000000000000000000000000000000000000000000000100000000000000000000000000842e4a89d27ae47d5df3a05c0b3a55db5448bcfb0000000000000000000000000000000000000000000000000000000001e133809923eb9400000003948a23fb11202fc5940d618b904c5b1e35ca98d630c7cff9000000000000000000000000231b0ee14048e9dccd1d247744d114a4eb5e8e6300000000000000000000000000000000000000000000000000000000000001400000000000000000000000000000000000000000000000000000000000000001000000000000000000000000000000000000000000000000000000000000000000000000000000000000000000000000000000000000000000000000000000046361796f000000000000000000000000000000000000000000000000000000000000000000000000000000000000000000000000000000000000000000000001000000000000000000000000000000000000000000000000000000000000002000000000000000000000000000000000000000000000000000000000000000a48b95dd719017c19fc6d8d7eecd95faed784fd661c46a6b78877168ad8bf5d00d94f171aa000000000000000000000000000000000000000000000000000000000000003c00000000000000000000000000000000000000000000000000000000000000600000000000000000000000000000000000000000000000000000000000000014842e4a89d27ae47d5df3a05c0b3a55db5448bcfb00000000000000000000000000000000000000000000000000000000000000000000000000000000",
                    "decodedMethod": {
                        "callParams": [
                            {
                                "name": "name",
                                "type": "string",
                                "value": "cayo"
                            },
                            {
                                "name": "owner",
                                "type": "address",
                                "value": "0x842e4a89d27ae47d5df3a05c0b3a55db5448bcfb"
                            },
                            {
                                "name": "duration",
                                "type": "uint256",
                                "value": "31,536,000"
                            },
                            {
                                "name": "secret",
                                "type": "bytes32",
                                "value": "0x9923eb9400000003948a23fb11202fc5940d618b904c5b1e35ca98d630c7cff9"
                            },
                            {
                                "name": "resolver",
                                "type": "address",
                                "value": "0x231b0ee14048e9dccd1d247744d114a4eb5e8e63"
                            },
                            {
                                "name": "data",
                                "type": "bytes[]",
                                "value": [
                                    "0x8b95dd719017c19fc6d8d7eecd95faed784fd661c46a6b78877168ad8bf5d00d94f171aa000000000000000000000000000000000000000000000000000000000000003c00000000000000000000000000000000000000000000000000000000000000600000000000000000000000000000000000000000000000000000000000000014842e4a89d27ae47d5df3a05c0b3a55db5448bcfb000000000000000000000000"
                                ]
                            },
                            {
                                "name": "reverseRecord",
                                "type": "bool",
                                "value": true
                            },
                            {
                                "name": "ownerControlledFuses",
                                "type": "uint16",
                                "value": "0"
                            }
                        ],
                        "constructorArguments": "",
                        "name": "register",
                        "returnParams": [],
                        "signature": "register(string,address,uint256,bytes32,address,bytes[],bool,uint16)"
                    },
                    "errorInfo": "",
                    "fromAddress": "0x842e4a89d27ae47d5df3a05c0b3a55db5448bcfb",
                    "gasUsed": 323230,
                    "id": 0,
                    "methodDecoded": true,
                    "operation": "CALL",
                    "output": "",
                    "revert": false,
                    "revertMessage": "",
                    "selector": "0x74694a2b",
                    "status": true,
                    "value": "0.085258349418287023"
                },
                "nodeType": 0
            },
            "1": {
                "invocation": {
                    "address": "0x57f1887a8bf19b14fc0df6fd9b2acc9af147ea85",
                    "callData": "0xcdd423205e923a1abae5673698697012c3394afa9e8f9f0dec06ef1143e5ebfe",
                    "decodedMethod": {
                        "callParams": [
                            {
                                "name": "id",
                                "type": "uint256",
                                "value": "93,098,947,971,102,567,816,336,636,455,290,064,959,709,316,159,688,337,041,922,639,433,294,581,984,254"
                            }
                        ],
                        "constructorArguments": "",
                        "name": "nameExpires",
                        "returnParams": [
                            {
                                "name": "",
                                "type": "uint256",
                                "value": "1,676,168,012"
                            }
                        ],
                        "signature": "nameExpires(uint256)"
                    },
                    "errorInfo": "",
                    "fromAddress": "0x253553366da8546fc250f225fe3d25d0c782303b",
                    "gasUsed": 2523,
                    "id": 1,
                    "methodDecoded": true,
                    "operation": "STATICCALL",
                    "output": "0x0000000000000000000000000000000000000000000000000000000063e84b4c",
                    "revert": false,
                    "revertMessage": "",
                    "selector": "0xd6e4fa86",
                    "status": true,
                    "value": "0"
                },
                "nodeType": 0
            },
            "10": {
                "invocation": {
                    "address": "0x00000000000c2e074ec69a0dfb2997ba6c7d2e1e",
                    "callData": "0x93cdeb708b7545dc668eb9280176169d1c33cfd8ed6f04690a0bcc88a93fc4ae",
                    "decodedMethod": {
                        "callParams": [
                            {
                                "name": "node",
                                "type": "bytes32",
                                "value": "0x93cdeb708b7545dc668eb9280176169d1c33cfd8ed6f04690a0bcc88a93fc4ae"
                            }
                        ],
                        "constructorArguments": "",
                        "name": "owner",
                        "returnParams": [
                            {
                                "name": "",
                                "type": "address",
                                "value": "0x57f1887a8bf19b14fc0df6fd9b2acc9af147ea85"
                            }
                        ],
                        "signature": "owner(bytes32)"
                    },
                    "errorInfo": "",
                    "fromAddress": "0x57f1887a8bf19b14fc0df6fd9b2acc9af147ea85",
                    "gasUsed": 2951,
                    "id": 10,
                    "methodDecoded": true,
                    "operation": "STATICCALL",
                    "output": "0x00000000000000000000000057f1887a8bf19b14fc0df6fd9b2acc9af147ea85",
                    "revert": false,
                    "revertMessage": "",
                    "selector": "0x02571be3",
                    "status": true,
                    "value": "0"
                },
                "nodeType": 0
            },
            "11": {
                "event": {
                    "contract": "0x57f1887a8bf19b14fc0df6fd9b2acc9af147ea85",
                    "decodedLog": {
                        "name": "Transfer",
                        "params": [
                            {
                                "name": "from",
                                "type": "address",
                                "value": "0xcfe7321fd5aca6912694ecf85d41617e0d884fdc"
                            },
                            {
                                "name": "to",
                                "type": "address",
                                "value": "0x0000000000000000000000000000000000000000"
                            },
                            {
                                "decimalAvailable": true,
                                "name": "tokenId",
                                "type": "uint256",
                                "value": "93,098,947,971,102,567,816,336,636,455,290,064,959,709,316,159,688,337,041,922,639,433,294,581,984,254"
                            }
                        ],
                        "signature": "Transfer(address,address,uint256)"
                    },
                    "id": 11,
                    "logData": "0x",
                    "logDecoded": true,
                    "operation": "EVENT",
                    "revert": false,
                    "status": true,
                    "topics": [
                        "0xddf252ad1be2c89b69c2b068fc378daa952ba7f163c4a11628f55a4df523b3ef",
                        "0x000000000000000000000000cfe7321fd5aca6912694ecf85d41617e0d884fdc",
                        "0x0000000000000000000000000000000000000000000000000000000000000000",
                        "0xcdd423205e923a1abae5673698697012c3394afa9e8f9f0dec06ef1143e5ebfe"
                    ]
                },
                "nodeType": 1
            },
            "12": {
                "event": {
                    "contract": "0x57f1887a8bf19b14fc0df6fd9b2acc9af147ea85",
                    "decodedLog": {
                        "name": "Transfer",
                        "params": [
                            {
                                "name": "from",
                                "type": "address",
                                "value": "0x0000000000000000000000000000000000000000"
                            },
                            {
                                "name": "to",
                                "type": "address",
                                "value": "0xd4416b13d2b3a9abae7acd5d6c2bbdbe25686401"
                            },
                            {
                                "decimalAvailable": true,
                                "name": "tokenId",
                                "type": "uint256",
                                "value": "93,098,947,971,102,567,816,336,636,455,290,064,959,709,316,159,688,337,041,922,639,433,294,581,984,254"
                            }
                        ],
                        "signature": "Transfer(address,address,uint256)"
                    },
                    "id": 12,
                    "logData": "0x",
                    "logDecoded": true,
                    "operation": "EVENT",
                    "revert": false,
                    "status": true,
                    "topics": [
                        "0xddf252ad1be2c89b69c2b068fc378daa952ba7f163c4a11628f55a4df523b3ef",
                        "0x0000000000000000000000000000000000000000000000000000000000000000",
                        "0x000000000000000000000000d4416b13d2b3a9abae7acd5d6c2bbdbe25686401",
                        "0xcdd423205e923a1abae5673698697012c3394afa9e8f9f0dec06ef1143e5ebfe"
                    ]
                },
                "nodeType": 1
            },
            "13": {
                "invocation": {
                    "address": "0x00000000000c2e074ec69a0dfb2997ba6c7d2e1e",
                    "callData": "0x93cdeb708b7545dc668eb9280176169d1c33cfd8ed6f04690a0bcc88a93fc4aecdd423205e923a1abae5673698697012c3394afa9e8f9f0dec06ef1143e5ebfe000000000000000000000000d4416b13d2b3a9abae7acd5d6c2bbdbe25686401",
                    "decodedMethod": {
                        "callParams": [
                            {
                                "name": "node",
                                "type": "bytes32",
                                "value": "0x93cdeb708b7545dc668eb9280176169d1c33cfd8ed6f04690a0bcc88a93fc4ae"
                            },
                            {
                                "name": "label",
                                "type": "bytes32",
                                "value": "0xcdd423205e923a1abae5673698697012c3394afa9e8f9f0dec06ef1143e5ebfe"
                            },
                            {
                                "name": "owner",
                                "type": "address",
                                "value": "0xd4416b13d2b3a9abae7acd5d6c2bbdbe25686401"
                            }
                        ],
                        "constructorArguments": "",
                        "name": "setSubnodeOwner",
                        "returnParams": [
                            {
                                "name": "",
                                "type": "bytes32",
                                "value": "0x9017c19fc6d8d7eecd95faed784fd661c46a6b78877168ad8bf5d00d94f171aa"
                            }
                        ],
                        "signature": "setSubnodeOwner(bytes32,bytes32,address)"
                    },
                    "errorInfo": "",
                    "fromAddress": "0x57f1887a8bf19b14fc0df6fd9b2acc9af147ea85",
                    "gasUsed": 7969,
                    "id": 13,
                    "methodDecoded": true,
                    "operation": "CALL",
                    "output": "0x9017c19fc6d8d7eecd95faed784fd661c46a6b78877168ad8bf5d00d94f171aa",
                    "revert": false,
                    "revertMessage": "",
                    "selector": "0x06ab5923",
                    "status": true,
                    "value": "0"
                },
                "nodeType": 0
            },
            "14": {
                "event": {
                    "contract": "0x00000000000c2e074ec69a0dfb2997ba6c7d2e1e",
                    "decodedLog": {
                        "name": "NewOwner",
                        "params": [
                            {
                                "name": "node",
                                "type": "bytes32",
                                "value": "0x93cdeb708b7545dc668eb9280176169d1c33cfd8ed6f04690a0bcc88a93fc4ae"
                            },
                            {
                                "name": "label",
                                "type": "bytes32",
                                "value": "0xcdd423205e923a1abae5673698697012c3394afa9e8f9f0dec06ef1143e5ebfe"
                            },
                            {
                                "name": "owner",
                                "type": "address",
                                "value": "0xd4416b13d2b3a9abae7acd5d6c2bbdbe25686401"
                            }
                        ],
                        "signature": "NewOwner(bytes32,bytes32,address)"
                    },
                    "id": 14,
                    "logData": "0x000000000000000000000000d4416b13d2b3a9abae7acd5d6c2bbdbe25686401",
                    "logDecoded": true,
                    "operation": "EVENT",
                    "revert": false,
                    "status": true,
                    "topics": [
                        "0xce0457fe73731f824cc272376169235128c118b49d344817417c6d108d155e82",
                        "0x93cdeb708b7545dc668eb9280176169d1c33cfd8ed6f04690a0bcc88a93fc4ae",
                        "0xcdd423205e923a1abae5673698697012c3394afa9e8f9f0dec06ef1143e5ebfe"
                    ]
                },
                "nodeType": 1
            },
            "15": {
                "event": {
                    "contract": "0x57f1887a8bf19b14fc0df6fd9b2acc9af147ea85",
                    "decodedLog": {
                        "name": "NameRegistered",
                        "params": [
                            {
                                "name": "id",
                                "type": "uint256",
                                "value": "93,098,947,971,102,567,816,336,636,455,290,064,959,709,316,159,688,337,041,922,639,433,294,581,984,254"
                            },
                            {
                                "name": "owner",
                                "type": "address",
                                "value": "0xd4416b13d2b3a9abae7acd5d6c2bbdbe25686401"
                            },
                            {
                                "name": "expires",
                                "type": "uint256",
                                "value": "1,717,287,791"
                            }
                        ],
                        "signature": "NameRegistered(uint256,address,uint256)"
                    },
                    "id": 15,
                    "logData": "0x00000000000000000000000000000000000000000000000000000000665bbb6f",
                    "logDecoded": true,
                    "operation": "EVENT",
                    "revert": false,
                    "status": true,
                    "topics": [
                        "0xb3d987963d01b2f68493b4bdb130988f157ea43070d4ad840fee0466ed9370d9",
                        "0xcdd423205e923a1abae5673698697012c3394afa9e8f9f0dec06ef1143e5ebfe",
                        "0x000000000000000000000000d4416b13d2b3a9abae7acd5d6c2bbdbe25686401"
                    ]
                },
                "nodeType": 1
            },
            "16": {
                "event": {
                    "contract": "0xd4416b13d2b3a9abae7acd5d6c2bbdbe25686401",
                    "decodedLog": {
                        "name": "TransferSingle",
                        "params": [
                            {
                                "name": "operator",
                                "type": "address",
                                "value": "0x253553366da8546fc250f225fe3d25d0c782303b"
                            },
                            {
                                "name": "from",
                                "type": "address",
                                "value": "0x0000000000000000000000000000000000000000"
                            },
                            {
                                "name": "to",
                                "type": "address",
                                "value": "0x842e4a89d27ae47d5df3a05c0b3a55db5448bcfb"
                            },
                            {
                                "name": "id",
                                "type": "uint256",
                                "value": "65,175,024,023,097,751,408,242,144,589,176,220,324,641,379,182,596,889,876,329,640,515,748,274,205,098"
                            },
                            {
                                "name": "value",
                                "type": "uint256",
                                "value": "1"
                            }
                        ],
                        "signature": "TransferSingle(address,address,address,uint256,uint256)"
                    },
                    "id": 16,
                    "logData": "0x9017c19fc6d8d7eecd95faed784fd661c46a6b78877168ad8bf5d00d94f171aa0000000000000000000000000000000000000000000000000000000000000001",
                    "logDecoded": true,
                    "operation": "EVENT",
                    "revert": false,
                    "status": true,
                    "topics": [
                        "0xc3d58168c5ae7397731d063d5bbf3d657854427343f4c083240f7aacaa2d0f62",
                        "0x000000000000000000000000253553366da8546fc250f225fe3d25d0c782303b",
                        "0x0000000000000000000000000000000000000000000000000000000000000000",
                        "0x000000000000000000000000842e4a89d27ae47d5df3a05c0b3a55db5448bcfb"
                    ]
                },
                "nodeType": 1
            },
            "17": {
                "event": {
                    "contract": "0xd4416b13d2b3a9abae7acd5d6c2bbdbe25686401",
                    "decodedLog": {
                        "name": "NameWrapped",
                        "params": [
                            {
                                "name": "node",
                                "type": "bytes32",
                                "value": "0x9017c19fc6d8d7eecd95faed784fd661c46a6b78877168ad8bf5d00d94f171aa"
                            },
                            {
                                "name": "name",
                                "type": "bytes",
                                "value": "0x046361796f0365746800"
                            },
                            {
                                "name": "owner",
                                "type": "address",
                                "value": "0x842e4a89d27ae47d5df3a05c0b3a55db5448bcfb"
                            },
                            {
                                "name": "fuses",
                                "type": "uint32",
                                "value": "196,608"
                            },
                            {
                                "name": "expiry",
                                "type": "uint64",
                                "value": "1,725,063,791"
                            }
                        ],
                        "signature": "NameWrapped(bytes32,bytes,address,uint32,uint64)"
                    },
                    "id": 17,
                    "logData": "0x0000000000000000000000000000000000000000000000000000000000000080000000000000000000000000842e4a89d27ae47d5df3a05c0b3a55db5448bcfb00000000000000000000000000000000000000000000000000000000000300000000000000000000000000000000000000000000000000000000000066d2626f000000000000000000000000000000000000000000000000000000000000000a046361796f036574680000000000000000000000000000000000000000000000",
                    "logDecoded": true,
                    "operation": "EVENT",
                    "revert": false,
                    "status": true,
                    "topics": [
                        "0x8ce7013e8abebc55c3890a68f5a27c67c3f7efa64e584de5fb22363c606fd340",
                        "0x9017c19fc6d8d7eecd95faed784fd661c46a6b78877168ad8bf5d00d94f171aa"
                    ]
                },
                "nodeType": 1
            },
            "18": {
                "invocation": {
                    "address": "0x00000000000c2e074ec69a0dfb2997ba6c7d2e1e",
                    "callData": "0x9017c19fc6d8d7eecd95faed784fd661c46a6b78877168ad8bf5d00d94f171aa000000000000000000000000231b0ee14048e9dccd1d247744d114a4eb5e8e63",
                    "decodedMethod": {
                        "callParams": [
                            {
                                "name": "node",
                                "type": "bytes32",
                                "value": "0x9017c19fc6d8d7eecd95faed784fd661c46a6b78877168ad8bf5d00d94f171aa"
                            },
                            {
                                "name": "resolver",
                                "type": "address",
                                "value": "0x231b0ee14048e9dccd1d247744d114a4eb5e8e63"
                            }
                        ],
                        "constructorArguments": "",
                        "name": "setResolver",
                        "returnParams": [],
                        "signature": "setResolver(bytes32,address)"
                    },
                    "errorInfo": "",
                    "fromAddress": "0xd4416b13d2b3a9abae7acd5d6c2bbdbe25686401",
                    "gasUsed": 7271,
                    "id": 18,
                    "methodDecoded": true,
                    "operation": "CALL",
                    "output": "",
                    "revert": false,
                    "revertMessage": "",
                    "selector": "0x1896f70a",
                    "status": true,
                    "value": "0"
                },
                "nodeType": 0
            },
            "19": {
                "event": {
                    "contract": "0x00000000000c2e074ec69a0dfb2997ba6c7d2e1e",
                    "decodedLog": {
                        "name": "NewResolver",
                        "params": [
                            {
                                "name": "node",
                                "type": "bytes32",
                                "value": "0x9017c19fc6d8d7eecd95faed784fd661c46a6b78877168ad8bf5d00d94f171aa"
                            },
                            {
                                "name": "resolver",
                                "type": "address",
                                "value": "0x231b0ee14048e9dccd1d247744d114a4eb5e8e63"
                            }
                        ],
                        "signature": "NewResolver(bytes32,address)"
                    },
                    "id": 19,
                    "logData": "0x000000000000000000000000231b0ee14048e9dccd1d247744d114a4eb5e8e63",
                    "logDecoded": true,
                    "operation": "EVENT",
                    "revert": false,
                    "status": true,
                    "topics": [
                        "0x335721b01866dc23fbee8b6b2c7b1e14d6f05c28cd35a2c934239f94095602a0",
                        "0x9017c19fc6d8d7eecd95faed784fd661c46a6b78877168ad8bf5d00d94f171aa"
                    ]
                },
                "nodeType": 1
            },
            "2": {
                "invocation": {
                    "address": "0x7542565191d074ce84fbfa92cae13acb84788ca9",
                    "callData": "0x00000000000000000000000000000000000000000000000000000000000000600000000000000000000000000000000000000000000000000000000063e84b4c0000000000000000000000000000000000000000000000000000000001e1338000000000000000000000000000000000000000000000000000000000000000046361796f00000000000000000000000000000000000000000000000000000000",
                    "decodedMethod": {
                        "callParams": [
                            {
                                "name": "name",
                                "type": "string",
                                "value": "cayo"
                            },
                            {
                                "name": "expires",
                                "type": "uint256",
                                "value": "1,676,168,012"
                            },
                            {
                                "name": "duration",
                                "type": "uint256",
                                "value": "31,536,000"
                            }
                        ],
                        "constructorArguments": "",
                        "name": "price",
                        "returnParams": [
                            {
                                "name": "",
                                "type": "(uint256,uint256)",
                                "value": [
                                    {
                                        "name": "base",
                                        "type": "uint256",
                                        "value": "83,889,210,770,037,401"
                                    },
                                    {
                                        "name": "premium",
                                        "type": "uint256",
                                        "value": "1,364,118,829,845,532"
                                    }
                                ]
                            }
                        ],
                        "signature": "price(string,uint256,uint256)"
                    },
                    "errorInfo": "",
                    "fromAddress": "0x253553366da8546fc250f225fe3d25d0c782303b",
                    "gasUsed": 25497,
                    "id": 2,
                    "methodDecoded": true,
                    "operation": "STATICCALL",
                    "output": "0x000000000000000000000000000000000000000000000000012a08caf06f9a990000000000000000000000000000000000000000000000000004d8a8aa48cc1c",
                    "revert": false,
                    "revertMessage": "",
                    "selector": "0x50e9a715",
                    "status": true,
                    "value": "0"
                },
                "nodeType": 0
            },
            "20": {
                "invocation": {
                    "address": "0x231b0ee14048e9dccd1d247744d114a4eb5e8e63",
                    "callData": "0x9017c19fc6d8d7eecd95faed784fd661c46a6b78877168ad8bf5d00d94f171aa00000000000000000000000000000000000000000000000000000000000000400000000000000000000000000000000000000000000000000000000000000001000000000000000000000000000000000000000000000000000000000000002000000000000000000000000000000000000000000000000000000000000000a48b95dd719017c19fc6d8d7eecd95faed784fd661c46a6b78877168ad8bf5d00d94f171aa000000000000000000000000000000000000000000000000000000000000003c00000000000000000000000000000000000000000000000000000000000000600000000000000000000000000000000000000000000000000000000000000014842e4a89d27ae47d5df3a05c0b3a55db5448bcfb00000000000000000000000000000000000000000000000000000000000000000000000000000000",
                    "decodedMethod": {
                        "callParams": [
                            {
                                "name": "nodehash",
                                "type": "bytes32",
                                "value": "0x9017c19fc6d8d7eecd95faed784fd661c46a6b78877168ad8bf5d00d94f171aa"
                            },
                            {
                                "name": "data",
                                "type": "bytes[]",
                                "value": [
                                    "0x8b95dd719017c19fc6d8d7eecd95faed784fd661c46a6b78877168ad8bf5d00d94f171aa000000000000000000000000000000000000000000000000000000000000003c00000000000000000000000000000000000000000000000000000000000000600000000000000000000000000000000000000000000000000000000000000014842e4a89d27ae47d5df3a05c0b3a55db5448bcfb000000000000000000000000"
                                ]
                            }
                        ],
                        "constructorArguments": "",
                        "name": "multicallWithNodeCheck",
                        "returnParams": [
                            {
                                "name": "results",
                                "type": "bytes[]",
                                "value": [
                                    "0x"
                                ]
                            }
                        ],
                        "signature": "multicallWithNodeCheck(bytes32,bytes[])"
                    },
                    "errorInfo": "",
                    "fromAddress": "0x253553366da8546fc250f225fe3d25d0c782303b",
                    "gasUsed": 32181,
                    "id": 20,
                    "methodDecoded": true,
                    "operation": "CALL",
                    "output": "0x0000000000000000000000000000000000000000000000000000000000000020000000000000000000000000000000000000000000000000000000000000000100000000000000000000000000000000000000000000000000000000000000200000000000000000000000000000000000000000000000000000000000000000",
                    "revert": false,
                    "revertMessage": "",
                    "selector": "0xe32954eb",
                    "status": true,
                    "value": "0"
                },
                "nodeType": 0
            },
            "21": {
                "invocation": {
                    "address": "0x231b0ee14048e9dccd1d247744d114a4eb5e8e63",
                    "callData": "0x9017c19fc6d8d7eecd95faed784fd661c46a6b78877168ad8bf5d00d94f171aa000000000000000000000000000000000000000000000000000000000000003c00000000000000000000000000000000000000000000000000000000000000600000000000000000000000000000000000000000000000000000000000000014842e4a89d27ae47d5df3a05c0b3a55db5448bcfb000000000000000000000000",
                    "decodedMethod": {
                        "callParams": [
                            {
                                "name": "node",
                                "type": "bytes32",
                                "value": "0x9017c19fc6d8d7eecd95faed784fd661c46a6b78877168ad8bf5d00d94f171aa"
                            },
                            {
                                "name": "coinType",
                                "type": "uint256",
                                "value": "60"
                            },
                            {
                                "name": "a",
                                "type": "bytes",
                                "value": "0x842e4a89d27ae47d5df3a05c0b3a55db5448bcfb"
                            }
                        ],
                        "constructorArguments": "",
                        "name": "setAddr",
                        "returnParams": [],
                        "signature": "setAddr(bytes32,uint256,bytes)"
                    },
                    "errorInfo": "",
                    "fromAddress": "0x231b0ee14048e9dccd1d247744d114a4eb5e8e63",
                    "gasUsed": 29698,
                    "id": 21,
                    "methodDecoded": true,
                    "operation": "DELEGATECALL",
                    "output": "",
                    "revert": false,
                    "revertMessage": "",
                    "selector": "0x8b95dd71",
                    "status": true,
                    "value": "0"
                },
                "nodeType": 0
            },
            "22": {
                "event": {
                    "contract": "0x231b0ee14048e9dccd1d247744d114a4eb5e8e63",
                    "decodedLog": {
                        "name": "AddressChanged",
                        "params": [
                            {
                                "name": "node",
                                "type": "bytes32",
                                "value": "0x9017c19fc6d8d7eecd95faed784fd661c46a6b78877168ad8bf5d00d94f171aa"
                            },
                            {
                                "name": "coinType",
                                "type": "uint256",
                                "value": "60"
                            },
                            {
                                "name": "newAddress",
                                "type": "bytes",
                                "value": "0x842e4a89d27ae47d5df3a05c0b3a55db5448bcfb"
                            }
                        ],
                        "signature": "AddressChanged(bytes32,uint256,bytes)"
                    },
                    "id": 22,
                    "logData": "0x000000000000000000000000000000000000000000000000000000000000003c00000000000000000000000000000000000000000000000000000000000000400000000000000000000000000000000000000000000000000000000000000014842e4a89d27ae47d5df3a05c0b3a55db5448bcfb000000000000000000000000",
                    "logDecoded": true,
                    "operation": "EVENT",
                    "revert": false,
                    "status": true,
                    "topics": [
                        "0x65412581168e88a1e60c6459d7f44ae83ad0832e670826c05a4e2476b57af752",
                        "0x9017c19fc6d8d7eecd95faed784fd661c46a6b78877168ad8bf5d00d94f171aa"
                    ]
                },
                "nodeType": 1
            },
            "23": {
                "event": {
                    "contract": "0x231b0ee14048e9dccd1d247744d114a4eb5e8e63",
                    "decodedLog": {
                        "name": "AddrChanged",
                        "params": [
                            {
                                "name": "node",
                                "type": "bytes32",
                                "value": "0x9017c19fc6d8d7eecd95faed784fd661c46a6b78877168ad8bf5d00d94f171aa"
                            },
                            {
                                "name": "a",
                                "type": "address",
                                "value": "0x842e4a89d27ae47d5df3a05c0b3a55db5448bcfb"
                            }
                        ],
                        "signature": "AddrChanged(bytes32,address)"
                    },
                    "id": 23,
                    "logData": "0x000000000000000000000000842e4a89d27ae47d5df3a05c0b3a55db5448bcfb",
                    "logDecoded": true,
                    "operation": "EVENT",
                    "revert": false,
                    "status": true,
                    "topics": [
                        "0x52d7d861f09ab3d26239d492e8968629f95e9e318cf0b73bfddc441522a15fd2",
                        "0x9017c19fc6d8d7eecd95faed784fd661c46a6b78877168ad8bf5d00d94f171aa"
                    ]
                },
                "nodeType": 1
            },
            "24": {
                "invocation": {
                    "address": "0xa58e81fe9b61b5c3fe2afd33cf304c454abfc7cb",
                    "callData": "0x000000000000000000000000842e4a89d27ae47d5df3a05c0b3a55db5448bcfb000000000000000000000000842e4a89d27ae47d5df3a05c0b3a55db5448bcfb000000000000000000000000231b0ee14048e9dccd1d247744d114a4eb5e8e63000000000000000000000000000000000000000000000000000000000000008000000000000000000000000000000000000000000000000000000000000000086361796f2e657468000000000000000000000000000000000000000000000000",
                    "decodedMethod": {
                        "callParams": [
                            {
                                "name": "addr",
                                "type": "address",
                                "value": "0x842e4a89d27ae47d5df3a05c0b3a55db5448bcfb"
                            },
                            {
                                "name": "owner",
                                "type": "address",
                                "value": "0x842e4a89d27ae47d5df3a05c0b3a55db5448bcfb"
                            },
                            {
                                "name": "resolver",
                                "type": "address",
                                "value": "0x231b0ee14048e9dccd1d247744d114a4eb5e8e63"
                            },
                            {
                                "name": "name",
                                "type": "string",
                                "value": "cayo.eth"
                            }
                        ],
                        "constructorArguments": "",
                        "name": "setNameForAddr",
                        "returnParams": [
                            {
                                "name": "",
                                "type": "bytes32",
                                "value": "0x5ce5469a2bb0e77ce178d798e4c49af90d96310644f2710d01990b253c187916"
                            }
                        ],
                        "signature": "setNameForAddr(address,address,address,string)"
                    },
                    "errorInfo": "",
                    "fromAddress": "0x253553366da8546fc250f225fe3d25d0c782303b",
                    "gasUsed": 87807,
                    "id": 24,
                    "methodDecoded": true,
                    "operation": "CALL",
                    "output": "0x5ce5469a2bb0e77ce178d798e4c49af90d96310644f2710d01990b253c187916",
                    "revert": false,
                    "revertMessage": "",
                    "selector": "0x7a806d6b",
                    "status": true,
                    "value": "0"
                },
                "nodeType": 0
            },
            "25": {
                "event": {
                    "contract": "0xa58e81fe9b61b5c3fe2afd33cf304c454abfc7cb",
                    "decodedLog": {
                        "name": "ReverseClaimed",
                        "params": [
                            {
                                "name": "addr",
                                "type": "address",
                                "value": "0x842e4a89d27ae47d5df3a05c0b3a55db5448bcfb"
                            },
                            {
                                "name": "node",
                                "type": "bytes32",
                                "value": "0x5ce5469a2bb0e77ce178d798e4c49af90d96310644f2710d01990b253c187916"
                            }
                        ],
                        "signature": "ReverseClaimed(address,bytes32)"
                    },
                    "id": 25,
                    "logData": "0x",
                    "logDecoded": true,
                    "operation": "EVENT",
                    "revert": false,
                    "status": true,
                    "topics": [
                        "0x6ada868dd3058cf77a48a74489fd7963688e5464b2b0fa957ace976243270e92",
                        "0x000000000000000000000000842e4a89d27ae47d5df3a05c0b3a55db5448bcfb",
                        "0x5ce5469a2bb0e77ce178d798e4c49af90d96310644f2710d01990b253c187916"
                    ]
                },
                "nodeType": 1
            },
            "26": {
                "invocation": {
                    "address": "0x00000000000c2e074ec69a0dfb2997ba6c7d2e1e",
                    "callData": "0x91d1777781884d03a6757a803996e38de2a42967fb37eeaca72729271025a9e2553a550fdba32a7b011783e8f1052666e76506d447196ac8a8a65c044cd09682000000000000000000000000842e4a89d27ae47d5df3a05c0b3a55db5448bcfb000000000000000000000000231b0ee14048e9dccd1d247744d114a4eb5e8e630000000000000000000000000000000000000000000000000000000000000000",
                    "decodedMethod": {
                        "callParams": [
                            {
                                "name": "node",
                                "type": "bytes32",
                                "value": "0x91d1777781884d03a6757a803996e38de2a42967fb37eeaca72729271025a9e2"
                            },
                            {
                                "name": "label",
                                "type": "bytes32",
                                "value": "0x553a550fdba32a7b011783e8f1052666e76506d447196ac8a8a65c044cd09682"
                            },
                            {
                                "name": "owner",
                                "type": "address",
                                "value": "0x842e4a89d27ae47d5df3a05c0b3a55db5448bcfb"
                            },
                            {
                                "name": "resolver",
                                "type": "address",
                                "value": "0x231b0ee14048e9dccd1d247744d114a4eb5e8e63"
                            },
                            {
                                "name": "ttl",
                                "type": "uint64",
                                "value": "0"
                            }
                        ],
                        "constructorArguments": "",
                        "name": "setSubnodeRecord",
                        "returnParams": [],
                        "signature": "setSubnodeRecord(bytes32,bytes32,address,address,uint64)"
                    },
                    "errorInfo": "",
                    "fromAddress": "0xa58e81fe9b61b5c3fe2afd33cf304c454abfc7cb",
                    "gasUsed": 51440,
                    "id": 26,
                    "methodDecoded": true,
                    "operation": "CALL",
                    "output": "",
                    "revert": false,
                    "revertMessage": "",
                    "selector": "0x5ef2c7f0",
                    "status": true,
                    "value": "0"
                },
                "nodeType": 0
            },
            "27": {
                "event": {
                    "contract": "0x00000000000c2e074ec69a0dfb2997ba6c7d2e1e",
                    "decodedLog": {
                        "name": "NewOwner",
                        "params": [
                            {
                                "name": "node",
                                "type": "bytes32",
                                "value": "0x91d1777781884d03a6757a803996e38de2a42967fb37eeaca72729271025a9e2"
                            },
                            {
                                "name": "label",
                                "type": "bytes32",
                                "value": "0x553a550fdba32a7b011783e8f1052666e76506d447196ac8a8a65c044cd09682"
                            },
                            {
                                "name": "owner",
                                "type": "address",
                                "value": "0x842e4a89d27ae47d5df3a05c0b3a55db5448bcfb"
                            }
                        ],
                        "signature": "NewOwner(bytes32,bytes32,address)"
                    },
                    "id": 27,
                    "logData": "0x000000000000000000000000842e4a89d27ae47d5df3a05c0b3a55db5448bcfb",
                    "logDecoded": true,
                    "operation": "EVENT",
                    "revert": false,
                    "status": true,
                    "topics": [
                        "0xce0457fe73731f824cc272376169235128c118b49d344817417c6d108d155e82",
                        "0x91d1777781884d03a6757a803996e38de2a42967fb37eeaca72729271025a9e2",
                        "0x553a550fdba32a7b011783e8f1052666e76506d447196ac8a8a65c044cd09682"
                    ]
                },
                "nodeType": 1
            },
            "28": {
                "event": {
                    "contract": "0x00000000000c2e074ec69a0dfb2997ba6c7d2e1e",
                    "decodedLog": {
                        "name": "NewResolver",
                        "params": [
                            {
                                "name": "node",
                                "type": "bytes32",
                                "value": "0x5ce5469a2bb0e77ce178d798e4c49af90d96310644f2710d01990b253c187916"
                            },
                            {
                                "name": "resolver",
                                "type": "address",
                                "value": "0x231b0ee14048e9dccd1d247744d114a4eb5e8e63"
                            }
                        ],
                        "signature": "NewResolver(bytes32,address)"
                    },
                    "id": 28,
                    "logData": "0x000000000000000000000000231b0ee14048e9dccd1d247744d114a4eb5e8e63",
                    "logDecoded": true,
                    "operation": "EVENT",
                    "revert": false,
                    "status": true,
                    "topics": [
                        "0x335721b01866dc23fbee8b6b2c7b1e14d6f05c28cd35a2c934239f94095602a0",
                        "0x5ce5469a2bb0e77ce178d798e4c49af90d96310644f2710d01990b253c187916"
                    ]
                },
                "nodeType": 1
            },
            "29": {
                "invocation": {
                    "address": "0x231b0ee14048e9dccd1d247744d114a4eb5e8e63",
                    "callData": "0x5ce5469a2bb0e77ce178d798e4c49af90d96310644f2710d01990b253c187916000000000000000000000000000000000000000000000000000000000000004000000000000000000000000000000000000000000000000000000000000000086361796f2e657468000000000000000000000000000000000000000000000000",
                    "decodedMethod": {
                        "callParams": [
                            {
                                "name": "node",
                                "type": "bytes32",
                                "value": "0x5ce5469a2bb0e77ce178d798e4c49af90d96310644f2710d01990b253c187916"
                            },
                            {
                                "name": "newName",
                                "type": "string",
                                "value": "cayo.eth"
                            }
                        ],
                        "constructorArguments": "",
                        "name": "setName",
                        "returnParams": [],
                        "signature": "setName(bytes32,string)"
                    },
                    "errorInfo": "",
                    "fromAddress": "0xa58e81fe9b61b5c3fe2afd33cf304c454abfc7cb",
                    "gasUsed": 27659,
                    "id": 29,
                    "methodDecoded": true,
                    "operation": "CALL",
                    "output": "",
                    "revert": false,
                    "revertMessage": "",
                    "selector": "0x77372213",
                    "status": true,
                    "value": "0"
                },
                "nodeType": 0
            },
            "3": {
                "invocation": {
                    "address": "0x5f4ec3df9cbd43714fe2740f5e3616155c5b8419",
                    "callData": "0x",
                    "decodedMethod": {
                        "callParams": [],
                        "constructorArguments": "",
                        "name": "latestAnswer",
                        "returnParams": [
                            {
                                "name": "",
                                "type": "int256",
                                "value": "190,727,745,000"
                            }
                        ],
                        "signature": "latestAnswer()"
                    },
                    "errorInfo": "",
                    "fromAddress": "0x7542565191d074ce84fbfa92cae13acb84788ca9",
                    "gasUsed": 14620,
                    "id": 3,
                    "methodDecoded": true,
                    "operation": "STATICCALL",
                    "output": "0x0000000000000000000000000000000000000000000000000000002c68426de8",
                    "revert": false,
                    "revertMessage": "",
                    "selector": "0x50d25bcd",
                    "status": true,
                    "value": "0"
                },
                "nodeType": 0
            },
            "30": {
                "event": {
                    "contract": "0x231b0ee14048e9dccd1d247744d114a4eb5e8e63",
                    "decodedLog": {
                        "name": "NameChanged",
                        "params": [
                            {
                                "name": "node",
                                "type": "bytes32",
                                "value": "0x5ce5469a2bb0e77ce178d798e4c49af90d96310644f2710d01990b253c187916"
                            },
                            {
                                "name": "name",
                                "type": "string",
                                "value": "cayo.eth"
                            }
                        ],
                        "signature": "NameChanged(bytes32,string)"
                    },
                    "id": 30,
                    "logData": "0x000000000000000000000000000000000000000000000000000000000000002000000000000000000000000000000000000000000000000000000000000000086361796f2e657468000000000000000000000000000000000000000000000000",
                    "logDecoded": true,
                    "operation": "EVENT",
                    "revert": false,
                    "status": true,
                    "topics": [
                        "0xb7d29e911041e8d9b843369e890bcb72c9388692ba48b65ac54e7214c4c348f7",
                        "0x5ce5469a2bb0e77ce178d798e4c49af90d96310644f2710d01990b253c187916"
                    ]
                },
                "nodeType": 1
            },
            "31": {
                "event": {
                    "contract": "0x253553366da8546fc250f225fe3d25d0c782303b",
                    "decodedLog": {
                        "name": "NameRegistered",
                        "params": [
                            {
                                "name": "label",
                                "type": "bytes32",
                                "value": "0xcdd423205e923a1abae5673698697012c3394afa9e8f9f0dec06ef1143e5ebfe"
                            },
                            {
                                "name": "owner",
                                "type": "address",
                                "value": "0x842e4a89d27ae47d5df3a05c0b3a55db5448bcfb"
                            },
                            {
                                "name": "name",
                                "type": "string",
                                "value": "cayo"
                            },
                            {
                                "name": "baseCost",
                                "type": "uint256",
                                "value": "83,889,210,770,037,401"
                            },
                            {
                                "name": "premium",
                                "type": "uint256",
                                "value": "1,364,118,829,845,532"
                            },
                            {
                                "name": "expires",
                                "type": "uint256",
                                "value": "1,717,287,791"
                            }
                        ],
                        "signature": "NameRegistered(string,bytes32,address,uint256,uint256,uint256)"
                    },
                    "id": 31,
                    "logData": "0x0000000000000000000000000000000000000000000000000000000000000080000000000000000000000000000000000000000000000000012a08caf06f9a990000000000000000000000000000000000000000000000000004d8a8aa48cc1c00000000000000000000000000000000000000000000000000000000665bbb6f00000000000000000000000000000000000000000000000000000000000000046361796f00000000000000000000000000000000000000000000000000000000",
                    "logDecoded": true,
                    "operation": "EVENT",
                    "revert": false,
                    "status": true,
                    "topics": [
                        "0x69e37f151eb98a09618ddaa80c8cfaf1ce5996867c489f45b555b412271ebf27",
                        "0xcdd423205e923a1abae5673698697012c3394afa9e8f9f0dec06ef1143e5ebfe",
                        "0x000000000000000000000000842e4a89d27ae47d5df3a05c0b3a55db5448bcfb"
                    ]
                },
                "nodeType": 1
            },
            "32": {
                "invocation": {
                    "address": "0x842e4a89d27ae47d5df3a05c0b3a55db5448bcfb",
                    "callData": "0x",
                    "decodedMethod": null,
                    "errorInfo": "",
                    "fromAddress": "0x253553366da8546fc250f225fe3d25d0c782303b",
                    "gasUsed": 0,
                    "id": 32,
                    "methodDecoded": false,
                    "operation": "CALL",
                    "output": "",
                    "revert": false,
                    "revertMessage": "",
                    "selector": "fallback",
                    "status": true,
                    "value": "0.00000501981840409"
                },
                "nodeType": 0
            },
            "4": {
                "invocation": {
                    "address": "0xe62b71cf983019bff55bc83b48601ce8419650cc",
                    "callData": "0x",
                    "decodedMethod": {
                        "callParams": [],
                        "constructorArguments": "",
                        "name": "latestAnswer",
                        "returnParams": [
                            {
                                "name": "",
                                "type": "int256",
                                "value": "190,727,745,000"
                            }
                        ],
                        "signature": "latestAnswer()"
                    },
                    "errorInfo": "",
                    "fromAddress": "0x5f4ec3df9cbd43714fe2740f5e3616155c5b8419",
                    "gasUsed": 7124,
                    "id": 4,
                    "methodDecoded": true,
                    "operation": "STATICCALL",
                    "output": "0x0000000000000000000000000000000000000000000000000000002c68426de8",
                    "revert": false,
                    "revertMessage": "",
                    "selector": "0x50d25bcd",
                    "status": true,
                    "value": "0"
                },
                "nodeType": 0
            },
            "5": {
                "invocation": {
                    "address": "0x5f4ec3df9cbd43714fe2740f5e3616155c5b8419",
                    "callData": "0x",
                    "decodedMethod": {
                        "callParams": [],
                        "constructorArguments": "",
                        "name": "latestAnswer",
                        "returnParams": [
                            {
                                "name": "",
                                "type": "int256",
                                "value": "190,727,745,000"
                            }
                        ],
                        "signature": "latestAnswer()"
                    },
                    "errorInfo": "",
                    "fromAddress": "0x7542565191d074ce84fbfa92cae13acb84788ca9",
                    "gasUsed": 2120,
                    "id": 5,
                    "methodDecoded": true,
                    "operation": "STATICCALL",
                    "output": "0x0000000000000000000000000000000000000000000000000000002c68426de8",
                    "revert": false,
                    "revertMessage": "",
                    "selector": "0x50d25bcd",
                    "status": true,
                    "value": "0"
                },
                "nodeType": 0
            },
            "6": {
                "invocation": {
                    "address": "0xe62b71cf983019bff55bc83b48601ce8419650cc",
                    "callData": "0x",
                    "decodedMethod": {
                        "callParams": [],
                        "constructorArguments": "",
                        "name": "latestAnswer",
                        "returnParams": [
                            {
                                "name": "",
                                "type": "int256",
                                "value": "190,727,745,000"
                            }
                        ],
                        "signature": "latestAnswer()"
                    },
                    "errorInfo": "",
                    "fromAddress": "0x5f4ec3df9cbd43714fe2740f5e3616155c5b8419",
                    "gasUsed": 1124,
                    "id": 6,
                    "methodDecoded": true,
                    "operation": "STATICCALL",
                    "output": "0x0000000000000000000000000000000000000000000000000000002c68426de8",
                    "revert": false,
                    "revertMessage": "",
                    "selector": "0x50d25bcd",
                    "status": true,
                    "value": "0"
                },
                "nodeType": 0
            },
            "7": {
                "invocation": {
                    "address": "0x57f1887a8bf19b14fc0df6fd9b2acc9af147ea85",
                    "callData": "0xcdd423205e923a1abae5673698697012c3394afa9e8f9f0dec06ef1143e5ebfe",
                    "decodedMethod": {
                        "callParams": [
                            {
                                "name": "id",
                                "type": "uint256",
                                "value": "93,098,947,971,102,567,816,336,636,455,290,064,959,709,316,159,688,337,041,922,639,433,294,581,984,254"
                            }
                        ],
                        "constructorArguments": "",
                        "name": "available",
                        "returnParams": [
                            {
                                "name": "",
                                "type": "bool",
                                "value": true
                            }
                        ],
                        "signature": "available(uint256)"
                    },
                    "errorInfo": "",
                    "fromAddress": "0x253553366da8546fc250f225fe3d25d0c782303b",
                    "gasUsed": 569,
                    "id": 7,
                    "methodDecoded": true,
                    "operation": "STATICCALL",
                    "output": "0x0000000000000000000000000000000000000000000000000000000000000001",
                    "revert": false,
                    "revertMessage": "",
                    "selector": "0x96e494e8",
                    "status": true,
                    "value": "0"
                },
                "nodeType": 0
            },
            "8": {
                "invocation": {
                    "address": "0xd4416b13d2b3a9abae7acd5d6c2bbdbe25686401",
                    "callData": "0x00000000000000000000000000000000000000000000000000000000000000a0000000000000000000000000842e4a89d27ae47d5df3a05c0b3a55db5448bcfb0000000000000000000000000000000000000000000000000000000001e13380000000000000000000000000231b0ee14048e9dccd1d247744d114a4eb5e8e63000000000000000000000000000000000000000000000000000000000000000000000000000000000000000000000000000000000000000000000000000000046361796f00000000000000000000000000000000000000000000000000000000",
                    "decodedMethod": {
                        "callParams": [
                            {
                                "name": "label",
                                "type": "string",
                                "value": "cayo"
                            },
                            {
                                "name": "wrappedOwner",
                                "type": "address",
                                "value": "0x842e4a89d27ae47d5df3a05c0b3a55db5448bcfb"
                            },
                            {
                                "name": "duration",
                                "type": "uint256",
                                "value": "31,536,000"
                            },
                            {
                                "name": "resolver",
                                "type": "address",
                                "value": "0x231b0ee14048e9dccd1d247744d114a4eb5e8e63"
                            },
                            {
                                "name": "ownerControlledFuses",
                                "type": "uint16",
                                "value": "0"
                            }
                        ],
                        "constructorArguments": "",
                        "name": "registerAndWrapETH2LD",
                        "returnParams": [
                            {
                                "name": "registrarExpiry",
                                "type": "uint256",
                                "value": "1,717,287,791"
                            }
                        ],
                        "signature": "registerAndWrapETH2LD(string,address,uint256,address,uint16)"
                    },
                    "errorInfo": "",
                    "fromAddress": "0x253553366da8546fc250f225fe3d25d0c782303b",
                    "gasUsed": 115001,
                    "id": 8,
                    "methodDecoded": true,
                    "operation": "CALL",
                    "output": "0x00000000000000000000000000000000000000000000000000000000665bbb6f",
                    "revert": false,
                    "revertMessage": "",
                    "selector": "0xa4014982",
                    "status": true,
                    "value": "0"
                },
                "nodeType": 0
            },
            "9": {
                "invocation": {
                    "address": "0x57f1887a8bf19b14fc0df6fd9b2acc9af147ea85",
                    "callData": "0xcdd423205e923a1abae5673698697012c3394afa9e8f9f0dec06ef1143e5ebfe000000000000000000000000d4416b13d2b3a9abae7acd5d6c2bbdbe256864010000000000000000000000000000000000000000000000000000000001e13380",
                    "decodedMethod": {
                        "callParams": [
                            {
                                "name": "id",
                                "type": "uint256",
                                "value": "93,098,947,971,102,567,816,336,636,455,290,064,959,709,316,159,688,337,041,922,639,433,294,581,984,254"
                            },
                            {
                                "name": "owner",
                                "type": "address",
                                "value": "0xd4416b13d2b3a9abae7acd5d6c2bbdbe25686401"
                            },
                            {
                                "name": "duration",
                                "type": "uint256",
                                "value": "31,536,000"
                            }
                        ],
                        "constructorArguments": "",
                        "name": "register",
                        "returnParams": [
                            {
                                "name": "",
                                "type": "uint256",
                                "value": "1,717,287,791"
                            }
                        ],
                        "signature": "register(uint256,address,uint256)"
                    },
                    "errorInfo": "",
                    "fromAddress": "0xd4416b13d2b3a9abae7acd5d6c2bbdbe25686401",
                    "gasUsed": 50893,
                    "id": 9,
                    "methodDecoded": true,
                    "operation": "CALL",
                    "output": "0x00000000000000000000000000000000000000000000000000000000665bbb6f",
                    "revert": false,
                    "revertMessage": "",
                    "selector": "0xfca247ac",
                    "status": true,
                    "value": "0"
                },
                "nodeType": 0
            }
        },
        "gasFlame": [
            {
                "children": [
                    {
                        "children": [
                            {
                                "children": [],
                                "depth": 0,
                                "name": "Initial Gas",
                                "value": 25224
                            },
                            {
                                "children": [
                                    {
                                        "children": [],
                                        "depth": 1,
                                        "name": "nameExpires",
                                        "value": 2523
                                    },
                                    {
                                        "children": [
                                            {
                                                "children": [
                                                    {
                                                        "children": [],
                                                        "depth": 3,
                                                        "name": "latestAnswer",
                                                        "value": 7124
                                                    }
                                                ],
                                                "depth": 2,
                                                "name": "latestAnswer",
                                                "value": 14620
                                            },
                                            {
                                                "children": [
                                                    {
                                                        "children": [],
                                                        "depth": 3,
                                                        "name": "latestAnswer",
                                                        "value": 1124
                                                    }
                                                ],
                                                "depth": 2,
                                                "name": "latestAnswer",
                                                "value": 2120
                                            }
                                        ],
                                        "depth": 1,
                                        "name": "price",
                                        "value": 25497
                                    },
                                    {
                                        "children": [],
                                        "depth": 1,
                                        "name": "available",
                                        "value": 569
                                    },
                                    {
                                        "children": [
                                            {
                                                "children": [
                                                    {
                                                        "children": [],
                                                        "depth": 3,
                                                        "name": "owner",
                                                        "value": 2951
                                                    },
                                                    {
                                                        "children": [],
                                                        "depth": 3,
                                                        "name": "setSubnodeOwner",
                                                        "value": 7969
                                                    }
                                                ],
                                                "depth": 2,
                                                "name": "register",
                                                "value": 50893
                                            },
                                            {
                                                "children": [],
                                                "depth": 2,
                                                "name": "setResolver",
                                                "value": 7271
                                            }
                                        ],
                                        "depth": 1,
                                        "name": "registerAndWrapETH2LD",
                                        "value": 115001
                                    },
                                    {
                                        "children": [
                                            {
                                                "children": [],
                                                "depth": 2,
                                                "name": "setAddr",
                                                "value": 29698
                                            }
                                        ],
                                        "depth": 1,
                                        "name": "multicallWithNodeCheck",
                                        "value": 32181
                                    },
                                    {
                                        "children": [
                                            {
                                                "children": [],
                                                "depth": 2,
                                                "name": "setSubnodeRecord",
                                                "value": 51440
                                            },
                                            {
                                                "children": [],
                                                "depth": 2,
                                                "name": "setName",
                                                "value": 27659
                                            }
                                        ],
                                        "depth": 1,
                                        "name": "setNameForAddr",
                                        "value": 87807
                                    },
                                    {
                                        "children": [],
                                        "depth": 1,
                                        "name": "fallback",
                                        "value": 0
                                    }
                                ],
                                "depth": 0,
                                "name": "Executed Gas",
                                "value": 302806
                            }
                        ],
                        "depth": -1,
                        "name": "Actual Gas Used",
                        "value": 323230
                    },
                    {
                        "children": [],
                        "depth": -1,
                        "name": "Refunded Gas",
                        "value": 4800
                    }
                ],
                "depth": -2,
                "name": "Total Gas",
                "value": 328030
            }
        ],
        "isConfirmed": true,
        "mainTrace": [
            {
                "children": [
                    {
                        "children": [
                            {
                                "children": [],
                                "depth": 1,
                                "id": 1,
                                "order": 1
                            },
                            {
                                "children": [
                                    {
                                        "children": [
                                            {
                                                "children": [],
                                                "depth": 3,
                                                "id": 4,
                                                "order": 4
                                            }
                                        ],
                                        "depth": 2,
                                        "id": 3,
                                        "order": 3
                                    },
                                    {
                                        "children": [
                                            {
                                                "children": [],
                                                "depth": 3,
                                                "id": 6,
                                                "order": 6
                                            }
                                        ],
                                        "depth": 2,
                                        "id": 5,
                                        "order": 5
                                    }
                                ],
                                "depth": 1,
                                "id": 2,
                                "order": 2
                            },
                            {
                                "children": [],
                                "depth": 1,
                                "id": 7,
                                "order": 7
                            },
                            {
                                "children": [
                                    {
                                        "children": [
                                            {
                                                "children": [],
                                                "depth": 3,
                                                "id": 10,
                                                "order": 10
                                            },
                                            {
                                                "children": [],
                                                "depth": 3,
                                                "id": 11,
                                                "order": 11
                                            },
                                            {
                                                "children": [],
                                                "depth": 3,
                                                "id": 12,
                                                "order": 12
                                            },
                                            {
                                                "children": [
                                                    {
                                                        "children": [],
                                                        "depth": 4,
                                                        "id": 14,
                                                        "order": 14
                                                    }
                                                ],
                                                "depth": 3,
                                                "id": 13,
                                                "order": 13
                                            },
                                            {
                                                "children": [],
                                                "depth": 3,
                                                "id": 15,
                                                "order": 15
                                            }
                                        ],
                                        "depth": 2,
                                        "id": 9,
                                        "order": 9
                                    },
                                    {
                                        "children": [],
                                        "depth": 2,
                                        "id": 16,
                                        "order": 16
                                    },
                                    {
                                        "children": [],
                                        "depth": 2,
                                        "id": 17,
                                        "order": 17
                                    },
                                    {
                                        "children": [
                                            {
                                                "children": [],
                                                "depth": 3,
                                                "id": 19,
                                                "order": 19
                                            }
                                        ],
                                        "depth": 2,
                                        "id": 18,
                                        "order": 18
                                    }
                                ],
                                "depth": 1,
                                "id": 8,
                                "order": 8
                            },
                            {
                                "children": [
                                    {
                                        "children": [
                                            {
                                                "children": [],
                                                "depth": 3,
                                                "id": 22,
                                                "order": 22
                                            },
                                            {
                                                "children": [],
                                                "depth": 3,
                                                "id": 23,
                                                "order": 23
                                            }
                                        ],
                                        "depth": 2,
                                        "id": 21,
                                        "order": 21
                                    }
                                ],
                                "depth": 1,
                                "id": 20,
                                "order": 20
                            },
                            {
                                "children": [
                                    {
                                        "children": [],
                                        "depth": 2,
                                        "id": 25,
                                        "order": 25
                                    },
                                    {
                                        "children": [
                                            {
                                                "children": [],
                                                "depth": 3,
                                                "id": 27,
                                                "order": 27
                                            },
                                            {
                                                "children": [],
                                                "depth": 3,
                                                "id": 28,
                                                "order": 28
                                            }
                                        ],
                                        "depth": 2,
                                        "id": 26,
                                        "order": 26
                                    },
                                    {
                                        "children": [
                                            {
                                                "children": [],
                                                "depth": 3,
                                                "id": 30,
                                                "order": 30
                                            }
                                        ],
                                        "depth": 2,
                                        "id": 29,
                                        "order": 29
                                    }
                                ],
                                "depth": 1,
                                "id": 24,
                                "order": 24
                            },
                            {
                                "children": [],
                                "depth": 1,
                                "id": 31,
                                "order": 31
                            },
                            {
                                "children": [],
                                "depth": 1,
                                "id": 32,
                                "order": 32
                            }
                        ],
                        "depth": 0,
                        "id": 0,
                        "order": 0
                    }
                ],
                "depth": -1,
                "id": -1,
                "order": -1
            }
        ],
        "mainTraceNodeCount": 33,
        "parentIdMap": {
            "0": -1,
            "1": 0,
            "10": 9,
            "11": 9,
            "12": 9,
            "13": 9,
            "14": 13,
            "15": 9,
            "16": 8,
            "17": 8,
            "18": 8,
            "19": 18,
            "2": 0,
            "20": 0,
            "21": 20,
            "22": 21,
            "23": 21,
            "24": 0,
            "25": 24,
            "26": 24,
            "27": 26,
            "28": 26,
            "29": 24,
            "3": 2,
            "30": 29,
            "31": 0,
            "32": 0,
            "4": 3,
            "5": 2,
            "6": 5,
            "7": 0,
            "8": 0,
            "9": 8
        },
        "tidyTrace": [
            {
                "children": [
                    {
                        "children": [
                            {
                                "children": [
                                    {
                                        "children": [
                                            {
                                                "children": [],
                                                "depth": 3,
                                                "id": 11,
                                                "order": 11
                                            },
                                            {
                                                "children": [],
                                                "depth": 3,
                                                "id": 12,
                                                "order": 12
                                            },
                                            {
                                                "children": [
                                                    {
                                                        "children": [],
                                                        "depth": 4,
                                                        "id": 14,
                                                        "order": 14
                                                    }
                                                ],
                                                "depth": 3,
                                                "id": 13,
                                                "order": 13
                                            },
                                            {
                                                "children": [],
                                                "depth": 3,
                                                "id": 15,
                                                "order": 15
                                            }
                                        ],
                                        "depth": 2,
                                        "id": 9,
                                        "order": 9
                                    },
                                    {
                                        "children": [],
                                        "depth": 2,
                                        "id": 16,
                                        "order": 16
                                    },
                                    {
                                        "children": [],
                                        "depth": 2,
                                        "id": 17,
                                        "order": 17
                                    },
                                    {
                                        "children": [
                                            {
                                                "children": [],
                                                "depth": 3,
                                                "id": 19,
                                                "order": 19
                                            }
                                        ],
                                        "depth": 2,
                                        "id": 18,
                                        "order": 18
                                    }
                                ],
                                "depth": 1,
                                "id": 8,
                                "order": 8
                            },
                            {
                                "children": [
                                    {
                                        "children": [
                                            {
                                                "children": [],
                                                "depth": 3,
                                                "id": 22,
                                                "order": 22
                                            },
                                            {
                                                "children": [],
                                                "depth": 3,
                                                "id": 23,
                                                "order": 23
                                            }
                                        ],
                                        "depth": 2,
                                        "id": 21,
                                        "order": 21
                                    }
                                ],
                                "depth": 1,
                                "id": 20,
                                "order": 20
                            },
                            {
                                "children": [
                                    {
                                        "children": [],
                                        "depth": 2,
                                        "id": 25,
                                        "order": 25
                                    },
                                    {
                                        "children": [
                                            {
                                                "children": [],
                                                "depth": 3,
                                                "id": 27,
                                                "order": 27
                                            },
                                            {
                                                "children": [],
                                                "depth": 3,
                                                "id": 28,
                                                "order": 28
                                            }
                                        ],
                                        "depth": 2,
                                        "id": 26,
                                        "order": 26
                                    },
                                    {
                                        "children": [
                                            {
                                                "children": [],
                                                "depth": 3,
                                                "id": 30,
                                                "order": 30
                                            }
                                        ],
                                        "depth": 2,
                                        "id": 29,
                                        "order": 29
                                    }
                                ],
                                "depth": 1,
                                "id": 24,
                                "order": 24
                            },
                            {
                                "children": [],
                                "depth": 1,
                                "id": 31,
                                "order": 31
                            },
                            {
                                "children": [],
                                "depth": 1,
                                "id": 32,
                                "order": 32
                            }
                        ],
                        "depth": 0,
                        "id": 0,
                        "order": 0
                    }
                ],
                "depth": -1,
                "id": -1,
                "order": -1
            }
        ],
        "tidyTraceNodeCount": 25
    },
    "state_change": {
        "stateChanges": [
            {
                "address": "0x00000000000c2e074ec69a0dfb2997ba6c7d2e1e",
                "erc": "",
                "slots": [
                    {
                        "current": "0x000000000000000000000000d4416b13d2b3a9abae7acd5d6c2bbdbe25686401",
                        "key": "0xa78189ca910ae29b1c77abc4f96eee8245314f2dd082623582040b8859be2ab3",
                        "prev": "0x000000000000000000000000cfe7321fd5aca6912694ecf85d41617e0d884fdc"
                    },
                    {
                        "current": "0x000000000000000000000000231b0ee14048e9dccd1d247744d114a4eb5e8e63",
                        "key": "0xa78189ca910ae29b1c77abc4f96eee8245314f2dd082623582040b8859be2ab4",
                        "prev": "0x0000000000000000000000004976fb03c32e5b8cfe2b6ccb31c09ba78ebaba41"
                    },
                    {
                        "current": "0x000000000000000000000000842e4a89d27ae47d5df3a05c0b3a55db5448bcfb",
                        "key": "0x0d638e1dd3686db41a5f357a5384e18da38d6129de4e03f29fe47c81e5f45dfa",
                        "prev": "0x0000000000000000000000000000000000000000000000000000000000000000"
                    },
                    {
                        "current": "0x000000000000000000000000231b0ee14048e9dccd1d247744d114a4eb5e8e63",
                        "key": "0x0d638e1dd3686db41a5f357a5384e18da38d6129de4e03f29fe47c81e5f45dfb",
                        "prev": "0x0000000000000000000000000000000000000000000000000000000000000000"
                    }
                ],
                "storageVariables": [
                    {
                        "name": "records",
                        "type": "mapping(bytes32 => struct ENSRegistry.Record)",
                        "value": {
                            "pairs": [
                                {
                                    "key": "0x5ce5469a2bb0e77ce178d798e4c49af90d96310644f2710d01990b253c187916",
                                    "value": {
                                        "fields": [
                                            {
                                                "name": "owner",
                                                "type": "address",
                                                "value": {
                                                    "current": "0x842e4a89d27ae47d5df3a05c0b3a55db5448bcfb",
                                                    "prev": "0x0000000000000000000000000000000000000000",
                                                    "typeTag": 1
                                                }
                                            },
                                            {
                                                "name": "resolver",
                                                "type": "address",
                                                "value": {
                                                    "current": "0x231b0ee14048e9dccd1d247744d114a4eb5e8e63",
                                                    "prev": "0x0000000000000000000000000000000000000000",
                                                    "typeTag": 1
                                                }
                                            },
                                            {
                                                "name": "ttl",
                                                "type": "uint64",
                                                "value": {
                                                    "current": "0",
                                                    "prev": "0",
                                                    "typeTag": 1
                                                }
                                            }
                                        ],
                                        "typeTag": 3
                                    }
                                },
                                {
                                    "key": "0x9017c19fc6d8d7eecd95faed784fd661c46a6b78877168ad8bf5d00d94f171aa",
                                    "value": {
                                        "fields": [
                                            {
                                                "name": "owner",
                                                "type": "address",
                                                "value": {
                                                    "current": "0xd4416b13d2b3a9abae7acd5d6c2bbdbe25686401",
                                                    "prev": "0xcfe7321fd5aca6912694ecf85d41617e0d884fdc",
                                                    "typeTag": 1
                                                }
                                            },
                                            {
                                                "name": "resolver",
                                                "type": "address",
                                                "value": {
                                                    "current": "0x231b0ee14048e9dccd1d247744d114a4eb5e8e63",
                                                    "prev": "0x4976fb03c32e5b8cfe2b6ccb31c09ba78ebaba41",
                                                    "typeTag": 1
                                                }
                                            },
                                            {
                                                "name": "ttl",
                                                "type": "uint64",
                                                "value": {
                                                    "current": "0",
                                                    "prev": "0",
                                                    "typeTag": 1
                                                }
                                            }
                                        ],
                                        "typeTag": 3
                                    }
                                }
                            ],
                            "typeTag": 4
                        }
                    }
                ]
            },
            {
                "address": "0x231b0ee14048e9dccd1d247744d114a4eb5e8e63",
                "erc": "",
                "slots": [
                    {
                        "current": "0x842e4a89d27ae47d5df3a05c0b3a55db5448bcfb000000000000000000000028",
                        "key": "0x29f7d01f0316acc5931f1b59a959df6368d77b354843eb1b4dbf1175ff5388b2",
                        "prev": "0x0000000000000000000000000000000000000000000000000000000000000000"
                    },
                    {
                        "current": "0x6361796f2e657468000000000000000000000000000000000000000000000010",
                        "key": "0xe03d14eef8ff65c9d1f1a84bf84175525c5a8fba5c488fdb43a1bea09167b6f7",
                        "prev": "0x0000000000000000000000000000000000000000000000000000000000000000"
                    }
                ],
                "storageVariables": [
                    {
                        "name": "versionable_names",
                        "type": "mapping(uint64 => mapping(bytes32 => string))",
                        "value": {
                            "pairs": [
                                {
                                    "key": "0",
                                    "value": {
                                        "pairs": [
                                            {
                                                "key": "0x5ce5469a2bb0e77ce178d798e4c49af90d96310644f2710d01990b253c187916",
                                                "value": {
                                                    "current": "cayo.eth",
                                                    "prev": "",
                                                    "typeTag": 1
                                                }
                                            }
                                        ],
                                        "typeTag": 4
                                    }
                                }
                            ],
                            "typeTag": 4
                        }
                    },
                    {
                        "name": "versionable_addresses",
                        "type": "mapping(uint64 => mapping(bytes32 => mapping(uint256 => bytes)))",
                        "value": {
                            "pairs": [
                                {
                                    "key": "0",
                                    "value": {
                                        "pairs": [
                                            {
                                                "key": "0x9017c19fc6d8d7eecd95faed784fd661c46a6b78877168ad8bf5d00d94f171aa",
                                                "value": {
                                                    "pairs": [
                                                        {
                                                            "key": "60",
                                                            "value": {
                                                                "current": "0x842e4a89d27ae47d5df3a05c0b3a55db5448bcfb",
                                                                "prev": "0x",
                                                                "typeTag": 1
                                                            }
                                                        }
                                                    ],
                                                    "typeTag": 4
                                                }
                                            }
                                        ],
                                        "typeTag": 4
                                    }
                                }
                            ],
                            "typeTag": 4
                        }
                    }
                ]
            },
            {
                "address": "0x253553366da8546fc250f225fe3d25d0c782303b",
                "erc": "",
                "slots": [
                    {
                        "current": "0x0000000000000000000000000000000000000000000000000000000000000000",
                        "key": "0xae7c8e4120e4f74fb0fe0654bc749305edd8bf193c80484bf17064011ecc76d1",
                        "prev": "0x00000000000000000000000000000000000000000000000000000000647a875f"
                    }
                ],
                "storageVariables": [
                    {
                        "name": "commitments",
                        "type": "mapping(bytes32 => uint256)",
                        "value": {
                            "pairs": [
                                {
                                    "key": "0x5e57a2de4edaa5a2fe73882c800ec575b62f963f697a58c73b348b08d141a812",
                                    "value": {
                                        "current": "0",
                                        "prev": "1685751647",
                                        "typeTag": 1
                                    }
                                }
                            ],
                            "typeTag": 4
                        }
                    }
                ]
            },
            {
                "address": "0x57f1887a8bf19b14fc0df6fd9b2acc9af147ea85",
                "erc": "ERC-721",
                "slots": [
                    {
                        "current": "0x000000000000000000000000000000000000000000000000000000000000023b",
                        "key": "0xaef6e4bab8f7a1c987b97f2a9efa4cc34033a84264a77349032f9e1ca71a97b0",
                        "prev": "0x000000000000000000000000000000000000000000000000000000000000023c"
                    },
                    {
                        "current": "0x000000000000000000000000d4416b13d2b3a9abae7acd5d6c2bbdbe25686401",
                        "key": "0x065af454a98bed96964d6cea269d824058bd047bc2fd4ca2629e4d293a6bebd5",
                        "prev": "0x000000000000000000000000cfe7321fd5aca6912694ecf85d41617e0d884fdc"
                    },
                    {
                        "current": "0x0000000000000000000000000000000000000000000000000000000000004e2d",
                        "key": "0x19ff96020c88e66cad0e3ed5f9fdc0bb2652ec609a9261ce85288f989a15a27c",
                        "prev": "0x0000000000000000000000000000000000000000000000000000000000004e2c"
                    },
                    {
                        "current": "0x00000000000000000000000000000000000000000000000000000000665bbb6f",
                        "key": "0xc7faf0ed7e3b4a98242bbb34ba0a29acb1459941d55f3d04ede9f171e7ca9de0",
                        "prev": "0x0000000000000000000000000000000000000000000000000000000063e84b4c"
                    }
                ],
                "storageVariables": [
                    {
                        "name": "_ownedTokensCount",
                        "type": "mapping(address => uint256)",
                        "value": {
                            "pairs": [
                                {
                                    "key": "0xcfe7321fd5aca6912694ecf85d41617e0d884fdc",
                                    "value": {
                                        "current": "571",
                                        "prev": "572",
                                        "typeTag": 1
                                    }
                                },
                                {
                                    "key": "0xd4416b13d2b3a9abae7acd5d6c2bbdbe25686401",
                                    "value": {
                                        "current": "20013",
                                        "prev": "20012",
                                        "typeTag": 1
                                    }
                                }
                            ],
                            "typeTag": 4
                        }
                    },
                    {
                        "name": "expiries",
                        "type": "mapping(uint256 => uint256)",
                        "value": {
                            "pairs": [
                                {
                                    "key": "93098947971102567816336636455290064959709316159688337041922639433294581984254",
                                    "value": {
                                        "current": "1717287791",
                                        "prev": "1676168012",
                                        "typeTag": 1
                                    }
                                }
                            ],
                            "typeTag": 4
                        }
                    },
                    {
                        "name": "_tokenOwner",
                        "type": "mapping(uint256 => address)",
                        "value": {
                            "pairs": [
                                {
                                    "key": "93098947971102567816336636455290064959709316159688337041922639433294581984254",
                                    "value": {
                                        "current": "0xd4416b13d2b3a9abae7acd5d6c2bbdbe25686401",
                                        "prev": "0xcfe7321fd5aca6912694ecf85d41617e0d884fdc",
                                        "typeTag": 1
                                    }
                                }
                            ],
                            "typeTag": 4
                        }
                    }
                ]
            },
            {
                "address": "0xd4416b13d2b3a9abae7acd5d6c2bbdbe25686401",
                "erc": "ERC-1155",
                "slots": [
                    {
                        "current": "0x0000000066d2626f00030000842e4a89d27ae47d5df3a05c0b3a55db5448bcfb",
                        "key": "0x47cd9751101fe78cdb78b0c758ce3800dbb8478a54b960116d18c744a233266e",
                        "prev": "0x0000000000000000000000000000000000000000000000000000000000000000"
                    },
                    {
                        "current": "0x046361796f036574680000000000000000000000000000000000000000000014",
                        "key": "0x13269e358048d9d4cdedc3728e48949c9b09218fd1828074685ece5535304a74",
                        "prev": "0x0000000000000000000000000000000000000000000000000000000000000000"
                    }
                ],
                "storageVariables": [
                    {
                        "name": "names",
                        "type": "mapping(bytes32 => bytes)",
                        "value": {
                            "pairs": [
                                {
                                    "key": "0x9017c19fc6d8d7eecd95faed784fd661c46a6b78877168ad8bf5d00d94f171aa",
                                    "value": {
                                        "current": "0x046361796f0365746800",
                                        "prev": "0x",
                                        "typeTag": 1
                                    }
                                }
                            ],
                            "typeTag": 4
                        }
                    },
                    {
                        "name": "_tokens",
                        "type": "mapping(uint256 => uint256)",
                        "value": {
                            "pairs": [
                                {
                                    "key": "65175024023097751408242144589176220324641379182596889876329640515748274205098",
                                    "value": {
                                        "current": "10828400916139113713037874067272761016036170550897782791831491755259",
                                        "prev": "0",
                                        "typeTag": 1
                                    }
                                }
                            ],
                            "typeTag": 4
                        }
                    }
                ]
            }
        ]
    }
}