{
    "balance_change": {
        "balanceChanges": [
            {
                "account": "0xf70f862851f48582dd050829b3398b3bc4555139",
                "assets": [
                    {
                        "address": "0x6fb3e0a217407efff7ca062d46c26e5d60a14d69",
                        "amount": "200",
                        "iconUrl": "https://assets.blocksec.com/icon/8b9d397f4b82ddb5aeeae49c49c894e12a58bb38408578cca0d9b678209e71c1.png",
                        "isERC1155": false,
                        "isERC721": false,
                        "sign": false,
                        "value": ""
                    }
                ]
            },
            {
                "account": "0x9d4753a7fc1736f7c7a8e38698f192fd1ea5e2d8",
                "assets": [
                    {
                        "address": "0x6fb3e0a217407efff7ca062d46c26e5d60a14d69",
                        "amount": "200",
                        "iconUrl": "https://assets.blocksec.com/icon/8b9d397f4b82ddb5aeeae49c49c894e12a58bb38408578cca0d9b678209e71c1.png",
                        "isERC1155": false,
                        "isERC721": false,
                        "sign": true,
                        "value": ""
                    }
                ]
            }
        ]
    },
    "profile": {
        "basic_info": {
            "baseFee": "",
            "blockNumber": 5832561,
            "callData": "0xa9059cbb0000000000000000000000009d4753a7fc1736f7c7a8e38698f192fd1ea5e2d800000000000000000000000000000000000000000000000ad78ebc5ac6200000",
            "debugEnable": true,
            "errorInfo": "",
            "eventCount": 1,
            "feeRecipient": "0xea674fdde714fd979de3edf0f56aa9716b898ec8",
            "formatValue": "0",
            "gasLimit": 100000,
            "gasPrice": "2",
            "gasUsed": 52471,
            "intTxnCount": 0,
            "internalRevert": false,
            "internalRevertMessage": "",
            "isContractCreation": false,
            "isFlashloan": false,
            "maxFee": "",
            "nonce": 6228,
            "overwritedBlockNumber": -1,
            "priorityFee": "",
            "receiver": "0x6fb3e0a217407efff7ca062d46c26e5d60a14d69",
            "revertMessage": "",
            "sender": "0xf70f862851f48582dd050829b3398b3bc4555139",
            "simulationEnable": true,
            "sourceTxnHash": "0x0a784ef5a5ea94150d73b8933ff3db1d362cfd6fb8449f0c62ffef9d55fc3b5b",
            "status": true,
            "timestamp": "2018-06-22T05:33:52Z",
            "transactionFee": "0.000104942",
            "txnHash": "0x0a784ef5a5ea94150d73b8933ff3db1d362cfd6fb8449f0c62ffef9d55fc3b5b",
            "txnIndex": 76,
            "type": 0,
            "value": "0"
        },
        "fund_flow": [
            {
                "amount": "200",
                "from": "0xf70f862851f48582dd050829b3398b3bc4555139",
                "id": 1,
                "isERC1155": false,
                "isERC721": false,
                "isReverted": false,
                "order": 1,
                "to": "0x9d4753a7fc1736f7c7a8e38698f192fd1ea5e2d8",
                "token": "0x6fb3e0a217407efff7ca062d46c26e5d60a14d69"
            }
        ],
        "token_infos": [
            {
                "address": "0xc02aaa39b223fe8d0a0e5c4f27ead9083c756cc2",
                "decimals": 18
            },
            {
                "address": "0xeeeeeeeeeeeeeeeeeeeeeeeeeeeeeeeeeeeeeeee",
                "decimals": 18
            },
            {
                "address": "0x6fb3e0a217407efff7ca062d46c26e5d60a14d69",
                "decimals": 18
            }
        ]
    },
    "address_label": {
        "labels": [
            {
                "address": "0xeeeeeeeeeeeeeeeeeeeeeeeeeeeeeeeeeeeeeeee",
                "label": "Ether"
            },
            {
                "address": "0x6fb3e0a217407efff7ca062d46c26e5d60a14d69",
                "label": "IoTeX Network Token"
            },
            {
                "address": "0x0000000000000000000000000000000000000001",
                "label": "Precompiled"
            },
            {
                "address": "0x0000000000000000000000000000000000000002",
                "label": "Precompiled"
            },
            {
                "address": "0x0000000000000000000000000000000000000003",
                "label": "Precompiled"
            },
            {
                "address": "0x0000000000000000000000000000000000000004",
                "label": "Precompiled"
            }
        ]
    },
    "trace": {
        "accountLabels": null,
        "dataMap": {
            "-1": {
                "invocation": {
                    "address": "0xf70f862851f48582dd050829b3398b3bc4555139",
                    "callData": "",
                    "decodedMethod": null,
                    "errorInfo": "",
                    "fromAddress": "",
                    "gasUsed": 0,
                    "id": -1,
                    "methodDecoded": false,
                    "operation": "",
                    "output": "",
                    "revert": false,
                    "revertMessage": "",
                    "selector": "",
                    "status": false,
                    "value": ""
                },
                "nodeType": 0
            },
            "0": {
                "invocation": {
                    "address": "0x6fb3e0a217407efff7ca062d46c26e5d60a14d69",
                    "callData": "0x0000000000000000000000009d4753a7fc1736f7c7a8e38698f192fd1ea5e2d800000000000000000000000000000000000000000000000ad78ebc5ac6200000",
                    "decodedMethod": {
                        "callParams": [
                            {
                                "name": "_to",
                                "type": "address",
                                "value": "0x9d4753a7fc1736f7c7a8e38698f192fd1ea5e2d8"
                            },
                            {
                                "decimalAvailable": true,
                                "name": "_value",
                                "type": "uint256",
                                "value": "200,000,000,000,000,000,000"
                            }
                        ],
                        "constructorArguments": "",
                        "name": "transfer",
                        "returnParams": [
                            {
                                "name": "",
                                "type": "bool",
                                "value": true
                            }
                        ],
                        "signature": "transfer(address,uint256)"
                    },
                    "errorInfo": "",
                    "fromAddress": "0xf70f862851f48582dd050829b3398b3bc4555139",
                    "gasUsed": 52471,
                    "id": 0,
                    "methodDecoded": true,
                    "operation": "CALL",
                    "output": "0x0000000000000000000000000000000000000000000000000000000000000001",
                    "revert": false,
                    "revertMessage": "",
                    "selector": "0xa9059cbb",
                    "status": true,
                    "value": "0"
                },
                "nodeType": 0
            },
            "1": {
                "event": {
                    "contract": "0x6fb3e0a217407efff7ca062d46c26e5d60a14d69",
                    "decodedLog": {
                        "name": "Transfer",
                        "params": [
                            {
                                "name": "from",
                                "type": "address",
                                "value": "0xf70f862851f48582dd050829b3398b3bc4555139"
                            },
                            {
                                "name": "to",
                                "type": "address",
                                "value": "0x9d4753a7fc1736f7c7a8e38698f192fd1ea5e2d8"
                            },
                            {
                                "decimalAvailable": true,
                                "name": "value",
                                "type": "uint256",
                                "value": "200,000,000,000,000,000,000"
                            }
                        ],
                        "signature": "Transfer(address,address,uint256)"
                    },
                    "id": 1,
                    "logData": "0x00000000000000000000000000000000000000000000000ad78ebc5ac6200000",
                    "logDecoded": true,
                    "operation": "EVENT",
                    "revert": false,
                    "status": true,
                    "topics": [
                        "0xddf252ad1be2c89b69c2b068fc378daa952ba7f163c4a11628f55a4df523b3ef",
                        "0x000000000000000000000000f70f862851f48582dd050829b3398b3bc4555139",
                        "0x0000000000000000000000009d4753a7fc1736f7c7a8e38698f192fd1ea5e2d8"
                    ]
                },
                "nodeType": 1
            }
        },
        "gasFlame": [
            {
                "children": [
                    {
                        "children": [
                            {
                                "children": [],
                                "depth": 0,
                                "name": "Initial Gas",
                                "value": 23256
                            },
                            {
                                "children": [],
                                "depth": 0,
                                "name": "Executed Gas",
                                "value": 29215
                            }
                        ],
                        "depth": -1,
                        "name": "Actual Gas Used",
                        "value": 52471
                    },
                    {
                        "children": [],
                        "depth": -1,
                        "name": "Refunded Gas",
                        "value": 0
                    }
                ],
                "depth": -2,
                "name": "Total Gas",
                "value": 52471
            }
        ],
        "isConfirmed": true,
        "mainTrace": [
            {
                "children": [
                    {
                        "children": [
                            {
                                "children": [],
                                "depth": 1,
                                "id": 1,
                                "order": 1
                            }
                        ],
                        "depth": 0,
                        "id": 0,
                        "order": 0
                    }
                ],
                "depth": -1,
                "id": -1,
                "order": -1
            }
        ],
        "mainTraceNodeCount": 2,
        "parentIdMap": {
            "0": -1,
            "1": 0
        },
        "tidyTrace": [
            {
                "children": [
                    {
                        "children": [
                            {
                                "children": [],
                                "depth": 1,
                                "id": 1,
                                "order": 1
                            }
                        ],
                        "depth": 0,
                        "id": 0,
                        "order": 0
                    }
                ],
                "depth": -1,
                "id": -1,
                "order": -1
            }
        ],
        "tidyTraceNodeCount": 2
    },
    "state_change": {
        "stateChanges": [
            {
                "address": "0x6fb3e0a217407efff7ca062d46c26e5d60a14d69",
                "erc": "ERC-20",
                "slots": [
                    {
                        "current": "0x00000000000000000000000000000000000000000000000ad78ebc5ac6200000",
                        "key": "0xa825b4e6248a8c32266fc99f87054f461671038af3eb31d9487865489fa17dd3",
                        "prev": "0x0000000000000000000000000000000000000000000000000000000000000000"
                    },
                    {
                        "current": "0x00000000000000000000000000000000000000000003885d8ce42b3972c40000",
                        "key": "0xbd08bea7d973ba2e9622f447c680e59d9b98c5d02d84787db13c1a8bc8ee1f5c",
                        "prev": "0x0000000000000000000000000000000000000000000388686472e79438e40000"
                    }
                ],
                "storageVariables": [
                    {
                        "name": "balances",
                        "type": "mapping(address => uint256)",
                        "value": {
                            "pairs": [
                                {
                                    "key": "0x9d4753a7fc1736f7c7a8e38698f192fd1ea5e2d8",
                                    "value": {
                                        "current": "200000000000000000000",
                                        "prev": "0",
                                        "typeTag": 1
                                    }
                                },
                                {
                                    "key": "0xf70f862851f48582dd050829b3398b3bc4555139",
                                    "value": {
                                        "current": "4270745000000000000000000",
                                        "prev": "4270945000000000000000000",
                                        "typeTag": 1
                                    }
                                }
                            ],
                            "typeTag": 4
                        }
                    }
                ]
            }
        ]
    }
}