{
    "balance_change": {
        "balanceChanges": [
            {
                "account": "0xadd72e24a9e9117aa16d253cb421cb93b00240e3",
                "assets": [
                    {
                        "address": "0xeeeeeeeeeeeeeeeeeeeeeeeeeeeeeeeeeeeeeeee",
                        "amount": "0.0569",
                        "iconUrl": "https://assets.blocksec.com/image/1663669189317-3.png",
                        "isERC1155": false,
                        "isERC721": false,
                        "sign": false,
                        "value": "69.478313999999996894"
                    }
                ]
            },
            {
                "account": "0x9172f26dfa3a68c95de7cd8199cc578b387bbd48",
                "assets": [
                    {
                        "address": "0xeeeeeeeeeeeeeeeeeeeeeeeeeeeeeeeeeeeeeeee",
                        "amount": "0.0107",
                        "iconUrl": "https://assets.blocksec.com/image/1663669189317-3.png",
                        "isERC1155": false,
                        "isERC721": false,
                        "sign": true,
                        "value": "13.065341999999999416"
                    }
                ]
            },
            {
                "account": "0xc99547f73b0aa2c69e56849e8986137776d72474",
                "assets": [
                    {
                        "address": "0xeeeeeeeeeeeeeeeeeeeeeeeeeeeeeeeeeeeeeeee",
                        "amount": "0.0462",
                        "iconUrl": "https://assets.blocksec.com/image/1663669189317-3.png",
                        "isERC1155": false,
                        "isERC721": false,
                        "sign": true,
                        "value": "56.41297199999999748"
                    }
                ]
            }
        ]
    },
    "profile": {
        "basic_info": {
            "baseFee": "9.077024904",
            "blockNumber": 16258805,
            "callData": "0x659dd2b4000000000000000000000000000000000000000000000000000000000000001d",
            "debugEnable": true,
            "errorInfo": "",
            "eventCount": 1,
            "feeRecipient": "0xfeebabe6b0418ec13b30aadf129f5dcdd4f70cea",
            "formatValue": "0.0569",
            "gasLimit": 61009,
            "gasPrice": "10.577024904",
            "gasUsed": 55515,
            "intTxnCount": 2,
            "internalRevert": false,
            "internalRevertMessage": "",
            "isContractCreation": false,
            "isFlashloan": false,
            "maxFee": "14.968219098",
            "nonce": 446,
            "overwritedBlockNumber": -1,
            "priorityFee": "1.5",
            "receiver": "0x9172f26dfa3a68c95de7cd8199cc578b387bbd48",
            "revertMessage": "",
            "sender": "0xadd72e24a9e9117aa16d253cb421cb93b00240e3",
            "simulationEnable": true,
            "sourceTxnHash": "0x0a665bf58c7109cb22da598f37bab3257d3347d9302bb5556eb5fde99ad9816b",
            "status": true,
            "timestamp": "2022-12-25T02:33:59Z",
            "transactionFee": "0.00058718353754556",
            "txnHash": "0x0a665bf58c7109cb22da598f37bab3257d3347d9302bb5556eb5fde99ad9816b",
            "txnIndex": 31,
            "type": 2,
            "value": "56900000000000000"
        },
        "fund_flow": [
            {
                "amount": "0.0569",
                "from": "0xadd72e24a9e9117aa16d253cb421cb93b00240e3",
                "id": 1,
                "isERC1155": false,
                "isERC721": false,
                "isReverted": false,
                "order": 1,
                "to": "0x9172f26dfa3a68c95de7cd8199cc578b387bbd48",
                "token": "0xeeeeeeeeeeeeeeeeeeeeeeeeeeeeeeeeeeeeeeee"
            },
            {
                "amount": "0.0462",
                "from": "0x9172f26dfa3a68c95de7cd8199cc578b387bbd48",
                "id": 2,
                "isERC1155": false,
                "isERC721": false,
                "isReverted": false,
                "order": 2,
                "to": "0xc99547f73b0aa2c69e56849e8986137776d72474",
                "token": "0xeeeeeeeeeeeeeeeeeeeeeeeeeeeeeeeeeeeeeeee"
            }
        ],
        "token_infos": [
            {
                "address": "0xc02aaa39b223fe8d0a0e5c4f27ead9083c756cc2",
                "decimals": 18
            },
            {
                "address": "0xeeeeeeeeeeeeeeeeeeeeeeeeeeeeeeeeeeeeeeee",
                "decimals": 18
            }
        ]
    },
    "address_label": {
        "labels": [
            {
                "address": "0xeeeeeeeeeeeeeeeeeeeeeeeeeeeeeeeeeeeeeeee",
                "label": "Ether"
            },
            {
                "address": "0x2661fe1a882abfd28ae0c2769a90f327850397c6",
                "label": "Auction"
            },
            {
                "address": "0x9172f26dfa3a68c95de7cd8199cc578b387bbd48",
                "label": "ERC1967Proxy"
            },
            {
                "address": "0x0000000000000000000000000000000000000001",
                "label": "Precompiled"
            },
            {
                "address": "0x0000000000000000000000000000000000000002",
                "label": "Precompiled"
            },
            {
                "address": "0x0000000000000000000000000000000000000003",
                "label": "Precompiled"
            },
            {
                "address": "0x0000000000000000000000000000000000000004",
                "label": "Precompiled"
            }
        ]
    },
    "trace": {
        "accountLabels": null,
        "dataMap": {
            "-1": {
                "invocation": {
                    "address": "0xadd72e24a9e9117aa16d253cb421cb93b00240e3",
                    "callData": "",
                    "decodedMethod": null,
                    "errorInfo": "",
                    "fromAddress": "",
                    "gasUsed": 0,
                    "id": -1,
                    "methodDecoded": false,
                    "operation": "",
                    "output": "",
                    "revert": false,
                    "revertMessage": "",
                    "selector": "",
                    "status": false,
                    "value": ""
                },
                "nodeType": 0
            },
            "0": {
                "invocation": {
                    "address": "0x9172f26dfa3a68c95de7cd8199cc578b387bbd48",
                    "callData": "0x000000000000000000000000000000000000000000000000000000000000001d",
                    "decodedMethod": {
                        "callParams": [
                            {
                                "name": "_tokenId",
                                "type": "uint256",
                                "value": "29"
                            }
                        ],
                        "constructorArguments": "",
                        "name": "createBid",
                        "returnParams": [],
                        "signature": "createBid(uint256)"
                    },
                    "errorInfo": "",
                    "fromAddress": "0xadd72e24a9e9117aa16d253cb421cb93b00240e3",
                    "gasUsed": 55515,
                    "id": 0,
                    "methodDecoded": true,
                    "operation": "CALL",
                    "output": "",
                    "revert": false,
                    "revertMessage": "",
                    "selector": "0x659dd2b4",
                    "status": true,
                    "value": "0.0569"
                },
                "nodeType": 0
            },
            "1": {
                "invocation": {
                    "address": "0x2661fe1a882abfd28ae0c2769a90f327850397c6",
                    "callData": "0x000000000000000000000000000000000000000000000000000000000000001d",
                    "decodedMethod": {
                        "callParams": [
                            {
                                "name": "_tokenId",
                                "type": "uint256",
                                "value": "29"
                            }
                        ],
                        "constructorArguments": "",
                        "name": "createBid",
                        "returnParams": [],
                        "signature": "createBid(uint256)"
                    },
                    "errorInfo": "",
                    "fromAddress": "0x9172f26dfa3a68c95de7cd8199cc578b387bbd48",
                    "gasUsed": 32228,
                    "id": 1,
                    "methodDecoded": true,
                    "operation": "DELEGATECALL",
                    "output": "",
                    "revert": false,
                    "revertMessage": "",
                    "selector": "0x659dd2b4",
                    "status": true,
                    "value": "0.0569"
                },
                "nodeType": 0
            },
            "2": {
                "invocation": {
                    "address": "0xc99547f73b0aa2c69e56849e8986137776d72474",
                    "callData": "0x",
                    "decodedMethod": null,
                    "errorInfo": "",
                    "fromAddress": "0x9172f26dfa3a68c95de7cd8199cc578b387bbd48",
                    "gasUsed": 0,
                    "id": 2,
                    "methodDecoded": false,
                    "operation": "CALL",
                    "output": "",
                    "revert": false,
                    "revertMessage": "",
                    "selector": "fallback",
                    "status": true,
                    "value": "0.0462"
                },
                "nodeType": 0
            },
            "3": {
                "event": {
                    "contract": "0x9172f26dfa3a68c95de7cd8199cc578b387bbd48",
                    "decodedLog": {
                        "name": "AuctionBid",
                        "params": [
                            {
                                "name": "tokenId",
                                "type": "uint256",
                                "value": "29"
                            },
                            {
                                "name": "bidder",
                                "type": "address",
                                "value": "0xadd72e24a9e9117aa16d253cb421cb93b00240e3"
                            },
                            {
                                "name": "amount",
                                "type": "uint256",
                                "value": "56,900,000,000,000,000"
                            },
                            {
                                "name": "extended",
                                "type": "bool",
                                "value": true
                            },
                            {
                                "name": "endTime",
                                "type": "uint256",
                                "value": "1,671,935,939"
                            }
                        ],
                        "signature": "AuctionBid(uint256,address,uint256,bool,uint256)"
                    },
                    "id": 3,
                    "logData": "0x000000000000000000000000000000000000000000000000000000000000001d000000000000000000000000add72e24a9e9117aa16d253cb421cb93b00240e300000000000000000000000000000000000000000000000000ca263f9fb8400000000000000000000000000000000000000000000000000000000000000000010000000000000000000000000000000000000000000000000000000063a7b7c3",
                    "logDecoded": true,
                    "operation": "EVENT",
                    "revert": false,
                    "status": true,
                    "topics": [
                        "0x1edd36b28569cf1cf930c008c5bcb196ea19525977951413bec3118946951561"
                    ]
                },
                "nodeType": 1
            }
        },
        "gasFlame": [
            {
                "children": [
                    {
                        "children": [
                            {
                                "children": [],
                                "depth": 0,
                                "name": "Initial Gas",
                                "value": 21204
                            },
                            {
                                "children": [
                                    {
                                        "children": [
                                            {
                                                "children": [],
                                                "depth": 2,
                                                "name": "fallback",
                                                "value": 0
                                            }
                                        ],
                                        "depth": 1,
                                        "name": "createBid",
                                        "value": 32228
                                    }
                                ],
                                "depth": 0,
                                "name": "Executed Gas",
                                "value": 37111
                            }
                        ],
                        "depth": -1,
                        "name": "Actual Gas Used",
                        "value": 55515
                    },
                    {
                        "children": [],
                        "depth": -1,
                        "name": "Refunded Gas",
                        "value": 2800
                    }
                ],
                "depth": -2,
                "name": "Total Gas",
                "value": 58315
            }
        ],
        "isConfirmed": true,
        "mainTrace": [
            {
                "children": [
                    {
                        "children": [
                            {
                                "children": [
                                    {
                                        "children": [],
                                        "depth": 2,
                                        "id": 2,
                                        "order": 2
                                    },
                                    {
                                        "children": [],
                                        "depth": 2,
                                        "id": 3,
                                        "order": 3
                                    }
                                ],
                                "depth": 1,
                                "id": 1,
                                "order": 1
                            }
                        ],
                        "depth": 0,
                        "id": 0,
                        "order": 0
                    }
                ],
                "depth": -1,
                "id": -1,
                "order": -1
            }
        ],
        "mainTraceNodeCount": 4,
        "parentIdMap": {
            "0": -1,
            "1": 0,
            "2": 1,
            "3": 1
        },
        "tidyTrace": [
            {
                "children": [
                    {
                        "children": [
                            {
                                "children": [
                                    {
                                        "children": [],
                                        "depth": 2,
                                        "id": 2,
                                        "order": 2
                                    },
                                    {
                                        "children": [],
                                        "depth": 2,
                                        "id": 3,
                                        "order": 3
                                    }
                                ],
                                "depth": 1,
                                "id": 1,
                                "order": 1
                            }
                        ],
                        "depth": 0,
                        "id": 0,
                        "order": 0
                    }
                ],
                "depth": -1,
                "id": -1,
                "order": -1
            }
        ],
        "tidyTraceNodeCount": 4
    },
    "state_change": {
        "stateChanges": [
            {
                "address": "0x9172f26dfa3a68c95de7cd8199cc578b387bbd48",
                "erc": "",
                "slots": [
                    {
                        "current": "0x00000000000000000000000000000000000000000000000000ca263f9fb84000",
                        "key": "0x0000000000000000000000000000000000000000000000000000000000000008",
                        "prev": "0x00000000000000000000000000000000000000000000000000a422a7bc9f8000"
                    },
                    {
                        "current": "0x00000063a7b7c30063a7a65fadd72e24a9e9117aa16d253cb421cb93b00240e3",
                        "key": "0x0000000000000000000000000000000000000000000000000000000000000009",
                        "prev": "0x00000063a7b77b0063a7a65fc99547f73b0aa2c69e56849e8986137776d72474"
                    }
                ],
                "storageVariables": []
            }
        ]
    }
}