{
    "balance_change": {
        "balanceChanges": []
    },
    "profile": {
        "basic_info": {
            "baseFee": "",
            "blockNumber": 8348887,
            "callData": "0x481a02e30000000000000000000000000878cd80605d38ada7947069b9420fd8a89ce7c8",
            "debugEnable": true,
            "errorInfo": "",
            "eventCount": 0,
            "feeRecipient": "0xd1008015aa0cf2a61493bd19de6c9ca88e934fce",
            "formatValue": "0",
            "gasLimit": 538023,
            "gasPrice": "6",
            "gasUsed": 528023,
            "intTxnCount": 0,
            "internalRevert": false,
            "internalRevertMessage": "",
            "isContractCreation": false,
            "isFlashloan": false,
            "maxFee": "",
            "nonce": 2,
            "overwritedBlockNumber": -1,
            "priorityFee": "",
            "receiver": "0x592011541ce5916e3b099dccc379a84f60e9fa8c",
            "revertMessage": "",
            "sender": "0x222864fd9ca54ae2c0389a67e8bb401a54682762",
            "simulationEnable": true,
            "sourceTxnHash": "0x0a4d24a3177d2550c035b06662d3690f18373d0dda41f05d42ddc102891a4269",
            "status": true,
            "timestamp": "2019-08-14T13:28:49Z",
            "transactionFee": "0.003168138",
            "txnHash": "0x0a4d24a3177d2550c035b06662d3690f18373d0dda41f05d42ddc102891a4269",
            "txnIndex": 103,
            "type": 0,
            "value": "0"
        },
        "fund_flow": [],
        "token_infos": [
            {
                "address": "0xc02aaa39b223fe8d0a0e5c4f27ead9083c756cc2",
                "decimals": 18
            },
            {
                "address": "0xeeeeeeeeeeeeeeeeeeeeeeeeeeeeeeeeeeeeeeee",
                "decimals": 18
            }
        ]
    },
    "address_label": {
        "labels": [
            {
                "address": "0x0000000000000000000000000000000000000002",
                "label": "Precompiled"
            },
            {
                "address": "0x0000000000000000000000000000000000000003",
                "label": "Precompiled"
            },
            {
                "address": "0x0000000000000000000000000000000000000004",
                "label": "Precompiled"
            },
            {
                "address": "0xeeeeeeeeeeeeeeeeeeeeeeeeeeeeeeeeeeeeeeee",
                "label": "Ether"
            },
            {
                "address": "0x0000000000000000000000000000000000000001",
                "label": "Precompiled"
            }
        ]
    },
    "trace": {
        "accountLabels": null,
        "dataMap": {
            "-1": {
                "invocation": {
                    "address": "0x222864fd9ca54ae2c0389a67e8bb401a54682762",
                    "callData": "",
                    "decodedMethod": null,
                    "errorInfo": "",
                    "fromAddress": "",
                    "gasUsed": 0,
                    "id": -1,
                    "methodDecoded": false,
                    "operation": "",
                    "output": "",
                    "revert": false,
                    "revertMessage": "",
                    "selector": "",
                    "status": false,
                    "value": ""
                },
                "nodeType": 0
            },
            "0": {
                "invocation": {
                    "address": "0x592011541ce5916e3b099dccc379a84f60e9fa8c",
                    "callData": "0x0000000000000000000000000878cd80605d38ada7947069b9420fd8a89ce7c8",
                    "decodedMethod": {
                        "callParams": [
                            {
                                "name": "_Address",
                                "type": "address",
                                "value": "0x0878cd80605d38ada7947069b9420fd8a89ce7c8"
                            }
                        ],
                        "constructorArguments": "",
                        "name": "Bind",
                        "returnParams": [],
                        "signature": "Bind(address)"
                    },
                    "errorInfo": "",
                    "fromAddress": "0x222864fd9ca54ae2c0389a67e8bb401a54682762",
                    "gasUsed": 528023,
                    "id": 0,
                    "methodDecoded": true,
                    "operation": "CALL",
                    "output": "0x0000000000000000000000000000000000000000000000000000000000000001",
                    "revert": false,
                    "revertMessage": "",
                    "selector": "0x481a02e3",
                    "status": true,
                    "value": "0"
                },
                "nodeType": 0
            }
        },
        "gasFlame": [
            {
                "children": [
                    {
                        "children": [
                            {
                                "children": [],
                                "depth": 0,
                                "name": "Initial Gas",
                                "value": 22680
                            },
                            {
                                "children": [],
                                "depth": 0,
                                "name": "Executed Gas",
                                "value": 505343
                            }
                        ],
                        "depth": -1,
                        "name": "Actual Gas Used",
                        "value": 528023
                    },
                    {
                        "children": [],
                        "depth": -1,
                        "name": "Refunded Gas",
                        "value": 0
                    }
                ],
                "depth": -2,
                "name": "Total Gas",
                "value": 528023
            }
        ],
        "isConfirmed": true,
        "mainTrace": [
            {
                "children": [
                    {
                        "children": [],
                        "depth": 0,
                        "id": 0,
                        "order": 0
                    }
                ],
                "depth": -1,
                "id": -1,
                "order": -1
            }
        ],
        "mainTraceNodeCount": 1,
        "parentIdMap": {
            "0": -1
        },
        "tidyTrace": [
            {
                "children": [
                    {
                        "children": [],
                        "depth": 0,
                        "id": 0,
                        "order": 0
                    }
                ],
                "depth": -1,
                "id": -1,
                "order": -1
            }
        ],
        "tidyTraceNodeCount": 1
    },
    "state_change": {
        "stateChanges": [
            {
                "address": "0x592011541ce5916e3b099dccc379a84f60e9fa8c",
                "erc": "",
                "slots": [
                    {
                        "current": "0x000000000000000000000000000000000000000000000000000000000000000a",
                        "key": "0x72b9bfcde586056f4d231a1f16d05aa6a109cc0d7ad504fc4befcde30bc056d4",
                        "prev": "0x0000000000000000000000000000000000000000000000000000000000000009"
                    },
                    {
                        "current": "0x0000000000000000000000000000000000000000000000000000000000000009",
                        "key": "0x0fbeafc47a7e7c548eb66b05381e1a88f38598c15d56cbd34137e9812cc9beb5",
                        "prev": "0x0000000000000000000000000000000000000000000000000000000000000008"
                    },
                    {
                        "current": "0x0000000000000000000000000000000000000000000000000000000000000008",
                        "key": "0x87bd8d071fc875ef0bdb3ab882b45cdd479e909b5b3b955d72b735dffd0aaea9",
                        "prev": "0x0000000000000000000000000000000000000000000000000000000000000007"
                    },
                    {
                        "current": "0x0000000000000000000000000000000000000000000000000000000000000001",
                        "key": "0xd7dec1b8f4b04c042f0e88eefd02b72ca4d817703c0fdfba5f452dd729ad06f0",
                        "prev": "0x0000000000000000000000000000000000000000000000000000000000000000"
                    },
                    {
                        "current": "0x0000000000000000000000000000000000000000000000000000000000000001",
                        "key": "0xe7e4fc57f7b2cb0aa1c32ea9a67dc62572a57761db2ac0777fe7f7a66cdeb249",
                        "prev": "0x0000000000000000000000000000000000000000000000000000000000000000"
                    },
                    {
                        "current": "0x000000000000000000000000222864fd9ca54ae2c0389a67e8bb401a54682762",
                        "key": "0xa476af593e3861f96ccd26251af5dfbb2d5116511bc963bf909a4a42c6b00a59",
                        "prev": "0x0000000000000000000000000000000000000000000000000000000000000000"
                    },
                    {
                        "current": "0x0000000000000000000000000000000000000000000000000000000000000001",
                        "key": "0x40884ec8a83f8417f2eae39233dfa1331521778217525220ecb8f5bee6870656",
                        "prev": "0x0000000000000000000000000000000000000000000000000000000000000000"
                    },
                    {
                        "current": "0x000000000000000000000000222864fd9ca54ae2c0389a67e8bb401a54682762",
                        "key": "0xeae04fcbcdcfcebb7de9f673cdbcbc1940800eaf5e4b4ef81b94a65a9d7fc82e",
                        "prev": "0x0000000000000000000000000000000000000000000000000000000000000000"
                    },
                    {
                        "current": "0x0000000000000000000000000000000000000000000000000000000000000001",
                        "key": "0xc6db8aee5e094366e635df06d9b6f567be764d617d30a6106c0f51e82bf4c0e8",
                        "prev": "0x0000000000000000000000000000000000000000000000000000000000000000"
                    },
                    {
                        "current": "0x000000000000000000000000222864fd9ca54ae2c0389a67e8bb401a54682762",
                        "key": "0x9f83cecc06d6db85a47f167d50fcc98022ca1dffc96e4da297c62a4830bcf216",
                        "prev": "0x0000000000000000000000000000000000000000000000000000000000000000"
                    },
                    {
                        "current": "0x000000000000000000000000222864fd9ca54ae2c0389a67e8bb401a54682762",
                        "key": "0xe77f36411731b527b4b144efcc1b8d84258ebdbf8dedc0cafd9b8504b196a73a",
                        "prev": "0x0000000000000000000000000000000000000000000000000000000000000000"
                    },
                    {
                        "current": "0x0000000000000000000000000000000000000000000000000000000000000001",
                        "key": "0x21e2232b01775c8fa71f0ba60b26a4e9c44ccce1c94ceaaa30bb2e4c671d6249",
                        "prev": "0x0000000000000000000000000000000000000000000000000000000000000000"
                    },
                    {
                        "current": "0x000000000000000000000000222864fd9ca54ae2c0389a67e8bb401a54682762",
                        "key": "0xcb13cf1053a5ed64df7899bf2eac65244d51ab16a943fbc846d4f35a4c1db3bd",
                        "prev": "0x0000000000000000000000000000000000000000000000000000000000000000"
                    },
                    {
                        "current": "0x0000000000000000000000000000000000000000000000000000000000000001",
                        "key": "0x499e5f2b72ac0b4199fe19eda13cf5a9d3a8e65bca95dac22ecdf00096a784b9",
                        "prev": "0x0000000000000000000000000000000000000000000000000000000000000000"
                    },
                    {
                        "current": "0x000000000000000000000000222864fd9ca54ae2c0389a67e8bb401a54682762",
                        "key": "0xb0489c24a7809a1a2f8c1f92763557d044a6c7ae9a54268f55b27030a06e77d5",
                        "prev": "0x0000000000000000000000000000000000000000000000000000000000000000"
                    },
                    {
                        "current": "0x0000000000000000000000000000000000000000000000000000000000000005",
                        "key": "0xc80f98ec91ae545759cac492f36c82075951f0789234eea6259e7063d8c6ba3f",
                        "prev": "0x0000000000000000000000000000000000000000000000000000000000000004"
                    },
                    {
                        "current": "0x0000000000000000000000000000000000000000000000000000000000000001",
                        "key": "0xa72b8b2022b919fe72d8ec2eb6492f5e066c0147bb2215b466ae3ab61c6dc93d",
                        "prev": "0x0000000000000000000000000000000000000000000000000000000000000000"
                    },
                    {
                        "current": "0x0000000000000000000000000878cd80605d38ada7947069b9420fd8a89ce7c8",
                        "key": "0xbeae83636a6762f47ccb176f1727d89c80ba51025732b4133a9525ea2fadf222",
                        "prev": "0x0000000000000000000000000000000000000000000000000000000000000000"
                    },
                    {
                        "current": "0x0000000000000000000000000000000000000000000000000000000000000004",
                        "key": "0xd3df972825fe6ca4f4573a2e941da3cf261ad7de3cf1b50a13e4b94fc6ab9204",
                        "prev": "0x0000000000000000000000000000000000000000000000000000000000000003"
                    },
                    {
                        "current": "0x0000000000000000000000000000000000000000000000000000000000000003",
                        "key": "0xed784375a3042012f1a591e4ae02a4498ac826a3a9b4c601ad6c70eb1e7fe3af",
                        "prev": "0x0000000000000000000000000000000000000000000000000000000000000002"
                    },
                    {
                        "current": "0x0000000000000000000000000000000000000000000000000000000000000006",
                        "key": "0x3c5dfd3ec20299b1ed12816edda7fee57369f8223fbeb7b85d005400870fcbc4",
                        "prev": "0x0000000000000000000000000000000000000000000000000000000000000005"
                    },
                    {
                        "current": "0x000000000000000000000000222864fd9ca54ae2c0389a67e8bb401a54682762",
                        "key": "0xf8a4e0da452e8b4459d0721a0bd2c6239ef7e5999c98e0f878c4c6508de71e41",
                        "prev": "0x0000000000000000000000000000000000000000000000000000000000000000"
                    },
                    {
                        "current": "0x0000000000000000000000000000000000000000000000000000000000000001",
                        "key": "0x3a6757012f0eca7d172b4d8498d1206932842291fc4a1d324191d5316a00a4d2",
                        "prev": "0x0000000000000000000000000000000000000000000000000000000000000000"
                    },
                    {
                        "current": "0x000000000000000000000000222864fd9ca54ae2c0389a67e8bb401a54682762",
                        "key": "0xac0556256df82262c5acd4608a28779780373696e1241560bc27f1294d74c436",
                        "prev": "0x0000000000000000000000000000000000000000000000000000000000000000"
                    },
                    {
                        "current": "0x000000000000000000000000222864fd9ca54ae2c0389a67e8bb401a54682762",
                        "key": "0x7ab624380acd9deac86508bb7bc86d54d42acc8e8d28c81a3f4b3ce9810cbe2f",
                        "prev": "0x0000000000000000000000000000000000000000000000000000000000000000"
                    },
                    {
                        "current": "0x0000000000000000000000000000000000000000000000000000000000000001",
                        "key": "0xfc8ceaf6bb17ec8089e36581af80ac53e77511418c0d290d4fd555649cd76081",
                        "prev": "0x0000000000000000000000000000000000000000000000000000000000000000"
                    },
                    {
                        "current": "0x0000000000000000000000000000000000000000000000000000000000000001",
                        "key": "0xcf2f29251cb59ad2add1524beb964353ae274eac27d57c5c5c59619eaa480faa",
                        "prev": "0x0000000000000000000000000000000000000000000000000000000000000000"
                    },
                    {
                        "current": "0x0000000000000000000000000000000000000000000000000000000000000001",
                        "key": "0x7cc4c1512012199904d5ca34e7f803bcfe4117af5e0468dd69cb99c7635c2af8",
                        "prev": "0x0000000000000000000000000000000000000000000000000000000000000000"
                    },
                    {
                        "current": "0x000000000000000000000000222864fd9ca54ae2c0389a67e8bb401a54682762",
                        "key": "0xcbc32cb77d6abbe1c69914f700b56abb01634a7975a68e7eafa163dbafb39668",
                        "prev": "0x0000000000000000000000000000000000000000000000000000000000000000"
                    },
                    {
                        "current": "0x0000000000000000000000000000000000000000000000000000000000000002",
                        "key": "0xdf018d2eeae58331e4d80be5b39f1b783500812636acafb5b8c75eddd4dd0d60",
                        "prev": "0x0000000000000000000000000000000000000000000000000000000000000001"
                    },
                    {
                        "current": "0x0000000000000000000000000000000000000000000000000000000000000007",
                        "key": "0xbada152d76f196bb66abcad0f5edf0e888fd6e3df875706d9f85402d862a0ac4",
                        "prev": "0x0000000000000000000000000000000000000000000000000000000000000006"
                    }
                ],
                "storageVariables": []
            }
        ]
    }
}