{
    "balance_change": {
        "balanceChanges": []
    },
    "profile": {
        "basic_info": {
            "baseFee": "",
            "blockNumber": 9593641,
            "callData": "0xa67a6a45000000000000000000000000000000000000000000000000000000000000004000000000000000000000000000000000000000000000000000000000000001200000000000000000000000000000000000000000000000000000000000000003000000000000000000000000832c527b13b39da42282ed78bd2d23b01ce3fbb70000000000000000000000000000000000000000000000000000000000000000000000000000000000000000f809e07870dca762b9536d61a4fbef1a171780920000000000000000000000000000000000000000000000000000000000000000000000000000000000000000862821badb9c5800654015ba9a2d9d7894c83a7a000000000000000000000000000000000000000000000000000000000000000000000000000000000000000000000000000000000000000000000000000000030000000000000000000000000000000000000000000000000000000000000060000000000000000000000000000000000000000000000000000000000000038000000000000000000000000000000000000000000000000000000000000006a0000000000000000000000000000000000000000000000000000000000000000500000000000000000000000000000000000000000000000000000000000000010000000000000000000000000000000000000000000000000000000000000001000000000000000000000000000000000000000000000000000000000000000000000000000000000000000000000000000000000000000000000000000000000000000000000000000000000000000000000000000000000853a0d2313c000000000000000000000000000000000000000000000000000000000000000000000000000000000000000000000000000000000000000000000000000000000003000000000000000000000000def136d9884528e1eb302f39457af0e4d3ad24eb0000000000000000000000000000000000000000000000000000000000000000000000000000000000000000000000000000000000000000000000000000016000000000000000000000000000000000000000000000000000000000000001820000000000000000000000000000000000000000000000000000000000000003000000000000000000000000000000000000000000000000000000000000000000000000000000000000000000000000000000000000000792e7746631f30d800000000000000000000000000000000000000000000000000853a0d2313c0000000000000000000000000000832c527b13b39da42282ed78bd2d23b01ce3fbb70000000000000000000000000000000000000000000000000000000000000000000000000000000000000000f809e07870dca762b9536d61a4fbef1a171780920000000000000000000000000000000000000000000000000000000000000000000000000000000000000000000000000000000000000000000000005e8241020799b114c74ca25a4fb5a14b96b6f7a157dc1759817de45512d3f25236b937f26d2214190a5bb35025625c33c7d81d1d47aae33ac9fd581f7fe9457d449aa0e466cba27e66b6dcb2cc4bbe254bf468ce0c34775d7cb40a07a2d276b797241a7b1c00000000000000000000000000000000000000000000000000000000000000000000000000000000000000000000000000000000000000000000000000000500000000000000000000000000000000000000000000000000000000000000010000000000000000000000000000000000000000000000000000000000000000000000000000000000000000000000000000000000000000000000000000000000000000000000000000000000000000000000000000000000000000000000000000000000000000000000000000000000000000000000000853a0d2313c000000000000000000000000000000000000000000000000000000000000000000000000000000000000000000000000000000000000000000000000000000000003000000000000000000000000def136d9884528e1eb302f39457af0e4d3ad24eb00000000000000000000000000000000000000000000000000000000000000020000000000000000000000000000000000000000000000000000000000000160000000000000000000000000000000000000000000000000000000000000018200000000000000000000000000000000000000000000000000000000000000000000000000000000000000000000000000000000000000000000000000000003000000000000000000000000000000000000000000000000efcd78a614d6f8000000000000000000000000000000000000000000000000d8d582d0180b300000000000000000000000000000862821badb9c5800654015ba9a2d9d7894c83a7a0000000000000000000000000000000000000000000000000000000000000000000000000000000000000000f809e07870dca762b9536d61a4fbef1a171780920000000000000000000000000000000000000000000000000000000000000000000000000000000000000000000000000000000000000000000000005e5d66447ea3a159a5f7fa86ae010293abba66abc79e60a1abdaf980a984b48be1f9561f9b0492277992f4b88d98ac44095f328b465ab76b9c72ce640614ef7674d35e72343d12d703d5708351985d2a630e31036b2a50909fcf31c819cbe2abe509e82e1b01000000000000000000000000000000000000000000000000000000000000000000000000000000000000000000000000000000000000000000000000000500000000000000000000000000000000000000000000000000000000000000010000000000000000000000000000000000000000000000000000000000000001000000000000000000000000000000000000000000000000000000000000000000000000000000000000000000000000000000000000000000000000000000000000000000000000000000000000000000000000000000000b722842657ef9a5000000000000000000000000000000000000000000000000000000000000000300000000000000000000000000000000000000000000000000000000000000000000000000000000000000007454df5d0758d4e7a538c3acf4841fa9137f0f74000000000000000000000000000000000000000000000000000000000000000000000000000000000000000000000000000000000000000000000000000001600000000000000000000000000000000000000000000000000000000000000000",
            "debugEnable": true,
            "errorInfo": "",
            "eventCount": 10,
            "feeRecipient": "0xea674fdde714fd979de3edf0f56aa9716b898ec8",
            "formatValue": "0",
            "gasLimit": 825000,
            "gasPrice": "3.600000013",
            "gasUsed": 540842,
            "intTxnCount": 10,
            "internalRevert": false,
            "internalRevertMessage": "",
            "isContractCreation": false,
            "isFlashloan": false,
            "maxFee": "",
            "nonce": 90343,
            "overwritedBlockNumber": -1,
            "priorityFee": "",
            "receiver": "0x1e0447b19bb6ecfdae1e4ae1694b0c3659614e4e",
            "revertMessage": "",
            "sender": "0xf809e07870dca762b9536d61a4fbef1a17178092",
            "simulationEnable": true,
            "sourceTxnHash": "0x0a39ba8cf8327466cb1eb0482ab4a7ea30e8a6ad3e1d1a13422eaa02d5b96aca",
            "status": true,
            "timestamp": "2020-03-02T19:42:10Z",
            "transactionFee": "0.001947031207030946",
            "txnHash": "0x0a39ba8cf8327466cb1eb0482ab4a7ea30e8a6ad3e1d1a13422eaa02d5b96aca",
            "txnIndex": 57,
            "type": 0,
            "value": "0"
        },
        "fund_flow": [],
        "token_infos": [
            {
                "address": "0xc02aaa39b223fe8d0a0e5c4f27ead9083c756cc2",
                "decimals": 18
            },
            {
                "address": "0xeeeeeeeeeeeeeeeeeeeeeeeeeeeeeeeeeeeeeeee",
                "decimals": 18
            }
        ]
    },
    "address_label": {
        "labels": [
            {
                "address": "0xeeeeeeeeeeeeeeeeeeeeeeeeeeeeeeeeeeeeeeee",
                "label": "Ether"
            },
            {
                "address": "0x56e7d4520abfecf10b38368b00723d9bd3c21ee1",
                "label": "dYdX: Operation Impl"
            },
            {
                "address": "0xa0b86991c6218b36c1d19d4a2e9eb0ce3606eb48",
                "label": "Circle: USDC Token"
            },
            {
                "address": "0xccfcf083335633c48e99872899586113a2bd08d8",
                "label": "DaiPriceOracle"
            },
            {
                "address": "0x0000000000000000000000000000000000000001",
                "label": "Precompiled"
            },
            {
                "address": "0x1e0447b19bb6ecfdae1e4ae1694b0c3659614e4e",
                "label": "dYdX: Solo Margin"
            },
            {
                "address": "0x6b175474e89094c44da98b954eedeac495271d0f",
                "label": "Sky: Dai Stablecoin"
            },
            {
                "address": "0xdef136d9884528e1eb302f39457af0e4d3ad24eb",
                "label": "LimitOrders"
            },
            {
                "address": "0x7454df5d0758d4e7a538c3acf4841fa9137f0f74",
                "label": "Refunder"
            },
            {
                "address": "0x0000000000000000000000000000000000000002",
                "label": "Precompiled"
            },
            {
                "address": "0x0000000000000000000000000000000000000003",
                "label": "Precompiled"
            },
            {
                "address": "0x52f1c952a48a4588f9ae615d38cfdbf8df036e60",
                "label": "dYdX: Usdc Price Oracle"
            },
            {
                "address": "0xc02aaa39b223fe8d0a0e5c4f27ead9083c756cc2",
                "label": "Wrapped Ether (WETH)"
            },
            {
                "address": "0xf61ae328463cd997c7b58e7045cdc613e1cfdb69",
                "label": "dYdX: Weth Price Oracle"
            },
            {
                "address": "0x729d19f657bd0614b4985cf1d82531c67569197b",
                "label": "Maker: Medianizer 2"
            },
            {
                "address": "0x0000000000000000000000000000000000000004",
                "label": "Precompiled"
            }
        ]
    },
    "trace": {
        "accountLabels": null,
        "dataMap": {
            "-1": {
                "invocation": {
                    "address": "0xf809e07870dca762b9536d61a4fbef1a17178092",
                    "callData": "",
                    "decodedMethod": null,
                    "errorInfo": "",
                    "fromAddress": "",
                    "gasUsed": 0,
                    "id": -1,
                    "methodDecoded": false,
                    "operation": "",
                    "output": "",
                    "revert": false,
                    "revertMessage": "",
                    "selector": "",
                    "status": false,
                    "value": ""
                },
                "nodeType": 0
            },
            "0": {
                "invocation": {
                    "address": "0x1e0447b19bb6ecfdae1e4ae1694b0c3659614e4e",
                    "callData": "0x000000000000000000000000000000000000000000000000000000000000004000000000000000000000000000000000000000000000000000000000000001200000000000000000000000000000000000000000000000000000000000000003000000000000000000000000832c527b13b39da42282ed78bd2d23b01ce3fbb70000000000000000000000000000000000000000000000000000000000000000000000000000000000000000f809e07870dca762b9536d61a4fbef1a171780920000000000000000000000000000000000000000000000000000000000000000000000000000000000000000862821badb9c5800654015ba9a2d9d7894c83a7a000000000000000000000000000000000000000000000000000000000000000000000000000000000000000000000000000000000000000000000000000000030000000000000000000000000000000000000000000000000000000000000060000000000000000000000000000000000000000000000000000000000000038000000000000000000000000000000000000000000000000000000000000006a0000000000000000000000000000000000000000000000000000000000000000500000000000000000000000000000000000000000000000000000000000000010000000000000000000000000000000000000000000000000000000000000001000000000000000000000000000000000000000000000000000000000000000000000000000000000000000000000000000000000000000000000000000000000000000000000000000000000000000000000000000000000853a0d2313c000000000000000000000000000000000000000000000000000000000000000000000000000000000000000000000000000000000000000000000000000000000003000000000000000000000000def136d9884528e1eb302f39457af0e4d3ad24eb0000000000000000000000000000000000000000000000000000000000000000000000000000000000000000000000000000000000000000000000000000016000000000000000000000000000000000000000000000000000000000000001820000000000000000000000000000000000000000000000000000000000000003000000000000000000000000000000000000000000000000000000000000000000000000000000000000000000000000000000000000000792e7746631f30d800000000000000000000000000000000000000000000000000853a0d2313c0000000000000000000000000000832c527b13b39da42282ed78bd2d23b01ce3fbb70000000000000000000000000000000000000000000000000000000000000000000000000000000000000000f809e07870dca762b9536d61a4fbef1a171780920000000000000000000000000000000000000000000000000000000000000000000000000000000000000000000000000000000000000000000000005e8241020799b114c74ca25a4fb5a14b96b6f7a157dc1759817de45512d3f25236b937f26d2214190a5bb35025625c33c7d81d1d47aae33ac9fd581f7fe9457d449aa0e466cba27e66b6dcb2cc4bbe254bf468ce0c34775d7cb40a07a2d276b797241a7b1c00000000000000000000000000000000000000000000000000000000000000000000000000000000000000000000000000000000000000000000000000000500000000000000000000000000000000000000000000000000000000000000010000000000000000000000000000000000000000000000000000000000000000000000000000000000000000000000000000000000000000000000000000000000000000000000000000000000000000000000000000000000000000000000000000000000000000000000000000000000000000000000000853a0d2313c000000000000000000000000000000000000000000000000000000000000000000000000000000000000000000000000000000000000000000000000000000000003000000000000000000000000def136d9884528e1eb302f39457af0e4d3ad24eb00000000000000000000000000000000000000000000000000000000000000020000000000000000000000000000000000000000000000000000000000000160000000000000000000000000000000000000000000000000000000000000018200000000000000000000000000000000000000000000000000000000000000000000000000000000000000000000000000000000000000000000000000000003000000000000000000000000000000000000000000000000efcd78a614d6f8000000000000000000000000000000000000000000000000d8d582d0180b300000000000000000000000000000862821badb9c5800654015ba9a2d9d7894c83a7a0000000000000000000000000000000000000000000000000000000000000000000000000000000000000000f809e07870dca762b9536d61a4fbef1a171780920000000000000000000000000000000000000000000000000000000000000000000000000000000000000000000000000000000000000000000000005e5d66447ea3a159a5f7fa86ae010293abba66abc79e60a1abdaf980a984b48be1f9561f9b0492277992f4b88d98ac44095f328b465ab76b9c72ce640614ef7674d35e72343d12d703d5708351985d2a630e31036b2a50909fcf31c819cbe2abe509e82e1b01000000000000000000000000000000000000000000000000000000000000000000000000000000000000000000000000000000000000000000000000000500000000000000000000000000000000000000000000000000000000000000010000000000000000000000000000000000000000000000000000000000000001000000000000000000000000000000000000000000000000000000000000000000000000000000000000000000000000000000000000000000000000000000000000000000000000000000000000000000000000000000000b722842657ef9a5000000000000000000000000000000000000000000000000000000000000000300000000000000000000000000000000000000000000000000000000000000000000000000000000000000007454df5d0758d4e7a538c3acf4841fa9137f0f74000000000000000000000000000000000000000000000000000000000000000000000000000000000000000000000000000000000000000000000000000001600000000000000000000000000000000000000000000000000000000000000000",
                    "decodedMethod": {
                        "callParams": [
                            {
                                "name": "accounts",
                                "type": "(address,uint256)[]",
                                "value": [
                                    [
                                        {
                                            "name": "owner",
                                            "type": "address",
                                            "value": "0x832c527b13b39da42282ed78bd2d23b01ce3fbb7"
                                        },
                                        {
                                            "name": "number",
                                            "type": "uint256",
                                            "value": "0"
                                        }
                                    ],
                                    [
                                        {
                                            "name": "owner",
                                            "type": "address",
                                            "value": "0xf809e07870dca762b9536d61a4fbef1a17178092"
                                        },
                                        {
                                            "name": "number",
                                            "type": "uint256",
                                            "value": "0"
                                        }
                                    ],
                                    [
                                        {
                                            "name": "owner",
                                            "type": "address",
                                            "value": "0x862821badb9c5800654015ba9a2d9d7894c83a7a"
                                        },
                                        {
                                            "name": "number",
                                            "type": "uint256",
                                            "value": "0"
                                        }
                                    ]
                                ]
                            },
                            {
                                "name": "actions",
                                "type": "(uint8,uint256,(bool,uint8,uint8,uint256),uint256,uint256,address,uint256,bytes)[]",
                                "value": [
                                    [
                                        {
                                            "name": "actionType",
                                            "type": "uint8",
                                            "value": "5"
                                        },
                                        {
                                            "name": "accountId",
                                            "type": "uint256",
                                            "value": "1"
                                        },
                                        {
                                            "name": "amount",
                                            "type": "(bool,uint8,uint8,uint256)",
                                            "value": [
                                                {
                                                    "name": "sign",
                                                    "type": "bool",
                                                    "value": true
                                                },
                                                {
                                                    "name": "denomination",
                                                    "type": "uint8",
                                                    "value": "0"
                                                },
                                                {
                                                    "name": "ref",
                                                    "type": "uint8",
                                                    "value": "0"
                                                },
                                                {
                                                    "name": "value",
                                                    "type": "uint256",
                                                    "value": "600,000,000,000,000,000"
                                                }
                                            ]
                                        },
                                        {
                                            "name": "primaryMarketId",
                                            "type": "uint256",
                                            "value": "0"
                                        },
                                        {
                                            "name": "secondaryMarketId",
                                            "type": "uint256",
                                            "value": "3"
                                        },
                                        {
                                            "name": "otherAddress",
                                            "type": "address",
                                            "value": "0xdef136d9884528e1eb302f39457af0e4d3ad24eb"
                                        },
                                        {
                                            "name": "otherAccountId",
                                            "type": "uint256",
                                            "value": "0"
                                        },
                                        {
                                            "name": "data",
                                            "type": "bytes",
                                            "value": "0x0000000000000000000000000000000000000000000000000000000000000003000000000000000000000000000000000000000000000000000000000000000000000000000000000000000000000000000000000000000792e7746631f30d800000000000000000000000000000000000000000000000000853a0d2313c0000000000000000000000000000832c527b13b39da42282ed78bd2d23b01ce3fbb70000000000000000000000000000000000000000000000000000000000000000000000000000000000000000f809e07870dca762b9536d61a4fbef1a171780920000000000000000000000000000000000000000000000000000000000000000000000000000000000000000000000000000000000000000000000005e8241020799b114c74ca25a4fb5a14b96b6f7a157dc1759817de45512d3f25236b937f26d2214190a5bb35025625c33c7d81d1d47aae33ac9fd581f7fe9457d449aa0e466cba27e66b6dcb2cc4bbe254bf468ce0c34775d7cb40a07a2d276b797241a7b1c00"
                                        }
                                    ],
                                    [
                                        {
                                            "name": "actionType",
                                            "type": "uint8",
                                            "value": "5"
                                        },
                                        {
                                            "name": "accountId",
                                            "type": "uint256",
                                            "value": "1"
                                        },
                                        {
                                            "name": "amount",
                                            "type": "(bool,uint8,uint8,uint256)",
                                            "value": [
                                                {
                                                    "name": "sign",
                                                    "type": "bool",
                                                    "value": false
                                                },
                                                {
                                                    "name": "denomination",
                                                    "type": "uint8",
                                                    "value": "0"
                                                },
                                                {
                                                    "name": "ref",
                                                    "type": "uint8",
                                                    "value": "0"
                                                },
                                                {
                                                    "name": "value",
                                                    "type": "uint256",
                                                    "value": "600,000,000,000,000,000"
                                                }
                                            ]
                                        },
                                        {
                                            "name": "primaryMarketId",
                                            "type": "uint256",
                                            "value": "0"
                                        },
                                        {
                                            "name": "secondaryMarketId",
                                            "type": "uint256",
                                            "value": "3"
                                        },
                                        {
                                            "name": "otherAddress",
                                            "type": "address",
                                            "value": "0xdef136d9884528e1eb302f39457af0e4d3ad24eb"
                                        },
                                        {
                                            "name": "otherAccountId",
                                            "type": "uint256",
                                            "value": "2"
                                        },
                                        {
                                            "name": "data",
                                            "type": "bytes",
                                            "value": "0x00000000000000000000000000000000000000000000000000000000000000000000000000000000000000000000000000000000000000000000000000000003000000000000000000000000000000000000000000000000efcd78a614d6f8000000000000000000000000000000000000000000000000d8d582d0180b300000000000000000000000000000862821badb9c5800654015ba9a2d9d7894c83a7a0000000000000000000000000000000000000000000000000000000000000000000000000000000000000000f809e07870dca762b9536d61a4fbef1a171780920000000000000000000000000000000000000000000000000000000000000000000000000000000000000000000000000000000000000000000000005e5d66447ea3a159a5f7fa86ae010293abba66abc79e60a1abdaf980a984b48be1f9561f9b0492277992f4b88d98ac44095f328b465ab76b9c72ce640614ef7674d35e72343d12d703d5708351985d2a630e31036b2a50909fcf31c819cbe2abe509e82e1b01"
                                        }
                                    ],
                                    [
                                        {
                                            "name": "actionType",
                                            "type": "uint8",
                                            "value": "5"
                                        },
                                        {
                                            "name": "accountId",
                                            "type": "uint256",
                                            "value": "1"
                                        },
                                        {
                                            "name": "amount",
                                            "type": "(bool,uint8,uint8,uint256)",
                                            "value": [
                                                {
                                                    "name": "sign",
                                                    "type": "bool",
                                                    "value": true
                                                },
                                                {
                                                    "name": "denomination",
                                                    "type": "uint8",
                                                    "value": "0"
                                                },
                                                {
                                                    "name": "ref",
                                                    "type": "uint8",
                                                    "value": "0"
                                                },
                                                {
                                                    "name": "value",
                                                    "type": "uint256",
                                                    "value": "824,765,947,397,994,917"
                                                }
                                            ]
                                        },
                                        {
                                            "name": "primaryMarketId",
                                            "type": "uint256",
                                            "value": "3"
                                        },
                                        {
                                            "name": "secondaryMarketId",
                                            "type": "uint256",
                                            "value": "0"
                                        },
                                        {
                                            "name": "otherAddress",
                                            "type": "address",
                                            "value": "0x7454df5d0758d4e7a538c3acf4841fa9137f0f74"
                                        },
                                        {
                                            "name": "otherAccountId",
                                            "type": "uint256",
                                            "value": "0"
                                        },
                                        {
                                            "name": "data",
                                            "type": "bytes",
                                            "value": "0x"
                                        }
                                    ]
                                ]
                            }
                        ],
                        "constructorArguments": "",
                        "name": "operate",
                        "returnParams": [],
                        "signature": "operate((address,uint256)[],(uint8,uint256,(bool,uint8,uint8,uint256),uint256,uint256,address,uint256,bytes)[])"
                    },
                    "errorInfo": "",
                    "fromAddress": "0xf809e07870dca762b9536d61a4fbef1a17178092",
                    "gasUsed": 540842,
                    "id": 0,
                    "methodDecoded": true,
                    "operation": "CALL",
                    "output": "",
                    "revert": false,
                    "revertMessage": "",
                    "selector": "0xa67a6a45",
                    "status": true,
                    "value": "0"
                },
                "nodeType": 0
            },
            "1": {
                "invocation": {
                    "address": "0x56e7d4520abfecf10b38368b00723d9bd3c21ee1",
                    "callData": "0x0000000000000000000000000000000000000000000000000000000000000000000000000000000000000000000000000000000000000000000000000000006000000000000000000000000000000000000000000000000000000000000001400000000000000000000000000000000000000000000000000000000000000003000000000000000000000000832c527b13b39da42282ed78bd2d23b01ce3fbb70000000000000000000000000000000000000000000000000000000000000000000000000000000000000000f809e07870dca762b9536d61a4fbef1a171780920000000000000000000000000000000000000000000000000000000000000000000000000000000000000000862821badb9c5800654015ba9a2d9d7894c83a7a000000000000000000000000000000000000000000000000000000000000000000000000000000000000000000000000000000000000000000000000000000030000000000000000000000000000000000000000000000000000000000000060000000000000000000000000000000000000000000000000000000000000038000000000000000000000000000000000000000000000000000000000000006a0000000000000000000000000000000000000000000000000000000000000000500000000000000000000000000000000000000000000000000000000000000010000000000000000000000000000000000000000000000000000000000000001000000000000000000000000000000000000000000000000000000000000000000000000000000000000000000000000000000000000000000000000000000000000000000000000000000000000000000000000000000000853a0d2313c000000000000000000000000000000000000000000000000000000000000000000000000000000000000000000000000000000000000000000000000000000000003000000000000000000000000def136d9884528e1eb302f39457af0e4d3ad24eb0000000000000000000000000000000000000000000000000000000000000000000000000000000000000000000000000000000000000000000000000000016000000000000000000000000000000000000000000000000000000000000001820000000000000000000000000000000000000000000000000000000000000003000000000000000000000000000000000000000000000000000000000000000000000000000000000000000000000000000000000000000792e7746631f30d800000000000000000000000000000000000000000000000000853a0d2313c0000000000000000000000000000832c527b13b39da42282ed78bd2d23b01ce3fbb70000000000000000000000000000000000000000000000000000000000000000000000000000000000000000f809e07870dca762b9536d61a4fbef1a171780920000000000000000000000000000000000000000000000000000000000000000000000000000000000000000000000000000000000000000000000005e8241020799b114c74ca25a4fb5a14b96b6f7a157dc1759817de45512d3f25236b937f26d2214190a5bb35025625c33c7d81d1d47aae33ac9fd581f7fe9457d449aa0e466cba27e66b6dcb2cc4bbe254bf468ce0c34775d7cb40a07a2d276b797241a7b1c00000000000000000000000000000000000000000000000000000000000000000000000000000000000000000000000000000000000000000000000000000500000000000000000000000000000000000000000000000000000000000000010000000000000000000000000000000000000000000000000000000000000000000000000000000000000000000000000000000000000000000000000000000000000000000000000000000000000000000000000000000000000000000000000000000000000000000000000000000000000000000000000853a0d2313c000000000000000000000000000000000000000000000000000000000000000000000000000000000000000000000000000000000000000000000000000000000003000000000000000000000000def136d9884528e1eb302f39457af0e4d3ad24eb00000000000000000000000000000000000000000000000000000000000000020000000000000000000000000000000000000000000000000000000000000160000000000000000000000000000000000000000000000000000000000000018200000000000000000000000000000000000000000000000000000000000000000000000000000000000000000000000000000000000000000000000000000003000000000000000000000000000000000000000000000000efcd78a614d6f8000000000000000000000000000000000000000000000000d8d582d0180b300000000000000000000000000000862821badb9c5800654015ba9a2d9d7894c83a7a0000000000000000000000000000000000000000000000000000000000000000000000000000000000000000f809e07870dca762b9536d61a4fbef1a171780920000000000000000000000000000000000000000000000000000000000000000000000000000000000000000000000000000000000000000000000005e5d66447ea3a159a5f7fa86ae010293abba66abc79e60a1abdaf980a984b48be1f9561f9b0492277992f4b88d98ac44095f328b465ab76b9c72ce640614ef7674d35e72343d12d703d5708351985d2a630e31036b2a50909fcf31c819cbe2abe509e82e1b01000000000000000000000000000000000000000000000000000000000000000000000000000000000000000000000000000000000000000000000000000500000000000000000000000000000000000000000000000000000000000000010000000000000000000000000000000000000000000000000000000000000001000000000000000000000000000000000000000000000000000000000000000000000000000000000000000000000000000000000000000000000000000000000000000000000000000000000000000000000000000000000b722842657ef9a5000000000000000000000000000000000000000000000000000000000000000300000000000000000000000000000000000000000000000000000000000000000000000000000000000000007454df5d0758d4e7a538c3acf4841fa9137f0f74000000000000000000000000000000000000000000000000000000000000000000000000000000000000000000000000000000000000000000000000000001600000000000000000000000000000000000000000000000000000000000000000",
                    "decodedMethod": {
                        "callParams": [
                            {
                                "name": "state",
                                "type": "bytes32",
                                "value": "0x0000000000000000000000000000000000000000000000000000000000000000"
                            },
                            {
                                "name": "accounts",
                                "type": "(address,uint256)[]",
                                "value": [
                                    [
                                        {
                                            "name": "owner",
                                            "type": "address",
                                            "value": "0x832c527b13b39da42282ed78bd2d23b01ce3fbb7"
                                        },
                                        {
                                            "name": "number",
                                            "type": "uint256",
                                            "value": "0"
                                        }
                                    ],
                                    [
                                        {
                                            "name": "owner",
                                            "type": "address",
                                            "value": "0xf809e07870dca762b9536d61a4fbef1a17178092"
                                        },
                                        {
                                            "name": "number",
                                            "type": "uint256",
                                            "value": "0"
                                        }
                                    ],
                                    [
                                        {
                                            "name": "owner",
                                            "type": "address",
                                            "value": "0x862821badb9c5800654015ba9a2d9d7894c83a7a"
                                        },
                                        {
                                            "name": "number",
                                            "type": "uint256",
                                            "value": "0"
                                        }
                                    ]
                                ]
                            },
                            {
                                "name": "actions",
                                "type": "(uint8,uint256,(bool,uint8,uint8,uint256),uint256,uint256,address,uint256,bytes)[]",
                                "value": [
                                    [
                                        {
                                            "name": "actionType",
                                            "type": "uint8",
                                            "value": "5"
                                        },
                                        {
                                            "name": "accountId",
                                            "type": "uint256",
                                            "value": "1"
                                        },
                                        {
                                            "name": "amount",
                                            "type": "(bool,uint8,uint8,uint256)",
                                            "value": [
                                                {
                                                    "name": "sign",
                                                    "type": "bool",
                                                    "value": true
                                                },
                                                {
                                                    "name": "denomination",
                                                    "type": "uint8",
                                                    "value": "0"
                                                },
                                                {
                                                    "name": "ref",
                                                    "type": "uint8",
                                                    "value": "0"
                                                },
                                                {
                                                    "name": "value",
                                                    "type": "uint256",
                                                    "value": "600,000,000,000,000,000"
                                                }
                                            ]
                                        },
                                        {
                                            "name": "primaryMarketId",
                                            "type": "uint256",
                                            "value": "0"
                                        },
                                        {
                                            "name": "secondaryMarketId",
                                            "type": "uint256",
                                            "value": "3"
                                        },
                                        {
                                            "name": "otherAddress",
                                            "type": "address",
                                            "value": "0xdef136d9884528e1eb302f39457af0e4d3ad24eb"
                                        },
                                        {
                                            "name": "otherAccountId",
                                            "type": "uint256",
                                            "value": "0"
                                        },
                                        {
                                            "name": "data",
                                            "type": "bytes",
                                            "value": "0x0000000000000000000000000000000000000000000000000000000000000003000000000000000000000000000000000000000000000000000000000000000000000000000000000000000000000000000000000000000792e7746631f30d800000000000000000000000000000000000000000000000000853a0d2313c0000000000000000000000000000832c527b13b39da42282ed78bd2d23b01ce3fbb70000000000000000000000000000000000000000000000000000000000000000000000000000000000000000f809e07870dca762b9536d61a4fbef1a171780920000000000000000000000000000000000000000000000000000000000000000000000000000000000000000000000000000000000000000000000005e8241020799b114c74ca25a4fb5a14b96b6f7a157dc1759817de45512d3f25236b937f26d2214190a5bb35025625c33c7d81d1d47aae33ac9fd581f7fe9457d449aa0e466cba27e66b6dcb2cc4bbe254bf468ce0c34775d7cb40a07a2d276b797241a7b1c00"
                                        }
                                    ],
                                    [
                                        {
                                            "name": "actionType",
                                            "type": "uint8",
                                            "value": "5"
                                        },
                                        {
                                            "name": "accountId",
                                            "type": "uint256",
                                            "value": "1"
                                        },
                                        {
                                            "name": "amount",
                                            "type": "(bool,uint8,uint8,uint256)",
                                            "value": [
                                                {
                                                    "name": "sign",
                                                    "type": "bool",
                                                    "value": false
                                                },
                                                {
                                                    "name": "denomination",
                                                    "type": "uint8",
                                                    "value": "0"
                                                },
                                                {
                                                    "name": "ref",
                                                    "type": "uint8",
                                                    "value": "0"
                                                },
                                                {
                                                    "name": "value",
                                                    "type": "uint256",
                                                    "value": "600,000,000,000,000,000"
                                                }
                                            ]
                                        },
                                        {
                                            "name": "primaryMarketId",
                                            "type": "uint256",
                                            "value": "0"
                                        },
                                        {
                                            "name": "secondaryMarketId",
                                            "type": "uint256",
                                            "value": "3"
                                        },
                                        {
                                            "name": "otherAddress",
                                            "type": "address",
                                            "value": "0xdef136d9884528e1eb302f39457af0e4d3ad24eb"
                                        },
                                        {
                                            "name": "otherAccountId",
                                            "type": "uint256",
                                            "value": "2"
                                        },
                                        {
                                            "name": "data",
                                            "type": "bytes",
                                            "value": "0x00000000000000000000000000000000000000000000000000000000000000000000000000000000000000000000000000000000000000000000000000000003000000000000000000000000000000000000000000000000efcd78a614d6f8000000000000000000000000000000000000000000000000d8d582d0180b300000000000000000000000000000862821badb9c5800654015ba9a2d9d7894c83a7a0000000000000000000000000000000000000000000000000000000000000000000000000000000000000000f809e07870dca762b9536d61a4fbef1a171780920000000000000000000000000000000000000000000000000000000000000000000000000000000000000000000000000000000000000000000000005e5d66447ea3a159a5f7fa86ae010293abba66abc79e60a1abdaf980a984b48be1f9561f9b0492277992f4b88d98ac44095f328b465ab76b9c72ce640614ef7674d35e72343d12d703d5708351985d2a630e31036b2a50909fcf31c819cbe2abe509e82e1b01"
                                        }
                                    ],
                                    [
                                        {
                                            "name": "actionType",
                                            "type": "uint8",
                                            "value": "5"
                                        },
                                        {
                                            "name": "accountId",
                                            "type": "uint256",
                                            "value": "1"
                                        },
                                        {
                                            "name": "amount",
                                            "type": "(bool,uint8,uint8,uint256)",
                                            "value": [
                                                {
                                                    "name": "sign",
                                                    "type": "bool",
                                                    "value": true
                                                },
                                                {
                                                    "name": "denomination",
                                                    "type": "uint8",
                                                    "value": "0"
                                                },
                                                {
                                                    "name": "ref",
                                                    "type": "uint8",
                                                    "value": "0"
                                                },
                                                {
                                                    "name": "value",
                                                    "type": "uint256",
                                                    "value": "824,765,947,397,994,917"
                                                }
                                            ]
                                        },
                                        {
                                            "name": "primaryMarketId",
                                            "type": "uint256",
                                            "value": "3"
                                        },
                                        {
                                            "name": "secondaryMarketId",
                                            "type": "uint256",
                                            "value": "0"
                                        },
                                        {
                                            "name": "otherAddress",
                                            "type": "address",
                                            "value": "0x7454df5d0758d4e7a538c3acf4841fa9137f0f74"
                                        },
                                        {
                                            "name": "otherAccountId",
                                            "type": "uint256",
                                            "value": "0"
                                        },
                                        {
                                            "name": "data",
                                            "type": "bytes",
                                            "value": "0x"
                                        }
                                    ]
                                ]
                            }
                        ],
                        "constructorArguments": "",
                        "name": "operate",
                        "returnParams": [],
                        "signature": "operate(bytes32,(address,uint256)[],(uint8,uint256,(bool,uint8,uint8,uint256),uint256,uint256,address,uint256,bytes)[])"
                    },
                    "errorInfo": "",
                    "fromAddress": "0x1e0447b19bb6ecfdae1e4ae1694b0c3659614e4e",
                    "gasUsed": 477849,
                    "id": 1,
                    "methodDecoded": true,
                    "operation": "DELEGATECALL",
                    "output": "",
                    "revert": false,
                    "revertMessage": "",
                    "selector": "0xbd76ecfd",
                    "status": true,
                    "value": "0"
                },
                "nodeType": 0
            },
            "10": {
                "invocation": {
                    "address": "0xdef136d9884528e1eb302f39457af0e4d3ad24eb",
                    "callData": "0x00000000000000000000000000000000000000000000000000000000000000000000000000000000000000000000000000000000000000000000000000000003000000000000000000000000832c527b13b39da42282ed78bd2d23b01ce3fbb70000000000000000000000000000000000000000000000000000000000000000000000000000000000000000f809e07870dca762b9536d61a4fbef1a171780920000000000000000000000000000000000000000000000000000000000000000000000000000000000000000000000000000000000000000000000000000000100000000000000000000000000000000000000000000000006ef8a2020c6d0c700000000000000000000000000000000000000000000000000000000000000010000000000000000000000000000000000000000000000000f417096cb6608ee00000000000000000000000000000000000000000000000000000000000000010000000000000000000000000000000000000000000000000853a0d2313c000000000000000000000000000000000000000000000000000000000000000001a000000000000000000000000000000000000000000000000000000000000001820000000000000000000000000000000000000000000000000000000000000003000000000000000000000000000000000000000000000000000000000000000000000000000000000000000000000000000000000000000792e7746631f30d800000000000000000000000000000000000000000000000000853a0d2313c0000000000000000000000000000832c527b13b39da42282ed78bd2d23b01ce3fbb70000000000000000000000000000000000000000000000000000000000000000000000000000000000000000f809e07870dca762b9536d61a4fbef1a171780920000000000000000000000000000000000000000000000000000000000000000000000000000000000000000000000000000000000000000000000005e8241020799b114c74ca25a4fb5a14b96b6f7a157dc1759817de45512d3f25236b937f26d2214190a5bb35025625c33c7d81d1d47aae33ac9fd581f7fe9457d449aa0e466cba27e66b6dcb2cc4bbe254bf468ce0c34775d7cb40a07a2d276b797241a7b1c00000000000000000000000000000000000000000000000000000000000000",
                    "decodedMethod": {
                        "callParams": [
                            {
                                "name": "inputMarketId",
                                "type": "uint256",
                                "value": "0"
                            },
                            {
                                "name": "outputMarketId",
                                "type": "uint256",
                                "value": "3"
                            },
                            {
                                "name": "makerAccount",
                                "type": "(address,uint256)",
                                "value": [
                                    {
                                        "name": "owner",
                                        "type": "address",
                                        "value": "0x832c527b13b39da42282ed78bd2d23b01ce3fbb7"
                                    },
                                    {
                                        "name": "number",
                                        "type": "uint256",
                                        "value": "0"
                                    }
                                ]
                            },
                            {
                                "name": "takerAccount",
                                "type": "(address,uint256)",
                                "value": [
                                    {
                                        "name": "owner",
                                        "type": "address",
                                        "value": "0xf809e07870dca762b9536d61a4fbef1a17178092"
                                    },
                                    {
                                        "name": "number",
                                        "type": "uint256",
                                        "value": "0"
                                    }
                                ]
                            },
                            {
                                "name": "",
                                "type": "(bool,uint128)",
                                "value": [
                                    {
                                        "name": "sign",
                                        "type": "bool",
                                        "value": true
                                    },
                                    {
                                        "name": "value",
                                        "type": "uint128",
                                        "value": "499,769,954,254,901,447"
                                    }
                                ]
                            },
                            {
                                "name": "",
                                "type": "(bool,uint128)",
                                "value": [
                                    {
                                        "name": "sign",
                                        "type": "bool",
                                        "value": true
                                    },
                                    {
                                        "name": "value",
                                        "type": "uint128",
                                        "value": "1,099,283,577,014,978,798"
                                    }
                                ]
                            },
                            {
                                "name": "inputWei",
                                "type": "(bool,uint256)",
                                "value": [
                                    {
                                        "name": "sign",
                                        "type": "bool",
                                        "value": true
                                    },
                                    {
                                        "name": "value",
                                        "type": "uint256",
                                        "value": "600,000,000,000,000,000"
                                    }
                                ]
                            },
                            {
                                "name": "data",
                                "type": "bytes",
                                "value": "0x0000000000000000000000000000000000000000000000000000000000000003000000000000000000000000000000000000000000000000000000000000000000000000000000000000000000000000000000000000000792e7746631f30d800000000000000000000000000000000000000000000000000853a0d2313c0000000000000000000000000000832c527b13b39da42282ed78bd2d23b01ce3fbb70000000000000000000000000000000000000000000000000000000000000000000000000000000000000000f809e07870dca762b9536d61a4fbef1a171780920000000000000000000000000000000000000000000000000000000000000000000000000000000000000000000000000000000000000000000000005e8241020799b114c74ca25a4fb5a14b96b6f7a157dc1759817de45512d3f25236b937f26d2214190a5bb35025625c33c7d81d1d47aae33ac9fd581f7fe9457d449aa0e466cba27e66b6dcb2cc4bbe254bf468ce0c34775d7cb40a07a2d276b797241a7b1c00"
                            }
                        ],
                        "constructorArguments": "",
                        "name": "getTradeCost",
                        "returnParams": [
                            {
                                "name": "",
                                "type": "(bool,uint8,uint8,uint256)",
                                "value": [
                                    {
                                        "name": "sign",
                                        "type": "bool",
                                        "value": false
                                    },
                                    {
                                        "name": "denomination",
                                        "type": "uint8",
                                        "value": "0"
                                    },
                                    {
                                        "name": "ref",
                                        "type": "uint8",
                                        "value": "0"
                                    },
                                    {
                                        "name": "value",
                                        "type": "uint256",
                                        "value": "139,712,765,947,398,000,000"
                                    }
                                ]
                            }
                        ],
                        "signature": "getTradeCost(uint256,uint256,(address,uint256),(address,uint256),(bool,uint128),(bool,uint128),(bool,uint256),bytes)"
                    },
                    "errorInfo": "",
                    "fromAddress": "0x1e0447b19bb6ecfdae1e4ae1694b0c3659614e4e",
                    "gasUsed": 43483,
                    "id": 10,
                    "methodDecoded": true,
                    "operation": "CALL",
                    "output": "0x00000000000000000000000000000000000000000000000000000000000000000000000000000000000000000000000000000000000000000000000000000000000000000000000000000000000000000000000000000000000000000000000000000000000000000000000000000000000000000000000792e7746631f30d80",
                    "revert": false,
                    "revertMessage": "",
                    "selector": "0x448f7065",
                    "status": true,
                    "value": "0"
                },
                "nodeType": 0
            },
            "11": {
                "invocation": {
                    "address": "0x0000000000000000000000000000000000000001",
                    "callData": "0xd2cea8d55a6d51cab7dc82509450288c7c13faed275c41b0264c9f9d000000000000000000000000000000000000000000000000000000000000001c6d2214190a5bb35025625c33c7d81d1d47aae33ac9fd581f7fe9457d449aa0e466cba27e66b6dcb2cc4bbe254bf468ce0c34775d7cb40a07a2d276b797241a7b",
                    "decodedMethod": {
                        "callParams": [
                            {
                                "name": "hash",
                                "type": "bytes32",
                                "value": "0xeb0f2649d2cea8d55a6d51cab7dc82509450288c7c13faed275c41b0264c9f9d"
                            },
                            {
                                "name": "v",
                                "type": "uint256",
                                "value": "28"
                            },
                            {
                                "name": "r",
                                "type": "bytes32",
                                "value": "0x6d2214190a5bb35025625c33c7d81d1d47aae33ac9fd581f7fe9457d449aa0e4"
                            },
                            {
                                "name": "s",
                                "type": "bytes32",
                                "value": "0x66cba27e66b6dcb2cc4bbe254bf468ce0c34775d7cb40a07a2d276b797241a7b"
                            }
                        ],
                        "constructorArguments": "",
                        "name": "ecrecover",
                        "returnParams": [
                            {
                                "name": "",
                                "type": "address",
                                "value": "0x832c527b13b39da42282ed78bd2d23b01ce3fbb7"
                            }
                        ],
                        "signature": "ecrecover(bytes32,uint256,bytes32,bytes32)"
                    },
                    "errorInfo": "",
                    "fromAddress": "0xdef136d9884528e1eb302f39457af0e4d3ad24eb",
                    "gasUsed": 3000,
                    "id": 11,
                    "methodDecoded": true,
                    "operation": "STATICCALL",
                    "output": "0x000000000000000000000000832c527b13b39da42282ed78bd2d23b01ce3fbb7",
                    "revert": false,
                    "revertMessage": "",
                    "selector": "0xeb0f2649",
                    "status": true,
                    "value": "0"
                },
                "nodeType": 0
            },
            "12": {
                "event": {
                    "contract": "0xdef136d9884528e1eb302f39457af0e4d3ad24eb",
                    "decodedLog": {
                        "name": "LogLimitOrderFilled",
                        "params": [
                            {
                                "name": "orderHash",
                                "type": "bytes32",
                                "value": "0xeb0f2649d2cea8d55a6d51cab7dc82509450288c7c13faed275c41b0264c9f9d"
                            },
                            {
                                "name": "orderMaker",
                                "type": "address",
                                "value": "0x832c527b13b39da42282ed78bd2d23b01ce3fbb7"
                            },
                            {
                                "name": "makerFillAmount",
                                "type": "uint256",
                                "value": "139,712,765,947,398,000,000"
                            },
                            {
                                "name": "totalMakerFilledAmount",
                                "type": "uint256",
                                "value": "139,712,765,947,398,000,000"
                            }
                        ],
                        "signature": "LogLimitOrderFilled(bytes32,address,uint256,uint256)"
                    },
                    "id": 12,
                    "logData": "0x00000000000000000000000000000000000000000000000792e7746631f30d8000000000000000000000000000000000000000000000000792e7746631f30d80",
                    "logDecoded": true,
                    "operation": "EVENT",
                    "revert": false,
                    "status": true,
                    "topics": [
                        "0x2cbb56af08fd37f0baa3ff1f051a9cb543c5c2d15156205bc6b501e51a4e3f71",
                        "0xeb0f2649d2cea8d55a6d51cab7dc82509450288c7c13faed275c41b0264c9f9d",
                        "0x000000000000000000000000832c527b13b39da42282ed78bd2d23b01ce3fbb7"
                    ]
                },
                "nodeType": 1
            },
            "13": {
                "event": {
                    "contract": "0x1e0447b19bb6ecfdae1e4ae1694b0c3659614e4e",
                    "decodedLog": {
                        "name": "LogTrade",
                        "params": [
                            {
                                "name": "takerAccountOwner",
                                "type": "address",
                                "value": "0xf809e07870dca762b9536d61a4fbef1a17178092"
                            },
                            {
                                "name": "makerAccountOwner",
                                "type": "address",
                                "value": "0x832c527b13b39da42282ed78bd2d23b01ce3fbb7"
                            },
                            {
                                "name": "takerAccountNumber",
                                "type": "uint256",
                                "value": "0"
                            },
                            {
                                "name": "makerAccountNumber",
                                "type": "uint256",
                                "value": "0"
                            },
                            {
                                "name": "inputMarket",
                                "type": "uint256",
                                "value": "0"
                            },
                            {
                                "name": "outputMarket",
                                "type": "uint256",
                                "value": "3"
                            },
                            {
                                "name": "takerInputUpdate",
                                "type": "((bool,uint256),(bool,uint128))",
                                "value": [
                                    {
                                        "name": "deltaWei",
                                        "type": "(bool,uint256)",
                                        "value": [
                                            {
                                                "name": "sign",
                                                "type": "bool",
                                                "value": false
                                            },
                                            {
                                                "name": "value",
                                                "type": "uint256",
                                                "value": "600,000,000,000,000,000"
                                            }
                                        ]
                                    },
                                    {
                                        "name": "newPar",
                                        "type": "(bool,uint128)",
                                        "value": [
                                            {
                                                "name": "sign",
                                                "type": "bool",
                                                "value": true
                                            },
                                            {
                                                "name": "value",
                                                "type": "uint128",
                                                "value": "283,769,638,306,839,056"
                                            }
                                        ]
                                    }
                                ]
                            },
                            {
                                "name": "takerOutputUpdate",
                                "type": "((bool,uint256),(bool,uint128))",
                                "value": [
                                    {
                                        "name": "deltaWei",
                                        "type": "(bool,uint256)",
                                        "value": [
                                            {
                                                "name": "sign",
                                                "type": "bool",
                                                "value": true
                                            },
                                            {
                                                "name": "value",
                                                "type": "uint256",
                                                "value": "139,712,765,947,398,000,000"
                                            }
                                        ]
                                    },
                                    {
                                        "name": "newPar",
                                        "type": "(bool,uint128)",
                                        "value": [
                                            {
                                                "name": "sign",
                                                "type": "bool",
                                                "value": true
                                            },
                                            {
                                                "name": "value",
                                                "type": "uint128",
                                                "value": "1,322,073,288,061,664,557,990"
                                            }
                                        ]
                                    }
                                ]
                            },
                            {
                                "name": "makerInputUpdate",
                                "type": "((bool,uint256),(bool,uint128))",
                                "value": [
                                    {
                                        "name": "deltaWei",
                                        "type": "(bool,uint256)",
                                        "value": [
                                            {
                                                "name": "sign",
                                                "type": "bool",
                                                "value": true
                                            },
                                            {
                                                "name": "value",
                                                "type": "uint256",
                                                "value": "600,000,000,000,000,000"
                                            }
                                        ]
                                    },
                                    {
                                        "name": "newPar",
                                        "type": "(bool,uint128)",
                                        "value": [
                                            {
                                                "name": "sign",
                                                "type": "bool",
                                                "value": true
                                            },
                                            {
                                                "name": "value",
                                                "type": "uint128",
                                                "value": "1,099,283,577,014,978,798"
                                            }
                                        ]
                                    }
                                ]
                            },
                            {
                                "name": "makerOutputUpdate",
                                "type": "((bool,uint256),(bool,uint128))",
                                "value": [
                                    {
                                        "name": "deltaWei",
                                        "type": "(bool,uint256)",
                                        "value": [
                                            {
                                                "name": "sign",
                                                "type": "bool",
                                                "value": false
                                            },
                                            {
                                                "name": "value",
                                                "type": "uint256",
                                                "value": "139,712,765,947,398,000,000"
                                            }
                                        ]
                                    },
                                    {
                                        "name": "newPar",
                                        "type": "(bool,uint128)",
                                        "value": [
                                            {
                                                "name": "sign",
                                                "type": "bool",
                                                "value": false
                                            },
                                            {
                                                "name": "value",
                                                "type": "uint128",
                                                "value": "198,141,339,410,730,647,297"
                                            }
                                        ]
                                    }
                                ]
                            },
                            {
                                "name": "autoTrader",
                                "type": "address",
                                "value": "0xdef136d9884528e1eb302f39457af0e4d3ad24eb"
                            }
                        ],
                        "signature": "LogTrade(address,uint256,address,uint256,uint256,uint256,((bool,uint256),(bool,uint128)),((bool,uint256),(bool,uint128)),((bool,uint256),(bool,uint128)),((bool,uint256),(bool,uint128)),address)"
                    },
                    "id": 13,
                    "logData": "0x000000000000000000000000000000000000000000000000000000000000000000000000000000000000000000000000000000000000000000000000000000000000000000000000000000000000000000000000000000000000000000000000000000000000000000000000000000000000000000000000000000000000000300000000000000000000000000000000000000000000000000000000000000000000000000000000000000000000000000000000000000000853a0d2313c0000000000000000000000000000000000000000000000000000000000000000000100000000000000000000000000000000000000000000000003f026fb8951fa10000000000000000000000000000000000000000000000000000000000000000100000000000000000000000000000000000000000000000792e7746631f30d800000000000000000000000000000000000000000000000000000000000000001000000000000000000000000000000000000000000000047ab73dad8fc32fba600000000000000000000000000000000000000000000000000000000000000010000000000000000000000000000000000000000000000000853a0d2313c000000000000000000000000000000000000000000000000000000000000000000010000000000000000000000000000000000000000000000000f417096cb6608ee000000000000000000000000000000000000000000000000000000000000000000000000000000000000000000000000000000000000000792e7746631f30d80000000000000000000000000000000000000000000000000000000000000000000000000000000000000000000000000000000000000000abdc3726570b4ff01000000000000000000000000def136d9884528e1eb302f39457af0e4d3ad24eb",
                    "logDecoded": true,
                    "operation": "EVENT",
                    "revert": false,
                    "status": true,
                    "topics": [
                        "0x54d4cc60cf7d570631cc1a58942812cb0fc461713613400f56932040c3497d19",
                        "0x000000000000000000000000f809e07870dca762b9536d61a4fbef1a17178092",
                        "0x000000000000000000000000832c527b13b39da42282ed78bd2d23b01ce3fbb7"
                    ]
                },
                "nodeType": 1
            },
            "14": {
                "invocation": {
                    "address": "0xdef136d9884528e1eb302f39457af0e4d3ad24eb",
                    "callData": "0x00000000000000000000000000000000000000000000000000000000000000000000000000000000000000000000000000000000000000000000000000000003000000000000000000000000862821badb9c5800654015ba9a2d9d7894c83a7a0000000000000000000000000000000000000000000000000000000000000000000000000000000000000000f809e07870dca762b9536d61a4fbef1a171780920000000000000000000000000000000000000000000000000000000000000000000000000000000000000000000000000000000000000000000000000000000000000000000000000000000000000000000000000000002cabd9c99011606ec3000000000000000000000000000000000000000000000000000000000000000000000000000000000000000000000000000000000000002cb41ed067d36a5ba100000000000000000000000000000000000000000000000000000000000000000000000000000000000000000000000000000000000000000853a0d2313c000000000000000000000000000000000000000000000000000000000000000001a0000000000000000000000000000000000000000000000000000000000000018200000000000000000000000000000000000000000000000000000000000000000000000000000000000000000000000000000000000000000000000000000003000000000000000000000000000000000000000000000000efcd78a614d6f8000000000000000000000000000000000000000000000000d8d582d0180b300000000000000000000000000000862821badb9c5800654015ba9a2d9d7894c83a7a0000000000000000000000000000000000000000000000000000000000000000000000000000000000000000f809e07870dca762b9536d61a4fbef1a171780920000000000000000000000000000000000000000000000000000000000000000000000000000000000000000000000000000000000000000000000005e5d66447ea3a159a5f7fa86ae010293abba66abc79e60a1abdaf980a984b48be1f9561f9b0492277992f4b88d98ac44095f328b465ab76b9c72ce640614ef7674d35e72343d12d703d5708351985d2a630e31036b2a50909fcf31c819cbe2abe509e82e1b01000000000000000000000000000000000000000000000000000000000000",
                    "decodedMethod": {
                        "callParams": [
                            {
                                "name": "inputMarketId",
                                "type": "uint256",
                                "value": "0"
                            },
                            {
                                "name": "outputMarketId",
                                "type": "uint256",
                                "value": "3"
                            },
                            {
                                "name": "makerAccount",
                                "type": "(address,uint256)",
                                "value": [
                                    {
                                        "name": "owner",
                                        "type": "address",
                                        "value": "0x862821badb9c5800654015ba9a2d9d7894c83a7a"
                                    },
                                    {
                                        "name": "number",
                                        "type": "uint256",
                                        "value": "0"
                                    }
                                ]
                            },
                            {
                                "name": "takerAccount",
                                "type": "(address,uint256)",
                                "value": [
                                    {
                                        "name": "owner",
                                        "type": "address",
                                        "value": "0xf809e07870dca762b9536d61a4fbef1a17178092"
                                    },
                                    {
                                        "name": "number",
                                        "type": "uint256",
                                        "value": "0"
                                    }
                                ]
                            },
                            {
                                "name": "",
                                "type": "(bool,uint128)",
                                "value": [
                                    {
                                        "name": "sign",
                                        "type": "bool",
                                        "value": false
                                    },
                                    {
                                        "name": "value",
                                        "type": "uint128",
                                        "value": "824,039,889,514,256,166,595"
                                    }
                                ]
                            },
                            {
                                "name": "",
                                "type": "(bool,uint128)",
                                "value": [
                                    {
                                        "name": "sign",
                                        "type": "bool",
                                        "value": false
                                    },
                                    {
                                        "name": "value",
                                        "type": "uint128",
                                        "value": "824,635,779,563,695,791,009"
                                    }
                                ]
                            },
                            {
                                "name": "inputWei",
                                "type": "(bool,uint256)",
                                "value": [
                                    {
                                        "name": "sign",
                                        "type": "bool",
                                        "value": false
                                    },
                                    {
                                        "name": "value",
                                        "type": "uint256",
                                        "value": "600,000,000,000,000,000"
                                    }
                                ]
                            },
                            {
                                "name": "data",
                                "type": "bytes",
                                "value": "0x00000000000000000000000000000000000000000000000000000000000000000000000000000000000000000000000000000000000000000000000000000003000000000000000000000000000000000000000000000000efcd78a614d6f8000000000000000000000000000000000000000000000000d8d582d0180b300000000000000000000000000000862821badb9c5800654015ba9a2d9d7894c83a7a0000000000000000000000000000000000000000000000000000000000000000000000000000000000000000f809e07870dca762b9536d61a4fbef1a171780920000000000000000000000000000000000000000000000000000000000000000000000000000000000000000000000000000000000000000000000005e5d66447ea3a159a5f7fa86ae010293abba66abc79e60a1abdaf980a984b48be1f9561f9b0492277992f4b88d98ac44095f328b465ab76b9c72ce640614ef7674d35e72343d12d703d5708351985d2a630e31036b2a50909fcf31c819cbe2abe509e82e1b01"
                            }
                        ],
                        "constructorArguments": "",
                        "name": "getTradeCost",
                        "returnParams": [
                            {
                                "name": "",
                                "type": "(bool,uint8,uint8,uint256)",
                                "value": [
                                    {
                                        "name": "sign",
                                        "type": "bool",
                                        "value": true
                                    },
                                    {
                                        "name": "denomination",
                                        "type": "uint8",
                                        "value": "0"
                                    },
                                    {
                                        "name": "ref",
                                        "type": "uint8",
                                        "value": "0"
                                    },
                                    {
                                        "name": "value",
                                        "type": "uint256",
                                        "value": "138,888,000,000,000,005,084"
                                    }
                                ]
                            }
                        ],
                        "signature": "getTradeCost(uint256,uint256,(address,uint256),(address,uint256),(bool,uint128),(bool,uint128),(bool,uint256),bytes)"
                    },
                    "errorInfo": "",
                    "fromAddress": "0x1e0447b19bb6ecfdae1e4ae1694b0c3659614e4e",
                    "gasUsed": 44455,
                    "id": 14,
                    "methodDecoded": true,
                    "operation": "CALL",
                    "output": "0x00000000000000000000000000000000000000000000000000000000000000010000000000000000000000000000000000000000000000000000000000000000000000000000000000000000000000000000000000000000000000000000000000000000000000000000000000000000000000000000000787754c23cc7413dc",
                    "revert": false,
                    "revertMessage": "",
                    "selector": "0x448f7065",
                    "status": true,
                    "value": "0"
                },
                "nodeType": 0
            },
            "15": {
                "invocation": {
                    "address": "0x0000000000000000000000000000000000000001",
                    "callData": "0x4ece9caef23f251c42b1242ff708802f4704dda37d4ac14a3927cce3000000000000000000000000000000000000000000000000000000000000001b9b0492277992f4b88d98ac44095f328b465ab76b9c72ce640614ef7674d35e72343d12d703d5708351985d2a630e31036b2a50909fcf31c819cbe2abe509e82e",
                    "decodedMethod": {
                        "callParams": [
                            {
                                "name": "hash",
                                "type": "bytes32",
                                "value": "0x718ee56b4ece9caef23f251c42b1242ff708802f4704dda37d4ac14a3927cce3"
                            },
                            {
                                "name": "v",
                                "type": "uint256",
                                "value": "27"
                            },
                            {
                                "name": "r",
                                "type": "bytes32",
                                "value": "0x9b0492277992f4b88d98ac44095f328b465ab76b9c72ce640614ef7674d35e72"
                            },
                            {
                                "name": "s",
                                "type": "bytes32",
                                "value": "0x343d12d703d5708351985d2a630e31036b2a50909fcf31c819cbe2abe509e82e"
                            }
                        ],
                        "constructorArguments": "",
                        "name": "ecrecover",
                        "returnParams": [
                            {
                                "name": "",
                                "type": "address",
                                "value": "0x862821badb9c5800654015ba9a2d9d7894c83a7a"
                            }
                        ],
                        "signature": "ecrecover(bytes32,uint256,bytes32,bytes32)"
                    },
                    "errorInfo": "",
                    "fromAddress": "0xdef136d9884528e1eb302f39457af0e4d3ad24eb",
                    "gasUsed": 3000,
                    "id": 15,
                    "methodDecoded": true,
                    "operation": "STATICCALL",
                    "output": "0x000000000000000000000000862821badb9c5800654015ba9a2d9d7894c83a7a",
                    "revert": false,
                    "revertMessage": "",
                    "selector": "0x718ee56b",
                    "status": true,
                    "value": "0"
                },
                "nodeType": 0
            },
            "16": {
                "event": {
                    "contract": "0xdef136d9884528e1eb302f39457af0e4d3ad24eb",
                    "decodedLog": {
                        "name": "LogLimitOrderFilled",
                        "params": [
                            {
                                "name": "orderHash",
                                "type": "bytes32",
                                "value": "0xd1225ee3255afdb42167dd452e363b5e15bc0c38058eb1521ab4ccfe6208cf3a"
                            },
                            {
                                "name": "orderMaker",
                                "type": "address",
                                "value": "0x862821badb9c5800654015ba9a2d9d7894c83a7a"
                            },
                            {
                                "name": "makerFillAmount",
                                "type": "uint256",
                                "value": "600,000,000,000,000,000"
                            },
                            {
                                "name": "totalMakerFilledAmount",
                                "type": "uint256",
                                "value": "600,000,000,000,000,000"
                            }
                        ],
                        "signature": "LogLimitOrderFilled(bytes32,address,uint256,uint256)"
                    },
                    "id": 16,
                    "logData": "0x0000000000000000000000000000000000000000000000000853a0d2313c00000000000000000000000000000000000000000000000000000853a0d2313c0000",
                    "logDecoded": true,
                    "operation": "EVENT",
                    "revert": false,
                    "status": true,
                    "topics": [
                        "0x2cbb56af08fd37f0baa3ff1f051a9cb543c5c2d15156205bc6b501e51a4e3f71",
                        "0xd1225ee3255afdb42167dd452e363b5e15bc0c38058eb1521ab4ccfe6208cf3a",
                        "0x000000000000000000000000862821badb9c5800654015ba9a2d9d7894c83a7a"
                    ]
                },
                "nodeType": 1
            },
            "17": {
                "event": {
                    "contract": "0x1e0447b19bb6ecfdae1e4ae1694b0c3659614e4e",
                    "decodedLog": {
                        "name": "LogTrade",
                        "params": [
                            {
                                "name": "takerAccountOwner",
                                "type": "address",
                                "value": "0xf809e07870dca762b9536d61a4fbef1a17178092"
                            },
                            {
                                "name": "makerAccountOwner",
                                "type": "address",
                                "value": "0x862821badb9c5800654015ba9a2d9d7894c83a7a"
                            },
                            {
                                "name": "takerAccountNumber",
                                "type": "uint256",
                                "value": "0"
                            },
                            {
                                "name": "makerAccountNumber",
                                "type": "uint256",
                                "value": "0"
                            },
                            {
                                "name": "inputMarket",
                                "type": "uint256",
                                "value": "0"
                            },
                            {
                                "name": "outputMarket",
                                "type": "uint256",
                                "value": "3"
                            },
                            {
                                "name": "takerInputUpdate",
                                "type": "((bool,uint256),(bool,uint128))",
                                "value": [
                                    {
                                        "name": "deltaWei",
                                        "type": "(bool,uint256)",
                                        "value": [
                                            {
                                                "name": "sign",
                                                "type": "bool",
                                                "value": true
                                            },
                                            {
                                                "name": "value",
                                                "type": "uint256",
                                                "value": "600,000,000,000,000,000"
                                            }
                                        ]
                                    },
                                    {
                                        "name": "newPar",
                                        "type": "(bool,uint128)",
                                        "value": [
                                            {
                                                "name": "sign",
                                                "type": "bool",
                                                "value": true
                                            },
                                            {
                                                "name": "value",
                                                "type": "uint128",
                                                "value": "883,283,261,066,916,406"
                                            }
                                        ]
                                    }
                                ]
                            },
                            {
                                "name": "takerOutputUpdate",
                                "type": "((bool,uint256),(bool,uint128))",
                                "value": [
                                    {
                                        "name": "deltaWei",
                                        "type": "(bool,uint256)",
                                        "value": [
                                            {
                                                "name": "sign",
                                                "type": "bool",
                                                "value": false
                                            },
                                            {
                                                "name": "value",
                                                "type": "uint256",
                                                "value": "138,888,000,000,000,005,084"
                                            }
                                        ]
                                    },
                                    {
                                        "name": "newPar",
                                        "type": "(bool,uint128)",
                                        "value": [
                                            {
                                                "name": "sign",
                                                "type": "bool",
                                                "value": true
                                            },
                                            {
                                                "name": "value",
                                                "type": "uint128",
                                                "value": "1,184,920,995,438,984,283,922"
                                            }
                                        ]
                                    }
                                ]
                            },
                            {
                                "name": "makerInputUpdate",
                                "type": "((bool,uint256),(bool,uint128))",
                                "value": [
                                    {
                                        "name": "deltaWei",
                                        "type": "(bool,uint256)",
                                        "value": [
                                            {
                                                "name": "sign",
                                                "type": "bool",
                                                "value": false
                                            },
                                            {
                                                "name": "value",
                                                "type": "uint256",
                                                "value": "600,000,000,000,000,000"
                                            }
                                        ]
                                    },
                                    {
                                        "name": "newPar",
                                        "type": "(bool,uint128)",
                                        "value": [
                                            {
                                                "name": "sign",
                                                "type": "bool",
                                                "value": false
                                            },
                                            {
                                                "name": "value",
                                                "type": "uint128",
                                                "value": "824,635,779,563,695,791,009"
                                            }
                                        ]
                                    }
                                ]
                            },
                            {
                                "name": "makerOutputUpdate",
                                "type": "((bool,uint256),(bool,uint128))",
                                "value": [
                                    {
                                        "name": "deltaWei",
                                        "type": "(bool,uint256)",
                                        "value": [
                                            {
                                                "name": "sign",
                                                "type": "bool",
                                                "value": true
                                            },
                                            {
                                                "name": "value",
                                                "type": "uint256",
                                                "value": "138,888,000,000,000,005,084"
                                            }
                                        ]
                                    },
                                    {
                                        "name": "newPar",
                                        "type": "(bool,uint128)",
                                        "value": [
                                            {
                                                "name": "sign",
                                                "type": "bool",
                                                "value": true
                                            },
                                            {
                                                "name": "value",
                                                "type": "uint128",
                                                "value": "11,849,969,324,737,224,366,686"
                                            }
                                        ]
                                    }
                                ]
                            },
                            {
                                "name": "autoTrader",
                                "type": "address",
                                "value": "0xdef136d9884528e1eb302f39457af0e4d3ad24eb"
                            }
                        ],
                        "signature": "LogTrade(address,uint256,address,uint256,uint256,uint256,((bool,uint256),(bool,uint128)),((bool,uint256),(bool,uint128)),((bool,uint256),(bool,uint128)),((bool,uint256),(bool,uint128)),address)"
                    },
                    "id": 17,
                    "logData": "0x000000000000000000000000000000000000000000000000000000000000000000000000000000000000000000000000000000000000000000000000000000000000000000000000000000000000000000000000000000000000000000000000000000000000000000000000000000000000000000000000000000000000000300000000000000000000000000000000000000000000000000000000000000010000000000000000000000000000000000000000000000000853a0d2313c000000000000000000000000000000000000000000000000000000000000000000010000000000000000000000000000000000000000000000000c420d7233f13236000000000000000000000000000000000000000000000000000000000000000000000000000000000000000000000000000000000000000787754c23cc7413dc00000000000000000000000000000000000000000000000000000000000000010000000000000000000000000000000000000000000000403c15075f0ae9c71200000000000000000000000000000000000000000000000000000000000000000000000000000000000000000000000000000000000000000853a0d2313c0000000000000000000000000000000000000000000000000000000000000000000000000000000000000000000000000000000000000000002cb41ed067d36a5ba1000000000000000000000000000000000000000000000000000000000000000100000000000000000000000000000000000000000000000787754c23cc7413dc0000000000000000000000000000000000000000000000000000000000000001000000000000000000000000000000000000000000000282635c1d052dc5da5e000000000000000000000000def136d9884528e1eb302f39457af0e4d3ad24eb",
                    "logDecoded": true,
                    "operation": "EVENT",
                    "revert": false,
                    "status": true,
                    "topics": [
                        "0x54d4cc60cf7d570631cc1a58942812cb0fc461713613400f56932040c3497d19",
                        "0x000000000000000000000000f809e07870dca762b9536d61a4fbef1a17178092",
                        "0x000000000000000000000000862821badb9c5800654015ba9a2d9d7894c83a7a"
                    ]
                },
                "nodeType": 1
            },
            "18": {
                "invocation": {
                    "address": "0x7454df5d0758d4e7a538c3acf4841fa9137f0f74",
                    "callData": "0x00000000000000000000000000000000000000000000000000000000000000030000000000000000000000000000000000000000000000000000000000000000000000000000000000000000832c527b13b39da42282ed78bd2d23b01ce3fbb70000000000000000000000000000000000000000000000000000000000000000000000000000000000000000f809e07870dca762b9536d61a4fbef1a171780920000000000000000000000000000000000000000000000000000000000000000000000000000000000000000000000000000000000000000000000000000000000000000000000000000000000000000000000000000000abdc3726570b4ff01000000000000000000000000000000000000000000000000000000000000000000000000000000000000000000000000000000000000000ab27d7ced44bc2ebf00000000000000000000000000000000000000000000000000000000000000010000000000000000000000000000000000000000000000000b722842657ef9a500000000000000000000000000000000000000000000000000000000000001a00000000000000000000000000000000000000000000000000000000000000000",
                    "decodedMethod": {
                        "callParams": [
                            {
                                "name": "inputMarketId",
                                "type": "uint256",
                                "value": "3"
                            },
                            {
                                "name": "",
                                "type": "uint256",
                                "value": "0"
                            },
                            {
                                "name": "makerAccount",
                                "type": "(address,uint256)",
                                "value": [
                                    {
                                        "name": "owner",
                                        "type": "address",
                                        "value": "0x832c527b13b39da42282ed78bd2d23b01ce3fbb7"
                                    },
                                    {
                                        "name": "number",
                                        "type": "uint256",
                                        "value": "0"
                                    }
                                ]
                            },
                            {
                                "name": "takerAccount",
                                "type": "(address,uint256)",
                                "value": [
                                    {
                                        "name": "owner",
                                        "type": "address",
                                        "value": "0xf809e07870dca762b9536d61a4fbef1a17178092"
                                    },
                                    {
                                        "name": "number",
                                        "type": "uint256",
                                        "value": "0"
                                    }
                                ]
                            },
                            {
                                "name": "",
                                "type": "(bool,uint128)",
                                "value": [
                                    {
                                        "name": "sign",
                                        "type": "bool",
                                        "value": false
                                    },
                                    {
                                        "name": "value",
                                        "type": "uint128",
                                        "value": "198,141,339,410,730,647,297"
                                    }
                                ]
                            },
                            {
                                "name": "",
                                "type": "(bool,uint128)",
                                "value": [
                                    {
                                        "name": "sign",
                                        "type": "bool",
                                        "value": false
                                    },
                                    {
                                        "name": "value",
                                        "type": "uint128",
                                        "value": "197,329,014,206,437,797,567"
                                    }
                                ]
                            },
                            {
                                "name": "inputWei",
                                "type": "(bool,uint256)",
                                "value": [
                                    {
                                        "name": "sign",
                                        "type": "bool",
                                        "value": true
                                    },
                                    {
                                        "name": "value",
                                        "type": "uint256",
                                        "value": "824,765,947,397,994,917"
                                    }
                                ]
                            },
                            {
                                "name": "",
                                "type": "bytes",
                                "value": "0x"
                            }
                        ],
                        "constructorArguments": "",
                        "name": "getTradeCost",
                        "returnParams": [
                            {
                                "name": "",
                                "type": "(bool,uint8,uint8,uint256)",
                                "value": [
                                    {
                                        "name": "sign",
                                        "type": "bool",
                                        "value": false
                                    },
                                    {
                                        "name": "denomination",
                                        "type": "uint8",
                                        "value": "1"
                                    },
                                    {
                                        "name": "ref",
                                        "type": "uint8",
                                        "value": "0"
                                    },
                                    {
                                        "name": "value",
                                        "type": "uint256",
                                        "value": "0"
                                    }
                                ]
                            }
                        ],
                        "signature": "getTradeCost(uint256,uint256,(address,uint256),(address,uint256),(bool,uint128),(bool,uint128),(bool,uint256),bytes)"
                    },
                    "errorInfo": "",
                    "fromAddress": "0x1e0447b19bb6ecfdae1e4ae1694b0c3659614e4e",
                    "gasUsed": 8152,
                    "id": 18,
                    "methodDecoded": true,
                    "operation": "CALL",
                    "output": "0x0000000000000000000000000000000000000000000000000000000000000000000000000000000000000000000000000000000000000000000000000000000100000000000000000000000000000000000000000000000000000000000000000000000000000000000000000000000000000000000000000000000000000000",
                    "revert": false,
                    "revertMessage": "",
                    "selector": "0x448f7065",
                    "status": true,
                    "value": "0"
                },
                "nodeType": 0
            },
            "19": {
                "event": {
                    "contract": "0x7454df5d0758d4e7a538c3acf4841fa9137f0f74",
                    "decodedLog": {
                        "name": "LogRefund",
                        "params": [
                            {
                                "name": "account",
                                "type": "(address,uint256)",
                                "value": [
                                    {
                                        "name": "owner",
                                        "type": "address",
                                        "value": "0x832c527b13b39da42282ed78bd2d23b01ce3fbb7"
                                    },
                                    {
                                        "name": "number",
                                        "type": "uint256",
                                        "value": "0"
                                    }
                                ]
                            },
                            {
                                "name": "marketId",
                                "type": "uint256",
                                "value": "3"
                            },
                            {
                                "name": "amount",
                                "type": "uint256",
                                "value": "824,765,947,397,994,917"
                            }
                        ],
                        "signature": "LogRefund((address,uint256),uint256,uint256)"
                    },
                    "id": 19,
                    "logData": "0x000000000000000000000000832c527b13b39da42282ed78bd2d23b01ce3fbb7000000000000000000000000000000000000000000000000000000000000000000000000000000000000000000000000000000000000000000000000000000030000000000000000000000000000000000000000000000000b722842657ef9a5",
                    "logDecoded": true,
                    "operation": "EVENT",
                    "revert": false,
                    "status": true,
                    "topics": [
                        "0xa34b09fbf60d42b8025b595993bf96c1560173c63ed262633b58da0fcf05e7c9"
                    ]
                },
                "nodeType": 1
            },
            "2": {
                "event": {
                    "contract": "0x1e0447b19bb6ecfdae1e4ae1694b0c3659614e4e",
                    "decodedLog": {
                        "name": "LogOperation",
                        "params": [
                            {
                                "name": "sender",
                                "type": "address",
                                "value": "0xf809e07870dca762b9536d61a4fbef1a17178092"
                            }
                        ],
                        "signature": "LogOperation(address)"
                    },
                    "id": 2,
                    "logData": "0x000000000000000000000000f809e07870dca762b9536d61a4fbef1a17178092",
                    "logDecoded": true,
                    "operation": "EVENT",
                    "revert": false,
                    "status": true,
                    "topics": [
                        "0x91b01baeee3a24b590d112613814d86801005c7ef9353e7fc1eaeaf33ccf83b0"
                    ]
                },
                "nodeType": 1
            },
            "20": {
                "event": {
                    "contract": "0x1e0447b19bb6ecfdae1e4ae1694b0c3659614e4e",
                    "decodedLog": {
                        "name": "LogTrade",
                        "params": [
                            {
                                "name": "takerAccountOwner",
                                "type": "address",
                                "value": "0xf809e07870dca762b9536d61a4fbef1a17178092"
                            },
                            {
                                "name": "makerAccountOwner",
                                "type": "address",
                                "value": "0x832c527b13b39da42282ed78bd2d23b01ce3fbb7"
                            },
                            {
                                "name": "takerAccountNumber",
                                "type": "uint256",
                                "value": "0"
                            },
                            {
                                "name": "makerAccountNumber",
                                "type": "uint256",
                                "value": "0"
                            },
                            {
                                "name": "inputMarket",
                                "type": "uint256",
                                "value": "3"
                            },
                            {
                                "name": "outputMarket",
                                "type": "uint256",
                                "value": "0"
                            },
                            {
                                "name": "takerInputUpdate",
                                "type": "((bool,uint256),(bool,uint128))",
                                "value": [
                                    {
                                        "name": "deltaWei",
                                        "type": "(bool,uint256)",
                                        "value": [
                                            {
                                                "name": "sign",
                                                "type": "bool",
                                                "value": false
                                            },
                                            {
                                                "name": "value",
                                                "type": "uint256",
                                                "value": "824,765,947,397,994,917"
                                            }
                                        ]
                                    },
                                    {
                                        "name": "newPar",
                                        "type": "(bool,uint128)",
                                        "value": [
                                            {
                                                "name": "sign",
                                                "type": "bool",
                                                "value": true
                                            },
                                            {
                                                "name": "value",
                                                "type": "uint128",
                                                "value": "1,184,106,536,734,396,760,729"
                                            }
                                        ]
                                    }
                                ]
                            },
                            {
                                "name": "takerOutputUpdate",
                                "type": "((bool,uint256),(bool,uint128))",
                                "value": [
                                    {
                                        "name": "deltaWei",
                                        "type": "(bool,uint256)",
                                        "value": [
                                            {
                                                "name": "sign",
                                                "type": "bool",
                                                "value": true
                                            },
                                            {
                                                "name": "value",
                                                "type": "uint256",
                                                "value": "0"
                                            }
                                        ]
                                    },
                                    {
                                        "name": "newPar",
                                        "type": "(bool,uint128)",
                                        "value": [
                                            {
                                                "name": "sign",
                                                "type": "bool",
                                                "value": true
                                            },
                                            {
                                                "name": "value",
                                                "type": "uint128",
                                                "value": "883,283,261,066,916,406"
                                            }
                                        ]
                                    }
                                ]
                            },
                            {
                                "name": "makerInputUpdate",
                                "type": "((bool,uint256),(bool,uint128))",
                                "value": [
                                    {
                                        "name": "deltaWei",
                                        "type": "(bool,uint256)",
                                        "value": [
                                            {
                                                "name": "sign",
                                                "type": "bool",
                                                "value": true
                                            },
                                            {
                                                "name": "value",
                                                "type": "uint256",
                                                "value": "824,765,947,397,994,917"
                                            }
                                        ]
                                    },
                                    {
                                        "name": "newPar",
                                        "type": "(bool,uint128)",
                                        "value": [
                                            {
                                                "name": "sign",
                                                "type": "bool",
                                                "value": false
                                            },
                                            {
                                                "name": "value",
                                                "type": "uint128",
                                                "value": "197,329,014,206,437,797,567"
                                            }
                                        ]
                                    }
                                ]
                            },
                            {
                                "name": "makerOutputUpdate",
                                "type": "((bool,uint256),(bool,uint128))",
                                "value": [
                                    {
                                        "name": "deltaWei",
                                        "type": "(bool,uint256)",
                                        "value": [
                                            {
                                                "name": "sign",
                                                "type": "bool",
                                                "value": false
                                            },
                                            {
                                                "name": "value",
                                                "type": "uint256",
                                                "value": "0"
                                            }
                                        ]
                                    },
                                    {
                                        "name": "newPar",
                                        "type": "(bool,uint128)",
                                        "value": [
                                            {
                                                "name": "sign",
                                                "type": "bool",
                                                "value": true
                                            },
                                            {
                                                "name": "value",
                                                "type": "uint128",
                                                "value": "1,099,283,577,014,978,798"
                                            }
                                        ]
                                    }
                                ]
                            },
                            {
                                "name": "autoTrader",
                                "type": "address",
                                "value": "0x7454df5d0758d4e7a538c3acf4841fa9137f0f74"
                            }
                        ],
                        "signature": "LogTrade(address,uint256,address,uint256,uint256,uint256,((bool,uint256),(bool,uint128)),((bool,uint256),(bool,uint128)),((bool,uint256),(bool,uint128)),((bool,uint256),(bool,uint128)),address)"
                    },
                    "id": 20,
                    "logData": "0x000000000000000000000000000000000000000000000000000000000000000000000000000000000000000000000000000000000000000000000000000000000000000000000000000000000000000000000000000000000000000000000003000000000000000000000000000000000000000000000000000000000000000000000000000000000000000000000000000000000000000000000000000000000000000000000000000000000000000000000000000000000b722842657ef9a5000000000000000000000000000000000000000000000000000000000000000100000000000000000000000000000000000000000000004030c77d7e9fbfc2990000000000000000000000000000000000000000000000000000000000000001000000000000000000000000000000000000000000000000000000000000000000000000000000000000000000000000000000000000000000000000000000010000000000000000000000000000000000000000000000000c420d7233f1323600000000000000000000000000000000000000000000000000000000000000010000000000000000000000000000000000000000000000000b722842657ef9a5000000000000000000000000000000000000000000000000000000000000000000000000000000000000000000000000000000000000000ab27d7ced44bc2ebf0000000000000000000000000000000000000000000000000000000000000000000000000000000000000000000000000000000000000000000000000000000000000000000000000000000000000000000000000000000000000000000000010000000000000000000000000000000000000000000000000f417096cb6608ee0000000000000000000000007454df5d0758d4e7a538c3acf4841fa9137f0f74",
                    "logDecoded": true,
                    "operation": "EVENT",
                    "revert": false,
                    "status": true,
                    "topics": [
                        "0x54d4cc60cf7d570631cc1a58942812cb0fc461713613400f56932040c3497d19",
                        "0x000000000000000000000000f809e07870dca762b9536d61a4fbef1a17178092",
                        "0x000000000000000000000000832c527b13b39da42282ed78bd2d23b01ce3fbb7"
                    ]
                },
                "nodeType": 1
            },
            "3": {
                "invocation": {
                    "address": "0xf61ae328463cd997c7b58e7045cdc613e1cfdb69",
                    "callData": "0x000000000000000000000000c02aaa39b223fe8d0a0e5c4f27ead9083c756cc2",
                    "decodedMethod": {
                        "callParams": [
                            {
                                "name": "",
                                "type": "address",
                                "value": "0xc02aaa39b223fe8d0a0e5c4f27ead9083c756cc2"
                            }
                        ],
                        "constructorArguments": "",
                        "name": "getPrice",
                        "returnParams": [
                            {
                                "name": "",
                                "type": "(uint256)",
                                "value": [
                                    {
                                        "name": "value",
                                        "type": "uint256",
                                        "value": "231,600,000,000,000,000,000"
                                    }
                                ]
                            }
                        ],
                        "signature": "getPrice(address)"
                    },
                    "errorInfo": "",
                    "fromAddress": "0x1e0447b19bb6ecfdae1e4ae1694b0c3659614e4e",
                    "gasUsed": 5478,
                    "id": 3,
                    "methodDecoded": true,
                    "operation": "STATICCALL",
                    "output": "0x00000000000000000000000000000000000000000000000c8e187cee3c780000",
                    "revert": false,
                    "revertMessage": "",
                    "selector": "0x41976e09",
                    "status": true,
                    "value": "0"
                },
                "nodeType": 0
            },
            "4": {
                "invocation": {
                    "address": "0x729d19f657bd0614b4985cf1d82531c67569197b",
                    "callData": "0x",
                    "decodedMethod": {
                        "callParams": [],
                        "constructorArguments": "",
                        "name": "peek",
                        "returnParams": [
                            {
                                "name": "",
                                "type": "bytes32",
                                "value": "0x00000000000000000000000000000000000000000000000c8e187cee3c780000"
                            },
                            {
                                "name": "",
                                "type": "bool",
                                "value": true
                            }
                        ],
                        "signature": "peek()"
                    },
                    "errorInfo": "",
                    "fromAddress": "0xf61ae328463cd997c7b58e7045cdc613e1cfdb69",
                    "gasUsed": 2145,
                    "id": 4,
                    "methodDecoded": true,
                    "operation": "STATICCALL",
                    "output": "0x00000000000000000000000000000000000000000000000c8e187cee3c7800000000000000000000000000000000000000000000000000000000000000000001",
                    "revert": false,
                    "revertMessage": "",
                    "selector": "0x59e02dd7",
                    "status": true,
                    "value": "0"
                },
                "nodeType": 0
            },
            "5": {
                "event": {
                    "contract": "0x1e0447b19bb6ecfdae1e4ae1694b0c3659614e4e",
                    "decodedLog": {
                        "name": "LogIndexUpdate",
                        "params": [
                            {
                                "name": "market",
                                "type": "uint256",
                                "value": "0"
                            },
                            {
                                "name": "index",
                                "type": "(uint96,uint96,uint32)",
                                "value": [
                                    {
                                        "name": "borrow",
                                        "type": "uint96",
                                        "value": "1,006,897,162,596,087,296"
                                    },
                                    {
                                        "name": "supply",
                                        "type": "uint96",
                                        "value": "1,000,811,286,385,259,163"
                                    },
                                    {
                                        "name": "lastUpdate",
                                        "type": "uint32",
                                        "value": "1,583,178,130"
                                    }
                                ]
                            }
                        ],
                        "signature": "LogIndexUpdate(uint256,(uint96,uint96,uint32))"
                    },
                    "id": 5,
                    "logData": "0x0000000000000000000000000000000000000000000000000df937a275e376000000000000000000000000000000000000000000000000000de3988ffc31f29b000000000000000000000000000000000000000000000000000000005e5d6192",
                    "logDecoded": true,
                    "operation": "EVENT",
                    "revert": false,
                    "status": true,
                    "topics": [
                        "0xf4626fd1187f91e6761ffb8a6ac3e8d9235a4a92da54e43feb0c57c4a4a322ab",
                        "0x0000000000000000000000000000000000000000000000000000000000000000"
                    ]
                },
                "nodeType": 1
            },
            "6": {
                "invocation": {
                    "address": "0xccfcf083335633c48e99872899586113a2bd08d8",
                    "callData": "0x0000000000000000000000006b175474e89094c44da98b954eedeac495271d0f",
                    "decodedMethod": {
                        "callParams": [
                            {
                                "name": "",
                                "type": "address",
                                "value": "0x6b175474e89094c44da98b954eedeac495271d0f"
                            }
                        ],
                        "constructorArguments": "",
                        "name": "getPrice",
                        "returnParams": [
                            {
                                "name": "",
                                "type": "(uint256)",
                                "value": [
                                    {
                                        "name": "value",
                                        "type": "uint256",
                                        "value": "1,000,223,831,350,937,441"
                                    }
                                ]
                            }
                        ],
                        "signature": "getPrice(address)"
                    },
                    "errorInfo": "",
                    "fromAddress": "0x1e0447b19bb6ecfdae1e4ae1694b0c3659614e4e",
                    "gasUsed": 1539,
                    "id": 6,
                    "methodDecoded": true,
                    "operation": "STATICCALL",
                    "output": "0x0000000000000000000000000000000000000000000000000de18246738d8761",
                    "revert": false,
                    "revertMessage": "",
                    "selector": "0x41976e09",
                    "status": true,
                    "value": "0"
                },
                "nodeType": 0
            },
            "7": {
                "event": {
                    "contract": "0x1e0447b19bb6ecfdae1e4ae1694b0c3659614e4e",
                    "decodedLog": {
                        "name": "LogIndexUpdate",
                        "params": [
                            {
                                "name": "market",
                                "type": "uint256",
                                "value": "3"
                            },
                            {
                                "name": "index",
                                "type": "(uint96,uint96,uint32)",
                                "value": [
                                    {
                                        "name": "borrow",
                                        "type": "uint96",
                                        "value": "1,015,314,978,581,730,918"
                                    },
                                    {
                                        "name": "supply",
                                        "type": "uint96",
                                        "value": "1,012,655,328,934,929,555"
                                    },
                                    {
                                        "name": "lastUpdate",
                                        "type": "uint32",
                                        "value": "1,583,178,130"
                                    }
                                ]
                            }
                        ],
                        "signature": "LogIndexUpdate(uint256,(uint96,uint96,uint32))"
                    },
                    "id": 7,
                    "logData": "0x0000000000000000000000000000000000000000000000000e171f97f97f56660000000000000000000000000000000000000000000000000e0daca80912a493000000000000000000000000000000000000000000000000000000005e5d6192",
                    "logDecoded": true,
                    "operation": "EVENT",
                    "revert": false,
                    "status": true,
                    "topics": [
                        "0xf4626fd1187f91e6761ffb8a6ac3e8d9235a4a92da54e43feb0c57c4a4a322ab",
                        "0x0000000000000000000000000000000000000000000000000000000000000003"
                    ]
                },
                "nodeType": 1
            },
            "8": {
                "invocation": {
                    "address": "0x52f1c952a48a4588f9ae615d38cfdbf8df036e60",
                    "callData": "0x000000000000000000000000a0b86991c6218b36c1d19d4a2e9eb0ce3606eb48",
                    "decodedMethod": {
                        "callParams": [
                            {
                                "name": "",
                                "type": "address",
                                "value": "0xa0b86991c6218b36c1d19d4a2e9eb0ce3606eb48"
                            }
                        ],
                        "constructorArguments": "",
                        "name": "getPrice",
                        "returnParams": [
                            {
                                "name": "",
                                "type": "(uint256)",
                                "value": [
                                    {
                                        "name": "value",
                                        "type": "uint256",
                                        "value": "1,000,000,000,000,000,000,000,000,000,000"
                                    }
                                ]
                            }
                        ],
                        "signature": "getPrice(address)"
                    },
                    "errorInfo": "",
                    "fromAddress": "0x1e0447b19bb6ecfdae1e4ae1694b0c3659614e4e",
                    "gasUsed": 630,
                    "id": 8,
                    "methodDecoded": true,
                    "operation": "STATICCALL",
                    "output": "0x000000000000000000000000000000000000000c9f2c9cd04674edea40000000",
                    "revert": false,
                    "revertMessage": "",
                    "selector": "0x41976e09",
                    "status": true,
                    "value": "0"
                },
                "nodeType": 0
            },
            "9": {
                "event": {
                    "contract": "0x1e0447b19bb6ecfdae1e4ae1694b0c3659614e4e",
                    "decodedLog": {
                        "name": "LogIndexUpdate",
                        "params": [
                            {
                                "name": "market",
                                "type": "uint256",
                                "value": "2"
                            },
                            {
                                "name": "index",
                                "type": "(uint96,uint96,uint32)",
                                "value": [
                                    {
                                        "name": "borrow",
                                        "type": "uint96",
                                        "value": "1,064,066,668,039,811,971"
                                    },
                                    {
                                        "name": "supply",
                                        "type": "uint96",
                                        "value": "1,038,748,233,106,886,863"
                                    },
                                    {
                                        "name": "lastUpdate",
                                        "type": "uint32",
                                        "value": "1,583,178,130"
                                    }
                                ]
                            }
                        ],
                        "signature": "LogIndexUpdate(uint256,(uint96,uint96,uint32))"
                    },
                    "id": 9,
                    "logData": "0x0000000000000000000000000000000000000000000000000ec452ff35d8b3830000000000000000000000000000000000000000000000000e6a6003b56690cf000000000000000000000000000000000000000000000000000000005e5d6192",
                    "logDecoded": true,
                    "operation": "EVENT",
                    "revert": false,
                    "status": true,
                    "topics": [
                        "0xf4626fd1187f91e6761ffb8a6ac3e8d9235a4a92da54e43feb0c57c4a4a322ab",
                        "0x0000000000000000000000000000000000000000000000000000000000000002"
                    ]
                },
                "nodeType": 1
            }
        },
        "gasFlame": [
            {
                "children": [
                    {
                        "children": [
                            {
                                "children": [],
                                "depth": 0,
                                "name": "Initial Gas",
                                "value": 36472
                            },
                            {
                                "children": [
                                    {
                                        "children": [
                                            {
                                                "children": [
                                                    {
                                                        "children": [],
                                                        "depth": 3,
                                                        "name": "peek",
                                                        "value": 2145
                                                    }
                                                ],
                                                "depth": 2,
                                                "name": "getPrice",
                                                "value": 5478
                                            },
                                            {
                                                "children": [],
                                                "depth": 2,
                                                "name": "getPrice",
                                                "value": 1539
                                            },
                                            {
                                                "children": [],
                                                "depth": 2,
                                                "name": "getPrice",
                                                "value": 630
                                            },
                                            {
                                                "children": [
                                                    {
                                                        "children": [],
                                                        "depth": 3,
                                                        "name": "ecrecover",
                                                        "value": 3000
                                                    }
                                                ],
                                                "depth": 2,
                                                "name": "getTradeCost",
                                                "value": 43483
                                            },
                                            {
                                                "children": [
                                                    {
                                                        "children": [],
                                                        "depth": 3,
                                                        "name": "ecrecover",
                                                        "value": 3000
                                                    }
                                                ],
                                                "depth": 2,
                                                "name": "getTradeCost",
                                                "value": 44455
                                            },
                                            {
                                                "children": [],
                                                "depth": 2,
                                                "name": "getTradeCost",
                                                "value": 8152
                                            }
                                        ],
                                        "depth": 1,
                                        "name": "operate",
                                        "value": 477849
                                    }
                                ],
                                "depth": 0,
                                "name": "Executed Gas",
                                "value": 504370
                            }
                        ],
                        "depth": -1,
                        "name": "Actual Gas Used",
                        "value": 540842
                    },
                    {
                        "children": [],
                        "depth": -1,
                        "name": "Refunded Gas",
                        "value": 0
                    }
                ],
                "depth": -2,
                "name": "Total Gas",
                "value": 540842
            }
        ],
        "isConfirmed": true,
        "mainTrace": [
            {
                "children": [
                    {
                        "children": [
                            {
                                "children": [
                                    {
                                        "children": [],
                                        "depth": 2,
                                        "id": 2,
                                        "order": 2
                                    },
                                    {
                                        "children": [
                                            {
                                                "children": [],
                                                "depth": 3,
                                                "id": 4,
                                                "order": 4
                                            }
                                        ],
                                        "depth": 2,
                                        "id": 3,
                                        "order": 3
                                    },
                                    {
                                        "children": [],
                                        "depth": 2,
                                        "id": 5,
                                        "order": 5
                                    },
                                    {
                                        "children": [],
                                        "depth": 2,
                                        "id": 6,
                                        "order": 6
                                    },
                                    {
                                        "children": [],
                                        "depth": 2,
                                        "id": 7,
                                        "order": 7
                                    },
                                    {
                                        "children": [],
                                        "depth": 2,
                                        "id": 8,
                                        "order": 8
                                    },
                                    {
                                        "children": [],
                                        "depth": 2,
                                        "id": 9,
                                        "order": 9
                                    },
                                    {
                                        "children": [
                                            {
                                                "children": [],
                                                "depth": 3,
                                                "id": 11,
                                                "order": 11
                                            },
                                            {
                                                "children": [],
                                                "depth": 3,
                                                "id": 12,
                                                "order": 12
                                            }
                                        ],
                                        "depth": 2,
                                        "id": 10,
                                        "order": 10
                                    },
                                    {
                                        "children": [],
                                        "depth": 2,
                                        "id": 13,
                                        "order": 13
                                    },
                                    {
                                        "children": [
                                            {
                                                "children": [],
                                                "depth": 3,
                                                "id": 15,
                                                "order": 15
                                            },
                                            {
                                                "children": [],
                                                "depth": 3,
                                                "id": 16,
                                                "order": 16
                                            }
                                        ],
                                        "depth": 2,
                                        "id": 14,
                                        "order": 14
                                    },
                                    {
                                        "children": [],
                                        "depth": 2,
                                        "id": 17,
                                        "order": 17
                                    },
                                    {
                                        "children": [
                                            {
                                                "children": [],
                                                "depth": 3,
                                                "id": 19,
                                                "order": 19
                                            }
                                        ],
                                        "depth": 2,
                                        "id": 18,
                                        "order": 18
                                    },
                                    {
                                        "children": [],
                                        "depth": 2,
                                        "id": 20,
                                        "order": 20
                                    }
                                ],
                                "depth": 1,
                                "id": 1,
                                "order": 1
                            }
                        ],
                        "depth": 0,
                        "id": 0,
                        "order": 0
                    }
                ],
                "depth": -1,
                "id": -1,
                "order": -1
            }
        ],
        "mainTraceNodeCount": 21,
        "parentIdMap": {
            "0": -1,
            "1": 0,
            "10": 1,
            "11": 10,
            "12": 10,
            "13": 1,
            "14": 1,
            "15": 14,
            "16": 14,
            "17": 1,
            "18": 1,
            "19": 18,
            "2": 1,
            "20": 1,
            "3": 1,
            "4": 3,
            "5": 1,
            "6": 1,
            "7": 1,
            "8": 1,
            "9": 1
        },
        "tidyTrace": [
            {
                "children": [
                    {
                        "children": [
                            {
                                "children": [
                                    {
                                        "children": [],
                                        "depth": 2,
                                        "id": 2,
                                        "order": 2
                                    },
                                    {
                                        "children": [],
                                        "depth": 2,
                                        "id": 5,
                                        "order": 5
                                    },
                                    {
                                        "children": [],
                                        "depth": 2,
                                        "id": 7,
                                        "order": 7
                                    },
                                    {
                                        "children": [],
                                        "depth": 2,
                                        "id": 9,
                                        "order": 9
                                    },
                                    {
                                        "children": [
                                            {
                                                "children": [],
                                                "depth": 3,
                                                "id": 12,
                                                "order": 12
                                            }
                                        ],
                                        "depth": 2,
                                        "id": 10,
                                        "order": 10
                                    },
                                    {
                                        "children": [],
                                        "depth": 2,
                                        "id": 13,
                                        "order": 13
                                    },
                                    {
                                        "children": [
                                            {
                                                "children": [],
                                                "depth": 3,
                                                "id": 16,
                                                "order": 16
                                            }
                                        ],
                                        "depth": 2,
                                        "id": 14,
                                        "order": 14
                                    },
                                    {
                                        "children": [],
                                        "depth": 2,
                                        "id": 17,
                                        "order": 17
                                    },
                                    {
                                        "children": [
                                            {
                                                "children": [],
                                                "depth": 3,
                                                "id": 19,
                                                "order": 19
                                            }
                                        ],
                                        "depth": 2,
                                        "id": 18,
                                        "order": 18
                                    },
                                    {
                                        "children": [],
                                        "depth": 2,
                                        "id": 20,
                                        "order": 20
                                    }
                                ],
                                "depth": 1,
                                "id": 1,
                                "order": 1
                            }
                        ],
                        "depth": 0,
                        "id": 0,
                        "order": 0
                    }
                ],
                "depth": -1,
                "id": -1,
                "order": -1
            }
        ],
        "tidyTraceNodeCount": 15
    },
    "state_change": {
        "stateChanges": [
            {
                "address": "0x1e0447b19bb6ecfdae1e4ae1694b0c3659614e4e",
                "erc": "",
                "slots": [
                    {
                        "current": "0x000000000000000000000000000000000000000000002cb41ed067d36a5ba100",
                        "key": "0x7ebc5401e7ec612d134f49d0989fcb0eb6e1e876f4041b5602610adb608b3a04",
                        "prev": "0x000000000000000000000000000000000000000000002cabd9c99011606ec300"
                    },
                    {
                        "current": "0x000000000000000000000000000000000000000000000000000000000002e4b7",
                        "key": "0x000000000000000000000000000000000000000000000000000000000000000c",
                        "prev": "0x000000000000000000000000000000000000000000000000000000000002e4b6"
                    },
                    {
                        "current": "0x000000000000000000000000000000000000000000004030c77d7e9fbfc29901",
                        "key": "0xd34af759af30867f75f706df9430e9d8801e0c7c2d55002a57836f360a3d5681",
                        "prev": "0x000000000000000000000000000000000000000000004030c77d7e9fbfc29d01"
                    },
                    {
                        "current": "0x0000000000058e5f715bdcfcf1261d3700000000000506f8a7c78735d87e1e7a",
                        "key": "0x7dfe757ecd65cbd7922a9c0161e935dd7fdbcc0e999689c7d31633896b1fc60c",
                        "prev": "0x0000000000058e5801fd0982ffdce8a900000000000506f13d651a39d6a3f19f"
                    },
                    {
                        "current": "0x000000000000000000000000000000000000000000000ab27d7ced44bc2ebf00",
                        "key": "0xce31df83bc9f2e68196ae1804ac6699f9883560aa1f098eff7eceee99448aad5",
                        "prev": "0x0000000000000000000000000000000000000000000003481b0ff142e201e400"
                    },
                    {
                        "current": "0x00000000000000000000000000000000000000000000000c420d7233f1323601",
                        "key": "0xac5b17e6538ac909584fedd747267d98e63b4ef249b7ef8d7265f2ef26f23a3f",
                        "prev": "0x00000000000000000000000000000000000000000000000c420d7233f1323801"
                    },
                    {
                        "current": "0x0000000000000000000000000000000000000000000282635c1d052dc5da5e01",
                        "key": "0x4dd908217ed5c33d0715365a353f55f03b5592fdc87178f5fc2388b4f1afbe39",
                        "prev": "0x000000000000000000000000000000000000000000027af3fd498b3c7ca5cc01"
                    },
                    {
                        "current": "0x000000000000155ffcb22cc67535cca600000000000001a25d6a912930371a4d",
                        "key": "0xa6eef7e35abe7026729641147f7915573c7e97b47efa546f5f6e3230263bcb4a",
                        "prev": "0x000000000000155ff460464fca96948100000000000001a255258a516e2d2d6f"
                    },
                    {
                        "current": "0x00000000000000000000000000000000000000000000000f417096cb6608ee01",
                        "key": "0xbc3d66dca3f1e92b1b52a0bca6bd436bc6d9790967db25ea97392218138502ff",
                        "prev": "0x000000000000000000000000000000000000000000000006ef8a2020c6d0c701"
                    }
                ],
                "storageVariables": [
                    {
                        "name": "g_state",
                        "type": "struct Storage.State",
                        "value": {
                            "fields": [
                                {
                                    "name": "markets",
                                    "type": "mapping(uint256 => struct Storage.Market)",
                                    "value": {
                                        "pairs": [
                                            {
                                                "key": "0",
                                                "value": {
                                                    "fields": [
                                                        {
                                                            "name": "totalPar",
                                                            "type": "struct Types.TotalPar",
                                                            "value": {
                                                                "fields": [
                                                                    {
                                                                        "name": "borrow",
                                                                        "type": "uint128",
                                                                        "value": {
                                                                            "current": "7717470375009739807309",
                                                                            "prev": "7716874484960300182895",
                                                                            "typeTag": 1
                                                                        }
                                                                    },
                                                                    {
                                                                        "name": "supply",
                                                                        "type": "uint128",
                                                                        "value": {
                                                                            "current": "100940345492739250834598",
                                                                            "prev": "100939745979116490757249",
                                                                            "typeTag": 1
                                                                        }
                                                                    }
                                                                ],
                                                                "typeTag": 3
                                                            }
                                                        }
                                                    ],
                                                    "typeTag": 3
                                                }
                                            },
                                            {
                                                "key": "3",
                                                "value": {
                                                    "fields": [
                                                        {
                                                            "name": "totalPar",
                                                            "type": "struct Types.TotalPar",
                                                            "value": {
                                                                "fields": [
                                                                    {
                                                                        "name": "borrow",
                                                                        "type": "uint128",
                                                                        "value": {
                                                                            "current": "6077550179281033748160122",
                                                                            "prev": "6077413386263172424659359",
                                                                            "typeTag": 1
                                                                        }
                                                                    },
                                                                    {
                                                                        "name": "supply",
                                                                        "type": "uint128",
                                                                        "value": {
                                                                            "current": "6716965747692966003481911",
                                                                            "prev": "6716828595400343323207849",
                                                                            "typeTag": 1
                                                                        }
                                                                    }
                                                                ],
                                                                "typeTag": 3
                                                            }
                                                        }
                                                    ],
                                                    "typeTag": 3
                                                }
                                            }
                                        ],
                                        "typeTag": 4
                                    }
                                },
                                {
                                    "name": "accounts",
                                    "type": "mapping(address => mapping(uint256 => struct Account.Storage))",
                                    "value": {
                                        "pairs": [
                                            {
                                                "key": "0x832c527b13b39da42282ed78bd2d23b01ce3fbb7",
                                                "value": {
                                                    "pairs": [
                                                        {
                                                            "key": "0",
                                                            "value": {
                                                                "fields": [
                                                                    {
                                                                        "name": "balances",
                                                                        "type": "mapping(uint256 => struct Types.Par)",
                                                                        "value": {
                                                                            "pairs": [
                                                                                {
                                                                                    "key": "0",
                                                                                    "value": {
                                                                                        "fields": [
                                                                                            {
                                                                                                "name": "sign",
                                                                                                "type": "bool",
                                                                                                "value": {
                                                                                                    "current": "true",
                                                                                                    "prev": "true",
                                                                                                    "typeTag": 1
                                                                                                }
                                                                                            },
                                                                                            {
                                                                                                "name": "value",
                                                                                                "type": "uint128",
                                                                                                "value": {
                                                                                                    "current": "1099283577014978798",
                                                                                                    "prev": "499769954254901447",
                                                                                                    "typeTag": 1
                                                                                                }
                                                                                            }
                                                                                        ],
                                                                                        "typeTag": 3
                                                                                    }
                                                                                },
                                                                                {
                                                                                    "key": "3",
                                                                                    "value": {
                                                                                        "fields": [
                                                                                            {
                                                                                                "name": "sign",
                                                                                                "type": "bool",
                                                                                                "value": {
                                                                                                    "current": "false",
                                                                                                    "prev": "false",
                                                                                                    "typeTag": 1
                                                                                                }
                                                                                            },
                                                                                            {
                                                                                                "name": "value",
                                                                                                "type": "uint128",
                                                                                                "value": {
                                                                                                    "current": "197329014206437797567",
                                                                                                    "prev": "60535996345114296804",
                                                                                                    "typeTag": 1
                                                                                                }
                                                                                            }
                                                                                        ],
                                                                                        "typeTag": 3
                                                                                    }
                                                                                }
                                                                            ],
                                                                            "typeTag": 4
                                                                        }
                                                                    }
                                                                ],
                                                                "typeTag": 3
                                                            }
                                                        }
                                                    ],
                                                    "typeTag": 4
                                                }
                                            },
                                            {
                                                "key": "0x862821badb9c5800654015ba9a2d9d7894c83a7a",
                                                "value": {
                                                    "pairs": [
                                                        {
                                                            "key": "0",
                                                            "value": {
                                                                "fields": [
                                                                    {
                                                                        "name": "balances",
                                                                        "type": "mapping(uint256 => struct Types.Par)",
                                                                        "value": {
                                                                            "pairs": [
                                                                                {
                                                                                    "key": "0",
                                                                                    "value": {
                                                                                        "fields": [
                                                                                            {
                                                                                                "name": "sign",
                                                                                                "type": "bool",
                                                                                                "value": {
                                                                                                    "current": "false",
                                                                                                    "prev": "false",
                                                                                                    "typeTag": 1
                                                                                                }
                                                                                            },
                                                                                            {
                                                                                                "name": "value",
                                                                                                "type": "uint128",
                                                                                                "value": {
                                                                                                    "current": "824635779563695791009",
                                                                                                    "prev": "824039889514256166595",
                                                                                                    "typeTag": 1
                                                                                                }
                                                                                            }
                                                                                        ],
                                                                                        "typeTag": 3
                                                                                    }
                                                                                },
                                                                                {
                                                                                    "key": "3",
                                                                                    "value": {
                                                                                        "fields": [
                                                                                            {
                                                                                                "name": "sign",
                                                                                                "type": "bool",
                                                                                                "value": {
                                                                                                    "current": "true",
                                                                                                    "prev": "true",
                                                                                                    "typeTag": 1
                                                                                                }
                                                                                            },
                                                                                            {
                                                                                                "name": "value",
                                                                                                "type": "uint128",
                                                                                                "value": {
                                                                                                    "current": "11849969324737224366686",
                                                                                                    "prev": "11712817032114544092620",
                                                                                                    "typeTag": 1
                                                                                                }
                                                                                            }
                                                                                        ],
                                                                                        "typeTag": 3
                                                                                    }
                                                                                }
                                                                            ],
                                                                            "typeTag": 4
                                                                        }
                                                                    }
                                                                ],
                                                                "typeTag": 3
                                                            }
                                                        }
                                                    ],
                                                    "typeTag": 4
                                                }
                                            },
                                            {
                                                "key": "0xf809e07870dca762b9536d61a4fbef1a17178092",
                                                "value": {
                                                    "pairs": [
                                                        {
                                                            "key": "0",
                                                            "value": {
                                                                "fields": [
                                                                    {
                                                                        "name": "balances",
                                                                        "type": "mapping(uint256 => struct Types.Par)",
                                                                        "value": {
                                                                            "pairs": [
                                                                                {
                                                                                    "key": "0",
                                                                                    "value": {
                                                                                        "fields": [
                                                                                            {
                                                                                                "name": "sign",
                                                                                                "type": "bool",
                                                                                                "value": {
                                                                                                    "current": "true",
                                                                                                    "prev": "true",
                                                                                                    "typeTag": 1
                                                                                                }
                                                                                            },
                                                                                            {
                                                                                                "name": "value",
                                                                                                "type": "uint128",
                                                                                                "value": {
                                                                                                    "current": "883283261066916406",
                                                                                                    "prev": "883283261066916408",
                                                                                                    "typeTag": 1
                                                                                                }
                                                                                            }
                                                                                        ],
                                                                                        "typeTag": 3
                                                                                    }
                                                                                },
                                                                                {
                                                                                    "key": "3",
                                                                                    "value": {
                                                                                        "fields": [
                                                                                            {
                                                                                                "name": "sign",
                                                                                                "type": "bool",
                                                                                                "value": {
                                                                                                    "current": "true",
                                                                                                    "prev": "true",
                                                                                                    "typeTag": 1
                                                                                                }
                                                                                            },
                                                                                            {
                                                                                                "name": "value",
                                                                                                "type": "uint128",
                                                                                                "value": {
                                                                                                    "current": "1184106536734396760729",
                                                                                                    "prev": "1184106536734396760733",
                                                                                                    "typeTag": 1
                                                                                                }
                                                                                            }
                                                                                        ],
                                                                                        "typeTag": 3
                                                                                    }
                                                                                }
                                                                            ],
                                                                            "typeTag": 4
                                                                        }
                                                                    }
                                                                ],
                                                                "typeTag": 3
                                                            }
                                                        }
                                                    ],
                                                    "typeTag": 4
                                                }
                                            }
                                        ],
                                        "typeTag": 4
                                    }
                                }
                            ],
                            "typeTag": 3
                        }
                    },
                    {
                        "name": "_guardCounter",
                        "type": "uint256",
                        "value": {
                            "current": "189623",
                            "prev": "189622",
                            "typeTag": 1
                        }
                    }
                ]
            },
            {
                "address": "0xdef136d9884528e1eb302f39457af0e4d3ad24eb",
                "erc": "",
                "slots": [
                    {
                        "current": "0x00000000000000000000000000000000000000000000000792e7746631f30d80",
                        "key": "0x383e6f0e11d603a15ef3c288b8a51b9e65cb7748827083c5c6c20fa96002ee67",
                        "prev": "0x0000000000000000000000000000000000000000000000000000000000000000"
                    },
                    {
                        "current": "0x0000000000000000000000000000000000000000000000000853a0d2313c0000",
                        "key": "0x1a29889f34bfffd1486750b5d81151aa40976d450235c91d932ea203c71a842f",
                        "prev": "0x0000000000000000000000000000000000000000000000000000000000000000"
                    }
                ],
                "storageVariables": [
                    {
                        "name": "g_makerFilledAmount",
                        "type": "mapping(bytes32 => uint256)",
                        "value": {
                            "pairs": [
                                {
                                    "key": "0xd1225ee3255afdb42167dd452e363b5e15bc0c38058eb1521ab4ccfe6208cf3a",
                                    "value": {
                                        "current": "600000000000000000",
                                        "prev": "0",
                                        "typeTag": 1
                                    }
                                },
                                {
                                    "key": "0xeb0f2649d2cea8d55a6d51cab7dc82509450288c7c13faed275c41b0264c9f9d",
                                    "value": {
                                        "current": "139712765947398000000",
                                        "prev": "0",
                                        "typeTag": 1
                                    }
                                }
                            ],
                            "typeTag": 4
                        }
                    }
                ]
            }
        ]
    }
}