{
    "balance_change": {
        "balanceChanges": [
            {
                "account": "0x49497a4d914ae91d34ce80030fe620687bf333fd",
                "assets": [
                    {
                        "address": "0xc02aaa39b223fe8d0a0e5c4f27ead9083c756cc2",
                        "amount": "0.00622",
                        "iconUrl": "https://assets.blocksec.com/icon/f1cb2d02c471d545bbc7722daf3277fd852d98e63d118771af7047bd8256c516.png",
                        "isERC1155": false,
                        "isERC721": false,
                        "sign": true,
                        "value": ""
                    }
                ]
            },
            {
                "account": "0x0000000000000000000000000000000000000000",
                "assets": [
                    {
                        "address": "0x79a00a26f05f901fbc7d29cccf1156ed0599b5fc",
                        "amount": "55",
                        "iconUrl": "",
                        "isERC1155": false,
                        "isERC721": false,
                        "sign": true,
                        "value": ""
                    }
                ]
            },
            {
                "account": "0x3e246a32b5b9a1d6be60983a54e92f55afd17b28",
                "assets": [
                    {
                        "address": "0x79a00a26f05f901fbc7d29cccf1156ed0599b5fc",
                        "amount": "55,000",
                        "iconUrl": "",
                        "isERC1155": false,
                        "isERC721": false,
                        "sign": false,
                        "value": ""
                    },
                    {
                        "address": "0xc02aaa39b223fe8d0a0e5c4f27ead9083c756cc2",
                        "amount": "0.051835",
                        "iconUrl": "https://assets.blocksec.com/icon/f1cb2d02c471d545bbc7722daf3277fd852d98e63d118771af7047bd8256c516.png",
                        "isERC1155": false,
                        "isERC721": false,
                        "sign": true,
                        "value": ""
                    }
                ]
            },
            {
                "account": "0x9722b627cbd4103836dbe48e39e919f843bcf3cc",
                "assets": [
                    {
                        "address": "0x79a00a26f05f901fbc7d29cccf1156ed0599b5fc",
                        "amount": "54,945",
                        "iconUrl": "",
                        "isERC1155": false,
                        "isERC721": false,
                        "sign": true,
                        "value": ""
                    },
                    {
                        "address": "0xc02aaa39b223fe8d0a0e5c4f27ead9083c756cc2",
                        "amount": "0.058055",
                        "iconUrl": "https://assets.blocksec.com/icon/f1cb2d02c471d545bbc7722daf3277fd852d98e63d118771af7047bd8256c516.png",
                        "isERC1155": false,
                        "isERC721": false,
                        "sign": false,
                        "value": ""
                    }
                ]
            }
        ]
    },
    "profile": {
        "basic_info": {
            "baseFee": "",
            "blockNumber": 8858205,
            "callData": "0x884dad2e0000000000000000000000003e246a32b5b9a1d6be60983a54e92f55afd17b2800000000000000000000000000000000000000000000000000000746a5288000000000000000000000000000000000000000000000000000011c37937e080000000000000000000000000000000000000000000000000000000aa87bee53800002010007b56e7b0d0064012c000003a319fd41b21200000000000000000000001b00000000000000000000000000000000000000000000000000000000000000ac55d9f6e06bf78866a4e2d9087b689a7162fb98b6e30cab70358fde280a4d4876d4c9a2d5eaca102888a94c4c5cd44c48168694d3b0954c6f972044981f17cf00000000000000000000000000000000000000000000000000000000000001a000000000000000000000000000000000000000000000000000000000000002c000000000000000000000000079a00a26f05f901fbc7d29cccf1156ed0599b5fc000000000000000000000000c02aaa39b223fe8d0a0e5c4f27ead9083c756cc200000000000000000000000049497a4d914ae91d34ce80030fe620687bf333fd00000000000000000000000000000000000000000000000000000000000000010000000000000000000000009722b627cbd4103836dbe48e39e919f843bcf3cc00000000000000000000000000000000000000000000000000000500918bd80000000000000000000000000000000000000000000000000000c3663566a58000000000000000000000000000000000000000000000000000000aa87bee53800002000007b56e56960064012c00000470fbf40ccfec7c000000000000000000001b010000000000000000000000000000000000000000000000000000000000009018f8fa902c3c288835032434370368db9a68f0f4ba88570087ed937ab2221038437218011646bc839815a47a4a639e1811918ce73fc5f025858c34bcd3b37e000000000000000000000000000000000000000000000000000000000000000100000000000000000000000000000000000000000000000000000500918bd800",
            "debugEnable": true,
            "errorInfo": "",
            "eventCount": 5,
            "feeRecipient": "0x52bc44d5378309ee2abf1539bf71de1b7d7be3b5",
            "formatValue": "0",
            "gasLimit": 319011,
            "gasPrice": "10",
            "gasUsed": 212482,
            "intTxnCount": 10,
            "internalRevert": false,
            "internalRevertMessage": "",
            "isContractCreation": false,
            "isFlashloan": false,
            "maxFee": "",
            "nonce": 110530,
            "overwritedBlockNumber": -1,
            "priorityFee": "",
            "receiver": "0xe2a0bfe759e2a4444442da5064ec549616fff101",
            "revertMessage": "",
            "sender": "0x49497a4d914ae91d34ce80030fe620687bf333fd",
            "simulationEnable": true,
            "sourceTxnHash": "0x0a1784b9483d026cdad6b645cf6e2a1236ea2801fe01ea1ebd98efff5a17eec6",
            "status": true,
            "timestamp": "2019-11-02T09:41:13Z",
            "transactionFee": "0.00212482",
            "txnHash": "0x0a1784b9483d026cdad6b645cf6e2a1236ea2801fe01ea1ebd98efff5a17eec6",
            "txnIndex": 36,
            "type": 0,
            "value": "0"
        },
        "fund_flow": [
            {
                "amount": "54,945",
                "from": "0x3e246a32b5b9a1d6be60983a54e92f55afd17b28",
                "id": 1,
                "isERC1155": false,
                "isERC721": false,
                "isReverted": false,
                "order": 1,
                "to": "0x9722b627cbd4103836dbe48e39e919f843bcf3cc",
                "token": "0x79a00a26f05f901fbc7d29cccf1156ed0599b5fc"
            },
            {
                "amount": "55",
                "from": "0x3e246a32b5b9a1d6be60983a54e92f55afd17b28",
                "id": 2,
                "isERC1155": false,
                "isERC721": false,
                "isReverted": false,
                "order": 2,
                "to": "0x0000000000000000000000000000000000000000",
                "token": "0x79a00a26f05f901fbc7d29cccf1156ed0599b5fc"
            },
            {
                "amount": "0.058055",
                "from": "0x9722b627cbd4103836dbe48e39e919f843bcf3cc",
                "id": 3,
                "isERC1155": false,
                "isERC721": false,
                "isReverted": false,
                "order": 3,
                "to": "0x49497a4d914ae91d34ce80030fe620687bf333fd",
                "token": "0xc02aaa39b223fe8d0a0e5c4f27ead9083c756cc2"
            },
            {
                "amount": "0.051835",
                "from": "0x49497a4d914ae91d34ce80030fe620687bf333fd",
                "id": 4,
                "isERC1155": false,
                "isERC721": false,
                "isReverted": false,
                "order": 4,
                "to": "0x3e246a32b5b9a1d6be60983a54e92f55afd17b28",
                "token": "0xc02aaa39b223fe8d0a0e5c4f27ead9083c756cc2"
            }
        ],
        "token_infos": [
            {
                "address": "0xc02aaa39b223fe8d0a0e5c4f27ead9083c756cc2",
                "decimals": 18
            },
            {
                "address": "0xeeeeeeeeeeeeeeeeeeeeeeeeeeeeeeeeeeeeeeee",
                "decimals": 18
            },
            {
                "address": "0x79a00a26f05f901fbc7d29cccf1156ed0599b5fc",
                "decimals": 8
            }
        ]
    },
    "address_label": {
        "labels": [
            {
                "address": "0x74622073a4821dbfd046e9aa2ccf691341a076e1",
                "label": "Hydro: ERC20 Proxy"
            },
            {
                "address": "0xc02aaa39b223fe8d0a0e5c4f27ead9083c756cc2",
                "label": "Wrapped Ether (WETH)"
            },
            {
                "address": "0x9af839687f6c94542ac5ece2e317daae355493a1",
                "label": "Hydro Protocol Token"
            },
            {
                "address": "0x0000000000000000000000000000000000000003",
                "label": "Precompiled"
            },
            {
                "address": "0x0000000000000000000000000000000000000004",
                "label": "Precompiled"
            },
            {
                "address": "0xeeeeeeeeeeeeeeeeeeeeeeeeeeeeeeeeeeeeeeee",
                "label": "Ether"
            },
            {
                "address": "0x49497a4d914ae91d34ce80030fe620687bf333fd",
                "label": "DDEX 1.0"
            },
            {
                "address": "0xe2a0bfe759e2a4444442da5064ec549616fff101",
                "label": "Hydro: Hybrid Exchange 1.1"
            },
            {
                "address": "0x79a00a26f05f901fbc7d29cccf1156ed0599b5fc",
                "label": "AST"
            },
            {
                "address": "0x0000000000000000000000000000000000000001",
                "label": "Precompiled"
            },
            {
                "address": "0x0000000000000000000000000000000000000002",
                "label": "Precompiled"
            }
        ]
    },
    "trace": {
        "accountLabels": null,
        "dataMap": {
            "-1": {
                "invocation": {
                    "address": "0x49497a4d914ae91d34ce80030fe620687bf333fd",
                    "callData": "",
                    "decodedMethod": null,
                    "errorInfo": "",
                    "fromAddress": "",
                    "gasUsed": 0,
                    "id": -1,
                    "methodDecoded": false,
                    "operation": "",
                    "output": "",
                    "revert": false,
                    "revertMessage": "",
                    "selector": "",
                    "status": false,
                    "value": ""
                },
                "nodeType": 0
            },
            "0": {
                "invocation": {
                    "address": "0xe2a0bfe759e2a4444442da5064ec549616fff101",
                    "callData": "0x0000000000000000000000003e246a32b5b9a1d6be60983a54e92f55afd17b2800000000000000000000000000000000000000000000000000000746a5288000000000000000000000000000000000000000000000000000011c37937e080000000000000000000000000000000000000000000000000000000aa87bee53800002010007b56e7b0d0064012c000003a319fd41b21200000000000000000000001b00000000000000000000000000000000000000000000000000000000000000ac55d9f6e06bf78866a4e2d9087b689a7162fb98b6e30cab70358fde280a4d4876d4c9a2d5eaca102888a94c4c5cd44c48168694d3b0954c6f972044981f17cf00000000000000000000000000000000000000000000000000000000000001a000000000000000000000000000000000000000000000000000000000000002c000000000000000000000000079a00a26f05f901fbc7d29cccf1156ed0599b5fc000000000000000000000000c02aaa39b223fe8d0a0e5c4f27ead9083c756cc200000000000000000000000049497a4d914ae91d34ce80030fe620687bf333fd00000000000000000000000000000000000000000000000000000000000000010000000000000000000000009722b627cbd4103836dbe48e39e919f843bcf3cc00000000000000000000000000000000000000000000000000000500918bd80000000000000000000000000000000000000000000000000000c3663566a58000000000000000000000000000000000000000000000000000000aa87bee53800002000007b56e56960064012c00000470fbf40ccfec7c000000000000000000001b010000000000000000000000000000000000000000000000000000000000009018f8fa902c3c288835032434370368db9a68f0f4ba88570087ed937ab2221038437218011646bc839815a47a4a639e1811918ce73fc5f025858c34bcd3b37e000000000000000000000000000000000000000000000000000000000000000100000000000000000000000000000000000000000000000000000500918bd800",
                    "decodedMethod": {
                        "callParams": [
                            {
                                "name": "takerOrderParam",
                                "type": "(address,uint256,uint256,uint256,bytes32,(bytes32,bytes32,bytes32))",
                                "value": [
                                    {
                                        "name": "trader",
                                        "type": "address",
                                        "value": "0x3e246a32b5b9a1d6be60983a54e92f55afd17b28"
                                    },
                                    {
                                        "name": "baseTokenAmount",
                                        "type": "uint256",
                                        "value": "8,000,000,000,000"
                                    },
                                    {
                                        "name": "quoteTokenAmount",
                                        "type": "uint256",
                                        "value": "80,000,000,000,000,000"
                                    },
                                    {
                                        "name": "gasTokenAmount",
                                        "type": "uint256",
                                        "value": "3,000,000,000,000,000"
                                    },
                                    {
                                        "name": "data",
                                        "type": "bytes32",
                                        "value": "0x02010007b56e7b0d0064012c000003a319fd41b2120000000000000000000000"
                                    },
                                    {
                                        "name": "signature",
                                        "type": "(bytes32,bytes32,bytes32)",
                                        "value": [
                                            {
                                                "name": "config",
                                                "type": "bytes32",
                                                "value": "0x1b00000000000000000000000000000000000000000000000000000000000000"
                                            },
                                            {
                                                "name": "r",
                                                "type": "bytes32",
                                                "value": "0xac55d9f6e06bf78866a4e2d9087b689a7162fb98b6e30cab70358fde280a4d48"
                                            },
                                            {
                                                "name": "s",
                                                "type": "bytes32",
                                                "value": "0x76d4c9a2d5eaca102888a94c4c5cd44c48168694d3b0954c6f972044981f17cf"
                                            }
                                        ]
                                    }
                                ]
                            },
                            {
                                "name": "makerOrderParams",
                                "type": "(address,uint256,uint256,uint256,bytes32,(bytes32,bytes32,bytes32))[]",
                                "value": [
                                    [
                                        {
                                            "name": "trader",
                                            "type": "address",
                                            "value": "0x9722b627cbd4103836dbe48e39e919f843bcf3cc"
                                        },
                                        {
                                            "name": "baseTokenAmount",
                                            "type": "uint256",
                                            "value": "5,500,000,000,000"
                                        },
                                        {
                                            "name": "quoteTokenAmount",
                                            "type": "uint256",
                                            "value": "55,000,000,000,000,000"
                                        },
                                        {
                                            "name": "gasTokenAmount",
                                            "type": "uint256",
                                            "value": "3,000,000,000,000,000"
                                        },
                                        {
                                            "name": "data",
                                            "type": "bytes32",
                                            "value": "0x02000007b56e56960064012c00000470fbf40ccfec7c00000000000000000000"
                                        },
                                        {
                                            "name": "signature",
                                            "type": "(bytes32,bytes32,bytes32)",
                                            "value": [
                                                {
                                                    "name": "config",
                                                    "type": "bytes32",
                                                    "value": "0x1b01000000000000000000000000000000000000000000000000000000000000"
                                                },
                                                {
                                                    "name": "r",
                                                    "type": "bytes32",
                                                    "value": "0x9018f8fa902c3c288835032434370368db9a68f0f4ba88570087ed937ab22210"
                                                },
                                                {
                                                    "name": "s",
                                                    "type": "bytes32",
                                                    "value": "0x38437218011646bc839815a47a4a639e1811918ce73fc5f025858c34bcd3b37e"
                                                }
                                            ]
                                        }
                                    ]
                                ]
                            },
                            {
                                "name": "baseTokenFilledAmounts",
                                "type": "uint256[]",
                                "value": [
                                    "5,500,000,000,000"
                                ]
                            },
                            {
                                "name": "orderAddressSet",
                                "type": "(address,address,address)",
                                "value": [
                                    {
                                        "name": "baseToken",
                                        "type": "address",
                                        "value": "0x79a00a26f05f901fbc7d29cccf1156ed0599b5fc"
                                    },
                                    {
                                        "name": "quoteToken",
                                        "type": "address",
                                        "value": "0xc02aaa39b223fe8d0a0e5c4f27ead9083c756cc2"
                                    },
                                    {
                                        "name": "relayer",
                                        "type": "address",
                                        "value": "0x49497a4d914ae91d34ce80030fe620687bf333fd"
                                    }
                                ]
                            }
                        ],
                        "constructorArguments": "",
                        "name": "matchOrders",
                        "returnParams": [],
                        "signature": "matchOrders((address,uint256,uint256,uint256,bytes32,(bytes32,bytes32,bytes32)),(address,uint256,uint256,uint256,bytes32,(bytes32,bytes32,bytes32))[],uint256[],(address,address,address))"
                    },
                    "errorInfo": "",
                    "fromAddress": "0x49497a4d914ae91d34ce80030fe620687bf333fd",
                    "gasUsed": 212482,
                    "id": 0,
                    "methodDecoded": true,
                    "operation": "CALL",
                    "output": "",
                    "revert": false,
                    "revertMessage": "",
                    "selector": "0x884dad2e",
                    "status": true,
                    "value": "0"
                },
                "nodeType": 0
            },
            "1": {
                "invocation": {
                    "address": "0x9af839687f6c94542ac5ece2e317daae355493a1",
                    "callData": "0x0000000000000000000000003e246a32b5b9a1d6be60983a54e92f55afd17b28",
                    "decodedMethod": {
                        "callParams": [
                            {
                                "name": "_owner",
                                "type": "address",
                                "value": "0x3e246a32b5b9a1d6be60983a54e92f55afd17b28"
                            }
                        ],
                        "constructorArguments": "",
                        "name": "balanceOf",
                        "returnParams": [
                            {
                                "decimalAvailable": true,
                                "name": "balance",
                                "type": "uint256",
                                "value": "0"
                            }
                        ],
                        "signature": "balanceOf(address)"
                    },
                    "errorInfo": "",
                    "fromAddress": "0xe2a0bfe759e2a4444442da5064ec549616fff101",
                    "gasUsed": 661,
                    "id": 1,
                    "methodDecoded": true,
                    "operation": "CALL",
                    "output": "0x0000000000000000000000000000000000000000000000000000000000000000",
                    "revert": false,
                    "revertMessage": "",
                    "selector": "0x70a08231",
                    "status": true,
                    "value": "0"
                },
                "nodeType": 0
            },
            "10": {
                "invocation": {
                    "address": "0xc02aaa39b223fe8d0a0e5c4f27ead9083c756cc2",
                    "callData": "0x0000000000000000000000009722b627cbd4103836dbe48e39e919f843bcf3cc00000000000000000000000049497a4d914ae91d34ce80030fe620687bf333fd00000000000000000000000000000000000000000000000000ce40b7046f7000",
                    "decodedMethod": {
                        "callParams": [
                            {
                                "name": "src",
                                "type": "address",
                                "value": "0x9722b627cbd4103836dbe48e39e919f843bcf3cc"
                            },
                            {
                                "name": "dst",
                                "type": "address",
                                "value": "0x49497a4d914ae91d34ce80030fe620687bf333fd"
                            },
                            {
                                "decimalAvailable": true,
                                "name": "wad",
                                "type": "uint256",
                                "value": "58,055,000,000,000,000"
                            }
                        ],
                        "constructorArguments": "",
                        "name": "transferFrom",
                        "returnParams": [
                            {
                                "name": "",
                                "type": "bool",
                                "value": true
                            }
                        ],
                        "signature": "transferFrom(address,address,uint256)"
                    },
                    "errorInfo": "",
                    "fromAddress": "0x74622073a4821dbfd046e9aa2ccf691341a076e1",
                    "gasUsed": 19448,
                    "id": 10,
                    "methodDecoded": true,
                    "operation": "CALL",
                    "output": "0x0000000000000000000000000000000000000000000000000000000000000001",
                    "revert": false,
                    "revertMessage": "",
                    "selector": "0x23b872dd",
                    "status": true,
                    "value": "0"
                },
                "nodeType": 0
            },
            "11": {
                "event": {
                    "contract": "0xc02aaa39b223fe8d0a0e5c4f27ead9083c756cc2",
                    "decodedLog": {
                        "name": "Transfer",
                        "params": [
                            {
                                "name": "src",
                                "type": "address",
                                "value": "0x9722b627cbd4103836dbe48e39e919f843bcf3cc"
                            },
                            {
                                "name": "dst",
                                "type": "address",
                                "value": "0x49497a4d914ae91d34ce80030fe620687bf333fd"
                            },
                            {
                                "decimalAvailable": true,
                                "name": "wad",
                                "type": "uint256",
                                "value": "58,055,000,000,000,000"
                            }
                        ],
                        "signature": "Transfer(address,address,uint256)"
                    },
                    "id": 11,
                    "logData": "0x00000000000000000000000000000000000000000000000000ce40b7046f7000",
                    "logDecoded": true,
                    "operation": "EVENT",
                    "revert": false,
                    "status": true,
                    "topics": [
                        "0xddf252ad1be2c89b69c2b068fc378daa952ba7f163c4a11628f55a4df523b3ef",
                        "0x0000000000000000000000009722b627cbd4103836dbe48e39e919f843bcf3cc",
                        "0x00000000000000000000000049497a4d914ae91d34ce80030fe620687bf333fd"
                    ]
                },
                "nodeType": 1
            },
            "12": {
                "event": {
                    "contract": "0xe2a0bfe759e2a4444442da5064ec549616fff101",
                    "decodedLog": {
                        "name": "Match",
                        "params": [
                            {
                                "name": "addressSet",
                                "type": "(address,address,address)",
                                "value": [
                                    {
                                        "name": "baseToken",
                                        "type": "address",
                                        "value": "0x79a00a26f05f901fbc7d29cccf1156ed0599b5fc"
                                    },
                                    {
                                        "name": "quoteToken",
                                        "type": "address",
                                        "value": "0xc02aaa39b223fe8d0a0e5c4f27ead9083c756cc2"
                                    },
                                    {
                                        "name": "relayer",
                                        "type": "address",
                                        "value": "0x49497a4d914ae91d34ce80030fe620687bf333fd"
                                    }
                                ]
                            },
                            {
                                "name": "result",
                                "type": "(address,address,address,uint256,uint256,uint256,uint256,uint256,uint256,uint256)",
                                "value": [
                                    {
                                        "name": "maker",
                                        "type": "address",
                                        "value": "0x9722b627cbd4103836dbe48e39e919f843bcf3cc"
                                    },
                                    {
                                        "name": "taker",
                                        "type": "address",
                                        "value": "0x3e246a32b5b9a1d6be60983a54e92f55afd17b28"
                                    },
                                    {
                                        "name": "buyer",
                                        "type": "address",
                                        "value": "0x9722b627cbd4103836dbe48e39e919f843bcf3cc"
                                    },
                                    {
                                        "name": "makerFee",
                                        "type": "uint256",
                                        "value": "55,000,000,000,000"
                                    },
                                    {
                                        "name": "makerRebate",
                                        "type": "uint256",
                                        "value": "0"
                                    },
                                    {
                                        "name": "takerFee",
                                        "type": "uint256",
                                        "value": "165,000,000,000,000"
                                    },
                                    {
                                        "name": "makerGasFee",
                                        "type": "uint256",
                                        "value": "3,000,000,000,000,000"
                                    },
                                    {
                                        "name": "takerGasFee",
                                        "type": "uint256",
                                        "value": "3,000,000,000,000,000"
                                    },
                                    {
                                        "name": "baseTokenFilledAmount",
                                        "type": "uint256",
                                        "value": "5,500,000,000,000"
                                    },
                                    {
                                        "name": "quoteTokenFilledAmount",
                                        "type": "uint256",
                                        "value": "55,000,000,000,000,000"
                                    }
                                ]
                            }
                        ],
                        "signature": "Match((address,address,address),(address,address,address,uint256,uint256,uint256,uint256,uint256,uint256,uint256))"
                    },
                    "id": 12,
                    "logData": "0x00000000000000000000000079a00a26f05f901fbc7d29cccf1156ed0599b5fc000000000000000000000000c02aaa39b223fe8d0a0e5c4f27ead9083c756cc200000000000000000000000049497a4d914ae91d34ce80030fe620687bf333fd0000000000000000000000009722b627cbd4103836dbe48e39e919f843bcf3cc0000000000000000000000003e246a32b5b9a1d6be60983a54e92f55afd17b280000000000000000000000009722b627cbd4103836dbe48e39e919f843bcf3cc00000000000000000000000000000000000000000000000000003205af7670000000000000000000000000000000000000000000000000000000000000000000000000000000000000000000000000000000000000000000000096110e635000000000000000000000000000000000000000000000000000000aa87bee538000000000000000000000000000000000000000000000000000000aa87bee53800000000000000000000000000000000000000000000000000000000500918bd80000000000000000000000000000000000000000000000000000c3663566a58000",
                    "logDecoded": true,
                    "operation": "EVENT",
                    "revert": false,
                    "status": true,
                    "topics": [
                        "0xd3ac06c3b34b93617ba2070b8b7a925029035b3f30fecd2d0fa8e5845724f310"
                    ]
                },
                "nodeType": 1
            },
            "13": {
                "invocation": {
                    "address": "0x74622073a4821dbfd046e9aa2ccf691341a076e1",
                    "callData": "0x000000000000000000000000c02aaa39b223fe8d0a0e5c4f27ead9083c756cc200000000000000000000000049497a4d914ae91d34ce80030fe620687bf333fd0000000000000000000000003e246a32b5b9a1d6be60983a54e92f55afd17b2800000000000000000000000000000000000000000000000000b827a869eeb000",
                    "decodedMethod": {
                        "callParams": [
                            {
                                "name": "token",
                                "type": "address",
                                "value": "0xc02aaa39b223fe8d0a0e5c4f27ead9083c756cc2"
                            },
                            {
                                "name": "from",
                                "type": "address",
                                "value": "0x49497a4d914ae91d34ce80030fe620687bf333fd"
                            },
                            {
                                "name": "to",
                                "type": "address",
                                "value": "0x3e246a32b5b9a1d6be60983a54e92f55afd17b28"
                            },
                            {
                                "name": "value",
                                "type": "uint256",
                                "value": "51,835,000,000,000,000"
                            }
                        ],
                        "constructorArguments": "",
                        "name": "transferFrom",
                        "returnParams": [],
                        "signature": "transferFrom(address,address,address,uint256)"
                    },
                    "errorInfo": "",
                    "fromAddress": "0xe2a0bfe759e2a4444442da5064ec549616fff101",
                    "gasUsed": 15286,
                    "id": 13,
                    "methodDecoded": true,
                    "operation": "CALL",
                    "output": "",
                    "revert": false,
                    "revertMessage": "",
                    "selector": "0x15dacbea",
                    "status": true,
                    "value": "0"
                },
                "nodeType": 0
            },
            "14": {
                "invocation": {
                    "address": "0xc02aaa39b223fe8d0a0e5c4f27ead9083c756cc2",
                    "callData": "0x00000000000000000000000049497a4d914ae91d34ce80030fe620687bf333fd0000000000000000000000003e246a32b5b9a1d6be60983a54e92f55afd17b2800000000000000000000000000000000000000000000000000b827a869eeb000",
                    "decodedMethod": {
                        "callParams": [
                            {
                                "name": "src",
                                "type": "address",
                                "value": "0x49497a4d914ae91d34ce80030fe620687bf333fd"
                            },
                            {
                                "name": "dst",
                                "type": "address",
                                "value": "0x3e246a32b5b9a1d6be60983a54e92f55afd17b28"
                            },
                            {
                                "decimalAvailable": true,
                                "name": "wad",
                                "type": "uint256",
                                "value": "51,835,000,000,000,000"
                            }
                        ],
                        "constructorArguments": "",
                        "name": "transferFrom",
                        "returnParams": [
                            {
                                "name": "",
                                "type": "bool",
                                "value": true
                            }
                        ],
                        "signature": "transferFrom(address,address,uint256)"
                    },
                    "errorInfo": "",
                    "fromAddress": "0x74622073a4821dbfd046e9aa2ccf691341a076e1",
                    "gasUsed": 13625,
                    "id": 14,
                    "methodDecoded": true,
                    "operation": "CALL",
                    "output": "0x0000000000000000000000000000000000000000000000000000000000000001",
                    "revert": false,
                    "revertMessage": "",
                    "selector": "0x23b872dd",
                    "status": true,
                    "value": "0"
                },
                "nodeType": 0
            },
            "15": {
                "event": {
                    "contract": "0xc02aaa39b223fe8d0a0e5c4f27ead9083c756cc2",
                    "decodedLog": {
                        "name": "Transfer",
                        "params": [
                            {
                                "name": "src",
                                "type": "address",
                                "value": "0x49497a4d914ae91d34ce80030fe620687bf333fd"
                            },
                            {
                                "name": "dst",
                                "type": "address",
                                "value": "0x3e246a32b5b9a1d6be60983a54e92f55afd17b28"
                            },
                            {
                                "decimalAvailable": true,
                                "name": "wad",
                                "type": "uint256",
                                "value": "51,835,000,000,000,000"
                            }
                        ],
                        "signature": "Transfer(address,address,uint256)"
                    },
                    "id": 15,
                    "logData": "0x00000000000000000000000000000000000000000000000000b827a869eeb000",
                    "logDecoded": true,
                    "operation": "EVENT",
                    "revert": false,
                    "status": true,
                    "topics": [
                        "0xddf252ad1be2c89b69c2b068fc378daa952ba7f163c4a11628f55a4df523b3ef",
                        "0x00000000000000000000000049497a4d914ae91d34ce80030fe620687bf333fd",
                        "0x0000000000000000000000003e246a32b5b9a1d6be60983a54e92f55afd17b28"
                    ]
                },
                "nodeType": 1
            },
            "2": {
                "invocation": {
                    "address": "0x0000000000000000000000000000000000000001",
                    "callData": "0x5393cef7cf31984b04786b705df133102174a9abeabe5ddc2542eb27000000000000000000000000000000000000000000000000000000000000001bac55d9f6e06bf78866a4e2d9087b689a7162fb98b6e30cab70358fde280a4d4876d4c9a2d5eaca102888a94c4c5cd44c48168694d3b0954c6f972044981f17cf",
                    "decodedMethod": {
                        "callParams": [
                            {
                                "name": "hash",
                                "type": "bytes32",
                                "value": "0x8a2f4a985393cef7cf31984b04786b705df133102174a9abeabe5ddc2542eb27"
                            },
                            {
                                "name": "v",
                                "type": "uint256",
                                "value": "27"
                            },
                            {
                                "name": "r",
                                "type": "bytes32",
                                "value": "0xac55d9f6e06bf78866a4e2d9087b689a7162fb98b6e30cab70358fde280a4d48"
                            },
                            {
                                "name": "s",
                                "type": "bytes32",
                                "value": "0x76d4c9a2d5eaca102888a94c4c5cd44c48168694d3b0954c6f972044981f17cf"
                            }
                        ],
                        "constructorArguments": "",
                        "name": "ecrecover",
                        "returnParams": [
                            {
                                "name": "",
                                "type": "address",
                                "value": "0x3e246a32b5b9a1d6be60983a54e92f55afd17b28"
                            }
                        ],
                        "signature": "ecrecover(bytes32,uint256,bytes32,bytes32)"
                    },
                    "errorInfo": "",
                    "fromAddress": "0xe2a0bfe759e2a4444442da5064ec549616fff101",
                    "gasUsed": 3000,
                    "id": 2,
                    "methodDecoded": true,
                    "operation": "CALL",
                    "output": "0x0000000000000000000000003e246a32b5b9a1d6be60983a54e92f55afd17b28",
                    "revert": false,
                    "revertMessage": "",
                    "selector": "0x8a2f4a98",
                    "status": true,
                    "value": "0"
                },
                "nodeType": 0
            },
            "3": {
                "invocation": {
                    "address": "0x0000000000000000000000000000000000000001",
                    "callData": "0x27c6b194ea9ff32b92983a2bd727e1e753134d57e8eeaa27bd76f0eb000000000000000000000000000000000000000000000000000000000000001b9018f8fa902c3c288835032434370368db9a68f0f4ba88570087ed937ab2221038437218011646bc839815a47a4a639e1811918ce73fc5f025858c34bcd3b37e",
                    "decodedMethod": {
                        "callParams": [
                            {
                                "name": "hash",
                                "type": "bytes32",
                                "value": "0xdfcb623027c6b194ea9ff32b92983a2bd727e1e753134d57e8eeaa27bd76f0eb"
                            },
                            {
                                "name": "v",
                                "type": "uint256",
                                "value": "27"
                            },
                            {
                                "name": "r",
                                "type": "bytes32",
                                "value": "0x9018f8fa902c3c288835032434370368db9a68f0f4ba88570087ed937ab22210"
                            },
                            {
                                "name": "s",
                                "type": "bytes32",
                                "value": "0x38437218011646bc839815a47a4a639e1811918ce73fc5f025858c34bcd3b37e"
                            }
                        ],
                        "constructorArguments": "",
                        "name": "ecrecover",
                        "returnParams": [
                            {
                                "name": "",
                                "type": "address",
                                "value": "0x9722b627cbd4103836dbe48e39e919f843bcf3cc"
                            }
                        ],
                        "signature": "ecrecover(bytes32,uint256,bytes32,bytes32)"
                    },
                    "errorInfo": "",
                    "fromAddress": "0xe2a0bfe759e2a4444442da5064ec549616fff101",
                    "gasUsed": 3000,
                    "id": 3,
                    "methodDecoded": true,
                    "operation": "CALL",
                    "output": "0x0000000000000000000000009722b627cbd4103836dbe48e39e919f843bcf3cc",
                    "revert": false,
                    "revertMessage": "",
                    "selector": "0xdfcb6230",
                    "status": true,
                    "value": "0"
                },
                "nodeType": 0
            },
            "4": {
                "invocation": {
                    "address": "0x9af839687f6c94542ac5ece2e317daae355493a1",
                    "callData": "0x0000000000000000000000009722b627cbd4103836dbe48e39e919f843bcf3cc",
                    "decodedMethod": {
                        "callParams": [
                            {
                                "name": "_owner",
                                "type": "address",
                                "value": "0x9722b627cbd4103836dbe48e39e919f843bcf3cc"
                            }
                        ],
                        "constructorArguments": "",
                        "name": "balanceOf",
                        "returnParams": [
                            {
                                "decimalAvailable": true,
                                "name": "balance",
                                "type": "uint256",
                                "value": "0"
                            }
                        ],
                        "signature": "balanceOf(address)"
                    },
                    "errorInfo": "",
                    "fromAddress": "0xe2a0bfe759e2a4444442da5064ec549616fff101",
                    "gasUsed": 661,
                    "id": 4,
                    "methodDecoded": true,
                    "operation": "CALL",
                    "output": "0x0000000000000000000000000000000000000000000000000000000000000000",
                    "revert": false,
                    "revertMessage": "",
                    "selector": "0x70a08231",
                    "status": true,
                    "value": "0"
                },
                "nodeType": 0
            },
            "5": {
                "invocation": {
                    "address": "0x74622073a4821dbfd046e9aa2ccf691341a076e1",
                    "callData": "0x00000000000000000000000079a00a26f05f901fbc7d29cccf1156ed0599b5fc0000000000000000000000003e246a32b5b9a1d6be60983a54e92f55afd17b280000000000000000000000009722b627cbd4103836dbe48e39e919f843bcf3cc00000000000000000000000000000000000000000000000000000500918bd800",
                    "decodedMethod": {
                        "callParams": [
                            {
                                "name": "token",
                                "type": "address",
                                "value": "0x79a00a26f05f901fbc7d29cccf1156ed0599b5fc"
                            },
                            {
                                "name": "from",
                                "type": "address",
                                "value": "0x3e246a32b5b9a1d6be60983a54e92f55afd17b28"
                            },
                            {
                                "name": "to",
                                "type": "address",
                                "value": "0x9722b627cbd4103836dbe48e39e919f843bcf3cc"
                            },
                            {
                                "name": "value",
                                "type": "uint256",
                                "value": "5,500,000,000,000"
                            }
                        ],
                        "constructorArguments": "",
                        "name": "transferFrom",
                        "returnParams": [],
                        "signature": "transferFrom(address,address,address,uint256)"
                    },
                    "errorInfo": "",
                    "fromAddress": "0xe2a0bfe759e2a4444442da5064ec549616fff101",
                    "gasUsed": 44792,
                    "id": 5,
                    "methodDecoded": true,
                    "operation": "CALL",
                    "output": "",
                    "revert": false,
                    "revertMessage": "",
                    "selector": "0x15dacbea",
                    "status": true,
                    "value": "0"
                },
                "nodeType": 0
            },
            "6": {
                "invocation": {
                    "address": "0x79a00a26f05f901fbc7d29cccf1156ed0599b5fc",
                    "callData": "0x0000000000000000000000003e246a32b5b9a1d6be60983a54e92f55afd17b280000000000000000000000009722b627cbd4103836dbe48e39e919f843bcf3cc00000000000000000000000000000000000000000000000000000500918bd800",
                    "decodedMethod": {
                        "callParams": [
                            {
                                "name": "from",
                                "type": "address",
                                "value": "0x3e246a32b5b9a1d6be60983a54e92f55afd17b28"
                            },
                            {
                                "name": "to",
                                "type": "address",
                                "value": "0x9722b627cbd4103836dbe48e39e919f843bcf3cc"
                            },
                            {
                                "decimalAvailable": true,
                                "name": "value",
                                "type": "uint256",
                                "value": "5,500,000,000,000"
                            }
                        ],
                        "constructorArguments": "",
                        "name": "transferFrom",
                        "returnParams": [
                            {
                                "name": "",
                                "type": "bool",
                                "value": true
                            }
                        ],
                        "signature": "transferFrom(address,address,uint256)"
                    },
                    "errorInfo": "",
                    "fromAddress": "0x74622073a4821dbfd046e9aa2ccf691341a076e1",
                    "gasUsed": 43131,
                    "id": 6,
                    "methodDecoded": true,
                    "operation": "CALL",
                    "output": "0x0000000000000000000000000000000000000000000000000000000000000001",
                    "revert": false,
                    "revertMessage": "",
                    "selector": "0x23b872dd",
                    "status": true,
                    "value": "0"
                },
                "nodeType": 0
            },
            "7": {
                "event": {
                    "contract": "0x79a00a26f05f901fbc7d29cccf1156ed0599b5fc",
                    "decodedLog": {
                        "name": "Transfer",
                        "params": [
                            {
                                "name": "from",
                                "type": "address",
                                "value": "0x3e246a32b5b9a1d6be60983a54e92f55afd17b28"
                            },
                            {
                                "name": "to",
                                "type": "address",
                                "value": "0x9722b627cbd4103836dbe48e39e919f843bcf3cc"
                            },
                            {
                                "decimalAvailable": true,
                                "name": "value",
                                "type": "uint256",
                                "value": "5,494,500,000,000"
                            }
                        ],
                        "signature": "Transfer(address,address,uint256)"
                    },
                    "id": 7,
                    "logData": "0x000000000000000000000000000000000000000000000000000004ff49b88100",
                    "logDecoded": true,
                    "operation": "EVENT",
                    "revert": false,
                    "status": true,
                    "topics": [
                        "0xddf252ad1be2c89b69c2b068fc378daa952ba7f163c4a11628f55a4df523b3ef",
                        "0x0000000000000000000000003e246a32b5b9a1d6be60983a54e92f55afd17b28",
                        "0x0000000000000000000000009722b627cbd4103836dbe48e39e919f843bcf3cc"
                    ]
                },
                "nodeType": 1
            },
            "8": {
                "event": {
                    "contract": "0x79a00a26f05f901fbc7d29cccf1156ed0599b5fc",
                    "decodedLog": {
                        "name": "Transfer",
                        "params": [
                            {
                                "name": "from",
                                "type": "address",
                                "value": "0x3e246a32b5b9a1d6be60983a54e92f55afd17b28"
                            },
                            {
                                "name": "to",
                                "type": "address",
                                "value": "0x0000000000000000000000000000000000000000"
                            },
                            {
                                "decimalAvailable": true,
                                "name": "value",
                                "type": "uint256",
                                "value": "5,500,000,000"
                            }
                        ],
                        "signature": "Transfer(address,address,uint256)"
                    },
                    "id": 8,
                    "logData": "0x0000000000000000000000000000000000000000000000000000000147d35700",
                    "logDecoded": true,
                    "operation": "EVENT",
                    "revert": false,
                    "status": true,
                    "topics": [
                        "0xddf252ad1be2c89b69c2b068fc378daa952ba7f163c4a11628f55a4df523b3ef",
                        "0x0000000000000000000000003e246a32b5b9a1d6be60983a54e92f55afd17b28",
                        "0x0000000000000000000000000000000000000000000000000000000000000000"
                    ]
                },
                "nodeType": 1
            },
            "9": {
                "invocation": {
                    "address": "0x74622073a4821dbfd046e9aa2ccf691341a076e1",
                    "callData": "0x000000000000000000000000c02aaa39b223fe8d0a0e5c4f27ead9083c756cc20000000000000000000000009722b627cbd4103836dbe48e39e919f843bcf3cc00000000000000000000000049497a4d914ae91d34ce80030fe620687bf333fd00000000000000000000000000000000000000000000000000ce40b7046f7000",
                    "decodedMethod": {
                        "callParams": [
                            {
                                "name": "token",
                                "type": "address",
                                "value": "0xc02aaa39b223fe8d0a0e5c4f27ead9083c756cc2"
                            },
                            {
                                "name": "from",
                                "type": "address",
                                "value": "0x9722b627cbd4103836dbe48e39e919f843bcf3cc"
                            },
                            {
                                "name": "to",
                                "type": "address",
                                "value": "0x49497a4d914ae91d34ce80030fe620687bf333fd"
                            },
                            {
                                "name": "value",
                                "type": "uint256",
                                "value": "58,055,000,000,000,000"
                            }
                        ],
                        "constructorArguments": "",
                        "name": "transferFrom",
                        "returnParams": [],
                        "signature": "transferFrom(address,address,address,uint256)"
                    },
                    "errorInfo": "",
                    "fromAddress": "0xe2a0bfe759e2a4444442da5064ec549616fff101",
                    "gasUsed": 21109,
                    "id": 9,
                    "methodDecoded": true,
                    "operation": "CALL",
                    "output": "",
                    "revert": false,
                    "revertMessage": "",
                    "selector": "0x15dacbea",
                    "status": true,
                    "value": "0"
                },
                "nodeType": 0
            }
        },
        "gasFlame": [
            {
                "children": [
                    {
                        "children": [
                            {
                                "children": [],
                                "depth": 0,
                                "name": "Initial Gas",
                                "value": 43992
                            },
                            {
                                "children": [
                                    {
                                        "children": [],
                                        "depth": 1,
                                        "name": "balanceOf",
                                        "value": 661
                                    },
                                    {
                                        "children": [],
                                        "depth": 1,
                                        "name": "ecrecover",
                                        "value": 3000
                                    },
                                    {
                                        "children": [],
                                        "depth": 1,
                                        "name": "ecrecover",
                                        "value": 3000
                                    },
                                    {
                                        "children": [],
                                        "depth": 1,
                                        "name": "balanceOf",
                                        "value": 661
                                    },
                                    {
                                        "children": [
                                            {
                                                "children": [],
                                                "depth": 2,
                                                "name": "transferFrom",
                                                "value": 43131
                                            }
                                        ],
                                        "depth": 1,
                                        "name": "transferFrom",
                                        "value": 44792
                                    },
                                    {
                                        "children": [
                                            {
                                                "children": [],
                                                "depth": 2,
                                                "name": "transferFrom",
                                                "value": 19448
                                            }
                                        ],
                                        "depth": 1,
                                        "name": "transferFrom",
                                        "value": 21109
                                    },
                                    {
                                        "children": [
                                            {
                                                "children": [],
                                                "depth": 2,
                                                "name": "transferFrom",
                                                "value": 13625
                                            }
                                        ],
                                        "depth": 1,
                                        "name": "transferFrom",
                                        "value": 15286
                                    }
                                ],
                                "depth": 0,
                                "name": "Executed Gas",
                                "value": 168490
                            }
                        ],
                        "depth": -1,
                        "name": "Actual Gas Used",
                        "value": 212482
                    },
                    {
                        "children": [],
                        "depth": -1,
                        "name": "Refunded Gas",
                        "value": 0
                    }
                ],
                "depth": -2,
                "name": "Total Gas",
                "value": 212482
            }
        ],
        "isConfirmed": true,
        "mainTrace": [
            {
                "children": [
                    {
                        "children": [
                            {
                                "children": [],
                                "depth": 1,
                                "id": 1,
                                "order": 1
                            },
                            {
                                "children": [],
                                "depth": 1,
                                "id": 2,
                                "order": 2
                            },
                            {
                                "children": [],
                                "depth": 1,
                                "id": 3,
                                "order": 3
                            },
                            {
                                "children": [],
                                "depth": 1,
                                "id": 4,
                                "order": 4
                            },
                            {
                                "children": [
                                    {
                                        "children": [
                                            {
                                                "children": [],
                                                "depth": 3,
                                                "id": 7,
                                                "order": 7
                                            },
                                            {
                                                "children": [],
                                                "depth": 3,
                                                "id": 8,
                                                "order": 8
                                            }
                                        ],
                                        "depth": 2,
                                        "id": 6,
                                        "order": 6
                                    }
                                ],
                                "depth": 1,
                                "id": 5,
                                "order": 5
                            },
                            {
                                "children": [
                                    {
                                        "children": [
                                            {
                                                "children": [],
                                                "depth": 3,
                                                "id": 11,
                                                "order": 11
                                            }
                                        ],
                                        "depth": 2,
                                        "id": 10,
                                        "order": 10
                                    }
                                ],
                                "depth": 1,
                                "id": 9,
                                "order": 9
                            },
                            {
                                "children": [],
                                "depth": 1,
                                "id": 12,
                                "order": 12
                            },
                            {
                                "children": [
                                    {
                                        "children": [
                                            {
                                                "children": [],
                                                "depth": 3,
                                                "id": 15,
                                                "order": 15
                                            }
                                        ],
                                        "depth": 2,
                                        "id": 14,
                                        "order": 14
                                    }
                                ],
                                "depth": 1,
                                "id": 13,
                                "order": 13
                            }
                        ],
                        "depth": 0,
                        "id": 0,
                        "order": 0
                    }
                ],
                "depth": -1,
                "id": -1,
                "order": -1
            }
        ],
        "mainTraceNodeCount": 16,
        "parentIdMap": {
            "0": -1,
            "1": 0,
            "10": 9,
            "11": 10,
            "12": 0,
            "13": 0,
            "14": 13,
            "15": 14,
            "2": 0,
            "3": 0,
            "4": 0,
            "5": 0,
            "6": 5,
            "7": 6,
            "8": 6,
            "9": 0
        },
        "tidyTrace": [
            {
                "children": [
                    {
                        "children": [
                            {
                                "children": [],
                                "depth": 1,
                                "id": 1,
                                "order": 1
                            },
                            {
                                "children": [],
                                "depth": 1,
                                "id": 2,
                                "order": 2
                            },
                            {
                                "children": [],
                                "depth": 1,
                                "id": 3,
                                "order": 3
                            },
                            {
                                "children": [],
                                "depth": 1,
                                "id": 4,
                                "order": 4
                            },
                            {
                                "children": [
                                    {
                                        "children": [
                                            {
                                                "children": [],
                                                "depth": 3,
                                                "id": 7,
                                                "order": 7
                                            },
                                            {
                                                "children": [],
                                                "depth": 3,
                                                "id": 8,
                                                "order": 8
                                            }
                                        ],
                                        "depth": 2,
                                        "id": 6,
                                        "order": 6
                                    }
                                ],
                                "depth": 1,
                                "id": 5,
                                "order": 5
                            },
                            {
                                "children": [
                                    {
                                        "children": [
                                            {
                                                "children": [],
                                                "depth": 3,
                                                "id": 11,
                                                "order": 11
                                            }
                                        ],
                                        "depth": 2,
                                        "id": 10,
                                        "order": 10
                                    }
                                ],
                                "depth": 1,
                                "id": 9,
                                "order": 9
                            },
                            {
                                "children": [],
                                "depth": 1,
                                "id": 12,
                                "order": 12
                            },
                            {
                                "children": [
                                    {
                                        "children": [
                                            {
                                                "children": [],
                                                "depth": 3,
                                                "id": 15,
                                                "order": 15
                                            }
                                        ],
                                        "depth": 2,
                                        "id": 14,
                                        "order": 14
                                    }
                                ],
                                "depth": 1,
                                "id": 13,
                                "order": 13
                            }
                        ],
                        "depth": 0,
                        "id": 0,
                        "order": 0
                    }
                ],
                "depth": -1,
                "id": -1,
                "order": -1
            }
        ],
        "tidyTraceNodeCount": 16
    },
    "state_change": {
        "stateChanges": [
            {
                "address": "0x79a00a26f05f901fbc7d29cccf1156ed0599b5fc",
                "erc": "ERC-20",
                "slots": [
                    {
                        "current": "0x000000000000000000000000000000000000000000000000000004ff49b88100",
                        "key": "0xd308655b90e4683f436976fd775f2dcce8290631faf401f18760b771a8a1f9dc",
                        "prev": "0x0000000000000000000000000000000000000000000000000000000000000000"
                    },
                    {
                        "current": "0x00000000000000000000000000000000000000000000000000038d46cba377bc",
                        "key": "0x0000000000000000000000000000000000000000000000000000000000000005",
                        "prev": "0x00000000000000000000000000000000000000000000000000038d481376cebc"
                    },
                    {
                        "current": "0x0000000000000000000000446c3b15f9926687d2c40534fdb563d1349b761100",
                        "key": "0xab1a2f6e2710cf3c6fc32129a6ced633d5d5f1098c4f24ba673a1a54ebc310f0",
                        "prev": "0x0000000000000000000000446c3b15f9926687d2c40534fdb563d6352d01e900"
                    },
                    {
                        "current": "0x0000000000000000000000000000000000000000000000000002b82193edf5c8",
                        "key": "0x0d95118c9ec717b55c861fc10d26649cb6f059518724039db638a0fa5aac8fc8",
                        "prev": "0x0000000000000000000000000000000000000000000000000002bd222579cdc8"
                    }
                ],
                "storageVariables": [
                    {
                        "name": "_totalSupply",
                        "type": "uint256",
                        "value": {
                            "current": "999760133846972",
                            "prev": "999765633846972",
                            "typeTag": 1
                        }
                    },
                    {
                        "name": "_allowed",
                        "type": "mapping(address => mapping(address => uint256))",
                        "value": {
                            "pairs": [
                                {
                                    "key": "0x3e246a32b5b9a1d6be60983a54e92f55afd17b28",
                                    "value": {
                                        "pairs": [
                                            {
                                                "key": "0x74622073a4821dbfd046e9aa2ccf691341a076e1",
                                                "value": {
                                                    "current": "99999999999999999999999999999999999948548900000000",
                                                    "prev": "99999999999999999999999999999999999954048900000000",
                                                    "typeTag": 1
                                                }
                                            }
                                        ],
                                        "typeTag": 4
                                    }
                                }
                            ],
                            "typeTag": 4
                        }
                    },
                    {
                        "name": "_balances",
                        "type": "mapping(address => uint256)",
                        "value": {
                            "pairs": [
                                {
                                    "key": "0x3e246a32b5b9a1d6be60983a54e92f55afd17b28",
                                    "value": {
                                        "current": "765404308698568",
                                        "prev": "770904308698568",
                                        "typeTag": 1
                                    }
                                },
                                {
                                    "key": "0x9722b627cbd4103836dbe48e39e919f843bcf3cc",
                                    "value": {
                                        "current": "5494500000000",
                                        "prev": "0",
                                        "typeTag": 1
                                    }
                                }
                            ],
                            "typeTag": 4
                        }
                    }
                ]
            },
            {
                "address": "0xc02aaa39b223fe8d0a0e5c4f27ead9083c756cc2",
                "erc": "ERC-20",
                "slots": [
                    {
                        "current": "0xefffffffffffffffffffffffffffffffffffffffffffffffff31bf48fb909000",
                        "key": "0xf9b39694fd2b6a31073c06b8fdfa59a8e089f28a3f2ef20950a08cac71f41541",
                        "prev": "0xf000000000000000000000000000000000000000000000000000000000000000"
                    },
                    {
                        "current": "0x000000000000000000000000000000000000000000000000000028ed6103d000",
                        "key": "0xd308655b90e4683f436976fd775f2dcce8290631faf401f18760b771a8a1f9dc",
                        "prev": "0x00000000000000000000000000000000000000000000000000ce69a465734000"
                    },
                    {
                        "current": "0x0000000000000000000000000000000000000000000000032c84c7f0c692449e",
                        "key": "0x0ed50c4cf50bf486e5cf776b497a926387c149b783a70ce0e62df82123ec73e0",
                        "prev": "0x0000000000000000000000000000000000000000000000032c6eaee22c11849e"
                    },
                    {
                        "current": "0x00000000000000000000000000000000000000000000000000b8282553d30500",
                        "key": "0x0d95118c9ec717b55c861fc10d26649cb6f059518724039db638a0fa5aac8fc8",
                        "prev": "0x0000000000000000000000000000000000000000000000000000007ce9e45500"
                    }
                ],
                "storageVariables": [
                    {
                        "name": "allowance",
                        "type": "mapping(address => mapping(address => uint256))",
                        "value": {
                            "pairs": [
                                {
                                    "key": "0x9722b627cbd4103836dbe48e39e919f843bcf3cc",
                                    "value": {
                                        "pairs": [
                                            {
                                                "key": "0x74622073a4821dbfd046e9aa2ccf691341a076e1",
                                                "value": {
                                                    "current": "108555083659983933209597798445644913612440610624038028786991426952418559037440",
                                                    "prev": "108555083659983933209597798445644913612440610624038028786991485007418559037440",
                                                    "typeTag": 1
                                                }
                                            }
                                        ],
                                        "typeTag": 4
                                    }
                                }
                            ],
                            "typeTag": 4
                        }
                    },
                    {
                        "name": "balanceOf",
                        "type": "mapping(address => uint256)",
                        "value": {
                            "pairs": [
                                {
                                    "key": "0x3e246a32b5b9a1d6be60983a54e92f55afd17b28",
                                    "value": {
                                        "current": "51835536500000000",
                                        "prev": "536500000000",
                                        "typeTag": 1
                                    }
                                },
                                {
                                    "key": "0x49497a4d914ae91d34ce80030fe620687bf333fd",
                                    "value": {
                                        "current": "58548140892660843678",
                                        "prev": "58541920892660843678",
                                        "typeTag": 1
                                    }
                                },
                                {
                                    "key": "0x9722b627cbd4103836dbe48e39e919f843bcf3cc",
                                    "value": {
                                        "current": "45000000000000",
                                        "prev": "58100000000000000",
                                        "typeTag": 1
                                    }
                                }
                            ],
                            "typeTag": 4
                        }
                    }
                ]
            },
            {
                "address": "0xe2a0bfe759e2a4444442da5064ec549616fff101",
                "erc": "",
                "slots": [
                    {
                        "current": "0x00000000000000000000000000000000000000000000000000000500918bd800",
                        "key": "0xaadfc1448ec6826b9c1a55917bfad9b0f3d686f6189861a52abfb74dae7bbdf5",
                        "prev": "0x0000000000000000000000000000000000000000000000000000000000000000"
                    },
                    {
                        "current": "0x00000000000000000000000000000000000000000000000000000500918bd800",
                        "key": "0xa1ddc611e5c3472b455e7965c1111a73faeac2a7df9fbc4ccac6843b5bd14b9d",
                        "prev": "0x0000000000000000000000000000000000000000000000000000000000000000"
                    }
                ],
                "storageVariables": [
                    {
                        "name": "filled",
                        "type": "mapping(bytes32 => uint256)",
                        "value": {
                            "pairs": [
                                {
                                    "key": "0xd044e71bdbb8d3ff1d5bc22d39b4ca10a56e78a10228e1d2b9957a5b5c59a1dc",
                                    "value": {
                                        "current": "5500000000000",
                                        "prev": "0",
                                        "typeTag": 1
                                    }
                                },
                                {
                                    "key": "0xdfcb623027c6b194ea9ff32b92983a2bd727e1e753134d57e8eeaa27bd76f0eb",
                                    "value": {
                                        "current": "5500000000000",
                                        "prev": "0",
                                        "typeTag": 1
                                    }
                                }
                            ],
                            "typeTag": 4
                        }
                    }
                ]
            }
        ]
    }
}