{
    "balance_change": {
        "balanceChanges": [
            {
                "account": "0xaa67ee4a64ca4ffca3b1d873f784fb29c88dd50a",
                "assets": [
                    {
                        "address": "0x68370e85a4d439ced9dd91c0a29ab50551f94097",
                        "amount": "13,020,351.10506435",
                        "iconUrl": "",
                        "isERC1155": false,
                        "isERC721": false,
                        "sign": false,
                        "value": "1230.082961"
                    },
                    {
                        "address": "0xeeeeeeeeeeeeeeeeeeeeeeeeeeeeeeeeeeeeeeee",
                        "amount": "0.326421192914943893",
                        "iconUrl": "https://assets.blocksec.com/image/1663669189317-3.png",
                        "isERC1155": false,
                        "isERC721": false,
                        "sign": true,
                        "value": "1227.5787085628879347"
                    }
                ]
            },
            {
                "account": "0x27b9c20f64920eb7fbf64491423a54df9594188c",
                "assets": [
                    {
                        "address": "0xeeeeeeeeeeeeeeeeeeeeeeeeeeeeeeeeeeeeeeee",
                        "amount": "0.002301055740588728",
                        "iconUrl": "https://assets.blocksec.com/image/1663669189317-3.png",
                        "isERC1155": false,
                        "isERC721": false,
                        "sign": true,
                        "value": "8.65362634629351954"
                    }
                ]
            },
            {
                "account": "0x577cfa539b0c32fdf9568768f8d9e05c2ae0f987",
                "assets": [
                    {
                        "address": "0x68370e85a4d439ced9dd91c0a29ab50551f94097",
                        "amount": "13,020,351.10506435",
                        "iconUrl": "",
                        "isERC1155": false,
                        "isERC721": false,
                        "sign": true,
                        "value": "1230.082961"
                    },
                    {
                        "address": "0xc02aaa39b223fe8d0a0e5c4f27ead9083c756cc2",
                        "amount": "0.328722248655532621",
                        "iconUrl": "https://assets.blocksec.com/icon/f1cb2d02c471d545bbc7722daf3277fd852d98e63d118771af7047bd8256c516.png",
                        "isERC1155": false,
                        "isERC721": false,
                        "sign": false,
                        "value": "1236.2323351310639342"
                    }
                ]
            },
            {
                "account": "0xc02aaa39b223fe8d0a0e5c4f27ead9083c756cc2",
                "assets": [
                    {
                        "address": "0xeeeeeeeeeeeeeeeeeeeeeeeeeeeeeeeeeeeeeeee",
                        "amount": "0.328722248655532621",
                        "iconUrl": "https://assets.blocksec.com/image/1663669189317-3.png",
                        "isERC1155": false,
                        "isERC721": false,
                        "sign": false,
                        "value": "1236.2323351310639342"
                    },
                    {
                        "address": "0xc02aaa39b223fe8d0a0e5c4f27ead9083c756cc2",
                        "amount": "0.328722248655532621",
                        "iconUrl": "https://assets.blocksec.com/icon/f1cb2d02c471d545bbc7722daf3277fd852d98e63d118771af7047bd8256c516.png",
                        "isERC1155": false,
                        "isERC721": false,
                        "sign": true,
                        "value": "1236.2323351310639342"
                    }
                ]
            }
        ]
    },
    "profile": {
        "basic_info": {
            "baseFee": "7.336898842",
            "blockNumber": 19928707,
            "callData": "0x68cdab9c00000000000000000000000000000000000000000000000000000000664e8011000000000000000000000000000000000000000000000000000000000000006000000000000000000000000000000000000000000000000000000000000002a000000000000000000000000000000000000000000000000000000000000000020000000000000000000000000000000000000000000000000000000000000040000000000000000000000000000000000000000000000000000000000000016000000000000000000000000000000000000000000000000000000000000000e4472b43f3000000000000000000000000000000000000000000000000002e41f0ba77dd9e000000000000000000000000000000000000000000000000023c3fdc3dd4de6000000000000000000000000000000000000000000000000000000000000000800000000000000000000000005c9321e92ba4eb43f2901c4952358e132163a85a000000000000000000000000000000000000000000000000000000000000000200000000000000000000000068370e85a4d439ced9dd91c0a29ab50551f94097000000000000000000000000c02aaa39b223fe8d0a0e5c4f27ead9083c756cc20000000000000000000000000000000000000000000000000000000000000000000000000000000000000000000000000000000000000000000000849b2c0a370000000000000000000000000000000000000000000000000000000000000005000000000000000000000000aa67ee4a64ca4ffca3b1d873f784fb29c88dd50a000000000000000000000000000000000000000000000000000000000000004600000000000000000000000027b9c20f64920eb7fbf64491423a54df9594188c0000000000000000000000000000000000000000000000000000000000000000000000000000000000000000000000000000000000000000000000077361746472657900000000000000000000000000000000000000000000000000",
            "debugEnable": true,
            "errorInfo": "",
            "eventCount": 6,
            "feeRecipient": "0x4838b106fce9647bdf1e7877bf73ce8b0bad5f97",
            "formatValue": "0",
            "gasLimit": 272347,
            "gasPrice": "12.941426732",
            "gasUsed": 163130,
            "intTxnCount": 16,
            "internalRevert": false,
            "internalRevertMessage": "",
            "isContractCreation": false,
            "isFlashloan": false,
            "maxFee": "12.941426732",
            "nonce": 64,
            "overwritedBlockNumber": -1,
            "priorityFee": "7.867284058",
            "receiver": "0x5c9321e92ba4eb43f2901c4952358e132163a85a",
            "revertMessage": "",
            "sender": "0xaa67ee4a64ca4ffca3b1d873f784fb29c88dd50a",
            "simulationEnable": true,
            "sourceTxnHash": "0x0afdab5125f7d6a15953786d8fd79eb235f4236e0277c19802d60f7fd72a917a",
            "status": true,
            "timestamp": "2024-05-22T23:29:11Z",
            "transactionFee": "0.00211113494279116",
            "txnHash": "0x0afdab5125f7d6a15953786d8fd79eb235f4236e0277c19802d60f7fd72a917a",
            "txnIndex": 78,
            "type": 2,
            "value": "0"
        },
        "fund_flow": [
            {
                "amount": "13,020,351.10506435",
                "from": "0xaa67ee4a64ca4ffca3b1d873f784fb29c88dd50a",
                "id": 1,
                "isERC1155": false,
                "isERC721": false,
                "isReverted": false,
                "order": 1,
                "to": "0x577cfa539b0c32fdf9568768f8d9e05c2ae0f987",
                "token": "0x68370e85a4d439ced9dd91c0a29ab50551f94097"
            },
            {
                "amount": "0.328722248655532621",
                "from": "0x577cfa539b0c32fdf9568768f8d9e05c2ae0f987",
                "id": 2,
                "isERC1155": false,
                "isERC721": false,
                "isReverted": false,
                "order": 2,
                "to": "0x5c9321e92ba4eb43f2901c4952358e132163a85a",
                "token": "0xc02aaa39b223fe8d0a0e5c4f27ead9083c756cc2"
            },
            {
                "amount": "0.328722248655532621",
                "from": "0xc02aaa39b223fe8d0a0e5c4f27ead9083c756cc2",
                "id": 3,
                "isERC1155": false,
                "isERC721": false,
                "isReverted": false,
                "order": 3,
                "to": "0x5c9321e92ba4eb43f2901c4952358e132163a85a",
                "token": "0xeeeeeeeeeeeeeeeeeeeeeeeeeeeeeeeeeeeeeeee"
            },
            {
                "amount": "0.328722248655532621",
                "from": "0x5c9321e92ba4eb43f2901c4952358e132163a85a",
                "id": 4,
                "isERC1155": false,
                "isERC721": false,
                "isReverted": false,
                "order": 4,
                "to": "0xc02aaa39b223fe8d0a0e5c4f27ead9083c756cc2",
                "token": "0xc02aaa39b223fe8d0a0e5c4f27ead9083c756cc2"
            },
            {
                "amount": "0.002301055740588728",
                "from": "0x5c9321e92ba4eb43f2901c4952358e132163a85a",
                "id": 5,
                "isERC1155": false,
                "isERC721": false,
                "isReverted": false,
                "order": 5,
                "to": "0x27b9c20f64920eb7fbf64491423a54df9594188c",
                "token": "0xeeeeeeeeeeeeeeeeeeeeeeeeeeeeeeeeeeeeeeee"
            },
            {
                "amount": "0.326421192914943893",
                "from": "0x5c9321e92ba4eb43f2901c4952358e132163a85a",
                "id": 6,
                "isERC1155": false,
                "isERC721": false,
                "isReverted": false,
                "order": 6,
                "to": "0xaa67ee4a64ca4ffca3b1d873f784fb29c88dd50a",
                "token": "0xeeeeeeeeeeeeeeeeeeeeeeeeeeeeeeeeeeeeeeee"
            }
        ],
        "token_infos": [
            {
                "address": "0x68370e85a4d439ced9dd91c0a29ab50551f94097",
                "decimals": 9
            },
            {
                "address": "0xc02aaa39b223fe8d0a0e5c4f27ead9083c756cc2",
                "decimals": 18
            },
            {
                "address": "0xeeeeeeeeeeeeeeeeeeeeeeeeeeeeeeeeeeeeeeee",
                "decimals": 18
            }
        ]
    },
    "address_label": {
        "labels": [
            {
                "address": "0x577cfa539b0c32fdf9568768f8d9e05c2ae0f987",
                "label": "UNI-V2"
            },
            {
                "address": "0x68370e85a4d439ced9dd91c0a29ab50551f94097",
                "label": "CREEPE"
            },
            {
                "address": "0x0000000000000000000000000000000000000001",
                "label": "Precompiled"
            },
            {
                "address": "0x0000000000000000000000000000000000000002",
                "label": "Precompiled"
            },
            {
                "address": "0x0000000000000000000000000000000000000003",
                "label": "Precompiled"
            },
            {
                "address": "0x0000000000000000000000000000000000000004",
                "label": "Precompiled"
            },
            {
                "address": "0xeeeeeeeeeeeeeeeeeeeeeeeeeeeeeeeeeeeeeeee",
                "label": "Ether"
            },
            {
                "address": "0xc02aaa39b223fe8d0a0e5c4f27ead9083c756cc2",
                "label": "Wrapped Ether (WETH)"
            }
        ]
    },
    "trace": {
        "accountLabels": null,
        "dataMap": {
            "-1": {
                "invocation": {
                    "address": "0xaa67ee4a64ca4ffca3b1d873f784fb29c88dd50a",
                    "callData": "",
                    "decodedMethod": null,
                    "errorInfo": "",
                    "fromAddress": "",
                    "gasUsed": 0,
                    "id": -1,
                    "methodDecoded": false,
                    "operation": "",
                    "output": "",
                    "revert": false,
                    "revertMessage": "",
                    "selector": "",
                    "status": false,
                    "value": ""
                },
                "nodeType": 0
            },
            "0": {
                "invocation": {
                    "address": "0x5c9321e92ba4eb43f2901c4952358e132163a85a",
                    "callData": "0x00000000000000000000000000000000000000000000000000000000664e8011000000000000000000000000000000000000000000000000000000000000006000000000000000000000000000000000000000000000000000000000000002a000000000000000000000000000000000000000000000000000000000000000020000000000000000000000000000000000000000000000000000000000000040000000000000000000000000000000000000000000000000000000000000016000000000000000000000000000000000000000000000000000000000000000e4472b43f3000000000000000000000000000000000000000000000000002e41f0ba77dd9e000000000000000000000000000000000000000000000000023c3fdc3dd4de6000000000000000000000000000000000000000000000000000000000000000800000000000000000000000005c9321e92ba4eb43f2901c4952358e132163a85a000000000000000000000000000000000000000000000000000000000000000200000000000000000000000068370e85a4d439ced9dd91c0a29ab50551f94097000000000000000000000000c02aaa39b223fe8d0a0e5c4f27ead9083c756cc20000000000000000000000000000000000000000000000000000000000000000000000000000000000000000000000000000000000000000000000849b2c0a370000000000000000000000000000000000000000000000000000000000000005000000000000000000000000aa67ee4a64ca4ffca3b1d873f784fb29c88dd50a000000000000000000000000000000000000000000000000000000000000004600000000000000000000000027b9c20f64920eb7fbf64491423a54df9594188c0000000000000000000000000000000000000000000000000000000000000000000000000000000000000000000000000000000000000000000000077361746472657900000000000000000000000000000000000000000000000000",
                    "decodedMethod": null,
                    "errorInfo": "",
                    "fromAddress": "0xaa67ee4a64ca4ffca3b1d873f784fb29c88dd50a",
                    "gasUsed": 163130,
                    "id": 0,
                    "methodDecoded": false,
                    "operation": "CALL",
                    "output": "0x00000000000000000000000000000000000000000000000000000000000000200000000000000000000000000000000000000000000000000000000000000002000000000000000000000000000000000000000000000000000000000000004000000000000000000000000000000000000000000000000000000000000000800000000000000000000000000000000000000000000000000000000000000020000000000000000000000000000000000000000000000000048fdb24bce1724d0000000000000000000000000000000000000000000000000000000000000000",
                    "revert": false,
                    "revertMessage": "",
                    "selector": "0x68cdab9c",
                    "status": true,
                    "value": "0"
                },
                "nodeType": 0
            },
            "1": {
                "invocation": {
                    "address": "0x5c9321e92ba4eb43f2901c4952358e132163a85a",
                    "callData": "0x000000000000000000000000000000000000000000000000002e41f0ba77dd9e000000000000000000000000000000000000000000000000023c3fdc3dd4de6000000000000000000000000000000000000000000000000000000000000000800000000000000000000000005c9321e92ba4eb43f2901c4952358e132163a85a000000000000000000000000000000000000000000000000000000000000000200000000000000000000000068370e85a4d439ced9dd91c0a29ab50551f94097000000000000000000000000c02aaa39b223fe8d0a0e5c4f27ead9083c756cc2",
                    "decodedMethod": {
                        "callParams": [
                            {
                                "name": "amountIn",
                                "type": "uint256",
                                "value": "13,020,351,105,064,350"
                            },
                            {
                                "name": "amountOutMin",
                                "type": "uint256",
                                "value": "161,073,901,841,210,976"
                            },
                            {
                                "name": "path",
                                "type": "address[]",
                                "value": [
                                    "0x68370e85a4d439ced9dd91c0a29ab50551f94097",
                                    "0xc02aaa39b223fe8d0a0e5c4f27ead9083c756cc2"
                                ]
                            },
                            {
                                "name": "to",
                                "type": "address",
                                "value": "0x5c9321e92ba4eb43f2901c4952358e132163a85a"
                            }
                        ],
                        "constructorArguments": "",
                        "name": "swapExactTokensForTokens",
                        "returnParams": [
                            {
                                "name": "amountOut",
                                "type": "uint256",
                                "value": "328,722,248,655,532,621"
                            }
                        ],
                        "signature": "swapExactTokensForTokens(uint256,uint256,address[],address)"
                    },
                    "errorInfo": "",
                    "fromAddress": "0x5c9321e92ba4eb43f2901c4952358e132163a85a",
                    "gasUsed": 131078,
                    "id": 1,
                    "methodDecoded": true,
                    "operation": "DELEGATECALL",
                    "output": "0x000000000000000000000000000000000000000000000000048fdb24bce1724d",
                    "revert": false,
                    "revertMessage": "",
                    "selector": "0x472b43f3",
                    "status": true,
                    "value": "0"
                },
                "nodeType": 0
            },
            "10": {
                "event": {
                    "contract": "0xc02aaa39b223fe8d0a0e5c4f27ead9083c756cc2",
                    "decodedLog": {
                        "name": "Transfer",
                        "params": [
                            {
                                "name": "src",
                                "type": "address",
                                "value": "0x577cfa539b0c32fdf9568768f8d9e05c2ae0f987"
                            },
                            {
                                "name": "dst",
                                "type": "address",
                                "value": "0x5c9321e92ba4eb43f2901c4952358e132163a85a"
                            },
                            {
                                "decimalAvailable": true,
                                "name": "wad",
                                "type": "uint256",
                                "value": "328,722,248,655,532,621"
                            }
                        ],
                        "signature": "Transfer(address,address,uint256)"
                    },
                    "id": 10,
                    "logData": "0x000000000000000000000000000000000000000000000000048fdb24bce1724d",
                    "logDecoded": true,
                    "operation": "EVENT",
                    "revert": false,
                    "status": true,
                    "topics": [
                        "0xddf252ad1be2c89b69c2b068fc378daa952ba7f163c4a11628f55a4df523b3ef",
                        "0x000000000000000000000000577cfa539b0c32fdf9568768f8d9e05c2ae0f987",
                        "0x0000000000000000000000005c9321e92ba4eb43f2901c4952358e132163a85a"
                    ]
                },
                "nodeType": 1
            },
            "11": {
                "invocation": {
                    "address": "0x68370e85a4d439ced9dd91c0a29ab50551f94097",
                    "callData": "0x000000000000000000000000577cfa539b0c32fdf9568768f8d9e05c2ae0f987",
                    "decodedMethod": {
                        "callParams": [
                            {
                                "name": "account",
                                "type": "address",
                                "value": "0x577cfa539b0c32fdf9568768f8d9e05c2ae0f987"
                            }
                        ],
                        "constructorArguments": "",
                        "name": "balanceOf",
                        "returnParams": [
                            {
                                "decimalAvailable": true,
                                "name": "",
                                "type": "uint256",
                                "value": "216,828,036,659,851,286"
                            }
                        ],
                        "signature": "balanceOf(address)"
                    },
                    "errorInfo": "",
                    "fromAddress": "0x577cfa539b0c32fdf9568768f8d9e05c2ae0f987",
                    "gasUsed": 676,
                    "id": 11,
                    "methodDecoded": true,
                    "operation": "STATICCALL",
                    "output": "0x000000000000000000000000000000000000000000000000030253f35674b016",
                    "revert": false,
                    "revertMessage": "",
                    "selector": "0x70a08231",
                    "status": true,
                    "value": "0"
                },
                "nodeType": 0
            },
            "12": {
                "invocation": {
                    "address": "0xc02aaa39b223fe8d0a0e5c4f27ead9083c756cc2",
                    "callData": "0x000000000000000000000000577cfa539b0c32fdf9568768f8d9e05c2ae0f987",
                    "decodedMethod": {
                        "callParams": [
                            {
                                "name": "",
                                "type": "address",
                                "value": "0x577cfa539b0c32fdf9568768f8d9e05c2ae0f987"
                            }
                        ],
                        "constructorArguments": "",
                        "name": "balanceOf",
                        "returnParams": [
                            {
                                "decimalAvailable": true,
                                "name": "",
                                "type": "uint256",
                                "value": "5,160,975,559,576,370,362"
                            }
                        ],
                        "signature": "balanceOf(address)"
                    },
                    "errorInfo": "",
                    "fromAddress": "0x577cfa539b0c32fdf9568768f8d9e05c2ae0f987",
                    "gasUsed": 534,
                    "id": 12,
                    "methodDecoded": true,
                    "operation": "STATICCALL",
                    "output": "0x000000000000000000000000000000000000000000000000479f77ed6b05bcba",
                    "revert": false,
                    "revertMessage": "",
                    "selector": "0x70a08231",
                    "status": true,
                    "value": "0"
                },
                "nodeType": 0
            },
            "13": {
                "event": {
                    "contract": "0x577cfa539b0c32fdf9568768f8d9e05c2ae0f987",
                    "decodedLog": {
                        "name": "Sync",
                        "params": [
                            {
                                "name": "reserve0",
                                "type": "uint112",
                                "value": "216,828,036,659,851,286"
                            },
                            {
                                "name": "reserve1",
                                "type": "uint112",
                                "value": "5,160,975,559,576,370,362"
                            }
                        ],
                        "signature": "Sync(uint112,uint112)"
                    },
                    "id": 13,
                    "logData": "0x000000000000000000000000000000000000000000000000030253f35674b016000000000000000000000000000000000000000000000000479f77ed6b05bcba",
                    "logDecoded": true,
                    "operation": "EVENT",
                    "revert": false,
                    "status": true,
                    "topics": [
                        "0x1c411e9a96e071241c2f21f7726b17ae89e3cab4c78be50e062b03a9fffbbad1"
                    ]
                },
                "nodeType": 1
            },
            "14": {
                "event": {
                    "contract": "0x577cfa539b0c32fdf9568768f8d9e05c2ae0f987",
                    "decodedLog": {
                        "name": "Swap",
                        "params": [
                            {
                                "name": "sender",
                                "type": "address",
                                "value": "0x5c9321e92ba4eb43f2901c4952358e132163a85a"
                            },
                            {
                                "name": "to",
                                "type": "address",
                                "value": "0x5c9321e92ba4eb43f2901c4952358e132163a85a"
                            },
                            {
                                "name": "amount0In",
                                "type": "uint256",
                                "value": "13,020,351,105,064,350"
                            },
                            {
                                "name": "amount1In",
                                "type": "uint256",
                                "value": "0"
                            },
                            {
                                "name": "amount0Out",
                                "type": "uint256",
                                "value": "0"
                            },
                            {
                                "name": "amount1Out",
                                "type": "uint256",
                                "value": "328,722,248,655,532,621"
                            }
                        ],
                        "signature": "Swap(address,uint256,uint256,uint256,uint256,address)"
                    },
                    "id": 14,
                    "logData": "0x000000000000000000000000000000000000000000000000002e41f0ba77dd9e00000000000000000000000000000000000000000000000000000000000000000000000000000000000000000000000000000000000000000000000000000000000000000000000000000000000000000000000000000000048fdb24bce1724d",
                    "logDecoded": true,
                    "operation": "EVENT",
                    "revert": false,
                    "status": true,
                    "topics": [
                        "0xd78ad95fa46c994b6551d0da85fc275fe613ce37657fb8d5e3d130840159d822",
                        "0x0000000000000000000000005c9321e92ba4eb43f2901c4952358e132163a85a",
                        "0x0000000000000000000000005c9321e92ba4eb43f2901c4952358e132163a85a"
                    ]
                },
                "nodeType": 1
            },
            "15": {
                "invocation": {
                    "address": "0xc02aaa39b223fe8d0a0e5c4f27ead9083c756cc2",
                    "callData": "0x0000000000000000000000005c9321e92ba4eb43f2901c4952358e132163a85a",
                    "decodedMethod": {
                        "callParams": [
                            {
                                "name": "",
                                "type": "address",
                                "value": "0x5c9321e92ba4eb43f2901c4952358e132163a85a"
                            }
                        ],
                        "constructorArguments": "",
                        "name": "balanceOf",
                        "returnParams": [
                            {
                                "decimalAvailable": true,
                                "name": "",
                                "type": "uint256",
                                "value": "328,722,248,655,532,621"
                            }
                        ],
                        "signature": "balanceOf(address)"
                    },
                    "errorInfo": "",
                    "fromAddress": "0x5c9321e92ba4eb43f2901c4952358e132163a85a",
                    "gasUsed": 534,
                    "id": 15,
                    "methodDecoded": true,
                    "operation": "STATICCALL",
                    "output": "0x000000000000000000000000000000000000000000000000048fdb24bce1724d",
                    "revert": false,
                    "revertMessage": "",
                    "selector": "0x70a08231",
                    "status": true,
                    "value": "0"
                },
                "nodeType": 0
            },
            "16": {
                "invocation": {
                    "address": "0x5c9321e92ba4eb43f2901c4952358e132163a85a",
                    "callData": "0x0000000000000000000000000000000000000000000000000000000000000005000000000000000000000000aa67ee4a64ca4ffca3b1d873f784fb29c88dd50a000000000000000000000000000000000000000000000000000000000000004600000000000000000000000027b9c20f64920eb7fbf64491423a54df9594188c",
                    "decodedMethod": {
                        "callParams": [
                            {
                                "name": "amountMinimum",
                                "type": "uint256",
                                "value": "5"
                            },
                            {
                                "name": "recipient",
                                "type": "address",
                                "value": "0xaa67ee4a64ca4ffca3b1d873f784fb29c88dd50a"
                            },
                            {
                                "name": "feeBips",
                                "type": "uint256",
                                "value": "70"
                            },
                            {
                                "name": "feeRecipient",
                                "type": "address",
                                "value": "0x27b9c20f64920eb7fbf64491423a54df9594188c"
                            }
                        ],
                        "constructorArguments": "",
                        "name": "unwrapWETH9WithFee",
                        "returnParams": [],
                        "signature": "unwrapWETH9WithFee(uint256,address,uint256,address)"
                    },
                    "errorInfo": "",
                    "fromAddress": "0x5c9321e92ba4eb43f2901c4952358e132163a85a",
                    "gasUsed": 28298,
                    "id": 16,
                    "methodDecoded": true,
                    "operation": "DELEGATECALL",
                    "output": "",
                    "revert": false,
                    "revertMessage": "",
                    "selector": "0x9b2c0a37",
                    "status": true,
                    "value": "0"
                },
                "nodeType": 0
            },
            "17": {
                "invocation": {
                    "address": "0xc02aaa39b223fe8d0a0e5c4f27ead9083c756cc2",
                    "callData": "0x0000000000000000000000005c9321e92ba4eb43f2901c4952358e132163a85a",
                    "decodedMethod": {
                        "callParams": [
                            {
                                "name": "",
                                "type": "address",
                                "value": "0x5c9321e92ba4eb43f2901c4952358e132163a85a"
                            }
                        ],
                        "constructorArguments": "",
                        "name": "balanceOf",
                        "returnParams": [
                            {
                                "decimalAvailable": true,
                                "name": "",
                                "type": "uint256",
                                "value": "328,722,248,655,532,621"
                            }
                        ],
                        "signature": "balanceOf(address)"
                    },
                    "errorInfo": "",
                    "fromAddress": "0x5c9321e92ba4eb43f2901c4952358e132163a85a",
                    "gasUsed": 534,
                    "id": 17,
                    "methodDecoded": true,
                    "operation": "STATICCALL",
                    "output": "0x000000000000000000000000000000000000000000000000048fdb24bce1724d",
                    "revert": false,
                    "revertMessage": "",
                    "selector": "0x70a08231",
                    "status": true,
                    "value": "0"
                },
                "nodeType": 0
            },
            "18": {
                "invocation": {
                    "address": "0xc02aaa39b223fe8d0a0e5c4f27ead9083c756cc2",
                    "callData": "0x000000000000000000000000000000000000000000000000048fdb24bce1724d",
                    "decodedMethod": {
                        "callParams": [
                            {
                                "name": "wad",
                                "type": "uint256",
                                "value": "328,722,248,655,532,621"
                            }
                        ],
                        "constructorArguments": "",
                        "name": "withdraw",
                        "returnParams": [],
                        "signature": "withdraw(uint256)"
                    },
                    "errorInfo": "",
                    "fromAddress": "0x5c9321e92ba4eb43f2901c4952358e132163a85a",
                    "gasUsed": 9223,
                    "id": 18,
                    "methodDecoded": true,
                    "operation": "CALL",
                    "output": "",
                    "revert": false,
                    "revertMessage": "",
                    "selector": "0x2e1a7d4d",
                    "status": true,
                    "value": "0"
                },
                "nodeType": 0
            },
            "19": {
                "invocation": {
                    "address": "0x5c9321e92ba4eb43f2901c4952358e132163a85a",
                    "callData": "0x",
                    "decodedMethod": null,
                    "errorInfo": "",
                    "fromAddress": "0xc02aaa39b223fe8d0a0e5c4f27ead9083c756cc2",
                    "gasUsed": 83,
                    "id": 19,
                    "methodDecoded": false,
                    "operation": "CALL",
                    "output": "",
                    "revert": false,
                    "revertMessage": "",
                    "selector": "fallback",
                    "status": true,
                    "value": "0.328722248655532621"
                },
                "nodeType": 0
            },
            "2": {
                "invocation": {
                    "address": "0x68370e85a4d439ced9dd91c0a29ab50551f94097",
                    "callData": "0x000000000000000000000000aa67ee4a64ca4ffca3b1d873f784fb29c88dd50a000000000000000000000000577cfa539b0c32fdf9568768f8d9e05c2ae0f987000000000000000000000000000000000000000000000000002e41f0ba77dd9e",
                    "decodedMethod": {
                        "callParams": [
                            {
                                "name": "from",
                                "type": "address",
                                "value": "0xaa67ee4a64ca4ffca3b1d873f784fb29c88dd50a"
                            },
                            {
                                "name": "to",
                                "type": "address",
                                "value": "0x577cfa539b0c32fdf9568768f8d9e05c2ae0f987"
                            },
                            {
                                "decimalAvailable": true,
                                "name": "amount",
                                "type": "uint256",
                                "value": "13,020,351,105,064,350"
                            }
                        ],
                        "constructorArguments": "",
                        "name": "transferFrom",
                        "returnParams": [
                            {
                                "name": "",
                                "type": "bool",
                                "value": true
                            }
                        ],
                        "signature": "transferFrom(address,address,uint256)"
                    },
                    "errorInfo": "",
                    "fromAddress": "0x5c9321e92ba4eb43f2901c4952358e132163a85a",
                    "gasUsed": 47553,
                    "id": 2,
                    "methodDecoded": true,
                    "operation": "CALL",
                    "output": "0x0000000000000000000000000000000000000000000000000000000000000001",
                    "revert": false,
                    "revertMessage": "",
                    "selector": "0x23b872dd",
                    "status": true,
                    "value": "0"
                },
                "nodeType": 0
            },
            "20": {
                "event": {
                    "contract": "0xc02aaa39b223fe8d0a0e5c4f27ead9083c756cc2",
                    "decodedLog": {
                        "name": "Withdrawal",
                        "params": [
                            {
                                "name": "src",
                                "type": "address",
                                "value": "0x5c9321e92ba4eb43f2901c4952358e132163a85a"
                            },
                            {
                                "name": "wad",
                                "type": "uint256",
                                "value": "328,722,248,655,532,621"
                            }
                        ],
                        "signature": "Withdrawal(address,uint256)"
                    },
                    "id": 20,
                    "logData": "0x000000000000000000000000000000000000000000000000048fdb24bce1724d",
                    "logDecoded": true,
                    "operation": "EVENT",
                    "revert": false,
                    "status": true,
                    "topics": [
                        "0x7fcf532c15f0a6db0bd6d0e038bea71d30d808c7d98cb3bf7268a95bf5081b65",
                        "0x0000000000000000000000005c9321e92ba4eb43f2901c4952358e132163a85a"
                    ]
                },
                "nodeType": 1
            },
            "21": {
                "invocation": {
                    "address": "0x27b9c20f64920eb7fbf64491423a54df9594188c",
                    "callData": "0x",
                    "decodedMethod": null,
                    "errorInfo": "",
                    "fromAddress": "0x5c9321e92ba4eb43f2901c4952358e132163a85a",
                    "gasUsed": 0,
                    "id": 21,
                    "methodDecoded": false,
                    "operation": "CALL",
                    "output": "",
                    "revert": false,
                    "revertMessage": "",
                    "selector": "fallback",
                    "status": true,
                    "value": "0.002301055740588728"
                },
                "nodeType": 0
            },
            "22": {
                "invocation": {
                    "address": "0xaa67ee4a64ca4ffca3b1d873f784fb29c88dd50a",
                    "callData": "0x",
                    "decodedMethod": null,
                    "errorInfo": "",
                    "fromAddress": "0x5c9321e92ba4eb43f2901c4952358e132163a85a",
                    "gasUsed": 0,
                    "id": 22,
                    "methodDecoded": false,
                    "operation": "CALL",
                    "output": "",
                    "revert": false,
                    "revertMessage": "",
                    "selector": "fallback",
                    "status": true,
                    "value": "0.326421192914943893"
                },
                "nodeType": 0
            },
            "3": {
                "event": {
                    "contract": "0x68370e85a4d439ced9dd91c0a29ab50551f94097",
                    "decodedLog": {
                        "name": "Approval",
                        "params": [
                            {
                                "name": "owner",
                                "type": "address",
                                "value": "0xaa67ee4a64ca4ffca3b1d873f784fb29c88dd50a"
                            },
                            {
                                "name": "spender",
                                "type": "address",
                                "value": "0x5c9321e92ba4eb43f2901c4952358e132163a85a"
                            },
                            {
                                "decimalAvailable": true,
                                "name": "value",
                                "type": "uint256",
                                "value": "79,228,162,514,251,317,242,438,884,986"
                            }
                        ],
                        "signature": "Approval(address,address,uint256)"
                    },
                    "id": 3,
                    "logData": "0x0000000000000000000000000000000000000000ffffffffffd1be0f45881e7a",
                    "logDecoded": true,
                    "operation": "EVENT",
                    "revert": false,
                    "status": true,
                    "topics": [
                        "0x8c5be1e5ebec7d5bd14f71427d1e84f3dd0314c0f7b2291e5b200ac8c7c3b925",
                        "0x000000000000000000000000aa67ee4a64ca4ffca3b1d873f784fb29c88dd50a",
                        "0x0000000000000000000000005c9321e92ba4eb43f2901c4952358e132163a85a"
                    ]
                },
                "nodeType": 1
            },
            "4": {
                "event": {
                    "contract": "0x68370e85a4d439ced9dd91c0a29ab50551f94097",
                    "decodedLog": {
                        "name": "Transfer",
                        "params": [
                            {
                                "name": "from",
                                "type": "address",
                                "value": "0xaa67ee4a64ca4ffca3b1d873f784fb29c88dd50a"
                            },
                            {
                                "name": "to",
                                "type": "address",
                                "value": "0x577cfa539b0c32fdf9568768f8d9e05c2ae0f987"
                            },
                            {
                                "decimalAvailable": true,
                                "name": "value",
                                "type": "uint256",
                                "value": "13,020,351,105,064,350"
                            }
                        ],
                        "signature": "Transfer(address,address,uint256)"
                    },
                    "id": 4,
                    "logData": "0x000000000000000000000000000000000000000000000000002e41f0ba77dd9e",
                    "logDecoded": true,
                    "operation": "EVENT",
                    "revert": false,
                    "status": true,
                    "topics": [
                        "0xddf252ad1be2c89b69c2b068fc378daa952ba7f163c4a11628f55a4df523b3ef",
                        "0x000000000000000000000000aa67ee4a64ca4ffca3b1d873f784fb29c88dd50a",
                        "0x000000000000000000000000577cfa539b0c32fdf9568768f8d9e05c2ae0f987"
                    ]
                },
                "nodeType": 1
            },
            "5": {
                "invocation": {
                    "address": "0xc02aaa39b223fe8d0a0e5c4f27ead9083c756cc2",
                    "callData": "0x0000000000000000000000005c9321e92ba4eb43f2901c4952358e132163a85a",
                    "decodedMethod": {
                        "callParams": [
                            {
                                "name": "",
                                "type": "address",
                                "value": "0x5c9321e92ba4eb43f2901c4952358e132163a85a"
                            }
                        ],
                        "constructorArguments": "",
                        "name": "balanceOf",
                        "returnParams": [
                            {
                                "decimalAvailable": true,
                                "name": "",
                                "type": "uint256",
                                "value": "0"
                            }
                        ],
                        "signature": "balanceOf(address)"
                    },
                    "errorInfo": "",
                    "fromAddress": "0x5c9321e92ba4eb43f2901c4952358e132163a85a",
                    "gasUsed": 2534,
                    "id": 5,
                    "methodDecoded": true,
                    "operation": "STATICCALL",
                    "output": "0x0000000000000000000000000000000000000000000000000000000000000000",
                    "revert": false,
                    "revertMessage": "",
                    "selector": "0x70a08231",
                    "status": true,
                    "value": "0"
                },
                "nodeType": 0
            },
            "6": {
                "invocation": {
                    "address": "0x577cfa539b0c32fdf9568768f8d9e05c2ae0f987",
                    "callData": "0x",
                    "decodedMethod": {
                        "callParams": [],
                        "constructorArguments": "",
                        "name": "getReserves",
                        "returnParams": [
                            {
                                "name": "_reserve0",
                                "type": "uint112",
                                "value": "203,807,685,554,786,936"
                            },
                            {
                                "name": "_reserve1",
                                "type": "uint112",
                                "value": "5,489,697,808,231,902,983"
                            },
                            {
                                "name": "_blockTimestampLast",
                                "type": "uint32",
                                "value": "1,716,420,515"
                            }
                        ],
                        "signature": "getReserves()"
                    },
                    "errorInfo": "",
                    "fromAddress": "0x5c9321e92ba4eb43f2901c4952358e132163a85a",
                    "gasUsed": 2504,
                    "id": 6,
                    "methodDecoded": true,
                    "operation": "STATICCALL",
                    "output": "0x00000000000000000000000000000000000000000000000002d412029bfcd2780000000000000000000000000000000000000000000000004c2f531227e72f0700000000000000000000000000000000000000000000000000000000664e7fa3",
                    "revert": false,
                    "revertMessage": "",
                    "selector": "0x0902f1ac",
                    "status": true,
                    "value": "0"
                },
                "nodeType": 0
            },
            "7": {
                "invocation": {
                    "address": "0x68370e85a4d439ced9dd91c0a29ab50551f94097",
                    "callData": "0x000000000000000000000000577cfa539b0c32fdf9568768f8d9e05c2ae0f987",
                    "decodedMethod": {
                        "callParams": [
                            {
                                "name": "account",
                                "type": "address",
                                "value": "0x577cfa539b0c32fdf9568768f8d9e05c2ae0f987"
                            }
                        ],
                        "constructorArguments": "",
                        "name": "balanceOf",
                        "returnParams": [
                            {
                                "decimalAvailable": true,
                                "name": "",
                                "type": "uint256",
                                "value": "216,828,036,659,851,286"
                            }
                        ],
                        "signature": "balanceOf(address)"
                    },
                    "errorInfo": "",
                    "fromAddress": "0x5c9321e92ba4eb43f2901c4952358e132163a85a",
                    "gasUsed": 676,
                    "id": 7,
                    "methodDecoded": true,
                    "operation": "STATICCALL",
                    "output": "0x000000000000000000000000000000000000000000000000030253f35674b016",
                    "revert": false,
                    "revertMessage": "",
                    "selector": "0x70a08231",
                    "status": true,
                    "value": "0"
                },
                "nodeType": 0
            },
            "8": {
                "invocation": {
                    "address": "0x577cfa539b0c32fdf9568768f8d9e05c2ae0f987",
                    "callData": "0x0000000000000000000000000000000000000000000000000000000000000000000000000000000000000000000000000000000000000000048fdb24bce1724d0000000000000000000000005c9321e92ba4eb43f2901c4952358e132163a85a00000000000000000000000000000000000000000000000000000000000000800000000000000000000000000000000000000000000000000000000000000000",
                    "decodedMethod": {
                        "callParams": [
                            {
                                "name": "amount0Out",
                                "type": "uint256",
                                "value": "0"
                            },
                            {
                                "name": "amount1Out",
                                "type": "uint256",
                                "value": "328,722,248,655,532,621"
                            },
                            {
                                "name": "to",
                                "type": "address",
                                "value": "0x5c9321e92ba4eb43f2901c4952358e132163a85a"
                            },
                            {
                                "name": "data",
                                "type": "bytes",
                                "value": "0x"
                            }
                        ],
                        "constructorArguments": "",
                        "name": "swap",
                        "returnParams": [],
                        "signature": "swap(uint256,uint256,address,bytes)"
                    },
                    "errorInfo": "",
                    "fromAddress": "0x5c9321e92ba4eb43f2901c4952358e132163a85a",
                    "gasUsed": 60495,
                    "id": 8,
                    "methodDecoded": true,
                    "operation": "CALL",
                    "output": "",
                    "revert": false,
                    "revertMessage": "",
                    "selector": "0x022c0d9f",
                    "status": true,
                    "value": "0"
                },
                "nodeType": 0
            },
            "9": {
                "invocation": {
                    "address": "0xc02aaa39b223fe8d0a0e5c4f27ead9083c756cc2",
                    "callData": "0x0000000000000000000000005c9321e92ba4eb43f2901c4952358e132163a85a000000000000000000000000000000000000000000000000048fdb24bce1724d",
                    "decodedMethod": {
                        "callParams": [
                            {
                                "name": "dst",
                                "type": "address",
                                "value": "0x5c9321e92ba4eb43f2901c4952358e132163a85a"
                            },
                            {
                                "decimalAvailable": true,
                                "name": "wad",
                                "type": "uint256",
                                "value": "328,722,248,655,532,621"
                            }
                        ],
                        "constructorArguments": "",
                        "name": "transfer",
                        "returnParams": [
                            {
                                "name": "",
                                "type": "bool",
                                "value": true
                            }
                        ],
                        "signature": "transfer(address,uint256)"
                    },
                    "errorInfo": "",
                    "fromAddress": "0x577cfa539b0c32fdf9568768f8d9e05c2ae0f987",
                    "gasUsed": 27962,
                    "id": 9,
                    "methodDecoded": true,
                    "operation": "CALL",
                    "output": "0x0000000000000000000000000000000000000000000000000000000000000001",
                    "revert": false,
                    "revertMessage": "",
                    "selector": "0xa9059cbb",
                    "status": true,
                    "value": "0"
                },
                "nodeType": 0
            }
        },
        "gasFlame": [
            {
                "children": [
                    {
                        "children": [
                            {
                                "children": [],
                                "depth": 0,
                                "name": "Initial Gas",
                                "value": 25784
                            },
                            {
                                "children": [
                                    {
                                        "children": [
                                            {
                                                "children": [],
                                                "depth": 2,
                                                "name": "transferFrom",
                                                "value": 47553
                                            },
                                            {
                                                "children": [],
                                                "depth": 2,
                                                "name": "balanceOf",
                                                "value": 2534
                                            },
                                            {
                                                "children": [],
                                                "depth": 2,
                                                "name": "getReserves",
                                                "value": 2504
                                            },
                                            {
                                                "children": [],
                                                "depth": 2,
                                                "name": "balanceOf",
                                                "value": 676
                                            },
                                            {
                                                "children": [
                                                    {
                                                        "children": [],
                                                        "depth": 3,
                                                        "name": "transfer",
                                                        "value": 27962
                                                    },
                                                    {
                                                        "children": [],
                                                        "depth": 3,
                                                        "name": "balanceOf",
                                                        "value": 676
                                                    },
                                                    {
                                                        "children": [],
                                                        "depth": 3,
                                                        "name": "balanceOf",
                                                        "value": 534
                                                    }
                                                ],
                                                "depth": 2,
                                                "name": "swap",
                                                "value": 60495
                                            },
                                            {
                                                "children": [],
                                                "depth": 2,
                                                "name": "balanceOf",
                                                "value": 534
                                            }
                                        ],
                                        "depth": 1,
                                        "name": "swapExactTokensForTokens",
                                        "value": 131078
                                    },
                                    {
                                        "children": [
                                            {
                                                "children": [],
                                                "depth": 2,
                                                "name": "balanceOf",
                                                "value": 534
                                            },
                                            {
                                                "children": [
                                                    {
                                                        "children": [],
                                                        "depth": 3,
                                                        "name": "fallback",
                                                        "value": 83
                                                    }
                                                ],
                                                "depth": 2,
                                                "name": "withdraw",
                                                "value": 9223
                                            },
                                            {
                                                "children": [],
                                                "depth": 2,
                                                "name": "fallback",
                                                "value": 0
                                            },
                                            {
                                                "children": [],
                                                "depth": 2,
                                                "name": "fallback",
                                                "value": 0
                                            }
                                        ],
                                        "depth": 1,
                                        "name": "unwrapWETH9WithFee",
                                        "value": 28298
                                    }
                                ],
                                "depth": 0,
                                "name": "Executed Gas",
                                "value": 164846
                            }
                        ],
                        "depth": -1,
                        "name": "Actual Gas Used",
                        "value": 163130
                    },
                    {
                        "children": [],
                        "depth": -1,
                        "name": "Refunded Gas",
                        "value": 27500
                    }
                ],
                "depth": -2,
                "name": "Total Gas",
                "value": 190630
            }
        ],
        "isConfirmed": true,
        "mainTrace": [
            {
                "children": [
                    {
                        "children": [
                            {
                                "children": [
                                    {
                                        "children": [
                                            {
                                                "children": [],
                                                "depth": 3,
                                                "id": 3,
                                                "order": 3
                                            },
                                            {
                                                "children": [],
                                                "depth": 3,
                                                "id": 4,
                                                "order": 4
                                            }
                                        ],
                                        "depth": 2,
                                        "id": 2,
                                        "order": 2
                                    },
                                    {
                                        "children": [],
                                        "depth": 2,
                                        "id": 5,
                                        "order": 5
                                    },
                                    {
                                        "children": [],
                                        "depth": 2,
                                        "id": 6,
                                        "order": 6
                                    },
                                    {
                                        "children": [],
                                        "depth": 2,
                                        "id": 7,
                                        "order": 7
                                    },
                                    {
                                        "children": [
                                            {
                                                "children": [
                                                    {
                                                        "children": [],
                                                        "depth": 4,
                                                        "id": 10,
                                                        "order": 10
                                                    }
                                                ],
                                                "depth": 3,
                                                "id": 9,
                                                "order": 9
                                            },
                                            {
                                                "children": [],
                                                "depth": 3,
                                                "id": 11,
                                                "order": 11
                                            },
                                            {
                                                "children": [],
                                                "depth": 3,
                                                "id": 12,
                                                "order": 12
                                            },
                                            {
                                                "children": [],
                                                "depth": 3,
                                                "id": 13,
                                                "order": 13
                                            },
                                            {
                                                "children": [],
                                                "depth": 3,
                                                "id": 14,
                                                "order": 14
                                            }
                                        ],
                                        "depth": 2,
                                        "id": 8,
                                        "order": 8
                                    },
                                    {
                                        "children": [],
                                        "depth": 2,
                                        "id": 15,
                                        "order": 15
                                    }
                                ],
                                "depth": 1,
                                "id": 1,
                                "order": 1
                            },
                            {
                                "children": [
                                    {
                                        "children": [],
                                        "depth": 2,
                                        "id": 17,
                                        "order": 17
                                    },
                                    {
                                        "children": [
                                            {
                                                "children": [],
                                                "depth": 3,
                                                "id": 19,
                                                "order": 19
                                            },
                                            {
                                                "children": [],
                                                "depth": 3,
                                                "id": 20,
                                                "order": 20
                                            }
                                        ],
                                        "depth": 2,
                                        "id": 18,
                                        "order": 18
                                    },
                                    {
                                        "children": [],
                                        "depth": 2,
                                        "id": 21,
                                        "order": 21
                                    },
                                    {
                                        "children": [],
                                        "depth": 2,
                                        "id": 22,
                                        "order": 22
                                    }
                                ],
                                "depth": 1,
                                "id": 16,
                                "order": 16
                            }
                        ],
                        "depth": 0,
                        "id": 0,
                        "order": 0
                    }
                ],
                "depth": -1,
                "id": -1,
                "order": -1
            }
        ],
        "mainTraceNodeCount": 23,
        "parentIdMap": {
            "0": -1,
            "1": 0,
            "10": 9,
            "11": 8,
            "12": 8,
            "13": 8,
            "14": 8,
            "15": 1,
            "16": 0,
            "17": 16,
            "18": 16,
            "19": 18,
            "2": 1,
            "20": 18,
            "21": 16,
            "22": 16,
            "3": 2,
            "4": 2,
            "5": 1,
            "6": 1,
            "7": 1,
            "8": 1,
            "9": 8
        },
        "tidyTrace": [
            {
                "children": [
                    {
                        "children": [
                            {
                                "children": [
                                    {
                                        "children": [
                                            {
                                                "children": [],
                                                "depth": 3,
                                                "id": 3,
                                                "order": 3
                                            },
                                            {
                                                "children": [],
                                                "depth": 3,
                                                "id": 4,
                                                "order": 4
                                            }
                                        ],
                                        "depth": 2,
                                        "id": 2,
                                        "order": 2
                                    },
                                    {
                                        "children": [
                                            {
                                                "children": [
                                                    {
                                                        "children": [],
                                                        "depth": 4,
                                                        "id": 10,
                                                        "order": 10
                                                    }
                                                ],
                                                "depth": 3,
                                                "id": 9,
                                                "order": 9
                                            },
                                            {
                                                "children": [],
                                                "depth": 3,
                                                "id": 13,
                                                "order": 13
                                            },
                                            {
                                                "children": [],
                                                "depth": 3,
                                                "id": 14,
                                                "order": 14
                                            }
                                        ],
                                        "depth": 2,
                                        "id": 8,
                                        "order": 8
                                    }
                                ],
                                "depth": 1,
                                "id": 1,
                                "order": 1
                            },
                            {
                                "children": [
                                    {
                                        "children": [
                                            {
                                                "children": [],
                                                "depth": 3,
                                                "id": 19,
                                                "order": 19
                                            },
                                            {
                                                "children": [],
                                                "depth": 3,
                                                "id": 20,
                                                "order": 20
                                            }
                                        ],
                                        "depth": 2,
                                        "id": 18,
                                        "order": 18
                                    },
                                    {
                                        "children": [],
                                        "depth": 2,
                                        "id": 21,
                                        "order": 21
                                    },
                                    {
                                        "children": [],
                                        "depth": 2,
                                        "id": 22,
                                        "order": 22
                                    }
                                ],
                                "depth": 1,
                                "id": 16,
                                "order": 16
                            }
                        ],
                        "depth": 0,
                        "id": 0,
                        "order": 0
                    }
                ],
                "depth": -1,
                "id": -1,
                "order": -1
            }
        ],
        "tidyTraceNodeCount": 16
    },
    "state_change": {
        "stateChanges": [
            {
                "address": "0x577cfa539b0c32fdf9568768f8d9e05c2ae0f987",
                "erc": "ERC-20",
                "slots": [
                    {
                        "current": "0x664e7fc7000000000000479f77ed6b05bcba000000000000030253f35674b016",
                        "key": "0x0000000000000000000000000000000000000000000000000000000000000008",
                        "prev": "0x664e7fa30000000000004c2f531227e72f0700000000000002d412029bfcd278"
                    },
                    {
                        "current": "0x0000000000000000000000000000000b39c642cf5c7e5110749962fc669900c0",
                        "key": "0x0000000000000000000000000000000000000000000000000000000000000009",
                        "prev": "0x0000000000000000000000000000000b35fc939e7105166228a21b3dfe9e30c8"
                    },
                    {
                        "current": "0x000000000000000000000000000000000101f862b23986a20313575681b41140",
                        "key": "0x000000000000000000000000000000000000000000000000000000000000000a",
                        "prev": "0x000000000000000000000000000000000100a23cb0ffd8f2578c377afbc98070"
                    }
                ],
                "storageVariables": [
                    {
                        "name": "price0CumulativeLast",
                        "type": "uint256",
                        "value": {
                            "current": "3819901461735942008558122647476135067840",
                            "prev": "3814866572782513786414411341973482778824",
                            "typeTag": 1
                        }
                    },
                    {
                        "name": "price1CumulativeLast",
                        "type": "uint256",
                        "value": {
                            "current": "1339458149742959018322878047337058624",
                            "prev": "1332518554609120613512048523203936368",
                            "typeTag": 1
                        }
                    },
                    {
                        "name": "reserve0",
                        "type": "uint112",
                        "value": {
                            "current": "216828036659851286",
                            "prev": "203807685554786936",
                            "typeTag": 1
                        }
                    },
                    {
                        "name": "reserve1",
                        "type": "uint112",
                        "value": {
                            "current": "5160975559576370362",
                            "prev": "5489697808231902983",
                            "typeTag": 1
                        }
                    },
                    {
                        "name": "blockTimestampLast",
                        "type": "uint32",
                        "value": {
                            "current": "1716420551",
                            "prev": "1716420515",
                            "typeTag": 1
                        }
                    }
                ]
            },
            {
                "address": "0x68370e85a4d439ced9dd91c0a29ab50551f94097",
                "erc": "ERC-20",
                "slots": [
                    {
                        "current": "0x0000000000000000000000000000000000000000ffffffffffd1be0f45881e7a",
                        "key": "0x68c5e3e758d638d42cd3e8115068cbaf961d1d9073a7e42bd23d58251fca5ba8",
                        "prev": "0x0000000000000000000000000000000000000000fffffffffffffffffffffc18"
                    },
                    {
                        "current": "0x0000000000000000000000000000000000000000000000000000000000000000",
                        "key": "0x2a529c52ec2dcff3b96277a325c7b5eb8887e5af522b8ed14a2075db7f07421b",
                        "prev": "0x000000000000000000000000000000000000000000000000002e41f0ba77dd9e"
                    },
                    {
                        "current": "0x000000000000000000000000000000000000000000000000030253f35674b016",
                        "key": "0xd800e2a188ba352afbc112ec3c7baa8c4d641c0a1709d83fc4bb9ae7f5fababe",
                        "prev": "0x00000000000000000000000000000000000000000000000002d412029bfcd278"
                    }
                ],
                "storageVariables": [
                    {
                        "name": "_allowances",
                        "type": "mapping(address => mapping(address => uint256))",
                        "value": {
                            "pairs": [
                                {
                                    "key": "0xaa67ee4a64ca4ffca3b1d873f784fb29c88dd50a",
                                    "value": {
                                        "pairs": [
                                            {
                                                "key": "0x5c9321e92ba4eb43f2901c4952358e132163a85a",
                                                "value": {
                                                    "current": "79228162514251317242438884986",
                                                    "prev": "79228162514264337593543949336",
                                                    "typeTag": 1
                                                }
                                            }
                                        ],
                                        "typeTag": 4
                                    }
                                }
                            ],
                            "typeTag": 4
                        }
                    },
                    {
                        "name": "_balances",
                        "type": "mapping(address => uint256)",
                        "value": {
                            "pairs": [
                                {
                                    "key": "0x577cfa539b0c32fdf9568768f8d9e05c2ae0f987",
                                    "value": {
                                        "current": "216828036659851286",
                                        "prev": "203807685554786936",
                                        "typeTag": 1
                                    }
                                },
                                {
                                    "key": "0xaa67ee4a64ca4ffca3b1d873f784fb29c88dd50a",
                                    "value": {
                                        "current": "0",
                                        "prev": "13020351105064350",
                                        "typeTag": 1
                                    }
                                }
                            ],
                            "typeTag": 4
                        }
                    }
                ]
            },
            {
                "address": "0xc02aaa39b223fe8d0a0e5c4f27ead9083c756cc2",
                "erc": "ERC-20",
                "slots": [
                    {
                        "current": "0x000000000000000000000000000000000000000000000000479f77ed6b05bcba",
                        "key": "0x86581a77b35e939967fd78708e4b8cc93dfd1e4169e11fe0f5593c0d797dd209",
                        "prev": "0x0000000000000000000000000000000000000000000000004c2f531227e72f07"
                    }
                ],
                "storageVariables": [
                    {
                        "name": "balanceOf",
                        "type": "mapping(address => uint256)",
                        "value": {
                            "pairs": [
                                {
                                    "key": "0x577cfa539b0c32fdf9568768f8d9e05c2ae0f987",
                                    "value": {
                                        "current": "5160975559576370362",
                                        "prev": "5489697808231902983",
                                        "typeTag": 1
                                    }
                                }
                            ],
                            "typeTag": 4
                        }
                    }
                ]
            }
        ]
    }
}