{
    "balance_change": {
        "balanceChanges": [
            {
                "account": "0x1566f41b908e2526778c43bf7920b5d896457e94",
                "assets": [
                    {
                        "address": "0x639fa7dabf29d6dbff797282400f45660d27b5c2",
                        "amount": "2,019.822907",
                        "iconUrl": "",
                        "isERC1155": false,
                        "isERC721": false,
                        "sign": true,
                        "value": ""
                    }
                ]
            },
            {
                "account": "0x156be07376685917120916c0d585edb8b92c7e94",
                "assets": [
                    {
                        "address": "0x97bda3107b539407d7ed53361c537875147a3201",
                        "amount": "2,019.822907",
                        "iconUrl": "",
                        "isERC1155": false,
                        "isERC721": false,
                        "sign": true,
                        "value": ""
                    }
                ]
            },
            {
                "account": "0x27212df1eacde2f402dc40b32505f00191bb00c4",
                "assets": [
                    {
                        "address": "0x5a7279fd65794e51db6278487af540143a74ce1a",
                        "amount": "1,637.308627",
                        "iconUrl": "",
                        "isERC1155": false,
                        "isERC721": false,
                        "sign": true,
                        "value": ""
                    }
                ]
            },
            {
                "account": "0x272a2d95aa40e90f08bd952de7f144580ecc00c4",
                "assets": [
                    {
                        "address": "0x851af75888c00748ea3c155fa50cf257cb8e2b3e",
                        "amount": "1,637.308627",
                        "iconUrl": "",
                        "isERC1155": false,
                        "isERC721": false,
                        "sign": true,
                        "value": ""
                    }
                ]
            },
            {
                "account": "0x5a13c5f6bac6df23357a6ee148d0dfed45466cfe",
                "assets": [
                    {
                        "address": "0x97bda3107b539407d7ed53361c537875147a3201",
                        "amount": "1,282",
                        "iconUrl": "",
                        "isERC1155": false,
                        "isERC721": false,
                        "sign": true,
                        "value": ""
                    }
                ]
            },
            {
                "account": "0x774f2096804c8b8a986f251e4b58585f39aae372",
                "assets": [
                    {
                        "address": "0x4c3f54ddb311689fc80d724041f9a1649e0cc848",
                        "amount": "25,283.62267",
                        "iconUrl": "",
                        "isERC1155": false,
                        "isERC721": false,
                        "sign": false,
                        "value": ""
                    }
                ]
            },
            {
                "account": "0x88e6a0c5df6e33b4b048600808f5c77acb3f5640",
                "assets": [
                    {
                        "address": "0x4c3f54ddb311689fc80d724041f9a1649e0cc848",
                        "amount": "25,283.62267",
                        "iconUrl": "",
                        "isERC1155": false,
                        "isERC721": false,
                        "sign": true,
                        "value": ""
                    }
                ]
            },
            {
                "account": "0xa8778122338574b4278329b64890c4574abc9564",
                "assets": [
                    {
                        "address": "0x97bda3107b539407d7ed53361c537875147a3201",
                        "amount": "1,282",
                        "iconUrl": "",
                        "isERC1155": false,
                        "isERC721": false,
                        "sign": false,
                        "value": ""
                    }
                ]
            },
            {
                "account": "0xf43696e68ca4001c1489f90467fbf70f305e92c6",
                "assets": [
                    {
                        "address": "0x639fa7dabf29d6dbff797282400f45660d27b5c2",
                        "amount": "2,019.822907",
                        "iconUrl": "",
                        "isERC1155": false,
                        "isERC721": false,
                        "sign": false,
                        "value": ""
                    }
                ]
            },
            {
                "account": "0xf43ce3ffd5417a19252fa49a1e90c84b14a392c6",
                "assets": [
                    {
                        "address": "0x97bda3107b539407d7ed53361c537875147a3201",
                        "amount": "2,019.822907",
                        "iconUrl": "",
                        "isERC1155": false,
                        "isERC721": false,
                        "sign": false,
                        "value": ""
                    }
                ]
            },
            {
                "account": "0xfb3862415eeadc631a46ed567c1951116f32aaf6",
                "assets": [
                    {
                        "address": "0x5a7279fd65794e51db6278487af540143a74ce1a",
                        "amount": "1,637.308627",
                        "iconUrl": "",
                        "isERC1155": false,
                        "isERC721": false,
                        "sign": false,
                        "value": ""
                    }
                ]
            },
            {
                "account": "0xfb3a175ce3cb33d9f464a3c5ea0b834dae2aaaf6",
                "assets": [
                    {
                        "address": "0x851af75888c00748ea3c155fa50cf257cb8e2b3e",
                        "amount": "1,637.308627",
                        "iconUrl": "",
                        "isERC1155": false,
                        "isERC721": false,
                        "sign": false,
                        "value": ""
                    }
                ]
            }
        ]
    },
    "profile": {
        "basic_info": {
            "baseFee": "30.837429998",
            "blockNumber": 19611232,
            "callData": "0x12514bba0000000000000000000000000000000000000000000000000000000000000020000000000000000000000000000000000000000000000000000000000000001c0000000000000000000000005a7279fd65794e51db6278487af540143a74ce1a00000000000000000000000097bda3107b539407d7ed53361c537875147a32010000000000000000000000004c3f54ddb311689fc80d724041f9a1649e0cc848000000000000000000000000851af75888c00748ea3c155fa50cf257cb8e2b3e000000000000000000000000639fa7dabf29d6dbff797282400f45660d27b5c200000000000000000000000097bda3107b539407d7ed53361c537875147a3201000000000000000000000000639fa7dabf29d6dbff797282400f45660d27b5c2000000000000000000000000fb3862415eeadc631a46ed567c1951116f32aaf6000000000000000000000000f43ce3ffd5417a19252fa49a1e90c84b14a392c6000000000000000000000000774f2096804c8b8a986f251e4b58585f39aae372000000000000000000000000fb3a175ce3cb33d9f464a3c5ea0b834dae2aaaf6000000000000000000000000f43696e68ca4001c1489f90467fbf70f305e92c6000000000000000000000000a8778122338574b4278329b64890c4574abc9564000000000000000000000000e5818d70a9b5aed2bfde4e41fbcb07dd80f8fc8400000000000000000000000027212df1eacde2f402dc40b32505f00191bb00c4000000000000000000000000156be07376685917120916c0d585edb8b92c7e9400000000000000000000000088e6a0c5df6e33b4b048600808f5c77acb3f5640000000000000000000000000272a2d95aa40e90f08bd952de7f144580ecc00c40000000000000000000000001566f41b908e2526778c43bf7920b5d896457e940000000000000000000000005a13c5f6bac6df23357a6ee148d0dfed45466cfe000000000000000000000000f2e77aaf15fb60371f1aec0fc5422cc621bea28e00000000000000000000000000000000000000000000000016b8e3857c047e000000000000000000000000000000000000000000000000001c07da3b80ee8e000000000000000000000000000000000000000000000000015ee178dc285d0c0000000000000000000000000000000000000000000000000016b8e3857c047e000000000000000000000000000000000000000000000000001c07da3b80ee8e0000000000000000000000000000000000000000000000000011ca94352a0d00000000000000000000000000000000000000000000000000004563918244f40000",
            "debugEnable": true,
            "errorInfo": "",
            "eventCount": 6,
            "feeRecipient": "0x95222290dd7278aa3ddd389cc1e1d165cc4bafe5",
            "formatValue": "0",
            "gasLimit": 18500000,
            "gasPrice": "33.837429998",
            "gasUsed": 63348,
            "intTxnCount": 7,
            "internalRevert": false,
            "internalRevertMessage": "",
            "isContractCreation": false,
            "isFlashloan": false,
            "maxFee": "200",
            "nonce": 1494,
            "overwritedBlockNumber": -1,
            "priorityFee": "3",
            "receiver": "0xcb18c3bb1adbdd79362c352db945ba71434ac0d2",
            "revertMessage": "",
            "sender": "0x666e80b80b8f9611f9b16b9debf4b916260924eb",
            "simulationEnable": true,
            "sourceTxnHash": "0x0a879b259bc58fc92a8b04fa8d514248c0367094421f81a2e2a89d0725e0e025",
            "status": true,
            "timestamp": "2024-04-08T13:24:59Z",
            "transactionFee": "0.002143533515513304",
            "txnHash": "0x0a879b259bc58fc92a8b04fa8d514248c0367094421f81a2e2a89d0725e0e025",
            "txnIndex": 37,
            "type": 2,
            "value": "0"
        },
        "fund_flow": [
            {
                "amount": "1,637.308627",
                "from": "0xfb3862415eeadc631a46ed567c1951116f32aaf6",
                "id": 1,
                "isERC1155": false,
                "isERC721": false,
                "isReverted": false,
                "order": 1,
                "to": "0x27212df1eacde2f402dc40b32505f00191bb00c4",
                "token": "0x5a7279fd65794e51db6278487af540143a74ce1a"
            },
            {
                "amount": "2,019.822907",
                "from": "0xf43ce3ffd5417a19252fa49a1e90c84b14a392c6",
                "id": 2,
                "isERC1155": false,
                "isERC721": false,
                "isReverted": false,
                "order": 2,
                "to": "0x156be07376685917120916c0d585edb8b92c7e94",
                "token": "0x97bda3107b539407d7ed53361c537875147a3201"
            },
            {
                "amount": "25,283.62267",
                "from": "0x774f2096804c8b8a986f251e4b58585f39aae372",
                "id": 3,
                "isERC1155": false,
                "isERC721": false,
                "isReverted": false,
                "order": 3,
                "to": "0x88e6a0c5df6e33b4b048600808f5c77acb3f5640",
                "token": "0x4c3f54ddb311689fc80d724041f9a1649e0cc848"
            },
            {
                "amount": "1,637.308627",
                "from": "0xfb3a175ce3cb33d9f464a3c5ea0b834dae2aaaf6",
                "id": 4,
                "isERC1155": false,
                "isERC721": false,
                "isReverted": false,
                "order": 4,
                "to": "0x272a2d95aa40e90f08bd952de7f144580ecc00c4",
                "token": "0x851af75888c00748ea3c155fa50cf257cb8e2b3e"
            },
            {
                "amount": "2,019.822907",
                "from": "0xf43696e68ca4001c1489f90467fbf70f305e92c6",
                "id": 5,
                "isERC1155": false,
                "isERC721": false,
                "isReverted": false,
                "order": 5,
                "to": "0x1566f41b908e2526778c43bf7920b5d896457e94",
                "token": "0x639fa7dabf29d6dbff797282400f45660d27b5c2"
            },
            {
                "amount": "1,282",
                "from": "0xa8778122338574b4278329b64890c4574abc9564",
                "id": 6,
                "isERC1155": false,
                "isERC721": false,
                "isReverted": false,
                "order": 6,
                "to": "0x5a13c5f6bac6df23357a6ee148d0dfed45466cfe",
                "token": "0x97bda3107b539407d7ed53361c537875147a3201"
            }
        ],
        "token_infos": [
            {
                "address": "0x4c3f54ddb311689fc80d724041f9a1649e0cc848",
                "decimals": 15
            },
            {
                "address": "0x5a7279fd65794e51db6278487af540143a74ce1a",
                "decimals": 15
            },
            {
                "address": "0x639fa7dabf29d6dbff797282400f45660d27b5c2",
                "decimals": 15
            },
            {
                "address": "0x851af75888c00748ea3c155fa50cf257cb8e2b3e",
                "decimals": 15
            },
            {
                "address": "0x97bda3107b539407d7ed53361c537875147a3201",
                "decimals": 15
            },
            {
                "address": "0xc02aaa39b223fe8d0a0e5c4f27ead9083c756cc2",
                "decimals": 18
            },
            {
                "address": "0xeeeeeeeeeeeeeeeeeeeeeeeeeeeeeeeeeeeeeeee",
                "decimals": 18
            }
        ]
    },
    "address_label": {
        "labels": [
            {
                "address": "0x639fa7dabf29d6dbff797282400f45660d27b5c2",
                "label": "0x639f_U\u0405D\u0422"
            },
            {
                "address": "0x0000000000000000000000000000000000000001",
                "label": "Precompiled"
            },
            {
                "address": "0x0000000000000000000000000000000000000003",
                "label": "Precompiled"
            },
            {
                "address": "0x5a7279fd65794e51db6278487af540143a74ce1a",
                "label": "0x5a72_U\u0405D\u0422"
            },
            {
                "address": "0x27212df1eacde2f402dc40b32505f00191bb00c4",
                "label": "BINANCE"
            },
            {
                "address": "0x4c3f54ddb311689fc80d724041f9a1649e0cc848",
                "label": "U\u0405D\u0421"
            },
            {
                "address": "0x851af75888c00748ea3c155fa50cf257cb8e2b3e",
                "label": "0x851a_U\u0405D\u0422"
            },
            {
                "address": "0x97bda3107b539407d7ed53361c537875147a3201",
                "label": "0x97bd_U\u0405D\u0422"
            },
            {
                "address": "0x0000000000000000000000000000000000000002",
                "label": "Precompiled"
            },
            {
                "address": "0x0000000000000000000000000000000000000004",
                "label": "Precompiled"
            },
            {
                "address": "0xeeeeeeeeeeeeeeeeeeeeeeeeeeeeeeeeeeeeeeee",
                "label": "Ether"
            }
        ]
    },
    "trace": {
        "accountLabels": null,
        "dataMap": {
            "-1": {
                "invocation": {
                    "address": "0x666e80b80b8f9611f9b16b9debf4b916260924eb",
                    "callData": "",
                    "decodedMethod": null,
                    "errorInfo": "",
                    "fromAddress": "",
                    "gasUsed": 0,
                    "id": -1,
                    "methodDecoded": false,
                    "operation": "",
                    "output": "",
                    "revert": false,
                    "revertMessage": "",
                    "selector": "",
                    "status": false,
                    "value": ""
                },
                "nodeType": 0
            },
            "0": {
                "invocation": {
                    "address": "0xcb18c3bb1adbdd79362c352db945ba71434ac0d2",
                    "callData": "0x0000000000000000000000000000000000000000000000000000000000000020000000000000000000000000000000000000000000000000000000000000001c0000000000000000000000005a7279fd65794e51db6278487af540143a74ce1a00000000000000000000000097bda3107b539407d7ed53361c537875147a32010000000000000000000000004c3f54ddb311689fc80d724041f9a1649e0cc848000000000000000000000000851af75888c00748ea3c155fa50cf257cb8e2b3e000000000000000000000000639fa7dabf29d6dbff797282400f45660d27b5c200000000000000000000000097bda3107b539407d7ed53361c537875147a3201000000000000000000000000639fa7dabf29d6dbff797282400f45660d27b5c2000000000000000000000000fb3862415eeadc631a46ed567c1951116f32aaf6000000000000000000000000f43ce3ffd5417a19252fa49a1e90c84b14a392c6000000000000000000000000774f2096804c8b8a986f251e4b58585f39aae372000000000000000000000000fb3a175ce3cb33d9f464a3c5ea0b834dae2aaaf6000000000000000000000000f43696e68ca4001c1489f90467fbf70f305e92c6000000000000000000000000a8778122338574b4278329b64890c4574abc9564000000000000000000000000e5818d70a9b5aed2bfde4e41fbcb07dd80f8fc8400000000000000000000000027212df1eacde2f402dc40b32505f00191bb00c4000000000000000000000000156be07376685917120916c0d585edb8b92c7e9400000000000000000000000088e6a0c5df6e33b4b048600808f5c77acb3f5640000000000000000000000000272a2d95aa40e90f08bd952de7f144580ecc00c40000000000000000000000001566f41b908e2526778c43bf7920b5d896457e940000000000000000000000005a13c5f6bac6df23357a6ee148d0dfed45466cfe000000000000000000000000f2e77aaf15fb60371f1aec0fc5422cc621bea28e00000000000000000000000000000000000000000000000016b8e3857c047e000000000000000000000000000000000000000000000000001c07da3b80ee8e000000000000000000000000000000000000000000000000015ee178dc285d0c0000000000000000000000000000000000000000000000000016b8e3857c047e000000000000000000000000000000000000000000000000001c07da3b80ee8e0000000000000000000000000000000000000000000000000011ca94352a0d00000000000000000000000000000000000000000000000000004563918244f40000",
                    "decodedMethod": {
                        "callParams": [
                            {
                                "name": "amount",
                                "type": "uint256",
                                "value": "32"
                            }
                        ],
                        "constructorArguments": "",
                        "name": "transfer",
                        "returnParams": [],
                        "signature": "transfer(uint256)"
                    },
                    "errorInfo": "",
                    "fromAddress": "0x666e80b80b8f9611f9b16b9debf4b916260924eb",
                    "gasUsed": 63348,
                    "id": 0,
                    "methodDecoded": true,
                    "operation": "CALL",
                    "output": "",
                    "revert": false,
                    "revertMessage": "",
                    "selector": "0x12514bba",
                    "status": true,
                    "value": "0"
                },
                "nodeType": 0
            },
            "1": {
                "invocation": {
                    "address": "0x000000000000000000000000000000000000001c",
                    "callData": "0x000000000000000000000000639fa7dabf29d6dbff797282400f45660d27b5c2000000000000000000000000e5818d70a9b5aed2bfde4e41fbcb07dd80f8fc84000000000000000000000000f2e77aaf15fb60371f1aec0fc5422cc621bea28e",
                    "decodedMethod": {
                        "callParams": [
                            {
                                "name": "from",
                                "type": "address",
                                "value": "0x639fa7dabf29d6dbff797282400f45660d27b5c2"
                            },
                            {
                                "name": "to",
                                "type": "address",
                                "value": "0xe5818d70a9b5aed2bfde4e41fbcb07dd80f8fc84"
                            },
                            {
                                "decimalAvailable": true,
                                "name": "tokenId",
                                "type": "uint256",
                                "value": "1,386,737,925,957,746,630,625,910,509,610,205,810,930,499,887,758"
                            }
                        ],
                        "constructorArguments": "",
                        "name": "transferFrom",
                        "returnParams": [],
                        "signature": "transferFrom(address,address,uint256)"
                    },
                    "errorInfo": "",
                    "fromAddress": "0xcb18c3bb1adbdd79362c352db945ba71434ac0d2",
                    "gasUsed": 0,
                    "id": 1,
                    "methodDecoded": true,
                    "operation": "CALL",
                    "output": "",
                    "revert": false,
                    "revertMessage": "",
                    "selector": "0x23b872dd",
                    "status": true,
                    "value": "0"
                },
                "nodeType": 0
            },
            "10": {
                "invocation": {
                    "address": "0x639fa7dabf29d6dbff797282400f45660d27b5c2",
                    "callData": "0x000000000000000000000000f43696e68ca4001c1489f90467fbf70f305e92c60000000000000000000000001566f41b908e2526778c43bf7920b5d896457e940000000000000000000000000000000000000000000000001c07da3b80ee8e00",
                    "decodedMethod": {
                        "callParams": [
                            {
                                "name": "sender",
                                "type": "address",
                                "value": "0xf43696e68ca4001c1489f90467fbf70f305e92c6"
                            },
                            {
                                "name": "recipient",
                                "type": "address",
                                "value": "0x1566f41b908e2526778c43bf7920b5d896457e94"
                            },
                            {
                                "decimalAvailable": true,
                                "name": "amount",
                                "type": "uint256",
                                "value": "2,019,822,907,000,000,000"
                            }
                        ],
                        "constructorArguments": "",
                        "name": "transferFrom",
                        "returnParams": [
                            {
                                "name": "",
                                "type": "bool",
                                "value": true
                            }
                        ],
                        "signature": "transferFrom(address,address,uint256)"
                    },
                    "errorInfo": "",
                    "fromAddress": "0xcb18c3bb1adbdd79362c352db945ba71434ac0d2",
                    "gasUsed": 2428,
                    "id": 10,
                    "methodDecoded": true,
                    "operation": "CALL",
                    "output": "0x0000000000000000000000000000000000000000000000000000000000000001",
                    "revert": false,
                    "revertMessage": "",
                    "selector": "0x23b872dd",
                    "status": true,
                    "value": "0"
                },
                "nodeType": 0
            },
            "11": {
                "event": {
                    "contract": "0x639fa7dabf29d6dbff797282400f45660d27b5c2",
                    "decodedLog": {
                        "name": "Transfer",
                        "params": [
                            {
                                "name": "from",
                                "type": "address",
                                "value": "0xf43696e68ca4001c1489f90467fbf70f305e92c6"
                            },
                            {
                                "name": "to",
                                "type": "address",
                                "value": "0x1566f41b908e2526778c43bf7920b5d896457e94"
                            },
                            {
                                "decimalAvailable": true,
                                "name": "value",
                                "type": "uint256",
                                "value": "2,019,822,907,000,000,000"
                            }
                        ],
                        "signature": "Transfer(address,address,uint256)"
                    },
                    "id": 11,
                    "logData": "0x0000000000000000000000000000000000000000000000001c07da3b80ee8e00",
                    "logDecoded": true,
                    "operation": "EVENT",
                    "revert": false,
                    "status": true,
                    "topics": [
                        "0xddf252ad1be2c89b69c2b068fc378daa952ba7f163c4a11628f55a4df523b3ef",
                        "0x000000000000000000000000f43696e68ca4001c1489f90467fbf70f305e92c6",
                        "0x0000000000000000000000001566f41b908e2526778c43bf7920b5d896457e94"
                    ]
                },
                "nodeType": 1
            },
            "12": {
                "invocation": {
                    "address": "0x97bda3107b539407d7ed53361c537875147a3201",
                    "callData": "0x000000000000000000000000a8778122338574b4278329b64890c4574abc95640000000000000000000000005a13c5f6bac6df23357a6ee148d0dfed45466cfe00000000000000000000000000000000000000000000000011ca94352a0d0000",
                    "decodedMethod": {
                        "callParams": [
                            {
                                "name": "sender",
                                "type": "address",
                                "value": "0xa8778122338574b4278329b64890c4574abc9564"
                            },
                            {
                                "name": "recipient",
                                "type": "address",
                                "value": "0x5a13c5f6bac6df23357a6ee148d0dfed45466cfe"
                            },
                            {
                                "decimalAvailable": true,
                                "name": "amount",
                                "type": "uint256",
                                "value": "1,282,000,000,000,000,000"
                            }
                        ],
                        "constructorArguments": "",
                        "name": "transferFrom",
                        "returnParams": [
                            {
                                "name": "",
                                "type": "bool",
                                "value": true
                            }
                        ],
                        "signature": "transferFrom(address,address,uint256)"
                    },
                    "errorInfo": "",
                    "fromAddress": "0xcb18c3bb1adbdd79362c352db945ba71434ac0d2",
                    "gasUsed": 2428,
                    "id": 12,
                    "methodDecoded": true,
                    "operation": "CALL",
                    "output": "0x0000000000000000000000000000000000000000000000000000000000000001",
                    "revert": false,
                    "revertMessage": "",
                    "selector": "0x23b872dd",
                    "status": true,
                    "value": "0"
                },
                "nodeType": 0
            },
            "13": {
                "event": {
                    "contract": "0x97bda3107b539407d7ed53361c537875147a3201",
                    "decodedLog": {
                        "name": "Transfer",
                        "params": [
                            {
                                "name": "from",
                                "type": "address",
                                "value": "0xa8778122338574b4278329b64890c4574abc9564"
                            },
                            {
                                "name": "to",
                                "type": "address",
                                "value": "0x5a13c5f6bac6df23357a6ee148d0dfed45466cfe"
                            },
                            {
                                "decimalAvailable": true,
                                "name": "value",
                                "type": "uint256",
                                "value": "1,282,000,000,000,000,000"
                            }
                        ],
                        "signature": "Transfer(address,address,uint256)"
                    },
                    "id": 13,
                    "logData": "0x00000000000000000000000000000000000000000000000011ca94352a0d0000",
                    "logDecoded": true,
                    "operation": "EVENT",
                    "revert": false,
                    "status": true,
                    "topics": [
                        "0xddf252ad1be2c89b69c2b068fc378daa952ba7f163c4a11628f55a4df523b3ef",
                        "0x000000000000000000000000a8778122338574b4278329b64890c4574abc9564",
                        "0x0000000000000000000000005a13c5f6bac6df23357a6ee148d0dfed45466cfe"
                    ]
                },
                "nodeType": 1
            },
            "2": {
                "invocation": {
                    "address": "0x5a7279fd65794e51db6278487af540143a74ce1a",
                    "callData": "0x000000000000000000000000fb3862415eeadc631a46ed567c1951116f32aaf600000000000000000000000027212df1eacde2f402dc40b32505f00191bb00c400000000000000000000000000000000000000000000000016b8e3857c047e00",
                    "decodedMethod": {
                        "callParams": [
                            {
                                "name": "sender",
                                "type": "address",
                                "value": "0xfb3862415eeadc631a46ed567c1951116f32aaf6"
                            },
                            {
                                "name": "recipient",
                                "type": "address",
                                "value": "0x27212df1eacde2f402dc40b32505f00191bb00c4"
                            },
                            {
                                "decimalAvailable": true,
                                "name": "amount",
                                "type": "uint256",
                                "value": "1,637,308,627,000,000,000"
                            }
                        ],
                        "constructorArguments": "",
                        "name": "transferFrom",
                        "returnParams": [
                            {
                                "name": "",
                                "type": "bool",
                                "value": true
                            }
                        ],
                        "signature": "transferFrom(address,address,uint256)"
                    },
                    "errorInfo": "",
                    "fromAddress": "0xcb18c3bb1adbdd79362c352db945ba71434ac0d2",
                    "gasUsed": 2428,
                    "id": 2,
                    "methodDecoded": true,
                    "operation": "CALL",
                    "output": "0x0000000000000000000000000000000000000000000000000000000000000001",
                    "revert": false,
                    "revertMessage": "",
                    "selector": "0x23b872dd",
                    "status": true,
                    "value": "0"
                },
                "nodeType": 0
            },
            "3": {
                "event": {
                    "contract": "0x5a7279fd65794e51db6278487af540143a74ce1a",
                    "decodedLog": {
                        "name": "Transfer",
                        "params": [
                            {
                                "name": "from",
                                "type": "address",
                                "value": "0xfb3862415eeadc631a46ed567c1951116f32aaf6"
                            },
                            {
                                "name": "to",
                                "type": "address",
                                "value": "0x27212df1eacde2f402dc40b32505f00191bb00c4"
                            },
                            {
                                "decimalAvailable": true,
                                "name": "value",
                                "type": "uint256",
                                "value": "1,637,308,627,000,000,000"
                            }
                        ],
                        "signature": "Transfer(address,address,uint256)"
                    },
                    "id": 3,
                    "logData": "0x00000000000000000000000000000000000000000000000016b8e3857c047e00",
                    "logDecoded": true,
                    "operation": "EVENT",
                    "revert": false,
                    "status": true,
                    "topics": [
                        "0xddf252ad1be2c89b69c2b068fc378daa952ba7f163c4a11628f55a4df523b3ef",
                        "0x000000000000000000000000fb3862415eeadc631a46ed567c1951116f32aaf6",
                        "0x00000000000000000000000027212df1eacde2f402dc40b32505f00191bb00c4"
                    ]
                },
                "nodeType": 1
            },
            "4": {
                "invocation": {
                    "address": "0x97bda3107b539407d7ed53361c537875147a3201",
                    "callData": "0x000000000000000000000000f43ce3ffd5417a19252fa49a1e90c84b14a392c6000000000000000000000000156be07376685917120916c0d585edb8b92c7e940000000000000000000000000000000000000000000000001c07da3b80ee8e00",
                    "decodedMethod": {
                        "callParams": [
                            {
                                "name": "sender",
                                "type": "address",
                                "value": "0xf43ce3ffd5417a19252fa49a1e90c84b14a392c6"
                            },
                            {
                                "name": "recipient",
                                "type": "address",
                                "value": "0x156be07376685917120916c0d585edb8b92c7e94"
                            },
                            {
                                "decimalAvailable": true,
                                "name": "amount",
                                "type": "uint256",
                                "value": "2,019,822,907,000,000,000"
                            }
                        ],
                        "constructorArguments": "",
                        "name": "transferFrom",
                        "returnParams": [
                            {
                                "name": "",
                                "type": "bool",
                                "value": true
                            }
                        ],
                        "signature": "transferFrom(address,address,uint256)"
                    },
                    "errorInfo": "",
                    "fromAddress": "0xcb18c3bb1adbdd79362c352db945ba71434ac0d2",
                    "gasUsed": 2428,
                    "id": 4,
                    "methodDecoded": true,
                    "operation": "CALL",
                    "output": "0x0000000000000000000000000000000000000000000000000000000000000001",
                    "revert": false,
                    "revertMessage": "",
                    "selector": "0x23b872dd",
                    "status": true,
                    "value": "0"
                },
                "nodeType": 0
            },
            "5": {
                "event": {
                    "contract": "0x97bda3107b539407d7ed53361c537875147a3201",
                    "decodedLog": {
                        "name": "Transfer",
                        "params": [
                            {
                                "name": "from",
                                "type": "address",
                                "value": "0xf43ce3ffd5417a19252fa49a1e90c84b14a392c6"
                            },
                            {
                                "name": "to",
                                "type": "address",
                                "value": "0x156be07376685917120916c0d585edb8b92c7e94"
                            },
                            {
                                "decimalAvailable": true,
                                "name": "value",
                                "type": "uint256",
                                "value": "2,019,822,907,000,000,000"
                            }
                        ],
                        "signature": "Transfer(address,address,uint256)"
                    },
                    "id": 5,
                    "logData": "0x0000000000000000000000000000000000000000000000001c07da3b80ee8e00",
                    "logDecoded": true,
                    "operation": "EVENT",
                    "revert": false,
                    "status": true,
                    "topics": [
                        "0xddf252ad1be2c89b69c2b068fc378daa952ba7f163c4a11628f55a4df523b3ef",
                        "0x000000000000000000000000f43ce3ffd5417a19252fa49a1e90c84b14a392c6",
                        "0x000000000000000000000000156be07376685917120916c0d585edb8b92c7e94"
                    ]
                },
                "nodeType": 1
            },
            "6": {
                "invocation": {
                    "address": "0x4c3f54ddb311689fc80d724041f9a1649e0cc848",
                    "callData": "0x000000000000000000000000774f2096804c8b8a986f251e4b58585f39aae37200000000000000000000000088e6a0c5df6e33b4b048600808f5c77acb3f56400000000000000000000000000000000000000000000000015ee178dc285d0c00",
                    "decodedMethod": {
                        "callParams": [
                            {
                                "name": "sender",
                                "type": "address",
                                "value": "0x774f2096804c8b8a986f251e4b58585f39aae372"
                            },
                            {
                                "name": "recipient",
                                "type": "address",
                                "value": "0x88e6a0c5df6e33b4b048600808f5c77acb3f5640"
                            },
                            {
                                "decimalAvailable": true,
                                "name": "amount",
                                "type": "uint256",
                                "value": "25,283,622,670,000,000,000"
                            }
                        ],
                        "constructorArguments": "",
                        "name": "transferFrom",
                        "returnParams": [
                            {
                                "name": "",
                                "type": "bool",
                                "value": true
                            }
                        ],
                        "signature": "transferFrom(address,address,uint256)"
                    },
                    "errorInfo": "",
                    "fromAddress": "0xcb18c3bb1adbdd79362c352db945ba71434ac0d2",
                    "gasUsed": 2428,
                    "id": 6,
                    "methodDecoded": true,
                    "operation": "CALL",
                    "output": "0x0000000000000000000000000000000000000000000000000000000000000001",
                    "revert": false,
                    "revertMessage": "",
                    "selector": "0x23b872dd",
                    "status": true,
                    "value": "0"
                },
                "nodeType": 0
            },
            "7": {
                "event": {
                    "contract": "0x4c3f54ddb311689fc80d724041f9a1649e0cc848",
                    "decodedLog": {
                        "name": "Transfer",
                        "params": [
                            {
                                "name": "from",
                                "type": "address",
                                "value": "0x774f2096804c8b8a986f251e4b58585f39aae372"
                            },
                            {
                                "name": "to",
                                "type": "address",
                                "value": "0x88e6a0c5df6e33b4b048600808f5c77acb3f5640"
                            },
                            {
                                "decimalAvailable": true,
                                "name": "value",
                                "type": "uint256",
                                "value": "25,283,622,670,000,000,000"
                            }
                        ],
                        "signature": "Transfer(address,address,uint256)"
                    },
                    "id": 7,
                    "logData": "0x0000000000000000000000000000000000000000000000015ee178dc285d0c00",
                    "logDecoded": true,
                    "operation": "EVENT",
                    "revert": false,
                    "status": true,
                    "topics": [
                        "0xddf252ad1be2c89b69c2b068fc378daa952ba7f163c4a11628f55a4df523b3ef",
                        "0x000000000000000000000000774f2096804c8b8a986f251e4b58585f39aae372",
                        "0x00000000000000000000000088e6a0c5df6e33b4b048600808f5c77acb3f5640"
                    ]
                },
                "nodeType": 1
            },
            "8": {
                "invocation": {
                    "address": "0x851af75888c00748ea3c155fa50cf257cb8e2b3e",
                    "callData": "0x000000000000000000000000fb3a175ce3cb33d9f464a3c5ea0b834dae2aaaf6000000000000000000000000272a2d95aa40e90f08bd952de7f144580ecc00c400000000000000000000000000000000000000000000000016b8e3857c047e00",
                    "decodedMethod": {
                        "callParams": [
                            {
                                "name": "sender",
                                "type": "address",
                                "value": "0xfb3a175ce3cb33d9f464a3c5ea0b834dae2aaaf6"
                            },
                            {
                                "name": "recipient",
                                "type": "address",
                                "value": "0x272a2d95aa40e90f08bd952de7f144580ecc00c4"
                            },
                            {
                                "decimalAvailable": true,
                                "name": "amount",
                                "type": "uint256",
                                "value": "1,637,308,627,000,000,000"
                            }
                        ],
                        "constructorArguments": "",
                        "name": "transferFrom",
                        "returnParams": [
                            {
                                "name": "",
                                "type": "bool",
                                "value": true
                            }
                        ],
                        "signature": "transferFrom(address,address,uint256)"
                    },
                    "errorInfo": "",
                    "fromAddress": "0xcb18c3bb1adbdd79362c352db945ba71434ac0d2",
                    "gasUsed": 2428,
                    "id": 8,
                    "methodDecoded": true,
                    "operation": "CALL",
                    "output": "0x0000000000000000000000000000000000000000000000000000000000000001",
                    "revert": false,
                    "revertMessage": "",
                    "selector": "0x23b872dd",
                    "status": true,
                    "value": "0"
                },
                "nodeType": 0
            },
            "9": {
                "event": {
                    "contract": "0x851af75888c00748ea3c155fa50cf257cb8e2b3e",
                    "decodedLog": {
                        "name": "Transfer",
                        "params": [
                            {
                                "name": "from",
                                "type": "address",
                                "value": "0xfb3a175ce3cb33d9f464a3c5ea0b834dae2aaaf6"
                            },
                            {
                                "name": "to",
                                "type": "address",
                                "value": "0x272a2d95aa40e90f08bd952de7f144580ecc00c4"
                            },
                            {
                                "decimalAvailable": true,
                                "name": "value",
                                "type": "uint256",
                                "value": "1,637,308,627,000,000,000"
                            }
                        ],
                        "signature": "Transfer(address,address,uint256)"
                    },
                    "id": 9,
                    "logData": "0x00000000000000000000000000000000000000000000000016b8e3857c047e00",
                    "logDecoded": true,
                    "operation": "EVENT",
                    "revert": false,
                    "status": true,
                    "topics": [
                        "0xddf252ad1be2c89b69c2b068fc378daa952ba7f163c4a11628f55a4df523b3ef",
                        "0x000000000000000000000000fb3a175ce3cb33d9f464a3c5ea0b834dae2aaaf6",
                        "0x000000000000000000000000272a2d95aa40e90f08bd952de7f144580ecc00c4"
                    ]
                },
                "nodeType": 1
            }
        },
        "gasFlame": [
            {
                "children": [
                    {
                        "children": [
                            {
                                "children": [],
                                "depth": 0,
                                "name": "Initial Gas",
                                "value": 30508
                            },
                            {
                                "children": [
                                    {
                                        "children": [],
                                        "depth": 1,
                                        "name": "transferFrom",
                                        "value": 0
                                    },
                                    {
                                        "children": [],
                                        "depth": 1,
                                        "name": "transferFrom",
                                        "value": 2428
                                    },
                                    {
                                        "children": [],
                                        "depth": 1,
                                        "name": "transferFrom",
                                        "value": 2428
                                    },
                                    {
                                        "children": [],
                                        "depth": 1,
                                        "name": "transferFrom",
                                        "value": 2428
                                    },
                                    {
                                        "children": [],
                                        "depth": 1,
                                        "name": "transferFrom",
                                        "value": 2428
                                    },
                                    {
                                        "children": [],
                                        "depth": 1,
                                        "name": "transferFrom",
                                        "value": 2428
                                    },
                                    {
                                        "children": [],
                                        "depth": 1,
                                        "name": "transferFrom",
                                        "value": 2428
                                    }
                                ],
                                "depth": 0,
                                "name": "Executed Gas",
                                "value": 32840
                            }
                        ],
                        "depth": -1,
                        "name": "Actual Gas Used",
                        "value": 63348
                    },
                    {
                        "children": [],
                        "depth": -1,
                        "name": "Refunded Gas",
                        "value": 0
                    }
                ],
                "depth": -2,
                "name": "Total Gas",
                "value": 63348
            }
        ],
        "isConfirmed": true,
        "mainTrace": [
            {
                "children": [
                    {
                        "children": [
                            {
                                "children": [],
                                "depth": 1,
                                "id": 1,
                                "order": 1
                            },
                            {
                                "children": [
                                    {
                                        "children": [],
                                        "depth": 2,
                                        "id": 3,
                                        "order": 3
                                    }
                                ],
                                "depth": 1,
                                "id": 2,
                                "order": 2
                            },
                            {
                                "children": [
                                    {
                                        "children": [],
                                        "depth": 2,
                                        "id": 5,
                                        "order": 5
                                    }
                                ],
                                "depth": 1,
                                "id": 4,
                                "order": 4
                            },
                            {
                                "children": [
                                    {
                                        "children": [],
                                        "depth": 2,
                                        "id": 7,
                                        "order": 7
                                    }
                                ],
                                "depth": 1,
                                "id": 6,
                                "order": 6
                            },
                            {
                                "children": [
                                    {
                                        "children": [],
                                        "depth": 2,
                                        "id": 9,
                                        "order": 9
                                    }
                                ],
                                "depth": 1,
                                "id": 8,
                                "order": 8
                            },
                            {
                                "children": [
                                    {
                                        "children": [],
                                        "depth": 2,
                                        "id": 11,
                                        "order": 11
                                    }
                                ],
                                "depth": 1,
                                "id": 10,
                                "order": 10
                            },
                            {
                                "children": [
                                    {
                                        "children": [],
                                        "depth": 2,
                                        "id": 13,
                                        "order": 13
                                    }
                                ],
                                "depth": 1,
                                "id": 12,
                                "order": 12
                            }
                        ],
                        "depth": 0,
                        "id": 0,
                        "order": 0
                    }
                ],
                "depth": -1,
                "id": -1,
                "order": -1
            }
        ],
        "mainTraceNodeCount": 14,
        "parentIdMap": {
            "0": -1,
            "1": 0,
            "10": 0,
            "11": 10,
            "12": 0,
            "13": 12,
            "2": 0,
            "3": 2,
            "4": 0,
            "5": 4,
            "6": 0,
            "7": 6,
            "8": 0,
            "9": 8
        },
        "tidyTrace": [
            {
                "children": [
                    {
                        "children": [
                            {
                                "children": [],
                                "depth": 1,
                                "id": 1,
                                "order": 1
                            },
                            {
                                "children": [
                                    {
                                        "children": [],
                                        "depth": 2,
                                        "id": 3,
                                        "order": 3
                                    }
                                ],
                                "depth": 1,
                                "id": 2,
                                "order": 2
                            },
                            {
                                "children": [
                                    {
                                        "children": [],
                                        "depth": 2,
                                        "id": 5,
                                        "order": 5
                                    }
                                ],
                                "depth": 1,
                                "id": 4,
                                "order": 4
                            },
                            {
                                "children": [
                                    {
                                        "children": [],
                                        "depth": 2,
                                        "id": 7,
                                        "order": 7
                                    }
                                ],
                                "depth": 1,
                                "id": 6,
                                "order": 6
                            },
                            {
                                "children": [
                                    {
                                        "children": [],
                                        "depth": 2,
                                        "id": 9,
                                        "order": 9
                                    }
                                ],
                                "depth": 1,
                                "id": 8,
                                "order": 8
                            },
                            {
                                "children": [
                                    {
                                        "children": [],
                                        "depth": 2,
                                        "id": 11,
                                        "order": 11
                                    }
                                ],
                                "depth": 1,
                                "id": 10,
                                "order": 10
                            },
                            {
                                "children": [
                                    {
                                        "children": [],
                                        "depth": 2,
                                        "id": 13,
                                        "order": 13
                                    }
                                ],
                                "depth": 1,
                                "id": 12,
                                "order": 12
                            }
                        ],
                        "depth": 0,
                        "id": 0,
                        "order": 0
                    }
                ],
                "depth": -1,
                "id": -1,
                "order": -1
            }
        ],
        "tidyTraceNodeCount": 14
    },
    "state_change": {
        "stateChanges": []
    }
}