{
    "balance_change": {
        "balanceChanges": [
            {
                "account": "0x75e89d5979e4f6fba9f97c104c2f0afb3f1dcb88",
                "assets": [
                    {
                        "address": "0xdac17f958d2ee523a2206206994597c13d831ec7",
                        "amount": "2,738.773606",
                        "iconUrl": "https://assets.blocksec.com/icon/fcea71f3193ce895be44bfdf941f7e4c9381dd587f273c2d1a27f1263d84e4ea.png",
                        "isERC1155": false,
                        "isERC721": false,
                        "sign": false,
                        "value": "2739.0502221342057445"
                    }
                ]
            },
            {
                "account": "0x2ee9d713995daa3b85cb12216719c6c01940b73e",
                "assets": [
                    {
                        "address": "0xdac17f958d2ee523a2206206994597c13d831ec7",
                        "amount": "2,738.773606",
                        "iconUrl": "https://assets.blocksec.com/icon/fcea71f3193ce895be44bfdf941f7e4c9381dd587f273c2d1a27f1263d84e4ea.png",
                        "isERC1155": false,
                        "isERC721": false,
                        "sign": true,
                        "value": "2739.0502221342057445"
                    }
                ]
            }
        ]
    },
    "profile": {
        "basic_info": {
            "baseFee": "42.744612995",
            "blockNumber": 15037411,
            "callData": "0xa9059cbb0000000000000000000000002ee9d713995daa3b85cb12216719c6c01940b73e00000000000000000000000000000000000000000000000000000000a33e5e66",
            "debugEnable": true,
            "errorInfo": "",
            "eventCount": 1,
            "feeRecipient": "0x00192fb10df37c9fb26829eb2cc623cd1bf599e8",
            "formatValue": "0",
            "gasLimit": 94831,
            "gasPrice": "48.926869458",
            "gasUsed": 46109,
            "intTxnCount": 0,
            "internalRevert": false,
            "internalRevertMessage": "",
            "isContractCreation": false,
            "isFlashloan": false,
            "maxFee": "",
            "nonce": 1958120,
            "overwritedBlockNumber": -1,
            "priorityFee": "",
            "receiver": "0xdac17f958d2ee523a2206206994597c13d831ec7",
            "revertMessage": "",
            "sender": "0x75e89d5979e4f6fba9f97c104c2f0afb3f1dcb88",
            "simulationEnable": true,
            "sourceTxnHash": "0x0ac464482a19aef6c4220f9205cb9d875956c2c73484e251d688d6344201a786",
            "status": true,
            "timestamp": "2022-06-28T02:04:00Z",
            "transactionFee": "0.002255969023838922",
            "txnHash": "0x0ac464482a19aef6c4220f9205cb9d875956c2c73484e251d688d6344201a786",
            "txnIndex": 11,
            "type": 0,
            "value": "0"
        },
        "fund_flow": [
            {
                "amount": "2,738.773606",
                "from": "0x75e89d5979e4f6fba9f97c104c2f0afb3f1dcb88",
                "id": 1,
                "isERC1155": false,
                "isERC721": false,
                "isReverted": false,
                "order": 1,
                "to": "0x2ee9d713995daa3b85cb12216719c6c01940b73e",
                "token": "0xdac17f958d2ee523a2206206994597c13d831ec7"
            }
        ],
        "token_infos": [
            {
                "address": "0xeeeeeeeeeeeeeeeeeeeeeeeeeeeeeeeeeeeeeeee",
                "decimals": 18
            },
            {
                "address": "0xc02aaa39b223fe8d0a0e5c4f27ead9083c756cc2",
                "decimals": 18
            },
            {
                "address": "0xdac17f958d2ee523a2206206994597c13d831ec7",
                "decimals": 6
            }
        ]
    },
    "address_label": {
        "labels": [
            {
                "address": "0x0000000000000000000000000000000000000001",
                "label": "Precompiled"
            },
            {
                "address": "0x0000000000000000000000000000000000000002",
                "label": "Precompiled"
            },
            {
                "address": "0x0000000000000000000000000000000000000003",
                "label": "Precompiled"
            },
            {
                "address": "0x0000000000000000000000000000000000000004",
                "label": "Precompiled"
            },
            {
                "address": "0xeeeeeeeeeeeeeeeeeeeeeeeeeeeeeeeeeeeeeeee",
                "label": "Ether"
            },
            {
                "address": "0x75e89d5979e4f6fba9f97c104c2f0afb3f1dcb88",
                "label": "MEXC 1"
            },
            {
                "address": "0xdac17f958d2ee523a2206206994597c13d831ec7",
                "label": "Tether: USDT Stablecoin"
            }
        ]
    },
    "trace": {
        "accountLabels": null,
        "dataMap": {
            "-1": {
                "invocation": {
                    "address": "0x75e89d5979e4f6fba9f97c104c2f0afb3f1dcb88",
                    "callData": "",
                    "decodedMethod": null,
                    "errorInfo": "",
                    "fromAddress": "",
                    "gasUsed": 0,
                    "id": -1,
                    "methodDecoded": false,
                    "operation": "",
                    "output": "",
                    "revert": false,
                    "revertMessage": "",
                    "selector": "",
                    "status": false,
                    "value": ""
                },
                "nodeType": 0
            },
            "0": {
                "invocation": {
                    "address": "0xdac17f958d2ee523a2206206994597c13d831ec7",
                    "callData": "0x0000000000000000000000002ee9d713995daa3b85cb12216719c6c01940b73e00000000000000000000000000000000000000000000000000000000a33e5e66",
                    "decodedMethod": {
                        "callParams": [
                            {
                                "name": "_to",
                                "type": "address",
                                "value": "0x2ee9d713995daa3b85cb12216719c6c01940b73e"
                            },
                            {
                                "decimalAvailable": true,
                                "name": "_value",
                                "type": "uint256",
                                "value": "2,738,773,606"
                            }
                        ],
                        "constructorArguments": "",
                        "name": "transfer",
                        "returnParams": [],
                        "signature": "transfer(address,uint256)"
                    },
                    "errorInfo": "",
                    "fromAddress": "0x75e89d5979e4f6fba9f97c104c2f0afb3f1dcb88",
                    "gasUsed": 46109,
                    "id": 0,
                    "methodDecoded": true,
                    "operation": "CALL",
                    "output": "",
                    "revert": false,
                    "revertMessage": "",
                    "selector": "0xa9059cbb",
                    "status": true,
                    "value": "0"
                },
                "nodeType": 0
            },
            "1": {
                "event": {
                    "contract": "0xdac17f958d2ee523a2206206994597c13d831ec7",
                    "decodedLog": {
                        "name": "Transfer",
                        "params": [
                            {
                                "name": "from",
                                "type": "address",
                                "value": "0x75e89d5979e4f6fba9f97c104c2f0afb3f1dcb88"
                            },
                            {
                                "name": "to",
                                "type": "address",
                                "value": "0x2ee9d713995daa3b85cb12216719c6c01940b73e"
                            },
                            {
                                "decimalAvailable": true,
                                "name": "value",
                                "type": "uint256",
                                "value": "2,738,773,606"
                            }
                        ],
                        "signature": "Transfer(address,address,uint256)"
                    },
                    "id": 1,
                    "logData": "0x00000000000000000000000000000000000000000000000000000000a33e5e66",
                    "logDecoded": true,
                    "operation": "EVENT",
                    "revert": false,
                    "status": true,
                    "topics": [
                        "0xddf252ad1be2c89b69c2b068fc378daa952ba7f163c4a11628f55a4df523b3ef",
                        "0x00000000000000000000000075e89d5979e4f6fba9f97c104c2f0afb3f1dcb88",
                        "0x0000000000000000000000002ee9d713995daa3b85cb12216719c6c01940b73e"
                    ]
                },
                "nodeType": 1
            }
        },
        "gasFlame": [
            {
                "children": [
                    {
                        "children": [
                            {
                                "children": [],
                                "depth": 0,
                                "name": "Initial Gas",
                                "value": 21608
                            },
                            {
                                "children": [],
                                "depth": 0,
                                "name": "Executed Gas",
                                "value": 24501
                            }
                        ],
                        "depth": -1,
                        "name": "Actual Gas Used",
                        "value": 46109
                    },
                    {
                        "children": [],
                        "depth": -1,
                        "name": "Refunded Gas",
                        "value": 0
                    }
                ],
                "depth": -2,
                "name": "Total Gas",
                "value": 46109
            }
        ],
        "isConfirmed": true,
        "mainTrace": [
            {
                "children": [
                    {
                        "children": [
                            {
                                "children": [],
                                "depth": 1,
                                "id": 1,
                                "order": 1
                            }
                        ],
                        "depth": 0,
                        "id": 0,
                        "order": 0
                    }
                ],
                "depth": -1,
                "id": -1,
                "order": -1
            }
        ],
        "mainTraceNodeCount": 2,
        "parentIdMap": {
            "0": -1,
            "1": 0
        },
        "tidyTrace": [
            {
                "children": [
                    {
                        "children": [
                            {
                                "children": [],
                                "depth": 1,
                                "id": 1,
                                "order": 1
                            }
                        ],
                        "depth": 0,
                        "id": 0,
                        "order": 0
                    }
                ],
                "depth": -1,
                "id": -1,
                "order": -1
            }
        ],
        "tidyTraceNodeCount": 2
    },
    "state_change": {
        "stateChanges": [
            {
                "address": "0xdac17f958d2ee523a2206206994597c13d831ec7",
                "erc": "ERC-20",
                "slots": [
                    {
                        "current": "0x000000000000000000000000000000000000000000000000000000019fbb441a",
                        "key": "0x6788c23df6bbb09239af028c1ff02c750e1ec6638ca3809f469dd1110ed4a0a3",
                        "prev": "0x00000000000000000000000000000000000000000000000000000000fc7ce5b4"
                    },
                    {
                        "current": "0x00000000000000000000000000000000000000000000000000000249c73ec7c4",
                        "key": "0xf4218917c197fed27934ca11ee767b8de3af0aab3585392ce261f76daa3d0e79",
                        "prev": "0x0000000000000000000000000000000000000000000000000000024a6a7d262a"
                    }
                ],
                "storageVariables": [
                    {
                        "name": "balances",
                        "type": "mapping(address => uint256)",
                        "value": {
                            "pairs": [
                                {
                                    "key": "0x2ee9d713995daa3b85cb12216719c6c01940b73e",
                                    "value": {
                                        "current": "6974817306",
                                        "prev": "4236043700",
                                        "typeTag": 1
                                    }
                                },
                                {
                                    "key": "0x75e89d5979e4f6fba9f97c104c2f0afb3f1dcb88",
                                    "value": {
                                        "current": "2515898648516",
                                        "prev": "2518637422122",
                                        "typeTag": 1
                                    }
                                }
                            ],
                            "typeTag": 4
                        }
                    }
                ]
            }
        ]
    }
}