{
    "balance_change": {
        "balanceChanges": [
            {
                "account": "0x800e6ecb05488f1fb01909fdfaa6d509a6202454",
                "assets": [
                    {
                        "address": "0xeeeeeeeeeeeeeeeeeeeeeeeeeeeeeeeeeeeeeeee",
                        "amount": "0.299",
                        "iconUrl": "https://assets.blocksec.com/image/1663669189317-3.png",
                        "isERC1155": false,
                        "isERC721": false,
                        "sign": false,
                        "value": "1405.961671"
                    },
                    {
                        "address": "0x4cd0ea8b1bdb5ab9249d96ccf3d8a0d3ada2bc76",
                        "amount": "1",
                        "iconUrl": "https://assets.blocksec.com/nft/icon/nft_23fae940-92f4-4593-984b-44bed452cb82.png",
                        "isERC1155": false,
                        "isERC721": true,
                        "sign": true,
                        "tokenID": "8674",
                        "value": ""
                    }
                ]
            },
            {
                "account": "0x5b3256965e7c3cf26e11fcaf296dfc8807c01073",
                "assets": [
                    {
                        "address": "0xeeeeeeeeeeeeeeeeeeeeeeeeeeeeeeeeeeeeeeee",
                        "amount": "0.0299",
                        "iconUrl": "https://assets.blocksec.com/image/1663669189317-3.png",
                        "isERC1155": false,
                        "isERC721": false,
                        "sign": true,
                        "value": "140.5961671"
                    }
                ]
            },
            {
                "account": "0xc3baa0fa5f21af0157548bebf57028516fca7a71",
                "assets": [
                    {
                        "address": "0xeeeeeeeeeeeeeeeeeeeeeeeeeeeeeeeeeeeeeeee",
                        "amount": "0.2691",
                        "iconUrl": "https://assets.blocksec.com/image/1663669189317-3.png",
                        "isERC1155": false,
                        "isERC721": false,
                        "sign": true,
                        "value": "1265.365504"
                    },
                    {
                        "address": "0x4cd0ea8b1bdb5ab9249d96ccf3d8a0d3ada2bc76",
                        "amount": "1",
                        "iconUrl": "https://assets.blocksec.com/nft/icon/nft_23fae940-92f4-4593-984b-44bed452cb82.png",
                        "isERC1155": false,
                        "isERC721": true,
                        "sign": false,
                        "tokenID": "8674",
                        "value": ""
                    }
                ]
            }
        ]
    },
    "profile": {
        "basic_info": {
            "baseFee": "100.596232926",
            "blockNumber": 13618857,
            "callData": "0xab834bab0000000000000000000000007be8076f4ea4a4ad08075c2508e481d6c946d12b000000000000000000000000800e6ecb05488f1fb01909fdfaa6d509a6202454000000000000000000000000c3baa0fa5f21af0157548bebf57028516fca7a7100000000000000000000000000000000000000000000000000000000000000000000000000000000000000004cd0ea8b1bdb5ab9249d96ccf3d8a0d3ada2bc76000000000000000000000000000000000000000000000000000000000000000000000000000000000000000000000000000000000000000000000000000000000000000000000000000000007be8076f4ea4a4ad08075c2508e481d6c946d12b000000000000000000000000c3baa0fa5f21af0157548bebf57028516fca7a7100000000000000000000000000000000000000000000000000000000000000000000000000000000000000005b3256965e7c3cf26e11fcaf296dfc8807c010730000000000000000000000004cd0ea8b1bdb5ab9249d96ccf3d8a0d3ada2bc760000000000000000000000000000000000000000000000000000000000000000000000000000000000000000000000000000000000000000000000000000000000000000000000000000000000000000000000000000000000000000000003e8000000000000000000000000000000000000000000000000000000000000000000000000000000000000000000000000000000000000000000000000000000000000000000000000000000000000000000000000000000000000000000000000000000000000000000000000000000000000000000000000042642ea73d78000000000000000000000000000000000000000000000000000000000000000000000000000000000000000000000000000000000000000000000000000619203420000000000000000000000000000000000000000000000000000000000000000c702cb9f6efe2db808fa3763aad4f85fa95212255f849e7fc7cef041d777cd9700000000000000000000000000000000000000000000000000000000000003e8000000000000000000000000000000000000000000000000000000000000000000000000000000000000000000000000000000000000000000000000000000000000000000000000000000000000000000000000000000000000000000000000000000000000000000000000000000000000000000000000042642ea73d78000000000000000000000000000000000000000000000000000000000000000000000000000000000000000000000000000000000000000000000000000618da00e00000000000000000000000000000000000000000000000000000000626a7651736de9d1aaed0be23a593b621242d2c4d530132a234a7ee6bbf8ad29794fa37d0000000000000000000000000000000000000000000000000000000000000001000000000000000000000000000000000000000000000000000000000000000000000000000000000000000000000000000000000000000000000000000000000000000000000000000000000000000000000000000000000000000000000000000000000000000000000000000000000000000000000000000000000000000100000000000000000000000000000000000000000000000000000000000000010000000000000000000000000000000000000000000000000000000000000000000000000000000000000000000000000000000000000000000000000000000000000000000000000000000000000000000000000000000000000000000006a0000000000000000000000000000000000000000000000000000000000000074000000000000000000000000000000000000000000000000000000000000007e0000000000000000000000000000000000000000000000000000000000000088000000000000000000000000000000000000000000000000000000000000009200000000000000000000000000000000000000000000000000000000000000940000000000000000000000000000000000000000000000000000000000000001c000000000000000000000000000000000000000000000000000000000000001cef7c517b3326acb9955d422323e8114b6ad13a903782c6739276b668c481d68405525eeec5828c458548f8835a5766e08e8f8f804876c908ab8997c01ae6eb76ef7c517b3326acb9955d422323e8114b6ad13a903782c6739276b668c481d68405525eeec5828c458548f8835a5766e08e8f8f804876c908ab8997c01ae6eb760000000000000000000000000000000000000000000000000000000000000000000000000000000000000000000000000000000000000000000000000000006423b872dd0000000000000000000000000000000000000000000000000000000000000000000000000000000000000000800e6ecb05488f1fb01909fdfaa6d509a620245400000000000000000000000000000000000000000000000000000000000021e200000000000000000000000000000000000000000000000000000000000000000000000000000000000000000000000000000000000000000000006423b872dd000000000000000000000000c3baa0fa5f21af0157548bebf57028516fca7a71000000000000000000000000000000000000000000000000000000000000000000000000000000000000000000000000000000000000000000000000000021e200000000000000000000000000000000000000000000000000000000000000000000000000000000000000000000000000000000000000000000006400000000ffffffffffffffffffffffffffffffffffffffffffffffffffffffffffffffff00000000000000000000000000000000000000000000000000000000000000000000000000000000000000000000000000000000000000000000000000000000000000000000000000000000000000000000000000000000000000000000000000000000000000000000000000000000000000000000000000000064000000000000000000000000000000000000000000000000000000000000000000000000ffffffffffffffffffffffffffffffffffffffffffffffffffffffffffffffff00000000000000000000000000000000000000000000000000000000000000000000000000000000000000000000000000000000000000000000000000000000000000000000000000000000000000000000000000000000000000000000000000000000000000000000000000000000000000000000000000000000",
            "debugEnable": true,
            "errorInfo": "",
            "eventCount": 3,
            "feeRecipient": "0xeea5b82b61424df8020f5fedd81767f2d0d25bfb",
            "formatValue": "0.299",
            "gasLimit": 294337,
            "gasPrice": "102.096232926",
            "gasUsed": 216672,
            "intTxnCount": 11,
            "internalRevert": false,
            "internalRevertMessage": "",
            "isContractCreation": false,
            "isFlashloan": false,
            "maxFee": "121.889504397",
            "nonce": 206,
            "overwritedBlockNumber": -1,
            "priorityFee": "1.5",
            "receiver": "0x7be8076f4ea4a4ad08075c2508e481d6c946d12b",
            "revertMessage": "",
            "sender": "0x800e6ecb05488f1fb01909fdfaa6d509a6202454",
            "simulationEnable": true,
            "sourceTxnHash": "0x0a2da947c5a0c44bede791a726f9cfa1e6bc443b08f078975e1124d7440df796",
            "status": true,
            "timestamp": "2021-11-15T06:52:26Z",
            "transactionFee": "0.022121394980542272",
            "txnHash": "0x0a2da947c5a0c44bede791a726f9cfa1e6bc443b08f078975e1124d7440df796",
            "txnIndex": 114,
            "type": 2,
            "value": "299000000000000000"
        },
        "fund_flow": [
            {
                "amount": "0.299",
                "from": "0x800e6ecb05488f1fb01909fdfaa6d509a6202454",
                "id": 1,
                "isERC1155": false,
                "isERC721": false,
                "isReverted": false,
                "order": 1,
                "to": "0x7be8076f4ea4a4ad08075c2508e481d6c946d12b",
                "token": "0xeeeeeeeeeeeeeeeeeeeeeeeeeeeeeeeeeeeeeeee"
            },
            {
                "amount": "0.0299",
                "from": "0x7be8076f4ea4a4ad08075c2508e481d6c946d12b",
                "id": 2,
                "isERC1155": false,
                "isERC721": false,
                "isReverted": false,
                "order": 2,
                "to": "0x5b3256965e7c3cf26e11fcaf296dfc8807c01073",
                "token": "0xeeeeeeeeeeeeeeeeeeeeeeeeeeeeeeeeeeeeeeee"
            },
            {
                "amount": "0.2691",
                "from": "0x7be8076f4ea4a4ad08075c2508e481d6c946d12b",
                "id": 3,
                "isERC1155": false,
                "isERC721": false,
                "isReverted": false,
                "order": 3,
                "to": "0xc3baa0fa5f21af0157548bebf57028516fca7a71",
                "token": "0xeeeeeeeeeeeeeeeeeeeeeeeeeeeeeeeeeeeeeeee"
            },
            {
                "amount": "1",
                "from": "0xc3baa0fa5f21af0157548bebf57028516fca7a71",
                "id": 4,
                "isERC1155": false,
                "isERC721": true,
                "isReverted": false,
                "order": 4,
                "to": "0x800e6ecb05488f1fb01909fdfaa6d509a6202454",
                "token": "0x4cd0ea8b1bdb5ab9249d96ccf3d8a0d3ada2bc76",
                "tokenID": "8674"
            }
        ],
        "token_infos": [
            {
                "address": "0xc02aaa39b223fe8d0a0e5c4f27ead9083c756cc2",
                "decimals": 18
            },
            {
                "address": "0xeeeeeeeeeeeeeeeeeeeeeeeeeeeeeeeeeeeeeeee",
                "decimals": 18
            }
        ]
    },
    "address_label": {
        "labels": [
            {
                "address": "0x7be8076f4ea4a4ad08075c2508e481d6c946d12b",
                "label": "OpenSea: Wyvern Exchange v1"
            },
            {
                "address": "0xf9e266af4bca5890e2781812cc6a6e89495a79f2",
                "label": "AuthenticatedProxy"
            },
            {
                "address": "0x4cd0ea8b1bdb5ab9249d96ccf3d8a0d3ada2bc76",
                "label": "Boonji Project: BOONJI Token"
            },
            {
                "address": "0xb6c76831ed7617104ed6cf9fc44788a5487a0a25",
                "label": "OwnableDelegateProxy"
            },
            {
                "address": "0x0000000000000000000000000000000000000002",
                "label": "Precompiled"
            },
            {
                "address": "0xa5409ec958c83c3f309868babaca7c86dcb077c1",
                "label": "OpenSea: Registry"
            },
            {
                "address": "0x5b3256965e7c3cf26e11fcaf296dfc8807c01073",
                "label": "OpenSea: Wallet"
            },
            {
                "address": "0x0000000000000000000000000000000000000000",
                "label": "Null Address"
            },
            {
                "address": "0x0000000000000000000000000000000000000001",
                "label": "Precompiled"
            },
            {
                "address": "0x0000000000000000000000000000000000000003",
                "label": "Precompiled"
            },
            {
                "address": "0x0000000000000000000000000000000000000004",
                "label": "Precompiled"
            },
            {
                "address": "0xeeeeeeeeeeeeeeeeeeeeeeeeeeeeeeeeeeeeeeee",
                "label": "Ether"
            }
        ]
    },
    "trace": {
        "accountLabels": null,
        "dataMap": {
            "-1": {
                "invocation": {
                    "address": "0x800e6ecb05488f1fb01909fdfaa6d509a6202454",
                    "callData": "",
                    "decodedMethod": null,
                    "errorInfo": "",
                    "fromAddress": "",
                    "gasUsed": 0,
                    "id": -1,
                    "methodDecoded": false,
                    "operation": "",
                    "output": "",
                    "revert": false,
                    "revertMessage": "",
                    "selector": "",
                    "status": false,
                    "value": ""
                },
                "nodeType": 0
            },
            "0": {
                "invocation": {
                    "address": "0x7be8076f4ea4a4ad08075c2508e481d6c946d12b",
                    "callData": "0x0000000000000000000000007be8076f4ea4a4ad08075c2508e481d6c946d12b000000000000000000000000800e6ecb05488f1fb01909fdfaa6d509a6202454000000000000000000000000c3baa0fa5f21af0157548bebf57028516fca7a7100000000000000000000000000000000000000000000000000000000000000000000000000000000000000004cd0ea8b1bdb5ab9249d96ccf3d8a0d3ada2bc76000000000000000000000000000000000000000000000000000000000000000000000000000000000000000000000000000000000000000000000000000000000000000000000000000000007be8076f4ea4a4ad08075c2508e481d6c946d12b000000000000000000000000c3baa0fa5f21af0157548bebf57028516fca7a7100000000000000000000000000000000000000000000000000000000000000000000000000000000000000005b3256965e7c3cf26e11fcaf296dfc8807c010730000000000000000000000004cd0ea8b1bdb5ab9249d96ccf3d8a0d3ada2bc760000000000000000000000000000000000000000000000000000000000000000000000000000000000000000000000000000000000000000000000000000000000000000000000000000000000000000000000000000000000000000000003e8000000000000000000000000000000000000000000000000000000000000000000000000000000000000000000000000000000000000000000000000000000000000000000000000000000000000000000000000000000000000000000000000000000000000000000000000000000000000000000000000042642ea73d78000000000000000000000000000000000000000000000000000000000000000000000000000000000000000000000000000000000000000000000000000619203420000000000000000000000000000000000000000000000000000000000000000c702cb9f6efe2db808fa3763aad4f85fa95212255f849e7fc7cef041d777cd9700000000000000000000000000000000000000000000000000000000000003e8000000000000000000000000000000000000000000000000000000000000000000000000000000000000000000000000000000000000000000000000000000000000000000000000000000000000000000000000000000000000000000000000000000000000000000000000000000000000000000000000042642ea73d78000000000000000000000000000000000000000000000000000000000000000000000000000000000000000000000000000000000000000000000000000618da00e00000000000000000000000000000000000000000000000000000000626a7651736de9d1aaed0be23a593b621242d2c4d530132a234a7ee6bbf8ad29794fa37d0000000000000000000000000000000000000000000000000000000000000001000000000000000000000000000000000000000000000000000000000000000000000000000000000000000000000000000000000000000000000000000000000000000000000000000000000000000000000000000000000000000000000000000000000000000000000000000000000000000000000000000000000000000100000000000000000000000000000000000000000000000000000000000000010000000000000000000000000000000000000000000000000000000000000000000000000000000000000000000000000000000000000000000000000000000000000000000000000000000000000000000000000000000000000000000006a0000000000000000000000000000000000000000000000000000000000000074000000000000000000000000000000000000000000000000000000000000007e0000000000000000000000000000000000000000000000000000000000000088000000000000000000000000000000000000000000000000000000000000009200000000000000000000000000000000000000000000000000000000000000940000000000000000000000000000000000000000000000000000000000000001c000000000000000000000000000000000000000000000000000000000000001cef7c517b3326acb9955d422323e8114b6ad13a903782c6739276b668c481d68405525eeec5828c458548f8835a5766e08e8f8f804876c908ab8997c01ae6eb76ef7c517b3326acb9955d422323e8114b6ad13a903782c6739276b668c481d68405525eeec5828c458548f8835a5766e08e8f8f804876c908ab8997c01ae6eb760000000000000000000000000000000000000000000000000000000000000000000000000000000000000000000000000000000000000000000000000000006423b872dd0000000000000000000000000000000000000000000000000000000000000000000000000000000000000000800e6ecb05488f1fb01909fdfaa6d509a620245400000000000000000000000000000000000000000000000000000000000021e200000000000000000000000000000000000000000000000000000000000000000000000000000000000000000000000000000000000000000000006423b872dd000000000000000000000000c3baa0fa5f21af0157548bebf57028516fca7a71000000000000000000000000000000000000000000000000000000000000000000000000000000000000000000000000000000000000000000000000000021e200000000000000000000000000000000000000000000000000000000000000000000000000000000000000000000000000000000000000000000006400000000ffffffffffffffffffffffffffffffffffffffffffffffffffffffffffffffff00000000000000000000000000000000000000000000000000000000000000000000000000000000000000000000000000000000000000000000000000000000000000000000000000000000000000000000000000000000000000000000000000000000000000000000000000000000000000000000000000000064000000000000000000000000000000000000000000000000000000000000000000000000ffffffffffffffffffffffffffffffffffffffffffffffffffffffffffffffff00000000000000000000000000000000000000000000000000000000000000000000000000000000000000000000000000000000000000000000000000000000000000000000000000000000000000000000000000000000000000000000000000000000000000000000000000000000000000000000000000000000",
                    "decodedMethod": {
                        "callParams": [
                            {
                                "name": "addrs",
                                "type": "address[14]",
                                "value": [
                                    "0x7be8076f4ea4a4ad08075c2508e481d6c946d12b",
                                    "0x800e6ecb05488f1fb01909fdfaa6d509a6202454",
                                    "0xc3baa0fa5f21af0157548bebf57028516fca7a71",
                                    "0x0000000000000000000000000000000000000000",
                                    "0x4cd0ea8b1bdb5ab9249d96ccf3d8a0d3ada2bc76",
                                    "0x0000000000000000000000000000000000000000",
                                    "0x0000000000000000000000000000000000000000",
                                    "0x7be8076f4ea4a4ad08075c2508e481d6c946d12b",
                                    "0xc3baa0fa5f21af0157548bebf57028516fca7a71",
                                    "0x0000000000000000000000000000000000000000",
                                    "0x5b3256965e7c3cf26e11fcaf296dfc8807c01073",
                                    "0x4cd0ea8b1bdb5ab9249d96ccf3d8a0d3ada2bc76",
                                    "0x0000000000000000000000000000000000000000",
                                    "0x0000000000000000000000000000000000000000"
                                ]
                            },
                            {
                                "name": "uints",
                                "type": "uint256[18]",
                                "value": [
                                    "1,000",
                                    "0",
                                    "0",
                                    "0",
                                    "299,000,000,000,000,000",
                                    "0",
                                    "1,636,959,042",
                                    "0",
                                    "90,015,195,915,028,401,706,701,274,562,167,508,129,585,805,443,077,291,080,079,014,601,158,246,780,311",
                                    "1,000",
                                    "0",
                                    "0",
                                    "0",
                                    "299,000,000,000,000,000",
                                    "0",
                                    "1,636,671,502",
                                    "1,651,144,273",
                                    "52,210,177,676,664,739,015,753,232,062,122,947,292,315,499,256,410,789,836,057,346,528,284,068,782,973"
                                ]
                            },
                            {
                                "name": "feeMethodsSidesKindsHowToCalls",
                                "type": "uint8[8]",
                                "value": [
                                    "1",
                                    "0",
                                    "0",
                                    "0",
                                    "1",
                                    "1",
                                    "0",
                                    "0"
                                ]
                            },
                            {
                                "name": "calldataBuy",
                                "type": "bytes",
                                "value": "0x23b872dd0000000000000000000000000000000000000000000000000000000000000000000000000000000000000000800e6ecb05488f1fb01909fdfaa6d509a620245400000000000000000000000000000000000000000000000000000000000021e2"
                            },
                            {
                                "name": "calldataSell",
                                "type": "bytes",
                                "value": "0x23b872dd000000000000000000000000c3baa0fa5f21af0157548bebf57028516fca7a71000000000000000000000000000000000000000000000000000000000000000000000000000000000000000000000000000000000000000000000000000021e2"
                            },
                            {
                                "name": "replacementPatternBuy",
                                "type": "bytes",
                                "value": "0x00000000ffffffffffffffffffffffffffffffffffffffffffffffffffffffffffffffff00000000000000000000000000000000000000000000000000000000000000000000000000000000000000000000000000000000000000000000000000000000"
                            },
                            {
                                "name": "replacementPatternSell",
                                "type": "bytes",
                                "value": "0x000000000000000000000000000000000000000000000000000000000000000000000000ffffffffffffffffffffffffffffffffffffffffffffffffffffffffffffffff0000000000000000000000000000000000000000000000000000000000000000"
                            },
                            {
                                "name": "staticExtradataBuy",
                                "type": "bytes",
                                "value": "0x"
                            },
                            {
                                "name": "staticExtradataSell",
                                "type": "bytes",
                                "value": "0x"
                            },
                            {
                                "name": "vs",
                                "type": "uint8[2]",
                                "value": [
                                    "28",
                                    "28"
                                ]
                            },
                            {
                                "name": "rssMetadata",
                                "type": "bytes32[5]",
                                "value": [
                                    "0xef7c517b3326acb9955d422323e8114b6ad13a903782c6739276b668c481d684",
                                    "0x05525eeec5828c458548f8835a5766e08e8f8f804876c908ab8997c01ae6eb76",
                                    "0xef7c517b3326acb9955d422323e8114b6ad13a903782c6739276b668c481d684",
                                    "0x05525eeec5828c458548f8835a5766e08e8f8f804876c908ab8997c01ae6eb76",
                                    "0x0000000000000000000000000000000000000000000000000000000000000000"
                                ]
                            }
                        ],
                        "constructorArguments": "",
                        "name": "atomicMatch_",
                        "returnParams": [],
                        "signature": "atomicMatch_(address[14],uint256[18],uint8[8],bytes,bytes,bytes,bytes,bytes,bytes,uint8[2],bytes32[5])"
                    },
                    "errorInfo": "",
                    "fromAddress": "0x800e6ecb05488f1fb01909fdfaa6d509a6202454",
                    "gasUsed": 216672,
                    "id": 0,
                    "methodDecoded": true,
                    "operation": "CALL",
                    "output": "",
                    "revert": false,
                    "revertMessage": "",
                    "selector": "0xab834bab",
                    "status": true,
                    "value": "0.299"
                },
                "nodeType": 0
            },
            "1": {
                "invocation": {
                    "address": "0x0000000000000000000000000000000000000001",
                    "callData": "0x24f14a26c5838718b85973196cda405d673b75e9c6d18ead6c803703000000000000000000000000000000000000000000000000000000000000001cef7c517b3326acb9955d422323e8114b6ad13a903782c6739276b668c481d68405525eeec5828c458548f8835a5766e08e8f8f804876c908ab8997c01ae6eb76",
                    "decodedMethod": {
                        "callParams": [
                            {
                                "name": "hash",
                                "type": "bytes32",
                                "value": "0x31c1ce4924f14a26c5838718b85973196cda405d673b75e9c6d18ead6c803703"
                            },
                            {
                                "name": "v",
                                "type": "uint256",
                                "value": "28"
                            },
                            {
                                "name": "r",
                                "type": "bytes32",
                                "value": "0xef7c517b3326acb9955d422323e8114b6ad13a903782c6739276b668c481d684"
                            },
                            {
                                "name": "s",
                                "type": "bytes32",
                                "value": "0x05525eeec5828c458548f8835a5766e08e8f8f804876c908ab8997c01ae6eb76"
                            }
                        ],
                        "constructorArguments": "",
                        "name": "ecrecover",
                        "returnParams": [
                            {
                                "name": "",
                                "type": "address",
                                "value": "0xc3baa0fa5f21af0157548bebf57028516fca7a71"
                            }
                        ],
                        "signature": "ecrecover(bytes32,uint256,bytes32,bytes32)"
                    },
                    "errorInfo": "",
                    "fromAddress": "0x7be8076f4ea4a4ad08075c2508e481d6c946d12b",
                    "gasUsed": 3000,
                    "id": 1,
                    "methodDecoded": true,
                    "operation": "CALL",
                    "output": "0x000000000000000000000000c3baa0fa5f21af0157548bebf57028516fca7a71",
                    "revert": false,
                    "revertMessage": "",
                    "selector": "0x31c1ce49",
                    "status": true,
                    "value": "0"
                },
                "nodeType": 0
            },
            "10": {
                "invocation": {
                    "address": "0x4cd0ea8b1bdb5ab9249d96ccf3d8a0d3ada2bc76",
                    "callData": "0x000000000000000000000000c3baa0fa5f21af0157548bebf57028516fca7a71000000000000000000000000800e6ecb05488f1fb01909fdfaa6d509a620245400000000000000000000000000000000000000000000000000000000000021e200000000000000000000000000000000000000000000000000000000",
                    "decodedMethod": {
                        "callParams": [
                            {
                                "name": "from",
                                "type": "address",
                                "value": "0xc3baa0fa5f21af0157548bebf57028516fca7a71"
                            },
                            {
                                "name": "to",
                                "type": "address",
                                "value": "0x800e6ecb05488f1fb01909fdfaa6d509a6202454"
                            },
                            {
                                "decimalAvailable": true,
                                "name": "tokenId",
                                "type": "uint256",
                                "value": "8,674"
                            }
                        ],
                        "constructorArguments": "",
                        "name": "transferFrom",
                        "returnParams": [],
                        "signature": "transferFrom(address,address,uint256)"
                    },
                    "errorInfo": "",
                    "fromAddress": "0xb6c76831ed7617104ed6cf9fc44788a5487a0a25",
                    "gasUsed": 71501,
                    "id": 10,
                    "methodDecoded": true,
                    "operation": "CALL",
                    "output": "",
                    "revert": false,
                    "revertMessage": "",
                    "selector": "0x23b872dd",
                    "status": true,
                    "value": "0"
                },
                "nodeType": 0
            },
            "11": {
                "invocation": {
                    "address": "0xa5409ec958c83c3f309868babaca7c86dcb077c1",
                    "callData": "0x000000000000000000000000c3baa0fa5f21af0157548bebf57028516fca7a71",
                    "decodedMethod": {
                        "callParams": [
                            {
                                "name": "",
                                "type": "address",
                                "value": "0xc3baa0fa5f21af0157548bebf57028516fca7a71"
                            }
                        ],
                        "constructorArguments": "",
                        "name": "proxies",
                        "returnParams": [
                            {
                                "name": "",
                                "type": "address",
                                "value": "0xb6c76831ed7617104ed6cf9fc44788a5487a0a25"
                            }
                        ],
                        "signature": "proxies(address)"
                    },
                    "errorInfo": "",
                    "fromAddress": "0x4cd0ea8b1bdb5ab9249d96ccf3d8a0d3ada2bc76",
                    "gasUsed": 782,
                    "id": 11,
                    "methodDecoded": true,
                    "operation": "STATICCALL",
                    "output": "0x000000000000000000000000b6c76831ed7617104ed6cf9fc44788a5487a0a25",
                    "revert": false,
                    "revertMessage": "",
                    "selector": "0xc4552791",
                    "status": true,
                    "value": "0"
                },
                "nodeType": 0
            },
            "12": {
                "event": {
                    "contract": "0x4cd0ea8b1bdb5ab9249d96ccf3d8a0d3ada2bc76",
                    "decodedLog": {
                        "name": "Approval",
                        "params": [
                            {
                                "name": "owner",
                                "type": "address",
                                "value": "0xc3baa0fa5f21af0157548bebf57028516fca7a71"
                            },
                            {
                                "name": "approved",
                                "type": "address",
                                "value": "0x0000000000000000000000000000000000000000"
                            },
                            {
                                "decimalAvailable": true,
                                "name": "tokenId",
                                "type": "uint256",
                                "value": "8,674"
                            }
                        ],
                        "signature": "Approval(address,address,uint256)"
                    },
                    "id": 12,
                    "logData": "0x",
                    "logDecoded": true,
                    "operation": "EVENT",
                    "revert": false,
                    "status": true,
                    "topics": [
                        "0x8c5be1e5ebec7d5bd14f71427d1e84f3dd0314c0f7b2291e5b200ac8c7c3b925",
                        "0x000000000000000000000000c3baa0fa5f21af0157548bebf57028516fca7a71",
                        "0x0000000000000000000000000000000000000000000000000000000000000000",
                        "0x00000000000000000000000000000000000000000000000000000000000021e2"
                    ]
                },
                "nodeType": 1
            },
            "13": {
                "event": {
                    "contract": "0x4cd0ea8b1bdb5ab9249d96ccf3d8a0d3ada2bc76",
                    "decodedLog": {
                        "name": "Transfer",
                        "params": [
                            {
                                "name": "from",
                                "type": "address",
                                "value": "0xc3baa0fa5f21af0157548bebf57028516fca7a71"
                            },
                            {
                                "name": "to",
                                "type": "address",
                                "value": "0x800e6ecb05488f1fb01909fdfaa6d509a6202454"
                            },
                            {
                                "decimalAvailable": true,
                                "name": "tokenId",
                                "type": "uint256",
                                "value": "8,674"
                            }
                        ],
                        "signature": "Transfer(address,address,uint256)"
                    },
                    "id": 13,
                    "logData": "0x",
                    "logDecoded": true,
                    "operation": "EVENT",
                    "revert": false,
                    "status": true,
                    "topics": [
                        "0xddf252ad1be2c89b69c2b068fc378daa952ba7f163c4a11628f55a4df523b3ef",
                        "0x000000000000000000000000c3baa0fa5f21af0157548bebf57028516fca7a71",
                        "0x000000000000000000000000800e6ecb05488f1fb01909fdfaa6d509a6202454",
                        "0x00000000000000000000000000000000000000000000000000000000000021e2"
                    ]
                },
                "nodeType": 1
            },
            "14": {
                "event": {
                    "contract": "0x7be8076f4ea4a4ad08075c2508e481d6c946d12b",
                    "decodedLog": {
                        "name": "OrdersMatched",
                        "params": [
                            {
                                "name": "maker",
                                "type": "address",
                                "value": "0xc3baa0fa5f21af0157548bebf57028516fca7a71"
                            },
                            {
                                "name": "taker",
                                "type": "address",
                                "value": "0x800e6ecb05488f1fb01909fdfaa6d509a6202454"
                            },
                            {
                                "name": "metadata",
                                "type": "bytes32",
                                "value": "0x0000000000000000000000000000000000000000000000000000000000000000"
                            },
                            {
                                "name": "buyHash",
                                "type": "bytes32",
                                "value": "0x0000000000000000000000000000000000000000000000000000000000000000"
                            },
                            {
                                "name": "sellHash",
                                "type": "bytes32",
                                "value": "0x31c1ce4924f14a26c5838718b85973196cda405d673b75e9c6d18ead6c803703"
                            },
                            {
                                "name": "price",
                                "type": "uint256",
                                "value": "299,000,000,000,000,000"
                            }
                        ],
                        "signature": "OrdersMatched(bytes32,bytes32,address,address,uint256,bytes32)"
                    },
                    "id": 14,
                    "logData": "0x000000000000000000000000000000000000000000000000000000000000000031c1ce4924f14a26c5838718b85973196cda405d673b75e9c6d18ead6c803703000000000000000000000000000000000000000000000000042642ea73d78000",
                    "logDecoded": true,
                    "operation": "EVENT",
                    "revert": false,
                    "status": true,
                    "topics": [
                        "0xc4109843e0b7d514e4c093114b863f8e7d8d9a458c372cd51bfe526b588006c9",
                        "0x000000000000000000000000c3baa0fa5f21af0157548bebf57028516fca7a71",
                        "0x000000000000000000000000800e6ecb05488f1fb01909fdfaa6d509a6202454",
                        "0x0000000000000000000000000000000000000000000000000000000000000000"
                    ]
                },
                "nodeType": 1
            },
            "2": {
                "invocation": {
                    "address": "0xa5409ec958c83c3f309868babaca7c86dcb077c1",
                    "callData": "0x000000000000000000000000c3baa0fa5f21af0157548bebf57028516fca7a71",
                    "decodedMethod": {
                        "callParams": [
                            {
                                "name": "",
                                "type": "address",
                                "value": "0xc3baa0fa5f21af0157548bebf57028516fca7a71"
                            }
                        ],
                        "constructorArguments": "",
                        "name": "proxies",
                        "returnParams": [
                            {
                                "name": "",
                                "type": "address",
                                "value": "0xb6c76831ed7617104ed6cf9fc44788a5487a0a25"
                            }
                        ],
                        "signature": "proxies(address)"
                    },
                    "errorInfo": "",
                    "fromAddress": "0x7be8076f4ea4a4ad08075c2508e481d6c946d12b",
                    "gasUsed": 2782,
                    "id": 2,
                    "methodDecoded": true,
                    "operation": "CALL",
                    "output": "0x000000000000000000000000b6c76831ed7617104ed6cf9fc44788a5487a0a25",
                    "revert": false,
                    "revertMessage": "",
                    "selector": "0xc4552791",
                    "status": true,
                    "value": "0"
                },
                "nodeType": 0
            },
            "3": {
                "invocation": {
                    "address": "0xa5409ec958c83c3f309868babaca7c86dcb077c1",
                    "callData": "0x",
                    "decodedMethod": {
                        "callParams": [],
                        "constructorArguments": "",
                        "name": "delegateProxyImplementation",
                        "returnParams": [
                            {
                                "name": "",
                                "type": "address",
                                "value": "0xf9e266af4bca5890e2781812cc6a6e89495a79f2"
                            }
                        ],
                        "signature": "delegateProxyImplementation()"
                    },
                    "errorInfo": "",
                    "fromAddress": "0x7be8076f4ea4a4ad08075c2508e481d6c946d12b",
                    "gasUsed": 2613,
                    "id": 3,
                    "methodDecoded": true,
                    "operation": "CALL",
                    "output": "0x000000000000000000000000f9e266af4bca5890e2781812cc6a6e89495a79f2",
                    "revert": false,
                    "revertMessage": "",
                    "selector": "0x97204d8e",
                    "status": true,
                    "value": "0"
                },
                "nodeType": 0
            },
            "4": {
                "invocation": {
                    "address": "0xb6c76831ed7617104ed6cf9fc44788a5487a0a25",
                    "callData": "0x",
                    "decodedMethod": {
                        "callParams": [],
                        "constructorArguments": "",
                        "name": "implementation",
                        "returnParams": [
                            {
                                "name": "",
                                "type": "address",
                                "value": "0xf9e266af4bca5890e2781812cc6a6e89495a79f2"
                            }
                        ],
                        "signature": "implementation()"
                    },
                    "errorInfo": "",
                    "fromAddress": "0x7be8076f4ea4a4ad08075c2508e481d6c946d12b",
                    "gasUsed": 2525,
                    "id": 4,
                    "methodDecoded": true,
                    "operation": "CALL",
                    "output": "0x000000000000000000000000f9e266af4bca5890e2781812cc6a6e89495a79f2",
                    "revert": false,
                    "revertMessage": "",
                    "selector": "0x5c60da1b",
                    "status": true,
                    "value": "0"
                },
                "nodeType": 0
            },
            "5": {
                "invocation": {
                    "address": "0x5b3256965e7c3cf26e11fcaf296dfc8807c01073",
                    "callData": "0x",
                    "decodedMethod": null,
                    "errorInfo": "",
                    "fromAddress": "0x7be8076f4ea4a4ad08075c2508e481d6c946d12b",
                    "gasUsed": 0,
                    "id": 5,
                    "methodDecoded": false,
                    "operation": "CALL",
                    "output": "",
                    "revert": false,
                    "revertMessage": "",
                    "selector": "fallback",
                    "status": true,
                    "value": "0.0299"
                },
                "nodeType": 0
            },
            "6": {
                "invocation": {
                    "address": "0xc3baa0fa5f21af0157548bebf57028516fca7a71",
                    "callData": "0x",
                    "decodedMethod": null,
                    "errorInfo": "",
                    "fromAddress": "0x7be8076f4ea4a4ad08075c2508e481d6c946d12b",
                    "gasUsed": 0,
                    "id": 6,
                    "methodDecoded": false,
                    "operation": "CALL",
                    "output": "",
                    "revert": false,
                    "revertMessage": "",
                    "selector": "fallback",
                    "status": true,
                    "value": "0.2691"
                },
                "nodeType": 0
            },
            "7": {
                "invocation": {
                    "address": "0xb6c76831ed7617104ed6cf9fc44788a5487a0a25",
                    "callData": "0x0000000000000000000000004cd0ea8b1bdb5ab9249d96ccf3d8a0d3ada2bc7600000000000000000000000000000000000000000000000000000000000000000000000000000000000000000000000000000000000000000000000000000060000000000000000000000000000000000000000000000000000000000000006423b872dd000000000000000000000000c3baa0fa5f21af0157548bebf57028516fca7a71000000000000000000000000800e6ecb05488f1fb01909fdfaa6d509a620245400000000000000000000000000000000000000000000000000000000000021e200000000000000000000000000000000000000000000000000000000",
                    "decodedMethod": {
                        "callParams": [
                            {
                                "name": "dest",
                                "type": "address",
                                "value": "0x4cd0ea8b1bdb5ab9249d96ccf3d8a0d3ada2bc76"
                            },
                            {
                                "name": "howToCall",
                                "type": "uint8",
                                "value": "0"
                            },
                            {
                                "name": "calldata",
                                "type": "bytes",
                                "value": "0x23b872dd000000000000000000000000c3baa0fa5f21af0157548bebf57028516fca7a71000000000000000000000000800e6ecb05488f1fb01909fdfaa6d509a620245400000000000000000000000000000000000000000000000000000000000021e2"
                            }
                        ],
                        "constructorArguments": "",
                        "name": "proxy",
                        "returnParams": [
                            {
                                "name": "result",
                                "type": "bool",
                                "value": true
                            }
                        ],
                        "signature": "proxy(address,uint8,bytes)"
                    },
                    "errorInfo": "",
                    "fromAddress": "0x7be8076f4ea4a4ad08075c2508e481d6c946d12b",
                    "gasUsed": 83658,
                    "id": 7,
                    "methodDecoded": true,
                    "operation": "CALL",
                    "output": "0x0000000000000000000000000000000000000000000000000000000000000001",
                    "revert": false,
                    "revertMessage": "",
                    "selector": "0x1b0f7ba9",
                    "status": true,
                    "value": "0"
                },
                "nodeType": 0
            },
            "8": {
                "invocation": {
                    "address": "0xf9e266af4bca5890e2781812cc6a6e89495a79f2",
                    "callData": "0x0000000000000000000000004cd0ea8b1bdb5ab9249d96ccf3d8a0d3ada2bc7600000000000000000000000000000000000000000000000000000000000000000000000000000000000000000000000000000000000000000000000000000060000000000000000000000000000000000000000000000000000000000000006423b872dd000000000000000000000000c3baa0fa5f21af0157548bebf57028516fca7a71000000000000000000000000800e6ecb05488f1fb01909fdfaa6d509a620245400000000000000000000000000000000000000000000000000000000000021e200000000000000000000000000000000000000000000000000000000",
                    "decodedMethod": {
                        "callParams": [
                            {
                                "name": "dest",
                                "type": "address",
                                "value": "0x4cd0ea8b1bdb5ab9249d96ccf3d8a0d3ada2bc76"
                            },
                            {
                                "name": "howToCall",
                                "type": "uint8",
                                "value": "0"
                            },
                            {
                                "name": "calldata",
                                "type": "bytes",
                                "value": "0x23b872dd000000000000000000000000c3baa0fa5f21af0157548bebf57028516fca7a71000000000000000000000000800e6ecb05488f1fb01909fdfaa6d509a620245400000000000000000000000000000000000000000000000000000000000021e2"
                            }
                        ],
                        "constructorArguments": "",
                        "name": "proxy",
                        "returnParams": [
                            {
                                "name": "result",
                                "type": "bool",
                                "value": true
                            }
                        ],
                        "signature": "proxy(address,uint8,bytes)"
                    },
                    "errorInfo": "",
                    "fromAddress": "0xb6c76831ed7617104ed6cf9fc44788a5487a0a25",
                    "gasUsed": 80398,
                    "id": 8,
                    "methodDecoded": true,
                    "operation": "DELEGATECALL",
                    "output": "0x0000000000000000000000000000000000000000000000000000000000000001",
                    "revert": false,
                    "revertMessage": "",
                    "selector": "0x1b0f7ba9",
                    "status": true,
                    "value": "0"
                },
                "nodeType": 0
            },
            "9": {
                "invocation": {
                    "address": "0xa5409ec958c83c3f309868babaca7c86dcb077c1",
                    "callData": "0x0000000000000000000000007be8076f4ea4a4ad08075c2508e481d6c946d12b",
                    "decodedMethod": {
                        "callParams": [
                            {
                                "name": "",
                                "type": "address",
                                "value": "0x7be8076f4ea4a4ad08075c2508e481d6c946d12b"
                            }
                        ],
                        "constructorArguments": "",
                        "name": "contracts",
                        "returnParams": [
                            {
                                "name": "",
                                "type": "bool",
                                "value": true
                            }
                        ],
                        "signature": "contracts(address)"
                    },
                    "errorInfo": "",
                    "fromAddress": "0xb6c76831ed7617104ed6cf9fc44788a5487a0a25",
                    "gasUsed": 2553,
                    "id": 9,
                    "methodDecoded": true,
                    "operation": "CALL",
                    "output": "0x0000000000000000000000000000000000000000000000000000000000000001",
                    "revert": false,
                    "revertMessage": "",
                    "selector": "0x69dc9ff3",
                    "status": true,
                    "value": "0"
                },
                "nodeType": 0
            }
        },
        "gasFlame": [
            {
                "children": [
                    {
                        "children": [
                            {
                                "children": [],
                                "depth": 0,
                                "name": "Initial Gas",
                                "value": 36892
                            },
                            {
                                "children": [
                                    {
                                        "children": [],
                                        "depth": 1,
                                        "name": "ecrecover",
                                        "value": 3000
                                    },
                                    {
                                        "children": [],
                                        "depth": 1,
                                        "name": "proxies",
                                        "value": 2782
                                    },
                                    {
                                        "children": [],
                                        "depth": 1,
                                        "name": "delegateProxyImplementation",
                                        "value": 2613
                                    },
                                    {
                                        "children": [],
                                        "depth": 1,
                                        "name": "implementation",
                                        "value": 2525
                                    },
                                    {
                                        "children": [],
                                        "depth": 1,
                                        "name": "fallback",
                                        "value": 0
                                    },
                                    {
                                        "children": [],
                                        "depth": 1,
                                        "name": "fallback",
                                        "value": 0
                                    },
                                    {
                                        "children": [
                                            {
                                                "children": [
                                                    {
                                                        "children": [],
                                                        "depth": 3,
                                                        "name": "contracts",
                                                        "value": 2553
                                                    },
                                                    {
                                                        "children": [
                                                            {
                                                                "children": [],
                                                                "depth": 4,
                                                                "name": "proxies",
                                                                "value": 782
                                                            }
                                                        ],
                                                        "depth": 3,
                                                        "name": "transferFrom",
                                                        "value": 71501
                                                    }
                                                ],
                                                "depth": 2,
                                                "name": "proxy",
                                                "value": 80398
                                            }
                                        ],
                                        "depth": 1,
                                        "name": "proxy",
                                        "value": 83658
                                    }
                                ],
                                "depth": 0,
                                "name": "Executed Gas",
                                "value": 187380
                            }
                        ],
                        "depth": -1,
                        "name": "Actual Gas Used",
                        "value": 216672
                    },
                    {
                        "children": [],
                        "depth": -1,
                        "name": "Refunded Gas",
                        "value": 7600
                    }
                ],
                "depth": -2,
                "name": "Total Gas",
                "value": 224272
            }
        ],
        "isConfirmed": true,
        "mainTrace": [
            {
                "children": [
                    {
                        "children": [
                            {
                                "children": [],
                                "depth": 1,
                                "id": 1,
                                "order": 1
                            },
                            {
                                "children": [],
                                "depth": 1,
                                "id": 2,
                                "order": 2
                            },
                            {
                                "children": [],
                                "depth": 1,
                                "id": 3,
                                "order": 3
                            },
                            {
                                "children": [],
                                "depth": 1,
                                "id": 4,
                                "order": 4
                            },
                            {
                                "children": [],
                                "depth": 1,
                                "id": 5,
                                "order": 5
                            },
                            {
                                "children": [],
                                "depth": 1,
                                "id": 6,
                                "order": 6
                            },
                            {
                                "children": [
                                    {
                                        "children": [
                                            {
                                                "children": [],
                                                "depth": 3,
                                                "id": 9,
                                                "order": 9
                                            },
                                            {
                                                "children": [
                                                    {
                                                        "children": [],
                                                        "depth": 4,
                                                        "id": 11,
                                                        "order": 11
                                                    },
                                                    {
                                                        "children": [],
                                                        "depth": 4,
                                                        "id": 12,
                                                        "order": 12
                                                    },
                                                    {
                                                        "children": [],
                                                        "depth": 4,
                                                        "id": 13,
                                                        "order": 13
                                                    }
                                                ],
                                                "depth": 3,
                                                "id": 10,
                                                "order": 10
                                            }
                                        ],
                                        "depth": 2,
                                        "id": 8,
                                        "order": 8
                                    }
                                ],
                                "depth": 1,
                                "id": 7,
                                "order": 7
                            },
                            {
                                "children": [],
                                "depth": 1,
                                "id": 14,
                                "order": 14
                            }
                        ],
                        "depth": 0,
                        "id": 0,
                        "order": 0
                    }
                ],
                "depth": -1,
                "id": -1,
                "order": -1
            }
        ],
        "mainTraceNodeCount": 15,
        "parentIdMap": {
            "0": -1,
            "1": 0,
            "10": 8,
            "11": 10,
            "12": 10,
            "13": 10,
            "14": 0,
            "2": 0,
            "3": 0,
            "4": 0,
            "5": 0,
            "6": 0,
            "7": 0,
            "8": 7,
            "9": 8
        },
        "tidyTrace": [
            {
                "children": [
                    {
                        "children": [
                            {
                                "children": [],
                                "depth": 1,
                                "id": 1,
                                "order": 1
                            },
                            {
                                "children": [],
                                "depth": 1,
                                "id": 2,
                                "order": 2
                            },
                            {
                                "children": [],
                                "depth": 1,
                                "id": 3,
                                "order": 3
                            },
                            {
                                "children": [],
                                "depth": 1,
                                "id": 4,
                                "order": 4
                            },
                            {
                                "children": [],
                                "depth": 1,
                                "id": 5,
                                "order": 5
                            },
                            {
                                "children": [],
                                "depth": 1,
                                "id": 6,
                                "order": 6
                            },
                            {
                                "children": [
                                    {
                                        "children": [
                                            {
                                                "children": [],
                                                "depth": 3,
                                                "id": 9,
                                                "order": 9
                                            },
                                            {
                                                "children": [
                                                    {
                                                        "children": [],
                                                        "depth": 4,
                                                        "id": 12,
                                                        "order": 12
                                                    },
                                                    {
                                                        "children": [],
                                                        "depth": 4,
                                                        "id": 13,
                                                        "order": 13
                                                    }
                                                ],
                                                "depth": 3,
                                                "id": 10,
                                                "order": 10
                                            }
                                        ],
                                        "depth": 2,
                                        "id": 8,
                                        "order": 8
                                    }
                                ],
                                "depth": 1,
                                "id": 7,
                                "order": 7
                            },
                            {
                                "children": [],
                                "depth": 1,
                                "id": 14,
                                "order": 14
                            }
                        ],
                        "depth": 0,
                        "id": 0,
                        "order": 0
                    }
                ],
                "depth": -1,
                "id": -1,
                "order": -1
            }
        ],
        "tidyTraceNodeCount": 14
    },
    "state_change": {
        "stateChanges": [
            {
                "address": "0x4cd0ea8b1bdb5ab9249d96ccf3d8a0d3ada2bc76",
                "erc": "ERC-721",
                "slots": [
                    {
                        "current": "0x0000000000000000000000000000000000000000000000000000000000000194",
                        "key": "0xf2193565583530d1f163e4775aac341dbee3a203e5c21505b725b2ce31058f53",
                        "prev": "0x00000000000000000000000000000000000000000000000000000000000001b0"
                    },
                    {
                        "current": "0x000000000000000000000000000000000000000000000000000000000000004c",
                        "key": "0x48fd22ba59c55108797cd353d08a6c4732643e32edc87565fbf706355478fdbe",
                        "prev": "0x0000000000000000000000000000000000000000000000000000000000000194"
                    },
                    {
                        "current": "0x0000000000000000000000000000000000000000000000000000000000000000",
                        "key": "0x48caff36787adbd6cd0b0fffceed27c46c2c951c4b3c5b9cedb382b083ed60f3",
                        "prev": "0x0000000000000000000000000000000000000000000000000000000000001200"
                    },
                    {
                        "current": "0x00000000000000000000000000000000000000000000000000000000000021e2",
                        "key": "0xe8904b1c6a296793db71c89821c9a9ef5147a7c66084201a8ec60780c3e4b7c8",
                        "prev": "0x0000000000000000000000000000000000000000000000000000000000000000"
                    },
                    {
                        "current": "0x00000000000000000000000000000000000000000000000000000000000001b0",
                        "key": "0x7107a6056a1dd07031b7f0f710d17d46a4c31db8a23f8a6446cb636409d672c8",
                        "prev": "0x00000000000000000000000000000000000000000000000000000000000001b1"
                    },
                    {
                        "current": "0x000000000000000000000000000000000000000000000000000000000000004d",
                        "key": "0x7904893e9742ec9a7ed213a8e22cd9e80cc92ffa7257ffa7a2bae0a7d6037d50",
                        "prev": "0x000000000000000000000000000000000000000000000000000000000000004c"
                    },
                    {
                        "current": "0x000000000000000000000000800e6ecb05488f1fb01909fdfaa6d509a6202454",
                        "key": "0xcdf2a73e951eb6765ed7fcd2f75ec8f0ddad3b94dbc40c1dc6b4ca4b2ce2e448",
                        "prev": "0x000000000000000000000000c3baa0fa5f21af0157548bebf57028516fca7a71"
                    },
                    {
                        "current": "0x0000000000000000000000000000000000000000000000000000000000001200",
                        "key": "0xbe24310beaebe843b195b1e96abcd76bec6ad11079766e2f7ddfb0b7017397b4",
                        "prev": "0x00000000000000000000000000000000000000000000000000000000000021e2"
                    }
                ],
                "storageVariables": [
                    {
                        "name": "_balances",
                        "type": "mapping(address => uint256)",
                        "value": {
                            "pairs": [
                                {
                                    "key": "0x800e6ecb05488f1fb01909fdfaa6d509a6202454",
                                    "value": {
                                        "current": "77",
                                        "prev": "76",
                                        "typeTag": 1
                                    }
                                },
                                {
                                    "key": "0xc3baa0fa5f21af0157548bebf57028516fca7a71",
                                    "value": {
                                        "current": "432",
                                        "prev": "433",
                                        "typeTag": 1
                                    }
                                }
                            ],
                            "typeTag": 4
                        }
                    },
                    {
                        "name": "_owners",
                        "type": "mapping(uint256 => address)",
                        "value": {
                            "pairs": [
                                {
                                    "key": "8674",
                                    "value": {
                                        "current": "0x800e6ecb05488f1fb01909fdfaa6d509a6202454",
                                        "prev": "0xc3baa0fa5f21af0157548bebf57028516fca7a71",
                                        "typeTag": 1
                                    }
                                }
                            ],
                            "typeTag": 4
                        }
                    },
                    {
                        "name": "_ownedTokens",
                        "type": "mapping(address => mapping(uint256 => uint256))",
                        "value": {
                            "pairs": [
                                {
                                    "key": "0x800e6ecb05488f1fb01909fdfaa6d509a6202454",
                                    "value": {
                                        "pairs": [
                                            {
                                                "key": "76",
                                                "value": {
                                                    "current": "8674",
                                                    "prev": "0",
                                                    "typeTag": 1
                                                }
                                            }
                                        ],
                                        "typeTag": 4
                                    }
                                },
                                {
                                    "key": "0xc3baa0fa5f21af0157548bebf57028516fca7a71",
                                    "value": {
                                        "pairs": [
                                            {
                                                "key": "404",
                                                "value": {
                                                    "current": "4608",
                                                    "prev": "8674",
                                                    "typeTag": 1
                                                }
                                            },
                                            {
                                                "key": "432",
                                                "value": {
                                                    "current": "0",
                                                    "prev": "4608",
                                                    "typeTag": 1
                                                }
                                            }
                                        ],
                                        "typeTag": 4
                                    }
                                }
                            ],
                            "typeTag": 4
                        }
                    },
                    {
                        "name": "_ownedTokensIndex",
                        "type": "mapping(uint256 => uint256)",
                        "value": {
                            "pairs": [
                                {
                                    "key": "4608",
                                    "value": {
                                        "current": "404",
                                        "prev": "432",
                                        "typeTag": 1
                                    }
                                },
                                {
                                    "key": "8674",
                                    "value": {
                                        "current": "76",
                                        "prev": "404",
                                        "typeTag": 1
                                    }
                                }
                            ],
                            "typeTag": 4
                        }
                    }
                ]
            },
            {
                "address": "0x7be8076f4ea4a4ad08075c2508e481d6c946d12b",
                "erc": "",
                "slots": [
                    {
                        "current": "0x0000000000000000000000000000000000000000000000000000000000000001",
                        "key": "0x2a0c5b06cde2e5c3825643e6858dbb474a4e41911cb9c77f9d252b7c44c569f1",
                        "prev": "0x0000000000000000000000000000000000000000000000000000000000000000"
                    }
                ],
                "storageVariables": [
                    {
                        "name": "cancelledOrFinalized",
                        "type": "mapping(bytes32 => bool)",
                        "value": {
                            "pairs": [
                                {
                                    "key": "0x31c1ce4924f14a26c5838718b85973196cda405d673b75e9c6d18ead6c803703",
                                    "value": {
                                        "current": "true",
                                        "prev": "false",
                                        "typeTag": 1
                                    }
                                }
                            ],
                            "typeTag": 4
                        }
                    }
                ]
            }
        ]
    }
}