{
    "balance_change": {
        "balanceChanges": [
            {
                "account": "0xdb0982fe0ff0c446f0b6a8833669273a0597c70a",
                "assets": [
                    {
                        "address": "0x15f0dbf26a61b7eba6e6faecb9796fa2ccc61b14",
                        "amount": "500",
                        "iconUrl": "",
                        "isERC1155": false,
                        "isERC721": false,
                        "sign": false,
                        "value": ""
                    }
                ]
            },
            {
                "account": "0x0d0c6914a0d2a0825a841ca6c73e198a95d0d885",
                "assets": [
                    {
                        "address": "0x15f0dbf26a61b7eba6e6faecb9796fa2ccc61b14",
                        "amount": "500",
                        "iconUrl": "",
                        "isERC1155": false,
                        "isERC721": false,
                        "sign": true,
                        "value": ""
                    }
                ]
            }
        ]
    },
    "profile": {
        "basic_info": {
            "baseFee": "",
            "blockNumber": 9734672,
            "callData": "0xa9059cbb0000000000000000000000000d0c6914a0d2a0825a841ca6c73e198a95d0d88500000000000000000000000000000000000000000000001b1ae4d6e2ef500000",
            "debugEnable": true,
            "errorInfo": "",
            "eventCount": 1,
            "feeRecipient": "0xea674fdde714fd979de3edf0f56aa9716b898ec8",
            "formatValue": "0",
            "gasLimit": 60000,
            "gasPrice": "5.500000144",
            "gasUsed": 52069,
            "intTxnCount": 0,
            "internalRevert": false,
            "internalRevertMessage": "",
            "isContractCreation": false,
            "isFlashloan": false,
            "maxFee": "",
            "nonce": 191,
            "overwritedBlockNumber": -1,
            "priorityFee": "",
            "receiver": "0x15f0dbf26a61b7eba6e6faecb9796fa2ccc61b14",
            "revertMessage": "",
            "sender": "0xdb0982fe0ff0c446f0b6a8833669273a0597c70a",
            "simulationEnable": true,
            "sourceTxnHash": "0x0ab06e05a8eb0cbddcf16a248cf0deda7cfedf17860d58e721890449738447be",
            "status": true,
            "timestamp": "2020-03-24T14:22:13Z",
            "transactionFee": "0.000286379507497936",
            "txnHash": "0x0ab06e05a8eb0cbddcf16a248cf0deda7cfedf17860d58e721890449738447be",
            "txnIndex": 51,
            "type": 0,
            "value": "0"
        },
        "fund_flow": [
            {
                "amount": "500",
                "from": "0xdb0982fe0ff0c446f0b6a8833669273a0597c70a",
                "id": 1,
                "isERC1155": false,
                "isERC721": false,
                "isReverted": false,
                "order": 1,
                "to": "0x0d0c6914a0d2a0825a841ca6c73e198a95d0d885",
                "token": "0x15f0dbf26a61b7eba6e6faecb9796fa2ccc61b14"
            }
        ],
        "token_infos": [
            {
                "address": "0x15f0dbf26a61b7eba6e6faecb9796fa2ccc61b14",
                "decimals": 18
            },
            {
                "address": "0xc02aaa39b223fe8d0a0e5c4f27ead9083c756cc2",
                "decimals": 18
            },
            {
                "address": "0xeeeeeeeeeeeeeeeeeeeeeeeeeeeeeeeeeeeeeeee",
                "decimals": 18
            }
        ]
    },
    "address_label": {
        "labels": [
            {
                "address": "0xeeeeeeeeeeeeeeeeeeeeeeeeeeeeeeeeeeeeeeee",
                "label": "Ether"
            },
            {
                "address": "0x15f0dbf26a61b7eba6e6faecb9796fa2ccc61b14",
                "label": "HXDG"
            },
            {
                "address": "0x0000000000000000000000000000000000000001",
                "label": "Precompiled"
            },
            {
                "address": "0x0000000000000000000000000000000000000002",
                "label": "Precompiled"
            },
            {
                "address": "0x0000000000000000000000000000000000000003",
                "label": "Precompiled"
            },
            {
                "address": "0x0000000000000000000000000000000000000004",
                "label": "Precompiled"
            }
        ]
    },
    "trace": {
        "accountLabels": null,
        "dataMap": {
            "-1": {
                "invocation": {
                    "address": "0xdb0982fe0ff0c446f0b6a8833669273a0597c70a",
                    "callData": "",
                    "decodedMethod": null,
                    "errorInfo": "",
                    "fromAddress": "",
                    "gasUsed": 0,
                    "id": -1,
                    "methodDecoded": false,
                    "operation": "",
                    "output": "",
                    "revert": false,
                    "revertMessage": "",
                    "selector": "",
                    "status": false,
                    "value": ""
                },
                "nodeType": 0
            },
            "0": {
                "invocation": {
                    "address": "0x15f0dbf26a61b7eba6e6faecb9796fa2ccc61b14",
                    "callData": "0x0000000000000000000000000d0c6914a0d2a0825a841ca6c73e198a95d0d88500000000000000000000000000000000000000000000001b1ae4d6e2ef500000",
                    "decodedMethod": {
                        "callParams": [
                            {
                                "name": "recipient",
                                "type": "address",
                                "value": "0x0d0c6914a0d2a0825a841ca6c73e198a95d0d885"
                            },
                            {
                                "decimalAvailable": true,
                                "name": "amount",
                                "type": "uint256",
                                "value": "500,000,000,000,000,000,000"
                            }
                        ],
                        "constructorArguments": "",
                        "name": "transfer",
                        "returnParams": [
                            {
                                "name": "",
                                "type": "bool",
                                "value": true
                            }
                        ],
                        "signature": "transfer(address,uint256)"
                    },
                    "errorInfo": "",
                    "fromAddress": "0xdb0982fe0ff0c446f0b6a8833669273a0597c70a",
                    "gasUsed": 52069,
                    "id": 0,
                    "methodDecoded": true,
                    "operation": "CALL",
                    "output": "0x0000000000000000000000000000000000000000000000000000000000000001",
                    "revert": false,
                    "revertMessage": "",
                    "selector": "0xa9059cbb",
                    "status": true,
                    "value": "0"
                },
                "nodeType": 0
            },
            "1": {
                "event": {
                    "contract": "0x15f0dbf26a61b7eba6e6faecb9796fa2ccc61b14",
                    "decodedLog": {
                        "name": "Transfer",
                        "params": [
                            {
                                "name": "from",
                                "type": "address",
                                "value": "0xdb0982fe0ff0c446f0b6a8833669273a0597c70a"
                            },
                            {
                                "name": "to",
                                "type": "address",
                                "value": "0x0d0c6914a0d2a0825a841ca6c73e198a95d0d885"
                            },
                            {
                                "decimalAvailable": true,
                                "name": "value",
                                "type": "uint256",
                                "value": "500,000,000,000,000,000,000"
                            }
                        ],
                        "signature": "Transfer(address,address,uint256)"
                    },
                    "id": 1,
                    "logData": "0x00000000000000000000000000000000000000000000001b1ae4d6e2ef500000",
                    "logDecoded": true,
                    "operation": "EVENT",
                    "revert": false,
                    "status": true,
                    "topics": [
                        "0xddf252ad1be2c89b69c2b068fc378daa952ba7f163c4a11628f55a4df523b3ef",
                        "0x000000000000000000000000db0982fe0ff0c446f0b6a8833669273a0597c70a",
                        "0x0000000000000000000000000d0c6914a0d2a0825a841ca6c73e198a95d0d885"
                    ]
                },
                "nodeType": 1
            }
        },
        "gasFlame": [
            {
                "children": [
                    {
                        "children": [
                            {
                                "children": [],
                                "depth": 0,
                                "name": "Initial Gas",
                                "value": 21644
                            },
                            {
                                "children": [],
                                "depth": 0,
                                "name": "Executed Gas",
                                "value": 30425
                            }
                        ],
                        "depth": -1,
                        "name": "Actual Gas Used",
                        "value": 52069
                    },
                    {
                        "children": [],
                        "depth": -1,
                        "name": "Refunded Gas",
                        "value": 0
                    }
                ],
                "depth": -2,
                "name": "Total Gas",
                "value": 52069
            }
        ],
        "isConfirmed": true,
        "mainTrace": [
            {
                "children": [
                    {
                        "children": [
                            {
                                "children": [],
                                "depth": 1,
                                "id": 1,
                                "order": 1
                            }
                        ],
                        "depth": 0,
                        "id": 0,
                        "order": 0
                    }
                ],
                "depth": -1,
                "id": -1,
                "order": -1
            }
        ],
        "mainTraceNodeCount": 2,
        "parentIdMap": {
            "0": -1,
            "1": 0
        },
        "tidyTrace": [
            {
                "children": [
                    {
                        "children": [
                            {
                                "children": [],
                                "depth": 1,
                                "id": 1,
                                "order": 1
                            }
                        ],
                        "depth": 0,
                        "id": 0,
                        "order": 0
                    }
                ],
                "depth": -1,
                "id": -1,
                "order": -1
            }
        ],
        "tidyTraceNodeCount": 2
    },
    "state_change": {
        "stateChanges": [
            {
                "address": "0x15f0dbf26a61b7eba6e6faecb9796fa2ccc61b14",
                "erc": "",
                "slots": [
                    {
                        "current": "0x000000000000000000000000000000000000000000000b6f588aa7bcf5c00000",
                        "key": "0xfa7be9bd327954d0d2913f8d23ff243f187bde2d8da586e975f1511888695336",
                        "prev": "0x000000000000000000000000000000000000000000000b8a736f7e9fe5100000"
                    },
                    {
                        "current": "0x00000000000000000000000000000000000000000000001b1ae4d6e2ef500000",
                        "key": "0xeac7a68d664fbf9a19d310d1b7a4e4bc7582bbd57932ca172e83e4dd1f66c36a",
                        "prev": "0x0000000000000000000000000000000000000000000000000000000000000000"
                    }
                ],
                "storageVariables": []
            }
        ]
    }
}