{
    "balance_change": {
        "balanceChanges": [
            {
                "account": "0x0967e1753c1565ee76284c23856538428e574417",
                "assets": [
                    {
                        "address": "0x006bea43baa3f7a6f765f14f10a1a1b08334ef45",
                        "amount": "35,031.121389938293080065",
                        "iconUrl": "https://assets.blocksec.com/icon/7a5a1c6e87d1f6a5ba665961881c737417664365153d57c83e56853c8d524005.png",
                        "isERC1155": false,
                        "isERC721": false,
                        "sign": false,
                        "value": ""
                    },
                    {
                        "address": "0x1f573d6fb3f13d689ff844b4ce37794d79a7ff1c",
                        "amount": "1,732.21435057398496791",
                        "iconUrl": "https://assets.blocksec.com/icon/2134050168d6c4780030be02f0a6ca44fe9e3462a2cefed4fac3abde8839c5b0.png",
                        "isERC1155": false,
                        "isERC721": false,
                        "sign": true,
                        "value": ""
                    }
                ]
            },
            {
                "account": "0x8606704880234178125b2d44cbbe190ccdbde015",
                "assets": [
                    {
                        "address": "0x1f573d6fb3f13d689ff844b4ce37794d79a7ff1c",
                        "amount": "1,732.21435057398496791",
                        "iconUrl": "https://assets.blocksec.com/icon/2134050168d6c4780030be02f0a6ca44fe9e3462a2cefed4fac3abde8839c5b0.png",
                        "isERC1155": false,
                        "isERC721": false,
                        "sign": false,
                        "value": ""
                    }
                ]
            },
            {
                "account": "0x006bea43baa3f7a6f765f14f10a1a1b08334ef45",
                "assets": [
                    {
                        "address": "0x006bea43baa3f7a6f765f14f10a1a1b08334ef45",
                        "amount": "35,031.121389938293080065",
                        "iconUrl": "https://assets.blocksec.com/icon/7a5a1c6e87d1f6a5ba665961881c737417664365153d57c83e56853c8d524005.png",
                        "isERC1155": false,
                        "isERC721": false,
                        "sign": true,
                        "value": ""
                    }
                ]
            }
        ]
    },
    "profile": {
        "basic_info": {
            "baseFee": "",
            "blockNumber": 6544166,
            "callData": "0xf0843ba9000000000000000000000000000000000000000000000000000000000000006000000000000000000000000000000000000000000000076b0a7825502c40000000000000000000000000000000000000000000000000005cf6e90070b45f85e00000000000000000000000000000000000000000000000000000000000000003000000000000000000000000006bea43baa3f7a6f765f14f10a1a1b08334ef45000000000000000000000000006bea43baa3f7a6f765f14f10a1a1b08334ef450000000000000000000000001f573d6fb3f13d689ff844b4ce37794d79a7ff1c",
            "debugEnable": true,
            "errorInfo": "",
            "eventCount": 9,
            "feeRecipient": "0xb75d1e62b10e4ba91315c4aa3facc536f8a922f5",
            "formatValue": "0",
            "gasLimit": 296853,
            "gasPrice": "9",
            "gasUsed": 172941,
            "intTxnCount": 24,
            "internalRevert": false,
            "internalRevertMessage": "",
            "isContractCreation": false,
            "isFlashloan": false,
            "maxFee": "",
            "nonce": 125,
            "overwritedBlockNumber": -1,
            "priorityFee": "",
            "receiver": "0x8606704880234178125b2d44cbbe190ccdbde015",
            "revertMessage": "",
            "sender": "0x0967e1753c1565ee76284c23856538428e574417",
            "simulationEnable": true,
            "sourceTxnHash": "0x0b3f265b7a4cdaf3392ebf23fa69db1935008a304568fd0a618435a67b9a0340",
            "status": true,
            "timestamp": "2018-10-19T12:44:40Z",
            "transactionFee": "0.001556469",
            "txnHash": "0x0b3f265b7a4cdaf3392ebf23fa69db1935008a304568fd0a618435a67b9a0340",
            "txnIndex": 52,
            "type": 0,
            "value": "0"
        },
        "fund_flow": [
            {
                "amount": "35,031.121389938293080065",
                "from": "0x0967e1753c1565ee76284c23856538428e574417",
                "id": 1,
                "isERC1155": false,
                "isERC721": false,
                "isReverted": false,
                "order": 1,
                "to": "0x006bea43baa3f7a6f765f14f10a1a1b08334ef45",
                "token": "0x006bea43baa3f7a6f765f14f10a1a1b08334ef45"
            },
            {
                "amount": "35,031.121389938293080065",
                "from": "0x006bea43baa3f7a6f765f14f10a1a1b08334ef45",
                "id": 2,
                "isERC1155": false,
                "isERC721": false,
                "isReverted": false,
                "order": 2,
                "to": "0xf20b9e713a33f61fa38792d2afaf1cd30339126a",
                "token": "0x006bea43baa3f7a6f765f14f10a1a1b08334ef45"
            },
            {
                "amount": "35,031.121389938293080065",
                "from": "0xf20b9e713a33f61fa38792d2afaf1cd30339126a",
                "id": 3,
                "isERC1155": false,
                "isERC721": false,
                "isReverted": false,
                "order": 3,
                "to": "0x006bea43baa3f7a6f765f14f10a1a1b08334ef45",
                "token": "0x006bea43baa3f7a6f765f14f10a1a1b08334ef45"
            },
            {
                "amount": "1,732.21435057398496791",
                "from": "0x8606704880234178125b2d44cbbe190ccdbde015",
                "id": 4,
                "isERC1155": false,
                "isERC721": false,
                "isReverted": false,
                "order": 4,
                "to": "0xf20b9e713a33f61fa38792d2afaf1cd30339126a",
                "token": "0x1f573d6fb3f13d689ff844b4ce37794d79a7ff1c"
            },
            {
                "amount": "1,732.21435057398496791",
                "from": "0xf20b9e713a33f61fa38792d2afaf1cd30339126a",
                "id": 5,
                "isERC1155": false,
                "isERC721": false,
                "isReverted": false,
                "order": 5,
                "to": "0x0967e1753c1565ee76284c23856538428e574417",
                "token": "0x1f573d6fb3f13d689ff844b4ce37794d79a7ff1c"
            }
        ],
        "token_infos": [
            {
                "address": "0x006bea43baa3f7a6f765f14f10a1a1b08334ef45",
                "decimals": 18
            },
            {
                "address": "0x1f573d6fb3f13d689ff844b4ce37794d79a7ff1c",
                "decimals": 18
            },
            {
                "address": "0xc02aaa39b223fe8d0a0e5c4f27ead9083c756cc2",
                "decimals": 18
            },
            {
                "address": "0xeeeeeeeeeeeeeeeeeeeeeeeeeeeeeeeeeeeeeeee",
                "decimals": 18
            }
        ]
    },
    "address_label": {
        "labels": [
            {
                "address": "0x8606704880234178125b2d44cbbe190ccdbde015",
                "label": "Bancor: Converter #87"
            },
            {
                "address": "0x7148b1c9154bcf273a2c7d7b90e3edc6fee395e6",
                "label": "ContractRegistry"
            },
            {
                "address": "0x0000000000000000000000000000000000000002",
                "label": "Precompiled"
            },
            {
                "address": "0x1f573d6fb3f13d689ff844b4ce37794d79a7ff1c",
                "label": "Bancor: BNT Token"
            },
            {
                "address": "0x607a5c47978e2eb6d59c6c6f51bc0bf411f4b85a",
                "label": "Bancor: Gas Price Limit"
            },
            {
                "address": "0x006bea43baa3f7a6f765f14f10a1a1b08334ef45",
                "label": "Stox Token"
            },
            {
                "address": "0xffd2de852b694f88656e91d9defa6b425c454742",
                "label": "BancorFormula"
            },
            {
                "address": "0xf20b9e713a33f61fa38792d2afaf1cd30339126a",
                "label": "BancorNetwork"
            },
            {
                "address": "0x563172281800b139f69fb038cc2c08cad56ce699",
                "label": "ContractFeatures"
            },
            {
                "address": "0xf46002c37af6fb078ae1833fd447698a0c9012f7",
                "label": "BancorConverterExtensions"
            },
            {
                "address": "0x0000000000000000000000000000000000000001",
                "label": "Precompiled"
            },
            {
                "address": "0xeeeeeeeeeeeeeeeeeeeeeeeeeeeeeeeeeeeeeeee",
                "label": "Ether"
            },
            {
                "address": "0x0000000000000000000000000000000000000003",
                "label": "Precompiled"
            },
            {
                "address": "0x0000000000000000000000000000000000000004",
                "label": "Precompiled"
            }
        ]
    },
    "trace": {
        "accountLabels": null,
        "dataMap": {
            "-1": {
                "invocation": {
                    "address": "0x0967e1753c1565ee76284c23856538428e574417",
                    "callData": "",
                    "decodedMethod": null,
                    "errorInfo": "",
                    "fromAddress": "",
                    "gasUsed": 0,
                    "id": -1,
                    "methodDecoded": false,
                    "operation": "",
                    "output": "",
                    "revert": false,
                    "revertMessage": "",
                    "selector": "",
                    "status": false,
                    "value": ""
                },
                "nodeType": 0
            },
            "0": {
                "invocation": {
                    "address": "0x8606704880234178125b2d44cbbe190ccdbde015",
                    "callData": "0x000000000000000000000000000000000000000000000000000000000000006000000000000000000000000000000000000000000000076b0a7825502c40000000000000000000000000000000000000000000000000005cf6e90070b45f85e00000000000000000000000000000000000000000000000000000000000000003000000000000000000000000006bea43baa3f7a6f765f14f10a1a1b08334ef45000000000000000000000000006bea43baa3f7a6f765f14f10a1a1b08334ef450000000000000000000000001f573d6fb3f13d689ff844b4ce37794d79a7ff1c",
                    "decodedMethod": {
                        "callParams": [
                            {
                                "name": "_path",
                                "type": "address[]",
                                "value": [
                                    "0x006bea43baa3f7a6f765f14f10a1a1b08334ef45",
                                    "0x006bea43baa3f7a6f765f14f10a1a1b08334ef45",
                                    "0x1f573d6fb3f13d689ff844b4ce37794d79a7ff1c"
                                ]
                            },
                            {
                                "name": "_amount",
                                "type": "uint256",
                                "value": "35,031,121,389,938,293,080,064"
                            },
                            {
                                "name": "_minReturn",
                                "type": "uint256",
                                "value": "1,714,892,207,068,245,100,000"
                            }
                        ],
                        "constructorArguments": "",
                        "name": "quickConvert",
                        "returnParams": [
                            {
                                "name": "",
                                "type": "uint256",
                                "value": "1,732,214,350,573,984,967,910"
                            }
                        ],
                        "signature": "quickConvert(address[],uint256,uint256)"
                    },
                    "errorInfo": "",
                    "fromAddress": "0x0967e1753c1565ee76284c23856538428e574417",
                    "gasUsed": 172941,
                    "id": 0,
                    "methodDecoded": true,
                    "operation": "CALL",
                    "output": "0x00000000000000000000000000000000000000000000005de74d9e2e9c566ce6",
                    "revert": false,
                    "revertMessage": "",
                    "selector": "0xf0843ba9",
                    "status": true,
                    "value": "0"
                },
                "nodeType": 0
            },
            "1": {
                "invocation": {
                    "address": "0xf46002c37af6fb078ae1833fd447698a0c9012f7",
                    "callData": "0x",
                    "decodedMethod": {
                        "callParams": [],
                        "constructorArguments": "",
                        "name": "quickConverter",
                        "returnParams": [
                            {
                                "name": "",
                                "type": "address",
                                "value": "0xf20b9e713a33f61fa38792d2afaf1cd30339126a"
                            }
                        ],
                        "signature": "quickConverter()"
                    },
                    "errorInfo": "",
                    "fromAddress": "0x8606704880234178125b2d44cbbe190ccdbde015",
                    "gasUsed": 655,
                    "id": 1,
                    "methodDecoded": true,
                    "operation": "CALL",
                    "output": "0x000000000000000000000000f20b9e713a33f61fa38792d2afaf1cd30339126a",
                    "revert": false,
                    "revertMessage": "",
                    "selector": "0xc31e0547",
                    "status": true,
                    "value": "0"
                },
                "nodeType": 0
            },
            "10": {
                "invocation": {
                    "address": "0x7148b1c9154bcf273a2c7d7b90e3edc6fee395e6",
                    "callData": "0x436f6e7472616374466561747572657300000000000000000000000000000000",
                    "decodedMethod": {
                        "callParams": [
                            {
                                "name": "_contractName",
                                "type": "bytes32",
                                "value": "0x436f6e7472616374466561747572657300000000000000000000000000000000"
                            }
                        ],
                        "constructorArguments": "",
                        "name": "getAddress",
                        "returnParams": [
                            {
                                "name": "",
                                "type": "address",
                                "value": "0x563172281800b139f69fb038cc2c08cad56ce699"
                            }
                        ],
                        "signature": "getAddress(bytes32)"
                    },
                    "errorInfo": "",
                    "fromAddress": "0xf20b9e713a33f61fa38792d2afaf1cd30339126a",
                    "gasUsed": 649,
                    "id": 10,
                    "methodDecoded": true,
                    "operation": "CALL",
                    "output": "0x000000000000000000000000563172281800b139f69fb038cc2c08cad56ce699",
                    "revert": false,
                    "revertMessage": "",
                    "selector": "0x21f8a721",
                    "status": true,
                    "value": "0"
                },
                "nodeType": 0
            },
            "11": {
                "invocation": {
                    "address": "0x006bea43baa3f7a6f765f14f10a1a1b08334ef45",
                    "callData": "0x",
                    "decodedMethod": {
                        "callParams": [],
                        "constructorArguments": "",
                        "name": "owner",
                        "returnParams": [
                            {
                                "name": "",
                                "type": "address",
                                "value": "0x8606704880234178125b2d44cbbe190ccdbde015"
                            }
                        ],
                        "signature": "owner()"
                    },
                    "errorInfo": "",
                    "fromAddress": "0xf20b9e713a33f61fa38792d2afaf1cd30339126a",
                    "gasUsed": 790,
                    "id": 11,
                    "methodDecoded": true,
                    "operation": "CALL",
                    "output": "0x0000000000000000000000008606704880234178125b2d44cbbe190ccdbde015",
                    "revert": false,
                    "revertMessage": "",
                    "selector": "0x8da5cb5b",
                    "status": true,
                    "value": "0"
                },
                "nodeType": 0
            },
            "12": {
                "invocation": {
                    "address": "0x563172281800b139f69fb038cc2c08cad56ce699",
                    "callData": "0x0000000000000000000000008606704880234178125b2d44cbbe190ccdbde0150000000000000000000000000000000000000000000000000000000000000001",
                    "decodedMethod": {
                        "callParams": [
                            {
                                "name": "_contract",
                                "type": "address",
                                "value": "0x8606704880234178125b2d44cbbe190ccdbde015"
                            },
                            {
                                "name": "_features",
                                "type": "uint256",
                                "value": "1"
                            }
                        ],
                        "constructorArguments": "",
                        "name": "isSupported",
                        "returnParams": [
                            {
                                "name": "",
                                "type": "bool",
                                "value": false
                            }
                        ],
                        "signature": "isSupported(address,uint256)"
                    },
                    "errorInfo": "",
                    "fromAddress": "0xf20b9e713a33f61fa38792d2afaf1cd30339126a",
                    "gasUsed": 512,
                    "id": 12,
                    "methodDecoded": true,
                    "operation": "CALL",
                    "output": "0x0000000000000000000000000000000000000000000000000000000000000000",
                    "revert": false,
                    "revertMessage": "",
                    "selector": "0xa5fbf287",
                    "status": true,
                    "value": "0"
                },
                "nodeType": 0
            },
            "13": {
                "invocation": {
                    "address": "0x8606704880234178125b2d44cbbe190ccdbde015",
                    "callData": "0x000000000000000000000000006bea43baa3f7a6f765f14f10a1a1b08334ef450000000000000000000000001f573d6fb3f13d689ff844b4ce37794d79a7ff1c00000000000000000000000000000000000000000000076b0a7825502c40000000000000000000000000000000000000000000000000005cf6e90070b45f85e0",
                    "decodedMethod": {
                        "callParams": [
                            {
                                "name": "_fromToken",
                                "type": "address",
                                "value": "0x006bea43baa3f7a6f765f14f10a1a1b08334ef45"
                            },
                            {
                                "name": "_toToken",
                                "type": "address",
                                "value": "0x1f573d6fb3f13d689ff844b4ce37794d79a7ff1c"
                            },
                            {
                                "name": "_amount",
                                "type": "uint256",
                                "value": "35,031,121,389,938,293,080,064"
                            },
                            {
                                "name": "_minReturn",
                                "type": "uint256",
                                "value": "1,714,892,207,068,245,100,000"
                            }
                        ],
                        "constructorArguments": "",
                        "name": "change",
                        "returnParams": [
                            {
                                "name": "",
                                "type": "uint256",
                                "value": "1,732,214,350,573,984,967,910"
                            }
                        ],
                        "signature": "change(address,address,uint256,uint256)"
                    },
                    "errorInfo": "",
                    "fromAddress": "0xf20b9e713a33f61fa38792d2afaf1cd30339126a",
                    "gasUsed": 75438,
                    "id": 13,
                    "methodDecoded": true,
                    "operation": "CALL",
                    "output": "0x00000000000000000000000000000000000000000000005de74d9e2e9c566ce6",
                    "revert": false,
                    "revertMessage": "",
                    "selector": "0x5e5144eb",
                    "status": true,
                    "value": "0"
                },
                "nodeType": 0
            },
            "14": {
                "invocation": {
                    "address": "0xf46002c37af6fb078ae1833fd447698a0c9012f7",
                    "callData": "0x",
                    "decodedMethod": {
                        "callParams": [],
                        "constructorArguments": "",
                        "name": "gasPriceLimit",
                        "returnParams": [
                            {
                                "name": "",
                                "type": "address",
                                "value": "0x607a5c47978e2eb6d59c6c6f51bc0bf411f4b85a"
                            }
                        ],
                        "signature": "gasPriceLimit()"
                    },
                    "errorInfo": "",
                    "fromAddress": "0x8606704880234178125b2d44cbbe190ccdbde015",
                    "gasUsed": 611,
                    "id": 14,
                    "methodDecoded": true,
                    "operation": "CALL",
                    "output": "0x000000000000000000000000607a5c47978e2eb6d59c6c6f51bc0bf411f4b85a",
                    "revert": false,
                    "revertMessage": "",
                    "selector": "0x961a929c",
                    "status": true,
                    "value": "0"
                },
                "nodeType": 0
            },
            "15": {
                "invocation": {
                    "address": "0x607a5c47978e2eb6d59c6c6f51bc0bf411f4b85a",
                    "callData": "0x",
                    "decodedMethod": {
                        "callParams": [],
                        "constructorArguments": "",
                        "name": "gasPrice",
                        "returnParams": [
                            {
                                "name": "",
                                "type": "uint256",
                                "value": "9,000,000,000"
                            }
                        ],
                        "signature": "gasPrice()"
                    },
                    "errorInfo": "",
                    "fromAddress": "0x8606704880234178125b2d44cbbe190ccdbde015",
                    "gasUsed": 505,
                    "id": 15,
                    "methodDecoded": true,
                    "operation": "CALL",
                    "output": "0x0000000000000000000000000000000000000000000000000000000218711a00",
                    "revert": false,
                    "revertMessage": "",
                    "selector": "0xfe173b97",
                    "status": true,
                    "value": "0"
                },
                "nodeType": 0
            },
            "16": {
                "invocation": {
                    "address": "0x006bea43baa3f7a6f765f14f10a1a1b08334ef45",
                    "callData": "0x000000000000000000000000f20b9e713a33f61fa38792d2afaf1cd30339126a",
                    "decodedMethod": {
                        "callParams": [
                            {
                                "name": "",
                                "type": "address",
                                "value": "0xf20b9e713a33f61fa38792d2afaf1cd30339126a"
                            }
                        ],
                        "constructorArguments": "",
                        "name": "balanceOf",
                        "returnParams": [
                            {
                                "decimalAvailable": true,
                                "name": "",
                                "type": "uint256",
                                "value": "35,031,121,389,938,293,080,064"
                            }
                        ],
                        "signature": "balanceOf(address)"
                    },
                    "errorInfo": "",
                    "fromAddress": "0x8606704880234178125b2d44cbbe190ccdbde015",
                    "gasUsed": 718,
                    "id": 16,
                    "methodDecoded": true,
                    "operation": "CALL",
                    "output": "0x00000000000000000000000000000000000000000000076b0a7825502c400000",
                    "revert": false,
                    "revertMessage": "",
                    "selector": "0x70a08231",
                    "status": true,
                    "value": "0"
                },
                "nodeType": 0
            },
            "17": {
                "invocation": {
                    "address": "0x006bea43baa3f7a6f765f14f10a1a1b08334ef45",
                    "callData": "0x",
                    "decodedMethod": {
                        "callParams": [],
                        "constructorArguments": "",
                        "name": "totalSupply",
                        "returnParams": [
                            {
                                "name": "",
                                "type": "uint256",
                                "value": "56,971,220,713,317,040,675,341,047"
                            }
                        ],
                        "signature": "totalSupply()"
                    },
                    "errorInfo": "",
                    "fromAddress": "0x8606704880234178125b2d44cbbe190ccdbde015",
                    "gasUsed": 439,
                    "id": 17,
                    "methodDecoded": true,
                    "operation": "CALL",
                    "output": "0x0000000000000000000000000000000000000000002f2020103629f4307fc2f7",
                    "revert": false,
                    "revertMessage": "",
                    "selector": "0x18160ddd",
                    "status": true,
                    "value": "0"
                },
                "nodeType": 0
            },
            "18": {
                "invocation": {
                    "address": "0x006bea43baa3f7a6f765f14f10a1a1b08334ef45",
                    "callData": "0x",
                    "decodedMethod": {
                        "callParams": [],
                        "constructorArguments": "",
                        "name": "owner",
                        "returnParams": [
                            {
                                "name": "",
                                "type": "address",
                                "value": "0x8606704880234178125b2d44cbbe190ccdbde015"
                            }
                        ],
                        "signature": "owner()"
                    },
                    "errorInfo": "",
                    "fromAddress": "0x8606704880234178125b2d44cbbe190ccdbde015",
                    "gasUsed": 790,
                    "id": 18,
                    "methodDecoded": true,
                    "operation": "CALL",
                    "output": "0x0000000000000000000000008606704880234178125b2d44cbbe190ccdbde015",
                    "revert": false,
                    "revertMessage": "",
                    "selector": "0x8da5cb5b",
                    "status": true,
                    "value": "0"
                },
                "nodeType": 0
            },
            "19": {
                "invocation": {
                    "address": "0x1f573d6fb3f13d689ff844b4ce37794d79a7ff1c",
                    "callData": "0x0000000000000000000000008606704880234178125b2d44cbbe190ccdbde015",
                    "decodedMethod": {
                        "callParams": [
                            {
                                "name": "",
                                "type": "address",
                                "value": "0x8606704880234178125b2d44cbbe190ccdbde015"
                            }
                        ],
                        "constructorArguments": "",
                        "name": "balanceOf",
                        "returnParams": [
                            {
                                "decimalAvailable": true,
                                "name": "",
                                "type": "uint256",
                                "value": "57,195,333,338,548,677,253,583"
                            }
                        ],
                        "signature": "balanceOf(address)"
                    },
                    "errorInfo": "",
                    "fromAddress": "0x8606704880234178125b2d44cbbe190ccdbde015",
                    "gasUsed": 718,
                    "id": 19,
                    "methodDecoded": true,
                    "operation": "CALL",
                    "output": "0x000000000000000000000000000000000000000000000c1c90b31d8beaa619cf",
                    "revert": false,
                    "revertMessage": "",
                    "selector": "0x70a08231",
                    "status": true,
                    "value": "0"
                },
                "nodeType": 0
            },
            "2": {
                "invocation": {
                    "address": "0x006bea43baa3f7a6f765f14f10a1a1b08334ef45",
                    "callData": "0x0000000000000000000000000967e1753c1565ee76284c23856538428e57441700000000000000000000000000000000000000000000076b0a7825502c400000",
                    "decodedMethod": {
                        "callParams": [
                            {
                                "name": "_from",
                                "type": "address",
                                "value": "0x0967e1753c1565ee76284c23856538428e574417"
                            },
                            {
                                "name": "_amount",
                                "type": "uint256",
                                "value": "35,031,121,389,938,293,080,064"
                            }
                        ],
                        "constructorArguments": "",
                        "name": "destroy",
                        "returnParams": [],
                        "signature": "destroy(address,uint256)"
                    },
                    "errorInfo": "",
                    "fromAddress": "0x8606704880234178125b2d44cbbe190ccdbde015",
                    "gasUsed": 14683,
                    "id": 2,
                    "methodDecoded": true,
                    "operation": "CALL",
                    "output": "",
                    "revert": false,
                    "revertMessage": "",
                    "selector": "0xa24835d1",
                    "status": true,
                    "value": "0"
                },
                "nodeType": 0
            },
            "20": {
                "invocation": {
                    "address": "0xf46002c37af6fb078ae1833fd447698a0c9012f7",
                    "callData": "0x",
                    "decodedMethod": {
                        "callParams": [],
                        "constructorArguments": "",
                        "name": "formula",
                        "returnParams": [
                            {
                                "name": "",
                                "type": "address",
                                "value": "0xffd2de852b694f88656e91d9defa6b425c454742"
                            }
                        ],
                        "signature": "formula()"
                    },
                    "errorInfo": "",
                    "fromAddress": "0x8606704880234178125b2d44cbbe190ccdbde015",
                    "gasUsed": 523,
                    "id": 20,
                    "methodDecoded": true,
                    "operation": "CALL",
                    "output": "0x000000000000000000000000ffd2de852b694f88656e91d9defa6b425c454742",
                    "revert": false,
                    "revertMessage": "",
                    "selector": "0x4b75f54f",
                    "status": true,
                    "value": "0"
                },
                "nodeType": 0
            },
            "21": {
                "invocation": {
                    "address": "0xffd2de852b694f88656e91d9defa6b425c454742",
                    "callData": "0x0000000000000000000000000000000000000000002f2020103629f4307fc2f7000000000000000000000000000000000000000000000c1c90b31d8beaa619cf0000000000000000000000000000000000000000000000000000000000004e2000000000000000000000000000000000000000000000076b0a7825502c400000",
                    "decodedMethod": {
                        "callParams": [
                            {
                                "name": "_supply",
                                "type": "uint256",
                                "value": "56,971,220,713,317,040,675,341,047"
                            },
                            {
                                "name": "_connectorBalance",
                                "type": "uint256",
                                "value": "57,195,333,338,548,677,253,583"
                            },
                            {
                                "name": "_connectorWeight",
                                "type": "uint32",
                                "value": "20,000"
                            },
                            {
                                "name": "_sellAmount",
                                "type": "uint256",
                                "value": "35,031,121,389,938,293,080,064"
                            }
                        ],
                        "constructorArguments": "",
                        "name": "calculateSaleReturn",
                        "returnParams": [
                            {
                                "name": "",
                                "type": "uint256",
                                "value": "1,732,214,350,573,984,967,910"
                            }
                        ],
                        "signature": "calculateSaleReturn(uint256,uint256,uint32,uint256)"
                    },
                    "errorInfo": "",
                    "fromAddress": "0x8606704880234178125b2d44cbbe190ccdbde015",
                    "gasUsed": 3369,
                    "id": 21,
                    "methodDecoded": true,
                    "operation": "CALL",
                    "output": "0x00000000000000000000000000000000000000000000005de74d9e2e9c566ce6",
                    "revert": false,
                    "revertMessage": "",
                    "selector": "0x49f9b0f7",
                    "status": true,
                    "value": "0"
                },
                "nodeType": 0
            },
            "22": {
                "invocation": {
                    "address": "0x006bea43baa3f7a6f765f14f10a1a1b08334ef45",
                    "callData": "0x",
                    "decodedMethod": {
                        "callParams": [],
                        "constructorArguments": "",
                        "name": "totalSupply",
                        "returnParams": [
                            {
                                "name": "",
                                "type": "uint256",
                                "value": "56,971,220,713,317,040,675,341,047"
                            }
                        ],
                        "signature": "totalSupply()"
                    },
                    "errorInfo": "",
                    "fromAddress": "0x8606704880234178125b2d44cbbe190ccdbde015",
                    "gasUsed": 439,
                    "id": 22,
                    "methodDecoded": true,
                    "operation": "CALL",
                    "output": "0x0000000000000000000000000000000000000000002f2020103629f4307fc2f7",
                    "revert": false,
                    "revertMessage": "",
                    "selector": "0x18160ddd",
                    "status": true,
                    "value": "0"
                },
                "nodeType": 0
            },
            "23": {
                "invocation": {
                    "address": "0x1f573d6fb3f13d689ff844b4ce37794d79a7ff1c",
                    "callData": "0x0000000000000000000000008606704880234178125b2d44cbbe190ccdbde015",
                    "decodedMethod": {
                        "callParams": [
                            {
                                "name": "",
                                "type": "address",
                                "value": "0x8606704880234178125b2d44cbbe190ccdbde015"
                            }
                        ],
                        "constructorArguments": "",
                        "name": "balanceOf",
                        "returnParams": [
                            {
                                "decimalAvailable": true,
                                "name": "",
                                "type": "uint256",
                                "value": "57,195,333,338,548,677,253,583"
                            }
                        ],
                        "signature": "balanceOf(address)"
                    },
                    "errorInfo": "",
                    "fromAddress": "0x8606704880234178125b2d44cbbe190ccdbde015",
                    "gasUsed": 718,
                    "id": 23,
                    "methodDecoded": true,
                    "operation": "CALL",
                    "output": "0x000000000000000000000000000000000000000000000c1c90b31d8beaa619cf",
                    "revert": false,
                    "revertMessage": "",
                    "selector": "0x70a08231",
                    "status": true,
                    "value": "0"
                },
                "nodeType": 0
            },
            "24": {
                "invocation": {
                    "address": "0x006bea43baa3f7a6f765f14f10a1a1b08334ef45",
                    "callData": "0x000000000000000000000000f20b9e713a33f61fa38792d2afaf1cd30339126a00000000000000000000000000000000000000000000076b0a7825502c400000",
                    "decodedMethod": {
                        "callParams": [
                            {
                                "name": "_from",
                                "type": "address",
                                "value": "0xf20b9e713a33f61fa38792d2afaf1cd30339126a"
                            },
                            {
                                "name": "_amount",
                                "type": "uint256",
                                "value": "35,031,121,389,938,293,080,064"
                            }
                        ],
                        "constructorArguments": "",
                        "name": "destroy",
                        "returnParams": [],
                        "signature": "destroy(address,uint256)"
                    },
                    "errorInfo": "",
                    "fromAddress": "0x8606704880234178125b2d44cbbe190ccdbde015",
                    "gasUsed": 14683,
                    "id": 24,
                    "methodDecoded": true,
                    "operation": "CALL",
                    "output": "",
                    "revert": false,
                    "revertMessage": "",
                    "selector": "0xa24835d1",
                    "status": true,
                    "value": "0"
                },
                "nodeType": 0
            },
            "25": {
                "event": {
                    "contract": "0x006bea43baa3f7a6f765f14f10a1a1b08334ef45",
                    "decodedLog": {
                        "name": "Transfer",
                        "params": [
                            {
                                "name": "_from",
                                "type": "address",
                                "value": "0xf20b9e713a33f61fa38792d2afaf1cd30339126a"
                            },
                            {
                                "name": "_to",
                                "type": "address",
                                "value": "0x006bea43baa3f7a6f765f14f10a1a1b08334ef45"
                            },
                            {
                                "decimalAvailable": true,
                                "name": "_value",
                                "type": "uint256",
                                "value": "35,031,121,389,938,293,080,064"
                            }
                        ],
                        "signature": "Transfer(address,address,uint256)"
                    },
                    "id": 25,
                    "logData": "0x00000000000000000000000000000000000000000000076b0a7825502c400000",
                    "logDecoded": true,
                    "operation": "EVENT",
                    "revert": false,
                    "status": true,
                    "topics": [
                        "0xddf252ad1be2c89b69c2b068fc378daa952ba7f163c4a11628f55a4df523b3ef",
                        "0x000000000000000000000000f20b9e713a33f61fa38792d2afaf1cd30339126a",
                        "0x000000000000000000000000006bea43baa3f7a6f765f14f10a1a1b08334ef45"
                    ]
                },
                "nodeType": 1
            },
            "26": {
                "event": {
                    "contract": "0x006bea43baa3f7a6f765f14f10a1a1b08334ef45",
                    "decodedLog": {
                        "name": "Destruction",
                        "params": [
                            {
                                "name": "_amount",
                                "type": "uint256",
                                "value": "35,031,121,389,938,293,080,064"
                            }
                        ],
                        "signature": "Destruction(uint256)"
                    },
                    "id": 26,
                    "logData": "0x00000000000000000000000000000000000000000000076b0a7825502c400000",
                    "logDecoded": true,
                    "operation": "EVENT",
                    "revert": false,
                    "status": true,
                    "topics": [
                        "0x9a1b418bc061a5d80270261562e6986a35d995f8051145f277be16103abd3453"
                    ]
                },
                "nodeType": 1
            },
            "27": {
                "invocation": {
                    "address": "0x1f573d6fb3f13d689ff844b4ce37794d79a7ff1c",
                    "callData": "0x000000000000000000000000f20b9e713a33f61fa38792d2afaf1cd30339126a00000000000000000000000000000000000000000000005de74d9e2e9c566ce6",
                    "decodedMethod": {
                        "callParams": [
                            {
                                "name": "_to",
                                "type": "address",
                                "value": "0xf20b9e713a33f61fa38792d2afaf1cd30339126a"
                            },
                            {
                                "decimalAvailable": true,
                                "name": "_value",
                                "type": "uint256",
                                "value": "1,732,214,350,573,984,967,910"
                            }
                        ],
                        "constructorArguments": "",
                        "name": "transfer",
                        "returnParams": [
                            {
                                "name": "success",
                                "type": "bool",
                                "value": true
                            }
                        ],
                        "signature": "transfer(address,uint256)"
                    },
                    "errorInfo": "",
                    "fromAddress": "0x8606704880234178125b2d44cbbe190ccdbde015",
                    "gasUsed": 14152,
                    "id": 27,
                    "methodDecoded": true,
                    "operation": "CALL",
                    "output": "0x0000000000000000000000000000000000000000000000000000000000000001",
                    "revert": false,
                    "revertMessage": "",
                    "selector": "0xa9059cbb",
                    "status": true,
                    "value": "0"
                },
                "nodeType": 0
            },
            "28": {
                "event": {
                    "contract": "0x1f573d6fb3f13d689ff844b4ce37794d79a7ff1c",
                    "decodedLog": {
                        "name": "Transfer",
                        "params": [
                            {
                                "name": "_from",
                                "type": "address",
                                "value": "0x8606704880234178125b2d44cbbe190ccdbde015"
                            },
                            {
                                "name": "_to",
                                "type": "address",
                                "value": "0xf20b9e713a33f61fa38792d2afaf1cd30339126a"
                            },
                            {
                                "decimalAvailable": true,
                                "name": "_value",
                                "type": "uint256",
                                "value": "1,732,214,350,573,984,967,910"
                            }
                        ],
                        "signature": "Transfer(address,address,uint256)"
                    },
                    "id": 28,
                    "logData": "0x00000000000000000000000000000000000000000000005de74d9e2e9c566ce6",
                    "logDecoded": true,
                    "operation": "EVENT",
                    "revert": false,
                    "status": true,
                    "topics": [
                        "0xddf252ad1be2c89b69c2b068fc378daa952ba7f163c4a11628f55a4df523b3ef",
                        "0x0000000000000000000000008606704880234178125b2d44cbbe190ccdbde015",
                        "0x000000000000000000000000f20b9e713a33f61fa38792d2afaf1cd30339126a"
                    ]
                },
                "nodeType": 1
            },
            "29": {
                "invocation": {
                    "address": "0x1f573d6fb3f13d689ff844b4ce37794d79a7ff1c",
                    "callData": "0x0000000000000000000000008606704880234178125b2d44cbbe190ccdbde015",
                    "decodedMethod": {
                        "callParams": [
                            {
                                "name": "",
                                "type": "address",
                                "value": "0x8606704880234178125b2d44cbbe190ccdbde015"
                            }
                        ],
                        "constructorArguments": "",
                        "name": "balanceOf",
                        "returnParams": [
                            {
                                "decimalAvailable": true,
                                "name": "",
                                "type": "uint256",
                                "value": "55,463,118,987,974,692,285,673"
                            }
                        ],
                        "signature": "balanceOf(address)"
                    },
                    "errorInfo": "",
                    "fromAddress": "0x8606704880234178125b2d44cbbe190ccdbde015",
                    "gasUsed": 718,
                    "id": 29,
                    "methodDecoded": true,
                    "operation": "CALL",
                    "output": "0x000000000000000000000000000000000000000000000bbea9657f5d4e4face9",
                    "revert": false,
                    "revertMessage": "",
                    "selector": "0x70a08231",
                    "status": true,
                    "value": "0"
                },
                "nodeType": 0
            },
            "3": {
                "event": {
                    "contract": "0x006bea43baa3f7a6f765f14f10a1a1b08334ef45",
                    "decodedLog": {
                        "name": "Transfer",
                        "params": [
                            {
                                "name": "_from",
                                "type": "address",
                                "value": "0x0967e1753c1565ee76284c23856538428e574417"
                            },
                            {
                                "name": "_to",
                                "type": "address",
                                "value": "0x006bea43baa3f7a6f765f14f10a1a1b08334ef45"
                            },
                            {
                                "decimalAvailable": true,
                                "name": "_value",
                                "type": "uint256",
                                "value": "35,031,121,389,938,293,080,064"
                            }
                        ],
                        "signature": "Transfer(address,address,uint256)"
                    },
                    "id": 3,
                    "logData": "0x00000000000000000000000000000000000000000000076b0a7825502c400000",
                    "logDecoded": true,
                    "operation": "EVENT",
                    "revert": false,
                    "status": true,
                    "topics": [
                        "0xddf252ad1be2c89b69c2b068fc378daa952ba7f163c4a11628f55a4df523b3ef",
                        "0x0000000000000000000000000967e1753c1565ee76284c23856538428e574417",
                        "0x000000000000000000000000006bea43baa3f7a6f765f14f10a1a1b08334ef45"
                    ]
                },
                "nodeType": 1
            },
            "30": {
                "invocation": {
                    "address": "0x006bea43baa3f7a6f765f14f10a1a1b08334ef45",
                    "callData": "0x",
                    "decodedMethod": {
                        "callParams": [],
                        "constructorArguments": "",
                        "name": "totalSupply",
                        "returnParams": [
                            {
                                "name": "",
                                "type": "uint256",
                                "value": "56,936,189,591,927,102,382,260,983"
                            }
                        ],
                        "signature": "totalSupply()"
                    },
                    "errorInfo": "",
                    "fromAddress": "0x8606704880234178125b2d44cbbe190ccdbde015",
                    "gasUsed": 439,
                    "id": 30,
                    "methodDecoded": true,
                    "operation": "CALL",
                    "output": "0x0000000000000000000000000000000000000000002f18b505be04a4043fc2f7",
                    "revert": false,
                    "revertMessage": "",
                    "selector": "0x18160ddd",
                    "status": true,
                    "value": "0"
                },
                "nodeType": 0
            },
            "31": {
                "event": {
                    "contract": "0x8606704880234178125b2d44cbbe190ccdbde015",
                    "decodedLog": {
                        "name": "Conversion",
                        "params": [
                            {
                                "name": "_fromToken",
                                "type": "address",
                                "value": "0x006bea43baa3f7a6f765f14f10a1a1b08334ef45"
                            },
                            {
                                "name": "_toToken",
                                "type": "address",
                                "value": "0x1f573d6fb3f13d689ff844b4ce37794d79a7ff1c"
                            },
                            {
                                "name": "_trader",
                                "type": "address",
                                "value": "0xf20b9e713a33f61fa38792d2afaf1cd30339126a"
                            },
                            {
                                "name": "_amount",
                                "type": "uint256",
                                "value": "35,031,121,389,938,293,080,064"
                            },
                            {
                                "name": "_return",
                                "type": "uint256",
                                "value": "1,732,214,350,573,984,967,910"
                            },
                            {
                                "name": "_currentPriceN",
                                "type": "uint256",
                                "value": "1,138,723,791,838,542,047,645,219,660,000"
                            },
                            {
                                "name": "_currentPriceD",
                                "type": "uint256",
                                "value": "55,463,118,987,974,692,285,673,000,000"
                            }
                        ],
                        "signature": "Conversion(address,address,address,uint256,uint256,uint256,uint256)"
                    },
                    "id": 31,
                    "logData": "0x00000000000000000000000000000000000000000000076b0a7825502c40000000000000000000000000000000000000000000000000005de74d9e2e9c566ce6000000000000000000000000000000000000000e5f6a3e609d2a8dcbf55fa0e00000000000000000000000000000000000000000b3360448faad7c2f40264c40",
                    "logDecoded": true,
                    "operation": "EVENT",
                    "revert": false,
                    "status": true,
                    "topics": [
                        "0x431d62569d69247969ee24b65452f881ddcc12e42b7b71c324403449f870c0d3",
                        "0x000000000000000000000000006bea43baa3f7a6f765f14f10a1a1b08334ef45",
                        "0x0000000000000000000000001f573d6fb3f13d689ff844b4ce37794d79a7ff1c",
                        "0x000000000000000000000000f20b9e713a33f61fa38792d2afaf1cd30339126a"
                    ]
                },
                "nodeType": 1
            },
            "32": {
                "invocation": {
                    "address": "0x1f573d6fb3f13d689ff844b4ce37794d79a7ff1c",
                    "callData": "0x0000000000000000000000000967e1753c1565ee76284c23856538428e57441700000000000000000000000000000000000000000000005de74d9e2e9c566ce6",
                    "decodedMethod": {
                        "callParams": [
                            {
                                "name": "_to",
                                "type": "address",
                                "value": "0x0967e1753c1565ee76284c23856538428e574417"
                            },
                            {
                                "decimalAvailable": true,
                                "name": "_value",
                                "type": "uint256",
                                "value": "1,732,214,350,573,984,967,910"
                            }
                        ],
                        "constructorArguments": "",
                        "name": "transfer",
                        "returnParams": [
                            {
                                "name": "success",
                                "type": "bool",
                                "value": true
                            }
                        ],
                        "signature": "transfer(address,uint256)"
                    },
                    "errorInfo": "",
                    "fromAddress": "0xf20b9e713a33f61fa38792d2afaf1cd30339126a",
                    "gasUsed": 14152,
                    "id": 32,
                    "methodDecoded": true,
                    "operation": "CALL",
                    "output": "0x0000000000000000000000000000000000000000000000000000000000000001",
                    "revert": false,
                    "revertMessage": "",
                    "selector": "0xa9059cbb",
                    "status": true,
                    "value": "0"
                },
                "nodeType": 0
            },
            "33": {
                "event": {
                    "contract": "0x1f573d6fb3f13d689ff844b4ce37794d79a7ff1c",
                    "decodedLog": {
                        "name": "Transfer",
                        "params": [
                            {
                                "name": "_from",
                                "type": "address",
                                "value": "0xf20b9e713a33f61fa38792d2afaf1cd30339126a"
                            },
                            {
                                "name": "_to",
                                "type": "address",
                                "value": "0x0967e1753c1565ee76284c23856538428e574417"
                            },
                            {
                                "decimalAvailable": true,
                                "name": "_value",
                                "type": "uint256",
                                "value": "1,732,214,350,573,984,967,910"
                            }
                        ],
                        "signature": "Transfer(address,address,uint256)"
                    },
                    "id": 33,
                    "logData": "0x00000000000000000000000000000000000000000000005de74d9e2e9c566ce6",
                    "logDecoded": true,
                    "operation": "EVENT",
                    "revert": false,
                    "status": true,
                    "topics": [
                        "0xddf252ad1be2c89b69c2b068fc378daa952ba7f163c4a11628f55a4df523b3ef",
                        "0x000000000000000000000000f20b9e713a33f61fa38792d2afaf1cd30339126a",
                        "0x0000000000000000000000000967e1753c1565ee76284c23856538428e574417"
                    ]
                },
                "nodeType": 1
            },
            "4": {
                "event": {
                    "contract": "0x006bea43baa3f7a6f765f14f10a1a1b08334ef45",
                    "decodedLog": {
                        "name": "Destruction",
                        "params": [
                            {
                                "name": "_amount",
                                "type": "uint256",
                                "value": "35,031,121,389,938,293,080,064"
                            }
                        ],
                        "signature": "Destruction(uint256)"
                    },
                    "id": 4,
                    "logData": "0x00000000000000000000000000000000000000000000076b0a7825502c400000",
                    "logDecoded": true,
                    "operation": "EVENT",
                    "revert": false,
                    "status": true,
                    "topics": [
                        "0x9a1b418bc061a5d80270261562e6986a35d995f8051145f277be16103abd3453"
                    ]
                },
                "nodeType": 1
            },
            "5": {
                "invocation": {
                    "address": "0x006bea43baa3f7a6f765f14f10a1a1b08334ef45",
                    "callData": "0x000000000000000000000000f20b9e713a33f61fa38792d2afaf1cd30339126a00000000000000000000000000000000000000000000076b0a7825502c400000",
                    "decodedMethod": {
                        "callParams": [
                            {
                                "name": "_to",
                                "type": "address",
                                "value": "0xf20b9e713a33f61fa38792d2afaf1cd30339126a"
                            },
                            {
                                "name": "_amount",
                                "type": "uint256",
                                "value": "35,031,121,389,938,293,080,064"
                            }
                        ],
                        "constructorArguments": "",
                        "name": "issue",
                        "returnParams": [],
                        "signature": "issue(address,uint256)"
                    },
                    "errorInfo": "",
                    "fromAddress": "0x8606704880234178125b2d44cbbe190ccdbde015",
                    "gasUsed": 30012,
                    "id": 5,
                    "methodDecoded": true,
                    "operation": "CALL",
                    "output": "",
                    "revert": false,
                    "revertMessage": "",
                    "selector": "0x867904b4",
                    "status": true,
                    "value": "0"
                },
                "nodeType": 0
            },
            "6": {
                "event": {
                    "contract": "0x006bea43baa3f7a6f765f14f10a1a1b08334ef45",
                    "decodedLog": {
                        "name": "Issuance",
                        "params": [
                            {
                                "name": "_amount",
                                "type": "uint256",
                                "value": "35,031,121,389,938,293,080,064"
                            }
                        ],
                        "signature": "Issuance(uint256)"
                    },
                    "id": 6,
                    "logData": "0x00000000000000000000000000000000000000000000076b0a7825502c400000",
                    "logDecoded": true,
                    "operation": "EVENT",
                    "revert": false,
                    "status": true,
                    "topics": [
                        "0x9386c90217c323f58030f9dadcbc938f807a940f4ff41cd4cead9562f5da7dc3"
                    ]
                },
                "nodeType": 1
            },
            "7": {
                "event": {
                    "contract": "0x006bea43baa3f7a6f765f14f10a1a1b08334ef45",
                    "decodedLog": {
                        "name": "Transfer",
                        "params": [
                            {
                                "name": "_from",
                                "type": "address",
                                "value": "0x006bea43baa3f7a6f765f14f10a1a1b08334ef45"
                            },
                            {
                                "name": "_to",
                                "type": "address",
                                "value": "0xf20b9e713a33f61fa38792d2afaf1cd30339126a"
                            },
                            {
                                "decimalAvailable": true,
                                "name": "_value",
                                "type": "uint256",
                                "value": "35,031,121,389,938,293,080,064"
                            }
                        ],
                        "signature": "Transfer(address,address,uint256)"
                    },
                    "id": 7,
                    "logData": "0x00000000000000000000000000000000000000000000076b0a7825502c400000",
                    "logDecoded": true,
                    "operation": "EVENT",
                    "revert": false,
                    "status": true,
                    "topics": [
                        "0xddf252ad1be2c89b69c2b068fc378daa952ba7f163c4a11628f55a4df523b3ef",
                        "0x000000000000000000000000006bea43baa3f7a6f765f14f10a1a1b08334ef45",
                        "0x000000000000000000000000f20b9e713a33f61fa38792d2afaf1cd30339126a"
                    ]
                },
                "nodeType": 1
            },
            "8": {
                "invocation": {
                    "address": "0xf20b9e713a33f61fa38792d2afaf1cd30339126a",
                    "callData": "0x000000000000000000000000000000000000000000000000000000000000008000000000000000000000000000000000000000000000076b0a7825502c40000000000000000000000000000000000000000000000000005cf6e90070b45f85e00000000000000000000000000967e1753c1565ee76284c23856538428e5744170000000000000000000000000000000000000000000000000000000000000003000000000000000000000000006bea43baa3f7a6f765f14f10a1a1b08334ef45000000000000000000000000006bea43baa3f7a6f765f14f10a1a1b08334ef450000000000000000000000001f573d6fb3f13d689ff844b4ce37794d79a7ff1c",
                    "decodedMethod": {
                        "callParams": [
                            {
                                "name": "_path",
                                "type": "address[]",
                                "value": [
                                    "0x006bea43baa3f7a6f765f14f10a1a1b08334ef45",
                                    "0x006bea43baa3f7a6f765f14f10a1a1b08334ef45",
                                    "0x1f573d6fb3f13d689ff844b4ce37794d79a7ff1c"
                                ]
                            },
                            {
                                "name": "_amount",
                                "type": "uint256",
                                "value": "35,031,121,389,938,293,080,064"
                            },
                            {
                                "name": "_minReturn",
                                "type": "uint256",
                                "value": "1,714,892,207,068,245,100,000"
                            },
                            {
                                "name": "_for",
                                "type": "address",
                                "value": "0x0967e1753c1565ee76284c23856538428e574417"
                            }
                        ],
                        "constructorArguments": "",
                        "name": "convertFor",
                        "returnParams": [
                            {
                                "name": "",
                                "type": "uint256",
                                "value": "1,732,214,350,573,984,967,910"
                            }
                        ],
                        "signature": "convertFor(address[],uint256,uint256,address)"
                    },
                    "errorInfo": "",
                    "fromAddress": "0x8606704880234178125b2d44cbbe190ccdbde015",
                    "gasUsed": 105450,
                    "id": 8,
                    "methodDecoded": true,
                    "operation": "CALL",
                    "output": "0x00000000000000000000000000000000000000000000005de74d9e2e9c566ce6",
                    "revert": false,
                    "revertMessage": "",
                    "selector": "0xc98fefed",
                    "status": true,
                    "value": "0"
                },
                "nodeType": 0
            },
            "9": {
                "invocation": {
                    "address": "0x607a5c47978e2eb6d59c6c6f51bc0bf411f4b85a",
                    "callData": "0x0000000000000000000000000000000000000000000000000000000218711a00",
                    "decodedMethod": {
                        "callParams": [
                            {
                                "name": "_gasPrice",
                                "type": "uint256",
                                "value": "9,000,000,000"
                            }
                        ],
                        "constructorArguments": "",
                        "name": "validateGasPrice",
                        "returnParams": [],
                        "signature": "validateGasPrice(uint256)"
                    },
                    "errorInfo": "",
                    "fromAddress": "0xf20b9e713a33f61fa38792d2afaf1cd30339126a",
                    "gasUsed": 387,
                    "id": 9,
                    "methodDecoded": true,
                    "operation": "CALL",
                    "output": "",
                    "revert": false,
                    "revertMessage": "",
                    "selector": "0x6b4dff1f",
                    "status": true,
                    "value": "0"
                },
                "nodeType": 0
            }
        },
        "gasFlame": [
            {
                "children": [
                    {
                        "children": [
                            {
                                "children": [],
                                "depth": 0,
                                "name": "Initial Gas",
                                "value": 27032
                            },
                            {
                                "children": [
                                    {
                                        "children": [],
                                        "depth": 1,
                                        "name": "quickConverter",
                                        "value": 655
                                    },
                                    {
                                        "children": [],
                                        "depth": 1,
                                        "name": "destroy",
                                        "value": 14683
                                    },
                                    {
                                        "children": [],
                                        "depth": 1,
                                        "name": "issue",
                                        "value": 30012
                                    },
                                    {
                                        "children": [
                                            {
                                                "children": [],
                                                "depth": 2,
                                                "name": "validateGasPrice",
                                                "value": 387
                                            },
                                            {
                                                "children": [],
                                                "depth": 2,
                                                "name": "getAddress",
                                                "value": 649
                                            },
                                            {
                                                "children": [],
                                                "depth": 2,
                                                "name": "owner",
                                                "value": 790
                                            },
                                            {
                                                "children": [],
                                                "depth": 2,
                                                "name": "isSupported",
                                                "value": 512
                                            },
                                            {
                                                "children": [
                                                    {
                                                        "children": [],
                                                        "depth": 3,
                                                        "name": "gasPriceLimit",
                                                        "value": 611
                                                    },
                                                    {
                                                        "children": [],
                                                        "depth": 3,
                                                        "name": "gasPrice",
                                                        "value": 505
                                                    },
                                                    {
                                                        "children": [],
                                                        "depth": 3,
                                                        "name": "balanceOf",
                                                        "value": 718
                                                    },
                                                    {
                                                        "children": [],
                                                        "depth": 3,
                                                        "name": "totalSupply",
                                                        "value": 439
                                                    },
                                                    {
                                                        "children": [],
                                                        "depth": 3,
                                                        "name": "owner",
                                                        "value": 790
                                                    },
                                                    {
                                                        "children": [],
                                                        "depth": 3,
                                                        "name": "balanceOf",
                                                        "value": 718
                                                    },
                                                    {
                                                        "children": [],
                                                        "depth": 3,
                                                        "name": "formula",
                                                        "value": 523
                                                    },
                                                    {
                                                        "children": [],
                                                        "depth": 3,
                                                        "name": "calculateSaleReturn",
                                                        "value": 3369
                                                    },
                                                    {
                                                        "children": [],
                                                        "depth": 3,
                                                        "name": "totalSupply",
                                                        "value": 439
                                                    },
                                                    {
                                                        "children": [],
                                                        "depth": 3,
                                                        "name": "balanceOf",
                                                        "value": 718
                                                    },
                                                    {
                                                        "children": [],
                                                        "depth": 3,
                                                        "name": "destroy",
                                                        "value": 14683
                                                    },
                                                    {
                                                        "children": [],
                                                        "depth": 3,
                                                        "name": "transfer",
                                                        "value": 14152
                                                    },
                                                    {
                                                        "children": [],
                                                        "depth": 3,
                                                        "name": "balanceOf",
                                                        "value": 718
                                                    },
                                                    {
                                                        "children": [],
                                                        "depth": 3,
                                                        "name": "totalSupply",
                                                        "value": 439
                                                    }
                                                ],
                                                "depth": 2,
                                                "name": "change",
                                                "value": 75438
                                            },
                                            {
                                                "children": [],
                                                "depth": 2,
                                                "name": "transfer",
                                                "value": 14152
                                            }
                                        ],
                                        "depth": 1,
                                        "name": "convertFor",
                                        "value": 105450
                                    }
                                ],
                                "depth": 0,
                                "name": "Executed Gas",
                                "value": 160909
                            }
                        ],
                        "depth": -1,
                        "name": "Actual Gas Used",
                        "value": 172941
                    },
                    {
                        "children": [],
                        "depth": -1,
                        "name": "Refunded Gas",
                        "value": 15000
                    }
                ],
                "depth": -2,
                "name": "Total Gas",
                "value": 187941
            }
        ],
        "isConfirmed": true,
        "mainTrace": [
            {
                "children": [
                    {
                        "children": [
                            {
                                "children": [],
                                "depth": 1,
                                "id": 1,
                                "order": 1
                            },
                            {
                                "children": [
                                    {
                                        "children": [],
                                        "depth": 2,
                                        "id": 3,
                                        "order": 3
                                    },
                                    {
                                        "children": [],
                                        "depth": 2,
                                        "id": 4,
                                        "order": 4
                                    }
                                ],
                                "depth": 1,
                                "id": 2,
                                "order": 2
                            },
                            {
                                "children": [
                                    {
                                        "children": [],
                                        "depth": 2,
                                        "id": 6,
                                        "order": 6
                                    },
                                    {
                                        "children": [],
                                        "depth": 2,
                                        "id": 7,
                                        "order": 7
                                    }
                                ],
                                "depth": 1,
                                "id": 5,
                                "order": 5
                            },
                            {
                                "children": [
                                    {
                                        "children": [],
                                        "depth": 2,
                                        "id": 9,
                                        "order": 9
                                    },
                                    {
                                        "children": [],
                                        "depth": 2,
                                        "id": 10,
                                        "order": 10
                                    },
                                    {
                                        "children": [],
                                        "depth": 2,
                                        "id": 11,
                                        "order": 11
                                    },
                                    {
                                        "children": [],
                                        "depth": 2,
                                        "id": 12,
                                        "order": 12
                                    },
                                    {
                                        "children": [
                                            {
                                                "children": [],
                                                "depth": 3,
                                                "id": 14,
                                                "order": 14
                                            },
                                            {
                                                "children": [],
                                                "depth": 3,
                                                "id": 15,
                                                "order": 15
                                            },
                                            {
                                                "children": [],
                                                "depth": 3,
                                                "id": 16,
                                                "order": 16
                                            },
                                            {
                                                "children": [],
                                                "depth": 3,
                                                "id": 17,
                                                "order": 17
                                            },
                                            {
                                                "children": [],
                                                "depth": 3,
                                                "id": 18,
                                                "order": 18
                                            },
                                            {
                                                "children": [],
                                                "depth": 3,
                                                "id": 19,
                                                "order": 19
                                            },
                                            {
                                                "children": [],
                                                "depth": 3,
                                                "id": 20,
                                                "order": 20
                                            },
                                            {
                                                "children": [],
                                                "depth": 3,
                                                "id": 21,
                                                "order": 21
                                            },
                                            {
                                                "children": [],
                                                "depth": 3,
                                                "id": 22,
                                                "order": 22
                                            },
                                            {
                                                "children": [],
                                                "depth": 3,
                                                "id": 23,
                                                "order": 23
                                            },
                                            {
                                                "children": [
                                                    {
                                                        "children": [],
                                                        "depth": 4,
                                                        "id": 25,
                                                        "order": 25
                                                    },
                                                    {
                                                        "children": [],
                                                        "depth": 4,
                                                        "id": 26,
                                                        "order": 26
                                                    }
                                                ],
                                                "depth": 3,
                                                "id": 24,
                                                "order": 24
                                            },
                                            {
                                                "children": [
                                                    {
                                                        "children": [],
                                                        "depth": 4,
                                                        "id": 28,
                                                        "order": 28
                                                    }
                                                ],
                                                "depth": 3,
                                                "id": 27,
                                                "order": 27
                                            },
                                            {
                                                "children": [],
                                                "depth": 3,
                                                "id": 29,
                                                "order": 29
                                            },
                                            {
                                                "children": [],
                                                "depth": 3,
                                                "id": 30,
                                                "order": 30
                                            },
                                            {
                                                "children": [],
                                                "depth": 3,
                                                "id": 31,
                                                "order": 31
                                            }
                                        ],
                                        "depth": 2,
                                        "id": 13,
                                        "order": 13
                                    },
                                    {
                                        "children": [
                                            {
                                                "children": [],
                                                "depth": 3,
                                                "id": 33,
                                                "order": 33
                                            }
                                        ],
                                        "depth": 2,
                                        "id": 32,
                                        "order": 32
                                    }
                                ],
                                "depth": 1,
                                "id": 8,
                                "order": 8
                            }
                        ],
                        "depth": 0,
                        "id": 0,
                        "order": 0
                    }
                ],
                "depth": -1,
                "id": -1,
                "order": -1
            }
        ],
        "mainTraceNodeCount": 34,
        "parentIdMap": {
            "0": -1,
            "1": 0,
            "10": 8,
            "11": 8,
            "12": 8,
            "13": 8,
            "14": 13,
            "15": 13,
            "16": 13,
            "17": 13,
            "18": 13,
            "19": 13,
            "2": 0,
            "20": 13,
            "21": 13,
            "22": 13,
            "23": 13,
            "24": 13,
            "25": 24,
            "26": 24,
            "27": 13,
            "28": 27,
            "29": 13,
            "3": 2,
            "30": 13,
            "31": 13,
            "32": 8,
            "33": 32,
            "4": 2,
            "5": 0,
            "6": 5,
            "7": 5,
            "8": 0,
            "9": 8
        },
        "tidyTrace": [
            {
                "children": [
                    {
                        "children": [
                            {
                                "children": [],
                                "depth": 1,
                                "id": 1,
                                "order": 1
                            },
                            {
                                "children": [
                                    {
                                        "children": [],
                                        "depth": 2,
                                        "id": 3,
                                        "order": 3
                                    },
                                    {
                                        "children": [],
                                        "depth": 2,
                                        "id": 4,
                                        "order": 4
                                    }
                                ],
                                "depth": 1,
                                "id": 2,
                                "order": 2
                            },
                            {
                                "children": [
                                    {
                                        "children": [],
                                        "depth": 2,
                                        "id": 6,
                                        "order": 6
                                    },
                                    {
                                        "children": [],
                                        "depth": 2,
                                        "id": 7,
                                        "order": 7
                                    }
                                ],
                                "depth": 1,
                                "id": 5,
                                "order": 5
                            },
                            {
                                "children": [
                                    {
                                        "children": [],
                                        "depth": 2,
                                        "id": 9,
                                        "order": 9
                                    },
                                    {
                                        "children": [],
                                        "depth": 2,
                                        "id": 10,
                                        "order": 10
                                    },
                                    {
                                        "children": [],
                                        "depth": 2,
                                        "id": 11,
                                        "order": 11
                                    },
                                    {
                                        "children": [],
                                        "depth": 2,
                                        "id": 12,
                                        "order": 12
                                    },
                                    {
                                        "children": [
                                            {
                                                "children": [],
                                                "depth": 3,
                                                "id": 14,
                                                "order": 14
                                            },
                                            {
                                                "children": [],
                                                "depth": 3,
                                                "id": 15,
                                                "order": 15
                                            },
                                            {
                                                "children": [],
                                                "depth": 3,
                                                "id": 16,
                                                "order": 16
                                            },
                                            {
                                                "children": [],
                                                "depth": 3,
                                                "id": 17,
                                                "order": 17
                                            },
                                            {
                                                "children": [],
                                                "depth": 3,
                                                "id": 18,
                                                "order": 18
                                            },
                                            {
                                                "children": [],
                                                "depth": 3,
                                                "id": 19,
                                                "order": 19
                                            },
                                            {
                                                "children": [],
                                                "depth": 3,
                                                "id": 20,
                                                "order": 20
                                            },
                                            {
                                                "children": [],
                                                "depth": 3,
                                                "id": 21,
                                                "order": 21
                                            },
                                            {
                                                "children": [],
                                                "depth": 3,
                                                "id": 22,
                                                "order": 22
                                            },
                                            {
                                                "children": [],
                                                "depth": 3,
                                                "id": 23,
                                                "order": 23
                                            },
                                            {
                                                "children": [
                                                    {
                                                        "children": [],
                                                        "depth": 4,
                                                        "id": 25,
                                                        "order": 25
                                                    },
                                                    {
                                                        "children": [],
                                                        "depth": 4,
                                                        "id": 26,
                                                        "order": 26
                                                    }
                                                ],
                                                "depth": 3,
                                                "id": 24,
                                                "order": 24
                                            },
                                            {
                                                "children": [
                                                    {
                                                        "children": [],
                                                        "depth": 4,
                                                        "id": 28,
                                                        "order": 28
                                                    }
                                                ],
                                                "depth": 3,
                                                "id": 27,
                                                "order": 27
                                            },
                                            {
                                                "children": [],
                                                "depth": 3,
                                                "id": 29,
                                                "order": 29
                                            },
                                            {
                                                "children": [],
                                                "depth": 3,
                                                "id": 30,
                                                "order": 30
                                            },
                                            {
                                                "children": [],
                                                "depth": 3,
                                                "id": 31,
                                                "order": 31
                                            }
                                        ],
                                        "depth": 2,
                                        "id": 13,
                                        "order": 13
                                    },
                                    {
                                        "children": [
                                            {
                                                "children": [],
                                                "depth": 3,
                                                "id": 33,
                                                "order": 33
                                            }
                                        ],
                                        "depth": 2,
                                        "id": 32,
                                        "order": 32
                                    }
                                ],
                                "depth": 1,
                                "id": 8,
                                "order": 8
                            }
                        ],
                        "depth": 0,
                        "id": 0,
                        "order": 0
                    }
                ],
                "depth": -1,
                "id": -1,
                "order": -1
            }
        ],
        "tidyTraceNodeCount": 34
    },
    "state_change": {
        "stateChanges": [
            {
                "address": "0x006bea43baa3f7a6f765f14f10a1a1b08334ef45",
                "erc": "ERC-20",
                "slots": [
                    {
                        "current": "0x00000000000000000000000000000000000000000000076b0a7825502c096b5d",
                        "key": "0xcfeeb31521eca5947636d15f4f1008b4e18782954c738843095228538c15bb50",
                        "prev": "0x000000000000000000000000000000000000000000000ed614f04aa058496b5d"
                    },
                    {
                        "current": "0x0000000000000000000000000000000000000000002f18b505be04a4043fc2f7",
                        "key": "0x0000000000000000000000000000000000000000000000000000000000000004",
                        "prev": "0x0000000000000000000000000000000000000000002f2020103629f4307fc2f7"
                    }
                ],
                "storageVariables": []
            },
            {
                "address": "0x1f573d6fb3f13d689ff844b4ce37794d79a7ff1c",
                "erc": "ERC-20",
                "slots": [
                    {
                        "current": "0x000000000000000000000000000000000000000000000bbea9657f5d4e4face9",
                        "key": "0x63219ea91b12478fa58b32282f20da30a7ca91d5880153fa1eed142e349689d2",
                        "prev": "0x000000000000000000000000000000000000000000000c1c90b31d8beaa619cf"
                    },
                    {
                        "current": "0x00000000000000000000000000000000000000000000005de74df406a26d450c",
                        "key": "0xcfeeb31521eca5947636d15f4f1008b4e18782954c738843095228538c15bb50",
                        "prev": "0x000000000000000000000000000000000000000000000000000055d80616d826"
                    }
                ],
                "storageVariables": []
            }
        ]
    }
}