{
    "balance_change": {
        "balanceChanges": []
    },
    "profile": {
        "basic_info": {
            "baseFee": "",
            "blockNumber": 7577174,
            "callData": "0x0a19b14a000000000000000000000000e947b388fbe682784170b62f2bd4665f9719a285000000000000000000000000000000000000000000000d7257869a94b8b00000000000000000000000000000000000000000000000000000000000000000000000000000000000000000000000000000000000000000000002bb5a0834092000000000000000000000000000000000000000000000000000000000000073c52300000000000000000000000000000000000000000000000000000000f76bdcd5000000000000000000000000127962b9b5da42856d74ee9d923305dcfae277b8000000000000000000000000000000000000000000000000000000000000001cd87dcefdacbd75f19cb2e55ba0563e5be8926158ed7cdacebb5dddb71fd572e35a3ce7448637b27925fc375053993ec1775a18c52297e446abb78a70155e7c04000000000000000000000000000000000000000000000208f86f092cb3805227",
            "debugEnable": true,
            "errorInfo": "",
            "eventCount": 1,
            "feeRecipient": "0xea674fdde714fd979de3edf0f56aa9716b898ec8",
            "formatValue": "0",
            "gasLimit": 250000,
            "gasPrice": "4",
            "gasUsed": 93434,
            "intTxnCount": 2,
            "internalRevert": false,
            "internalRevertMessage": "",
            "isContractCreation": false,
            "isFlashloan": false,
            "maxFee": "",
            "nonce": 26,
            "overwritedBlockNumber": -1,
            "priorityFee": "",
            "receiver": "0x8d12a197cb00d4747a1fe03395095ce2a5cc6819",
            "revertMessage": "",
            "sender": "0xbbb4eafd0f543e090ba52cecde0de374467fcc78",
            "simulationEnable": true,
            "sourceTxnHash": "0x0bcad99feaf2dfd5f0c16c8103430f9ae990c6768a83bfd6aae940c75c21ee87",
            "status": true,
            "timestamp": "2019-04-16T05:57:14Z",
            "transactionFee": "0.000373736",
            "txnHash": "0x0bcad99feaf2dfd5f0c16c8103430f9ae990c6768a83bfd6aae940c75c21ee87",
            "txnIndex": 123,
            "type": 0,
            "value": "0"
        },
        "fund_flow": [],
        "token_infos": [
            {
                "address": "0xc02aaa39b223fe8d0a0e5c4f27ead9083c756cc2",
                "decimals": 18
            },
            {
                "address": "0xeeeeeeeeeeeeeeeeeeeeeeeeeeeeeeeeeeeeeeee",
                "decimals": 18
            }
        ]
    },
    "address_label": {
        "labels": [
            {
                "address": "0x8d12a197cb00d4747a1fe03395095ce2a5cc6819",
                "label": "EtherDelta"
            },
            {
                "address": "0xe947b388fbe682784170b62f2bd4665f9719a285",
                "label": "Rally: RALLY Token"
            },
            {
                "address": "0x0000000000000000000000000000000000000002",
                "label": "Precompiled"
            },
            {
                "address": "0x0000000000000000000000000000000000000000",
                "label": "Null Address"
            },
            {
                "address": "0x0000000000000000000000000000000000000001",
                "label": "Precompiled"
            },
            {
                "address": "0x0000000000000000000000000000000000000003",
                "label": "Precompiled"
            },
            {
                "address": "0x0000000000000000000000000000000000000004",
                "label": "Precompiled"
            },
            {
                "address": "0xeeeeeeeeeeeeeeeeeeeeeeeeeeeeeeeeeeeeeeee",
                "label": "Ether"
            }
        ]
    },
    "trace": {
        "accountLabels": null,
        "dataMap": {
            "-1": {
                "invocation": {
                    "address": "0xbbb4eafd0f543e090ba52cecde0de374467fcc78",
                    "callData": "",
                    "decodedMethod": null,
                    "errorInfo": "",
                    "fromAddress": "",
                    "gasUsed": 0,
                    "id": -1,
                    "methodDecoded": false,
                    "operation": "",
                    "output": "",
                    "revert": false,
                    "revertMessage": "",
                    "selector": "",
                    "status": false,
                    "value": ""
                },
                "nodeType": 0
            },
            "0": {
                "invocation": {
                    "address": "0x8d12a197cb00d4747a1fe03395095ce2a5cc6819",
                    "callData": "0x000000000000000000000000e947b388fbe682784170b62f2bd4665f9719a285000000000000000000000000000000000000000000000d7257869a94b8b00000000000000000000000000000000000000000000000000000000000000000000000000000000000000000000000000000000000000000000002bb5a0834092000000000000000000000000000000000000000000000000000000000000073c52300000000000000000000000000000000000000000000000000000000f76bdcd5000000000000000000000000127962b9b5da42856d74ee9d923305dcfae277b8000000000000000000000000000000000000000000000000000000000000001cd87dcefdacbd75f19cb2e55ba0563e5be8926158ed7cdacebb5dddb71fd572e35a3ce7448637b27925fc375053993ec1775a18c52297e446abb78a70155e7c04000000000000000000000000000000000000000000000208f86f092cb3805227",
                    "decodedMethod": {
                        "callParams": [
                            {
                                "name": "tokenGet",
                                "type": "address",
                                "value": "0xe947b388fbe682784170b62f2bd4665f9719a285"
                            },
                            {
                                "name": "amountGet",
                                "type": "uint256",
                                "value": "63,500,000,000,000,000,000,000"
                            },
                            {
                                "name": "tokenGive",
                                "type": "address",
                                "value": "0x0000000000000000000000000000000000000000"
                            },
                            {
                                "name": "amountGive",
                                "type": "uint256",
                                "value": "196,850,000,000,000,000"
                            },
                            {
                                "name": "expires",
                                "type": "uint256",
                                "value": "7,587,107"
                            },
                            {
                                "name": "nonce",
                                "type": "uint256",
                                "value": "4,151,041,237"
                            },
                            {
                                "name": "user",
                                "type": "address",
                                "value": "0x127962b9b5da42856d74ee9d923305dcfae277b8"
                            },
                            {
                                "name": "v",
                                "type": "uint8",
                                "value": "28"
                            },
                            {
                                "name": "r",
                                "type": "bytes32",
                                "value": "0xd87dcefdacbd75f19cb2e55ba0563e5be8926158ed7cdacebb5dddb71fd572e3"
                            },
                            {
                                "name": "s",
                                "type": "bytes32",
                                "value": "0x5a3ce7448637b27925fc375053993ec1775a18c52297e446abb78a70155e7c04"
                            },
                            {
                                "name": "amount",
                                "type": "uint256",
                                "value": "9,610,208,455,460,382,593,575"
                            }
                        ],
                        "constructorArguments": "",
                        "name": "trade",
                        "returnParams": [],
                        "signature": "trade(address,uint256,address,uint256,uint256,uint256,address,uint8,bytes32,bytes32,uint256)"
                    },
                    "errorInfo": "",
                    "fromAddress": "0xbbb4eafd0f543e090ba52cecde0de374467fcc78",
                    "gasUsed": 93434,
                    "id": 0,
                    "methodDecoded": true,
                    "operation": "CALL",
                    "output": "",
                    "revert": false,
                    "revertMessage": "",
                    "selector": "0x0a19b14a",
                    "status": true,
                    "value": "0"
                },
                "nodeType": 0
            },
            "1": {
                "invocation": {
                    "address": "0x0000000000000000000000000000000000000002",
                    "callData": "0xcb00d4747a1fe03395095ce2a5cc6819e947b388fbe682784170b62f2bd4665f9719a285000000000000000000000000000000000000000000000d7257869a94b8b00000000000000000000000000000000000000000000000000000000000000000000000000000000000000000000002bb5a0834092000000000000000000000000000000000000000000000000000000000000073c52300000000000000000000000000000000000000000000000000000000f76bdcd5",
                    "decodedMethod": {
                        "callParams": [
                            {
                                "name": "data",
                                "type": "bytes",
                                "value": "0x8d12a197cb00d4747a1fe03395095ce2a5cc6819e947b388fbe682784170b62f2bd4665f9719a285000000000000000000000000000000000000000000000d7257869a94b8b00000000000000000000000000000000000000000000000000000000000000000000000000000000000000000000002bb5a0834092000000000000000000000000000000000000000000000000000000000000073c52300000000000000000000000000000000000000000000000000000000f76bdcd5"
                            }
                        ],
                        "constructorArguments": "",
                        "name": "sha256hash",
                        "returnParams": [
                            {
                                "name": "hash",
                                "type": "bytes32",
                                "value": "0xdda56bb4dcc315333eb5e3a11ea1199850a0bf7c389d6864069525666e32df2c"
                            }
                        ],
                        "signature": "sha256hash(bytes)"
                    },
                    "errorInfo": "",
                    "fromAddress": "0x8d12a197cb00d4747a1fe03395095ce2a5cc6819",
                    "gasUsed": 132,
                    "id": 1,
                    "methodDecoded": true,
                    "operation": "CALL",
                    "output": "0xdda56bb4dcc315333eb5e3a11ea1199850a0bf7c389d6864069525666e32df2c",
                    "revert": false,
                    "revertMessage": "",
                    "selector": "0x8d12a197",
                    "status": true,
                    "value": "0"
                },
                "nodeType": 0
            },
            "2": {
                "invocation": {
                    "address": "0x0000000000000000000000000000000000000001",
                    "callData": "0x02b5e772349c38288a82d570537b40125453765f2f0d8a8713207164000000000000000000000000000000000000000000000000000000000000001cd87dcefdacbd75f19cb2e55ba0563e5be8926158ed7cdacebb5dddb71fd572e35a3ce7448637b27925fc375053993ec1775a18c52297e446abb78a70155e7c04",
                    "decodedMethod": {
                        "callParams": [
                            {
                                "name": "hash",
                                "type": "bytes32",
                                "value": "0xbc897e4702b5e772349c38288a82d570537b40125453765f2f0d8a8713207164"
                            },
                            {
                                "name": "v",
                                "type": "uint256",
                                "value": "28"
                            },
                            {
                                "name": "r",
                                "type": "bytes32",
                                "value": "0xd87dcefdacbd75f19cb2e55ba0563e5be8926158ed7cdacebb5dddb71fd572e3"
                            },
                            {
                                "name": "s",
                                "type": "bytes32",
                                "value": "0x5a3ce7448637b27925fc375053993ec1775a18c52297e446abb78a70155e7c04"
                            }
                        ],
                        "constructorArguments": "",
                        "name": "ecrecover",
                        "returnParams": [
                            {
                                "name": "",
                                "type": "address",
                                "value": "0x127962b9b5da42856d74ee9d923305dcfae277b8"
                            }
                        ],
                        "signature": "ecrecover(bytes32,uint256,bytes32,bytes32)"
                    },
                    "errorInfo": "",
                    "fromAddress": "0x8d12a197cb00d4747a1fe03395095ce2a5cc6819",
                    "gasUsed": 3000,
                    "id": 2,
                    "methodDecoded": true,
                    "operation": "CALL",
                    "output": "0x000000000000000000000000127962b9b5da42856d74ee9d923305dcfae277b8",
                    "revert": false,
                    "revertMessage": "",
                    "selector": "0xbc897e47",
                    "status": true,
                    "value": "0"
                },
                "nodeType": 0
            },
            "3": {
                "event": {
                    "contract": "0x8d12a197cb00d4747a1fe03395095ce2a5cc6819",
                    "decodedLog": {
                        "name": "Trade",
                        "params": [
                            {
                                "name": "tokenGet",
                                "type": "address",
                                "value": "0xe947b388fbe682784170b62f2bd4665f9719a285"
                            },
                            {
                                "name": "amountGet",
                                "type": "uint256",
                                "value": "9,610,208,455,460,382,593,575"
                            },
                            {
                                "name": "tokenGive",
                                "type": "address",
                                "value": "0x0000000000000000000000000000000000000000"
                            },
                            {
                                "name": "amountGive",
                                "type": "uint256",
                                "value": "29,791,646,211,927,186"
                            },
                            {
                                "name": "get",
                                "type": "address",
                                "value": "0x127962b9b5da42856d74ee9d923305dcfae277b8"
                            },
                            {
                                "name": "give",
                                "type": "address",
                                "value": "0xbbb4eafd0f543e090ba52cecde0de374467fcc78"
                            }
                        ],
                        "signature": "Trade(address,uint256,address,uint256,address,address)"
                    },
                    "id": 3,
                    "logData": "0x000000000000000000000000e947b388fbe682784170b62f2bd4665f9719a285000000000000000000000000000000000000000000000208f86f092cb380522700000000000000000000000000000000000000000000000000000000000000000000000000000000000000000000000000000000000000000069d75829bc6c92000000000000000000000000127962b9b5da42856d74ee9d923305dcfae277b8000000000000000000000000bbb4eafd0f543e090ba52cecde0de374467fcc78",
                    "logDecoded": true,
                    "operation": "EVENT",
                    "revert": false,
                    "status": true,
                    "topics": [
                        "0x6effdda786735d5033bfad5f53e5131abcced9e52be6c507b62d639685fbed6d"
                    ]
                },
                "nodeType": 1
            }
        },
        "gasFlame": [
            {
                "children": [
                    {
                        "children": [
                            {
                                "children": [],
                                "depth": 0,
                                "name": "Initial Gas",
                                "value": 31448
                            },
                            {
                                "children": [
                                    {
                                        "children": [],
                                        "depth": 1,
                                        "name": "sha256hash",
                                        "value": 132
                                    },
                                    {
                                        "children": [],
                                        "depth": 1,
                                        "name": "ecrecover",
                                        "value": 3000
                                    }
                                ],
                                "depth": 0,
                                "name": "Executed Gas",
                                "value": 61986
                            }
                        ],
                        "depth": -1,
                        "name": "Actual Gas Used",
                        "value": 93434
                    },
                    {
                        "children": [],
                        "depth": -1,
                        "name": "Refunded Gas",
                        "value": 0
                    }
                ],
                "depth": -2,
                "name": "Total Gas",
                "value": 93434
            }
        ],
        "isConfirmed": true,
        "mainTrace": [
            {
                "children": [
                    {
                        "children": [
                            {
                                "children": [],
                                "depth": 1,
                                "id": 1,
                                "order": 1
                            },
                            {
                                "children": [],
                                "depth": 1,
                                "id": 2,
                                "order": 2
                            },
                            {
                                "children": [],
                                "depth": 1,
                                "id": 3,
                                "order": 3
                            }
                        ],
                        "depth": 0,
                        "id": 0,
                        "order": 0
                    }
                ],
                "depth": -1,
                "id": -1,
                "order": -1
            }
        ],
        "mainTraceNodeCount": 4,
        "parentIdMap": {
            "0": -1,
            "1": 0,
            "2": 0,
            "3": 0
        },
        "tidyTrace": [
            {
                "children": [
                    {
                        "children": [
                            {
                                "children": [],
                                "depth": 1,
                                "id": 1,
                                "order": 1
                            },
                            {
                                "children": [],
                                "depth": 1,
                                "id": 2,
                                "order": 2
                            },
                            {
                                "children": [],
                                "depth": 1,
                                "id": 3,
                                "order": 3
                            }
                        ],
                        "depth": 0,
                        "id": 0,
                        "order": 0
                    }
                ],
                "depth": -1,
                "id": -1,
                "order": -1
            }
        ],
        "tidyTraceNodeCount": 4
    },
    "state_change": {
        "stateChanges": [
            {
                "address": "0x8d12a197cb00d4747a1fe03395095ce2a5cc6819",
                "erc": "",
                "slots": [
                    {
                        "current": "0x00000000000000000000000000000000000000000000000006c3528ee0025189",
                        "key": "0xb261993965c1305d29ffeb5f6f3ee1c0605b2036ac679dac442af6311f16cb41",
                        "prev": "0x00000000000000000000000000000000000000000000000006597b36b645e4f7"
                    },
                    {
                        "current": "0x000000000000000000000000000000000000000000000208f86f092cb3805227",
                        "key": "0xd82742127c2b8b777cad1bf395e6b3b16af3a346141da5fdd9925a6be3d3c040",
                        "prev": "0x0000000000000000000000000000000000000000000000000000000000000000"
                    },
                    {
                        "current": "0x000000000000000000000000000000000000000000002a5a12e5fdf3f58463f5",
                        "key": "0xe395c48a5c09cc229d0f169b2c8ac7e4cf37c738b7c5eb8bdb0a1167dd5e5b5c",
                        "prev": "0x000000000000000000000000000000000000000000002c649b6ffc25a8886ca0"
                    },
                    {
                        "current": "0x000000000000000000000000000000000000000000000208f870c81edfabb700",
                        "key": "0xe9640b6c17358836fa46fb6faa82d9e2d9b6c3a2108408e163e05aeaab5d6d37",
                        "prev": "0x0000000000000000000000000000000000000000000000000001bef22c2b64d9"
                    },
                    {
                        "current": "0x000000000000000000000000000000000000000000000377a5cd1951c0e87cf4",
                        "key": "0xb545b6bb76498e46c5615a9f8c85e1a1c9851aa5ecc88781d22af48bc347be48",
                        "prev": "0x00000000000000000000000000000000000000000000037615b2244cc164c670"
                    },
                    {
                        "current": "0x0000000000000000000000000000000000000000000000000252bf241cd80c1b",
                        "key": "0x2604cbefd44f4f3dc8be083fb365805d0e77e37b2d70ff84de0e30fa9706eb92",
                        "prev": "0x00000000000000000000000000000000000000000000000002bc967c469478ad"
                    }
                ],
                "storageVariables": []
            }
        ]
    }
}