{
    "balance_change": {
        "balanceChanges": [
            {
                "account": "0x0a1820f0ff7dc9fce0a4f0b589ee14ddae88233c",
                "assets": [
                    {
                        "address": "0xeeeeeeeeeeeeeeeeeeeeeeeeeeeeeeeeeeeeeeee",
                        "amount": "30",
                        "iconUrl": "https://assets.blocksec.com/image/1663669189317-3.png",
                        "isERC1155": false,
                        "isERC721": false,
                        "sign": false,
                        "value": ""
                    }
                ]
            },
            {
                "account": "0x2ddb586f2ebf9e3babf0f397a48b82cd7598f881",
                "assets": [
                    {
                        "address": "0xeeeeeeeeeeeeeeeeeeeeeeeeeeeeeeeeeeeeeeee",
                        "amount": "30",
                        "iconUrl": "https://assets.blocksec.com/image/1663669189317-3.png",
                        "isERC1155": false,
                        "isERC721": false,
                        "sign": true,
                        "value": ""
                    }
                ]
            }
        ]
    },
    "profile": {
        "basic_info": {
            "baseFee": "",
            "blockNumber": 7985187,
            "callData": "0x391252150000000000000000000000002ddb586f2ebf9e3babf0f397a48b82cd7598f881000000000000000000000000000000000000000000000001a055690d9db8000000000000000000000000000000000000000000000000000000000000000000c0000000000000000000000000000000000000000000000000000000005d12a9660000000000000000000000000000000000000000000000000000000000012ec1000000000000000000000000000000000000000000000000000000000000010000000000000000000000000000000000000000000000000000000000000000000000000000000000000000000000000000000000000000000000000000000000000000000000000000000000000000000000000000000000000000000000004114812fe0f2923eec88f3ca0df01079fb5d3b13c161d7561433e7318a4f74735765e067b058357a4aa53d612a82b38a2e27b69a3aa74cf3e1e9ab4ec0f8814f1c1b00000000000000000000000000000000000000000000000000000000000000",
            "debugEnable": true,
            "errorInfo": "",
            "eventCount": 1,
            "feeRecipient": "0x829bd824b016326a401d083b33d092293333a830",
            "formatValue": "0",
            "gasLimit": 92884,
            "gasPrice": "3.1",
            "gasUsed": 90884,
            "intTxnCount": 2,
            "internalRevert": false,
            "internalRevertMessage": "",
            "isContractCreation": false,
            "isFlashloan": false,
            "maxFee": "",
            "nonce": 45851,
            "overwritedBlockNumber": -1,
            "priorityFee": "",
            "receiver": "0x0a1820f0ff7dc9fce0a4f0b589ee14ddae88233c",
            "revertMessage": "",
            "sender": "0x604df452158e7ddf3e44338308edc079a953c9da",
            "simulationEnable": true,
            "sourceTxnHash": "0x0b8cbeaac755d5c697f1e65c422920a65831d72e7f89e567bad166f653e6d09c",
            "status": true,
            "timestamp": "2019-06-18T23:15:51Z",
            "transactionFee": "0.0002817404",
            "txnHash": "0x0b8cbeaac755d5c697f1e65c422920a65831d72e7f89e567bad166f653e6d09c",
            "txnIndex": 28,
            "type": 0,
            "value": "0"
        },
        "fund_flow": [
            {
                "amount": "30",
                "from": "0x0a1820f0ff7dc9fce0a4f0b589ee14ddae88233c",
                "id": 1,
                "isERC1155": false,
                "isERC721": false,
                "isReverted": false,
                "order": 1,
                "to": "0x2ddb586f2ebf9e3babf0f397a48b82cd7598f881",
                "token": "0xeeeeeeeeeeeeeeeeeeeeeeeeeeeeeeeeeeeeeeee"
            }
        ],
        "token_infos": [
            {
                "address": "0xc02aaa39b223fe8d0a0e5c4f27ead9083c756cc2",
                "decimals": 18
            },
            {
                "address": "0xeeeeeeeeeeeeeeeeeeeeeeeeeeeeeeeeeeeeeeee",
                "decimals": 18
            }
        ]
    },
    "address_label": {
        "labels": [
            {
                "address": "0xeeeeeeeeeeeeeeeeeeeeeeeeeeeeeeeeeeeeeeee",
                "label": "Ether"
            },
            {
                "address": "0x0000000000000000000000000000000000000001",
                "label": "Precompiled"
            },
            {
                "address": "0x0000000000000000000000000000000000000002",
                "label": "Precompiled"
            },
            {
                "address": "0x0000000000000000000000000000000000000003",
                "label": "Precompiled"
            },
            {
                "address": "0x0000000000000000000000000000000000000004",
                "label": "Precompiled"
            }
        ]
    },
    "trace": {
        "accountLabels": null,
        "dataMap": {
            "-1": {
                "invocation": {
                    "address": "0x604df452158e7ddf3e44338308edc079a953c9da",
                    "callData": "",
                    "decodedMethod": null,
                    "errorInfo": "",
                    "fromAddress": "",
                    "gasUsed": 0,
                    "id": -1,
                    "methodDecoded": false,
                    "operation": "",
                    "output": "",
                    "revert": false,
                    "revertMessage": "",
                    "selector": "",
                    "status": false,
                    "value": ""
                },
                "nodeType": 0
            },
            "0": {
                "invocation": {
                    "address": "0x0a1820f0ff7dc9fce0a4f0b589ee14ddae88233c",
                    "callData": "0x0000000000000000000000002ddb586f2ebf9e3babf0f397a48b82cd7598f881000000000000000000000000000000000000000000000001a055690d9db8000000000000000000000000000000000000000000000000000000000000000000c0000000000000000000000000000000000000000000000000000000005d12a9660000000000000000000000000000000000000000000000000000000000012ec1000000000000000000000000000000000000000000000000000000000000010000000000000000000000000000000000000000000000000000000000000000000000000000000000000000000000000000000000000000000000000000000000000000000000000000000000000000000000000000000000000000000000004114812fe0f2923eec88f3ca0df01079fb5d3b13c161d7561433e7318a4f74735765e067b058357a4aa53d612a82b38a2e27b69a3aa74cf3e1e9ab4ec0f8814f1c1b00000000000000000000000000000000000000000000000000000000000000",
                    "decodedMethod": {
                        "callParams": [
                            {
                                "name": "toAddress",
                                "type": "address",
                                "value": "0x2ddb586f2ebf9e3babf0f397a48b82cd7598f881"
                            },
                            {
                                "name": "value",
                                "type": "uint256",
                                "value": "30,000,000,000,000,000,000"
                            },
                            {
                                "name": "data",
                                "type": "bytes",
                                "value": "0x"
                            },
                            {
                                "name": "expireTime",
                                "type": "uint256",
                                "value": "1,561,504,102"
                            },
                            {
                                "name": "sequenceId",
                                "type": "uint256",
                                "value": "77,505"
                            },
                            {
                                "name": "signature",
                                "type": "bytes",
                                "value": "0x14812fe0f2923eec88f3ca0df01079fb5d3b13c161d7561433e7318a4f74735765e067b058357a4aa53d612a82b38a2e27b69a3aa74cf3e1e9ab4ec0f8814f1c1b"
                            }
                        ],
                        "constructorArguments": "",
                        "name": "sendMultiSig",
                        "returnParams": [],
                        "signature": "sendMultiSig(address,uint256,bytes,uint256,uint256,bytes)"
                    },
                    "errorInfo": "",
                    "fromAddress": "0x604df452158e7ddf3e44338308edc079a953c9da",
                    "gasUsed": 90884,
                    "id": 0,
                    "methodDecoded": true,
                    "operation": "CALL",
                    "output": "",
                    "revert": false,
                    "revertMessage": "",
                    "selector": "0x39125215",
                    "status": true,
                    "value": "0"
                },
                "nodeType": 0
            },
            "1": {
                "invocation": {
                    "address": "0x0000000000000000000000000000000000000001",
                    "callData": "0x3a934a7cddbe0acd0e7f7dc344a279db07aced0fe14ab09b843bec6a000000000000000000000000000000000000000000000000000000000000001b14812fe0f2923eec88f3ca0df01079fb5d3b13c161d7561433e7318a4f74735765e067b058357a4aa53d612a82b38a2e27b69a3aa74cf3e1e9ab4ec0f8814f1c",
                    "decodedMethod": {
                        "callParams": [
                            {
                                "name": "hash",
                                "type": "bytes32",
                                "value": "0xb53532a53a934a7cddbe0acd0e7f7dc344a279db07aced0fe14ab09b843bec6a"
                            },
                            {
                                "name": "v",
                                "type": "uint256",
                                "value": "27"
                            },
                            {
                                "name": "r",
                                "type": "bytes32",
                                "value": "0x14812fe0f2923eec88f3ca0df01079fb5d3b13c161d7561433e7318a4f747357"
                            },
                            {
                                "name": "s",
                                "type": "bytes32",
                                "value": "0x65e067b058357a4aa53d612a82b38a2e27b69a3aa74cf3e1e9ab4ec0f8814f1c"
                            }
                        ],
                        "constructorArguments": "",
                        "name": "ecrecover",
                        "returnParams": [
                            {
                                "name": "",
                                "type": "address",
                                "value": "0x9f1f850aba6d909454e2ec0827f285d577484661"
                            }
                        ],
                        "signature": "ecrecover(bytes32,uint256,bytes32,bytes32)"
                    },
                    "errorInfo": "",
                    "fromAddress": "0x0a1820f0ff7dc9fce0a4f0b589ee14ddae88233c",
                    "gasUsed": 3000,
                    "id": 1,
                    "methodDecoded": true,
                    "operation": "CALL",
                    "output": "0x0000000000000000000000009f1f850aba6d909454e2ec0827f285d577484661",
                    "revert": false,
                    "revertMessage": "",
                    "selector": "0xb53532a5",
                    "status": true,
                    "value": "0"
                },
                "nodeType": 0
            },
            "2": {
                "invocation": {
                    "address": "0x2ddb586f2ebf9e3babf0f397a48b82cd7598f881",
                    "callData": "0x",
                    "decodedMethod": null,
                    "errorInfo": "",
                    "fromAddress": "0x0a1820f0ff7dc9fce0a4f0b589ee14ddae88233c",
                    "gasUsed": 0,
                    "id": 2,
                    "methodDecoded": false,
                    "operation": "CALL",
                    "output": "",
                    "revert": false,
                    "revertMessage": "",
                    "selector": "fallback",
                    "status": true,
                    "value": "30"
                },
                "nodeType": 0
            },
            "3": {
                "event": {
                    "contract": "0x0a1820f0ff7dc9fce0a4f0b589ee14ddae88233c",
                    "decodedLog": {
                        "name": "Transacted",
                        "params": [
                            {
                                "name": "msgSender",
                                "type": "address",
                                "value": "0x604df452158e7ddf3e44338308edc079a953c9da"
                            },
                            {
                                "name": "otherSigner",
                                "type": "address",
                                "value": "0x9f1f850aba6d909454e2ec0827f285d577484661"
                            },
                            {
                                "name": "operation",
                                "type": "bytes32",
                                "value": "0xb53532a53a934a7cddbe0acd0e7f7dc344a279db07aced0fe14ab09b843bec6a"
                            },
                            {
                                "name": "toAddress",
                                "type": "address",
                                "value": "0x2ddb586f2ebf9e3babf0f397a48b82cd7598f881"
                            },
                            {
                                "name": "value",
                                "type": "uint256",
                                "value": "30,000,000,000,000,000,000"
                            },
                            {
                                "name": "data",
                                "type": "bytes",
                                "value": "0x"
                            }
                        ],
                        "signature": "Transacted(address,address,bytes32,address,uint256,bytes)"
                    },
                    "id": 3,
                    "logData": "0x000000000000000000000000604df452158e7ddf3e44338308edc079a953c9da0000000000000000000000009f1f850aba6d909454e2ec0827f285d577484661b53532a53a934a7cddbe0acd0e7f7dc344a279db07aced0fe14ab09b843bec6a0000000000000000000000002ddb586f2ebf9e3babf0f397a48b82cd7598f881000000000000000000000000000000000000000000000001a055690d9db8000000000000000000000000000000000000000000000000000000000000000000c00000000000000000000000000000000000000000000000000000000000000000",
                    "logDecoded": true,
                    "operation": "EVENT",
                    "revert": false,
                    "status": true,
                    "topics": [
                        "0x59bed9ab5d78073465dd642a9e3e76dfdb7d53bcae9d09df7d0b8f5234d5a806"
                    ]
                },
                "nodeType": 1
            }
        },
        "gasFlame": [
            {
                "children": [
                    {
                        "children": [
                            {
                                "children": [],
                                "depth": 0,
                                "name": "Initial Gas",
                                "value": 29336
                            },
                            {
                                "children": [
                                    {
                                        "children": [],
                                        "depth": 1,
                                        "name": "ecrecover",
                                        "value": 3000
                                    },
                                    {
                                        "children": [],
                                        "depth": 1,
                                        "name": "fallback",
                                        "value": 0
                                    }
                                ],
                                "depth": 0,
                                "name": "Executed Gas",
                                "value": 61548
                            }
                        ],
                        "depth": -1,
                        "name": "Actual Gas Used",
                        "value": 90884
                    },
                    {
                        "children": [],
                        "depth": -1,
                        "name": "Refunded Gas",
                        "value": 0
                    }
                ],
                "depth": -2,
                "name": "Total Gas",
                "value": 90884
            }
        ],
        "isConfirmed": true,
        "mainTrace": [
            {
                "children": [
                    {
                        "children": [
                            {
                                "children": [],
                                "depth": 1,
                                "id": 1,
                                "order": 1
                            },
                            {
                                "children": [],
                                "depth": 1,
                                "id": 2,
                                "order": 2
                            },
                            {
                                "children": [],
                                "depth": 1,
                                "id": 3,
                                "order": 3
                            }
                        ],
                        "depth": 0,
                        "id": 0,
                        "order": 0
                    }
                ],
                "depth": -1,
                "id": -1,
                "order": -1
            }
        ],
        "mainTraceNodeCount": 4,
        "parentIdMap": {
            "0": -1,
            "1": 0,
            "2": 0,
            "3": 0
        },
        "tidyTrace": [
            {
                "children": [
                    {
                        "children": [
                            {
                                "children": [],
                                "depth": 1,
                                "id": 1,
                                "order": 1
                            },
                            {
                                "children": [],
                                "depth": 1,
                                "id": 2,
                                "order": 2
                            },
                            {
                                "children": [],
                                "depth": 1,
                                "id": 3,
                                "order": 3
                            }
                        ],
                        "depth": 0,
                        "id": 0,
                        "order": 0
                    }
                ],
                "depth": -1,
                "id": -1,
                "order": -1
            }
        ],
        "tidyTraceNodeCount": 4
    },
    "state_change": {
        "stateChanges": [
            {
                "address": "0x0a1820f0ff7dc9fce0a4f0b589ee14ddae88233c",
                "erc": "",
                "slots": [
                    {
                        "current": "0x0000000000000000000000000000000000000000000000000000000000012ec1",
                        "key": "0x0000000000000000000000000000000000000000000000000000000000000007",
                        "prev": "0x0000000000000000000000000000000000000000000000000000000000012eb7"
                    }
                ],
                "storageVariables": []
            }
        ]
    }
}