{
    "balance_change": {
        "balanceChanges": [
            {
                "account": "0x5b775b3ce9e266998ffd270879115e3217790af4",
                "assets": [
                    {
                        "address": "0xeeeeeeeeeeeeeeeeeeeeeeeeeeeeeeeeeeeeeeee",
                        "amount": "0.103509",
                        "iconUrl": "https://assets.blocksec.com/image/1663669189317-3.png",
                        "isERC1155": false,
                        "isERC721": false,
                        "sign": false,
                        "value": "215.18062813453502088"
                    }
                ]
            },
            {
                "account": "0x34e158883efc81c5d92fde785fba48db738711ee",
                "assets": [
                    {
                        "address": "0xeeeeeeeeeeeeeeeeeeeeeeeeeeeeeeeeeeeeeeee",
                        "amount": "0.103509",
                        "iconUrl": "https://assets.blocksec.com/image/1663669189317-3.png",
                        "isERC1155": false,
                        "isERC721": false,
                        "sign": true,
                        "value": "215.18062813453502088"
                    }
                ]
            }
        ]
    },
    "profile": {
        "basic_info": {
            "baseFee": "16.172425984",
            "blockNumber": 18605731,
            "callData": "0xb6b4af05000000000000000000000000000000000000000000000000016fbce3180e500000000000000000000000000000000000000000000000000000000003cd90b2ed00000000000000000000000000000000000000000000000000000000655a009f831e4f3b4122262e100d8256dc023467ede8a22c3b0dcd2748d4d122b38da7cfcc352e7fed63f5540a95e7fb93f52e537f053dcb408e10904a8d0b385afddbdb000000000000000000000000000000000000000000000000000000000000001b7f845aff2bed0729aa173d3f6590832974add4a35a83822648d165092734355c741e33f4d472eb3e55257708ee4d726ea37ead875bd7cd838ae4b566bf57b8b10000000000000000000000000000000000000000000000000000000000000000",
            "debugEnable": true,
            "errorInfo": "",
            "eventCount": 1,
            "feeRecipient": "0x4675c7e5baafbffbca748158becba61ef3b0a263",
            "formatValue": "0.103509",
            "gasLimit": 60000,
            "gasPrice": "16.333714157",
            "gasUsed": 56613,
            "intTxnCount": 1,
            "internalRevert": false,
            "internalRevertMessage": "",
            "isContractCreation": false,
            "isFlashloan": false,
            "maxFee": "16.333714157",
            "nonce": 80,
            "overwritedBlockNumber": -1,
            "priorityFee": "16.333714157",
            "receiver": "0x34e158883efc81c5d92fde785fba48db738711ee",
            "revertMessage": "",
            "sender": "0x5b775b3ce9e266998ffd270879115e3217790af4",
            "simulationEnable": true,
            "sourceTxnHash": "0x0b4cf9a95f5b66a744b8ab9e0188b19c13e1ebc677f5e86a6ea71d21109775af",
            "status": true,
            "timestamp": "2023-11-19T12:02:47Z",
            "transactionFee": "0.000924700559570241",
            "txnHash": "0x0b4cf9a95f5b66a744b8ab9e0188b19c13e1ebc677f5e86a6ea71d21109775af",
            "txnIndex": 135,
            "type": 2,
            "value": "103509000000000000"
        },
        "fund_flow": [
            {
                "amount": "0.103509",
                "from": "0x5b775b3ce9e266998ffd270879115e3217790af4",
                "id": 1,
                "isERC1155": false,
                "isERC721": false,
                "isReverted": false,
                "order": 1,
                "to": "0x34e158883efc81c5d92fde785fba48db738711ee",
                "token": "0xeeeeeeeeeeeeeeeeeeeeeeeeeeeeeeeeeeeeeeee"
            }
        ],
        "token_infos": [
            {
                "address": "0xc02aaa39b223fe8d0a0e5c4f27ead9083c756cc2",
                "decimals": 18
            },
            {
                "address": "0xeeeeeeeeeeeeeeeeeeeeeeeeeeeeeeeeeeeeeeee",
                "decimals": 18
            }
        ]
    },
    "address_label": {
        "labels": [
            {
                "address": "0x0000000000000000000000000000000000000003",
                "label": "Precompiled"
            },
            {
                "address": "0x0000000000000000000000000000000000000004",
                "label": "Precompiled"
            },
            {
                "address": "0xeeeeeeeeeeeeeeeeeeeeeeeeeeeeeeeeeeeeeeee",
                "label": "Ether"
            },
            {
                "address": "0x34e158883efc81c5d92fde785fba48db738711ee",
                "label": "BitPay: Invoice"
            },
            {
                "address": "0x0000000000000000000000000000000000000000",
                "label": "Null Address"
            },
            {
                "address": "0x0000000000000000000000000000000000000001",
                "label": "Precompiled"
            },
            {
                "address": "0x0000000000000000000000000000000000000002",
                "label": "Precompiled"
            }
        ]
    },
    "trace": {
        "accountLabels": null,
        "dataMap": {
            "-1": {
                "invocation": {
                    "address": "0x5b775b3ce9e266998ffd270879115e3217790af4",
                    "callData": "",
                    "decodedMethod": null,
                    "errorInfo": "",
                    "fromAddress": "",
                    "gasUsed": 0,
                    "id": -1,
                    "methodDecoded": false,
                    "operation": "",
                    "output": "",
                    "revert": false,
                    "revertMessage": "",
                    "selector": "",
                    "status": false,
                    "value": ""
                },
                "nodeType": 0
            },
            "0": {
                "invocation": {
                    "address": "0x34e158883efc81c5d92fde785fba48db738711ee",
                    "callData": "0x000000000000000000000000000000000000000000000000016fbce3180e500000000000000000000000000000000000000000000000000000000003cd90b2ed00000000000000000000000000000000000000000000000000000000655a009f831e4f3b4122262e100d8256dc023467ede8a22c3b0dcd2748d4d122b38da7cfcc352e7fed63f5540a95e7fb93f52e537f053dcb408e10904a8d0b385afddbdb000000000000000000000000000000000000000000000000000000000000001b7f845aff2bed0729aa173d3f6590832974add4a35a83822648d165092734355c741e33f4d472eb3e55257708ee4d726ea37ead875bd7cd838ae4b566bf57b8b10000000000000000000000000000000000000000000000000000000000000000",
                    "decodedMethod": {
                        "callParams": [
                            {
                                "name": "value",
                                "type": "uint256",
                                "value": "103,509,000,000,000,000"
                            },
                            {
                                "name": "gasPrice",
                                "type": "uint256",
                                "value": "16,333,714,157"
                            },
                            {
                                "name": "expiration",
                                "type": "uint256",
                                "value": "1,700,397,215"
                            },
                            {
                                "name": "payload",
                                "type": "bytes32",
                                "value": "0x831e4f3b4122262e100d8256dc023467ede8a22c3b0dcd2748d4d122b38da7cf"
                            },
                            {
                                "name": "hash",
                                "type": "bytes32",
                                "value": "0xcc352e7fed63f5540a95e7fb93f52e537f053dcb408e10904a8d0b385afddbdb"
                            },
                            {
                                "name": "v",
                                "type": "uint8",
                                "value": "27"
                            },
                            {
                                "name": "r",
                                "type": "bytes32",
                                "value": "0x7f845aff2bed0729aa173d3f6590832974add4a35a83822648d165092734355c"
                            },
                            {
                                "name": "s",
                                "type": "bytes32",
                                "value": "0x741e33f4d472eb3e55257708ee4d726ea37ead875bd7cd838ae4b566bf57b8b1"
                            },
                            {
                                "name": "tokenContract",
                                "type": "address",
                                "value": "0x0000000000000000000000000000000000000000"
                            }
                        ],
                        "constructorArguments": "",
                        "name": "pay",
                        "returnParams": [],
                        "signature": "pay(uint256,uint256,uint256,bytes32,bytes32,uint8,bytes32,bytes32,address)"
                    },
                    "errorInfo": "",
                    "fromAddress": "0x5b775b3ce9e266998ffd270879115e3217790af4",
                    "gasUsed": 56613,
                    "id": 0,
                    "methodDecoded": true,
                    "operation": "CALL",
                    "output": "",
                    "revert": false,
                    "revertMessage": "",
                    "selector": "0xb6b4af05",
                    "status": true,
                    "value": "0.103509"
                },
                "nodeType": 0
            },
            "1": {
                "invocation": {
                    "address": "0x0000000000000000000000000000000000000001",
                    "callData": "0x9e672a4eec8a637689c3c684079e73db5377848cbbb015ed92666346000000000000000000000000000000000000000000000000000000000000001b7f845aff2bed0729aa173d3f6590832974add4a35a83822648d165092734355c741e33f4d472eb3e55257708ee4d726ea37ead875bd7cd838ae4b566bf57b8b1",
                    "decodedMethod": {
                        "callParams": [
                            {
                                "name": "hash",
                                "type": "bytes32",
                                "value": "0xf2057a2f9e672a4eec8a637689c3c684079e73db5377848cbbb015ed92666346"
                            },
                            {
                                "name": "v",
                                "type": "uint256",
                                "value": "27"
                            },
                            {
                                "name": "r",
                                "type": "bytes32",
                                "value": "0x7f845aff2bed0729aa173d3f6590832974add4a35a83822648d165092734355c"
                            },
                            {
                                "name": "s",
                                "type": "bytes32",
                                "value": "0x741e33f4d472eb3e55257708ee4d726ea37ead875bd7cd838ae4b566bf57b8b1"
                            }
                        ],
                        "constructorArguments": "",
                        "name": "ecrecover",
                        "returnParams": [
                            {
                                "name": "",
                                "type": "address",
                                "value": "0xa97ceb180ca61d124b6a4aadc5530bc53198922f"
                            }
                        ],
                        "signature": "ecrecover(bytes32,uint256,bytes32,bytes32)"
                    },
                    "errorInfo": "",
                    "fromAddress": "0x34e158883efc81c5d92fde785fba48db738711ee",
                    "gasUsed": 3000,
                    "id": 1,
                    "methodDecoded": true,
                    "operation": "CALL",
                    "output": "0x000000000000000000000000a97ceb180ca61d124b6a4aadc5530bc53198922f",
                    "revert": false,
                    "revertMessage": "",
                    "selector": "0xf2057a2f",
                    "status": true,
                    "value": "0"
                },
                "nodeType": 0
            },
            "2": {
                "event": {
                    "contract": "0x34e158883efc81c5d92fde785fba48db738711ee",
                    "decodedLog": {
                        "name": "PaymentAccepted",
                        "params": [
                            {
                                "name": "hash",
                                "type": "bytes32",
                                "value": "0xcc352e7fed63f5540a95e7fb93f52e537f053dcb408e10904a8d0b385afddbdb"
                            },
                            {
                                "name": "tokenContract",
                                "type": "address",
                                "value": "0x0000000000000000000000000000000000000000"
                            },
                            {
                                "name": "time",
                                "type": "uint256",
                                "value": "1,700,395,367"
                            },
                            {
                                "name": "value",
                                "type": "uint256",
                                "value": "103,509,000,000,000,000"
                            }
                        ],
                        "signature": "PaymentAccepted(bytes32,address,uint256,uint256)"
                    },
                    "id": 2,
                    "logData": "0x000000000000000000000000000000000000000000000000000000006559f967000000000000000000000000000000000000000000000000016fbce3180e5000",
                    "logDecoded": true,
                    "operation": "EVENT",
                    "revert": false,
                    "status": true,
                    "topics": [
                        "0x826e7792f434a28ba302e6767da85b4b8e56b83a5e028687f30e848e32667f95",
                        "0xcc352e7fed63f5540a95e7fb93f52e537f053dcb408e10904a8d0b385afddbdb",
                        "0x0000000000000000000000000000000000000000000000000000000000000000"
                    ]
                },
                "nodeType": 1
            }
        },
        "gasFlame": [
            {
                "children": [
                    {
                        "children": [
                            {
                                "children": [],
                                "depth": 0,
                                "name": "Initial Gas",
                                "value": 23944
                            },
                            {
                                "children": [
                                    {
                                        "children": [],
                                        "depth": 1,
                                        "name": "ecrecover",
                                        "value": 3000
                                    }
                                ],
                                "depth": 0,
                                "name": "Executed Gas",
                                "value": 32669
                            }
                        ],
                        "depth": -1,
                        "name": "Actual Gas Used",
                        "value": 56613
                    },
                    {
                        "children": [],
                        "depth": -1,
                        "name": "Refunded Gas",
                        "value": 0
                    }
                ],
                "depth": -2,
                "name": "Total Gas",
                "value": 56613
            }
        ],
        "isConfirmed": true,
        "mainTrace": [
            {
                "children": [
                    {
                        "children": [
                            {
                                "children": [],
                                "depth": 1,
                                "id": 1,
                                "order": 1
                            },
                            {
                                "children": [],
                                "depth": 1,
                                "id": 2,
                                "order": 2
                            }
                        ],
                        "depth": 0,
                        "id": 0,
                        "order": 0
                    }
                ],
                "depth": -1,
                "id": -1,
                "order": -1
            }
        ],
        "mainTraceNodeCount": 3,
        "parentIdMap": {
            "0": -1,
            "1": 0,
            "2": 0
        },
        "tidyTrace": [
            {
                "children": [
                    {
                        "children": [
                            {
                                "children": [],
                                "depth": 1,
                                "id": 1,
                                "order": 1
                            },
                            {
                                "children": [],
                                "depth": 1,
                                "id": 2,
                                "order": 2
                            }
                        ],
                        "depth": 0,
                        "id": 0,
                        "order": 0
                    }
                ],
                "depth": -1,
                "id": -1,
                "order": -1
            }
        ],
        "tidyTraceNodeCount": 3
    },
    "state_change": {
        "stateChanges": [
            {
                "address": "0x34e158883efc81c5d92fde785fba48db738711ee",
                "erc": "",
                "slots": [
                    {
                        "current": "0x0000000000000000000000000000000000000000000000000000000000000001",
                        "key": "0x34c9008fd915bfae5f6382dab2be2f6690a71f75440c61903643f828d7f67283",
                        "prev": "0x0000000000000000000000000000000000000000000000000000000000000000"
                    }
                ],
                "storageVariables": [
                    {
                        "name": "isPaid",
                        "type": "mapping(bytes32 => bool)",
                        "value": {
                            "pairs": [
                                {
                                    "key": "0x831e4f3b4122262e100d8256dc023467ede8a22c3b0dcd2748d4d122b38da7cf",
                                    "value": {
                                        "current": "true",
                                        "prev": "false",
                                        "typeTag": 1
                                    }
                                }
                            ],
                            "typeTag": 4
                        }
                    }
                ]
            }
        ]
    }
}