{
    "balance_change": {
        "balanceChanges": [
            {
                "account": "0x690c335d22cf0f94a4d3771f4e33d197f2e2c2fd",
                "assets": [
                    {
                        "address": "0xeeeeeeeeeeeeeeeeeeeeeeeeeeeeeeeeeeeeeeee",
                        "amount": "12.00428376883552",
                        "iconUrl": "https://assets.blocksec.com/image/1663669189317-3.png",
                        "isERC1155": false,
                        "isERC721": false,
                        "sign": false,
                        "value": ""
                    }
                ]
            },
            {
                "account": "0x027beefcbad782faf69fad12dee97ed894c68549",
                "assets": [
                    {
                        "address": "0xeeeeeeeeeeeeeeeeeeeeeeeeeeeeeeeeeeeeeeee",
                        "amount": "12.00428376883552",
                        "iconUrl": "https://assets.blocksec.com/image/1663669189317-3.png",
                        "isERC1155": false,
                        "isERC721": false,
                        "sign": true,
                        "value": ""
                    }
                ]
            }
        ]
    },
    "profile": {
        "basic_info": {
            "baseFee": "",
            "blockNumber": 3706267,
            "callData": "0x1a695230000000000000000000000000027beefcbad782faf69fad12dee97ed894c68549",
            "debugEnable": true,
            "errorInfo": "",
            "eventCount": 0,
            "feeRecipient": "0x52bc44d5378309ee2abf1539bf71de1b7d7be3b5",
            "formatValue": "12.00428376883552",
            "gasLimit": 40000,
            "gasPrice": "22.642279112",
            "gasUsed": 30527,
            "intTxnCount": 1,
            "internalRevert": false,
            "internalRevertMessage": "",
            "isContractCreation": false,
            "isFlashloan": false,
            "maxFee": "",
            "nonce": 79,
            "overwritedBlockNumber": -1,
            "priorityFee": "",
            "receiver": "0x1e143b2588705dfea63a17f2032ca123df995ce0",
            "revertMessage": "",
            "sender": "0x690c335d22cf0f94a4d3771f4e33d197f2e2c2fd",
            "simulationEnable": true,
            "sourceTxnHash": "0x0b9b7d0bd0dc8b52e95812bc231725fe877c39287fcad03311b582fcb95340e2",
            "status": true,
            "timestamp": "2017-05-14T16:00:17Z",
            "transactionFee": "0.000691200854452024",
            "txnHash": "0x0b9b7d0bd0dc8b52e95812bc231725fe877c39287fcad03311b582fcb95340e2",
            "txnIndex": 2,
            "type": 0,
            "value": "12004283768835520000"
        },
        "fund_flow": [
            {
                "amount": "12.00428376883552",
                "from": "0x690c335d22cf0f94a4d3771f4e33d197f2e2c2fd",
                "id": 1,
                "isERC1155": false,
                "isERC721": false,
                "isReverted": false,
                "order": 1,
                "to": "0x1e143b2588705dfea63a17f2032ca123df995ce0",
                "token": "0xeeeeeeeeeeeeeeeeeeeeeeeeeeeeeeeeeeeeeeee"
            },
            {
                "amount": "12.00428376883552",
                "from": "0x1e143b2588705dfea63a17f2032ca123df995ce0",
                "id": 2,
                "isERC1155": false,
                "isERC721": false,
                "isReverted": false,
                "order": 2,
                "to": "0x027beefcbad782faf69fad12dee97ed894c68549",
                "token": "0xeeeeeeeeeeeeeeeeeeeeeeeeeeeeeeeeeeeeeeee"
            }
        ],
        "token_infos": [
            {
                "address": "0xc02aaa39b223fe8d0a0e5c4f27ead9083c756cc2",
                "decimals": 18
            },
            {
                "address": "0xeeeeeeeeeeeeeeeeeeeeeeeeeeeeeeeeeeeeeeee",
                "decimals": 18
            }
        ]
    },
    "address_label": {
        "labels": [
            {
                "address": "0x0000000000000000000000000000000000000001",
                "label": "Precompiled"
            },
            {
                "address": "0x0000000000000000000000000000000000000002",
                "label": "Precompiled"
            },
            {
                "address": "0x0000000000000000000000000000000000000003",
                "label": "Precompiled"
            },
            {
                "address": "0x0000000000000000000000000000000000000004",
                "label": "Precompiled"
            },
            {
                "address": "0xeeeeeeeeeeeeeeeeeeeeeeeeeeeeeeeeeeeeeeee",
                "label": "Ether"
            },
            {
                "address": "0x027beefcbad782faf69fad12dee97ed894c68549",
                "label": "QuadrigaCX 1"
            },
            {
                "address": "0x1e143b2588705dfea63a17f2032ca123df995ce0",
                "label": "SafeConditionalHFTransfer"
            }
        ]
    },
    "trace": {
        "accountLabels": null,
        "dataMap": {
            "-1": {
                "invocation": {
                    "address": "0x690c335d22cf0f94a4d3771f4e33d197f2e2c2fd",
                    "callData": "",
                    "decodedMethod": null,
                    "errorInfo": "",
                    "fromAddress": "",
                    "gasUsed": 0,
                    "id": -1,
                    "methodDecoded": false,
                    "operation": "",
                    "output": "",
                    "revert": false,
                    "revertMessage": "",
                    "selector": "",
                    "status": false,
                    "value": ""
                },
                "nodeType": 0
            },
            "0": {
                "invocation": {
                    "address": "0x1e143b2588705dfea63a17f2032ca123df995ce0",
                    "callData": "0x000000000000000000000000027beefcbad782faf69fad12dee97ed894c68549",
                    "decodedMethod": {
                        "callParams": [
                            {
                                "name": "to",
                                "type": "address",
                                "value": "0x027beefcbad782faf69fad12dee97ed894c68549"
                            }
                        ],
                        "constructorArguments": "",
                        "name": "transfer",
                        "returnParams": [],
                        "signature": "transfer(address)"
                    },
                    "errorInfo": "",
                    "fromAddress": "0x690c335d22cf0f94a4d3771f4e33d197f2e2c2fd",
                    "gasUsed": 30527,
                    "id": 0,
                    "methodDecoded": true,
                    "operation": "CALL",
                    "output": "",
                    "revert": false,
                    "revertMessage": "",
                    "selector": "0x1a695230",
                    "status": true,
                    "value": "12.00428376883552"
                },
                "nodeType": 0
            },
            "1": {
                "invocation": {
                    "address": "0x027beefcbad782faf69fad12dee97ed894c68549",
                    "callData": "0x",
                    "decodedMethod": null,
                    "errorInfo": "",
                    "fromAddress": "0x1e143b2588705dfea63a17f2032ca123df995ce0",
                    "gasUsed": 0,
                    "id": 1,
                    "methodDecoded": false,
                    "operation": "CALL",
                    "output": "",
                    "revert": false,
                    "revertMessage": "",
                    "selector": "fallback",
                    "status": true,
                    "value": "12.00428376883552"
                },
                "nodeType": 0
            }
        },
        "gasFlame": [
            {
                "children": [
                    {
                        "children": [
                            {
                                "children": [],
                                "depth": 0,
                                "name": "Initial Gas",
                                "value": 22680
                            },
                            {
                                "children": [
                                    {
                                        "children": [],
                                        "depth": 1,
                                        "name": "fallback",
                                        "value": 0
                                    }
                                ],
                                "depth": 0,
                                "name": "Executed Gas",
                                "value": 7847
                            }
                        ],
                        "depth": -1,
                        "name": "Actual Gas Used",
                        "value": 30527
                    },
                    {
                        "children": [],
                        "depth": -1,
                        "name": "Refunded Gas",
                        "value": 0
                    }
                ],
                "depth": -2,
                "name": "Total Gas",
                "value": 30527
            }
        ],
        "isConfirmed": true,
        "mainTrace": [
            {
                "children": [
                    {
                        "children": [
                            {
                                "children": [],
                                "depth": 1,
                                "id": 1,
                                "order": 1
                            }
                        ],
                        "depth": 0,
                        "id": 0,
                        "order": 0
                    }
                ],
                "depth": -1,
                "id": -1,
                "order": -1
            }
        ],
        "mainTraceNodeCount": 2,
        "parentIdMap": {
            "0": -1,
            "1": 0
        },
        "tidyTrace": [
            {
                "children": [
                    {
                        "children": [
                            {
                                "children": [],
                                "depth": 1,
                                "id": 1,
                                "order": 1
                            }
                        ],
                        "depth": 0,
                        "id": 0,
                        "order": 0
                    }
                ],
                "depth": -1,
                "id": -1,
                "order": -1
            }
        ],
        "tidyTraceNodeCount": 2
    },
    "state_change": {
        "stateChanges": []
    }
}