{
    "balance_change": {
        "balanceChanges": [
            {
                "account": "0x828cebb8cc44cb9047f0f057f9603c7348553d84",
                "assets": [
                    {
                        "address": "0xeeeeeeeeeeeeeeeeeeeeeeeeeeeeeeeeeeeeeeee",
                        "amount": "1.2814",
                        "iconUrl": "https://assets.blocksec.com/image/1663669189317-3.png",
                        "isERC1155": false,
                        "isERC721": false,
                        "sign": false,
                        "value": "2102.1495139999999884"
                    },
                    {
                        "address": "0x394e3d3044fc89fcdd966d3cb35ac0b32b0cda91",
                        "amount": "1",
                        "iconUrl": "https://assets.blocksec.com/nft/icon/nft_a6f65736-fca4-48a7-8c39-8e74b93d1fb6.png",
                        "isERC1155": false,
                        "isERC721": true,
                        "sign": true,
                        "tokenID": "6556",
                        "value": ""
                    }
                ]
            },
            {
                "account": "0x60d190772500faca6a32e2b88ff0cfe5d9d75142",
                "assets": [
                    {
                        "address": "0xeeeeeeeeeeeeeeeeeeeeeeeeeeeeeeeeeeeeeeee",
                        "amount": "0.006407",
                        "iconUrl": "https://assets.blocksec.com/image/1663669189317-3.png",
                        "isERC1155": false,
                        "isERC721": false,
                        "sign": true,
                        "value": "10.510747569999999942"
                    }
                ]
            },
            {
                "account": "0xfa02be029e544b2b0c32fc0a6628d74851217395",
                "assets": [
                    {
                        "address": "0xeeeeeeeeeeeeeeeeeeeeeeeeeeeeeeeeeeeeeeee",
                        "amount": "1.274993",
                        "iconUrl": "https://assets.blocksec.com/image/1663669189317-3.png",
                        "isERC1155": false,
                        "isERC721": false,
                        "sign": true,
                        "value": "2091.6387664299999884"
                    },
                    {
                        "address": "0x394e3d3044fc89fcdd966d3cb35ac0b32b0cda91",
                        "amount": "1",
                        "iconUrl": "https://assets.blocksec.com/nft/icon/nft_a6f65736-fca4-48a7-8c39-8e74b93d1fb6.png",
                        "isERC1155": false,
                        "isERC721": true,
                        "sign": false,
                        "tokenID": "6556",
                        "value": ""
                    }
                ]
            }
        ]
    },
    "profile": {
        "basic_info": {
            "baseFee": "36.779431832",
            "blockNumber": 16735752,
            "callData": "0x9a1fc3a7000000000000000000000000000000000000000000000000000000000000004000000000000000000000000000000000000000000000000000000000000003e000000000000000000000000000000000000000000000000000000000000000e0000000000000000000000000000000000000000000000000000000000000001ca8a1071e3bae906bb930ca0ec62081cc475f4ce7e67dd94d6dd7e95ee8068dbf3031fd78e4dbf0de18e5aed0beae341938733b008727f104022dea2975be2f61000000000000000000000000000000000000000000000000000000000000032000000000000000000000000000000000000000000000000000000000000000000000000000000000000000000000000000000000000000000000000000ff5e06000000000000000000000000fa02be029e544b2b0c32fc0a6628d7485121739500000000000000000000000000000000000000000000000000000000000000010000000000000000000000000000000000dab4a563819e8fd93dba3b25bc3495000000000000000000000000394e3d3044fc89fcdd966d3cb35ac0b32b0cda91000000000000000000000000000000000000000000000000000000000000199c0000000000000000000000000000000000000000000000000000000000000001000000000000000000000000000000000000000000000000000000000000000000000000000000000000000000000000000000000000000011c87282c72f80000000000000000000000000000000000000000000000000000000000063ffa22900000000000000000000000000000000000000000000000000000000640396a900000000000000000000000000000000000000000000000000000000000001a000000000000000000000000000000000b92adbc4d8347229f03b910d5b1afce900000000000000000000000000000000000000000000000000000000000002000000000000000000000000000000000000000000000000000000000000000001000000000000000000000000000000000000000000000000000000000000003200000000000000000000000060d190772500faca6a32e2b88ff0cfe5d9d75142000000000000000000000000000000000000000000000000000000000000000101000000000000000000000000000000000000000000000000000000000000000000000000000000000000000000000000000000000000000000000000000060000000000000000000000000000000000000000000000000000000000000001c49adeb6695654c914bf5394027feb45e15117faa9847cfa0d9356d93dae9536817f60fc4bc404da59f24bdda16b807560c809437debcdeb77602e115340ea31400000000000000000000000000000000000000000000000000000000000000e000000000000000000000000000000000000000000000000000000000000000000000000000000000000000000000000000000000000000000000000000000000000000000000000000000000000000000000000000000000000000000000000000000000000000000000000000000000000000000000000000000000000002e000000000000000000000000000000000000000000000000000000000000000000000000000000000000000000000000000000000000000000000000000ff5e06000000000000000000000000828cebb8cc44cb9047f0f057f9603c7348553d8400000000000000000000000000000000000000000000000000000000000000000000000000000000000000000000000000dab4a563819e8fd93dba3b25bc3495000000000000000000000000394e3d3044fc89fcdd966d3cb35ac0b32b0cda91000000000000000000000000000000000000000000000000000000000000199c0000000000000000000000000000000000000000000000000000000000000001000000000000000000000000000000000000000000000000000000000000000000000000000000000000000000000000000000000000000011c87282c72f80000000000000000000000000000000000000000000000000000000000063ffa22a0000000000000000000000000000000000000000000000000000000063ffb0e800000000000000000000000000000000000000000000000000000000000001a000000000000000000000000000000000a85e3ab83af193c098d44c14b033dd6300000000000000000000000000000000000000000000000000000000000001c00000000000000000000000000000000000000000000000000000000000000000000000000000000000000000000000000000000000000000000000000000000101000000000000000000000000000000000000000000000000000000000000000000000000000000000000000000000000000000000000000000000000000060000000000000000000000000000000000000000000000000000000000000001b512318896350d2421babb7aa2118836e97408c3db3c5426bada385f0e178d4f34ff552cd78951be09b378b345b0622696493ef7c6de657b8560f5cfd46b3aad1",
            "debugEnable": true,
            "errorInfo": "",
            "eventCount": 3,
            "feeRecipient": "0x95222290dd7278aa3ddd389cc1e1d165cc4bafe5",
            "formatValue": "1.2814",
            "gasLimit": 405552,
            "gasPrice": "38.279431832",
            "gasUsed": 238914,
            "intTxnCount": 11,
            "internalRevert": false,
            "internalRevertMessage": "",
            "isContractCreation": false,
            "isFlashloan": false,
            "maxFee": "56.404904935",
            "nonce": 1129,
            "overwritedBlockNumber": -1,
            "priorityFee": "1.5",
            "receiver": "0x000000000000ad05ccc4f10045630fb830b95127",
            "revertMessage": "",
            "sender": "0x828cebb8cc44cb9047f0f057f9603c7348553d84",
            "simulationEnable": true,
            "sourceTxnHash": "0x0bdf504f644e938f69b5a033cfc9b49cd51c92e2f0f7e2bf3ee35e907eec6021",
            "status": true,
            "timestamp": "2023-03-01T19:09:23Z",
            "transactionFee": "0.009145492176710448",
            "txnHash": "0x0bdf504f644e938f69b5a033cfc9b49cd51c92e2f0f7e2bf3ee35e907eec6021",
            "txnIndex": 18,
            "type": 2,
            "value": "1281400000000000000"
        },
        "fund_flow": [
            {
                "amount": "1.2814",
                "from": "0x828cebb8cc44cb9047f0f057f9603c7348553d84",
                "id": 1,
                "isERC1155": false,
                "isERC721": false,
                "isReverted": false,
                "order": 1,
                "to": "0x000000000000ad05ccc4f10045630fb830b95127",
                "token": "0xeeeeeeeeeeeeeeeeeeeeeeeeeeeeeeeeeeeeeeee"
            },
            {
                "amount": "0.006407",
                "from": "0x000000000000ad05ccc4f10045630fb830b95127",
                "id": 2,
                "isERC1155": false,
                "isERC721": false,
                "isReverted": false,
                "order": 2,
                "to": "0x60d190772500faca6a32e2b88ff0cfe5d9d75142",
                "token": "0xeeeeeeeeeeeeeeeeeeeeeeeeeeeeeeeeeeeeeeee"
            },
            {
                "amount": "1.274993",
                "from": "0x000000000000ad05ccc4f10045630fb830b95127",
                "id": 3,
                "isERC1155": false,
                "isERC721": false,
                "isReverted": false,
                "order": 3,
                "to": "0xfa02be029e544b2b0c32fc0a6628d74851217395",
                "token": "0xeeeeeeeeeeeeeeeeeeeeeeeeeeeeeeeeeeeeeeee"
            },
            {
                "amount": "1",
                "from": "0xfa02be029e544b2b0c32fc0a6628d74851217395",
                "id": 4,
                "isERC1155": false,
                "isERC721": true,
                "isReverted": false,
                "order": 4,
                "to": "0x828cebb8cc44cb9047f0f057f9603c7348553d84",
                "token": "0x394e3d3044fc89fcdd966d3cb35ac0b32b0cda91",
                "tokenID": "6556"
            }
        ],
        "token_infos": [
            {
                "address": "0xc02aaa39b223fe8d0a0e5c4f27ead9083c756cc2",
                "decimals": 18
            },
            {
                "address": "0xeeeeeeeeeeeeeeeeeeeeeeeeeeeeeeeeeeeeeeee",
                "decimals": 18
            }
        ]
    },
    "address_label": {
        "labels": [
            {
                "address": "0x0000000000000000000000000000000000000000",
                "label": "Null Address"
            },
            {
                "address": "0x0000000000dab4a563819e8fd93dba3b25bc3495",
                "label": "StandardPolicyERC721"
            },
            {
                "address": "0x00000000000111abe46ff893f3b2fdf1f759a8a8",
                "label": "Blur: Execution Delegate"
            },
            {
                "address": "0x484f5c401eccdd4e25b1c7568e76dd7b10aa45f6",
                "label": "Renga"
            },
            {
                "address": "0x0000000000000000000000000000000000000004",
                "label": "Precompiled"
            },
            {
                "address": "0xeeeeeeeeeeeeeeeeeeeeeeeeeeeeeeeeeeeeeeee",
                "label": "Ether"
            },
            {
                "address": "0x394e3d3044fc89fcdd966d3cb35ac0b32b0cda91",
                "label": "RENGA: RENGA Token"
            },
            {
                "address": "0x3a35a3102b5c6bd1e4d3237248be071ef53c8331",
                "label": "PolicyManager"
            },
            {
                "address": "0x0000000000000000000000000000000000000001",
                "label": "Precompiled"
            },
            {
                "address": "0x0000000000000000000000000000000000000002",
                "label": "Precompiled"
            },
            {
                "address": "0x000000000000ad05ccc4f10045630fb830b95127",
                "label": "Blur.io: Marketplace"
            },
            {
                "address": "0x0000000000000000000000000000000000000003",
                "label": "Precompiled"
            },
            {
                "address": "0x983e96c26782a8db500a6fb8ab47a52e1b44862d",
                "label": "BlurExchange"
            }
        ]
    },
    "trace": {
        "accountLabels": null,
        "dataMap": {
            "-1": {
                "invocation": {
                    "address": "0x828cebb8cc44cb9047f0f057f9603c7348553d84",
                    "callData": "",
                    "decodedMethod": null,
                    "errorInfo": "",
                    "fromAddress": "",
                    "gasUsed": 0,
                    "id": -1,
                    "methodDecoded": false,
                    "operation": "",
                    "output": "",
                    "revert": false,
                    "revertMessage": "",
                    "selector": "",
                    "status": false,
                    "value": ""
                },
                "nodeType": 0
            },
            "0": {
                "invocation": {
                    "address": "0x000000000000ad05ccc4f10045630fb830b95127",
                    "callData": "0x000000000000000000000000000000000000000000000000000000000000004000000000000000000000000000000000000000000000000000000000000003e000000000000000000000000000000000000000000000000000000000000000e0000000000000000000000000000000000000000000000000000000000000001ca8a1071e3bae906bb930ca0ec62081cc475f4ce7e67dd94d6dd7e95ee8068dbf3031fd78e4dbf0de18e5aed0beae341938733b008727f104022dea2975be2f61000000000000000000000000000000000000000000000000000000000000032000000000000000000000000000000000000000000000000000000000000000000000000000000000000000000000000000000000000000000000000000ff5e06000000000000000000000000fa02be029e544b2b0c32fc0a6628d7485121739500000000000000000000000000000000000000000000000000000000000000010000000000000000000000000000000000dab4a563819e8fd93dba3b25bc3495000000000000000000000000394e3d3044fc89fcdd966d3cb35ac0b32b0cda91000000000000000000000000000000000000000000000000000000000000199c0000000000000000000000000000000000000000000000000000000000000001000000000000000000000000000000000000000000000000000000000000000000000000000000000000000000000000000000000000000011c87282c72f80000000000000000000000000000000000000000000000000000000000063ffa22900000000000000000000000000000000000000000000000000000000640396a900000000000000000000000000000000000000000000000000000000000001a000000000000000000000000000000000b92adbc4d8347229f03b910d5b1afce900000000000000000000000000000000000000000000000000000000000002000000000000000000000000000000000000000000000000000000000000000001000000000000000000000000000000000000000000000000000000000000003200000000000000000000000060d190772500faca6a32e2b88ff0cfe5d9d75142000000000000000000000000000000000000000000000000000000000000000101000000000000000000000000000000000000000000000000000000000000000000000000000000000000000000000000000000000000000000000000000060000000000000000000000000000000000000000000000000000000000000001c49adeb6695654c914bf5394027feb45e15117faa9847cfa0d9356d93dae9536817f60fc4bc404da59f24bdda16b807560c809437debcdeb77602e115340ea31400000000000000000000000000000000000000000000000000000000000000e000000000000000000000000000000000000000000000000000000000000000000000000000000000000000000000000000000000000000000000000000000000000000000000000000000000000000000000000000000000000000000000000000000000000000000000000000000000000000000000000000000000000002e000000000000000000000000000000000000000000000000000000000000000000000000000000000000000000000000000000000000000000000000000ff5e06000000000000000000000000828cebb8cc44cb9047f0f057f9603c7348553d8400000000000000000000000000000000000000000000000000000000000000000000000000000000000000000000000000dab4a563819e8fd93dba3b25bc3495000000000000000000000000394e3d3044fc89fcdd966d3cb35ac0b32b0cda91000000000000000000000000000000000000000000000000000000000000199c0000000000000000000000000000000000000000000000000000000000000001000000000000000000000000000000000000000000000000000000000000000000000000000000000000000000000000000000000000000011c87282c72f80000000000000000000000000000000000000000000000000000000000063ffa22a0000000000000000000000000000000000000000000000000000000063ffb0e800000000000000000000000000000000000000000000000000000000000001a000000000000000000000000000000000a85e3ab83af193c098d44c14b033dd6300000000000000000000000000000000000000000000000000000000000001c00000000000000000000000000000000000000000000000000000000000000000000000000000000000000000000000000000000000000000000000000000000101000000000000000000000000000000000000000000000000000000000000000000000000000000000000000000000000000000000000000000000000000060000000000000000000000000000000000000000000000000000000000000001b512318896350d2421babb7aa2118836e97408c3db3c5426bada385f0e178d4f34ff552cd78951be09b378b345b0622696493ef7c6de657b8560f5cfd46b3aad1",
                    "decodedMethod": {
                        "callParams": [
                            {
                                "name": "sell",
                                "type": "((address,uint8,address,address,uint256,uint256,address,uint256,uint256,uint256,(uint16,address)[],uint256,bytes),uint8,bytes32,bytes32,bytes,uint8,uint256)",
                                "value": [
                                    {
                                        "name": "order",
                                        "type": "(address,uint8,address,address,uint256,uint256,address,uint256,uint256,uint256,(uint16,address)[],uint256,bytes)",
                                        "value": [
                                            {
                                                "name": "trader",
                                                "type": "address",
                                                "value": "0xfa02be029e544b2b0c32fc0a6628d74851217395"
                                            },
                                            {
                                                "name": "side",
                                                "type": "uint8",
                                                "value": "1"
                                            },
                                            {
                                                "name": "matchingPolicy",
                                                "type": "address",
                                                "value": "0x0000000000dab4a563819e8fd93dba3b25bc3495"
                                            },
                                            {
                                                "name": "collection",
                                                "type": "address",
                                                "value": "0x394e3d3044fc89fcdd966d3cb35ac0b32b0cda91"
                                            },
                                            {
                                                "name": "tokenId",
                                                "type": "uint256",
                                                "value": "6,556"
                                            },
                                            {
                                                "name": "amount",
                                                "type": "uint256",
                                                "value": "1"
                                            },
                                            {
                                                "name": "paymentToken",
                                                "type": "address",
                                                "value": "0x0000000000000000000000000000000000000000"
                                            },
                                            {
                                                "name": "price",
                                                "type": "uint256",
                                                "value": "1,281,400,000,000,000,000"
                                            },
                                            {
                                                "name": "listingTime",
                                                "type": "uint256",
                                                "value": "1,677,697,577"
                                            },
                                            {
                                                "name": "expirationTime",
                                                "type": "uint256",
                                                "value": "1,677,956,777"
                                            },
                                            {
                                                "name": "fees",
                                                "type": "(uint16,address)[]",
                                                "value": [
                                                    [
                                                        {
                                                            "name": "rate",
                                                            "type": "uint16",
                                                            "value": "50"
                                                        },
                                                        {
                                                            "name": "recipient",
                                                            "type": "address",
                                                            "value": "0x60d190772500faca6a32e2b88ff0cfe5d9d75142"
                                                        }
                                                    ]
                                                ]
                                            },
                                            {
                                                "name": "salt",
                                                "type": "uint256",
                                                "value": "246,129,713,131,603,117,146,672,238,582,898,031,849"
                                            },
                                            {
                                                "name": "extraParams",
                                                "type": "bytes",
                                                "value": "0x01"
                                            }
                                        ]
                                    },
                                    {
                                        "name": "v",
                                        "type": "uint8",
                                        "value": "28"
                                    },
                                    {
                                        "name": "r",
                                        "type": "bytes32",
                                        "value": "0xa8a1071e3bae906bb930ca0ec62081cc475f4ce7e67dd94d6dd7e95ee8068dbf"
                                    },
                                    {
                                        "name": "s",
                                        "type": "bytes32",
                                        "value": "0x3031fd78e4dbf0de18e5aed0beae341938733b008727f104022dea2975be2f61"
                                    },
                                    {
                                        "name": "extraSignature",
                                        "type": "bytes",
                                        "value": "0x000000000000000000000000000000000000000000000000000000000000001c49adeb6695654c914bf5394027feb45e15117faa9847cfa0d9356d93dae9536817f60fc4bc404da59f24bdda16b807560c809437debcdeb77602e115340ea314"
                                    },
                                    {
                                        "name": "signatureVersion",
                                        "type": "uint8",
                                        "value": "0"
                                    },
                                    {
                                        "name": "blockNumber",
                                        "type": "uint256",
                                        "value": "16,735,750"
                                    }
                                ]
                            },
                            {
                                "name": "buy",
                                "type": "((address,uint8,address,address,uint256,uint256,address,uint256,uint256,uint256,(uint16,address)[],uint256,bytes),uint8,bytes32,bytes32,bytes,uint8,uint256)",
                                "value": [
                                    {
                                        "name": "order",
                                        "type": "(address,uint8,address,address,uint256,uint256,address,uint256,uint256,uint256,(uint16,address)[],uint256,bytes)",
                                        "value": [
                                            {
                                                "name": "trader",
                                                "type": "address",
                                                "value": "0x828cebb8cc44cb9047f0f057f9603c7348553d84"
                                            },
                                            {
                                                "name": "side",
                                                "type": "uint8",
                                                "value": "0"
                                            },
                                            {
                                                "name": "matchingPolicy",
                                                "type": "address",
                                                "value": "0x0000000000dab4a563819e8fd93dba3b25bc3495"
                                            },
                                            {
                                                "name": "collection",
                                                "type": "address",
                                                "value": "0x394e3d3044fc89fcdd966d3cb35ac0b32b0cda91"
                                            },
                                            {
                                                "name": "tokenId",
                                                "type": "uint256",
                                                "value": "6,556"
                                            },
                                            {
                                                "name": "amount",
                                                "type": "uint256",
                                                "value": "1"
                                            },
                                            {
                                                "name": "paymentToken",
                                                "type": "address",
                                                "value": "0x0000000000000000000000000000000000000000"
                                            },
                                            {
                                                "name": "price",
                                                "type": "uint256",
                                                "value": "1,281,400,000,000,000,000"
                                            },
                                            {
                                                "name": "listingTime",
                                                "type": "uint256",
                                                "value": "1,677,697,578"
                                            },
                                            {
                                                "name": "expirationTime",
                                                "type": "uint256",
                                                "value": "1,677,701,352"
                                            },
                                            {
                                                "name": "fees",
                                                "type": "(uint16,address)[]",
                                                "value": []
                                            },
                                            {
                                                "name": "salt",
                                                "type": "uint256",
                                                "value": "223,799,570,172,549,234,299,269,653,182,494,793,059"
                                            },
                                            {
                                                "name": "extraParams",
                                                "type": "bytes",
                                                "value": "0x01"
                                            }
                                        ]
                                    },
                                    {
                                        "name": "v",
                                        "type": "uint8",
                                        "value": "0"
                                    },
                                    {
                                        "name": "r",
                                        "type": "bytes32",
                                        "value": "0x0000000000000000000000000000000000000000000000000000000000000000"
                                    },
                                    {
                                        "name": "s",
                                        "type": "bytes32",
                                        "value": "0x0000000000000000000000000000000000000000000000000000000000000000"
                                    },
                                    {
                                        "name": "extraSignature",
                                        "type": "bytes",
                                        "value": "0x000000000000000000000000000000000000000000000000000000000000001b512318896350d2421babb7aa2118836e97408c3db3c5426bada385f0e178d4f34ff552cd78951be09b378b345b0622696493ef7c6de657b8560f5cfd46b3aad1"
                                    },
                                    {
                                        "name": "signatureVersion",
                                        "type": "uint8",
                                        "value": "0"
                                    },
                                    {
                                        "name": "blockNumber",
                                        "type": "uint256",
                                        "value": "16,735,750"
                                    }
                                ]
                            }
                        ],
                        "constructorArguments": "",
                        "name": "execute",
                        "returnParams": [],
                        "signature": "execute(((address,uint8,address,address,uint256,uint256,address,uint256,uint256,uint256,(uint16,address)[],uint256,bytes),uint8,bytes32,bytes32,bytes,uint8,uint256),((address,uint8,address,address,uint256,uint256,address,uint256,uint256,uint256,(uint16,address)[],uint256,bytes),uint8,bytes32,bytes32,bytes,uint8,uint256))"
                    },
                    "errorInfo": "",
                    "fromAddress": "0x828cebb8cc44cb9047f0f057f9603c7348553d84",
                    "gasUsed": 238914,
                    "id": 0,
                    "methodDecoded": true,
                    "operation": "CALL",
                    "output": "",
                    "revert": false,
                    "revertMessage": "",
                    "selector": "0x9a1fc3a7",
                    "status": true,
                    "value": "1.2814"
                },
                "nodeType": 0
            },
            "1": {
                "invocation": {
                    "address": "0x983e96c26782a8db500a6fb8ab47a52e1b44862d",
                    "callData": "0x000000000000000000000000000000000000000000000000000000000000004000000000000000000000000000000000000000000000000000000000000003e000000000000000000000000000000000000000000000000000000000000000e0000000000000000000000000000000000000000000000000000000000000001ca8a1071e3bae906bb930ca0ec62081cc475f4ce7e67dd94d6dd7e95ee8068dbf3031fd78e4dbf0de18e5aed0beae341938733b008727f104022dea2975be2f61000000000000000000000000000000000000000000000000000000000000032000000000000000000000000000000000000000000000000000000000000000000000000000000000000000000000000000000000000000000000000000ff5e06000000000000000000000000fa02be029e544b2b0c32fc0a6628d7485121739500000000000000000000000000000000000000000000000000000000000000010000000000000000000000000000000000dab4a563819e8fd93dba3b25bc3495000000000000000000000000394e3d3044fc89fcdd966d3cb35ac0b32b0cda91000000000000000000000000000000000000000000000000000000000000199c0000000000000000000000000000000000000000000000000000000000000001000000000000000000000000000000000000000000000000000000000000000000000000000000000000000000000000000000000000000011c87282c72f80000000000000000000000000000000000000000000000000000000000063ffa22900000000000000000000000000000000000000000000000000000000640396a900000000000000000000000000000000000000000000000000000000000001a000000000000000000000000000000000b92adbc4d8347229f03b910d5b1afce900000000000000000000000000000000000000000000000000000000000002000000000000000000000000000000000000000000000000000000000000000001000000000000000000000000000000000000000000000000000000000000003200000000000000000000000060d190772500faca6a32e2b88ff0cfe5d9d75142000000000000000000000000000000000000000000000000000000000000000101000000000000000000000000000000000000000000000000000000000000000000000000000000000000000000000000000000000000000000000000000060000000000000000000000000000000000000000000000000000000000000001c49adeb6695654c914bf5394027feb45e15117faa9847cfa0d9356d93dae9536817f60fc4bc404da59f24bdda16b807560c809437debcdeb77602e115340ea31400000000000000000000000000000000000000000000000000000000000000e000000000000000000000000000000000000000000000000000000000000000000000000000000000000000000000000000000000000000000000000000000000000000000000000000000000000000000000000000000000000000000000000000000000000000000000000000000000000000000000000000000000000002e000000000000000000000000000000000000000000000000000000000000000000000000000000000000000000000000000000000000000000000000000ff5e06000000000000000000000000828cebb8cc44cb9047f0f057f9603c7348553d8400000000000000000000000000000000000000000000000000000000000000000000000000000000000000000000000000dab4a563819e8fd93dba3b25bc3495000000000000000000000000394e3d3044fc89fcdd966d3cb35ac0b32b0cda91000000000000000000000000000000000000000000000000000000000000199c0000000000000000000000000000000000000000000000000000000000000001000000000000000000000000000000000000000000000000000000000000000000000000000000000000000000000000000000000000000011c87282c72f80000000000000000000000000000000000000000000000000000000000063ffa22a0000000000000000000000000000000000000000000000000000000063ffb0e800000000000000000000000000000000000000000000000000000000000001a000000000000000000000000000000000a85e3ab83af193c098d44c14b033dd6300000000000000000000000000000000000000000000000000000000000001c00000000000000000000000000000000000000000000000000000000000000000000000000000000000000000000000000000000000000000000000000000000101000000000000000000000000000000000000000000000000000000000000000000000000000000000000000000000000000000000000000000000000000060000000000000000000000000000000000000000000000000000000000000001b512318896350d2421babb7aa2118836e97408c3db3c5426bada385f0e178d4f34ff552cd78951be09b378b345b0622696493ef7c6de657b8560f5cfd46b3aad1",
                    "decodedMethod": {
                        "callParams": [
                            {
                                "name": "sell",
                                "type": "((address,uint8,address,address,uint256,uint256,address,uint256,uint256,uint256,(uint16,address)[],uint256,bytes),uint8,bytes32,bytes32,bytes,uint8,uint256)",
                                "value": [
                                    {
                                        "name": "order",
                                        "type": "(address,uint8,address,address,uint256,uint256,address,uint256,uint256,uint256,(uint16,address)[],uint256,bytes)",
                                        "value": [
                                            {
                                                "name": "trader",
                                                "type": "address",
                                                "value": "0xfa02be029e544b2b0c32fc0a6628d74851217395"
                                            },
                                            {
                                                "name": "side",
                                                "type": "uint8",
                                                "value": "1"
                                            },
                                            {
                                                "name": "matchingPolicy",
                                                "type": "address",
                                                "value": "0x0000000000dab4a563819e8fd93dba3b25bc3495"
                                            },
                                            {
                                                "name": "collection",
                                                "type": "address",
                                                "value": "0x394e3d3044fc89fcdd966d3cb35ac0b32b0cda91"
                                            },
                                            {
                                                "name": "tokenId",
                                                "type": "uint256",
                                                "value": "6,556"
                                            },
                                            {
                                                "name": "amount",
                                                "type": "uint256",
                                                "value": "1"
                                            },
                                            {
                                                "name": "paymentToken",
                                                "type": "address",
                                                "value": "0x0000000000000000000000000000000000000000"
                                            },
                                            {
                                                "name": "price",
                                                "type": "uint256",
                                                "value": "1,281,400,000,000,000,000"
                                            },
                                            {
                                                "name": "listingTime",
                                                "type": "uint256",
                                                "value": "1,677,697,577"
                                            },
                                            {
                                                "name": "expirationTime",
                                                "type": "uint256",
                                                "value": "1,677,956,777"
                                            },
                                            {
                                                "name": "fees",
                                                "type": "(uint16,address)[]",
                                                "value": [
                                                    [
                                                        {
                                                            "name": "rate",
                                                            "type": "uint16",
                                                            "value": "50"
                                                        },
                                                        {
                                                            "name": "recipient",
                                                            "type": "address",
                                                            "value": "0x60d190772500faca6a32e2b88ff0cfe5d9d75142"
                                                        }
                                                    ]
                                                ]
                                            },
                                            {
                                                "name": "salt",
                                                "type": "uint256",
                                                "value": "246,129,713,131,603,117,146,672,238,582,898,031,849"
                                            },
                                            {
                                                "name": "extraParams",
                                                "type": "bytes",
                                                "value": "0x01"
                                            }
                                        ]
                                    },
                                    {
                                        "name": "v",
                                        "type": "uint8",
                                        "value": "28"
                                    },
                                    {
                                        "name": "r",
                                        "type": "bytes32",
                                        "value": "0xa8a1071e3bae906bb930ca0ec62081cc475f4ce7e67dd94d6dd7e95ee8068dbf"
                                    },
                                    {
                                        "name": "s",
                                        "type": "bytes32",
                                        "value": "0x3031fd78e4dbf0de18e5aed0beae341938733b008727f104022dea2975be2f61"
                                    },
                                    {
                                        "name": "extraSignature",
                                        "type": "bytes",
                                        "value": "0x000000000000000000000000000000000000000000000000000000000000001c49adeb6695654c914bf5394027feb45e15117faa9847cfa0d9356d93dae9536817f60fc4bc404da59f24bdda16b807560c809437debcdeb77602e115340ea314"
                                    },
                                    {
                                        "name": "signatureVersion",
                                        "type": "uint8",
                                        "value": "0"
                                    },
                                    {
                                        "name": "blockNumber",
                                        "type": "uint256",
                                        "value": "16,735,750"
                                    }
                                ]
                            },
                            {
                                "name": "buy",
                                "type": "((address,uint8,address,address,uint256,uint256,address,uint256,uint256,uint256,(uint16,address)[],uint256,bytes),uint8,bytes32,bytes32,bytes,uint8,uint256)",
                                "value": [
                                    {
                                        "name": "order",
                                        "type": "(address,uint8,address,address,uint256,uint256,address,uint256,uint256,uint256,(uint16,address)[],uint256,bytes)",
                                        "value": [
                                            {
                                                "name": "trader",
                                                "type": "address",
                                                "value": "0x828cebb8cc44cb9047f0f057f9603c7348553d84"
                                            },
                                            {
                                                "name": "side",
                                                "type": "uint8",
                                                "value": "0"
                                            },
                                            {
                                                "name": "matchingPolicy",
                                                "type": "address",
                                                "value": "0x0000000000dab4a563819e8fd93dba3b25bc3495"
                                            },
                                            {
                                                "name": "collection",
                                                "type": "address",
                                                "value": "0x394e3d3044fc89fcdd966d3cb35ac0b32b0cda91"
                                            },
                                            {
                                                "name": "tokenId",
                                                "type": "uint256",
                                                "value": "6,556"
                                            },
                                            {
                                                "name": "amount",
                                                "type": "uint256",
                                                "value": "1"
                                            },
                                            {
                                                "name": "paymentToken",
                                                "type": "address",
                                                "value": "0x0000000000000000000000000000000000000000"
                                            },
                                            {
                                                "name": "price",
                                                "type": "uint256",
                                                "value": "1,281,400,000,000,000,000"
                                            },
                                            {
                                                "name": "listingTime",
                                                "type": "uint256",
                                                "value": "1,677,697,578"
                                            },
                                            {
                                                "name": "expirationTime",
                                                "type": "uint256",
                                                "value": "1,677,701,352"
                                            },
                                            {
                                                "name": "fees",
                                                "type": "(uint16,address)[]",
                                                "value": []
                                            },
                                            {
                                                "name": "salt",
                                                "type": "uint256",
                                                "value": "223,799,570,172,549,234,299,269,653,182,494,793,059"
                                            },
                                            {
                                                "name": "extraParams",
                                                "type": "bytes",
                                                "value": "0x01"
                                            }
                                        ]
                                    },
                                    {
                                        "name": "v",
                                        "type": "uint8",
                                        "value": "0"
                                    },
                                    {
                                        "name": "r",
                                        "type": "bytes32",
                                        "value": "0x0000000000000000000000000000000000000000000000000000000000000000"
                                    },
                                    {
                                        "name": "s",
                                        "type": "bytes32",
                                        "value": "0x0000000000000000000000000000000000000000000000000000000000000000"
                                    },
                                    {
                                        "name": "extraSignature",
                                        "type": "bytes",
                                        "value": "0x000000000000000000000000000000000000000000000000000000000000001b512318896350d2421babb7aa2118836e97408c3db3c5426bada385f0e178d4f34ff552cd78951be09b378b345b0622696493ef7c6de657b8560f5cfd46b3aad1"
                                    },
                                    {
                                        "name": "signatureVersion",
                                        "type": "uint8",
                                        "value": "0"
                                    },
                                    {
                                        "name": "blockNumber",
                                        "type": "uint256",
                                        "value": "16,735,750"
                                    }
                                ]
                            }
                        ],
                        "constructorArguments": "",
                        "name": "execute",
                        "returnParams": [],
                        "signature": "execute(((address,uint8,address,address,uint256,uint256,address,uint256,uint256,uint256,(uint16,address)[],uint256,bytes),uint8,bytes32,bytes32,bytes,uint8,uint256),((address,uint8,address,address,uint256,uint256,address,uint256,uint256,uint256,(uint16,address)[],uint256,bytes),uint8,bytes32,bytes32,bytes,uint8,uint256))"
                    },
                    "errorInfo": "",
                    "fromAddress": "0x000000000000ad05ccc4f10045630fb830b95127",
                    "gasUsed": 259834,
                    "id": 1,
                    "methodDecoded": true,
                    "operation": "DELEGATECALL",
                    "output": "",
                    "revert": false,
                    "revertMessage": "",
                    "selector": "0x9a1fc3a7",
                    "status": true,
                    "value": "1.2814"
                },
                "nodeType": 0
            },
            "10": {
                "invocation": {
                    "address": "0x394e3d3044fc89fcdd966d3cb35ac0b32b0cda91",
                    "callData": "0x000000000000000000000000fa02be029e544b2b0c32fc0a6628d74851217395000000000000000000000000828cebb8cc44cb9047f0f057f9603c7348553d84000000000000000000000000000000000000000000000000000000000000199c",
                    "decodedMethod": {
                        "callParams": [
                            {
                                "name": "from",
                                "type": "address",
                                "value": "0xfa02be029e544b2b0c32fc0a6628d74851217395"
                            },
                            {
                                "name": "to",
                                "type": "address",
                                "value": "0x828cebb8cc44cb9047f0f057f9603c7348553d84"
                            },
                            {
                                "name": "tokenId",
                                "type": "uint256",
                                "value": "6,556"
                            }
                        ],
                        "constructorArguments": "",
                        "name": "safeTransferFrom",
                        "returnParams": [],
                        "signature": "safeTransferFrom(address,address,uint256)"
                    },
                    "errorInfo": "",
                    "fromAddress": "0x00000000000111abe46ff893f3b2fdf1f759a8a8",
                    "gasUsed": 33537,
                    "id": 10,
                    "methodDecoded": true,
                    "operation": "CALL",
                    "output": "",
                    "revert": false,
                    "revertMessage": "",
                    "selector": "0x42842e0e",
                    "status": true,
                    "value": "0"
                },
                "nodeType": 0
            },
            "11": {
                "invocation": {
                    "address": "0x484f5c401eccdd4e25b1c7568e76dd7b10aa45f6",
                    "callData": "0x000000000000000000000000fa02be029e544b2b0c32fc0a6628d74851217395000000000000000000000000828cebb8cc44cb9047f0f057f9603c7348553d84000000000000000000000000000000000000000000000000000000000000199c",
                    "decodedMethod": {
                        "callParams": [
                            {
                                "name": "from",
                                "type": "address",
                                "value": "0xfa02be029e544b2b0c32fc0a6628d74851217395"
                            },
                            {
                                "name": "to",
                                "type": "address",
                                "value": "0x828cebb8cc44cb9047f0f057f9603c7348553d84"
                            },
                            {
                                "name": "tokenId",
                                "type": "uint256",
                                "value": "6,556"
                            }
                        ],
                        "constructorArguments": "",
                        "name": "safeTransferFrom",
                        "returnParams": [],
                        "signature": "safeTransferFrom(address,address,uint256)"
                    },
                    "errorInfo": "",
                    "fromAddress": "0x394e3d3044fc89fcdd966d3cb35ac0b32b0cda91",
                    "gasUsed": 28633,
                    "id": 11,
                    "methodDecoded": true,
                    "operation": "DELEGATECALL",
                    "output": "",
                    "revert": false,
                    "revertMessage": "",
                    "selector": "0x42842e0e",
                    "status": true,
                    "value": "0"
                },
                "nodeType": 0
            },
            "12": {
                "event": {
                    "contract": "0x394e3d3044fc89fcdd966d3cb35ac0b32b0cda91",
                    "decodedLog": {
                        "name": "Approval",
                        "params": [
                            {
                                "name": "owner",
                                "type": "address",
                                "value": "0xfa02be029e544b2b0c32fc0a6628d74851217395"
                            },
                            {
                                "name": "approved",
                                "type": "address",
                                "value": "0x0000000000000000000000000000000000000000"
                            },
                            {
                                "decimalAvailable": true,
                                "name": "tokenId",
                                "type": "uint256",
                                "value": "6,556"
                            }
                        ],
                        "signature": "Approval(address,address,uint256)"
                    },
                    "id": 12,
                    "logData": "0x",
                    "logDecoded": true,
                    "operation": "EVENT",
                    "revert": false,
                    "status": true,
                    "topics": [
                        "0x8c5be1e5ebec7d5bd14f71427d1e84f3dd0314c0f7b2291e5b200ac8c7c3b925",
                        "0x000000000000000000000000fa02be029e544b2b0c32fc0a6628d74851217395",
                        "0x0000000000000000000000000000000000000000000000000000000000000000",
                        "0x000000000000000000000000000000000000000000000000000000000000199c"
                    ]
                },
                "nodeType": 1
            },
            "13": {
                "event": {
                    "contract": "0x394e3d3044fc89fcdd966d3cb35ac0b32b0cda91",
                    "decodedLog": {
                        "name": "Transfer",
                        "params": [
                            {
                                "name": "from",
                                "type": "address",
                                "value": "0xfa02be029e544b2b0c32fc0a6628d74851217395"
                            },
                            {
                                "name": "to",
                                "type": "address",
                                "value": "0x828cebb8cc44cb9047f0f057f9603c7348553d84"
                            },
                            {
                                "decimalAvailable": true,
                                "name": "tokenId",
                                "type": "uint256",
                                "value": "6,556"
                            }
                        ],
                        "signature": "Transfer(address,address,uint256)"
                    },
                    "id": 13,
                    "logData": "0x",
                    "logDecoded": true,
                    "operation": "EVENT",
                    "revert": false,
                    "status": true,
                    "topics": [
                        "0xddf252ad1be2c89b69c2b068fc378daa952ba7f163c4a11628f55a4df523b3ef",
                        "0x000000000000000000000000fa02be029e544b2b0c32fc0a6628d74851217395",
                        "0x000000000000000000000000828cebb8cc44cb9047f0f057f9603c7348553d84",
                        "0x000000000000000000000000000000000000000000000000000000000000199c"
                    ]
                },
                "nodeType": 1
            },
            "14": {
                "event": {
                    "contract": "0x000000000000ad05ccc4f10045630fb830b95127",
                    "decodedLog": {
                        "name": "OrdersMatched",
                        "params": [
                            {
                                "name": "maker",
                                "type": "address",
                                "value": "0xfa02be029e544b2b0c32fc0a6628d74851217395"
                            },
                            {
                                "name": "taker",
                                "type": "address",
                                "value": "0x828cebb8cc44cb9047f0f057f9603c7348553d84"
                            },
                            {
                                "name": "sell",
                                "type": "(address,uint8,address,address,uint256,uint256,address,uint256,uint256,uint256,(uint16,address)[],uint256,bytes)",
                                "value": [
                                    {
                                        "name": "trader",
                                        "type": "address",
                                        "value": "0xfa02be029e544b2b0c32fc0a6628d74851217395"
                                    },
                                    {
                                        "name": "side",
                                        "type": "uint8",
                                        "value": "1"
                                    },
                                    {
                                        "name": "matchingPolicy",
                                        "type": "address",
                                        "value": "0x0000000000dab4a563819e8fd93dba3b25bc3495"
                                    },
                                    {
                                        "name": "collection",
                                        "type": "address",
                                        "value": "0x394e3d3044fc89fcdd966d3cb35ac0b32b0cda91"
                                    },
                                    {
                                        "name": "tokenId",
                                        "type": "uint256",
                                        "value": "6,556"
                                    },
                                    {
                                        "name": "amount",
                                        "type": "uint256",
                                        "value": "1"
                                    },
                                    {
                                        "name": "paymentToken",
                                        "type": "address",
                                        "value": "0x0000000000000000000000000000000000000000"
                                    },
                                    {
                                        "name": "price",
                                        "type": "uint256",
                                        "value": "1,281,400,000,000,000,000"
                                    },
                                    {
                                        "name": "listingTime",
                                        "type": "uint256",
                                        "value": "1,677,697,577"
                                    },
                                    {
                                        "name": "expirationTime",
                                        "type": "uint256",
                                        "value": "1,677,956,777"
                                    },
                                    {
                                        "name": "fees",
                                        "type": "(uint16,address)[]",
                                        "value": [
                                            [
                                                {
                                                    "name": "rate",
                                                    "type": "uint16",
                                                    "value": "50"
                                                },
                                                {
                                                    "name": "recipient",
                                                    "type": "address",
                                                    "value": "0x60d190772500faca6a32e2b88ff0cfe5d9d75142"
                                                }
                                            ]
                                        ]
                                    },
                                    {
                                        "name": "salt",
                                        "type": "uint256",
                                        "value": "246,129,713,131,603,117,146,672,238,582,898,031,849"
                                    },
                                    {
                                        "name": "extraParams",
                                        "type": "bytes",
                                        "value": "0x01"
                                    }
                                ]
                            },
                            {
                                "name": "sellHash",
                                "type": "bytes32",
                                "value": "0xf62788a0ab337a19027240e2f311cc3ab1ce6f3c683ce56d127c278fa32cce73"
                            },
                            {
                                "name": "buy",
                                "type": "(address,uint8,address,address,uint256,uint256,address,uint256,uint256,uint256,(uint16,address)[],uint256,bytes)",
                                "value": [
                                    {
                                        "name": "trader",
                                        "type": "address",
                                        "value": "0x828cebb8cc44cb9047f0f057f9603c7348553d84"
                                    },
                                    {
                                        "name": "side",
                                        "type": "uint8",
                                        "value": "0"
                                    },
                                    {
                                        "name": "matchingPolicy",
                                        "type": "address",
                                        "value": "0x0000000000dab4a563819e8fd93dba3b25bc3495"
                                    },
                                    {
                                        "name": "collection",
                                        "type": "address",
                                        "value": "0x394e3d3044fc89fcdd966d3cb35ac0b32b0cda91"
                                    },
                                    {
                                        "name": "tokenId",
                                        "type": "uint256",
                                        "value": "6,556"
                                    },
                                    {
                                        "name": "amount",
                                        "type": "uint256",
                                        "value": "1"
                                    },
                                    {
                                        "name": "paymentToken",
                                        "type": "address",
                                        "value": "0x0000000000000000000000000000000000000000"
                                    },
                                    {
                                        "name": "price",
                                        "type": "uint256",
                                        "value": "1,281,400,000,000,000,000"
                                    },
                                    {
                                        "name": "listingTime",
                                        "type": "uint256",
                                        "value": "1,677,697,578"
                                    },
                                    {
                                        "name": "expirationTime",
                                        "type": "uint256",
                                        "value": "1,677,701,352"
                                    },
                                    {
                                        "name": "fees",
                                        "type": "(uint16,address)[]",
                                        "value": []
                                    },
                                    {
                                        "name": "salt",
                                        "type": "uint256",
                                        "value": "223,799,570,172,549,234,299,269,653,182,494,793,059"
                                    },
                                    {
                                        "name": "extraParams",
                                        "type": "bytes",
                                        "value": "0x01"
                                    }
                                ]
                            },
                            {
                                "name": "buyHash",
                                "type": "bytes32",
                                "value": "0x670abac996a76e6d22d5f26080c3c5f50dc28e2e82f688b717b193b278f5d4fa"
                            }
                        ],
                        "signature": "OrdersMatched(address,address,(address,uint8,address,address,uint256,uint256,address,uint256,uint256,uint256,(uint16,address)[],uint256,bytes),bytes32,(address,uint8,address,address,uint256,uint256,address,uint256,uint256,uint256,(uint16,address)[],uint256,bytes),bytes32)"
                    },
                    "id": 14,
                    "logData": "0x0000000000000000000000000000000000000000000000000000000000000080f62788a0ab337a19027240e2f311cc3ab1ce6f3c683ce56d127c278fa32cce7300000000000000000000000000000000000000000000000000000000000002c0670abac996a76e6d22d5f26080c3c5f50dc28e2e82f688b717b193b278f5d4fa000000000000000000000000fa02be029e544b2b0c32fc0a6628d7485121739500000000000000000000000000000000000000000000000000000000000000010000000000000000000000000000000000dab4a563819e8fd93dba3b25bc3495000000000000000000000000394e3d3044fc89fcdd966d3cb35ac0b32b0cda91000000000000000000000000000000000000000000000000000000000000199c0000000000000000000000000000000000000000000000000000000000000001000000000000000000000000000000000000000000000000000000000000000000000000000000000000000000000000000000000000000011c87282c72f80000000000000000000000000000000000000000000000000000000000063ffa22900000000000000000000000000000000000000000000000000000000640396a900000000000000000000000000000000000000000000000000000000000001a000000000000000000000000000000000b92adbc4d8347229f03b910d5b1afce900000000000000000000000000000000000000000000000000000000000002000000000000000000000000000000000000000000000000000000000000000001000000000000000000000000000000000000000000000000000000000000003200000000000000000000000060d190772500faca6a32e2b88ff0cfe5d9d7514200000000000000000000000000000000000000000000000000000000000000010100000000000000000000000000000000000000000000000000000000000000000000000000000000000000828cebb8cc44cb9047f0f057f9603c7348553d8400000000000000000000000000000000000000000000000000000000000000000000000000000000000000000000000000dab4a563819e8fd93dba3b25bc3495000000000000000000000000394e3d3044fc89fcdd966d3cb35ac0b32b0cda91000000000000000000000000000000000000000000000000000000000000199c0000000000000000000000000000000000000000000000000000000000000001000000000000000000000000000000000000000000000000000000000000000000000000000000000000000000000000000000000000000011c87282c72f80000000000000000000000000000000000000000000000000000000000063ffa22a0000000000000000000000000000000000000000000000000000000063ffb0e800000000000000000000000000000000000000000000000000000000000001a000000000000000000000000000000000a85e3ab83af193c098d44c14b033dd6300000000000000000000000000000000000000000000000000000000000001c0000000000000000000000000000000000000000000000000000000000000000000000000000000000000000000000000000000000000000000000000000000010100000000000000000000000000000000000000000000000000000000000000",
                    "logDecoded": true,
                    "operation": "EVENT",
                    "revert": false,
                    "status": true,
                    "topics": [
                        "0x61cbb2a3dee0b6064c2e681aadd61677fb4ef319f0b547508d495626f5a62f64",
                        "0x000000000000000000000000fa02be029e544b2b0c32fc0a6628d74851217395",
                        "0x000000000000000000000000828cebb8cc44cb9047f0f057f9603c7348553d84"
                    ]
                },
                "nodeType": 1
            },
            "2": {
                "invocation": {
                    "address": "0x0000000000000000000000000000000000000001",
                    "callData": "0xebc0aa87a7235b0312492d4ef1576b73a1c0d4409ddba66c6e2ef791000000000000000000000000000000000000000000000000000000000000001c49adeb6695654c914bf5394027feb45e15117faa9847cfa0d9356d93dae9536817f60fc4bc404da59f24bdda16b807560c809437debcdeb77602e115340ea314",
                    "decodedMethod": {
                        "callParams": [
                            {
                                "name": "hash",
                                "type": "bytes32",
                                "value": "0x2e34328aebc0aa87a7235b0312492d4ef1576b73a1c0d4409ddba66c6e2ef791"
                            },
                            {
                                "name": "v",
                                "type": "uint256",
                                "value": "28"
                            },
                            {
                                "name": "r",
                                "type": "bytes32",
                                "value": "0x49adeb6695654c914bf5394027feb45e15117faa9847cfa0d9356d93dae95368"
                            },
                            {
                                "name": "s",
                                "type": "bytes32",
                                "value": "0x17f60fc4bc404da59f24bdda16b807560c809437debcdeb77602e115340ea314"
                            }
                        ],
                        "constructorArguments": "",
                        "name": "ecrecover",
                        "returnParams": [
                            {
                                "name": "",
                                "type": "address",
                                "value": "0xd44feab097e5fee7fd54c9481f56b806f7f3ddc1"
                            }
                        ],
                        "signature": "ecrecover(bytes32,uint256,bytes32,bytes32)"
                    },
                    "errorInfo": "",
                    "fromAddress": "0x000000000000ad05ccc4f10045630fb830b95127",
                    "gasUsed": 3000,
                    "id": 2,
                    "methodDecoded": true,
                    "operation": "STATICCALL",
                    "output": "0x000000000000000000000000d44feab097e5fee7fd54c9481f56b806f7f3ddc1",
                    "revert": false,
                    "revertMessage": "",
                    "selector": "0x2e34328a",
                    "status": true,
                    "value": "0"
                },
                "nodeType": 0
            },
            "3": {
                "invocation": {
                    "address": "0x0000000000000000000000000000000000000001",
                    "callData": "0x89f1d071a2f05edc3bda60c842ab4066ec39a7f80cb036f85bd21e1e000000000000000000000000000000000000000000000000000000000000001ca8a1071e3bae906bb930ca0ec62081cc475f4ce7e67dd94d6dd7e95ee8068dbf3031fd78e4dbf0de18e5aed0beae341938733b008727f104022dea2975be2f61",
                    "decodedMethod": {
                        "callParams": [
                            {
                                "name": "hash",
                                "type": "bytes32",
                                "value": "0x4f97f66789f1d071a2f05edc3bda60c842ab4066ec39a7f80cb036f85bd21e1e"
                            },
                            {
                                "name": "v",
                                "type": "uint256",
                                "value": "28"
                            },
                            {
                                "name": "r",
                                "type": "bytes32",
                                "value": "0xa8a1071e3bae906bb930ca0ec62081cc475f4ce7e67dd94d6dd7e95ee8068dbf"
                            },
                            {
                                "name": "s",
                                "type": "bytes32",
                                "value": "0x3031fd78e4dbf0de18e5aed0beae341938733b008727f104022dea2975be2f61"
                            }
                        ],
                        "constructorArguments": "",
                        "name": "ecrecover",
                        "returnParams": [
                            {
                                "name": "",
                                "type": "address",
                                "value": "0xfa02be029e544b2b0c32fc0a6628d74851217395"
                            }
                        ],
                        "signature": "ecrecover(bytes32,uint256,bytes32,bytes32)"
                    },
                    "errorInfo": "",
                    "fromAddress": "0x000000000000ad05ccc4f10045630fb830b95127",
                    "gasUsed": 3000,
                    "id": 3,
                    "methodDecoded": true,
                    "operation": "STATICCALL",
                    "output": "0x000000000000000000000000fa02be029e544b2b0c32fc0a6628d74851217395",
                    "revert": false,
                    "revertMessage": "",
                    "selector": "0x4f97f667",
                    "status": true,
                    "value": "0"
                },
                "nodeType": 0
            },
            "4": {
                "invocation": {
                    "address": "0x0000000000000000000000000000000000000001",
                    "callData": "0x11192481eb4fda2cc04fc311dc9423d8fbee63bb64bb5ea5171d14f2000000000000000000000000000000000000000000000000000000000000001b512318896350d2421babb7aa2118836e97408c3db3c5426bada385f0e178d4f34ff552cd78951be09b378b345b0622696493ef7c6de657b8560f5cfd46b3aad1",
                    "decodedMethod": {
                        "callParams": [
                            {
                                "name": "hash",
                                "type": "bytes32",
                                "value": "0xc0cb1fa411192481eb4fda2cc04fc311dc9423d8fbee63bb64bb5ea5171d14f2"
                            },
                            {
                                "name": "v",
                                "type": "uint256",
                                "value": "27"
                            },
                            {
                                "name": "r",
                                "type": "bytes32",
                                "value": "0x512318896350d2421babb7aa2118836e97408c3db3c5426bada385f0e178d4f3"
                            },
                            {
                                "name": "s",
                                "type": "bytes32",
                                "value": "0x4ff552cd78951be09b378b345b0622696493ef7c6de657b8560f5cfd46b3aad1"
                            }
                        ],
                        "constructorArguments": "",
                        "name": "ecrecover",
                        "returnParams": [
                            {
                                "name": "",
                                "type": "address",
                                "value": "0xd44feab097e5fee7fd54c9481f56b806f7f3ddc1"
                            }
                        ],
                        "signature": "ecrecover(bytes32,uint256,bytes32,bytes32)"
                    },
                    "errorInfo": "",
                    "fromAddress": "0x000000000000ad05ccc4f10045630fb830b95127",
                    "gasUsed": 3000,
                    "id": 4,
                    "methodDecoded": true,
                    "operation": "STATICCALL",
                    "output": "0x000000000000000000000000d44feab097e5fee7fd54c9481f56b806f7f3ddc1",
                    "revert": false,
                    "revertMessage": "",
                    "selector": "0xc0cb1fa4",
                    "status": true,
                    "value": "0"
                },
                "nodeType": 0
            },
            "5": {
                "invocation": {
                    "address": "0x3a35a3102b5c6bd1e4d3237248be071ef53c8331",
                    "callData": "0x0000000000000000000000000000000000dab4a563819e8fd93dba3b25bc3495",
                    "decodedMethod": {
                        "callParams": [
                            {
                                "name": "policy",
                                "type": "address",
                                "value": "0x0000000000dab4a563819e8fd93dba3b25bc3495"
                            }
                        ],
                        "constructorArguments": "",
                        "name": "isPolicyWhitelisted",
                        "returnParams": [
                            {
                                "name": "",
                                "type": "bool",
                                "value": true
                            }
                        ],
                        "signature": "isPolicyWhitelisted(address)"
                    },
                    "errorInfo": "",
                    "fromAddress": "0x000000000000ad05ccc4f10045630fb830b95127",
                    "gasUsed": 2666,
                    "id": 5,
                    "methodDecoded": true,
                    "operation": "STATICCALL",
                    "output": "0x0000000000000000000000000000000000000000000000000000000000000001",
                    "revert": false,
                    "revertMessage": "",
                    "selector": "0x874516cd",
                    "status": true,
                    "value": "0"
                },
                "nodeType": 0
            },
            "6": {
                "invocation": {
                    "address": "0x0000000000dab4a563819e8fd93dba3b25bc3495",
                    "callData": "0x00000000000000000000000000000000000000000000000000000000000000400000000000000000000000000000000000000000000000000000000000000280000000000000000000000000fa02be029e544b2b0c32fc0a6628d7485121739500000000000000000000000000000000000000000000000000000000000000010000000000000000000000000000000000dab4a563819e8fd93dba3b25bc3495000000000000000000000000394e3d3044fc89fcdd966d3cb35ac0b32b0cda91000000000000000000000000000000000000000000000000000000000000199c0000000000000000000000000000000000000000000000000000000000000001000000000000000000000000000000000000000000000000000000000000000000000000000000000000000000000000000000000000000011c87282c72f80000000000000000000000000000000000000000000000000000000000063ffa22900000000000000000000000000000000000000000000000000000000640396a900000000000000000000000000000000000000000000000000000000000001a000000000000000000000000000000000b92adbc4d8347229f03b910d5b1afce900000000000000000000000000000000000000000000000000000000000002000000000000000000000000000000000000000000000000000000000000000001000000000000000000000000000000000000000000000000000000000000003200000000000000000000000060d190772500faca6a32e2b88ff0cfe5d9d7514200000000000000000000000000000000000000000000000000000000000000010100000000000000000000000000000000000000000000000000000000000000000000000000000000000000828cebb8cc44cb9047f0f057f9603c7348553d8400000000000000000000000000000000000000000000000000000000000000000000000000000000000000000000000000dab4a563819e8fd93dba3b25bc3495000000000000000000000000394e3d3044fc89fcdd966d3cb35ac0b32b0cda91000000000000000000000000000000000000000000000000000000000000199c0000000000000000000000000000000000000000000000000000000000000001000000000000000000000000000000000000000000000000000000000000000000000000000000000000000000000000000000000000000011c87282c72f80000000000000000000000000000000000000000000000000000000000063ffa22a0000000000000000000000000000000000000000000000000000000063ffb0e800000000000000000000000000000000000000000000000000000000000001a000000000000000000000000000000000a85e3ab83af193c098d44c14b033dd6300000000000000000000000000000000000000000000000000000000000001c0000000000000000000000000000000000000000000000000000000000000000000000000000000000000000000000000000000000000000000000000000000010100000000000000000000000000000000000000000000000000000000000000",
                    "decodedMethod": {
                        "callParams": [
                            {
                                "name": "makerAsk",
                                "type": "(address,uint8,address,address,uint256,uint256,address,uint256,uint256,uint256,(uint16,address)[],uint256,bytes)",
                                "value": [
                                    {
                                        "name": "trader",
                                        "type": "address",
                                        "value": "0xfa02be029e544b2b0c32fc0a6628d74851217395"
                                    },
                                    {
                                        "name": "side",
                                        "type": "uint8",
                                        "value": "1"
                                    },
                                    {
                                        "name": "matchingPolicy",
                                        "type": "address",
                                        "value": "0x0000000000dab4a563819e8fd93dba3b25bc3495"
                                    },
                                    {
                                        "name": "collection",
                                        "type": "address",
                                        "value": "0x394e3d3044fc89fcdd966d3cb35ac0b32b0cda91"
                                    },
                                    {
                                        "name": "tokenId",
                                        "type": "uint256",
                                        "value": "6,556"
                                    },
                                    {
                                        "name": "amount",
                                        "type": "uint256",
                                        "value": "1"
                                    },
                                    {
                                        "name": "paymentToken",
                                        "type": "address",
                                        "value": "0x0000000000000000000000000000000000000000"
                                    },
                                    {
                                        "name": "price",
                                        "type": "uint256",
                                        "value": "1,281,400,000,000,000,000"
                                    },
                                    {
                                        "name": "listingTime",
                                        "type": "uint256",
                                        "value": "1,677,697,577"
                                    },
                                    {
                                        "name": "expirationTime",
                                        "type": "uint256",
                                        "value": "1,677,956,777"
                                    },
                                    {
                                        "name": "fees",
                                        "type": "(uint16,address)[]",
                                        "value": [
                                            [
                                                {
                                                    "name": "rate",
                                                    "type": "uint16",
                                                    "value": "50"
                                                },
                                                {
                                                    "name": "recipient",
                                                    "type": "address",
                                                    "value": "0x60d190772500faca6a32e2b88ff0cfe5d9d75142"
                                                }
                                            ]
                                        ]
                                    },
                                    {
                                        "name": "salt",
                                        "type": "uint256",
                                        "value": "246,129,713,131,603,117,146,672,238,582,898,031,849"
                                    },
                                    {
                                        "name": "extraParams",
                                        "type": "bytes",
                                        "value": "0x01"
                                    }
                                ]
                            },
                            {
                                "name": "takerBid",
                                "type": "(address,uint8,address,address,uint256,uint256,address,uint256,uint256,uint256,(uint16,address)[],uint256,bytes)",
                                "value": [
                                    {
                                        "name": "trader",
                                        "type": "address",
                                        "value": "0x828cebb8cc44cb9047f0f057f9603c7348553d84"
                                    },
                                    {
                                        "name": "side",
                                        "type": "uint8",
                                        "value": "0"
                                    },
                                    {
                                        "name": "matchingPolicy",
                                        "type": "address",
                                        "value": "0x0000000000dab4a563819e8fd93dba3b25bc3495"
                                    },
                                    {
                                        "name": "collection",
                                        "type": "address",
                                        "value": "0x394e3d3044fc89fcdd966d3cb35ac0b32b0cda91"
                                    },
                                    {
                                        "name": "tokenId",
                                        "type": "uint256",
                                        "value": "6,556"
                                    },
                                    {
                                        "name": "amount",
                                        "type": "uint256",
                                        "value": "1"
                                    },
                                    {
                                        "name": "paymentToken",
                                        "type": "address",
                                        "value": "0x0000000000000000000000000000000000000000"
                                    },
                                    {
                                        "name": "price",
                                        "type": "uint256",
                                        "value": "1,281,400,000,000,000,000"
                                    },
                                    {
                                        "name": "listingTime",
                                        "type": "uint256",
                                        "value": "1,677,697,578"
                                    },
                                    {
                                        "name": "expirationTime",
                                        "type": "uint256",
                                        "value": "1,677,701,352"
                                    },
                                    {
                                        "name": "fees",
                                        "type": "(uint16,address)[]",
                                        "value": []
                                    },
                                    {
                                        "name": "salt",
                                        "type": "uint256",
                                        "value": "223,799,570,172,549,234,299,269,653,182,494,793,059"
                                    },
                                    {
                                        "name": "extraParams",
                                        "type": "bytes",
                                        "value": "0x01"
                                    }
                                ]
                            }
                        ],
                        "constructorArguments": "",
                        "name": "canMatchMakerAsk",
                        "returnParams": [
                            {
                                "name": "",
                                "type": "bool",
                                "value": true
                            },
                            {
                                "name": "",
                                "type": "uint256",
                                "value": "1,281,400,000,000,000,000"
                            },
                            {
                                "name": "",
                                "type": "uint256",
                                "value": "6,556"
                            },
                            {
                                "name": "",
                                "type": "uint256",
                                "value": "1"
                            },
                            {
                                "name": "",
                                "type": "uint8",
                                "value": "0"
                            }
                        ],
                        "signature": "canMatchMakerAsk((address,uint8,address,address,uint256,uint256,address,uint256,uint256,uint256,(uint16,address)[],uint256,bytes),(address,uint8,address,address,uint256,uint256,address,uint256,uint256,uint256,(uint16,address)[],uint256,bytes))"
                    },
                    "errorInfo": "",
                    "fromAddress": "0x000000000000ad05ccc4f10045630fb830b95127",
                    "gasUsed": 3230,
                    "id": 6,
                    "methodDecoded": true,
                    "operation": "STATICCALL",
                    "output": "0x000000000000000000000000000000000000000000000000000000000000000100000000000000000000000000000000000000000000000011c87282c72f8000000000000000000000000000000000000000000000000000000000000000199c00000000000000000000000000000000000000000000000000000000000000010000000000000000000000000000000000000000000000000000000000000000",
                    "revert": false,
                    "revertMessage": "",
                    "selector": "0xd5ec8c77",
                    "status": true,
                    "value": "0"
                },
                "nodeType": 0
            },
            "7": {
                "invocation": {
                    "address": "0x60d190772500faca6a32e2b88ff0cfe5d9d75142",
                    "callData": "0x",
                    "decodedMethod": null,
                    "errorInfo": "",
                    "fromAddress": "0x000000000000ad05ccc4f10045630fb830b95127",
                    "gasUsed": 0,
                    "id": 7,
                    "methodDecoded": false,
                    "operation": "CALL",
                    "output": "",
                    "revert": false,
                    "revertMessage": "",
                    "selector": "fallback",
                    "status": true,
                    "value": "0.006407"
                },
                "nodeType": 0
            },
            "8": {
                "invocation": {
                    "address": "0xfa02be029e544b2b0c32fc0a6628d74851217395",
                    "callData": "0x",
                    "decodedMethod": null,
                    "errorInfo": "",
                    "fromAddress": "0x000000000000ad05ccc4f10045630fb830b95127",
                    "gasUsed": 0,
                    "id": 8,
                    "methodDecoded": false,
                    "operation": "CALL",
                    "output": "",
                    "revert": false,
                    "revertMessage": "",
                    "selector": "fallback",
                    "status": true,
                    "value": "1.274993"
                },
                "nodeType": 0
            },
            "9": {
                "invocation": {
                    "address": "0x00000000000111abe46ff893f3b2fdf1f759a8a8",
                    "callData": "0x000000000000000000000000394e3d3044fc89fcdd966d3cb35ac0b32b0cda91000000000000000000000000fa02be029e544b2b0c32fc0a6628d74851217395000000000000000000000000828cebb8cc44cb9047f0f057f9603c7348553d84000000000000000000000000000000000000000000000000000000000000199c",
                    "decodedMethod": {
                        "callParams": [
                            {
                                "name": "collection",
                                "type": "address",
                                "value": "0x394e3d3044fc89fcdd966d3cb35ac0b32b0cda91"
                            },
                            {
                                "name": "from",
                                "type": "address",
                                "value": "0xfa02be029e544b2b0c32fc0a6628d74851217395"
                            },
                            {
                                "name": "to",
                                "type": "address",
                                "value": "0x828cebb8cc44cb9047f0f057f9603c7348553d84"
                            },
                            {
                                "name": "tokenId",
                                "type": "uint256",
                                "value": "6,556"
                            }
                        ],
                        "constructorArguments": "",
                        "name": "transferERC721",
                        "returnParams": [],
                        "signature": "transferERC721(address,address,address,uint256)"
                    },
                    "errorInfo": "",
                    "fromAddress": "0x000000000000ad05ccc4f10045630fb830b95127",
                    "gasUsed": 41458,
                    "id": 9,
                    "methodDecoded": true,
                    "operation": "CALL",
                    "output": "",
                    "revert": false,
                    "revertMessage": "",
                    "selector": "0x789f93f6",
                    "status": true,
                    "value": "0"
                },
                "nodeType": 0
            }
        },
        "gasFlame": [
            {
                "children": [
                    {
                        "children": [
                            {
                                "children": [],
                                "depth": 0,
                                "name": "Initial Gas",
                                "value": 33552
                            },
                            {
                                "children": [
                                    {
                                        "children": [
                                            {
                                                "children": [],
                                                "depth": 2,
                                                "name": "ecrecover",
                                                "value": 3000
                                            },
                                            {
                                                "children": [],
                                                "depth": 2,
                                                "name": "ecrecover",
                                                "value": 3000
                                            },
                                            {
                                                "children": [],
                                                "depth": 2,
                                                "name": "ecrecover",
                                                "value": 3000
                                            },
                                            {
                                                "children": [],
                                                "depth": 2,
                                                "name": "isPolicyWhitelisted",
                                                "value": 2666
                                            },
                                            {
                                                "children": [],
                                                "depth": 2,
                                                "name": "canMatchMakerAsk",
                                                "value": 3230
                                            },
                                            {
                                                "children": [],
                                                "depth": 2,
                                                "name": "fallback",
                                                "value": 0
                                            },
                                            {
                                                "children": [],
                                                "depth": 2,
                                                "name": "fallback",
                                                "value": 0
                                            },
                                            {
                                                "children": [
                                                    {
                                                        "children": [
                                                            {
                                                                "children": [],
                                                                "depth": 4,
                                                                "name": "safeTransferFrom",
                                                                "value": 28633
                                                            }
                                                        ],
                                                        "depth": 3,
                                                        "name": "safeTransferFrom",
                                                        "value": 33537
                                                    }
                                                ],
                                                "depth": 2,
                                                "name": "transferERC721",
                                                "value": 41458
                                            }
                                        ],
                                        "depth": 1,
                                        "name": "execute",
                                        "value": 259834
                                    }
                                ],
                                "depth": 0,
                                "name": "Executed Gas",
                                "value": 265062
                            }
                        ],
                        "depth": -1,
                        "name": "Actual Gas Used",
                        "value": 238914
                    },
                    {
                        "children": [],
                        "depth": -1,
                        "name": "Refunded Gas",
                        "value": 59700
                    }
                ],
                "depth": -2,
                "name": "Total Gas",
                "value": 298614
            }
        ],
        "isConfirmed": true,
        "mainTrace": [
            {
                "children": [
                    {
                        "children": [
                            {
                                "children": [
                                    {
                                        "children": [],
                                        "depth": 2,
                                        "id": 2,
                                        "order": 2
                                    },
                                    {
                                        "children": [],
                                        "depth": 2,
                                        "id": 3,
                                        "order": 3
                                    },
                                    {
                                        "children": [],
                                        "depth": 2,
                                        "id": 4,
                                        "order": 4
                                    },
                                    {
                                        "children": [],
                                        "depth": 2,
                                        "id": 5,
                                        "order": 5
                                    },
                                    {
                                        "children": [],
                                        "depth": 2,
                                        "id": 6,
                                        "order": 6
                                    },
                                    {
                                        "children": [],
                                        "depth": 2,
                                        "id": 7,
                                        "order": 7
                                    },
                                    {
                                        "children": [],
                                        "depth": 2,
                                        "id": 8,
                                        "order": 8
                                    },
                                    {
                                        "children": [
                                            {
                                                "children": [
                                                    {
                                                        "children": [
                                                            {
                                                                "children": [],
                                                                "depth": 5,
                                                                "id": 12,
                                                                "order": 12
                                                            },
                                                            {
                                                                "children": [],
                                                                "depth": 5,
                                                                "id": 13,
                                                                "order": 13
                                                            }
                                                        ],
                                                        "depth": 4,
                                                        "id": 11,
                                                        "order": 11
                                                    }
                                                ],
                                                "depth": 3,
                                                "id": 10,
                                                "order": 10
                                            }
                                        ],
                                        "depth": 2,
                                        "id": 9,
                                        "order": 9
                                    },
                                    {
                                        "children": [],
                                        "depth": 2,
                                        "id": 14,
                                        "order": 14
                                    }
                                ],
                                "depth": 1,
                                "id": 1,
                                "order": 1
                            }
                        ],
                        "depth": 0,
                        "id": 0,
                        "order": 0
                    }
                ],
                "depth": -1,
                "id": -1,
                "order": -1
            }
        ],
        "mainTraceNodeCount": 15,
        "parentIdMap": {
            "0": -1,
            "1": 0,
            "10": 9,
            "11": 10,
            "12": 11,
            "13": 11,
            "14": 1,
            "2": 1,
            "3": 1,
            "4": 1,
            "5": 1,
            "6": 1,
            "7": 1,
            "8": 1,
            "9": 1
        },
        "tidyTrace": [
            {
                "children": [
                    {
                        "children": [
                            {
                                "children": [
                                    {
                                        "children": [],
                                        "depth": 2,
                                        "id": 7,
                                        "order": 7
                                    },
                                    {
                                        "children": [],
                                        "depth": 2,
                                        "id": 8,
                                        "order": 8
                                    },
                                    {
                                        "children": [
                                            {
                                                "children": [
                                                    {
                                                        "children": [
                                                            {
                                                                "children": [],
                                                                "depth": 5,
                                                                "id": 12,
                                                                "order": 12
                                                            },
                                                            {
                                                                "children": [],
                                                                "depth": 5,
                                                                "id": 13,
                                                                "order": 13
                                                            }
                                                        ],
                                                        "depth": 4,
                                                        "id": 11,
                                                        "order": 11
                                                    }
                                                ],
                                                "depth": 3,
                                                "id": 10,
                                                "order": 10
                                            }
                                        ],
                                        "depth": 2,
                                        "id": 9,
                                        "order": 9
                                    },
                                    {
                                        "children": [],
                                        "depth": 2,
                                        "id": 14,
                                        "order": 14
                                    }
                                ],
                                "depth": 1,
                                "id": 1,
                                "order": 1
                            }
                        ],
                        "depth": 0,
                        "id": 0,
                        "order": 0
                    }
                ],
                "depth": -1,
                "id": -1,
                "order": -1
            }
        ],
        "tidyTraceNodeCount": 10
    },
    "state_change": {
        "stateChanges": [
            {
                "address": "0x000000000000ad05ccc4f10045630fb830b95127",
                "erc": "",
                "slots": [
                    {
                        "current": "0x0000000000000000000000000000000000000000000000000000000000000001",
                        "key": "0x8f67fc5c502a94cf430e05b8d6abbbf63931866902ffb64b58c3b8abe064a17e",
                        "prev": "0x0000000000000000000000000000000000000000000000000000000000000000"
                    },
                    {
                        "current": "0x0000000000000000000000000000000000000000000000000000000000000001",
                        "key": "0x81e67b8a01252eb6922c144fb3adc9f13e97507a5440b90a0b17fc07401a3d58",
                        "prev": "0x0000000000000000000000000000000000000000000000000000000000000000"
                    }
                ],
                "storageVariables": [
                    {
                        "name": "cancelledOrFilled",
                        "type": "mapping(bytes32 => bool)",
                        "value": {
                            "pairs": [
                                {
                                    "key": "0x670abac996a76e6d22d5f26080c3c5f50dc28e2e82f688b717b193b278f5d4fa",
                                    "value": {
                                        "current": "true",
                                        "prev": "false",
                                        "typeTag": 1
                                    }
                                },
                                {
                                    "key": "0xf62788a0ab337a19027240e2f311cc3ab1ce6f3c683ce56d127c278fa32cce73",
                                    "value": {
                                        "current": "true",
                                        "prev": "false",
                                        "typeTag": 1
                                    }
                                }
                            ],
                            "typeTag": 4
                        }
                    }
                ]
            },
            {
                "address": "0x394e3d3044fc89fcdd966d3cb35ac0b32b0cda91",
                "erc": "ERC-721",
                "slots": [
                    {
                        "current": "0x0000000000000000000000000000000000000000000000000000000000000009",
                        "key": "0xc710a2413780356838d46c908f378834544026c697d6de2bc9bf0624fdf50724",
                        "prev": "0x0000000000000000000000000000000000000000000000000000000000000008"
                    },
                    {
                        "current": "0x000000000000000000000000828cebb8cc44cb9047f0f057f9603c7348553d84",
                        "key": "0x4bb7940f2d186219c06d6b3de20c9e1554de3df18c2045e2b3dc88c670633d52",
                        "prev": "0x000000000000000000000000fa02be029e544b2b0c32fc0a6628d74851217395"
                    },
                    {
                        "current": "0x0000000000000000000000000000000000000000000000000000000000000001",
                        "key": "0xab61999e24537c2511160fdc11fd4eced921da7dfca16273479e8f42d7df8fa4",
                        "prev": "0x0000000000000000000000000000000000000000000000000000000000000002"
                    }
                ],
                "storageVariables": [
                    {
                        "name": "_owners",
                        "type": "mapping(uint256 => address)",
                        "value": {
                            "pairs": [
                                {
                                    "key": "6556",
                                    "value": {
                                        "current": "0x828cebb8cc44cb9047f0f057f9603c7348553d84",
                                        "prev": "0xfa02be029e544b2b0c32fc0a6628d74851217395",
                                        "typeTag": 1
                                    }
                                }
                            ],
                            "typeTag": 4
                        }
                    },
                    {
                        "name": "_balances",
                        "type": "mapping(address => uint256)",
                        "value": {
                            "pairs": [
                                {
                                    "key": "0x828cebb8cc44cb9047f0f057f9603c7348553d84",
                                    "value": {
                                        "current": "9",
                                        "prev": "8",
                                        "typeTag": 1
                                    }
                                },
                                {
                                    "key": "0xfa02be029e544b2b0c32fc0a6628d74851217395",
                                    "value": {
                                        "current": "1",
                                        "prev": "2",
                                        "typeTag": 1
                                    }
                                }
                            ],
                            "typeTag": 4
                        }
                    }
                ]
            }
        ]
    }
}