{
    "balance_change": {
        "balanceChanges": [
            {
                "account": "0x98a1d7093ddb09cb143920f3f56156ea309d2f02",
                "assets": [
                    {
                        "address": "0x7bcec0ef877533ab557add0db19f833fdc18181c",
                        "amount": "1,470",
                        "iconUrl": "",
                        "isERC1155": false,
                        "isERC721": false,
                        "sign": false,
                        "value": ""
                    }
                ]
            },
            {
                "account": "0x843671f88cec86f560f360f67c94fe6a20d44d99",
                "assets": [
                    {
                        "address": "0x7bcec0ef877533ab557add0db19f833fdc18181c",
                        "amount": "1,470",
                        "iconUrl": "",
                        "isERC1155": false,
                        "isERC721": false,
                        "sign": true,
                        "value": ""
                    }
                ]
            }
        ]
    },
    "profile": {
        "basic_info": {
            "baseFee": "",
            "blockNumber": 5814910,
            "callData": "0xa9059cbb000000000000000000000000843671f88cec86f560f360f67c94fe6a20d44d990000000000000000000000000000000000000000000000000000002239e1fe00",
            "debugEnable": true,
            "errorInfo": "",
            "eventCount": 1,
            "feeRecipient": "0xb2930b35844a230f00e51431acae96fe543a0347",
            "formatValue": "0",
            "gasLimit": 100000,
            "gasPrice": "20",
            "gasUsed": 61592,
            "intTxnCount": 0,
            "internalRevert": false,
            "internalRevertMessage": "",
            "isContractCreation": false,
            "isFlashloan": false,
            "maxFee": "",
            "nonce": 256,
            "overwritedBlockNumber": -1,
            "priorityFee": "",
            "receiver": "0x7bcec0ef877533ab557add0db19f833fdc18181c",
            "revertMessage": "",
            "sender": "0x98a1d7093ddb09cb143920f3f56156ea309d2f02",
            "simulationEnable": true,
            "sourceTxnHash": "0x0b030e037654197cc97356e417cf9ae2f5019ebc212546fa69e7bd55429a47e5",
            "status": true,
            "timestamp": "2018-06-19T04:56:00Z",
            "transactionFee": "0.00123184",
            "txnHash": "0x0b030e037654197cc97356e417cf9ae2f5019ebc212546fa69e7bd55429a47e5",
            "txnIndex": 39,
            "type": 0,
            "value": "0"
        },
        "fund_flow": [
            {
                "amount": "1,470",
                "from": "0x98a1d7093ddb09cb143920f3f56156ea309d2f02",
                "id": 1,
                "isERC1155": false,
                "isERC721": false,
                "isReverted": false,
                "order": 1,
                "to": "0x843671f88cec86f560f360f67c94fe6a20d44d99",
                "token": "0x7bcec0ef877533ab557add0db19f833fdc18181c"
            }
        ],
        "token_infos": [
            {
                "address": "0x7bcec0ef877533ab557add0db19f833fdc18181c",
                "decimals": 8
            },
            {
                "address": "0xc02aaa39b223fe8d0a0e5c4f27ead9083c756cc2",
                "decimals": 18
            },
            {
                "address": "0xeeeeeeeeeeeeeeeeeeeeeeeeeeeeeeeeeeeeeeee",
                "decimals": 18
            }
        ]
    },
    "address_label": {
        "labels": [
            {
                "address": "0x0000000000000000000000000000000000000003",
                "label": "Precompiled"
            },
            {
                "address": "0x0000000000000000000000000000000000000004",
                "label": "Precompiled"
            },
            {
                "address": "0xeeeeeeeeeeeeeeeeeeeeeeeeeeeeeeeeeeeeeeee",
                "label": "Ether"
            },
            {
                "address": "0x7bcec0ef877533ab557add0db19f833fdc18181c",
                "label": "XingYunChain Coin (XYCC)"
            },
            {
                "address": "0x0000000000000000000000000000000000000001",
                "label": "Precompiled"
            },
            {
                "address": "0x0000000000000000000000000000000000000002",
                "label": "Precompiled"
            }
        ]
    },
    "trace": {
        "accountLabels": null,
        "dataMap": {
            "-1": {
                "invocation": {
                    "address": "0x98a1d7093ddb09cb143920f3f56156ea309d2f02",
                    "callData": "",
                    "decodedMethod": null,
                    "errorInfo": "",
                    "fromAddress": "",
                    "gasUsed": 0,
                    "id": -1,
                    "methodDecoded": false,
                    "operation": "",
                    "output": "",
                    "revert": false,
                    "revertMessage": "",
                    "selector": "",
                    "status": false,
                    "value": ""
                },
                "nodeType": 0
            },
            "0": {
                "invocation": {
                    "address": "0x7bcec0ef877533ab557add0db19f833fdc18181c",
                    "callData": "0x000000000000000000000000843671f88cec86f560f360f67c94fe6a20d44d990000000000000000000000000000000000000000000000000000002239e1fe00",
                    "decodedMethod": {
                        "callParams": [
                            {
                                "name": "_to",
                                "type": "address",
                                "value": "0x843671f88cec86f560f360f67c94fe6a20d44d99"
                            },
                            {
                                "decimalAvailable": true,
                                "name": "_value",
                                "type": "uint256",
                                "value": "147,000,000,000"
                            }
                        ],
                        "constructorArguments": "",
                        "name": "transfer",
                        "returnParams": [
                            {
                                "name": "",
                                "type": "bool",
                                "value": true
                            }
                        ],
                        "signature": "transfer(address,uint256)"
                    },
                    "errorInfo": "",
                    "fromAddress": "0x98a1d7093ddb09cb143920f3f56156ea309d2f02",
                    "gasUsed": 61592,
                    "id": 0,
                    "methodDecoded": true,
                    "operation": "CALL",
                    "output": "0x0000000000000000000000000000000000000000000000000000000000000001",
                    "revert": false,
                    "revertMessage": "",
                    "selector": "0xa9059cbb",
                    "status": true,
                    "value": "0"
                },
                "nodeType": 0
            },
            "1": {
                "event": {
                    "contract": "0x7bcec0ef877533ab557add0db19f833fdc18181c",
                    "decodedLog": {
                        "name": "Transfer",
                        "params": [
                            {
                                "name": "from",
                                "type": "address",
                                "value": "0x98a1d7093ddb09cb143920f3f56156ea309d2f02"
                            },
                            {
                                "name": "to",
                                "type": "address",
                                "value": "0x843671f88cec86f560f360f67c94fe6a20d44d99"
                            },
                            {
                                "decimalAvailable": true,
                                "name": "value",
                                "type": "uint256",
                                "value": "147,000,000,000"
                            }
                        ],
                        "signature": "Transfer(address,address,uint256)"
                    },
                    "id": 1,
                    "logData": "0x0000000000000000000000000000000000000000000000000000002239e1fe00",
                    "logDecoded": true,
                    "operation": "EVENT",
                    "revert": false,
                    "status": true,
                    "topics": [
                        "0xddf252ad1be2c89b69c2b068fc378daa952ba7f163c4a11628f55a4df523b3ef",
                        "0x00000000000000000000000098a1d7093ddb09cb143920f3f56156ea309d2f02",
                        "0x000000000000000000000000843671f88cec86f560f360f67c94fe6a20d44d99"
                    ]
                },
                "nodeType": 1
            }
        },
        "gasFlame": [
            {
                "children": [
                    {
                        "children": [
                            {
                                "children": [],
                                "depth": 0,
                                "name": "Initial Gas",
                                "value": 23064
                            },
                            {
                                "children": [],
                                "depth": 0,
                                "name": "Executed Gas",
                                "value": 38528
                            }
                        ],
                        "depth": -1,
                        "name": "Actual Gas Used",
                        "value": 61592
                    },
                    {
                        "children": [],
                        "depth": -1,
                        "name": "Refunded Gas",
                        "value": 0
                    }
                ],
                "depth": -2,
                "name": "Total Gas",
                "value": 61592
            }
        ],
        "isConfirmed": true,
        "mainTrace": [
            {
                "children": [
                    {
                        "children": [
                            {
                                "children": [],
                                "depth": 1,
                                "id": 1,
                                "order": 1
                            }
                        ],
                        "depth": 0,
                        "id": 0,
                        "order": 0
                    }
                ],
                "depth": -1,
                "id": -1,
                "order": -1
            }
        ],
        "mainTraceNodeCount": 2,
        "parentIdMap": {
            "0": -1,
            "1": 0
        },
        "tidyTrace": [
            {
                "children": [
                    {
                        "children": [
                            {
                                "children": [],
                                "depth": 1,
                                "id": 1,
                                "order": 1
                            }
                        ],
                        "depth": 0,
                        "id": 0,
                        "order": 0
                    }
                ],
                "depth": -1,
                "id": -1,
                "order": -1
            }
        ],
        "tidyTraceNodeCount": 2
    },
    "state_change": {
        "stateChanges": [
            {
                "address": "0x7bcec0ef877533ab557add0db19f833fdc18181c",
                "erc": "",
                "slots": [
                    {
                        "current": "0x0000000000000000000000000000000000000000000000000000142bed74bd00",
                        "key": "0xe5ae5e17dd04287773167c0dc7ea911261fd9bb9334662016285d0f49cad4ee3",
                        "prev": "0x0000000000000000000000000000000000000000000000000000144e2756bb00"
                    },
                    {
                        "current": "0x0000000000000000000000000000000000000000000000000000002239e1fe00",
                        "key": "0x0d1dd41aad4707cb60f9db79bc8c996683fa77cfe240b927399880a40f75d694",
                        "prev": "0x0000000000000000000000000000000000000000000000000000000000000000"
                    }
                ],
                "storageVariables": [
                    {
                        "name": "balanceOf",
                        "type": "mapping(address => uint256)",
                        "value": {
                            "pairs": [
                                {
                                    "key": "0x843671f88cec86f560f360f67c94fe6a20d44d99",
                                    "value": {
                                        "current": "147000000000",
                                        "prev": "0",
                                        "typeTag": 1
                                    }
                                },
                                {
                                    "key": "0x98a1d7093ddb09cb143920f3f56156ea309d2f02",
                                    "value": {
                                        "current": "22178900000000",
                                        "prev": "22325900000000",
                                        "typeTag": 1
                                    }
                                }
                            ],
                            "typeTag": 4
                        }
                    }
                ]
            }
        ]
    }
}