{
    "balance_change": {
        "balanceChanges": [
            {
                "account": "0x21a31ee1afc51d94c2efccaa2092ad1028285549",
                "assets": [
                    {
                        "address": "0x15d4c048f83bd7e37d49ea4c83a07267ec4203da",
                        "amount": "88",
                        "iconUrl": "https://assets.blocksec.com/icon/36a0407134848a889ddcbd7e9a9dcf40573e21005c8f0c446c3b8b39307d4b8c.png",
                        "isERC1155": false,
                        "isERC721": false,
                        "sign": false,
                        "value": "3.8367999999999999883"
                    }
                ]
            },
            {
                "account": "0x695682615fa71be2dec77c0b428e71d6df445815",
                "assets": [
                    {
                        "address": "0x15d4c048f83bd7e37d49ea4c83a07267ec4203da",
                        "amount": "88",
                        "iconUrl": "https://assets.blocksec.com/icon/36a0407134848a889ddcbd7e9a9dcf40573e21005c8f0c446c3b8b39307d4b8c.png",
                        "isERC1155": false,
                        "isERC721": false,
                        "sign": true,
                        "value": "3.8367999999999999883"
                    }
                ]
            }
        ]
    },
    "profile": {
        "basic_info": {
            "baseFee": "30.768411359",
            "blockNumber": 16615628,
            "callData": "0xa9059cbb000000000000000000000000695682615fa71be2dec77c0b428e71d6df445815000000000000000000000000000000000000000000000000000000020c855800",
            "debugEnable": true,
            "errorInfo": "",
            "eventCount": 1,
            "feeRecipient": "0xdafea492d9c6733ae3d56b7ed1adb60692c98bc5",
            "formatValue": "0",
            "gasLimit": 207128,
            "gasPrice": "32.768411359",
            "gasUsed": 51920,
            "intTxnCount": 0,
            "internalRevert": false,
            "internalRevertMessage": "",
            "isContractCreation": false,
            "isFlashloan": false,
            "maxFee": "102",
            "nonce": 5609854,
            "overwritedBlockNumber": -1,
            "priorityFee": "2",
            "receiver": "0x15d4c048f83bd7e37d49ea4c83a07267ec4203da",
            "revertMessage": "",
            "sender": "0x21a31ee1afc51d94c2efccaa2092ad1028285549",
            "simulationEnable": true,
            "sourceTxnHash": "0x0b62e3f1d1883853a60de281d573643787ae6208ffb9af641aa3b65a9fecd381",
            "status": true,
            "timestamp": "2023-02-12T22:21:59Z",
            "transactionFee": "0.00170133591775928",
            "txnHash": "0x0b62e3f1d1883853a60de281d573643787ae6208ffb9af641aa3b65a9fecd381",
            "txnIndex": 38,
            "type": 2,
            "value": "0"
        },
        "fund_flow": [
            {
                "amount": "88",
                "from": "0x21a31ee1afc51d94c2efccaa2092ad1028285549",
                "id": 1,
                "isERC1155": false,
                "isERC721": false,
                "isReverted": false,
                "order": 1,
                "to": "0x695682615fa71be2dec77c0b428e71d6df445815",
                "token": "0x15d4c048f83bd7e37d49ea4c83a07267ec4203da"
            }
        ],
        "token_infos": [
            {
                "address": "0x15d4c048f83bd7e37d49ea4c83a07267ec4203da",
                "decimals": 8
            },
            {
                "address": "0xc02aaa39b223fe8d0a0e5c4f27ead9083c756cc2",
                "decimals": 18
            },
            {
                "address": "0xeeeeeeeeeeeeeeeeeeeeeeeeeeeeeeeeeeeeeeee",
                "decimals": 18
            }
        ]
    },
    "address_label": {
        "labels": [
            {
                "address": "0x15d4c048f83bd7e37d49ea4c83a07267ec4203da",
                "label": "GALA: Old GALA Token"
            },
            {
                "address": "0x21a31ee1afc51d94c2efccaa2092ad1028285549",
                "label": "Binance 15"
            },
            {
                "address": "0x0000000000000000000000000000000000000001",
                "label": "Precompiled"
            },
            {
                "address": "0x0000000000000000000000000000000000000002",
                "label": "Precompiled"
            },
            {
                "address": "0x0000000000000000000000000000000000000003",
                "label": "Precompiled"
            },
            {
                "address": "0x0000000000000000000000000000000000000004",
                "label": "Precompiled"
            },
            {
                "address": "0xeeeeeeeeeeeeeeeeeeeeeeeeeeeeeeeeeeeeeeee",
                "label": "Ether"
            }
        ]
    },
    "trace": {
        "accountLabels": null,
        "dataMap": {
            "-1": {
                "invocation": {
                    "address": "0x21a31ee1afc51d94c2efccaa2092ad1028285549",
                    "callData": "",
                    "decodedMethod": null,
                    "errorInfo": "",
                    "fromAddress": "",
                    "gasUsed": 0,
                    "id": -1,
                    "methodDecoded": false,
                    "operation": "",
                    "output": "",
                    "revert": false,
                    "revertMessage": "",
                    "selector": "",
                    "status": false,
                    "value": ""
                },
                "nodeType": 0
            },
            "0": {
                "invocation": {
                    "address": "0x15d4c048f83bd7e37d49ea4c83a07267ec4203da",
                    "callData": "0x000000000000000000000000695682615fa71be2dec77c0b428e71d6df445815000000000000000000000000000000000000000000000000000000020c855800",
                    "decodedMethod": {
                        "callParams": [
                            {
                                "name": "recipient",
                                "type": "address",
                                "value": "0x695682615fa71be2dec77c0b428e71d6df445815"
                            },
                            {
                                "decimalAvailable": true,
                                "name": "amount",
                                "type": "uint256",
                                "value": "8,800,000,000"
                            }
                        ],
                        "constructorArguments": "",
                        "name": "transfer",
                        "returnParams": [
                            {
                                "name": "",
                                "type": "bool",
                                "value": true
                            }
                        ],
                        "signature": "transfer(address,uint256)"
                    },
                    "errorInfo": "",
                    "fromAddress": "0x21a31ee1afc51d94c2efccaa2092ad1028285549",
                    "gasUsed": 51920,
                    "id": 0,
                    "methodDecoded": true,
                    "operation": "CALL",
                    "output": "0x0000000000000000000000000000000000000000000000000000000000000001",
                    "revert": false,
                    "revertMessage": "",
                    "selector": "0xa9059cbb",
                    "status": true,
                    "value": "0"
                },
                "nodeType": 0
            },
            "1": {
                "event": {
                    "contract": "0x15d4c048f83bd7e37d49ea4c83a07267ec4203da",
                    "decodedLog": {
                        "name": "Transfer",
                        "params": [
                            {
                                "name": "from",
                                "type": "address",
                                "value": "0x21a31ee1afc51d94c2efccaa2092ad1028285549"
                            },
                            {
                                "name": "to",
                                "type": "address",
                                "value": "0x695682615fa71be2dec77c0b428e71d6df445815"
                            },
                            {
                                "decimalAvailable": true,
                                "name": "value",
                                "type": "uint256",
                                "value": "8,800,000,000"
                            }
                        ],
                        "signature": "Transfer(address,address,uint256)"
                    },
                    "id": 1,
                    "logData": "0x000000000000000000000000000000000000000000000000000000020c855800",
                    "logDecoded": true,
                    "operation": "EVENT",
                    "revert": false,
                    "status": true,
                    "topics": [
                        "0xddf252ad1be2c89b69c2b068fc378daa952ba7f163c4a11628f55a4df523b3ef",
                        "0x00000000000000000000000021a31ee1afc51d94c2efccaa2092ad1028285549",
                        "0x000000000000000000000000695682615fa71be2dec77c0b428e71d6df445815"
                    ]
                },
                "nodeType": 1
            }
        },
        "gasFlame": [
            {
                "children": [
                    {
                        "children": [
                            {
                                "children": [],
                                "depth": 0,
                                "name": "Initial Gas",
                                "value": 21608
                            },
                            {
                                "children": [],
                                "depth": 0,
                                "name": "Executed Gas",
                                "value": 30312
                            }
                        ],
                        "depth": -1,
                        "name": "Actual Gas Used",
                        "value": 51920
                    },
                    {
                        "children": [],
                        "depth": -1,
                        "name": "Refunded Gas",
                        "value": 0
                    }
                ],
                "depth": -2,
                "name": "Total Gas",
                "value": 51920
            }
        ],
        "isConfirmed": true,
        "mainTrace": [
            {
                "children": [
                    {
                        "children": [
                            {
                                "children": [],
                                "depth": 1,
                                "id": 1,
                                "order": 1
                            }
                        ],
                        "depth": 0,
                        "id": 0,
                        "order": 0
                    }
                ],
                "depth": -1,
                "id": -1,
                "order": -1
            }
        ],
        "mainTraceNodeCount": 2,
        "parentIdMap": {
            "0": -1,
            "1": 0
        },
        "tidyTrace": [
            {
                "children": [
                    {
                        "children": [
                            {
                                "children": [],
                                "depth": 1,
                                "id": 1,
                                "order": 1
                            }
                        ],
                        "depth": 0,
                        "id": 0,
                        "order": 0
                    }
                ],
                "depth": -1,
                "id": -1,
                "order": -1
            }
        ],
        "tidyTraceNodeCount": 2
    },
    "state_change": {
        "stateChanges": [
            {
                "address": "0x15d4c048f83bd7e37d49ea4c83a07267ec4203da",
                "erc": "ERC-20",
                "slots": [
                    {
                        "current": "0x000000000000000000000000000000000000000000000000000000020c855800",
                        "key": "0x3b3056c15e3e5979fa31f0c7d87b882f24618401928d40ef0209582c48bc6c30",
                        "prev": "0x0000000000000000000000000000000000000000000000000000000000000000"
                    },
                    {
                        "current": "0x000000000000000000000000000000000000000000000000000eeaaa6efdb279",
                        "key": "0x9319194a372d6da00e43ed5f7027e57f755d1a31b34a5351314b4fa3f025c34c",
                        "prev": "0x000000000000000000000000000000000000000000000000000eeaac7b830a79"
                    }
                ],
                "storageVariables": [
                    {
                        "name": "_balances",
                        "type": "mapping(address => uint256)",
                        "value": {
                            "pairs": [
                                {
                                    "key": "0x21a31ee1afc51d94c2efccaa2092ad1028285549",
                                    "value": {
                                        "current": "4198667401409145",
                                        "prev": "4198676201409145",
                                        "typeTag": 1
                                    }
                                },
                                {
                                    "key": "0x695682615fa71be2dec77c0b428e71d6df445815",
                                    "value": {
                                        "current": "8800000000",
                                        "prev": "0",
                                        "typeTag": 1
                                    }
                                }
                            ],
                            "typeTag": 4
                        }
                    }
                ]
            }
        ]
    }
}