{
    "balance_change": {
        "balanceChanges": [
            {
                "account": "0x0000000000000000000000000000000000000000",
                "assets": [
                    {
                        "address": "0x2a46f2ffd99e19a89476e2f62270e0a35bbf0756",
                        "amount": "74,954",
                        "iconUrl": "",
                        "isERC1155": false,
                        "isERC721": false,
                        "sign": false,
                        "value": ""
                    }
                ]
            },
            {
                "account": "0x08c9a557f91af933a3ab1a4d13d6b5331e2cc030",
                "assets": [
                    {
                        "address": "0x2a46f2ffd99e19a89476e2f62270e0a35bbf0756",
                        "amount": "74,954",
                        "iconUrl": "",
                        "isERC1155": false,
                        "isERC721": false,
                        "sign": true,
                        "value": ""
                    }
                ]
            }
        ]
    },
    "profile": {
        "basic_info": {
            "baseFee": "52.540967102",
            "blockNumber": 13453752,
            "callData": "0xb36f0faa00000000000000000000000008c9a557f91af933a3ab1a4d13d6b5331e2cc030000000000000000000000000000000000000000000000000000000000000622c0000000000000000000000000000000000000000000000000000000000000001",
            "debugEnable": true,
            "errorInfo": "",
            "eventCount": 4,
            "feeRecipient": "0x7f101fe45e6649a6fb8f3f8b43ed03d353f2b90c",
            "formatValue": "0",
            "gasLimit": 514776,
            "gasPrice": "53.616802778",
            "gasUsed": 343184,
            "intTxnCount": 2,
            "internalRevert": false,
            "internalRevertMessage": "",
            "isContractCreation": false,
            "isFlashloan": false,
            "maxFee": "54",
            "nonce": 26725,
            "overwritedBlockNumber": -1,
            "priorityFee": "1.075835676",
            "receiver": "0x2a46f2ffd99e19a89476e2f62270e0a35bbf0756",
            "revertMessage": "",
            "sender": "0x981f0bd6909901caeafc49177c229ae091bbd492",
            "simulationEnable": true,
            "sourceTxnHash": "0x0b07ce74ab906f30983526957068c246d313ec422e5bdd20e4de7f662b69f642",
            "status": true,
            "timestamp": "2021-10-20T09:13:34Z",
            "transactionFee": "0.018400428844565152",
            "txnHash": "0x0b07ce74ab906f30983526957068c246d313ec422e5bdd20e4de7f662b69f642",
            "txnIndex": 23,
            "type": 2,
            "value": "0"
        },
        "fund_flow": [
            {
                "amount": "74,954",
                "from": "0x0000000000000000000000000000000000000000",
                "id": 1,
                "isERC1155": false,
                "isERC721": false,
                "isReverted": false,
                "order": 1,
                "to": "0x08c9a557f91af933a3ab1a4d13d6b5331e2cc030",
                "token": "0x2a46f2ffd99e19a89476e2f62270e0a35bbf0756"
            }
        ],
        "token_infos": [
            {
                "address": "0x2a46f2ffd99e19a89476e2f62270e0a35bbf0756",
                "decimals": -1
            },
            {
                "address": "0xc02aaa39b223fe8d0a0e5c4f27ead9083c756cc2",
                "decimals": 18
            },
            {
                "address": "0xeeeeeeeeeeeeeeeeeeeeeeeeeeeeeeeeeeeeeeee",
                "decimals": 18
            }
        ]
    },
    "address_label": {
        "labels": [
            {
                "address": "0x0000000000000000000000000000000000000002",
                "label": "Precompiled"
            },
            {
                "address": "0x0000000000000000000000000000000000000003",
                "label": "Precompiled"
            },
            {
                "address": "0x0000000000000000000000000000000000000004",
                "label": "Precompiled"
            },
            {
                "address": "0xeeeeeeeeeeeeeeeeeeeeeeeeeeeeeeeeeeeeeeee",
                "label": "Ether"
            },
            {
                "address": "0x2a46f2ffd99e19a89476e2f62270e0a35bbf0756",
                "label": "MakersPlace: MKT2 Token"
            },
            {
                "address": "0x0000000000000000000000000000000000000001",
                "label": "Precompiled"
            }
        ]
    },
    "trace": {
        "accountLabels": null,
        "dataMap": {
            "-1": {
                "invocation": {
                    "address": "0x981f0bd6909901caeafc49177c229ae091bbd492",
                    "callData": "",
                    "decodedMethod": null,
                    "errorInfo": "",
                    "fromAddress": "",
                    "gasUsed": 0,
                    "id": -1,
                    "methodDecoded": false,
                    "operation": "",
                    "output": "",
                    "revert": false,
                    "revertMessage": "",
                    "selector": "",
                    "status": false,
                    "value": ""
                },
                "nodeType": 0
            },
            "0": {
                "invocation": {
                    "address": "0x2a46f2ffd99e19a89476e2f62270e0a35bbf0756",
                    "callData": "0x00000000000000000000000008c9a557f91af933a3ab1a4d13d6b5331e2cc030000000000000000000000000000000000000000000000000000000000000622c0000000000000000000000000000000000000000000000000000000000000001",
                    "decodedMethod": {
                        "callParams": [
                            {
                                "name": "_owner",
                                "type": "address",
                                "value": "0x08c9a557f91af933a3ab1a4d13d6b5331e2cc030"
                            },
                            {
                                "name": "_digitalMediaId",
                                "type": "uint256",
                                "value": "25,132"
                            },
                            {
                                "name": "_numReleases",
                                "type": "uint32",
                                "value": "1"
                            }
                        ],
                        "constructorArguments": "",
                        "name": "oboCreateDigitalMediaReleases",
                        "returnParams": [],
                        "signature": "oboCreateDigitalMediaReleases(address,uint256,uint32)"
                    },
                    "errorInfo": "",
                    "fromAddress": "0x981f0bd6909901caeafc49177c229ae091bbd492",
                    "gasUsed": 343184,
                    "id": 0,
                    "methodDecoded": true,
                    "operation": "CALL",
                    "output": "",
                    "revert": false,
                    "revertMessage": "",
                    "selector": "0xb36f0faa",
                    "status": true,
                    "value": "0"
                },
                "nodeType": 0
            },
            "1": {
                "invocation": {
                    "address": "0xe75479ba035175a251179919080bc7bd4e700f6e",
                    "callData": "0x000000000000000000000000000000000000000000000000000000000000622c",
                    "decodedMethod": {
                        "callParams": [
                            {
                                "name": "_id",
                                "type": "uint256",
                                "value": "25,132"
                            }
                        ],
                        "constructorArguments": "",
                        "name": "getDigitalMedia",
                        "returnParams": [
                            {
                                "name": "id",
                                "type": "uint256",
                                "value": "25,132"
                            },
                            {
                                "name": "totalSupply",
                                "type": "uint32",
                                "value": "3"
                            },
                            {
                                "name": "printIndex",
                                "type": "uint32",
                                "value": "2"
                            },
                            {
                                "name": "collectionId",
                                "type": "uint256",
                                "value": "0"
                            },
                            {
                                "name": "creator",
                                "type": "address",
                                "value": "0x08c9a557f91af933a3ab1a4d13d6b5331e2cc030"
                            },
                            {
                                "name": "metadataPath",
                                "type": "string",
                                "value": "QmRgCRDbBHw2mgfhHf4PzX4sizaGW4WMN4vyubYaBeyjhr"
                            }
                        ],
                        "signature": "getDigitalMedia(uint256)"
                    },
                    "errorInfo": "",
                    "fromAddress": "0x2a46f2ffd99e19a89476e2f62270e0a35bbf0756",
                    "gasUsed": 14285,
                    "id": 1,
                    "methodDecoded": true,
                    "operation": "CALL",
                    "output": "0x000000000000000000000000000000000000000000000000000000000000622c00000000000000000000000000000000000000000000000000000000000000030000000000000000000000000000000000000000000000000000000000000002000000000000000000000000000000000000000000000000000000000000000000000000000000000000000008c9a557f91af933a3ab1a4d13d6b5331e2cc03000000000000000000000000000000000000000000000000000000000000000c0000000000000000000000000000000000000000000000000000000000000002e516d526743524462424877326d676668486634507a583473697a61475734574d4e347679756259614265796a6872000000000000000000000000000000000000",
                    "revert": false,
                    "revertMessage": "",
                    "selector": "0x55df4275",
                    "status": true,
                    "value": "0"
                },
                "nodeType": 0
            },
            "2": {
                "event": {
                    "contract": "0x2a46f2ffd99e19a89476e2f62270e0a35bbf0756",
                    "decodedLog": {
                        "name": "DigitalMediaReleaseCreateEvent",
                        "params": [
                            {
                                "name": "id",
                                "type": "uint256",
                                "value": "74,954"
                            },
                            {
                                "name": "owner",
                                "type": "address",
                                "value": "0x08c9a557f91af933a3ab1a4d13d6b5331e2cc030"
                            },
                            {
                                "name": "printEdition",
                                "type": "uint32",
                                "value": "3"
                            },
                            {
                                "name": "tokenURI",
                                "type": "string",
                                "value": "ipfs://ipfs/QmRgCRDbBHw2mgfhHf4PzX4sizaGW4WMN4vyubYaBeyjhr"
                            },
                            {
                                "name": "digitalMediaId",
                                "type": "uint256",
                                "value": "25,132"
                            }
                        ],
                        "signature": "DigitalMediaReleaseCreateEvent(uint256,address,uint32,string,uint256)"
                    },
                    "id": 2,
                    "logData": "0x00000000000000000000000000000000000000000000000000000000000124ca00000000000000000000000008c9a557f91af933a3ab1a4d13d6b5331e2cc030000000000000000000000000000000000000000000000000000000000000000300000000000000000000000000000000000000000000000000000000000000a0000000000000000000000000000000000000000000000000000000000000622c000000000000000000000000000000000000000000000000000000000000003a697066733a2f2f697066732f516d526743524462424877326d676668486634507a583473697a61475734574d4e347679756259614265796a6872000000000000",
                    "logDecoded": true,
                    "operation": "EVENT",
                    "revert": false,
                    "status": true,
                    "topics": [
                        "0x775f53e4c75ce0c74e611f7f0bb660e4cd647e0522ef0f8aefd4ecef373c5df9"
                    ]
                },
                "nodeType": 1
            },
            "3": {
                "event": {
                    "contract": "0x2a46f2ffd99e19a89476e2f62270e0a35bbf0756",
                    "decodedLog": {
                        "name": "Transfer",
                        "params": [
                            {
                                "name": "_from",
                                "type": "address",
                                "value": "0x0000000000000000000000000000000000000000"
                            },
                            {
                                "name": "_to",
                                "type": "address",
                                "value": "0x08c9a557f91af933a3ab1a4d13d6b5331e2cc030"
                            },
                            {
                                "decimalAvailable": true,
                                "name": "_tokenId",
                                "type": "uint256",
                                "value": "74,954"
                            }
                        ],
                        "signature": "Transfer(address,address,uint256)"
                    },
                    "id": 3,
                    "logData": "0x00000000000000000000000000000000000000000000000000000000000124ca",
                    "logDecoded": true,
                    "operation": "EVENT",
                    "revert": false,
                    "status": true,
                    "topics": [
                        "0xddf252ad1be2c89b69c2b068fc378daa952ba7f163c4a11628f55a4df523b3ef",
                        "0x0000000000000000000000000000000000000000000000000000000000000000",
                        "0x00000000000000000000000008c9a557f91af933a3ab1a4d13d6b5331e2cc030"
                    ]
                },
                "nodeType": 1
            },
            "4": {
                "invocation": {
                    "address": "0xe75479ba035175a251179919080bc7bd4e700f6e",
                    "callData": "0x000000000000000000000000000000000000000000000000000000000000622c0000000000000000000000000000000000000000000000000000000000000001",
                    "decodedMethod": null,
                    "errorInfo": "",
                    "fromAddress": "0x2a46f2ffd99e19a89476e2f62270e0a35bbf0756",
                    "gasUsed": 9647,
                    "id": 4,
                    "methodDecoded": false,
                    "operation": "CALL",
                    "output": "",
                    "revert": false,
                    "revertMessage": "",
                    "selector": "0x5160a124",
                    "status": true,
                    "value": "0"
                },
                "nodeType": 0
            },
            "5": {
                "event": {
                    "contract": "0xe75479ba035175a251179919080bc7bd4e700f6e",
                    "decodedLog": null,
                    "id": 5,
                    "logData": "0x000000000000000000000000000000000000000000000000000000000000622c00000000000000000000000000000000000000000000000000000000000000010000000000000000000000000000000000000000000000000000000000000003",
                    "logDecoded": false,
                    "operation": "EVENT",
                    "revert": false,
                    "status": true,
                    "topics": [
                        "0x08fb6303c7942b2baca38cbf946761ca7f3710708a8847fff35b78d1bfb16a4c"
                    ]
                },
                "nodeType": 1
            },
            "6": {
                "event": {
                    "contract": "0x2a46f2ffd99e19a89476e2f62270e0a35bbf0756",
                    "decodedLog": {
                        "name": "UpdateDigitalMediaPrintIndexEvent",
                        "params": [
                            {
                                "name": "digitalMediaId",
                                "type": "uint256",
                                "value": "25,132"
                            },
                            {
                                "name": "printEdition",
                                "type": "uint32",
                                "value": "3"
                            }
                        ],
                        "signature": "UpdateDigitalMediaPrintIndexEvent(uint256,uint32)"
                    },
                    "id": 6,
                    "logData": "0x000000000000000000000000000000000000000000000000000000000000622c0000000000000000000000000000000000000000000000000000000000000003",
                    "logDecoded": true,
                    "operation": "EVENT",
                    "revert": false,
                    "status": true,
                    "topics": [
                        "0x12d99f5e49ef761c52953e4f9a109827fc3540292ba88c10d309fef470685259"
                    ]
                },
                "nodeType": 1
            }
        },
        "gasFlame": [
            {
                "children": [
                    {
                        "children": [
                            {
                                "children": [],
                                "depth": 0,
                                "name": "Initial Gas",
                                "value": 21724
                            },
                            {
                                "children": [
                                    {
                                        "children": [],
                                        "depth": 1,
                                        "name": "getDigitalMedia",
                                        "value": 14285
                                    },
                                    {
                                        "children": [],
                                        "depth": 1,
                                        "name": "0x5160a124",
                                        "value": 9647
                                    }
                                ],
                                "depth": 0,
                                "name": "Executed Gas",
                                "value": 321460
                            }
                        ],
                        "depth": -1,
                        "name": "Actual Gas Used",
                        "value": 343184
                    },
                    {
                        "children": [],
                        "depth": -1,
                        "name": "Refunded Gas",
                        "value": 0
                    }
                ],
                "depth": -2,
                "name": "Total Gas",
                "value": 343184
            }
        ],
        "isConfirmed": true,
        "mainTrace": [
            {
                "children": [
                    {
                        "children": [
                            {
                                "children": [],
                                "depth": 1,
                                "id": 1,
                                "order": 1
                            },
                            {
                                "children": [],
                                "depth": 1,
                                "id": 2,
                                "order": 2
                            },
                            {
                                "children": [],
                                "depth": 1,
                                "id": 3,
                                "order": 3
                            },
                            {
                                "children": [
                                    {
                                        "children": [],
                                        "depth": 2,
                                        "id": 5,
                                        "order": 5
                                    }
                                ],
                                "depth": 1,
                                "id": 4,
                                "order": 4
                            },
                            {
                                "children": [],
                                "depth": 1,
                                "id": 6,
                                "order": 6
                            }
                        ],
                        "depth": 0,
                        "id": 0,
                        "order": 0
                    }
                ],
                "depth": -1,
                "id": -1,
                "order": -1
            }
        ],
        "mainTraceNodeCount": 7,
        "parentIdMap": {
            "0": -1,
            "1": 0,
            "2": 0,
            "3": 0,
            "4": 0,
            "5": 4,
            "6": 0
        },
        "tidyTrace": [
            {
                "children": [
                    {
                        "children": [
                            {
                                "children": [],
                                "depth": 1,
                                "id": 1,
                                "order": 1
                            },
                            {
                                "children": [],
                                "depth": 1,
                                "id": 2,
                                "order": 2
                            },
                            {
                                "children": [],
                                "depth": 1,
                                "id": 3,
                                "order": 3
                            },
                            {
                                "children": [
                                    {
                                        "children": [],
                                        "depth": 2,
                                        "id": 5,
                                        "order": 5
                                    }
                                ],
                                "depth": 1,
                                "id": 4,
                                "order": 4
                            },
                            {
                                "children": [],
                                "depth": 1,
                                "id": 6,
                                "order": 6
                            }
                        ],
                        "depth": 0,
                        "id": 0,
                        "order": 0
                    }
                ],
                "depth": -1,
                "id": -1,
                "order": -1
            }
        ],
        "tidyTraceNodeCount": 7
    },
    "state_change": {
        "stateChanges": [
            {
                "address": "0x2a46f2ffd99e19a89476e2f62270e0a35bbf0756",
                "erc": "ERC-721",
                "slots": [
                    {
                        "current": "0x00000000000000000000000000000000000000000000000000000000000121d2",
                        "key": "0x28eb8f6e994b4cc583a1279735625b4cf5988a827b64678f49260ef4cac45a9a",
                        "prev": "0x0000000000000000000000000000000000000000000000000000000000000000"
                    },
                    {
                        "current": "0x0000000000000000000000000000000000000000000000000000000000000003",
                        "key": "0x088664cc423a71c1554e0b130207e9a64db5128c218a4ef692d6914787ce088f",
                        "prev": "0x0000000000000000000000000000000000000000000000000000000000000000"
                    },
                    {
                        "current": "0x697066733a2f2f697066732f516d526743524462424877326d67666848663450",
                        "key": "0x695958a53c7ff81aaaf5dea10d55d494cc892f59ab603cfe339ab49da5879ac6",
                        "prev": "0x0000000000000000000000000000000000000000000000000000000000000000"
                    },
                    {
                        "current": "0x00000000000000000000000000000000000000000000000000000000000124ca",
                        "key": "0x0000000000000000000000000000000000000000000000000000000000000013",
                        "prev": "0x00000000000000000000000000000000000000000000000000000000000124c9"
                    },
                    {
                        "current": "0x7a583473697a61475734574d4e347679756259614265796a6872000000000000",
                        "key": "0x695958a53c7ff81aaaf5dea10d55d494cc892f59ab603cfe339ab49da5879ac7",
                        "prev": "0x0000000000000000000000000000000000000000000000000000000000000000"
                    },
                    {
                        "current": "0x000000000000000000000000000000000000000000000000000000000000005e",
                        "key": "0xd755bfd0271035cc27a08d79793a7e4733ffe047df502a3036716ca8e03f6f46",
                        "prev": "0x0000000000000000000000000000000000000000000000000000000000000000"
                    },
                    {
                        "current": "0x00000000000000000000000008c9a557f91af933a3ab1a4d13d6b5331e2cc030",
                        "key": "0xb2e6382295b5c9cf1c97c1aca6f13785bc8a524e857cfbaa6d9305bd736e4d5c",
                        "prev": "0x0000000000000000000000000000000000000000000000000000000000000000"
                    },
                    {
                        "current": "0x000000000000000000000000000000000000000000000000000000000000005f",
                        "key": "0xbfffa0faabce7964eb486501ccd1cd130860b2f56b65df4f9748c1d60bb0713b",
                        "prev": "0x000000000000000000000000000000000000000000000000000000000000005e"
                    },
                    {
                        "current": "0x000000000000000000000000000000000000000000000000000000000000005f",
                        "key": "0xc5be03a7113166eb667ef1474cc53492778ac63a0f10711b044cf6b5c5b0533b",
                        "prev": "0x000000000000000000000000000000000000000000000000000000000000005e"
                    },
                    {
                        "current": "0x00000000000000000000000000000000000000000000000000000000000121d3",
                        "key": "0x000000000000000000000000000000000000000000000000000000000000000d",
                        "prev": "0x00000000000000000000000000000000000000000000000000000000000121d2"
                    },
                    {
                        "current": "0x000000000000000000000000000000000000000000000000000000000000622c",
                        "key": "0x088664cc423a71c1554e0b130207e9a64db5128c218a4ef692d6914787ce0890",
                        "prev": "0x0000000000000000000000000000000000000000000000000000000000000000"
                    },
                    {
                        "current": "0x00000000000000000000000000000000000000000000000000000000000124ca",
                        "key": "0xd7b6990105719101dabeb77144f2a3385c8033acd3af97e9423a695e81ae4087",
                        "prev": "0x0000000000000000000000000000000000000000000000000000000000000000"
                    },
                    {
                        "current": "0x00000000000000000000000000000000000000000000000000000000000124ca",
                        "key": "0x43c9d3341079bbf07e509c9dfa6a3a9fd946ce9f74bdc9e5a2ad2a692498b1f2",
                        "prev": "0x0000000000000000000000000000000000000000000000000000000000000000"
                    },
                    {
                        "current": "0x0000000000000000000000000000000000000000000000000000000000000075",
                        "key": "0x0d502e51e52930712061c5b34d3c44d180f4a51f55148fe1cfc1a25707ed72db",
                        "prev": "0x0000000000000000000000000000000000000000000000000000000000000000"
                    }
                ],
                "storageVariables": [
                    {
                        "name": "ownedTokensCount",
                        "type": "mapping(address => uint256)",
                        "value": {
                            "pairs": [
                                {
                                    "key": "0x08c9a557f91af933a3ab1a4d13d6b5331e2cc030",
                                    "value": {
                                        "current": "95",
                                        "prev": "94",
                                        "typeTag": 1
                                    }
                                }
                            ],
                            "typeTag": 4
                        }
                    },
                    {
                        "name": "tokenIdCounter",
                        "type": "uint256",
                        "value": {
                            "current": "74954",
                            "prev": "74953",
                            "typeTag": 1
                        }
                    },
                    {
                        "name": "ownedTokensIndex",
                        "type": "mapping(uint256 => uint256)",
                        "value": {
                            "pairs": [
                                {
                                    "key": "74954",
                                    "value": {
                                        "current": "94",
                                        "prev": "0",
                                        "typeTag": 1
                                    }
                                }
                            ],
                            "typeTag": 4
                        }
                    },
                    {
                        "name": "tokenIdToDigitalMediaRelease",
                        "type": "mapping(uint256 => struct DigitalMediaToken.DigitalMediaRelease)",
                        "value": {
                            "pairs": [
                                {
                                    "key": "74954",
                                    "value": {
                                        "fields": [
                                            {
                                                "name": "printEdition",
                                                "type": "uint32",
                                                "value": {
                                                    "current": "3",
                                                    "prev": "0",
                                                    "typeTag": 1
                                                }
                                            },
                                            {
                                                "name": "digitalMediaId",
                                                "type": "uint256",
                                                "value": {
                                                    "current": "25132",
                                                    "prev": "0",
                                                    "typeTag": 1
                                                }
                                            }
                                        ],
                                        "typeTag": 3
                                    }
                                }
                            ],
                            "typeTag": 4
                        }
                    },
                    {
                        "name": "ownedTokens",
                        "type": "mapping(address => uint256[])",
                        "value": {
                            "pairs": [
                                {
                                    "key": "0x08c9a557f91af933a3ab1a4d13d6b5331e2cc030",
                                    "value": {
                                        "elemType": "uint256",
                                        "elems": [
                                            {
                                                "index": 94,
                                                "value": {
                                                    "current": "74954",
                                                    "prev": "0",
                                                    "typeTag": 1
                                                }
                                            }
                                        ],
                                        "typeTag": 2
                                    }
                                }
                            ],
                            "typeTag": 4
                        }
                    },
                    {
                        "name": "allTokensIndex",
                        "type": "mapping(uint256 => uint256)",
                        "value": {
                            "pairs": [
                                {
                                    "key": "74954",
                                    "value": {
                                        "current": "74194",
                                        "prev": "0",
                                        "typeTag": 1
                                    }
                                }
                            ],
                            "typeTag": 4
                        }
                    },
                    {
                        "name": "tokenOwner",
                        "type": "mapping(uint256 => address)",
                        "value": {
                            "pairs": [
                                {
                                    "key": "74954",
                                    "value": {
                                        "current": "0x08c9a557f91af933a3ab1a4d13d6b5331e2cc030",
                                        "prev": "0x0000000000000000000000000000000000000000",
                                        "typeTag": 1
                                    }
                                }
                            ],
                            "typeTag": 4
                        }
                    },
                    {
                        "name": "allTokens",
                        "type": "uint256[]",
                        "value": {
                            "elemType": "uint256",
                            "elems": [
                                {
                                    "index": 74194,
                                    "value": {
                                        "current": "74954",
                                        "prev": "0",
                                        "typeTag": 1
                                    }
                                }
                            ],
                            "typeTag": 2
                        }
                    },
                    {
                        "name": "tokenURIs",
                        "type": "mapping(uint256 => string)",
                        "value": {
                            "pairs": [
                                {
                                    "key": "74954",
                                    "value": {
                                        "current": "ipfs://ipfs/QmRgCRDbBHw2mgfhHf4PzX4sizaGW4WMN4vyubYaBeyjhr",
                                        "prev": "",
                                        "typeTag": 1
                                    }
                                }
                            ],
                            "typeTag": 4
                        }
                    }
                ]
            },
            {
                "address": "0xe75479ba035175a251179919080bc7bd4e700f6e",
                "erc": "",
                "slots": [
                    {
                        "current": "0x0000000000000000000000000000000000000000000000000000000300000003",
                        "key": "0xdef2f0ffc6235c5db6bb602c68726f461011ec6aab641f6de8489c0188150780",
                        "prev": "0x0000000000000000000000000000000000000000000000000000000200000003"
                    }
                ],
                "storageVariables": []
            }
        ]
    }
}