{
    "balance_change": {
        "balanceChanges": [
            {
                "account": "0x1d877d49c66953840f3289387aff508f2ab49340",
                "assets": [
                    {
                        "address": "0xbb0e17ef65f82ab018d8edd776e8dd940327b28b",
                        "amount": "500.067507469784935127",
                        "iconUrl": "",
                        "isERC1155": false,
                        "isERC721": false,
                        "sign": false,
                        "value": ""
                    },
                    {
                        "address": "0xc36442b4a4522e871399cd717abdd847ab11fe88",
                        "amount": "1",
                        "iconUrl": "https://assets.blocksec.com/nft/icon/nft_177aab42-5a7d-408e-b4aa-3c9923a4066f.png",
                        "isERC1155": false,
                        "isERC721": true,
                        "sign": true,
                        "tokenID": "70970",
                        "value": ""
                    },
                    {
                        "address": "0xeeeeeeeeeeeeeeeeeeeeeeeeeeeeeeeeeeeeeeee",
                        "amount": "1.903715470776666344",
                        "iconUrl": "https://assets.blocksec.com/image/1663669189317-3.png",
                        "isERC1155": false,
                        "isERC721": false,
                        "sign": false,
                        "value": ""
                    }
                ]
            },
            {
                "account": "0x0000000000000000000000000000000000000000",
                "assets": [
                    {
                        "address": "0xc36442b4a4522e871399cd717abdd847ab11fe88",
                        "amount": "1",
                        "iconUrl": "https://assets.blocksec.com/nft/icon/nft_177aab42-5a7d-408e-b4aa-3c9923a4066f.png",
                        "isERC1155": false,
                        "isERC721": true,
                        "sign": false,
                        "tokenID": "70970",
                        "value": ""
                    }
                ]
            },
            {
                "account": "0x3019d4e366576a88d28b623afaf3ecb9ec9d9580",
                "assets": [
                    {
                        "address": "0xbb0e17ef65f82ab018d8edd776e8dd940327b28b",
                        "amount": "500.067507469784935127",
                        "iconUrl": "",
                        "isERC1155": false,
                        "isERC721": false,
                        "sign": true,
                        "value": ""
                    },
                    {
                        "address": "0xc02aaa39b223fe8d0a0e5c4f27ead9083c756cc2",
                        "amount": "1.903715470776666344",
                        "iconUrl": "https://assets.blocksec.com/icon/f1cb2d02c471d545bbc7722daf3277fd852d98e63d118771af7047bd8256c516.png",
                        "isERC1155": false,
                        "isERC721": false,
                        "sign": true,
                        "value": ""
                    }
                ]
            },
            {
                "account": "0xc02aaa39b223fe8d0a0e5c4f27ead9083c756cc2",
                "assets": [
                    {
                        "address": "0xeeeeeeeeeeeeeeeeeeeeeeeeeeeeeeeeeeeeeeee",
                        "amount": "1.903715470776666344",
                        "iconUrl": "https://assets.blocksec.com/image/1663669189317-3.png",
                        "isERC1155": false,
                        "isERC721": false,
                        "sign": true,
                        "value": ""
                    },
                    {
                        "address": "0xc02aaa39b223fe8d0a0e5c4f27ead9083c756cc2",
                        "amount": "1.903715470776666344",
                        "iconUrl": "https://assets.blocksec.com/icon/f1cb2d02c471d545bbc7722daf3277fd852d98e63d118771af7047bd8256c516.png",
                        "isERC1155": false,
                        "isERC721": false,
                        "sign": false,
                        "value": ""
                    }
                ]
            }
        ]
    },
    "profile": {
        "basic_info": {
            "baseFee": "",
            "blockNumber": 12757414,
            "callData": "0xac9650d800000000000000000000000000000000000000000000000000000000000000200000000000000000000000000000000000000000000000000000000000000002000000000000000000000000000000000000000000000000000000000000004000000000000000000000000000000000000000000000000000000000000001e0000000000000000000000000000000000000000000000000000000000000016488316456000000000000000000000000bb0e17ef65f82ab018d8edd776e8dd940327b28b000000000000000000000000c02aaa39b223fe8d0a0e5c4f27ead9083c756cc20000000000000000000000000000000000000000000000000000000000000bb8ffffffffffffffffffffffffffffffffffffffffffffffffffffffffffff1e88ffffffffffffffffffffffffffffffffffffffffffffffffffffffffffff25cc00000000000000000000000000000000000000000000001b1bd4ac9293876ad70000000000000000000000000000000000000000000000001a6b5b22650f08e8000000000000000000000000000000000000000000000011e1569ca85c9ace61000000000000000000000000000000000000000000000000120f4133ea77a0bb0000000000000000000000001d877d49c66953840f3289387aff508f2ab493400000000000000000000000000000000000000000000000000000000060e0eca400000000000000000000000000000000000000000000000000000000000000000000000000000000000000000000000000000000000000000000000412210e8a00000000000000000000000000000000000000000000000000000000",
            "debugEnable": true,
            "errorInfo": "",
            "eventCount": 6,
            "feeRecipient": "0xea674fdde714fd979de3edf0f56aa9716b898ec8",
            "formatValue": "1.903715470776666344",
            "gasLimit": 539804,
            "gasPrice": "11",
            "gasUsed": 422750,
            "intTxnCount": 13,
            "internalRevert": false,
            "internalRevertMessage": "",
            "isContractCreation": false,
            "isFlashloan": false,
            "maxFee": "",
            "nonce": 462,
            "overwritedBlockNumber": -1,
            "priorityFee": "",
            "receiver": "0xc36442b4a4522e871399cd717abdd847ab11fe88",
            "revertMessage": "",
            "sender": "0x1d877d49c66953840f3289387aff508f2ab49340",
            "simulationEnable": true,
            "sourceTxnHash": "0x0c5aeaeb15d798323ab8a8fa05ba68805a0bea84adf7f6b2d909f0164c54ba8d",
            "status": true,
            "timestamp": "2021-07-03T22:53:52Z",
            "transactionFee": "0.00465025",
            "txnHash": "0x0c5aeaeb15d798323ab8a8fa05ba68805a0bea84adf7f6b2d909f0164c54ba8d",
            "txnIndex": 125,
            "type": 0,
            "value": "1903715470776666344"
        },
        "fund_flow": [
            {
                "amount": "1.903715470776666344",
                "from": "0x1d877d49c66953840f3289387aff508f2ab49340",
                "id": 1,
                "isERC1155": false,
                "isERC721": false,
                "isReverted": false,
                "order": 1,
                "to": "0xc36442b4a4522e871399cd717abdd847ab11fe88",
                "token": "0xeeeeeeeeeeeeeeeeeeeeeeeeeeeeeeeeeeeeeeee"
            },
            {
                "amount": "500.067507469784935127",
                "from": "0x1d877d49c66953840f3289387aff508f2ab49340",
                "id": 2,
                "isERC1155": false,
                "isERC721": false,
                "isReverted": false,
                "order": 2,
                "to": "0x3019d4e366576a88d28b623afaf3ecb9ec9d9580",
                "token": "0xbb0e17ef65f82ab018d8edd776e8dd940327b28b"
            },
            {
                "amount": "1.903715470776666344",
                "from": "0xc36442b4a4522e871399cd717abdd847ab11fe88",
                "id": 3,
                "isERC1155": false,
                "isERC721": false,
                "isReverted": false,
                "order": 3,
                "to": "0xc02aaa39b223fe8d0a0e5c4f27ead9083c756cc2",
                "token": "0xeeeeeeeeeeeeeeeeeeeeeeeeeeeeeeeeeeeeeeee"
            },
            {
                "amount": "1.903715470776666344",
                "from": "0xc02aaa39b223fe8d0a0e5c4f27ead9083c756cc2",
                "id": 4,
                "isERC1155": false,
                "isERC721": false,
                "isReverted": false,
                "order": 4,
                "to": "0xc36442b4a4522e871399cd717abdd847ab11fe88",
                "token": "0xc02aaa39b223fe8d0a0e5c4f27ead9083c756cc2"
            },
            {
                "amount": "1.903715470776666344",
                "from": "0xc36442b4a4522e871399cd717abdd847ab11fe88",
                "id": 5,
                "isERC1155": false,
                "isERC721": false,
                "isReverted": false,
                "order": 5,
                "to": "0x3019d4e366576a88d28b623afaf3ecb9ec9d9580",
                "token": "0xc02aaa39b223fe8d0a0e5c4f27ead9083c756cc2"
            },
            {
                "amount": "1",
                "from": "0x0000000000000000000000000000000000000000",
                "id": 6,
                "isERC1155": false,
                "isERC721": true,
                "isReverted": false,
                "order": 6,
                "to": "0x1d877d49c66953840f3289387aff508f2ab49340",
                "token": "0xc36442b4a4522e871399cd717abdd847ab11fe88",
                "tokenID": "70970"
            }
        ],
        "token_infos": [
            {
                "address": "0xbb0e17ef65f82ab018d8edd776e8dd940327b28b",
                "decimals": 18
            },
            {
                "address": "0xc02aaa39b223fe8d0a0e5c4f27ead9083c756cc2",
                "decimals": 18
            },
            {
                "address": "0xeeeeeeeeeeeeeeeeeeeeeeeeeeeeeeeeeeeeeeee",
                "decimals": 18
            }
        ]
    },
    "address_label": {
        "labels": [
            {
                "address": "0xeeeeeeeeeeeeeeeeeeeeeeeeeeeeeeeeeeeeeeee",
                "label": "Ether"
            },
            {
                "address": "0xbb0e17ef65f82ab018d8edd776e8dd940327b28b",
                "label": "Axie Infinity: AXS Token"
            },
            {
                "address": "0x3019d4e366576a88d28b623afaf3ecb9ec9d9580",
                "label": "Uniswap V3: AXS"
            },
            {
                "address": "0xc36442b4a4522e871399cd717abdd847ab11fe88",
                "label": "Uniswap V3: Positions NFT"
            },
            {
                "address": "0x0000000000000000000000000000000000000001",
                "label": "Precompiled"
            },
            {
                "address": "0xc02aaa39b223fe8d0a0e5c4f27ead9083c756cc2",
                "label": "Wrapped Ether (WETH)"
            },
            {
                "address": "0x0000000000000000000000000000000000000002",
                "label": "Precompiled"
            },
            {
                "address": "0x0000000000000000000000000000000000000003",
                "label": "Precompiled"
            },
            {
                "address": "0x0000000000000000000000000000000000000004",
                "label": "Precompiled"
            }
        ]
    },
    "trace": {
        "accountLabels": null,
        "dataMap": {
            "-1": {
                "invocation": {
                    "address": "0x1d877d49c66953840f3289387aff508f2ab49340",
                    "callData": "",
                    "decodedMethod": null,
                    "errorInfo": "",
                    "fromAddress": "",
                    "gasUsed": 0,
                    "id": -1,
                    "methodDecoded": false,
                    "operation": "",
                    "output": "",
                    "revert": false,
                    "revertMessage": "",
                    "selector": "",
                    "status": false,
                    "value": ""
                },
                "nodeType": 0
            },
            "0": {
                "invocation": {
                    "address": "0xc36442b4a4522e871399cd717abdd847ab11fe88",
                    "callData": "0x00000000000000000000000000000000000000000000000000000000000000200000000000000000000000000000000000000000000000000000000000000002000000000000000000000000000000000000000000000000000000000000004000000000000000000000000000000000000000000000000000000000000001e0000000000000000000000000000000000000000000000000000000000000016488316456000000000000000000000000bb0e17ef65f82ab018d8edd776e8dd940327b28b000000000000000000000000c02aaa39b223fe8d0a0e5c4f27ead9083c756cc20000000000000000000000000000000000000000000000000000000000000bb8ffffffffffffffffffffffffffffffffffffffffffffffffffffffffffff1e88ffffffffffffffffffffffffffffffffffffffffffffffffffffffffffff25cc00000000000000000000000000000000000000000000001b1bd4ac9293876ad70000000000000000000000000000000000000000000000001a6b5b22650f08e8000000000000000000000000000000000000000000000011e1569ca85c9ace61000000000000000000000000000000000000000000000000120f4133ea77a0bb0000000000000000000000001d877d49c66953840f3289387aff508f2ab493400000000000000000000000000000000000000000000000000000000060e0eca400000000000000000000000000000000000000000000000000000000000000000000000000000000000000000000000000000000000000000000000412210e8a00000000000000000000000000000000000000000000000000000000",
                    "decodedMethod": {
                        "callParams": [
                            {
                                "name": "data",
                                "type": "bytes[]",
                                "value": [
                                    "0x88316456000000000000000000000000bb0e17ef65f82ab018d8edd776e8dd940327b28b000000000000000000000000c02aaa39b223fe8d0a0e5c4f27ead9083c756cc20000000000000000000000000000000000000000000000000000000000000bb8ffffffffffffffffffffffffffffffffffffffffffffffffffffffffffff1e88ffffffffffffffffffffffffffffffffffffffffffffffffffffffffffff25cc00000000000000000000000000000000000000000000001b1bd4ac9293876ad70000000000000000000000000000000000000000000000001a6b5b22650f08e8000000000000000000000000000000000000000000000011e1569ca85c9ace61000000000000000000000000000000000000000000000000120f4133ea77a0bb0000000000000000000000001d877d49c66953840f3289387aff508f2ab493400000000000000000000000000000000000000000000000000000000060e0eca4",
                                    "0x12210e8a"
                                ]
                            }
                        ],
                        "constructorArguments": "",
                        "name": "multicall",
                        "returnParams": [
                            {
                                "name": "results",
                                "type": "bytes[]",
                                "value": [
                                    "0x000000000000000000000000000000000000000000000000000000000001153a000000000000000000000000000000000000000000000024dda5f37c58b4cf2e00000000000000000000000000000000000000000000001b1bd4ac9293876ad70000000000000000000000000000000000000000000000001a6b5b22650f08e8",
                                    "0x"
                                ]
                            }
                        ],
                        "signature": "multicall(bytes[])"
                    },
                    "errorInfo": "",
                    "fromAddress": "0x1d877d49c66953840f3289387aff508f2ab49340",
                    "gasUsed": 422750,
                    "id": 0,
                    "methodDecoded": true,
                    "operation": "CALL",
                    "output": "0x00000000000000000000000000000000000000000000000000000000000000200000000000000000000000000000000000000000000000000000000000000002000000000000000000000000000000000000000000000000000000000000004000000000000000000000000000000000000000000000000000000000000000e00000000000000000000000000000000000000000000000000000000000000080000000000000000000000000000000000000000000000000000000000001153a000000000000000000000000000000000000000000000024dda5f37c58b4cf2e00000000000000000000000000000000000000000000001b1bd4ac9293876ad70000000000000000000000000000000000000000000000001a6b5b22650f08e80000000000000000000000000000000000000000000000000000000000000000",
                    "revert": false,
                    "revertMessage": "",
                    "selector": "0xac9650d8",
                    "status": true,
                    "value": "1.903715470776666344"
                },
                "nodeType": 0
            },
            "1": {
                "invocation": {
                    "address": "0xc36442b4a4522e871399cd717abdd847ab11fe88",
                    "callData": "0x000000000000000000000000bb0e17ef65f82ab018d8edd776e8dd940327b28b000000000000000000000000c02aaa39b223fe8d0a0e5c4f27ead9083c756cc20000000000000000000000000000000000000000000000000000000000000bb8ffffffffffffffffffffffffffffffffffffffffffffffffffffffffffff1e88ffffffffffffffffffffffffffffffffffffffffffffffffffffffffffff25cc00000000000000000000000000000000000000000000001b1bd4ac9293876ad70000000000000000000000000000000000000000000000001a6b5b22650f08e8000000000000000000000000000000000000000000000011e1569ca85c9ace61000000000000000000000000000000000000000000000000120f4133ea77a0bb0000000000000000000000001d877d49c66953840f3289387aff508f2ab493400000000000000000000000000000000000000000000000000000000060e0eca4",
                    "decodedMethod": {
                        "callParams": [
                            {
                                "name": "params",
                                "type": "(address,address,uint24,int24,int24,uint256,uint256,uint256,uint256,address,uint256)",
                                "value": [
                                    {
                                        "name": "token0",
                                        "type": "address",
                                        "value": "0xbb0e17ef65f82ab018d8edd776e8dd940327b28b"
                                    },
                                    {
                                        "name": "token1",
                                        "type": "address",
                                        "value": "0xc02aaa39b223fe8d0a0e5c4f27ead9083c756cc2"
                                    },
                                    {
                                        "name": "fee",
                                        "type": "uint24",
                                        "value": "3,000"
                                    },
                                    {
                                        "name": "tickLower",
                                        "type": "int24",
                                        "value": "-57,720"
                                    },
                                    {
                                        "name": "tickUpper",
                                        "type": "int24",
                                        "value": "-55,860"
                                    },
                                    {
                                        "name": "amount0Desired",
                                        "type": "uint256",
                                        "value": "500,067,507,469,784,935,127"
                                    },
                                    {
                                        "name": "amount1Desired",
                                        "type": "uint256",
                                        "value": "1,903,715,470,776,666,344"
                                    },
                                    {
                                        "name": "amount0Min",
                                        "type": "uint256",
                                        "value": "329,831,987,006,515,367,521"
                                    },
                                    {
                                        "name": "amount1Min",
                                        "type": "uint256",
                                        "value": "1,301,330,508,566,208,699"
                                    },
                                    {
                                        "name": "recipient",
                                        "type": "address",
                                        "value": "0x1d877d49c66953840f3289387aff508f2ab49340"
                                    },
                                    {
                                        "name": "deadline",
                                        "type": "uint256",
                                        "value": "1,625,353,380"
                                    }
                                ]
                            }
                        ],
                        "constructorArguments": "",
                        "name": "mint",
                        "returnParams": [
                            {
                                "name": "tokenId",
                                "type": "uint256",
                                "value": "70,970"
                            },
                            {
                                "name": "liquidity",
                                "type": "uint128",
                                "value": "680,054,226,022,472,929,070"
                            },
                            {
                                "name": "amount0",
                                "type": "uint256",
                                "value": "500,067,507,469,784,935,127"
                            },
                            {
                                "name": "amount1",
                                "type": "uint256",
                                "value": "1,903,715,470,776,666,344"
                            }
                        ],
                        "signature": "mint((address,address,uint24,int24,int24,uint256,uint256,uint256,uint256,address,uint256))"
                    },
                    "errorInfo": "",
                    "fromAddress": "0xc36442b4a4522e871399cd717abdd847ab11fe88",
                    "gasUsed": 416354,
                    "id": 1,
                    "methodDecoded": true,
                    "operation": "DELEGATECALL",
                    "output": "0x000000000000000000000000000000000000000000000000000000000001153a000000000000000000000000000000000000000000000024dda5f37c58b4cf2e00000000000000000000000000000000000000000000001b1bd4ac9293876ad70000000000000000000000000000000000000000000000001a6b5b22650f08e8",
                    "revert": false,
                    "revertMessage": "",
                    "selector": "0x88316456",
                    "status": true,
                    "value": "1.903715470776666344"
                },
                "nodeType": 0
            },
            "10": {
                "event": {
                    "contract": "0xc02aaa39b223fe8d0a0e5c4f27ead9083c756cc2",
                    "decodedLog": {
                        "name": "Deposit",
                        "params": [
                            {
                                "name": "dst",
                                "type": "address",
                                "value": "0xc36442b4a4522e871399cd717abdd847ab11fe88"
                            },
                            {
                                "name": "wad",
                                "type": "uint256",
                                "value": "1,903,715,470,776,666,344"
                            }
                        ],
                        "signature": "Deposit(address,uint256)"
                    },
                    "id": 10,
                    "logData": "0x0000000000000000000000000000000000000000000000001a6b5b22650f08e8",
                    "logDecoded": true,
                    "operation": "EVENT",
                    "revert": false,
                    "status": true,
                    "topics": [
                        "0xe1fffcc4923d04b559f4d29a8bfc6cda04eb5b0d3c460751c2402c5c5cc9109c",
                        "0x000000000000000000000000c36442b4a4522e871399cd717abdd847ab11fe88"
                    ]
                },
                "nodeType": 1
            },
            "11": {
                "invocation": {
                    "address": "0xc02aaa39b223fe8d0a0e5c4f27ead9083c756cc2",
                    "callData": "0x0000000000000000000000003019d4e366576a88d28b623afaf3ecb9ec9d95800000000000000000000000000000000000000000000000001a6b5b22650f08e8",
                    "decodedMethod": {
                        "callParams": [
                            {
                                "name": "dst",
                                "type": "address",
                                "value": "0x3019d4e366576a88d28b623afaf3ecb9ec9d9580"
                            },
                            {
                                "decimalAvailable": true,
                                "name": "wad",
                                "type": "uint256",
                                "value": "1,903,715,470,776,666,344"
                            }
                        ],
                        "constructorArguments": "",
                        "name": "transfer",
                        "returnParams": [
                            {
                                "name": "",
                                "type": "bool",
                                "value": true
                            }
                        ],
                        "signature": "transfer(address,uint256)"
                    },
                    "errorInfo": "",
                    "fromAddress": "0xc36442b4a4522e871399cd717abdd847ab11fe88",
                    "gasUsed": 6062,
                    "id": 11,
                    "methodDecoded": true,
                    "operation": "CALL",
                    "output": "0x0000000000000000000000000000000000000000000000000000000000000001",
                    "revert": false,
                    "revertMessage": "",
                    "selector": "0xa9059cbb",
                    "status": true,
                    "value": "0"
                },
                "nodeType": 0
            },
            "12": {
                "event": {
                    "contract": "0xc02aaa39b223fe8d0a0e5c4f27ead9083c756cc2",
                    "decodedLog": {
                        "name": "Transfer",
                        "params": [
                            {
                                "name": "src",
                                "type": "address",
                                "value": "0xc36442b4a4522e871399cd717abdd847ab11fe88"
                            },
                            {
                                "name": "dst",
                                "type": "address",
                                "value": "0x3019d4e366576a88d28b623afaf3ecb9ec9d9580"
                            },
                            {
                                "decimalAvailable": true,
                                "name": "wad",
                                "type": "uint256",
                                "value": "1,903,715,470,776,666,344"
                            }
                        ],
                        "signature": "Transfer(address,address,uint256)"
                    },
                    "id": 12,
                    "logData": "0x0000000000000000000000000000000000000000000000001a6b5b22650f08e8",
                    "logDecoded": true,
                    "operation": "EVENT",
                    "revert": false,
                    "status": true,
                    "topics": [
                        "0xddf252ad1be2c89b69c2b068fc378daa952ba7f163c4a11628f55a4df523b3ef",
                        "0x000000000000000000000000c36442b4a4522e871399cd717abdd847ab11fe88",
                        "0x0000000000000000000000003019d4e366576a88d28b623afaf3ecb9ec9d9580"
                    ]
                },
                "nodeType": 1
            },
            "13": {
                "invocation": {
                    "address": "0xbb0e17ef65f82ab018d8edd776e8dd940327b28b",
                    "callData": "0x0000000000000000000000003019d4e366576a88d28b623afaf3ecb9ec9d9580",
                    "decodedMethod": {
                        "callParams": [
                            {
                                "name": "",
                                "type": "address",
                                "value": "0x3019d4e366576a88d28b623afaf3ecb9ec9d9580"
                            }
                        ],
                        "constructorArguments": "",
                        "name": "balanceOf",
                        "returnParams": [
                            {
                                "decimalAvailable": true,
                                "name": "",
                                "type": "uint256",
                                "value": "46,577,889,867,556,922,251,389"
                            }
                        ],
                        "signature": "balanceOf(address)"
                    },
                    "errorInfo": "",
                    "fromAddress": "0x3019d4e366576a88d28b623afaf3ecb9ec9d9580",
                    "gasUsed": 446,
                    "id": 13,
                    "methodDecoded": true,
                    "operation": "STATICCALL",
                    "output": "0x0000000000000000000000000000000000000000000009dcfe12764e54a2d87d",
                    "revert": false,
                    "revertMessage": "",
                    "selector": "0x70a08231",
                    "status": true,
                    "value": "0"
                },
                "nodeType": 0
            },
            "14": {
                "invocation": {
                    "address": "0xc02aaa39b223fe8d0a0e5c4f27ead9083c756cc2",
                    "callData": "0x0000000000000000000000003019d4e366576a88d28b623afaf3ecb9ec9d9580",
                    "decodedMethod": {
                        "callParams": [
                            {
                                "name": "",
                                "type": "address",
                                "value": "0x3019d4e366576a88d28b623afaf3ecb9ec9d9580"
                            }
                        ],
                        "constructorArguments": "",
                        "name": "balanceOf",
                        "returnParams": [
                            {
                                "decimalAvailable": true,
                                "name": "",
                                "type": "uint256",
                                "value": "164,936,441,790,031,513,185"
                            }
                        ],
                        "signature": "balanceOf(address)"
                    },
                    "errorInfo": "",
                    "fromAddress": "0x3019d4e366576a88d28b623afaf3ecb9ec9d9580",
                    "gasUsed": 534,
                    "id": 14,
                    "methodDecoded": true,
                    "operation": "STATICCALL",
                    "output": "0x000000000000000000000000000000000000000000000008f0f3f3eff3b8c661",
                    "revert": false,
                    "revertMessage": "",
                    "selector": "0x70a08231",
                    "status": true,
                    "value": "0"
                },
                "nodeType": 0
            },
            "15": {
                "event": {
                    "contract": "0x3019d4e366576a88d28b623afaf3ecb9ec9d9580",
                    "decodedLog": {
                        "name": "Mint",
                        "params": [
                            {
                                "name": "owner",
                                "type": "address",
                                "value": "0xc36442b4a4522e871399cd717abdd847ab11fe88"
                            },
                            {
                                "name": "tickLower",
                                "type": "int24",
                                "value": "-57,720"
                            },
                            {
                                "name": "tickUpper",
                                "type": "int24",
                                "value": "-55,860"
                            },
                            {
                                "name": "sender",
                                "type": "address",
                                "value": "0xc36442b4a4522e871399cd717abdd847ab11fe88"
                            },
                            {
                                "name": "amount",
                                "type": "uint128",
                                "value": "680,054,226,022,472,929,070"
                            },
                            {
                                "name": "amount0",
                                "type": "uint256",
                                "value": "500,067,507,469,784,935,127"
                            },
                            {
                                "name": "amount1",
                                "type": "uint256",
                                "value": "1,903,715,470,776,666,344"
                            }
                        ],
                        "signature": "Mint(address,address,int24,int24,uint128,uint256,uint256)"
                    },
                    "id": 15,
                    "logData": "0x000000000000000000000000c36442b4a4522e871399cd717abdd847ab11fe88000000000000000000000000000000000000000000000024dda5f37c58b4cf2e00000000000000000000000000000000000000000000001b1bd4ac9293876ad70000000000000000000000000000000000000000000000001a6b5b22650f08e8",
                    "logDecoded": true,
                    "operation": "EVENT",
                    "revert": false,
                    "status": true,
                    "topics": [
                        "0x7a53080ba414158be7ec69b987b5fb7d07dee101fe85488f0853ae16239d0bde",
                        "0x000000000000000000000000c36442b4a4522e871399cd717abdd847ab11fe88",
                        "0xffffffffffffffffffffffffffffffffffffffffffffffffffffffffffff1e88",
                        "0xffffffffffffffffffffffffffffffffffffffffffffffffffffffffffff25cc"
                    ]
                },
                "nodeType": 1
            },
            "16": {
                "event": {
                    "contract": "0xc36442b4a4522e871399cd717abdd847ab11fe88",
                    "decodedLog": {
                        "name": "Transfer",
                        "params": [
                            {
                                "name": "from",
                                "type": "address",
                                "value": "0x0000000000000000000000000000000000000000"
                            },
                            {
                                "name": "to",
                                "type": "address",
                                "value": "0x1d877d49c66953840f3289387aff508f2ab49340"
                            },
                            {
                                "decimalAvailable": true,
                                "name": "tokenId",
                                "type": "uint256",
                                "value": "70,970"
                            }
                        ],
                        "signature": "Transfer(address,address,uint256)"
                    },
                    "id": 16,
                    "logData": "0x",
                    "logDecoded": true,
                    "operation": "EVENT",
                    "revert": false,
                    "status": true,
                    "topics": [
                        "0xddf252ad1be2c89b69c2b068fc378daa952ba7f163c4a11628f55a4df523b3ef",
                        "0x0000000000000000000000000000000000000000000000000000000000000000",
                        "0x0000000000000000000000001d877d49c66953840f3289387aff508f2ab49340",
                        "0x000000000000000000000000000000000000000000000000000000000001153a"
                    ]
                },
                "nodeType": 1
            },
            "17": {
                "invocation": {
                    "address": "0x3019d4e366576a88d28b623afaf3ecb9ec9d9580",
                    "callData": "0x5fa39de644c08807f0847be0a5667fd08da3d55c4da7309ffe25f016b93e628a",
                    "decodedMethod": {
                        "callParams": [
                            {
                                "name": "",
                                "type": "bytes32",
                                "value": "0x5fa39de644c08807f0847be0a5667fd08da3d55c4da7309ffe25f016b93e628a"
                            }
                        ],
                        "constructorArguments": "",
                        "name": "positions",
                        "returnParams": [
                            {
                                "name": "liquidity",
                                "type": "uint128",
                                "value": "680,054,226,022,472,929,070"
                            },
                            {
                                "name": "feeGrowthInside0LastX128",
                                "type": "uint256",
                                "value": "1,918,269,868,341,554,956,530,389,968,805,933,318"
                            },
                            {
                                "name": "feeGrowthInside1LastX128",
                                "type": "uint256",
                                "value": "7,296,344,345,093,375,215,727,504,034,433,350"
                            },
                            {
                                "name": "tokensOwed0",
                                "type": "uint128",
                                "value": "0"
                            },
                            {
                                "name": "tokensOwed1",
                                "type": "uint128",
                                "value": "0"
                            }
                        ],
                        "signature": "positions(bytes32)"
                    },
                    "errorInfo": "",
                    "fromAddress": "0xc36442b4a4522e871399cd717abdd847ab11fe88",
                    "gasUsed": 1013,
                    "id": 17,
                    "methodDecoded": true,
                    "operation": "STATICCALL",
                    "output": "0x000000000000000000000000000000000000000000000024dda5f37c58b4cf2e0000000000000000000000000000000001717201ad40c87e6be8831207cbb10600000000000000000000000000000000000167bcd018c5ac1fc93f476add094600000000000000000000000000000000000000000000000000000000000000000000000000000000000000000000000000000000000000000000000000000000",
                    "revert": false,
                    "revertMessage": "",
                    "selector": "0x514ea4bf",
                    "status": true,
                    "value": "0"
                },
                "nodeType": 0
            },
            "18": {
                "event": {
                    "contract": "0xc36442b4a4522e871399cd717abdd847ab11fe88",
                    "decodedLog": {
                        "name": "IncreaseLiquidity",
                        "params": [
                            {
                                "name": "tokenId",
                                "type": "uint256",
                                "value": "70,970"
                            },
                            {
                                "name": "liquidity",
                                "type": "uint128",
                                "value": "680,054,226,022,472,929,070"
                            },
                            {
                                "name": "amount0",
                                "type": "uint256",
                                "value": "500,067,507,469,784,935,127"
                            },
                            {
                                "name": "amount1",
                                "type": "uint256",
                                "value": "1,903,715,470,776,666,344"
                            }
                        ],
                        "signature": "IncreaseLiquidity(uint256,uint128,uint256,uint256)"
                    },
                    "id": 18,
                    "logData": "0x000000000000000000000000000000000000000000000024dda5f37c58b4cf2e00000000000000000000000000000000000000000000001b1bd4ac9293876ad70000000000000000000000000000000000000000000000001a6b5b22650f08e8",
                    "logDecoded": true,
                    "operation": "EVENT",
                    "revert": false,
                    "status": true,
                    "topics": [
                        "0x3067048beee31b25b2f1681f88dac838c8bba36af25bfb2b7cf7473a5847e35f",
                        "0x000000000000000000000000000000000000000000000000000000000001153a"
                    ]
                },
                "nodeType": 1
            },
            "19": {
                "invocation": {
                    "address": "0xc36442b4a4522e871399cd717abdd847ab11fe88",
                    "callData": "0x",
                    "decodedMethod": {
                        "callParams": [],
                        "constructorArguments": "",
                        "name": "refundETH",
                        "returnParams": [],
                        "signature": "refundETH()"
                    },
                    "errorInfo": "",
                    "fromAddress": "0xc36442b4a4522e871399cd717abdd847ab11fe88",
                    "gasUsed": 233,
                    "id": 19,
                    "methodDecoded": true,
                    "operation": "DELEGATECALL",
                    "output": "",
                    "revert": false,
                    "revertMessage": "",
                    "selector": "0x12210e8a",
                    "status": true,
                    "value": "1.903715470776666344"
                },
                "nodeType": 0
            },
            "2": {
                "invocation": {
                    "address": "0x3019d4e366576a88d28b623afaf3ecb9ec9d9580",
                    "callData": "0x",
                    "decodedMethod": {
                        "callParams": [],
                        "constructorArguments": "",
                        "name": "slot0",
                        "returnParams": [
                            {
                                "name": "sqrtPriceX96",
                                "type": "uint160",
                                "value": "4,643,275,231,874,421,154,818,057,469"
                            },
                            {
                                "name": "tick",
                                "type": "int24",
                                "value": "-56,742"
                            },
                            {
                                "name": "observationIndex",
                                "type": "uint16",
                                "value": "0"
                            },
                            {
                                "name": "observationCardinality",
                                "type": "uint16",
                                "value": "1"
                            },
                            {
                                "name": "observationCardinalityNext",
                                "type": "uint16",
                                "value": "1"
                            },
                            {
                                "name": "feeProtocol",
                                "type": "uint8",
                                "value": "0"
                            },
                            {
                                "name": "unlocked",
                                "type": "bool",
                                "value": true
                            }
                        ],
                        "signature": "slot0()"
                    },
                    "errorInfo": "",
                    "fromAddress": "0xc36442b4a4522e871399cd717abdd847ab11fe88",
                    "gasUsed": 2696,
                    "id": 2,
                    "methodDecoded": true,
                    "operation": "STATICCALL",
                    "output": "0x00000000000000000000000000000000000000000f00d3c6b13bd2e1812064fdffffffffffffffffffffffffffffffffffffffffffffffffffffffffffff225a00000000000000000000000000000000000000000000000000000000000000000000000000000000000000000000000000000000000000000000000000000001000000000000000000000000000000000000000000000000000000000000000100000000000000000000000000000000000000000000000000000000000000000000000000000000000000000000000000000000000000000000000000000001",
                    "revert": false,
                    "revertMessage": "",
                    "selector": "0x3850c7bd",
                    "status": true,
                    "value": "0"
                },
                "nodeType": 0
            },
            "3": {
                "invocation": {
                    "address": "0x3019d4e366576a88d28b623afaf3ecb9ec9d9580",
                    "callData": "0x000000000000000000000000c36442b4a4522e871399cd717abdd847ab11fe88ffffffffffffffffffffffffffffffffffffffffffffffffffffffffffff1e88ffffffffffffffffffffffffffffffffffffffffffffffffffffffffffff25cc000000000000000000000000000000000000000000000024dda5f37c58b4cf2e00000000000000000000000000000000000000000000000000000000000000a00000000000000000000000000000000000000000000000000000000000000080000000000000000000000000bb0e17ef65f82ab018d8edd776e8dd940327b28b000000000000000000000000c02aaa39b223fe8d0a0e5c4f27ead9083c756cc20000000000000000000000000000000000000000000000000000000000000bb80000000000000000000000001d877d49c66953840f3289387aff508f2ab49340",
                    "decodedMethod": {
                        "callParams": [
                            {
                                "name": "recipient",
                                "type": "address",
                                "value": "0xc36442b4a4522e871399cd717abdd847ab11fe88"
                            },
                            {
                                "name": "tickLower",
                                "type": "int24",
                                "value": "-57,720"
                            },
                            {
                                "name": "tickUpper",
                                "type": "int24",
                                "value": "-55,860"
                            },
                            {
                                "name": "amount",
                                "type": "uint128",
                                "value": "680,054,226,022,472,929,070"
                            },
                            {
                                "name": "data",
                                "type": "bytes",
                                "value": "0x000000000000000000000000bb0e17ef65f82ab018d8edd776e8dd940327b28b000000000000000000000000c02aaa39b223fe8d0a0e5c4f27ead9083c756cc20000000000000000000000000000000000000000000000000000000000000bb80000000000000000000000001d877d49c66953840f3289387aff508f2ab49340"
                            }
                        ],
                        "constructorArguments": "",
                        "name": "mint",
                        "returnParams": [
                            {
                                "name": "amount0",
                                "type": "uint256",
                                "value": "500,067,507,469,784,935,127"
                            },
                            {
                                "name": "amount1",
                                "type": "uint256",
                                "value": "1,903,715,470,776,666,344"
                            }
                        ],
                        "signature": "mint(address,int24,int24,uint128,bytes)"
                    },
                    "errorInfo": "",
                    "fromAddress": "0xc36442b4a4522e871399cd717abdd847ab11fe88",
                    "gasUsed": 192611,
                    "id": 3,
                    "methodDecoded": true,
                    "operation": "CALL",
                    "output": "0x00000000000000000000000000000000000000000000001b1bd4ac9293876ad70000000000000000000000000000000000000000000000001a6b5b22650f08e8",
                    "revert": false,
                    "revertMessage": "",
                    "selector": "0x3c8a7d8d",
                    "status": true,
                    "value": "0"
                },
                "nodeType": 0
            },
            "4": {
                "invocation": {
                    "address": "0xbb0e17ef65f82ab018d8edd776e8dd940327b28b",
                    "callData": "0x0000000000000000000000003019d4e366576a88d28b623afaf3ecb9ec9d9580",
                    "decodedMethod": {
                        "callParams": [
                            {
                                "name": "",
                                "type": "address",
                                "value": "0x3019d4e366576a88d28b623afaf3ecb9ec9d9580"
                            }
                        ],
                        "constructorArguments": "",
                        "name": "balanceOf",
                        "returnParams": [
                            {
                                "decimalAvailable": true,
                                "name": "",
                                "type": "uint256",
                                "value": "46,077,822,360,087,137,316,262"
                            }
                        ],
                        "signature": "balanceOf(address)"
                    },
                    "errorInfo": "",
                    "fromAddress": "0x3019d4e366576a88d28b623afaf3ecb9ec9d9580",
                    "gasUsed": 2446,
                    "id": 4,
                    "methodDecoded": true,
                    "operation": "STATICCALL",
                    "output": "0x0000000000000000000000000000000000000000000009c1e23dc9bbc11b6da6",
                    "revert": false,
                    "revertMessage": "",
                    "selector": "0x70a08231",
                    "status": true,
                    "value": "0"
                },
                "nodeType": 0
            },
            "5": {
                "invocation": {
                    "address": "0xc02aaa39b223fe8d0a0e5c4f27ead9083c756cc2",
                    "callData": "0x0000000000000000000000003019d4e366576a88d28b623afaf3ecb9ec9d9580",
                    "decodedMethod": {
                        "callParams": [
                            {
                                "name": "",
                                "type": "address",
                                "value": "0x3019d4e366576a88d28b623afaf3ecb9ec9d9580"
                            }
                        ],
                        "constructorArguments": "",
                        "name": "balanceOf",
                        "returnParams": [
                            {
                                "decimalAvailable": true,
                                "name": "",
                                "type": "uint256",
                                "value": "163,032,726,319,254,846,841"
                            }
                        ],
                        "signature": "balanceOf(address)"
                    },
                    "errorInfo": "",
                    "fromAddress": "0x3019d4e366576a88d28b623afaf3ecb9ec9d9580",
                    "gasUsed": 2534,
                    "id": 5,
                    "methodDecoded": true,
                    "operation": "STATICCALL",
                    "output": "0x000000000000000000000000000000000000000000000008d68898cd8ea9bd79",
                    "revert": false,
                    "revertMessage": "",
                    "selector": "0x70a08231",
                    "status": true,
                    "value": "0"
                },
                "nodeType": 0
            },
            "6": {
                "invocation": {
                    "address": "0xc36442b4a4522e871399cd717abdd847ab11fe88",
                    "callData": "0x00000000000000000000000000000000000000000000001b1bd4ac9293876ad70000000000000000000000000000000000000000000000001a6b5b22650f08e800000000000000000000000000000000000000000000000000000000000000600000000000000000000000000000000000000000000000000000000000000080000000000000000000000000bb0e17ef65f82ab018d8edd776e8dd940327b28b000000000000000000000000c02aaa39b223fe8d0a0e5c4f27ead9083c756cc20000000000000000000000000000000000000000000000000000000000000bb80000000000000000000000001d877d49c66953840f3289387aff508f2ab49340",
                    "decodedMethod": {
                        "callParams": [
                            {
                                "name": "amount0Owed",
                                "type": "uint256",
                                "value": "500,067,507,469,784,935,127"
                            },
                            {
                                "name": "amount1Owed",
                                "type": "uint256",
                                "value": "1,903,715,470,776,666,344"
                            },
                            {
                                "name": "data",
                                "type": "bytes",
                                "value": "0x000000000000000000000000bb0e17ef65f82ab018d8edd776e8dd940327b28b000000000000000000000000c02aaa39b223fe8d0a0e5c4f27ead9083c756cc20000000000000000000000000000000000000000000000000000000000000bb80000000000000000000000001d877d49c66953840f3289387aff508f2ab49340"
                            }
                        ],
                        "constructorArguments": "",
                        "name": "uniswapV3MintCallback",
                        "returnParams": [],
                        "signature": "uniswapV3MintCallback(uint256,uint256,bytes)"
                    },
                    "errorInfo": "",
                    "fromAddress": "0x3019d4e366576a88d28b623afaf3ecb9ec9d9580",
                    "gasUsed": 56281,
                    "id": 6,
                    "methodDecoded": true,
                    "operation": "CALL",
                    "output": "",
                    "revert": false,
                    "revertMessage": "",
                    "selector": "0xd3487997",
                    "status": true,
                    "value": "0"
                },
                "nodeType": 0
            },
            "7": {
                "invocation": {
                    "address": "0xbb0e17ef65f82ab018d8edd776e8dd940327b28b",
                    "callData": "0x0000000000000000000000001d877d49c66953840f3289387aff508f2ab493400000000000000000000000003019d4e366576a88d28b623afaf3ecb9ec9d958000000000000000000000000000000000000000000000001b1bd4ac9293876ad7",
                    "decodedMethod": {
                        "callParams": [
                            {
                                "name": "_from",
                                "type": "address",
                                "value": "0x1d877d49c66953840f3289387aff508f2ab49340"
                            },
                            {
                                "name": "_to",
                                "type": "address",
                                "value": "0x3019d4e366576a88d28b623afaf3ecb9ec9d9580"
                            },
                            {
                                "decimalAvailable": true,
                                "name": "_value",
                                "type": "uint256",
                                "value": "500,067,507,469,784,935,127"
                            }
                        ],
                        "constructorArguments": "",
                        "name": "transferFrom",
                        "returnParams": [
                            {
                                "name": "_success",
                                "type": "bool",
                                "value": true
                            }
                        ],
                        "signature": "transferFrom(address,address,uint256)"
                    },
                    "errorInfo": "",
                    "fromAddress": "0xc36442b4a4522e871399cd717abdd847ab11fe88",
                    "gasUsed": 15382,
                    "id": 7,
                    "methodDecoded": true,
                    "operation": "CALL",
                    "output": "0x0000000000000000000000000000000000000000000000000000000000000001",
                    "revert": false,
                    "revertMessage": "",
                    "selector": "0x23b872dd",
                    "status": true,
                    "value": "0"
                },
                "nodeType": 0
            },
            "8": {
                "event": {
                    "contract": "0xbb0e17ef65f82ab018d8edd776e8dd940327b28b",
                    "decodedLog": {
                        "name": "Transfer",
                        "params": [
                            {
                                "name": "_from",
                                "type": "address",
                                "value": "0x1d877d49c66953840f3289387aff508f2ab49340"
                            },
                            {
                                "name": "_to",
                                "type": "address",
                                "value": "0x3019d4e366576a88d28b623afaf3ecb9ec9d9580"
                            },
                            {
                                "decimalAvailable": true,
                                "name": "_value",
                                "type": "uint256",
                                "value": "500,067,507,469,784,935,127"
                            }
                        ],
                        "signature": "Transfer(address,address,uint256)"
                    },
                    "id": 8,
                    "logData": "0x00000000000000000000000000000000000000000000001b1bd4ac9293876ad7",
                    "logDecoded": true,
                    "operation": "EVENT",
                    "revert": false,
                    "status": true,
                    "topics": [
                        "0xddf252ad1be2c89b69c2b068fc378daa952ba7f163c4a11628f55a4df523b3ef",
                        "0x0000000000000000000000001d877d49c66953840f3289387aff508f2ab49340",
                        "0x0000000000000000000000003019d4e366576a88d28b623afaf3ecb9ec9d9580"
                    ]
                },
                "nodeType": 1
            },
            "9": {
                "invocation": {
                    "address": "0xc02aaa39b223fe8d0a0e5c4f27ead9083c756cc2",
                    "callData": "0x",
                    "decodedMethod": {
                        "callParams": [],
                        "constructorArguments": "",
                        "name": "deposit",
                        "returnParams": [],
                        "signature": "deposit()"
                    },
                    "errorInfo": "",
                    "fromAddress": "0xc36442b4a4522e871399cd717abdd847ab11fe88",
                    "gasUsed": 23974,
                    "id": 9,
                    "methodDecoded": true,
                    "operation": "CALL",
                    "output": "",
                    "revert": false,
                    "revertMessage": "",
                    "selector": "0xd0e30db0",
                    "status": true,
                    "value": "1.903715470776666344"
                },
                "nodeType": 0
            }
        },
        "gasFlame": [
            {
                "children": [
                    {
                        "children": [
                            {
                                "children": [],
                                "depth": 0,
                                "name": "Initial Gas",
                                "value": 25656
                            },
                            {
                                "children": [
                                    {
                                        "children": [
                                            {
                                                "children": [],
                                                "depth": 2,
                                                "name": "slot0",
                                                "value": 2696
                                            },
                                            {
                                                "children": [
                                                    {
                                                        "children": [],
                                                        "depth": 3,
                                                        "name": "balanceOf",
                                                        "value": 2446
                                                    },
                                                    {
                                                        "children": [],
                                                        "depth": 3,
                                                        "name": "balanceOf",
                                                        "value": 2534
                                                    },
                                                    {
                                                        "children": [
                                                            {
                                                                "children": [],
                                                                "depth": 4,
                                                                "name": "transferFrom",
                                                                "value": 15382
                                                            },
                                                            {
                                                                "children": [],
                                                                "depth": 4,
                                                                "name": "deposit",
                                                                "value": 23974
                                                            },
                                                            {
                                                                "children": [],
                                                                "depth": 4,
                                                                "name": "transfer",
                                                                "value": 6062
                                                            }
                                                        ],
                                                        "depth": 3,
                                                        "name": "uniswapV3MintCallback",
                                                        "value": 56281
                                                    },
                                                    {
                                                        "children": [],
                                                        "depth": 3,
                                                        "name": "balanceOf",
                                                        "value": 446
                                                    },
                                                    {
                                                        "children": [],
                                                        "depth": 3,
                                                        "name": "balanceOf",
                                                        "value": 534
                                                    }
                                                ],
                                                "depth": 2,
                                                "name": "mint",
                                                "value": 192611
                                            },
                                            {
                                                "children": [],
                                                "depth": 2,
                                                "name": "positions",
                                                "value": 1013
                                            }
                                        ],
                                        "depth": 1,
                                        "name": "mint",
                                        "value": 416354
                                    },
                                    {
                                        "children": [],
                                        "depth": 1,
                                        "name": "refundETH",
                                        "value": 233
                                    }
                                ],
                                "depth": 0,
                                "name": "Executed Gas",
                                "value": 419794
                            }
                        ],
                        "depth": -1,
                        "name": "Actual Gas Used",
                        "value": 422750
                    },
                    {
                        "children": [],
                        "depth": -1,
                        "name": "Refunded Gas",
                        "value": 22700
                    }
                ],
                "depth": -2,
                "name": "Total Gas",
                "value": 445450
            }
        ],
        "isConfirmed": true,
        "mainTrace": [
            {
                "children": [
                    {
                        "children": [
                            {
                                "children": [
                                    {
                                        "children": [],
                                        "depth": 2,
                                        "id": 2,
                                        "order": 2
                                    },
                                    {
                                        "children": [
                                            {
                                                "children": [],
                                                "depth": 3,
                                                "id": 4,
                                                "order": 4
                                            },
                                            {
                                                "children": [],
                                                "depth": 3,
                                                "id": 5,
                                                "order": 5
                                            },
                                            {
                                                "children": [
                                                    {
                                                        "children": [
                                                            {
                                                                "children": [],
                                                                "depth": 5,
                                                                "id": 8,
                                                                "order": 8
                                                            }
                                                        ],
                                                        "depth": 4,
                                                        "id": 7,
                                                        "order": 7
                                                    },
                                                    {
                                                        "children": [
                                                            {
                                                                "children": [],
                                                                "depth": 5,
                                                                "id": 10,
                                                                "order": 10
                                                            }
                                                        ],
                                                        "depth": 4,
                                                        "id": 9,
                                                        "order": 9
                                                    },
                                                    {
                                                        "children": [
                                                            {
                                                                "children": [],
                                                                "depth": 5,
                                                                "id": 12,
                                                                "order": 12
                                                            }
                                                        ],
                                                        "depth": 4,
                                                        "id": 11,
                                                        "order": 11
                                                    }
                                                ],
                                                "depth": 3,
                                                "id": 6,
                                                "order": 6
                                            },
                                            {
                                                "children": [],
                                                "depth": 3,
                                                "id": 13,
                                                "order": 13
                                            },
                                            {
                                                "children": [],
                                                "depth": 3,
                                                "id": 14,
                                                "order": 14
                                            },
                                            {
                                                "children": [],
                                                "depth": 3,
                                                "id": 15,
                                                "order": 15
                                            }
                                        ],
                                        "depth": 2,
                                        "id": 3,
                                        "order": 3
                                    },
                                    {
                                        "children": [],
                                        "depth": 2,
                                        "id": 16,
                                        "order": 16
                                    },
                                    {
                                        "children": [],
                                        "depth": 2,
                                        "id": 17,
                                        "order": 17
                                    },
                                    {
                                        "children": [],
                                        "depth": 2,
                                        "id": 18,
                                        "order": 18
                                    }
                                ],
                                "depth": 1,
                                "id": 1,
                                "order": 1
                            },
                            {
                                "children": [],
                                "depth": 1,
                                "id": 19,
                                "order": 19
                            }
                        ],
                        "depth": 0,
                        "id": 0,
                        "order": 0
                    }
                ],
                "depth": -1,
                "id": -1,
                "order": -1
            }
        ],
        "mainTraceNodeCount": 20,
        "parentIdMap": {
            "0": -1,
            "1": 0,
            "10": 9,
            "11": 6,
            "12": 11,
            "13": 3,
            "14": 3,
            "15": 3,
            "16": 1,
            "17": 1,
            "18": 1,
            "19": 0,
            "2": 1,
            "3": 1,
            "4": 3,
            "5": 3,
            "6": 3,
            "7": 6,
            "8": 7,
            "9": 6
        },
        "tidyTrace": [
            {
                "children": [
                    {
                        "children": [
                            {
                                "children": [
                                    {
                                        "children": [
                                            {
                                                "children": [
                                                    {
                                                        "children": [
                                                            {
                                                                "children": [],
                                                                "depth": 5,
                                                                "id": 8,
                                                                "order": 8
                                                            }
                                                        ],
                                                        "depth": 4,
                                                        "id": 7,
                                                        "order": 7
                                                    },
                                                    {
                                                        "children": [
                                                            {
                                                                "children": [],
                                                                "depth": 5,
                                                                "id": 10,
                                                                "order": 10
                                                            }
                                                        ],
                                                        "depth": 4,
                                                        "id": 9,
                                                        "order": 9
                                                    },
                                                    {
                                                        "children": [
                                                            {
                                                                "children": [],
                                                                "depth": 5,
                                                                "id": 12,
                                                                "order": 12
                                                            }
                                                        ],
                                                        "depth": 4,
                                                        "id": 11,
                                                        "order": 11
                                                    }
                                                ],
                                                "depth": 3,
                                                "id": 6,
                                                "order": 6
                                            },
                                            {
                                                "children": [],
                                                "depth": 3,
                                                "id": 15,
                                                "order": 15
                                            }
                                        ],
                                        "depth": 2,
                                        "id": 3,
                                        "order": 3
                                    },
                                    {
                                        "children": [],
                                        "depth": 2,
                                        "id": 16,
                                        "order": 16
                                    },
                                    {
                                        "children": [],
                                        "depth": 2,
                                        "id": 18,
                                        "order": 18
                                    }
                                ],
                                "depth": 1,
                                "id": 1,
                                "order": 1
                            },
                            {
                                "children": [],
                                "depth": 1,
                                "id": 19,
                                "order": 19
                            }
                        ],
                        "depth": 0,
                        "id": 0,
                        "order": 0
                    }
                ],
                "depth": -1,
                "id": -1,
                "order": -1
            }
        ],
        "tidyTraceNodeCount": 14
    },
    "state_change": {
        "stateChanges": [
            {
                "address": "0x3019d4e366576a88d28b623afaf3ecb9ec9d9580",
                "erc": "",
                "slots": [
                    {
                        "current": "0x00000000000000000000000000000000000167bcd018c5ac1fc93f476add0946",
                        "key": "0x80291f49210d1044358c2756ea9b87dfc476729645cae301358cc87e4adb3cde",
                        "prev": "0x0000000000000000000000000000000000000000000000000000000000000000"
                    },
                    {
                        "current": "0x0100000000000000000000628d6d637ccf02a827b5ffffdbcf58df6060e0ea80",
                        "key": "0x0000000000000000000000000000000000000000000000000000000000000008",
                        "prev": "0x0100000000000000000000628ccb47c98e50be7780ffffdbd20bcad460e0e762"
                    },
                    {
                        "current": "0x0000000000000000000000000000000000000000000005110fa6790961ae1c0c",
                        "key": "0x0000000000000000000000000000000000000000000000000000000000000004",
                        "prev": "0x0000000000000000000000000000000000000000000004ec3200858d08f94cde"
                    },
                    {
                        "current": "0x00000000000000f58021ac6e744cc4c000000000000000f58021ac6e744cc4c0",
                        "key": "0x932a594b36adac40fab934ef51651e185ac60852ee9583423938a1a559edfeef",
                        "prev": "0x00000000000000d0a27bb8f21b97f59200000000000000d0a27bb8f21b97f592"
                    },
                    {
                        "current": "0xffffffffffffffbde4194a94c09d603600000000000000421be6b56b3f629fca",
                        "key": "0x2104c89ed31bc994dea5864251f59b07b25a0f468ca387d648190e715f4775cc",
                        "prev": "0xffffffffffffffe2c1bf3e1119522f64000000000000001d3e40c1eee6add09c"
                    },
                    {
                        "current": "0x000000000000000000000000000000000000000000000024dda5f37c58b4cf2e",
                        "key": "0x80291f49210d1044358c2756ea9b87dfc476729645cae301358cc87e4adb3cdc",
                        "prev": "0x0000000000000000000000000000000000000000000000000000000000000000"
                    },
                    {
                        "current": "0x0000000000000000000000000000000001717201ad40c87e6be8831207cbb106",
                        "key": "0x80291f49210d1044358c2756ea9b87dfc476729645cae301358cc87e4adb3cdd",
                        "prev": "0x0000000000000000000000000000000000000000000000000000000000000000"
                    }
                ],
                "storageVariables": []
            },
            {
                "address": "0xbb0e17ef65f82ab018d8edd776e8dd940327b28b",
                "erc": "ERC-20",
                "slots": [
                    {
                        "current": "0x0000000000000000000000000000000000000000000000000000000000000047",
                        "key": "0x91efe5dd632b974626516b7fb3ef64921bc467f8d0e103fbe7b4c854484bc23f",
                        "prev": "0x00000000000000000000000000000000000000000000001b1bd4ac9293876b1e"
                    },
                    {
                        "current": "0x0000000000000000000000000000000000000000000009dcfe12764e54a2d87d",
                        "key": "0xdae790df385ed15f0a2f83ba2a8180e61341bb0236bf8bf13ff273d4f9530a0f",
                        "prev": "0x0000000000000000000000000000000000000000000009c1e23dc9bbc11b6da6"
                    }
                ],
                "storageVariables": [
                    {
                        "name": "balanceOf",
                        "type": "mapping(address => uint256)",
                        "value": {
                            "pairs": [
                                {
                                    "key": "0x1d877d49c66953840f3289387aff508f2ab49340",
                                    "value": {
                                        "current": "71",
                                        "prev": "500067507469784935198",
                                        "typeTag": 1
                                    }
                                },
                                {
                                    "key": "0x3019d4e366576a88d28b623afaf3ecb9ec9d9580",
                                    "value": {
                                        "current": "46577889867556922251389",
                                        "prev": "46077822360087137316262",
                                        "typeTag": 1
                                    }
                                }
                            ],
                            "typeTag": 4
                        }
                    }
                ]
            },
            {
                "address": "0xc02aaa39b223fe8d0a0e5c4f27ead9083c756cc2",
                "erc": "ERC-20",
                "slots": [
                    {
                        "current": "0x000000000000000000000000000000000000000000000008f0f3f3eff3b8c661",
                        "key": "0x223e68656f87c26def2a2f003bd3732a4a62d90d1e81ec68018be4731e8d9aee",
                        "prev": "0x000000000000000000000000000000000000000000000008d68898cd8ea9bd79"
                    }
                ],
                "storageVariables": [
                    {
                        "name": "balanceOf",
                        "type": "mapping(address => uint256)",
                        "value": {
                            "pairs": [
                                {
                                    "key": "0x3019d4e366576a88d28b623afaf3ecb9ec9d9580",
                                    "value": {
                                        "current": "164936441790031513185",
                                        "prev": "163032726319254846841",
                                        "typeTag": 1
                                    }
                                }
                            ],
                            "typeTag": 4
                        }
                    }
                ]
            },
            {
                "address": "0xc36442b4a4522e871399cd717abdd847ab11fe88",
                "erc": "ERC-721",
                "slots": [
                    {
                        "current": "0x000000000000000000000000000000000000000000000000000000000001153a",
                        "key": "0x405787fa12a823e0f2b7631cc41b3ba8828b3321ca811111fa75cd3aa3bd7c74",
                        "prev": "0x0000000000000000000000000000000000000000000000000000000000000000"
                    },
                    {
                        "current": "0x00000000000000000b820000000000000000000000000000000000000001153b",
                        "key": "0x000000000000000000000000000000000000000000000000000000000000000d",
                        "prev": "0x00000000000000000b820000000000000000000000000000000000000001153a"
                    },
                    {
                        "current": "0x000000000000000000000000000000000000000000000000000000000001153a",
                        "key": "0x09fbc7c28c51d50eb19e906d76ff71b382c5f962a373015bc57931cce560649b",
                        "prev": "0x0000000000000000000000000000000000000000000000000000000000000000"
                    },
                    {
                        "current": "0x0000000000000000000000000000000001717201ad40c87e6be8831207cbb106",
                        "key": "0x8475497534eb9a0c50c1554c0be1df1ae4b466cdbb53870b9447d56c319e0419",
                        "prev": "0x0000000000000000000000000000000000000000000000000000000000000000"
                    },
                    {
                        "current": "0x00000000000000000000000000000000000167bcd018c5ac1fc93f476add0946",
                        "key": "0x8475497534eb9a0c50c1554c0be1df1ae4b466cdbb53870b9447d56c319e041a",
                        "prev": "0x0000000000000000000000000000000000000000000000000000000000000000"
                    },
                    {
                        "current": "0x00000000000000000000000000000000000000000000000000000000000110d4",
                        "key": "0x0000000000000000000000000000000000000000000000000000000000000002",
                        "prev": "0x00000000000000000000000000000000000000000000000000000000000110d3"
                    },
                    {
                        "current": "0x0000000000000000000000001d877d49c66953840f3289387aff508f2ab49340",
                        "key": "0x405787fa12a823e0f2b7631cc41b3ba8828b3321ca811111fa75cd3aa3bd7c75",
                        "prev": "0x0000000000000000000000000000000000000000000000000000000000000000"
                    },
                    {
                        "current": "0x00000000000000000000000000000000000000000000000000000000000110d4",
                        "key": "0x1d0153c74f009209ea4208dfe1eda1c4fb58eb4f06c6b74c6811813a13234ae8",
                        "prev": "0x0000000000000000000000000000000000000000000000000000000000000000"
                    },
                    {
                        "current": "0x0000000000000000000000000000000000000000000000000000000000000049",
                        "key": "0x91efe5dd632b974626516b7fb3ef64921bc467f8d0e103fbe7b4c854484bc23f",
                        "prev": "0x0000000000000000000000000000000000000000000000000000000000000048"
                    },
                    {
                        "current": "0x0000000000000000000000000000000000000000000000000000000000000049",
                        "key": "0x401e7ad4cb1eeb1a4fd7e820a69694e915aa03304e53ddfda715fa1d72fe3181",
                        "prev": "0x0000000000000000000000000000000000000000000000000000000000000000"
                    },
                    {
                        "current": "0x0000000000000024dda5f37c58b4cf2eff25ccff1e880000000000000000071c",
                        "key": "0x8475497534eb9a0c50c1554c0be1df1ae4b466cdbb53870b9447d56c319e0418",
                        "prev": "0x0000000000000000000000000000000000000000000000000000000000000000"
                    }
                ],
                "storageVariables": [
                    {
                        "name": "_positions",
                        "type": "mapping(uint256 => struct NonfungiblePositionManager.Position)",
                        "value": {
                            "pairs": [
                                {
                                    "key": "70970",
                                    "value": {
                                        "fields": [
                                            {
                                                "name": "poolId",
                                                "type": "uint80",
                                                "value": {
                                                    "current": "1820",
                                                    "prev": "0",
                                                    "typeTag": 1
                                                }
                                            },
                                            {
                                                "name": "tickLower",
                                                "type": "int24",
                                                "value": {
                                                    "current": "-57720",
                                                    "prev": "0",
                                                    "typeTag": 1
                                                }
                                            },
                                            {
                                                "name": "tickUpper",
                                                "type": "int24",
                                                "value": {
                                                    "current": "-55860",
                                                    "prev": "0",
                                                    "typeTag": 1
                                                }
                                            },
                                            {
                                                "name": "liquidity",
                                                "type": "uint128",
                                                "value": {
                                                    "current": "680054226022472929070",
                                                    "prev": "0",
                                                    "typeTag": 1
                                                }
                                            },
                                            {
                                                "name": "feeGrowthInside0LastX128",
                                                "type": "uint256",
                                                "value": {
                                                    "current": "1918269868341554956530389968805933318",
                                                    "prev": "0",
                                                    "typeTag": 1
                                                }
                                            },
                                            {
                                                "name": "feeGrowthInside1LastX128",
                                                "type": "uint256",
                                                "value": {
                                                    "current": "7296344345093375215727504034433350",
                                                    "prev": "0",
                                                    "typeTag": 1
                                                }
                                            }
                                        ],
                                        "typeTag": 3
                                    }
                                }
                            ],
                            "typeTag": 4
                        }
                    },
                    {
                        "name": "_holderTokens",
                        "type": "mapping(address => struct EnumerableSet.UintSet)",
                        "value": {
                            "pairs": [
                                {
                                    "key": "0x1d877d49c66953840f3289387aff508f2ab49340",
                                    "value": {
                                        "fields": [
                                            {
                                                "name": "_inner",
                                                "type": "struct EnumerableSet.Set",
                                                "value": {
                                                    "fields": [
                                                        {
                                                            "name": "_values",
                                                            "type": "bytes32[]",
                                                            "value": {
                                                                "elemType": "bytes32",
                                                                "elems": [
                                                                    {
                                                                        "index": 72,
                                                                        "value": {
                                                                            "current": "0x000000000000000000000000000000000000000000000000000000000001153a",
                                                                            "prev": "0x0000000000000000000000000000000000000000000000000000000000000000",
                                                                            "typeTag": 1
                                                                        }
                                                                    }
                                                                ],
                                                                "typeTag": 2
                                                            }
                                                        },
                                                        {
                                                            "name": "_indexes",
                                                            "type": "mapping(bytes32 => uint256)",
                                                            "value": {
                                                                "pairs": [
                                                                    {
                                                                        "key": "0x000000000000000000000000000000000000000000000000000000000001153a",
                                                                        "value": {
                                                                            "current": "73",
                                                                            "prev": "0",
                                                                            "typeTag": 1
                                                                        }
                                                                    }
                                                                ],
                                                                "typeTag": 4
                                                            }
                                                        }
                                                    ],
                                                    "typeTag": 3
                                                }
                                            }
                                        ],
                                        "typeTag": 3
                                    }
                                }
                            ],
                            "typeTag": 4
                        }
                    },
                    {
                        "name": "_tokenOwners",
                        "type": "struct EnumerableMap.UintToAddressMap",
                        "value": {
                            "fields": [
                                {
                                    "name": "_inner",
                                    "type": "struct EnumerableMap.Map",
                                    "value": {
                                        "fields": [
                                            {
                                                "name": "_entries",
                                                "type": "struct EnumerableMap.MapEntry[]",
                                                "value": {
                                                    "elemType": "struct EnumerableMap.MapEntry",
                                                    "elems": [
                                                        {
                                                            "index": 69843,
                                                            "value": {
                                                                "fields": [
                                                                    {
                                                                        "name": "_key",
                                                                        "type": "bytes32",
                                                                        "value": {
                                                                            "current": "0x000000000000000000000000000000000000000000000000000000000001153a",
                                                                            "prev": "0x0000000000000000000000000000000000000000000000000000000000000000",
                                                                            "typeTag": 1
                                                                        }
                                                                    },
                                                                    {
                                                                        "name": "_value",
                                                                        "type": "bytes32",
                                                                        "value": {
                                                                            "current": "0x0000000000000000000000001d877d49c66953840f3289387aff508f2ab49340",
                                                                            "prev": "0x0000000000000000000000000000000000000000000000000000000000000000",
                                                                            "typeTag": 1
                                                                        }
                                                                    }
                                                                ],
                                                                "typeTag": 3
                                                            }
                                                        }
                                                    ],
                                                    "typeTag": 2
                                                }
                                            },
                                            {
                                                "name": "_indexes",
                                                "type": "mapping(bytes32 => uint256)",
                                                "value": {
                                                    "pairs": [
                                                        {
                                                            "key": "0x000000000000000000000000000000000000000000000000000000000001153a",
                                                            "value": {
                                                                "current": "69844",
                                                                "prev": "0",
                                                                "typeTag": 1
                                                            }
                                                        }
                                                    ],
                                                    "typeTag": 4
                                                }
                                            }
                                        ],
                                        "typeTag": 3
                                    }
                                }
                            ],
                            "typeTag": 3
                        }
                    },
                    {
                        "name": "_nextId",
                        "type": "uint176",
                        "value": {
                            "current": "70971",
                            "prev": "70970",
                            "typeTag": 1
                        }
                    },
                    {
                        "name": "_nextPoolId",
                        "type": "uint80",
                        "value": {
                            "current": "2946",
                            "prev": "2946",
                            "typeTag": 1
                        }
                    }
                ]
            }
        ]
    }
}