{
    "balance_change": {
        "balanceChanges": [
            {
                "account": "0x87a318a9d360558ce1cf45eab636ad6f31c7f896",
                "assets": [
                    {
                        "address": "0xdac17f958d2ee523a2206206994597c13d831ec7",
                        "amount": "80.18",
                        "iconUrl": "https://assets.blocksec.com/icon/fcea71f3193ce895be44bfdf941f7e4c9381dd587f273c2d1a27f1263d84e4ea.png",
                        "isERC1155": false,
                        "isERC721": false,
                        "sign": false,
                        "value": "80.131891999999996394"
                    }
                ]
            },
            {
                "account": "0x5041ed759dd4afc3a72b8192c143f72f4724081a",
                "assets": [
                    {
                        "address": "0xdac17f958d2ee523a2206206994597c13d831ec7",
                        "amount": "80.18",
                        "iconUrl": "https://assets.blocksec.com/icon/fcea71f3193ce895be44bfdf941f7e4c9381dd587f273c2d1a27f1263d84e4ea.png",
                        "isERC1155": false,
                        "isERC721": false,
                        "sign": true,
                        "value": "80.131891999999996394"
                    }
                ]
            }
        ]
    },
    "profile": {
        "basic_info": {
            "baseFee": "6.594912827",
            "blockNumber": 19765332,
            "callData": "0xa9059cbb0000000000000000000000005041ed759dd4afc3a72b8192c143f72f4724081a0000000000000000000000000000000000000000000000000000000004c77320",
            "debugEnable": true,
            "errorInfo": "",
            "eventCount": 1,
            "feeRecipient": "0x88c6c46ebf353a52bdbab708c23d0c81daa8134a",
            "formatValue": "0",
            "gasLimit": 50000,
            "gasPrice": "8.594912827",
            "gasUsed": 41309,
            "intTxnCount": 0,
            "internalRevert": false,
            "internalRevertMessage": "",
            "isContractCreation": false,
            "isFlashloan": false,
            "maxFee": "11",
            "nonce": 3,
            "overwritedBlockNumber": -1,
            "priorityFee": "2",
            "receiver": "0xdac17f958d2ee523a2206206994597c13d831ec7",
            "revertMessage": "",
            "sender": "0x87a318a9d360558ce1cf45eab636ad6f31c7f896",
            "simulationEnable": true,
            "sourceTxnHash": "0x0cc02aabee313202e0657166297b46e3b0a4c592fec5cccc95dd3e364cbf85cf",
            "status": true,
            "timestamp": "2024-04-30T03:06:59Z",
            "transactionFee": "0.000355047253970543",
            "txnHash": "0x0cc02aabee313202e0657166297b46e3b0a4c592fec5cccc95dd3e364cbf85cf",
            "txnIndex": 154,
            "type": 2,
            "value": "0"
        },
        "fund_flow": [
            {
                "amount": "80.18",
                "from": "0x87a318a9d360558ce1cf45eab636ad6f31c7f896",
                "id": 1,
                "isERC1155": false,
                "isERC721": false,
                "isReverted": false,
                "order": 1,
                "to": "0x5041ed759dd4afc3a72b8192c143f72f4724081a",
                "token": "0xdac17f958d2ee523a2206206994597c13d831ec7"
            }
        ],
        "token_infos": [
            {
                "address": "0xc02aaa39b223fe8d0a0e5c4f27ead9083c756cc2",
                "decimals": 18
            },
            {
                "address": "0xdac17f958d2ee523a2206206994597c13d831ec7",
                "decimals": 6
            },
            {
                "address": "0xeeeeeeeeeeeeeeeeeeeeeeeeeeeeeeeeeeeeeeee",
                "decimals": 18
            }
        ]
    },
    "address_label": {
        "labels": [
            {
                "address": "0x5041ed759dd4afc3a72b8192c143f72f4724081a",
                "label": "OKX 7"
            },
            {
                "address": "0x0000000000000000000000000000000000000001",
                "label": "Precompiled"
            },
            {
                "address": "0x0000000000000000000000000000000000000002",
                "label": "Precompiled"
            },
            {
                "address": "0x0000000000000000000000000000000000000003",
                "label": "Precompiled"
            },
            {
                "address": "0x0000000000000000000000000000000000000004",
                "label": "Precompiled"
            },
            {
                "address": "0xeeeeeeeeeeeeeeeeeeeeeeeeeeeeeeeeeeeeeeee",
                "label": "Ether"
            },
            {
                "address": "0xdac17f958d2ee523a2206206994597c13d831ec7",
                "label": "Tether: USDT Stablecoin"
            }
        ]
    },
    "trace": {
        "accountLabels": null,
        "dataMap": {
            "-1": {
                "invocation": {
                    "address": "0x87a318a9d360558ce1cf45eab636ad6f31c7f896",
                    "callData": "",
                    "decodedMethod": null,
                    "errorInfo": "",
                    "fromAddress": "",
                    "gasUsed": 0,
                    "id": -1,
                    "methodDecoded": false,
                    "operation": "",
                    "output": "",
                    "revert": false,
                    "revertMessage": "",
                    "selector": "",
                    "status": false,
                    "value": ""
                },
                "nodeType": 0
            },
            "0": {
                "invocation": {
                    "address": "0xdac17f958d2ee523a2206206994597c13d831ec7",
                    "callData": "0x0000000000000000000000005041ed759dd4afc3a72b8192c143f72f4724081a0000000000000000000000000000000000000000000000000000000004c77320",
                    "decodedMethod": {
                        "callParams": [
                            {
                                "name": "_to",
                                "type": "address",
                                "value": "0x5041ed759dd4afc3a72b8192c143f72f4724081a"
                            },
                            {
                                "decimalAvailable": true,
                                "name": "_value",
                                "type": "uint256",
                                "value": "80,180,000"
                            }
                        ],
                        "constructorArguments": "",
                        "name": "transfer",
                        "returnParams": [],
                        "signature": "transfer(address,uint256)"
                    },
                    "errorInfo": "",
                    "fromAddress": "0x87a318a9d360558ce1cf45eab636ad6f31c7f896",
                    "gasUsed": 41309,
                    "id": 0,
                    "methodDecoded": true,
                    "operation": "CALL",
                    "output": "",
                    "revert": false,
                    "revertMessage": "",
                    "selector": "0xa9059cbb",
                    "status": true,
                    "value": "0"
                },
                "nodeType": 0
            },
            "1": {
                "event": {
                    "contract": "0xdac17f958d2ee523a2206206994597c13d831ec7",
                    "decodedLog": {
                        "name": "Transfer",
                        "params": [
                            {
                                "name": "from",
                                "type": "address",
                                "value": "0x87a318a9d360558ce1cf45eab636ad6f31c7f896"
                            },
                            {
                                "name": "to",
                                "type": "address",
                                "value": "0x5041ed759dd4afc3a72b8192c143f72f4724081a"
                            },
                            {
                                "decimalAvailable": true,
                                "name": "value",
                                "type": "uint256",
                                "value": "80,180,000"
                            }
                        ],
                        "signature": "Transfer(address,address,uint256)"
                    },
                    "id": 1,
                    "logData": "0x0000000000000000000000000000000000000000000000000000000004c77320",
                    "logDecoded": true,
                    "operation": "EVENT",
                    "revert": false,
                    "status": true,
                    "topics": [
                        "0xddf252ad1be2c89b69c2b068fc378daa952ba7f163c4a11628f55a4df523b3ef",
                        "0x00000000000000000000000087a318a9d360558ce1cf45eab636ad6f31c7f896",
                        "0x0000000000000000000000005041ed759dd4afc3a72b8192c143f72f4724081a"
                    ]
                },
                "nodeType": 1
            }
        },
        "gasFlame": [
            {
                "children": [
                    {
                        "children": [
                            {
                                "children": [],
                                "depth": 0,
                                "name": "Initial Gas",
                                "value": 21608
                            },
                            {
                                "children": [],
                                "depth": 0,
                                "name": "Executed Gas",
                                "value": 24501
                            }
                        ],
                        "depth": -1,
                        "name": "Actual Gas Used",
                        "value": 41309
                    },
                    {
                        "children": [],
                        "depth": -1,
                        "name": "Refunded Gas",
                        "value": 4800
                    }
                ],
                "depth": -2,
                "name": "Total Gas",
                "value": 46109
            }
        ],
        "isConfirmed": true,
        "mainTrace": [
            {
                "children": [
                    {
                        "children": [
                            {
                                "children": [],
                                "depth": 1,
                                "id": 1,
                                "order": 1
                            }
                        ],
                        "depth": 0,
                        "id": 0,
                        "order": 0
                    }
                ],
                "depth": -1,
                "id": -1,
                "order": -1
            }
        ],
        "mainTraceNodeCount": 2,
        "parentIdMap": {
            "0": -1,
            "1": 0
        },
        "tidyTrace": [
            {
                "children": [
                    {
                        "children": [
                            {
                                "children": [],
                                "depth": 1,
                                "id": 1,
                                "order": 1
                            }
                        ],
                        "depth": 0,
                        "id": 0,
                        "order": 0
                    }
                ],
                "depth": -1,
                "id": -1,
                "order": -1
            }
        ],
        "tidyTraceNodeCount": 2
    },
    "state_change": {
        "stateChanges": [
            {
                "address": "0xdac17f958d2ee523a2206206994597c13d831ec7",
                "erc": "ERC-20",
                "slots": [
                    {
                        "current": "0x0000000000000000000000000000000000000000000000000000000000000000",
                        "key": "0x5e6781e7f33ad3ce59ea9bb0ea128d71103869192ff0107b690a7c0350bf732b",
                        "prev": "0x0000000000000000000000000000000000000000000000000000000004c77320"
                    },
                    {
                        "current": "0x000000000000000000000000000000000000000000000000000171cd7dd1bdf6",
                        "key": "0x95eea00c49d14a895954837cd876ffa8cfad96cbaacc40fc31d6df2c902528a8",
                        "prev": "0x000000000000000000000000000000000000000000000000000171cd790a4ad6"
                    }
                ],
                "storageVariables": [
                    {
                        "name": "balances",
                        "type": "mapping(address => uint256)",
                        "value": {
                            "pairs": [
                                {
                                    "key": "0x5041ed759dd4afc3a72b8192c143f72f4724081a",
                                    "value": {
                                        "current": "406602369842678",
                                        "prev": "406602289662678",
                                        "typeTag": 1
                                    }
                                },
                                {
                                    "key": "0x87a318a9d360558ce1cf45eab636ad6f31c7f896",
                                    "value": {
                                        "current": "0",
                                        "prev": "80180000",
                                        "typeTag": 1
                                    }
                                }
                            ],
                            "typeTag": 4
                        }
                    }
                ]
            }
        ]
    }
}