{
    "balance_change": {
        "balanceChanges": [
            {
                "account": "0xefc0d2d68ceb44722dc1b638fdcdcf584befe16f",
                "assets": [
                    {
                        "address": "0x9d9223436ddd466fc247e9dbbd20207e640fef58",
                        "amount": "10",
                        "iconUrl": "",
                        "isERC1155": false,
                        "isERC721": false,
                        "sign": false,
                        "value": ""
                    }
                ]
            },
            {
                "account": "0x9f15d3b749062ae227e013ef8f0ab83f9c09670e",
                "assets": [
                    {
                        "address": "0x9d9223436ddd466fc247e9dbbd20207e640fef58",
                        "amount": "10",
                        "iconUrl": "",
                        "isERC1155": false,
                        "isERC721": false,
                        "sign": true,
                        "value": ""
                    }
                ]
            }
        ]
    },
    "profile": {
        "basic_info": {
            "baseFee": "",
            "blockNumber": 5820218,
            "callData": "0xa9059cbb0000000000000000000000009f15d3b749062ae227e013ef8f0ab83f9c09670e0000000000000000000000000000000000000000000000008ac7230489e80000",
            "debugEnable": true,
            "errorInfo": "",
            "eventCount": 1,
            "feeRecipient": "0x829bd824b016326a401d083b33d092293333a830",
            "formatValue": "0",
            "gasLimit": 200000,
            "gasPrice": "2",
            "gasUsed": 58132,
            "intTxnCount": 0,
            "internalRevert": false,
            "internalRevertMessage": "",
            "isContractCreation": false,
            "isFlashloan": false,
            "maxFee": "",
            "nonce": 53153,
            "overwritedBlockNumber": -1,
            "priorityFee": "",
            "receiver": "0x9d9223436ddd466fc247e9dbbd20207e640fef58",
            "revertMessage": "",
            "sender": "0xefc0d2d68ceb44722dc1b638fdcdcf584befe16f",
            "simulationEnable": true,
            "sourceTxnHash": "0x0c1b9f016270e270d1c40dcc812bdab6c8095a08729e3d6d76ff8450ecd982cb",
            "status": true,
            "timestamp": "2018-06-20T02:50:47Z",
            "transactionFee": "0.000116264",
            "txnHash": "0x0c1b9f016270e270d1c40dcc812bdab6c8095a08729e3d6d76ff8450ecd982cb",
            "txnIndex": 112,
            "type": 0,
            "value": "0"
        },
        "fund_flow": [
            {
                "amount": "10",
                "from": "0xefc0d2d68ceb44722dc1b638fdcdcf584befe16f",
                "id": 1,
                "isERC1155": false,
                "isERC721": false,
                "isReverted": false,
                "order": 1,
                "to": "0x9f15d3b749062ae227e013ef8f0ab83f9c09670e",
                "token": "0x9d9223436ddd466fc247e9dbbd20207e640fef58"
            }
        ],
        "token_infos": [
            {
                "address": "0x9d9223436ddd466fc247e9dbbd20207e640fef58",
                "decimals": 18
            },
            {
                "address": "0xc02aaa39b223fe8d0a0e5c4f27ead9083c756cc2",
                "decimals": 18
            },
            {
                "address": "0xeeeeeeeeeeeeeeeeeeeeeeeeeeeeeeeeeeeeeeee",
                "decimals": 18
            }
        ]
    },
    "address_label": {
        "labels": [
            {
                "address": "0x0000000000000000000000000000000000000004",
                "label": "Precompiled"
            },
            {
                "address": "0xeeeeeeeeeeeeeeeeeeeeeeeeeeeeeeeeeeeeeeee",
                "label": "Ether"
            },
            {
                "address": "0x9d9223436ddd466fc247e9dbbd20207e640fef58",
                "label": "Olive Token"
            },
            {
                "address": "0x0000000000000000000000000000000000000001",
                "label": "Precompiled"
            },
            {
                "address": "0x0000000000000000000000000000000000000002",
                "label": "Precompiled"
            },
            {
                "address": "0x0000000000000000000000000000000000000003",
                "label": "Precompiled"
            }
        ]
    },
    "trace": {
        "accountLabels": null,
        "dataMap": {
            "-1": {
                "invocation": {
                    "address": "0xefc0d2d68ceb44722dc1b638fdcdcf584befe16f",
                    "callData": "",
                    "decodedMethod": null,
                    "errorInfo": "",
                    "fromAddress": "",
                    "gasUsed": 0,
                    "id": -1,
                    "methodDecoded": false,
                    "operation": "",
                    "output": "",
                    "revert": false,
                    "revertMessage": "",
                    "selector": "",
                    "status": false,
                    "value": ""
                },
                "nodeType": 0
            },
            "0": {
                "invocation": {
                    "address": "0x9d9223436ddd466fc247e9dbbd20207e640fef58",
                    "callData": "0x0000000000000000000000009f15d3b749062ae227e013ef8f0ab83f9c09670e0000000000000000000000000000000000000000000000008ac7230489e80000",
                    "decodedMethod": {
                        "callParams": [
                            {
                                "name": "_to",
                                "type": "address",
                                "value": "0x9f15d3b749062ae227e013ef8f0ab83f9c09670e"
                            },
                            {
                                "decimalAvailable": true,
                                "name": "_value",
                                "type": "uint256",
                                "value": "10,000,000,000,000,000,000"
                            }
                        ],
                        "constructorArguments": "",
                        "name": "transfer",
                        "returnParams": [
                            {
                                "name": "",
                                "type": "bool",
                                "value": true
                            }
                        ],
                        "signature": "transfer(address,uint256)"
                    },
                    "errorInfo": "",
                    "fromAddress": "0xefc0d2d68ceb44722dc1b638fdcdcf584befe16f",
                    "gasUsed": 58132,
                    "id": 0,
                    "methodDecoded": true,
                    "operation": "CALL",
                    "output": "0x0000000000000000000000000000000000000000000000000000000000000001",
                    "revert": false,
                    "revertMessage": "",
                    "selector": "0xa9059cbb",
                    "status": true,
                    "value": "0"
                },
                "nodeType": 0
            },
            "1": {
                "event": {
                    "contract": "0x9d9223436ddd466fc247e9dbbd20207e640fef58",
                    "decodedLog": {
                        "name": "Transfer",
                        "params": [
                            {
                                "name": "from",
                                "type": "address",
                                "value": "0xefc0d2d68ceb44722dc1b638fdcdcf584befe16f"
                            },
                            {
                                "name": "to",
                                "type": "address",
                                "value": "0x9f15d3b749062ae227e013ef8f0ab83f9c09670e"
                            },
                            {
                                "decimalAvailable": true,
                                "name": "value",
                                "type": "uint256",
                                "value": "10,000,000,000,000,000,000"
                            }
                        ],
                        "signature": "Transfer(address,address,uint256)"
                    },
                    "id": 1,
                    "logData": "0x0000000000000000000000000000000000000000000000008ac7230489e80000",
                    "logDecoded": true,
                    "operation": "EVENT",
                    "revert": false,
                    "status": true,
                    "topics": [
                        "0xddf252ad1be2c89b69c2b068fc378daa952ba7f163c4a11628f55a4df523b3ef",
                        "0x000000000000000000000000efc0d2d68ceb44722dc1b638fdcdcf584befe16f",
                        "0x0000000000000000000000009f15d3b749062ae227e013ef8f0ab83f9c09670e"
                    ]
                },
                "nodeType": 1
            }
        },
        "gasFlame": [
            {
                "children": [
                    {
                        "children": [
                            {
                                "children": [],
                                "depth": 0,
                                "name": "Initial Gas",
                                "value": 23192
                            },
                            {
                                "children": [],
                                "depth": 0,
                                "name": "Executed Gas",
                                "value": 34940
                            }
                        ],
                        "depth": -1,
                        "name": "Actual Gas Used",
                        "value": 58132
                    },
                    {
                        "children": [],
                        "depth": -1,
                        "name": "Refunded Gas",
                        "value": 0
                    }
                ],
                "depth": -2,
                "name": "Total Gas",
                "value": 58132
            }
        ],
        "isConfirmed": true,
        "mainTrace": [
            {
                "children": [
                    {
                        "children": [
                            {
                                "children": [],
                                "depth": 1,
                                "id": 1,
                                "order": 1
                            }
                        ],
                        "depth": 0,
                        "id": 0,
                        "order": 0
                    }
                ],
                "depth": -1,
                "id": -1,
                "order": -1
            }
        ],
        "mainTraceNodeCount": 2,
        "parentIdMap": {
            "0": -1,
            "1": 0
        },
        "tidyTrace": [
            {
                "children": [
                    {
                        "children": [
                            {
                                "children": [],
                                "depth": 1,
                                "id": 1,
                                "order": 1
                            }
                        ],
                        "depth": 0,
                        "id": 0,
                        "order": 0
                    }
                ],
                "depth": -1,
                "id": -1,
                "order": -1
            }
        ],
        "tidyTraceNodeCount": 2
    },
    "state_change": {
        "stateChanges": [
            {
                "address": "0x9d9223436ddd466fc247e9dbbd20207e640fef58",
                "erc": "ERC-20",
                "slots": [
                    {
                        "current": "0x000000000000000000000000000000000000000000005f47913c35385ec40000",
                        "key": "0xb1a7ac959e32057280aa8933e6b5ffaba002331c04f63adc23ae37a9a465d345",
                        "prev": "0x000000000000000000000000000000000000000000005f481c03583ce8ac0000"
                    },
                    {
                        "current": "0x0000000000000000000000000000000000000000000000008ac7230489e80000",
                        "key": "0x9a4a3aa3ba28b4d0f840bb3b02961d9df9d5e6676627c1e1a2f4936ef9daeab3",
                        "prev": "0x0000000000000000000000000000000000000000000000000000000000000000"
                    }
                ],
                "storageVariables": [
                    {
                        "name": "balances",
                        "type": "mapping(address => uint256)",
                        "value": {
                            "pairs": [
                                {
                                    "key": "0x9f15d3b749062ae227e013ef8f0ab83f9c09670e",
                                    "value": {
                                        "current": "10000000000000000000",
                                        "prev": "0",
                                        "typeTag": 1
                                    }
                                },
                                {
                                    "key": "0xefc0d2d68ceb44722dc1b638fdcdcf584befe16f",
                                    "value": {
                                        "current": "449945000000000000000000",
                                        "prev": "449955000000000000000000",
                                        "typeTag": 1
                                    }
                                }
                            ],
                            "typeTag": 4
                        }
                    }
                ]
            }
        ]
    }
}