{
    "balance_change": {
        "balanceChanges": [
            {
                "account": "0x84295d5e054d8cff5a22428b195f5a1615bd644f",
                "assets": [
                    {
                        "address": "0x8fdcc30eda7e94f1c12ce0280df6cd531e8365c5",
                        "amount": "105.02573013",
                        "iconUrl": "",
                        "isERC1155": false,
                        "isERC721": false,
                        "sign": false,
                        "value": ""
                    }
                ]
            },
            {
                "account": "0x462c5900c19882e5ffcc0b70181ce73c0013db3b",
                "assets": [
                    {
                        "address": "0x8fdcc30eda7e94f1c12ce0280df6cd531e8365c5",
                        "amount": "105.02573013",
                        "iconUrl": "",
                        "isERC1155": false,
                        "isERC721": false,
                        "sign": true,
                        "value": ""
                    }
                ]
            }
        ]
    },
    "profile": {
        "basic_info": {
            "baseFee": "",
            "blockNumber": 7784558,
            "callData": "0xa9059cbb000000000000000000000000462c5900c19882e5ffcc0b70181ce73c0013db3b000000000000000000000000000000000000000000000005b186591a62b0b400",
            "debugEnable": true,
            "errorInfo": "",
            "eventCount": 1,
            "feeRecipient": "0x829bd824b016326a401d083b33d092293333a830",
            "formatValue": "0",
            "gasLimit": 90000,
            "gasPrice": "4",
            "gasUsed": 37116,
            "intTxnCount": 0,
            "internalRevert": false,
            "internalRevertMessage": "",
            "isContractCreation": false,
            "isFlashloan": false,
            "maxFee": "",
            "nonce": 523276,
            "overwritedBlockNumber": -1,
            "priorityFee": "",
            "receiver": "0x8fdcc30eda7e94f1c12ce0280df6cd531e8365c5",
            "revertMessage": "",
            "sender": "0x84295d5e054d8cff5a22428b195f5a1615bd644f",
            "simulationEnable": true,
            "sourceTxnHash": "0x0c6948ed3f7ab137cadcfd4741cc880763565217e2b9c64289700b0022c6da33",
            "status": true,
            "timestamp": "2019-05-18T14:04:18Z",
            "transactionFee": "0.000148464",
            "txnHash": "0x0c6948ed3f7ab137cadcfd4741cc880763565217e2b9c64289700b0022c6da33",
            "txnIndex": 76,
            "type": 0,
            "value": "0"
        },
        "fund_flow": [
            {
                "amount": "105.02573013",
                "from": "0x84295d5e054d8cff5a22428b195f5a1615bd644f",
                "id": 1,
                "isERC1155": false,
                "isERC721": false,
                "isReverted": false,
                "order": 1,
                "to": "0x462c5900c19882e5ffcc0b70181ce73c0013db3b",
                "token": "0x8fdcc30eda7e94f1c12ce0280df6cd531e8365c5"
            }
        ],
        "token_infos": [
            {
                "address": "0x8fdcc30eda7e94f1c12ce0280df6cd531e8365c5",
                "decimals": 18
            },
            {
                "address": "0xc02aaa39b223fe8d0a0e5c4f27ead9083c756cc2",
                "decimals": 18
            },
            {
                "address": "0xeeeeeeeeeeeeeeeeeeeeeeeeeeeeeeeeeeeeeeee",
                "decimals": 18
            }
        ]
    },
    "address_label": {
        "labels": [
            {
                "address": "0x0000000000000000000000000000000000000004",
                "label": "Precompiled"
            },
            {
                "address": "0xeeeeeeeeeeeeeeeeeeeeeeeeeeeeeeeeeeeeeeee",
                "label": "Ether"
            },
            {
                "address": "0x8fdcc30eda7e94f1c12ce0280df6cd531e8365c5",
                "label": "CpcToken (CPCT)"
            },
            {
                "address": "0x0000000000000000000000000000000000000001",
                "label": "Precompiled"
            },
            {
                "address": "0x0000000000000000000000000000000000000002",
                "label": "Precompiled"
            },
            {
                "address": "0x0000000000000000000000000000000000000003",
                "label": "Precompiled"
            }
        ]
    },
    "trace": {
        "accountLabels": null,
        "dataMap": {
            "-1": {
                "invocation": {
                    "address": "0x84295d5e054d8cff5a22428b195f5a1615bd644f",
                    "callData": "",
                    "decodedMethod": null,
                    "errorInfo": "",
                    "fromAddress": "",
                    "gasUsed": 0,
                    "id": -1,
                    "methodDecoded": false,
                    "operation": "",
                    "output": "",
                    "revert": false,
                    "revertMessage": "",
                    "selector": "",
                    "status": false,
                    "value": ""
                },
                "nodeType": 0
            },
            "0": {
                "invocation": {
                    "address": "0x8fdcc30eda7e94f1c12ce0280df6cd531e8365c5",
                    "callData": "0x000000000000000000000000462c5900c19882e5ffcc0b70181ce73c0013db3b000000000000000000000000000000000000000000000005b186591a62b0b400",
                    "decodedMethod": {
                        "callParams": [
                            {
                                "name": "_to",
                                "type": "address",
                                "value": "0x462c5900c19882e5ffcc0b70181ce73c0013db3b"
                            },
                            {
                                "decimalAvailable": true,
                                "name": "_value",
                                "type": "uint256",
                                "value": "105,025,730,130,000,000,000"
                            }
                        ],
                        "constructorArguments": "",
                        "name": "transfer",
                        "returnParams": [
                            {
                                "name": "success",
                                "type": "bool",
                                "value": true
                            }
                        ],
                        "signature": "transfer(address,uint256)"
                    },
                    "errorInfo": "",
                    "fromAddress": "0x84295d5e054d8cff5a22428b195f5a1615bd644f",
                    "gasUsed": 37116,
                    "id": 0,
                    "methodDecoded": true,
                    "operation": "CALL",
                    "output": "0x0000000000000000000000000000000000000000000000000000000000000001",
                    "revert": false,
                    "revertMessage": "",
                    "selector": "0xa9059cbb",
                    "status": true,
                    "value": "0"
                },
                "nodeType": 0
            },
            "1": {
                "event": {
                    "contract": "0x8fdcc30eda7e94f1c12ce0280df6cd531e8365c5",
                    "decodedLog": {
                        "name": "Transfer",
                        "params": [
                            {
                                "name": "_from",
                                "type": "address",
                                "value": "0x84295d5e054d8cff5a22428b195f5a1615bd644f"
                            },
                            {
                                "name": "_to",
                                "type": "address",
                                "value": "0x462c5900c19882e5ffcc0b70181ce73c0013db3b"
                            },
                            {
                                "decimalAvailable": true,
                                "name": "_value",
                                "type": "uint256",
                                "value": "105,025,730,130,000,000,000"
                            }
                        ],
                        "signature": "Transfer(address,address,uint256)"
                    },
                    "id": 1,
                    "logData": "0x000000000000000000000000000000000000000000000005b186591a62b0b400",
                    "logDecoded": true,
                    "operation": "EVENT",
                    "revert": false,
                    "status": true,
                    "topics": [
                        "0xddf252ad1be2c89b69c2b068fc378daa952ba7f163c4a11628f55a4df523b3ef",
                        "0x00000000000000000000000084295d5e054d8cff5a22428b195f5a1615bd644f",
                        "0x000000000000000000000000462c5900c19882e5ffcc0b70181ce73c0013db3b"
                    ]
                },
                "nodeType": 1
            }
        },
        "gasFlame": [
            {
                "children": [
                    {
                        "children": [
                            {
                                "children": [],
                                "depth": 0,
                                "name": "Initial Gas",
                                "value": 23192
                            },
                            {
                                "children": [],
                                "depth": 0,
                                "name": "Executed Gas",
                                "value": 13924
                            }
                        ],
                        "depth": -1,
                        "name": "Actual Gas Used",
                        "value": 37116
                    },
                    {
                        "children": [],
                        "depth": -1,
                        "name": "Refunded Gas",
                        "value": 0
                    }
                ],
                "depth": -2,
                "name": "Total Gas",
                "value": 37116
            }
        ],
        "isConfirmed": true,
        "mainTrace": [
            {
                "children": [
                    {
                        "children": [
                            {
                                "children": [],
                                "depth": 1,
                                "id": 1,
                                "order": 1
                            }
                        ],
                        "depth": 0,
                        "id": 0,
                        "order": 0
                    }
                ],
                "depth": -1,
                "id": -1,
                "order": -1
            }
        ],
        "mainTraceNodeCount": 2,
        "parentIdMap": {
            "0": -1,
            "1": 0
        },
        "tidyTrace": [
            {
                "children": [
                    {
                        "children": [
                            {
                                "children": [],
                                "depth": 1,
                                "id": 1,
                                "order": 1
                            }
                        ],
                        "depth": 0,
                        "id": 0,
                        "order": 0
                    }
                ],
                "depth": -1,
                "id": -1,
                "order": -1
            }
        ],
        "tidyTraceNodeCount": 2
    },
    "state_change": {
        "stateChanges": [
            {
                "address": "0x8fdcc30eda7e94f1c12ce0280df6cd531e8365c5",
                "erc": "ERC-20",
                "slots": [
                    {
                        "current": "0x0000000000000000000000000000000000000000000222e074517176a6d098d1",
                        "key": "0x6e4fee96a2374e1333fc77db62e543f2a9d566d72bb3d224b61c7120b02d562f",
                        "prev": "0x0000000000000000000000000000000000000000000222e625d7ca9109814cd1"
                    },
                    {
                        "current": "0x0000000000000000000000000000000000000000000000ae5d453fb2701d4a78",
                        "key": "0x1e0a0f3499ea79bcbceb5540e2a103d627c7fc2cd2b92070f4024092ed31b81b",
                        "prev": "0x0000000000000000000000000000000000000000000000a8abbee6980d6c9678"
                    }
                ],
                "storageVariables": [
                    {
                        "name": "balances",
                        "type": "mapping(address => uint256)",
                        "value": {
                            "pairs": [
                                {
                                    "key": "0x462c5900c19882e5ffcc0b70181ce73c0013db3b",
                                    "value": {
                                        "current": "3216454316880000010872",
                                        "prev": "3111428586750000010872",
                                        "typeTag": 1
                                    }
                                },
                                {
                                    "key": "0x84295d5e054d8cff5a22428b195f5a1615bd644f",
                                    "value": {
                                        "current": "2582552551924473158211793",
                                        "prev": "2582657577654603158211793",
                                        "typeTag": 1
                                    }
                                }
                            ],
                            "typeTag": 4
                        }
                    }
                ]
            }
        ]
    }
}