{
    "balance_change": {
        "balanceChanges": []
    },
    "profile": {
        "basic_info": {
            "baseFee": "",
            "blockNumber": 8686263,
            "callData": "0x4ab0d190f95c0a9ae00cf270d84c56abe2111c9c8e46bd93cc18215de402c2e63b00eaf000000000000000000000000000000000000000000000000004a03ce68d21555500000000000000000000000079febf6b9f76853edbcbc913e6aae8232cfb9de96a9705b400000000000000000000000000000000000000000000000000000000000000000000000000000000000000000000000000000000000000005d9967ed0000000000000000000000000000000000000000000000000000000413cef574",
            "debugEnable": true,
            "errorInfo": "",
            "eventCount": 3,
            "feeRecipient": "0x5a0b54d5dc17e0aadc383d2db43b0a0d3e029c4c",
            "formatValue": "0",
            "gasLimit": 500000,
            "gasPrice": "20",
            "gasUsed": 93173,
            "intTxnCount": 1,
            "internalRevert": false,
            "internalRevertMessage": "",
            "isContractCreation": false,
            "isFlashloan": false,
            "maxFee": "",
            "nonce": 24969,
            "overwritedBlockNumber": -1,
            "priorityFee": "",
            "receiver": "0x4565300c576431e5228e8aa32642d5739cf9247d",
            "revertMessage": "",
            "sender": "0xd45727e3d7405c6ab3b2b3a57474012e1f998483",
            "simulationEnable": true,
            "sourceTxnHash": "0x0c9dd01485a2b4cd86ce1a94e49cfb20dcf6c3759202464ff2af9ecc87d2a6fc",
            "status": true,
            "timestamp": "2019-10-06T04:02:23Z",
            "transactionFee": "0.00186346",
            "txnHash": "0x0c9dd01485a2b4cd86ce1a94e49cfb20dcf6c3759202464ff2af9ecc87d2a6fc",
            "txnIndex": 61,
            "type": 0,
            "value": "0"
        },
        "fund_flow": [],
        "token_infos": [
            {
                "address": "0xc02aaa39b223fe8d0a0e5c4f27ead9083c756cc2",
                "decimals": 18
            },
            {
                "address": "0xeeeeeeeeeeeeeeeeeeeeeeeeeeeeeeeeeeeeeeee",
                "decimals": 18
            }
        ]
    },
    "address_label": {
        "labels": [
            {
                "address": "0xeeeeeeeeeeeeeeeeeeeeeeeeeeeeeeeeeeeeeeee",
                "label": "Ether"
            },
            {
                "address": "0x79febf6b9f76853edbcbc913e6aae8232cfb9de9",
                "label": "Chainlink: Aggregator"
            },
            {
                "address": "0x0000000000000000000000000000000000000001",
                "label": "Precompiled"
            },
            {
                "address": "0x0000000000000000000000000000000000000002",
                "label": "Precompiled"
            },
            {
                "address": "0x0000000000000000000000000000000000000003",
                "label": "Precompiled"
            },
            {
                "address": "0x0000000000000000000000000000000000000004",
                "label": "Precompiled"
            }
        ]
    },
    "trace": {
        "accountLabels": null,
        "dataMap": {
            "-1": {
                "invocation": {
                    "address": "0xd45727e3d7405c6ab3b2b3a57474012e1f998483",
                    "callData": "",
                    "decodedMethod": null,
                    "errorInfo": "",
                    "fromAddress": "",
                    "gasUsed": 0,
                    "id": -1,
                    "methodDecoded": false,
                    "operation": "",
                    "output": "",
                    "revert": false,
                    "revertMessage": "",
                    "selector": "",
                    "status": false,
                    "value": ""
                },
                "nodeType": 0
            },
            "0": {
                "invocation": {
                    "address": "0x4565300c576431e5228e8aa32642d5739cf9247d",
                    "callData": "0xf95c0a9ae00cf270d84c56abe2111c9c8e46bd93cc18215de402c2e63b00eaf000000000000000000000000000000000000000000000000004a03ce68d21555500000000000000000000000079febf6b9f76853edbcbc913e6aae8232cfb9de96a9705b400000000000000000000000000000000000000000000000000000000000000000000000000000000000000000000000000000000000000005d9967ed0000000000000000000000000000000000000000000000000000000413cef574",
                    "decodedMethod": {
                        "callParams": [
                            {
                                "name": "requestId",
                                "type": "bytes32",
                                "value": "0xf95c0a9ae00cf270d84c56abe2111c9c8e46bd93cc18215de402c2e63b00eaf0"
                            },
                            {
                                "name": "payment",
                                "type": "uint256",
                                "value": "333,333,333,333,333,333"
                            },
                            {
                                "name": "callbackAddress",
                                "type": "address",
                                "value": "0x79febf6b9f76853edbcbc913e6aae8232cfb9de9"
                            },
                            {
                                "name": "callbackFunctionId",
                                "type": "bytes4",
                                "value": "0x6a9705b4"
                            },
                            {
                                "name": "expiration",
                                "type": "uint256",
                                "value": "1,570,334,701"
                            },
                            {
                                "name": "data",
                                "type": "bytes32",
                                "value": "0x0000000000000000000000000000000000000000000000000000000413cef574"
                            }
                        ],
                        "constructorArguments": "",
                        "name": "fulfillOracleRequest",
                        "returnParams": [
                            {
                                "name": "",
                                "type": "bool",
                                "value": true
                            }
                        ],
                        "signature": "fulfillOracleRequest(bytes32,uint256,address,bytes4,uint256,bytes32)"
                    },
                    "errorInfo": "",
                    "fromAddress": "0xd45727e3d7405c6ab3b2b3a57474012e1f998483",
                    "gasUsed": 93173,
                    "id": 0,
                    "methodDecoded": true,
                    "operation": "CALL",
                    "output": "0x0000000000000000000000000000000000000000000000000000000000000001",
                    "revert": false,
                    "revertMessage": "",
                    "selector": "0x4ab0d190",
                    "status": true,
                    "value": "0"
                },
                "nodeType": 0
            },
            "1": {
                "invocation": {
                    "address": "0x79febf6b9f76853edbcbc913e6aae8232cfb9de9",
                    "callData": "0xf95c0a9ae00cf270d84c56abe2111c9c8e46bd93cc18215de402c2e63b00eaf00000000000000000000000000000000000000000000000000000000413cef574",
                    "decodedMethod": {
                        "callParams": [
                            {
                                "name": "_clRequestId",
                                "type": "bytes32",
                                "value": "0xf95c0a9ae00cf270d84c56abe2111c9c8e46bd93cc18215de402c2e63b00eaf0"
                            },
                            {
                                "name": "_response",
                                "type": "int256",
                                "value": "17,512,199,540"
                            }
                        ],
                        "constructorArguments": "",
                        "name": "chainlinkCallback",
                        "returnParams": [],
                        "signature": "chainlinkCallback(bytes32,int256)"
                    },
                    "errorInfo": "",
                    "fromAddress": "0x4565300c576431e5228e8aa32642d5739cf9247d",
                    "gasUsed": 97339,
                    "id": 1,
                    "methodDecoded": true,
                    "operation": "CALL",
                    "output": "",
                    "revert": false,
                    "revertMessage": "",
                    "selector": "0x6a9705b4",
                    "status": true,
                    "value": "0"
                },
                "nodeType": 0
            },
            "2": {
                "event": {
                    "contract": "0x79febf6b9f76853edbcbc913e6aae8232cfb9de9",
                    "decodedLog": {
                        "name": "ChainlinkFulfilled",
                        "params": [
                            {
                                "name": "id",
                                "type": "bytes32",
                                "value": "0xf95c0a9ae00cf270d84c56abe2111c9c8e46bd93cc18215de402c2e63b00eaf0"
                            }
                        ],
                        "signature": "ChainlinkFulfilled(bytes32)"
                    },
                    "id": 2,
                    "logData": "0x",
                    "logDecoded": true,
                    "operation": "EVENT",
                    "revert": false,
                    "status": true,
                    "topics": [
                        "0x7cc135e0cebb02c3480ae5d74d377283180a2601f8f644edf7987b009316c63a",
                        "0xf95c0a9ae00cf270d84c56abe2111c9c8e46bd93cc18215de402c2e63b00eaf0"
                    ]
                },
                "nodeType": 1
            },
            "3": {
                "event": {
                    "contract": "0x79febf6b9f76853edbcbc913e6aae8232cfb9de9",
                    "decodedLog": {
                        "name": "ResponseReceived",
                        "params": [
                            {
                                "name": "response",
                                "type": "int256",
                                "value": "17,512,199,540"
                            },
                            {
                                "name": "answerId",
                                "type": "uint256",
                                "value": "37,033"
                            },
                            {
                                "name": "sender",
                                "type": "address",
                                "value": "0x4565300c576431e5228e8aa32642d5739cf9247d"
                            }
                        ],
                        "signature": "ResponseReceived(int256,uint256,address)"
                    },
                    "id": 3,
                    "logData": "0x",
                    "logDecoded": true,
                    "operation": "EVENT",
                    "revert": false,
                    "status": true,
                    "topics": [
                        "0xb51168059c83c860caf5b830c5d2e64c2172c6fb2fe9f25447d9838e18d93b60",
                        "0x0000000000000000000000000000000000000000000000000000000413cef574",
                        "0x00000000000000000000000000000000000000000000000000000000000090a9",
                        "0x0000000000000000000000004565300c576431e5228e8aa32642d5739cf9247d"
                    ]
                },
                "nodeType": 1
            },
            "4": {
                "event": {
                    "contract": "0x79febf6b9f76853edbcbc913e6aae8232cfb9de9",
                    "decodedLog": {
                        "name": "AnswerUpdated",
                        "params": [
                            {
                                "name": "current",
                                "type": "int256",
                                "value": "17,512,765,685"
                            },
                            {
                                "name": "answerId",
                                "type": "uint256",
                                "value": "37,033"
                            }
                        ],
                        "signature": "AnswerUpdated(int256,uint256)"
                    },
                    "id": 4,
                    "logData": "0x",
                    "logDecoded": true,
                    "operation": "EVENT",
                    "revert": false,
                    "status": true,
                    "topics": [
                        "0xc379d0e412d8792cf238c6c045bafec46b2bdad53a28ee4abce236ac6145ae84",
                        "0x0000000000000000000000000000000000000000000000000000000413d798f5",
                        "0x00000000000000000000000000000000000000000000000000000000000090a9"
                    ]
                },
                "nodeType": 1
            }
        },
        "gasFlame": [
            {
                "children": [
                    {
                        "children": [
                            {
                                "children": [],
                                "depth": 0,
                                "name": "Initial Gas",
                                "value": 26648
                            },
                            {
                                "children": [
                                    {
                                        "children": [],
                                        "depth": 1,
                                        "name": "chainlinkCallback",
                                        "value": 97339
                                    }
                                ],
                                "depth": 0,
                                "name": "Executed Gas",
                                "value": 111525
                            }
                        ],
                        "depth": -1,
                        "name": "Actual Gas Used",
                        "value": 93173
                    },
                    {
                        "children": [],
                        "depth": -1,
                        "name": "Refunded Gas",
                        "value": 45000
                    }
                ],
                "depth": -2,
                "name": "Total Gas",
                "value": 138173
            }
        ],
        "isConfirmed": true,
        "mainTrace": [
            {
                "children": [
                    {
                        "children": [
                            {
                                "children": [
                                    {
                                        "children": [],
                                        "depth": 2,
                                        "id": 2,
                                        "order": 2
                                    },
                                    {
                                        "children": [],
                                        "depth": 2,
                                        "id": 3,
                                        "order": 3
                                    },
                                    {
                                        "children": [],
                                        "depth": 2,
                                        "id": 4,
                                        "order": 4
                                    }
                                ],
                                "depth": 1,
                                "id": 1,
                                "order": 1
                            }
                        ],
                        "depth": 0,
                        "id": 0,
                        "order": 0
                    }
                ],
                "depth": -1,
                "id": -1,
                "order": -1
            }
        ],
        "mainTraceNodeCount": 5,
        "parentIdMap": {
            "0": -1,
            "1": 0,
            "2": 1,
            "3": 1,
            "4": 1
        },
        "tidyTrace": [
            {
                "children": [
                    {
                        "children": [
                            {
                                "children": [
                                    {
                                        "children": [],
                                        "depth": 2,
                                        "id": 2,
                                        "order": 2
                                    },
                                    {
                                        "children": [],
                                        "depth": 2,
                                        "id": 3,
                                        "order": 3
                                    },
                                    {
                                        "children": [],
                                        "depth": 2,
                                        "id": 4,
                                        "order": 4
                                    }
                                ],
                                "depth": 1,
                                "id": 1,
                                "order": 1
                            }
                        ],
                        "depth": 0,
                        "id": 0,
                        "order": 0
                    }
                ],
                "depth": -1,
                "id": -1,
                "order": -1
            }
        ],
        "tidyTraceNodeCount": 5
    },
    "state_change": {
        "stateChanges": [
            {
                "address": "0x4565300c576431e5228e8aa32642d5739cf9247d",
                "erc": "",
                "slots": [
                    {
                        "current": "0x000000000000000000000000000000000000000000000018a5c47c67f59aa8e5",
                        "key": "0x0000000000000000000000000000000000000000000000000000000000000004",
                        "prev": "0x000000000000000000000000000000000000000000000018a1243f8168795390"
                    },
                    {
                        "current": "0x0000000000000000000000000000000000000000000000000000000000000000",
                        "key": "0xedcc678cdd5b778e24d9538c8a2f3c696241a96caa65f3e5ab450728c8894f2d",
                        "prev": "0x924795c654e59356b23f5d693629bcb46c0d1343a3ce7a7235754bf39a4de2c7"
                    }
                ],
                "storageVariables": []
            },
            {
                "address": "0x79febf6b9f76853edbcbc913e6aae8232cfb9de9",
                "erc": "",
                "slots": [
                    {
                        "current": "0x0000000000000000000000000000000000000000000000000000000000000000",
                        "key": "0x5d384a1aa41a8177cdb2f8a1b017f13939be28d3a4bb8becf9fe979d8c5282e1",
                        "prev": "0x0000000000000000000000004565300c576431e5228e8aa32642d5739cf9247d"
                    },
                    {
                        "current": "0x0000000000000000000000000000000000000000000000000000000000000000",
                        "key": "0xd4bb4c54de74b761b367e0b92955719344907d93037d7283b860910f74570e38",
                        "prev": "0x00000000000000000000000000000000000000000000000000000000000090a9"
                    },
                    {
                        "current": "0x000000000000000000000000000000000000000000000000000000000000000e",
                        "key": "0x1c698a4b740ad7fe7938e453bca83f815acea6c855066f2c039f806ade3fe2b9",
                        "prev": "0x000000000000000000000000000000000000000000000000000000000000000d"
                    },
                    {
                        "current": "0x0000000000000000000000000000000000000000000000000000000413cef574",
                        "key": "0x1aedd23890d7703d25da42a2f3a57c110a4ef214edaa2b348e6da6b60b948f54",
                        "prev": "0x0000000000000000000000000000000000000000000000000000000000000000"
                    },
                    {
                        "current": "0x0000000000000000000000000000000000000000000000000000000413d798f5",
                        "key": "0x0000000000000000000000000000000000000000000000000000000000000007",
                        "prev": "0x0000000000000000000000000000000000000000000000000000000413dc0034"
                    }
                ],
                "storageVariables": [
                    {
                        "name": "requestAnswers",
                        "type": "mapping(bytes32 => uint256)",
                        "value": {
                            "pairs": [
                                {
                                    "key": "0xf95c0a9ae00cf270d84c56abe2111c9c8e46bd93cc18215de402c2e63b00eaf0",
                                    "value": {
                                        "current": "0",
                                        "prev": "37033",
                                        "typeTag": 1
                                    }
                                }
                            ],
                            "typeTag": 4
                        }
                    },
                    {
                        "name": "answers",
                        "type": "mapping(uint256 => struct Aggregator.Answer)",
                        "value": {
                            "pairs": [
                                {
                                    "key": "37033",
                                    "value": {
                                        "fields": [
                                            {
                                                "name": "responses",
                                                "type": "int256[]",
                                                "value": {
                                                    "elemType": "int256",
                                                    "elems": [
                                                        {
                                                            "index": 13,
                                                            "value": {
                                                                "current": "17512199540",
                                                                "prev": "0",
                                                                "typeTag": 1
                                                            }
                                                        }
                                                    ],
                                                    "typeTag": 2
                                                }
                                            }
                                        ],
                                        "typeTag": 3
                                    }
                                }
                            ],
                            "typeTag": 4
                        }
                    },
                    {
                        "name": "currentAnswer",
                        "type": "int256",
                        "value": {
                            "current": "17512765685",
                            "prev": "17513054260",
                            "typeTag": 1
                        }
                    },
                    {
                        "name": "pendingRequests",
                        "type": "mapping(bytes32 => address)",
                        "value": {
                            "pairs": [
                                {
                                    "key": "0xf95c0a9ae00cf270d84c56abe2111c9c8e46bd93cc18215de402c2e63b00eaf0",
                                    "value": {
                                        "current": "0x0000000000000000000000000000000000000000",
                                        "prev": "0x4565300c576431e5228e8aa32642d5739cf9247d",
                                        "typeTag": 1
                                    }
                                }
                            ],
                            "typeTag": 4
                        }
                    }
                ]
            }
        ]
    }
}