{
    "balance_change": {
        "balanceChanges": [
            {
                "account": "0xcbb82d22b1624761b62bd807b01b7d491da8b4f5",
                "assets": [
                    {
                        "address": "0x39cbe44fe0161785f643b53489a549d802478ddf",
                        "amount": "1",
                        "iconUrl": "",
                        "isERC1155": false,
                        "isERC721": true,
                        "sign": false,
                        "tokenID": "57",
                        "value": ""
                    },
                    {
                        "address": "0x08ba8cbbefa64aaf9df25e57fe3f15ecc277af74",
                        "amount": "1",
                        "iconUrl": "https://assets.blocksec.com/nft/icon/nft_bdcbe4b3-a420-4d02-b798-a554c4a90c47.png",
                        "isERC1155": false,
                        "isERC721": true,
                        "sign": true,
                        "tokenID": "57",
                        "value": ""
                    }
                ]
            },
            {
                "account": "0x0000000000000000000000000000000000000000",
                "assets": [
                    {
                        "address": "0x39cbe44fe0161785f643b53489a549d802478ddf",
                        "amount": "1",
                        "iconUrl": "",
                        "isERC1155": false,
                        "isERC721": true,
                        "sign": true,
                        "tokenID": "57",
                        "value": ""
                    }
                ]
            },
            {
                "account": "0x39cbe44fe0161785f643b53489a549d802478ddf",
                "assets": [
                    {
                        "address": "0x08ba8cbbefa64aaf9df25e57fe3f15ecc277af74",
                        "amount": "1",
                        "iconUrl": "https://assets.blocksec.com/nft/icon/nft_bdcbe4b3-a420-4d02-b798-a554c4a90c47.png",
                        "isERC1155": false,
                        "isERC721": true,
                        "sign": false,
                        "tokenID": "57",
                        "value": ""
                    }
                ]
            }
        ]
    },
    "profile": {
        "basic_info": {
            "baseFee": "18.602953351",
            "blockNumber": 16762128,
            "callData": "0x2e17de780000000000000000000000000000000000000000000000000000000000000039",
            "debugEnable": true,
            "errorInfo": "",
            "eventCount": 5,
            "feeRecipient": "0x4675c7e5baafbffbca748158becba61ef3b0a263",
            "formatValue": "0",
            "gasLimit": 120716,
            "gasPrice": "19.102953351",
            "gasUsed": 95086,
            "intTxnCount": 2,
            "internalRevert": false,
            "internalRevertMessage": "",
            "isContractCreation": false,
            "isFlashloan": false,
            "maxFee": "26.210243128",
            "nonce": 2390,
            "overwritedBlockNumber": -1,
            "priorityFee": "0.5",
            "receiver": "0x39cbe44fe0161785f643b53489a549d802478ddf",
            "revertMessage": "",
            "sender": "0xcbb82d22b1624761b62bd807b01b7d491da8b4f5",
            "simulationEnable": true,
            "sourceTxnHash": "0x0ce9a15685e3a6e827b5e7a8588623ee395741f68695219a8575c9930f9f7fcb",
            "status": true,
            "timestamp": "2023-03-05T12:14:35Z",
            "transactionFee": "0.001816423422333186",
            "txnHash": "0x0ce9a15685e3a6e827b5e7a8588623ee395741f68695219a8575c9930f9f7fcb",
            "txnIndex": 89,
            "type": 2,
            "value": "0"
        },
        "fund_flow": [
            {
                "amount": "1",
                "from": "0xcbb82d22b1624761b62bd807b01b7d491da8b4f5",
                "id": 1,
                "isERC1155": false,
                "isERC721": true,
                "isReverted": false,
                "order": 1,
                "to": "0x0000000000000000000000000000000000000000",
                "token": "0x39cbe44fe0161785f643b53489a549d802478ddf",
                "tokenID": "57"
            },
            {
                "amount": "1",
                "from": "0x39cbe44fe0161785f643b53489a549d802478ddf",
                "id": 2,
                "isERC1155": false,
                "isERC721": true,
                "isReverted": false,
                "order": 2,
                "to": "0xcbb82d22b1624761b62bd807b01b7d491da8b4f5",
                "token": "0x08ba8cbbefa64aaf9df25e57fe3f15ecc277af74",
                "tokenID": "57"
            }
        ],
        "token_infos": [
            {
                "address": "0xc02aaa39b223fe8d0a0e5c4f27ead9083c756cc2",
                "decimals": 18
            },
            {
                "address": "0xeeeeeeeeeeeeeeeeeeeeeeeeeeeeeeeeeeeeeeee",
                "decimals": 18
            }
        ]
    },
    "address_label": {
        "labels": [
            {
                "address": "0x0000000000000000000000000000000000000002",
                "label": "Precompiled"
            },
            {
                "address": "0x0000000000000000000000000000000000000003",
                "label": "Precompiled"
            },
            {
                "address": "0x0000000000000000000000000000000000000004",
                "label": "Precompiled"
            },
            {
                "address": "0xeeeeeeeeeeeeeeeeeeeeeeeeeeeeeeeeeeeeeeee",
                "label": "Ether"
            },
            {
                "address": "0x08ba8cbbefa64aaf9df25e57fe3f15ecc277af74",
                "label": "LaserCat NFT: Cat Token"
            },
            {
                "address": "0xc6f8ba0b5696bbb2b494a0f628db5740ce6ab5f8",
                "label": "CatHotel"
            },
            {
                "address": "0x39cbe44fe0161785f643b53489a549d802478ddf",
                "label": "StakeLaserCat (sCAT)"
            },
            {
                "address": "0x0000000000000000000000000000000000000001",
                "label": "Precompiled"
            }
        ]
    },
    "trace": {
        "accountLabels": null,
        "dataMap": {
            "-1": {
                "invocation": {
                    "address": "0xcbb82d22b1624761b62bd807b01b7d491da8b4f5",
                    "callData": "",
                    "decodedMethod": null,
                    "errorInfo": "",
                    "fromAddress": "",
                    "gasUsed": 0,
                    "id": -1,
                    "methodDecoded": false,
                    "operation": "",
                    "output": "",
                    "revert": false,
                    "revertMessage": "",
                    "selector": "",
                    "status": false,
                    "value": ""
                },
                "nodeType": 0
            },
            "0": {
                "invocation": {
                    "address": "0x39cbe44fe0161785f643b53489a549d802478ddf",
                    "callData": "0x0000000000000000000000000000000000000000000000000000000000000039",
                    "decodedMethod": {
                        "callParams": [
                            {
                                "name": "_catId",
                                "type": "uint256",
                                "value": "57"
                            }
                        ],
                        "constructorArguments": "",
                        "name": "unstake",
                        "returnParams": [],
                        "signature": "unstake(uint256)"
                    },
                    "errorInfo": "",
                    "fromAddress": "0xcbb82d22b1624761b62bd807b01b7d491da8b4f5",
                    "gasUsed": 95086,
                    "id": 0,
                    "methodDecoded": true,
                    "operation": "CALL",
                    "output": "",
                    "revert": false,
                    "revertMessage": "",
                    "selector": "0x2e17de78",
                    "status": true,
                    "value": "0"
                },
                "nodeType": 0
            },
            "1": {
                "invocation": {
                    "address": "0xc6f8ba0b5696bbb2b494a0f628db5740ce6ab5f8",
                    "callData": "0x0000000000000000000000000000000000000000000000000000000000000039",
                    "decodedMethod": {
                        "callParams": [
                            {
                                "name": "_catId",
                                "type": "uint256",
                                "value": "57"
                            }
                        ],
                        "constructorArguments": "",
                        "name": "unstake",
                        "returnParams": [],
                        "signature": "unstake(uint256)"
                    },
                    "errorInfo": "",
                    "fromAddress": "0x39cbe44fe0161785f643b53489a549d802478ddf",
                    "gasUsed": 90987,
                    "id": 1,
                    "methodDecoded": true,
                    "operation": "DELEGATECALL",
                    "output": "",
                    "revert": false,
                    "revertMessage": "",
                    "selector": "0x2e17de78",
                    "status": true,
                    "value": "0"
                },
                "nodeType": 0
            },
            "2": {
                "event": {
                    "contract": "0x39cbe44fe0161785f643b53489a549d802478ddf",
                    "decodedLog": {
                        "name": "Approval",
                        "params": [
                            {
                                "name": "owner",
                                "type": "address",
                                "value": "0xcbb82d22b1624761b62bd807b01b7d491da8b4f5"
                            },
                            {
                                "name": "approved",
                                "type": "address",
                                "value": "0x0000000000000000000000000000000000000000"
                            },
                            {
                                "decimalAvailable": true,
                                "name": "tokenId",
                                "type": "uint256",
                                "value": "57"
                            }
                        ],
                        "signature": "Approval(address,address,uint256)"
                    },
                    "id": 2,
                    "logData": "0x",
                    "logDecoded": true,
                    "operation": "EVENT",
                    "revert": false,
                    "status": true,
                    "topics": [
                        "0x8c5be1e5ebec7d5bd14f71427d1e84f3dd0314c0f7b2291e5b200ac8c7c3b925",
                        "0x000000000000000000000000cbb82d22b1624761b62bd807b01b7d491da8b4f5",
                        "0x0000000000000000000000000000000000000000000000000000000000000000",
                        "0x0000000000000000000000000000000000000000000000000000000000000039"
                    ]
                },
                "nodeType": 1
            },
            "3": {
                "event": {
                    "contract": "0x39cbe44fe0161785f643b53489a549d802478ddf",
                    "decodedLog": {
                        "name": "Transfer",
                        "params": [
                            {
                                "name": "from",
                                "type": "address",
                                "value": "0xcbb82d22b1624761b62bd807b01b7d491da8b4f5"
                            },
                            {
                                "name": "to",
                                "type": "address",
                                "value": "0x0000000000000000000000000000000000000000"
                            },
                            {
                                "decimalAvailable": true,
                                "name": "tokenId",
                                "type": "uint256",
                                "value": "57"
                            }
                        ],
                        "signature": "Transfer(address,address,uint256)"
                    },
                    "id": 3,
                    "logData": "0x",
                    "logDecoded": true,
                    "operation": "EVENT",
                    "revert": false,
                    "status": true,
                    "topics": [
                        "0xddf252ad1be2c89b69c2b068fc378daa952ba7f163c4a11628f55a4df523b3ef",
                        "0x000000000000000000000000cbb82d22b1624761b62bd807b01b7d491da8b4f5",
                        "0x0000000000000000000000000000000000000000000000000000000000000000",
                        "0x0000000000000000000000000000000000000000000000000000000000000039"
                    ]
                },
                "nodeType": 1
            },
            "4": {
                "invocation": {
                    "address": "0x08ba8cbbefa64aaf9df25e57fe3f15ecc277af74",
                    "callData": "0x00000000000000000000000039cbe44fe0161785f643b53489a549d802478ddf000000000000000000000000cbb82d22b1624761b62bd807b01b7d491da8b4f50000000000000000000000000000000000000000000000000000000000000039",
                    "decodedMethod": {
                        "callParams": [
                            {
                                "name": "from",
                                "type": "address",
                                "value": "0x39cbe44fe0161785f643b53489a549d802478ddf"
                            },
                            {
                                "name": "to",
                                "type": "address",
                                "value": "0xcbb82d22b1624761b62bd807b01b7d491da8b4f5"
                            },
                            {
                                "name": "tokenId",
                                "type": "uint256",
                                "value": "57"
                            }
                        ],
                        "constructorArguments": "",
                        "name": "safeTransferFrom",
                        "returnParams": [],
                        "signature": "safeTransferFrom(address,address,uint256)"
                    },
                    "errorInfo": "",
                    "fromAddress": "0x39cbe44fe0161785f643b53489a549d802478ddf",
                    "gasUsed": 28486,
                    "id": 4,
                    "methodDecoded": true,
                    "operation": "CALL",
                    "output": "",
                    "revert": false,
                    "revertMessage": "",
                    "selector": "0x42842e0e",
                    "status": true,
                    "value": "0"
                },
                "nodeType": 0
            },
            "5": {
                "event": {
                    "contract": "0x08ba8cbbefa64aaf9df25e57fe3f15ecc277af74",
                    "decodedLog": {
                        "name": "Approval",
                        "params": [
                            {
                                "name": "owner",
                                "type": "address",
                                "value": "0x39cbe44fe0161785f643b53489a549d802478ddf"
                            },
                            {
                                "name": "approved",
                                "type": "address",
                                "value": "0x0000000000000000000000000000000000000000"
                            },
                            {
                                "decimalAvailable": true,
                                "name": "tokenId",
                                "type": "uint256",
                                "value": "57"
                            }
                        ],
                        "signature": "Approval(address,address,uint256)"
                    },
                    "id": 5,
                    "logData": "0x",
                    "logDecoded": true,
                    "operation": "EVENT",
                    "revert": false,
                    "status": true,
                    "topics": [
                        "0x8c5be1e5ebec7d5bd14f71427d1e84f3dd0314c0f7b2291e5b200ac8c7c3b925",
                        "0x00000000000000000000000039cbe44fe0161785f643b53489a549d802478ddf",
                        "0x0000000000000000000000000000000000000000000000000000000000000000",
                        "0x0000000000000000000000000000000000000000000000000000000000000039"
                    ]
                },
                "nodeType": 1
            },
            "6": {
                "event": {
                    "contract": "0x08ba8cbbefa64aaf9df25e57fe3f15ecc277af74",
                    "decodedLog": {
                        "name": "Transfer",
                        "params": [
                            {
                                "name": "from",
                                "type": "address",
                                "value": "0x39cbe44fe0161785f643b53489a549d802478ddf"
                            },
                            {
                                "name": "to",
                                "type": "address",
                                "value": "0xcbb82d22b1624761b62bd807b01b7d491da8b4f5"
                            },
                            {
                                "decimalAvailable": true,
                                "name": "tokenId",
                                "type": "uint256",
                                "value": "57"
                            }
                        ],
                        "signature": "Transfer(address,address,uint256)"
                    },
                    "id": 6,
                    "logData": "0x",
                    "logDecoded": true,
                    "operation": "EVENT",
                    "revert": false,
                    "status": true,
                    "topics": [
                        "0xddf252ad1be2c89b69c2b068fc378daa952ba7f163c4a11628f55a4df523b3ef",
                        "0x00000000000000000000000039cbe44fe0161785f643b53489a549d802478ddf",
                        "0x000000000000000000000000cbb82d22b1624761b62bd807b01b7d491da8b4f5",
                        "0x0000000000000000000000000000000000000000000000000000000000000039"
                    ]
                },
                "nodeType": 1
            },
            "7": {
                "event": {
                    "contract": "0x39cbe44fe0161785f643b53489a549d802478ddf",
                    "decodedLog": {
                        "name": "Unstaked",
                        "params": [
                            {
                                "name": "staker",
                                "type": "address",
                                "value": "0xcbb82d22b1624761b62bd807b01b7d491da8b4f5"
                            },
                            {
                                "name": "stakerUnstakeIndex",
                                "type": "uint256",
                                "value": "57"
                            },
                            {
                                "name": "amount",
                                "type": "uint256",
                                "value": "1,678,018,475"
                            }
                        ],
                        "signature": "Unstaked(address,uint256,uint256)"
                    },
                    "id": 7,
                    "logData": "0x00000000000000000000000000000000000000000000000000000000640487ab",
                    "logDecoded": true,
                    "operation": "EVENT",
                    "revert": false,
                    "status": true,
                    "topics": [
                        "0x7fc4727e062e336010f2c282598ef5f14facb3de68cf8195c2f23e1454b2b74e",
                        "0x000000000000000000000000cbb82d22b1624761b62bd807b01b7d491da8b4f5",
                        "0x0000000000000000000000000000000000000000000000000000000000000039"
                    ]
                },
                "nodeType": 1
            }
        },
        "gasFlame": [
            {
                "children": [
                    {
                        "children": [
                            {
                                "children": [],
                                "depth": 0,
                                "name": "Initial Gas",
                                "value": 21204
                            },
                            {
                                "children": [
                                    {
                                        "children": [
                                            {
                                                "children": [],
                                                "depth": 2,
                                                "name": "safeTransferFrom",
                                                "value": 28486
                                            }
                                        ],
                                        "depth": 1,
                                        "name": "unstake",
                                        "value": 90987
                                    }
                                ],
                                "depth": 0,
                                "name": "Executed Gas",
                                "value": 95882
                            }
                        ],
                        "depth": -1,
                        "name": "Actual Gas Used",
                        "value": 95086
                    },
                    {
                        "children": [],
                        "depth": -1,
                        "name": "Refunded Gas",
                        "value": 22000
                    }
                ],
                "depth": -2,
                "name": "Total Gas",
                "value": 117086
            }
        ],
        "isConfirmed": true,
        "mainTrace": [
            {
                "children": [
                    {
                        "children": [
                            {
                                "children": [
                                    {
                                        "children": [],
                                        "depth": 2,
                                        "id": 2,
                                        "order": 2
                                    },
                                    {
                                        "children": [],
                                        "depth": 2,
                                        "id": 3,
                                        "order": 3
                                    },
                                    {
                                        "children": [
                                            {
                                                "children": [],
                                                "depth": 3,
                                                "id": 5,
                                                "order": 5
                                            },
                                            {
                                                "children": [],
                                                "depth": 3,
                                                "id": 6,
                                                "order": 6
                                            }
                                        ],
                                        "depth": 2,
                                        "id": 4,
                                        "order": 4
                                    },
                                    {
                                        "children": [],
                                        "depth": 2,
                                        "id": 7,
                                        "order": 7
                                    }
                                ],
                                "depth": 1,
                                "id": 1,
                                "order": 1
                            }
                        ],
                        "depth": 0,
                        "id": 0,
                        "order": 0
                    }
                ],
                "depth": -1,
                "id": -1,
                "order": -1
            }
        ],
        "mainTraceNodeCount": 8,
        "parentIdMap": {
            "0": -1,
            "1": 0,
            "2": 1,
            "3": 1,
            "4": 1,
            "5": 4,
            "6": 4,
            "7": 1
        },
        "tidyTrace": [
            {
                "children": [
                    {
                        "children": [
                            {
                                "children": [
                                    {
                                        "children": [],
                                        "depth": 2,
                                        "id": 2,
                                        "order": 2
                                    },
                                    {
                                        "children": [],
                                        "depth": 2,
                                        "id": 3,
                                        "order": 3
                                    },
                                    {
                                        "children": [
                                            {
                                                "children": [],
                                                "depth": 3,
                                                "id": 5,
                                                "order": 5
                                            },
                                            {
                                                "children": [],
                                                "depth": 3,
                                                "id": 6,
                                                "order": 6
                                            }
                                        ],
                                        "depth": 2,
                                        "id": 4,
                                        "order": 4
                                    },
                                    {
                                        "children": [],
                                        "depth": 2,
                                        "id": 7,
                                        "order": 7
                                    }
                                ],
                                "depth": 1,
                                "id": 1,
                                "order": 1
                            }
                        ],
                        "depth": 0,
                        "id": 0,
                        "order": 0
                    }
                ],
                "depth": -1,
                "id": -1,
                "order": -1
            }
        ],
        "tidyTraceNodeCount": 8
    },
    "state_change": {
        "stateChanges": [
            {
                "address": "0x08ba8cbbefa64aaf9df25e57fe3f15ecc277af74",
                "erc": "ERC-721",
                "slots": [
                    {
                        "current": "0x000000000000000000000000000000000000000000000000000000000000019b",
                        "key": "0xd574e8a1e435ddf70b7c3e43c6b5594340835b0deca61c7b6f6a97398348e1d0",
                        "prev": "0x000000000000000000000000000000000000000000000000000000000000019c"
                    },
                    {
                        "current": "0x0000000000000000000000000000000100000000000000000000000000000001",
                        "key": "0x10706e430087f3a8b7d1932129a40962ff7a48e472aaac5033cbc4ac43903308",
                        "prev": "0x0000000000000000000000000000000100000000000000000000000000000000"
                    },
                    {
                        "current": "0x0000000000000000640487abcbb82d22b1624761b62bd807b01b7d491da8b4f5",
                        "key": "0x7328c223b526ac18a2ca34e3cc928d22c174fde8c81d65ae5d17c01763d134b1",
                        "prev": "0x000000000000000062214cab39cbe44fe0161785f643b53489a549d802478ddf"
                    }
                ],
                "storageVariables": [
                    {
                        "name": "_ownerships",
                        "type": "mapping(uint256 => struct ERC721A.TokenOwnership)",
                        "value": {
                            "pairs": [
                                {
                                    "key": "57",
                                    "value": {
                                        "fields": [
                                            {
                                                "name": "addr",
                                                "type": "address",
                                                "value": {
                                                    "current": "0xcbb82d22b1624761b62bd807b01b7d491da8b4f5",
                                                    "prev": "0x39cbe44fe0161785f643b53489a549d802478ddf",
                                                    "typeTag": 1
                                                }
                                            },
                                            {
                                                "name": "startTimestamp",
                                                "type": "uint64",
                                                "value": {
                                                    "current": "1678018475",
                                                    "prev": "1646349483",
                                                    "typeTag": 1
                                                }
                                            }
                                        ],
                                        "typeTag": 3
                                    }
                                }
                            ],
                            "typeTag": 4
                        }
                    },
                    {
                        "name": "_addressData",
                        "type": "mapping(address => struct ERC721A.AddressData)",
                        "value": {
                            "pairs": [
                                {
                                    "key": "0x39cbe44fe0161785f643b53489a549d802478ddf",
                                    "value": {
                                        "fields": [
                                            {
                                                "name": "balance",
                                                "type": "uint128",
                                                "value": {
                                                    "current": "411",
                                                    "prev": "412",
                                                    "typeTag": 1
                                                }
                                            },
                                            {
                                                "name": "numberMinted",
                                                "type": "uint128",
                                                "value": {
                                                    "current": "0",
                                                    "prev": "0",
                                                    "typeTag": 1
                                                }
                                            }
                                        ],
                                        "typeTag": 3
                                    }
                                },
                                {
                                    "key": "0xcbb82d22b1624761b62bd807b01b7d491da8b4f5",
                                    "value": {
                                        "fields": [
                                            {
                                                "name": "balance",
                                                "type": "uint128",
                                                "value": {
                                                    "current": "1",
                                                    "prev": "0",
                                                    "typeTag": 1
                                                }
                                            },
                                            {
                                                "name": "numberMinted",
                                                "type": "uint128",
                                                "value": {
                                                    "current": "1",
                                                    "prev": "1",
                                                    "typeTag": 1
                                                }
                                            }
                                        ],
                                        "typeTag": 3
                                    }
                                }
                            ],
                            "typeTag": 4
                        }
                    }
                ]
            },
            {
                "address": "0x39cbe44fe0161785f643b53489a549d802478ddf",
                "erc": "ERC-721",
                "slots": [
                    {
                        "current": "0x000000000000000000000000000000000000000000000000000000000000019b",
                        "key": "0x0000000000000000000000000000000000000000000000000000000000000192",
                        "prev": "0x000000000000000000000000000000000000000000000000000000000000019c"
                    },
                    {
                        "current": "0x0000000000000000000000000000000000000000000000000000000000000000",
                        "key": "0xe06d56ddcea1bf81843ee5cfc69705e570af885ad374aced729438483030d345",
                        "prev": "0x00000000000000000000000000000000000000000000000000000000000000b8"
                    },
                    {
                        "current": "0x0000000000000000000000000000000000000000000000000000000000000000",
                        "key": "0x2d871d2b4d421371d8fa57b0fc47ee377545ceafa5bbe86938b28e3dfc0773dc",
                        "prev": "0x0000000000000000000000000000000000000000000000000000000000000001"
                    },
                    {
                        "current": "0x0000000000000000000000000000000000000000000000000000000000000000",
                        "key": "0x2b9f2d89de2f511a54e37e56f4ffea3afc45fe55626afe2fcfee220f2449431a",
                        "prev": "0x000000000000000000000000cbb82d22b1624761b62bd807b01b7d491da8b4f5"
                    },
                    {
                        "current": "0x000000000000000000000000000000000000000000000000000000000000019b",
                        "key": "0xfcfced99f9d921eebdc59aa6f7a664084bd564a3d2d54ebc1a5c057c99c67b71",
                        "prev": "0x0000000000000000000000000000000000000000000000000000000000000039"
                    },
                    {
                        "current": "0x00000000000000000000000000000000000000000000000000000000000000b8",
                        "key": "0x31a1c9310b43ef49c4ea1adae97194e1b094d11f1e8ca82445c9d20c4e55d9c4",
                        "prev": "0x000000000000000000000000000000000000000000000000000000000000019c"
                    },
                    {
                        "current": "0x0000000000000000000000000000000000000000000000000000000000000000",
                        "key": "0xfcfced99f9d921eebdc59aa6f7a664084bd564a3d2d54ebc1a5c057c99c67c55",
                        "prev": "0x000000000000000000000000000000000000000000000000000000000000019b"
                    }
                ],
                "storageVariables": [
                    {
                        "name": "_balances",
                        "type": "mapping(address => uint256)",
                        "value": {
                            "pairs": [
                                {
                                    "key": "0xcbb82d22b1624761b62bd807b01b7d491da8b4f5",
                                    "value": {
                                        "current": "0",
                                        "prev": "1",
                                        "typeTag": 1
                                    }
                                }
                            ],
                            "typeTag": 4
                        }
                    },
                    {
                        "name": "_owners",
                        "type": "mapping(uint256 => address)",
                        "value": {
                            "pairs": [
                                {
                                    "key": "57",
                                    "value": {
                                        "current": "0x0000000000000000000000000000000000000000",
                                        "prev": "0xcbb82d22b1624761b62bd807b01b7d491da8b4f5",
                                        "typeTag": 1
                                    }
                                }
                            ],
                            "typeTag": 4
                        }
                    },
                    {
                        "name": "stakedTokenList",
                        "type": "struct EnumerableSetUpgradeable.UintSet",
                        "value": {
                            "fields": [
                                {
                                    "name": "_inner",
                                    "type": "struct EnumerableSetUpgradeable.Set",
                                    "value": {
                                        "fields": [
                                            {
                                                "name": "_values",
                                                "type": "bytes32[]",
                                                "value": {
                                                    "elemType": "bytes32",
                                                    "elems": [
                                                        {
                                                            "index": 183,
                                                            "value": {
                                                                "current": "0x000000000000000000000000000000000000000000000000000000000000019b",
                                                                "prev": "0x0000000000000000000000000000000000000000000000000000000000000039",
                                                                "typeTag": 1
                                                            }
                                                        }
                                                    ],
                                                    "typeTag": 2
                                                }
                                            },
                                            {
                                                "name": "_indexes",
                                                "type": "mapping(bytes32 => uint256)",
                                                "value": {
                                                    "pairs": [
                                                        {
                                                            "key": "0x0000000000000000000000000000000000000000000000000000000000000039",
                                                            "value": {
                                                                "current": "0",
                                                                "prev": "184",
                                                                "typeTag": 1
                                                            }
                                                        },
                                                        {
                                                            "key": "0x000000000000000000000000000000000000000000000000000000000000019b",
                                                            "value": {
                                                                "current": "184",
                                                                "prev": "412",
                                                                "typeTag": 1
                                                            }
                                                        }
                                                    ],
                                                    "typeTag": 4
                                                }
                                            }
                                        ],
                                        "typeTag": 3
                                    }
                                }
                            ],
                            "typeTag": 3
                        }
                    }
                ]
            }
        ]
    }
}