{
    "balance_change": {
        "balanceChanges": []
    },
    "profile": {
        "basic_info": {
            "baseFee": "125.987367515",
            "blockNumber": 13995274,
            "callData": "0xa22cb465000000000000000000000000f42aa99f011a1fa7cda90e5e98b277e306bca83e0000000000000000000000000000000000000000000000000000000000000001",
            "debugEnable": true,
            "errorInfo": "",
            "eventCount": 1,
            "feeRecipient": "0xea674fdde714fd979de3edf0f56aa9716b898ec8",
            "formatValue": "0",
            "gasLimit": 46769,
            "gasPrice": "127.487367515",
            "gasUsed": 46769,
            "intTxnCount": 0,
            "internalRevert": false,
            "internalRevertMessage": "",
            "isContractCreation": false,
            "isFlashloan": false,
            "maxFee": "146.341768188",
            "nonce": 94,
            "overwritedBlockNumber": -1,
            "priorityFee": "1.5",
            "receiver": "0xc49cd62d0a38bb06b72087e2ba889ae36ef1c873",
            "revertMessage": "",
            "sender": "0xc2ace1e2fee2d1e4b33261913d89caf657e99734",
            "simulationEnable": true,
            "sourceTxnHash": "0x0c81e1ee75c98975b1464e5344be6ec219ce715b5b6b8d2ebc7cae829cb35bbb",
            "status": true,
            "timestamp": "2022-01-13T05:21:51Z",
            "transactionFee": "0.005962456691309035",
            "txnHash": "0x0c81e1ee75c98975b1464e5344be6ec219ce715b5b6b8d2ebc7cae829cb35bbb",
            "txnIndex": 164,
            "type": 2,
            "value": "0"
        },
        "fund_flow": [],
        "token_infos": [
            {
                "address": "0xc02aaa39b223fe8d0a0e5c4f27ead9083c756cc2",
                "decimals": 18
            },
            {
                "address": "0xeeeeeeeeeeeeeeeeeeeeeeeeeeeeeeeeeeeeeeee",
                "decimals": 18
            }
        ]
    },
    "address_label": {
        "labels": [
            {
                "address": "0xf42aa99f011a1fa7cda90e5e98b277e306bca83e",
                "label": "LooksRare: Transfer Manager ERC 721"
            },
            {
                "address": "0x0000000000000000000000000000000000000001",
                "label": "Precompiled"
            },
            {
                "address": "0x0000000000000000000000000000000000000002",
                "label": "Precompiled"
            },
            {
                "address": "0x0000000000000000000000000000000000000003",
                "label": "Precompiled"
            },
            {
                "address": "0x0000000000000000000000000000000000000004",
                "label": "Precompiled"
            },
            {
                "address": "0xeeeeeeeeeeeeeeeeeeeeeeeeeeeeeeeeeeeeeeee",
                "label": "Ether"
            },
            {
                "address": "0xc49cd62d0a38bb06b72087e2ba889ae36ef1c873",
                "label": "The Vogu: MUTTS: MUTTS Token"
            }
        ]
    },
    "trace": {
        "accountLabels": null,
        "dataMap": {
            "-1": {
                "invocation": {
                    "address": "0xc2ace1e2fee2d1e4b33261913d89caf657e99734",
                    "callData": "",
                    "decodedMethod": null,
                    "errorInfo": "",
                    "fromAddress": "",
                    "gasUsed": 0,
                    "id": -1,
                    "methodDecoded": false,
                    "operation": "",
                    "output": "",
                    "revert": false,
                    "revertMessage": "",
                    "selector": "",
                    "status": false,
                    "value": ""
                },
                "nodeType": 0
            },
            "0": {
                "invocation": {
                    "address": "0xc49cd62d0a38bb06b72087e2ba889ae36ef1c873",
                    "callData": "0x000000000000000000000000f42aa99f011a1fa7cda90e5e98b277e306bca83e0000000000000000000000000000000000000000000000000000000000000001",
                    "decodedMethod": {
                        "callParams": [
                            {
                                "name": "operator",
                                "type": "address",
                                "value": "0xf42aa99f011a1fa7cda90e5e98b277e306bca83e"
                            },
                            {
                                "name": "approved",
                                "type": "bool",
                                "value": true
                            }
                        ],
                        "constructorArguments": "",
                        "name": "setApprovalForAll",
                        "returnParams": [],
                        "signature": "setApprovalForAll(address,bool)"
                    },
                    "errorInfo": "",
                    "fromAddress": "0xc2ace1e2fee2d1e4b33261913d89caf657e99734",
                    "gasUsed": 46769,
                    "id": 0,
                    "methodDecoded": true,
                    "operation": "CALL",
                    "output": "",
                    "revert": false,
                    "revertMessage": "",
                    "selector": "0xa22cb465",
                    "status": true,
                    "value": "0"
                },
                "nodeType": 0
            },
            "1": {
                "event": {
                    "contract": "0xc49cd62d0a38bb06b72087e2ba889ae36ef1c873",
                    "decodedLog": {
                        "name": "ApprovalForAll",
                        "params": [
                            {
                                "name": "owner",
                                "type": "address",
                                "value": "0xc2ace1e2fee2d1e4b33261913d89caf657e99734"
                            },
                            {
                                "name": "operator",
                                "type": "address",
                                "value": "0xf42aa99f011a1fa7cda90e5e98b277e306bca83e"
                            },
                            {
                                "name": "approved",
                                "type": "bool",
                                "value": true
                            }
                        ],
                        "signature": "ApprovalForAll(address,address,bool)"
                    },
                    "id": 1,
                    "logData": "0x0000000000000000000000000000000000000000000000000000000000000001",
                    "logDecoded": true,
                    "operation": "EVENT",
                    "revert": false,
                    "status": true,
                    "topics": [
                        "0x17307eab39ab6107e8899845ad3d59bd9653f200f220920489ca2b5937696c31",
                        "0x000000000000000000000000c2ace1e2fee2d1e4b33261913d89caf657e99734",
                        "0x000000000000000000000000f42aa99f011a1fa7cda90e5e98b277e306bca83e"
                    ]
                },
                "nodeType": 1
            }
        },
        "gasFlame": [
            {
                "children": [
                    {
                        "children": [
                            {
                                "children": [],
                                "depth": 0,
                                "name": "Initial Gas",
                                "value": 21572
                            },
                            {
                                "children": [],
                                "depth": 0,
                                "name": "Executed Gas",
                                "value": 25197
                            }
                        ],
                        "depth": -1,
                        "name": "Actual Gas Used",
                        "value": 46769
                    },
                    {
                        "children": [],
                        "depth": -1,
                        "name": "Refunded Gas",
                        "value": 0
                    }
                ],
                "depth": -2,
                "name": "Total Gas",
                "value": 46769
            }
        ],
        "isConfirmed": true,
        "mainTrace": [
            {
                "children": [
                    {
                        "children": [
                            {
                                "children": [],
                                "depth": 1,
                                "id": 1,
                                "order": 1
                            }
                        ],
                        "depth": 0,
                        "id": 0,
                        "order": 0
                    }
                ],
                "depth": -1,
                "id": -1,
                "order": -1
            }
        ],
        "mainTraceNodeCount": 2,
        "parentIdMap": {
            "0": -1,
            "1": 0
        },
        "tidyTrace": [
            {
                "children": [
                    {
                        "children": [
                            {
                                "children": [],
                                "depth": 1,
                                "id": 1,
                                "order": 1
                            }
                        ],
                        "depth": 0,
                        "id": 0,
                        "order": 0
                    }
                ],
                "depth": -1,
                "id": -1,
                "order": -1
            }
        ],
        "tidyTraceNodeCount": 2
    },
    "state_change": {
        "stateChanges": [
            {
                "address": "0xc49cd62d0a38bb06b72087e2ba889ae36ef1c873",
                "erc": "ERC-721",
                "slots": [
                    {
                        "current": "0x0000000000000000000000000000000000000000000000000000000000000001",
                        "key": "0xdcf93ac3a68d6ef1bdfe801015722e63a00ae1689a5ee21bb064ecbc20b18dc0",
                        "prev": "0x0000000000000000000000000000000000000000000000000000000000000000"
                    }
                ],
                "storageVariables": [
                    {
                        "name": "_operatorApprovals",
                        "type": "mapping(address => mapping(address => bool))",
                        "value": {
                            "pairs": [
                                {
                                    "key": "0xc2ace1e2fee2d1e4b33261913d89caf657e99734",
                                    "value": {
                                        "pairs": [
                                            {
                                                "key": "0xf42aa99f011a1fa7cda90e5e98b277e306bca83e",
                                                "value": {
                                                    "current": "true",
                                                    "prev": "false",
                                                    "typeTag": 1
                                                }
                                            }
                                        ],
                                        "typeTag": 4
                                    }
                                }
                            ],
                            "typeTag": 4
                        }
                    }
                ]
            }
        ]
    }
}