{
    "balance_change": {
        "balanceChanges": [
            {
                "account": "0x6ca49599126abeafd8df62a77e1da6226b83d44b",
                "assets": [
                    {
                        "address": "0xeeeeeeeeeeeeeeeeeeeeeeeeeeeeeeeeeeeeeeee",
                        "amount": "0.299",
                        "iconUrl": "https://assets.blocksec.com/image/1663669189317-3.png",
                        "isERC1155": false,
                        "isERC721": false,
                        "sign": false,
                        "value": ""
                    },
                    {
                        "address": "0x3f4a885ed8d9cdf10f3349357e3b243f3695b24a",
                        "amount": "1",
                        "iconUrl": "",
                        "isERC1155": false,
                        "isERC721": true,
                        "sign": true,
                        "tokenID": "5269",
                        "value": ""
                    }
                ]
            },
            {
                "account": "0x2eff303377b9e01e042b7f80fb42836b35fb1a49",
                "assets": [
                    {
                        "address": "0xeeeeeeeeeeeeeeeeeeeeeeeeeeeeeeeeeeeeeeee",
                        "amount": "0.276575",
                        "iconUrl": "https://assets.blocksec.com/image/1663669189317-3.png",
                        "isERC1155": false,
                        "isERC721": false,
                        "sign": true,
                        "value": ""
                    },
                    {
                        "address": "0x3f4a885ed8d9cdf10f3349357e3b243f3695b24a",
                        "amount": "1",
                        "iconUrl": "",
                        "isERC1155": false,
                        "isERC721": true,
                        "sign": false,
                        "tokenID": "5269",
                        "value": ""
                    }
                ]
            },
            {
                "account": "0x5b3256965e7c3cf26e11fcaf296dfc8807c01073",
                "assets": [
                    {
                        "address": "0xeeeeeeeeeeeeeeeeeeeeeeeeeeeeeeeeeeeeeeee",
                        "amount": "0.022425",
                        "iconUrl": "https://assets.blocksec.com/image/1663669189317-3.png",
                        "isERC1155": false,
                        "isERC721": false,
                        "sign": true,
                        "value": ""
                    }
                ]
            }
        ]
    },
    "profile": {
        "basic_info": {
            "baseFee": "31.440473799",
            "blockNumber": 13030487,
            "callData": "0xab834bab0000000000000000000000007be8076f4ea4a4ad08075c2508e481d6c946d12b0000000000000000000000006ca49599126abeafd8df62a77e1da6226b83d44b0000000000000000000000002eff303377b9e01e042b7f80fb42836b35fb1a4900000000000000000000000000000000000000000000000000000000000000000000000000000000000000003f4a885ed8d9cdf10f3349357e3b243f3695b24a000000000000000000000000000000000000000000000000000000000000000000000000000000000000000000000000000000000000000000000000000000000000000000000000000000007be8076f4ea4a4ad08075c2508e481d6c946d12b0000000000000000000000002eff303377b9e01e042b7f80fb42836b35fb1a4900000000000000000000000000000000000000000000000000000000000000000000000000000000000000005b3256965e7c3cf26e11fcaf296dfc8807c010730000000000000000000000003f4a885ed8d9cdf10f3349357e3b243f3695b24a0000000000000000000000000000000000000000000000000000000000000000000000000000000000000000000000000000000000000000000000000000000000000000000000000000000000000000000000000000000000000000000002ee000000000000000000000000000000000000000000000000000000000000000000000000000000000000000000000000000000000000000000000000000000000000000000000000000000000000000000000000000000000000000000000000000000000000000000000000000000000000000000000000042642ea73d7800000000000000000000000000000000000000000000000000000000000000000000000000000000000000000000000000000000000000000000000000061192d1c000000000000000000000000000000000000000000000000000000000000000028ab0f33091d3b7f584b70dce12d0592e2ce6472703cc3ef8a5108dc213f09de00000000000000000000000000000000000000000000000000000000000002ee000000000000000000000000000000000000000000000000000000000000000000000000000000000000000000000000000000000000000000000000000000000000000000000000000000000000000000000000000000000000000000000000000000000000000000000000000000000000000000000000042642ea73d7800000000000000000000000000000000000000000000000000000000000000000000000000000000000000000000000000000000000000000000000000061192b750000000000000000000000000000000000000000000000000000000000000000ad8061a6e948c842b2cc6d78a24a5d90088b406de5f20dc8ae5914864076aea10000000000000000000000000000000000000000000000000000000000000001000000000000000000000000000000000000000000000000000000000000000000000000000000000000000000000000000000000000000000000000000000000000000000000000000000000000000000000000000000000000000000000000000000000000000000000000000000000000000000000000000000000000000100000000000000000000000000000000000000000000000000000000000000010000000000000000000000000000000000000000000000000000000000000000000000000000000000000000000000000000000000000000000000000000000000000000000000000000000000000000000000000000000000000000000006a0000000000000000000000000000000000000000000000000000000000000074000000000000000000000000000000000000000000000000000000000000007e0000000000000000000000000000000000000000000000000000000000000088000000000000000000000000000000000000000000000000000000000000009200000000000000000000000000000000000000000000000000000000000000940000000000000000000000000000000000000000000000000000000000000001b000000000000000000000000000000000000000000000000000000000000001b86d610c695bb5f6f1468628ee93f95218fd98522ce80309bb267a7e7ed54a4e6686cd6ed5f28ec319425e4ed823ffbe70f5503957569014aa1b40c0ace6517e186d610c695bb5f6f1468628ee93f95218fd98522ce80309bb267a7e7ed54a4e6686cd6ed5f28ec319425e4ed823ffbe70f5503957569014aa1b40c0ace6517e12d2193f337a4e446c14caa5c90e7b5849203acd0000000000000000000000000000000000000000000000000000000000000000000000000000000000000006423b872dd00000000000000000000000000000000000000000000000000000000000000000000000000000000000000006ca49599126abeafd8df62a77e1da6226b83d44b000000000000000000000000000000000000000000000000000000000000149500000000000000000000000000000000000000000000000000000000000000000000000000000000000000000000000000000000000000000000006423b872dd0000000000000000000000002eff303377b9e01e042b7f80fb42836b35fb1a490000000000000000000000000000000000000000000000000000000000000000000000000000000000000000000000000000000000000000000000000000149500000000000000000000000000000000000000000000000000000000000000000000000000000000000000000000000000000000000000000000006400000000ffffffffffffffffffffffffffffffffffffffffffffffffffffffffffffffff00000000000000000000000000000000000000000000000000000000000000000000000000000000000000000000000000000000000000000000000000000000000000000000000000000000000000000000000000000000000000000000000000000000000000000000000000000000000000000000000000000064000000000000000000000000000000000000000000000000000000000000000000000000ffffffffffffffffffffffffffffffffffffffffffffffffffffffffffffffff00000000000000000000000000000000000000000000000000000000000000000000000000000000000000000000000000000000000000000000000000000000000000000000000000000000000000000000000000000000000000000000000000000000000000000000000000000000000000000000000000000000",
            "debugEnable": true,
            "errorInfo": "",
            "eventCount": 3,
            "feeRecipient": "0x5a0b54d5dc17e0aadc383d2db43b0a0d3e029c4c",
            "formatValue": "0.299",
            "gasLimit": 229149,
            "gasPrice": "40",
            "gasUsed": 217139,
            "intTxnCount": 10,
            "internalRevert": false,
            "internalRevertMessage": "",
            "isContractCreation": false,
            "isFlashloan": false,
            "maxFee": "",
            "nonce": 1013,
            "overwritedBlockNumber": -1,
            "priorityFee": "",
            "receiver": "0x7be8076f4ea4a4ad08075c2508e481d6c946d12b",
            "revertMessage": "",
            "sender": "0x6ca49599126abeafd8df62a77e1da6226b83d44b",
            "simulationEnable": true,
            "sourceTxnHash": "0x0c472b429a0407fbaf1c7cfcb0283df012bf047f45a58aa9b7b2327a297779d5",
            "status": true,
            "timestamp": "2021-08-15T15:06:51Z",
            "transactionFee": "0.00868556",
            "txnHash": "0x0c472b429a0407fbaf1c7cfcb0283df012bf047f45a58aa9b7b2327a297779d5",
            "txnIndex": 8,
            "type": 0,
            "value": "299000000000000000"
        },
        "fund_flow": [
            {
                "amount": "0.299",
                "from": "0x6ca49599126abeafd8df62a77e1da6226b83d44b",
                "id": 1,
                "isERC1155": false,
                "isERC721": false,
                "isReverted": false,
                "order": 1,
                "to": "0x7be8076f4ea4a4ad08075c2508e481d6c946d12b",
                "token": "0xeeeeeeeeeeeeeeeeeeeeeeeeeeeeeeeeeeeeeeee"
            },
            {
                "amount": "0.022425",
                "from": "0x7be8076f4ea4a4ad08075c2508e481d6c946d12b",
                "id": 2,
                "isERC1155": false,
                "isERC721": false,
                "isReverted": false,
                "order": 2,
                "to": "0x5b3256965e7c3cf26e11fcaf296dfc8807c01073",
                "token": "0xeeeeeeeeeeeeeeeeeeeeeeeeeeeeeeeeeeeeeeee"
            },
            {
                "amount": "0.276575",
                "from": "0x7be8076f4ea4a4ad08075c2508e481d6c946d12b",
                "id": 3,
                "isERC1155": false,
                "isERC721": false,
                "isReverted": false,
                "order": 3,
                "to": "0x2eff303377b9e01e042b7f80fb42836b35fb1a49",
                "token": "0xeeeeeeeeeeeeeeeeeeeeeeeeeeeeeeeeeeeeeeee"
            },
            {
                "amount": "1",
                "from": "0x2eff303377b9e01e042b7f80fb42836b35fb1a49",
                "id": 4,
                "isERC1155": false,
                "isERC721": true,
                "isReverted": false,
                "order": 4,
                "to": "0x6ca49599126abeafd8df62a77e1da6226b83d44b",
                "token": "0x3f4a885ed8d9cdf10f3349357e3b243f3695b24a",
                "tokenID": "5269"
            }
        ],
        "token_infos": [
            {
                "address": "0xc02aaa39b223fe8d0a0e5c4f27ead9083c756cc2",
                "decimals": 18
            },
            {
                "address": "0xeeeeeeeeeeeeeeeeeeeeeeeeeeeeeeeeeeeeeeee",
                "decimals": 18
            }
        ]
    },
    "address_label": {
        "labels": [
            {
                "address": "0x5b3256965e7c3cf26e11fcaf296dfc8807c01073",
                "label": "OpenSea: Wallet"
            },
            {
                "address": "0xf9e266af4bca5890e2781812cc6a6e89495a79f2",
                "label": "AuthenticatedProxy"
            },
            {
                "address": "0x0000000000000000000000000000000000000001",
                "label": "Precompiled"
            },
            {
                "address": "0x0000000000000000000000000000000000000002",
                "label": "Precompiled"
            },
            {
                "address": "0x0000000000000000000000000000000000000003",
                "label": "Precompiled"
            },
            {
                "address": "0xeeeeeeeeeeeeeeeeeeeeeeeeeeeeeeeeeeeeeeee",
                "label": "Ether"
            },
            {
                "address": "0x7be8076f4ea4a4ad08075c2508e481d6c946d12b",
                "label": "OpenSea: Wyvern Exchange v1"
            },
            {
                "address": "0x3f4a885ed8d9cdf10f3349357e3b243f3695b24a",
                "label": "Incognito: ICON Token"
            },
            {
                "address": "0x0000000000000000000000000000000000000000",
                "label": "Null Address"
            },
            {
                "address": "0x76a7dba8fc4170db0cfdaf73ad21b801e24985aa",
                "label": "OwnableDelegateProxy"
            },
            {
                "address": "0x0000000000000000000000000000000000000004",
                "label": "Precompiled"
            },
            {
                "address": "0xa5409ec958c83c3f309868babaca7c86dcb077c1",
                "label": "OpenSea: Registry"
            }
        ]
    },
    "trace": {
        "accountLabels": null,
        "dataMap": {
            "-1": {
                "invocation": {
                    "address": "0x6ca49599126abeafd8df62a77e1da6226b83d44b",
                    "callData": "",
                    "decodedMethod": null,
                    "errorInfo": "",
                    "fromAddress": "",
                    "gasUsed": 0,
                    "id": -1,
                    "methodDecoded": false,
                    "operation": "",
                    "output": "",
                    "revert": false,
                    "revertMessage": "",
                    "selector": "",
                    "status": false,
                    "value": ""
                },
                "nodeType": 0
            },
            "0": {
                "invocation": {
                    "address": "0x7be8076f4ea4a4ad08075c2508e481d6c946d12b",
                    "callData": "0x0000000000000000000000007be8076f4ea4a4ad08075c2508e481d6c946d12b0000000000000000000000006ca49599126abeafd8df62a77e1da6226b83d44b0000000000000000000000002eff303377b9e01e042b7f80fb42836b35fb1a4900000000000000000000000000000000000000000000000000000000000000000000000000000000000000003f4a885ed8d9cdf10f3349357e3b243f3695b24a000000000000000000000000000000000000000000000000000000000000000000000000000000000000000000000000000000000000000000000000000000000000000000000000000000007be8076f4ea4a4ad08075c2508e481d6c946d12b0000000000000000000000002eff303377b9e01e042b7f80fb42836b35fb1a4900000000000000000000000000000000000000000000000000000000000000000000000000000000000000005b3256965e7c3cf26e11fcaf296dfc8807c010730000000000000000000000003f4a885ed8d9cdf10f3349357e3b243f3695b24a0000000000000000000000000000000000000000000000000000000000000000000000000000000000000000000000000000000000000000000000000000000000000000000000000000000000000000000000000000000000000000000002ee000000000000000000000000000000000000000000000000000000000000000000000000000000000000000000000000000000000000000000000000000000000000000000000000000000000000000000000000000000000000000000000000000000000000000000000000000000000000000000000000042642ea73d7800000000000000000000000000000000000000000000000000000000000000000000000000000000000000000000000000000000000000000000000000061192d1c000000000000000000000000000000000000000000000000000000000000000028ab0f33091d3b7f584b70dce12d0592e2ce6472703cc3ef8a5108dc213f09de00000000000000000000000000000000000000000000000000000000000002ee000000000000000000000000000000000000000000000000000000000000000000000000000000000000000000000000000000000000000000000000000000000000000000000000000000000000000000000000000000000000000000000000000000000000000000000000000000000000000000000000042642ea73d7800000000000000000000000000000000000000000000000000000000000000000000000000000000000000000000000000000000000000000000000000061192b750000000000000000000000000000000000000000000000000000000000000000ad8061a6e948c842b2cc6d78a24a5d90088b406de5f20dc8ae5914864076aea10000000000000000000000000000000000000000000000000000000000000001000000000000000000000000000000000000000000000000000000000000000000000000000000000000000000000000000000000000000000000000000000000000000000000000000000000000000000000000000000000000000000000000000000000000000000000000000000000000000000000000000000000000000100000000000000000000000000000000000000000000000000000000000000010000000000000000000000000000000000000000000000000000000000000000000000000000000000000000000000000000000000000000000000000000000000000000000000000000000000000000000000000000000000000000000006a0000000000000000000000000000000000000000000000000000000000000074000000000000000000000000000000000000000000000000000000000000007e0000000000000000000000000000000000000000000000000000000000000088000000000000000000000000000000000000000000000000000000000000009200000000000000000000000000000000000000000000000000000000000000940000000000000000000000000000000000000000000000000000000000000001b000000000000000000000000000000000000000000000000000000000000001b86d610c695bb5f6f1468628ee93f95218fd98522ce80309bb267a7e7ed54a4e6686cd6ed5f28ec319425e4ed823ffbe70f5503957569014aa1b40c0ace6517e186d610c695bb5f6f1468628ee93f95218fd98522ce80309bb267a7e7ed54a4e6686cd6ed5f28ec319425e4ed823ffbe70f5503957569014aa1b40c0ace6517e12d2193f337a4e446c14caa5c90e7b5849203acd0000000000000000000000000000000000000000000000000000000000000000000000000000000000000006423b872dd00000000000000000000000000000000000000000000000000000000000000000000000000000000000000006ca49599126abeafd8df62a77e1da6226b83d44b000000000000000000000000000000000000000000000000000000000000149500000000000000000000000000000000000000000000000000000000000000000000000000000000000000000000000000000000000000000000006423b872dd0000000000000000000000002eff303377b9e01e042b7f80fb42836b35fb1a490000000000000000000000000000000000000000000000000000000000000000000000000000000000000000000000000000000000000000000000000000149500000000000000000000000000000000000000000000000000000000000000000000000000000000000000000000000000000000000000000000006400000000ffffffffffffffffffffffffffffffffffffffffffffffffffffffffffffffff00000000000000000000000000000000000000000000000000000000000000000000000000000000000000000000000000000000000000000000000000000000000000000000000000000000000000000000000000000000000000000000000000000000000000000000000000000000000000000000000000000064000000000000000000000000000000000000000000000000000000000000000000000000ffffffffffffffffffffffffffffffffffffffffffffffffffffffffffffffff00000000000000000000000000000000000000000000000000000000000000000000000000000000000000000000000000000000000000000000000000000000000000000000000000000000000000000000000000000000000000000000000000000000000000000000000000000000000000000000000000000000",
                    "decodedMethod": {
                        "callParams": [
                            {
                                "name": "addrs",
                                "type": "address[14]",
                                "value": [
                                    "0x7be8076f4ea4a4ad08075c2508e481d6c946d12b",
                                    "0x6ca49599126abeafd8df62a77e1da6226b83d44b",
                                    "0x2eff303377b9e01e042b7f80fb42836b35fb1a49",
                                    "0x0000000000000000000000000000000000000000",
                                    "0x3f4a885ed8d9cdf10f3349357e3b243f3695b24a",
                                    "0x0000000000000000000000000000000000000000",
                                    "0x0000000000000000000000000000000000000000",
                                    "0x7be8076f4ea4a4ad08075c2508e481d6c946d12b",
                                    "0x2eff303377b9e01e042b7f80fb42836b35fb1a49",
                                    "0x0000000000000000000000000000000000000000",
                                    "0x5b3256965e7c3cf26e11fcaf296dfc8807c01073",
                                    "0x3f4a885ed8d9cdf10f3349357e3b243f3695b24a",
                                    "0x0000000000000000000000000000000000000000",
                                    "0x0000000000000000000000000000000000000000"
                                ]
                            },
                            {
                                "name": "uints",
                                "type": "uint256[18]",
                                "value": [
                                    "750",
                                    "0",
                                    "0",
                                    "0",
                                    "299,000,000,000,000,000",
                                    "0",
                                    "1,629,039,900",
                                    "0",
                                    "18,394,749,693,520,077,280,190,255,949,589,641,093,850,815,815,039,001,884,749,817,476,492,440,832,478",
                                    "750",
                                    "0",
                                    "0",
                                    "0",
                                    "299,000,000,000,000,000",
                                    "0",
                                    "1,629,039,477",
                                    "0",
                                    "78,476,953,198,511,208,661,552,628,998,570,833,840,127,701,165,933,684,262,855,830,806,170,363,670,177"
                                ]
                            },
                            {
                                "name": "feeMethodsSidesKindsHowToCalls",
                                "type": "uint8[8]",
                                "value": [
                                    "1",
                                    "0",
                                    "0",
                                    "0",
                                    "1",
                                    "1",
                                    "0",
                                    "0"
                                ]
                            },
                            {
                                "name": "calldataBuy",
                                "type": "bytes",
                                "value": "0x23b872dd00000000000000000000000000000000000000000000000000000000000000000000000000000000000000006ca49599126abeafd8df62a77e1da6226b83d44b0000000000000000000000000000000000000000000000000000000000001495"
                            },
                            {
                                "name": "calldataSell",
                                "type": "bytes",
                                "value": "0x23b872dd0000000000000000000000002eff303377b9e01e042b7f80fb42836b35fb1a4900000000000000000000000000000000000000000000000000000000000000000000000000000000000000000000000000000000000000000000000000001495"
                            },
                            {
                                "name": "replacementPatternBuy",
                                "type": "bytes",
                                "value": "0x00000000ffffffffffffffffffffffffffffffffffffffffffffffffffffffffffffffff00000000000000000000000000000000000000000000000000000000000000000000000000000000000000000000000000000000000000000000000000000000"
                            },
                            {
                                "name": "replacementPatternSell",
                                "type": "bytes",
                                "value": "0x000000000000000000000000000000000000000000000000000000000000000000000000ffffffffffffffffffffffffffffffffffffffffffffffffffffffffffffffff0000000000000000000000000000000000000000000000000000000000000000"
                            },
                            {
                                "name": "staticExtradataBuy",
                                "type": "bytes",
                                "value": "0x"
                            },
                            {
                                "name": "staticExtradataSell",
                                "type": "bytes",
                                "value": "0x"
                            },
                            {
                                "name": "vs",
                                "type": "uint8[2]",
                                "value": [
                                    "27",
                                    "27"
                                ]
                            },
                            {
                                "name": "rssMetadata",
                                "type": "bytes32[5]",
                                "value": [
                                    "0x86d610c695bb5f6f1468628ee93f95218fd98522ce80309bb267a7e7ed54a4e6",
                                    "0x686cd6ed5f28ec319425e4ed823ffbe70f5503957569014aa1b40c0ace6517e1",
                                    "0x86d610c695bb5f6f1468628ee93f95218fd98522ce80309bb267a7e7ed54a4e6",
                                    "0x686cd6ed5f28ec319425e4ed823ffbe70f5503957569014aa1b40c0ace6517e1",
                                    "0x2d2193f337a4e446c14caa5c90e7b5849203acd0000000000000000000000000"
                                ]
                            }
                        ],
                        "constructorArguments": "",
                        "name": "atomicMatch_",
                        "returnParams": [],
                        "signature": "atomicMatch_(address[14],uint256[18],uint8[8],bytes,bytes,bytes,bytes,bytes,bytes,uint8[2],bytes32[5])"
                    },
                    "errorInfo": "",
                    "fromAddress": "0x6ca49599126abeafd8df62a77e1da6226b83d44b",
                    "gasUsed": 217139,
                    "id": 0,
                    "methodDecoded": true,
                    "operation": "CALL",
                    "output": "",
                    "revert": false,
                    "revertMessage": "",
                    "selector": "0xab834bab",
                    "status": true,
                    "value": "0.299"
                },
                "nodeType": 0
            },
            "1": {
                "invocation": {
                    "address": "0x0000000000000000000000000000000000000001",
                    "callData": "0xb0ecd48b5046a5853933986ba47e0c7cd24036051ed33b43f506c0ec000000000000000000000000000000000000000000000000000000000000001b86d610c695bb5f6f1468628ee93f95218fd98522ce80309bb267a7e7ed54a4e6686cd6ed5f28ec319425e4ed823ffbe70f5503957569014aa1b40c0ace6517e1",
                    "decodedMethod": {
                        "callParams": [
                            {
                                "name": "hash",
                                "type": "bytes32",
                                "value": "0x7fe4b959b0ecd48b5046a5853933986ba47e0c7cd24036051ed33b43f506c0ec"
                            },
                            {
                                "name": "v",
                                "type": "uint256",
                                "value": "27"
                            },
                            {
                                "name": "r",
                                "type": "bytes32",
                                "value": "0x86d610c695bb5f6f1468628ee93f95218fd98522ce80309bb267a7e7ed54a4e6"
                            },
                            {
                                "name": "s",
                                "type": "bytes32",
                                "value": "0x686cd6ed5f28ec319425e4ed823ffbe70f5503957569014aa1b40c0ace6517e1"
                            }
                        ],
                        "constructorArguments": "",
                        "name": "ecrecover",
                        "returnParams": [
                            {
                                "name": "",
                                "type": "address",
                                "value": "0x2eff303377b9e01e042b7f80fb42836b35fb1a49"
                            }
                        ],
                        "signature": "ecrecover(bytes32,uint256,bytes32,bytes32)"
                    },
                    "errorInfo": "",
                    "fromAddress": "0x7be8076f4ea4a4ad08075c2508e481d6c946d12b",
                    "gasUsed": 3000,
                    "id": 1,
                    "methodDecoded": true,
                    "operation": "CALL",
                    "output": "0x0000000000000000000000002eff303377b9e01e042b7f80fb42836b35fb1a49",
                    "revert": false,
                    "revertMessage": "",
                    "selector": "0x7fe4b959",
                    "status": true,
                    "value": "0"
                },
                "nodeType": 0
            },
            "10": {
                "invocation": {
                    "address": "0x3f4a885ed8d9cdf10f3349357e3b243f3695b24a",
                    "callData": "0x0000000000000000000000002eff303377b9e01e042b7f80fb42836b35fb1a490000000000000000000000006ca49599126abeafd8df62a77e1da6226b83d44b000000000000000000000000000000000000000000000000000000000000149500000000000000000000000000000000000000000000000000000000",
                    "decodedMethod": {
                        "callParams": [
                            {
                                "name": "from",
                                "type": "address",
                                "value": "0x2eff303377b9e01e042b7f80fb42836b35fb1a49"
                            },
                            {
                                "name": "to",
                                "type": "address",
                                "value": "0x6ca49599126abeafd8df62a77e1da6226b83d44b"
                            },
                            {
                                "decimalAvailable": true,
                                "name": "tokenId",
                                "type": "uint256",
                                "value": "5,269"
                            }
                        ],
                        "constructorArguments": "",
                        "name": "transferFrom",
                        "returnParams": [],
                        "signature": "transferFrom(address,address,uint256)"
                    },
                    "errorInfo": "",
                    "fromAddress": "0x76a7dba8fc4170db0cfdaf73ad21b801e24985aa",
                    "gasUsed": 71780,
                    "id": 10,
                    "methodDecoded": true,
                    "operation": "CALL",
                    "output": "",
                    "revert": false,
                    "revertMessage": "",
                    "selector": "0x23b872dd",
                    "status": true,
                    "value": "0"
                },
                "nodeType": 0
            },
            "11": {
                "event": {
                    "contract": "0x3f4a885ed8d9cdf10f3349357e3b243f3695b24a",
                    "decodedLog": {
                        "name": "Approval",
                        "params": [
                            {
                                "name": "owner",
                                "type": "address",
                                "value": "0x2eff303377b9e01e042b7f80fb42836b35fb1a49"
                            },
                            {
                                "name": "approved",
                                "type": "address",
                                "value": "0x0000000000000000000000000000000000000000"
                            },
                            {
                                "decimalAvailable": true,
                                "name": "tokenId",
                                "type": "uint256",
                                "value": "5,269"
                            }
                        ],
                        "signature": "Approval(address,address,uint256)"
                    },
                    "id": 11,
                    "logData": "0x",
                    "logDecoded": true,
                    "operation": "EVENT",
                    "revert": false,
                    "status": true,
                    "topics": [
                        "0x8c5be1e5ebec7d5bd14f71427d1e84f3dd0314c0f7b2291e5b200ac8c7c3b925",
                        "0x0000000000000000000000002eff303377b9e01e042b7f80fb42836b35fb1a49",
                        "0x0000000000000000000000000000000000000000000000000000000000000000",
                        "0x0000000000000000000000000000000000000000000000000000000000001495"
                    ]
                },
                "nodeType": 1
            },
            "12": {
                "event": {
                    "contract": "0x3f4a885ed8d9cdf10f3349357e3b243f3695b24a",
                    "decodedLog": {
                        "name": "Transfer",
                        "params": [
                            {
                                "name": "from",
                                "type": "address",
                                "value": "0x2eff303377b9e01e042b7f80fb42836b35fb1a49"
                            },
                            {
                                "name": "to",
                                "type": "address",
                                "value": "0x6ca49599126abeafd8df62a77e1da6226b83d44b"
                            },
                            {
                                "decimalAvailable": true,
                                "name": "tokenId",
                                "type": "uint256",
                                "value": "5,269"
                            }
                        ],
                        "signature": "Transfer(address,address,uint256)"
                    },
                    "id": 12,
                    "logData": "0x",
                    "logDecoded": true,
                    "operation": "EVENT",
                    "revert": false,
                    "status": true,
                    "topics": [
                        "0xddf252ad1be2c89b69c2b068fc378daa952ba7f163c4a11628f55a4df523b3ef",
                        "0x0000000000000000000000002eff303377b9e01e042b7f80fb42836b35fb1a49",
                        "0x0000000000000000000000006ca49599126abeafd8df62a77e1da6226b83d44b",
                        "0x0000000000000000000000000000000000000000000000000000000000001495"
                    ]
                },
                "nodeType": 1
            },
            "13": {
                "event": {
                    "contract": "0x7be8076f4ea4a4ad08075c2508e481d6c946d12b",
                    "decodedLog": {
                        "name": "OrdersMatched",
                        "params": [
                            {
                                "name": "maker",
                                "type": "address",
                                "value": "0x2eff303377b9e01e042b7f80fb42836b35fb1a49"
                            },
                            {
                                "name": "taker",
                                "type": "address",
                                "value": "0x6ca49599126abeafd8df62a77e1da6226b83d44b"
                            },
                            {
                                "name": "metadata",
                                "type": "bytes32",
                                "value": "0x2d2193f337a4e446c14caa5c90e7b5849203acd0000000000000000000000000"
                            },
                            {
                                "name": "buyHash",
                                "type": "bytes32",
                                "value": "0x0000000000000000000000000000000000000000000000000000000000000000"
                            },
                            {
                                "name": "sellHash",
                                "type": "bytes32",
                                "value": "0x7fe4b959b0ecd48b5046a5853933986ba47e0c7cd24036051ed33b43f506c0ec"
                            },
                            {
                                "name": "price",
                                "type": "uint256",
                                "value": "299,000,000,000,000,000"
                            }
                        ],
                        "signature": "OrdersMatched(bytes32,bytes32,address,address,uint256,bytes32)"
                    },
                    "id": 13,
                    "logData": "0x00000000000000000000000000000000000000000000000000000000000000007fe4b959b0ecd48b5046a5853933986ba47e0c7cd24036051ed33b43f506c0ec000000000000000000000000000000000000000000000000042642ea73d78000",
                    "logDecoded": true,
                    "operation": "EVENT",
                    "revert": false,
                    "status": true,
                    "topics": [
                        "0xc4109843e0b7d514e4c093114b863f8e7d8d9a458c372cd51bfe526b588006c9",
                        "0x0000000000000000000000002eff303377b9e01e042b7f80fb42836b35fb1a49",
                        "0x0000000000000000000000006ca49599126abeafd8df62a77e1da6226b83d44b",
                        "0x2d2193f337a4e446c14caa5c90e7b5849203acd0000000000000000000000000"
                    ]
                },
                "nodeType": 1
            },
            "2": {
                "invocation": {
                    "address": "0xa5409ec958c83c3f309868babaca7c86dcb077c1",
                    "callData": "0x0000000000000000000000002eff303377b9e01e042b7f80fb42836b35fb1a49",
                    "decodedMethod": {
                        "callParams": [
                            {
                                "name": "",
                                "type": "address",
                                "value": "0x2eff303377b9e01e042b7f80fb42836b35fb1a49"
                            }
                        ],
                        "constructorArguments": "",
                        "name": "proxies",
                        "returnParams": [
                            {
                                "name": "",
                                "type": "address",
                                "value": "0x76a7dba8fc4170db0cfdaf73ad21b801e24985aa"
                            }
                        ],
                        "signature": "proxies(address)"
                    },
                    "errorInfo": "",
                    "fromAddress": "0x7be8076f4ea4a4ad08075c2508e481d6c946d12b",
                    "gasUsed": 2782,
                    "id": 2,
                    "methodDecoded": true,
                    "operation": "CALL",
                    "output": "0x00000000000000000000000076a7dba8fc4170db0cfdaf73ad21b801e24985aa",
                    "revert": false,
                    "revertMessage": "",
                    "selector": "0xc4552791",
                    "status": true,
                    "value": "0"
                },
                "nodeType": 0
            },
            "3": {
                "invocation": {
                    "address": "0xa5409ec958c83c3f309868babaca7c86dcb077c1",
                    "callData": "0x",
                    "decodedMethod": {
                        "callParams": [],
                        "constructorArguments": "",
                        "name": "delegateProxyImplementation",
                        "returnParams": [
                            {
                                "name": "",
                                "type": "address",
                                "value": "0xf9e266af4bca5890e2781812cc6a6e89495a79f2"
                            }
                        ],
                        "signature": "delegateProxyImplementation()"
                    },
                    "errorInfo": "",
                    "fromAddress": "0x7be8076f4ea4a4ad08075c2508e481d6c946d12b",
                    "gasUsed": 2613,
                    "id": 3,
                    "methodDecoded": true,
                    "operation": "CALL",
                    "output": "0x000000000000000000000000f9e266af4bca5890e2781812cc6a6e89495a79f2",
                    "revert": false,
                    "revertMessage": "",
                    "selector": "0x97204d8e",
                    "status": true,
                    "value": "0"
                },
                "nodeType": 0
            },
            "4": {
                "invocation": {
                    "address": "0x76a7dba8fc4170db0cfdaf73ad21b801e24985aa",
                    "callData": "0x",
                    "decodedMethod": {
                        "callParams": [],
                        "constructorArguments": "",
                        "name": "implementation",
                        "returnParams": [
                            {
                                "name": "",
                                "type": "address",
                                "value": "0xf9e266af4bca5890e2781812cc6a6e89495a79f2"
                            }
                        ],
                        "signature": "implementation()"
                    },
                    "errorInfo": "",
                    "fromAddress": "0x7be8076f4ea4a4ad08075c2508e481d6c946d12b",
                    "gasUsed": 2525,
                    "id": 4,
                    "methodDecoded": true,
                    "operation": "CALL",
                    "output": "0x000000000000000000000000f9e266af4bca5890e2781812cc6a6e89495a79f2",
                    "revert": false,
                    "revertMessage": "",
                    "selector": "0x5c60da1b",
                    "status": true,
                    "value": "0"
                },
                "nodeType": 0
            },
            "5": {
                "invocation": {
                    "address": "0x5b3256965e7c3cf26e11fcaf296dfc8807c01073",
                    "callData": "0x",
                    "decodedMethod": null,
                    "errorInfo": "",
                    "fromAddress": "0x7be8076f4ea4a4ad08075c2508e481d6c946d12b",
                    "gasUsed": 0,
                    "id": 5,
                    "methodDecoded": false,
                    "operation": "CALL",
                    "output": "",
                    "revert": false,
                    "revertMessage": "",
                    "selector": "fallback",
                    "status": true,
                    "value": "0.022425"
                },
                "nodeType": 0
            },
            "6": {
                "invocation": {
                    "address": "0x2eff303377b9e01e042b7f80fb42836b35fb1a49",
                    "callData": "0x",
                    "decodedMethod": null,
                    "errorInfo": "",
                    "fromAddress": "0x7be8076f4ea4a4ad08075c2508e481d6c946d12b",
                    "gasUsed": 0,
                    "id": 6,
                    "methodDecoded": false,
                    "operation": "CALL",
                    "output": "",
                    "revert": false,
                    "revertMessage": "",
                    "selector": "fallback",
                    "status": true,
                    "value": "0.276575"
                },
                "nodeType": 0
            },
            "7": {
                "invocation": {
                    "address": "0x76a7dba8fc4170db0cfdaf73ad21b801e24985aa",
                    "callData": "0x0000000000000000000000003f4a885ed8d9cdf10f3349357e3b243f3695b24a00000000000000000000000000000000000000000000000000000000000000000000000000000000000000000000000000000000000000000000000000000060000000000000000000000000000000000000000000000000000000000000006423b872dd0000000000000000000000002eff303377b9e01e042b7f80fb42836b35fb1a490000000000000000000000006ca49599126abeafd8df62a77e1da6226b83d44b000000000000000000000000000000000000000000000000000000000000149500000000000000000000000000000000000000000000000000000000",
                    "decodedMethod": {
                        "callParams": [
                            {
                                "name": "dest",
                                "type": "address",
                                "value": "0x3f4a885ed8d9cdf10f3349357e3b243f3695b24a"
                            },
                            {
                                "name": "howToCall",
                                "type": "uint8",
                                "value": "0"
                            },
                            {
                                "name": "calldata",
                                "type": "bytes",
                                "value": "0x23b872dd0000000000000000000000002eff303377b9e01e042b7f80fb42836b35fb1a490000000000000000000000006ca49599126abeafd8df62a77e1da6226b83d44b0000000000000000000000000000000000000000000000000000000000001495"
                            }
                        ],
                        "constructorArguments": "",
                        "name": "proxy",
                        "returnParams": [
                            {
                                "name": "result",
                                "type": "bool",
                                "value": true
                            }
                        ],
                        "signature": "proxy(address,uint8,bytes)"
                    },
                    "errorInfo": "",
                    "fromAddress": "0x7be8076f4ea4a4ad08075c2508e481d6c946d12b",
                    "gasUsed": 83937,
                    "id": 7,
                    "methodDecoded": true,
                    "operation": "CALL",
                    "output": "0x0000000000000000000000000000000000000000000000000000000000000001",
                    "revert": false,
                    "revertMessage": "",
                    "selector": "0x1b0f7ba9",
                    "status": true,
                    "value": "0"
                },
                "nodeType": 0
            },
            "8": {
                "invocation": {
                    "address": "0xf9e266af4bca5890e2781812cc6a6e89495a79f2",
                    "callData": "0x0000000000000000000000003f4a885ed8d9cdf10f3349357e3b243f3695b24a00000000000000000000000000000000000000000000000000000000000000000000000000000000000000000000000000000000000000000000000000000060000000000000000000000000000000000000000000000000000000000000006423b872dd0000000000000000000000002eff303377b9e01e042b7f80fb42836b35fb1a490000000000000000000000006ca49599126abeafd8df62a77e1da6226b83d44b000000000000000000000000000000000000000000000000000000000000149500000000000000000000000000000000000000000000000000000000",
                    "decodedMethod": {
                        "callParams": [
                            {
                                "name": "dest",
                                "type": "address",
                                "value": "0x3f4a885ed8d9cdf10f3349357e3b243f3695b24a"
                            },
                            {
                                "name": "howToCall",
                                "type": "uint8",
                                "value": "0"
                            },
                            {
                                "name": "calldata",
                                "type": "bytes",
                                "value": "0x23b872dd0000000000000000000000002eff303377b9e01e042b7f80fb42836b35fb1a490000000000000000000000006ca49599126abeafd8df62a77e1da6226b83d44b0000000000000000000000000000000000000000000000000000000000001495"
                            }
                        ],
                        "constructorArguments": "",
                        "name": "proxy",
                        "returnParams": [
                            {
                                "name": "result",
                                "type": "bool",
                                "value": true
                            }
                        ],
                        "signature": "proxy(address,uint8,bytes)"
                    },
                    "errorInfo": "",
                    "fromAddress": "0x76a7dba8fc4170db0cfdaf73ad21b801e24985aa",
                    "gasUsed": 80677,
                    "id": 8,
                    "methodDecoded": true,
                    "operation": "DELEGATECALL",
                    "output": "0x0000000000000000000000000000000000000000000000000000000000000001",
                    "revert": false,
                    "revertMessage": "",
                    "selector": "0x1b0f7ba9",
                    "status": true,
                    "value": "0"
                },
                "nodeType": 0
            },
            "9": {
                "invocation": {
                    "address": "0xa5409ec958c83c3f309868babaca7c86dcb077c1",
                    "callData": "0x0000000000000000000000007be8076f4ea4a4ad08075c2508e481d6c946d12b",
                    "decodedMethod": {
                        "callParams": [
                            {
                                "name": "",
                                "type": "address",
                                "value": "0x7be8076f4ea4a4ad08075c2508e481d6c946d12b"
                            }
                        ],
                        "constructorArguments": "",
                        "name": "contracts",
                        "returnParams": [
                            {
                                "name": "",
                                "type": "bool",
                                "value": true
                            }
                        ],
                        "signature": "contracts(address)"
                    },
                    "errorInfo": "",
                    "fromAddress": "0x76a7dba8fc4170db0cfdaf73ad21b801e24985aa",
                    "gasUsed": 2553,
                    "id": 9,
                    "methodDecoded": true,
                    "operation": "CALL",
                    "output": "0x0000000000000000000000000000000000000000000000000000000000000001",
                    "revert": false,
                    "revertMessage": "",
                    "selector": "0x69dc9ff3",
                    "status": true,
                    "value": "0"
                },
                "nodeType": 0
            }
        },
        "gasFlame": [
            {
                "children": [
                    {
                        "children": [
                            {
                                "children": [],
                                "depth": 0,
                                "name": "Initial Gas",
                                "value": 37084
                            },
                            {
                                "children": [
                                    {
                                        "children": [],
                                        "depth": 1,
                                        "name": "ecrecover",
                                        "value": 3000
                                    },
                                    {
                                        "children": [],
                                        "depth": 1,
                                        "name": "proxies",
                                        "value": 2782
                                    },
                                    {
                                        "children": [],
                                        "depth": 1,
                                        "name": "delegateProxyImplementation",
                                        "value": 2613
                                    },
                                    {
                                        "children": [],
                                        "depth": 1,
                                        "name": "implementation",
                                        "value": 2525
                                    },
                                    {
                                        "children": [],
                                        "depth": 1,
                                        "name": "fallback",
                                        "value": 0
                                    },
                                    {
                                        "children": [],
                                        "depth": 1,
                                        "name": "fallback",
                                        "value": 0
                                    },
                                    {
                                        "children": [
                                            {
                                                "children": [
                                                    {
                                                        "children": [],
                                                        "depth": 3,
                                                        "name": "contracts",
                                                        "value": 2553
                                                    },
                                                    {
                                                        "children": [],
                                                        "depth": 3,
                                                        "name": "transferFrom",
                                                        "value": 71780
                                                    }
                                                ],
                                                "depth": 2,
                                                "name": "proxy",
                                                "value": 80677
                                            }
                                        ],
                                        "depth": 1,
                                        "name": "proxy",
                                        "value": 83937
                                    }
                                ],
                                "depth": 0,
                                "name": "Executed Gas",
                                "value": 187655
                            }
                        ],
                        "depth": -1,
                        "name": "Actual Gas Used",
                        "value": 217139
                    },
                    {
                        "children": [],
                        "depth": -1,
                        "name": "Refunded Gas",
                        "value": 7600
                    }
                ],
                "depth": -2,
                "name": "Total Gas",
                "value": 224739
            }
        ],
        "isConfirmed": true,
        "mainTrace": [
            {
                "children": [
                    {
                        "children": [
                            {
                                "children": [],
                                "depth": 1,
                                "id": 1,
                                "order": 1
                            },
                            {
                                "children": [],
                                "depth": 1,
                                "id": 2,
                                "order": 2
                            },
                            {
                                "children": [],
                                "depth": 1,
                                "id": 3,
                                "order": 3
                            },
                            {
                                "children": [],
                                "depth": 1,
                                "id": 4,
                                "order": 4
                            },
                            {
                                "children": [],
                                "depth": 1,
                                "id": 5,
                                "order": 5
                            },
                            {
                                "children": [],
                                "depth": 1,
                                "id": 6,
                                "order": 6
                            },
                            {
                                "children": [
                                    {
                                        "children": [
                                            {
                                                "children": [],
                                                "depth": 3,
                                                "id": 9,
                                                "order": 9
                                            },
                                            {
                                                "children": [
                                                    {
                                                        "children": [],
                                                        "depth": 4,
                                                        "id": 11,
                                                        "order": 11
                                                    },
                                                    {
                                                        "children": [],
                                                        "depth": 4,
                                                        "id": 12,
                                                        "order": 12
                                                    }
                                                ],
                                                "depth": 3,
                                                "id": 10,
                                                "order": 10
                                            }
                                        ],
                                        "depth": 2,
                                        "id": 8,
                                        "order": 8
                                    }
                                ],
                                "depth": 1,
                                "id": 7,
                                "order": 7
                            },
                            {
                                "children": [],
                                "depth": 1,
                                "id": 13,
                                "order": 13
                            }
                        ],
                        "depth": 0,
                        "id": 0,
                        "order": 0
                    }
                ],
                "depth": -1,
                "id": -1,
                "order": -1
            }
        ],
        "mainTraceNodeCount": 14,
        "parentIdMap": {
            "0": -1,
            "1": 0,
            "10": 8,
            "11": 10,
            "12": 10,
            "13": 0,
            "2": 0,
            "3": 0,
            "4": 0,
            "5": 0,
            "6": 0,
            "7": 0,
            "8": 7,
            "9": 8
        },
        "tidyTrace": [
            {
                "children": [
                    {
                        "children": [
                            {
                                "children": [],
                                "depth": 1,
                                "id": 1,
                                "order": 1
                            },
                            {
                                "children": [],
                                "depth": 1,
                                "id": 2,
                                "order": 2
                            },
                            {
                                "children": [],
                                "depth": 1,
                                "id": 3,
                                "order": 3
                            },
                            {
                                "children": [],
                                "depth": 1,
                                "id": 4,
                                "order": 4
                            },
                            {
                                "children": [],
                                "depth": 1,
                                "id": 5,
                                "order": 5
                            },
                            {
                                "children": [],
                                "depth": 1,
                                "id": 6,
                                "order": 6
                            },
                            {
                                "children": [
                                    {
                                        "children": [
                                            {
                                                "children": [],
                                                "depth": 3,
                                                "id": 9,
                                                "order": 9
                                            },
                                            {
                                                "children": [
                                                    {
                                                        "children": [],
                                                        "depth": 4,
                                                        "id": 11,
                                                        "order": 11
                                                    },
                                                    {
                                                        "children": [],
                                                        "depth": 4,
                                                        "id": 12,
                                                        "order": 12
                                                    }
                                                ],
                                                "depth": 3,
                                                "id": 10,
                                                "order": 10
                                            }
                                        ],
                                        "depth": 2,
                                        "id": 8,
                                        "order": 8
                                    }
                                ],
                                "depth": 1,
                                "id": 7,
                                "order": 7
                            },
                            {
                                "children": [],
                                "depth": 1,
                                "id": 13,
                                "order": 13
                            }
                        ],
                        "depth": 0,
                        "id": 0,
                        "order": 0
                    }
                ],
                "depth": -1,
                "id": -1,
                "order": -1
            }
        ],
        "tidyTraceNodeCount": 14
    },
    "state_change": {
        "stateChanges": [
            {
                "address": "0x3f4a885ed8d9cdf10f3349357e3b243f3695b24a",
                "erc": "ERC-721",
                "slots": [
                    {
                        "current": "0x0000000000000000000000000000000000000000000000000000000000000024",
                        "key": "0xcd1ba6019da3994939bc41fb61b2744e9f766b0684d8b09043f982029041d085",
                        "prev": "0x0000000000000000000000000000000000000000000000000000000000000025"
                    },
                    {
                        "current": "0x0000000000000000000000000000000000000000000000000000000000000001",
                        "key": "0x5f6d6fe0184cdeadd74a452c67c48c62ca9520233f0f3fb8f0db094b571356a7",
                        "prev": "0x0000000000000000000000000000000000000000000000000000000000000024"
                    },
                    {
                        "current": "0x0000000000000000000000000000000000000000000000000000000000000000",
                        "key": "0x4ed90a248bcc6358b37624b50b6ccfdd2b4cd99906455e6ee32301e88c5cd1db",
                        "prev": "0x0000000000000000000000000000000000000000000000000000000000001d71"
                    },
                    {
                        "current": "0x0000000000000000000000000000000000000000000000000000000000001495",
                        "key": "0x1715511b7a597d115ea4f8c4d52a7c6311b87e80f32826560bf123a24698d6ed",
                        "prev": "0x0000000000000000000000000000000000000000000000000000000000000000"
                    },
                    {
                        "current": "0x0000000000000000000000000000000000000000000000000000000000000025",
                        "key": "0x69ea3e7b933d870d254e0e6278c097ef30f591e43fbeb9778e261daf7d69fb96",
                        "prev": "0x0000000000000000000000000000000000000000000000000000000000000026"
                    },
                    {
                        "current": "0x0000000000000000000000000000000000000000000000000000000000000002",
                        "key": "0x52532febab547e11974125d5d7fa508d7aab6c44c67602ed6b8299f25fa54f07",
                        "prev": "0x0000000000000000000000000000000000000000000000000000000000000001"
                    },
                    {
                        "current": "0x0000000000000000000000006ca49599126abeafd8df62a77e1da6226b83d44b",
                        "key": "0x86dc6a5d305818b6da4850ba4f7c9ca69af081b34ef312ea6f8e941466335824",
                        "prev": "0x0000000000000000000000002eff303377b9e01e042b7f80fb42836b35fb1a49"
                    },
                    {
                        "current": "0x0000000000000000000000000000000000000000000000000000000000001d71",
                        "key": "0x493277c3674c0e7cda7011dba071fef03a57737ae021ef0baa81bc21a45cee88",
                        "prev": "0x0000000000000000000000000000000000000000000000000000000000001495"
                    }
                ],
                "storageVariables": [
                    {
                        "name": "_ownedTokensIndex",
                        "type": "mapping(uint256 => uint256)",
                        "value": {
                            "pairs": [
                                {
                                    "key": "5269",
                                    "value": {
                                        "current": "1",
                                        "prev": "36",
                                        "typeTag": 1
                                    }
                                },
                                {
                                    "key": "7537",
                                    "value": {
                                        "current": "36",
                                        "prev": "37",
                                        "typeTag": 1
                                    }
                                }
                            ],
                            "typeTag": 4
                        }
                    },
                    {
                        "name": "_ownedTokens",
                        "type": "mapping(address => mapping(uint256 => uint256))",
                        "value": {
                            "pairs": [
                                {
                                    "key": "0x2eff303377b9e01e042b7f80fb42836b35fb1a49",
                                    "value": {
                                        "pairs": [
                                            {
                                                "key": "36",
                                                "value": {
                                                    "current": "7537",
                                                    "prev": "5269",
                                                    "typeTag": 1
                                                }
                                            },
                                            {
                                                "key": "37",
                                                "value": {
                                                    "current": "0",
                                                    "prev": "7537",
                                                    "typeTag": 1
                                                }
                                            }
                                        ],
                                        "typeTag": 4
                                    }
                                },
                                {
                                    "key": "0x6ca49599126abeafd8df62a77e1da6226b83d44b",
                                    "value": {
                                        "pairs": [
                                            {
                                                "key": "1",
                                                "value": {
                                                    "current": "5269",
                                                    "prev": "0",
                                                    "typeTag": 1
                                                }
                                            }
                                        ],
                                        "typeTag": 4
                                    }
                                }
                            ],
                            "typeTag": 4
                        }
                    },
                    {
                        "name": "_balances",
                        "type": "mapping(address => uint256)",
                        "value": {
                            "pairs": [
                                {
                                    "key": "0x2eff303377b9e01e042b7f80fb42836b35fb1a49",
                                    "value": {
                                        "current": "37",
                                        "prev": "38",
                                        "typeTag": 1
                                    }
                                },
                                {
                                    "key": "0x6ca49599126abeafd8df62a77e1da6226b83d44b",
                                    "value": {
                                        "current": "2",
                                        "prev": "1",
                                        "typeTag": 1
                                    }
                                }
                            ],
                            "typeTag": 4
                        }
                    },
                    {
                        "name": "_owners",
                        "type": "mapping(uint256 => address)",
                        "value": {
                            "pairs": [
                                {
                                    "key": "5269",
                                    "value": {
                                        "current": "0x6ca49599126abeafd8df62a77e1da6226b83d44b",
                                        "prev": "0x2eff303377b9e01e042b7f80fb42836b35fb1a49",
                                        "typeTag": 1
                                    }
                                }
                            ],
                            "typeTag": 4
                        }
                    }
                ]
            },
            {
                "address": "0x7be8076f4ea4a4ad08075c2508e481d6c946d12b",
                "erc": "",
                "slots": [
                    {
                        "current": "0x0000000000000000000000000000000000000000000000000000000000000001",
                        "key": "0x379c25c59f4bef23933715a6476a911a0c84690339069c50f0c4d12bc864e0e2",
                        "prev": "0x0000000000000000000000000000000000000000000000000000000000000000"
                    }
                ],
                "storageVariables": [
                    {
                        "name": "cancelledOrFinalized",
                        "type": "mapping(bytes32 => bool)",
                        "value": {
                            "pairs": [
                                {
                                    "key": "0x7fe4b959b0ecd48b5046a5853933986ba47e0c7cd24036051ed33b43f506c0ec",
                                    "value": {
                                        "current": "true",
                                        "prev": "false",
                                        "typeTag": 1
                                    }
                                }
                            ],
                            "typeTag": 4
                        }
                    }
                ]
            }
        ]
    }
}