{
    "balance_change": {
        "balanceChanges": [
            {
                "account": "0x14737fe6340757f9cafcc2a3ead8783a0bcd646d",
                "assets": [
                    {
                        "address": "0x6ea53dfc58c5cbf68a799edd208cb3a905db5939",
                        "amount": "4.808564810475718665",
                        "iconUrl": "",
                        "isERC1155": false,
                        "isERC721": false,
                        "sign": true,
                        "value": ""
                    }
                ]
            },
            {
                "account": "0x6ea53dfc58c5cbf68a799edd208cb3a905db5939",
                "assets": [
                    {
                        "address": "0x6ea53dfc58c5cbf68a799edd208cb3a905db5939",
                        "amount": "4.808564810475718665",
                        "iconUrl": "",
                        "isERC1155": false,
                        "isERC721": false,
                        "sign": false,
                        "value": ""
                    }
                ]
            }
        ]
    },
    "profile": {
        "basic_info": {
            "baseFee": "",
            "blockNumber": 9956331,
            "callData": "0xd88d2000000000000000000000000000000000000000000000000000000000000097eb3f",
            "debugEnable": true,
            "errorInfo": "",
            "eventCount": 1,
            "feeRecipient": "0x5a0b54d5dc17e0aadc383d2db43b0a0d3e029c4c",
            "formatValue": "0",
            "gasLimit": 85930,
            "gasPrice": "9",
            "gasUsed": 85930,
            "intTxnCount": 0,
            "internalRevert": false,
            "internalRevertMessage": "",
            "isContractCreation": false,
            "isFlashloan": false,
            "maxFee": "",
            "nonce": 228,
            "overwritedBlockNumber": -1,
            "priorityFee": "",
            "receiver": "0x6ea53dfc58c5cbf68a799edd208cb3a905db5939",
            "revertMessage": "",
            "sender": "0x14737fe6340757f9cafcc2a3ead8783a0bcd646d",
            "simulationEnable": true,
            "sourceTxnHash": "0x0d498f332bb91d8051bfbc0418d54cd8592d196583cc53b3bc70c95b243807ca",
            "status": true,
            "timestamp": "2020-04-27T19:09:18Z",
            "transactionFee": "0.00077337",
            "txnHash": "0x0d498f332bb91d8051bfbc0418d54cd8592d196583cc53b3bc70c95b243807ca",
            "txnIndex": 126,
            "type": 0,
            "value": "0"
        },
        "fund_flow": [
            {
                "amount": "4.808564810475718665",
                "from": "0x6ea53dfc58c5cbf68a799edd208cb3a905db5939",
                "id": 1,
                "isERC1155": false,
                "isERC721": false,
                "isReverted": false,
                "order": 1,
                "to": "0x14737fe6340757f9cafcc2a3ead8783a0bcd646d",
                "token": "0x6ea53dfc58c5cbf68a799edd208cb3a905db5939"
            }
        ],
        "token_infos": [
            {
                "address": "0x6ea53dfc58c5cbf68a799edd208cb3a905db5939",
                "decimals": 18
            },
            {
                "address": "0xc02aaa39b223fe8d0a0e5c4f27ead9083c756cc2",
                "decimals": 18
            },
            {
                "address": "0xeeeeeeeeeeeeeeeeeeeeeeeeeeeeeeeeeeeeeeee",
                "decimals": 18
            }
        ]
    },
    "address_label": {
        "labels": [
            {
                "address": "0xeeeeeeeeeeeeeeeeeeeeeeeeeeeeeeeeeeeeeeee",
                "label": "Ether"
            },
            {
                "address": "0x6ea53dfc58c5cbf68a799edd208cb3a905db5939",
                "label": "Ethereum eRush: EER Token"
            },
            {
                "address": "0x0000000000000000000000000000000000000001",
                "label": "Precompiled"
            },
            {
                "address": "0x0000000000000000000000000000000000000002",
                "label": "Precompiled"
            },
            {
                "address": "0x0000000000000000000000000000000000000003",
                "label": "Precompiled"
            },
            {
                "address": "0x0000000000000000000000000000000000000004",
                "label": "Precompiled"
            }
        ]
    },
    "trace": {
        "accountLabels": null,
        "dataMap": {
            "-1": {
                "invocation": {
                    "address": "0x14737fe6340757f9cafcc2a3ead8783a0bcd646d",
                    "callData": "",
                    "decodedMethod": null,
                    "errorInfo": "",
                    "fromAddress": "",
                    "gasUsed": 0,
                    "id": -1,
                    "methodDecoded": false,
                    "operation": "",
                    "output": "",
                    "revert": false,
                    "revertMessage": "",
                    "selector": "",
                    "status": false,
                    "value": ""
                },
                "nodeType": 0
            },
            "0": {
                "invocation": {
                    "address": "0x6ea53dfc58c5cbf68a799edd208cb3a905db5939",
                    "callData": "0x000000000000000000000000000000000000000000000000000000000097eb3f",
                    "decodedMethod": {
                        "callParams": [
                            {
                                "name": "_bnumber",
                                "type": "uint256",
                                "value": "9,956,159"
                            }
                        ],
                        "constructorArguments": "",
                        "name": "getDailyReward",
                        "returnParams": [
                            {
                                "name": "",
                                "type": "uint256",
                                "value": "4,808,564,810,475,718,665"
                            }
                        ],
                        "signature": "getDailyReward(uint256)"
                    },
                    "errorInfo": "",
                    "fromAddress": "0x14737fe6340757f9cafcc2a3ead8783a0bcd646d",
                    "gasUsed": 85930,
                    "id": 0,
                    "methodDecoded": true,
                    "operation": "CALL",
                    "output": "0x00000000000000000000000000000000000000000000000042bb7437dfd94809",
                    "revert": false,
                    "revertMessage": "",
                    "selector": "0xd88d2000",
                    "status": true,
                    "value": "0"
                },
                "nodeType": 0
            },
            "1": {
                "event": {
                    "contract": "0x6ea53dfc58c5cbf68a799edd208cb3a905db5939",
                    "decodedLog": {
                        "name": "Transfer",
                        "params": [
                            {
                                "name": "from",
                                "type": "address",
                                "value": "0x6ea53dfc58c5cbf68a799edd208cb3a905db5939"
                            },
                            {
                                "name": "to",
                                "type": "address",
                                "value": "0x14737fe6340757f9cafcc2a3ead8783a0bcd646d"
                            },
                            {
                                "decimalAvailable": true,
                                "name": "value",
                                "type": "uint256",
                                "value": "4,808,564,810,475,718,665"
                            }
                        ],
                        "signature": "Transfer(address,address,uint256)"
                    },
                    "id": 1,
                    "logData": "0x00000000000000000000000000000000000000000000000042bb7437dfd94809",
                    "logDecoded": true,
                    "operation": "EVENT",
                    "revert": false,
                    "status": true,
                    "topics": [
                        "0xddf252ad1be2c89b69c2b068fc378daa952ba7f163c4a11628f55a4df523b3ef",
                        "0x0000000000000000000000006ea53dfc58c5cbf68a799edd208cb3a905db5939",
                        "0x00000000000000000000000014737fe6340757f9cafcc2a3ead8783a0bcd646d"
                    ]
                },
                "nodeType": 1
            }
        },
        "gasFlame": [
            {
                "children": [
                    {
                        "children": [
                            {
                                "children": [],
                                "depth": 0,
                                "name": "Initial Gas",
                                "value": 21216
                            },
                            {
                                "children": [],
                                "depth": 0,
                                "name": "Executed Gas",
                                "value": 64714
                            }
                        ],
                        "depth": -1,
                        "name": "Actual Gas Used",
                        "value": 85930
                    },
                    {
                        "children": [],
                        "depth": -1,
                        "name": "Refunded Gas",
                        "value": 0
                    }
                ],
                "depth": -2,
                "name": "Total Gas",
                "value": 85930
            }
        ],
        "isConfirmed": true,
        "mainTrace": [
            {
                "children": [
                    {
                        "children": [
                            {
                                "children": [],
                                "depth": 1,
                                "id": 1,
                                "order": 1
                            }
                        ],
                        "depth": 0,
                        "id": 0,
                        "order": 0
                    }
                ],
                "depth": -1,
                "id": -1,
                "order": -1
            }
        ],
        "mainTraceNodeCount": 2,
        "parentIdMap": {
            "0": -1,
            "1": 0
        },
        "tidyTrace": [
            {
                "children": [
                    {
                        "children": [
                            {
                                "children": [],
                                "depth": 1,
                                "id": 1,
                                "order": 1
                            }
                        ],
                        "depth": 0,
                        "id": 0,
                        "order": 0
                    }
                ],
                "depth": -1,
                "id": -1,
                "order": -1
            }
        ],
        "tidyTraceNodeCount": 2
    },
    "state_change": {
        "stateChanges": [
            {
                "address": "0x6ea53dfc58c5cbf68a799edd208cb3a905db5939",
                "erc": "ERC-20",
                "slots": [
                    {
                        "current": "0x0000000000000000000000000000000000000000000000000000000000000001",
                        "key": "0xd189a92fa668c88ae6deeac34157adcf09be47a938068751351384575fffbc8d",
                        "prev": "0x0000000000000000000000000000000000000000000000000000000000000000"
                    },
                    {
                        "current": "0x000000000000000000000000000000000000000000139f434be64d135c751be8",
                        "key": "0xb940fb9dbc4678a44f35c385e51b7364f4cb9319bd205c8a33a67e31e2e95660",
                        "prev": "0x000000000000000000000000000000000000000000139f438ea1c14b3c4e63f1"
                    },
                    {
                        "current": "0x00000000000000000000000000000000000000000000005d83f41761926d3adc",
                        "key": "0x19899949798fe7ce33f4969f569c891c3f3e17d268e1d9a679bd5ad6ced49423",
                        "prev": "0x00000000000000000000000000000000000000000000005d4138a329b293f2d3"
                    }
                ],
                "storageVariables": [
                    {
                        "name": "nRewardDetails",
                        "type": "mapping(string => struct EthereumeRush.rewarddetails)",
                        "value": {
                            "pairs": [
                                {
                                    "key": "\u00001581130861-\u0000117",
                                    "value": {
                                        "fields": [
                                            {
                                                "name": "_didGetReward",
                                                "type": "bool",
                                                "value": {
                                                    "current": "true",
                                                    "prev": "false",
                                                    "typeTag": 1
                                                }
                                            }
                                        ],
                                        "typeTag": 3
                                    }
                                }
                            ],
                            "typeTag": 4
                        }
                    },
                    {
                        "name": "balanceOf",
                        "type": "mapping(address => uint256)",
                        "value": {
                            "pairs": [
                                {
                                    "key": "0x14737fe6340757f9cafcc2a3ead8783a0bcd646d",
                                    "value": {
                                        "current": "1725055449276110158556",
                                        "prev": "1720246884465634439891",
                                        "typeTag": 1
                                    }
                                },
                                {
                                    "key": "0x6ea53dfc58c5cbf68a799edd208cb3a905db5939",
                                    "value": {
                                        "current": "23721688244450709487295464",
                                        "prev": "23721693053015519963014129",
                                        "typeTag": 1
                                    }
                                }
                            ],
                            "typeTag": 4
                        }
                    }
                ]
            }
        ]
    }
}