{
    "balance_change": {
        "balanceChanges": [
            {
                "account": "0x59b42ed846b988b01fdddf2686f543203d8394d9",
                "assets": [
                    {
                        "address": "0xa0b86991c6218b36c1d19d4a2e9eb0ce3606eb48",
                        "amount": "2,437.563664",
                        "iconUrl": "https://assets.blocksec.com/icon/0347a86cc07dbd03fdc5db01a4e5ac7e1217f90e0b6e4bb0f75cbcca09160989.png",
                        "isERC1155": false,
                        "isERC721": false,
                        "sign": false,
                        "value": "2438.056881"
                    },
                    {
                        "address": "0x514910771af9ca656af840dff83e8264ecf986ca",
                        "amount": "75.38560643871006351",
                        "iconUrl": "https://assets.blocksec.com/icon/f97453a18956674db69f16b525216d646fc76f3c7f90f0cd6147f8534d5af3e9.png",
                        "isERC1155": false,
                        "isERC721": false,
                        "sign": true,
                        "value": "2407.11946"
                    }
                ]
            },
            {
                "account": "0x56178a0d5f301baf6cf3e1cd53d9863437345bf9",
                "assets": [
                    {
                        "address": "0x514910771af9ca656af840dff83e8264ecf986ca",
                        "amount": "75.38560643871006351",
                        "iconUrl": "https://assets.blocksec.com/icon/f97453a18956674db69f16b525216d646fc76f3c7f90f0cd6147f8534d5af3e9.png",
                        "isERC1155": false,
                        "isERC721": false,
                        "sign": false,
                        "value": "2407.11946"
                    },
                    {
                        "address": "0xa0b86991c6218b36c1d19d4a2e9eb0ce3606eb48",
                        "amount": "2,416.234982",
                        "iconUrl": "https://assets.blocksec.com/icon/0347a86cc07dbd03fdc5db01a4e5ac7e1217f90e0b6e4bb0f75cbcca09160989.png",
                        "isERC1155": false,
                        "isERC721": false,
                        "sign": true,
                        "value": "2416.723883"
                    }
                ]
            },
            {
                "account": "0xe553af3d6d197782c6fe8e7c38b052f54f108ad5",
                "assets": [
                    {
                        "address": "0xa0b86991c6218b36c1d19d4a2e9eb0ce3606eb48",
                        "amount": "21.328682",
                        "iconUrl": "https://assets.blocksec.com/icon/0347a86cc07dbd03fdc5db01a4e5ac7e1217f90e0b6e4bb0f75cbcca09160989.png",
                        "isERC1155": false,
                        "isERC721": false,
                        "sign": true,
                        "value": "21.33299764"
                    }
                ]
            }
        ]
    },
    "profile": {
        "basic_info": {
            "baseFee": "",
            "blockNumber": 12545182,
            "callData": "0x5f5755290000000000000000000000000000000000000000000000000000000000000080000000000000000000000000a0b86991c6218b36c1d19d4a2e9eb0ce3606eb4800000000000000000000000000000000000000000000000000000000914a451000000000000000000000000000000000000000000000000000000000000000c0000000000000000000000000000000000000000000000000000000000000000d706d6d46656544796e616d6963000000000000000000000000000000000000000000000000000000000000000000000000000000000000000000000000000440000000000000000000000000a0b86991c6218b36c1d19d4a2e9eb0ce3606eb48000000000000000000000000514910771af9ca656af840dff83e8264ecf986ca000000000000000000000000000000000000000000000000000000009004d1e6000000000000000000000000000000000000000000000003f6ccc55b480322060000000000000000000000000000000000000000000000000000000000000120000000000000000000000000000000000000000000000000000000000145732a000000000000000000000000e553af3d6d197782c6fe8e7c38b052f54f108ad5000000000000000000000000000000000000000000000000000000000000000000000000000000000000000000000000000000000000000000000000000003200000000000000000000000000000000000000000000000000000000000000060000000000000000000000000000000000000000000000000000000009004d1e600000000000000000000000000000000000000000000000000000000000002a000000000000000000000000056178a0d5f301baf6cf3e1cd53d9863437345bf900000000000000000000000074de5d4fcbf63e00296fd95d33236b979401663100000000000000000000000055662e225a3376759c24331a9aed764f8f0c9fbb0000000000000000000000000000000000000000000000000000000000000000000000000000000000000000000000000000000000000004163f159110b30000000000000000000000000000000000000000000000000000000000009006f7fb000000000000000000000000000000000000000000000000000000000000000000000000000000000000000000000000000000000000000000000000000000000000000000000000000000000000000000000000000000000000000060b576cf01ffffffffffffffffffffffffffffffffffffff2e5ad92260b576390000001b000000000000000000000000000000000000000000000000000000000000018000000000000000000000000000000000000000000000000000000000000001e00000000000000000000000000000000000000000000000000000000000000024f47261b0000000000000000000000000514910771af9ca656af840dff83e8264ecf986ca000000000000000000000000000000000000000000000000000000000000000000000000000000000000000000000000000000000000000000000024f47261b0000000000000000000000000a0b86991c6218b36c1d19d4a2e9eb0ce3606eb480000000000000000000000000000000000000000000000000000000000000000000000000000000000000000000000000000000000000000000000421be07f7140955c2508af70cfe4c80cf077129b918fb4dc8bb020856f5e5861f24465b41c4f4f56e9434499601bd8006fd7798302901025ed0d626812c75c3a198d03000000000000000000000000000000000000000000000000000000000000e4",
            "debugEnable": true,
            "errorInfo": "",
            "eventCount": 7,
            "feeRecipient": "0x5a0b54d5dc17e0aadc383d2db43b0a0d3e029c4c",
            "formatValue": "0",
            "gasLimit": 365016,
            "gasPrice": "29",
            "gasUsed": 238531,
            "intTxnCount": 19,
            "internalRevert": false,
            "internalRevertMessage": "",
            "isContractCreation": false,
            "isFlashloan": false,
            "maxFee": "",
            "nonce": 7,
            "overwritedBlockNumber": -1,
            "priorityFee": "",
            "receiver": "0x881d40237659c251811cec9c364ef91dc08d300c",
            "revertMessage": "",
            "sender": "0x59b42ed846b988b01fdddf2686f543203d8394d9",
            "simulationEnable": true,
            "sourceTxnHash": "0x0d6cc5774ebe539c30a38e690d40563ff84c52643b3b04a725ce38076c5fad70",
            "status": true,
            "timestamp": "2021-05-31T23:51:35Z",
            "transactionFee": "0.006917399",
            "txnHash": "0x0d6cc5774ebe539c30a38e690d40563ff84c52643b3b04a725ce38076c5fad70",
            "txnIndex": 152,
            "type": 0,
            "value": "0"
        },
        "fund_flow": [
            {
                "amount": "2,437.563664",
                "from": "0x59b42ed846b988b01fdddf2686f543203d8394d9",
                "id": 1,
                "isERC1155": false,
                "isERC721": false,
                "isReverted": false,
                "order": 1,
                "to": "0x74de5d4fcbf63e00296fd95d33236b9794016631",
                "token": "0xa0b86991c6218b36c1d19d4a2e9eb0ce3606eb48"
            },
            {
                "amount": "75.38560643871006351",
                "from": "0x56178a0d5f301baf6cf3e1cd53d9863437345bf9",
                "id": 2,
                "isERC1155": false,
                "isERC721": false,
                "isReverted": false,
                "order": 2,
                "to": "0x74de5d4fcbf63e00296fd95d33236b9794016631",
                "token": "0x514910771af9ca656af840dff83e8264ecf986ca"
            },
            {
                "amount": "2,416.234982",
                "from": "0x74de5d4fcbf63e00296fd95d33236b9794016631",
                "id": 3,
                "isERC1155": false,
                "isERC721": false,
                "isReverted": false,
                "order": 3,
                "to": "0x56178a0d5f301baf6cf3e1cd53d9863437345bf9",
                "token": "0xa0b86991c6218b36c1d19d4a2e9eb0ce3606eb48"
            },
            {
                "amount": "21.328682",
                "from": "0x74de5d4fcbf63e00296fd95d33236b9794016631",
                "id": 4,
                "isERC1155": false,
                "isERC721": false,
                "isReverted": false,
                "order": 4,
                "to": "0xe553af3d6d197782c6fe8e7c38b052f54f108ad5",
                "token": "0xa0b86991c6218b36c1d19d4a2e9eb0ce3606eb48"
            },
            {
                "amount": "75.38560643871006351",
                "from": "0x74de5d4fcbf63e00296fd95d33236b9794016631",
                "id": 5,
                "isERC1155": false,
                "isERC721": false,
                "isReverted": false,
                "order": 5,
                "to": "0x59b42ed846b988b01fdddf2686f543203d8394d9",
                "token": "0x514910771af9ca656af840dff83e8264ecf986ca"
            }
        ],
        "token_infos": [
            {
                "address": "0x514910771af9ca656af840dff83e8264ecf986ca",
                "decimals": 18
            },
            {
                "address": "0xa0b86991c6218b36c1d19d4a2e9eb0ce3606eb48",
                "decimals": 6
            },
            {
                "address": "0xc02aaa39b223fe8d0a0e5c4f27ead9083c756cc2",
                "decimals": 18
            },
            {
                "address": "0xeeeeeeeeeeeeeeeeeeeeeeeeeeeeeeeeeeeeeeee",
                "decimals": 18
            }
        ]
    },
    "address_label": {
        "labels": [
            {
                "address": "0x0000000000000000000000000000000000000000",
                "label": "Null Address"
            },
            {
                "address": "0x0000000000000000000000000000000000000001",
                "label": "Precompiled"
            },
            {
                "address": "0x0000000000000000000000000000000000000002",
                "label": "Precompiled"
            },
            {
                "address": "0xeeeeeeeeeeeeeeeeeeeeeeeeeeeeeeeeeeeeeeee",
                "label": "Ether"
            },
            {
                "address": "0x514910771af9ca656af840dff83e8264ecf986ca",
                "label": "Chainlink: LINK Token"
            },
            {
                "address": "0x95e6f48254609a6ee006f7d493c8e5fb97094cef",
                "label": "0x: ERC20 Proxy V3"
            },
            {
                "address": "0x881d40237659c251811cec9c364ef91dc08d300c",
                "label": "Metamask: Swap Router"
            },
            {
                "address": "0xa0b86991c6218b36c1d19d4a2e9eb0ce3606eb48",
                "label": "Circle: USDC Token"
            },
            {
                "address": "0x0000000000000000000000000000000000000003",
                "label": "Precompiled"
            },
            {
                "address": "0x0000000000000000000000000000000000000004",
                "label": "Precompiled"
            },
            {
                "address": "0xa2327a938febf5fec13bacfb16ae10ecbc4cbdcf",
                "label": "FiatTokenV2_1"
            },
            {
                "address": "0x080bf510fcbf18b91105470639e9561022937712",
                "label": "0x: Exchange v2.1"
            },
            {
                "address": "0x74de5d4fcbf63e00296fd95d33236b9794016631",
                "label": "MetaMask: Swaps Spender"
            }
        ]
    },
    "trace": {
        "accountLabels": null,
        "dataMap": {
            "-1": {
                "invocation": {
                    "address": "0x59b42ed846b988b01fdddf2686f543203d8394d9",
                    "callData": "",
                    "decodedMethod": null,
                    "errorInfo": "",
                    "fromAddress": "",
                    "gasUsed": 0,
                    "id": -1,
                    "methodDecoded": false,
                    "operation": "",
                    "output": "",
                    "revert": false,
                    "revertMessage": "",
                    "selector": "",
                    "status": false,
                    "value": ""
                },
                "nodeType": 0
            },
            "0": {
                "invocation": {
                    "address": "0x881d40237659c251811cec9c364ef91dc08d300c",
                    "callData": "0x0000000000000000000000000000000000000000000000000000000000000080000000000000000000000000a0b86991c6218b36c1d19d4a2e9eb0ce3606eb4800000000000000000000000000000000000000000000000000000000914a451000000000000000000000000000000000000000000000000000000000000000c0000000000000000000000000000000000000000000000000000000000000000d706d6d46656544796e616d6963000000000000000000000000000000000000000000000000000000000000000000000000000000000000000000000000000440000000000000000000000000a0b86991c6218b36c1d19d4a2e9eb0ce3606eb48000000000000000000000000514910771af9ca656af840dff83e8264ecf986ca000000000000000000000000000000000000000000000000000000009004d1e6000000000000000000000000000000000000000000000003f6ccc55b480322060000000000000000000000000000000000000000000000000000000000000120000000000000000000000000000000000000000000000000000000000145732a000000000000000000000000e553af3d6d197782c6fe8e7c38b052f54f108ad5000000000000000000000000000000000000000000000000000000000000000000000000000000000000000000000000000000000000000000000000000003200000000000000000000000000000000000000000000000000000000000000060000000000000000000000000000000000000000000000000000000009004d1e600000000000000000000000000000000000000000000000000000000000002a000000000000000000000000056178a0d5f301baf6cf3e1cd53d9863437345bf900000000000000000000000074de5d4fcbf63e00296fd95d33236b979401663100000000000000000000000055662e225a3376759c24331a9aed764f8f0c9fbb0000000000000000000000000000000000000000000000000000000000000000000000000000000000000000000000000000000000000004163f159110b30000000000000000000000000000000000000000000000000000000000009006f7fb000000000000000000000000000000000000000000000000000000000000000000000000000000000000000000000000000000000000000000000000000000000000000000000000000000000000000000000000000000000000000060b576cf01ffffffffffffffffffffffffffffffffffffff2e5ad92260b576390000001b000000000000000000000000000000000000000000000000000000000000018000000000000000000000000000000000000000000000000000000000000001e00000000000000000000000000000000000000000000000000000000000000024f47261b0000000000000000000000000514910771af9ca656af840dff83e8264ecf986ca000000000000000000000000000000000000000000000000000000000000000000000000000000000000000000000000000000000000000000000024f47261b0000000000000000000000000a0b86991c6218b36c1d19d4a2e9eb0ce3606eb480000000000000000000000000000000000000000000000000000000000000000000000000000000000000000000000000000000000000000000000421be07f7140955c2508af70cfe4c80cf077129b918fb4dc8bb020856f5e5861f24465b41c4f4f56e9434499601bd8006fd7798302901025ed0d626812c75c3a198d03000000000000000000000000000000000000000000000000000000000000e4",
                    "decodedMethod": {
                        "callParams": [
                            {
                                "name": "aggregatorId",
                                "type": "string",
                                "value": "pmmFeeDynamic"
                            },
                            {
                                "name": "tokenFrom",
                                "type": "address",
                                "value": "0xa0b86991c6218b36c1d19d4a2e9eb0ce3606eb48"
                            },
                            {
                                "name": "amount",
                                "type": "uint256",
                                "value": "2,437,563,664"
                            },
                            {
                                "name": "data",
                                "type": "bytes",
                                "value": "0x000000000000000000000000a0b86991c6218b36c1d19d4a2e9eb0ce3606eb48000000000000000000000000514910771af9ca656af840dff83e8264ecf986ca000000000000000000000000000000000000000000000000000000009004d1e6000000000000000000000000000000000000000000000003f6ccc55b480322060000000000000000000000000000000000000000000000000000000000000120000000000000000000000000000000000000000000000000000000000145732a000000000000000000000000e553af3d6d197782c6fe8e7c38b052f54f108ad5000000000000000000000000000000000000000000000000000000000000000000000000000000000000000000000000000000000000000000000000000003200000000000000000000000000000000000000000000000000000000000000060000000000000000000000000000000000000000000000000000000009004d1e600000000000000000000000000000000000000000000000000000000000002a000000000000000000000000056178a0d5f301baf6cf3e1cd53d9863437345bf900000000000000000000000074de5d4fcbf63e00296fd95d33236b979401663100000000000000000000000055662e225a3376759c24331a9aed764f8f0c9fbb0000000000000000000000000000000000000000000000000000000000000000000000000000000000000000000000000000000000000004163f159110b30000000000000000000000000000000000000000000000000000000000009006f7fb000000000000000000000000000000000000000000000000000000000000000000000000000000000000000000000000000000000000000000000000000000000000000000000000000000000000000000000000000000000000000060b576cf01ffffffffffffffffffffffffffffffffffffff2e5ad92260b576390000001b000000000000000000000000000000000000000000000000000000000000018000000000000000000000000000000000000000000000000000000000000001e00000000000000000000000000000000000000000000000000000000000000024f47261b0000000000000000000000000514910771af9ca656af840dff83e8264ecf986ca000000000000000000000000000000000000000000000000000000000000000000000000000000000000000000000000000000000000000000000024f47261b0000000000000000000000000a0b86991c6218b36c1d19d4a2e9eb0ce3606eb480000000000000000000000000000000000000000000000000000000000000000000000000000000000000000000000000000000000000000000000421be07f7140955c2508af70cfe4c80cf077129b918fb4dc8bb020856f5e5861f24465b41c4f4f56e9434499601bd8006fd7798302901025ed0d626812c75c3a198d03000000000000000000000000000000000000000000000000000000000000"
                            }
                        ],
                        "constructorArguments": "",
                        "name": "swap",
                        "returnParams": [],
                        "signature": "swap(string,address,uint256,bytes)"
                    },
                    "errorInfo": "",
                    "fromAddress": "0x59b42ed846b988b01fdddf2686f543203d8394d9",
                    "gasUsed": 238531,
                    "id": 0,
                    "methodDecoded": true,
                    "operation": "CALL",
                    "output": "",
                    "revert": false,
                    "revertMessage": "",
                    "selector": "0x5f575529",
                    "status": true,
                    "value": "0"
                },
                "nodeType": 0
            },
            "1": {
                "invocation": {
                    "address": "0xa0b86991c6218b36c1d19d4a2e9eb0ce3606eb48",
                    "callData": "0x00000000000000000000000059b42ed846b988b01fdddf2686f543203d8394d900000000000000000000000074de5d4fcbf63e00296fd95d33236b979401663100000000000000000000000000000000000000000000000000000000914a4510",
                    "decodedMethod": {
                        "callParams": [
                            {
                                "name": "from",
                                "type": "address",
                                "value": "0x59b42ed846b988b01fdddf2686f543203d8394d9"
                            },
                            {
                                "name": "to",
                                "type": "address",
                                "value": "0x74de5d4fcbf63e00296fd95d33236b9794016631"
                            },
                            {
                                "decimalAvailable": true,
                                "name": "value",
                                "type": "uint256",
                                "value": "2,437,563,664"
                            }
                        ],
                        "constructorArguments": "",
                        "name": "transferFrom",
                        "returnParams": [
                            {
                                "name": "",
                                "type": "bool",
                                "value": true
                            }
                        ],
                        "signature": "transferFrom(address,address,uint256)"
                    },
                    "errorInfo": "",
                    "fromAddress": "0x881d40237659c251811cec9c364ef91dc08d300c",
                    "gasUsed": 51992,
                    "id": 1,
                    "methodDecoded": true,
                    "operation": "CALL",
                    "output": "0x0000000000000000000000000000000000000000000000000000000000000001",
                    "revert": false,
                    "revertMessage": "",
                    "selector": "0x23b872dd",
                    "status": true,
                    "value": "0"
                },
                "nodeType": 0
            },
            "10": {
                "event": {
                    "contract": "0x080bf510fcbf18b91105470639e9561022937712",
                    "decodedLog": {
                        "name": "Fill",
                        "params": [
                            {
                                "name": "makerAddress",
                                "type": "address",
                                "value": "0x56178a0d5f301baf6cf3e1cd53d9863437345bf9"
                            },
                            {
                                "name": "feeRecipientAddress",
                                "type": "address",
                                "value": "0x55662e225a3376759c24331a9aed764f8f0c9fbb"
                            },
                            {
                                "name": "orderHash",
                                "type": "bytes32",
                                "value": "0x493b1a4d0d659ce1b23866ba0f463c3825afd5d773e9cd17c072e1e382eac0a6"
                            },
                            {
                                "name": "takerAddress",
                                "type": "address",
                                "value": "0x74de5d4fcbf63e00296fd95d33236b9794016631"
                            },
                            {
                                "name": "senderAddress",
                                "type": "address",
                                "value": "0x74de5d4fcbf63e00296fd95d33236b9794016631"
                            },
                            {
                                "name": "makerAssetFilledAmount",
                                "type": "uint256",
                                "value": "75,385,606,438,710,063,510"
                            },
                            {
                                "name": "takerAssetFilledAmount",
                                "type": "uint256",
                                "value": "2,416,234,982"
                            },
                            {
                                "name": "makerFeePaid",
                                "type": "uint256",
                                "value": "0"
                            },
                            {
                                "name": "takerFeePaid",
                                "type": "uint256",
                                "value": "0"
                            },
                            {
                                "name": "makerAssetData",
                                "type": "bytes",
                                "value": "0xf47261b0000000000000000000000000514910771af9ca656af840dff83e8264ecf986ca"
                            },
                            {
                                "name": "takerAssetData",
                                "type": "bytes",
                                "value": "0xf47261b0000000000000000000000000a0b86991c6218b36c1d19d4a2e9eb0ce3606eb48"
                            }
                        ],
                        "signature": "Fill(address,address,address,address,uint256,uint256,uint256,uint256,bytes32,bytes,bytes)"
                    },
                    "id": 10,
                    "logData": "0x00000000000000000000000074de5d4fcbf63e00296fd95d33236b979401663100000000000000000000000074de5d4fcbf63e00296fd95d33236b9794016631000000000000000000000000000000000000000000000004162f79a55cb6b196000000000000000000000000000000000000000000000000000000009004d1e600000000000000000000000000000000000000000000000000000000000000000000000000000000000000000000000000000000000000000000000000000000000000000000000000000000000000000000000000000000000000000000010000000000000000000000000000000000000000000000000000000000000001600000000000000000000000000000000000000000000000000000000000000024f47261b0000000000000000000000000514910771af9ca656af840dff83e8264ecf986ca000000000000000000000000000000000000000000000000000000000000000000000000000000000000000000000000000000000000000000000024f47261b0000000000000000000000000a0b86991c6218b36c1d19d4a2e9eb0ce3606eb4800000000000000000000000000000000000000000000000000000000",
                    "logDecoded": true,
                    "operation": "EVENT",
                    "revert": false,
                    "status": true,
                    "topics": [
                        "0x0bcc4c97732e47d9946f229edb95f5b6323f601300e4690de719993f3c371129",
                        "0x00000000000000000000000056178a0d5f301baf6cf3e1cd53d9863437345bf9",
                        "0x00000000000000000000000055662e225a3376759c24331a9aed764f8f0c9fbb",
                        "0x493b1a4d0d659ce1b23866ba0f463c3825afd5d773e9cd17c072e1e382eac0a6"
                    ]
                },
                "nodeType": 1
            },
            "11": {
                "invocation": {
                    "address": "0x95e6f48254609a6ee006f7d493c8e5fb97094cef",
                    "callData": "0x000000000000000000000000000000000000000000000000000000000000008000000000000000000000000056178a0d5f301baf6cf3e1cd53d9863437345bf900000000000000000000000074de5d4fcbf63e00296fd95d33236b9794016631000000000000000000000000000000000000000000000004162f79a55cb6b1960000000000000000000000000000000000000000000000000000000000000024f47261b0000000000000000000000000514910771af9ca656af840dff83e8264ecf986ca00000000000000000000000000000000000000000000000000000000",
                    "decodedMethod": {
                        "callParams": [
                            {
                                "name": "assetData",
                                "type": "bytes",
                                "value": "0xf47261b0000000000000000000000000514910771af9ca656af840dff83e8264ecf986ca"
                            },
                            {
                                "name": "from",
                                "type": "address",
                                "value": "0x56178a0d5f301baf6cf3e1cd53d9863437345bf9"
                            },
                            {
                                "name": "to",
                                "type": "address",
                                "value": "0x74de5d4fcbf63e00296fd95d33236b9794016631"
                            },
                            {
                                "name": "amount",
                                "type": "uint256",
                                "value": "75,385,606,438,710,063,510"
                            }
                        ],
                        "constructorArguments": "",
                        "name": "transferFrom",
                        "returnParams": [],
                        "signature": "transferFrom(bytes,address,address,uint256)"
                    },
                    "errorInfo": "",
                    "fromAddress": "0x080bf510fcbf18b91105470639e9561022937712",
                    "gasUsed": 41054,
                    "id": 11,
                    "methodDecoded": true,
                    "operation": "CALL",
                    "output": "",
                    "revert": false,
                    "revertMessage": "",
                    "selector": "0xa85e59e4",
                    "status": true,
                    "value": "0"
                },
                "nodeType": 0
            },
            "12": {
                "invocation": {
                    "address": "0x514910771af9ca656af840dff83e8264ecf986ca",
                    "callData": "0x00000000000000000000000056178a0d5f301baf6cf3e1cd53d9863437345bf900000000000000000000000074de5d4fcbf63e00296fd95d33236b9794016631000000000000000000000000000000000000000000000004162f79a55cb6b196",
                    "decodedMethod": {
                        "callParams": [
                            {
                                "name": "_from",
                                "type": "address",
                                "value": "0x56178a0d5f301baf6cf3e1cd53d9863437345bf9"
                            },
                            {
                                "name": "_to",
                                "type": "address",
                                "value": "0x74de5d4fcbf63e00296fd95d33236b9794016631"
                            },
                            {
                                "decimalAvailable": true,
                                "name": "_value",
                                "type": "uint256",
                                "value": "75,385,606,438,710,063,510"
                            }
                        ],
                        "constructorArguments": "",
                        "name": "transferFrom",
                        "returnParams": [
                            {
                                "name": "",
                                "type": "bool",
                                "value": true
                            }
                        ],
                        "signature": "transferFrom(address,address,uint256)"
                    },
                    "errorInfo": "",
                    "fromAddress": "0x95e6f48254609a6ee006f7d493c8e5fb97094cef",
                    "gasUsed": 35800,
                    "id": 12,
                    "methodDecoded": true,
                    "operation": "CALL",
                    "output": "0x0000000000000000000000000000000000000000000000000000000000000001",
                    "revert": false,
                    "revertMessage": "",
                    "selector": "0x23b872dd",
                    "status": true,
                    "value": "0"
                },
                "nodeType": 0
            },
            "13": {
                "event": {
                    "contract": "0x514910771af9ca656af840dff83e8264ecf986ca",
                    "decodedLog": {
                        "name": "Transfer",
                        "params": [
                            {
                                "name": "from",
                                "type": "address",
                                "value": "0x56178a0d5f301baf6cf3e1cd53d9863437345bf9"
                            },
                            {
                                "name": "to",
                                "type": "address",
                                "value": "0x74de5d4fcbf63e00296fd95d33236b9794016631"
                            },
                            {
                                "decimalAvailable": true,
                                "name": "value",
                                "type": "uint256",
                                "value": "75,385,606,438,710,063,510"
                            }
                        ],
                        "signature": "Transfer(address,address,uint256)"
                    },
                    "id": 13,
                    "logData": "0x000000000000000000000000000000000000000000000004162f79a55cb6b196",
                    "logDecoded": true,
                    "operation": "EVENT",
                    "revert": false,
                    "status": true,
                    "topics": [
                        "0xddf252ad1be2c89b69c2b068fc378daa952ba7f163c4a11628f55a4df523b3ef",
                        "0x00000000000000000000000056178a0d5f301baf6cf3e1cd53d9863437345bf9",
                        "0x00000000000000000000000074de5d4fcbf63e00296fd95d33236b9794016631"
                    ]
                },
                "nodeType": 1
            },
            "14": {
                "invocation": {
                    "address": "0x95e6f48254609a6ee006f7d493c8e5fb97094cef",
                    "callData": "0x000000000000000000000000000000000000000000000000000000000000008000000000000000000000000074de5d4fcbf63e00296fd95d33236b979401663100000000000000000000000056178a0d5f301baf6cf3e1cd53d9863437345bf9000000000000000000000000000000000000000000000000000000009004d1e60000000000000000000000000000000000000000000000000000000000000024f47261b0000000000000000000000000a0b86991c6218b36c1d19d4a2e9eb0ce3606eb4800000000000000000000000000000000000000000000000000000000",
                    "decodedMethod": {
                        "callParams": [
                            {
                                "name": "assetData",
                                "type": "bytes",
                                "value": "0xf47261b0000000000000000000000000a0b86991c6218b36c1d19d4a2e9eb0ce3606eb48"
                            },
                            {
                                "name": "from",
                                "type": "address",
                                "value": "0x74de5d4fcbf63e00296fd95d33236b9794016631"
                            },
                            {
                                "name": "to",
                                "type": "address",
                                "value": "0x56178a0d5f301baf6cf3e1cd53d9863437345bf9"
                            },
                            {
                                "name": "amount",
                                "type": "uint256",
                                "value": "2,416,234,982"
                            }
                        ],
                        "constructorArguments": "",
                        "name": "transferFrom",
                        "returnParams": [],
                        "signature": "transferFrom(bytes,address,address,uint256)"
                    },
                    "errorInfo": "",
                    "fromAddress": "0x080bf510fcbf18b91105470639e9561022937712",
                    "gasUsed": 18346,
                    "id": 14,
                    "methodDecoded": true,
                    "operation": "CALL",
                    "output": "",
                    "revert": false,
                    "revertMessage": "",
                    "selector": "0xa85e59e4",
                    "status": true,
                    "value": "0"
                },
                "nodeType": 0
            },
            "15": {
                "invocation": {
                    "address": "0xa0b86991c6218b36c1d19d4a2e9eb0ce3606eb48",
                    "callData": "0x00000000000000000000000074de5d4fcbf63e00296fd95d33236b979401663100000000000000000000000056178a0d5f301baf6cf3e1cd53d9863437345bf9000000000000000000000000000000000000000000000000000000009004d1e6",
                    "decodedMethod": {
                        "callParams": [
                            {
                                "name": "from",
                                "type": "address",
                                "value": "0x74de5d4fcbf63e00296fd95d33236b9794016631"
                            },
                            {
                                "name": "to",
                                "type": "address",
                                "value": "0x56178a0d5f301baf6cf3e1cd53d9863437345bf9"
                            },
                            {
                                "decimalAvailable": true,
                                "name": "value",
                                "type": "uint256",
                                "value": "2,416,234,982"
                            }
                        ],
                        "constructorArguments": "",
                        "name": "transferFrom",
                        "returnParams": [
                            {
                                "name": "",
                                "type": "bool",
                                "value": true
                            }
                        ],
                        "signature": "transferFrom(address,address,uint256)"
                    },
                    "errorInfo": "",
                    "fromAddress": "0x95e6f48254609a6ee006f7d493c8e5fb97094cef",
                    "gasUsed": 17592,
                    "id": 15,
                    "methodDecoded": true,
                    "operation": "CALL",
                    "output": "0x0000000000000000000000000000000000000000000000000000000000000001",
                    "revert": false,
                    "revertMessage": "",
                    "selector": "0x23b872dd",
                    "status": true,
                    "value": "0"
                },
                "nodeType": 0
            },
            "16": {
                "invocation": {
                    "address": "0xa2327a938febf5fec13bacfb16ae10ecbc4cbdcf",
                    "callData": "0x00000000000000000000000074de5d4fcbf63e00296fd95d33236b979401663100000000000000000000000056178a0d5f301baf6cf3e1cd53d9863437345bf9000000000000000000000000000000000000000000000000000000009004d1e6",
                    "decodedMethod": {
                        "callParams": [
                            {
                                "name": "from",
                                "type": "address",
                                "value": "0x74de5d4fcbf63e00296fd95d33236b9794016631"
                            },
                            {
                                "name": "to",
                                "type": "address",
                                "value": "0x56178a0d5f301baf6cf3e1cd53d9863437345bf9"
                            },
                            {
                                "decimalAvailable": true,
                                "name": "value",
                                "type": "uint256",
                                "value": "2,416,234,982"
                            }
                        ],
                        "constructorArguments": "",
                        "name": "transferFrom",
                        "returnParams": [
                            {
                                "name": "",
                                "type": "bool",
                                "value": true
                            }
                        ],
                        "signature": "transferFrom(address,address,uint256)"
                    },
                    "errorInfo": "",
                    "fromAddress": "0xa0b86991c6218b36c1d19d4a2e9eb0ce3606eb48",
                    "gasUsed": 16797,
                    "id": 16,
                    "methodDecoded": true,
                    "operation": "DELEGATECALL",
                    "output": "0x0000000000000000000000000000000000000000000000000000000000000001",
                    "revert": false,
                    "revertMessage": "",
                    "selector": "0x23b872dd",
                    "status": true,
                    "value": "0"
                },
                "nodeType": 0
            },
            "17": {
                "event": {
                    "contract": "0xa0b86991c6218b36c1d19d4a2e9eb0ce3606eb48",
                    "decodedLog": {
                        "name": "Transfer",
                        "params": [
                            {
                                "name": "from",
                                "type": "address",
                                "value": "0x74de5d4fcbf63e00296fd95d33236b9794016631"
                            },
                            {
                                "name": "to",
                                "type": "address",
                                "value": "0x56178a0d5f301baf6cf3e1cd53d9863437345bf9"
                            },
                            {
                                "decimalAvailable": true,
                                "name": "value",
                                "type": "uint256",
                                "value": "2,416,234,982"
                            }
                        ],
                        "signature": "Transfer(address,address,uint256)"
                    },
                    "id": 17,
                    "logData": "0x000000000000000000000000000000000000000000000000000000009004d1e6",
                    "logDecoded": true,
                    "operation": "EVENT",
                    "revert": false,
                    "status": true,
                    "topics": [
                        "0xddf252ad1be2c89b69c2b068fc378daa952ba7f163c4a11628f55a4df523b3ef",
                        "0x00000000000000000000000074de5d4fcbf63e00296fd95d33236b9794016631",
                        "0x00000000000000000000000056178a0d5f301baf6cf3e1cd53d9863437345bf9"
                    ]
                },
                "nodeType": 1
            },
            "18": {
                "invocation": {
                    "address": "0xa0b86991c6218b36c1d19d4a2e9eb0ce3606eb48",
                    "callData": "0x000000000000000000000000e553af3d6d197782c6fe8e7c38b052f54f108ad5000000000000000000000000000000000000000000000000000000000145732a",
                    "decodedMethod": {
                        "callParams": [
                            {
                                "name": "to",
                                "type": "address",
                                "value": "0xe553af3d6d197782c6fe8e7c38b052f54f108ad5"
                            },
                            {
                                "decimalAvailable": true,
                                "name": "value",
                                "type": "uint256",
                                "value": "21,328,682"
                            }
                        ],
                        "constructorArguments": "",
                        "name": "transfer",
                        "returnParams": [
                            {
                                "name": "",
                                "type": "bool",
                                "value": true
                            }
                        ],
                        "signature": "transfer(address,uint256)"
                    },
                    "errorInfo": "",
                    "fromAddress": "0x74de5d4fcbf63e00296fd95d33236b9794016631",
                    "gasUsed": 11617,
                    "id": 18,
                    "methodDecoded": true,
                    "operation": "CALL",
                    "output": "0x0000000000000000000000000000000000000000000000000000000000000001",
                    "revert": false,
                    "revertMessage": "",
                    "selector": "0xa9059cbb",
                    "status": true,
                    "value": "0"
                },
                "nodeType": 0
            },
            "19": {
                "invocation": {
                    "address": "0xa2327a938febf5fec13bacfb16ae10ecbc4cbdcf",
                    "callData": "0x000000000000000000000000e553af3d6d197782c6fe8e7c38b052f54f108ad5000000000000000000000000000000000000000000000000000000000145732a",
                    "decodedMethod": {
                        "callParams": [
                            {
                                "name": "to",
                                "type": "address",
                                "value": "0xe553af3d6d197782c6fe8e7c38b052f54f108ad5"
                            },
                            {
                                "decimalAvailable": true,
                                "name": "value",
                                "type": "uint256",
                                "value": "21,328,682"
                            }
                        ],
                        "constructorArguments": "",
                        "name": "transfer",
                        "returnParams": [
                            {
                                "name": "",
                                "type": "bool",
                                "value": true
                            }
                        ],
                        "signature": "transfer(address,uint256)"
                    },
                    "errorInfo": "",
                    "fromAddress": "0xa0b86991c6218b36c1d19d4a2e9eb0ce3606eb48",
                    "gasUsed": 10828,
                    "id": 19,
                    "methodDecoded": true,
                    "operation": "DELEGATECALL",
                    "output": "0x0000000000000000000000000000000000000000000000000000000000000001",
                    "revert": false,
                    "revertMessage": "",
                    "selector": "0xa9059cbb",
                    "status": true,
                    "value": "0"
                },
                "nodeType": 0
            },
            "2": {
                "invocation": {
                    "address": "0xa2327a938febf5fec13bacfb16ae10ecbc4cbdcf",
                    "callData": "0x00000000000000000000000059b42ed846b988b01fdddf2686f543203d8394d900000000000000000000000074de5d4fcbf63e00296fd95d33236b979401663100000000000000000000000000000000000000000000000000000000914a4510",
                    "decodedMethod": {
                        "callParams": [
                            {
                                "name": "from",
                                "type": "address",
                                "value": "0x59b42ed846b988b01fdddf2686f543203d8394d9"
                            },
                            {
                                "name": "to",
                                "type": "address",
                                "value": "0x74de5d4fcbf63e00296fd95d33236b9794016631"
                            },
                            {
                                "decimalAvailable": true,
                                "name": "value",
                                "type": "uint256",
                                "value": "2,437,563,664"
                            }
                        ],
                        "constructorArguments": "",
                        "name": "transferFrom",
                        "returnParams": [
                            {
                                "name": "",
                                "type": "bool",
                                "value": true
                            }
                        ],
                        "signature": "transferFrom(address,address,uint256)"
                    },
                    "errorInfo": "",
                    "fromAddress": "0xa0b86991c6218b36c1d19d4a2e9eb0ce3606eb48",
                    "gasUsed": 44697,
                    "id": 2,
                    "methodDecoded": true,
                    "operation": "DELEGATECALL",
                    "output": "0x0000000000000000000000000000000000000000000000000000000000000001",
                    "revert": false,
                    "revertMessage": "",
                    "selector": "0x23b872dd",
                    "status": true,
                    "value": "0"
                },
                "nodeType": 0
            },
            "20": {
                "event": {
                    "contract": "0xa0b86991c6218b36c1d19d4a2e9eb0ce3606eb48",
                    "decodedLog": {
                        "name": "Transfer",
                        "params": [
                            {
                                "name": "from",
                                "type": "address",
                                "value": "0x74de5d4fcbf63e00296fd95d33236b9794016631"
                            },
                            {
                                "name": "to",
                                "type": "address",
                                "value": "0xe553af3d6d197782c6fe8e7c38b052f54f108ad5"
                            },
                            {
                                "decimalAvailable": true,
                                "name": "value",
                                "type": "uint256",
                                "value": "21,328,682"
                            }
                        ],
                        "signature": "Transfer(address,address,uint256)"
                    },
                    "id": 20,
                    "logData": "0x000000000000000000000000000000000000000000000000000000000145732a",
                    "logDecoded": true,
                    "operation": "EVENT",
                    "revert": false,
                    "status": true,
                    "topics": [
                        "0xddf252ad1be2c89b69c2b068fc378daa952ba7f163c4a11628f55a4df523b3ef",
                        "0x00000000000000000000000074de5d4fcbf63e00296fd95d33236b9794016631",
                        "0x000000000000000000000000e553af3d6d197782c6fe8e7c38b052f54f108ad5"
                    ]
                },
                "nodeType": 1
            },
            "21": {
                "invocation": {
                    "address": "0xa0b86991c6218b36c1d19d4a2e9eb0ce3606eb48",
                    "callData": "0x00000000000000000000000074de5d4fcbf63e00296fd95d33236b9794016631",
                    "decodedMethod": {
                        "callParams": [
                            {
                                "name": "account",
                                "type": "address",
                                "value": "0x74de5d4fcbf63e00296fd95d33236b9794016631"
                            }
                        ],
                        "constructorArguments": "",
                        "name": "balanceOf",
                        "returnParams": [
                            {
                                "decimalAvailable": true,
                                "name": "",
                                "type": "uint256",
                                "value": "0"
                            }
                        ],
                        "signature": "balanceOf(address)"
                    },
                    "errorInfo": "",
                    "fromAddress": "0x74de5d4fcbf63e00296fd95d33236b9794016631",
                    "gasUsed": 1315,
                    "id": 21,
                    "methodDecoded": true,
                    "operation": "STATICCALL",
                    "output": "0x0000000000000000000000000000000000000000000000000000000000000000",
                    "revert": false,
                    "revertMessage": "",
                    "selector": "0x70a08231",
                    "status": true,
                    "value": "0"
                },
                "nodeType": 0
            },
            "22": {
                "invocation": {
                    "address": "0xa2327a938febf5fec13bacfb16ae10ecbc4cbdcf",
                    "callData": "0x00000000000000000000000074de5d4fcbf63e00296fd95d33236b9794016631",
                    "decodedMethod": {
                        "callParams": [
                            {
                                "name": "account",
                                "type": "address",
                                "value": "0x74de5d4fcbf63e00296fd95d33236b9794016631"
                            }
                        ],
                        "constructorArguments": "",
                        "name": "balanceOf",
                        "returnParams": [
                            {
                                "decimalAvailable": true,
                                "name": "",
                                "type": "uint256",
                                "value": "0"
                            }
                        ],
                        "signature": "balanceOf(address)"
                    },
                    "errorInfo": "",
                    "fromAddress": "0xa0b86991c6218b36c1d19d4a2e9eb0ce3606eb48",
                    "gasUsed": 529,
                    "id": 22,
                    "methodDecoded": true,
                    "operation": "DELEGATECALL",
                    "output": "0x0000000000000000000000000000000000000000000000000000000000000000",
                    "revert": false,
                    "revertMessage": "",
                    "selector": "0x70a08231",
                    "status": true,
                    "value": "0"
                },
                "nodeType": 0
            },
            "23": {
                "invocation": {
                    "address": "0x514910771af9ca656af840dff83e8264ecf986ca",
                    "callData": "0x00000000000000000000000074de5d4fcbf63e00296fd95d33236b9794016631",
                    "decodedMethod": {
                        "callParams": [
                            {
                                "name": "_owner",
                                "type": "address",
                                "value": "0x74de5d4fcbf63e00296fd95d33236b9794016631"
                            }
                        ],
                        "constructorArguments": "",
                        "name": "balanceOf",
                        "returnParams": [
                            {
                                "decimalAvailable": true,
                                "name": "balance",
                                "type": "uint256",
                                "value": "75,385,606,438,710,063,510"
                            }
                        ],
                        "signature": "balanceOf(address)"
                    },
                    "errorInfo": "",
                    "fromAddress": "0x74de5d4fcbf63e00296fd95d33236b9794016631",
                    "gasUsed": 655,
                    "id": 23,
                    "methodDecoded": true,
                    "operation": "STATICCALL",
                    "output": "0x000000000000000000000000000000000000000000000004162f79a55cb6b196",
                    "revert": false,
                    "revertMessage": "",
                    "selector": "0x70a08231",
                    "status": true,
                    "value": "0"
                },
                "nodeType": 0
            },
            "24": {
                "invocation": {
                    "address": "0x514910771af9ca656af840dff83e8264ecf986ca",
                    "callData": "0x00000000000000000000000059b42ed846b988b01fdddf2686f543203d8394d9000000000000000000000000000000000000000000000004162f79a55cb6b196",
                    "decodedMethod": {
                        "callParams": [
                            {
                                "name": "_to",
                                "type": "address",
                                "value": "0x59b42ed846b988b01fdddf2686f543203d8394d9"
                            },
                            {
                                "decimalAvailable": true,
                                "name": "_value",
                                "type": "uint256",
                                "value": "75,385,606,438,710,063,510"
                            }
                        ],
                        "constructorArguments": "",
                        "name": "transfer",
                        "returnParams": [
                            {
                                "name": "success",
                                "type": "bool",
                                "value": true
                            }
                        ],
                        "signature": "transfer(address,uint256)"
                    },
                    "errorInfo": "",
                    "fromAddress": "0x74de5d4fcbf63e00296fd95d33236b9794016631",
                    "gasUsed": 25645,
                    "id": 24,
                    "methodDecoded": true,
                    "operation": "CALL",
                    "output": "0x0000000000000000000000000000000000000000000000000000000000000001",
                    "revert": false,
                    "revertMessage": "",
                    "selector": "0xa9059cbb",
                    "status": true,
                    "value": "0"
                },
                "nodeType": 0
            },
            "25": {
                "event": {
                    "contract": "0x514910771af9ca656af840dff83e8264ecf986ca",
                    "decodedLog": {
                        "name": "Transfer",
                        "params": [
                            {
                                "name": "from",
                                "type": "address",
                                "value": "0x74de5d4fcbf63e00296fd95d33236b9794016631"
                            },
                            {
                                "name": "to",
                                "type": "address",
                                "value": "0x59b42ed846b988b01fdddf2686f543203d8394d9"
                            },
                            {
                                "decimalAvailable": true,
                                "name": "value",
                                "type": "uint256",
                                "value": "75,385,606,438,710,063,510"
                            }
                        ],
                        "signature": "Transfer(address,address,uint256)"
                    },
                    "id": 25,
                    "logData": "0x000000000000000000000000000000000000000000000004162f79a55cb6b196",
                    "logDecoded": true,
                    "operation": "EVENT",
                    "revert": false,
                    "status": true,
                    "topics": [
                        "0xddf252ad1be2c89b69c2b068fc378daa952ba7f163c4a11628f55a4df523b3ef",
                        "0x00000000000000000000000074de5d4fcbf63e00296fd95d33236b9794016631",
                        "0x00000000000000000000000059b42ed846b988b01fdddf2686f543203d8394d9"
                    ]
                },
                "nodeType": 1
            },
            "26": {
                "event": {
                    "contract": "0x881d40237659c251811cec9c364ef91dc08d300c",
                    "decodedLog": {
                        "name": "Swap",
                        "params": [
                            {
                                "name": "aggregatorId",
                                "type": "string",
                                "value": "0x0e8df7af94a59bebc3df5813833091b9230977db973545c17273ab59a38c7818"
                            },
                            {
                                "name": "sender",
                                "type": "address",
                                "value": "0x59b42ed846b988b01fdddf2686f543203d8394d9"
                            }
                        ],
                        "signature": "Swap(string,address)"
                    },
                    "id": 26,
                    "logData": "0x",
                    "logDecoded": true,
                    "operation": "EVENT",
                    "revert": false,
                    "status": true,
                    "topics": [
                        "0xbeee1e6e7fe307ddcf84b0a16137a4430ad5e2480fc4f4a8e250ab56ccd7630d",
                        "0x0e8df7af94a59bebc3df5813833091b9230977db973545c17273ab59a38c7818",
                        "0x00000000000000000000000059b42ed846b988b01fdddf2686f543203d8394d9"
                    ]
                },
                "nodeType": 1
            },
            "3": {
                "event": {
                    "contract": "0xa0b86991c6218b36c1d19d4a2e9eb0ce3606eb48",
                    "decodedLog": {
                        "name": "Transfer",
                        "params": [
                            {
                                "name": "from",
                                "type": "address",
                                "value": "0x59b42ed846b988b01fdddf2686f543203d8394d9"
                            },
                            {
                                "name": "to",
                                "type": "address",
                                "value": "0x74de5d4fcbf63e00296fd95d33236b9794016631"
                            },
                            {
                                "decimalAvailable": true,
                                "name": "value",
                                "type": "uint256",
                                "value": "2,437,563,664"
                            }
                        ],
                        "signature": "Transfer(address,address,uint256)"
                    },
                    "id": 3,
                    "logData": "0x00000000000000000000000000000000000000000000000000000000914a4510",
                    "logDecoded": true,
                    "operation": "EVENT",
                    "revert": false,
                    "status": true,
                    "topics": [
                        "0xddf252ad1be2c89b69c2b068fc378daa952ba7f163c4a11628f55a4df523b3ef",
                        "0x00000000000000000000000059b42ed846b988b01fdddf2686f543203d8394d9",
                        "0x00000000000000000000000074de5d4fcbf63e00296fd95d33236b9794016631"
                    ]
                },
                "nodeType": 1
            },
            "4": {
                "invocation": {
                    "address": "0x74de5d4fcbf63e00296fd95d33236b9794016631",
                    "callData": "0x00000000000000000000000026975300fcb750e15d69f7833737517e9b1c0e780000000000000000000000000000000000000000000000000000000000000040000000000000000000000000000000000000000000000000000000000000046492f5f03700000000000000000000000059b42ed846b988b01fdddf2686f543203d8394d9000000000000000000000000a0b86991c6218b36c1d19d4a2e9eb0ce3606eb48000000000000000000000000514910771af9ca656af840dff83e8264ecf986ca000000000000000000000000000000000000000000000000000000009004d1e6000000000000000000000000000000000000000000000003f6ccc55b480322060000000000000000000000000000000000000000000000000000000000000120000000000000000000000000000000000000000000000000000000000145732a000000000000000000000000e553af3d6d197782c6fe8e7c38b052f54f108ad5000000000000000000000000000000000000000000000000000000000000000000000000000000000000000000000000000000000000000000000000000003200000000000000000000000000000000000000000000000000000000000000060000000000000000000000000000000000000000000000000000000009004d1e600000000000000000000000000000000000000000000000000000000000002a000000000000000000000000056178a0d5f301baf6cf3e1cd53d9863437345bf900000000000000000000000074de5d4fcbf63e00296fd95d33236b979401663100000000000000000000000055662e225a3376759c24331a9aed764f8f0c9fbb0000000000000000000000000000000000000000000000000000000000000000000000000000000000000000000000000000000000000004163f159110b30000000000000000000000000000000000000000000000000000000000009006f7fb000000000000000000000000000000000000000000000000000000000000000000000000000000000000000000000000000000000000000000000000000000000000000000000000000000000000000000000000000000000000000060b576cf01ffffffffffffffffffffffffffffffffffffff2e5ad92260b576390000001b000000000000000000000000000000000000000000000000000000000000018000000000000000000000000000000000000000000000000000000000000001e00000000000000000000000000000000000000000000000000000000000000024f47261b0000000000000000000000000514910771af9ca656af840dff83e8264ecf986ca000000000000000000000000000000000000000000000000000000000000000000000000000000000000000000000000000000000000000000000024f47261b0000000000000000000000000a0b86991c6218b36c1d19d4a2e9eb0ce3606eb480000000000000000000000000000000000000000000000000000000000000000000000000000000000000000000000000000000000000000000000421be07f7140955c2508af70cfe4c80cf077129b918fb4dc8bb020856f5e5861f24465b41c4f4f56e9434499601bd8006fd7798302901025ed0d626812c75c3a198d0300000000000000000000000000000000000000000000000000000000000000000000000000000000000000000000000000000000000000000000",
                    "decodedMethod": {
                        "callParams": [
                            {
                                "name": "adapter",
                                "type": "address",
                                "value": "0x26975300fcb750e15d69f7833737517e9b1c0e78"
                            },
                            {
                                "name": "data",
                                "type": "bytes",
                                "value": "0x92f5f03700000000000000000000000059b42ed846b988b01fdddf2686f543203d8394d9000000000000000000000000a0b86991c6218b36c1d19d4a2e9eb0ce3606eb48000000000000000000000000514910771af9ca656af840dff83e8264ecf986ca000000000000000000000000000000000000000000000000000000009004d1e6000000000000000000000000000000000000000000000003f6ccc55b480322060000000000000000000000000000000000000000000000000000000000000120000000000000000000000000000000000000000000000000000000000145732a000000000000000000000000e553af3d6d197782c6fe8e7c38b052f54f108ad5000000000000000000000000000000000000000000000000000000000000000000000000000000000000000000000000000000000000000000000000000003200000000000000000000000000000000000000000000000000000000000000060000000000000000000000000000000000000000000000000000000009004d1e600000000000000000000000000000000000000000000000000000000000002a000000000000000000000000056178a0d5f301baf6cf3e1cd53d9863437345bf900000000000000000000000074de5d4fcbf63e00296fd95d33236b979401663100000000000000000000000055662e225a3376759c24331a9aed764f8f0c9fbb0000000000000000000000000000000000000000000000000000000000000000000000000000000000000000000000000000000000000004163f159110b30000000000000000000000000000000000000000000000000000000000009006f7fb000000000000000000000000000000000000000000000000000000000000000000000000000000000000000000000000000000000000000000000000000000000000000000000000000000000000000000000000000000000000000060b576cf01ffffffffffffffffffffffffffffffffffffff2e5ad92260b576390000001b000000000000000000000000000000000000000000000000000000000000018000000000000000000000000000000000000000000000000000000000000001e00000000000000000000000000000000000000000000000000000000000000024f47261b0000000000000000000000000514910771af9ca656af840dff83e8264ecf986ca000000000000000000000000000000000000000000000000000000000000000000000000000000000000000000000000000000000000000000000024f47261b0000000000000000000000000a0b86991c6218b36c1d19d4a2e9eb0ce3606eb480000000000000000000000000000000000000000000000000000000000000000000000000000000000000000000000000000000000000000000000421be07f7140955c2508af70cfe4c80cf077129b918fb4dc8bb020856f5e5861f24465b41c4f4f56e9434499601bd8006fd7798302901025ed0d626812c75c3a198d03000000000000000000000000000000000000000000000000000000000000"
                            }
                        ],
                        "constructorArguments": "",
                        "name": "swap",
                        "returnParams": [],
                        "signature": "swap(address,bytes)"
                    },
                    "errorInfo": "",
                    "fromAddress": "0x881d40237659c251811cec9c364ef91dc08d300c",
                    "gasUsed": 209060,
                    "id": 4,
                    "methodDecoded": true,
                    "operation": "CALL",
                    "output": "",
                    "revert": false,
                    "revertMessage": "",
                    "selector": "0xe3547335",
                    "status": true,
                    "value": "0"
                },
                "nodeType": 0
            },
            "5": {
                "invocation": {
                    "address": "0x26975300fcb750e15d69f7833737517e9b1c0e78",
                    "callData": "0x00000000000000000000000059b42ed846b988b01fdddf2686f543203d8394d9000000000000000000000000a0b86991c6218b36c1d19d4a2e9eb0ce3606eb48000000000000000000000000514910771af9ca656af840dff83e8264ecf986ca000000000000000000000000000000000000000000000000000000009004d1e6000000000000000000000000000000000000000000000003f6ccc55b480322060000000000000000000000000000000000000000000000000000000000000120000000000000000000000000000000000000000000000000000000000145732a000000000000000000000000e553af3d6d197782c6fe8e7c38b052f54f108ad5000000000000000000000000000000000000000000000000000000000000000000000000000000000000000000000000000000000000000000000000000003200000000000000000000000000000000000000000000000000000000000000060000000000000000000000000000000000000000000000000000000009004d1e600000000000000000000000000000000000000000000000000000000000002a000000000000000000000000056178a0d5f301baf6cf3e1cd53d9863437345bf900000000000000000000000074de5d4fcbf63e00296fd95d33236b979401663100000000000000000000000055662e225a3376759c24331a9aed764f8f0c9fbb0000000000000000000000000000000000000000000000000000000000000000000000000000000000000000000000000000000000000004163f159110b30000000000000000000000000000000000000000000000000000000000009006f7fb000000000000000000000000000000000000000000000000000000000000000000000000000000000000000000000000000000000000000000000000000000000000000000000000000000000000000000000000000000000000000060b576cf01ffffffffffffffffffffffffffffffffffffff2e5ad92260b576390000001b000000000000000000000000000000000000000000000000000000000000018000000000000000000000000000000000000000000000000000000000000001e00000000000000000000000000000000000000000000000000000000000000024f47261b0000000000000000000000000514910771af9ca656af840dff83e8264ecf986ca000000000000000000000000000000000000000000000000000000000000000000000000000000000000000000000000000000000000000000000024f47261b0000000000000000000000000a0b86991c6218b36c1d19d4a2e9eb0ce3606eb480000000000000000000000000000000000000000000000000000000000000000000000000000000000000000000000000000000000000000000000421be07f7140955c2508af70cfe4c80cf077129b918fb4dc8bb020856f5e5861f24465b41c4f4f56e9434499601bd8006fd7798302901025ed0d626812c75c3a198d03000000000000000000000000000000000000000000000000000000000000",
                    "decodedMethod": null,
                    "errorInfo": "",
                    "fromAddress": "0x74de5d4fcbf63e00296fd95d33236b9794016631",
                    "gasUsed": 202343,
                    "id": 5,
                    "methodDecoded": false,
                    "operation": "DELEGATECALL",
                    "output": "",
                    "revert": false,
                    "revertMessage": "",
                    "selector": "0x92f5f037",
                    "status": true,
                    "value": "0"
                },
                "nodeType": 0
            },
            "6": {
                "invocation": {
                    "address": "0xa0b86991c6218b36c1d19d4a2e9eb0ce3606eb48",
                    "callData": "0x00000000000000000000000074de5d4fcbf63e00296fd95d33236b979401663100000000000000000000000095e6f48254609a6ee006f7d493c8e5fb97094cef",
                    "decodedMethod": {
                        "callParams": [
                            {
                                "name": "owner",
                                "type": "address",
                                "value": "0x74de5d4fcbf63e00296fd95d33236b9794016631"
                            },
                            {
                                "name": "spender",
                                "type": "address",
                                "value": "0x95e6f48254609a6ee006f7d493c8e5fb97094cef"
                            }
                        ],
                        "constructorArguments": "",
                        "name": "allowance",
                        "returnParams": [
                            {
                                "decimalAvailable": true,
                                "name": "",
                                "type": "uint256",
                                "value": "115,792,089,237,316,195,423,570,985,008,687,907,853,269,984,665,640,564,039,457,583,987,934,452,364,581"
                            }
                        ],
                        "signature": "allowance(address,address)"
                    },
                    "errorInfo": "",
                    "fromAddress": "0x74de5d4fcbf63e00296fd95d33236b9794016631",
                    "gasUsed": 3426,
                    "id": 6,
                    "methodDecoded": true,
                    "operation": "STATICCALL",
                    "output": "0xffffffffffffffffffffffffffffffffffffffffffffffffffffedd45a09b525",
                    "revert": false,
                    "revertMessage": "",
                    "selector": "0xdd62ed3e",
                    "status": true,
                    "value": "0"
                },
                "nodeType": 0
            },
            "7": {
                "invocation": {
                    "address": "0xa2327a938febf5fec13bacfb16ae10ecbc4cbdcf",
                    "callData": "0x00000000000000000000000074de5d4fcbf63e00296fd95d33236b979401663100000000000000000000000095e6f48254609a6ee006f7d493c8e5fb97094cef",
                    "decodedMethod": {
                        "callParams": [
                            {
                                "name": "owner",
                                "type": "address",
                                "value": "0x74de5d4fcbf63e00296fd95d33236b9794016631"
                            },
                            {
                                "name": "spender",
                                "type": "address",
                                "value": "0x95e6f48254609a6ee006f7d493c8e5fb97094cef"
                            }
                        ],
                        "constructorArguments": "",
                        "name": "allowance",
                        "returnParams": [
                            {
                                "decimalAvailable": true,
                                "name": "",
                                "type": "uint256",
                                "value": "115,792,089,237,316,195,423,570,985,008,687,907,853,269,984,665,640,564,039,457,583,987,934,452,364,581"
                            }
                        ],
                        "signature": "allowance(address,address)"
                    },
                    "errorInfo": "",
                    "fromAddress": "0xa0b86991c6218b36c1d19d4a2e9eb0ce3606eb48",
                    "gasUsed": 2637,
                    "id": 7,
                    "methodDecoded": true,
                    "operation": "DELEGATECALL",
                    "output": "0xffffffffffffffffffffffffffffffffffffffffffffffffffffedd45a09b525",
                    "revert": false,
                    "revertMessage": "",
                    "selector": "0xdd62ed3e",
                    "status": true,
                    "value": "0"
                },
                "nodeType": 0
            },
            "8": {
                "invocation": {
                    "address": "0x080bf510fcbf18b91105470639e9561022937712",
                    "callData": "0x0000000000000000000000000000000000000000000000000000000000000060000000000000000000000000000000000000000000000000000000009004d1e600000000000000000000000000000000000000000000000000000000000002a000000000000000000000000056178a0d5f301baf6cf3e1cd53d9863437345bf900000000000000000000000074de5d4fcbf63e00296fd95d33236b979401663100000000000000000000000055662e225a3376759c24331a9aed764f8f0c9fbb0000000000000000000000000000000000000000000000000000000000000000000000000000000000000000000000000000000000000004163f159110b30000000000000000000000000000000000000000000000000000000000009006f7fb000000000000000000000000000000000000000000000000000000000000000000000000000000000000000000000000000000000000000000000000000000000000000000000000000000000000000000000000000000000000000060b576cf01ffffffffffffffffffffffffffffffffffffff2e5ad92260b576390000001b000000000000000000000000000000000000000000000000000000000000018000000000000000000000000000000000000000000000000000000000000001e00000000000000000000000000000000000000000000000000000000000000024f47261b0000000000000000000000000514910771af9ca656af840dff83e8264ecf986ca000000000000000000000000000000000000000000000000000000000000000000000000000000000000000000000000000000000000000000000024f47261b0000000000000000000000000a0b86991c6218b36c1d19d4a2e9eb0ce3606eb480000000000000000000000000000000000000000000000000000000000000000000000000000000000000000000000000000000000000000000000421be07f7140955c2508af70cfe4c80cf077129b918fb4dc8bb020856f5e5861f24465b41c4f4f56e9434499601bd8006fd7798302901025ed0d626812c75c3a198d03000000000000000000000000000000000000000000000000000000000000",
                    "decodedMethod": {
                        "callParams": [
                            {
                                "name": "order",
                                "type": "(address,address,address,address,uint256,uint256,uint256,uint256,uint256,uint256,bytes,bytes)",
                                "value": [
                                    {
                                        "name": "makerAddress",
                                        "type": "address",
                                        "value": "0x56178a0d5f301baf6cf3e1cd53d9863437345bf9"
                                    },
                                    {
                                        "name": "takerAddress",
                                        "type": "address",
                                        "value": "0x74de5d4fcbf63e00296fd95d33236b9794016631"
                                    },
                                    {
                                        "name": "feeRecipientAddress",
                                        "type": "address",
                                        "value": "0x55662e225a3376759c24331a9aed764f8f0c9fbb"
                                    },
                                    {
                                        "name": "senderAddress",
                                        "type": "address",
                                        "value": "0x0000000000000000000000000000000000000000"
                                    },
                                    {
                                        "name": "makerAssetAmount",
                                        "type": "uint256",
                                        "value": "75,390,000,000,000,000,000"
                                    },
                                    {
                                        "name": "takerAssetAmount",
                                        "type": "uint256",
                                        "value": "2,416,375,803"
                                    },
                                    {
                                        "name": "makerFee",
                                        "type": "uint256",
                                        "value": "0"
                                    },
                                    {
                                        "name": "takerFee",
                                        "type": "uint256",
                                        "value": "0"
                                    },
                                    {
                                        "name": "expirationTimeSeconds",
                                        "type": "uint256",
                                        "value": "1,622,505,167"
                                    },
                                    {
                                        "name": "salt",
                                        "type": "uint256",
                                        "value": "904,625,697,166,532,776,746,648,320,380,374,280,103,671,755,135,434,883,207,229,914,460,087,910,427"
                                    },
                                    {
                                        "name": "makerAssetData",
                                        "type": "bytes",
                                        "value": "0xf47261b0000000000000000000000000514910771af9ca656af840dff83e8264ecf986ca"
                                    },
                                    {
                                        "name": "takerAssetData",
                                        "type": "bytes",
                                        "value": "0xf47261b0000000000000000000000000a0b86991c6218b36c1d19d4a2e9eb0ce3606eb48"
                                    }
                                ]
                            },
                            {
                                "name": "takerAssetFillAmount",
                                "type": "uint256",
                                "value": "2,416,234,982"
                            },
                            {
                                "name": "signature",
                                "type": "bytes",
                                "value": "0x1be07f7140955c2508af70cfe4c80cf077129b918fb4dc8bb020856f5e5861f24465b41c4f4f56e9434499601bd8006fd7798302901025ed0d626812c75c3a198d03"
                            }
                        ],
                        "constructorArguments": "",
                        "name": "fillOrder",
                        "returnParams": [
                            {
                                "name": "fillResults",
                                "type": "(uint256,uint256,uint256,uint256)",
                                "value": [
                                    {
                                        "name": "makerAssetFilledAmount",
                                        "type": "uint256",
                                        "value": "75,385,606,438,710,063,510"
                                    },
                                    {
                                        "name": "takerAssetFilledAmount",
                                        "type": "uint256",
                                        "value": "2,416,234,982"
                                    },
                                    {
                                        "name": "makerFeePaid",
                                        "type": "uint256",
                                        "value": "0"
                                    },
                                    {
                                        "name": "takerFeePaid",
                                        "type": "uint256",
                                        "value": "0"
                                    }
                                ]
                            }
                        ],
                        "signature": "fillOrder((address,address,address,address,uint256,uint256,uint256,uint256,uint256,uint256,bytes,bytes),uint256,bytes)"
                    },
                    "errorInfo": "",
                    "fromAddress": "0x74de5d4fcbf63e00296fd95d33236b9794016631",
                    "gasUsed": 148539,
                    "id": 8,
                    "methodDecoded": true,
                    "operation": "CALL",
                    "output": "0x000000000000000000000000000000000000000000000004162f79a55cb6b196000000000000000000000000000000000000000000000000000000009004d1e600000000000000000000000000000000000000000000000000000000000000000000000000000000000000000000000000000000000000000000000000000000",
                    "revert": false,
                    "revertMessage": "",
                    "selector": "0xb4be83d5",
                    "status": true,
                    "value": "0"
                },
                "nodeType": 0
            },
            "9": {
                "invocation": {
                    "address": "0x0000000000000000000000000000000000000001",
                    "callData": "0x9c61b82b389a97dabbee5cb3414ac5e344ca670de10ae926c16d72ea000000000000000000000000000000000000000000000000000000000000001be07f7140955c2508af70cfe4c80cf077129b918fb4dc8bb020856f5e5861f24465b41c4f4f56e9434499601bd8006fd7798302901025ed0d626812c75c3a198d",
                    "decodedMethod": {
                        "callParams": [
                            {
                                "name": "hash",
                                "type": "bytes32",
                                "value": "0x12de56e19c61b82b389a97dabbee5cb3414ac5e344ca670de10ae926c16d72ea"
                            },
                            {
                                "name": "v",
                                "type": "uint256",
                                "value": "27"
                            },
                            {
                                "name": "r",
                                "type": "bytes32",
                                "value": "0xe07f7140955c2508af70cfe4c80cf077129b918fb4dc8bb020856f5e5861f244"
                            },
                            {
                                "name": "s",
                                "type": "bytes32",
                                "value": "0x65b41c4f4f56e9434499601bd8006fd7798302901025ed0d626812c75c3a198d"
                            }
                        ],
                        "constructorArguments": "",
                        "name": "ecrecover",
                        "returnParams": [
                            {
                                "name": "",
                                "type": "address",
                                "value": "0x56178a0d5f301baf6cf3e1cd53d9863437345bf9"
                            }
                        ],
                        "signature": "ecrecover(bytes32,uint256,bytes32,bytes32)"
                    },
                    "errorInfo": "",
                    "fromAddress": "0x080bf510fcbf18b91105470639e9561022937712",
                    "gasUsed": 3000,
                    "id": 9,
                    "methodDecoded": true,
                    "operation": "CALL",
                    "output": "0x00000000000000000000000056178a0d5f301baf6cf3e1cd53d9863437345bf9",
                    "revert": false,
                    "revertMessage": "",
                    "selector": "0x12de56e1",
                    "status": true,
                    "value": "0"
                },
                "nodeType": 0
            }
        },
        "gasFlame": [
            {
                "children": [
                    {
                        "children": [
                            {
                                "children": [],
                                "depth": 0,
                                "name": "Initial Gas",
                                "value": 30564
                            },
                            {
                                "children": [
                                    {
                                        "children": [
                                            {
                                                "children": [],
                                                "depth": 2,
                                                "name": "transferFrom",
                                                "value": 44697
                                            }
                                        ],
                                        "depth": 1,
                                        "name": "transferFrom",
                                        "value": 51992
                                    },
                                    {
                                        "children": [
                                            {
                                                "children": [
                                                    {
                                                        "children": [
                                                            {
                                                                "children": [],
                                                                "depth": 4,
                                                                "name": "allowance",
                                                                "value": 2637
                                                            }
                                                        ],
                                                        "depth": 3,
                                                        "name": "allowance",
                                                        "value": 3426
                                                    },
                                                    {
                                                        "children": [
                                                            {
                                                                "children": [],
                                                                "depth": 4,
                                                                "name": "ecrecover",
                                                                "value": 3000
                                                            },
                                                            {
                                                                "children": [
                                                                    {
                                                                        "children": [],
                                                                        "depth": 5,
                                                                        "name": "transferFrom",
                                                                        "value": 35800
                                                                    }
                                                                ],
                                                                "depth": 4,
                                                                "name": "transferFrom",
                                                                "value": 41054
                                                            },
                                                            {
                                                                "children": [
                                                                    {
                                                                        "children": [
                                                                            {
                                                                                "children": [],
                                                                                "depth": 6,
                                                                                "name": "transferFrom",
                                                                                "value": 16797
                                                                            }
                                                                        ],
                                                                        "depth": 5,
                                                                        "name": "transferFrom",
                                                                        "value": 17592
                                                                    }
                                                                ],
                                                                "depth": 4,
                                                                "name": "transferFrom",
                                                                "value": 18346
                                                            }
                                                        ],
                                                        "depth": 3,
                                                        "name": "fillOrder",
                                                        "value": 148539
                                                    },
                                                    {
                                                        "children": [
                                                            {
                                                                "children": [],
                                                                "depth": 4,
                                                                "name": "transfer",
                                                                "value": 10828
                                                            }
                                                        ],
                                                        "depth": 3,
                                                        "name": "transfer",
                                                        "value": 11617
                                                    },
                                                    {
                                                        "children": [
                                                            {
                                                                "children": [],
                                                                "depth": 4,
                                                                "name": "balanceOf",
                                                                "value": 529
                                                            }
                                                        ],
                                                        "depth": 3,
                                                        "name": "balanceOf",
                                                        "value": 1315
                                                    },
                                                    {
                                                        "children": [],
                                                        "depth": 3,
                                                        "name": "balanceOf",
                                                        "value": 655
                                                    },
                                                    {
                                                        "children": [],
                                                        "depth": 3,
                                                        "name": "transfer",
                                                        "value": 25645
                                                    }
                                                ],
                                                "depth": 2,
                                                "name": "0x92f5f037",
                                                "value": 202343
                                            }
                                        ],
                                        "depth": 1,
                                        "name": "swap",
                                        "value": 209060
                                    }
                                ],
                                "depth": 0,
                                "name": "Executed Gas",
                                "value": 285467
                            }
                        ],
                        "depth": -1,
                        "name": "Actual Gas Used",
                        "value": 238531
                    },
                    {
                        "children": [],
                        "depth": -1,
                        "name": "Refunded Gas",
                        "value": 77500
                    }
                ],
                "depth": -2,
                "name": "Total Gas",
                "value": 316031
            }
        ],
        "isConfirmed": true,
        "mainTrace": [
            {
                "children": [
                    {
                        "children": [
                            {
                                "children": [
                                    {
                                        "children": [
                                            {
                                                "children": [],
                                                "depth": 3,
                                                "id": 3,
                                                "order": 3
                                            }
                                        ],
                                        "depth": 2,
                                        "id": 2,
                                        "order": 2
                                    }
                                ],
                                "depth": 1,
                                "id": 1,
                                "order": 1
                            },
                            {
                                "children": [
                                    {
                                        "children": [
                                            {
                                                "children": [
                                                    {
                                                        "children": [],
                                                        "depth": 4,
                                                        "id": 7,
                                                        "order": 7
                                                    }
                                                ],
                                                "depth": 3,
                                                "id": 6,
                                                "order": 6
                                            },
                                            {
                                                "children": [
                                                    {
                                                        "children": [],
                                                        "depth": 4,
                                                        "id": 9,
                                                        "order": 9
                                                    },
                                                    {
                                                        "children": [],
                                                        "depth": 4,
                                                        "id": 10,
                                                        "order": 10
                                                    },
                                                    {
                                                        "children": [
                                                            {
                                                                "children": [
                                                                    {
                                                                        "children": [],
                                                                        "depth": 6,
                                                                        "id": 13,
                                                                        "order": 13
                                                                    }
                                                                ],
                                                                "depth": 5,
                                                                "id": 12,
                                                                "order": 12
                                                            }
                                                        ],
                                                        "depth": 4,
                                                        "id": 11,
                                                        "order": 11
                                                    },
                                                    {
                                                        "children": [
                                                            {
                                                                "children": [
                                                                    {
                                                                        "children": [
                                                                            {
                                                                                "children": [],
                                                                                "depth": 7,
                                                                                "id": 17,
                                                                                "order": 17
                                                                            }
                                                                        ],
                                                                        "depth": 6,
                                                                        "id": 16,
                                                                        "order": 16
                                                                    }
                                                                ],
                                                                "depth": 5,
                                                                "id": 15,
                                                                "order": 15
                                                            }
                                                        ],
                                                        "depth": 4,
                                                        "id": 14,
                                                        "order": 14
                                                    }
                                                ],
                                                "depth": 3,
                                                "id": 8,
                                                "order": 8
                                            },
                                            {
                                                "children": [
                                                    {
                                                        "children": [
                                                            {
                                                                "children": [],
                                                                "depth": 5,
                                                                "id": 20,
                                                                "order": 20
                                                            }
                                                        ],
                                                        "depth": 4,
                                                        "id": 19,
                                                        "order": 19
                                                    }
                                                ],
                                                "depth": 3,
                                                "id": 18,
                                                "order": 18
                                            },
                                            {
                                                "children": [
                                                    {
                                                        "children": [],
                                                        "depth": 4,
                                                        "id": 22,
                                                        "order": 22
                                                    }
                                                ],
                                                "depth": 3,
                                                "id": 21,
                                                "order": 21
                                            },
                                            {
                                                "children": [],
                                                "depth": 3,
                                                "id": 23,
                                                "order": 23
                                            },
                                            {
                                                "children": [
                                                    {
                                                        "children": [],
                                                        "depth": 4,
                                                        "id": 25,
                                                        "order": 25
                                                    }
                                                ],
                                                "depth": 3,
                                                "id": 24,
                                                "order": 24
                                            }
                                        ],
                                        "depth": 2,
                                        "id": 5,
                                        "order": 5
                                    }
                                ],
                                "depth": 1,
                                "id": 4,
                                "order": 4
                            },
                            {
                                "children": [],
                                "depth": 1,
                                "id": 26,
                                "order": 26
                            }
                        ],
                        "depth": 0,
                        "id": 0,
                        "order": 0
                    }
                ],
                "depth": -1,
                "id": -1,
                "order": -1
            }
        ],
        "mainTraceNodeCount": 27,
        "parentIdMap": {
            "0": -1,
            "1": 0,
            "10": 8,
            "11": 8,
            "12": 11,
            "13": 12,
            "14": 8,
            "15": 14,
            "16": 15,
            "17": 16,
            "18": 5,
            "19": 18,
            "2": 1,
            "20": 19,
            "21": 5,
            "22": 21,
            "23": 5,
            "24": 5,
            "25": 24,
            "26": 0,
            "3": 2,
            "4": 0,
            "5": 4,
            "6": 5,
            "7": 6,
            "8": 5,
            "9": 8
        },
        "tidyTrace": [
            {
                "children": [
                    {
                        "children": [
                            {
                                "children": [
                                    {
                                        "children": [
                                            {
                                                "children": [],
                                                "depth": 3,
                                                "id": 3,
                                                "order": 3
                                            }
                                        ],
                                        "depth": 2,
                                        "id": 2,
                                        "order": 2
                                    }
                                ],
                                "depth": 1,
                                "id": 1,
                                "order": 1
                            },
                            {
                                "children": [
                                    {
                                        "children": [
                                            {
                                                "children": [
                                                    {
                                                        "children": [],
                                                        "depth": 4,
                                                        "id": 9,
                                                        "order": 9
                                                    },
                                                    {
                                                        "children": [],
                                                        "depth": 4,
                                                        "id": 10,
                                                        "order": 10
                                                    },
                                                    {
                                                        "children": [
                                                            {
                                                                "children": [
                                                                    {
                                                                        "children": [],
                                                                        "depth": 6,
                                                                        "id": 13,
                                                                        "order": 13
                                                                    }
                                                                ],
                                                                "depth": 5,
                                                                "id": 12,
                                                                "order": 12
                                                            }
                                                        ],
                                                        "depth": 4,
                                                        "id": 11,
                                                        "order": 11
                                                    },
                                                    {
                                                        "children": [
                                                            {
                                                                "children": [
                                                                    {
                                                                        "children": [
                                                                            {
                                                                                "children": [],
                                                                                "depth": 7,
                                                                                "id": 17,
                                                                                "order": 17
                                                                            }
                                                                        ],
                                                                        "depth": 6,
                                                                        "id": 16,
                                                                        "order": 16
                                                                    }
                                                                ],
                                                                "depth": 5,
                                                                "id": 15,
                                                                "order": 15
                                                            }
                                                        ],
                                                        "depth": 4,
                                                        "id": 14,
                                                        "order": 14
                                                    }
                                                ],
                                                "depth": 3,
                                                "id": 8,
                                                "order": 8
                                            },
                                            {
                                                "children": [
                                                    {
                                                        "children": [
                                                            {
                                                                "children": [],
                                                                "depth": 5,
                                                                "id": 20,
                                                                "order": 20
                                                            }
                                                        ],
                                                        "depth": 4,
                                                        "id": 19,
                                                        "order": 19
                                                    }
                                                ],
                                                "depth": 3,
                                                "id": 18,
                                                "order": 18
                                            },
                                            {
                                                "children": [
                                                    {
                                                        "children": [],
                                                        "depth": 4,
                                                        "id": 25,
                                                        "order": 25
                                                    }
                                                ],
                                                "depth": 3,
                                                "id": 24,
                                                "order": 24
                                            }
                                        ],
                                        "depth": 2,
                                        "id": 5,
                                        "order": 5
                                    }
                                ],
                                "depth": 1,
                                "id": 4,
                                "order": 4
                            },
                            {
                                "children": [],
                                "depth": 1,
                                "id": 26,
                                "order": 26
                            }
                        ],
                        "depth": 0,
                        "id": 0,
                        "order": 0
                    }
                ],
                "depth": -1,
                "id": -1,
                "order": -1
            }
        ],
        "tidyTraceNodeCount": 22
    },
    "state_change": {
        "stateChanges": [
            {
                "address": "0x080bf510fcbf18b91105470639e9561022937712",
                "erc": "",
                "slots": [
                    {
                        "current": "0x000000000000000000000000000000000000000000000000000000009004d1e6",
                        "key": "0xa3834c23d72076c45a63ca7475f2001446deef4f1c819c6c282a216f6ae53206",
                        "prev": "0x0000000000000000000000000000000000000000000000000000000000000000"
                    }
                ],
                "storageVariables": [
                    {
                        "name": "filled",
                        "type": "mapping(bytes32 => uint256)",
                        "value": {
                            "pairs": [
                                {
                                    "key": "0x493b1a4d0d659ce1b23866ba0f463c3825afd5d773e9cd17c072e1e382eac0a6",
                                    "value": {
                                        "current": "2416234982",
                                        "prev": "0",
                                        "typeTag": 1
                                    }
                                }
                            ],
                            "typeTag": 4
                        }
                    }
                ]
            },
            {
                "address": "0x514910771af9ca656af840dff83e8264ecf986ca",
                "erc": "",
                "slots": [
                    {
                        "current": "0x00000000000000000000000000000000000000000000032258150a0b0a28dbf2",
                        "key": "0xf0c160ada807d617fc026bf601e74d7de8b32c57504814235e095f421a29f8a8",
                        "prev": "0x0000000000000000000000000000000000000000000003266e4483b066df8d88"
                    },
                    {
                        "current": "0xfffffffffffffffffffffffffffffffffffffffffffd9a996bca34bcbe99d5a3",
                        "key": "0xa222cc1ab719fdd4222f56332969e85a0715fd5d0460b4e3480cf3ea647aaa7f",
                        "prev": "0xfffffffffffffffffffffffffffffffffffffffffffd9a9d81f9ae621b508739"
                    },
                    {
                        "current": "0x000000000000000000000000000000000000000000000004162f79a55cb6b196",
                        "key": "0x97189bcb7eb9fc2f70f562a224878ba4dc03acf25fe498edfeebfadfd616657c",
                        "prev": "0x0000000000000000000000000000000000000000000000000000000000000000"
                    }
                ],
                "storageVariables": [
                    {
                        "name": "balances",
                        "type": "mapping(address => uint256)",
                        "value": {
                            "pairs": [
                                {
                                    "key": "0x56178a0d5f301baf6cf3e1cd53d9863437345bf9",
                                    "value": {
                                        "current": "14800635737407440346098",
                                        "prev": "14876021343846150409608",
                                        "typeTag": 1
                                    }
                                },
                                {
                                    "key": "0x59b42ed846b988b01fdddf2686f543203d8394d9",
                                    "value": {
                                        "current": "75385606438710063510",
                                        "prev": "0",
                                        "typeTag": 1
                                    }
                                }
                            ],
                            "typeTag": 4
                        }
                    },
                    {
                        "name": "allowed",
                        "type": "mapping(address => mapping(address => uint256))",
                        "value": {
                            "pairs": [
                                {
                                    "key": "0x56178a0d5f301baf6cf3e1cd53d9863437345bf9",
                                    "value": {
                                        "pairs": [
                                            {
                                                "key": "0x95e6f48254609a6ee006f7d493c8e5fb97094cef",
                                                "value": {
                                                    "current": "115792089237316195423570985008687907853269984665640561142754682447721139918243",
                                                    "prev": "115792089237316195423570985008687907853269984665640561142830068054159849981753",
                                                    "typeTag": 1
                                                }
                                            }
                                        ],
                                        "typeTag": 4
                                    }
                                }
                            ],
                            "typeTag": 4
                        }
                    }
                ]
            },
            {
                "address": "0xa0b86991c6218b36c1d19d4a2e9eb0ce3606eb48",
                "erc": "ERC-20",
                "slots": [
                    {
                        "current": "0x0000000000000000000000000000000000000000000000000000000000000000",
                        "key": "0x4574ac1d264779d0fd8419b3effcc84bdb21e1322ae7256a624e8b1f819e84c0",
                        "prev": "0x00000000000000000000000000000000000000000000000000000000914a4510"
                    },
                    {
                        "current": "0x0000000000000000000000000000000000000000004a817c7ffffffd1aa9d6f0",
                        "key": "0x016e65a1d6dba88a280aec6249fbb50ffbafa2fea32c6c6dfe37d9b3d32882ab",
                        "prev": "0x0000000000000000000000000000000000000000004a817c7ffffffdabf41c00"
                    },
                    {
                        "current": "0x0000000000000000000000000000000000000000000000000000072e11f03b67",
                        "key": "0x1646e11273b8bbc66c81bdda3290ed5d99ce9c5ecb39e7d6cdd5c1518d86e3d9",
                        "prev": "0x0000000000000000000000000000000000000000000000000000072d81eb6981"
                    },
                    {
                        "current": "0xffffffffffffffffffffffffffffffffffffffffffffffffffffedd3ca04e33f",
                        "key": "0x87c31415ada18f5a856b56a386427a0a6bdf237b747115ef6943fccddca791bb",
                        "prev": "0xffffffffffffffffffffffffffffffffffffffffffffffffffffedd45a09b525"
                    },
                    {
                        "current": "0x00000000000000000000000000000000000000000000000000000000188ca4f1",
                        "key": "0xa43a62664de869a4f9f8de9e44a8fe3eb8683712283b6f5853f5751ac9921140",
                        "prev": "0x00000000000000000000000000000000000000000000000000000000174731c7"
                    }
                ],
                "storageVariables": [
                    {
                        "name": "balances",
                        "type": "mapping(address => uint256)",
                        "value": {
                            "pairs": [
                                {
                                    "key": "0x56178a0d5f301baf6cf3e1cd53d9863437345bf9",
                                    "value": {
                                        "current": "7894450846567",
                                        "prev": "7892034611585",
                                        "typeTag": 1
                                    }
                                },
                                {
                                    "key": "0x59b42ed846b988b01fdddf2686f543203d8394d9",
                                    "value": {
                                        "current": "0",
                                        "prev": "2437563664",
                                        "typeTag": 1
                                    }
                                },
                                {
                                    "key": "0xe553af3d6d197782c6fe8e7c38b052f54f108ad5",
                                    "value": {
                                        "current": "411870449",
                                        "prev": "390541767",
                                        "typeTag": 1
                                    }
                                }
                            ],
                            "typeTag": 4
                        }
                    },
                    {
                        "name": "allowed",
                        "type": "mapping(address => mapping(address => uint256))",
                        "value": {
                            "pairs": [
                                {
                                    "key": "0x59b42ed846b988b01fdddf2686f543203d8394d9",
                                    "value": {
                                        "pairs": [
                                            {
                                                "key": "0x881d40237659c251811cec9c364ef91dc08d300c",
                                                "value": {
                                                    "current": "90071992547409907562436336",
                                                    "prev": "90071992547409910000000000",
                                                    "typeTag": 1
                                                }
                                            }
                                        ],
                                        "typeTag": 4
                                    }
                                },
                                {
                                    "key": "0x74de5d4fcbf63e00296fd95d33236b9794016631",
                                    "value": {
                                        "pairs": [
                                            {
                                                "key": "0x95e6f48254609a6ee006f7d493c8e5fb97094cef",
                                                "value": {
                                                    "current": "115792089237316195423570985008687907853269984665640564039457583987932036129599",
                                                    "prev": "115792089237316195423570985008687907853269984665640564039457583987934452364581",
                                                    "typeTag": 1
                                                }
                                            }
                                        ],
                                        "typeTag": 4
                                    }
                                }
                            ],
                            "typeTag": 4
                        }
                    }
                ]
            }
        ]
    }
}