{
    "balance_change": {
        "balanceChanges": [
            {
                "account": "0x085efa69eb288584fee21a11c692e18f65675c11",
                "assets": [
                    {
                        "address": "0x4946583c5b86e01ccd30c71a05617d06e3e73060",
                        "amount": "20,000",
                        "iconUrl": "",
                        "isERC1155": false,
                        "isERC721": false,
                        "sign": false,
                        "value": ""
                    }
                ]
            },
            {
                "account": "0x861c94cf7c1e36961dffb00cf29ff8d0d5f9eae8",
                "assets": [
                    {
                        "address": "0x4946583c5b86e01ccd30c71a05617d06e3e73060",
                        "amount": "20,000",
                        "iconUrl": "",
                        "isERC1155": false,
                        "isERC721": false,
                        "sign": true,
                        "value": ""
                    }
                ]
            }
        ]
    },
    "profile": {
        "basic_info": {
            "baseFee": "",
            "blockNumber": 8710986,
            "callData": "0xa9059cbb000000000000000000000000861c94cf7c1e36961dffb00cf29ff8d0d5f9eae800000000000000000000000000000000000000000000043c33c1937564800000",
            "debugEnable": true,
            "errorInfo": "",
            "eventCount": 1,
            "feeRecipient": "0x04668ec2f57cc15c381b461b9fedab5d451c8f7f",
            "formatValue": "0",
            "gasLimit": 53477,
            "gasPrice": "1",
            "gasUsed": 53477,
            "intTxnCount": 0,
            "internalRevert": false,
            "internalRevertMessage": "",
            "isContractCreation": false,
            "isFlashloan": false,
            "maxFee": "",
            "nonce": 6491,
            "overwritedBlockNumber": -1,
            "priorityFee": "",
            "receiver": "0x4946583c5b86e01ccd30c71a05617d06e3e73060",
            "revertMessage": "",
            "sender": "0x085efa69eb288584fee21a11c692e18f65675c11",
            "simulationEnable": true,
            "sourceTxnHash": "0x0d6f9697c38cd87e161dee20e60131cfc2cc8324ffcc5f3d50833560f02f461d",
            "status": true,
            "timestamp": "2019-10-10T01:00:28Z",
            "transactionFee": "0.000053477",
            "txnHash": "0x0d6f9697c38cd87e161dee20e60131cfc2cc8324ffcc5f3d50833560f02f461d",
            "txnIndex": 104,
            "type": 0,
            "value": "0"
        },
        "fund_flow": [
            {
                "amount": "20,000",
                "from": "0x085efa69eb288584fee21a11c692e18f65675c11",
                "id": 1,
                "isERC1155": false,
                "isERC721": false,
                "isReverted": false,
                "order": 1,
                "to": "0x861c94cf7c1e36961dffb00cf29ff8d0d5f9eae8",
                "token": "0x4946583c5b86e01ccd30c71a05617d06e3e73060"
            }
        ],
        "token_infos": [
            {
                "address": "0x4946583c5b86e01ccd30c71a05617d06e3e73060",
                "decimals": 18
            },
            {
                "address": "0xc02aaa39b223fe8d0a0e5c4f27ead9083c756cc2",
                "decimals": 18
            },
            {
                "address": "0xeeeeeeeeeeeeeeeeeeeeeeeeeeeeeeeeeeeeeeee",
                "decimals": 18
            }
        ]
    },
    "address_label": {
        "labels": [
            {
                "address": "0x0000000000000000000000000000000000000002",
                "label": "Precompiled"
            },
            {
                "address": "0x0000000000000000000000000000000000000003",
                "label": "Precompiled"
            },
            {
                "address": "0x0000000000000000000000000000000000000004",
                "label": "Precompiled"
            },
            {
                "address": "0xeeeeeeeeeeeeeeeeeeeeeeeeeeeeeeeeeeeeeeee",
                "label": "Ether"
            },
            {
                "address": "0x4946583c5b86e01ccd30c71a05617d06e3e73060",
                "label": "Foresting Token"
            },
            {
                "address": "0x0000000000000000000000000000000000000001",
                "label": "Precompiled"
            }
        ]
    },
    "trace": {
        "accountLabels": null,
        "dataMap": {
            "-1": {
                "invocation": {
                    "address": "0x085efa69eb288584fee21a11c692e18f65675c11",
                    "callData": "",
                    "decodedMethod": null,
                    "errorInfo": "",
                    "fromAddress": "",
                    "gasUsed": 0,
                    "id": -1,
                    "methodDecoded": false,
                    "operation": "",
                    "output": "",
                    "revert": false,
                    "revertMessage": "",
                    "selector": "",
                    "status": false,
                    "value": ""
                },
                "nodeType": 0
            },
            "0": {
                "invocation": {
                    "address": "0x4946583c5b86e01ccd30c71a05617d06e3e73060",
                    "callData": "0x000000000000000000000000861c94cf7c1e36961dffb00cf29ff8d0d5f9eae800000000000000000000000000000000000000000000043c33c1937564800000",
                    "decodedMethod": {
                        "callParams": [
                            {
                                "name": "to",
                                "type": "address",
                                "value": "0x861c94cf7c1e36961dffb00cf29ff8d0d5f9eae8"
                            },
                            {
                                "decimalAvailable": true,
                                "name": "value",
                                "type": "uint256",
                                "value": "20,000,000,000,000,000,000,000"
                            }
                        ],
                        "constructorArguments": "",
                        "name": "transfer",
                        "returnParams": [
                            {
                                "name": "",
                                "type": "bool",
                                "value": true
                            }
                        ],
                        "signature": "transfer(address,uint256)"
                    },
                    "errorInfo": "",
                    "fromAddress": "0x085efa69eb288584fee21a11c692e18f65675c11",
                    "gasUsed": 53477,
                    "id": 0,
                    "methodDecoded": true,
                    "operation": "CALL",
                    "output": "0x0000000000000000000000000000000000000000000000000000000000000001",
                    "revert": false,
                    "revertMessage": "",
                    "selector": "0xa9059cbb",
                    "status": true,
                    "value": "0"
                },
                "nodeType": 0
            },
            "1": {
                "event": {
                    "contract": "0x4946583c5b86e01ccd30c71a05617d06e3e73060",
                    "decodedLog": {
                        "name": "Transfer",
                        "params": [
                            {
                                "name": "from",
                                "type": "address",
                                "value": "0x085efa69eb288584fee21a11c692e18f65675c11"
                            },
                            {
                                "name": "to",
                                "type": "address",
                                "value": "0x861c94cf7c1e36961dffb00cf29ff8d0d5f9eae8"
                            },
                            {
                                "decimalAvailable": true,
                                "name": "value",
                                "type": "uint256",
                                "value": "20,000,000,000,000,000,000,000"
                            }
                        ],
                        "signature": "Transfer(address,address,uint256)"
                    },
                    "id": 1,
                    "logData": "0x00000000000000000000000000000000000000000000043c33c1937564800000",
                    "logDecoded": true,
                    "operation": "EVENT",
                    "revert": false,
                    "status": true,
                    "topics": [
                        "0xddf252ad1be2c89b69c2b068fc378daa952ba7f163c4a11628f55a4df523b3ef",
                        "0x000000000000000000000000085efa69eb288584fee21a11c692e18f65675c11",
                        "0x000000000000000000000000861c94cf7c1e36961dffb00cf29ff8d0d5f9eae8"
                    ]
                },
                "nodeType": 1
            }
        },
        "gasFlame": [
            {
                "children": [
                    {
                        "children": [
                            {
                                "children": [],
                                "depth": 0,
                                "name": "Initial Gas",
                                "value": 23320
                            },
                            {
                                "children": [],
                                "depth": 0,
                                "name": "Executed Gas",
                                "value": 30157
                            }
                        ],
                        "depth": -1,
                        "name": "Actual Gas Used",
                        "value": 53477
                    },
                    {
                        "children": [],
                        "depth": -1,
                        "name": "Refunded Gas",
                        "value": 0
                    }
                ],
                "depth": -2,
                "name": "Total Gas",
                "value": 53477
            }
        ],
        "isConfirmed": true,
        "mainTrace": [
            {
                "children": [
                    {
                        "children": [
                            {
                                "children": [],
                                "depth": 1,
                                "id": 1,
                                "order": 1
                            }
                        ],
                        "depth": 0,
                        "id": 0,
                        "order": 0
                    }
                ],
                "depth": -1,
                "id": -1,
                "order": -1
            }
        ],
        "mainTraceNodeCount": 2,
        "parentIdMap": {
            "0": -1,
            "1": 0
        },
        "tidyTrace": [
            {
                "children": [
                    {
                        "children": [
                            {
                                "children": [],
                                "depth": 1,
                                "id": 1,
                                "order": 1
                            }
                        ],
                        "depth": 0,
                        "id": 0,
                        "order": 0
                    }
                ],
                "depth": -1,
                "id": -1,
                "order": -1
            }
        ],
        "tidyTraceNodeCount": 2
    },
    "state_change": {
        "stateChanges": [
            {
                "address": "0x4946583c5b86e01ccd30c71a05617d06e3e73060",
                "erc": "ERC-20",
                "slots": [
                    {
                        "current": "0x0000000000000000000000000000000000000000000c580c67280ac76c800000",
                        "key": "0xb373f5c94ee56d427d9a6c0a7c2dd8099714d18a036a244baeba4d4ac8c7c4d8",
                        "prev": "0x0000000000000000000000000000000000000000000c5c489ae99e3cd1000000"
                    },
                    {
                        "current": "0x00000000000000000000000000000000000000000000043c33c1937564800000",
                        "key": "0xb700160962139785d59f3305564c5ba4a31113b912fc1495a4b16a3fabb3f736",
                        "prev": "0x0000000000000000000000000000000000000000000000000000000000000000"
                    }
                ],
                "storageVariables": [
                    {
                        "name": "balances",
                        "type": "mapping(address => uint256)",
                        "value": {
                            "pairs": [
                                {
                                    "key": "0x085efa69eb288584fee21a11c692e18f65675c11",
                                    "value": {
                                        "current": "14922906880000000000000000",
                                        "prev": "14942906880000000000000000",
                                        "typeTag": 1
                                    }
                                },
                                {
                                    "key": "0x861c94cf7c1e36961dffb00cf29ff8d0d5f9eae8",
                                    "value": {
                                        "current": "20000000000000000000000",
                                        "prev": "0",
                                        "typeTag": 1
                                    }
                                }
                            ],
                            "typeTag": 4
                        }
                    }
                ]
            }
        ]
    }
}