{
    "balance_change": {
        "balanceChanges": [
            {
                "account": "0x4c3510a57904462a4ddd348e0c4906aad69b8bb1",
                "assets": [
                    {
                        "address": "0x44971abf0251958492fee97da3e5c5ada88b9185",
                        "amount": "36.704687456181564831",
                        "iconUrl": "",
                        "isERC1155": false,
                        "isERC721": false,
                        "sign": true,
                        "value": "34.02105076"
                    },
                    {
                        "address": "0xa9e8acf069c58aec8825542845fd754e41a9489a",
                        "amount": "657.627101985397453752",
                        "iconUrl": "",
                        "isERC1155": false,
                        "isERC721": false,
                        "sign": false,
                        "value": "561.7410349"
                    }
                ]
            },
            {
                "account": "0xa6b816010ab51e088c4f19c71aba87e54b422e14",
                "assets": [
                    {
                        "address": "0x44971abf0251958492fee97da3e5c5ada88b9185",
                        "amount": "36.704687456181564831",
                        "iconUrl": "",
                        "isERC1155": false,
                        "isERC721": false,
                        "sign": false,
                        "value": "34.02105076"
                    },
                    {
                        "address": "0xa9e8acf069c58aec8825542845fd754e41a9489a",
                        "amount": "657.627101985397453752",
                        "iconUrl": "",
                        "isERC1155": false,
                        "isERC721": false,
                        "sign": true,
                        "value": "561.7410349"
                    }
                ]
            }
        ]
    },
    "profile": {
        "basic_info": {
            "baseFee": "32.578438786",
            "blockNumber": 18878771,
            "callData": "0xe2bbb1580000000000000000000000000000000000000000000000000000000000000000000000000000000000000000000000000000000000000023a668ccff7d32b3b8",
            "debugEnable": true,
            "errorInfo": "",
            "eventCount": 4,
            "feeRecipient": "0x388c818ca8b9251b393131c08a736a67ccb19297",
            "formatValue": "0",
            "gasLimit": 110162,
            "gasPrice": "32.678438786",
            "gasUsed": 100562,
            "intTxnCount": 4,
            "internalRevert": false,
            "internalRevertMessage": "",
            "isContractCreation": false,
            "isFlashloan": false,
            "maxFee": "45.012055815",
            "nonce": 126,
            "overwritedBlockNumber": -1,
            "priorityFee": "0.1",
            "receiver": "0xa6b816010ab51e088c4f19c71aba87e54b422e14",
            "revertMessage": "",
            "sender": "0x4c3510a57904462a4ddd348e0c4906aad69b8bb1",
            "simulationEnable": true,
            "sourceTxnHash": "0x0d2ade31730db109b2a91711cd5240558091d3a0f6367f70227fa097cbbe0466",
            "status": true,
            "timestamp": "2023-12-27T18:27:23Z",
            "transactionFee": "0.003286209161197732",
            "txnHash": "0x0d2ade31730db109b2a91711cd5240558091d3a0f6367f70227fa097cbbe0466",
            "txnIndex": 92,
            "type": 2,
            "value": "0"
        },
        "fund_flow": [
            {
                "amount": "36.704687456181564831",
                "from": "0xa6b816010ab51e088c4f19c71aba87e54b422e14",
                "id": 1,
                "isERC1155": false,
                "isERC721": false,
                "isReverted": false,
                "order": 1,
                "to": "0x4c3510a57904462a4ddd348e0c4906aad69b8bb1",
                "token": "0x44971abf0251958492fee97da3e5c5ada88b9185"
            },
            {
                "amount": "657.627101985397453752",
                "from": "0x4c3510a57904462a4ddd348e0c4906aad69b8bb1",
                "id": 2,
                "isERC1155": false,
                "isERC721": false,
                "isReverted": false,
                "order": 2,
                "to": "0xa6b816010ab51e088c4f19c71aba87e54b422e14",
                "token": "0xa9e8acf069c58aec8825542845fd754e41a9489a"
            }
        ],
        "token_infos": [
            {
                "address": "0x44971abf0251958492fee97da3e5c5ada88b9185",
                "decimals": 18
            },
            {
                "address": "0xa9e8acf069c58aec8825542845fd754e41a9489a",
                "decimals": 18
            },
            {
                "address": "0xc02aaa39b223fe8d0a0e5c4f27ead9083c756cc2",
                "decimals": 18
            },
            {
                "address": "0xeeeeeeeeeeeeeeeeeeeeeeeeeeeeeeeeeeeeeeee",
                "decimals": 18
            }
        ]
    },
    "address_label": {
        "labels": [
            {
                "address": "0xeeeeeeeeeeeeeeeeeeeeeeeeeeeeeeeeeeeeeeee",
                "label": "Ether"
            },
            {
                "address": "0x388c818ca8b9251b393131c08a736a67ccb19297",
                "label": "LidoExecutionLayerRewardsVault"
            },
            {
                "address": "0x0000000000000000000000000000000000000004",
                "label": "Precompiled"
            },
            {
                "address": "0x44971abf0251958492fee97da3e5c5ada88b9185",
                "label": "BasedAI: basedAI Token"
            },
            {
                "address": "0xa9e8acf069c58aec8825542845fd754e41a9489a",
                "label": "Pepe Coin: pepecoin Token"
            },
            {
                "address": "0xa6b816010ab51e088c4f19c71aba87e54b422e14",
                "label": "basedAIFarm"
            },
            {
                "address": "0x0000000000000000000000000000000000000001",
                "label": "Precompiled"
            },
            {
                "address": "0x0000000000000000000000000000000000000002",
                "label": "Precompiled"
            },
            {
                "address": "0x0000000000000000000000000000000000000003",
                "label": "Precompiled"
            }
        ]
    },
    "trace": {
        "accountLabels": null,
        "dataMap": {
            "-1": {
                "invocation": {
                    "address": "0x4c3510a57904462a4ddd348e0c4906aad69b8bb1",
                    "callData": "",
                    "decodedMethod": null,
                    "errorInfo": "",
                    "fromAddress": "",
                    "gasUsed": 0,
                    "id": -1,
                    "methodDecoded": false,
                    "operation": "",
                    "output": "",
                    "revert": false,
                    "revertMessage": "",
                    "selector": "",
                    "status": false,
                    "value": ""
                },
                "nodeType": 0
            },
            "0": {
                "invocation": {
                    "address": "0xa6b816010ab51e088c4f19c71aba87e54b422e14",
                    "callData": "0x0000000000000000000000000000000000000000000000000000000000000000000000000000000000000000000000000000000000000023a668ccff7d32b3b8",
                    "decodedMethod": {
                        "callParams": [
                            {
                                "name": "_pid",
                                "type": "uint256",
                                "value": "0"
                            },
                            {
                                "name": "_amount",
                                "type": "uint256",
                                "value": "657,627,101,985,397,453,752"
                            }
                        ],
                        "constructorArguments": "",
                        "name": "deposit",
                        "returnParams": [],
                        "signature": "deposit(uint256,uint256)"
                    },
                    "errorInfo": "",
                    "fromAddress": "0x4c3510a57904462a4ddd348e0c4906aad69b8bb1",
                    "gasUsed": 100562,
                    "id": 0,
                    "methodDecoded": true,
                    "operation": "CALL",
                    "output": "",
                    "revert": false,
                    "revertMessage": "",
                    "selector": "0xe2bbb158",
                    "status": true,
                    "value": "0"
                },
                "nodeType": 0
            },
            "1": {
                "invocation": {
                    "address": "0xa9e8acf069c58aec8825542845fd754e41a9489a",
                    "callData": "0x000000000000000000000000a6b816010ab51e088c4f19c71aba87e54b422e14",
                    "decodedMethod": {
                        "callParams": [
                            {
                                "name": "account",
                                "type": "address",
                                "value": "0xa6b816010ab51e088c4f19c71aba87e54b422e14"
                            }
                        ],
                        "constructorArguments": "",
                        "name": "balanceOf",
                        "returnParams": [
                            {
                                "decimalAvailable": true,
                                "name": "",
                                "type": "uint256",
                                "value": "89,599,795,277,172,575,828,014,929"
                            }
                        ],
                        "signature": "balanceOf(address)"
                    },
                    "errorInfo": "",
                    "fromAddress": "0xa6b816010ab51e088c4f19c71aba87e54b422e14",
                    "gasUsed": 2886,
                    "id": 1,
                    "methodDecoded": true,
                    "operation": "STATICCALL",
                    "output": "0x0000000000000000000000000000000000000000004a1d7ea27aef7ef0a17751",
                    "revert": false,
                    "revertMessage": "",
                    "selector": "0x70a08231",
                    "status": true,
                    "value": "0"
                },
                "nodeType": 0
            },
            "2": {
                "invocation": {
                    "address": "0x44971abf0251958492fee97da3e5c5ada88b9185",
                    "callData": "0x000000000000000000000000a6b816010ab51e088c4f19c71aba87e54b422e14",
                    "decodedMethod": {
                        "callParams": [
                            {
                                "name": "account",
                                "type": "address",
                                "value": "0xa6b816010ab51e088c4f19c71aba87e54b422e14"
                            }
                        ],
                        "constructorArguments": "",
                        "name": "balanceOf",
                        "returnParams": [
                            {
                                "decimalAvailable": true,
                                "name": "",
                                "type": "uint256",
                                "value": "20,271,963,515,305,992,804,918,678"
                            }
                        ],
                        "signature": "balanceOf(address)"
                    },
                    "errorInfo": "",
                    "fromAddress": "0xa6b816010ab51e088c4f19c71aba87e54b422e14",
                    "gasUsed": 2886,
                    "id": 2,
                    "methodDecoded": true,
                    "operation": "STATICCALL",
                    "output": "0x00000000000000000000000000000000000000000010c4c1581cf8e7e8506596",
                    "revert": false,
                    "revertMessage": "",
                    "selector": "0x70a08231",
                    "status": true,
                    "value": "0"
                },
                "nodeType": 0
            },
            "3": {
                "invocation": {
                    "address": "0x44971abf0251958492fee97da3e5c5ada88b9185",
                    "callData": "0x0000000000000000000000004c3510a57904462a4ddd348e0c4906aad69b8bb1000000000000000000000000000000000000000000000001fd613ec5897035a0",
                    "decodedMethod": {
                        "callParams": [
                            {
                                "name": "to",
                                "type": "address",
                                "value": "0x4c3510a57904462a4ddd348e0c4906aad69b8bb1"
                            },
                            {
                                "decimalAvailable": true,
                                "name": "amount",
                                "type": "uint256",
                                "value": "36,704,687,456,181,564,832"
                            }
                        ],
                        "constructorArguments": "",
                        "name": "transfer",
                        "returnParams": [
                            {
                                "name": "",
                                "type": "bool",
                                "value": true
                            }
                        ],
                        "signature": "transfer(address,uint256)"
                    },
                    "errorInfo": "",
                    "fromAddress": "0xa6b816010ab51e088c4f19c71aba87e54b422e14",
                    "gasUsed": 11445,
                    "id": 3,
                    "methodDecoded": true,
                    "operation": "CALL",
                    "output": "0x0000000000000000000000000000000000000000000000000000000000000001",
                    "revert": false,
                    "revertMessage": "",
                    "selector": "0xa9059cbb",
                    "status": true,
                    "value": "0"
                },
                "nodeType": 0
            },
            "4": {
                "event": {
                    "contract": "0x44971abf0251958492fee97da3e5c5ada88b9185",
                    "decodedLog": {
                        "name": "Transfer",
                        "params": [
                            {
                                "name": "from",
                                "type": "address",
                                "value": "0xa6b816010ab51e088c4f19c71aba87e54b422e14"
                            },
                            {
                                "name": "to",
                                "type": "address",
                                "value": "0x4c3510a57904462a4ddd348e0c4906aad69b8bb1"
                            },
                            {
                                "decimalAvailable": true,
                                "name": "value",
                                "type": "uint256",
                                "value": "36,704,687,456,181,564,832"
                            }
                        ],
                        "signature": "Transfer(address,address,uint256)"
                    },
                    "id": 4,
                    "logData": "0x000000000000000000000000000000000000000000000001fd613ec5897035a0",
                    "logDecoded": true,
                    "operation": "EVENT",
                    "revert": false,
                    "status": true,
                    "topics": [
                        "0xddf252ad1be2c89b69c2b068fc378daa952ba7f163c4a11628f55a4df523b3ef",
                        "0x000000000000000000000000a6b816010ab51e088c4f19c71aba87e54b422e14",
                        "0x0000000000000000000000004c3510a57904462a4ddd348e0c4906aad69b8bb1"
                    ]
                },
                "nodeType": 1
            },
            "5": {
                "invocation": {
                    "address": "0xa9e8acf069c58aec8825542845fd754e41a9489a",
                    "callData": "0x0000000000000000000000004c3510a57904462a4ddd348e0c4906aad69b8bb1000000000000000000000000a6b816010ab51e088c4f19c71aba87e54b422e14000000000000000000000000000000000000000000000023a668ccff7d32b3b8",
                    "decodedMethod": {
                        "callParams": [
                            {
                                "name": "from",
                                "type": "address",
                                "value": "0x4c3510a57904462a4ddd348e0c4906aad69b8bb1"
                            },
                            {
                                "name": "to",
                                "type": "address",
                                "value": "0xa6b816010ab51e088c4f19c71aba87e54b422e14"
                            },
                            {
                                "decimalAvailable": true,
                                "name": "amount",
                                "type": "uint256",
                                "value": "657,627,101,985,397,453,752"
                            }
                        ],
                        "constructorArguments": "",
                        "name": "transferFrom",
                        "returnParams": [
                            {
                                "name": "",
                                "type": "bool",
                                "value": true
                            }
                        ],
                        "signature": "transferFrom(address,address,uint256)"
                    },
                    "errorInfo": "",
                    "fromAddress": "0xa6b816010ab51e088c4f19c71aba87e54b422e14",
                    "gasUsed": 19279,
                    "id": 5,
                    "methodDecoded": true,
                    "operation": "CALL",
                    "output": "0x0000000000000000000000000000000000000000000000000000000000000001",
                    "revert": false,
                    "revertMessage": "",
                    "selector": "0x23b872dd",
                    "status": true,
                    "value": "0"
                },
                "nodeType": 0
            },
            "6": {
                "event": {
                    "contract": "0xa9e8acf069c58aec8825542845fd754e41a9489a",
                    "decodedLog": {
                        "name": "Approval",
                        "params": [
                            {
                                "name": "owner",
                                "type": "address",
                                "value": "0x4c3510a57904462a4ddd348e0c4906aad69b8bb1"
                            },
                            {
                                "name": "spender",
                                "type": "address",
                                "value": "0xa6b816010ab51e088c4f19c71aba87e54b422e14"
                            },
                            {
                                "decimalAvailable": true,
                                "name": "value",
                                "type": "uint256",
                                "value": "0"
                            }
                        ],
                        "signature": "Approval(address,address,uint256)"
                    },
                    "id": 6,
                    "logData": "0x0000000000000000000000000000000000000000000000000000000000000000",
                    "logDecoded": true,
                    "operation": "EVENT",
                    "revert": false,
                    "status": true,
                    "topics": [
                        "0x8c5be1e5ebec7d5bd14f71427d1e84f3dd0314c0f7b2291e5b200ac8c7c3b925",
                        "0x0000000000000000000000004c3510a57904462a4ddd348e0c4906aad69b8bb1",
                        "0x000000000000000000000000a6b816010ab51e088c4f19c71aba87e54b422e14"
                    ]
                },
                "nodeType": 1
            },
            "7": {
                "event": {
                    "contract": "0xa9e8acf069c58aec8825542845fd754e41a9489a",
                    "decodedLog": {
                        "name": "Transfer",
                        "params": [
                            {
                                "name": "from",
                                "type": "address",
                                "value": "0x4c3510a57904462a4ddd348e0c4906aad69b8bb1"
                            },
                            {
                                "name": "to",
                                "type": "address",
                                "value": "0xa6b816010ab51e088c4f19c71aba87e54b422e14"
                            },
                            {
                                "decimalAvailable": true,
                                "name": "value",
                                "type": "uint256",
                                "value": "657,627,101,985,397,453,752"
                            }
                        ],
                        "signature": "Transfer(address,address,uint256)"
                    },
                    "id": 7,
                    "logData": "0x000000000000000000000000000000000000000000000023a668ccff7d32b3b8",
                    "logDecoded": true,
                    "operation": "EVENT",
                    "revert": false,
                    "status": true,
                    "topics": [
                        "0xddf252ad1be2c89b69c2b068fc378daa952ba7f163c4a11628f55a4df523b3ef",
                        "0x0000000000000000000000004c3510a57904462a4ddd348e0c4906aad69b8bb1",
                        "0x000000000000000000000000a6b816010ab51e088c4f19c71aba87e54b422e14"
                    ]
                },
                "nodeType": 1
            },
            "8": {
                "event": {
                    "contract": "0xa6b816010ab51e088c4f19c71aba87e54b422e14",
                    "decodedLog": {
                        "name": "Deposit",
                        "params": [
                            {
                                "name": "user",
                                "type": "address",
                                "value": "0x4c3510a57904462a4ddd348e0c4906aad69b8bb1"
                            },
                            {
                                "name": "pid",
                                "type": "uint256",
                                "value": "0"
                            },
                            {
                                "name": "amount",
                                "type": "uint256",
                                "value": "657,627,101,985,397,453,752"
                            }
                        ],
                        "signature": "Deposit(address,uint256,uint256)"
                    },
                    "id": 8,
                    "logData": "0x000000000000000000000000000000000000000000000023a668ccff7d32b3b8",
                    "logDecoded": true,
                    "operation": "EVENT",
                    "revert": false,
                    "status": true,
                    "topics": [
                        "0x90890809c654f11d6e72a28fa60149770a0d11ec6c92319d6ceb2bb0a4ea1a15",
                        "0x0000000000000000000000004c3510a57904462a4ddd348e0c4906aad69b8bb1",
                        "0x0000000000000000000000000000000000000000000000000000000000000000"
                    ]
                },
                "nodeType": 1
            }
        },
        "gasFlame": [
            {
                "children": [
                    {
                        "children": [
                            {
                                "children": [],
                                "depth": 0,
                                "name": "Initial Gas",
                                "value": 21428
                            },
                            {
                                "children": [
                                    {
                                        "children": [],
                                        "depth": 1,
                                        "name": "balanceOf",
                                        "value": 2886
                                    },
                                    {
                                        "children": [],
                                        "depth": 1,
                                        "name": "balanceOf",
                                        "value": 2886
                                    },
                                    {
                                        "children": [],
                                        "depth": 1,
                                        "name": "transfer",
                                        "value": 11445
                                    },
                                    {
                                        "children": [],
                                        "depth": 1,
                                        "name": "transferFrom",
                                        "value": 19279
                                    }
                                ],
                                "depth": 0,
                                "name": "Executed Gas",
                                "value": 88734
                            }
                        ],
                        "depth": -1,
                        "name": "Actual Gas Used",
                        "value": 100562
                    },
                    {
                        "children": [],
                        "depth": -1,
                        "name": "Refunded Gas",
                        "value": 9600
                    }
                ],
                "depth": -2,
                "name": "Total Gas",
                "value": 110162
            }
        ],
        "isConfirmed": true,
        "mainTrace": [
            {
                "children": [
                    {
                        "children": [
                            {
                                "children": [],
                                "depth": 1,
                                "id": 1,
                                "order": 1
                            },
                            {
                                "children": [],
                                "depth": 1,
                                "id": 2,
                                "order": 2
                            },
                            {
                                "children": [
                                    {
                                        "children": [],
                                        "depth": 2,
                                        "id": 4,
                                        "order": 4
                                    }
                                ],
                                "depth": 1,
                                "id": 3,
                                "order": 3
                            },
                            {
                                "children": [
                                    {
                                        "children": [],
                                        "depth": 2,
                                        "id": 6,
                                        "order": 6
                                    },
                                    {
                                        "children": [],
                                        "depth": 2,
                                        "id": 7,
                                        "order": 7
                                    }
                                ],
                                "depth": 1,
                                "id": 5,
                                "order": 5
                            },
                            {
                                "children": [],
                                "depth": 1,
                                "id": 8,
                                "order": 8
                            }
                        ],
                        "depth": 0,
                        "id": 0,
                        "order": 0
                    }
                ],
                "depth": -1,
                "id": -1,
                "order": -1
            }
        ],
        "mainTraceNodeCount": 9,
        "parentIdMap": {
            "0": -1,
            "1": 0,
            "2": 0,
            "3": 0,
            "4": 3,
            "5": 0,
            "6": 5,
            "7": 5,
            "8": 0
        },
        "tidyTrace": [
            {
                "children": [
                    {
                        "children": [
                            {
                                "children": [
                                    {
                                        "children": [],
                                        "depth": 2,
                                        "id": 4,
                                        "order": 4
                                    }
                                ],
                                "depth": 1,
                                "id": 3,
                                "order": 3
                            },
                            {
                                "children": [
                                    {
                                        "children": [],
                                        "depth": 2,
                                        "id": 6,
                                        "order": 6
                                    },
                                    {
                                        "children": [],
                                        "depth": 2,
                                        "id": 7,
                                        "order": 7
                                    }
                                ],
                                "depth": 1,
                                "id": 5,
                                "order": 5
                            },
                            {
                                "children": [],
                                "depth": 1,
                                "id": 8,
                                "order": 8
                            }
                        ],
                        "depth": 0,
                        "id": 0,
                        "order": 0
                    }
                ],
                "depth": -1,
                "id": -1,
                "order": -1
            }
        ],
        "tidyTraceNodeCount": 7
    },
    "state_change": {
        "stateChanges": [
            {
                "address": "0x44971abf0251958492fee97da3e5c5ada88b9185",
                "erc": "ERC-20",
                "slots": [
                    {
                        "current": "0x000000000000000000000000000000000000000000000137c42f711329e2fa7d",
                        "key": "0xeb191590023454ed627b41912d915c89857f99b1cfc557a78a1bc9b7a9981179",
                        "prev": "0x000000000000000000000000000000000000000000000135c6ce324da072c4dd"
                    },
                    {
                        "current": "0x00000000000000000000000000000000000000000010c4bf5abbba225ee02ff6",
                        "key": "0xe23a7ae0365a289897f41506e569c2cb87497a64eab6f3b108dd24b4a5d7cdbc",
                        "prev": "0x00000000000000000000000000000000000000000010c4c1581cf8e7e8506596"
                    }
                ],
                "storageVariables": [
                    {
                        "name": "_balances",
                        "type": "mapping(address => uint256)",
                        "value": {
                            "pairs": [
                                {
                                    "key": "0x4c3510a57904462a4ddd348e0c4906aad69b8bb1",
                                    "value": {
                                        "current": "5751074049006130887293",
                                        "prev": "5714369361549949322461",
                                        "typeTag": 1
                                    }
                                },
                                {
                                    "key": "0xa6b816010ab51e088c4f19c71aba87e54b422e14",
                                    "value": {
                                        "current": "20271926810618536623353846",
                                        "prev": "20271963515305992804918678",
                                        "typeTag": 1
                                    }
                                }
                            ],
                            "typeTag": 4
                        }
                    }
                ]
            },
            {
                "address": "0xa6b816010ab51e088c4f19c71aba87e54b422e14",
                "erc": "",
                "slots": [
                    {
                        "current": "0x0000000000000000000000000000000000000000000000000514d08331adb68b",
                        "key": "0xf652222313e28459528d920b65115c16c04f3efc82aaedc97be59f3f377c0d42",
                        "prev": "0x0000000000000000000000000000000000000000000000000514ce887973bf67"
                    },
                    {
                        "current": "0x0000000000000000000000000000000000000000000000000000000001201133",
                        "key": "0xf652222313e28459528d920b65115c16c04f3efc82aaedc97be59f3f377c0d41",
                        "prev": "0x0000000000000000000000000000000000000000000000000000000001201126"
                    },
                    {
                        "current": "0x0000000000000000000000000000000000000000000002e358284bd1f4fcc870",
                        "key": "0xa62370e157b282524a901f7bde4fa0412ba4101bd37496bce9b9615b97a457fb",
                        "prev": "0x0000000000000000000000000000000000000000000002bfb1bf7ed277ca14b8"
                    },
                    {
                        "current": "0x00000000000000000000000000000000000000000000010eb561befe2eb55aeb",
                        "key": "0xa62370e157b282524a901f7bde4fa0412ba4101bd37496bce9b9615b97a457fc",
                        "prev": "0x0000000000000000000000000000000000000000000000ffaa65a13985a9b2c5"
                    }
                ],
                "storageVariables": [
                    {
                        "name": "poolInfo",
                        "type": "struct basedAIFarm.PoolInfo[]",
                        "value": {
                            "elemType": "struct basedAIFarm.PoolInfo",
                            "elems": [
                                {
                                    "index": 0,
                                    "value": {
                                        "fields": [
                                            {
                                                "name": "lastRewardBlock",
                                                "type": "uint256",
                                                "value": {
                                                    "current": "18878771",
                                                    "prev": "18878758",
                                                    "typeTag": 1
                                                }
                                            },
                                            {
                                                "name": "accbasedAIPerShare",
                                                "type": "uint256",
                                                "value": {
                                                    "current": "366146731616614027",
                                                    "prev": "366144555272355687",
                                                    "typeTag": 1
                                                }
                                            }
                                        ],
                                        "typeTag": 3
                                    }
                                }
                            ],
                            "typeTag": 2
                        }
                    },
                    {
                        "name": "userInfo",
                        "type": "mapping(uint256 => mapping(address => struct basedAIFarm.UserInfo))",
                        "value": {
                            "pairs": [
                                {
                                    "key": "0",
                                    "value": {
                                        "pairs": [
                                            {
                                                "key": "0x4c3510a57904462a4ddd348e0c4906aad69b8bb1",
                                                "value": {
                                                    "fields": [
                                                        {
                                                            "name": "amount",
                                                            "type": "uint256",
                                                            "value": {
                                                                "current": "13638496281110895183984",
                                                                "prev": "12980869179125497730232",
                                                                "typeTag": 1
                                                            }
                                                        },
                                                        {
                                                            "name": "rewardDebt",
                                                            "type": "uint256",
                                                            "value": {
                                                                "current": "4993690837494099434219",
                                                                "prev": "4716198136023458886341",
                                                                "typeTag": 1
                                                            }
                                                        }
                                                    ],
                                                    "typeTag": 3
                                                }
                                            }
                                        ],
                                        "typeTag": 4
                                    }
                                }
                            ],
                            "typeTag": 4
                        }
                    }
                ]
            },
            {
                "address": "0xa9e8acf069c58aec8825542845fd754e41a9489a",
                "erc": "ERC-20",
                "slots": [
                    {
                        "current": "0x0000000000000000000000000000000000000000000000000000000000000000",
                        "key": "0x101353007bc2eef49597c2d146ece7b2caae24c0e1a4c9b539380f074d308ec6",
                        "prev": "0x000000000000000000000000000000000000000000000023a668ccff7d32b3b8"
                    },
                    {
                        "current": "0x0000000000000000000000000000000000000000000000000000000000000000",
                        "key": "0xeb191590023454ed627b41912d915c89857f99b1cfc557a78a1bc9b7a9981179",
                        "prev": "0x000000000000000000000000000000000000000000000023a668ccff7d32b3b8"
                    },
                    {
                        "current": "0x0000000000000000000000000000000000000000004a1da248e3bc7e6dd42b09",
                        "key": "0xe23a7ae0365a289897f41506e569c2cb87497a64eab6f3b108dd24b4a5d7cdbc",
                        "prev": "0x0000000000000000000000000000000000000000004a1d7ea27aef7ef0a17751"
                    }
                ],
                "storageVariables": [
                    {
                        "name": "_allowances",
                        "type": "mapping(address => mapping(address => uint256))",
                        "value": {
                            "pairs": [
                                {
                                    "key": "0x4c3510a57904462a4ddd348e0c4906aad69b8bb1",
                                    "value": {
                                        "pairs": [
                                            {
                                                "key": "0xa6b816010ab51e088c4f19c71aba87e54b422e14",
                                                "value": {
                                                    "current": "0",
                                                    "prev": "657627101985397453752",
                                                    "typeTag": 1
                                                }
                                            }
                                        ],
                                        "typeTag": 4
                                    }
                                }
                            ],
                            "typeTag": 4
                        }
                    },
                    {
                        "name": "_balances",
                        "type": "mapping(address => uint256)",
                        "value": {
                            "pairs": [
                                {
                                    "key": "0x4c3510a57904462a4ddd348e0c4906aad69b8bb1",
                                    "value": {
                                        "current": "0",
                                        "prev": "657627101985397453752",
                                        "typeTag": 1
                                    }
                                },
                                {
                                    "key": "0xa6b816010ab51e088c4f19c71aba87e54b422e14",
                                    "value": {
                                        "current": "89600452904274561225468681",
                                        "prev": "89599795277172575828014929",
                                        "typeTag": 1
                                    }
                                }
                            ],
                            "typeTag": 4
                        }
                    }
                ]
            }
        ]
    }
}