{
    "balance_change": {
        "balanceChanges": [
            {
                "account": "0xd91e45416bfbbec6e2d1ae4ac83b788a21acf583",
                "assets": [
                    {
                        "address": "0xeeeeeeeeeeeeeeeeeeeeeeeeeeeeeeeeeeeeeeee",
                        "amount": "0.000000000000000001",
                        "iconUrl": "https://assets.blocksec.com/image/1663669189317-3.png",
                        "isERC1155": false,
                        "isERC721": false,
                        "sign": false,
                        "value": ""
                    }
                ]
            },
            {
                "account": "0xc9e441e02863d07256739ecfc7add33a1edbf250",
                "assets": [
                    {
                        "address": "0xeeeeeeeeeeeeeeeeeeeeeeeeeeeeeeeeeeeeeeee",
                        "amount": "0.000000000000000001",
                        "iconUrl": "https://assets.blocksec.com/image/1663669189317-3.png",
                        "isERC1155": false,
                        "isERC721": false,
                        "sign": true,
                        "value": ""
                    }
                ]
            }
        ]
    },
    "profile": {
        "basic_info": {
            "baseFee": "",
            "blockNumber": 4840522,
            "callData": "0x38bbfa507955ffef7d108ee05eade1c4b15e587f5b30fce04eb1680af174c0ab335de1a9000000000000000000000000000000000000000000000000000000000000006000000000000000000000000000000000000000000000000000000000000000a0000000000000000000000000000000000000000000000000000000000000000e5b3230333239372c205b37375d5d000000000000000000000000000000000000000000000000000000000000000000000000000000000000000000000000002212200a390b224e0a934fa8a5f928d40e1db15fe8f3ef8d56af547ea2ccb7a2ed2319000000000000000000000000000000000000000000000000000000000000",
            "debugEnable": true,
            "errorInfo": "",
            "eventCount": 1,
            "feeRecipient": "0x52bc44d5378309ee2abf1539bf71de1b7d7be3b5",
            "formatValue": "0",
            "gasLimit": 235000,
            "gasPrice": "40",
            "gasUsed": 144053,
            "intTxnCount": 3,
            "internalRevert": false,
            "internalRevertMessage": "",
            "isContractCreation": false,
            "isFlashloan": false,
            "maxFee": "",
            "nonce": 378766,
            "overwritedBlockNumber": -1,
            "priorityFee": "",
            "receiver": "0xd91e45416bfbbec6e2d1ae4ac83b788a21acf583",
            "revertMessage": "",
            "sender": "0x26588a9301b0428d95e6fc3a5024fce8bec12d51",
            "simulationEnable": true,
            "sourceTxnHash": "0x0d2b63c60f7d9f20db0a8705752eac04e96e18525a10e9fd5204cbc2b775c00f",
            "status": true,
            "timestamp": "2018-01-02T07:51:20Z",
            "transactionFee": "0.00576212",
            "txnHash": "0x0d2b63c60f7d9f20db0a8705752eac04e96e18525a10e9fd5204cbc2b775c00f",
            "txnIndex": 35,
            "type": 0,
            "value": "0"
        },
        "fund_flow": [
            {
                "amount": "0.000000000000000001",
                "from": "0xd91e45416bfbbec6e2d1ae4ac83b788a21acf583",
                "id": 1,
                "isERC1155": false,
                "isERC721": false,
                "isReverted": false,
                "order": 1,
                "to": "0xc9e441e02863d07256739ecfc7add33a1edbf250",
                "token": "0xeeeeeeeeeeeeeeeeeeeeeeeeeeeeeeeeeeeeeeee"
            }
        ],
        "token_infos": [
            {
                "address": "0xeeeeeeeeeeeeeeeeeeeeeeeeeeeeeeeeeeeeeeee",
                "decimals": 18
            },
            {
                "address": "0xc02aaa39b223fe8d0a0e5c4f27ead9083c756cc2",
                "decimals": 18
            }
        ]
    },
    "address_label": {
        "labels": [
            {
                "address": "0xd91e45416bfbbec6e2d1ae4ac83b788a21acf583",
                "label": "Etheroll: Old Contract 4"
            },
            {
                "address": "0x1d3b2638a7cc9f2cb3d298a3da7a90b67e5506ed",
                "label": "OraclizeAddrResolver"
            },
            {
                "address": "0x0000000000000000000000000000000000000002",
                "label": "Precompiled"
            },
            {
                "address": "0x0000000000000000000000000000000000000003",
                "label": "Precompiled"
            },
            {
                "address": "0x0000000000000000000000000000000000000004",
                "label": "Precompiled"
            },
            {
                "address": "0xeeeeeeeeeeeeeeeeeeeeeeeeeeeeeeeeeeeeeeee",
                "label": "Ether"
            },
            {
                "address": "0x26588a9301b0428d95e6fc3a5024fce8bec12d51",
                "label": "0x2658_Oraclize"
            },
            {
                "address": "0x3dbdc81a6edc94c720b0b88fb65dbd7e395fdcf6",
                "label": "0x3dbd_Oraclize"
            },
            {
                "address": "0x0000000000000000000000000000000000000001",
                "label": "Precompiled"
            }
        ]
    },
    "trace": {
        "accountLabels": null,
        "dataMap": {
            "-1": {
                "invocation": {
                    "address": "0x26588a9301b0428d95e6fc3a5024fce8bec12d51",
                    "callData": "",
                    "decodedMethod": null,
                    "errorInfo": "",
                    "fromAddress": "",
                    "gasUsed": 0,
                    "id": -1,
                    "methodDecoded": false,
                    "operation": "",
                    "output": "",
                    "revert": false,
                    "revertMessage": "",
                    "selector": "",
                    "status": false,
                    "value": ""
                },
                "nodeType": 0
            },
            "0": {
                "invocation": {
                    "address": "0xd91e45416bfbbec6e2d1ae4ac83b788a21acf583",
                    "callData": "0x7955ffef7d108ee05eade1c4b15e587f5b30fce04eb1680af174c0ab335de1a9000000000000000000000000000000000000000000000000000000000000006000000000000000000000000000000000000000000000000000000000000000a0000000000000000000000000000000000000000000000000000000000000000e5b3230333239372c205b37375d5d000000000000000000000000000000000000000000000000000000000000000000000000000000000000000000000000002212200a390b224e0a934fa8a5f928d40e1db15fe8f3ef8d56af547ea2ccb7a2ed2319000000000000000000000000000000000000000000000000000000000000",
                    "decodedMethod": {
                        "callParams": [
                            {
                                "name": "myid",
                                "type": "bytes32",
                                "value": "0x7955ffef7d108ee05eade1c4b15e587f5b30fce04eb1680af174c0ab335de1a9"
                            },
                            {
                                "name": "result",
                                "type": "string",
                                "value": "[203297, [77]]"
                            },
                            {
                                "name": "proof",
                                "type": "bytes",
                                "value": "0x12200a390b224e0a934fa8a5f928d40e1db15fe8f3ef8d56af547ea2ccb7a2ed2319"
                            }
                        ],
                        "constructorArguments": "",
                        "name": "__callback",
                        "returnParams": [],
                        "signature": "__callback(bytes32,string,bytes)"
                    },
                    "errorInfo": "",
                    "fromAddress": "0x26588a9301b0428d95e6fc3a5024fce8bec12d51",
                    "gasUsed": 144053,
                    "id": 0,
                    "methodDecoded": true,
                    "operation": "CALL",
                    "output": "",
                    "revert": false,
                    "revertMessage": "",
                    "selector": "0x38bbfa50",
                    "status": true,
                    "value": "0"
                },
                "nodeType": 0
            },
            "1": {
                "invocation": {
                    "address": "0x1d3b2638a7cc9f2cb3d298a3da7a90b67e5506ed",
                    "callData": "0x",
                    "decodedMethod": {
                        "callParams": [],
                        "constructorArguments": "",
                        "name": "getAddress",
                        "returnParams": [
                            {
                                "name": "oaddr",
                                "type": "address",
                                "value": "0x3dbdc81a6edc94c720b0b88fb65dbd7e395fdcf6"
                            }
                        ],
                        "signature": "getAddress()"
                    },
                    "errorInfo": "",
                    "fromAddress": "0xd91e45416bfbbec6e2d1ae4ac83b788a21acf583",
                    "gasUsed": 418,
                    "id": 1,
                    "methodDecoded": true,
                    "operation": "CALL",
                    "output": "0x0000000000000000000000003dbdc81a6edc94c720b0b88fb65dbd7e395fdcf6",
                    "revert": false,
                    "revertMessage": "",
                    "selector": "0x38cc4831",
                    "status": true,
                    "value": "0"
                },
                "nodeType": 0
            },
            "2": {
                "invocation": {
                    "address": "0x3dbdc81a6edc94c720b0b88fb65dbd7e395fdcf6",
                    "callData": "0x",
                    "decodedMethod": {
                        "callParams": [],
                        "constructorArguments": "",
                        "name": "cbAddress",
                        "returnParams": [
                            {
                                "name": "_cbAddress",
                                "type": "address",
                                "value": "0x26588a9301b0428d95e6fc3a5024fce8bec12d51"
                            }
                        ],
                        "signature": "cbAddress()"
                    },
                    "errorInfo": "",
                    "fromAddress": "0xd91e45416bfbbec6e2d1ae4ac83b788a21acf583",
                    "gasUsed": 1444,
                    "id": 2,
                    "methodDecoded": true,
                    "operation": "CALL",
                    "output": "0x00000000000000000000000026588a9301b0428d95e6fc3a5024fce8bec12d51",
                    "revert": false,
                    "revertMessage": "",
                    "selector": "0xc281d19e",
                    "status": true,
                    "value": "0"
                },
                "nodeType": 0
            },
            "3": {
                "event": {
                    "contract": "0xd91e45416bfbbec6e2d1ae4ac83b788a21acf583",
                    "decodedLog": {
                        "name": "LogResult",
                        "params": [
                            {
                                "name": "ResultSerialNumber",
                                "type": "uint256",
                                "value": "203,297"
                            },
                            {
                                "name": "BetID",
                                "type": "bytes32",
                                "value": "0x7955ffef7d108ee05eade1c4b15e587f5b30fce04eb1680af174c0ab335de1a9"
                            },
                            {
                                "name": "PlayerAddress",
                                "type": "address",
                                "value": "0xc9e441e02863d07256739ecfc7add33a1edbf250"
                            },
                            {
                                "name": "PlayerNumber",
                                "type": "uint256",
                                "value": "77"
                            },
                            {
                                "name": "DiceResult",
                                "type": "uint256",
                                "value": "77"
                            },
                            {
                                "name": "Value",
                                "type": "uint256",
                                "value": "100,000,000,000,000,000"
                            },
                            {
                                "name": "Status",
                                "type": "int256",
                                "value": "0"
                            },
                            {
                                "name": "Proof",
                                "type": "bytes",
                                "value": "0x12200a390b224e0a934fa8a5f928d40e1db15fe8f3ef8d56af547ea2ccb7a2ed2319"
                            }
                        ],
                        "signature": "LogResult(uint256,bytes32,address,uint256,uint256,uint256,int256,bytes)"
                    },
                    "id": 3,
                    "logData": "0x000000000000000000000000000000000000000000000000000000000000004d000000000000000000000000000000000000000000000000000000000000004d000000000000000000000000000000000000000000000000016345785d8a0000000000000000000000000000000000000000000000000000000000000000000000000000000000000000000000000000000000000000000000000000000000a0000000000000000000000000000000000000000000000000000000000000002212200a390b224e0a934fa8a5f928d40e1db15fe8f3ef8d56af547ea2ccb7a2ed2319000000000000000000000000000000000000000000000000000000000000",
                    "logDecoded": true,
                    "operation": "EVENT",
                    "revert": false,
                    "status": true,
                    "topics": [
                        "0x8dd0b145385d04711e29558ceab40b456976a2b9a7d648cc1bcd416161bf97b9",
                        "0x0000000000000000000000000000000000000000000000000000000000031a21",
                        "0x7955ffef7d108ee05eade1c4b15e587f5b30fce04eb1680af174c0ab335de1a9",
                        "0x000000000000000000000000c9e441e02863d07256739ecfc7add33a1edbf250"
                    ]
                },
                "nodeType": 1
            },
            "4": {
                "invocation": {
                    "address": "0xc9e441e02863d07256739ecfc7add33a1edbf250",
                    "callData": "0x",
                    "decodedMethod": null,
                    "errorInfo": "",
                    "fromAddress": "0xd91e45416bfbbec6e2d1ae4ac83b788a21acf583",
                    "gasUsed": 0,
                    "id": 4,
                    "methodDecoded": false,
                    "operation": "CALL",
                    "output": "",
                    "revert": false,
                    "revertMessage": "",
                    "selector": "fallback",
                    "status": true,
                    "value": "0.000000000000000001"
                },
                "nodeType": 0
            }
        },
        "gasFlame": [
            {
                "children": [
                    {
                        "children": [
                            {
                                "children": [],
                                "depth": 0,
                                "name": "Initial Gas",
                                "value": 27672
                            },
                            {
                                "children": [
                                    {
                                        "children": [],
                                        "depth": 1,
                                        "name": "getAddress",
                                        "value": 418
                                    },
                                    {
                                        "children": [],
                                        "depth": 1,
                                        "name": "cbAddress",
                                        "value": 1444
                                    },
                                    {
                                        "children": [],
                                        "depth": 1,
                                        "name": "fallback",
                                        "value": 0
                                    }
                                ],
                                "depth": 0,
                                "name": "Executed Gas",
                                "value": 161381
                            }
                        ],
                        "depth": -1,
                        "name": "Actual Gas Used",
                        "value": 144053
                    },
                    {
                        "children": [],
                        "depth": -1,
                        "name": "Refunded Gas",
                        "value": 45000
                    }
                ],
                "depth": -2,
                "name": "Total Gas",
                "value": 189053
            }
        ],
        "isConfirmed": true,
        "mainTrace": [
            {
                "children": [
                    {
                        "children": [
                            {
                                "children": [],
                                "depth": 1,
                                "id": 1,
                                "order": 1
                            },
                            {
                                "children": [],
                                "depth": 1,
                                "id": 2,
                                "order": 2
                            },
                            {
                                "children": [],
                                "depth": 1,
                                "id": 3,
                                "order": 3
                            },
                            {
                                "children": [],
                                "depth": 1,
                                "id": 4,
                                "order": 4
                            }
                        ],
                        "depth": 0,
                        "id": 0,
                        "order": 0
                    }
                ],
                "depth": -1,
                "id": -1,
                "order": -1
            }
        ],
        "mainTraceNodeCount": 5,
        "parentIdMap": {
            "0": -1,
            "1": 0,
            "2": 0,
            "3": 0,
            "4": 0
        },
        "tidyTrace": [
            {
                "children": [
                    {
                        "children": [
                            {
                                "children": [],
                                "depth": 1,
                                "id": 1,
                                "order": 1
                            },
                            {
                                "children": [],
                                "depth": 1,
                                "id": 2,
                                "order": 2
                            },
                            {
                                "children": [],
                                "depth": 1,
                                "id": 3,
                                "order": 3
                            },
                            {
                                "children": [],
                                "depth": 1,
                                "id": 4,
                                "order": 4
                            }
                        ],
                        "depth": 0,
                        "id": 0,
                        "order": 0
                    }
                ],
                "depth": -1,
                "id": -1,
                "order": -1
            }
        ],
        "tidyTraceNodeCount": 5
    },
    "state_change": {
        "stateChanges": [
            {
                "address": "0xd91e45416bfbbec6e2d1ae4ac83b788a21acf583",
                "erc": "",
                "slots": [
                    {
                        "current": "0x000000000000000000000000000000000000000000000002a26eca89a19e5138",
                        "key": "0x0000000000000000000000000000000000000000000000000000000000000009",
                        "prev": "0x000000000000000000000000000000000000000000000002a26b3d0afcd7d138"
                    },
                    {
                        "current": "0x000000000000000000000000000000000000000000000000000000000000004d",
                        "key": "0xc7fe4baa5c98c02edeb17bf044df06a0a7211d9011ca15591557a05b0b963539",
                        "prev": "0x0000000000000000000000000000000000000000000000000000000000000000"
                    },
                    {
                        "current": "0x000000000000000000000000000000000000000000000000006b842e8818ebc9",
                        "key": "0xb12480f29aedb3fce981be1e26fdac66231fb266539c8aefe668eda71ce78b27",
                        "prev": "0x0000000000000000000000000000000000000000000000000000000000000000"
                    },
                    {
                        "current": "0x0000000000000000000000000000000000000000000000000000000000000000",
                        "key": "0x5dcbe181398834af43122203d52794407d0f93a45b659252485c99f94fd5313e",
                        "prev": "0x000000000000000000000000000000000000000000000000016345785d8a0000"
                    },
                    {
                        "current": "0x0000000000000000000000000000000000000000000000000000000000000000",
                        "key": "0xb189e2b3b7a1612bee50628fb0b8ad7b58a9fd230c2731bf43a8311ad064ca52",
                        "prev": "0x000000000000000000000000000000000000000000000000006b842e8818ebc9"
                    },
                    {
                        "current": "0x00000000000000000000000000000000000000000000000001c37160bef44c06",
                        "key": "0x000000000000000000000000000000000000000000000000000000000000000d",
                        "prev": "0x000000000000000000000000000000000000000000000000022ef58f470d37cf"
                    },
                    {
                        "current": "0x0000000000000000000000000000000000000000000000000000000000000000",
                        "key": "0xc8c2fb23c3fe2b19cab4abf3887658bcffce52e91b5102b2341b9ee517ecc9e9",
                        "prev": "0x000000000000000000000000c9e441e02863d07256739ecfc7add33a1edbf250"
                    },
                    {
                        "current": "0x000000000000000000000000000000000000000000000000016345785d8a0000",
                        "key": "0x23946be74a9898c9ba707e016cfd7b6ea22f53704c434b4a04691ef8b9267ad3",
                        "prev": "0x0000000000000000000000000000000000000000000000000000000000000000"
                    },
                    {
                        "current": "0x00000000000000000000000000000000000000000000390f21680bbf51eb18c3",
                        "key": "0x000000000000000000000000000000000000000000000000000000000000000f",
                        "prev": "0x00000000000000000000000000000000000000000000390f2004c646f46118c3"
                    },
                    {
                        "current": "0x000000000000000000000000000000000000000000000000000000000002fafb",
                        "key": "0x000000000000000000000000000000000000000000000000000000000000000c",
                        "prev": "0x000000000000000000000000000000000000000000000000000000000002fafa"
                    },
                    {
                        "current": "0x00000000000000000000000000000000000000000000010773471dc321d7ba26",
                        "key": "0x0000000000000000000000000000000000000000000000000000000000000007",
                        "prev": "0x00000000000000000000000000000000000000000000010771e3d84ac44dba27"
                    },
                    {
                        "current": "0x000000000000000000000000c9e441e02863d07256739ecfc7add33a1edbf250",
                        "key": "0x8d4a59893eb0b9ff991f98e5e9daf2d3feeb56250cd9b68c18415a3dd786fcf4",
                        "prev": "0x0000000000000000000000000000000000000000000000000000000000000000"
                    }
                ],
                "storageVariables": [
                    {
                        "name": "playerTempBetValue",
                        "type": "mapping(bytes32 => uint256)",
                        "value": {
                            "pairs": [
                                {
                                    "key": "0x7955ffef7d108ee05eade1c4b15e587f5b30fce04eb1680af174c0ab335de1a9",
                                    "value": {
                                        "current": "100000000000000000",
                                        "prev": "0",
                                        "typeTag": 1
                                    }
                                }
                            ],
                            "typeTag": 4
                        }
                    },
                    {
                        "name": "totalBets",
                        "type": "int256",
                        "value": {
                            "current": "195323",
                            "prev": "195322",
                            "typeTag": 1
                        }
                    },
                    {
                        "name": "playerTempAddress",
                        "type": "mapping(bytes32 => address)",
                        "value": {
                            "pairs": [
                                {
                                    "key": "0x7955ffef7d108ee05eade1c4b15e587f5b30fce04eb1680af174c0ab335de1a9",
                                    "value": {
                                        "current": "0xc9e441e02863d07256739ecfc7add33a1edbf250",
                                        "prev": "0x0000000000000000000000000000000000000000",
                                        "typeTag": 1
                                    }
                                }
                            ],
                            "typeTag": 4
                        }
                    },
                    {
                        "name": "playerDieResult",
                        "type": "mapping(bytes32 => uint256)",
                        "value": {
                            "pairs": [
                                {
                                    "key": "0x7955ffef7d108ee05eade1c4b15e587f5b30fce04eb1680af174c0ab335de1a9",
                                    "value": {
                                        "current": "77",
                                        "prev": "0",
                                        "typeTag": 1
                                    }
                                }
                            ],
                            "typeTag": 4
                        }
                    },
                    {
                        "name": "totalWeiWagered",
                        "type": "uint256",
                        "value": {
                            "current": "269453997871592591005891",
                            "prev": "269453897871592591005891",
                            "typeTag": 1
                        }
                    },
                    {
                        "name": "maxPendingPayouts",
                        "type": "uint256",
                        "value": {
                            "current": "127069874830986246",
                            "prev": "157333032725723087",
                            "typeTag": 1
                        }
                    },
                    {
                        "name": "playerProfit",
                        "type": "mapping(bytes32 => uint256)",
                        "value": {
                            "pairs": [
                                {
                                    "key": "0x7955ffef7d108ee05eade1c4b15e587f5b30fce04eb1680af174c0ab335de1a9",
                                    "value": {
                                        "current": "0",
                                        "prev": "30263157894736841",
                                        "typeTag": 1
                                    }
                                }
                            ],
                            "typeTag": 4
                        }
                    },
                    {
                        "name": "contractBalance",
                        "type": "uint256",
                        "value": {
                            "current": "4859800332147243858470",
                            "prev": "4859700332147243858471",
                            "typeTag": 1
                        }
                    },
                    {
                        "name": "maxProfit",
                        "type": "uint256",
                        "value": {
                            "current": "48598003321472438584",
                            "prev": "48597003321472438584",
                            "typeTag": 1
                        }
                    },
                    {
                        "name": "playerAddress",
                        "type": "mapping(bytes32 => address)",
                        "value": {
                            "pairs": [
                                {
                                    "key": "0x7955ffef7d108ee05eade1c4b15e587f5b30fce04eb1680af174c0ab335de1a9",
                                    "value": {
                                        "current": "0x0000000000000000000000000000000000000000",
                                        "prev": "0xc9e441e02863d07256739ecfc7add33a1edbf250",
                                        "typeTag": 1
                                    }
                                }
                            ],
                            "typeTag": 4
                        }
                    },
                    {
                        "name": "playerBetValue",
                        "type": "mapping(bytes32 => uint256)",
                        "value": {
                            "pairs": [
                                {
                                    "key": "0x7955ffef7d108ee05eade1c4b15e587f5b30fce04eb1680af174c0ab335de1a9",
                                    "value": {
                                        "current": "0",
                                        "prev": "100000000000000000",
                                        "typeTag": 1
                                    }
                                }
                            ],
                            "typeTag": 4
                        }
                    },
                    {
                        "name": "playerTempReward",
                        "type": "mapping(bytes32 => uint256)",
                        "value": {
                            "pairs": [
                                {
                                    "key": "0x7955ffef7d108ee05eade1c4b15e587f5b30fce04eb1680af174c0ab335de1a9",
                                    "value": {
                                        "current": "30263157894736841",
                                        "prev": "0",
                                        "typeTag": 1
                                    }
                                }
                            ],
                            "typeTag": 4
                        }
                    }
                ]
            }
        ]
    }
}