{
    "balance_change": {
        "balanceChanges": [
            {
                "account": "0x3cd751e6b0078be393132286c442345e5dc49699",
                "assets": [
                    {
                        "address": "0x80c62fe4487e1351b47ba49809ebd60ed085bf52",
                        "amount": "93.8506695",
                        "iconUrl": "https://assets.blocksec.com/icon/698696e119f8f4f91f18c08b6a47acf55598de054b9a6913fa4daebf5ce1b3c0.png",
                        "isERC1155": false,
                        "isERC721": false,
                        "sign": false,
                        "value": "34.52649621"
                    }
                ]
            },
            {
                "account": "0xf265634467e0475a4ecf55f2059429c9cafd3bc0",
                "assets": [
                    {
                        "address": "0x80c62fe4487e1351b47ba49809ebd60ed085bf52",
                        "amount": "93.8506695",
                        "iconUrl": "https://assets.blocksec.com/icon/698696e119f8f4f91f18c08b6a47acf55598de054b9a6913fa4daebf5ce1b3c0.png",
                        "isERC1155": false,
                        "isERC721": false,
                        "sign": true,
                        "value": "34.52649621"
                    }
                ]
            }
        ]
    },
    "profile": {
        "basic_info": {
            "baseFee": "69.301739644",
            "blockNumber": 14212124,
            "callData": "0xa9059cbb000000000000000000000000f265634467e0475a4ecf55f2059429c9cafd3bc000000000000000000000000000000000000000000000000516708eab08165800",
            "debugEnable": true,
            "errorInfo": "",
            "eventCount": 1,
            "feeRecipient": "0x52bc44d5378309ee2abf1539bf71de1b7d7be3b5",
            "formatValue": "0",
            "gasLimit": 250000,
            "gasPrice": "71.301739644",
            "gasUsed": 54800,
            "intTxnCount": 0,
            "internalRevert": false,
            "internalRevertMessage": "",
            "isContractCreation": false,
            "isFlashloan": false,
            "maxFee": "140",
            "nonce": 6307217,
            "overwritedBlockNumber": -1,
            "priorityFee": "2",
            "receiver": "0x80c62fe4487e1351b47ba49809ebd60ed085bf52",
            "revertMessage": "",
            "sender": "0x3cd751e6b0078be393132286c442345e5dc49699",
            "simulationEnable": true,
            "sourceTxnHash": "0x0d65707ef6aae4c537ca76975b3096a4ae07e04413545f5b448ecda51c602039",
            "status": true,
            "timestamp": "2022-02-15T17:42:11Z",
            "transactionFee": "0.0039073353324912",
            "txnHash": "0x0d65707ef6aae4c537ca76975b3096a4ae07e04413545f5b448ecda51c602039",
            "txnIndex": 35,
            "type": 2,
            "value": "0"
        },
        "fund_flow": [
            {
                "amount": "93.8506695",
                "from": "0x3cd751e6b0078be393132286c442345e5dc49699",
                "id": 1,
                "isERC1155": false,
                "isERC721": false,
                "isReverted": false,
                "order": 1,
                "to": "0xf265634467e0475a4ecf55f2059429c9cafd3bc0",
                "token": "0x80c62fe4487e1351b47ba49809ebd60ed085bf52"
            }
        ],
        "token_infos": [
            {
                "address": "0x80c62fe4487e1351b47ba49809ebd60ed085bf52",
                "decimals": 18
            },
            {
                "address": "0xc02aaa39b223fe8d0a0e5c4f27ead9083c756cc2",
                "decimals": 18
            },
            {
                "address": "0xeeeeeeeeeeeeeeeeeeeeeeeeeeeeeeeeeeeeeeee",
                "decimals": 18
            }
        ]
    },
    "address_label": {
        "labels": [
            {
                "address": "0x0000000000000000000000000000000000000003",
                "label": "Precompiled"
            },
            {
                "address": "0x0000000000000000000000000000000000000004",
                "label": "Precompiled"
            },
            {
                "address": "0xeeeeeeeeeeeeeeeeeeeeeeeeeeeeeeeeeeeeeeee",
                "label": "Ether"
            },
            {
                "address": "0x80c62fe4487e1351b47ba49809ebd60ed085bf52",
                "label": "Clover Finance: CLV Token"
            },
            {
                "address": "0x3cd751e6b0078be393132286c442345e5dc49699",
                "label": "Coinbase 4"
            },
            {
                "address": "0x0000000000000000000000000000000000000001",
                "label": "Precompiled"
            },
            {
                "address": "0x0000000000000000000000000000000000000002",
                "label": "Precompiled"
            }
        ]
    },
    "trace": {
        "accountLabels": null,
        "dataMap": {
            "-1": {
                "invocation": {
                    "address": "0x3cd751e6b0078be393132286c442345e5dc49699",
                    "callData": "",
                    "decodedMethod": null,
                    "errorInfo": "",
                    "fromAddress": "",
                    "gasUsed": 0,
                    "id": -1,
                    "methodDecoded": false,
                    "operation": "",
                    "output": "",
                    "revert": false,
                    "revertMessage": "",
                    "selector": "",
                    "status": false,
                    "value": ""
                },
                "nodeType": 0
            },
            "0": {
                "invocation": {
                    "address": "0x80c62fe4487e1351b47ba49809ebd60ed085bf52",
                    "callData": "0x000000000000000000000000f265634467e0475a4ecf55f2059429c9cafd3bc000000000000000000000000000000000000000000000000516708eab08165800",
                    "decodedMethod": {
                        "callParams": [
                            {
                                "name": "recipient",
                                "type": "address",
                                "value": "0xf265634467e0475a4ecf55f2059429c9cafd3bc0"
                            },
                            {
                                "decimalAvailable": true,
                                "name": "amount",
                                "type": "uint256",
                                "value": "93,850,669,500,000,000,000"
                            }
                        ],
                        "constructorArguments": "",
                        "name": "transfer",
                        "returnParams": [
                            {
                                "name": "",
                                "type": "bool",
                                "value": true
                            }
                        ],
                        "signature": "transfer(address,uint256)"
                    },
                    "errorInfo": "",
                    "fromAddress": "0x3cd751e6b0078be393132286c442345e5dc49699",
                    "gasUsed": 54800,
                    "id": 0,
                    "methodDecoded": true,
                    "operation": "CALL",
                    "output": "0x0000000000000000000000000000000000000000000000000000000000000001",
                    "revert": false,
                    "revertMessage": "",
                    "selector": "0xa9059cbb",
                    "status": true,
                    "value": "0"
                },
                "nodeType": 0
            },
            "1": {
                "event": {
                    "contract": "0x80c62fe4487e1351b47ba49809ebd60ed085bf52",
                    "decodedLog": {
                        "name": "Transfer",
                        "params": [
                            {
                                "name": "from",
                                "type": "address",
                                "value": "0x3cd751e6b0078be393132286c442345e5dc49699"
                            },
                            {
                                "name": "to",
                                "type": "address",
                                "value": "0xf265634467e0475a4ecf55f2059429c9cafd3bc0"
                            },
                            {
                                "decimalAvailable": true,
                                "name": "value",
                                "type": "uint256",
                                "value": "93,850,669,500,000,000,000"
                            }
                        ],
                        "signature": "Transfer(address,address,uint256)"
                    },
                    "id": 1,
                    "logData": "0x00000000000000000000000000000000000000000000000516708eab08165800",
                    "logDecoded": true,
                    "operation": "EVENT",
                    "revert": false,
                    "status": true,
                    "topics": [
                        "0xddf252ad1be2c89b69c2b068fc378daa952ba7f163c4a11628f55a4df523b3ef",
                        "0x0000000000000000000000003cd751e6b0078be393132286c442345e5dc49699",
                        "0x000000000000000000000000f265634467e0475a4ecf55f2059429c9cafd3bc0"
                    ]
                },
                "nodeType": 1
            }
        },
        "gasFlame": [
            {
                "children": [
                    {
                        "children": [
                            {
                                "children": [],
                                "depth": 0,
                                "name": "Initial Gas",
                                "value": 21656
                            },
                            {
                                "children": [],
                                "depth": 0,
                                "name": "Executed Gas",
                                "value": 33144
                            }
                        ],
                        "depth": -1,
                        "name": "Actual Gas Used",
                        "value": 54800
                    },
                    {
                        "children": [],
                        "depth": -1,
                        "name": "Refunded Gas",
                        "value": 0
                    }
                ],
                "depth": -2,
                "name": "Total Gas",
                "value": 54800
            }
        ],
        "isConfirmed": true,
        "mainTrace": [
            {
                "children": [
                    {
                        "children": [
                            {
                                "children": [],
                                "depth": 1,
                                "id": 1,
                                "order": 1
                            }
                        ],
                        "depth": 0,
                        "id": 0,
                        "order": 0
                    }
                ],
                "depth": -1,
                "id": -1,
                "order": -1
            }
        ],
        "mainTraceNodeCount": 2,
        "parentIdMap": {
            "0": -1,
            "1": 0
        },
        "tidyTrace": [
            {
                "children": [
                    {
                        "children": [
                            {
                                "children": [],
                                "depth": 1,
                                "id": 1,
                                "order": 1
                            }
                        ],
                        "depth": 0,
                        "id": 0,
                        "order": 0
                    }
                ],
                "depth": -1,
                "id": -1,
                "order": -1
            }
        ],
        "tidyTraceNodeCount": 2
    },
    "state_change": {
        "stateChanges": [
            {
                "address": "0x80c62fe4487e1351b47ba49809ebd60ed085bf52",
                "erc": "ERC-20",
                "slots": [
                    {
                        "current": "0x000000000000000000000000000000000000000000036a1b78205dbe8d0c7e66",
                        "key": "0x66b20894c64d33fafb7e1531f228af9772bdc95e24d73f494da3e0e3cc46a05d",
                        "prev": "0x000000000000000000000000000000000000000000036a208e90ec699522d666"
                    },
                    {
                        "current": "0x00000000000000000000000000000000000000000000000516708eab08165800",
                        "key": "0x0844fcb9d97786e7f9e8abfbb943c1737475be93932b5770265541d9ebf85e12",
                        "prev": "0x0000000000000000000000000000000000000000000000000000000000000000"
                    }
                ],
                "storageVariables": [
                    {
                        "name": "_balances",
                        "type": "mapping(address => uint256)",
                        "value": {
                            "pairs": [
                                {
                                    "key": "0x3cd751e6b0078be393132286c442345e5dc49699",
                                    "value": {
                                        "current": "4127855024139616872332902",
                                        "prev": "4127948874809116872332902",
                                        "typeTag": 1
                                    }
                                },
                                {
                                    "key": "0xf265634467e0475a4ecf55f2059429c9cafd3bc0",
                                    "value": {
                                        "current": "93850669500000000000",
                                        "prev": "0",
                                        "typeTag": 1
                                    }
                                }
                            ],
                            "typeTag": 4
                        }
                    }
                ]
            }
        ]
    }
}