{
    "balance_change": {
        "balanceChanges": [
            {
                "account": "0x68522b48659905bcaf967549cd881099a6caa67b",
                "assets": [
                    {
                        "address": "0xa0b86991c6218b36c1d19d4a2e9eb0ce3606eb48",
                        "amount": "3,000",
                        "iconUrl": "https://assets.blocksec.com/icon/0347a86cc07dbd03fdc5db01a4e5ac7e1217f90e0b6e4bb0f75cbcca09160989.png",
                        "isERC1155": false,
                        "isERC721": false,
                        "sign": false,
                        "value": "3002.9999999999996696"
                    },
                    {
                        "address": "0x4f08705fb8f33affc231ed66e626b40e84a71870",
                        "amount": "3,298,548.7441805467",
                        "iconUrl": "",
                        "isERC1155": false,
                        "isERC721": false,
                        "sign": true,
                        "value": "2973.515083"
                    }
                ]
            },
            {
                "account": "0x5777d92f208679db4b9778590fa3cab3ac9e2168",
                "assets": [
                    {
                        "address": "0x6b175474e89094c44da98b954eedeac495271d0f",
                        "amount": "2,999.797592128192416967",
                        "iconUrl": "https://assets.blocksec.com/icon/39aead569b9c011cb6f69734d9abbc9ab6a80049fe93bbd12bb473a3e0e859a3.png",
                        "isERC1155": false,
                        "isERC721": false,
                        "sign": false,
                        "value": "2999.797592"
                    },
                    {
                        "address": "0xa0b86991c6218b36c1d19d4a2e9eb0ce3606eb48",
                        "amount": "3,000",
                        "iconUrl": "https://assets.blocksec.com/icon/0347a86cc07dbd03fdc5db01a4e5ac7e1217f90e0b6e4bb0f75cbcca09160989.png",
                        "isERC1155": false,
                        "isERC721": false,
                        "sign": true,
                        "value": "3002.9999999999996696"
                    }
                ]
            },
            {
                "account": "0xe532b04d2f2e921dfec69e132e9214d2f82df304",
                "assets": [
                    {
                        "address": "0x4f08705fb8f33affc231ed66e626b40e84a71870",
                        "amount": "3,298,548.7441805467",
                        "iconUrl": "",
                        "isERC1155": false,
                        "isERC721": false,
                        "sign": false,
                        "value": "2973.515083"
                    },
                    {
                        "address": "0x6b175474e89094c44da98b954eedeac495271d0f",
                        "amount": "2,999.797592128192416967",
                        "iconUrl": "https://assets.blocksec.com/icon/39aead569b9c011cb6f69734d9abbc9ab6a80049fe93bbd12bb473a3e0e859a3.png",
                        "isERC1155": false,
                        "isERC721": false,
                        "sign": true,
                        "value": "2999.797592"
                    }
                ]
            }
        ]
    },
    "profile": {
        "basic_info": {
            "baseFee": "25.521378522",
            "blockNumber": 16696664,
            "callData": "0x3593564c000000000000000000000000000000000000000000000000000000000000006000000000000000000000000000000000000000000000000000000000000000a00000000000000000000000000000000000000000000000000000000063f86b37000000000000000000000000000000000000000000000000000000000000000200080000000000000000000000000000000000000000000000000000000000000000000000000000000000000000000000000000000000000000000000000002000000000000000000000000000000000000000000000000000000000000004000000000000000000000000000000000000000000000000000000000000001600000000000000000000000000000000000000000000000000000000000000100000000000000000000000000e532b04d2f2e921dfec69e132e9214d2f82df30400000000000000000000000000000000000000000000000000000000b2d05e00000000000000000000000000000000000000000000000000000000000000000000000000000000000000000000000000000000000000000000000000000000a00000000000000000000000000000000000000000000000000000000000000001000000000000000000000000000000000000000000000000000000000000002ba0b86991c6218b36c1d19d4a2e9eb0ce3606eb480000646b175474e89094c44da98b954eedeac495271d0f00000000000000000000000000000000000000000000000000000000000000000000000000000000000000000000000000000001000000000000000000000000000000000000000000000000000000000000000001800000000000000000000000000000000000000000000000000000000000000000000000000000000000000000000000000000000000000004914eb4e924d7b400000000000000000000000000000000000000000000000000000000000000a0000000000000000000000000000000000000000000000000000000000000000000000000000000000000000000000000000000000000000000000000000000020000000000000000000000006b175474e89094c44da98b954eedeac495271d0f0000000000000000000000004f08705fb8f33affc231ed66e626b40e84a71870",
            "debugEnable": true,
            "errorInfo": "",
            "eventCount": 7,
            "feeRecipient": "0xdafea492d9c6733ae3d56b7ed1adb60692c98bc5",
            "formatValue": "0",
            "gasLimit": 249369,
            "gasPrice": "26.021378522",
            "gasUsed": 200016,
            "intTxnCount": 20,
            "internalRevert": false,
            "internalRevertMessage": "",
            "isContractCreation": false,
            "isFlashloan": false,
            "maxFee": "34.578019264",
            "nonce": 281,
            "overwritedBlockNumber": -1,
            "priorityFee": "0.5",
            "receiver": "0xef1c6e67703c7bd7107eed8303fbe6ec2554bf6b",
            "revertMessage": "",
            "sender": "0x68522b48659905bcaf967549cd881099a6caa67b",
            "simulationEnable": true,
            "sourceTxnHash": "0x0da195a53964504d2e1f1bb01a2d67ffc56352249867c4a0993e9a9918c1ef45",
            "status": true,
            "timestamp": "2023-02-24T07:16:23Z",
            "transactionFee": "0.005204692046456352",
            "txnHash": "0x0da195a53964504d2e1f1bb01a2d67ffc56352249867c4a0993e9a9918c1ef45",
            "txnIndex": 68,
            "type": 2,
            "value": "0"
        },
        "fund_flow": [
            {
                "amount": "2,999.797592128192416967",
                "from": "0x5777d92f208679db4b9778590fa3cab3ac9e2168",
                "id": 1,
                "isERC1155": false,
                "isERC721": false,
                "isReverted": false,
                "order": 1,
                "to": "0xe532b04d2f2e921dfec69e132e9214d2f82df304",
                "token": "0x6b175474e89094c44da98b954eedeac495271d0f"
            },
            {
                "amount": "3,000",
                "from": "0x68522b48659905bcaf967549cd881099a6caa67b",
                "id": 2,
                "isERC1155": false,
                "isERC721": false,
                "isReverted": false,
                "order": 2,
                "to": "0x5777d92f208679db4b9778590fa3cab3ac9e2168",
                "token": "0xa0b86991c6218b36c1d19d4a2e9eb0ce3606eb48"
            },
            {
                "amount": "0",
                "from": "0xef1c6e67703c7bd7107eed8303fbe6ec2554bf6b",
                "id": 3,
                "isERC1155": false,
                "isERC721": false,
                "isReverted": false,
                "order": 3,
                "to": "0xe532b04d2f2e921dfec69e132e9214d2f82df304",
                "token": "0x6b175474e89094c44da98b954eedeac495271d0f"
            },
            {
                "amount": "3,298,548.7441805467",
                "from": "0xe532b04d2f2e921dfec69e132e9214d2f82df304",
                "id": 4,
                "isERC1155": false,
                "isERC721": false,
                "isReverted": false,
                "order": 4,
                "to": "0x68522b48659905bcaf967549cd881099a6caa67b",
                "token": "0x4f08705fb8f33affc231ed66e626b40e84a71870"
            }
        ],
        "token_infos": [
            {
                "address": "0x4f08705fb8f33affc231ed66e626b40e84a71870",
                "decimals": 11
            },
            {
                "address": "0x6b175474e89094c44da98b954eedeac495271d0f",
                "decimals": 18
            },
            {
                "address": "0xa0b86991c6218b36c1d19d4a2e9eb0ce3606eb48",
                "decimals": 6
            },
            {
                "address": "0xc02aaa39b223fe8d0a0e5c4f27ead9083c756cc2",
                "decimals": 18
            },
            {
                "address": "0xeeeeeeeeeeeeeeeeeeeeeeeeeeeeeeeeeeeeeeee",
                "decimals": 18
            }
        ]
    },
    "address_label": {
        "labels": [
            {
                "address": "0x4f08705fb8f33affc231ed66e626b40e84a71870",
                "label": "FLUT: FLUT Token"
            },
            {
                "address": "0x0000000000000000000000000000000000000004",
                "label": "Precompiled"
            },
            {
                "address": "0xa2327a938febf5fec13bacfb16ae10ecbc4cbdcf",
                "label": "FiatTokenV2_1"
            },
            {
                "address": "0x5777d92f208679db4b9778590fa3cab3ac9e2168",
                "label": "Uniswap V3: DAI-USDC 4"
            },
            {
                "address": "0xef1c6e67703c7bd7107eed8303fbe6ec2554bf6b",
                "label": "Uniswap: Universal Router 2"
            },
            {
                "address": "0xe532b04d2f2e921dfec69e132e9214d2f82df304",
                "label": "Uniswap V2: FLUT-DAI"
            },
            {
                "address": "0xa0b86991c6218b36c1d19d4a2e9eb0ce3606eb48",
                "label": "Circle: USDC Token"
            },
            {
                "address": "0x0000000000000000000000000000000000000001",
                "label": "Precompiled"
            },
            {
                "address": "0xeeeeeeeeeeeeeeeeeeeeeeeeeeeeeeeeeeeeeeee",
                "label": "Ether"
            },
            {
                "address": "0x000000000022d473030f116ddee9f6b43ac78ba3",
                "label": "Permit2"
            },
            {
                "address": "0x6b175474e89094c44da98b954eedeac495271d0f",
                "label": "Sky: Dai Stablecoin"
            },
            {
                "address": "0x0000000000000000000000000000000000000002",
                "label": "Precompiled"
            },
            {
                "address": "0x0000000000000000000000000000000000000003",
                "label": "Precompiled"
            }
        ]
    },
    "trace": {
        "accountLabels": null,
        "dataMap": {
            "-1": {
                "invocation": {
                    "address": "0x68522b48659905bcaf967549cd881099a6caa67b",
                    "callData": "",
                    "decodedMethod": null,
                    "errorInfo": "",
                    "fromAddress": "",
                    "gasUsed": 0,
                    "id": -1,
                    "methodDecoded": false,
                    "operation": "",
                    "output": "",
                    "revert": false,
                    "revertMessage": "",
                    "selector": "",
                    "status": false,
                    "value": ""
                },
                "nodeType": 0
            },
            "0": {
                "invocation": {
                    "address": "0xef1c6e67703c7bd7107eed8303fbe6ec2554bf6b",
                    "callData": "0x000000000000000000000000000000000000000000000000000000000000006000000000000000000000000000000000000000000000000000000000000000a00000000000000000000000000000000000000000000000000000000063f86b37000000000000000000000000000000000000000000000000000000000000000200080000000000000000000000000000000000000000000000000000000000000000000000000000000000000000000000000000000000000000000000000002000000000000000000000000000000000000000000000000000000000000004000000000000000000000000000000000000000000000000000000000000001600000000000000000000000000000000000000000000000000000000000000100000000000000000000000000e532b04d2f2e921dfec69e132e9214d2f82df30400000000000000000000000000000000000000000000000000000000b2d05e00000000000000000000000000000000000000000000000000000000000000000000000000000000000000000000000000000000000000000000000000000000a00000000000000000000000000000000000000000000000000000000000000001000000000000000000000000000000000000000000000000000000000000002ba0b86991c6218b36c1d19d4a2e9eb0ce3606eb480000646b175474e89094c44da98b954eedeac495271d0f00000000000000000000000000000000000000000000000000000000000000000000000000000000000000000000000000000001000000000000000000000000000000000000000000000000000000000000000001800000000000000000000000000000000000000000000000000000000000000000000000000000000000000000000000000000000000000004914eb4e924d7b400000000000000000000000000000000000000000000000000000000000000a0000000000000000000000000000000000000000000000000000000000000000000000000000000000000000000000000000000000000000000000000000000020000000000000000000000006b175474e89094c44da98b954eedeac495271d0f0000000000000000000000004f08705fb8f33affc231ed66e626b40e84a71870",
                    "decodedMethod": {
                        "callParams": [
                            {
                                "name": "commands",
                                "type": "bytes",
                                "value": "0x0008"
                            },
                            {
                                "name": "inputs",
                                "type": "bytes[]",
                                "value": [
                                    "0x000000000000000000000000e532b04d2f2e921dfec69e132e9214d2f82df30400000000000000000000000000000000000000000000000000000000b2d05e00000000000000000000000000000000000000000000000000000000000000000000000000000000000000000000000000000000000000000000000000000000a00000000000000000000000000000000000000000000000000000000000000001000000000000000000000000000000000000000000000000000000000000002ba0b86991c6218b36c1d19d4a2e9eb0ce3606eb480000646b175474e89094c44da98b954eedeac495271d0f000000000000000000000000000000000000000000",
                                    "0x0000000000000000000000000000000000000000000000000000000000000001800000000000000000000000000000000000000000000000000000000000000000000000000000000000000000000000000000000000000004914eb4e924d7b400000000000000000000000000000000000000000000000000000000000000a0000000000000000000000000000000000000000000000000000000000000000000000000000000000000000000000000000000000000000000000000000000020000000000000000000000006b175474e89094c44da98b954eedeac495271d0f0000000000000000000000004f08705fb8f33affc231ed66e626b40e84a71870"
                                ]
                            },
                            {
                                "name": "deadline",
                                "type": "uint256",
                                "value": "1,677,224,759"
                            }
                        ],
                        "constructorArguments": "",
                        "name": "execute",
                        "returnParams": [],
                        "signature": "execute(bytes,bytes[],uint256)"
                    },
                    "errorInfo": "",
                    "fromAddress": "0x68522b48659905bcaf967549cd881099a6caa67b",
                    "gasUsed": 200016,
                    "id": 0,
                    "methodDecoded": true,
                    "operation": "CALL",
                    "output": "",
                    "revert": false,
                    "revertMessage": "",
                    "selector": "0x3593564c",
                    "status": true,
                    "value": "0"
                },
                "nodeType": 0
            },
            "1": {
                "invocation": {
                    "address": "0x5777d92f208679db4b9778590fa3cab3ac9e2168",
                    "callData": "0x000000000000000000000000e532b04d2f2e921dfec69e132e9214d2f82df304000000000000000000000000000000000000000000000000000000000000000000000000000000000000000000000000000000000000000000000000b2d05e00000000000000000000000000fffd8963efd1fc6a506488495d951d5263988d2500000000000000000000000000000000000000000000000000000000000000a000000000000000000000000000000000000000000000000000000000000000a0000000000000000000000000000000000000000000000000000000000000004000000000000000000000000068522b48659905bcaf967549cd881099a6caa67b000000000000000000000000000000000000000000000000000000000000002ba0b86991c6218b36c1d19d4a2e9eb0ce3606eb480000646b175474e89094c44da98b954eedeac495271d0f000000000000000000000000000000000000000000",
                    "decodedMethod": {
                        "callParams": [
                            {
                                "name": "recipient",
                                "type": "address",
                                "value": "0xe532b04d2f2e921dfec69e132e9214d2f82df304"
                            },
                            {
                                "name": "zeroForOne",
                                "type": "bool",
                                "value": false
                            },
                            {
                                "name": "amountSpecified",
                                "type": "int256",
                                "value": "3,000,000,000"
                            },
                            {
                                "name": "sqrtPriceLimitX96",
                                "type": "uint160",
                                "value": "1,461,446,703,485,210,103,287,273,052,203,988,822,378,723,970,341"
                            },
                            {
                                "name": "data",
                                "type": "bytes",
                                "value": "0x000000000000000000000000000000000000000000000000000000000000004000000000000000000000000068522b48659905bcaf967549cd881099a6caa67b000000000000000000000000000000000000000000000000000000000000002ba0b86991c6218b36c1d19d4a2e9eb0ce3606eb480000646b175474e89094c44da98b954eedeac495271d0f000000000000000000000000000000000000000000"
                            }
                        ],
                        "constructorArguments": "",
                        "name": "swap",
                        "returnParams": [
                            {
                                "name": "amount0",
                                "type": "int256",
                                "value": "-2,999,797,592,128,192,416,967"
                            },
                            {
                                "name": "amount1",
                                "type": "int256",
                                "value": "3,000,000,000"
                            }
                        ],
                        "signature": "swap(address,bool,int256,uint160,bytes)"
                    },
                    "errorInfo": "",
                    "fromAddress": "0xef1c6e67703c7bd7107eed8303fbe6ec2554bf6b",
                    "gasUsed": 95933,
                    "id": 1,
                    "methodDecoded": true,
                    "operation": "CALL",
                    "output": "0xffffffffffffffffffffffffffffffffffffffffffffff5d61720f9176f5733900000000000000000000000000000000000000000000000000000000b2d05e00",
                    "revert": false,
                    "revertMessage": "",
                    "selector": "0x128acb08",
                    "status": true,
                    "value": "0"
                },
                "nodeType": 0
            },
            "10": {
                "event": {
                    "contract": "0xa0b86991c6218b36c1d19d4a2e9eb0ce3606eb48",
                    "decodedLog": {
                        "name": "Transfer",
                        "params": [
                            {
                                "name": "from",
                                "type": "address",
                                "value": "0x68522b48659905bcaf967549cd881099a6caa67b"
                            },
                            {
                                "name": "to",
                                "type": "address",
                                "value": "0x5777d92f208679db4b9778590fa3cab3ac9e2168"
                            },
                            {
                                "decimalAvailable": true,
                                "name": "value",
                                "type": "uint256",
                                "value": "3,000,000,000"
                            }
                        ],
                        "signature": "Transfer(address,address,uint256)"
                    },
                    "id": 10,
                    "logData": "0x00000000000000000000000000000000000000000000000000000000b2d05e00",
                    "logDecoded": true,
                    "operation": "EVENT",
                    "revert": false,
                    "status": true,
                    "topics": [
                        "0xddf252ad1be2c89b69c2b068fc378daa952ba7f163c4a11628f55a4df523b3ef",
                        "0x00000000000000000000000068522b48659905bcaf967549cd881099a6caa67b",
                        "0x0000000000000000000000005777d92f208679db4b9778590fa3cab3ac9e2168"
                    ]
                },
                "nodeType": 1
            },
            "11": {
                "invocation": {
                    "address": "0xa0b86991c6218b36c1d19d4a2e9eb0ce3606eb48",
                    "callData": "0x0000000000000000000000005777d92f208679db4b9778590fa3cab3ac9e2168",
                    "decodedMethod": {
                        "callParams": [
                            {
                                "name": "account",
                                "type": "address",
                                "value": "0x5777d92f208679db4b9778590fa3cab3ac9e2168"
                            }
                        ],
                        "constructorArguments": "",
                        "name": "balanceOf",
                        "returnParams": [
                            {
                                "decimalAvailable": true,
                                "name": "",
                                "type": "uint256",
                                "value": "95,828,801,964,995"
                            }
                        ],
                        "signature": "balanceOf(address)"
                    },
                    "errorInfo": "",
                    "fromAddress": "0x5777d92f208679db4b9778590fa3cab3ac9e2168",
                    "gasUsed": 1315,
                    "id": 11,
                    "methodDecoded": true,
                    "operation": "STATICCALL",
                    "output": "0x00000000000000000000000000000000000000000000000000005727e1b34bc3",
                    "revert": false,
                    "revertMessage": "",
                    "selector": "0x70a08231",
                    "status": true,
                    "value": "0"
                },
                "nodeType": 0
            },
            "12": {
                "invocation": {
                    "address": "0xa2327a938febf5fec13bacfb16ae10ecbc4cbdcf",
                    "callData": "0x0000000000000000000000005777d92f208679db4b9778590fa3cab3ac9e2168",
                    "decodedMethod": {
                        "callParams": [
                            {
                                "name": "account",
                                "type": "address",
                                "value": "0x5777d92f208679db4b9778590fa3cab3ac9e2168"
                            }
                        ],
                        "constructorArguments": "",
                        "name": "balanceOf",
                        "returnParams": [
                            {
                                "decimalAvailable": true,
                                "name": "",
                                "type": "uint256",
                                "value": "95,828,801,964,995"
                            }
                        ],
                        "signature": "balanceOf(address)"
                    },
                    "errorInfo": "",
                    "fromAddress": "0xa0b86991c6218b36c1d19d4a2e9eb0ce3606eb48",
                    "gasUsed": 529,
                    "id": 12,
                    "methodDecoded": true,
                    "operation": "DELEGATECALL",
                    "output": "0x00000000000000000000000000000000000000000000000000005727e1b34bc3",
                    "revert": false,
                    "revertMessage": "",
                    "selector": "0x70a08231",
                    "status": true,
                    "value": "0"
                },
                "nodeType": 0
            },
            "13": {
                "event": {
                    "contract": "0x5777d92f208679db4b9778590fa3cab3ac9e2168",
                    "decodedLog": {
                        "name": "Swap",
                        "params": [
                            {
                                "name": "sender",
                                "type": "address",
                                "value": "0xef1c6e67703c7bd7107eed8303fbe6ec2554bf6b"
                            },
                            {
                                "name": "recipient",
                                "type": "address",
                                "value": "0xe532b04d2f2e921dfec69e132e9214d2f82df304"
                            },
                            {
                                "name": "amount0",
                                "type": "int256",
                                "value": "-2,999,797,592,128,192,416,967"
                            },
                            {
                                "name": "amount1",
                                "type": "int256",
                                "value": "3,000,000,000"
                            },
                            {
                                "name": "sqrtPriceX96",
                                "type": "uint160",
                                "value": "79,226,873,845,660,799,044,360"
                            },
                            {
                                "name": "liquidity",
                                "type": "uint128",
                                "value": "1,153,740,793,126,409,681,533,438"
                            },
                            {
                                "name": "tick",
                                "type": "int24",
                                "value": "-276,325"
                            }
                        ],
                        "signature": "Swap(address,address,int256,int256,uint160,uint128,int24)"
                    },
                    "id": 13,
                    "logData": "0xffffffffffffffffffffffffffffffffffffffffffffff5d61720f9176f5733900000000000000000000000000000000000000000000000000000000b2d05e000000000000000000000000000000000000000000000010c6e5be70a922198b0800000000000000000000000000000000000000000000f45069e987c402bc79fefffffffffffffffffffffffffffffffffffffffffffffffffffffffffffbc89b",
                    "logDecoded": true,
                    "operation": "EVENT",
                    "revert": false,
                    "status": true,
                    "topics": [
                        "0xc42079f94a6350d7e6235f29174924f928cc2ac818eb64fed8004e115fbcca67",
                        "0x000000000000000000000000ef1c6e67703c7bd7107eed8303fbe6ec2554bf6b",
                        "0x000000000000000000000000e532b04d2f2e921dfec69e132e9214d2f82df304"
                    ]
                },
                "nodeType": 1
            },
            "14": {
                "invocation": {
                    "address": "0x6b175474e89094c44da98b954eedeac495271d0f",
                    "callData": "0x000000000000000000000000ef1c6e67703c7bd7107eed8303fbe6ec2554bf6b",
                    "decodedMethod": {
                        "callParams": [
                            {
                                "name": "",
                                "type": "address",
                                "value": "0xef1c6e67703c7bd7107eed8303fbe6ec2554bf6b"
                            }
                        ],
                        "constructorArguments": "",
                        "name": "balanceOf",
                        "returnParams": [
                            {
                                "decimalAvailable": true,
                                "name": "",
                                "type": "uint256",
                                "value": "0"
                            }
                        ],
                        "signature": "balanceOf(address)"
                    },
                    "errorInfo": "",
                    "fromAddress": "0xef1c6e67703c7bd7107eed8303fbe6ec2554bf6b",
                    "gasUsed": 2602,
                    "id": 14,
                    "methodDecoded": true,
                    "operation": "STATICCALL",
                    "output": "0x0000000000000000000000000000000000000000000000000000000000000000",
                    "revert": false,
                    "revertMessage": "",
                    "selector": "0x70a08231",
                    "status": true,
                    "value": "0"
                },
                "nodeType": 0
            },
            "15": {
                "invocation": {
                    "address": "0x6b175474e89094c44da98b954eedeac495271d0f",
                    "callData": "0x000000000000000000000000e532b04d2f2e921dfec69e132e9214d2f82df3040000000000000000000000000000000000000000000000000000000000000000",
                    "decodedMethod": {
                        "callParams": [
                            {
                                "name": "dst",
                                "type": "address",
                                "value": "0xe532b04d2f2e921dfec69e132e9214d2f82df304"
                            },
                            {
                                "decimalAvailable": true,
                                "name": "wad",
                                "type": "uint256",
                                "value": "0"
                            }
                        ],
                        "constructorArguments": "",
                        "name": "transfer",
                        "returnParams": [
                            {
                                "name": "",
                                "type": "bool",
                                "value": true
                            }
                        ],
                        "signature": "transfer(address,uint256)"
                    },
                    "errorInfo": "",
                    "fromAddress": "0xef1c6e67703c7bd7107eed8303fbe6ec2554bf6b",
                    "gasUsed": 3474,
                    "id": 15,
                    "methodDecoded": true,
                    "operation": "CALL",
                    "output": "0x0000000000000000000000000000000000000000000000000000000000000001",
                    "revert": false,
                    "revertMessage": "",
                    "selector": "0xa9059cbb",
                    "status": true,
                    "value": "0"
                },
                "nodeType": 0
            },
            "16": {
                "event": {
                    "contract": "0x6b175474e89094c44da98b954eedeac495271d0f",
                    "decodedLog": {
                        "name": "Transfer",
                        "params": [
                            {
                                "name": "src",
                                "type": "address",
                                "value": "0xef1c6e67703c7bd7107eed8303fbe6ec2554bf6b"
                            },
                            {
                                "name": "dst",
                                "type": "address",
                                "value": "0xe532b04d2f2e921dfec69e132e9214d2f82df304"
                            },
                            {
                                "decimalAvailable": true,
                                "name": "wad",
                                "type": "uint256",
                                "value": "0"
                            }
                        ],
                        "signature": "Transfer(address,address,uint256)"
                    },
                    "id": 16,
                    "logData": "0x0000000000000000000000000000000000000000000000000000000000000000",
                    "logDecoded": true,
                    "operation": "EVENT",
                    "revert": false,
                    "status": true,
                    "topics": [
                        "0xddf252ad1be2c89b69c2b068fc378daa952ba7f163c4a11628f55a4df523b3ef",
                        "0x000000000000000000000000ef1c6e67703c7bd7107eed8303fbe6ec2554bf6b",
                        "0x000000000000000000000000e532b04d2f2e921dfec69e132e9214d2f82df304"
                    ]
                },
                "nodeType": 1
            },
            "17": {
                "invocation": {
                    "address": "0x4f08705fb8f33affc231ed66e626b40e84a71870",
                    "callData": "0x00000000000000000000000068522b48659905bcaf967549cd881099a6caa67b",
                    "decodedMethod": {
                        "callParams": [
                            {
                                "name": "account",
                                "type": "address",
                                "value": "0x68522b48659905bcaf967549cd881099a6caa67b"
                            }
                        ],
                        "constructorArguments": "",
                        "name": "balanceOf",
                        "returnParams": [
                            {
                                "decimalAvailable": true,
                                "name": "",
                                "type": "uint256",
                                "value": "1,355,268,590,266,743,478"
                            }
                        ],
                        "signature": "balanceOf(address)"
                    },
                    "errorInfo": "",
                    "fromAddress": "0xef1c6e67703c7bd7107eed8303fbe6ec2554bf6b",
                    "gasUsed": 2930,
                    "id": 17,
                    "methodDecoded": true,
                    "operation": "STATICCALL",
                    "output": "0x00000000000000000000000000000000000000000000000012cee19a3217fab6",
                    "revert": false,
                    "revertMessage": "",
                    "selector": "0x70a08231",
                    "status": true,
                    "value": "0"
                },
                "nodeType": 0
            },
            "18": {
                "invocation": {
                    "address": "0xe532b04d2f2e921dfec69e132e9214d2f82df304",
                    "callData": "0x",
                    "decodedMethod": {
                        "callParams": [],
                        "constructorArguments": "",
                        "name": "getReserves",
                        "returnParams": [
                            {
                                "name": "_reserve0",
                                "type": "uint112",
                                "value": "248,433,973,403,078,707,178"
                            },
                            {
                                "name": "_reserve1",
                                "type": "uint112",
                                "value": "2,249,563,091,212,183,898,843,842"
                            },
                            {
                                "name": "_blockTimestampLast",
                                "type": "uint32",
                                "value": "1,677,222,827"
                            }
                        ],
                        "signature": "getReserves()"
                    },
                    "errorInfo": "",
                    "fromAddress": "0xef1c6e67703c7bd7107eed8303fbe6ec2554bf6b",
                    "gasUsed": 2504,
                    "id": 18,
                    "methodDecoded": true,
                    "operation": "STATICCALL",
                    "output": "0x00000000000000000000000000000000000000000000000d77b6c68ced5947ea00000000000000000000000000000000000000000001dc5d0f3d796969066ac20000000000000000000000000000000000000000000000000000000063f863ab",
                    "revert": false,
                    "revertMessage": "",
                    "selector": "0x0902f1ac",
                    "status": true,
                    "value": "0"
                },
                "nodeType": 0
            },
            "19": {
                "invocation": {
                    "address": "0x6b175474e89094c44da98b954eedeac495271d0f",
                    "callData": "0x000000000000000000000000e532b04d2f2e921dfec69e132e9214d2f82df304",
                    "decodedMethod": {
                        "callParams": [
                            {
                                "name": "",
                                "type": "address",
                                "value": "0xe532b04d2f2e921dfec69e132e9214d2f82df304"
                            }
                        ],
                        "constructorArguments": "",
                        "name": "balanceOf",
                        "returnParams": [
                            {
                                "decimalAvailable": true,
                                "name": "",
                                "type": "uint256",
                                "value": "2,252,562,888,804,312,091,260,809"
                            }
                        ],
                        "signature": "balanceOf(address)"
                    },
                    "errorInfo": "",
                    "fromAddress": "0xef1c6e67703c7bd7107eed8303fbe6ec2554bf6b",
                    "gasUsed": 602,
                    "id": 19,
                    "methodDecoded": true,
                    "operation": "STATICCALL",
                    "output": "0x00000000000000000000000000000000000000000001dcffadcb69d7f210f789",
                    "revert": false,
                    "revertMessage": "",
                    "selector": "0x70a08231",
                    "status": true,
                    "value": "0"
                },
                "nodeType": 0
            },
            "2": {
                "invocation": {
                    "address": "0x6b175474e89094c44da98b954eedeac495271d0f",
                    "callData": "0x000000000000000000000000e532b04d2f2e921dfec69e132e9214d2f82df3040000000000000000000000000000000000000000000000a29e8df06e890a8cc7",
                    "decodedMethod": {
                        "callParams": [
                            {
                                "name": "dst",
                                "type": "address",
                                "value": "0xe532b04d2f2e921dfec69e132e9214d2f82df304"
                            },
                            {
                                "decimalAvailable": true,
                                "name": "wad",
                                "type": "uint256",
                                "value": "2,999,797,592,128,192,416,967"
                            }
                        ],
                        "constructorArguments": "",
                        "name": "transfer",
                        "returnParams": [
                            {
                                "name": "",
                                "type": "bool",
                                "value": true
                            }
                        ],
                        "signature": "transfer(address,uint256)"
                    },
                    "errorInfo": "",
                    "fromAddress": "0x5777d92f208679db4b9778590fa3cab3ac9e2168",
                    "gasUsed": 13074,
                    "id": 2,
                    "methodDecoded": true,
                    "operation": "CALL",
                    "output": "0x0000000000000000000000000000000000000000000000000000000000000001",
                    "revert": false,
                    "revertMessage": "",
                    "selector": "0xa9059cbb",
                    "status": true,
                    "value": "0"
                },
                "nodeType": 0
            },
            "20": {
                "invocation": {
                    "address": "0xe532b04d2f2e921dfec69e132e9214d2f82df304",
                    "callData": "0x0000000000000000000000000000000000000000000000000493e142b91e860e000000000000000000000000000000000000000000000000000000000000000000000000000000000000000068522b48659905bcaf967549cd881099a6caa67b00000000000000000000000000000000000000000000000000000000000000800000000000000000000000000000000000000000000000000000000000000000",
                    "decodedMethod": {
                        "callParams": [
                            {
                                "name": "amount0Out",
                                "type": "uint256",
                                "value": "329,854,874,418,054,670"
                            },
                            {
                                "name": "amount1Out",
                                "type": "uint256",
                                "value": "0"
                            },
                            {
                                "name": "to",
                                "type": "address",
                                "value": "0x68522b48659905bcaf967549cd881099a6caa67b"
                            },
                            {
                                "name": "data",
                                "type": "bytes",
                                "value": "0x"
                            }
                        ],
                        "constructorArguments": "",
                        "name": "swap",
                        "returnParams": [],
                        "signature": "swap(uint256,uint256,address,bytes)"
                    },
                    "errorInfo": "",
                    "fromAddress": "0xef1c6e67703c7bd7107eed8303fbe6ec2554bf6b",
                    "gasUsed": 44667,
                    "id": 20,
                    "methodDecoded": true,
                    "operation": "CALL",
                    "output": "",
                    "revert": false,
                    "revertMessage": "",
                    "selector": "0x022c0d9f",
                    "status": true,
                    "value": "0"
                },
                "nodeType": 0
            },
            "21": {
                "invocation": {
                    "address": "0x4f08705fb8f33affc231ed66e626b40e84a71870",
                    "callData": "0x00000000000000000000000068522b48659905bcaf967549cd881099a6caa67b0000000000000000000000000000000000000000000000000493e142b91e860e",
                    "decodedMethod": {
                        "callParams": [
                            {
                                "name": "recipient",
                                "type": "address",
                                "value": "0x68522b48659905bcaf967549cd881099a6caa67b"
                            },
                            {
                                "decimalAvailable": true,
                                "name": "amount",
                                "type": "uint256",
                                "value": "329,854,874,418,054,670"
                            }
                        ],
                        "constructorArguments": "",
                        "name": "transfer",
                        "returnParams": [
                            {
                                "name": "",
                                "type": "bool",
                                "value": true
                            }
                        ],
                        "signature": "transfer(address,uint256)"
                    },
                    "errorInfo": "",
                    "fromAddress": "0xe532b04d2f2e921dfec69e132e9214d2f82df304",
                    "gasUsed": 11812,
                    "id": 21,
                    "methodDecoded": true,
                    "operation": "CALL",
                    "output": "0x0000000000000000000000000000000000000000000000000000000000000001",
                    "revert": false,
                    "revertMessage": "",
                    "selector": "0xa9059cbb",
                    "status": true,
                    "value": "0"
                },
                "nodeType": 0
            },
            "22": {
                "event": {
                    "contract": "0x4f08705fb8f33affc231ed66e626b40e84a71870",
                    "decodedLog": {
                        "name": "Transfer",
                        "params": [
                            {
                                "name": "from",
                                "type": "address",
                                "value": "0xe532b04d2f2e921dfec69e132e9214d2f82df304"
                            },
                            {
                                "name": "to",
                                "type": "address",
                                "value": "0x68522b48659905bcaf967549cd881099a6caa67b"
                            },
                            {
                                "decimalAvailable": true,
                                "name": "value",
                                "type": "uint256",
                                "value": "329,854,874,418,054,670"
                            }
                        ],
                        "signature": "Transfer(address,address,uint256)"
                    },
                    "id": 22,
                    "logData": "0x0000000000000000000000000000000000000000000000000493e142b91e860e",
                    "logDecoded": true,
                    "operation": "EVENT",
                    "revert": false,
                    "status": true,
                    "topics": [
                        "0xddf252ad1be2c89b69c2b068fc378daa952ba7f163c4a11628f55a4df523b3ef",
                        "0x000000000000000000000000e532b04d2f2e921dfec69e132e9214d2f82df304",
                        "0x00000000000000000000000068522b48659905bcaf967549cd881099a6caa67b"
                    ]
                },
                "nodeType": 1
            },
            "23": {
                "invocation": {
                    "address": "0x4f08705fb8f33affc231ed66e626b40e84a71870",
                    "callData": "0x000000000000000000000000e532b04d2f2e921dfec69e132e9214d2f82df304",
                    "decodedMethod": {
                        "callParams": [
                            {
                                "name": "account",
                                "type": "address",
                                "value": "0xe532b04d2f2e921dfec69e132e9214d2f82df304"
                            }
                        ],
                        "constructorArguments": "",
                        "name": "balanceOf",
                        "returnParams": [
                            {
                                "decimalAvailable": true,
                                "name": "",
                                "type": "uint256",
                                "value": "248,104,118,528,660,652,508"
                            }
                        ],
                        "signature": "balanceOf(address)"
                    },
                    "errorInfo": "",
                    "fromAddress": "0xe532b04d2f2e921dfec69e132e9214d2f82df304",
                    "gasUsed": 930,
                    "id": 23,
                    "methodDecoded": true,
                    "operation": "STATICCALL",
                    "output": "0x00000000000000000000000000000000000000000000000d7322e54a343ac1dc",
                    "revert": false,
                    "revertMessage": "",
                    "selector": "0x70a08231",
                    "status": true,
                    "value": "0"
                },
                "nodeType": 0
            },
            "24": {
                "invocation": {
                    "address": "0x6b175474e89094c44da98b954eedeac495271d0f",
                    "callData": "0x000000000000000000000000e532b04d2f2e921dfec69e132e9214d2f82df304",
                    "decodedMethod": {
                        "callParams": [
                            {
                                "name": "",
                                "type": "address",
                                "value": "0xe532b04d2f2e921dfec69e132e9214d2f82df304"
                            }
                        ],
                        "constructorArguments": "",
                        "name": "balanceOf",
                        "returnParams": [
                            {
                                "decimalAvailable": true,
                                "name": "",
                                "type": "uint256",
                                "value": "2,252,562,888,804,312,091,260,809"
                            }
                        ],
                        "signature": "balanceOf(address)"
                    },
                    "errorInfo": "",
                    "fromAddress": "0xe532b04d2f2e921dfec69e132e9214d2f82df304",
                    "gasUsed": 602,
                    "id": 24,
                    "methodDecoded": true,
                    "operation": "STATICCALL",
                    "output": "0x00000000000000000000000000000000000000000001dcffadcb69d7f210f789",
                    "revert": false,
                    "revertMessage": "",
                    "selector": "0x70a08231",
                    "status": true,
                    "value": "0"
                },
                "nodeType": 0
            },
            "25": {
                "event": {
                    "contract": "0xe532b04d2f2e921dfec69e132e9214d2f82df304",
                    "decodedLog": {
                        "name": "Sync",
                        "params": [
                            {
                                "name": "reserve0",
                                "type": "uint112",
                                "value": "248,104,118,528,660,652,508"
                            },
                            {
                                "name": "reserve1",
                                "type": "uint112",
                                "value": "2,252,562,888,804,312,091,260,809"
                            }
                        ],
                        "signature": "Sync(uint112,uint112)"
                    },
                    "id": 25,
                    "logData": "0x00000000000000000000000000000000000000000000000d7322e54a343ac1dc00000000000000000000000000000000000000000001dcffadcb69d7f210f789",
                    "logDecoded": true,
                    "operation": "EVENT",
                    "revert": false,
                    "status": true,
                    "topics": [
                        "0x1c411e9a96e071241c2f21f7726b17ae89e3cab4c78be50e062b03a9fffbbad1"
                    ]
                },
                "nodeType": 1
            },
            "26": {
                "event": {
                    "contract": "0xe532b04d2f2e921dfec69e132e9214d2f82df304",
                    "decodedLog": {
                        "name": "Swap",
                        "params": [
                            {
                                "name": "sender",
                                "type": "address",
                                "value": "0xef1c6e67703c7bd7107eed8303fbe6ec2554bf6b"
                            },
                            {
                                "name": "to",
                                "type": "address",
                                "value": "0x68522b48659905bcaf967549cd881099a6caa67b"
                            },
                            {
                                "name": "amount0In",
                                "type": "uint256",
                                "value": "0"
                            },
                            {
                                "name": "amount1In",
                                "type": "uint256",
                                "value": "2,999,797,592,128,192,416,967"
                            },
                            {
                                "name": "amount0Out",
                                "type": "uint256",
                                "value": "329,854,874,418,054,670"
                            },
                            {
                                "name": "amount1Out",
                                "type": "uint256",
                                "value": "0"
                            }
                        ],
                        "signature": "Swap(address,uint256,uint256,uint256,uint256,address)"
                    },
                    "id": 26,
                    "logData": "0x00000000000000000000000000000000000000000000000000000000000000000000000000000000000000000000000000000000000000a29e8df06e890a8cc70000000000000000000000000000000000000000000000000493e142b91e860e0000000000000000000000000000000000000000000000000000000000000000",
                    "logDecoded": true,
                    "operation": "EVENT",
                    "revert": false,
                    "status": true,
                    "topics": [
                        "0xd78ad95fa46c994b6551d0da85fc275fe613ce37657fb8d5e3d130840159d822",
                        "0x000000000000000000000000ef1c6e67703c7bd7107eed8303fbe6ec2554bf6b",
                        "0x00000000000000000000000068522b48659905bcaf967549cd881099a6caa67b"
                    ]
                },
                "nodeType": 1
            },
            "27": {
                "invocation": {
                    "address": "0x4f08705fb8f33affc231ed66e626b40e84a71870",
                    "callData": "0x00000000000000000000000068522b48659905bcaf967549cd881099a6caa67b",
                    "decodedMethod": {
                        "callParams": [
                            {
                                "name": "account",
                                "type": "address",
                                "value": "0x68522b48659905bcaf967549cd881099a6caa67b"
                            }
                        ],
                        "constructorArguments": "",
                        "name": "balanceOf",
                        "returnParams": [
                            {
                                "decimalAvailable": true,
                                "name": "",
                                "type": "uint256",
                                "value": "1,685,123,464,684,798,148"
                            }
                        ],
                        "signature": "balanceOf(address)"
                    },
                    "errorInfo": "",
                    "fromAddress": "0xef1c6e67703c7bd7107eed8303fbe6ec2554bf6b",
                    "gasUsed": 930,
                    "id": 27,
                    "methodDecoded": true,
                    "operation": "STATICCALL",
                    "output": "0x0000000000000000000000000000000000000000000000001762c2dceb3680c4",
                    "revert": false,
                    "revertMessage": "",
                    "selector": "0x70a08231",
                    "status": true,
                    "value": "0"
                },
                "nodeType": 0
            },
            "3": {
                "event": {
                    "contract": "0x6b175474e89094c44da98b954eedeac495271d0f",
                    "decodedLog": {
                        "name": "Transfer",
                        "params": [
                            {
                                "name": "src",
                                "type": "address",
                                "value": "0x5777d92f208679db4b9778590fa3cab3ac9e2168"
                            },
                            {
                                "name": "dst",
                                "type": "address",
                                "value": "0xe532b04d2f2e921dfec69e132e9214d2f82df304"
                            },
                            {
                                "decimalAvailable": true,
                                "name": "wad",
                                "type": "uint256",
                                "value": "2,999,797,592,128,192,416,967"
                            }
                        ],
                        "signature": "Transfer(address,address,uint256)"
                    },
                    "id": 3,
                    "logData": "0x0000000000000000000000000000000000000000000000a29e8df06e890a8cc7",
                    "logDecoded": true,
                    "operation": "EVENT",
                    "revert": false,
                    "status": true,
                    "topics": [
                        "0xddf252ad1be2c89b69c2b068fc378daa952ba7f163c4a11628f55a4df523b3ef",
                        "0x0000000000000000000000005777d92f208679db4b9778590fa3cab3ac9e2168",
                        "0x000000000000000000000000e532b04d2f2e921dfec69e132e9214d2f82df304"
                    ]
                },
                "nodeType": 1
            },
            "4": {
                "invocation": {
                    "address": "0xa0b86991c6218b36c1d19d4a2e9eb0ce3606eb48",
                    "callData": "0x0000000000000000000000005777d92f208679db4b9778590fa3cab3ac9e2168",
                    "decodedMethod": {
                        "callParams": [
                            {
                                "name": "account",
                                "type": "address",
                                "value": "0x5777d92f208679db4b9778590fa3cab3ac9e2168"
                            }
                        ],
                        "constructorArguments": "",
                        "name": "balanceOf",
                        "returnParams": [
                            {
                                "decimalAvailable": true,
                                "name": "",
                                "type": "uint256",
                                "value": "95,825,801,964,995"
                            }
                        ],
                        "signature": "balanceOf(address)"
                    },
                    "errorInfo": "",
                    "fromAddress": "0x5777d92f208679db4b9778590fa3cab3ac9e2168",
                    "gasUsed": 9815,
                    "id": 4,
                    "methodDecoded": true,
                    "operation": "STATICCALL",
                    "output": "0x000000000000000000000000000000000000000000000000000057272ee2edc3",
                    "revert": false,
                    "revertMessage": "",
                    "selector": "0x70a08231",
                    "status": true,
                    "value": "0"
                },
                "nodeType": 0
            },
            "5": {
                "invocation": {
                    "address": "0xa2327a938febf5fec13bacfb16ae10ecbc4cbdcf",
                    "callData": "0x0000000000000000000000005777d92f208679db4b9778590fa3cab3ac9e2168",
                    "decodedMethod": {
                        "callParams": [
                            {
                                "name": "account",
                                "type": "address",
                                "value": "0x5777d92f208679db4b9778590fa3cab3ac9e2168"
                            }
                        ],
                        "constructorArguments": "",
                        "name": "balanceOf",
                        "returnParams": [
                            {
                                "decimalAvailable": true,
                                "name": "",
                                "type": "uint256",
                                "value": "95,825,801,964,995"
                            }
                        ],
                        "signature": "balanceOf(address)"
                    },
                    "errorInfo": "",
                    "fromAddress": "0xa0b86991c6218b36c1d19d4a2e9eb0ce3606eb48",
                    "gasUsed": 2529,
                    "id": 5,
                    "methodDecoded": true,
                    "operation": "DELEGATECALL",
                    "output": "0x000000000000000000000000000000000000000000000000000057272ee2edc3",
                    "revert": false,
                    "revertMessage": "",
                    "selector": "0x70a08231",
                    "status": true,
                    "value": "0"
                },
                "nodeType": 0
            },
            "6": {
                "invocation": {
                    "address": "0xef1c6e67703c7bd7107eed8303fbe6ec2554bf6b",
                    "callData": "0xffffffffffffffffffffffffffffffffffffffffffffff5d61720f9176f5733900000000000000000000000000000000000000000000000000000000b2d05e00000000000000000000000000000000000000000000000000000000000000006000000000000000000000000000000000000000000000000000000000000000a0000000000000000000000000000000000000000000000000000000000000004000000000000000000000000068522b48659905bcaf967549cd881099a6caa67b000000000000000000000000000000000000000000000000000000000000002ba0b86991c6218b36c1d19d4a2e9eb0ce3606eb480000646b175474e89094c44da98b954eedeac495271d0f000000000000000000000000000000000000000000",
                    "decodedMethod": {
                        "callParams": [
                            {
                                "name": "amount0Delta",
                                "type": "int256",
                                "value": "-2,999,797,592,128,192,416,967"
                            },
                            {
                                "name": "amount1Delta",
                                "type": "int256",
                                "value": "3,000,000,000"
                            },
                            {
                                "name": "data",
                                "type": "bytes",
                                "value": "0x000000000000000000000000000000000000000000000000000000000000004000000000000000000000000068522b48659905bcaf967549cd881099a6caa67b000000000000000000000000000000000000000000000000000000000000002ba0b86991c6218b36c1d19d4a2e9eb0ce3606eb480000646b175474e89094c44da98b954eedeac495271d0f000000000000000000000000000000000000000000"
                            }
                        ],
                        "constructorArguments": "",
                        "name": "uniswapV3SwapCallback",
                        "returnParams": [],
                        "signature": "uniswapV3SwapCallback(int256,int256,bytes)"
                    },
                    "errorInfo": "",
                    "fromAddress": "0x5777d92f208679db4b9778590fa3cab3ac9e2168",
                    "gasUsed": 34672,
                    "id": 6,
                    "methodDecoded": true,
                    "operation": "CALL",
                    "output": "",
                    "revert": false,
                    "revertMessage": "",
                    "selector": "0xfa461e33",
                    "status": true,
                    "value": "0"
                },
                "nodeType": 0
            },
            "7": {
                "invocation": {
                    "address": "0x000000000022d473030f116ddee9f6b43ac78ba3",
                    "callData": "0x00000000000000000000000068522b48659905bcaf967549cd881099a6caa67b0000000000000000000000005777d92f208679db4b9778590fa3cab3ac9e216800000000000000000000000000000000000000000000000000000000b2d05e00000000000000000000000000a0b86991c6218b36c1d19d4a2e9eb0ce3606eb48",
                    "decodedMethod": {
                        "callParams": [
                            {
                                "name": "from",
                                "type": "address",
                                "value": "0x68522b48659905bcaf967549cd881099a6caa67b"
                            },
                            {
                                "name": "to",
                                "type": "address",
                                "value": "0x5777d92f208679db4b9778590fa3cab3ac9e2168"
                            },
                            {
                                "name": "amount",
                                "type": "uint160",
                                "value": "3,000,000,000"
                            },
                            {
                                "name": "token",
                                "type": "address",
                                "value": "0xa0b86991c6218b36c1d19d4a2e9eb0ce3606eb48"
                            }
                        ],
                        "constructorArguments": "",
                        "name": "transferFrom",
                        "returnParams": [],
                        "signature": "transferFrom(address,address,uint160,address)"
                    },
                    "errorInfo": "",
                    "fromAddress": "0xef1c6e67703c7bd7107eed8303fbe6ec2554bf6b",
                    "gasUsed": 29599,
                    "id": 7,
                    "methodDecoded": true,
                    "operation": "CALL",
                    "output": "",
                    "revert": false,
                    "revertMessage": "",
                    "selector": "0x36c78516",
                    "status": true,
                    "value": "0"
                },
                "nodeType": 0
            },
            "8": {
                "invocation": {
                    "address": "0xa0b86991c6218b36c1d19d4a2e9eb0ce3606eb48",
                    "callData": "0x00000000000000000000000068522b48659905bcaf967549cd881099a6caa67b0000000000000000000000005777d92f208679db4b9778590fa3cab3ac9e216800000000000000000000000000000000000000000000000000000000b2d05e00",
                    "decodedMethod": {
                        "callParams": [
                            {
                                "name": "from",
                                "type": "address",
                                "value": "0x68522b48659905bcaf967549cd881099a6caa67b"
                            },
                            {
                                "name": "to",
                                "type": "address",
                                "value": "0x5777d92f208679db4b9778590fa3cab3ac9e2168"
                            },
                            {
                                "decimalAvailable": true,
                                "name": "value",
                                "type": "uint256",
                                "value": "3,000,000,000"
                            }
                        ],
                        "constructorArguments": "",
                        "name": "transferFrom",
                        "returnParams": [
                            {
                                "name": "",
                                "type": "bool",
                                "value": true
                            }
                        ],
                        "signature": "transferFrom(address,address,uint256)"
                    },
                    "errorInfo": "",
                    "fromAddress": "0x000000000022d473030f116ddee9f6b43ac78ba3",
                    "gasUsed": 26392,
                    "id": 8,
                    "methodDecoded": true,
                    "operation": "CALL",
                    "output": "0x0000000000000000000000000000000000000000000000000000000000000001",
                    "revert": false,
                    "revertMessage": "",
                    "selector": "0x23b872dd",
                    "status": true,
                    "value": "0"
                },
                "nodeType": 0
            },
            "9": {
                "invocation": {
                    "address": "0xa2327a938febf5fec13bacfb16ae10ecbc4cbdcf",
                    "callData": "0x00000000000000000000000068522b48659905bcaf967549cd881099a6caa67b0000000000000000000000005777d92f208679db4b9778590fa3cab3ac9e216800000000000000000000000000000000000000000000000000000000b2d05e00",
                    "decodedMethod": {
                        "callParams": [
                            {
                                "name": "from",
                                "type": "address",
                                "value": "0x68522b48659905bcaf967549cd881099a6caa67b"
                            },
                            {
                                "name": "to",
                                "type": "address",
                                "value": "0x5777d92f208679db4b9778590fa3cab3ac9e2168"
                            },
                            {
                                "decimalAvailable": true,
                                "name": "value",
                                "type": "uint256",
                                "value": "3,000,000,000"
                            }
                        ],
                        "constructorArguments": "",
                        "name": "transferFrom",
                        "returnParams": [
                            {
                                "name": "",
                                "type": "bool",
                                "value": true
                            }
                        ],
                        "signature": "transferFrom(address,address,uint256)"
                    },
                    "errorInfo": "",
                    "fromAddress": "0xa0b86991c6218b36c1d19d4a2e9eb0ce3606eb48",
                    "gasUsed": 25597,
                    "id": 9,
                    "methodDecoded": true,
                    "operation": "DELEGATECALL",
                    "output": "0x0000000000000000000000000000000000000000000000000000000000000001",
                    "revert": false,
                    "revertMessage": "",
                    "selector": "0x23b872dd",
                    "status": true,
                    "value": "0"
                },
                "nodeType": 0
            }
        },
        "gasFlame": [
            {
                "children": [
                    {
                        "children": [
                            {
                                "children": [],
                                "depth": 0,
                                "name": "Initial Gas",
                                "value": 25988
                            },
                            {
                                "children": [
                                    {
                                        "children": [
                                            {
                                                "children": [],
                                                "depth": 2,
                                                "name": "transfer",
                                                "value": 13074
                                            },
                                            {
                                                "children": [
                                                    {
                                                        "children": [],
                                                        "depth": 3,
                                                        "name": "balanceOf",
                                                        "value": 2529
                                                    }
                                                ],
                                                "depth": 2,
                                                "name": "balanceOf",
                                                "value": 9815
                                            },
                                            {
                                                "children": [
                                                    {
                                                        "children": [
                                                            {
                                                                "children": [
                                                                    {
                                                                        "children": [],
                                                                        "depth": 5,
                                                                        "name": "transferFrom",
                                                                        "value": 25597
                                                                    }
                                                                ],
                                                                "depth": 4,
                                                                "name": "transferFrom",
                                                                "value": 26392
                                                            }
                                                        ],
                                                        "depth": 3,
                                                        "name": "transferFrom",
                                                        "value": 29599
                                                    }
                                                ],
                                                "depth": 2,
                                                "name": "uniswapV3SwapCallback",
                                                "value": 34672
                                            },
                                            {
                                                "children": [
                                                    {
                                                        "children": [],
                                                        "depth": 3,
                                                        "name": "balanceOf",
                                                        "value": 529
                                                    }
                                                ],
                                                "depth": 2,
                                                "name": "balanceOf",
                                                "value": 1315
                                            }
                                        ],
                                        "depth": 1,
                                        "name": "swap",
                                        "value": 95933
                                    },
                                    {
                                        "children": [],
                                        "depth": 1,
                                        "name": "balanceOf",
                                        "value": 2602
                                    },
                                    {
                                        "children": [],
                                        "depth": 1,
                                        "name": "transfer",
                                        "value": 3474
                                    },
                                    {
                                        "children": [],
                                        "depth": 1,
                                        "name": "balanceOf",
                                        "value": 2930
                                    },
                                    {
                                        "children": [],
                                        "depth": 1,
                                        "name": "getReserves",
                                        "value": 2504
                                    },
                                    {
                                        "children": [],
                                        "depth": 1,
                                        "name": "balanceOf",
                                        "value": 602
                                    },
                                    {
                                        "children": [
                                            {
                                                "children": [],
                                                "depth": 2,
                                                "name": "transfer",
                                                "value": 11812
                                            },
                                            {
                                                "children": [],
                                                "depth": 2,
                                                "name": "balanceOf",
                                                "value": 930
                                            },
                                            {
                                                "children": [],
                                                "depth": 2,
                                                "name": "balanceOf",
                                                "value": 602
                                            }
                                        ],
                                        "depth": 1,
                                        "name": "swap",
                                        "value": 44667
                                    },
                                    {
                                        "children": [],
                                        "depth": 1,
                                        "name": "balanceOf",
                                        "value": 930
                                    }
                                ],
                                "depth": 0,
                                "name": "Executed Gas",
                                "value": 179628
                            }
                        ],
                        "depth": -1,
                        "name": "Actual Gas Used",
                        "value": 200016
                    },
                    {
                        "children": [],
                        "depth": -1,
                        "name": "Refunded Gas",
                        "value": 5600
                    }
                ],
                "depth": -2,
                "name": "Total Gas",
                "value": 205616
            }
        ],
        "isConfirmed": true,
        "mainTrace": [
            {
                "children": [
                    {
                        "children": [
                            {
                                "children": [
                                    {
                                        "children": [
                                            {
                                                "children": [],
                                                "depth": 3,
                                                "id": 3,
                                                "order": 3
                                            }
                                        ],
                                        "depth": 2,
                                        "id": 2,
                                        "order": 2
                                    },
                                    {
                                        "children": [
                                            {
                                                "children": [],
                                                "depth": 3,
                                                "id": 5,
                                                "order": 5
                                            }
                                        ],
                                        "depth": 2,
                                        "id": 4,
                                        "order": 4
                                    },
                                    {
                                        "children": [
                                            {
                                                "children": [
                                                    {
                                                        "children": [
                                                            {
                                                                "children": [
                                                                    {
                                                                        "children": [],
                                                                        "depth": 6,
                                                                        "id": 10,
                                                                        "order": 10
                                                                    }
                                                                ],
                                                                "depth": 5,
                                                                "id": 9,
                                                                "order": 9
                                                            }
                                                        ],
                                                        "depth": 4,
                                                        "id": 8,
                                                        "order": 8
                                                    }
                                                ],
                                                "depth": 3,
                                                "id": 7,
                                                "order": 7
                                            }
                                        ],
                                        "depth": 2,
                                        "id": 6,
                                        "order": 6
                                    },
                                    {
                                        "children": [
                                            {
                                                "children": [],
                                                "depth": 3,
                                                "id": 12,
                                                "order": 12
                                            }
                                        ],
                                        "depth": 2,
                                        "id": 11,
                                        "order": 11
                                    },
                                    {
                                        "children": [],
                                        "depth": 2,
                                        "id": 13,
                                        "order": 13
                                    }
                                ],
                                "depth": 1,
                                "id": 1,
                                "order": 1
                            },
                            {
                                "children": [],
                                "depth": 1,
                                "id": 14,
                                "order": 14
                            },
                            {
                                "children": [
                                    {
                                        "children": [],
                                        "depth": 2,
                                        "id": 16,
                                        "order": 16
                                    }
                                ],
                                "depth": 1,
                                "id": 15,
                                "order": 15
                            },
                            {
                                "children": [],
                                "depth": 1,
                                "id": 17,
                                "order": 17
                            },
                            {
                                "children": [],
                                "depth": 1,
                                "id": 18,
                                "order": 18
                            },
                            {
                                "children": [],
                                "depth": 1,
                                "id": 19,
                                "order": 19
                            },
                            {
                                "children": [
                                    {
                                        "children": [
                                            {
                                                "children": [],
                                                "depth": 3,
                                                "id": 22,
                                                "order": 22
                                            }
                                        ],
                                        "depth": 2,
                                        "id": 21,
                                        "order": 21
                                    },
                                    {
                                        "children": [],
                                        "depth": 2,
                                        "id": 23,
                                        "order": 23
                                    },
                                    {
                                        "children": [],
                                        "depth": 2,
                                        "id": 24,
                                        "order": 24
                                    },
                                    {
                                        "children": [],
                                        "depth": 2,
                                        "id": 25,
                                        "order": 25
                                    },
                                    {
                                        "children": [],
                                        "depth": 2,
                                        "id": 26,
                                        "order": 26
                                    }
                                ],
                                "depth": 1,
                                "id": 20,
                                "order": 20
                            },
                            {
                                "children": [],
                                "depth": 1,
                                "id": 27,
                                "order": 27
                            }
                        ],
                        "depth": 0,
                        "id": 0,
                        "order": 0
                    }
                ],
                "depth": -1,
                "id": -1,
                "order": -1
            }
        ],
        "mainTraceNodeCount": 28,
        "parentIdMap": {
            "0": -1,
            "1": 0,
            "10": 9,
            "11": 1,
            "12": 11,
            "13": 1,
            "14": 0,
            "15": 0,
            "16": 15,
            "17": 0,
            "18": 0,
            "19": 0,
            "2": 1,
            "20": 0,
            "21": 20,
            "22": 21,
            "23": 20,
            "24": 20,
            "25": 20,
            "26": 20,
            "27": 0,
            "3": 2,
            "4": 1,
            "5": 4,
            "6": 1,
            "7": 6,
            "8": 7,
            "9": 8
        },
        "tidyTrace": [
            {
                "children": [
                    {
                        "children": [
                            {
                                "children": [
                                    {
                                        "children": [
                                            {
                                                "children": [],
                                                "depth": 3,
                                                "id": 3,
                                                "order": 3
                                            }
                                        ],
                                        "depth": 2,
                                        "id": 2,
                                        "order": 2
                                    },
                                    {
                                        "children": [
                                            {
                                                "children": [
                                                    {
                                                        "children": [
                                                            {
                                                                "children": [
                                                                    {
                                                                        "children": [],
                                                                        "depth": 6,
                                                                        "id": 10,
                                                                        "order": 10
                                                                    }
                                                                ],
                                                                "depth": 5,
                                                                "id": 9,
                                                                "order": 9
                                                            }
                                                        ],
                                                        "depth": 4,
                                                        "id": 8,
                                                        "order": 8
                                                    }
                                                ],
                                                "depth": 3,
                                                "id": 7,
                                                "order": 7
                                            }
                                        ],
                                        "depth": 2,
                                        "id": 6,
                                        "order": 6
                                    },
                                    {
                                        "children": [],
                                        "depth": 2,
                                        "id": 13,
                                        "order": 13
                                    }
                                ],
                                "depth": 1,
                                "id": 1,
                                "order": 1
                            },
                            {
                                "children": [
                                    {
                                        "children": [],
                                        "depth": 2,
                                        "id": 16,
                                        "order": 16
                                    }
                                ],
                                "depth": 1,
                                "id": 15,
                                "order": 15
                            },
                            {
                                "children": [
                                    {
                                        "children": [
                                            {
                                                "children": [],
                                                "depth": 3,
                                                "id": 22,
                                                "order": 22
                                            }
                                        ],
                                        "depth": 2,
                                        "id": 21,
                                        "order": 21
                                    },
                                    {
                                        "children": [],
                                        "depth": 2,
                                        "id": 25,
                                        "order": 25
                                    },
                                    {
                                        "children": [],
                                        "depth": 2,
                                        "id": 26,
                                        "order": 26
                                    }
                                ],
                                "depth": 1,
                                "id": 20,
                                "order": 20
                            }
                        ],
                        "depth": 0,
                        "id": 0,
                        "order": 0
                    }
                ],
                "depth": -1,
                "id": -1,
                "order": -1
            }
        ],
        "tidyTraceNodeCount": 17
    },
    "state_change": {
        "stateChanges": [
            {
                "address": "0x4f08705fb8f33affc231ed66e626b40e84a71870",
                "erc": "ERC-20",
                "slots": [
                    {
                        "current": "0x0000000000000000000000000000000000000000000000001762c2dceb3680c4",
                        "key": "0xb8623795199bba5022e2e941f8b141f86b46228182a9b07503fa216714dc4b54",
                        "prev": "0x00000000000000000000000000000000000000000000000012cee19a3217fab6"
                    },
                    {
                        "current": "0x00000000000000000000000000000000000000000000000d7322e54a343ac1dc",
                        "key": "0xb8bac02dd822058ad852c1c4ff0a08ff90eb2adc7b0b408050a3b4ae65e72eec",
                        "prev": "0x00000000000000000000000000000000000000000000000d77b6c68ced5947ea"
                    }
                ],
                "storageVariables": [
                    {
                        "name": "_balances",
                        "type": "mapping(address => uint256)",
                        "value": {
                            "pairs": [
                                {
                                    "key": "0x68522b48659905bcaf967549cd881099a6caa67b",
                                    "value": {
                                        "current": "1685123464684798148",
                                        "prev": "1355268590266743478",
                                        "typeTag": 1
                                    }
                                },
                                {
                                    "key": "0xe532b04d2f2e921dfec69e132e9214d2f82df304",
                                    "value": {
                                        "current": "248104118528660652508",
                                        "prev": "248433973403078707178",
                                        "typeTag": 1
                                    }
                                }
                            ],
                            "typeTag": 4
                        }
                    }
                ]
            },
            {
                "address": "0x5777d92f208679db4b9778590fa3cab3ac9e2168",
                "erc": "",
                "slots": [
                    {
                        "current": "0x000100012c012c004bfbc89b0000000000000000000010c6e5be70a922198b08",
                        "key": "0x0000000000000000000000000000000000000000000000000000000000000000",
                        "prev": "0x000100012c012c004bfbc89b0000000000000000000010c6e5bdb55003eb42f7"
                    },
                    {
                        "current": "0x00000000000000000000000000000000000000000789c5104b6c23c8a8248303",
                        "key": "0x0000000000000000000000000000000000000000000000000000000000000002",
                        "prev": "0x00000000000000000000000000000000000000000789c50b7f7eb8fd032643bc"
                    }
                ],
                "storageVariables": []
            },
            {
                "address": "0x6b175474e89094c44da98b954eedeac495271d0f",
                "erc": "ERC-20",
                "slots": [
                    {
                        "current": "0x000000000000000000000000000000000000000000700838e3361719c0db9f04",
                        "key": "0x0c851915448d0d1d564ff8d739c8d78544db77078755e108c40f2957369677fa",
                        "prev": "0x0000000000000000000000000000000000000000007008db81c4078849e62bcb"
                    },
                    {
                        "current": "0x00000000000000000000000000000000000000000001dcffadcb69d7f210f789",
                        "key": "0xcb5ed2dad603b37e7c50ebcb93e6be9eea4d0ae33cc4e6b8405900e5621f8893",
                        "prev": "0x00000000000000000000000000000000000000000001dc5d0f3d796969066ac2"
                    }
                ],
                "storageVariables": [
                    {
                        "name": "balanceOf",
                        "type": "mapping(address => uint256)",
                        "value": {
                            "pairs": [
                                {
                                    "key": "0x5777d92f208679db4b9778590fa3cab3ac9e2168",
                                    "value": {
                                        "current": "135438520118668447192948484",
                                        "prev": "135441519916260575385365451",
                                        "typeTag": 1
                                    }
                                },
                                {
                                    "key": "0xe532b04d2f2e921dfec69e132e9214d2f82df304",
                                    "value": {
                                        "current": "2252562888804312091260809",
                                        "prev": "2249563091212183898843842",
                                        "typeTag": 1
                                    }
                                }
                            ],
                            "typeTag": 4
                        }
                    }
                ]
            },
            {
                "address": "0xa0b86991c6218b36c1d19d4a2e9eb0ce3606eb48",
                "erc": "ERC-20",
                "slots": [
                    {
                        "current": "0xffffffffffffffffffffffffffffffffffffffffffffffffffffffd225bfe24f",
                        "key": "0xdbdd1a549e69c25fbd729411ff5de9802b6a70136fd2de8fec56170d492bab05",
                        "prev": "0xffffffffffffffffffffffffffffffffffffffffffffffffffffffd2d890404f"
                    },
                    {
                        "current": "0x00000000000000000000000000000000000000000000000000000000d5619154",
                        "key": "0x04b7e29e22e84d06e6d3bf884755dd24840dd860870537f54d36c965dc20d03a",
                        "prev": "0x000000000000000000000000000000000000000000000000000000018831ef54"
                    },
                    {
                        "current": "0x00000000000000000000000000000000000000000000000000005727e1b34bc3",
                        "key": "0x4dd1725f464fafcddf286deb01aabcbb4bf8a538bad59c775b5dcdb2fbc3c71a",
                        "prev": "0x000000000000000000000000000000000000000000000000000057272ee2edc3"
                    }
                ],
                "storageVariables": [
                    {
                        "name": "allowed",
                        "type": "mapping(address => mapping(address => uint256))",
                        "value": {
                            "pairs": [
                                {
                                    "key": "0x68522b48659905bcaf967549cd881099a6caa67b",
                                    "value": {
                                        "pairs": [
                                            {
                                                "key": "0x000000000022d473030f116ddee9f6b43ac78ba3",
                                                "value": {
                                                    "current": "115792089237316195423570985008687907853269984665640564039457584007716194476623",
                                                    "prev": "115792089237316195423570985008687907853269984665640564039457584007719194476623",
                                                    "typeTag": 1
                                                }
                                            }
                                        ],
                                        "typeTag": 4
                                    }
                                }
                            ],
                            "typeTag": 4
                        }
                    },
                    {
                        "name": "balances",
                        "type": "mapping(address => uint256)",
                        "value": {
                            "pairs": [
                                {
                                    "key": "0x5777d92f208679db4b9778590fa3cab3ac9e2168",
                                    "value": {
                                        "current": "95828801964995",
                                        "prev": "95825801964995",
                                        "typeTag": 1
                                    }
                                },
                                {
                                    "key": "0x68522b48659905bcaf967549cd881099a6caa67b",
                                    "value": {
                                        "current": "3579941204",
                                        "prev": "6579941204",
                                        "typeTag": 1
                                    }
                                }
                            ],
                            "typeTag": 4
                        }
                    }
                ]
            },
            {
                "address": "0xe532b04d2f2e921dfec69e132e9214d2f82df304",
                "erc": "ERC-20",
                "slots": [
                    {
                        "current": "0x000000000000000000000000000000000054fe69fb695d191edeb9986c26a1bc",
                        "key": "0x000000000000000000000000000000000000000000000000000000000000000a",
                        "prev": "0x000000000000000000000000000000000054fa00ebd78d08d031fa6613995e88"
                    },
                    {
                        "current": "0x63f8644700000001dcffadcb69d7f210f78900000000000d7322e54a343ac1dc",
                        "key": "0x0000000000000000000000000000000000000000000000000000000000000008",
                        "prev": "0x63f863ab00000001dc5d0f3d796969066ac200000000000d77b6c68ced5947ea"
                    },
                    {
                        "current": "0x0000000000000000000000000001b2eef5b5c3116078c900587ade49911dfcf0",
                        "key": "0x0000000000000000000000000000000000000000000000000000000000000009",
                        "prev": "0x0000000000000000000000000001b2d967d5de0cd0930e4d1d27ed568fd0daf0"
                    }
                ],
                "storageVariables": [
                    {
                        "name": "price1CumulativeLast",
                        "type": "uint256",
                        "value": {
                            "current": "441313064921431362532767978872021436",
                            "prev": "441223611507400813885869287083171464",
                            "typeTag": 1
                        }
                    },
                    {
                        "name": "reserve0",
                        "type": "uint112",
                        "value": {
                            "current": "248104118528660652508",
                            "prev": "248433973403078707178",
                            "typeTag": 1
                        }
                    },
                    {
                        "name": "reserve1",
                        "type": "uint112",
                        "value": {
                            "current": "2252562888804312091260809",
                            "prev": "2249563091212183898843842",
                            "typeTag": 1
                        }
                    },
                    {
                        "name": "blockTimestampLast",
                        "type": "uint32",
                        "value": {
                            "current": "1677222983",
                            "prev": "1677222827",
                            "typeTag": 1
                        }
                    },
                    {
                        "name": "price0CumulativeLast",
                        "type": "uint256",
                        "value": {
                            "current": "37888045902332275706187779205417871997795568",
                            "prev": "37880711388952297626082034603289549711923952",
                            "typeTag": 1
                        }
                    }
                ]
            }
        ]
    }
}