{
    "balance_change": {
        "balanceChanges": []
    },
    "profile": {
        "basic_info": {
            "baseFee": "14.357344622",
            "blockNumber": 16467527,
            "callData": "0x1ff013f10000000000000000000000000000000000000000000000000000000000000001000000000000000000000000000000000000000000000000000000000000027f00000000000000000000002791bca1f2de4661ed88a30c99a7a9449aa84174008e788b6728de4daaf8c7d1b7a03ff918c9f5f77005cbeaf7051b4453d69da3c5",
            "debugEnable": true,
            "errorInfo": "",
            "eventCount": 4,
            "feeRecipient": "0xfeebabe6b0418ec13b30aadf129f5dcdd4f70cea",
            "formatValue": "0",
            "gasLimit": 1000000,
            "gasPrice": "14.548711932",
            "gasUsed": 142823,
            "intTxnCount": 13,
            "internalRevert": false,
            "internalRevertMessage": "",
            "isContractCreation": false,
            "isFlashloan": false,
            "maxFee": "15",
            "nonce": 2908,
            "overwritedBlockNumber": -1,
            "priorityFee": "0.19136731",
            "receiver": "0xf18acc02628009231d7baaf9a7a24c0860dda6cb",
            "revertMessage": "",
            "sender": "0x33aee8d62c7588fff9935c83fd24e344b4309e5d",
            "simulationEnable": true,
            "sourceTxnHash": "0x0d81bc082d36af4598ce1a5a561c182f8766dcbc3f3378d9051a1c8da1e20582",
            "status": true,
            "timestamp": "2023-01-23T05:51:47Z",
            "transactionFee": "0.002077890684264036",
            "txnHash": "0x0d81bc082d36af4598ce1a5a561c182f8766dcbc3f3378d9051a1c8da1e20582",
            "txnIndex": 70,
            "type": 2,
            "value": "0"
        },
        "fund_flow": [],
        "token_infos": [
            {
                "address": "0xc02aaa39b223fe8d0a0e5c4f27ead9083c756cc2",
                "decimals": 18
            },
            {
                "address": "0xeeeeeeeeeeeeeeeeeeeeeeeeeeeeeeeeeeeeeeee",
                "decimals": 18
            }
        ]
    },
    "address_label": {
        "labels": [
            {
                "address": "0xeeeeeeeeeeeeeeeeeeeeeeeeeeeeeeeeeeeeeeee",
                "label": "Ether"
            },
            {
                "address": "0x6e34b42c0be1c618b9f12845bb7d3fbf2d9e0c52",
                "label": "VoterUpgradeable"
            },
            {
                "address": "0x0000000000000000000000000000000000000001",
                "label": "Precompiled"
            },
            {
                "address": "0x0000000000000000000000000000000000000003",
                "label": "Precompiled"
            },
            {
                "address": "0x0000000000000000000000000000000000000004",
                "label": "Precompiled"
            },
            {
                "address": "0x2d7d5f298067e81e8827eb686428881f4c988dc1",
                "label": "Relayer Vote Token (RRT)"
            },
            {
                "address": "0xf18acc02628009231d7baaf9a7a24c0860dda6cb",
                "label": "Router Protocol Bridge"
            },
            {
                "address": "0x7969a5bab09fa182b9c1731dc9c15dba02de2480",
                "label": "BridgeUpgradeable"
            },
            {
                "address": "0x0000000000000000000000000000000000000002",
                "label": "Precompiled"
            }
        ]
    },
    "trace": {
        "accountLabels": null,
        "dataMap": {
            "-1": {
                "invocation": {
                    "address": "0x33aee8d62c7588fff9935c83fd24e344b4309e5d",
                    "callData": "",
                    "decodedMethod": null,
                    "errorInfo": "",
                    "fromAddress": "",
                    "gasUsed": 0,
                    "id": -1,
                    "methodDecoded": false,
                    "operation": "",
                    "output": "",
                    "revert": false,
                    "revertMessage": "",
                    "selector": "",
                    "status": false,
                    "value": ""
                },
                "nodeType": 0
            },
            "0": {
                "invocation": {
                    "address": "0xf18acc02628009231d7baaf9a7a24c0860dda6cb",
                    "callData": "0x0000000000000000000000000000000000000000000000000000000000000001000000000000000000000000000000000000000000000000000000000000027f00000000000000000000002791bca1f2de4661ed88a30c99a7a9449aa84174008e788b6728de4daaf8c7d1b7a03ff918c9f5f77005cbeaf7051b4453d69da3c5",
                    "decodedMethod": {
                        "callParams": [
                            {
                                "name": "chainID",
                                "type": "uint8",
                                "value": "1"
                            },
                            {
                                "name": "depositNonce",
                                "type": "uint64",
                                "value": "639"
                            },
                            {
                                "name": "resourceID",
                                "type": "bytes32",
                                "value": "0x00000000000000000000002791bca1f2de4661ed88a30c99a7a9449aa8417400"
                            },
                            {
                                "name": "dataHash",
                                "type": "bytes32",
                                "value": "0x8e788b6728de4daaf8c7d1b7a03ff918c9f5f77005cbeaf7051b4453d69da3c5"
                            }
                        ],
                        "constructorArguments": "",
                        "name": "voteProposal",
                        "returnParams": [],
                        "signature": "voteProposal(uint8,uint64,bytes32,bytes32)"
                    },
                    "errorInfo": "",
                    "fromAddress": "0x33aee8d62c7588fff9935c83fd24e344b4309e5d",
                    "gasUsed": 142823,
                    "id": 0,
                    "methodDecoded": true,
                    "operation": "CALL",
                    "output": "",
                    "revert": false,
                    "revertMessage": "",
                    "selector": "0x1ff013f1",
                    "status": true,
                    "value": "0"
                },
                "nodeType": 0
            },
            "1": {
                "invocation": {
                    "address": "0x7969a5bab09fa182b9c1731dc9c15dba02de2480",
                    "callData": "0x0000000000000000000000000000000000000000000000000000000000000001000000000000000000000000000000000000000000000000000000000000027f00000000000000000000002791bca1f2de4661ed88a30c99a7a9449aa84174008e788b6728de4daaf8c7d1b7a03ff918c9f5f77005cbeaf7051b4453d69da3c5",
                    "decodedMethod": {
                        "callParams": [
                            {
                                "name": "chainID",
                                "type": "uint8",
                                "value": "1"
                            },
                            {
                                "name": "depositNonce",
                                "type": "uint64",
                                "value": "639"
                            },
                            {
                                "name": "resourceID",
                                "type": "bytes32",
                                "value": "0x00000000000000000000002791bca1f2de4661ed88a30c99a7a9449aa8417400"
                            },
                            {
                                "name": "dataHash",
                                "type": "bytes32",
                                "value": "0x8e788b6728de4daaf8c7d1b7a03ff918c9f5f77005cbeaf7051b4453d69da3c5"
                            }
                        ],
                        "constructorArguments": "",
                        "name": "voteProposal",
                        "returnParams": [],
                        "signature": "voteProposal(uint8,uint64,bytes32,bytes32)"
                    },
                    "errorInfo": "",
                    "fromAddress": "0xf18acc02628009231d7baaf9a7a24c0860dda6cb",
                    "gasUsed": 115677,
                    "id": 1,
                    "methodDecoded": true,
                    "operation": "DELEGATECALL",
                    "output": "",
                    "revert": false,
                    "revertMessage": "",
                    "selector": "0x1ff013f1",
                    "status": true,
                    "value": "0"
                },
                "nodeType": 0
            },
            "10": {
                "invocation": {
                    "address": "0x2d7d5f298067e81e8827eb686428881f4c988dc1",
                    "callData": "0x0000000000000000000000000000000000000000000000000000000000000497",
                    "decodedMethod": {
                        "callParams": [
                            {
                                "name": "issueId",
                                "type": "uint256",
                                "value": "1,175"
                            }
                        ],
                        "constructorArguments": "",
                        "name": "getStatus",
                        "returnParams": [
                            {
                                "name": "status",
                                "type": "uint8",
                                "value": "2"
                            }
                        ],
                        "signature": "getStatus(uint256)"
                    },
                    "errorInfo": "",
                    "fromAddress": "0xf18acc02628009231d7baaf9a7a24c0860dda6cb",
                    "gasUsed": 1144,
                    "id": 10,
                    "methodDecoded": true,
                    "operation": "STATICCALL",
                    "output": "0x0000000000000000000000000000000000000000000000000000000000000002",
                    "revert": false,
                    "revertMessage": "",
                    "selector": "0x5c622a0e",
                    "status": true,
                    "value": "0"
                },
                "nodeType": 0
            },
            "11": {
                "invocation": {
                    "address": "0x6e34b42c0be1c618b9f12845bb7d3fbf2d9e0c52",
                    "callData": "0x0000000000000000000000000000000000000000000000000000000000000497",
                    "decodedMethod": {
                        "callParams": [
                            {
                                "name": "issueId",
                                "type": "uint256",
                                "value": "1,175"
                            }
                        ],
                        "constructorArguments": "",
                        "name": "getStatus",
                        "returnParams": [
                            {
                                "name": "status",
                                "type": "uint8",
                                "value": "2"
                            }
                        ],
                        "signature": "getStatus(uint256)"
                    },
                    "errorInfo": "",
                    "fromAddress": "0x2d7d5f298067e81e8827eb686428881f4c988dc1",
                    "gasUsed": 746,
                    "id": 11,
                    "methodDecoded": true,
                    "operation": "DELEGATECALL",
                    "output": "0x0000000000000000000000000000000000000000000000000000000000000002",
                    "revert": false,
                    "revertMessage": "",
                    "selector": "0x5c622a0e",
                    "status": true,
                    "value": "0"
                },
                "nodeType": 0
            },
            "12": {
                "event": {
                    "contract": "0xf18acc02628009231d7baaf9a7a24c0860dda6cb",
                    "decodedLog": {
                        "name": "ProposalVote",
                        "params": [
                            {
                                "name": "originChainID",
                                "type": "uint8",
                                "value": "1"
                            },
                            {
                                "name": "depositNonce",
                                "type": "uint64",
                                "value": "639"
                            },
                            {
                                "name": "status",
                                "type": "uint8",
                                "value": "2"
                            },
                            {
                                "name": "dataHash",
                                "type": "bytes32",
                                "value": "0x8e788b6728de4daaf8c7d1b7a03ff918c9f5f77005cbeaf7051b4453d69da3c5"
                            }
                        ],
                        "signature": "ProposalVote(uint8,uint64,uint8,bytes32)"
                    },
                    "id": 12,
                    "logData": "0x0000000000000000000000000000000000000000000000000000000000000001000000000000000000000000000000000000000000000000000000000000027f00000000000000000000000000000000000000000000000000000000000000028e788b6728de4daaf8c7d1b7a03ff918c9f5f77005cbeaf7051b4453d69da3c5",
                    "logDecoded": true,
                    "operation": "EVENT",
                    "revert": false,
                    "status": true,
                    "topics": [
                        "0x25f8daaa4635a7729927ba3f5b3d59cc3320aca7c32c9db4e7ca7b9574343640"
                    ]
                },
                "nodeType": 1
            },
            "13": {
                "invocation": {
                    "address": "0x2d7d5f298067e81e8827eb686428881f4c988dc1",
                    "callData": "0x0000000000000000000000000000000000000000000000000000000000000497",
                    "decodedMethod": {
                        "callParams": [
                            {
                                "name": "issueId",
                                "type": "uint256",
                                "value": "1,175"
                            }
                        ],
                        "constructorArguments": "",
                        "name": "getStatus",
                        "returnParams": [
                            {
                                "name": "status",
                                "type": "uint8",
                                "value": "2"
                            }
                        ],
                        "signature": "getStatus(uint256)"
                    },
                    "errorInfo": "",
                    "fromAddress": "0xf18acc02628009231d7baaf9a7a24c0860dda6cb",
                    "gasUsed": 1144,
                    "id": 13,
                    "methodDecoded": true,
                    "operation": "STATICCALL",
                    "output": "0x0000000000000000000000000000000000000000000000000000000000000002",
                    "revert": false,
                    "revertMessage": "",
                    "selector": "0x5c622a0e",
                    "status": true,
                    "value": "0"
                },
                "nodeType": 0
            },
            "14": {
                "invocation": {
                    "address": "0x6e34b42c0be1c618b9f12845bb7d3fbf2d9e0c52",
                    "callData": "0x0000000000000000000000000000000000000000000000000000000000000497",
                    "decodedMethod": {
                        "callParams": [
                            {
                                "name": "issueId",
                                "type": "uint256",
                                "value": "1,175"
                            }
                        ],
                        "constructorArguments": "",
                        "name": "getStatus",
                        "returnParams": [
                            {
                                "name": "status",
                                "type": "uint8",
                                "value": "2"
                            }
                        ],
                        "signature": "getStatus(uint256)"
                    },
                    "errorInfo": "",
                    "fromAddress": "0x2d7d5f298067e81e8827eb686428881f4c988dc1",
                    "gasUsed": 746,
                    "id": 14,
                    "methodDecoded": true,
                    "operation": "DELEGATECALL",
                    "output": "0x0000000000000000000000000000000000000000000000000000000000000002",
                    "revert": false,
                    "revertMessage": "",
                    "selector": "0x5c622a0e",
                    "status": true,
                    "value": "0"
                },
                "nodeType": 0
            },
            "15": {
                "invocation": {
                    "address": "0x2d7d5f298067e81e8827eb686428881f4c988dc1",
                    "callData": "0x0000000000000000000000000000000000000000000000000000000000000497",
                    "decodedMethod": {
                        "callParams": [
                            {
                                "name": "issueId",
                                "type": "uint256",
                                "value": "1,175"
                            }
                        ],
                        "constructorArguments": "",
                        "name": "getStatus",
                        "returnParams": [
                            {
                                "name": "status",
                                "type": "uint8",
                                "value": "2"
                            }
                        ],
                        "signature": "getStatus(uint256)"
                    },
                    "errorInfo": "",
                    "fromAddress": "0xf18acc02628009231d7baaf9a7a24c0860dda6cb",
                    "gasUsed": 1144,
                    "id": 15,
                    "methodDecoded": true,
                    "operation": "STATICCALL",
                    "output": "0x0000000000000000000000000000000000000000000000000000000000000002",
                    "revert": false,
                    "revertMessage": "",
                    "selector": "0x5c622a0e",
                    "status": true,
                    "value": "0"
                },
                "nodeType": 0
            },
            "16": {
                "invocation": {
                    "address": "0x6e34b42c0be1c618b9f12845bb7d3fbf2d9e0c52",
                    "callData": "0x0000000000000000000000000000000000000000000000000000000000000497",
                    "decodedMethod": {
                        "callParams": [
                            {
                                "name": "issueId",
                                "type": "uint256",
                                "value": "1,175"
                            }
                        ],
                        "constructorArguments": "",
                        "name": "getStatus",
                        "returnParams": [
                            {
                                "name": "status",
                                "type": "uint8",
                                "value": "2"
                            }
                        ],
                        "signature": "getStatus(uint256)"
                    },
                    "errorInfo": "",
                    "fromAddress": "0x2d7d5f298067e81e8827eb686428881f4c988dc1",
                    "gasUsed": 746,
                    "id": 16,
                    "methodDecoded": true,
                    "operation": "DELEGATECALL",
                    "output": "0x0000000000000000000000000000000000000000000000000000000000000002",
                    "revert": false,
                    "revertMessage": "",
                    "selector": "0x5c622a0e",
                    "status": true,
                    "value": "0"
                },
                "nodeType": 0
            },
            "17": {
                "event": {
                    "contract": "0xf18acc02628009231d7baaf9a7a24c0860dda6cb",
                    "decodedLog": {
                        "name": "ProposalEvent",
                        "params": [
                            {
                                "name": "originChainID",
                                "type": "uint8",
                                "value": "1"
                            },
                            {
                                "name": "depositNonce",
                                "type": "uint64",
                                "value": "639"
                            },
                            {
                                "name": "status",
                                "type": "uint8",
                                "value": "2"
                            },
                            {
                                "name": "dataHash",
                                "type": "bytes32",
                                "value": "0x8e788b6728de4daaf8c7d1b7a03ff918c9f5f77005cbeaf7051b4453d69da3c5"
                            }
                        ],
                        "signature": "ProposalEvent(uint8,uint64,uint8,bytes32)"
                    },
                    "id": 17,
                    "logData": "0x0000000000000000000000000000000000000000000000000000000000000001000000000000000000000000000000000000000000000000000000000000027f00000000000000000000000000000000000000000000000000000000000000028e788b6728de4daaf8c7d1b7a03ff918c9f5f77005cbeaf7051b4453d69da3c5",
                    "logDecoded": true,
                    "operation": "EVENT",
                    "revert": false,
                    "status": true,
                    "topics": [
                        "0x968626a768e76ba1363efe44e322a6c4900c5f084e0b45f35e294dfddaa9e0d5"
                    ]
                },
                "nodeType": 1
            },
            "2": {
                "invocation": {
                    "address": "0x2d7d5f298067e81e8827eb686428881f4c988dc1",
                    "callData": "0x0000000000000000000000000000000000000000000000000000000000000497",
                    "decodedMethod": {
                        "callParams": [
                            {
                                "name": "_issue",
                                "type": "uint256",
                                "value": "1,175"
                            }
                        ],
                        "constructorArguments": "",
                        "name": "fetchIsExpired",
                        "returnParams": [
                            {
                                "name": "status",
                                "type": "bool",
                                "value": false
                            }
                        ],
                        "signature": "fetchIsExpired(uint256)"
                    },
                    "errorInfo": "",
                    "fromAddress": "0xf18acc02628009231d7baaf9a7a24c0860dda6cb",
                    "gasUsed": 7478,
                    "id": 2,
                    "methodDecoded": true,
                    "operation": "STATICCALL",
                    "output": "0x0000000000000000000000000000000000000000000000000000000000000000",
                    "revert": false,
                    "revertMessage": "",
                    "selector": "0x8ae6fa3a",
                    "status": true,
                    "value": "0"
                },
                "nodeType": 0
            },
            "3": {
                "invocation": {
                    "address": "0x6e34b42c0be1c618b9f12845bb7d3fbf2d9e0c52",
                    "callData": "0x0000000000000000000000000000000000000000000000000000000000000497",
                    "decodedMethod": {
                        "callParams": [
                            {
                                "name": "_issue",
                                "type": "uint256",
                                "value": "1,175"
                            }
                        ],
                        "constructorArguments": "",
                        "name": "fetchIsExpired",
                        "returnParams": [
                            {
                                "name": "status",
                                "type": "bool",
                                "value": false
                            }
                        ],
                        "signature": "fetchIsExpired(uint256)"
                    },
                    "errorInfo": "",
                    "fromAddress": "0x2d7d5f298067e81e8827eb686428881f4c988dc1",
                    "gasUsed": 2580,
                    "id": 3,
                    "methodDecoded": true,
                    "operation": "DELEGATECALL",
                    "output": "0x0000000000000000000000000000000000000000000000000000000000000000",
                    "revert": false,
                    "revertMessage": "",
                    "selector": "0x8ae6fa3a",
                    "status": true,
                    "value": "0"
                },
                "nodeType": 0
            },
            "4": {
                "invocation": {
                    "address": "0x2d7d5f298067e81e8827eb686428881f4c988dc1",
                    "callData": "0x0000000000000000000000000000000000000000000000000000000000000497",
                    "decodedMethod": {
                        "callParams": [
                            {
                                "name": "issueId",
                                "type": "uint256",
                                "value": "1,175"
                            }
                        ],
                        "constructorArguments": "",
                        "name": "getStatus",
                        "returnParams": [
                            {
                                "name": "status",
                                "type": "uint8",
                                "value": "1"
                            }
                        ],
                        "signature": "getStatus(uint256)"
                    },
                    "errorInfo": "",
                    "fromAddress": "0xf18acc02628009231d7baaf9a7a24c0860dda6cb",
                    "gasUsed": 3144,
                    "id": 4,
                    "methodDecoded": true,
                    "operation": "STATICCALL",
                    "output": "0x0000000000000000000000000000000000000000000000000000000000000001",
                    "revert": false,
                    "revertMessage": "",
                    "selector": "0x5c622a0e",
                    "status": true,
                    "value": "0"
                },
                "nodeType": 0
            },
            "5": {
                "invocation": {
                    "address": "0x6e34b42c0be1c618b9f12845bb7d3fbf2d9e0c52",
                    "callData": "0x0000000000000000000000000000000000000000000000000000000000000497",
                    "decodedMethod": {
                        "callParams": [
                            {
                                "name": "issueId",
                                "type": "uint256",
                                "value": "1,175"
                            }
                        ],
                        "constructorArguments": "",
                        "name": "getStatus",
                        "returnParams": [
                            {
                                "name": "status",
                                "type": "uint8",
                                "value": "1"
                            }
                        ],
                        "signature": "getStatus(uint256)"
                    },
                    "errorInfo": "",
                    "fromAddress": "0x2d7d5f298067e81e8827eb686428881f4c988dc1",
                    "gasUsed": 2746,
                    "id": 5,
                    "methodDecoded": true,
                    "operation": "DELEGATECALL",
                    "output": "0x0000000000000000000000000000000000000000000000000000000000000001",
                    "revert": false,
                    "revertMessage": "",
                    "selector": "0x5c622a0e",
                    "status": true,
                    "value": "0"
                },
                "nodeType": 0
            },
            "6": {
                "invocation": {
                    "address": "0x2d7d5f298067e81e8827eb686428881f4c988dc1",
                    "callData": "0x0000000000000000000000000000000000000000000000000000000000000497000000000000000000000000000000000000000000000000000000000000000100000000000000000000000033aee8d62c7588fff9935c83fd24e344b4309e5d",
                    "decodedMethod": {
                        "callParams": [
                            {
                                "name": "issueId",
                                "type": "uint256",
                                "value": "1,175"
                            },
                            {
                                "name": "option",
                                "type": "uint8",
                                "value": "1"
                            },
                            {
                                "name": "relayer",
                                "type": "address",
                                "value": "0x33aee8d62c7588fff9935c83fd24e344b4309e5d"
                            }
                        ],
                        "constructorArguments": "",
                        "name": "vote",
                        "returnParams": [
                            {
                                "name": "success",
                                "type": "bool",
                                "value": true
                            }
                        ],
                        "signature": "vote(uint256,uint8,address)"
                    },
                    "errorInfo": "",
                    "fromAddress": "0xf18acc02628009231d7baaf9a7a24c0860dda6cb",
                    "gasUsed": 73492,
                    "id": 6,
                    "methodDecoded": true,
                    "operation": "CALL",
                    "output": "0x0000000000000000000000000000000000000000000000000000000000000001",
                    "revert": false,
                    "revertMessage": "",
                    "selector": "0x19cff706",
                    "status": true,
                    "value": "0"
                },
                "nodeType": 0
            },
            "7": {
                "invocation": {
                    "address": "0x6e34b42c0be1c618b9f12845bb7d3fbf2d9e0c52",
                    "callData": "0x0000000000000000000000000000000000000000000000000000000000000497000000000000000000000000000000000000000000000000000000000000000100000000000000000000000033aee8d62c7588fff9935c83fd24e344b4309e5d",
                    "decodedMethod": {
                        "callParams": [
                            {
                                "name": "issueId",
                                "type": "uint256",
                                "value": "1,175"
                            },
                            {
                                "name": "option",
                                "type": "uint8",
                                "value": "1"
                            },
                            {
                                "name": "relayer",
                                "type": "address",
                                "value": "0x33aee8d62c7588fff9935c83fd24e344b4309e5d"
                            }
                        ],
                        "constructorArguments": "",
                        "name": "vote",
                        "returnParams": [
                            {
                                "name": "success",
                                "type": "bool",
                                "value": true
                            }
                        ],
                        "signature": "vote(uint256,uint8,address)"
                    },
                    "errorInfo": "",
                    "fromAddress": "0x2d7d5f298067e81e8827eb686428881f4c988dc1",
                    "gasUsed": 73085,
                    "id": 7,
                    "methodDecoded": true,
                    "operation": "DELEGATECALL",
                    "output": "0x0000000000000000000000000000000000000000000000000000000000000001",
                    "revert": false,
                    "revertMessage": "",
                    "selector": "0x19cff706",
                    "status": true,
                    "value": "0"
                },
                "nodeType": 0
            },
            "8": {
                "event": {
                    "contract": "0x2d7d5f298067e81e8827eb686428881f4c988dc1",
                    "decodedLog": {
                        "name": "OnStatusChange",
                        "params": [
                            {
                                "name": "issueId",
                                "type": "uint256",
                                "value": "1,175"
                            },
                            {
                                "name": "Status",
                                "type": "uint8",
                                "value": "2"
                            }
                        ],
                        "signature": "OnStatusChange(uint256,uint8)"
                    },
                    "id": 8,
                    "logData": "0x00000000000000000000000000000000000000000000000000000000000004970000000000000000000000000000000000000000000000000000000000000002",
                    "logDecoded": true,
                    "operation": "EVENT",
                    "revert": false,
                    "status": true,
                    "topics": [
                        "0x6c63948b76a7869a0d6806020a8c442c5665618c286c511088aa8377a9887c6c"
                    ]
                },
                "nodeType": 1
            },
            "9": {
                "event": {
                    "contract": "0x2d7d5f298067e81e8827eb686428881f4c988dc1",
                    "decodedLog": {
                        "name": "OnVote",
                        "params": [
                            {
                                "name": "_from",
                                "type": "address",
                                "value": "0x33aee8d62c7588fff9935c83fd24e344b4309e5d"
                            },
                            {
                                "name": "issueId",
                                "type": "uint256",
                                "value": "1,175"
                            },
                            {
                                "name": "_value",
                                "type": "uint256",
                                "value": "1,000,000,000,000,000,000"
                            }
                        ],
                        "signature": "OnVote(uint256,address,uint256)"
                    },
                    "id": 9,
                    "logData": "0x00000000000000000000000000000000000000000000000000000000000004970000000000000000000000000000000000000000000000000de0b6b3a7640000",
                    "logDecoded": true,
                    "operation": "EVENT",
                    "revert": false,
                    "status": true,
                    "topics": [
                        "0x8dbfd85a58723efc11bb6869a671982a65ec9cd32e081f290076566dca6b9be5",
                        "0x00000000000000000000000033aee8d62c7588fff9935c83fd24e344b4309e5d"
                    ]
                },
                "nodeType": 1
            }
        },
        "gasFlame": [
            {
                "children": [
                    {
                        "children": [
                            {
                                "children": [],
                                "depth": 0,
                                "name": "Initial Gas",
                                "value": 22236
                            },
                            {
                                "children": [
                                    {
                                        "children": [
                                            {
                                                "children": [
                                                    {
                                                        "children": [],
                                                        "depth": 3,
                                                        "name": "fetchIsExpired",
                                                        "value": 2580
                                                    }
                                                ],
                                                "depth": 2,
                                                "name": "fetchIsExpired",
                                                "value": 7478
                                            },
                                            {
                                                "children": [
                                                    {
                                                        "children": [],
                                                        "depth": 3,
                                                        "name": "getStatus",
                                                        "value": 2746
                                                    }
                                                ],
                                                "depth": 2,
                                                "name": "getStatus",
                                                "value": 3144
                                            },
                                            {
                                                "children": [
                                                    {
                                                        "children": [],
                                                        "depth": 3,
                                                        "name": "vote",
                                                        "value": 73085
                                                    }
                                                ],
                                                "depth": 2,
                                                "name": "vote",
                                                "value": 73492
                                            },
                                            {
                                                "children": [
                                                    {
                                                        "children": [],
                                                        "depth": 3,
                                                        "name": "getStatus",
                                                        "value": 746
                                                    }
                                                ],
                                                "depth": 2,
                                                "name": "getStatus",
                                                "value": 1144
                                            },
                                            {
                                                "children": [
                                                    {
                                                        "children": [],
                                                        "depth": 3,
                                                        "name": "getStatus",
                                                        "value": 746
                                                    }
                                                ],
                                                "depth": 2,
                                                "name": "getStatus",
                                                "value": 1144
                                            },
                                            {
                                                "children": [
                                                    {
                                                        "children": [],
                                                        "depth": 3,
                                                        "name": "getStatus",
                                                        "value": 746
                                                    }
                                                ],
                                                "depth": 2,
                                                "name": "getStatus",
                                                "value": 1144
                                            }
                                        ],
                                        "depth": 1,
                                        "name": "voteProposal",
                                        "value": 115677
                                    }
                                ],
                                "depth": 0,
                                "name": "Executed Gas",
                                "value": 120587
                            }
                        ],
                        "depth": -1,
                        "name": "Actual Gas Used",
                        "value": 142823
                    },
                    {
                        "children": [],
                        "depth": -1,
                        "name": "Refunded Gas",
                        "value": 0
                    }
                ],
                "depth": -2,
                "name": "Total Gas",
                "value": 142823
            }
        ],
        "isConfirmed": true,
        "mainTrace": [
            {
                "children": [
                    {
                        "children": [
                            {
                                "children": [
                                    {
                                        "children": [
                                            {
                                                "children": [],
                                                "depth": 3,
                                                "id": 3,
                                                "order": 3
                                            }
                                        ],
                                        "depth": 2,
                                        "id": 2,
                                        "order": 2
                                    },
                                    {
                                        "children": [
                                            {
                                                "children": [],
                                                "depth": 3,
                                                "id": 5,
                                                "order": 5
                                            }
                                        ],
                                        "depth": 2,
                                        "id": 4,
                                        "order": 4
                                    },
                                    {
                                        "children": [
                                            {
                                                "children": [
                                                    {
                                                        "children": [],
                                                        "depth": 4,
                                                        "id": 8,
                                                        "order": 8
                                                    },
                                                    {
                                                        "children": [],
                                                        "depth": 4,
                                                        "id": 9,
                                                        "order": 9
                                                    }
                                                ],
                                                "depth": 3,
                                                "id": 7,
                                                "order": 7
                                            }
                                        ],
                                        "depth": 2,
                                        "id": 6,
                                        "order": 6
                                    },
                                    {
                                        "children": [
                                            {
                                                "children": [],
                                                "depth": 3,
                                                "id": 11,
                                                "order": 11
                                            }
                                        ],
                                        "depth": 2,
                                        "id": 10,
                                        "order": 10
                                    },
                                    {
                                        "children": [],
                                        "depth": 2,
                                        "id": 12,
                                        "order": 12
                                    },
                                    {
                                        "children": [
                                            {
                                                "children": [],
                                                "depth": 3,
                                                "id": 14,
                                                "order": 14
                                            }
                                        ],
                                        "depth": 2,
                                        "id": 13,
                                        "order": 13
                                    },
                                    {
                                        "children": [
                                            {
                                                "children": [],
                                                "depth": 3,
                                                "id": 16,
                                                "order": 16
                                            }
                                        ],
                                        "depth": 2,
                                        "id": 15,
                                        "order": 15
                                    },
                                    {
                                        "children": [],
                                        "depth": 2,
                                        "id": 17,
                                        "order": 17
                                    }
                                ],
                                "depth": 1,
                                "id": 1,
                                "order": 1
                            }
                        ],
                        "depth": 0,
                        "id": 0,
                        "order": 0
                    }
                ],
                "depth": -1,
                "id": -1,
                "order": -1
            }
        ],
        "mainTraceNodeCount": 18,
        "parentIdMap": {
            "0": -1,
            "1": 0,
            "10": 1,
            "11": 10,
            "12": 1,
            "13": 1,
            "14": 13,
            "15": 1,
            "16": 15,
            "17": 1,
            "2": 1,
            "3": 2,
            "4": 1,
            "5": 4,
            "6": 1,
            "7": 6,
            "8": 7,
            "9": 7
        },
        "tidyTrace": [
            {
                "children": [
                    {
                        "children": [
                            {
                                "children": [
                                    {
                                        "children": [
                                            {
                                                "children": [
                                                    {
                                                        "children": [],
                                                        "depth": 4,
                                                        "id": 8,
                                                        "order": 8
                                                    },
                                                    {
                                                        "children": [],
                                                        "depth": 4,
                                                        "id": 9,
                                                        "order": 9
                                                    }
                                                ],
                                                "depth": 3,
                                                "id": 7,
                                                "order": 7
                                            }
                                        ],
                                        "depth": 2,
                                        "id": 6,
                                        "order": 6
                                    },
                                    {
                                        "children": [],
                                        "depth": 2,
                                        "id": 12,
                                        "order": 12
                                    },
                                    {
                                        "children": [],
                                        "depth": 2,
                                        "id": 17,
                                        "order": 17
                                    }
                                ],
                                "depth": 1,
                                "id": 1,
                                "order": 1
                            }
                        ],
                        "depth": 0,
                        "id": 0,
                        "order": 0
                    }
                ],
                "depth": -1,
                "id": -1,
                "order": -1
            }
        ],
        "tidyTraceNodeCount": 8
    },
    "state_change": {
        "stateChanges": [
            {
                "address": "0x2d7d5f298067e81e8827eb686428881f4c988dc1",
                "erc": "ERC-20",
                "slots": [
                    {
                        "current": "0x0000000000000000000000000000000000000000000000001bc16d674ec80000",
                        "key": "0x6aee0d68d594306ffc916d5ce502fb4370fc68c00e06ad1d19fceb9fdcbf1120",
                        "prev": "0x0000000000000000000000000000000000000000000000000de0b6b3a7640000"
                    },
                    {
                        "current": "0x0000000000000000000000000000000000000000000000000000000000000001",
                        "key": "0x6aee0d68d594306ffc916d5ce502fb4370fc68c00e06ad1d19fceb9fdcbf1121",
                        "prev": "0x0000000000000000000000000000000000000000000000000000000000000000"
                    },
                    {
                        "current": "0x0000000000000000000000000000000000000000000000000000000000000002",
                        "key": "0x6aee0d68d594306ffc916d5ce502fb4370fc68c00e06ad1d19fceb9fdcbf111c",
                        "prev": "0x0000000000000000000000000000000000000000000000000000000000000001"
                    },
                    {
                        "current": "0x0000000000000000000000000000000000000000000000000000000000000101",
                        "key": "0x99d267c760c4e986f4141d26857cfd43d479aa0aa6148c5cc8a298391e351a16",
                        "prev": "0x0000000000000000000000000000000000000000000000000000000000000000"
                    },
                    {
                        "current": "0x0000000000000000000000000000000000000000000000001bc16d674ec80000",
                        "key": "0x5ee235b5df3ebbf7be4ff5f27cc8f499b08db31e50513a59f869dc79d6f9740a",
                        "prev": "0x0000000000000000000000000000000000000000000000000de0b6b3a7640000"
                    }
                ],
                "storageVariables": [
                    {
                        "name": "hasVoted",
                        "type": "mapping(uint256 => mapping(address => struct VoterUpgradeable.hasVotedStruct))",
                        "value": {
                            "pairs": [
                                {
                                    "key": "1175",
                                    "value": {
                                        "pairs": [
                                            {
                                                "key": "0x33aee8d62c7588fff9935c83fd24e344b4309e5d",
                                                "value": {
                                                    "fields": [
                                                        {
                                                            "name": "voted",
                                                            "type": "bool",
                                                            "value": {
                                                                "current": "true",
                                                                "prev": "false",
                                                                "typeTag": 1
                                                            }
                                                        },
                                                        {
                                                            "name": "option",
                                                            "type": "uint8",
                                                            "value": {
                                                                "current": "1",
                                                                "prev": "0",
                                                                "typeTag": 1
                                                            }
                                                        }
                                                    ],
                                                    "typeTag": 3
                                                }
                                            }
                                        ],
                                        "typeTag": 4
                                    }
                                }
                            ],
                            "typeTag": 4
                        }
                    },
                    {
                        "name": "voteWeight",
                        "type": "mapping(uint256 => mapping(uint8 => uint256))",
                        "value": {
                            "pairs": [
                                {
                                    "key": "1175",
                                    "value": {
                                        "pairs": [
                                            {
                                                "key": "1",
                                                "value": {
                                                    "current": "2000000000000000000",
                                                    "prev": "1000000000000000000",
                                                    "typeTag": 1
                                                }
                                            }
                                        ],
                                        "typeTag": 4
                                    }
                                }
                            ],
                            "typeTag": 4
                        }
                    },
                    {
                        "name": "issueMap",
                        "type": "mapping(uint256 => struct VoterUpgradeable.issueStruct)",
                        "value": {
                            "pairs": [
                                {
                                    "key": "1175",
                                    "value": {
                                        "fields": [
                                            {
                                                "name": "status",
                                                "type": "enum VoterUpgradeable.ProposalStatus",
                                                "value": {
                                                    "current": "2",
                                                    "prev": "1",
                                                    "typeTag": 1
                                                }
                                            },
                                            {
                                                "name": "maxVotes",
                                                "type": "uint256",
                                                "value": {
                                                    "current": "2000000000000000000",
                                                    "prev": "1000000000000000000",
                                                    "typeTag": 1
                                                }
                                            },
                                            {
                                                "name": "resultOption",
                                                "type": "uint8",
                                                "value": {
                                                    "current": "1",
                                                    "prev": "0",
                                                    "typeTag": 1
                                                }
                                            }
                                        ],
                                        "typeTag": 3
                                    }
                                }
                            ],
                            "typeTag": 4
                        }
                    }
                ]
            }
        ]
    }
}