{
    "balance_change": {
        "balanceChanges": [
            {
                "account": "0xcd9613d5709a76cc33fec5923f6e18db076223c4",
                "assets": [
                    {
                        "address": "0x9dfe4643c04078a46803edcc30a3291b76d4c20c",
                        "amount": "4,000",
                        "iconUrl": "",
                        "isERC1155": false,
                        "isERC721": false,
                        "sign": false,
                        "value": ""
                    }
                ]
            },
            {
                "account": "0x6c70b01459fdc6d742adf15da8f797c2ade955b9",
                "assets": [
                    {
                        "address": "0x9dfe4643c04078a46803edcc30a3291b76d4c20c",
                        "amount": "4,000",
                        "iconUrl": "",
                        "isERC1155": false,
                        "isERC721": false,
                        "sign": true,
                        "value": ""
                    }
                ]
            }
        ]
    },
    "profile": {
        "basic_info": {
            "baseFee": "",
            "blockNumber": 4398285,
            "callData": "0xa9059cbb0000000000000000000000006c70b01459fdc6d742adf15da8f797c2ade955b90000000000000000000000000000000000000000000000d8d726b7177a800000",
            "debugEnable": true,
            "errorInfo": "",
            "eventCount": 1,
            "feeRecipient": "0x5a0b54d5dc17e0aadc383d2db43b0a0d3e029c4c",
            "formatValue": "0",
            "gasLimit": 53000,
            "gasPrice": "1",
            "gasUsed": 52456,
            "intTxnCount": 0,
            "internalRevert": false,
            "internalRevertMessage": "",
            "isContractCreation": false,
            "isFlashloan": false,
            "maxFee": "",
            "nonce": 393,
            "overwritedBlockNumber": -1,
            "priorityFee": "",
            "receiver": "0x9dfe4643c04078a46803edcc30a3291b76d4c20c",
            "revertMessage": "",
            "sender": "0xcd9613d5709a76cc33fec5923f6e18db076223c4",
            "simulationEnable": true,
            "sourceTxnHash": "0x0dd845bc2ed9c7ad685fcfc6f09acd173466b1879091f198a492d82ff2ac78b6",
            "status": true,
            "timestamp": "2017-10-20T22:42:04Z",
            "transactionFee": "0.000052456",
            "txnHash": "0x0dd845bc2ed9c7ad685fcfc6f09acd173466b1879091f198a492d82ff2ac78b6",
            "txnIndex": 23,
            "type": 0,
            "value": "0"
        },
        "fund_flow": [
            {
                "amount": "4,000",
                "from": "0xcd9613d5709a76cc33fec5923f6e18db076223c4",
                "id": 1,
                "isERC1155": false,
                "isERC721": false,
                "isReverted": false,
                "order": 1,
                "to": "0x6c70b01459fdc6d742adf15da8f797c2ade955b9",
                "token": "0x9dfe4643c04078a46803edcc30a3291b76d4c20c"
            }
        ],
        "token_infos": [
            {
                "address": "0x9dfe4643c04078a46803edcc30a3291b76d4c20c",
                "decimals": 18
            },
            {
                "address": "0xc02aaa39b223fe8d0a0e5c4f27ead9083c756cc2",
                "decimals": 18
            },
            {
                "address": "0xeeeeeeeeeeeeeeeeeeeeeeeeeeeeeeeeeeeeeeee",
                "decimals": 18
            }
        ]
    },
    "address_label": {
        "labels": [
            {
                "address": "0x0000000000000000000000000000000000000003",
                "label": "Precompiled"
            },
            {
                "address": "0x0000000000000000000000000000000000000004",
                "label": "Precompiled"
            },
            {
                "address": "0xeeeeeeeeeeeeeeeeeeeeeeeeeeeeeeeeeeeeeeee",
                "label": "Ether"
            },
            {
                "address": "0x9dfe4643c04078a46803edcc30a3291b76d4c20c",
                "label": "GEN"
            },
            {
                "address": "0x0000000000000000000000000000000000000001",
                "label": "Precompiled"
            },
            {
                "address": "0x0000000000000000000000000000000000000002",
                "label": "Precompiled"
            }
        ]
    },
    "trace": {
        "accountLabels": null,
        "dataMap": {
            "-1": {
                "invocation": {
                    "address": "0xcd9613d5709a76cc33fec5923f6e18db076223c4",
                    "callData": "",
                    "decodedMethod": null,
                    "errorInfo": "",
                    "fromAddress": "",
                    "gasUsed": 0,
                    "id": -1,
                    "methodDecoded": false,
                    "operation": "",
                    "output": "",
                    "revert": false,
                    "revertMessage": "",
                    "selector": "",
                    "status": false,
                    "value": ""
                },
                "nodeType": 0
            },
            "0": {
                "invocation": {
                    "address": "0x9dfe4643c04078a46803edcc30a3291b76d4c20c",
                    "callData": "0x0000000000000000000000006c70b01459fdc6d742adf15da8f797c2ade955b90000000000000000000000000000000000000000000000d8d726b7177a800000",
                    "decodedMethod": {
                        "callParams": [
                            {
                                "name": "_to",
                                "type": "address",
                                "value": "0x6c70b01459fdc6d742adf15da8f797c2ade955b9"
                            },
                            {
                                "decimalAvailable": true,
                                "name": "_amount",
                                "type": "uint256",
                                "value": "4,000,000,000,000,000,000,000"
                            }
                        ],
                        "constructorArguments": "",
                        "name": "transfer",
                        "returnParams": [
                            {
                                "name": "success",
                                "type": "bool",
                                "value": true
                            }
                        ],
                        "signature": "transfer(address,uint256)"
                    },
                    "errorInfo": "",
                    "fromAddress": "0xcd9613d5709a76cc33fec5923f6e18db076223c4",
                    "gasUsed": 52456,
                    "id": 0,
                    "methodDecoded": true,
                    "operation": "CALL",
                    "output": "0x0000000000000000000000000000000000000000000000000000000000000001",
                    "revert": false,
                    "revertMessage": "",
                    "selector": "0xa9059cbb",
                    "status": true,
                    "value": "0"
                },
                "nodeType": 0
            },
            "1": {
                "event": {
                    "contract": "0x9dfe4643c04078a46803edcc30a3291b76d4c20c",
                    "decodedLog": {
                        "name": "Transfer",
                        "params": [
                            {
                                "name": "_from",
                                "type": "address",
                                "value": "0xcd9613d5709a76cc33fec5923f6e18db076223c4"
                            },
                            {
                                "name": "_to",
                                "type": "address",
                                "value": "0x6c70b01459fdc6d742adf15da8f797c2ade955b9"
                            },
                            {
                                "decimalAvailable": true,
                                "name": "_value",
                                "type": "uint256",
                                "value": "4,000,000,000,000,000,000,000"
                            }
                        ],
                        "signature": "Transfer(address,address,uint256)"
                    },
                    "id": 1,
                    "logData": "0x0000000000000000000000000000000000000000000000d8d726b7177a800000",
                    "logDecoded": true,
                    "operation": "EVENT",
                    "revert": false,
                    "status": true,
                    "topics": [
                        "0xddf252ad1be2c89b69c2b068fc378daa952ba7f163c4a11628f55a4df523b3ef",
                        "0x000000000000000000000000cd9613d5709a76cc33fec5923f6e18db076223c4",
                        "0x0000000000000000000000006c70b01459fdc6d742adf15da8f797c2ade955b9"
                    ]
                },
                "nodeType": 1
            }
        },
        "gasFlame": [
            {
                "children": [
                    {
                        "children": [
                            {
                                "children": [],
                                "depth": 0,
                                "name": "Initial Gas",
                                "value": 23256
                            },
                            {
                                "children": [],
                                "depth": 0,
                                "name": "Executed Gas",
                                "value": 29200
                            }
                        ],
                        "depth": -1,
                        "name": "Actual Gas Used",
                        "value": 52456
                    },
                    {
                        "children": [],
                        "depth": -1,
                        "name": "Refunded Gas",
                        "value": 0
                    }
                ],
                "depth": -2,
                "name": "Total Gas",
                "value": 52456
            }
        ],
        "isConfirmed": true,
        "mainTrace": [
            {
                "children": [
                    {
                        "children": [
                            {
                                "children": [],
                                "depth": 1,
                                "id": 1,
                                "order": 1
                            }
                        ],
                        "depth": 0,
                        "id": 0,
                        "order": 0
                    }
                ],
                "depth": -1,
                "id": -1,
                "order": -1
            }
        ],
        "mainTraceNodeCount": 2,
        "parentIdMap": {
            "0": -1,
            "1": 0
        },
        "tidyTrace": [
            {
                "children": [
                    {
                        "children": [
                            {
                                "children": [],
                                "depth": 1,
                                "id": 1,
                                "order": 1
                            }
                        ],
                        "depth": 0,
                        "id": 0,
                        "order": 0
                    }
                ],
                "depth": -1,
                "id": -1,
                "order": -1
            }
        ],
        "tidyTraceNodeCount": 2
    },
    "state_change": {
        "stateChanges": [
            {
                "address": "0x9dfe4643c04078a46803edcc30a3291b76d4c20c",
                "erc": "ERC-20",
                "slots": [
                    {
                        "current": "0x00000000000000000000000000000000000000000000b6f588aa7bcf5c000000",
                        "key": "0xe214ef8f3a23cc60895c51a6c9bb8a2433a5ce99a87e57c1e5865dd551c7a58d",
                        "prev": "0x00000000000000000000000000000000000000000000b7ce5fd132e6d6800000"
                    },
                    {
                        "current": "0x0000000000000000000000000000000000000000000000d8d726b7177a800000",
                        "key": "0xff866673849203dc5250d06d9e1008806796749cfec95c24343d973c8823a2ea",
                        "prev": "0x0000000000000000000000000000000000000000000000000000000000000000"
                    }
                ],
                "storageVariables": [
                    {
                        "name": "balances",
                        "type": "mapping(address => uint256)",
                        "value": {
                            "pairs": [
                                {
                                    "key": "0x6c70b01459fdc6d742adf15da8f797c2ade955b9",
                                    "value": {
                                        "current": "4000000000000000000000",
                                        "prev": "0",
                                        "typeTag": 1
                                    }
                                },
                                {
                                    "key": "0xcd9613d5709a76cc33fec5923f6e18db076223c4",
                                    "value": {
                                        "current": "864000000000000000000000",
                                        "prev": "868000000000000000000000",
                                        "typeTag": 1
                                    }
                                }
                            ],
                            "typeTag": 4
                        }
                    }
                ]
            }
        ]
    }
}