{
    "balance_change": {
        "balanceChanges": []
    },
    "profile": {
        "basic_info": {
            "baseFee": "27.434159143",
            "blockNumber": 16790494,
            "callData": "0x85b2566a0000000000000000000000008f05e5eee6cfef44026f5a69766ae8a466de88370000000000000000000000000000000000000000000000000853a0d2313c000000000000000000000000000000000000000000000000000000000000000000a0000000000000000000000000000000000000000000000000000000000000010000000000000000000000000000000000000000000000000000000000000001600000000000000000000000000000000000000000000000000000000000000002000000000000000000000000000000000000000000000000000000000000000100000000000000000000000000000000000000000000000000000000000000010000000000000000000000000000000000000000000000000000000000000002df59f2f43d5eea8bea670323f2e3a6ac97887f46dd877fc9447853b1df723c24443054d48ee7116ff3c804671f88aad92a9f293afb5ed7c84593612afa04dce5000000000000000000000000000000000000000000000000000000000000000230459b3258a6101501f4b74964753261006d7995a254f11dad6badb20149b5f71cb84da5dd4bfea01ec11cad5f50504947bb9d4bfcd5ab498fef477ab52da123",
            "debugEnable": true,
            "errorInfo": "execution reverted",
            "eventCount": 0,
            "feeRecipient": "0xdafea492d9c6733ae3d56b7ed1adb60692c98bc5",
            "formatValue": "0",
            "gasLimit": 150000,
            "gasPrice": "27.49565623",
            "gasUsed": 41910,
            "intTxnCount": 2,
            "internalRevert": true,
            "internalRevertMessage": "",
            "isContractCreation": false,
            "isFlashloan": false,
            "maxFee": "50.862874291",
            "nonce": 22869,
            "overwritedBlockNumber": -1,
            "priorityFee": "0.061497087",
            "receiver": "0xeebc1b0e0f19bd03502ada32cb7a9e217568dceb",
            "revertMessage": "",
            "sender": "0xcf1dc766fc2c62bef0b67a8de666c8e67acf35f6",
            "simulationEnable": true,
            "sourceTxnHash": "0x0ddad04b8926a498687470a0952e88126a8f8c46d27fd839a6af3b3b06002e93",
            "status": false,
            "timestamp": "2023-03-09T11:56:47Z",
            "transactionFee": "0.0011523429525993",
            "txnHash": "0x0ddad04b8926a498687470a0952e88126a8f8c46d27fd839a6af3b3b06002e93",
            "txnIndex": 107,
            "type": 2,
            "value": "0"
        },
        "fund_flow": [],
        "token_infos": [
            {
                "address": "0xc02aaa39b223fe8d0a0e5c4f27ead9083c756cc2",
                "decimals": 18
            },
            {
                "address": "0xeeeeeeeeeeeeeeeeeeeeeeeeeeeeeeeeeeeeeeee",
                "decimals": 18
            }
        ]
    },
    "address_label": {
        "labels": [
            {
                "address": "0xeeeeeeeeeeeeeeeeeeeeeeeeeeeeeeeeeeeeeeee",
                "label": "Ether"
            },
            {
                "address": "0xeebc1b0e0f19bd03502ada32cb7a9e217568dceb",
                "label": "Fintoch DC (FTH-DC)"
            },
            {
                "address": "0x0000000000000000000000000000000000000001",
                "label": "Precompiled"
            },
            {
                "address": "0x0000000000000000000000000000000000000002",
                "label": "Precompiled"
            },
            {
                "address": "0x0000000000000000000000000000000000000003",
                "label": "Precompiled"
            },
            {
                "address": "0x0000000000000000000000000000000000000004",
                "label": "Precompiled"
            }
        ]
    },
    "trace": {
        "accountLabels": null,
        "dataMap": {
            "-1": {
                "invocation": {
                    "address": "0xcf1dc766fc2c62bef0b67a8de666c8e67acf35f6",
                    "callData": "",
                    "decodedMethod": null,
                    "errorInfo": "",
                    "fromAddress": "",
                    "gasUsed": 0,
                    "id": -1,
                    "methodDecoded": false,
                    "operation": "",
                    "output": "",
                    "revert": false,
                    "revertMessage": "",
                    "selector": "",
                    "status": false,
                    "value": ""
                },
                "nodeType": 0
            },
            "0": {
                "invocation": {
                    "address": "0xeebc1b0e0f19bd03502ada32cb7a9e217568dceb",
                    "callData": "0x0000000000000000000000008f05e5eee6cfef44026f5a69766ae8a466de88370000000000000000000000000000000000000000000000000853a0d2313c000000000000000000000000000000000000000000000000000000000000000000a0000000000000000000000000000000000000000000000000000000000000010000000000000000000000000000000000000000000000000000000000000001600000000000000000000000000000000000000000000000000000000000000002000000000000000000000000000000000000000000000000000000000000000100000000000000000000000000000000000000000000000000000000000000010000000000000000000000000000000000000000000000000000000000000002df59f2f43d5eea8bea670323f2e3a6ac97887f46dd877fc9447853b1df723c24443054d48ee7116ff3c804671f88aad92a9f293afb5ed7c84593612afa04dce5000000000000000000000000000000000000000000000000000000000000000230459b3258a6101501f4b74964753261006d7995a254f11dad6badb20149b5f71cb84da5dd4bfea01ec11cad5f50504947bb9d4bfcd5ab498fef477ab52da123",
                    "decodedMethod": {
                        "callParams": [
                            {
                                "name": "destination",
                                "type": "address",
                                "value": "0x8f05e5eee6cfef44026f5a69766ae8a466de8837"
                            },
                            {
                                "name": "value",
                                "type": "uint256",
                                "value": "600,000,000,000,000,000"
                            },
                            {
                                "name": "vs",
                                "type": "uint8[]",
                                "value": [
                                    "1",
                                    "1"
                                ]
                            },
                            {
                                "name": "rs",
                                "type": "bytes32[]",
                                "value": [
                                    "0xdf59f2f43d5eea8bea670323f2e3a6ac97887f46dd877fc9447853b1df723c24",
                                    "0x443054d48ee7116ff3c804671f88aad92a9f293afb5ed7c84593612afa04dce5"
                                ]
                            },
                            {
                                "name": "ss",
                                "type": "bytes32[]",
                                "value": [
                                    "0x30459b3258a6101501f4b74964753261006d7995a254f11dad6badb20149b5f7",
                                    "0x1cb84da5dd4bfea01ec11cad5f50504947bb9d4bfcd5ab498fef477ab52da123"
                                ]
                            }
                        ],
                        "constructorArguments": "",
                        "name": "spend",
                        "returnParams": [],
                        "signature": "spend(address,uint256,uint8[],bytes32[],bytes32[])"
                    },
                    "errorInfo": "execution reverted",
                    "fromAddress": "0xcf1dc766fc2c62bef0b67a8de666c8e67acf35f6",
                    "gasUsed": 41910,
                    "id": 0,
                    "methodDecoded": true,
                    "operation": "CALL",
                    "output": "",
                    "revert": true,
                    "revertMessage": "",
                    "selector": "0x85b2566a",
                    "status": false,
                    "value": "0"
                },
                "nodeType": 0
            },
            "1": {
                "invocation": {
                    "address": "0x0000000000000000000000000000000000000001",
                    "callData": "0x5fd6c9fe00c17550069afb0a132f3e55e19519a3731bef03b7ad2430000000000000000000000000000000000000000000000000000000000000001cdf59f2f43d5eea8bea670323f2e3a6ac97887f46dd877fc9447853b1df723c2430459b3258a6101501f4b74964753261006d7995a254f11dad6badb20149b5f7",
                    "decodedMethod": {
                        "callParams": [
                            {
                                "name": "hash",
                                "type": "bytes32",
                                "value": "0x489cf9645fd6c9fe00c17550069afb0a132f3e55e19519a3731bef03b7ad2430"
                            },
                            {
                                "name": "v",
                                "type": "uint256",
                                "value": "28"
                            },
                            {
                                "name": "r",
                                "type": "bytes32",
                                "value": "0xdf59f2f43d5eea8bea670323f2e3a6ac97887f46dd877fc9447853b1df723c24"
                            },
                            {
                                "name": "s",
                                "type": "bytes32",
                                "value": "0x30459b3258a6101501f4b74964753261006d7995a254f11dad6badb20149b5f7"
                            }
                        ],
                        "constructorArguments": "",
                        "name": "ecrecover",
                        "returnParams": [
                            {
                                "name": "",
                                "type": "address",
                                "value": "0x87f24d72c868d8b5e3ce4e461040c03ab28bc0a4"
                            }
                        ],
                        "signature": "ecrecover(bytes32,uint256,bytes32,bytes32)"
                    },
                    "errorInfo": "",
                    "fromAddress": "0xeebc1b0e0f19bd03502ada32cb7a9e217568dceb",
                    "gasUsed": 3000,
                    "id": 1,
                    "methodDecoded": true,
                    "operation": "STATICCALL",
                    "output": "0x00000000000000000000000087f24d72c868d8b5e3ce4e461040c03ab28bc0a4",
                    "revert": true,
                    "revertMessage": "",
                    "selector": "0x489cf964",
                    "status": true,
                    "value": "0"
                },
                "nodeType": 0
            },
            "2": {
                "invocation": {
                    "address": "0x0000000000000000000000000000000000000001",
                    "callData": "0x5fd6c9fe00c17550069afb0a132f3e55e19519a3731bef03b7ad2430000000000000000000000000000000000000000000000000000000000000001c443054d48ee7116ff3c804671f88aad92a9f293afb5ed7c84593612afa04dce51cb84da5dd4bfea01ec11cad5f50504947bb9d4bfcd5ab498fef477ab52da123",
                    "decodedMethod": {
                        "callParams": [
                            {
                                "name": "hash",
                                "type": "bytes32",
                                "value": "0x489cf9645fd6c9fe00c17550069afb0a132f3e55e19519a3731bef03b7ad2430"
                            },
                            {
                                "name": "v",
                                "type": "uint256",
                                "value": "28"
                            },
                            {
                                "name": "r",
                                "type": "bytes32",
                                "value": "0x443054d48ee7116ff3c804671f88aad92a9f293afb5ed7c84593612afa04dce5"
                            },
                            {
                                "name": "s",
                                "type": "bytes32",
                                "value": "0x1cb84da5dd4bfea01ec11cad5f50504947bb9d4bfcd5ab498fef477ab52da123"
                            }
                        ],
                        "constructorArguments": "",
                        "name": "ecrecover",
                        "returnParams": [
                            {
                                "name": "",
                                "type": "address",
                                "value": "0x9ef8b1212eb4cafb1a302a7bd63af1d606a17899"
                            }
                        ],
                        "signature": "ecrecover(bytes32,uint256,bytes32,bytes32)"
                    },
                    "errorInfo": "",
                    "fromAddress": "0xeebc1b0e0f19bd03502ada32cb7a9e217568dceb",
                    "gasUsed": 3000,
                    "id": 2,
                    "methodDecoded": true,
                    "operation": "STATICCALL",
                    "output": "0x0000000000000000000000009ef8b1212eb4cafb1a302a7bd63af1d606a17899",
                    "revert": true,
                    "revertMessage": "",
                    "selector": "0x489cf964",
                    "status": true,
                    "value": "0"
                },
                "nodeType": 0
            }
        },
        "gasFlame": [
            {
                "children": [
                    {
                        "children": [
                            {
                                "children": [],
                                "depth": 0,
                                "name": "Initial Gas",
                                "value": 24800
                            },
                            {
                                "children": [
                                    {
                                        "children": [],
                                        "depth": 1,
                                        "name": "ecrecover",
                                        "value": 3000
                                    },
                                    {
                                        "children": [],
                                        "depth": 1,
                                        "name": "ecrecover",
                                        "value": 3000
                                    }
                                ],
                                "depth": 0,
                                "name": "Executed Gas",
                                "value": 17110
                            }
                        ],
                        "depth": -1,
                        "name": "Actual Gas Used",
                        "value": 41910
                    },
                    {
                        "children": [],
                        "depth": -1,
                        "name": "Refunded Gas",
                        "value": 0
                    }
                ],
                "depth": -2,
                "name": "Total Gas",
                "value": 41910
            }
        ],
        "isConfirmed": true,
        "mainTrace": [
            {
                "children": [
                    {
                        "children": [
                            {
                                "children": [],
                                "depth": 1,
                                "id": 1,
                                "order": 1
                            },
                            {
                                "children": [],
                                "depth": 1,
                                "id": 2,
                                "order": 2
                            }
                        ],
                        "depth": 0,
                        "id": 0,
                        "order": 0
                    }
                ],
                "depth": -1,
                "id": -1,
                "order": -1
            }
        ],
        "mainTraceNodeCount": 3,
        "parentIdMap": {
            "0": -1,
            "1": 0,
            "2": 0
        },
        "tidyTrace": [
            {
                "children": [
                    {
                        "children": [],
                        "depth": 0,
                        "id": 0,
                        "order": 0
                    }
                ],
                "depth": -1,
                "id": -1,
                "order": -1
            }
        ],
        "tidyTraceNodeCount": 1
    },
    "state_change": {
        "stateChanges": []
    }
}