{
    "balance_change": {
        "balanceChanges": []
    },
    "profile": {
        "basic_info": {
            "baseFee": "",
            "blockNumber": 11579401,
            "callData": "0xbb7e70ef0000000000000000000000007c3c9b1db6dbdce2f5ed8fe0e37dc3a6698f23f800000000000000000000000000000000000000000000000000000000000000010000000000000000000000000000000000000000000000000000000000000000",
            "debugEnable": true,
            "errorInfo": "",
            "eventCount": 2,
            "feeRecipient": "0x00192fb10df37c9fb26829eb2cc623cd1bf599e8",
            "formatValue": "0",
            "gasLimit": 260043,
            "gasPrice": "49.5",
            "gasUsed": 234008,
            "intTxnCount": 8,
            "internalRevert": false,
            "internalRevertMessage": "",
            "isContractCreation": false,
            "isFlashloan": false,
            "maxFee": "",
            "nonce": 40,
            "overwritedBlockNumber": -1,
            "priorityFee": "",
            "receiver": "0x2971adfa57b20e5a416ae5a708a8655a9c74f723",
            "revertMessage": "",
            "sender": "0x7c3c9b1db6dbdce2f5ed8fe0e37dc3a6698f23f8",
            "simulationEnable": true,
            "sourceTxnHash": "0x0e63120f6b07fbb1104fa406e492b97bac662d99196fd703a6a2c2515ef2d87a",
            "status": true,
            "timestamp": "2021-01-03T04:44:20Z",
            "transactionFee": "0.011583396",
            "txnHash": "0x0e63120f6b07fbb1104fa406e492b97bac662d99196fd703a6a2c2515ef2d87a",
            "txnIndex": 97,
            "type": 0,
            "value": "0"
        },
        "fund_flow": [],
        "token_infos": [
            {
                "address": "0xc02aaa39b223fe8d0a0e5c4f27ead9083c756cc2",
                "decimals": 18
            },
            {
                "address": "0xeeeeeeeeeeeeeeeeeeeeeeeeeeeeeeeeeeeeeeee",
                "decimals": 18
            }
        ]
    },
    "address_label": {
        "labels": [
            {
                "address": "0xeeeeeeeeeeeeeeeeeeeeeeeeeeeeeeeeeeeeeeee",
                "label": "Ether"
            },
            {
                "address": "0x4c8a1beb8a87765788946d6b19c6c6355194abeb",
                "label": "InstaDApp: List"
            },
            {
                "address": "0x2971adfa57b20e5a416ae5a708a8655a9c74f723",
                "label": "InstaDApp: Index"
            },
            {
                "address": "0x0000000000000000000000000000000000000003",
                "label": "Precompiled"
            },
            {
                "address": "0x0000000000000000000000000000000000000004",
                "label": "Precompiled"
            },
            {
                "address": "0x939daad09fc4a9b8f8a9352a485dab2df4f4b3f8",
                "label": "InstaDApp: Account"
            },
            {
                "address": "0x0000000000000000000000000000000000000000",
                "label": "Null Address"
            },
            {
                "address": "0x0000000000000000000000000000000000000001",
                "label": "Precompiled"
            },
            {
                "address": "0x0000000000000000000000000000000000000002",
                "label": "Precompiled"
            }
        ]
    },
    "trace": {
        "accountLabels": null,
        "dataMap": {
            "-1": {
                "invocation": {
                    "address": "0x7c3c9b1db6dbdce2f5ed8fe0e37dc3a6698f23f8",
                    "callData": "",
                    "decodedMethod": null,
                    "errorInfo": "",
                    "fromAddress": "",
                    "gasUsed": 0,
                    "id": -1,
                    "methodDecoded": false,
                    "operation": "",
                    "output": "",
                    "revert": false,
                    "revertMessage": "",
                    "selector": "",
                    "status": false,
                    "value": ""
                },
                "nodeType": 0
            },
            "0": {
                "invocation": {
                    "address": "0x2971adfa57b20e5a416ae5a708a8655a9c74f723",
                    "callData": "0x0000000000000000000000007c3c9b1db6dbdce2f5ed8fe0e37dc3a6698f23f800000000000000000000000000000000000000000000000000000000000000010000000000000000000000000000000000000000000000000000000000000000",
                    "decodedMethod": {
                        "callParams": [
                            {
                                "name": "_owner",
                                "type": "address",
                                "value": "0x7c3c9b1db6dbdce2f5ed8fe0e37dc3a6698f23f8"
                            },
                            {
                                "name": "accountVersion",
                                "type": "uint256",
                                "value": "1"
                            },
                            {
                                "name": "_origin",
                                "type": "address",
                                "value": "0x0000000000000000000000000000000000000000"
                            }
                        ],
                        "constructorArguments": "",
                        "name": "build",
                        "returnParams": [
                            {
                                "name": "_account",
                                "type": "address",
                                "value": "0x6f3e33f492501726f9f4ef8ab2d54a253004927c"
                            }
                        ],
                        "signature": "build(address,uint256,address)"
                    },
                    "errorInfo": "",
                    "fromAddress": "0x7c3c9b1db6dbdce2f5ed8fe0e37dc3a6698f23f8",
                    "gasUsed": 234008,
                    "id": 0,
                    "methodDecoded": true,
                    "operation": "CALL",
                    "output": "0x0000000000000000000000006f3e33f492501726f9f4ef8ab2d54a253004927c",
                    "revert": false,
                    "revertMessage": "",
                    "selector": "0xbb7e70ef",
                    "status": true,
                    "value": "0"
                },
                "nodeType": 0
            },
            "1": {
                "invocation": {
                    "address": "0x6f3e33f492501726f9f4ef8ab2d54a253004927c",
                    "callData": "0x3d602d80600a3d3981f3363d3d373d3d3d363d73939daad09fc4a9b8f8a9352a485dab2df4f4b3f85af43d82803e903d91602b57fd5bf3",
                    "decodedMethod": null,
                    "errorInfo": "",
                    "fromAddress": "0x2971adfa57b20e5a416ae5a708a8655a9c74f723",
                    "gasUsed": 9031,
                    "id": 1,
                    "methodDecoded": false,
                    "operation": "CREATE",
                    "output": "0x363d3d373d3d3d363d73939daad09fc4a9b8f8a9352a485dab2df4f4b3f85af43d82803e903d91602b57fd5bf3",
                    "revert": false,
                    "revertMessage": "",
                    "selector": "",
                    "status": true,
                    "value": "0"
                },
                "nodeType": 0
            },
            "10": {
                "event": {
                    "contract": "0x2971adfa57b20e5a416ae5a708a8655a9c74f723",
                    "decodedLog": {
                        "name": "LogAccountCreated",
                        "params": [
                            {
                                "name": "owner",
                                "type": "address",
                                "value": "0x7c3c9b1db6dbdce2f5ed8fe0e37dc3a6698f23f8"
                            },
                            {
                                "name": "account",
                                "type": "address",
                                "value": "0x6f3e33f492501726f9f4ef8ab2d54a253004927c"
                            },
                            {
                                "name": "origin",
                                "type": "address",
                                "value": "0x0000000000000000000000000000000000000000"
                            },
                            {
                                "name": "sender",
                                "type": "address",
                                "value": "0x7c3c9b1db6dbdce2f5ed8fe0e37dc3a6698f23f8"
                            }
                        ],
                        "signature": "LogAccountCreated(address,address,address,address)"
                    },
                    "id": 10,
                    "logData": "0x0000000000000000000000007c3c9b1db6dbdce2f5ed8fe0e37dc3a6698f23f8",
                    "logDecoded": true,
                    "operation": "EVENT",
                    "revert": false,
                    "status": true,
                    "topics": [
                        "0x83435eca805f6256e4aa778ee8b2e8aec7485fa4b643a0fff05b7df6bf688389",
                        "0x0000000000000000000000007c3c9b1db6dbdce2f5ed8fe0e37dc3a6698f23f8",
                        "0x0000000000000000000000006f3e33f492501726f9f4ef8ab2d54a253004927c",
                        "0x0000000000000000000000000000000000000000000000000000000000000000"
                    ]
                },
                "nodeType": 1
            },
            "2": {
                "invocation": {
                    "address": "0x4c8a1beb8a87765788946d6b19c6c6355194abeb",
                    "callData": "0x0000000000000000000000006f3e33f492501726f9f4ef8ab2d54a253004927c",
                    "decodedMethod": {
                        "callParams": [
                            {
                                "name": "_account",
                                "type": "address",
                                "value": "0x6f3e33f492501726f9f4ef8ab2d54a253004927c"
                            }
                        ],
                        "constructorArguments": "",
                        "name": "init",
                        "returnParams": [],
                        "signature": "init(address)"
                    },
                    "errorInfo": "",
                    "fromAddress": "0x2971adfa57b20e5a416ae5a708a8655a9c74f723",
                    "gasUsed": 50584,
                    "id": 2,
                    "methodDecoded": true,
                    "operation": "CALL",
                    "output": "",
                    "revert": false,
                    "revertMessage": "",
                    "selector": "0x19ab453c",
                    "status": true,
                    "value": "0"
                },
                "nodeType": 0
            },
            "3": {
                "invocation": {
                    "address": "0x6f3e33f492501726f9f4ef8ab2d54a253004927c",
                    "callData": "0x0000000000000000000000007c3c9b1db6dbdce2f5ed8fe0e37dc3a6698f23f8",
                    "decodedMethod": {
                        "callParams": [
                            {
                                "name": "user",
                                "type": "address",
                                "value": "0x7c3c9b1db6dbdce2f5ed8fe0e37dc3a6698f23f8"
                            }
                        ],
                        "constructorArguments": "",
                        "name": "enable",
                        "returnParams": [],
                        "signature": "enable(address)"
                    },
                    "errorInfo": "",
                    "fromAddress": "0x2971adfa57b20e5a416ae5a708a8655a9c74f723",
                    "gasUsed": 110864,
                    "id": 3,
                    "methodDecoded": true,
                    "operation": "CALL",
                    "output": "",
                    "revert": false,
                    "revertMessage": "",
                    "selector": "0x5bfa1b68",
                    "status": true,
                    "value": "0"
                },
                "nodeType": 0
            },
            "4": {
                "invocation": {
                    "address": "0x939daad09fc4a9b8f8a9352a485dab2df4f4b3f8",
                    "callData": "0x0000000000000000000000007c3c9b1db6dbdce2f5ed8fe0e37dc3a6698f23f8",
                    "decodedMethod": {
                        "callParams": [
                            {
                                "name": "user",
                                "type": "address",
                                "value": "0x7c3c9b1db6dbdce2f5ed8fe0e37dc3a6698f23f8"
                            }
                        ],
                        "constructorArguments": "",
                        "name": "enable",
                        "returnParams": [],
                        "signature": "enable(address)"
                    },
                    "errorInfo": "",
                    "fromAddress": "0x6f3e33f492501726f9f4ef8ab2d54a253004927c",
                    "gasUsed": 110095,
                    "id": 4,
                    "methodDecoded": true,
                    "operation": "DELEGATECALL",
                    "output": "",
                    "revert": false,
                    "revertMessage": "",
                    "selector": "0x5bfa1b68",
                    "status": true,
                    "value": "0"
                },
                "nodeType": 0
            },
            "5": {
                "invocation": {
                    "address": "0x2971adfa57b20e5a416ae5a708a8655a9c74f723",
                    "callData": "0x",
                    "decodedMethod": {
                        "callParams": [],
                        "constructorArguments": "",
                        "name": "list",
                        "returnParams": [
                            {
                                "name": "",
                                "type": "address",
                                "value": "0x4c8a1beb8a87765788946d6b19c6c6355194abeb"
                            }
                        ],
                        "signature": "list()"
                    },
                    "errorInfo": "",
                    "fromAddress": "0x6f3e33f492501726f9f4ef8ab2d54a253004927c",
                    "gasUsed": 1238,
                    "id": 5,
                    "methodDecoded": true,
                    "operation": "STATICCALL",
                    "output": "0x0000000000000000000000004c8a1beb8a87765788946d6b19c6c6355194abeb",
                    "revert": false,
                    "revertMessage": "",
                    "selector": "0x0f560cd7",
                    "status": true,
                    "value": "0"
                },
                "nodeType": 0
            },
            "6": {
                "invocation": {
                    "address": "0x4c8a1beb8a87765788946d6b19c6c6355194abeb",
                    "callData": "0x0000000000000000000000007c3c9b1db6dbdce2f5ed8fe0e37dc3a6698f23f8",
                    "decodedMethod": {
                        "callParams": [
                            {
                                "name": "_owner",
                                "type": "address",
                                "value": "0x7c3c9b1db6dbdce2f5ed8fe0e37dc3a6698f23f8"
                            }
                        ],
                        "constructorArguments": "",
                        "name": "addAuth",
                        "returnParams": [],
                        "signature": "addAuth(address)"
                    },
                    "errorInfo": "",
                    "fromAddress": "0x6f3e33f492501726f9f4ef8ab2d54a253004927c",
                    "gasUsed": 81547,
                    "id": 6,
                    "methodDecoded": true,
                    "operation": "CALL",
                    "output": "",
                    "revert": false,
                    "revertMessage": "",
                    "selector": "0x5422224e",
                    "status": true,
                    "value": "0"
                },
                "nodeType": 0
            },
            "7": {
                "invocation": {
                    "address": "0x6f3e33f492501726f9f4ef8ab2d54a253004927c",
                    "callData": "0x0000000000000000000000007c3c9b1db6dbdce2f5ed8fe0e37dc3a6698f23f8",
                    "decodedMethod": {
                        "callParams": [
                            {
                                "name": "user",
                                "type": "address",
                                "value": "0x7c3c9b1db6dbdce2f5ed8fe0e37dc3a6698f23f8"
                            }
                        ],
                        "constructorArguments": "",
                        "name": "isAuth",
                        "returnParams": [
                            {
                                "name": "",
                                "type": "bool",
                                "value": true
                            }
                        ],
                        "signature": "isAuth(address)"
                    },
                    "errorInfo": "",
                    "fromAddress": "0x4c8a1beb8a87765788946d6b19c6c6355194abeb",
                    "gasUsed": 2356,
                    "id": 7,
                    "methodDecoded": true,
                    "operation": "STATICCALL",
                    "output": "0x0000000000000000000000000000000000000000000000000000000000000001",
                    "revert": false,
                    "revertMessage": "",
                    "selector": "0x2520e7ff",
                    "status": true,
                    "value": "0"
                },
                "nodeType": 0
            },
            "8": {
                "invocation": {
                    "address": "0x939daad09fc4a9b8f8a9352a485dab2df4f4b3f8",
                    "callData": "0x0000000000000000000000007c3c9b1db6dbdce2f5ed8fe0e37dc3a6698f23f8",
                    "decodedMethod": {
                        "callParams": [
                            {
                                "name": "user",
                                "type": "address",
                                "value": "0x7c3c9b1db6dbdce2f5ed8fe0e37dc3a6698f23f8"
                            }
                        ],
                        "constructorArguments": "",
                        "name": "isAuth",
                        "returnParams": [
                            {
                                "name": "",
                                "type": "bool",
                                "value": true
                            }
                        ],
                        "signature": "isAuth(address)"
                    },
                    "errorInfo": "",
                    "fromAddress": "0x6f3e33f492501726f9f4ef8ab2d54a253004927c",
                    "gasUsed": 1584,
                    "id": 8,
                    "methodDecoded": true,
                    "operation": "DELEGATECALL",
                    "output": "0x0000000000000000000000000000000000000000000000000000000000000001",
                    "revert": false,
                    "revertMessage": "",
                    "selector": "0x2520e7ff",
                    "status": true,
                    "value": "0"
                },
                "nodeType": 0
            },
            "9": {
                "event": {
                    "contract": "0x6f3e33f492501726f9f4ef8ab2d54a253004927c",
                    "decodedLog": {
                        "name": "LogEnable",
                        "params": [
                            {
                                "name": "user",
                                "type": "address",
                                "value": "0x7c3c9b1db6dbdce2f5ed8fe0e37dc3a6698f23f8"
                            }
                        ],
                        "signature": "LogEnable(address)"
                    },
                    "id": 9,
                    "logData": "0x",
                    "logDecoded": true,
                    "operation": "EVENT",
                    "revert": false,
                    "status": true,
                    "topics": [
                        "0xdc949ee4159e00c6f6c0277af4718b4329c1e113164f629e30029915196c530f",
                        "0x0000000000000000000000007c3c9b1db6dbdce2f5ed8fe0e37dc3a6698f23f8"
                    ]
                },
                "nodeType": 1
            }
        },
        "gasFlame": [
            {
                "children": [
                    {
                        "children": [
                            {
                                "children": [],
                                "depth": 0,
                                "name": "Initial Gas",
                                "value": 21700
                            },
                            {
                                "children": [
                                    {
                                        "children": [],
                                        "depth": 1,
                                        "name": "contract creation",
                                        "value": 9031
                                    },
                                    {
                                        "children": [],
                                        "depth": 1,
                                        "name": "init",
                                        "value": 50584
                                    },
                                    {
                                        "children": [
                                            {
                                                "children": [
                                                    {
                                                        "children": [],
                                                        "depth": 3,
                                                        "name": "list",
                                                        "value": 1238
                                                    },
                                                    {
                                                        "children": [
                                                            {
                                                                "children": [
                                                                    {
                                                                        "children": [],
                                                                        "depth": 5,
                                                                        "name": "isAuth",
                                                                        "value": 1584
                                                                    }
                                                                ],
                                                                "depth": 4,
                                                                "name": "isAuth",
                                                                "value": 2356
                                                            }
                                                        ],
                                                        "depth": 3,
                                                        "name": "addAuth",
                                                        "value": 81547
                                                    }
                                                ],
                                                "depth": 2,
                                                "name": "enable",
                                                "value": 110095
                                            }
                                        ],
                                        "depth": 1,
                                        "name": "enable",
                                        "value": 110864
                                    }
                                ],
                                "depth": 0,
                                "name": "Executed Gas",
                                "value": 212308
                            }
                        ],
                        "depth": -1,
                        "name": "Actual Gas Used",
                        "value": 234008
                    },
                    {
                        "children": [],
                        "depth": -1,
                        "name": "Refunded Gas",
                        "value": 0
                    }
                ],
                "depth": -2,
                "name": "Total Gas",
                "value": 234008
            }
        ],
        "isConfirmed": true,
        "mainTrace": [
            {
                "children": [
                    {
                        "children": [
                            {
                                "children": [],
                                "depth": 1,
                                "id": 1,
                                "order": 1
                            },
                            {
                                "children": [],
                                "depth": 1,
                                "id": 2,
                                "order": 2
                            },
                            {
                                "children": [
                                    {
                                        "children": [
                                            {
                                                "children": [],
                                                "depth": 3,
                                                "id": 5,
                                                "order": 5
                                            },
                                            {
                                                "children": [
                                                    {
                                                        "children": [
                                                            {
                                                                "children": [],
                                                                "depth": 5,
                                                                "id": 8,
                                                                "order": 8
                                                            }
                                                        ],
                                                        "depth": 4,
                                                        "id": 7,
                                                        "order": 7
                                                    }
                                                ],
                                                "depth": 3,
                                                "id": 6,
                                                "order": 6
                                            },
                                            {
                                                "children": [],
                                                "depth": 3,
                                                "id": 9,
                                                "order": 9
                                            }
                                        ],
                                        "depth": 2,
                                        "id": 4,
                                        "order": 4
                                    }
                                ],
                                "depth": 1,
                                "id": 3,
                                "order": 3
                            },
                            {
                                "children": [],
                                "depth": 1,
                                "id": 10,
                                "order": 10
                            }
                        ],
                        "depth": 0,
                        "id": 0,
                        "order": 0
                    }
                ],
                "depth": -1,
                "id": -1,
                "order": -1
            }
        ],
        "mainTraceNodeCount": 11,
        "parentIdMap": {
            "0": -1,
            "1": 0,
            "10": 0,
            "2": 0,
            "3": 0,
            "4": 3,
            "5": 4,
            "6": 4,
            "7": 6,
            "8": 7,
            "9": 4
        },
        "tidyTrace": [
            {
                "children": [
                    {
                        "children": [
                            {
                                "children": [],
                                "depth": 1,
                                "id": 1,
                                "order": 1
                            },
                            {
                                "children": [],
                                "depth": 1,
                                "id": 2,
                                "order": 2
                            },
                            {
                                "children": [
                                    {
                                        "children": [
                                            {
                                                "children": [],
                                                "depth": 3,
                                                "id": 6,
                                                "order": 6
                                            },
                                            {
                                                "children": [],
                                                "depth": 3,
                                                "id": 9,
                                                "order": 9
                                            }
                                        ],
                                        "depth": 2,
                                        "id": 4,
                                        "order": 4
                                    }
                                ],
                                "depth": 1,
                                "id": 3,
                                "order": 3
                            },
                            {
                                "children": [],
                                "depth": 1,
                                "id": 10,
                                "order": 10
                            }
                        ],
                        "depth": 0,
                        "id": 0,
                        "order": 0
                    }
                ],
                "depth": -1,
                "id": -1,
                "order": -1
            }
        ],
        "tidyTraceNodeCount": 8
    },
    "state_change": {
        "stateChanges": [
            {
                "address": "0x4c8a1beb8a87765788946d6b19c6c6355194abeb",
                "erc": "",
                "slots": [
                    {
                        "current": "0x00000000000000000000000000000000000000000000000000000000000042bb",
                        "key": "0x0000000000000000000000000000000000000000000000000000000000000000",
                        "prev": "0x00000000000000000000000000000000000000000000000000000000000042ba"
                    },
                    {
                        "current": "0x00000000000000000000000000000000000000000000000000000000000042bb",
                        "key": "0x8b3c9de851c6e975c61a98bf119a0b2fb2a0174e27039e74e0f2161ba396e35b",
                        "prev": "0x0000000000000000000000000000000000000000000000000000000000000000"
                    },
                    {
                        "current": "0x0000000000000000000000006f3e33f492501726f9f4ef8ab2d54a253004927c",
                        "key": "0x043e23df6683e5c274ed166992bcb89fa9dece4f84df8a2e6f253b45e0b1a910",
                        "prev": "0x0000000000000000000000000000000000000000000000000000000000000000"
                    },
                    {
                        "current": "0x0000000000000000000000000000000100000000000042bb00000000000042bb",
                        "key": "0xd81c6903b7d76a88e20f92e52dff05d86eabf9d1a146e63a5a5d4402fbfdcb61",
                        "prev": "0x0000000000000000000000000000000000000000000000000000000000000000"
                    },
                    {
                        "current": "0x0000000000000000000000007c3c9b1db6dbdce2f5ed8fe0e37dc3a6698f23f8",
                        "key": "0x85993b11612ee45a55bb86777e5e2a688a635b3273fa5018dda0ca7eae513ff7",
                        "prev": "0x0000000000000000000000000000000000000000000000000000000000000000"
                    },
                    {
                        "current": "0x0000000000000000000000017c3c9b1db6dbdce2f5ed8fe0e37dc3a6698f23f8",
                        "key": "0x85993b11612ee45a55bb86777e5e2a688a635b3273fa5018dda0ca7eae513ff8",
                        "prev": "0x0000000000000000000000000000000000000000000000000000000000000000"
                    }
                ],
                "storageVariables": [
                    {
                        "name": "userLink",
                        "type": "mapping(address => struct Variables.UserLink)",
                        "value": {
                            "pairs": [
                                {
                                    "key": "0x7c3c9b1db6dbdce2f5ed8fe0e37dc3a6698f23f8",
                                    "value": {
                                        "fields": [
                                            {
                                                "name": "first",
                                                "type": "uint64",
                                                "value": {
                                                    "current": "17083",
                                                    "prev": "0",
                                                    "typeTag": 1
                                                }
                                            },
                                            {
                                                "name": "last",
                                                "type": "uint64",
                                                "value": {
                                                    "current": "17083",
                                                    "prev": "0",
                                                    "typeTag": 1
                                                }
                                            },
                                            {
                                                "name": "count",
                                                "type": "uint64",
                                                "value": {
                                                    "current": "1",
                                                    "prev": "0",
                                                    "typeTag": 1
                                                }
                                            }
                                        ],
                                        "typeTag": 3
                                    }
                                }
                            ],
                            "typeTag": 4
                        }
                    },
                    {
                        "name": "accountLink",
                        "type": "mapping(uint64 => struct Variables.AccountLink)",
                        "value": {
                            "pairs": [
                                {
                                    "key": "17083",
                                    "value": {
                                        "fields": [
                                            {
                                                "name": "first",
                                                "type": "address",
                                                "value": {
                                                    "current": "0x7c3c9b1db6dbdce2f5ed8fe0e37dc3a6698f23f8",
                                                    "prev": "0x0000000000000000000000000000000000000000",
                                                    "typeTag": 1
                                                }
                                            },
                                            {
                                                "name": "last",
                                                "type": "address",
                                                "value": {
                                                    "current": "0x7c3c9b1db6dbdce2f5ed8fe0e37dc3a6698f23f8",
                                                    "prev": "0x0000000000000000000000000000000000000000",
                                                    "typeTag": 1
                                                }
                                            },
                                            {
                                                "name": "count",
                                                "type": "uint64",
                                                "value": {
                                                    "current": "1",
                                                    "prev": "0",
                                                    "typeTag": 1
                                                }
                                            }
                                        ],
                                        "typeTag": 3
                                    }
                                }
                            ],
                            "typeTag": 4
                        }
                    },
                    {
                        "name": "accounts",
                        "type": "uint64",
                        "value": {
                            "current": "17083",
                            "prev": "17082",
                            "typeTag": 1
                        }
                    },
                    {
                        "name": "accountID",
                        "type": "mapping(address => uint64)",
                        "value": {
                            "pairs": [
                                {
                                    "key": "0x6f3e33f492501726f9f4ef8ab2d54a253004927c",
                                    "value": {
                                        "current": "17083",
                                        "prev": "0",
                                        "typeTag": 1
                                    }
                                }
                            ],
                            "typeTag": 4
                        }
                    },
                    {
                        "name": "accountAddr",
                        "type": "mapping(uint64 => address)",
                        "value": {
                            "pairs": [
                                {
                                    "key": "17083",
                                    "value": {
                                        "current": "0x6f3e33f492501726f9f4ef8ab2d54a253004927c",
                                        "prev": "0x0000000000000000000000000000000000000000",
                                        "typeTag": 1
                                    }
                                }
                            ],
                            "typeTag": 4
                        }
                    }
                ]
            },
            {
                "address": "0x6f3e33f492501726f9f4ef8ab2d54a253004927c",
                "erc": "",
                "slots": [
                    {
                        "current": "0x0000000000000000000000000000000000000000000000000000000000000001",
                        "key": "0x42a1d0d242c986fe968ac4a0e79009913554823b93a69696df6ed2bf6755bc9b",
                        "prev": "0x0000000000000000000000000000000000000000000000000000000000000000"
                    }
                ],
                "storageVariables": [
                    {
                        "name": "auth",
                        "type": "mapping(address => bool)",
                        "value": {
                            "pairs": [
                                {
                                    "key": "0x7c3c9b1db6dbdce2f5ed8fe0e37dc3a6698f23f8",
                                    "value": {
                                        "current": "true",
                                        "prev": "false",
                                        "typeTag": 1
                                    }
                                }
                            ],
                            "typeTag": 4
                        }
                    }
                ]
            }
        ]
    }
}