{
    "balance_change": {
        "balanceChanges": [
            {
                "account": "0xef9e25dc37cc61ca49a07d0394db5d86078c01cf",
                "assets": [
                    {
                        "address": "0x63696fc66795b51d02c1590b536484a41fbddf9a",
                        "amount": "42,911",
                        "iconUrl": "",
                        "isERC1155": false,
                        "isERC721": false,
                        "sign": false,
                        "value": ""
                    }
                ]
            },
            {
                "account": "0x7ff3fc53e1cb5e187a7d98acc61367e2623694d3",
                "assets": [
                    {
                        "address": "0x63696fc66795b51d02c1590b536484a41fbddf9a",
                        "amount": "42,911",
                        "iconUrl": "",
                        "isERC1155": false,
                        "isERC721": false,
                        "sign": true,
                        "value": ""
                    }
                ]
            }
        ]
    },
    "profile": {
        "basic_info": {
            "baseFee": "3.402227932",
            "blockNumber": 20465087,
            "callData": "0xd3166407000000000000000000000000000000000000000000000000000000000000000200000000000000000000000000000000000000000000091635c0abc7331c0000",
            "debugEnable": true,
            "errorInfo": "",
            "eventCount": 1,
            "feeRecipient": "0x95222290dd7278aa3ddd389cc1e1d165cc4bafe5",
            "formatValue": "0",
            "gasLimit": 262402,
            "gasPrice": "4.09607029",
            "gasUsed": 165102,
            "intTxnCount": 2,
            "internalRevert": false,
            "internalRevertMessage": "",
            "isContractCreation": false,
            "isFlashloan": false,
            "maxFee": "5.576451782",
            "nonce": 1125,
            "overwritedBlockNumber": -1,
            "priorityFee": "0.693842358",
            "receiver": "0x7ff3fc53e1cb5e187a7d98acc61367e2623694d3",
            "revertMessage": "",
            "sender": "0xef9e25dc37cc61ca49a07d0394db5d86078c01cf",
            "simulationEnable": true,
            "sourceTxnHash": "0x0e9d1053e3d99452c1f6f55d29d47e80264196926f41e74429ef5909f430e4ba",
            "status": true,
            "timestamp": "2024-08-05T21:35:47Z",
            "transactionFee": "0.00067626939701958",
            "txnHash": "0x0e9d1053e3d99452c1f6f55d29d47e80264196926f41e74429ef5909f430e4ba",
            "txnIndex": 34,
            "type": 2,
            "value": "0"
        },
        "fund_flow": [
            {
                "amount": "42,911",
                "from": "0xef9e25dc37cc61ca49a07d0394db5d86078c01cf",
                "id": 1,
                "isERC1155": false,
                "isERC721": false,
                "isReverted": false,
                "order": 1,
                "to": "0x7ff3fc53e1cb5e187a7d98acc61367e2623694d3",
                "token": "0x63696fc66795b51d02c1590b536484a41fbddf9a"
            }
        ],
        "token_infos": [
            {
                "address": "0x63696fc66795b51d02c1590b536484a41fbddf9a",
                "decimals": 18
            },
            {
                "address": "0xc02aaa39b223fe8d0a0e5c4f27ead9083c756cc2",
                "decimals": 18
            },
            {
                "address": "0xeeeeeeeeeeeeeeeeeeeeeeeeeeeeeeeeeeeeeeee",
                "decimals": 18
            }
        ]
    },
    "address_label": {
        "labels": [
            {
                "address": "0x0000000000000000000000000000000000000004",
                "label": "Precompiled"
            },
            {
                "address": "0xeeeeeeeeeeeeeeeeeeeeeeeeeeeeeeeeeeeeeeee",
                "label": "Ether"
            },
            {
                "address": "0x63696fc66795b51d02c1590b536484a41fbddf9a",
                "label": "WELL3: WELL Token"
            },
            {
                "address": "0x4f28c901bc28555f27553e1280e15ab21583142c",
                "label": "WellBoosting"
            },
            {
                "address": "0x7ff3fc53e1cb5e187a7d98acc61367e2623694d3",
                "label": "ERC1967Proxy"
            },
            {
                "address": "0x0000000000000000000000000000000000000001",
                "label": "Precompiled"
            },
            {
                "address": "0x0000000000000000000000000000000000000002",
                "label": "Precompiled"
            },
            {
                "address": "0x0000000000000000000000000000000000000003",
                "label": "Precompiled"
            }
        ]
    },
    "trace": {
        "accountLabels": null,
        "dataMap": {
            "-1": {
                "invocation": {
                    "address": "0xef9e25dc37cc61ca49a07d0394db5d86078c01cf",
                    "callData": "",
                    "decodedMethod": null,
                    "errorInfo": "",
                    "fromAddress": "",
                    "gasUsed": 0,
                    "id": -1,
                    "methodDecoded": false,
                    "operation": "",
                    "output": "",
                    "revert": false,
                    "revertMessage": "",
                    "selector": "",
                    "status": false,
                    "value": ""
                },
                "nodeType": 0
            },
            "0": {
                "invocation": {
                    "address": "0x7ff3fc53e1cb5e187a7d98acc61367e2623694d3",
                    "callData": "0x000000000000000000000000000000000000000000000000000000000000000200000000000000000000000000000000000000000000091635c0abc7331c0000",
                    "decodedMethod": {
                        "callParams": [
                            {
                                "name": "boostingType",
                                "type": "uint8",
                                "value": "2"
                            },
                            {
                                "name": "_tokenAmount",
                                "type": "uint256",
                                "value": "42,911,000,000,000,000,000,000"
                            }
                        ],
                        "constructorArguments": "",
                        "name": "createBoosting",
                        "returnParams": [
                            {
                                "name": "createdBoostingData",
                                "type": "(uint256,uint256,uint8,uint256,bool)",
                                "value": [
                                    {
                                        "name": "id",
                                        "type": "uint256",
                                        "value": "1,504"
                                    },
                                    {
                                        "name": "createdAt",
                                        "type": "uint256",
                                        "value": "1,722,893,747"
                                    },
                                    {
                                        "name": "boostingType",
                                        "type": "uint8",
                                        "value": "2"
                                    },
                                    {
                                        "name": "tokenAmount",
                                        "type": "uint256",
                                        "value": "42,911,000,000,000,000,000,000"
                                    },
                                    {
                                        "name": "isWithdrawn",
                                        "type": "bool",
                                        "value": false
                                    }
                                ]
                            }
                        ],
                        "signature": "createBoosting(uint8,uint256)"
                    },
                    "errorInfo": "",
                    "fromAddress": "0xef9e25dc37cc61ca49a07d0394db5d86078c01cf",
                    "gasUsed": 165102,
                    "id": 0,
                    "methodDecoded": true,
                    "operation": "CALL",
                    "output": "0x00000000000000000000000000000000000000000000000000000000000005e00000000000000000000000000000000000000000000000000000000066b145b3000000000000000000000000000000000000000000000000000000000000000200000000000000000000000000000000000000000000091635c0abc7331c00000000000000000000000000000000000000000000000000000000000000000000",
                    "revert": false,
                    "revertMessage": "",
                    "selector": "0xd3166407",
                    "status": true,
                    "value": "0"
                },
                "nodeType": 0
            },
            "1": {
                "invocation": {
                    "address": "0x4f28c901bc28555f27553e1280e15ab21583142c",
                    "callData": "0x000000000000000000000000000000000000000000000000000000000000000200000000000000000000000000000000000000000000091635c0abc7331c0000",
                    "decodedMethod": {
                        "callParams": [
                            {
                                "name": "boostingType",
                                "type": "uint8",
                                "value": "2"
                            },
                            {
                                "name": "_tokenAmount",
                                "type": "uint256",
                                "value": "42,911,000,000,000,000,000,000"
                            }
                        ],
                        "constructorArguments": "",
                        "name": "createBoosting",
                        "returnParams": [
                            {
                                "name": "createdBoostingData",
                                "type": "(uint256,uint256,uint8,uint256,bool)",
                                "value": [
                                    {
                                        "name": "id",
                                        "type": "uint256",
                                        "value": "1,504"
                                    },
                                    {
                                        "name": "createdAt",
                                        "type": "uint256",
                                        "value": "1,722,893,747"
                                    },
                                    {
                                        "name": "boostingType",
                                        "type": "uint8",
                                        "value": "2"
                                    },
                                    {
                                        "name": "tokenAmount",
                                        "type": "uint256",
                                        "value": "42,911,000,000,000,000,000,000"
                                    },
                                    {
                                        "name": "isWithdrawn",
                                        "type": "bool",
                                        "value": false
                                    }
                                ]
                            }
                        ],
                        "signature": "createBoosting(uint8,uint256)"
                    },
                    "errorInfo": "",
                    "fromAddress": "0x7ff3fc53e1cb5e187a7d98acc61367e2623694d3",
                    "gasUsed": 143560,
                    "id": 1,
                    "methodDecoded": true,
                    "operation": "DELEGATECALL",
                    "output": "0x00000000000000000000000000000000000000000000000000000000000005e00000000000000000000000000000000000000000000000000000000066b145b3000000000000000000000000000000000000000000000000000000000000000200000000000000000000000000000000000000000000091635c0abc7331c00000000000000000000000000000000000000000000000000000000000000000000",
                    "revert": false,
                    "revertMessage": "",
                    "selector": "0xd3166407",
                    "status": true,
                    "value": "0"
                },
                "nodeType": 0
            },
            "2": {
                "invocation": {
                    "address": "0x63696fc66795b51d02c1590b536484a41fbddf9a",
                    "callData": "0x000000000000000000000000ef9e25dc37cc61ca49a07d0394db5d86078c01cf0000000000000000000000007ff3fc53e1cb5e187a7d98acc61367e2623694d300000000000000000000000000000000000000000000091635c0abc7331c0000",
                    "decodedMethod": {
                        "callParams": [
                            {
                                "name": "from",
                                "type": "address",
                                "value": "0xef9e25dc37cc61ca49a07d0394db5d86078c01cf"
                            },
                            {
                                "name": "to",
                                "type": "address",
                                "value": "0x7ff3fc53e1cb5e187a7d98acc61367e2623694d3"
                            },
                            {
                                "decimalAvailable": true,
                                "name": "value",
                                "type": "uint256",
                                "value": "42,911,000,000,000,000,000,000"
                            }
                        ],
                        "constructorArguments": "",
                        "name": "transferFrom",
                        "returnParams": [
                            {
                                "name": "",
                                "type": "bool",
                                "value": true
                            }
                        ],
                        "signature": "transferFrom(address,address,uint256)"
                    },
                    "errorInfo": "",
                    "fromAddress": "0x7ff3fc53e1cb5e187a7d98acc61367e2623694d3",
                    "gasUsed": 18518,
                    "id": 2,
                    "methodDecoded": true,
                    "operation": "CALL",
                    "output": "0x0000000000000000000000000000000000000000000000000000000000000001",
                    "revert": false,
                    "revertMessage": "",
                    "selector": "0x23b872dd",
                    "status": true,
                    "value": "0"
                },
                "nodeType": 0
            },
            "3": {
                "event": {
                    "contract": "0x63696fc66795b51d02c1590b536484a41fbddf9a",
                    "decodedLog": {
                        "name": "Transfer",
                        "params": [
                            {
                                "name": "from",
                                "type": "address",
                                "value": "0xef9e25dc37cc61ca49a07d0394db5d86078c01cf"
                            },
                            {
                                "name": "to",
                                "type": "address",
                                "value": "0x7ff3fc53e1cb5e187a7d98acc61367e2623694d3"
                            },
                            {
                                "decimalAvailable": true,
                                "name": "value",
                                "type": "uint256",
                                "value": "42,911,000,000,000,000,000,000"
                            }
                        ],
                        "signature": "Transfer(address,address,uint256)"
                    },
                    "id": 3,
                    "logData": "0x00000000000000000000000000000000000000000000091635c0abc7331c0000",
                    "logDecoded": true,
                    "operation": "EVENT",
                    "revert": false,
                    "status": true,
                    "topics": [
                        "0xddf252ad1be2c89b69c2b068fc378daa952ba7f163c4a11628f55a4df523b3ef",
                        "0x000000000000000000000000ef9e25dc37cc61ca49a07d0394db5d86078c01cf",
                        "0x0000000000000000000000007ff3fc53e1cb5e187a7d98acc61367e2623694d3"
                    ]
                },
                "nodeType": 1
            }
        },
        "gasFlame": [
            {
                "children": [
                    {
                        "children": [
                            {
                                "children": [],
                                "depth": 0,
                                "name": "Initial Gas",
                                "value": 21428
                            },
                            {
                                "children": [
                                    {
                                        "children": [
                                            {
                                                "children": [],
                                                "depth": 2,
                                                "name": "transferFrom",
                                                "value": 18518
                                            }
                                        ],
                                        "depth": 1,
                                        "name": "createBoosting",
                                        "value": 143560
                                    }
                                ],
                                "depth": 0,
                                "name": "Executed Gas",
                                "value": 148474
                            }
                        ],
                        "depth": -1,
                        "name": "Actual Gas Used",
                        "value": 165102
                    },
                    {
                        "children": [],
                        "depth": -1,
                        "name": "Refunded Gas",
                        "value": 4800
                    }
                ],
                "depth": -2,
                "name": "Total Gas",
                "value": 169902
            }
        ],
        "isConfirmed": true,
        "mainTrace": [
            {
                "children": [
                    {
                        "children": [
                            {
                                "children": [
                                    {
                                        "children": [
                                            {
                                                "children": [],
                                                "depth": 3,
                                                "id": 3,
                                                "order": 3
                                            }
                                        ],
                                        "depth": 2,
                                        "id": 2,
                                        "order": 2
                                    }
                                ],
                                "depth": 1,
                                "id": 1,
                                "order": 1
                            }
                        ],
                        "depth": 0,
                        "id": 0,
                        "order": 0
                    }
                ],
                "depth": -1,
                "id": -1,
                "order": -1
            }
        ],
        "mainTraceNodeCount": 4,
        "parentIdMap": {
            "0": -1,
            "1": 0,
            "2": 1,
            "3": 2
        },
        "tidyTrace": [
            {
                "children": [
                    {
                        "children": [
                            {
                                "children": [
                                    {
                                        "children": [
                                            {
                                                "children": [],
                                                "depth": 3,
                                                "id": 3,
                                                "order": 3
                                            }
                                        ],
                                        "depth": 2,
                                        "id": 2,
                                        "order": 2
                                    }
                                ],
                                "depth": 1,
                                "id": 1,
                                "order": 1
                            }
                        ],
                        "depth": 0,
                        "id": 0,
                        "order": 0
                    }
                ],
                "depth": -1,
                "id": -1,
                "order": -1
            }
        ],
        "tidyTraceNodeCount": 4
    },
    "state_change": {
        "stateChanges": [
            {
                "address": "0x63696fc66795b51d02c1590b536484a41fbddf9a",
                "erc": "ERC-20",
                "slots": [
                    {
                        "current": "0x0000000000000000000000000000000000000000000000000000000000000000",
                        "key": "0x38dd80d60734d6f88e9e6bba66ab077e1b862e0141b2ef1aa8cbe247ac1db9f6",
                        "prev": "0x00000000000000000000000000000000000000000000091635c0abc7331c0000"
                    },
                    {
                        "current": "0x0000000000000000000000000000000000000000000000000aec43aea3bb6a55",
                        "key": "0x8cecc18cc8fe8cd8f1f4c86c8ba16a1a78d3dfe212e194ab19318ec2f27a2de4",
                        "prev": "0x00000000000000000000000000000000000000000000091640acef75d6d76a55"
                    },
                    {
                        "current": "0x000000000000000000000000000000000000000002342f5bce35927227dc0000",
                        "key": "0xed5359fdff6d24d49bd1343b75113d9ae4fab6a2ecde49a51be2a64733ce031d",
                        "prev": "0x0000000000000000000000000000000000000000023426459874e6aaf4c00000"
                    }
                ],
                "storageVariables": [
                    {
                        "name": "_allowances",
                        "type": "mapping(address => mapping(address => uint256))",
                        "value": {
                            "pairs": [
                                {
                                    "key": "0xef9e25dc37cc61ca49a07d0394db5d86078c01cf",
                                    "value": {
                                        "pairs": [
                                            {
                                                "key": "0x7ff3fc53e1cb5e187a7d98acc61367e2623694d3",
                                                "value": {
                                                    "current": "0",
                                                    "prev": "42911000000000000000000",
                                                    "typeTag": 1
                                                }
                                            }
                                        ],
                                        "typeTag": 4
                                    }
                                }
                            ],
                            "typeTag": 4
                        }
                    },
                    {
                        "name": "_balances",
                        "type": "mapping(address => uint256)",
                        "value": {
                            "pairs": [
                                {
                                    "key": "0x7ff3fc53e1cb5e187a7d98acc61367e2623694d3",
                                    "value": {
                                        "current": "682057807000000000000000000",
                                        "prev": "682014896000000000000000000",
                                        "typeTag": 1
                                    }
                                },
                                {
                                    "key": "0xef9e25dc37cc61ca49a07d0394db5d86078c01cf",
                                    "value": {
                                        "current": "787078452233333333",
                                        "prev": "42911787078452233333333",
                                        "typeTag": 1
                                    }
                                }
                            ],
                            "typeTag": 4
                        }
                    }
                ]
            },
            {
                "address": "0x7ff3fc53e1cb5e187a7d98acc61367e2623694d3",
                "erc": "",
                "slots": [
                    {
                        "current": "0x00000000000000000000000000000000000000000000000000000000000005e0",
                        "key": "0xc257c63fe17801ec0feef3bd650c280465d63221589762ddb4adf14af4aba6bc",
                        "prev": "0x0000000000000000000000000000000000000000000000000000000000000000"
                    },
                    {
                        "current": "0x0000000000000000000000000000000000000000000000000000000066b145b3",
                        "key": "0xc257c63fe17801ec0feef3bd650c280465d63221589762ddb4adf14af4aba6bd",
                        "prev": "0x0000000000000000000000000000000000000000000000000000000000000000"
                    },
                    {
                        "current": "0x0000000000000000000000000000000000000000000000000000000000000002",
                        "key": "0xc257c63fe17801ec0feef3bd650c280465d63221589762ddb4adf14af4aba6be",
                        "prev": "0x0000000000000000000000000000000000000000000000000000000000000000"
                    },
                    {
                        "current": "0x00000000000000000000000000000000000000000000091635c0abc7331c0000",
                        "key": "0xc257c63fe17801ec0feef3bd650c280465d63221589762ddb4adf14af4aba6bf",
                        "prev": "0x0000000000000000000000000000000000000000000000000000000000000000"
                    },
                    {
                        "current": "0x00000000000000000000000000000000000000000000000000000000000005e0",
                        "key": "0x0000000000000000000000000000000000000000000000000000000000000004",
                        "prev": "0x00000000000000000000000000000000000000000000000000000000000005df"
                    },
                    {
                        "current": "0x0000000000000000000000000000000000000000000000000000000000000001",
                        "key": "0xfddf5c71d67fd751fdd482646d85a7ed090eaf92995b83051c442956cc27b8bf",
                        "prev": "0x0000000000000000000000000000000000000000000000000000000000000000"
                    }
                ],
                "storageVariables": [
                    {
                        "name": "userBoostings",
                        "type": "mapping(address => struct BoostingData[])",
                        "value": {
                            "pairs": [
                                {
                                    "key": "0xef9e25dc37cc61ca49a07d0394db5d86078c01cf",
                                    "value": {
                                        "elemType": "struct BoostingData",
                                        "elems": [
                                            {
                                                "index": 0,
                                                "value": {
                                                    "fields": [
                                                        {
                                                            "name": "id",
                                                            "type": "uint256",
                                                            "value": {
                                                                "current": "1504",
                                                                "prev": "0",
                                                                "typeTag": 1
                                                            }
                                                        },
                                                        {
                                                            "name": "createdAt",
                                                            "type": "uint256",
                                                            "value": {
                                                                "current": "1722893747",
                                                                "prev": "0",
                                                                "typeTag": 1
                                                            }
                                                        },
                                                        {
                                                            "name": "boostingType",
                                                            "type": "uint8",
                                                            "value": {
                                                                "current": "2",
                                                                "prev": "0",
                                                                "typeTag": 1
                                                            }
                                                        },
                                                        {
                                                            "name": "tokenAmount",
                                                            "type": "uint256",
                                                            "value": {
                                                                "current": "42911000000000000000000",
                                                                "prev": "0",
                                                                "typeTag": 1
                                                            }
                                                        }
                                                    ],
                                                    "typeTag": 3
                                                }
                                            }
                                        ],
                                        "typeTag": 2
                                    }
                                }
                            ],
                            "typeTag": 4
                        }
                    },
                    {
                        "name": "counter",
                        "type": "uint256",
                        "value": {
                            "current": "1504",
                            "prev": "1503",
                            "typeTag": 1
                        }
                    }
                ]
            }
        ]
    }
}