{
    "balance_change": {
        "balanceChanges": [
            {
                "account": "0x221c50de0ac0ece6f43ab43766ea39abfa25b444",
                "assets": [
                    {
                        "address": "0x4e0603e2a27a30480e5e3a4fe548e29ef12f64be",
                        "amount": "63,784",
                        "iconUrl": "",
                        "isERC1155": false,
                        "isERC721": false,
                        "sign": false,
                        "value": ""
                    }
                ]
            },
            {
                "account": "0x4188a7dca2757ebc7d9a5bd39134a15b9f3c6402",
                "assets": [
                    {
                        "address": "0x4e0603e2a27a30480e5e3a4fe548e29ef12f64be",
                        "amount": "63,784",
                        "iconUrl": "",
                        "isERC1155": false,
                        "isERC721": false,
                        "sign": true,
                        "value": ""
                    }
                ]
            }
        ]
    },
    "profile": {
        "basic_info": {
            "baseFee": "",
            "blockNumber": 4262009,
            "callData": "0xa9059cbb0000000000000000000000004188a7dca2757ebc7d9a5bd39134a15b9f3c6402000000000000000000000000000000000000000000000d81bcd149e26ba00000",
            "debugEnable": true,
            "errorInfo": "",
            "eventCount": 1,
            "feeRecipient": "0xea674fdde714fd979de3edf0f56aa9716b898ec8",
            "formatValue": "0",
            "gasLimit": 60088,
            "gasPrice": "10",
            "gasUsed": 36890,
            "intTxnCount": 0,
            "internalRevert": false,
            "internalRevertMessage": "",
            "isContractCreation": false,
            "isFlashloan": false,
            "maxFee": "",
            "nonce": 93,
            "overwritedBlockNumber": -1,
            "priorityFee": "",
            "receiver": "0x4e0603e2a27a30480e5e3a4fe548e29ef12f64be",
            "revertMessage": "",
            "sender": "0x221c50de0ac0ece6f43ab43766ea39abfa25b444",
            "simulationEnable": true,
            "sourceTxnHash": "0x0efdc7a6590a81213a3ed94eee413268c3efbba923b5983881bd75455b88f418",
            "status": true,
            "timestamp": "2017-09-11T10:27:58Z",
            "transactionFee": "0.0003689",
            "txnHash": "0x0efdc7a6590a81213a3ed94eee413268c3efbba923b5983881bd75455b88f418",
            "txnIndex": 81,
            "type": 0,
            "value": "0"
        },
        "fund_flow": [
            {
                "amount": "63,784",
                "from": "0x221c50de0ac0ece6f43ab43766ea39abfa25b444",
                "id": 1,
                "isERC1155": false,
                "isERC721": false,
                "isReverted": false,
                "order": 1,
                "to": "0x4188a7dca2757ebc7d9a5bd39134a15b9f3c6402",
                "token": "0x4e0603e2a27a30480e5e3a4fe548e29ef12f64be"
            }
        ],
        "token_infos": [
            {
                "address": "0x4e0603e2a27a30480e5e3a4fe548e29ef12f64be",
                "decimals": 18
            },
            {
                "address": "0xc02aaa39b223fe8d0a0e5c4f27ead9083c756cc2",
                "decimals": 18
            },
            {
                "address": "0xeeeeeeeeeeeeeeeeeeeeeeeeeeeeeeeeeeeeeeee",
                "decimals": 18
            }
        ]
    },
    "address_label": {
        "labels": [
            {
                "address": "0x0000000000000000000000000000000000000002",
                "label": "Precompiled"
            },
            {
                "address": "0x0000000000000000000000000000000000000003",
                "label": "Precompiled"
            },
            {
                "address": "0x0000000000000000000000000000000000000004",
                "label": "Precompiled"
            },
            {
                "address": "0xeeeeeeeeeeeeeeeeeeeeeeeeeeeeeeeeeeeeeeee",
                "label": "Ether"
            },
            {
                "address": "0x4188a7dca2757ebc7d9a5bd39134a15b9f3c6402",
                "label": "Maker Vault Owner"
            },
            {
                "address": "0x4e0603e2a27a30480e5e3a4fe548e29ef12f64be",
                "label": "Bitbounce.com/credo: CREDO Token"
            },
            {
                "address": "0x0000000000000000000000000000000000000001",
                "label": "Precompiled"
            }
        ]
    },
    "trace": {
        "accountLabels": null,
        "dataMap": {
            "-1": {
                "invocation": {
                    "address": "0x221c50de0ac0ece6f43ab43766ea39abfa25b444",
                    "callData": "",
                    "decodedMethod": null,
                    "errorInfo": "",
                    "fromAddress": "",
                    "gasUsed": 0,
                    "id": -1,
                    "methodDecoded": false,
                    "operation": "",
                    "output": "",
                    "revert": false,
                    "revertMessage": "",
                    "selector": "",
                    "status": false,
                    "value": ""
                },
                "nodeType": 0
            },
            "0": {
                "invocation": {
                    "address": "0x4e0603e2a27a30480e5e3a4fe548e29ef12f64be",
                    "callData": "0x0000000000000000000000004188a7dca2757ebc7d9a5bd39134a15b9f3c6402000000000000000000000000000000000000000000000d81bcd149e26ba00000",
                    "decodedMethod": {
                        "callParams": [
                            {
                                "name": "_to",
                                "type": "address",
                                "value": "0x4188a7dca2757ebc7d9a5bd39134a15b9f3c6402"
                            },
                            {
                                "decimalAvailable": true,
                                "name": "_value",
                                "type": "uint256",
                                "value": "63,784,000,000,000,000,000,000"
                            }
                        ],
                        "constructorArguments": "",
                        "name": "transfer",
                        "returnParams": [
                            {
                                "name": "success",
                                "type": "bool",
                                "value": true
                            }
                        ],
                        "signature": "transfer(address,uint256)"
                    },
                    "errorInfo": "",
                    "fromAddress": "0x221c50de0ac0ece6f43ab43766ea39abfa25b444",
                    "gasUsed": 36890,
                    "id": 0,
                    "methodDecoded": true,
                    "operation": "CALL",
                    "output": "0x0000000000000000000000000000000000000000000000000000000000000001",
                    "revert": false,
                    "revertMessage": "",
                    "selector": "0xa9059cbb",
                    "status": true,
                    "value": "0"
                },
                "nodeType": 0
            },
            "1": {
                "event": {
                    "contract": "0x4e0603e2a27a30480e5e3a4fe548e29ef12f64be",
                    "decodedLog": {
                        "name": "Transfer",
                        "params": [
                            {
                                "name": "_from",
                                "type": "address",
                                "value": "0x221c50de0ac0ece6f43ab43766ea39abfa25b444"
                            },
                            {
                                "name": "_to",
                                "type": "address",
                                "value": "0x4188a7dca2757ebc7d9a5bd39134a15b9f3c6402"
                            },
                            {
                                "decimalAvailable": true,
                                "name": "_value",
                                "type": "uint256",
                                "value": "63,784,000,000,000,000,000,000"
                            }
                        ],
                        "signature": "Transfer(address,address,uint256)"
                    },
                    "id": 1,
                    "logData": "0x000000000000000000000000000000000000000000000d81bcd149e26ba00000",
                    "logDecoded": true,
                    "operation": "EVENT",
                    "revert": false,
                    "status": true,
                    "topics": [
                        "0xddf252ad1be2c89b69c2b068fc378daa952ba7f163c4a11628f55a4df523b3ef",
                        "0x000000000000000000000000221c50de0ac0ece6f43ab43766ea39abfa25b444",
                        "0x0000000000000000000000004188a7dca2757ebc7d9a5bd39134a15b9f3c6402"
                    ]
                },
                "nodeType": 1
            }
        },
        "gasFlame": [
            {
                "children": [
                    {
                        "children": [
                            {
                                "children": [],
                                "depth": 0,
                                "name": "Initial Gas",
                                "value": 23320
                            },
                            {
                                "children": [],
                                "depth": 0,
                                "name": "Executed Gas",
                                "value": 13570
                            }
                        ],
                        "depth": -1,
                        "name": "Actual Gas Used",
                        "value": 36890
                    },
                    {
                        "children": [],
                        "depth": -1,
                        "name": "Refunded Gas",
                        "value": 0
                    }
                ],
                "depth": -2,
                "name": "Total Gas",
                "value": 36890
            }
        ],
        "isConfirmed": true,
        "mainTrace": [
            {
                "children": [
                    {
                        "children": [
                            {
                                "children": [],
                                "depth": 1,
                                "id": 1,
                                "order": 1
                            }
                        ],
                        "depth": 0,
                        "id": 0,
                        "order": 0
                    }
                ],
                "depth": -1,
                "id": -1,
                "order": -1
            }
        ],
        "mainTraceNodeCount": 2,
        "parentIdMap": {
            "0": -1,
            "1": 0
        },
        "tidyTrace": [
            {
                "children": [
                    {
                        "children": [
                            {
                                "children": [],
                                "depth": 1,
                                "id": 1,
                                "order": 1
                            }
                        ],
                        "depth": 0,
                        "id": 0,
                        "order": 0
                    }
                ],
                "depth": -1,
                "id": -1,
                "order": -1
            }
        ],
        "tidyTraceNodeCount": 2
    },
    "state_change": {
        "stateChanges": [
            {
                "address": "0x4e0603e2a27a30480e5e3a4fe548e29ef12f64be",
                "erc": "ERC-20",
                "slots": [
                    {
                        "current": "0x0000000000000000000000000000000000000000000000000000000000200000",
                        "key": "0x2e2d45ce529ced5284d51aeef5aff8f73f787935a92fc38d6105ecdedb300e83",
                        "prev": "0x000000000000000000000000000000000000000000000d81bcd149e26bc00000"
                    },
                    {
                        "current": "0x00000000000000000000000000000000000000000007317248e8db4e91d54f70",
                        "key": "0xcabbe783ce67cb49a0106a19e7be3a95fb40b33ed4819f11093da3fb22a06cf8",
                        "prev": "0x0000000000000000000000000000000000000000000723f08c17916c26354f70"
                    }
                ],
                "storageVariables": []
            }
        ]
    }
}