{
    "balance_change": {
        "balanceChanges": [
            {
                "account": "0x7ab9719372a7f7a4baa65821161664da813ec0dc",
                "assets": [
                    {
                        "address": "0xacd4045292c7e406fe6bef233899f513d2a99a98",
                        "amount": "27,758,440.776553831",
                        "iconUrl": "",
                        "isERC1155": false,
                        "isERC721": false,
                        "sign": false,
                        "value": "620.8151731"
                    },
                    {
                        "address": "0xeeeeeeeeeeeeeeeeeeeeeeeeeeeeeeeeeeeeeeee",
                        "amount": "0.248590308147475969",
                        "iconUrl": "https://assets.blocksec.com/image/1663669189317-3.png",
                        "isERC1155": false,
                        "isERC721": false,
                        "sign": true,
                        "value": "608.03078829544235123"
                    }
                ]
            },
            {
                "account": "0x3a10dc1a145da500d5fba38b9ec49c8ff11a981f",
                "assets": [
                    {
                        "address": "0xeeeeeeeeeeeeeeeeeeeeeeeeeeeeeeeeeeeeeeee",
                        "amount": "0.002008810570888695",
                        "iconUrl": "https://assets.blocksec.com/image/1663669189317-3.png",
                        "isERC1155": false,
                        "isERC721": false,
                        "sign": true,
                        "value": "4.9133801086485224333"
                    }
                ]
            },
            {
                "account": "0x49033f9ddb1c4f005aba1be48e58eda6fd01caa9",
                "assets": [
                    {
                        "address": "0xeeeeeeeeeeeeeeeeeeeeeeeeeeeeeeeeeeeeeeee",
                        "amount": "0.000502202642722173",
                        "iconUrl": "https://assets.blocksec.com/image/1663669189317-3.png",
                        "isERC1155": false,
                        "isERC721": false,
                        "sign": true,
                        "value": "1.2283450270398348533"
                    }
                ]
            },
            {
                "account": "0xc02aaa39b223fe8d0a0e5c4f27ead9083c756cc2",
                "assets": [
                    {
                        "address": "0xeeeeeeeeeeeeeeeeeeeeeeeeeeeeeeeeeeeeeeee",
                        "amount": "0.251101321361086837",
                        "iconUrl": "https://assets.blocksec.com/image/1663669189317-3.png",
                        "isERC1155": false,
                        "isERC721": false,
                        "sign": false,
                        "value": "614.17251364221318166"
                    },
                    {
                        "address": "0xc02aaa39b223fe8d0a0e5c4f27ead9083c756cc2",
                        "amount": "0.251101321361086837",
                        "iconUrl": "https://assets.blocksec.com/icon/f1cb2d02c471d545bbc7722daf3277fd852d98e63d118771af7047bd8256c516.png",
                        "isERC1155": false,
                        "isERC721": false,
                        "sign": true,
                        "value": "614.17251364221318166"
                    }
                ]
            },
            {
                "account": "0xd3d1aa4b89c8454ac0404563ae0ef87edab5922e",
                "assets": [
                    {
                        "address": "0xacd4045292c7e406fe6bef233899f513d2a99a98",
                        "amount": "27,758,440.776553831",
                        "iconUrl": "",
                        "isERC1155": false,
                        "isERC721": false,
                        "sign": true,
                        "value": "620.8151731"
                    },
                    {
                        "address": "0xc02aaa39b223fe8d0a0e5c4f27ead9083c756cc2",
                        "amount": "0.251101321361086837",
                        "iconUrl": "https://assets.blocksec.com/icon/f1cb2d02c471d545bbc7722daf3277fd852d98e63d118771af7047bd8256c516.png",
                        "isERC1155": false,
                        "isERC721": false,
                        "sign": false,
                        "value": "614.17251364221318166"
                    }
                ]
            }
        ]
    },
    "profile": {
        "basic_info": {
            "baseFee": "26.275138821",
            "blockNumber": 20788029,
            "callData": "0x3a571299000000000000000000000000000000000000000000000000000000000000008000000000000000000000000000000000000000000000000000000000000001200000000000000000000000007a250d5630b4cf539739df2c5dacb4c659f2488d00000000000000000000000049033f9ddb1c4f005aba1be48e58eda6fd01caa9000000000000000000000000000000000000000000000000000000000000000400000000000000000000000000000000000000000000000000629e27a20155670000000000000000000000000000000000000000000000000000000000000000000000000000000000000000000000000000000000000000034f7c8e293da82f00000000000000000000000000000000000000000000000000000000000000000000000000000000000000000000000000000000000000000000000000000002000000000000000000000000acd4045292c7e406fe6bef233899f513d2a99a98000000000000000000000000c02aaa39b223fe8d0a0e5c4f27ead9083c756cc2",
            "debugEnable": true,
            "errorInfo": "",
            "eventCount": 9,
            "feeRecipient": "0x4838b106fce9647bdf1e7877bf73ce8b0bad5f97",
            "formatValue": "0",
            "gasLimit": 339232,
            "gasPrice": "31.275138821",
            "gasUsed": 183830,
            "intTxnCount": 15,
            "internalRevert": false,
            "internalRevertMessage": "",
            "isContractCreation": false,
            "isFlashloan": false,
            "maxFee": "31.275138821",
            "nonce": 643,
            "overwritedBlockNumber": -1,
            "priorityFee": "5",
            "receiver": "0x3a10dc1a145da500d5fba38b9ec49c8ff11a981f",
            "revertMessage": "",
            "sender": "0x7ab9719372a7f7a4baa65821161664da813ec0dc",
            "simulationEnable": true,
            "sourceTxnHash": "0x0e377f60d3ae0af752bfed69a0386a6f6bf6e035f0367b4ead28fb9f5cb70234",
            "status": true,
            "timestamp": "2024-09-19T23:48:59Z",
            "transactionFee": "0.00574930876946443",
            "txnHash": "0x0e377f60d3ae0af752bfed69a0386a6f6bf6e035f0367b4ead28fb9f5cb70234",
            "txnIndex": 40,
            "type": 2,
            "value": "0"
        },
        "fund_flow": [
            {
                "amount": "27,758,440.776553831",
                "from": "0x7ab9719372a7f7a4baa65821161664da813ec0dc",
                "id": 1,
                "isERC1155": false,
                "isERC721": false,
                "isReverted": false,
                "order": 1,
                "to": "0xd3d1aa4b89c8454ac0404563ae0ef87edab5922e",
                "token": "0xacd4045292c7e406fe6bef233899f513d2a99a98"
            },
            {
                "amount": "0.251101321361086837",
                "from": "0xd3d1aa4b89c8454ac0404563ae0ef87edab5922e",
                "id": 2,
                "isERC1155": false,
                "isERC721": false,
                "isReverted": false,
                "order": 2,
                "to": "0x3a10dc1a145da500d5fba38b9ec49c8ff11a981f",
                "token": "0xc02aaa39b223fe8d0a0e5c4f27ead9083c756cc2"
            },
            {
                "amount": "0.251101321361086837",
                "from": "0xc02aaa39b223fe8d0a0e5c4f27ead9083c756cc2",
                "id": 3,
                "isERC1155": false,
                "isERC721": false,
                "isReverted": false,
                "order": 3,
                "to": "0x3a10dc1a145da500d5fba38b9ec49c8ff11a981f",
                "token": "0xeeeeeeeeeeeeeeeeeeeeeeeeeeeeeeeeeeeeeeee"
            },
            {
                "amount": "0.251101321361086837",
                "from": "0x3a10dc1a145da500d5fba38b9ec49c8ff11a981f",
                "id": 4,
                "isERC1155": false,
                "isERC721": false,
                "isReverted": false,
                "order": 4,
                "to": "0xc02aaa39b223fe8d0a0e5c4f27ead9083c756cc2",
                "token": "0xc02aaa39b223fe8d0a0e5c4f27ead9083c756cc2"
            },
            {
                "amount": "0.248590308147475969",
                "from": "0x3a10dc1a145da500d5fba38b9ec49c8ff11a981f",
                "id": 5,
                "isERC1155": false,
                "isERC721": false,
                "isReverted": false,
                "order": 5,
                "to": "0x7ab9719372a7f7a4baa65821161664da813ec0dc",
                "token": "0xeeeeeeeeeeeeeeeeeeeeeeeeeeeeeeeeeeeeeeee"
            },
            {
                "amount": "0.000502202642722173",
                "from": "0x3a10dc1a145da500d5fba38b9ec49c8ff11a981f",
                "id": 6,
                "isERC1155": false,
                "isERC721": false,
                "isReverted": false,
                "order": 6,
                "to": "0x49033f9ddb1c4f005aba1be48e58eda6fd01caa9",
                "token": "0xeeeeeeeeeeeeeeeeeeeeeeeeeeeeeeeeeeeeeeee"
            }
        ],
        "token_infos": [
            {
                "address": "0xacd4045292c7e406fe6bef233899f513d2a99a98",
                "decimals": 9
            },
            {
                "address": "0xc02aaa39b223fe8d0a0e5c4f27ead9083c756cc2",
                "decimals": 18
            },
            {
                "address": "0xeeeeeeeeeeeeeeeeeeeeeeeeeeeeeeeeeeeeeeee",
                "decimals": 18
            }
        ]
    },
    "address_label": {
        "labels": [
            {
                "address": "0xc02aaa39b223fe8d0a0e5c4f27ead9083c756cc2",
                "label": "Wrapped Ether (WETH)"
            },
            {
                "address": "0x0000000000000000000000000000000000000001",
                "label": "Precompiled"
            },
            {
                "address": "0x0000000000000000000000000000000000000002",
                "label": "Precompiled"
            },
            {
                "address": "0x7a250d5630b4cf539739df2c5dacb4c659f2488d",
                "label": "Uniswap V2: Router 2"
            },
            {
                "address": "0xacd4045292c7e406fe6bef233899f513d2a99a98",
                "label": "\u772f\u5403"
            },
            {
                "address": "0xd3d1aa4b89c8454ac0404563ae0ef87edab5922e",
                "label": "UNI-V2"
            },
            {
                "address": "0x0000000000000000000000000000000000000003",
                "label": "Precompiled"
            },
            {
                "address": "0x0000000000000000000000000000000000000004",
                "label": "Precompiled"
            },
            {
                "address": "0xeeeeeeeeeeeeeeeeeeeeeeeeeeeeeeeeeeeeeeee",
                "label": "Ether"
            }
        ]
    },
    "trace": {
        "accountLabels": null,
        "dataMap": {
            "-1": {
                "invocation": {
                    "address": "0x7ab9719372a7f7a4baa65821161664da813ec0dc",
                    "callData": "",
                    "decodedMethod": null,
                    "errorInfo": "",
                    "fromAddress": "",
                    "gasUsed": 0,
                    "id": -1,
                    "methodDecoded": false,
                    "operation": "",
                    "output": "",
                    "revert": false,
                    "revertMessage": "",
                    "selector": "",
                    "status": false,
                    "value": ""
                },
                "nodeType": 0
            },
            "0": {
                "invocation": {
                    "address": "0x3a10dc1a145da500d5fba38b9ec49c8ff11a981f",
                    "callData": "0x000000000000000000000000000000000000000000000000000000000000008000000000000000000000000000000000000000000000000000000000000001200000000000000000000000007a250d5630b4cf539739df2c5dacb4c659f2488d00000000000000000000000049033f9ddb1c4f005aba1be48e58eda6fd01caa9000000000000000000000000000000000000000000000000000000000000000400000000000000000000000000000000000000000000000000629e27a20155670000000000000000000000000000000000000000000000000000000000000000000000000000000000000000000000000000000000000000034f7c8e293da82f00000000000000000000000000000000000000000000000000000000000000000000000000000000000000000000000000000000000000000000000000000002000000000000000000000000acd4045292c7e406fe6bef233899f513d2a99a98000000000000000000000000c02aaa39b223fe8d0a0e5c4f27ead9083c756cc2",
                    "decodedMethod": {
                        "callParams": [
                            {
                                "name": "a",
                                "type": "uint256[]",
                                "value": [
                                    "27,758,440,776,553,831",
                                    "0",
                                    "238,546,255,293,032,495",
                                    "0"
                                ]
                            },
                            {
                                "name": "b",
                                "type": "address[]",
                                "value": [
                                    "0xacd4045292c7e406fe6bef233899f513d2a99a98",
                                    "0xc02aaa39b223fe8d0a0e5c4f27ead9083c756cc2"
                                ]
                            },
                            {
                                "name": "c",
                                "type": "address",
                                "value": "0x7a250d5630b4cf539739df2c5dacb4c659f2488d"
                            },
                            {
                                "name": "d",
                                "type": "address",
                                "value": "0x49033f9ddb1c4f005aba1be48e58eda6fd01caa9"
                            }
                        ],
                        "constructorArguments": "",
                        "name": "SigmaSell",
                        "returnParams": [],
                        "signature": "SigmaSell(uint256[],address[],address,address)"
                    },
                    "errorInfo": "",
                    "fromAddress": "0x7ab9719372a7f7a4baa65821161664da813ec0dc",
                    "gasUsed": 183830,
                    "id": 0,
                    "methodDecoded": true,
                    "operation": "CALL",
                    "output": "0x00000000000000000000000000000000000000000000000003732b9173bc3601",
                    "revert": false,
                    "revertMessage": "",
                    "selector": "0x3a571299",
                    "status": true,
                    "value": "0"
                },
                "nodeType": 0
            },
            "1": {
                "invocation": {
                    "address": "0xd6965f189dddc204999cb836b2bc832461818208",
                    "callData": "0x000000000000000000000000000000000000000000000000000000000000008000000000000000000000000000000000000000000000000000000000000001200000000000000000000000007a250d5630b4cf539739df2c5dacb4c659f2488d00000000000000000000000049033f9ddb1c4f005aba1be48e58eda6fd01caa9000000000000000000000000000000000000000000000000000000000000000400000000000000000000000000000000000000000000000000629e27a20155670000000000000000000000000000000000000000000000000000000000000000000000000000000000000000000000000000000000000000034f7c8e293da82f00000000000000000000000000000000000000000000000000000000000000000000000000000000000000000000000000000000000000000000000000000002000000000000000000000000acd4045292c7e406fe6bef233899f513d2a99a98000000000000000000000000c02aaa39b223fe8d0a0e5c4f27ead9083c756cc2",
                    "decodedMethod": {
                        "callParams": [
                            {
                                "name": "a",
                                "type": "uint256[]",
                                "value": [
                                    "27,758,440,776,553,831",
                                    "0",
                                    "238,546,255,293,032,495",
                                    "0"
                                ]
                            },
                            {
                                "name": "b",
                                "type": "address[]",
                                "value": [
                                    "0xacd4045292c7e406fe6bef233899f513d2a99a98",
                                    "0xc02aaa39b223fe8d0a0e5c4f27ead9083c756cc2"
                                ]
                            },
                            {
                                "name": "c",
                                "type": "address",
                                "value": "0x7a250d5630b4cf539739df2c5dacb4c659f2488d"
                            },
                            {
                                "name": "d",
                                "type": "address",
                                "value": "0x49033f9ddb1c4f005aba1be48e58eda6fd01caa9"
                            }
                        ],
                        "constructorArguments": "",
                        "name": "SigmaSell",
                        "returnParams": [],
                        "signature": "SigmaSell(uint256[],address[],address,address)"
                    },
                    "errorInfo": "",
                    "fromAddress": "0x3a10dc1a145da500d5fba38b9ec49c8ff11a981f",
                    "gasUsed": 180348,
                    "id": 1,
                    "methodDecoded": true,
                    "operation": "DELEGATECALL",
                    "output": "0x00000000000000000000000000000000000000000000000003732b9173bc3601",
                    "revert": false,
                    "revertMessage": "",
                    "selector": "0x3a571299",
                    "status": true,
                    "value": "0"
                },
                "nodeType": 0
            },
            "10": {
                "event": {
                    "contract": "0xc02aaa39b223fe8d0a0e5c4f27ead9083c756cc2",
                    "decodedLog": {
                        "name": "Transfer",
                        "params": [
                            {
                                "name": "src",
                                "type": "address",
                                "value": "0xd3d1aa4b89c8454ac0404563ae0ef87edab5922e"
                            },
                            {
                                "name": "dst",
                                "type": "address",
                                "value": "0x3a10dc1a145da500d5fba38b9ec49c8ff11a981f"
                            },
                            {
                                "decimalAvailable": true,
                                "name": "wad",
                                "type": "uint256",
                                "value": "251,101,321,361,086,837"
                            }
                        ],
                        "signature": "Transfer(address,address,uint256)"
                    },
                    "id": 10,
                    "logData": "0x000000000000000000000000000000000000000000000000037c1752465bd975",
                    "logDecoded": true,
                    "operation": "EVENT",
                    "revert": false,
                    "status": true,
                    "topics": [
                        "0xddf252ad1be2c89b69c2b068fc378daa952ba7f163c4a11628f55a4df523b3ef",
                        "0x000000000000000000000000d3d1aa4b89c8454ac0404563ae0ef87edab5922e",
                        "0x0000000000000000000000003a10dc1a145da500d5fba38b9ec49c8ff11a981f"
                    ]
                },
                "nodeType": 1
            },
            "11": {
                "invocation": {
                    "address": "0xacd4045292c7e406fe6bef233899f513d2a99a98",
                    "callData": "0x000000000000000000000000d3d1aa4b89c8454ac0404563ae0ef87edab5922e",
                    "decodedMethod": {
                        "callParams": [
                            {
                                "name": "account",
                                "type": "address",
                                "value": "0xd3d1aa4b89c8454ac0404563ae0ef87edab5922e"
                            }
                        ],
                        "constructorArguments": "",
                        "name": "balanceOf",
                        "returnParams": [
                            {
                                "decimalAvailable": true,
                                "name": "",
                                "type": "uint256",
                                "value": "314,241,223,122,979,112"
                            }
                        ],
                        "signature": "balanceOf(address)"
                    },
                    "errorInfo": "",
                    "fromAddress": "0xd3d1aa4b89c8454ac0404563ae0ef87edab5922e",
                    "gasUsed": 642,
                    "id": 11,
                    "methodDecoded": true,
                    "operation": "STATICCALL",
                    "output": "0x000000000000000000000000000000000000000000000000045c68ba3e078928",
                    "revert": false,
                    "revertMessage": "",
                    "selector": "0x70a08231",
                    "status": true,
                    "value": "0"
                },
                "nodeType": 0
            },
            "12": {
                "invocation": {
                    "address": "0xc02aaa39b223fe8d0a0e5c4f27ead9083c756cc2",
                    "callData": "0x000000000000000000000000d3d1aa4b89c8454ac0404563ae0ef87edab5922e",
                    "decodedMethod": {
                        "callParams": [
                            {
                                "name": "",
                                "type": "address",
                                "value": "0xd3d1aa4b89c8454ac0404563ae0ef87edab5922e"
                            }
                        ],
                        "constructorArguments": "",
                        "name": "balanceOf",
                        "returnParams": [
                            {
                                "decimalAvailable": true,
                                "name": "",
                                "type": "uint256",
                                "value": "2,599,305,334,357,382,251"
                            }
                        ],
                        "signature": "balanceOf(address)"
                    },
                    "errorInfo": "",
                    "fromAddress": "0xd3d1aa4b89c8454ac0404563ae0ef87edab5922e",
                    "gasUsed": 534,
                    "id": 12,
                    "methodDecoded": true,
                    "operation": "STATICCALL",
                    "output": "0x0000000000000000000000000000000000000000000000002412966e0d26546b",
                    "revert": false,
                    "revertMessage": "",
                    "selector": "0x70a08231",
                    "status": true,
                    "value": "0"
                },
                "nodeType": 0
            },
            "13": {
                "event": {
                    "contract": "0xd3d1aa4b89c8454ac0404563ae0ef87edab5922e",
                    "decodedLog": {
                        "name": "Sync",
                        "params": [
                            {
                                "name": "reserve0",
                                "type": "uint112",
                                "value": "314,241,223,122,979,112"
                            },
                            {
                                "name": "reserve1",
                                "type": "uint112",
                                "value": "2,599,305,334,357,382,251"
                            }
                        ],
                        "signature": "Sync(uint112,uint112)"
                    },
                    "id": 13,
                    "logData": "0x000000000000000000000000000000000000000000000000045c68ba3e0789280000000000000000000000000000000000000000000000002412966e0d26546b",
                    "logDecoded": true,
                    "operation": "EVENT",
                    "revert": false,
                    "status": true,
                    "topics": [
                        "0x1c411e9a96e071241c2f21f7726b17ae89e3cab4c78be50e062b03a9fffbbad1"
                    ]
                },
                "nodeType": 1
            },
            "14": {
                "event": {
                    "contract": "0xd3d1aa4b89c8454ac0404563ae0ef87edab5922e",
                    "decodedLog": {
                        "name": "Swap",
                        "params": [
                            {
                                "name": "sender",
                                "type": "address",
                                "value": "0x3a10dc1a145da500d5fba38b9ec49c8ff11a981f"
                            },
                            {
                                "name": "to",
                                "type": "address",
                                "value": "0x3a10dc1a145da500d5fba38b9ec49c8ff11a981f"
                            },
                            {
                                "name": "amount0In",
                                "type": "uint256",
                                "value": "27,758,440,776,553,831"
                            },
                            {
                                "name": "amount1In",
                                "type": "uint256",
                                "value": "0"
                            },
                            {
                                "name": "amount0Out",
                                "type": "uint256",
                                "value": "0"
                            },
                            {
                                "name": "amount1Out",
                                "type": "uint256",
                                "value": "251,101,321,361,086,837"
                            }
                        ],
                        "signature": "Swap(address,uint256,uint256,uint256,uint256,address)"
                    },
                    "id": 14,
                    "logData": "0x00000000000000000000000000000000000000000000000000629e27a201556700000000000000000000000000000000000000000000000000000000000000000000000000000000000000000000000000000000000000000000000000000000000000000000000000000000000000000000000000000000037c1752465bd975",
                    "logDecoded": true,
                    "operation": "EVENT",
                    "revert": false,
                    "status": true,
                    "topics": [
                        "0xd78ad95fa46c994b6551d0da85fc275fe613ce37657fb8d5e3d130840159d822",
                        "0x0000000000000000000000003a10dc1a145da500d5fba38b9ec49c8ff11a981f",
                        "0x0000000000000000000000003a10dc1a145da500d5fba38b9ec49c8ff11a981f"
                    ]
                },
                "nodeType": 1
            },
            "15": {
                "invocation": {
                    "address": "0xc02aaa39b223fe8d0a0e5c4f27ead9083c756cc2",
                    "callData": "0x0000000000000000000000003a10dc1a145da500d5fba38b9ec49c8ff11a981f",
                    "decodedMethod": {
                        "callParams": [
                            {
                                "name": "",
                                "type": "address",
                                "value": "0x3a10dc1a145da500d5fba38b9ec49c8ff11a981f"
                            }
                        ],
                        "constructorArguments": "",
                        "name": "balanceOf",
                        "returnParams": [
                            {
                                "decimalAvailable": true,
                                "name": "",
                                "type": "uint256",
                                "value": "251,101,321,361,086,837"
                            }
                        ],
                        "signature": "balanceOf(address)"
                    },
                    "errorInfo": "",
                    "fromAddress": "0x3a10dc1a145da500d5fba38b9ec49c8ff11a981f",
                    "gasUsed": 534,
                    "id": 15,
                    "methodDecoded": true,
                    "operation": "STATICCALL",
                    "output": "0x000000000000000000000000000000000000000000000000037c1752465bd975",
                    "revert": false,
                    "revertMessage": "",
                    "selector": "0x70a08231",
                    "status": true,
                    "value": "0"
                },
                "nodeType": 0
            },
            "16": {
                "invocation": {
                    "address": "0xc02aaa39b223fe8d0a0e5c4f27ead9083c756cc2",
                    "callData": "0x000000000000000000000000000000000000000000000000037c1752465bd975",
                    "decodedMethod": {
                        "callParams": [
                            {
                                "name": "wad",
                                "type": "uint256",
                                "value": "251,101,321,361,086,837"
                            }
                        ],
                        "constructorArguments": "",
                        "name": "withdraw",
                        "returnParams": [],
                        "signature": "withdraw(uint256)"
                    },
                    "errorInfo": "",
                    "fromAddress": "0x3a10dc1a145da500d5fba38b9ec49c8ff11a981f",
                    "gasUsed": 9827,
                    "id": 16,
                    "methodDecoded": true,
                    "operation": "CALL",
                    "output": "",
                    "revert": false,
                    "revertMessage": "",
                    "selector": "0x2e1a7d4d",
                    "status": true,
                    "value": "0"
                },
                "nodeType": 0
            },
            "17": {
                "invocation": {
                    "address": "0x3a10dc1a145da500d5fba38b9ec49c8ff11a981f",
                    "callData": "0x",
                    "decodedMethod": null,
                    "errorInfo": "",
                    "fromAddress": "0xc02aaa39b223fe8d0a0e5c4f27ead9083c756cc2",
                    "gasUsed": 687,
                    "id": 17,
                    "methodDecoded": false,
                    "operation": "CALL",
                    "output": "",
                    "revert": false,
                    "revertMessage": "",
                    "selector": "fallback",
                    "status": true,
                    "value": "0.251101321361086837"
                },
                "nodeType": 0
            },
            "18": {
                "invocation": {
                    "address": "0xd6965f189dddc204999cb836b2bc832461818208",
                    "callData": "0x",
                    "decodedMethod": null,
                    "errorInfo": "",
                    "fromAddress": "0x3a10dc1a145da500d5fba38b9ec49c8ff11a981f",
                    "gasUsed": 55,
                    "id": 18,
                    "methodDecoded": false,
                    "operation": "DELEGATECALL",
                    "output": "",
                    "revert": false,
                    "revertMessage": "",
                    "selector": "fallback",
                    "status": true,
                    "value": "0.251101321361086837"
                },
                "nodeType": 0
            },
            "19": {
                "event": {
                    "contract": "0xc02aaa39b223fe8d0a0e5c4f27ead9083c756cc2",
                    "decodedLog": {
                        "name": "Withdrawal",
                        "params": [
                            {
                                "name": "src",
                                "type": "address",
                                "value": "0x3a10dc1a145da500d5fba38b9ec49c8ff11a981f"
                            },
                            {
                                "name": "wad",
                                "type": "uint256",
                                "value": "251,101,321,361,086,837"
                            }
                        ],
                        "signature": "Withdrawal(address,uint256)"
                    },
                    "id": 19,
                    "logData": "0x000000000000000000000000000000000000000000000000037c1752465bd975",
                    "logDecoded": true,
                    "operation": "EVENT",
                    "revert": false,
                    "status": true,
                    "topics": [
                        "0x7fcf532c15f0a6db0bd6d0e038bea71d30d808c7d98cb3bf7268a95bf5081b65",
                        "0x0000000000000000000000003a10dc1a145da500d5fba38b9ec49c8ff11a981f"
                    ]
                },
                "nodeType": 1
            },
            "2": {
                "invocation": {
                    "address": "0xc02aaa39b223fe8d0a0e5c4f27ead9083c756cc2",
                    "callData": "0x0000000000000000000000003a10dc1a145da500d5fba38b9ec49c8ff11a981f",
                    "decodedMethod": {
                        "callParams": [
                            {
                                "name": "",
                                "type": "address",
                                "value": "0x3a10dc1a145da500d5fba38b9ec49c8ff11a981f"
                            }
                        ],
                        "constructorArguments": "",
                        "name": "balanceOf",
                        "returnParams": [
                            {
                                "decimalAvailable": true,
                                "name": "",
                                "type": "uint256",
                                "value": "0"
                            }
                        ],
                        "signature": "balanceOf(address)"
                    },
                    "errorInfo": "",
                    "fromAddress": "0x3a10dc1a145da500d5fba38b9ec49c8ff11a981f",
                    "gasUsed": 2534,
                    "id": 2,
                    "methodDecoded": true,
                    "operation": "STATICCALL",
                    "output": "0x0000000000000000000000000000000000000000000000000000000000000000",
                    "revert": false,
                    "revertMessage": "",
                    "selector": "0x70a08231",
                    "status": true,
                    "value": "0"
                },
                "nodeType": 0
            },
            "20": {
                "invocation": {
                    "address": "0x7ab9719372a7f7a4baa65821161664da813ec0dc",
                    "callData": "0x",
                    "decodedMethod": null,
                    "errorInfo": "",
                    "fromAddress": "0x3a10dc1a145da500d5fba38b9ec49c8ff11a981f",
                    "gasUsed": 0,
                    "id": 20,
                    "methodDecoded": false,
                    "operation": "CALL",
                    "output": "",
                    "revert": false,
                    "revertMessage": "",
                    "selector": "fallback",
                    "status": true,
                    "value": "0.248590308147475969"
                },
                "nodeType": 0
            },
            "21": {
                "invocation": {
                    "address": "0x49033f9ddb1c4f005aba1be48e58eda6fd01caa9",
                    "callData": "0x",
                    "decodedMethod": null,
                    "errorInfo": "",
                    "fromAddress": "0x3a10dc1a145da500d5fba38b9ec49c8ff11a981f",
                    "gasUsed": 0,
                    "id": 21,
                    "methodDecoded": false,
                    "operation": "CALL",
                    "output": "",
                    "revert": false,
                    "revertMessage": "",
                    "selector": "fallback",
                    "status": true,
                    "value": "0.000502202642722173"
                },
                "nodeType": 0
            },
            "22": {
                "event": {
                    "contract": "0x3a10dc1a145da500d5fba38b9ec49c8ff11a981f",
                    "decodedLog": null,
                    "id": 22,
                    "logData": "0x00000000000000000000000049033f9ddb1c4f005aba1be48e58eda6fd01caa90000000000000000000000000000000000000000000000000001c8c02a1fed7d",
                    "logDecoded": false,
                    "operation": "EVENT",
                    "revert": false,
                    "status": true,
                    "topics": [
                        "0x24c07d9526daec95fb72ea7cecc4cfc860c60f857757a60e897a08c0cf534e08"
                    ]
                },
                "nodeType": 1
            },
            "23": {
                "event": {
                    "contract": "0x3a10dc1a145da500d5fba38b9ec49c8ff11a981f",
                    "decodedLog": null,
                    "id": 23,
                    "logData": "0x0000000000000000000000007ab9719372a7f7a4baa65821161664da813ec0dc00000000000000000000000000000000000000000000000003732b9173bc3601",
                    "logDecoded": false,
                    "operation": "EVENT",
                    "revert": false,
                    "status": true,
                    "topics": [
                        "0xbb9b838bf8ee8d0eb7d0a37afd5cdd707661780ede55ba2c8384368ca0c9db16"
                    ]
                },
                "nodeType": 1
            },
            "24": {
                "event": {
                    "contract": "0x3a10dc1a145da500d5fba38b9ec49c8ff11a981f",
                    "decodedLog": null,
                    "id": 24,
                    "logData": "0x0000000000000000000000007ab9719372a7f7a4baa65821161664da813ec0dc0000000000000000000000000000000000000000000000000008ebc0d29fa374",
                    "logDecoded": false,
                    "operation": "EVENT",
                    "revert": false,
                    "status": true,
                    "topics": [
                        "0x3310ea14266209db2516cc8eae3e55230d2376e02becfb8094363ad465b7794c"
                    ]
                },
                "nodeType": 1
            },
            "3": {
                "invocation": {
                    "address": "0xacd4045292c7e406fe6bef233899f513d2a99a98",
                    "callData": "0x0000000000000000000000007ab9719372a7f7a4baa65821161664da813ec0dc000000000000000000000000d3d1aa4b89c8454ac0404563ae0ef87edab5922e00000000000000000000000000000000000000000000000000629e27a2015567",
                    "decodedMethod": {
                        "callParams": [
                            {
                                "name": "sender",
                                "type": "address",
                                "value": "0x7ab9719372a7f7a4baa65821161664da813ec0dc"
                            },
                            {
                                "name": "recipient",
                                "type": "address",
                                "value": "0xd3d1aa4b89c8454ac0404563ae0ef87edab5922e"
                            },
                            {
                                "decimalAvailable": true,
                                "name": "amount",
                                "type": "uint256",
                                "value": "27,758,440,776,553,831"
                            }
                        ],
                        "constructorArguments": "",
                        "name": "transferFrom",
                        "returnParams": [
                            {
                                "name": "",
                                "type": "bool",
                                "value": true
                            }
                        ],
                        "signature": "transferFrom(address,address,uint256)"
                    },
                    "errorInfo": "",
                    "fromAddress": "0x3a10dc1a145da500d5fba38b9ec49c8ff11a981f",
                    "gasUsed": 46903,
                    "id": 3,
                    "methodDecoded": true,
                    "operation": "CALL",
                    "output": "0x0000000000000000000000000000000000000000000000000000000000000001",
                    "revert": false,
                    "revertMessage": "",
                    "selector": "0x23b872dd",
                    "status": true,
                    "value": "0"
                },
                "nodeType": 0
            },
            "4": {
                "event": {
                    "contract": "0xacd4045292c7e406fe6bef233899f513d2a99a98",
                    "decodedLog": {
                        "name": "Transfer",
                        "params": [
                            {
                                "name": "from",
                                "type": "address",
                                "value": "0x7ab9719372a7f7a4baa65821161664da813ec0dc"
                            },
                            {
                                "name": "to",
                                "type": "address",
                                "value": "0xd3d1aa4b89c8454ac0404563ae0ef87edab5922e"
                            },
                            {
                                "decimalAvailable": true,
                                "name": "value",
                                "type": "uint256",
                                "value": "27,758,440,776,553,831"
                            }
                        ],
                        "signature": "Transfer(address,address,uint256)"
                    },
                    "id": 4,
                    "logData": "0x00000000000000000000000000000000000000000000000000629e27a2015567",
                    "logDecoded": true,
                    "operation": "EVENT",
                    "revert": false,
                    "status": true,
                    "topics": [
                        "0xddf252ad1be2c89b69c2b068fc378daa952ba7f163c4a11628f55a4df523b3ef",
                        "0x0000000000000000000000007ab9719372a7f7a4baa65821161664da813ec0dc",
                        "0x000000000000000000000000d3d1aa4b89c8454ac0404563ae0ef87edab5922e"
                    ]
                },
                "nodeType": 1
            },
            "5": {
                "event": {
                    "contract": "0xacd4045292c7e406fe6bef233899f513d2a99a98",
                    "decodedLog": {
                        "name": "Approval",
                        "params": [
                            {
                                "name": "owner",
                                "type": "address",
                                "value": "0x7ab9719372a7f7a4baa65821161664da813ec0dc"
                            },
                            {
                                "name": "spender",
                                "type": "address",
                                "value": "0x3a10dc1a145da500d5fba38b9ec49c8ff11a981f"
                            },
                            {
                                "decimalAvailable": true,
                                "name": "value",
                                "type": "uint256",
                                "value": "115,792,089,237,316,195,423,570,985,008,687,907,853,269,984,665,640,564,039,457,556,249,472,353,086,104"
                            }
                        ],
                        "signature": "Approval(address,address,uint256)"
                    },
                    "id": 5,
                    "logData": "0xffffffffffffffffffffffffffffffffffffffffffffffffff9d61d85dfeaa98",
                    "logDecoded": true,
                    "operation": "EVENT",
                    "revert": false,
                    "status": true,
                    "topics": [
                        "0x8c5be1e5ebec7d5bd14f71427d1e84f3dd0314c0f7b2291e5b200ac8c7c3b925",
                        "0x0000000000000000000000007ab9719372a7f7a4baa65821161664da813ec0dc",
                        "0x0000000000000000000000003a10dc1a145da500d5fba38b9ec49c8ff11a981f"
                    ]
                },
                "nodeType": 1
            },
            "6": {
                "invocation": {
                    "address": "0xd3d1aa4b89c8454ac0404563ae0ef87edab5922e",
                    "callData": "0x",
                    "decodedMethod": {
                        "callParams": [],
                        "constructorArguments": "",
                        "name": "getReserves",
                        "returnParams": [
                            {
                                "name": "_reserve0",
                                "type": "uint112",
                                "value": "286,482,782,346,425,281"
                            },
                            {
                                "name": "_reserve1",
                                "type": "uint112",
                                "value": "2,850,406,655,718,469,088"
                            },
                            {
                                "name": "_blockTimestampLast",
                                "type": "uint32",
                                "value": "1,726,789,727"
                            }
                        ],
                        "signature": "getReserves()"
                    },
                    "errorInfo": "",
                    "fromAddress": "0x3a10dc1a145da500d5fba38b9ec49c8ff11a981f",
                    "gasUsed": 2504,
                    "id": 6,
                    "methodDecoded": true,
                    "operation": "STATICCALL",
                    "output": "0x00000000000000000000000000000000000000000000000003f9ca929c0633c1000000000000000000000000000000000000000000000000278eadc053822de00000000000000000000000000000000000000000000000000000000066ecb85f",
                    "revert": false,
                    "revertMessage": "",
                    "selector": "0x0902f1ac",
                    "status": true,
                    "value": "0"
                },
                "nodeType": 0
            },
            "7": {
                "invocation": {
                    "address": "0xacd4045292c7e406fe6bef233899f513d2a99a98",
                    "callData": "0x000000000000000000000000d3d1aa4b89c8454ac0404563ae0ef87edab5922e",
                    "decodedMethod": {
                        "callParams": [
                            {
                                "name": "account",
                                "type": "address",
                                "value": "0xd3d1aa4b89c8454ac0404563ae0ef87edab5922e"
                            }
                        ],
                        "constructorArguments": "",
                        "name": "balanceOf",
                        "returnParams": [
                            {
                                "decimalAvailable": true,
                                "name": "",
                                "type": "uint256",
                                "value": "314,241,223,122,979,112"
                            }
                        ],
                        "signature": "balanceOf(address)"
                    },
                    "errorInfo": "",
                    "fromAddress": "0x3a10dc1a145da500d5fba38b9ec49c8ff11a981f",
                    "gasUsed": 642,
                    "id": 7,
                    "methodDecoded": true,
                    "operation": "STATICCALL",
                    "output": "0x000000000000000000000000000000000000000000000000045c68ba3e078928",
                    "revert": false,
                    "revertMessage": "",
                    "selector": "0x70a08231",
                    "status": true,
                    "value": "0"
                },
                "nodeType": 0
            },
            "8": {
                "invocation": {
                    "address": "0xd3d1aa4b89c8454ac0404563ae0ef87edab5922e",
                    "callData": "0x0000000000000000000000000000000000000000000000000000000000000000000000000000000000000000000000000000000000000000037c1752465bd9750000000000000000000000003a10dc1a145da500d5fba38b9ec49c8ff11a981f00000000000000000000000000000000000000000000000000000000000000800000000000000000000000000000000000000000000000000000000000000000",
                    "decodedMethod": {
                        "callParams": [
                            {
                                "name": "amount0Out",
                                "type": "uint256",
                                "value": "0"
                            },
                            {
                                "name": "amount1Out",
                                "type": "uint256",
                                "value": "251,101,321,361,086,837"
                            },
                            {
                                "name": "to",
                                "type": "address",
                                "value": "0x3a10dc1a145da500d5fba38b9ec49c8ff11a981f"
                            },
                            {
                                "name": "data",
                                "type": "bytes",
                                "value": "0x"
                            }
                        ],
                        "constructorArguments": "",
                        "name": "swap",
                        "returnParams": [],
                        "signature": "swap(uint256,uint256,address,bytes)"
                    },
                    "errorInfo": "",
                    "fromAddress": "0x3a10dc1a145da500d5fba38b9ec49c8ff11a981f",
                    "gasUsed": 60461,
                    "id": 8,
                    "methodDecoded": true,
                    "operation": "CALL",
                    "output": "",
                    "revert": false,
                    "revertMessage": "",
                    "selector": "0x022c0d9f",
                    "status": true,
                    "value": "0"
                },
                "nodeType": 0
            },
            "9": {
                "invocation": {
                    "address": "0xc02aaa39b223fe8d0a0e5c4f27ead9083c756cc2",
                    "callData": "0x0000000000000000000000003a10dc1a145da500d5fba38b9ec49c8ff11a981f000000000000000000000000000000000000000000000000037c1752465bd975",
                    "decodedMethod": {
                        "callParams": [
                            {
                                "name": "dst",
                                "type": "address",
                                "value": "0x3a10dc1a145da500d5fba38b9ec49c8ff11a981f"
                            },
                            {
                                "decimalAvailable": true,
                                "name": "wad",
                                "type": "uint256",
                                "value": "251,101,321,361,086,837"
                            }
                        ],
                        "constructorArguments": "",
                        "name": "transfer",
                        "returnParams": [
                            {
                                "name": "",
                                "type": "bool",
                                "value": true
                            }
                        ],
                        "signature": "transfer(address,uint256)"
                    },
                    "errorInfo": "",
                    "fromAddress": "0xd3d1aa4b89c8454ac0404563ae0ef87edab5922e",
                    "gasUsed": 27962,
                    "id": 9,
                    "methodDecoded": true,
                    "operation": "CALL",
                    "output": "0x0000000000000000000000000000000000000000000000000000000000000001",
                    "revert": false,
                    "revertMessage": "",
                    "selector": "0xa9059cbb",
                    "status": true,
                    "value": "0"
                },
                "nodeType": 0
            }
        },
        "gasFlame": [
            {
                "children": [
                    {
                        "children": [
                            {
                                "children": [],
                                "depth": 0,
                                "name": "Initial Gas",
                                "value": 23788
                            },
                            {
                                "children": [
                                    {
                                        "children": [
                                            {
                                                "children": [],
                                                "depth": 2,
                                                "name": "balanceOf",
                                                "value": 2534
                                            },
                                            {
                                                "children": [],
                                                "depth": 2,
                                                "name": "transferFrom",
                                                "value": 46903
                                            },
                                            {
                                                "children": [],
                                                "depth": 2,
                                                "name": "getReserves",
                                                "value": 2504
                                            },
                                            {
                                                "children": [],
                                                "depth": 2,
                                                "name": "balanceOf",
                                                "value": 642
                                            },
                                            {
                                                "children": [
                                                    {
                                                        "children": [],
                                                        "depth": 3,
                                                        "name": "transfer",
                                                        "value": 27962
                                                    },
                                                    {
                                                        "children": [],
                                                        "depth": 3,
                                                        "name": "balanceOf",
                                                        "value": 642
                                                    },
                                                    {
                                                        "children": [],
                                                        "depth": 3,
                                                        "name": "balanceOf",
                                                        "value": 534
                                                    }
                                                ],
                                                "depth": 2,
                                                "name": "swap",
                                                "value": 60461
                                            },
                                            {
                                                "children": [],
                                                "depth": 2,
                                                "name": "balanceOf",
                                                "value": 534
                                            },
                                            {
                                                "children": [
                                                    {
                                                        "children": [
                                                            {
                                                                "children": [],
                                                                "depth": 4,
                                                                "name": "fallback",
                                                                "value": 55
                                                            }
                                                        ],
                                                        "depth": 3,
                                                        "name": "fallback",
                                                        "value": 687
                                                    }
                                                ],
                                                "depth": 2,
                                                "name": "withdraw",
                                                "value": 9827
                                            },
                                            {
                                                "children": [],
                                                "depth": 2,
                                                "name": "fallback",
                                                "value": 0
                                            },
                                            {
                                                "children": [],
                                                "depth": 2,
                                                "name": "fallback",
                                                "value": 0
                                            }
                                        ],
                                        "depth": 1,
                                        "name": "SigmaSell",
                                        "value": 180348
                                    }
                                ],
                                "depth": 0,
                                "name": "Executed Gas",
                                "value": 187542
                            }
                        ],
                        "depth": -1,
                        "name": "Actual Gas Used",
                        "value": 183830
                    },
                    {
                        "children": [],
                        "depth": -1,
                        "name": "Refunded Gas",
                        "value": 27500
                    }
                ],
                "depth": -2,
                "name": "Total Gas",
                "value": 211330
            }
        ],
        "isConfirmed": true,
        "mainTrace": [
            {
                "children": [
                    {
                        "children": [
                            {
                                "children": [
                                    {
                                        "children": [],
                                        "depth": 2,
                                        "id": 2,
                                        "order": 2
                                    },
                                    {
                                        "children": [
                                            {
                                                "children": [],
                                                "depth": 3,
                                                "id": 4,
                                                "order": 4
                                            },
                                            {
                                                "children": [],
                                                "depth": 3,
                                                "id": 5,
                                                "order": 5
                                            }
                                        ],
                                        "depth": 2,
                                        "id": 3,
                                        "order": 3
                                    },
                                    {
                                        "children": [],
                                        "depth": 2,
                                        "id": 6,
                                        "order": 6
                                    },
                                    {
                                        "children": [],
                                        "depth": 2,
                                        "id": 7,
                                        "order": 7
                                    },
                                    {
                                        "children": [
                                            {
                                                "children": [
                                                    {
                                                        "children": [],
                                                        "depth": 4,
                                                        "id": 10,
                                                        "order": 10
                                                    }
                                                ],
                                                "depth": 3,
                                                "id": 9,
                                                "order": 9
                                            },
                                            {
                                                "children": [],
                                                "depth": 3,
                                                "id": 11,
                                                "order": 11
                                            },
                                            {
                                                "children": [],
                                                "depth": 3,
                                                "id": 12,
                                                "order": 12
                                            },
                                            {
                                                "children": [],
                                                "depth": 3,
                                                "id": 13,
                                                "order": 13
                                            },
                                            {
                                                "children": [],
                                                "depth": 3,
                                                "id": 14,
                                                "order": 14
                                            }
                                        ],
                                        "depth": 2,
                                        "id": 8,
                                        "order": 8
                                    },
                                    {
                                        "children": [],
                                        "depth": 2,
                                        "id": 15,
                                        "order": 15
                                    },
                                    {
                                        "children": [
                                            {
                                                "children": [
                                                    {
                                                        "children": [],
                                                        "depth": 4,
                                                        "id": 18,
                                                        "order": 18
                                                    }
                                                ],
                                                "depth": 3,
                                                "id": 17,
                                                "order": 17
                                            },
                                            {
                                                "children": [],
                                                "depth": 3,
                                                "id": 19,
                                                "order": 19
                                            }
                                        ],
                                        "depth": 2,
                                        "id": 16,
                                        "order": 16
                                    },
                                    {
                                        "children": [],
                                        "depth": 2,
                                        "id": 20,
                                        "order": 20
                                    },
                                    {
                                        "children": [],
                                        "depth": 2,
                                        "id": 21,
                                        "order": 21
                                    },
                                    {
                                        "children": [],
                                        "depth": 2,
                                        "id": 22,
                                        "order": 22
                                    },
                                    {
                                        "children": [],
                                        "depth": 2,
                                        "id": 23,
                                        "order": 23
                                    },
                                    {
                                        "children": [],
                                        "depth": 2,
                                        "id": 24,
                                        "order": 24
                                    }
                                ],
                                "depth": 1,
                                "id": 1,
                                "order": 1
                            }
                        ],
                        "depth": 0,
                        "id": 0,
                        "order": 0
                    }
                ],
                "depth": -1,
                "id": -1,
                "order": -1
            }
        ],
        "mainTraceNodeCount": 25,
        "parentIdMap": {
            "0": -1,
            "1": 0,
            "10": 9,
            "11": 8,
            "12": 8,
            "13": 8,
            "14": 8,
            "15": 1,
            "16": 1,
            "17": 16,
            "18": 17,
            "19": 16,
            "2": 1,
            "20": 1,
            "21": 1,
            "22": 1,
            "23": 1,
            "24": 1,
            "3": 1,
            "4": 3,
            "5": 3,
            "6": 1,
            "7": 1,
            "8": 1,
            "9": 8
        },
        "tidyTrace": [
            {
                "children": [
                    {
                        "children": [
                            {
                                "children": [
                                    {
                                        "children": [
                                            {
                                                "children": [],
                                                "depth": 3,
                                                "id": 4,
                                                "order": 4
                                            },
                                            {
                                                "children": [],
                                                "depth": 3,
                                                "id": 5,
                                                "order": 5
                                            }
                                        ],
                                        "depth": 2,
                                        "id": 3,
                                        "order": 3
                                    },
                                    {
                                        "children": [
                                            {
                                                "children": [
                                                    {
                                                        "children": [],
                                                        "depth": 4,
                                                        "id": 10,
                                                        "order": 10
                                                    }
                                                ],
                                                "depth": 3,
                                                "id": 9,
                                                "order": 9
                                            },
                                            {
                                                "children": [],
                                                "depth": 3,
                                                "id": 13,
                                                "order": 13
                                            },
                                            {
                                                "children": [],
                                                "depth": 3,
                                                "id": 14,
                                                "order": 14
                                            }
                                        ],
                                        "depth": 2,
                                        "id": 8,
                                        "order": 8
                                    },
                                    {
                                        "children": [
                                            {
                                                "children": [
                                                    {
                                                        "children": [],
                                                        "depth": 4,
                                                        "id": 18,
                                                        "order": 18
                                                    }
                                                ],
                                                "depth": 3,
                                                "id": 17,
                                                "order": 17
                                            },
                                            {
                                                "children": [],
                                                "depth": 3,
                                                "id": 19,
                                                "order": 19
                                            }
                                        ],
                                        "depth": 2,
                                        "id": 16,
                                        "order": 16
                                    },
                                    {
                                        "children": [],
                                        "depth": 2,
                                        "id": 20,
                                        "order": 20
                                    },
                                    {
                                        "children": [],
                                        "depth": 2,
                                        "id": 21,
                                        "order": 21
                                    },
                                    {
                                        "children": [],
                                        "depth": 2,
                                        "id": 22,
                                        "order": 22
                                    },
                                    {
                                        "children": [],
                                        "depth": 2,
                                        "id": 23,
                                        "order": 23
                                    },
                                    {
                                        "children": [],
                                        "depth": 2,
                                        "id": 24,
                                        "order": 24
                                    }
                                ],
                                "depth": 1,
                                "id": 1,
                                "order": 1
                            }
                        ],
                        "depth": 0,
                        "id": 0,
                        "order": 0
                    }
                ],
                "depth": -1,
                "id": -1,
                "order": -1
            }
        ],
        "tidyTraceNodeCount": 19
    },
    "state_change": {
        "stateChanges": [
            {
                "address": "0xacd4045292c7e406fe6bef233899f513d2a99a98",
                "erc": "ERC-20",
                "slots": [
                    {
                        "current": "0x0000000000000000000000000000000000000000000000000000000000000000",
                        "key": "0x72b96cccaa7f29aaecad5f12242227f3e248dd521477a39299c6e6b2b9971e8f",
                        "prev": "0x00000000000000000000000000000000000000000000000000629e27a2015567"
                    },
                    {
                        "current": "0x000000000000000000000000000000000000000000000000045c68ba3e078928",
                        "key": "0x781287263fc0f4f928d3148e5fc9dcf040ba578a8b287d458028b7b6b65a4af7",
                        "prev": "0x00000000000000000000000000000000000000000000000003f9ca929c0633c1"
                    },
                    {
                        "current": "0xffffffffffffffffffffffffffffffffffffffffffffffffff9d61d85dfeaa98",
                        "key": "0x962de7f347d499bdd03eeffdbb7d0fd67a3946697f4f665e63f8d011e2fd65ce",
                        "prev": "0xffffffffffffffffffffffffffffffffffffffffffffffffffffffffffffffff"
                    }
                ],
                "storageVariables": [
                    {
                        "name": "_balances",
                        "type": "mapping(address => uint256)",
                        "value": {
                            "pairs": [
                                {
                                    "key": "0x7ab9719372a7f7a4baa65821161664da813ec0dc",
                                    "value": {
                                        "current": "0",
                                        "prev": "27758440776553831",
                                        "typeTag": 1
                                    }
                                },
                                {
                                    "key": "0xd3d1aa4b89c8454ac0404563ae0ef87edab5922e",
                                    "value": {
                                        "current": "314241223122979112",
                                        "prev": "286482782346425281",
                                        "typeTag": 1
                                    }
                                }
                            ],
                            "typeTag": 4
                        }
                    },
                    {
                        "name": "_allowances",
                        "type": "mapping(address => mapping(address => uint256))",
                        "value": {
                            "pairs": [
                                {
                                    "key": "0x7ab9719372a7f7a4baa65821161664da813ec0dc",
                                    "value": {
                                        "pairs": [
                                            {
                                                "key": "0x3a10dc1a145da500d5fba38b9ec49c8ff11a981f",
                                                "value": {
                                                    "current": "115792089237316195423570985008687907853269984665640564039457556249472353086104",
                                                    "prev": "115792089237316195423570985008687907853269984665640564039457584007913129639935",
                                                    "typeTag": 1
                                                }
                                            }
                                        ],
                                        "typeTag": 4
                                    }
                                }
                            ],
                            "typeTag": 4
                        }
                    }
                ]
            },
            {
                "address": "0xc02aaa39b223fe8d0a0e5c4f27ead9083c756cc2",
                "erc": "ERC-20",
                "slots": [
                    {
                        "current": "0x0000000000000000000000000000000000000000000000002412966e0d26546b",
                        "key": "0xdcde08b1d160bf549479fda2a0096e79be9cd8bc896b953458ed231cd67691ff",
                        "prev": "0x000000000000000000000000000000000000000000000000278eadc053822de0"
                    }
                ],
                "storageVariables": [
                    {
                        "name": "balanceOf",
                        "type": "mapping(address => uint256)",
                        "value": {
                            "pairs": [
                                {
                                    "key": "0xd3d1aa4b89c8454ac0404563ae0ef87edab5922e",
                                    "value": {
                                        "current": "2599305334357382251",
                                        "prev": "2850406655718469088",
                                        "typeTag": 1
                                    }
                                }
                            ],
                            "typeTag": 4
                        }
                    }
                ]
            },
            {
                "address": "0xd3d1aa4b89c8454ac0404563ae0ef87edab5922e",
                "erc": "ERC-20",
                "slots": [
                    {
                        "current": "0x0000000000000000000000000000000010354463c93df4b0cde8a25e25b93db0",
                        "key": "0x0000000000000000000000000000000000000000000000000000000000000009",
                        "prev": "0x000000000000000000000000000000000fbddf07bdfcbe2658623d7a6087a234"
                    },
                    {
                        "current": "0x000000000000000000000000000000000062a64cd0a2cdbfc29058608a5bbee0",
                        "key": "0x000000000000000000000000000000000000000000000000000000000000000a",
                        "prev": "0x000000000000000000000000000000000061718bbb87763cabcee1b4de308098"
                    },
                    {
                        "current": "0x66ecb86b0000000000002412966e0d26546b000000000000045c68ba3e078928",
                        "key": "0x0000000000000000000000000000000000000000000000000000000000000008",
                        "prev": "0x66ecb85f000000000000278eadc053822de000000000000003f9ca929c0633c1"
                    }
                ],
                "storageVariables": [
                    {
                        "name": "reserve0",
                        "type": "uint112",
                        "value": {
                            "current": "314241223122979112",
                            "prev": "286482782346425281",
                            "typeTag": 1
                        }
                    },
                    {
                        "name": "reserve1",
                        "type": "uint112",
                        "value": {
                            "current": "2599305334357382251",
                            "prev": "2850406655718469088",
                            "typeTag": 1
                        }
                    },
                    {
                        "name": "blockTimestampLast",
                        "type": "uint32",
                        "value": {
                            "current": "1726789739",
                            "prev": "1726789727",
                            "typeTag": 1
                        }
                    },
                    {
                        "name": "price0CumulativeLast",
                        "type": "uint256",
                        "value": {
                            "current": "21544226775783524024504195301139627440",
                            "prev": "20924287633773786557458118095705449012",
                            "typeTag": 1
                        }
                    },
                    {
                        "name": "price1CumulativeLast",
                        "type": "uint256",
                        "value": {
                            "current": "512218058040670017070274381833027296",
                            "prev": "505955778315140582137496109392625816",
                            "typeTag": 1
                        }
                    }
                ]
            }
        ]
    }
}