{
    "balance_change": {
        "balanceChanges": [
            {
                "account": "0xdfd5293d8e347dfe59e90efd55b2956a1343963d",
                "assets": [
                    {
                        "address": "0x514910771af9ca656af840dff83e8264ecf986ca",
                        "amount": "1,748.48",
                        "iconUrl": "https://assets.blocksec.com/icon/f97453a18956674db69f16b525216d646fc76f3c7f90f0cd6147f8534d5af3e9.png",
                        "isERC1155": false,
                        "isERC721": false,
                        "sign": false,
                        "value": "35186.9287"
                    }
                ]
            },
            {
                "account": "0x3aff86656a65f3d81b3e0b4c4f8d4199f3b3fbde",
                "assets": [
                    {
                        "address": "0x514910771af9ca656af840dff83e8264ecf986ca",
                        "amount": "1,748.48",
                        "iconUrl": "https://assets.blocksec.com/icon/f97453a18956674db69f16b525216d646fc76f3c7f90f0cd6147f8534d5af3e9.png",
                        "isERC1155": false,
                        "isERC721": false,
                        "sign": true,
                        "value": "35186.9287"
                    }
                ]
            }
        ]
    },
    "profile": {
        "basic_info": {
            "baseFee": "73.153968806",
            "blockNumber": 13745080,
            "callData": "0xa9059cbb0000000000000000000000003aff86656a65f3d81b3e0b4c4f8d4199f3b3fbde00000000000000000000000000000000000000000000005ec908d027eb000000",
            "debugEnable": true,
            "errorInfo": "",
            "eventCount": 1,
            "feeRecipient": "0x7f101fe45e6649a6fb8f3f8b43ed03d353f2b90c",
            "formatValue": "0",
            "gasLimit": 207128,
            "gasPrice": "92",
            "gasUsed": 52077,
            "intTxnCount": 0,
            "internalRevert": false,
            "internalRevertMessage": "",
            "isContractCreation": false,
            "isFlashloan": false,
            "maxFee": "",
            "nonce": 2390343,
            "overwritedBlockNumber": -1,
            "priorityFee": "",
            "receiver": "0x514910771af9ca656af840dff83e8264ecf986ca",
            "revertMessage": "",
            "sender": "0xdfd5293d8e347dfe59e90efd55b2956a1343963d",
            "simulationEnable": true,
            "sourceTxnHash": "0x0e0d6f37606af3743be9f80a98753c9a8a4ead926be85f6f5104050fbb8365a0",
            "status": true,
            "timestamp": "2021-12-05T08:41:24Z",
            "transactionFee": "0.004791084",
            "txnHash": "0x0e0d6f37606af3743be9f80a98753c9a8a4ead926be85f6f5104050fbb8365a0",
            "txnIndex": 3,
            "type": 0,
            "value": "0"
        },
        "fund_flow": [
            {
                "amount": "1,748.48",
                "from": "0xdfd5293d8e347dfe59e90efd55b2956a1343963d",
                "id": 1,
                "isERC1155": false,
                "isERC721": false,
                "isReverted": false,
                "order": 1,
                "to": "0x3aff86656a65f3d81b3e0b4c4f8d4199f3b3fbde",
                "token": "0x514910771af9ca656af840dff83e8264ecf986ca"
            }
        ],
        "token_infos": [
            {
                "address": "0x514910771af9ca656af840dff83e8264ecf986ca",
                "decimals": 18
            },
            {
                "address": "0xc02aaa39b223fe8d0a0e5c4f27ead9083c756cc2",
                "decimals": 18
            },
            {
                "address": "0xeeeeeeeeeeeeeeeeeeeeeeeeeeeeeeeeeeeeeeee",
                "decimals": 18
            }
        ]
    },
    "address_label": {
        "labels": [
            {
                "address": "0x0000000000000000000000000000000000000002",
                "label": "Precompiled"
            },
            {
                "address": "0x0000000000000000000000000000000000000003",
                "label": "Precompiled"
            },
            {
                "address": "0x0000000000000000000000000000000000000004",
                "label": "Precompiled"
            },
            {
                "address": "0xeeeeeeeeeeeeeeeeeeeeeeeeeeeeeeeeeeeeeeee",
                "label": "Ether"
            },
            {
                "address": "0x514910771af9ca656af840dff83e8264ecf986ca",
                "label": "Chainlink: LINK Token"
            },
            {
                "address": "0xdfd5293d8e347dfe59e90efd55b2956a1343963d",
                "label": "Binance 16"
            },
            {
                "address": "0x0000000000000000000000000000000000000001",
                "label": "Precompiled"
            }
        ]
    },
    "trace": {
        "accountLabels": null,
        "dataMap": {
            "-1": {
                "invocation": {
                    "address": "0xdfd5293d8e347dfe59e90efd55b2956a1343963d",
                    "callData": "",
                    "decodedMethod": null,
                    "errorInfo": "",
                    "fromAddress": "",
                    "gasUsed": 0,
                    "id": -1,
                    "methodDecoded": false,
                    "operation": "",
                    "output": "",
                    "revert": false,
                    "revertMessage": "",
                    "selector": "",
                    "status": false,
                    "value": ""
                },
                "nodeType": 0
            },
            "0": {
                "invocation": {
                    "address": "0x514910771af9ca656af840dff83e8264ecf986ca",
                    "callData": "0x0000000000000000000000003aff86656a65f3d81b3e0b4c4f8d4199f3b3fbde00000000000000000000000000000000000000000000005ec908d027eb000000",
                    "decodedMethod": {
                        "callParams": [
                            {
                                "name": "_to",
                                "type": "address",
                                "value": "0x3aff86656a65f3d81b3e0b4c4f8d4199f3b3fbde"
                            },
                            {
                                "decimalAvailable": true,
                                "name": "_value",
                                "type": "uint256",
                                "value": "1,748,480,000,000,000,000,000"
                            }
                        ],
                        "constructorArguments": "",
                        "name": "transfer",
                        "returnParams": [
                            {
                                "name": "success",
                                "type": "bool",
                                "value": true
                            }
                        ],
                        "signature": "transfer(address,uint256)"
                    },
                    "errorInfo": "",
                    "fromAddress": "0xdfd5293d8e347dfe59e90efd55b2956a1343963d",
                    "gasUsed": 52077,
                    "id": 0,
                    "methodDecoded": true,
                    "operation": "CALL",
                    "output": "0x0000000000000000000000000000000000000000000000000000000000000001",
                    "revert": false,
                    "revertMessage": "",
                    "selector": "0xa9059cbb",
                    "status": true,
                    "value": "0"
                },
                "nodeType": 0
            },
            "1": {
                "event": {
                    "contract": "0x514910771af9ca656af840dff83e8264ecf986ca",
                    "decodedLog": {
                        "name": "Transfer",
                        "params": [
                            {
                                "name": "from",
                                "type": "address",
                                "value": "0xdfd5293d8e347dfe59e90efd55b2956a1343963d"
                            },
                            {
                                "name": "to",
                                "type": "address",
                                "value": "0x3aff86656a65f3d81b3e0b4c4f8d4199f3b3fbde"
                            },
                            {
                                "decimalAvailable": true,
                                "name": "value",
                                "type": "uint256",
                                "value": "1,748,480,000,000,000,000,000"
                            }
                        ],
                        "signature": "Transfer(address,address,uint256)"
                    },
                    "id": 1,
                    "logData": "0x00000000000000000000000000000000000000000000005ec908d027eb000000",
                    "logDecoded": true,
                    "operation": "EVENT",
                    "revert": false,
                    "status": true,
                    "topics": [
                        "0xddf252ad1be2c89b69c2b068fc378daa952ba7f163c4a11628f55a4df523b3ef",
                        "0x000000000000000000000000dfd5293d8e347dfe59e90efd55b2956a1343963d",
                        "0x0000000000000000000000003aff86656a65f3d81b3e0b4c4f8d4199f3b3fbde"
                    ]
                },
                "nodeType": 1
            }
        },
        "gasFlame": [
            {
                "children": [
                    {
                        "children": [
                            {
                                "children": [],
                                "depth": 0,
                                "name": "Initial Gas",
                                "value": 21632
                            },
                            {
                                "children": [],
                                "depth": 0,
                                "name": "Executed Gas",
                                "value": 30445
                            }
                        ],
                        "depth": -1,
                        "name": "Actual Gas Used",
                        "value": 52077
                    },
                    {
                        "children": [],
                        "depth": -1,
                        "name": "Refunded Gas",
                        "value": 0
                    }
                ],
                "depth": -2,
                "name": "Total Gas",
                "value": 52077
            }
        ],
        "isConfirmed": true,
        "mainTrace": [
            {
                "children": [
                    {
                        "children": [
                            {
                                "children": [],
                                "depth": 1,
                                "id": 1,
                                "order": 1
                            }
                        ],
                        "depth": 0,
                        "id": 0,
                        "order": 0
                    }
                ],
                "depth": -1,
                "id": -1,
                "order": -1
            }
        ],
        "mainTraceNodeCount": 2,
        "parentIdMap": {
            "0": -1,
            "1": 0
        },
        "tidyTrace": [
            {
                "children": [
                    {
                        "children": [
                            {
                                "children": [],
                                "depth": 1,
                                "id": 1,
                                "order": 1
                            }
                        ],
                        "depth": 0,
                        "id": 0,
                        "order": 0
                    }
                ],
                "depth": -1,
                "id": -1,
                "order": -1
            }
        ],
        "tidyTraceNodeCount": 2
    },
    "state_change": {
        "stateChanges": [
            {
                "address": "0x514910771af9ca656af840dff83e8264ecf986ca",
                "erc": "",
                "slots": [
                    {
                        "current": "0x00000000000000000000000000000000000000000000a7290c94e70ccc127000",
                        "key": "0x507f23fce2bd949c083e53237d2f1d0ac2c6004816f78e2de31cb8aec270174b",
                        "prev": "0x00000000000000000000000000000000000000000000a787d59db734b7127000"
                    },
                    {
                        "current": "0x00000000000000000000000000000000000000000000005ec908d027eb000000",
                        "key": "0x711016a1cb7a38349b6d9cb8682a094d3cb4a265d087efb4599b23f33f405fd3",
                        "prev": "0x0000000000000000000000000000000000000000000000000000000000000000"
                    }
                ],
                "storageVariables": [
                    {
                        "name": "balances",
                        "type": "mapping(address => uint256)",
                        "value": {
                            "pairs": [
                                {
                                    "key": "0x3aff86656a65f3d81b3e0b4c4f8d4199f3b3fbde",
                                    "value": {
                                        "current": "1748480000000000000000",
                                        "prev": "0",
                                        "typeTag": 1
                                    }
                                },
                                {
                                    "key": "0xdfd5293d8e347dfe59e90efd55b2956a1343963d",
                                    "value": {
                                        "current": "789392425749720000000000",
                                        "prev": "791140905749720000000000",
                                        "typeTag": 1
                                    }
                                }
                            ],
                            "typeTag": 4
                        }
                    }
                ]
            }
        ]
    }
}