{
    "balance_change": {
        "balanceChanges": []
    },
    "profile": {
        "basic_info": {
            "baseFee": "",
            "blockNumber": 4578962,
            "callData": "0x278b8c0e00000000000000000000000016b5a0de0520e1964a20ac8ef4034bd7d0920d8f00000000000000000000000000000000000000000000005ede20f01a4598000000000000000000000000000000000000000000000000000000000000000000000000000000000000000000000000000000000000000000000aedc313e09ec000000000000000000000000000000000000000000000000000000000000046054400000000000000000000000000000000000000000000000000000000731f8528000000000000000000000000000000000000000000000000000000000000001c10d62eb767ce5b62dfb6a1094b12642baf8d59507fdc629c6b9e5e97dc55420c2dcea1b39ac4e3762abf48eddd7878169a8ddc4797e7d6bd612f3ab0c51576b8",
            "debugEnable": true,
            "errorInfo": "",
            "eventCount": 1,
            "feeRecipient": "0x829bd824b016326a401d083b33d092293333a830",
            "formatValue": "0",
            "gasLimit": 250000,
            "gasPrice": "30",
            "gasUsed": 59354,
            "intTxnCount": 2,
            "internalRevert": false,
            "internalRevertMessage": "",
            "isContractCreation": false,
            "isFlashloan": false,
            "maxFee": "",
            "nonce": 159,
            "overwritedBlockNumber": -1,
            "priorityFee": "",
            "receiver": "0x8d12a197cb00d4747a1fe03395095ce2a5cc6819",
            "revertMessage": "",
            "sender": "0x528141557cecf9c50787200434d2ba4a1729222d",
            "simulationEnable": true,
            "sourceTxnHash": "0x0ee1b0ec9a4f67dcedc93f8fb6595793b6a5f2fbd5e573ebd0101fd6230fb10f",
            "status": true,
            "timestamp": "2017-11-19T00:27:56Z",
            "transactionFee": "0.00178062",
            "txnHash": "0x0ee1b0ec9a4f67dcedc93f8fb6595793b6a5f2fbd5e573ebd0101fd6230fb10f",
            "txnIndex": 0,
            "type": 0,
            "value": "0"
        },
        "fund_flow": [],
        "token_infos": [
            {
                "address": "0xc02aaa39b223fe8d0a0e5c4f27ead9083c756cc2",
                "decimals": 18
            },
            {
                "address": "0xeeeeeeeeeeeeeeeeeeeeeeeeeeeeeeeeeeeeeeee",
                "decimals": 18
            }
        ]
    },
    "address_label": {
        "labels": [
            {
                "address": "0x0000000000000000000000000000000000000004",
                "label": "Precompiled"
            },
            {
                "address": "0xeeeeeeeeeeeeeeeeeeeeeeeeeeeeeeeeeeeeeeee",
                "label": "Ether"
            },
            {
                "address": "0x8d12a197cb00d4747a1fe03395095ce2a5cc6819",
                "label": "EtherDelta"
            },
            {
                "address": "0x0000000000000000000000000000000000000002",
                "label": "Precompiled"
            },
            {
                "address": "0x0000000000000000000000000000000000000000",
                "label": "Null Address"
            },
            {
                "address": "0x16b5a0de0520e1964a20ac8ef4034bd7d0920d8f",
                "label": "TIO"
            },
            {
                "address": "0x0000000000000000000000000000000000000001",
                "label": "Precompiled"
            },
            {
                "address": "0x0000000000000000000000000000000000000003",
                "label": "Precompiled"
            }
        ]
    },
    "trace": {
        "accountLabels": null,
        "dataMap": {
            "-1": {
                "invocation": {
                    "address": "0x528141557cecf9c50787200434d2ba4a1729222d",
                    "callData": "",
                    "decodedMethod": null,
                    "errorInfo": "",
                    "fromAddress": "",
                    "gasUsed": 0,
                    "id": -1,
                    "methodDecoded": false,
                    "operation": "",
                    "output": "",
                    "revert": false,
                    "revertMessage": "",
                    "selector": "",
                    "status": false,
                    "value": ""
                },
                "nodeType": 0
            },
            "0": {
                "invocation": {
                    "address": "0x8d12a197cb00d4747a1fe03395095ce2a5cc6819",
                    "callData": "0x00000000000000000000000016b5a0de0520e1964a20ac8ef4034bd7d0920d8f00000000000000000000000000000000000000000000005ede20f01a4598000000000000000000000000000000000000000000000000000000000000000000000000000000000000000000000000000000000000000000000aedc313e09ec000000000000000000000000000000000000000000000000000000000000046054400000000000000000000000000000000000000000000000000000000731f8528000000000000000000000000000000000000000000000000000000000000001c10d62eb767ce5b62dfb6a1094b12642baf8d59507fdc629c6b9e5e97dc55420c2dcea1b39ac4e3762abf48eddd7878169a8ddc4797e7d6bd612f3ab0c51576b8",
                    "decodedMethod": {
                        "callParams": [
                            {
                                "name": "tokenGet",
                                "type": "address",
                                "value": "0x16b5a0de0520e1964a20ac8ef4034bd7d0920d8f"
                            },
                            {
                                "name": "amountGet",
                                "type": "uint256",
                                "value": "1,750,000,000,000,000,000,000"
                            },
                            {
                                "name": "tokenGive",
                                "type": "address",
                                "value": "0x0000000000000000000000000000000000000000"
                            },
                            {
                                "name": "amountGive",
                                "type": "uint256",
                                "value": "787,500,000,000,000,000"
                            },
                            {
                                "name": "expires",
                                "type": "uint256",
                                "value": "4,588,868"
                            },
                            {
                                "name": "nonce",
                                "type": "uint256",
                                "value": "1,931,445,544"
                            },
                            {
                                "name": "v",
                                "type": "uint8",
                                "value": "28"
                            },
                            {
                                "name": "r",
                                "type": "bytes32",
                                "value": "0x10d62eb767ce5b62dfb6a1094b12642baf8d59507fdc629c6b9e5e97dc55420c"
                            },
                            {
                                "name": "s",
                                "type": "bytes32",
                                "value": "0x2dcea1b39ac4e3762abf48eddd7878169a8ddc4797e7d6bd612f3ab0c51576b8"
                            }
                        ],
                        "constructorArguments": "",
                        "name": "cancelOrder",
                        "returnParams": [],
                        "signature": "cancelOrder(address,uint256,address,uint256,uint256,uint256,uint8,bytes32,bytes32)"
                    },
                    "errorInfo": "",
                    "fromAddress": "0x528141557cecf9c50787200434d2ba4a1729222d",
                    "gasUsed": 59354,
                    "id": 0,
                    "methodDecoded": true,
                    "operation": "CALL",
                    "output": "",
                    "revert": false,
                    "revertMessage": "",
                    "selector": "0x278b8c0e",
                    "status": true,
                    "value": "0"
                },
                "nodeType": 0
            },
            "1": {
                "invocation": {
                    "address": "0x0000000000000000000000000000000000000002",
                    "callData": "0xcb00d4747a1fe03395095ce2a5cc681916b5a0de0520e1964a20ac8ef4034bd7d0920d8f00000000000000000000000000000000000000000000005ede20f01a4598000000000000000000000000000000000000000000000000000000000000000000000000000000000000000000000aedc313e09ec000000000000000000000000000000000000000000000000000000000000046054400000000000000000000000000000000000000000000000000000000731f8528",
                    "decodedMethod": {
                        "callParams": [
                            {
                                "name": "data",
                                "type": "bytes",
                                "value": "0x8d12a197cb00d4747a1fe03395095ce2a5cc681916b5a0de0520e1964a20ac8ef4034bd7d0920d8f00000000000000000000000000000000000000000000005ede20f01a4598000000000000000000000000000000000000000000000000000000000000000000000000000000000000000000000aedc313e09ec000000000000000000000000000000000000000000000000000000000000046054400000000000000000000000000000000000000000000000000000000731f8528"
                            }
                        ],
                        "constructorArguments": "",
                        "name": "sha256hash",
                        "returnParams": [
                            {
                                "name": "hash",
                                "type": "bytes32",
                                "value": "0x0e3060e8c04a8eeaf70bee3b68ec48736a4a139efb3623ab590401ab22115d29"
                            }
                        ],
                        "signature": "sha256hash(bytes)"
                    },
                    "errorInfo": "",
                    "fromAddress": "0x8d12a197cb00d4747a1fe03395095ce2a5cc6819",
                    "gasUsed": 132,
                    "id": 1,
                    "methodDecoded": true,
                    "operation": "CALL",
                    "output": "0x0e3060e8c04a8eeaf70bee3b68ec48736a4a139efb3623ab590401ab22115d29",
                    "revert": false,
                    "revertMessage": "",
                    "selector": "0x8d12a197",
                    "status": true,
                    "value": "0"
                },
                "nodeType": 0
            },
            "2": {
                "invocation": {
                    "address": "0x0000000000000000000000000000000000000001",
                    "callData": "0x7f4116050f75da5a9c40c9824fd28a44195083372d365f8734e73653000000000000000000000000000000000000000000000000000000000000001c10d62eb767ce5b62dfb6a1094b12642baf8d59507fdc629c6b9e5e97dc55420c2dcea1b39ac4e3762abf48eddd7878169a8ddc4797e7d6bd612f3ab0c51576b8",
                    "decodedMethod": {
                        "callParams": [
                            {
                                "name": "hash",
                                "type": "bytes32",
                                "value": "0x442156647f4116050f75da5a9c40c9824fd28a44195083372d365f8734e73653"
                            },
                            {
                                "name": "v",
                                "type": "uint256",
                                "value": "28"
                            },
                            {
                                "name": "r",
                                "type": "bytes32",
                                "value": "0x10d62eb767ce5b62dfb6a1094b12642baf8d59507fdc629c6b9e5e97dc55420c"
                            },
                            {
                                "name": "s",
                                "type": "bytes32",
                                "value": "0x2dcea1b39ac4e3762abf48eddd7878169a8ddc4797e7d6bd612f3ab0c51576b8"
                            }
                        ],
                        "constructorArguments": "",
                        "name": "ecrecover",
                        "returnParams": [
                            {
                                "name": "",
                                "type": "address",
                                "value": "0x528141557cecf9c50787200434d2ba4a1729222d"
                            }
                        ],
                        "signature": "ecrecover(bytes32,uint256,bytes32,bytes32)"
                    },
                    "errorInfo": "",
                    "fromAddress": "0x8d12a197cb00d4747a1fe03395095ce2a5cc6819",
                    "gasUsed": 3000,
                    "id": 2,
                    "methodDecoded": true,
                    "operation": "CALL",
                    "output": "0x000000000000000000000000528141557cecf9c50787200434d2ba4a1729222d",
                    "revert": false,
                    "revertMessage": "",
                    "selector": "0x44215664",
                    "status": true,
                    "value": "0"
                },
                "nodeType": 0
            },
            "3": {
                "event": {
                    "contract": "0x8d12a197cb00d4747a1fe03395095ce2a5cc6819",
                    "decodedLog": {
                        "name": "Cancel",
                        "params": [
                            {
                                "name": "tokenGet",
                                "type": "address",
                                "value": "0x16b5a0de0520e1964a20ac8ef4034bd7d0920d8f"
                            },
                            {
                                "name": "amountGet",
                                "type": "uint256",
                                "value": "1,750,000,000,000,000,000,000"
                            },
                            {
                                "name": "tokenGive",
                                "type": "address",
                                "value": "0x0000000000000000000000000000000000000000"
                            },
                            {
                                "name": "amountGive",
                                "type": "uint256",
                                "value": "787,500,000,000,000,000"
                            },
                            {
                                "name": "expires",
                                "type": "uint256",
                                "value": "4,588,868"
                            },
                            {
                                "name": "nonce",
                                "type": "uint256",
                                "value": "1,931,445,544"
                            },
                            {
                                "name": "user",
                                "type": "address",
                                "value": "0x528141557cecf9c50787200434d2ba4a1729222d"
                            },
                            {
                                "name": "v",
                                "type": "uint8",
                                "value": "28"
                            },
                            {
                                "name": "r",
                                "type": "bytes32",
                                "value": "0x10d62eb767ce5b62dfb6a1094b12642baf8d59507fdc629c6b9e5e97dc55420c"
                            },
                            {
                                "name": "s",
                                "type": "bytes32",
                                "value": "0x2dcea1b39ac4e3762abf48eddd7878169a8ddc4797e7d6bd612f3ab0c51576b8"
                            }
                        ],
                        "signature": "Cancel(address,uint256,address,uint256,uint256,uint256,address,uint8,bytes32,bytes32)"
                    },
                    "id": 3,
                    "logData": "0x00000000000000000000000016b5a0de0520e1964a20ac8ef4034bd7d0920d8f00000000000000000000000000000000000000000000005ede20f01a4598000000000000000000000000000000000000000000000000000000000000000000000000000000000000000000000000000000000000000000000aedc313e09ec000000000000000000000000000000000000000000000000000000000000046054400000000000000000000000000000000000000000000000000000000731f8528000000000000000000000000528141557cecf9c50787200434d2ba4a1729222d000000000000000000000000000000000000000000000000000000000000001c10d62eb767ce5b62dfb6a1094b12642baf8d59507fdc629c6b9e5e97dc55420c2dcea1b39ac4e3762abf48eddd7878169a8ddc4797e7d6bd612f3ab0c51576b8",
                    "logDecoded": true,
                    "operation": "EVENT",
                    "revert": false,
                    "status": true,
                    "topics": [
                        "0x1e0b760c386003e9cb9bcf4fcf3997886042859d9b6ed6320e804597fcdb28b0"
                    ]
                },
                "nodeType": 1
            }
        },
        "gasFlame": [
            {
                "children": [
                    {
                        "children": [
                            {
                                "children": [],
                                "depth": 0,
                                "name": "Initial Gas",
                                "value": 29208
                            },
                            {
                                "children": [
                                    {
                                        "children": [],
                                        "depth": 1,
                                        "name": "sha256hash",
                                        "value": 132
                                    },
                                    {
                                        "children": [],
                                        "depth": 1,
                                        "name": "ecrecover",
                                        "value": 3000
                                    }
                                ],
                                "depth": 0,
                                "name": "Executed Gas",
                                "value": 30146
                            }
                        ],
                        "depth": -1,
                        "name": "Actual Gas Used",
                        "value": 59354
                    },
                    {
                        "children": [],
                        "depth": -1,
                        "name": "Refunded Gas",
                        "value": 0
                    }
                ],
                "depth": -2,
                "name": "Total Gas",
                "value": 59354
            }
        ],
        "isConfirmed": true,
        "mainTrace": [
            {
                "children": [
                    {
                        "children": [
                            {
                                "children": [],
                                "depth": 1,
                                "id": 1,
                                "order": 1
                            },
                            {
                                "children": [],
                                "depth": 1,
                                "id": 2,
                                "order": 2
                            },
                            {
                                "children": [],
                                "depth": 1,
                                "id": 3,
                                "order": 3
                            }
                        ],
                        "depth": 0,
                        "id": 0,
                        "order": 0
                    }
                ],
                "depth": -1,
                "id": -1,
                "order": -1
            }
        ],
        "mainTraceNodeCount": 4,
        "parentIdMap": {
            "0": -1,
            "1": 0,
            "2": 0,
            "3": 0
        },
        "tidyTrace": [
            {
                "children": [
                    {
                        "children": [
                            {
                                "children": [],
                                "depth": 1,
                                "id": 1,
                                "order": 1
                            },
                            {
                                "children": [],
                                "depth": 1,
                                "id": 2,
                                "order": 2
                            },
                            {
                                "children": [],
                                "depth": 1,
                                "id": 3,
                                "order": 3
                            }
                        ],
                        "depth": 0,
                        "id": 0,
                        "order": 0
                    }
                ],
                "depth": -1,
                "id": -1,
                "order": -1
            }
        ],
        "tidyTraceNodeCount": 4
    },
    "state_change": {
        "stateChanges": [
            {
                "address": "0x8d12a197cb00d4747a1fe03395095ce2a5cc6819",
                "erc": "",
                "slots": [
                    {
                        "current": "0x00000000000000000000000000000000000000000000005ede20f01a45980000",
                        "key": "0x9aade41e4c720d8f32649271a2f7c509307189a618c39bb371abe8a6348820bf",
                        "prev": "0x0000000000000000000000000000000000000000000000000000000000000000"
                    }
                ],
                "storageVariables": []
            }
        ]
    }
}