{
    "balance_change": {
        "balanceChanges": []
    },
    "profile": {
        "basic_info": {
            "baseFee": "",
            "blockNumber": 11336610,
            "callData": "0x202ee0ed000000000000000000000000000000000000000000000000000000000000129e0000000000000000000000000000000000000000000000000000000c17e74cb3",
            "debugEnable": true,
            "errorInfo": "",
            "eventCount": 2,
            "feeRecipient": "0x5a0b54d5dc17e0aadc383d2db43b0a0d3e029c4c",
            "formatValue": "0",
            "gasLimit": 500000,
            "gasPrice": "31.60769628",
            "gasUsed": 82903,
            "intTxnCount": 0,
            "internalRevert": false,
            "internalRevertMessage": "",
            "isContractCreation": false,
            "isFlashloan": false,
            "maxFee": "",
            "nonce": 130583,
            "overwritedBlockNumber": -1,
            "priorityFee": "",
            "receiver": "0x00c7a37b03690fb9f41b5c5af8131735c7275446",
            "revertMessage": "",
            "sender": "0x98db8c499016aa9d860fcd1a9b75a1d7ef3fc3b0",
            "simulationEnable": true,
            "sourceTxnHash": "0x0e7a0e484edec8223dfb4f3c7dc897cf6994da11d102e5f8a08db8511593789a",
            "status": true,
            "timestamp": "2020-11-26T21:55:34Z",
            "transactionFee": "0.00262037284470084",
            "txnHash": "0x0e7a0e484edec8223dfb4f3c7dc897cf6994da11d102e5f8a08db8511593789a",
            "txnIndex": 99,
            "type": 0,
            "value": "0"
        },
        "fund_flow": [],
        "token_infos": [
            {
                "address": "0xeeeeeeeeeeeeeeeeeeeeeeeeeeeeeeeeeeeeeeee",
                "decimals": 18
            },
            {
                "address": "0xc02aaa39b223fe8d0a0e5c4f27ead9083c756cc2",
                "decimals": 18
            }
        ]
    },
    "address_label": {
        "labels": [
            {
                "address": "0x00c7a37b03690fb9f41b5c5af8131735c7275446",
                "label": "Chainlink: Old ETH/USD FM A. Price Feed"
            },
            {
                "address": "0x0000000000000000000000000000000000000001",
                "label": "Precompiled"
            },
            {
                "address": "0x0000000000000000000000000000000000000002",
                "label": "Precompiled"
            },
            {
                "address": "0x0000000000000000000000000000000000000003",
                "label": "Precompiled"
            },
            {
                "address": "0x0000000000000000000000000000000000000004",
                "label": "Precompiled"
            },
            {
                "address": "0xeeeeeeeeeeeeeeeeeeeeeeeeeeeeeeeeeeeeeeee",
                "label": "Ether"
            }
        ]
    },
    "trace": {
        "accountLabels": null,
        "dataMap": {
            "-1": {
                "invocation": {
                    "address": "0x98db8c499016aa9d860fcd1a9b75a1d7ef3fc3b0",
                    "callData": "",
                    "decodedMethod": null,
                    "errorInfo": "",
                    "fromAddress": "",
                    "gasUsed": 0,
                    "id": -1,
                    "methodDecoded": false,
                    "operation": "",
                    "output": "",
                    "revert": false,
                    "revertMessage": "",
                    "selector": "",
                    "status": false,
                    "value": ""
                },
                "nodeType": 0
            },
            "0": {
                "invocation": {
                    "address": "0x00c7a37b03690fb9f41b5c5af8131735c7275446",
                    "callData": "0x000000000000000000000000000000000000000000000000000000000000129e0000000000000000000000000000000000000000000000000000000c17e74cb3",
                    "decodedMethod": {
                        "callParams": [
                            {
                                "name": "_roundId",
                                "type": "uint256",
                                "value": "4,766"
                            },
                            {
                                "name": "_submission",
                                "type": "int256",
                                "value": "51,940,641,971"
                            }
                        ],
                        "constructorArguments": "",
                        "name": "submit",
                        "returnParams": [],
                        "signature": "submit(uint256,int256)"
                    },
                    "errorInfo": "",
                    "fromAddress": "0x98db8c499016aa9d860fcd1a9b75a1d7ef3fc3b0",
                    "gasUsed": 82903,
                    "id": 0,
                    "methodDecoded": true,
                    "operation": "CALL",
                    "output": "",
                    "revert": false,
                    "revertMessage": "",
                    "selector": "0x202ee0ed",
                    "status": true,
                    "value": "0"
                },
                "nodeType": 0
            },
            "1": {
                "event": {
                    "contract": "0x00c7a37b03690fb9f41b5c5af8131735c7275446",
                    "decodedLog": {
                        "name": "SubmissionReceived",
                        "params": [
                            {
                                "name": "submission",
                                "type": "int256",
                                "value": "51,940,641,971"
                            },
                            {
                                "name": "round",
                                "type": "uint32",
                                "value": "4,766"
                            },
                            {
                                "name": "oracle",
                                "type": "address",
                                "value": "0x98db8c499016aa9d860fcd1a9b75a1d7ef3fc3b0"
                            }
                        ],
                        "signature": "SubmissionReceived(int256,uint32,address)"
                    },
                    "id": 1,
                    "logData": "0x",
                    "logDecoded": true,
                    "operation": "EVENT",
                    "revert": false,
                    "status": true,
                    "topics": [
                        "0x92e98423f8adac6e64d0608e519fd1cefb861498385c6dee70d58fc926ddc68c",
                        "0x0000000000000000000000000000000000000000000000000000000c17e74cb3",
                        "0x000000000000000000000000000000000000000000000000000000000000129e",
                        "0x00000000000000000000000098db8c499016aa9d860fcd1a9b75a1d7ef3fc3b0"
                    ]
                },
                "nodeType": 1
            },
            "2": {
                "event": {
                    "contract": "0x00c7a37b03690fb9f41b5c5af8131735c7275446",
                    "decodedLog": {
                        "name": "AvailableFundsUpdated",
                        "params": [
                            {
                                "name": "amount",
                                "type": "uint256",
                                "value": "33,002,240,000,000,000,000,000"
                            }
                        ],
                        "signature": "AvailableFundsUpdated(uint256)"
                    },
                    "id": 2,
                    "logData": "0x",
                    "logDecoded": true,
                    "operation": "EVENT",
                    "revert": false,
                    "status": true,
                    "topics": [
                        "0xfe25c73e3b9089fac37d55c4c7efcba6f04af04cebd2fc4d6d7dbb07e1e5234f",
                        "0x0000000000000000000000000000000000000000000006fd0e157aa37b800000"
                    ]
                },
                "nodeType": 1
            }
        },
        "gasFlame": [
            {
                "children": [
                    {
                        "children": [
                            {
                                "children": [],
                                "depth": 0,
                                "name": "Initial Gas",
                                "value": 21404
                            },
                            {
                                "children": [],
                                "depth": 0,
                                "name": "Executed Gas",
                                "value": 61499
                            }
                        ],
                        "depth": -1,
                        "name": "Actual Gas Used",
                        "value": 82903
                    },
                    {
                        "children": [],
                        "depth": -1,
                        "name": "Refunded Gas",
                        "value": 0
                    }
                ],
                "depth": -2,
                "name": "Total Gas",
                "value": 82903
            }
        ],
        "isConfirmed": true,
        "mainTrace": [
            {
                "children": [
                    {
                        "children": [
                            {
                                "children": [],
                                "depth": 1,
                                "id": 1,
                                "order": 1
                            },
                            {
                                "children": [],
                                "depth": 1,
                                "id": 2,
                                "order": 2
                            }
                        ],
                        "depth": 0,
                        "id": 0,
                        "order": 0
                    }
                ],
                "depth": -1,
                "id": -1,
                "order": -1
            }
        ],
        "mainTraceNodeCount": 3,
        "parentIdMap": {
            "0": -1,
            "1": 0,
            "2": 0
        },
        "tidyTrace": [
            {
                "children": [
                    {
                        "children": [
                            {
                                "children": [],
                                "depth": 1,
                                "id": 1,
                                "order": 1
                            },
                            {
                                "children": [],
                                "depth": 1,
                                "id": 2,
                                "order": 2
                            }
                        ],
                        "depth": 0,
                        "id": 0,
                        "order": 0
                    }
                ],
                "depth": -1,
                "id": -1,
                "order": -1
            }
        ],
        "tidyTraceNodeCount": 3
    },
    "state_change": {
        "stateChanges": [
            {
                "address": "0x00c7a37b03690fb9f41b5c5af8131735c7275446",
                "erc": "",
                "slots": [
                    {
                        "current": "0x000000000000000000000000000000000000000000000000000000000000000c",
                        "key": "0x9e9066c6b8015006a6e72aea250235a7b29f79df9f5c5447faeed1d235e06be8",
                        "prev": "0x000000000000000000000000000000000000000000000000000000000000000b"
                    },
                    {
                        "current": "0x0000000000000000000000000000000000000000000000000000000c17e74cb3",
                        "key": "0x6aa4dcbc907beceda9e3a991467936bb951205497dd04de380a41549b59cb78d",
                        "prev": "0x0000000000000000000000000000000000000000000000000000000000000000"
                    },
                    {
                        "current": "0x0000122a0000129effffffff0000000100000000000000033d79b25331190000",
                        "key": "0x2267ff12ab32cb415e6b3e2cdbd3e250ac6047dd69a55b0e1876c2dec38b2511",
                        "prev": "0x0000122a0000129dffffffff0000000100000000000000033782079a6bae0000"
                    },
                    {
                        "current": "0x0000000000000000000000000000000000000000000000000000000c17e74cb3",
                        "key": "0x2267ff12ab32cb415e6b3e2cdbd3e250ac6047dd69a55b0e1876c2dec38b2512",
                        "prev": "0x0000000000000000000000000000000000000000000000000000000c183a1bbf"
                    },
                    {
                        "current": "0x0000000000000214c5182eb68e43000000000000000006fd0e157aa37b800000",
                        "key": "0x000000000000000000000000000000000000000000000000000000000000000d",
                        "prev": "0x0000000000000214bf2083fdc8d8000000000000000006fd140d255c40eb0000"
                    }
                ],
                "storageVariables": [
                    {
                        "name": "details",
                        "type": "mapping(uint32 => struct FluxAggregator.RoundDetails)",
                        "value": {
                            "pairs": [
                                {
                                    "key": "4766",
                                    "value": {
                                        "fields": [
                                            {
                                                "name": "submissions",
                                                "type": "int256[]",
                                                "value": {
                                                    "elemType": "int256",
                                                    "elems": [
                                                        {
                                                            "index": 11,
                                                            "value": {
                                                                "current": "51940641971",
                                                                "prev": "0",
                                                                "typeTag": 1
                                                            }
                                                        }
                                                    ],
                                                    "typeTag": 2
                                                }
                                            }
                                        ],
                                        "typeTag": 3
                                    }
                                }
                            ],
                            "typeTag": 4
                        }
                    },
                    {
                        "name": "oracles",
                        "type": "mapping(address => struct FluxAggregator.OracleStatus)",
                        "value": {
                            "pairs": [
                                {
                                    "key": "0x98db8c499016aa9d860fcd1a9b75a1d7ef3fc3b0",
                                    "value": {
                                        "fields": [
                                            {
                                                "name": "withdrawable",
                                                "type": "uint128",
                                                "value": {
                                                    "current": "59770000000000000000",
                                                    "prev": "59340000000000000000",
                                                    "typeTag": 1
                                                }
                                            },
                                            {
                                                "name": "startingRound",
                                                "type": "uint32",
                                                "value": {
                                                    "current": "1",
                                                    "prev": "1",
                                                    "typeTag": 1
                                                }
                                            },
                                            {
                                                "name": "endingRound",
                                                "type": "uint32",
                                                "value": {
                                                    "current": "4294967295",
                                                    "prev": "4294967295",
                                                    "typeTag": 1
                                                }
                                            },
                                            {
                                                "name": "lastReportedRound",
                                                "type": "uint32",
                                                "value": {
                                                    "current": "4766",
                                                    "prev": "4765",
                                                    "typeTag": 1
                                                }
                                            },
                                            {
                                                "name": "lastStartedRound",
                                                "type": "uint32",
                                                "value": {
                                                    "current": "4650",
                                                    "prev": "4650",
                                                    "typeTag": 1
                                                }
                                            },
                                            {
                                                "name": "latestSubmission",
                                                "type": "int256",
                                                "value": {
                                                    "current": "51940641971",
                                                    "prev": "51946068927",
                                                    "typeTag": 1
                                                }
                                            }
                                        ],
                                        "typeTag": 3
                                    }
                                }
                            ],
                            "typeTag": 4
                        }
                    },
                    {
                        "name": "recordedFunds",
                        "type": "struct FluxAggregator.Funds",
                        "value": {
                            "fields": [
                                {
                                    "name": "available",
                                    "type": "uint128",
                                    "value": {
                                        "current": "33002240000000000000000",
                                        "prev": "33002670000000000000000",
                                        "typeTag": 1
                                    }
                                },
                                {
                                    "name": "allocated",
                                    "type": "uint128",
                                    "value": {
                                        "current": "9827870000000000000000",
                                        "prev": "9827440000000000000000",
                                        "typeTag": 1
                                    }
                                }
                            ],
                            "typeTag": 3
                        }
                    }
                ]
            }
        ]
    }
}