{
    "balance_change": {
        "balanceChanges": [
            {
                "account": "0xd8b93107d820d294cd8082a15c65261ee9d30790",
                "assets": [
                    {
                        "address": "0xf226e38c3007b3d974fc79bcf5a77750035436ee",
                        "amount": "20",
                        "iconUrl": "",
                        "isERC1155": false,
                        "isERC721": false,
                        "sign": false,
                        "value": ""
                    }
                ]
            },
            {
                "account": "0x0000000000000000000000000000000000000000",
                "assets": [
                    {
                        "address": "0x8853b05833029e3cf8d3cbb592f9784fa43d2a79",
                        "amount": "1",
                        "iconUrl": "",
                        "isERC1155": false,
                        "isERC721": true,
                        "sign": false,
                        "tokenID": "281569",
                        "value": ""
                    }
                ]
            },
            {
                "account": "0xbe25ee3619472545418acb609b0ce6ca6f69bdfb",
                "assets": [
                    {
                        "address": "0xf226e38c3007b3d974fc79bcf5a77750035436ee",
                        "amount": "20",
                        "iconUrl": "",
                        "isERC1155": false,
                        "isERC721": false,
                        "sign": true,
                        "value": ""
                    }
                ]
            },
            {
                "account": "0xcd883c7799f3890f0030ad61a910b5c57512a879",
                "assets": [
                    {
                        "address": "0x8853b05833029e3cf8d3cbb592f9784fa43d2a79",
                        "amount": "1",
                        "iconUrl": "",
                        "isERC1155": false,
                        "isERC721": true,
                        "sign": true,
                        "tokenID": "281569",
                        "value": ""
                    }
                ]
            }
        ]
    },
    "profile": {
        "basic_info": {
            "baseFee": "",
            "blockNumber": 9349250,
            "callData": "0xee5301d5000000000000000000000000cd883c7799f3890f0030ad61a910b5c57512a879b2ed8f2403e3db782462934088cae0322c33928704507ba5baa9628ec5fcd9feb295664a998829d3f5eb76199cad71042e8b523b8f39cb0e876062bf4624121900000000000000000000000000000000000000000000000000000000000000a00000000000000000000000000000000000000000000000000000000000000120000000000000000000000000000000000000000000000000000000000000000304f74fb45d1e6b79ecb733e42a5e7efc1b1c489996f288fe93c4b07185598e1895427bb5ab07b6c41921b477b7c17b6aec06fa5b4f567cbb37e6dfc804e76720a38dc4c81c2679b2ea0ce07772b4f45954ce9c84758f6eb7bc8ffe5d18d3b80f000000000000000000000000000000000000000000000000000000000000001f636f6465783a3a35653262646164356465356435333438393330656534393200",
            "debugEnable": true,
            "errorInfo": "",
            "eventCount": 4,
            "feeRecipient": "0x5a0b54d5dc17e0aadc383d2db43b0a0d3e029c4c",
            "formatValue": "0",
            "gasLimit": 381529,
            "gasPrice": "2",
            "gasUsed": 294634,
            "intTxnCount": 8,
            "internalRevert": false,
            "internalRevertMessage": "",
            "isContractCreation": false,
            "isFlashloan": false,
            "maxFee": "",
            "nonce": 268568,
            "overwritedBlockNumber": -1,
            "priorityFee": "",
            "receiver": "0xd8b93107d820d294cd8082a15c65261ee9d30790",
            "revertMessage": "",
            "sender": "0x4e57529d3630b4ad415bdedda508e40e4c632baf",
            "simulationEnable": true,
            "sourceTxnHash": "0x0fe87cf7d00217cb8ed21b8039adf13b7415040885d0b5da41c1ea5756961583",
            "status": true,
            "timestamp": "2020-01-25T06:06:50Z",
            "transactionFee": "0.000589268",
            "txnHash": "0x0fe87cf7d00217cb8ed21b8039adf13b7415040885d0b5da41c1ea5756961583",
            "txnIndex": 32,
            "type": 0,
            "value": "0"
        },
        "fund_flow": [
            {
                "amount": "20",
                "from": "0xd8b93107d820d294cd8082a15c65261ee9d30790",
                "id": 1,
                "isERC1155": false,
                "isERC721": false,
                "isReverted": false,
                "order": 1,
                "to": "0xbe25ee3619472545418acb609b0ce6ca6f69bdfb",
                "token": "0xf226e38c3007b3d974fc79bcf5a77750035436ee"
            },
            {
                "amount": "1",
                "from": "0x0000000000000000000000000000000000000000",
                "id": 2,
                "isERC1155": false,
                "isERC721": true,
                "isReverted": false,
                "order": 2,
                "to": "0xcd883c7799f3890f0030ad61a910b5c57512a879",
                "token": "0x8853b05833029e3cf8d3cbb592f9784fa43d2a79",
                "tokenID": "281569"
            }
        ],
        "token_infos": [
            {
                "address": "0xc02aaa39b223fe8d0a0e5c4f27ead9083c756cc2",
                "decimals": 18
            },
            {
                "address": "0xf226e38c3007b3d974fc79bcf5a77750035436ee",
                "decimals": 18
            },
            {
                "address": "0xeeeeeeeeeeeeeeeeeeeeeeeeeeeeeeeeeeeeeeee",
                "decimals": 18
            }
        ]
    },
    "address_label": {
        "labels": [
            {
                "address": "0xeeeeeeeeeeeeeeeeeeeeeeeeeeeeeeeeeeeeeeee",
                "label": "Ether"
            },
            {
                "address": "0xf226e38c3007b3d974fc79bcf5a77750035436ee",
                "label": "CodexCoin (CODX)"
            },
            {
                "address": "0x0000000000000000000000000000000000000000",
                "label": "Null Address"
            },
            {
                "address": "0x2c00a92a9c5c919a1a4b5a8ee6bc520f61dbe421",
                "label": "CodexRecord"
            },
            {
                "address": "0x0000000000000000000000000000000000000002",
                "label": "Precompiled"
            },
            {
                "address": "0x0000000000000000000000000000000000000004",
                "label": "Precompiled"
            },
            {
                "address": "0x8853b05833029e3cf8d3cbb592f9784fa43d2a79",
                "label": "Codex Record: CR Token"
            },
            {
                "address": "0x0000000000000000000000000000000000000001",
                "label": "Precompiled"
            },
            {
                "address": "0x0000000000000000000000000000000000000003",
                "label": "Precompiled"
            }
        ]
    },
    "trace": {
        "accountLabels": null,
        "dataMap": {
            "-1": {
                "invocation": {
                    "address": "0x4e57529d3630b4ad415bdedda508e40e4c632baf",
                    "callData": "",
                    "decodedMethod": null,
                    "errorInfo": "",
                    "fromAddress": "",
                    "gasUsed": 0,
                    "id": -1,
                    "methodDecoded": false,
                    "operation": "",
                    "output": "",
                    "revert": false,
                    "revertMessage": "",
                    "selector": "",
                    "status": false,
                    "value": ""
                },
                "nodeType": 0
            },
            "0": {
                "invocation": {
                    "address": "0xd8b93107d820d294cd8082a15c65261ee9d30790",
                    "callData": "0x000000000000000000000000cd883c7799f3890f0030ad61a910b5c57512a879b2ed8f2403e3db782462934088cae0322c33928704507ba5baa9628ec5fcd9feb295664a998829d3f5eb76199cad71042e8b523b8f39cb0e876062bf4624121900000000000000000000000000000000000000000000000000000000000000a00000000000000000000000000000000000000000000000000000000000000120000000000000000000000000000000000000000000000000000000000000000304f74fb45d1e6b79ecb733e42a5e7efc1b1c489996f288fe93c4b07185598e1895427bb5ab07b6c41921b477b7c17b6aec06fa5b4f567cbb37e6dfc804e76720a38dc4c81c2679b2ea0ce07772b4f45954ce9c84758f6eb7bc8ffe5d18d3b80f000000000000000000000000000000000000000000000000000000000000001f636f6465783a3a35653262646164356465356435333438393330656534393200",
                    "decodedMethod": {
                        "callParams": [
                            {
                                "name": "_to",
                                "type": "address",
                                "value": "0xcd883c7799f3890f0030ad61a910b5c57512a879"
                            },
                            {
                                "name": "_nameHash",
                                "type": "bytes32",
                                "value": "0xb2ed8f2403e3db782462934088cae0322c33928704507ba5baa9628ec5fcd9fe"
                            },
                            {
                                "name": "_descriptionHash",
                                "type": "bytes32",
                                "value": "0xb295664a998829d3f5eb76199cad71042e8b523b8f39cb0e876062bf46241219"
                            },
                            {
                                "name": "_fileHashes",
                                "type": "bytes32[]",
                                "value": [
                                    "0x04f74fb45d1e6b79ecb733e42a5e7efc1b1c489996f288fe93c4b07185598e18",
                                    "0x95427bb5ab07b6c41921b477b7c17b6aec06fa5b4f567cbb37e6dfc804e76720",
                                    "0xa38dc4c81c2679b2ea0ce07772b4f45954ce9c84758f6eb7bc8ffe5d18d3b80f"
                                ]
                            },
                            {
                                "name": "_data",
                                "type": "bytes",
                                "value": "0x636f6465783a3a356532626461643564653564353334383933306565343932"
                            }
                        ],
                        "constructorArguments": "",
                        "name": "mint",
                        "returnParams": [],
                        "signature": "mint(address,bytes32,bytes32,bytes32[],bytes)"
                    },
                    "errorInfo": "",
                    "fromAddress": "0x4e57529d3630b4ad415bdedda508e40e4c632baf",
                    "gasUsed": 294634,
                    "id": 0,
                    "methodDecoded": true,
                    "operation": "CALL",
                    "output": "",
                    "revert": false,
                    "revertMessage": "",
                    "selector": "0xee5301d5",
                    "status": true,
                    "value": "0"
                },
                "nodeType": 0
            },
            "1": {
                "invocation": {
                    "address": "0x029c8f8668c2f89379e23ba27c6af9847a1ceec7",
                    "callData": "0xee5301d500000000000000000000000000000000000000000000000000000000",
                    "decodedMethod": null,
                    "errorInfo": "",
                    "fromAddress": "0xd8b93107d820d294cd8082a15c65261ee9d30790",
                    "gasUsed": 6961,
                    "id": 1,
                    "methodDecoded": false,
                    "operation": "STATICCALL",
                    "output": "0x000000000000000000000000000000000000000000000001158e460913d00000",
                    "revert": false,
                    "revertMessage": "",
                    "selector": "0xc5ae44de",
                    "status": true,
                    "value": "0"
                },
                "nodeType": 0
            },
            "10": {
                "event": {
                    "contract": "0x8853b05833029e3cf8d3cbb592f9784fa43d2a79",
                    "decodedLog": {
                        "name": "Transfer",
                        "params": [
                            {
                                "name": "from",
                                "type": "address",
                                "value": "0x0000000000000000000000000000000000000000"
                            },
                            {
                                "name": "to",
                                "type": "address",
                                "value": "0xcd883c7799f3890f0030ad61a910b5c57512a879"
                            },
                            {
                                "decimalAvailable": true,
                                "name": "tokenId",
                                "type": "uint256",
                                "value": "281,569"
                            }
                        ],
                        "signature": "Transfer(address,address,uint256)"
                    },
                    "id": 10,
                    "logData": "0x",
                    "logDecoded": true,
                    "operation": "EVENT",
                    "revert": false,
                    "status": true,
                    "topics": [
                        "0xddf252ad1be2c89b69c2b068fc378daa952ba7f163c4a11628f55a4df523b3ef",
                        "0x0000000000000000000000000000000000000000000000000000000000000000",
                        "0x000000000000000000000000cd883c7799f3890f0030ad61a910b5c57512a879",
                        "0x0000000000000000000000000000000000000000000000000000000000044be1"
                    ]
                },
                "nodeType": 1
            },
            "11": {
                "event": {
                    "contract": "0x8853b05833029e3cf8d3cbb592f9784fa43d2a79",
                    "decodedLog": {
                        "name": "Minted",
                        "params": [
                            {
                                "name": "_tokenId",
                                "type": "uint256",
                                "value": "281,569"
                            },
                            {
                                "name": "_data",
                                "type": "bytes",
                                "value": "0x636f6465783a3a356532626461643564653564353334383933306565343932"
                            }
                        ],
                        "signature": "Minted(uint256,bytes)"
                    },
                    "id": 11,
                    "logData": "0x0000000000000000000000000000000000000000000000000000000000044be10000000000000000000000000000000000000000000000000000000000000040000000000000000000000000000000000000000000000000000000000000001f636f6465783a3a35653262646164356465356435333438393330656534393200",
                    "logDecoded": true,
                    "operation": "EVENT",
                    "revert": false,
                    "status": true,
                    "topics": [
                        "0x9573133e4bf0477d257d5e746e10de577953ee706da897be78cf668a64c16a16"
                    ]
                },
                "nodeType": 1
            },
            "12": {
                "event": {
                    "contract": "0xd8b93107d820d294cd8082a15c65261ee9d30790",
                    "decodedLog": null,
                    "id": 12,
                    "logData": "0x",
                    "logDecoded": false,
                    "operation": "EVENT",
                    "revert": false,
                    "status": true,
                    "topics": []
                },
                "nodeType": 1
            },
            "2": {
                "invocation": {
                    "address": "0x8853b05833029e3cf8d3cbb592f9784fa43d2a79",
                    "callData": "0x",
                    "decodedMethod": {
                        "callParams": [],
                        "constructorArguments": "",
                        "name": "feeRecipient",
                        "returnParams": [
                            {
                                "name": "",
                                "type": "address",
                                "value": "0x0000000000000000000000000000000000000000"
                            }
                        ],
                        "signature": "feeRecipient()"
                    },
                    "errorInfo": "",
                    "fromAddress": "0x029c8f8668c2f89379e23ba27c6af9847a1ceec7",
                    "gasUsed": 3311,
                    "id": 2,
                    "methodDecoded": true,
                    "operation": "STATICCALL",
                    "output": "0x0000000000000000000000000000000000000000000000000000000000000000",
                    "revert": false,
                    "revertMessage": "",
                    "selector": "0x46904840",
                    "status": true,
                    "value": "0"
                },
                "nodeType": 0
            },
            "3": {
                "invocation": {
                    "address": "0x2c00a92a9c5c919a1a4b5a8ee6bc520f61dbe421",
                    "callData": "0x",
                    "decodedMethod": {
                        "callParams": [],
                        "constructorArguments": "",
                        "name": "feeRecipient",
                        "returnParams": [
                            {
                                "name": "",
                                "type": "address",
                                "value": "0x0000000000000000000000000000000000000000"
                            }
                        ],
                        "signature": "feeRecipient()"
                    },
                    "errorInfo": "",
                    "fromAddress": "0x8853b05833029e3cf8d3cbb592f9784fa43d2a79",
                    "gasUsed": 1423,
                    "id": 3,
                    "methodDecoded": true,
                    "operation": "DELEGATECALL",
                    "output": "0x0000000000000000000000000000000000000000000000000000000000000000",
                    "revert": false,
                    "revertMessage": "",
                    "selector": "0x46904840",
                    "status": true,
                    "value": "0"
                },
                "nodeType": 0
            },
            "4": {
                "invocation": {
                    "address": "0x029c8f8668c2f89379e23ba27c6af9847a1ceec7",
                    "callData": "0x",
                    "decodedMethod": {
                        "callParams": [],
                        "constructorArguments": "",
                        "name": "feeRecipient",
                        "returnParams": [
                            {
                                "name": "",
                                "type": "address",
                                "value": "0xbe25ee3619472545418acb609b0ce6ca6f69bdfb"
                            }
                        ],
                        "signature": "feeRecipient()"
                    },
                    "errorInfo": "",
                    "fromAddress": "0xd8b93107d820d294cd8082a15c65261ee9d30790",
                    "gasUsed": 1083,
                    "id": 4,
                    "methodDecoded": true,
                    "operation": "STATICCALL",
                    "output": "0x000000000000000000000000be25ee3619472545418acb609b0ce6ca6f69bdfb",
                    "revert": false,
                    "revertMessage": "",
                    "selector": "0x46904840",
                    "status": true,
                    "value": "0"
                },
                "nodeType": 0
            },
            "5": {
                "invocation": {
                    "address": "0xf226e38c3007b3d974fc79bcf5a77750035436ee",
                    "callData": "0x000000000000000000000000be25ee3619472545418acb609b0ce6ca6f69bdfb000000000000000000000000000000000000000000000001158e460913d00000",
                    "decodedMethod": {
                        "callParams": [
                            {
                                "name": "_to",
                                "type": "address",
                                "value": "0xbe25ee3619472545418acb609b0ce6ca6f69bdfb"
                            },
                            {
                                "decimalAvailable": true,
                                "name": "_value",
                                "type": "uint256",
                                "value": "20,000,000,000,000,000,000"
                            }
                        ],
                        "constructorArguments": "",
                        "name": "transfer",
                        "returnParams": [
                            {
                                "name": "",
                                "type": "bool",
                                "value": true
                            }
                        ],
                        "signature": "transfer(address,uint256)"
                    },
                    "errorInfo": "",
                    "fromAddress": "0xd8b93107d820d294cd8082a15c65261ee9d30790",
                    "gasUsed": 16545,
                    "id": 5,
                    "methodDecoded": true,
                    "operation": "CALL",
                    "output": "0x0000000000000000000000000000000000000000000000000000000000000001",
                    "revert": false,
                    "revertMessage": "",
                    "selector": "0xa9059cbb",
                    "status": true,
                    "value": "0"
                },
                "nodeType": 0
            },
            "6": {
                "event": {
                    "contract": "0xf226e38c3007b3d974fc79bcf5a77750035436ee",
                    "decodedLog": {
                        "name": "Transfer",
                        "params": [
                            {
                                "name": "from",
                                "type": "address",
                                "value": "0xd8b93107d820d294cd8082a15c65261ee9d30790"
                            },
                            {
                                "name": "to",
                                "type": "address",
                                "value": "0xbe25ee3619472545418acb609b0ce6ca6f69bdfb"
                            },
                            {
                                "decimalAvailable": true,
                                "name": "value",
                                "type": "uint256",
                                "value": "20,000,000,000,000,000,000"
                            }
                        ],
                        "signature": "Transfer(address,address,uint256)"
                    },
                    "id": 6,
                    "logData": "0x000000000000000000000000000000000000000000000001158e460913d00000",
                    "logDecoded": true,
                    "operation": "EVENT",
                    "revert": false,
                    "status": true,
                    "topics": [
                        "0xddf252ad1be2c89b69c2b068fc378daa952ba7f163c4a11628f55a4df523b3ef",
                        "0x000000000000000000000000d8b93107d820d294cd8082a15c65261ee9d30790",
                        "0x000000000000000000000000be25ee3619472545418acb609b0ce6ca6f69bdfb"
                    ]
                },
                "nodeType": 1
            },
            "7": {
                "invocation": {
                    "address": "0x029c8f8668c2f89379e23ba27c6af9847a1ceec7",
                    "callData": "0x0000000000000000000000004e57529d3630b4ad415bdedda508e40e4c632baf",
                    "decodedMethod": null,
                    "errorInfo": "",
                    "fromAddress": "0xd8b93107d820d294cd8082a15c65261ee9d30790",
                    "gasUsed": 1264,
                    "id": 7,
                    "methodDecoded": false,
                    "operation": "STATICCALL",
                    "output": "0x0000000000000000000000000000000000000000000000000000000000000001",
                    "revert": false,
                    "revertMessage": "",
                    "selector": "0xb3c2f627",
                    "status": true,
                    "value": "0"
                },
                "nodeType": 0
            },
            "8": {
                "invocation": {
                    "address": "0x8853b05833029e3cf8d3cbb592f9784fa43d2a79",
                    "callData": "0x000000000000000000000000cd883c7799f3890f0030ad61a910b5c57512a879b2ed8f2403e3db782462934088cae0322c33928704507ba5baa9628ec5fcd9feb295664a998829d3f5eb76199cad71042e8b523b8f39cb0e876062bf4624121900000000000000000000000000000000000000000000000000000000000000a00000000000000000000000000000000000000000000000000000000000000120000000000000000000000000000000000000000000000000000000000000000304f74fb45d1e6b79ecb733e42a5e7efc1b1c489996f288fe93c4b07185598e1895427bb5ab07b6c41921b477b7c17b6aec06fa5b4f567cbb37e6dfc804e76720a38dc4c81c2679b2ea0ce07772b4f45954ce9c84758f6eb7bc8ffe5d18d3b80f000000000000000000000000000000000000000000000000000000000000001f636f6465783a3a35653262646164356465356435333438393330656534393200",
                    "decodedMethod": {
                        "callParams": [
                            {
                                "name": "_to",
                                "type": "address",
                                "value": "0xcd883c7799f3890f0030ad61a910b5c57512a879"
                            },
                            {
                                "name": "_nameHash",
                                "type": "bytes32",
                                "value": "0xb2ed8f2403e3db782462934088cae0322c33928704507ba5baa9628ec5fcd9fe"
                            },
                            {
                                "name": "_descriptionHash",
                                "type": "bytes32",
                                "value": "0xb295664a998829d3f5eb76199cad71042e8b523b8f39cb0e876062bf46241219"
                            },
                            {
                                "name": "_fileHashes",
                                "type": "bytes32[]",
                                "value": [
                                    "0x04f74fb45d1e6b79ecb733e42a5e7efc1b1c489996f288fe93c4b07185598e18",
                                    "0x95427bb5ab07b6c41921b477b7c17b6aec06fa5b4f567cbb37e6dfc804e76720",
                                    "0xa38dc4c81c2679b2ea0ce07772b4f45954ce9c84758f6eb7bc8ffe5d18d3b80f"
                                ]
                            },
                            {
                                "name": "_data",
                                "type": "bytes",
                                "value": "0x636f6465783a3a356532626461643564653564353334383933306565343932"
                            }
                        ],
                        "constructorArguments": "",
                        "name": "mint",
                        "returnParams": [],
                        "signature": "mint(address,bytes32,bytes32,bytes32[],bytes)"
                    },
                    "errorInfo": "",
                    "fromAddress": "0xd8b93107d820d294cd8082a15c65261ee9d30790",
                    "gasUsed": 231615,
                    "id": 8,
                    "methodDecoded": true,
                    "operation": "CALL",
                    "output": "",
                    "revert": false,
                    "revertMessage": "",
                    "selector": "0xee5301d5",
                    "status": true,
                    "value": "0"
                },
                "nodeType": 0
            },
            "9": {
                "invocation": {
                    "address": "0x2c00a92a9c5c919a1a4b5a8ee6bc520f61dbe421",
                    "callData": "0x000000000000000000000000cd883c7799f3890f0030ad61a910b5c57512a879b2ed8f2403e3db782462934088cae0322c33928704507ba5baa9628ec5fcd9feb295664a998829d3f5eb76199cad71042e8b523b8f39cb0e876062bf4624121900000000000000000000000000000000000000000000000000000000000000a00000000000000000000000000000000000000000000000000000000000000120000000000000000000000000000000000000000000000000000000000000000304f74fb45d1e6b79ecb733e42a5e7efc1b1c489996f288fe93c4b07185598e1895427bb5ab07b6c41921b477b7c17b6aec06fa5b4f567cbb37e6dfc804e76720a38dc4c81c2679b2ea0ce07772b4f45954ce9c84758f6eb7bc8ffe5d18d3b80f000000000000000000000000000000000000000000000000000000000000001f636f6465783a3a35653262646164356465356435333438393330656534393200",
                    "decodedMethod": {
                        "callParams": [
                            {
                                "name": "_to",
                                "type": "address",
                                "value": "0xcd883c7799f3890f0030ad61a910b5c57512a879"
                            },
                            {
                                "name": "_nameHash",
                                "type": "bytes32",
                                "value": "0xb2ed8f2403e3db782462934088cae0322c33928704507ba5baa9628ec5fcd9fe"
                            },
                            {
                                "name": "_descriptionHash",
                                "type": "bytes32",
                                "value": "0xb295664a998829d3f5eb76199cad71042e8b523b8f39cb0e876062bf46241219"
                            },
                            {
                                "name": "_fileHashes",
                                "type": "bytes32[]",
                                "value": [
                                    "0x04f74fb45d1e6b79ecb733e42a5e7efc1b1c489996f288fe93c4b07185598e18",
                                    "0x95427bb5ab07b6c41921b477b7c17b6aec06fa5b4f567cbb37e6dfc804e76720",
                                    "0xa38dc4c81c2679b2ea0ce07772b4f45954ce9c84758f6eb7bc8ffe5d18d3b80f"
                                ]
                            },
                            {
                                "name": "_data",
                                "type": "bytes",
                                "value": "0x636f6465783a3a356532626461643564653564353334383933306565343932"
                            }
                        ],
                        "constructorArguments": "",
                        "name": "mint",
                        "returnParams": [],
                        "signature": "mint(address,bytes32,bytes32,bytes32[],bytes)"
                    },
                    "errorInfo": "",
                    "fromAddress": "0x8853b05833029e3cf8d3cbb592f9784fa43d2a79",
                    "gasUsed": 229664,
                    "id": 9,
                    "methodDecoded": true,
                    "operation": "DELEGATECALL",
                    "output": "",
                    "revert": false,
                    "revertMessage": "",
                    "selector": "0xee5301d5",
                    "status": true,
                    "value": "0"
                },
                "nodeType": 0
            }
        },
        "gasFlame": [
            {
                "children": [
                    {
                        "children": [
                            {
                                "children": [],
                                "depth": 0,
                                "name": "Initial Gas",
                                "value": 25052
                            },
                            {
                                "children": [
                                    {
                                        "children": [
                                            {
                                                "children": [
                                                    {
                                                        "children": [],
                                                        "depth": 3,
                                                        "name": "feeRecipient",
                                                        "value": 1423
                                                    }
                                                ],
                                                "depth": 2,
                                                "name": "feeRecipient",
                                                "value": 3311
                                            }
                                        ],
                                        "depth": 1,
                                        "name": "0xc5ae44de",
                                        "value": 6961
                                    },
                                    {
                                        "children": [],
                                        "depth": 1,
                                        "name": "feeRecipient",
                                        "value": 1083
                                    },
                                    {
                                        "children": [],
                                        "depth": 1,
                                        "name": "transfer",
                                        "value": 16545
                                    },
                                    {
                                        "children": [],
                                        "depth": 1,
                                        "name": "0xb3c2f627",
                                        "value": 1264
                                    },
                                    {
                                        "children": [
                                            {
                                                "children": [],
                                                "depth": 2,
                                                "name": "mint",
                                                "value": 229664
                                            }
                                        ],
                                        "depth": 1,
                                        "name": "mint",
                                        "value": 231615
                                    }
                                ],
                                "depth": 0,
                                "name": "Executed Gas",
                                "value": 269582
                            }
                        ],
                        "depth": -1,
                        "name": "Actual Gas Used",
                        "value": 294634
                    },
                    {
                        "children": [],
                        "depth": -1,
                        "name": "Refunded Gas",
                        "value": 0
                    }
                ],
                "depth": -2,
                "name": "Total Gas",
                "value": 294634
            }
        ],
        "isConfirmed": true,
        "mainTrace": [
            {
                "children": [
                    {
                        "children": [
                            {
                                "children": [
                                    {
                                        "children": [
                                            {
                                                "children": [],
                                                "depth": 3,
                                                "id": 3,
                                                "order": 3
                                            }
                                        ],
                                        "depth": 2,
                                        "id": 2,
                                        "order": 2
                                    }
                                ],
                                "depth": 1,
                                "id": 1,
                                "order": 1
                            },
                            {
                                "children": [],
                                "depth": 1,
                                "id": 4,
                                "order": 4
                            },
                            {
                                "children": [
                                    {
                                        "children": [],
                                        "depth": 2,
                                        "id": 6,
                                        "order": 6
                                    }
                                ],
                                "depth": 1,
                                "id": 5,
                                "order": 5
                            },
                            {
                                "children": [],
                                "depth": 1,
                                "id": 7,
                                "order": 7
                            },
                            {
                                "children": [
                                    {
                                        "children": [
                                            {
                                                "children": [],
                                                "depth": 3,
                                                "id": 10,
                                                "order": 10
                                            },
                                            {
                                                "children": [],
                                                "depth": 3,
                                                "id": 11,
                                                "order": 11
                                            }
                                        ],
                                        "depth": 2,
                                        "id": 9,
                                        "order": 9
                                    }
                                ],
                                "depth": 1,
                                "id": 8,
                                "order": 8
                            },
                            {
                                "children": [],
                                "depth": 1,
                                "id": 12,
                                "order": 12
                            }
                        ],
                        "depth": 0,
                        "id": 0,
                        "order": 0
                    }
                ],
                "depth": -1,
                "id": -1,
                "order": -1
            }
        ],
        "mainTraceNodeCount": 13,
        "parentIdMap": {
            "0": -1,
            "1": 0,
            "10": 9,
            "11": 9,
            "12": 0,
            "2": 1,
            "3": 2,
            "4": 0,
            "5": 0,
            "6": 5,
            "7": 0,
            "8": 0,
            "9": 8
        },
        "tidyTrace": [
            {
                "children": [
                    {
                        "children": [
                            {
                                "children": [
                                    {
                                        "children": [],
                                        "depth": 2,
                                        "id": 6,
                                        "order": 6
                                    }
                                ],
                                "depth": 1,
                                "id": 5,
                                "order": 5
                            },
                            {
                                "children": [
                                    {
                                        "children": [
                                            {
                                                "children": [],
                                                "depth": 3,
                                                "id": 10,
                                                "order": 10
                                            },
                                            {
                                                "children": [],
                                                "depth": 3,
                                                "id": 11,
                                                "order": 11
                                            }
                                        ],
                                        "depth": 2,
                                        "id": 9,
                                        "order": 9
                                    }
                                ],
                                "depth": 1,
                                "id": 8,
                                "order": 8
                            },
                            {
                                "children": [],
                                "depth": 1,
                                "id": 12,
                                "order": 12
                            }
                        ],
                        "depth": 0,
                        "id": 0,
                        "order": 0
                    }
                ],
                "depth": -1,
                "id": -1,
                "order": -1
            }
        ],
        "tidyTraceNodeCount": 8
    },
    "state_change": {
        "stateChanges": [
            {
                "address": "0x8853b05833029e3cf8d3cbb592f9784fa43d2a79",
                "erc": "ERC-721",
                "slots": [
                    {
                        "current": "0x00000000000000000000000000000000000000000000000000000000000071a5",
                        "key": "0xb5fde6df30fa45619ce8819b7de826232de3ed81f99e57dc95918a724cc53cec",
                        "prev": "0x0000000000000000000000000000000000000000000000000000000000000000"
                    },
                    {
                        "current": "0x04f74fb45d1e6b79ecb733e42a5e7efc1b1c489996f288fe93c4b07185598e18",
                        "key": "0xd3db6468dc4261a5db2b7940b9ff2f335d644c7d63e897dada41eb6577bd0b47",
                        "prev": "0x0000000000000000000000000000000000000000000000000000000000000000"
                    },
                    {
                        "current": "0x0000000000000000000000000000000000000000000000000000000000000003",
                        "key": "0x0ca5730cbf32b35db47cfb6209acd42dfc4ec3994aea67677a9789fc5f3473ce",
                        "prev": "0x0000000000000000000000000000000000000000000000000000000000000000"
                    },
                    {
                        "current": "0x0000000000000000000000000000000000000000000000000000000000044be2",
                        "key": "0x0000000000000000000000000000000000000000000000000000000000000008",
                        "prev": "0x0000000000000000000000000000000000000000000000000000000000044be1"
                    },
                    {
                        "current": "0xb2ed8f2403e3db782462934088cae0322c33928704507ba5baa9628ec5fcd9fe",
                        "key": "0x0ca5730cbf32b35db47cfb6209acd42dfc4ec3994aea67677a9789fc5f3473cc",
                        "prev": "0x0000000000000000000000000000000000000000000000000000000000000000"
                    },
                    {
                        "current": "0x95427bb5ab07b6c41921b477b7c17b6aec06fa5b4f567cbb37e6dfc804e76720",
                        "key": "0xd3db6468dc4261a5db2b7940b9ff2f335d644c7d63e897dada41eb6577bd0b48",
                        "prev": "0x0000000000000000000000000000000000000000000000000000000000000000"
                    },
                    {
                        "current": "0x00000000000000000000000000000000000000000000000000000000000071a6",
                        "key": "0x3447b75b4b8727e69e4980a04f279a3c1b48a9e53dc78784e94292813181dde6",
                        "prev": "0x00000000000000000000000000000000000000000000000000000000000071a5"
                    },
                    {
                        "current": "0x0000000000000000000000000000000000000000000000000000000000044be1",
                        "key": "0xf3f7a9fe364faab93b216da50a3214154f22a0a2b415b23a84c8169e8b67bac4",
                        "prev": "0x0000000000000000000000000000000000000000000000000000000000000000"
                    },
                    {
                        "current": "0x00000000000000000000000000000000000000000000000000000000000071a6",
                        "key": "0x7626a1c7438c40af885055898a4f534b26a11206309c1fff422b4aa6e23eb5f6",
                        "prev": "0x00000000000000000000000000000000000000000000000000000000000071a5"
                    },
                    {
                        "current": "0x0000000000000000000000000000000000000000000000000000000000044be1",
                        "key": "0x9d76701a2d0492ef96396029cb69fd438fc5eb41661db9eeb0fa94239f06e4fc",
                        "prev": "0x0000000000000000000000000000000000000000000000000000000000000000"
                    },
                    {
                        "current": "0x000000000000000000000000cd883c7799f3890f0030ad61a910b5c57512a879",
                        "key": "0xd9bb1b492346826211bc4391581dd37ae1c7eb8b015c3504a10d23415944b876",
                        "prev": "0x0000000000000000000000000000000000000000000000000000000000000000"
                    },
                    {
                        "current": "0xb295664a998829d3f5eb76199cad71042e8b523b8f39cb0e876062bf46241219",
                        "key": "0x0ca5730cbf32b35db47cfb6209acd42dfc4ec3994aea67677a9789fc5f3473cd",
                        "prev": "0x0000000000000000000000000000000000000000000000000000000000000000"
                    },
                    {
                        "current": "0xa38dc4c81c2679b2ea0ce07772b4f45954ce9c84758f6eb7bc8ffe5d18d3b80f",
                        "key": "0xd3db6468dc4261a5db2b7940b9ff2f335d644c7d63e897dada41eb6577bd0b49",
                        "prev": "0x0000000000000000000000000000000000000000000000000000000000000000"
                    }
                ],
                "storageVariables": [
                    {
                        "name": "ownedTokens",
                        "type": "mapping(address => uint256[])",
                        "value": {
                            "pairs": [
                                {
                                    "key": "0xcd883c7799f3890f0030ad61a910b5c57512a879",
                                    "value": {
                                        "elemType": "uint256",
                                        "elems": [
                                            {
                                                "index": 29093,
                                                "value": {
                                                    "current": "281569",
                                                    "prev": "0",
                                                    "typeTag": 1
                                                }
                                            }
                                        ],
                                        "typeTag": 2
                                    }
                                }
                            ],
                            "typeTag": 4
                        }
                    },
                    {
                        "name": "tokenOwner",
                        "type": "mapping(uint256 => address)",
                        "value": {
                            "pairs": [
                                {
                                    "key": "281569",
                                    "value": {
                                        "current": "0xcd883c7799f3890f0030ad61a910b5c57512a879",
                                        "prev": "0x0000000000000000000000000000000000000000",
                                        "typeTag": 1
                                    }
                                }
                            ],
                            "typeTag": 4
                        }
                    },
                    {
                        "name": "tokenData",
                        "type": "mapping(uint256 => struct CodexRecordMetadata.CodexRecordData)",
                        "value": {
                            "pairs": [
                                {
                                    "key": "281569",
                                    "value": {
                                        "fields": [
                                            {
                                                "name": "nameHash",
                                                "type": "bytes32",
                                                "value": {
                                                    "current": "0xb2ed8f2403e3db782462934088cae0322c33928704507ba5baa9628ec5fcd9fe",
                                                    "prev": "0x0000000000000000000000000000000000000000000000000000000000000000",
                                                    "typeTag": 1
                                                }
                                            },
                                            {
                                                "name": "descriptionHash",
                                                "type": "bytes32",
                                                "value": {
                                                    "current": "0xb295664a998829d3f5eb76199cad71042e8b523b8f39cb0e876062bf46241219",
                                                    "prev": "0x0000000000000000000000000000000000000000000000000000000000000000",
                                                    "typeTag": 1
                                                }
                                            },
                                            {
                                                "name": "fileHashes",
                                                "type": "bytes32[]",
                                                "value": {
                                                    "elemType": "bytes32",
                                                    "elems": [
                                                        {
                                                            "index": 0,
                                                            "value": {
                                                                "current": "0x04f74fb45d1e6b79ecb733e42a5e7efc1b1c489996f288fe93c4b07185598e18",
                                                                "prev": "0x0000000000000000000000000000000000000000000000000000000000000000",
                                                                "typeTag": 1
                                                            }
                                                        },
                                                        {
                                                            "index": 1,
                                                            "value": {
                                                                "current": "0x95427bb5ab07b6c41921b477b7c17b6aec06fa5b4f567cbb37e6dfc804e76720",
                                                                "prev": "0x0000000000000000000000000000000000000000000000000000000000000000",
                                                                "typeTag": 1
                                                            }
                                                        },
                                                        {
                                                            "index": 2,
                                                            "value": {
                                                                "current": "0xa38dc4c81c2679b2ea0ce07772b4f45954ce9c84758f6eb7bc8ffe5d18d3b80f",
                                                                "prev": "0x0000000000000000000000000000000000000000000000000000000000000000",
                                                                "typeTag": 1
                                                            }
                                                        }
                                                    ],
                                                    "typeTag": 2
                                                }
                                            }
                                        ],
                                        "typeTag": 3
                                    }
                                }
                            ],
                            "typeTag": 4
                        }
                    },
                    {
                        "name": "ownedTokensIndex",
                        "type": "mapping(uint256 => uint256)",
                        "value": {
                            "pairs": [
                                {
                                    "key": "281569",
                                    "value": {
                                        "current": "29093",
                                        "prev": "0",
                                        "typeTag": 1
                                    }
                                }
                            ],
                            "typeTag": 4
                        }
                    },
                    {
                        "name": "ownedTokensCount",
                        "type": "mapping(address => uint256)",
                        "value": {
                            "pairs": [
                                {
                                    "key": "0xcd883c7799f3890f0030ad61a910b5c57512a879",
                                    "value": {
                                        "current": "29094",
                                        "prev": "29093",
                                        "typeTag": 1
                                    }
                                }
                            ],
                            "typeTag": 4
                        }
                    },
                    {
                        "name": "allTokens",
                        "type": "uint256[]",
                        "value": {
                            "elemType": "uint256",
                            "elems": [
                                {
                                    "index": 281569,
                                    "value": {
                                        "current": "281569",
                                        "prev": "0",
                                        "typeTag": 1
                                    }
                                }
                            ],
                            "typeTag": 2
                        }
                    }
                ]
            },
            {
                "address": "0xf226e38c3007b3d974fc79bcf5a77750035436ee",
                "erc": "ERC-20",
                "slots": [
                    {
                        "current": "0x000000000000000000000000000000000000000000049db3b76a96b3b1780000",
                        "key": "0x4f637aa1ab61f546c750f24a046aa7ff3d4eaa1d8e66e8e119d2fa014d667b83",
                        "prev": "0x000000000000000000000000000000000000000000049db2a1dc50aa9da80000"
                    },
                    {
                        "current": "0x000000000000000000000000000000000000000000042fd6f852e3e397500000",
                        "key": "0xdee88efcd342fe5b98250b31dc441bfa9bf019ea9b55d0e763c4847a9ccc264f",
                        "prev": "0x000000000000000000000000000000000000000000042fd80de129ecab200000"
                    }
                ],
                "storageVariables": [
                    {
                        "name": "balances",
                        "type": "mapping(address => uint256)",
                        "value": {
                            "pairs": [
                                {
                                    "key": "0xbe25ee3619472545418acb609b0ce6ca6f69bdfb",
                                    "value": {
                                        "current": "5580430000000000000000000",
                                        "prev": "5580410000000000000000000",
                                        "typeTag": 1
                                    }
                                },
                                {
                                    "key": "0xd8b93107d820d294cd8082a15c65261ee9d30790",
                                    "value": {
                                        "current": "5061620000000000000000000",
                                        "prev": "5061640000000000000000000",
                                        "typeTag": 1
                                    }
                                }
                            ],
                            "typeTag": 4
                        }
                    }
                ]
            }
        ]
    }
}