{
    "balance_change": {
        "balanceChanges": [
            {
                "account": "0x503279fd5ee47cd78e65b6773af21bc7722aa68d",
                "assets": [
                    {
                        "address": "0xeeeeeeeeeeeeeeeeeeeeeeeeeeeeeeeeeeeeeeee",
                        "amount": "0.047",
                        "iconUrl": "https://assets.blocksec.com/image/1663669189317-3.png",
                        "isERC1155": false,
                        "isERC721": false,
                        "sign": false,
                        "value": "190.85613881700000546"
                    },
                    {
                        "address": "0xf1987f66553460a4f0730ce17484f5a9a2e883a6",
                        "amount": "1",
                        "iconUrl": "",
                        "isERC1155": false,
                        "isERC721": true,
                        "sign": true,
                        "tokenID": "233",
                        "value": ""
                    }
                ]
            },
            {
                "account": "0x0e979995e1dfb7546904e087c712da6dd117f066",
                "assets": [
                    {
                        "address": "0xeeeeeeeeeeeeeeeeeeeeeeeeeeeeeeeeeeeeeeee",
                        "amount": "0.043475",
                        "iconUrl": "https://assets.blocksec.com/image/1663669189317-3.png",
                        "isERC1155": false,
                        "isERC721": false,
                        "sign": true,
                        "value": "176.54192840572500506"
                    },
                    {
                        "address": "0xf1987f66553460a4f0730ce17484f5a9a2e883a6",
                        "amount": "1",
                        "iconUrl": "",
                        "isERC1155": false,
                        "isERC721": true,
                        "sign": false,
                        "tokenID": "233",
                        "value": ""
                    }
                ]
            },
            {
                "account": "0x5b3256965e7c3cf26e11fcaf296dfc8807c01073",
                "assets": [
                    {
                        "address": "0xeeeeeeeeeeeeeeeeeeeeeeeeeeeeeeeeeeeeeeee",
                        "amount": "0.003525",
                        "iconUrl": "https://assets.blocksec.com/image/1663669189317-3.png",
                        "isERC1155": false,
                        "isERC721": false,
                        "sign": true,
                        "value": "14.314210411275000411"
                    }
                ]
            }
        ]
    },
    "profile": {
        "basic_info": {
            "baseFee": "87.892043793",
            "blockNumber": 13767270,
            "callData": "0xab834bab0000000000000000000000007be8076f4ea4a4ad08075c2508e481d6c946d12b000000000000000000000000503279fd5ee47cd78e65b6773af21bc7722aa68d0000000000000000000000000e979995e1dfb7546904e087c712da6dd117f0660000000000000000000000000000000000000000000000000000000000000000000000000000000000000000f1987f66553460a4f0730ce17484f5a9a2e883a6000000000000000000000000000000000000000000000000000000000000000000000000000000000000000000000000000000000000000000000000000000000000000000000000000000007be8076f4ea4a4ad08075c2508e481d6c946d12b0000000000000000000000000e979995e1dfb7546904e087c712da6dd117f06600000000000000000000000000000000000000000000000000000000000000000000000000000000000000005b3256965e7c3cf26e11fcaf296dfc8807c01073000000000000000000000000f1987f66553460a4f0730ce17484f5a9a2e883a60000000000000000000000000000000000000000000000000000000000000000000000000000000000000000000000000000000000000000000000000000000000000000000000000000000000000000000000000000000000000000000002ee00000000000000000000000000000000000000000000000000000000000000000000000000000000000000000000000000000000000000000000000000000000000000000000000000000000000000000000000000000000000000000000000000000000000000000000000000000000000000000000000000a6fa404071800000000000000000000000000000000000000000000000000000000000000000000000000000000000000000000000000000000000000000000000000061b128e70000000000000000000000000000000000000000000000000000000000000000d5739a7036f0a6db68e6ad0bec12906042f8493d22681944e48362d807a3927a00000000000000000000000000000000000000000000000000000000000002ee00000000000000000000000000000000000000000000000000000000000000000000000000000000000000000000000000000000000000000000000000000000000000000000000000000000000000000000000000000000000000000000000000000000000000000000000000000000000000000000000000a6fa404071800000000000000000000000000000000000000000000000000000000000000000000000000000000000000000000000000000000000000000000000000061a26d08000000000000000000000000000000000000000000000000000000006290febd3062ef3a66d5fd2de8fca995a701b15b663663f7718805a3dfb463d36213aeb40000000000000000000000000000000000000000000000000000000000000001000000000000000000000000000000000000000000000000000000000000000000000000000000000000000000000000000000000000000000000000000000000000000000000000000000000000000000000000000000000000000000000000000000000000000000000000000000000000000000000000000000000000000100000000000000000000000000000000000000000000000000000000000000010000000000000000000000000000000000000000000000000000000000000000000000000000000000000000000000000000000000000000000000000000000000000000000000000000000000000000000000000000000000000000000006a0000000000000000000000000000000000000000000000000000000000000074000000000000000000000000000000000000000000000000000000000000007e0000000000000000000000000000000000000000000000000000000000000088000000000000000000000000000000000000000000000000000000000000009200000000000000000000000000000000000000000000000000000000000000940000000000000000000000000000000000000000000000000000000000000001c000000000000000000000000000000000000000000000000000000000000001cd2476544e1607eca04fd61b9c9b25aefbcdd1aa5c4c7c353c8f54375d4adb568630add204cfb8b347b23df17297454868f6249241c9f844a06c9d99d123db401d2476544e1607eca04fd61b9c9b25aefbcdd1aa5c4c7c353c8f54375d4adb568630add204cfb8b347b23df17297454868f6249241c9f844a06c9d99d123db4010000000000000000000000000000000000000000000000000000000000000000000000000000000000000000000000000000000000000000000000000000006423b872dd0000000000000000000000000000000000000000000000000000000000000000000000000000000000000000503279fd5ee47cd78e65b6773af21bc7722aa68d00000000000000000000000000000000000000000000000000000000000000e900000000000000000000000000000000000000000000000000000000000000000000000000000000000000000000000000000000000000000000006423b872dd0000000000000000000000000e979995e1dfb7546904e087c712da6dd117f066000000000000000000000000000000000000000000000000000000000000000000000000000000000000000000000000000000000000000000000000000000e900000000000000000000000000000000000000000000000000000000000000000000000000000000000000000000000000000000000000000000006400000000ffffffffffffffffffffffffffffffffffffffffffffffffffffffffffffffff00000000000000000000000000000000000000000000000000000000000000000000000000000000000000000000000000000000000000000000000000000000000000000000000000000000000000000000000000000000000000000000000000000000000000000000000000000000000000000000000000000064000000000000000000000000000000000000000000000000000000000000000000000000ffffffffffffffffffffffffffffffffffffffffffffffffffffffffffffffff00000000000000000000000000000000000000000000000000000000000000000000000000000000000000000000000000000000000000000000000000000000000000000000000000000000000000000000000000000000000000000000000000000000000000000000000000000000000000000000000000000000",
            "debugEnable": true,
            "errorInfo": "",
            "eventCount": 3,
            "feeRecipient": "0x1ad91ee08f21be3de0ba2ba6918e714da6b45836",
            "formatValue": "0.047",
            "gasLimit": 314693,
            "gasPrice": "89.392043793",
            "gasUsed": 227530,
            "intTxnCount": 10,
            "internalRevert": false,
            "internalRevertMessage": "",
            "isContractCreation": false,
            "isFlashloan": false,
            "maxFee": "106.878100355",
            "nonce": 545,
            "overwritedBlockNumber": -1,
            "priorityFee": "1.5",
            "receiver": "0x7be8076f4ea4a4ad08075c2508e481d6c946d12b",
            "revertMessage": "",
            "sender": "0x503279fd5ee47cd78e65b6773af21bc7722aa68d",
            "simulationEnable": true,
            "sourceTxnHash": "0x0f6096d15223084744a068f6cbda60e3ddf0803da348e1b35a4237fcaac0835c",
            "status": true,
            "timestamp": "2021-12-08T21:53:59Z",
            "transactionFee": "0.02033937172422129",
            "txnHash": "0x0f6096d15223084744a068f6cbda60e3ddf0803da348e1b35a4237fcaac0835c",
            "txnIndex": 231,
            "type": 2,
            "value": "47000000000000000"
        },
        "fund_flow": [
            {
                "amount": "0.047",
                "from": "0x503279fd5ee47cd78e65b6773af21bc7722aa68d",
                "id": 1,
                "isERC1155": false,
                "isERC721": false,
                "isReverted": false,
                "order": 1,
                "to": "0x7be8076f4ea4a4ad08075c2508e481d6c946d12b",
                "token": "0xeeeeeeeeeeeeeeeeeeeeeeeeeeeeeeeeeeeeeeee"
            },
            {
                "amount": "0.003525",
                "from": "0x7be8076f4ea4a4ad08075c2508e481d6c946d12b",
                "id": 2,
                "isERC1155": false,
                "isERC721": false,
                "isReverted": false,
                "order": 2,
                "to": "0x5b3256965e7c3cf26e11fcaf296dfc8807c01073",
                "token": "0xeeeeeeeeeeeeeeeeeeeeeeeeeeeeeeeeeeeeeeee"
            },
            {
                "amount": "0.043475",
                "from": "0x7be8076f4ea4a4ad08075c2508e481d6c946d12b",
                "id": 3,
                "isERC1155": false,
                "isERC721": false,
                "isReverted": false,
                "order": 3,
                "to": "0x0e979995e1dfb7546904e087c712da6dd117f066",
                "token": "0xeeeeeeeeeeeeeeeeeeeeeeeeeeeeeeeeeeeeeeee"
            },
            {
                "amount": "1",
                "from": "0x0e979995e1dfb7546904e087c712da6dd117f066",
                "id": 4,
                "isERC1155": false,
                "isERC721": true,
                "isReverted": false,
                "order": 4,
                "to": "0x503279fd5ee47cd78e65b6773af21bc7722aa68d",
                "token": "0xf1987f66553460a4f0730ce17484f5a9a2e883a6",
                "tokenID": "233"
            }
        ],
        "token_infos": [
            {
                "address": "0xc02aaa39b223fe8d0a0e5c4f27ead9083c756cc2",
                "decimals": 18
            },
            {
                "address": "0xeeeeeeeeeeeeeeeeeeeeeeeeeeeeeeeeeeeeeeee",
                "decimals": 18
            }
        ]
    },
    "address_label": {
        "labels": [
            {
                "address": "0x0000000000000000000000000000000000000000",
                "label": "Null Address"
            },
            {
                "address": "0x0000000000000000000000000000000000000001",
                "label": "Precompiled"
            },
            {
                "address": "0xa5409ec958c83c3f309868babaca7c86dcb077c1",
                "label": "OpenSea: Registry"
            },
            {
                "address": "0x7be8076f4ea4a4ad08075c2508e481d6c946d12b",
                "label": "OpenSea: Wyvern Exchange v1"
            },
            {
                "address": "0xf9e266af4bca5890e2781812cc6a6e89495a79f2",
                "label": "AuthenticatedProxy"
            },
            {
                "address": "0xa610f56070d2cc9d111bacf28b3378038aeba047",
                "label": "OwnableDelegateProxy"
            },
            {
                "address": "0x0000000000000000000000000000000000000002",
                "label": "Precompiled"
            },
            {
                "address": "0x0000000000000000000000000000000000000003",
                "label": "Precompiled"
            },
            {
                "address": "0x0000000000000000000000000000000000000004",
                "label": "Precompiled"
            },
            {
                "address": "0xeeeeeeeeeeeeeeeeeeeeeeeeeeeeeeeeeeeeeeee",
                "label": "Ether"
            },
            {
                "address": "0x5b3256965e7c3cf26e11fcaf296dfc8807c01073",
                "label": "OpenSea: Wallet"
            },
            {
                "address": "0xf1987f66553460a4f0730ce17484f5a9a2e883a6",
                "label": "Goofball Gang: GOOF Token"
            }
        ]
    },
    "trace": {
        "accountLabels": null,
        "dataMap": {
            "-1": {
                "invocation": {
                    "address": "0x503279fd5ee47cd78e65b6773af21bc7722aa68d",
                    "callData": "",
                    "decodedMethod": null,
                    "errorInfo": "",
                    "fromAddress": "",
                    "gasUsed": 0,
                    "id": -1,
                    "methodDecoded": false,
                    "operation": "",
                    "output": "",
                    "revert": false,
                    "revertMessage": "",
                    "selector": "",
                    "status": false,
                    "value": ""
                },
                "nodeType": 0
            },
            "0": {
                "invocation": {
                    "address": "0x7be8076f4ea4a4ad08075c2508e481d6c946d12b",
                    "callData": "0x0000000000000000000000007be8076f4ea4a4ad08075c2508e481d6c946d12b000000000000000000000000503279fd5ee47cd78e65b6773af21bc7722aa68d0000000000000000000000000e979995e1dfb7546904e087c712da6dd117f0660000000000000000000000000000000000000000000000000000000000000000000000000000000000000000f1987f66553460a4f0730ce17484f5a9a2e883a6000000000000000000000000000000000000000000000000000000000000000000000000000000000000000000000000000000000000000000000000000000000000000000000000000000007be8076f4ea4a4ad08075c2508e481d6c946d12b0000000000000000000000000e979995e1dfb7546904e087c712da6dd117f06600000000000000000000000000000000000000000000000000000000000000000000000000000000000000005b3256965e7c3cf26e11fcaf296dfc8807c01073000000000000000000000000f1987f66553460a4f0730ce17484f5a9a2e883a60000000000000000000000000000000000000000000000000000000000000000000000000000000000000000000000000000000000000000000000000000000000000000000000000000000000000000000000000000000000000000000002ee00000000000000000000000000000000000000000000000000000000000000000000000000000000000000000000000000000000000000000000000000000000000000000000000000000000000000000000000000000000000000000000000000000000000000000000000000000000000000000000000000a6fa404071800000000000000000000000000000000000000000000000000000000000000000000000000000000000000000000000000000000000000000000000000061b128e70000000000000000000000000000000000000000000000000000000000000000d5739a7036f0a6db68e6ad0bec12906042f8493d22681944e48362d807a3927a00000000000000000000000000000000000000000000000000000000000002ee00000000000000000000000000000000000000000000000000000000000000000000000000000000000000000000000000000000000000000000000000000000000000000000000000000000000000000000000000000000000000000000000000000000000000000000000000000000000000000000000000a6fa404071800000000000000000000000000000000000000000000000000000000000000000000000000000000000000000000000000000000000000000000000000061a26d08000000000000000000000000000000000000000000000000000000006290febd3062ef3a66d5fd2de8fca995a701b15b663663f7718805a3dfb463d36213aeb40000000000000000000000000000000000000000000000000000000000000001000000000000000000000000000000000000000000000000000000000000000000000000000000000000000000000000000000000000000000000000000000000000000000000000000000000000000000000000000000000000000000000000000000000000000000000000000000000000000000000000000000000000000100000000000000000000000000000000000000000000000000000000000000010000000000000000000000000000000000000000000000000000000000000000000000000000000000000000000000000000000000000000000000000000000000000000000000000000000000000000000000000000000000000000000006a0000000000000000000000000000000000000000000000000000000000000074000000000000000000000000000000000000000000000000000000000000007e0000000000000000000000000000000000000000000000000000000000000088000000000000000000000000000000000000000000000000000000000000009200000000000000000000000000000000000000000000000000000000000000940000000000000000000000000000000000000000000000000000000000000001c000000000000000000000000000000000000000000000000000000000000001cd2476544e1607eca04fd61b9c9b25aefbcdd1aa5c4c7c353c8f54375d4adb568630add204cfb8b347b23df17297454868f6249241c9f844a06c9d99d123db401d2476544e1607eca04fd61b9c9b25aefbcdd1aa5c4c7c353c8f54375d4adb568630add204cfb8b347b23df17297454868f6249241c9f844a06c9d99d123db4010000000000000000000000000000000000000000000000000000000000000000000000000000000000000000000000000000000000000000000000000000006423b872dd0000000000000000000000000000000000000000000000000000000000000000000000000000000000000000503279fd5ee47cd78e65b6773af21bc7722aa68d00000000000000000000000000000000000000000000000000000000000000e900000000000000000000000000000000000000000000000000000000000000000000000000000000000000000000000000000000000000000000006423b872dd0000000000000000000000000e979995e1dfb7546904e087c712da6dd117f066000000000000000000000000000000000000000000000000000000000000000000000000000000000000000000000000000000000000000000000000000000e900000000000000000000000000000000000000000000000000000000000000000000000000000000000000000000000000000000000000000000006400000000ffffffffffffffffffffffffffffffffffffffffffffffffffffffffffffffff00000000000000000000000000000000000000000000000000000000000000000000000000000000000000000000000000000000000000000000000000000000000000000000000000000000000000000000000000000000000000000000000000000000000000000000000000000000000000000000000000000064000000000000000000000000000000000000000000000000000000000000000000000000ffffffffffffffffffffffffffffffffffffffffffffffffffffffffffffffff00000000000000000000000000000000000000000000000000000000000000000000000000000000000000000000000000000000000000000000000000000000000000000000000000000000000000000000000000000000000000000000000000000000000000000000000000000000000000000000000000000000",
                    "decodedMethod": {
                        "callParams": [
                            {
                                "name": "addrs",
                                "type": "address[14]",
                                "value": [
                                    "0x7be8076f4ea4a4ad08075c2508e481d6c946d12b",
                                    "0x503279fd5ee47cd78e65b6773af21bc7722aa68d",
                                    "0x0e979995e1dfb7546904e087c712da6dd117f066",
                                    "0x0000000000000000000000000000000000000000",
                                    "0xf1987f66553460a4f0730ce17484f5a9a2e883a6",
                                    "0x0000000000000000000000000000000000000000",
                                    "0x0000000000000000000000000000000000000000",
                                    "0x7be8076f4ea4a4ad08075c2508e481d6c946d12b",
                                    "0x0e979995e1dfb7546904e087c712da6dd117f066",
                                    "0x0000000000000000000000000000000000000000",
                                    "0x5b3256965e7c3cf26e11fcaf296dfc8807c01073",
                                    "0xf1987f66553460a4f0730ce17484f5a9a2e883a6",
                                    "0x0000000000000000000000000000000000000000",
                                    "0x0000000000000000000000000000000000000000"
                                ]
                            },
                            {
                                "name": "uints",
                                "type": "uint256[18]",
                                "value": [
                                    "750",
                                    "0",
                                    "0",
                                    "0",
                                    "47,000,000,000,000,000",
                                    "0",
                                    "1,639,000,295",
                                    "0",
                                    "96,546,890,054,922,549,541,629,201,722,299,029,906,665,235,682,457,771,690,240,093,226,381,946,884,730",
                                    "750",
                                    "0",
                                    "0",
                                    "0",
                                    "47,000,000,000,000,000",
                                    "0",
                                    "1,638,034,696",
                                    "1,653,669,565",
                                    "21,885,818,836,228,741,657,078,814,424,999,323,262,669,044,618,833,005,313,758,688,612,153,835,105,972"
                                ]
                            },
                            {
                                "name": "feeMethodsSidesKindsHowToCalls",
                                "type": "uint8[8]",
                                "value": [
                                    "1",
                                    "0",
                                    "0",
                                    "0",
                                    "1",
                                    "1",
                                    "0",
                                    "0"
                                ]
                            },
                            {
                                "name": "calldataBuy",
                                "type": "bytes",
                                "value": "0x23b872dd0000000000000000000000000000000000000000000000000000000000000000000000000000000000000000503279fd5ee47cd78e65b6773af21bc7722aa68d00000000000000000000000000000000000000000000000000000000000000e9"
                            },
                            {
                                "name": "calldataSell",
                                "type": "bytes",
                                "value": "0x23b872dd0000000000000000000000000e979995e1dfb7546904e087c712da6dd117f066000000000000000000000000000000000000000000000000000000000000000000000000000000000000000000000000000000000000000000000000000000e9"
                            },
                            {
                                "name": "replacementPatternBuy",
                                "type": "bytes",
                                "value": "0x00000000ffffffffffffffffffffffffffffffffffffffffffffffffffffffffffffffff00000000000000000000000000000000000000000000000000000000000000000000000000000000000000000000000000000000000000000000000000000000"
                            },
                            {
                                "name": "replacementPatternSell",
                                "type": "bytes",
                                "value": "0x000000000000000000000000000000000000000000000000000000000000000000000000ffffffffffffffffffffffffffffffffffffffffffffffffffffffffffffffff0000000000000000000000000000000000000000000000000000000000000000"
                            },
                            {
                                "name": "staticExtradataBuy",
                                "type": "bytes",
                                "value": "0x"
                            },
                            {
                                "name": "staticExtradataSell",
                                "type": "bytes",
                                "value": "0x"
                            },
                            {
                                "name": "vs",
                                "type": "uint8[2]",
                                "value": [
                                    "28",
                                    "28"
                                ]
                            },
                            {
                                "name": "rssMetadata",
                                "type": "bytes32[5]",
                                "value": [
                                    "0xd2476544e1607eca04fd61b9c9b25aefbcdd1aa5c4c7c353c8f54375d4adb568",
                                    "0x630add204cfb8b347b23df17297454868f6249241c9f844a06c9d99d123db401",
                                    "0xd2476544e1607eca04fd61b9c9b25aefbcdd1aa5c4c7c353c8f54375d4adb568",
                                    "0x630add204cfb8b347b23df17297454868f6249241c9f844a06c9d99d123db401",
                                    "0x0000000000000000000000000000000000000000000000000000000000000000"
                                ]
                            }
                        ],
                        "constructorArguments": "",
                        "name": "atomicMatch_",
                        "returnParams": [],
                        "signature": "atomicMatch_(address[14],uint256[18],uint8[8],bytes,bytes,bytes,bytes,bytes,bytes,uint8[2],bytes32[5])"
                    },
                    "errorInfo": "",
                    "fromAddress": "0x503279fd5ee47cd78e65b6773af21bc7722aa68d",
                    "gasUsed": 227530,
                    "id": 0,
                    "methodDecoded": true,
                    "operation": "CALL",
                    "output": "",
                    "revert": false,
                    "revertMessage": "",
                    "selector": "0xab834bab",
                    "status": true,
                    "value": "0.047"
                },
                "nodeType": 0
            },
            "1": {
                "invocation": {
                    "address": "0x0000000000000000000000000000000000000001",
                    "callData": "0x20816273dc0dd25d914a30cb552beac8d5dfb0324034d7bd2c32edc0000000000000000000000000000000000000000000000000000000000000001cd2476544e1607eca04fd61b9c9b25aefbcdd1aa5c4c7c353c8f54375d4adb568630add204cfb8b347b23df17297454868f6249241c9f844a06c9d99d123db401",
                    "decodedMethod": {
                        "callParams": [
                            {
                                "name": "hash",
                                "type": "bytes32",
                                "value": "0xa1e2b89020816273dc0dd25d914a30cb552beac8d5dfb0324034d7bd2c32edc0"
                            },
                            {
                                "name": "v",
                                "type": "uint256",
                                "value": "28"
                            },
                            {
                                "name": "r",
                                "type": "bytes32",
                                "value": "0xd2476544e1607eca04fd61b9c9b25aefbcdd1aa5c4c7c353c8f54375d4adb568"
                            },
                            {
                                "name": "s",
                                "type": "bytes32",
                                "value": "0x630add204cfb8b347b23df17297454868f6249241c9f844a06c9d99d123db401"
                            }
                        ],
                        "constructorArguments": "",
                        "name": "ecrecover",
                        "returnParams": [
                            {
                                "name": "",
                                "type": "address",
                                "value": "0x0e979995e1dfb7546904e087c712da6dd117f066"
                            }
                        ],
                        "signature": "ecrecover(bytes32,uint256,bytes32,bytes32)"
                    },
                    "errorInfo": "",
                    "fromAddress": "0x7be8076f4ea4a4ad08075c2508e481d6c946d12b",
                    "gasUsed": 3000,
                    "id": 1,
                    "methodDecoded": true,
                    "operation": "CALL",
                    "output": "0x0000000000000000000000000e979995e1dfb7546904e087c712da6dd117f066",
                    "revert": false,
                    "revertMessage": "",
                    "selector": "0xa1e2b890",
                    "status": true,
                    "value": "0"
                },
                "nodeType": 0
            },
            "10": {
                "invocation": {
                    "address": "0xf1987f66553460a4f0730ce17484f5a9a2e883a6",
                    "callData": "0x0000000000000000000000000e979995e1dfb7546904e087c712da6dd117f066000000000000000000000000503279fd5ee47cd78e65b6773af21bc7722aa68d00000000000000000000000000000000000000000000000000000000000000e900000000000000000000000000000000000000000000000000000000",
                    "decodedMethod": {
                        "callParams": [
                            {
                                "name": "from",
                                "type": "address",
                                "value": "0x0e979995e1dfb7546904e087c712da6dd117f066"
                            },
                            {
                                "name": "to",
                                "type": "address",
                                "value": "0x503279fd5ee47cd78e65b6773af21bc7722aa68d"
                            },
                            {
                                "decimalAvailable": true,
                                "name": "tokenId",
                                "type": "uint256",
                                "value": "233"
                            }
                        ],
                        "constructorArguments": "",
                        "name": "transferFrom",
                        "returnParams": [],
                        "signature": "transferFrom(address,address,uint256)"
                    },
                    "errorInfo": "",
                    "fromAddress": "0xa610f56070d2cc9d111bacf28b3378038aeba047",
                    "gasUsed": 87207,
                    "id": 10,
                    "methodDecoded": true,
                    "operation": "CALL",
                    "output": "",
                    "revert": false,
                    "revertMessage": "",
                    "selector": "0x23b872dd",
                    "status": true,
                    "value": "0"
                },
                "nodeType": 0
            },
            "11": {
                "event": {
                    "contract": "0xf1987f66553460a4f0730ce17484f5a9a2e883a6",
                    "decodedLog": {
                        "name": "Approval",
                        "params": [
                            {
                                "name": "owner",
                                "type": "address",
                                "value": "0x0e979995e1dfb7546904e087c712da6dd117f066"
                            },
                            {
                                "name": "approved",
                                "type": "address",
                                "value": "0x0000000000000000000000000000000000000000"
                            },
                            {
                                "decimalAvailable": true,
                                "name": "tokenId",
                                "type": "uint256",
                                "value": "233"
                            }
                        ],
                        "signature": "Approval(address,address,uint256)"
                    },
                    "id": 11,
                    "logData": "0x",
                    "logDecoded": true,
                    "operation": "EVENT",
                    "revert": false,
                    "status": true,
                    "topics": [
                        "0x8c5be1e5ebec7d5bd14f71427d1e84f3dd0314c0f7b2291e5b200ac8c7c3b925",
                        "0x0000000000000000000000000e979995e1dfb7546904e087c712da6dd117f066",
                        "0x0000000000000000000000000000000000000000000000000000000000000000",
                        "0x00000000000000000000000000000000000000000000000000000000000000e9"
                    ]
                },
                "nodeType": 1
            },
            "12": {
                "event": {
                    "contract": "0xf1987f66553460a4f0730ce17484f5a9a2e883a6",
                    "decodedLog": {
                        "name": "Transfer",
                        "params": [
                            {
                                "name": "from",
                                "type": "address",
                                "value": "0x0e979995e1dfb7546904e087c712da6dd117f066"
                            },
                            {
                                "name": "to",
                                "type": "address",
                                "value": "0x503279fd5ee47cd78e65b6773af21bc7722aa68d"
                            },
                            {
                                "decimalAvailable": true,
                                "name": "tokenId",
                                "type": "uint256",
                                "value": "233"
                            }
                        ],
                        "signature": "Transfer(address,address,uint256)"
                    },
                    "id": 12,
                    "logData": "0x",
                    "logDecoded": true,
                    "operation": "EVENT",
                    "revert": false,
                    "status": true,
                    "topics": [
                        "0xddf252ad1be2c89b69c2b068fc378daa952ba7f163c4a11628f55a4df523b3ef",
                        "0x0000000000000000000000000e979995e1dfb7546904e087c712da6dd117f066",
                        "0x000000000000000000000000503279fd5ee47cd78e65b6773af21bc7722aa68d",
                        "0x00000000000000000000000000000000000000000000000000000000000000e9"
                    ]
                },
                "nodeType": 1
            },
            "13": {
                "event": {
                    "contract": "0x7be8076f4ea4a4ad08075c2508e481d6c946d12b",
                    "decodedLog": {
                        "name": "OrdersMatched",
                        "params": [
                            {
                                "name": "maker",
                                "type": "address",
                                "value": "0x0e979995e1dfb7546904e087c712da6dd117f066"
                            },
                            {
                                "name": "taker",
                                "type": "address",
                                "value": "0x503279fd5ee47cd78e65b6773af21bc7722aa68d"
                            },
                            {
                                "name": "metadata",
                                "type": "bytes32",
                                "value": "0x0000000000000000000000000000000000000000000000000000000000000000"
                            },
                            {
                                "name": "buyHash",
                                "type": "bytes32",
                                "value": "0x0000000000000000000000000000000000000000000000000000000000000000"
                            },
                            {
                                "name": "sellHash",
                                "type": "bytes32",
                                "value": "0xa1e2b89020816273dc0dd25d914a30cb552beac8d5dfb0324034d7bd2c32edc0"
                            },
                            {
                                "name": "price",
                                "type": "uint256",
                                "value": "47,000,000,000,000,000"
                            }
                        ],
                        "signature": "OrdersMatched(bytes32,bytes32,address,address,uint256,bytes32)"
                    },
                    "id": 13,
                    "logData": "0x0000000000000000000000000000000000000000000000000000000000000000a1e2b89020816273dc0dd25d914a30cb552beac8d5dfb0324034d7bd2c32edc000000000000000000000000000000000000000000000000000a6fa4040718000",
                    "logDecoded": true,
                    "operation": "EVENT",
                    "revert": false,
                    "status": true,
                    "topics": [
                        "0xc4109843e0b7d514e4c093114b863f8e7d8d9a458c372cd51bfe526b588006c9",
                        "0x0000000000000000000000000e979995e1dfb7546904e087c712da6dd117f066",
                        "0x000000000000000000000000503279fd5ee47cd78e65b6773af21bc7722aa68d",
                        "0x0000000000000000000000000000000000000000000000000000000000000000"
                    ]
                },
                "nodeType": 1
            },
            "2": {
                "invocation": {
                    "address": "0xa5409ec958c83c3f309868babaca7c86dcb077c1",
                    "callData": "0x0000000000000000000000000e979995e1dfb7546904e087c712da6dd117f066",
                    "decodedMethod": {
                        "callParams": [
                            {
                                "name": "",
                                "type": "address",
                                "value": "0x0e979995e1dfb7546904e087c712da6dd117f066"
                            }
                        ],
                        "constructorArguments": "",
                        "name": "proxies",
                        "returnParams": [
                            {
                                "name": "",
                                "type": "address",
                                "value": "0xa610f56070d2cc9d111bacf28b3378038aeba047"
                            }
                        ],
                        "signature": "proxies(address)"
                    },
                    "errorInfo": "",
                    "fromAddress": "0x7be8076f4ea4a4ad08075c2508e481d6c946d12b",
                    "gasUsed": 2782,
                    "id": 2,
                    "methodDecoded": true,
                    "operation": "CALL",
                    "output": "0x000000000000000000000000a610f56070d2cc9d111bacf28b3378038aeba047",
                    "revert": false,
                    "revertMessage": "",
                    "selector": "0xc4552791",
                    "status": true,
                    "value": "0"
                },
                "nodeType": 0
            },
            "3": {
                "invocation": {
                    "address": "0xa5409ec958c83c3f309868babaca7c86dcb077c1",
                    "callData": "0x",
                    "decodedMethod": {
                        "callParams": [],
                        "constructorArguments": "",
                        "name": "delegateProxyImplementation",
                        "returnParams": [
                            {
                                "name": "",
                                "type": "address",
                                "value": "0xf9e266af4bca5890e2781812cc6a6e89495a79f2"
                            }
                        ],
                        "signature": "delegateProxyImplementation()"
                    },
                    "errorInfo": "",
                    "fromAddress": "0x7be8076f4ea4a4ad08075c2508e481d6c946d12b",
                    "gasUsed": 2613,
                    "id": 3,
                    "methodDecoded": true,
                    "operation": "CALL",
                    "output": "0x000000000000000000000000f9e266af4bca5890e2781812cc6a6e89495a79f2",
                    "revert": false,
                    "revertMessage": "",
                    "selector": "0x97204d8e",
                    "status": true,
                    "value": "0"
                },
                "nodeType": 0
            },
            "4": {
                "invocation": {
                    "address": "0xa610f56070d2cc9d111bacf28b3378038aeba047",
                    "callData": "0x",
                    "decodedMethod": {
                        "callParams": [],
                        "constructorArguments": "",
                        "name": "implementation",
                        "returnParams": [
                            {
                                "name": "",
                                "type": "address",
                                "value": "0xf9e266af4bca5890e2781812cc6a6e89495a79f2"
                            }
                        ],
                        "signature": "implementation()"
                    },
                    "errorInfo": "",
                    "fromAddress": "0x7be8076f4ea4a4ad08075c2508e481d6c946d12b",
                    "gasUsed": 2525,
                    "id": 4,
                    "methodDecoded": true,
                    "operation": "CALL",
                    "output": "0x000000000000000000000000f9e266af4bca5890e2781812cc6a6e89495a79f2",
                    "revert": false,
                    "revertMessage": "",
                    "selector": "0x5c60da1b",
                    "status": true,
                    "value": "0"
                },
                "nodeType": 0
            },
            "5": {
                "invocation": {
                    "address": "0x5b3256965e7c3cf26e11fcaf296dfc8807c01073",
                    "callData": "0x",
                    "decodedMethod": null,
                    "errorInfo": "",
                    "fromAddress": "0x7be8076f4ea4a4ad08075c2508e481d6c946d12b",
                    "gasUsed": 0,
                    "id": 5,
                    "methodDecoded": false,
                    "operation": "CALL",
                    "output": "",
                    "revert": false,
                    "revertMessage": "",
                    "selector": "fallback",
                    "status": true,
                    "value": "0.003525"
                },
                "nodeType": 0
            },
            "6": {
                "invocation": {
                    "address": "0x0e979995e1dfb7546904e087c712da6dd117f066",
                    "callData": "0x",
                    "decodedMethod": null,
                    "errorInfo": "",
                    "fromAddress": "0x7be8076f4ea4a4ad08075c2508e481d6c946d12b",
                    "gasUsed": 0,
                    "id": 6,
                    "methodDecoded": false,
                    "operation": "CALL",
                    "output": "",
                    "revert": false,
                    "revertMessage": "",
                    "selector": "fallback",
                    "status": true,
                    "value": "0.043475"
                },
                "nodeType": 0
            },
            "7": {
                "invocation": {
                    "address": "0xa610f56070d2cc9d111bacf28b3378038aeba047",
                    "callData": "0x000000000000000000000000f1987f66553460a4f0730ce17484f5a9a2e883a600000000000000000000000000000000000000000000000000000000000000000000000000000000000000000000000000000000000000000000000000000060000000000000000000000000000000000000000000000000000000000000006423b872dd0000000000000000000000000e979995e1dfb7546904e087c712da6dd117f066000000000000000000000000503279fd5ee47cd78e65b6773af21bc7722aa68d00000000000000000000000000000000000000000000000000000000000000e900000000000000000000000000000000000000000000000000000000",
                    "decodedMethod": {
                        "callParams": [
                            {
                                "name": "dest",
                                "type": "address",
                                "value": "0xf1987f66553460a4f0730ce17484f5a9a2e883a6"
                            },
                            {
                                "name": "howToCall",
                                "type": "uint8",
                                "value": "0"
                            },
                            {
                                "name": "calldata",
                                "type": "bytes",
                                "value": "0x23b872dd0000000000000000000000000e979995e1dfb7546904e087c712da6dd117f066000000000000000000000000503279fd5ee47cd78e65b6773af21bc7722aa68d00000000000000000000000000000000000000000000000000000000000000e9"
                            }
                        ],
                        "constructorArguments": "",
                        "name": "proxy",
                        "returnParams": [
                            {
                                "name": "result",
                                "type": "bool",
                                "value": true
                            }
                        ],
                        "signature": "proxy(address,uint8,bytes)"
                    },
                    "errorInfo": "",
                    "fromAddress": "0x7be8076f4ea4a4ad08075c2508e481d6c946d12b",
                    "gasUsed": 99364,
                    "id": 7,
                    "methodDecoded": true,
                    "operation": "CALL",
                    "output": "0x0000000000000000000000000000000000000000000000000000000000000001",
                    "revert": false,
                    "revertMessage": "",
                    "selector": "0x1b0f7ba9",
                    "status": true,
                    "value": "0"
                },
                "nodeType": 0
            },
            "8": {
                "invocation": {
                    "address": "0xf9e266af4bca5890e2781812cc6a6e89495a79f2",
                    "callData": "0x000000000000000000000000f1987f66553460a4f0730ce17484f5a9a2e883a600000000000000000000000000000000000000000000000000000000000000000000000000000000000000000000000000000000000000000000000000000060000000000000000000000000000000000000000000000000000000000000006423b872dd0000000000000000000000000e979995e1dfb7546904e087c712da6dd117f066000000000000000000000000503279fd5ee47cd78e65b6773af21bc7722aa68d00000000000000000000000000000000000000000000000000000000000000e900000000000000000000000000000000000000000000000000000000",
                    "decodedMethod": {
                        "callParams": [
                            {
                                "name": "dest",
                                "type": "address",
                                "value": "0xf1987f66553460a4f0730ce17484f5a9a2e883a6"
                            },
                            {
                                "name": "howToCall",
                                "type": "uint8",
                                "value": "0"
                            },
                            {
                                "name": "calldata",
                                "type": "bytes",
                                "value": "0x23b872dd0000000000000000000000000e979995e1dfb7546904e087c712da6dd117f066000000000000000000000000503279fd5ee47cd78e65b6773af21bc7722aa68d00000000000000000000000000000000000000000000000000000000000000e9"
                            }
                        ],
                        "constructorArguments": "",
                        "name": "proxy",
                        "returnParams": [
                            {
                                "name": "result",
                                "type": "bool",
                                "value": true
                            }
                        ],
                        "signature": "proxy(address,uint8,bytes)"
                    },
                    "errorInfo": "",
                    "fromAddress": "0xa610f56070d2cc9d111bacf28b3378038aeba047",
                    "gasUsed": 96104,
                    "id": 8,
                    "methodDecoded": true,
                    "operation": "DELEGATECALL",
                    "output": "0x0000000000000000000000000000000000000000000000000000000000000001",
                    "revert": false,
                    "revertMessage": "",
                    "selector": "0x1b0f7ba9",
                    "status": true,
                    "value": "0"
                },
                "nodeType": 0
            },
            "9": {
                "invocation": {
                    "address": "0xa5409ec958c83c3f309868babaca7c86dcb077c1",
                    "callData": "0x0000000000000000000000007be8076f4ea4a4ad08075c2508e481d6c946d12b",
                    "decodedMethod": {
                        "callParams": [
                            {
                                "name": "",
                                "type": "address",
                                "value": "0x7be8076f4ea4a4ad08075c2508e481d6c946d12b"
                            }
                        ],
                        "constructorArguments": "",
                        "name": "contracts",
                        "returnParams": [
                            {
                                "name": "",
                                "type": "bool",
                                "value": true
                            }
                        ],
                        "signature": "contracts(address)"
                    },
                    "errorInfo": "",
                    "fromAddress": "0xa610f56070d2cc9d111bacf28b3378038aeba047",
                    "gasUsed": 2553,
                    "id": 9,
                    "methodDecoded": true,
                    "operation": "CALL",
                    "output": "0x0000000000000000000000000000000000000000000000000000000000000001",
                    "revert": false,
                    "revertMessage": "",
                    "selector": "0x69dc9ff3",
                    "status": true,
                    "value": "0"
                },
                "nodeType": 0
            }
        },
        "gasFlame": [
            {
                "children": [
                    {
                        "children": [
                            {
                                "children": [],
                                "depth": 0,
                                "name": "Initial Gas",
                                "value": 36844
                            },
                            {
                                "children": [
                                    {
                                        "children": [],
                                        "depth": 1,
                                        "name": "ecrecover",
                                        "value": 3000
                                    },
                                    {
                                        "children": [],
                                        "depth": 1,
                                        "name": "proxies",
                                        "value": 2782
                                    },
                                    {
                                        "children": [],
                                        "depth": 1,
                                        "name": "delegateProxyImplementation",
                                        "value": 2613
                                    },
                                    {
                                        "children": [],
                                        "depth": 1,
                                        "name": "implementation",
                                        "value": 2525
                                    },
                                    {
                                        "children": [],
                                        "depth": 1,
                                        "name": "fallback",
                                        "value": 0
                                    },
                                    {
                                        "children": [],
                                        "depth": 1,
                                        "name": "fallback",
                                        "value": 0
                                    },
                                    {
                                        "children": [
                                            {
                                                "children": [
                                                    {
                                                        "children": [],
                                                        "depth": 3,
                                                        "name": "contracts",
                                                        "value": 2553
                                                    },
                                                    {
                                                        "children": [],
                                                        "depth": 3,
                                                        "name": "transferFrom",
                                                        "value": 87207
                                                    }
                                                ],
                                                "depth": 2,
                                                "name": "proxy",
                                                "value": 96104
                                            }
                                        ],
                                        "depth": 1,
                                        "name": "proxy",
                                        "value": 99364
                                    }
                                ],
                                "depth": 0,
                                "name": "Executed Gas",
                                "value": 203086
                            }
                        ],
                        "depth": -1,
                        "name": "Actual Gas Used",
                        "value": 227530
                    },
                    {
                        "children": [],
                        "depth": -1,
                        "name": "Refunded Gas",
                        "value": 12400
                    }
                ],
                "depth": -2,
                "name": "Total Gas",
                "value": 239930
            }
        ],
        "isConfirmed": true,
        "mainTrace": [
            {
                "children": [
                    {
                        "children": [
                            {
                                "children": [],
                                "depth": 1,
                                "id": 1,
                                "order": 1
                            },
                            {
                                "children": [],
                                "depth": 1,
                                "id": 2,
                                "order": 2
                            },
                            {
                                "children": [],
                                "depth": 1,
                                "id": 3,
                                "order": 3
                            },
                            {
                                "children": [],
                                "depth": 1,
                                "id": 4,
                                "order": 4
                            },
                            {
                                "children": [],
                                "depth": 1,
                                "id": 5,
                                "order": 5
                            },
                            {
                                "children": [],
                                "depth": 1,
                                "id": 6,
                                "order": 6
                            },
                            {
                                "children": [
                                    {
                                        "children": [
                                            {
                                                "children": [],
                                                "depth": 3,
                                                "id": 9,
                                                "order": 9
                                            },
                                            {
                                                "children": [
                                                    {
                                                        "children": [],
                                                        "depth": 4,
                                                        "id": 11,
                                                        "order": 11
                                                    },
                                                    {
                                                        "children": [],
                                                        "depth": 4,
                                                        "id": 12,
                                                        "order": 12
                                                    }
                                                ],
                                                "depth": 3,
                                                "id": 10,
                                                "order": 10
                                            }
                                        ],
                                        "depth": 2,
                                        "id": 8,
                                        "order": 8
                                    }
                                ],
                                "depth": 1,
                                "id": 7,
                                "order": 7
                            },
                            {
                                "children": [],
                                "depth": 1,
                                "id": 13,
                                "order": 13
                            }
                        ],
                        "depth": 0,
                        "id": 0,
                        "order": 0
                    }
                ],
                "depth": -1,
                "id": -1,
                "order": -1
            }
        ],
        "mainTraceNodeCount": 14,
        "parentIdMap": {
            "0": -1,
            "1": 0,
            "10": 8,
            "11": 10,
            "12": 10,
            "13": 0,
            "2": 0,
            "3": 0,
            "4": 0,
            "5": 0,
            "6": 0,
            "7": 0,
            "8": 7,
            "9": 8
        },
        "tidyTrace": [
            {
                "children": [
                    {
                        "children": [
                            {
                                "children": [],
                                "depth": 1,
                                "id": 1,
                                "order": 1
                            },
                            {
                                "children": [],
                                "depth": 1,
                                "id": 2,
                                "order": 2
                            },
                            {
                                "children": [],
                                "depth": 1,
                                "id": 3,
                                "order": 3
                            },
                            {
                                "children": [],
                                "depth": 1,
                                "id": 4,
                                "order": 4
                            },
                            {
                                "children": [],
                                "depth": 1,
                                "id": 5,
                                "order": 5
                            },
                            {
                                "children": [],
                                "depth": 1,
                                "id": 6,
                                "order": 6
                            },
                            {
                                "children": [
                                    {
                                        "children": [
                                            {
                                                "children": [],
                                                "depth": 3,
                                                "id": 9,
                                                "order": 9
                                            },
                                            {
                                                "children": [
                                                    {
                                                        "children": [],
                                                        "depth": 4,
                                                        "id": 11,
                                                        "order": 11
                                                    },
                                                    {
                                                        "children": [],
                                                        "depth": 4,
                                                        "id": 12,
                                                        "order": 12
                                                    }
                                                ],
                                                "depth": 3,
                                                "id": 10,
                                                "order": 10
                                            }
                                        ],
                                        "depth": 2,
                                        "id": 8,
                                        "order": 8
                                    }
                                ],
                                "depth": 1,
                                "id": 7,
                                "order": 7
                            },
                            {
                                "children": [],
                                "depth": 1,
                                "id": 13,
                                "order": 13
                            }
                        ],
                        "depth": 0,
                        "id": 0,
                        "order": 0
                    }
                ],
                "depth": -1,
                "id": -1,
                "order": -1
            }
        ],
        "tidyTraceNodeCount": 14
    },
    "state_change": {
        "stateChanges": [
            {
                "address": "0x7be8076f4ea4a4ad08075c2508e481d6c946d12b",
                "erc": "",
                "slots": [
                    {
                        "current": "0x0000000000000000000000000000000000000000000000000000000000000001",
                        "key": "0xd7ff342b348ecf8344d510f9f0d36b6bbfd58a3ac04ba6844a48a755d21329c9",
                        "prev": "0x0000000000000000000000000000000000000000000000000000000000000000"
                    }
                ],
                "storageVariables": [
                    {
                        "name": "cancelledOrFinalized",
                        "type": "mapping(bytes32 => bool)",
                        "value": {
                            "pairs": [
                                {
                                    "key": "0xa1e2b89020816273dc0dd25d914a30cb552beac8d5dfb0324034d7bd2c32edc0",
                                    "value": {
                                        "current": "true",
                                        "prev": "false",
                                        "typeTag": 1
                                    }
                                }
                            ],
                            "typeTag": 4
                        }
                    }
                ]
            },
            {
                "address": "0xf1987f66553460a4f0730ce17484f5a9a2e883a6",
                "erc": "ERC-721",
                "slots": [
                    {
                        "current": "0x0000000000000000000000000000000000000000000000000000000000000000",
                        "key": "0x223512e2b641f1751f6af23c0ea98fc0eebc063ed1ea4d07153ce48c7ba85d50",
                        "prev": "0x00000000000000000000000000000000000000000000000000000000000004fd"
                    },
                    {
                        "current": "0x00000000000000000000000000000000000000000000000000000000000000e9",
                        "key": "0x8d3aaf9f70785df43b74b4d50d415ae39ef2c5536d77528780470cf0ac916253",
                        "prev": "0x0000000000000000000000000000000000000000000000000000000000000000"
                    },
                    {
                        "current": "0x0000000000000000000000000000000000000000000000000000000000000004",
                        "key": "0x57656cf9def9569ff1d6ef1fa132eadceb68984f82084ab1afcc686bcffe9971",
                        "prev": "0x0000000000000000000000000000000000000000000000000000000000000000"
                    },
                    {
                        "current": "0x0000000000000000000000000000000000000000000000000000000000000001",
                        "key": "0x39c87db406a066c4eb6b0a2f4ef4fa2b46fd079031c3cb7b1052229bd3ba553e",
                        "prev": "0x0000000000000000000000000000000000000000000000000000000000000002"
                    },
                    {
                        "current": "0x0000000000000000000000000000000000000000000000000000000000000005",
                        "key": "0x1f91439d75d2aa2567e74359fe2d4a3909700dfcf812cefda274feb1657b8406",
                        "prev": "0x0000000000000000000000000000000000000000000000000000000000000004"
                    },
                    {
                        "current": "0x000000000000000000000000503279fd5ee47cd78e65b6773af21bc7722aa68d",
                        "key": "0x7119be8b2c6037acca4392e33199cf776c96f77bcc9053f99645137e44e8475b",
                        "prev": "0x0000000000000000000000000e979995e1dfb7546904e087c712da6dd117f066"
                    },
                    {
                        "current": "0x00000000000000000000000000000000000000000000000000000000000004fd",
                        "key": "0xd1a8d7a11a981067cb4f203da804df7bc2f2addab7ad51bbd577dde7a775e3b5",
                        "prev": "0x00000000000000000000000000000000000000000000000000000000000000e9"
                    },
                    {
                        "current": "0x0000000000000000000000000000000000000000000000000000000000000000",
                        "key": "0xf4ad943eea27e78a05cb0649a4a88712c12c0ca63c2187b7b4ee56b031e73612",
                        "prev": "0x0000000000000000000000000000000000000000000000000000000000000001"
                    }
                ],
                "storageVariables": [
                    {
                        "name": "_balances",
                        "type": "mapping(address => uint256)",
                        "value": {
                            "pairs": [
                                {
                                    "key": "0x0e979995e1dfb7546904e087c712da6dd117f066",
                                    "value": {
                                        "current": "1",
                                        "prev": "2",
                                        "typeTag": 1
                                    }
                                },
                                {
                                    "key": "0x503279fd5ee47cd78e65b6773af21bc7722aa68d",
                                    "value": {
                                        "current": "5",
                                        "prev": "4",
                                        "typeTag": 1
                                    }
                                }
                            ],
                            "typeTag": 4
                        }
                    },
                    {
                        "name": "_owners",
                        "type": "mapping(uint256 => address)",
                        "value": {
                            "pairs": [
                                {
                                    "key": "233",
                                    "value": {
                                        "current": "0x503279fd5ee47cd78e65b6773af21bc7722aa68d",
                                        "prev": "0x0e979995e1dfb7546904e087c712da6dd117f066",
                                        "typeTag": 1
                                    }
                                }
                            ],
                            "typeTag": 4
                        }
                    },
                    {
                        "name": "_ownedTokens",
                        "type": "mapping(address => mapping(uint256 => uint256))",
                        "value": {
                            "pairs": [
                                {
                                    "key": "0x0e979995e1dfb7546904e087c712da6dd117f066",
                                    "value": {
                                        "pairs": [
                                            {
                                                "key": "0",
                                                "value": {
                                                    "current": "1277",
                                                    "prev": "233",
                                                    "typeTag": 1
                                                }
                                            },
                                            {
                                                "key": "1",
                                                "value": {
                                                    "current": "0",
                                                    "prev": "1277",
                                                    "typeTag": 1
                                                }
                                            }
                                        ],
                                        "typeTag": 4
                                    }
                                },
                                {
                                    "key": "0x503279fd5ee47cd78e65b6773af21bc7722aa68d",
                                    "value": {
                                        "pairs": [
                                            {
                                                "key": "4",
                                                "value": {
                                                    "current": "233",
                                                    "prev": "0",
                                                    "typeTag": 1
                                                }
                                            }
                                        ],
                                        "typeTag": 4
                                    }
                                }
                            ],
                            "typeTag": 4
                        }
                    },
                    {
                        "name": "_ownedTokensIndex",
                        "type": "mapping(uint256 => uint256)",
                        "value": {
                            "pairs": [
                                {
                                    "key": "1277",
                                    "value": {
                                        "current": "0",
                                        "prev": "1",
                                        "typeTag": 1
                                    }
                                },
                                {
                                    "key": "233",
                                    "value": {
                                        "current": "4",
                                        "prev": "0",
                                        "typeTag": 1
                                    }
                                }
                            ],
                            "typeTag": 4
                        }
                    }
                ]
            }
        ]
    }
}