{
    "balance_change": {
        "balanceChanges": [
            {
                "account": "0xf99e8120ab93df377db2b6de250245343f703c1e",
                "assets": [
                    {
                        "address": "0xeeeeeeeeeeeeeeeeeeeeeeeeeeeeeeeeeeeeeeee",
                        "amount": "0.1",
                        "iconUrl": "https://assets.blocksec.com/image/1663669189317-3.png",
                        "isERC1155": false,
                        "isERC721": false,
                        "sign": false,
                        "value": "166.5900000000000091"
                    },
                    {
                        "address": "0xee70b8439aecfea10411c7b6ba420d0ea240b8f1",
                        "amount": "1",
                        "iconUrl": "",
                        "isERC1155": false,
                        "isERC721": true,
                        "sign": true,
                        "tokenID": "3546",
                        "value": ""
                    }
                ]
            },
            {
                "account": "0xee70b8439aecfea10411c7b6ba420d0ea240b8f1",
                "assets": [
                    {
                        "address": "0xeeeeeeeeeeeeeeeeeeeeeeeeeeeeeeeeeeeeeeee",
                        "amount": "0.1",
                        "iconUrl": "https://assets.blocksec.com/image/1663669189317-3.png",
                        "isERC1155": false,
                        "isERC721": false,
                        "sign": true,
                        "value": "166.5900000000000091"
                    }
                ]
            },
            {
                "account": "0x0000000000000000000000000000000000000000",
                "assets": [
                    {
                        "address": "0xee70b8439aecfea10411c7b6ba420d0ea240b8f1",
                        "amount": "1",
                        "iconUrl": "",
                        "isERC1155": false,
                        "isERC721": true,
                        "sign": false,
                        "tokenID": "3546",
                        "value": ""
                    }
                ]
            }
        ]
    },
    "profile": {
        "basic_info": {
            "baseFee": "68.308548248",
            "blockNumber": 16579449,
            "callData": "0x386bacdc00000000000000000000000000000000000000000000000000000000000000010000000000000000000000000000000000000000000000000000000000001b580000000000000000000000000000000000000000000000000000000000000060000000000000000000000000000000000000000000000000000000000000000e08ef1efaff0a17973248ab31cb9f880ddf38df7860d62153318926933a62395214cf1c2d11a2b86681238c19793d7b03c73083b7de8861738703133ebda38a46f135f6ff2fc00bd5b859c39a83a87c17c53f25520cf64e50c3c1c4d5ea3cec4a1f3a3a606a7568bddd28748d6771584d432a48bb51e8a51972cbf949fa8fed5eb5c771a1bbf21910190cf6d79ed5e67f47b760880efc6b49f752ef4e987f483ef1fa321675e169602999ce104b6e5f3b4e11cba1ab7e9ebb9c3210e4b3ff4a55fc5f72a9eb99692fb58e9489d59ad3ef44c59d3ee97d614655f98404afed9ad80d26f0157af90eeabad531bd331f30c4bc12a0bf757aa2dc4a581ba3c6edcc8b4cd6dbd130017cbc37f9c446d9aa8150203e8295960d4a4202115e0a704d1554706abf94992793758ad14990ab3477a801e52868a8bc679517ad8ea50eaf8724b535424a94db58c22e79baa3459a0564492c5104ba9943c1e3c740e925bbf944fe8552bc1784c928484daa4b120c6335af60677b7e5bf191d396964cbfd3505eba1c52db229e756912238e0a7f427a0e076d4f625d23a254b3e3193843e568835d09822cbe471bd677476a5510d5e881da4c80d4f610784d2b786d3906d51bc4",
            "debugEnable": true,
            "errorInfo": "",
            "eventCount": 1,
            "feeRecipient": "0x690b9a9e9aa1c9db991c7721a92d351db4fac990",
            "formatValue": "0.1",
            "gasLimit": 161720,
            "gasPrice": "69.308548248",
            "gasUsed": 133188,
            "intTxnCount": 3,
            "internalRevert": false,
            "internalRevertMessage": "",
            "isContractCreation": false,
            "isFlashloan": false,
            "maxFee": "75.499567734",
            "nonce": 4,
            "overwritedBlockNumber": -1,
            "priorityFee": "1",
            "receiver": "0xee70b8439aecfea10411c7b6ba420d0ea240b8f1",
            "revertMessage": "",
            "sender": "0xf99e8120ab93df377db2b6de250245343f703c1e",
            "simulationEnable": true,
            "sourceTxnHash": "0x0f875a3cd1aa584d64d49825edb15a623028cbc3812bda221db119b92a9d3831",
            "status": true,
            "timestamp": "2023-02-07T21:00:59Z",
            "transactionFee": "0.009231066924054624",
            "txnHash": "0x0f875a3cd1aa584d64d49825edb15a623028cbc3812bda221db119b92a9d3831",
            "txnIndex": 178,
            "type": 2,
            "value": "100000000000000000"
        },
        "fund_flow": [
            {
                "amount": "0.1",
                "from": "0xf99e8120ab93df377db2b6de250245343f703c1e",
                "id": 1,
                "isERC1155": false,
                "isERC721": false,
                "isReverted": false,
                "order": 1,
                "to": "0xee70b8439aecfea10411c7b6ba420d0ea240b8f1",
                "token": "0xeeeeeeeeeeeeeeeeeeeeeeeeeeeeeeeeeeeeeeee"
            },
            {
                "amount": "1",
                "from": "0x0000000000000000000000000000000000000000",
                "id": 2,
                "isERC1155": false,
                "isERC721": true,
                "isReverted": false,
                "order": 2,
                "to": "0xf99e8120ab93df377db2b6de250245343f703c1e",
                "token": "0xee70b8439aecfea10411c7b6ba420d0ea240b8f1",
                "tokenID": "3546"
            }
        ],
        "token_infos": [
            {
                "address": "0xeeeeeeeeeeeeeeeeeeeeeeeeeeeeeeeeeeeeeeee",
                "decimals": 18
            },
            {
                "address": "0xc02aaa39b223fe8d0a0e5c4f27ead9083c756cc2",
                "decimals": 18
            }
        ]
    },
    "address_label": {
        "labels": [
            {
                "address": "0xeeeeeeeeeeeeeeeeeeeeeeeeeeeeeeeeeeeeeeee",
                "label": "Ether"
            },
            {
                "address": "0xeab3bc124ad1e77947ffb541123441cc4aa75f1a",
                "label": "OFDropCollection"
            },
            {
                "address": "0x0000000000000000000000000000000000000001",
                "label": "Precompiled"
            },
            {
                "address": "0xee70b8439aecfea10411c7b6ba420d0ea240b8f1",
                "label": "Adventurers: Adventurers Token"
            },
            {
                "address": "0x775ecef1c70ed299e37006f6820d6252b0e90bd6",
                "label": "TransparentUpgradeableProxy_775e_0bd6"
            },
            {
                "address": "0x1aa595cabd12f347de0f584018707e0f046adb7a",
                "label": "NiftyKitV2"
            },
            {
                "address": "0x0000000000000000000000000000000000000002",
                "label": "Precompiled"
            },
            {
                "address": "0x0000000000000000000000000000000000000003",
                "label": "Precompiled"
            },
            {
                "address": "0x0000000000000000000000000000000000000004",
                "label": "Precompiled"
            }
        ]
    },
    "trace": {
        "accountLabels": null,
        "dataMap": {
            "-1": {
                "invocation": {
                    "address": "0xf99e8120ab93df377db2b6de250245343f703c1e",
                    "callData": "",
                    "decodedMethod": null,
                    "errorInfo": "",
                    "fromAddress": "",
                    "gasUsed": 0,
                    "id": -1,
                    "methodDecoded": false,
                    "operation": "",
                    "output": "",
                    "revert": false,
                    "revertMessage": "",
                    "selector": "",
                    "status": false,
                    "value": ""
                },
                "nodeType": 0
            },
            "0": {
                "invocation": {
                    "address": "0xee70b8439aecfea10411c7b6ba420d0ea240b8f1",
                    "callData": "0x00000000000000000000000000000000000000000000000000000000000000010000000000000000000000000000000000000000000000000000000000001b580000000000000000000000000000000000000000000000000000000000000060000000000000000000000000000000000000000000000000000000000000000e08ef1efaff0a17973248ab31cb9f880ddf38df7860d62153318926933a62395214cf1c2d11a2b86681238c19793d7b03c73083b7de8861738703133ebda38a46f135f6ff2fc00bd5b859c39a83a87c17c53f25520cf64e50c3c1c4d5ea3cec4a1f3a3a606a7568bddd28748d6771584d432a48bb51e8a51972cbf949fa8fed5eb5c771a1bbf21910190cf6d79ed5e67f47b760880efc6b49f752ef4e987f483ef1fa321675e169602999ce104b6e5f3b4e11cba1ab7e9ebb9c3210e4b3ff4a55fc5f72a9eb99692fb58e9489d59ad3ef44c59d3ee97d614655f98404afed9ad80d26f0157af90eeabad531bd331f30c4bc12a0bf757aa2dc4a581ba3c6edcc8b4cd6dbd130017cbc37f9c446d9aa8150203e8295960d4a4202115e0a704d1554706abf94992793758ad14990ab3477a801e52868a8bc679517ad8ea50eaf8724b535424a94db58c22e79baa3459a0564492c5104ba9943c1e3c740e925bbf944fe8552bc1784c928484daa4b120c6335af60677b7e5bf191d396964cbfd3505eba1c52db229e756912238e0a7f427a0e076d4f625d23a254b3e3193843e568835d09822cbe471bd677476a5510d5e881da4c80d4f610784d2b786d3906d51bc4",
                    "decodedMethod": {
                        "callParams": [
                            {
                                "name": "quantity",
                                "type": "uint64",
                                "value": "1"
                            },
                            {
                                "name": "allowed",
                                "type": "uint256",
                                "value": "7,000"
                            },
                            {
                                "name": "proof",
                                "type": "bytes32[]",
                                "value": [
                                    "0x08ef1efaff0a17973248ab31cb9f880ddf38df7860d62153318926933a623952",
                                    "0x14cf1c2d11a2b86681238c19793d7b03c73083b7de8861738703133ebda38a46",
                                    "0xf135f6ff2fc00bd5b859c39a83a87c17c53f25520cf64e50c3c1c4d5ea3cec4a",
                                    "0x1f3a3a606a7568bddd28748d6771584d432a48bb51e8a51972cbf949fa8fed5e",
                                    "0xb5c771a1bbf21910190cf6d79ed5e67f47b760880efc6b49f752ef4e987f483e",
                                    "0xf1fa321675e169602999ce104b6e5f3b4e11cba1ab7e9ebb9c3210e4b3ff4a55",
                                    "0xfc5f72a9eb99692fb58e9489d59ad3ef44c59d3ee97d614655f98404afed9ad8",
                                    "0x0d26f0157af90eeabad531bd331f30c4bc12a0bf757aa2dc4a581ba3c6edcc8b",
                                    "0x4cd6dbd130017cbc37f9c446d9aa8150203e8295960d4a4202115e0a704d1554",
                                    "0x706abf94992793758ad14990ab3477a801e52868a8bc679517ad8ea50eaf8724",
                                    "0xb535424a94db58c22e79baa3459a0564492c5104ba9943c1e3c740e925bbf944",
                                    "0xfe8552bc1784c928484daa4b120c6335af60677b7e5bf191d396964cbfd3505e",
                                    "0xba1c52db229e756912238e0a7f427a0e076d4f625d23a254b3e3193843e56883",
                                    "0x5d09822cbe471bd677476a5510d5e881da4c80d4f610784d2b786d3906d51bc4"
                                ]
                            }
                        ],
                        "constructorArguments": "",
                        "name": "presaleMint",
                        "returnParams": [],
                        "signature": "presaleMint(uint64,uint256,bytes32[])"
                    },
                    "errorInfo": "",
                    "fromAddress": "0xf99e8120ab93df377db2b6de250245343f703c1e",
                    "gasUsed": 133188,
                    "id": 0,
                    "methodDecoded": true,
                    "operation": "CALL",
                    "output": "",
                    "revert": false,
                    "revertMessage": "",
                    "selector": "0x386bacdc",
                    "status": true,
                    "value": "0.1"
                },
                "nodeType": 0
            },
            "1": {
                "invocation": {
                    "address": "0xeab3bc124ad1e77947ffb541123441cc4aa75f1a",
                    "callData": "0x00000000000000000000000000000000000000000000000000000000000000010000000000000000000000000000000000000000000000000000000000001b580000000000000000000000000000000000000000000000000000000000000060000000000000000000000000000000000000000000000000000000000000000e08ef1efaff0a17973248ab31cb9f880ddf38df7860d62153318926933a62395214cf1c2d11a2b86681238c19793d7b03c73083b7de8861738703133ebda38a46f135f6ff2fc00bd5b859c39a83a87c17c53f25520cf64e50c3c1c4d5ea3cec4a1f3a3a606a7568bddd28748d6771584d432a48bb51e8a51972cbf949fa8fed5eb5c771a1bbf21910190cf6d79ed5e67f47b760880efc6b49f752ef4e987f483ef1fa321675e169602999ce104b6e5f3b4e11cba1ab7e9ebb9c3210e4b3ff4a55fc5f72a9eb99692fb58e9489d59ad3ef44c59d3ee97d614655f98404afed9ad80d26f0157af90eeabad531bd331f30c4bc12a0bf757aa2dc4a581ba3c6edcc8b4cd6dbd130017cbc37f9c446d9aa8150203e8295960d4a4202115e0a704d1554706abf94992793758ad14990ab3477a801e52868a8bc679517ad8ea50eaf8724b535424a94db58c22e79baa3459a0564492c5104ba9943c1e3c740e925bbf944fe8552bc1784c928484daa4b120c6335af60677b7e5bf191d396964cbfd3505eba1c52db229e756912238e0a7f427a0e076d4f625d23a254b3e3193843e568835d09822cbe471bd677476a5510d5e881da4c80d4f610784d2b786d3906d51bc4",
                    "decodedMethod": {
                        "callParams": [
                            {
                                "name": "quantity",
                                "type": "uint64",
                                "value": "1"
                            },
                            {
                                "name": "allowed",
                                "type": "uint256",
                                "value": "7,000"
                            },
                            {
                                "name": "proof",
                                "type": "bytes32[]",
                                "value": [
                                    "0x08ef1efaff0a17973248ab31cb9f880ddf38df7860d62153318926933a623952",
                                    "0x14cf1c2d11a2b86681238c19793d7b03c73083b7de8861738703133ebda38a46",
                                    "0xf135f6ff2fc00bd5b859c39a83a87c17c53f25520cf64e50c3c1c4d5ea3cec4a",
                                    "0x1f3a3a606a7568bddd28748d6771584d432a48bb51e8a51972cbf949fa8fed5e",
                                    "0xb5c771a1bbf21910190cf6d79ed5e67f47b760880efc6b49f752ef4e987f483e",
                                    "0xf1fa321675e169602999ce104b6e5f3b4e11cba1ab7e9ebb9c3210e4b3ff4a55",
                                    "0xfc5f72a9eb99692fb58e9489d59ad3ef44c59d3ee97d614655f98404afed9ad8",
                                    "0x0d26f0157af90eeabad531bd331f30c4bc12a0bf757aa2dc4a581ba3c6edcc8b",
                                    "0x4cd6dbd130017cbc37f9c446d9aa8150203e8295960d4a4202115e0a704d1554",
                                    "0x706abf94992793758ad14990ab3477a801e52868a8bc679517ad8ea50eaf8724",
                                    "0xb535424a94db58c22e79baa3459a0564492c5104ba9943c1e3c740e925bbf944",
                                    "0xfe8552bc1784c928484daa4b120c6335af60677b7e5bf191d396964cbfd3505e",
                                    "0xba1c52db229e756912238e0a7f427a0e076d4f625d23a254b3e3193843e56883",
                                    "0x5d09822cbe471bd677476a5510d5e881da4c80d4f610784d2b786d3906d51bc4"
                                ]
                            }
                        ],
                        "constructorArguments": "",
                        "name": "presaleMint",
                        "returnParams": [],
                        "signature": "presaleMint(uint64,uint256,bytes32[])"
                    },
                    "errorInfo": "",
                    "fromAddress": "0xee70b8439aecfea10411c7b6ba420d0ea240b8f1",
                    "gasUsed": 101613,
                    "id": 1,
                    "methodDecoded": true,
                    "operation": "DELEGATECALL",
                    "output": "",
                    "revert": false,
                    "revertMessage": "",
                    "selector": "0x386bacdc",
                    "status": true,
                    "value": "0.1"
                },
                "nodeType": 0
            },
            "2": {
                "invocation": {
                    "address": "0x775ecef1c70ed299e37006f6820d6252b0e90bd6",
                    "callData": "0x000000000000000000000000000000000000000000000000016345785d8a0000",
                    "decodedMethod": {
                        "callParams": [
                            {
                                "name": "amount",
                                "type": "uint256",
                                "value": "100,000,000,000,000,000"
                            }
                        ],
                        "constructorArguments": "",
                        "name": "addFees",
                        "returnParams": [],
                        "signature": "addFees(uint256)"
                    },
                    "errorInfo": "",
                    "fromAddress": "0xee70b8439aecfea10411c7b6ba420d0ea240b8f1",
                    "gasUsed": 17062,
                    "id": 2,
                    "methodDecoded": true,
                    "operation": "CALL",
                    "output": "",
                    "revert": false,
                    "revertMessage": "",
                    "selector": "0x107e9cf1",
                    "status": true,
                    "value": "0"
                },
                "nodeType": 0
            },
            "3": {
                "invocation": {
                    "address": "0x1aa595cabd12f347de0f584018707e0f046adb7a",
                    "callData": "0x000000000000000000000000000000000000000000000000016345785d8a0000",
                    "decodedMethod": {
                        "callParams": [
                            {
                                "name": "amount",
                                "type": "uint256",
                                "value": "100,000,000,000,000,000"
                            }
                        ],
                        "constructorArguments": "",
                        "name": "addFees",
                        "returnParams": [],
                        "signature": "addFees(uint256)"
                    },
                    "errorInfo": "",
                    "fromAddress": "0x775ecef1c70ed299e37006f6820d6252b0e90bd6",
                    "gasUsed": 9734,
                    "id": 3,
                    "methodDecoded": true,
                    "operation": "DELEGATECALL",
                    "output": "",
                    "revert": false,
                    "revertMessage": "",
                    "selector": "0x107e9cf1",
                    "status": true,
                    "value": "0"
                },
                "nodeType": 0
            },
            "4": {
                "event": {
                    "contract": "0xee70b8439aecfea10411c7b6ba420d0ea240b8f1",
                    "decodedLog": {
                        "name": "Transfer",
                        "params": [
                            {
                                "name": "from",
                                "type": "address",
                                "value": "0x0000000000000000000000000000000000000000"
                            },
                            {
                                "name": "to",
                                "type": "address",
                                "value": "0xf99e8120ab93df377db2b6de250245343f703c1e"
                            },
                            {
                                "decimalAvailable": true,
                                "name": "tokenId",
                                "type": "uint256",
                                "value": "3,546"
                            }
                        ],
                        "signature": "Transfer(address,address,uint256)"
                    },
                    "id": 4,
                    "logData": "0x",
                    "logDecoded": true,
                    "operation": "EVENT",
                    "revert": false,
                    "status": true,
                    "topics": [
                        "0xddf252ad1be2c89b69c2b068fc378daa952ba7f163c4a11628f55a4df523b3ef",
                        "0x0000000000000000000000000000000000000000000000000000000000000000",
                        "0x000000000000000000000000f99e8120ab93df377db2b6de250245343f703c1e",
                        "0x0000000000000000000000000000000000000000000000000000000000000dda"
                    ]
                },
                "nodeType": 1
            }
        },
        "gasFlame": [
            {
                "children": [
                    {
                        "children": [
                            {
                                "children": [],
                                "depth": 0,
                                "name": "Initial Gas",
                                "value": 28804
                            },
                            {
                                "children": [
                                    {
                                        "children": [
                                            {
                                                "children": [
                                                    {
                                                        "children": [],
                                                        "depth": 3,
                                                        "name": "addFees",
                                                        "value": 9734
                                                    }
                                                ],
                                                "depth": 2,
                                                "name": "addFees",
                                                "value": 17062
                                            }
                                        ],
                                        "depth": 1,
                                        "name": "presaleMint",
                                        "value": 101613
                                    }
                                ],
                                "depth": 0,
                                "name": "Executed Gas",
                                "value": 104384
                            }
                        ],
                        "depth": -1,
                        "name": "Actual Gas Used",
                        "value": 133188
                    },
                    {
                        "children": [],
                        "depth": -1,
                        "name": "Refunded Gas",
                        "value": 0
                    }
                ],
                "depth": -2,
                "name": "Total Gas",
                "value": 133188
            }
        ],
        "isConfirmed": true,
        "mainTrace": [
            {
                "children": [
                    {
                        "children": [
                            {
                                "children": [
                                    {
                                        "children": [
                                            {
                                                "children": [],
                                                "depth": 3,
                                                "id": 3,
                                                "order": 3
                                            }
                                        ],
                                        "depth": 2,
                                        "id": 2,
                                        "order": 2
                                    },
                                    {
                                        "children": [],
                                        "depth": 2,
                                        "id": 4,
                                        "order": 4
                                    }
                                ],
                                "depth": 1,
                                "id": 1,
                                "order": 1
                            }
                        ],
                        "depth": 0,
                        "id": 0,
                        "order": 0
                    }
                ],
                "depth": -1,
                "id": -1,
                "order": -1
            }
        ],
        "mainTraceNodeCount": 5,
        "parentIdMap": {
            "0": -1,
            "1": 0,
            "2": 1,
            "3": 2,
            "4": 1
        },
        "tidyTrace": [
            {
                "children": [
                    {
                        "children": [
                            {
                                "children": [
                                    {
                                        "children": [
                                            {
                                                "children": [],
                                                "depth": 3,
                                                "id": 3,
                                                "order": 3
                                            }
                                        ],
                                        "depth": 2,
                                        "id": 2,
                                        "order": 2
                                    },
                                    {
                                        "children": [],
                                        "depth": 2,
                                        "id": 4,
                                        "order": 4
                                    }
                                ],
                                "depth": 1,
                                "id": 1,
                                "order": 1
                            }
                        ],
                        "depth": 0,
                        "id": 0,
                        "order": 0
                    }
                ],
                "depth": -1,
                "id": -1,
                "order": -1
            }
        ],
        "tidyTraceNodeCount": 5
    },
    "state_change": {
        "stateChanges": [
            {
                "address": "0xee70b8439aecfea10411c7b6ba420d0ea240b8f1",
                "erc": "ERC-721",
                "slots": [
                    {
                        "current": "0x0000000000000000000000000000000000000000000000133910453fa9840000",
                        "key": "0x0000000000000000000000000000000000000000000000000000000000000099",
                        "prev": "0x00000000000000000000000000000000000000000000001337acffc74bfa0000"
                    },
                    {
                        "current": "0x0000000000000001000000000000000000000000000000010000000000000001",
                        "key": "0xa8335a5eec11b4097df77e3e596f2dbda2c619afa5ea61d9562423432d942f5f",
                        "prev": "0x0000000000000000000000000000000000000000000000000000000000000000"
                    },
                    {
                        "current": "0x000000020000000063e2bc0bf99e8120ab93df377db2b6de250245343f703c1e",
                        "key": "0xca27f4148c9ebe32381ace4260b76400ee764481d925addf3518d1d3ff7c611a",
                        "prev": "0x0000000000000000000000000000000000000000000000000000000000000000"
                    },
                    {
                        "current": "0x0000000000000000000000000000000000000000000000000000000000000ddb",
                        "key": "0x2569078dfb4b0305704d3008e7403993ae9601b85f7ae5e742de3de8f8011c40",
                        "prev": "0x0000000000000000000000000000000000000000000000000000000000000dda"
                    }
                ],
                "storageVariables": [
                    {
                        "name": "_totalRevenue",
                        "type": "uint256",
                        "value": {
                            "current": "354600000000000000000",
                            "prev": "354500000000000000000",
                            "typeTag": 1
                        }
                    }
                ]
            }
        ]
    }
}