{
    "balance_change": {
        "balanceChanges": []
    },
    "profile": {
        "basic_info": {
            "baseFee": "",
            "blockNumber": 9761135,
            "callData": "0xaacaaf88000000000000000000000000cbcad28f67a828a1b8750d6c65248302659d01a800000000000000000000000000000000000000000000000000000000000000c00000000000000000000000000094f16d0000000000000000000000005e7f7e7200000000000000000000000000000000000000000000000000000000000001800000000000000000000000000000000000000000000000000000000000000000000000000000000000000000000000000000000000000000000000000003d090000000000000000000000000000000000000000000000000000000000000008412ef080d000000000000000000000000cbcad28f67a828a1b8750d6c65248302659d01a8000000000000000000000000a0b86991c6218b36c1d19d4a2e9eb0ce3606eb480000000000000000000000000034ea9808e620a0ef79261c51af20614b742b2400000000000000000000000000000000000000000000000000000000000000000000000000000000000000000000000000000000000000000000000000000000000000000000000000000000000000000000000000000000000000416fd055d6a2b8404c3f0044d4c777c4434271af2ef885e09ee90dcaa47d3ca261544ca6adfafacf9138313c82aec221a950fdf238a8abb2968bbc7395c1700af31c00000000000000000000000000000000000000000000000000000000000000",
            "debugEnable": true,
            "errorInfo": "",
            "eventCount": 4,
            "feeRecipient": "0x829bd824b016326a401d083b33d092293333a830",
            "formatValue": "0",
            "gasLimit": 250000,
            "gasPrice": "10",
            "gasUsed": 71207,
            "intTxnCount": 12,
            "internalRevert": false,
            "internalRevertMessage": "",
            "isContractCreation": false,
            "isFlashloan": false,
            "maxFee": "",
            "nonce": 31080,
            "overwritedBlockNumber": -1,
            "priorityFee": "",
            "receiver": "0x2b6d87f12b106e1d3fa7137494751566329d1045",
            "revertMessage": "",
            "sender": "0xdd5a1c148ca114af2f4ebc639ce21fed4730a608",
            "simulationEnable": true,
            "sourceTxnHash": "0x0f9f44f99fc172fef843f981b59d7d91137cfc3941f212bb1fefee8b3e141453",
            "status": true,
            "timestamp": "2020-03-28T16:42:25Z",
            "transactionFee": "0.00071207",
            "txnHash": "0x0f9f44f99fc172fef843f981b59d7d91137cfc3941f212bb1fefee8b3e141453",
            "txnIndex": 24,
            "type": 0,
            "value": "0"
        },
        "fund_flow": [],
        "token_infos": [
            {
                "address": "0xc02aaa39b223fe8d0a0e5c4f27ead9083c756cc2",
                "decimals": 18
            },
            {
                "address": "0xeeeeeeeeeeeeeeeeeeeeeeeeeeeeeeeeeeeeeeee",
                "decimals": 18
            }
        ]
    },
    "address_label": {
        "labels": [
            {
                "address": "0x0000000000000000000000000000000000000002",
                "label": "Precompiled"
            },
            {
                "address": "0x0000000000000000000000000000000000000004",
                "label": "Precompiled"
            },
            {
                "address": "0xeeeeeeeeeeeeeeeeeeeeeeeeeeeeeeeeeeeeeeee",
                "label": "Ether"
            },
            {
                "address": "0x0034ea9808e620a0ef79261c51af20614b742b24",
                "label": "PoolTogether: USDC"
            },
            {
                "address": "0xb1dd690cc9af7bb1a906a9b5a94f94191cc553ce",
                "label": "BaseWallet"
            },
            {
                "address": "0x0882477e7895bdc5cea7cb1552ed914ab157fe56",
                "label": "FiatTokenV1"
            },
            {
                "address": "0x0000000000000000000000000000000000000001",
                "label": "Precompiled"
            },
            {
                "address": "0xdd5a1c148ca114af2f4ebc639ce21fed4730a608",
                "label": "Argent: Relayer"
            },
            {
                "address": "0x2b6d87f12b106e1d3fa7137494751566329d1045",
                "label": "TransferManager"
            },
            {
                "address": "0xa0b86991c6218b36c1d19d4a2e9eb0ce3606eb48",
                "label": "Circle: USDC Token"
            },
            {
                "address": "0xcbcad28f67a828a1b8750d6c65248302659d01a8",
                "label": "Proxy"
            },
            {
                "address": "0x0000000000000000000000000000000000000003",
                "label": "Precompiled"
            }
        ]
    },
    "trace": {
        "accountLabels": null,
        "dataMap": {
            "-1": {
                "invocation": {
                    "address": "0xdd5a1c148ca114af2f4ebc639ce21fed4730a608",
                    "callData": "",
                    "decodedMethod": null,
                    "errorInfo": "",
                    "fromAddress": "",
                    "gasUsed": 0,
                    "id": -1,
                    "methodDecoded": false,
                    "operation": "",
                    "output": "",
                    "revert": false,
                    "revertMessage": "",
                    "selector": "",
                    "status": false,
                    "value": ""
                },
                "nodeType": 0
            },
            "0": {
                "invocation": {
                    "address": "0x2b6d87f12b106e1d3fa7137494751566329d1045",
                    "callData": "0x000000000000000000000000cbcad28f67a828a1b8750d6c65248302659d01a800000000000000000000000000000000000000000000000000000000000000c00000000000000000000000000094f16d0000000000000000000000005e7f7e7200000000000000000000000000000000000000000000000000000000000001800000000000000000000000000000000000000000000000000000000000000000000000000000000000000000000000000000000000000000000000000003d090000000000000000000000000000000000000000000000000000000000000008412ef080d000000000000000000000000cbcad28f67a828a1b8750d6c65248302659d01a8000000000000000000000000a0b86991c6218b36c1d19d4a2e9eb0ce3606eb480000000000000000000000000034ea9808e620a0ef79261c51af20614b742b2400000000000000000000000000000000000000000000000000000000000000000000000000000000000000000000000000000000000000000000000000000000000000000000000000000000000000000000000000000000000000416fd055d6a2b8404c3f0044d4c777c4434271af2ef885e09ee90dcaa47d3ca261544ca6adfafacf9138313c82aec221a950fdf238a8abb2968bbc7395c1700af31c00000000000000000000000000000000000000000000000000000000000000",
                    "decodedMethod": {
                        "callParams": [
                            {
                                "name": "_wallet",
                                "type": "address",
                                "value": "0xcbcad28f67a828a1b8750d6c65248302659d01a8"
                            },
                            {
                                "name": "_data",
                                "type": "bytes",
                                "value": "0x12ef080d000000000000000000000000cbcad28f67a828a1b8750d6c65248302659d01a8000000000000000000000000a0b86991c6218b36c1d19d4a2e9eb0ce3606eb480000000000000000000000000034ea9808e620a0ef79261c51af20614b742b240000000000000000000000000000000000000000000000000000000000000000"
                            },
                            {
                                "name": "_nonce",
                                "type": "uint256",
                                "value": "3,321,541,441,070,080,826,681,640,171,964,277,938,779,553,394"
                            },
                            {
                                "name": "_signatures",
                                "type": "bytes",
                                "value": "0x6fd055d6a2b8404c3f0044d4c777c4434271af2ef885e09ee90dcaa47d3ca261544ca6adfafacf9138313c82aec221a950fdf238a8abb2968bbc7395c1700af31c"
                            },
                            {
                                "name": "_gasPrice",
                                "type": "uint256",
                                "value": "0"
                            },
                            {
                                "name": "_gasLimit",
                                "type": "uint256",
                                "value": "250,000"
                            }
                        ],
                        "constructorArguments": "",
                        "name": "execute",
                        "returnParams": [
                            {
                                "name": "success",
                                "type": "bool",
                                "value": true
                            }
                        ],
                        "signature": "execute(address,bytes,uint256,bytes,uint256,uint256)"
                    },
                    "errorInfo": "",
                    "fromAddress": "0xdd5a1c148ca114af2f4ebc639ce21fed4730a608",
                    "gasUsed": 71207,
                    "id": 0,
                    "methodDecoded": true,
                    "operation": "CALL",
                    "output": "0x0000000000000000000000000000000000000000000000000000000000000001",
                    "revert": false,
                    "revertMessage": "",
                    "selector": "0xaacaaf88",
                    "status": true,
                    "value": "0"
                },
                "nodeType": 0
            },
            "1": {
                "invocation": {
                    "address": "0x0000000000000000000000000000000000000001",
                    "callData": "0xe1d2254d7d76ebd338a357c65f124f66b951fc20a66efe43ae8138c6000000000000000000000000000000000000000000000000000000000000001c6fd055d6a2b8404c3f0044d4c777c4434271af2ef885e09ee90dcaa47d3ca261544ca6adfafacf9138313c82aec221a950fdf238a8abb2968bbc7395c1700af3",
                    "decodedMethod": {
                        "callParams": [
                            {
                                "name": "hash",
                                "type": "bytes32",
                                "value": "0x82383922e1d2254d7d76ebd338a357c65f124f66b951fc20a66efe43ae8138c6"
                            },
                            {
                                "name": "v",
                                "type": "uint256",
                                "value": "28"
                            },
                            {
                                "name": "r",
                                "type": "bytes32",
                                "value": "0x6fd055d6a2b8404c3f0044d4c777c4434271af2ef885e09ee90dcaa47d3ca261"
                            },
                            {
                                "name": "s",
                                "type": "bytes32",
                                "value": "0x544ca6adfafacf9138313c82aec221a950fdf238a8abb2968bbc7395c1700af3"
                            }
                        ],
                        "constructorArguments": "",
                        "name": "ecrecover",
                        "returnParams": [
                            {
                                "name": "",
                                "type": "address",
                                "value": "0x5c02d0ccd15e261f3b085ed289a6a4369692d2b8"
                            }
                        ],
                        "signature": "ecrecover(bytes32,uint256,bytes32,bytes32)"
                    },
                    "errorInfo": "",
                    "fromAddress": "0x2b6d87f12b106e1d3fa7137494751566329d1045",
                    "gasUsed": 3000,
                    "id": 1,
                    "methodDecoded": true,
                    "operation": "STATICCALL",
                    "output": "0x0000000000000000000000005c02d0ccd15e261f3b085ed289a6a4369692d2b8",
                    "revert": false,
                    "revertMessage": "",
                    "selector": "0x82383922",
                    "status": true,
                    "value": "0"
                },
                "nodeType": 0
            },
            "10": {
                "invocation": {
                    "address": "0xb1dd690cc9af7bb1a906a9b5a94f94191cc553ce",
                    "callData": "0x000000000000000000000000a0b86991c6218b36c1d19d4a2e9eb0ce3606eb48000000000000000000000000000000000000000000000000000000000000000000000000000000000000000000000000000000000000000000000000000000600000000000000000000000000000000000000000000000000000000000000044095ea7b30000000000000000000000000034ea9808e620a0ef79261c51af20614b742b24000000000000000000000000000000000000000000000000000000000000000000000000000000000000000000000000000000000000000000000000",
                    "decodedMethod": {
                        "callParams": [
                            {
                                "name": "_target",
                                "type": "address",
                                "value": "0xa0b86991c6218b36c1d19d4a2e9eb0ce3606eb48"
                            },
                            {
                                "name": "_value",
                                "type": "uint256",
                                "value": "0"
                            },
                            {
                                "name": "_data",
                                "type": "bytes",
                                "value": "0x095ea7b30000000000000000000000000034ea9808e620a0ef79261c51af20614b742b240000000000000000000000000000000000000000000000000000000000000000"
                            }
                        ],
                        "constructorArguments": "",
                        "name": "invoke",
                        "returnParams": [],
                        "signature": "invoke(address,uint256,bytes)"
                    },
                    "errorInfo": "",
                    "fromAddress": "0xcbcad28f67a828a1b8750d6c65248302659d01a8",
                    "gasUsed": 18451,
                    "id": 10,
                    "methodDecoded": true,
                    "operation": "DELEGATECALL",
                    "output": "",
                    "revert": false,
                    "revertMessage": "",
                    "selector": "0x8f6f0332",
                    "status": true,
                    "value": "0"
                },
                "nodeType": 0
            },
            "11": {
                "invocation": {
                    "address": "0xa0b86991c6218b36c1d19d4a2e9eb0ce3606eb48",
                    "callData": "0x0000000000000000000000000034ea9808e620a0ef79261c51af20614b742b240000000000000000000000000000000000000000000000000000000000000000",
                    "decodedMethod": {
                        "callParams": [
                            {
                                "name": "_spender",
                                "type": "address",
                                "value": "0x0034ea9808e620a0ef79261c51af20614b742b24"
                            },
                            {
                                "decimalAvailable": true,
                                "name": "_value",
                                "type": "uint256",
                                "value": "0"
                            }
                        ],
                        "constructorArguments": "",
                        "name": "approve",
                        "returnParams": [
                            {
                                "name": "",
                                "type": "bool",
                                "value": true
                            }
                        ],
                        "signature": "approve(address,uint256)"
                    },
                    "errorInfo": "",
                    "fromAddress": "0xcbcad28f67a828a1b8750d6c65248302659d01a8",
                    "gasUsed": 12997,
                    "id": 11,
                    "methodDecoded": true,
                    "operation": "CALL",
                    "output": "0x0000000000000000000000000000000000000000000000000000000000000001",
                    "revert": false,
                    "revertMessage": "",
                    "selector": "0x095ea7b3",
                    "status": true,
                    "value": "0"
                },
                "nodeType": 0
            },
            "12": {
                "invocation": {
                    "address": "0x0882477e7895bdc5cea7cb1552ed914ab157fe56",
                    "callData": "0x0000000000000000000000000034ea9808e620a0ef79261c51af20614b742b240000000000000000000000000000000000000000000000000000000000000000",
                    "decodedMethod": {
                        "callParams": [
                            {
                                "name": "_spender",
                                "type": "address",
                                "value": "0x0034ea9808e620a0ef79261c51af20614b742b24"
                            },
                            {
                                "decimalAvailable": true,
                                "name": "_value",
                                "type": "uint256",
                                "value": "0"
                            }
                        ],
                        "constructorArguments": "",
                        "name": "approve",
                        "returnParams": [
                            {
                                "name": "",
                                "type": "bool",
                                "value": true
                            }
                        ],
                        "signature": "approve(address,uint256)"
                    },
                    "errorInfo": "",
                    "fromAddress": "0xa0b86991c6218b36c1d19d4a2e9eb0ce3606eb48",
                    "gasUsed": 10208,
                    "id": 12,
                    "methodDecoded": true,
                    "operation": "DELEGATECALL",
                    "output": "0x0000000000000000000000000000000000000000000000000000000000000001",
                    "revert": false,
                    "revertMessage": "",
                    "selector": "0x095ea7b3",
                    "status": true,
                    "value": "0"
                },
                "nodeType": 0
            },
            "13": {
                "event": {
                    "contract": "0xa0b86991c6218b36c1d19d4a2e9eb0ce3606eb48",
                    "decodedLog": {
                        "name": "Approval",
                        "params": [
                            {
                                "name": "owner",
                                "type": "address",
                                "value": "0xcbcad28f67a828a1b8750d6c65248302659d01a8"
                            },
                            {
                                "name": "spender",
                                "type": "address",
                                "value": "0x0034ea9808e620a0ef79261c51af20614b742b24"
                            },
                            {
                                "decimalAvailable": true,
                                "name": "value",
                                "type": "uint256",
                                "value": "0"
                            }
                        ],
                        "signature": "Approval(address,address,uint256)"
                    },
                    "id": 13,
                    "logData": "0x0000000000000000000000000000000000000000000000000000000000000000",
                    "logDecoded": true,
                    "operation": "EVENT",
                    "revert": false,
                    "status": true,
                    "topics": [
                        "0x8c5be1e5ebec7d5bd14f71427d1e84f3dd0314c0f7b2291e5b200ac8c7c3b925",
                        "0x000000000000000000000000cbcad28f67a828a1b8750d6c65248302659d01a8",
                        "0x0000000000000000000000000034ea9808e620a0ef79261c51af20614b742b24"
                    ]
                },
                "nodeType": 1
            },
            "14": {
                "event": {
                    "contract": "0xcbcad28f67a828a1b8750d6c65248302659d01a8",
                    "decodedLog": {
                        "name": "Invoked",
                        "params": [
                            {
                                "name": "module",
                                "type": "address",
                                "value": "0x2b6d87f12b106e1d3fa7137494751566329d1045"
                            },
                            {
                                "name": "target",
                                "type": "address",
                                "value": "0xa0b86991c6218b36c1d19d4a2e9eb0ce3606eb48"
                            },
                            {
                                "name": "value",
                                "type": "uint256",
                                "value": "0"
                            },
                            {
                                "name": "data",
                                "type": "bytes",
                                "value": "0x095ea7b30000000000000000000000000034ea9808e620a0ef79261c51af20614b742b240000000000000000000000000000000000000000000000000000000000000000"
                            }
                        ],
                        "signature": "Invoked(address,address,uint256,bytes)"
                    },
                    "id": 14,
                    "logData": "0x00000000000000000000000000000000000000000000000000000000000000200000000000000000000000000000000000000000000000000000000000000044095ea7b30000000000000000000000000034ea9808e620a0ef79261c51af20614b742b240000000000000000000000000000000000000000000000000000000000000000",
                    "logDecoded": true,
                    "operation": "EVENT",
                    "revert": false,
                    "status": true,
                    "topics": [
                        "0x7d2476ab50663f025cff0be85655bcf355f62768615c0c478f3cd5293f807365",
                        "0x0000000000000000000000002b6d87f12b106e1d3fa7137494751566329d1045",
                        "0x000000000000000000000000a0b86991c6218b36c1d19d4a2e9eb0ce3606eb48",
                        "0x0000000000000000000000000000000000000000000000000000000000000000"
                    ]
                },
                "nodeType": 1
            },
            "15": {
                "event": {
                    "contract": "0x2b6d87f12b106e1d3fa7137494751566329d1045",
                    "decodedLog": {
                        "name": "Approved",
                        "params": [
                            {
                                "name": "wallet",
                                "type": "address",
                                "value": "0xcbcad28f67a828a1b8750d6c65248302659d01a8"
                            },
                            {
                                "name": "token",
                                "type": "address",
                                "value": "0xa0b86991c6218b36c1d19d4a2e9eb0ce3606eb48"
                            },
                            {
                                "name": "amount",
                                "type": "uint256",
                                "value": "0"
                            },
                            {
                                "name": "spender",
                                "type": "address",
                                "value": "0x0034ea9808e620a0ef79261c51af20614b742b24"
                            }
                        ],
                        "signature": "Approved(address,address,uint256,address)"
                    },
                    "id": 15,
                    "logData": "0x00000000000000000000000000000000000000000000000000000000000000000000000000000000000000000034ea9808e620a0ef79261c51af20614b742b24",
                    "logDecoded": true,
                    "operation": "EVENT",
                    "revert": false,
                    "status": true,
                    "topics": [
                        "0xdc47705473b4a899de6e16a740ecc86f2a65dc7dbb9eadd0a06ce5421a44e230",
                        "0x000000000000000000000000cbcad28f67a828a1b8750d6c65248302659d01a8",
                        "0x000000000000000000000000a0b86991c6218b36c1d19d4a2e9eb0ce3606eb48"
                    ]
                },
                "nodeType": 1
            },
            "16": {
                "event": {
                    "contract": "0x2b6d87f12b106e1d3fa7137494751566329d1045",
                    "decodedLog": {
                        "name": "TransactionExecuted",
                        "params": [
                            {
                                "name": "wallet",
                                "type": "address",
                                "value": "0xcbcad28f67a828a1b8750d6c65248302659d01a8"
                            },
                            {
                                "name": "success",
                                "type": "bool",
                                "value": true
                            },
                            {
                                "name": "signedHash",
                                "type": "bytes32",
                                "value": "0x82383922e1d2254d7d76ebd338a357c65f124f66b951fc20a66efe43ae8138c6"
                            }
                        ],
                        "signature": "TransactionExecuted(address,bool,bytes32)"
                    },
                    "id": 16,
                    "logData": "0x82383922e1d2254d7d76ebd338a357c65f124f66b951fc20a66efe43ae8138c6",
                    "logDecoded": true,
                    "operation": "EVENT",
                    "revert": false,
                    "status": true,
                    "topics": [
                        "0x6bb0b384ce772133df63560651bc8c727c53306cec1d51e2cbf8ea35fb8f2ec1",
                        "0x000000000000000000000000cbcad28f67a828a1b8750d6c65248302659d01a8",
                        "0x0000000000000000000000000000000000000000000000000000000000000001"
                    ]
                },
                "nodeType": 1
            },
            "2": {
                "invocation": {
                    "address": "0xcbcad28f67a828a1b8750d6c65248302659d01a8",
                    "callData": "0x",
                    "decodedMethod": {
                        "callParams": [],
                        "constructorArguments": "",
                        "name": "owner",
                        "returnParams": [
                            {
                                "name": "",
                                "type": "address",
                                "value": "0x5c02d0ccd15e261f3b085ed289a6a4369692d2b8"
                            }
                        ],
                        "signature": "owner()"
                    },
                    "errorInfo": "",
                    "fromAddress": "0x2b6d87f12b106e1d3fa7137494751566329d1045",
                    "gasUsed": 2903,
                    "id": 2,
                    "methodDecoded": true,
                    "operation": "STATICCALL",
                    "output": "0x0000000000000000000000005c02d0ccd15e261f3b085ed289a6a4369692d2b8",
                    "revert": false,
                    "revertMessage": "",
                    "selector": "0x8da5cb5b",
                    "status": true,
                    "value": "0"
                },
                "nodeType": 0
            },
            "3": {
                "invocation": {
                    "address": "0xb1dd690cc9af7bb1a906a9b5a94f94191cc553ce",
                    "callData": "0x",
                    "decodedMethod": {
                        "callParams": [],
                        "constructorArguments": "",
                        "name": "owner",
                        "returnParams": [
                            {
                                "name": "",
                                "type": "address",
                                "value": "0x5c02d0ccd15e261f3b085ed289a6a4369692d2b8"
                            }
                        ],
                        "signature": "owner()"
                    },
                    "errorInfo": "",
                    "fromAddress": "0xcbcad28f67a828a1b8750d6c65248302659d01a8",
                    "gasUsed": 1269,
                    "id": 3,
                    "methodDecoded": true,
                    "operation": "DELEGATECALL",
                    "output": "0x0000000000000000000000005c02d0ccd15e261f3b085ed289a6a4369692d2b8",
                    "revert": false,
                    "revertMessage": "",
                    "selector": "0x8da5cb5b",
                    "status": true,
                    "value": "0"
                },
                "nodeType": 0
            },
            "4": {
                "invocation": {
                    "address": "0x2b6d87f12b106e1d3fa7137494751566329d1045",
                    "callData": "0x000000000000000000000000cbcad28f67a828a1b8750d6c65248302659d01a8000000000000000000000000a0b86991c6218b36c1d19d4a2e9eb0ce3606eb480000000000000000000000000034ea9808e620a0ef79261c51af20614b742b240000000000000000000000000000000000000000000000000000000000000000",
                    "decodedMethod": {
                        "callParams": [
                            {
                                "name": "_wallet",
                                "type": "address",
                                "value": "0xcbcad28f67a828a1b8750d6c65248302659d01a8"
                            },
                            {
                                "name": "_token",
                                "type": "address",
                                "value": "0xa0b86991c6218b36c1d19d4a2e9eb0ce3606eb48"
                            },
                            {
                                "name": "_spender",
                                "type": "address",
                                "value": "0x0034ea9808e620a0ef79261c51af20614b742b24"
                            },
                            {
                                "name": "_amount",
                                "type": "uint256",
                                "value": "0"
                            }
                        ],
                        "constructorArguments": "",
                        "name": "approveToken",
                        "returnParams": [],
                        "signature": "approveToken(address,address,address,uint256)"
                    },
                    "errorInfo": "",
                    "fromAddress": "0x2b6d87f12b106e1d3fa7137494751566329d1045",
                    "gasUsed": 39590,
                    "id": 4,
                    "methodDecoded": true,
                    "operation": "CALL",
                    "output": "",
                    "revert": false,
                    "revertMessage": "",
                    "selector": "0x12ef080d",
                    "status": true,
                    "value": "0"
                },
                "nodeType": 0
            },
            "5": {
                "invocation": {
                    "address": "0x44da3a8051ba88eab0440db3779cab9d679ae76f",
                    "callData": "0x000000000000000000000000cbcad28f67a828a1b8750d6c65248302659d01a8",
                    "decodedMethod": {
                        "callParams": [
                            {
                                "name": "account",
                                "type": "address",
                                "value": "0xcbcad28f67a828a1b8750d6c65248302659d01a8"
                            }
                        ],
                        "constructorArguments": "",
                        "name": "isLocked",
                        "returnParams": [
                            {
                                "name": "",
                                "type": "bool",
                                "value": false
                            }
                        ],
                        "signature": "isLocked(address)"
                    },
                    "errorInfo": "",
                    "fromAddress": "0x2b6d87f12b106e1d3fa7137494751566329d1045",
                    "gasUsed": 1248,
                    "id": 5,
                    "methodDecoded": true,
                    "operation": "STATICCALL",
                    "output": "0x0000000000000000000000000000000000000000000000000000000000000000",
                    "revert": false,
                    "revertMessage": "",
                    "selector": "0x4a4fbeec",
                    "status": true,
                    "value": "0"
                },
                "nodeType": 0
            },
            "6": {
                "invocation": {
                    "address": "0x391f0e86da951c03b1183c60b195090671adea88",
                    "callData": "0x000000000000000000000000cbcad28f67a828a1b8750d6c65248302659d01a80000000000000000000000000034ea9808e620a0ef79261c51af20614b742b24",
                    "decodedMethod": {
                        "callParams": [
                            {
                                "name": "_wallet",
                                "type": "address",
                                "value": "0xcbcad28f67a828a1b8750d6c65248302659d01a8"
                            },
                            {
                                "name": "_target",
                                "type": "address",
                                "value": "0x0034ea9808e620a0ef79261c51af20614b742b24"
                            }
                        ],
                        "constructorArguments": "",
                        "name": "getWhitelist",
                        "returnParams": [
                            {
                                "name": "",
                                "type": "uint256",
                                "value": "0"
                            }
                        ],
                        "signature": "getWhitelist(address,address)"
                    },
                    "errorInfo": "",
                    "fromAddress": "0x2b6d87f12b106e1d3fa7137494751566329d1045",
                    "gasUsed": 1167,
                    "id": 6,
                    "methodDecoded": true,
                    "operation": "STATICCALL",
                    "output": "0x0000000000000000000000000000000000000000000000000000000000000000",
                    "revert": false,
                    "revertMessage": "",
                    "selector": "0x13f4a0ea",
                    "status": true,
                    "value": "0"
                },
                "nodeType": 0
            },
            "7": {
                "invocation": {
                    "address": "0xa0b86991c6218b36c1d19d4a2e9eb0ce3606eb48",
                    "callData": "0x000000000000000000000000cbcad28f67a828a1b8750d6c65248302659d01a80000000000000000000000000034ea9808e620a0ef79261c51af20614b742b24",
                    "decodedMethod": {
                        "callParams": [
                            {
                                "name": "owner",
                                "type": "address",
                                "value": "0xcbcad28f67a828a1b8750d6c65248302659d01a8"
                            },
                            {
                                "name": "spender",
                                "type": "address",
                                "value": "0x0034ea9808e620a0ef79261c51af20614b742b24"
                            }
                        ],
                        "constructorArguments": "",
                        "name": "allowance",
                        "returnParams": [
                            {
                                "decimalAvailable": true,
                                "name": "",
                                "type": "uint256",
                                "value": "1,884,614,257"
                            }
                        ],
                        "signature": "allowance(address,address)"
                    },
                    "errorInfo": "",
                    "fromAddress": "0x2b6d87f12b106e1d3fa7137494751566329d1045",
                    "gasUsed": 4645,
                    "id": 7,
                    "methodDecoded": true,
                    "operation": "STATICCALL",
                    "output": "0x000000000000000000000000000000000000000000000000000000007054ee71",
                    "revert": false,
                    "revertMessage": "",
                    "selector": "0xdd62ed3e",
                    "status": true,
                    "value": "0"
                },
                "nodeType": 0
            },
            "8": {
                "invocation": {
                    "address": "0x0882477e7895bdc5cea7cb1552ed914ab157fe56",
                    "callData": "0x000000000000000000000000cbcad28f67a828a1b8750d6c65248302659d01a80000000000000000000000000034ea9808e620a0ef79261c51af20614b742b24",
                    "decodedMethod": {
                        "callParams": [
                            {
                                "name": "owner",
                                "type": "address",
                                "value": "0xcbcad28f67a828a1b8750d6c65248302659d01a8"
                            },
                            {
                                "name": "spender",
                                "type": "address",
                                "value": "0x0034ea9808e620a0ef79261c51af20614b742b24"
                            }
                        ],
                        "constructorArguments": "",
                        "name": "allowance",
                        "returnParams": [
                            {
                                "decimalAvailable": true,
                                "name": "",
                                "type": "uint256",
                                "value": "1,884,614,257"
                            }
                        ],
                        "signature": "allowance(address,address)"
                    },
                    "errorInfo": "",
                    "fromAddress": "0xa0b86991c6218b36c1d19d4a2e9eb0ce3606eb48",
                    "gasUsed": 1856,
                    "id": 8,
                    "methodDecoded": true,
                    "operation": "DELEGATECALL",
                    "output": "0x000000000000000000000000000000000000000000000000000000007054ee71",
                    "revert": false,
                    "revertMessage": "",
                    "selector": "0xdd62ed3e",
                    "status": true,
                    "value": "0"
                },
                "nodeType": 0
            },
            "9": {
                "invocation": {
                    "address": "0xcbcad28f67a828a1b8750d6c65248302659d01a8",
                    "callData": "0x000000000000000000000000a0b86991c6218b36c1d19d4a2e9eb0ce3606eb48000000000000000000000000000000000000000000000000000000000000000000000000000000000000000000000000000000000000000000000000000000600000000000000000000000000000000000000000000000000000000000000044095ea7b30000000000000000000000000034ea9808e620a0ef79261c51af20614b742b24000000000000000000000000000000000000000000000000000000000000000000000000000000000000000000000000000000000000000000000000",
                    "decodedMethod": {
                        "callParams": [
                            {
                                "name": "_target",
                                "type": "address",
                                "value": "0xa0b86991c6218b36c1d19d4a2e9eb0ce3606eb48"
                            },
                            {
                                "name": "_value",
                                "type": "uint256",
                                "value": "0"
                            },
                            {
                                "name": "_data",
                                "type": "bytes",
                                "value": "0x095ea7b30000000000000000000000000034ea9808e620a0ef79261c51af20614b742b240000000000000000000000000000000000000000000000000000000000000000"
                            }
                        ],
                        "constructorArguments": "",
                        "name": "invoke",
                        "returnParams": [],
                        "signature": "invoke(address,uint256,bytes)"
                    },
                    "errorInfo": "",
                    "fromAddress": "0x2b6d87f12b106e1d3fa7137494751566329d1045",
                    "gasUsed": 20118,
                    "id": 9,
                    "methodDecoded": true,
                    "operation": "CALL",
                    "output": "",
                    "revert": false,
                    "revertMessage": "",
                    "selector": "0x8f6f0332",
                    "status": true,
                    "value": "0"
                },
                "nodeType": 0
            }
        },
        "gasFlame": [
            {
                "children": [
                    {
                        "children": [
                            {
                                "children": [],
                                "depth": 0,
                                "name": "Initial Gas",
                                "value": 25056
                            },
                            {
                                "children": [
                                    {
                                        "children": [],
                                        "depth": 1,
                                        "name": "ecrecover",
                                        "value": 3000
                                    },
                                    {
                                        "children": [
                                            {
                                                "children": [],
                                                "depth": 2,
                                                "name": "owner",
                                                "value": 1269
                                            }
                                        ],
                                        "depth": 1,
                                        "name": "owner",
                                        "value": 2903
                                    },
                                    {
                                        "children": [
                                            {
                                                "children": [],
                                                "depth": 2,
                                                "name": "isLocked",
                                                "value": 1248
                                            },
                                            {
                                                "children": [],
                                                "depth": 2,
                                                "name": "getWhitelist",
                                                "value": 1167
                                            },
                                            {
                                                "children": [
                                                    {
                                                        "children": [],
                                                        "depth": 3,
                                                        "name": "allowance",
                                                        "value": 1856
                                                    }
                                                ],
                                                "depth": 2,
                                                "name": "allowance",
                                                "value": 4645
                                            },
                                            {
                                                "children": [
                                                    {
                                                        "children": [
                                                            {
                                                                "children": [
                                                                    {
                                                                        "children": [],
                                                                        "depth": 5,
                                                                        "name": "approve",
                                                                        "value": 10208
                                                                    }
                                                                ],
                                                                "depth": 4,
                                                                "name": "approve",
                                                                "value": 12997
                                                            }
                                                        ],
                                                        "depth": 3,
                                                        "name": "invoke",
                                                        "value": 18451
                                                    }
                                                ],
                                                "depth": 2,
                                                "name": "invoke",
                                                "value": 20118
                                            }
                                        ],
                                        "depth": 1,
                                        "name": "approveToken",
                                        "value": 39590
                                    }
                                ],
                                "depth": 0,
                                "name": "Executed Gas",
                                "value": 61151
                            }
                        ],
                        "depth": -1,
                        "name": "Actual Gas Used",
                        "value": 71207
                    },
                    {
                        "children": [],
                        "depth": -1,
                        "name": "Refunded Gas",
                        "value": 15000
                    }
                ],
                "depth": -2,
                "name": "Total Gas",
                "value": 86207
            }
        ],
        "isConfirmed": true,
        "mainTrace": [
            {
                "children": [
                    {
                        "children": [
                            {
                                "children": [],
                                "depth": 1,
                                "id": 1,
                                "order": 1
                            },
                            {
                                "children": [
                                    {
                                        "children": [],
                                        "depth": 2,
                                        "id": 3,
                                        "order": 3
                                    }
                                ],
                                "depth": 1,
                                "id": 2,
                                "order": 2
                            },
                            {
                                "children": [
                                    {
                                        "children": [],
                                        "depth": 2,
                                        "id": 5,
                                        "order": 5
                                    },
                                    {
                                        "children": [],
                                        "depth": 2,
                                        "id": 6,
                                        "order": 6
                                    },
                                    {
                                        "children": [
                                            {
                                                "children": [],
                                                "depth": 3,
                                                "id": 8,
                                                "order": 8
                                            }
                                        ],
                                        "depth": 2,
                                        "id": 7,
                                        "order": 7
                                    },
                                    {
                                        "children": [
                                            {
                                                "children": [
                                                    {
                                                        "children": [
                                                            {
                                                                "children": [
                                                                    {
                                                                        "children": [],
                                                                        "depth": 6,
                                                                        "id": 13,
                                                                        "order": 13
                                                                    }
                                                                ],
                                                                "depth": 5,
                                                                "id": 12,
                                                                "order": 12
                                                            }
                                                        ],
                                                        "depth": 4,
                                                        "id": 11,
                                                        "order": 11
                                                    },
                                                    {
                                                        "children": [],
                                                        "depth": 4,
                                                        "id": 14,
                                                        "order": 14
                                                    }
                                                ],
                                                "depth": 3,
                                                "id": 10,
                                                "order": 10
                                            }
                                        ],
                                        "depth": 2,
                                        "id": 9,
                                        "order": 9
                                    },
                                    {
                                        "children": [],
                                        "depth": 2,
                                        "id": 15,
                                        "order": 15
                                    }
                                ],
                                "depth": 1,
                                "id": 4,
                                "order": 4
                            },
                            {
                                "children": [],
                                "depth": 1,
                                "id": 16,
                                "order": 16
                            }
                        ],
                        "depth": 0,
                        "id": 0,
                        "order": 0
                    }
                ],
                "depth": -1,
                "id": -1,
                "order": -1
            }
        ],
        "mainTraceNodeCount": 17,
        "parentIdMap": {
            "0": -1,
            "1": 0,
            "10": 9,
            "11": 10,
            "12": 11,
            "13": 12,
            "14": 10,
            "15": 4,
            "16": 0,
            "2": 0,
            "3": 2,
            "4": 0,
            "5": 4,
            "6": 4,
            "7": 4,
            "8": 7,
            "9": 4
        },
        "tidyTrace": [
            {
                "children": [
                    {
                        "children": [
                            {
                                "children": [
                                    {
                                        "children": [
                                            {
                                                "children": [
                                                    {
                                                        "children": [
                                                            {
                                                                "children": [
                                                                    {
                                                                        "children": [],
                                                                        "depth": 6,
                                                                        "id": 13,
                                                                        "order": 13
                                                                    }
                                                                ],
                                                                "depth": 5,
                                                                "id": 12,
                                                                "order": 12
                                                            }
                                                        ],
                                                        "depth": 4,
                                                        "id": 11,
                                                        "order": 11
                                                    },
                                                    {
                                                        "children": [],
                                                        "depth": 4,
                                                        "id": 14,
                                                        "order": 14
                                                    }
                                                ],
                                                "depth": 3,
                                                "id": 10,
                                                "order": 10
                                            }
                                        ],
                                        "depth": 2,
                                        "id": 9,
                                        "order": 9
                                    },
                                    {
                                        "children": [],
                                        "depth": 2,
                                        "id": 15,
                                        "order": 15
                                    }
                                ],
                                "depth": 1,
                                "id": 4,
                                "order": 4
                            },
                            {
                                "children": [],
                                "depth": 1,
                                "id": 16,
                                "order": 16
                            }
                        ],
                        "depth": 0,
                        "id": 0,
                        "order": 0
                    }
                ],
                "depth": -1,
                "id": -1,
                "order": -1
            }
        ],
        "tidyTraceNodeCount": 10
    },
    "state_change": {
        "stateChanges": [
            {
                "address": "0x2b6d87f12b106e1d3fa7137494751566329d1045",
                "erc": "",
                "slots": [
                    {
                        "current": "0x0000000000000000000000000094f16d0000000000000000000000005e7f7e72",
                        "key": "0xadd9f5993e21f4a62fb8c4d676b37d1f6a7861b1b872596efa7e9145fc6b1b5b",
                        "prev": "0x0000000000000000000000000094f16d0000000000000000000000005e7f7e6e"
                    }
                ],
                "storageVariables": [
                    {
                        "name": "relayer",
                        "type": "mapping(address => struct RelayerModule.RelayerConfig)",
                        "value": {
                            "pairs": [
                                {
                                    "key": "0xcbcad28f67a828a1b8750d6c65248302659d01a8",
                                    "value": {
                                        "fields": [
                                            {
                                                "name": "nonce",
                                                "type": "uint256",
                                                "value": {
                                                    "current": "3321541441070080826681640171964277938779553394",
                                                    "prev": "3321541441070080826681640171964277938779553390",
                                                    "typeTag": 1
                                                }
                                            }
                                        ],
                                        "typeTag": 3
                                    }
                                }
                            ],
                            "typeTag": 4
                        }
                    }
                ]
            },
            {
                "address": "0xa0b86991c6218b36c1d19d4a2e9eb0ce3606eb48",
                "erc": "ERC-20",
                "slots": [
                    {
                        "current": "0x0000000000000000000000000000000000000000000000000000000000000000",
                        "key": "0x3fdc82d8d823ec10c6c46291b8e73e535a249b8b98249b53338bbf8384a26108",
                        "prev": "0x000000000000000000000000000000000000000000000000000000007054ee71"
                    }
                ],
                "storageVariables": [
                    {
                        "name": "allowed",
                        "type": "mapping(address => mapping(address => uint256))",
                        "value": {
                            "pairs": [
                                {
                                    "key": "0xcbcad28f67a828a1b8750d6c65248302659d01a8",
                                    "value": {
                                        "pairs": [
                                            {
                                                "key": "0x0034ea9808e620a0ef79261c51af20614b742b24",
                                                "value": {
                                                    "current": "0",
                                                    "prev": "1884614257",
                                                    "typeTag": 1
                                                }
                                            }
                                        ],
                                        "typeTag": 4
                                    }
                                }
                            ],
                            "typeTag": 4
                        }
                    }
                ]
            }
        ]
    }
}