{
    "balance_change": {
        "balanceChanges": [
            {
                "account": "0x99fd1378ca799ed6772fe7bcdc9b30b389518962",
                "assets": [
                    {
                        "address": "0x2260fac5e5542a773aa44fbcfedf7c193bc2c599",
                        "amount": "89.94148956",
                        "iconUrl": "https://assets.blocksec.com/icon/878f2983cb21c5816eb5879d9b6f7a3fe2eb6fce7560c367a0315527852a8a84.png",
                        "isERC1155": false,
                        "isERC721": false,
                        "sign": false,
                        "value": "3712766.503"
                    },
                    {
                        "address": "0xccf4429db6322d5c611ee964527d42e5d685dd6a",
                        "amount": "4,484.02969346",
                        "iconUrl": "",
                        "isERC1155": false,
                        "isERC721": false,
                        "sign": true,
                        "value": "3712766.503"
                    }
                ]
            },
            {
                "account": "0xccf4429db6322d5c611ee964527d42e5d685dd6a",
                "assets": [
                    {
                        "address": "0x2260fac5e5542a773aa44fbcfedf7c193bc2c599",
                        "amount": "89.94148956",
                        "iconUrl": "https://assets.blocksec.com/icon/878f2983cb21c5816eb5879d9b6f7a3fe2eb6fce7560c367a0315527852a8a84.png",
                        "isERC1155": false,
                        "isERC721": false,
                        "sign": true,
                        "value": "3712766.503"
                    },
                    {
                        "address": "0xccf4429db6322d5c611ee964527d42e5d685dd6a",
                        "amount": "4,484.02969346",
                        "iconUrl": "",
                        "isERC1155": false,
                        "isERC721": false,
                        "sign": false,
                        "value": "3712766.503"
                    }
                ]
            }
        ]
    },
    "profile": {
        "basic_info": {
            "baseFee": "110.100589603",
            "blockNumber": 14034823,
            "callData": "0xa0712d68000000000000000000000000000000000000000000000000000000021817d25c",
            "debugEnable": true,
            "errorInfo": "",
            "eventCount": 5,
            "feeRecipient": "0x7f101fe45e6649a6fb8f3f8b43ed03d353f2b90c",
            "formatValue": "0",
            "gasLimit": 212020,
            "gasPrice": "111.100589603",
            "gasUsed": 159378,
            "intTxnCount": 13,
            "internalRevert": false,
            "internalRevertMessage": "",
            "isContractCreation": false,
            "isFlashloan": false,
            "maxFee": "225.74263084",
            "nonce": 6544,
            "overwritedBlockNumber": -1,
            "priorityFee": "1",
            "receiver": "0xccf4429db6322d5c611ee964527d42e5d685dd6a",
            "revertMessage": "",
            "sender": "0x99fd1378ca799ed6772fe7bcdc9b30b389518962",
            "simulationEnable": true,
            "sourceTxnHash": "0x0f905deee1288d7207fc7d017ba214bc83df054a407df723e1259ba748ae08a8",
            "status": true,
            "timestamp": "2022-01-19T08:13:35Z",
            "transactionFee": "0.017706989769746934",
            "txnHash": "0x0f905deee1288d7207fc7d017ba214bc83df054a407df723e1259ba748ae08a8",
            "txnIndex": 45,
            "type": 2,
            "value": "0"
        },
        "fund_flow": [
            {
                "amount": "89.94148956",
                "from": "0x99fd1378ca799ed6772fe7bcdc9b30b389518962",
                "id": 1,
                "isERC1155": false,
                "isERC721": false,
                "isReverted": false,
                "order": 1,
                "to": "0xccf4429db6322d5c611ee964527d42e5d685dd6a",
                "token": "0x2260fac5e5542a773aa44fbcfedf7c193bc2c599"
            },
            {
                "amount": "4,484.02969346",
                "from": "0xccf4429db6322d5c611ee964527d42e5d685dd6a",
                "id": 2,
                "isERC1155": false,
                "isERC721": false,
                "isReverted": false,
                "order": 2,
                "to": "0x99fd1378ca799ed6772fe7bcdc9b30b389518962",
                "token": "0xccf4429db6322d5c611ee964527d42e5d685dd6a"
            }
        ],
        "token_infos": [
            {
                "address": "0xc02aaa39b223fe8d0a0e5c4f27ead9083c756cc2",
                "decimals": 18
            },
            {
                "address": "0xccf4429db6322d5c611ee964527d42e5d685dd6a",
                "decimals": 8
            },
            {
                "address": "0xeeeeeeeeeeeeeeeeeeeeeeeeeeeeeeeeeeeeeeee",
                "decimals": 18
            },
            {
                "address": "0x2260fac5e5542a773aa44fbcfedf7c193bc2c599",
                "decimals": 8
            }
        ]
    },
    "address_label": {
        "labels": [
            {
                "address": "0x3d9819210a31b4961b30ef54be2aed79b9c9cd3b",
                "label": "Compound: Comptroller"
            },
            {
                "address": "0xa035b9e130f2b1aedc733eefb1c67ba4c503491f",
                "label": "CErc20Delegate"
            },
            {
                "address": "0x0000000000000000000000000000000000000001",
                "label": "Precompiled"
            },
            {
                "address": "0x0000000000000000000000000000000000000004",
                "label": "Precompiled"
            },
            {
                "address": "0x2260fac5e5542a773aa44fbcfedf7c193bc2c599",
                "label": "Wrapped BTC: WBTC Token"
            },
            {
                "address": "0x0000000000000000000000000000000000000002",
                "label": "Precompiled"
            },
            {
                "address": "0x0000000000000000000000000000000000000003",
                "label": "Precompiled"
            },
            {
                "address": "0xeeeeeeeeeeeeeeeeeeeeeeeeeeeeeeeeeeeeeeee",
                "label": "Ether"
            },
            {
                "address": "0xbafe01ff935c7305907c33bf824352ee5979b526",
                "label": "Comptroller"
            },
            {
                "address": "0xccf4429db6322d5c611ee964527d42e5d685dd6a",
                "label": "Compound: cWBTC2 Token"
            },
            {
                "address": "0xf2e5db36b0682f2cd6bc805c3a4236194e01f4d5",
                "label": "JumpRateModelV2"
            }
        ]
    },
    "trace": {
        "accountLabels": null,
        "dataMap": {
            "-1": {
                "invocation": {
                    "address": "0x99fd1378ca799ed6772fe7bcdc9b30b389518962",
                    "callData": "",
                    "decodedMethod": null,
                    "errorInfo": "",
                    "fromAddress": "",
                    "gasUsed": 0,
                    "id": -1,
                    "methodDecoded": false,
                    "operation": "",
                    "output": "",
                    "revert": false,
                    "revertMessage": "",
                    "selector": "",
                    "status": false,
                    "value": ""
                },
                "nodeType": 0
            },
            "0": {
                "invocation": {
                    "address": "0xccf4429db6322d5c611ee964527d42e5d685dd6a",
                    "callData": "0x000000000000000000000000000000000000000000000000000000021817d25c",
                    "decodedMethod": {
                        "callParams": [
                            {
                                "name": "mintAmount",
                                "type": "uint256",
                                "value": "8,994,148,956"
                            }
                        ],
                        "constructorArguments": "",
                        "name": "mint",
                        "returnParams": [
                            {
                                "name": "",
                                "type": "uint256",
                                "value": "0"
                            }
                        ],
                        "signature": "mint(uint256)"
                    },
                    "errorInfo": "",
                    "fromAddress": "0x99fd1378ca799ed6772fe7bcdc9b30b389518962",
                    "gasUsed": 159378,
                    "id": 0,
                    "methodDecoded": true,
                    "operation": "CALL",
                    "output": "0x0000000000000000000000000000000000000000000000000000000000000000",
                    "revert": false,
                    "revertMessage": "",
                    "selector": "0xa0712d68",
                    "status": true,
                    "value": "0"
                },
                "nodeType": 0
            },
            "1": {
                "invocation": {
                    "address": "0xa035b9e130f2b1aedc733eefb1c67ba4c503491f",
                    "callData": "0x000000000000000000000000000000000000000000000000000000021817d25c",
                    "decodedMethod": {
                        "callParams": [
                            {
                                "name": "mintAmount",
                                "type": "uint256",
                                "value": "8,994,148,956"
                            }
                        ],
                        "constructorArguments": "",
                        "name": "mint",
                        "returnParams": [
                            {
                                "name": "",
                                "type": "uint256",
                                "value": "0"
                            }
                        ],
                        "signature": "mint(uint256)"
                    },
                    "errorInfo": "",
                    "fromAddress": "0xccf4429db6322d5c611ee964527d42e5d685dd6a",
                    "gasUsed": 139888,
                    "id": 1,
                    "methodDecoded": true,
                    "operation": "DELEGATECALL",
                    "output": "0x0000000000000000000000000000000000000000000000000000000000000000",
                    "revert": false,
                    "revertMessage": "",
                    "selector": "0xa0712d68",
                    "status": true,
                    "value": "0"
                },
                "nodeType": 0
            },
            "10": {
                "invocation": {
                    "address": "0xa035b9e130f2b1aedc733eefb1c67ba4c503491f",
                    "callData": "0x00000000000000000000000099fd1378ca799ed6772fe7bcdc9b30b389518962",
                    "decodedMethod": {
                        "callParams": [
                            {
                                "name": "owner",
                                "type": "address",
                                "value": "0x99fd1378ca799ed6772fe7bcdc9b30b389518962"
                            }
                        ],
                        "constructorArguments": "",
                        "name": "balanceOf",
                        "returnParams": [
                            {
                                "decimalAvailable": true,
                                "name": "",
                                "type": "uint256",
                                "value": "31,266,466,663,198"
                            }
                        ],
                        "signature": "balanceOf(address)"
                    },
                    "errorInfo": "",
                    "fromAddress": "0xccf4429db6322d5c611ee964527d42e5d685dd6a",
                    "gasUsed": 2575,
                    "id": 10,
                    "methodDecoded": true,
                    "operation": "DELEGATECALL",
                    "output": "0x00000000000000000000000000000000000000000000000000001c6fcaa38b1e",
                    "revert": false,
                    "revertMessage": "",
                    "selector": "0x70a08231",
                    "status": true,
                    "value": "0"
                },
                "nodeType": 0
            },
            "11": {
                "event": {
                    "contract": "0x3d9819210a31b4961b30ef54be2aed79b9c9cd3b",
                    "decodedLog": {
                        "name": "DistributedSupplierComp",
                        "params": [
                            {
                                "name": "cToken",
                                "type": "address",
                                "value": "0xccf4429db6322d5c611ee964527d42e5d685dd6a"
                            },
                            {
                                "name": "supplier",
                                "type": "address",
                                "value": "0x99fd1378ca799ed6772fe7bcdc9b30b389518962"
                            },
                            {
                                "name": "compDelta",
                                "type": "uint256",
                                "value": "3,771,863,097,055,749,092"
                            },
                            {
                                "name": "compSupplyIndex",
                                "type": "uint256",
                                "value": "551,146,154,051,107,041,488,911,553,830,511,422,043,006,945,512"
                            }
                        ],
                        "signature": "DistributedSupplierComp(address,address,uint256,uint256)"
                    },
                    "id": 11,
                    "logData": "0x00000000000000000000000000000000000000000000000034585980a969a3e4000000000000000000000000608a3f906948c038daa6342e570da9268093c8e8",
                    "logDecoded": true,
                    "operation": "EVENT",
                    "revert": false,
                    "status": true,
                    "topics": [
                        "0x2caecd17d02f56fa897705dcc740da2d237c373f70686f4e0d9bd3bf0400ea7a",
                        "0x000000000000000000000000ccf4429db6322d5c611ee964527d42e5d685dd6a",
                        "0x00000000000000000000000099fd1378ca799ed6772fe7bcdc9b30b389518962"
                    ]
                },
                "nodeType": 1
            },
            "12": {
                "invocation": {
                    "address": "0x2260fac5e5542a773aa44fbcfedf7c193bc2c599",
                    "callData": "0x000000000000000000000000ccf4429db6322d5c611ee964527d42e5d685dd6a",
                    "decodedMethod": {
                        "callParams": [
                            {
                                "name": "_owner",
                                "type": "address",
                                "value": "0xccf4429db6322d5c611ee964527d42e5d685dd6a"
                            }
                        ],
                        "constructorArguments": "",
                        "name": "balanceOf",
                        "returnParams": [
                            {
                                "decimalAvailable": true,
                                "name": "",
                                "type": "uint256",
                                "value": "3,485,250,796,369"
                            }
                        ],
                        "signature": "balanceOf(address)"
                    },
                    "errorInfo": "",
                    "fromAddress": "0xccf4429db6322d5c611ee964527d42e5d685dd6a",
                    "gasUsed": 795,
                    "id": 12,
                    "methodDecoded": true,
                    "operation": "STATICCALL",
                    "output": "0x0000000000000000000000000000000000000000000000000000032b7922bb51",
                    "revert": false,
                    "revertMessage": "",
                    "selector": "0x70a08231",
                    "status": true,
                    "value": "0"
                },
                "nodeType": 0
            },
            "13": {
                "invocation": {
                    "address": "0x2260fac5e5542a773aa44fbcfedf7c193bc2c599",
                    "callData": "0x000000000000000000000000ccf4429db6322d5c611ee964527d42e5d685dd6a",
                    "decodedMethod": {
                        "callParams": [
                            {
                                "name": "_owner",
                                "type": "address",
                                "value": "0xccf4429db6322d5c611ee964527d42e5d685dd6a"
                            }
                        ],
                        "constructorArguments": "",
                        "name": "balanceOf",
                        "returnParams": [
                            {
                                "decimalAvailable": true,
                                "name": "",
                                "type": "uint256",
                                "value": "3,485,250,796,369"
                            }
                        ],
                        "signature": "balanceOf(address)"
                    },
                    "errorInfo": "",
                    "fromAddress": "0xccf4429db6322d5c611ee964527d42e5d685dd6a",
                    "gasUsed": 795,
                    "id": 13,
                    "methodDecoded": true,
                    "operation": "STATICCALL",
                    "output": "0x0000000000000000000000000000000000000000000000000000032b7922bb51",
                    "revert": false,
                    "revertMessage": "",
                    "selector": "0x70a08231",
                    "status": true,
                    "value": "0"
                },
                "nodeType": 0
            },
            "14": {
                "invocation": {
                    "address": "0x2260fac5e5542a773aa44fbcfedf7c193bc2c599",
                    "callData": "0x00000000000000000000000099fd1378ca799ed6772fe7bcdc9b30b389518962000000000000000000000000ccf4429db6322d5c611ee964527d42e5d685dd6a000000000000000000000000000000000000000000000000000000021817d25c",
                    "decodedMethod": {
                        "callParams": [
                            {
                                "name": "_from",
                                "type": "address",
                                "value": "0x99fd1378ca799ed6772fe7bcdc9b30b389518962"
                            },
                            {
                                "name": "_to",
                                "type": "address",
                                "value": "0xccf4429db6322d5c611ee964527d42e5d685dd6a"
                            },
                            {
                                "decimalAvailable": true,
                                "name": "_value",
                                "type": "uint256",
                                "value": "8,994,148,956"
                            }
                        ],
                        "constructorArguments": "",
                        "name": "transferFrom",
                        "returnParams": [
                            {
                                "name": "",
                                "type": "bool",
                                "value": true
                            }
                        ],
                        "signature": "transferFrom(address,address,uint256)"
                    },
                    "errorInfo": "",
                    "fromAddress": "0xccf4429db6322d5c611ee964527d42e5d685dd6a",
                    "gasUsed": 19370,
                    "id": 14,
                    "methodDecoded": true,
                    "operation": "CALL",
                    "output": "0x0000000000000000000000000000000000000000000000000000000000000001",
                    "revert": false,
                    "revertMessage": "",
                    "selector": "0x23b872dd",
                    "status": true,
                    "value": "0"
                },
                "nodeType": 0
            },
            "15": {
                "event": {
                    "contract": "0x2260fac5e5542a773aa44fbcfedf7c193bc2c599",
                    "decodedLog": {
                        "name": "Transfer",
                        "params": [
                            {
                                "name": "from",
                                "type": "address",
                                "value": "0x99fd1378ca799ed6772fe7bcdc9b30b389518962"
                            },
                            {
                                "name": "to",
                                "type": "address",
                                "value": "0xccf4429db6322d5c611ee964527d42e5d685dd6a"
                            },
                            {
                                "decimalAvailable": true,
                                "name": "value",
                                "type": "uint256",
                                "value": "8,994,148,956"
                            }
                        ],
                        "signature": "Transfer(address,address,uint256)"
                    },
                    "id": 15,
                    "logData": "0x000000000000000000000000000000000000000000000000000000021817d25c",
                    "logDecoded": true,
                    "operation": "EVENT",
                    "revert": false,
                    "status": true,
                    "topics": [
                        "0xddf252ad1be2c89b69c2b068fc378daa952ba7f163c4a11628f55a4df523b3ef",
                        "0x00000000000000000000000099fd1378ca799ed6772fe7bcdc9b30b389518962",
                        "0x000000000000000000000000ccf4429db6322d5c611ee964527d42e5d685dd6a"
                    ]
                },
                "nodeType": 1
            },
            "16": {
                "invocation": {
                    "address": "0x2260fac5e5542a773aa44fbcfedf7c193bc2c599",
                    "callData": "0x000000000000000000000000ccf4429db6322d5c611ee964527d42e5d685dd6a",
                    "decodedMethod": {
                        "callParams": [
                            {
                                "name": "_owner",
                                "type": "address",
                                "value": "0xccf4429db6322d5c611ee964527d42e5d685dd6a"
                            }
                        ],
                        "constructorArguments": "",
                        "name": "balanceOf",
                        "returnParams": [
                            {
                                "decimalAvailable": true,
                                "name": "",
                                "type": "uint256",
                                "value": "3,494,244,945,325"
                            }
                        ],
                        "signature": "balanceOf(address)"
                    },
                    "errorInfo": "",
                    "fromAddress": "0xccf4429db6322d5c611ee964527d42e5d685dd6a",
                    "gasUsed": 795,
                    "id": 16,
                    "methodDecoded": true,
                    "operation": "STATICCALL",
                    "output": "0x0000000000000000000000000000000000000000000000000000032d913a8dad",
                    "revert": false,
                    "revertMessage": "",
                    "selector": "0x70a08231",
                    "status": true,
                    "value": "0"
                },
                "nodeType": 0
            },
            "17": {
                "event": {
                    "contract": "0xccf4429db6322d5c611ee964527d42e5d685dd6a",
                    "decodedLog": {
                        "name": "Mint",
                        "params": [
                            {
                                "name": "minter",
                                "type": "address",
                                "value": "0x99fd1378ca799ed6772fe7bcdc9b30b389518962"
                            },
                            {
                                "name": "mintAmount",
                                "type": "uint256",
                                "value": "8,994,148,956"
                            },
                            {
                                "name": "mintTokens",
                                "type": "uint256",
                                "value": "448,402,969,346"
                            }
                        ],
                        "signature": "Mint(address,uint256,uint256)"
                    },
                    "id": 17,
                    "logData": "0x00000000000000000000000099fd1378ca799ed6772fe7bcdc9b30b389518962000000000000000000000000000000000000000000000000000000021817d25c0000000000000000000000000000000000000000000000000000006866e65302",
                    "logDecoded": true,
                    "operation": "EVENT",
                    "revert": false,
                    "status": true,
                    "topics": [
                        "0x4c209b5fc8ad50758f13e2e1088ba56a560dff690a1c6fef26394f4c03821c4f"
                    ]
                },
                "nodeType": 1
            },
            "18": {
                "event": {
                    "contract": "0xccf4429db6322d5c611ee964527d42e5d685dd6a",
                    "decodedLog": {
                        "name": "Transfer",
                        "params": [
                            {
                                "name": "from",
                                "type": "address",
                                "value": "0xccf4429db6322d5c611ee964527d42e5d685dd6a"
                            },
                            {
                                "name": "to",
                                "type": "address",
                                "value": "0x99fd1378ca799ed6772fe7bcdc9b30b389518962"
                            },
                            {
                                "decimalAvailable": true,
                                "name": "amount",
                                "type": "uint256",
                                "value": "448,402,969,346"
                            }
                        ],
                        "signature": "Transfer(address,address,uint256)"
                    },
                    "id": 18,
                    "logData": "0x0000000000000000000000000000000000000000000000000000006866e65302",
                    "logDecoded": true,
                    "operation": "EVENT",
                    "revert": false,
                    "status": true,
                    "topics": [
                        "0xddf252ad1be2c89b69c2b068fc378daa952ba7f163c4a11628f55a4df523b3ef",
                        "0x000000000000000000000000ccf4429db6322d5c611ee964527d42e5d685dd6a",
                        "0x00000000000000000000000099fd1378ca799ed6772fe7bcdc9b30b389518962"
                    ]
                },
                "nodeType": 1
            },
            "2": {
                "invocation": {
                    "address": "0x2260fac5e5542a773aa44fbcfedf7c193bc2c599",
                    "callData": "0x000000000000000000000000ccf4429db6322d5c611ee964527d42e5d685dd6a",
                    "decodedMethod": {
                        "callParams": [
                            {
                                "name": "_owner",
                                "type": "address",
                                "value": "0xccf4429db6322d5c611ee964527d42e5d685dd6a"
                            }
                        ],
                        "constructorArguments": "",
                        "name": "balanceOf",
                        "returnParams": [
                            {
                                "decimalAvailable": true,
                                "name": "",
                                "type": "uint256",
                                "value": "3,485,250,796,369"
                            }
                        ],
                        "signature": "balanceOf(address)"
                    },
                    "errorInfo": "",
                    "fromAddress": "0xccf4429db6322d5c611ee964527d42e5d685dd6a",
                    "gasUsed": 2795,
                    "id": 2,
                    "methodDecoded": true,
                    "operation": "STATICCALL",
                    "output": "0x0000000000000000000000000000000000000000000000000000032b7922bb51",
                    "revert": false,
                    "revertMessage": "",
                    "selector": "0x70a08231",
                    "status": true,
                    "value": "0"
                },
                "nodeType": 0
            },
            "3": {
                "invocation": {
                    "address": "0xf2e5db36b0682f2cd6bc805c3a4236194e01f4d5",
                    "callData": "0x0000000000000000000000000000000000000000000000000000032b7922bb5100000000000000000000000000000000000000000000000000000038b00fc21f00000000000000000000000000000000000000000000000000000000dea0f882",
                    "decodedMethod": {
                        "callParams": [
                            {
                                "name": "cash",
                                "type": "uint256",
                                "value": "3,485,250,796,369"
                            },
                            {
                                "name": "borrows",
                                "type": "uint256",
                                "value": "243,471,991,327"
                            },
                            {
                                "name": "reserves",
                                "type": "uint256",
                                "value": "3,735,091,330"
                            }
                        ],
                        "constructorArguments": "",
                        "name": "getBorrowRate",
                        "returnParams": [
                            {
                                "name": "",
                                "type": "uint256",
                                "value": "16,507,995,846"
                            }
                        ],
                        "signature": "getBorrowRate(uint256,uint256,uint256)"
                    },
                    "errorInfo": "",
                    "fromAddress": "0xccf4429db6322d5c611ee964527d42e5d685dd6a",
                    "gasUsed": 7816,
                    "id": 3,
                    "methodDecoded": true,
                    "operation": "STATICCALL",
                    "output": "0x00000000000000000000000000000000000000000000000000000003d7f406c6",
                    "revert": false,
                    "revertMessage": "",
                    "selector": "0x15f24053",
                    "status": true,
                    "value": "0"
                },
                "nodeType": 0
            },
            "4": {
                "event": {
                    "contract": "0xccf4429db6322d5c611ee964527d42e5d685dd6a",
                    "decodedLog": {
                        "name": "AccrueInterest",
                        "params": [
                            {
                                "name": "cashPrior",
                                "type": "uint256",
                                "value": "3,485,250,796,369"
                            },
                            {
                                "name": "interestAccumulated",
                                "type": "uint256",
                                "value": "4,606,042"
                            },
                            {
                                "name": "borrowIndex",
                                "type": "uint256",
                                "value": "1,039,064,306,835,989,255"
                            },
                            {
                                "name": "totalBorrows",
                                "type": "uint256",
                                "value": "243,476,597,369"
                            }
                        ],
                        "signature": "AccrueInterest(uint256,uint256,uint256,uint256)"
                    },
                    "id": 4,
                    "logData": "0x0000000000000000000000000000000000000000000000000000032b7922bb51000000000000000000000000000000000000000000000000000000000046485a0000000000000000000000000000000000000000000000000e6b7f7b5bbf230700000000000000000000000000000000000000000000000000000038b0560a79",
                    "logDecoded": true,
                    "operation": "EVENT",
                    "revert": false,
                    "status": true,
                    "topics": [
                        "0x4dec04e750ca11537cabcd8a9eab06494de08da3735bc8871cd41250e190bc04"
                    ]
                },
                "nodeType": 1
            },
            "5": {
                "invocation": {
                    "address": "0x3d9819210a31b4961b30ef54be2aed79b9c9cd3b",
                    "callData": "0x000000000000000000000000ccf4429db6322d5c611ee964527d42e5d685dd6a00000000000000000000000099fd1378ca799ed6772fe7bcdc9b30b389518962000000000000000000000000000000000000000000000000000000021817d25c",
                    "decodedMethod": {
                        "callParams": [
                            {
                                "name": "cToken",
                                "type": "address",
                                "value": "0xccf4429db6322d5c611ee964527d42e5d685dd6a"
                            },
                            {
                                "name": "minter",
                                "type": "address",
                                "value": "0x99fd1378ca799ed6772fe7bcdc9b30b389518962"
                            },
                            {
                                "name": "mintAmount",
                                "type": "uint256",
                                "value": "8,994,148,956"
                            }
                        ],
                        "constructorArguments": "",
                        "name": "mintAllowed",
                        "returnParams": [
                            {
                                "name": "",
                                "type": "uint256",
                                "value": "0"
                            }
                        ],
                        "signature": "mintAllowed(address,address,uint256)"
                    },
                    "errorInfo": "",
                    "fromAddress": "0xccf4429db6322d5c611ee964527d42e5d685dd6a",
                    "gasUsed": 43089,
                    "id": 5,
                    "methodDecoded": true,
                    "operation": "CALL",
                    "output": "0x0000000000000000000000000000000000000000000000000000000000000000",
                    "revert": false,
                    "revertMessage": "",
                    "selector": "0x4ef4c3e1",
                    "status": true,
                    "value": "0"
                },
                "nodeType": 0
            },
            "6": {
                "invocation": {
                    "address": "0xbafe01ff935c7305907c33bf824352ee5979b526",
                    "callData": "0x000000000000000000000000ccf4429db6322d5c611ee964527d42e5d685dd6a00000000000000000000000099fd1378ca799ed6772fe7bcdc9b30b389518962000000000000000000000000000000000000000000000000000000021817d25c",
                    "decodedMethod": {
                        "callParams": [
                            {
                                "name": "cToken",
                                "type": "address",
                                "value": "0xccf4429db6322d5c611ee964527d42e5d685dd6a"
                            },
                            {
                                "name": "minter",
                                "type": "address",
                                "value": "0x99fd1378ca799ed6772fe7bcdc9b30b389518962"
                            },
                            {
                                "name": "mintAmount",
                                "type": "uint256",
                                "value": "8,994,148,956"
                            }
                        ],
                        "constructorArguments": "",
                        "name": "mintAllowed",
                        "returnParams": [
                            {
                                "name": "",
                                "type": "uint256",
                                "value": "0"
                            }
                        ],
                        "signature": "mintAllowed(address,address,uint256)"
                    },
                    "errorInfo": "",
                    "fromAddress": "0x3d9819210a31b4961b30ef54be2aed79b9c9cd3b",
                    "gasUsed": 37909,
                    "id": 6,
                    "methodDecoded": true,
                    "operation": "DELEGATECALL",
                    "output": "0x0000000000000000000000000000000000000000000000000000000000000000",
                    "revert": false,
                    "revertMessage": "",
                    "selector": "0x4ef4c3e1",
                    "status": true,
                    "value": "0"
                },
                "nodeType": 0
            },
            "7": {
                "invocation": {
                    "address": "0xccf4429db6322d5c611ee964527d42e5d685dd6a",
                    "callData": "0x",
                    "decodedMethod": {
                        "callParams": [],
                        "constructorArguments": "",
                        "name": "totalSupply",
                        "returnParams": [
                            {
                                "name": "",
                                "type": "uint256",
                                "value": "185,709,309,940,598"
                            }
                        ],
                        "signature": "totalSupply()"
                    },
                    "errorInfo": "",
                    "fromAddress": "0x3d9819210a31b4961b30ef54be2aed79b9c9cd3b",
                    "gasUsed": 2344,
                    "id": 7,
                    "methodDecoded": true,
                    "operation": "STATICCALL",
                    "output": "0x0000000000000000000000000000000000000000000000000000a8e6d1735376",
                    "revert": false,
                    "revertMessage": "",
                    "selector": "0x18160ddd",
                    "status": true,
                    "value": "0"
                },
                "nodeType": 0
            },
            "8": {
                "invocation": {
                    "address": "0xccf4429db6322d5c611ee964527d42e5d685dd6a",
                    "callData": "0x00000000000000000000000099fd1378ca799ed6772fe7bcdc9b30b389518962",
                    "decodedMethod": {
                        "callParams": [
                            {
                                "name": "owner",
                                "type": "address",
                                "value": "0x99fd1378ca799ed6772fe7bcdc9b30b389518962"
                            }
                        ],
                        "constructorArguments": "",
                        "name": "balanceOf",
                        "returnParams": [
                            {
                                "decimalAvailable": true,
                                "name": "",
                                "type": "uint256",
                                "value": "31,266,466,663,198"
                            }
                        ],
                        "signature": "balanceOf(address)"
                    },
                    "errorInfo": "",
                    "fromAddress": "0x3d9819210a31b4961b30ef54be2aed79b9c9cd3b",
                    "gasUsed": 6661,
                    "id": 8,
                    "methodDecoded": true,
                    "operation": "STATICCALL",
                    "output": "0x00000000000000000000000000000000000000000000000000001c6fcaa38b1e",
                    "revert": false,
                    "revertMessage": "",
                    "selector": "0x70a08231",
                    "status": true,
                    "value": "0"
                },
                "nodeType": 0
            },
            "9": {
                "invocation": {
                    "address": "0xccf4429db6322d5c611ee964527d42e5d685dd6a",
                    "callData": "0x0000000000000000000000000000000000000000000000000000000000000020000000000000000000000000000000000000000000000000000000000000002470a0823100000000000000000000000099fd1378ca799ed6772fe7bcdc9b30b38951896200000000000000000000000000000000000000000000000000000000",
                    "decodedMethod": {
                        "callParams": [
                            {
                                "name": "data",
                                "type": "bytes",
                                "value": "0x70a0823100000000000000000000000099fd1378ca799ed6772fe7bcdc9b30b389518962"
                            }
                        ],
                        "constructorArguments": "",
                        "name": "delegateToImplementation",
                        "returnParams": [
                            {
                                "name": "",
                                "type": "bytes",
                                "value": "0x00000000000000000000000000000000000000000000000000001c6fcaa38b1e"
                            }
                        ],
                        "signature": "delegateToImplementation(bytes)"
                    },
                    "errorInfo": "",
                    "fromAddress": "0xccf4429db6322d5c611ee964527d42e5d685dd6a",
                    "gasUsed": 4232,
                    "id": 9,
                    "methodDecoded": true,
                    "operation": "STATICCALL",
                    "output": "0x0000000000000000000000000000000000000000000000000000000000000020000000000000000000000000000000000000000000000000000000000000002000000000000000000000000000000000000000000000000000001c6fcaa38b1e",
                    "revert": false,
                    "revertMessage": "",
                    "selector": "0x0933c1ed",
                    "status": true,
                    "value": "0"
                },
                "nodeType": 0
            }
        },
        "gasFlame": [
            {
                "children": [
                    {
                        "children": [
                            {
                                "children": [],
                                "depth": 0,
                                "name": "Initial Gas",
                                "value": 21252
                            },
                            {
                                "children": [
                                    {
                                        "children": [
                                            {
                                                "children": [],
                                                "depth": 2,
                                                "name": "balanceOf",
                                                "value": 2795
                                            },
                                            {
                                                "children": [],
                                                "depth": 2,
                                                "name": "getBorrowRate",
                                                "value": 7816
                                            },
                                            {
                                                "children": [
                                                    {
                                                        "children": [
                                                            {
                                                                "children": [],
                                                                "depth": 4,
                                                                "name": "totalSupply",
                                                                "value": 2344
                                                            },
                                                            {
                                                                "children": [
                                                                    {
                                                                        "children": [
                                                                            {
                                                                                "children": [],
                                                                                "depth": 6,
                                                                                "name": "balanceOf",
                                                                                "value": 2575
                                                                            }
                                                                        ],
                                                                        "depth": 5,
                                                                        "name": "delegateToImplementation",
                                                                        "value": 4232
                                                                    }
                                                                ],
                                                                "depth": 4,
                                                                "name": "balanceOf",
                                                                "value": 6661
                                                            }
                                                        ],
                                                        "depth": 3,
                                                        "name": "mintAllowed",
                                                        "value": 37909
                                                    }
                                                ],
                                                "depth": 2,
                                                "name": "mintAllowed",
                                                "value": 43089
                                            },
                                            {
                                                "children": [],
                                                "depth": 2,
                                                "name": "balanceOf",
                                                "value": 795
                                            },
                                            {
                                                "children": [],
                                                "depth": 2,
                                                "name": "balanceOf",
                                                "value": 795
                                            },
                                            {
                                                "children": [],
                                                "depth": 2,
                                                "name": "transferFrom",
                                                "value": 19370
                                            },
                                            {
                                                "children": [],
                                                "depth": 2,
                                                "name": "balanceOf",
                                                "value": 795
                                            }
                                        ],
                                        "depth": 1,
                                        "name": "mint",
                                        "value": 139888
                                    }
                                ],
                                "depth": 0,
                                "name": "Executed Gas",
                                "value": 145726
                            }
                        ],
                        "depth": -1,
                        "name": "Actual Gas Used",
                        "value": 159378
                    },
                    {
                        "children": [],
                        "depth": -1,
                        "name": "Refunded Gas",
                        "value": 7600
                    }
                ],
                "depth": -2,
                "name": "Total Gas",
                "value": 166978
            }
        ],
        "isConfirmed": true,
        "mainTrace": [
            {
                "children": [
                    {
                        "children": [
                            {
                                "children": [
                                    {
                                        "children": [],
                                        "depth": 2,
                                        "id": 2,
                                        "order": 2
                                    },
                                    {
                                        "children": [],
                                        "depth": 2,
                                        "id": 3,
                                        "order": 3
                                    },
                                    {
                                        "children": [],
                                        "depth": 2,
                                        "id": 4,
                                        "order": 4
                                    },
                                    {
                                        "children": [
                                            {
                                                "children": [
                                                    {
                                                        "children": [],
                                                        "depth": 4,
                                                        "id": 7,
                                                        "order": 7
                                                    },
                                                    {
                                                        "children": [
                                                            {
                                                                "children": [
                                                                    {
                                                                        "children": [],
                                                                        "depth": 6,
                                                                        "id": 10,
                                                                        "order": 10
                                                                    }
                                                                ],
                                                                "depth": 5,
                                                                "id": 9,
                                                                "order": 9
                                                            }
                                                        ],
                                                        "depth": 4,
                                                        "id": 8,
                                                        "order": 8
                                                    },
                                                    {
                                                        "children": [],
                                                        "depth": 4,
                                                        "id": 11,
                                                        "order": 11
                                                    }
                                                ],
                                                "depth": 3,
                                                "id": 6,
                                                "order": 6
                                            }
                                        ],
                                        "depth": 2,
                                        "id": 5,
                                        "order": 5
                                    },
                                    {
                                        "children": [],
                                        "depth": 2,
                                        "id": 12,
                                        "order": 12
                                    },
                                    {
                                        "children": [],
                                        "depth": 2,
                                        "id": 13,
                                        "order": 13
                                    },
                                    {
                                        "children": [
                                            {
                                                "children": [],
                                                "depth": 3,
                                                "id": 15,
                                                "order": 15
                                            }
                                        ],
                                        "depth": 2,
                                        "id": 14,
                                        "order": 14
                                    },
                                    {
                                        "children": [],
                                        "depth": 2,
                                        "id": 16,
                                        "order": 16
                                    },
                                    {
                                        "children": [],
                                        "depth": 2,
                                        "id": 17,
                                        "order": 17
                                    },
                                    {
                                        "children": [],
                                        "depth": 2,
                                        "id": 18,
                                        "order": 18
                                    }
                                ],
                                "depth": 1,
                                "id": 1,
                                "order": 1
                            }
                        ],
                        "depth": 0,
                        "id": 0,
                        "order": 0
                    }
                ],
                "depth": -1,
                "id": -1,
                "order": -1
            }
        ],
        "mainTraceNodeCount": 19,
        "parentIdMap": {
            "0": -1,
            "1": 0,
            "10": 9,
            "11": 6,
            "12": 1,
            "13": 1,
            "14": 1,
            "15": 14,
            "16": 1,
            "17": 1,
            "18": 1,
            "2": 1,
            "3": 1,
            "4": 1,
            "5": 1,
            "6": 5,
            "7": 6,
            "8": 6,
            "9": 8
        },
        "tidyTrace": [
            {
                "children": [
                    {
                        "children": [
                            {
                                "children": [
                                    {
                                        "children": [],
                                        "depth": 2,
                                        "id": 4,
                                        "order": 4
                                    },
                                    {
                                        "children": [
                                            {
                                                "children": [
                                                    {
                                                        "children": [],
                                                        "depth": 4,
                                                        "id": 11,
                                                        "order": 11
                                                    }
                                                ],
                                                "depth": 3,
                                                "id": 6,
                                                "order": 6
                                            }
                                        ],
                                        "depth": 2,
                                        "id": 5,
                                        "order": 5
                                    },
                                    {
                                        "children": [
                                            {
                                                "children": [],
                                                "depth": 3,
                                                "id": 15,
                                                "order": 15
                                            }
                                        ],
                                        "depth": 2,
                                        "id": 14,
                                        "order": 14
                                    },
                                    {
                                        "children": [],
                                        "depth": 2,
                                        "id": 17,
                                        "order": 17
                                    },
                                    {
                                        "children": [],
                                        "depth": 2,
                                        "id": 18,
                                        "order": 18
                                    }
                                ],
                                "depth": 1,
                                "id": 1,
                                "order": 1
                            }
                        ],
                        "depth": 0,
                        "id": 0,
                        "order": 0
                    }
                ],
                "depth": -1,
                "id": -1,
                "order": -1
            }
        ],
        "tidyTraceNodeCount": 10
    },
    "state_change": {
        "stateChanges": [
            {
                "address": "0x2260fac5e5542a773aa44fbcfedf7c193bc2c599",
                "erc": "ERC-20",
                "slots": [
                    {
                        "current": "0x0000000000000000000000000000000000000000000000000000032d913a8dad",
                        "key": "0x0d9e11e5efe00c192fc92297e90c80034ab206fa8d19bbc35f8fcdfd5aeb1f28",
                        "prev": "0x0000000000000000000000000000000000000000000000000000032b7922bb51"
                    },
                    {
                        "current": "0xfffffffffffffffffffffffffffffffffffffffffffffffffffffe701180d723",
                        "key": "0x96d2fe8db3e3e84ec0f8807422a6aad0ae7209ee89fb5d853399491da40f0bf8",
                        "prev": "0xfffffffffffffffffffffffffffffffffffffffffffffffffffffe722998a97f"
                    },
                    {
                        "current": "0x0000000000000000000000000000000000000000000000000000000000000000",
                        "key": "0xc04ae6f556cd2885b5210bf53a582bda3df8663ef057fd30c62c61b19b6a1022",
                        "prev": "0x000000000000000000000000000000000000000000000000000000021817d25c"
                    }
                ],
                "storageVariables": [
                    {
                        "name": "balances",
                        "type": "mapping(address => uint256)",
                        "value": {
                            "pairs": [
                                {
                                    "key": "0x99fd1378ca799ed6772fe7bcdc9b30b389518962",
                                    "value": {
                                        "current": "0",
                                        "prev": "8994148956",
                                        "typeTag": 1
                                    }
                                },
                                {
                                    "key": "0xccf4429db6322d5c611ee964527d42e5d685dd6a",
                                    "value": {
                                        "current": "3494244945325",
                                        "prev": "3485250796369",
                                        "typeTag": 1
                                    }
                                }
                            ],
                            "typeTag": 4
                        }
                    },
                    {
                        "name": "allowed",
                        "type": "mapping(address => mapping(address => uint256))",
                        "value": {
                            "pairs": [
                                {
                                    "key": "0x99fd1378ca799ed6772fe7bcdc9b30b389518962",
                                    "value": {
                                        "pairs": [
                                            {
                                                "key": "0xccf4429db6322d5c611ee964527d42e5d685dd6a",
                                                "value": {
                                                    "current": "115792089237316195423570985008687907853269984665640564039457584006195436377891",
                                                    "prev": "115792089237316195423570985008687907853269984665640564039457584006204430526847",
                                                    "typeTag": 1
                                                }
                                            }
                                        ],
                                        "typeTag": 4
                                    }
                                }
                            ],
                            "typeTag": 4
                        }
                    }
                ]
            },
            {
                "address": "0x3d9819210a31b4961b30ef54be2aed79b9c9cd3b",
                "erc": "",
                "slots": [
                    {
                        "current": "0x00d627870000000000000000608a3f906948c038daa6342e570da9268093c8e8",
                        "key": "0x3517bb4ae96d058daa093a71536dfcee22553450951bd7b9bf537bd009f559a0",
                        "prev": "0x00d624440000000000000000608a3f025e1c366f70b4ad290b76059e512bfcd5"
                    },
                    {
                        "current": "0x000000000000000000000000608a3f906948c038daa6342e570da9268093c8e8",
                        "key": "0x8b0a42f6f7c7bdeb1515ccfbcecf5be4df5c6b8dabe25b59c6a637edbadba111",
                        "prev": "0x000000000000000000000000608a3e2de4ce4425e4839bdef8df1d6c67f8e87a"
                    },
                    {
                        "current": "0x0000000000000000000000000000000000000000000000096e0c8afedbe64291",
                        "key": "0x9831da6f1dc817e22c8924c948c807e9e5854822f8ff1184d7fcc7acb06b9ab6",
                        "prev": "0x00000000000000000000000000000000000000000000000939b4317e327c9ead"
                    }
                ],
                "storageVariables": [
                    {
                        "name": "compSupplyState",
                        "type": "mapping(address => struct ComptrollerV3Storage.CompMarketState)",
                        "value": {
                            "pairs": [
                                {
                                    "key": "0xccf4429db6322d5c611ee964527d42e5d685dd6a",
                                    "value": {
                                        "fields": [
                                            {
                                                "name": "index",
                                                "type": "uint224",
                                                "value": {
                                                    "current": "551146154051107041488911553830511422043006945512",
                                                    "prev": "551146105716158175052475854596815742457099320533",
                                                    "typeTag": 1
                                                }
                                            },
                                            {
                                                "name": "block",
                                                "type": "uint32",
                                                "value": {
                                                    "current": "14034823",
                                                    "prev": "14033988",
                                                    "typeTag": 1
                                                }
                                            }
                                        ],
                                        "typeTag": 3
                                    }
                                }
                            ],
                            "typeTag": 4
                        }
                    },
                    {
                        "name": "compSupplierIndex",
                        "type": "mapping(address => mapping(address => uint256))",
                        "value": {
                            "pairs": [
                                {
                                    "key": "0xccf4429db6322d5c611ee964527d42e5d685dd6a",
                                    "value": {
                                        "pairs": [
                                            {
                                                "key": "0x99fd1378ca799ed6772fe7bcdc9b30b389518962",
                                                "value": {
                                                    "current": "551146154051107041488911553830511422043006945512",
                                                    "prev": "551146033415055079295272430380324014917689075834",
                                                    "typeTag": 1
                                                }
                                            }
                                        ],
                                        "typeTag": 4
                                    }
                                }
                            ],
                            "typeTag": 4
                        }
                    },
                    {
                        "name": "compAccrued",
                        "type": "mapping(address => uint256)",
                        "value": {
                            "pairs": [
                                {
                                    "key": "0x99fd1378ca799ed6772fe7bcdc9b30b389518962",
                                    "value": {
                                        "current": "173950562534494192273",
                                        "prev": "170178699437438443181",
                                        "typeTag": 1
                                    }
                                }
                            ],
                            "typeTag": 4
                        }
                    }
                ]
            },
            {
                "address": "0xccf4429db6322d5c611ee964527d42e5d685dd6a",
                "erc": "ERC-20",
                "slots": [
                    {
                        "current": "0x0000000000000000000000000000000000000000000000000000000000d62787",
                        "key": "0x0000000000000000000000000000000000000000000000000000000000000009",
                        "prev": "0x0000000000000000000000000000000000000000000000000000000000d6230d"
                    },
                    {
                        "current": "0x0000000000000000000000000000000000000000000000000e6b7f7b5bbf2307",
                        "key": "0x000000000000000000000000000000000000000000000000000000000000000a",
                        "prev": "0x0000000000000000000000000000000000000000000000000e6b6d9aa6318a7d"
                    },
                    {
                        "current": "0x00000000000000000000000000000000000000000000000000000038b0560a79",
                        "key": "0x000000000000000000000000000000000000000000000000000000000000000b",
                        "prev": "0x00000000000000000000000000000000000000000000000000000038b00fc21f"
                    },
                    {
                        "current": "0x00000000000000000000000000000000000000000000000000000000deaf06fa",
                        "key": "0x000000000000000000000000000000000000000000000000000000000000000c",
                        "prev": "0x00000000000000000000000000000000000000000000000000000000dea0f882"
                    },
                    {
                        "current": "0x0000000000000000000000000000000000000000000000000000a94f3859a678",
                        "key": "0x000000000000000000000000000000000000000000000000000000000000000d",
                        "prev": "0x0000000000000000000000000000000000000000000000000000a8e6d1735376"
                    },
                    {
                        "current": "0x00000000000000000000000000000000000000000000000000001cd83189de20",
                        "key": "0xa2549e87e19db50164344197a83ab8674f0bdd538db6c4591870f0db2fbbab4a",
                        "prev": "0x00000000000000000000000000000000000000000000000000001c6fcaa38b1e"
                    }
                ],
                "storageVariables": [
                    {
                        "name": "accountTokens",
                        "type": "mapping(address => uint256)",
                        "value": {
                            "pairs": [
                                {
                                    "key": "0x99fd1378ca799ed6772fe7bcdc9b30b389518962",
                                    "value": {
                                        "current": "31714869632544",
                                        "prev": "31266466663198",
                                        "typeTag": 1
                                    }
                                }
                            ],
                            "typeTag": 4
                        }
                    },
                    {
                        "name": "accrualBlockNumber",
                        "type": "uint256",
                        "value": {
                            "current": "14034823",
                            "prev": "14033677",
                            "typeTag": 1
                        }
                    },
                    {
                        "name": "borrowIndex",
                        "type": "uint256",
                        "value": {
                            "current": "1039064306835989255",
                            "prev": "1039044650019687037",
                            "typeTag": 1
                        }
                    },
                    {
                        "name": "totalBorrows",
                        "type": "uint256",
                        "value": {
                            "current": "243476597369",
                            "prev": "243471991327",
                            "typeTag": 1
                        }
                    },
                    {
                        "name": "totalReserves",
                        "type": "uint256",
                        "value": {
                            "current": "3736012538",
                            "prev": "3735091330",
                            "typeTag": 1
                        }
                    },
                    {
                        "name": "totalSupply",
                        "type": "uint256",
                        "value": {
                            "current": "186157712909944",
                            "prev": "185709309940598",
                            "typeTag": 1
                        }
                    }
                ]
            }
        ]
    }
}