{
    "balance_change": {
        "balanceChanges": []
    },
    "profile": {
        "basic_info": {
            "baseFee": "",
            "blockNumber": 7369286,
            "callData": "0xfcf0c248425443636861696e000000000000000000000000000000000000000000000000000000000000000000000000000000000000000000000000000000000000004000000000000000000000000000000000000000000000000000000000000000023000000000000000000000000000000000000000000000000000000000000000627463626c6f636b000000000000000000000000000000000000000000000000",
            "debugEnable": true,
            "errorInfo": "",
            "eventCount": 0,
            "feeRecipient": "0x9d6d492bd500da5b33cf95a5d610a73360fcaaa0",
            "formatValue": "0",
            "gasLimit": 6000000,
            "gasPrice": "1",
            "gasUsed": 50669,
            "intTxnCount": 3,
            "internalRevert": false,
            "internalRevertMessage": "",
            "isContractCreation": false,
            "isFlashloan": false,
            "maxFee": "",
            "nonce": 11,
            "overwritedBlockNumber": -1,
            "priorityFee": "",
            "receiver": "0xc7ab7ffc4fc2f3c75ffb621f574d4b9c861330f0",
            "revertMessage": "",
            "sender": "0xbbc099b5803bf501cfab8a600b80c01be375f9c7",
            "simulationEnable": true,
            "sourceTxnHash": "0x0fa4f5ae1ccf65aa5d76c11ffddf43c8d07d891234436b91bd5b127bc9f45c66",
            "status": true,
            "timestamp": "2019-03-14T20:36:48Z",
            "transactionFee": "0.000050669",
            "txnHash": "0x0fa4f5ae1ccf65aa5d76c11ffddf43c8d07d891234436b91bd5b127bc9f45c66",
            "txnIndex": 6,
            "type": 0,
            "value": "0"
        },
        "fund_flow": [],
        "token_infos": [
            {
                "address": "0xc02aaa39b223fe8d0a0e5c4f27ead9083c756cc2",
                "decimals": 18
            },
            {
                "address": "0xeeeeeeeeeeeeeeeeeeeeeeeeeeeeeeeeeeeeeeee",
                "decimals": 18
            }
        ]
    },
    "address_label": {
        "labels": [
            {
                "address": "0x0000000000000000000000000000000000000001",
                "label": "Precompiled"
            },
            {
                "address": "0x0000000000000000000000000000000000000002",
                "label": "Precompiled"
            },
            {
                "address": "0x0000000000000000000000000000000000000003",
                "label": "Precompiled"
            },
            {
                "address": "0x0000000000000000000000000000000000000004",
                "label": "Precompiled"
            },
            {
                "address": "0xeeeeeeeeeeeeeeeeeeeeeeeeeeeeeeeeeeeeeeee",
                "label": "Ether"
            },
            {
                "address": "0xc7ab7ffc4fc2f3c75ffb621f574d4b9c861330f0",
                "label": "Registry"
            },
            {
                "address": "0x02647d32b2633cf89434d8f371658b6a74d55bf9",
                "label": "Database"
            }
        ]
    },
    "trace": {
        "accountLabels": null,
        "dataMap": {
            "-1": {
                "invocation": {
                    "address": "0xbbc099b5803bf501cfab8a600b80c01be375f9c7",
                    "callData": "",
                    "decodedMethod": null,
                    "errorInfo": "",
                    "fromAddress": "",
                    "gasUsed": 0,
                    "id": -1,
                    "methodDecoded": false,
                    "operation": "",
                    "output": "",
                    "revert": false,
                    "revertMessage": "",
                    "selector": "",
                    "status": false,
                    "value": ""
                },
                "nodeType": 0
            },
            "0": {
                "invocation": {
                    "address": "0xc7ab7ffc4fc2f3c75ffb621f574d4b9c861330f0",
                    "callData": "0x425443636861696e000000000000000000000000000000000000000000000000000000000000000000000000000000000000000000000000000000000000004000000000000000000000000000000000000000000000000000000000000000023000000000000000000000000000000000000000000000000000000000000000627463626c6f636b000000000000000000000000000000000000000000000000",
                    "decodedMethod": {
                        "callParams": [
                            {
                                "name": "endpoint",
                                "type": "bytes32",
                                "value": "0x425443636861696e000000000000000000000000000000000000000000000000"
                            },
                            {
                                "name": "endpointParams",
                                "type": "bytes32[]",
                                "value": [
                                    "0x3000000000000000000000000000000000000000000000000000000000000000",
                                    "0x627463626c6f636b000000000000000000000000000000000000000000000000"
                                ]
                            }
                        ],
                        "constructorArguments": "",
                        "name": "setEndpointParams",
                        "returnParams": [],
                        "signature": "setEndpointParams(bytes32,bytes32[])"
                    },
                    "errorInfo": "",
                    "fromAddress": "0xbbc099b5803bf501cfab8a600b80c01be375f9c7",
                    "gasUsed": 50669,
                    "id": 0,
                    "methodDecoded": true,
                    "operation": "CALL",
                    "output": "",
                    "revert": false,
                    "revertMessage": "",
                    "selector": "0xfcf0c248",
                    "status": true,
                    "value": "0"
                },
                "nodeType": 0
            },
            "1": {
                "invocation": {
                    "address": "0x02647d32b2633cf89434d8f371658b6a74d55bf9",
                    "callData": "0x10355a927ca2634d8675fdd21e9f4aebf11cdabbbeb49a100e252ca428d71534",
                    "decodedMethod": {
                        "callParams": [
                            {
                                "name": "key",
                                "type": "bytes32",
                                "value": "0x10355a927ca2634d8675fdd21e9f4aebf11cdabbbeb49a100e252ca428d71534"
                            }
                        ],
                        "constructorArguments": "",
                        "name": "getBytes32",
                        "returnParams": [
                            {
                                "name": "",
                                "type": "bytes32",
                                "value": "0x43726f7373636861696e2d4578706c6f72657200000000000000000000000000"
                            }
                        ],
                        "signature": "getBytes32(bytes32)"
                    },
                    "errorInfo": "",
                    "fromAddress": "0xc7ab7ffc4fc2f3c75ffb621f574d4b9c861330f0",
                    "gasUsed": 1070,
                    "id": 1,
                    "methodDecoded": true,
                    "operation": "CALL",
                    "output": "0x43726f7373636861696e2d4578706c6f72657200000000000000000000000000",
                    "revert": false,
                    "revertMessage": "",
                    "selector": "0xa6ed563e",
                    "status": true,
                    "value": "0"
                },
                "nodeType": 0
            },
            "2": {
                "invocation": {
                    "address": "0x02647d32b2633cf89434d8f371658b6a74d55bf9",
                    "callData": "0x8332c0e4e55084867215e22bb4fc7152c2860b0fd53ef155227cdc4471450365",
                    "decodedMethod": {
                        "callParams": [
                            {
                                "name": "key",
                                "type": "bytes32",
                                "value": "0x8332c0e4e55084867215e22bb4fc7152c2860b0fd53ef155227cdc4471450365"
                            }
                        ],
                        "constructorArguments": "",
                        "name": "getIntArrayLength",
                        "returnParams": [
                            {
                                "name": "",
                                "type": "uint256",
                                "value": "8"
                            }
                        ],
                        "signature": "getIntArrayLength(bytes32)"
                    },
                    "errorInfo": "",
                    "fromAddress": "0xc7ab7ffc4fc2f3c75ffb621f574d4b9c861330f0",
                    "gasUsed": 972,
                    "id": 2,
                    "methodDecoded": true,
                    "operation": "CALL",
                    "output": "0x0000000000000000000000000000000000000000000000000000000000000008",
                    "revert": false,
                    "revertMessage": "",
                    "selector": "0xa21a65ae",
                    "status": true,
                    "value": "0"
                },
                "nodeType": 0
            },
            "3": {
                "invocation": {
                    "address": "0x02647d32b2633cf89434d8f371658b6a74d55bf9",
                    "callData": "0x7c181eeca6cb32a43115ac793962809a0f6521ad1bd639863a933bea5acd967a000000000000000000000000000000000000000000000000000000000000004000000000000000000000000000000000000000000000000000000000000000023000000000000000000000000000000000000000000000000000000000000000627463626c6f636b000000000000000000000000000000000000000000000000",
                    "decodedMethod": {
                        "callParams": [
                            {
                                "name": "key",
                                "type": "bytes32",
                                "value": "0x7c181eeca6cb32a43115ac793962809a0f6521ad1bd639863a933bea5acd967a"
                            },
                            {
                                "name": "value",
                                "type": "bytes32[]",
                                "value": [
                                    "0x3000000000000000000000000000000000000000000000000000000000000000",
                                    "0x627463626c6f636b000000000000000000000000000000000000000000000000"
                                ]
                            }
                        ],
                        "constructorArguments": "",
                        "name": "setBytesArray",
                        "returnParams": [],
                        "signature": "setBytesArray(bytes32,bytes32[])"
                    },
                    "errorInfo": "",
                    "fromAddress": "0xc7ab7ffc4fc2f3c75ffb621f574d4b9c861330f0",
                    "gasUsed": 16584,
                    "id": 3,
                    "methodDecoded": true,
                    "operation": "CALL",
                    "output": "",
                    "revert": false,
                    "revertMessage": "",
                    "selector": "0x56e5cf2e",
                    "status": true,
                    "value": "0"
                },
                "nodeType": 0
            }
        },
        "gasFlame": [
            {
                "children": [
                    {
                        "children": [
                            {
                                "children": [],
                                "depth": 0,
                                "name": "Initial Gas",
                                "value": 23128
                            },
                            {
                                "children": [
                                    {
                                        "children": [],
                                        "depth": 1,
                                        "name": "getBytes32",
                                        "value": 1070
                                    },
                                    {
                                        "children": [],
                                        "depth": 1,
                                        "name": "getIntArrayLength",
                                        "value": 972
                                    },
                                    {
                                        "children": [],
                                        "depth": 1,
                                        "name": "setBytesArray",
                                        "value": 16584
                                    }
                                ],
                                "depth": 0,
                                "name": "Executed Gas",
                                "value": 27541
                            }
                        ],
                        "depth": -1,
                        "name": "Actual Gas Used",
                        "value": 50669
                    },
                    {
                        "children": [],
                        "depth": -1,
                        "name": "Refunded Gas",
                        "value": 0
                    }
                ],
                "depth": -2,
                "name": "Total Gas",
                "value": 50669
            }
        ],
        "isConfirmed": true,
        "mainTrace": [
            {
                "children": [
                    {
                        "children": [
                            {
                                "children": [],
                                "depth": 1,
                                "id": 1,
                                "order": 1
                            },
                            {
                                "children": [],
                                "depth": 1,
                                "id": 2,
                                "order": 2
                            },
                            {
                                "children": [],
                                "depth": 1,
                                "id": 3,
                                "order": 3
                            }
                        ],
                        "depth": 0,
                        "id": 0,
                        "order": 0
                    }
                ],
                "depth": -1,
                "id": -1,
                "order": -1
            }
        ],
        "mainTraceNodeCount": 4,
        "parentIdMap": {
            "0": -1,
            "1": 0,
            "2": 0,
            "3": 0
        },
        "tidyTrace": [
            {
                "children": [
                    {
                        "children": [
                            {
                                "children": [],
                                "depth": 1,
                                "id": 1,
                                "order": 1
                            },
                            {
                                "children": [],
                                "depth": 1,
                                "id": 2,
                                "order": 2
                            },
                            {
                                "children": [],
                                "depth": 1,
                                "id": 3,
                                "order": 3
                            }
                        ],
                        "depth": 0,
                        "id": 0,
                        "order": 0
                    }
                ],
                "depth": -1,
                "id": -1,
                "order": -1
            }
        ],
        "tidyTraceNodeCount": 4
    },
    "state_change": {
        "stateChanges": []
    }
}