{
    "balance_change": {
        "balanceChanges": [
            {
                "account": "0x4c0ff1b2c1ef5e2b3dd2c74023cbf7ae36f01391",
                "assets": [
                    {
                        "address": "0xd937ebe98787a0037eb94efd3e107bb574bb93d3",
                        "amount": "300",
                        "iconUrl": "",
                        "isERC1155": false,
                        "isERC721": false,
                        "sign": false,
                        "value": ""
                    }
                ]
            },
            {
                "account": "0x343c33a4af1fb351b76444d359ed35348ad29edd",
                "assets": [
                    {
                        "address": "0xd937ebe98787a0037eb94efd3e107bb574bb93d3",
                        "amount": "300",
                        "iconUrl": "",
                        "isERC1155": false,
                        "isERC721": false,
                        "sign": true,
                        "value": ""
                    }
                ]
            }
        ]
    },
    "profile": {
        "basic_info": {
            "baseFee": "",
            "blockNumber": 4951040,
            "callData": "0xb61d27f6000000000000000000000000d937ebe98787a0037eb94efd3e107bb574bb93d3000000000000000000000000000000000000000000000000000000000000000000000000000000000000000000000000000000000000000000000000000000600000000000000000000000000000000000000000000000000000000000000044a9059cbb000000000000000000000000343c33a4af1fb351b76444d359ed35348ad29edd00000000000000000000000000000000000000000000000000000006fc23ac0000000000000000000000000000000000000000000000000000000000",
            "debugEnable": true,
            "errorInfo": "",
            "eventCount": 2,
            "feeRecipient": "0x829bd824b016326a401d083b33d092293333a830",
            "formatValue": "0",
            "gasLimit": 193771,
            "gasPrice": "50",
            "gasUsed": 50920,
            "intTxnCount": 1,
            "internalRevert": false,
            "internalRevertMessage": "",
            "isContractCreation": false,
            "isFlashloan": false,
            "maxFee": "",
            "nonce": 145831,
            "overwritedBlockNumber": -1,
            "priorityFee": "",
            "receiver": "0x4c0ff1b2c1ef5e2b3dd2c74023cbf7ae36f01391",
            "revertMessage": "",
            "sender": "0x731e6cc591b055001ccb9758008f636819df6152",
            "simulationEnable": true,
            "sourceTxnHash": "0x0f91c263bc99de4c7b4854b5fa0bc67ac1aaddaa1c5165f59c6a847a066a0eb4",
            "status": true,
            "timestamp": "2018-01-22T07:32:24Z",
            "transactionFee": "0.002546",
            "txnHash": "0x0f91c263bc99de4c7b4854b5fa0bc67ac1aaddaa1c5165f59c6a847a066a0eb4",
            "txnIndex": 95,
            "type": 0,
            "value": "0"
        },
        "fund_flow": [
            {
                "amount": "300",
                "from": "0x4c0ff1b2c1ef5e2b3dd2c74023cbf7ae36f01391",
                "id": 1,
                "isERC1155": false,
                "isERC721": false,
                "isReverted": false,
                "order": 1,
                "to": "0x343c33a4af1fb351b76444d359ed35348ad29edd",
                "token": "0xd937ebe98787a0037eb94efd3e107bb574bb93d3"
            }
        ],
        "token_infos": [
            {
                "address": "0xeeeeeeeeeeeeeeeeeeeeeeeeeeeeeeeeeeeeeeee",
                "decimals": 18
            },
            {
                "address": "0xc02aaa39b223fe8d0a0e5c4f27ead9083c756cc2",
                "decimals": 18
            },
            {
                "address": "0xd937ebe98787a0037eb94efd3e107bb574bb93d3",
                "decimals": 8
            }
        ]
    },
    "address_label": {
        "labels": [
            {
                "address": "0xd937ebe98787a0037eb94efd3e107bb574bb93d3",
                "label": "IBCCoin (IBC)"
            },
            {
                "address": "0x4c0ff1b2c1ef5e2b3dd2c74023cbf7ae36f01391",
                "label": "Wallet"
            },
            {
                "address": "0x0000000000000000000000000000000000000001",
                "label": "Precompiled"
            },
            {
                "address": "0x0000000000000000000000000000000000000002",
                "label": "Precompiled"
            },
            {
                "address": "0x0000000000000000000000000000000000000003",
                "label": "Precompiled"
            },
            {
                "address": "0x0000000000000000000000000000000000000004",
                "label": "Precompiled"
            },
            {
                "address": "0xeeeeeeeeeeeeeeeeeeeeeeeeeeeeeeeeeeeeeeee",
                "label": "Ether"
            }
        ]
    },
    "trace": {
        "accountLabels": null,
        "dataMap": {
            "-1": {
                "invocation": {
                    "address": "0x731e6cc591b055001ccb9758008f636819df6152",
                    "callData": "",
                    "decodedMethod": null,
                    "errorInfo": "",
                    "fromAddress": "",
                    "gasUsed": 0,
                    "id": -1,
                    "methodDecoded": false,
                    "operation": "",
                    "output": "",
                    "revert": false,
                    "revertMessage": "",
                    "selector": "",
                    "status": false,
                    "value": ""
                },
                "nodeType": 0
            },
            "0": {
                "invocation": {
                    "address": "0x4c0ff1b2c1ef5e2b3dd2c74023cbf7ae36f01391",
                    "callData": "0x000000000000000000000000d937ebe98787a0037eb94efd3e107bb574bb93d3000000000000000000000000000000000000000000000000000000000000000000000000000000000000000000000000000000000000000000000000000000600000000000000000000000000000000000000000000000000000000000000044a9059cbb000000000000000000000000343c33a4af1fb351b76444d359ed35348ad29edd00000000000000000000000000000000000000000000000000000006fc23ac0000000000000000000000000000000000000000000000000000000000",
                    "decodedMethod": {
                        "callParams": [
                            {
                                "name": "_to",
                                "type": "address",
                                "value": "0xd937ebe98787a0037eb94efd3e107bb574bb93d3"
                            },
                            {
                                "name": "_value",
                                "type": "uint256",
                                "value": "0"
                            },
                            {
                                "name": "_data",
                                "type": "bytes",
                                "value": "0xa9059cbb000000000000000000000000343c33a4af1fb351b76444d359ed35348ad29edd00000000000000000000000000000000000000000000000000000006fc23ac00"
                            }
                        ],
                        "constructorArguments": "",
                        "name": "execute",
                        "returnParams": [
                            {
                                "name": "_r",
                                "type": "bytes32",
                                "value": "0x0000000000000000000000000000000000000000000000000000000000000000"
                            }
                        ],
                        "signature": "execute(address,uint256,bytes)"
                    },
                    "errorInfo": "",
                    "fromAddress": "0x731e6cc591b055001ccb9758008f636819df6152",
                    "gasUsed": 50920,
                    "id": 0,
                    "methodDecoded": true,
                    "operation": "CALL",
                    "output": "0x0000000000000000000000000000000000000000000000000000000000000000",
                    "revert": false,
                    "revertMessage": "",
                    "selector": "0xb61d27f6",
                    "status": true,
                    "value": "0"
                },
                "nodeType": 0
            },
            "1": {
                "event": {
                    "contract": "0x4c0ff1b2c1ef5e2b3dd2c74023cbf7ae36f01391",
                    "decodedLog": {
                        "name": "SingleTransact",
                        "params": [
                            {
                                "name": "owner",
                                "type": "address",
                                "value": "0x731e6cc591b055001ccb9758008f636819df6152"
                            },
                            {
                                "name": "value",
                                "type": "uint256",
                                "value": "0"
                            },
                            {
                                "name": "to",
                                "type": "address",
                                "value": "0xd937ebe98787a0037eb94efd3e107bb574bb93d3"
                            },
                            {
                                "name": "data",
                                "type": "bytes",
                                "value": "0xa9059cbb000000000000000000000000343c33a4af1fb351b76444d359ed35348ad29edd00000000000000000000000000000000000000000000000000000006fc23ac00"
                            }
                        ],
                        "signature": "SingleTransact(address,uint256,address,bytes)"
                    },
                    "id": 1,
                    "logData": "0x000000000000000000000000731e6cc591b055001ccb9758008f636819df61520000000000000000000000000000000000000000000000000000000000000000000000000000000000000000d937ebe98787a0037eb94efd3e107bb574bb93d300000000000000000000000000000000000000000000000000000000000000800000000000000000000000000000000000000000000000000000000000000044a9059cbb000000000000000000000000343c33a4af1fb351b76444d359ed35348ad29edd00000000000000000000000000000000000000000000000000000006fc23ac00",
                    "logDecoded": true,
                    "operation": "EVENT",
                    "revert": false,
                    "status": true,
                    "topics": [
                        "0x92ca3a80853e6663fa31fa10b99225f18d4902939b4c53a9caae9043f6efd004"
                    ]
                },
                "nodeType": 1
            },
            "2": {
                "invocation": {
                    "address": "0xd937ebe98787a0037eb94efd3e107bb574bb93d3",
                    "callData": "0x000000000000000000000000343c33a4af1fb351b76444d359ed35348ad29edd00000000000000000000000000000000000000000000000000000006fc23ac00",
                    "decodedMethod": {
                        "callParams": [
                            {
                                "name": "_to",
                                "type": "address",
                                "value": "0x343c33a4af1fb351b76444d359ed35348ad29edd"
                            },
                            {
                                "decimalAvailable": true,
                                "name": "_value",
                                "type": "uint256",
                                "value": "30,000,000,000"
                            }
                        ],
                        "constructorArguments": "",
                        "name": "transfer",
                        "returnParams": [],
                        "signature": "transfer(address,uint256)"
                    },
                    "errorInfo": "",
                    "fromAddress": "0x4c0ff1b2c1ef5e2b3dd2c74023cbf7ae36f01391",
                    "gasUsed": 14142,
                    "id": 2,
                    "methodDecoded": true,
                    "operation": "CALL",
                    "output": "",
                    "revert": false,
                    "revertMessage": "",
                    "selector": "0xa9059cbb",
                    "status": true,
                    "value": "0"
                },
                "nodeType": 0
            },
            "3": {
                "event": {
                    "contract": "0xd937ebe98787a0037eb94efd3e107bb574bb93d3",
                    "decodedLog": {
                        "name": "Transfer",
                        "params": [
                            {
                                "name": "from",
                                "type": "address",
                                "value": "0x4c0ff1b2c1ef5e2b3dd2c74023cbf7ae36f01391"
                            },
                            {
                                "name": "to",
                                "type": "address",
                                "value": "0x343c33a4af1fb351b76444d359ed35348ad29edd"
                            },
                            {
                                "decimalAvailable": true,
                                "name": "value",
                                "type": "uint256",
                                "value": "30,000,000,000"
                            }
                        ],
                        "signature": "Transfer(address,address,uint256)"
                    },
                    "id": 3,
                    "logData": "0x00000000000000000000000000000000000000000000000000000006fc23ac00",
                    "logDecoded": true,
                    "operation": "EVENT",
                    "revert": false,
                    "status": true,
                    "topics": [
                        "0xddf252ad1be2c89b69c2b068fc378daa952ba7f163c4a11628f55a4df523b3ef",
                        "0x0000000000000000000000004c0ff1b2c1ef5e2b3dd2c74023cbf7ae36f01391",
                        "0x000000000000000000000000343c33a4af1fb351b76444d359ed35348ad29edd"
                    ]
                },
                "nodeType": 1
            }
        },
        "gasFlame": [
            {
                "children": [
                    {
                        "children": [
                            {
                                "children": [],
                                "depth": 0,
                                "name": "Initial Gas",
                                "value": 25368
                            },
                            {
                                "children": [
                                    {
                                        "children": [],
                                        "depth": 1,
                                        "name": "transfer",
                                        "value": 14142
                                    }
                                ],
                                "depth": 0,
                                "name": "Executed Gas",
                                "value": 25552
                            }
                        ],
                        "depth": -1,
                        "name": "Actual Gas Used",
                        "value": 50920
                    },
                    {
                        "children": [],
                        "depth": -1,
                        "name": "Refunded Gas",
                        "value": 0
                    }
                ],
                "depth": -2,
                "name": "Total Gas",
                "value": 50920
            }
        ],
        "isConfirmed": true,
        "mainTrace": [
            {
                "children": [
                    {
                        "children": [
                            {
                                "children": [],
                                "depth": 1,
                                "id": 1,
                                "order": 1
                            },
                            {
                                "children": [
                                    {
                                        "children": [],
                                        "depth": 2,
                                        "id": 3,
                                        "order": 3
                                    }
                                ],
                                "depth": 1,
                                "id": 2,
                                "order": 2
                            }
                        ],
                        "depth": 0,
                        "id": 0,
                        "order": 0
                    }
                ],
                "depth": -1,
                "id": -1,
                "order": -1
            }
        ],
        "mainTraceNodeCount": 4,
        "parentIdMap": {
            "0": -1,
            "1": 0,
            "2": 0,
            "3": 2
        },
        "tidyTrace": [
            {
                "children": [
                    {
                        "children": [
                            {
                                "children": [],
                                "depth": 1,
                                "id": 1,
                                "order": 1
                            },
                            {
                                "children": [
                                    {
                                        "children": [],
                                        "depth": 2,
                                        "id": 3,
                                        "order": 3
                                    }
                                ],
                                "depth": 1,
                                "id": 2,
                                "order": 2
                            }
                        ],
                        "depth": 0,
                        "id": 0,
                        "order": 0
                    }
                ],
                "depth": -1,
                "id": -1,
                "order": -1
            }
        ],
        "tidyTraceNodeCount": 4
    },
    "state_change": {
        "stateChanges": [
            {
                "address": "0xd937ebe98787a0037eb94efd3e107bb574bb93d3",
                "erc": "",
                "slots": [
                    {
                        "current": "0x000000000000000000000000000000000000000000000000000060c938ec29ab",
                        "key": "0xfb5b03420ec7f50ec99b0d66341489db0636a7534101dfa5cf6350fa84c80765",
                        "prev": "0x000000000000000000000000000000000000000000000000000060d0350fd5ab"
                    },
                    {
                        "current": "0x000000000000000000000000000000000000000000000000000000509e75bce8",
                        "key": "0xb9403eea01ed482eaa4007333f022f373463b8063d4999edb57ef4d292c83228",
                        "prev": "0x00000000000000000000000000000000000000000000000000000049a25210e8"
                    }
                ],
                "storageVariables": []
            }
        ]
    }
}