{
    "balance_change": {
        "balanceChanges": [
            {
                "account": "0xd6eee139ee775fdd7c3c07f7962deb4467868a9b",
                "assets": [
                    {
                        "address": "0x8e766f57f7d16ca50b4a0b90b88f6468a09b0439",
                        "amount": "262.0743",
                        "iconUrl": "",
                        "isERC1155": false,
                        "isERC721": false,
                        "sign": false,
                        "value": ""
                    }
                ]
            },
            {
                "account": "0xb70e1aa092e55cb92ff6a22eb5e6b8ef6b104829",
                "assets": [
                    {
                        "address": "0x8e766f57f7d16ca50b4a0b90b88f6468a09b0439",
                        "amount": "262.0743",
                        "iconUrl": "",
                        "isERC1155": false,
                        "isERC721": false,
                        "sign": true,
                        "value": ""
                    }
                ]
            }
        ]
    },
    "profile": {
        "basic_info": {
            "baseFee": "",
            "blockNumber": 7605007,
            "callData": "0xa9059cbb000000000000000000000000b70e1aa092e55cb92ff6a22eb5e6b8ef6b10482900000000000000000000000000000000000000000000000e3502f3522327c000",
            "debugEnable": true,
            "errorInfo": "",
            "eventCount": 1,
            "feeRecipient": "0x35f61dfb08ada13eba64bf156b80df3d5b3a738d",
            "formatValue": "0",
            "gasLimit": 90000,
            "gasPrice": "8.888888888",
            "gasUsed": 38360,
            "intTxnCount": 0,
            "internalRevert": false,
            "internalRevertMessage": "",
            "isContractCreation": false,
            "isFlashloan": false,
            "maxFee": "",
            "nonce": 4,
            "overwritedBlockNumber": -1,
            "priorityFee": "",
            "receiver": "0x8e766f57f7d16ca50b4a0b90b88f6468a09b0439",
            "revertMessage": "",
            "sender": "0xd6eee139ee775fdd7c3c07f7962deb4467868a9b",
            "simulationEnable": true,
            "sourceTxnHash": "0x0f7b6d059d3bc5fb9423f6c67b21fc458bc701812ef41e0a67ded931e3b7662f",
            "status": true,
            "timestamp": "2019-04-20T14:12:45Z",
            "transactionFee": "0.00034097777774368",
            "txnHash": "0x0f7b6d059d3bc5fb9423f6c67b21fc458bc701812ef41e0a67ded931e3b7662f",
            "txnIndex": 11,
            "type": 0,
            "value": "0"
        },
        "fund_flow": [
            {
                "amount": "262.0743",
                "from": "0xd6eee139ee775fdd7c3c07f7962deb4467868a9b",
                "id": 1,
                "isERC1155": false,
                "isERC721": false,
                "isReverted": false,
                "order": 1,
                "to": "0xb70e1aa092e55cb92ff6a22eb5e6b8ef6b104829",
                "token": "0x8e766f57f7d16ca50b4a0b90b88f6468a09b0439"
            }
        ],
        "token_infos": [
            {
                "address": "0xc02aaa39b223fe8d0a0e5c4f27ead9083c756cc2",
                "decimals": 18
            },
            {
                "address": "0xeeeeeeeeeeeeeeeeeeeeeeeeeeeeeeeeeeeeeeee",
                "decimals": 18
            },
            {
                "address": "0x8e766f57f7d16ca50b4a0b90b88f6468a09b0439",
                "decimals": 18
            }
        ]
    },
    "address_label": {
        "labels": [
            {
                "address": "0x0000000000000000000000000000000000000002",
                "label": "Precompiled"
            },
            {
                "address": "0x0000000000000000000000000000000000000003",
                "label": "Precompiled"
            },
            {
                "address": "0x0000000000000000000000000000000000000004",
                "label": "Precompiled"
            },
            {
                "address": "0xeeeeeeeeeeeeeeeeeeeeeeeeeeeeeeeeeeeeeeee",
                "label": "Ether"
            },
            {
                "address": "0x8e766f57f7d16ca50b4a0b90b88f6468a09b0439",
                "label": "MaxiMine Coin"
            },
            {
                "address": "0x0000000000000000000000000000000000000001",
                "label": "Precompiled"
            }
        ]
    },
    "trace": {
        "accountLabels": null,
        "dataMap": {
            "-1": {
                "invocation": {
                    "address": "0xd6eee139ee775fdd7c3c07f7962deb4467868a9b",
                    "callData": "",
                    "decodedMethod": null,
                    "errorInfo": "",
                    "fromAddress": "",
                    "gasUsed": 0,
                    "id": -1,
                    "methodDecoded": false,
                    "operation": "",
                    "output": "",
                    "revert": false,
                    "revertMessage": "",
                    "selector": "",
                    "status": false,
                    "value": ""
                },
                "nodeType": 0
            },
            "0": {
                "invocation": {
                    "address": "0x8e766f57f7d16ca50b4a0b90b88f6468a09b0439",
                    "callData": "0x000000000000000000000000b70e1aa092e55cb92ff6a22eb5e6b8ef6b10482900000000000000000000000000000000000000000000000e3502f3522327c000",
                    "decodedMethod": {
                        "callParams": [
                            {
                                "name": "_to",
                                "type": "address",
                                "value": "0xb70e1aa092e55cb92ff6a22eb5e6b8ef6b104829"
                            },
                            {
                                "decimalAvailable": true,
                                "name": "_value",
                                "type": "uint256",
                                "value": "262,074,300,000,000,000,000"
                            }
                        ],
                        "constructorArguments": "",
                        "name": "transfer",
                        "returnParams": [],
                        "signature": "transfer(address,uint256)"
                    },
                    "errorInfo": "",
                    "fromAddress": "0xd6eee139ee775fdd7c3c07f7962deb4467868a9b",
                    "gasUsed": 38360,
                    "id": 0,
                    "methodDecoded": true,
                    "operation": "CALL",
                    "output": "",
                    "revert": false,
                    "revertMessage": "",
                    "selector": "0xa9059cbb",
                    "status": true,
                    "value": "0"
                },
                "nodeType": 0
            },
            "1": {
                "event": {
                    "contract": "0x8e766f57f7d16ca50b4a0b90b88f6468a09b0439",
                    "decodedLog": {
                        "name": "Transfer",
                        "params": [
                            {
                                "name": "from",
                                "type": "address",
                                "value": "0xd6eee139ee775fdd7c3c07f7962deb4467868a9b"
                            },
                            {
                                "name": "to",
                                "type": "address",
                                "value": "0xb70e1aa092e55cb92ff6a22eb5e6b8ef6b104829"
                            },
                            {
                                "decimalAvailable": true,
                                "name": "value",
                                "type": "uint256",
                                "value": "262,074,300,000,000,000,000"
                            }
                        ],
                        "signature": "Transfer(address,address,uint256)"
                    },
                    "id": 1,
                    "logData": "0x00000000000000000000000000000000000000000000000e3502f3522327c000",
                    "logDecoded": true,
                    "operation": "EVENT",
                    "revert": false,
                    "status": true,
                    "topics": [
                        "0xddf252ad1be2c89b69c2b068fc378daa952ba7f163c4a11628f55a4df523b3ef",
                        "0x000000000000000000000000d6eee139ee775fdd7c3c07f7962deb4467868a9b",
                        "0x000000000000000000000000b70e1aa092e55cb92ff6a22eb5e6b8ef6b104829"
                    ]
                },
                "nodeType": 1
            }
        },
        "gasFlame": [
            {
                "children": [
                    {
                        "children": [
                            {
                                "children": [],
                                "depth": 0,
                                "name": "Initial Gas",
                                "value": 23320
                            },
                            {
                                "children": [],
                                "depth": 0,
                                "name": "Executed Gas",
                                "value": 15040
                            }
                        ],
                        "depth": -1,
                        "name": "Actual Gas Used",
                        "value": 38360
                    },
                    {
                        "children": [],
                        "depth": -1,
                        "name": "Refunded Gas",
                        "value": 0
                    }
                ],
                "depth": -2,
                "name": "Total Gas",
                "value": 38360
            }
        ],
        "isConfirmed": true,
        "mainTrace": [
            {
                "children": [
                    {
                        "children": [
                            {
                                "children": [],
                                "depth": 1,
                                "id": 1,
                                "order": 1
                            }
                        ],
                        "depth": 0,
                        "id": 0,
                        "order": 0
                    }
                ],
                "depth": -1,
                "id": -1,
                "order": -1
            }
        ],
        "mainTraceNodeCount": 2,
        "parentIdMap": {
            "0": -1,
            "1": 0
        },
        "tidyTrace": [
            {
                "children": [
                    {
                        "children": [
                            {
                                "children": [],
                                "depth": 1,
                                "id": 1,
                                "order": 1
                            }
                        ],
                        "depth": 0,
                        "id": 0,
                        "order": 0
                    }
                ],
                "depth": -1,
                "id": -1,
                "order": -1
            }
        ],
        "tidyTraceNodeCount": 2
    },
    "state_change": {
        "stateChanges": [
            {
                "address": "0x8e766f57f7d16ca50b4a0b90b88f6468a09b0439",
                "erc": "",
                "slots": [
                    {
                        "current": "0x0000000000000000000000000000000000000000000000000de0b6b3a7640000",
                        "key": "0x9c0a1b8ad3a4762378bc05233a43d78de3f682659bde85e54545507c4c91772b",
                        "prev": "0x00000000000000000000000000000000000000000000000e42e3aa05ca8bc000"
                    },
                    {
                        "current": "0x000000000000000000000000000000000000000000037e10f06caa85b4aa4000",
                        "key": "0x579cb1481c7f7b8217b408d8cd538769e69165f8270281bd23ebd81ce70bed8f",
                        "prev": "0x000000000000000000000000000000000000000000037e02bb69b73391828000"
                    }
                ],
                "storageVariables": [
                    {
                        "name": "balanceOf",
                        "type": "mapping(address => uint256)",
                        "value": {
                            "pairs": [
                                {
                                    "key": "0xb70e1aa092e55cb92ff6a22eb5e6b8ef6b104829",
                                    "value": {
                                        "current": "4222108107999999999754240",
                                        "prev": "4221846033699999999754240",
                                        "typeTag": 1
                                    }
                                },
                                {
                                    "key": "0xd6eee139ee775fdd7c3c07f7962deb4467868a9b",
                                    "value": {
                                        "current": "1000000000000000000",
                                        "prev": "263074300000000000000",
                                        "typeTag": 1
                                    }
                                }
                            ],
                            "typeTag": 4
                        }
                    }
                ]
            }
        ]
    }
}