{
    "balance_change": {
        "balanceChanges": [
            {
                "account": "0xfd83641e14d59533f2fcd2f5956023df828e58c3",
                "assets": [
                    {
                        "address": "0xeeeeeeeeeeeeeeeeeeeeeeeeeeeeeeeeeeeeeeee",
                        "amount": "0.015",
                        "iconUrl": "https://assets.blocksec.com/image/1663669189317-3.png",
                        "isERC1155": false,
                        "isERC721": false,
                        "sign": false,
                        "value": ""
                    }
                ]
            },
            {
                "account": "0x06012c8cf97bead5deae237070f9587f8e7a266d",
                "assets": [
                    {
                        "address": "0xeeeeeeeeeeeeeeeeeeeeeeeeeeeeeeeeeeeeeeee",
                        "amount": "0.015",
                        "iconUrl": "https://assets.blocksec.com/image/1663669189317-3.png",
                        "isERC1155": false,
                        "isERC721": false,
                        "sign": true,
                        "value": ""
                    }
                ]
            }
        ]
    },
    "profile": {
        "basic_info": {
            "baseFee": "",
            "blockNumber": 4683712,
            "callData": "0xf7d8c88300000000000000000000000000000000000000000000000000000000000140dd000000000000000000000000000000000000000000000000000000000000d38d",
            "debugEnable": true,
            "errorInfo": "",
            "eventCount": 1,
            "feeRecipient": "0xb2930b35844a230f00e51431acae96fe543a0347",
            "formatValue": "0.015",
            "gasLimit": 119806,
            "gasPrice": "32",
            "gasUsed": 79871,
            "intTxnCount": 0,
            "internalRevert": false,
            "internalRevertMessage": "",
            "isContractCreation": false,
            "isFlashloan": false,
            "maxFee": "",
            "nonce": 140,
            "overwritedBlockNumber": -1,
            "priorityFee": "",
            "receiver": "0x06012c8cf97bead5deae237070f9587f8e7a266d",
            "revertMessage": "",
            "sender": "0xfd83641e14d59533f2fcd2f5956023df828e58c3",
            "simulationEnable": true,
            "sourceTxnHash": "0x0f98066edc83d37beb4d18372b032c3a45a47c1bd412344426236a636a9aa427",
            "status": true,
            "timestamp": "2017-12-06T05:49:23Z",
            "transactionFee": "0.002555872",
            "txnHash": "0x0f98066edc83d37beb4d18372b032c3a45a47c1bd412344426236a636a9aa427",
            "txnIndex": 30,
            "type": 0,
            "value": "15000000000000000"
        },
        "fund_flow": [
            {
                "amount": "0.015",
                "from": "0xfd83641e14d59533f2fcd2f5956023df828e58c3",
                "id": 1,
                "isERC1155": false,
                "isERC721": false,
                "isReverted": false,
                "order": 1,
                "to": "0x06012c8cf97bead5deae237070f9587f8e7a266d",
                "token": "0xeeeeeeeeeeeeeeeeeeeeeeeeeeeeeeeeeeeeeeee"
            }
        ],
        "token_infos": [
            {
                "address": "0xc02aaa39b223fe8d0a0e5c4f27ead9083c756cc2",
                "decimals": 18
            },
            {
                "address": "0xeeeeeeeeeeeeeeeeeeeeeeeeeeeeeeeeeeeeeeee",
                "decimals": 18
            }
        ]
    },
    "address_label": {
        "labels": [
            {
                "address": "0x0000000000000000000000000000000000000004",
                "label": "Precompiled"
            },
            {
                "address": "0xeeeeeeeeeeeeeeeeeeeeeeeeeeeeeeeeeeeeeeee",
                "label": "Ether"
            },
            {
                "address": "0x06012c8cf97bead5deae237070f9587f8e7a266d",
                "label": "CryptoKitties: Core"
            },
            {
                "address": "0x0000000000000000000000000000000000000001",
                "label": "Precompiled"
            },
            {
                "address": "0x0000000000000000000000000000000000000002",
                "label": "Precompiled"
            },
            {
                "address": "0x0000000000000000000000000000000000000003",
                "label": "Precompiled"
            }
        ]
    },
    "trace": {
        "accountLabels": null,
        "dataMap": {
            "-1": {
                "invocation": {
                    "address": "0xfd83641e14d59533f2fcd2f5956023df828e58c3",
                    "callData": "",
                    "decodedMethod": null,
                    "errorInfo": "",
                    "fromAddress": "",
                    "gasUsed": 0,
                    "id": -1,
                    "methodDecoded": false,
                    "operation": "",
                    "output": "",
                    "revert": false,
                    "revertMessage": "",
                    "selector": "",
                    "status": false,
                    "value": ""
                },
                "nodeType": 0
            },
            "0": {
                "invocation": {
                    "address": "0x06012c8cf97bead5deae237070f9587f8e7a266d",
                    "callData": "0x00000000000000000000000000000000000000000000000000000000000140dd000000000000000000000000000000000000000000000000000000000000d38d",
                    "decodedMethod": {
                        "callParams": [
                            {
                                "name": "_matronId",
                                "type": "uint256",
                                "value": "82,141"
                            },
                            {
                                "name": "_sireId",
                                "type": "uint256",
                                "value": "54,157"
                            }
                        ],
                        "constructorArguments": "",
                        "name": "breedWithAuto",
                        "returnParams": [],
                        "signature": "breedWithAuto(uint256,uint256)"
                    },
                    "errorInfo": "",
                    "fromAddress": "0xfd83641e14d59533f2fcd2f5956023df828e58c3",
                    "gasUsed": 79871,
                    "id": 0,
                    "methodDecoded": true,
                    "operation": "CALL",
                    "output": "",
                    "revert": false,
                    "revertMessage": "",
                    "selector": "0xf7d8c883",
                    "status": true,
                    "value": "0.015"
                },
                "nodeType": 0
            },
            "1": {
                "event": {
                    "contract": "0x06012c8cf97bead5deae237070f9587f8e7a266d",
                    "decodedLog": {
                        "name": "Pregnant",
                        "params": [
                            {
                                "name": "owner",
                                "type": "address",
                                "value": "0xfd83641e14d59533f2fcd2f5956023df828e58c3"
                            },
                            {
                                "name": "matronId",
                                "type": "uint256",
                                "value": "82,141"
                            },
                            {
                                "name": "sireId",
                                "type": "uint256",
                                "value": "54,157"
                            },
                            {
                                "name": "cooldownEndBlock",
                                "type": "uint256",
                                "value": "4,683,832"
                            }
                        ],
                        "signature": "Pregnant(address,uint256,uint256,uint256)"
                    },
                    "id": 1,
                    "logData": "0x000000000000000000000000fd83641e14d59533f2fcd2f5956023df828e58c300000000000000000000000000000000000000000000000000000000000140dd000000000000000000000000000000000000000000000000000000000000d38d0000000000000000000000000000000000000000000000000000000000477838",
                    "logDecoded": true,
                    "operation": "EVENT",
                    "revert": false,
                    "status": true,
                    "topics": [
                        "0x241ea03ca20251805084d27d4440371c34a0b85ff108f6bb5611248f73818b80"
                    ]
                },
                "nodeType": 1
            }
        },
        "gasFlame": [
            {
                "children": [
                    {
                        "children": [
                            {
                                "children": [],
                                "depth": 0,
                                "name": "Initial Gas",
                                "value": 21848
                            },
                            {
                                "children": [],
                                "depth": 0,
                                "name": "Executed Gas",
                                "value": 58023
                            }
                        ],
                        "depth": -1,
                        "name": "Actual Gas Used",
                        "value": 79871
                    },
                    {
                        "children": [],
                        "depth": -1,
                        "name": "Refunded Gas",
                        "value": 0
                    }
                ],
                "depth": -2,
                "name": "Total Gas",
                "value": 79871
            }
        ],
        "isConfirmed": true,
        "mainTrace": [
            {
                "children": [
                    {
                        "children": [
                            {
                                "children": [],
                                "depth": 1,
                                "id": 1,
                                "order": 1
                            }
                        ],
                        "depth": 0,
                        "id": 0,
                        "order": 0
                    }
                ],
                "depth": -1,
                "id": -1,
                "order": -1
            }
        ],
        "mainTraceNodeCount": 2,
        "parentIdMap": {
            "0": -1,
            "1": 0
        },
        "tidyTrace": [
            {
                "children": [
                    {
                        "children": [
                            {
                                "children": [],
                                "depth": 1,
                                "id": 1,
                                "order": 1
                            }
                        ],
                        "depth": 0,
                        "id": 0,
                        "order": 0
                    }
                ],
                "depth": -1,
                "id": -1,
                "order": -1
            }
        ],
        "tidyTraceNodeCount": 2
    },
    "state_change": {
        "stateChanges": [
            {
                "address": "0x06012c8cf97bead5deae237070f9587f8e7a266d",
                "erc": "",
                "slots": [
                    {
                        "current": "0x000800050000d38d0000569e00012a680000000000477838000000005a263dab",
                        "key": "0xf652222313e28459528d920b65115c16c04f3efc82aaedc97be59f3f377e8efa",
                        "prev": "0x00080004000000000000569e00012a680000000000000000000000005a263dab"
                    },
                    {
                        "current": "0x000800090000000000008c92000096c60000000000477f40000000005a24c7ae",
                        "key": "0xf652222313e28459528d920b65115c16c04f3efc82aaedc97be59f3f377db45a",
                        "prev": "0x000800080000000000008c92000096c600000000004765d2000000005a24c7ae"
                    },
                    {
                        "current": "0x0000000000000000000000000000000000000000000000000000000000001650",
                        "key": "0x000000000000000000000000000000000000000000000000000000000000000f",
                        "prev": "0x000000000000000000000000000000000000000000000000000000000000164f"
                    }
                ],
                "storageVariables": [
                    {
                        "name": "kitties",
                        "type": "struct KittyBase.Kitty[]",
                        "value": {
                            "elemType": "struct KittyBase.Kitty",
                            "elems": [
                                {
                                    "index": 54157,
                                    "value": {
                                        "fields": [
                                            {
                                                "name": "birthTime",
                                                "type": "uint64",
                                                "value": {
                                                    "current": "1512359854",
                                                    "prev": "1512359854",
                                                    "typeTag": 1
                                                }
                                            },
                                            {
                                                "name": "cooldownEndBlock",
                                                "type": "uint64",
                                                "value": {
                                                    "current": "4685632",
                                                    "prev": "4679122",
                                                    "typeTag": 1
                                                }
                                            },
                                            {
                                                "name": "matronId",
                                                "type": "uint32",
                                                "value": {
                                                    "current": "38598",
                                                    "prev": "38598",
                                                    "typeTag": 1
                                                }
                                            },
                                            {
                                                "name": "sireId",
                                                "type": "uint32",
                                                "value": {
                                                    "current": "35986",
                                                    "prev": "35986",
                                                    "typeTag": 1
                                                }
                                            },
                                            {
                                                "name": "siringWithId",
                                                "type": "uint32",
                                                "value": {
                                                    "current": "0",
                                                    "prev": "0",
                                                    "typeTag": 1
                                                }
                                            },
                                            {
                                                "name": "cooldownIndex",
                                                "type": "uint16",
                                                "value": {
                                                    "current": "9",
                                                    "prev": "8",
                                                    "typeTag": 1
                                                }
                                            },
                                            {
                                                "name": "generation",
                                                "type": "uint16",
                                                "value": {
                                                    "current": "8",
                                                    "prev": "8",
                                                    "typeTag": 1
                                                }
                                            }
                                        ],
                                        "typeTag": 3
                                    }
                                },
                                {
                                    "index": 82141,
                                    "value": {
                                        "fields": [
                                            {
                                                "name": "birthTime",
                                                "type": "uint64",
                                                "value": {
                                                    "current": "1512455595",
                                                    "prev": "1512455595",
                                                    "typeTag": 1
                                                }
                                            },
                                            {
                                                "name": "cooldownEndBlock",
                                                "type": "uint64",
                                                "value": {
                                                    "current": "4683832",
                                                    "prev": "0",
                                                    "typeTag": 1
                                                }
                                            },
                                            {
                                                "name": "matronId",
                                                "type": "uint32",
                                                "value": {
                                                    "current": "76392",
                                                    "prev": "76392",
                                                    "typeTag": 1
                                                }
                                            },
                                            {
                                                "name": "sireId",
                                                "type": "uint32",
                                                "value": {
                                                    "current": "22174",
                                                    "prev": "22174",
                                                    "typeTag": 1
                                                }
                                            },
                                            {
                                                "name": "siringWithId",
                                                "type": "uint32",
                                                "value": {
                                                    "current": "54157",
                                                    "prev": "0",
                                                    "typeTag": 1
                                                }
                                            },
                                            {
                                                "name": "cooldownIndex",
                                                "type": "uint16",
                                                "value": {
                                                    "current": "5",
                                                    "prev": "4",
                                                    "typeTag": 1
                                                }
                                            },
                                            {
                                                "name": "generation",
                                                "type": "uint16",
                                                "value": {
                                                    "current": "8",
                                                    "prev": "8",
                                                    "typeTag": 1
                                                }
                                            }
                                        ],
                                        "typeTag": 3
                                    }
                                }
                            ],
                            "typeTag": 2
                        }
                    },
                    {
                        "name": "pregnantKitties",
                        "type": "uint256",
                        "value": {
                            "current": "5712",
                            "prev": "5711",
                            "typeTag": 1
                        }
                    }
                ]
            }
        ]
    }
}