{
    "balance_change": {
        "balanceChanges": [
            {
                "account": "0x278dc523a855c6947341b73450fc378887b9210b",
                "assets": [
                    {
                        "address": "0x61e90a50137e1f645c9ef4a0d3a4f01477738406",
                        "amount": "326",
                        "iconUrl": "",
                        "isERC1155": false,
                        "isERC721": false,
                        "sign": false,
                        "value": "153.5133999999999952"
                    }
                ]
            },
            {
                "account": "0x5f71d8de858fc038d0e19a5063940dc86a4e6268",
                "assets": [
                    {
                        "address": "0x61e90a50137e1f645c9ef4a0d3a4f01477738406",
                        "amount": "326",
                        "iconUrl": "",
                        "isERC1155": false,
                        "isERC721": false,
                        "sign": true,
                        "value": "153.5133999999999952"
                    }
                ]
            }
        ]
    },
    "profile": {
        "basic_info": {
            "baseFee": "21.775191174",
            "blockNumber": 16966707,
            "callData": "0x47e7ef2400000000000000000000000061e90a50137e1f645c9ef4a0d3a4f01477738406000000000000000000000000000000000000000000000011ac28a8c729580000",
            "debugEnable": true,
            "errorInfo": "",
            "eventCount": 4,
            "feeRecipient": "0xdafea492d9c6733ae3d56b7ed1adb60692c98bc5",
            "formatValue": "0",
            "gasLimit": 138619,
            "gasPrice": "24.275191174",
            "gasUsed": 92413,
            "intTxnCount": 4,
            "internalRevert": false,
            "internalRevertMessage": "",
            "isContractCreation": false,
            "isFlashloan": false,
            "maxFee": "44.529671572",
            "nonce": 166,
            "overwritedBlockNumber": -1,
            "priorityFee": "2.5",
            "receiver": "0x5f71d8de858fc038d0e19a5063940dc86a4e6268",
            "revertMessage": "",
            "sender": "0x278dc523a855c6947341b73450fc378887b9210b",
            "simulationEnable": true,
            "sourceTxnHash": "0x1076c285dc0378a9722bfc16b0ea151fcf9e19f57c6d84572f2d731896d67fe8",
            "status": true,
            "timestamp": "2023-04-03T06:23:23Z",
            "transactionFee": "0.002243343241962862",
            "txnHash": "0x1076c285dc0378a9722bfc16b0ea151fcf9e19f57c6d84572f2d731896d67fe8",
            "txnIndex": 9,
            "type": 2,
            "value": "0"
        },
        "fund_flow": [
            {
                "amount": "326",
                "from": "0x278dc523a855c6947341b73450fc378887b9210b",
                "id": 1,
                "isERC1155": false,
                "isERC721": false,
                "isReverted": false,
                "order": 1,
                "to": "0x5f71d8de858fc038d0e19a5063940dc86a4e6268",
                "token": "0x61e90a50137e1f645c9ef4a0d3a4f01477738406"
            }
        ],
        "token_infos": [
            {
                "address": "0x61e90a50137e1f645c9ef4a0d3a4f01477738406",
                "decimals": 18
            },
            {
                "address": "0xc02aaa39b223fe8d0a0e5c4f27ead9083c756cc2",
                "decimals": 18
            },
            {
                "address": "0xeeeeeeeeeeeeeeeeeeeeeeeeeeeeeeeeeeeeeeee",
                "decimals": 18
            }
        ]
    },
    "address_label": {
        "labels": [
            {
                "address": "0x61e90a50137e1f645c9ef4a0d3a4f01477738406",
                "label": "League of Kingdoms Arena: LOKA Token"
            },
            {
                "address": "0x28e4f3a7f651294b9564800b2d01f35189a5bfbe",
                "label": "Polygon (Matic): State Syncer"
            },
            {
                "address": "0xfe5e5d361b2ad62c541bab87c45a0b9b018389a2",
                "label": "Polygon (Matic): Fx Root"
            },
            {
                "address": "0x0000000000000000000000000000000000000001",
                "label": "Precompiled"
            },
            {
                "address": "0x0000000000000000000000000000000000000002",
                "label": "Precompiled"
            },
            {
                "address": "0x0000000000000000000000000000000000000003",
                "label": "Precompiled"
            },
            {
                "address": "0x0000000000000000000000000000000000000004",
                "label": "Precompiled"
            },
            {
                "address": "0xeeeeeeeeeeeeeeeeeeeeeeeeeeeeeeeeeeeeeeee",
                "label": "Ether"
            }
        ]
    },
    "trace": {
        "accountLabels": null,
        "dataMap": {
            "-1": {
                "invocation": {
                    "address": "0x278dc523a855c6947341b73450fc378887b9210b",
                    "callData": "",
                    "decodedMethod": null,
                    "errorInfo": "",
                    "fromAddress": "",
                    "gasUsed": 0,
                    "id": -1,
                    "methodDecoded": false,
                    "operation": "",
                    "output": "",
                    "revert": false,
                    "revertMessage": "",
                    "selector": "",
                    "status": false,
                    "value": ""
                },
                "nodeType": 0
            },
            "0": {
                "invocation": {
                    "address": "0x5f71d8de858fc038d0e19a5063940dc86a4e6268",
                    "callData": "0x00000000000000000000000061e90a50137e1f645c9ef4a0d3a4f01477738406000000000000000000000000000000000000000000000011ac28a8c729580000",
                    "decodedMethod": {
                        "callParams": [
                            {
                                "name": "token",
                                "type": "address",
                                "value": "0x61e90a50137e1f645c9ef4a0d3a4f01477738406"
                            },
                            {
                                "name": "amount",
                                "type": "uint256",
                                "value": "326,000,000,000,000,000,000"
                            }
                        ],
                        "constructorArguments": "",
                        "name": "deposit",
                        "returnParams": [],
                        "signature": "deposit(address,uint256)"
                    },
                    "errorInfo": "",
                    "fromAddress": "0x278dc523a855c6947341b73450fc378887b9210b",
                    "gasUsed": 92413,
                    "id": 0,
                    "methodDecoded": true,
                    "operation": "CALL",
                    "output": "",
                    "revert": false,
                    "revertMessage": "",
                    "selector": "0x47e7ef24",
                    "status": true,
                    "value": "0"
                },
                "nodeType": 0
            },
            "1": {
                "invocation": {
                    "address": "0xbe681f8b55a765c048dc2bcdfd5ab05d839bb4c0",
                    "callData": "0x00000000000000000000000061e90a50137e1f645c9ef4a0d3a4f01477738406000000000000000000000000278dc523a855c6947341b73450fc378887b9210b0000000000000000000000005f71d8de858fc038d0e19a5063940dc86a4e6268000000000000000000000000000000000000000000000011ac28a8c729580000",
                    "decodedMethod": {
                        "callParams": [
                            {
                                "name": "token",
                                "type": "address",
                                "value": "0x61e90a50137e1f645c9ef4a0d3a4f01477738406"
                            },
                            {
                                "name": "from",
                                "type": "address",
                                "value": "0x278dc523a855c6947341b73450fc378887b9210b"
                            },
                            {
                                "name": "to",
                                "type": "address",
                                "value": "0x5f71d8de858fc038d0e19a5063940dc86a4e6268"
                            },
                            {
                                "name": "value",
                                "type": "uint256",
                                "value": "326,000,000,000,000,000,000"
                            }
                        ],
                        "constructorArguments": "",
                        "name": "transferToken",
                        "returnParams": [],
                        "signature": "transferToken(address,address,address,uint256)"
                    },
                    "errorInfo": "",
                    "fromAddress": "0x5f71d8de858fc038d0e19a5063940dc86a4e6268",
                    "gasUsed": 30393,
                    "id": 1,
                    "methodDecoded": true,
                    "operation": "CALL",
                    "output": "",
                    "revert": false,
                    "revertMessage": "",
                    "selector": "0x2c54de4f",
                    "status": true,
                    "value": "0"
                },
                "nodeType": 0
            },
            "2": {
                "invocation": {
                    "address": "0x61e90a50137e1f645c9ef4a0d3a4f01477738406",
                    "callData": "0x000000000000000000000000278dc523a855c6947341b73450fc378887b9210b0000000000000000000000005f71d8de858fc038d0e19a5063940dc86a4e6268000000000000000000000000000000000000000000000011ac28a8c729580000",
                    "decodedMethod": {
                        "callParams": [
                            {
                                "name": "sender",
                                "type": "address",
                                "value": "0x278dc523a855c6947341b73450fc378887b9210b"
                            },
                            {
                                "name": "recipient",
                                "type": "address",
                                "value": "0x5f71d8de858fc038d0e19a5063940dc86a4e6268"
                            },
                            {
                                "decimalAvailable": true,
                                "name": "amount",
                                "type": "uint256",
                                "value": "326,000,000,000,000,000,000"
                            }
                        ],
                        "constructorArguments": "",
                        "name": "transferFrom",
                        "returnParams": [
                            {
                                "name": "",
                                "type": "bool",
                                "value": true
                            }
                        ],
                        "signature": "transferFrom(address,address,uint256)"
                    },
                    "errorInfo": "",
                    "fromAddress": "0xbe681f8b55a765c048dc2bcdfd5ab05d839bb4c0",
                    "gasUsed": 21323,
                    "id": 2,
                    "methodDecoded": true,
                    "operation": "CALL",
                    "output": "0x0000000000000000000000000000000000000000000000000000000000000001",
                    "revert": false,
                    "revertMessage": "",
                    "selector": "0x23b872dd",
                    "status": true,
                    "value": "0"
                },
                "nodeType": 0
            },
            "3": {
                "event": {
                    "contract": "0x61e90a50137e1f645c9ef4a0d3a4f01477738406",
                    "decodedLog": {
                        "name": "Transfer",
                        "params": [
                            {
                                "name": "from",
                                "type": "address",
                                "value": "0x278dc523a855c6947341b73450fc378887b9210b"
                            },
                            {
                                "name": "to",
                                "type": "address",
                                "value": "0x5f71d8de858fc038d0e19a5063940dc86a4e6268"
                            },
                            {
                                "decimalAvailable": true,
                                "name": "value",
                                "type": "uint256",
                                "value": "326,000,000,000,000,000,000"
                            }
                        ],
                        "signature": "Transfer(address,address,uint256)"
                    },
                    "id": 3,
                    "logData": "0x000000000000000000000000000000000000000000000011ac28a8c729580000",
                    "logDecoded": true,
                    "operation": "EVENT",
                    "revert": false,
                    "status": true,
                    "topics": [
                        "0xddf252ad1be2c89b69c2b068fc378daa952ba7f163c4a11628f55a4df523b3ef",
                        "0x000000000000000000000000278dc523a855c6947341b73450fc378887b9210b",
                        "0x0000000000000000000000005f71d8de858fc038d0e19a5063940dc86a4e6268"
                    ]
                },
                "nodeType": 1
            },
            "4": {
                "event": {
                    "contract": "0x61e90a50137e1f645c9ef4a0d3a4f01477738406",
                    "decodedLog": {
                        "name": "Approval",
                        "params": [
                            {
                                "name": "owner",
                                "type": "address",
                                "value": "0x278dc523a855c6947341b73450fc378887b9210b"
                            },
                            {
                                "name": "spender",
                                "type": "address",
                                "value": "0xbe681f8b55a765c048dc2bcdfd5ab05d839bb4c0"
                            },
                            {
                                "decimalAvailable": true,
                                "name": "value",
                                "type": "uint256",
                                "value": "647,349,034,374,422,927"
                            }
                        ],
                        "signature": "Approval(address,address,uint256)"
                    },
                    "id": 4,
                    "logData": "0x00000000000000000000000000000000000000000000000008fbd8845794618f",
                    "logDecoded": true,
                    "operation": "EVENT",
                    "revert": false,
                    "status": true,
                    "topics": [
                        "0x8c5be1e5ebec7d5bd14f71427d1e84f3dd0314c0f7b2291e5b200ac8c7c3b925",
                        "0x000000000000000000000000278dc523a855c6947341b73450fc378887b9210b",
                        "0x000000000000000000000000be681f8b55a765c048dc2bcdfd5ab05d839bb4c0"
                    ]
                },
                "nodeType": 1
            },
            "5": {
                "invocation": {
                    "address": "0xfe5e5d361b2ad62c541bab87c45a0b9b018389a2",
                    "callData": "0x000000000000000000000000fb47a80ba0c4c071ed295e7e004536ea9107012b0000000000000000000000000000000000000000000000000000000000000040000000000000000000000000000000000000000000000000000000000000008000000000000000000000000061e90a50137e1f645c9ef4a0d3a4f014777384060000000000000000000000000c0391a4abef50fc9386f69f2266d4d2fbeb96c7000000000000000000000000278dc523a855c6947341b73450fc378887b9210b000000000000000000000000000000000000000000000011ac28a8c729580000",
                    "decodedMethod": {
                        "callParams": [
                            {
                                "name": "_receiver",
                                "type": "address",
                                "value": "0xfb47a80ba0c4c071ed295e7e004536ea9107012b"
                            },
                            {
                                "name": "_data",
                                "type": "bytes",
                                "value": "0x00000000000000000000000061e90a50137e1f645c9ef4a0d3a4f014777384060000000000000000000000000c0391a4abef50fc9386f69f2266d4d2fbeb96c7000000000000000000000000278dc523a855c6947341b73450fc378887b9210b000000000000000000000000000000000000000000000011ac28a8c729580000"
                            }
                        ],
                        "constructorArguments": "",
                        "name": "sendMessageToChild",
                        "returnParams": [],
                        "signature": "sendMessageToChild(address,bytes)"
                    },
                    "errorInfo": "",
                    "fromAddress": "0x5f71d8de858fc038d0e19a5063940dc86a4e6268",
                    "gasUsed": 20775,
                    "id": 5,
                    "methodDecoded": true,
                    "operation": "CALL",
                    "output": "",
                    "revert": false,
                    "revertMessage": "",
                    "selector": "0xb4720477",
                    "status": true,
                    "value": "0"
                },
                "nodeType": 0
            },
            "6": {
                "invocation": {
                    "address": "0x28e4f3a7f651294b9564800b2d01f35189a5bfbe",
                    "callData": "0x0000000000000000000000008397259c983751daf40400790063935a11afa28a000000000000000000000000000000000000000000000000000000000000004000000000000000000000000000000000000000000000000000000000000001000000000000000000000000005f71d8de858fc038d0e19a5063940dc86a4e6268000000000000000000000000fb47a80ba0c4c071ed295e7e004536ea9107012b0000000000000000000000000000000000000000000000000000000000000060000000000000000000000000000000000000000000000000000000000000008000000000000000000000000061e90a50137e1f645c9ef4a0d3a4f014777384060000000000000000000000000c0391a4abef50fc9386f69f2266d4d2fbeb96c7000000000000000000000000278dc523a855c6947341b73450fc378887b9210b000000000000000000000000000000000000000000000011ac28a8c729580000",
                    "decodedMethod": {
                        "callParams": [
                            {
                                "name": "receiver",
                                "type": "address",
                                "value": "0x8397259c983751daf40400790063935a11afa28a"
                            },
                            {
                                "name": "data",
                                "type": "bytes",
                                "value": "0x0000000000000000000000005f71d8de858fc038d0e19a5063940dc86a4e6268000000000000000000000000fb47a80ba0c4c071ed295e7e004536ea9107012b0000000000000000000000000000000000000000000000000000000000000060000000000000000000000000000000000000000000000000000000000000008000000000000000000000000061e90a50137e1f645c9ef4a0d3a4f014777384060000000000000000000000000c0391a4abef50fc9386f69f2266d4d2fbeb96c7000000000000000000000000278dc523a855c6947341b73450fc378887b9210b000000000000000000000000000000000000000000000011ac28a8c729580000"
                            }
                        ],
                        "constructorArguments": "",
                        "name": "syncState",
                        "returnParams": [],
                        "signature": "syncState(address,bytes)"
                    },
                    "errorInfo": "",
                    "fromAddress": "0xfe5e5d361b2ad62c541bab87c45a0b9b018389a2",
                    "gasUsed": 12126,
                    "id": 6,
                    "methodDecoded": true,
                    "operation": "CALL",
                    "output": "",
                    "revert": false,
                    "revertMessage": "",
                    "selector": "0x16f19831",
                    "status": true,
                    "value": "0"
                },
                "nodeType": 0
            },
            "7": {
                "event": {
                    "contract": "0x28e4f3a7f651294b9564800b2d01f35189a5bfbe",
                    "decodedLog": {
                        "name": "StateSynced",
                        "params": [
                            {
                                "name": "id",
                                "type": "uint256",
                                "value": "2,639,566"
                            },
                            {
                                "name": "contractAddress",
                                "type": "address",
                                "value": "0x8397259c983751daf40400790063935a11afa28a"
                            },
                            {
                                "name": "data",
                                "type": "bytes",
                                "value": "0x0000000000000000000000005f71d8de858fc038d0e19a5063940dc86a4e6268000000000000000000000000fb47a80ba0c4c071ed295e7e004536ea9107012b0000000000000000000000000000000000000000000000000000000000000060000000000000000000000000000000000000000000000000000000000000008000000000000000000000000061e90a50137e1f645c9ef4a0d3a4f014777384060000000000000000000000000c0391a4abef50fc9386f69f2266d4d2fbeb96c7000000000000000000000000278dc523a855c6947341b73450fc378887b9210b000000000000000000000000000000000000000000000011ac28a8c729580000"
                            }
                        ],
                        "signature": "StateSynced(uint256,address,bytes)"
                    },
                    "id": 7,
                    "logData": "0x000000000000000000000000000000000000000000000000000000000000002000000000000000000000000000000000000000000000000000000000000001000000000000000000000000005f71d8de858fc038d0e19a5063940dc86a4e6268000000000000000000000000fb47a80ba0c4c071ed295e7e004536ea9107012b0000000000000000000000000000000000000000000000000000000000000060000000000000000000000000000000000000000000000000000000000000008000000000000000000000000061e90a50137e1f645c9ef4a0d3a4f014777384060000000000000000000000000c0391a4abef50fc9386f69f2266d4d2fbeb96c7000000000000000000000000278dc523a855c6947341b73450fc378887b9210b000000000000000000000000000000000000000000000011ac28a8c729580000",
                    "logDecoded": true,
                    "operation": "EVENT",
                    "revert": false,
                    "status": true,
                    "topics": [
                        "0x103fed9db65eac19c4d870f49ab7520fe03b99f1838e5996caf47e9e43308392",
                        "0x00000000000000000000000000000000000000000000000000000000002846ce",
                        "0x0000000000000000000000008397259c983751daf40400790063935a11afa28a"
                    ]
                },
                "nodeType": 1
            },
            "8": {
                "event": {
                    "contract": "0x5f71d8de858fc038d0e19a5063940dc86a4e6268",
                    "decodedLog": null,
                    "id": 8,
                    "logData": "0x000000000000000000000000000000000000000000000011ac28a8c729580000",
                    "logDecoded": false,
                    "operation": "EVENT",
                    "revert": false,
                    "status": true,
                    "topics": [
                        "0x53c76111c51def35d0e7c8ab32192a2ca8f15f3917f169a2c135ecde1647e16e",
                        "0x00000000000000000000000061e90a50137e1f645c9ef4a0d3a4f01477738406",
                        "0x0000000000000000000000000c0391a4abef50fc9386f69f2266d4d2fbeb96c7",
                        "0x000000000000000000000000278dc523a855c6947341b73450fc378887b9210b"
                    ]
                },
                "nodeType": 1
            }
        },
        "gasFlame": [
            {
                "children": [
                    {
                        "children": [
                            {
                                "children": [],
                                "depth": 0,
                                "name": "Initial Gas",
                                "value": 21644
                            },
                            {
                                "children": [
                                    {
                                        "children": [
                                            {
                                                "children": [],
                                                "depth": 2,
                                                "name": "transferFrom",
                                                "value": 21323
                                            }
                                        ],
                                        "depth": 1,
                                        "name": "transferToken",
                                        "value": 30393
                                    },
                                    {
                                        "children": [
                                            {
                                                "children": [],
                                                "depth": 2,
                                                "name": "syncState",
                                                "value": 12126
                                            }
                                        ],
                                        "depth": 1,
                                        "name": "sendMessageToChild",
                                        "value": 20775
                                    }
                                ],
                                "depth": 0,
                                "name": "Executed Gas",
                                "value": 70769
                            }
                        ],
                        "depth": -1,
                        "name": "Actual Gas Used",
                        "value": 92413
                    },
                    {
                        "children": [],
                        "depth": -1,
                        "name": "Refunded Gas",
                        "value": 0
                    }
                ],
                "depth": -2,
                "name": "Total Gas",
                "value": 92413
            }
        ],
        "isConfirmed": true,
        "mainTrace": [
            {
                "children": [
                    {
                        "children": [
                            {
                                "children": [
                                    {
                                        "children": [
                                            {
                                                "children": [],
                                                "depth": 3,
                                                "id": 3,
                                                "order": 3
                                            },
                                            {
                                                "children": [],
                                                "depth": 3,
                                                "id": 4,
                                                "order": 4
                                            }
                                        ],
                                        "depth": 2,
                                        "id": 2,
                                        "order": 2
                                    }
                                ],
                                "depth": 1,
                                "id": 1,
                                "order": 1
                            },
                            {
                                "children": [
                                    {
                                        "children": [
                                            {
                                                "children": [],
                                                "depth": 3,
                                                "id": 7,
                                                "order": 7
                                            }
                                        ],
                                        "depth": 2,
                                        "id": 6,
                                        "order": 6
                                    }
                                ],
                                "depth": 1,
                                "id": 5,
                                "order": 5
                            },
                            {
                                "children": [],
                                "depth": 1,
                                "id": 8,
                                "order": 8
                            }
                        ],
                        "depth": 0,
                        "id": 0,
                        "order": 0
                    }
                ],
                "depth": -1,
                "id": -1,
                "order": -1
            }
        ],
        "mainTraceNodeCount": 9,
        "parentIdMap": {
            "0": -1,
            "1": 0,
            "2": 1,
            "3": 2,
            "4": 2,
            "5": 0,
            "6": 5,
            "7": 6,
            "8": 0
        },
        "tidyTrace": [
            {
                "children": [
                    {
                        "children": [
                            {
                                "children": [
                                    {
                                        "children": [
                                            {
                                                "children": [],
                                                "depth": 3,
                                                "id": 3,
                                                "order": 3
                                            },
                                            {
                                                "children": [],
                                                "depth": 3,
                                                "id": 4,
                                                "order": 4
                                            }
                                        ],
                                        "depth": 2,
                                        "id": 2,
                                        "order": 2
                                    }
                                ],
                                "depth": 1,
                                "id": 1,
                                "order": 1
                            },
                            {
                                "children": [
                                    {
                                        "children": [
                                            {
                                                "children": [],
                                                "depth": 3,
                                                "id": 7,
                                                "order": 7
                                            }
                                        ],
                                        "depth": 2,
                                        "id": 6,
                                        "order": 6
                                    }
                                ],
                                "depth": 1,
                                "id": 5,
                                "order": 5
                            },
                            {
                                "children": [],
                                "depth": 1,
                                "id": 8,
                                "order": 8
                            }
                        ],
                        "depth": 0,
                        "id": 0,
                        "order": 0
                    }
                ],
                "depth": -1,
                "id": -1,
                "order": -1
            }
        ],
        "tidyTraceNodeCount": 9
    },
    "state_change": {
        "stateChanges": [
            {
                "address": "0x28e4f3a7f651294b9564800b2d01f35189a5bfbe",
                "erc": "",
                "slots": [
                    {
                        "current": "0x00000000000000000000000000000000000000000000000000000000002846ce",
                        "key": "0x0000000000000000000000000000000000000000000000000000000000000001",
                        "prev": "0x00000000000000000000000000000000000000000000000000000000002846cd"
                    }
                ],
                "storageVariables": [
                    {
                        "name": "counter",
                        "type": "uint256",
                        "value": {
                            "current": "2639566",
                            "prev": "2639565",
                            "typeTag": 1
                        }
                    }
                ]
            },
            {
                "address": "0x61e90a50137e1f645c9ef4a0d3a4f01477738406",
                "erc": "ERC-20",
                "slots": [
                    {
                        "current": "0x00000000000000000000000000000000000000000000057652358307b7c40000",
                        "key": "0x142383028ec5bbd0ea8f51bd0430fc3b6a9d5aa2f8c267fe1e6710f04862364e",
                        "prev": "0x000000000000000000000000000000000000000000000564a60cda408e6c0000"
                    },
                    {
                        "current": "0x00000000000000000000000000000000000000000000000008fbd8845794618f",
                        "key": "0xfbd8c5320aec3ccc6dcfd56cb343882a385a329151a31d7d273a17ccc3ee6f8a",
                        "prev": "0x000000000000000000000000000000000000000000000011b524814b80ec618f"
                    },
                    {
                        "current": "0x00000000000000000000000000000000000000000000000008fbd8845794618f",
                        "key": "0xb7ce6e51ec1cd3fa87e1ef6959a340ab4fab12196e7e66d944390edfad6be5b7",
                        "prev": "0x000000000000000000000000000000000000000000000011b524814b80ec618f"
                    }
                ],
                "storageVariables": [
                    {
                        "name": "_balances",
                        "type": "mapping(address => uint256)",
                        "value": {
                            "pairs": [
                                {
                                    "key": "0x278dc523a855c6947341b73450fc378887b9210b",
                                    "value": {
                                        "current": "647349034374422927",
                                        "prev": "326647349034374422927",
                                        "typeTag": 1
                                    }
                                },
                                {
                                    "key": "0x5f71d8de858fc038d0e19a5063940dc86a4e6268",
                                    "value": {
                                        "current": "25794472000000000000000",
                                        "prev": "25468472000000000000000",
                                        "typeTag": 1
                                    }
                                }
                            ],
                            "typeTag": 4
                        }
                    },
                    {
                        "name": "_allowances",
                        "type": "mapping(address => mapping(address => uint256))",
                        "value": {
                            "pairs": [
                                {
                                    "key": "0x278dc523a855c6947341b73450fc378887b9210b",
                                    "value": {
                                        "pairs": [
                                            {
                                                "key": "0xbe681f8b55a765c048dc2bcdfd5ab05d839bb4c0",
                                                "value": {
                                                    "current": "647349034374422927",
                                                    "prev": "326647349034374422927",
                                                    "typeTag": 1
                                                }
                                            }
                                        ],
                                        "typeTag": 4
                                    }
                                }
                            ],
                            "typeTag": 4
                        }
                    }
                ]
            }
        ]
    }
}