{
    "balance_change": {
        "balanceChanges": [
            {
                "account": "0xa5a13f62ce1113838e0d9b4559b8caf5f76463c0",
                "assets": [
                    {
                        "address": "0xeeeeeeeeeeeeeeeeeeeeeeeeeeeeeeeeeeeeeeee",
                        "amount": "0.000000000000034565",
                        "iconUrl": "https://assets.blocksec.com/image/1663669189317-3.png",
                        "isERC1155": false,
                        "isERC721": false,
                        "sign": false,
                        "value": "0.00000000005872298048749499714"
                    }
                ]
            },
            {
                "account": "0xa57bd00134b2850b2a1c55860c9e9ea100fdd6cf",
                "assets": [
                    {
                        "address": "0xeeeeeeeeeeeeeeeeeeeeeeeeeeeeeeeeeeeeeeee",
                        "amount": "0.000000000000034565",
                        "iconUrl": "https://assets.blocksec.com/image/1663669189317-3.png",
                        "isERC1155": false,
                        "isERC721": false,
                        "sign": true,
                        "value": "0.00000000005872298048749499714"
                    }
                ]
            },
            {
                "account": "0x56178a0d5f301baf6cf3e1cd53d9863437345bf9",
                "assets": [
                    {
                        "address": "0x95ad61b0a150d79219dcf64e1e6cc01f0b64c4ce",
                        "amount": "1,466,037,630.992376211313630141",
                        "iconUrl": "https://assets.blocksec.com/icon/56235cdcac277d59ed89deae8cb8e206f4c4384e75186903e74565b748deabf5.png",
                        "isERC1155": false,
                        "isERC721": false,
                        "sign": false,
                        "value": "18334.83172"
                    },
                    {
                        "address": "0xc02aaa39b223fe8d0a0e5c4f27ead9083c756cc2",
                        "amount": "11.9111490390855794",
                        "iconUrl": "https://assets.blocksec.com/icon/f1cb2d02c471d545bbc7722daf3277fd852d98e63d118771af7047bd8256c516.png",
                        "isERC1155": false,
                        "isERC721": false,
                        "sign": true,
                        "value": "20236.024089673506936"
                    }
                ]
            },
            {
                "account": "0xcf6daab95c476106eca715d48de4b13287ffdeaa",
                "assets": [
                    {
                        "address": "0x95ad61b0a150d79219dcf64e1e6cc01f0b64c4ce",
                        "amount": "1,466,037,630.992376211313630141",
                        "iconUrl": "https://assets.blocksec.com/icon/56235cdcac277d59ed89deae8cb8e206f4c4384e75186903e74565b748deabf5.png",
                        "isERC1155": false,
                        "isERC721": false,
                        "sign": true,
                        "value": "18334.83172"
                    },
                    {
                        "address": "0xc02aaa39b223fe8d0a0e5c4f27ead9083c756cc2",
                        "amount": "11.9111490390855794",
                        "iconUrl": "https://assets.blocksec.com/icon/f1cb2d02c471d545bbc7722daf3277fd852d98e63d118771af7047bd8256c516.png",
                        "isERC1155": false,
                        "isERC721": false,
                        "sign": false,
                        "value": "20236.024089673506936"
                    }
                ]
            }
        ]
    },
    "profile": {
        "basic_info": {
            "baseFee": "33.369720593",
            "blockNumber": 15435296,
            "callData": "0x1cff79cd000000000000000000000000da29682e77834e9b9e89417bca4f528ae484c80f0000000000000000000000000000000000000000000000000000000000000040000000000000000000000000000000000000000000000000000000000000016446446503000000000000000000000000cf6daab95c476106eca715d48de4b13287ffdeaa00000000000000000000000095ad61b0a150d79219dcf64e1e6cc01f0b64c4ce000000000000000000000000c02aaa39b223fe8d0a0e5c4f27ead9083c756cc200000000000000000000000056178a0d5f301baf6cf3e1cd53d9863437345bf900000000000000000000000000000000000000000002486dea4d965fdce77d000000000000000000000000000000000000000000592d459076c1fdea9493a000000000000000000000000000000000000000065ccd5d84781cc6726832e4000000000000000000000000000000000000000000000000000000000001e24a63f600000000000000000000000000000000000000000000000000000001e24a63f600000000000000000000000000000000000000000000000000000000630cf108000000000000000000000000000000000000000000000000000000000000000000000000000000000000000000000000000000000000000000000000",
            "debugEnable": true,
            "errorInfo": "",
            "eventCount": 5,
            "feeRecipient": "0xc365c3315cf926351ccaf13fa7d19c8c4058c8e1",
            "formatValue": "0.000000000000034565",
            "gasLimit": 275084,
            "gasPrice": "34.869720594",
            "gasUsed": 117542,
            "intTxnCount": 10,
            "internalRevert": false,
            "internalRevertMessage": "",
            "isContractCreation": false,
            "isFlashloan": false,
            "maxFee": "52.351002511",
            "nonce": 91981,
            "overwritedBlockNumber": -1,
            "priorityFee": "1.500000001",
            "receiver": "0xa57bd00134b2850b2a1c55860c9e9ea100fdd6cf",
            "revertMessage": "",
            "sender": "0xa5a13f62ce1113838e0d9b4559b8caf5f76463c0",
            "simulationEnable": true,
            "sourceTxnHash": "0x10a20117aafd51991701880244f2179a28b1cb16bfd3e2e03131d9e66a3fc47a",
            "status": true,
            "timestamp": "2022-08-29T16:59:53Z",
            "transactionFee": "0.004098656698059948",
            "txnHash": "0x10a20117aafd51991701880244f2179a28b1cb16bfd3e2e03131d9e66a3fc47a",
            "txnIndex": 52,
            "type": 2,
            "value": "34565"
        },
        "fund_flow": [
            {
                "amount": "0.000000000000034565",
                "from": "0xa5a13f62ce1113838e0d9b4559b8caf5f76463c0",
                "id": 1,
                "isERC1155": false,
                "isERC721": false,
                "isReverted": false,
                "order": 1,
                "to": "0xa57bd00134b2850b2a1c55860c9e9ea100fdd6cf",
                "token": "0xeeeeeeeeeeeeeeeeeeeeeeeeeeeeeeeeeeeeeeee"
            },
            {
                "amount": "1,466,037,630.992376211313630141",
                "from": "0x56178a0d5f301baf6cf3e1cd53d9863437345bf9",
                "id": 2,
                "isERC1155": false,
                "isERC721": false,
                "isReverted": false,
                "order": 2,
                "to": "0xcf6daab95c476106eca715d48de4b13287ffdeaa",
                "token": "0x95ad61b0a150d79219dcf64e1e6cc01f0b64c4ce"
            },
            {
                "amount": "11.9111490390855794",
                "from": "0xcf6daab95c476106eca715d48de4b13287ffdeaa",
                "id": 3,
                "isERC1155": false,
                "isERC721": false,
                "isReverted": false,
                "order": 3,
                "to": "0x56178a0d5f301baf6cf3e1cd53d9863437345bf9",
                "token": "0xc02aaa39b223fe8d0a0e5c4f27ead9083c756cc2"
            }
        ],
        "token_infos": [
            {
                "address": "0x95ad61b0a150d79219dcf64e1e6cc01f0b64c4ce",
                "decimals": 18
            },
            {
                "address": "0xc02aaa39b223fe8d0a0e5c4f27ead9083c756cc2",
                "decimals": 18
            },
            {
                "address": "0xeeeeeeeeeeeeeeeeeeeeeeeeeeeeeeeeeeeeeeee",
                "decimals": 18
            }
        ]
    },
    "address_label": {
        "labels": [
            {
                "address": "0x95ad61b0a150d79219dcf64e1e6cc01f0b64c4ce",
                "label": "Shiba Inu: SHIB Token"
            },
            {
                "address": "0xc02aaa39b223fe8d0a0e5c4f27ead9083c756cc2",
                "label": "Wrapped Ether (WETH)"
            },
            {
                "address": "0xa57bd00134b2850b2a1c55860c9e9ea100fdd6cf",
                "label": "MEV Bot: 0xa57...6CF"
            },
            {
                "address": "0xcf6daab95c476106eca715d48de4b13287ffdeaa",
                "label": "ShibaSwap LP Token (SSLP)"
            },
            {
                "address": "0x0000000000000000000000000000000000000001",
                "label": "Precompiled"
            },
            {
                "address": "0x0000000000000000000000000000000000000004",
                "label": "Precompiled"
            },
            {
                "address": "0xeeeeeeeeeeeeeeeeeeeeeeeeeeeeeeeeeeeeeeee",
                "label": "Ether"
            },
            {
                "address": "0x0000000000000000000000000000000000000002",
                "label": "Precompiled"
            },
            {
                "address": "0x0000000000000000000000000000000000000003",
                "label": "Precompiled"
            }
        ]
    },
    "trace": {
        "accountLabels": null,
        "dataMap": {
            "-1": {
                "invocation": {
                    "address": "0xa5a13f62ce1113838e0d9b4559b8caf5f76463c0",
                    "callData": "",
                    "decodedMethod": null,
                    "errorInfo": "",
                    "fromAddress": "",
                    "gasUsed": 0,
                    "id": -1,
                    "methodDecoded": false,
                    "operation": "",
                    "output": "",
                    "revert": false,
                    "revertMessage": "",
                    "selector": "",
                    "status": false,
                    "value": ""
                },
                "nodeType": 0
            },
            "0": {
                "invocation": {
                    "address": "0xa57bd00134b2850b2a1c55860c9e9ea100fdd6cf",
                    "callData": "0x000000000000000000000000da29682e77834e9b9e89417bca4f528ae484c80f0000000000000000000000000000000000000000000000000000000000000040000000000000000000000000000000000000000000000000000000000000016446446503000000000000000000000000cf6daab95c476106eca715d48de4b13287ffdeaa00000000000000000000000095ad61b0a150d79219dcf64e1e6cc01f0b64c4ce000000000000000000000000c02aaa39b223fe8d0a0e5c4f27ead9083c756cc200000000000000000000000056178a0d5f301baf6cf3e1cd53d9863437345bf900000000000000000000000000000000000000000002486dea4d965fdce77d000000000000000000000000000000000000000000592d459076c1fdea9493a000000000000000000000000000000000000000065ccd5d84781cc6726832e4000000000000000000000000000000000000000000000000000000000001e24a63f600000000000000000000000000000000000000000000000000000001e24a63f600000000000000000000000000000000000000000000000000000000630cf108000000000000000000000000000000000000000000000000000000000000000000000000000000000000000000000000000000000000000000000000",
                    "decodedMethod": {
                        "callParams": [
                            {
                                "name": "_target",
                                "type": "address",
                                "value": "0xda29682e77834e9b9e89417bca4f528ae484c80f"
                            },
                            {
                                "name": "_data",
                                "type": "bytes",
                                "value": "0x46446503000000000000000000000000cf6daab95c476106eca715d48de4b13287ffdeaa00000000000000000000000095ad61b0a150d79219dcf64e1e6cc01f0b64c4ce000000000000000000000000c02aaa39b223fe8d0a0e5c4f27ead9083c756cc200000000000000000000000056178a0d5f301baf6cf3e1cd53d9863437345bf900000000000000000000000000000000000000000002486dea4d965fdce77d000000000000000000000000000000000000000000592d459076c1fdea9493a000000000000000000000000000000000000000065ccd5d84781cc6726832e4000000000000000000000000000000000000000000000000000000000001e24a63f600000000000000000000000000000000000000000000000000000001e24a63f600000000000000000000000000000000000000000000000000000000630cf1080000000000000000000000000000000000000000000000000000000000000000"
                            }
                        ],
                        "constructorArguments": "",
                        "name": "execute",
                        "returnParams": [],
                        "signature": "execute(address,bytes)"
                    },
                    "errorInfo": "",
                    "fromAddress": "0xa5a13f62ce1113838e0d9b4559b8caf5f76463c0",
                    "gasUsed": 117542,
                    "id": 0,
                    "methodDecoded": true,
                    "operation": "CALL",
                    "output": "",
                    "revert": false,
                    "revertMessage": "",
                    "selector": "0x1cff79cd",
                    "status": true,
                    "value": "0.000000000000034565"
                },
                "nodeType": 0
            },
            "1": {
                "invocation": {
                    "address": "0xda29682e77834e9b9e89417bca4f528ae484c80f",
                    "callData": "0x000000000000000000000000cf6daab95c476106eca715d48de4b13287ffdeaa00000000000000000000000095ad61b0a150d79219dcf64e1e6cc01f0b64c4ce000000000000000000000000c02aaa39b223fe8d0a0e5c4f27ead9083c756cc200000000000000000000000056178a0d5f301baf6cf3e1cd53d9863437345bf900000000000000000000000000000000000000000002486dea4d965fdce77d000000000000000000000000000000000000000000592d459076c1fdea9493a000000000000000000000000000000000000000065ccd5d84781cc6726832e4000000000000000000000000000000000000000000000000000000000001e24a63f600000000000000000000000000000000000000000000000000000001e24a63f600000000000000000000000000000000000000000000000000000000630cf1080000000000000000000000000000000000000000000000000000000000000000",
                    "decodedMethod": null,
                    "errorInfo": "",
                    "fromAddress": "0xa57bd00134b2850b2a1c55860c9e9ea100fdd6cf",
                    "gasUsed": 89991,
                    "id": 1,
                    "methodDecoded": false,
                    "operation": "DELEGATECALL",
                    "output": "0x000000000000000000000000000000000000000004bcad8b392ee56b1e1d9bbd00000000000000000000000000000000000000000000000000ad12488253af99",
                    "revert": false,
                    "revertMessage": "",
                    "selector": "0x46446503",
                    "status": true,
                    "value": "0.000000000000034565"
                },
                "nodeType": 0
            },
            "10": {
                "invocation": {
                    "address": "0xc02aaa39b223fe8d0a0e5c4f27ead9083c756cc2",
                    "callData": "0x00000000000000000000000056178a0d5f301baf6cf3e1cd53d9863437345bf9000000000000000000000000000000000000000000000000a54ce6f16d6e6c88",
                    "decodedMethod": {
                        "callParams": [
                            {
                                "name": "dst",
                                "type": "address",
                                "value": "0x56178a0d5f301baf6cf3e1cd53d9863437345bf9"
                            },
                            {
                                "decimalAvailable": true,
                                "name": "wad",
                                "type": "uint256",
                                "value": "11,911,149,039,085,579,400"
                            }
                        ],
                        "constructorArguments": "",
                        "name": "transfer",
                        "returnParams": [
                            {
                                "name": "",
                                "type": "bool",
                                "value": true
                            }
                        ],
                        "signature": "transfer(address,uint256)"
                    },
                    "errorInfo": "",
                    "fromAddress": "0xcf6daab95c476106eca715d48de4b13287ffdeaa",
                    "gasUsed": 12862,
                    "id": 10,
                    "methodDecoded": true,
                    "operation": "CALL",
                    "output": "0x0000000000000000000000000000000000000000000000000000000000000001",
                    "revert": false,
                    "revertMessage": "",
                    "selector": "0xa9059cbb",
                    "status": true,
                    "value": "0"
                },
                "nodeType": 0
            },
            "11": {
                "event": {
                    "contract": "0xc02aaa39b223fe8d0a0e5c4f27ead9083c756cc2",
                    "decodedLog": {
                        "name": "Transfer",
                        "params": [
                            {
                                "name": "src",
                                "type": "address",
                                "value": "0xcf6daab95c476106eca715d48de4b13287ffdeaa"
                            },
                            {
                                "name": "dst",
                                "type": "address",
                                "value": "0x56178a0d5f301baf6cf3e1cd53d9863437345bf9"
                            },
                            {
                                "decimalAvailable": true,
                                "name": "wad",
                                "type": "uint256",
                                "value": "11,911,149,039,085,579,400"
                            }
                        ],
                        "signature": "Transfer(address,address,uint256)"
                    },
                    "id": 11,
                    "logData": "0x000000000000000000000000000000000000000000000000a54ce6f16d6e6c88",
                    "logDecoded": true,
                    "operation": "EVENT",
                    "revert": false,
                    "status": true,
                    "topics": [
                        "0xddf252ad1be2c89b69c2b068fc378daa952ba7f163c4a11628f55a4df523b3ef",
                        "0x000000000000000000000000cf6daab95c476106eca715d48de4b13287ffdeaa",
                        "0x00000000000000000000000056178a0d5f301baf6cf3e1cd53d9863437345bf9"
                    ]
                },
                "nodeType": 1
            },
            "12": {
                "invocation": {
                    "address": "0x95ad61b0a150d79219dcf64e1e6cc01f0b64c4ce",
                    "callData": "0x000000000000000000000000cf6daab95c476106eca715d48de4b13287ffdeaa",
                    "decodedMethod": {
                        "callParams": [
                            {
                                "name": "account",
                                "type": "address",
                                "value": "0xcf6daab95c476106eca715d48de4b13287ffdeaa"
                            }
                        ],
                        "constructorArguments": "",
                        "name": "balanceOf",
                        "returnParams": [
                            {
                                "decimalAvailable": true,
                                "name": "",
                                "type": "uint256",
                                "value": "355,921,561,039,262,766,693,546,352,996"
                            }
                        ],
                        "signature": "balanceOf(address)"
                    },
                    "errorInfo": "",
                    "fromAddress": "0xcf6daab95c476106eca715d48de4b13287ffdeaa",
                    "gasUsed": 639,
                    "id": 12,
                    "methodDecoded": true,
                    "operation": "STATICCALL",
                    "output": "0x00000000000000000000000000000000000000047e0b6a35a8f84443b17e6164",
                    "revert": false,
                    "revertMessage": "",
                    "selector": "0x70a08231",
                    "status": true,
                    "value": "0"
                },
                "nodeType": 0
            },
            "13": {
                "invocation": {
                    "address": "0xc02aaa39b223fe8d0a0e5c4f27ead9083c756cc2",
                    "callData": "0x000000000000000000000000cf6daab95c476106eca715d48de4b13287ffdeaa",
                    "decodedMethod": {
                        "callParams": [
                            {
                                "name": "",
                                "type": "address",
                                "value": "0xcf6daab95c476106eca715d48de4b13287ffdeaa"
                            }
                        ],
                        "constructorArguments": "",
                        "name": "balanceOf",
                        "returnParams": [
                            {
                                "decimalAvailable": true,
                                "name": "",
                                "type": "uint256",
                                "value": "2,888,518,348,582,225,376,802"
                            }
                        ],
                        "signature": "balanceOf(address)"
                    },
                    "errorInfo": "",
                    "fromAddress": "0xcf6daab95c476106eca715d48de4b13287ffdeaa",
                    "gasUsed": 534,
                    "id": 13,
                    "methodDecoded": true,
                    "operation": "STATICCALL",
                    "output": "0x00000000000000000000000000000000000000000000009c963ea602697ef622",
                    "revert": false,
                    "revertMessage": "",
                    "selector": "0x70a08231",
                    "status": true,
                    "value": "0"
                },
                "nodeType": 0
            },
            "14": {
                "event": {
                    "contract": "0xcf6daab95c476106eca715d48de4b13287ffdeaa",
                    "decodedLog": {
                        "name": "Sync",
                        "params": [
                            {
                                "name": "reserve0",
                                "type": "uint112",
                                "value": "355,921,561,039,262,766,693,546,352,996"
                            },
                            {
                                "name": "reserve1",
                                "type": "uint112",
                                "value": "2,888,518,348,582,225,376,802"
                            }
                        ],
                        "signature": "Sync(uint112,uint112)"
                    },
                    "id": 14,
                    "logData": "0x00000000000000000000000000000000000000047e0b6a35a8f84443b17e616400000000000000000000000000000000000000000000009c963ea602697ef622",
                    "logDecoded": true,
                    "operation": "EVENT",
                    "revert": false,
                    "status": true,
                    "topics": [
                        "0x1c411e9a96e071241c2f21f7726b17ae89e3cab4c78be50e062b03a9fffbbad1"
                    ]
                },
                "nodeType": 1
            },
            "15": {
                "event": {
                    "contract": "0xcf6daab95c476106eca715d48de4b13287ffdeaa",
                    "decodedLog": {
                        "name": "Swap",
                        "params": [
                            {
                                "name": "sender",
                                "type": "address",
                                "value": "0xa57bd00134b2850b2a1c55860c9e9ea100fdd6cf"
                            },
                            {
                                "name": "to",
                                "type": "address",
                                "value": "0x56178a0d5f301baf6cf3e1cd53d9863437345bf9"
                            },
                            {
                                "name": "amount0In",
                                "type": "uint256",
                                "value": "1,466,037,630,992,376,211,313,630,141"
                            },
                            {
                                "name": "amount1In",
                                "type": "uint256",
                                "value": "0"
                            },
                            {
                                "name": "amount0Out",
                                "type": "uint256",
                                "value": "0"
                            },
                            {
                                "name": "amount1Out",
                                "type": "uint256",
                                "value": "11,911,149,039,085,579,400"
                            }
                        ],
                        "signature": "Swap(address,uint256,uint256,uint256,uint256,address)"
                    },
                    "id": 15,
                    "logData": "0x000000000000000000000000000000000000000004bcad8b392ee56b1e1d9bbd00000000000000000000000000000000000000000000000000000000000000000000000000000000000000000000000000000000000000000000000000000000000000000000000000000000000000000000000000000000a54ce6f16d6e6c88",
                    "logDecoded": true,
                    "operation": "EVENT",
                    "revert": false,
                    "status": true,
                    "topics": [
                        "0xd78ad95fa46c994b6551d0da85fc275fe613ce37657fb8d5e3d130840159d822",
                        "0x000000000000000000000000a57bd00134b2850b2a1c55860c9e9ea100fdd6cf",
                        "0x00000000000000000000000056178a0d5f301baf6cf3e1cd53d9863437345bf9"
                    ]
                },
                "nodeType": 1
            },
            "2": {
                "invocation": {
                    "address": "0xcf6daab95c476106eca715d48de4b13287ffdeaa",
                    "callData": "0x",
                    "decodedMethod": {
                        "callParams": [],
                        "constructorArguments": "",
                        "name": "token0",
                        "returnParams": [
                            {
                                "name": "",
                                "type": "address",
                                "value": "0x95ad61b0a150d79219dcf64e1e6cc01f0b64c4ce"
                            }
                        ],
                        "signature": "token0()"
                    },
                    "errorInfo": "",
                    "fromAddress": "0xa57bd00134b2850b2a1c55860c9e9ea100fdd6cf",
                    "gasUsed": 2405,
                    "id": 2,
                    "methodDecoded": true,
                    "operation": "CALL",
                    "output": "0x00000000000000000000000095ad61b0a150d79219dcf64e1e6cc01f0b64c4ce",
                    "revert": false,
                    "revertMessage": "",
                    "selector": "0x0dfe1681",
                    "status": true,
                    "value": "0"
                },
                "nodeType": 0
            },
            "3": {
                "invocation": {
                    "address": "0xcf6daab95c476106eca715d48de4b13287ffdeaa",
                    "callData": "0x",
                    "decodedMethod": {
                        "callParams": [],
                        "constructorArguments": "",
                        "name": "getReserves",
                        "returnParams": [
                            {
                                "name": "_reserve0",
                                "type": "uint112",
                                "value": "354,455,523,408,270,390,482,232,722,855"
                            },
                            {
                                "name": "_reserve1",
                                "type": "uint112",
                                "value": "2,900,429,497,621,310,956,202"
                            },
                            {
                                "name": "_blockTimestampLast",
                                "type": "uint32",
                                "value": "1,661,792,360"
                            }
                        ],
                        "signature": "getReserves()"
                    },
                    "errorInfo": "",
                    "fromAddress": "0xa57bd00134b2850b2a1c55860c9e9ea100fdd6cf",
                    "gasUsed": 2504,
                    "id": 3,
                    "methodDecoded": true,
                    "operation": "CALL",
                    "output": "0x0000000000000000000000000000000000000004794ebcaa6fc95ed89360c5a700000000000000000000000000000000000000000000009d3b8b8cf3d6ed62aa00000000000000000000000000000000000000000000000000000000630cf068",
                    "revert": false,
                    "revertMessage": "",
                    "selector": "0x0902f1ac",
                    "status": true,
                    "value": "0"
                },
                "nodeType": 0
            },
            "4": {
                "invocation": {
                    "address": "0xcf6daab95c476106eca715d48de4b13287ffdeaa",
                    "callData": "0x",
                    "decodedMethod": {
                        "callParams": [],
                        "constructorArguments": "",
                        "name": "totalFee",
                        "returnParams": [
                            {
                                "name": "",
                                "type": "uint256",
                                "value": "3"
                            }
                        ],
                        "signature": "totalFee()"
                    },
                    "errorInfo": "",
                    "fromAddress": "0xa57bd00134b2850b2a1c55860c9e9ea100fdd6cf",
                    "gasUsed": 2410,
                    "id": 4,
                    "methodDecoded": true,
                    "operation": "CALL",
                    "output": "0x0000000000000000000000000000000000000000000000000000000000000003",
                    "revert": false,
                    "revertMessage": "",
                    "selector": "0x1df4ccfc",
                    "status": true,
                    "value": "0"
                },
                "nodeType": 0
            },
            "5": {
                "invocation": {
                    "address": "0x95ad61b0a150d79219dcf64e1e6cc01f0b64c4ce",
                    "callData": "0x00000000000000000000000056178a0d5f301baf6cf3e1cd53d9863437345bf9",
                    "decodedMethod": {
                        "callParams": [
                            {
                                "name": "account",
                                "type": "address",
                                "value": "0x56178a0d5f301baf6cf3e1cd53d9863437345bf9"
                            }
                        ],
                        "constructorArguments": "",
                        "name": "balanceOf",
                        "returnParams": [
                            {
                                "decimalAvailable": true,
                                "name": "",
                                "type": "uint256",
                                "value": "54,326,164,327,268,662,840,724,318,872"
                            }
                        ],
                        "signature": "balanceOf(address)"
                    },
                    "errorInfo": "",
                    "fromAddress": "0xa57bd00134b2850b2a1c55860c9e9ea100fdd6cf",
                    "gasUsed": 2639,
                    "id": 5,
                    "methodDecoded": true,
                    "operation": "CALL",
                    "output": "0x0000000000000000000000000000000000000000af898cc5524b311f86f46a98",
                    "revert": false,
                    "revertMessage": "",
                    "selector": "0x70a08231",
                    "status": true,
                    "value": "0"
                },
                "nodeType": 0
            },
            "6": {
                "invocation": {
                    "address": "0x95ad61b0a150d79219dcf64e1e6cc01f0b64c4ce",
                    "callData": "0x00000000000000000000000056178a0d5f301baf6cf3e1cd53d9863437345bf9000000000000000000000000cf6daab95c476106eca715d48de4b13287ffdeaa000000000000000000000000000000000000000004bcad8b392ee56b1e1d9bbd",
                    "decodedMethod": {
                        "callParams": [
                            {
                                "name": "sender",
                                "type": "address",
                                "value": "0x56178a0d5f301baf6cf3e1cd53d9863437345bf9"
                            },
                            {
                                "name": "recipient",
                                "type": "address",
                                "value": "0xcf6daab95c476106eca715d48de4b13287ffdeaa"
                            },
                            {
                                "decimalAvailable": true,
                                "name": "amount",
                                "type": "uint256",
                                "value": "1,466,037,630,992,376,211,313,630,141"
                            }
                        ],
                        "constructorArguments": "",
                        "name": "transferFrom",
                        "returnParams": [
                            {
                                "name": "",
                                "type": "bool",
                                "value": true
                            }
                        ],
                        "signature": "transferFrom(address,address,uint256)"
                    },
                    "errorInfo": "",
                    "fromAddress": "0xa57bd00134b2850b2a1c55860c9e9ea100fdd6cf",
                    "gasUsed": 18451,
                    "id": 6,
                    "methodDecoded": true,
                    "operation": "CALL",
                    "output": "0x0000000000000000000000000000000000000000000000000000000000000001",
                    "revert": false,
                    "revertMessage": "",
                    "selector": "0x23b872dd",
                    "status": true,
                    "value": "0"
                },
                "nodeType": 0
            },
            "7": {
                "event": {
                    "contract": "0x95ad61b0a150d79219dcf64e1e6cc01f0b64c4ce",
                    "decodedLog": {
                        "name": "Transfer",
                        "params": [
                            {
                                "name": "from",
                                "type": "address",
                                "value": "0x56178a0d5f301baf6cf3e1cd53d9863437345bf9"
                            },
                            {
                                "name": "to",
                                "type": "address",
                                "value": "0xcf6daab95c476106eca715d48de4b13287ffdeaa"
                            },
                            {
                                "decimalAvailable": true,
                                "name": "value",
                                "type": "uint256",
                                "value": "1,466,037,630,992,376,211,313,630,141"
                            }
                        ],
                        "signature": "Transfer(address,address,uint256)"
                    },
                    "id": 7,
                    "logData": "0x000000000000000000000000000000000000000004bcad8b392ee56b1e1d9bbd",
                    "logDecoded": true,
                    "operation": "EVENT",
                    "revert": false,
                    "status": true,
                    "topics": [
                        "0xddf252ad1be2c89b69c2b068fc378daa952ba7f163c4a11628f55a4df523b3ef",
                        "0x00000000000000000000000056178a0d5f301baf6cf3e1cd53d9863437345bf9",
                        "0x000000000000000000000000cf6daab95c476106eca715d48de4b13287ffdeaa"
                    ]
                },
                "nodeType": 1
            },
            "8": {
                "event": {
                    "contract": "0x95ad61b0a150d79219dcf64e1e6cc01f0b64c4ce",
                    "decodedLog": {
                        "name": "Approval",
                        "params": [
                            {
                                "name": "owner",
                                "type": "address",
                                "value": "0x56178a0d5f301baf6cf3e1cd53d9863437345bf9"
                            },
                            {
                                "name": "spender",
                                "type": "address",
                                "value": "0xa57bd00134b2850b2a1c55860c9e9ea100fdd6cf"
                            },
                            {
                                "decimalAvailable": true,
                                "name": "value",
                                "type": "uint256",
                                "value": "115,792,089,237,316,195,423,570,985,008,687,907,853,269,984,614,497,167,861,928,705,333,700,010,427,453"
                            }
                        ],
                        "signature": "Approval(address,address,uint256)"
                    },
                    "id": 8,
                    "logData": "0xfffffffffffffffffffffffffffffffffffffd7a7ac638c9d13c52d7d6dbc43d",
                    "logDecoded": true,
                    "operation": "EVENT",
                    "revert": false,
                    "status": true,
                    "topics": [
                        "0x8c5be1e5ebec7d5bd14f71427d1e84f3dd0314c0f7b2291e5b200ac8c7c3b925",
                        "0x00000000000000000000000056178a0d5f301baf6cf3e1cd53d9863437345bf9",
                        "0x000000000000000000000000a57bd00134b2850b2a1c55860c9e9ea100fdd6cf"
                    ]
                },
                "nodeType": 1
            },
            "9": {
                "invocation": {
                    "address": "0xcf6daab95c476106eca715d48de4b13287ffdeaa",
                    "callData": "0x0000000000000000000000000000000000000000000000000000000000000000000000000000000000000000000000000000000000000000a54ce6f16d6e6c8800000000000000000000000056178a0d5f301baf6cf3e1cd53d9863437345bf900000000000000000000000000000000000000000000000000000000000000800000000000000000000000000000000000000000000000000000000000000000",
                    "decodedMethod": {
                        "callParams": [
                            {
                                "name": "amount0Out",
                                "type": "uint256",
                                "value": "0"
                            },
                            {
                                "name": "amount1Out",
                                "type": "uint256",
                                "value": "11,911,149,039,085,579,400"
                            },
                            {
                                "name": "to",
                                "type": "address",
                                "value": "0x56178a0d5f301baf6cf3e1cd53d9863437345bf9"
                            },
                            {
                                "name": "data",
                                "type": "bytes",
                                "value": "0x"
                            }
                        ],
                        "constructorArguments": "",
                        "name": "swap",
                        "returnParams": [],
                        "signature": "swap(uint256,uint256,address,bytes)"
                    },
                    "errorInfo": "",
                    "fromAddress": "0xa57bd00134b2850b2a1c55860c9e9ea100fdd6cf",
                    "gasUsed": 46136,
                    "id": 9,
                    "methodDecoded": true,
                    "operation": "CALL",
                    "output": "",
                    "revert": false,
                    "revertMessage": "",
                    "selector": "0x022c0d9f",
                    "status": true,
                    "value": "0"
                },
                "nodeType": 0
            }
        },
        "gasFlame": [
            {
                "children": [
                    {
                        "children": [
                            {
                                "children": [],
                                "depth": 0,
                                "name": "Initial Gas",
                                "value": 24832
                            },
                            {
                                "children": [
                                    {
                                        "children": [
                                            {
                                                "children": [],
                                                "depth": 2,
                                                "name": "token0",
                                                "value": 2405
                                            },
                                            {
                                                "children": [],
                                                "depth": 2,
                                                "name": "getReserves",
                                                "value": 2504
                                            },
                                            {
                                                "children": [],
                                                "depth": 2,
                                                "name": "totalFee",
                                                "value": 2410
                                            },
                                            {
                                                "children": [],
                                                "depth": 2,
                                                "name": "balanceOf",
                                                "value": 2639
                                            },
                                            {
                                                "children": [],
                                                "depth": 2,
                                                "name": "transferFrom",
                                                "value": 18451
                                            },
                                            {
                                                "children": [
                                                    {
                                                        "children": [],
                                                        "depth": 3,
                                                        "name": "transfer",
                                                        "value": 12862
                                                    },
                                                    {
                                                        "children": [],
                                                        "depth": 3,
                                                        "name": "balanceOf",
                                                        "value": 639
                                                    },
                                                    {
                                                        "children": [],
                                                        "depth": 3,
                                                        "name": "balanceOf",
                                                        "value": 534
                                                    }
                                                ],
                                                "depth": 2,
                                                "name": "swap",
                                                "value": 46136
                                            }
                                        ],
                                        "depth": 1,
                                        "name": "0x46446503",
                                        "value": 89991
                                    }
                                ],
                                "depth": 0,
                                "name": "Executed Gas",
                                "value": 95510
                            }
                        ],
                        "depth": -1,
                        "name": "Actual Gas Used",
                        "value": 117542
                    },
                    {
                        "children": [],
                        "depth": -1,
                        "name": "Refunded Gas",
                        "value": 2800
                    }
                ],
                "depth": -2,
                "name": "Total Gas",
                "value": 120342
            }
        ],
        "isConfirmed": true,
        "mainTrace": [
            {
                "children": [
                    {
                        "children": [
                            {
                                "children": [
                                    {
                                        "children": [],
                                        "depth": 2,
                                        "id": 2,
                                        "order": 2
                                    },
                                    {
                                        "children": [],
                                        "depth": 2,
                                        "id": 3,
                                        "order": 3
                                    },
                                    {
                                        "children": [],
                                        "depth": 2,
                                        "id": 4,
                                        "order": 4
                                    },
                                    {
                                        "children": [],
                                        "depth": 2,
                                        "id": 5,
                                        "order": 5
                                    },
                                    {
                                        "children": [
                                            {
                                                "children": [],
                                                "depth": 3,
                                                "id": 7,
                                                "order": 7
                                            },
                                            {
                                                "children": [],
                                                "depth": 3,
                                                "id": 8,
                                                "order": 8
                                            }
                                        ],
                                        "depth": 2,
                                        "id": 6,
                                        "order": 6
                                    },
                                    {
                                        "children": [
                                            {
                                                "children": [
                                                    {
                                                        "children": [],
                                                        "depth": 4,
                                                        "id": 11,
                                                        "order": 11
                                                    }
                                                ],
                                                "depth": 3,
                                                "id": 10,
                                                "order": 10
                                            },
                                            {
                                                "children": [],
                                                "depth": 3,
                                                "id": 12,
                                                "order": 12
                                            },
                                            {
                                                "children": [],
                                                "depth": 3,
                                                "id": 13,
                                                "order": 13
                                            },
                                            {
                                                "children": [],
                                                "depth": 3,
                                                "id": 14,
                                                "order": 14
                                            },
                                            {
                                                "children": [],
                                                "depth": 3,
                                                "id": 15,
                                                "order": 15
                                            }
                                        ],
                                        "depth": 2,
                                        "id": 9,
                                        "order": 9
                                    }
                                ],
                                "depth": 1,
                                "id": 1,
                                "order": 1
                            }
                        ],
                        "depth": 0,
                        "id": 0,
                        "order": 0
                    }
                ],
                "depth": -1,
                "id": -1,
                "order": -1
            }
        ],
        "mainTraceNodeCount": 16,
        "parentIdMap": {
            "0": -1,
            "1": 0,
            "10": 9,
            "11": 10,
            "12": 9,
            "13": 9,
            "14": 9,
            "15": 9,
            "2": 1,
            "3": 1,
            "4": 1,
            "5": 1,
            "6": 1,
            "7": 6,
            "8": 6,
            "9": 1
        },
        "tidyTrace": [
            {
                "children": [
                    {
                        "children": [
                            {
                                "children": [
                                    {
                                        "children": [],
                                        "depth": 2,
                                        "id": 2,
                                        "order": 2
                                    },
                                    {
                                        "children": [],
                                        "depth": 2,
                                        "id": 3,
                                        "order": 3
                                    },
                                    {
                                        "children": [],
                                        "depth": 2,
                                        "id": 4,
                                        "order": 4
                                    },
                                    {
                                        "children": [],
                                        "depth": 2,
                                        "id": 5,
                                        "order": 5
                                    },
                                    {
                                        "children": [
                                            {
                                                "children": [],
                                                "depth": 3,
                                                "id": 7,
                                                "order": 7
                                            },
                                            {
                                                "children": [],
                                                "depth": 3,
                                                "id": 8,
                                                "order": 8
                                            }
                                        ],
                                        "depth": 2,
                                        "id": 6,
                                        "order": 6
                                    },
                                    {
                                        "children": [
                                            {
                                                "children": [
                                                    {
                                                        "children": [],
                                                        "depth": 4,
                                                        "id": 11,
                                                        "order": 11
                                                    }
                                                ],
                                                "depth": 3,
                                                "id": 10,
                                                "order": 10
                                            },
                                            {
                                                "children": [],
                                                "depth": 3,
                                                "id": 14,
                                                "order": 14
                                            },
                                            {
                                                "children": [],
                                                "depth": 3,
                                                "id": 15,
                                                "order": 15
                                            }
                                        ],
                                        "depth": 2,
                                        "id": 9,
                                        "order": 9
                                    }
                                ],
                                "depth": 1,
                                "id": 1,
                                "order": 1
                            }
                        ],
                        "depth": 0,
                        "id": 0,
                        "order": 0
                    }
                ],
                "depth": -1,
                "id": -1,
                "order": -1
            }
        ],
        "tidyTraceNodeCount": 14
    },
    "state_change": {
        "stateChanges": [
            {
                "address": "0x95ad61b0a150d79219dcf64e1e6cc01f0b64c4ce",
                "erc": "ERC-20",
                "slots": [
                    {
                        "current": "0x0000000000000000000000000000000000000000aaccdf3a191c4bb468d6cedb",
                        "key": "0xf7c84b5d1f3a0563cd20b346c00dcaaaf749870e80d340ce8dc6213863709a60",
                        "prev": "0x0000000000000000000000000000000000000000af898cc5524b311f86f46a98"
                    },
                    {
                        "current": "0x00000000000000000000000000000000000000047e0b6a35a8f84443b17e6164",
                        "key": "0x8ca43d7619371d0834e06fa31b042aaaa680586ab3652a0f8c98e768b6443765",
                        "prev": "0x0000000000000000000000000000000000000004794ebcaa6fc95ed89360c5a7"
                    },
                    {
                        "current": "0xfffffffffffffffffffffffffffffffffffffd7a7ac638c9d13c52d7d6dbc43d",
                        "key": "0x11a4b8bd9b603447d3616abf3ee2b605615e440a1b9819e0f614254f14c959d5",
                        "prev": "0xfffffffffffffffffffffffffffffffffffffd7a7f82e6550a6b3842f4f95ffa"
                    }
                ],
                "storageVariables": [
                    {
                        "name": "_balances",
                        "type": "mapping(address => uint256)",
                        "value": {
                            "pairs": [
                                {
                                    "key": "0x56178a0d5f301baf6cf3e1cd53d9863437345bf9",
                                    "value": {
                                        "current": "52860126696276286629410688731",
                                        "prev": "54326164327268662840724318872",
                                        "typeTag": 1
                                    }
                                },
                                {
                                    "key": "0xcf6daab95c476106eca715d48de4b13287ffdeaa",
                                    "value": {
                                        "current": "355921561039262766693546352996",
                                        "prev": "354455523408270390482232722855",
                                        "typeTag": 1
                                    }
                                }
                            ],
                            "typeTag": 4
                        }
                    },
                    {
                        "name": "_allowances",
                        "type": "mapping(address => mapping(address => uint256))",
                        "value": {
                            "pairs": [
                                {
                                    "key": "0x56178a0d5f301baf6cf3e1cd53d9863437345bf9",
                                    "value": {
                                        "pairs": [
                                            {
                                                "key": "0xa57bd00134b2850b2a1c55860c9e9ea100fdd6cf",
                                                "value": {
                                                    "current": "115792089237316195423570985008687907853269984614497167861928705333700010427453",
                                                    "prev": "115792089237316195423570985008687907853269984614498633899559697709911324057594",
                                                    "typeTag": 1
                                                }
                                            }
                                        ],
                                        "typeTag": 4
                                    }
                                }
                            ],
                            "typeTag": 4
                        }
                    }
                ]
            },
            {
                "address": "0xc02aaa39b223fe8d0a0e5c4f27ead9083c756cc2",
                "erc": "ERC-20",
                "slots": [
                    {
                        "current": "0x00000000000000000000000000000000000000000000022184692539c56d1d16",
                        "key": "0x30bd84b96629f958113934633d3bd1b64c3d259a85c57ceac65da8c5ec9bf3a7",
                        "prev": "0x000000000000000000000000000000000000000000000220df1c3e4857feb08e"
                    },
                    {
                        "current": "0x00000000000000000000000000000000000000000000009c963ea602697ef622",
                        "key": "0xbb609bf4e7a9c5741724a2ad55eabdc40913c8923f30251e38f2ea5017d9a032",
                        "prev": "0x00000000000000000000000000000000000000000000009d3b8b8cf3d6ed62aa"
                    }
                ],
                "storageVariables": [
                    {
                        "name": "balanceOf",
                        "type": "mapping(address => uint256)",
                        "value": {
                            "pairs": [
                                {
                                    "key": "0x56178a0d5f301baf6cf3e1cd53d9863437345bf9",
                                    "value": {
                                        "current": "10063016718387322363158",
                                        "prev": "10051105569348236783758",
                                        "typeTag": 1
                                    }
                                },
                                {
                                    "key": "0xcf6daab95c476106eca715d48de4b13287ffdeaa",
                                    "value": {
                                        "current": "2888518348582225376802",
                                        "prev": "2900429497621310956202",
                                        "typeTag": 1
                                    }
                                }
                            ],
                            "typeTag": 4
                        }
                    }
                ]
            },
            {
                "address": "0xcf6daab95c476106eca715d48de4b13287ffdeaa",
                "erc": "ERC-20",
                "slots": [
                    {
                        "current": "0x00000000000000000000000000000000000042ee96e3b718965e31d2a5acc046",
                        "key": "0x0000000000000000000000000000000000000000000000000000000000000009",
                        "prev": "0x00000000000000000000000000000000000042ee925bf0451c53f74279d75606"
                    },
                    {
                        "current": "0x000000000000000000000017911206211112ca0710a75ab45dc0e930389f7270",
                        "key": "0x000000000000000000000000000000000000000000000000000000000000000a",
                        "prev": "0x000000000000000000000017911115c07963f7b89bb3827ea1960dd1cd06e8eb"
                    },
                    {
                        "current": "0x630cf08900000000009c963ea602697ef62200047e0b6a35a8f84443b17e6164",
                        "key": "0x0000000000000000000000000000000000000000000000000000000000000008",
                        "prev": "0x630cf06800000000009d3b8b8cf3d6ed62aa0004794ebcaa6fc95ed89360c5a7"
                    }
                ],
                "storageVariables": [
                    {
                        "name": "price0CumulativeLast",
                        "type": "uint256",
                        "value": {
                            "current": "1357542034561686037984361816309830",
                            "prev": "1357540632477731484115792584726022",
                            "typeTag": 1
                        }
                    },
                    {
                        "name": "price1CumulativeLast",
                        "type": "uint256",
                        "value": {
                            "current": "34442743267719525534745842182802007843140066570864",
                            "prev": "34442722327902173535337638649667079378730360432875",
                            "typeTag": 1
                        }
                    },
                    {
                        "name": "reserve0",
                        "type": "uint112",
                        "value": {
                            "current": "355921561039262766693546352996",
                            "prev": "354455523408270390482232722855",
                            "typeTag": 1
                        }
                    },
                    {
                        "name": "reserve1",
                        "type": "uint112",
                        "value": {
                            "current": "2888518348582225376802",
                            "prev": "2900429497621310956202",
                            "typeTag": 1
                        }
                    },
                    {
                        "name": "blockTimestampLast",
                        "type": "uint32",
                        "value": {
                            "current": "1661792393",
                            "prev": "1661792360",
                            "typeTag": 1
                        }
                    }
                ]
            }
        ]
    }
}