{
    "balance_change": {
        "balanceChanges": [
            {
                "account": "0x07415db3efa1caff1a5a5681d046a15b5350000a",
                "assets": [
                    {
                        "address": "0xddd460bbd9f79847ea08681563e8a9696867210c",
                        "amount": "10",
                        "iconUrl": "https://assets.blocksec.com/icon/b16d7dddccc3df0da4c0a2dbcabb39b5ae5211aa08cf0a885bc870e204e8d340.png",
                        "isERC1155": false,
                        "isERC721": false,
                        "sign": false,
                        "value": ""
                    }
                ]
            },
            {
                "account": "0xf2911e45281027582062d6d5f44044edae4345d3",
                "assets": [
                    {
                        "address": "0xddd460bbd9f79847ea08681563e8a9696867210c",
                        "amount": "10",
                        "iconUrl": "https://assets.blocksec.com/icon/b16d7dddccc3df0da4c0a2dbcabb39b5ae5211aa08cf0a885bc870e204e8d340.png",
                        "isERC1155": false,
                        "isERC721": false,
                        "sign": true,
                        "value": ""
                    }
                ]
            }
        ]
    },
    "profile": {
        "basic_info": {
            "baseFee": "",
            "blockNumber": 6333381,
            "callData": "0xa9059cbb000000000000000000000000f2911e45281027582062d6d5f44044edae4345d30000000000000000000000000000000000000000000000008ac7230489e80000",
            "debugEnable": true,
            "errorInfo": "",
            "eventCount": 1,
            "feeRecipient": "0xd4383232c8d1dbe0e03bdfab849871fa17e61807",
            "formatValue": "0",
            "gasLimit": 200000,
            "gasPrice": "6",
            "gasUsed": 51604,
            "intTxnCount": 0,
            "internalRevert": false,
            "internalRevertMessage": "",
            "isContractCreation": false,
            "isFlashloan": false,
            "maxFee": "",
            "nonce": 645,
            "overwritedBlockNumber": -1,
            "priorityFee": "",
            "receiver": "0xddd460bbd9f79847ea08681563e8a9696867210c",
            "revertMessage": "",
            "sender": "0x07415db3efa1caff1a5a5681d046a15b5350000a",
            "simulationEnable": true,
            "sourceTxnHash": "0x10f8ec695a3b2f3844656e17ea1dc275876f8b4a0e823e99850d22836f77168a",
            "status": true,
            "timestamp": "2018-09-15T01:23:01Z",
            "transactionFee": "0.000309624",
            "txnHash": "0x10f8ec695a3b2f3844656e17ea1dc275876f8b4a0e823e99850d22836f77168a",
            "txnIndex": 19,
            "type": 0,
            "value": "0"
        },
        "fund_flow": [
            {
                "amount": "10",
                "from": "0x07415db3efa1caff1a5a5681d046a15b5350000a",
                "id": 1,
                "isERC1155": false,
                "isERC721": false,
                "isReverted": false,
                "order": 1,
                "to": "0xf2911e45281027582062d6d5f44044edae4345d3",
                "token": "0xddd460bbd9f79847ea08681563e8a9696867210c"
            }
        ],
        "token_infos": [
            {
                "address": "0xc02aaa39b223fe8d0a0e5c4f27ead9083c756cc2",
                "decimals": 18
            },
            {
                "address": "0xddd460bbd9f79847ea08681563e8a9696867210c",
                "decimals": 18
            },
            {
                "address": "0xeeeeeeeeeeeeeeeeeeeeeeeeeeeeeeeeeeeeeeee",
                "decimals": 18
            }
        ]
    },
    "address_label": {
        "labels": [
            {
                "address": "0xddd460bbd9f79847ea08681563e8a9696867210c",
                "label": "Spendcoin Token"
            },
            {
                "address": "0x0000000000000000000000000000000000000001",
                "label": "Precompiled"
            },
            {
                "address": "0x0000000000000000000000000000000000000002",
                "label": "Precompiled"
            },
            {
                "address": "0x0000000000000000000000000000000000000003",
                "label": "Precompiled"
            },
            {
                "address": "0x0000000000000000000000000000000000000004",
                "label": "Precompiled"
            },
            {
                "address": "0xeeeeeeeeeeeeeeeeeeeeeeeeeeeeeeeeeeeeeeee",
                "label": "Ether"
            }
        ]
    },
    "trace": {
        "accountLabels": null,
        "dataMap": {
            "-1": {
                "invocation": {
                    "address": "0x07415db3efa1caff1a5a5681d046a15b5350000a",
                    "callData": "",
                    "decodedMethod": null,
                    "errorInfo": "",
                    "fromAddress": "",
                    "gasUsed": 0,
                    "id": -1,
                    "methodDecoded": false,
                    "operation": "",
                    "output": "",
                    "revert": false,
                    "revertMessage": "",
                    "selector": "",
                    "status": false,
                    "value": ""
                },
                "nodeType": 0
            },
            "0": {
                "invocation": {
                    "address": "0xddd460bbd9f79847ea08681563e8a9696867210c",
                    "callData": "0x000000000000000000000000f2911e45281027582062d6d5f44044edae4345d30000000000000000000000000000000000000000000000008ac7230489e80000",
                    "decodedMethod": {
                        "callParams": [
                            {
                                "name": "to",
                                "type": "address",
                                "value": "0xf2911e45281027582062d6d5f44044edae4345d3"
                            },
                            {
                                "decimalAvailable": true,
                                "name": "tokens",
                                "type": "uint256",
                                "value": "10,000,000,000,000,000,000"
                            }
                        ],
                        "constructorArguments": "",
                        "name": "transfer",
                        "returnParams": [
                            {
                                "name": "success",
                                "type": "bool",
                                "value": true
                            }
                        ],
                        "signature": "transfer(address,uint256)"
                    },
                    "errorInfo": "",
                    "fromAddress": "0x07415db3efa1caff1a5a5681d046a15b5350000a",
                    "gasUsed": 51604,
                    "id": 0,
                    "methodDecoded": true,
                    "operation": "CALL",
                    "output": "0x0000000000000000000000000000000000000000000000000000000000000001",
                    "revert": false,
                    "revertMessage": "",
                    "selector": "0xa9059cbb",
                    "status": true,
                    "value": "0"
                },
                "nodeType": 0
            },
            "1": {
                "event": {
                    "contract": "0xddd460bbd9f79847ea08681563e8a9696867210c",
                    "decodedLog": {
                        "name": "Transfer",
                        "params": [
                            {
                                "name": "from",
                                "type": "address",
                                "value": "0x07415db3efa1caff1a5a5681d046a15b5350000a"
                            },
                            {
                                "name": "to",
                                "type": "address",
                                "value": "0xf2911e45281027582062d6d5f44044edae4345d3"
                            },
                            {
                                "decimalAvailable": true,
                                "name": "tokens",
                                "type": "uint256",
                                "value": "10,000,000,000,000,000,000"
                            }
                        ],
                        "signature": "Transfer(address,address,uint256)"
                    },
                    "id": 1,
                    "logData": "0x0000000000000000000000000000000000000000000000008ac7230489e80000",
                    "logDecoded": true,
                    "operation": "EVENT",
                    "revert": false,
                    "status": true,
                    "topics": [
                        "0xddf252ad1be2c89b69c2b068fc378daa952ba7f163c4a11628f55a4df523b3ef",
                        "0x00000000000000000000000007415db3efa1caff1a5a5681d046a15b5350000a",
                        "0x000000000000000000000000f2911e45281027582062d6d5f44044edae4345d3"
                    ]
                },
                "nodeType": 1
            }
        },
        "gasFlame": [
            {
                "children": [
                    {
                        "children": [
                            {
                                "children": [],
                                "depth": 0,
                                "name": "Initial Gas",
                                "value": 23192
                            },
                            {
                                "children": [],
                                "depth": 0,
                                "name": "Executed Gas",
                                "value": 28412
                            }
                        ],
                        "depth": -1,
                        "name": "Actual Gas Used",
                        "value": 51604
                    },
                    {
                        "children": [],
                        "depth": -1,
                        "name": "Refunded Gas",
                        "value": 0
                    }
                ],
                "depth": -2,
                "name": "Total Gas",
                "value": 51604
            }
        ],
        "isConfirmed": true,
        "mainTrace": [
            {
                "children": [
                    {
                        "children": [
                            {
                                "children": [],
                                "depth": 1,
                                "id": 1,
                                "order": 1
                            }
                        ],
                        "depth": 0,
                        "id": 0,
                        "order": 0
                    }
                ],
                "depth": -1,
                "id": -1,
                "order": -1
            }
        ],
        "mainTraceNodeCount": 2,
        "parentIdMap": {
            "0": -1,
            "1": 0
        },
        "tidyTrace": [
            {
                "children": [
                    {
                        "children": [
                            {
                                "children": [],
                                "depth": 1,
                                "id": 1,
                                "order": 1
                            }
                        ],
                        "depth": 0,
                        "id": 0,
                        "order": 0
                    }
                ],
                "depth": -1,
                "id": -1,
                "order": -1
            }
        ],
        "tidyTraceNodeCount": 2
    },
    "state_change": {
        "stateChanges": [
            {
                "address": "0xddd460bbd9f79847ea08681563e8a9696867210c",
                "erc": "ERC-20",
                "slots": [
                    {
                        "current": "0x0000000000000000000000000000000000000000000000008ac7230489e80000",
                        "key": "0xc88d9fa87112f720a296285ad4a6d7f77640fac4190d68e00a1c4b7e0bd6991a",
                        "prev": "0x0000000000000000000000000000000000000000000000000000000000000000"
                    },
                    {
                        "current": "0x000000000000000000000000000000000000000000002ec2915920182f080000",
                        "key": "0xafec85c5ca28f726719e1a0cc88cacc01a5f5d4d0eadd529e10e86c1aa16d959",
                        "prev": "0x000000000000000000000000000000000000000000002ec31c20431cb8f00000"
                    }
                ],
                "storageVariables": [
                    {
                        "name": "balances",
                        "type": "mapping(address => uint256)",
                        "value": {
                            "pairs": [
                                {
                                    "key": "0x07415db3efa1caff1a5a5681d046a15b5350000a",
                                    "value": {
                                        "current": "220818000000000000000000",
                                        "prev": "220828000000000000000000",
                                        "typeTag": 1
                                    }
                                },
                                {
                                    "key": "0xf2911e45281027582062d6d5f44044edae4345d3",
                                    "value": {
                                        "current": "10000000000000000000",
                                        "prev": "0",
                                        "typeTag": 1
                                    }
                                }
                            ],
                            "typeTag": 4
                        }
                    }
                ]
            }
        ]
    }
}