{
    "balance_change": {
        "balanceChanges": [
            {
                "account": "0xc7f8a7cf8a2de53b9e58d987d622b07e3e778663",
                "assets": [
                    {
                        "address": "0x4e1bb58a40f34d8843f61030fe4257c11d09a2c5",
                        "amount": "122,221,000,000,000,000,000,000",
                        "iconUrl": "",
                        "isERC1155": false,
                        "isERC721": false,
                        "sign": true,
                        "value": ""
                    }
                ]
            },
            {
                "account": "0x7066b53ed705b0f6a9edcf7aa49275045b4a2c5b",
                "assets": [
                    {
                        "address": "0x4e1bb58a40f34d8843f61030fe4257c11d09a2c5",
                        "amount": "122,221,000,000,000,000,000,000",
                        "iconUrl": "",
                        "isERC1155": false,
                        "isERC721": false,
                        "sign": false,
                        "value": ""
                    }
                ]
            }
        ]
    },
    "profile": {
        "basic_info": {
            "baseFee": "",
            "blockNumber": 7340382,
            "callData": "0xa9059cbb000000000000000000000000c7f8a7cf8a2de53b9e58d987d622b07e3e7786630000000000000000000000000000000000000000000019e19d1a896399940000",
            "debugEnable": true,
            "errorInfo": "",
            "eventCount": 1,
            "feeRecipient": "0x4bb96091ee9d802ed039c4d1a5f6216f90f81b01",
            "formatValue": "0",
            "gasLimit": 200000,
            "gasPrice": "7",
            "gasUsed": 22390,
            "intTxnCount": 0,
            "internalRevert": false,
            "internalRevertMessage": "",
            "isContractCreation": false,
            "isFlashloan": false,
            "maxFee": "",
            "nonce": 3,
            "overwritedBlockNumber": -1,
            "priorityFee": "",
            "receiver": "0x4e1bb58a40f34d8843f61030fe4257c11d09a2c5",
            "revertMessage": "",
            "sender": "0x7066b53ed705b0f6a9edcf7aa49275045b4a2c5b",
            "simulationEnable": true,
            "sourceTxnHash": "0x1052714f844a9feac8af50fd7289aa962021a7bd62011d338e23e6d601be30d5",
            "status": true,
            "timestamp": "2019-03-10T08:32:33Z",
            "transactionFee": "0.00015673",
            "txnHash": "0x1052714f844a9feac8af50fd7289aa962021a7bd62011d338e23e6d601be30d5",
            "txnIndex": 98,
            "type": 0,
            "value": "0"
        },
        "fund_flow": [
            {
                "amount": "122,221,000,000,000,000,000,000",
                "from": "0x7066b53ed705b0f6a9edcf7aa49275045b4a2c5b",
                "id": 1,
                "isERC1155": false,
                "isERC721": false,
                "isReverted": false,
                "order": 1,
                "to": "0xc7f8a7cf8a2de53b9e58d987d622b07e3e778663",
                "token": "0x4e1bb58a40f34d8843f61030fe4257c11d09a2c5"
            }
        ],
        "token_infos": [
            {
                "address": "0xc02aaa39b223fe8d0a0e5c4f27ead9083c756cc2",
                "decimals": 18
            },
            {
                "address": "0xeeeeeeeeeeeeeeeeeeeeeeeeeeeeeeeeeeeeeeee",
                "decimals": 18
            }
        ]
    },
    "address_label": {
        "labels": [
            {
                "address": "0x0000000000000000000000000000000000000003",
                "label": "Precompiled"
            },
            {
                "address": "0x0000000000000000000000000000000000000004",
                "label": "Precompiled"
            },
            {
                "address": "0xeeeeeeeeeeeeeeeeeeeeeeeeeeeeeeeeeeeeeeee",
                "label": "Ether"
            },
            {
                "address": "0x4e1bb58a40f34d8843f61030fe4257c11d09a2c5",
                "label": "TTT"
            },
            {
                "address": "0x0000000000000000000000000000000000000001",
                "label": "Precompiled"
            },
            {
                "address": "0x0000000000000000000000000000000000000002",
                "label": "Precompiled"
            }
        ]
    },
    "trace": {
        "accountLabels": null,
        "dataMap": {
            "-1": {
                "invocation": {
                    "address": "0x7066b53ed705b0f6a9edcf7aa49275045b4a2c5b",
                    "callData": "",
                    "decodedMethod": null,
                    "errorInfo": "",
                    "fromAddress": "",
                    "gasUsed": 0,
                    "id": -1,
                    "methodDecoded": false,
                    "operation": "",
                    "output": "",
                    "revert": false,
                    "revertMessage": "",
                    "selector": "",
                    "status": false,
                    "value": ""
                },
                "nodeType": 0
            },
            "0": {
                "invocation": {
                    "address": "0x4e1bb58a40f34d8843f61030fe4257c11d09a2c5",
                    "callData": "0x000000000000000000000000c7f8a7cf8a2de53b9e58d987d622b07e3e7786630000000000000000000000000000000000000000000019e19d1a896399940000",
                    "decodedMethod": {
                        "callParams": [
                            {
                                "name": "_to",
                                "type": "address",
                                "value": "0xc7f8a7cf8a2de53b9e58d987d622b07e3e778663"
                            },
                            {
                                "decimalAvailable": true,
                                "name": "_value",
                                "type": "uint256",
                                "value": "122,221,000,000,000,000,000,000"
                            }
                        ],
                        "constructorArguments": "",
                        "name": "transfer",
                        "returnParams": [
                            {
                                "name": "",
                                "type": "bool",
                                "value": true
                            }
                        ],
                        "signature": "transfer(address,uint256)"
                    },
                    "errorInfo": "",
                    "fromAddress": "0x7066b53ed705b0f6a9edcf7aa49275045b4a2c5b",
                    "gasUsed": 22390,
                    "id": 0,
                    "methodDecoded": true,
                    "operation": "CALL",
                    "output": "0x0000000000000000000000000000000000000000000000000000000000000001",
                    "revert": false,
                    "revertMessage": "",
                    "selector": "0xa9059cbb",
                    "status": true,
                    "value": "0"
                },
                "nodeType": 0
            },
            "1": {
                "event": {
                    "contract": "0x4e1bb58a40f34d8843f61030fe4257c11d09a2c5",
                    "decodedLog": {
                        "name": "Transfer",
                        "params": [
                            {
                                "name": "from",
                                "type": "address",
                                "value": "0x7066b53ed705b0f6a9edcf7aa49275045b4a2c5b"
                            },
                            {
                                "name": "to",
                                "type": "address",
                                "value": "0xc7f8a7cf8a2de53b9e58d987d622b07e3e778663"
                            },
                            {
                                "decimalAvailable": true,
                                "name": "value",
                                "type": "uint256",
                                "value": "122,221,000,000,000,000,000,000"
                            }
                        ],
                        "signature": "Transfer(address,address,uint256)"
                    },
                    "id": 1,
                    "logData": "0x0000000000000000000000000000000000000000000019e19d1a896399940000",
                    "logDecoded": true,
                    "operation": "EVENT",
                    "revert": false,
                    "status": true,
                    "topics": [
                        "0xddf252ad1be2c89b69c2b068fc378daa952ba7f163c4a11628f55a4df523b3ef",
                        "0x0000000000000000000000007066b53ed705b0f6a9edcf7aa49275045b4a2c5b",
                        "0x000000000000000000000000c7f8a7cf8a2de53b9e58d987d622b07e3e778663"
                    ]
                },
                "nodeType": 1
            }
        },
        "gasFlame": [
            {
                "children": [
                    {
                        "children": [
                            {
                                "children": [],
                                "depth": 0,
                                "name": "Initial Gas",
                                "value": 23320
                            },
                            {
                                "children": [],
                                "depth": 0,
                                "name": "Executed Gas",
                                "value": 14070
                            }
                        ],
                        "depth": -1,
                        "name": "Actual Gas Used",
                        "value": 22390
                    },
                    {
                        "children": [],
                        "depth": -1,
                        "name": "Refunded Gas",
                        "value": 15000
                    }
                ],
                "depth": -2,
                "name": "Total Gas",
                "value": 37390
            }
        ],
        "isConfirmed": true,
        "mainTrace": [
            {
                "children": [
                    {
                        "children": [
                            {
                                "children": [],
                                "depth": 1,
                                "id": 1,
                                "order": 1
                            }
                        ],
                        "depth": 0,
                        "id": 0,
                        "order": 0
                    }
                ],
                "depth": -1,
                "id": -1,
                "order": -1
            }
        ],
        "mainTraceNodeCount": 2,
        "parentIdMap": {
            "0": -1,
            "1": 0
        },
        "tidyTrace": [
            {
                "children": [
                    {
                        "children": [
                            {
                                "children": [],
                                "depth": 1,
                                "id": 1,
                                "order": 1
                            }
                        ],
                        "depth": 0,
                        "id": 0,
                        "order": 0
                    }
                ],
                "depth": -1,
                "id": -1,
                "order": -1
            }
        ],
        "tidyTraceNodeCount": 2
    },
    "state_change": {
        "stateChanges": [
            {
                "address": "0x4e1bb58a40f34d8843f61030fe4257c11d09a2c5",
                "erc": "ERC-20",
                "slots": [
                    {
                        "current": "0x000000000000000000000000000000000000000000008ef06e7aa347cbc20000",
                        "key": "0x38f4b1069d91d799a484b5bbbdcf653b10e463b8c7f5141f487e91746dd3852a",
                        "prev": "0x00000000000000000000000000000000000000000000750ed16019e4322e0000"
                    },
                    {
                        "current": "0x0000000000000000000000000000000000000000000000000000000000000000",
                        "key": "0x22daea0e7ca8d3f65078f60cb2c0d003abd708dd9b7d81e678ed6c78908cfd83",
                        "prev": "0x0000000000000000000000000000000000000000000019e19d1a896399940000"
                    }
                ],
                "storageVariables": [
                    {
                        "name": "balances",
                        "type": "mapping(address => uint256)",
                        "value": {
                            "pairs": [
                                {
                                    "key": "0x7066b53ed705b0f6a9edcf7aa49275045b4a2c5b",
                                    "value": {
                                        "current": "0",
                                        "prev": "122221000000000000000000",
                                        "typeTag": 1
                                    }
                                },
                                {
                                    "key": "0xc7f8a7cf8a2de53b9e58d987d622b07e3e778663",
                                    "value": {
                                        "current": "675011220000000000000000",
                                        "prev": "552790220000000000000000",
                                        "typeTag": 1
                                    }
                                }
                            ],
                            "typeTag": 4
                        }
                    }
                ]
            }
        ]
    }
}