{
    "balance_change": {
        "balanceChanges": [
            {
                "account": "0x0000000000000000000000000000000000000000",
                "assets": [
                    {
                        "address": "0xbfd2030a15df8dd65f4dd9cce4690a312beda820",
                        "amount": "1",
                        "iconUrl": "",
                        "isERC1155": false,
                        "isERC721": true,
                        "sign": false,
                        "tokenID": "4513",
                        "value": ""
                    },
                    {
                        "address": "0xbfd2030a15df8dd65f4dd9cce4690a312beda820",
                        "amount": "1",
                        "iconUrl": "",
                        "isERC1155": false,
                        "isERC721": true,
                        "sign": false,
                        "tokenID": "4514",
                        "value": ""
                    },
                    {
                        "address": "0xbfd2030a15df8dd65f4dd9cce4690a312beda820",
                        "amount": "1",
                        "iconUrl": "",
                        "isERC1155": false,
                        "isERC721": true,
                        "sign": false,
                        "tokenID": "4515",
                        "value": ""
                    }
                ]
            },
            {
                "account": "0x84efad6b760e39d0b8a023c5cb18c6ae7aa05f27",
                "assets": [
                    {
                        "address": "0xbfd2030a15df8dd65f4dd9cce4690a312beda820",
                        "amount": "1",
                        "iconUrl": "",
                        "isERC1155": false,
                        "isERC721": true,
                        "sign": true,
                        "tokenID": "4513",
                        "value": ""
                    },
                    {
                        "address": "0xbfd2030a15df8dd65f4dd9cce4690a312beda820",
                        "amount": "1",
                        "iconUrl": "",
                        "isERC1155": false,
                        "isERC721": true,
                        "sign": true,
                        "tokenID": "4514",
                        "value": ""
                    },
                    {
                        "address": "0xbfd2030a15df8dd65f4dd9cce4690a312beda820",
                        "amount": "1",
                        "iconUrl": "",
                        "isERC1155": false,
                        "isERC721": true,
                        "sign": true,
                        "tokenID": "4515",
                        "value": ""
                    }
                ]
            }
        ]
    },
    "profile": {
        "basic_info": {
            "baseFee": "41.461557434",
            "blockNumber": 15582863,
            "callData": "0xa0712d680000000000000000000000000000000000000000000000000000000000000003",
            "debugEnable": true,
            "errorInfo": "",
            "eventCount": 3,
            "feeRecipient": "0x388c818ca8b9251b393131c08a736a67ccb19297",
            "formatValue": "0",
            "gasLimit": 389561,
            "gasPrice": "43.461557434",
            "gasUsed": 389561,
            "intTxnCount": 0,
            "internalRevert": false,
            "internalRevertMessage": "",
            "isContractCreation": false,
            "isFlashloan": false,
            "maxFee": "50",
            "nonce": 346,
            "overwritedBlockNumber": -1,
            "priorityFee": "2",
            "receiver": "0xbfd2030a15df8dd65f4dd9cce4690a312beda820",
            "revertMessage": "",
            "sender": "0x84efad6b760e39d0b8a023c5cb18c6ae7aa05f27",
            "simulationEnable": true,
            "sourceTxnHash": "0x11f6e1664e00b1044a3ed8fbc77cc85fc6ef317285777a6122995a2e50f0d11b",
            "status": true,
            "timestamp": "2022-09-21T16:13:47Z",
            "transactionFee": "0.016930927775546474",
            "txnHash": "0x11f6e1664e00b1044a3ed8fbc77cc85fc6ef317285777a6122995a2e50f0d11b",
            "txnIndex": 116,
            "type": 2,
            "value": "0"
        },
        "fund_flow": [
            {
                "amount": "1",
                "from": "0x0000000000000000000000000000000000000000",
                "id": 1,
                "isERC1155": false,
                "isERC721": true,
                "isReverted": false,
                "order": 1,
                "to": "0x84efad6b760e39d0b8a023c5cb18c6ae7aa05f27",
                "token": "0xbfd2030a15df8dd65f4dd9cce4690a312beda820",
                "tokenID": "4513"
            },
            {
                "amount": "1",
                "from": "0x0000000000000000000000000000000000000000",
                "id": 2,
                "isERC1155": false,
                "isERC721": true,
                "isReverted": false,
                "order": 2,
                "to": "0x84efad6b760e39d0b8a023c5cb18c6ae7aa05f27",
                "token": "0xbfd2030a15df8dd65f4dd9cce4690a312beda820",
                "tokenID": "4514"
            },
            {
                "amount": "1",
                "from": "0x0000000000000000000000000000000000000000",
                "id": 3,
                "isERC1155": false,
                "isERC721": true,
                "isReverted": false,
                "order": 3,
                "to": "0x84efad6b760e39d0b8a023c5cb18c6ae7aa05f27",
                "token": "0xbfd2030a15df8dd65f4dd9cce4690a312beda820",
                "tokenID": "4515"
            }
        ],
        "token_infos": [
            {
                "address": "0xc02aaa39b223fe8d0a0e5c4f27ead9083c756cc2",
                "decimals": 18
            },
            {
                "address": "0xeeeeeeeeeeeeeeeeeeeeeeeeeeeeeeeeeeeeeeee",
                "decimals": 18
            }
        ]
    },
    "address_label": {
        "labels": [
            {
                "address": "0x0000000000000000000000000000000000000002",
                "label": "Precompiled"
            },
            {
                "address": "0x0000000000000000000000000000000000000003",
                "label": "Precompiled"
            },
            {
                "address": "0x0000000000000000000000000000000000000004",
                "label": "Precompiled"
            },
            {
                "address": "0xeeeeeeeeeeeeeeeeeeeeeeeeeeeeeeeeeeeeeeee",
                "label": "Ether"
            },
            {
                "address": "0xbfd2030a15df8dd65f4dd9cce4690a312beda820",
                "label": "MonoBitz (MONO)"
            },
            {
                "address": "0x388c818ca8b9251b393131c08a736a67ccb19297",
                "label": "LidoExecutionLayerRewardsVault"
            },
            {
                "address": "0x0000000000000000000000000000000000000001",
                "label": "Precompiled"
            }
        ]
    },
    "trace": {
        "accountLabels": null,
        "dataMap": {
            "-1": {
                "invocation": {
                    "address": "0x84efad6b760e39d0b8a023c5cb18c6ae7aa05f27",
                    "callData": "",
                    "decodedMethod": null,
                    "errorInfo": "",
                    "fromAddress": "",
                    "gasUsed": 0,
                    "id": -1,
                    "methodDecoded": false,
                    "operation": "",
                    "output": "",
                    "revert": false,
                    "revertMessage": "",
                    "selector": "",
                    "status": false,
                    "value": ""
                },
                "nodeType": 0
            },
            "0": {
                "invocation": {
                    "address": "0xbfd2030a15df8dd65f4dd9cce4690a312beda820",
                    "callData": "0x0000000000000000000000000000000000000000000000000000000000000003",
                    "decodedMethod": {
                        "callParams": [
                            {
                                "name": "_mintAmount",
                                "type": "uint256",
                                "value": "3"
                            }
                        ],
                        "constructorArguments": "",
                        "name": "mint",
                        "returnParams": [],
                        "signature": "mint(uint256)"
                    },
                    "errorInfo": "",
                    "fromAddress": "0x84efad6b760e39d0b8a023c5cb18c6ae7aa05f27",
                    "gasUsed": 389561,
                    "id": 0,
                    "methodDecoded": true,
                    "operation": "CALL",
                    "output": "",
                    "revert": false,
                    "revertMessage": "",
                    "selector": "0xa0712d68",
                    "status": true,
                    "value": "0"
                },
                "nodeType": 0
            },
            "1": {
                "event": {
                    "contract": "0xbfd2030a15df8dd65f4dd9cce4690a312beda820",
                    "decodedLog": {
                        "name": "Transfer",
                        "params": [
                            {
                                "name": "from",
                                "type": "address",
                                "value": "0x0000000000000000000000000000000000000000"
                            },
                            {
                                "name": "to",
                                "type": "address",
                                "value": "0x84efad6b760e39d0b8a023c5cb18c6ae7aa05f27"
                            },
                            {
                                "decimalAvailable": true,
                                "name": "tokenId",
                                "type": "uint256",
                                "value": "4,513"
                            }
                        ],
                        "signature": "Transfer(address,address,uint256)"
                    },
                    "id": 1,
                    "logData": "0x",
                    "logDecoded": true,
                    "operation": "EVENT",
                    "revert": false,
                    "status": true,
                    "topics": [
                        "0xddf252ad1be2c89b69c2b068fc378daa952ba7f163c4a11628f55a4df523b3ef",
                        "0x0000000000000000000000000000000000000000000000000000000000000000",
                        "0x00000000000000000000000084efad6b760e39d0b8a023c5cb18c6ae7aa05f27",
                        "0x00000000000000000000000000000000000000000000000000000000000011a1"
                    ]
                },
                "nodeType": 1
            },
            "2": {
                "event": {
                    "contract": "0xbfd2030a15df8dd65f4dd9cce4690a312beda820",
                    "decodedLog": {
                        "name": "Transfer",
                        "params": [
                            {
                                "name": "from",
                                "type": "address",
                                "value": "0x0000000000000000000000000000000000000000"
                            },
                            {
                                "name": "to",
                                "type": "address",
                                "value": "0x84efad6b760e39d0b8a023c5cb18c6ae7aa05f27"
                            },
                            {
                                "decimalAvailable": true,
                                "name": "tokenId",
                                "type": "uint256",
                                "value": "4,514"
                            }
                        ],
                        "signature": "Transfer(address,address,uint256)"
                    },
                    "id": 2,
                    "logData": "0x",
                    "logDecoded": true,
                    "operation": "EVENT",
                    "revert": false,
                    "status": true,
                    "topics": [
                        "0xddf252ad1be2c89b69c2b068fc378daa952ba7f163c4a11628f55a4df523b3ef",
                        "0x0000000000000000000000000000000000000000000000000000000000000000",
                        "0x00000000000000000000000084efad6b760e39d0b8a023c5cb18c6ae7aa05f27",
                        "0x00000000000000000000000000000000000000000000000000000000000011a2"
                    ]
                },
                "nodeType": 1
            },
            "3": {
                "event": {
                    "contract": "0xbfd2030a15df8dd65f4dd9cce4690a312beda820",
                    "decodedLog": {
                        "name": "Transfer",
                        "params": [
                            {
                                "name": "from",
                                "type": "address",
                                "value": "0x0000000000000000000000000000000000000000"
                            },
                            {
                                "name": "to",
                                "type": "address",
                                "value": "0x84efad6b760e39d0b8a023c5cb18c6ae7aa05f27"
                            },
                            {
                                "decimalAvailable": true,
                                "name": "tokenId",
                                "type": "uint256",
                                "value": "4,515"
                            }
                        ],
                        "signature": "Transfer(address,address,uint256)"
                    },
                    "id": 3,
                    "logData": "0x",
                    "logDecoded": true,
                    "operation": "EVENT",
                    "revert": false,
                    "status": true,
                    "topics": [
                        "0xddf252ad1be2c89b69c2b068fc378daa952ba7f163c4a11628f55a4df523b3ef",
                        "0x0000000000000000000000000000000000000000000000000000000000000000",
                        "0x00000000000000000000000084efad6b760e39d0b8a023c5cb18c6ae7aa05f27",
                        "0x00000000000000000000000000000000000000000000000000000000000011a3"
                    ]
                },
                "nodeType": 1
            }
        },
        "gasFlame": [
            {
                "children": [
                    {
                        "children": [
                            {
                                "children": [],
                                "depth": 0,
                                "name": "Initial Gas",
                                "value": 21204
                            },
                            {
                                "children": [],
                                "depth": 0,
                                "name": "Executed Gas",
                                "value": 368357
                            }
                        ],
                        "depth": -1,
                        "name": "Actual Gas Used",
                        "value": 389561
                    },
                    {
                        "children": [],
                        "depth": -1,
                        "name": "Refunded Gas",
                        "value": 0
                    }
                ],
                "depth": -2,
                "name": "Total Gas",
                "value": 389561
            }
        ],
        "isConfirmed": true,
        "mainTrace": [
            {
                "children": [
                    {
                        "children": [
                            {
                                "children": [],
                                "depth": 1,
                                "id": 1,
                                "order": 1
                            },
                            {
                                "children": [],
                                "depth": 1,
                                "id": 2,
                                "order": 2
                            },
                            {
                                "children": [],
                                "depth": 1,
                                "id": 3,
                                "order": 3
                            }
                        ],
                        "depth": 0,
                        "id": 0,
                        "order": 0
                    }
                ],
                "depth": -1,
                "id": -1,
                "order": -1
            }
        ],
        "mainTraceNodeCount": 4,
        "parentIdMap": {
            "0": -1,
            "1": 0,
            "2": 0,
            "3": 0
        },
        "tidyTrace": [
            {
                "children": [
                    {
                        "children": [
                            {
                                "children": [],
                                "depth": 1,
                                "id": 1,
                                "order": 1
                            },
                            {
                                "children": [],
                                "depth": 1,
                                "id": 2,
                                "order": 2
                            },
                            {
                                "children": [],
                                "depth": 1,
                                "id": 3,
                                "order": 3
                            }
                        ],
                        "depth": 0,
                        "id": 0,
                        "order": 0
                    }
                ],
                "depth": -1,
                "id": -1,
                "order": -1
            }
        ],
        "tidyTraceNodeCount": 4
    },
    "state_change": {
        "stateChanges": [
            {
                "address": "0xbfd2030a15df8dd65f4dd9cce4690a312beda820",
                "erc": "ERC-721",
                "slots": [
                    {
                        "current": "0x0000000000000000000000000000000000000000000000000000000000000005",
                        "key": "0xb82408fcc7d878cdc1c2464098be31bc810164c67c2d28cd1f31173d193d9bc2",
                        "prev": "0x0000000000000000000000000000000000000000000000000000000000000000"
                    },
                    {
                        "current": "0x00000000000000000000000000000000000000000000000000000000000011a3",
                        "key": "0xe6e1ffaf1cef07841b26f2e1fa92cfa8f6e381ea400fe8a3bee7715f50c904c2",
                        "prev": "0x0000000000000000000000000000000000000000000000000000000000000000"
                    },
                    {
                        "current": "0x00000000000000000000000000000000000000000000000000000000000011a1",
                        "key": "0xf3f7a9fe364faab93b216da50a3214154f22a0a2b415b23a84c8169e8b638083",
                        "prev": "0x0000000000000000000000000000000000000000000000000000000000000000"
                    },
                    {
                        "current": "0x00000000000000000000000084efad6b760e39d0b8a023c5cb18c6ae7aa05f27",
                        "key": "0x3961c56edbe6934dfcaf99c4b80f5873c3bf185c4159432cce6f8fae8e8dcb48",
                        "prev": "0x0000000000000000000000000000000000000000000000000000000000000000"
                    },
                    {
                        "current": "0x00000000000000000000000000000000000000000000000000000000000011a0",
                        "key": "0x7b764d28b8080e33fefe848e954c0a224a3de5ade44bd161aeb2cefb91c3440f",
                        "prev": "0x0000000000000000000000000000000000000000000000000000000000000000"
                    },
                    {
                        "current": "0x00000000000000000000000000000000000000000000000000000000000011a1",
                        "key": "0x731af60861bcb00cb30357a1ff870c7869af92f37cf89bc752d561ca97e84cb2",
                        "prev": "0x0000000000000000000000000000000000000000000000000000000000000000"
                    },
                    {
                        "current": "0x00000000000000000000000000000000000000000000000000000000000011a1",
                        "key": "0x63bee7ed3894f983e91642c0efb3bb75ce094900dbdd28782b336b12ca83a63c",
                        "prev": "0x0000000000000000000000000000000000000000000000000000000000000000"
                    },
                    {
                        "current": "0x00000000000000000000000000000000000000000000000000000000000011a2",
                        "key": "0xa692df58398bc711b2dce4e3de437d4172565b6696fe2451a8baed7354e98184",
                        "prev": "0x0000000000000000000000000000000000000000000000000000000000000000"
                    },
                    {
                        "current": "0x00000000000000000000000000000000000000000000000000000000000011a2",
                        "key": "0xf27d5c8f52643d582b9b4edb475cb9cd5736846fc32e5b9fbc2a4a0bafbad5b0",
                        "prev": "0x0000000000000000000000000000000000000000000000000000000000000000"
                    },
                    {
                        "current": "0x00000000000000000000000000000000000000000000000000000000000011a3",
                        "key": "0x0000000000000000000000000000000000000000000000000000000000000008",
                        "prev": "0x00000000000000000000000000000000000000000000000000000000000011a0"
                    },
                    {
                        "current": "0x0000000000000000000000000000000000000000000000000000000000000003",
                        "key": "0x3d0836eead97fa6025843e9966e3bf8f57062d7285c6ddcc83f47af9f1235210",
                        "prev": "0x0000000000000000000000000000000000000000000000000000000000000000"
                    },
                    {
                        "current": "0x00000000000000000000000000000000000000000000000000000000000011a3",
                        "key": "0xf3f7a9fe364faab93b216da50a3214154f22a0a2b415b23a84c8169e8b638085",
                        "prev": "0x0000000000000000000000000000000000000000000000000000000000000000"
                    },
                    {
                        "current": "0x00000000000000000000000084efad6b760e39d0b8a023c5cb18c6ae7aa05f27",
                        "key": "0x4a349d66645bde473b6335a6a01ded1f3cd85bd8a00e4d17554753b7ff727cd3",
                        "prev": "0x0000000000000000000000000000000000000000000000000000000000000000"
                    },
                    {
                        "current": "0x0000000000000000000000000000000000000000000000000000000000000004",
                        "key": "0xc754ba9b78200530dcfa8b4ac4b4773a3b142b9d8b38e2b739b3c6a525dd4313",
                        "prev": "0x0000000000000000000000000000000000000000000000000000000000000000"
                    },
                    {
                        "current": "0x00000000000000000000000000000000000000000000000000000000000011a2",
                        "key": "0xf3f7a9fe364faab93b216da50a3214154f22a0a2b415b23a84c8169e8b638084",
                        "prev": "0x0000000000000000000000000000000000000000000000000000000000000000"
                    },
                    {
                        "current": "0x00000000000000000000000084efad6b760e39d0b8a023c5cb18c6ae7aa05f27",
                        "key": "0x202e5d83f1cc56f3a918ca12f51d5c0ac9d34d5db98ba3e020b62c614960a564",
                        "prev": "0x0000000000000000000000000000000000000000000000000000000000000000"
                    },
                    {
                        "current": "0x0000000000000000000000000000000000000000000000000000000000000006",
                        "key": "0x1e55077af24dbaa0c23862af2c8df8f154bdcad903e33bdc184a071c7f258769",
                        "prev": "0x0000000000000000000000000000000000000000000000000000000000000003"
                    }
                ],
                "storageVariables": [
                    {
                        "name": "_balances",
                        "type": "mapping(address => uint256)",
                        "value": {
                            "pairs": [
                                {
                                    "key": "0x84efad6b760e39d0b8a023c5cb18c6ae7aa05f27",
                                    "value": {
                                        "current": "6",
                                        "prev": "3",
                                        "typeTag": 1
                                    }
                                }
                            ],
                            "typeTag": 4
                        }
                    },
                    {
                        "name": "_ownedTokensIndex",
                        "type": "mapping(uint256 => uint256)",
                        "value": {
                            "pairs": [
                                {
                                    "key": "4513",
                                    "value": {
                                        "current": "3",
                                        "prev": "0",
                                        "typeTag": 1
                                    }
                                },
                                {
                                    "key": "4514",
                                    "value": {
                                        "current": "4",
                                        "prev": "0",
                                        "typeTag": 1
                                    }
                                },
                                {
                                    "key": "4515",
                                    "value": {
                                        "current": "5",
                                        "prev": "0",
                                        "typeTag": 1
                                    }
                                }
                            ],
                            "typeTag": 4
                        }
                    },
                    {
                        "name": "_allTokensIndex",
                        "type": "mapping(uint256 => uint256)",
                        "value": {
                            "pairs": [
                                {
                                    "key": "4513",
                                    "value": {
                                        "current": "4512",
                                        "prev": "0",
                                        "typeTag": 1
                                    }
                                },
                                {
                                    "key": "4514",
                                    "value": {
                                        "current": "4513",
                                        "prev": "0",
                                        "typeTag": 1
                                    }
                                },
                                {
                                    "key": "4515",
                                    "value": {
                                        "current": "4514",
                                        "prev": "0",
                                        "typeTag": 1
                                    }
                                }
                            ],
                            "typeTag": 4
                        }
                    },
                    {
                        "name": "_ownedTokens",
                        "type": "mapping(address => mapping(uint256 => uint256))",
                        "value": {
                            "pairs": [
                                {
                                    "key": "0x84efad6b760e39d0b8a023c5cb18c6ae7aa05f27",
                                    "value": {
                                        "pairs": [
                                            {
                                                "key": "3",
                                                "value": {
                                                    "current": "4513",
                                                    "prev": "0",
                                                    "typeTag": 1
                                                }
                                            },
                                            {
                                                "key": "4",
                                                "value": {
                                                    "current": "4514",
                                                    "prev": "0",
                                                    "typeTag": 1
                                                }
                                            },
                                            {
                                                "key": "5",
                                                "value": {
                                                    "current": "4515",
                                                    "prev": "0",
                                                    "typeTag": 1
                                                }
                                            }
                                        ],
                                        "typeTag": 4
                                    }
                                }
                            ],
                            "typeTag": 4
                        }
                    },
                    {
                        "name": "_owners",
                        "type": "mapping(uint256 => address)",
                        "value": {
                            "pairs": [
                                {
                                    "key": "4513",
                                    "value": {
                                        "current": "0x84efad6b760e39d0b8a023c5cb18c6ae7aa05f27",
                                        "prev": "0x0000000000000000000000000000000000000000",
                                        "typeTag": 1
                                    }
                                },
                                {
                                    "key": "4514",
                                    "value": {
                                        "current": "0x84efad6b760e39d0b8a023c5cb18c6ae7aa05f27",
                                        "prev": "0x0000000000000000000000000000000000000000",
                                        "typeTag": 1
                                    }
                                },
                                {
                                    "key": "4515",
                                    "value": {
                                        "current": "0x84efad6b760e39d0b8a023c5cb18c6ae7aa05f27",
                                        "prev": "0x0000000000000000000000000000000000000000",
                                        "typeTag": 1
                                    }
                                }
                            ],
                            "typeTag": 4
                        }
                    },
                    {
                        "name": "_allTokens",
                        "type": "uint256[]",
                        "value": {
                            "elemType": "uint256",
                            "elems": [
                                {
                                    "index": 4512,
                                    "value": {
                                        "current": "4513",
                                        "prev": "0",
                                        "typeTag": 1
                                    }
                                },
                                {
                                    "index": 4513,
                                    "value": {
                                        "current": "4514",
                                        "prev": "0",
                                        "typeTag": 1
                                    }
                                },
                                {
                                    "index": 4514,
                                    "value": {
                                        "current": "4515",
                                        "prev": "0",
                                        "typeTag": 1
                                    }
                                }
                            ],
                            "typeTag": 2
                        }
                    }
                ]
            }
        ]
    }
}