{
    "balance_change": {
        "balanceChanges": [
            {
                "account": "0x38b6962b373a5c30ee896560ce19993f8c680862",
                "assets": [
                    {
                        "address": "0x5d034d0d0d98fb76192ef2ef27e197fcfd9386ec",
                        "amount": "133.9866",
                        "iconUrl": "",
                        "isERC1155": false,
                        "isERC721": false,
                        "sign": false,
                        "value": ""
                    }
                ]
            },
            {
                "account": "0x2ec45b81b15830d9ed40dccafa2ec3511fb70950",
                "assets": [
                    {
                        "address": "0x5d034d0d0d98fb76192ef2ef27e197fcfd9386ec",
                        "amount": "133.9866",
                        "iconUrl": "",
                        "isERC1155": false,
                        "isERC721": false,
                        "sign": true,
                        "value": ""
                    }
                ]
            }
        ]
    },
    "profile": {
        "basic_info": {
            "baseFee": "",
            "blockNumber": 7603451,
            "callData": "0xa9059cbb0000000000000000000000002ec45b81b15830d9ed40dccafa2ec3511fb70950000000000000000000000000000000000000000000000007437006cefe5a8000",
            "debugEnable": true,
            "errorInfo": "",
            "eventCount": 1,
            "feeRecipient": "0x5a0b54d5dc17e0aadc383d2db43b0a0d3e029c4c",
            "formatValue": "0",
            "gasLimit": 300000,
            "gasPrice": "10",
            "gasUsed": 52900,
            "intTxnCount": 0,
            "internalRevert": false,
            "internalRevertMessage": "",
            "isContractCreation": false,
            "isFlashloan": false,
            "maxFee": "",
            "nonce": 17259,
            "overwritedBlockNumber": -1,
            "priorityFee": "",
            "receiver": "0x5d034d0d0d98fb76192ef2ef27e197fcfd9386ec",
            "revertMessage": "",
            "sender": "0x38b6962b373a5c30ee896560ce19993f8c680862",
            "simulationEnable": true,
            "sourceTxnHash": "0x11ee6cf09f6c39fc5a90e8a9186de97cf360ce4bb3387560b91af7f30b35501c",
            "status": true,
            "timestamp": "2019-04-20T08:07:19Z",
            "transactionFee": "0.000529",
            "txnHash": "0x11ee6cf09f6c39fc5a90e8a9186de97cf360ce4bb3387560b91af7f30b35501c",
            "txnIndex": 3,
            "type": 0,
            "value": "0"
        },
        "fund_flow": [
            {
                "amount": "133.9866",
                "from": "0x38b6962b373a5c30ee896560ce19993f8c680862",
                "id": 1,
                "isERC1155": false,
                "isERC721": false,
                "isReverted": false,
                "order": 1,
                "to": "0x2ec45b81b15830d9ed40dccafa2ec3511fb70950",
                "token": "0x5d034d0d0d98fb76192ef2ef27e197fcfd9386ec"
            }
        ],
        "token_infos": [
            {
                "address": "0x5d034d0d0d98fb76192ef2ef27e197fcfd9386ec",
                "decimals": 18
            },
            {
                "address": "0xc02aaa39b223fe8d0a0e5c4f27ead9083c756cc2",
                "decimals": 18
            },
            {
                "address": "0xeeeeeeeeeeeeeeeeeeeeeeeeeeeeeeeeeeeeeeee",
                "decimals": 18
            }
        ]
    },
    "address_label": {
        "labels": [
            {
                "address": "0x0000000000000000000000000000000000000001",
                "label": "Precompiled"
            },
            {
                "address": "0x0000000000000000000000000000000000000002",
                "label": "Precompiled"
            },
            {
                "address": "0x0000000000000000000000000000000000000003",
                "label": "Precompiled"
            },
            {
                "address": "0x0000000000000000000000000000000000000004",
                "label": "Precompiled"
            },
            {
                "address": "0xeeeeeeeeeeeeeeeeeeeeeeeeeeeeeeeeeeeeeeee",
                "label": "Ether"
            },
            {
                "address": "0x5d034d0d0d98fb76192ef2ef27e197fcfd9386ec",
                "label": "AGC"
            }
        ]
    },
    "trace": {
        "accountLabels": null,
        "dataMap": {
            "-1": {
                "invocation": {
                    "address": "0x38b6962b373a5c30ee896560ce19993f8c680862",
                    "callData": "",
                    "decodedMethod": null,
                    "errorInfo": "",
                    "fromAddress": "",
                    "gasUsed": 0,
                    "id": -1,
                    "methodDecoded": false,
                    "operation": "",
                    "output": "",
                    "revert": false,
                    "revertMessage": "",
                    "selector": "",
                    "status": false,
                    "value": ""
                },
                "nodeType": 0
            },
            "0": {
                "invocation": {
                    "address": "0x5d034d0d0d98fb76192ef2ef27e197fcfd9386ec",
                    "callData": "0x0000000000000000000000002ec45b81b15830d9ed40dccafa2ec3511fb70950000000000000000000000000000000000000000000000007437006cefe5a8000",
                    "decodedMethod": {
                        "callParams": [
                            {
                                "name": "_to",
                                "type": "address",
                                "value": "0x2ec45b81b15830d9ed40dccafa2ec3511fb70950"
                            },
                            {
                                "decimalAvailable": true,
                                "name": "_value",
                                "type": "uint256",
                                "value": "133,986,600,000,000,000,000"
                            }
                        ],
                        "constructorArguments": "",
                        "name": "transfer",
                        "returnParams": [],
                        "signature": "transfer(address,uint256)"
                    },
                    "errorInfo": "",
                    "fromAddress": "0x38b6962b373a5c30ee896560ce19993f8c680862",
                    "gasUsed": 52900,
                    "id": 0,
                    "methodDecoded": true,
                    "operation": "CALL",
                    "output": "",
                    "revert": false,
                    "revertMessage": "",
                    "selector": "0xa9059cbb",
                    "status": true,
                    "value": "0"
                },
                "nodeType": 0
            },
            "1": {
                "event": {
                    "contract": "0x5d034d0d0d98fb76192ef2ef27e197fcfd9386ec",
                    "decodedLog": {
                        "name": "Transfer",
                        "params": [
                            {
                                "name": "from",
                                "type": "address",
                                "value": "0x38b6962b373a5c30ee896560ce19993f8c680862"
                            },
                            {
                                "name": "to",
                                "type": "address",
                                "value": "0x2ec45b81b15830d9ed40dccafa2ec3511fb70950"
                            },
                            {
                                "decimalAvailable": true,
                                "name": "value",
                                "type": "uint256",
                                "value": "133,986,600,000,000,000,000"
                            }
                        ],
                        "signature": "Transfer(address,address,uint256)"
                    },
                    "id": 1,
                    "logData": "0x000000000000000000000000000000000000000000000007437006cefe5a8000",
                    "logDecoded": true,
                    "operation": "EVENT",
                    "revert": false,
                    "status": true,
                    "topics": [
                        "0xddf252ad1be2c89b69c2b068fc378daa952ba7f163c4a11628f55a4df523b3ef",
                        "0x00000000000000000000000038b6962b373a5c30ee896560ce19993f8c680862",
                        "0x0000000000000000000000002ec45b81b15830d9ed40dccafa2ec3511fb70950"
                    ]
                },
                "nodeType": 1
            }
        },
        "gasFlame": [
            {
                "children": [
                    {
                        "children": [
                            {
                                "children": [],
                                "depth": 0,
                                "name": "Initial Gas",
                                "value": 23320
                            },
                            {
                                "children": [],
                                "depth": 0,
                                "name": "Executed Gas",
                                "value": 29580
                            }
                        ],
                        "depth": -1,
                        "name": "Actual Gas Used",
                        "value": 52900
                    },
                    {
                        "children": [],
                        "depth": -1,
                        "name": "Refunded Gas",
                        "value": 0
                    }
                ],
                "depth": -2,
                "name": "Total Gas",
                "value": 52900
            }
        ],
        "isConfirmed": true,
        "mainTrace": [
            {
                "children": [
                    {
                        "children": [
                            {
                                "children": [],
                                "depth": 1,
                                "id": 1,
                                "order": 1
                            }
                        ],
                        "depth": 0,
                        "id": 0,
                        "order": 0
                    }
                ],
                "depth": -1,
                "id": -1,
                "order": -1
            }
        ],
        "mainTraceNodeCount": 2,
        "parentIdMap": {
            "0": -1,
            "1": 0
        },
        "tidyTrace": [
            {
                "children": [
                    {
                        "children": [
                            {
                                "children": [],
                                "depth": 1,
                                "id": 1,
                                "order": 1
                            }
                        ],
                        "depth": 0,
                        "id": 0,
                        "order": 0
                    }
                ],
                "depth": -1,
                "id": -1,
                "order": -1
            }
        ],
        "tidyTraceNodeCount": 2
    },
    "state_change": {
        "stateChanges": [
            {
                "address": "0x5d034d0d0d98fb76192ef2ef27e197fcfd9386ec",
                "erc": "",
                "slots": [
                    {
                        "current": "0x00000000000000000000000000000000000000000017786640725430675f1032",
                        "key": "0xd4792192f2c478654d94a3055c78aa6bb87254d9dcb50a96c21dd2852b3669f1",
                        "prev": "0x00000000000000000000000000000000000000000017786d83e25aff65b99032"
                    },
                    {
                        "current": "0x000000000000000000000000000000000000000000000007437006cefe5a8000",
                        "key": "0x5bf7355f527acc6b15721ae82790b133a6a9081a25bb72244d6c05dc5a532bc7",
                        "prev": "0x0000000000000000000000000000000000000000000000000000000000000000"
                    }
                ],
                "storageVariables": [
                    {
                        "name": "balanceOf",
                        "type": "mapping(address => uint256)",
                        "value": {
                            "pairs": [
                                {
                                    "key": "0x2ec45b81b15830d9ed40dccafa2ec3511fb70950",
                                    "value": {
                                        "current": "133986600000000000000",
                                        "prev": "0",
                                        "typeTag": 1
                                    }
                                },
                                {
                                    "key": "0x38b6962b373a5c30ee896560ce19993f8c680862",
                                    "value": {
                                        "current": "28373864040843079459999794",
                                        "prev": "28373998027443079459999794",
                                        "typeTag": 1
                                    }
                                }
                            ],
                            "typeTag": 4
                        }
                    }
                ]
            }
        ]
    }
}