{
    "balance_change": {
        "balanceChanges": [
            {
                "account": "0x6dfcfd5a6fb1833498d54626adad2734367dab3d",
                "assets": [
                    {
                        "address": "0x808507121b80c02388fad14726482e061b8da827",
                        "amount": "9,994.8",
                        "iconUrl": "https://assets.blocksec.com/icon/58b3d61bebf7cd1c556b96f909a6e07345e88e9ddfa8c427541f70e3b35f85e9.png",
                        "isERC1155": false,
                        "isERC721": false,
                        "sign": false,
                        "value": "11494.019999999999112"
                    }
                ]
            },
            {
                "account": "0x88a005be4f9ae732095a7b1b242af29868ac0d19",
                "assets": [
                    {
                        "address": "0x808507121b80c02388fad14726482e061b8da827",
                        "amount": "9,994.8",
                        "iconUrl": "https://assets.blocksec.com/icon/58b3d61bebf7cd1c556b96f909a6e07345e88e9ddfa8c427541f70e3b35f85e9.png",
                        "isERC1155": false,
                        "isERC721": false,
                        "sign": true,
                        "value": "11494.019999999999112"
                    }
                ]
            }
        ]
    },
    "profile": {
        "basic_info": {
            "baseFee": "31.643758535",
            "blockNumber": 18588673,
            "callData": "0xa9059cbb00000000000000000000000088a005be4f9ae732095a7b1b242af29868ac0d1900000000000000000000000000000000000000000000021dd1b6ad47b2380000",
            "debugEnable": true,
            "errorInfo": "",
            "eventCount": 1,
            "feeRecipient": "0x95222290dd7278aa3ddd389cc1e1d165cc4bafe5",
            "formatValue": "0",
            "gasLimit": 250000,
            "gasPrice": "35",
            "gasUsed": 34449,
            "intTxnCount": 0,
            "internalRevert": false,
            "internalRevertMessage": "",
            "isContractCreation": false,
            "isFlashloan": false,
            "maxFee": "",
            "nonce": 80,
            "overwritedBlockNumber": -1,
            "priorityFee": "",
            "receiver": "0x808507121b80c02388fad14726482e061b8da827",
            "revertMessage": "",
            "sender": "0x6dfcfd5a6fb1833498d54626adad2734367dab3d",
            "simulationEnable": true,
            "sourceTxnHash": "0x11e02c7db482eb8a0ac98dc94992ba0ab76a5a5ccdecf87a291dfbea2a659970",
            "status": true,
            "timestamp": "2023-11-17T02:38:35Z",
            "transactionFee": "0.001205715",
            "txnHash": "0x11e02c7db482eb8a0ac98dc94992ba0ab76a5a5ccdecf87a291dfbea2a659970",
            "txnIndex": 28,
            "type": 0,
            "value": "0"
        },
        "fund_flow": [
            {
                "amount": "9,994.8",
                "from": "0x6dfcfd5a6fb1833498d54626adad2734367dab3d",
                "id": 1,
                "isERC1155": false,
                "isERC721": false,
                "isReverted": false,
                "order": 1,
                "to": "0x88a005be4f9ae732095a7b1b242af29868ac0d19",
                "token": "0x808507121b80c02388fad14726482e061b8da827"
            }
        ],
        "token_infos": [
            {
                "address": "0xc02aaa39b223fe8d0a0e5c4f27ead9083c756cc2",
                "decimals": 18
            },
            {
                "address": "0xeeeeeeeeeeeeeeeeeeeeeeeeeeeeeeeeeeeeeeee",
                "decimals": 18
            },
            {
                "address": "0x808507121b80c02388fad14726482e061b8da827",
                "decimals": 18
            }
        ]
    },
    "address_label": {
        "labels": [
            {
                "address": "0x0000000000000000000000000000000000000004",
                "label": "Precompiled"
            },
            {
                "address": "0xeeeeeeeeeeeeeeeeeeeeeeeeeeeeeeeeeeeeeeee",
                "label": "Ether"
            },
            {
                "address": "0x6dfcfd5a6fb1833498d54626adad2734367dab3d",
                "label": "BITHUMB"
            },
            {
                "address": "0x808507121b80c02388fad14726482e061b8da827",
                "label": "Pendle: PENDLE Token"
            },
            {
                "address": "0x0000000000000000000000000000000000000001",
                "label": "Precompiled"
            },
            {
                "address": "0x0000000000000000000000000000000000000002",
                "label": "Precompiled"
            },
            {
                "address": "0x0000000000000000000000000000000000000003",
                "label": "Precompiled"
            }
        ]
    },
    "trace": {
        "accountLabels": null,
        "dataMap": {
            "-1": {
                "invocation": {
                    "address": "0x6dfcfd5a6fb1833498d54626adad2734367dab3d",
                    "callData": "",
                    "decodedMethod": null,
                    "errorInfo": "",
                    "fromAddress": "",
                    "gasUsed": 0,
                    "id": -1,
                    "methodDecoded": false,
                    "operation": "",
                    "output": "",
                    "revert": false,
                    "revertMessage": "",
                    "selector": "",
                    "status": false,
                    "value": ""
                },
                "nodeType": 0
            },
            "0": {
                "invocation": {
                    "address": "0x808507121b80c02388fad14726482e061b8da827",
                    "callData": "0x00000000000000000000000088a005be4f9ae732095a7b1b242af29868ac0d1900000000000000000000000000000000000000000000021dd1b6ad47b2380000",
                    "decodedMethod": {
                        "callParams": [
                            {
                                "name": "dst",
                                "type": "address",
                                "value": "0x88a005be4f9ae732095a7b1b242af29868ac0d19"
                            },
                            {
                                "decimalAvailable": true,
                                "name": "amount",
                                "type": "uint256",
                                "value": "9,994,800,000,000,000,000,000"
                            }
                        ],
                        "constructorArguments": "",
                        "name": "transfer",
                        "returnParams": [
                            {
                                "name": "",
                                "type": "bool",
                                "value": true
                            }
                        ],
                        "signature": "transfer(address,uint256)"
                    },
                    "errorInfo": "",
                    "fromAddress": "0x6dfcfd5a6fb1833498d54626adad2734367dab3d",
                    "gasUsed": 34449,
                    "id": 0,
                    "methodDecoded": true,
                    "operation": "CALL",
                    "output": "0x0000000000000000000000000000000000000000000000000000000000000001",
                    "revert": false,
                    "revertMessage": "",
                    "selector": "0xa9059cbb",
                    "status": true,
                    "value": "0"
                },
                "nodeType": 0
            },
            "1": {
                "event": {
                    "contract": "0x808507121b80c02388fad14726482e061b8da827",
                    "decodedLog": {
                        "name": "Transfer",
                        "params": [
                            {
                                "name": "from",
                                "type": "address",
                                "value": "0x6dfcfd5a6fb1833498d54626adad2734367dab3d"
                            },
                            {
                                "name": "to",
                                "type": "address",
                                "value": "0x88a005be4f9ae732095a7b1b242af29868ac0d19"
                            },
                            {
                                "decimalAvailable": true,
                                "name": "value",
                                "type": "uint256",
                                "value": "9,994,800,000,000,000,000,000"
                            }
                        ],
                        "signature": "Transfer(address,address,uint256)"
                    },
                    "id": 1,
                    "logData": "0x00000000000000000000000000000000000000000000021dd1b6ad47b2380000",
                    "logDecoded": true,
                    "operation": "EVENT",
                    "revert": false,
                    "status": true,
                    "topics": [
                        "0xddf252ad1be2c89b69c2b068fc378daa952ba7f163c4a11628f55a4df523b3ef",
                        "0x0000000000000000000000006dfcfd5a6fb1833498d54626adad2734367dab3d",
                        "0x00000000000000000000000088a005be4f9ae732095a7b1b242af29868ac0d19"
                    ]
                },
                "nodeType": 1
            }
        },
        "gasFlame": [
            {
                "children": [
                    {
                        "children": [
                            {
                                "children": [],
                                "depth": 0,
                                "name": "Initial Gas",
                                "value": 21656
                            },
                            {
                                "children": [],
                                "depth": 0,
                                "name": "Executed Gas",
                                "value": 17593
                            }
                        ],
                        "depth": -1,
                        "name": "Actual Gas Used",
                        "value": 34449
                    },
                    {
                        "children": [],
                        "depth": -1,
                        "name": "Refunded Gas",
                        "value": 4800
                    }
                ],
                "depth": -2,
                "name": "Total Gas",
                "value": 39249
            }
        ],
        "isConfirmed": true,
        "mainTrace": [
            {
                "children": [
                    {
                        "children": [
                            {
                                "children": [],
                                "depth": 1,
                                "id": 1,
                                "order": 1
                            }
                        ],
                        "depth": 0,
                        "id": 0,
                        "order": 0
                    }
                ],
                "depth": -1,
                "id": -1,
                "order": -1
            }
        ],
        "mainTraceNodeCount": 2,
        "parentIdMap": {
            "0": -1,
            "1": 0
        },
        "tidyTrace": [
            {
                "children": [
                    {
                        "children": [
                            {
                                "children": [],
                                "depth": 1,
                                "id": 1,
                                "order": 1
                            }
                        ],
                        "depth": 0,
                        "id": 0,
                        "order": 0
                    }
                ],
                "depth": -1,
                "id": -1,
                "order": -1
            }
        ],
        "tidyTraceNodeCount": 2
    },
    "state_change": {
        "stateChanges": [
            {
                "address": "0x808507121b80c02388fad14726482e061b8da827",
                "erc": "ERC-20",
                "slots": [
                    {
                        "current": "0x0000000000000000000000000000000000000000000000000000000000000000",
                        "key": "0x971eb561fd6070f52a48b6a1afb640ecb3b9dfc06a3f52f0ceed9d226dfd3de3",
                        "prev": "0x00000000000000000000000000000000000000000000021dd1b6ad47b2380000"
                    },
                    {
                        "current": "0x00000000000000000000000000000000000000000000312eaac0ff6d44b0dc00",
                        "key": "0x235d68cce136d90b5d75bfd5fbd8874a219f574586a1f8437d964ac9c62b5126",
                        "prev": "0x000000000000000000000000000000000000000000002f10d90a52259278dc00"
                    }
                ],
                "storageVariables": [
                    {
                        "name": "balances",
                        "type": "mapping(address => uint256)",
                        "value": {
                            "pairs": [
                                {
                                    "key": "0x6dfcfd5a6fb1833498d54626adad2734367dab3d",
                                    "value": {
                                        "current": "0",
                                        "prev": "9994800000000000000000",
                                        "typeTag": 1
                                    }
                                },
                                {
                                    "key": "0x88a005be4f9ae732095a7b1b242af29868ac0d19",
                                    "value": {
                                        "current": "232256812003030000000000",
                                        "prev": "222262012003030000000000",
                                        "typeTag": 1
                                    }
                                }
                            ],
                            "typeTag": 4
                        }
                    }
                ]
            }
        ]
    }
}