{
    "balance_change": {
        "balanceChanges": [
            {
                "account": "0x26352d20e6a05e04a1ecc75d4a43ae9989272621",
                "assets": [
                    {
                        "address": "0x081f67afa0ccf8c7b17540767bbe95df2ba8d97f",
                        "amount": "105.60624333",
                        "iconUrl": "https://assets.blocksec.com/icon/ced5bc370487620d3c1ad87d97ca94c0afaa258ebefe8b20c703362a32792db9.png",
                        "isERC1155": false,
                        "isERC721": false,
                        "sign": false,
                        "value": ""
                    }
                ]
            },
            {
                "account": "0x1f1f2b217c26780f89f375d4885f390ec744b266",
                "assets": [
                    {
                        "address": "0x081f67afa0ccf8c7b17540767bbe95df2ba8d97f",
                        "amount": "105.60624333",
                        "iconUrl": "https://assets.blocksec.com/icon/ced5bc370487620d3c1ad87d97ca94c0afaa258ebefe8b20c703362a32792db9.png",
                        "isERC1155": false,
                        "isERC721": false,
                        "sign": true,
                        "value": ""
                    }
                ]
            }
        ]
    },
    "profile": {
        "basic_info": {
            "baseFee": "",
            "blockNumber": 5918785,
            "callData": "0xa9059cbb0000000000000000000000001f1f2b217c26780f89f375d4885f390ec744b266000000000000000000000000000000000000000000000005b994bec8641d9400",
            "debugEnable": true,
            "errorInfo": "",
            "eventCount": 1,
            "feeRecipient": "0xea674fdde714fd979de3edf0f56aa9716b898ec8",
            "formatValue": "0",
            "gasLimit": 90000,
            "gasPrice": "52",
            "gasUsed": 52622,
            "intTxnCount": 0,
            "internalRevert": false,
            "internalRevertMessage": "",
            "isContractCreation": false,
            "isFlashloan": false,
            "maxFee": "",
            "nonce": 36193,
            "overwritedBlockNumber": -1,
            "priorityFee": "",
            "receiver": "0x081f67afa0ccf8c7b17540767bbe95df2ba8d97f",
            "revertMessage": "",
            "sender": "0x26352d20e6a05e04a1ecc75d4a43ae9989272621",
            "simulationEnable": true,
            "sourceTxnHash": "0x11bab6a23ac6b2f48e8de3f1a19ecca423706cc3993f8799304373310209c76d",
            "status": true,
            "timestamp": "2018-07-07T00:55:39Z",
            "transactionFee": "0.002736344",
            "txnHash": "0x11bab6a23ac6b2f48e8de3f1a19ecca423706cc3993f8799304373310209c76d",
            "txnIndex": 52,
            "type": 0,
            "value": "0"
        },
        "fund_flow": [
            {
                "amount": "105.60624333",
                "from": "0x26352d20e6a05e04a1ecc75d4a43ae9989272621",
                "id": 1,
                "isERC1155": false,
                "isERC721": false,
                "isReverted": false,
                "order": 1,
                "to": "0x1f1f2b217c26780f89f375d4885f390ec744b266",
                "token": "0x081f67afa0ccf8c7b17540767bbe95df2ba8d97f"
            }
        ],
        "token_infos": [
            {
                "address": "0xeeeeeeeeeeeeeeeeeeeeeeeeeeeeeeeeeeeeeeee",
                "decimals": 18
            },
            {
                "address": "0x081f67afa0ccf8c7b17540767bbe95df2ba8d97f",
                "decimals": 18
            },
            {
                "address": "0xc02aaa39b223fe8d0a0e5c4f27ead9083c756cc2",
                "decimals": 18
            }
        ]
    },
    "address_label": {
        "labels": [
            {
                "address": "0xeeeeeeeeeeeeeeeeeeeeeeeeeeeeeeeeeeeeeeee",
                "label": "Ether"
            },
            {
                "address": "0x1f1f2b217c26780f89f375d4885f390ec744b266",
                "label": "COINEX"
            },
            {
                "address": "0x081f67afa0ccf8c7b17540767bbe95df2ba8d97f",
                "label": "CoinEx Token (CET)"
            },
            {
                "address": "0x0000000000000000000000000000000000000001",
                "label": "Precompiled"
            },
            {
                "address": "0x0000000000000000000000000000000000000002",
                "label": "Precompiled"
            },
            {
                "address": "0x0000000000000000000000000000000000000003",
                "label": "Precompiled"
            },
            {
                "address": "0x0000000000000000000000000000000000000004",
                "label": "Precompiled"
            }
        ]
    },
    "trace": {
        "accountLabels": null,
        "dataMap": {
            "-1": {
                "invocation": {
                    "address": "0x26352d20e6a05e04a1ecc75d4a43ae9989272621",
                    "callData": "",
                    "decodedMethod": null,
                    "errorInfo": "",
                    "fromAddress": "",
                    "gasUsed": 0,
                    "id": -1,
                    "methodDecoded": false,
                    "operation": "",
                    "output": "",
                    "revert": false,
                    "revertMessage": "",
                    "selector": "",
                    "status": false,
                    "value": ""
                },
                "nodeType": 0
            },
            "0": {
                "invocation": {
                    "address": "0x081f67afa0ccf8c7b17540767bbe95df2ba8d97f",
                    "callData": "0x0000000000000000000000001f1f2b217c26780f89f375d4885f390ec744b266000000000000000000000000000000000000000000000005b994bec8641d9400",
                    "decodedMethod": {
                        "callParams": [
                            {
                                "name": "_to",
                                "type": "address",
                                "value": "0x1f1f2b217c26780f89f375d4885f390ec744b266"
                            },
                            {
                                "decimalAvailable": true,
                                "name": "_value",
                                "type": "uint256",
                                "value": "105,606,243,330,000,000,000"
                            }
                        ],
                        "constructorArguments": "",
                        "name": "transfer",
                        "returnParams": [],
                        "signature": "transfer(address,uint256)"
                    },
                    "errorInfo": "",
                    "fromAddress": "0x26352d20e6a05e04a1ecc75d4a43ae9989272621",
                    "gasUsed": 52622,
                    "id": 0,
                    "methodDecoded": true,
                    "operation": "CALL",
                    "output": "",
                    "revert": false,
                    "revertMessage": "",
                    "selector": "0xa9059cbb",
                    "status": true,
                    "value": "0"
                },
                "nodeType": 0
            },
            "1": {
                "event": {
                    "contract": "0x081f67afa0ccf8c7b17540767bbe95df2ba8d97f",
                    "decodedLog": {
                        "name": "Transfer",
                        "params": [
                            {
                                "name": "from",
                                "type": "address",
                                "value": "0x26352d20e6a05e04a1ecc75d4a43ae9989272621"
                            },
                            {
                                "name": "to",
                                "type": "address",
                                "value": "0x1f1f2b217c26780f89f375d4885f390ec744b266"
                            },
                            {
                                "decimalAvailable": true,
                                "name": "value",
                                "type": "uint256",
                                "value": "105,606,243,330,000,000,000"
                            }
                        ],
                        "signature": "Transfer(address,address,uint256)"
                    },
                    "id": 1,
                    "logData": "0x000000000000000000000000000000000000000000000005b994bec8641d9400",
                    "logDecoded": true,
                    "operation": "EVENT",
                    "revert": false,
                    "status": true,
                    "topics": [
                        "0xddf252ad1be2c89b69c2b068fc378daa952ba7f163c4a11628f55a4df523b3ef",
                        "0x00000000000000000000000026352d20e6a05e04a1ecc75d4a43ae9989272621",
                        "0x0000000000000000000000001f1f2b217c26780f89f375d4885f390ec744b266"
                    ]
                },
                "nodeType": 1
            }
        },
        "gasFlame": [
            {
                "children": [
                    {
                        "children": [
                            {
                                "children": [],
                                "depth": 0,
                                "name": "Initial Gas",
                                "value": 23320
                            },
                            {
                                "children": [],
                                "depth": 0,
                                "name": "Executed Gas",
                                "value": 29302
                            }
                        ],
                        "depth": -1,
                        "name": "Actual Gas Used",
                        "value": 52622
                    },
                    {
                        "children": [],
                        "depth": -1,
                        "name": "Refunded Gas",
                        "value": 0
                    }
                ],
                "depth": -2,
                "name": "Total Gas",
                "value": 52622
            }
        ],
        "isConfirmed": true,
        "mainTrace": [
            {
                "children": [
                    {
                        "children": [
                            {
                                "children": [],
                                "depth": 1,
                                "id": 1,
                                "order": 1
                            }
                        ],
                        "depth": 0,
                        "id": 0,
                        "order": 0
                    }
                ],
                "depth": -1,
                "id": -1,
                "order": -1
            }
        ],
        "mainTraceNodeCount": 2,
        "parentIdMap": {
            "0": -1,
            "1": 0
        },
        "tidyTrace": [
            {
                "children": [
                    {
                        "children": [
                            {
                                "children": [],
                                "depth": 1,
                                "id": 1,
                                "order": 1
                            }
                        ],
                        "depth": 0,
                        "id": 0,
                        "order": 0
                    }
                ],
                "depth": -1,
                "id": -1,
                "order": -1
            }
        ],
        "tidyTraceNodeCount": 2
    },
    "state_change": {
        "stateChanges": [
            {
                "address": "0x081f67afa0ccf8c7b17540767bbe95df2ba8d97f",
                "erc": "",
                "slots": [
                    {
                        "current": "0x00000000000000000000000000000000000000000007918e3bf256eb2086e400",
                        "key": "0x1f6c07d011a0b0989960fec99107e8cbdeb59c8514cbfda31577d056c7dd1bbf",
                        "prev": "0x000000000000000000000000000000000000000000079193f58715b384a47800"
                    },
                    {
                        "current": "0x000000000000000000000000000000000000000000000005b994bec8641d9400",
                        "key": "0x6a0b94d7a199fff4c5fe5b53fe965d134945c4a69297a4d704d6c896f9415bec",
                        "prev": "0x0000000000000000000000000000000000000000000000000000000000000000"
                    }
                ],
                "storageVariables": []
            }
        ]
    }
}