{
    "balance_change": {
        "balanceChanges": []
    },
    "profile": {
        "basic_info": {
            "baseFee": "",
            "blockNumber": 1494627,
            "callData": "0x90fa337d000000000000000000000000000000000000000000000000000000000000006000000000000000000000000000000000000000000000000000038d7ea4c6800000000000000000000000000001a23fd30aabf5ad53bab3093dcd4948e15cec80000000000000000000000000000000000000000000000000000000000000005004000000955eb2629762d3484e3ade2abf1dcab11b5b12f11378b7050000000000000000010e7e6c81a00dcab1f9a9016016b440bd7db5c1fcecfb00431f674da7ce07605b763257762706186006ccd800000000000000000000000000000000",
            "debugEnable": true,
            "errorInfo": "",
            "eventCount": 1,
            "feeRecipient": "0x2a65aca4d5fc5b5c859090a6c34d164135398226",
            "formatValue": "0",
            "gasLimit": 1200000,
            "gasPrice": "20",
            "gasUsed": 221150,
            "intTxnCount": 7,
            "internalRevert": false,
            "internalRevertMessage": "",
            "isContractCreation": false,
            "isFlashloan": false,
            "maxFee": "",
            "nonce": 2851,
            "overwritedBlockNumber": -1,
            "priorityFee": "",
            "receiver": "0x41f274c0023f83391de4e0733c609df5a124c3d4",
            "revertMessage": "",
            "sender": "0xac4361f56c82ed59d533d45129f407015d84702a",
            "simulationEnable": true,
            "sourceTxnHash": "0x11a3e61f94c88b584863e13148765f1f2aa913527618eaf9f2d1bf1ae34c2182",
            "status": true,
            "timestamp": "2016-05-11T00:07:17Z",
            "transactionFee": "0.004423",
            "txnHash": "0x11a3e61f94c88b584863e13148765f1f2aa913527618eaf9f2d1bf1ae34c2182",
            "txnIndex": 4,
            "type": 0,
            "value": "0"
        },
        "fund_flow": [],
        "token_infos": [
            {
                "address": "0xc02aaa39b223fe8d0a0e5c4f27ead9083c756cc2",
                "decimals": 18
            },
            {
                "address": "0xeeeeeeeeeeeeeeeeeeeeeeeeeeeeeeeeeeeeeeee",
                "decimals": 18
            }
        ]
    },
    "address_label": {
        "labels": [
            {
                "address": "0xeeeeeeeeeeeeeeeeeeeeeeeeeeeeeeeeeeeeeeee",
                "label": "Ether"
            },
            {
                "address": "0x41f274c0023f83391de4e0733c609df5a124c3d4",
                "label": "BTCRelay"
            },
            {
                "address": "0x0000000000000000000000000000000000000002",
                "label": "Precompiled"
            },
            {
                "address": "0x0000000000000000000000000000000000000004",
                "label": "Precompiled"
            },
            {
                "address": "0x0000000000000000000000000000000000000001",
                "label": "Precompiled"
            },
            {
                "address": "0x0000000000000000000000000000000000000003",
                "label": "Precompiled"
            }
        ]
    },
    "trace": {
        "accountLabels": null,
        "dataMap": {
            "-1": {
                "invocation": {
                    "address": "0xac4361f56c82ed59d533d45129f407015d84702a",
                    "callData": "",
                    "decodedMethod": null,
                    "errorInfo": "",
                    "fromAddress": "",
                    "gasUsed": 0,
                    "id": -1,
                    "methodDecoded": false,
                    "operation": "",
                    "output": "",
                    "revert": false,
                    "revertMessage": "",
                    "selector": "",
                    "status": false,
                    "value": ""
                },
                "nodeType": 0
            },
            "0": {
                "invocation": {
                    "address": "0x41f274c0023f83391de4e0733c609df5a124c3d4",
                    "callData": "0x000000000000000000000000000000000000000000000000000000000000006000000000000000000000000000000000000000000000000000038d7ea4c6800000000000000000000000000001a23fd30aabf5ad53bab3093dcd4948e15cec80000000000000000000000000000000000000000000000000000000000000005004000000955eb2629762d3484e3ade2abf1dcab11b5b12f11378b7050000000000000000010e7e6c81a00dcab1f9a9016016b440bd7db5c1fcecfb00431f674da7ce07605b763257762706186006ccd800000000000000000000000000000000",
                    "decodedMethod": null,
                    "errorInfo": "",
                    "fromAddress": "0xac4361f56c82ed59d533d45129f407015d84702a",
                    "gasUsed": 221150,
                    "id": 0,
                    "methodDecoded": false,
                    "operation": "CALL",
                    "output": "0x0000000000000000000000000000000000000000000000000000000000064660",
                    "revert": false,
                    "revertMessage": "",
                    "selector": "0x90fa337d",
                    "status": true,
                    "value": "0"
                },
                "nodeType": 0
            },
            "1": {
                "invocation": {
                    "address": "0x0000000000000000000000000000000000000004",
                    "callData": "0x0000000000000000000000000000000000000000000000000000000000000020",
                    "decodedMethod": {
                        "callParams": [
                            {
                                "name": "data",
                                "type": "bytes",
                                "value": "0x2b8616290000000000000000000000000000000000000000000000000000000000000020"
                            }
                        ],
                        "constructorArguments": "",
                        "name": "dataCopy()",
                        "returnParams": [
                            {
                                "name": "data",
                                "type": "bytes",
                                "value": "0x2b8616290000000000000000000000000000000000000000000000000000000000000020"
                            }
                        ],
                        "signature": "dataCopy(bytes)"
                    },
                    "errorInfo": "",
                    "fromAddress": "0x41f274c0023f83391de4e0733c609df5a124c3d4",
                    "gasUsed": 21,
                    "id": 1,
                    "methodDecoded": true,
                    "operation": "CALL",
                    "output": "0x2b8616290000000000000000000000000000000000000000000000000000000000000020",
                    "revert": false,
                    "revertMessage": "",
                    "selector": "0x2b861629",
                    "status": true,
                    "value": "0"
                },
                "nodeType": 0
            },
            "2": {
                "invocation": {
                    "address": "0x0000000000000000000000000000000000000004",
                    "callData": "0x0000000000000000000000000000000000000000000000000000005004000000955eb2629762d3484e3ade2abf1dcab11b5b12f11378b7050000000000000000010e7e6c81a00dcab1f9a9016016b440bd7db5c1fcecfb00431f674da7ce07605b763257762706186006ccd800000000000000000000000000000000",
                    "decodedMethod": {
                        "callParams": [
                            {
                                "name": "data",
                                "type": "bytes",
                                "value": "0x000000000000000000000000000000000000000000000000000000000000005004000000955eb2629762d3484e3ade2abf1dcab11b5b12f11378b7050000000000000000010e7e6c81a00dcab1f9a9016016b440bd7db5c1fcecfb00431f674da7ce07605b763257762706186006ccd800000000000000000000000000000000"
                            }
                        ],
                        "constructorArguments": "",
                        "name": "dataCopy()",
                        "returnParams": [
                            {
                                "name": "data",
                                "type": "bytes",
                                "value": "0x000000000000000000000000000000000000000000000000000000000000005004000000955eb2629762d3484e3ade2abf1dcab11b5b12f11378b7050000000000000000010e7e6c81a00dcab1f9a9016016b440bd7db5c1fcecfb00431f674da7ce07605b763257762706186006ccd800000000000000000000000000000000"
                            }
                        ],
                        "signature": "dataCopy(bytes)"
                    },
                    "errorInfo": "",
                    "fromAddress": "0x41f274c0023f83391de4e0733c609df5a124c3d4",
                    "gasUsed": 27,
                    "id": 2,
                    "methodDecoded": true,
                    "operation": "CALL",
                    "output": "0x000000000000000000000000000000000000000000000000000000000000005004000000955eb2629762d3484e3ade2abf1dcab11b5b12f11378b7050000000000000000010e7e6c81a00dcab1f9a9016016b440bd7db5c1fcecfb00431f674da7ce07605b763257762706186006ccd800000000000000000000000000000000",
                    "revert": false,
                    "revertMessage": "",
                    "selector": "0x00000000",
                    "status": true,
                    "value": "0"
                },
                "nodeType": 0
            },
            "3": {
                "invocation": {
                    "address": "0x41f274c0023f83391de4e0733c609df5a124c3d4",
                    "callData": "0x0000000000000000000000000000000000000000000000000000000000000020000000000000000000000000000000000000000000000000000000000000005004000000955eb2629762d3484e3ade2abf1dcab11b5b12f11378b7050000000000000000010e7e6c81a00dcab1f9a9016016b440bd7db5c1fcecfb00431f674da7ce07605b763257762706186006ccd800000000000000000000000000000000",
                    "decodedMethod": {
                        "callParams": [
                            {
                                "name": "header",
                                "type": "bytes",
                                "value": "0x04000000955eb2629762d3484e3ade2abf1dcab11b5b12f11378b7050000000000000000010e7e6c81a00dcab1f9a9016016b440bd7db5c1fcecfb00431f674da7ce07605b763257762706186006ccd8"
                            }
                        ],
                        "constructorArguments": "",
                        "name": "storeBlockHeader",
                        "returnParams": [
                            {
                                "name": "",
                                "type": "uint256",
                                "value": "411,232"
                            }
                        ],
                        "signature": "storeBlockHeader(bytes)"
                    },
                    "errorInfo": "",
                    "fromAddress": "0x41f274c0023f83391de4e0733c609df5a124c3d4",
                    "gasUsed": 162521,
                    "id": 3,
                    "methodDecoded": true,
                    "operation": "CALL",
                    "output": "0x0000000000000000000000000000000000000000000000000000000000064660",
                    "revert": false,
                    "revertMessage": "",
                    "selector": "0x2b861629",
                    "status": true,
                    "value": "0"
                },
                "nodeType": 0
            },
            "4": {
                "invocation": {
                    "address": "0x0000000000000000000000000000000000000002",
                    "callData": "0x955eb2629762d3484e3ade2abf1dcab11b5b12f11378b7050000000000000000010e7e6c81a00dcab1f9a9016016b440bd7db5c1fcecfb00431f674da7ce07605b763257762706186006ccd8",
                    "decodedMethod": {
                        "callParams": [
                            {
                                "name": "data",
                                "type": "bytes",
                                "value": "0x04000000955eb2629762d3484e3ade2abf1dcab11b5b12f11378b7050000000000000000010e7e6c81a00dcab1f9a9016016b440bd7db5c1fcecfb00431f674da7ce07605b763257762706186006ccd8"
                            }
                        ],
                        "constructorArguments": "",
                        "name": "sha256hash",
                        "returnParams": [
                            {
                                "name": "hash",
                                "type": "bytes32",
                                "value": "0x3e342f800e7461b713c9148e027c5601ed866d4502be617ee104b9b11fd16a22"
                            }
                        ],
                        "signature": "sha256hash(bytes)"
                    },
                    "errorInfo": "",
                    "fromAddress": "0x41f274c0023f83391de4e0733c609df5a124c3d4",
                    "gasUsed": 96,
                    "id": 4,
                    "methodDecoded": true,
                    "operation": "CALL",
                    "output": "0x3e342f800e7461b713c9148e027c5601ed866d4502be617ee104b9b11fd16a22",
                    "revert": false,
                    "revertMessage": "",
                    "selector": "0x04000000",
                    "status": true,
                    "value": "0"
                },
                "nodeType": 0
            },
            "5": {
                "invocation": {
                    "address": "0x0000000000000000000000000000000000000002",
                    "callData": "0x0e7461b713c9148e027c5601ed866d4502be617ee104b9b11fd16a22",
                    "decodedMethod": {
                        "callParams": [
                            {
                                "name": "data",
                                "type": "bytes",
                                "value": "0x3e342f800e7461b713c9148e027c5601ed866d4502be617ee104b9b11fd16a22"
                            }
                        ],
                        "constructorArguments": "",
                        "name": "sha256hash",
                        "returnParams": [
                            {
                                "name": "hash",
                                "type": "bytes32",
                                "value": "0xac2619bfc352a321f0779ceeb80463cdf4f68ec9b2706e000000000000000000"
                            }
                        ],
                        "signature": "sha256hash(bytes)"
                    },
                    "errorInfo": "",
                    "fromAddress": "0x41f274c0023f83391de4e0733c609df5a124c3d4",
                    "gasUsed": 72,
                    "id": 5,
                    "methodDecoded": true,
                    "operation": "CALL",
                    "output": "0xac2619bfc352a321f0779ceeb80463cdf4f68ec9b2706e000000000000000000",
                    "revert": false,
                    "revertMessage": "",
                    "selector": "0x3e342f80",
                    "status": true,
                    "value": "0"
                },
                "nodeType": 0
            },
            "6": {
                "event": {
                    "contract": "0x41f274c0023f83391de4e0733c609df5a124c3d4",
                    "decodedLog": null,
                    "id": 6,
                    "logData": "0x",
                    "logDecoded": false,
                    "operation": "EVENT",
                    "revert": false,
                    "status": true,
                    "topics": [
                        "0x055e4f8dd3a534789b3feb8e0681afa2aee8713fdd6472f25b2c30dc7bf4e0f4",
                        "0x0000000000000000006e70b2c98ef6f4cd6304b8ee9c77f021a352c3bf1926ac",
                        "0x0000000000000000000000000000000000000000000000000000000000064660"
                    ]
                },
                "nodeType": 1
            },
            "7": {
                "invocation": {
                    "address": "0x0000000000000000000000000000000000000002",
                    "callData": "0x955eb2629762d3484e3ade2abf1dcab11b5b12f11378b7050000000000000000010e7e6c81a00dcab1f9a9016016b440bd7db5c1fcecfb00431f674da7ce07605b763257762706186006ccd8",
                    "decodedMethod": {
                        "callParams": [
                            {
                                "name": "data",
                                "type": "bytes",
                                "value": "0x04000000955eb2629762d3484e3ade2abf1dcab11b5b12f11378b7050000000000000000010e7e6c81a00dcab1f9a9016016b440bd7db5c1fcecfb00431f674da7ce07605b763257762706186006ccd8"
                            }
                        ],
                        "constructorArguments": "",
                        "name": "sha256hash",
                        "returnParams": [
                            {
                                "name": "hash",
                                "type": "bytes32",
                                "value": "0x3e342f800e7461b713c9148e027c5601ed866d4502be617ee104b9b11fd16a22"
                            }
                        ],
                        "signature": "sha256hash(bytes)"
                    },
                    "errorInfo": "",
                    "fromAddress": "0x41f274c0023f83391de4e0733c609df5a124c3d4",
                    "gasUsed": 96,
                    "id": 7,
                    "methodDecoded": true,
                    "operation": "CALL",
                    "output": "0x3e342f800e7461b713c9148e027c5601ed866d4502be617ee104b9b11fd16a22",
                    "revert": false,
                    "revertMessage": "",
                    "selector": "0x04000000",
                    "status": true,
                    "value": "0"
                },
                "nodeType": 0
            },
            "8": {
                "invocation": {
                    "address": "0x0000000000000000000000000000000000000002",
                    "callData": "0x0e7461b713c9148e027c5601ed866d4502be617ee104b9b11fd16a22",
                    "decodedMethod": {
                        "callParams": [
                            {
                                "name": "data",
                                "type": "bytes",
                                "value": "0x3e342f800e7461b713c9148e027c5601ed866d4502be617ee104b9b11fd16a22"
                            }
                        ],
                        "constructorArguments": "",
                        "name": "sha256hash",
                        "returnParams": [
                            {
                                "name": "hash",
                                "type": "bytes32",
                                "value": "0xac2619bfc352a321f0779ceeb80463cdf4f68ec9b2706e000000000000000000"
                            }
                        ],
                        "signature": "sha256hash(bytes)"
                    },
                    "errorInfo": "",
                    "fromAddress": "0x41f274c0023f83391de4e0733c609df5a124c3d4",
                    "gasUsed": 72,
                    "id": 8,
                    "methodDecoded": true,
                    "operation": "CALL",
                    "output": "0xac2619bfc352a321f0779ceeb80463cdf4f68ec9b2706e000000000000000000",
                    "revert": false,
                    "revertMessage": "",
                    "selector": "0x3e342f80",
                    "status": true,
                    "value": "0"
                },
                "nodeType": 0
            }
        },
        "gasFlame": [
            {
                "children": [
                    {
                        "children": [
                            {
                                "children": [],
                                "depth": 0,
                                "name": "Initial Gas",
                                "value": 28312
                            },
                            {
                                "children": [
                                    {
                                        "children": [],
                                        "depth": 1,
                                        "name": "dataCopy()",
                                        "value": 21
                                    },
                                    {
                                        "children": [],
                                        "depth": 1,
                                        "name": "dataCopy()",
                                        "value": 27
                                    },
                                    {
                                        "children": [
                                            {
                                                "children": [],
                                                "depth": 2,
                                                "name": "sha256hash",
                                                "value": 96
                                            },
                                            {
                                                "children": [],
                                                "depth": 2,
                                                "name": "sha256hash",
                                                "value": 72
                                            }
                                        ],
                                        "depth": 1,
                                        "name": "storeBlockHeader",
                                        "value": 162521
                                    },
                                    {
                                        "children": [],
                                        "depth": 1,
                                        "name": "sha256hash",
                                        "value": 96
                                    },
                                    {
                                        "children": [],
                                        "depth": 1,
                                        "name": "sha256hash",
                                        "value": 72
                                    }
                                ],
                                "depth": 0,
                                "name": "Executed Gas",
                                "value": 192838
                            }
                        ],
                        "depth": -1,
                        "name": "Actual Gas Used",
                        "value": 221150
                    },
                    {
                        "children": [],
                        "depth": -1,
                        "name": "Refunded Gas",
                        "value": 0
                    }
                ],
                "depth": -2,
                "name": "Total Gas",
                "value": 221150
            }
        ],
        "isConfirmed": true,
        "mainTrace": [
            {
                "children": [
                    {
                        "children": [
                            {
                                "children": [],
                                "depth": 1,
                                "id": 1,
                                "order": 1
                            },
                            {
                                "children": [],
                                "depth": 1,
                                "id": 2,
                                "order": 2
                            },
                            {
                                "children": [
                                    {
                                        "children": [],
                                        "depth": 2,
                                        "id": 4,
                                        "order": 4
                                    },
                                    {
                                        "children": [],
                                        "depth": 2,
                                        "id": 5,
                                        "order": 5
                                    },
                                    {
                                        "children": [],
                                        "depth": 2,
                                        "id": 6,
                                        "order": 6
                                    }
                                ],
                                "depth": 1,
                                "id": 3,
                                "order": 3
                            },
                            {
                                "children": [],
                                "depth": 1,
                                "id": 7,
                                "order": 7
                            },
                            {
                                "children": [],
                                "depth": 1,
                                "id": 8,
                                "order": 8
                            }
                        ],
                        "depth": 0,
                        "id": 0,
                        "order": 0
                    }
                ],
                "depth": -1,
                "id": -1,
                "order": -1
            }
        ],
        "mainTraceNodeCount": 9,
        "parentIdMap": {
            "0": -1,
            "1": 0,
            "2": 0,
            "3": 0,
            "4": 3,
            "5": 3,
            "6": 3,
            "7": 0,
            "8": 0
        },
        "tidyTrace": [
            {
                "children": [
                    {
                        "children": [
                            {
                                "children": [],
                                "depth": 1,
                                "id": 1,
                                "order": 1
                            },
                            {
                                "children": [],
                                "depth": 1,
                                "id": 2,
                                "order": 2
                            },
                            {
                                "children": [
                                    {
                                        "children": [],
                                        "depth": 2,
                                        "id": 4,
                                        "order": 4
                                    },
                                    {
                                        "children": [],
                                        "depth": 2,
                                        "id": 5,
                                        "order": 5
                                    },
                                    {
                                        "children": [],
                                        "depth": 2,
                                        "id": 6,
                                        "order": 6
                                    }
                                ],
                                "depth": 1,
                                "id": 3,
                                "order": 3
                            },
                            {
                                "children": [],
                                "depth": 1,
                                "id": 7,
                                "order": 7
                            },
                            {
                                "children": [],
                                "depth": 1,
                                "id": 8,
                                "order": 8
                            }
                        ],
                        "depth": 0,
                        "id": 0,
                        "order": 0
                    }
                ],
                "depth": -1,
                "id": -1,
                "order": -1
            }
        ],
        "tidyTraceNodeCount": 9
    },
    "state_change": {
        "stateChanges": [
            {
                "address": "0x41f274c0023f83391de4e0733c609df5a124c3d4",
                "erc": "",
                "slots": [
                    {
                        "current": "0x04000000955eb2629762d3484e3ade2abf1dcab11b5b12f11378b70500000000",
                        "key": "0x78683f8aadd773451b76296f463f3c11b79afbbef4837a00838ca159ef25ec7c",
                        "prev": "0x0000000000000000000000000000000000000000000000000000000000000000"
                    },
                    {
                        "current": "0x00000000010e7e6c81a00dcab1f9a9016016b440bd7db5c1fcecfb00431f674d",
                        "key": "0x78683f8aadd773451b76296f463f3c11b79afbbef4837a00838ca159ef25ec7d",
                        "prev": "0x0000000000000000000000000000000000000000000000000000000000000000"
                    },
                    {
                        "current": "0x0000000000000000006e70b2c98ef6f4cd6304b8ee9c77f021a352c3bf1926ac",
                        "key": "0x0000000000000000000000000000000000000000000000000000000000000fa3",
                        "prev": "0x0000000000000000000000000000000000000000000000000000000000000000"
                    },
                    {
                        "current": "0x00000000000646600000000000000fa30000000000165dec4bfb148128755c8c",
                        "key": "0xc8ca6873145afbe85f3cc3a72dbf0be4eda248f45212420000fbdf47a5ae87b7",
                        "prev": "0x0000000000000000000000000000000000000000000000000000000000000000"
                    },
                    {
                        "current": "0x00000fa200000fa100000f9c00000f3800000d420000085f0000000000000000",
                        "key": "0x4f148d91d49f8eecb24c74c3d90051b9d1c6c7cdbbbdf89fef8333537e5b7a8c",
                        "prev": "0x0000000000000000000000000000000000000000000000000000000000000000"
                    },
                    {
                        "current": "0x000000000000000000000004a817c8000000000000000000001a7a4838950000",
                        "key": "0x0000000000000000000000000000000000000000000000000004000000000001",
                        "prev": "0x000000000000000000000004a817c8000000000000000000001a72474fb54000"
                    },
                    {
                        "current": "0x0000000000000000006e70b2c98ef6f4cd6304b8ee9c77f021a352c3bf1926ac",
                        "key": "0x0000000000000000000000000000000000000000000000000004000000000002",
                        "prev": "0x000000000000000005b77813f1125b1bb1ca1dbf2ade3a4e48d3629762b25e95"
                    },
                    {
                        "current": "0x000000000000000000000000000000000000000000165dec4bfb148128755c8c",
                        "key": "0x0000000000000000000000000000000000000000000000000004000000000003",
                        "prev": "0x000000000000000000000000000000000000000000165dec4bfb14578f896ee0"
                    },
                    {
                        "current": "0xa7ce07605b763257762706186006ccd800000000000000000000000000000000",
                        "key": "0x78683f8aadd773451b76296f463f3c11b79afbbef4837a00838ca159ef25ec7e",
                        "prev": "0x0000000000000000000000000000000000000000000000000000000000000000"
                    },
                    {
                        "current": "0x0000000000000000000000000000000000000000000000000000000000000fa4",
                        "key": "0x0000000000000000000000000000000000000000000000000004000000000000",
                        "prev": "0x0000000000000000000000000000000000000000000000000000000000000fa3"
                    },
                    {
                        "current": "0x01a23fd30aabf5ad53bab3093dcd4948e15cec800000000000038d7ea4c68000",
                        "key": "0x059d7b39dc3762abe1708b2704236d1e3d532d4746624aa8bcb4c8d7c143d856",
                        "prev": "0x0000000000000000000000000000000000000000000000000000000000000000"
                    }
                ],
                "storageVariables": []
            }
        ]
    }
}