{
    "balance_change": {
        "balanceChanges": [
            {
                "account": "0x2bd92d7396665b0ef2a0f5c33953deae985474a5",
                "assets": [
                    {
                        "address": "0x0ca6bbdf3e7472331ce73780e299a7b1a298681b",
                        "amount": "29,593",
                        "iconUrl": "",
                        "isERC1155": false,
                        "isERC721": false,
                        "sign": false,
                        "value": ""
                    }
                ]
            },
            {
                "account": "0x21956550186134c9d7e8224ba4dd8b15fe41f980",
                "assets": [
                    {
                        "address": "0x0ca6bbdf3e7472331ce73780e299a7b1a298681b",
                        "amount": "29,593",
                        "iconUrl": "",
                        "isERC1155": false,
                        "isERC721": false,
                        "sign": true,
                        "value": ""
                    }
                ]
            }
        ]
    },
    "profile": {
        "basic_info": {
            "baseFee": "119.388433794",
            "blockNumber": 13615668,
            "callData": "0xa9059cbb00000000000000000000000021956550186134c9d7e8224ba4dd8b15fe41f9800000000000000000000000000000000000000000000006443d5fe590f6c40000",
            "debugEnable": true,
            "errorInfo": "",
            "eventCount": 1,
            "feeRecipient": "0xc365c3315cf926351ccaf13fa7d19c8c4058c8e1",
            "formatValue": "0",
            "gasLimit": 82189,
            "gasPrice": "120.888433794",
            "gasUsed": 54353,
            "intTxnCount": 1,
            "internalRevert": false,
            "internalRevertMessage": "",
            "isContractCreation": false,
            "isFlashloan": false,
            "maxFee": "123.607399133",
            "nonce": 79,
            "overwritedBlockNumber": -1,
            "priorityFee": "1.5",
            "receiver": "0x0ca6bbdf3e7472331ce73780e299a7b1a298681b",
            "revertMessage": "",
            "sender": "0x2bd92d7396665b0ef2a0f5c33953deae985474a5",
            "simulationEnable": true,
            "sourceTxnHash": "0x1209cc43b66c867225f632d072415173837e01d3a378d4befafc59d87c65f2af",
            "status": true,
            "timestamp": "2021-11-14T18:52:41Z",
            "transactionFee": "0.006570649042005282",
            "txnHash": "0x1209cc43b66c867225f632d072415173837e01d3a378d4befafc59d87c65f2af",
            "txnIndex": 28,
            "type": 2,
            "value": "0"
        },
        "fund_flow": [
            {
                "amount": "29,593",
                "from": "0x2bd92d7396665b0ef2a0f5c33953deae985474a5",
                "id": 1,
                "isERC1155": false,
                "isERC721": false,
                "isReverted": false,
                "order": 1,
                "to": "0x21956550186134c9d7e8224ba4dd8b15fe41f980",
                "token": "0x0ca6bbdf3e7472331ce73780e299a7b1a298681b"
            }
        ],
        "token_infos": [
            {
                "address": "0x0ca6bbdf3e7472331ce73780e299a7b1a298681b",
                "decimals": 18
            },
            {
                "address": "0xc02aaa39b223fe8d0a0e5c4f27ead9083c756cc2",
                "decimals": 18
            },
            {
                "address": "0xeeeeeeeeeeeeeeeeeeeeeeeeeeeeeeeeeeeeeeee",
                "decimals": 18
            }
        ]
    },
    "address_label": {
        "labels": [
            {
                "address": "0xeeeeeeeeeeeeeeeeeeeeeeeeeeeeeeeeeeeeeeee",
                "label": "Ether"
            },
            {
                "address": "0x0ca6bbdf3e7472331ce73780e299a7b1a298681b",
                "label": "CRTRv1 (CRTRv1)"
            },
            {
                "address": "0x85351262f7474ebe23ffacd633cf20a491f1325d",
                "label": "Fake_Phishing281501"
            },
            {
                "address": "0x0000000000000000000000000000000000000001",
                "label": "Precompiled"
            },
            {
                "address": "0x0000000000000000000000000000000000000002",
                "label": "Precompiled"
            },
            {
                "address": "0x0000000000000000000000000000000000000003",
                "label": "Precompiled"
            },
            {
                "address": "0x0000000000000000000000000000000000000004",
                "label": "Precompiled"
            }
        ]
    },
    "trace": {
        "accountLabels": null,
        "dataMap": {
            "-1": {
                "invocation": {
                    "address": "0x2bd92d7396665b0ef2a0f5c33953deae985474a5",
                    "callData": "",
                    "decodedMethod": null,
                    "errorInfo": "",
                    "fromAddress": "",
                    "gasUsed": 0,
                    "id": -1,
                    "methodDecoded": false,
                    "operation": "",
                    "output": "",
                    "revert": false,
                    "revertMessage": "",
                    "selector": "",
                    "status": false,
                    "value": ""
                },
                "nodeType": 0
            },
            "0": {
                "invocation": {
                    "address": "0x0ca6bbdf3e7472331ce73780e299a7b1a298681b",
                    "callData": "0x00000000000000000000000021956550186134c9d7e8224ba4dd8b15fe41f9800000000000000000000000000000000000000000000006443d5fe590f6c40000",
                    "decodedMethod": {
                        "callParams": [
                            {
                                "name": "to",
                                "type": "address",
                                "value": "0x21956550186134c9d7e8224ba4dd8b15fe41f980"
                            },
                            {
                                "decimalAvailable": true,
                                "name": "amount",
                                "type": "uint256",
                                "value": "29,593,000,000,000,000,000,000"
                            }
                        ],
                        "constructorArguments": "",
                        "name": "transfer",
                        "returnParams": [
                            {
                                "name": "",
                                "type": "bool",
                                "value": true
                            }
                        ],
                        "signature": "transfer(address,uint256)"
                    },
                    "errorInfo": "",
                    "fromAddress": "0x2bd92d7396665b0ef2a0f5c33953deae985474a5",
                    "gasUsed": 54353,
                    "id": 0,
                    "methodDecoded": true,
                    "operation": "CALL",
                    "output": "0x0000000000000000000000000000000000000000000000000000000000000001",
                    "revert": false,
                    "revertMessage": "",
                    "selector": "0xa9059cbb",
                    "status": true,
                    "value": "0"
                },
                "nodeType": 0
            },
            "1": {
                "invocation": {
                    "address": "0x85351262f7474ebe23ffacd633cf20a491f1325d",
                    "callData": "0x00000000000000000000000021956550186134c9d7e8224ba4dd8b15fe41f9800000000000000000000000000000000000000000000006443d5fe590f6c40000",
                    "decodedMethod": {
                        "callParams": [
                            {
                                "name": "to",
                                "type": "address",
                                "value": "0x21956550186134c9d7e8224ba4dd8b15fe41f980"
                            },
                            {
                                "decimalAvailable": true,
                                "name": "amount",
                                "type": "uint256",
                                "value": "29,593,000,000,000,000,000,000"
                            }
                        ],
                        "constructorArguments": "",
                        "name": "transfer",
                        "returnParams": [
                            {
                                "name": "",
                                "type": "bool",
                                "value": true
                            }
                        ],
                        "signature": "transfer(address,uint256)"
                    },
                    "errorInfo": "",
                    "fromAddress": "0x0ca6bbdf3e7472331ce73780e299a7b1a298681b",
                    "gasUsed": 30019,
                    "id": 1,
                    "methodDecoded": true,
                    "operation": "DELEGATECALL",
                    "output": "0x0000000000000000000000000000000000000000000000000000000000000001",
                    "revert": false,
                    "revertMessage": "",
                    "selector": "0xa9059cbb",
                    "status": true,
                    "value": "0"
                },
                "nodeType": 0
            },
            "2": {
                "event": {
                    "contract": "0x0ca6bbdf3e7472331ce73780e299a7b1a298681b",
                    "decodedLog": {
                        "name": "Transfer",
                        "params": [
                            {
                                "name": "from",
                                "type": "address",
                                "value": "0x2bd92d7396665b0ef2a0f5c33953deae985474a5"
                            },
                            {
                                "name": "to",
                                "type": "address",
                                "value": "0x21956550186134c9d7e8224ba4dd8b15fe41f980"
                            },
                            {
                                "decimalAvailable": true,
                                "name": "amount",
                                "type": "uint256",
                                "value": "29,593,000,000,000,000,000,000"
                            }
                        ],
                        "signature": "Transfer(address,address,uint256)"
                    },
                    "id": 2,
                    "logData": "0x0000000000000000000000000000000000000000000006443d5fe590f6c40000",
                    "logDecoded": true,
                    "operation": "EVENT",
                    "revert": false,
                    "status": true,
                    "topics": [
                        "0xddf252ad1be2c89b69c2b068fc378daa952ba7f163c4a11628f55a4df523b3ef",
                        "0x0000000000000000000000002bd92d7396665b0ef2a0f5c33953deae985474a5",
                        "0x00000000000000000000000021956550186134c9d7e8224ba4dd8b15fe41f980"
                    ]
                },
                "nodeType": 1
            }
        },
        "gasFlame": [
            {
                "children": [
                    {
                        "children": [
                            {
                                "children": [],
                                "depth": 0,
                                "name": "Initial Gas",
                                "value": 21656
                            },
                            {
                                "children": [
                                    {
                                        "children": [],
                                        "depth": 1,
                                        "name": "transfer",
                                        "value": 30019
                                    }
                                ],
                                "depth": 0,
                                "name": "Executed Gas",
                                "value": 32697
                            }
                        ],
                        "depth": -1,
                        "name": "Actual Gas Used",
                        "value": 54353
                    },
                    {
                        "children": [],
                        "depth": -1,
                        "name": "Refunded Gas",
                        "value": 0
                    }
                ],
                "depth": -2,
                "name": "Total Gas",
                "value": 54353
            }
        ],
        "isConfirmed": true,
        "mainTrace": [
            {
                "children": [
                    {
                        "children": [
                            {
                                "children": [
                                    {
                                        "children": [],
                                        "depth": 2,
                                        "id": 2,
                                        "order": 2
                                    }
                                ],
                                "depth": 1,
                                "id": 1,
                                "order": 1
                            }
                        ],
                        "depth": 0,
                        "id": 0,
                        "order": 0
                    }
                ],
                "depth": -1,
                "id": -1,
                "order": -1
            }
        ],
        "mainTraceNodeCount": 3,
        "parentIdMap": {
            "0": -1,
            "1": 0,
            "2": 1
        },
        "tidyTrace": [
            {
                "children": [
                    {
                        "children": [
                            {
                                "children": [
                                    {
                                        "children": [],
                                        "depth": 2,
                                        "id": 2,
                                        "order": 2
                                    }
                                ],
                                "depth": 1,
                                "id": 1,
                                "order": 1
                            }
                        ],
                        "depth": 0,
                        "id": 0,
                        "order": 0
                    }
                ],
                "depth": -1,
                "id": -1,
                "order": -1
            }
        ],
        "tidyTraceNodeCount": 3
    },
    "state_change": {
        "stateChanges": [
            {
                "address": "0x0ca6bbdf3e7472331ce73780e299a7b1a298681b",
                "erc": "ERC-20",
                "slots": [
                    {
                        "current": "0x000000000000000000000000000000000000000000005498f03aae48eab00000",
                        "key": "0xfcc9f5df39e6c81581e5a86140f585416b66a40535de328225bb376156511973",
                        "prev": "0x000000000000000000000000000000000000000000005add2d9a93d9e1740000"
                    },
                    {
                        "current": "0x0000000000000000000000000000000000000000000006443d5fe590f6c40000",
                        "key": "0x2e29c8052b1c3c7d07429e334ccaa9bf01e27aad886c424b83f52ca99070d583",
                        "prev": "0x0000000000000000000000000000000000000000000000000000000000000000"
                    }
                ],
                "storageVariables": [
                    {
                        "name": "balances",
                        "type": "mapping(address => uint256)",
                        "value": {
                            "pairs": [
                                {
                                    "key": "0x21956550186134c9d7e8224ba4dd8b15fe41f980",
                                    "value": {
                                        "current": "29593000000000000000000",
                                        "prev": "0",
                                        "typeTag": 1
                                    }
                                },
                                {
                                    "key": "0x2bd92d7396665b0ef2a0f5c33953deae985474a5",
                                    "value": {
                                        "current": "399500000000000000000000",
                                        "prev": "429093000000000000000000",
                                        "typeTag": 1
                                    }
                                }
                            ],
                            "typeTag": 4
                        }
                    }
                ]
            }
        ]
    }
}