{
    "balance_change": {
        "balanceChanges": [
            {
                "account": "0xcbdddd05567deda0cc6e8fa958d7a4c7f763ad90",
                "assets": [
                    {
                        "address": "0x97a9a15168c22b3c137e6381037e1499c8ad0978",
                        "amount": "467.76",
                        "iconUrl": "",
                        "isERC1155": false,
                        "isERC721": false,
                        "sign": true,
                        "value": ""
                    }
                ]
            },
            {
                "account": "0x6e97eac711f309bf18d536a92428b13280d6f6e7",
                "assets": [
                    {
                        "address": "0x97a9a15168c22b3c137e6381037e1499c8ad0978",
                        "amount": "467.76",
                        "iconUrl": "",
                        "isERC1155": false,
                        "isERC721": false,
                        "sign": false,
                        "value": ""
                    }
                ]
            }
        ]
    },
    "profile": {
        "basic_info": {
            "baseFee": "19.283961488",
            "blockNumber": 19580191,
            "callData": "0x83092e470000000000000000000000000000000000000000000000195b7959b388b80000000000000000000000000000000000000000000000000000000000000000012000000000000000000000000000000000000000000000000000000000000003c000000000000000000000000000000000000000000000000000000000000003e000000000000000000000000000000000000000000000000000000000000000000000000000000000000000000000000000000000000000000000000000000000000000000000000000000000000000000000000000000000000000000000000000000000000000000000000000000000000000000000000000000000000000000000000000000000000000000000000000000000000000000000000000000000000000000000000000000000000000000000000000000000000000000000001411d7cb85e93a159a2b02962745f6e54df6753573341abca9c2a0118f1276e5532651241f857af650ab8ec1a27d78f76b243d4e80d6a9408fbdb009bcee2239c38e311e5feca2e7daaf61a95a1095b3e4e0e82eab69ebd5c1ba53a791cc6a2e6f3a57f31021dd117322a8028df0b7a441d1ebd9ce9612631a6553e30be3cb35a1f98437eb722ff74ff14f3fed52b17637e4b045537ffbcf5e19d957bcc590ace7946f1685edfd30e54279a2655d9841bb06f4272df783c22059a5fd43a4b05e16a1484b32bf4f768d2e284deae2352386d9fdee9fdc0bcc4aaa157717aff73576004b2fef5a8dfe0ac453fb3d0c079d0cf079805d63627401641b810901b63f83c3b1299915109e336eb0c51d32edf0d51b1353299d9e45e87a8ae29a10333805c99a7b8c4c53424e2c87e1c880401166fb9a86ea0114ff1a6f79d10ecc064ec674b9f4360a9bfa9b8e8590479dae0a9f5f7328db27d37d471804b591464254a0132cb42a90de06ca6e249c394ffdbbd7483ffa0d9bef112db068f32096917dc75f6ecc79cebdfff0d5bb36d2e2e74ec75ca852ff4abfab4782c3c9ac6d94f8b90c02c587980642717ee9aef2090a6b1fee1379824ce4a62354bd315b3aa30c4337dbc8998f59e8479a0b6da9cc690e5a731358fb85f33d35d2ef2dd21d34add657f7768990adc4e9c12e8c1ff4751617f93a4b97ea13e1a58dfc9a453c11a0376967194326881f878e97c1eba64e2969cafba662297036f8e572224b925601653136eea6fa74eae511ff42a731b468841664b4a804b81a9b4fb8aac10ab390dee40022f35c64e03d7c8f1f64a8bf3c1474d708af2286ebebe542bde0862edfb013873d0cedc2e2e752fe449bb7c0a0ca3fbeca803ffab475b40171e94f031b5700000000000000000000000000000000000000000000000000000000000000000000000000000000000000000000000000000000000000000000000000000000",
            "debugEnable": true,
            "errorInfo": "",
            "eventCount": 2,
            "feeRecipient": "0x95222290dd7278aa3ddd389cc1e1d165cc4bafe5",
            "formatValue": "0",
            "gasLimit": 131076,
            "gasPrice": "22.96239654",
            "gasUsed": 125695,
            "intTxnCount": 1,
            "internalRevert": false,
            "internalRevertMessage": "",
            "isContractCreation": false,
            "isFlashloan": false,
            "maxFee": "22.96239654",
            "nonce": 0,
            "overwritedBlockNumber": -1,
            "priorityFee": "22.96239654",
            "receiver": "0x35f4817b14718c66dbbdba085f5f8d2c3a4aa420",
            "revertMessage": "",
            "sender": "0xcbdddd05567deda0cc6e8fa958d7a4c7f763ad90",
            "simulationEnable": true,
            "sourceTxnHash": "0x12be8be60e30fc986d78e3cb71d4c14d1c41ff3372bb2c98bdf9ad3cedc625ef",
            "status": true,
            "timestamp": "2024-04-04T05:02:59Z",
            "transactionFee": "0.0028862584330953",
            "txnHash": "0x12be8be60e30fc986d78e3cb71d4c14d1c41ff3372bb2c98bdf9ad3cedc625ef",
            "txnIndex": 21,
            "type": 2,
            "value": "0"
        },
        "fund_flow": [
            {
                "amount": "467.76",
                "from": "0x6e97eac711f309bf18d536a92428b13280d6f6e7",
                "id": 1,
                "isERC1155": false,
                "isERC721": false,
                "isReverted": false,
                "order": 1,
                "to": "0xcbdddd05567deda0cc6e8fa958d7a4c7f763ad90",
                "token": "0x97a9a15168c22b3c137e6381037e1499c8ad0978"
            }
        ],
        "token_infos": [
            {
                "address": "0x97a9a15168c22b3c137e6381037e1499c8ad0978",
                "decimals": 18
            },
            {
                "address": "0xc02aaa39b223fe8d0a0e5c4f27ead9083c756cc2",
                "decimals": 18
            },
            {
                "address": "0xeeeeeeeeeeeeeeeeeeeeeeeeeeeeeeeeeeeeeeee",
                "decimals": 18
            }
        ]
    },
    "address_label": {
        "labels": [
            {
                "address": "0x0000000000000000000000000000000000000003",
                "label": "Precompiled"
            },
            {
                "address": "0x0000000000000000000000000000000000000004",
                "label": "Precompiled"
            },
            {
                "address": "0xeeeeeeeeeeeeeeeeeeeeeeeeeeeeeeeeeeeeeeee",
                "label": "Ether"
            },
            {
                "address": "0x97a9a15168c22b3c137e6381037e1499c8ad0978",
                "label": "Data Ownership Protocol: DOP Token"
            },
            {
                "address": "0x6e97eac711f309bf18d536a92428b13280d6f6e7",
                "label": "GnosisSafeProxy_6e97_f6e7"
            },
            {
                "address": "0x35f4817b14718c66dbbdba085f5f8d2c3a4aa420",
                "label": "DopClaims"
            },
            {
                "address": "0x0000000000000000000000000000000000000001",
                "label": "Precompiled"
            },
            {
                "address": "0x0000000000000000000000000000000000000002",
                "label": "Precompiled"
            }
        ]
    },
    "trace": {
        "accountLabels": null,
        "dataMap": {
            "-1": {
                "invocation": {
                    "address": "0xcbdddd05567deda0cc6e8fa958d7a4c7f763ad90",
                    "callData": "",
                    "decodedMethod": null,
                    "errorInfo": "",
                    "fromAddress": "",
                    "gasUsed": 0,
                    "id": -1,
                    "methodDecoded": false,
                    "operation": "",
                    "output": "",
                    "revert": false,
                    "revertMessage": "",
                    "selector": "",
                    "status": false,
                    "value": ""
                },
                "nodeType": 0
            },
            "0": {
                "invocation": {
                    "address": "0x35f4817b14718c66dbbdba085f5f8d2c3a4aa420",
                    "callData": "0x0000000000000000000000000000000000000000000000195b7959b388b80000000000000000000000000000000000000000000000000000000000000000012000000000000000000000000000000000000000000000000000000000000003c000000000000000000000000000000000000000000000000000000000000003e000000000000000000000000000000000000000000000000000000000000000000000000000000000000000000000000000000000000000000000000000000000000000000000000000000000000000000000000000000000000000000000000000000000000000000000000000000000000000000000000000000000000000000000000000000000000000000000000000000000000000000000000000000000000000000000000000000000000000000000000000000000000000000000001411d7cb85e93a159a2b02962745f6e54df6753573341abca9c2a0118f1276e5532651241f857af650ab8ec1a27d78f76b243d4e80d6a9408fbdb009bcee2239c38e311e5feca2e7daaf61a95a1095b3e4e0e82eab69ebd5c1ba53a791cc6a2e6f3a57f31021dd117322a8028df0b7a441d1ebd9ce9612631a6553e30be3cb35a1f98437eb722ff74ff14f3fed52b17637e4b045537ffbcf5e19d957bcc590ace7946f1685edfd30e54279a2655d9841bb06f4272df783c22059a5fd43a4b05e16a1484b32bf4f768d2e284deae2352386d9fdee9fdc0bcc4aaa157717aff73576004b2fef5a8dfe0ac453fb3d0c079d0cf079805d63627401641b810901b63f83c3b1299915109e336eb0c51d32edf0d51b1353299d9e45e87a8ae29a10333805c99a7b8c4c53424e2c87e1c880401166fb9a86ea0114ff1a6f79d10ecc064ec674b9f4360a9bfa9b8e8590479dae0a9f5f7328db27d37d471804b591464254a0132cb42a90de06ca6e249c394ffdbbd7483ffa0d9bef112db068f32096917dc75f6ecc79cebdfff0d5bb36d2e2e74ec75ca852ff4abfab4782c3c9ac6d94f8b90c02c587980642717ee9aef2090a6b1fee1379824ce4a62354bd315b3aa30c4337dbc8998f59e8479a0b6da9cc690e5a731358fb85f33d35d2ef2dd21d34add657f7768990adc4e9c12e8c1ff4751617f93a4b97ea13e1a58dfc9a453c11a0376967194326881f878e97c1eba64e2969cafba662297036f8e572224b925601653136eea6fa74eae511ff42a731b468841664b4a804b81a9b4fb8aac10ab390dee40022f35c64e03d7c8f1f64a8bf3c1474d708af2286ebebe542bde0862edfb013873d0cedc2e2e752fe449bb7c0a0ca3fbeca803ffab475b40171e94f031b5700000000000000000000000000000000000000000000000000000000000000000000000000000000000000000000000000000000000000000000000000000000",
                    "decodedMethod": {
                        "callParams": [
                            {
                                "name": "amountToClaim",
                                "type": "uint256",
                                "value": "467,760,000,000,000,000,000"
                            },
                            {
                                "name": "merkleProof",
                                "type": "bytes32[]",
                                "value": [
                                    "0x11d7cb85e93a159a2b02962745f6e54df6753573341abca9c2a0118f1276e553",
                                    "0x2651241f857af650ab8ec1a27d78f76b243d4e80d6a9408fbdb009bcee2239c3",
                                    "0x8e311e5feca2e7daaf61a95a1095b3e4e0e82eab69ebd5c1ba53a791cc6a2e6f",
                                    "0x3a57f31021dd117322a8028df0b7a441d1ebd9ce9612631a6553e30be3cb35a1",
                                    "0xf98437eb722ff74ff14f3fed52b17637e4b045537ffbcf5e19d957bcc590ace7",
                                    "0x946f1685edfd30e54279a2655d9841bb06f4272df783c22059a5fd43a4b05e16",
                                    "0xa1484b32bf4f768d2e284deae2352386d9fdee9fdc0bcc4aaa157717aff73576",
                                    "0x004b2fef5a8dfe0ac453fb3d0c079d0cf079805d63627401641b810901b63f83",
                                    "0xc3b1299915109e336eb0c51d32edf0d51b1353299d9e45e87a8ae29a10333805",
                                    "0xc99a7b8c4c53424e2c87e1c880401166fb9a86ea0114ff1a6f79d10ecc064ec6",
                                    "0x74b9f4360a9bfa9b8e8590479dae0a9f5f7328db27d37d471804b591464254a0",
                                    "0x132cb42a90de06ca6e249c394ffdbbd7483ffa0d9bef112db068f32096917dc7",
                                    "0x5f6ecc79cebdfff0d5bb36d2e2e74ec75ca852ff4abfab4782c3c9ac6d94f8b9",
                                    "0x0c02c587980642717ee9aef2090a6b1fee1379824ce4a62354bd315b3aa30c43",
                                    "0x37dbc8998f59e8479a0b6da9cc690e5a731358fb85f33d35d2ef2dd21d34add6",
                                    "0x57f7768990adc4e9c12e8c1ff4751617f93a4b97ea13e1a58dfc9a453c11a037",
                                    "0x6967194326881f878e97c1eba64e2969cafba662297036f8e572224b92560165",
                                    "0x3136eea6fa74eae511ff42a731b468841664b4a804b81a9b4fb8aac10ab390de",
                                    "0xe40022f35c64e03d7c8f1f64a8bf3c1474d708af2286ebebe542bde0862edfb0",
                                    "0x13873d0cedc2e2e752fe449bb7c0a0ca3fbeca803ffab475b40171e94f031b57"
                                ]
                            },
                            {
                                "name": "ids",
                                "type": "uint256[]",
                                "value": []
                            },
                            {
                                "name": "quantity",
                                "type": "uint256[]",
                                "value": []
                            },
                            {
                                "name": "claimNFT",
                                "type": "bool",
                                "value": false
                            },
                            {
                                "name": "isKycRequired",
                                "type": "bool",
                                "value": false
                            },
                            {
                                "name": "v",
                                "type": "uint8",
                                "value": "0"
                            },
                            {
                                "name": "r",
                                "type": "bytes32",
                                "value": "0x0000000000000000000000000000000000000000000000000000000000000000"
                            },
                            {
                                "name": "s",
                                "type": "bytes32",
                                "value": "0x0000000000000000000000000000000000000000000000000000000000000000"
                            }
                        ],
                        "constructorArguments": "",
                        "name": "claimDop",
                        "returnParams": [],
                        "signature": "claimDop(uint256,bytes32[],uint256[],uint256[],bool,bool,uint8,bytes32,bytes32)"
                    },
                    "errorInfo": "",
                    "fromAddress": "0xcbdddd05567deda0cc6e8fa958d7a4c7f763ad90",
                    "gasUsed": 125695,
                    "id": 0,
                    "methodDecoded": true,
                    "operation": "CALL",
                    "output": "",
                    "revert": false,
                    "revertMessage": "",
                    "selector": "0x83092e47",
                    "status": true,
                    "value": "0"
                },
                "nodeType": 0
            },
            "1": {
                "invocation": {
                    "address": "0x97a9a15168c22b3c137e6381037e1499c8ad0978",
                    "callData": "0x0000000000000000000000006e97eac711f309bf18d536a92428b13280d6f6e7000000000000000000000000cbdddd05567deda0cc6e8fa958d7a4c7f763ad900000000000000000000000000000000000000000000000195b7959b388b80000",
                    "decodedMethod": {
                        "callParams": [
                            {
                                "name": "from",
                                "type": "address",
                                "value": "0x6e97eac711f309bf18d536a92428b13280d6f6e7"
                            },
                            {
                                "name": "to",
                                "type": "address",
                                "value": "0xcbdddd05567deda0cc6e8fa958d7a4c7f763ad90"
                            },
                            {
                                "decimalAvailable": true,
                                "name": "value",
                                "type": "uint256",
                                "value": "467,760,000,000,000,000,000"
                            }
                        ],
                        "constructorArguments": "",
                        "name": "transferFrom",
                        "returnParams": [
                            {
                                "name": "",
                                "type": "bool",
                                "value": true
                            }
                        ],
                        "signature": "transferFrom(address,address,uint256)"
                    },
                    "errorInfo": "",
                    "fromAddress": "0x35f4817b14718c66dbbdba085f5f8d2c3a4aa420",
                    "gasUsed": 39836,
                    "id": 1,
                    "methodDecoded": true,
                    "operation": "CALL",
                    "output": "0x0000000000000000000000000000000000000000000000000000000000000001",
                    "revert": false,
                    "revertMessage": "",
                    "selector": "0x23b872dd",
                    "status": true,
                    "value": "0"
                },
                "nodeType": 0
            },
            "2": {
                "event": {
                    "contract": "0x97a9a15168c22b3c137e6381037e1499c8ad0978",
                    "decodedLog": {
                        "name": "Transfer",
                        "params": [
                            {
                                "name": "from",
                                "type": "address",
                                "value": "0x6e97eac711f309bf18d536a92428b13280d6f6e7"
                            },
                            {
                                "name": "to",
                                "type": "address",
                                "value": "0xcbdddd05567deda0cc6e8fa958d7a4c7f763ad90"
                            },
                            {
                                "decimalAvailable": true,
                                "name": "value",
                                "type": "uint256",
                                "value": "467,760,000,000,000,000,000"
                            }
                        ],
                        "signature": "Transfer(address,address,uint256)"
                    },
                    "id": 2,
                    "logData": "0x0000000000000000000000000000000000000000000000195b7959b388b80000",
                    "logDecoded": true,
                    "operation": "EVENT",
                    "revert": false,
                    "status": true,
                    "topics": [
                        "0xddf252ad1be2c89b69c2b068fc378daa952ba7f163c4a11628f55a4df523b3ef",
                        "0x0000000000000000000000006e97eac711f309bf18d536a92428b13280d6f6e7",
                        "0x000000000000000000000000cbdddd05567deda0cc6e8fa958d7a4c7f763ad90"
                    ]
                },
                "nodeType": 1
            },
            "3": {
                "event": {
                    "contract": "0x35f4817b14718c66dbbdba085f5f8d2c3a4aa420",
                    "decodedLog": {
                        "name": "Claimed",
                        "params": [
                            {
                                "name": "by",
                                "type": "address",
                                "value": "0xcbdddd05567deda0cc6e8fa958d7a4c7f763ad90"
                            },
                            {
                                "name": "ids",
                                "type": "uint256[]",
                                "value": "0xc5d2460186f7233c927e7db2dcc703c0e500b653ca82273b7bfad8045d85a470"
                            },
                            {
                                "name": "quantity",
                                "type": "uint256[]",
                                "value": "0xc5d2460186f7233c927e7db2dcc703c0e500b653ca82273b7bfad8045d85a470"
                            },
                            {
                                "name": "dopAmount",
                                "type": "uint256",
                                "value": "467,760,000,000,000,000,000"
                            }
                        ],
                        "signature": "Claimed(address,uint256,uint256[],uint256[])"
                    },
                    "id": 3,
                    "logData": "0x0000000000000000000000000000000000000000000000195b7959b388b80000",
                    "logDecoded": true,
                    "operation": "EVENT",
                    "revert": false,
                    "status": true,
                    "topics": [
                        "0x42103fa0eeaa26645ba1c99347e3c5a902bdf5fe04e611affb25c41d72e438aa",
                        "0x000000000000000000000000cbdddd05567deda0cc6e8fa958d7a4c7f763ad90",
                        "0xc5d2460186f7233c927e7db2dcc703c0e500b653ca82273b7bfad8045d85a470",
                        "0xc5d2460186f7233c927e7db2dcc703c0e500b653ca82273b7bfad8045d85a470"
                    ]
                },
                "nodeType": 1
            }
        },
        "gasFlame": [
            {
                "children": [
                    {
                        "children": [
                            {
                                "children": [],
                                "depth": 0,
                                "name": "Initial Gas",
                                "value": 32984
                            },
                            {
                                "children": [
                                    {
                                        "children": [],
                                        "depth": 1,
                                        "name": "transferFrom",
                                        "value": 39836
                                    }
                                ],
                                "depth": 0,
                                "name": "Executed Gas",
                                "value": 95511
                            }
                        ],
                        "depth": -1,
                        "name": "Actual Gas Used",
                        "value": 125695
                    },
                    {
                        "children": [],
                        "depth": -1,
                        "name": "Refunded Gas",
                        "value": 2800
                    }
                ],
                "depth": -2,
                "name": "Total Gas",
                "value": 128495
            }
        ],
        "isConfirmed": true,
        "mainTrace": [
            {
                "children": [
                    {
                        "children": [
                            {
                                "children": [
                                    {
                                        "children": [],
                                        "depth": 2,
                                        "id": 2,
                                        "order": 2
                                    }
                                ],
                                "depth": 1,
                                "id": 1,
                                "order": 1
                            },
                            {
                                "children": [],
                                "depth": 1,
                                "id": 3,
                                "order": 3
                            }
                        ],
                        "depth": 0,
                        "id": 0,
                        "order": 0
                    }
                ],
                "depth": -1,
                "id": -1,
                "order": -1
            }
        ],
        "mainTraceNodeCount": 4,
        "parentIdMap": {
            "0": -1,
            "1": 0,
            "2": 1,
            "3": 0
        },
        "tidyTrace": [
            {
                "children": [
                    {
                        "children": [
                            {
                                "children": [
                                    {
                                        "children": [],
                                        "depth": 2,
                                        "id": 2,
                                        "order": 2
                                    }
                                ],
                                "depth": 1,
                                "id": 1,
                                "order": 1
                            },
                            {
                                "children": [],
                                "depth": 1,
                                "id": 3,
                                "order": 3
                            }
                        ],
                        "depth": 0,
                        "id": 0,
                        "order": 0
                    }
                ],
                "depth": -1,
                "id": -1,
                "order": -1
            }
        ],
        "tidyTraceNodeCount": 4
    },
    "state_change": {
        "stateChanges": [
            {
                "address": "0x35f4817b14718c66dbbdba085f5f8d2c3a4aa420",
                "erc": "",
                "slots": [
                    {
                        "current": "0x0000000000000000000000000000000000000000000000000000000000000001",
                        "key": "0x6e5b4fb23df9212dd0ffad905d6dc933ccfd66da35dd80d62c1d33cd61a24935",
                        "prev": "0x0000000000000000000000000000000000000000000000000000000000000000"
                    }
                ],
                "storageVariables": [
                    {
                        "name": "isClaimed",
                        "type": "mapping(address => bool)",
                        "value": {
                            "pairs": [
                                {
                                    "key": "0xcbdddd05567deda0cc6e8fa958d7a4c7f763ad90",
                                    "value": {
                                        "current": "true",
                                        "prev": "false",
                                        "typeTag": 1
                                    }
                                }
                            ],
                            "typeTag": 4
                        }
                    }
                ]
            },
            {
                "address": "0x97a9a15168c22b3c137e6381037e1499c8ad0978",
                "erc": "ERC-20",
                "slots": [
                    {
                        "current": "0x00000000000000000000000000000000000000000d2840d397800fe572a7af30",
                        "key": "0xd5e3b5e1e724bdb681be1901ce0c972ff36a91739e0eb13a8af11d7fee2930b6",
                        "prev": "0x00000000000000000000000000000000000000000d2840ecf2f96998fb5faf30"
                    },
                    {
                        "current": "0x0000000000000000000000000000000000000000000000195b7959b388b80000",
                        "key": "0x37fec0187666237780584c7f92bee789f1541b5d22bd40ce80bb1b5a26931643",
                        "prev": "0x0000000000000000000000000000000000000000000000000000000000000000"
                    },
                    {
                        "current": "0x00000000000000000000000000000000000000000d2840d397800fe572a7af30",
                        "key": "0x4fae244fabdd309b0e1e052bc26e5224005d090a62bda53784800c82c9830278",
                        "prev": "0x00000000000000000000000000000000000000000d2840ecf2f96998fb5faf30"
                    }
                ],
                "storageVariables": [
                    {
                        "name": "_balances",
                        "type": "mapping(address => uint256)",
                        "value": {
                            "pairs": [
                                {
                                    "key": "0x6e97eac711f309bf18d536a92428b13280d6f6e7",
                                    "value": {
                                        "current": "4071968295096717245311070000",
                                        "prev": "4071968762856717245311070000",
                                        "typeTag": 1
                                    }
                                },
                                {
                                    "key": "0xcbdddd05567deda0cc6e8fa958d7a4c7f763ad90",
                                    "value": {
                                        "current": "467760000000000000000",
                                        "prev": "0",
                                        "typeTag": 1
                                    }
                                }
                            ],
                            "typeTag": 4
                        }
                    },
                    {
                        "name": "_allowances",
                        "type": "mapping(address => mapping(address => uint256))",
                        "value": {
                            "pairs": [
                                {
                                    "key": "0x6e97eac711f309bf18d536a92428b13280d6f6e7",
                                    "value": {
                                        "pairs": [
                                            {
                                                "key": "0x35f4817b14718c66dbbdba085f5f8d2c3a4aa420",
                                                "value": {
                                                    "current": "4071968295096717245311070000",
                                                    "prev": "4071968762856717245311070000",
                                                    "typeTag": 1
                                                }
                                            }
                                        ],
                                        "typeTag": 4
                                    }
                                }
                            ],
                            "typeTag": 4
                        }
                    }
                ]
            }
        ]
    }
}