{
    "balance_change": {
        "balanceChanges": [
            {
                "account": "0xa294cca691e4c83b1fc0c8d63d9a3eef0a196de1",
                "assets": [
                    {
                        "address": "0xdac17f958d2ee523a2206206994597c13d831ec7",
                        "amount": "260,985",
                        "iconUrl": "https://assets.blocksec.com/icon/fcea71f3193ce895be44bfdf941f7e4c9381dd587f273c2d1a27f1263d84e4ea.png",
                        "isERC1155": false,
                        "isERC721": false,
                        "sign": false,
                        "value": "260697.5041"
                    }
                ]
            },
            {
                "account": "0x94bca3f266cd123fcee868490ed0bc9e9341049d",
                "assets": [
                    {
                        "address": "0xdac17f958d2ee523a2206206994597c13d831ec7",
                        "amount": "260,985",
                        "iconUrl": "https://assets.blocksec.com/icon/fcea71f3193ce895be44bfdf941f7e4c9381dd587f273c2d1a27f1263d84e4ea.png",
                        "isERC1155": false,
                        "isERC721": false,
                        "sign": true,
                        "value": "260697.5041"
                    }
                ]
            }
        ]
    },
    "profile": {
        "basic_info": {
            "baseFee": "38.640527666",
            "blockNumber": 14976817,
            "callData": "0xa9059cbb00000000000000000000000094bca3f266cd123fcee868490ed0bc9e9341049d0000000000000000000000000000000000000000000000000000003cc3eb1040",
            "debugEnable": true,
            "errorInfo": "",
            "eventCount": 1,
            "feeRecipient": "0x646db8ffc21e7ddc2b6327448dd9fa560df41087",
            "formatValue": "0",
            "gasLimit": 120000,
            "gasPrice": "47.258527666",
            "gasUsed": 46121,
            "intTxnCount": 0,
            "internalRevert": false,
            "internalRevertMessage": "",
            "isContractCreation": false,
            "isFlashloan": false,
            "maxFee": "59.493041021",
            "nonce": 64923,
            "overwritedBlockNumber": -1,
            "priorityFee": "8.618",
            "receiver": "0xdac17f958d2ee523a2206206994597c13d831ec7",
            "revertMessage": "",
            "sender": "0xa294cca691e4c83b1fc0c8d63d9a3eef0a196de1",
            "simulationEnable": true,
            "sourceTxnHash": "0x12e50327862ed8272c01e1122156fc6596ba08f173511810081b9aabc79a7bb3",
            "status": true,
            "timestamp": "2022-06-17T02:52:33Z",
            "transactionFee": "0.002179610554483586",
            "txnHash": "0x12e50327862ed8272c01e1122156fc6596ba08f173511810081b9aabc79a7bb3",
            "txnIndex": 29,
            "type": 2,
            "value": "0"
        },
        "fund_flow": [
            {
                "amount": "260,985",
                "from": "0xa294cca691e4c83b1fc0c8d63d9a3eef0a196de1",
                "id": 1,
                "isERC1155": false,
                "isERC721": false,
                "isReverted": false,
                "order": 1,
                "to": "0x94bca3f266cd123fcee868490ed0bc9e9341049d",
                "token": "0xdac17f958d2ee523a2206206994597c13d831ec7"
            }
        ],
        "token_infos": [
            {
                "address": "0xc02aaa39b223fe8d0a0e5c4f27ead9083c756cc2",
                "decimals": 18
            },
            {
                "address": "0xdac17f958d2ee523a2206206994597c13d831ec7",
                "decimals": 6
            },
            {
                "address": "0xeeeeeeeeeeeeeeeeeeeeeeeeeeeeeeeeeeeeeeee",
                "decimals": 18
            }
        ]
    },
    "address_label": {
        "labels": [
            {
                "address": "0xdac17f958d2ee523a2206206994597c13d831ec7",
                "label": "Tether: USDT Stablecoin"
            },
            {
                "address": "0x94bca3f266cd123fcee868490ed0bc9e9341049d",
                "label": "BINANCE"
            },
            {
                "address": "0x0000000000000000000000000000000000000001",
                "label": "Precompiled"
            },
            {
                "address": "0x0000000000000000000000000000000000000002",
                "label": "Precompiled"
            },
            {
                "address": "0x0000000000000000000000000000000000000003",
                "label": "Precompiled"
            },
            {
                "address": "0x0000000000000000000000000000000000000004",
                "label": "Precompiled"
            },
            {
                "address": "0xeeeeeeeeeeeeeeeeeeeeeeeeeeeeeeeeeeeeeeee",
                "label": "Ether"
            },
            {
                "address": "0xa294cca691e4c83b1fc0c8d63d9a3eef0a196de1",
                "label": "Fund: 0xa29...de1"
            }
        ]
    },
    "trace": {
        "accountLabels": null,
        "dataMap": {
            "-1": {
                "invocation": {
                    "address": "0xa294cca691e4c83b1fc0c8d63d9a3eef0a196de1",
                    "callData": "",
                    "decodedMethod": null,
                    "errorInfo": "",
                    "fromAddress": "",
                    "gasUsed": 0,
                    "id": -1,
                    "methodDecoded": false,
                    "operation": "",
                    "output": "",
                    "revert": false,
                    "revertMessage": "",
                    "selector": "",
                    "status": false,
                    "value": ""
                },
                "nodeType": 0
            },
            "0": {
                "invocation": {
                    "address": "0xdac17f958d2ee523a2206206994597c13d831ec7",
                    "callData": "0x00000000000000000000000094bca3f266cd123fcee868490ed0bc9e9341049d0000000000000000000000000000000000000000000000000000003cc3eb1040",
                    "decodedMethod": {
                        "callParams": [
                            {
                                "name": "_to",
                                "type": "address",
                                "value": "0x94bca3f266cd123fcee868490ed0bc9e9341049d"
                            },
                            {
                                "decimalAvailable": true,
                                "name": "_value",
                                "type": "uint256",
                                "value": "260,985,000,000"
                            }
                        ],
                        "constructorArguments": "",
                        "name": "transfer",
                        "returnParams": [],
                        "signature": "transfer(address,uint256)"
                    },
                    "errorInfo": "",
                    "fromAddress": "0xa294cca691e4c83b1fc0c8d63d9a3eef0a196de1",
                    "gasUsed": 46121,
                    "id": 0,
                    "methodDecoded": true,
                    "operation": "CALL",
                    "output": "",
                    "revert": false,
                    "revertMessage": "",
                    "selector": "0xa9059cbb",
                    "status": true,
                    "value": "0"
                },
                "nodeType": 0
            },
            "1": {
                "event": {
                    "contract": "0xdac17f958d2ee523a2206206994597c13d831ec7",
                    "decodedLog": {
                        "name": "Transfer",
                        "params": [
                            {
                                "name": "from",
                                "type": "address",
                                "value": "0xa294cca691e4c83b1fc0c8d63d9a3eef0a196de1"
                            },
                            {
                                "name": "to",
                                "type": "address",
                                "value": "0x94bca3f266cd123fcee868490ed0bc9e9341049d"
                            },
                            {
                                "decimalAvailable": true,
                                "name": "value",
                                "type": "uint256",
                                "value": "260,985,000,000"
                            }
                        ],
                        "signature": "Transfer(address,address,uint256)"
                    },
                    "id": 1,
                    "logData": "0x0000000000000000000000000000000000000000000000000000003cc3eb1040",
                    "logDecoded": true,
                    "operation": "EVENT",
                    "revert": false,
                    "status": true,
                    "topics": [
                        "0xddf252ad1be2c89b69c2b068fc378daa952ba7f163c4a11628f55a4df523b3ef",
                        "0x000000000000000000000000a294cca691e4c83b1fc0c8d63d9a3eef0a196de1",
                        "0x00000000000000000000000094bca3f266cd123fcee868490ed0bc9e9341049d"
                    ]
                },
                "nodeType": 1
            }
        },
        "gasFlame": [
            {
                "children": [
                    {
                        "children": [
                            {
                                "children": [],
                                "depth": 0,
                                "name": "Initial Gas",
                                "value": 21620
                            },
                            {
                                "children": [],
                                "depth": 0,
                                "name": "Executed Gas",
                                "value": 24501
                            }
                        ],
                        "depth": -1,
                        "name": "Actual Gas Used",
                        "value": 46121
                    },
                    {
                        "children": [],
                        "depth": -1,
                        "name": "Refunded Gas",
                        "value": 0
                    }
                ],
                "depth": -2,
                "name": "Total Gas",
                "value": 46121
            }
        ],
        "isConfirmed": true,
        "mainTrace": [
            {
                "children": [
                    {
                        "children": [
                            {
                                "children": [],
                                "depth": 1,
                                "id": 1,
                                "order": 1
                            }
                        ],
                        "depth": 0,
                        "id": 0,
                        "order": 0
                    }
                ],
                "depth": -1,
                "id": -1,
                "order": -1
            }
        ],
        "mainTraceNodeCount": 2,
        "parentIdMap": {
            "0": -1,
            "1": 0
        },
        "tidyTrace": [
            {
                "children": [
                    {
                        "children": [
                            {
                                "children": [],
                                "depth": 1,
                                "id": 1,
                                "order": 1
                            }
                        ],
                        "depth": 0,
                        "id": 0,
                        "order": 0
                    }
                ],
                "depth": -1,
                "id": -1,
                "order": -1
            }
        ],
        "tidyTraceNodeCount": 2
    },
    "state_change": {
        "stateChanges": [
            {
                "address": "0xdac17f958d2ee523a2206206994597c13d831ec7",
                "erc": "ERC-20",
                "slots": [
                    {
                        "current": "0x00000000000000000000000000000000000000000000000000000000009f9906",
                        "key": "0x598b6ee0002d9d4a8300304bffa380eda0e326ebf2050e02fd81c936a04410c9",
                        "prev": "0x0000000000000000000000000000000000000000000000000000003cc48aa946"
                    },
                    {
                        "current": "0x0000000000000000000000000000000000000000000000000000011612018dc0",
                        "key": "0x3f7bc99dfc5d4ff668897b755da3f9e754351a59abecd9fa48a8dbcc209fbd85",
                        "prev": "0x000000000000000000000000000000000000000000000000000000d94e167d80"
                    }
                ],
                "storageVariables": [
                    {
                        "name": "balances",
                        "type": "mapping(address => uint256)",
                        "value": {
                            "pairs": [
                                {
                                    "key": "0x94bca3f266cd123fcee868490ed0bc9e9341049d",
                                    "value": {
                                        "current": "1194303000000",
                                        "prev": "933318000000",
                                        "typeTag": 1
                                    }
                                },
                                {
                                    "key": "0xa294cca691e4c83b1fc0c8d63d9a3eef0a196de1",
                                    "value": {
                                        "current": "10459398",
                                        "prev": "260995459398",
                                        "typeTag": 1
                                    }
                                }
                            ],
                            "typeTag": 4
                        }
                    }
                ]
            }
        ]
    }
}