{
    "balance_change": {
        "balanceChanges": [
            {
                "account": "0x1538ef80213cde339a333ee420a85c21905b1b2d",
                "assets": [
                    {
                        "address": "0x805cefaf11df46d609fa34a7723d289b180fe4fa",
                        "amount": "300",
                        "iconUrl": "",
                        "isERC1155": false,
                        "isERC721": false,
                        "sign": false,
                        "value": ""
                    }
                ]
            },
            {
                "account": "0xfcc2abaef6b50593f14ed0f63bf9fd14818a671e",
                "assets": [
                    {
                        "address": "0x805cefaf11df46d609fa34a7723d289b180fe4fa",
                        "amount": "300",
                        "iconUrl": "",
                        "isERC1155": false,
                        "isERC721": false,
                        "sign": true,
                        "value": ""
                    }
                ]
            }
        ]
    },
    "profile": {
        "basic_info": {
            "baseFee": "",
            "blockNumber": 3992893,
            "callData": "0xa9059cbb000000000000000000000000fcc2abaef6b50593f14ed0f63bf9fd14818a671e00000000000000000000000000000000000000000000001043561a8829300000",
            "debugEnable": true,
            "errorInfo": "",
            "eventCount": 1,
            "feeRecipient": "0x1e9939daaad6924ad004c2560e90804164900341",
            "formatValue": "0",
            "gasLimit": 4700000,
            "gasPrice": "23",
            "gasUsed": 52612,
            "intTxnCount": 0,
            "internalRevert": false,
            "internalRevertMessage": "",
            "isContractCreation": false,
            "isFlashloan": false,
            "maxFee": "",
            "nonce": 34,
            "overwritedBlockNumber": -1,
            "priorityFee": "",
            "receiver": "0x805cefaf11df46d609fa34a7723d289b180fe4fa",
            "revertMessage": "",
            "sender": "0x1538ef80213cde339a333ee420a85c21905b1b2d",
            "simulationEnable": true,
            "sourceTxnHash": "0x128ff4639d8f48333a9ab2e3d8a653a0f9db179f91cd5fd5bee0fd1799e82f32",
            "status": true,
            "timestamp": "2017-07-08T11:29:09Z",
            "transactionFee": "0.001210076",
            "txnHash": "0x128ff4639d8f48333a9ab2e3d8a653a0f9db179f91cd5fd5bee0fd1799e82f32",
            "txnIndex": 16,
            "type": 0,
            "value": "0"
        },
        "fund_flow": [
            {
                "amount": "300",
                "from": "0x1538ef80213cde339a333ee420a85c21905b1b2d",
                "id": 1,
                "isERC1155": false,
                "isERC721": false,
                "isReverted": false,
                "order": 1,
                "to": "0xfcc2abaef6b50593f14ed0f63bf9fd14818a671e",
                "token": "0x805cefaf11df46d609fa34a7723d289b180fe4fa"
            }
        ],
        "token_infos": [
            {
                "address": "0xeeeeeeeeeeeeeeeeeeeeeeeeeeeeeeeeeeeeeeee",
                "decimals": 18
            },
            {
                "address": "0x805cefaf11df46d609fa34a7723d289b180fe4fa",
                "decimals": 18
            },
            {
                "address": "0xc02aaa39b223fe8d0a0e5c4f27ead9083c756cc2",
                "decimals": 18
            }
        ]
    },
    "address_label": {
        "labels": [
            {
                "address": "0x0000000000000000000000000000000000000003",
                "label": "Precompiled"
            },
            {
                "address": "0x0000000000000000000000000000000000000004",
                "label": "Precompiled"
            },
            {
                "address": "0xeeeeeeeeeeeeeeeeeeeeeeeeeeeeeeeeeeeeeeee",
                "label": "Ether"
            },
            {
                "address": "0x805cefaf11df46d609fa34a7723d289b180fe4fa",
                "label": "NTRY"
            },
            {
                "address": "0x0000000000000000000000000000000000000001",
                "label": "Precompiled"
            },
            {
                "address": "0x0000000000000000000000000000000000000002",
                "label": "Precompiled"
            }
        ]
    },
    "trace": {
        "accountLabels": null,
        "dataMap": {
            "-1": {
                "invocation": {
                    "address": "0x1538ef80213cde339a333ee420a85c21905b1b2d",
                    "callData": "",
                    "decodedMethod": null,
                    "errorInfo": "",
                    "fromAddress": "",
                    "gasUsed": 0,
                    "id": -1,
                    "methodDecoded": false,
                    "operation": "",
                    "output": "",
                    "revert": false,
                    "revertMessage": "",
                    "selector": "",
                    "status": false,
                    "value": ""
                },
                "nodeType": 0
            },
            "0": {
                "invocation": {
                    "address": "0x805cefaf11df46d609fa34a7723d289b180fe4fa",
                    "callData": "0x000000000000000000000000fcc2abaef6b50593f14ed0f63bf9fd14818a671e00000000000000000000000000000000000000000000001043561a8829300000",
                    "decodedMethod": {
                        "callParams": [
                            {
                                "name": "_to",
                                "type": "address",
                                "value": "0xfcc2abaef6b50593f14ed0f63bf9fd14818a671e"
                            },
                            {
                                "decimalAvailable": true,
                                "name": "_value",
                                "type": "uint256",
                                "value": "300,000,000,000,000,000,000"
                            }
                        ],
                        "constructorArguments": "",
                        "name": "transfer",
                        "returnParams": [
                            {
                                "name": "success",
                                "type": "bool",
                                "value": true
                            }
                        ],
                        "signature": "transfer(address,uint256)"
                    },
                    "errorInfo": "",
                    "fromAddress": "0x1538ef80213cde339a333ee420a85c21905b1b2d",
                    "gasUsed": 52612,
                    "id": 0,
                    "methodDecoded": true,
                    "operation": "CALL",
                    "output": "0x0000000000000000000000000000000000000000000000000000000000000001",
                    "revert": false,
                    "revertMessage": "",
                    "selector": "0xa9059cbb",
                    "status": true,
                    "value": "0"
                },
                "nodeType": 0
            },
            "1": {
                "event": {
                    "contract": "0x805cefaf11df46d609fa34a7723d289b180fe4fa",
                    "decodedLog": {
                        "name": "Transfer",
                        "params": [
                            {
                                "name": "from",
                                "type": "address",
                                "value": "0x1538ef80213cde339a333ee420a85c21905b1b2d"
                            },
                            {
                                "name": "to",
                                "type": "address",
                                "value": "0xfcc2abaef6b50593f14ed0f63bf9fd14818a671e"
                            },
                            {
                                "decimalAvailable": true,
                                "name": "value",
                                "type": "uint256",
                                "value": "300,000,000,000,000,000,000"
                            }
                        ],
                        "signature": "Transfer(address,address,uint256)"
                    },
                    "id": 1,
                    "logData": "0x00000000000000000000000000000000000000000000001043561a8829300000",
                    "logDecoded": true,
                    "operation": "EVENT",
                    "revert": false,
                    "status": true,
                    "topics": [
                        "0xddf252ad1be2c89b69c2b068fc378daa952ba7f163c4a11628f55a4df523b3ef",
                        "0x0000000000000000000000001538ef80213cde339a333ee420a85c21905b1b2d",
                        "0x000000000000000000000000fcc2abaef6b50593f14ed0f63bf9fd14818a671e"
                    ]
                },
                "nodeType": 1
            }
        },
        "gasFlame": [
            {
                "children": [
                    {
                        "children": [
                            {
                                "children": [],
                                "depth": 0,
                                "name": "Initial Gas",
                                "value": 23256
                            },
                            {
                                "children": [],
                                "depth": 0,
                                "name": "Executed Gas",
                                "value": 29356
                            }
                        ],
                        "depth": -1,
                        "name": "Actual Gas Used",
                        "value": 52612
                    },
                    {
                        "children": [],
                        "depth": -1,
                        "name": "Refunded Gas",
                        "value": 0
                    }
                ],
                "depth": -2,
                "name": "Total Gas",
                "value": 52612
            }
        ],
        "isConfirmed": true,
        "mainTrace": [
            {
                "children": [
                    {
                        "children": [
                            {
                                "children": [],
                                "depth": 1,
                                "id": 1,
                                "order": 1
                            }
                        ],
                        "depth": 0,
                        "id": 0,
                        "order": 0
                    }
                ],
                "depth": -1,
                "id": -1,
                "order": -1
            }
        ],
        "mainTraceNodeCount": 2,
        "parentIdMap": {
            "0": -1,
            "1": 0
        },
        "tidyTrace": [
            {
                "children": [
                    {
                        "children": [
                            {
                                "children": [],
                                "depth": 1,
                                "id": 1,
                                "order": 1
                            }
                        ],
                        "depth": 0,
                        "id": 0,
                        "order": 0
                    }
                ],
                "depth": -1,
                "id": -1,
                "order": -1
            }
        ],
        "tidyTraceNodeCount": 2
    },
    "state_change": {
        "stateChanges": [
            {
                "address": "0x805cefaf11df46d609fa34a7723d289b180fe4fa",
                "erc": "ERC-20",
                "slots": [
                    {
                        "current": "0x00000000000000000000000000000000000000000078e8c53f121d4aae94a000",
                        "key": "0x888ef47d038a5537a9b5207bac6224ef5ecaa30d7c34375aff2a3662d72ae2d5",
                        "prev": "0x00000000000000000000000000000000000000000078e8d5826837d2d7c4a000"
                    },
                    {
                        "current": "0x00000000000000000000000000000000000000000000001043561a8829300000",
                        "key": "0x2cb662d1e2abef00649e64a9b1ba2ddc5d2d458445995855be069d6e2bba0a7f",
                        "prev": "0x0000000000000000000000000000000000000000000000000000000000000000"
                    }
                ],
                "storageVariables": []
            }
        ]
    }
}