{
    "balance_change": {
        "balanceChanges": [
            {
                "account": "0x000000000dfde7deaf24138722987c9a6991e2d4",
                "assets": [
                    {
                        "address": "0x1a4b46696b2bb4794eb3d4c26f1c55f9170fa4c5",
                        "amount": "8,711.885500933417",
                        "iconUrl": "https://assets.blocksec.com/icon/ad8bbf25e6719b33e35b39b332ed351660d70b327d1e1e0bc68ca515b24ddaf8.png",
                        "isERC1155": false,
                        "isERC721": false,
                        "sign": false,
                        "value": "7020.740585"
                    },
                    {
                        "address": "0xc02aaa39b223fe8d0a0e5c4f27ead9083c756cc2",
                        "amount": "3.43496395006986286",
                        "iconUrl": "https://assets.blocksec.com/icon/f1cb2d02c471d545bbc7722daf3277fd852d98e63d118771af7047bd8256c516.png",
                        "isERC1155": false,
                        "isERC721": false,
                        "sign": true,
                        "value": "10096.799226385316052"
                    }
                ]
            },
            {
                "account": "0xe12af1218b4e9272e9628d7c7dc6354d137d024e",
                "assets": [
                    {
                        "address": "0x1a4b46696b2bb4794eb3d4c26f1c55f9170fa4c5",
                        "amount": "8,711.885500933417",
                        "iconUrl": "https://assets.blocksec.com/icon/ad8bbf25e6719b33e35b39b332ed351660d70b327d1e1e0bc68ca515b24ddaf8.png",
                        "isERC1155": false,
                        "isERC721": false,
                        "sign": true,
                        "value": "7020.740585"
                    },
                    {
                        "address": "0xc02aaa39b223fe8d0a0e5c4f27ead9083c756cc2",
                        "amount": "3.43496395006986286",
                        "iconUrl": "https://assets.blocksec.com/icon/f1cb2d02c471d545bbc7722daf3277fd852d98e63d118771af7047bd8256c516.png",
                        "isERC1155": false,
                        "isERC721": false,
                        "sign": false,
                        "value": "10096.799226385316052"
                    }
                ]
            }
        ]
    },
    "profile": {
        "basic_info": {
            "baseFee": "36.240466342",
            "blockNumber": 14825953,
            "callData": "0xe343fe12000000000000000000000000e12af1218b4e9272e9628d7c7dc6354d137d024e0000000000000000000000001a4b46696b2bb4794eb3d4c26f1c55f9170fa4c5000000000000000000000000c02aaa39b223fe8d0a0e5c4f27ead9083c756cc20000000000000000000000000000000000000000000001d845b2c98d2454dc400000000000000000000000000000000000000000000000002fa3da6dcd512eb0",
            "debugEnable": true,
            "errorInfo": "",
            "eventCount": 4,
            "feeRecipient": "0x52bc44d5378309ee2abf1539bf71de1b7d7be3b5",
            "formatValue": "0",
            "gasLimit": 400000,
            "gasPrice": "46.240466342",
            "gasUsed": 106619,
            "intTxnCount": 6,
            "internalRevert": false,
            "internalRevertMessage": "",
            "isContractCreation": false,
            "isFlashloan": false,
            "maxFee": "59.435561682",
            "nonce": 5885,
            "overwritedBlockNumber": -1,
            "priorityFee": "10",
            "receiver": "0x000000000dfde7deaf24138722987c9a6991e2d4",
            "revertMessage": "",
            "sender": "0xccfb4b91ff5d1a2319c96ab6b59be4cdefb8437d",
            "simulationEnable": true,
            "sourceTxnHash": "0x12f88b615953ffc0d52b82c96a1d31ce640355dbb7cd0048e56ecac802ac9065",
            "status": true,
            "timestamp": "2022-05-22T22:22:27Z",
            "transactionFee": "0.004930112280917698",
            "txnHash": "0x12f88b615953ffc0d52b82c96a1d31ce640355dbb7cd0048e56ecac802ac9065",
            "txnIndex": 4,
            "type": 2,
            "value": "0"
        },
        "fund_flow": [
            {
                "amount": "8,711.885500933417",
                "from": "0x000000000dfde7deaf24138722987c9a6991e2d4",
                "id": 1,
                "isERC1155": false,
                "isERC721": false,
                "isReverted": false,
                "order": 1,
                "to": "0xe12af1218b4e9272e9628d7c7dc6354d137d024e",
                "token": "0x1a4b46696b2bb4794eb3d4c26f1c55f9170fa4c5"
            },
            {
                "amount": "3.43496395006986286",
                "from": "0xe12af1218b4e9272e9628d7c7dc6354d137d024e",
                "id": 2,
                "isERC1155": false,
                "isERC721": false,
                "isReverted": false,
                "order": 2,
                "to": "0x000000000dfde7deaf24138722987c9a6991e2d4",
                "token": "0xc02aaa39b223fe8d0a0e5c4f27ead9083c756cc2"
            }
        ],
        "token_infos": [
            {
                "address": "0xeeeeeeeeeeeeeeeeeeeeeeeeeeeeeeeeeeeeeeee",
                "decimals": 18
            },
            {
                "address": "0x1a4b46696b2bb4794eb3d4c26f1c55f9170fa4c5",
                "decimals": 18
            },
            {
                "address": "0xc02aaa39b223fe8d0a0e5c4f27ead9083c756cc2",
                "decimals": 18
            }
        ]
    },
    "address_label": {
        "labels": [
            {
                "address": "0x0000000000000000000000000000000000000004",
                "label": "Precompiled"
            },
            {
                "address": "0xeeeeeeeeeeeeeeeeeeeeeeeeeeeeeeeeeeeeeeee",
                "label": "Ether"
            },
            {
                "address": "0xe12af1218b4e9272e9628d7c7dc6354d137d024e",
                "label": "SushiSwap: BIT"
            },
            {
                "address": "0xc02aaa39b223fe8d0a0e5c4f27ead9083c756cc2",
                "label": "Wrapped Ether (WETH)"
            },
            {
                "address": "0x000000000dfde7deaf24138722987c9a6991e2d4",
                "label": "MEV Bot: 0x000...2D4"
            },
            {
                "address": "0x0000000000000000000000000000000000000001",
                "label": "Precompiled"
            },
            {
                "address": "0x0000000000000000000000000000000000000002",
                "label": "Precompiled"
            },
            {
                "address": "0x1a4b46696b2bb4794eb3d4c26f1c55f9170fa4c5",
                "label": "BitDAO: BIT Token"
            },
            {
                "address": "0x0000000000000000000000000000000000000003",
                "label": "Precompiled"
            }
        ]
    },
    "trace": {
        "accountLabels": null,
        "dataMap": {
            "-1": {
                "invocation": {
                    "address": "0xccfb4b91ff5d1a2319c96ab6b59be4cdefb8437d",
                    "callData": "",
                    "decodedMethod": null,
                    "errorInfo": "",
                    "fromAddress": "",
                    "gasUsed": 0,
                    "id": -1,
                    "methodDecoded": false,
                    "operation": "",
                    "output": "",
                    "revert": false,
                    "revertMessage": "",
                    "selector": "",
                    "status": false,
                    "value": ""
                },
                "nodeType": 0
            },
            "0": {
                "invocation": {
                    "address": "0x000000000dfde7deaf24138722987c9a6991e2d4",
                    "callData": "0x000000000000000000000000e12af1218b4e9272e9628d7c7dc6354d137d024e0000000000000000000000001a4b46696b2bb4794eb3d4c26f1c55f9170fa4c5000000000000000000000000c02aaa39b223fe8d0a0e5c4f27ead9083c756cc20000000000000000000000000000000000000000000001d845b2c98d2454dc400000000000000000000000000000000000000000000000002fa3da6dcd512eb0",
                    "decodedMethod": {
                        "callParams": [
                            {
                                "name": "router",
                                "type": "address",
                                "value": "0xe12af1218b4e9272e9628d7c7dc6354d137d024e"
                            },
                            {
                                "name": "_tokenIn",
                                "type": "address",
                                "value": "0x1a4b46696b2bb4794eb3d4c26f1c55f9170fa4c5"
                            },
                            {
                                "name": "_tokenOut",
                                "type": "address",
                                "value": "0xc02aaa39b223fe8d0a0e5c4f27ead9083c756cc2"
                            },
                            {
                                "name": "_amount",
                                "type": "uint256",
                                "value": "8,711,885,500,933,417,000,000"
                            },
                            {
                                "name": "slippage",
                                "type": "uint256",
                                "value": "3,432,827,506,117,390,000"
                            }
                        ],
                        "constructorArguments": "",
                        "name": "swap",
                        "returnParams": [],
                        "signature": "swap(address,address,address,uint256,uint256)"
                    },
                    "errorInfo": "",
                    "fromAddress": "0xccfb4b91ff5d1a2319c96ab6b59be4cdefb8437d",
                    "gasUsed": 106619,
                    "id": 0,
                    "methodDecoded": true,
                    "operation": "CALL",
                    "output": "",
                    "revert": false,
                    "revertMessage": "",
                    "selector": "0xe343fe12",
                    "status": true,
                    "value": "0"
                },
                "nodeType": 0
            },
            "1": {
                "invocation": {
                    "address": "0xe12af1218b4e9272e9628d7c7dc6354d137d024e",
                    "callData": "0x",
                    "decodedMethod": {
                        "callParams": [],
                        "constructorArguments": "",
                        "name": "getReserves",
                        "returnParams": [
                            {
                                "name": "_reserve0",
                                "type": "uint112",
                                "value": "13,251,021,188,501,171,158,481,189"
                            },
                            {
                                "name": "_reserve1",
                                "type": "uint112",
                                "value": "5,243,832,269,808,378,997,501"
                            },
                            {
                                "name": "_blockTimestampLast",
                                "type": "uint32",
                                "value": "1,653,258,088"
                            }
                        ],
                        "signature": "getReserves()"
                    },
                    "errorInfo": "",
                    "fromAddress": "0x000000000dfde7deaf24138722987c9a6991e2d4",
                    "gasUsed": 2517,
                    "id": 1,
                    "methodDecoded": true,
                    "operation": "STATICCALL",
                    "output": "0x0000000000000000000000000000000000000000000af6034c4a76a031b9792500000000000000000000000000000000000000000000011c44caa2606ac26afd00000000000000000000000000000000000000000000000000000000628ab768",
                    "revert": false,
                    "revertMessage": "",
                    "selector": "0x0902f1ac",
                    "status": true,
                    "value": "0"
                },
                "nodeType": 0
            },
            "10": {
                "event": {
                    "contract": "0xe12af1218b4e9272e9628d7c7dc6354d137d024e",
                    "decodedLog": {
                        "name": "Swap",
                        "params": [
                            {
                                "name": "sender",
                                "type": "address",
                                "value": "0x000000000dfde7deaf24138722987c9a6991e2d4"
                            },
                            {
                                "name": "to",
                                "type": "address",
                                "value": "0x000000000dfde7deaf24138722987c9a6991e2d4"
                            },
                            {
                                "name": "amount0In",
                                "type": "uint256",
                                "value": "8,711,885,500,933,417,000,000"
                            },
                            {
                                "name": "amount1In",
                                "type": "uint256",
                                "value": "0"
                            },
                            {
                                "name": "amount0Out",
                                "type": "uint256",
                                "value": "0"
                            },
                            {
                                "name": "amount1Out",
                                "type": "uint256",
                                "value": "3,434,963,950,069,862,860"
                            }
                        ],
                        "signature": "Swap(address,uint256,uint256,uint256,uint256,address)"
                    },
                    "id": 10,
                    "logData": "0x0000000000000000000000000000000000000000000001d845b2c98d2454dc40000000000000000000000000000000000000000000000000000000000000000000000000000000000000000000000000000000000000000000000000000000000000000000000000000000000000000000000000000000002fab71836c2fd1cc",
                    "logDecoded": true,
                    "operation": "EVENT",
                    "revert": false,
                    "status": true,
                    "topics": [
                        "0xd78ad95fa46c994b6551d0da85fc275fe613ce37657fb8d5e3d130840159d822",
                        "0x000000000000000000000000000000000dfde7deaf24138722987c9a6991e2d4",
                        "0x000000000000000000000000000000000dfde7deaf24138722987c9a6991e2d4"
                    ]
                },
                "nodeType": 1
            },
            "2": {
                "invocation": {
                    "address": "0x1a4b46696b2bb4794eb3d4c26f1c55f9170fa4c5",
                    "callData": "0x000000000000000000000000e12af1218b4e9272e9628d7c7dc6354d137d024e0000000000000000000000000000000000000000000001d845b2c98d2454dc40",
                    "decodedMethod": {
                        "callParams": [
                            {
                                "name": "recipient",
                                "type": "address",
                                "value": "0xe12af1218b4e9272e9628d7c7dc6354d137d024e"
                            },
                            {
                                "decimalAvailable": true,
                                "name": "amount",
                                "type": "uint256",
                                "value": "8,711,885,500,933,417,000,000"
                            }
                        ],
                        "constructorArguments": "",
                        "name": "transfer",
                        "returnParams": [
                            {
                                "name": "",
                                "type": "bool",
                                "value": true
                            }
                        ],
                        "signature": "transfer(address,uint256)"
                    },
                    "errorInfo": "",
                    "fromAddress": "0x000000000dfde7deaf24138722987c9a6991e2d4",
                    "gasUsed": 25361,
                    "id": 2,
                    "methodDecoded": true,
                    "operation": "CALL",
                    "output": "0x0000000000000000000000000000000000000000000000000000000000000001",
                    "revert": false,
                    "revertMessage": "",
                    "selector": "0xa9059cbb",
                    "status": true,
                    "value": "0"
                },
                "nodeType": 0
            },
            "3": {
                "event": {
                    "contract": "0x1a4b46696b2bb4794eb3d4c26f1c55f9170fa4c5",
                    "decodedLog": {
                        "name": "Transfer",
                        "params": [
                            {
                                "name": "from",
                                "type": "address",
                                "value": "0x000000000dfde7deaf24138722987c9a6991e2d4"
                            },
                            {
                                "name": "to",
                                "type": "address",
                                "value": "0xe12af1218b4e9272e9628d7c7dc6354d137d024e"
                            },
                            {
                                "decimalAvailable": true,
                                "name": "value",
                                "type": "uint256",
                                "value": "8,711,885,500,933,417,000,000"
                            }
                        ],
                        "signature": "Transfer(address,address,uint256)"
                    },
                    "id": 3,
                    "logData": "0x0000000000000000000000000000000000000000000001d845b2c98d2454dc40",
                    "logDecoded": true,
                    "operation": "EVENT",
                    "revert": false,
                    "status": true,
                    "topics": [
                        "0xddf252ad1be2c89b69c2b068fc378daa952ba7f163c4a11628f55a4df523b3ef",
                        "0x000000000000000000000000000000000dfde7deaf24138722987c9a6991e2d4",
                        "0x000000000000000000000000e12af1218b4e9272e9628d7c7dc6354d137d024e"
                    ]
                },
                "nodeType": 1
            },
            "4": {
                "invocation": {
                    "address": "0xe12af1218b4e9272e9628d7c7dc6354d137d024e",
                    "callData": "0x00000000000000000000000000000000000000000000000000000000000000000000000000000000000000000000000000000000000000002fab71836c2fd1cc000000000000000000000000000000000dfde7deaf24138722987c9a6991e2d400000000000000000000000000000000000000000000000000000000000000800000000000000000000000000000000000000000000000000000000000000000",
                    "decodedMethod": {
                        "callParams": [
                            {
                                "name": "amount0Out",
                                "type": "uint256",
                                "value": "0"
                            },
                            {
                                "name": "amount1Out",
                                "type": "uint256",
                                "value": "3,434,963,950,069,862,860"
                            },
                            {
                                "name": "to",
                                "type": "address",
                                "value": "0x000000000dfde7deaf24138722987c9a6991e2d4"
                            },
                            {
                                "name": "data",
                                "type": "bytes",
                                "value": "0x"
                            }
                        ],
                        "constructorArguments": "",
                        "name": "swap",
                        "returnParams": [],
                        "signature": "swap(uint256,uint256,address,bytes)"
                    },
                    "errorInfo": "",
                    "fromAddress": "0x000000000dfde7deaf24138722987c9a6991e2d4",
                    "gasUsed": 48178,
                    "id": 4,
                    "methodDecoded": true,
                    "operation": "CALL",
                    "output": "",
                    "revert": false,
                    "revertMessage": "",
                    "selector": "0x022c0d9f",
                    "status": true,
                    "value": "0"
                },
                "nodeType": 0
            },
            "5": {
                "invocation": {
                    "address": "0xc02aaa39b223fe8d0a0e5c4f27ead9083c756cc2",
                    "callData": "0x000000000000000000000000000000000dfde7deaf24138722987c9a6991e2d40000000000000000000000000000000000000000000000002fab71836c2fd1cc",
                    "decodedMethod": {
                        "callParams": [
                            {
                                "name": "dst",
                                "type": "address",
                                "value": "0x000000000dfde7deaf24138722987c9a6991e2d4"
                            },
                            {
                                "decimalAvailable": true,
                                "name": "wad",
                                "type": "uint256",
                                "value": "3,434,963,950,069,862,860"
                            }
                        ],
                        "constructorArguments": "",
                        "name": "transfer",
                        "returnParams": [
                            {
                                "name": "",
                                "type": "bool",
                                "value": true
                            }
                        ],
                        "signature": "transfer(address,uint256)"
                    },
                    "errorInfo": "",
                    "fromAddress": "0xe12af1218b4e9272e9628d7c7dc6354d137d024e",
                    "gasUsed": 12862,
                    "id": 5,
                    "methodDecoded": true,
                    "operation": "CALL",
                    "output": "0x0000000000000000000000000000000000000000000000000000000000000001",
                    "revert": false,
                    "revertMessage": "",
                    "selector": "0xa9059cbb",
                    "status": true,
                    "value": "0"
                },
                "nodeType": 0
            },
            "6": {
                "event": {
                    "contract": "0xc02aaa39b223fe8d0a0e5c4f27ead9083c756cc2",
                    "decodedLog": {
                        "name": "Transfer",
                        "params": [
                            {
                                "name": "src",
                                "type": "address",
                                "value": "0xe12af1218b4e9272e9628d7c7dc6354d137d024e"
                            },
                            {
                                "name": "dst",
                                "type": "address",
                                "value": "0x000000000dfde7deaf24138722987c9a6991e2d4"
                            },
                            {
                                "decimalAvailable": true,
                                "name": "wad",
                                "type": "uint256",
                                "value": "3,434,963,950,069,862,860"
                            }
                        ],
                        "signature": "Transfer(address,address,uint256)"
                    },
                    "id": 6,
                    "logData": "0x0000000000000000000000000000000000000000000000002fab71836c2fd1cc",
                    "logDecoded": true,
                    "operation": "EVENT",
                    "revert": false,
                    "status": true,
                    "topics": [
                        "0xddf252ad1be2c89b69c2b068fc378daa952ba7f163c4a11628f55a4df523b3ef",
                        "0x000000000000000000000000e12af1218b4e9272e9628d7c7dc6354d137d024e",
                        "0x000000000000000000000000000000000dfde7deaf24138722987c9a6991e2d4"
                    ]
                },
                "nodeType": 1
            },
            "7": {
                "invocation": {
                    "address": "0x1a4b46696b2bb4794eb3d4c26f1c55f9170fa4c5",
                    "callData": "0x000000000000000000000000e12af1218b4e9272e9628d7c7dc6354d137d024e",
                    "decodedMethod": {
                        "callParams": [
                            {
                                "name": "account",
                                "type": "address",
                                "value": "0xe12af1218b4e9272e9628d7c7dc6354d137d024e"
                            }
                        ],
                        "constructorArguments": "",
                        "name": "balanceOf",
                        "returnParams": [
                            {
                                "decimalAvailable": true,
                                "name": "",
                                "type": "uint256",
                                "value": "13,259,733,074,002,104,575,481,189"
                            }
                        ],
                        "signature": "balanceOf(address)"
                    },
                    "errorInfo": "",
                    "fromAddress": "0xe12af1218b4e9272e9628d7c7dc6354d137d024e",
                    "gasUsed": 586,
                    "id": 7,
                    "methodDecoded": true,
                    "operation": "STATICCALL",
                    "output": "0x0000000000000000000000000000000000000000000af7db91fd402d560e5565",
                    "revert": false,
                    "revertMessage": "",
                    "selector": "0x70a08231",
                    "status": true,
                    "value": "0"
                },
                "nodeType": 0
            },
            "8": {
                "invocation": {
                    "address": "0xc02aaa39b223fe8d0a0e5c4f27ead9083c756cc2",
                    "callData": "0x000000000000000000000000e12af1218b4e9272e9628d7c7dc6354d137d024e",
                    "decodedMethod": {
                        "callParams": [
                            {
                                "name": "",
                                "type": "address",
                                "value": "0xe12af1218b4e9272e9628d7c7dc6354d137d024e"
                            }
                        ],
                        "constructorArguments": "",
                        "name": "balanceOf",
                        "returnParams": [
                            {
                                "decimalAvailable": true,
                                "name": "",
                                "type": "uint256",
                                "value": "5,240,397,305,858,309,134,641"
                            }
                        ],
                        "signature": "balanceOf(address)"
                    },
                    "errorInfo": "",
                    "fromAddress": "0xe12af1218b4e9272e9628d7c7dc6354d137d024e",
                    "gasUsed": 534,
                    "id": 8,
                    "methodDecoded": true,
                    "operation": "STATICCALL",
                    "output": "0x00000000000000000000000000000000000000000000011c151f30dcfe929931",
                    "revert": false,
                    "revertMessage": "",
                    "selector": "0x70a08231",
                    "status": true,
                    "value": "0"
                },
                "nodeType": 0
            },
            "9": {
                "event": {
                    "contract": "0xe12af1218b4e9272e9628d7c7dc6354d137d024e",
                    "decodedLog": {
                        "name": "Sync",
                        "params": [
                            {
                                "name": "reserve0",
                                "type": "uint112",
                                "value": "13,259,733,074,002,104,575,481,189"
                            },
                            {
                                "name": "reserve1",
                                "type": "uint112",
                                "value": "5,240,397,305,858,309,134,641"
                            }
                        ],
                        "signature": "Sync(uint112,uint112)"
                    },
                    "id": 9,
                    "logData": "0x0000000000000000000000000000000000000000000af7db91fd402d560e556500000000000000000000000000000000000000000000011c151f30dcfe929931",
                    "logDecoded": true,
                    "operation": "EVENT",
                    "revert": false,
                    "status": true,
                    "topics": [
                        "0x1c411e9a96e071241c2f21f7726b17ae89e3cab4c78be50e062b03a9fffbbad1"
                    ]
                },
                "nodeType": 1
            }
        },
        "gasFlame": [
            {
                "children": [
                    {
                        "children": [
                            {
                                "children": [],
                                "depth": 0,
                                "name": "Initial Gas",
                                "value": 22640
                            },
                            {
                                "children": [
                                    {
                                        "children": [],
                                        "depth": 1,
                                        "name": "getReserves",
                                        "value": 2517
                                    },
                                    {
                                        "children": [],
                                        "depth": 1,
                                        "name": "transfer",
                                        "value": 25361
                                    },
                                    {
                                        "children": [
                                            {
                                                "children": [],
                                                "depth": 2,
                                                "name": "transfer",
                                                "value": 12862
                                            },
                                            {
                                                "children": [],
                                                "depth": 2,
                                                "name": "balanceOf",
                                                "value": 586
                                            },
                                            {
                                                "children": [],
                                                "depth": 2,
                                                "name": "balanceOf",
                                                "value": 534
                                            }
                                        ],
                                        "depth": 1,
                                        "name": "swap",
                                        "value": 48178
                                    }
                                ],
                                "depth": 0,
                                "name": "Executed Gas",
                                "value": 86779
                            }
                        ],
                        "depth": -1,
                        "name": "Actual Gas Used",
                        "value": 106619
                    },
                    {
                        "children": [],
                        "depth": -1,
                        "name": "Refunded Gas",
                        "value": 2800
                    }
                ],
                "depth": -2,
                "name": "Total Gas",
                "value": 109419
            }
        ],
        "isConfirmed": true,
        "mainTrace": [
            {
                "children": [
                    {
                        "children": [
                            {
                                "children": [],
                                "depth": 1,
                                "id": 1,
                                "order": 1
                            },
                            {
                                "children": [
                                    {
                                        "children": [],
                                        "depth": 2,
                                        "id": 3,
                                        "order": 3
                                    }
                                ],
                                "depth": 1,
                                "id": 2,
                                "order": 2
                            },
                            {
                                "children": [
                                    {
                                        "children": [
                                            {
                                                "children": [],
                                                "depth": 3,
                                                "id": 6,
                                                "order": 6
                                            }
                                        ],
                                        "depth": 2,
                                        "id": 5,
                                        "order": 5
                                    },
                                    {
                                        "children": [],
                                        "depth": 2,
                                        "id": 7,
                                        "order": 7
                                    },
                                    {
                                        "children": [],
                                        "depth": 2,
                                        "id": 8,
                                        "order": 8
                                    },
                                    {
                                        "children": [],
                                        "depth": 2,
                                        "id": 9,
                                        "order": 9
                                    },
                                    {
                                        "children": [],
                                        "depth": 2,
                                        "id": 10,
                                        "order": 10
                                    }
                                ],
                                "depth": 1,
                                "id": 4,
                                "order": 4
                            }
                        ],
                        "depth": 0,
                        "id": 0,
                        "order": 0
                    }
                ],
                "depth": -1,
                "id": -1,
                "order": -1
            }
        ],
        "mainTraceNodeCount": 11,
        "parentIdMap": {
            "0": -1,
            "1": 0,
            "10": 4,
            "2": 0,
            "3": 2,
            "4": 0,
            "5": 4,
            "6": 5,
            "7": 4,
            "8": 4,
            "9": 4
        },
        "tidyTrace": [
            {
                "children": [
                    {
                        "children": [
                            {
                                "children": [
                                    {
                                        "children": [],
                                        "depth": 2,
                                        "id": 3,
                                        "order": 3
                                    }
                                ],
                                "depth": 1,
                                "id": 2,
                                "order": 2
                            },
                            {
                                "children": [
                                    {
                                        "children": [
                                            {
                                                "children": [],
                                                "depth": 3,
                                                "id": 6,
                                                "order": 6
                                            }
                                        ],
                                        "depth": 2,
                                        "id": 5,
                                        "order": 5
                                    },
                                    {
                                        "children": [],
                                        "depth": 2,
                                        "id": 9,
                                        "order": 9
                                    },
                                    {
                                        "children": [],
                                        "depth": 2,
                                        "id": 10,
                                        "order": 10
                                    }
                                ],
                                "depth": 1,
                                "id": 4,
                                "order": 4
                            }
                        ],
                        "depth": 0,
                        "id": 0,
                        "order": 0
                    }
                ],
                "depth": -1,
                "id": -1,
                "order": -1
            }
        ],
        "tidyTraceNodeCount": 8
    },
    "state_change": {
        "stateChanges": [
            {
                "address": "0x1a4b46696b2bb4794eb3d4c26f1c55f9170fa4c5",
                "erc": "ERC-20",
                "slots": [
                    {
                        "current": "0x000000000000000000000000000000000000000000000f0ed7515f0ac982bc24",
                        "key": "0x35457c10b103ba41c8498c406c938178afb1e25d0ac6298889d4a5d85c2a2cfb",
                        "prev": "0x0000000000000000000000000000000000000000000010e71d042897edd79864"
                    },
                    {
                        "current": "0x0000000000000000000000000000000000000000000af7db91fd402d560e5565",
                        "key": "0x1e290a6d9caf6d8e059abe3fd0a2738d8783d6ad6fb641a3799c75fb9f564b97",
                        "prev": "0x0000000000000000000000000000000000000000000af6034c4a76a031b97925"
                    }
                ],
                "storageVariables": [
                    {
                        "name": "_balances",
                        "type": "mapping(address => uint256)",
                        "value": {
                            "pairs": [
                                {
                                    "key": "0x000000000dfde7deaf24138722987c9a6991e2d4",
                                    "value": {
                                        "current": "71109266946767815097380",
                                        "prev": "79821152447701232097380",
                                        "typeTag": 1
                                    }
                                },
                                {
                                    "key": "0xe12af1218b4e9272e9628d7c7dc6354d137d024e",
                                    "value": {
                                        "current": "13259733074002104575481189",
                                        "prev": "13251021188501171158481189",
                                        "typeTag": 1
                                    }
                                }
                            ],
                            "typeTag": 4
                        }
                    }
                ]
            },
            {
                "address": "0xc02aaa39b223fe8d0a0e5c4f27ead9083c756cc2",
                "erc": "ERC-20",
                "slots": [
                    {
                        "current": "0x000000000000000000000000000000000000000000000075388d28cccaa27fe6",
                        "key": "0xe720f529ad75d12e62163793ad8338e53487109d571a22578205c0eab4d15c35",
                        "prev": "0x00000000000000000000000000000000000000000000007508e1b7495e72ae1a"
                    },
                    {
                        "current": "0x00000000000000000000000000000000000000000000011c151f30dcfe929931",
                        "key": "0xb3a19241c59d23d1854271a033b407c3e76b45451c6a07edbe1aeee8de4f749e",
                        "prev": "0x00000000000000000000000000000000000000000000011c44caa2606ac26afd"
                    }
                ],
                "storageVariables": [
                    {
                        "name": "balanceOf",
                        "type": "mapping(address => uint256)",
                        "value": {
                            "pairs": [
                                {
                                    "key": "0x000000000dfde7deaf24138722987c9a6991e2d4",
                                    "value": {
                                        "current": "2162344014721895792614",
                                        "prev": "2158909050771825929754",
                                        "typeTag": 1
                                    }
                                },
                                {
                                    "key": "0xe12af1218b4e9272e9628d7c7dc6354d137d024e",
                                    "value": {
                                        "current": "5240397305858309134641",
                                        "prev": "5243832269808378997501",
                                        "typeTag": 1
                                    }
                                }
                            ],
                            "typeTag": 4
                        }
                    }
                ]
            },
            {
                "address": "0xe12af1218b4e9272e9628d7c7dc6354d137d024e",
                "erc": "ERC-20",
                "slots": [
                    {
                        "current": "0x628ab7a300000000011c151f30dcfe9299310000000af7db91fd402d560e5565",
                        "key": "0x0000000000000000000000000000000000000000000000000000000000000008",
                        "prev": "0x628ab76800000000011c44caa2606ac26afd0000000af6034c4a76a031b97925"
                    },
                    {
                        "current": "0x000000000000000000000000000000002e3004fcfc62d83b7c74fbcdd19a3f42",
                        "key": "0x0000000000000000000000000000000000000000000000000000000000000009",
                        "prev": "0x000000000000000000000000000000002e2fff02d859a1477571db8046b3976f"
                    },
                    {
                        "current": "0x000000000000000000000000000bbb8ba661a37e2f41fa523b189de34513f29b",
                        "key": "0x000000000000000000000000000000000000000000000000000000000000000a",
                        "prev": "0x000000000000000000000000000bbb895ffe3f420cf92769d98301ecbf947a2a"
                    }
                ],
                "storageVariables": [
                    {
                        "name": "reserve0",
                        "type": "uint112",
                        "value": {
                            "current": "13259733074002104575481189",
                            "prev": "13251021188501171158481189",
                            "typeTag": 1
                        }
                    },
                    {
                        "name": "reserve1",
                        "type": "uint112",
                        "value": {
                            "current": "5240397305858309134641",
                            "prev": "5243832269808378997501",
                            "typeTag": 1
                        }
                    },
                    {
                        "name": "blockTimestampLast",
                        "type": "uint32",
                        "value": {
                            "current": "1653258147",
                            "prev": "1653258088",
                            "typeTag": 1
                        }
                    },
                    {
                        "name": "price0CumulativeLast",
                        "type": "uint256",
                        "value": {
                            "current": "61393819228560888414826818748179693378",
                            "prev": "61393697998319641395144434442688501615",
                            "typeTag": 1
                        }
                    },
                    {
                        "name": "price1CumulativeLast",
                        "type": "uint256",
                        "value": {
                            "current": "261645715060894156839575929251836568163054235",
                            "prev": "261644940934130215762944964533246770998966826",
                            "typeTag": 1
                        }
                    }
                ]
            }
        ]
    }
}