{
    "balance_change": {
        "balanceChanges": [
            {
                "account": "0x3a8ba4fab82428656cb42eb489f6210034f6ad66",
                "assets": [
                    {
                        "address": "0x3fd36d72f05fb1af76ee7ce9257ca850faba91ed",
                        "amount": "1",
                        "iconUrl": "",
                        "isERC1155": false,
                        "isERC721": true,
                        "sign": false,
                        "tokenID": "5041",
                        "value": ""
                    }
                ]
            },
            {
                "account": "0xbda96c33e0918f741816fee6c0c159ea0f622da3",
                "assets": [
                    {
                        "address": "0x3fd36d72f05fb1af76ee7ce9257ca850faba91ed",
                        "amount": "1",
                        "iconUrl": "",
                        "isERC1155": false,
                        "isERC721": true,
                        "sign": true,
                        "tokenID": "5041",
                        "value": ""
                    }
                ]
            }
        ]
    },
    "profile": {
        "basic_info": {
            "baseFee": "1.307713579",
            "blockNumber": 20254131,
            "callData": "0x32389b7100000000000000000000000000000000000000000000000000000000000000400000007b02230091a7ed01230072f7006a004d60a8d4e71d599b8104250f0000000000000000000000000000000000000000000000000000000000000000000100000000000000000000000000000000000000000000000000000000000000200000000000000000000000000000000000000000000000000000000000000060000000000000000000000000bda96c33e0918f741816fee6c0c159ea0f622da30000000000000000000000000000000000000000000000000000000000000001000000000000000000000000000000000000000000000000000000000000000100000000000000000000000000000000000000000000000000000000000000020000000000000000000000003fd36d72f05fb1af76ee7ce9257ca850faba91ed00000000000000000000000000000000000000000000000000000000000013b10000000000000000000000000000000000000000000000000000000000000001",
            "debugEnable": true,
            "errorInfo": "",
            "eventCount": 2,
            "feeRecipient": "0x95222290dd7278aa3ddd389cc1e1d165cc4bafe5",
            "formatValue": "0",
            "gasLimit": 91933,
            "gasPrice": "1.416523804",
            "gasUsed": 64541,
            "intTxnCount": 2,
            "internalRevert": false,
            "internalRevertMessage": "",
            "isContractCreation": false,
            "isFlashloan": false,
            "maxFee": "1.999689035",
            "nonce": 2,
            "overwritedBlockNumber": -1,
            "priorityFee": "0.108810225",
            "receiver": "0x0000000000c2d145a2526bd8c716263bfebe1a72",
            "revertMessage": "",
            "sender": "0x3a8ba4fab82428656cb42eb489f6210034f6ad66",
            "simulationEnable": true,
            "sourceTxnHash": "0x12908d01c2eaa29657e36c1155a11b4952f884f4a1b5fb6d1111adf328299b28",
            "status": true,
            "timestamp": "2024-07-07T10:47:23Z",
            "transactionFee": "0.000091423862833964",
            "txnHash": "0x12908d01c2eaa29657e36c1155a11b4952f884f4a1b5fb6d1111adf328299b28",
            "txnIndex": 139,
            "type": 2,
            "value": "0"
        },
        "fund_flow": [
            {
                "amount": "1",
                "from": "0x3a8ba4fab82428656cb42eb489f6210034f6ad66",
                "id": 1,
                "isERC1155": false,
                "isERC721": true,
                "isReverted": false,
                "order": 1,
                "to": "0xbda96c33e0918f741816fee6c0c159ea0f622da3",
                "token": "0x3fd36d72f05fb1af76ee7ce9257ca850faba91ed",
                "tokenID": "5041"
            }
        ],
        "token_infos": [
            {
                "address": "0xc02aaa39b223fe8d0a0e5c4f27ead9083c756cc2",
                "decimals": 18
            },
            {
                "address": "0xeeeeeeeeeeeeeeeeeeeeeeeeeeeeeeeeeeeeeeee",
                "decimals": 18
            }
        ]
    },
    "address_label": {
        "labels": [
            {
                "address": "0x1e0049783f008a0085193e00003d00cd54003c71",
                "label": "OpenSea: Conduit"
            },
            {
                "address": "0x3fd36d72f05fb1af76ee7ce9257ca850faba91ed",
                "label": "ElectricSheep: ES Token"
            },
            {
                "address": "0x0000000000000000000000000000000000000001",
                "label": "Precompiled"
            },
            {
                "address": "0x0000000000000000000000000000000000000002",
                "label": "Precompiled"
            },
            {
                "address": "0x0000000000000000000000000000000000000003",
                "label": "Precompiled"
            },
            {
                "address": "0x0000000000000000000000000000000000000004",
                "label": "Precompiled"
            },
            {
                "address": "0xeeeeeeeeeeeeeeeeeeeeeeeeeeeeeeeeeeeeeeee",
                "label": "Ether"
            },
            {
                "address": "0x0000000000c2d145a2526bd8c716263bfebe1a72",
                "label": "OpenSea: Transfer Helper"
            }
        ]
    },
    "trace": {
        "accountLabels": null,
        "dataMap": {
            "-1": {
                "invocation": {
                    "address": "0x3a8ba4fab82428656cb42eb489f6210034f6ad66",
                    "callData": "",
                    "decodedMethod": null,
                    "errorInfo": "",
                    "fromAddress": "",
                    "gasUsed": 0,
                    "id": -1,
                    "methodDecoded": false,
                    "operation": "",
                    "output": "",
                    "revert": false,
                    "revertMessage": "",
                    "selector": "",
                    "status": false,
                    "value": ""
                },
                "nodeType": 0
            },
            "0": {
                "invocation": {
                    "address": "0x0000000000c2d145a2526bd8c716263bfebe1a72",
                    "callData": "0x00000000000000000000000000000000000000000000000000000000000000400000007b02230091a7ed01230072f7006a004d60a8d4e71d599b8104250f0000000000000000000000000000000000000000000000000000000000000000000100000000000000000000000000000000000000000000000000000000000000200000000000000000000000000000000000000000000000000000000000000060000000000000000000000000bda96c33e0918f741816fee6c0c159ea0f622da30000000000000000000000000000000000000000000000000000000000000001000000000000000000000000000000000000000000000000000000000000000100000000000000000000000000000000000000000000000000000000000000020000000000000000000000003fd36d72f05fb1af76ee7ce9257ca850faba91ed00000000000000000000000000000000000000000000000000000000000013b10000000000000000000000000000000000000000000000000000000000000001",
                    "decodedMethod": {
                        "callParams": [
                            {
                                "name": "items",
                                "type": "((uint8,address,uint256,uint256)[],address,bool)[]",
                                "value": [
                                    [
                                        {
                                            "name": "items",
                                            "type": "(uint8,address,uint256,uint256)[]",
                                            "value": [
                                                [
                                                    {
                                                        "name": "itemType",
                                                        "type": "uint8",
                                                        "value": "2"
                                                    },
                                                    {
                                                        "name": "token",
                                                        "type": "address",
                                                        "value": "0x3fd36d72f05fb1af76ee7ce9257ca850faba91ed"
                                                    },
                                                    {
                                                        "name": "identifier",
                                                        "type": "uint256",
                                                        "value": "5,041"
                                                    },
                                                    {
                                                        "name": "amount",
                                                        "type": "uint256",
                                                        "value": "1"
                                                    }
                                                ]
                                            ]
                                        },
                                        {
                                            "name": "recipient",
                                            "type": "address",
                                            "value": "0xbda96c33e0918f741816fee6c0c159ea0f622da3"
                                        },
                                        {
                                            "name": "validateERC721Receiver",
                                            "type": "bool",
                                            "value": true
                                        }
                                    ]
                                ]
                            },
                            {
                                "name": "conduitKey",
                                "type": "bytes32",
                                "value": "0x0000007b02230091a7ed01230072f7006a004d60a8d4e71d599b8104250f0000"
                            }
                        ],
                        "constructorArguments": "",
                        "name": "bulkTransfer",
                        "returnParams": [
                            {
                                "name": "magicValue",
                                "type": "bytes4",
                                "value": "0x32389b71"
                            }
                        ],
                        "signature": "bulkTransfer(((uint8,address,uint256,uint256)[],address,bool)[],bytes32)"
                    },
                    "errorInfo": "",
                    "fromAddress": "0x3a8ba4fab82428656cb42eb489f6210034f6ad66",
                    "gasUsed": 64541,
                    "id": 0,
                    "methodDecoded": true,
                    "operation": "CALL",
                    "output": "0x32389b7100000000000000000000000000000000000000000000000000000000",
                    "revert": false,
                    "revertMessage": "",
                    "selector": "0x32389b71",
                    "status": true,
                    "value": "0"
                },
                "nodeType": 0
            },
            "1": {
                "invocation": {
                    "address": "0x1e0049783f008a0085193e00003d00cd54003c71",
                    "callData": "0x0000000000000000000000000000000000000000000000000000000000000020000000000000000000000000000000000000000000000000000000000000000100000000000000000000000000000000000000000000000000000000000000020000000000000000000000003fd36d72f05fb1af76ee7ce9257ca850faba91ed0000000000000000000000003a8ba4fab82428656cb42eb489f6210034f6ad66000000000000000000000000bda96c33e0918f741816fee6c0c159ea0f622da300000000000000000000000000000000000000000000000000000000000013b10000000000000000000000000000000000000000000000000000000000000001",
                    "decodedMethod": {
                        "callParams": [
                            {
                                "name": "transfers",
                                "type": "(uint8,address,address,address,uint256,uint256)[]",
                                "value": [
                                    [
                                        {
                                            "name": "itemType",
                                            "type": "uint8",
                                            "value": "2"
                                        },
                                        {
                                            "name": "token",
                                            "type": "address",
                                            "value": "0x3fd36d72f05fb1af76ee7ce9257ca850faba91ed"
                                        },
                                        {
                                            "name": "from",
                                            "type": "address",
                                            "value": "0x3a8ba4fab82428656cb42eb489f6210034f6ad66"
                                        },
                                        {
                                            "name": "to",
                                            "type": "address",
                                            "value": "0xbda96c33e0918f741816fee6c0c159ea0f622da3"
                                        },
                                        {
                                            "name": "identifier",
                                            "type": "uint256",
                                            "value": "5,041"
                                        },
                                        {
                                            "name": "amount",
                                            "type": "uint256",
                                            "value": "1"
                                        }
                                    ]
                                ]
                            }
                        ],
                        "constructorArguments": "",
                        "name": "execute",
                        "returnParams": [
                            {
                                "name": "magicValue",
                                "type": "bytes4",
                                "value": "0x4ce34aa2"
                            }
                        ],
                        "signature": "execute((uint8,address,address,address,uint256,uint256)[])"
                    },
                    "errorInfo": "",
                    "fromAddress": "0x0000000000c2d145a2526bd8c716263bfebe1a72",
                    "gasUsed": 36364,
                    "id": 1,
                    "methodDecoded": true,
                    "operation": "CALL",
                    "output": "0x4ce34aa200000000000000000000000000000000000000000000000000000000",
                    "revert": false,
                    "revertMessage": "",
                    "selector": "0x4ce34aa2",
                    "status": true,
                    "value": "0"
                },
                "nodeType": 0
            },
            "2": {
                "invocation": {
                    "address": "0x3fd36d72f05fb1af76ee7ce9257ca850faba91ed",
                    "callData": "0x0000000000000000000000003a8ba4fab82428656cb42eb489f6210034f6ad66000000000000000000000000bda96c33e0918f741816fee6c0c159ea0f622da300000000000000000000000000000000000000000000000000000000000013b1",
                    "decodedMethod": {
                        "callParams": [
                            {
                                "name": "from",
                                "type": "address",
                                "value": "0x3a8ba4fab82428656cb42eb489f6210034f6ad66"
                            },
                            {
                                "name": "to",
                                "type": "address",
                                "value": "0xbda96c33e0918f741816fee6c0c159ea0f622da3"
                            },
                            {
                                "decimalAvailable": true,
                                "name": "tokenId",
                                "type": "uint256",
                                "value": "5,041"
                            }
                        ],
                        "constructorArguments": "",
                        "name": "transferFrom",
                        "returnParams": [],
                        "signature": "transferFrom(address,address,uint256)"
                    },
                    "errorInfo": "",
                    "fromAddress": "0x1e0049783f008a0085193e00003d00cd54003c71",
                    "gasUsed": 30248,
                    "id": 2,
                    "methodDecoded": true,
                    "operation": "CALL",
                    "output": "",
                    "revert": false,
                    "revertMessage": "",
                    "selector": "0x23b872dd",
                    "status": true,
                    "value": "0"
                },
                "nodeType": 0
            },
            "3": {
                "event": {
                    "contract": "0x3fd36d72f05fb1af76ee7ce9257ca850faba91ed",
                    "decodedLog": {
                        "name": "Approval",
                        "params": [
                            {
                                "name": "owner",
                                "type": "address",
                                "value": "0x3a8ba4fab82428656cb42eb489f6210034f6ad66"
                            },
                            {
                                "name": "approved",
                                "type": "address",
                                "value": "0x0000000000000000000000000000000000000000"
                            },
                            {
                                "decimalAvailable": true,
                                "name": "tokenId",
                                "type": "uint256",
                                "value": "5,041"
                            }
                        ],
                        "signature": "Approval(address,address,uint256)"
                    },
                    "id": 3,
                    "logData": "0x",
                    "logDecoded": true,
                    "operation": "EVENT",
                    "revert": false,
                    "status": true,
                    "topics": [
                        "0x8c5be1e5ebec7d5bd14f71427d1e84f3dd0314c0f7b2291e5b200ac8c7c3b925",
                        "0x0000000000000000000000003a8ba4fab82428656cb42eb489f6210034f6ad66",
                        "0x0000000000000000000000000000000000000000000000000000000000000000",
                        "0x00000000000000000000000000000000000000000000000000000000000013b1"
                    ]
                },
                "nodeType": 1
            },
            "4": {
                "event": {
                    "contract": "0x3fd36d72f05fb1af76ee7ce9257ca850faba91ed",
                    "decodedLog": {
                        "name": "Transfer",
                        "params": [
                            {
                                "name": "from",
                                "type": "address",
                                "value": "0x3a8ba4fab82428656cb42eb489f6210034f6ad66"
                            },
                            {
                                "name": "to",
                                "type": "address",
                                "value": "0xbda96c33e0918f741816fee6c0c159ea0f622da3"
                            },
                            {
                                "decimalAvailable": true,
                                "name": "tokenId",
                                "type": "uint256",
                                "value": "5,041"
                            }
                        ],
                        "signature": "Transfer(address,address,uint256)"
                    },
                    "id": 4,
                    "logData": "0x",
                    "logDecoded": true,
                    "operation": "EVENT",
                    "revert": false,
                    "status": true,
                    "topics": [
                        "0xddf252ad1be2c89b69c2b068fc378daa952ba7f163c4a11628f55a4df523b3ef",
                        "0x0000000000000000000000003a8ba4fab82428656cb42eb489f6210034f6ad66",
                        "0x000000000000000000000000bda96c33e0918f741816fee6c0c159ea0f622da3",
                        "0x00000000000000000000000000000000000000000000000000000000000013b1"
                    ]
                },
                "nodeType": 1
            }
        },
        "gasFlame": [
            {
                "children": [
                    {
                        "children": [
                            {
                                "children": [],
                                "depth": 0,
                                "name": "Initial Gas",
                                "value": 23476
                            },
                            {
                                "children": [
                                    {
                                        "children": [
                                            {
                                                "children": [],
                                                "depth": 2,
                                                "name": "transferFrom",
                                                "value": 30248
                                            }
                                        ],
                                        "depth": 1,
                                        "name": "execute",
                                        "value": 36364
                                    }
                                ],
                                "depth": 0,
                                "name": "Executed Gas",
                                "value": 45865
                            }
                        ],
                        "depth": -1,
                        "name": "Actual Gas Used",
                        "value": 64541
                    },
                    {
                        "children": [],
                        "depth": -1,
                        "name": "Refunded Gas",
                        "value": 4800
                    }
                ],
                "depth": -2,
                "name": "Total Gas",
                "value": 69341
            }
        ],
        "isConfirmed": true,
        "mainTrace": [
            {
                "children": [
                    {
                        "children": [
                            {
                                "children": [
                                    {
                                        "children": [
                                            {
                                                "children": [],
                                                "depth": 3,
                                                "id": 3,
                                                "order": 3
                                            },
                                            {
                                                "children": [],
                                                "depth": 3,
                                                "id": 4,
                                                "order": 4
                                            }
                                        ],
                                        "depth": 2,
                                        "id": 2,
                                        "order": 2
                                    }
                                ],
                                "depth": 1,
                                "id": 1,
                                "order": 1
                            }
                        ],
                        "depth": 0,
                        "id": 0,
                        "order": 0
                    }
                ],
                "depth": -1,
                "id": -1,
                "order": -1
            }
        ],
        "mainTraceNodeCount": 5,
        "parentIdMap": {
            "0": -1,
            "1": 0,
            "2": 1,
            "3": 2,
            "4": 2
        },
        "tidyTrace": [
            {
                "children": [
                    {
                        "children": [
                            {
                                "children": [
                                    {
                                        "children": [
                                            {
                                                "children": [],
                                                "depth": 3,
                                                "id": 3,
                                                "order": 3
                                            },
                                            {
                                                "children": [],
                                                "depth": 3,
                                                "id": 4,
                                                "order": 4
                                            }
                                        ],
                                        "depth": 2,
                                        "id": 2,
                                        "order": 2
                                    }
                                ],
                                "depth": 1,
                                "id": 1,
                                "order": 1
                            }
                        ],
                        "depth": 0,
                        "id": 0,
                        "order": 0
                    }
                ],
                "depth": -1,
                "id": -1,
                "order": -1
            }
        ],
        "tidyTraceNodeCount": 5
    },
    "state_change": {
        "stateChanges": [
            {
                "address": "0x3fd36d72f05fb1af76ee7ce9257ca850faba91ed",
                "erc": "ERC-721",
                "slots": [
                    {
                        "current": "0x0000000000000000000000000000000000000000000000000000000000000000",
                        "key": "0x2735f1a302d3db9c56aaf33830955ff4183b1096b8f8d5508459181685e21890",
                        "prev": "0x0000000000000000000000000000000000000000000000000000000000000001"
                    },
                    {
                        "current": "0x0000000000000000000000000000000000000000000000000000000000000005",
                        "key": "0x60068b9fb4b9dfbe85976263538b09a9edb076e201c86d4ffbf48b8d3b19de94",
                        "prev": "0x0000000000000000000000000000000000000000000000000000000000000004"
                    },
                    {
                        "current": "0x000000000000000000000000bda96c33e0918f741816fee6c0c159ea0f622da3",
                        "key": "0xefd62920fd806f916296e30779383bca90a1eb172548e3a0e727b601f9edcdd1",
                        "prev": "0x0000000000000000000000003a8ba4fab82428656cb42eb489f6210034f6ad66"
                    }
                ],
                "storageVariables": [
                    {
                        "name": "_owners",
                        "type": "mapping(uint256 => address)",
                        "value": {
                            "pairs": [
                                {
                                    "key": "5041",
                                    "value": {
                                        "current": "0xbda96c33e0918f741816fee6c0c159ea0f622da3",
                                        "prev": "0x3a8ba4fab82428656cb42eb489f6210034f6ad66",
                                        "typeTag": 1
                                    }
                                }
                            ],
                            "typeTag": 4
                        }
                    },
                    {
                        "name": "_balances",
                        "type": "mapping(address => uint256)",
                        "value": {
                            "pairs": [
                                {
                                    "key": "0x3a8ba4fab82428656cb42eb489f6210034f6ad66",
                                    "value": {
                                        "current": "0",
                                        "prev": "1",
                                        "typeTag": 1
                                    }
                                },
                                {
                                    "key": "0xbda96c33e0918f741816fee6c0c159ea0f622da3",
                                    "value": {
                                        "current": "5",
                                        "prev": "4",
                                        "typeTag": 1
                                    }
                                }
                            ],
                            "typeTag": 4
                        }
                    }
                ]
            }
        ]
    }
}