{
    "balance_change": {
        "balanceChanges": [
            {
                "account": "0x25fc59e97618553367f3840ae5bf12b5e5057d5a",
                "assets": [
                    {
                        "address": "0xd850942ef8811f2a866692a623011bde52a462c1",
                        "amount": "450",
                        "iconUrl": "https://assets.blocksec.com/icon/7f2e21b6d80840ce19582c227c84ccaf9799adac6a8fd2ac081b2a79cc5e8dfd.png",
                        "isERC1155": false,
                        "isERC721": false,
                        "sign": false,
                        "value": ""
                    },
                    {
                        "address": "0xeeeeeeeeeeeeeeeeeeeeeeeeeeeeeeeeeeeeeeee",
                        "amount": "0.111801242236024844",
                        "iconUrl": "https://assets.blocksec.com/image/1663669189317-3.png",
                        "isERC1155": false,
                        "isERC721": false,
                        "sign": true,
                        "value": ""
                    }
                ]
            },
            {
                "account": "0xbcb03c4b10f04e568abf88df136f579038dd0ef1",
                "assets": [
                    {
                        "address": "0xd850942ef8811f2a866692a623011bde52a462c1",
                        "amount": "450",
                        "iconUrl": "https://assets.blocksec.com/icon/7f2e21b6d80840ce19582c227c84ccaf9799adac6a8fd2ac081b2a79cc5e8dfd.png",
                        "isERC1155": false,
                        "isERC721": false,
                        "sign": true,
                        "value": ""
                    },
                    {
                        "address": "0xeeeeeeeeeeeeeeeeeeeeeeeeeeeeeeeeeeeeeeee",
                        "amount": "0.111801242236024844",
                        "iconUrl": "https://assets.blocksec.com/image/1663669189317-3.png",
                        "isERC1155": false,
                        "isERC721": false,
                        "sign": false,
                        "value": ""
                    }
                ]
            }
        ]
    },
    "profile": {
        "basic_info": {
            "baseFee": "",
            "blockNumber": 4306580,
            "callData": "0xcae9ca51000000000000000000000000bcb03c4b10f04e568abf88df136f579038dd0ef1000000000000000000000000000000000000000000000018650127cc3dc8000000000000000000000000000000000000000000000000000000000000000000600000000000000000000000000000000000000000000000000000000000000000",
            "debugEnable": true,
            "errorInfo": "",
            "eventCount": 3,
            "feeRecipient": "0x4bb96091ee9d802ed039c4d1a5f6216f90f81b01",
            "formatValue": "0",
            "gasLimit": 150000,
            "gasPrice": "30",
            "gasUsed": 79090,
            "intTxnCount": 4,
            "internalRevert": false,
            "internalRevertMessage": "",
            "isContractCreation": false,
            "isFlashloan": false,
            "maxFee": "",
            "nonce": 19,
            "overwritedBlockNumber": -1,
            "priorityFee": "",
            "receiver": "0xd850942ef8811f2a866692a623011bde52a462c1",
            "revertMessage": "",
            "sender": "0x25fc59e97618553367f3840ae5bf12b5e5057d5a",
            "simulationEnable": true,
            "sourceTxnHash": "0x13e7dddb73d739543729aca3292f2dc9d66211d0670724a91c9fdd3deb81502f",
            "status": true,
            "timestamp": "2017-09-24T05:03:51Z",
            "transactionFee": "0.0023727",
            "txnHash": "0x13e7dddb73d739543729aca3292f2dc9d66211d0670724a91c9fdd3deb81502f",
            "txnIndex": 38,
            "type": 0,
            "value": "0"
        },
        "fund_flow": [
            {
                "amount": "450",
                "from": "0x25fc59e97618553367f3840ae5bf12b5e5057d5a",
                "id": 1,
                "isERC1155": false,
                "isERC721": false,
                "isReverted": false,
                "order": 1,
                "to": "0xbcb03c4b10f04e568abf88df136f579038dd0ef1",
                "token": "0xd850942ef8811f2a866692a623011bde52a462c1"
            },
            {
                "amount": "0.111801242236024844",
                "from": "0xbcb03c4b10f04e568abf88df136f579038dd0ef1",
                "id": 2,
                "isERC1155": false,
                "isERC721": false,
                "isReverted": false,
                "order": 2,
                "to": "0x25fc59e97618553367f3840ae5bf12b5e5057d5a",
                "token": "0xeeeeeeeeeeeeeeeeeeeeeeeeeeeeeeeeeeeeeeee"
            }
        ],
        "token_infos": [
            {
                "address": "0xc02aaa39b223fe8d0a0e5c4f27ead9083c756cc2",
                "decimals": 18
            },
            {
                "address": "0xd850942ef8811f2a866692a623011bde52a462c1",
                "decimals": 18
            },
            {
                "address": "0xeeeeeeeeeeeeeeeeeeeeeeeeeeeeeeeeeeeeeeee",
                "decimals": 18
            }
        ]
    },
    "address_label": {
        "labels": [
            {
                "address": "0x0000000000000000000000000000000000000001",
                "label": "Precompiled"
            },
            {
                "address": "0x0000000000000000000000000000000000000002",
                "label": "Precompiled"
            },
            {
                "address": "0x0000000000000000000000000000000000000003",
                "label": "Precompiled"
            },
            {
                "address": "0x0000000000000000000000000000000000000004",
                "label": "Precompiled"
            },
            {
                "address": "0xeeeeeeeeeeeeeeeeeeeeeeeeeeeeeeeeeeeeeeee",
                "label": "Ether"
            },
            {
                "address": "0xd850942ef8811f2a866692a623011bde52a462c1",
                "label": "VeChain: Old Token"
            },
            {
                "address": "0xbcb03c4b10f04e568abf88df136f579038dd0ef1",
                "label": "Exchange"
            }
        ]
    },
    "trace": {
        "accountLabels": null,
        "dataMap": {
            "-1": {
                "invocation": {
                    "address": "0x25fc59e97618553367f3840ae5bf12b5e5057d5a",
                    "callData": "",
                    "decodedMethod": null,
                    "errorInfo": "",
                    "fromAddress": "",
                    "gasUsed": 0,
                    "id": -1,
                    "methodDecoded": false,
                    "operation": "",
                    "output": "",
                    "revert": false,
                    "revertMessage": "",
                    "selector": "",
                    "status": false,
                    "value": ""
                },
                "nodeType": 0
            },
            "0": {
                "invocation": {
                    "address": "0xd850942ef8811f2a866692a623011bde52a462c1",
                    "callData": "0x000000000000000000000000bcb03c4b10f04e568abf88df136f579038dd0ef1000000000000000000000000000000000000000000000018650127cc3dc8000000000000000000000000000000000000000000000000000000000000000000600000000000000000000000000000000000000000000000000000000000000000",
                    "decodedMethod": {
                        "callParams": [
                            {
                                "name": "_spender",
                                "type": "address",
                                "value": "0xbcb03c4b10f04e568abf88df136f579038dd0ef1"
                            },
                            {
                                "name": "_value",
                                "type": "uint256",
                                "value": "450,000,000,000,000,000,000"
                            },
                            {
                                "name": "_extraData",
                                "type": "bytes",
                                "value": "0x"
                            }
                        ],
                        "constructorArguments": "",
                        "name": "approveAndCall",
                        "returnParams": [
                            {
                                "name": "success",
                                "type": "bool",
                                "value": true
                            }
                        ],
                        "signature": "approveAndCall(address,uint256,bytes)"
                    },
                    "errorInfo": "",
                    "fromAddress": "0x25fc59e97618553367f3840ae5bf12b5e5057d5a",
                    "gasUsed": 79090,
                    "id": 0,
                    "methodDecoded": true,
                    "operation": "CALL",
                    "output": "0x0000000000000000000000000000000000000000000000000000000000000001",
                    "revert": false,
                    "revertMessage": "",
                    "selector": "0xcae9ca51",
                    "status": true,
                    "value": "0"
                },
                "nodeType": 0
            },
            "1": {
                "event": {
                    "contract": "0xd850942ef8811f2a866692a623011bde52a462c1",
                    "decodedLog": {
                        "name": "Approval",
                        "params": [
                            {
                                "name": "_owner",
                                "type": "address",
                                "value": "0x25fc59e97618553367f3840ae5bf12b5e5057d5a"
                            },
                            {
                                "name": "_spender",
                                "type": "address",
                                "value": "0xbcb03c4b10f04e568abf88df136f579038dd0ef1"
                            },
                            {
                                "decimalAvailable": true,
                                "name": "_value",
                                "type": "uint256",
                                "value": "450,000,000,000,000,000,000"
                            }
                        ],
                        "signature": "Approval(address,address,uint256)"
                    },
                    "id": 1,
                    "logData": "0x000000000000000000000000000000000000000000000018650127cc3dc80000",
                    "logDecoded": true,
                    "operation": "EVENT",
                    "revert": false,
                    "status": true,
                    "topics": [
                        "0x8c5be1e5ebec7d5bd14f71427d1e84f3dd0314c0f7b2291e5b200ac8c7c3b925",
                        "0x00000000000000000000000025fc59e97618553367f3840ae5bf12b5e5057d5a",
                        "0x000000000000000000000000bcb03c4b10f04e568abf88df136f579038dd0ef1"
                    ]
                },
                "nodeType": 1
            },
            "2": {
                "invocation": {
                    "address": "0xbcb03c4b10f04e568abf88df136f579038dd0ef1",
                    "callData": "0x00000000000000000000000025fc59e97618553367f3840ae5bf12b5e5057d5a000000000000000000000000000000000000000000000018650127cc3dc80000000000000000000000000000d850942ef8811f2a866692a623011bde52a462c100000000000000000000000000000000000000000000000000000000000000800000000000000000000000000000000000000000000000000000000000000000",
                    "decodedMethod": {
                        "callParams": [
                            {
                                "name": "_from",
                                "type": "address",
                                "value": "0x25fc59e97618553367f3840ae5bf12b5e5057d5a"
                            },
                            {
                                "name": "_value",
                                "type": "uint256",
                                "value": "450,000,000,000,000,000,000"
                            },
                            {
                                "name": "",
                                "type": "address",
                                "value": "0xd850942ef8811f2a866692a623011bde52a462c1"
                            },
                            {
                                "name": "",
                                "type": "bytes",
                                "value": "0x"
                            }
                        ],
                        "constructorArguments": "",
                        "name": "receiveApproval",
                        "returnParams": [],
                        "signature": "receiveApproval(address,uint256,address,bytes)"
                    },
                    "errorInfo": "",
                    "fromAddress": "0xd850942ef8811f2a866692a623011bde52a462c1",
                    "gasUsed": 45389,
                    "id": 2,
                    "methodDecoded": true,
                    "operation": "CALL",
                    "output": "",
                    "revert": false,
                    "revertMessage": "",
                    "selector": "0x8f4ffcb1",
                    "status": true,
                    "value": "0"
                },
                "nodeType": 0
            },
            "3": {
                "invocation": {
                    "address": "0xd850942ef8811f2a866692a623011bde52a462c1",
                    "callData": "0x00000000000000000000000025fc59e97618553367f3840ae5bf12b5e5057d5a",
                    "decodedMethod": {
                        "callParams": [
                            {
                                "name": "_owner",
                                "type": "address",
                                "value": "0x25fc59e97618553367f3840ae5bf12b5e5057d5a"
                            }
                        ],
                        "constructorArguments": "",
                        "name": "balanceOf",
                        "returnParams": [
                            {
                                "decimalAvailable": true,
                                "name": "balance",
                                "type": "uint256",
                                "value": "6,600,057,040,000,000,000,000"
                            }
                        ],
                        "signature": "balanceOf(address)"
                    },
                    "errorInfo": "",
                    "fromAddress": "0xbcb03c4b10f04e568abf88df136f579038dd0ef1",
                    "gasUsed": 1479,
                    "id": 3,
                    "methodDecoded": true,
                    "operation": "CALL",
                    "output": "0x000000000000000000000000000000000000000000000165ca30ed47741d0000",
                    "revert": false,
                    "revertMessage": "",
                    "selector": "0x70a08231",
                    "status": true,
                    "value": "0"
                },
                "nodeType": 0
            },
            "4": {
                "invocation": {
                    "address": "0xd850942ef8811f2a866692a623011bde52a462c1",
                    "callData": "0x00000000000000000000000025fc59e97618553367f3840ae5bf12b5e5057d5a000000000000000000000000bcb03c4b10f04e568abf88df136f579038dd0ef1000000000000000000000000000000000000000000000018650127cc3dc80000",
                    "decodedMethod": {
                        "callParams": [
                            {
                                "name": "_from",
                                "type": "address",
                                "value": "0x25fc59e97618553367f3840ae5bf12b5e5057d5a"
                            },
                            {
                                "name": "_to",
                                "type": "address",
                                "value": "0xbcb03c4b10f04e568abf88df136f579038dd0ef1"
                            },
                            {
                                "decimalAvailable": true,
                                "name": "_amount",
                                "type": "uint256",
                                "value": "450,000,000,000,000,000,000"
                            }
                        ],
                        "constructorArguments": "",
                        "name": "transferFrom",
                        "returnParams": [
                            {
                                "name": "success",
                                "type": "bool",
                                "value": true
                            }
                        ],
                        "signature": "transferFrom(address,address,uint256)"
                    },
                    "errorInfo": "",
                    "fromAddress": "0xbcb03c4b10f04e568abf88df136f579038dd0ef1",
                    "gasUsed": 22149,
                    "id": 4,
                    "methodDecoded": true,
                    "operation": "CALL",
                    "output": "0x0000000000000000000000000000000000000000000000000000000000000001",
                    "revert": false,
                    "revertMessage": "",
                    "selector": "0x23b872dd",
                    "status": true,
                    "value": "0"
                },
                "nodeType": 0
            },
            "5": {
                "event": {
                    "contract": "0xd850942ef8811f2a866692a623011bde52a462c1",
                    "decodedLog": {
                        "name": "Transfer",
                        "params": [
                            {
                                "name": "_from",
                                "type": "address",
                                "value": "0x25fc59e97618553367f3840ae5bf12b5e5057d5a"
                            },
                            {
                                "name": "_to",
                                "type": "address",
                                "value": "0xbcb03c4b10f04e568abf88df136f579038dd0ef1"
                            },
                            {
                                "decimalAvailable": true,
                                "name": "_value",
                                "type": "uint256",
                                "value": "450,000,000,000,000,000,000"
                            }
                        ],
                        "signature": "Transfer(address,address,uint256)"
                    },
                    "id": 5,
                    "logData": "0x000000000000000000000000000000000000000000000018650127cc3dc80000",
                    "logDecoded": true,
                    "operation": "EVENT",
                    "revert": false,
                    "status": true,
                    "topics": [
                        "0xddf252ad1be2c89b69c2b068fc378daa952ba7f163c4a11628f55a4df523b3ef",
                        "0x00000000000000000000000025fc59e97618553367f3840ae5bf12b5e5057d5a",
                        "0x000000000000000000000000bcb03c4b10f04e568abf88df136f579038dd0ef1"
                    ]
                },
                "nodeType": 1
            },
            "6": {
                "invocation": {
                    "address": "0x25fc59e97618553367f3840ae5bf12b5e5057d5a",
                    "callData": "0x",
                    "decodedMethod": null,
                    "errorInfo": "",
                    "fromAddress": "0xbcb03c4b10f04e568abf88df136f579038dd0ef1",
                    "gasUsed": 0,
                    "id": 6,
                    "methodDecoded": false,
                    "operation": "CALL",
                    "output": "",
                    "revert": false,
                    "revertMessage": "",
                    "selector": "fallback",
                    "status": true,
                    "value": "0.111801242236024844"
                },
                "nodeType": 0
            },
            "7": {
                "event": {
                    "contract": "0xbcb03c4b10f04e568abf88df136f579038dd0ef1",
                    "decodedLog": {
                        "name": "onExchangeTokenToEther",
                        "params": [
                            {
                                "name": "who",
                                "type": "address",
                                "value": "0x25fc59e97618553367f3840ae5bf12b5e5057d5a"
                            },
                            {
                                "name": "tokenAmount",
                                "type": "uint256",
                                "value": "450,000,000,000,000,000,000"
                            },
                            {
                                "name": "etherAmount",
                                "type": "uint256",
                                "value": "111,801,242,236,024,844"
                            }
                        ],
                        "signature": "onExchangeTokenToEther(address,uint256,uint256)"
                    },
                    "id": 7,
                    "logData": "0x00000000000000000000000025fc59e97618553367f3840ae5bf12b5e5057d5a000000000000000000000000000000000000000000000018650127cc3dc80000000000000000000000000000000000000000000000000000018d32a330ecf80c",
                    "logDecoded": true,
                    "operation": "EVENT",
                    "revert": false,
                    "status": true,
                    "topics": [
                        "0x870911ff929322178d4a23d2962b1b0b6c857473a1e38dfb4aed29384ecb5ff3"
                    ]
                },
                "nodeType": 1
            }
        },
        "gasFlame": [
            {
                "children": [
                    {
                        "children": [
                            {
                                "children": [],
                                "depth": 0,
                                "name": "Initial Gas",
                                "value": 23576
                            },
                            {
                                "children": [
                                    {
                                        "children": [
                                            {
                                                "children": [],
                                                "depth": 2,
                                                "name": "balanceOf",
                                                "value": 1479
                                            },
                                            {
                                                "children": [],
                                                "depth": 2,
                                                "name": "transferFrom",
                                                "value": 22149
                                            },
                                            {
                                                "children": [],
                                                "depth": 2,
                                                "name": "fallback",
                                                "value": 0
                                            }
                                        ],
                                        "depth": 1,
                                        "name": "receiveApproval",
                                        "value": 45389
                                    }
                                ],
                                "depth": 0,
                                "name": "Executed Gas",
                                "value": 70514
                            }
                        ],
                        "depth": -1,
                        "name": "Actual Gas Used",
                        "value": 79090
                    },
                    {
                        "children": [],
                        "depth": -1,
                        "name": "Refunded Gas",
                        "value": 15000
                    }
                ],
                "depth": -2,
                "name": "Total Gas",
                "value": 94090
            }
        ],
        "isConfirmed": true,
        "mainTrace": [
            {
                "children": [
                    {
                        "children": [
                            {
                                "children": [],
                                "depth": 1,
                                "id": 1,
                                "order": 1
                            },
                            {
                                "children": [
                                    {
                                        "children": [],
                                        "depth": 2,
                                        "id": 3,
                                        "order": 3
                                    },
                                    {
                                        "children": [
                                            {
                                                "children": [],
                                                "depth": 3,
                                                "id": 5,
                                                "order": 5
                                            }
                                        ],
                                        "depth": 2,
                                        "id": 4,
                                        "order": 4
                                    },
                                    {
                                        "children": [],
                                        "depth": 2,
                                        "id": 6,
                                        "order": 6
                                    },
                                    {
                                        "children": [],
                                        "depth": 2,
                                        "id": 7,
                                        "order": 7
                                    }
                                ],
                                "depth": 1,
                                "id": 2,
                                "order": 2
                            }
                        ],
                        "depth": 0,
                        "id": 0,
                        "order": 0
                    }
                ],
                "depth": -1,
                "id": -1,
                "order": -1
            }
        ],
        "mainTraceNodeCount": 8,
        "parentIdMap": {
            "0": -1,
            "1": 0,
            "2": 0,
            "3": 2,
            "4": 2,
            "5": 4,
            "6": 2,
            "7": 2
        },
        "tidyTrace": [
            {
                "children": [
                    {
                        "children": [
                            {
                                "children": [],
                                "depth": 1,
                                "id": 1,
                                "order": 1
                            },
                            {
                                "children": [
                                    {
                                        "children": [],
                                        "depth": 2,
                                        "id": 3,
                                        "order": 3
                                    },
                                    {
                                        "children": [
                                            {
                                                "children": [],
                                                "depth": 3,
                                                "id": 5,
                                                "order": 5
                                            }
                                        ],
                                        "depth": 2,
                                        "id": 4,
                                        "order": 4
                                    },
                                    {
                                        "children": [],
                                        "depth": 2,
                                        "id": 6,
                                        "order": 6
                                    },
                                    {
                                        "children": [],
                                        "depth": 2,
                                        "id": 7,
                                        "order": 7
                                    }
                                ],
                                "depth": 1,
                                "id": 2,
                                "order": 2
                            }
                        ],
                        "depth": 0,
                        "id": 0,
                        "order": 0
                    }
                ],
                "depth": -1,
                "id": -1,
                "order": -1
            }
        ],
        "tidyTraceNodeCount": 8
    },
    "state_change": {
        "stateChanges": [
            {
                "address": "0xbcb03c4b10f04e568abf88df136f579038dd0ef1",
                "erc": "",
                "slots": [
                    {
                        "current": "0x00000000000000000000000000000000000000000000013d210f055f23280000",
                        "key": "0x4c8a9e33af7ab029f0af7706379a1bd1fd76523fc42974c5dabef82ca981a8f6",
                        "prev": "0x000000000000000000000000000000000000000000000124bc0ddd92e5600000"
                    }
                ],
                "storageVariables": []
            },
            {
                "address": "0xd850942ef8811f2a866692a623011bde52a462c1",
                "erc": "ERC-20",
                "slots": [
                    {
                        "current": "0x00000000000000000000000000000000000000000000014d652fc57b36550000",
                        "key": "0xc914c55227315a04a03636b560fc539721b3e583deeb9c246d32ab2c80ae49b5",
                        "prev": "0x000000000000000000000000000000000000000000000165ca30ed47741d0000"
                    },
                    {
                        "current": "0x000000000000000000000000000000000000000000293e37cda0c1623ce049e0",
                        "key": "0xb939c454df2b24cc8fb88d18bdb79985da626d81e41e6da82f8fde8a126ca21d",
                        "prev": "0x000000000000000000000000000000000000000000293e1f689f9995ff1849e0"
                    }
                ],
                "storageVariables": []
            }
        ]
    }
}