{
    "balance_change": {
        "balanceChanges": [
            {
                "account": "0x8699904a1ecb6fa10732143aab656f06f739c58c",
                "assets": [
                    {
                        "address": "0xbe0ed4138121ecfc5c0e56b40517da27e6c5226b",
                        "amount": "1,942",
                        "iconUrl": "",
                        "isERC1155": false,
                        "isERC721": false,
                        "sign": false,
                        "value": "127.977800000000000474"
                    }
                ]
            },
            {
                "account": "0x6cc5f688a315f3dc28a7781717a9a798a59fda7b",
                "assets": [
                    {
                        "address": "0xbe0ed4138121ecfc5c0e56b40517da27e6c5226b",
                        "amount": "1,942",
                        "iconUrl": "",
                        "isERC1155": false,
                        "isERC721": false,
                        "sign": true,
                        "value": "127.977800000000000474"
                    }
                ]
            }
        ]
    },
    "profile": {
        "basic_info": {
            "baseFee": "3.389103379",
            "blockNumber": 20106945,
            "callData": "0xa9059cbb0000000000000000000000006cc5f688a315f3dc28a7781717a9a798a59fda7b00000000000000000000000000000000000000000000006946a9f6d7d0980000",
            "debugEnable": true,
            "errorInfo": "",
            "eventCount": 1,
            "feeRecipient": "0xf15689636571dba322b48e9ec9ba6cfb3df818e1",
            "formatValue": "0",
            "gasLimit": 55000,
            "gasPrice": "6.389103379",
            "gasUsed": 29673,
            "intTxnCount": 0,
            "internalRevert": false,
            "internalRevertMessage": "",
            "isContractCreation": false,
            "isFlashloan": false,
            "maxFee": "11",
            "nonce": 0,
            "overwritedBlockNumber": -1,
            "priorityFee": "3",
            "receiver": "0xbe0ed4138121ecfc5c0e56b40517da27e6c5226b",
            "revertMessage": "",
            "sender": "0x8699904a1ecb6fa10732143aab656f06f739c58c",
            "simulationEnable": true,
            "sourceTxnHash": "0x136fc485dfcd757f157aa6ea430cd7ea5b1950d6a7b226389e4f25b989a6387d",
            "status": true,
            "timestamp": "2024-06-16T21:09:35Z",
            "transactionFee": "0.000189583864565067",
            "txnHash": "0x136fc485dfcd757f157aa6ea430cd7ea5b1950d6a7b226389e4f25b989a6387d",
            "txnIndex": 7,
            "type": 2,
            "value": "0"
        },
        "fund_flow": [
            {
                "amount": "1,942",
                "from": "0x8699904a1ecb6fa10732143aab656f06f739c58c",
                "id": 1,
                "isERC1155": false,
                "isERC721": false,
                "isReverted": false,
                "order": 1,
                "to": "0x6cc5f688a315f3dc28a7781717a9a798a59fda7b",
                "token": "0xbe0ed4138121ecfc5c0e56b40517da27e6c5226b"
            }
        ],
        "token_infos": [
            {
                "address": "0xbe0ed4138121ecfc5c0e56b40517da27e6c5226b",
                "decimals": 18
            },
            {
                "address": "0xc02aaa39b223fe8d0a0e5c4f27ead9083c756cc2",
                "decimals": 18
            },
            {
                "address": "0xeeeeeeeeeeeeeeeeeeeeeeeeeeeeeeeeeeeeeeee",
                "decimals": 18
            }
        ]
    },
    "address_label": {
        "labels": [
            {
                "address": "0x0000000000000000000000000000000000000001",
                "label": "Precompiled"
            },
            {
                "address": "0x0000000000000000000000000000000000000002",
                "label": "Precompiled"
            },
            {
                "address": "0x0000000000000000000000000000000000000003",
                "label": "Precompiled"
            },
            {
                "address": "0x0000000000000000000000000000000000000004",
                "label": "Precompiled"
            },
            {
                "address": "0xeeeeeeeeeeeeeeeeeeeeeeeeeeeeeeeeeeeeeeee",
                "label": "Ether"
            },
            {
                "address": "0x6cc5f688a315f3dc28a7781717a9a798a59fda7b",
                "label": "OKX"
            },
            {
                "address": "0xbe0ed4138121ecfc5c0e56b40517da27e6c5226b",
                "label": "Aethir: ATH Token"
            }
        ]
    },
    "trace": {
        "accountLabels": null,
        "dataMap": {
            "-1": {
                "invocation": {
                    "address": "0x8699904a1ecb6fa10732143aab656f06f739c58c",
                    "callData": "",
                    "decodedMethod": null,
                    "errorInfo": "",
                    "fromAddress": "",
                    "gasUsed": 0,
                    "id": -1,
                    "methodDecoded": false,
                    "operation": "",
                    "output": "",
                    "revert": false,
                    "revertMessage": "",
                    "selector": "",
                    "status": false,
                    "value": ""
                },
                "nodeType": 0
            },
            "0": {
                "invocation": {
                    "address": "0xbe0ed4138121ecfc5c0e56b40517da27e6c5226b",
                    "callData": "0x0000000000000000000000006cc5f688a315f3dc28a7781717a9a798a59fda7b00000000000000000000000000000000000000000000006946a9f6d7d0980000",
                    "decodedMethod": {
                        "callParams": [
                            {
                                "name": "to",
                                "type": "address",
                                "value": "0x6cc5f688a315f3dc28a7781717a9a798a59fda7b"
                            },
                            {
                                "decimalAvailable": true,
                                "name": "amount",
                                "type": "uint256",
                                "value": "1,942,000,000,000,000,000,000"
                            }
                        ],
                        "constructorArguments": "",
                        "name": "transfer",
                        "returnParams": [
                            {
                                "name": "",
                                "type": "bool",
                                "value": true
                            }
                        ],
                        "signature": "transfer(address,uint256)"
                    },
                    "errorInfo": "",
                    "fromAddress": "0x8699904a1ecb6fa10732143aab656f06f739c58c",
                    "gasUsed": 29673,
                    "id": 0,
                    "methodDecoded": true,
                    "operation": "CALL",
                    "output": "0x0000000000000000000000000000000000000000000000000000000000000001",
                    "revert": false,
                    "revertMessage": "",
                    "selector": "0xa9059cbb",
                    "status": true,
                    "value": "0"
                },
                "nodeType": 0
            },
            "1": {
                "event": {
                    "contract": "0xbe0ed4138121ecfc5c0e56b40517da27e6c5226b",
                    "decodedLog": {
                        "name": "Transfer",
                        "params": [
                            {
                                "name": "from",
                                "type": "address",
                                "value": "0x8699904a1ecb6fa10732143aab656f06f739c58c"
                            },
                            {
                                "name": "to",
                                "type": "address",
                                "value": "0x6cc5f688a315f3dc28a7781717a9a798a59fda7b"
                            },
                            {
                                "decimalAvailable": true,
                                "name": "value",
                                "type": "uint256",
                                "value": "1,942,000,000,000,000,000,000"
                            }
                        ],
                        "signature": "Transfer(address,address,uint256)"
                    },
                    "id": 1,
                    "logData": "0x00000000000000000000000000000000000000000000006946a9f6d7d0980000",
                    "logDecoded": true,
                    "operation": "EVENT",
                    "revert": false,
                    "status": true,
                    "topics": [
                        "0xddf252ad1be2c89b69c2b068fc378daa952ba7f163c4a11628f55a4df523b3ef",
                        "0x0000000000000000000000008699904a1ecb6fa10732143aab656f06f739c58c",
                        "0x0000000000000000000000006cc5f688a315f3dc28a7781717a9a798a59fda7b"
                    ]
                },
                "nodeType": 1
            }
        },
        "gasFlame": [
            {
                "children": [
                    {
                        "children": [
                            {
                                "children": [],
                                "depth": 0,
                                "name": "Initial Gas",
                                "value": 21644
                            },
                            {
                                "children": [],
                                "depth": 0,
                                "name": "Executed Gas",
                                "value": 12829
                            }
                        ],
                        "depth": -1,
                        "name": "Actual Gas Used",
                        "value": 29673
                    },
                    {
                        "children": [],
                        "depth": -1,
                        "name": "Refunded Gas",
                        "value": 4800
                    }
                ],
                "depth": -2,
                "name": "Total Gas",
                "value": 34473
            }
        ],
        "isConfirmed": true,
        "mainTrace": [
            {
                "children": [
                    {
                        "children": [
                            {
                                "children": [],
                                "depth": 1,
                                "id": 1,
                                "order": 1
                            }
                        ],
                        "depth": 0,
                        "id": 0,
                        "order": 0
                    }
                ],
                "depth": -1,
                "id": -1,
                "order": -1
            }
        ],
        "mainTraceNodeCount": 2,
        "parentIdMap": {
            "0": -1,
            "1": 0
        },
        "tidyTrace": [
            {
                "children": [
                    {
                        "children": [
                            {
                                "children": [],
                                "depth": 1,
                                "id": 1,
                                "order": 1
                            }
                        ],
                        "depth": 0,
                        "id": 0,
                        "order": 0
                    }
                ],
                "depth": -1,
                "id": -1,
                "order": -1
            }
        ],
        "tidyTraceNodeCount": 2
    },
    "state_change": {
        "stateChanges": [
            {
                "address": "0xbe0ed4138121ecfc5c0e56b40517da27e6c5226b",
                "erc": "ERC-20",
                "slots": [
                    {
                        "current": "0x0000000000000000000000000000000000000000000000000000000000000000",
                        "key": "0x49d0f144f414db11624775545d466d03f40f4cc11d7d0fa25eb634f40244b68a",
                        "prev": "0x00000000000000000000000000000000000000000000006946a9f6d7d0980000"
                    },
                    {
                        "current": "0x000000000000000000000000000000000000000001d673b7b7b15779a80b6400",
                        "key": "0xf320692c47514b5ff69503836be0506f1667cd3f5c074c801b2305e178ec6842",
                        "prev": "0x000000000000000000000000000000000000000001d6734e710760a1d7736400"
                    }
                ],
                "storageVariables": [
                    {
                        "name": "_balances",
                        "type": "mapping(address => uint256)",
                        "value": {
                            "pairs": [
                                {
                                    "key": "0x6cc5f688a315f3dc28a7781717a9a798a59fda7b",
                                    "value": {
                                        "current": "568741596355028170000000000",
                                        "prev": "568739654355028170000000000",
                                        "typeTag": 1
                                    }
                                },
                                {
                                    "key": "0x8699904a1ecb6fa10732143aab656f06f739c58c",
                                    "value": {
                                        "current": "0",
                                        "prev": "1942000000000000000000",
                                        "typeTag": 1
                                    }
                                }
                            ],
                            "typeTag": 4
                        }
                    }
                ]
            }
        ]
    }
}