{
    "balance_change": {
        "balanceChanges": [
            {
                "account": "0x415d835194c8c58f42acd11b641092732ab9d366",
                "assets": [
                    {
                        "address": "0xb879da8b24c9b8685de8526cf492e954f165d74b",
                        "amount": "450",
                        "iconUrl": "",
                        "isERC1155": false,
                        "isERC721": false,
                        "sign": false,
                        "value": ""
                    }
                ]
            },
            {
                "account": "0xafdfc5c252bc273ccb85365ff193b1070b5377bb",
                "assets": [
                    {
                        "address": "0xb879da8b24c9b8685de8526cf492e954f165d74b",
                        "amount": "450",
                        "iconUrl": "",
                        "isERC1155": false,
                        "isERC721": false,
                        "sign": true,
                        "value": ""
                    }
                ]
            }
        ]
    },
    "profile": {
        "basic_info": {
            "baseFee": "",
            "blockNumber": 8439314,
            "callData": "0xa9059cbb000000000000000000000000afdfc5c252bc273ccb85365ff193b1070b5377bb000000000000000000000000000000000000000000000018650127cc3dc80000",
            "debugEnable": true,
            "errorInfo": "",
            "eventCount": 1,
            "feeRecipient": "0x52bc44d5378309ee2abf1539bf71de1b7d7be3b5",
            "formatValue": "0",
            "gasLimit": 60000,
            "gasPrice": "1.4",
            "gasUsed": 23056,
            "intTxnCount": 0,
            "internalRevert": false,
            "internalRevertMessage": "",
            "isContractCreation": false,
            "isFlashloan": false,
            "maxFee": "",
            "nonce": 8,
            "overwritedBlockNumber": -1,
            "priorityFee": "",
            "receiver": "0xb879da8b24c9b8685de8526cf492e954f165d74b",
            "revertMessage": "",
            "sender": "0x415d835194c8c58f42acd11b641092732ab9d366",
            "simulationEnable": true,
            "sourceTxnHash": "0x13e29bc815a6bc06a0b850ffa07239e8704b5ebb52c9e35b651b7dc9be6100ac",
            "status": true,
            "timestamp": "2019-08-28T15:06:16Z",
            "transactionFee": "0.0000322784",
            "txnHash": "0x13e29bc815a6bc06a0b850ffa07239e8704b5ebb52c9e35b651b7dc9be6100ac",
            "txnIndex": 85,
            "type": 0,
            "value": "0"
        },
        "fund_flow": [
            {
                "amount": "450",
                "from": "0x415d835194c8c58f42acd11b641092732ab9d366",
                "id": 1,
                "isERC1155": false,
                "isERC721": false,
                "isReverted": false,
                "order": 1,
                "to": "0xafdfc5c252bc273ccb85365ff193b1070b5377bb",
                "token": "0xb879da8b24c9b8685de8526cf492e954f165d74b"
            }
        ],
        "token_infos": [
            {
                "address": "0xb879da8b24c9b8685de8526cf492e954f165d74b",
                "decimals": 18
            },
            {
                "address": "0xc02aaa39b223fe8d0a0e5c4f27ead9083c756cc2",
                "decimals": 18
            },
            {
                "address": "0xeeeeeeeeeeeeeeeeeeeeeeeeeeeeeeeeeeeeeeee",
                "decimals": 18
            }
        ]
    },
    "address_label": {
        "labels": [
            {
                "address": "0x0000000000000000000000000000000000000001",
                "label": "Precompiled"
            },
            {
                "address": "0x0000000000000000000000000000000000000002",
                "label": "Precompiled"
            },
            {
                "address": "0x0000000000000000000000000000000000000003",
                "label": "Precompiled"
            },
            {
                "address": "0x0000000000000000000000000000000000000004",
                "label": "Precompiled"
            },
            {
                "address": "0xeeeeeeeeeeeeeeeeeeeeeeeeeeeeeeeeeeeeeeee",
                "label": "Ether"
            },
            {
                "address": "0xb879da8b24c9b8685de8526cf492e954f165d74b",
                "label": "MovieBloc Token"
            }
        ]
    },
    "trace": {
        "accountLabels": null,
        "dataMap": {
            "-1": {
                "invocation": {
                    "address": "0x415d835194c8c58f42acd11b641092732ab9d366",
                    "callData": "",
                    "decodedMethod": null,
                    "errorInfo": "",
                    "fromAddress": "",
                    "gasUsed": 0,
                    "id": -1,
                    "methodDecoded": false,
                    "operation": "",
                    "output": "",
                    "revert": false,
                    "revertMessage": "",
                    "selector": "",
                    "status": false,
                    "value": ""
                },
                "nodeType": 0
            },
            "0": {
                "invocation": {
                    "address": "0xb879da8b24c9b8685de8526cf492e954f165d74b",
                    "callData": "0x000000000000000000000000afdfc5c252bc273ccb85365ff193b1070b5377bb000000000000000000000000000000000000000000000018650127cc3dc80000",
                    "decodedMethod": {
                        "callParams": [
                            {
                                "name": "to",
                                "type": "address",
                                "value": "0xafdfc5c252bc273ccb85365ff193b1070b5377bb"
                            },
                            {
                                "decimalAvailable": true,
                                "name": "value",
                                "type": "uint256",
                                "value": "450,000,000,000,000,000,000"
                            }
                        ],
                        "constructorArguments": "",
                        "name": "transfer",
                        "returnParams": [
                            {
                                "name": "",
                                "type": "bool",
                                "value": true
                            }
                        ],
                        "signature": "transfer(address,uint256)"
                    },
                    "errorInfo": "",
                    "fromAddress": "0x415d835194c8c58f42acd11b641092732ab9d366",
                    "gasUsed": 23056,
                    "id": 0,
                    "methodDecoded": true,
                    "operation": "CALL",
                    "output": "0x0000000000000000000000000000000000000000000000000000000000000001",
                    "revert": false,
                    "revertMessage": "",
                    "selector": "0xa9059cbb",
                    "status": true,
                    "value": "0"
                },
                "nodeType": 0
            },
            "1": {
                "event": {
                    "contract": "0xb879da8b24c9b8685de8526cf492e954f165d74b",
                    "decodedLog": {
                        "name": "Transfer",
                        "params": [
                            {
                                "name": "from",
                                "type": "address",
                                "value": "0x415d835194c8c58f42acd11b641092732ab9d366"
                            },
                            {
                                "name": "to",
                                "type": "address",
                                "value": "0xafdfc5c252bc273ccb85365ff193b1070b5377bb"
                            },
                            {
                                "decimalAvailable": true,
                                "name": "value",
                                "type": "uint256",
                                "value": "450,000,000,000,000,000,000"
                            }
                        ],
                        "signature": "Transfer(address,address,uint256)"
                    },
                    "id": 1,
                    "logData": "0x000000000000000000000000000000000000000000000018650127cc3dc80000",
                    "logDecoded": true,
                    "operation": "EVENT",
                    "revert": false,
                    "status": true,
                    "topics": [
                        "0xddf252ad1be2c89b69c2b068fc378daa952ba7f163c4a11628f55a4df523b3ef",
                        "0x000000000000000000000000415d835194c8c58f42acd11b641092732ab9d366",
                        "0x000000000000000000000000afdfc5c252bc273ccb85365ff193b1070b5377bb"
                    ]
                },
                "nodeType": 1
            }
        },
        "gasFlame": [
            {
                "children": [
                    {
                        "children": [
                            {
                                "children": [],
                                "depth": 0,
                                "name": "Initial Gas",
                                "value": 23256
                            },
                            {
                                "children": [],
                                "depth": 0,
                                "name": "Executed Gas",
                                "value": 14800
                            }
                        ],
                        "depth": -1,
                        "name": "Actual Gas Used",
                        "value": 23056
                    },
                    {
                        "children": [],
                        "depth": -1,
                        "name": "Refunded Gas",
                        "value": 15000
                    }
                ],
                "depth": -2,
                "name": "Total Gas",
                "value": 38056
            }
        ],
        "isConfirmed": true,
        "mainTrace": [
            {
                "children": [
                    {
                        "children": [
                            {
                                "children": [],
                                "depth": 1,
                                "id": 1,
                                "order": 1
                            }
                        ],
                        "depth": 0,
                        "id": 0,
                        "order": 0
                    }
                ],
                "depth": -1,
                "id": -1,
                "order": -1
            }
        ],
        "mainTraceNodeCount": 2,
        "parentIdMap": {
            "0": -1,
            "1": 0
        },
        "tidyTrace": [
            {
                "children": [
                    {
                        "children": [
                            {
                                "children": [],
                                "depth": 1,
                                "id": 1,
                                "order": 1
                            }
                        ],
                        "depth": 0,
                        "id": 0,
                        "order": 0
                    }
                ],
                "depth": -1,
                "id": -1,
                "order": -1
            }
        ],
        "tidyTraceNodeCount": 2
    },
    "state_change": {
        "stateChanges": [
            {
                "address": "0xb879da8b24c9b8685de8526cf492e954f165d74b",
                "erc": "ERC-20",
                "slots": [
                    {
                        "current": "0x0000000000000000000000000000000000000000000000000000000000000000",
                        "key": "0x937f9a04f6d2e4053cc85be3db2b2e3b08f4b4f16edf8abda1d013e4eec599d5",
                        "prev": "0x000000000000000000000000000000000000000000000018650127cc3dc80000"
                    },
                    {
                        "current": "0x0000000000000000000000000000000000000000000024afe6bcda28e9c80000",
                        "key": "0xfe14e28a1fc53fa097bbe1f79238464121ec64f24469d2c4ebf39c4c304842af",
                        "prev": "0x00000000000000000000000000000000000000000000249781bbb25cac000000"
                    }
                ],
                "storageVariables": [
                    {
                        "name": "_balances",
                        "type": "mapping(address => uint256)",
                        "value": {
                            "pairs": [
                                {
                                    "key": "0x415d835194c8c58f42acd11b641092732ab9d366",
                                    "value": {
                                        "current": "0",
                                        "prev": "450000000000000000000",
                                        "typeTag": 1
                                    }
                                },
                                {
                                    "key": "0xafdfc5c252bc273ccb85365ff193b1070b5377bb",
                                    "value": {
                                        "current": "173250000000000000000000",
                                        "prev": "172800000000000000000000",
                                        "typeTag": 1
                                    }
                                }
                            ],
                            "typeTag": 4
                        }
                    }
                ]
            }
        ]
    }
}