{
    "balance_change": {
        "balanceChanges": [
            {
                "account": "0x2eaacaf1468f248483cec65254dff98ff95e3387",
                "assets": [
                    {
                        "address": "0xeeeeeeeeeeeeeeeeeeeeeeeeeeeeeeeeeeeeeeee",
                        "amount": "0.0065",
                        "iconUrl": "https://assets.blocksec.com/image/1663669189317-3.png",
                        "isERC1155": false,
                        "isERC721": false,
                        "sign": false,
                        "value": "16.959153646500001287"
                    },
                    {
                        "address": "0x990f341946a3fdb507ae7e52d17851b87168017c",
                        "amount": "10",
                        "iconUrl": "",
                        "isERC1155": false,
                        "isERC721": false,
                        "sign": false,
                        "value": "1394.662368"
                    }
                ]
            },
            {
                "account": "0x4b5057b2c87ec9e7c047fb00c0e406dff2fdacad",
                "assets": [
                    {
                        "address": "0xeeeeeeeeeeeeeeeeeeeeeeeeeeeeeeeeeeeeeeee",
                        "amount": "0.0065",
                        "iconUrl": "https://assets.blocksec.com/image/1663669189317-3.png",
                        "isERC1155": false,
                        "isERC721": false,
                        "sign": true,
                        "value": "16.959153646500001287"
                    },
                    {
                        "address": "0x990f341946a3fdb507ae7e52d17851b87168017c",
                        "amount": "10",
                        "iconUrl": "",
                        "isERC1155": false,
                        "isERC721": false,
                        "sign": true,
                        "value": "1394.662368"
                    }
                ]
            }
        ]
    },
    "profile": {
        "basic_info": {
            "baseFee": "",
            "blockNumber": 12630071,
            "callData": "0x05eec2890000000000000000000000000000000000000000000000000000000000000001",
            "debugEnable": true,
            "errorInfo": "",
            "eventCount": 4,
            "feeRecipient": "0xea674fdde714fd979de3edf0f56aa9716b898ec8",
            "formatValue": "0.0065",
            "gasLimit": 223248,
            "gasPrice": "16",
            "gasUsed": 129192,
            "intTxnCount": 4,
            "internalRevert": false,
            "internalRevertMessage": "",
            "isContractCreation": false,
            "isFlashloan": false,
            "maxFee": "",
            "nonce": 149,
            "overwritedBlockNumber": -1,
            "priorityFee": "",
            "receiver": "0xfbddadd80fe7bda00b901fbaf73803f2238ae655",
            "revertMessage": "",
            "sender": "0x2eaacaf1468f248483cec65254dff98ff95e3387",
            "simulationEnable": true,
            "sourceTxnHash": "0x13ed62a57da7adb0cba32e604e1a8607063de0ad73d8506bc93b9c107067b5a3",
            "status": true,
            "timestamp": "2021-06-14T03:06:22Z",
            "transactionFee": "0.002067072",
            "txnHash": "0x13ed62a57da7adb0cba32e604e1a8607063de0ad73d8506bc93b9c107067b5a3",
            "txnIndex": 62,
            "type": 0,
            "value": "6500000000000000"
        },
        "fund_flow": [
            {
                "amount": "0.0065",
                "from": "0x2eaacaf1468f248483cec65254dff98ff95e3387",
                "id": 1,
                "isERC1155": false,
                "isERC721": false,
                "isReverted": false,
                "order": 1,
                "to": "0xfbddadd80fe7bda00b901fbaf73803f2238ae655",
                "token": "0xeeeeeeeeeeeeeeeeeeeeeeeeeeeeeeeeeeeeeeee"
            },
            {
                "amount": "0.0065",
                "from": "0xfbddadd80fe7bda00b901fbaf73803f2238ae655",
                "id": 2,
                "isERC1155": false,
                "isERC721": false,
                "isReverted": false,
                "order": 2,
                "to": "0x4b5057b2c87ec9e7c047fb00c0e406dff2fdacad",
                "token": "0xeeeeeeeeeeeeeeeeeeeeeeeeeeeeeeeeeeeeeeee"
            },
            {
                "amount": "10",
                "from": "0x2eaacaf1468f248483cec65254dff98ff95e3387",
                "id": 3,
                "isERC1155": false,
                "isERC721": false,
                "isReverted": false,
                "order": 3,
                "to": "0xfbddadd80fe7bda00b901fbaf73803f2238ae655",
                "token": "0x990f341946a3fdb507ae7e52d17851b87168017c"
            },
            {
                "amount": "10",
                "from": "0xfbddadd80fe7bda00b901fbaf73803f2238ae655",
                "id": 4,
                "isERC1155": false,
                "isERC721": false,
                "isReverted": false,
                "order": 4,
                "to": "0x4b5057b2c87ec9e7c047fb00c0e406dff2fdacad",
                "token": "0x990f341946a3fdb507ae7e52d17851b87168017c"
            }
        ],
        "token_infos": [
            {
                "address": "0x990f341946a3fdb507ae7e52d17851b87168017c",
                "decimals": 18
            },
            {
                "address": "0xc02aaa39b223fe8d0a0e5c4f27ead9083c756cc2",
                "decimals": 18
            },
            {
                "address": "0xeeeeeeeeeeeeeeeeeeeeeeeeeeeeeeeeeeeeeeee",
                "decimals": 18
            }
        ]
    },
    "address_label": {
        "labels": [
            {
                "address": "0xfbddadd80fe7bda00b901fbaf73803f2238ae655",
                "label": "StrongBlock: Service"
            },
            {
                "address": "0x0000000000000000000000000000000000000001",
                "label": "Precompiled"
            },
            {
                "address": "0x0000000000000000000000000000000000000002",
                "label": "Precompiled"
            },
            {
                "address": "0x0000000000000000000000000000000000000003",
                "label": "Precompiled"
            },
            {
                "address": "0x0000000000000000000000000000000000000004",
                "label": "Precompiled"
            },
            {
                "address": "0xeeeeeeeeeeeeeeeeeeeeeeeeeeeeeeeeeeeeeeee",
                "label": "Ether"
            },
            {
                "address": "0x990f341946a3fdb507ae7e52d17851b87168017c",
                "label": "StrongBlock: STRONG Token"
            },
            {
                "address": "0x013c66b6734f6af43b9ee2e8a8bc5138f9ae5557",
                "label": "ServiceV14"
            }
        ]
    },
    "trace": {
        "accountLabels": null,
        "dataMap": {
            "-1": {
                "invocation": {
                    "address": "0x2eaacaf1468f248483cec65254dff98ff95e3387",
                    "callData": "",
                    "decodedMethod": null,
                    "errorInfo": "",
                    "fromAddress": "",
                    "gasUsed": 0,
                    "id": -1,
                    "methodDecoded": false,
                    "operation": "",
                    "output": "",
                    "revert": false,
                    "revertMessage": "",
                    "selector": "",
                    "status": false,
                    "value": ""
                },
                "nodeType": 0
            },
            "0": {
                "invocation": {
                    "address": "0xfbddadd80fe7bda00b901fbaf73803f2238ae655",
                    "callData": "0x0000000000000000000000000000000000000000000000000000000000000001",
                    "decodedMethod": {
                        "callParams": [
                            {
                                "name": "isNaaS",
                                "type": "bool",
                                "value": true
                            }
                        ],
                        "constructorArguments": "",
                        "name": "requestAccess",
                        "returnParams": [],
                        "signature": "requestAccess(bool)"
                    },
                    "errorInfo": "",
                    "fromAddress": "0x2eaacaf1468f248483cec65254dff98ff95e3387",
                    "gasUsed": 129192,
                    "id": 0,
                    "methodDecoded": true,
                    "operation": "CALL",
                    "output": "",
                    "revert": false,
                    "revertMessage": "",
                    "selector": "0x05eec289",
                    "status": true,
                    "value": "0.0065"
                },
                "nodeType": 0
            },
            "1": {
                "invocation": {
                    "address": "0x013c66b6734f6af43b9ee2e8a8bc5138f9ae5557",
                    "callData": "0x0000000000000000000000000000000000000000000000000000000000000001",
                    "decodedMethod": {
                        "callParams": [
                            {
                                "name": "isNaaS",
                                "type": "bool",
                                "value": true
                            }
                        ],
                        "constructorArguments": "",
                        "name": "requestAccess",
                        "returnParams": [],
                        "signature": "requestAccess(bool)"
                    },
                    "errorInfo": "",
                    "fromAddress": "0xfbddadd80fe7bda00b901fbaf73803f2238ae655",
                    "gasUsed": 118515,
                    "id": 1,
                    "methodDecoded": true,
                    "operation": "DELEGATECALL",
                    "output": "",
                    "revert": false,
                    "revertMessage": "",
                    "selector": "0x05eec289",
                    "status": true,
                    "value": "0.0065"
                },
                "nodeType": 0
            },
            "2": {
                "invocation": {
                    "address": "0x4b5057b2c87ec9e7c047fb00c0e406dff2fdacad",
                    "callData": "0x",
                    "decodedMethod": null,
                    "errorInfo": "",
                    "fromAddress": "0xfbddadd80fe7bda00b901fbaf73803f2238ae655",
                    "gasUsed": 0,
                    "id": 2,
                    "methodDecoded": false,
                    "operation": "CALL",
                    "output": "",
                    "revert": false,
                    "revertMessage": "",
                    "selector": "fallback",
                    "status": true,
                    "value": "0.0065"
                },
                "nodeType": 0
            },
            "3": {
                "invocation": {
                    "address": "0x990f341946a3fdb507ae7e52d17851b87168017c",
                    "callData": "0x0000000000000000000000002eaacaf1468f248483cec65254dff98ff95e3387000000000000000000000000fbddadd80fe7bda00b901fbaf73803f2238ae6550000000000000000000000000000000000000000000000008ac7230489e80000",
                    "decodedMethod": {
                        "callParams": [
                            {
                                "name": "sender",
                                "type": "address",
                                "value": "0x2eaacaf1468f248483cec65254dff98ff95e3387"
                            },
                            {
                                "name": "recipient",
                                "type": "address",
                                "value": "0xfbddadd80fe7bda00b901fbaf73803f2238ae655"
                            },
                            {
                                "decimalAvailable": true,
                                "name": "amount",
                                "type": "uint256",
                                "value": "10,000,000,000,000,000,000"
                            }
                        ],
                        "constructorArguments": "",
                        "name": "transferFrom",
                        "returnParams": [
                            {
                                "name": "",
                                "type": "bool",
                                "value": true
                            }
                        ],
                        "signature": "transferFrom(address,address,uint256)"
                    },
                    "errorInfo": "",
                    "fromAddress": "0xfbddadd80fe7bda00b901fbaf73803f2238ae655",
                    "gasUsed": 20682,
                    "id": 3,
                    "methodDecoded": true,
                    "operation": "CALL",
                    "output": "0x0000000000000000000000000000000000000000000000000000000000000001",
                    "revert": false,
                    "revertMessage": "",
                    "selector": "0x23b872dd",
                    "status": true,
                    "value": "0"
                },
                "nodeType": 0
            },
            "4": {
                "event": {
                    "contract": "0x990f341946a3fdb507ae7e52d17851b87168017c",
                    "decodedLog": {
                        "name": "Transfer",
                        "params": [
                            {
                                "name": "from",
                                "type": "address",
                                "value": "0x2eaacaf1468f248483cec65254dff98ff95e3387"
                            },
                            {
                                "name": "to",
                                "type": "address",
                                "value": "0xfbddadd80fe7bda00b901fbaf73803f2238ae655"
                            },
                            {
                                "decimalAvailable": true,
                                "name": "value",
                                "type": "uint256",
                                "value": "10,000,000,000,000,000,000"
                            }
                        ],
                        "signature": "Transfer(address,address,uint256)"
                    },
                    "id": 4,
                    "logData": "0x0000000000000000000000000000000000000000000000008ac7230489e80000",
                    "logDecoded": true,
                    "operation": "EVENT",
                    "revert": false,
                    "status": true,
                    "topics": [
                        "0xddf252ad1be2c89b69c2b068fc378daa952ba7f163c4a11628f55a4df523b3ef",
                        "0x0000000000000000000000002eaacaf1468f248483cec65254dff98ff95e3387",
                        "0x000000000000000000000000fbddadd80fe7bda00b901fbaf73803f2238ae655"
                    ]
                },
                "nodeType": 1
            },
            "5": {
                "event": {
                    "contract": "0x990f341946a3fdb507ae7e52d17851b87168017c",
                    "decodedLog": {
                        "name": "Approval",
                        "params": [
                            {
                                "name": "owner",
                                "type": "address",
                                "value": "0x2eaacaf1468f248483cec65254dff98ff95e3387"
                            },
                            {
                                "name": "spender",
                                "type": "address",
                                "value": "0xfbddadd80fe7bda00b901fbaf73803f2238ae655"
                            },
                            {
                                "decimalAvailable": true,
                                "name": "value",
                                "type": "uint256",
                                "value": "0"
                            }
                        ],
                        "signature": "Approval(address,address,uint256)"
                    },
                    "id": 5,
                    "logData": "0x0000000000000000000000000000000000000000000000000000000000000000",
                    "logDecoded": true,
                    "operation": "EVENT",
                    "revert": false,
                    "status": true,
                    "topics": [
                        "0x8c5be1e5ebec7d5bd14f71427d1e84f3dd0314c0f7b2291e5b200ac8c7c3b925",
                        "0x0000000000000000000000002eaacaf1468f248483cec65254dff98ff95e3387",
                        "0x000000000000000000000000fbddadd80fe7bda00b901fbaf73803f2238ae655"
                    ]
                },
                "nodeType": 1
            },
            "6": {
                "invocation": {
                    "address": "0x990f341946a3fdb507ae7e52d17851b87168017c",
                    "callData": "0x0000000000000000000000004b5057b2c87ec9e7c047fb00c0e406dff2fdacad0000000000000000000000000000000000000000000000008ac7230489e80000",
                    "decodedMethod": {
                        "callParams": [
                            {
                                "name": "recipient",
                                "type": "address",
                                "value": "0x4b5057b2c87ec9e7c047fb00c0e406dff2fdacad"
                            },
                            {
                                "decimalAvailable": true,
                                "name": "amount",
                                "type": "uint256",
                                "value": "10,000,000,000,000,000,000"
                            }
                        ],
                        "constructorArguments": "",
                        "name": "transfer",
                        "returnParams": [
                            {
                                "name": "",
                                "type": "bool",
                                "value": true
                            }
                        ],
                        "signature": "transfer(address,uint256)"
                    },
                    "errorInfo": "",
                    "fromAddress": "0xfbddadd80fe7bda00b901fbaf73803f2238ae655",
                    "gasUsed": 8329,
                    "id": 6,
                    "methodDecoded": true,
                    "operation": "CALL",
                    "output": "0x0000000000000000000000000000000000000000000000000000000000000001",
                    "revert": false,
                    "revertMessage": "",
                    "selector": "0xa9059cbb",
                    "status": true,
                    "value": "0"
                },
                "nodeType": 0
            },
            "7": {
                "event": {
                    "contract": "0x990f341946a3fdb507ae7e52d17851b87168017c",
                    "decodedLog": {
                        "name": "Transfer",
                        "params": [
                            {
                                "name": "from",
                                "type": "address",
                                "value": "0xfbddadd80fe7bda00b901fbaf73803f2238ae655"
                            },
                            {
                                "name": "to",
                                "type": "address",
                                "value": "0x4b5057b2c87ec9e7c047fb00c0e406dff2fdacad"
                            },
                            {
                                "decimalAvailable": true,
                                "name": "value",
                                "type": "uint256",
                                "value": "10,000,000,000,000,000,000"
                            }
                        ],
                        "signature": "Transfer(address,address,uint256)"
                    },
                    "id": 7,
                    "logData": "0x0000000000000000000000000000000000000000000000008ac7230489e80000",
                    "logDecoded": true,
                    "operation": "EVENT",
                    "revert": false,
                    "status": true,
                    "topics": [
                        "0xddf252ad1be2c89b69c2b068fc378daa952ba7f163c4a11628f55a4df523b3ef",
                        "0x000000000000000000000000fbddadd80fe7bda00b901fbaf73803f2238ae655",
                        "0x0000000000000000000000004b5057b2c87ec9e7c047fb00c0e406dff2fdacad"
                    ]
                },
                "nodeType": 1
            },
            "8": {
                "event": {
                    "contract": "0xfbddadd80fe7bda00b901fbaf73803f2238ae655",
                    "decodedLog": {
                        "name": "Paid",
                        "params": [
                            {
                                "name": "entity",
                                "type": "address",
                                "value": "0x2eaacaf1468f248483cec65254dff98ff95e3387"
                            },
                            {
                                "name": "nodeId",
                                "type": "uint128",
                                "value": "37"
                            },
                            {
                                "name": "isBYON",
                                "type": "bool",
                                "value": false
                            },
                            {
                                "name": "isRenewal",
                                "type": "bool",
                                "value": false
                            },
                            {
                                "name": "upToBlockNumber",
                                "type": "uint256",
                                "value": "12,828,119"
                            }
                        ],
                        "signature": "Paid(address,uint128,bool,bool,uint256)"
                    },
                    "id": 8,
                    "logData": "0x0000000000000000000000000000000000000000000000000000000000000025000000000000000000000000000000000000000000000000000000000000000000000000000000000000000000000000000000000000000000000000000000000000000000000000000000000000000000000000000000000000000000c3bdd7",
                    "logDecoded": true,
                    "operation": "EVENT",
                    "revert": false,
                    "status": true,
                    "topics": [
                        "0x39b0a0620bb668047ab7248973ddfd93d53dff1d4952bd2d56bbf5934edc1fd0",
                        "0x0000000000000000000000002eaacaf1468f248483cec65254dff98ff95e3387"
                    ]
                },
                "nodeType": 1
            }
        },
        "gasFlame": [
            {
                "children": [
                    {
                        "children": [
                            {
                                "children": [],
                                "depth": 0,
                                "name": "Initial Gas",
                                "value": 21204
                            },
                            {
                                "children": [
                                    {
                                        "children": [
                                            {
                                                "children": [],
                                                "depth": 2,
                                                "name": "fallback",
                                                "value": 0
                                            },
                                            {
                                                "children": [],
                                                "depth": 2,
                                                "name": "transferFrom",
                                                "value": 20682
                                            },
                                            {
                                                "children": [],
                                                "depth": 2,
                                                "name": "transfer",
                                                "value": 8329
                                            }
                                        ],
                                        "depth": 1,
                                        "name": "requestAccess",
                                        "value": 118515
                                    }
                                ],
                                "depth": 0,
                                "name": "Executed Gas",
                                "value": 125788
                            }
                        ],
                        "depth": -1,
                        "name": "Actual Gas Used",
                        "value": 129192
                    },
                    {
                        "children": [],
                        "depth": -1,
                        "name": "Refunded Gas",
                        "value": 17800
                    }
                ],
                "depth": -2,
                "name": "Total Gas",
                "value": 146992
            }
        ],
        "isConfirmed": true,
        "mainTrace": [
            {
                "children": [
                    {
                        "children": [
                            {
                                "children": [
                                    {
                                        "children": [],
                                        "depth": 2,
                                        "id": 2,
                                        "order": 2
                                    },
                                    {
                                        "children": [
                                            {
                                                "children": [],
                                                "depth": 3,
                                                "id": 4,
                                                "order": 4
                                            },
                                            {
                                                "children": [],
                                                "depth": 3,
                                                "id": 5,
                                                "order": 5
                                            }
                                        ],
                                        "depth": 2,
                                        "id": 3,
                                        "order": 3
                                    },
                                    {
                                        "children": [
                                            {
                                                "children": [],
                                                "depth": 3,
                                                "id": 7,
                                                "order": 7
                                            }
                                        ],
                                        "depth": 2,
                                        "id": 6,
                                        "order": 6
                                    },
                                    {
                                        "children": [],
                                        "depth": 2,
                                        "id": 8,
                                        "order": 8
                                    }
                                ],
                                "depth": 1,
                                "id": 1,
                                "order": 1
                            }
                        ],
                        "depth": 0,
                        "id": 0,
                        "order": 0
                    }
                ],
                "depth": -1,
                "id": -1,
                "order": -1
            }
        ],
        "mainTraceNodeCount": 9,
        "parentIdMap": {
            "0": -1,
            "1": 0,
            "2": 1,
            "3": 1,
            "4": 3,
            "5": 3,
            "6": 1,
            "7": 6,
            "8": 1
        },
        "tidyTrace": [
            {
                "children": [
                    {
                        "children": [
                            {
                                "children": [
                                    {
                                        "children": [],
                                        "depth": 2,
                                        "id": 2,
                                        "order": 2
                                    },
                                    {
                                        "children": [
                                            {
                                                "children": [],
                                                "depth": 3,
                                                "id": 4,
                                                "order": 4
                                            },
                                            {
                                                "children": [],
                                                "depth": 3,
                                                "id": 5,
                                                "order": 5
                                            }
                                        ],
                                        "depth": 2,
                                        "id": 3,
                                        "order": 3
                                    },
                                    {
                                        "children": [
                                            {
                                                "children": [],
                                                "depth": 3,
                                                "id": 7,
                                                "order": 7
                                            }
                                        ],
                                        "depth": 2,
                                        "id": 6,
                                        "order": 6
                                    },
                                    {
                                        "children": [],
                                        "depth": 2,
                                        "id": 8,
                                        "order": 8
                                    }
                                ],
                                "depth": 1,
                                "id": 1,
                                "order": 1
                            }
                        ],
                        "depth": 0,
                        "id": 0,
                        "order": 0
                    }
                ],
                "depth": -1,
                "id": -1,
                "order": -1
            }
        ],
        "tidyTraceNodeCount": 9
    },
    "state_change": {
        "stateChanges": [
            {
                "address": "0x990f341946a3fdb507ae7e52d17851b87168017c",
                "erc": "ERC-20",
                "slots": [
                    {
                        "current": "0x0000000000000000000000000000000000000000000000000000000000000000",
                        "key": "0x361f4cce389acf0d9ff315f3065ca4b89531e5d16367d3142469c5ef64efc259",
                        "prev": "0x0000000000000000000000000000000000000000000000008ac7230489e80000"
                    },
                    {
                        "current": "0x000000000000000000000000000000000000000000000227dbe1400c64900000",
                        "key": "0x22f3bb6e20228ff9506aa44e728a5be8a0649cc4d1d1527f930e3f6e6229c633",
                        "prev": "0x000000000000000000000000000000000000000000000227511a1d07daa80000"
                    },
                    {
                        "current": "0x0000000000000000000000000000000000000000000000002a2f08110efa920d",
                        "key": "0x2fb18a788e4a33df4ac3df20d03f04709f54662fabf68dea2c30b60cc4dc677c",
                        "prev": "0x000000000000000000000000000000000000000000000000b4f62b1598e2920d"
                    }
                ],
                "storageVariables": [
                    {
                        "name": "_balances",
                        "type": "mapping(address => uint256)",
                        "value": {
                            "pairs": [
                                {
                                    "key": "0x2eaacaf1468f248483cec65254dff98ff95e3387",
                                    "value": {
                                        "current": "3039657142857142797",
                                        "prev": "13039657142857142797",
                                        "typeTag": 1
                                    }
                                },
                                {
                                    "key": "0x4b5057b2c87ec9e7c047fb00c0e406dff2fdacad",
                                    "value": {
                                        "current": "10180000000000000000000",
                                        "prev": "10170000000000000000000",
                                        "typeTag": 1
                                    }
                                }
                            ],
                            "typeTag": 4
                        }
                    },
                    {
                        "name": "_allowances",
                        "type": "mapping(address => mapping(address => uint256))",
                        "value": {
                            "pairs": [
                                {
                                    "key": "0x2eaacaf1468f248483cec65254dff98ff95e3387",
                                    "value": {
                                        "pairs": [
                                            {
                                                "key": "0xfbddadd80fe7bda00b901fbaf73803f2238ae655",
                                                "value": {
                                                    "current": "0",
                                                    "prev": "10000000000000000000",
                                                    "typeTag": 1
                                                }
                                            }
                                        ],
                                        "typeTag": 4
                                    }
                                }
                            ],
                            "typeTag": 4
                        }
                    }
                ]
            },
            {
                "address": "0xfbddadd80fe7bda00b901fbaf73803f2238ae655",
                "erc": "",
                "slots": [
                    {
                        "current": "0x0000000000000000000000000000000000000000000000000000000000c0b837",
                        "key": "0x1f6de403935195cbf9df8debd0ebca3db881ebf4db5adb785aa5b5b44fc8fc8d",
                        "prev": "0x0000000000000000000000000000000000000000000000000000000000000000"
                    },
                    {
                        "current": "0x0000000000000000000000000000000000000000000000000000000000c0b837",
                        "key": "0xe556166845e28017620b98817e4910231d3a5ca1601b060c393da1499d75140d",
                        "prev": "0x0000000000000000000000000000000000000000000000000000000000000000"
                    },
                    {
                        "current": "0x0000000000000000000000000000000000000000000000000000000000000025",
                        "key": "0x867e2f851ab03bcf7e5462839bbfa978548fedc49e12742fff1822d6a248992e",
                        "prev": "0x0000000000000000000000000000000000000000000000000000000000000024"
                    },
                    {
                        "current": "0x0000000000000000000000000000000000000000000000000000000000009014",
                        "key": "0x000000000000000000000000000000000000000000000000000000000000001c",
                        "prev": "0x0000000000000000000000000000000000000000000000000000000000009013"
                    }
                ],
                "storageVariables": [
                    {
                        "name": "activeEntities",
                        "type": "uint256",
                        "value": {
                            "current": "36884",
                            "prev": "36883",
                            "typeTag": 1
                        }
                    },
                    {
                        "name": "entityNodePaidOnBlock",
                        "type": "mapping(bytes => uint256)",
                        "value": {
                            "pairs": [
                                {
                                    "key": "0x2eaacaf1468f248483cec65254dff98ff95e338700000000000000000000000000000025",
                                    "value": {
                                        "current": "12630071",
                                        "prev": "0",
                                        "typeTag": 1
                                    }
                                }
                            ],
                            "typeTag": 4
                        }
                    },
                    {
                        "name": "entityNodeClaimedOnBlock",
                        "type": "mapping(bytes => uint256)",
                        "value": {
                            "pairs": [
                                {
                                    "key": "0x2eaacaf1468f248483cec65254dff98ff95e338700000000000000000000000000000025",
                                    "value": {
                                        "current": "12630071",
                                        "prev": "0",
                                        "typeTag": 1
                                    }
                                }
                            ],
                            "typeTag": 4
                        }
                    },
                    {
                        "name": "entityNodeCount",
                        "type": "mapping(address => uint128)",
                        "value": {
                            "pairs": [
                                {
                                    "key": "0x2eaacaf1468f248483cec65254dff98ff95e3387",
                                    "value": {
                                        "current": "37",
                                        "prev": "36",
                                        "typeTag": 1
                                    }
                                }
                            ],
                            "typeTag": 4
                        }
                    }
                ]
            }
        ]
    }
}