{
    "balance_change": {
        "balanceChanges": []
    },
    "profile": {
        "basic_info": {
            "baseFee": "",
            "blockNumber": 6014313,
            "callData": "0xa9059cbb000000000000000000000000ff6bf69bc0c4c6a4e3f8a9b5952c4c2459f49103000000000000000000000000000000000000000000018accb5ae33fbb877c000",
            "debugEnable": true,
            "errorInfo": "invalid opcode: INVALID",
            "eventCount": 0,
            "feeRecipient": "0x5a0b54d5dc17e0aadc383d2db43b0a0d3e029c4c",
            "formatValue": "0",
            "gasLimit": 35000,
            "gasPrice": "41",
            "gasUsed": 35000,
            "intTxnCount": 0,
            "internalRevert": false,
            "internalRevertMessage": "",
            "isContractCreation": false,
            "isFlashloan": false,
            "maxFee": "",
            "nonce": 1216,
            "overwritedBlockNumber": -1,
            "priorityFee": "",
            "receiver": "0x818fc6c2ec5986bc6e2cbf00939d90556ab12ce5",
            "revertMessage": "",
            "sender": "0x398a58b2e3790431fdac1ea56017e65401fa9988",
            "simulationEnable": true,
            "sourceTxnHash": "0x1477325911a44efca490828c7ac7329b255584c75f3abc20f6650171fe43b5b0",
            "status": false,
            "timestamp": "2018-07-23T06:16:42Z",
            "transactionFee": "0.001435",
            "txnHash": "0x1477325911a44efca490828c7ac7329b255584c75f3abc20f6650171fe43b5b0",
            "txnIndex": 32,
            "type": 0,
            "value": "0"
        },
        "fund_flow": [],
        "token_infos": [
            {
                "address": "0xc02aaa39b223fe8d0a0e5c4f27ead9083c756cc2",
                "decimals": 18
            },
            {
                "address": "0xeeeeeeeeeeeeeeeeeeeeeeeeeeeeeeeeeeeeeeee",
                "decimals": 18
            }
        ]
    },
    "address_label": {
        "labels": [
            {
                "address": "0x818fc6c2ec5986bc6e2cbf00939d90556ab12ce5",
                "label": "Kin: Old Token"
            },
            {
                "address": "0x0000000000000000000000000000000000000001",
                "label": "Precompiled"
            },
            {
                "address": "0x0000000000000000000000000000000000000002",
                "label": "Precompiled"
            },
            {
                "address": "0x0000000000000000000000000000000000000003",
                "label": "Precompiled"
            },
            {
                "address": "0x0000000000000000000000000000000000000004",
                "label": "Precompiled"
            },
            {
                "address": "0xeeeeeeeeeeeeeeeeeeeeeeeeeeeeeeeeeeeeeeee",
                "label": "Ether"
            }
        ]
    },
    "trace": {
        "accountLabels": null,
        "dataMap": {
            "-1": {
                "invocation": {
                    "address": "0x398a58b2e3790431fdac1ea56017e65401fa9988",
                    "callData": "",
                    "decodedMethod": null,
                    "errorInfo": "",
                    "fromAddress": "",
                    "gasUsed": 0,
                    "id": -1,
                    "methodDecoded": false,
                    "operation": "",
                    "output": "",
                    "revert": false,
                    "revertMessage": "",
                    "selector": "",
                    "status": false,
                    "value": ""
                },
                "nodeType": 0
            },
            "0": {
                "invocation": {
                    "address": "0x818fc6c2ec5986bc6e2cbf00939d90556ab12ce5",
                    "callData": "0x000000000000000000000000ff6bf69bc0c4c6a4e3f8a9b5952c4c2459f49103000000000000000000000000000000000000000000018accb5ae33fbb877c000",
                    "decodedMethod": {
                        "callParams": [
                            {
                                "name": "_to",
                                "type": "address",
                                "value": "0xff6bf69bc0c4c6a4e3f8a9b5952c4c2459f49103"
                            },
                            {
                                "decimalAvailable": true,
                                "name": "_value",
                                "type": "uint256",
                                "value": "1,864,388,621,500,000,000,000,000"
                            }
                        ],
                        "constructorArguments": "",
                        "name": "transfer",
                        "returnParams": [],
                        "signature": "transfer(address,uint256)"
                    },
                    "errorInfo": "invalid opcode: INVALID",
                    "fromAddress": "0x398a58b2e3790431fdac1ea56017e65401fa9988",
                    "gasUsed": 35000,
                    "id": 0,
                    "methodDecoded": true,
                    "operation": "CALL",
                    "output": "",
                    "revert": true,
                    "revertMessage": "",
                    "selector": "0xa9059cbb",
                    "status": false,
                    "value": "0"
                },
                "nodeType": 0
            }
        },
        "gasFlame": [
            {
                "children": [
                    {
                        "children": [
                            {
                                "children": [],
                                "depth": 0,
                                "name": "Initial Gas",
                                "value": 23448
                            },
                            {
                                "children": [],
                                "depth": 0,
                                "name": "Executed Gas",
                                "value": 11552
                            }
                        ],
                        "depth": -1,
                        "name": "Actual Gas Used",
                        "value": 35000
                    },
                    {
                        "children": [],
                        "depth": -1,
                        "name": "Refunded Gas",
                        "value": 0
                    }
                ],
                "depth": -2,
                "name": "Total Gas",
                "value": 35000
            }
        ],
        "isConfirmed": true,
        "mainTrace": [
            {
                "children": [
                    {
                        "children": [],
                        "depth": 0,
                        "id": 0,
                        "order": 0
                    }
                ],
                "depth": -1,
                "id": -1,
                "order": -1
            }
        ],
        "mainTraceNodeCount": 1,
        "parentIdMap": {
            "0": -1
        },
        "tidyTrace": [
            {
                "children": [
                    {
                        "children": [],
                        "depth": 0,
                        "id": 0,
                        "order": 0
                    }
                ],
                "depth": -1,
                "id": -1,
                "order": -1
            }
        ],
        "tidyTraceNodeCount": 1
    },
    "state_change": {
        "stateChanges": []
    }
}