{
    "balance_change": {
        "balanceChanges": [
            {
                "account": "0xefdcf2c36f3756ce7247628afdb632fa4ee12ec5",
                "assets": [
                    {
                        "address": "0x53066cddbc0099eb6c96785d9b3df2aaeede5da3",
                        "amount": "10",
                        "iconUrl": "",
                        "isERC1155": false,
                        "isERC721": false,
                        "sign": false,
                        "value": ""
                    }
                ]
            },
            {
                "account": "0x5b60857ea03a81531365be6a3f97a82c8fde5532",
                "assets": [
                    {
                        "address": "0x53066cddbc0099eb6c96785d9b3df2aaeede5da3",
                        "amount": "10",
                        "iconUrl": "",
                        "isERC1155": false,
                        "isERC721": false,
                        "sign": true,
                        "value": ""
                    }
                ]
            }
        ]
    },
    "profile": {
        "basic_info": {
            "baseFee": "",
            "blockNumber": 5195460,
            "callData": "0xa9059cbb0000000000000000000000005b60857ea03a81531365be6a3f97a82c8fde55320000000000000000000000000000000000000000000000008ac7230489e80000",
            "debugEnable": true,
            "errorInfo": "",
            "eventCount": 1,
            "feeRecipient": "0x829bd824b016326a401d083b33d092293333a830",
            "formatValue": "0",
            "gasLimit": 60000,
            "gasPrice": "9",
            "gasUsed": 51839,
            "intTxnCount": 0,
            "internalRevert": false,
            "internalRevertMessage": "",
            "isContractCreation": false,
            "isFlashloan": false,
            "maxFee": "",
            "nonce": 19682,
            "overwritedBlockNumber": -1,
            "priorityFee": "",
            "receiver": "0x53066cddbc0099eb6c96785d9b3df2aaeede5da3",
            "revertMessage": "",
            "sender": "0xefdcf2c36f3756ce7247628afdb632fa4ee12ec5",
            "simulationEnable": true,
            "sourceTxnHash": "0x148a3a1bbabd6b8e7e043c8b0f2e2f0ebc1e761ee2d47089ede3a30a2ef556a4",
            "status": true,
            "timestamp": "2018-03-04T14:47:11Z",
            "transactionFee": "0.000466551",
            "txnHash": "0x148a3a1bbabd6b8e7e043c8b0f2e2f0ebc1e761ee2d47089ede3a30a2ef556a4",
            "txnIndex": 45,
            "type": 0,
            "value": "0"
        },
        "fund_flow": [
            {
                "amount": "10",
                "from": "0xefdcf2c36f3756ce7247628afdb632fa4ee12ec5",
                "id": 1,
                "isERC1155": false,
                "isERC721": false,
                "isReverted": false,
                "order": 1,
                "to": "0x5b60857ea03a81531365be6a3f97a82c8fde5532",
                "token": "0x53066cddbc0099eb6c96785d9b3df2aaeede5da3"
            }
        ],
        "token_infos": [
            {
                "address": "0x53066cddbc0099eb6c96785d9b3df2aaeede5da3",
                "decimals": 18
            },
            {
                "address": "0xc02aaa39b223fe8d0a0e5c4f27ead9083c756cc2",
                "decimals": 18
            },
            {
                "address": "0xeeeeeeeeeeeeeeeeeeeeeeeeeeeeeeeeeeeeeeee",
                "decimals": 18
            }
        ]
    },
    "address_label": {
        "labels": [
            {
                "address": "0x0000000000000000000000000000000000000002",
                "label": "Precompiled"
            },
            {
                "address": "0x0000000000000000000000000000000000000003",
                "label": "Precompiled"
            },
            {
                "address": "0x0000000000000000000000000000000000000004",
                "label": "Precompiled"
            },
            {
                "address": "0xeeeeeeeeeeeeeeeeeeeeeeeeeeeeeeeeeeeeeeee",
                "label": "Ether"
            },
            {
                "address": "0x53066cddbc0099eb6c96785d9b3df2aaeede5da3",
                "label": "Penta Network: PNT Token"
            },
            {
                "address": "0x0000000000000000000000000000000000000001",
                "label": "Precompiled"
            }
        ]
    },
    "trace": {
        "accountLabels": null,
        "dataMap": {
            "-1": {
                "invocation": {
                    "address": "0xefdcf2c36f3756ce7247628afdb632fa4ee12ec5",
                    "callData": "",
                    "decodedMethod": null,
                    "errorInfo": "",
                    "fromAddress": "",
                    "gasUsed": 0,
                    "id": -1,
                    "methodDecoded": false,
                    "operation": "",
                    "output": "",
                    "revert": false,
                    "revertMessage": "",
                    "selector": "",
                    "status": false,
                    "value": ""
                },
                "nodeType": 0
            },
            "0": {
                "invocation": {
                    "address": "0x53066cddbc0099eb6c96785d9b3df2aaeede5da3",
                    "callData": "0x0000000000000000000000005b60857ea03a81531365be6a3f97a82c8fde55320000000000000000000000000000000000000000000000008ac7230489e80000",
                    "decodedMethod": {
                        "callParams": [
                            {
                                "name": "_to",
                                "type": "address",
                                "value": "0x5b60857ea03a81531365be6a3f97a82c8fde5532"
                            },
                            {
                                "decimalAvailable": true,
                                "name": "_value",
                                "type": "uint256",
                                "value": "10,000,000,000,000,000,000"
                            }
                        ],
                        "constructorArguments": "",
                        "name": "transfer",
                        "returnParams": [
                            {
                                "name": "",
                                "type": "bool",
                                "value": true
                            }
                        ],
                        "signature": "transfer(address,uint256)"
                    },
                    "errorInfo": "",
                    "fromAddress": "0xefdcf2c36f3756ce7247628afdb632fa4ee12ec5",
                    "gasUsed": 51839,
                    "id": 0,
                    "methodDecoded": true,
                    "operation": "CALL",
                    "output": "0x0000000000000000000000000000000000000000000000000000000000000001",
                    "revert": false,
                    "revertMessage": "",
                    "selector": "0xa9059cbb",
                    "status": true,
                    "value": "0"
                },
                "nodeType": 0
            },
            "1": {
                "event": {
                    "contract": "0x53066cddbc0099eb6c96785d9b3df2aaeede5da3",
                    "decodedLog": {
                        "name": "Transfer",
                        "params": [
                            {
                                "name": "from",
                                "type": "address",
                                "value": "0xefdcf2c36f3756ce7247628afdb632fa4ee12ec5"
                            },
                            {
                                "name": "to",
                                "type": "address",
                                "value": "0x5b60857ea03a81531365be6a3f97a82c8fde5532"
                            },
                            {
                                "decimalAvailable": true,
                                "name": "value",
                                "type": "uint256",
                                "value": "10,000,000,000,000,000,000"
                            }
                        ],
                        "signature": "Transfer(address,address,uint256)"
                    },
                    "id": 1,
                    "logData": "0x0000000000000000000000000000000000000000000000008ac7230489e80000",
                    "logDecoded": true,
                    "operation": "EVENT",
                    "revert": false,
                    "status": true,
                    "topics": [
                        "0xddf252ad1be2c89b69c2b068fc378daa952ba7f163c4a11628f55a4df523b3ef",
                        "0x000000000000000000000000efdcf2c36f3756ce7247628afdb632fa4ee12ec5",
                        "0x0000000000000000000000005b60857ea03a81531365be6a3f97a82c8fde5532"
                    ]
                },
                "nodeType": 1
            }
        },
        "gasFlame": [
            {
                "children": [
                    {
                        "children": [
                            {
                                "children": [],
                                "depth": 0,
                                "name": "Initial Gas",
                                "value": 23192
                            },
                            {
                                "children": [],
                                "depth": 0,
                                "name": "Executed Gas",
                                "value": 28647
                            }
                        ],
                        "depth": -1,
                        "name": "Actual Gas Used",
                        "value": 51839
                    },
                    {
                        "children": [],
                        "depth": -1,
                        "name": "Refunded Gas",
                        "value": 0
                    }
                ],
                "depth": -2,
                "name": "Total Gas",
                "value": 51839
            }
        ],
        "isConfirmed": true,
        "mainTrace": [
            {
                "children": [
                    {
                        "children": [
                            {
                                "children": [],
                                "depth": 1,
                                "id": 1,
                                "order": 1
                            }
                        ],
                        "depth": 0,
                        "id": 0,
                        "order": 0
                    }
                ],
                "depth": -1,
                "id": -1,
                "order": -1
            }
        ],
        "mainTraceNodeCount": 2,
        "parentIdMap": {
            "0": -1,
            "1": 0
        },
        "tidyTrace": [
            {
                "children": [
                    {
                        "children": [
                            {
                                "children": [],
                                "depth": 1,
                                "id": 1,
                                "order": 1
                            }
                        ],
                        "depth": 0,
                        "id": 0,
                        "order": 0
                    }
                ],
                "depth": -1,
                "id": -1,
                "order": -1
            }
        ],
        "tidyTraceNodeCount": 2
    },
    "state_change": {
        "stateChanges": [
            {
                "address": "0x53066cddbc0099eb6c96785d9b3df2aaeede5da3",
                "erc": "ERC-20",
                "slots": [
                    {
                        "current": "0x00000000000000000000000000000000000000000000500ae10373262e580000",
                        "key": "0x69ab163ed3b01e67dbeb661d1dd1319ec9a159c5c12549e6f655338a4b9f6569",
                        "prev": "0x00000000000000000000000000000000000000000000500b6bca962ab8400000"
                    },
                    {
                        "current": "0x0000000000000000000000000000000000000000000000008ac7230489e80000",
                        "key": "0xf6adbd948eb4dda548d3159a8a6861cacb3d732af00cf9e1010bad313beccfcc",
                        "prev": "0x0000000000000000000000000000000000000000000000000000000000000000"
                    }
                ],
                "storageVariables": [
                    {
                        "name": "balances",
                        "type": "mapping(address => uint256)",
                        "value": {
                            "pairs": [
                                {
                                    "key": "0x5b60857ea03a81531365be6a3f97a82c8fde5532",
                                    "value": {
                                        "current": "10000000000000000000",
                                        "prev": "0",
                                        "typeTag": 1
                                    }
                                },
                                {
                                    "key": "0xefdcf2c36f3756ce7247628afdb632fa4ee12ec5",
                                    "value": {
                                        "current": "377990000000000000000000",
                                        "prev": "378000000000000000000000",
                                        "typeTag": 1
                                    }
                                }
                            ],
                            "typeTag": 4
                        }
                    }
                ]
            }
        ]
    }
}