{
    "balance_change": {
        "balanceChanges": [
            {
                "account": "0x6a09032ceced598fe937e4318666632e3397b193",
                "assets": [
                    {
                        "address": "0x2ec14b5e4393bacb6f1bd3df7e9673e731afdc07",
                        "amount": "1",
                        "iconUrl": "",
                        "isERC1155": false,
                        "isERC721": true,
                        "sign": false,
                        "tokenID": "14",
                        "value": ""
                    }
                ]
            },
            {
                "account": "0xfeb7fc26a3f9a91706ac001c55dcbaaa8b1e18e9",
                "assets": [
                    {
                        "address": "0x2ec14b5e4393bacb6f1bd3df7e9673e731afdc07",
                        "amount": "1",
                        "iconUrl": "",
                        "isERC1155": false,
                        "isERC721": true,
                        "sign": true,
                        "tokenID": "14",
                        "value": ""
                    }
                ]
            }
        ]
    },
    "profile": {
        "basic_info": {
            "baseFee": "10.124965201",
            "blockNumber": 15326932,
            "callData": "0x23b872dd0000000000000000000000006a09032ceced598fe937e4318666632e3397b193000000000000000000000000feb7fc26a3f9a91706ac001c55dcbaaa8b1e18e9000000000000000000000000000000000000000000000000000000000000000e",
            "debugEnable": true,
            "errorInfo": "",
            "eventCount": 2,
            "feeRecipient": "0xc730b028da66ebb14f20e67c68dd809fbc49890d",
            "formatValue": "0",
            "gasLimit": 140550,
            "gasPrice": "11.624965201",
            "gasUsed": 88900,
            "intTxnCount": 0,
            "internalRevert": false,
            "internalRevertMessage": "",
            "isContractCreation": false,
            "isFlashloan": false,
            "maxFee": "14.630353198",
            "nonce": 141,
            "overwritedBlockNumber": -1,
            "priorityFee": "1.5",
            "receiver": "0x2ec14b5e4393bacb6f1bd3df7e9673e731afdc07",
            "revertMessage": "",
            "sender": "0x6a09032ceced598fe937e4318666632e3397b193",
            "simulationEnable": true,
            "sourceTxnHash": "0x14a455949eb8b0deac8f2521b0a3f8ac2237dd519fe7bf9f96e6c76169383e58",
            "status": true,
            "timestamp": "2022-08-12T12:16:40Z",
            "transactionFee": "0.0010334594063689",
            "txnHash": "0x14a455949eb8b0deac8f2521b0a3f8ac2237dd519fe7bf9f96e6c76169383e58",
            "txnIndex": 192,
            "type": 2,
            "value": "0"
        },
        "fund_flow": [
            {
                "amount": "1",
                "from": "0x6a09032ceced598fe937e4318666632e3397b193",
                "id": 1,
                "isERC1155": false,
                "isERC721": true,
                "isReverted": false,
                "order": 1,
                "to": "0xfeb7fc26a3f9a91706ac001c55dcbaaa8b1e18e9",
                "token": "0x2ec14b5e4393bacb6f1bd3df7e9673e731afdc07",
                "tokenID": "14"
            }
        ],
        "token_infos": [
            {
                "address": "0xeeeeeeeeeeeeeeeeeeeeeeeeeeeeeeeeeeeeeeee",
                "decimals": 18
            },
            {
                "address": "0xc02aaa39b223fe8d0a0e5c4f27ead9083c756cc2",
                "decimals": 18
            }
        ]
    },
    "address_label": {
        "labels": [
            {
                "address": "0x0000000000000000000000000000000000000001",
                "label": "Precompiled"
            },
            {
                "address": "0x0000000000000000000000000000000000000002",
                "label": "Precompiled"
            },
            {
                "address": "0x0000000000000000000000000000000000000003",
                "label": "Precompiled"
            },
            {
                "address": "0x0000000000000000000000000000000000000004",
                "label": "Precompiled"
            },
            {
                "address": "0xeeeeeeeeeeeeeeeeeeeeeeeeeeeeeeeeeeeeeeee",
                "label": "Ether"
            },
            {
                "address": "0x2ec14b5e4393bacb6f1bd3df7e9673e731afdc07",
                "label": "420 Budz &quot;The Founders Co... (BUDZ)"
            }
        ]
    },
    "trace": {
        "accountLabels": null,
        "dataMap": {
            "-1": {
                "invocation": {
                    "address": "0x6a09032ceced598fe937e4318666632e3397b193",
                    "callData": "",
                    "decodedMethod": null,
                    "errorInfo": "",
                    "fromAddress": "",
                    "gasUsed": 0,
                    "id": -1,
                    "methodDecoded": false,
                    "operation": "",
                    "output": "",
                    "revert": false,
                    "revertMessage": "",
                    "selector": "",
                    "status": false,
                    "value": ""
                },
                "nodeType": 0
            },
            "0": {
                "invocation": {
                    "address": "0x2ec14b5e4393bacb6f1bd3df7e9673e731afdc07",
                    "callData": "0x0000000000000000000000006a09032ceced598fe937e4318666632e3397b193000000000000000000000000feb7fc26a3f9a91706ac001c55dcbaaa8b1e18e9000000000000000000000000000000000000000000000000000000000000000e",
                    "decodedMethod": {
                        "callParams": [
                            {
                                "name": "from",
                                "type": "address",
                                "value": "0x6a09032ceced598fe937e4318666632e3397b193"
                            },
                            {
                                "name": "to",
                                "type": "address",
                                "value": "0xfeb7fc26a3f9a91706ac001c55dcbaaa8b1e18e9"
                            },
                            {
                                "decimalAvailable": true,
                                "name": "tokenId",
                                "type": "uint256",
                                "value": "14"
                            }
                        ],
                        "constructorArguments": "",
                        "name": "transferFrom",
                        "returnParams": [],
                        "signature": "transferFrom(address,address,uint256)"
                    },
                    "errorInfo": "",
                    "fromAddress": "0x6a09032ceced598fe937e4318666632e3397b193",
                    "gasUsed": 88900,
                    "id": 0,
                    "methodDecoded": true,
                    "operation": "CALL",
                    "output": "",
                    "revert": false,
                    "revertMessage": "",
                    "selector": "0x23b872dd",
                    "status": true,
                    "value": "0"
                },
                "nodeType": 0
            },
            "1": {
                "event": {
                    "contract": "0x2ec14b5e4393bacb6f1bd3df7e9673e731afdc07",
                    "decodedLog": {
                        "name": "Approval",
                        "params": [
                            {
                                "name": "owner",
                                "type": "address",
                                "value": "0x6a09032ceced598fe937e4318666632e3397b193"
                            },
                            {
                                "name": "approved",
                                "type": "address",
                                "value": "0x0000000000000000000000000000000000000000"
                            },
                            {
                                "decimalAvailable": true,
                                "name": "tokenId",
                                "type": "uint256",
                                "value": "14"
                            }
                        ],
                        "signature": "Approval(address,address,uint256)"
                    },
                    "id": 1,
                    "logData": "0x",
                    "logDecoded": true,
                    "operation": "EVENT",
                    "revert": false,
                    "status": true,
                    "topics": [
                        "0x8c5be1e5ebec7d5bd14f71427d1e84f3dd0314c0f7b2291e5b200ac8c7c3b925",
                        "0x0000000000000000000000006a09032ceced598fe937e4318666632e3397b193",
                        "0x0000000000000000000000000000000000000000000000000000000000000000",
                        "0x000000000000000000000000000000000000000000000000000000000000000e"
                    ]
                },
                "nodeType": 1
            },
            "2": {
                "event": {
                    "contract": "0x2ec14b5e4393bacb6f1bd3df7e9673e731afdc07",
                    "decodedLog": {
                        "name": "Transfer",
                        "params": [
                            {
                                "name": "from",
                                "type": "address",
                                "value": "0x6a09032ceced598fe937e4318666632e3397b193"
                            },
                            {
                                "name": "to",
                                "type": "address",
                                "value": "0xfeb7fc26a3f9a91706ac001c55dcbaaa8b1e18e9"
                            },
                            {
                                "decimalAvailable": true,
                                "name": "tokenId",
                                "type": "uint256",
                                "value": "14"
                            }
                        ],
                        "signature": "Transfer(address,address,uint256)"
                    },
                    "id": 2,
                    "logData": "0x",
                    "logDecoded": true,
                    "operation": "EVENT",
                    "revert": false,
                    "status": true,
                    "topics": [
                        "0xddf252ad1be2c89b69c2b068fc378daa952ba7f163c4a11628f55a4df523b3ef",
                        "0x0000000000000000000000006a09032ceced598fe937e4318666632e3397b193",
                        "0x000000000000000000000000feb7fc26a3f9a91706ac001c55dcbaaa8b1e18e9",
                        "0x000000000000000000000000000000000000000000000000000000000000000e"
                    ]
                },
                "nodeType": 1
            }
        },
        "gasFlame": [
            {
                "children": [
                    {
                        "children": [
                            {
                                "children": [],
                                "depth": 0,
                                "name": "Initial Gas",
                                "value": 21928
                            },
                            {
                                "children": [],
                                "depth": 0,
                                "name": "Executed Gas",
                                "value": 71772
                            }
                        ],
                        "depth": -1,
                        "name": "Actual Gas Used",
                        "value": 88900
                    },
                    {
                        "children": [],
                        "depth": -1,
                        "name": "Refunded Gas",
                        "value": 4800
                    }
                ],
                "depth": -2,
                "name": "Total Gas",
                "value": 93700
            }
        ],
        "isConfirmed": true,
        "mainTrace": [
            {
                "children": [
                    {
                        "children": [
                            {
                                "children": [],
                                "depth": 1,
                                "id": 1,
                                "order": 1
                            },
                            {
                                "children": [],
                                "depth": 1,
                                "id": 2,
                                "order": 2
                            }
                        ],
                        "depth": 0,
                        "id": 0,
                        "order": 0
                    }
                ],
                "depth": -1,
                "id": -1,
                "order": -1
            }
        ],
        "mainTraceNodeCount": 3,
        "parentIdMap": {
            "0": -1,
            "1": 0,
            "2": 0
        },
        "tidyTrace": [
            {
                "children": [
                    {
                        "children": [
                            {
                                "children": [],
                                "depth": 1,
                                "id": 1,
                                "order": 1
                            },
                            {
                                "children": [],
                                "depth": 1,
                                "id": 2,
                                "order": 2
                            }
                        ],
                        "depth": 0,
                        "id": 0,
                        "order": 0
                    }
                ],
                "depth": -1,
                "id": -1,
                "order": -1
            }
        ],
        "tidyTraceNodeCount": 3
    },
    "state_change": {
        "stateChanges": [
            {
                "address": "0x2ec14b5e4393bacb6f1bd3df7e9673e731afdc07",
                "erc": "ERC-721",
                "slots": [
                    {
                        "current": "0x0000000000000000000000000000000000000000000000000000000000000007",
                        "key": "0xde7415c6a2f6d5051213edef7c4742786ca35b02a0e77e53b1b2e1ff1a228a6b",
                        "prev": "0x000000000000000000000000000000000000000000000000000000000000000a"
                    },
                    {
                        "current": "0x0000000000000000000000000000000000000000000000000000000000000000",
                        "key": "0x799aa7919c22bb4608707ed21f0c9e1863710a133d7a8be42256aa59f6708a75",
                        "prev": "0x00000000000000000000000000000000000000000000000000000000000000b6"
                    },
                    {
                        "current": "0x000000000000000000000000000000000000000000000000000000000000000e",
                        "key": "0xe2b6eadf344b74667c88744aad8df08409c724b1b455985147ef1f097c27b73a",
                        "prev": "0x0000000000000000000000000000000000000000000000000000000000000000"
                    },
                    {
                        "current": "0x0000000000000000000000000000000000000000000000000000000000000033",
                        "key": "0xb5dbfb1ff1c24b239566898338d116fb1e1ac803cce27f7cc4396402929cd1f3",
                        "prev": "0x0000000000000000000000000000000000000000000000000000000000000034"
                    },
                    {
                        "current": "0x0000000000000000000000000000000000000000000000000000000000000008",
                        "key": "0xcbf11d2488de07e9f0ea60e88352a394887b3d9fc4d56890e2a270f379e63f33",
                        "prev": "0x0000000000000000000000000000000000000000000000000000000000000007"
                    },
                    {
                        "current": "0x000000000000000000000000feb7fc26a3f9a91706ac001c55dcbaaa8b1e18e9",
                        "key": "0x20de3dd312970f46a1d560f6c70f0e5bd10e638b9bb3836368f28838c607ea3e",
                        "prev": "0x0000000000000000000000006a09032ceced598fe937e4318666632e3397b193"
                    },
                    {
                        "current": "0x00000000000000000000000000000000000000000000000000000000000000b6",
                        "key": "0xf6cea0b2d90899150a3d41f84da8105bd97d66d180fbd20663ffe15937981af2",
                        "prev": "0x000000000000000000000000000000000000000000000000000000000000000e"
                    },
                    {
                        "current": "0x000000000000000000000000000000000000000000000000000000000000000a",
                        "key": "0x8060c339d013a28259483a9bbf8245b3f2c21722b238902c8756e3fa46291ecb",
                        "prev": "0x0000000000000000000000000000000000000000000000000000000000000033"
                    }
                ],
                "storageVariables": [
                    {
                        "name": "_ownedTokens",
                        "type": "mapping(address => mapping(uint256 => uint256))",
                        "value": {
                            "pairs": [
                                {
                                    "key": "0x6a09032ceced598fe937e4318666632e3397b193",
                                    "value": {
                                        "pairs": [
                                            {
                                                "key": "10",
                                                "value": {
                                                    "current": "182",
                                                    "prev": "14",
                                                    "typeTag": 1
                                                }
                                            },
                                            {
                                                "key": "51",
                                                "value": {
                                                    "current": "0",
                                                    "prev": "182",
                                                    "typeTag": 1
                                                }
                                            }
                                        ],
                                        "typeTag": 4
                                    }
                                },
                                {
                                    "key": "0xfeb7fc26a3f9a91706ac001c55dcbaaa8b1e18e9",
                                    "value": {
                                        "pairs": [
                                            {
                                                "key": "7",
                                                "value": {
                                                    "current": "14",
                                                    "prev": "0",
                                                    "typeTag": 1
                                                }
                                            }
                                        ],
                                        "typeTag": 4
                                    }
                                }
                            ],
                            "typeTag": 4
                        }
                    },
                    {
                        "name": "_balances",
                        "type": "mapping(address => uint256)",
                        "value": {
                            "pairs": [
                                {
                                    "key": "0x6a09032ceced598fe937e4318666632e3397b193",
                                    "value": {
                                        "current": "51",
                                        "prev": "52",
                                        "typeTag": 1
                                    }
                                },
                                {
                                    "key": "0xfeb7fc26a3f9a91706ac001c55dcbaaa8b1e18e9",
                                    "value": {
                                        "current": "8",
                                        "prev": "7",
                                        "typeTag": 1
                                    }
                                }
                            ],
                            "typeTag": 4
                        }
                    },
                    {
                        "name": "_owners",
                        "type": "mapping(uint256 => address)",
                        "value": {
                            "pairs": [
                                {
                                    "key": "14",
                                    "value": {
                                        "current": "0xfeb7fc26a3f9a91706ac001c55dcbaaa8b1e18e9",
                                        "prev": "0x6a09032ceced598fe937e4318666632e3397b193",
                                        "typeTag": 1
                                    }
                                }
                            ],
                            "typeTag": 4
                        }
                    },
                    {
                        "name": "_ownedTokensIndex",
                        "type": "mapping(uint256 => uint256)",
                        "value": {
                            "pairs": [
                                {
                                    "key": "14",
                                    "value": {
                                        "current": "7",
                                        "prev": "10",
                                        "typeTag": 1
                                    }
                                },
                                {
                                    "key": "182",
                                    "value": {
                                        "current": "10",
                                        "prev": "51",
                                        "typeTag": 1
                                    }
                                }
                            ],
                            "typeTag": 4
                        }
                    }
                ]
            }
        ]
    }
}