{
    "balance_change": {
        "balanceChanges": []
    },
    "profile": {
        "basic_info": {
            "baseFee": "",
            "blockNumber": 8966961,
            "callData": "0xef343588000000000000000000000000000000000000000000000000070578382df76ead000000000000000000000000000000000000000000000a342009c96b7625a04600000000000000000000000000000000000000000000000000000000000027100000000000000000000000000000000000000000000000000000000367f90e22000000000000000000000000000000000000000000000000070578382df76ead0000000000000000000000000000000000000000000000000000000000006ed300000000000000000000000000000000000000000000000000038d7ea4c6800000000000000000000000000000000000000000000000000000156e246046c57600000000000000000000000000000000000000000000000000000000000000000000000000000000000000008762db106b2c2a0bccb3a80d1ed41273552616e80000000000000000000000000000ff711032d36bdc1a112d2f6655fab81232a40000000000000000000000005ed86e952e1b17596206e95b94c824d31ba71fb1000000000000000000000000000000000000000000000000000000000000001c000000000000000000000000000000000000000000000000000000000000001bdf91f683eef4569ade5c869f1104a3f0496498cc6bf2818a1b83e65eff76cf2a28278ccba3cd0c7bb2bcb625b9f8aaefff016bddac5cf0b4e57382bd3907f062971b9a3714826a39eecaddc88b752e8dbcac4811a7b0afbf972c5e1b5ead834800188dfa9746f3fd430d82570cd71a0a920b45d9965ad5fd28428430d34a586b",
            "debugEnable": true,
            "errorInfo": "",
            "eventCount": 0,
            "feeRecipient": "0x84a0d77c693adabe0ebc48f88b3ffff010577051",
            "formatValue": "0",
            "gasLimit": 400000,
            "gasPrice": "11",
            "gasUsed": 142900,
            "intTxnCount": 2,
            "internalRevert": false,
            "internalRevertMessage": "",
            "isContractCreation": false,
            "isFlashloan": false,
            "maxFee": "",
            "nonce": 4396375,
            "overwritedBlockNumber": -1,
            "priorityFee": "",
            "receiver": "0x2a0c0dbecc7e4d658f48e01e3fa353f44050c208",
            "revertMessage": "",
            "sender": "0xa7a7899d944fe658c4b0a1803bab2f490bd3849e",
            "simulationEnable": true,
            "sourceTxnHash": "0x14fc3008355ed6933ac281204fdf6613316e83542fefa955e58a6d01214efba7",
            "status": true,
            "timestamp": "2019-11-20T07:00:37Z",
            "transactionFee": "0.0015719",
            "txnHash": "0x14fc3008355ed6933ac281204fdf6613316e83542fefa955e58a6d01214efba7",
            "txnIndex": 149,
            "type": 0,
            "value": "0"
        },
        "fund_flow": [],
        "token_infos": [
            {
                "address": "0xeeeeeeeeeeeeeeeeeeeeeeeeeeeeeeeeeeeeeeee",
                "decimals": 18
            },
            {
                "address": "0xc02aaa39b223fe8d0a0e5c4f27ead9083c756cc2",
                "decimals": 18
            }
        ]
    },
    "address_label": {
        "labels": [
            {
                "address": "0x0000000000000000000000000000000000000004",
                "label": "Precompiled"
            },
            {
                "address": "0xeeeeeeeeeeeeeeeeeeeeeeeeeeeeeeeeeeeeeeee",
                "label": "Ether"
            },
            {
                "address": "0xa7a7899d944fe658c4b0a1803bab2f490bd3849e",
                "label": "IDEX 2"
            },
            {
                "address": "0x0000000000000000000000000000000000000000",
                "label": "Null Address"
            },
            {
                "address": "0x2a0c0dbecc7e4d658f48e01e3fa353f44050c208",
                "label": "IDEX"
            },
            {
                "address": "0x0000000000000000000000000000000000000002",
                "label": "Precompiled"
            },
            {
                "address": "0x8762db106b2c2a0bccb3a80d1ed41273552616e8",
                "label": "Reserve Rights: Old RSR Token"
            },
            {
                "address": "0x0000000000000000000000000000000000000001",
                "label": "Precompiled"
            },
            {
                "address": "0x0000000000000000000000000000000000000003",
                "label": "Precompiled"
            }
        ]
    },
    "trace": {
        "accountLabels": null,
        "dataMap": {
            "-1": {
                "invocation": {
                    "address": "0xa7a7899d944fe658c4b0a1803bab2f490bd3849e",
                    "callData": "",
                    "decodedMethod": null,
                    "errorInfo": "",
                    "fromAddress": "",
                    "gasUsed": 0,
                    "id": -1,
                    "methodDecoded": false,
                    "operation": "",
                    "output": "",
                    "revert": false,
                    "revertMessage": "",
                    "selector": "",
                    "status": false,
                    "value": ""
                },
                "nodeType": 0
            },
            "0": {
                "invocation": {
                    "address": "0x2a0c0dbecc7e4d658f48e01e3fa353f44050c208",
                    "callData": "0x000000000000000000000000000000000000000000000000070578382df76ead000000000000000000000000000000000000000000000a342009c96b7625a04600000000000000000000000000000000000000000000000000000000000027100000000000000000000000000000000000000000000000000000000367f90e22000000000000000000000000000000000000000000000000070578382df76ead0000000000000000000000000000000000000000000000000000000000006ed300000000000000000000000000000000000000000000000000038d7ea4c6800000000000000000000000000000000000000000000000000000156e246046c57600000000000000000000000000000000000000000000000000000000000000000000000000000000000000008762db106b2c2a0bccb3a80d1ed41273552616e80000000000000000000000000000ff711032d36bdc1a112d2f6655fab81232a40000000000000000000000005ed86e952e1b17596206e95b94c824d31ba71fb1000000000000000000000000000000000000000000000000000000000000001c000000000000000000000000000000000000000000000000000000000000001bdf91f683eef4569ade5c869f1104a3f0496498cc6bf2818a1b83e65eff76cf2a28278ccba3cd0c7bb2bcb625b9f8aaefff016bddac5cf0b4e57382bd3907f062971b9a3714826a39eecaddc88b752e8dbcac4811a7b0afbf972c5e1b5ead834800188dfa9746f3fd430d82570cd71a0a920b45d9965ad5fd28428430d34a586b",
                    "decodedMethod": {
                        "callParams": [
                            {
                                "name": "tradeValues",
                                "type": "uint256[8]",
                                "value": [
                                    "505,942,715,833,740,973",
                                    "48,185,204,118,276,733,771,846",
                                    "10,000",
                                    "14,629,277,218",
                                    "505,942,715,833,740,973",
                                    "28,371",
                                    "1,000,000,000,000,000",
                                    "6,032,077,024,052,598"
                                ]
                            },
                            {
                                "name": "tradeAddresses",
                                "type": "address[4]",
                                "value": [
                                    "0x0000000000000000000000000000000000000000",
                                    "0x8762db106b2c2a0bccb3a80d1ed41273552616e8",
                                    "0x0000ff711032d36bdc1a112d2f6655fab81232a4",
                                    "0x5ed86e952e1b17596206e95b94c824d31ba71fb1"
                                ]
                            },
                            {
                                "name": "v",
                                "type": "uint8[2]",
                                "value": [
                                    "28",
                                    "27"
                                ]
                            },
                            {
                                "name": "rs",
                                "type": "bytes32[4]",
                                "value": [
                                    "0xdf91f683eef4569ade5c869f1104a3f0496498cc6bf2818a1b83e65eff76cf2a",
                                    "0x28278ccba3cd0c7bb2bcb625b9f8aaefff016bddac5cf0b4e57382bd3907f062",
                                    "0x971b9a3714826a39eecaddc88b752e8dbcac4811a7b0afbf972c5e1b5ead8348",
                                    "0x00188dfa9746f3fd430d82570cd71a0a920b45d9965ad5fd28428430d34a586b"
                                ]
                            }
                        ],
                        "constructorArguments": "",
                        "name": "trade",
                        "returnParams": [
                            {
                                "name": "success",
                                "type": "bool",
                                "value": false
                            }
                        ],
                        "signature": "trade(uint256[8],address[4],uint8[2],bytes32[4])"
                    },
                    "errorInfo": "",
                    "fromAddress": "0xa7a7899d944fe658c4b0a1803bab2f490bd3849e",
                    "gasUsed": 142900,
                    "id": 0,
                    "methodDecoded": true,
                    "operation": "CALL",
                    "output": "0x0000000000000000000000000000000000000000000000000000000000000000",
                    "revert": false,
                    "revertMessage": "",
                    "selector": "0xef343588",
                    "status": true,
                    "value": "0"
                },
                "nodeType": 0
            },
            "1": {
                "invocation": {
                    "address": "0x0000000000000000000000000000000000000001",
                    "callData": "0x5cca931fe536bec0c92e6fcc9aefa6eeaa7eca7df60c23fe35131f3f000000000000000000000000000000000000000000000000000000000000001cdf91f683eef4569ade5c869f1104a3f0496498cc6bf2818a1b83e65eff76cf2a28278ccba3cd0c7bb2bcb625b9f8aaefff016bddac5cf0b4e57382bd3907f062",
                    "decodedMethod": {
                        "callParams": [
                            {
                                "name": "hash",
                                "type": "bytes32",
                                "value": "0x4612cfd25cca931fe536bec0c92e6fcc9aefa6eeaa7eca7df60c23fe35131f3f"
                            },
                            {
                                "name": "v",
                                "type": "uint256",
                                "value": "28"
                            },
                            {
                                "name": "r",
                                "type": "bytes32",
                                "value": "0xdf91f683eef4569ade5c869f1104a3f0496498cc6bf2818a1b83e65eff76cf2a"
                            },
                            {
                                "name": "s",
                                "type": "bytes32",
                                "value": "0x28278ccba3cd0c7bb2bcb625b9f8aaefff016bddac5cf0b4e57382bd3907f062"
                            }
                        ],
                        "constructorArguments": "",
                        "name": "ecrecover",
                        "returnParams": [
                            {
                                "name": "",
                                "type": "address",
                                "value": "0x0000ff711032d36bdc1a112d2f6655fab81232a4"
                            }
                        ],
                        "signature": "ecrecover(bytes32,uint256,bytes32,bytes32)"
                    },
                    "errorInfo": "",
                    "fromAddress": "0x2a0c0dbecc7e4d658f48e01e3fa353f44050c208",
                    "gasUsed": 3000,
                    "id": 1,
                    "methodDecoded": true,
                    "operation": "CALL",
                    "output": "0x0000000000000000000000000000ff711032d36bdc1a112d2f6655fab81232a4",
                    "revert": false,
                    "revertMessage": "",
                    "selector": "0x4612cfd2",
                    "status": true,
                    "value": "0"
                },
                "nodeType": 0
            },
            "2": {
                "invocation": {
                    "address": "0x0000000000000000000000000000000000000001",
                    "callData": "0x07ae39f3c32c7d99842aeab9083f6c5bcf78babdf15b31f9d5364016000000000000000000000000000000000000000000000000000000000000001b971b9a3714826a39eecaddc88b752e8dbcac4811a7b0afbf972c5e1b5ead834800188dfa9746f3fd430d82570cd71a0a920b45d9965ad5fd28428430d34a586b",
                    "decodedMethod": {
                        "callParams": [
                            {
                                "name": "hash",
                                "type": "bytes32",
                                "value": "0x3f40171107ae39f3c32c7d99842aeab9083f6c5bcf78babdf15b31f9d5364016"
                            },
                            {
                                "name": "v",
                                "type": "uint256",
                                "value": "27"
                            },
                            {
                                "name": "r",
                                "type": "bytes32",
                                "value": "0x971b9a3714826a39eecaddc88b752e8dbcac4811a7b0afbf972c5e1b5ead8348"
                            },
                            {
                                "name": "s",
                                "type": "bytes32",
                                "value": "0x00188dfa9746f3fd430d82570cd71a0a920b45d9965ad5fd28428430d34a586b"
                            }
                        ],
                        "constructorArguments": "",
                        "name": "ecrecover",
                        "returnParams": [
                            {
                                "name": "",
                                "type": "address",
                                "value": "0x5ed86e952e1b17596206e95b94c824d31ba71fb1"
                            }
                        ],
                        "signature": "ecrecover(bytes32,uint256,bytes32,bytes32)"
                    },
                    "errorInfo": "",
                    "fromAddress": "0x2a0c0dbecc7e4d658f48e01e3fa353f44050c208",
                    "gasUsed": 3000,
                    "id": 2,
                    "methodDecoded": true,
                    "operation": "CALL",
                    "output": "0x0000000000000000000000005ed86e952e1b17596206e95b94c824d31ba71fb1",
                    "revert": false,
                    "revertMessage": "",
                    "selector": "0x3f401711",
                    "status": true,
                    "value": "0"
                },
                "nodeType": 0
            }
        },
        "gasFlame": [
            {
                "children": [
                    {
                        "children": [
                            {
                                "children": [],
                                "depth": 0,
                                "name": "Initial Gas",
                                "value": 38616
                            },
                            {
                                "children": [
                                    {
                                        "children": [],
                                        "depth": 1,
                                        "name": "ecrecover",
                                        "value": 3000
                                    },
                                    {
                                        "children": [],
                                        "depth": 1,
                                        "name": "ecrecover",
                                        "value": 3000
                                    }
                                ],
                                "depth": 0,
                                "name": "Executed Gas",
                                "value": 104284
                            }
                        ],
                        "depth": -1,
                        "name": "Actual Gas Used",
                        "value": 142900
                    },
                    {
                        "children": [],
                        "depth": -1,
                        "name": "Refunded Gas",
                        "value": 0
                    }
                ],
                "depth": -2,
                "name": "Total Gas",
                "value": 142900
            }
        ],
        "isConfirmed": true,
        "mainTrace": [
            {
                "children": [
                    {
                        "children": [
                            {
                                "children": [],
                                "depth": 1,
                                "id": 1,
                                "order": 1
                            },
                            {
                                "children": [],
                                "depth": 1,
                                "id": 2,
                                "order": 2
                            }
                        ],
                        "depth": 0,
                        "id": 0,
                        "order": 0
                    }
                ],
                "depth": -1,
                "id": -1,
                "order": -1
            }
        ],
        "mainTraceNodeCount": 3,
        "parentIdMap": {
            "0": -1,
            "1": 0,
            "2": 0
        },
        "tidyTrace": [
            {
                "children": [
                    {
                        "children": [
                            {
                                "children": [],
                                "depth": 1,
                                "id": 1,
                                "order": 1
                            },
                            {
                                "children": [],
                                "depth": 1,
                                "id": 2,
                                "order": 2
                            }
                        ],
                        "depth": 0,
                        "id": 0,
                        "order": 0
                    }
                ],
                "depth": -1,
                "id": -1,
                "order": -1
            }
        ],
        "tidyTraceNodeCount": 3
    },
    "state_change": {
        "stateChanges": [
            {
                "address": "0x2a0c0dbecc7e4d658f48e01e3fa353f44050c208",
                "erc": "",
                "slots": [
                    {
                        "current": "0x0000000000000000000000000000000000000000000092d28fa509b5bd87ec05",
                        "key": "0x03b4a19af9e87d82ad59a74a166b985517aa7469e3d355c89dadca3f854f95d9",
                        "prev": "0x0000000000000000000000000000000000000000000088ae3147dcea163c0ef9"
                    },
                    {
                        "current": "0x0000000000000000000000000000000000000000000002ae8882a2932b38199f",
                        "key": "0xd98c3d2c82f41527e34fcd0b038cfb86062c092a796bc7b776849b50095a1f26",
                        "prev": "0x00000000000000000000000000000000000000000000029ec6d605f35c5e5666"
                    },
                    {
                        "current": "0x000000000000000000000000000000000000000000000000070578382df76ead",
                        "key": "0xb302cd471bb87da68391f088768b0fffbc27eae6295eccfd2b0ba6601a477c22",
                        "prev": "0x0000000000000000000000000000000000000000000000000000000000000000"
                    },
                    {
                        "current": "0x0000000000000000000000000000000000000000000000000000000000000001",
                        "key": "0x02932c4684ea53de9282ced3d793f6b9487f11cd2205c65f691780fd0deae089",
                        "prev": "0x0000000000000000000000000000000000000000000000000000000000000000"
                    },
                    {
                        "current": "0x000000000000000000000000000000000000000000000002c57ca58de20a1889",
                        "key": "0x78849d63da171afdb928fcefcf0a12775a805fd769123210b0768cbee59417ab",
                        "prev": "0x000000000000000000000000000000000000000000000002cc821dc610018736"
                    },
                    {
                        "current": "0x000000000000000000000000000000000000000000000000273ddf573a82c32e",
                        "key": "0x17a26d887c0cee42064b200233e2983c6f646ddac3b3931bc5831fea022aa020",
                        "prev": "0x000000000000000000000000000000000000000000000000203a33460465f20e"
                    },
                    {
                        "current": "0x0000000000000000000000000000000000000000000000001cc590610e1c1cb7",
                        "key": "0x3ccb72d91c5c66cba135a4135963ed23443b8a63817f501517468fcd5097e277",
                        "prev": "0x0000000000000000000000000000000000000000000000001cc3c43a16417f2b"
                    },
                    {
                        "current": "0x0000000000000000000000000000000000000000000000000000000000000001",
                        "key": "0x5a7c9f272fe630797ee48a5343c825a59a0f848776933a7053a27dae7066189d",
                        "prev": "0x000000000000000000000000000000000000000000000a342009c96b7625a047"
                    }
                ],
                "storageVariables": [
                    {
                        "name": "traded",
                        "type": "mapping(bytes32 => bool)",
                        "value": {
                            "pairs": [
                                {
                                    "key": "0xa439a237df1331cd5f57ef974a9375935826fa197fd5872bfff6e0d7fdd7fd49",
                                    "value": {
                                        "current": "true",
                                        "prev": "false",
                                        "typeTag": 1
                                    }
                                }
                            ],
                            "typeTag": 4
                        }
                    },
                    {
                        "name": "tokens",
                        "type": "mapping(address => mapping(address => uint256))",
                        "value": {
                            "pairs": [
                                {
                                    "key": "0x0000000000000000000000000000000000000000",
                                    "value": {
                                        "pairs": [
                                            {
                                                "key": "0x0000ff711032d36bdc1a112d2f6655fab81232a4",
                                                "value": {
                                                    "current": "2827661706795336494",
                                                    "prev": "2322224933677429262",
                                                    "typeTag": 1
                                                }
                                            },
                                            {
                                                "key": "0x034767f3c519f361c5ecf46ebfc08981c629d381",
                                                "value": {
                                                    "current": "2073221949996932279",
                                                    "prev": "2072716007281098539",
                                                    "typeTag": 1
                                                }
                                            },
                                            {
                                                "key": "0x5ed86e952e1b17596206e95b94c824d31ba71fb1",
                                                "value": {
                                                    "current": "51123919098804312201",
                                                    "prev": "51629861814638053174",
                                                    "typeTag": 1
                                                }
                                            }
                                        ],
                                        "typeTag": 4
                                    }
                                },
                                {
                                    "key": "0x8762db106b2c2a0bccb3a80d1ed41273552616e8",
                                    "value": {
                                        "pairs": [
                                            {
                                                "key": "0x0000ff711032d36bdc1a112d2f6655fab81232a4",
                                                "value": {
                                                    "current": "1",
                                                    "prev": "48185204118276733771847",
                                                    "typeTag": 1
                                                }
                                            },
                                            {
                                                "key": "0x034767f3c519f361c5ecf46ebfc08981c629d381",
                                                "value": {
                                                    "current": "12664303037853851982239",
                                                    "prev": "12373646175192710272614",
                                                    "typeTag": 1
                                                }
                                            },
                                            {
                                                "key": "0x5ed86e952e1b17596206e95b94c824d31ba71fb1",
                                                "value": {
                                                    "current": "693349673444441961524229",
                                                    "prev": "645455126188826369462009",
                                                    "typeTag": 1
                                                }
                                            }
                                        ],
                                        "typeTag": 4
                                    }
                                }
                            ],
                            "typeTag": 4
                        }
                    },
                    {
                        "name": "orderFills",
                        "type": "mapping(bytes32 => uint256)",
                        "value": {
                            "pairs": [
                                {
                                    "key": "0x62c6bf50336c98c7869d7ed010e641bada54590a9494122f3a60959faf4950bf",
                                    "value": {
                                        "current": "505942715833740973",
                                        "prev": "0",
                                        "typeTag": 1
                                    }
                                }
                            ],
                            "typeTag": 4
                        }
                    }
                ]
            }
        ]
    }
}