{
    "balance_change": {
        "balanceChanges": [
            {
                "account": "0xa94e0cb8aa21da015a18c6e59be29efe6104112c",
                "assets": [
                    {
                        "address": "0x87b127ee022abcf9881b9bad6bb6aac25229dff0",
                        "amount": "10",
                        "iconUrl": "",
                        "isERC1155": false,
                        "isERC721": false,
                        "sign": true,
                        "value": ""
                    }
                ]
            },
            {
                "account": "0x0000000000000000000000000000000000000000",
                "assets": [
                    {
                        "address": "0x87b127ee022abcf9881b9bad6bb6aac25229dff0",
                        "amount": "10",
                        "iconUrl": "",
                        "isERC1155": false,
                        "isERC721": false,
                        "sign": false,
                        "value": ""
                    }
                ]
            }
        ]
    },
    "profile": {
        "basic_info": {
            "baseFee": "",
            "blockNumber": 2769261,
            "callData": "0x79c65068000000000000000000000000a94e0cb8aa21da015a18c6e59be29efe6104112c000000000000000000000000000000000000000000000000000000000000000a",
            "debugEnable": true,
            "errorInfo": "",
            "eventCount": 2,
            "feeRecipient": "0x4bb96091ee9d802ed039c4d1a5f6216f90f81b01",
            "formatValue": "0",
            "gasLimit": 500000,
            "gasPrice": "20",
            "gasUsed": 39279,
            "intTxnCount": 0,
            "internalRevert": false,
            "internalRevertMessage": "",
            "isContractCreation": false,
            "isFlashloan": false,
            "maxFee": "",
            "nonce": 960,
            "overwritedBlockNumber": -1,
            "priorityFee": "",
            "receiver": "0x87b127ee022abcf9881b9bad6bb6aac25229dff0",
            "revertMessage": "",
            "sender": "0x04e1b2ff4ece25f07c67b97757f1c490924e0a04",
            "simulationEnable": true,
            "sourceTxnHash": "0x14d7ae99ad36902143382d439890688778b9c4c085624ac0180115ae4e1e1582",
            "status": true,
            "timestamp": "2016-12-08T08:21:16Z",
            "transactionFee": "0.00078558",
            "txnHash": "0x14d7ae99ad36902143382d439890688778b9c4c085624ac0180115ae4e1e1582",
            "txnIndex": 2,
            "type": 0,
            "value": "0"
        },
        "fund_flow": [
            {
                "amount": "10",
                "from": "0x0000000000000000000000000000000000000000",
                "id": 1,
                "isERC1155": false,
                "isERC721": false,
                "isReverted": false,
                "order": 1,
                "to": "0x04e1b2ff4ece25f07c67b97757f1c490924e0a04",
                "token": "0x87b127ee022abcf9881b9bad6bb6aac25229dff0"
            },
            {
                "amount": "10",
                "from": "0x04e1b2ff4ece25f07c67b97757f1c490924e0a04",
                "id": 2,
                "isERC1155": false,
                "isERC721": false,
                "isReverted": false,
                "order": 2,
                "to": "0xa94e0cb8aa21da015a18c6e59be29efe6104112c",
                "token": "0x87b127ee022abcf9881b9bad6bb6aac25229dff0"
            }
        ],
        "token_infos": [
            {
                "address": "0xc02aaa39b223fe8d0a0e5c4f27ead9083c756cc2",
                "decimals": 18
            },
            {
                "address": "0xeeeeeeeeeeeeeeeeeeeeeeeeeeeeeeeeeeeeeeee",
                "decimals": 18
            }
        ]
    },
    "address_label": {
        "labels": [
            {
                "address": "0x0000000000000000000000000000000000000002",
                "label": "Precompiled"
            },
            {
                "address": "0x0000000000000000000000000000000000000003",
                "label": "Precompiled"
            },
            {
                "address": "0x0000000000000000000000000000000000000004",
                "label": "Precompiled"
            },
            {
                "address": "0xeeeeeeeeeeeeeeeeeeeeeeeeeeeeeeeeeeeeeeee",
                "label": "Ether"
            },
            {
                "address": "0x0000000000000000000000000000000000000001",
                "label": "Precompiled"
            }
        ]
    },
    "trace": {
        "accountLabels": null,
        "dataMap": {
            "-1": {
                "invocation": {
                    "address": "0x04e1b2ff4ece25f07c67b97757f1c490924e0a04",
                    "callData": "",
                    "decodedMethod": null,
                    "errorInfo": "",
                    "fromAddress": "",
                    "gasUsed": 0,
                    "id": -1,
                    "methodDecoded": false,
                    "operation": "",
                    "output": "",
                    "revert": false,
                    "revertMessage": "",
                    "selector": "",
                    "status": false,
                    "value": ""
                },
                "nodeType": 0
            },
            "0": {
                "invocation": {
                    "address": "0x87b127ee022abcf9881b9bad6bb6aac25229dff0",
                    "callData": "0x000000000000000000000000a94e0cb8aa21da015a18c6e59be29efe6104112c000000000000000000000000000000000000000000000000000000000000000a",
                    "decodedMethod": {
                        "callParams": [
                            {
                                "name": "target",
                                "type": "address",
                                "value": "0xa94e0cb8aa21da015a18c6e59be29efe6104112c"
                            },
                            {
                                "name": "mintedAmount",
                                "type": "uint256",
                                "value": "10"
                            }
                        ],
                        "constructorArguments": "",
                        "name": "mintToken",
                        "returnParams": [],
                        "signature": "mintToken(address,uint256)"
                    },
                    "errorInfo": "",
                    "fromAddress": "0x04e1b2ff4ece25f07c67b97757f1c490924e0a04",
                    "gasUsed": 39279,
                    "id": 0,
                    "methodDecoded": true,
                    "operation": "CALL",
                    "output": "0x0000000000000000000000000000000000000000000000000000000000000000",
                    "revert": false,
                    "revertMessage": "",
                    "selector": "0x79c65068",
                    "status": true,
                    "value": "0"
                },
                "nodeType": 0
            },
            "1": {
                "event": {
                    "contract": "0x87b127ee022abcf9881b9bad6bb6aac25229dff0",
                    "decodedLog": {
                        "name": "Transfer",
                        "params": [
                            {
                                "name": "from",
                                "type": "address",
                                "value": "0x0000000000000000000000000000000000000000"
                            },
                            {
                                "name": "to",
                                "type": "address",
                                "value": "0x04e1b2ff4ece25f07c67b97757f1c490924e0a04"
                            },
                            {
                                "decimalAvailable": true,
                                "name": "value",
                                "type": "uint256",
                                "value": "10"
                            }
                        ],
                        "signature": "Transfer(address,address,uint256)"
                    },
                    "id": 1,
                    "logData": "0x000000000000000000000000000000000000000000000000000000000000000a",
                    "logDecoded": true,
                    "operation": "EVENT",
                    "revert": false,
                    "status": true,
                    "topics": [
                        "0xddf252ad1be2c89b69c2b068fc378daa952ba7f163c4a11628f55a4df523b3ef",
                        "0x0000000000000000000000000000000000000000000000000000000000000000",
                        "0x00000000000000000000000004e1b2ff4ece25f07c67b97757f1c490924e0a04"
                    ]
                },
                "nodeType": 1
            },
            "2": {
                "event": {
                    "contract": "0x87b127ee022abcf9881b9bad6bb6aac25229dff0",
                    "decodedLog": {
                        "name": "Transfer",
                        "params": [
                            {
                                "name": "from",
                                "type": "address",
                                "value": "0x04e1b2ff4ece25f07c67b97757f1c490924e0a04"
                            },
                            {
                                "name": "to",
                                "type": "address",
                                "value": "0xa94e0cb8aa21da015a18c6e59be29efe6104112c"
                            },
                            {
                                "decimalAvailable": true,
                                "name": "value",
                                "type": "uint256",
                                "value": "10"
                            }
                        ],
                        "signature": "Transfer(address,address,uint256)"
                    },
                    "id": 2,
                    "logData": "0x000000000000000000000000000000000000000000000000000000000000000a",
                    "logDecoded": true,
                    "operation": "EVENT",
                    "revert": false,
                    "status": true,
                    "topics": [
                        "0xddf252ad1be2c89b69c2b068fc378daa952ba7f163c4a11628f55a4df523b3ef",
                        "0x00000000000000000000000004e1b2ff4ece25f07c67b97757f1c490924e0a04",
                        "0x000000000000000000000000a94e0cb8aa21da015a18c6e59be29efe6104112c"
                    ]
                },
                "nodeType": 1
            }
        },
        "gasFlame": [
            {
                "children": [
                    {
                        "children": [
                            {
                                "children": [],
                                "depth": 0,
                                "name": "Initial Gas",
                                "value": 22872
                            },
                            {
                                "children": [],
                                "depth": 0,
                                "name": "Executed Gas",
                                "value": 16407
                            }
                        ],
                        "depth": -1,
                        "name": "Actual Gas Used",
                        "value": 39279
                    },
                    {
                        "children": [],
                        "depth": -1,
                        "name": "Refunded Gas",
                        "value": 0
                    }
                ],
                "depth": -2,
                "name": "Total Gas",
                "value": 39279
            }
        ],
        "isConfirmed": true,
        "mainTrace": [
            {
                "children": [
                    {
                        "children": [
                            {
                                "children": [],
                                "depth": 1,
                                "id": 1,
                                "order": 1
                            },
                            {
                                "children": [],
                                "depth": 1,
                                "id": 2,
                                "order": 2
                            }
                        ],
                        "depth": 0,
                        "id": 0,
                        "order": 0
                    }
                ],
                "depth": -1,
                "id": -1,
                "order": -1
            }
        ],
        "mainTraceNodeCount": 3,
        "parentIdMap": {
            "0": -1,
            "1": 0,
            "2": 0
        },
        "tidyTrace": [
            {
                "children": [
                    {
                        "children": [
                            {
                                "children": [],
                                "depth": 1,
                                "id": 1,
                                "order": 1
                            },
                            {
                                "children": [],
                                "depth": 1,
                                "id": 2,
                                "order": 2
                            }
                        ],
                        "depth": 0,
                        "id": 0,
                        "order": 0
                    }
                ],
                "depth": -1,
                "id": -1,
                "order": -1
            }
        ],
        "tidyTraceNodeCount": 3
    },
    "state_change": {
        "stateChanges": [
            {
                "address": "0x87b127ee022abcf9881b9bad6bb6aac25229dff0",
                "erc": "",
                "slots": [
                    {
                        "current": "0x0000000000000000000000000000000000000000000000000000000000000833",
                        "key": "0x098dc2187649dcda2beae7b9517aa0c0bbcee1f004d33050c016edc4d39e1c86",
                        "prev": "0x0000000000000000000000000000000000000000000000000000000000000829"
                    },
                    {
                        "current": "0x00000000000000000000000000000000000000000000000000000000000022c9",
                        "key": "0x0000000000000000000000000000000000000000000000000000000000000005",
                        "prev": "0x00000000000000000000000000000000000000000000000000000000000022bf"
                    }
                ],
                "storageVariables": []
            }
        ]
    }
}