{
    "balance_change": {
        "balanceChanges": []
    },
    "profile": {
        "basic_info": {
            "baseFee": "",
            "blockNumber": 4364035,
            "callData": "0x0a19b14a00000000000000000000000000000000000000000000000000000000000000000000000000000000000000000000000000000000000000003c41870bae44c000000000000000000000000000f3db5fa2c66b7af3eb0c0b782510816cbe4813b80000000000000000000000000000000000000000000000000000000000a19730000000000000000000000000000000000000000000000000000000000051d51d00000000000000000000000000000000000000000000000000000000cc62c5b50000000000000000000000001c1ec7129cd7284adf8204e854b87fdf4892385b000000000000000000000000000000000000000000000000000000000000001ca5354434bee838367933e3860fd50a1d0a7842d37707edf0931b72309135c2c11962c29dffc2f0377b46a0b1cca58f831cf62a9617b07a802d7d2364a27d878400000000000000000000000000000000000000000000000006eaf5429114e60a",
            "debugEnable": true,
            "errorInfo": "",
            "eventCount": 1,
            "feeRecipient": "0xb2930b35844a230f00e51431acae96fe543a0347",
            "formatValue": "0",
            "gasLimit": 250000,
            "gasPrice": "30",
            "gasUsed": 92986,
            "intTxnCount": 2,
            "internalRevert": false,
            "internalRevertMessage": "",
            "isContractCreation": false,
            "isFlashloan": false,
            "maxFee": "",
            "nonce": 90,
            "overwritedBlockNumber": -1,
            "priorityFee": "",
            "receiver": "0x8d12a197cb00d4747a1fe03395095ce2a5cc6819",
            "revertMessage": "",
            "sender": "0x776b41563eadb3cfb94e4c3df877bd61d80276f6",
            "simulationEnable": true,
            "sourceTxnHash": "0x140b7519108049bb910e5442722e63416f62aa9981d4420f7f0356ef170f212d",
            "status": true,
            "timestamp": "2017-10-14T04:08:52Z",
            "transactionFee": "0.00278958",
            "txnHash": "0x140b7519108049bb910e5442722e63416f62aa9981d4420f7f0356ef170f212d",
            "txnIndex": 2,
            "type": 0,
            "value": "0"
        },
        "fund_flow": [],
        "token_infos": [
            {
                "address": "0xc02aaa39b223fe8d0a0e5c4f27ead9083c756cc2",
                "decimals": 18
            },
            {
                "address": "0xeeeeeeeeeeeeeeeeeeeeeeeeeeeeeeeeeeeeeeee",
                "decimals": 18
            }
        ]
    },
    "address_label": {
        "labels": [
            {
                "address": "0x8d12a197cb00d4747a1fe03395095ce2a5cc6819",
                "label": "EtherDelta"
            },
            {
                "address": "0x0000000000000000000000000000000000000002",
                "label": "Precompiled"
            },
            {
                "address": "0xf3db5fa2c66b7af3eb0c0b782510816cbe4813b8",
                "label": "EverexToken"
            },
            {
                "address": "0x0000000000000000000000000000000000000000",
                "label": "Null Address"
            },
            {
                "address": "0x0000000000000000000000000000000000000001",
                "label": "Precompiled"
            },
            {
                "address": "0x0000000000000000000000000000000000000003",
                "label": "Precompiled"
            },
            {
                "address": "0x0000000000000000000000000000000000000004",
                "label": "Precompiled"
            },
            {
                "address": "0xeeeeeeeeeeeeeeeeeeeeeeeeeeeeeeeeeeeeeeee",
                "label": "Ether"
            }
        ]
    },
    "trace": {
        "accountLabels": null,
        "dataMap": {
            "-1": {
                "invocation": {
                    "address": "0x776b41563eadb3cfb94e4c3df877bd61d80276f6",
                    "callData": "",
                    "decodedMethod": null,
                    "errorInfo": "",
                    "fromAddress": "",
                    "gasUsed": 0,
                    "id": -1,
                    "methodDecoded": false,
                    "operation": "",
                    "output": "",
                    "revert": false,
                    "revertMessage": "",
                    "selector": "",
                    "status": false,
                    "value": ""
                },
                "nodeType": 0
            },
            "0": {
                "invocation": {
                    "address": "0x8d12a197cb00d4747a1fe03395095ce2a5cc6819",
                    "callData": "0x00000000000000000000000000000000000000000000000000000000000000000000000000000000000000000000000000000000000000003c41870bae44c000000000000000000000000000f3db5fa2c66b7af3eb0c0b782510816cbe4813b80000000000000000000000000000000000000000000000000000000000a19730000000000000000000000000000000000000000000000000000000000051d51d00000000000000000000000000000000000000000000000000000000cc62c5b50000000000000000000000001c1ec7129cd7284adf8204e854b87fdf4892385b000000000000000000000000000000000000000000000000000000000000001ca5354434bee838367933e3860fd50a1d0a7842d37707edf0931b72309135c2c11962c29dffc2f0377b46a0b1cca58f831cf62a9617b07a802d7d2364a27d878400000000000000000000000000000000000000000000000006eaf5429114e60a",
                    "decodedMethod": {
                        "callParams": [
                            {
                                "name": "tokenGet",
                                "type": "address",
                                "value": "0x0000000000000000000000000000000000000000"
                            },
                            {
                                "name": "amountGet",
                                "type": "uint256",
                                "value": "4,341,900,000,000,000,000"
                            },
                            {
                                "name": "tokenGive",
                                "type": "address",
                                "value": "0xf3db5fa2c66b7af3eb0c0b782510816cbe4813b8"
                            },
                            {
                                "name": "amountGive",
                                "type": "uint256",
                                "value": "10,590,000"
                            },
                            {
                                "name": "expires",
                                "type": "uint256",
                                "value": "5,362,973"
                            },
                            {
                                "name": "nonce",
                                "type": "uint256",
                                "value": "3,429,025,205"
                            },
                            {
                                "name": "user",
                                "type": "address",
                                "value": "0x1c1ec7129cd7284adf8204e854b87fdf4892385b"
                            },
                            {
                                "name": "v",
                                "type": "uint8",
                                "value": "28"
                            },
                            {
                                "name": "r",
                                "type": "bytes32",
                                "value": "0xa5354434bee838367933e3860fd50a1d0a7842d37707edf0931b72309135c2c1"
                            },
                            {
                                "name": "s",
                                "type": "bytes32",
                                "value": "0x1962c29dffc2f0377b46a0b1cca58f831cf62a9617b07a802d7d2364a27d8784"
                            },
                            {
                                "name": "amount",
                                "type": "uint256",
                                "value": "498,480,375,028,573,706"
                            }
                        ],
                        "constructorArguments": "",
                        "name": "trade",
                        "returnParams": [],
                        "signature": "trade(address,uint256,address,uint256,uint256,uint256,address,uint8,bytes32,bytes32,uint256)"
                    },
                    "errorInfo": "",
                    "fromAddress": "0x776b41563eadb3cfb94e4c3df877bd61d80276f6",
                    "gasUsed": 92986,
                    "id": 0,
                    "methodDecoded": true,
                    "operation": "CALL",
                    "output": "",
                    "revert": false,
                    "revertMessage": "",
                    "selector": "0x0a19b14a",
                    "status": true,
                    "value": "0"
                },
                "nodeType": 0
            },
            "1": {
                "invocation": {
                    "address": "0x0000000000000000000000000000000000000002",
                    "callData": "0xcb00d4747a1fe03395095ce2a5cc681900000000000000000000000000000000000000000000000000000000000000000000000000000000000000003c41870bae44c000f3db5fa2c66b7af3eb0c0b782510816cbe4813b80000000000000000000000000000000000000000000000000000000000a19730000000000000000000000000000000000000000000000000000000000051d51d00000000000000000000000000000000000000000000000000000000cc62c5b5",
                    "decodedMethod": {
                        "callParams": [
                            {
                                "name": "data",
                                "type": "bytes",
                                "value": "0x8d12a197cb00d4747a1fe03395095ce2a5cc681900000000000000000000000000000000000000000000000000000000000000000000000000000000000000003c41870bae44c000f3db5fa2c66b7af3eb0c0b782510816cbe4813b80000000000000000000000000000000000000000000000000000000000a19730000000000000000000000000000000000000000000000000000000000051d51d00000000000000000000000000000000000000000000000000000000cc62c5b5"
                            }
                        ],
                        "constructorArguments": "",
                        "name": "sha256hash",
                        "returnParams": [
                            {
                                "name": "hash",
                                "type": "bytes32",
                                "value": "0x687d6de98423632d76175ba86317bb3a059b2069d7199cc09b1485bc3b993f4d"
                            }
                        ],
                        "signature": "sha256hash(bytes)"
                    },
                    "errorInfo": "",
                    "fromAddress": "0x8d12a197cb00d4747a1fe03395095ce2a5cc6819",
                    "gasUsed": 132,
                    "id": 1,
                    "methodDecoded": true,
                    "operation": "CALL",
                    "output": "0x687d6de98423632d76175ba86317bb3a059b2069d7199cc09b1485bc3b993f4d",
                    "revert": false,
                    "revertMessage": "",
                    "selector": "0x8d12a197",
                    "status": true,
                    "value": "0"
                },
                "nodeType": 0
            },
            "2": {
                "invocation": {
                    "address": "0x0000000000000000000000000000000000000001",
                    "callData": "0x8a6f88b90a54454b495ce9828f1e2bec69f82724a25b0c0b37541b47000000000000000000000000000000000000000000000000000000000000001ca5354434bee838367933e3860fd50a1d0a7842d37707edf0931b72309135c2c11962c29dffc2f0377b46a0b1cca58f831cf62a9617b07a802d7d2364a27d8784",
                    "decodedMethod": {
                        "callParams": [
                            {
                                "name": "hash",
                                "type": "bytes32",
                                "value": "0xeeeeaf778a6f88b90a54454b495ce9828f1e2bec69f82724a25b0c0b37541b47"
                            },
                            {
                                "name": "v",
                                "type": "uint256",
                                "value": "28"
                            },
                            {
                                "name": "r",
                                "type": "bytes32",
                                "value": "0xa5354434bee838367933e3860fd50a1d0a7842d37707edf0931b72309135c2c1"
                            },
                            {
                                "name": "s",
                                "type": "bytes32",
                                "value": "0x1962c29dffc2f0377b46a0b1cca58f831cf62a9617b07a802d7d2364a27d8784"
                            }
                        ],
                        "constructorArguments": "",
                        "name": "ecrecover",
                        "returnParams": [
                            {
                                "name": "",
                                "type": "address",
                                "value": "0x1c1ec7129cd7284adf8204e854b87fdf4892385b"
                            }
                        ],
                        "signature": "ecrecover(bytes32,uint256,bytes32,bytes32)"
                    },
                    "errorInfo": "",
                    "fromAddress": "0x8d12a197cb00d4747a1fe03395095ce2a5cc6819",
                    "gasUsed": 3000,
                    "id": 2,
                    "methodDecoded": true,
                    "operation": "CALL",
                    "output": "0x0000000000000000000000001c1ec7129cd7284adf8204e854b87fdf4892385b",
                    "revert": false,
                    "revertMessage": "",
                    "selector": "0xeeeeaf77",
                    "status": true,
                    "value": "0"
                },
                "nodeType": 0
            },
            "3": {
                "event": {
                    "contract": "0x8d12a197cb00d4747a1fe03395095ce2a5cc6819",
                    "decodedLog": {
                        "name": "Trade",
                        "params": [
                            {
                                "name": "tokenGet",
                                "type": "address",
                                "value": "0x0000000000000000000000000000000000000000"
                            },
                            {
                                "name": "amountGet",
                                "type": "uint256",
                                "value": "498,480,375,028,573,706"
                            },
                            {
                                "name": "tokenGive",
                                "type": "address",
                                "value": "0xf3db5fa2c66b7af3eb0c0b782510816cbe4813b8"
                            },
                            {
                                "name": "amountGive",
                                "type": "uint256",
                                "value": "1,215,805"
                            },
                            {
                                "name": "get",
                                "type": "address",
                                "value": "0x1c1ec7129cd7284adf8204e854b87fdf4892385b"
                            },
                            {
                                "name": "give",
                                "type": "address",
                                "value": "0x776b41563eadb3cfb94e4c3df877bd61d80276f6"
                            }
                        ],
                        "signature": "Trade(address,uint256,address,uint256,address,address)"
                    },
                    "id": 3,
                    "logData": "0x000000000000000000000000000000000000000000000000000000000000000000000000000000000000000000000000000000000000000006eaf5429114e60a000000000000000000000000f3db5fa2c66b7af3eb0c0b782510816cbe4813b80000000000000000000000000000000000000000000000000000000000128d3d0000000000000000000000001c1ec7129cd7284adf8204e854b87fdf4892385b000000000000000000000000776b41563eadb3cfb94e4c3df877bd61d80276f6",
                    "logDecoded": true,
                    "operation": "EVENT",
                    "revert": false,
                    "status": true,
                    "topics": [
                        "0x6effdda786735d5033bfad5f53e5131abcced9e52be6c507b62d639685fbed6d"
                    ]
                },
                "nodeType": 1
            }
        },
        "gasFlame": [
            {
                "children": [
                    {
                        "children": [
                            {
                                "children": [],
                                "depth": 0,
                                "name": "Initial Gas",
                                "value": 31000
                            },
                            {
                                "children": [
                                    {
                                        "children": [],
                                        "depth": 1,
                                        "name": "sha256hash",
                                        "value": 132
                                    },
                                    {
                                        "children": [],
                                        "depth": 1,
                                        "name": "ecrecover",
                                        "value": 3000
                                    }
                                ],
                                "depth": 0,
                                "name": "Executed Gas",
                                "value": 61986
                            }
                        ],
                        "depth": -1,
                        "name": "Actual Gas Used",
                        "value": 92986
                    },
                    {
                        "children": [],
                        "depth": -1,
                        "name": "Refunded Gas",
                        "value": 0
                    }
                ],
                "depth": -2,
                "name": "Total Gas",
                "value": 92986
            }
        ],
        "isConfirmed": true,
        "mainTrace": [
            {
                "children": [
                    {
                        "children": [
                            {
                                "children": [],
                                "depth": 1,
                                "id": 1,
                                "order": 1
                            },
                            {
                                "children": [],
                                "depth": 1,
                                "id": 2,
                                "order": 2
                            },
                            {
                                "children": [],
                                "depth": 1,
                                "id": 3,
                                "order": 3
                            }
                        ],
                        "depth": 0,
                        "id": 0,
                        "order": 0
                    }
                ],
                "depth": -1,
                "id": -1,
                "order": -1
            }
        ],
        "mainTraceNodeCount": 4,
        "parentIdMap": {
            "0": -1,
            "1": 0,
            "2": 0,
            "3": 0
        },
        "tidyTrace": [
            {
                "children": [
                    {
                        "children": [
                            {
                                "children": [],
                                "depth": 1,
                                "id": 1,
                                "order": 1
                            },
                            {
                                "children": [],
                                "depth": 1,
                                "id": 2,
                                "order": 2
                            },
                            {
                                "children": [],
                                "depth": 1,
                                "id": 3,
                                "order": 3
                            }
                        ],
                        "depth": 0,
                        "id": 0,
                        "order": 0
                    }
                ],
                "depth": -1,
                "id": -1,
                "order": -1
            }
        ],
        "tidyTraceNodeCount": 4
    },
    "state_change": {
        "stateChanges": [
            {
                "address": "0x8d12a197cb00d4747a1fe03395095ce2a5cc6819",
                "erc": "",
                "slots": [
                    {
                        "current": "0x00000000000000000000000000000000000000000000000000002d5626916f8a",
                        "key": "0xcd50b9967cd6225f1d7dec7a6cfd2fd3ce4392ccb87333605d08467597e32825",
                        "prev": "0x00000000000000000000000000000000000000000000000006f072b13cb167ad"
                    },
                    {
                        "current": "0x00000000000000000000000000000000000000000000000031b92953b85db435",
                        "key": "0xd59037632fc766165276df4b1ff91316282424005f0e6567c3efad053676ed15",
                        "prev": "0x0000000000000000000000000000000000000000000000002ace34112748ce2b"
                    },
                    {
                        "current": "0x00000000000000000000000000000000000000000000000b2faaa44c0e4da0c9",
                        "key": "0x9db71ea29ae27159ae6b0bc7608a91ca5e83d8e7e559f64559591e0344fb950e",
                        "prev": "0x00000000000000000000000000000000000000000000000b2fa5543389428eb0"
                    },
                    {
                        "current": "0x0000000000000000000000000000000000000000000000000000000000246a20",
                        "key": "0x19016f62dc3ed08ac23ae60a244d9711499abf3edf12de85385a2f14ca20371e",
                        "prev": "0x000000000000000000000000000000000000000000000000000000000036f75d"
                    },
                    {
                        "current": "0x0000000000000000000000000000000000000000000000000000000000128d3d",
                        "key": "0x04a03b68e9ed5f7f4ad9130ef1a5e260ca48b083f8268fa791d9aff5bf656c0e",
                        "prev": "0x0000000000000000000000000000000000000000000000000000000000000000"
                    },
                    {
                        "current": "0x0000000000000000000000000000000000000000000000002ead6055be9bd867",
                        "key": "0xa51384b78c541a00fc0929dc3a7784d348d754071068c632c9c3c031cfe0e124",
                        "prev": "0x00000000000000000000000000000000000000000000000027c26b132d86f25d"
                    }
                ],
                "storageVariables": []
            }
        ]
    }
}