{
    "balance_change": {
        "balanceChanges": [
            {
                "account": "0x5ff569c26a2b582c0eda066255b7d097bb778aa8",
                "assets": [
                    {
                        "address": "0x174bfa6600bf90c885c7c01c7031389ed1461ab9",
                        "amount": "0.39911495",
                        "iconUrl": "",
                        "isERC1155": false,
                        "isERC721": false,
                        "sign": false,
                        "value": ""
                    }
                ]
            },
            {
                "account": "0xb8dec428280c6ba97b499865152d26e9d004a6d8",
                "assets": [
                    {
                        "address": "0x174bfa6600bf90c885c7c01c7031389ed1461ab9",
                        "amount": "0.39911495",
                        "iconUrl": "",
                        "isERC1155": false,
                        "isERC721": false,
                        "sign": true,
                        "value": ""
                    }
                ]
            }
        ]
    },
    "profile": {
        "basic_info": {
            "baseFee": "",
            "blockNumber": 8181285,
            "callData": "0xa9059cbb000000000000000000000000b8dec428280c6ba97b499865152d26e9d004a6d80000000000000000000000000000000000000000000000000589f0eeb34c3c00",
            "debugEnable": true,
            "errorInfo": "",
            "eventCount": 1,
            "feeRecipient": "0x829bd824b016326a401d083b33d092293333a830",
            "formatValue": "0",
            "gasLimit": 116280,
            "gasPrice": "20",
            "gasUsed": 38123,
            "intTxnCount": 0,
            "internalRevert": false,
            "internalRevertMessage": "",
            "isContractCreation": false,
            "isFlashloan": false,
            "maxFee": "",
            "nonce": 4880,
            "overwritedBlockNumber": -1,
            "priorityFee": "",
            "receiver": "0x174bfa6600bf90c885c7c01c7031389ed1461ab9",
            "revertMessage": "",
            "sender": "0x5ff569c26a2b582c0eda066255b7d097bb778aa8",
            "simulationEnable": true,
            "sourceTxnHash": "0x14101b87f2ebca2745f4f7326a6793515186e539ed88289d550130817ac38bd9",
            "status": true,
            "timestamp": "2019-07-19T13:16:56Z",
            "transactionFee": "0.00076246",
            "txnHash": "0x14101b87f2ebca2745f4f7326a6793515186e539ed88289d550130817ac38bd9",
            "txnIndex": 52,
            "type": 0,
            "value": "0"
        },
        "fund_flow": [
            {
                "amount": "0.39911495",
                "from": "0x5ff569c26a2b582c0eda066255b7d097bb778aa8",
                "id": 1,
                "isERC1155": false,
                "isERC721": false,
                "isReverted": false,
                "order": 1,
                "to": "0xb8dec428280c6ba97b499865152d26e9d004a6d8",
                "token": "0x174bfa6600bf90c885c7c01c7031389ed1461ab9"
            }
        ],
        "token_infos": [
            {
                "address": "0x174bfa6600bf90c885c7c01c7031389ed1461ab9",
                "decimals": 18
            },
            {
                "address": "0xc02aaa39b223fe8d0a0e5c4f27ead9083c756cc2",
                "decimals": 18
            },
            {
                "address": "0xeeeeeeeeeeeeeeeeeeeeeeeeeeeeeeeeeeeeeeee",
                "decimals": 18
            }
        ]
    },
    "address_label": {
        "labels": [
            {
                "address": "0xeeeeeeeeeeeeeeeeeeeeeeeeeeeeeeeeeeeeeeee",
                "label": "Ether"
            },
            {
                "address": "0x174bfa6600bf90c885c7c01c7031389ed1461ab9",
                "label": "More Gold: MGC Token"
            },
            {
                "address": "0x0000000000000000000000000000000000000001",
                "label": "Precompiled"
            },
            {
                "address": "0x0000000000000000000000000000000000000002",
                "label": "Precompiled"
            },
            {
                "address": "0x0000000000000000000000000000000000000003",
                "label": "Precompiled"
            },
            {
                "address": "0x0000000000000000000000000000000000000004",
                "label": "Precompiled"
            }
        ]
    },
    "trace": {
        "accountLabels": null,
        "dataMap": {
            "-1": {
                "invocation": {
                    "address": "0x5ff569c26a2b582c0eda066255b7d097bb778aa8",
                    "callData": "",
                    "decodedMethod": null,
                    "errorInfo": "",
                    "fromAddress": "",
                    "gasUsed": 0,
                    "id": -1,
                    "methodDecoded": false,
                    "operation": "",
                    "output": "",
                    "revert": false,
                    "revertMessage": "",
                    "selector": "",
                    "status": false,
                    "value": ""
                },
                "nodeType": 0
            },
            "0": {
                "invocation": {
                    "address": "0x174bfa6600bf90c885c7c01c7031389ed1461ab9",
                    "callData": "0x000000000000000000000000b8dec428280c6ba97b499865152d26e9d004a6d80000000000000000000000000000000000000000000000000589f0eeb34c3c00",
                    "decodedMethod": {
                        "callParams": [
                            {
                                "name": "_to",
                                "type": "address",
                                "value": "0xb8dec428280c6ba97b499865152d26e9d004a6d8"
                            },
                            {
                                "decimalAvailable": true,
                                "name": "_value",
                                "type": "uint256",
                                "value": "399,114,950,000,000,000"
                            }
                        ],
                        "constructorArguments": "",
                        "name": "transfer",
                        "returnParams": [
                            {
                                "name": "success",
                                "type": "bool",
                                "value": true
                            }
                        ],
                        "signature": "transfer(address,uint256)"
                    },
                    "errorInfo": "",
                    "fromAddress": "0x5ff569c26a2b582c0eda066255b7d097bb778aa8",
                    "gasUsed": 38123,
                    "id": 0,
                    "methodDecoded": true,
                    "operation": "CALL",
                    "output": "0x0000000000000000000000000000000000000000000000000000000000000001",
                    "revert": false,
                    "revertMessage": "",
                    "selector": "0xa9059cbb",
                    "status": true,
                    "value": "0"
                },
                "nodeType": 0
            },
            "1": {
                "event": {
                    "contract": "0x174bfa6600bf90c885c7c01c7031389ed1461ab9",
                    "decodedLog": {
                        "name": "Transfer",
                        "params": [
                            {
                                "name": "from",
                                "type": "address",
                                "value": "0x5ff569c26a2b582c0eda066255b7d097bb778aa8"
                            },
                            {
                                "name": "to",
                                "type": "address",
                                "value": "0xb8dec428280c6ba97b499865152d26e9d004a6d8"
                            },
                            {
                                "decimalAvailable": true,
                                "name": "value",
                                "type": "uint256",
                                "value": "399,114,950,000,000,000"
                            }
                        ],
                        "signature": "Transfer(address,address,uint256)"
                    },
                    "id": 1,
                    "logData": "0x0000000000000000000000000000000000000000000000000589f0eeb34c3c00",
                    "logDecoded": true,
                    "operation": "EVENT",
                    "revert": false,
                    "status": true,
                    "topics": [
                        "0xddf252ad1be2c89b69c2b068fc378daa952ba7f163c4a11628f55a4df523b3ef",
                        "0x0000000000000000000000005ff569c26a2b582c0eda066255b7d097bb778aa8",
                        "0x000000000000000000000000b8dec428280c6ba97b499865152d26e9d004a6d8"
                    ]
                },
                "nodeType": 1
            }
        },
        "gasFlame": [
            {
                "children": [
                    {
                        "children": [
                            {
                                "children": [],
                                "depth": 0,
                                "name": "Initial Gas",
                                "value": 23256
                            },
                            {
                                "children": [],
                                "depth": 0,
                                "name": "Executed Gas",
                                "value": 14867
                            }
                        ],
                        "depth": -1,
                        "name": "Actual Gas Used",
                        "value": 38123
                    },
                    {
                        "children": [],
                        "depth": -1,
                        "name": "Refunded Gas",
                        "value": 0
                    }
                ],
                "depth": -2,
                "name": "Total Gas",
                "value": 38123
            }
        ],
        "isConfirmed": true,
        "mainTrace": [
            {
                "children": [
                    {
                        "children": [
                            {
                                "children": [],
                                "depth": 1,
                                "id": 1,
                                "order": 1
                            }
                        ],
                        "depth": 0,
                        "id": 0,
                        "order": 0
                    }
                ],
                "depth": -1,
                "id": -1,
                "order": -1
            }
        ],
        "mainTraceNodeCount": 2,
        "parentIdMap": {
            "0": -1,
            "1": 0
        },
        "tidyTrace": [
            {
                "children": [
                    {
                        "children": [
                            {
                                "children": [],
                                "depth": 1,
                                "id": 1,
                                "order": 1
                            }
                        ],
                        "depth": 0,
                        "id": 0,
                        "order": 0
                    }
                ],
                "depth": -1,
                "id": -1,
                "order": -1
            }
        ],
        "tidyTraceNodeCount": 2
    },
    "state_change": {
        "stateChanges": [
            {
                "address": "0x174bfa6600bf90c885c7c01c7031389ed1461ab9",
                "erc": "ERC-20",
                "slots": [
                    {
                        "current": "0x0000000000000000000000000000000000000000000005e8965756cdf001e000",
                        "key": "0x6cf15b54c779550db203c79d41a0f3823bf2dc362f99385b0f5f6decad287e48",
                        "prev": "0x0000000000000000000000000000000000000000000005e89be147bca34e1c00"
                    },
                    {
                        "current": "0x00000000000000000000000000000000000000000000000110c6c595983c5c00",
                        "key": "0x2ecf0b7adcb4b052598761793c8eea6463e4c269b58bcb382c6a1a643cfd4bcb",
                        "prev": "0x0000000000000000000000000000000000000000000000010b3cd4a6e4f02000"
                    }
                ],
                "storageVariables": [
                    {
                        "name": "balanceOf",
                        "type": "mapping(address => uint256)",
                        "value": {
                            "pairs": [
                                {
                                    "key": "0x5ff569c26a2b582c0eda066255b7d097bb778aa8",
                                    "value": {
                                        "current": "27902310262320000000000",
                                        "prev": "27902709377270000000000",
                                        "typeTag": 1
                                    }
                                },
                                {
                                    "key": "0xb8dec428280c6ba97b499865152d26e9d004a6d8",
                                    "value": {
                                        "current": "19655614870000000000",
                                        "prev": "19256499920000000000",
                                        "typeTag": 1
                                    }
                                }
                            ],
                            "typeTag": 4
                        }
                    }
                ]
            }
        ]
    }
}