{
    "balance_change": {
        "balanceChanges": [
            {
                "account": "0x0a82cc10bda3c9e27d19c829c17fda1ee2458e9e",
                "assets": [
                    {
                        "address": "0xe0b7927c4af23765cb51314a0e0521a9645f0e2a",
                        "amount": "4.965839234",
                        "iconUrl": "https://assets.blocksec.com/icon/f5032e9ee4b301a5ba025b77aecc35e4e2fb12b0b9cc736179d8b8f75ab1ee5b.png",
                        "isERC1155": false,
                        "isERC721": false,
                        "sign": false,
                        "value": ""
                    }
                ]
            },
            {
                "account": "0x7de5ed3697f3fa7598719c51e3a895cf8e2f00fc",
                "assets": [
                    {
                        "address": "0xe0b7927c4af23765cb51314a0e0521a9645f0e2a",
                        "amount": "4.965839234",
                        "iconUrl": "https://assets.blocksec.com/icon/f5032e9ee4b301a5ba025b77aecc35e4e2fb12b0b9cc736179d8b8f75ab1ee5b.png",
                        "isERC1155": false,
                        "isERC721": false,
                        "sign": true,
                        "value": ""
                    }
                ]
            }
        ]
    },
    "profile": {
        "basic_info": {
            "baseFee": "",
            "blockNumber": 9493421,
            "callData": "0xa9059cbb0000000000000000000000007de5ed3697f3fa7598719c51e3a895cf8e2f00fc0000000000000000000000000000000000000000000000000000000127fcb182",
            "debugEnable": true,
            "errorInfo": "",
            "eventCount": 1,
            "feeRecipient": "0x829bd824b016326a401d083b33d092293333a830",
            "formatValue": "0",
            "gasLimit": 62946,
            "gasPrice": "12",
            "gasUsed": 52455,
            "intTxnCount": 0,
            "internalRevert": false,
            "internalRevertMessage": "",
            "isContractCreation": false,
            "isFlashloan": false,
            "maxFee": "",
            "nonce": 15,
            "overwritedBlockNumber": -1,
            "priorityFee": "",
            "receiver": "0xe0b7927c4af23765cb51314a0e0521a9645f0e2a",
            "revertMessage": "",
            "sender": "0x0a82cc10bda3c9e27d19c829c17fda1ee2458e9e",
            "simulationEnable": true,
            "sourceTxnHash": "0x15f70226965593243f4e1d8a0a257be514ec245c96e014a397db541fc6e514b9",
            "status": true,
            "timestamp": "2020-02-16T09:51:25Z",
            "transactionFee": "0.00062946",
            "txnHash": "0x15f70226965593243f4e1d8a0a257be514ec245c96e014a397db541fc6e514b9",
            "txnIndex": 1,
            "type": 0,
            "value": "0"
        },
        "fund_flow": [
            {
                "amount": "4.965839234",
                "from": "0x0a82cc10bda3c9e27d19c829c17fda1ee2458e9e",
                "id": 1,
                "isERC1155": false,
                "isERC721": false,
                "isReverted": false,
                "order": 1,
                "to": "0x7de5ed3697f3fa7598719c51e3a895cf8e2f00fc",
                "token": "0xe0b7927c4af23765cb51314a0e0521a9645f0e2a"
            }
        ],
        "token_infos": [
            {
                "address": "0xeeeeeeeeeeeeeeeeeeeeeeeeeeeeeeeeeeeeeeee",
                "decimals": 18
            },
            {
                "address": "0xc02aaa39b223fe8d0a0e5c4f27ead9083c756cc2",
                "decimals": 18
            },
            {
                "address": "0xe0b7927c4af23765cb51314a0e0521a9645f0e2a",
                "decimals": 9
            }
        ]
    },
    "address_label": {
        "labels": [
            {
                "address": "0xe0b7927c4af23765cb51314a0e0521a9645f0e2a",
                "label": "DigixDAO: DGD Token"
            },
            {
                "address": "0x7de5ed3697f3fa7598719c51e3a895cf8e2f00fc",
                "label": "HITBTC"
            },
            {
                "address": "0x0000000000000000000000000000000000000001",
                "label": "Precompiled"
            },
            {
                "address": "0x0000000000000000000000000000000000000002",
                "label": "Precompiled"
            },
            {
                "address": "0x0000000000000000000000000000000000000003",
                "label": "Precompiled"
            },
            {
                "address": "0x0000000000000000000000000000000000000004",
                "label": "Precompiled"
            },
            {
                "address": "0xeeeeeeeeeeeeeeeeeeeeeeeeeeeeeeeeeeeeeeee",
                "label": "Ether"
            }
        ]
    },
    "trace": {
        "accountLabels": null,
        "dataMap": {
            "-1": {
                "invocation": {
                    "address": "0x0a82cc10bda3c9e27d19c829c17fda1ee2458e9e",
                    "callData": "",
                    "decodedMethod": null,
                    "errorInfo": "",
                    "fromAddress": "",
                    "gasUsed": 0,
                    "id": -1,
                    "methodDecoded": false,
                    "operation": "",
                    "output": "",
                    "revert": false,
                    "revertMessage": "",
                    "selector": "",
                    "status": false,
                    "value": ""
                },
                "nodeType": 0
            },
            "0": {
                "invocation": {
                    "address": "0xe0b7927c4af23765cb51314a0e0521a9645f0e2a",
                    "callData": "0x0000000000000000000000007de5ed3697f3fa7598719c51e3a895cf8e2f00fc0000000000000000000000000000000000000000000000000000000127fcb182",
                    "decodedMethod": {
                        "callParams": [
                            {
                                "name": "_to",
                                "type": "address",
                                "value": "0x7de5ed3697f3fa7598719c51e3a895cf8e2f00fc"
                            },
                            {
                                "decimalAvailable": true,
                                "name": "_value",
                                "type": "uint256",
                                "value": "4,965,839,234"
                            }
                        ],
                        "constructorArguments": "",
                        "name": "transfer",
                        "returnParams": [
                            {
                                "name": "success",
                                "type": "bool",
                                "value": true
                            }
                        ],
                        "signature": "transfer(address,uint256)"
                    },
                    "errorInfo": "",
                    "fromAddress": "0x0a82cc10bda3c9e27d19c829c17fda1ee2458e9e",
                    "gasUsed": 52455,
                    "id": 0,
                    "methodDecoded": true,
                    "operation": "CALL",
                    "output": "0x0000000000000000000000000000000000000000000000000000000000000001",
                    "revert": false,
                    "revertMessage": "",
                    "selector": "0xa9059cbb",
                    "status": true,
                    "value": "0"
                },
                "nodeType": 0
            },
            "1": {
                "event": {
                    "contract": "0xe0b7927c4af23765cb51314a0e0521a9645f0e2a",
                    "decodedLog": {
                        "name": "Transfer",
                        "params": [
                            {
                                "name": "_from",
                                "type": "address",
                                "value": "0x0a82cc10bda3c9e27d19c829c17fda1ee2458e9e"
                            },
                            {
                                "name": "_to",
                                "type": "address",
                                "value": "0x7de5ed3697f3fa7598719c51e3a895cf8e2f00fc"
                            },
                            {
                                "decimalAvailable": true,
                                "name": "_value",
                                "type": "uint256",
                                "value": "4,965,839,234"
                            }
                        ],
                        "signature": "Transfer(address,address,uint256)"
                    },
                    "id": 1,
                    "logData": "0x0000000000000000000000000000000000000000000000000000000127fcb182",
                    "logDecoded": true,
                    "operation": "EVENT",
                    "revert": false,
                    "status": true,
                    "topics": [
                        "0xddf252ad1be2c89b69c2b068fc378daa952ba7f163c4a11628f55a4df523b3ef",
                        "0x0000000000000000000000000a82cc10bda3c9e27d19c829c17fda1ee2458e9e",
                        "0x0000000000000000000000007de5ed3697f3fa7598719c51e3a895cf8e2f00fc"
                    ]
                },
                "nodeType": 1
            }
        },
        "gasFlame": [
            {
                "children": [
                    {
                        "children": [
                            {
                                "children": [],
                                "depth": 0,
                                "name": "Initial Gas",
                                "value": 21608
                            },
                            {
                                "children": [],
                                "depth": 0,
                                "name": "Executed Gas",
                                "value": 30847
                            }
                        ],
                        "depth": -1,
                        "name": "Actual Gas Used",
                        "value": 52455
                    },
                    {
                        "children": [],
                        "depth": -1,
                        "name": "Refunded Gas",
                        "value": 0
                    }
                ],
                "depth": -2,
                "name": "Total Gas",
                "value": 52455
            }
        ],
        "isConfirmed": true,
        "mainTrace": [
            {
                "children": [
                    {
                        "children": [
                            {
                                "children": [],
                                "depth": 1,
                                "id": 1,
                                "order": 1
                            }
                        ],
                        "depth": 0,
                        "id": 0,
                        "order": 0
                    }
                ],
                "depth": -1,
                "id": -1,
                "order": -1
            }
        ],
        "mainTraceNodeCount": 2,
        "parentIdMap": {
            "0": -1,
            "1": 0
        },
        "tidyTrace": [
            {
                "children": [
                    {
                        "children": [
                            {
                                "children": [],
                                "depth": 1,
                                "id": 1,
                                "order": 1
                            }
                        ],
                        "depth": 0,
                        "id": 0,
                        "order": 0
                    }
                ],
                "depth": -1,
                "id": -1,
                "order": -1
            }
        ],
        "tidyTraceNodeCount": 2
    },
    "state_change": {
        "stateChanges": [
            {
                "address": "0xe0b7927c4af23765cb51314a0e0521a9645f0e2a",
                "erc": "ERC-20",
                "slots": [
                    {
                        "current": "0x0000000000000000000000000000000000000000000000000000000127fcb182",
                        "key": "0x5231575ff078e502898666bfe5ef672a24cce11d91d653a46a0f362284058ba5",
                        "prev": "0x0000000000000000000000000000000000000000000000000000000000000000"
                    },
                    {
                        "current": "0x0000000000000000000000000000000000000000000000000000000aad347f36",
                        "key": "0x4312506edbffd45c2db2cb01eb8d33dc65af687e7501161af33599a27f4f355f",
                        "prev": "0x0000000000000000000000000000000000000000000000000000000bd53130b8"
                    }
                ],
                "storageVariables": []
            }
        ]
    }
}