{
    "balance_change": {
        "balanceChanges": [
            {
                "account": "0x673460953de8a52d1ccae3c7e31fd445da99928e",
                "assets": [
                    {
                        "address": "0x6b0ef0ff629f9d781e1960e955ae62814589df84",
                        "amount": "1",
                        "iconUrl": "",
                        "isERC1155": false,
                        "isERC721": true,
                        "sign": false,
                        "tokenID": "12",
                        "value": ""
                    }
                ]
            },
            {
                "account": "0xcda72070e455bb31c7690a170224ce43623d0b6f",
                "assets": [
                    {
                        "address": "0x6b0ef0ff629f9d781e1960e955ae62814589df84",
                        "amount": "1",
                        "iconUrl": "",
                        "isERC1155": false,
                        "isERC721": true,
                        "sign": true,
                        "tokenID": "12",
                        "value": ""
                    }
                ]
            }
        ]
    },
    "profile": {
        "basic_info": {
            "baseFee": "17.768980495",
            "blockNumber": 16917587,
            "callData": "0xbeb5127c0000000000000000000000006b0ef0ff629f9d781e1960e955ae62814589df84000000000000000000000000000000000000000000000000000000000000000c00000000000000000000000000000000000000000000000006f05b59d3b20000000000000000000000000000000000000000000000000000000000000000015e",
            "debugEnable": true,
            "errorInfo": "",
            "eventCount": 4,
            "feeRecipient": "0x690b9a9e9aa1c9db991c7721a92d351db4fac990",
            "formatValue": "0",
            "gasLimit": 269966,
            "gasPrice": "17.868980495",
            "gasUsed": 237172,
            "intTxnCount": 5,
            "internalRevert": false,
            "internalRevertMessage": "",
            "isContractCreation": false,
            "isFlashloan": false,
            "maxFee": "24.226295128",
            "nonce": 255,
            "overwritedBlockNumber": -1,
            "priorityFee": "0.1",
            "receiver": "0xcda72070e455bb31c7690a170224ce43623d0b6f",
            "revertMessage": "",
            "sender": "0x673460953de8a52d1ccae3c7e31fd445da99928e",
            "simulationEnable": true,
            "sourceTxnHash": "0x159a372feecbe56e7559fa4f016e5b691c1086d7327b1ce0bb3d7212c2672c8b",
            "status": true,
            "timestamp": "2023-03-27T08:39:23Z",
            "transactionFee": "0.00423802184196014",
            "txnHash": "0x159a372feecbe56e7559fa4f016e5b691c1086d7327b1ce0bb3d7212c2672c8b",
            "txnIndex": 107,
            "type": 2,
            "value": "0"
        },
        "fund_flow": [
            {
                "amount": "1",
                "from": "0x673460953de8a52d1ccae3c7e31fd445da99928e",
                "id": 1,
                "isERC1155": false,
                "isERC721": true,
                "isReverted": false,
                "order": 1,
                "to": "0xcda72070e455bb31c7690a170224ce43623d0b6f",
                "token": "0x6b0ef0ff629f9d781e1960e955ae62814589df84",
                "tokenID": "12"
            }
        ],
        "token_infos": [
            {
                "address": "0xc02aaa39b223fe8d0a0e5c4f27ead9083c756cc2",
                "decimals": 18
            },
            {
                "address": "0xeeeeeeeeeeeeeeeeeeeeeeeeeeeeeeeeeeeeeeee",
                "decimals": 18
            }
        ]
    },
    "address_label": {
        "labels": [
            {
                "address": "0x1de06d2875453a272628bbb957077d18eb4a84cd",
                "label": "OperatorFilterer"
            },
            {
                "address": "0xc6bda983ce0a00142e2334bc2726c30573fe5e3e",
                "label": "NFTMarket"
            },
            {
                "address": "0x6b0ef0ff629f9d781e1960e955ae62814589df84",
                "label": "Luksland"
            },
            {
                "address": "0x0000000000000000000000000000000000000001",
                "label": "Precompiled"
            },
            {
                "address": "0x0000000000000000000000000000000000000003",
                "label": "Precompiled"
            },
            {
                "address": "0x0000000000000000000000000000000000000004",
                "label": "Precompiled"
            },
            {
                "address": "0xeeeeeeeeeeeeeeeeeeeeeeeeeeeeeeeeeeeeeeee",
                "label": "Ether"
            },
            {
                "address": "0x000000000000aaeb6d7670e522a718067333cd4e",
                "label": "OperatorFilterRegistry"
            },
            {
                "address": "0xcda72070e455bb31c7690a170224ce43623d0b6f",
                "label": "Foundation: Market"
            },
            {
                "address": "0x0000000000000000000000000000000000000002",
                "label": "Precompiled"
            },
            {
                "address": "0x2d3fc875de7fe7da43ad0afa0e7023c9b91d06b1",
                "label": "Manifold ERC721 Creator (M721)"
            }
        ]
    },
    "trace": {
        "accountLabels": null,
        "dataMap": {
            "-1": {
                "invocation": {
                    "address": "0x673460953de8a52d1ccae3c7e31fd445da99928e",
                    "callData": "",
                    "decodedMethod": null,
                    "errorInfo": "",
                    "fromAddress": "",
                    "gasUsed": 0,
                    "id": -1,
                    "methodDecoded": false,
                    "operation": "",
                    "output": "",
                    "revert": false,
                    "revertMessage": "",
                    "selector": "",
                    "status": false,
                    "value": ""
                },
                "nodeType": 0
            },
            "0": {
                "invocation": {
                    "address": "0xcda72070e455bb31c7690a170224ce43623d0b6f",
                    "callData": "0x0000000000000000000000006b0ef0ff629f9d781e1960e955ae62814589df84000000000000000000000000000000000000000000000000000000000000000c00000000000000000000000000000000000000000000000006f05b59d3b20000000000000000000000000000000000000000000000000000000000000000015e",
                    "decodedMethod": {
                        "callParams": [
                            {
                                "name": "nftContract",
                                "type": "address",
                                "value": "0x6b0ef0ff629f9d781e1960e955ae62814589df84"
                            },
                            {
                                "name": "tokenId",
                                "type": "uint256",
                                "value": "12"
                            },
                            {
                                "name": "reservePrice",
                                "type": "uint256",
                                "value": "500,000,000,000,000,000"
                            },
                            {
                                "name": "exhibitionId",
                                "type": "uint256",
                                "value": "350"
                            }
                        ],
                        "constructorArguments": "",
                        "name": "createReserveAuctionV2",
                        "returnParams": [
                            {
                                "name": "auctionId",
                                "type": "uint256",
                                "value": "326,352"
                            }
                        ],
                        "signature": "createReserveAuctionV2(address,uint256,uint256,uint256)"
                    },
                    "errorInfo": "",
                    "fromAddress": "0x673460953de8a52d1ccae3c7e31fd445da99928e",
                    "gasUsed": 237172,
                    "id": 0,
                    "methodDecoded": true,
                    "operation": "CALL",
                    "output": "0x000000000000000000000000000000000000000000000000000000000004fad0",
                    "revert": false,
                    "revertMessage": "",
                    "selector": "0xbeb5127c",
                    "status": true,
                    "value": "0"
                },
                "nodeType": 0
            },
            "1": {
                "invocation": {
                    "address": "0xc6bda983ce0a00142e2334bc2726c30573fe5e3e",
                    "callData": "0x0000000000000000000000006b0ef0ff629f9d781e1960e955ae62814589df84000000000000000000000000000000000000000000000000000000000000000c00000000000000000000000000000000000000000000000006f05b59d3b20000000000000000000000000000000000000000000000000000000000000000015e",
                    "decodedMethod": {
                        "callParams": [
                            {
                                "name": "nftContract",
                                "type": "address",
                                "value": "0x6b0ef0ff629f9d781e1960e955ae62814589df84"
                            },
                            {
                                "name": "tokenId",
                                "type": "uint256",
                                "value": "12"
                            },
                            {
                                "name": "reservePrice",
                                "type": "uint256",
                                "value": "500,000,000,000,000,000"
                            },
                            {
                                "name": "exhibitionId",
                                "type": "uint256",
                                "value": "350"
                            }
                        ],
                        "constructorArguments": "",
                        "name": "createReserveAuctionV2",
                        "returnParams": [
                            {
                                "name": "auctionId",
                                "type": "uint256",
                                "value": "326,352"
                            }
                        ],
                        "signature": "createReserveAuctionV2(address,uint256,uint256,uint256)"
                    },
                    "errorInfo": "",
                    "fromAddress": "0xcda72070e455bb31c7690a170224ce43623d0b6f",
                    "gasUsed": 210757,
                    "id": 1,
                    "methodDecoded": true,
                    "operation": "DELEGATECALL",
                    "output": "0x000000000000000000000000000000000000000000000000000000000004fad0",
                    "revert": false,
                    "revertMessage": "",
                    "selector": "0xbeb5127c",
                    "status": true,
                    "value": "0"
                },
                "nodeType": 0
            },
            "2": {
                "invocation": {
                    "address": "0x6b0ef0ff629f9d781e1960e955ae62814589df84",
                    "callData": "0x000000000000000000000000673460953de8a52d1ccae3c7e31fd445da99928e000000000000000000000000cda72070e455bb31c7690a170224ce43623d0b6f000000000000000000000000000000000000000000000000000000000000000c",
                    "decodedMethod": {
                        "callParams": [
                            {
                                "name": "from",
                                "type": "address",
                                "value": "0x673460953de8a52d1ccae3c7e31fd445da99928e"
                            },
                            {
                                "name": "to",
                                "type": "address",
                                "value": "0xcda72070e455bb31c7690a170224ce43623d0b6f"
                            },
                            {
                                "decimalAvailable": true,
                                "name": "tokenId",
                                "type": "uint256",
                                "value": "12"
                            }
                        ],
                        "constructorArguments": "",
                        "name": "transferFrom",
                        "returnParams": [],
                        "signature": "transferFrom(address,address,uint256)"
                    },
                    "errorInfo": "",
                    "fromAddress": "0xcda72070e455bb31c7690a170224ce43623d0b6f",
                    "gasUsed": 51243,
                    "id": 2,
                    "methodDecoded": true,
                    "operation": "CALL",
                    "output": "",
                    "revert": false,
                    "revertMessage": "",
                    "selector": "0x23b872dd",
                    "status": true,
                    "value": "0"
                },
                "nodeType": 0
            },
            "3": {
                "invocation": {
                    "address": "0x2d3fc875de7fe7da43ad0afa0e7023c9b91d06b1",
                    "callData": "0x000000000000000000000000673460953de8a52d1ccae3c7e31fd445da99928e000000000000000000000000cda72070e455bb31c7690a170224ce43623d0b6f000000000000000000000000000000000000000000000000000000000000000c",
                    "decodedMethod": {
                        "callParams": [
                            {
                                "name": "from",
                                "type": "address",
                                "value": "0x673460953de8a52d1ccae3c7e31fd445da99928e"
                            },
                            {
                                "name": "to",
                                "type": "address",
                                "value": "0xcda72070e455bb31c7690a170224ce43623d0b6f"
                            },
                            {
                                "decimalAvailable": true,
                                "name": "tokenId",
                                "type": "uint256",
                                "value": "12"
                            }
                        ],
                        "constructorArguments": "",
                        "name": "transferFrom",
                        "returnParams": [],
                        "signature": "transferFrom(address,address,uint256)"
                    },
                    "errorInfo": "",
                    "fromAddress": "0x6b0ef0ff629f9d781e1960e955ae62814589df84",
                    "gasUsed": 46312,
                    "id": 3,
                    "methodDecoded": true,
                    "operation": "DELEGATECALL",
                    "output": "",
                    "revert": false,
                    "revertMessage": "",
                    "selector": "0x23b872dd",
                    "status": true,
                    "value": "0"
                },
                "nodeType": 0
            },
            "4": {
                "invocation": {
                    "address": "0x1de06d2875453a272628bbb957077d18eb4a84cd",
                    "callData": "0x000000000000000000000000cda72070e455bb31c7690a170224ce43623d0b6f000000000000000000000000673460953de8a52d1ccae3c7e31fd445da99928e000000000000000000000000cda72070e455bb31c7690a170224ce43623d0b6f000000000000000000000000000000000000000000000000000000000000000c",
                    "decodedMethod": {
                        "callParams": [
                            {
                                "name": "operator",
                                "type": "address",
                                "value": "0xcda72070e455bb31c7690a170224ce43623d0b6f"
                            },
                            {
                                "name": "from",
                                "type": "address",
                                "value": "0x673460953de8a52d1ccae3c7e31fd445da99928e"
                            },
                            {
                                "name": "",
                                "type": "address",
                                "value": "0xcda72070e455bb31c7690a170224ce43623d0b6f"
                            },
                            {
                                "name": "",
                                "type": "uint256",
                                "value": "12"
                            }
                        ],
                        "constructorArguments": "",
                        "name": "approveTransfer",
                        "returnParams": [
                            {
                                "name": "",
                                "type": "bool",
                                "value": true
                            }
                        ],
                        "signature": "approveTransfer(address,address,address,uint256)"
                    },
                    "errorInfo": "",
                    "fromAddress": "0x6b0ef0ff629f9d781e1960e955ae62814589df84",
                    "gasUsed": 11106,
                    "id": 4,
                    "methodDecoded": true,
                    "operation": "CALL",
                    "output": "0x0000000000000000000000000000000000000000000000000000000000000001",
                    "revert": false,
                    "revertMessage": "",
                    "selector": "0x5e6a6f8a",
                    "status": true,
                    "value": "0"
                },
                "nodeType": 0
            },
            "5": {
                "invocation": {
                    "address": "0x000000000000aaeb6d7670e522a718067333cd4e",
                    "callData": "0x0000000000000000000000001de06d2875453a272628bbb957077d18eb4a84cd000000000000000000000000cda72070e455bb31c7690a170224ce43623d0b6f",
                    "decodedMethod": {
                        "callParams": [
                            {
                                "name": "registrant",
                                "type": "address",
                                "value": "0x1de06d2875453a272628bbb957077d18eb4a84cd"
                            },
                            {
                                "name": "operator",
                                "type": "address",
                                "value": "0xcda72070e455bb31c7690a170224ce43623d0b6f"
                            }
                        ],
                        "constructorArguments": "",
                        "name": "isOperatorAllowed",
                        "returnParams": [
                            {
                                "name": "",
                                "type": "bool",
                                "value": true
                            }
                        ],
                        "signature": "isOperatorAllowed(address,address)"
                    },
                    "errorInfo": "",
                    "fromAddress": "0x1de06d2875453a272628bbb957077d18eb4a84cd",
                    "gasUsed": 7627,
                    "id": 5,
                    "methodDecoded": true,
                    "operation": "STATICCALL",
                    "output": "0x0000000000000000000000000000000000000000000000000000000000000001",
                    "revert": false,
                    "revertMessage": "",
                    "selector": "0xc6171134",
                    "status": true,
                    "value": "0"
                },
                "nodeType": 0
            },
            "6": {
                "event": {
                    "contract": "0x6b0ef0ff629f9d781e1960e955ae62814589df84",
                    "decodedLog": {
                        "name": "Approval",
                        "params": [
                            {
                                "name": "owner",
                                "type": "address",
                                "value": "0x673460953de8a52d1ccae3c7e31fd445da99928e"
                            },
                            {
                                "name": "approved",
                                "type": "address",
                                "value": "0x0000000000000000000000000000000000000000"
                            },
                            {
                                "decimalAvailable": true,
                                "name": "tokenId",
                                "type": "uint256",
                                "value": "12"
                            }
                        ],
                        "signature": "Approval(address,address,uint256)"
                    },
                    "id": 6,
                    "logData": "0x",
                    "logDecoded": true,
                    "operation": "EVENT",
                    "revert": false,
                    "status": true,
                    "topics": [
                        "0x8c5be1e5ebec7d5bd14f71427d1e84f3dd0314c0f7b2291e5b200ac8c7c3b925",
                        "0x000000000000000000000000673460953de8a52d1ccae3c7e31fd445da99928e",
                        "0x0000000000000000000000000000000000000000000000000000000000000000",
                        "0x000000000000000000000000000000000000000000000000000000000000000c"
                    ]
                },
                "nodeType": 1
            },
            "7": {
                "event": {
                    "contract": "0x6b0ef0ff629f9d781e1960e955ae62814589df84",
                    "decodedLog": {
                        "name": "Transfer",
                        "params": [
                            {
                                "name": "from",
                                "type": "address",
                                "value": "0x673460953de8a52d1ccae3c7e31fd445da99928e"
                            },
                            {
                                "name": "to",
                                "type": "address",
                                "value": "0xcda72070e455bb31c7690a170224ce43623d0b6f"
                            },
                            {
                                "decimalAvailable": true,
                                "name": "tokenId",
                                "type": "uint256",
                                "value": "12"
                            }
                        ],
                        "signature": "Transfer(address,address,uint256)"
                    },
                    "id": 7,
                    "logData": "0x",
                    "logDecoded": true,
                    "operation": "EVENT",
                    "revert": false,
                    "status": true,
                    "topics": [
                        "0xddf252ad1be2c89b69c2b068fc378daa952ba7f163c4a11628f55a4df523b3ef",
                        "0x000000000000000000000000673460953de8a52d1ccae3c7e31fd445da99928e",
                        "0x000000000000000000000000cda72070e455bb31c7690a170224ce43623d0b6f",
                        "0x000000000000000000000000000000000000000000000000000000000000000c"
                    ]
                },
                "nodeType": 1
            },
            "8": {
                "event": {
                    "contract": "0xcda72070e455bb31c7690a170224ce43623d0b6f",
                    "decodedLog": {
                        "name": "NftAddedToExhibition",
                        "params": [
                            {
                                "name": "nftContract",
                                "type": "address",
                                "value": "0x6b0ef0ff629f9d781e1960e955ae62814589df84"
                            },
                            {
                                "name": "tokenId",
                                "type": "uint256",
                                "value": "12"
                            },
                            {
                                "name": "exhibitionId",
                                "type": "uint256",
                                "value": "350"
                            }
                        ],
                        "signature": "NftAddedToExhibition(address,uint256,uint256)"
                    },
                    "id": 8,
                    "logData": "0x",
                    "logDecoded": true,
                    "operation": "EVENT",
                    "revert": false,
                    "status": true,
                    "topics": [
                        "0xb17e0c916df75a12480835f00b3927cb871bbe00bacf819f81a1d92f9ff7f38d",
                        "0x0000000000000000000000006b0ef0ff629f9d781e1960e955ae62814589df84",
                        "0x000000000000000000000000000000000000000000000000000000000000000c",
                        "0x000000000000000000000000000000000000000000000000000000000000015e"
                    ]
                },
                "nodeType": 1
            },
            "9": {
                "event": {
                    "contract": "0xcda72070e455bb31c7690a170224ce43623d0b6f",
                    "decodedLog": {
                        "name": "ReserveAuctionCreated",
                        "params": [
                            {
                                "name": "seller",
                                "type": "address",
                                "value": "0x673460953de8a52d1ccae3c7e31fd445da99928e"
                            },
                            {
                                "name": "nftContract",
                                "type": "address",
                                "value": "0x6b0ef0ff629f9d781e1960e955ae62814589df84"
                            },
                            {
                                "name": "tokenId",
                                "type": "uint256",
                                "value": "12"
                            },
                            {
                                "name": "duration",
                                "type": "uint256",
                                "value": "86,400"
                            },
                            {
                                "name": "extensionDuration",
                                "type": "uint256",
                                "value": "900"
                            },
                            {
                                "name": "reservePrice",
                                "type": "uint256",
                                "value": "500,000,000,000,000,000"
                            },
                            {
                                "name": "auctionId",
                                "type": "uint256",
                                "value": "326,352"
                            }
                        ],
                        "signature": "ReserveAuctionCreated(address,address,uint256,uint256,uint256,uint256,uint256)"
                    },
                    "id": 9,
                    "logData": "0x0000000000000000000000000000000000000000000000000000000000015180000000000000000000000000000000000000000000000000000000000000038400000000000000000000000000000000000000000000000006f05b59d3b20000000000000000000000000000000000000000000000000000000000000004fad0",
                    "logDecoded": true,
                    "operation": "EVENT",
                    "revert": false,
                    "status": true,
                    "topics": [
                        "0x1062dd3b35f12b4064331244d00f40c1d4831965e4285654157a2409c6217cff",
                        "0x000000000000000000000000673460953de8a52d1ccae3c7e31fd445da99928e",
                        "0x0000000000000000000000006b0ef0ff629f9d781e1960e955ae62814589df84",
                        "0x000000000000000000000000000000000000000000000000000000000000000c"
                    ]
                },
                "nodeType": 1
            }
        },
        "gasFlame": [
            {
                "children": [
                    {
                        "children": [
                            {
                                "children": [],
                                "depth": 0,
                                "name": "Initial Gas",
                                "value": 21924
                            },
                            {
                                "children": [
                                    {
                                        "children": [
                                            {
                                                "children": [
                                                    {
                                                        "children": [
                                                            {
                                                                "children": [
                                                                    {
                                                                        "children": [],
                                                                        "depth": 5,
                                                                        "name": "isOperatorAllowed",
                                                                        "value": 7627
                                                                    }
                                                                ],
                                                                "depth": 4,
                                                                "name": "approveTransfer",
                                                                "value": 11106
                                                            }
                                                        ],
                                                        "depth": 3,
                                                        "name": "transferFrom",
                                                        "value": 46312
                                                    }
                                                ],
                                                "depth": 2,
                                                "name": "transferFrom",
                                                "value": 51243
                                            }
                                        ],
                                        "depth": 1,
                                        "name": "createReserveAuctionV2",
                                        "value": 210757
                                    }
                                ],
                                "depth": 0,
                                "name": "Executed Gas",
                                "value": 218048
                            }
                        ],
                        "depth": -1,
                        "name": "Actual Gas Used",
                        "value": 237172
                    },
                    {
                        "children": [],
                        "depth": -1,
                        "name": "Refunded Gas",
                        "value": 2800
                    }
                ],
                "depth": -2,
                "name": "Total Gas",
                "value": 239972
            }
        ],
        "isConfirmed": true,
        "mainTrace": [
            {
                "children": [
                    {
                        "children": [
                            {
                                "children": [
                                    {
                                        "children": [
                                            {
                                                "children": [
                                                    {
                                                        "children": [
                                                            {
                                                                "children": [],
                                                                "depth": 5,
                                                                "id": 5,
                                                                "order": 5
                                                            }
                                                        ],
                                                        "depth": 4,
                                                        "id": 4,
                                                        "order": 4
                                                    },
                                                    {
                                                        "children": [],
                                                        "depth": 4,
                                                        "id": 6,
                                                        "order": 6
                                                    },
                                                    {
                                                        "children": [],
                                                        "depth": 4,
                                                        "id": 7,
                                                        "order": 7
                                                    }
                                                ],
                                                "depth": 3,
                                                "id": 3,
                                                "order": 3
                                            }
                                        ],
                                        "depth": 2,
                                        "id": 2,
                                        "order": 2
                                    },
                                    {
                                        "children": [],
                                        "depth": 2,
                                        "id": 8,
                                        "order": 8
                                    },
                                    {
                                        "children": [],
                                        "depth": 2,
                                        "id": 9,
                                        "order": 9
                                    }
                                ],
                                "depth": 1,
                                "id": 1,
                                "order": 1
                            }
                        ],
                        "depth": 0,
                        "id": 0,
                        "order": 0
                    }
                ],
                "depth": -1,
                "id": -1,
                "order": -1
            }
        ],
        "mainTraceNodeCount": 10,
        "parentIdMap": {
            "0": -1,
            "1": 0,
            "2": 1,
            "3": 2,
            "4": 3,
            "5": 4,
            "6": 3,
            "7": 3,
            "8": 1,
            "9": 1
        },
        "tidyTrace": [
            {
                "children": [
                    {
                        "children": [
                            {
                                "children": [
                                    {
                                        "children": [
                                            {
                                                "children": [
                                                    {
                                                        "children": [],
                                                        "depth": 4,
                                                        "id": 4,
                                                        "order": 4
                                                    },
                                                    {
                                                        "children": [],
                                                        "depth": 4,
                                                        "id": 6,
                                                        "order": 6
                                                    },
                                                    {
                                                        "children": [],
                                                        "depth": 4,
                                                        "id": 7,
                                                        "order": 7
                                                    }
                                                ],
                                                "depth": 3,
                                                "id": 3,
                                                "order": 3
                                            }
                                        ],
                                        "depth": 2,
                                        "id": 2,
                                        "order": 2
                                    },
                                    {
                                        "children": [],
                                        "depth": 2,
                                        "id": 8,
                                        "order": 8
                                    },
                                    {
                                        "children": [],
                                        "depth": 2,
                                        "id": 9,
                                        "order": 9
                                    }
                                ],
                                "depth": 1,
                                "id": 1,
                                "order": 1
                            }
                        ],
                        "depth": 0,
                        "id": 0,
                        "order": 0
                    }
                ],
                "depth": -1,
                "id": -1,
                "order": -1
            }
        ],
        "tidyTraceNodeCount": 9
    },
    "state_change": {
        "stateChanges": [
            {
                "address": "0x6b0ef0ff629f9d781e1960e955ae62814589df84",
                "erc": "ERC-721",
                "slots": [
                    {
                        "current": "0x0000000000000000000000000000000000000000000000000000000000000001",
                        "key": "0xfaeb192b820cf1d7cd5d0dcea9ffecddee145c962376eef9ae07baff7341a789",
                        "prev": "0x0000000000000000000000000000000000000000000000000000000000000002"
                    },
                    {
                        "current": "0x0000000000000000000000000000000000000000000000000000000000000003",
                        "key": "0x15be874524e6bee1669b75aef2ea6c9de445bde4e8175cefa4d30edd1e64d6ac",
                        "prev": "0x0000000000000000000000000000000000000000000000000000000000000002"
                    },
                    {
                        "current": "0x000000000000000000000000cda72070e455bb31c7690a170224ce43623d0b6f",
                        "key": "0xaf6c5e72876b92978e999b775d4e9e91438e2bbf5eb081be77460d472f9234c7",
                        "prev": "0x000000000000000000000000673460953de8a52d1ccae3c7e31fd445da99928e"
                    }
                ],
                "storageVariables": [
                    {
                        "name": "_balances",
                        "type": "mapping(address => uint256)",
                        "value": {
                            "pairs": [
                                {
                                    "key": "0x673460953de8a52d1ccae3c7e31fd445da99928e",
                                    "value": {
                                        "current": "1",
                                        "prev": "2",
                                        "typeTag": 1
                                    }
                                },
                                {
                                    "key": "0xcda72070e455bb31c7690a170224ce43623d0b6f",
                                    "value": {
                                        "current": "3",
                                        "prev": "2",
                                        "typeTag": 1
                                    }
                                }
                            ],
                            "typeTag": 4
                        }
                    },
                    {
                        "name": "_owners",
                        "type": "mapping(uint256 => address)",
                        "value": {
                            "pairs": [
                                {
                                    "key": "12",
                                    "value": {
                                        "current": "0xcda72070e455bb31c7690a170224ce43623d0b6f",
                                        "prev": "0x673460953de8a52d1ccae3c7e31fd445da99928e",
                                        "typeTag": 1
                                    }
                                }
                            ],
                            "typeTag": 4
                        }
                    }
                ]
            },
            {
                "address": "0xcda72070e455bb31c7690a170224ce43623d0b6f",
                "erc": "",
                "slots": [
                    {
                        "current": "0x00000000000000000000000000000000000000000000000006f05b59d3b20000",
                        "key": "0x598376e36738f7f3ca2fd8c30e450b99949ea089c6d763b30c765f51c54f59fc",
                        "prev": "0x0000000000000000000000000000000000000000000000000000000000000000"
                    },
                    {
                        "current": "0x000000000000000000000000000000000000000000000000000000000000015e",
                        "key": "0x598d83adc2f60541f2c4c1aa4330ffd80d70ac06f227cb2c38e5ce6a19bfadb8",
                        "prev": "0x0000000000000000000000000000000000000000000000000000000000000000"
                    },
                    {
                        "current": "0x000000000000000000000000000000000000000000000000000000000004fad1",
                        "key": "0x000000000000000000000000000000000000000000000000000000000000138d",
                        "prev": "0x000000000000000000000000000000000000000000000000000000000004fad0"
                    },
                    {
                        "current": "0x000000000000000000000000000000000000000000000000000000000004fad0",
                        "key": "0xab3fc907000ce74fd1935579c190feaa0fc3e2864c700f6b5889e81913b07a2b",
                        "prev": "0x0000000000000000000000000000000000000000000000000000000000000000"
                    },
                    {
                        "current": "0x0000000000000000000000006b0ef0ff629f9d781e1960e955ae62814589df84",
                        "key": "0x598376e36738f7f3ca2fd8c30e450b99949ea089c6d763b30c765f51c54f59f5",
                        "prev": "0x0000000000000000000000000000000000000000000000000000000000000000"
                    },
                    {
                        "current": "0x000000000000000000000000000000000000000000000000000000000000000c",
                        "key": "0x598376e36738f7f3ca2fd8c30e450b99949ea089c6d763b30c765f51c54f59f6",
                        "prev": "0x0000000000000000000000000000000000000000000000000000000000000000"
                    },
                    {
                        "current": "0x000000000000000000000000673460953de8a52d1ccae3c7e31fd445da99928e",
                        "key": "0x598376e36738f7f3ca2fd8c30e450b99949ea089c6d763b30c765f51c54f59f7",
                        "prev": "0x0000000000000000000000000000000000000000000000000000000000000000"
                    }
                ],
                "storageVariables": [
                    {
                        "name": "auctionIdToAuction",
                        "type": "mapping(uint256 => struct NFTMarketReserveAuction.ReserveAuctionStorage)",
                        "value": {
                            "pairs": [
                                {
                                    "key": "326352",
                                    "value": {
                                        "fields": [
                                            {
                                                "name": "nftContract",
                                                "type": "address",
                                                "value": {
                                                    "current": "0x6b0ef0ff629f9d781e1960e955ae62814589df84",
                                                    "prev": "0x0000000000000000000000000000000000000000",
                                                    "typeTag": 1
                                                }
                                            },
                                            {
                                                "name": "tokenId",
                                                "type": "uint256",
                                                "value": {
                                                    "current": "12",
                                                    "prev": "0",
                                                    "typeTag": 1
                                                }
                                            },
                                            {
                                                "name": "seller",
                                                "type": "address payable",
                                                "value": {
                                                    "current": "0x673460953de8a52d1ccae3c7e31fd445da99928e",
                                                    "prev": "0x0000000000000000000000000000000000000000",
                                                    "typeTag": 1
                                                }
                                            },
                                            {
                                                "name": "bidReferrerAddressSlot0",
                                                "type": "uint96",
                                                "value": {
                                                    "current": "0",
                                                    "prev": "0",
                                                    "typeTag": 1
                                                }
                                            },
                                            {
                                                "name": "amount",
                                                "type": "uint256",
                                                "value": {
                                                    "current": "500000000000000000",
                                                    "prev": "0",
                                                    "typeTag": 1
                                                }
                                            }
                                        ],
                                        "typeTag": 3
                                    }
                                }
                            ],
                            "typeTag": 4
                        }
                    },
                    {
                        "name": "nftContractToTokenIdToExhibitionId",
                        "type": "mapping(address => mapping(uint256 => uint256))",
                        "value": {
                            "pairs": [
                                {
                                    "key": "0x6b0ef0ff629f9d781e1960e955ae62814589df84",
                                    "value": {
                                        "pairs": [
                                            {
                                                "key": "12",
                                                "value": {
                                                    "current": "350",
                                                    "prev": "0",
                                                    "typeTag": 1
                                                }
                                            }
                                        ],
                                        "typeTag": 4
                                    }
                                }
                            ],
                            "typeTag": 4
                        }
                    },
                    {
                        "name": "nextAuctionId",
                        "type": "uint256",
                        "value": {
                            "current": "326353",
                            "prev": "326352",
                            "typeTag": 1
                        }
                    },
                    {
                        "name": "nftContractToTokenIdToAuctionId",
                        "type": "mapping(address => mapping(uint256 => uint256))",
                        "value": {
                            "pairs": [
                                {
                                    "key": "0x6b0ef0ff629f9d781e1960e955ae62814589df84",
                                    "value": {
                                        "pairs": [
                                            {
                                                "key": "12",
                                                "value": {
                                                    "current": "326352",
                                                    "prev": "0",
                                                    "typeTag": 1
                                                }
                                            }
                                        ],
                                        "typeTag": 4
                                    }
                                }
                            ],
                            "typeTag": 4
                        }
                    }
                ]
            }
        ]
    }
}