{
    "balance_change": {
        "balanceChanges": [
            {
                "account": "0x16523d2a4da525f115219309a9d1d7d0bc65abae",
                "assets": [
                    {
                        "address": "0xae31b85bfe62747d0836b82608b4830361a3d37a",
                        "amount": "6,000",
                        "iconUrl": "",
                        "isERC1155": false,
                        "isERC721": false,
                        "sign": false,
                        "value": ""
                    }
                ]
            },
            {
                "account": "0xc5bca69f2d533e963155db6550396c630addafa5",
                "assets": [
                    {
                        "address": "0xae31b85bfe62747d0836b82608b4830361a3d37a",
                        "amount": "6,000",
                        "iconUrl": "",
                        "isERC1155": false,
                        "isERC721": false,
                        "sign": true,
                        "value": ""
                    }
                ]
            }
        ]
    },
    "profile": {
        "basic_info": {
            "baseFee": "",
            "blockNumber": 10430336,
            "callData": "0xa9059cbb000000000000000000000000c5bca69f2d533e963155db6550396c630addafa500000000000000000000000000000000000000000000014542ba12a337c00000",
            "debugEnable": true,
            "errorInfo": "",
            "eventCount": 1,
            "feeRecipient": "0x5a0b54d5dc17e0aadc383d2db43b0a0d3e029c4c",
            "formatValue": "0",
            "gasLimit": 60000,
            "gasPrice": "44",
            "gasUsed": 53196,
            "intTxnCount": 0,
            "internalRevert": false,
            "internalRevertMessage": "",
            "isContractCreation": false,
            "isFlashloan": false,
            "maxFee": "",
            "nonce": 228,
            "overwritedBlockNumber": -1,
            "priorityFee": "",
            "receiver": "0xae31b85bfe62747d0836b82608b4830361a3d37a",
            "revertMessage": "",
            "sender": "0x16523d2a4da525f115219309a9d1d7d0bc65abae",
            "simulationEnable": true,
            "sourceTxnHash": "0x15a2c570b8789bf58eec8521f25ee00556a47c35c067ee9f807022ebe75f3afc",
            "status": true,
            "timestamp": "2020-07-10T07:15:33Z",
            "transactionFee": "0.002340624",
            "txnHash": "0x15a2c570b8789bf58eec8521f25ee00556a47c35c067ee9f807022ebe75f3afc",
            "txnIndex": 140,
            "type": 0,
            "value": "0"
        },
        "fund_flow": [
            {
                "amount": "6,000",
                "from": "0x16523d2a4da525f115219309a9d1d7d0bc65abae",
                "id": 1,
                "isERC1155": false,
                "isERC721": false,
                "isReverted": false,
                "order": 1,
                "to": "0xc5bca69f2d533e963155db6550396c630addafa5",
                "token": "0xae31b85bfe62747d0836b82608b4830361a3d37a"
            }
        ],
        "token_infos": [
            {
                "address": "0xeeeeeeeeeeeeeeeeeeeeeeeeeeeeeeeeeeeeeeee",
                "decimals": 18
            },
            {
                "address": "0xae31b85bfe62747d0836b82608b4830361a3d37a",
                "decimals": 18
            },
            {
                "address": "0xc02aaa39b223fe8d0a0e5c4f27ead9083c756cc2",
                "decimals": 18
            }
        ]
    },
    "address_label": {
        "labels": [
            {
                "address": "0xeeeeeeeeeeeeeeeeeeeeeeeeeeeeeeeeeeeeeeee",
                "label": "Ether"
            },
            {
                "address": "0xc5bca69f2d533e963155db6550396c630addafa5",
                "label": "KUCOIN"
            },
            {
                "address": "0xae31b85bfe62747d0836b82608b4830361a3d37a",
                "label": "Aergo: Old AERGO Token"
            },
            {
                "address": "0x0000000000000000000000000000000000000001",
                "label": "Precompiled"
            },
            {
                "address": "0x0000000000000000000000000000000000000002",
                "label": "Precompiled"
            },
            {
                "address": "0x0000000000000000000000000000000000000003",
                "label": "Precompiled"
            },
            {
                "address": "0x0000000000000000000000000000000000000004",
                "label": "Precompiled"
            }
        ]
    },
    "trace": {
        "accountLabels": null,
        "dataMap": {
            "-1": {
                "invocation": {
                    "address": "0x16523d2a4da525f115219309a9d1d7d0bc65abae",
                    "callData": "",
                    "decodedMethod": null,
                    "errorInfo": "",
                    "fromAddress": "",
                    "gasUsed": 0,
                    "id": -1,
                    "methodDecoded": false,
                    "operation": "",
                    "output": "",
                    "revert": false,
                    "revertMessage": "",
                    "selector": "",
                    "status": false,
                    "value": ""
                },
                "nodeType": 0
            },
            "0": {
                "invocation": {
                    "address": "0xae31b85bfe62747d0836b82608b4830361a3d37a",
                    "callData": "0x000000000000000000000000c5bca69f2d533e963155db6550396c630addafa500000000000000000000000000000000000000000000014542ba12a337c00000",
                    "decodedMethod": {
                        "callParams": [
                            {
                                "name": "_to",
                                "type": "address",
                                "value": "0xc5bca69f2d533e963155db6550396c630addafa5"
                            },
                            {
                                "decimalAvailable": true,
                                "name": "_value",
                                "type": "uint256",
                                "value": "6,000,000,000,000,000,000,000"
                            }
                        ],
                        "constructorArguments": "",
                        "name": "transfer",
                        "returnParams": [
                            {
                                "name": "",
                                "type": "bool",
                                "value": true
                            }
                        ],
                        "signature": "transfer(address,uint256)"
                    },
                    "errorInfo": "",
                    "fromAddress": "0x16523d2a4da525f115219309a9d1d7d0bc65abae",
                    "gasUsed": 53196,
                    "id": 0,
                    "methodDecoded": true,
                    "operation": "CALL",
                    "output": "0x0000000000000000000000000000000000000000000000000000000000000001",
                    "revert": false,
                    "revertMessage": "",
                    "selector": "0xa9059cbb",
                    "status": true,
                    "value": "0"
                },
                "nodeType": 0
            },
            "1": {
                "event": {
                    "contract": "0xae31b85bfe62747d0836b82608b4830361a3d37a",
                    "decodedLog": {
                        "name": "Transfer",
                        "params": [
                            {
                                "name": "from",
                                "type": "address",
                                "value": "0x16523d2a4da525f115219309a9d1d7d0bc65abae"
                            },
                            {
                                "name": "to",
                                "type": "address",
                                "value": "0xc5bca69f2d533e963155db6550396c630addafa5"
                            },
                            {
                                "decimalAvailable": true,
                                "name": "value",
                                "type": "uint256",
                                "value": "6,000,000,000,000,000,000,000"
                            }
                        ],
                        "signature": "Transfer(address,address,uint256)"
                    },
                    "id": 1,
                    "logData": "0x00000000000000000000000000000000000000000000014542ba12a337c00000",
                    "logDecoded": true,
                    "operation": "EVENT",
                    "revert": false,
                    "status": true,
                    "topics": [
                        "0xddf252ad1be2c89b69c2b068fc378daa952ba7f163c4a11628f55a4df523b3ef",
                        "0x00000000000000000000000016523d2a4da525f115219309a9d1d7d0bc65abae",
                        "0x000000000000000000000000c5bca69f2d533e963155db6550396c630addafa5"
                    ]
                },
                "nodeType": 1
            }
        },
        "gasFlame": [
            {
                "children": [
                    {
                        "children": [
                            {
                                "children": [],
                                "depth": 0,
                                "name": "Initial Gas",
                                "value": 21656
                            },
                            {
                                "children": [],
                                "depth": 0,
                                "name": "Executed Gas",
                                "value": 31540
                            }
                        ],
                        "depth": -1,
                        "name": "Actual Gas Used",
                        "value": 53196
                    },
                    {
                        "children": [],
                        "depth": -1,
                        "name": "Refunded Gas",
                        "value": 0
                    }
                ],
                "depth": -2,
                "name": "Total Gas",
                "value": 53196
            }
        ],
        "isConfirmed": true,
        "mainTrace": [
            {
                "children": [
                    {
                        "children": [
                            {
                                "children": [],
                                "depth": 1,
                                "id": 1,
                                "order": 1
                            }
                        ],
                        "depth": 0,
                        "id": 0,
                        "order": 0
                    }
                ],
                "depth": -1,
                "id": -1,
                "order": -1
            }
        ],
        "mainTraceNodeCount": 2,
        "parentIdMap": {
            "0": -1,
            "1": 0
        },
        "tidyTrace": [
            {
                "children": [
                    {
                        "children": [
                            {
                                "children": [],
                                "depth": 1,
                                "id": 1,
                                "order": 1
                            }
                        ],
                        "depth": 0,
                        "id": 0,
                        "order": 0
                    }
                ],
                "depth": -1,
                "id": -1,
                "order": -1
            }
        ],
        "tidyTraceNodeCount": 2
    },
    "state_change": {
        "stateChanges": [
            {
                "address": "0xae31b85bfe62747d0836b82608b4830361a3d37a",
                "erc": "ERC-20",
                "slots": [
                    {
                        "current": "0x00000000000000000000000000000000000000000000023dec23b7ab848c0000",
                        "key": "0xefd6f543133d5491ff299da91b6f1b38252a4b45a4e6c0ff1053fdadd29f27c9",
                        "prev": "0x0000000000000000000000000000000000000000000003832eddca4ebc4c0000"
                    },
                    {
                        "current": "0x00000000000000000000000000000000000000000000014542ba12a337c00000",
                        "key": "0xd93ea5e128a1d30d043e0e416b24ed28c52cf0de3991b49511affd7baf61fd8d",
                        "prev": "0x0000000000000000000000000000000000000000000000000000000000000000"
                    }
                ],
                "storageVariables": [
                    {
                        "name": "balances",
                        "type": "mapping(address => uint256)",
                        "value": {
                            "pairs": [
                                {
                                    "key": "0x16523d2a4da525f115219309a9d1d7d0bc65abae",
                                    "value": {
                                        "current": "10587000000000000000000",
                                        "prev": "16587000000000000000000",
                                        "typeTag": 1
                                    }
                                },
                                {
                                    "key": "0xc5bca69f2d533e963155db6550396c630addafa5",
                                    "value": {
                                        "current": "6000000000000000000000",
                                        "prev": "0",
                                        "typeTag": 1
                                    }
                                }
                            ],
                            "typeTag": 4
                        }
                    }
                ]
            }
        ]
    }
}