{
    "balance_change": {
        "balanceChanges": []
    },
    "profile": {
        "basic_info": {
            "baseFee": "7.359146428",
            "blockNumber": 19687330,
            "callData": "0x2d3c12e512775c28e094a430c57ed7de351d3abe4fb7cd7ccb8ca7cdca45db3cd65da8ad015b26e289a1ebe44624be07f8d7f2e88e78bf35699e94b0b19a8fba75868da20f4d7508d6f401d9f66741cc39c37f6c7df884a5284260a09c2032e2415780bd00000000000000000000000000000000000000000000000000000000003a408100000000000000000000000000000000000000000000000000000000003a40bf06bd247574bd6c1fe49a9194f09b236a87822e69173808a3874aaeeb1192a4e13f9c9b6a34f25239631e2a1f6b32cc9541d94b2b0c59f113e0fa94312abee4b6000000000000000000000000000000000000000000000000000000000000012000000000000000000000000000000000000000000000000000000000000001800000000000000000000000000000000000000000000000000000000000000030a12a074bc4994fc4e80a5e993ccc00b7681dfa3f9606a83c2732e2a215f3656b7efcc78274ecafd1650a30188302fc89000000000000000000000000000000000000000000000000000000000000000000000000000000000000000000000030a37f32a644d9f8cc9bc92c6e1f374d4499ffe1d2988aa75c31bfb95404b14e1a03070379cb8030b855e1c8cfcb6caaf100000000000000000000000000000000",
            "debugEnable": true,
            "errorInfo": "",
            "eventCount": 1,
            "feeRecipient": "0x95222290dd7278aa3ddd389cc1e1d165cc4bafe5",
            "formatValue": "0",
            "gasLimit": 5000000,
            "gasPrice": "8.459146428",
            "gasUsed": 213146,
            "intTxnCount": 2,
            "internalRevert": false,
            "internalRevertMessage": "",
            "isContractCreation": false,
            "isFlashloan": false,
            "maxFee": "16.615106308",
            "nonce": 50377,
            "overwritedBlockNumber": -1,
            "priorityFee": "1.1",
            "receiver": "0xd19d4b5d358258f05d7b411e21a1460d11b0876f",
            "revertMessage": "",
            "sender": "0xa9268341831efa4937537bc3e9eb36dbece83c7e",
            "simulationEnable": true,
            "sourceTxnHash": "0x15e32fe16ff4ab255f4a93f6e9f60d6a0d7a3c0a8a1697230464106f7ea40f6a",
            "status": true,
            "timestamp": "2024-04-19T05:13:11Z",
            "transactionFee": "0.001803033224542488",
            "txnHash": "0x15e32fe16ff4ab255f4a93f6e9f60d6a0d7a3c0a8a1697230464106f7ea40f6a",
            "txnIndex": 53,
            "type": 3,
            "value": "0"
        },
        "fund_flow": [],
        "token_infos": [
            {
                "address": "0xc02aaa39b223fe8d0a0e5c4f27ead9083c756cc2",
                "decimals": 18
            },
            {
                "address": "0xeeeeeeeeeeeeeeeeeeeeeeeeeeeeeeeeeeeeeeee",
                "decimals": 18
            }
        ]
    },
    "address_label": {
        "labels": [
            {
                "address": "0x0000000000000000000000000000000000000004",
                "label": "Precompiled"
            },
            {
                "address": "0xeeeeeeeeeeeeeeeeeeeeeeeeeeeeeeeeeeeeeeee",
                "label": "Ether"
            },
            {
                "address": "0xd19d4b5d358258f05d7b411e21a1460d11b0876f",
                "label": "Linea: L1 Message Service"
            },
            {
                "address": "0x934dd4c63e285551cecef8459103554d0096c179",
                "label": "LineaRollup"
            },
            {
                "address": "0x0000000000000000000000000000000000000001",
                "label": "Precompiled"
            },
            {
                "address": "0x0000000000000000000000000000000000000002",
                "label": "Precompiled"
            },
            {
                "address": "0x0000000000000000000000000000000000000003",
                "label": "Precompiled"
            }
        ]
    },
    "trace": {
        "accountLabels": null,
        "dataMap": {
            "-1": {
                "invocation": {
                    "address": "0xa9268341831efa4937537bc3e9eb36dbece83c7e",
                    "callData": "",
                    "decodedMethod": null,
                    "errorInfo": "",
                    "fromAddress": "",
                    "gasUsed": 0,
                    "id": -1,
                    "methodDecoded": false,
                    "operation": "",
                    "output": "",
                    "revert": false,
                    "revertMessage": "",
                    "selector": "",
                    "status": false,
                    "value": ""
                },
                "nodeType": 0
            },
            "0": {
                "invocation": {
                    "address": "0xd19d4b5d358258f05d7b411e21a1460d11b0876f",
                    "callData": "0x12775c28e094a430c57ed7de351d3abe4fb7cd7ccb8ca7cdca45db3cd65da8ad015b26e289a1ebe44624be07f8d7f2e88e78bf35699e94b0b19a8fba75868da20f4d7508d6f401d9f66741cc39c37f6c7df884a5284260a09c2032e2415780bd00000000000000000000000000000000000000000000000000000000003a408100000000000000000000000000000000000000000000000000000000003a40bf06bd247574bd6c1fe49a9194f09b236a87822e69173808a3874aaeeb1192a4e13f9c9b6a34f25239631e2a1f6b32cc9541d94b2b0c59f113e0fa94312abee4b6000000000000000000000000000000000000000000000000000000000000012000000000000000000000000000000000000000000000000000000000000001800000000000000000000000000000000000000000000000000000000000000030a12a074bc4994fc4e80a5e993ccc00b7681dfa3f9606a83c2732e2a215f3656b7efcc78274ecafd1650a30188302fc89000000000000000000000000000000000000000000000000000000000000000000000000000000000000000000000030a37f32a644d9f8cc9bc92c6e1f374d4499ffe1d2988aa75c31bfb95404b14e1a03070379cb8030b855e1c8cfcb6caaf100000000000000000000000000000000",
                    "decodedMethod": {
                        "callParams": [
                            {
                                "name": "_submissionData",
                                "type": "(bytes32,bytes32,bytes32,uint256,uint256,bytes32)",
                                "value": [
                                    {
                                        "name": "parentStateRootHash",
                                        "type": "bytes32",
                                        "value": "0x12775c28e094a430c57ed7de351d3abe4fb7cd7ccb8ca7cdca45db3cd65da8ad"
                                    },
                                    {
                                        "name": "dataParentHash",
                                        "type": "bytes32",
                                        "value": "0x015b26e289a1ebe44624be07f8d7f2e88e78bf35699e94b0b19a8fba75868da2"
                                    },
                                    {
                                        "name": "finalStateRootHash",
                                        "type": "bytes32",
                                        "value": "0x0f4d7508d6f401d9f66741cc39c37f6c7df884a5284260a09c2032e2415780bd"
                                    },
                                    {
                                        "name": "firstBlockInData",
                                        "type": "uint256",
                                        "value": "3,817,601"
                                    },
                                    {
                                        "name": "finalBlockInData",
                                        "type": "uint256",
                                        "value": "3,817,663"
                                    },
                                    {
                                        "name": "snarkHash",
                                        "type": "bytes32",
                                        "value": "0x06bd247574bd6c1fe49a9194f09b236a87822e69173808a3874aaeeb1192a4e1"
                                    }
                                ]
                            },
                            {
                                "name": "_dataEvaluationClaim",
                                "type": "uint256",
                                "value": "28,772,410,236,865,233,999,916,984,077,900,290,033,197,099,153,766,360,641,151,215,350,004,492,199,094"
                            },
                            {
                                "name": "_kzgCommitment",
                                "type": "bytes",
                                "value": "0xa12a074bc4994fc4e80a5e993ccc00b7681dfa3f9606a83c2732e2a215f3656b7efcc78274ecafd1650a30188302fc89"
                            },
                            {
                                "name": "_kzgProof",
                                "type": "bytes",
                                "value": "0xa37f32a644d9f8cc9bc92c6e1f374d4499ffe1d2988aa75c31bfb95404b14e1a03070379cb8030b855e1c8cfcb6caaf1"
                            }
                        ],
                        "constructorArguments": "",
                        "name": "submitBlobData",
                        "returnParams": [],
                        "signature": "submitBlobData((bytes32,bytes32,bytes32,uint256,uint256,bytes32),uint256,bytes,bytes)"
                    },
                    "errorInfo": "",
                    "fromAddress": "0xa9268341831efa4937537bc3e9eb36dbece83c7e",
                    "gasUsed": 213146,
                    "id": 0,
                    "methodDecoded": true,
                    "operation": "CALL",
                    "output": "",
                    "revert": false,
                    "revertMessage": "",
                    "selector": "0x2d3c12e5",
                    "status": true,
                    "value": "0"
                },
                "nodeType": 0
            },
            "1": {
                "invocation": {
                    "address": "0x934dd4c63e285551cecef8459103554d0096c179",
                    "callData": "0x12775c28e094a430c57ed7de351d3abe4fb7cd7ccb8ca7cdca45db3cd65da8ad015b26e289a1ebe44624be07f8d7f2e88e78bf35699e94b0b19a8fba75868da20f4d7508d6f401d9f66741cc39c37f6c7df884a5284260a09c2032e2415780bd00000000000000000000000000000000000000000000000000000000003a408100000000000000000000000000000000000000000000000000000000003a40bf06bd247574bd6c1fe49a9194f09b236a87822e69173808a3874aaeeb1192a4e13f9c9b6a34f25239631e2a1f6b32cc9541d94b2b0c59f113e0fa94312abee4b6000000000000000000000000000000000000000000000000000000000000012000000000000000000000000000000000000000000000000000000000000001800000000000000000000000000000000000000000000000000000000000000030a12a074bc4994fc4e80a5e993ccc00b7681dfa3f9606a83c2732e2a215f3656b7efcc78274ecafd1650a30188302fc89000000000000000000000000000000000000000000000000000000000000000000000000000000000000000000000030a37f32a644d9f8cc9bc92c6e1f374d4499ffe1d2988aa75c31bfb95404b14e1a03070379cb8030b855e1c8cfcb6caaf100000000000000000000000000000000",
                    "decodedMethod": {
                        "callParams": [
                            {
                                "name": "_submissionData",
                                "type": "(bytes32,bytes32,bytes32,uint256,uint256,bytes32)",
                                "value": [
                                    {
                                        "name": "parentStateRootHash",
                                        "type": "bytes32",
                                        "value": "0x12775c28e094a430c57ed7de351d3abe4fb7cd7ccb8ca7cdca45db3cd65da8ad"
                                    },
                                    {
                                        "name": "dataParentHash",
                                        "type": "bytes32",
                                        "value": "0x015b26e289a1ebe44624be07f8d7f2e88e78bf35699e94b0b19a8fba75868da2"
                                    },
                                    {
                                        "name": "finalStateRootHash",
                                        "type": "bytes32",
                                        "value": "0x0f4d7508d6f401d9f66741cc39c37f6c7df884a5284260a09c2032e2415780bd"
                                    },
                                    {
                                        "name": "firstBlockInData",
                                        "type": "uint256",
                                        "value": "3,817,601"
                                    },
                                    {
                                        "name": "finalBlockInData",
                                        "type": "uint256",
                                        "value": "3,817,663"
                                    },
                                    {
                                        "name": "snarkHash",
                                        "type": "bytes32",
                                        "value": "0x06bd247574bd6c1fe49a9194f09b236a87822e69173808a3874aaeeb1192a4e1"
                                    }
                                ]
                            },
                            {
                                "name": "_dataEvaluationClaim",
                                "type": "uint256",
                                "value": "28,772,410,236,865,233,999,916,984,077,900,290,033,197,099,153,766,360,641,151,215,350,004,492,199,094"
                            },
                            {
                                "name": "_kzgCommitment",
                                "type": "bytes",
                                "value": "0xa12a074bc4994fc4e80a5e993ccc00b7681dfa3f9606a83c2732e2a215f3656b7efcc78274ecafd1650a30188302fc89"
                            },
                            {
                                "name": "_kzgProof",
                                "type": "bytes",
                                "value": "0xa37f32a644d9f8cc9bc92c6e1f374d4499ffe1d2988aa75c31bfb95404b14e1a03070379cb8030b855e1c8cfcb6caaf1"
                            }
                        ],
                        "constructorArguments": "",
                        "name": "submitBlobData",
                        "returnParams": [],
                        "signature": "submitBlobData((bytes32,bytes32,bytes32,uint256,uint256,bytes32),uint256,bytes,bytes)"
                    },
                    "errorInfo": "",
                    "fromAddress": "0xd19d4b5d358258f05d7b411e21a1460d11b0876f",
                    "gasUsed": 179720,
                    "id": 1,
                    "methodDecoded": true,
                    "operation": "DELEGATECALL",
                    "output": "",
                    "revert": false,
                    "revertMessage": "",
                    "selector": "0x2d3c12e5",
                    "status": true,
                    "value": "0"
                },
                "nodeType": 0
            },
            "2": {
                "invocation": {
                    "address": "0x000000000000000000000000000000000000000a",
                    "callData": "0x04ad91f53f1915d775c08ce78d974e028e02c8f371844d676226bb196d8bebf76614bcb7eda3fdf45e44f70ad15d6f3391e4dc831240a216aad8d3a73f9c9b6a34f25239631e2a1f6b32cc9541d94b2b0c59f113e0fa94312abee4b6a12a074bc4994fc4e80a5e993ccc00b7681dfa3f9606a83c2732e2a215f3656b7efcc78274ecafd1650a30188302fc89a37f32a644d9f8cc9bc92c6e1f374d4499ffe1d2988aa75c31bfb95404b14e1a03070379cb8030b855e1c8cfcb6caaf1",
                    "decodedMethod": null,
                    "errorInfo": "",
                    "fromAddress": "0xd19d4b5d358258f05d7b411e21a1460d11b0876f",
                    "gasUsed": 50000,
                    "id": 2,
                    "methodDecoded": false,
                    "operation": "STATICCALL",
                    "output": "0x000000000000000000000000000000000000000000000000000000000000100073eda753299d7d483339d80809a1d80553bda402fffe5bfeffffffff00000001",
                    "revert": false,
                    "revertMessage": "",
                    "selector": "0x01cf832d",
                    "status": true,
                    "value": "0"
                },
                "nodeType": 0
            },
            "3": {
                "event": {
                    "contract": "0xd19d4b5d358258f05d7b411e21a1460d11b0876f",
                    "decodedLog": {
                        "name": "DataSubmitted",
                        "params": [
                            {
                                "name": "dataHash",
                                "type": "bytes32",
                                "value": "0x01cf832d04ad91f53f1915d775c08ce78d974e028e02c8f371844d676226bb19"
                            },
                            {
                                "name": "startBlock",
                                "type": "uint256",
                                "value": "3,817,601"
                            },
                            {
                                "name": "endBlock",
                                "type": "uint256",
                                "value": "3,817,663"
                            }
                        ],
                        "signature": "DataSubmitted(bytes32,uint256,uint256)"
                    },
                    "id": 3,
                    "logData": "0x",
                    "logDecoded": true,
                    "operation": "EVENT",
                    "revert": false,
                    "status": true,
                    "topics": [
                        "0x174b4a2e83ebebaf6824e559d2bab7b7e229c80d211e98298a1224970b719a42",
                        "0x01cf832d04ad91f53f1915d775c08ce78d974e028e02c8f371844d676226bb19",
                        "0x00000000000000000000000000000000000000000000000000000000003a4081",
                        "0x00000000000000000000000000000000000000000000000000000000003a40bf"
                    ]
                },
                "nodeType": 1
            }
        },
        "gasFlame": [
            {
                "children": [
                    {
                        "children": [
                            {
                                "children": [],
                                "depth": 0,
                                "name": "Initial Gas",
                                "value": 26188
                            },
                            {
                                "children": [
                                    {
                                        "children": [
                                            {
                                                "children": [],
                                                "depth": 2,
                                                "name": "0x01cf832d",
                                                "value": 50000
                                            }
                                        ],
                                        "depth": 1,
                                        "name": "submitBlobData",
                                        "value": 179720
                                    }
                                ],
                                "depth": 0,
                                "name": "Executed Gas",
                                "value": 186958
                            }
                        ],
                        "depth": -1,
                        "name": "Actual Gas Used",
                        "value": 213146
                    },
                    {
                        "children": [],
                        "depth": -1,
                        "name": "Refunded Gas",
                        "value": 0
                    }
                ],
                "depth": -2,
                "name": "Total Gas",
                "value": 213146
            }
        ],
        "isConfirmed": true,
        "mainTrace": [
            {
                "children": [
                    {
                        "children": [
                            {
                                "children": [
                                    {
                                        "children": [],
                                        "depth": 2,
                                        "id": 2,
                                        "order": 2
                                    },
                                    {
                                        "children": [],
                                        "depth": 2,
                                        "id": 3,
                                        "order": 3
                                    }
                                ],
                                "depth": 1,
                                "id": 1,
                                "order": 1
                            }
                        ],
                        "depth": 0,
                        "id": 0,
                        "order": 0
                    }
                ],
                "depth": -1,
                "id": -1,
                "order": -1
            }
        ],
        "mainTraceNodeCount": 4,
        "parentIdMap": {
            "0": -1,
            "1": 0,
            "2": 1,
            "3": 1
        },
        "tidyTrace": [
            {
                "children": [
                    {
                        "children": [
                            {
                                "children": [
                                    {
                                        "children": [],
                                        "depth": 2,
                                        "id": 3,
                                        "order": 3
                                    }
                                ],
                                "depth": 1,
                                "id": 1,
                                "order": 1
                            }
                        ],
                        "depth": 0,
                        "id": 0,
                        "order": 0
                    }
                ],
                "depth": -1,
                "id": -1,
                "order": -1
            }
        ],
        "tidyTraceNodeCount": 3
    },
    "state_change": {
        "stateChanges": [
            {
                "address": "0xd19d4b5d358258f05d7b411e21a1460d11b0876f",
                "erc": "",
                "slots": [
                    {
                        "current": "0x0f4d7508d6f401d9f66741cc39c37f6c7df884a5284260a09c2032e2415780bd",
                        "key": "0x7ea6b0b778975cffa3332f882feae2881464d0cafbd11a485c325069833d9d8e",
                        "prev": "0x0000000000000000000000000000000000000000000000000000000000000000"
                    },
                    {
                        "current": "0x00000000000000000000000000000000000000000000000000000000003a4081",
                        "key": "0xaa1fca9867d8d33e72644de997f9eeaaf82ccb9e1f778e1e52b50b4df53c67e5",
                        "prev": "0x0000000000000000000000000000000000000000000000000000000000000000"
                    },
                    {
                        "current": "0x00000000000000000000000000000000000000000000000000000000003a40bf",
                        "key": "0x27bb045a798c6c4c0f25693caf8e319858efba294710ebd511fd17263aa31a33",
                        "prev": "0x0000000000000000000000000000000000000000000000000000000000000000"
                    },
                    {
                        "current": "0xec30ca4b5c08323199c358c3f72235eeebb81e16784b27d86ddb811adb668166",
                        "key": "0xbb1f50b56ea1f40c54ffd863085158378ea3070528c9d2da11f0de15d80d62dc",
                        "prev": "0x0000000000000000000000000000000000000000000000000000000000000000"
                    },
                    {
                        "current": "0x015b26e289a1ebe44624be07f8d7f2e88e78bf35699e94b0b19a8fba75868da2",
                        "key": "0x0b2585417e34419c0a5489ef7a3d8ceaa6bbaeb1fda1defaf8e050be4958121f",
                        "prev": "0x0000000000000000000000000000000000000000000000000000000000000000"
                    }
                ],
                "storageVariables": [
                    {
                        "name": "dataParents",
                        "type": "mapping(bytes32 => bytes32)",
                        "value": {
                            "pairs": [
                                {
                                    "key": "0x01cf832d04ad91f53f1915d775c08ce78d974e028e02c8f371844d676226bb19",
                                    "value": {
                                        "current": "0x015b26e289a1ebe44624be07f8d7f2e88e78bf35699e94b0b19a8fba75868da2",
                                        "prev": "0x0000000000000000000000000000000000000000000000000000000000000000",
                                        "typeTag": 1
                                    }
                                }
                            ],
                            "typeTag": 4
                        }
                    },
                    {
                        "name": "dataFinalStateRootHashes",
                        "type": "mapping(bytes32 => bytes32)",
                        "value": {
                            "pairs": [
                                {
                                    "key": "0x01cf832d04ad91f53f1915d775c08ce78d974e028e02c8f371844d676226bb19",
                                    "value": {
                                        "current": "0x0f4d7508d6f401d9f66741cc39c37f6c7df884a5284260a09c2032e2415780bd",
                                        "prev": "0x0000000000000000000000000000000000000000000000000000000000000000",
                                        "typeTag": 1
                                    }
                                }
                            ],
                            "typeTag": 4
                        }
                    },
                    {
                        "name": "dataStartingBlock",
                        "type": "mapping(bytes32 => uint256)",
                        "value": {
                            "pairs": [
                                {
                                    "key": "0x01cf832d04ad91f53f1915d775c08ce78d974e028e02c8f371844d676226bb19",
                                    "value": {
                                        "current": "3817601",
                                        "prev": "0",
                                        "typeTag": 1
                                    }
                                }
                            ],
                            "typeTag": 4
                        }
                    },
                    {
                        "name": "dataEndingBlock",
                        "type": "mapping(bytes32 => uint256)",
                        "value": {
                            "pairs": [
                                {
                                    "key": "0x01cf832d04ad91f53f1915d775c08ce78d974e028e02c8f371844d676226bb19",
                                    "value": {
                                        "current": "3817663",
                                        "prev": "0",
                                        "typeTag": 1
                                    }
                                }
                            ],
                            "typeTag": 4
                        }
                    },
                    {
                        "name": "dataShnarfHashes",
                        "type": "mapping(bytes32 => bytes32)",
                        "value": {
                            "pairs": [
                                {
                                    "key": "0x01cf832d04ad91f53f1915d775c08ce78d974e028e02c8f371844d676226bb19",
                                    "value": {
                                        "current": "0xec30ca4b5c08323199c358c3f72235eeebb81e16784b27d86ddb811adb668166",
                                        "prev": "0x0000000000000000000000000000000000000000000000000000000000000000",
                                        "typeTag": 1
                                    }
                                }
                            ],
                            "typeTag": 4
                        }
                    }
                ]
            }
        ]
    }
}