{
    "balance_change": {
        "balanceChanges": []
    },
    "profile": {
        "basic_info": {
            "baseFee": "",
            "blockNumber": 6501726,
            "callData": "0x3ed620a400000000000000000000000000000000000000000000000ab542a1a794e474080000000000000000000000000000000000000000000000000246f9d64e342d4e000000000000000000000000000000000000000000000000000000005bc0b142",
            "debugEnable": true,
            "errorInfo": "",
            "eventCount": 1,
            "feeRecipient": "0x09ab1303d3ccaf5f018cd511146b07a240c70294",
            "formatValue": "0",
            "gasLimit": 40643,
            "gasPrice": "20",
            "gasUsed": 40643,
            "intTxnCount": 0,
            "internalRevert": false,
            "internalRevertMessage": "",
            "isContractCreation": false,
            "isFlashloan": false,
            "maxFee": "",
            "nonce": 12403,
            "overwritedBlockNumber": -1,
            "priorityFee": "",
            "receiver": "0x5c545ca7f9d34857664fdce6adc22edcf1d5061f",
            "revertMessage": "",
            "sender": "0xac1ed4fabbd5204e02950d68b6fc8c446ac95362",
            "simulationEnable": true,
            "sourceTxnHash": "0x153c904818bd0e365de0fdee6372a6f1505e7c5ca74800b1d6ce3d96ad5f79d8",
            "status": true,
            "timestamp": "2018-10-12T14:35:51Z",
            "transactionFee": "0.00081286",
            "txnHash": "0x153c904818bd0e365de0fdee6372a6f1505e7c5ca74800b1d6ce3d96ad5f79d8",
            "txnIndex": 10,
            "type": 0,
            "value": "0"
        },
        "fund_flow": [],
        "token_infos": [
            {
                "address": "0xc02aaa39b223fe8d0a0e5c4f27ead9083c756cc2",
                "decimals": 18
            },
            {
                "address": "0xeeeeeeeeeeeeeeeeeeeeeeeeeeeeeeeeeeeeeeee",
                "decimals": 18
            }
        ]
    },
    "address_label": {
        "labels": [
            {
                "address": "0x0000000000000000000000000000000000000003",
                "label": "Precompiled"
            },
            {
                "address": "0x0000000000000000000000000000000000000004",
                "label": "Precompiled"
            },
            {
                "address": "0xeeeeeeeeeeeeeeeeeeeeeeeeeeeeeeeeeeeeeeee",
                "label": "Ether"
            },
            {
                "address": "0xac1ed4fabbd5204e02950d68b6fc8c446ac95362",
                "label": "Synthetix: Oracle"
            },
            {
                "address": "0x5c545ca7f9d34857664fdce6adc22edcf1d5061f",
                "label": "IssuanceController"
            },
            {
                "address": "0x0000000000000000000000000000000000000001",
                "label": "Precompiled"
            },
            {
                "address": "0x0000000000000000000000000000000000000002",
                "label": "Precompiled"
            }
        ]
    },
    "trace": {
        "accountLabels": null,
        "dataMap": {
            "-1": {
                "invocation": {
                    "address": "0xac1ed4fabbd5204e02950d68b6fc8c446ac95362",
                    "callData": "",
                    "decodedMethod": null,
                    "errorInfo": "",
                    "fromAddress": "",
                    "gasUsed": 0,
                    "id": -1,
                    "methodDecoded": false,
                    "operation": "",
                    "output": "",
                    "revert": false,
                    "revertMessage": "",
                    "selector": "",
                    "status": false,
                    "value": ""
                },
                "nodeType": 0
            },
            "0": {
                "invocation": {
                    "address": "0x5c545ca7f9d34857664fdce6adc22edcf1d5061f",
                    "callData": "0x00000000000000000000000000000000000000000000000ab542a1a794e474080000000000000000000000000000000000000000000000000246f9d64e342d4e000000000000000000000000000000000000000000000000000000005bc0b142",
                    "decodedMethod": {
                        "callParams": [
                            {
                                "name": "newEthPrice",
                                "type": "uint256",
                                "value": "197,528,620,347,552,986,120"
                            },
                            {
                                "name": "newHavvenPrice",
                                "type": "uint256",
                                "value": "164,093,135,275,961,678"
                            },
                            {
                                "name": "timeSent",
                                "type": "uint256",
                                "value": "1,539,354,946"
                            }
                        ],
                        "constructorArguments": "",
                        "name": "updatePrices",
                        "returnParams": [],
                        "signature": "updatePrices(uint256,uint256,uint256)"
                    },
                    "errorInfo": "",
                    "fromAddress": "0xac1ed4fabbd5204e02950d68b6fc8c446ac95362",
                    "gasUsed": 40643,
                    "id": 0,
                    "methodDecoded": true,
                    "operation": "CALL",
                    "output": "",
                    "revert": false,
                    "revertMessage": "",
                    "selector": "0x3ed620a4",
                    "status": true,
                    "value": "0"
                },
                "nodeType": 0
            },
            "1": {
                "event": {
                    "contract": "0x5c545ca7f9d34857664fdce6adc22edcf1d5061f",
                    "decodedLog": {
                        "name": "PricesUpdated",
                        "params": [
                            {
                                "name": "newEthPrice",
                                "type": "uint256",
                                "value": "197,528,620,347,552,986,120"
                            },
                            {
                                "name": "newHavvenPrice",
                                "type": "uint256",
                                "value": "164,093,135,275,961,678"
                            },
                            {
                                "name": "timeSent",
                                "type": "uint256",
                                "value": "1,539,354,946"
                            }
                        ],
                        "signature": "PricesUpdated(uint256,uint256,uint256)"
                    },
                    "id": 1,
                    "logData": "0x00000000000000000000000000000000000000000000000ab542a1a794e474080000000000000000000000000000000000000000000000000246f9d64e342d4e000000000000000000000000000000000000000000000000000000005bc0b142",
                    "logDecoded": true,
                    "operation": "EVENT",
                    "revert": false,
                    "status": true,
                    "topics": [
                        "0xa6b830b74e52d7d1140e76252f225dc7bed28782519845600bbd3182341dc115"
                    ]
                },
                "nodeType": 1
            }
        },
        "gasFlame": [
            {
                "children": [
                    {
                        "children": [
                            {
                                "children": [],
                                "depth": 0,
                                "name": "Initial Gas",
                                "value": 23000
                            },
                            {
                                "children": [],
                                "depth": 0,
                                "name": "Executed Gas",
                                "value": 17643
                            }
                        ],
                        "depth": -1,
                        "name": "Actual Gas Used",
                        "value": 40643
                    },
                    {
                        "children": [],
                        "depth": -1,
                        "name": "Refunded Gas",
                        "value": 0
                    }
                ],
                "depth": -2,
                "name": "Total Gas",
                "value": 40643
            }
        ],
        "isConfirmed": true,
        "mainTrace": [
            {
                "children": [
                    {
                        "children": [
                            {
                                "children": [],
                                "depth": 1,
                                "id": 1,
                                "order": 1
                            }
                        ],
                        "depth": 0,
                        "id": 0,
                        "order": 0
                    }
                ],
                "depth": -1,
                "id": -1,
                "order": -1
            }
        ],
        "mainTraceNodeCount": 2,
        "parentIdMap": {
            "0": -1,
            "1": 0
        },
        "tidyTrace": [
            {
                "children": [
                    {
                        "children": [
                            {
                                "children": [],
                                "depth": 1,
                                "id": 1,
                                "order": 1
                            }
                        ],
                        "depth": 0,
                        "id": 0,
                        "order": 0
                    }
                ],
                "depth": -1,
                "id": -1,
                "order": -1
            }
        ],
        "tidyTraceNodeCount": 2
    },
    "state_change": {
        "stateChanges": [
            {
                "address": "0x5c545ca7f9d34857664fdce6adc22edcf1d5061f",
                "erc": "",
                "slots": [
                    {
                        "current": "0x000000000000000000000000000000000000000000000000000000005bc0b142",
                        "key": "0x000000000000000000000000000000000000000000000000000000000000000a",
                        "prev": "0x000000000000000000000000000000000000000000000000000000005bc0a986"
                    },
                    {
                        "current": "0x00000000000000000000000000000000000000000000000ab542a1a794e47408",
                        "key": "0x000000000000000000000000000000000000000000000000000000000000000c",
                        "prev": "0x00000000000000000000000000000000000000000000000ab2402f4fb742f652"
                    },
                    {
                        "current": "0x0000000000000000000000000000000000000000000000000246f9d64e342d4e",
                        "key": "0x000000000000000000000000000000000000000000000000000000000000000b",
                        "prev": "0x000000000000000000000000000000000000000000000000024592efcac4bbad"
                    }
                ],
                "storageVariables": [
                    {
                        "name": "lastPriceUpdateTime",
                        "type": "uint256",
                        "value": {
                            "current": "1539354946",
                            "prev": "1539352966",
                            "typeTag": 1
                        }
                    },
                    {
                        "name": "usdToEthPrice",
                        "type": "uint256",
                        "value": {
                            "current": "197528620347552986120",
                            "prev": "197311758893779711570",
                            "typeTag": 1
                        }
                    },
                    {
                        "name": "usdToHavPrice",
                        "type": "uint256",
                        "value": {
                            "current": "164093135275961678",
                            "prev": "163698520065620909",
                            "typeTag": 1
                        }
                    }
                ]
            }
        ]
    }
}