{
    "balance_change": {
        "balanceChanges": [
            {
                "account": "0xebcddcdad67b64b7d858d51236e192ed9c7162b2",
                "assets": [
                    {
                        "address": "0x174bfa6600bf90c885c7c01c7031389ed1461ab9",
                        "amount": "0.8793319",
                        "iconUrl": "",
                        "isERC1155": false,
                        "isERC721": false,
                        "sign": false,
                        "value": ""
                    }
                ]
            },
            {
                "account": "0x177f9ff3f35881b1a4607043e3fd596f5a5d0bbd",
                "assets": [
                    {
                        "address": "0x174bfa6600bf90c885c7c01c7031389ed1461ab9",
                        "amount": "0.8793319",
                        "iconUrl": "",
                        "isERC1155": false,
                        "isERC721": false,
                        "sign": true,
                        "value": ""
                    }
                ]
            }
        ]
    },
    "profile": {
        "basic_info": {
            "baseFee": "",
            "blockNumber": 7853176,
            "callData": "0xa9059cbb000000000000000000000000177f9ff3f35881b1a4607043e3fd596f5a5d0bbd0000000000000000000000000000000000000000000000000c3403b4432b5800",
            "debugEnable": true,
            "errorInfo": "",
            "eventCount": 1,
            "feeRecipient": "0xea674fdde714fd979de3edf0f56aa9716b898ec8",
            "formatValue": "0",
            "gasLimit": 116280,
            "gasPrice": "20",
            "gasUsed": 38123,
            "intTxnCount": 0,
            "internalRevert": false,
            "internalRevertMessage": "",
            "isContractCreation": false,
            "isFlashloan": false,
            "maxFee": "",
            "nonce": 2413,
            "overwritedBlockNumber": -1,
            "priorityFee": "",
            "receiver": "0x174bfa6600bf90c885c7c01c7031389ed1461ab9",
            "revertMessage": "",
            "sender": "0xebcddcdad67b64b7d858d51236e192ed9c7162b2",
            "simulationEnable": true,
            "sourceTxnHash": "0x169c0d3c9ef212aa0a3332db37e9d86301c18a006e7af47008aaa5652bf83533",
            "status": true,
            "timestamp": "2019-05-29T07:33:25Z",
            "transactionFee": "0.00076246",
            "txnHash": "0x169c0d3c9ef212aa0a3332db37e9d86301c18a006e7af47008aaa5652bf83533",
            "txnIndex": 109,
            "type": 0,
            "value": "0"
        },
        "fund_flow": [
            {
                "amount": "0.8793319",
                "from": "0xebcddcdad67b64b7d858d51236e192ed9c7162b2",
                "id": 1,
                "isERC1155": false,
                "isERC721": false,
                "isReverted": false,
                "order": 1,
                "to": "0x177f9ff3f35881b1a4607043e3fd596f5a5d0bbd",
                "token": "0x174bfa6600bf90c885c7c01c7031389ed1461ab9"
            }
        ],
        "token_infos": [
            {
                "address": "0xc02aaa39b223fe8d0a0e5c4f27ead9083c756cc2",
                "decimals": 18
            },
            {
                "address": "0xeeeeeeeeeeeeeeeeeeeeeeeeeeeeeeeeeeeeeeee",
                "decimals": 18
            },
            {
                "address": "0x174bfa6600bf90c885c7c01c7031389ed1461ab9",
                "decimals": 18
            }
        ]
    },
    "address_label": {
        "labels": [
            {
                "address": "0xeeeeeeeeeeeeeeeeeeeeeeeeeeeeeeeeeeeeeeee",
                "label": "Ether"
            },
            {
                "address": "0x174bfa6600bf90c885c7c01c7031389ed1461ab9",
                "label": "More Gold: MGC Token"
            },
            {
                "address": "0x0000000000000000000000000000000000000001",
                "label": "Precompiled"
            },
            {
                "address": "0x0000000000000000000000000000000000000002",
                "label": "Precompiled"
            },
            {
                "address": "0x0000000000000000000000000000000000000003",
                "label": "Precompiled"
            },
            {
                "address": "0x0000000000000000000000000000000000000004",
                "label": "Precompiled"
            }
        ]
    },
    "trace": {
        "accountLabels": null,
        "dataMap": {
            "-1": {
                "invocation": {
                    "address": "0xebcddcdad67b64b7d858d51236e192ed9c7162b2",
                    "callData": "",
                    "decodedMethod": null,
                    "errorInfo": "",
                    "fromAddress": "",
                    "gasUsed": 0,
                    "id": -1,
                    "methodDecoded": false,
                    "operation": "",
                    "output": "",
                    "revert": false,
                    "revertMessage": "",
                    "selector": "",
                    "status": false,
                    "value": ""
                },
                "nodeType": 0
            },
            "0": {
                "invocation": {
                    "address": "0x174bfa6600bf90c885c7c01c7031389ed1461ab9",
                    "callData": "0x000000000000000000000000177f9ff3f35881b1a4607043e3fd596f5a5d0bbd0000000000000000000000000000000000000000000000000c3403b4432b5800",
                    "decodedMethod": {
                        "callParams": [
                            {
                                "name": "_to",
                                "type": "address",
                                "value": "0x177f9ff3f35881b1a4607043e3fd596f5a5d0bbd"
                            },
                            {
                                "decimalAvailable": true,
                                "name": "_value",
                                "type": "uint256",
                                "value": "879,331,900,000,000,000"
                            }
                        ],
                        "constructorArguments": "",
                        "name": "transfer",
                        "returnParams": [
                            {
                                "name": "success",
                                "type": "bool",
                                "value": true
                            }
                        ],
                        "signature": "transfer(address,uint256)"
                    },
                    "errorInfo": "",
                    "fromAddress": "0xebcddcdad67b64b7d858d51236e192ed9c7162b2",
                    "gasUsed": 38123,
                    "id": 0,
                    "methodDecoded": true,
                    "operation": "CALL",
                    "output": "0x0000000000000000000000000000000000000000000000000000000000000001",
                    "revert": false,
                    "revertMessage": "",
                    "selector": "0xa9059cbb",
                    "status": true,
                    "value": "0"
                },
                "nodeType": 0
            },
            "1": {
                "event": {
                    "contract": "0x174bfa6600bf90c885c7c01c7031389ed1461ab9",
                    "decodedLog": {
                        "name": "Transfer",
                        "params": [
                            {
                                "name": "from",
                                "type": "address",
                                "value": "0xebcddcdad67b64b7d858d51236e192ed9c7162b2"
                            },
                            {
                                "name": "to",
                                "type": "address",
                                "value": "0x177f9ff3f35881b1a4607043e3fd596f5a5d0bbd"
                            },
                            {
                                "decimalAvailable": true,
                                "name": "value",
                                "type": "uint256",
                                "value": "879,331,900,000,000,000"
                            }
                        ],
                        "signature": "Transfer(address,address,uint256)"
                    },
                    "id": 1,
                    "logData": "0x0000000000000000000000000000000000000000000000000c3403b4432b5800",
                    "logDecoded": true,
                    "operation": "EVENT",
                    "revert": false,
                    "status": true,
                    "topics": [
                        "0xddf252ad1be2c89b69c2b068fc378daa952ba7f163c4a11628f55a4df523b3ef",
                        "0x000000000000000000000000ebcddcdad67b64b7d858d51236e192ed9c7162b2",
                        "0x000000000000000000000000177f9ff3f35881b1a4607043e3fd596f5a5d0bbd"
                    ]
                },
                "nodeType": 1
            }
        },
        "gasFlame": [
            {
                "children": [
                    {
                        "children": [
                            {
                                "children": [],
                                "depth": 0,
                                "name": "Initial Gas",
                                "value": 23256
                            },
                            {
                                "children": [],
                                "depth": 0,
                                "name": "Executed Gas",
                                "value": 14867
                            }
                        ],
                        "depth": -1,
                        "name": "Actual Gas Used",
                        "value": 38123
                    },
                    {
                        "children": [],
                        "depth": -1,
                        "name": "Refunded Gas",
                        "value": 0
                    }
                ],
                "depth": -2,
                "name": "Total Gas",
                "value": 38123
            }
        ],
        "isConfirmed": true,
        "mainTrace": [
            {
                "children": [
                    {
                        "children": [
                            {
                                "children": [],
                                "depth": 1,
                                "id": 1,
                                "order": 1
                            }
                        ],
                        "depth": 0,
                        "id": 0,
                        "order": 0
                    }
                ],
                "depth": -1,
                "id": -1,
                "order": -1
            }
        ],
        "mainTraceNodeCount": 2,
        "parentIdMap": {
            "0": -1,
            "1": 0
        },
        "tidyTrace": [
            {
                "children": [
                    {
                        "children": [
                            {
                                "children": [],
                                "depth": 1,
                                "id": 1,
                                "order": 1
                            }
                        ],
                        "depth": 0,
                        "id": 0,
                        "order": 0
                    }
                ],
                "depth": -1,
                "id": -1,
                "order": -1
            }
        ],
        "tidyTraceNodeCount": 2
    },
    "state_change": {
        "stateChanges": [
            {
                "address": "0x174bfa6600bf90c885c7c01c7031389ed1461ab9",
                "erc": "ERC-20",
                "slots": [
                    {
                        "current": "0x00000000000000000000000000000000000000000000000066dae2c6bd5d9000",
                        "key": "0x3ee8f35fe18e1604587ecb8c3b93d2619eab09e281c53ca6425df7c98a786fed",
                        "prev": "0x0000000000000000000000000000000000000000000000005aa6df127a323800"
                    },
                    {
                        "current": "0x00000000000000000000000000000000000000000000015b84715ab5ecf10000",
                        "key": "0xd7c83d10790336684c285e86603fb9a71d4b8492af8fc848d15d94c8c2f1c80c",
                        "prev": "0x00000000000000000000000000000000000000000000015b90a55e6a301c5800"
                    }
                ],
                "storageVariables": [
                    {
                        "name": "balanceOf",
                        "type": "mapping(address => uint256)",
                        "value": {
                            "pairs": [
                                {
                                    "key": "0x177f9ff3f35881b1a4607043e3fd596f5a5d0bbd",
                                    "value": {
                                        "current": "7411485480000000000",
                                        "prev": "6532153580000000000",
                                        "typeTag": 1
                                    }
                                },
                                {
                                    "key": "0xebcddcdad67b64b7d858d51236e192ed9c7162b2",
                                    "value": {
                                        "current": "6410563702400000000000",
                                        "prev": "6411443034300000000000",
                                        "typeTag": 1
                                    }
                                }
                            ],
                            "typeTag": 4
                        }
                    }
                ]
            }
        ]
    }
}