{
    "balance_change": {
        "balanceChanges": [
            {
                "account": "0x1abfbd0dfc0ce8497caffbd6173285b493dc7f78",
                "assets": [
                    {
                        "address": "0xeeeeeeeeeeeeeeeeeeeeeeeeeeeeeeeeeeeeeeee",
                        "amount": "0.076",
                        "iconUrl": "https://assets.blocksec.com/image/1663669189317-3.png",
                        "isERC1155": false,
                        "isERC721": false,
                        "sign": false,
                        "value": "262.96633079999998336"
                    }
                ]
            },
            {
                "account": "0xef4fb24ad0916217251f553c0596f8edc630eb66",
                "assets": [
                    {
                        "address": "0xeeeeeeeeeeeeeeeeeeeeeeeeeeeeeeeeeeeeeeee",
                        "amount": "0.076",
                        "iconUrl": "https://assets.blocksec.com/image/1663669189317-3.png",
                        "isERC1155": false,
                        "isERC721": false,
                        "sign": true,
                        "value": "262.96633079999998336"
                    }
                ]
            }
        ]
    },
    "profile": {
        "basic_info": {
            "baseFee": "10.33865453",
            "blockNumber": 20333586,
            "callData": "0xb930370100000000000000000000000000000000000000000000000000000000000000c000000000000000000000000000000000000000000000000000000190c5f1b7f100000000000000000000000000000000000000000000000000000000000003400000000000000000000000000000000000000000000000000000000000006c83000000000000000000000000000000000000000000000000000000000000036000000000000000000000000000000000000000000000000000000000000003800000000000000000000000000000000000000000000000000000000000000000000000000000000000000000000000000000000000000000010a741a4627800000000000000000000000000000000000000000000000000000000000000001600000000000000000000000000000000000000000000000000105ad825f24034f000000000000000000000000000000000000000000000000000000000000210500000000000000000000000000000000000000000000000000000000000001a00000000000000000000000001abfbd0dfc0ce8497caffbd6173285b493dc7f7800000000000000000000000000000000000000000000000000000000000001e00000000000000000000000000000000000000000000000000000000000000220000000000000000000000000000000000000000000000000000000000000024000000000000000000000000000000000000000000000000000000000000002600000000000000000000000000000000000000000000000000000000000000014000000000000000000000000000000000000000000000000000000000000000000000000000000000000000000000000000000000000000000000000000000141abfbd0dfc0ce8497caffbd6173285b493dc7f7800000000000000000000000000000000000000000000000000000000000000000000000000000000000000141abfbd0dfc0ce8497caffbd6173285b493dc7f780000000000000000000000000000000000000000000000000000000000000000000000000000000000000000000000000000000000000000000000000000000000000000000000000000000000000000000000000000000000000000000000000000000000000000000000000000000000000000000000000000000000000000000000000000000000000000000000000000000000000000000000000000000000000000000000000000000000000000000000000000000000000000000000000000000000000000000000420101000000b13495db089004000000000000000000000000004f03245f82ad0501000000000000000000000000000000000000000000000000000000000000000000000000000000000000000000000000000000000000000000000000000000",
            "debugEnable": true,
            "errorInfo": "",
            "eventCount": 1,
            "feeRecipient": "0x95222290dd7278aa3ddd389cc1e1d165cc4bafe5",
            "formatValue": "0.076",
            "gasLimit": 202916,
            "gasPrice": "15.33865453",
            "gasUsed": 137576,
            "intTxnCount": 1,
            "internalRevert": false,
            "internalRevertMessage": "",
            "isContractCreation": false,
            "isFlashloan": false,
            "maxFee": "15.33865453",
            "nonce": 22,
            "overwritedBlockNumber": -1,
            "priorityFee": "5",
            "receiver": "0xef4fb24ad0916217251f553c0596f8edc630eb66",
            "revertMessage": "",
            "sender": "0x1abfbd0dfc0ce8497caffbd6173285b493dc7f78",
            "simulationEnable": true,
            "sourceTxnHash": "0x16b18e30ace2f691fb0cb46dc73e26348ab9a5fa0574f9f291cb1ef8dd734ba9",
            "status": true,
            "timestamp": "2024-07-18T13:04:35Z",
            "transactionFee": "0.00211023073561928",
            "txnHash": "0x16b18e30ace2f691fb0cb46dc73e26348ab9a5fa0574f9f291cb1ef8dd734ba9",
            "txnIndex": 14,
            "type": 2,
            "value": "76000000000000000"
        },
        "fund_flow": [
            {
                "amount": "0.076",
                "from": "0x1abfbd0dfc0ce8497caffbd6173285b493dc7f78",
                "id": 1,
                "isERC1155": false,
                "isERC721": false,
                "isReverted": false,
                "order": 1,
                "to": "0xef4fb24ad0916217251f553c0596f8edc630eb66",
                "token": "0xeeeeeeeeeeeeeeeeeeeeeeeeeeeeeeeeeeeeeeee"
            }
        ],
        "token_infos": [
            {
                "address": "0xc02aaa39b223fe8d0a0e5c4f27ead9083c756cc2",
                "decimals": 18
            },
            {
                "address": "0xeeeeeeeeeeeeeeeeeeeeeeeeeeeeeeeeeeeeeeee",
                "decimals": 18
            }
        ]
    },
    "address_label": {
        "labels": [
            {
                "address": "0x0000000000000000000000000000000000000002",
                "label": "Precompiled"
            },
            {
                "address": "0x0000000000000000000000000000000000000003",
                "label": "Precompiled"
            },
            {
                "address": "0x0000000000000000000000000000000000000004",
                "label": "Precompiled"
            },
            {
                "address": "0xeeeeeeeeeeeeeeeeeeeeeeeeeeeeeeeeeeeeeeee",
                "label": "Ether"
            },
            {
                "address": "0xef4fb24ad0916217251f553c0596f8edc630eb66",
                "label": "Dln: Source"
            },
            {
                "address": "0x0000000000000000000000000000000000000000",
                "label": "Null Address"
            },
            {
                "address": "0x7ec2e51a9c4f088354ad8ad8703c12d81bf21677",
                "label": "DlnSource"
            },
            {
                "address": "0x0000000000000000000000000000000000000001",
                "label": "Precompiled"
            }
        ]
    },
    "trace": {
        "accountLabels": null,
        "dataMap": {
            "-1": {
                "invocation": {
                    "address": "0x1abfbd0dfc0ce8497caffbd6173285b493dc7f78",
                    "callData": "",
                    "decodedMethod": null,
                    "errorInfo": "",
                    "fromAddress": "",
                    "gasUsed": 0,
                    "id": -1,
                    "methodDecoded": false,
                    "operation": "",
                    "output": "",
                    "revert": false,
                    "revertMessage": "",
                    "selector": "",
                    "status": false,
                    "value": ""
                },
                "nodeType": 0
            },
            "0": {
                "invocation": {
                    "address": "0xef4fb24ad0916217251f553c0596f8edc630eb66",
                    "callData": "0x00000000000000000000000000000000000000000000000000000000000000c000000000000000000000000000000000000000000000000000000190c5f1b7f100000000000000000000000000000000000000000000000000000000000003400000000000000000000000000000000000000000000000000000000000006c83000000000000000000000000000000000000000000000000000000000000036000000000000000000000000000000000000000000000000000000000000003800000000000000000000000000000000000000000000000000000000000000000000000000000000000000000000000000000000000000000010a741a4627800000000000000000000000000000000000000000000000000000000000000001600000000000000000000000000000000000000000000000000105ad825f24034f000000000000000000000000000000000000000000000000000000000000210500000000000000000000000000000000000000000000000000000000000001a00000000000000000000000001abfbd0dfc0ce8497caffbd6173285b493dc7f7800000000000000000000000000000000000000000000000000000000000001e00000000000000000000000000000000000000000000000000000000000000220000000000000000000000000000000000000000000000000000000000000024000000000000000000000000000000000000000000000000000000000000002600000000000000000000000000000000000000000000000000000000000000014000000000000000000000000000000000000000000000000000000000000000000000000000000000000000000000000000000000000000000000000000000141abfbd0dfc0ce8497caffbd6173285b493dc7f7800000000000000000000000000000000000000000000000000000000000000000000000000000000000000141abfbd0dfc0ce8497caffbd6173285b493dc7f780000000000000000000000000000000000000000000000000000000000000000000000000000000000000000000000000000000000000000000000000000000000000000000000000000000000000000000000000000000000000000000000000000000000000000000000000000000000000000000000000000000000000000000000000000000000000000000000000000000000000000000000000000000000000000000000000000000000000000000000000000000000000000000000000000000000000000000000420101000000b13495db089004000000000000000000000000004f03245f82ad0501000000000000000000000000000000000000000000000000000000000000000000000000000000000000000000000000000000000000000000000000000000",
                    "decodedMethod": {
                        "callParams": [
                            {
                                "name": "_orderCreation",
                                "type": "(address,uint256,bytes,uint256,uint256,bytes,address,bytes,bytes,bytes,bytes)",
                                "value": [
                                    {
                                        "name": "giveTokenAddress",
                                        "type": "address",
                                        "value": "0x0000000000000000000000000000000000000000"
                                    },
                                    {
                                        "name": "giveAmount",
                                        "type": "uint256",
                                        "value": "75,000,000,000,000,000"
                                    },
                                    {
                                        "name": "takeTokenAddress",
                                        "type": "bytes",
                                        "value": "0x0000000000000000000000000000000000000000"
                                    },
                                    {
                                        "name": "takeAmount",
                                        "type": "uint256",
                                        "value": "73,655,744,375,030,607"
                                    },
                                    {
                                        "name": "takeChainId",
                                        "type": "uint256",
                                        "value": "8,453"
                                    },
                                    {
                                        "name": "receiverDst",
                                        "type": "bytes",
                                        "value": "0x1abfbd0dfc0ce8497caffbd6173285b493dc7f78"
                                    },
                                    {
                                        "name": "givePatchAuthoritySrc",
                                        "type": "address",
                                        "value": "0x1abfbd0dfc0ce8497caffbd6173285b493dc7f78"
                                    },
                                    {
                                        "name": "orderAuthorityAddressDst",
                                        "type": "bytes",
                                        "value": "0x1abfbd0dfc0ce8497caffbd6173285b493dc7f78"
                                    },
                                    {
                                        "name": "allowedTakerDst",
                                        "type": "bytes",
                                        "value": "0x"
                                    },
                                    {
                                        "name": "externalCall",
                                        "type": "bytes",
                                        "value": "0x"
                                    },
                                    {
                                        "name": "allowedCancelBeneficiarySrc",
                                        "type": "bytes",
                                        "value": "0x"
                                    }
                                ]
                            },
                            {
                                "name": "_salt",
                                "type": "uint64",
                                "value": "1,721,307,871,217"
                            },
                            {
                                "name": "_affiliateFee",
                                "type": "bytes",
                                "value": "0x"
                            },
                            {
                                "name": "_referralCode",
                                "type": "uint32",
                                "value": "27,779"
                            },
                            {
                                "name": "_permitEnvelope",
                                "type": "bytes",
                                "value": "0x"
                            },
                            {
                                "name": "_metadata",
                                "type": "bytes",
                                "value": "0x0101000000b13495db089004000000000000000000000000004f03245f82ad0501000000000000000000000000000000000000000000000000000000000000000000"
                            }
                        ],
                        "constructorArguments": "",
                        "name": "createSaltedOrder",
                        "returnParams": [
                            {
                                "name": "",
                                "type": "bytes32",
                                "value": "0x382213f13532fa5a3116e94cff9c02ae0307d51fb8c3ade37e63d721d8b38ff8"
                            }
                        ],
                        "signature": "createSaltedOrder((address,uint256,bytes,uint256,uint256,bytes,address,bytes,bytes,bytes,bytes),uint64,bytes,uint32,bytes,bytes)"
                    },
                    "errorInfo": "",
                    "fromAddress": "0x1abfbd0dfc0ce8497caffbd6173285b493dc7f78",
                    "gasUsed": 137576,
                    "id": 0,
                    "methodDecoded": true,
                    "operation": "CALL",
                    "output": "0x382213f13532fa5a3116e94cff9c02ae0307d51fb8c3ade37e63d721d8b38ff8",
                    "revert": false,
                    "revertMessage": "",
                    "selector": "0xb9303701",
                    "status": true,
                    "value": "0.076"
                },
                "nodeType": 0
            },
            "1": {
                "invocation": {
                    "address": "0x7ec2e51a9c4f088354ad8ad8703c12d81bf21677",
                    "callData": "0x00000000000000000000000000000000000000000000000000000000000000c000000000000000000000000000000000000000000000000000000190c5f1b7f100000000000000000000000000000000000000000000000000000000000003400000000000000000000000000000000000000000000000000000000000006c83000000000000000000000000000000000000000000000000000000000000036000000000000000000000000000000000000000000000000000000000000003800000000000000000000000000000000000000000000000000000000000000000000000000000000000000000000000000000000000000000010a741a4627800000000000000000000000000000000000000000000000000000000000000001600000000000000000000000000000000000000000000000000105ad825f24034f000000000000000000000000000000000000000000000000000000000000210500000000000000000000000000000000000000000000000000000000000001a00000000000000000000000001abfbd0dfc0ce8497caffbd6173285b493dc7f7800000000000000000000000000000000000000000000000000000000000001e00000000000000000000000000000000000000000000000000000000000000220000000000000000000000000000000000000000000000000000000000000024000000000000000000000000000000000000000000000000000000000000002600000000000000000000000000000000000000000000000000000000000000014000000000000000000000000000000000000000000000000000000000000000000000000000000000000000000000000000000000000000000000000000000141abfbd0dfc0ce8497caffbd6173285b493dc7f7800000000000000000000000000000000000000000000000000000000000000000000000000000000000000141abfbd0dfc0ce8497caffbd6173285b493dc7f780000000000000000000000000000000000000000000000000000000000000000000000000000000000000000000000000000000000000000000000000000000000000000000000000000000000000000000000000000000000000000000000000000000000000000000000000000000000000000000000000000000000000000000000000000000000000000000000000000000000000000000000000000000000000000000000000000000000000000000000000000000000000000000000000000000000000000000000420101000000b13495db089004000000000000000000000000004f03245f82ad0501000000000000000000000000000000000000000000000000000000000000000000000000000000000000000000000000000000000000000000000000000000",
                    "decodedMethod": {
                        "callParams": [
                            {
                                "name": "_orderCreation",
                                "type": "(address,uint256,bytes,uint256,uint256,bytes,address,bytes,bytes,bytes,bytes)",
                                "value": [
                                    {
                                        "name": "giveTokenAddress",
                                        "type": "address",
                                        "value": "0x0000000000000000000000000000000000000000"
                                    },
                                    {
                                        "name": "giveAmount",
                                        "type": "uint256",
                                        "value": "75,000,000,000,000,000"
                                    },
                                    {
                                        "name": "takeTokenAddress",
                                        "type": "bytes",
                                        "value": "0x0000000000000000000000000000000000000000"
                                    },
                                    {
                                        "name": "takeAmount",
                                        "type": "uint256",
                                        "value": "73,655,744,375,030,607"
                                    },
                                    {
                                        "name": "takeChainId",
                                        "type": "uint256",
                                        "value": "8,453"
                                    },
                                    {
                                        "name": "receiverDst",
                                        "type": "bytes",
                                        "value": "0x1abfbd0dfc0ce8497caffbd6173285b493dc7f78"
                                    },
                                    {
                                        "name": "givePatchAuthoritySrc",
                                        "type": "address",
                                        "value": "0x1abfbd0dfc0ce8497caffbd6173285b493dc7f78"
                                    },
                                    {
                                        "name": "orderAuthorityAddressDst",
                                        "type": "bytes",
                                        "value": "0x1abfbd0dfc0ce8497caffbd6173285b493dc7f78"
                                    },
                                    {
                                        "name": "allowedTakerDst",
                                        "type": "bytes",
                                        "value": "0x"
                                    },
                                    {
                                        "name": "externalCall",
                                        "type": "bytes",
                                        "value": "0x"
                                    },
                                    {
                                        "name": "allowedCancelBeneficiarySrc",
                                        "type": "bytes",
                                        "value": "0x"
                                    }
                                ]
                            },
                            {
                                "name": "_salt",
                                "type": "uint64",
                                "value": "1,721,307,871,217"
                            },
                            {
                                "name": "_affiliateFee",
                                "type": "bytes",
                                "value": "0x"
                            },
                            {
                                "name": "_referralCode",
                                "type": "uint32",
                                "value": "27,779"
                            },
                            {
                                "name": "_permitEnvelope",
                                "type": "bytes",
                                "value": "0x"
                            },
                            {
                                "name": "_metadata",
                                "type": "bytes",
                                "value": "0x0101000000b13495db089004000000000000000000000000004f03245f82ad0501000000000000000000000000000000000000000000000000000000000000000000"
                            }
                        ],
                        "constructorArguments": "",
                        "name": "createSaltedOrder",
                        "returnParams": [
                            {
                                "name": "",
                                "type": "bytes32",
                                "value": "0x382213f13532fa5a3116e94cff9c02ae0307d51fb8c3ade37e63d721d8b38ff8"
                            }
                        ],
                        "signature": "createSaltedOrder((address,uint256,bytes,uint256,uint256,bytes,address,bytes,bytes,bytes,bytes),uint64,bytes,uint32,bytes,bytes)"
                    },
                    "errorInfo": "",
                    "fromAddress": "0xef4fb24ad0916217251f553c0596f8edc630eb66",
                    "gasUsed": 106212,
                    "id": 1,
                    "methodDecoded": true,
                    "operation": "DELEGATECALL",
                    "output": "0x382213f13532fa5a3116e94cff9c02ae0307d51fb8c3ade37e63d721d8b38ff8",
                    "revert": false,
                    "revertMessage": "",
                    "selector": "0xb9303701",
                    "status": true,
                    "value": "0.076"
                },
                "nodeType": 0
            },
            "2": {
                "event": {
                    "contract": "0xef4fb24ad0916217251f553c0596f8edc630eb66",
                    "decodedLog": {
                        "name": "CreatedOrder",
                        "params": [
                            {
                                "name": "order",
                                "type": "(uint64,bytes,uint256,bytes,uint256,uint256,bytes,uint256,bytes,bytes,bytes,bytes,bytes,bytes)",
                                "value": [
                                    {
                                        "name": "makerOrderNonce",
                                        "type": "uint64",
                                        "value": "1,721,307,871,217"
                                    },
                                    {
                                        "name": "makerSrc",
                                        "type": "bytes",
                                        "value": "0x1abfbd0dfc0ce8497caffbd6173285b493dc7f78"
                                    },
                                    {
                                        "name": "giveChainId",
                                        "type": "uint256",
                                        "value": "1"
                                    },
                                    {
                                        "name": "giveTokenAddress",
                                        "type": "bytes",
                                        "value": "0x0000000000000000000000000000000000000000"
                                    },
                                    {
                                        "name": "giveAmount",
                                        "type": "uint256",
                                        "value": "74,970,000,000,000,000"
                                    },
                                    {
                                        "name": "takeChainId",
                                        "type": "uint256",
                                        "value": "8,453"
                                    },
                                    {
                                        "name": "takeTokenAddress",
                                        "type": "bytes",
                                        "value": "0x0000000000000000000000000000000000000000"
                                    },
                                    {
                                        "name": "takeAmount",
                                        "type": "uint256",
                                        "value": "73,655,744,375,030,607"
                                    },
                                    {
                                        "name": "receiverDst",
                                        "type": "bytes",
                                        "value": "0x1abfbd0dfc0ce8497caffbd6173285b493dc7f78"
                                    },
                                    {
                                        "name": "givePatchAuthoritySrc",
                                        "type": "bytes",
                                        "value": "0x1abfbd0dfc0ce8497caffbd6173285b493dc7f78"
                                    },
                                    {
                                        "name": "orderAuthorityAddressDst",
                                        "type": "bytes",
                                        "value": "0x1abfbd0dfc0ce8497caffbd6173285b493dc7f78"
                                    },
                                    {
                                        "name": "allowedTakerDst",
                                        "type": "bytes",
                                        "value": "0x"
                                    },
                                    {
                                        "name": "allowedCancelBeneficiarySrc",
                                        "type": "bytes",
                                        "value": "0x"
                                    },
                                    {
                                        "name": "externalCall",
                                        "type": "bytes",
                                        "value": "0x"
                                    }
                                ]
                            },
                            {
                                "name": "orderId",
                                "type": "bytes32",
                                "value": "0x382213f13532fa5a3116e94cff9c02ae0307d51fb8c3ade37e63d721d8b38ff8"
                            },
                            {
                                "name": "affiliateFee",
                                "type": "bytes",
                                "value": "0x"
                            },
                            {
                                "name": "nativeFixFee",
                                "type": "uint256",
                                "value": "1,000,000,000,000,000"
                            },
                            {
                                "name": "percentFee",
                                "type": "uint256",
                                "value": "30,000,000,000,000"
                            },
                            {
                                "name": "referralCode",
                                "type": "uint32",
                                "value": "27,779"
                            },
                            {
                                "name": "metadata",
                                "type": "bytes",
                                "value": "0x0101000000b13495db089004000000000000000000000000004f03245f82ad0501000000000000000000000000000000000000000000000000000000000000000000"
                            }
                        ],
                        "signature": "CreatedOrder((uint64,bytes,uint256,bytes,uint256,uint256,bytes,uint256,bytes,bytes,bytes,bytes,bytes,bytes),bytes32,bytes,uint256,uint256,uint32,bytes)"
                    },
                    "id": 2,
                    "logData": "0x00000000000000000000000000000000000000000000000000000000000000e0382213f13532fa5a3116e94cff9c02ae0307d51fb8c3ade37e63d721d8b38ff8000000000000000000000000000000000000000000000000000000000000048000000000000000000000000000000000000000000000000000038d7ea4c6800000000000000000000000000000000000000000000000000000001b48eb57e0000000000000000000000000000000000000000000000000000000000000006c8300000000000000000000000000000000000000000000000000000000000004a000000000000000000000000000000000000000000000000000000190c5f1b7f100000000000000000000000000000000000000000000000000000000000001c000000000000000000000000000000000000000000000000000000000000000010000000000000000000000000000000000000000000000000000000000000200000000000000000000000000000000000000000000000000010a58d15acfa000000000000000000000000000000000000000000000000000000000000000210500000000000000000000000000000000000000000000000000000000000002400000000000000000000000000000000000000000000000000105ad825f24034f000000000000000000000000000000000000000000000000000000000000028000000000000000000000000000000000000000000000000000000000000002c0000000000000000000000000000000000000000000000000000000000000030000000000000000000000000000000000000000000000000000000000000003400000000000000000000000000000000000000000000000000000000000000360000000000000000000000000000000000000000000000000000000000000038000000000000000000000000000000000000000000000000000000000000000141abfbd0dfc0ce8497caffbd6173285b493dc7f78000000000000000000000000000000000000000000000000000000000000000000000000000000000000001400000000000000000000000000000000000000000000000000000000000000000000000000000000000000000000000000000000000000000000000000000014000000000000000000000000000000000000000000000000000000000000000000000000000000000000000000000000000000000000000000000000000000141abfbd0dfc0ce8497caffbd6173285b493dc7f7800000000000000000000000000000000000000000000000000000000000000000000000000000000000000141abfbd0dfc0ce8497caffbd6173285b493dc7f7800000000000000000000000000000000000000000000000000000000000000000000000000000000000000141abfbd0dfc0ce8497caffbd6173285b493dc7f78000000000000000000000000000000000000000000000000000000000000000000000000000000000000000000000000000000000000000000000000000000000000000000000000000000000000000000000000000000000000000000000000000000000000000000000000000000000000000000000000000000000000000000000000000000000000000000000000000000000000000000000000000000000000000000000000000000420101000000b13495db089004000000000000000000000000004f03245f82ad0501000000000000000000000000000000000000000000000000000000000000000000000000000000000000000000000000000000000000000000000000000000",
                    "logDecoded": true,
                    "operation": "EVENT",
                    "revert": false,
                    "status": true,
                    "topics": [
                        "0xfc8703fd57380f9dd234a89dce51333782d49c5902f307b02f03e014d18fe471"
                    ]
                },
                "nodeType": 1
            }
        },
        "gasFlame": [
            {
                "children": [
                    {
                        "children": [
                            {
                                "children": [],
                                "depth": 0,
                                "name": "Initial Gas",
                                "value": 26660
                            },
                            {
                                "children": [
                                    {
                                        "children": [],
                                        "depth": 1,
                                        "name": "createSaltedOrder",
                                        "value": 106212
                                    }
                                ],
                                "depth": 0,
                                "name": "Executed Gas",
                                "value": 113716
                            }
                        ],
                        "depth": -1,
                        "name": "Actual Gas Used",
                        "value": 137576
                    },
                    {
                        "children": [],
                        "depth": -1,
                        "name": "Refunded Gas",
                        "value": 2800
                    }
                ],
                "depth": -2,
                "name": "Total Gas",
                "value": 140376
            }
        ],
        "isConfirmed": true,
        "mainTrace": [
            {
                "children": [
                    {
                        "children": [
                            {
                                "children": [
                                    {
                                        "children": [],
                                        "depth": 2,
                                        "id": 2,
                                        "order": 2
                                    }
                                ],
                                "depth": 1,
                                "id": 1,
                                "order": 1
                            }
                        ],
                        "depth": 0,
                        "id": 0,
                        "order": 0
                    }
                ],
                "depth": -1,
                "id": -1,
                "order": -1
            }
        ],
        "mainTraceNodeCount": 3,
        "parentIdMap": {
            "0": -1,
            "1": 0,
            "2": 1
        },
        "tidyTrace": [
            {
                "children": [
                    {
                        "children": [
                            {
                                "children": [
                                    {
                                        "children": [],
                                        "depth": 2,
                                        "id": 2,
                                        "order": 2
                                    }
                                ],
                                "depth": 1,
                                "id": 1,
                                "order": 1
                            }
                        ],
                        "depth": 0,
                        "id": 0,
                        "order": 0
                    }
                ],
                "depth": -1,
                "id": -1,
                "order": -1
            }
        ],
        "tidyTraceNodeCount": 3
    },
    "state_change": {
        "stateChanges": [
            {
                "address": "0xef4fb24ad0916217251f553c0596f8edc630eb66",
                "erc": "",
                "slots": [
                    {
                        "current": "0x00000000000000000000000000000000000000001b48eb57e000000000002105",
                        "key": "0xe88ab3ee7d86c3ce538727061e8584a885a401358fffbb4390aceea2eca83168",
                        "prev": "0x0000000000000000000000000000000000000000000000000000000000000000"
                    },
                    {
                        "current": "0x000000000000000000000000000000000000000000000000010a58d15acfa000",
                        "key": "0xe88ab3ee7d86c3ce538727061e8584a885a401358fffbb4390aceea2eca83169",
                        "prev": "0x0000000000000000000000000000000000000000000000000000000000000000"
                    },
                    {
                        "current": "0x00000000038d7ea4c68000000000000000000000000000000000000000000001",
                        "key": "0xe88ab3ee7d86c3ce538727061e8584a885a401358fffbb4390aceea2eca83167",
                        "prev": "0x0000000000000000000000000000000000000000000000000000000000000000"
                    }
                ],
                "storageVariables": [
                    {
                        "name": "giveOrders",
                        "type": "mapping(bytes32 => struct DlnSource.GiveOrderState)",
                        "value": {
                            "pairs": [
                                {
                                    "key": "0x382213f13532fa5a3116e94cff9c02ae0307d51fb8c3ade37e63d721d8b38ff8",
                                    "value": {
                                        "fields": [
                                            {
                                                "name": "status",
                                                "type": "enum DlnSource.OrderGiveStatus",
                                                "value": {
                                                    "current": "1",
                                                    "prev": "0",
                                                    "typeTag": 1
                                                }
                                            },
                                            {
                                                "name": "giveTokenAddress",
                                                "type": "uint160",
                                                "value": {
                                                    "current": "0",
                                                    "prev": "0",
                                                    "typeTag": 1
                                                }
                                            },
                                            {
                                                "name": "nativeFixFee",
                                                "type": "uint88",
                                                "value": {
                                                    "current": "1000000000000000",
                                                    "prev": "0",
                                                    "typeTag": 1
                                                }
                                            },
                                            {
                                                "name": "takeChainId",
                                                "type": "uint48",
                                                "value": {
                                                    "current": "8453",
                                                    "prev": "0",
                                                    "typeTag": 1
                                                }
                                            },
                                            {
                                                "name": "percentFee",
                                                "type": "uint208",
                                                "value": {
                                                    "current": "30000000000000",
                                                    "prev": "0",
                                                    "typeTag": 1
                                                }
                                            },
                                            {
                                                "name": "giveAmount",
                                                "type": "uint256",
                                                "value": {
                                                    "current": "74970000000000000",
                                                    "prev": "0",
                                                    "typeTag": 1
                                                }
                                            }
                                        ],
                                        "typeTag": 3
                                    }
                                }
                            ],
                            "typeTag": 4
                        }
                    }
                ]
            }
        ]
    }
}