{
    "balance_change": {
        "balanceChanges": [
            {
                "account": "0x763d8097a8185779e6773d4e53a60caeeb2e61f1",
                "assets": [
                    {
                        "address": "0x7e7ed710d7d04db0d278a046683c71fe00fb96d6",
                        "amount": "5,000,000,000,000,000,000,000",
                        "iconUrl": "",
                        "isERC1155": false,
                        "isERC721": false,
                        "sign": false,
                        "value": ""
                    }
                ]
            },
            {
                "account": "0x4d09299655f0c6321d848d692a59f40a075d94c7",
                "assets": [
                    {
                        "address": "0x7e7ed710d7d04db0d278a046683c71fe00fb96d6",
                        "amount": "5,000,000,000,000,000,000,000",
                        "iconUrl": "",
                        "isERC1155": false,
                        "isERC721": false,
                        "sign": true,
                        "value": ""
                    }
                ]
            }
        ]
    },
    "profile": {
        "basic_info": {
            "baseFee": "",
            "blockNumber": 6694201,
            "callData": "0xa9059cbb0000000000000000000000004d09299655f0c6321d848d692a59f40a075d94c700000000000000000000000000000000000000000000010f0cf064dd59200000",
            "debugEnable": true,
            "errorInfo": "",
            "eventCount": 1,
            "feeRecipient": "0xea674fdde714fd979de3edf0f56aa9716b898ec8",
            "formatValue": "0",
            "gasLimit": 120000,
            "gasPrice": "15",
            "gasUsed": 22206,
            "intTxnCount": 0,
            "internalRevert": false,
            "internalRevertMessage": "",
            "isContractCreation": false,
            "isFlashloan": false,
            "maxFee": "",
            "nonce": 0,
            "overwritedBlockNumber": -1,
            "priorityFee": "",
            "receiver": "0x7e7ed710d7d04db0d278a046683c71fe00fb96d6",
            "revertMessage": "",
            "sender": "0x763d8097a8185779e6773d4e53a60caeeb2e61f1",
            "simulationEnable": true,
            "sourceTxnHash": "0x1683bce1256aab25bbd0ed0e5d3702557d27e78db60d5f236e673713723014dd",
            "status": true,
            "timestamp": "2018-11-13T02:03:06Z",
            "transactionFee": "0.00033309",
            "txnHash": "0x1683bce1256aab25bbd0ed0e5d3702557d27e78db60d5f236e673713723014dd",
            "txnIndex": 16,
            "type": 0,
            "value": "0"
        },
        "fund_flow": [
            {
                "amount": "5,000,000,000,000,000,000,000",
                "from": "0x763d8097a8185779e6773d4e53a60caeeb2e61f1",
                "id": 1,
                "isERC1155": false,
                "isERC721": false,
                "isReverted": false,
                "order": 1,
                "to": "0x4d09299655f0c6321d848d692a59f40a075d94c7",
                "token": "0x7e7ed710d7d04db0d278a046683c71fe00fb96d6"
            }
        ],
        "token_infos": [
            {
                "address": "0xeeeeeeeeeeeeeeeeeeeeeeeeeeeeeeeeeeeeeeee",
                "decimals": 18
            },
            {
                "address": "0xc02aaa39b223fe8d0a0e5c4f27ead9083c756cc2",
                "decimals": 18
            }
        ]
    },
    "address_label": {
        "labels": [
            {
                "address": "0x0000000000000000000000000000000000000004",
                "label": "Precompiled"
            },
            {
                "address": "0xeeeeeeeeeeeeeeeeeeeeeeeeeeeeeeeeeeeeeeee",
                "label": "Ether"
            },
            {
                "address": "0x7e7ed710d7d04db0d278a046683c71fe00fb96d6",
                "label": "LianPaiToken"
            },
            {
                "address": "0x0000000000000000000000000000000000000001",
                "label": "Precompiled"
            },
            {
                "address": "0x0000000000000000000000000000000000000002",
                "label": "Precompiled"
            },
            {
                "address": "0x0000000000000000000000000000000000000003",
                "label": "Precompiled"
            }
        ]
    },
    "trace": {
        "accountLabels": null,
        "dataMap": {
            "-1": {
                "invocation": {
                    "address": "0x763d8097a8185779e6773d4e53a60caeeb2e61f1",
                    "callData": "",
                    "decodedMethod": null,
                    "errorInfo": "",
                    "fromAddress": "",
                    "gasUsed": 0,
                    "id": -1,
                    "methodDecoded": false,
                    "operation": "",
                    "output": "",
                    "revert": false,
                    "revertMessage": "",
                    "selector": "",
                    "status": false,
                    "value": ""
                },
                "nodeType": 0
            },
            "0": {
                "invocation": {
                    "address": "0x7e7ed710d7d04db0d278a046683c71fe00fb96d6",
                    "callData": "0x0000000000000000000000004d09299655f0c6321d848d692a59f40a075d94c700000000000000000000000000000000000000000000010f0cf064dd59200000",
                    "decodedMethod": {
                        "callParams": [
                            {
                                "name": "_to",
                                "type": "address",
                                "value": "0x4d09299655f0c6321d848d692a59f40a075d94c7"
                            },
                            {
                                "decimalAvailable": true,
                                "name": "_value",
                                "type": "uint256",
                                "value": "5,000,000,000,000,000,000,000"
                            }
                        ],
                        "constructorArguments": "",
                        "name": "transfer",
                        "returnParams": [
                            {
                                "name": "",
                                "type": "bool",
                                "value": true
                            }
                        ],
                        "signature": "transfer(address,uint256)"
                    },
                    "errorInfo": "",
                    "fromAddress": "0x763d8097a8185779e6773d4e53a60caeeb2e61f1",
                    "gasUsed": 22206,
                    "id": 0,
                    "methodDecoded": true,
                    "operation": "CALL",
                    "output": "0x0000000000000000000000000000000000000000000000000000000000000001",
                    "revert": false,
                    "revertMessage": "",
                    "selector": "0xa9059cbb",
                    "status": true,
                    "value": "0"
                },
                "nodeType": 0
            },
            "1": {
                "event": {
                    "contract": "0x7e7ed710d7d04db0d278a046683c71fe00fb96d6",
                    "decodedLog": {
                        "name": "Transfer",
                        "params": [
                            {
                                "name": "_from",
                                "type": "address",
                                "value": "0x763d8097a8185779e6773d4e53a60caeeb2e61f1"
                            },
                            {
                                "name": "_to",
                                "type": "address",
                                "value": "0x4d09299655f0c6321d848d692a59f40a075d94c7"
                            },
                            {
                                "decimalAvailable": true,
                                "name": "_value",
                                "type": "uint256",
                                "value": "5,000,000,000,000,000,000,000"
                            }
                        ],
                        "signature": "Transfer(address,address,uint256)"
                    },
                    "id": 1,
                    "logData": "0x00000000000000000000000000000000000000000000010f0cf064dd59200000",
                    "logDecoded": true,
                    "operation": "EVENT",
                    "revert": false,
                    "status": true,
                    "topics": [
                        "0xddf252ad1be2c89b69c2b068fc378daa952ba7f163c4a11628f55a4df523b3ef",
                        "0x000000000000000000000000763d8097a8185779e6773d4e53a60caeeb2e61f1",
                        "0x0000000000000000000000004d09299655f0c6321d848d692a59f40a075d94c7"
                    ]
                },
                "nodeType": 1
            }
        },
        "gasFlame": [
            {
                "children": [
                    {
                        "children": [
                            {
                                "children": [],
                                "depth": 0,
                                "name": "Initial Gas",
                                "value": 23320
                            },
                            {
                                "children": [],
                                "depth": 0,
                                "name": "Executed Gas",
                                "value": 13886
                            }
                        ],
                        "depth": -1,
                        "name": "Actual Gas Used",
                        "value": 22206
                    },
                    {
                        "children": [],
                        "depth": -1,
                        "name": "Refunded Gas",
                        "value": 15000
                    }
                ],
                "depth": -2,
                "name": "Total Gas",
                "value": 37206
            }
        ],
        "isConfirmed": true,
        "mainTrace": [
            {
                "children": [
                    {
                        "children": [
                            {
                                "children": [],
                                "depth": 1,
                                "id": 1,
                                "order": 1
                            }
                        ],
                        "depth": 0,
                        "id": 0,
                        "order": 0
                    }
                ],
                "depth": -1,
                "id": -1,
                "order": -1
            }
        ],
        "mainTraceNodeCount": 2,
        "parentIdMap": {
            "0": -1,
            "1": 0
        },
        "tidyTrace": [
            {
                "children": [
                    {
                        "children": [
                            {
                                "children": [],
                                "depth": 1,
                                "id": 1,
                                "order": 1
                            }
                        ],
                        "depth": 0,
                        "id": 0,
                        "order": 0
                    }
                ],
                "depth": -1,
                "id": -1,
                "order": -1
            }
        ],
        "tidyTraceNodeCount": 2
    },
    "state_change": {
        "stateChanges": [
            {
                "address": "0x7e7ed710d7d04db0d278a046683c71fe00fb96d6",
                "erc": "ERC-20",
                "slots": [
                    {
                        "current": "0x0000000000000000000000000000000000000000000000000000000000000000",
                        "key": "0xa78d88018ea3d8a4d780d3197cfcde7fe1bea3f9368f8056adde67932473ebc2",
                        "prev": "0x00000000000000000000000000000000000000000000010f0cf064dd59200000"
                    },
                    {
                        "current": "0x000000000000000000000000000000000000000000108b1775d9c5b82cd0b400",
                        "key": "0x130cba19ac8c37d5234c55c56dad257b3e4353af87dd519b598f827856b23cf4",
                        "prev": "0x000000000000000000000000000000000000000000108a0868e960dad3b0b400"
                    }
                ],
                "storageVariables": [
                    {
                        "name": "balances",
                        "type": "mapping(address => uint256)",
                        "value": {
                            "pairs": [
                                {
                                    "key": "0x4d09299655f0c6321d848d692a59f40a075d94c7",
                                    "value": {
                                        "current": "19999654822102610000000000",
                                        "prev": "19994654822102610000000000",
                                        "typeTag": 1
                                    }
                                },
                                {
                                    "key": "0x763d8097a8185779e6773d4e53a60caeeb2e61f1",
                                    "value": {
                                        "current": "0",
                                        "prev": "5000000000000000000000",
                                        "typeTag": 1
                                    }
                                }
                            ],
                            "typeTag": 4
                        }
                    }
                ]
            }
        ]
    }
}