{
    "balance_change": {
        "balanceChanges": [
            {
                "account": "0xd191b9673d1b1831ee489409929363cdc7c8399b",
                "assets": [
                    {
                        "address": "0xeeeeeeeeeeeeeeeeeeeeeeeeeeeeeeeeeeeeeeee",
                        "amount": "0.1",
                        "iconUrl": "https://assets.blocksec.com/image/1663669189317-3.png",
                        "isERC1155": false,
                        "isERC721": false,
                        "sign": false,
                        "value": "305.5"
                    },
                    {
                        "address": "0xf951e335afb289353dc249e82926178eac7ded78",
                        "amount": "0.094596416964570233",
                        "iconUrl": "",
                        "isERC1155": false,
                        "isERC721": false,
                        "sign": true,
                        "value": "303.2372564"
                    }
                ]
            },
            {
                "account": "0x0000000000000000000000000000000000000000",
                "assets": [
                    {
                        "address": "0xf951e335afb289353dc249e82926178eac7ded78",
                        "amount": "0.094596416964570233",
                        "iconUrl": "",
                        "isERC1155": false,
                        "isERC721": false,
                        "sign": false,
                        "value": "303.2372564"
                    }
                ]
            },
            {
                "account": "0xb3d9cf8e163bbc840195a97e81f8a34e295b8f39",
                "assets": [
                    {
                        "address": "0xeeeeeeeeeeeeeeeeeeeeeeeeeeeeeeeeeeeeeeee",
                        "amount": "0.1",
                        "iconUrl": "https://assets.blocksec.com/image/1663669189317-3.png",
                        "isERC1155": false,
                        "isERC721": false,
                        "sign": true,
                        "value": "305.5"
                    }
                ]
            }
        ]
    },
    "profile": {
        "basic_info": {
            "baseFee": "6.255463024",
            "blockNumber": 19693512,
            "callData": "0xc18d7cb7000000000000000000000000494d6461a318da362f139f6e09818dc1384641a9",
            "debugEnable": true,
            "errorInfo": "",
            "eventCount": 3,
            "feeRecipient": "0x1f9090aae28b8a3dceadf281b0f12828e676c326",
            "formatValue": "0.1",
            "gasLimit": 143455,
            "gasPrice": "6.256463024",
            "gasUsed": 107761,
            "intTxnCount": 7,
            "internalRevert": false,
            "internalRevertMessage": "",
            "isContractCreation": false,
            "isFlashloan": false,
            "maxFee": "7.60829322",
            "nonce": 3,
            "overwritedBlockNumber": -1,
            "priorityFee": "0.001",
            "receiver": "0xf951e335afb289353dc249e82926178eac7ded78",
            "revertMessage": "",
            "sender": "0xd191b9673d1b1831ee489409929363cdc7c8399b",
            "simulationEnable": true,
            "sourceTxnHash": "0x1629c667c404b8c491c91739aff59c2fba71dc6bf81978b276ee38699d876e5d",
            "status": true,
            "timestamp": "2024-04-20T02:00:47Z",
            "transactionFee": "0.000674202711929264",
            "txnHash": "0x1629c667c404b8c491c91739aff59c2fba71dc6bf81978b276ee38699d876e5d",
            "txnIndex": 152,
            "type": 2,
            "value": "100000000000000000"
        },
        "fund_flow": [
            {
                "amount": "0.1",
                "from": "0xd191b9673d1b1831ee489409929363cdc7c8399b",
                "id": 1,
                "isERC1155": false,
                "isERC721": false,
                "isReverted": false,
                "order": 1,
                "to": "0xf951e335afb289353dc249e82926178eac7ded78",
                "token": "0xeeeeeeeeeeeeeeeeeeeeeeeeeeeeeeeeeeeeeeee"
            },
            {
                "amount": "0.094596416964570233",
                "from": "0x0000000000000000000000000000000000000000",
                "id": 2,
                "isERC1155": false,
                "isERC721": false,
                "isReverted": false,
                "order": 2,
                "to": "0xd191b9673d1b1831ee489409929363cdc7c8399b",
                "token": "0xf951e335afb289353dc249e82926178eac7ded78"
            },
            {
                "amount": "0.1",
                "from": "0xf951e335afb289353dc249e82926178eac7ded78",
                "id": 3,
                "isERC1155": false,
                "isERC721": false,
                "isReverted": false,
                "order": 3,
                "to": "0xb3d9cf8e163bbc840195a97e81f8a34e295b8f39",
                "token": "0xeeeeeeeeeeeeeeeeeeeeeeeeeeeeeeeeeeeeeeee"
            }
        ],
        "token_infos": [
            {
                "address": "0xc02aaa39b223fe8d0a0e5c4f27ead9083c756cc2",
                "decimals": 18
            },
            {
                "address": "0xf951e335afb289353dc249e82926178eac7ded78",
                "decimals": 18
            },
            {
                "address": "0xeeeeeeeeeeeeeeeeeeeeeeeeeeeeeeeeeeeeeeee",
                "decimals": 18
            }
        ]
    },
    "address_label": {
        "labels": [
            {
                "address": "0xeee6207d514c2845394b5f4b9f12b6d155f4524b",
                "label": "DepositManager"
            },
            {
                "address": "0x0000000000000000000000000000000000000003",
                "label": "Precompiled"
            },
            {
                "address": "0x0000000000000000000000000000000000000004",
                "label": "Precompiled"
            },
            {
                "address": "0xb3d9cf8e163bbc840195a97e81f8a34e295b8f39",
                "label": "TransparentUpgradeableProxy_b3d9_8f39"
            },
            {
                "address": "0xf951e335afb289353dc249e82926178eac7ded78",
                "label": "Swell Network: swETH Token"
            },
            {
                "address": "0xbb7b99c2be525c0a6b719344f89a4255ef593e64",
                "label": "AccessControlManager"
            },
            {
                "address": "0x0000000000000000000000000000000000000001",
                "label": "Precompiled"
            },
            {
                "address": "0x0000000000000000000000000000000000000002",
                "label": "Precompiled"
            },
            {
                "address": "0xeeeeeeeeeeeeeeeeeeeeeeeeeeeeeeeeeeeeeeee",
                "label": "Ether"
            },
            {
                "address": "0x625087d72c762254a72cb22cc2eca40da6b95eac",
                "label": "TransparentUpgradeableProxy_6250_5eac"
            },
            {
                "address": "0xce95ba824ae9a4df9b303c0bbf4d605ba2affbfc",
                "label": "swETH"
            }
        ]
    },
    "trace": {
        "accountLabels": null,
        "dataMap": {
            "-1": {
                "invocation": {
                    "address": "0xd191b9673d1b1831ee489409929363cdc7c8399b",
                    "callData": "",
                    "decodedMethod": null,
                    "errorInfo": "",
                    "fromAddress": "",
                    "gasUsed": 0,
                    "id": -1,
                    "methodDecoded": false,
                    "operation": "",
                    "output": "",
                    "revert": false,
                    "revertMessage": "",
                    "selector": "",
                    "status": false,
                    "value": ""
                },
                "nodeType": 0
            },
            "0": {
                "invocation": {
                    "address": "0xf951e335afb289353dc249e82926178eac7ded78",
                    "callData": "0x000000000000000000000000494d6461a318da362f139f6e09818dc1384641a9",
                    "decodedMethod": {
                        "callParams": [
                            {
                                "name": "referral",
                                "type": "address",
                                "value": "0x494d6461a318da362f139f6e09818dc1384641a9"
                            }
                        ],
                        "constructorArguments": "",
                        "name": "depositWithReferral",
                        "returnParams": [],
                        "signature": "depositWithReferral(address)"
                    },
                    "errorInfo": "",
                    "fromAddress": "0xd191b9673d1b1831ee489409929363cdc7c8399b",
                    "gasUsed": 107761,
                    "id": 0,
                    "methodDecoded": true,
                    "operation": "CALL",
                    "output": "",
                    "revert": false,
                    "revertMessage": "",
                    "selector": "0xc18d7cb7",
                    "status": true,
                    "value": "0.1"
                },
                "nodeType": 0
            },
            "1": {
                "invocation": {
                    "address": "0xce95ba824ae9a4df9b303c0bbf4d605ba2affbfc",
                    "callData": "0x000000000000000000000000494d6461a318da362f139f6e09818dc1384641a9",
                    "decodedMethod": {
                        "callParams": [
                            {
                                "name": "referral",
                                "type": "address",
                                "value": "0x494d6461a318da362f139f6e09818dc1384641a9"
                            }
                        ],
                        "constructorArguments": "",
                        "name": "depositWithReferral",
                        "returnParams": [],
                        "signature": "depositWithReferral(address)"
                    },
                    "errorInfo": "",
                    "fromAddress": "0xf951e335afb289353dc249e82926178eac7ded78",
                    "gasUsed": 79013,
                    "id": 1,
                    "methodDecoded": true,
                    "operation": "DELEGATECALL",
                    "output": "",
                    "revert": false,
                    "revertMessage": "",
                    "selector": "0xc18d7cb7",
                    "status": true,
                    "value": "0.1"
                },
                "nodeType": 0
            },
            "10": {
                "event": {
                    "contract": "0xf951e335afb289353dc249e82926178eac7ded78",
                    "decodedLog": {
                        "name": "ETHDepositReceived",
                        "params": [
                            {
                                "name": "from",
                                "type": "address",
                                "value": "0xd191b9673d1b1831ee489409929363cdc7c8399b"
                            },
                            {
                                "name": "referral",
                                "type": "address",
                                "value": "0x494d6461a318da362f139f6e09818dc1384641a9"
                            },
                            {
                                "name": "amount",
                                "type": "uint256",
                                "value": "100,000,000,000,000,000"
                            },
                            {
                                "name": "swETHMinted",
                                "type": "uint256",
                                "value": "94,596,416,964,570,233"
                            },
                            {
                                "name": "newTotalETHDeposited",
                                "type": "uint256",
                                "value": "257,197,680,999,496,964,078,020"
                            }
                        ],
                        "signature": "ETHDepositReceived(address,uint256,uint256,uint256,address)"
                    },
                    "id": 10,
                    "logData": "0x000000000000000000000000000000000000000000000000016345785d8a0000000000000000000000000000000000000000000000000000015012f0a632ac79000000000000000000000000000000000000000000003676b6d77153835779c4",
                    "logDecoded": true,
                    "operation": "EVENT",
                    "revert": false,
                    "status": true,
                    "topics": [
                        "0xe28a9e1df63912c0c77b586c53595df741cbbc554d6831e40f1b5453199a9630",
                        "0x000000000000000000000000d191b9673d1b1831ee489409929363cdc7c8399b",
                        "0x000000000000000000000000494d6461a318da362f139f6e09818dc1384641a9"
                    ]
                },
                "nodeType": 1
            },
            "2": {
                "invocation": {
                    "address": "0x625087d72c762254a72cb22cc2eca40da6b95eac",
                    "callData": "0x",
                    "decodedMethod": {
                        "callParams": [],
                        "constructorArguments": "",
                        "name": "coreMethodsPaused",
                        "returnParams": [
                            {
                                "name": "",
                                "type": "bool",
                                "value": false
                            }
                        ],
                        "signature": "coreMethodsPaused()"
                    },
                    "errorInfo": "",
                    "fromAddress": "0xf951e335afb289353dc249e82926178eac7ded78",
                    "gasUsed": 9677,
                    "id": 2,
                    "methodDecoded": true,
                    "operation": "STATICCALL",
                    "output": "0x0000000000000000000000000000000000000000000000000000000000000000",
                    "revert": false,
                    "revertMessage": "",
                    "selector": "0xa3e7dfd3",
                    "status": true,
                    "value": "0"
                },
                "nodeType": 0
            },
            "3": {
                "invocation": {
                    "address": "0xbb7b99c2be525c0a6b719344f89a4255ef593e64",
                    "callData": "0x",
                    "decodedMethod": {
                        "callParams": [],
                        "constructorArguments": "",
                        "name": "coreMethodsPaused",
                        "returnParams": [
                            {
                                "name": "",
                                "type": "bool",
                                "value": false
                            }
                        ],
                        "signature": "coreMethodsPaused()"
                    },
                    "errorInfo": "",
                    "fromAddress": "0x625087d72c762254a72cb22cc2eca40da6b95eac",
                    "gasUsed": 2361,
                    "id": 3,
                    "methodDecoded": true,
                    "operation": "DELEGATECALL",
                    "output": "0x0000000000000000000000000000000000000000000000000000000000000000",
                    "revert": false,
                    "revertMessage": "",
                    "selector": "0xa3e7dfd3",
                    "status": true,
                    "value": "0"
                },
                "nodeType": 0
            },
            "4": {
                "event": {
                    "contract": "0xf951e335afb289353dc249e82926178eac7ded78",
                    "decodedLog": {
                        "name": "Transfer",
                        "params": [
                            {
                                "name": "from",
                                "type": "address",
                                "value": "0x0000000000000000000000000000000000000000"
                            },
                            {
                                "name": "to",
                                "type": "address",
                                "value": "0xd191b9673d1b1831ee489409929363cdc7c8399b"
                            },
                            {
                                "decimalAvailable": true,
                                "name": "value",
                                "type": "uint256",
                                "value": "94,596,416,964,570,233"
                            }
                        ],
                        "signature": "Transfer(address,address,uint256)"
                    },
                    "id": 4,
                    "logData": "0x000000000000000000000000000000000000000000000000015012f0a632ac79",
                    "logDecoded": true,
                    "operation": "EVENT",
                    "revert": false,
                    "status": true,
                    "topics": [
                        "0xddf252ad1be2c89b69c2b068fc378daa952ba7f163c4a11628f55a4df523b3ef",
                        "0x0000000000000000000000000000000000000000000000000000000000000000",
                        "0x000000000000000000000000d191b9673d1b1831ee489409929363cdc7c8399b"
                    ]
                },
                "nodeType": 1
            },
            "5": {
                "invocation": {
                    "address": "0x625087d72c762254a72cb22cc2eca40da6b95eac",
                    "callData": "0x",
                    "decodedMethod": {
                        "callParams": [],
                        "constructorArguments": "",
                        "name": "DepositManager",
                        "returnParams": [
                            {
                                "name": "",
                                "type": "address",
                                "value": "0xb3d9cf8e163bbc840195a97e81f8a34e295b8f39"
                            }
                        ],
                        "signature": "DepositManager()"
                    },
                    "errorInfo": "",
                    "fromAddress": "0xf951e335afb289353dc249e82926178eac7ded78",
                    "gasUsed": 3285,
                    "id": 5,
                    "methodDecoded": true,
                    "operation": "STATICCALL",
                    "output": "0x000000000000000000000000b3d9cf8e163bbc840195a97e81f8a34e295b8f39",
                    "revert": false,
                    "revertMessage": "",
                    "selector": "0xf712312c",
                    "status": true,
                    "value": "0"
                },
                "nodeType": 0
            },
            "6": {
                "invocation": {
                    "address": "0xbb7b99c2be525c0a6b719344f89a4255ef593e64",
                    "callData": "0x",
                    "decodedMethod": {
                        "callParams": [],
                        "constructorArguments": "",
                        "name": "DepositManager",
                        "returnParams": [
                            {
                                "name": "",
                                "type": "address",
                                "value": "0xb3d9cf8e163bbc840195a97e81f8a34e295b8f39"
                            }
                        ],
                        "signature": "DepositManager()"
                    },
                    "errorInfo": "",
                    "fromAddress": "0x625087d72c762254a72cb22cc2eca40da6b95eac",
                    "gasUsed": 2469,
                    "id": 6,
                    "methodDecoded": true,
                    "operation": "DELEGATECALL",
                    "output": "0x000000000000000000000000b3d9cf8e163bbc840195a97e81f8a34e295b8f39",
                    "revert": false,
                    "revertMessage": "",
                    "selector": "0xf712312c",
                    "status": true,
                    "value": "0"
                },
                "nodeType": 0
            },
            "7": {
                "invocation": {
                    "address": "0xb3d9cf8e163bbc840195a97e81f8a34e295b8f39",
                    "callData": "0x",
                    "decodedMethod": null,
                    "errorInfo": "",
                    "fromAddress": "0xf951e335afb289353dc249e82926178eac7ded78",
                    "gasUsed": 8683,
                    "id": 7,
                    "methodDecoded": false,
                    "operation": "CALL",
                    "output": "",
                    "revert": false,
                    "revertMessage": "",
                    "selector": "fallback",
                    "status": true,
                    "value": "0.1"
                },
                "nodeType": 0
            },
            "8": {
                "invocation": {
                    "address": "0xeee6207d514c2845394b5f4b9f12b6d155f4524b",
                    "callData": "0x",
                    "decodedMethod": null,
                    "errorInfo": "",
                    "fromAddress": "0xb3d9cf8e163bbc840195a97e81f8a34e295b8f39",
                    "gasUsed": 1491,
                    "id": 8,
                    "methodDecoded": false,
                    "operation": "DELEGATECALL",
                    "output": "",
                    "revert": false,
                    "revertMessage": "",
                    "selector": "fallback",
                    "status": true,
                    "value": "0.1"
                },
                "nodeType": 0
            },
            "9": {
                "event": {
                    "contract": "0xb3d9cf8e163bbc840195a97e81f8a34e295b8f39",
                    "decodedLog": {
                        "name": "ETHReceived",
                        "params": [
                            {
                                "name": "sender",
                                "type": "address",
                                "value": "0xf951e335afb289353dc249e82926178eac7ded78"
                            },
                            {
                                "name": "amount",
                                "type": "uint256",
                                "value": "100,000,000,000,000,000"
                            }
                        ],
                        "signature": "ETHReceived(address,uint256)"
                    },
                    "id": 9,
                    "logData": "0x000000000000000000000000000000000000000000000000016345785d8a0000",
                    "logDecoded": true,
                    "operation": "EVENT",
                    "revert": false,
                    "status": true,
                    "topics": [
                        "0xbfe611b001dfcd411432f7bf0d79b82b4b2ee81511edac123a3403c357fb972a",
                        "0x000000000000000000000000f951e335afb289353dc249e82926178eac7ded78"
                    ]
                },
                "nodeType": 1
            }
        },
        "gasFlame": [
            {
                "children": [
                    {
                        "children": [
                            {
                                "children": [],
                                "depth": 0,
                                "name": "Initial Gas",
                                "value": 21432
                            },
                            {
                                "children": [
                                    {
                                        "children": [
                                            {
                                                "children": [
                                                    {
                                                        "children": [],
                                                        "depth": 3,
                                                        "name": "coreMethodsPaused",
                                                        "value": 2361
                                                    }
                                                ],
                                                "depth": 2,
                                                "name": "coreMethodsPaused",
                                                "value": 9677
                                            },
                                            {
                                                "children": [
                                                    {
                                                        "children": [],
                                                        "depth": 3,
                                                        "name": "DepositManager",
                                                        "value": 2469
                                                    }
                                                ],
                                                "depth": 2,
                                                "name": "DepositManager",
                                                "value": 3285
                                            },
                                            {
                                                "children": [
                                                    {
                                                        "children": [],
                                                        "depth": 3,
                                                        "name": "fallback",
                                                        "value": 1491
                                                    }
                                                ],
                                                "depth": 2,
                                                "name": "fallback",
                                                "value": 8683
                                            }
                                        ],
                                        "depth": 1,
                                        "name": "depositWithReferral",
                                        "value": 79013
                                    }
                                ],
                                "depth": 0,
                                "name": "Executed Gas",
                                "value": 86329
                            }
                        ],
                        "depth": -1,
                        "name": "Actual Gas Used",
                        "value": 107761
                    },
                    {
                        "children": [],
                        "depth": -1,
                        "name": "Refunded Gas",
                        "value": 0
                    }
                ],
                "depth": -2,
                "name": "Total Gas",
                "value": 107761
            }
        ],
        "isConfirmed": true,
        "mainTrace": [
            {
                "children": [
                    {
                        "children": [
                            {
                                "children": [
                                    {
                                        "children": [
                                            {
                                                "children": [],
                                                "depth": 3,
                                                "id": 3,
                                                "order": 3
                                            }
                                        ],
                                        "depth": 2,
                                        "id": 2,
                                        "order": 2
                                    },
                                    {
                                        "children": [],
                                        "depth": 2,
                                        "id": 4,
                                        "order": 4
                                    },
                                    {
                                        "children": [
                                            {
                                                "children": [],
                                                "depth": 3,
                                                "id": 6,
                                                "order": 6
                                            }
                                        ],
                                        "depth": 2,
                                        "id": 5,
                                        "order": 5
                                    },
                                    {
                                        "children": [
                                            {
                                                "children": [
                                                    {
                                                        "children": [],
                                                        "depth": 4,
                                                        "id": 9,
                                                        "order": 9
                                                    }
                                                ],
                                                "depth": 3,
                                                "id": 8,
                                                "order": 8
                                            }
                                        ],
                                        "depth": 2,
                                        "id": 7,
                                        "order": 7
                                    },
                                    {
                                        "children": [],
                                        "depth": 2,
                                        "id": 10,
                                        "order": 10
                                    }
                                ],
                                "depth": 1,
                                "id": 1,
                                "order": 1
                            }
                        ],
                        "depth": 0,
                        "id": 0,
                        "order": 0
                    }
                ],
                "depth": -1,
                "id": -1,
                "order": -1
            }
        ],
        "mainTraceNodeCount": 11,
        "parentIdMap": {
            "0": -1,
            "1": 0,
            "10": 1,
            "2": 1,
            "3": 2,
            "4": 1,
            "5": 1,
            "6": 5,
            "7": 1,
            "8": 7,
            "9": 8
        },
        "tidyTrace": [
            {
                "children": [
                    {
                        "children": [
                            {
                                "children": [
                                    {
                                        "children": [],
                                        "depth": 2,
                                        "id": 4,
                                        "order": 4
                                    },
                                    {
                                        "children": [
                                            {
                                                "children": [
                                                    {
                                                        "children": [],
                                                        "depth": 4,
                                                        "id": 9,
                                                        "order": 9
                                                    }
                                                ],
                                                "depth": 3,
                                                "id": 8,
                                                "order": 8
                                            }
                                        ],
                                        "depth": 2,
                                        "id": 7,
                                        "order": 7
                                    },
                                    {
                                        "children": [],
                                        "depth": 2,
                                        "id": 10,
                                        "order": 10
                                    }
                                ],
                                "depth": 1,
                                "id": 1,
                                "order": 1
                            }
                        ],
                        "depth": 0,
                        "id": 0,
                        "order": 0
                    }
                ],
                "depth": -1,
                "id": -1,
                "order": -1
            }
        ],
        "tidyTraceNodeCount": 7
    },
    "state_change": {
        "stateChanges": [
            {
                "address": "0xf951e335afb289353dc249e82926178eac7ded78",
                "erc": "ERC-20",
                "slots": [
                    {
                        "current": "0x000000000000000000000000000000000000000000002a6c58da3001955b0d8e",
                        "key": "0x0000000000000000000000000000000000000000000000000000000000000064",
                        "prev": "0x000000000000000000000000000000000000000000002a6c578a1d10ef286115"
                    },
                    {
                        "current": "0x000000000000000000000000000000000000000000000000015012f0a632ac79",
                        "key": "0xe2a8fdeafb3e7bec52d398b0a673139f49c183812daec78419a160b8ce5ec09d",
                        "prev": "0x0000000000000000000000000000000000000000000000000000000000000000"
                    },
                    {
                        "current": "0x000000000000000000000000000000000000000000003676b6d77153835779c4",
                        "key": "0x0000000000000000000000000000000000000000000000000000000000000099",
                        "prev": "0x000000000000000000000000000000000000000000003676b5742bdb25cd79c4"
                    }
                ],
                "storageVariables": [
                    {
                        "name": "_totalSupply",
                        "type": "uint256",
                        "value": {
                            "current": "200338043123089350004110",
                            "prev": "200337948526672385433877",
                            "typeTag": 1
                        }
                    },
                    {
                        "name": "_balances",
                        "type": "mapping(address => uint256)",
                        "value": {
                            "pairs": [
                                {
                                    "key": "0xd191b9673d1b1831ee489409929363cdc7c8399b",
                                    "value": {
                                        "current": "94596416964570233",
                                        "prev": "0",
                                        "typeTag": 1
                                    }
                                }
                            ],
                            "typeTag": 4
                        }
                    },
                    {
                        "name": "totalETHDeposited",
                        "type": "uint256",
                        "value": {
                            "current": "257197680999496964078020",
                            "prev": "257197580999496964078020",
                            "typeTag": 1
                        }
                    }
                ]
            }
        ]
    }
}