{
    "balance_change": {
        "balanceChanges": []
    },
    "profile": {
        "basic_info": {
            "baseFee": "301.950972178",
            "blockNumber": 14051061,
            "callData": "0xa8a41c700000000000000000000000007be8076f4ea4a4ad08075c2508e481d6c946d12b000000000000000000000000f46011c6f7dfbecfebf9646c15beaa9e1f19f527000000000000000000000000368113f706136384cdb4123b4406a4d9474f489a000000000000000000000000000000000000000000000000000000000000000000000000000000000000000060e4d786628fea6478f785a6d7e704777c86a7c6000000000000000000000000bff6ade67e3717101dd8d0a7f3de1bf6623a2ba8000000000000000000000000c02aaa39b223fe8d0a0e5c4f27ead9083c756cc2000000000000000000000000000000000000000000000000000000000000000000000000000000000000000000000000000000000000000000000000000001f4000000000000000000000000000000000000000000000000000000000000000000000000000000000000000000000000000000000000000000000000000000000000000000000000000000000000000000000000000000014d1120d7b160000000000000000000000000000000000000000000000000000000000000000000000000000000000000000000000000000000000000000000000000000061f450fe0000000000000000000000000000000000000000000000000000000061fd8b7e48b51515b34c04fffcf998f4b7f5c5f4759b3955acf93a80d680020cdd8a1e770000000000000000000000000000000000000000000000000000000000000001000000000000000000000000000000000000000000000000000000000000000100000000000000000000000000000000000000000000000000000000000000000000000000000000000000000000000000000000000000000000000000000000000000000000000000000000000000000000000000000000000000000000034000000000000000000000000000000000000000000000000000000000000003e00000000000000000000000000000000000000000000000000000000000000480000000000000000000000000000000000000000000000000000000000000001c217750c5edeb5325e110a1ee9cf144507d2b832fa3c2bfbd45c56082fe361b5f13ba7af89ca6aef45d32eee79932398cee9fd0acb96927b2a575beaf4438083e000000000000000000000000000000000000000000000000000000000000006423b872dd000000000000000000000000f46011c6f7dfbecfebf9646c15beaa9e1f19f52700000000000000000000000000000000000000000000000000000000000000000000000000000000000000000000000000000000000000000000000000002d6d000000000000000000000000000000000000000000000000000000000000000000000000000000000000000000000000000000000000000000000064000000000000000000000000000000000000000000000000000000000000000000000000ffffffffffffffffffffffffffffffffffffffffffffffffffffffffffffffff0000000000000000000000000000000000000000000000000000000000000000000000000000000000000000000000000000000000000000000000000000000000000000000000000000000000000000000000000000000000000004589ad31c00000000000000000000000000000000000000000000000000000000",
            "debugEnable": true,
            "errorInfo": "",
            "eventCount": 1,
            "feeRecipient": "0x3ecef08d0e2dad803847e052249bb4f8bff2d5bb",
            "formatValue": "0",
            "gasLimit": 75858,
            "gasPrice": "303.450972178",
            "gasUsed": 75858,
            "intTxnCount": 1,
            "internalRevert": false,
            "internalRevertMessage": "",
            "isContractCreation": false,
            "isFlashloan": false,
            "maxFee": "366.971027984",
            "nonce": 999,
            "overwritedBlockNumber": -1,
            "priorityFee": "1.5",
            "receiver": "0x7be8076f4ea4a4ad08075c2508e481d6c946d12b",
            "revertMessage": "",
            "sender": "0xf46011c6f7dfbecfebf9646c15beaa9e1f19f527",
            "simulationEnable": true,
            "sourceTxnHash": "0x16df89bed449bbe5dec8b6144b3ad4ef720d071e184e893d27f1d204272d0850",
            "status": true,
            "timestamp": "2022-01-21T20:28:03Z",
            "transactionFee": "0.023019183847478724",
            "txnHash": "0x16df89bed449bbe5dec8b6144b3ad4ef720d071e184e893d27f1d204272d0850",
            "txnIndex": 72,
            "type": 2,
            "value": "0"
        },
        "fund_flow": [],
        "token_infos": [
            {
                "address": "0xc02aaa39b223fe8d0a0e5c4f27ead9083c756cc2",
                "decimals": 18
            },
            {
                "address": "0xeeeeeeeeeeeeeeeeeeeeeeeeeeeeeeeeeeeeeeee",
                "decimals": 18
            }
        ]
    },
    "address_label": {
        "labels": [
            {
                "address": "0x0000000000000000000000000000000000000000",
                "label": "Null Address"
            },
            {
                "address": "0x0000000000000000000000000000000000000002",
                "label": "Precompiled"
            },
            {
                "address": "0x0000000000000000000000000000000000000003",
                "label": "Precompiled"
            },
            {
                "address": "0xeeeeeeeeeeeeeeeeeeeeeeeeeeeeeeeeeeeeeeee",
                "label": "Ether"
            },
            {
                "address": "0x7be8076f4ea4a4ad08075c2508e481d6c946d12b",
                "label": "OpenSea: Wyvern Exchange v1"
            },
            {
                "address": "0xc02aaa39b223fe8d0a0e5c4f27ead9083c756cc2",
                "label": "Wrapped Ether (WETH)"
            },
            {
                "address": "0x60e4d786628fea6478f785a6d7e704777c86a7c6",
                "label": "Mutant Ape Yacht Club: MAYC Token"
            },
            {
                "address": "0x0000000000000000000000000000000000000001",
                "label": "Precompiled"
            },
            {
                "address": "0x0000000000000000000000000000000000000004",
                "label": "Precompiled"
            }
        ]
    },
    "trace": {
        "accountLabels": null,
        "dataMap": {
            "-1": {
                "invocation": {
                    "address": "0xf46011c6f7dfbecfebf9646c15beaa9e1f19f527",
                    "callData": "",
                    "decodedMethod": null,
                    "errorInfo": "",
                    "fromAddress": "",
                    "gasUsed": 0,
                    "id": -1,
                    "methodDecoded": false,
                    "operation": "",
                    "output": "",
                    "revert": false,
                    "revertMessage": "",
                    "selector": "",
                    "status": false,
                    "value": ""
                },
                "nodeType": 0
            },
            "0": {
                "invocation": {
                    "address": "0x7be8076f4ea4a4ad08075c2508e481d6c946d12b",
                    "callData": "0x0000000000000000000000007be8076f4ea4a4ad08075c2508e481d6c946d12b000000000000000000000000f46011c6f7dfbecfebf9646c15beaa9e1f19f527000000000000000000000000368113f706136384cdb4123b4406a4d9474f489a000000000000000000000000000000000000000000000000000000000000000000000000000000000000000060e4d786628fea6478f785a6d7e704777c86a7c6000000000000000000000000bff6ade67e3717101dd8d0a7f3de1bf6623a2ba8000000000000000000000000c02aaa39b223fe8d0a0e5c4f27ead9083c756cc2000000000000000000000000000000000000000000000000000000000000000000000000000000000000000000000000000000000000000000000000000001f4000000000000000000000000000000000000000000000000000000000000000000000000000000000000000000000000000000000000000000000000000000000000000000000000000000000000000000000000000000014d1120d7b160000000000000000000000000000000000000000000000000000000000000000000000000000000000000000000000000000000000000000000000000000061f450fe0000000000000000000000000000000000000000000000000000000061fd8b7e48b51515b34c04fffcf998f4b7f5c5f4759b3955acf93a80d680020cdd8a1e770000000000000000000000000000000000000000000000000000000000000001000000000000000000000000000000000000000000000000000000000000000100000000000000000000000000000000000000000000000000000000000000000000000000000000000000000000000000000000000000000000000000000000000000000000000000000000000000000000000000000000000000000000034000000000000000000000000000000000000000000000000000000000000003e00000000000000000000000000000000000000000000000000000000000000480000000000000000000000000000000000000000000000000000000000000001c217750c5edeb5325e110a1ee9cf144507d2b832fa3c2bfbd45c56082fe361b5f13ba7af89ca6aef45d32eee79932398cee9fd0acb96927b2a575beaf4438083e000000000000000000000000000000000000000000000000000000000000006423b872dd000000000000000000000000f46011c6f7dfbecfebf9646c15beaa9e1f19f52700000000000000000000000000000000000000000000000000000000000000000000000000000000000000000000000000000000000000000000000000002d6d000000000000000000000000000000000000000000000000000000000000000000000000000000000000000000000000000000000000000000000064000000000000000000000000000000000000000000000000000000000000000000000000ffffffffffffffffffffffffffffffffffffffffffffffffffffffffffffffff0000000000000000000000000000000000000000000000000000000000000000000000000000000000000000000000000000000000000000000000000000000000000000000000000000000000000000000000000000000000000004589ad31c00000000000000000000000000000000000000000000000000000000",
                    "decodedMethod": {
                        "callParams": [
                            {
                                "name": "addrs",
                                "type": "address[7]",
                                "value": [
                                    "0x7be8076f4ea4a4ad08075c2508e481d6c946d12b",
                                    "0xf46011c6f7dfbecfebf9646c15beaa9e1f19f527",
                                    "0x368113f706136384cdb4123b4406a4d9474f489a",
                                    "0x0000000000000000000000000000000000000000",
                                    "0x60e4d786628fea6478f785a6d7e704777c86a7c6",
                                    "0xbff6ade67e3717101dd8d0a7f3de1bf6623a2ba8",
                                    "0xc02aaa39b223fe8d0a0e5c4f27ead9083c756cc2"
                                ]
                            },
                            {
                                "name": "uints",
                                "type": "uint256[9]",
                                "value": [
                                    "0",
                                    "500",
                                    "0",
                                    "0",
                                    "24,000,000,000,000,000,000",
                                    "0",
                                    "1,643,401,470",
                                    "1,644,006,270",
                                    "32,886,469,938,434,402,968,413,775,802,735,662,134,897,649,257,547,065,574,191,356,570,847,628,893,815"
                                ]
                            },
                            {
                                "name": "feeMethod",
                                "type": "uint8",
                                "value": "1"
                            },
                            {
                                "name": "side",
                                "type": "uint8",
                                "value": "1"
                            },
                            {
                                "name": "saleKind",
                                "type": "uint8",
                                "value": "0"
                            },
                            {
                                "name": "howToCall",
                                "type": "uint8",
                                "value": "0"
                            },
                            {
                                "name": "calldata",
                                "type": "bytes",
                                "value": "0x23b872dd000000000000000000000000f46011c6f7dfbecfebf9646c15beaa9e1f19f52700000000000000000000000000000000000000000000000000000000000000000000000000000000000000000000000000000000000000000000000000002d6d"
                            },
                            {
                                "name": "replacementPattern",
                                "type": "bytes",
                                "value": "0x000000000000000000000000000000000000000000000000000000000000000000000000ffffffffffffffffffffffffffffffffffffffffffffffffffffffffffffffff0000000000000000000000000000000000000000000000000000000000000000"
                            },
                            {
                                "name": "staticExtradata",
                                "type": "bytes",
                                "value": "0x589ad31c"
                            },
                            {
                                "name": "v",
                                "type": "uint8",
                                "value": "28"
                            },
                            {
                                "name": "r",
                                "type": "bytes32",
                                "value": "0x217750c5edeb5325e110a1ee9cf144507d2b832fa3c2bfbd45c56082fe361b5f"
                            },
                            {
                                "name": "s",
                                "type": "bytes32",
                                "value": "0x13ba7af89ca6aef45d32eee79932398cee9fd0acb96927b2a575beaf4438083e"
                            }
                        ],
                        "constructorArguments": "",
                        "name": "cancelOrder_",
                        "returnParams": [],
                        "signature": "cancelOrder_(address[7],uint256[9],uint8,uint8,uint8,uint8,bytes,bytes,bytes,uint8,bytes32,bytes32)"
                    },
                    "errorInfo": "",
                    "fromAddress": "0xf46011c6f7dfbecfebf9646c15beaa9e1f19f527",
                    "gasUsed": 75858,
                    "id": 0,
                    "methodDecoded": true,
                    "operation": "CALL",
                    "output": "",
                    "revert": false,
                    "revertMessage": "",
                    "selector": "0xa8a41c70",
                    "status": true,
                    "value": "0"
                },
                "nodeType": 0
            },
            "1": {
                "invocation": {
                    "address": "0x0000000000000000000000000000000000000001",
                    "callData": "0x569e299b75f0664760bd3c518aa0cd0dbd494ef0a77edc581a6effe1000000000000000000000000000000000000000000000000000000000000001c217750c5edeb5325e110a1ee9cf144507d2b832fa3c2bfbd45c56082fe361b5f13ba7af89ca6aef45d32eee79932398cee9fd0acb96927b2a575beaf4438083e",
                    "decodedMethod": {
                        "callParams": [
                            {
                                "name": "hash",
                                "type": "bytes32",
                                "value": "0xd25678ce569e299b75f0664760bd3c518aa0cd0dbd494ef0a77edc581a6effe1"
                            },
                            {
                                "name": "v",
                                "type": "uint256",
                                "value": "28"
                            },
                            {
                                "name": "r",
                                "type": "bytes32",
                                "value": "0x217750c5edeb5325e110a1ee9cf144507d2b832fa3c2bfbd45c56082fe361b5f"
                            },
                            {
                                "name": "s",
                                "type": "bytes32",
                                "value": "0x13ba7af89ca6aef45d32eee79932398cee9fd0acb96927b2a575beaf4438083e"
                            }
                        ],
                        "constructorArguments": "",
                        "name": "ecrecover",
                        "returnParams": [
                            {
                                "name": "",
                                "type": "address",
                                "value": "0xf46011c6f7dfbecfebf9646c15beaa9e1f19f527"
                            }
                        ],
                        "signature": "ecrecover(bytes32,uint256,bytes32,bytes32)"
                    },
                    "errorInfo": "",
                    "fromAddress": "0x7be8076f4ea4a4ad08075c2508e481d6c946d12b",
                    "gasUsed": 3000,
                    "id": 1,
                    "methodDecoded": true,
                    "operation": "CALL",
                    "output": "0x000000000000000000000000f46011c6f7dfbecfebf9646c15beaa9e1f19f527",
                    "revert": false,
                    "revertMessage": "",
                    "selector": "0xd25678ce",
                    "status": true,
                    "value": "0"
                },
                "nodeType": 0
            },
            "2": {
                "event": {
                    "contract": "0x7be8076f4ea4a4ad08075c2508e481d6c946d12b",
                    "decodedLog": {
                        "name": "OrderCancelled",
                        "params": [
                            {
                                "name": "hash",
                                "type": "bytes32",
                                "value": "0xd25678ce569e299b75f0664760bd3c518aa0cd0dbd494ef0a77edc581a6effe1"
                            }
                        ],
                        "signature": "OrderCancelled(bytes32)"
                    },
                    "id": 2,
                    "logData": "0x",
                    "logDecoded": true,
                    "operation": "EVENT",
                    "revert": false,
                    "status": true,
                    "topics": [
                        "0x5152abf959f6564662358c2e52b702259b78bac5ee7842a0f01937e670efcc7d",
                        "0xd25678ce569e299b75f0664760bd3c518aa0cd0dbd494ef0a77edc581a6effe1"
                    ]
                },
                "nodeType": 1
            }
        },
        "gasFlame": [
            {
                "children": [
                    {
                        "children": [
                            {
                                "children": [],
                                "depth": 0,
                                "name": "Initial Gas",
                                "value": 29612
                            },
                            {
                                "children": [
                                    {
                                        "children": [],
                                        "depth": 1,
                                        "name": "ecrecover",
                                        "value": 3000
                                    }
                                ],
                                "depth": 0,
                                "name": "Executed Gas",
                                "value": 46246
                            }
                        ],
                        "depth": -1,
                        "name": "Actual Gas Used",
                        "value": 75858
                    },
                    {
                        "children": [],
                        "depth": -1,
                        "name": "Refunded Gas",
                        "value": 0
                    }
                ],
                "depth": -2,
                "name": "Total Gas",
                "value": 75858
            }
        ],
        "isConfirmed": true,
        "mainTrace": [
            {
                "children": [
                    {
                        "children": [
                            {
                                "children": [],
                                "depth": 1,
                                "id": 1,
                                "order": 1
                            },
                            {
                                "children": [],
                                "depth": 1,
                                "id": 2,
                                "order": 2
                            }
                        ],
                        "depth": 0,
                        "id": 0,
                        "order": 0
                    }
                ],
                "depth": -1,
                "id": -1,
                "order": -1
            }
        ],
        "mainTraceNodeCount": 3,
        "parentIdMap": {
            "0": -1,
            "1": 0,
            "2": 0
        },
        "tidyTrace": [
            {
                "children": [
                    {
                        "children": [
                            {
                                "children": [],
                                "depth": 1,
                                "id": 1,
                                "order": 1
                            },
                            {
                                "children": [],
                                "depth": 1,
                                "id": 2,
                                "order": 2
                            }
                        ],
                        "depth": 0,
                        "id": 0,
                        "order": 0
                    }
                ],
                "depth": -1,
                "id": -1,
                "order": -1
            }
        ],
        "tidyTraceNodeCount": 3
    },
    "state_change": {
        "stateChanges": [
            {
                "address": "0x7be8076f4ea4a4ad08075c2508e481d6c946d12b",
                "erc": "",
                "slots": [
                    {
                        "current": "0x0000000000000000000000000000000000000000000000000000000000000001",
                        "key": "0x9036f59f9f2d3c498ca20566ac4e01022c221f0adb4b76a29ff2b8fab4707bd4",
                        "prev": "0x0000000000000000000000000000000000000000000000000000000000000000"
                    }
                ],
                "storageVariables": [
                    {
                        "name": "cancelledOrFinalized",
                        "type": "mapping(bytes32 => bool)",
                        "value": {
                            "pairs": [
                                {
                                    "key": "0xd25678ce569e299b75f0664760bd3c518aa0cd0dbd494ef0a77edc581a6effe1",
                                    "value": {
                                        "current": "true",
                                        "prev": "false",
                                        "typeTag": 1
                                    }
                                }
                            ],
                            "typeTag": 4
                        }
                    }
                ]
            }
        ]
    }
}