{
    "balance_change": {
        "balanceChanges": [
            {
                "account": "0x7c747f1317fc96d8d30aa05454d112001599eee7",
                "assets": [
                    {
                        "address": "0x70447f1579ec2d6007f99753427794a466c16f4d",
                        "amount": "392.15778",
                        "iconUrl": "",
                        "isERC1155": false,
                        "isERC721": false,
                        "sign": false,
                        "value": ""
                    }
                ]
            },
            {
                "account": "0x7ca39b8d07f6e56baf105b17c8f968dea70a038f",
                "assets": [
                    {
                        "address": "0x70447f1579ec2d6007f99753427794a466c16f4d",
                        "amount": "392.15778",
                        "iconUrl": "",
                        "isERC1155": false,
                        "isERC721": false,
                        "sign": true,
                        "value": ""
                    }
                ]
            }
        ]
    },
    "profile": {
        "basic_info": {
            "baseFee": "",
            "blockNumber": 9758512,
            "callData": "0xa9059cbb0000000000000000000000007ca39b8d07f6e56baf105b17c8f968dea70a038f00000000000000000000000000000000000000000000001542484f2b45c94000",
            "debugEnable": true,
            "errorInfo": "",
            "eventCount": 1,
            "feeRecipient": "0x5a0b54d5dc17e0aadc383d2db43b0a0d3e029c4c",
            "formatValue": "0",
            "gasLimit": 63000,
            "gasPrice": "36",
            "gasUsed": 21745,
            "intTxnCount": 0,
            "internalRevert": false,
            "internalRevertMessage": "",
            "isContractCreation": false,
            "isFlashloan": false,
            "maxFee": "",
            "nonce": 4,
            "overwritedBlockNumber": -1,
            "priorityFee": "",
            "receiver": "0x70447f1579ec2d6007f99753427794a466c16f4d",
            "revertMessage": "",
            "sender": "0x7c747f1317fc96d8d30aa05454d112001599eee7",
            "simulationEnable": true,
            "sourceTxnHash": "0x16f832a680a222c3dd58cd5a8e589e43b34afdfaa1fe73e6ff60f670f38aae65",
            "status": true,
            "timestamp": "2020-03-28T07:06:08Z",
            "transactionFee": "0.00078282",
            "txnHash": "0x16f832a680a222c3dd58cd5a8e589e43b34afdfaa1fe73e6ff60f670f38aae65",
            "txnIndex": 39,
            "type": 0,
            "value": "0"
        },
        "fund_flow": [
            {
                "amount": "392.15778",
                "from": "0x7c747f1317fc96d8d30aa05454d112001599eee7",
                "id": 1,
                "isERC1155": false,
                "isERC721": false,
                "isReverted": false,
                "order": 1,
                "to": "0x7ca39b8d07f6e56baf105b17c8f968dea70a038f",
                "token": "0x70447f1579ec2d6007f99753427794a466c16f4d"
            }
        ],
        "token_infos": [
            {
                "address": "0xc02aaa39b223fe8d0a0e5c4f27ead9083c756cc2",
                "decimals": 18
            },
            {
                "address": "0xeeeeeeeeeeeeeeeeeeeeeeeeeeeeeeeeeeeeeeee",
                "decimals": 18
            },
            {
                "address": "0x70447f1579ec2d6007f99753427794a466c16f4d",
                "decimals": 18
            }
        ]
    },
    "address_label": {
        "labels": [
            {
                "address": "0x0000000000000000000000000000000000000004",
                "label": "Precompiled"
            },
            {
                "address": "0xeeeeeeeeeeeeeeeeeeeeeeeeeeeeeeeeeeeeeeee",
                "label": "Ether"
            },
            {
                "address": "0x70447f1579ec2d6007f99753427794a466c16f4d",
                "label": "PCP (PCP)"
            },
            {
                "address": "0x0000000000000000000000000000000000000001",
                "label": "Precompiled"
            },
            {
                "address": "0x0000000000000000000000000000000000000002",
                "label": "Precompiled"
            },
            {
                "address": "0x0000000000000000000000000000000000000003",
                "label": "Precompiled"
            }
        ]
    },
    "trace": {
        "accountLabels": null,
        "dataMap": {
            "-1": {
                "invocation": {
                    "address": "0x7c747f1317fc96d8d30aa05454d112001599eee7",
                    "callData": "",
                    "decodedMethod": null,
                    "errorInfo": "",
                    "fromAddress": "",
                    "gasUsed": 0,
                    "id": -1,
                    "methodDecoded": false,
                    "operation": "",
                    "output": "",
                    "revert": false,
                    "revertMessage": "",
                    "selector": "",
                    "status": false,
                    "value": ""
                },
                "nodeType": 0
            },
            "0": {
                "invocation": {
                    "address": "0x70447f1579ec2d6007f99753427794a466c16f4d",
                    "callData": "0x0000000000000000000000007ca39b8d07f6e56baf105b17c8f968dea70a038f00000000000000000000000000000000000000000000001542484f2b45c94000",
                    "decodedMethod": {
                        "callParams": [
                            {
                                "name": "_to",
                                "type": "address",
                                "value": "0x7ca39b8d07f6e56baf105b17c8f968dea70a038f"
                            },
                            {
                                "decimalAvailable": true,
                                "name": "_value",
                                "type": "uint256",
                                "value": "392,157,780,000,000,000,000"
                            }
                        ],
                        "constructorArguments": "",
                        "name": "transfer",
                        "returnParams": [
                            {
                                "name": "success",
                                "type": "bool",
                                "value": true
                            }
                        ],
                        "signature": "transfer(address,uint256)"
                    },
                    "errorInfo": "",
                    "fromAddress": "0x7c747f1317fc96d8d30aa05454d112001599eee7",
                    "gasUsed": 21745,
                    "id": 0,
                    "methodDecoded": true,
                    "operation": "CALL",
                    "output": "0x0000000000000000000000000000000000000000000000000000000000000001",
                    "revert": false,
                    "revertMessage": "",
                    "selector": "0xa9059cbb",
                    "status": true,
                    "value": "0"
                },
                "nodeType": 0
            },
            "1": {
                "event": {
                    "contract": "0x70447f1579ec2d6007f99753427794a466c16f4d",
                    "decodedLog": {
                        "name": "Transfer",
                        "params": [
                            {
                                "name": "_from",
                                "type": "address",
                                "value": "0x7c747f1317fc96d8d30aa05454d112001599eee7"
                            },
                            {
                                "name": "_to",
                                "type": "address",
                                "value": "0x7ca39b8d07f6e56baf105b17c8f968dea70a038f"
                            },
                            {
                                "decimalAvailable": true,
                                "name": "_value",
                                "type": "uint256",
                                "value": "392,157,780,000,000,000,000"
                            }
                        ],
                        "signature": "Transfer(address,address,uint256)"
                    },
                    "id": 1,
                    "logData": "0x00000000000000000000000000000000000000000000001542484f2b45c94000",
                    "logDecoded": true,
                    "operation": "EVENT",
                    "revert": false,
                    "status": true,
                    "topics": [
                        "0xddf252ad1be2c89b69c2b068fc378daa952ba7f163c4a11628f55a4df523b3ef",
                        "0x0000000000000000000000007c747f1317fc96d8d30aa05454d112001599eee7",
                        "0x0000000000000000000000007ca39b8d07f6e56baf105b17c8f968dea70a038f"
                    ]
                },
                "nodeType": 1
            }
        },
        "gasFlame": [
            {
                "children": [
                    {
                        "children": [
                            {
                                "children": [],
                                "depth": 0,
                                "name": "Initial Gas",
                                "value": 21656
                            },
                            {
                                "children": [],
                                "depth": 0,
                                "name": "Executed Gas",
                                "value": 15089
                            }
                        ],
                        "depth": -1,
                        "name": "Actual Gas Used",
                        "value": 21745
                    },
                    {
                        "children": [],
                        "depth": -1,
                        "name": "Refunded Gas",
                        "value": 15000
                    }
                ],
                "depth": -2,
                "name": "Total Gas",
                "value": 36745
            }
        ],
        "isConfirmed": true,
        "mainTrace": [
            {
                "children": [
                    {
                        "children": [
                            {
                                "children": [],
                                "depth": 1,
                                "id": 1,
                                "order": 1
                            }
                        ],
                        "depth": 0,
                        "id": 0,
                        "order": 0
                    }
                ],
                "depth": -1,
                "id": -1,
                "order": -1
            }
        ],
        "mainTraceNodeCount": 2,
        "parentIdMap": {
            "0": -1,
            "1": 0
        },
        "tidyTrace": [
            {
                "children": [
                    {
                        "children": [
                            {
                                "children": [],
                                "depth": 1,
                                "id": 1,
                                "order": 1
                            }
                        ],
                        "depth": 0,
                        "id": 0,
                        "order": 0
                    }
                ],
                "depth": -1,
                "id": -1,
                "order": -1
            }
        ],
        "tidyTraceNodeCount": 2
    },
    "state_change": {
        "stateChanges": [
            {
                "address": "0x70447f1579ec2d6007f99753427794a466c16f4d",
                "erc": "ERC-20",
                "slots": [
                    {
                        "current": "0x0000000000000000000000000000000000000000000000000000000000000000",
                        "key": "0xa75b3c04d55f012f1de329c2b9ab1a412408b52aab43bd9b230e71a5ef058f90",
                        "prev": "0x00000000000000000000000000000000000000000000001542484f2b45c94000"
                    },
                    {
                        "current": "0x000000000000000000000000000000000000000000000059f1e20aa23fe0c000",
                        "key": "0x668e23c7b6b5670cef9b351ce9f5202868be08ace576de37e175ee782f847f99",
                        "prev": "0x000000000000000000000000000000000000000000000044af99bb76fa178000"
                    }
                ],
                "storageVariables": []
            }
        ]
    }
}