{
    "balance_change": {
        "balanceChanges": [
            {
                "account": "0x4e565f63257d90f988e5ec9d065bab00f94d2dfd",
                "assets": [
                    {
                        "address": "0x6b175474e89094c44da98b954eedeac495271d0f",
                        "amount": "824.65",
                        "iconUrl": "https://assets.blocksec.com/icon/39aead569b9c011cb6f69734d9abbc9ab6a80049fe93bbd12bb473a3e0e859a3.png",
                        "isERC1155": false,
                        "isERC721": false,
                        "sign": true,
                        "value": "824.23767500000004543"
                    }
                ]
            },
            {
                "account": "0x8e044047eca453b63276f8a584924c06be649bac",
                "assets": [
                    {
                        "address": "0x6b175474e89094c44da98b954eedeac495271d0f",
                        "amount": "824.65",
                        "iconUrl": "https://assets.blocksec.com/icon/39aead569b9c011cb6f69734d9abbc9ab6a80049fe93bbd12bb473a3e0e859a3.png",
                        "isERC1155": false,
                        "isERC721": false,
                        "sign": false,
                        "value": "824.23767500000004543"
                    }
                ]
            }
        ]
    },
    "profile": {
        "basic_info": {
            "baseFee": "1.355793081",
            "blockNumber": 20554747,
            "callData": "0xf3fef3a30000000000000000000000006b175474e89094c44da98b954eedeac495271d0f000000000000000000000000000000000000000000000000000000000009ee9d",
            "debugEnable": true,
            "errorInfo": "",
            "eventCount": 2,
            "feeRecipient": "0x4838b106fce9647bdf1e7877bf73ce8b0bad5f97",
            "formatValue": "0",
            "gasLimit": 150000,
            "gasPrice": "2.955793081",
            "gasUsed": 88602,
            "intTxnCount": 6,
            "internalRevert": false,
            "internalRevertMessage": "",
            "isContractCreation": false,
            "isFlashloan": false,
            "maxFee": "3.824074821",
            "nonce": 32622,
            "overwritedBlockNumber": -1,
            "priorityFee": "1.6",
            "receiver": "0x9fa5c5733b53814692de4fb31fd592070de5f5f0",
            "revertMessage": "",
            "sender": "0x4e565f63257d90f988e5ec9d065bab00f94d2dfd",
            "simulationEnable": true,
            "sourceTxnHash": "0x1672df3faaeb7a4d770f3be1ae020f1c56141ca6565c8391e93adda33fc898d9",
            "status": true,
            "timestamp": "2024-08-18T09:54:35Z",
            "transactionFee": "0.000261889178562762",
            "txnHash": "0x1672df3faaeb7a4d770f3be1ae020f1c56141ca6565c8391e93adda33fc898d9",
            "txnIndex": 43,
            "type": 2,
            "value": "0"
        },
        "fund_flow": [
            {
                "amount": "824.65",
                "from": "0x8e044047eca453b63276f8a584924c06be649bac",
                "id": 1,
                "isERC1155": false,
                "isERC721": false,
                "isReverted": false,
                "order": 1,
                "to": "0x4e565f63257d90f988e5ec9d065bab00f94d2dfd",
                "token": "0x6b175474e89094c44da98b954eedeac495271d0f"
            }
        ],
        "token_infos": [
            {
                "address": "0x6b175474e89094c44da98b954eedeac495271d0f",
                "decimals": 18
            },
            {
                "address": "0xc02aaa39b223fe8d0a0e5c4f27ead9083c756cc2",
                "decimals": 18
            },
            {
                "address": "0xeeeeeeeeeeeeeeeeeeeeeeeeeeeeeeeeeeeeeeee",
                "decimals": 18
            }
        ]
    },
    "address_label": {
        "labels": [
            {
                "address": "0x0000000000000000000000000000000000000004",
                "label": "Precompiled"
            },
            {
                "address": "0xeeeeeeeeeeeeeeeeeeeeeeeeeeeeeeeeeeeeeeee",
                "label": "Ether"
            },
            {
                "address": "0x6b175474e89094c44da98b954eedeac495271d0f",
                "label": "Sky: Dai Stablecoin"
            },
            {
                "address": "0x0000000000000000000000000000000000000001",
                "label": "Precompiled"
            },
            {
                "address": "0x0000000000000000000000000000000000000002",
                "label": "Precompiled"
            },
            {
                "address": "0x0000000000000000000000000000000000000003",
                "label": "Precompiled"
            }
        ]
    },
    "trace": {
        "accountLabels": null,
        "dataMap": {
            "-1": {
                "invocation": {
                    "address": "0x4e565f63257d90f988e5ec9d065bab00f94d2dfd",
                    "callData": "",
                    "decodedMethod": null,
                    "errorInfo": "",
                    "fromAddress": "",
                    "gasUsed": 0,
                    "id": -1,
                    "methodDecoded": false,
                    "operation": "",
                    "output": "",
                    "revert": false,
                    "revertMessage": "",
                    "selector": "",
                    "status": false,
                    "value": ""
                },
                "nodeType": 0
            },
            "0": {
                "invocation": {
                    "address": "0x9fa5c5733b53814692de4fb31fd592070de5f5f0",
                    "callData": "0x0000000000000000000000006b175474e89094c44da98b954eedeac495271d0f000000000000000000000000000000000000000000000000000000000009ee9d",
                    "decodedMethod": {
                        "callParams": [
                            {
                                "name": "_token",
                                "type": "address",
                                "value": "0x6b175474e89094c44da98b954eedeac495271d0f"
                            },
                            {
                                "name": "_amount",
                                "type": "uint256",
                                "value": "650,909"
                            }
                        ],
                        "constructorArguments": "",
                        "name": "withdraw",
                        "returnParams": [],
                        "signature": "withdraw(address,uint256)"
                    },
                    "errorInfo": "",
                    "fromAddress": "0x4e565f63257d90f988e5ec9d065bab00f94d2dfd",
                    "gasUsed": 88602,
                    "id": 0,
                    "methodDecoded": true,
                    "operation": "CALL",
                    "output": "",
                    "revert": false,
                    "revertMessage": "",
                    "selector": "0xf3fef3a3",
                    "status": true,
                    "value": "0"
                },
                "nodeType": 0
            },
            "1": {
                "invocation": {
                    "address": "0x8e044047eca453b63276f8a584924c06be649bac",
                    "callData": "0x608060408190526319b400eb60e21b8152339060009082906366d003ac9060849060209060048186803b15801561003557600080fd5b505afa158015610049573d6000803e3d6000fd5b505050506040513d601f19601f8201168201806040525081019061006d9190610271565b90506000826001600160a01b031663fc0c546a6040518163ffffffff1660e01b815260040160206040518083038186803b1580156100aa57600080fd5b505afa1580156100be573d6000803e3d6000fd5b505050506040513d601f19601f820116820180604052508101906100e29190610271565b90506001600160a01b0381161561018d576040516370a0823160e01b815230600482015261018d9083906001600160a01b038416906370a082319060240160206040518083038186803b15801561013857600080fd5b505afa15801561014c573d6000803e3d6000fd5b505050506040513d601f19601f8201168201806040525081019061017091906102bf565b836001600160a01b031661019960201b610009179092919060201c565b816001600160a01b0316ff5b604080516001600160a01b038481166024830152604480830185905283518084039091018152606490920183526020820180516001600160e01b031663a9059cbb60e01b17905291516000928392908716916101f591906102d7565b6000604051808303816000865af19150503d8060008114610232576040519150601f19603f3d011682016040523d82523d6000602084013e610237565b606091505b5091509150818015610261575080511580610261575080806020019051810190610261919061029f565b61026a57600080fd5b5050505050565b600060208284031215610282578081fd5b81516001600160a01b0381168114610298578182fd5b9392505050565b6000602082840312156102b0578081fd5b81518015158114610298578182fd5b6000602082840312156102d0578081fd5b5051919050565b60008251815b818110156102f757602081860181015185830152016102dd565b818111156103055782828501525b50919091019291505056fe",
                    "decodedMethod": null,
                    "errorInfo": "",
                    "fromAddress": "0x9fa5c5733b53814692de4fb31fd592070de5f5f0",
                    "gasUsed": 26717,
                    "id": 1,
                    "methodDecoded": false,
                    "operation": "CREATE2",
                    "output": "",
                    "revert": false,
                    "revertMessage": "",
                    "selector": "",
                    "status": true,
                    "value": "0"
                },
                "nodeType": 0
            },
            "2": {
                "invocation": {
                    "address": "0x9fa5c5733b53814692de4fb31fd592070de5f5f0",
                    "callData": "0x",
                    "decodedMethod": {
                        "callParams": [],
                        "constructorArguments": "",
                        "name": "recipient",
                        "returnParams": [
                            {
                                "name": "",
                                "type": "address",
                                "value": "0x4e565f63257d90f988e5ec9d065bab00f94d2dfd"
                            }
                        ],
                        "signature": "recipient()"
                    },
                    "errorInfo": "",
                    "fromAddress": "0x8e044047eca453b63276f8a584924c06be649bac",
                    "gasUsed": 2387,
                    "id": 2,
                    "methodDecoded": true,
                    "operation": "STATICCALL",
                    "output": "0x0000000000000000000000004e565f63257d90f988e5ec9d065bab00f94d2dfd",
                    "revert": false,
                    "revertMessage": "",
                    "selector": "0x66d003ac",
                    "status": true,
                    "value": "0"
                },
                "nodeType": 0
            },
            "3": {
                "invocation": {
                    "address": "0x9fa5c5733b53814692de4fb31fd592070de5f5f0",
                    "callData": "0x",
                    "decodedMethod": {
                        "callParams": [],
                        "constructorArguments": "",
                        "name": "token",
                        "returnParams": [
                            {
                                "name": "",
                                "type": "address",
                                "value": "0x6b175474e89094c44da98b954eedeac495271d0f"
                            }
                        ],
                        "signature": "token()"
                    },
                    "errorInfo": "",
                    "fromAddress": "0x8e044047eca453b63276f8a584924c06be649bac",
                    "gasUsed": 425,
                    "id": 3,
                    "methodDecoded": true,
                    "operation": "STATICCALL",
                    "output": "0x0000000000000000000000006b175474e89094c44da98b954eedeac495271d0f",
                    "revert": false,
                    "revertMessage": "",
                    "selector": "0xfc0c546a",
                    "status": true,
                    "value": "0"
                },
                "nodeType": 0
            },
            "4": {
                "invocation": {
                    "address": "0x6b175474e89094c44da98b954eedeac495271d0f",
                    "callData": "0x0000000000000000000000008e044047eca453b63276f8a584924c06be649bac",
                    "decodedMethod": {
                        "callParams": [
                            {
                                "name": "",
                                "type": "address",
                                "value": "0x8e044047eca453b63276f8a584924c06be649bac"
                            }
                        ],
                        "constructorArguments": "",
                        "name": "balanceOf",
                        "returnParams": [
                            {
                                "decimalAvailable": true,
                                "name": "",
                                "type": "uint256",
                                "value": "824,650,000,000,000,000,000"
                            }
                        ],
                        "signature": "balanceOf(address)"
                    },
                    "errorInfo": "",
                    "fromAddress": "0x8e044047eca453b63276f8a584924c06be649bac",
                    "gasUsed": 2602,
                    "id": 4,
                    "methodDecoded": true,
                    "operation": "STATICCALL",
                    "output": "0x00000000000000000000000000000000000000000000002cb45155d129e10000",
                    "revert": false,
                    "revertMessage": "",
                    "selector": "0x70a08231",
                    "status": true,
                    "value": "0"
                },
                "nodeType": 0
            },
            "5": {
                "invocation": {
                    "address": "0x6b175474e89094c44da98b954eedeac495271d0f",
                    "callData": "0x0000000000000000000000004e565f63257d90f988e5ec9d065bab00f94d2dfd00000000000000000000000000000000000000000000002cb45155d129e10000",
                    "decodedMethod": {
                        "callParams": [
                            {
                                "name": "dst",
                                "type": "address",
                                "value": "0x4e565f63257d90f988e5ec9d065bab00f94d2dfd"
                            },
                            {
                                "decimalAvailable": true,
                                "name": "wad",
                                "type": "uint256",
                                "value": "824,650,000,000,000,000,000"
                            }
                        ],
                        "constructorArguments": "",
                        "name": "transfer",
                        "returnParams": [
                            {
                                "name": "",
                                "type": "bool",
                                "value": true
                            }
                        ],
                        "signature": "transfer(address,uint256)"
                    },
                    "errorInfo": "",
                    "fromAddress": "0x8e044047eca453b63276f8a584924c06be649bac",
                    "gasUsed": 11074,
                    "id": 5,
                    "methodDecoded": true,
                    "operation": "CALL",
                    "output": "0x0000000000000000000000000000000000000000000000000000000000000001",
                    "revert": false,
                    "revertMessage": "",
                    "selector": "0xa9059cbb",
                    "status": true,
                    "value": "0"
                },
                "nodeType": 0
            },
            "6": {
                "event": {
                    "contract": "0x6b175474e89094c44da98b954eedeac495271d0f",
                    "decodedLog": {
                        "name": "Transfer",
                        "params": [
                            {
                                "name": "src",
                                "type": "address",
                                "value": "0x8e044047eca453b63276f8a584924c06be649bac"
                            },
                            {
                                "name": "dst",
                                "type": "address",
                                "value": "0x4e565f63257d90f988e5ec9d065bab00f94d2dfd"
                            },
                            {
                                "decimalAvailable": true,
                                "name": "wad",
                                "type": "uint256",
                                "value": "824,650,000,000,000,000,000"
                            }
                        ],
                        "signature": "Transfer(address,address,uint256)"
                    },
                    "id": 6,
                    "logData": "0x00000000000000000000000000000000000000000000002cb45155d129e10000",
                    "logDecoded": true,
                    "operation": "EVENT",
                    "revert": false,
                    "status": true,
                    "topics": [
                        "0xddf252ad1be2c89b69c2b068fc378daa952ba7f163c4a11628f55a4df523b3ef",
                        "0x0000000000000000000000008e044047eca453b63276f8a584924c06be649bac",
                        "0x0000000000000000000000004e565f63257d90f988e5ec9d065bab00f94d2dfd"
                    ]
                },
                "nodeType": 1
            },
            "7": {
                "invocation": {
                    "address": "0x4e565f63257d90f988e5ec9d065bab00f94d2dfd",
                    "callData": "",
                    "decodedMethod": null,
                    "errorInfo": "",
                    "fromAddress": "0x8e044047eca453b63276f8a584924c06be649bac",
                    "gasUsed": 0,
                    "id": 7,
                    "methodDecoded": false,
                    "operation": "SELFDESTRUCT",
                    "output": "",
                    "revert": false,
                    "revertMessage": "",
                    "selector": "",
                    "status": true,
                    "value": "0"
                },
                "nodeType": 0
            },
            "8": {
                "event": {
                    "contract": "0x9fa5c5733b53814692de4fb31fd592070de5f5f0",
                    "decodedLog": {
                        "name": "Withdrawn",
                        "params": [
                            {
                                "name": "sender",
                                "type": "address",
                                "value": "0x4e565f63257d90f988e5ec9d065bab00f94d2dfd"
                            },
                            {
                                "name": "to",
                                "type": "address",
                                "value": "0x8e044047eca453b63276f8a584924c06be649bac"
                            },
                            {
                                "name": "amount",
                                "type": "uint256",
                                "value": "0"
                            }
                        ],
                        "signature": "Withdrawn(address,address,uint256)"
                    },
                    "id": 8,
                    "logData": "0x0000000000000000000000004e565f63257d90f988e5ec9d065bab00f94d2dfd0000000000000000000000008e044047eca453b63276f8a584924c06be649bac0000000000000000000000000000000000000000000000000000000000000000",
                    "logDecoded": true,
                    "operation": "EVENT",
                    "revert": false,
                    "status": true,
                    "topics": [
                        "0xd1c19fbcd4551a5edfb66d43d2e337c04837afda3482b42bdf569a8fccdae5fb"
                    ]
                },
                "nodeType": 1
            }
        },
        "gasFlame": [
            {
                "children": [
                    {
                        "children": [
                            {
                                "children": [],
                                "depth": 0,
                                "name": "Initial Gas",
                                "value": 21596
                            },
                            {
                                "children": [
                                    {
                                        "children": [
                                            {
                                                "children": [],
                                                "depth": 2,
                                                "name": "recipient",
                                                "value": 2387
                                            },
                                            {
                                                "children": [],
                                                "depth": 2,
                                                "name": "token",
                                                "value": 425
                                            },
                                            {
                                                "children": [],
                                                "depth": 2,
                                                "name": "balanceOf",
                                                "value": 2602
                                            },
                                            {
                                                "children": [],
                                                "depth": 2,
                                                "name": "transfer",
                                                "value": 11074
                                            },
                                            {
                                                "children": [],
                                                "depth": 2,
                                                "name": "",
                                                "value": 0
                                            }
                                        ],
                                        "depth": 1,
                                        "name": "contract creation",
                                        "value": 26717
                                    }
                                ],
                                "depth": 0,
                                "name": "Executed Gas",
                                "value": 89156
                            }
                        ],
                        "depth": -1,
                        "name": "Actual Gas Used",
                        "value": 88602
                    },
                    {
                        "children": [],
                        "depth": -1,
                        "name": "Refunded Gas",
                        "value": 22150
                    }
                ],
                "depth": -2,
                "name": "Total Gas",
                "value": 110752
            }
        ],
        "isConfirmed": true,
        "mainTrace": [
            {
                "children": [
                    {
                        "children": [
                            {
                                "children": [
                                    {
                                        "children": [],
                                        "depth": 2,
                                        "id": 2,
                                        "order": 2
                                    },
                                    {
                                        "children": [],
                                        "depth": 2,
                                        "id": 3,
                                        "order": 3
                                    },
                                    {
                                        "children": [],
                                        "depth": 2,
                                        "id": 4,
                                        "order": 4
                                    },
                                    {
                                        "children": [
                                            {
                                                "children": [],
                                                "depth": 3,
                                                "id": 6,
                                                "order": 6
                                            }
                                        ],
                                        "depth": 2,
                                        "id": 5,
                                        "order": 5
                                    },
                                    {
                                        "children": [],
                                        "depth": 2,
                                        "id": 7,
                                        "order": 7
                                    }
                                ],
                                "depth": 1,
                                "id": 1,
                                "order": 1
                            },
                            {
                                "children": [],
                                "depth": 1,
                                "id": 8,
                                "order": 8
                            }
                        ],
                        "depth": 0,
                        "id": 0,
                        "order": 0
                    }
                ],
                "depth": -1,
                "id": -1,
                "order": -1
            }
        ],
        "mainTraceNodeCount": 9,
        "parentIdMap": {
            "0": -1,
            "1": 0,
            "2": 1,
            "3": 1,
            "4": 1,
            "5": 1,
            "6": 5,
            "7": 1,
            "8": 0
        },
        "tidyTrace": [
            {
                "children": [
                    {
                        "children": [
                            {
                                "children": [
                                    {
                                        "children": [
                                            {
                                                "children": [],
                                                "depth": 3,
                                                "id": 6,
                                                "order": 6
                                            }
                                        ],
                                        "depth": 2,
                                        "id": 5,
                                        "order": 5
                                    },
                                    {
                                        "children": [],
                                        "depth": 2,
                                        "id": 7,
                                        "order": 7
                                    }
                                ],
                                "depth": 1,
                                "id": 1,
                                "order": 1
                            },
                            {
                                "children": [],
                                "depth": 1,
                                "id": 8,
                                "order": 8
                            }
                        ],
                        "depth": 0,
                        "id": 0,
                        "order": 0
                    }
                ],
                "depth": -1,
                "id": -1,
                "order": -1
            }
        ],
        "tidyTraceNodeCount": 6
    },
    "state_change": {
        "stateChanges": [
            {
                "address": "0x6b175474e89094c44da98b954eedeac495271d0f",
                "erc": "ERC-20",
                "slots": [
                    {
                        "current": "0x0000000000000000000000000000000000000000000000000000000000000000",
                        "key": "0xaba2b2bc0deadab0e04e3039a4f080b5d5703cc3ff6962fc3004926ce5bfe7ab",
                        "prev": "0x00000000000000000000000000000000000000000000002cb45155d129e10000"
                    },
                    {
                        "current": "0x000000000000000000000000000000000000000000000118f288b2d65e6e4277",
                        "key": "0x527ad522af55fa6ca77eee7251bc480172001d043f1bc7356a342ae6e74cbe8d",
                        "prev": "0x0000000000000000000000000000000000000000000000ec3e375d05348d4277"
                    }
                ],
                "storageVariables": [
                    {
                        "name": "balanceOf",
                        "type": "mapping(address => uint256)",
                        "value": {
                            "pairs": [
                                {
                                    "key": "0x4e565f63257d90f988e5ec9d065bab00f94d2dfd",
                                    "value": {
                                        "current": "5182564755626462691959",
                                        "prev": "4357914755626462691959",
                                        "typeTag": 1
                                    }
                                },
                                {
                                    "key": "0x8e044047eca453b63276f8a584924c06be649bac",
                                    "value": {
                                        "current": "0",
                                        "prev": "824650000000000000000",
                                        "typeTag": 1
                                    }
                                }
                            ],
                            "typeTag": 4
                        }
                    }
                ]
            }
        ]
    }
}