{
    "balance_change": {
        "balanceChanges": [
            {
                "account": "0x320e92bc6c19f743fa84c96b0e3c246bf3cc348c",
                "assets": [
                    {
                        "address": "0xff20817765cb7f73d4bde2e66e067e58d11095c2",
                        "amount": "100,874.929023881966118343",
                        "iconUrl": "https://assets.blocksec.com/icon/b646a4a041abe8e7a4ffd93d3009c17b267e03a80b5f4e8cc9e22f028a8033e9.png",
                        "isERC1155": false,
                        "isERC721": false,
                        "sign": false,
                        "value": "5703.648792"
                    }
                ]
            },
            {
                "account": "0x447409337ebe0af6068077032ef54c41bc4162dc",
                "assets": [
                    {
                        "address": "0xff20817765cb7f73d4bde2e66e067e58d11095c2",
                        "amount": "100,874.929023881966118343",
                        "iconUrl": "https://assets.blocksec.com/icon/b646a4a041abe8e7a4ffd93d3009c17b267e03a80b5f4e8cc9e22f028a8033e9.png",
                        "isERC1155": false,
                        "isERC721": false,
                        "sign": true,
                        "value": "5703.648792"
                    }
                ]
            }
        ]
    },
    "profile": {
        "basic_info": {
            "baseFee": "71.069753335",
            "blockNumber": 13770317,
            "callData": "0xa9059cbb000000000000000000000000447409337ebe0af6068077032ef54c41bc4162dc00000000000000000000000000000000000000000000155c70dc30f0da59e5c7",
            "debugEnable": true,
            "errorInfo": "",
            "eventCount": 2,
            "feeRecipient": "0xc365c3315cf926351ccaf13fa7d19c8c4058c8e1",
            "formatValue": "0",
            "gasLimit": 130848,
            "gasPrice": "72.569753335",
            "gasUsed": 69786,
            "intTxnCount": 2,
            "internalRevert": false,
            "internalRevertMessage": "",
            "isContractCreation": false,
            "isFlashloan": false,
            "maxFee": "76.476993194",
            "nonce": 41,
            "overwritedBlockNumber": -1,
            "priorityFee": "1.5",
            "receiver": "0xff20817765cb7f73d4bde2e66e067e58d11095c2",
            "revertMessage": "",
            "sender": "0x320e92bc6c19f743fa84c96b0e3c246bf3cc348c",
            "simulationEnable": true,
            "sourceTxnHash": "0x1619a6b5e1b69ff6b6b2fba2c366fd0afce72792cd6895ef3fae02f6379d393c",
            "status": true,
            "timestamp": "2021-12-09T09:38:52Z",
            "transactionFee": "0.00506435280623631",
            "txnHash": "0x1619a6b5e1b69ff6b6b2fba2c366fd0afce72792cd6895ef3fae02f6379d393c",
            "txnIndex": 39,
            "type": 2,
            "value": "0"
        },
        "fund_flow": [
            {
                "amount": "100,874.929023881966118343",
                "from": "0x320e92bc6c19f743fa84c96b0e3c246bf3cc348c",
                "id": 1,
                "isERC1155": false,
                "isERC721": false,
                "isReverted": false,
                "order": 1,
                "to": "0x447409337ebe0af6068077032ef54c41bc4162dc",
                "token": "0xff20817765cb7f73d4bde2e66e067e58d11095c2"
            }
        ],
        "token_infos": [
            {
                "address": "0xeeeeeeeeeeeeeeeeeeeeeeeeeeeeeeeeeeeeeeee",
                "decimals": 18
            },
            {
                "address": "0xc02aaa39b223fe8d0a0e5c4f27ead9083c756cc2",
                "decimals": 18
            },
            {
                "address": "0xff20817765cb7f73d4bde2e66e067e58d11095c2",
                "decimals": 18
            }
        ]
    },
    "address_label": {
        "labels": [
            {
                "address": "0x1820a4b7618bde71dce8cdc73aab6c95905fad24",
                "label": "ERC1820Registry"
            },
            {
                "address": "0xff20817765cb7f73d4bde2e66e067e58d11095c2",
                "label": "Amp: AMP Token"
            },
            {
                "address": "0x0000000000000000000000000000000000000000",
                "label": "Null Address"
            },
            {
                "address": "0x0000000000000000000000000000000000000001",
                "label": "Precompiled"
            },
            {
                "address": "0x0000000000000000000000000000000000000002",
                "label": "Precompiled"
            },
            {
                "address": "0x0000000000000000000000000000000000000003",
                "label": "Precompiled"
            },
            {
                "address": "0x0000000000000000000000000000000000000004",
                "label": "Precompiled"
            },
            {
                "address": "0xeeeeeeeeeeeeeeeeeeeeeeeeeeeeeeeeeeeeeeee",
                "label": "Ether"
            }
        ]
    },
    "trace": {
        "accountLabels": null,
        "dataMap": {
            "-1": {
                "invocation": {
                    "address": "0x320e92bc6c19f743fa84c96b0e3c246bf3cc348c",
                    "callData": "",
                    "decodedMethod": null,
                    "errorInfo": "",
                    "fromAddress": "",
                    "gasUsed": 0,
                    "id": -1,
                    "methodDecoded": false,
                    "operation": "",
                    "output": "",
                    "revert": false,
                    "revertMessage": "",
                    "selector": "",
                    "status": false,
                    "value": ""
                },
                "nodeType": 0
            },
            "0": {
                "invocation": {
                    "address": "0xff20817765cb7f73d4bde2e66e067e58d11095c2",
                    "callData": "0x000000000000000000000000447409337ebe0af6068077032ef54c41bc4162dc00000000000000000000000000000000000000000000155c70dc30f0da59e5c7",
                    "decodedMethod": {
                        "callParams": [
                            {
                                "name": "_to",
                                "type": "address",
                                "value": "0x447409337ebe0af6068077032ef54c41bc4162dc"
                            },
                            {
                                "decimalAvailable": true,
                                "name": "_value",
                                "type": "uint256",
                                "value": "100,874,929,023,881,966,118,343"
                            }
                        ],
                        "constructorArguments": "",
                        "name": "transfer",
                        "returnParams": [
                            {
                                "name": "",
                                "type": "bool",
                                "value": true
                            }
                        ],
                        "signature": "transfer(address,uint256)"
                    },
                    "errorInfo": "",
                    "fromAddress": "0x320e92bc6c19f743fa84c96b0e3c246bf3cc348c",
                    "gasUsed": 69786,
                    "id": 0,
                    "methodDecoded": true,
                    "operation": "CALL",
                    "output": "0x0000000000000000000000000000000000000000000000000000000000000001",
                    "revert": false,
                    "revertMessage": "",
                    "selector": "0xa9059cbb",
                    "status": true,
                    "value": "0"
                },
                "nodeType": 0
            },
            "1": {
                "invocation": {
                    "address": "0x1820a4b7618bde71dce8cdc73aab6c95905fad24",
                    "callData": "0x000000000000000000000000320e92bc6c19f743fa84c96b0e3c246bf3cc348c60881b58a7ad1ebd3bc0e92b8277996363a67ded0f43bd95d11c320bab72b5a4",
                    "decodedMethod": {
                        "callParams": [
                            {
                                "name": "_addr",
                                "type": "address",
                                "value": "0x320e92bc6c19f743fa84c96b0e3c246bf3cc348c"
                            },
                            {
                                "name": "_interfaceHash",
                                "type": "bytes32",
                                "value": "0x60881b58a7ad1ebd3bc0e92b8277996363a67ded0f43bd95d11c320bab72b5a4"
                            }
                        ],
                        "constructorArguments": "",
                        "name": "getInterfaceImplementer",
                        "returnParams": [
                            {
                                "name": "",
                                "type": "address",
                                "value": "0x0000000000000000000000000000000000000000"
                            }
                        ],
                        "signature": "getInterfaceImplementer(address,bytes32)"
                    },
                    "errorInfo": "",
                    "fromAddress": "0xff20817765cb7f73d4bde2e66e067e58d11095c2",
                    "gasUsed": 2942,
                    "id": 1,
                    "methodDecoded": true,
                    "operation": "STATICCALL",
                    "output": "0x0000000000000000000000000000000000000000000000000000000000000000",
                    "revert": false,
                    "revertMessage": "",
                    "selector": "0xaabbb8ca",
                    "status": true,
                    "value": "0"
                },
                "nodeType": 0
            },
            "2": {
                "invocation": {
                    "address": "0x1820a4b7618bde71dce8cdc73aab6c95905fad24",
                    "callData": "0x000000000000000000000000447409337ebe0af6068077032ef54c41bc4162dcfa352d6368bbc643bcf9d528ffaba5dd3e826137bc42f935045c6c227bd4c72a",
                    "decodedMethod": {
                        "callParams": [
                            {
                                "name": "_addr",
                                "type": "address",
                                "value": "0x447409337ebe0af6068077032ef54c41bc4162dc"
                            },
                            {
                                "name": "_interfaceHash",
                                "type": "bytes32",
                                "value": "0xfa352d6368bbc643bcf9d528ffaba5dd3e826137bc42f935045c6c227bd4c72a"
                            }
                        ],
                        "constructorArguments": "",
                        "name": "getInterfaceImplementer",
                        "returnParams": [
                            {
                                "name": "",
                                "type": "address",
                                "value": "0x0000000000000000000000000000000000000000"
                            }
                        ],
                        "signature": "getInterfaceImplementer(address,bytes32)"
                    },
                    "errorInfo": "",
                    "fromAddress": "0xff20817765cb7f73d4bde2e66e067e58d11095c2",
                    "gasUsed": 2942,
                    "id": 2,
                    "methodDecoded": true,
                    "operation": "STATICCALL",
                    "output": "0x0000000000000000000000000000000000000000000000000000000000000000",
                    "revert": false,
                    "revertMessage": "",
                    "selector": "0xaabbb8ca",
                    "status": true,
                    "value": "0"
                },
                "nodeType": 0
            },
            "3": {
                "event": {
                    "contract": "0xff20817765cb7f73d4bde2e66e067e58d11095c2",
                    "decodedLog": {
                        "name": "Transfer",
                        "params": [
                            {
                                "name": "from",
                                "type": "address",
                                "value": "0x320e92bc6c19f743fa84c96b0e3c246bf3cc348c"
                            },
                            {
                                "name": "to",
                                "type": "address",
                                "value": "0x447409337ebe0af6068077032ef54c41bc4162dc"
                            },
                            {
                                "decimalAvailable": true,
                                "name": "value",
                                "type": "uint256",
                                "value": "100,874,929,023,881,966,118,343"
                            }
                        ],
                        "signature": "Transfer(address,address,uint256)"
                    },
                    "id": 3,
                    "logData": "0x00000000000000000000000000000000000000000000155c70dc30f0da59e5c7",
                    "logDecoded": true,
                    "operation": "EVENT",
                    "revert": false,
                    "status": true,
                    "topics": [
                        "0xddf252ad1be2c89b69c2b068fc378daa952ba7f163c4a11628f55a4df523b3ef",
                        "0x000000000000000000000000320e92bc6c19f743fa84c96b0e3c246bf3cc348c",
                        "0x000000000000000000000000447409337ebe0af6068077032ef54c41bc4162dc"
                    ]
                },
                "nodeType": 1
            },
            "4": {
                "event": {
                    "contract": "0xff20817765cb7f73d4bde2e66e067e58d11095c2",
                    "decodedLog": {
                        "name": "TransferByPartition",
                        "params": [
                            {
                                "name": "fromPartition",
                                "type": "bytes32",
                                "value": "0x0000000000000000000000000000000000000000000000000000000000000000"
                            },
                            {
                                "name": "from",
                                "type": "address",
                                "value": "0x320e92bc6c19f743fa84c96b0e3c246bf3cc348c"
                            },
                            {
                                "name": "to",
                                "type": "address",
                                "value": "0x447409337ebe0af6068077032ef54c41bc4162dc"
                            },
                            {
                                "name": "operator",
                                "type": "address",
                                "value": "0x320e92bc6c19f743fa84c96b0e3c246bf3cc348c"
                            },
                            {
                                "name": "value",
                                "type": "uint256",
                                "value": "100,874,929,023,881,966,118,343"
                            },
                            {
                                "name": "data",
                                "type": "bytes",
                                "value": "0x"
                            },
                            {
                                "name": "operatorData",
                                "type": "bytes",
                                "value": "0x"
                            }
                        ],
                        "signature": "TransferByPartition(bytes32,address,address,address,uint256,bytes,bytes)"
                    },
                    "id": 4,
                    "logData": "0x000000000000000000000000320e92bc6c19f743fa84c96b0e3c246bf3cc348c00000000000000000000000000000000000000000000155c70dc30f0da59e5c7000000000000000000000000000000000000000000000000000000000000008000000000000000000000000000000000000000000000000000000000000000a000000000000000000000000000000000000000000000000000000000000000000000000000000000000000000000000000000000000000000000000000000000",
                    "logDecoded": true,
                    "operation": "EVENT",
                    "revert": false,
                    "status": true,
                    "topics": [
                        "0xff4e9a26af4eb73b8bacfaa4abd4fea03d9448e7b912dc5ff4019048875aa2d4",
                        "0x0000000000000000000000000000000000000000000000000000000000000000",
                        "0x000000000000000000000000320e92bc6c19f743fa84c96b0e3c246bf3cc348c",
                        "0x000000000000000000000000447409337ebe0af6068077032ef54c41bc4162dc"
                    ]
                },
                "nodeType": 1
            }
        },
        "gasFlame": [
            {
                "children": [
                    {
                        "children": [
                            {
                                "children": [],
                                "depth": 0,
                                "name": "Initial Gas",
                                "value": 21680
                            },
                            {
                                "children": [
                                    {
                                        "children": [],
                                        "depth": 1,
                                        "name": "getInterfaceImplementer",
                                        "value": 2942
                                    },
                                    {
                                        "children": [],
                                        "depth": 1,
                                        "name": "getInterfaceImplementer",
                                        "value": 2942
                                    }
                                ],
                                "depth": 0,
                                "name": "Executed Gas",
                                "value": 65552
                            }
                        ],
                        "depth": -1,
                        "name": "Actual Gas Used",
                        "value": 69786
                    },
                    {
                        "children": [],
                        "depth": -1,
                        "name": "Refunded Gas",
                        "value": 17446
                    }
                ],
                "depth": -2,
                "name": "Total Gas",
                "value": 87232
            }
        ],
        "isConfirmed": true,
        "mainTrace": [
            {
                "children": [
                    {
                        "children": [
                            {
                                "children": [],
                                "depth": 1,
                                "id": 1,
                                "order": 1
                            },
                            {
                                "children": [],
                                "depth": 1,
                                "id": 2,
                                "order": 2
                            },
                            {
                                "children": [],
                                "depth": 1,
                                "id": 3,
                                "order": 3
                            },
                            {
                                "children": [],
                                "depth": 1,
                                "id": 4,
                                "order": 4
                            }
                        ],
                        "depth": 0,
                        "id": 0,
                        "order": 0
                    }
                ],
                "depth": -1,
                "id": -1,
                "order": -1
            }
        ],
        "mainTraceNodeCount": 5,
        "parentIdMap": {
            "0": -1,
            "1": 0,
            "2": 0,
            "3": 0,
            "4": 0
        },
        "tidyTrace": [
            {
                "children": [
                    {
                        "children": [
                            {
                                "children": [],
                                "depth": 1,
                                "id": 3,
                                "order": 3
                            },
                            {
                                "children": [],
                                "depth": 1,
                                "id": 4,
                                "order": 4
                            }
                        ],
                        "depth": 0,
                        "id": 0,
                        "order": 0
                    }
                ],
                "depth": -1,
                "id": -1,
                "order": -1
            }
        ],
        "tidyTraceNodeCount": 3
    },
    "state_change": {
        "stateChanges": [
            {
                "address": "0xff20817765cb7f73d4bde2e66e067e58d11095c2",
                "erc": "ERC-20",
                "slots": [
                    {
                        "current": "0x00000000000000000000000000000000000000000000155c7ebce7a481bde5c7",
                        "key": "0x93826685c8b783e973a9f47f7d050e96bac77363a62b1900bce8e20a45eee20f",
                        "prev": "0x0000000000000000000000000000000000000000000000000de0b6b3a7640000"
                    },
                    {
                        "current": "0x0000000000000000000000000000000000000000000000000000000000000000",
                        "key": "0x7427ebe5ed2ec0e0cc07196eb6aca7e6c329c42729047d649e9c6eaec5e0b79d",
                        "prev": "0x00000000000000000000000000000000000000000000155c70dc30f0da59e5c7"
                    },
                    {
                        "current": "0x0000000000000000000000000000000000000000000000000000000000000000",
                        "key": "0x9d8d2c167afa51de2804f81696066fe0db39f1c21c51ac457d49d74222a030ba",
                        "prev": "0x00000000000000000000000000000000000000000000155c70dc30f0da59e5c7"
                    },
                    {
                        "current": "0x0000000000000000000000000000000000000000000000000000000000000000",
                        "key": "0x2539b7ef3fd9848151208ce8447d3502f6ef9b50f6151ea5c295b98c795c2dab",
                        "prev": "0x0000000000000000000000000000000000000000000000000000000000000001"
                    },
                    {
                        "current": "0x0000000000000000000000000000000000000000000000000000000000000000",
                        "key": "0xb7a68e2f8ebdcc716f728ed11cdb3fcd935ea07ccc0859236c4f8c02692e3e89",
                        "prev": "0x0000000000000000000000000000000000000000000000000000000000000001"
                    },
                    {
                        "current": "0x00000000000000000000000000000000000000000000155c7ebce7a481bde5c7",
                        "key": "0xd7275bf4057656783b48d3af892b79296ea42e88efdaefe05e986c99cd0bcad5",
                        "prev": "0x0000000000000000000000000000000000000000000000000de0b6b3a7640000"
                    }
                ],
                "storageVariables": [
                    {
                        "name": "_balanceOfByPartition",
                        "type": "mapping(address => mapping(bytes32 => uint256))",
                        "value": {
                            "pairs": [
                                {
                                    "key": "0x320e92bc6c19f743fa84c96b0e3c246bf3cc348c",
                                    "value": {
                                        "pairs": [
                                            {
                                                "key": "0x0000000000000000000000000000000000000000000000000000000000000000",
                                                "value": {
                                                    "current": "0",
                                                    "prev": "100874929023881966118343",
                                                    "typeTag": 1
                                                }
                                            }
                                        ],
                                        "typeTag": 4
                                    }
                                },
                                {
                                    "key": "0x447409337ebe0af6068077032ef54c41bc4162dc",
                                    "value": {
                                        "pairs": [
                                            {
                                                "key": "0x0000000000000000000000000000000000000000000000000000000000000000",
                                                "value": {
                                                    "current": "100875929023881966118343",
                                                    "prev": "1000000000000000000",
                                                    "typeTag": 1
                                                }
                                            }
                                        ],
                                        "typeTag": 4
                                    }
                                }
                            ],
                            "typeTag": 4
                        }
                    },
                    {
                        "name": "_balances",
                        "type": "mapping(address => uint256)",
                        "value": {
                            "pairs": [
                                {
                                    "key": "0x320e92bc6c19f743fa84c96b0e3c246bf3cc348c",
                                    "value": {
                                        "current": "0",
                                        "prev": "100874929023881966118343",
                                        "typeTag": 1
                                    }
                                },
                                {
                                    "key": "0x447409337ebe0af6068077032ef54c41bc4162dc",
                                    "value": {
                                        "current": "100875929023881966118343",
                                        "prev": "1000000000000000000",
                                        "typeTag": 1
                                    }
                                }
                            ],
                            "typeTag": 4
                        }
                    },
                    {
                        "name": "_indexOfPartitionsOf",
                        "type": "mapping(address => mapping(bytes32 => uint256))",
                        "value": {
                            "pairs": [
                                {
                                    "key": "0x320e92bc6c19f743fa84c96b0e3c246bf3cc348c",
                                    "value": {
                                        "pairs": [
                                            {
                                                "key": "0x0000000000000000000000000000000000000000000000000000000000000000",
                                                "value": {
                                                    "current": "0",
                                                    "prev": "1",
                                                    "typeTag": 1
                                                }
                                            }
                                        ],
                                        "typeTag": 4
                                    }
                                }
                            ],
                            "typeTag": 4
                        }
                    }
                ]
            }
        ]
    }
}