{
    "balance_change": {
        "balanceChanges": []
    },
    "profile": {
        "basic_info": {
            "baseFee": "48.328328113",
            "blockNumber": 15000360,
            "callData": "0xa0712d680000000000000000000000000000000000000000000000000000000000000005",
            "debugEnable": true,
            "errorInfo": "execution reverted",
            "eventCount": 0,
            "feeRecipient": "0x03e75d7dd38cce2e20ffee35ec914c57780a8e29",
            "formatValue": "0",
            "gasLimit": 121023,
            "gasPrice": "49.328328113",
            "gasUsed": 30977,
            "intTxnCount": 0,
            "internalRevert": false,
            "internalRevertMessage": "",
            "isContractCreation": false,
            "isFlashloan": false,
            "maxFee": "53.730441676",
            "nonce": 293,
            "overwritedBlockNumber": -1,
            "priorityFee": "1",
            "receiver": "0x2814ecec3d6237857b63952923959237b905b8ea",
            "revertMessage": "Incorrect ETH value sent",
            "sender": "0xd0fa5f9f7914c34281360d3f55067920db952f92",
            "simulationEnable": true,
            "sourceTxnHash": "0x1618ae2165c8c73fa5b05a8b814e86eb6f4977e6cd58ea2593b4a2ffa5907bd3",
            "status": false,
            "timestamp": "2022-06-21T04:04:36Z",
            "transactionFee": "0.001528043619956401",
            "txnHash": "0x1618ae2165c8c73fa5b05a8b814e86eb6f4977e6cd58ea2593b4a2ffa5907bd3",
            "txnIndex": 140,
            "type": 2,
            "value": "0"
        },
        "fund_flow": [],
        "token_infos": [
            {
                "address": "0xc02aaa39b223fe8d0a0e5c4f27ead9083c756cc2",
                "decimals": 18
            },
            {
                "address": "0xeeeeeeeeeeeeeeeeeeeeeeeeeeeeeeeeeeeeeeee",
                "decimals": 18
            }
        ]
    },
    "address_label": {
        "labels": [
            {
                "address": "0x0000000000000000000000000000000000000001",
                "label": "Precompiled"
            },
            {
                "address": "0x0000000000000000000000000000000000000002",
                "label": "Precompiled"
            },
            {
                "address": "0x0000000000000000000000000000000000000003",
                "label": "Precompiled"
            },
            {
                "address": "0x0000000000000000000000000000000000000004",
                "label": "Precompiled"
            },
            {
                "address": "0xeeeeeeeeeeeeeeeeeeeeeeeeeeeeeeeeeeeeeeee",
                "label": "Ether"
            },
            {
                "address": "0x2814ecec3d6237857b63952923959237b905b8ea",
                "label": "RROtherdeed"
            }
        ]
    },
    "trace": {
        "accountLabels": null,
        "dataMap": {
            "-1": {
                "invocation": {
                    "address": "0xd0fa5f9f7914c34281360d3f55067920db952f92",
                    "callData": "",
                    "decodedMethod": null,
                    "errorInfo": "",
                    "fromAddress": "",
                    "gasUsed": 0,
                    "id": -1,
                    "methodDecoded": false,
                    "operation": "",
                    "output": "",
                    "revert": false,
                    "revertMessage": "",
                    "selector": "",
                    "status": false,
                    "value": ""
                },
                "nodeType": 0
            },
            "0": {
                "invocation": {
                    "address": "0x2814ecec3d6237857b63952923959237b905b8ea",
                    "callData": "0x0000000000000000000000000000000000000000000000000000000000000005",
                    "decodedMethod": {
                        "callParams": [
                            {
                                "name": "numberOfTokens",
                                "type": "uint256",
                                "value": "5"
                            }
                        ],
                        "constructorArguments": "",
                        "name": "mint",
                        "returnParams": [],
                        "signature": "mint(uint256)"
                    },
                    "errorInfo": "execution reverted",
                    "fromAddress": "0xd0fa5f9f7914c34281360d3f55067920db952f92",
                    "gasUsed": 30977,
                    "id": 0,
                    "methodDecoded": true,
                    "operation": "CALL",
                    "output": "0x08c379a000000000000000000000000000000000000000000000000000000000000000200000000000000000000000000000000000000000000000000000000000000018496e636f7272656374204554482076616c75652073656e740000000000000000",
                    "revert": true,
                    "revertMessage": "Incorrect ETH value sent",
                    "selector": "0xa0712d68",
                    "status": false,
                    "value": "0"
                },
                "nodeType": 0
            }
        },
        "gasFlame": [
            {
                "children": [
                    {
                        "children": [
                            {
                                "children": [],
                                "depth": 0,
                                "name": "Initial Gas",
                                "value": 21204
                            },
                            {
                                "children": [],
                                "depth": 0,
                                "name": "Executed Gas",
                                "value": 9773
                            }
                        ],
                        "depth": -1,
                        "name": "Actual Gas Used",
                        "value": 30977
                    },
                    {
                        "children": [],
                        "depth": -1,
                        "name": "Refunded Gas",
                        "value": 0
                    }
                ],
                "depth": -2,
                "name": "Total Gas",
                "value": 30977
            }
        ],
        "isConfirmed": true,
        "mainTrace": [
            {
                "children": [
                    {
                        "children": [],
                        "depth": 0,
                        "id": 0,
                        "order": 0
                    }
                ],
                "depth": -1,
                "id": -1,
                "order": -1
            }
        ],
        "mainTraceNodeCount": 1,
        "parentIdMap": {
            "0": -1
        },
        "tidyTrace": [
            {
                "children": [
                    {
                        "children": [],
                        "depth": 0,
                        "id": 0,
                        "order": 0
                    }
                ],
                "depth": -1,
                "id": -1,
                "order": -1
            }
        ],
        "tidyTraceNodeCount": 1
    },
    "state_change": {
        "stateChanges": []
    }
}