{
    "balance_change": {
        "balanceChanges": [
            {
                "account": "0x4b4eec1ddc9420a5cc35a25f5899dc5993f9e586",
                "assets": [
                    {
                        "address": "0xae7ab96520de3a18e5e111b5eaab095312d7fe84",
                        "amount": "0.100587999999999984",
                        "iconUrl": "https://assets.blocksec.com/icon/3968fd5c98727016afc635f2849cea0c6ddf42095e660b8a3497ee09185b175e.png",
                        "isERC1155": false,
                        "isERC721": false,
                        "sign": false,
                        "value": "331.45455996000000734"
                    }
                ]
            },
            {
                "account": "0x704377f719651c3ee6902ff3c9d5522e5054d429",
                "assets": [
                    {
                        "address": "0xae7ab96520de3a18e5e111b5eaab095312d7fe84",
                        "amount": "0.100587999999999984",
                        "iconUrl": "https://assets.blocksec.com/icon/3968fd5c98727016afc635f2849cea0c6ddf42095e660b8a3497ee09185b175e.png",
                        "isERC1155": false,
                        "isERC721": false,
                        "sign": true,
                        "value": "331.45455996000000734"
                    }
                ]
            }
        ]
    },
    "profile": {
        "basic_info": {
            "baseFee": "14.529051112",
            "blockNumber": 20427913,
            "callData": "0x5310d8f400000000000000000000000000000000000000000000000001655c40c8aabff0",
            "debugEnable": true,
            "errorInfo": "",
            "eventCount": 3,
            "feeRecipient": "0x4838b106fce9647bdf1e7877bf73ce8b0bad5f97",
            "formatValue": "0",
            "gasLimit": 161954,
            "gasPrice": "14.579051112",
            "gasUsed": 115529,
            "intTxnCount": 6,
            "internalRevert": false,
            "internalRevertMessage": "",
            "isContractCreation": false,
            "isFlashloan": false,
            "maxFee": "16",
            "nonce": 303,
            "overwritedBlockNumber": -1,
            "priorityFee": "0.05",
            "receiver": "0x652329cc4f00af06a8020b41846d54a439a64620",
            "revertMessage": "",
            "sender": "0x8ede0da4ba425ff2d08216979642287b6576d9c3",
            "simulationEnable": true,
            "sourceTxnHash": "0x16329a53f214344e96304c9b66b010757f5e46b3c15258e8270f0f5641e53550",
            "status": true,
            "timestamp": "2024-07-31T17:05:47Z",
            "transactionFee": "0.001684303195918248",
            "txnHash": "0x16329a53f214344e96304c9b66b010757f5e46b3c15258e8270f0f5641e53550",
            "txnIndex": 175,
            "type": 2,
            "value": "0"
        },
        "fund_flow": [
            {
                "amount": "0.100587999999999984",
                "from": "0x4b4eec1ddc9420a5cc35a25f5899dc5993f9e586",
                "id": 1,
                "isERC1155": false,
                "isERC721": false,
                "isReverted": false,
                "order": 1,
                "to": "0x704377f719651c3ee6902ff3c9d5522e5054d429",
                "token": "0xae7ab96520de3a18e5e111b5eaab095312d7fe84"
            }
        ],
        "token_infos": [
            {
                "address": "0xae7ab96520de3a18e5e111b5eaab095312d7fe84",
                "decimals": 18
            },
            {
                "address": "0xc02aaa39b223fe8d0a0e5c4f27ead9083c756cc2",
                "decimals": 18
            },
            {
                "address": "0xeeeeeeeeeeeeeeeeeeeeeeeeeeeeeeeeeeeeeeee",
                "decimals": 18
            }
        ]
    },
    "address_label": {
        "labels": [
            {
                "address": "0x0000000000000000000000000000000000000002",
                "label": "Precompiled"
            },
            {
                "address": "0x2b33cf282f867a7ff693a66e11b0fcc5552e4425",
                "label": "Lido: DAO Impl 1.0.0"
            },
            {
                "address": "0x1f75881dc0707b5236f739b5b64a87c211294abb",
                "label": "ElixirDeposit"
            },
            {
                "address": "0x17144556fd3424edc8fc8a4c940b2d04936d17eb",
                "label": "Lido: stETH Token Impl 2.0.0"
            },
            {
                "address": "0x0000000000000000000000000000000000000001",
                "label": "Precompiled"
            },
            {
                "address": "0xeeeeeeeeeeeeeeeeeeeeeeeeeeeeeeeeeeeeeeee",
                "label": "Ether"
            },
            {
                "address": "0xae7ab96520de3a18e5e111b5eaab095312d7fe84",
                "label": "Lido: stETH Token"
            },
            {
                "address": "0xb8ffc3cd6e7cf5a098a1c92f48009765b24088dc",
                "label": "Lido: DAO"
            },
            {
                "address": "0x0000000000000000000000000000000000000004",
                "label": "Precompiled"
            },
            {
                "address": "0x652329cc4f00af06a8020b41846d54a439a64620",
                "label": "ElixirDeUSDCommits"
            },
            {
                "address": "0x0000000000000000000000000000000000000003",
                "label": "Precompiled"
            },
            {
                "address": "0x704377f719651c3ee6902ff3c9d5522e5054d429",
                "label": "GnosisSafeProxy_7043_d429"
            },
            {
                "address": "0x4b4eec1ddc9420a5cc35a25f5899dc5993f9e586",
                "label": "GnosisSafeProxy_4b4e_e586"
            }
        ]
    },
    "trace": {
        "accountLabels": null,
        "dataMap": {
            "-1": {
                "invocation": {
                    "address": "0x8ede0da4ba425ff2d08216979642287b6576d9c3",
                    "callData": "",
                    "decodedMethod": null,
                    "errorInfo": "",
                    "fromAddress": "",
                    "gasUsed": 0,
                    "id": -1,
                    "methodDecoded": false,
                    "operation": "",
                    "output": "",
                    "revert": false,
                    "revertMessage": "",
                    "selector": "",
                    "status": false,
                    "value": ""
                },
                "nodeType": 0
            },
            "0": {
                "invocation": {
                    "address": "0x652329cc4f00af06a8020b41846d54a439a64620",
                    "callData": "0x00000000000000000000000000000000000000000000000001655c40c8aabff0",
                    "decodedMethod": {
                        "callParams": [
                            {
                                "name": "commitAmount",
                                "type": "uint256",
                                "value": "100,587,999,999,999,984"
                            }
                        ],
                        "constructorArguments": "",
                        "name": "commitDeUSD",
                        "returnParams": [],
                        "signature": "commitDeUSD(uint256)"
                    },
                    "errorInfo": "",
                    "fromAddress": "0x8ede0da4ba425ff2d08216979642287b6576d9c3",
                    "gasUsed": 115529,
                    "id": 0,
                    "methodDecoded": true,
                    "operation": "CALL",
                    "output": "",
                    "revert": false,
                    "revertMessage": "",
                    "selector": "0x5310d8f4",
                    "status": true,
                    "value": "0"
                },
                "nodeType": 0
            },
            "1": {
                "invocation": {
                    "address": "0x1f75881dc0707b5236f739b5b64a87c211294abb",
                    "callData": "0x0000000000000000000000008ede0da4ba425ff2d08216979642287b6576d9c3",
                    "decodedMethod": {
                        "callParams": [
                            {
                                "name": "user",
                                "type": "address",
                                "value": "0x8ede0da4ba425ff2d08216979642287b6576d9c3"
                            }
                        ],
                        "constructorArguments": "",
                        "name": "deposits",
                        "returnParams": [
                            {
                                "name": "amount",
                                "type": "uint256",
                                "value": "100,587,999,999,999,992"
                            }
                        ],
                        "signature": "deposits(address)"
                    },
                    "errorInfo": "",
                    "fromAddress": "0x652329cc4f00af06a8020b41846d54a439a64620",
                    "gasUsed": 2572,
                    "id": 1,
                    "methodDecoded": true,
                    "operation": "STATICCALL",
                    "output": "0x00000000000000000000000000000000000000000000000001655c40c8aabff8",
                    "revert": false,
                    "revertMessage": "",
                    "selector": "0xfc7e286d",
                    "status": true,
                    "value": "0"
                },
                "nodeType": 0
            },
            "2": {
                "invocation": {
                    "address": "0x1f75881dc0707b5236f739b5b64a87c211294abb",
                    "callData": "0x",
                    "decodedMethod": {
                        "callParams": [],
                        "constructorArguments": "",
                        "name": "controller",
                        "returnParams": [
                            {
                                "name": "",
                                "type": "address",
                                "value": "0x4b4eec1ddc9420a5cc35a25f5899dc5993f9e586"
                            }
                        ],
                        "signature": "controller()"
                    },
                    "errorInfo": "",
                    "fromAddress": "0x652329cc4f00af06a8020b41846d54a439a64620",
                    "gasUsed": 2403,
                    "id": 2,
                    "methodDecoded": true,
                    "operation": "STATICCALL",
                    "output": "0x0000000000000000000000004b4eec1ddc9420a5cc35a25f5899dc5993f9e586",
                    "revert": false,
                    "revertMessage": "",
                    "selector": "0xf77c4791",
                    "status": true,
                    "value": "0"
                },
                "nodeType": 0
            },
            "3": {
                "invocation": {
                    "address": "0xae7ab96520de3a18e5e111b5eaab095312d7fe84",
                    "callData": "0x0000000000000000000000004b4eec1ddc9420a5cc35a25f5899dc5993f9e586000000000000000000000000704377f719651c3ee6902ff3c9d5522e5054d42900000000000000000000000000000000000000000000000001655c40c8aabff0",
                    "decodedMethod": {
                        "callParams": [
                            {
                                "name": "sender",
                                "type": "address",
                                "value": "0x4b4eec1ddc9420a5cc35a25f5899dc5993f9e586"
                            },
                            {
                                "name": "recipient",
                                "type": "address",
                                "value": "0x704377f719651c3ee6902ff3c9d5522e5054d429"
                            },
                            {
                                "decimalAvailable": true,
                                "name": "amount",
                                "type": "uint256",
                                "value": "100,587,999,999,999,984"
                            }
                        ],
                        "constructorArguments": "",
                        "name": "transferFrom",
                        "returnParams": [
                            {
                                "name": "",
                                "type": "bool",
                                "value": true
                            }
                        ],
                        "signature": "transferFrom(address,address,uint256)"
                    },
                    "errorInfo": "",
                    "fromAddress": "0x652329cc4f00af06a8020b41846d54a439a64620",
                    "gasUsed": 50980,
                    "id": 3,
                    "methodDecoded": true,
                    "operation": "CALL",
                    "output": "0x0000000000000000000000000000000000000000000000000000000000000001",
                    "revert": false,
                    "revertMessage": "",
                    "selector": "0x23b872dd",
                    "status": true,
                    "value": "0"
                },
                "nodeType": 0
            },
            "4": {
                "invocation": {
                    "address": "0xb8ffc3cd6e7cf5a098a1c92f48009765b24088dc",
                    "callData": "0xf1f3eb40f5bc1ad1344716ced8b8a0431d840b5783aea1fd01786bc26f35ac0f3ca7c3e38968823ccb4c78ea688df41356f182ae1d159e4ee608d30d68cef320",
                    "decodedMethod": {
                        "callParams": [
                            {
                                "name": "_namespace",
                                "type": "bytes32",
                                "value": "0xf1f3eb40f5bc1ad1344716ced8b8a0431d840b5783aea1fd01786bc26f35ac0f"
                            },
                            {
                                "name": "_appId",
                                "type": "bytes32",
                                "value": "0x3ca7c3e38968823ccb4c78ea688df41356f182ae1d159e4ee608d30d68cef320"
                            }
                        ],
                        "constructorArguments": "",
                        "name": "getApp",
                        "returnParams": [
                            {
                                "name": "",
                                "type": "address",
                                "value": "0x17144556fd3424edc8fc8a4c940b2d04936d17eb"
                            }
                        ],
                        "signature": "getApp(bytes32,bytes32)"
                    },
                    "errorInfo": "",
                    "fromAddress": "0xae7ab96520de3a18e5e111b5eaab095312d7fe84",
                    "gasUsed": 8263,
                    "id": 4,
                    "methodDecoded": true,
                    "operation": "CALL",
                    "output": "0x00000000000000000000000017144556fd3424edc8fc8a4c940b2d04936d17eb",
                    "revert": false,
                    "revertMessage": "",
                    "selector": "0xbe00bbd8",
                    "status": true,
                    "value": "0"
                },
                "nodeType": 0
            },
            "5": {
                "invocation": {
                    "address": "0x2b33cf282f867a7ff693a66e11b0fcc5552e4425",
                    "callData": "0xf1f3eb40f5bc1ad1344716ced8b8a0431d840b5783aea1fd01786bc26f35ac0f3ca7c3e38968823ccb4c78ea688df41356f182ae1d159e4ee608d30d68cef320",
                    "decodedMethod": {
                        "callParams": [
                            {
                                "name": "_namespace",
                                "type": "bytes32",
                                "value": "0xf1f3eb40f5bc1ad1344716ced8b8a0431d840b5783aea1fd01786bc26f35ac0f"
                            },
                            {
                                "name": "_appId",
                                "type": "bytes32",
                                "value": "0x3ca7c3e38968823ccb4c78ea688df41356f182ae1d159e4ee608d30d68cef320"
                            }
                        ],
                        "constructorArguments": "",
                        "name": "getApp",
                        "returnParams": [
                            {
                                "name": "",
                                "type": "address",
                                "value": "0x17144556fd3424edc8fc8a4c940b2d04936d17eb"
                            }
                        ],
                        "signature": "getApp(bytes32,bytes32)"
                    },
                    "errorInfo": "",
                    "fromAddress": "0xb8ffc3cd6e7cf5a098a1c92f48009765b24088dc",
                    "gasUsed": 2820,
                    "id": 5,
                    "methodDecoded": true,
                    "operation": "DELEGATECALL",
                    "output": "0x00000000000000000000000017144556fd3424edc8fc8a4c940b2d04936d17eb",
                    "revert": false,
                    "revertMessage": "",
                    "selector": "0xbe00bbd8",
                    "status": true,
                    "value": "0"
                },
                "nodeType": 0
            },
            "6": {
                "invocation": {
                    "address": "0x17144556fd3424edc8fc8a4c940b2d04936d17eb",
                    "callData": "0x0000000000000000000000004b4eec1ddc9420a5cc35a25f5899dc5993f9e586000000000000000000000000704377f719651c3ee6902ff3c9d5522e5054d42900000000000000000000000000000000000000000000000001655c40c8aabff0",
                    "decodedMethod": {
                        "callParams": [
                            {
                                "name": "_sender",
                                "type": "address",
                                "value": "0x4b4eec1ddc9420a5cc35a25f5899dc5993f9e586"
                            },
                            {
                                "name": "_recipient",
                                "type": "address",
                                "value": "0x704377f719651c3ee6902ff3c9d5522e5054d429"
                            },
                            {
                                "decimalAvailable": true,
                                "name": "_amount",
                                "type": "uint256",
                                "value": "100,587,999,999,999,984"
                            }
                        ],
                        "constructorArguments": "",
                        "name": "transferFrom",
                        "returnParams": [
                            {
                                "name": "",
                                "type": "bool",
                                "value": true
                            }
                        ],
                        "signature": "transferFrom(address,address,uint256)"
                    },
                    "errorInfo": "",
                    "fromAddress": "0xae7ab96520de3a18e5e111b5eaab095312d7fe84",
                    "gasUsed": 32088,
                    "id": 6,
                    "methodDecoded": true,
                    "operation": "DELEGATECALL",
                    "output": "0x0000000000000000000000000000000000000000000000000000000000000001",
                    "revert": false,
                    "revertMessage": "",
                    "selector": "0x23b872dd",
                    "status": true,
                    "value": "0"
                },
                "nodeType": 0
            },
            "7": {
                "event": {
                    "contract": "0xae7ab96520de3a18e5e111b5eaab095312d7fe84",
                    "decodedLog": {
                        "name": "Transfer",
                        "params": [
                            {
                                "name": "from",
                                "type": "address",
                                "value": "0x4b4eec1ddc9420a5cc35a25f5899dc5993f9e586"
                            },
                            {
                                "name": "to",
                                "type": "address",
                                "value": "0x704377f719651c3ee6902ff3c9d5522e5054d429"
                            },
                            {
                                "decimalAvailable": true,
                                "name": "value",
                                "type": "uint256",
                                "value": "100,587,999,999,999,984"
                            }
                        ],
                        "signature": "Transfer(address,address,uint256)"
                    },
                    "id": 7,
                    "logData": "0x00000000000000000000000000000000000000000000000001655c40c8aabff0",
                    "logDecoded": true,
                    "operation": "EVENT",
                    "revert": false,
                    "status": true,
                    "topics": [
                        "0xddf252ad1be2c89b69c2b068fc378daa952ba7f163c4a11628f55a4df523b3ef",
                        "0x0000000000000000000000004b4eec1ddc9420a5cc35a25f5899dc5993f9e586",
                        "0x000000000000000000000000704377f719651c3ee6902ff3c9d5522e5054d429"
                    ]
                },
                "nodeType": 1
            },
            "8": {
                "event": {
                    "contract": "0xae7ab96520de3a18e5e111b5eaab095312d7fe84",
                    "decodedLog": {
                        "name": "TransferShares",
                        "params": [
                            {
                                "name": "from",
                                "type": "address",
                                "value": "0x4b4eec1ddc9420a5cc35a25f5899dc5993f9e586"
                            },
                            {
                                "name": "to",
                                "type": "address",
                                "value": "0x704377f719651c3ee6902ff3c9d5522e5054d429"
                            },
                            {
                                "name": "sharesValue",
                                "type": "uint256",
                                "value": "85,655,171,350,720,118"
                            }
                        ],
                        "signature": "TransferShares(address,address,uint256)"
                    },
                    "id": 8,
                    "logData": "0x00000000000000000000000000000000000000000000000001304eecad88ee76",
                    "logDecoded": true,
                    "operation": "EVENT",
                    "revert": false,
                    "status": true,
                    "topics": [
                        "0x9d9c909296d9c674451c0c24f02cb64981eb3b727f99865939192f880a755dcb",
                        "0x0000000000000000000000004b4eec1ddc9420a5cc35a25f5899dc5993f9e586",
                        "0x000000000000000000000000704377f719651c3ee6902ff3c9d5522e5054d429"
                    ]
                },
                "nodeType": 1
            },
            "9": {
                "event": {
                    "contract": "0x652329cc4f00af06a8020b41846d54a439a64620",
                    "decodedLog": {
                        "name": "Commit",
                        "params": [
                            {
                                "name": "caller",
                                "type": "address",
                                "value": "0x8ede0da4ba425ff2d08216979642287b6576d9c3"
                            },
                            {
                                "name": "amount",
                                "type": "uint256",
                                "value": "100,587,999,999,999,984"
                            }
                        ],
                        "signature": "Commit(address,uint256)"
                    },
                    "id": 9,
                    "logData": "0x",
                    "logDecoded": true,
                    "operation": "EVENT",
                    "revert": false,
                    "status": true,
                    "topics": [
                        "0x5e1dd8c4451717d5ca4ffbefdada35e22e0871220b9ed9dd03a351f0938c5ed7",
                        "0x0000000000000000000000008ede0da4ba425ff2d08216979642287b6576d9c3",
                        "0x00000000000000000000000000000000000000000000000001655c40c8aabff0"
                    ]
                },
                "nodeType": 1
            }
        },
        "gasFlame": [
            {
                "children": [
                    {
                        "children": [
                            {
                                "children": [],
                                "depth": 0,
                                "name": "Initial Gas",
                                "value": 21288
                            },
                            {
                                "children": [
                                    {
                                        "children": [],
                                        "depth": 1,
                                        "name": "deposits",
                                        "value": 2572
                                    },
                                    {
                                        "children": [],
                                        "depth": 1,
                                        "name": "controller",
                                        "value": 2403
                                    },
                                    {
                                        "children": [
                                            {
                                                "children": [
                                                    {
                                                        "children": [],
                                                        "depth": 3,
                                                        "name": "getApp",
                                                        "value": 2820
                                                    }
                                                ],
                                                "depth": 2,
                                                "name": "getApp",
                                                "value": 8263
                                            },
                                            {
                                                "children": [],
                                                "depth": 2,
                                                "name": "transferFrom",
                                                "value": 32088
                                            }
                                        ],
                                        "depth": 1,
                                        "name": "transferFrom",
                                        "value": 50980
                                    }
                                ],
                                "depth": 0,
                                "name": "Executed Gas",
                                "value": 94241
                            }
                        ],
                        "depth": -1,
                        "name": "Actual Gas Used",
                        "value": 115529
                    },
                    {
                        "children": [],
                        "depth": -1,
                        "name": "Refunded Gas",
                        "value": 0
                    }
                ],
                "depth": -2,
                "name": "Total Gas",
                "value": 115529
            }
        ],
        "isConfirmed": true,
        "mainTrace": [
            {
                "children": [
                    {
                        "children": [
                            {
                                "children": [],
                                "depth": 1,
                                "id": 1,
                                "order": 1
                            },
                            {
                                "children": [],
                                "depth": 1,
                                "id": 2,
                                "order": 2
                            },
                            {
                                "children": [
                                    {
                                        "children": [
                                            {
                                                "children": [],
                                                "depth": 3,
                                                "id": 5,
                                                "order": 5
                                            }
                                        ],
                                        "depth": 2,
                                        "id": 4,
                                        "order": 4
                                    },
                                    {
                                        "children": [
                                            {
                                                "children": [],
                                                "depth": 3,
                                                "id": 7,
                                                "order": 7
                                            },
                                            {
                                                "children": [],
                                                "depth": 3,
                                                "id": 8,
                                                "order": 8
                                            }
                                        ],
                                        "depth": 2,
                                        "id": 6,
                                        "order": 6
                                    }
                                ],
                                "depth": 1,
                                "id": 3,
                                "order": 3
                            },
                            {
                                "children": [],
                                "depth": 1,
                                "id": 9,
                                "order": 9
                            }
                        ],
                        "depth": 0,
                        "id": 0,
                        "order": 0
                    }
                ],
                "depth": -1,
                "id": -1,
                "order": -1
            }
        ],
        "mainTraceNodeCount": 10,
        "parentIdMap": {
            "0": -1,
            "1": 0,
            "2": 0,
            "3": 0,
            "4": 3,
            "5": 4,
            "6": 3,
            "7": 6,
            "8": 6,
            "9": 0
        },
        "tidyTrace": [
            {
                "children": [
                    {
                        "children": [
                            {
                                "children": [
                                    {
                                        "children": [
                                            {
                                                "children": [],
                                                "depth": 3,
                                                "id": 5,
                                                "order": 5
                                            }
                                        ],
                                        "depth": 2,
                                        "id": 4,
                                        "order": 4
                                    },
                                    {
                                        "children": [
                                            {
                                                "children": [],
                                                "depth": 3,
                                                "id": 7,
                                                "order": 7
                                            },
                                            {
                                                "children": [],
                                                "depth": 3,
                                                "id": 8,
                                                "order": 8
                                            }
                                        ],
                                        "depth": 2,
                                        "id": 6,
                                        "order": 6
                                    }
                                ],
                                "depth": 1,
                                "id": 3,
                                "order": 3
                            },
                            {
                                "children": [],
                                "depth": 1,
                                "id": 9,
                                "order": 9
                            }
                        ],
                        "depth": 0,
                        "id": 0,
                        "order": 0
                    }
                ],
                "depth": -1,
                "id": -1,
                "order": -1
            }
        ],
        "tidyTraceNodeCount": 8
    },
    "state_change": {
        "stateChanges": [
            {
                "address": "0x652329cc4f00af06a8020b41846d54a439a64620",
                "erc": "",
                "slots": [
                    {
                        "current": "0x00000000000000000000000000000000000000000000000001655c40c8aabff0",
                        "key": "0x512d87ff8fcca0aea70b93a1ef6aeac3784a6b888cfba663033194291698252f",
                        "prev": "0x0000000000000000000000000000000000000000000000000000000000000000"
                    }
                ],
                "storageVariables": [
                    {
                        "name": "committed",
                        "type": "mapping(address => uint256)",
                        "value": {
                            "pairs": [
                                {
                                    "key": "0x8ede0da4ba425ff2d08216979642287b6576d9c3",
                                    "value": {
                                        "current": "100587999999999984",
                                        "prev": "0",
                                        "typeTag": 1
                                    }
                                }
                            ],
                            "typeTag": 4
                        }
                    }
                ]
            },
            {
                "address": "0xae7ab96520de3a18e5e111b5eaab095312d7fe84",
                "erc": "",
                "slots": [
                    {
                        "current": "0x00000000000000000000000000000000000000000000002fadadfc7642c12e7c",
                        "key": "0x4d56fe6194d9d379836d021792d526fafb91b798042bbe33e987c103fd707300",
                        "prev": "0x00000000000000000000000000000000000000000000002fac7dad8995384006"
                    },
                    {
                        "current": "0x000000000000000000000000000000000000000000000cabad624229bdf16cff",
                        "key": "0x8cbb1d169ceee33384d5a3473dab1ababaa24e12bdcde2307085644d656a35d7",
                        "prev": "0x000000000000000000000000000000000000000000000cabae9291166b7a5b75"
                    }
                ],
                "storageVariables": []
            }
        ]
    }
}