{
    "balance_change": {
        "balanceChanges": [
            {
                "account": "0xa64f52663a29e002eded756a0bd96d816e9bae43",
                "assets": [
                    {
                        "address": "0x8b3192f5eebd8579568a2ed41e6feb402f93f73f",
                        "amount": "7,840,000,000",
                        "iconUrl": "",
                        "isERC1155": false,
                        "isERC721": false,
                        "sign": false,
                        "value": "697.66343"
                    },
                    {
                        "address": "0x4da08a1bff50be96bded5c7019227164b49c2bfc",
                        "amount": "2,842,769,114,988.830123124",
                        "iconUrl": "",
                        "isERC1155": false,
                        "isERC721": false,
                        "sign": true,
                        "value": "619.434253"
                    }
                ]
            },
            {
                "account": "0x5013b8c94ff2e95e8b36e3c064274b20987403f8",
                "assets": [
                    {
                        "address": "0xc02aaa39b223fe8d0a0e5c4f27ead9083c756cc2",
                        "amount": "0.15409696761726386",
                        "iconUrl": "https://assets.blocksec.com/icon/f1cb2d02c471d545bbc7722daf3277fd852d98e63d118771af7047bd8256c516.png",
                        "isERC1155": false,
                        "isERC721": false,
                        "sign": true,
                        "value": "713.7475706955541126"
                    },
                    {
                        "address": "0x4da08a1bff50be96bded5c7019227164b49c2bfc",
                        "amount": "2,842,769,114,988.830123124",
                        "iconUrl": "",
                        "isERC1155": false,
                        "isERC721": false,
                        "sign": false,
                        "value": "619.434253"
                    }
                ]
            },
            {
                "account": "0x9cbfb60a09a9a33a10312da0f39977cbdb7fde23",
                "assets": [
                    {
                        "address": "0x8b3192f5eebd8579568a2ed41e6feb402f93f73f",
                        "amount": "7,840,000,000",
                        "iconUrl": "",
                        "isERC1155": false,
                        "isERC721": false,
                        "sign": true,
                        "value": "697.66343"
                    },
                    {
                        "address": "0xc02aaa39b223fe8d0a0e5c4f27ead9083c756cc2",
                        "amount": "0.15409696761726386",
                        "iconUrl": "https://assets.blocksec.com/icon/f1cb2d02c471d545bbc7722daf3277fd852d98e63d118771af7047bd8256c516.png",
                        "isERC1155": false,
                        "isERC721": false,
                        "sign": false,
                        "value": "713.7475706955541126"
                    }
                ]
            }
        ]
    },
    "profile": {
        "basic_info": {
            "baseFee": "107.541779784",
            "blockNumber": 13556320,
            "callData": "0x5c11d7950000000000000000000000000000000000000000000000006f05b59d3b200000000000000000000000000000000000000000000000000097ff9f955f940fabef00000000000000000000000000000000000000000000000000000000000000a0000000000000000000000000a64f52663a29e002eded756a0bd96d816e9bae430000000000000000000000000000000000000000000000000000000061851c1c00000000000000000000000000000000000000000000000000000000000000030000000000000000000000008b3192f5eebd8579568a2ed41e6feb402f93f73f000000000000000000000000c02aaa39b223fe8d0a0e5c4f27ead9083c756cc20000000000000000000000004da08a1bff50be96bded5c7019227164b49c2bfc",
            "debugEnable": true,
            "errorInfo": "",
            "eventCount": 8,
            "feeRecipient": "0xea674fdde714fd979de3edf0f56aa9716b898ec8",
            "formatValue": "0",
            "gasLimit": 295525,
            "gasPrice": "108.9",
            "gasUsed": 228880,
            "intTxnCount": 15,
            "internalRevert": false,
            "internalRevertMessage": "",
            "isContractCreation": false,
            "isFlashloan": false,
            "maxFee": "",
            "nonce": 5,
            "overwritedBlockNumber": -1,
            "priorityFee": "",
            "receiver": "0x7a250d5630b4cf539739df2c5dacb4c659f2488d",
            "revertMessage": "",
            "sender": "0xa64f52663a29e002eded756a0bd96d816e9bae43",
            "simulationEnable": true,
            "sourceTxnHash": "0x17fc5ace233208360bef64bd9d22f237a14776f080e1198707e9e44dc2020f34",
            "status": true,
            "timestamp": "2021-11-05T11:28:28Z",
            "transactionFee": "0.024925032",
            "txnHash": "0x17fc5ace233208360bef64bd9d22f237a14776f080e1198707e9e44dc2020f34",
            "txnIndex": 187,
            "type": 0,
            "value": "0"
        },
        "fund_flow": [
            {
                "amount": "7,840,000,000",
                "from": "0xa64f52663a29e002eded756a0bd96d816e9bae43",
                "id": 1,
                "isERC1155": false,
                "isERC721": false,
                "isReverted": false,
                "order": 1,
                "to": "0x9cbfb60a09a9a33a10312da0f39977cbdb7fde23",
                "token": "0x8b3192f5eebd8579568a2ed41e6feb402f93f73f"
            },
            {
                "amount": "0.15409696761726386",
                "from": "0x9cbfb60a09a9a33a10312da0f39977cbdb7fde23",
                "id": 2,
                "isERC1155": false,
                "isERC721": false,
                "isReverted": false,
                "order": 2,
                "to": "0x5013b8c94ff2e95e8b36e3c064274b20987403f8",
                "token": "0xc02aaa39b223fe8d0a0e5c4f27ead9083c756cc2"
            },
            {
                "amount": "2,842,769,114,988.830123124",
                "from": "0x5013b8c94ff2e95e8b36e3c064274b20987403f8",
                "id": 3,
                "isERC1155": false,
                "isERC721": false,
                "isReverted": false,
                "order": 3,
                "to": "0xa64f52663a29e002eded756a0bd96d816e9bae43",
                "token": "0x4da08a1bff50be96bded5c7019227164b49c2bfc"
            }
        ],
        "token_infos": [
            {
                "address": "0x4da08a1bff50be96bded5c7019227164b49c2bfc",
                "decimals": 9
            },
            {
                "address": "0x8b3192f5eebd8579568a2ed41e6feb402f93f73f",
                "decimals": 9
            },
            {
                "address": "0xc02aaa39b223fe8d0a0e5c4f27ead9083c756cc2",
                "decimals": 18
            },
            {
                "address": "0xeeeeeeeeeeeeeeeeeeeeeeeeeeeeeeeeeeeeeeee",
                "decimals": 18
            }
        ]
    },
    "address_label": {
        "labels": [
            {
                "address": "0x8b3192f5eebd8579568a2ed41e6feb402f93f73f",
                "label": "Saitama Inu: Old SAITAMA Token"
            },
            {
                "address": "0x0000000000000000000000000000000000000002",
                "label": "Precompiled"
            },
            {
                "address": "0x0000000000000000000000000000000000000004",
                "label": "Precompiled"
            },
            {
                "address": "0x4da08a1bff50be96bded5c7019227164b49c2bfc",
                "label": "Mononoke Inu: Mononoke-Inu Token"
            },
            {
                "address": "0x7a250d5630b4cf539739df2c5dacb4c659f2488d",
                "label": "Uniswap V2: Router 2"
            },
            {
                "address": "0xc02aaa39b223fe8d0a0e5c4f27ead9083c756cc2",
                "label": "Wrapped Ether (WETH)"
            },
            {
                "address": "0x5013b8c94ff2e95e8b36e3c064274b20987403f8",
                "label": "Uniswap V2: Mononoke-Inu"
            },
            {
                "address": "0x9cbfb60a09a9a33a10312da0f39977cbdb7fde23",
                "label": "Uniswap V2: SAITAMA"
            },
            {
                "address": "0x0000000000000000000000000000000000000001",
                "label": "Precompiled"
            },
            {
                "address": "0x0000000000000000000000000000000000000003",
                "label": "Precompiled"
            },
            {
                "address": "0xeeeeeeeeeeeeeeeeeeeeeeeeeeeeeeeeeeeeeeee",
                "label": "Ether"
            }
        ]
    },
    "trace": {
        "accountLabels": null,
        "dataMap": {
            "-1": {
                "invocation": {
                    "address": "0xa64f52663a29e002eded756a0bd96d816e9bae43",
                    "callData": "",
                    "decodedMethod": null,
                    "errorInfo": "",
                    "fromAddress": "",
                    "gasUsed": 0,
                    "id": -1,
                    "methodDecoded": false,
                    "operation": "",
                    "output": "",
                    "revert": false,
                    "revertMessage": "",
                    "selector": "",
                    "status": false,
                    "value": ""
                },
                "nodeType": 0
            },
            "0": {
                "invocation": {
                    "address": "0x7a250d5630b4cf539739df2c5dacb4c659f2488d",
                    "callData": "0x0000000000000000000000000000000000000000000000006f05b59d3b200000000000000000000000000000000000000000000000000097ff9f955f940fabef00000000000000000000000000000000000000000000000000000000000000a0000000000000000000000000a64f52663a29e002eded756a0bd96d816e9bae430000000000000000000000000000000000000000000000000000000061851c1c00000000000000000000000000000000000000000000000000000000000000030000000000000000000000008b3192f5eebd8579568a2ed41e6feb402f93f73f000000000000000000000000c02aaa39b223fe8d0a0e5c4f27ead9083c756cc20000000000000000000000004da08a1bff50be96bded5c7019227164b49c2bfc",
                    "decodedMethod": {
                        "callParams": [
                            {
                                "name": "amountIn",
                                "type": "uint256",
                                "value": "8,000,000,000,000,000,000"
                            },
                            {
                                "name": "amountOutMin",
                                "type": "uint256",
                                "value": "2,803,877,960,368,849,398,767"
                            },
                            {
                                "name": "path",
                                "type": "address[]",
                                "value": [
                                    "0x8b3192f5eebd8579568a2ed41e6feb402f93f73f",
                                    "0xc02aaa39b223fe8d0a0e5c4f27ead9083c756cc2",
                                    "0x4da08a1bff50be96bded5c7019227164b49c2bfc"
                                ]
                            },
                            {
                                "name": "to",
                                "type": "address",
                                "value": "0xa64f52663a29e002eded756a0bd96d816e9bae43"
                            },
                            {
                                "name": "deadline",
                                "type": "uint256",
                                "value": "1,636,113,436"
                            }
                        ],
                        "constructorArguments": "",
                        "name": "swapExactTokensForTokensSupportingFeeOnTransferTokens",
                        "returnParams": [],
                        "signature": "swapExactTokensForTokensSupportingFeeOnTransferTokens(uint256,uint256,address[],address,uint256)"
                    },
                    "errorInfo": "",
                    "fromAddress": "0xa64f52663a29e002eded756a0bd96d816e9bae43",
                    "gasUsed": 228880,
                    "id": 0,
                    "methodDecoded": true,
                    "operation": "CALL",
                    "output": "",
                    "revert": false,
                    "revertMessage": "",
                    "selector": "0x5c11d795",
                    "status": true,
                    "value": "0"
                },
                "nodeType": 0
            },
            "1": {
                "invocation": {
                    "address": "0x8b3192f5eebd8579568a2ed41e6feb402f93f73f",
                    "callData": "0x000000000000000000000000a64f52663a29e002eded756a0bd96d816e9bae430000000000000000000000009cbfb60a09a9a33a10312da0f39977cbdb7fde230000000000000000000000000000000000000000000000006f05b59d3b200000",
                    "decodedMethod": {
                        "callParams": [
                            {
                                "name": "sender",
                                "type": "address",
                                "value": "0xa64f52663a29e002eded756a0bd96d816e9bae43"
                            },
                            {
                                "name": "recipient",
                                "type": "address",
                                "value": "0x9cbfb60a09a9a33a10312da0f39977cbdb7fde23"
                            },
                            {
                                "decimalAvailable": true,
                                "name": "amount",
                                "type": "uint256",
                                "value": "8,000,000,000,000,000,000"
                            }
                        ],
                        "constructorArguments": "",
                        "name": "transferFrom",
                        "returnParams": [
                            {
                                "name": "",
                                "type": "bool",
                                "value": true
                            }
                        ],
                        "signature": "transferFrom(address,address,uint256)"
                    },
                    "errorInfo": "",
                    "fromAddress": "0x7a250d5630b4cf539739df2c5dacb4c659f2488d",
                    "gasUsed": 45481,
                    "id": 1,
                    "methodDecoded": true,
                    "operation": "CALL",
                    "output": "0x0000000000000000000000000000000000000000000000000000000000000001",
                    "revert": false,
                    "revertMessage": "",
                    "selector": "0x23b872dd",
                    "status": true,
                    "value": "0"
                },
                "nodeType": 0
            },
            "10": {
                "invocation": {
                    "address": "0x8b3192f5eebd8579568a2ed41e6feb402f93f73f",
                    "callData": "0x0000000000000000000000009cbfb60a09a9a33a10312da0f39977cbdb7fde23",
                    "decodedMethod": {
                        "callParams": [
                            {
                                "name": "account",
                                "type": "address",
                                "value": "0x9cbfb60a09a9a33a10312da0f39977cbdb7fde23"
                            }
                        ],
                        "constructorArguments": "",
                        "name": "balanceOf",
                        "returnParams": [
                            {
                                "decimalAvailable": true,
                                "name": "",
                                "type": "uint256",
                                "value": "178,001,978,241,017,852,005,515"
                            }
                        ],
                        "signature": "balanceOf(address)"
                    },
                    "errorInfo": "",
                    "fromAddress": "0x9cbfb60a09a9a33a10312da0f39977cbdb7fde23",
                    "gasUsed": 2272,
                    "id": 10,
                    "methodDecoded": true,
                    "operation": "STATICCALL",
                    "output": "0x0000000000000000000000000000000000000000000025b181aef34e486d0c8b",
                    "revert": false,
                    "revertMessage": "",
                    "selector": "0x70a08231",
                    "status": true,
                    "value": "0"
                },
                "nodeType": 0
            },
            "11": {
                "invocation": {
                    "address": "0xc02aaa39b223fe8d0a0e5c4f27ead9083c756cc2",
                    "callData": "0x0000000000000000000000009cbfb60a09a9a33a10312da0f39977cbdb7fde23",
                    "decodedMethod": {
                        "callParams": [
                            {
                                "name": "",
                                "type": "address",
                                "value": "0x9cbfb60a09a9a33a10312da0f39977cbdb7fde23"
                            }
                        ],
                        "constructorArguments": "",
                        "name": "balanceOf",
                        "returnParams": [
                            {
                                "decimalAvailable": true,
                                "name": "",
                                "type": "uint256",
                                "value": "3,508,914,570,340,554,804,840"
                            }
                        ],
                        "signature": "balanceOf(address)"
                    },
                    "errorInfo": "",
                    "fromAddress": "0x9cbfb60a09a9a33a10312da0f39977cbdb7fde23",
                    "gasUsed": 534,
                    "id": 11,
                    "methodDecoded": true,
                    "operation": "STATICCALL",
                    "output": "0x0000000000000000000000000000000000000000000000be37f8cab2d5308e68",
                    "revert": false,
                    "revertMessage": "",
                    "selector": "0x70a08231",
                    "status": true,
                    "value": "0"
                },
                "nodeType": 0
            },
            "12": {
                "event": {
                    "contract": "0x9cbfb60a09a9a33a10312da0f39977cbdb7fde23",
                    "decodedLog": {
                        "name": "Sync",
                        "params": [
                            {
                                "name": "reserve0",
                                "type": "uint112",
                                "value": "178,001,978,241,017,852,005,515"
                            },
                            {
                                "name": "reserve1",
                                "type": "uint112",
                                "value": "3,508,914,570,340,554,804,840"
                            }
                        ],
                        "signature": "Sync(uint112,uint112)"
                    },
                    "id": 12,
                    "logData": "0x0000000000000000000000000000000000000000000025b181aef34e486d0c8b0000000000000000000000000000000000000000000000be37f8cab2d5308e68",
                    "logDecoded": true,
                    "operation": "EVENT",
                    "revert": false,
                    "status": true,
                    "topics": [
                        "0x1c411e9a96e071241c2f21f7726b17ae89e3cab4c78be50e062b03a9fffbbad1"
                    ]
                },
                "nodeType": 1
            },
            "13": {
                "event": {
                    "contract": "0x9cbfb60a09a9a33a10312da0f39977cbdb7fde23",
                    "decodedLog": {
                        "name": "Swap",
                        "params": [
                            {
                                "name": "sender",
                                "type": "address",
                                "value": "0x7a250d5630b4cf539739df2c5dacb4c659f2488d"
                            },
                            {
                                "name": "to",
                                "type": "address",
                                "value": "0x5013b8c94ff2e95e8b36e3c064274b20987403f8"
                            },
                            {
                                "name": "amount0In",
                                "type": "uint256",
                                "value": "7,840,284,803,165,185,629"
                            },
                            {
                                "name": "amount1In",
                                "type": "uint256",
                                "value": "0"
                            },
                            {
                                "name": "amount0Out",
                                "type": "uint256",
                                "value": "0"
                            },
                            {
                                "name": "amount1Out",
                                "type": "uint256",
                                "value": "154,096,967,617,263,860"
                            }
                        ],
                        "signature": "Swap(address,uint256,uint256,uint256,uint256,address)"
                    },
                    "id": 13,
                    "logData": "0x0000000000000000000000000000000000000000000000006cce497d268de65d000000000000000000000000000000000000000000000000000000000000000000000000000000000000000000000000000000000000000000000000000000000000000000000000000000000000000000000000000000000223766027cab8f4",
                    "logDecoded": true,
                    "operation": "EVENT",
                    "revert": false,
                    "status": true,
                    "topics": [
                        "0xd78ad95fa46c994b6551d0da85fc275fe613ce37657fb8d5e3d130840159d822",
                        "0x0000000000000000000000007a250d5630b4cf539739df2c5dacb4c659f2488d",
                        "0x0000000000000000000000005013b8c94ff2e95e8b36e3c064274b20987403f8"
                    ]
                },
                "nodeType": 1
            },
            "14": {
                "invocation": {
                    "address": "0x5013b8c94ff2e95e8b36e3c064274b20987403f8",
                    "callData": "0x",
                    "decodedMethod": {
                        "callParams": [],
                        "constructorArguments": "",
                        "name": "getReserves",
                        "returnParams": [
                            {
                                "name": "_reserve0",
                                "type": "uint112",
                                "value": "6,385,200,486,374,320,184,381,757"
                            },
                            {
                                "name": "_reserve1",
                                "type": "uint112",
                                "value": "310,420,089,576,024,247,278"
                            },
                            {
                                "name": "_blockTimestampLast",
                                "type": "uint32",
                                "value": "1,636,111,708"
                            }
                        ],
                        "signature": "getReserves()"
                    },
                    "errorInfo": "",
                    "fromAddress": "0x7a250d5630b4cf539739df2c5dacb4c659f2488d",
                    "gasUsed": 2504,
                    "id": 14,
                    "methodDecoded": true,
                    "operation": "STATICCALL",
                    "output": "0x00000000000000000000000000000000000000000005481e6975d35e6136513d000000000000000000000000000000000000000000000010d3f1b2cb13dd0bee000000000000000000000000000000000000000000000000000000006185155c",
                    "revert": false,
                    "revertMessage": "",
                    "selector": "0x0902f1ac",
                    "status": true,
                    "value": "0"
                },
                "nodeType": 0
            },
            "15": {
                "invocation": {
                    "address": "0xc02aaa39b223fe8d0a0e5c4f27ead9083c756cc2",
                    "callData": "0x0000000000000000000000005013b8c94ff2e95e8b36e3c064274b20987403f8",
                    "decodedMethod": {
                        "callParams": [
                            {
                                "name": "",
                                "type": "address",
                                "value": "0x5013b8c94ff2e95e8b36e3c064274b20987403f8"
                            }
                        ],
                        "constructorArguments": "",
                        "name": "balanceOf",
                        "returnParams": [
                            {
                                "decimalAvailable": true,
                                "name": "",
                                "type": "uint256",
                                "value": "310,574,186,543,641,511,138"
                            }
                        ],
                        "signature": "balanceOf(address)"
                    },
                    "errorInfo": "",
                    "fromAddress": "0x7a250d5630b4cf539739df2c5dacb4c659f2488d",
                    "gasUsed": 534,
                    "id": 15,
                    "methodDecoded": true,
                    "operation": "STATICCALL",
                    "output": "0x000000000000000000000000000000000000000000000010d615292b3ba7c4e2",
                    "revert": false,
                    "revertMessage": "",
                    "selector": "0x70a08231",
                    "status": true,
                    "value": "0"
                },
                "nodeType": 0
            },
            "16": {
                "invocation": {
                    "address": "0x5013b8c94ff2e95e8b36e3c064274b20987403f8",
                    "callData": "0x0000000000000000000000000000000000000000000000ab3ad45b298b8f6f9c0000000000000000000000000000000000000000000000000000000000000000000000000000000000000000a64f52663a29e002eded756a0bd96d816e9bae4300000000000000000000000000000000000000000000000000000000000000800000000000000000000000000000000000000000000000000000000000000000",
                    "decodedMethod": {
                        "callParams": [
                            {
                                "name": "amount0Out",
                                "type": "uint256",
                                "value": "3,158,632,349,987,589,025,692"
                            },
                            {
                                "name": "amount1Out",
                                "type": "uint256",
                                "value": "0"
                            },
                            {
                                "name": "to",
                                "type": "address",
                                "value": "0xa64f52663a29e002eded756a0bd96d816e9bae43"
                            },
                            {
                                "name": "data",
                                "type": "bytes",
                                "value": "0x"
                            }
                        ],
                        "constructorArguments": "",
                        "name": "swap",
                        "returnParams": [],
                        "signature": "swap(uint256,uint256,address,bytes)"
                    },
                    "errorInfo": "",
                    "fromAddress": "0x7a250d5630b4cf539739df2c5dacb4c659f2488d",
                    "gasUsed": 89971,
                    "id": 16,
                    "methodDecoded": true,
                    "operation": "CALL",
                    "output": "",
                    "revert": false,
                    "revertMessage": "",
                    "selector": "0x022c0d9f",
                    "status": true,
                    "value": "0"
                },
                "nodeType": 0
            },
            "17": {
                "invocation": {
                    "address": "0x4da08a1bff50be96bded5c7019227164b49c2bfc",
                    "callData": "0x000000000000000000000000a64f52663a29e002eded756a0bd96d816e9bae430000000000000000000000000000000000000000000000ab3ad45b298b8f6f9c",
                    "decodedMethod": {
                        "callParams": [
                            {
                                "name": "recipient",
                                "type": "address",
                                "value": "0xa64f52663a29e002eded756a0bd96d816e9bae43"
                            },
                            {
                                "decimalAvailable": true,
                                "name": "amount",
                                "type": "uint256",
                                "value": "3,158,632,349,987,589,025,692"
                            }
                        ],
                        "constructorArguments": "",
                        "name": "transfer",
                        "returnParams": [
                            {
                                "name": "",
                                "type": "bool",
                                "value": true
                            }
                        ],
                        "signature": "transfer(address,uint256)"
                    },
                    "errorInfo": "",
                    "fromAddress": "0x5013b8c94ff2e95e8b36e3c064274b20987403f8",
                    "gasUsed": 66834,
                    "id": 17,
                    "methodDecoded": true,
                    "operation": "CALL",
                    "output": "0x0000000000000000000000000000000000000000000000000000000000000001",
                    "revert": false,
                    "revertMessage": "",
                    "selector": "0xa9059cbb",
                    "status": true,
                    "value": "0"
                },
                "nodeType": 0
            },
            "18": {
                "event": {
                    "contract": "0x4da08a1bff50be96bded5c7019227164b49c2bfc",
                    "decodedLog": {
                        "name": "Transfer",
                        "params": [
                            {
                                "name": "from",
                                "type": "address",
                                "value": "0x5013b8c94ff2e95e8b36e3c064274b20987403f8"
                            },
                            {
                                "name": "to",
                                "type": "address",
                                "value": "0xa64f52663a29e002eded756a0bd96d816e9bae43"
                            },
                            {
                                "decimalAvailable": true,
                                "name": "value",
                                "type": "uint256",
                                "value": "2,842,769,114,988,830,123,124"
                            }
                        ],
                        "signature": "Transfer(address,address,uint256)"
                    },
                    "id": 18,
                    "logData": "0x00000000000000000000000000000000000000000000009a1b58b87230cde474",
                    "logDecoded": true,
                    "operation": "EVENT",
                    "revert": false,
                    "status": true,
                    "topics": [
                        "0xddf252ad1be2c89b69c2b068fc378daa952ba7f163c4a11628f55a4df523b3ef",
                        "0x0000000000000000000000005013b8c94ff2e95e8b36e3c064274b20987403f8",
                        "0x000000000000000000000000a64f52663a29e002eded756a0bd96d816e9bae43"
                    ]
                },
                "nodeType": 1
            },
            "19": {
                "invocation": {
                    "address": "0x4da08a1bff50be96bded5c7019227164b49c2bfc",
                    "callData": "0x0000000000000000000000005013b8c94ff2e95e8b36e3c064274b20987403f8",
                    "decodedMethod": {
                        "callParams": [
                            {
                                "name": "account",
                                "type": "address",
                                "value": "0x5013b8c94ff2e95e8b36e3c064274b20987403f8"
                            }
                        ],
                        "constructorArguments": "",
                        "name": "balanceOf",
                        "returnParams": [
                            {
                                "decimalAvailable": true,
                                "name": "",
                                "type": "uint256",
                                "value": "6,382,042,055,609,577,553,653,098"
                            }
                        ],
                        "signature": "balanceOf(address)"
                    },
                    "errorInfo": "",
                    "fromAddress": "0x5013b8c94ff2e95e8b36e3c064274b20987403f8",
                    "gasUsed": 1699,
                    "id": 19,
                    "methodDecoded": true,
                    "operation": "STATICCALL",
                    "output": "0x000000000000000000000000000000000000000000054773316da4eb2b59ed6a",
                    "revert": false,
                    "revertMessage": "",
                    "selector": "0x70a08231",
                    "status": true,
                    "value": "0"
                },
                "nodeType": 0
            },
            "2": {
                "event": {
                    "contract": "0x8b3192f5eebd8579568a2ed41e6feb402f93f73f",
                    "decodedLog": {
                        "name": "Transfer",
                        "params": [
                            {
                                "name": "from",
                                "type": "address",
                                "value": "0xa64f52663a29e002eded756a0bd96d816e9bae43"
                            },
                            {
                                "name": "to",
                                "type": "address",
                                "value": "0x9cbfb60a09a9a33a10312da0f39977cbdb7fde23"
                            },
                            {
                                "decimalAvailable": true,
                                "name": "value",
                                "type": "uint256",
                                "value": "7,840,000,000,000,000,000"
                            }
                        ],
                        "signature": "Transfer(address,address,uint256)"
                    },
                    "id": 2,
                    "logData": "0x0000000000000000000000000000000000000000000000006ccd46763f100000",
                    "logDecoded": true,
                    "operation": "EVENT",
                    "revert": false,
                    "status": true,
                    "topics": [
                        "0xddf252ad1be2c89b69c2b068fc378daa952ba7f163c4a11628f55a4df523b3ef",
                        "0x000000000000000000000000a64f52663a29e002eded756a0bd96d816e9bae43",
                        "0x0000000000000000000000009cbfb60a09a9a33a10312da0f39977cbdb7fde23"
                    ]
                },
                "nodeType": 1
            },
            "20": {
                "invocation": {
                    "address": "0xc02aaa39b223fe8d0a0e5c4f27ead9083c756cc2",
                    "callData": "0x0000000000000000000000005013b8c94ff2e95e8b36e3c064274b20987403f8",
                    "decodedMethod": {
                        "callParams": [
                            {
                                "name": "",
                                "type": "address",
                                "value": "0x5013b8c94ff2e95e8b36e3c064274b20987403f8"
                            }
                        ],
                        "constructorArguments": "",
                        "name": "balanceOf",
                        "returnParams": [
                            {
                                "decimalAvailable": true,
                                "name": "",
                                "type": "uint256",
                                "value": "310,574,186,543,641,511,138"
                            }
                        ],
                        "signature": "balanceOf(address)"
                    },
                    "errorInfo": "",
                    "fromAddress": "0x5013b8c94ff2e95e8b36e3c064274b20987403f8",
                    "gasUsed": 534,
                    "id": 20,
                    "methodDecoded": true,
                    "operation": "STATICCALL",
                    "output": "0x000000000000000000000000000000000000000000000010d615292b3ba7c4e2",
                    "revert": false,
                    "revertMessage": "",
                    "selector": "0x70a08231",
                    "status": true,
                    "value": "0"
                },
                "nodeType": 0
            },
            "21": {
                "event": {
                    "contract": "0x5013b8c94ff2e95e8b36e3c064274b20987403f8",
                    "decodedLog": {
                        "name": "Sync",
                        "params": [
                            {
                                "name": "reserve0",
                                "type": "uint112",
                                "value": "6,382,042,055,609,577,553,653,098"
                            },
                            {
                                "name": "reserve1",
                                "type": "uint112",
                                "value": "310,574,186,543,641,511,138"
                            }
                        ],
                        "signature": "Sync(uint112,uint112)"
                    },
                    "id": 21,
                    "logData": "0x000000000000000000000000000000000000000000054773316da4eb2b59ed6a000000000000000000000000000000000000000000000010d615292b3ba7c4e2",
                    "logDecoded": true,
                    "operation": "EVENT",
                    "revert": false,
                    "status": true,
                    "topics": [
                        "0x1c411e9a96e071241c2f21f7726b17ae89e3cab4c78be50e062b03a9fffbbad1"
                    ]
                },
                "nodeType": 1
            },
            "22": {
                "event": {
                    "contract": "0x5013b8c94ff2e95e8b36e3c064274b20987403f8",
                    "decodedLog": {
                        "name": "Swap",
                        "params": [
                            {
                                "name": "sender",
                                "type": "address",
                                "value": "0x7a250d5630b4cf539739df2c5dacb4c659f2488d"
                            },
                            {
                                "name": "to",
                                "type": "address",
                                "value": "0xa64f52663a29e002eded756a0bd96d816e9bae43"
                            },
                            {
                                "name": "amount0In",
                                "type": "uint256",
                                "value": "201,585,244,958,297,033"
                            },
                            {
                                "name": "amount1In",
                                "type": "uint256",
                                "value": "154,096,967,617,263,860"
                            },
                            {
                                "name": "amount0Out",
                                "type": "uint256",
                                "value": "3,158,632,349,987,589,025,692"
                            },
                            {
                                "name": "amount1Out",
                                "type": "uint256",
                                "value": "0"
                            }
                        ],
                        "signature": "Swap(address,uint256,uint256,uint256,uint256,address)"
                    },
                    "id": 22,
                    "logData": "0x00000000000000000000000000000000000000000000000002cc2cb655b30bc90000000000000000000000000000000000000000000000000223766027cab8f40000000000000000000000000000000000000000000000ab3ad45b298b8f6f9c0000000000000000000000000000000000000000000000000000000000000000",
                    "logDecoded": true,
                    "operation": "EVENT",
                    "revert": false,
                    "status": true,
                    "topics": [
                        "0xd78ad95fa46c994b6551d0da85fc275fe613ce37657fb8d5e3d130840159d822",
                        "0x0000000000000000000000007a250d5630b4cf539739df2c5dacb4c659f2488d",
                        "0x000000000000000000000000a64f52663a29e002eded756a0bd96d816e9bae43"
                    ]
                },
                "nodeType": 1
            },
            "23": {
                "invocation": {
                    "address": "0x4da08a1bff50be96bded5c7019227164b49c2bfc",
                    "callData": "0x000000000000000000000000a64f52663a29e002eded756a0bd96d816e9bae43",
                    "decodedMethod": {
                        "callParams": [
                            {
                                "name": "account",
                                "type": "address",
                                "value": "0xa64f52663a29e002eded756a0bd96d816e9bae43"
                            }
                        ],
                        "constructorArguments": "",
                        "name": "balanceOf",
                        "returnParams": [
                            {
                                "decimalAvailable": true,
                                "name": "",
                                "type": "uint256",
                                "value": "2,842,769,204,781,457,860,836"
                            }
                        ],
                        "signature": "balanceOf(address)"
                    },
                    "errorInfo": "",
                    "fromAddress": "0x7a250d5630b4cf539739df2c5dacb4c659f2488d",
                    "gasUsed": 1699,
                    "id": 23,
                    "methodDecoded": true,
                    "operation": "STATICCALL",
                    "output": "0x00000000000000000000000000000000000000000000009a1b590a1caa7be8e4",
                    "revert": false,
                    "revertMessage": "",
                    "selector": "0x70a08231",
                    "status": true,
                    "value": "0"
                },
                "nodeType": 0
            },
            "3": {
                "event": {
                    "contract": "0x8b3192f5eebd8579568a2ed41e6feb402f93f73f",
                    "decodedLog": {
                        "name": "Approval",
                        "params": [
                            {
                                "name": "owner",
                                "type": "address",
                                "value": "0xa64f52663a29e002eded756a0bd96d816e9bae43"
                            },
                            {
                                "name": "spender",
                                "type": "address",
                                "value": "0x7a250d5630b4cf539739df2c5dacb4c659f2488d"
                            },
                            {
                                "decimalAvailable": true,
                                "name": "value",
                                "type": "uint256",
                                "value": "115,792,089,237,316,195,423,570,985,008,687,907,853,269,984,665,640,564,039,439,584,007,913,129,639,935"
                            }
                        ],
                        "signature": "Approval(address,address,uint256)"
                    },
                    "id": 3,
                    "logData": "0xffffffffffffffffffffffffffffffffffffffffffffffff0633275e3af7ffff",
                    "logDecoded": true,
                    "operation": "EVENT",
                    "revert": false,
                    "status": true,
                    "topics": [
                        "0x8c5be1e5ebec7d5bd14f71427d1e84f3dd0314c0f7b2291e5b200ac8c7c3b925",
                        "0x000000000000000000000000a64f52663a29e002eded756a0bd96d816e9bae43",
                        "0x0000000000000000000000007a250d5630b4cf539739df2c5dacb4c659f2488d"
                    ]
                },
                "nodeType": 1
            },
            "4": {
                "invocation": {
                    "address": "0x4da08a1bff50be96bded5c7019227164b49c2bfc",
                    "callData": "0x000000000000000000000000a64f52663a29e002eded756a0bd96d816e9bae43",
                    "decodedMethod": {
                        "callParams": [
                            {
                                "name": "account",
                                "type": "address",
                                "value": "0xa64f52663a29e002eded756a0bd96d816e9bae43"
                            }
                        ],
                        "constructorArguments": "",
                        "name": "balanceOf",
                        "returnParams": [
                            {
                                "decimalAvailable": true,
                                "name": "",
                                "type": "uint256",
                                "value": "0"
                            }
                        ],
                        "signature": "balanceOf(address)"
                    },
                    "errorInfo": "",
                    "fromAddress": "0x7a250d5630b4cf539739df2c5dacb4c659f2488d",
                    "gasUsed": 5699,
                    "id": 4,
                    "methodDecoded": true,
                    "operation": "STATICCALL",
                    "output": "0x0000000000000000000000000000000000000000000000000000000000000000",
                    "revert": false,
                    "revertMessage": "",
                    "selector": "0x70a08231",
                    "status": true,
                    "value": "0"
                },
                "nodeType": 0
            },
            "5": {
                "invocation": {
                    "address": "0x9cbfb60a09a9a33a10312da0f39977cbdb7fde23",
                    "callData": "0x",
                    "decodedMethod": {
                        "callParams": [],
                        "constructorArguments": "",
                        "name": "getReserves",
                        "returnParams": [
                            {
                                "name": "_reserve0",
                                "type": "uint112",
                                "value": "177,994,137,956,214,686,819,886"
                            },
                            {
                                "name": "_reserve1",
                                "type": "uint112",
                                "value": "3,509,068,667,308,172,068,700"
                            },
                            {
                                "name": "_blockTimestampLast",
                                "type": "uint32",
                                "value": "1,636,111,708"
                            }
                        ],
                        "signature": "getReserves()"
                    },
                    "errorInfo": "",
                    "fromAddress": "0x7a250d5630b4cf539739df2c5dacb4c659f2488d",
                    "gasUsed": 2504,
                    "id": 5,
                    "methodDecoded": true,
                    "operation": "STATICCALL",
                    "output": "0x0000000000000000000000000000000000000000000025b114e0a9d121df262e0000000000000000000000000000000000000000000000be3a1c4112fcfb475c000000000000000000000000000000000000000000000000000000006185155c",
                    "revert": false,
                    "revertMessage": "",
                    "selector": "0x0902f1ac",
                    "status": true,
                    "value": "0"
                },
                "nodeType": 0
            },
            "6": {
                "invocation": {
                    "address": "0x8b3192f5eebd8579568a2ed41e6feb402f93f73f",
                    "callData": "0x0000000000000000000000009cbfb60a09a9a33a10312da0f39977cbdb7fde23",
                    "decodedMethod": {
                        "callParams": [
                            {
                                "name": "account",
                                "type": "address",
                                "value": "0x9cbfb60a09a9a33a10312da0f39977cbdb7fde23"
                            }
                        ],
                        "constructorArguments": "",
                        "name": "balanceOf",
                        "returnParams": [
                            {
                                "decimalAvailable": true,
                                "name": "",
                                "type": "uint256",
                                "value": "178,001,978,241,017,852,005,515"
                            }
                        ],
                        "signature": "balanceOf(address)"
                    },
                    "errorInfo": "",
                    "fromAddress": "0x7a250d5630b4cf539739df2c5dacb4c659f2488d",
                    "gasUsed": 2272,
                    "id": 6,
                    "methodDecoded": true,
                    "operation": "STATICCALL",
                    "output": "0x0000000000000000000000000000000000000000000025b181aef34e486d0c8b",
                    "revert": false,
                    "revertMessage": "",
                    "selector": "0x70a08231",
                    "status": true,
                    "value": "0"
                },
                "nodeType": 0
            },
            "7": {
                "invocation": {
                    "address": "0x9cbfb60a09a9a33a10312da0f39977cbdb7fde23",
                    "callData": "0x00000000000000000000000000000000000000000000000000000000000000000000000000000000000000000000000000000000000000000223766027cab8f40000000000000000000000005013b8c94ff2e95e8b36e3c064274b20987403f800000000000000000000000000000000000000000000000000000000000000800000000000000000000000000000000000000000000000000000000000000000",
                    "decodedMethod": {
                        "callParams": [
                            {
                                "name": "amount0Out",
                                "type": "uint256",
                                "value": "0"
                            },
                            {
                                "name": "amount1Out",
                                "type": "uint256",
                                "value": "154,096,967,617,263,860"
                            },
                            {
                                "name": "to",
                                "type": "address",
                                "value": "0x5013b8c94ff2e95e8b36e3c064274b20987403f8"
                            },
                            {
                                "name": "data",
                                "type": "bytes",
                                "value": "0x"
                            }
                        ],
                        "constructorArguments": "",
                        "name": "swap",
                        "returnParams": [],
                        "signature": "swap(uint256,uint256,address,bytes)"
                    },
                    "errorInfo": "",
                    "fromAddress": "0x7a250d5630b4cf539739df2c5dacb4c659f2488d",
                    "gasUsed": 39075,
                    "id": 7,
                    "methodDecoded": true,
                    "operation": "CALL",
                    "output": "",
                    "revert": false,
                    "revertMessage": "",
                    "selector": "0x022c0d9f",
                    "status": true,
                    "value": "0"
                },
                "nodeType": 0
            },
            "8": {
                "invocation": {
                    "address": "0xc02aaa39b223fe8d0a0e5c4f27ead9083c756cc2",
                    "callData": "0x0000000000000000000000005013b8c94ff2e95e8b36e3c064274b20987403f80000000000000000000000000000000000000000000000000223766027cab8f4",
                    "decodedMethod": {
                        "callParams": [
                            {
                                "name": "dst",
                                "type": "address",
                                "value": "0x5013b8c94ff2e95e8b36e3c064274b20987403f8"
                            },
                            {
                                "decimalAvailable": true,
                                "name": "wad",
                                "type": "uint256",
                                "value": "154,096,967,617,263,860"
                            }
                        ],
                        "constructorArguments": "",
                        "name": "transfer",
                        "returnParams": [
                            {
                                "name": "",
                                "type": "bool",
                                "value": true
                            }
                        ],
                        "signature": "transfer(address,uint256)"
                    },
                    "errorInfo": "",
                    "fromAddress": "0x9cbfb60a09a9a33a10312da0f39977cbdb7fde23",
                    "gasUsed": 12862,
                    "id": 8,
                    "methodDecoded": true,
                    "operation": "CALL",
                    "output": "0x0000000000000000000000000000000000000000000000000000000000000001",
                    "revert": false,
                    "revertMessage": "",
                    "selector": "0xa9059cbb",
                    "status": true,
                    "value": "0"
                },
                "nodeType": 0
            },
            "9": {
                "event": {
                    "contract": "0xc02aaa39b223fe8d0a0e5c4f27ead9083c756cc2",
                    "decodedLog": {
                        "name": "Transfer",
                        "params": [
                            {
                                "name": "src",
                                "type": "address",
                                "value": "0x9cbfb60a09a9a33a10312da0f39977cbdb7fde23"
                            },
                            {
                                "name": "dst",
                                "type": "address",
                                "value": "0x5013b8c94ff2e95e8b36e3c064274b20987403f8"
                            },
                            {
                                "decimalAvailable": true,
                                "name": "wad",
                                "type": "uint256",
                                "value": "154,096,967,617,263,860"
                            }
                        ],
                        "signature": "Transfer(address,address,uint256)"
                    },
                    "id": 9,
                    "logData": "0x0000000000000000000000000000000000000000000000000223766027cab8f4",
                    "logDecoded": true,
                    "operation": "EVENT",
                    "revert": false,
                    "status": true,
                    "topics": [
                        "0xddf252ad1be2c89b69c2b068fc378daa952ba7f163c4a11628f55a4df523b3ef",
                        "0x0000000000000000000000009cbfb60a09a9a33a10312da0f39977cbdb7fde23",
                        "0x0000000000000000000000005013b8c94ff2e95e8b36e3c064274b20987403f8"
                    ]
                },
                "nodeType": 1
            }
        },
        "gasFlame": [
            {
                "children": [
                    {
                        "children": [
                            {
                                "children": [],
                                "depth": 0,
                                "name": "Initial Gas",
                                "value": 23428
                            },
                            {
                                "children": [
                                    {
                                        "children": [],
                                        "depth": 1,
                                        "name": "transferFrom",
                                        "value": 45481
                                    },
                                    {
                                        "children": [],
                                        "depth": 1,
                                        "name": "balanceOf",
                                        "value": 5699
                                    },
                                    {
                                        "children": [],
                                        "depth": 1,
                                        "name": "getReserves",
                                        "value": 2504
                                    },
                                    {
                                        "children": [],
                                        "depth": 1,
                                        "name": "balanceOf",
                                        "value": 2272
                                    },
                                    {
                                        "children": [
                                            {
                                                "children": [],
                                                "depth": 2,
                                                "name": "transfer",
                                                "value": 12862
                                            },
                                            {
                                                "children": [],
                                                "depth": 2,
                                                "name": "balanceOf",
                                                "value": 2272
                                            },
                                            {
                                                "children": [],
                                                "depth": 2,
                                                "name": "balanceOf",
                                                "value": 534
                                            }
                                        ],
                                        "depth": 1,
                                        "name": "swap",
                                        "value": 39075
                                    },
                                    {
                                        "children": [],
                                        "depth": 1,
                                        "name": "getReserves",
                                        "value": 2504
                                    },
                                    {
                                        "children": [],
                                        "depth": 1,
                                        "name": "balanceOf",
                                        "value": 534
                                    },
                                    {
                                        "children": [
                                            {
                                                "children": [],
                                                "depth": 2,
                                                "name": "transfer",
                                                "value": 66834
                                            },
                                            {
                                                "children": [],
                                                "depth": 2,
                                                "name": "balanceOf",
                                                "value": 1699
                                            },
                                            {
                                                "children": [],
                                                "depth": 2,
                                                "name": "balanceOf",
                                                "value": 534
                                            }
                                        ],
                                        "depth": 1,
                                        "name": "swap",
                                        "value": 89971
                                    },
                                    {
                                        "children": [],
                                        "depth": 1,
                                        "name": "balanceOf",
                                        "value": 1699
                                    }
                                ],
                                "depth": 0,
                                "name": "Executed Gas",
                                "value": 211052
                            }
                        ],
                        "depth": -1,
                        "name": "Actual Gas Used",
                        "value": 228880
                    },
                    {
                        "children": [],
                        "depth": -1,
                        "name": "Refunded Gas",
                        "value": 5600
                    }
                ],
                "depth": -2,
                "name": "Total Gas",
                "value": 234480
            }
        ],
        "isConfirmed": true,
        "mainTrace": [
            {
                "children": [
                    {
                        "children": [
                            {
                                "children": [
                                    {
                                        "children": [],
                                        "depth": 2,
                                        "id": 2,
                                        "order": 2
                                    },
                                    {
                                        "children": [],
                                        "depth": 2,
                                        "id": 3,
                                        "order": 3
                                    }
                                ],
                                "depth": 1,
                                "id": 1,
                                "order": 1
                            },
                            {
                                "children": [],
                                "depth": 1,
                                "id": 4,
                                "order": 4
                            },
                            {
                                "children": [],
                                "depth": 1,
                                "id": 5,
                                "order": 5
                            },
                            {
                                "children": [],
                                "depth": 1,
                                "id": 6,
                                "order": 6
                            },
                            {
                                "children": [
                                    {
                                        "children": [
                                            {
                                                "children": [],
                                                "depth": 3,
                                                "id": 9,
                                                "order": 9
                                            }
                                        ],
                                        "depth": 2,
                                        "id": 8,
                                        "order": 8
                                    },
                                    {
                                        "children": [],
                                        "depth": 2,
                                        "id": 10,
                                        "order": 10
                                    },
                                    {
                                        "children": [],
                                        "depth": 2,
                                        "id": 11,
                                        "order": 11
                                    },
                                    {
                                        "children": [],
                                        "depth": 2,
                                        "id": 12,
                                        "order": 12
                                    },
                                    {
                                        "children": [],
                                        "depth": 2,
                                        "id": 13,
                                        "order": 13
                                    }
                                ],
                                "depth": 1,
                                "id": 7,
                                "order": 7
                            },
                            {
                                "children": [],
                                "depth": 1,
                                "id": 14,
                                "order": 14
                            },
                            {
                                "children": [],
                                "depth": 1,
                                "id": 15,
                                "order": 15
                            },
                            {
                                "children": [
                                    {
                                        "children": [
                                            {
                                                "children": [],
                                                "depth": 3,
                                                "id": 18,
                                                "order": 18
                                            }
                                        ],
                                        "depth": 2,
                                        "id": 17,
                                        "order": 17
                                    },
                                    {
                                        "children": [],
                                        "depth": 2,
                                        "id": 19,
                                        "order": 19
                                    },
                                    {
                                        "children": [],
                                        "depth": 2,
                                        "id": 20,
                                        "order": 20
                                    },
                                    {
                                        "children": [],
                                        "depth": 2,
                                        "id": 21,
                                        "order": 21
                                    },
                                    {
                                        "children": [],
                                        "depth": 2,
                                        "id": 22,
                                        "order": 22
                                    }
                                ],
                                "depth": 1,
                                "id": 16,
                                "order": 16
                            },
                            {
                                "children": [],
                                "depth": 1,
                                "id": 23,
                                "order": 23
                            }
                        ],
                        "depth": 0,
                        "id": 0,
                        "order": 0
                    }
                ],
                "depth": -1,
                "id": -1,
                "order": -1
            }
        ],
        "mainTraceNodeCount": 24,
        "parentIdMap": {
            "0": -1,
            "1": 0,
            "10": 7,
            "11": 7,
            "12": 7,
            "13": 7,
            "14": 0,
            "15": 0,
            "16": 0,
            "17": 16,
            "18": 17,
            "19": 16,
            "2": 1,
            "20": 16,
            "21": 16,
            "22": 16,
            "23": 0,
            "3": 1,
            "4": 0,
            "5": 0,
            "6": 0,
            "7": 0,
            "8": 7,
            "9": 8
        },
        "tidyTrace": [
            {
                "children": [
                    {
                        "children": [
                            {
                                "children": [
                                    {
                                        "children": [],
                                        "depth": 2,
                                        "id": 2,
                                        "order": 2
                                    },
                                    {
                                        "children": [],
                                        "depth": 2,
                                        "id": 3,
                                        "order": 3
                                    }
                                ],
                                "depth": 1,
                                "id": 1,
                                "order": 1
                            },
                            {
                                "children": [
                                    {
                                        "children": [
                                            {
                                                "children": [],
                                                "depth": 3,
                                                "id": 9,
                                                "order": 9
                                            }
                                        ],
                                        "depth": 2,
                                        "id": 8,
                                        "order": 8
                                    },
                                    {
                                        "children": [],
                                        "depth": 2,
                                        "id": 12,
                                        "order": 12
                                    },
                                    {
                                        "children": [],
                                        "depth": 2,
                                        "id": 13,
                                        "order": 13
                                    }
                                ],
                                "depth": 1,
                                "id": 7,
                                "order": 7
                            },
                            {
                                "children": [
                                    {
                                        "children": [
                                            {
                                                "children": [],
                                                "depth": 3,
                                                "id": 18,
                                                "order": 18
                                            }
                                        ],
                                        "depth": 2,
                                        "id": 17,
                                        "order": 17
                                    },
                                    {
                                        "children": [],
                                        "depth": 2,
                                        "id": 21,
                                        "order": 21
                                    },
                                    {
                                        "children": [],
                                        "depth": 2,
                                        "id": 22,
                                        "order": 22
                                    }
                                ],
                                "depth": 1,
                                "id": 16,
                                "order": 16
                            }
                        ],
                        "depth": 0,
                        "id": 0,
                        "order": 0
                    }
                ],
                "depth": -1,
                "id": -1,
                "order": -1
            }
        ],
        "tidyTraceNodeCount": 14
    },
    "state_change": {
        "stateChanges": [
            {
                "address": "0x4da08a1bff50be96bded5c7019227164b49c2bfc",
                "erc": "ERC-20",
                "slots": [
                    {
                        "current": "0xe719025377d3e9ae9c0f5dfa3245bb375e5d7eeb003c343419355acd68c120c1",
                        "key": "0x0000000000000000000000000000000000000000000000000000000000000008",
                        "prev": "0xe71902cdef0e6080e313d3f6a5ac60092e1b2c3c3afd74fe412ea341bfb6ad21"
                    },
                    {
                        "current": "0x0000000000000000000000000000000000000000005492cd7b8ca476e7b3d7d1",
                        "key": "0x0000000000000000000000000000000000000000000000000000000000000009",
                        "prev": "0x0000000000000000000000000000000000000000005492cbc5337a97c506e381"
                    },
                    {
                        "current": "0x0179916b98aa0ded87b22a6c736ca30bc3e6d60626f580901a9fe0a6361514e7",
                        "key": "0x3767beb2f170e71264fea18f450de2fa4e162ab243858f39c42ac274c4ae344d",
                        "prev": "0x0179c1422b80781145705abd7c8e8a21a4cf1310b0056f644390d0261e13f36f"
                    },
                    {
                        "current": "0x00002b0dea8dc5ecf79192385b8df0e0eae7c4f8b6127a6c1dc35ac6c6922a58",
                        "key": "0x18b95b06427ad72bf1dae3a3b80d2622dd8feef6803c773b872157913ac556bd",
                        "prev": "0x0000000000000000000000000000000000000000000000000000000000000000"
                    },
                    {
                        "current": "0x000066b36f3688acaf0a56ec35d27e6e1a00afb7aa591320bb3d34953ab3a8c3",
                        "key": "0x55e0f83a73febb53fb1fe91294da54100ec98355bf853cc50ce134b8d3907b02",
                        "prev": "0x000062653e285b482fe22ecffba52d0af3bde4f7121cdf82d808e850703c80f3"
                    }
                ],
                "storageVariables": [
                    {
                        "name": "_rTotal",
                        "type": "uint256",
                        "value": {
                            "current": "104528455253141600863671735151782569061809456624061043394930594570075398807745",
                            "prev": "104528458554811307719311182000040519513117384419086804263640561668873046633761",
                            "typeTag": 1
                        }
                    },
                    {
                        "name": "_tFeeTotal",
                        "type": "uint256",
                        "value": {
                            "current": "102243024839334323339646929",
                            "prev": "102242993253010823463756673",
                            "typeTag": 1
                        }
                    },
                    {
                        "name": "_rOwned",
                        "type": "mapping(address => uint256)",
                        "value": {
                            "pairs": [
                                {
                                    "key": "0x4da08a1bff50be96bded5c7019227164b49c2bfc",
                                    "value": {
                                        "current": "708815669924371732021150497445628712909695120884297339996479746796136643",
                                        "prev": "679100642562670976998679948223128451097785399580478626136485628890349811",
                                        "typeTag": 1
                                    }
                                },
                                {
                                    "key": "0x5013b8c94ff2e95e8b36e3c064274b20987403f8",
                                    "value": {
                                        "current": "667104997433453567622324768871965216665187438716345658038470262389359318247",
                                        "prev": "667435164404139131567019211285197390098277117921176532762975348953508475759",
                                        "typeTag": 1
                                    }
                                },
                                {
                                    "key": "0xa64f52663a29e002eded756a0bd96d816e9bae43",
                                    "value": {
                                        "current": "297150273617007550225123606059221863349974457766187300677993648595544664",
                                        "prev": "0",
                                        "typeTag": 1
                                    }
                                }
                            ],
                            "typeTag": 4
                        }
                    }
                ]
            },
            {
                "address": "0x5013b8c94ff2e95e8b36e3c064274b20987403f8",
                "erc": "ERC-20",
                "slots": [
                    {
                        "current": "0x6185155c000000000010d615292b3ba7c4e2000000054773316da4eb2b59ed6a",
                        "key": "0x0000000000000000000000000000000000000000000000000000000000000008",
                        "prev": "0x6185155c000000000010d3f1b2cb13dd0bee00000005481e6975d35e6136513d"
                    }
                ],
                "storageVariables": [
                    {
                        "name": "reserve0",
                        "type": "uint112",
                        "value": {
                            "current": "6382042055609577553653098",
                            "prev": "6385200486374320184381757",
                            "typeTag": 1
                        }
                    },
                    {
                        "name": "reserve1",
                        "type": "uint112",
                        "value": {
                            "current": "310574186543641511138",
                            "prev": "310420089576024247278",
                            "typeTag": 1
                        }
                    },
                    {
                        "name": "blockTimestampLast",
                        "type": "uint32",
                        "value": {
                            "current": "1636111708",
                            "prev": "1636111708",
                            "typeTag": 1
                        }
                    }
                ]
            },
            {
                "address": "0x8b3192f5eebd8579568a2ed41e6feb402f93f73f",
                "erc": "ERC-20",
                "slots": [
                    {
                        "current": "0x00000b6bb60e08b0692b174dcbdb6bec769239a40926e3f922b6c5b510100000",
                        "key": "0xc2e4ce275ae7b1eacf7bee7ced5702f30fa0cea02b062daa49f5f89d7fae8a51",
                        "prev": "0x00000c8df478a25b7251ba90b7be3f0d908e47d8d3806db2914e01d9dc100000"
                    },
                    {
                        "current": "0x00628a8c9fed8fa73d9dcb8554074af8d28f69d4885556d20023de265f13573a",
                        "key": "0x38402a1112572b94f3ae0210c4d91db96dd5779e685b8af0cb890333acd7b505",
                        "prev": "0x006289702f8f5537f216a66795d1f6f1fba7c24ee0c026e3f50a899be913573a"
                    },
                    {
                        "current": "0xd83f9d3655113b8af2c521cb944a7d30a20a52f8214b83b95c2827d7cf8054f8",
                        "key": "0x0000000000000000000000000000000000000000000000000000000000000006",
                        "prev": "0xd83f9d3c231d9ac6b0649ff0c1f7fc4ae51eb9a7440fdd84bfa60f72258054f8"
                    },
                    {
                        "current": "0x0000000000000000000000000000000000000000000df33ff0ac9d3359ce287e",
                        "key": "0x0000000000000000000000000000000000000000000000000000000000000007",
                        "prev": "0x0000000000000000000000000000000000000000000df33fee742e0c5dbe287e"
                    },
                    {
                        "current": "0xffffffffffffffffffffffffffffffffffffffffffffffff0633275e3af7ffff",
                        "key": "0xb569078bf9214fbaebce782a1bcf31445d5e26fcf3ac183301b96f7a102d8c58",
                        "prev": "0xffffffffffffffffffffffffffffffffffffffffffffffff7538dcfb7617ffff"
                    }
                ],
                "storageVariables": [
                    {
                        "name": "_rOwned",
                        "type": "mapping(address => uint256)",
                        "value": {
                            "pairs": [
                                {
                                    "key": "0x9cbfb60a09a9a33a10312da0f39977cbdb7fde23",
                                    "value": {
                                        "current": "174107244579053525440422799472029312235976216181012687892233220164899002170",
                                        "prev": "174099576120460129666469245546661148833234432894130695869193220164899002170",
                                        "typeTag": 1
                                    }
                                },
                                {
                                    "key": "0xa64f52663a29e002eded756a0bd96d816e9bae43",
                                    "value": {
                                        "current": "78823096718393801131321273596988082432881770374167972000000000000000000",
                                        "prev": "86648054466756835777804870911440534210211654947629220000000000000000000",
                                        "typeTag": 1
                                    }
                                }
                            ],
                            "typeTag": 4
                        }
                    },
                    {
                        "name": "_rTotal",
                        "type": "uint256",
                        "value": {
                            "current": "97811971698038778113784273500983700927574521621667940439237642138989264655608",
                            "prev": "97811971854537933081044966430655647216623557168265631908462602138989264655608",
                            "typeTag": 1
                        }
                    },
                    {
                        "name": "_tFeeTotal",
                        "type": "uint256",
                        "value": {
                            "current": "16864750197613255732373630",
                            "prev": "16864750037613255732373630",
                            "typeTag": 1
                        }
                    },
                    {
                        "name": "_allowances",
                        "type": "mapping(address => mapping(address => uint256))",
                        "value": {
                            "pairs": [
                                {
                                    "key": "0xa64f52663a29e002eded756a0bd96d816e9bae43",
                                    "value": {
                                        "pairs": [
                                            {
                                                "key": "0x7a250d5630b4cf539739df2c5dacb4c659f2488d",
                                                "value": {
                                                    "current": "115792089237316195423570985008687907853269984665640564039439584007913129639935",
                                                    "prev": "115792089237316195423570985008687907853269984665640564039447584007913129639935",
                                                    "typeTag": 1
                                                }
                                            }
                                        ],
                                        "typeTag": 4
                                    }
                                }
                            ],
                            "typeTag": 4
                        }
                    }
                ]
            },
            {
                "address": "0x9cbfb60a09a9a33a10312da0f39977cbdb7fde23",
                "erc": "ERC-20",
                "slots": [
                    {
                        "current": "0x6185155c0000000000be37f8cab2d5308e680000000025b181aef34e486d0c8b",
                        "key": "0x0000000000000000000000000000000000000000000000000000000000000008",
                        "prev": "0x6185155c0000000000be3a1c4112fcfb475c0000000025b114e0a9d121df262e"
                    }
                ],
                "storageVariables": [
                    {
                        "name": "reserve0",
                        "type": "uint112",
                        "value": {
                            "current": "178001978241017852005515",
                            "prev": "177994137956214686819886",
                            "typeTag": 1
                        }
                    },
                    {
                        "name": "reserve1",
                        "type": "uint112",
                        "value": {
                            "current": "3508914570340554804840",
                            "prev": "3509068667308172068700",
                            "typeTag": 1
                        }
                    },
                    {
                        "name": "blockTimestampLast",
                        "type": "uint32",
                        "value": {
                            "current": "1636111708",
                            "prev": "1636111708",
                            "typeTag": 1
                        }
                    }
                ]
            },
            {
                "address": "0xc02aaa39b223fe8d0a0e5c4f27ead9083c756cc2",
                "erc": "ERC-20",
                "slots": [
                    {
                        "current": "0x0000000000000000000000000000000000000000000000be37f8cab2d5308e68",
                        "key": "0xdf29a6c4d759a2eb5672c49e042e19a1c09dda4c923ce4e135a3d384e03afd61",
                        "prev": "0x0000000000000000000000000000000000000000000000be3a1c4112fcfb475c"
                    },
                    {
                        "current": "0x000000000000000000000000000000000000000000000010d615292b3ba7c4e2",
                        "key": "0x51c9007cca334123558f0f85f608fa128a98cefc56001cbaad432c54c96adf16",
                        "prev": "0x000000000000000000000000000000000000000000000010d3f1b2cb13dd0bee"
                    }
                ],
                "storageVariables": [
                    {
                        "name": "balanceOf",
                        "type": "mapping(address => uint256)",
                        "value": {
                            "pairs": [
                                {
                                    "key": "0x5013b8c94ff2e95e8b36e3c064274b20987403f8",
                                    "value": {
                                        "current": "310574186543641511138",
                                        "prev": "310420089576024247278",
                                        "typeTag": 1
                                    }
                                },
                                {
                                    "key": "0x9cbfb60a09a9a33a10312da0f39977cbdb7fde23",
                                    "value": {
                                        "current": "3508914570340554804840",
                                        "prev": "3509068667308172068700",
                                        "typeTag": 1
                                    }
                                }
                            ],
                            "typeTag": 4
                        }
                    }
                ]
            }
        ]
    }
}