{
    "balance_change": {
        "balanceChanges": []
    },
    "profile": {
        "basic_info": {
            "baseFee": "29.851325856",
            "blockNumber": 18569537,
            "callData": "0x5578ceae00000000000000000000000000000000000000000000000000000000003f26ea00000000000000000000000000000000000000000000000000000000000000a0059c60a2c5d23d3030909ad841878de43a4e14fca54e4af681027a172b3ff0d405c4a73136ac527aebfd00fdc8f129c6a6c6c21ef0499ca2e45b3e0178e95cf20800000000000011000000000000000000000000000000000000000000000001000000000000000000000000000000000000000000000000000000000000000e066478a13a0bdf188ca8073d1bccd10dc5831c303998c0f3cd00eba3fd10ca3607661bff6bc952234e23ec92c7bd431e632b100e580775aafe21b85d1644759c0000000000000000000000000000000000000000000000000000000000060dc307425fca55ac386d363534b5d8581a93539b3d74a1eb89e694f9401d461c5581017c0bc29d31e9a7d14671610a7626264ce9ce8e3ed066a4775adf9b123de9dd0000000000000000000000000000000000000000000000000000000000000007073314940630fd6dcda0d772d4c972c4e0a9946bef9dabf4ef84eda8ef542b82000000000000000000000000ae0ee0a63a2ce6baeeffe56e7714fb4efe48d4190000000000000000000000000000000000000000000000000000000000000004000000000000000000000000000000000000000000000000000000000000000000000000000000000000000021b39b5814d1a3588d27a36bbff0c7b52187f4010000000000000000000000000000000000000000000000005c17ced7497e000000000000000000000000000000000000000000000000000000000000000000000000000000000000000000000000000000000000000000000000000000000000",
            "debugEnable": true,
            "errorInfo": "",
            "eventCount": 1,
            "feeRecipient": "0x4838b106fce9647bdf1e7877bf73ce8b0bad5f97",
            "formatValue": "0",
            "gasLimit": 11000000,
            "gasPrice": "30.851325856",
            "gasUsed": 55796,
            "intTxnCount": 0,
            "internalRevert": false,
            "internalRevertMessage": "",
            "isContractCreation": false,
            "isFlashloan": false,
            "maxFee": "150",
            "nonce": 860408,
            "overwritedBlockNumber": -1,
            "priorityFee": "1",
            "receiver": "0xfd14567eaf9ba941cb8c8a94eec14831ca7fd1b4",
            "revertMessage": "",
            "sender": "0x16d5783a96ab20c9157d7933ac236646b29589a4",
            "simulationEnable": true,
            "sourceTxnHash": "0x17f068f21f5bd720a4a783224f41e06159c347addc0f92b1a84e0daaa7addbd4",
            "status": true,
            "timestamp": "2023-11-14T10:26:23Z",
            "transactionFee": "0.001721380577461376",
            "txnHash": "0x17f068f21f5bd720a4a783224f41e06159c347addc0f92b1a84e0daaa7addbd4",
            "txnIndex": 88,
            "type": 2,
            "value": "0"
        },
        "fund_flow": [],
        "token_infos": [
            {
                "address": "0xc02aaa39b223fe8d0a0e5c4f27ead9083c756cc2",
                "decimals": 18
            },
            {
                "address": "0xeeeeeeeeeeeeeeeeeeeeeeeeeeeeeeeeeeeeeeee",
                "decimals": 18
            }
        ]
    },
    "address_label": {
        "labels": [
            {
                "address": "0x0000000000000000000000000000000000000002",
                "label": "Precompiled"
            },
            {
                "address": "0x0000000000000000000000000000000000000003",
                "label": "Precompiled"
            },
            {
                "address": "0x0000000000000000000000000000000000000004",
                "label": "Precompiled"
            },
            {
                "address": "0xeeeeeeeeeeeeeeeeeeeeeeeeeeeeeeeeeeeeeeee",
                "label": "Ether"
            },
            {
                "address": "0x16d5783a96ab20c9157d7933ac236646b29589a4",
                "label": "SHARP Blockchain Writer"
            },
            {
                "address": "0xfd14567eaf9ba941cb8c8a94eec14831ca7fd1b4",
                "label": "StarkEx: SHARP"
            },
            {
                "address": "0x0000000000000000000000000000000000000001",
                "label": "Precompiled"
            }
        ]
    },
    "trace": {
        "accountLabels": null,
        "dataMap": {
            "-1": {
                "invocation": {
                    "address": "0x16d5783a96ab20c9157d7933ac236646b29589a4",
                    "callData": "",
                    "decodedMethod": null,
                    "errorInfo": "",
                    "fromAddress": "",
                    "gasUsed": 0,
                    "id": -1,
                    "methodDecoded": false,
                    "operation": "",
                    "output": "",
                    "revert": false,
                    "revertMessage": "",
                    "selector": "",
                    "status": false,
                    "value": ""
                },
                "nodeType": 0
            },
            "0": {
                "invocation": {
                    "address": "0xfd14567eaf9ba941cb8c8a94eec14831ca7fd1b4",
                    "callData": "0x00000000000000000000000000000000000000000000000000000000003f26ea00000000000000000000000000000000000000000000000000000000000000a0059c60a2c5d23d3030909ad841878de43a4e14fca54e4af681027a172b3ff0d405c4a73136ac527aebfd00fdc8f129c6a6c6c21ef0499ca2e45b3e0178e95cf20800000000000011000000000000000000000000000000000000000000000001000000000000000000000000000000000000000000000000000000000000000e066478a13a0bdf188ca8073d1bccd10dc5831c303998c0f3cd00eba3fd10ca3607661bff6bc952234e23ec92c7bd431e632b100e580775aafe21b85d1644759c0000000000000000000000000000000000000000000000000000000000060dc307425fca55ac386d363534b5d8581a93539b3d74a1eb89e694f9401d461c5581017c0bc29d31e9a7d14671610a7626264ce9ce8e3ed066a4775adf9b123de9dd0000000000000000000000000000000000000000000000000000000000000007073314940630fd6dcda0d772d4c972c4e0a9946bef9dabf4ef84eda8ef542b82000000000000000000000000ae0ee0a63a2ce6baeeffe56e7714fb4efe48d4190000000000000000000000000000000000000000000000000000000000000004000000000000000000000000000000000000000000000000000000000000000000000000000000000000000021b39b5814d1a3588d27a36bbff0c7b52187f4010000000000000000000000000000000000000000000000005c17ced7497e000000000000000000000000000000000000000000000000000000000000000000000000000000000000000000000000000000000000000000000000000000000000",
                    "decodedMethod": {
                        "callParams": [
                            {
                                "name": "startAddr",
                                "type": "uint256",
                                "value": "4,138,730"
                            },
                            {
                                "name": "values",
                                "type": "uint256[]",
                                "value": [
                                    "2,891,394,354,203,461,597,697,919,295,555,200,069,504,332,784,529,425,272,934,602,456,759,310,273,078",
                                    "3,346,601,573,979,257,191,941,368,682,534,896,989,742,057,546,925,144,262,113,573,629,625,882,670,492",
                                    "396,739",
                                    "3,283,462,967,192,802,114,210,724,230,727,581,657,196,508,413,662,867,876,182,099,923,088,560,641,409",
                                    "671,483,050,609,816,861,429,812,414,688,707,376,174,032,882,875,357,307,847,551,691,140,236,175,837",
                                    "7",
                                    "3,256,441,166,037,631,918,262,930,812,410,838,598,500,200,462,657,642,943,867,372,734,773,841,898,370",
                                    "993,696,174,272,377,493,693,496,825,928,908,586,134,624,850,969",
                                    "4",
                                    "0",
                                    "192,402,061,204,564,460,730,504,752,154,649,310,746,087,257,089",
                                    "6,636,000,000,000,000,000",
                                    "0",
                                    "0"
                                ]
                            },
                            {
                                "name": "z",
                                "type": "uint256",
                                "value": "2,537,859,341,015,420,643,486,374,846,908,332,541,060,393,626,918,690,054,116,094,585,092,544,917,716"
                            },
                            {
                                "name": "alpha",
                                "type": "uint256",
                                "value": "2,609,020,186,047,948,971,578,155,740,189,946,547,877,423,585,651,011,061,058,822,198,222,534,565,106"
                            },
                            {
                                "name": "prime",
                                "type": "uint256",
                                "value": "3,618,502,788,666,131,213,697,322,783,095,070,105,623,107,215,331,596,699,973,092,056,135,872,020,481"
                            }
                        ],
                        "constructorArguments": "",
                        "name": "registerContinuousMemoryPage",
                        "returnParams": [
                            {
                                "name": "factHash",
                                "type": "bytes32",
                                "value": "0x07d4b1ed976e1d4354b071f0f3646a205a0ae23e2d87b9d78999fed6d0c835e4"
                            },
                            {
                                "name": "memoryHash",
                                "type": "uint256",
                                "value": "54,120,006,676,268,194,636,966,030,649,162,149,991,167,271,994,575,671,379,857,908,820,188,209,108,398"
                            },
                            {
                                "name": "prod",
                                "type": "uint256",
                                "value": "3,526,113,830,497,522,237,047,735,461,483,887,902,464,806,612,551,673,033,230,296,280,480,491,743,704"
                            }
                        ],
                        "signature": "registerContinuousMemoryPage(uint256,uint256[],uint256,uint256,uint256)"
                    },
                    "errorInfo": "",
                    "fromAddress": "0x16d5783a96ab20c9157d7933ac236646b29589a4",
                    "gasUsed": 55796,
                    "id": 0,
                    "methodDecoded": true,
                    "operation": "CALL",
                    "output": "0x07d4b1ed976e1d4354b071f0f3646a205a0ae23e2d87b9d78999fed6d0c835e477a6d698637a2c59fb3da9cd5ab1fa7492ae518cf186d9c04e558e39ee8c55ae07cbb5af14bff34ebac5bb1248f5c5584e7a471b3966a207fb073ab9a90fa9d8",
                    "revert": false,
                    "revertMessage": "",
                    "selector": "0x5578ceae",
                    "status": true,
                    "value": "0"
                },
                "nodeType": 0
            },
            "1": {
                "event": {
                    "contract": "0xfd14567eaf9ba941cb8c8a94eec14831ca7fd1b4",
                    "decodedLog": {
                        "name": "LogMemoryPageFactContinuous",
                        "params": [
                            {
                                "name": "factHash",
                                "type": "bytes32",
                                "value": "0x07d4b1ed976e1d4354b071f0f3646a205a0ae23e2d87b9d78999fed6d0c835e4"
                            },
                            {
                                "name": "memoryHash",
                                "type": "uint256",
                                "value": "54,120,006,676,268,194,636,966,030,649,162,149,991,167,271,994,575,671,379,857,908,820,188,209,108,398"
                            },
                            {
                                "name": "prod",
                                "type": "uint256",
                                "value": "3,526,113,830,497,522,237,047,735,461,483,887,902,464,806,612,551,673,033,230,296,280,480,491,743,704"
                            }
                        ],
                        "signature": "LogMemoryPageFactContinuous(bytes32,uint256,uint256)"
                    },
                    "id": 1,
                    "logData": "0x07d4b1ed976e1d4354b071f0f3646a205a0ae23e2d87b9d78999fed6d0c835e477a6d698637a2c59fb3da9cd5ab1fa7492ae518cf186d9c04e558e39ee8c55ae07cbb5af14bff34ebac5bb1248f5c5584e7a471b3966a207fb073ab9a90fa9d8",
                    "logDecoded": true,
                    "operation": "EVENT",
                    "revert": false,
                    "status": true,
                    "topics": [
                        "0xb8b9c39aeba1cfd98c38dfeebe11c2f7e02b334cbe9f05f22b442a5d9c1ea0c5"
                    ]
                },
                "nodeType": 1
            }
        },
        "gasFlame": [
            {
                "children": [
                    {
                        "children": [
                            {
                                "children": [],
                                "depth": 0,
                                "name": "Initial Gas",
                                "value": 26996
                            },
                            {
                                "children": [],
                                "depth": 0,
                                "name": "Executed Gas",
                                "value": 28800
                            }
                        ],
                        "depth": -1,
                        "name": "Actual Gas Used",
                        "value": 55796
                    },
                    {
                        "children": [],
                        "depth": -1,
                        "name": "Refunded Gas",
                        "value": 0
                    }
                ],
                "depth": -2,
                "name": "Total Gas",
                "value": 55796
            }
        ],
        "isConfirmed": true,
        "mainTrace": [
            {
                "children": [
                    {
                        "children": [
                            {
                                "children": [],
                                "depth": 1,
                                "id": 1,
                                "order": 1
                            }
                        ],
                        "depth": 0,
                        "id": 0,
                        "order": 0
                    }
                ],
                "depth": -1,
                "id": -1,
                "order": -1
            }
        ],
        "mainTraceNodeCount": 2,
        "parentIdMap": {
            "0": -1,
            "1": 0
        },
        "tidyTrace": [
            {
                "children": [
                    {
                        "children": [
                            {
                                "children": [],
                                "depth": 1,
                                "id": 1,
                                "order": 1
                            }
                        ],
                        "depth": 0,
                        "id": 0,
                        "order": 0
                    }
                ],
                "depth": -1,
                "id": -1,
                "order": -1
            }
        ],
        "tidyTraceNodeCount": 2
    },
    "state_change": {
        "stateChanges": [
            {
                "address": "0xfd14567eaf9ba941cb8c8a94eec14831ca7fd1b4",
                "erc": "",
                "slots": [
                    {
                        "current": "0x0000000000000000000000000000000000000000000000000000000000000001",
                        "key": "0x6597e2f9b57b90b1f893c73cf9d2c45aa6a264711f08f6233291a3a9b8e6c64b",
                        "prev": "0x0000000000000000000000000000000000000000000000000000000000000000"
                    }
                ],
                "storageVariables": [
                    {
                        "name": "verifiedFact",
                        "type": "mapping(bytes32 => bool)",
                        "value": {
                            "pairs": [
                                {
                                    "key": "0x07d4b1ed976e1d4354b071f0f3646a205a0ae23e2d87b9d78999fed6d0c835e4",
                                    "value": {
                                        "current": "true",
                                        "prev": "false",
                                        "typeTag": 1
                                    }
                                }
                            ],
                            "typeTag": 4
                        }
                    }
                ]
            }
        ]
    }
}