{
    "balance_change": {
        "balanceChanges": [
            {
                "account": "0xaca31159539c1c6465d039880b71a6614c07de50",
                "assets": [
                    {
                        "address": "0x5e7ebea68ab05198f771d77a875480314f1d0aae",
                        "amount": "139.57475994513032",
                        "iconUrl": "",
                        "isERC1155": false,
                        "isERC721": false,
                        "sign": true,
                        "value": ""
                    }
                ]
            },
            {
                "account": "0x38bcaf0d4fb50e391fb9d8640612cdf90ba8c3eb",
                "assets": [
                    {
                        "address": "0x5e7ebea68ab05198f771d77a875480314f1d0aae",
                        "amount": "139.57475994513032",
                        "iconUrl": "",
                        "isERC1155": false,
                        "isERC721": false,
                        "sign": false,
                        "value": ""
                    }
                ]
            }
        ]
    },
    "profile": {
        "basic_info": {
            "baseFee": "",
            "blockNumber": 8876170,
            "callData": "0x48f7960700000000000000000000000000000000000000000000000790fd28abdbe9a080",
            "debugEnable": true,
            "errorInfo": "",
            "eventCount": 2,
            "feeRecipient": "0x8595dd9e0438640b5e1254f9df579ac12a86865f",
            "formatValue": "0",
            "gasLimit": 230867,
            "gasPrice": "15",
            "gasUsed": 119905,
            "intTxnCount": 7,
            "internalRevert": false,
            "internalRevertMessage": "",
            "isContractCreation": false,
            "isFlashloan": false,
            "maxFee": "",
            "nonce": 27,
            "overwritedBlockNumber": -1,
            "priorityFee": "",
            "receiver": "0x38bcaf0d4fb50e391fb9d8640612cdf90ba8c3eb",
            "revertMessage": "",
            "sender": "0xaca31159539c1c6465d039880b71a6614c07de50",
            "simulationEnable": true,
            "sourceTxnHash": "0x172dd5809e0881bde19d9a9e2a1a79c92c5d77a541755f4424adccff34b09c2b",
            "status": true,
            "timestamp": "2019-11-05T07:03:30Z",
            "transactionFee": "0.001798575",
            "txnHash": "0x172dd5809e0881bde19d9a9e2a1a79c92c5d77a541755f4424adccff34b09c2b",
            "txnIndex": 199,
            "type": 0,
            "value": "0"
        },
        "fund_flow": [
            {
                "amount": "139.57475994513032",
                "from": "0x38bcaf0d4fb50e391fb9d8640612cdf90ba8c3eb",
                "id": 1,
                "isERC1155": false,
                "isERC721": false,
                "isReverted": false,
                "order": 1,
                "to": "0xaca31159539c1c6465d039880b71a6614c07de50",
                "token": "0x5e7ebea68ab05198f771d77a875480314f1d0aae"
            }
        ],
        "token_infos": [
            {
                "address": "0x5e7ebea68ab05198f771d77a875480314f1d0aae",
                "decimals": 18
            },
            {
                "address": "0xc02aaa39b223fe8d0a0e5c4f27ead9083c756cc2",
                "decimals": 18
            },
            {
                "address": "0xeeeeeeeeeeeeeeeeeeeeeeeeeeeeeeeeeeeeeeee",
                "decimals": 18
            }
        ]
    },
    "address_label": {
        "labels": [
            {
                "address": "0x7ee36450e39e1058eb06fa953e268b21f142365b",
                "label": "Wallet"
            },
            {
                "address": "0xa8745e0bf1953f9a8ee785b22dc2b383dbf795e6",
                "label": "Citizen"
            },
            {
                "address": "0x0000000000000000000000000000000000000001",
                "label": "Precompiled"
            },
            {
                "address": "0x0000000000000000000000000000000000000002",
                "label": "Precompiled"
            },
            {
                "address": "0x0000000000000000000000000000000000000003",
                "label": "Precompiled"
            },
            {
                "address": "0xeeeeeeeeeeeeeeeeeeeeeeeeeeeeeeeeeeeeeeee",
                "label": "Ether"
            },
            {
                "address": "0x5e7ebea68ab05198f771d77a875480314f1d0aae",
                "label": "DABANKING: DAB Token"
            },
            {
                "address": "0x38bcaf0d4fb50e391fb9d8640612cdf90ba8c3eb",
                "label": "ReserveFund"
            },
            {
                "address": "0x0000000000000000000000000000000000000004",
                "label": "Precompiled"
            }
        ]
    },
    "trace": {
        "accountLabels": null,
        "dataMap": {
            "-1": {
                "invocation": {
                    "address": "0xaca31159539c1c6465d039880b71a6614c07de50",
                    "callData": "",
                    "decodedMethod": null,
                    "errorInfo": "",
                    "fromAddress": "",
                    "gasUsed": 0,
                    "id": -1,
                    "methodDecoded": false,
                    "operation": "",
                    "output": "",
                    "revert": false,
                    "revertMessage": "",
                    "selector": "",
                    "status": false,
                    "value": ""
                },
                "nodeType": 0
            },
            "0": {
                "invocation": {
                    "address": "0x38bcaf0d4fb50e391fb9d8640612cdf90ba8c3eb",
                    "callData": "0x00000000000000000000000000000000000000000000000790fd28abdbe9a080",
                    "decodedMethod": {
                        "callParams": [
                            {
                                "name": "_tokenAmount",
                                "type": "uint256",
                                "value": "139,574,759,945,130,320,000"
                            }
                        ],
                        "constructorArguments": "",
                        "name": "miningToken",
                        "returnParams": [],
                        "signature": "miningToken(uint256)"
                    },
                    "errorInfo": "",
                    "fromAddress": "0xaca31159539c1c6465d039880b71a6614c07de50",
                    "gasUsed": 119905,
                    "id": 0,
                    "methodDecoded": true,
                    "operation": "CALL",
                    "output": "",
                    "revert": false,
                    "revertMessage": "",
                    "selector": "0x48f79607",
                    "status": true,
                    "value": "0"
                },
                "nodeType": 0
            },
            "1": {
                "invocation": {
                    "address": "0xa8745e0bf1953f9a8ee785b22dc2b383dbf795e6",
                    "callData": "0x000000000000000000000000aca31159539c1c6465d039880b71a6614c07de50",
                    "decodedMethod": {
                        "callParams": [
                            {
                                "name": "_investor",
                                "type": "address",
                                "value": "0xaca31159539c1c6465d039880b71a6614c07de50"
                            }
                        ],
                        "constructorArguments": "",
                        "name": "isCitizen",
                        "returnParams": [
                            {
                                "name": "",
                                "type": "bool",
                                "value": true
                            }
                        ],
                        "signature": "isCitizen(address)"
                    },
                    "errorInfo": "",
                    "fromAddress": "0x38bcaf0d4fb50e391fb9d8640612cdf90ba8c3eb",
                    "gasUsed": 2347,
                    "id": 1,
                    "methodDecoded": true,
                    "operation": "CALL",
                    "output": "0x0000000000000000000000000000000000000000000000000000000000000001",
                    "revert": false,
                    "revertMessage": "",
                    "selector": "0xf3caad03",
                    "status": true,
                    "value": "0"
                },
                "nodeType": 0
            },
            "2": {
                "invocation": {
                    "address": "0x7ee36450e39e1058eb06fa953e268b21f142365b",
                    "callData": "0x000000000000000000000000aca31159539c1c6465d039880b71a6614c07de50",
                    "decodedMethod": {
                        "callParams": [
                            {
                                "name": "_investor",
                                "type": "address",
                                "value": "0xaca31159539c1c6465d039880b71a6614c07de50"
                            }
                        ],
                        "constructorArguments": "",
                        "name": "getProfitBalance",
                        "returnParams": [
                            {
                                "name": "",
                                "type": "uint256",
                                "value": "101,755"
                            }
                        ],
                        "signature": "getProfitBalance(address)"
                    },
                    "errorInfo": "",
                    "fromAddress": "0x38bcaf0d4fb50e391fb9d8640612cdf90ba8c3eb",
                    "gasUsed": 2388,
                    "id": 2,
                    "methodDecoded": true,
                    "operation": "CALL",
                    "output": "0x0000000000000000000000000000000000000000000000000000000000018d7b",
                    "revert": false,
                    "revertMessage": "",
                    "selector": "0xbb1937c0",
                    "status": true,
                    "value": "0"
                },
                "nodeType": 0
            },
            "3": {
                "invocation": {
                    "address": "0x7ee36450e39e1058eb06fa953e268b21f142365b",
                    "callData": "0x0000000000000000000000000000000000000000000000000000000000018d76000000000000000000000000aca31159539c1c6465d039880b71a6614c07de50",
                    "decodedMethod": {
                        "callParams": [
                            {
                                "name": "_fiatAmount",
                                "type": "uint256",
                                "value": "101,750"
                            },
                            {
                                "name": "_from",
                                "type": "address",
                                "value": "0xaca31159539c1c6465d039880b71a6614c07de50"
                            }
                        ],
                        "constructorArguments": "",
                        "name": "validateCanMineToken",
                        "returnParams": [],
                        "signature": "validateCanMineToken(uint256,address)"
                    },
                    "errorInfo": "",
                    "fromAddress": "0x38bcaf0d4fb50e391fb9d8640612cdf90ba8c3eb",
                    "gasUsed": 1568,
                    "id": 3,
                    "methodDecoded": true,
                    "operation": "CALL",
                    "output": "",
                    "revert": false,
                    "revertMessage": "",
                    "selector": "0x3296c7d6",
                    "status": true,
                    "value": "0"
                },
                "nodeType": 0
            },
            "4": {
                "invocation": {
                    "address": "0x7ee36450e39e1058eb06fa953e268b21f142365b",
                    "callData": "0x000000000000000000000000aca31159539c1c6465d039880b71a6614c07de500000000000000000000000000000000000000000000000000000000000018d76",
                    "decodedMethod": {
                        "callParams": [
                            {
                                "name": "_from",
                                "type": "address",
                                "value": "0xaca31159539c1c6465d039880b71a6614c07de50"
                            },
                            {
                                "name": "_amount",
                                "type": "uint256",
                                "value": "101,750"
                            }
                        ],
                        "constructorArguments": "",
                        "name": "mineToken",
                        "returnParams": [],
                        "signature": "mineToken(address,uint256)"
                    },
                    "errorInfo": "",
                    "fromAddress": "0x38bcaf0d4fb50e391fb9d8640612cdf90ba8c3eb",
                    "gasUsed": 11527,
                    "id": 4,
                    "methodDecoded": true,
                    "operation": "CALL",
                    "output": "",
                    "revert": false,
                    "revertMessage": "",
                    "selector": "0x23e85bfb",
                    "status": true,
                    "value": "0"
                },
                "nodeType": 0
            },
            "5": {
                "invocation": {
                    "address": "0x5e7ebea68ab05198f771d77a875480314f1d0aae",
                    "callData": "0x000000000000000000000000aca31159539c1c6465d039880b71a6614c07de50",
                    "decodedMethod": {
                        "callParams": [
                            {
                                "name": "owner",
                                "type": "address",
                                "value": "0xaca31159539c1c6465d039880b71a6614c07de50"
                            }
                        ],
                        "constructorArguments": "",
                        "name": "balanceOf",
                        "returnParams": [
                            {
                                "decimalAvailable": true,
                                "name": "",
                                "type": "uint256",
                                "value": "0"
                            }
                        ],
                        "signature": "balanceOf(address)"
                    },
                    "errorInfo": "",
                    "fromAddress": "0x38bcaf0d4fb50e391fb9d8640612cdf90ba8c3eb",
                    "gasUsed": 741,
                    "id": 5,
                    "methodDecoded": true,
                    "operation": "CALL",
                    "output": "0x0000000000000000000000000000000000000000000000000000000000000000",
                    "revert": false,
                    "revertMessage": "",
                    "selector": "0x70a08231",
                    "status": true,
                    "value": "0"
                },
                "nodeType": 0
            },
            "6": {
                "invocation": {
                    "address": "0x5e7ebea68ab05198f771d77a875480314f1d0aae",
                    "callData": "0x000000000000000000000000aca31159539c1c6465d039880b71a6614c07de5000000000000000000000000000000000000000000000000790fd28abdbe9a080",
                    "decodedMethod": {
                        "callParams": [
                            {
                                "name": "to",
                                "type": "address",
                                "value": "0xaca31159539c1c6465d039880b71a6614c07de50"
                            },
                            {
                                "decimalAvailable": true,
                                "name": "value",
                                "type": "uint256",
                                "value": "139,574,759,945,130,320,000"
                            }
                        ],
                        "constructorArguments": "",
                        "name": "transfer",
                        "returnParams": [
                            {
                                "name": "",
                                "type": "bool",
                                "value": true
                            }
                        ],
                        "signature": "transfer(address,uint256)"
                    },
                    "errorInfo": "",
                    "fromAddress": "0x38bcaf0d4fb50e391fb9d8640612cdf90ba8c3eb",
                    "gasUsed": 28549,
                    "id": 6,
                    "methodDecoded": true,
                    "operation": "CALL",
                    "output": "0x0000000000000000000000000000000000000000000000000000000000000001",
                    "revert": false,
                    "revertMessage": "",
                    "selector": "0xa9059cbb",
                    "status": true,
                    "value": "0"
                },
                "nodeType": 0
            },
            "7": {
                "event": {
                    "contract": "0x5e7ebea68ab05198f771d77a875480314f1d0aae",
                    "decodedLog": {
                        "name": "Transfer",
                        "params": [
                            {
                                "name": "from",
                                "type": "address",
                                "value": "0x38bcaf0d4fb50e391fb9d8640612cdf90ba8c3eb"
                            },
                            {
                                "name": "to",
                                "type": "address",
                                "value": "0xaca31159539c1c6465d039880b71a6614c07de50"
                            },
                            {
                                "decimalAvailable": true,
                                "name": "value",
                                "type": "uint256",
                                "value": "139,574,759,945,130,320,000"
                            }
                        ],
                        "signature": "Transfer(address,address,uint256)"
                    },
                    "id": 7,
                    "logData": "0x00000000000000000000000000000000000000000000000790fd28abdbe9a080",
                    "logDecoded": true,
                    "operation": "EVENT",
                    "revert": false,
                    "status": true,
                    "topics": [
                        "0xddf252ad1be2c89b69c2b068fc378daa952ba7f163c4a11628f55a4df523b3ef",
                        "0x00000000000000000000000038bcaf0d4fb50e391fb9d8640612cdf90ba8c3eb",
                        "0x000000000000000000000000aca31159539c1c6465d039880b71a6614c07de50"
                    ]
                },
                "nodeType": 1
            },
            "8": {
                "invocation": {
                    "address": "0x5e7ebea68ab05198f771d77a875480314f1d0aae",
                    "callData": "0x000000000000000000000000aca31159539c1c6465d039880b71a6614c07de50",
                    "decodedMethod": {
                        "callParams": [
                            {
                                "name": "owner",
                                "type": "address",
                                "value": "0xaca31159539c1c6465d039880b71a6614c07de50"
                            }
                        ],
                        "constructorArguments": "",
                        "name": "balanceOf",
                        "returnParams": [
                            {
                                "decimalAvailable": true,
                                "name": "",
                                "type": "uint256",
                                "value": "139,574,759,945,130,320,000"
                            }
                        ],
                        "signature": "balanceOf(address)"
                    },
                    "errorInfo": "",
                    "fromAddress": "0x38bcaf0d4fb50e391fb9d8640612cdf90ba8c3eb",
                    "gasUsed": 741,
                    "id": 8,
                    "methodDecoded": true,
                    "operation": "CALL",
                    "output": "0x00000000000000000000000000000000000000000000000790fd28abdbe9a080",
                    "revert": false,
                    "revertMessage": "",
                    "selector": "0x70a08231",
                    "status": true,
                    "value": "0"
                },
                "nodeType": 0
            },
            "9": {
                "event": {
                    "contract": "0x38bcaf0d4fb50e391fb9d8640612cdf90ba8c3eb",
                    "decodedLog": {
                        "name": "TokenMined",
                        "params": [
                            {
                                "name": "buyer",
                                "type": "address",
                                "value": "0xaca31159539c1c6465d039880b71a6614c07de50"
                            },
                            {
                                "name": "amount",
                                "type": "uint256",
                                "value": "139,574,759,945,130,320,000"
                            },
                            {
                                "name": "walletAmount",
                                "type": "uint256",
                                "value": "101,750"
                            }
                        ],
                        "signature": "TokenMined(address,uint256,uint256)"
                    },
                    "id": 9,
                    "logData": "0x000000000000000000000000aca31159539c1c6465d039880b71a6614c07de5000000000000000000000000000000000000000000000000790fd28abdbe9a0800000000000000000000000000000000000000000000000000000000000018d76",
                    "logDecoded": true,
                    "operation": "EVENT",
                    "revert": false,
                    "status": true,
                    "topics": [
                        "0x7fb08210da114cf38e2518a9feafd477ad944ed7eb08ce5bc794ce918f3409c3"
                    ]
                },
                "nodeType": 1
            }
        },
        "gasFlame": [
            {
                "children": [
                    {
                        "children": [
                            {
                                "children": [],
                                "depth": 0,
                                "name": "Initial Gas",
                                "value": 21976
                            },
                            {
                                "children": [
                                    {
                                        "children": [],
                                        "depth": 1,
                                        "name": "isCitizen",
                                        "value": 2347
                                    },
                                    {
                                        "children": [],
                                        "depth": 1,
                                        "name": "getProfitBalance",
                                        "value": 2388
                                    },
                                    {
                                        "children": [],
                                        "depth": 1,
                                        "name": "validateCanMineToken",
                                        "value": 1568
                                    },
                                    {
                                        "children": [],
                                        "depth": 1,
                                        "name": "mineToken",
                                        "value": 11527
                                    },
                                    {
                                        "children": [],
                                        "depth": 1,
                                        "name": "balanceOf",
                                        "value": 741
                                    },
                                    {
                                        "children": [],
                                        "depth": 1,
                                        "name": "transfer",
                                        "value": 28549
                                    },
                                    {
                                        "children": [],
                                        "depth": 1,
                                        "name": "balanceOf",
                                        "value": 741
                                    }
                                ],
                                "depth": 0,
                                "name": "Executed Gas",
                                "value": 142929
                            }
                        ],
                        "depth": -1,
                        "name": "Actual Gas Used",
                        "value": 119905
                    },
                    {
                        "children": [],
                        "depth": -1,
                        "name": "Refunded Gas",
                        "value": 45000
                    }
                ],
                "depth": -2,
                "name": "Total Gas",
                "value": 164905
            }
        ],
        "isConfirmed": true,
        "mainTrace": [
            {
                "children": [
                    {
                        "children": [
                            {
                                "children": [],
                                "depth": 1,
                                "id": 1,
                                "order": 1
                            },
                            {
                                "children": [],
                                "depth": 1,
                                "id": 2,
                                "order": 2
                            },
                            {
                                "children": [],
                                "depth": 1,
                                "id": 3,
                                "order": 3
                            },
                            {
                                "children": [],
                                "depth": 1,
                                "id": 4,
                                "order": 4
                            },
                            {
                                "children": [],
                                "depth": 1,
                                "id": 5,
                                "order": 5
                            },
                            {
                                "children": [
                                    {
                                        "children": [],
                                        "depth": 2,
                                        "id": 7,
                                        "order": 7
                                    }
                                ],
                                "depth": 1,
                                "id": 6,
                                "order": 6
                            },
                            {
                                "children": [],
                                "depth": 1,
                                "id": 8,
                                "order": 8
                            },
                            {
                                "children": [],
                                "depth": 1,
                                "id": 9,
                                "order": 9
                            }
                        ],
                        "depth": 0,
                        "id": 0,
                        "order": 0
                    }
                ],
                "depth": -1,
                "id": -1,
                "order": -1
            }
        ],
        "mainTraceNodeCount": 10,
        "parentIdMap": {
            "0": -1,
            "1": 0,
            "2": 0,
            "3": 0,
            "4": 0,
            "5": 0,
            "6": 0,
            "7": 6,
            "8": 0,
            "9": 0
        },
        "tidyTrace": [
            {
                "children": [
                    {
                        "children": [
                            {
                                "children": [],
                                "depth": 1,
                                "id": 1,
                                "order": 1
                            },
                            {
                                "children": [],
                                "depth": 1,
                                "id": 2,
                                "order": 2
                            },
                            {
                                "children": [],
                                "depth": 1,
                                "id": 3,
                                "order": 3
                            },
                            {
                                "children": [],
                                "depth": 1,
                                "id": 4,
                                "order": 4
                            },
                            {
                                "children": [],
                                "depth": 1,
                                "id": 5,
                                "order": 5
                            },
                            {
                                "children": [
                                    {
                                        "children": [],
                                        "depth": 2,
                                        "id": 7,
                                        "order": 7
                                    }
                                ],
                                "depth": 1,
                                "id": 6,
                                "order": 6
                            },
                            {
                                "children": [],
                                "depth": 1,
                                "id": 8,
                                "order": 8
                            },
                            {
                                "children": [],
                                "depth": 1,
                                "id": 9,
                                "order": 9
                            }
                        ],
                        "depth": 0,
                        "id": 0,
                        "order": 0
                    }
                ],
                "depth": -1,
                "id": -1,
                "order": -1
            }
        ],
        "tidyTraceNodeCount": 10
    },
    "state_change": {
        "stateChanges": [
            {
                "address": "0x38bcaf0d4fb50e391fb9d8640612cdf90ba8c3eb",
                "erc": "",
                "slots": [
                    {
                        "current": "0x0000000000000000000000000000000000000000000000000000000000018d76",
                        "key": "0x9bc150d1a02d0d3a02c2c356b91265c30ccc61e7f5630eb96c65e02481dbde7a",
                        "prev": "0x0000000000000000000000000000000000000000000000000000000000013a38"
                    },
                    {
                        "current": "0x000000000000000000000000000000000000000000000000000000005dc11ec2",
                        "key": "0x9bc150d1a02d0d3a02c2c356b91265c30ccc61e7f5630eb96c65e02481dbde79",
                        "prev": "0x000000000000000000000000000000000000000000000000000000005db106c1"
                    }
                ],
                "storageVariables": [
                    {
                        "name": "mTracker",
                        "type": "mapping(address => struct ReserveFund.MTracker[])",
                        "value": {
                            "pairs": [
                                {
                                    "key": "0xaca31159539c1c6465d039880b71a6614c07de50",
                                    "value": {
                                        "elemType": "struct ReserveFund.MTracker",
                                        "elems": [
                                            {
                                                "index": 0,
                                                "value": {
                                                    "fields": [
                                                        {
                                                            "name": "time",
                                                            "type": "uint256",
                                                            "value": {
                                                                "current": "1572937410",
                                                                "prev": "1571882689",
                                                                "typeTag": 1
                                                            }
                                                        },
                                                        {
                                                            "name": "amount",
                                                            "type": "uint256",
                                                            "value": {
                                                                "current": "101750",
                                                                "prev": "80440",
                                                                "typeTag": 1
                                                            }
                                                        }
                                                    ],
                                                    "typeTag": 3
                                                }
                                            }
                                        ],
                                        "typeTag": 2
                                    }
                                }
                            ],
                            "typeTag": 4
                        }
                    }
                ]
            },
            {
                "address": "0x5e7ebea68ab05198f771d77a875480314f1d0aae",
                "erc": "ERC-20",
                "slots": [
                    {
                        "current": "0x00000000000000000000000000000000000000000000000790fd28abdbe9a080",
                        "key": "0xfd906f0ea98ad2920e6af1eccb43636835e363ef0d3261a3608f35ee5359087b",
                        "prev": "0x0000000000000000000000000000000000000000000000000000000000000000"
                    },
                    {
                        "current": "0x000000000000000000000000000000000000000000a2c49ddd2dbf22c7df9d5a",
                        "key": "0x1fdc520dfbf57519ec7da1ee7b9e49aec8b594cf6fc98a9798b521f7cd88cce6",
                        "prev": "0x000000000000000000000000000000000000000000a2c4a56e2ae7cea3c93dda"
                    }
                ],
                "storageVariables": [
                    {
                        "name": "_balances",
                        "type": "mapping(address => uint256)",
                        "value": {
                            "pairs": [
                                {
                                    "key": "0x38bcaf0d4fb50e391fb9d8640612cdf90ba8c3eb",
                                    "value": {
                                        "current": "196774478684636761601056090",
                                        "prev": "196774618259396706731376090",
                                        "typeTag": 1
                                    }
                                },
                                {
                                    "key": "0xaca31159539c1c6465d039880b71a6614c07de50",
                                    "value": {
                                        "current": "139574759945130320000",
                                        "prev": "0",
                                        "typeTag": 1
                                    }
                                }
                            ],
                            "typeTag": 4
                        }
                    }
                ]
            },
            {
                "address": "0x7ee36450e39e1058eb06fa953e268b21f142365b",
                "erc": "",
                "slots": [
                    {
                        "current": "0x0000000000000000000000000000000000000000000000000000000000000005",
                        "key": "0xa34dc365f9a8fc9e30ac11df6f8041b96ccce0cd5127920bfb08ef19b40ced40",
                        "prev": "0x0000000000000000000000000000000000000000000000000000000000018d7b"
                    },
                    {
                        "current": "0x00000000000000000000000000000000000000000000000000000000000a2be6",
                        "key": "0xa34dc365f9a8fc9e30ac11df6f8041b96ccce0cd5127920bfb08ef19b40ced42",
                        "prev": "0x0000000000000000000000000000000000000000000000000000000000089e70"
                    }
                ],
                "storageVariables": [
                    {
                        "name": "userWallets",
                        "type": "mapping(address => struct Wallet.Balance)",
                        "value": {
                            "pairs": [
                                {
                                    "key": "0xaca31159539c1c6465d039880b71a6614c07de50",
                                    "value": {
                                        "fields": [
                                            {
                                                "name": "profitBalance",
                                                "type": "uint256",
                                                "value": {
                                                    "current": "5",
                                                    "prev": "101755",
                                                    "typeTag": 1
                                                }
                                            },
                                            {
                                                "name": "amountToMineToken",
                                                "type": "uint256",
                                                "value": {
                                                    "current": "666598",
                                                    "prev": "564848",
                                                    "typeTag": 1
                                                }
                                            }
                                        ],
                                        "typeTag": 3
                                    }
                                }
                            ],
                            "typeTag": 4
                        }
                    }
                ]
            }
        ]
    }
}