{
    "balance_change": {
        "balanceChanges": [
            {
                "account": "0x1e02da70cd46bcdaf8992f5c4cff9d0ad9d2d8ff",
                "assets": [
                    {
                        "address": "0xdac17f958d2ee523a2206206994597c13d831ec7",
                        "amount": "104.4182",
                        "iconUrl": "https://assets.blocksec.com/icon/fcea71f3193ce895be44bfdf941f7e4c9381dd587f273c2d1a27f1263d84e4ea.png",
                        "isERC1155": false,
                        "isERC721": false,
                        "sign": false,
                        "value": "104.4286157"
                    }
                ]
            },
            {
                "account": "0x655a001668b6cb523c4e2791a98e060fd3285f1d",
                "assets": [
                    {
                        "address": "0xdac17f958d2ee523a2206206994597c13d831ec7",
                        "amount": "104.4182",
                        "iconUrl": "https://assets.blocksec.com/icon/fcea71f3193ce895be44bfdf941f7e4c9381dd587f273c2d1a27f1263d84e4ea.png",
                        "isERC1155": false,
                        "isERC721": false,
                        "sign": true,
                        "value": "104.4286157"
                    }
                ]
            }
        ]
    },
    "profile": {
        "basic_info": {
            "baseFee": "12.923028892",
            "blockNumber": 15106022,
            "callData": "0xa9059cbb000000000000000000000000655a001668b6cb523c4e2791a98e060fd3285f1d0000000000000000000000000000000000000000000000000000000006394b98",
            "debugEnable": true,
            "errorInfo": "",
            "eventCount": 1,
            "feeRecipient": "0x5b310960a7922092fdcb9295ece336012f9cf87e",
            "formatValue": "0",
            "gasLimit": 69145,
            "gasPrice": "14.423028892",
            "gasUsed": 46097,
            "intTxnCount": 0,
            "internalRevert": false,
            "internalRevertMessage": "",
            "isContractCreation": false,
            "isFlashloan": false,
            "maxFee": "14.995717568",
            "nonce": 14,
            "overwritedBlockNumber": -1,
            "priorityFee": "1.5",
            "receiver": "0xdac17f958d2ee523a2206206994597c13d831ec7",
            "revertMessage": "",
            "sender": "0x1e02da70cd46bcdaf8992f5c4cff9d0ad9d2d8ff",
            "simulationEnable": true,
            "sourceTxnHash": "0x176bc018155185a4bc4d1b2f27c817e86c241bb39ddf3ddf6530cd9eb6b421fe",
            "status": true,
            "timestamp": "2022-07-09T03:45:48Z",
            "transactionFee": "0.000664858362834524",
            "txnHash": "0x176bc018155185a4bc4d1b2f27c817e86c241bb39ddf3ddf6530cd9eb6b421fe",
            "txnIndex": 10,
            "type": 2,
            "value": "0"
        },
        "fund_flow": [
            {
                "amount": "104.4182",
                "from": "0x1e02da70cd46bcdaf8992f5c4cff9d0ad9d2d8ff",
                "id": 1,
                "isERC1155": false,
                "isERC721": false,
                "isReverted": false,
                "order": 1,
                "to": "0x655a001668b6cb523c4e2791a98e060fd3285f1d",
                "token": "0xdac17f958d2ee523a2206206994597c13d831ec7"
            }
        ],
        "token_infos": [
            {
                "address": "0xc02aaa39b223fe8d0a0e5c4f27ead9083c756cc2",
                "decimals": 18
            },
            {
                "address": "0xdac17f958d2ee523a2206206994597c13d831ec7",
                "decimals": 6
            },
            {
                "address": "0xeeeeeeeeeeeeeeeeeeeeeeeeeeeeeeeeeeeeeeee",
                "decimals": 18
            }
        ]
    },
    "address_label": {
        "labels": [
            {
                "address": "0x0000000000000000000000000000000000000003",
                "label": "Precompiled"
            },
            {
                "address": "0x0000000000000000000000000000000000000004",
                "label": "Precompiled"
            },
            {
                "address": "0xeeeeeeeeeeeeeeeeeeeeeeeeeeeeeeeeeeeeeeee",
                "label": "Ether"
            },
            {
                "address": "0xdac17f958d2ee523a2206206994597c13d831ec7",
                "label": "Tether: USDT Stablecoin"
            },
            {
                "address": "0x655a001668b6cb523c4e2791a98e060fd3285f1d",
                "label": "BINANCE US"
            },
            {
                "address": "0x0000000000000000000000000000000000000001",
                "label": "Precompiled"
            },
            {
                "address": "0x0000000000000000000000000000000000000002",
                "label": "Precompiled"
            }
        ]
    },
    "trace": {
        "accountLabels": null,
        "dataMap": {
            "-1": {
                "invocation": {
                    "address": "0x1e02da70cd46bcdaf8992f5c4cff9d0ad9d2d8ff",
                    "callData": "",
                    "decodedMethod": null,
                    "errorInfo": "",
                    "fromAddress": "",
                    "gasUsed": 0,
                    "id": -1,
                    "methodDecoded": false,
                    "operation": "",
                    "output": "",
                    "revert": false,
                    "revertMessage": "",
                    "selector": "",
                    "status": false,
                    "value": ""
                },
                "nodeType": 0
            },
            "0": {
                "invocation": {
                    "address": "0xdac17f958d2ee523a2206206994597c13d831ec7",
                    "callData": "0x000000000000000000000000655a001668b6cb523c4e2791a98e060fd3285f1d0000000000000000000000000000000000000000000000000000000006394b98",
                    "decodedMethod": {
                        "callParams": [
                            {
                                "name": "_to",
                                "type": "address",
                                "value": "0x655a001668b6cb523c4e2791a98e060fd3285f1d"
                            },
                            {
                                "decimalAvailable": true,
                                "name": "_value",
                                "type": "uint256",
                                "value": "104,418,200"
                            }
                        ],
                        "constructorArguments": "",
                        "name": "transfer",
                        "returnParams": [],
                        "signature": "transfer(address,uint256)"
                    },
                    "errorInfo": "",
                    "fromAddress": "0x1e02da70cd46bcdaf8992f5c4cff9d0ad9d2d8ff",
                    "gasUsed": 46097,
                    "id": 0,
                    "methodDecoded": true,
                    "operation": "CALL",
                    "output": "",
                    "revert": false,
                    "revertMessage": "",
                    "selector": "0xa9059cbb",
                    "status": true,
                    "value": "0"
                },
                "nodeType": 0
            },
            "1": {
                "event": {
                    "contract": "0xdac17f958d2ee523a2206206994597c13d831ec7",
                    "decodedLog": {
                        "name": "Transfer",
                        "params": [
                            {
                                "name": "from",
                                "type": "address",
                                "value": "0x1e02da70cd46bcdaf8992f5c4cff9d0ad9d2d8ff"
                            },
                            {
                                "name": "to",
                                "type": "address",
                                "value": "0x655a001668b6cb523c4e2791a98e060fd3285f1d"
                            },
                            {
                                "decimalAvailable": true,
                                "name": "value",
                                "type": "uint256",
                                "value": "104,418,200"
                            }
                        ],
                        "signature": "Transfer(address,address,uint256)"
                    },
                    "id": 1,
                    "logData": "0x0000000000000000000000000000000000000000000000000000000006394b98",
                    "logDecoded": true,
                    "operation": "EVENT",
                    "revert": false,
                    "status": true,
                    "topics": [
                        "0xddf252ad1be2c89b69c2b068fc378daa952ba7f163c4a11628f55a4df523b3ef",
                        "0x0000000000000000000000001e02da70cd46bcdaf8992f5c4cff9d0ad9d2d8ff",
                        "0x000000000000000000000000655a001668b6cb523c4e2791a98e060fd3285f1d"
                    ]
                },
                "nodeType": 1
            }
        },
        "gasFlame": [
            {
                "children": [
                    {
                        "children": [
                            {
                                "children": [],
                                "depth": 0,
                                "name": "Initial Gas",
                                "value": 21596
                            },
                            {
                                "children": [],
                                "depth": 0,
                                "name": "Executed Gas",
                                "value": 24501
                            }
                        ],
                        "depth": -1,
                        "name": "Actual Gas Used",
                        "value": 46097
                    },
                    {
                        "children": [],
                        "depth": -1,
                        "name": "Refunded Gas",
                        "value": 0
                    }
                ],
                "depth": -2,
                "name": "Total Gas",
                "value": 46097
            }
        ],
        "isConfirmed": true,
        "mainTrace": [
            {
                "children": [
                    {
                        "children": [
                            {
                                "children": [],
                                "depth": 1,
                                "id": 1,
                                "order": 1
                            }
                        ],
                        "depth": 0,
                        "id": 0,
                        "order": 0
                    }
                ],
                "depth": -1,
                "id": -1,
                "order": -1
            }
        ],
        "mainTraceNodeCount": 2,
        "parentIdMap": {
            "0": -1,
            "1": 0
        },
        "tidyTrace": [
            {
                "children": [
                    {
                        "children": [
                            {
                                "children": [],
                                "depth": 1,
                                "id": 1,
                                "order": 1
                            }
                        ],
                        "depth": 0,
                        "id": 0,
                        "order": 0
                    }
                ],
                "depth": -1,
                "id": -1,
                "order": -1
            }
        ],
        "tidyTraceNodeCount": 2
    },
    "state_change": {
        "stateChanges": [
            {
                "address": "0xdac17f958d2ee523a2206206994597c13d831ec7",
                "erc": "ERC-20",
                "slots": [
                    {
                        "current": "0x000000000000000000000000000000000000000000000000000000000000000a",
                        "key": "0xd2141c52995f8b3e12dc73806cf9af7e3033a513e810b58d4700d2c6e9b800f4",
                        "prev": "0x0000000000000000000000000000000000000000000000000000000006394ba2"
                    },
                    {
                        "current": "0x000000000000000000000000000000000000000000000000000000001a2aa462",
                        "key": "0xed128a262c4540cc0941ac53a90b402ad8f03d3cf362e00ce8c0278dbb382ab4",
                        "prev": "0x0000000000000000000000000000000000000000000000000000000013f158ca"
                    }
                ],
                "storageVariables": [
                    {
                        "name": "balances",
                        "type": "mapping(address => uint256)",
                        "value": {
                            "pairs": [
                                {
                                    "key": "0x1e02da70cd46bcdaf8992f5c4cff9d0ad9d2d8ff",
                                    "value": {
                                        "current": "10",
                                        "prev": "104418210",
                                        "typeTag": 1
                                    }
                                },
                                {
                                    "key": "0x655a001668b6cb523c4e2791a98e060fd3285f1d",
                                    "value": {
                                        "current": "439002210",
                                        "prev": "334584010",
                                        "typeTag": 1
                                    }
                                }
                            ],
                            "typeTag": 4
                        }
                    }
                ]
            }
        ]
    }
}