{
    "balance_change": {
        "balanceChanges": []
    },
    "profile": {
        "basic_info": {
            "baseFee": "10.098662097",
            "blockNumber": 15380030,
            "callData": "0xa9059cbb000000000000000000000000a9d1e08c7793af67e9d92fe308d5697fb81d3e43000000000000000000000000000000000000000000000001f399b1438a100000",
            "debugEnable": true,
            "errorInfo": "execution reverted",
            "eventCount": 0,
            "feeRecipient": "0x1ad91ee08f21be3de0ba2ba6918e714da6b45836",
            "formatValue": "0",
            "gasLimit": 49223,
            "gasPrice": "12.098662097",
            "gasUsed": 48945,
            "intTxnCount": 1,
            "internalRevert": true,
            "internalRevertMessage": "",
            "isContractCreation": false,
            "isFlashloan": false,
            "maxFee": "20",
            "nonce": 18,
            "overwritedBlockNumber": -1,
            "priorityFee": "2",
            "receiver": "0x4fabb145d64652a948d72533023f6e7a623c7c53",
            "revertMessage": "",
            "sender": "0x2169b200d24634e95e7f5f305bfd7ad64bb4ab3b",
            "simulationEnable": true,
            "sourceTxnHash": "0x1785cf5b1973d3da256686cb76a5839e8e1694054817712c2736c7555cb6832c",
            "status": false,
            "timestamp": "2022-08-20T21:40:06Z",
            "transactionFee": "0.000592169016337665",
            "txnHash": "0x1785cf5b1973d3da256686cb76a5839e8e1694054817712c2736c7555cb6832c",
            "txnIndex": 81,
            "type": 2,
            "value": "0"
        },
        "fund_flow": [],
        "token_infos": [
            {
                "address": "0xc02aaa39b223fe8d0a0e5c4f27ead9083c756cc2",
                "decimals": 18
            },
            {
                "address": "0xeeeeeeeeeeeeeeeeeeeeeeeeeeeeeeeeeeeeeeee",
                "decimals": 18
            }
        ]
    },
    "address_label": {
        "labels": [
            {
                "address": "0xa9d1e08c7793af67e9d92fe308d5697fb81d3e43",
                "label": "Coinbase 10"
            },
            {
                "address": "0x5864c777697bf9881220328bf2f16908c9afcd7e",
                "label": "Binance USD (BUSD)"
            },
            {
                "address": "0x4fabb145d64652a948d72533023f6e7a623c7c53",
                "label": "Paxos: BUSD Token"
            },
            {
                "address": "0x2169b200d24634e95e7f5f305bfd7ad64bb4ab3b",
                "label": "COINBASE"
            },
            {
                "address": "0x0000000000000000000000000000000000000001",
                "label": "Precompiled"
            },
            {
                "address": "0x0000000000000000000000000000000000000002",
                "label": "Precompiled"
            },
            {
                "address": "0x0000000000000000000000000000000000000003",
                "label": "Precompiled"
            },
            {
                "address": "0xeeeeeeeeeeeeeeeeeeeeeeeeeeeeeeeeeeeeeeee",
                "label": "Ether"
            },
            {
                "address": "0x0000000000000000000000000000000000000004",
                "label": "Precompiled"
            }
        ]
    },
    "trace": {
        "accountLabels": null,
        "dataMap": {
            "-1": {
                "invocation": {
                    "address": "0x2169b200d24634e95e7f5f305bfd7ad64bb4ab3b",
                    "callData": "",
                    "decodedMethod": null,
                    "errorInfo": "",
                    "fromAddress": "",
                    "gasUsed": 0,
                    "id": -1,
                    "methodDecoded": false,
                    "operation": "",
                    "output": "",
                    "revert": false,
                    "revertMessage": "",
                    "selector": "",
                    "status": false,
                    "value": ""
                },
                "nodeType": 0
            },
            "0": {
                "invocation": {
                    "address": "0x4fabb145d64652a948d72533023f6e7a623c7c53",
                    "callData": "0x000000000000000000000000a9d1e08c7793af67e9d92fe308d5697fb81d3e43000000000000000000000000000000000000000000000001f399b1438a100000",
                    "decodedMethod": {
                        "callParams": [
                            {
                                "name": "_to",
                                "type": "address",
                                "value": "0xa9d1e08c7793af67e9d92fe308d5697fb81d3e43"
                            },
                            {
                                "decimalAvailable": true,
                                "name": "_value",
                                "type": "uint256",
                                "value": "36,000,000,000,000,000,000"
                            }
                        ],
                        "constructorArguments": "",
                        "name": "transfer",
                        "returnParams": [],
                        "signature": "transfer(address,uint256)"
                    },
                    "errorInfo": "execution reverted",
                    "fromAddress": "0x2169b200d24634e95e7f5f305bfd7ad64bb4ab3b",
                    "gasUsed": 48945,
                    "id": 0,
                    "methodDecoded": true,
                    "operation": "CALL",
                    "output": "",
                    "revert": true,
                    "revertMessage": "",
                    "selector": "0xa9059cbb",
                    "status": false,
                    "value": "0"
                },
                "nodeType": 0
            },
            "1": {
                "invocation": {
                    "address": "0x5864c777697bf9881220328bf2f16908c9afcd7e",
                    "callData": "0x000000000000000000000000a9d1e08c7793af67e9d92fe308d5697fb81d3e43000000000000000000000000000000000000000000000001f399b1438a100000",
                    "decodedMethod": {
                        "callParams": [
                            {
                                "name": "_to",
                                "type": "address",
                                "value": "0xa9d1e08c7793af67e9d92fe308d5697fb81d3e43"
                            },
                            {
                                "decimalAvailable": true,
                                "name": "_value",
                                "type": "uint256",
                                "value": "36,000,000,000,000,000,000"
                            }
                        ],
                        "constructorArguments": "",
                        "name": "transfer",
                        "returnParams": [],
                        "signature": "transfer(address,uint256)"
                    },
                    "errorInfo": "out of gas",
                    "fromAddress": "0x4fabb145d64652a948d72533023f6e7a623c7c53",
                    "gasUsed": 20021,
                    "id": 1,
                    "methodDecoded": true,
                    "operation": "DELEGATECALL",
                    "output": "",
                    "revert": true,
                    "revertMessage": "",
                    "selector": "0xa9059cbb",
                    "status": false,
                    "value": "0"
                },
                "nodeType": 0
            }
        },
        "gasFlame": [
            {
                "children": [
                    {
                        "children": [
                            {
                                "children": [],
                                "depth": 0,
                                "name": "Initial Gas",
                                "value": 21644
                            },
                            {
                                "children": [
                                    {
                                        "children": [],
                                        "depth": 1,
                                        "name": "transfer",
                                        "value": 20021
                                    }
                                ],
                                "depth": 0,
                                "name": "Executed Gas",
                                "value": 27301
                            }
                        ],
                        "depth": -1,
                        "name": "Actual Gas Used",
                        "value": 48945
                    },
                    {
                        "children": [],
                        "depth": -1,
                        "name": "Refunded Gas",
                        "value": 0
                    }
                ],
                "depth": -2,
                "name": "Total Gas",
                "value": 48945
            }
        ],
        "isConfirmed": true,
        "mainTrace": [
            {
                "children": [
                    {
                        "children": [
                            {
                                "children": [],
                                "depth": 1,
                                "id": 1,
                                "order": 1
                            }
                        ],
                        "depth": 0,
                        "id": 0,
                        "order": 0
                    }
                ],
                "depth": -1,
                "id": -1,
                "order": -1
            }
        ],
        "mainTraceNodeCount": 2,
        "parentIdMap": {
            "0": -1,
            "1": 0
        },
        "tidyTrace": [
            {
                "children": [
                    {
                        "children": [
                            {
                                "children": [],
                                "depth": 1,
                                "id": 1,
                                "order": 1
                            }
                        ],
                        "depth": 0,
                        "id": 0,
                        "order": 0
                    }
                ],
                "depth": -1,
                "id": -1,
                "order": -1
            }
        ],
        "tidyTraceNodeCount": 2
    },
    "state_change": {
        "stateChanges": []
    }
}