{
    "balance_change": {
        "balanceChanges": [
            {
                "account": "0x21cd7c7aeebbe898f18d03d1c540a0205682309b",
                "assets": [
                    {
                        "address": "0xeeeeeeeeeeeeeeeeeeeeeeeeeeeeeeeeeeeeeeee",
                        "amount": "30.3",
                        "iconUrl": "https://assets.blocksec.com/image/1663669189317-3.png",
                        "isERC1155": false,
                        "isERC721": false,
                        "sign": false,
                        "value": "10200.335652300000317"
                    },
                    {
                        "address": "0xdac17f958d2ee523a2206206994597c13d831ec7",
                        "amount": "11,101.2",
                        "iconUrl": "https://assets.blocksec.com/icon/fcea71f3193ce895be44bfdf941f7e4c9381dd587f273c2d1a27f1263d84e4ea.png",
                        "isERC1155": false,
                        "isERC721": false,
                        "sign": false,
                        "value": ""
                    }
                ]
            },
            {
                "account": "0xc83e009c7794e8f6d1954dc13c23a35fc4d039f6",
                "assets": [
                    {
                        "address": "0xeeeeeeeeeeeeeeeeeeeeeeeeeeeeeeeeeeeeeeee",
                        "amount": "30",
                        "iconUrl": "https://assets.blocksec.com/image/1663669189317-3.png",
                        "isERC1155": false,
                        "isERC721": false,
                        "sign": true,
                        "value": "10099.342230000000313"
                    },
                    {
                        "address": "0xdac17f958d2ee523a2206206994597c13d831ec7",
                        "amount": "11,101.2",
                        "iconUrl": "https://assets.blocksec.com/icon/fcea71f3193ce895be44bfdf941f7e4c9381dd587f273c2d1a27f1263d84e4ea.png",
                        "isERC1155": false,
                        "isERC721": false,
                        "sign": true,
                        "value": ""
                    },
                    {
                        "address": "0x04abeda201850ac0124161f037efd70c74ddc74c",
                        "amount": "3,072",
                        "iconUrl": "",
                        "isERC1155": false,
                        "isERC721": false,
                        "sign": true,
                        "value": "149.3257374"
                    }
                ]
            },
            {
                "account": "0x101d8b63a081dfff2b1364864345b7f071b052ac",
                "assets": [
                    {
                        "address": "0x04abeda201850ac0124161f037efd70c74ddc74c",
                        "amount": "576",
                        "iconUrl": "",
                        "isERC1155": false,
                        "isERC721": false,
                        "sign": true,
                        "value": "35.49362467"
                    }
                ]
            },
            {
                "account": "0x2f979c933aef4fcddd27c0fa5c54d8a780555b0a",
                "assets": [
                    {
                        "address": "0x04abeda201850ac0124161f037efd70c74ddc74c",
                        "amount": "3,840",
                        "iconUrl": "",
                        "isERC1155": false,
                        "isERC721": false,
                        "sign": false,
                        "value": "130.2679228"
                    }
                ]
            },
            {
                "account": "0x43121397631551357ea511e62163b76e39d44852",
                "assets": [
                    {
                        "address": "0xeeeeeeeeeeeeeeeeeeeeeeeeeeeeeeeeeeeeeeee",
                        "amount": "0.3",
                        "iconUrl": "https://assets.blocksec.com/image/1663669189317-3.png",
                        "isERC1155": false,
                        "isERC721": false,
                        "sign": true,
                        "value": "100.99342230000000314"
                    }
                ]
            },
            {
                "account": "0x6756927922d2a32cb799f261e4abc47652cde54b",
                "assets": [
                    {
                        "address": "0x04abeda201850ac0124161f037efd70c74ddc74c",
                        "amount": "192",
                        "iconUrl": "",
                        "isERC1155": false,
                        "isERC721": false,
                        "sign": true,
                        "value": "11.26162172"
                    }
                ]
            }
        ]
    },
    "profile": {
        "basic_info": {
            "baseFee": "",
            "blockNumber": 10901714,
            "callData": "0xf6a4932f000000000000000000000000000000000000000000000001a055690d9db800000000000000000000000000000000000000000000000000000000000295aede80000000000000000000000000dac17f958d2ee523a2206206994597c13d831ec7",
            "debugEnable": true,
            "errorInfo": "",
            "eventCount": 6,
            "feeRecipient": "0x5a0b54d5dc17e0aadc383d2db43b0a0d3e029c4c",
            "formatValue": "30.3",
            "gasLimit": 600000,
            "gasPrice": "89.18",
            "gasUsed": 524920,
            "intTxnCount": 28,
            "internalRevert": false,
            "internalRevertMessage": "",
            "isContractCreation": false,
            "isFlashloan": false,
            "maxFee": "",
            "nonce": 10141,
            "overwritedBlockNumber": -1,
            "priorityFee": "",
            "receiver": "0xc83e009c7794e8f6d1954dc13c23a35fc4d039f6",
            "revertMessage": "",
            "sender": "0x21cd7c7aeebbe898f18d03d1c540a0205682309b",
            "simulationEnable": true,
            "sourceTxnHash": "0x17e2eb529a2aff64ea4c2da0aa74576fc6b148e9b9e24f726336b8256f3c59f5",
            "status": true,
            "timestamp": "2020-09-20T21:31:46Z",
            "transactionFee": "0.0468123656",
            "txnHash": "0x17e2eb529a2aff64ea4c2da0aa74576fc6b148e9b9e24f726336b8256f3c59f5",
            "txnIndex": 129,
            "type": 0,
            "value": "30300000000000000000"
        },
        "fund_flow": [
            {
                "amount": "30.3",
                "from": "0x21cd7c7aeebbe898f18d03d1c540a0205682309b",
                "id": 1,
                "isERC1155": false,
                "isERC721": false,
                "isReverted": false,
                "order": 1,
                "to": "0xc83e009c7794e8f6d1954dc13c23a35fc4d039f6",
                "token": "0xeeeeeeeeeeeeeeeeeeeeeeeeeeeeeeeeeeeeeeee"
            },
            {
                "amount": "11,101.2",
                "from": "0x21cd7c7aeebbe898f18d03d1c540a0205682309b",
                "id": 2,
                "isERC1155": false,
                "isERC721": false,
                "isReverted": false,
                "order": 2,
                "to": "0xc83e009c7794e8f6d1954dc13c23a35fc4d039f6",
                "token": "0xdac17f958d2ee523a2206206994597c13d831ec7"
            },
            {
                "amount": "3,840",
                "from": "0x2f979c933aef4fcddd27c0fa5c54d8a780555b0a",
                "id": 3,
                "isERC1155": false,
                "isERC721": false,
                "isReverted": false,
                "order": 3,
                "to": "0xc83e009c7794e8f6d1954dc13c23a35fc4d039f6",
                "token": "0x04abeda201850ac0124161f037efd70c74ddc74c"
            },
            {
                "amount": "0.3",
                "from": "0xc83e009c7794e8f6d1954dc13c23a35fc4d039f6",
                "id": 4,
                "isERC1155": false,
                "isERC721": false,
                "isReverted": false,
                "order": 4,
                "to": "0x43121397631551357ea511e62163b76e39d44852",
                "token": "0xeeeeeeeeeeeeeeeeeeeeeeeeeeeeeeeeeeeeeeee"
            },
            {
                "amount": "576",
                "from": "0xc83e009c7794e8f6d1954dc13c23a35fc4d039f6",
                "id": 5,
                "isERC1155": false,
                "isERC721": false,
                "isReverted": false,
                "order": 5,
                "to": "0x101d8b63a081dfff2b1364864345b7f071b052ac",
                "token": "0x04abeda201850ac0124161f037efd70c74ddc74c"
            },
            {
                "amount": "192",
                "from": "0xc83e009c7794e8f6d1954dc13c23a35fc4d039f6",
                "id": 6,
                "isERC1155": false,
                "isERC721": false,
                "isReverted": false,
                "order": 6,
                "to": "0x6756927922d2a32cb799f261e4abc47652cde54b",
                "token": "0x04abeda201850ac0124161f037efd70c74ddc74c"
            }
        ],
        "token_infos": [
            {
                "address": "0x04abeda201850ac0124161f037efd70c74ddc74c",
                "decimals": 18
            },
            {
                "address": "0xc02aaa39b223fe8d0a0e5c4f27ead9083c756cc2",
                "decimals": 18
            },
            {
                "address": "0xdac17f958d2ee523a2206206994597c13d831ec7",
                "decimals": 6
            },
            {
                "address": "0xeeeeeeeeeeeeeeeeeeeeeeeeeeeeeeeeeeeeeeee",
                "decimals": 18
            }
        ]
    },
    "address_label": {
        "labels": [
            {
                "address": "0x7722891ee45ad38ae05bda8349ba4cf23cfd270f",
                "label": "NEST Protocol: Oracle Call"
            },
            {
                "address": "0xb086f99e36c2c0ef6c051ee9e4d638717bbc6cbc",
                "label": "NEST_NodeAssignmentData"
            },
            {
                "address": "0x0000000000000000000000000000000000000002",
                "label": "Precompiled"
            },
            {
                "address": "0xeeeeeeeeeeeeeeeeeeeeeeeeeeeeeeeeeeeeeeee",
                "label": "Ether"
            },
            {
                "address": "0x39d0f58f5d5bbd636be23a3184aff16a4d7567cf",
                "label": "NEST_NodeAssignment"
            },
            {
                "address": "0x0000000000000000000000000000000000000001",
                "label": "Precompiled"
            },
            {
                "address": "0x43121397631551357ea511e62163b76e39d44852",
                "label": "NEST Protocol: Revenue Pool"
            },
            {
                "address": "0x04abeda201850ac0124161f037efd70c74ddc74c",
                "label": "NEST Protocol: Old NEST Token"
            },
            {
                "address": "0xdac17f958d2ee523a2206206994597c13d831ec7",
                "label": "Tether: USDT Stablecoin"
            },
            {
                "address": "0x03c513ffbdbda34b4a66b3052fa5e0e6606e531b",
                "label": "IterableMapping"
            },
            {
                "address": "0x0000000000000000000000000000000000000003",
                "label": "Precompiled"
            },
            {
                "address": "0x0000000000000000000000000000000000000004",
                "label": "Precompiled"
            },
            {
                "address": "0x6cd5698e8854fb6879d6b1c694223b389b465dea",
                "label": "NEST Protocol: Voting"
            },
            {
                "address": "0x2f979c933aef4fcddd27c0fa5c54d8a780555b0a",
                "label": "NEST Protocol: Mining Pool"
            },
            {
                "address": "0xc83e009c7794e8f6d1954dc13c23a35fc4d039f6",
                "label": "NEST Protocol: Oracle ETH/USDT"
            }
        ]
    },
    "trace": {
        "accountLabels": null,
        "dataMap": {
            "-1": {
                "invocation": {
                    "address": "0x21cd7c7aeebbe898f18d03d1c540a0205682309b",
                    "callData": "",
                    "decodedMethod": null,
                    "errorInfo": "",
                    "fromAddress": "",
                    "gasUsed": 0,
                    "id": -1,
                    "methodDecoded": false,
                    "operation": "",
                    "output": "",
                    "revert": false,
                    "revertMessage": "",
                    "selector": "",
                    "status": false,
                    "value": ""
                },
                "nodeType": 0
            },
            "0": {
                "invocation": {
                    "address": "0xc83e009c7794e8f6d1954dc13c23a35fc4d039f6",
                    "callData": "0x000000000000000000000000000000000000000000000001a055690d9db800000000000000000000000000000000000000000000000000000000000295aede80000000000000000000000000dac17f958d2ee523a2206206994597c13d831ec7",
                    "decodedMethod": {
                        "callParams": [
                            {
                                "name": "ethAmount",
                                "type": "uint256",
                                "value": "30,000,000,000,000,000,000"
                            },
                            {
                                "name": "erc20Amount",
                                "type": "uint256",
                                "value": "11,101,200,000"
                            },
                            {
                                "name": "erc20Address",
                                "type": "address",
                                "value": "0xdac17f958d2ee523a2206206994597c13d831ec7"
                            }
                        ],
                        "constructorArguments": "",
                        "name": "offer",
                        "returnParams": [],
                        "signature": "offer(uint256,uint256,address)"
                    },
                    "errorInfo": "",
                    "fromAddress": "0x21cd7c7aeebbe898f18d03d1c540a0205682309b",
                    "gasUsed": 524920,
                    "id": 0,
                    "methodDecoded": true,
                    "operation": "CALL",
                    "output": "",
                    "revert": false,
                    "revertMessage": "",
                    "selector": "0xf6a4932f",
                    "status": true,
                    "value": "30.3"
                },
                "nodeType": 0
            },
            "1": {
                "invocation": {
                    "address": "0x7722891ee45ad38ae05bda8349ba4cf23cfd270f",
                    "callData": "0x000000000000000000000000dac17f958d2ee523a2206206994597c13d831ec7",
                    "decodedMethod": {
                        "callParams": [
                            {
                                "name": "tokenAddress",
                                "type": "address",
                                "value": "0xdac17f958d2ee523a2206206994597c13d831ec7"
                            }
                        ],
                        "constructorArguments": "",
                        "name": "updateAndCheckPricePrivate",
                        "returnParams": [
                            {
                                "name": "ethAmount",
                                "type": "uint256",
                                "value": "30,000,000,000,000,000,000"
                            },
                            {
                                "name": "erc20Amount",
                                "type": "uint256",
                                "value": "11,071,800,000"
                            }
                        ],
                        "signature": "updateAndCheckPricePrivate(address)"
                    },
                    "errorInfo": "",
                    "fromAddress": "0xc83e009c7794e8f6d1954dc13c23a35fc4d039f6",
                    "gasUsed": 7721,
                    "id": 1,
                    "methodDecoded": true,
                    "operation": "STATICCALL",
                    "output": "0x000000000000000000000000000000000000000000000001a055690d9db800000000000000000000000000000000000000000000000000000000000293ee42c0",
                    "revert": false,
                    "revertMessage": "",
                    "selector": "0x81ead24c",
                    "status": true,
                    "value": "0"
                },
                "nodeType": 0
            },
            "10": {
                "invocation": {
                    "address": "0x03c513ffbdbda34b4a66b3052fa5e0e6606e531b",
                    "callData": "0x00000000000000000000000000000000000000000000000000000000000000000000000000000000000000002f979c933aef4fcddd27c0fa5c54d8a780555b0a",
                    "decodedMethod": null,
                    "errorInfo": "",
                    "fromAddress": "0x04abeda201850ac0124161f037efd70c74ddc74c",
                    "gasUsed": 1269,
                    "id": 10,
                    "methodDecoded": false,
                    "operation": "DELEGATECALL",
                    "output": "0x00000000000000000000000000000000000000001ac2dd92321dfe6e172ffa24",
                    "revert": false,
                    "revertMessage": "",
                    "selector": "0x4c5e1cae",
                    "status": true,
                    "value": "0"
                },
                "nodeType": 0
            },
            "11": {
                "invocation": {
                    "address": "0x03c513ffbdbda34b4a66b3052fa5e0e6606e531b",
                    "callData": "0x00000000000000000000000000000000000000000000000000000000000000000000000000000000000000002f979c933aef4fcddd27c0fa5c54d8a780555b0a",
                    "decodedMethod": null,
                    "errorInfo": "",
                    "fromAddress": "0x04abeda201850ac0124161f037efd70c74ddc74c",
                    "gasUsed": 1269,
                    "id": 11,
                    "methodDecoded": false,
                    "operation": "DELEGATECALL",
                    "output": "0x00000000000000000000000000000000000000001ac2dd92321dfe6e172ffa24",
                    "revert": false,
                    "revertMessage": "",
                    "selector": "0x4c5e1cae",
                    "status": true,
                    "value": "0"
                },
                "nodeType": 0
            },
            "12": {
                "invocation": {
                    "address": "0x03c513ffbdbda34b4a66b3052fa5e0e6606e531b",
                    "callData": "0x00000000000000000000000000000000000000000000000000000000000000000000000000000000000000002f979c933aef4fcddd27c0fa5c54d8a780555b0a00000000000000000000000000000000000000001ac2dcc20769779f3b2ffa24",
                    "decodedMethod": null,
                    "errorInfo": "",
                    "fromAddress": "0x04abeda201850ac0124161f037efd70c74ddc74c",
                    "gasUsed": 6496,
                    "id": 12,
                    "methodDecoded": false,
                    "operation": "DELEGATECALL",
                    "output": "0x0000000000000000000000000000000000000000000000000000000000000001",
                    "revert": false,
                    "revertMessage": "",
                    "selector": "0xab517b4f",
                    "status": true,
                    "value": "0"
                },
                "nodeType": 0
            },
            "13": {
                "invocation": {
                    "address": "0x03c513ffbdbda34b4a66b3052fa5e0e6606e531b",
                    "callData": "0x0000000000000000000000000000000000000000000000000000000000000000000000000000000000000000c83e009c7794e8f6d1954dc13c23a35fc4d039f6",
                    "decodedMethod": null,
                    "errorInfo": "",
                    "fromAddress": "0x04abeda201850ac0124161f037efd70c74ddc74c",
                    "gasUsed": 1269,
                    "id": 13,
                    "methodDecoded": false,
                    "operation": "DELEGATECALL",
                    "output": "0x0000000000000000000000000000000000000000000004a28d050067e6000744",
                    "revert": false,
                    "revertMessage": "",
                    "selector": "0x4c5e1cae",
                    "status": true,
                    "value": "0"
                },
                "nodeType": 0
            },
            "14": {
                "invocation": {
                    "address": "0x03c513ffbdbda34b4a66b3052fa5e0e6606e531b",
                    "callData": "0x0000000000000000000000000000000000000000000000000000000000000000000000000000000000000000c83e009c7794e8f6d1954dc13c23a35fc4d039f6000000000000000000000000000000000000000000000572b7b98736c2000744",
                    "decodedMethod": null,
                    "errorInfo": "",
                    "fromAddress": "0x04abeda201850ac0124161f037efd70c74ddc74c",
                    "gasUsed": 6496,
                    "id": 14,
                    "methodDecoded": false,
                    "operation": "DELEGATECALL",
                    "output": "0x0000000000000000000000000000000000000000000000000000000000000001",
                    "revert": false,
                    "revertMessage": "",
                    "selector": "0xab517b4f",
                    "status": true,
                    "value": "0"
                },
                "nodeType": 0
            },
            "15": {
                "event": {
                    "contract": "0x04abeda201850ac0124161f037efd70c74ddc74c",
                    "decodedLog": {
                        "name": "Transfer",
                        "params": [
                            {
                                "name": "from",
                                "type": "address",
                                "value": "0x2f979c933aef4fcddd27c0fa5c54d8a780555b0a"
                            },
                            {
                                "name": "to",
                                "type": "address",
                                "value": "0xc83e009c7794e8f6d1954dc13c23a35fc4d039f6"
                            },
                            {
                                "decimalAvailable": true,
                                "name": "value",
                                "type": "uint256",
                                "value": "3,840,000,000,000,000,000,000"
                            }
                        ],
                        "signature": "Transfer(address,address,uint256)"
                    },
                    "id": 15,
                    "logData": "0x0000000000000000000000000000000000000000000000d02ab486cedc000000",
                    "logDecoded": true,
                    "operation": "EVENT",
                    "revert": false,
                    "status": true,
                    "topics": [
                        "0xddf252ad1be2c89b69c2b068fc378daa952ba7f163c4a11628f55a4df523b3ef",
                        "0x0000000000000000000000002f979c933aef4fcddd27c0fa5c54d8a780555b0a",
                        "0x000000000000000000000000c83e009c7794e8f6d1954dc13c23a35fc4d039f6"
                    ]
                },
                "nodeType": 1
            },
            "16": {
                "event": {
                    "contract": "0x2f979c933aef4fcddd27c0fa5c54d8a780555b0a",
                    "decodedLog": {
                        "name": "OreDrawingLog",
                        "params": [
                            {
                                "name": "nowBlock",
                                "type": "uint256",
                                "value": "10,901,714"
                            },
                            {
                                "name": "blockAmount",
                                "type": "uint256",
                                "value": "3,840,000,000,000,000,000,000"
                            }
                        ],
                        "signature": "OreDrawingLog(uint256,uint256)"
                    },
                    "id": 16,
                    "logData": "0x0000000000000000000000000000000000000000000000000000000000a658d20000000000000000000000000000000000000000000000d02ab486cedc000000",
                    "logDecoded": true,
                    "operation": "EVENT",
                    "revert": false,
                    "status": true,
                    "topics": [
                        "0xe562eb487d0f4f5d86dc1c1fc74820ea3006c9d180ea22a48404eed0dac4a659"
                    ]
                },
                "nodeType": 1
            },
            "17": {
                "invocation": {
                    "address": "0x43121397631551357ea511e62163b76e39d44852",
                    "callData": "0x00000000000000000000000004abeda201850ac0124161f037efd70c74ddc74c",
                    "decodedMethod": {
                        "callParams": [
                            {
                                "name": "token",
                                "type": "address",
                                "value": "0x04abeda201850ac0124161f037efd70c74ddc74c"
                            }
                        ],
                        "constructorArguments": "",
                        "name": "switchToEth",
                        "returnParams": [],
                        "signature": "switchToEth(address)"
                    },
                    "errorInfo": "",
                    "fromAddress": "0xc83e009c7794e8f6d1954dc13c23a35fc4d039f6",
                    "gasUsed": 6319,
                    "id": 17,
                    "methodDecoded": true,
                    "operation": "CALL",
                    "output": "",
                    "revert": false,
                    "revertMessage": "",
                    "selector": "0xa10c2a78",
                    "status": true,
                    "value": "0.3"
                },
                "nodeType": 0
            },
            "18": {
                "invocation": {
                    "address": "0x39d0f58f5d5bbd636be23a3184aff16a4d7567cf",
                    "callData": "0x00000000000000000000000000000000000000000000001f399b1438a1000000",
                    "decodedMethod": {
                        "callParams": [
                            {
                                "name": "amount",
                                "type": "uint256",
                                "value": "576,000,000,000,000,000,000"
                            }
                        ],
                        "constructorArguments": "",
                        "name": "bookKeeping",
                        "returnParams": [],
                        "signature": "bookKeeping(uint256)"
                    },
                    "errorInfo": "",
                    "fromAddress": "0xc83e009c7794e8f6d1954dc13c23a35fc4d039f6",
                    "gasUsed": 47834,
                    "id": 18,
                    "methodDecoded": true,
                    "operation": "CALL",
                    "output": "",
                    "revert": false,
                    "revertMessage": "",
                    "selector": "0x40626025",
                    "status": true,
                    "value": "0"
                },
                "nodeType": 0
            },
            "19": {
                "invocation": {
                    "address": "0x04abeda201850ac0124161f037efd70c74ddc74c",
                    "callData": "0x000000000000000000000000c83e009c7794e8f6d1954dc13c23a35fc4d039f6000000000000000000000000101d8b63a081dfff2b1364864345b7f071b052ac00000000000000000000000000000000000000000000001f399b1438a1000000",
                    "decodedMethod": {
                        "callParams": [
                            {
                                "name": "_from",
                                "type": "address",
                                "value": "0xc83e009c7794e8f6d1954dc13c23a35fc4d039f6"
                            },
                            {
                                "name": "_to",
                                "type": "address",
                                "value": "0x101d8b63a081dfff2b1364864345b7f071b052ac"
                            },
                            {
                                "decimalAvailable": true,
                                "name": "_value",
                                "type": "uint256",
                                "value": "576,000,000,000,000,000,000"
                            }
                        ],
                        "constructorArguments": "",
                        "name": "transferFrom",
                        "returnParams": [
                            {
                                "name": "",
                                "type": "bool",
                                "value": true
                            }
                        ],
                        "signature": "transferFrom(address,address,uint256)"
                    },
                    "errorInfo": "",
                    "fromAddress": "0x39d0f58f5d5bbd636be23a3184aff16a4d7567cf",
                    "gasUsed": 31619,
                    "id": 19,
                    "methodDecoded": true,
                    "operation": "CALL",
                    "output": "0x0000000000000000000000000000000000000000000000000000000000000001",
                    "revert": false,
                    "revertMessage": "",
                    "selector": "0x23b872dd",
                    "status": true,
                    "value": "0"
                },
                "nodeType": 0
            },
            "2": {
                "event": {
                    "contract": "0xc83e009c7794e8f6d1954dc13c23a35fc4d039f6",
                    "decodedLog": {
                        "name": "OfferContractAddress",
                        "params": [
                            {
                                "name": "contractAddress",
                                "type": "address",
                                "value": "0x000000000000000000000000000000000001ceeb"
                            },
                            {
                                "name": "tokenAddress",
                                "type": "address",
                                "value": "0xdac17f958d2ee523a2206206994597c13d831ec7"
                            },
                            {
                                "name": "ethAmount",
                                "type": "uint256",
                                "value": "30,000,000,000,000,000,000"
                            },
                            {
                                "name": "erc20Amount",
                                "type": "uint256",
                                "value": "11,101,200,000"
                            },
                            {
                                "name": "continued",
                                "type": "uint256",
                                "value": "25"
                            },
                            {
                                "name": "serviceCharge",
                                "type": "uint256",
                                "value": "300,000,000,000,000,000"
                            }
                        ],
                        "signature": "OfferContractAddress(address,address,uint256,uint256,uint256,uint256)"
                    },
                    "id": 2,
                    "logData": "0x000000000000000000000000000000000000000000000000000000000001ceeb000000000000000000000000dac17f958d2ee523a2206206994597c13d831ec7000000000000000000000000000000000000000000000001a055690d9db800000000000000000000000000000000000000000000000000000000000295aede8000000000000000000000000000000000000000000000000000000000000000190000000000000000000000000000000000000000000000000429d069189e0000",
                    "logDecoded": true,
                    "operation": "EVENT",
                    "revert": false,
                    "status": true,
                    "topics": [
                        "0xb3ed50358b669287aff082dbd5407bd75efcac18c9267d946074dc90d8aae898"
                    ]
                },
                "nodeType": 1
            },
            "20": {
                "invocation": {
                    "address": "0x03c513ffbdbda34b4a66b3052fa5e0e6606e531b",
                    "callData": "0x0000000000000000000000000000000000000000000000000000000000000000000000000000000000000000c83e009c7794e8f6d1954dc13c23a35fc4d039f6",
                    "decodedMethod": null,
                    "errorInfo": "",
                    "fromAddress": "0x04abeda201850ac0124161f037efd70c74ddc74c",
                    "gasUsed": 1269,
                    "id": 20,
                    "methodDecoded": false,
                    "operation": "DELEGATECALL",
                    "output": "0x000000000000000000000000000000000000000000000572b7b98736c2000744",
                    "revert": false,
                    "revertMessage": "",
                    "selector": "0x4c5e1cae",
                    "status": true,
                    "value": "0"
                },
                "nodeType": 0
            },
            "21": {
                "invocation": {
                    "address": "0x03c513ffbdbda34b4a66b3052fa5e0e6606e531b",
                    "callData": "0x0000000000000000000000000000000000000000000000000000000000000000000000000000000000000000c83e009c7794e8f6d1954dc13c23a35fc4d039f6",
                    "decodedMethod": null,
                    "errorInfo": "",
                    "fromAddress": "0x04abeda201850ac0124161f037efd70c74ddc74c",
                    "gasUsed": 1269,
                    "id": 21,
                    "methodDecoded": false,
                    "operation": "DELEGATECALL",
                    "output": "0x000000000000000000000000000000000000000000000572b7b98736c2000744",
                    "revert": false,
                    "revertMessage": "",
                    "selector": "0x4c5e1cae",
                    "status": true,
                    "value": "0"
                },
                "nodeType": 0
            },
            "22": {
                "invocation": {
                    "address": "0x03c513ffbdbda34b4a66b3052fa5e0e6606e531b",
                    "callData": "0x0000000000000000000000000000000000000000000000000000000000000000000000000000000000000000c83e009c7794e8f6d1954dc13c23a35fc4d039f60000000000000000000000000000000000000000000005537e1e72fe21000744",
                    "decodedMethod": null,
                    "errorInfo": "",
                    "fromAddress": "0x04abeda201850ac0124161f037efd70c74ddc74c",
                    "gasUsed": 2296,
                    "id": 22,
                    "methodDecoded": false,
                    "operation": "DELEGATECALL",
                    "output": "0x0000000000000000000000000000000000000000000000000000000000000001",
                    "revert": false,
                    "revertMessage": "",
                    "selector": "0xab517b4f",
                    "status": true,
                    "value": "0"
                },
                "nodeType": 0
            },
            "23": {
                "invocation": {
                    "address": "0x03c513ffbdbda34b4a66b3052fa5e0e6606e531b",
                    "callData": "0x0000000000000000000000000000000000000000000000000000000000000000000000000000000000000000101d8b63a081dfff2b1364864345b7f071b052ac",
                    "decodedMethod": null,
                    "errorInfo": "",
                    "fromAddress": "0x04abeda201850ac0124161f037efd70c74ddc74c",
                    "gasUsed": 1269,
                    "id": 23,
                    "methodDecoded": false,
                    "operation": "DELEGATECALL",
                    "output": "0x00000000000000000000000000000000000000000002065ab27b1ead27090070",
                    "revert": false,
                    "revertMessage": "",
                    "selector": "0x4c5e1cae",
                    "status": true,
                    "value": "0"
                },
                "nodeType": 0
            },
            "24": {
                "invocation": {
                    "address": "0x03c513ffbdbda34b4a66b3052fa5e0e6606e531b",
                    "callData": "0x0000000000000000000000000000000000000000000000000000000000000000000000000000000000000000101d8b63a081dfff2b1364864345b7f071b052ac000000000000000000000000000000000000000000020679ec1632e5c8090070",
                    "decodedMethod": null,
                    "errorInfo": "",
                    "fromAddress": "0x04abeda201850ac0124161f037efd70c74ddc74c",
                    "gasUsed": 6496,
                    "id": 24,
                    "methodDecoded": false,
                    "operation": "DELEGATECALL",
                    "output": "0x0000000000000000000000000000000000000000000000000000000000000001",
                    "revert": false,
                    "revertMessage": "",
                    "selector": "0xab517b4f",
                    "status": true,
                    "value": "0"
                },
                "nodeType": 0
            },
            "25": {
                "event": {
                    "contract": "0x04abeda201850ac0124161f037efd70c74ddc74c",
                    "decodedLog": {
                        "name": "Transfer",
                        "params": [
                            {
                                "name": "from",
                                "type": "address",
                                "value": "0xc83e009c7794e8f6d1954dc13c23a35fc4d039f6"
                            },
                            {
                                "name": "to",
                                "type": "address",
                                "value": "0x101d8b63a081dfff2b1364864345b7f071b052ac"
                            },
                            {
                                "decimalAvailable": true,
                                "name": "value",
                                "type": "uint256",
                                "value": "576,000,000,000,000,000,000"
                            }
                        ],
                        "signature": "Transfer(address,address,uint256)"
                    },
                    "id": 25,
                    "logData": "0x00000000000000000000000000000000000000000000001f399b1438a1000000",
                    "logDecoded": true,
                    "operation": "EVENT",
                    "revert": false,
                    "status": true,
                    "topics": [
                        "0xddf252ad1be2c89b69c2b068fc378daa952ba7f163c4a11628f55a4df523b3ef",
                        "0x000000000000000000000000c83e009c7794e8f6d1954dc13c23a35fc4d039f6",
                        "0x000000000000000000000000101d8b63a081dfff2b1364864345b7f071b052ac"
                    ]
                },
                "nodeType": 1
            },
            "26": {
                "invocation": {
                    "address": "0xb086f99e36c2c0ef6c051ee9e4d638717bbc6cbc",
                    "callData": "0x00000000000000000000000000000000000000000000001f399b1438a1000000",
                    "decodedMethod": {
                        "callParams": [
                            {
                                "name": "amount",
                                "type": "uint256",
                                "value": "576,000,000,000,000,000,000"
                            }
                        ],
                        "constructorArguments": "",
                        "name": "addNest",
                        "returnParams": [],
                        "signature": "addNest(uint256)"
                    },
                    "errorInfo": "",
                    "fromAddress": "0x39d0f58f5d5bbd636be23a3184aff16a4d7567cf",
                    "gasUsed": 10309,
                    "id": 26,
                    "methodDecoded": true,
                    "operation": "CALL",
                    "output": "",
                    "revert": false,
                    "revertMessage": "",
                    "selector": "0x20c99aab",
                    "status": true,
                    "value": "0"
                },
                "nodeType": 0
            },
            "27": {
                "invocation": {
                    "address": "0x6cd5698e8854fb6879d6b1c694223b389b465dea",
                    "callData": "0x0000000000000000000000000000000000000000000000000000000000000020000000000000000000000000000000000000000000000000000000000000000e6e6f646541737369676e6d656e74000000000000000000000000000000000000",
                    "decodedMethod": {
                        "callParams": [
                            {
                                "name": "name",
                                "type": "string",
                                "value": "nodeAssignment"
                            }
                        ],
                        "constructorArguments": "",
                        "name": "checkAddress",
                        "returnParams": [
                            {
                                "name": "contractAddress",
                                "type": "address",
                                "value": "0x39d0f58f5d5bbd636be23a3184aff16a4d7567cf"
                            }
                        ],
                        "signature": "checkAddress(string)"
                    },
                    "errorInfo": "",
                    "fromAddress": "0xb086f99e36c2c0ef6c051ee9e4d638717bbc6cbc",
                    "gasUsed": 1734,
                    "id": 27,
                    "methodDecoded": true,
                    "operation": "STATICCALL",
                    "output": "0x00000000000000000000000039d0f58f5d5bbd636be23a3184aff16a4d7567cf",
                    "revert": false,
                    "revertMessage": "",
                    "selector": "0x8fe77e86",
                    "status": true,
                    "value": "0"
                },
                "nodeType": 0
            },
            "28": {
                "invocation": {
                    "address": "0x04abeda201850ac0124161f037efd70c74ddc74c",
                    "callData": "0x0000000000000000000000006756927922d2a32cb799f261e4abc47652cde54b00000000000000000000000000000000000000000000000a688906bd8b000000",
                    "decodedMethod": {
                        "callParams": [
                            {
                                "name": "_to",
                                "type": "address",
                                "value": "0x6756927922d2a32cb799f261e4abc47652cde54b"
                            },
                            {
                                "decimalAvailable": true,
                                "name": "_value",
                                "type": "uint256",
                                "value": "192,000,000,000,000,000,000"
                            }
                        ],
                        "constructorArguments": "",
                        "name": "transfer",
                        "returnParams": [
                            {
                                "name": "",
                                "type": "bool",
                                "value": true
                            }
                        ],
                        "signature": "transfer(address,uint256)"
                    },
                    "errorInfo": "",
                    "fromAddress": "0xc83e009c7794e8f6d1954dc13c23a35fc4d039f6",
                    "gasUsed": 24363,
                    "id": 28,
                    "methodDecoded": true,
                    "operation": "CALL",
                    "output": "0x0000000000000000000000000000000000000000000000000000000000000001",
                    "revert": false,
                    "revertMessage": "",
                    "selector": "0xa9059cbb",
                    "status": true,
                    "value": "0"
                },
                "nodeType": 0
            },
            "29": {
                "invocation": {
                    "address": "0x03c513ffbdbda34b4a66b3052fa5e0e6606e531b",
                    "callData": "0x0000000000000000000000000000000000000000000000000000000000000000000000000000000000000000c83e009c7794e8f6d1954dc13c23a35fc4d039f6",
                    "decodedMethod": null,
                    "errorInfo": "",
                    "fromAddress": "0x04abeda201850ac0124161f037efd70c74ddc74c",
                    "gasUsed": 1269,
                    "id": 29,
                    "methodDecoded": false,
                    "operation": "DELEGATECALL",
                    "output": "0x0000000000000000000000000000000000000000000005537e1e72fe21000744",
                    "revert": false,
                    "revertMessage": "",
                    "selector": "0x4c5e1cae",
                    "status": true,
                    "value": "0"
                },
                "nodeType": 0
            },
            "3": {
                "invocation": {
                    "address": "0x7722891ee45ad38ae05bda8349ba4cf23cfd270f",
                    "callData": "0x000000000000000000000000000000000000000000000001a055690d9db800000000000000000000000000000000000000000000000000000000000295aede800000000000000000000000000000000000000000000000000000000000a658eb000000000000000000000000dac17f958d2ee523a2206206994597c13d831ec700000000000000000000000021cd7c7aeebbe898f18d03d1c540a0205682309b",
                    "decodedMethod": {
                        "callParams": [
                            {
                                "name": "ethAmount",
                                "type": "uint256",
                                "value": "30,000,000,000,000,000,000"
                            },
                            {
                                "name": "tokenAmount",
                                "type": "uint256",
                                "value": "11,101,200,000"
                            },
                            {
                                "name": "endBlock",
                                "type": "uint256",
                                "value": "10,901,739"
                            },
                            {
                                "name": "tokenAddress",
                                "type": "address",
                                "value": "0xdac17f958d2ee523a2206206994597c13d831ec7"
                            },
                            {
                                "name": "offerOwner",
                                "type": "address",
                                "value": "0x21cd7c7aeebbe898f18d03d1c540a0205682309b"
                            }
                        ],
                        "constructorArguments": "",
                        "name": "addPrice",
                        "returnParams": [],
                        "signature": "addPrice(uint256,uint256,uint256,address,address)"
                    },
                    "errorInfo": "",
                    "fromAddress": "0xc83e009c7794e8f6d1954dc13c23a35fc4d039f6",
                    "gasUsed": 90732,
                    "id": 3,
                    "methodDecoded": true,
                    "operation": "CALL",
                    "output": "",
                    "revert": false,
                    "revertMessage": "",
                    "selector": "0x17ae7a58",
                    "status": true,
                    "value": "0"
                },
                "nodeType": 0
            },
            "30": {
                "invocation": {
                    "address": "0x03c513ffbdbda34b4a66b3052fa5e0e6606e531b",
                    "callData": "0x0000000000000000000000000000000000000000000000000000000000000000000000000000000000000000c83e009c7794e8f6d1954dc13c23a35fc4d039f6",
                    "decodedMethod": null,
                    "errorInfo": "",
                    "fromAddress": "0x04abeda201850ac0124161f037efd70c74ddc74c",
                    "gasUsed": 1269,
                    "id": 30,
                    "methodDecoded": false,
                    "operation": "DELEGATECALL",
                    "output": "0x0000000000000000000000000000000000000000000005537e1e72fe21000744",
                    "revert": false,
                    "revertMessage": "",
                    "selector": "0x4c5e1cae",
                    "status": true,
                    "value": "0"
                },
                "nodeType": 0
            },
            "31": {
                "invocation": {
                    "address": "0x03c513ffbdbda34b4a66b3052fa5e0e6606e531b",
                    "callData": "0x0000000000000000000000000000000000000000000000000000000000000000000000000000000000000000c83e009c7794e8f6d1954dc13c23a35fc4d039f600000000000000000000000000000000000000000000054915956c4096000744",
                    "decodedMethod": null,
                    "errorInfo": "",
                    "fromAddress": "0x04abeda201850ac0124161f037efd70c74ddc74c",
                    "gasUsed": 2296,
                    "id": 31,
                    "methodDecoded": false,
                    "operation": "DELEGATECALL",
                    "output": "0x0000000000000000000000000000000000000000000000000000000000000001",
                    "revert": false,
                    "revertMessage": "",
                    "selector": "0xab517b4f",
                    "status": true,
                    "value": "0"
                },
                "nodeType": 0
            },
            "32": {
                "invocation": {
                    "address": "0x03c513ffbdbda34b4a66b3052fa5e0e6606e531b",
                    "callData": "0x00000000000000000000000000000000000000000000000000000000000000000000000000000000000000006756927922d2a32cb799f261e4abc47652cde54b",
                    "decodedMethod": null,
                    "errorInfo": "",
                    "fromAddress": "0x04abeda201850ac0124161f037efd70c74ddc74c",
                    "gasUsed": 1269,
                    "id": 32,
                    "methodDecoded": false,
                    "operation": "DELEGATECALL",
                    "output": "0x0000000000000000000000000000000000000000000355e70571096ec5c13b2f",
                    "revert": false,
                    "revertMessage": "",
                    "selector": "0x4c5e1cae",
                    "status": true,
                    "value": "0"
                },
                "nodeType": 0
            },
            "33": {
                "invocation": {
                    "address": "0x03c513ffbdbda34b4a66b3052fa5e0e6606e531b",
                    "callData": "0x00000000000000000000000000000000000000000000000000000000000000000000000000000000000000006756927922d2a32cb799f261e4abc47652cde54b0000000000000000000000000000000000000000000355f16dfa102c50c13b2f",
                    "decodedMethod": null,
                    "errorInfo": "",
                    "fromAddress": "0x04abeda201850ac0124161f037efd70c74ddc74c",
                    "gasUsed": 6496,
                    "id": 33,
                    "methodDecoded": false,
                    "operation": "DELEGATECALL",
                    "output": "0x0000000000000000000000000000000000000000000000000000000000000001",
                    "revert": false,
                    "revertMessage": "",
                    "selector": "0xab517b4f",
                    "status": true,
                    "value": "0"
                },
                "nodeType": 0
            },
            "34": {
                "event": {
                    "contract": "0x04abeda201850ac0124161f037efd70c74ddc74c",
                    "decodedLog": {
                        "name": "Transfer",
                        "params": [
                            {
                                "name": "from",
                                "type": "address",
                                "value": "0xc83e009c7794e8f6d1954dc13c23a35fc4d039f6"
                            },
                            {
                                "name": "to",
                                "type": "address",
                                "value": "0x6756927922d2a32cb799f261e4abc47652cde54b"
                            },
                            {
                                "decimalAvailable": true,
                                "name": "value",
                                "type": "uint256",
                                "value": "192,000,000,000,000,000,000"
                            }
                        ],
                        "signature": "Transfer(address,address,uint256)"
                    },
                    "id": 34,
                    "logData": "0x00000000000000000000000000000000000000000000000a688906bd8b000000",
                    "logDecoded": true,
                    "operation": "EVENT",
                    "revert": false,
                    "status": true,
                    "topics": [
                        "0xddf252ad1be2c89b69c2b068fc378daa952ba7f163c4a11628f55a4df523b3ef",
                        "0x000000000000000000000000c83e009c7794e8f6d1954dc13c23a35fc4d039f6",
                        "0x0000000000000000000000006756927922d2a32cb799f261e4abc47652cde54b"
                    ]
                },
                "nodeType": 1
            },
            "4": {
                "invocation": {
                    "address": "0xdac17f958d2ee523a2206206994597c13d831ec7",
                    "callData": "0x00000000000000000000000021cd7c7aeebbe898f18d03d1c540a0205682309b000000000000000000000000c83e009c7794e8f6d1954dc13c23a35fc4d039f60000000000000000000000000000000000000000000000000000000295aede80",
                    "decodedMethod": {
                        "callParams": [
                            {
                                "name": "_from",
                                "type": "address",
                                "value": "0x21cd7c7aeebbe898f18d03d1c540a0205682309b"
                            },
                            {
                                "name": "_to",
                                "type": "address",
                                "value": "0xc83e009c7794e8f6d1954dc13c23a35fc4d039f6"
                            },
                            {
                                "decimalAvailable": true,
                                "name": "_value",
                                "type": "uint256",
                                "value": "11,101,200,000"
                            }
                        ],
                        "constructorArguments": "",
                        "name": "transferFrom",
                        "returnParams": [],
                        "signature": "transferFrom(address,address,uint256)"
                    },
                    "errorInfo": "",
                    "fromAddress": "0xc83e009c7794e8f6d1954dc13c23a35fc4d039f6",
                    "gasUsed": 25624,
                    "id": 4,
                    "methodDecoded": true,
                    "operation": "CALL",
                    "output": "",
                    "revert": false,
                    "revertMessage": "",
                    "selector": "0x23b872dd",
                    "status": true,
                    "value": "0"
                },
                "nodeType": 0
            },
            "5": {
                "event": {
                    "contract": "0xdac17f958d2ee523a2206206994597c13d831ec7",
                    "decodedLog": {
                        "name": "Transfer",
                        "params": [
                            {
                                "name": "from",
                                "type": "address",
                                "value": "0x21cd7c7aeebbe898f18d03d1c540a0205682309b"
                            },
                            {
                                "name": "to",
                                "type": "address",
                                "value": "0xc83e009c7794e8f6d1954dc13c23a35fc4d039f6"
                            },
                            {
                                "decimalAvailable": true,
                                "name": "value",
                                "type": "uint256",
                                "value": "11,101,200,000"
                            }
                        ],
                        "signature": "Transfer(address,address,uint256)"
                    },
                    "id": 5,
                    "logData": "0x0000000000000000000000000000000000000000000000000000000295aede80",
                    "logDecoded": true,
                    "operation": "EVENT",
                    "revert": false,
                    "status": true,
                    "topics": [
                        "0xddf252ad1be2c89b69c2b068fc378daa952ba7f163c4a11628f55a4df523b3ef",
                        "0x00000000000000000000000021cd7c7aeebbe898f18d03d1c540a0205682309b",
                        "0x000000000000000000000000c83e009c7794e8f6d1954dc13c23a35fc4d039f6"
                    ]
                },
                "nodeType": 1
            },
            "6": {
                "invocation": {
                    "address": "0x2f979c933aef4fcddd27c0fa5c54d8a780555b0a",
                    "callData": "0x",
                    "decodedMethod": {
                        "callParams": [],
                        "constructorArguments": "",
                        "name": "oreDrawing",
                        "returnParams": [
                            {
                                "name": "",
                                "type": "uint256",
                                "value": "3,840,000,000,000,000,000,000"
                            }
                        ],
                        "signature": "oreDrawing()"
                    },
                    "errorInfo": "",
                    "fromAddress": "0xc83e009c7794e8f6d1954dc13c23a35fc4d039f6",
                    "gasUsed": 48526,
                    "id": 6,
                    "methodDecoded": true,
                    "operation": "CALL",
                    "output": "0x0000000000000000000000000000000000000000000000d02ab486cedc000000",
                    "revert": false,
                    "revertMessage": "",
                    "selector": "0x46bf7cf8",
                    "status": true,
                    "value": "0"
                },
                "nodeType": 0
            },
            "7": {
                "invocation": {
                    "address": "0x04abeda201850ac0124161f037efd70c74ddc74c",
                    "callData": "0x0000000000000000000000002f979c933aef4fcddd27c0fa5c54d8a780555b0a",
                    "decodedMethod": {
                        "callParams": [
                            {
                                "name": "_owner",
                                "type": "address",
                                "value": "0x2f979c933aef4fcddd27c0fa5c54d8a780555b0a"
                            }
                        ],
                        "constructorArguments": "",
                        "name": "balanceOf",
                        "returnParams": [
                            {
                                "decimalAvailable": true,
                                "name": "",
                                "type": "uint256",
                                "value": "8,282,188,204,188,881,024,933,952,036"
                            }
                        ],
                        "signature": "balanceOf(address)"
                    },
                    "errorInfo": "",
                    "fromAddress": "0x2f979c933aef4fcddd27c0fa5c54d8a780555b0a",
                    "gasUsed": 3554,
                    "id": 7,
                    "methodDecoded": true,
                    "operation": "STATICCALL",
                    "output": "0x00000000000000000000000000000000000000001ac2dd92321dfe6e172ffa24",
                    "revert": false,
                    "revertMessage": "",
                    "selector": "0x70a08231",
                    "status": true,
                    "value": "0"
                },
                "nodeType": 0
            },
            "8": {
                "invocation": {
                    "address": "0x03c513ffbdbda34b4a66b3052fa5e0e6606e531b",
                    "callData": "0x00000000000000000000000000000000000000000000000000000000000000000000000000000000000000002f979c933aef4fcddd27c0fa5c54d8a780555b0a",
                    "decodedMethod": null,
                    "errorInfo": "",
                    "fromAddress": "0x04abeda201850ac0124161f037efd70c74ddc74c",
                    "gasUsed": 1269,
                    "id": 8,
                    "methodDecoded": false,
                    "operation": "DELEGATECALL",
                    "output": "0x00000000000000000000000000000000000000001ac2dd92321dfe6e172ffa24",
                    "revert": false,
                    "revertMessage": "",
                    "selector": "0x4c5e1cae",
                    "status": true,
                    "value": "0"
                },
                "nodeType": 0
            },
            "9": {
                "invocation": {
                    "address": "0x04abeda201850ac0124161f037efd70c74ddc74c",
                    "callData": "0x000000000000000000000000c83e009c7794e8f6d1954dc13c23a35fc4d039f60000000000000000000000000000000000000000000000d02ab486cedc000000",
                    "decodedMethod": {
                        "callParams": [
                            {
                                "name": "_to",
                                "type": "address",
                                "value": "0xc83e009c7794e8f6d1954dc13c23a35fc4d039f6"
                            },
                            {
                                "decimalAvailable": true,
                                "name": "_value",
                                "type": "uint256",
                                "value": "3,840,000,000,000,000,000,000"
                            }
                        ],
                        "constructorArguments": "",
                        "name": "transfer",
                        "returnParams": [
                            {
                                "name": "",
                                "type": "bool",
                                "value": true
                            }
                        ],
                        "signature": "transfer(address,uint256)"
                    },
                    "errorInfo": "",
                    "fromAddress": "0x2f979c933aef4fcddd27c0fa5c54d8a780555b0a",
                    "gasUsed": 28563,
                    "id": 9,
                    "methodDecoded": true,
                    "operation": "CALL",
                    "output": "0x0000000000000000000000000000000000000000000000000000000000000001",
                    "revert": false,
                    "revertMessage": "",
                    "selector": "0xa9059cbb",
                    "status": true,
                    "value": "0"
                },
                "nodeType": 0
            }
        },
        "gasFlame": [
            {
                "children": [
                    {
                        "children": [
                            {
                                "children": [],
                                "depth": 0,
                                "name": "Initial Gas",
                                "value": 21832
                            },
                            {
                                "children": [
                                    {
                                        "children": [],
                                        "depth": 1,
                                        "name": "updateAndCheckPricePrivate",
                                        "value": 7721
                                    },
                                    {
                                        "children": [],
                                        "depth": 1,
                                        "name": "addPrice",
                                        "value": 90732
                                    },
                                    {
                                        "children": [],
                                        "depth": 1,
                                        "name": "transferFrom",
                                        "value": 25624
                                    },
                                    {
                                        "children": [
                                            {
                                                "children": [
                                                    {
                                                        "children": [],
                                                        "depth": 3,
                                                        "name": "0x4c5e1cae",
                                                        "value": 1269
                                                    }
                                                ],
                                                "depth": 2,
                                                "name": "balanceOf",
                                                "value": 3554
                                            },
                                            {
                                                "children": [
                                                    {
                                                        "children": [],
                                                        "depth": 3,
                                                        "name": "0x4c5e1cae",
                                                        "value": 1269
                                                    },
                                                    {
                                                        "children": [],
                                                        "depth": 3,
                                                        "name": "0x4c5e1cae",
                                                        "value": 1269
                                                    },
                                                    {
                                                        "children": [],
                                                        "depth": 3,
                                                        "name": "0xab517b4f",
                                                        "value": 6496
                                                    },
                                                    {
                                                        "children": [],
                                                        "depth": 3,
                                                        "name": "0x4c5e1cae",
                                                        "value": 1269
                                                    },
                                                    {
                                                        "children": [],
                                                        "depth": 3,
                                                        "name": "0xab517b4f",
                                                        "value": 6496
                                                    }
                                                ],
                                                "depth": 2,
                                                "name": "transfer",
                                                "value": 28563
                                            }
                                        ],
                                        "depth": 1,
                                        "name": "oreDrawing",
                                        "value": 48526
                                    },
                                    {
                                        "children": [],
                                        "depth": 1,
                                        "name": "switchToEth",
                                        "value": 6319
                                    },
                                    {
                                        "children": [
                                            {
                                                "children": [
                                                    {
                                                        "children": [],
                                                        "depth": 3,
                                                        "name": "0x4c5e1cae",
                                                        "value": 1269
                                                    },
                                                    {
                                                        "children": [],
                                                        "depth": 3,
                                                        "name": "0x4c5e1cae",
                                                        "value": 1269
                                                    },
                                                    {
                                                        "children": [],
                                                        "depth": 3,
                                                        "name": "0xab517b4f",
                                                        "value": 2296
                                                    },
                                                    {
                                                        "children": [],
                                                        "depth": 3,
                                                        "name": "0x4c5e1cae",
                                                        "value": 1269
                                                    },
                                                    {
                                                        "children": [],
                                                        "depth": 3,
                                                        "name": "0xab517b4f",
                                                        "value": 6496
                                                    }
                                                ],
                                                "depth": 2,
                                                "name": "transferFrom",
                                                "value": 31619
                                            },
                                            {
                                                "children": [
                                                    {
                                                        "children": [],
                                                        "depth": 3,
                                                        "name": "checkAddress",
                                                        "value": 1734
                                                    }
                                                ],
                                                "depth": 2,
                                                "name": "addNest",
                                                "value": 10309
                                            }
                                        ],
                                        "depth": 1,
                                        "name": "bookKeeping",
                                        "value": 47834
                                    },
                                    {
                                        "children": [
                                            {
                                                "children": [],
                                                "depth": 2,
                                                "name": "0x4c5e1cae",
                                                "value": 1269
                                            },
                                            {
                                                "children": [],
                                                "depth": 2,
                                                "name": "0x4c5e1cae",
                                                "value": 1269
                                            },
                                            {
                                                "children": [],
                                                "depth": 2,
                                                "name": "0xab517b4f",
                                                "value": 2296
                                            },
                                            {
                                                "children": [],
                                                "depth": 2,
                                                "name": "0x4c5e1cae",
                                                "value": 1269
                                            },
                                            {
                                                "children": [],
                                                "depth": 2,
                                                "name": "0xab517b4f",
                                                "value": 6496
                                            }
                                        ],
                                        "depth": 1,
                                        "name": "transfer",
                                        "value": 24363
                                    }
                                ],
                                "depth": 0,
                                "name": "Executed Gas",
                                "value": 503088
                            }
                        ],
                        "depth": -1,
                        "name": "Actual Gas Used",
                        "value": 524920
                    },
                    {
                        "children": [],
                        "depth": -1,
                        "name": "Refunded Gas",
                        "value": 0
                    }
                ],
                "depth": -2,
                "name": "Total Gas",
                "value": 524920
            }
        ],
        "isConfirmed": true,
        "mainTrace": [
            {
                "children": [
                    {
                        "children": [
                            {
                                "children": [],
                                "depth": 1,
                                "id": 1,
                                "order": 1
                            },
                            {
                                "children": [],
                                "depth": 1,
                                "id": 2,
                                "order": 2
                            },
                            {
                                "children": [],
                                "depth": 1,
                                "id": 3,
                                "order": 3
                            },
                            {
                                "children": [
                                    {
                                        "children": [],
                                        "depth": 2,
                                        "id": 5,
                                        "order": 5
                                    }
                                ],
                                "depth": 1,
                                "id": 4,
                                "order": 4
                            },
                            {
                                "children": [
                                    {
                                        "children": [
                                            {
                                                "children": [],
                                                "depth": 3,
                                                "id": 8,
                                                "order": 8
                                            }
                                        ],
                                        "depth": 2,
                                        "id": 7,
                                        "order": 7
                                    },
                                    {
                                        "children": [
                                            {
                                                "children": [],
                                                "depth": 3,
                                                "id": 10,
                                                "order": 10
                                            },
                                            {
                                                "children": [],
                                                "depth": 3,
                                                "id": 11,
                                                "order": 11
                                            },
                                            {
                                                "children": [],
                                                "depth": 3,
                                                "id": 12,
                                                "order": 12
                                            },
                                            {
                                                "children": [],
                                                "depth": 3,
                                                "id": 13,
                                                "order": 13
                                            },
                                            {
                                                "children": [],
                                                "depth": 3,
                                                "id": 14,
                                                "order": 14
                                            },
                                            {
                                                "children": [],
                                                "depth": 3,
                                                "id": 15,
                                                "order": 15
                                            }
                                        ],
                                        "depth": 2,
                                        "id": 9,
                                        "order": 9
                                    },
                                    {
                                        "children": [],
                                        "depth": 2,
                                        "id": 16,
                                        "order": 16
                                    }
                                ],
                                "depth": 1,
                                "id": 6,
                                "order": 6
                            },
                            {
                                "children": [],
                                "depth": 1,
                                "id": 17,
                                "order": 17
                            },
                            {
                                "children": [
                                    {
                                        "children": [
                                            {
                                                "children": [],
                                                "depth": 3,
                                                "id": 20,
                                                "order": 20
                                            },
                                            {
                                                "children": [],
                                                "depth": 3,
                                                "id": 21,
                                                "order": 21
                                            },
                                            {
                                                "children": [],
                                                "depth": 3,
                                                "id": 22,
                                                "order": 22
                                            },
                                            {
                                                "children": [],
                                                "depth": 3,
                                                "id": 23,
                                                "order": 23
                                            },
                                            {
                                                "children": [],
                                                "depth": 3,
                                                "id": 24,
                                                "order": 24
                                            },
                                            {
                                                "children": [],
                                                "depth": 3,
                                                "id": 25,
                                                "order": 25
                                            }
                                        ],
                                        "depth": 2,
                                        "id": 19,
                                        "order": 19
                                    },
                                    {
                                        "children": [
                                            {
                                                "children": [],
                                                "depth": 3,
                                                "id": 27,
                                                "order": 27
                                            }
                                        ],
                                        "depth": 2,
                                        "id": 26,
                                        "order": 26
                                    }
                                ],
                                "depth": 1,
                                "id": 18,
                                "order": 18
                            },
                            {
                                "children": [
                                    {
                                        "children": [],
                                        "depth": 2,
                                        "id": 29,
                                        "order": 29
                                    },
                                    {
                                        "children": [],
                                        "depth": 2,
                                        "id": 30,
                                        "order": 30
                                    },
                                    {
                                        "children": [],
                                        "depth": 2,
                                        "id": 31,
                                        "order": 31
                                    },
                                    {
                                        "children": [],
                                        "depth": 2,
                                        "id": 32,
                                        "order": 32
                                    },
                                    {
                                        "children": [],
                                        "depth": 2,
                                        "id": 33,
                                        "order": 33
                                    },
                                    {
                                        "children": [],
                                        "depth": 2,
                                        "id": 34,
                                        "order": 34
                                    }
                                ],
                                "depth": 1,
                                "id": 28,
                                "order": 28
                            }
                        ],
                        "depth": 0,
                        "id": 0,
                        "order": 0
                    }
                ],
                "depth": -1,
                "id": -1,
                "order": -1
            }
        ],
        "mainTraceNodeCount": 35,
        "parentIdMap": {
            "0": -1,
            "1": 0,
            "10": 9,
            "11": 9,
            "12": 9,
            "13": 9,
            "14": 9,
            "15": 9,
            "16": 6,
            "17": 0,
            "18": 0,
            "19": 18,
            "2": 0,
            "20": 19,
            "21": 19,
            "22": 19,
            "23": 19,
            "24": 19,
            "25": 19,
            "26": 18,
            "27": 26,
            "28": 0,
            "29": 28,
            "3": 0,
            "30": 28,
            "31": 28,
            "32": 28,
            "33": 28,
            "34": 28,
            "4": 0,
            "5": 4,
            "6": 0,
            "7": 6,
            "8": 7,
            "9": 6
        },
        "tidyTrace": [
            {
                "children": [
                    {
                        "children": [
                            {
                                "children": [],
                                "depth": 1,
                                "id": 2,
                                "order": 2
                            },
                            {
                                "children": [],
                                "depth": 1,
                                "id": 3,
                                "order": 3
                            },
                            {
                                "children": [
                                    {
                                        "children": [],
                                        "depth": 2,
                                        "id": 5,
                                        "order": 5
                                    }
                                ],
                                "depth": 1,
                                "id": 4,
                                "order": 4
                            },
                            {
                                "children": [
                                    {
                                        "children": [
                                            {
                                                "children": [],
                                                "depth": 3,
                                                "id": 10,
                                                "order": 10
                                            },
                                            {
                                                "children": [],
                                                "depth": 3,
                                                "id": 11,
                                                "order": 11
                                            },
                                            {
                                                "children": [],
                                                "depth": 3,
                                                "id": 12,
                                                "order": 12
                                            },
                                            {
                                                "children": [],
                                                "depth": 3,
                                                "id": 13,
                                                "order": 13
                                            },
                                            {
                                                "children": [],
                                                "depth": 3,
                                                "id": 14,
                                                "order": 14
                                            },
                                            {
                                                "children": [],
                                                "depth": 3,
                                                "id": 15,
                                                "order": 15
                                            }
                                        ],
                                        "depth": 2,
                                        "id": 9,
                                        "order": 9
                                    },
                                    {
                                        "children": [],
                                        "depth": 2,
                                        "id": 16,
                                        "order": 16
                                    }
                                ],
                                "depth": 1,
                                "id": 6,
                                "order": 6
                            },
                            {
                                "children": [],
                                "depth": 1,
                                "id": 17,
                                "order": 17
                            },
                            {
                                "children": [
                                    {
                                        "children": [
                                            {
                                                "children": [],
                                                "depth": 3,
                                                "id": 20,
                                                "order": 20
                                            },
                                            {
                                                "children": [],
                                                "depth": 3,
                                                "id": 21,
                                                "order": 21
                                            },
                                            {
                                                "children": [],
                                                "depth": 3,
                                                "id": 22,
                                                "order": 22
                                            },
                                            {
                                                "children": [],
                                                "depth": 3,
                                                "id": 23,
                                                "order": 23
                                            },
                                            {
                                                "children": [],
                                                "depth": 3,
                                                "id": 24,
                                                "order": 24
                                            },
                                            {
                                                "children": [],
                                                "depth": 3,
                                                "id": 25,
                                                "order": 25
                                            }
                                        ],
                                        "depth": 2,
                                        "id": 19,
                                        "order": 19
                                    },
                                    {
                                        "children": [],
                                        "depth": 2,
                                        "id": 26,
                                        "order": 26
                                    }
                                ],
                                "depth": 1,
                                "id": 18,
                                "order": 18
                            },
                            {
                                "children": [
                                    {
                                        "children": [],
                                        "depth": 2,
                                        "id": 29,
                                        "order": 29
                                    },
                                    {
                                        "children": [],
                                        "depth": 2,
                                        "id": 30,
                                        "order": 30
                                    },
                                    {
                                        "children": [],
                                        "depth": 2,
                                        "id": 31,
                                        "order": 31
                                    },
                                    {
                                        "children": [],
                                        "depth": 2,
                                        "id": 32,
                                        "order": 32
                                    },
                                    {
                                        "children": [],
                                        "depth": 2,
                                        "id": 33,
                                        "order": 33
                                    },
                                    {
                                        "children": [],
                                        "depth": 2,
                                        "id": 34,
                                        "order": 34
                                    }
                                ],
                                "depth": 1,
                                "id": 28,
                                "order": 28
                            }
                        ],
                        "depth": 0,
                        "id": 0,
                        "order": 0
                    }
                ],
                "depth": -1,
                "id": -1,
                "order": -1
            }
        ],
        "tidyTraceNodeCount": 31
    },
    "state_change": {
        "stateChanges": [
            {
                "address": "0x04abeda201850ac0124161f037efd70c74ddc74c",
                "erc": "ERC-20",
                "slots": [
                    {
                        "current": "0x0000000000000000000000000000000000000000203ea633650a6885d9400000",
                        "key": "0x1e7c7060c172143918de7f621969831d1fd198968c52d5753ffe719b0bf5b444",
                        "prev": "0x0000000000000000000000000000000000000000203ea6529ea57cbe7a400000"
                    },
                    {
                        "current": "0x0000000000000000000000000000000000000000000355f16dfa102c50c13b2f",
                        "key": "0x2503645f384a2a2edb85f9588119b1960647f7b51264973f32910a6d85b4635e",
                        "prev": "0x0000000000000000000000000000000000000000000355e70571096ec5c13b2f"
                    },
                    {
                        "current": "0x00000000000000000000000000000000000000001ac2dcc20769779f3b2ffa24",
                        "key": "0x20e92d1e12533c9d79d65b62eb5e532b0f6d4c64bb924f374241acb8e7dd942c",
                        "prev": "0x00000000000000000000000000000000000000001ac2dd92321dfe6e172ffa24"
                    },
                    {
                        "current": "0x00000000000000000000000000000000000000000000054915956c4096000744",
                        "key": "0xae99b6af6485d250013dfc50c8d3a7bd4ee42bcc9e058fe8f42bb1c93c4dcbb4",
                        "prev": "0x0000000000000000000000000000000000000000000004a28d050067e6000744"
                    },
                    {
                        "current": "0x000000000000000000000000000000000000000000020679ec1632e5c8090070",
                        "key": "0x2d6513b6605472c7efadbc50dbe28784cd281d4c1856c24ea3d3adb7744076c6",
                        "prev": "0x00000000000000000000000000000000000000000002065ab27b1ead27090070"
                    }
                ],
                "storageVariables": [
                    {
                        "name": "allowed",
                        "type": "mapping(address => mapping(address => uint256))",
                        "value": {
                            "pairs": [
                                {
                                    "key": "0xc83e009c7794e8f6d1954dc13c23a35fc4d039f6",
                                    "value": {
                                        "pairs": [
                                            {
                                                "key": "0x39d0f58f5d5bbd636be23a3184aff16a4d7567cf",
                                                "value": {
                                                    "current": "9979258576000000000000000000",
                                                    "prev": "9979259152000000000000000000",
                                                    "typeTag": 1
                                                }
                                            }
                                        ],
                                        "typeTag": 4
                                    }
                                }
                            ],
                            "typeTag": 4
                        }
                    },
                    {
                        "name": "balances",
                        "type": "struct IterableMapping.itmap",
                        "value": {
                            "fields": [
                                {
                                    "name": "data",
                                    "type": "mapping(address => struct IterableMapping.IndexValue)",
                                    "value": {
                                        "pairs": [
                                            {
                                                "key": "0x101d8b63a081dfff2b1364864345b7f071b052ac",
                                                "value": {
                                                    "fields": [
                                                        {
                                                            "name": "value",
                                                            "type": "uint256",
                                                            "value": {
                                                                "current": "2448434906000000000000112",
                                                                "prev": "2447858906000000000000112",
                                                                "typeTag": 1
                                                            }
                                                        }
                                                    ],
                                                    "typeTag": 3
                                                }
                                            },
                                            {
                                                "key": "0x2f979c933aef4fcddd27c0fa5c54d8a780555b0a",
                                                "value": {
                                                    "fields": [
                                                        {
                                                            "name": "value",
                                                            "type": "uint256",
                                                            "value": {
                                                                "current": "8282184364188881024933952036",
                                                                "prev": "8282188204188881024933952036",
                                                                "typeTag": 1
                                                            }
                                                        }
                                                    ],
                                                    "typeTag": 3
                                                }
                                            },
                                            {
                                                "key": "0x6756927922d2a32cb799f261e4abc47652cde54b",
                                                "value": {
                                                    "fields": [
                                                        {
                                                            "name": "value",
                                                            "type": "uint256",
                                                            "value": {
                                                                "current": "4032632199873848200477487",
                                                                "prev": "4032440199873848200477487",
                                                                "typeTag": 1
                                                            }
                                                        }
                                                    ],
                                                    "typeTag": 3
                                                }
                                            },
                                            {
                                                "key": "0xc83e009c7794e8f6d1954dc13c23a35fc4d039f6",
                                                "value": {
                                                    "fields": [
                                                        {
                                                            "name": "value",
                                                            "type": "uint256",
                                                            "value": {
                                                                "current": "24960000000000000001860",
                                                                "prev": "21888000000000000001860",
                                                                "typeTag": 1
                                                            }
                                                        }
                                                    ],
                                                    "typeTag": 3
                                                }
                                            }
                                        ],
                                        "typeTag": 4
                                    }
                                }
                            ],
                            "typeTag": 3
                        }
                    }
                ]
            },
            {
                "address": "0x2f979c933aef4fcddd27c0fa5c54d8a780555b0a",
                "erc": "",
                "slots": [
                    {
                        "current": "0x0000000000000000000000000000000000000000000000000000000000a658d2",
                        "key": "0x000000000000000000000000000000000000000000000000000000000000000d",
                        "prev": "0x0000000000000000000000000000000000000000000000000000000000a658c6"
                    }
                ],
                "storageVariables": [
                    {
                        "name": "_latestMining",
                        "type": "uint256",
                        "value": {
                            "current": "10901714",
                            "prev": "10901702",
                            "typeTag": 1
                        }
                    }
                ]
            },
            {
                "address": "0x43121397631551357ea511e62163b76e39d44852",
                "erc": "",
                "slots": [
                    {
                        "current": "0x0000000000000000000000000000000000000000000000148072e194b40bc9d4",
                        "key": "0x93c46d1d831aa3047443f8565fb329a652548d18a1f75ab69a421e5989f1a4f5",
                        "prev": "0x0000000000000000000000000000000000000000000000147c49112b9b6dc9d4"
                    }
                ],
                "storageVariables": [
                    {
                        "name": "ethMapping",
                        "type": "mapping(address => uint256)",
                        "value": {
                            "pairs": [
                                {
                                    "key": "0x04abeda201850ac0124161f037efd70c74ddc74c",
                                    "value": {
                                        "current": "378190589687182903764",
                                        "prev": "377890589687182903764",
                                        "typeTag": 1
                                    }
                                }
                            ],
                            "typeTag": 4
                        }
                    }
                ]
            },
            {
                "address": "0x7722891ee45ad38ae05bda8349ba4cf23cfd270f",
                "erc": "",
                "slots": [
                    {
                        "current": "0x000000000000000000000000000000000000000000000001a055690d9db80000",
                        "key": "0x6eb8ea967dd435b97625081923a1d3fd3f11e250193aaa2006207f04ec997cff",
                        "prev": "0x0000000000000000000000000000000000000000000000000000000000000000"
                    },
                    {
                        "current": "0x0000000000000000000000000000000000000000000000000000000295aede80",
                        "key": "0x6eb8ea967dd435b97625081923a1d3fd3f11e250193aaa2006207f04ec997d00",
                        "prev": "0x0000000000000000000000000000000000000000000000000000000000000000"
                    },
                    {
                        "current": "0x00000000000000000000000021cd7c7aeebbe898f18d03d1c540a0205682309b",
                        "key": "0x6eb8ea967dd435b97625081923a1d3fd3f11e250193aaa2006207f04ec997d02",
                        "prev": "0x0000000000000000000000000000000000000000000000000000000000000000"
                    },
                    {
                        "current": "0x0000000000000000000000000000000000000000000000000000000000a658df",
                        "key": "0x6eb8ea967dd435b97625081923a1d3fd3f11e250193aaa2006207f04ec997d01",
                        "prev": "0x0000000000000000000000000000000000000000000000000000000000000000"
                    },
                    {
                        "current": "0x0000000000000000000000000000000000000000000000000000000000a658eb",
                        "key": "0xb7e2958a2abfb668f1e99d86008b48267975d726df44a62b9676fda384beb196",
                        "prev": "0x0000000000000000000000000000000000000000000000000000000000a658df"
                    }
                ],
                "storageVariables": [
                    {
                        "name": "_tokenInfo",
                        "type": "mapping(address => struct Nest_3_OfferPrice.TokenInfo)",
                        "value": {
                            "pairs": [
                                {
                                    "key": "0xdac17f958d2ee523a2206206994597c13d831ec7",
                                    "value": {
                                        "fields": [
                                            {
                                                "name": "priceInfoList",
                                                "type": "mapping(uint256 => struct Nest_3_OfferPrice.PriceInfo)",
                                                "value": {
                                                    "pairs": [
                                                        {
                                                            "key": "10901739",
                                                            "value": {
                                                                "fields": [
                                                                    {
                                                                        "name": "ethAmount",
                                                                        "type": "uint256",
                                                                        "value": {
                                                                            "current": "30000000000000000000",
                                                                            "prev": "0",
                                                                            "typeTag": 1
                                                                        }
                                                                    },
                                                                    {
                                                                        "name": "erc20Amount",
                                                                        "type": "uint256",
                                                                        "value": {
                                                                            "current": "11101200000",
                                                                            "prev": "0",
                                                                            "typeTag": 1
                                                                        }
                                                                    },
                                                                    {
                                                                        "name": "frontBlock",
                                                                        "type": "uint256",
                                                                        "value": {
                                                                            "current": "10901727",
                                                                            "prev": "0",
                                                                            "typeTag": 1
                                                                        }
                                                                    },
                                                                    {
                                                                        "name": "offerOwner",
                                                                        "type": "address",
                                                                        "value": {
                                                                            "current": "0x21cd7c7aeebbe898f18d03d1c540a0205682309b",
                                                                            "prev": "0x0000000000000000000000000000000000000000",
                                                                            "typeTag": 1
                                                                        }
                                                                    }
                                                                ],
                                                                "typeTag": 3
                                                            }
                                                        }
                                                    ],
                                                    "typeTag": 4
                                                }
                                            },
                                            {
                                                "name": "latestOffer",
                                                "type": "uint256",
                                                "value": {
                                                    "current": "10901739",
                                                    "prev": "10901727",
                                                    "typeTag": 1
                                                }
                                            }
                                        ],
                                        "typeTag": 3
                                    }
                                }
                            ],
                            "typeTag": 4
                        }
                    }
                ]
            },
            {
                "address": "0xb086f99e36c2c0ef6c051ee9e4d638717bbc6cbc",
                "erc": "",
                "slots": [
                    {
                        "current": "0x0000000000000000000000000000000000000000007afefc69a306cc2ec2585e",
                        "key": "0x0000000000000000000000000000000000000000000000000000000000000001",
                        "prev": "0x0000000000000000000000000000000000000000007afedd3007f2938dc2585e"
                    }
                ],
                "storageVariables": [
                    {
                        "name": "nodeAllAmount",
                        "type": "uint256",
                        "value": {
                            "current": "148693087271075493219293278",
                            "prev": "148692511271075493219293278",
                            "typeTag": 1
                        }
                    }
                ]
            },
            {
                "address": "0xc83e009c7794e8f6d1954dc13c23a35fc4d039f6",
                "erc": "",
                "slots": [
                    {
                        "current": "0x0000000000000000000000000000000000000000000000000429d069189e0000",
                        "key": "0xf525c93ac9a2604b71afad4ff1bef4f7df7f92c7e5acdb8841ffa7fc6925fe5c",
                        "prev": "0x0000000000000000000000000000000000000000000000000000000000000000"
                    },
                    {
                        "current": "0x0000000000000000000000000000000000000000000000000000000295aede80",
                        "key": "0x290decd9548b62a8d60345a988386fc84ba6bc95484008f6362f93160f025cbe",
                        "prev": "0x0000000000000000000000000000000000000000000000000000000000000000"
                    },
                    {
                        "current": "0x0000000000000000000000000000000000000000000000000000000000a658d2",
                        "key": "0x290decd9548b62a8d60345a988386fc84ba6bc95484008f6362f93160f025cc1",
                        "prev": "0x0000000000000000000000000000000000000000000000000000000000000000"
                    },
                    {
                        "current": "0x0000000000000000000000000000000000000000000000000429d069189e0000",
                        "key": "0x290decd9548b62a8d60345a988386fc84ba6bc95484008f6362f93160f025cc2",
                        "prev": "0x0000000000000000000000000000000000000000000000000000000000000000"
                    },
                    {
                        "current": "0x000000000000000000000000000000000000000000000000000000000001ceec",
                        "key": "0x0000000000000000000000000000000000000000000000000000000000000000",
                        "prev": "0x000000000000000000000000000000000000000000000000000000000001ceeb"
                    },
                    {
                        "current": "0x000000000000000000000000dac17f958d2ee523a2206206994597c13d831ec7",
                        "key": "0x290decd9548b62a8d60345a988386fc84ba6bc95484008f6362f93160f025cbc",
                        "prev": "0x0000000000000000000000000000000000000000000000000000000000000000"
                    },
                    {
                        "current": "0x0000000000000000000000000000000000000000000000a688906bd8b0000000",
                        "key": "0x92740abe8c4e27dac2eb18d47ed36555ae88362141b92ae42a3dd56fc4141e63",
                        "prev": "0x0000000000000000000000000000000000000000000000000000000000000000"
                    },
                    {
                        "current": "0x00000000000000000000000021cd7c7aeebbe898f18d03d1c540a0205682309b",
                        "key": "0x290decd9548b62a8d60345a988386fc84ba6bc95484008f6362f93160f025cbb",
                        "prev": "0x0000000000000000000000000000000000000000000000000000000000000000"
                    },
                    {
                        "current": "0x000000000000000000000000000000000000000000000001a055690d9db80000",
                        "key": "0x290decd9548b62a8d60345a988386fc84ba6bc95484008f6362f93160f025cbd",
                        "prev": "0x0000000000000000000000000000000000000000000000000000000000000000"
                    },
                    {
                        "current": "0x000000000000000000000000000000000000000000000001a055690d9db80000",
                        "key": "0x290decd9548b62a8d60345a988386fc84ba6bc95484008f6362f93160f025cbf",
                        "prev": "0x0000000000000000000000000000000000000000000000000000000000000000"
                    },
                    {
                        "current": "0x0000000000000000000000000000000000000000000000000000000295aede80",
                        "key": "0x290decd9548b62a8d60345a988386fc84ba6bc95484008f6362f93160f025cc0",
                        "prev": "0x0000000000000000000000000000000000000000000000000000000000000000"
                    }
                ],
                "storageVariables": [
                    {
                        "name": "_offerBlockMining",
                        "type": "mapping(uint256 => uint256)",
                        "value": {
                            "pairs": [
                                {
                                    "key": "10901714",
                                    "value": {
                                        "current": "3072000000000000000000",
                                        "prev": "0",
                                        "typeTag": 1
                                    }
                                }
                            ],
                            "typeTag": 4
                        }
                    },
                    {
                        "name": "_offerBlockEth",
                        "type": "mapping(uint256 => uint256)",
                        "value": {
                            "pairs": [
                                {
                                    "key": "10901714",
                                    "value": {
                                        "current": "300000000000000000",
                                        "prev": "0",
                                        "typeTag": 1
                                    }
                                }
                            ],
                            "typeTag": 4
                        }
                    },
                    {
                        "name": "_prices",
                        "type": "struct Nest_3_OfferMain.Nest_3_OfferPriceData[]",
                        "value": {
                            "elemType": "struct Nest_3_OfferMain.Nest_3_OfferPriceData",
                            "elems": [
                                {
                                    "index": 118507,
                                    "value": {
                                        "fields": [
                                            {
                                                "name": "owner",
                                                "type": "address",
                                                "value": {
                                                    "current": "0x21cd7c7aeebbe898f18d03d1c540a0205682309b",
                                                    "prev": "0x0000000000000000000000000000000000000000",
                                                    "typeTag": 1
                                                }
                                            },
                                            {
                                                "name": "deviate",
                                                "type": "bool",
                                                "value": {
                                                    "current": "false",
                                                    "prev": "false",
                                                    "typeTag": 1
                                                }
                                            },
                                            {
                                                "name": "tokenAddress",
                                                "type": "address",
                                                "value": {
                                                    "current": "0xdac17f958d2ee523a2206206994597c13d831ec7",
                                                    "prev": "0x0000000000000000000000000000000000000000",
                                                    "typeTag": 1
                                                }
                                            },
                                            {
                                                "name": "ethAmount",
                                                "type": "uint256",
                                                "value": {
                                                    "current": "30000000000000000000",
                                                    "prev": "0",
                                                    "typeTag": 1
                                                }
                                            },
                                            {
                                                "name": "tokenAmount",
                                                "type": "uint256",
                                                "value": {
                                                    "current": "11101200000",
                                                    "prev": "0",
                                                    "typeTag": 1
                                                }
                                            },
                                            {
                                                "name": "dealEthAmount",
                                                "type": "uint256",
                                                "value": {
                                                    "current": "30000000000000000000",
                                                    "prev": "0",
                                                    "typeTag": 1
                                                }
                                            },
                                            {
                                                "name": "dealTokenAmount",
                                                "type": "uint256",
                                                "value": {
                                                    "current": "11101200000",
                                                    "prev": "0",
                                                    "typeTag": 1
                                                }
                                            },
                                            {
                                                "name": "blockNum",
                                                "type": "uint256",
                                                "value": {
                                                    "current": "10901714",
                                                    "prev": "0",
                                                    "typeTag": 1
                                                }
                                            },
                                            {
                                                "name": "serviceCharge",
                                                "type": "uint256",
                                                "value": {
                                                    "current": "300000000000000000",
                                                    "prev": "0",
                                                    "typeTag": 1
                                                }
                                            }
                                        ],
                                        "typeTag": 3
                                    }
                                }
                            ],
                            "typeTag": 2
                        }
                    }
                ]
            },
            {
                "address": "0xdac17f958d2ee523a2206206994597c13d831ec7",
                "erc": "ERC-20",
                "slots": [
                    {
                        "current": "0x00000000000000000000000000000b7abc627050305adf14a3d9c2b1297069df",
                        "key": "0x472a5bebc4f84e18d8bcb720c6a15d722011c01db0cad7a7ba7dd91de3f9f477",
                        "prev": "0x00000000000000000000000000000b7abc627050305adf14a3d9c2b3bf1f485f"
                    },
                    {
                        "current": "0x0000000000000000000000000000000000000000000000000000000cb3bcbfc6",
                        "key": "0xaa667dc5c487693522b7522909d15eaec492e41168468d73c748cf694d029da7",
                        "prev": "0x0000000000000000000000000000000000000000000000000000000f496b9e46"
                    },
                    {
                        "current": "0x00000000000000000000000000000000000000000000000000000019d0f37ac0",
                        "key": "0x555ab8c1262fbcce95fdd293a4b78bbb3b48813e47750716655c8cb339631eb3",
                        "prev": "0x000000000000000000000000000000000000000000000000000000173b449c40"
                    }
                ],
                "storageVariables": [
                    {
                        "name": "balances",
                        "type": "mapping(address => uint256)",
                        "value": {
                            "pairs": [
                                {
                                    "key": "0x21cd7c7aeebbe898f18d03d1c540a0205682309b",
                                    "value": {
                                        "current": "54555099078",
                                        "prev": "65656299078",
                                        "typeTag": 1
                                    }
                                },
                                {
                                    "key": "0xc83e009c7794e8f6d1954dc13c23a35fc4d039f6",
                                    "value": {
                                        "current": "110879800000",
                                        "prev": "99778600000",
                                        "typeTag": 1
                                    }
                                }
                            ],
                            "typeTag": 4
                        }
                    },
                    {
                        "name": "allowed",
                        "type": "mapping(address => mapping(address => uint256))",
                        "value": {
                            "pairs": [
                                {
                                    "key": "0x21cd7c7aeebbe898f18d03d1c540a0205682309b",
                                    "value": {
                                        "pairs": [
                                            {
                                                "key": "0xc83e009c7794e8f6d1954dc13c23a35fc4d039f6",
                                                "value": {
                                                    "current": "999999999999999999999999999963377509099999",
                                                    "prev": "999999999999999999999999999963388610299999",
                                                    "typeTag": 1
                                                }
                                            }
                                        ],
                                        "typeTag": 4
                                    }
                                }
                            ],
                            "typeTag": 4
                        }
                    }
                ]
            }
        ]
    }
}