{
    "balance_change": {
        "balanceChanges": [
            {
                "account": "0x5d606042ccc0f72e3f92fe0d8e0a257fb2d4c891",
                "assets": [
                    {
                        "address": "0x7e9e431a0b8c4d532c745b1043c7fa29a48d4fba",
                        "amount": "15,218.9710597",
                        "iconUrl": "",
                        "isERC1155": false,
                        "isERC721": false,
                        "sign": false,
                        "value": ""
                    }
                ]
            },
            {
                "account": "0x41a313bc923927a86a384c9128718300fd75c34f",
                "assets": [
                    {
                        "address": "0x7e9e431a0b8c4d532c745b1043c7fa29a48d4fba",
                        "amount": "15,218.9710597",
                        "iconUrl": "",
                        "isERC1155": false,
                        "isERC721": false,
                        "sign": true,
                        "value": ""
                    }
                ]
            }
        ]
    },
    "profile": {
        "basic_info": {
            "baseFee": "",
            "blockNumber": 5593514,
            "callData": "0xa9059cbb00000000000000000000000041a313bc923927a86a384c9128718300fd75c34f00000000000000000000000000000000000000000000033905a6a93b90ba8800",
            "debugEnable": true,
            "errorInfo": "",
            "eventCount": 1,
            "feeRecipient": "0x5a0b54d5dc17e0aadc383d2db43b0a0d3e029c4c",
            "formatValue": "0",
            "gasLimit": 90000,
            "gasPrice": "99",
            "gasUsed": 21653,
            "intTxnCount": 0,
            "internalRevert": false,
            "internalRevertMessage": "",
            "isContractCreation": false,
            "isFlashloan": false,
            "maxFee": "",
            "nonce": 2,
            "overwritedBlockNumber": -1,
            "priorityFee": "",
            "receiver": "0x7e9e431a0b8c4d532c745b1043c7fa29a48d4fba",
            "revertMessage": "",
            "sender": "0x5d606042ccc0f72e3f92fe0d8e0a257fb2d4c891",
            "simulationEnable": true,
            "sourceTxnHash": "0x1779df84a76fa49f46064601ba5f4676c999a7aa030f73fc9d8532044cabe9b6",
            "status": true,
            "timestamp": "2018-05-11T06:11:25Z",
            "transactionFee": "0.002143647",
            "txnHash": "0x1779df84a76fa49f46064601ba5f4676c999a7aa030f73fc9d8532044cabe9b6",
            "txnIndex": 4,
            "type": 0,
            "value": "0"
        },
        "fund_flow": [
            {
                "amount": "15,218.9710597",
                "from": "0x5d606042ccc0f72e3f92fe0d8e0a257fb2d4c891",
                "id": 1,
                "isERC1155": false,
                "isERC721": false,
                "isReverted": false,
                "order": 1,
                "to": "0x41a313bc923927a86a384c9128718300fd75c34f",
                "token": "0x7e9e431a0b8c4d532c745b1043c7fa29a48d4fba"
            }
        ],
        "token_infos": [
            {
                "address": "0x7e9e431a0b8c4d532c745b1043c7fa29a48d4fba",
                "decimals": 18
            },
            {
                "address": "0xc02aaa39b223fe8d0a0e5c4f27ead9083c756cc2",
                "decimals": 18
            },
            {
                "address": "0xeeeeeeeeeeeeeeeeeeeeeeeeeeeeeeeeeeeeeeee",
                "decimals": 18
            }
        ]
    },
    "address_label": {
        "labels": [
            {
                "address": "0x0000000000000000000000000000000000000003",
                "label": "Precompiled"
            },
            {
                "address": "0x0000000000000000000000000000000000000004",
                "label": "Precompiled"
            },
            {
                "address": "0xeeeeeeeeeeeeeeeeeeeeeeeeeeeeeeeeeeeeeeee",
                "label": "Ether"
            },
            {
                "address": "0x7e9e431a0b8c4d532c745b1043c7fa29a48d4fba",
                "label": "eosDAC Token"
            },
            {
                "address": "0x0000000000000000000000000000000000000001",
                "label": "Precompiled"
            },
            {
                "address": "0x0000000000000000000000000000000000000002",
                "label": "Precompiled"
            }
        ]
    },
    "trace": {
        "accountLabels": null,
        "dataMap": {
            "-1": {
                "invocation": {
                    "address": "0x5d606042ccc0f72e3f92fe0d8e0a257fb2d4c891",
                    "callData": "",
                    "decodedMethod": null,
                    "errorInfo": "",
                    "fromAddress": "",
                    "gasUsed": 0,
                    "id": -1,
                    "methodDecoded": false,
                    "operation": "",
                    "output": "",
                    "revert": false,
                    "revertMessage": "",
                    "selector": "",
                    "status": false,
                    "value": ""
                },
                "nodeType": 0
            },
            "0": {
                "invocation": {
                    "address": "0x7e9e431a0b8c4d532c745b1043c7fa29a48d4fba",
                    "callData": "0x00000000000000000000000041a313bc923927a86a384c9128718300fd75c34f00000000000000000000000000000000000000000000033905a6a93b90ba8800",
                    "decodedMethod": {
                        "callParams": [
                            {
                                "name": "to",
                                "type": "address",
                                "value": "0x41a313bc923927a86a384c9128718300fd75c34f"
                            },
                            {
                                "decimalAvailable": true,
                                "name": "tokens",
                                "type": "uint256",
                                "value": "15,218,971,059,700,000,000,000"
                            }
                        ],
                        "constructorArguments": "",
                        "name": "transfer",
                        "returnParams": [
                            {
                                "name": "success",
                                "type": "bool",
                                "value": true
                            }
                        ],
                        "signature": "transfer(address,uint256)"
                    },
                    "errorInfo": "",
                    "fromAddress": "0x5d606042ccc0f72e3f92fe0d8e0a257fb2d4c891",
                    "gasUsed": 21653,
                    "id": 0,
                    "methodDecoded": true,
                    "operation": "CALL",
                    "output": "0x0000000000000000000000000000000000000000000000000000000000000001",
                    "revert": false,
                    "revertMessage": "",
                    "selector": "0xa9059cbb",
                    "status": true,
                    "value": "0"
                },
                "nodeType": 0
            },
            "1": {
                "event": {
                    "contract": "0x7e9e431a0b8c4d532c745b1043c7fa29a48d4fba",
                    "decodedLog": {
                        "name": "Transfer",
                        "params": [
                            {
                                "name": "from",
                                "type": "address",
                                "value": "0x5d606042ccc0f72e3f92fe0d8e0a257fb2d4c891"
                            },
                            {
                                "name": "to",
                                "type": "address",
                                "value": "0x41a313bc923927a86a384c9128718300fd75c34f"
                            },
                            {
                                "decimalAvailable": true,
                                "name": "tokens",
                                "type": "uint256",
                                "value": "15,218,971,059,700,000,000,000"
                            }
                        ],
                        "signature": "Transfer(address,address,uint256)"
                    },
                    "id": 1,
                    "logData": "0x00000000000000000000000000000000000000000000033905a6a93b90ba8800",
                    "logDecoded": true,
                    "operation": "EVENT",
                    "revert": false,
                    "status": true,
                    "topics": [
                        "0xddf252ad1be2c89b69c2b068fc378daa952ba7f163c4a11628f55a4df523b3ef",
                        "0x0000000000000000000000005d606042ccc0f72e3f92fe0d8e0a257fb2d4c891",
                        "0x00000000000000000000000041a313bc923927a86a384c9128718300fd75c34f"
                    ]
                },
                "nodeType": 1
            }
        },
        "gasFlame": [
            {
                "children": [
                    {
                        "children": [
                            {
                                "children": [],
                                "depth": 0,
                                "name": "Initial Gas",
                                "value": 23320
                            },
                            {
                                "children": [],
                                "depth": 0,
                                "name": "Executed Gas",
                                "value": 13333
                            }
                        ],
                        "depth": -1,
                        "name": "Actual Gas Used",
                        "value": 21653
                    },
                    {
                        "children": [],
                        "depth": -1,
                        "name": "Refunded Gas",
                        "value": 15000
                    }
                ],
                "depth": -2,
                "name": "Total Gas",
                "value": 36653
            }
        ],
        "isConfirmed": true,
        "mainTrace": [
            {
                "children": [
                    {
                        "children": [
                            {
                                "children": [],
                                "depth": 1,
                                "id": 1,
                                "order": 1
                            }
                        ],
                        "depth": 0,
                        "id": 0,
                        "order": 0
                    }
                ],
                "depth": -1,
                "id": -1,
                "order": -1
            }
        ],
        "mainTraceNodeCount": 2,
        "parentIdMap": {
            "0": -1,
            "1": 0
        },
        "tidyTrace": [
            {
                "children": [
                    {
                        "children": [
                            {
                                "children": [],
                                "depth": 1,
                                "id": 1,
                                "order": 1
                            }
                        ],
                        "depth": 0,
                        "id": 0,
                        "order": 0
                    }
                ],
                "depth": -1,
                "id": -1,
                "order": -1
            }
        ],
        "tidyTraceNodeCount": 2
    },
    "state_change": {
        "stateChanges": [
            {
                "address": "0x7e9e431a0b8c4d532c745b1043c7fa29a48d4fba",
                "erc": "ERC-20",
                "slots": [
                    {
                        "current": "0x0000000000000000000000000000000000000000000b858418b3f83854ca8a3c",
                        "key": "0x7dd64851bf79c7b96cde3df88e7afa30782b0e498bca1207cb782afba0634ecb",
                        "prev": "0x0000000000000000000000000000000000000000000b824b130d4efcc410023c"
                    },
                    {
                        "current": "0x0000000000000000000000000000000000000000000000000000000000000000",
                        "key": "0x8067cdb69bd06962d4d7d6d1b41083f8abccb3bb92be4bd314d3bbb12c44c2d4",
                        "prev": "0x00000000000000000000000000000000000000000000033905a6a93b90ba8800"
                    }
                ],
                "storageVariables": [
                    {
                        "name": "balances",
                        "type": "mapping(address => uint256)",
                        "value": {
                            "pairs": [
                                {
                                    "key": "0x41a313bc923927a86a384c9128718300fd75c34f",
                                    "value": {
                                        "current": "13928695508239511961897532",
                                        "prev": "13913476537179811961897532",
                                        "typeTag": 1
                                    }
                                },
                                {
                                    "key": "0x5d606042ccc0f72e3f92fe0d8e0a257fb2d4c891",
                                    "value": {
                                        "current": "0",
                                        "prev": "15218971059700000000000",
                                        "typeTag": 1
                                    }
                                }
                            ],
                            "typeTag": 4
                        }
                    }
                ]
            }
        ]
    }
}