{
    "balance_change": {
        "balanceChanges": [
            {
                "account": "0x34b927ca6533f495bc81cbd5a95dbe05a8544cf2",
                "assets": [
                    {
                        "address": "0x9d5963ba32e877871dff3e2e697283dc64066271",
                        "amount": "450",
                        "iconUrl": "",
                        "isERC1155": false,
                        "isERC721": false,
                        "sign": false,
                        "value": ""
                    }
                ]
            },
            {
                "account": "0x51ef38d4b89f08be85f192980e78fce426c49890",
                "assets": [
                    {
                        "address": "0x9d5963ba32e877871dff3e2e697283dc64066271",
                        "amount": "450",
                        "iconUrl": "",
                        "isERC1155": false,
                        "isERC721": false,
                        "sign": true,
                        "value": ""
                    }
                ]
            }
        ]
    },
    "profile": {
        "basic_info": {
            "baseFee": "",
            "blockNumber": 9739624,
            "callData": "0xa9059cbb00000000000000000000000051ef38d4b89f08be85f192980e78fce426c49890000000000000000000000000000000000000000000000018650127cc3dc80000",
            "debugEnable": true,
            "errorInfo": "",
            "eventCount": 1,
            "feeRecipient": "0x5a0b54d5dc17e0aadc383d2db43b0a0d3e029c4c",
            "formatValue": "0",
            "gasLimit": 100568,
            "gasPrice": "10",
            "gasUsed": 23124,
            "intTxnCount": 0,
            "internalRevert": false,
            "internalRevertMessage": "",
            "isContractCreation": false,
            "isFlashloan": false,
            "maxFee": "",
            "nonce": 0,
            "overwritedBlockNumber": -1,
            "priorityFee": "",
            "receiver": "0x9d5963ba32e877871dff3e2e697283dc64066271",
            "revertMessage": "",
            "sender": "0x34b927ca6533f495bc81cbd5a95dbe05a8544cf2",
            "simulationEnable": true,
            "sourceTxnHash": "0x181d0012a59dbfe5cb835ee5227197115116a2c6b1114932ec601daaf8970a50",
            "status": true,
            "timestamp": "2020-03-25T09:14:54Z",
            "transactionFee": "0.00023124",
            "txnHash": "0x181d0012a59dbfe5cb835ee5227197115116a2c6b1114932ec601daaf8970a50",
            "txnIndex": 195,
            "type": 0,
            "value": "0"
        },
        "fund_flow": [
            {
                "amount": "450",
                "from": "0x34b927ca6533f495bc81cbd5a95dbe05a8544cf2",
                "id": 1,
                "isERC1155": false,
                "isERC721": false,
                "isReverted": false,
                "order": 1,
                "to": "0x51ef38d4b89f08be85f192980e78fce426c49890",
                "token": "0x9d5963ba32e877871dff3e2e697283dc64066271"
            }
        ],
        "token_infos": [
            {
                "address": "0x9d5963ba32e877871dff3e2e697283dc64066271",
                "decimals": 18
            },
            {
                "address": "0xc02aaa39b223fe8d0a0e5c4f27ead9083c756cc2",
                "decimals": 18
            },
            {
                "address": "0xeeeeeeeeeeeeeeeeeeeeeeeeeeeeeeeeeeeeeeee",
                "decimals": 18
            }
        ]
    },
    "address_label": {
        "labels": [
            {
                "address": "0x9d5963ba32e877871dff3e2e697283dc64066271",
                "label": "EDCOIN: EDC Token"
            },
            {
                "address": "0x0000000000000000000000000000000000000001",
                "label": "Precompiled"
            },
            {
                "address": "0x0000000000000000000000000000000000000002",
                "label": "Precompiled"
            },
            {
                "address": "0x0000000000000000000000000000000000000003",
                "label": "Precompiled"
            },
            {
                "address": "0x0000000000000000000000000000000000000004",
                "label": "Precompiled"
            },
            {
                "address": "0xeeeeeeeeeeeeeeeeeeeeeeeeeeeeeeeeeeeeeeee",
                "label": "Ether"
            }
        ]
    },
    "trace": {
        "accountLabels": null,
        "dataMap": {
            "-1": {
                "invocation": {
                    "address": "0x34b927ca6533f495bc81cbd5a95dbe05a8544cf2",
                    "callData": "",
                    "decodedMethod": null,
                    "errorInfo": "",
                    "fromAddress": "",
                    "gasUsed": 0,
                    "id": -1,
                    "methodDecoded": false,
                    "operation": "",
                    "output": "",
                    "revert": false,
                    "revertMessage": "",
                    "selector": "",
                    "status": false,
                    "value": ""
                },
                "nodeType": 0
            },
            "0": {
                "invocation": {
                    "address": "0x9d5963ba32e877871dff3e2e697283dc64066271",
                    "callData": "0x00000000000000000000000051ef38d4b89f08be85f192980e78fce426c49890000000000000000000000000000000000000000000000018650127cc3dc80000",
                    "decodedMethod": {
                        "callParams": [
                            {
                                "name": "_to",
                                "type": "address",
                                "value": "0x51ef38d4b89f08be85f192980e78fce426c49890"
                            },
                            {
                                "decimalAvailable": true,
                                "name": "_value",
                                "type": "uint256",
                                "value": "450,000,000,000,000,000,000"
                            }
                        ],
                        "constructorArguments": "",
                        "name": "transfer",
                        "returnParams": [
                            {
                                "name": "",
                                "type": "bool",
                                "value": true
                            }
                        ],
                        "signature": "transfer(address,uint256)"
                    },
                    "errorInfo": "",
                    "fromAddress": "0x34b927ca6533f495bc81cbd5a95dbe05a8544cf2",
                    "gasUsed": 23124,
                    "id": 0,
                    "methodDecoded": true,
                    "operation": "CALL",
                    "output": "0x0000000000000000000000000000000000000000000000000000000000000001",
                    "revert": false,
                    "revertMessage": "",
                    "selector": "0xa9059cbb",
                    "status": true,
                    "value": "0"
                },
                "nodeType": 0
            },
            "1": {
                "event": {
                    "contract": "0x9d5963ba32e877871dff3e2e697283dc64066271",
                    "decodedLog": {
                        "name": "Transfer",
                        "params": [
                            {
                                "name": "_from",
                                "type": "address",
                                "value": "0x34b927ca6533f495bc81cbd5a95dbe05a8544cf2"
                            },
                            {
                                "name": "_to",
                                "type": "address",
                                "value": "0x51ef38d4b89f08be85f192980e78fce426c49890"
                            },
                            {
                                "decimalAvailable": true,
                                "name": "_value",
                                "type": "uint256",
                                "value": "450,000,000,000,000,000,000"
                            }
                        ],
                        "signature": "Transfer(address,address,uint256)"
                    },
                    "id": 1,
                    "logData": "0x000000000000000000000000000000000000000000000018650127cc3dc80000",
                    "logDecoded": true,
                    "operation": "EVENT",
                    "revert": false,
                    "status": true,
                    "topics": [
                        "0xddf252ad1be2c89b69c2b068fc378daa952ba7f163c4a11628f55a4df523b3ef",
                        "0x00000000000000000000000034b927ca6533f495bc81cbd5a95dbe05a8544cf2",
                        "0x00000000000000000000000051ef38d4b89f08be85f192980e78fce426c49890"
                    ]
                },
                "nodeType": 1
            }
        },
        "gasFlame": [
            {
                "children": [
                    {
                        "children": [
                            {
                                "children": [],
                                "depth": 0,
                                "name": "Initial Gas",
                                "value": 21644
                            },
                            {
                                "children": [],
                                "depth": 0,
                                "name": "Executed Gas",
                                "value": 16480
                            }
                        ],
                        "depth": -1,
                        "name": "Actual Gas Used",
                        "value": 23124
                    },
                    {
                        "children": [],
                        "depth": -1,
                        "name": "Refunded Gas",
                        "value": 15000
                    }
                ],
                "depth": -2,
                "name": "Total Gas",
                "value": 38124
            }
        ],
        "isConfirmed": true,
        "mainTrace": [
            {
                "children": [
                    {
                        "children": [
                            {
                                "children": [],
                                "depth": 1,
                                "id": 1,
                                "order": 1
                            }
                        ],
                        "depth": 0,
                        "id": 0,
                        "order": 0
                    }
                ],
                "depth": -1,
                "id": -1,
                "order": -1
            }
        ],
        "mainTraceNodeCount": 2,
        "parentIdMap": {
            "0": -1,
            "1": 0
        },
        "tidyTrace": [
            {
                "children": [
                    {
                        "children": [
                            {
                                "children": [],
                                "depth": 1,
                                "id": 1,
                                "order": 1
                            }
                        ],
                        "depth": 0,
                        "id": 0,
                        "order": 0
                    }
                ],
                "depth": -1,
                "id": -1,
                "order": -1
            }
        ],
        "tidyTraceNodeCount": 2
    },
    "state_change": {
        "stateChanges": [
            {
                "address": "0x9d5963ba32e877871dff3e2e697283dc64066271",
                "erc": "ERC-20",
                "slots": [
                    {
                        "current": "0x0000000000000000000000000000000000000000000000000000000000000000",
                        "key": "0xac00c3fd9a21f4887f587df2ecb982d01ddf08fdce64d85d0afa277f8aeecf4a",
                        "prev": "0x000000000000000000000000000000000000000000000018650127cc3dc80000"
                    },
                    {
                        "current": "0x00000000000000000000000000000000000000000000078c794851f2f003273d",
                        "key": "0x3b596d77d24f93e9c613a1530cfa097f35f3c0274af5c8637cb10152c18dcd32",
                        "prev": "0x00000000000000000000000000000000000000000000077414472a26b23b273d"
                    }
                ],
                "storageVariables": [
                    {
                        "name": "balances",
                        "type": "mapping(address => uint256)",
                        "value": {
                            "pairs": [
                                {
                                    "key": "0x34b927ca6533f495bc81cbd5a95dbe05a8544cf2",
                                    "value": {
                                        "current": "0",
                                        "prev": "450000000000000000000",
                                        "typeTag": 1
                                    }
                                },
                                {
                                    "key": "0x51ef38d4b89f08be85f192980e78fce426c49890",
                                    "value": {
                                        "current": "35647848875587616843581",
                                        "prev": "35197848875587616843581",
                                        "typeTag": 1
                                    }
                                }
                            ],
                            "typeTag": 4
                        }
                    }
                ]
            }
        ]
    }
}