{
    "balance_change": {
        "balanceChanges": []
    },
    "profile": {
        "basic_info": {
            "baseFee": "",
            "blockNumber": 7086090,
            "callData": "0x4420e486000000000000000000000000d3e1f8c8b1ed2060a2fc440968f5b8b9dedec00b",
            "debugEnable": true,
            "errorInfo": "",
            "eventCount": 0,
            "feeRecipient": "0x5a0b54d5dc17e0aadc383d2db43b0a0d3e029c4c",
            "formatValue": "0",
            "gasLimit": 1000000,
            "gasPrice": "5.3",
            "gasUsed": 102053,
            "intTxnCount": 0,
            "internalRevert": false,
            "internalRevertMessage": "",
            "isContractCreation": false,
            "isFlashloan": false,
            "maxFee": "",
            "nonce": 0,
            "overwritedBlockNumber": -1,
            "priorityFee": "",
            "receiver": "0x62a364f7cba3be8fc9dcfdde12cabec8244af381",
            "revertMessage": "",
            "sender": "0x21f826ea1eec61dfa7c5a93a4489bbb3c0083ac3",
            "simulationEnable": true,
            "sourceTxnHash": "0x18c03f14c1488dcfb31dd9925b19e2c7284c60332cb608841259dbf0d5df48ef",
            "status": true,
            "timestamp": "2019-01-18T08:03:32Z",
            "transactionFee": "0.0005408809",
            "txnHash": "0x18c03f14c1488dcfb31dd9925b19e2c7284c60332cb608841259dbf0d5df48ef",
            "txnIndex": 113,
            "type": 0,
            "value": "0"
        },
        "fund_flow": [],
        "token_infos": [
            {
                "address": "0xc02aaa39b223fe8d0a0e5c4f27ead9083c756cc2",
                "decimals": 18
            },
            {
                "address": "0xeeeeeeeeeeeeeeeeeeeeeeeeeeeeeeeeeeeeeeee",
                "decimals": 18
            }
        ]
    },
    "address_label": {
        "labels": [
            {
                "address": "0x0000000000000000000000000000000000000003",
                "label": "Precompiled"
            },
            {
                "address": "0x0000000000000000000000000000000000000004",
                "label": "Precompiled"
            },
            {
                "address": "0xeeeeeeeeeeeeeeeeeeeeeeeeeeeeeeeeeeeeeeee",
                "label": "Ether"
            },
            {
                "address": "0x0000000000000000000000000000000000000001",
                "label": "Precompiled"
            },
            {
                "address": "0x0000000000000000000000000000000000000002",
                "label": "Precompiled"
            }
        ]
    },
    "trace": {
        "accountLabels": null,
        "dataMap": {
            "-1": {
                "invocation": {
                    "address": "0x21f826ea1eec61dfa7c5a93a4489bbb3c0083ac3",
                    "callData": "",
                    "decodedMethod": null,
                    "errorInfo": "",
                    "fromAddress": "",
                    "gasUsed": 0,
                    "id": -1,
                    "methodDecoded": false,
                    "operation": "",
                    "output": "",
                    "revert": false,
                    "revertMessage": "",
                    "selector": "",
                    "status": false,
                    "value": ""
                },
                "nodeType": 0
            },
            "0": {
                "invocation": {
                    "address": "0x62a364f7cba3be8fc9dcfdde12cabec8244af381",
                    "callData": "0x000000000000000000000000d3e1f8c8b1ed2060a2fc440968f5b8b9dedec00b",
                    "decodedMethod": {
                        "callParams": [
                            {
                                "name": "_referral",
                                "type": "address",
                                "value": "0xd3e1f8c8b1ed2060a2fc440968f5b8b9dedec00b"
                            }
                        ],
                        "constructorArguments": "",
                        "name": "register",
                        "returnParams": [],
                        "signature": "register(address)"
                    },
                    "errorInfo": "",
                    "fromAddress": "0x21f826ea1eec61dfa7c5a93a4489bbb3c0083ac3",
                    "gasUsed": 102053,
                    "id": 0,
                    "methodDecoded": true,
                    "operation": "CALL",
                    "output": "",
                    "revert": false,
                    "revertMessage": "",
                    "selector": "0x4420e486",
                    "status": true,
                    "value": "0"
                },
                "nodeType": 0
            }
        },
        "gasFlame": [
            {
                "children": [
                    {
                        "children": [
                            {
                                "children": [],
                                "depth": 0,
                                "name": "Initial Gas",
                                "value": 22680
                            },
                            {
                                "children": [],
                                "depth": 0,
                                "name": "Executed Gas",
                                "value": 79373
                            }
                        ],
                        "depth": -1,
                        "name": "Actual Gas Used",
                        "value": 102053
                    },
                    {
                        "children": [],
                        "depth": -1,
                        "name": "Refunded Gas",
                        "value": 0
                    }
                ],
                "depth": -2,
                "name": "Total Gas",
                "value": 102053
            }
        ],
        "isConfirmed": true,
        "mainTrace": [
            {
                "children": [
                    {
                        "children": [],
                        "depth": 0,
                        "id": 0,
                        "order": 0
                    }
                ],
                "depth": -1,
                "id": -1,
                "order": -1
            }
        ],
        "mainTraceNodeCount": 1,
        "parentIdMap": {
            "0": -1
        },
        "tidyTrace": [
            {
                "children": [
                    {
                        "children": [],
                        "depth": 0,
                        "id": 0,
                        "order": 0
                    }
                ],
                "depth": -1,
                "id": -1,
                "order": -1
            }
        ],
        "tidyTraceNodeCount": 1
    },
    "state_change": {
        "stateChanges": [
            {
                "address": "0x62a364f7cba3be8fc9dcfdde12cabec8244af381",
                "erc": "",
                "slots": [
                    {
                        "current": "0x000000000000000000000000000000000000000000000000000000000000000e",
                        "key": "0x778c994116064cb209de3e3ba03f57a35decc173c97d3f0ebe960bd984d1e823",
                        "prev": "0x000000000000000000000000000000000000000000000000000000000000000d"
                    },
                    {
                        "current": "0x2320b1c18624c3a3117dec7a4123212129e755cb58b28beb05d353686cbd376c",
                        "key": "0x295ccb87e4b72dc70b7c73cfc25708c1941657180d050d26df4d77ea51e58029",
                        "prev": "0x0000000000000000000000000000000000000000000000000000000000000000"
                    },
                    {
                        "current": "0x0000000000000000000000000000000000000000000000000000000000000042",
                        "key": "0x8e0733600e0ac59f03ad7df9ca11f169074ed1be1535ad4434579e66ab348df1",
                        "prev": "0x0000000000000000000000000000000000000000000000000000000000000041"
                    },
                    {
                        "current": "0x000000000000000000000000000000000000000000000000000000000000000d",
                        "key": "0x4184544b5944b6ac90a083c805c36a951c033a08309190f6f78be6f33918e782",
                        "prev": "0x0000000000000000000000000000000000000000000000000000000000000000"
                    },
                    {
                        "current": "0x000000000000000000000000000000000000000000000000000000000000c0dc",
                        "key": "0x000000000000000000000000000000000000000000000000000000000000000c",
                        "prev": "0x000000000000000000000000000000000000000000000000000000000000c0db"
                    },
                    {
                        "current": "0xb2e9ebdc26e9b5be59c3694466b5ed0f2ae4abef717d0fc8beac95ace4a2bab8",
                        "key": "0x559d30f85073b397459baf06a15f0e30bfe26362bcfc6f16d9c9af522e135288",
                        "prev": "0x0000000000000000000000000000000000000000000000000000000000000000"
                    }
                ],
                "storageVariables": []
            }
        ]
    }
}