{
    "balance_change": {
        "balanceChanges": []
    },
    "profile": {
        "basic_info": {
            "baseFee": "",
            "blockNumber": 1652986,
            "callData": "0xc9d27afe00000000000000000000000000000000000000000000000000000000000000050000000000000000000000000000000000000000000000000000000000000001",
            "debugEnable": true,
            "errorInfo": "",
            "eventCount": 1,
            "feeRecipient": "0xd3d038bcb4f2450c592381f8bb4bee860532ee9d",
            "formatValue": "0",
            "gasLimit": 170925,
            "gasPrice": "20",
            "gasUsed": 70925,
            "intTxnCount": 0,
            "internalRevert": false,
            "internalRevertMessage": "",
            "isContractCreation": false,
            "isFlashloan": false,
            "maxFee": "",
            "nonce": 3,
            "overwritedBlockNumber": -1,
            "priorityFee": "",
            "receiver": "0xbb9bc244d798123fde783fcc1c72d3bb8c189413",
            "revertMessage": "",
            "sender": "0xbd53186fb6cdbb2d4610519a8e09c1e46496e9cf",
            "simulationEnable": true,
            "sourceTxnHash": "0x18f5d96382a5d75d8f7eab74782cff234f9a2033805f668e4cc4b28bb9663e24",
            "status": true,
            "timestamp": "2016-06-06T07:31:23Z",
            "transactionFee": "0.0014185",
            "txnHash": "0x18f5d96382a5d75d8f7eab74782cff234f9a2033805f668e4cc4b28bb9663e24",
            "txnIndex": 1,
            "type": 0,
            "value": "0"
        },
        "fund_flow": [],
        "token_infos": [
            {
                "address": "0xc02aaa39b223fe8d0a0e5c4f27ead9083c756cc2",
                "decimals": 18
            },
            {
                "address": "0xeeeeeeeeeeeeeeeeeeeeeeeeeeeeeeeeeeeeeeee",
                "decimals": 18
            }
        ]
    },
    "address_label": {
        "labels": [
            {
                "address": "0x0000000000000000000000000000000000000004",
                "label": "Precompiled"
            },
            {
                "address": "0xeeeeeeeeeeeeeeeeeeeeeeeeeeeeeeeeeeeeeeee",
                "label": "Ether"
            },
            {
                "address": "0xbb9bc244d798123fde783fcc1c72d3bb8c189413",
                "label": "TheDAO Token"
            },
            {
                "address": "0x0000000000000000000000000000000000000001",
                "label": "Precompiled"
            },
            {
                "address": "0x0000000000000000000000000000000000000002",
                "label": "Precompiled"
            },
            {
                "address": "0x0000000000000000000000000000000000000003",
                "label": "Precompiled"
            }
        ]
    },
    "trace": {
        "accountLabels": null,
        "dataMap": {
            "-1": {
                "invocation": {
                    "address": "0xbd53186fb6cdbb2d4610519a8e09c1e46496e9cf",
                    "callData": "",
                    "decodedMethod": null,
                    "errorInfo": "",
                    "fromAddress": "",
                    "gasUsed": 0,
                    "id": -1,
                    "methodDecoded": false,
                    "operation": "",
                    "output": "",
                    "revert": false,
                    "revertMessage": "",
                    "selector": "",
                    "status": false,
                    "value": ""
                },
                "nodeType": 0
            },
            "0": {
                "invocation": {
                    "address": "0xbb9bc244d798123fde783fcc1c72d3bb8c189413",
                    "callData": "0x00000000000000000000000000000000000000000000000000000000000000050000000000000000000000000000000000000000000000000000000000000001",
                    "decodedMethod": {
                        "callParams": [
                            {
                                "name": "_proposalID",
                                "type": "uint256",
                                "value": "5"
                            },
                            {
                                "name": "_supportsProposal",
                                "type": "bool",
                                "value": true
                            }
                        ],
                        "constructorArguments": "",
                        "name": "vote",
                        "returnParams": [
                            {
                                "name": "_voteID",
                                "type": "uint256",
                                "value": "0"
                            }
                        ],
                        "signature": "vote(uint256,bool)"
                    },
                    "errorInfo": "",
                    "fromAddress": "0xbd53186fb6cdbb2d4610519a8e09c1e46496e9cf",
                    "gasUsed": 70925,
                    "id": 0,
                    "methodDecoded": true,
                    "operation": "CALL",
                    "output": "0x0000000000000000000000000000000000000000000000000000000000000000",
                    "revert": false,
                    "revertMessage": "",
                    "selector": "0xc9d27afe",
                    "status": true,
                    "value": "0"
                },
                "nodeType": 0
            },
            "1": {
                "event": {
                    "contract": "0xbb9bc244d798123fde783fcc1c72d3bb8c189413",
                    "decodedLog": {
                        "name": "Voted",
                        "params": [
                            {
                                "name": "proposalID",
                                "type": "uint256",
                                "value": "5"
                            },
                            {
                                "name": "voter",
                                "type": "address",
                                "value": "0xbd53186fb6cdbb2d4610519a8e09c1e46496e9cf"
                            },
                            {
                                "name": "position",
                                "type": "bool",
                                "value": true
                            }
                        ],
                        "signature": "Voted(uint256,bool,address)"
                    },
                    "id": 1,
                    "logData": "0x0000000000000000000000000000000000000000000000000000000000000001",
                    "logDecoded": true,
                    "operation": "EVENT",
                    "revert": false,
                    "status": true,
                    "topics": [
                        "0x86abfce99b7dd908bec0169288797f85049ec73cbe046ed9de818fab3a497ae0",
                        "0x0000000000000000000000000000000000000000000000000000000000000005",
                        "0x000000000000000000000000bd53186fb6cdbb2d4610519a8e09c1e46496e9cf"
                    ]
                },
                "nodeType": 1
            }
        },
        "gasFlame": [
            {
                "children": [
                    {
                        "children": [
                            {
                                "children": [],
                                "depth": 0,
                                "name": "Initial Gas",
                                "value": 21656
                            },
                            {
                                "children": [],
                                "depth": 0,
                                "name": "Executed Gas",
                                "value": 49269
                            }
                        ],
                        "depth": -1,
                        "name": "Actual Gas Used",
                        "value": 70925
                    },
                    {
                        "children": [],
                        "depth": -1,
                        "name": "Refunded Gas",
                        "value": 0
                    }
                ],
                "depth": -2,
                "name": "Total Gas",
                "value": 70925
            }
        ],
        "isConfirmed": true,
        "mainTrace": [
            {
                "children": [
                    {
                        "children": [
                            {
                                "children": [],
                                "depth": 1,
                                "id": 1,
                                "order": 1
                            }
                        ],
                        "depth": 0,
                        "id": 0,
                        "order": 0
                    }
                ],
                "depth": -1,
                "id": -1,
                "order": -1
            }
        ],
        "mainTraceNodeCount": 2,
        "parentIdMap": {
            "0": -1,
            "1": 0
        },
        "tidyTrace": [
            {
                "children": [
                    {
                        "children": [
                            {
                                "children": [],
                                "depth": 1,
                                "id": 1,
                                "order": 1
                            }
                        ],
                        "depth": 0,
                        "id": 0,
                        "order": 0
                    }
                ],
                "depth": -1,
                "id": -1,
                "order": -1
            }
        ],
        "tidyTraceNodeCount": 2
    },
    "state_change": {
        "stateChanges": [
            {
                "address": "0xbb9bc244d798123fde783fcc1c72d3bb8c189413",
                "erc": "ERC-20",
                "slots": [
                    {
                        "current": "0x0000000000000000000000000000000000000000000000000000000000000005",
                        "key": "0xc33d7a20d8ec0710be33a58b98858484032d8e133aec88750fcfd2006272cbe6",
                        "prev": "0x0000000000000000000000000000000000000000000000000000000000000000"
                    },
                    {
                        "current": "0x0000000000000000000000000000000000000000000093cb826bfc60f761ca72",
                        "key": "0x290decd9548b62a8d60345a988386fc84ba6bc95484008f6362f93160ef3e5b2",
                        "prev": "0x0000000000000000000000000000000000000000000093bb1d965dcee1df4edd"
                    },
                    {
                        "current": "0x0000000000000000000000000000000000000000000000000000000000000001",
                        "key": "0xeebf1049efd5755bac03b455e353fcd2518b1649ee3aab642ed5d015d263b680",
                        "prev": "0x0000000000000000000000000000000000000000000000000000000000000000"
                    }
                ],
                "storageVariables": []
            }
        ]
    }
}