{
    "balance_change": {
        "balanceChanges": [
            {
                "account": "0xdd9fd6b6f8f7ea932997992bbe67eabb3e316f3c",
                "assets": [
                    {
                        "address": "0xeeeeeeeeeeeeeeeeeeeeeeeeeeeeeeeeeeeeeeee",
                        "amount": "0.00428168",
                        "iconUrl": "https://assets.blocksec.com/image/1663669189317-3.png",
                        "isERC1155": false,
                        "isERC721": false,
                        "sign": false,
                        "value": ""
                    }
                ]
            },
            {
                "account": "0x79f77200c65076c5b8494899097cf9ccd01c8293",
                "assets": [
                    {
                        "address": "0xeeeeeeeeeeeeeeeeeeeeeeeeeeeeeeeeeeeeeeee",
                        "amount": "0.00214084",
                        "iconUrl": "https://assets.blocksec.com/image/1663669189317-3.png",
                        "isERC1155": false,
                        "isERC721": false,
                        "sign": true,
                        "value": ""
                    }
                ]
            },
            {
                "account": "0xd71cbd05fc1935b21753991ee9c83bf21404a739",
                "assets": [
                    {
                        "address": "0xeeeeeeeeeeeeeeeeeeeeeeeeeeeeeeeeeeeeeeee",
                        "amount": "0.00214084",
                        "iconUrl": "https://assets.blocksec.com/image/1663669189317-3.png",
                        "isERC1155": false,
                        "isERC721": false,
                        "sign": true,
                        "value": ""
                    }
                ]
            }
        ]
    },
    "profile": {
        "basic_info": {
            "baseFee": "",
            "blockNumber": 6378913,
            "callData": "0x349cdcac00000000000000000000000000000000000000000000000000000000000060ad0000000000000000000000000000000000000000000000000000000000000001000000000000000000000000000000000000000000000000017c4a21c20c2000",
            "debugEnable": true,
            "errorInfo": "",
            "eventCount": 2,
            "feeRecipient": "0xd4383232c8d1dbe0e03bdfab849871fa17e61807",
            "formatValue": "0",
            "gasLimit": 800000,
            "gasPrice": "10",
            "gasUsed": 256347,
            "intTxnCount": 2,
            "internalRevert": false,
            "internalRevertMessage": "",
            "isContractCreation": false,
            "isFlashloan": false,
            "maxFee": "",
            "nonce": 87,
            "overwritedBlockNumber": -1,
            "priorityFee": "",
            "receiver": "0xdd9fd6b6f8f7ea932997992bbe67eabb3e316f3c",
            "revertMessage": "",
            "sender": "0x5b76b7e224cda6ea1c0436b364f1c84a09446535",
            "simulationEnable": true,
            "sourceTxnHash": "0x18eb6db4e35dd32d4fa6e75d946c522bcf5b3e33802d29b0be8ad996c587d984",
            "status": true,
            "timestamp": "2018-09-22T13:52:27Z",
            "transactionFee": "0.00256347",
            "txnHash": "0x18eb6db4e35dd32d4fa6e75d946c522bcf5b3e33802d29b0be8ad996c587d984",
            "txnIndex": 17,
            "type": 0,
            "value": "0"
        },
        "fund_flow": [
            {
                "amount": "0.00214084",
                "from": "0xdd9fd6b6f8f7ea932997992bbe67eabb3e316f3c",
                "id": 1,
                "isERC1155": false,
                "isERC721": false,
                "isReverted": false,
                "order": 1,
                "to": "0xd71cbd05fc1935b21753991ee9c83bf21404a739",
                "token": "0xeeeeeeeeeeeeeeeeeeeeeeeeeeeeeeeeeeeeeeee"
            },
            {
                "amount": "0.00214084",
                "from": "0xdd9fd6b6f8f7ea932997992bbe67eabb3e316f3c",
                "id": 2,
                "isERC1155": false,
                "isERC721": false,
                "isReverted": false,
                "order": 2,
                "to": "0x79f77200c65076c5b8494899097cf9ccd01c8293",
                "token": "0xeeeeeeeeeeeeeeeeeeeeeeeeeeeeeeeeeeeeeeee"
            }
        ],
        "token_infos": [
            {
                "address": "0xc02aaa39b223fe8d0a0e5c4f27ead9083c756cc2",
                "decimals": 18
            },
            {
                "address": "0xeeeeeeeeeeeeeeeeeeeeeeeeeeeeeeeeeeeeeeee",
                "decimals": 18
            }
        ]
    },
    "address_label": {
        "labels": [
            {
                "address": "0xeeeeeeeeeeeeeeeeeeeeeeeeeeeeeeeeeeeeeeee",
                "label": "Ether"
            },
            {
                "address": "0x0000000000000000000000000000000000000001",
                "label": "Precompiled"
            },
            {
                "address": "0x0000000000000000000000000000000000000002",
                "label": "Precompiled"
            },
            {
                "address": "0x0000000000000000000000000000000000000003",
                "label": "Precompiled"
            },
            {
                "address": "0x0000000000000000000000000000000000000004",
                "label": "Precompiled"
            }
        ]
    },
    "trace": {
        "accountLabels": null,
        "dataMap": {
            "-1": {
                "invocation": {
                    "address": "0x5b76b7e224cda6ea1c0436b364f1c84a09446535",
                    "callData": "",
                    "decodedMethod": null,
                    "errorInfo": "",
                    "fromAddress": "",
                    "gasUsed": 0,
                    "id": -1,
                    "methodDecoded": false,
                    "operation": "",
                    "output": "",
                    "revert": false,
                    "revertMessage": "",
                    "selector": "",
                    "status": false,
                    "value": ""
                },
                "nodeType": 0
            },
            "0": {
                "invocation": {
                    "address": "0xdd9fd6b6f8f7ea932997992bbe67eabb3e316f3c",
                    "callData": "0x00000000000000000000000000000000000000000000000000000000000060ad0000000000000000000000000000000000000000000000000000000000000001000000000000000000000000000000000000000000000000017c4a21c20c2000",
                    "decodedMethod": {
                        "callParams": [
                            {
                                "name": "_affCode",
                                "type": "uint256",
                                "value": "24,749"
                            },
                            {
                                "name": "_team",
                                "type": "uint256",
                                "value": "1"
                            },
                            {
                                "name": "_eth",
                                "type": "uint256",
                                "value": "107,042,000,000,000,000"
                            }
                        ],
                        "constructorArguments": "",
                        "name": "reLoadXid",
                        "returnParams": [],
                        "signature": "reLoadXid(uint256,uint256,uint256)"
                    },
                    "errorInfo": "",
                    "fromAddress": "0x5b76b7e224cda6ea1c0436b364f1c84a09446535",
                    "gasUsed": 256347,
                    "id": 0,
                    "methodDecoded": true,
                    "operation": "CALL",
                    "output": "",
                    "revert": false,
                    "revertMessage": "",
                    "selector": "0x349cdcac",
                    "status": true,
                    "value": "0"
                },
                "nodeType": 0
            },
            "1": {
                "invocation": {
                    "address": "0xd71cbd05fc1935b21753991ee9c83bf21404a739",
                    "callData": "0x",
                    "decodedMethod": null,
                    "errorInfo": "",
                    "fromAddress": "0xdd9fd6b6f8f7ea932997992bbe67eabb3e316f3c",
                    "gasUsed": 0,
                    "id": 1,
                    "methodDecoded": false,
                    "operation": "CALL",
                    "output": "",
                    "revert": false,
                    "revertMessage": "",
                    "selector": "fallback",
                    "status": true,
                    "value": "0.00214084"
                },
                "nodeType": 0
            },
            "2": {
                "invocation": {
                    "address": "0x79f77200c65076c5b8494899097cf9ccd01c8293",
                    "callData": "0x",
                    "decodedMethod": null,
                    "errorInfo": "",
                    "fromAddress": "0xdd9fd6b6f8f7ea932997992bbe67eabb3e316f3c",
                    "gasUsed": 0,
                    "id": 2,
                    "methodDecoded": false,
                    "operation": "CALL",
                    "output": "",
                    "revert": false,
                    "revertMessage": "",
                    "selector": "fallback",
                    "status": true,
                    "value": "0.00214084"
                },
                "nodeType": 0
            },
            "3": {
                "event": {
                    "contract": "0xdd9fd6b6f8f7ea932997992bbe67eabb3e316f3c",
                    "decodedLog": {
                        "name": "onAffiliatePayout",
                        "params": [
                            {
                                "name": "affiliateID",
                                "type": "uint256",
                                "value": "24,749"
                            },
                            {
                                "name": "roundID",
                                "type": "uint256",
                                "value": "13"
                            },
                            {
                                "name": "buyerID",
                                "type": "uint256",
                                "value": "25,674"
                            },
                            {
                                "name": "affiliateAddress",
                                "type": "address",
                                "value": "0xcad3ae3bf1c1a6f6c65ea4406673261fe8bb3ebf"
                            },
                            {
                                "name": "affiliateName",
                                "type": "bytes32",
                                "value": "0x6e787865757279697a74666179616c3135333336373839333937323800000000"
                            },
                            {
                                "name": "amount",
                                "type": "uint256",
                                "value": "10,704,200,000,000,000"
                            },
                            {
                                "name": "timeStamp",
                                "type": "uint256",
                                "value": "1,537,624,347"
                            }
                        ],
                        "signature": "onAffiliatePayout(uint256,address,bytes32,uint256,uint256,uint256,uint256)"
                    },
                    "id": 3,
                    "logData": "0x000000000000000000000000cad3ae3bf1c1a6f6c65ea4406673261fe8bb3ebf6e787865757279697a74666179616c313533333637383933393732380000000000000000000000000000000000000000000000000000000000260769c69ad000000000000000000000000000000000000000000000000000000000005ba6491b",
                    "logDecoded": true,
                    "operation": "EVENT",
                    "revert": false,
                    "status": true,
                    "topics": [
                        "0x590bbc0fc16915a85269a48f74783c39842b7ae9eceb7c295c95dbe8b3ec7331",
                        "0x00000000000000000000000000000000000000000000000000000000000060ad",
                        "0x000000000000000000000000000000000000000000000000000000000000000d",
                        "0x000000000000000000000000000000000000000000000000000000000000644a"
                    ]
                },
                "nodeType": 1
            },
            "4": {
                "event": {
                    "contract": "0xdd9fd6b6f8f7ea932997992bbe67eabb3e316f3c",
                    "decodedLog": {
                        "name": "onEndTx",
                        "params": [
                            {
                                "name": "compressedData",
                                "type": "uint256",
                                "value": "101,537,624,347,000,000,000,000,020,100"
                            },
                            {
                                "name": "compressedIDs",
                                "type": "uint256",
                                "value": "130,000,000,000,000,000,000,000,000,000,000,000,000,000,000,000,025,674"
                            },
                            {
                                "name": "playerName",
                                "type": "bytes32",
                                "value": "0x0000000000000000000000000000000000000000000000000000000000000000"
                            },
                            {
                                "name": "playerAddress",
                                "type": "address",
                                "value": "0x5b76b7e224cda6ea1c0436b364f1c84a09446535"
                            },
                            {
                                "name": "ethIn",
                                "type": "uint256",
                                "value": "107,042,000,000,000,000"
                            },
                            {
                                "name": "keysBought",
                                "type": "uint256",
                                "value": "980,915,650,521,479,716,364"
                            },
                            {
                                "name": "winnerAddr",
                                "type": "address",
                                "value": "0x0000000000000000000000000000000000000000"
                            },
                            {
                                "name": "winnerName",
                                "type": "bytes32",
                                "value": "0x0000000000000000000000000000000000000000000000000000000000000000"
                            },
                            {
                                "name": "amountWon",
                                "type": "uint256",
                                "value": "0"
                            },
                            {
                                "name": "newPot",
                                "type": "uint256",
                                "value": "0"
                            },
                            {
                                "name": "P3DAmount",
                                "type": "uint256",
                                "value": "0"
                            },
                            {
                                "name": "genAmount",
                                "type": "uint256",
                                "value": "16,056,299,999,962,500"
                            },
                            {
                                "name": "potAmount",
                                "type": "uint256",
                                "value": "62,084,360,000,000,000"
                            },
                            {
                                "name": "airDropPot",
                                "type": "uint256",
                                "value": "997,240,554,350,816,736"
                            }
                        ],
                        "signature": "onEndTx(uint256,uint256,bytes32,address,uint256,uint256,address,bytes32,uint256,uint256,uint256,uint256,uint256,uint256)"
                    },
                    "id": 4,
                    "logData": "0x00000000000000000000000000000000000000014815f44d4d3dae50cb8c4e84000000000000000000015b759c0b975b70a9ba4b6a71185d1fd000000000644a00000000000000000000000000000000000000000000000000000000000000000000000000000000000000005b76b7e224cda6ea1c0436b364f1c84a09446535000000000000000000000000000000000000000000000000017c4a21c20c20000000000000000000000000000000000000000000000000352cf0730912031e0c0000000000000000000000000000000000000000000000000000000000000000000000000000000000000000000000000000000000000000000000000000000000000000000000000000000000000000000000000000000000000000000000000000000000000000000000000000000000000000000000000000000000000000000000000000000000000000000000000000000000000000000000000000000000000000000000000000000000000000000000000000000000390b1ea9e7a58400000000000000000000000000000000000000000000000000dc91657fe850000000000000000000000000000000000000000000000000000dd6e90025b1ade0",
                    "logDecoded": true,
                    "operation": "EVENT",
                    "revert": false,
                    "status": true,
                    "topics": [
                        "0x500e72a0e114930aebdbcb371ccdbf43922c49f979794b5de4257ff7e310c746"
                    ]
                },
                "nodeType": 1
            }
        },
        "gasFlame": [
            {
                "children": [
                    {
                        "children": [
                            {
                                "children": [],
                                "depth": 0,
                                "name": "Initial Gas",
                                "value": 22296
                            },
                            {
                                "children": [
                                    {
                                        "children": [],
                                        "depth": 1,
                                        "name": "fallback",
                                        "value": 0
                                    },
                                    {
                                        "children": [],
                                        "depth": 1,
                                        "name": "fallback",
                                        "value": 0
                                    }
                                ],
                                "depth": 0,
                                "name": "Executed Gas",
                                "value": 249051
                            }
                        ],
                        "depth": -1,
                        "name": "Actual Gas Used",
                        "value": 256347
                    },
                    {
                        "children": [],
                        "depth": -1,
                        "name": "Refunded Gas",
                        "value": 15000
                    }
                ],
                "depth": -2,
                "name": "Total Gas",
                "value": 271347
            }
        ],
        "isConfirmed": true,
        "mainTrace": [
            {
                "children": [
                    {
                        "children": [
                            {
                                "children": [],
                                "depth": 1,
                                "id": 1,
                                "order": 1
                            },
                            {
                                "children": [],
                                "depth": 1,
                                "id": 2,
                                "order": 2
                            },
                            {
                                "children": [],
                                "depth": 1,
                                "id": 3,
                                "order": 3
                            },
                            {
                                "children": [],
                                "depth": 1,
                                "id": 4,
                                "order": 4
                            }
                        ],
                        "depth": 0,
                        "id": 0,
                        "order": 0
                    }
                ],
                "depth": -1,
                "id": -1,
                "order": -1
            }
        ],
        "mainTraceNodeCount": 5,
        "parentIdMap": {
            "0": -1,
            "1": 0,
            "2": 0,
            "3": 0,
            "4": 0
        },
        "tidyTrace": [
            {
                "children": [
                    {
                        "children": [
                            {
                                "children": [],
                                "depth": 1,
                                "id": 1,
                                "order": 1
                            },
                            {
                                "children": [],
                                "depth": 1,
                                "id": 2,
                                "order": 2
                            },
                            {
                                "children": [],
                                "depth": 1,
                                "id": 3,
                                "order": 3
                            },
                            {
                                "children": [],
                                "depth": 1,
                                "id": 4,
                                "order": 4
                            }
                        ],
                        "depth": 0,
                        "id": 0,
                        "order": 0
                    }
                ],
                "depth": -1,
                "id": -1,
                "order": -1
            }
        ],
        "tidyTraceNodeCount": 5
    },
    "state_change": {
        "stateChanges": [
            {
                "address": "0xdd9fd6b6f8f7ea932997992bbe67eabb3e316f3c",
                "erc": "",
                "slots": [
                    {
                        "current": "0x0000000000000000000000000000000000000000000000000dd6e90025b1ade0",
                        "key": "0x0000000000000000000000000000000000000000000000000000000000000005",
                        "prev": "0x0000000000000000000000000000000000000000000000000db0e1965f16dde0"
                    },
                    {
                        "current": "0x0000000000000000000000000000000000000000000000000000907b961e5a97",
                        "key": "0xe0af3347aa7e5af384208c9d29458f902f0ceddbc90963608afa77235658b369",
                        "prev": "0x0000000000000000000000000000000000000000000000000000906a81e2f67d"
                    },
                    {
                        "current": "0x0000000000000000000000000000000000000000000000000000000000000014",
                        "key": "0x0000000000000000000000000000000000000000000000000000000000000006",
                        "prev": "0x000000000000000000000000000000000000000000000000000000000000000f"
                    },
                    {
                        "current": "0x0000000000000000000000000000000000000000000000001620ac8f67260000",
                        "key": "0x994bde4f7cb5f73f5034fd4870e213afbc55b2ff96b1357fc0259316bf6889ce",
                        "prev": "0x00000000000000000000000000000000000000000000000014a4626da519e000"
                    },
                    {
                        "current": "0x000000000000000000000000000000000000000000000000000000000000644a",
                        "key": "0xe0af3347aa7e5af384208c9d29458f902f0ceddbc90963608afa77235658b360",
                        "prev": "0x0000000000000000000000000000000000000000000000000000000000009d74"
                    },
                    {
                        "current": "0x000000000000000000000000000000000000000000000065778e3c7159e99b2e",
                        "key": "0x37b8512bbd70f168e65d01e985d641c9907539441aedf85f08c9b557938f3fca",
                        "prev": "0x0000000000000000000000000000000000000000000000304a9dc96847e67d22"
                    },
                    {
                        "current": "0x00000000000000000000000000000000000000000000000002a878fa29b30000",
                        "key": "0x37b8512bbd70f168e65d01e985d641c9907539441aedf85f08c9b557938f3fc9",
                        "prev": "0x000000000000000000000000000000000000000000000000012c2ed867a6e000"
                    },
                    {
                        "current": "0x00000000000000000000000000000000000000000000000000260769c69ad000",
                        "key": "0x4a90443a296bec0c44ea4bac36f04bf56c1365939b8cbaf3156a6f488684f1bd",
                        "prev": "0x0000000000000000000000000000000000000000000000000000000000000000"
                    },
                    {
                        "current": "0x0000000000000000000000000000000000000000000000000000000000000001",
                        "key": "0xe0af3347aa7e5af384208c9d29458f902f0ceddbc90963608afa77235658b361",
                        "prev": "0x0000000000000000000000000000000000000000000000000000000000000000"
                    },
                    {
                        "current": "0x00000000000000000000000000000000000000000000000096d8953eb53d315e",
                        "key": "0xe0af3347aa7e5af384208c9d29458f902f0ceddbc90963608afa77235658b368",
                        "prev": "0x00000000000000000000000000000000000000000000000095fc03d935544ee2"
                    },
                    {
                        "current": "0x00000000000000000000000000000000000000000000000117c5bdce207f0000",
                        "key": "0xe0af3347aa7e5af384208c9d29458f902f0ceddbc90963608afa77235658b367",
                        "prev": "0x000000000000000000000000000000000000000000000001164973ac5e72e000"
                    },
                    {
                        "current": "0x000000000000000000000000000000000000000000000000005782aebe276400",
                        "key": "0x0b09db44cf805027f81ab0c3660fd7d707d6b013ef76e020d3897dcbc3031ad0",
                        "prev": "0x000000000000000000000000000000000000000000000000004c1a0f02928c00"
                    },
                    {
                        "current": "0x00000000000000000000000000000000000000000000000000ca67498c481b47",
                        "key": "0xff045e1b7185a64c8e0d0d6e99c33db2c0710c6e74962ed1397df95370c47609",
                        "prev": "0x00000000000000000000000000000000000000000000000001e3da744d239049"
                    },
                    {
                        "current": "0x0000000000000000000000005b76b7e224cda6ea1c0436b364f1c84a09446535",
                        "key": "0xe0af3347aa7e5af384208c9d29458f902f0ceddbc90963608afa77235658b362",
                        "prev": "0x000000000000000000000000ddffc530205c91c3e632311d8d58efa87de90ae4"
                    },
                    {
                        "current": "0x000000000000000000000000000000000000000000000000041fe4b7194fa903",
                        "key": "0x37b8512bbd70f168e65d01e985d641c9907539441aedf85f08c9b557938f3fcb",
                        "prev": "0x0000000000000000000000000000000000000000000000000193b1cacece04f8"
                    },
                    {
                        "current": "0x000000000000000000000000000000000000000000002e59f4341fb2699350f5",
                        "key": "0xe0af3347aa7e5af384208c9d29458f902f0ceddbc90963608afa77235658b366",
                        "prev": "0x000000000000000000000000000000000000000000002e24c743aca9579032e9"
                    }
                ],
                "storageVariables": []
            }
        ]
    }
}