{
    "balance_change": {
        "balanceChanges": [
            {
                "account": "0xf91967b8f084de85c6785e4ea6b3540a7b3ad64d",
                "assets": [
                    {
                        "address": "0x7a271d1df2c3f2fef734611c6c7ee6b9b8439204",
                        "amount": "2,084.46",
                        "iconUrl": "",
                        "isERC1155": false,
                        "isERC721": false,
                        "sign": false,
                        "value": ""
                    }
                ]
            },
            {
                "account": "0xfc5413a3b29c0ac661599201881f0117951908ec",
                "assets": [
                    {
                        "address": "0x7a271d1df2c3f2fef734611c6c7ee6b9b8439204",
                        "amount": "2,084.46",
                        "iconUrl": "",
                        "isERC1155": false,
                        "isERC721": false,
                        "sign": true,
                        "value": ""
                    }
                ]
            }
        ]
    },
    "profile": {
        "basic_info": {
            "baseFee": "",
            "blockNumber": 9057229,
            "callData": "0xa9059cbb000000000000000000000000fc5413a3b29c0ac661599201881f0117951908ec0000000000000000000000000000000000000000000000000000003088598b80",
            "debugEnable": true,
            "errorInfo": "",
            "eventCount": 1,
            "feeRecipient": "0x52bc44d5378309ee2abf1539bf71de1b7d7be3b5",
            "formatValue": "0",
            "gasLimit": 200000,
            "gasPrice": "10",
            "gasUsed": 36516,
            "intTxnCount": 0,
            "internalRevert": false,
            "internalRevertMessage": "",
            "isContractCreation": false,
            "isFlashloan": false,
            "maxFee": "",
            "nonce": 258919,
            "overwritedBlockNumber": -1,
            "priorityFee": "",
            "receiver": "0x7a271d1df2c3f2fef734611c6c7ee6b9b8439204",
            "revertMessage": "",
            "sender": "0xf91967b8f084de85c6785e4ea6b3540a7b3ad64d",
            "simulationEnable": true,
            "sourceTxnHash": "0x1804fd7b03f0a9bc88b99eac8694f6e637ecc76084dbffd0426781f640ba9487",
            "status": true,
            "timestamp": "2019-12-05T22:22:06Z",
            "transactionFee": "0.00036516",
            "txnHash": "0x1804fd7b03f0a9bc88b99eac8694f6e637ecc76084dbffd0426781f640ba9487",
            "txnIndex": 3,
            "type": 0,
            "value": "0"
        },
        "fund_flow": [
            {
                "amount": "2,084.46",
                "from": "0xf91967b8f084de85c6785e4ea6b3540a7b3ad64d",
                "id": 1,
                "isERC1155": false,
                "isERC721": false,
                "isReverted": false,
                "order": 1,
                "to": "0xfc5413a3b29c0ac661599201881f0117951908ec",
                "token": "0x7a271d1df2c3f2fef734611c6c7ee6b9b8439204"
            }
        ],
        "token_infos": [
            {
                "address": "0x7a271d1df2c3f2fef734611c6c7ee6b9b8439204",
                "decimals": 8
            },
            {
                "address": "0xc02aaa39b223fe8d0a0e5c4f27ead9083c756cc2",
                "decimals": 18
            },
            {
                "address": "0xeeeeeeeeeeeeeeeeeeeeeeeeeeeeeeeeeeeeeeee",
                "decimals": 18
            }
        ]
    },
    "address_label": {
        "labels": [
            {
                "address": "0x0000000000000000000000000000000000000003",
                "label": "Precompiled"
            },
            {
                "address": "0x0000000000000000000000000000000000000004",
                "label": "Precompiled"
            },
            {
                "address": "0xeeeeeeeeeeeeeeeeeeeeeeeeeeeeeeeeeeeeeeee",
                "label": "Ether"
            },
            {
                "address": "0x7a271d1df2c3f2fef734611c6c7ee6b9b8439204",
                "label": "EXX Token (ET)"
            },
            {
                "address": "0x0000000000000000000000000000000000000001",
                "label": "Precompiled"
            },
            {
                "address": "0x0000000000000000000000000000000000000002",
                "label": "Precompiled"
            }
        ]
    },
    "trace": {
        "accountLabels": null,
        "dataMap": {
            "-1": {
                "invocation": {
                    "address": "0xf91967b8f084de85c6785e4ea6b3540a7b3ad64d",
                    "callData": "",
                    "decodedMethod": null,
                    "errorInfo": "",
                    "fromAddress": "",
                    "gasUsed": 0,
                    "id": -1,
                    "methodDecoded": false,
                    "operation": "",
                    "output": "",
                    "revert": false,
                    "revertMessage": "",
                    "selector": "",
                    "status": false,
                    "value": ""
                },
                "nodeType": 0
            },
            "0": {
                "invocation": {
                    "address": "0x7a271d1df2c3f2fef734611c6c7ee6b9b8439204",
                    "callData": "0x000000000000000000000000fc5413a3b29c0ac661599201881f0117951908ec0000000000000000000000000000000000000000000000000000003088598b80",
                    "decodedMethod": {
                        "callParams": [
                            {
                                "name": "_to",
                                "type": "address",
                                "value": "0xfc5413a3b29c0ac661599201881f0117951908ec"
                            },
                            {
                                "decimalAvailable": true,
                                "name": "_value",
                                "type": "uint256",
                                "value": "208,446,000,000"
                            }
                        ],
                        "constructorArguments": "",
                        "name": "transfer",
                        "returnParams": [
                            {
                                "name": "",
                                "type": "bool",
                                "value": true
                            }
                        ],
                        "signature": "transfer(address,uint256)"
                    },
                    "errorInfo": "",
                    "fromAddress": "0xf91967b8f084de85c6785e4ea6b3540a7b3ad64d",
                    "gasUsed": 36516,
                    "id": 0,
                    "methodDecoded": true,
                    "operation": "CALL",
                    "output": "0x0000000000000000000000000000000000000000000000000000000000000001",
                    "revert": false,
                    "revertMessage": "",
                    "selector": "0xa9059cbb",
                    "status": true,
                    "value": "0"
                },
                "nodeType": 0
            },
            "1": {
                "event": {
                    "contract": "0x7a271d1df2c3f2fef734611c6c7ee6b9b8439204",
                    "decodedLog": {
                        "name": "Transfer",
                        "params": [
                            {
                                "name": "from",
                                "type": "address",
                                "value": "0xf91967b8f084de85c6785e4ea6b3540a7b3ad64d"
                            },
                            {
                                "name": "to",
                                "type": "address",
                                "value": "0xfc5413a3b29c0ac661599201881f0117951908ec"
                            },
                            {
                                "decimalAvailable": true,
                                "name": "value",
                                "type": "uint256",
                                "value": "208,446,000,000"
                            }
                        ],
                        "signature": "Transfer(address,address,uint256)"
                    },
                    "id": 1,
                    "logData": "0x0000000000000000000000000000000000000000000000000000003088598b80",
                    "logDecoded": true,
                    "operation": "EVENT",
                    "revert": false,
                    "status": true,
                    "topics": [
                        "0xddf252ad1be2c89b69c2b068fc378daa952ba7f163c4a11628f55a4df523b3ef",
                        "0x000000000000000000000000f91967b8f084de85c6785e4ea6b3540a7b3ad64d",
                        "0x000000000000000000000000fc5413a3b29c0ac661599201881f0117951908ec"
                    ]
                },
                "nodeType": 1
            }
        },
        "gasFlame": [
            {
                "children": [
                    {
                        "children": [
                            {
                                "children": [],
                                "depth": 0,
                                "name": "Initial Gas",
                                "value": 23128
                            },
                            {
                                "children": [],
                                "depth": 0,
                                "name": "Executed Gas",
                                "value": 13388
                            }
                        ],
                        "depth": -1,
                        "name": "Actual Gas Used",
                        "value": 36516
                    },
                    {
                        "children": [],
                        "depth": -1,
                        "name": "Refunded Gas",
                        "value": 0
                    }
                ],
                "depth": -2,
                "name": "Total Gas",
                "value": 36516
            }
        ],
        "isConfirmed": true,
        "mainTrace": [
            {
                "children": [
                    {
                        "children": [
                            {
                                "children": [],
                                "depth": 1,
                                "id": 1,
                                "order": 1
                            }
                        ],
                        "depth": 0,
                        "id": 0,
                        "order": 0
                    }
                ],
                "depth": -1,
                "id": -1,
                "order": -1
            }
        ],
        "mainTraceNodeCount": 2,
        "parentIdMap": {
            "0": -1,
            "1": 0
        },
        "tidyTrace": [
            {
                "children": [
                    {
                        "children": [
                            {
                                "children": [],
                                "depth": 1,
                                "id": 1,
                                "order": 1
                            }
                        ],
                        "depth": 0,
                        "id": 0,
                        "order": 0
                    }
                ],
                "depth": -1,
                "id": -1,
                "order": -1
            }
        ],
        "tidyTraceNodeCount": 2
    },
    "state_change": {
        "stateChanges": [
            {
                "address": "0x7a271d1df2c3f2fef734611c6c7ee6b9b8439204",
                "erc": "ERC-20",
                "slots": [
                    {
                        "current": "0x000000000000000000000000000000000000000000000000000a89819c386fd8",
                        "key": "0x490ff0539b417fa717e5b1bc78e7cd8d6f9e1361c8afaf27dc1cf87e2ad3f0ac",
                        "prev": "0x000000000000000000000000000000000000000000000000000a89b22491fb58"
                    },
                    {
                        "current": "0x0000000000000000000000000000000000000000000000000001072a111f5e80",
                        "key": "0xde7be06373d22488db6522ba389825225907758d3774a5420dba0e27cd63b855",
                        "prev": "0x000000000000000000000000000000000000000000000000000106f988c5d300"
                    }
                ],
                "storageVariables": [
                    {
                        "name": "balances",
                        "type": "mapping(address => uint256)",
                        "value": {
                            "pairs": [
                                {
                                    "key": "0xf91967b8f084de85c6785e4ea6b3540a7b3ad64d",
                                    "value": {
                                        "current": "2965939531837400",
                                        "prev": "2966147977837400",
                                        "typeTag": 1
                                    }
                                },
                                {
                                    "key": "0xfc5413a3b29c0ac661599201881f0117951908ec",
                                    "value": {
                                        "current": "289352234000000",
                                        "prev": "289143788000000",
                                        "typeTag": 1
                                    }
                                }
                            ],
                            "typeTag": 4
                        }
                    }
                ]
            }
        ]
    }
}