{
    "balance_change": {
        "balanceChanges": [
            {
                "account": "0xbc66b80117ef94073280777d184463645469821f",
                "assets": [
                    {
                        "address": "0xeeeeeeeeeeeeeeeeeeeeeeeeeeeeeeeeeeeeeeee",
                        "amount": "0.0003",
                        "iconUrl": "https://assets.blocksec.com/image/1663669189317-3.png",
                        "isERC1155": false,
                        "isERC721": false,
                        "sign": false,
                        "value": "0.04218458969999999795"
                    }
                ]
            },
            {
                "account": "0xd39f16bd03a506410d66bbbf6dccbb08f445197e",
                "assets": [
                    {
                        "address": "0xc03844f07f86ad1d90a1c4a2a8204dcf00f3a991",
                        "amount": "1",
                        "iconUrl": "",
                        "isERC1155": false,
                        "isERC721": true,
                        "sign": false,
                        "tokenID": "20360046",
                        "value": ""
                    }
                ]
            },
            {
                "account": "0xeaa360ef143ad6da39890defef541390a146dcd3",
                "assets": [
                    {
                        "address": "0xc03844f07f86ad1d90a1c4a2a8204dcf00f3a991",
                        "amount": "1",
                        "iconUrl": "",
                        "isERC1155": false,
                        "isERC721": true,
                        "sign": true,
                        "tokenID": "20360046",
                        "value": ""
                    },
                    {
                        "address": "0xeeeeeeeeeeeeeeeeeeeeeeeeeeeeeeeeeeeeeeee",
                        "amount": "0.0003",
                        "iconUrl": "https://assets.blocksec.com/image/1663669189317-3.png",
                        "isERC1155": false,
                        "isERC721": false,
                        "sign": true,
                        "value": "0.04218458969999999795"
                    }
                ]
            }
        ]
    },
    "profile": {
        "basic_info": {
            "baseFee": "",
            "blockNumber": 9894142,
            "callData": "0xf592c79c000000000000000000000000000000000000000000000000000000000000008000000000000000000000000000000000000000000000000000000000000000c0000000000000000000000000000000000000000000000000000000000000010000000000000000000000000000000000000000000000000000000000000001400000000000000000000000000000000000000000000000000000000000000001000000000000000000000000eaa360ef143ad6da39890defef541390a146dcd30000000000000000000000000000000000000000000000000000000000000001000000000000000000000000000000000000000000000000000000000136ab6e0000000000000000000000000000000000000000000000000000000000000001000000000000000000000000000000000000000000000000000110d9316ec0000000000000000000000000000000000000000000000000000000000000000001627164376b376174316d75666871383530396667000000000000000000000000",
            "debugEnable": true,
            "errorInfo": "",
            "eventCount": 2,
            "feeRecipient": "0x5a0b54d5dc17e0aadc383d2db43b0a0d3e029c4c",
            "formatValue": "0.0003",
            "gasLimit": 2500000,
            "gasPrice": "5.5",
            "gasUsed": 110796,
            "intTxnCount": 3,
            "internalRevert": false,
            "internalRevertMessage": "",
            "isContractCreation": false,
            "isFlashloan": false,
            "maxFee": "",
            "nonce": 2571,
            "overwritedBlockNumber": -1,
            "priorityFee": "",
            "receiver": "0xd39f16bd03a506410d66bbbf6dccbb08f445197e",
            "revertMessage": "",
            "sender": "0xbc66b80117ef94073280777d184463645469821f",
            "simulationEnable": true,
            "sourceTxnHash": "0x1880e74f09edcd7e21b41d4419cfd4786c04ca8f20f29af140ce0af94e837d83",
            "status": true,
            "timestamp": "2020-04-18T03:57:07Z",
            "transactionFee": "0.000609378",
            "txnHash": "0x1880e74f09edcd7e21b41d4419cfd4786c04ca8f20f29af140ce0af94e837d83",
            "txnIndex": 91,
            "type": 0,
            "value": "300000000000000"
        },
        "fund_flow": [
            {
                "amount": "0.0003",
                "from": "0xbc66b80117ef94073280777d184463645469821f",
                "id": 1,
                "isERC1155": false,
                "isERC721": false,
                "isReverted": false,
                "order": 1,
                "to": "0xd39f16bd03a506410d66bbbf6dccbb08f445197e",
                "token": "0xeeeeeeeeeeeeeeeeeeeeeeeeeeeeeeeeeeeeeeee"
            },
            {
                "amount": "1",
                "from": "0xd39f16bd03a506410d66bbbf6dccbb08f445197e",
                "id": 2,
                "isERC1155": false,
                "isERC721": true,
                "isReverted": false,
                "order": 2,
                "to": "0xeaa360ef143ad6da39890defef541390a146dcd3",
                "token": "0xc03844f07f86ad1d90a1c4a2a8204dcf00f3a991",
                "tokenID": "20360046"
            },
            {
                "amount": "0.0003",
                "from": "0xd39f16bd03a506410d66bbbf6dccbb08f445197e",
                "id": 3,
                "isERC1155": false,
                "isERC721": false,
                "isReverted": false,
                "order": 3,
                "to": "0xeaa360ef143ad6da39890defef541390a146dcd3",
                "token": "0xeeeeeeeeeeeeeeeeeeeeeeeeeeeeeeeeeeeeeeee"
            }
        ],
        "token_infos": [
            {
                "address": "0xc02aaa39b223fe8d0a0e5c4f27ead9083c756cc2",
                "decimals": 18
            },
            {
                "address": "0xeeeeeeeeeeeeeeeeeeeeeeeeeeeeeeeeeeeeeeee",
                "decimals": 18
            }
        ]
    },
    "address_label": {
        "labels": [
            {
                "address": "0x0000000000000000000000000000000000000003",
                "label": "Precompiled"
            },
            {
                "address": "0x0000000000000000000000000000000000000004",
                "label": "Precompiled"
            },
            {
                "address": "0xeeeeeeeeeeeeeeeeeeeeeeeeeeeeeeeeeeeeeeee",
                "label": "Ether"
            },
            {
                "address": "0xc03844f07f86ad1d90a1c4a2a8204dcf00f3a991",
                "label": "BFH: Sphere"
            },
            {
                "address": "0xd39f16bd03a506410d66bbbf6dccbb08f445197e",
                "label": "BFH: Sphere Gateway"
            },
            {
                "address": "0x0000000000000000000000000000000000000001",
                "label": "Precompiled"
            },
            {
                "address": "0x0000000000000000000000000000000000000002",
                "label": "Precompiled"
            }
        ]
    },
    "trace": {
        "accountLabels": null,
        "dataMap": {
            "-1": {
                "invocation": {
                    "address": "0xbc66b80117ef94073280777d184463645469821f",
                    "callData": "",
                    "decodedMethod": null,
                    "errorInfo": "",
                    "fromAddress": "",
                    "gasUsed": 0,
                    "id": -1,
                    "methodDecoded": false,
                    "operation": "",
                    "output": "",
                    "revert": false,
                    "revertMessage": "",
                    "selector": "",
                    "status": false,
                    "value": ""
                },
                "nodeType": 0
            },
            "0": {
                "invocation": {
                    "address": "0xd39f16bd03a506410d66bbbf6dccbb08f445197e",
                    "callData": "0x000000000000000000000000000000000000000000000000000000000000008000000000000000000000000000000000000000000000000000000000000000c0000000000000000000000000000000000000000000000000000000000000010000000000000000000000000000000000000000000000000000000000000001400000000000000000000000000000000000000000000000000000000000000001000000000000000000000000eaa360ef143ad6da39890defef541390a146dcd30000000000000000000000000000000000000000000000000000000000000001000000000000000000000000000000000000000000000000000000000136ab6e0000000000000000000000000000000000000000000000000000000000000001000000000000000000000000000000000000000000000000000110d9316ec0000000000000000000000000000000000000000000000000000000000000000001627164376b376174316d75666871383530396667000000000000000000000000",
                    "decodedMethod": {
                        "callParams": [
                            {
                                "name": "_tos",
                                "type": "address[]",
                                "value": [
                                    "0xeaa360ef143ad6da39890defef541390a146dcd3"
                                ]
                            },
                            {
                                "name": "_tokenIds",
                                "type": "uint256[]",
                                "value": [
                                    "20,360,046"
                                ]
                            },
                            {
                                "name": "_supportEthers",
                                "type": "uint256[]",
                                "value": [
                                    "300,000,000,000,000"
                                ]
                            },
                            {
                                "name": "_eventHashes",
                                "type": "bytes32[]",
                                "value": [
                                    "0x627164376b376174316d75666871383530396667000000000000000000000000"
                                ]
                            }
                        ],
                        "constructorArguments": "",
                        "name": "bulkWithdraw",
                        "returnParams": [],
                        "signature": "bulkWithdraw(address[],uint256[],uint256[],bytes32[])"
                    },
                    "errorInfo": "",
                    "fromAddress": "0xbc66b80117ef94073280777d184463645469821f",
                    "gasUsed": 110796,
                    "id": 0,
                    "methodDecoded": true,
                    "operation": "CALL",
                    "output": "",
                    "revert": false,
                    "revertMessage": "",
                    "selector": "0xf592c79c",
                    "status": true,
                    "value": "0.0003"
                },
                "nodeType": 0
            },
            "1": {
                "invocation": {
                    "address": "0xc03844f07f86ad1d90a1c4a2a8204dcf00f3a991",
                    "callData": "0x000000000000000000000000000000000000000000000000000000000136ab6e",
                    "decodedMethod": {
                        "callParams": [
                            {
                                "name": "tokenId",
                                "type": "uint256",
                                "value": "20,360,046"
                            }
                        ],
                        "constructorArguments": "",
                        "name": "exist",
                        "returnParams": [
                            {
                                "name": "",
                                "type": "bool",
                                "value": true
                            }
                        ],
                        "signature": "exist(uint256)"
                    },
                    "errorInfo": "",
                    "fromAddress": "0xd39f16bd03a506410d66bbbf6dccbb08f445197e",
                    "gasUsed": 1244,
                    "id": 1,
                    "methodDecoded": true,
                    "operation": "STATICCALL",
                    "output": "0x0000000000000000000000000000000000000000000000000000000000000001",
                    "revert": false,
                    "revertMessage": "",
                    "selector": "0x4ebbc92a",
                    "status": true,
                    "value": "0"
                },
                "nodeType": 0
            },
            "2": {
                "invocation": {
                    "address": "0xc03844f07f86ad1d90a1c4a2a8204dcf00f3a991",
                    "callData": "0x000000000000000000000000d39f16bd03a506410d66bbbf6dccbb08f445197e000000000000000000000000eaa360ef143ad6da39890defef541390a146dcd3000000000000000000000000000000000000000000000000000000000136ab6e",
                    "decodedMethod": {
                        "callParams": [
                            {
                                "name": "_from",
                                "type": "address",
                                "value": "0xd39f16bd03a506410d66bbbf6dccbb08f445197e"
                            },
                            {
                                "name": "_to",
                                "type": "address",
                                "value": "0xeaa360ef143ad6da39890defef541390a146dcd3"
                            },
                            {
                                "name": "_tokenId",
                                "type": "uint256",
                                "value": "20,360,046"
                            }
                        ],
                        "constructorArguments": "",
                        "name": "safeTransferFrom",
                        "returnParams": [],
                        "signature": "safeTransferFrom(address,address,uint256)"
                    },
                    "errorInfo": "",
                    "fromAddress": "0xd39f16bd03a506410d66bbbf6dccbb08f445197e",
                    "gasUsed": 45739,
                    "id": 2,
                    "methodDecoded": true,
                    "operation": "CALL",
                    "output": "",
                    "revert": false,
                    "revertMessage": "",
                    "selector": "0x42842e0e",
                    "status": true,
                    "value": "0"
                },
                "nodeType": 0
            },
            "3": {
                "event": {
                    "contract": "0xc03844f07f86ad1d90a1c4a2a8204dcf00f3a991",
                    "decodedLog": {
                        "name": "Transfer",
                        "params": [
                            {
                                "name": "_from",
                                "type": "address",
                                "value": "0xd39f16bd03a506410d66bbbf6dccbb08f445197e"
                            },
                            {
                                "name": "_to",
                                "type": "address",
                                "value": "0xeaa360ef143ad6da39890defef541390a146dcd3"
                            },
                            {
                                "decimalAvailable": true,
                                "name": "_tokenId",
                                "type": "uint256",
                                "value": "20,360,046"
                            }
                        ],
                        "signature": "Transfer(address,address,uint256)"
                    },
                    "id": 3,
                    "logData": "0x",
                    "logDecoded": true,
                    "operation": "EVENT",
                    "revert": false,
                    "status": true,
                    "topics": [
                        "0xddf252ad1be2c89b69c2b068fc378daa952ba7f163c4a11628f55a4df523b3ef",
                        "0x000000000000000000000000d39f16bd03a506410d66bbbf6dccbb08f445197e",
                        "0x000000000000000000000000eaa360ef143ad6da39890defef541390a146dcd3",
                        "0x000000000000000000000000000000000000000000000000000000000136ab6e"
                    ]
                },
                "nodeType": 1
            },
            "4": {
                "invocation": {
                    "address": "0xeaa360ef143ad6da39890defef541390a146dcd3",
                    "callData": "0x",
                    "decodedMethod": null,
                    "errorInfo": "",
                    "fromAddress": "0xd39f16bd03a506410d66bbbf6dccbb08f445197e",
                    "gasUsed": 0,
                    "id": 4,
                    "methodDecoded": false,
                    "operation": "CALL",
                    "output": "",
                    "revert": false,
                    "revertMessage": "",
                    "selector": "fallback",
                    "status": true,
                    "value": "0.0003"
                },
                "nodeType": 0
            },
            "5": {
                "event": {
                    "contract": "0xd39f16bd03a506410d66bbbf6dccbb08f445197e",
                    "decodedLog": {
                        "name": "Withdraw",
                        "params": [
                            {
                                "name": "owner",
                                "type": "address",
                                "value": "0xbc66b80117ef94073280777d184463645469821f"
                            },
                            {
                                "name": "tokenId",
                                "type": "uint256",
                                "value": "20,360,046"
                            },
                            {
                                "name": "supportEther",
                                "type": "uint256",
                                "value": "300,000,000,000,000"
                            },
                            {
                                "name": "eventHash",
                                "type": "bytes32",
                                "value": "0x627164376b376174316d75666871383530396667000000000000000000000000"
                            }
                        ],
                        "signature": "Withdraw(address,uint256,uint256,bytes32)"
                    },
                    "id": 5,
                    "logData": "0x000000000000000000000000000000000000000000000000000000000136ab6e000000000000000000000000000000000000000000000000000110d9316ec000627164376b376174316d75666871383530396667000000000000000000000000",
                    "logDecoded": true,
                    "operation": "EVENT",
                    "revert": false,
                    "status": true,
                    "topics": [
                        "0x80bd7e915c065f64ef8e41fa6334d4a2b752591cb4d462c204b8e2449eb0a1f7",
                        "0x000000000000000000000000bc66b80117ef94073280777d184463645469821f"
                    ]
                },
                "nodeType": 1
            }
        },
        "gasFlame": [
            {
                "children": [
                    {
                        "children": [
                            {
                                "children": [],
                                "depth": 0,
                                "name": "Initial Gas",
                                "value": 23308
                            },
                            {
                                "children": [
                                    {
                                        "children": [],
                                        "depth": 1,
                                        "name": "exist",
                                        "value": 1244
                                    },
                                    {
                                        "children": [],
                                        "depth": 1,
                                        "name": "safeTransferFrom",
                                        "value": 45739
                                    },
                                    {
                                        "children": [],
                                        "depth": 1,
                                        "name": "fallback",
                                        "value": 0
                                    }
                                ],
                                "depth": 0,
                                "name": "Executed Gas",
                                "value": 87488
                            }
                        ],
                        "depth": -1,
                        "name": "Actual Gas Used",
                        "value": 110796
                    },
                    {
                        "children": [],
                        "depth": -1,
                        "name": "Refunded Gas",
                        "value": 0
                    }
                ],
                "depth": -2,
                "name": "Total Gas",
                "value": 110796
            }
        ],
        "isConfirmed": true,
        "mainTrace": [
            {
                "children": [
                    {
                        "children": [
                            {
                                "children": [],
                                "depth": 1,
                                "id": 1,
                                "order": 1
                            },
                            {
                                "children": [
                                    {
                                        "children": [],
                                        "depth": 2,
                                        "id": 3,
                                        "order": 3
                                    }
                                ],
                                "depth": 1,
                                "id": 2,
                                "order": 2
                            },
                            {
                                "children": [],
                                "depth": 1,
                                "id": 4,
                                "order": 4
                            },
                            {
                                "children": [],
                                "depth": 1,
                                "id": 5,
                                "order": 5
                            }
                        ],
                        "depth": 0,
                        "id": 0,
                        "order": 0
                    }
                ],
                "depth": -1,
                "id": -1,
                "order": -1
            }
        ],
        "mainTraceNodeCount": 6,
        "parentIdMap": {
            "0": -1,
            "1": 0,
            "2": 0,
            "3": 2,
            "4": 0,
            "5": 0
        },
        "tidyTrace": [
            {
                "children": [
                    {
                        "children": [
                            {
                                "children": [
                                    {
                                        "children": [],
                                        "depth": 2,
                                        "id": 3,
                                        "order": 3
                                    }
                                ],
                                "depth": 1,
                                "id": 2,
                                "order": 2
                            },
                            {
                                "children": [],
                                "depth": 1,
                                "id": 4,
                                "order": 4
                            },
                            {
                                "children": [],
                                "depth": 1,
                                "id": 5,
                                "order": 5
                            }
                        ],
                        "depth": 0,
                        "id": 0,
                        "order": 0
                    }
                ],
                "depth": -1,
                "id": -1,
                "order": -1
            }
        ],
        "tidyTraceNodeCount": 5
    },
    "state_change": {
        "stateChanges": [
            {
                "address": "0xc03844f07f86ad1d90a1c4a2a8204dcf00f3a991",
                "erc": "ERC-721",
                "slots": [
                    {
                        "current": "0x000000000000000000000000eaa360ef143ad6da39890defef541390a146dcd3",
                        "key": "0x581ae1bd5b5f452f8956347d1f6fbffe360d0c4ca9e77087a1596ec8ffab886e",
                        "prev": "0x000000000000000000000000d39f16bd03a506410d66bbbf6dccbb08f445197e"
                    },
                    {
                        "current": "0x0000000000000000000000000000000000000000000000000000000000000a57",
                        "key": "0x7412bb092a2db0b9cbf7bf974187eed24834c314e06741519c3d597a49c8405e",
                        "prev": "0x0000000000000000000000000000000000000000000000000000000000000a58"
                    },
                    {
                        "current": "0x0000000000000000000000000000000000000000000000000000000000000001",
                        "key": "0x0f0d18269487782f0dd51fbb1c8417fe2314fb725b32d47f985ecd5b81e1eb08",
                        "prev": "0x0000000000000000000000000000000000000000000000000000000000000000"
                    }
                ],
                "storageVariables": [
                    {
                        "name": "_tokenOwner",
                        "type": "mapping(uint256 => address)",
                        "value": {
                            "pairs": [
                                {
                                    "key": "20360046",
                                    "value": {
                                        "current": "0xeaa360ef143ad6da39890defef541390a146dcd3",
                                        "prev": "0xd39f16bd03a506410d66bbbf6dccbb08f445197e",
                                        "typeTag": 1
                                    }
                                }
                            ],
                            "typeTag": 4
                        }
                    },
                    {
                        "name": "_balance",
                        "type": "mapping(address => uint256)",
                        "value": {
                            "pairs": [
                                {
                                    "key": "0xd39f16bd03a506410d66bbbf6dccbb08f445197e",
                                    "value": {
                                        "current": "2647",
                                        "prev": "2648",
                                        "typeTag": 1
                                    }
                                },
                                {
                                    "key": "0xeaa360ef143ad6da39890defef541390a146dcd3",
                                    "value": {
                                        "current": "1",
                                        "prev": "0",
                                        "typeTag": 1
                                    }
                                }
                            ],
                            "typeTag": 4
                        }
                    }
                ]
            },
            {
                "address": "0xd39f16bd03a506410d66bbbf6dccbb08f445197e",
                "erc": "",
                "slots": [
                    {
                        "current": "0x0000000000000000000000000000000000000000000000000000000000000001",
                        "key": "0x832daba5b47337278a6cd5dfb9b1c0efc6875b64a848d28653d38b6bcce1c00b",
                        "prev": "0x0000000000000000000000000000000000000000000000000000000000000000"
                    }
                ],
                "storageVariables": [
                    {
                        "name": "eventHashTransacted",
                        "type": "mapping(bytes32 => bool)",
                        "value": {
                            "pairs": [
                                {
                                    "key": "0x627164376b376174316d75666871383530396667000000000000000000000000",
                                    "value": {
                                        "current": "true",
                                        "prev": "false",
                                        "typeTag": 1
                                    }
                                }
                            ],
                            "typeTag": 4
                        }
                    }
                ]
            }
        ]
    }
}