{
    "balance_change": {
        "balanceChanges": [
            {
                "account": "0x223cce81c595873bb13fad074edc72f821496536",
                "assets": [
                    {
                        "address": "0x62b9f8741bf53a6986a5411c0557c30f6f11f3af",
                        "amount": "62",
                        "iconUrl": "",
                        "isERC1155": false,
                        "isERC721": false,
                        "sign": false,
                        "value": ""
                    }
                ]
            },
            {
                "account": "0xac513e6f48fb134b63ba071692b80dbe7064d482",
                "assets": [
                    {
                        "address": "0x62b9f8741bf53a6986a5411c0557c30f6f11f3af",
                        "amount": "62",
                        "iconUrl": "",
                        "isERC1155": false,
                        "isERC721": false,
                        "sign": true,
                        "value": ""
                    }
                ]
            }
        ]
    },
    "profile": {
        "basic_info": {
            "baseFee": "",
            "blockNumber": 8564865,
            "callData": "0xa9059cbb000000000000000000000000ac513e6f48fb134b63ba071692b80dbe7064d4820000000000000000000000000000000000000000000000035c6c3f828a380000",
            "debugEnable": true,
            "errorInfo": "",
            "eventCount": 1,
            "feeRecipient": "0x5a0b54d5dc17e0aadc383d2db43b0a0d3e029c4c",
            "formatValue": "0",
            "gasLimit": 90000,
            "gasPrice": "30",
            "gasUsed": 37966,
            "intTxnCount": 0,
            "internalRevert": false,
            "internalRevertMessage": "",
            "isContractCreation": false,
            "isFlashloan": false,
            "maxFee": "",
            "nonce": 2359,
            "overwritedBlockNumber": -1,
            "priorityFee": "",
            "receiver": "0x62b9f8741bf53a6986a5411c0557c30f6f11f3af",
            "revertMessage": "",
            "sender": "0x223cce81c595873bb13fad074edc72f821496536",
            "simulationEnable": true,
            "sourceTxnHash": "0x1828d8604a7f8848c178467a624f54ce49df80cf7f2d83699bdca2b4b847a3df",
            "status": true,
            "timestamp": "2019-09-17T04:32:11Z",
            "transactionFee": "0.00113898",
            "txnHash": "0x1828d8604a7f8848c178467a624f54ce49df80cf7f2d83699bdca2b4b847a3df",
            "txnIndex": 25,
            "type": 0,
            "value": "0"
        },
        "fund_flow": [
            {
                "amount": "62",
                "from": "0x223cce81c595873bb13fad074edc72f821496536",
                "id": 1,
                "isERC1155": false,
                "isERC721": false,
                "isReverted": false,
                "order": 1,
                "to": "0xac513e6f48fb134b63ba071692b80dbe7064d482",
                "token": "0x62b9f8741bf53a6986a5411c0557c30f6f11f3af"
            }
        ],
        "token_infos": [
            {
                "address": "0x62b9f8741bf53a6986a5411c0557c30f6f11f3af",
                "decimals": 18
            },
            {
                "address": "0xc02aaa39b223fe8d0a0e5c4f27ead9083c756cc2",
                "decimals": 18
            },
            {
                "address": "0xeeeeeeeeeeeeeeeeeeeeeeeeeeeeeeeeeeeeeeee",
                "decimals": 18
            }
        ]
    },
    "address_label": {
        "labels": [
            {
                "address": "0xeeeeeeeeeeeeeeeeeeeeeeeeeeeeeeeeeeeeeeee",
                "label": "Ether"
            },
            {
                "address": "0x62b9f8741bf53a6986a5411c0557c30f6f11f3af",
                "label": "5GH (5GH)"
            },
            {
                "address": "0x0000000000000000000000000000000000000001",
                "label": "Precompiled"
            },
            {
                "address": "0x0000000000000000000000000000000000000002",
                "label": "Precompiled"
            },
            {
                "address": "0x0000000000000000000000000000000000000003",
                "label": "Precompiled"
            },
            {
                "address": "0x0000000000000000000000000000000000000004",
                "label": "Precompiled"
            }
        ]
    },
    "trace": {
        "accountLabels": null,
        "dataMap": {
            "-1": {
                "invocation": {
                    "address": "0x223cce81c595873bb13fad074edc72f821496536",
                    "callData": "",
                    "decodedMethod": null,
                    "errorInfo": "",
                    "fromAddress": "",
                    "gasUsed": 0,
                    "id": -1,
                    "methodDecoded": false,
                    "operation": "",
                    "output": "",
                    "revert": false,
                    "revertMessage": "",
                    "selector": "",
                    "status": false,
                    "value": ""
                },
                "nodeType": 0
            },
            "0": {
                "invocation": {
                    "address": "0x62b9f8741bf53a6986a5411c0557c30f6f11f3af",
                    "callData": "0x000000000000000000000000ac513e6f48fb134b63ba071692b80dbe7064d4820000000000000000000000000000000000000000000000035c6c3f828a380000",
                    "decodedMethod": {
                        "callParams": [
                            {
                                "name": "_to",
                                "type": "address",
                                "value": "0xac513e6f48fb134b63ba071692b80dbe7064d482"
                            },
                            {
                                "decimalAvailable": true,
                                "name": "_value",
                                "type": "uint256",
                                "value": "62,000,000,000,000,000,000"
                            }
                        ],
                        "constructorArguments": "",
                        "name": "transfer",
                        "returnParams": [
                            {
                                "name": "success",
                                "type": "bool",
                                "value": true
                            }
                        ],
                        "signature": "transfer(address,uint256)"
                    },
                    "errorInfo": "",
                    "fromAddress": "0x223cce81c595873bb13fad074edc72f821496536",
                    "gasUsed": 37966,
                    "id": 0,
                    "methodDecoded": true,
                    "operation": "CALL",
                    "output": "0x0000000000000000000000000000000000000000000000000000000000000001",
                    "revert": false,
                    "revertMessage": "",
                    "selector": "0xa9059cbb",
                    "status": true,
                    "value": "0"
                },
                "nodeType": 0
            },
            "1": {
                "event": {
                    "contract": "0x62b9f8741bf53a6986a5411c0557c30f6f11f3af",
                    "decodedLog": {
                        "name": "Transfer",
                        "params": [
                            {
                                "name": "from",
                                "type": "address",
                                "value": "0x223cce81c595873bb13fad074edc72f821496536"
                            },
                            {
                                "name": "to",
                                "type": "address",
                                "value": "0xac513e6f48fb134b63ba071692b80dbe7064d482"
                            },
                            {
                                "decimalAvailable": true,
                                "name": "value",
                                "type": "uint256",
                                "value": "62,000,000,000,000,000,000"
                            }
                        ],
                        "signature": "Transfer(address,address,uint256)"
                    },
                    "id": 1,
                    "logData": "0x0000000000000000000000000000000000000000000000035c6c3f828a380000",
                    "logDecoded": true,
                    "operation": "EVENT",
                    "revert": false,
                    "status": true,
                    "topics": [
                        "0xddf252ad1be2c89b69c2b068fc378daa952ba7f163c4a11628f55a4df523b3ef",
                        "0x000000000000000000000000223cce81c595873bb13fad074edc72f821496536",
                        "0x000000000000000000000000ac513e6f48fb134b63ba071692b80dbe7064d482"
                    ]
                },
                "nodeType": 1
            }
        },
        "gasFlame": [
            {
                "children": [
                    {
                        "children": [
                            {
                                "children": [],
                                "depth": 0,
                                "name": "Initial Gas",
                                "value": 23256
                            },
                            {
                                "children": [],
                                "depth": 0,
                                "name": "Executed Gas",
                                "value": 14710
                            }
                        ],
                        "depth": -1,
                        "name": "Actual Gas Used",
                        "value": 37966
                    },
                    {
                        "children": [],
                        "depth": -1,
                        "name": "Refunded Gas",
                        "value": 0
                    }
                ],
                "depth": -2,
                "name": "Total Gas",
                "value": 37966
            }
        ],
        "isConfirmed": true,
        "mainTrace": [
            {
                "children": [
                    {
                        "children": [
                            {
                                "children": [],
                                "depth": 1,
                                "id": 1,
                                "order": 1
                            }
                        ],
                        "depth": 0,
                        "id": 0,
                        "order": 0
                    }
                ],
                "depth": -1,
                "id": -1,
                "order": -1
            }
        ],
        "mainTraceNodeCount": 2,
        "parentIdMap": {
            "0": -1,
            "1": 0
        },
        "tidyTrace": [
            {
                "children": [
                    {
                        "children": [
                            {
                                "children": [],
                                "depth": 1,
                                "id": 1,
                                "order": 1
                            }
                        ],
                        "depth": 0,
                        "id": 0,
                        "order": 0
                    }
                ],
                "depth": -1,
                "id": -1,
                "order": -1
            }
        ],
        "tidyTraceNodeCount": 2
    },
    "state_change": {
        "stateChanges": [
            {
                "address": "0x62b9f8741bf53a6986a5411c0557c30f6f11f3af",
                "erc": "ERC-20",
                "slots": [
                    {
                        "current": "0x0000000000000000000000000000000000000000000006e9bedf13d88c760000",
                        "key": "0x9ba7f511ab1893a64c1f712f54a960d62079da3d394dad4bd02583a8ac3fba83",
                        "prev": "0x0000000000000000000000000000000000000000000006ed1b4b535b16ae0000"
                    },
                    {
                        "current": "0x0000000000000000000000000000000000000000000000035c6c5fd7ab600000",
                        "key": "0x406c53b37310d5a0ee81b0fe0a99ef6054c50cf6f2bb957c0bd94a51e900f3fc",
                        "prev": "0x0000000000000000000000000000000000000000000000000000205521280000"
                    }
                ],
                "storageVariables": [
                    {
                        "name": "balanceOf",
                        "type": "mapping(address => uint256)",
                        "value": {
                            "pairs": [
                                {
                                    "key": "0x223cce81c595873bb13fad074edc72f821496536",
                                    "value": {
                                        "current": "32646044000000000000000",
                                        "prev": "32708044000000000000000",
                                        "typeTag": 1
                                    }
                                },
                                {
                                    "key": "0xac513e6f48fb134b63ba071692b80dbe7064d482",
                                    "value": {
                                        "current": "62000035550000578560",
                                        "prev": "35550000578560",
                                        "typeTag": 1
                                    }
                                }
                            ],
                            "typeTag": 4
                        }
                    }
                ]
            }
        ]
    }
}