{
    "balance_change": {
        "balanceChanges": [
            {
                "account": "0xf66ecdfc002b28f81ba2b32c04e8880018babe91",
                "assets": [
                    {
                        "address": "0xeeeeeeeeeeeeeeeeeeeeeeeeeeeeeeeeeeeeeeee",
                        "amount": "0.055439440726921946",
                        "iconUrl": "https://assets.blocksec.com/image/1663669189317-3.png",
                        "isERC1155": false,
                        "isERC721": false,
                        "sign": false,
                        "value": "99.35191294341839597"
                    },
                    {
                        "address": "0x6982508145454ce325ddbe47a25d4ec3d2311933",
                        "amount": "85,592,055.7210793292123",
                        "iconUrl": "https://assets.blocksec.com/icon/99f1a626358e559d9a9d6dc4254c663e595a9ebcd362efa2d4cd902a8d75ea2c.png",
                        "isERC1155": false,
                        "isERC721": false,
                        "sign": true,
                        "value": ""
                    }
                ]
            },
            {
                "account": "0x2008b6c3d07b061a84f790c035c2f6dc11a0be70",
                "assets": [
                    {
                        "address": "0xc02aaa39b223fe8d0a0e5c4f27ead9083c756cc2",
                        "amount": "0.055439440726921946",
                        "iconUrl": "https://assets.blocksec.com/icon/f1cb2d02c471d545bbc7722daf3277fd852d98e63d118771af7047bd8256c516.png",
                        "isERC1155": false,
                        "isERC721": false,
                        "sign": true,
                        "value": "99.35191294341839597"
                    },
                    {
                        "address": "0x6982508145454ce325ddbe47a25d4ec3d2311933",
                        "amount": "85,675,160.62688741",
                        "iconUrl": "https://assets.blocksec.com/icon/99f1a626358e559d9a9d6dc4254c663e595a9ebcd362efa2d4cd902a8d75ea2c.png",
                        "isERC1155": false,
                        "isERC721": false,
                        "sign": false,
                        "value": ""
                    }
                ]
            },
            {
                "account": "0xad01c20d5886137e056775af56915de824c8fce5",
                "assets": [
                    {
                        "address": "0x6982508145454ce325ddbe47a25d4ec3d2311933",
                        "amount": "83,104.9058080807877",
                        "iconUrl": "https://assets.blocksec.com/icon/99f1a626358e559d9a9d6dc4254c663e595a9ebcd362efa2d4cd902a8d75ea2c.png",
                        "isERC1155": false,
                        "isERC721": false,
                        "sign": true,
                        "value": ""
                    }
                ]
            },
            {
                "account": "0xc02aaa39b223fe8d0a0e5c4f27ead9083c756cc2",
                "assets": [
                    {
                        "address": "0xeeeeeeeeeeeeeeeeeeeeeeeeeeeeeeeeeeeeeeee",
                        "amount": "0.055439440726921946",
                        "iconUrl": "https://assets.blocksec.com/image/1663669189317-3.png",
                        "isERC1155": false,
                        "isERC721": false,
                        "sign": true,
                        "value": "99.35191294341839597"
                    },
                    {
                        "address": "0xc02aaa39b223fe8d0a0e5c4f27ead9083c756cc2",
                        "amount": "0.055439440726921946",
                        "iconUrl": "https://assets.blocksec.com/icon/f1cb2d02c471d545bbc7722daf3277fd852d98e63d118771af7047bd8256c516.png",
                        "isERC1155": false,
                        "isERC721": false,
                        "sign": false,
                        "value": "99.35191294341839597"
                    }
                ]
            }
        ]
    },
    "profile": {
        "basic_info": {
            "baseFee": "23.010145367",
            "blockNumber": 18457434,
            "callData": "0x415565b0000000000000000000000000eeeeeeeeeeeeeeeeeeeeeeeeeeeeeeeeeeeeeeee0000000000000000000000006982508145454ce325ddbe47a25d4ec3d231193300000000000000000000000000000000000000000000000000c4f5e0ab1312da00000000000000000000000000000000000000000044ac8cd85827f0a8a9abe000000000000000000000000000000000000000000000000000000000000000a000000000000000000000000000000000000000000000000000000000000000040000000000000000000000000000000000000000000000000000000000000080000000000000000000000000000000000000000000000000000000000000012000000000000000000000000000000000000000000000000000000000000004e000000000000000000000000000000000000000000000000000000000000005e0000000000000000000000000000000000000000000000000000000000000000600000000000000000000000000000000000000000000000000000000000000400000000000000000000000000000000000000000000000000000000000000040000000000000000000000000eeeeeeeeeeeeeeeeeeeeeeeeeeeeeeeeeeeeeeee00000000000000000000000000000000000000000000000000c4f5e0ab1312da00000000000000000000000000000000000000000000000000000000000000210000000000000000000000000000000000000000000000000000000000000040000000000000000000000000000000000000000000000000000000000000036000000000000000000000000000000000000000000000000000000000000000200000000000000000000000000000000000000000000000000000000000000000000000000000000000000000c02aaa39b223fe8d0a0e5c4f27ead9083c756cc20000000000000000000000006982508145454ce325ddbe47a25d4ec3d2311933000000000000000000000000000000000000000000000000000000000000024000000000000000000000000000000000000000000000000000000000000002400000000000000000000000000000000000000000000000000000000000000240000000000000000000000000000000000000000000000000000000000000014000000000000000000000000000000000000000000000000000c4f5e0ab1312da000000000000000000000000000000000000000000000000000000000000000000000000000000000000000000000000000000000000000000000000000001800000000000000000000000000000000000000000000000000000000000000001000000000000000000000000000000000000000000000000000000000000000300000000000000000000000000000000000000000000000000000000000000010000000000000000000000006982508145454ce325ddbe47a25d4ec3d2311933000000000000000000000000c02aaa39b223fe8d0a0e5c4f27ead9083c756cc200000000000000000000000000000000000000000046de6bc39492b03e96f40000000000000000000000000000000000000000000000000000c4f5e0ab1312da0000000000000000000000002008b6c3d07b061a84f790c035c2f6dc11a0be700000000000000000000000000000000000000000000000000000000000000000000000000000000000000000f66ecdfc002b28f81ba2b32c04e8880018babe9100000000653e9b700000000000000000000000000000000000000000653e9b170000000000000000000000000000000000000000000000000000000000000003000000000000000000000000000000000000000000000000000000000000001b178ea6a7b20dfc5e189c78fe832a957ed55c7bec27f215baa1ed1b712a9da94a20a901b9df82c21d436c609dfbe5ce6c600c9ddf3440ac4d114115216c0cbaa000000000000000000000000000000000000000000000000000c4f5e0ab1312da000000000000000000000000000000000000000000000000000000000000001b000000000000000000000000000000000000000000000000000000000000004000000000000000000000000000000000000000000000000000000000000000a0000000000000000000000000000000000000000000000000000000000000002000000000000000000000000000000000000000000000000000000000000000010000000000000000000000006982508145454ce325ddbe47a25d4ec3d2311933000000000000000000000000000000000000000000001199203fa3c9a8877920000000000000000000000000ad01c20d5886137e056775af56915de824c8fce5000000000000000000000000000000000000000000000000000000000000001c000000000000000000000000000000000000000000000000000000000000004000000000000000000000000000000000000000000000000000000000000000e00000000000000000000000000000000000000000000000000000000000000020000000000000000000000000000000000000000000000000000000000000004000000000000000000000000000000000000000000000000000000000000000a00000000000000000000000000000000000000000000000000000000000000002000000000000000000000000c02aaa39b223fe8d0a0e5c4f27ead9083c756cc2000000000000000000000000eeeeeeeeeeeeeeeeeeeeeeeeeeeeeeeeeeeeeeee0000000000000000000000000000000000000000000000000000000000000000869584cd000000000000000000000000382ffce2287252f930e1c8dc9328dac5bf282ba10000000000000000000000000000000064a96bea6cb46869ce7c855fad0bde93",
            "debugEnable": true,
            "errorInfo": "",
            "eventCount": 8,
            "feeRecipient": "0x1f9090aae28b8a3dceadf281b0f12828e676c326",
            "formatValue": "0.055439440726921946",
            "gasLimit": 308584,
            "gasPrice": "23.110145367",
            "gasUsed": 222889,
            "intTxnCount": 25,
            "internalRevert": false,
            "internalRevertMessage": "",
            "isContractCreation": false,
            "isFlashloan": false,
            "maxFee": "29.565573548",
            "nonce": 13,
            "overwritedBlockNumber": -1,
            "priorityFee": "0.1",
            "receiver": "0xdef1c0ded9bec7f1a1670819833240f027b25eff",
            "revertMessage": "",
            "sender": "0xf66ecdfc002b28f81ba2b32c04e8880018babe91",
            "simulationEnable": true,
            "sourceTxnHash": "0x18a133d1d620f7afb08c46cad401bb70f8f294275a5c22699c75b665809d00af",
            "status": true,
            "timestamp": "2023-10-29T17:49:35Z",
            "transactionFee": "0.005150997190705263",
            "txnHash": "0x18a133d1d620f7afb08c46cad401bb70f8f294275a5c22699c75b665809d00af",
            "txnIndex": 103,
            "type": 2,
            "value": "55439440726921946"
        },
        "fund_flow": [
            {
                "amount": "0.055439440726921946",
                "from": "0xf66ecdfc002b28f81ba2b32c04e8880018babe91",
                "id": 1,
                "isERC1155": false,
                "isERC721": false,
                "isReverted": false,
                "order": 1,
                "to": "0xdef1c0ded9bec7f1a1670819833240f027b25eff",
                "token": "0xeeeeeeeeeeeeeeeeeeeeeeeeeeeeeeeeeeeeeeee"
            },
            {
                "amount": "0.055439440726921946",
                "from": "0xdef1c0ded9bec7f1a1670819833240f027b25eff",
                "id": 2,
                "isERC1155": false,
                "isERC721": false,
                "isReverted": false,
                "order": 2,
                "to": "0x22f9dcf4647084d6c31b2765f6910cd85c178c18",
                "token": "0xeeeeeeeeeeeeeeeeeeeeeeeeeeeeeeeeeeeeeeee"
            },
            {
                "amount": "0.055439440726921946",
                "from": "0x22f9dcf4647084d6c31b2765f6910cd85c178c18",
                "id": 3,
                "isERC1155": false,
                "isERC721": false,
                "isReverted": false,
                "order": 3,
                "to": "0xc02aaa39b223fe8d0a0e5c4f27ead9083c756cc2",
                "token": "0xeeeeeeeeeeeeeeeeeeeeeeeeeeeeeeeeeeeeeeee"
            },
            {
                "amount": "0.055439440726921946",
                "from": "0xc02aaa39b223fe8d0a0e5c4f27ead9083c756cc2",
                "id": 4,
                "isERC1155": false,
                "isERC721": false,
                "isReverted": false,
                "order": 4,
                "to": "0x22f9dcf4647084d6c31b2765f6910cd85c178c18",
                "token": "0xc02aaa39b223fe8d0a0e5c4f27ead9083c756cc2"
            },
            {
                "amount": "0.055439440726921946",
                "from": "0x22f9dcf4647084d6c31b2765f6910cd85c178c18",
                "id": 5,
                "isERC1155": false,
                "isERC721": false,
                "isReverted": false,
                "order": 5,
                "to": "0x2008b6c3d07b061a84f790c035c2f6dc11a0be70",
                "token": "0xc02aaa39b223fe8d0a0e5c4f27ead9083c756cc2"
            },
            {
                "amount": "85,675,160.62688741",
                "from": "0x2008b6c3d07b061a84f790c035c2f6dc11a0be70",
                "id": 6,
                "isERC1155": false,
                "isERC721": false,
                "isReverted": false,
                "order": 6,
                "to": "0x22f9dcf4647084d6c31b2765f6910cd85c178c18",
                "token": "0x6982508145454ce325ddbe47a25d4ec3d2311933"
            },
            {
                "amount": "83,104.9058080807877",
                "from": "0x22f9dcf4647084d6c31b2765f6910cd85c178c18",
                "id": 7,
                "isERC1155": false,
                "isERC721": false,
                "isReverted": false,
                "order": 7,
                "to": "0xad01c20d5886137e056775af56915de824c8fce5",
                "token": "0x6982508145454ce325ddbe47a25d4ec3d2311933"
            },
            {
                "amount": "85,592,055.7210793292123",
                "from": "0x22f9dcf4647084d6c31b2765f6910cd85c178c18",
                "id": 8,
                "isERC1155": false,
                "isERC721": false,
                "isReverted": false,
                "order": 8,
                "to": "0xf66ecdfc002b28f81ba2b32c04e8880018babe91",
                "token": "0x6982508145454ce325ddbe47a25d4ec3d2311933"
            }
        ],
        "token_infos": [
            {
                "address": "0xeeeeeeeeeeeeeeeeeeeeeeeeeeeeeeeeeeeeeeee",
                "decimals": 18
            },
            {
                "address": "0x6982508145454ce325ddbe47a25d4ec3d2311933",
                "decimals": 18
            },
            {
                "address": "0xc02aaa39b223fe8d0a0e5c4f27ead9083c756cc2",
                "decimals": 18
            }
        ]
    },
    "address_label": {
        "labels": [
            {
                "address": "0x0000000000000000000000000000000000000001",
                "label": "Precompiled"
            },
            {
                "address": "0x44a6999ec971cfca458aff25a808f272f6d492a2",
                "label": "TransformERC20Feature"
            },
            {
                "address": "0xc02aaa39b223fe8d0a0e5c4f27ead9083c756cc2",
                "label": "Wrapped Ether (WETH)"
            },
            {
                "address": "0x2008b6c3d07b061a84f790c035c2f6dc11a0be70",
                "label": "Native: PMM 1"
            },
            {
                "address": "0x0000000000000000000000000000000000000003",
                "label": "Precompiled"
            },
            {
                "address": "0x0000000000000000000000000000000000000000",
                "label": "Null Address"
            },
            {
                "address": "0x6982508145454ce325ddbe47a25d4ec3d2311933",
                "label": "Pepe: PEPE Token"
            },
            {
                "address": "0xdef1c0ded9bec7f1a1670819833240f027b25eff",
                "label": "0x: Exchange Proxy"
            },
            {
                "address": "0x8146cbbe327364b13d0699f2ced39c637f92501a",
                "label": "AffiliateFeeTransformer"
            },
            {
                "address": "0x0000000000000000000000000000000000000002",
                "label": "Precompiled"
            },
            {
                "address": "0x0000000000000000000000000000000000000004",
                "label": "Precompiled"
            },
            {
                "address": "0xb2bc06a4efb20fc6553a69dbfa49b7be938034a7",
                "label": "0x: WETH Transformer"
            },
            {
                "address": "0x22f9dcf4647084d6c31b2765f6910cd85c178c18",
                "label": "0x: Exchange Proxy Flash Wallet"
            },
            {
                "address": "0xea500d073652336a58846ada15c25f2c6d2d241f",
                "label": "PayTakerTransformer"
            },
            {
                "address": "0xeeeeeeeeeeeeeeeeeeeeeeeeeeeeeeeeeeeeeeee",
                "label": "Ether"
            },
            {
                "address": "0x2fd08c1f9fc8406c1d7e3a799a13883a7e7949f0",
                "label": "FillQuoteTransformer"
            },
            {
                "address": "0x5ebac8dbfbba22168471b0f914131d1976536a25",
                "label": "OtcOrdersFeature"
            }
        ]
    },
    "trace": {
        "accountLabels": null,
        "dataMap": {
            "-1": {
                "invocation": {
                    "address": "0xf66ecdfc002b28f81ba2b32c04e8880018babe91",
                    "callData": "",
                    "decodedMethod": null,
                    "errorInfo": "",
                    "fromAddress": "",
                    "gasUsed": 0,
                    "id": -1,
                    "methodDecoded": false,
                    "operation": "",
                    "output": "",
                    "revert": false,
                    "revertMessage": "",
                    "selector": "",
                    "status": false,
                    "value": ""
                },
                "nodeType": 0
            },
            "0": {
                "invocation": {
                    "address": "0xdef1c0ded9bec7f1a1670819833240f027b25eff",
                    "callData": "0x000000000000000000000000eeeeeeeeeeeeeeeeeeeeeeeeeeeeeeeeeeeeeeee0000000000000000000000006982508145454ce325ddbe47a25d4ec3d231193300000000000000000000000000000000000000000000000000c4f5e0ab1312da00000000000000000000000000000000000000000044ac8cd85827f0a8a9abe000000000000000000000000000000000000000000000000000000000000000a000000000000000000000000000000000000000000000000000000000000000040000000000000000000000000000000000000000000000000000000000000080000000000000000000000000000000000000000000000000000000000000012000000000000000000000000000000000000000000000000000000000000004e000000000000000000000000000000000000000000000000000000000000005e0000000000000000000000000000000000000000000000000000000000000000600000000000000000000000000000000000000000000000000000000000000400000000000000000000000000000000000000000000000000000000000000040000000000000000000000000eeeeeeeeeeeeeeeeeeeeeeeeeeeeeeeeeeeeeeee00000000000000000000000000000000000000000000000000c4f5e0ab1312da00000000000000000000000000000000000000000000000000000000000000210000000000000000000000000000000000000000000000000000000000000040000000000000000000000000000000000000000000000000000000000000036000000000000000000000000000000000000000000000000000000000000000200000000000000000000000000000000000000000000000000000000000000000000000000000000000000000c02aaa39b223fe8d0a0e5c4f27ead9083c756cc20000000000000000000000006982508145454ce325ddbe47a25d4ec3d2311933000000000000000000000000000000000000000000000000000000000000024000000000000000000000000000000000000000000000000000000000000002400000000000000000000000000000000000000000000000000000000000000240000000000000000000000000000000000000000000000000000000000000014000000000000000000000000000000000000000000000000000c4f5e0ab1312da000000000000000000000000000000000000000000000000000000000000000000000000000000000000000000000000000000000000000000000000000001800000000000000000000000000000000000000000000000000000000000000001000000000000000000000000000000000000000000000000000000000000000300000000000000000000000000000000000000000000000000000000000000010000000000000000000000006982508145454ce325ddbe47a25d4ec3d2311933000000000000000000000000c02aaa39b223fe8d0a0e5c4f27ead9083c756cc200000000000000000000000000000000000000000046de6bc39492b03e96f40000000000000000000000000000000000000000000000000000c4f5e0ab1312da0000000000000000000000002008b6c3d07b061a84f790c035c2f6dc11a0be700000000000000000000000000000000000000000000000000000000000000000000000000000000000000000f66ecdfc002b28f81ba2b32c04e8880018babe9100000000653e9b700000000000000000000000000000000000000000653e9b170000000000000000000000000000000000000000000000000000000000000003000000000000000000000000000000000000000000000000000000000000001b178ea6a7b20dfc5e189c78fe832a957ed55c7bec27f215baa1ed1b712a9da94a20a901b9df82c21d436c609dfbe5ce6c600c9ddf3440ac4d114115216c0cbaa000000000000000000000000000000000000000000000000000c4f5e0ab1312da000000000000000000000000000000000000000000000000000000000000001b000000000000000000000000000000000000000000000000000000000000004000000000000000000000000000000000000000000000000000000000000000a0000000000000000000000000000000000000000000000000000000000000002000000000000000000000000000000000000000000000000000000000000000010000000000000000000000006982508145454ce325ddbe47a25d4ec3d2311933000000000000000000000000000000000000000000001199203fa3c9a8877920000000000000000000000000ad01c20d5886137e056775af56915de824c8fce5000000000000000000000000000000000000000000000000000000000000001c000000000000000000000000000000000000000000000000000000000000004000000000000000000000000000000000000000000000000000000000000000e00000000000000000000000000000000000000000000000000000000000000020000000000000000000000000000000000000000000000000000000000000004000000000000000000000000000000000000000000000000000000000000000a00000000000000000000000000000000000000000000000000000000000000002000000000000000000000000c02aaa39b223fe8d0a0e5c4f27ead9083c756cc2000000000000000000000000eeeeeeeeeeeeeeeeeeeeeeeeeeeeeeeeeeeeeeee0000000000000000000000000000000000000000000000000000000000000000869584cd000000000000000000000000382ffce2287252f930e1c8dc9328dac5bf282ba10000000000000000000000000000000064a96bea6cb46869ce7c855fad0bde93",
                    "decodedMethod": {
                        "callParams": [
                            {
                                "name": "inputToken",
                                "type": "address",
                                "value": "0xeeeeeeeeeeeeeeeeeeeeeeeeeeeeeeeeeeeeeeee"
                            },
                            {
                                "name": "outputToken",
                                "type": "address",
                                "value": "0x6982508145454ce325ddbe47a25d4ec3d2311933"
                            },
                            {
                                "name": "inputTokenAmount",
                                "type": "uint256",
                                "value": "55,439,440,726,921,946"
                            },
                            {
                                "name": "minOutputTokenAmount",
                                "type": "uint256",
                                "value": "83,021,800,902,272,706,912,300,000"
                            },
                            {
                                "name": "transformations",
                                "type": "(uint32,bytes)[]",
                                "value": [
                                    [
                                        {
                                            "name": "deploymentNonce",
                                            "type": "uint32",
                                            "value": "6"
                                        },
                                        {
                                            "name": "data",
                                            "type": "bytes",
                                            "value": "0x000000000000000000000000eeeeeeeeeeeeeeeeeeeeeeeeeeeeeeeeeeeeeeee00000000000000000000000000000000000000000000000000c4f5e0ab1312da"
                                        }
                                    ],
                                    [
                                        {
                                            "name": "deploymentNonce",
                                            "type": "uint32",
                                            "value": "33"
                                        },
                                        {
                                            "name": "data",
                                            "type": "bytes",
                                            "value": "0x00000000000000000000000000000000000000000000000000000000000000200000000000000000000000000000000000000000000000000000000000000000000000000000000000000000c02aaa39b223fe8d0a0e5c4f27ead9083c756cc20000000000000000000000006982508145454ce325ddbe47a25d4ec3d2311933000000000000000000000000000000000000000000000000000000000000024000000000000000000000000000000000000000000000000000000000000002400000000000000000000000000000000000000000000000000000000000000240000000000000000000000000000000000000000000000000000000000000014000000000000000000000000000000000000000000000000000c4f5e0ab1312da000000000000000000000000000000000000000000000000000000000000000000000000000000000000000000000000000000000000000000000000000001800000000000000000000000000000000000000000000000000000000000000001000000000000000000000000000000000000000000000000000000000000000300000000000000000000000000000000000000000000000000000000000000010000000000000000000000006982508145454ce325ddbe47a25d4ec3d2311933000000000000000000000000c02aaa39b223fe8d0a0e5c4f27ead9083c756cc200000000000000000000000000000000000000000046de6bc39492b03e96f40000000000000000000000000000000000000000000000000000c4f5e0ab1312da0000000000000000000000002008b6c3d07b061a84f790c035c2f6dc11a0be700000000000000000000000000000000000000000000000000000000000000000000000000000000000000000f66ecdfc002b28f81ba2b32c04e8880018babe9100000000653e9b700000000000000000000000000000000000000000653e9b170000000000000000000000000000000000000000000000000000000000000003000000000000000000000000000000000000000000000000000000000000001b178ea6a7b20dfc5e189c78fe832a957ed55c7bec27f215baa1ed1b712a9da94a20a901b9df82c21d436c609dfbe5ce6c600c9ddf3440ac4d114115216c0cbaa000000000000000000000000000000000000000000000000000c4f5e0ab1312da"
                                        }
                                    ],
                                    [
                                        {
                                            "name": "deploymentNonce",
                                            "type": "uint32",
                                            "value": "27"
                                        },
                                        {
                                            "name": "data",
                                            "type": "bytes",
                                            "value": "0x000000000000000000000000000000000000000000000000000000000000002000000000000000000000000000000000000000000000000000000000000000010000000000000000000000006982508145454ce325ddbe47a25d4ec3d2311933000000000000000000000000000000000000000000001199203fa3c9a8877920000000000000000000000000ad01c20d5886137e056775af56915de824c8fce5"
                                        }
                                    ],
                                    [
                                        {
                                            "name": "deploymentNonce",
                                            "type": "uint32",
                                            "value": "28"
                                        },
                                        {
                                            "name": "data",
                                            "type": "bytes",
                                            "value": "0x0000000000000000000000000000000000000000000000000000000000000020000000000000000000000000000000000000000000000000000000000000004000000000000000000000000000000000000000000000000000000000000000a00000000000000000000000000000000000000000000000000000000000000002000000000000000000000000c02aaa39b223fe8d0a0e5c4f27ead9083c756cc2000000000000000000000000eeeeeeeeeeeeeeeeeeeeeeeeeeeeeeeeeeeeeeee0000000000000000000000000000000000000000000000000000000000000000"
                                        }
                                    ]
                                ]
                            }
                        ],
                        "constructorArguments": "",
                        "name": "transformERC20",
                        "returnParams": [
                            {
                                "name": "outputTokenAmount",
                                "type": "uint256",
                                "value": "85,592,055,721,079,329,212,300,000"
                            }
                        ],
                        "signature": "transformERC20(address,address,uint256,uint256,(uint32,bytes)[])"
                    },
                    "errorInfo": "",
                    "fromAddress": "0xf66ecdfc002b28f81ba2b32c04e8880018babe91",
                    "gasUsed": 222889,
                    "id": 0,
                    "methodDecoded": true,
                    "operation": "CALL",
                    "output": "0x00000000000000000000000000000000000000000046ccd2a354eee6960f7ae0",
                    "revert": false,
                    "revertMessage": "",
                    "selector": "0x415565b0",
                    "status": true,
                    "value": "0.055439440726921946"
                },
                "nodeType": 0
            },
            "1": {
                "invocation": {
                    "address": "0x44a6999ec971cfca458aff25a808f272f6d492a2",
                    "callData": "0x000000000000000000000000eeeeeeeeeeeeeeeeeeeeeeeeeeeeeeeeeeeeeeee0000000000000000000000006982508145454ce325ddbe47a25d4ec3d231193300000000000000000000000000000000000000000000000000c4f5e0ab1312da00000000000000000000000000000000000000000044ac8cd85827f0a8a9abe000000000000000000000000000000000000000000000000000000000000000a000000000000000000000000000000000000000000000000000000000000000040000000000000000000000000000000000000000000000000000000000000080000000000000000000000000000000000000000000000000000000000000012000000000000000000000000000000000000000000000000000000000000004e000000000000000000000000000000000000000000000000000000000000005e0000000000000000000000000000000000000000000000000000000000000000600000000000000000000000000000000000000000000000000000000000000400000000000000000000000000000000000000000000000000000000000000040000000000000000000000000eeeeeeeeeeeeeeeeeeeeeeeeeeeeeeeeeeeeeeee00000000000000000000000000000000000000000000000000c4f5e0ab1312da00000000000000000000000000000000000000000000000000000000000000210000000000000000000000000000000000000000000000000000000000000040000000000000000000000000000000000000000000000000000000000000036000000000000000000000000000000000000000000000000000000000000000200000000000000000000000000000000000000000000000000000000000000000000000000000000000000000c02aaa39b223fe8d0a0e5c4f27ead9083c756cc20000000000000000000000006982508145454ce325ddbe47a25d4ec3d2311933000000000000000000000000000000000000000000000000000000000000024000000000000000000000000000000000000000000000000000000000000002400000000000000000000000000000000000000000000000000000000000000240000000000000000000000000000000000000000000000000000000000000014000000000000000000000000000000000000000000000000000c4f5e0ab1312da000000000000000000000000000000000000000000000000000000000000000000000000000000000000000000000000000000000000000000000000000001800000000000000000000000000000000000000000000000000000000000000001000000000000000000000000000000000000000000000000000000000000000300000000000000000000000000000000000000000000000000000000000000010000000000000000000000006982508145454ce325ddbe47a25d4ec3d2311933000000000000000000000000c02aaa39b223fe8d0a0e5c4f27ead9083c756cc200000000000000000000000000000000000000000046de6bc39492b03e96f40000000000000000000000000000000000000000000000000000c4f5e0ab1312da0000000000000000000000002008b6c3d07b061a84f790c035c2f6dc11a0be700000000000000000000000000000000000000000000000000000000000000000000000000000000000000000f66ecdfc002b28f81ba2b32c04e8880018babe9100000000653e9b700000000000000000000000000000000000000000653e9b170000000000000000000000000000000000000000000000000000000000000003000000000000000000000000000000000000000000000000000000000000001b178ea6a7b20dfc5e189c78fe832a957ed55c7bec27f215baa1ed1b712a9da94a20a901b9df82c21d436c609dfbe5ce6c600c9ddf3440ac4d114115216c0cbaa000000000000000000000000000000000000000000000000000c4f5e0ab1312da000000000000000000000000000000000000000000000000000000000000001b000000000000000000000000000000000000000000000000000000000000004000000000000000000000000000000000000000000000000000000000000000a0000000000000000000000000000000000000000000000000000000000000002000000000000000000000000000000000000000000000000000000000000000010000000000000000000000006982508145454ce325ddbe47a25d4ec3d2311933000000000000000000000000000000000000000000001199203fa3c9a8877920000000000000000000000000ad01c20d5886137e056775af56915de824c8fce5000000000000000000000000000000000000000000000000000000000000001c000000000000000000000000000000000000000000000000000000000000004000000000000000000000000000000000000000000000000000000000000000e00000000000000000000000000000000000000000000000000000000000000020000000000000000000000000000000000000000000000000000000000000004000000000000000000000000000000000000000000000000000000000000000a00000000000000000000000000000000000000000000000000000000000000002000000000000000000000000c02aaa39b223fe8d0a0e5c4f27ead9083c756cc2000000000000000000000000eeeeeeeeeeeeeeeeeeeeeeeeeeeeeeeeeeeeeeee0000000000000000000000000000000000000000000000000000000000000000869584cd000000000000000000000000382ffce2287252f930e1c8dc9328dac5bf282ba10000000000000000000000000000000064a96bea6cb46869ce7c855fad0bde93",
                    "decodedMethod": {
                        "callParams": [
                            {
                                "name": "inputToken",
                                "type": "address",
                                "value": "0xeeeeeeeeeeeeeeeeeeeeeeeeeeeeeeeeeeeeeeee"
                            },
                            {
                                "name": "outputToken",
                                "type": "address",
                                "value": "0x6982508145454ce325ddbe47a25d4ec3d2311933"
                            },
                            {
                                "name": "inputTokenAmount",
                                "type": "uint256",
                                "value": "55,439,440,726,921,946"
                            },
                            {
                                "name": "minOutputTokenAmount",
                                "type": "uint256",
                                "value": "83,021,800,902,272,706,912,300,000"
                            },
                            {
                                "name": "transformations",
                                "type": "(uint32,bytes)[]",
                                "value": [
                                    [
                                        {
                                            "name": "deploymentNonce",
                                            "type": "uint32",
                                            "value": "6"
                                        },
                                        {
                                            "name": "data",
                                            "type": "bytes",
                                            "value": "0x000000000000000000000000eeeeeeeeeeeeeeeeeeeeeeeeeeeeeeeeeeeeeeee00000000000000000000000000000000000000000000000000c4f5e0ab1312da"
                                        }
                                    ],
                                    [
                                        {
                                            "name": "deploymentNonce",
                                            "type": "uint32",
                                            "value": "33"
                                        },
                                        {
                                            "name": "data",
                                            "type": "bytes",
                                            "value": "0x00000000000000000000000000000000000000000000000000000000000000200000000000000000000000000000000000000000000000000000000000000000000000000000000000000000c02aaa39b223fe8d0a0e5c4f27ead9083c756cc20000000000000000000000006982508145454ce325ddbe47a25d4ec3d2311933000000000000000000000000000000000000000000000000000000000000024000000000000000000000000000000000000000000000000000000000000002400000000000000000000000000000000000000000000000000000000000000240000000000000000000000000000000000000000000000000000000000000014000000000000000000000000000000000000000000000000000c4f5e0ab1312da000000000000000000000000000000000000000000000000000000000000000000000000000000000000000000000000000000000000000000000000000001800000000000000000000000000000000000000000000000000000000000000001000000000000000000000000000000000000000000000000000000000000000300000000000000000000000000000000000000000000000000000000000000010000000000000000000000006982508145454ce325ddbe47a25d4ec3d2311933000000000000000000000000c02aaa39b223fe8d0a0e5c4f27ead9083c756cc200000000000000000000000000000000000000000046de6bc39492b03e96f40000000000000000000000000000000000000000000000000000c4f5e0ab1312da0000000000000000000000002008b6c3d07b061a84f790c035c2f6dc11a0be700000000000000000000000000000000000000000000000000000000000000000000000000000000000000000f66ecdfc002b28f81ba2b32c04e8880018babe9100000000653e9b700000000000000000000000000000000000000000653e9b170000000000000000000000000000000000000000000000000000000000000003000000000000000000000000000000000000000000000000000000000000001b178ea6a7b20dfc5e189c78fe832a957ed55c7bec27f215baa1ed1b712a9da94a20a901b9df82c21d436c609dfbe5ce6c600c9ddf3440ac4d114115216c0cbaa000000000000000000000000000000000000000000000000000c4f5e0ab1312da"
                                        }
                                    ],
                                    [
                                        {
                                            "name": "deploymentNonce",
                                            "type": "uint32",
                                            "value": "27"
                                        },
                                        {
                                            "name": "data",
                                            "type": "bytes",
                                            "value": "0x000000000000000000000000000000000000000000000000000000000000002000000000000000000000000000000000000000000000000000000000000000010000000000000000000000006982508145454ce325ddbe47a25d4ec3d2311933000000000000000000000000000000000000000000001199203fa3c9a8877920000000000000000000000000ad01c20d5886137e056775af56915de824c8fce5"
                                        }
                                    ],
                                    [
                                        {
                                            "name": "deploymentNonce",
                                            "type": "uint32",
                                            "value": "28"
                                        },
                                        {
                                            "name": "data",
                                            "type": "bytes",
                                            "value": "0x0000000000000000000000000000000000000000000000000000000000000020000000000000000000000000000000000000000000000000000000000000004000000000000000000000000000000000000000000000000000000000000000a00000000000000000000000000000000000000000000000000000000000000002000000000000000000000000c02aaa39b223fe8d0a0e5c4f27ead9083c756cc2000000000000000000000000eeeeeeeeeeeeeeeeeeeeeeeeeeeeeeeeeeeeeeee0000000000000000000000000000000000000000000000000000000000000000"
                                        }
                                    ]
                                ]
                            }
                        ],
                        "constructorArguments": "",
                        "name": "transformERC20",
                        "returnParams": [
                            {
                                "name": "outputTokenAmount",
                                "type": "uint256",
                                "value": "85,592,055,721,079,329,212,300,000"
                            }
                        ],
                        "signature": "transformERC20(address,address,uint256,uint256,(uint32,bytes)[])"
                    },
                    "errorInfo": "",
                    "fromAddress": "0xdef1c0ded9bec7f1a1670819833240f027b25eff",
                    "gasUsed": 221067,
                    "id": 1,
                    "methodDecoded": true,
                    "operation": "DELEGATECALL",
                    "output": "0x00000000000000000000000000000000000000000046ccd2a354eee6960f7ae0",
                    "revert": false,
                    "revertMessage": "",
                    "selector": "0x415565b0",
                    "status": true,
                    "value": "0.055439440726921946"
                },
                "nodeType": 0
            },
            "10": {
                "invocation": {
                    "address": "0xc02aaa39b223fe8d0a0e5c4f27ead9083c756cc2",
                    "callData": "0x00000000000000000000000022f9dcf4647084d6c31b2765f6910cd85c178c18",
                    "decodedMethod": {
                        "callParams": [
                            {
                                "name": "",
                                "type": "address",
                                "value": "0x22f9dcf4647084d6c31b2765f6910cd85c178c18"
                            }
                        ],
                        "constructorArguments": "",
                        "name": "balanceOf",
                        "returnParams": [
                            {
                                "decimalAvailable": true,
                                "name": "",
                                "type": "uint256",
                                "value": "55,439,440,726,921,946"
                            }
                        ],
                        "signature": "balanceOf(address)"
                    },
                    "errorInfo": "",
                    "fromAddress": "0x22f9dcf4647084d6c31b2765f6910cd85c178c18",
                    "gasUsed": 534,
                    "id": 10,
                    "methodDecoded": true,
                    "operation": "STATICCALL",
                    "output": "0x00000000000000000000000000000000000000000000000000c4f5e0ab1312da",
                    "revert": false,
                    "revertMessage": "",
                    "selector": "0x70a08231",
                    "status": true,
                    "value": "0"
                },
                "nodeType": 0
            },
            "11": {
                "invocation": {
                    "address": "0xc02aaa39b223fe8d0a0e5c4f27ead9083c756cc2",
                    "callData": "0x00000000000000000000000022f9dcf4647084d6c31b2765f6910cd85c178c18000000000000000000000000def1c0ded9bec7f1a1670819833240f027b25eff",
                    "decodedMethod": {
                        "callParams": [
                            {
                                "name": "",
                                "type": "address",
                                "value": "0x22f9dcf4647084d6c31b2765f6910cd85c178c18"
                            },
                            {
                                "name": "",
                                "type": "address",
                                "value": "0xdef1c0ded9bec7f1a1670819833240f027b25eff"
                            }
                        ],
                        "constructorArguments": "",
                        "name": "allowance",
                        "returnParams": [
                            {
                                "decimalAvailable": true,
                                "name": "",
                                "type": "uint256",
                                "value": "115,792,089,237,316,195,423,570,985,008,687,907,853,269,984,665,640,564,039,457,584,007,913,129,639,935"
                            }
                        ],
                        "signature": "allowance(address,address)"
                    },
                    "errorInfo": "",
                    "fromAddress": "0x22f9dcf4647084d6c31b2765f6910cd85c178c18",
                    "gasUsed": 2717,
                    "id": 11,
                    "methodDecoded": true,
                    "operation": "STATICCALL",
                    "output": "0xffffffffffffffffffffffffffffffffffffffffffffffffffffffffffffffff",
                    "revert": false,
                    "revertMessage": "",
                    "selector": "0xdd62ed3e",
                    "status": true,
                    "value": "0"
                },
                "nodeType": 0
            },
            "12": {
                "invocation": {
                    "address": "0xdef1c0ded9bec7f1a1670819833240f027b25eff",
                    "callData": "0x0000000000000000000000006982508145454ce325ddbe47a25d4ec3d2311933000000000000000000000000c02aaa39b223fe8d0a0e5c4f27ead9083c756cc200000000000000000000000000000000000000000046de6bc39492b03e96f40000000000000000000000000000000000000000000000000000c4f5e0ab1312da0000000000000000000000002008b6c3d07b061a84f790c035c2f6dc11a0be700000000000000000000000000000000000000000000000000000000000000000000000000000000000000000f66ecdfc002b28f81ba2b32c04e8880018babe9100000000653e9b700000000000000000000000000000000000000000653e9b170000000000000000000000000000000000000000000000000000000000000003000000000000000000000000000000000000000000000000000000000000001b178ea6a7b20dfc5e189c78fe832a957ed55c7bec27f215baa1ed1b712a9da94a20a901b9df82c21d436c609dfbe5ce6c600c9ddf3440ac4d114115216c0cbaa000000000000000000000000000000000000000000000000000c4f5e0ab1312da",
                    "decodedMethod": {
                        "callParams": [
                            {
                                "name": "order",
                                "type": "(address,address,uint128,uint128,address,address,address,uint256)",
                                "value": [
                                    {
                                        "name": "makerToken",
                                        "type": "address",
                                        "value": "0x6982508145454ce325ddbe47a25d4ec3d2311933"
                                    },
                                    {
                                        "name": "takerToken",
                                        "type": "address",
                                        "value": "0xc02aaa39b223fe8d0a0e5c4f27ead9083c756cc2"
                                    },
                                    {
                                        "name": "makerAmount",
                                        "type": "uint128",
                                        "value": "85,675,160,626,887,410,000,000,000"
                                    },
                                    {
                                        "name": "takerAmount",
                                        "type": "uint128",
                                        "value": "55,439,440,726,921,946"
                                    },
                                    {
                                        "name": "maker",
                                        "type": "address",
                                        "value": "0x2008b6c3d07b061a84f790c035c2f6dc11a0be70"
                                    },
                                    {
                                        "name": "taker",
                                        "type": "address",
                                        "value": "0x0000000000000000000000000000000000000000"
                                    },
                                    {
                                        "name": "txOrigin",
                                        "type": "address",
                                        "value": "0xf66ecdfc002b28f81ba2b32c04e8880018babe91"
                                    },
                                    {
                                        "name": "expiryAndNonce",
                                        "type": "uint256",
                                        "value": "10,662,296,557,595,009,056,944,077,372,113,080,876,497,666,586,300,626,837,430,347,930,391"
                                    }
                                ]
                            },
                            {
                                "name": "makerSignature",
                                "type": "(uint8,uint8,bytes32,bytes32)",
                                "value": [
                                    {
                                        "name": "signatureType",
                                        "type": "uint8",
                                        "value": "3"
                                    },
                                    {
                                        "name": "v",
                                        "type": "uint8",
                                        "value": "27"
                                    },
                                    {
                                        "name": "r",
                                        "type": "bytes32",
                                        "value": "0x178ea6a7b20dfc5e189c78fe832a957ed55c7bec27f215baa1ed1b712a9da94a"
                                    },
                                    {
                                        "name": "s",
                                        "type": "bytes32",
                                        "value": "0x20a901b9df82c21d436c609dfbe5ce6c600c9ddf3440ac4d114115216c0cbaa0"
                                    }
                                ]
                            },
                            {
                                "name": "takerTokenFillAmount",
                                "type": "uint128",
                                "value": "55,439,440,726,921,946"
                            }
                        ],
                        "constructorArguments": "",
                        "name": "fillOtcOrder",
                        "returnParams": [
                            {
                                "name": "takerTokenFilledAmount",
                                "type": "uint128",
                                "value": "55,439,440,726,921,946"
                            },
                            {
                                "name": "makerTokenFilledAmount",
                                "type": "uint128",
                                "value": "85,675,160,626,887,410,000,000,000"
                            }
                        ],
                        "signature": "fillOtcOrder((address,address,uint128,uint128,address,address,address,uint256),(uint8,uint8,bytes32,bytes32),uint128)"
                    },
                    "errorInfo": "",
                    "fromAddress": "0x22f9dcf4647084d6c31b2765f6910cd85c178c18",
                    "gasUsed": 76883,
                    "id": 12,
                    "methodDecoded": true,
                    "operation": "CALL",
                    "output": "0x00000000000000000000000000000000000000000000000000c4f5e0ab1312da00000000000000000000000000000000000000000046de6bc39492b03e96f400",
                    "revert": false,
                    "revertMessage": "",
                    "selector": "0xdac748d4",
                    "status": true,
                    "value": "0"
                },
                "nodeType": 0
            },
            "13": {
                "invocation": {
                    "address": "0x5ebac8dbfbba22168471b0f914131d1976536a25",
                    "callData": "0x0000000000000000000000006982508145454ce325ddbe47a25d4ec3d2311933000000000000000000000000c02aaa39b223fe8d0a0e5c4f27ead9083c756cc200000000000000000000000000000000000000000046de6bc39492b03e96f40000000000000000000000000000000000000000000000000000c4f5e0ab1312da0000000000000000000000002008b6c3d07b061a84f790c035c2f6dc11a0be700000000000000000000000000000000000000000000000000000000000000000000000000000000000000000f66ecdfc002b28f81ba2b32c04e8880018babe9100000000653e9b700000000000000000000000000000000000000000653e9b170000000000000000000000000000000000000000000000000000000000000003000000000000000000000000000000000000000000000000000000000000001b178ea6a7b20dfc5e189c78fe832a957ed55c7bec27f215baa1ed1b712a9da94a20a901b9df82c21d436c609dfbe5ce6c600c9ddf3440ac4d114115216c0cbaa000000000000000000000000000000000000000000000000000c4f5e0ab1312da",
                    "decodedMethod": {
                        "callParams": [
                            {
                                "name": "order",
                                "type": "(address,address,uint128,uint128,address,address,address,uint256)",
                                "value": [
                                    {
                                        "name": "makerToken",
                                        "type": "address",
                                        "value": "0x6982508145454ce325ddbe47a25d4ec3d2311933"
                                    },
                                    {
                                        "name": "takerToken",
                                        "type": "address",
                                        "value": "0xc02aaa39b223fe8d0a0e5c4f27ead9083c756cc2"
                                    },
                                    {
                                        "name": "makerAmount",
                                        "type": "uint128",
                                        "value": "85,675,160,626,887,410,000,000,000"
                                    },
                                    {
                                        "name": "takerAmount",
                                        "type": "uint128",
                                        "value": "55,439,440,726,921,946"
                                    },
                                    {
                                        "name": "maker",
                                        "type": "address",
                                        "value": "0x2008b6c3d07b061a84f790c035c2f6dc11a0be70"
                                    },
                                    {
                                        "name": "taker",
                                        "type": "address",
                                        "value": "0x0000000000000000000000000000000000000000"
                                    },
                                    {
                                        "name": "txOrigin",
                                        "type": "address",
                                        "value": "0xf66ecdfc002b28f81ba2b32c04e8880018babe91"
                                    },
                                    {
                                        "name": "expiryAndNonce",
                                        "type": "uint256",
                                        "value": "10,662,296,557,595,009,056,944,077,372,113,080,876,497,666,586,300,626,837,430,347,930,391"
                                    }
                                ]
                            },
                            {
                                "name": "makerSignature",
                                "type": "(uint8,uint8,bytes32,bytes32)",
                                "value": [
                                    {
                                        "name": "signatureType",
                                        "type": "uint8",
                                        "value": "3"
                                    },
                                    {
                                        "name": "v",
                                        "type": "uint8",
                                        "value": "27"
                                    },
                                    {
                                        "name": "r",
                                        "type": "bytes32",
                                        "value": "0x178ea6a7b20dfc5e189c78fe832a957ed55c7bec27f215baa1ed1b712a9da94a"
                                    },
                                    {
                                        "name": "s",
                                        "type": "bytes32",
                                        "value": "0x20a901b9df82c21d436c609dfbe5ce6c600c9ddf3440ac4d114115216c0cbaa0"
                                    }
                                ]
                            },
                            {
                                "name": "takerTokenFillAmount",
                                "type": "uint128",
                                "value": "55,439,440,726,921,946"
                            }
                        ],
                        "constructorArguments": "",
                        "name": "fillOtcOrder",
                        "returnParams": [
                            {
                                "name": "takerTokenFilledAmount",
                                "type": "uint128",
                                "value": "55,439,440,726,921,946"
                            },
                            {
                                "name": "makerTokenFilledAmount",
                                "type": "uint128",
                                "value": "85,675,160,626,887,410,000,000,000"
                            }
                        ],
                        "signature": "fillOtcOrder((address,address,uint128,uint128,address,address,address,uint256),(uint8,uint8,bytes32,bytes32),uint128)"
                    },
                    "errorInfo": "",
                    "fromAddress": "0xdef1c0ded9bec7f1a1670819833240f027b25eff",
                    "gasUsed": 71077,
                    "id": 13,
                    "methodDecoded": true,
                    "operation": "DELEGATECALL",
                    "output": "0x00000000000000000000000000000000000000000000000000c4f5e0ab1312da00000000000000000000000000000000000000000046de6bc39492b03e96f400",
                    "revert": false,
                    "revertMessage": "",
                    "selector": "0xdac748d4",
                    "status": true,
                    "value": "0"
                },
                "nodeType": 0
            },
            "14": {
                "invocation": {
                    "address": "0x0000000000000000000000000000000000000001",
                    "callData": "0x4b2c1c1703640c8aea7b3edd0c395f8066f810768acad59c9f6b1d5f000000000000000000000000000000000000000000000000000000000000001b178ea6a7b20dfc5e189c78fe832a957ed55c7bec27f215baa1ed1b712a9da94a20a901b9df82c21d436c609dfbe5ce6c600c9ddf3440ac4d114115216c0cbaa0",
                    "decodedMethod": {
                        "callParams": [
                            {
                                "name": "hash",
                                "type": "bytes32",
                                "value": "0xce970b2a4b2c1c1703640c8aea7b3edd0c395f8066f810768acad59c9f6b1d5f"
                            },
                            {
                                "name": "v",
                                "type": "uint256",
                                "value": "27"
                            },
                            {
                                "name": "r",
                                "type": "bytes32",
                                "value": "0x178ea6a7b20dfc5e189c78fe832a957ed55c7bec27f215baa1ed1b712a9da94a"
                            },
                            {
                                "name": "s",
                                "type": "bytes32",
                                "value": "0x20a901b9df82c21d436c609dfbe5ce6c600c9ddf3440ac4d114115216c0cbaa0"
                            }
                        ],
                        "constructorArguments": "",
                        "name": "ecrecover",
                        "returnParams": [
                            {
                                "name": "",
                                "type": "address",
                                "value": "0x2008b6c3d07b061a84f790c035c2f6dc11a0be70"
                            }
                        ],
                        "signature": "ecrecover(bytes32,uint256,bytes32,bytes32)"
                    },
                    "errorInfo": "",
                    "fromAddress": "0xdef1c0ded9bec7f1a1670819833240f027b25eff",
                    "gasUsed": 3000,
                    "id": 14,
                    "methodDecoded": true,
                    "operation": "STATICCALL",
                    "output": "0x0000000000000000000000002008b6c3d07b061a84f790c035c2f6dc11a0be70",
                    "revert": false,
                    "revertMessage": "",
                    "selector": "0xce970b2a",
                    "status": true,
                    "value": "0"
                },
                "nodeType": 0
            },
            "15": {
                "invocation": {
                    "address": "0xc02aaa39b223fe8d0a0e5c4f27ead9083c756cc2",
                    "callData": "0x00000000000000000000000022f9dcf4647084d6c31b2765f6910cd85c178c180000000000000000000000002008b6c3d07b061a84f790c035c2f6dc11a0be7000000000000000000000000000000000000000000000000000c4f5e0ab1312da",
                    "decodedMethod": {
                        "callParams": [
                            {
                                "name": "src",
                                "type": "address",
                                "value": "0x22f9dcf4647084d6c31b2765f6910cd85c178c18"
                            },
                            {
                                "name": "dst",
                                "type": "address",
                                "value": "0x2008b6c3d07b061a84f790c035c2f6dc11a0be70"
                            },
                            {
                                "decimalAvailable": true,
                                "name": "wad",
                                "type": "uint256",
                                "value": "55,439,440,726,921,946"
                            }
                        ],
                        "constructorArguments": "",
                        "name": "transferFrom",
                        "returnParams": [
                            {
                                "name": "",
                                "type": "bool",
                                "value": true
                            }
                        ],
                        "signature": "transferFrom(address,address,uint256)"
                    },
                    "errorInfo": "",
                    "fromAddress": "0xdef1c0ded9bec7f1a1670819833240f027b25eff",
                    "gasUsed": 8225,
                    "id": 15,
                    "methodDecoded": true,
                    "operation": "CALL",
                    "output": "0x0000000000000000000000000000000000000000000000000000000000000001",
                    "revert": false,
                    "revertMessage": "",
                    "selector": "0x23b872dd",
                    "status": true,
                    "value": "0"
                },
                "nodeType": 0
            },
            "16": {
                "event": {
                    "contract": "0xc02aaa39b223fe8d0a0e5c4f27ead9083c756cc2",
                    "decodedLog": {
                        "name": "Transfer",
                        "params": [
                            {
                                "name": "src",
                                "type": "address",
                                "value": "0x22f9dcf4647084d6c31b2765f6910cd85c178c18"
                            },
                            {
                                "name": "dst",
                                "type": "address",
                                "value": "0x2008b6c3d07b061a84f790c035c2f6dc11a0be70"
                            },
                            {
                                "decimalAvailable": true,
                                "name": "wad",
                                "type": "uint256",
                                "value": "55,439,440,726,921,946"
                            }
                        ],
                        "signature": "Transfer(address,address,uint256)"
                    },
                    "id": 16,
                    "logData": "0x00000000000000000000000000000000000000000000000000c4f5e0ab1312da",
                    "logDecoded": true,
                    "operation": "EVENT",
                    "revert": false,
                    "status": true,
                    "topics": [
                        "0xddf252ad1be2c89b69c2b068fc378daa952ba7f163c4a11628f55a4df523b3ef",
                        "0x00000000000000000000000022f9dcf4647084d6c31b2765f6910cd85c178c18",
                        "0x0000000000000000000000002008b6c3d07b061a84f790c035c2f6dc11a0be70"
                    ]
                },
                "nodeType": 1
            },
            "17": {
                "invocation": {
                    "address": "0x6982508145454ce325ddbe47a25d4ec3d2311933",
                    "callData": "0x0000000000000000000000002008b6c3d07b061a84f790c035c2f6dc11a0be7000000000000000000000000022f9dcf4647084d6c31b2765f6910cd85c178c1800000000000000000000000000000000000000000046de6bc39492b03e96f400",
                    "decodedMethod": {
                        "callParams": [
                            {
                                "name": "sender",
                                "type": "address",
                                "value": "0x2008b6c3d07b061a84f790c035c2f6dc11a0be70"
                            },
                            {
                                "name": "recipient",
                                "type": "address",
                                "value": "0x22f9dcf4647084d6c31b2765f6910cd85c178c18"
                            },
                            {
                                "decimalAvailable": true,
                                "name": "amount",
                                "type": "uint256",
                                "value": "85,675,160,626,887,410,000,000,000"
                            }
                        ],
                        "constructorArguments": "",
                        "name": "transferFrom",
                        "returnParams": [
                            {
                                "name": "",
                                "type": "bool",
                                "value": true
                            }
                        ],
                        "signature": "transferFrom(address,address,uint256)"
                    },
                    "errorInfo": "",
                    "fromAddress": "0xdef1c0ded9bec7f1a1670819833240f027b25eff",
                    "gasUsed": 46245,
                    "id": 17,
                    "methodDecoded": true,
                    "operation": "CALL",
                    "output": "0x0000000000000000000000000000000000000000000000000000000000000001",
                    "revert": false,
                    "revertMessage": "",
                    "selector": "0x23b872dd",
                    "status": true,
                    "value": "0"
                },
                "nodeType": 0
            },
            "18": {
                "event": {
                    "contract": "0x6982508145454ce325ddbe47a25d4ec3d2311933",
                    "decodedLog": {
                        "name": "Transfer",
                        "params": [
                            {
                                "name": "from",
                                "type": "address",
                                "value": "0x2008b6c3d07b061a84f790c035c2f6dc11a0be70"
                            },
                            {
                                "name": "to",
                                "type": "address",
                                "value": "0x22f9dcf4647084d6c31b2765f6910cd85c178c18"
                            },
                            {
                                "decimalAvailable": true,
                                "name": "value",
                                "type": "uint256",
                                "value": "85,675,160,626,887,410,000,000,000"
                            }
                        ],
                        "signature": "Transfer(address,address,uint256)"
                    },
                    "id": 18,
                    "logData": "0x00000000000000000000000000000000000000000046de6bc39492b03e96f400",
                    "logDecoded": true,
                    "operation": "EVENT",
                    "revert": false,
                    "status": true,
                    "topics": [
                        "0xddf252ad1be2c89b69c2b068fc378daa952ba7f163c4a11628f55a4df523b3ef",
                        "0x0000000000000000000000002008b6c3d07b061a84f790c035c2f6dc11a0be70",
                        "0x00000000000000000000000022f9dcf4647084d6c31b2765f6910cd85c178c18"
                    ]
                },
                "nodeType": 1
            },
            "19": {
                "event": {
                    "contract": "0x6982508145454ce325ddbe47a25d4ec3d2311933",
                    "decodedLog": {
                        "name": "Approval",
                        "params": [
                            {
                                "name": "owner",
                                "type": "address",
                                "value": "0x2008b6c3d07b061a84f790c035c2f6dc11a0be70"
                            },
                            {
                                "name": "spender",
                                "type": "address",
                                "value": "0xdef1c0ded9bec7f1a1670819833240f027b25eff"
                            },
                            {
                                "decimalAvailable": true,
                                "name": "value",
                                "type": "uint256",
                                "value": "115,792,089,237,316,195,423,570,985,008,687,907,853,269,984,657,540,085,620,581,319,521,433,554,464,485"
                            }
                        ],
                        "signature": "Approval(address,address,uint256)"
                    },
                    "id": 19,
                    "logData": "0xffffffffffffffffffffffffffffffffffffff99c1f14cac1ed9444d2f972ee5",
                    "logDecoded": true,
                    "operation": "EVENT",
                    "revert": false,
                    "status": true,
                    "topics": [
                        "0x8c5be1e5ebec7d5bd14f71427d1e84f3dd0314c0f7b2291e5b200ac8c7c3b925",
                        "0x0000000000000000000000002008b6c3d07b061a84f790c035c2f6dc11a0be70",
                        "0x000000000000000000000000def1c0ded9bec7f1a1670819833240f027b25eff"
                    ]
                },
                "nodeType": 1
            },
            "2": {
                "invocation": {
                    "address": "0x6982508145454ce325ddbe47a25d4ec3d2311933",
                    "callData": "0x000000000000000000000000f66ecdfc002b28f81ba2b32c04e8880018babe91",
                    "decodedMethod": {
                        "callParams": [
                            {
                                "name": "account",
                                "type": "address",
                                "value": "0xf66ecdfc002b28f81ba2b32c04e8880018babe91"
                            }
                        ],
                        "constructorArguments": "",
                        "name": "balanceOf",
                        "returnParams": [
                            {
                                "decimalAvailable": true,
                                "name": "",
                                "type": "uint256",
                                "value": "1,971,429,526,210,087,700,978,550,611"
                            }
                        ],
                        "signature": "balanceOf(address)"
                    },
                    "errorInfo": "",
                    "fromAddress": "0xdef1c0ded9bec7f1a1670819833240f027b25eff",
                    "gasUsed": 2624,
                    "id": 2,
                    "methodDecoded": true,
                    "operation": "STATICCALL",
                    "output": "0x0000000000000000000000000000000000000000065eba70c2cdc4ed39194753",
                    "revert": false,
                    "revertMessage": "",
                    "selector": "0x70a08231",
                    "status": true,
                    "value": "0"
                },
                "nodeType": 0
            },
            "20": {
                "event": {
                    "contract": "0xdef1c0ded9bec7f1a1670819833240f027b25eff",
                    "decodedLog": {
                        "name": "OtcOrderFilled",
                        "params": [
                            {
                                "name": "orderHash",
                                "type": "bytes32",
                                "value": "0xd6ee604c19d95a7183d97b0fd5a3f6dc9e704719fb704d02ef3dc5fcd40d483b"
                            },
                            {
                                "name": "maker",
                                "type": "address",
                                "value": "0x2008b6c3d07b061a84f790c035c2f6dc11a0be70"
                            },
                            {
                                "name": "taker",
                                "type": "address",
                                "value": "0x22f9dcf4647084d6c31b2765f6910cd85c178c18"
                            },
                            {
                                "name": "makerToken",
                                "type": "address",
                                "value": "0x6982508145454ce325ddbe47a25d4ec3d2311933"
                            },
                            {
                                "name": "takerToken",
                                "type": "address",
                                "value": "0xc02aaa39b223fe8d0a0e5c4f27ead9083c756cc2"
                            },
                            {
                                "name": "makerTokenFilledAmount",
                                "type": "uint128",
                                "value": "85,675,160,626,887,410,000,000,000"
                            },
                            {
                                "name": "takerTokenFilledAmount",
                                "type": "uint128",
                                "value": "55,439,440,726,921,946"
                            }
                        ],
                        "signature": "OtcOrderFilled(bytes32,address,address,address,address,uint128,uint128)"
                    },
                    "id": 20,
                    "logData": "0xd6ee604c19d95a7183d97b0fd5a3f6dc9e704719fb704d02ef3dc5fcd40d483b0000000000000000000000002008b6c3d07b061a84f790c035c2f6dc11a0be7000000000000000000000000022f9dcf4647084d6c31b2765f6910cd85c178c180000000000000000000000006982508145454ce325ddbe47a25d4ec3d2311933000000000000000000000000c02aaa39b223fe8d0a0e5c4f27ead9083c756cc200000000000000000000000000000000000000000046de6bc39492b03e96f40000000000000000000000000000000000000000000000000000c4f5e0ab1312da",
                    "logDecoded": true,
                    "operation": "EVENT",
                    "revert": false,
                    "status": true,
                    "topics": [
                        "0xac75f773e3a92f1a02b12134d65e1f47f8a14eabe4eaf1e24624918e6a8b269f"
                    ]
                },
                "nodeType": 1
            },
            "21": {
                "invocation": {
                    "address": "0x22f9dcf4647084d6c31b2765f6910cd85c178c18",
                    "callData": "0x0000000000000000000000008146cbbe327364b13d0699f2ced39c637f92501a00000000000000000000000000000000000000000000000000000000000000400000000000000000000000000000000000000000000000000000000000000144832b24bb0000000000000000000000000000000000000000000000000000000000000020000000000000000000000000f66ecdfc002b28f81ba2b32c04e8880018babe91000000000000000000000000f66ecdfc002b28f81ba2b32c04e8880018babe91000000000000000000000000000000000000000000000000000000000000006000000000000000000000000000000000000000000000000000000000000000a0000000000000000000000000000000000000000000000000000000000000002000000000000000000000000000000000000000000000000000000000000000010000000000000000000000006982508145454ce325ddbe47a25d4ec3d2311933000000000000000000000000000000000000000000001199203fa3c9a8877920000000000000000000000000ad01c20d5886137e056775af56915de824c8fce500000000000000000000000000000000000000000000000000000000",
                    "decodedMethod": {
                        "callParams": [
                            {
                                "name": "target",
                                "type": "address",
                                "value": "0x8146cbbe327364b13d0699f2ced39c637f92501a"
                            },
                            {
                                "name": "callData",
                                "type": "bytes",
                                "value": "0x832b24bb0000000000000000000000000000000000000000000000000000000000000020000000000000000000000000f66ecdfc002b28f81ba2b32c04e8880018babe91000000000000000000000000f66ecdfc002b28f81ba2b32c04e8880018babe91000000000000000000000000000000000000000000000000000000000000006000000000000000000000000000000000000000000000000000000000000000a0000000000000000000000000000000000000000000000000000000000000002000000000000000000000000000000000000000000000000000000000000000010000000000000000000000006982508145454ce325ddbe47a25d4ec3d2311933000000000000000000000000000000000000000000001199203fa3c9a8877920000000000000000000000000ad01c20d5886137e056775af56915de824c8fce5"
                            }
                        ],
                        "constructorArguments": "",
                        "name": "executeDelegateCall",
                        "returnParams": [
                            {
                                "name": "resultData",
                                "type": "bytes",
                                "value": "0x13c9929e00000000000000000000000000000000000000000000000000000000"
                            }
                        ],
                        "signature": "executeDelegateCall(address,bytes)"
                    },
                    "errorInfo": "",
                    "fromAddress": "0xdef1c0ded9bec7f1a1670819833240f027b25eff",
                    "gasUsed": 17783,
                    "id": 21,
                    "methodDecoded": true,
                    "operation": "CALL",
                    "output": "0x0000000000000000000000000000000000000000000000000000000000000020000000000000000000000000000000000000000000000000000000000000002013c9929e00000000000000000000000000000000000000000000000000000000",
                    "revert": false,
                    "revertMessage": "",
                    "selector": "0xb68df16d",
                    "status": true,
                    "value": "0"
                },
                "nodeType": 0
            },
            "22": {
                "invocation": {
                    "address": "0x8146cbbe327364b13d0699f2ced39c637f92501a",
                    "callData": "0x0000000000000000000000000000000000000000000000000000000000000020000000000000000000000000f66ecdfc002b28f81ba2b32c04e8880018babe91000000000000000000000000f66ecdfc002b28f81ba2b32c04e8880018babe91000000000000000000000000000000000000000000000000000000000000006000000000000000000000000000000000000000000000000000000000000000a0000000000000000000000000000000000000000000000000000000000000002000000000000000000000000000000000000000000000000000000000000000010000000000000000000000006982508145454ce325ddbe47a25d4ec3d2311933000000000000000000000000000000000000000000001199203fa3c9a8877920000000000000000000000000ad01c20d5886137e056775af56915de824c8fce5",
                    "decodedMethod": {
                        "callParams": [
                            {
                                "name": "context",
                                "type": "(address,address,bytes)",
                                "value": [
                                    {
                                        "name": "sender",
                                        "type": "address",
                                        "value": "0xf66ecdfc002b28f81ba2b32c04e8880018babe91"
                                    },
                                    {
                                        "name": "recipient",
                                        "type": "address",
                                        "value": "0xf66ecdfc002b28f81ba2b32c04e8880018babe91"
                                    },
                                    {
                                        "name": "data",
                                        "type": "bytes",
                                        "value": "0x000000000000000000000000000000000000000000000000000000000000002000000000000000000000000000000000000000000000000000000000000000010000000000000000000000006982508145454ce325ddbe47a25d4ec3d2311933000000000000000000000000000000000000000000001199203fa3c9a8877920000000000000000000000000ad01c20d5886137e056775af56915de824c8fce5"
                                    }
                                ]
                            }
                        ],
                        "constructorArguments": "",
                        "name": "transform",
                        "returnParams": [
                            {
                                "name": "success",
                                "type": "bytes4",
                                "value": "0x13c9929e"
                            }
                        ],
                        "signature": "transform((address,address,bytes))"
                    },
                    "errorInfo": "",
                    "fromAddress": "0x22f9dcf4647084d6c31b2765f6910cd85c178c18",
                    "gasUsed": 13998,
                    "id": 22,
                    "methodDecoded": true,
                    "operation": "DELEGATECALL",
                    "output": "0x13c9929e00000000000000000000000000000000000000000000000000000000",
                    "revert": false,
                    "revertMessage": "",
                    "selector": "0x832b24bb",
                    "status": true,
                    "value": "0"
                },
                "nodeType": 0
            },
            "23": {
                "invocation": {
                    "address": "0x6982508145454ce325ddbe47a25d4ec3d2311933",
                    "callData": "0x000000000000000000000000ad01c20d5886137e056775af56915de824c8fce5000000000000000000000000000000000000000000001199203fa3c9a8877920",
                    "decodedMethod": {
                        "callParams": [
                            {
                                "name": "recipient",
                                "type": "address",
                                "value": "0xad01c20d5886137e056775af56915de824c8fce5"
                            },
                            {
                                "decimalAvailable": true,
                                "name": "amount",
                                "type": "uint256",
                                "value": "83,104,905,808,080,787,700,000"
                            }
                        ],
                        "constructorArguments": "",
                        "name": "transfer",
                        "returnParams": [
                            {
                                "name": "",
                                "type": "bool",
                                "value": true
                            }
                        ],
                        "signature": "transfer(address,uint256)"
                    },
                    "errorInfo": "",
                    "fromAddress": "0x22f9dcf4647084d6c31b2765f6910cd85c178c18",
                    "gasUsed": 10906,
                    "id": 23,
                    "methodDecoded": true,
                    "operation": "CALL",
                    "output": "0x0000000000000000000000000000000000000000000000000000000000000001",
                    "revert": false,
                    "revertMessage": "",
                    "selector": "0xa9059cbb",
                    "status": true,
                    "value": "0"
                },
                "nodeType": 0
            },
            "24": {
                "event": {
                    "contract": "0x6982508145454ce325ddbe47a25d4ec3d2311933",
                    "decodedLog": {
                        "name": "Transfer",
                        "params": [
                            {
                                "name": "from",
                                "type": "address",
                                "value": "0x22f9dcf4647084d6c31b2765f6910cd85c178c18"
                            },
                            {
                                "name": "to",
                                "type": "address",
                                "value": "0xad01c20d5886137e056775af56915de824c8fce5"
                            },
                            {
                                "decimalAvailable": true,
                                "name": "value",
                                "type": "uint256",
                                "value": "83,104,905,808,080,787,700,000"
                            }
                        ],
                        "signature": "Transfer(address,address,uint256)"
                    },
                    "id": 24,
                    "logData": "0x000000000000000000000000000000000000000000001199203fa3c9a8877920",
                    "logDecoded": true,
                    "operation": "EVENT",
                    "revert": false,
                    "status": true,
                    "topics": [
                        "0xddf252ad1be2c89b69c2b068fc378daa952ba7f163c4a11628f55a4df523b3ef",
                        "0x00000000000000000000000022f9dcf4647084d6c31b2765f6910cd85c178c18",
                        "0x000000000000000000000000ad01c20d5886137e056775af56915de824c8fce5"
                    ]
                },
                "nodeType": 1
            },
            "25": {
                "invocation": {
                    "address": "0x22f9dcf4647084d6c31b2765f6910cd85c178c18",
                    "callData": "0x000000000000000000000000ea500d073652336a58846ada15c25f2c6d2d241f00000000000000000000000000000000000000000000000000000000000000400000000000000000000000000000000000000000000000000000000000000184832b24bb0000000000000000000000000000000000000000000000000000000000000020000000000000000000000000f66ecdfc002b28f81ba2b32c04e8880018babe91000000000000000000000000f66ecdfc002b28f81ba2b32c04e8880018babe91000000000000000000000000000000000000000000000000000000000000006000000000000000000000000000000000000000000000000000000000000000e00000000000000000000000000000000000000000000000000000000000000020000000000000000000000000000000000000000000000000000000000000004000000000000000000000000000000000000000000000000000000000000000a00000000000000000000000000000000000000000000000000000000000000002000000000000000000000000c02aaa39b223fe8d0a0e5c4f27ead9083c756cc2000000000000000000000000eeeeeeeeeeeeeeeeeeeeeeeeeeeeeeeeeeeeeeee000000000000000000000000000000000000000000000000000000000000000000000000000000000000000000000000000000000000000000000000",
                    "decodedMethod": {
                        "callParams": [
                            {
                                "name": "target",
                                "type": "address",
                                "value": "0xea500d073652336a58846ada15c25f2c6d2d241f"
                            },
                            {
                                "name": "callData",
                                "type": "bytes",
                                "value": "0x832b24bb0000000000000000000000000000000000000000000000000000000000000020000000000000000000000000f66ecdfc002b28f81ba2b32c04e8880018babe91000000000000000000000000f66ecdfc002b28f81ba2b32c04e8880018babe91000000000000000000000000000000000000000000000000000000000000006000000000000000000000000000000000000000000000000000000000000000e00000000000000000000000000000000000000000000000000000000000000020000000000000000000000000000000000000000000000000000000000000004000000000000000000000000000000000000000000000000000000000000000a00000000000000000000000000000000000000000000000000000000000000002000000000000000000000000c02aaa39b223fe8d0a0e5c4f27ead9083c756cc2000000000000000000000000eeeeeeeeeeeeeeeeeeeeeeeeeeeeeeeeeeeeeeee0000000000000000000000000000000000000000000000000000000000000000"
                            }
                        ],
                        "constructorArguments": "",
                        "name": "executeDelegateCall",
                        "returnParams": [
                            {
                                "name": "resultData",
                                "type": "bytes",
                                "value": "0x13c9929e00000000000000000000000000000000000000000000000000000000"
                            }
                        ],
                        "signature": "executeDelegateCall(address,bytes)"
                    },
                    "errorInfo": "",
                    "fromAddress": "0xdef1c0ded9bec7f1a1670819833240f027b25eff",
                    "gasUsed": 7813,
                    "id": 25,
                    "methodDecoded": true,
                    "operation": "CALL",
                    "output": "0x0000000000000000000000000000000000000000000000000000000000000020000000000000000000000000000000000000000000000000000000000000002013c9929e00000000000000000000000000000000000000000000000000000000",
                    "revert": false,
                    "revertMessage": "",
                    "selector": "0xb68df16d",
                    "status": true,
                    "value": "0"
                },
                "nodeType": 0
            },
            "26": {
                "invocation": {
                    "address": "0xea500d073652336a58846ada15c25f2c6d2d241f",
                    "callData": "0x0000000000000000000000000000000000000000000000000000000000000020000000000000000000000000f66ecdfc002b28f81ba2b32c04e8880018babe91000000000000000000000000f66ecdfc002b28f81ba2b32c04e8880018babe91000000000000000000000000000000000000000000000000000000000000006000000000000000000000000000000000000000000000000000000000000000e00000000000000000000000000000000000000000000000000000000000000020000000000000000000000000000000000000000000000000000000000000004000000000000000000000000000000000000000000000000000000000000000a00000000000000000000000000000000000000000000000000000000000000002000000000000000000000000c02aaa39b223fe8d0a0e5c4f27ead9083c756cc2000000000000000000000000eeeeeeeeeeeeeeeeeeeeeeeeeeeeeeeeeeeeeeee0000000000000000000000000000000000000000000000000000000000000000",
                    "decodedMethod": {
                        "callParams": [
                            {
                                "name": "context",
                                "type": "(address,address,bytes)",
                                "value": [
                                    {
                                        "name": "sender",
                                        "type": "address",
                                        "value": "0xf66ecdfc002b28f81ba2b32c04e8880018babe91"
                                    },
                                    {
                                        "name": "recipient",
                                        "type": "address",
                                        "value": "0xf66ecdfc002b28f81ba2b32c04e8880018babe91"
                                    },
                                    {
                                        "name": "data",
                                        "type": "bytes",
                                        "value": "0x0000000000000000000000000000000000000000000000000000000000000020000000000000000000000000000000000000000000000000000000000000004000000000000000000000000000000000000000000000000000000000000000a00000000000000000000000000000000000000000000000000000000000000002000000000000000000000000c02aaa39b223fe8d0a0e5c4f27ead9083c756cc2000000000000000000000000eeeeeeeeeeeeeeeeeeeeeeeeeeeeeeeeeeeeeeee0000000000000000000000000000000000000000000000000000000000000000"
                                    }
                                ]
                            }
                        ],
                        "constructorArguments": "",
                        "name": "transform",
                        "returnParams": [
                            {
                                "name": "success",
                                "type": "bytes4",
                                "value": "0x13c9929e"
                            }
                        ],
                        "signature": "transform((address,address,bytes))"
                    },
                    "errorInfo": "",
                    "fromAddress": "0x22f9dcf4647084d6c31b2765f6910cd85c178c18",
                    "gasUsed": 4016,
                    "id": 26,
                    "methodDecoded": true,
                    "operation": "DELEGATECALL",
                    "output": "0x13c9929e00000000000000000000000000000000000000000000000000000000",
                    "revert": false,
                    "revertMessage": "",
                    "selector": "0x832b24bb",
                    "status": true,
                    "value": "0"
                },
                "nodeType": 0
            },
            "27": {
                "invocation": {
                    "address": "0xc02aaa39b223fe8d0a0e5c4f27ead9083c756cc2",
                    "callData": "0x00000000000000000000000022f9dcf4647084d6c31b2765f6910cd85c178c18",
                    "decodedMethod": {
                        "callParams": [
                            {
                                "name": "",
                                "type": "address",
                                "value": "0x22f9dcf4647084d6c31b2765f6910cd85c178c18"
                            }
                        ],
                        "constructorArguments": "",
                        "name": "balanceOf",
                        "returnParams": [
                            {
                                "decimalAvailable": true,
                                "name": "",
                                "type": "uint256",
                                "value": "0"
                            }
                        ],
                        "signature": "balanceOf(address)"
                    },
                    "errorInfo": "",
                    "fromAddress": "0x22f9dcf4647084d6c31b2765f6910cd85c178c18",
                    "gasUsed": 534,
                    "id": 27,
                    "methodDecoded": true,
                    "operation": "STATICCALL",
                    "output": "0x0000000000000000000000000000000000000000000000000000000000000000",
                    "revert": false,
                    "revertMessage": "",
                    "selector": "0x70a08231",
                    "status": true,
                    "value": "0"
                },
                "nodeType": 0
            },
            "28": {
                "invocation": {
                    "address": "0x6982508145454ce325ddbe47a25d4ec3d2311933",
                    "callData": "0x00000000000000000000000022f9dcf4647084d6c31b2765f6910cd85c178c18",
                    "decodedMethod": {
                        "callParams": [
                            {
                                "name": "account",
                                "type": "address",
                                "value": "0x22f9dcf4647084d6c31b2765f6910cd85c178c18"
                            }
                        ],
                        "constructorArguments": "",
                        "name": "balanceOf",
                        "returnParams": [
                            {
                                "decimalAvailable": true,
                                "name": "",
                                "type": "uint256",
                                "value": "85,592,055,721,079,329,212,300,000"
                            }
                        ],
                        "signature": "balanceOf(address)"
                    },
                    "errorInfo": "",
                    "fromAddress": "0xdef1c0ded9bec7f1a1670819833240f027b25eff",
                    "gasUsed": 624,
                    "id": 28,
                    "methodDecoded": true,
                    "operation": "STATICCALL",
                    "output": "0x00000000000000000000000000000000000000000046ccd2a354eee6960f7ae0",
                    "revert": false,
                    "revertMessage": "",
                    "selector": "0x70a08231",
                    "status": true,
                    "value": "0"
                },
                "nodeType": 0
            },
            "29": {
                "invocation": {
                    "address": "0x22f9dcf4647084d6c31b2765f6910cd85c178c18",
                    "callData": "0x0000000000000000000000006982508145454ce325ddbe47a25d4ec3d2311933000000000000000000000000000000000000000000000000000000000000006000000000000000000000000000000000000000000000000000000000000000000000000000000000000000000000000000000000000000000000000000000044a9059cbb000000000000000000000000f66ecdfc002b28f81ba2b32c04e8880018babe9100000000000000000000000000000000000000000046ccd2a354eee6960f7ae000000000000000000000000000000000000000000000000000000000",
                    "decodedMethod": {
                        "callParams": [
                            {
                                "name": "target",
                                "type": "address",
                                "value": "0x6982508145454ce325ddbe47a25d4ec3d2311933"
                            },
                            {
                                "name": "callData",
                                "type": "bytes",
                                "value": "0xa9059cbb000000000000000000000000f66ecdfc002b28f81ba2b32c04e8880018babe9100000000000000000000000000000000000000000046ccd2a354eee6960f7ae0"
                            },
                            {
                                "name": "value",
                                "type": "uint256",
                                "value": "0"
                            }
                        ],
                        "constructorArguments": "",
                        "name": "executeCall",
                        "returnParams": [
                            {
                                "name": "resultData",
                                "type": "bytes",
                                "value": "0x0000000000000000000000000000000000000000000000000000000000000001"
                            }
                        ],
                        "signature": "executeCall(address,bytes,uint256)"
                    },
                    "errorInfo": "",
                    "fromAddress": "0xdef1c0ded9bec7f1a1670819833240f027b25eff",
                    "gasUsed": 10197,
                    "id": 29,
                    "methodDecoded": true,
                    "operation": "CALL",
                    "output": "0x000000000000000000000000000000000000000000000000000000000000002000000000000000000000000000000000000000000000000000000000000000200000000000000000000000000000000000000000000000000000000000000001",
                    "revert": false,
                    "revertMessage": "",
                    "selector": "0x54132d78",
                    "status": true,
                    "value": "0"
                },
                "nodeType": 0
            },
            "3": {
                "invocation": {
                    "address": "0x22f9dcf4647084d6c31b2765f6910cd85c178c18",
                    "callData": "0x",
                    "decodedMethod": null,
                    "errorInfo": "",
                    "fromAddress": "0xdef1c0ded9bec7f1a1670819833240f027b25eff",
                    "gasUsed": 55,
                    "id": 3,
                    "methodDecoded": false,
                    "operation": "CALL",
                    "output": "",
                    "revert": false,
                    "revertMessage": "",
                    "selector": "fallback",
                    "status": true,
                    "value": "0.055439440726921946"
                },
                "nodeType": 0
            },
            "30": {
                "invocation": {
                    "address": "0x6982508145454ce325ddbe47a25d4ec3d2311933",
                    "callData": "0x000000000000000000000000f66ecdfc002b28f81ba2b32c04e8880018babe9100000000000000000000000000000000000000000046ccd2a354eee6960f7ae0",
                    "decodedMethod": {
                        "callParams": [
                            {
                                "name": "recipient",
                                "type": "address",
                                "value": "0xf66ecdfc002b28f81ba2b32c04e8880018babe91"
                            },
                            {
                                "decimalAvailable": true,
                                "name": "amount",
                                "type": "uint256",
                                "value": "85,592,055,721,079,329,212,300,000"
                            }
                        ],
                        "constructorArguments": "",
                        "name": "transfer",
                        "returnParams": [
                            {
                                "name": "",
                                "type": "bool",
                                "value": true
                            }
                        ],
                        "signature": "transfer(address,uint256)"
                    },
                    "errorInfo": "",
                    "fromAddress": "0x22f9dcf4647084d6c31b2765f6910cd85c178c18",
                    "gasUsed": 8906,
                    "id": 30,
                    "methodDecoded": true,
                    "operation": "CALL",
                    "output": "0x0000000000000000000000000000000000000000000000000000000000000001",
                    "revert": false,
                    "revertMessage": "",
                    "selector": "0xa9059cbb",
                    "status": true,
                    "value": "0"
                },
                "nodeType": 0
            },
            "31": {
                "event": {
                    "contract": "0x6982508145454ce325ddbe47a25d4ec3d2311933",
                    "decodedLog": {
                        "name": "Transfer",
                        "params": [
                            {
                                "name": "from",
                                "type": "address",
                                "value": "0x22f9dcf4647084d6c31b2765f6910cd85c178c18"
                            },
                            {
                                "name": "to",
                                "type": "address",
                                "value": "0xf66ecdfc002b28f81ba2b32c04e8880018babe91"
                            },
                            {
                                "decimalAvailable": true,
                                "name": "value",
                                "type": "uint256",
                                "value": "85,592,055,721,079,329,212,300,000"
                            }
                        ],
                        "signature": "Transfer(address,address,uint256)"
                    },
                    "id": 31,
                    "logData": "0x00000000000000000000000000000000000000000046ccd2a354eee6960f7ae0",
                    "logDecoded": true,
                    "operation": "EVENT",
                    "revert": false,
                    "status": true,
                    "topics": [
                        "0xddf252ad1be2c89b69c2b068fc378daa952ba7f163c4a11628f55a4df523b3ef",
                        "0x00000000000000000000000022f9dcf4647084d6c31b2765f6910cd85c178c18",
                        "0x000000000000000000000000f66ecdfc002b28f81ba2b32c04e8880018babe91"
                    ]
                },
                "nodeType": 1
            },
            "32": {
                "invocation": {
                    "address": "0x6982508145454ce325ddbe47a25d4ec3d2311933",
                    "callData": "0x000000000000000000000000f66ecdfc002b28f81ba2b32c04e8880018babe91",
                    "decodedMethod": {
                        "callParams": [
                            {
                                "name": "account",
                                "type": "address",
                                "value": "0xf66ecdfc002b28f81ba2b32c04e8880018babe91"
                            }
                        ],
                        "constructorArguments": "",
                        "name": "balanceOf",
                        "returnParams": [
                            {
                                "decimalAvailable": true,
                                "name": "",
                                "type": "uint256",
                                "value": "2,057,021,581,931,167,030,190,850,611"
                            }
                        ],
                        "signature": "balanceOf(address)"
                    },
                    "errorInfo": "",
                    "fromAddress": "0xdef1c0ded9bec7f1a1670819833240f027b25eff",
                    "gasUsed": 624,
                    "id": 32,
                    "methodDecoded": true,
                    "operation": "STATICCALL",
                    "output": "0x000000000000000000000000000000000000000006a587436622b3d3cf28c233",
                    "revert": false,
                    "revertMessage": "",
                    "selector": "0x70a08231",
                    "status": true,
                    "value": "0"
                },
                "nodeType": 0
            },
            "33": {
                "event": {
                    "contract": "0xdef1c0ded9bec7f1a1670819833240f027b25eff",
                    "decodedLog": {
                        "name": "TransformedERC20",
                        "params": [
                            {
                                "name": "taker",
                                "type": "address",
                                "value": "0xf66ecdfc002b28f81ba2b32c04e8880018babe91"
                            },
                            {
                                "name": "inputToken",
                                "type": "address",
                                "value": "0xeeeeeeeeeeeeeeeeeeeeeeeeeeeeeeeeeeeeeeee"
                            },
                            {
                                "name": "outputToken",
                                "type": "address",
                                "value": "0x6982508145454ce325ddbe47a25d4ec3d2311933"
                            },
                            {
                                "name": "inputTokenAmount",
                                "type": "uint256",
                                "value": "55,439,440,726,921,946"
                            },
                            {
                                "name": "outputTokenAmount",
                                "type": "uint256",
                                "value": "85,592,055,721,079,329,212,300,000"
                            }
                        ],
                        "signature": "TransformedERC20(address,address,address,uint256,uint256)"
                    },
                    "id": 33,
                    "logData": "0x000000000000000000000000eeeeeeeeeeeeeeeeeeeeeeeeeeeeeeeeeeeeeeee0000000000000000000000006982508145454ce325ddbe47a25d4ec3d231193300000000000000000000000000000000000000000000000000c4f5e0ab1312da00000000000000000000000000000000000000000046ccd2a354eee6960f7ae0",
                    "logDecoded": true,
                    "operation": "EVENT",
                    "revert": false,
                    "status": true,
                    "topics": [
                        "0x0f6672f78a59ba8e5e5b5d38df3ebc67f3c792e2c9259b8d97d7f00dd78ba1b3",
                        "0x000000000000000000000000f66ecdfc002b28f81ba2b32c04e8880018babe91"
                    ]
                },
                "nodeType": 1
            },
            "4": {
                "invocation": {
                    "address": "0x22f9dcf4647084d6c31b2765f6910cd85c178c18",
                    "callData": "0x000000000000000000000000b2bc06a4efb20fc6553a69dbfa49b7be938034a7000000000000000000000000000000000000000000000000000000000000004000000000000000000000000000000000000000000000000000000000000000e4832b24bb0000000000000000000000000000000000000000000000000000000000000020000000000000000000000000f66ecdfc002b28f81ba2b32c04e8880018babe91000000000000000000000000f66ecdfc002b28f81ba2b32c04e8880018babe9100000000000000000000000000000000000000000000000000000000000000600000000000000000000000000000000000000000000000000000000000000040000000000000000000000000eeeeeeeeeeeeeeeeeeeeeeeeeeeeeeeeeeeeeeee00000000000000000000000000000000000000000000000000c4f5e0ab1312da00000000000000000000000000000000000000000000000000000000",
                    "decodedMethod": {
                        "callParams": [
                            {
                                "name": "target",
                                "type": "address",
                                "value": "0xb2bc06a4efb20fc6553a69dbfa49b7be938034a7"
                            },
                            {
                                "name": "callData",
                                "type": "bytes",
                                "value": "0x832b24bb0000000000000000000000000000000000000000000000000000000000000020000000000000000000000000f66ecdfc002b28f81ba2b32c04e8880018babe91000000000000000000000000f66ecdfc002b28f81ba2b32c04e8880018babe9100000000000000000000000000000000000000000000000000000000000000600000000000000000000000000000000000000000000000000000000000000040000000000000000000000000eeeeeeeeeeeeeeeeeeeeeeeeeeeeeeeeeeeeeeee00000000000000000000000000000000000000000000000000c4f5e0ab1312da"
                            }
                        ],
                        "constructorArguments": "",
                        "name": "executeDelegateCall",
                        "returnParams": [
                            {
                                "name": "resultData",
                                "type": "bytes",
                                "value": "0x13c9929e00000000000000000000000000000000000000000000000000000000"
                            }
                        ],
                        "signature": "executeDelegateCall(address,bytes)"
                    },
                    "errorInfo": "",
                    "fromAddress": "0xdef1c0ded9bec7f1a1670819833240f027b25eff",
                    "gasUsed": 38458,
                    "id": 4,
                    "methodDecoded": true,
                    "operation": "CALL",
                    "output": "0x0000000000000000000000000000000000000000000000000000000000000020000000000000000000000000000000000000000000000000000000000000002013c9929e00000000000000000000000000000000000000000000000000000000",
                    "revert": false,
                    "revertMessage": "",
                    "selector": "0xb68df16d",
                    "status": true,
                    "value": "0"
                },
                "nodeType": 0
            },
            "5": {
                "invocation": {
                    "address": "0xb2bc06a4efb20fc6553a69dbfa49b7be938034a7",
                    "callData": "0x0000000000000000000000000000000000000000000000000000000000000020000000000000000000000000f66ecdfc002b28f81ba2b32c04e8880018babe91000000000000000000000000f66ecdfc002b28f81ba2b32c04e8880018babe9100000000000000000000000000000000000000000000000000000000000000600000000000000000000000000000000000000000000000000000000000000040000000000000000000000000eeeeeeeeeeeeeeeeeeeeeeeeeeeeeeeeeeeeeeee00000000000000000000000000000000000000000000000000c4f5e0ab1312da",
                    "decodedMethod": {
                        "callParams": [
                            {
                                "name": "context",
                                "type": "(address,address,bytes)",
                                "value": [
                                    {
                                        "name": "sender",
                                        "type": "address",
                                        "value": "0xf66ecdfc002b28f81ba2b32c04e8880018babe91"
                                    },
                                    {
                                        "name": "taker",
                                        "type": "address",
                                        "value": "0xf66ecdfc002b28f81ba2b32c04e8880018babe91"
                                    },
                                    {
                                        "name": "data",
                                        "type": "bytes",
                                        "value": "0x000000000000000000000000eeeeeeeeeeeeeeeeeeeeeeeeeeeeeeeeeeeeeeee00000000000000000000000000000000000000000000000000c4f5e0ab1312da"
                                    }
                                ]
                            }
                        ],
                        "constructorArguments": "",
                        "name": "transform",
                        "returnParams": [
                            {
                                "name": "success",
                                "type": "bytes4",
                                "value": "0x13c9929e"
                            }
                        ],
                        "signature": "transform((address,address,bytes))"
                    },
                    "errorInfo": "",
                    "fromAddress": "0x22f9dcf4647084d6c31b2765f6910cd85c178c18",
                    "gasUsed": 34691,
                    "id": 5,
                    "methodDecoded": true,
                    "operation": "DELEGATECALL",
                    "output": "0x13c9929e00000000000000000000000000000000000000000000000000000000",
                    "revert": false,
                    "revertMessage": "",
                    "selector": "0x832b24bb",
                    "status": true,
                    "value": "0"
                },
                "nodeType": 0
            },
            "6": {
                "invocation": {
                    "address": "0xc02aaa39b223fe8d0a0e5c4f27ead9083c756cc2",
                    "callData": "0x",
                    "decodedMethod": {
                        "callParams": [],
                        "constructorArguments": "",
                        "name": "deposit",
                        "returnParams": [],
                        "signature": "deposit()"
                    },
                    "errorInfo": "",
                    "fromAddress": "0x22f9dcf4647084d6c31b2765f6910cd85c178c18",
                    "gasUsed": 23974,
                    "id": 6,
                    "methodDecoded": true,
                    "operation": "CALL",
                    "output": "",
                    "revert": false,
                    "revertMessage": "",
                    "selector": "0xd0e30db0",
                    "status": true,
                    "value": "0.055439440726921946"
                },
                "nodeType": 0
            },
            "7": {
                "event": {
                    "contract": "0xc02aaa39b223fe8d0a0e5c4f27ead9083c756cc2",
                    "decodedLog": {
                        "name": "Deposit",
                        "params": [
                            {
                                "name": "dst",
                                "type": "address",
                                "value": "0x22f9dcf4647084d6c31b2765f6910cd85c178c18"
                            },
                            {
                                "name": "wad",
                                "type": "uint256",
                                "value": "55,439,440,726,921,946"
                            }
                        ],
                        "signature": "Deposit(address,uint256)"
                    },
                    "id": 7,
                    "logData": "0x00000000000000000000000000000000000000000000000000c4f5e0ab1312da",
                    "logDecoded": true,
                    "operation": "EVENT",
                    "revert": false,
                    "status": true,
                    "topics": [
                        "0xe1fffcc4923d04b559f4d29a8bfc6cda04eb5b0d3c460751c2402c5c5cc9109c",
                        "0x00000000000000000000000022f9dcf4647084d6c31b2765f6910cd85c178c18"
                    ]
                },
                "nodeType": 1
            },
            "8": {
                "invocation": {
                    "address": "0x22f9dcf4647084d6c31b2765f6910cd85c178c18",
                    "callData": "0x0000000000000000000000002fd08c1f9fc8406c1d7e3a799a13883a7e7949f000000000000000000000000000000000000000000000000000000000000000400000000000000000000000000000000000000000000000000000000000000404832b24bb0000000000000000000000000000000000000000000000000000000000000020000000000000000000000000f66ecdfc002b28f81ba2b32c04e8880018babe91000000000000000000000000f66ecdfc002b28f81ba2b32c04e8880018babe910000000000000000000000000000000000000000000000000000000000000060000000000000000000000000000000000000000000000000000000000000036000000000000000000000000000000000000000000000000000000000000000200000000000000000000000000000000000000000000000000000000000000000000000000000000000000000c02aaa39b223fe8d0a0e5c4f27ead9083c756cc20000000000000000000000006982508145454ce325ddbe47a25d4ec3d2311933000000000000000000000000000000000000000000000000000000000000024000000000000000000000000000000000000000000000000000000000000002400000000000000000000000000000000000000000000000000000000000000240000000000000000000000000000000000000000000000000000000000000014000000000000000000000000000000000000000000000000000c4f5e0ab1312da000000000000000000000000000000000000000000000000000000000000000000000000000000000000000000000000000000000000000000000000000001800000000000000000000000000000000000000000000000000000000000000001000000000000000000000000000000000000000000000000000000000000000300000000000000000000000000000000000000000000000000000000000000010000000000000000000000006982508145454ce325ddbe47a25d4ec3d2311933000000000000000000000000c02aaa39b223fe8d0a0e5c4f27ead9083c756cc200000000000000000000000000000000000000000046de6bc39492b03e96f40000000000000000000000000000000000000000000000000000c4f5e0ab1312da0000000000000000000000002008b6c3d07b061a84f790c035c2f6dc11a0be700000000000000000000000000000000000000000000000000000000000000000000000000000000000000000f66ecdfc002b28f81ba2b32c04e8880018babe9100000000653e9b700000000000000000000000000000000000000000653e9b170000000000000000000000000000000000000000000000000000000000000003000000000000000000000000000000000000000000000000000000000000001b178ea6a7b20dfc5e189c78fe832a957ed55c7bec27f215baa1ed1b712a9da94a20a901b9df82c21d436c609dfbe5ce6c600c9ddf3440ac4d114115216c0cbaa000000000000000000000000000000000000000000000000000c4f5e0ab1312da00000000000000000000000000000000000000000000000000000000",
                    "decodedMethod": {
                        "callParams": [
                            {
                                "name": "target",
                                "type": "address",
                                "value": "0x2fd08c1f9fc8406c1d7e3a799a13883a7e7949f0"
                            },
                            {
                                "name": "callData",
                                "type": "bytes",
                                "value": "0x832b24bb0000000000000000000000000000000000000000000000000000000000000020000000000000000000000000f66ecdfc002b28f81ba2b32c04e8880018babe91000000000000000000000000f66ecdfc002b28f81ba2b32c04e8880018babe910000000000000000000000000000000000000000000000000000000000000060000000000000000000000000000000000000000000000000000000000000036000000000000000000000000000000000000000000000000000000000000000200000000000000000000000000000000000000000000000000000000000000000000000000000000000000000c02aaa39b223fe8d0a0e5c4f27ead9083c756cc20000000000000000000000006982508145454ce325ddbe47a25d4ec3d2311933000000000000000000000000000000000000000000000000000000000000024000000000000000000000000000000000000000000000000000000000000002400000000000000000000000000000000000000000000000000000000000000240000000000000000000000000000000000000000000000000000000000000014000000000000000000000000000000000000000000000000000c4f5e0ab1312da000000000000000000000000000000000000000000000000000000000000000000000000000000000000000000000000000000000000000000000000000001800000000000000000000000000000000000000000000000000000000000000001000000000000000000000000000000000000000000000000000000000000000300000000000000000000000000000000000000000000000000000000000000010000000000000000000000006982508145454ce325ddbe47a25d4ec3d2311933000000000000000000000000c02aaa39b223fe8d0a0e5c4f27ead9083c756cc200000000000000000000000000000000000000000046de6bc39492b03e96f40000000000000000000000000000000000000000000000000000c4f5e0ab1312da0000000000000000000000002008b6c3d07b061a84f790c035c2f6dc11a0be700000000000000000000000000000000000000000000000000000000000000000000000000000000000000000f66ecdfc002b28f81ba2b32c04e8880018babe9100000000653e9b700000000000000000000000000000000000000000653e9b170000000000000000000000000000000000000000000000000000000000000003000000000000000000000000000000000000000000000000000000000000001b178ea6a7b20dfc5e189c78fe832a957ed55c7bec27f215baa1ed1b712a9da94a20a901b9df82c21d436c609dfbe5ce6c600c9ddf3440ac4d114115216c0cbaa000000000000000000000000000000000000000000000000000c4f5e0ab1312da"
                            }
                        ],
                        "constructorArguments": "",
                        "name": "executeDelegateCall",
                        "returnParams": [
                            {
                                "name": "resultData",
                                "type": "bytes",
                                "value": "0x13c9929e00000000000000000000000000000000000000000000000000000000"
                            }
                        ],
                        "signature": "executeDelegateCall(address,bytes)"
                    },
                    "errorInfo": "",
                    "fromAddress": "0xdef1c0ded9bec7f1a1670819833240f027b25eff",
                    "gasUsed": 95408,
                    "id": 8,
                    "methodDecoded": true,
                    "operation": "CALL",
                    "output": "0x0000000000000000000000000000000000000000000000000000000000000020000000000000000000000000000000000000000000000000000000000000002013c9929e00000000000000000000000000000000000000000000000000000000",
                    "revert": false,
                    "revertMessage": "",
                    "selector": "0xb68df16d",
                    "status": true,
                    "value": "0"
                },
                "nodeType": 0
            },
            "9": {
                "invocation": {
                    "address": "0x2fd08c1f9fc8406c1d7e3a799a13883a7e7949f0",
                    "callData": "0x0000000000000000000000000000000000000000000000000000000000000020000000000000000000000000f66ecdfc002b28f81ba2b32c04e8880018babe91000000000000000000000000f66ecdfc002b28f81ba2b32c04e8880018babe910000000000000000000000000000000000000000000000000000000000000060000000000000000000000000000000000000000000000000000000000000036000000000000000000000000000000000000000000000000000000000000000200000000000000000000000000000000000000000000000000000000000000000000000000000000000000000c02aaa39b223fe8d0a0e5c4f27ead9083c756cc20000000000000000000000006982508145454ce325ddbe47a25d4ec3d2311933000000000000000000000000000000000000000000000000000000000000024000000000000000000000000000000000000000000000000000000000000002400000000000000000000000000000000000000000000000000000000000000240000000000000000000000000000000000000000000000000000000000000014000000000000000000000000000000000000000000000000000c4f5e0ab1312da000000000000000000000000000000000000000000000000000000000000000000000000000000000000000000000000000000000000000000000000000001800000000000000000000000000000000000000000000000000000000000000001000000000000000000000000000000000000000000000000000000000000000300000000000000000000000000000000000000000000000000000000000000010000000000000000000000006982508145454ce325ddbe47a25d4ec3d2311933000000000000000000000000c02aaa39b223fe8d0a0e5c4f27ead9083c756cc200000000000000000000000000000000000000000046de6bc39492b03e96f40000000000000000000000000000000000000000000000000000c4f5e0ab1312da0000000000000000000000002008b6c3d07b061a84f790c035c2f6dc11a0be700000000000000000000000000000000000000000000000000000000000000000000000000000000000000000f66ecdfc002b28f81ba2b32c04e8880018babe9100000000653e9b700000000000000000000000000000000000000000653e9b170000000000000000000000000000000000000000000000000000000000000003000000000000000000000000000000000000000000000000000000000000001b178ea6a7b20dfc5e189c78fe832a957ed55c7bec27f215baa1ed1b712a9da94a20a901b9df82c21d436c609dfbe5ce6c600c9ddf3440ac4d114115216c0cbaa000000000000000000000000000000000000000000000000000c4f5e0ab1312da",
                    "decodedMethod": {
                        "callParams": [
                            {
                                "name": "context",
                                "type": "(address,address,bytes)",
                                "value": [
                                    {
                                        "name": "sender",
                                        "type": "address",
                                        "value": "0xf66ecdfc002b28f81ba2b32c04e8880018babe91"
                                    },
                                    {
                                        "name": "recipient",
                                        "type": "address",
                                        "value": "0xf66ecdfc002b28f81ba2b32c04e8880018babe91"
                                    },
                                    {
                                        "name": "data",
                                        "type": "bytes",
                                        "value": "0x00000000000000000000000000000000000000000000000000000000000000200000000000000000000000000000000000000000000000000000000000000000000000000000000000000000c02aaa39b223fe8d0a0e5c4f27ead9083c756cc20000000000000000000000006982508145454ce325ddbe47a25d4ec3d2311933000000000000000000000000000000000000000000000000000000000000024000000000000000000000000000000000000000000000000000000000000002400000000000000000000000000000000000000000000000000000000000000240000000000000000000000000000000000000000000000000000000000000014000000000000000000000000000000000000000000000000000c4f5e0ab1312da000000000000000000000000000000000000000000000000000000000000000000000000000000000000000000000000000000000000000000000000000001800000000000000000000000000000000000000000000000000000000000000001000000000000000000000000000000000000000000000000000000000000000300000000000000000000000000000000000000000000000000000000000000010000000000000000000000006982508145454ce325ddbe47a25d4ec3d2311933000000000000000000000000c02aaa39b223fe8d0a0e5c4f27ead9083c756cc200000000000000000000000000000000000000000046de6bc39492b03e96f40000000000000000000000000000000000000000000000000000c4f5e0ab1312da0000000000000000000000002008b6c3d07b061a84f790c035c2f6dc11a0be700000000000000000000000000000000000000000000000000000000000000000000000000000000000000000f66ecdfc002b28f81ba2b32c04e8880018babe9100000000653e9b700000000000000000000000000000000000000000653e9b170000000000000000000000000000000000000000000000000000000000000003000000000000000000000000000000000000000000000000000000000000001b178ea6a7b20dfc5e189c78fe832a957ed55c7bec27f215baa1ed1b712a9da94a20a901b9df82c21d436c609dfbe5ce6c600c9ddf3440ac4d114115216c0cbaa000000000000000000000000000000000000000000000000000c4f5e0ab1312da"
                                    }
                                ]
                            }
                        ],
                        "constructorArguments": "",
                        "name": "transform",
                        "returnParams": [
                            {
                                "name": "magicBytes",
                                "type": "bytes4",
                                "value": "0x13c9929e"
                            }
                        ],
                        "signature": "transform((address,address,bytes))"
                    },
                    "errorInfo": "",
                    "fromAddress": "0x22f9dcf4647084d6c31b2765f6910cd85c178c18",
                    "gasUsed": 91489,
                    "id": 9,
                    "methodDecoded": true,
                    "operation": "DELEGATECALL",
                    "output": "0x13c9929e00000000000000000000000000000000000000000000000000000000",
                    "revert": false,
                    "revertMessage": "",
                    "selector": "0x832b24bb",
                    "status": true,
                    "value": "0"
                },
                "nodeType": 0
            }
        },
        "gasFlame": [
            {
                "children": [
                    {
                        "children": [
                            {
                                "children": [],
                                "depth": 0,
                                "name": "Initial Gas",
                                "value": 35160
                            },
                            {
                                "children": [
                                    {
                                        "children": [
                                            {
                                                "children": [],
                                                "depth": 2,
                                                "name": "balanceOf",
                                                "value": 2624
                                            },
                                            {
                                                "children": [],
                                                "depth": 2,
                                                "name": "fallback",
                                                "value": 55
                                            },
                                            {
                                                "children": [
                                                    {
                                                        "children": [
                                                            {
                                                                "children": [],
                                                                "depth": 4,
                                                                "name": "deposit",
                                                                "value": 23974
                                                            }
                                                        ],
                                                        "depth": 3,
                                                        "name": "transform",
                                                        "value": 34691
                                                    }
                                                ],
                                                "depth": 2,
                                                "name": "executeDelegateCall",
                                                "value": 38458
                                            },
                                            {
                                                "children": [
                                                    {
                                                        "children": [
                                                            {
                                                                "children": [],
                                                                "depth": 4,
                                                                "name": "balanceOf",
                                                                "value": 534
                                                            },
                                                            {
                                                                "children": [],
                                                                "depth": 4,
                                                                "name": "allowance",
                                                                "value": 2717
                                                            },
                                                            {
                                                                "children": [
                                                                    {
                                                                        "children": [
                                                                            {
                                                                                "children": [],
                                                                                "depth": 6,
                                                                                "name": "ecrecover",
                                                                                "value": 3000
                                                                            },
                                                                            {
                                                                                "children": [],
                                                                                "depth": 6,
                                                                                "name": "transferFrom",
                                                                                "value": 8225
                                                                            },
                                                                            {
                                                                                "children": [],
                                                                                "depth": 6,
                                                                                "name": "transferFrom",
                                                                                "value": 46245
                                                                            }
                                                                        ],
                                                                        "depth": 5,
                                                                        "name": "fillOtcOrder",
                                                                        "value": 71077
                                                                    }
                                                                ],
                                                                "depth": 4,
                                                                "name": "fillOtcOrder",
                                                                "value": 76883
                                                            }
                                                        ],
                                                        "depth": 3,
                                                        "name": "transform",
                                                        "value": 91489
                                                    }
                                                ],
                                                "depth": 2,
                                                "name": "executeDelegateCall",
                                                "value": 95408
                                            },
                                            {
                                                "children": [
                                                    {
                                                        "children": [
                                                            {
                                                                "children": [],
                                                                "depth": 4,
                                                                "name": "transfer",
                                                                "value": 10906
                                                            }
                                                        ],
                                                        "depth": 3,
                                                        "name": "transform",
                                                        "value": 13998
                                                    }
                                                ],
                                                "depth": 2,
                                                "name": "executeDelegateCall",
                                                "value": 17783
                                            },
                                            {
                                                "children": [
                                                    {
                                                        "children": [
                                                            {
                                                                "children": [],
                                                                "depth": 4,
                                                                "name": "balanceOf",
                                                                "value": 534
                                                            }
                                                        ],
                                                        "depth": 3,
                                                        "name": "transform",
                                                        "value": 4016
                                                    }
                                                ],
                                                "depth": 2,
                                                "name": "executeDelegateCall",
                                                "value": 7813
                                            },
                                            {
                                                "children": [],
                                                "depth": 2,
                                                "name": "balanceOf",
                                                "value": 624
                                            },
                                            {
                                                "children": [
                                                    {
                                                        "children": [],
                                                        "depth": 3,
                                                        "name": "transfer",
                                                        "value": 8906
                                                    }
                                                ],
                                                "depth": 2,
                                                "name": "executeCall",
                                                "value": 10197
                                            },
                                            {
                                                "children": [],
                                                "depth": 2,
                                                "name": "balanceOf",
                                                "value": 624
                                            }
                                        ],
                                        "depth": 1,
                                        "name": "transformERC20",
                                        "value": 221067
                                    }
                                ],
                                "depth": 0,
                                "name": "Executed Gas",
                                "value": 227529
                            }
                        ],
                        "depth": -1,
                        "name": "Actual Gas Used",
                        "value": 222889
                    },
                    {
                        "children": [],
                        "depth": -1,
                        "name": "Refunded Gas",
                        "value": 39800
                    }
                ],
                "depth": -2,
                "name": "Total Gas",
                "value": 262689
            }
        ],
        "isConfirmed": true,
        "mainTrace": [
            {
                "children": [
                    {
                        "children": [
                            {
                                "children": [
                                    {
                                        "children": [],
                                        "depth": 2,
                                        "id": 2,
                                        "order": 2
                                    },
                                    {
                                        "children": [],
                                        "depth": 2,
                                        "id": 3,
                                        "order": 3
                                    },
                                    {
                                        "children": [
                                            {
                                                "children": [
                                                    {
                                                        "children": [
                                                            {
                                                                "children": [],
                                                                "depth": 5,
                                                                "id": 7,
                                                                "order": 7
                                                            }
                                                        ],
                                                        "depth": 4,
                                                        "id": 6,
                                                        "order": 6
                                                    }
                                                ],
                                                "depth": 3,
                                                "id": 5,
                                                "order": 5
                                            }
                                        ],
                                        "depth": 2,
                                        "id": 4,
                                        "order": 4
                                    },
                                    {
                                        "children": [
                                            {
                                                "children": [
                                                    {
                                                        "children": [],
                                                        "depth": 4,
                                                        "id": 10,
                                                        "order": 10
                                                    },
                                                    {
                                                        "children": [],
                                                        "depth": 4,
                                                        "id": 11,
                                                        "order": 11
                                                    },
                                                    {
                                                        "children": [
                                                            {
                                                                "children": [
                                                                    {
                                                                        "children": [],
                                                                        "depth": 6,
                                                                        "id": 14,
                                                                        "order": 14
                                                                    },
                                                                    {
                                                                        "children": [
                                                                            {
                                                                                "children": [],
                                                                                "depth": 7,
                                                                                "id": 16,
                                                                                "order": 16
                                                                            }
                                                                        ],
                                                                        "depth": 6,
                                                                        "id": 15,
                                                                        "order": 15
                                                                    },
                                                                    {
                                                                        "children": [
                                                                            {
                                                                                "children": [],
                                                                                "depth": 7,
                                                                                "id": 18,
                                                                                "order": 18
                                                                            },
                                                                            {
                                                                                "children": [],
                                                                                "depth": 7,
                                                                                "id": 19,
                                                                                "order": 19
                                                                            }
                                                                        ],
                                                                        "depth": 6,
                                                                        "id": 17,
                                                                        "order": 17
                                                                    },
                                                                    {
                                                                        "children": [],
                                                                        "depth": 6,
                                                                        "id": 20,
                                                                        "order": 20
                                                                    }
                                                                ],
                                                                "depth": 5,
                                                                "id": 13,
                                                                "order": 13
                                                            }
                                                        ],
                                                        "depth": 4,
                                                        "id": 12,
                                                        "order": 12
                                                    }
                                                ],
                                                "depth": 3,
                                                "id": 9,
                                                "order": 9
                                            }
                                        ],
                                        "depth": 2,
                                        "id": 8,
                                        "order": 8
                                    },
                                    {
                                        "children": [
                                            {
                                                "children": [
                                                    {
                                                        "children": [
                                                            {
                                                                "children": [],
                                                                "depth": 5,
                                                                "id": 24,
                                                                "order": 24
                                                            }
                                                        ],
                                                        "depth": 4,
                                                        "id": 23,
                                                        "order": 23
                                                    }
                                                ],
                                                "depth": 3,
                                                "id": 22,
                                                "order": 22
                                            }
                                        ],
                                        "depth": 2,
                                        "id": 21,
                                        "order": 21
                                    },
                                    {
                                        "children": [
                                            {
                                                "children": [
                                                    {
                                                        "children": [],
                                                        "depth": 4,
                                                        "id": 27,
                                                        "order": 27
                                                    }
                                                ],
                                                "depth": 3,
                                                "id": 26,
                                                "order": 26
                                            }
                                        ],
                                        "depth": 2,
                                        "id": 25,
                                        "order": 25
                                    },
                                    {
                                        "children": [],
                                        "depth": 2,
                                        "id": 28,
                                        "order": 28
                                    },
                                    {
                                        "children": [
                                            {
                                                "children": [
                                                    {
                                                        "children": [],
                                                        "depth": 4,
                                                        "id": 31,
                                                        "order": 31
                                                    }
                                                ],
                                                "depth": 3,
                                                "id": 30,
                                                "order": 30
                                            }
                                        ],
                                        "depth": 2,
                                        "id": 29,
                                        "order": 29
                                    },
                                    {
                                        "children": [],
                                        "depth": 2,
                                        "id": 32,
                                        "order": 32
                                    },
                                    {
                                        "children": [],
                                        "depth": 2,
                                        "id": 33,
                                        "order": 33
                                    }
                                ],
                                "depth": 1,
                                "id": 1,
                                "order": 1
                            }
                        ],
                        "depth": 0,
                        "id": 0,
                        "order": 0
                    }
                ],
                "depth": -1,
                "id": -1,
                "order": -1
            }
        ],
        "mainTraceNodeCount": 34,
        "parentIdMap": {
            "0": -1,
            "1": 0,
            "10": 9,
            "11": 9,
            "12": 9,
            "13": 12,
            "14": 13,
            "15": 13,
            "16": 15,
            "17": 13,
            "18": 17,
            "19": 17,
            "2": 1,
            "20": 13,
            "21": 1,
            "22": 21,
            "23": 22,
            "24": 23,
            "25": 1,
            "26": 25,
            "27": 26,
            "28": 1,
            "29": 1,
            "3": 1,
            "30": 29,
            "31": 30,
            "32": 1,
            "33": 1,
            "4": 1,
            "5": 4,
            "6": 5,
            "7": 6,
            "8": 1,
            "9": 8
        },
        "tidyTrace": [
            {
                "children": [
                    {
                        "children": [
                            {
                                "children": [
                                    {
                                        "children": [],
                                        "depth": 2,
                                        "id": 3,
                                        "order": 3
                                    },
                                    {
                                        "children": [
                                            {
                                                "children": [
                                                    {
                                                        "children": [
                                                            {
                                                                "children": [],
                                                                "depth": 5,
                                                                "id": 7,
                                                                "order": 7
                                                            }
                                                        ],
                                                        "depth": 4,
                                                        "id": 6,
                                                        "order": 6
                                                    }
                                                ],
                                                "depth": 3,
                                                "id": 5,
                                                "order": 5
                                            }
                                        ],
                                        "depth": 2,
                                        "id": 4,
                                        "order": 4
                                    },
                                    {
                                        "children": [
                                            {
                                                "children": [
                                                    {
                                                        "children": [
                                                            {
                                                                "children": [
                                                                    {
                                                                        "children": [
                                                                            {
                                                                                "children": [],
                                                                                "depth": 7,
                                                                                "id": 16,
                                                                                "order": 16
                                                                            }
                                                                        ],
                                                                        "depth": 6,
                                                                        "id": 15,
                                                                        "order": 15
                                                                    },
                                                                    {
                                                                        "children": [
                                                                            {
                                                                                "children": [],
                                                                                "depth": 7,
                                                                                "id": 18,
                                                                                "order": 18
                                                                            },
                                                                            {
                                                                                "children": [],
                                                                                "depth": 7,
                                                                                "id": 19,
                                                                                "order": 19
                                                                            }
                                                                        ],
                                                                        "depth": 6,
                                                                        "id": 17,
                                                                        "order": 17
                                                                    },
                                                                    {
                                                                        "children": [],
                                                                        "depth": 6,
                                                                        "id": 20,
                                                                        "order": 20
                                                                    }
                                                                ],
                                                                "depth": 5,
                                                                "id": 13,
                                                                "order": 13
                                                            }
                                                        ],
                                                        "depth": 4,
                                                        "id": 12,
                                                        "order": 12
                                                    }
                                                ],
                                                "depth": 3,
                                                "id": 9,
                                                "order": 9
                                            }
                                        ],
                                        "depth": 2,
                                        "id": 8,
                                        "order": 8
                                    },
                                    {
                                        "children": [
                                            {
                                                "children": [
                                                    {
                                                        "children": [
                                                            {
                                                                "children": [],
                                                                "depth": 5,
                                                                "id": 24,
                                                                "order": 24
                                                            }
                                                        ],
                                                        "depth": 4,
                                                        "id": 23,
                                                        "order": 23
                                                    }
                                                ],
                                                "depth": 3,
                                                "id": 22,
                                                "order": 22
                                            }
                                        ],
                                        "depth": 2,
                                        "id": 21,
                                        "order": 21
                                    },
                                    {
                                        "children": [
                                            {
                                                "children": [],
                                                "depth": 3,
                                                "id": 26,
                                                "order": 26
                                            }
                                        ],
                                        "depth": 2,
                                        "id": 25,
                                        "order": 25
                                    },
                                    {
                                        "children": [
                                            {
                                                "children": [
                                                    {
                                                        "children": [],
                                                        "depth": 4,
                                                        "id": 31,
                                                        "order": 31
                                                    }
                                                ],
                                                "depth": 3,
                                                "id": 30,
                                                "order": 30
                                            }
                                        ],
                                        "depth": 2,
                                        "id": 29,
                                        "order": 29
                                    },
                                    {
                                        "children": [],
                                        "depth": 2,
                                        "id": 33,
                                        "order": 33
                                    }
                                ],
                                "depth": 1,
                                "id": 1,
                                "order": 1
                            }
                        ],
                        "depth": 0,
                        "id": 0,
                        "order": 0
                    }
                ],
                "depth": -1,
                "id": -1,
                "order": -1
            }
        ],
        "tidyTraceNodeCount": 27
    },
    "state_change": {
        "stateChanges": [
            {
                "address": "0x6982508145454ce325ddbe47a25d4ec3d2311933",
                "erc": "ERC-20",
                "slots": [
                    {
                        "current": "0xffffffffffffffffffffffffffffffffffffff99c1f14cac1ed9444d2f972ee5",
                        "key": "0xa4fcab4b3d3a54973f40d1e7fcb2fa6b6df1c3c3ed4737357fa36b4e9f0d59ac",
                        "prev": "0xffffffffffffffffffffffffffffffffffffff99c2382b17e26dd6fd6e2e22e5"
                    },
                    {
                        "current": "0x00000000000000000000000000000000000000066ca38eafaa908bb9deb60d5e",
                        "key": "0xd330d89cdd04aee2394d3770fdb76e861e5bf5af7f5638ebd8b9cb9dfa87520f",
                        "prev": "0x00000000000000000000000000000000000000066cea6d1b6e251e6a1d4d015e"
                    },
                    {
                        "current": "0x000000000000000000000000000000000000000001be60e41dda93cd3d016f5d",
                        "key": "0xe4b72ac3777ee4ee857d022ae3e6119d66eb8a9bc0152ecc478dc08280d1de87",
                        "prev": "0x000000000000000000000000000000000000000001be4f4afd9af0039479f63d"
                    },
                    {
                        "current": "0x000000000000000000000000000000000000000006a587436622b3d3cf28c233",
                        "key": "0x7202c711e4e334c4b4d1dd19bc48f842536164a1ddfd614f50823d8f7f2060b3",
                        "prev": "0x0000000000000000000000000000000000000000065eba70c2cdc4ed39194753"
                    }
                ],
                "storageVariables": [
                    {
                        "name": "_allowances",
                        "type": "mapping(address => mapping(address => uint256))",
                        "value": {
                            "pairs": [
                                {
                                    "key": "0x2008b6c3d07b061a84f790c035c2f6dc11a0be70",
                                    "value": {
                                        "pairs": [
                                            {
                                                "key": "0xdef1c0ded9bec7f1a1670819833240f027b25eff",
                                                "value": {
                                                    "current": "115792089237316195423570985008687907853269984657540085620581319521433554464485",
                                                    "prev": "115792089237316195423570985008687907853269984657540171295741946408843554464485",
                                                    "typeTag": 1
                                                }
                                            }
                                        ],
                                        "typeTag": 4
                                    }
                                }
                            ],
                            "typeTag": 4
                        }
                    },
                    {
                        "name": "_balances",
                        "type": "mapping(address => uint256)",
                        "value": {
                            "pairs": [
                                {
                                    "key": "0x2008b6c3d07b061a84f790c035c2f6dc11a0be70",
                                    "value": {
                                        "current": "508991084871399734941324807518",
                                        "prev": "509076760032026622351324807518",
                                        "typeTag": 1
                                    }
                                },
                                {
                                    "key": "0xad01c20d5886137e056775af56915de824c8fce5",
                                    "value": {
                                        "current": "539638470739323185361153885",
                                        "prev": "539555365833515104573453885",
                                        "typeTag": 1
                                    }
                                },
                                {
                                    "key": "0xf66ecdfc002b28f81ba2b32c04e8880018babe91",
                                    "value": {
                                        "current": "2057021581931167030190850611",
                                        "prev": "1971429526210087700978550611",
                                        "typeTag": 1
                                    }
                                }
                            ],
                            "typeTag": 4
                        }
                    }
                ]
            },
            {
                "address": "0xc02aaa39b223fe8d0a0e5c4f27ead9083c756cc2",
                "erc": "ERC-20",
                "slots": [
                    {
                        "current": "0x000000000000000000000000000000000000000000000011680e2d664c48422d",
                        "key": "0x6a4eff247b7329536ddf871ed3dd8d4d7d9d28d29ceac00d4f1f45bc6a92ef2c",
                        "prev": "0x00000000000000000000000000000000000000000000001167493785a1352f53"
                    }
                ],
                "storageVariables": [
                    {
                        "name": "balanceOf",
                        "type": "mapping(address => uint256)",
                        "value": {
                            "pairs": [
                                {
                                    "key": "0x2008b6c3d07b061a84f790c035c2f6dc11a0be70",
                                    "value": {
                                        "current": "321092629600070550061",
                                        "prev": "321037190159343628115",
                                        "typeTag": 1
                                    }
                                }
                            ],
                            "typeTag": 4
                        }
                    }
                ]
            },
            {
                "address": "0xdef1c0ded9bec7f1a1670819833240f027b25eff",
                "erc": "",
                "slots": [
                    {
                        "current": "0x00000000000000000000000000000000000000000000000000000000653e9b17",
                        "key": "0xd602230b462fc0468d33bc4b3a3603cba699bec501d6751dc986bb809ca1b08c",
                        "prev": "0x0000000000000000000000000000000000000000000000000000000064e7e0ea"
                    }
                ],
                "storageVariables": []
            }
        ]
    }
}