{
    "balance_change": {
        "balanceChanges": []
    },
    "profile": {
        "basic_info": {
            "baseFee": "16.798617459",
            "blockNumber": 15239132,
            "callData": "0xa22cb465000000000000000000000000969725b1e04820546d02043772ffb6de332d2bb10000000000000000000000000000000000000000000000000000000000000000",
            "debugEnable": true,
            "errorInfo": "",
            "eventCount": 1,
            "feeRecipient": "0x7f101fe45e6649a6fb8f3f8b43ed03d353f2b90c",
            "formatValue": "0",
            "gasLimit": 29591,
            "gasPrice": "18.298617459",
            "gasUsed": 24791,
            "intTxnCount": 0,
            "internalRevert": false,
            "internalRevertMessage": "",
            "isContractCreation": false,
            "isFlashloan": false,
            "maxFee": "22.389849494",
            "nonce": 18,
            "overwritedBlockNumber": -1,
            "priorityFee": "1.5",
            "receiver": "0xd30e98f68c1a42b1754ffe5de31841fb33d54870",
            "revertMessage": "",
            "sender": "0x54e91ddbf927db870799e70d7f7b4e9bc278fca9",
            "simulationEnable": true,
            "sourceTxnHash": "0x18331e30edd1942462e2e8c876c09377bce3ce0c2f337bcb0c6e008fe42eddaa",
            "status": true,
            "timestamp": "2022-07-29T18:54:31Z",
            "transactionFee": "0.000453641025426069",
            "txnHash": "0x18331e30edd1942462e2e8c876c09377bce3ce0c2f337bcb0c6e008fe42eddaa",
            "txnIndex": 74,
            "type": 2,
            "value": "0"
        },
        "fund_flow": [],
        "token_infos": [
            {
                "address": "0xc02aaa39b223fe8d0a0e5c4f27ead9083c756cc2",
                "decimals": 18
            },
            {
                "address": "0xeeeeeeeeeeeeeeeeeeeeeeeeeeeeeeeeeeeeeeee",
                "decimals": 18
            }
        ]
    },
    "address_label": {
        "labels": [
            {
                "address": "0x0000000000000000000000000000000000000001",
                "label": "Precompiled"
            },
            {
                "address": "0x0000000000000000000000000000000000000002",
                "label": "Precompiled"
            },
            {
                "address": "0x0000000000000000000000000000000000000003",
                "label": "Precompiled"
            },
            {
                "address": "0x0000000000000000000000000000000000000004",
                "label": "Precompiled"
            },
            {
                "address": "0xeeeeeeeeeeeeeeeeeeeeeeeeeeeeeeeeeeeeeeee",
                "label": "Ether"
            },
            {
                "address": "0xd30e98f68c1a42b1754ffe5de31841fb33d54870",
                "label": "trolltown"
            }
        ]
    },
    "trace": {
        "accountLabels": null,
        "dataMap": {
            "-1": {
                "invocation": {
                    "address": "0x54e91ddbf927db870799e70d7f7b4e9bc278fca9",
                    "callData": "",
                    "decodedMethod": null,
                    "errorInfo": "",
                    "fromAddress": "",
                    "gasUsed": 0,
                    "id": -1,
                    "methodDecoded": false,
                    "operation": "",
                    "output": "",
                    "revert": false,
                    "revertMessage": "",
                    "selector": "",
                    "status": false,
                    "value": ""
                },
                "nodeType": 0
            },
            "0": {
                "invocation": {
                    "address": "0xd30e98f68c1a42b1754ffe5de31841fb33d54870",
                    "callData": "0x000000000000000000000000969725b1e04820546d02043772ffb6de332d2bb10000000000000000000000000000000000000000000000000000000000000000",
                    "decodedMethod": {
                        "callParams": [
                            {
                                "name": "operator",
                                "type": "address",
                                "value": "0x969725b1e04820546d02043772ffb6de332d2bb1"
                            },
                            {
                                "name": "approved",
                                "type": "bool",
                                "value": false
                            }
                        ],
                        "constructorArguments": "",
                        "name": "setApprovalForAll",
                        "returnParams": [],
                        "signature": "setApprovalForAll(address,bool)"
                    },
                    "errorInfo": "",
                    "fromAddress": "0x54e91ddbf927db870799e70d7f7b4e9bc278fca9",
                    "gasUsed": 24791,
                    "id": 0,
                    "methodDecoded": true,
                    "operation": "CALL",
                    "output": "",
                    "revert": false,
                    "revertMessage": "",
                    "selector": "0xa22cb465",
                    "status": true,
                    "value": "0"
                },
                "nodeType": 0
            },
            "1": {
                "event": {
                    "contract": "0xd30e98f68c1a42b1754ffe5de31841fb33d54870",
                    "decodedLog": {
                        "name": "ApprovalForAll",
                        "params": [
                            {
                                "name": "owner",
                                "type": "address",
                                "value": "0x54e91ddbf927db870799e70d7f7b4e9bc278fca9"
                            },
                            {
                                "name": "operator",
                                "type": "address",
                                "value": "0x969725b1e04820546d02043772ffb6de332d2bb1"
                            },
                            {
                                "name": "approved",
                                "type": "bool",
                                "value": false
                            }
                        ],
                        "signature": "ApprovalForAll(address,address,bool)"
                    },
                    "id": 1,
                    "logData": "0x0000000000000000000000000000000000000000000000000000000000000000",
                    "logDecoded": true,
                    "operation": "EVENT",
                    "revert": false,
                    "status": true,
                    "topics": [
                        "0x17307eab39ab6107e8899845ad3d59bd9653f200f220920489ca2b5937696c31",
                        "0x00000000000000000000000054e91ddbf927db870799e70d7f7b4e9bc278fca9",
                        "0x000000000000000000000000969725b1e04820546d02043772ffb6de332d2bb1"
                    ]
                },
                "nodeType": 1
            }
        },
        "gasFlame": [
            {
                "children": [
                    {
                        "children": [
                            {
                                "children": [],
                                "depth": 0,
                                "name": "Initial Gas",
                                "value": 21560
                            },
                            {
                                "children": [],
                                "depth": 0,
                                "name": "Executed Gas",
                                "value": 8031
                            }
                        ],
                        "depth": -1,
                        "name": "Actual Gas Used",
                        "value": 24791
                    },
                    {
                        "children": [],
                        "depth": -1,
                        "name": "Refunded Gas",
                        "value": 4800
                    }
                ],
                "depth": -2,
                "name": "Total Gas",
                "value": 29591
            }
        ],
        "isConfirmed": true,
        "mainTrace": [
            {
                "children": [
                    {
                        "children": [
                            {
                                "children": [],
                                "depth": 1,
                                "id": 1,
                                "order": 1
                            }
                        ],
                        "depth": 0,
                        "id": 0,
                        "order": 0
                    }
                ],
                "depth": -1,
                "id": -1,
                "order": -1
            }
        ],
        "mainTraceNodeCount": 2,
        "parentIdMap": {
            "0": -1,
            "1": 0
        },
        "tidyTrace": [
            {
                "children": [
                    {
                        "children": [
                            {
                                "children": [],
                                "depth": 1,
                                "id": 1,
                                "order": 1
                            }
                        ],
                        "depth": 0,
                        "id": 0,
                        "order": 0
                    }
                ],
                "depth": -1,
                "id": -1,
                "order": -1
            }
        ],
        "tidyTraceNodeCount": 2
    },
    "state_change": {
        "stateChanges": [
            {
                "address": "0xd30e98f68c1a42b1754ffe5de31841fb33d54870",
                "erc": "ERC-721",
                "slots": [
                    {
                        "current": "0x0000000000000000000000000000000000000000000000000000000000000000",
                        "key": "0x71a15de925997cba8d0758c5491c8493403ff26c59f90c0f5c2d5dcc5b6abdd5",
                        "prev": "0x0000000000000000000000000000000000000000000000000000000000000001"
                    }
                ],
                "storageVariables": [
                    {
                        "name": "_operatorApprovals",
                        "type": "mapping(address => mapping(address => bool))",
                        "value": {
                            "pairs": [
                                {
                                    "key": "0x54e91ddbf927db870799e70d7f7b4e9bc278fca9",
                                    "value": {
                                        "pairs": [
                                            {
                                                "key": "0x969725b1e04820546d02043772ffb6de332d2bb1",
                                                "value": {
                                                    "current": "false",
                                                    "prev": "true",
                                                    "typeTag": 1
                                                }
                                            }
                                        ],
                                        "typeTag": 4
                                    }
                                }
                            ],
                            "typeTag": 4
                        }
                    }
                ]
            }
        ]
    }
}