{
    "balance_change": {
        "balanceChanges": [
            {
                "account": "0x03c8bd564f44d149bc38d06d2bec32b71c805066",
                "assets": [
                    {
                        "address": "0xb5fe099475d3030dde498c3bb6f3854f762a48ad",
                        "amount": "375.5",
                        "iconUrl": "",
                        "isERC1155": false,
                        "isERC721": false,
                        "sign": false,
                        "value": "7956.290707"
                    }
                ]
            },
            {
                "account": "0x1d9ccfec05ca9465aa87b50362661b928fb20ccd",
                "assets": [
                    {
                        "address": "0xb5fe099475d3030dde498c3bb6f3854f762a48ad",
                        "amount": "375.5",
                        "iconUrl": "",
                        "isERC1155": false,
                        "isERC721": false,
                        "sign": true,
                        "value": "7956.290707"
                    }
                ]
            }
        ]
    },
    "profile": {
        "basic_info": {
            "baseFee": "",
            "blockNumber": 12713521,
            "callData": "0xa9059cbb0000000000000000000000001d9ccfec05ca9465aa87b50362661b928fb20ccd0000000000000000000000000000000000000000000000145b1bfc84072e0000",
            "debugEnable": true,
            "errorInfo": "",
            "eventCount": 1,
            "feeRecipient": "0x829bd824b016326a401d083b33d092293333a830",
            "formatValue": "0",
            "gasLimit": 60000,
            "gasPrice": "25",
            "gasUsed": 52486,
            "intTxnCount": 0,
            "internalRevert": false,
            "internalRevertMessage": "",
            "isContractCreation": false,
            "isFlashloan": false,
            "maxFee": "",
            "nonce": 68831,
            "overwritedBlockNumber": -1,
            "priorityFee": "",
            "receiver": "0xb5fe099475d3030dde498c3bb6f3854f762a48ad",
            "revertMessage": "",
            "sender": "0x03c8bd564f44d149bc38d06d2bec32b71c805066",
            "simulationEnable": true,
            "sourceTxnHash": "0x18ad231df46f367b337b8503df132dce32c44543b03fc918a24bb6d5be011a63",
            "status": true,
            "timestamp": "2021-06-27T02:50:17Z",
            "transactionFee": "0.00131215",
            "txnHash": "0x18ad231df46f367b337b8503df132dce32c44543b03fc918a24bb6d5be011a63",
            "txnIndex": 62,
            "type": 0,
            "value": "0"
        },
        "fund_flow": [
            {
                "amount": "375.5",
                "from": "0x03c8bd564f44d149bc38d06d2bec32b71c805066",
                "id": 1,
                "isERC1155": false,
                "isERC721": false,
                "isReverted": false,
                "order": 1,
                "to": "0x1d9ccfec05ca9465aa87b50362661b928fb20ccd",
                "token": "0xb5fe099475d3030dde498c3bb6f3854f762a48ad"
            }
        ],
        "token_infos": [
            {
                "address": "0xc02aaa39b223fe8d0a0e5c4f27ead9083c756cc2",
                "decimals": 18
            },
            {
                "address": "0xeeeeeeeeeeeeeeeeeeeeeeeeeeeeeeeeeeeeeeee",
                "decimals": 18
            },
            {
                "address": "0xb5fe099475d3030dde498c3bb6f3854f762a48ad",
                "decimals": 18
            }
        ]
    },
    "address_label": {
        "labels": [
            {
                "address": "0x0000000000000000000000000000000000000001",
                "label": "Precompiled"
            },
            {
                "address": "0x0000000000000000000000000000000000000002",
                "label": "Precompiled"
            },
            {
                "address": "0x0000000000000000000000000000000000000003",
                "label": "Precompiled"
            },
            {
                "address": "0x0000000000000000000000000000000000000004",
                "label": "Precompiled"
            },
            {
                "address": "0xeeeeeeeeeeeeeeeeeeeeeeeeeeeeeeeeeeeeeeee",
                "label": "Ether"
            },
            {
                "address": "0xb5fe099475d3030dde498c3bb6f3854f762a48ad",
                "label": "Finiko: FNK Token"
            }
        ]
    },
    "trace": {
        "accountLabels": null,
        "dataMap": {
            "-1": {
                "invocation": {
                    "address": "0x03c8bd564f44d149bc38d06d2bec32b71c805066",
                    "callData": "",
                    "decodedMethod": null,
                    "errorInfo": "",
                    "fromAddress": "",
                    "gasUsed": 0,
                    "id": -1,
                    "methodDecoded": false,
                    "operation": "",
                    "output": "",
                    "revert": false,
                    "revertMessage": "",
                    "selector": "",
                    "status": false,
                    "value": ""
                },
                "nodeType": 0
            },
            "0": {
                "invocation": {
                    "address": "0xb5fe099475d3030dde498c3bb6f3854f762a48ad",
                    "callData": "0x0000000000000000000000001d9ccfec05ca9465aa87b50362661b928fb20ccd0000000000000000000000000000000000000000000000145b1bfc84072e0000",
                    "decodedMethod": {
                        "callParams": [
                            {
                                "name": "recipient",
                                "type": "address",
                                "value": "0x1d9ccfec05ca9465aa87b50362661b928fb20ccd"
                            },
                            {
                                "decimalAvailable": true,
                                "name": "amount",
                                "type": "uint256",
                                "value": "375,500,000,000,000,000,000"
                            }
                        ],
                        "constructorArguments": "",
                        "name": "transfer",
                        "returnParams": [
                            {
                                "name": "",
                                "type": "bool",
                                "value": true
                            }
                        ],
                        "signature": "transfer(address,uint256)"
                    },
                    "errorInfo": "",
                    "fromAddress": "0x03c8bd564f44d149bc38d06d2bec32b71c805066",
                    "gasUsed": 52486,
                    "id": 0,
                    "methodDecoded": true,
                    "operation": "CALL",
                    "output": "0x0000000000000000000000000000000000000000000000000000000000000001",
                    "revert": false,
                    "revertMessage": "",
                    "selector": "0xa9059cbb",
                    "status": true,
                    "value": "0"
                },
                "nodeType": 0
            },
            "1": {
                "event": {
                    "contract": "0xb5fe099475d3030dde498c3bb6f3854f762a48ad",
                    "decodedLog": {
                        "name": "Transfer",
                        "params": [
                            {
                                "name": "from",
                                "type": "address",
                                "value": "0x03c8bd564f44d149bc38d06d2bec32b71c805066"
                            },
                            {
                                "name": "to",
                                "type": "address",
                                "value": "0x1d9ccfec05ca9465aa87b50362661b928fb20ccd"
                            },
                            {
                                "decimalAvailable": true,
                                "name": "value",
                                "type": "uint256",
                                "value": "375,500,000,000,000,000,000"
                            }
                        ],
                        "signature": "Transfer(address,address,uint256)"
                    },
                    "id": 1,
                    "logData": "0x0000000000000000000000000000000000000000000000145b1bfc84072e0000",
                    "logDecoded": true,
                    "operation": "EVENT",
                    "revert": false,
                    "status": true,
                    "topics": [
                        "0xddf252ad1be2c89b69c2b068fc378daa952ba7f163c4a11628f55a4df523b3ef",
                        "0x00000000000000000000000003c8bd564f44d149bc38d06d2bec32b71c805066",
                        "0x0000000000000000000000001d9ccfec05ca9465aa87b50362661b928fb20ccd"
                    ]
                },
                "nodeType": 1
            }
        },
        "gasFlame": [
            {
                "children": [
                    {
                        "children": [
                            {
                                "children": [],
                                "depth": 0,
                                "name": "Initial Gas",
                                "value": 21644
                            },
                            {
                                "children": [],
                                "depth": 0,
                                "name": "Executed Gas",
                                "value": 30842
                            }
                        ],
                        "depth": -1,
                        "name": "Actual Gas Used",
                        "value": 52486
                    },
                    {
                        "children": [],
                        "depth": -1,
                        "name": "Refunded Gas",
                        "value": 0
                    }
                ],
                "depth": -2,
                "name": "Total Gas",
                "value": 52486
            }
        ],
        "isConfirmed": true,
        "mainTrace": [
            {
                "children": [
                    {
                        "children": [
                            {
                                "children": [],
                                "depth": 1,
                                "id": 1,
                                "order": 1
                            }
                        ],
                        "depth": 0,
                        "id": 0,
                        "order": 0
                    }
                ],
                "depth": -1,
                "id": -1,
                "order": -1
            }
        ],
        "mainTraceNodeCount": 2,
        "parentIdMap": {
            "0": -1,
            "1": 0
        },
        "tidyTrace": [
            {
                "children": [
                    {
                        "children": [
                            {
                                "children": [],
                                "depth": 1,
                                "id": 1,
                                "order": 1
                            }
                        ],
                        "depth": 0,
                        "id": 0,
                        "order": 0
                    }
                ],
                "depth": -1,
                "id": -1,
                "order": -1
            }
        ],
        "tidyTraceNodeCount": 2
    },
    "state_change": {
        "stateChanges": [
            {
                "address": "0xb5fe099475d3030dde498c3bb6f3854f762a48ad",
                "erc": "ERC-20",
                "slots": [
                    {
                        "current": "0x00000000000000000000000000000000000000000002481596a2de5d722b2b13",
                        "key": "0x0370facd2b6ec5a9a9ed8bda1de9cf636dfddeb971bee8a9c9aee188f4d97478",
                        "prev": "0x000000000000000000000000000000000000000000024829f1bedae179592b13"
                    },
                    {
                        "current": "0x0000000000000000000000000000000000000000000000145b1bfc84072e0000",
                        "key": "0x4b02bfbe4bb46406a4674a5627650a6b458eca579a7299fc50fe7742d69613af",
                        "prev": "0x0000000000000000000000000000000000000000000000000000000000000000"
                    }
                ],
                "storageVariables": [
                    {
                        "name": "_balances",
                        "type": "mapping(address => uint256)",
                        "value": {
                            "pairs": [
                                {
                                    "key": "0x03c8bd564f44d149bc38d06d2bec32b71c805066",
                                    "value": {
                                        "current": "2758260262103965550455571",
                                        "prev": "2758635762103965550455571",
                                        "typeTag": 1
                                    }
                                },
                                {
                                    "key": "0x1d9ccfec05ca9465aa87b50362661b928fb20ccd",
                                    "value": {
                                        "current": "375500000000000000000",
                                        "prev": "0",
                                        "typeTag": 1
                                    }
                                }
                            ],
                            "typeTag": 4
                        }
                    }
                ]
            }
        ]
    }
}