{
    "balance_change": {
        "balanceChanges": [
            {
                "account": "0x9a9a3ecbc45b2a37aa2d7bc77e55dc024f41c29a",
                "assets": [
                    {
                        "address": "0x95c5cd1f07e50073e42e902fc71359c9c90bbbab",
                        "amount": "491",
                        "iconUrl": "",
                        "isERC1155": false,
                        "isERC721": false,
                        "sign": false,
                        "value": "2217.034176"
                    }
                ]
            },
            {
                "account": "0x9e0e65bb03970109588f0b4e5ebcaba0d2deef0d",
                "assets": [
                    {
                        "address": "0x95c5cd1f07e50073e42e902fc71359c9c90bbbab",
                        "amount": "491",
                        "iconUrl": "",
                        "isERC1155": false,
                        "isERC721": false,
                        "sign": true,
                        "value": "2217.034176"
                    }
                ]
            }
        ]
    },
    "profile": {
        "basic_info": {
            "baseFee": "",
            "blockNumber": 11025930,
            "callData": "0xe2bbb158000000000000000000000000000000000000000000000000000000000000000600000000000000000000000000000000000000000000001a9dfe6a920ccc0000",
            "debugEnable": true,
            "errorInfo": "",
            "eventCount": 2,
            "feeRecipient": "0x829bd824b016326a401d083b33d092293333a830",
            "formatValue": "0",
            "gasLimit": 66976,
            "gasPrice": "37",
            "gasUsed": 56976,
            "intTxnCount": 1,
            "internalRevert": false,
            "internalRevertMessage": "",
            "isContractCreation": false,
            "isFlashloan": false,
            "maxFee": "",
            "nonce": 7,
            "overwritedBlockNumber": -1,
            "priorityFee": "",
            "receiver": "0x9e0e65bb03970109588f0b4e5ebcaba0d2deef0d",
            "revertMessage": "",
            "sender": "0x9a9a3ecbc45b2a37aa2d7bc77e55dc024f41c29a",
            "simulationEnable": true,
            "sourceTxnHash": "0x1972f20e9c582f6f989c2b23bbb16302d9992bcee2a9e0f96b97ddff61d7e63c",
            "status": true,
            "timestamp": "2020-10-10T05:54:53Z",
            "transactionFee": "0.002108112",
            "txnHash": "0x1972f20e9c582f6f989c2b23bbb16302d9992bcee2a9e0f96b97ddff61d7e63c",
            "txnIndex": 142,
            "type": 0,
            "value": "0"
        },
        "fund_flow": [
            {
                "amount": "491",
                "from": "0x9a9a3ecbc45b2a37aa2d7bc77e55dc024f41c29a",
                "id": 1,
                "isERC1155": false,
                "isERC721": false,
                "isReverted": false,
                "order": 1,
                "to": "0x9e0e65bb03970109588f0b4e5ebcaba0d2deef0d",
                "token": "0x95c5cd1f07e50073e42e902fc71359c9c90bbbab"
            }
        ],
        "token_infos": [
            {
                "address": "0x95c5cd1f07e50073e42e902fc71359c9c90bbbab",
                "decimals": 18
            },
            {
                "address": "0xc02aaa39b223fe8d0a0e5c4f27ead9083c756cc2",
                "decimals": 18
            },
            {
                "address": "0xeeeeeeeeeeeeeeeeeeeeeeeeeeeeeeeeeeeeeeee",
                "decimals": 18
            }
        ]
    },
    "address_label": {
        "labels": [
            {
                "address": "0x0000000000000000000000000000000000000001",
                "label": "Precompiled"
            },
            {
                "address": "0x0000000000000000000000000000000000000002",
                "label": "Precompiled"
            },
            {
                "address": "0x0000000000000000000000000000000000000003",
                "label": "Precompiled"
            },
            {
                "address": "0x0000000000000000000000000000000000000004",
                "label": "Precompiled"
            },
            {
                "address": "0xeeeeeeeeeeeeeeeeeeeeeeeeeeeeeeeeeeeeeeee",
                "label": "Ether"
            },
            {
                "address": "0x95c5cd1f07e50073e42e902fc71359c9c90bbbab",
                "label": "ACALA (ACALA)"
            }
        ]
    },
    "trace": {
        "accountLabels": null,
        "dataMap": {
            "-1": {
                "invocation": {
                    "address": "0x9a9a3ecbc45b2a37aa2d7bc77e55dc024f41c29a",
                    "callData": "",
                    "decodedMethod": null,
                    "errorInfo": "",
                    "fromAddress": "",
                    "gasUsed": 0,
                    "id": -1,
                    "methodDecoded": false,
                    "operation": "",
                    "output": "",
                    "revert": false,
                    "revertMessage": "",
                    "selector": "",
                    "status": false,
                    "value": ""
                },
                "nodeType": 0
            },
            "0": {
                "invocation": {
                    "address": "0x9e0e65bb03970109588f0b4e5ebcaba0d2deef0d",
                    "callData": "0x000000000000000000000000000000000000000000000000000000000000000600000000000000000000000000000000000000000000001a9dfe6a920ccc0000",
                    "decodedMethod": {
                        "callParams": [
                            {
                                "name": "_pid",
                                "type": "uint256",
                                "value": "6"
                            },
                            {
                                "name": "_amount",
                                "type": "uint256",
                                "value": "491,000,000,000,000,000,000"
                            }
                        ],
                        "constructorArguments": "",
                        "name": "deposit",
                        "returnParams": [],
                        "signature": "deposit(uint256,uint256)"
                    },
                    "errorInfo": "",
                    "fromAddress": "0x9a9a3ecbc45b2a37aa2d7bc77e55dc024f41c29a",
                    "gasUsed": 56976,
                    "id": 0,
                    "methodDecoded": true,
                    "operation": "CALL",
                    "output": "",
                    "revert": false,
                    "revertMessage": "",
                    "selector": "0xe2bbb158",
                    "status": true,
                    "value": "0"
                },
                "nodeType": 0
            },
            "1": {
                "invocation": {
                    "address": "0x95c5cd1f07e50073e42e902fc71359c9c90bbbab",
                    "callData": "0x0000000000000000000000009a9a3ecbc45b2a37aa2d7bc77e55dc024f41c29a0000000000000000000000009e0e65bb03970109588f0b4e5ebcaba0d2deef0d00000000000000000000000000000000000000000000001a9dfe6a920ccc0000",
                    "decodedMethod": {
                        "callParams": [
                            {
                                "name": "_from",
                                "type": "address",
                                "value": "0x9a9a3ecbc45b2a37aa2d7bc77e55dc024f41c29a"
                            },
                            {
                                "name": "_to",
                                "type": "address",
                                "value": "0x9e0e65bb03970109588f0b4e5ebcaba0d2deef0d"
                            },
                            {
                                "decimalAvailable": true,
                                "name": "_value",
                                "type": "uint256",
                                "value": "491,000,000,000,000,000,000"
                            }
                        ],
                        "constructorArguments": "",
                        "name": "transferFrom",
                        "returnParams": [
                            {
                                "name": "",
                                "type": "bool",
                                "value": true
                            }
                        ],
                        "signature": "transferFrom(address,address,uint256)"
                    },
                    "errorInfo": "",
                    "fromAddress": "0x9e0e65bb03970109588f0b4e5ebcaba0d2deef0d",
                    "gasUsed": 22693,
                    "id": 1,
                    "methodDecoded": true,
                    "operation": "CALL",
                    "output": "0x0000000000000000000000000000000000000000000000000000000000000001",
                    "revert": false,
                    "revertMessage": "",
                    "selector": "0x23b872dd",
                    "status": true,
                    "value": "0"
                },
                "nodeType": 0
            },
            "2": {
                "event": {
                    "contract": "0x95c5cd1f07e50073e42e902fc71359c9c90bbbab",
                    "decodedLog": {
                        "name": "Transfer",
                        "params": [
                            {
                                "name": "from",
                                "type": "address",
                                "value": "0x9a9a3ecbc45b2a37aa2d7bc77e55dc024f41c29a"
                            },
                            {
                                "name": "to",
                                "type": "address",
                                "value": "0x9e0e65bb03970109588f0b4e5ebcaba0d2deef0d"
                            },
                            {
                                "decimalAvailable": true,
                                "name": "value",
                                "type": "uint256",
                                "value": "491,000,000,000,000,000,000"
                            }
                        ],
                        "signature": "Transfer(address,address,uint256)"
                    },
                    "id": 2,
                    "logData": "0x00000000000000000000000000000000000000000000001a9dfe6a920ccc0000",
                    "logDecoded": true,
                    "operation": "EVENT",
                    "revert": false,
                    "status": true,
                    "topics": [
                        "0xddf252ad1be2c89b69c2b068fc378daa952ba7f163c4a11628f55a4df523b3ef",
                        "0x0000000000000000000000009a9a3ecbc45b2a37aa2d7bc77e55dc024f41c29a",
                        "0x0000000000000000000000009e0e65bb03970109588f0b4e5ebcaba0d2deef0d"
                    ]
                },
                "nodeType": 1
            },
            "3": {
                "event": {
                    "contract": "0x9e0e65bb03970109588f0b4e5ebcaba0d2deef0d",
                    "decodedLog": {
                        "name": "Deposit",
                        "params": [
                            {
                                "name": "user",
                                "type": "address",
                                "value": "0x9a9a3ecbc45b2a37aa2d7bc77e55dc024f41c29a"
                            },
                            {
                                "name": "pid",
                                "type": "uint256",
                                "value": "6"
                            },
                            {
                                "name": "amount",
                                "type": "uint256",
                                "value": "491,000,000,000,000,000,000"
                            }
                        ],
                        "signature": "Deposit(address,uint256,uint256)"
                    },
                    "id": 3,
                    "logData": "0x00000000000000000000000000000000000000000000001a9dfe6a920ccc0000",
                    "logDecoded": true,
                    "operation": "EVENT",
                    "revert": false,
                    "status": true,
                    "topics": [
                        "0x90890809c654f11d6e72a28fa60149770a0d11ec6c92319d6ceb2bb0a4ea1a15",
                        "0x0000000000000000000000009a9a3ecbc45b2a37aa2d7bc77e55dc024f41c29a",
                        "0x0000000000000000000000000000000000000000000000000000000000000006"
                    ]
                },
                "nodeType": 1
            }
        },
        "gasFlame": [
            {
                "children": [
                    {
                        "children": [
                            {
                                "children": [],
                                "depth": 0,
                                "name": "Initial Gas",
                                "value": 21416
                            },
                            {
                                "children": [
                                    {
                                        "children": [],
                                        "depth": 1,
                                        "name": "transferFrom",
                                        "value": 22693
                                    }
                                ],
                                "depth": 0,
                                "name": "Executed Gas",
                                "value": 35560
                            }
                        ],
                        "depth": -1,
                        "name": "Actual Gas Used",
                        "value": 56976
                    },
                    {
                        "children": [],
                        "depth": -1,
                        "name": "Refunded Gas",
                        "value": 0
                    }
                ],
                "depth": -2,
                "name": "Total Gas",
                "value": 56976
            }
        ],
        "isConfirmed": true,
        "mainTrace": [
            {
                "children": [
                    {
                        "children": [
                            {
                                "children": [
                                    {
                                        "children": [],
                                        "depth": 2,
                                        "id": 2,
                                        "order": 2
                                    }
                                ],
                                "depth": 1,
                                "id": 1,
                                "order": 1
                            },
                            {
                                "children": [],
                                "depth": 1,
                                "id": 3,
                                "order": 3
                            }
                        ],
                        "depth": 0,
                        "id": 0,
                        "order": 0
                    }
                ],
                "depth": -1,
                "id": -1,
                "order": -1
            }
        ],
        "mainTraceNodeCount": 4,
        "parentIdMap": {
            "0": -1,
            "1": 0,
            "2": 1,
            "3": 0
        },
        "tidyTrace": [
            {
                "children": [
                    {
                        "children": [
                            {
                                "children": [
                                    {
                                        "children": [],
                                        "depth": 2,
                                        "id": 2,
                                        "order": 2
                                    }
                                ],
                                "depth": 1,
                                "id": 1,
                                "order": 1
                            },
                            {
                                "children": [],
                                "depth": 1,
                                "id": 3,
                                "order": 3
                            }
                        ],
                        "depth": 0,
                        "id": 0,
                        "order": 0
                    }
                ],
                "depth": -1,
                "id": -1,
                "order": -1
            }
        ],
        "tidyTraceNodeCount": 4
    },
    "state_change": {
        "stateChanges": [
            {
                "address": "0x95c5cd1f07e50073e42e902fc71359c9c90bbbab",
                "erc": "ERC-20",
                "slots": [
                    {
                        "current": "0x00000000000000000000000000000000000000000000000007faedfb40522318",
                        "key": "0x279e01cc0b21305d33b52d8db29218f5804c842ff8485f561b5b57036590f9ef",
                        "prev": "0x00000000000000000000000000000000000000000000001aa5f9588d4d1e2318"
                    },
                    {
                        "current": "0x00000000000000000000000000000000000000000000366c5dd1135b83070be9",
                        "key": "0xb0cf7cf3d5066efac2812a6e28f6393f7f7347db4783a7478185ec597c43087f",
                        "prev": "0x000000000000000000000000000000000000000000003651bfd2a8c9763b0be9"
                    },
                    {
                        "current": "0xffffffffffffffffffffffffffffffffffffffffffffff8854c88dd61531ffff",
                        "key": "0x8ef20bdbfb18bffeba608e009206518ea85b7616e211e36bfc2ff8d076521937",
                        "prev": "0xffffffffffffffffffffffffffffffffffffffffffffffa2f2c6f86821fdffff"
                    }
                ],
                "storageVariables": [
                    {
                        "name": "balances",
                        "type": "mapping(address => uint256)",
                        "value": {
                            "pairs": [
                                {
                                    "key": "0x9a9a3ecbc45b2a37aa2d7bc77e55dc024f41c29a",
                                    "value": {
                                        "current": "575033565814858520",
                                        "prev": "491575033565814858520",
                                        "typeTag": 1
                                    }
                                },
                                {
                                    "key": "0x9e0e65bb03970109588f0b4e5ebcaba0d2deef0d",
                                    "value": {
                                        "current": "257006798640720894168041",
                                        "prev": "256515798640720894168041",
                                        "typeTag": 1
                                    }
                                }
                            ],
                            "typeTag": 4
                        }
                    },
                    {
                        "name": "allowed",
                        "type": "mapping(address => mapping(address => uint256))",
                        "value": {
                            "pairs": [
                                {
                                    "key": "0x9a9a3ecbc45b2a37aa2d7bc77e55dc024f41c29a",
                                    "value": {
                                        "pairs": [
                                            {
                                                "key": "0x9e0e65bb03970109588f0b4e5ebcaba0d2deef0d",
                                                "value": {
                                                    "current": "115792089237316195423570985008687907853269984665640564037250084007913129639935",
                                                    "prev": "115792089237316195423570985008687907853269984665640564037741084007913129639935",
                                                    "typeTag": 1
                                                }
                                            }
                                        ],
                                        "typeTag": 4
                                    }
                                }
                            ],
                            "typeTag": 4
                        }
                    }
                ]
            },
            {
                "address": "0x9e0e65bb03970109588f0b4e5ebcaba0d2deef0d",
                "erc": "",
                "slots": [
                    {
                        "current": "0x000000000000000000000000000000000000000000000077ab377229eace0000",
                        "key": "0x6d6bc3322e3924feaef794a580ae61619edaa769abc77ee8426425b647a42237",
                        "prev": "0x00000000000000000000000000000000000000000000005d0d390797de020000"
                    }
                ],
                "storageVariables": []
            }
        ]
    }
}