{
    "balance_change": {
        "balanceChanges": [
            {
                "account": "0x65eafa1044a67d66b0f4f045d8595afaeb0d4239",
                "assets": [
                    {
                        "address": "0xeeeeeeeeeeeeeeeeeeeeeeeeeeeeeeeeeeeeeeee",
                        "amount": "0.05",
                        "iconUrl": "https://assets.blocksec.com/image/1663669189317-3.png",
                        "isERC1155": false,
                        "isERC721": false,
                        "sign": false,
                        "value": "12.041564200000000539"
                    }
                ]
            },
            {
                "account": "0xf4ff7cc061f6051309322881a9d50f9a1cd11ec0",
                "assets": [
                    {
                        "address": "0xeeeeeeeeeeeeeeeeeeeeeeeeeeeeeeeeeeeeeeee",
                        "amount": "0.05",
                        "iconUrl": "https://assets.blocksec.com/image/1663669189317-3.png",
                        "isERC1155": false,
                        "isERC721": false,
                        "sign": true,
                        "value": "12.041564200000000539"
                    }
                ]
            }
        ]
    },
    "profile": {
        "basic_info": {
            "baseFee": "",
            "blockNumber": 10528134,
            "callData": "0x7d02722f00000000000000000000000000000000000000000000000000000000000000010000000000000000000000000000000000000000000000000000000000000002",
            "debugEnable": true,
            "errorInfo": "",
            "eventCount": 3,
            "feeRecipient": "0x5a0b54d5dc17e0aadc383d2db43b0a0d3e029c4c",
            "formatValue": "0.05",
            "gasLimit": 175000,
            "gasPrice": "80",
            "gasUsed": 89007,
            "intTxnCount": 1,
            "internalRevert": false,
            "internalRevertMessage": "",
            "isContractCreation": false,
            "isFlashloan": false,
            "maxFee": "",
            "nonce": 4,
            "overwritedBlockNumber": -1,
            "priorityFee": "",
            "receiver": "0x9047237b16c918d94db3d1a9a86d7a2a605cdfe7",
            "revertMessage": "",
            "sender": "0x65eafa1044a67d66b0f4f045d8595afaeb0d4239",
            "simulationEnable": true,
            "sourceTxnHash": "0x19b9a7e1f3c649bd1bbd671050062465e4958f1f321b892608c109b24e71c2c8",
            "status": true,
            "timestamp": "2020-07-25T10:45:40Z",
            "transactionFee": "0.00712056",
            "txnHash": "0x19b9a7e1f3c649bd1bbd671050062465e4958f1f321b892608c109b24e71c2c8",
            "txnIndex": 104,
            "type": 0,
            "value": "50000000000000000"
        },
        "fund_flow": [
            {
                "amount": "0.05",
                "from": "0x65eafa1044a67d66b0f4f045d8595afaeb0d4239",
                "id": 1,
                "isERC1155": false,
                "isERC721": false,
                "isReverted": false,
                "order": 1,
                "to": "0x9047237b16c918d94db3d1a9a86d7a2a605cdfe7",
                "token": "0xeeeeeeeeeeeeeeeeeeeeeeeeeeeeeeeeeeeeeeee"
            },
            {
                "amount": "0.05",
                "from": "0x9047237b16c918d94db3d1a9a86d7a2a605cdfe7",
                "id": 2,
                "isERC1155": false,
                "isERC721": false,
                "isReverted": false,
                "order": 2,
                "to": "0xf4ff7cc061f6051309322881a9d50f9a1cd11ec0",
                "token": "0xeeeeeeeeeeeeeeeeeeeeeeeeeeeeeeeeeeeeeeee"
            }
        ],
        "token_infos": [
            {
                "address": "0xc02aaa39b223fe8d0a0e5c4f27ead9083c756cc2",
                "decimals": 18
            },
            {
                "address": "0xeeeeeeeeeeeeeeeeeeeeeeeeeeeeeeeeeeeeeeee",
                "decimals": 18
            }
        ]
    },
    "address_label": {
        "labels": [
            {
                "address": "0xeeeeeeeeeeeeeeeeeeeeeeeeeeeeeeeeeeeeeeee",
                "label": "Ether"
            },
            {
                "address": "0x9047237b16c918d94db3d1a9a86d7a2a605cdfe7",
                "label": "LionsShare.io"
            },
            {
                "address": "0x0000000000000000000000000000000000000001",
                "label": "Precompiled"
            },
            {
                "address": "0x0000000000000000000000000000000000000002",
                "label": "Precompiled"
            },
            {
                "address": "0x0000000000000000000000000000000000000003",
                "label": "Precompiled"
            },
            {
                "address": "0x0000000000000000000000000000000000000004",
                "label": "Precompiled"
            }
        ]
    },
    "trace": {
        "accountLabels": null,
        "dataMap": {
            "-1": {
                "invocation": {
                    "address": "0x65eafa1044a67d66b0f4f045d8595afaeb0d4239",
                    "callData": "",
                    "decodedMethod": null,
                    "errorInfo": "",
                    "fromAddress": "",
                    "gasUsed": 0,
                    "id": -1,
                    "methodDecoded": false,
                    "operation": "",
                    "output": "",
                    "revert": false,
                    "revertMessage": "",
                    "selector": "",
                    "status": false,
                    "value": ""
                },
                "nodeType": 0
            },
            "0": {
                "invocation": {
                    "address": "0x9047237b16c918d94db3d1a9a86d7a2a605cdfe7",
                    "callData": "0x00000000000000000000000000000000000000000000000000000000000000010000000000000000000000000000000000000000000000000000000000000002",
                    "decodedMethod": {
                        "callParams": [
                            {
                                "name": "_matrix",
                                "type": "uint8",
                                "value": "1"
                            },
                            {
                                "name": "_level",
                                "type": "uint8",
                                "value": "2"
                            }
                        ],
                        "constructorArguments": "",
                        "name": "purchaseLevel",
                        "returnParams": [],
                        "signature": "purchaseLevel(uint8,uint8)"
                    },
                    "errorInfo": "",
                    "fromAddress": "0x65eafa1044a67d66b0f4f045d8595afaeb0d4239",
                    "gasUsed": 89007,
                    "id": 0,
                    "methodDecoded": true,
                    "operation": "CALL",
                    "output": "",
                    "revert": false,
                    "revertMessage": "",
                    "selector": "0x7d02722f",
                    "status": true,
                    "value": "0.05"
                },
                "nodeType": 0
            },
            "1": {
                "event": {
                    "contract": "0x9047237b16c918d94db3d1a9a86d7a2a605cdfe7",
                    "decodedLog": {
                        "name": "Upgrade",
                        "params": [
                            {
                                "name": "member",
                                "type": "address",
                                "value": "0x65eafa1044a67d66b0f4f045d8595afaeb0d4239"
                            },
                            {
                                "name": "sponsor",
                                "type": "address",
                                "value": "0xf4ff7cc061f6051309322881a9d50f9a1cd11ec0"
                            },
                            {
                                "name": "matrix",
                                "type": "uint8",
                                "value": "1"
                            },
                            {
                                "name": "level",
                                "type": "uint8",
                                "value": "2"
                            }
                        ],
                        "signature": "Upgrade(address,address,uint8,uint8)"
                    },
                    "id": 1,
                    "logData": "0x00000000000000000000000065eafa1044a67d66b0f4f045d8595afaeb0d4239000000000000000000000000f4ff7cc061f6051309322881a9d50f9a1cd11ec000000000000000000000000000000000000000000000000000000000000000010000000000000000000000000000000000000000000000000000000000000002",
                    "logDecoded": true,
                    "operation": "EVENT",
                    "revert": false,
                    "status": true,
                    "topics": [
                        "0x18a92df19fd94d6cfff209966673a5ca05a1c8e2bb68e097fce2bdc2ed811119"
                    ]
                },
                "nodeType": 1
            },
            "2": {
                "event": {
                    "contract": "0x9047237b16c918d94db3d1a9a86d7a2a605cdfe7",
                    "decodedLog": {
                        "name": "PlacementL1",
                        "params": [
                            {
                                "name": "member",
                                "type": "address",
                                "value": "0x65eafa1044a67d66b0f4f045d8595afaeb0d4239"
                            },
                            {
                                "name": "sponsor",
                                "type": "address",
                                "value": "0xf4ff7cc061f6051309322881a9d50f9a1cd11ec0"
                            },
                            {
                                "name": "level",
                                "type": "uint8",
                                "value": "2"
                            },
                            {
                                "name": "placement",
                                "type": "uint8",
                                "value": "1"
                            },
                            {
                                "name": "passup",
                                "type": "bool",
                                "value": false
                            }
                        ],
                        "signature": "PlacementL1(address,address,uint8,uint8,bool)"
                    },
                    "id": 2,
                    "logData": "0x00000000000000000000000065eafa1044a67d66b0f4f045d8595afaeb0d4239000000000000000000000000f4ff7cc061f6051309322881a9d50f9a1cd11ec0000000000000000000000000000000000000000000000000000000000000000200000000000000000000000000000000000000000000000000000000000000010000000000000000000000000000000000000000000000000000000000000000",
                    "logDecoded": true,
                    "operation": "EVENT",
                    "revert": false,
                    "status": true,
                    "topics": [
                        "0x3177570e9575b071562484c332319d7abd50dd64dae2cc34a42ff5d65264ce6d"
                    ]
                },
                "nodeType": 1
            },
            "3": {
                "event": {
                    "contract": "0x9047237b16c918d94db3d1a9a86d7a2a605cdfe7",
                    "decodedLog": {
                        "name": "FundsPayout",
                        "params": [
                            {
                                "name": "member",
                                "type": "address",
                                "value": "0xf4ff7cc061f6051309322881a9d50f9a1cd11ec0"
                            },
                            {
                                "name": "payoutFrom",
                                "type": "address",
                                "value": "0x65eafa1044a67d66b0f4f045d8595afaeb0d4239"
                            },
                            {
                                "name": "matrix",
                                "type": "uint8",
                                "value": "1"
                            },
                            {
                                "name": "level",
                                "type": "uint8",
                                "value": "2"
                            }
                        ],
                        "signature": "FundsPayout(address,address,uint8,uint8)"
                    },
                    "id": 3,
                    "logData": "0x00000000000000000000000065eafa1044a67d66b0f4f045d8595afaeb0d423900000000000000000000000000000000000000000000000000000000000000010000000000000000000000000000000000000000000000000000000000000002",
                    "logDecoded": true,
                    "operation": "EVENT",
                    "revert": false,
                    "status": true,
                    "topics": [
                        "0x859f8e4639bbeb354f6ae9358c3af9b160b03299dd61675031305d65ca3db5ca",
                        "0x000000000000000000000000f4ff7cc061f6051309322881a9d50f9a1cd11ec0"
                    ]
                },
                "nodeType": 1
            },
            "4": {
                "invocation": {
                    "address": "0xf4ff7cc061f6051309322881a9d50f9a1cd11ec0",
                    "callData": "0x",
                    "decodedMethod": null,
                    "errorInfo": "",
                    "fromAddress": "0x9047237b16c918d94db3d1a9a86d7a2a605cdfe7",
                    "gasUsed": 0,
                    "id": 4,
                    "methodDecoded": false,
                    "operation": "CALL",
                    "output": "",
                    "revert": false,
                    "revertMessage": "",
                    "selector": "fallback",
                    "status": true,
                    "value": "0.05"
                },
                "nodeType": 0
            }
        },
        "gasFlame": [
            {
                "children": [
                    {
                        "children": [
                            {
                                "children": [],
                                "depth": 0,
                                "name": "Initial Gas",
                                "value": 21344
                            },
                            {
                                "children": [
                                    {
                                        "children": [],
                                        "depth": 1,
                                        "name": "fallback",
                                        "value": 0
                                    }
                                ],
                                "depth": 0,
                                "name": "Executed Gas",
                                "value": 71863
                            }
                        ],
                        "depth": -1,
                        "name": "Actual Gas Used",
                        "value": 89007
                    },
                    {
                        "children": [],
                        "depth": -1,
                        "name": "Refunded Gas",
                        "value": 4200
                    }
                ],
                "depth": -2,
                "name": "Total Gas",
                "value": 93207
            }
        ],
        "isConfirmed": true,
        "mainTrace": [
            {
                "children": [
                    {
                        "children": [
                            {
                                "children": [],
                                "depth": 1,
                                "id": 1,
                                "order": 1
                            },
                            {
                                "children": [],
                                "depth": 1,
                                "id": 2,
                                "order": 2
                            },
                            {
                                "children": [],
                                "depth": 1,
                                "id": 3,
                                "order": 3
                            },
                            {
                                "children": [],
                                "depth": 1,
                                "id": 4,
                                "order": 4
                            }
                        ],
                        "depth": 0,
                        "id": 0,
                        "order": 0
                    }
                ],
                "depth": -1,
                "id": -1,
                "order": -1
            }
        ],
        "mainTraceNodeCount": 5,
        "parentIdMap": {
            "0": -1,
            "1": 0,
            "2": 0,
            "3": 0,
            "4": 0
        },
        "tidyTrace": [
            {
                "children": [
                    {
                        "children": [
                            {
                                "children": [],
                                "depth": 1,
                                "id": 1,
                                "order": 1
                            },
                            {
                                "children": [],
                                "depth": 1,
                                "id": 2,
                                "order": 2
                            },
                            {
                                "children": [],
                                "depth": 1,
                                "id": 3,
                                "order": 3
                            },
                            {
                                "children": [],
                                "depth": 1,
                                "id": 4,
                                "order": 4
                            }
                        ],
                        "depth": 0,
                        "id": 0,
                        "order": 0
                    }
                ],
                "depth": -1,
                "id": -1,
                "order": -1
            }
        ],
        "tidyTraceNodeCount": 5
    },
    "state_change": {
        "stateChanges": [
            {
                "address": "0x9047237b16c918d94db3d1a9a86d7a2a605cdfe7",
                "erc": "",
                "slots": [
                    {
                        "current": "0x0000000000000000000000000000000000000000000000000000000000000102",
                        "key": "0x703ab3a3b21dad45cd551992ff0a51660547bfa1f29870fd614032eef53ac76a",
                        "prev": "0x0000000000000000000000000000000000000000000000000000000000000101"
                    },
                    {
                        "current": "0x000000f4ff7cc061f6051309322881a9d50f9a1cd11ec0000000000000000000",
                        "key": "0x525a4177c9ec72eafcea0b1bc9ad24b839d24b83c2ac5a297f589e2feb6385ea",
                        "prev": "0x0000000000000000000000000000000000000000000000000000000000000000"
                    },
                    {
                        "current": "0x0000009b180ecb9ce1db4949b018aa6a80a7446209d23d010000000000000001",
                        "key": "0x98ef25de71aad1f8fe3c1388c2cd304766fcfffca796b18137cf7963f329b113",
                        "prev": "0x0000009b180ecb9ce1db4949b018aa6a80a7446209d23d000000000000000000"
                    }
                ],
                "storageVariables": [
                    {
                        "name": "members",
                        "type": "mapping(address => struct LionShare.Account)",
                        "value": {
                            "pairs": [
                                {
                                    "key": "0x65eafa1044a67d66b0f4f045d8595afaeb0d4239",
                                    "value": {
                                        "fields": [
                                            {
                                                "name": "activeLevel",
                                                "type": "uint8[]",
                                                "value": {
                                                    "elemType": "uint8",
                                                    "elems": [
                                                        {
                                                            "index": 0,
                                                            "value": {
                                                                "current": "2",
                                                                "prev": "1",
                                                                "typeTag": 1
                                                            }
                                                        },
                                                        {
                                                            "index": 1,
                                                            "value": {
                                                                "current": "1",
                                                                "prev": "1",
                                                                "typeTag": 1
                                                            }
                                                        }
                                                    ],
                                                    "typeTag": 2
                                                }
                                            },
                                            {
                                                "name": "x31Positions",
                                                "type": "mapping(uint8 => struct LionShare.L1)",
                                                "value": {
                                                    "pairs": [
                                                        {
                                                            "key": "2",
                                                            "value": {
                                                                "fields": [
                                                                    {
                                                                        "name": "directSales",
                                                                        "type": "uint32",
                                                                        "value": {
                                                                            "current": "0",
                                                                            "prev": "0",
                                                                            "typeTag": 1
                                                                        }
                                                                    },
                                                                    {
                                                                        "name": "cycles",
                                                                        "type": "uint16",
                                                                        "value": {
                                                                            "current": "0",
                                                                            "prev": "0",
                                                                            "typeTag": 1
                                                                        }
                                                                    },
                                                                    {
                                                                        "name": "passup",
                                                                        "type": "uint8",
                                                                        "value": {
                                                                            "current": "0",
                                                                            "prev": "0",
                                                                            "typeTag": 1
                                                                        }
                                                                    },
                                                                    {
                                                                        "name": "reEntryCheck",
                                                                        "type": "uint8",
                                                                        "value": {
                                                                            "current": "0",
                                                                            "prev": "0",
                                                                            "typeTag": 1
                                                                        }
                                                                    },
                                                                    {
                                                                        "name": "placement",
                                                                        "type": "uint8",
                                                                        "value": {
                                                                            "current": "0",
                                                                            "prev": "0",
                                                                            "typeTag": 1
                                                                        }
                                                                    },
                                                                    {
                                                                        "name": "sponsor",
                                                                        "type": "address",
                                                                        "value": {
                                                                            "current": "0xf4ff7cc061f6051309322881a9d50f9a1cd11ec0",
                                                                            "prev": "0x0000000000000000000000000000000000000000",
                                                                            "typeTag": 1
                                                                        }
                                                                    }
                                                                ],
                                                                "typeTag": 3
                                                            }
                                                        }
                                                    ],
                                                    "typeTag": 4
                                                }
                                            }
                                        ],
                                        "typeTag": 3
                                    }
                                },
                                {
                                    "key": "0xf4ff7cc061f6051309322881a9d50f9a1cd11ec0",
                                    "value": {
                                        "fields": [
                                            {
                                                "name": "x31Positions",
                                                "type": "mapping(uint8 => struct LionShare.L1)",
                                                "value": {
                                                    "pairs": [
                                                        {
                                                            "key": "2",
                                                            "value": {
                                                                "fields": [
                                                                    {
                                                                        "name": "directSales",
                                                                        "type": "uint32",
                                                                        "value": {
                                                                            "current": "1",
                                                                            "prev": "0",
                                                                            "typeTag": 1
                                                                        }
                                                                    },
                                                                    {
                                                                        "name": "cycles",
                                                                        "type": "uint16",
                                                                        "value": {
                                                                            "current": "0",
                                                                            "prev": "0",
                                                                            "typeTag": 1
                                                                        }
                                                                    },
                                                                    {
                                                                        "name": "passup",
                                                                        "type": "uint8",
                                                                        "value": {
                                                                            "current": "0",
                                                                            "prev": "0",
                                                                            "typeTag": 1
                                                                        }
                                                                    },
                                                                    {
                                                                        "name": "reEntryCheck",
                                                                        "type": "uint8",
                                                                        "value": {
                                                                            "current": "0",
                                                                            "prev": "0",
                                                                            "typeTag": 1
                                                                        }
                                                                    },
                                                                    {
                                                                        "name": "placement",
                                                                        "type": "uint8",
                                                                        "value": {
                                                                            "current": "1",
                                                                            "prev": "0",
                                                                            "typeTag": 1
                                                                        }
                                                                    },
                                                                    {
                                                                        "name": "sponsor",
                                                                        "type": "address",
                                                                        "value": {
                                                                            "current": "0x9b180ecb9ce1db4949b018aa6a80a7446209d23d",
                                                                            "prev": "0x9b180ecb9ce1db4949b018aa6a80a7446209d23d",
                                                                            "typeTag": 1
                                                                        }
                                                                    }
                                                                ],
                                                                "typeTag": 3
                                                            }
                                                        }
                                                    ],
                                                    "typeTag": 4
                                                }
                                            }
                                        ],
                                        "typeTag": 3
                                    }
                                }
                            ],
                            "typeTag": 4
                        }
                    }
                ]
            }
        ]
    }
}