{
    "balance_change": {
        "balanceChanges": [
            {
                "account": "0x599e4f6a0b24af263b212fb731b733309a201c28",
                "assets": [
                    {
                        "address": "0x198065e69a86cb8a9154b333aad8efe7a3c256f8",
                        "amount": "185,917.704654844465160493",
                        "iconUrl": "",
                        "isERC1155": false,
                        "isERC721": false,
                        "sign": false,
                        "value": "1010.016038"
                    }
                ]
            },
            {
                "account": "0x75e89d5979e4f6fba9f97c104c2f0afb3f1dcb88",
                "assets": [
                    {
                        "address": "0x198065e69a86cb8a9154b333aad8efe7a3c256f8",
                        "amount": "185,917.704654844465160493",
                        "iconUrl": "",
                        "isERC1155": false,
                        "isERC721": false,
                        "sign": true,
                        "value": "1010.016038"
                    }
                ]
            }
        ]
    },
    "profile": {
        "basic_info": {
            "baseFee": "13.48689961",
            "blockNumber": 17551431,
            "callData": "0xa9059cbb00000000000000000000000075e89d5979e4f6fba9f97c104c2f0afb3f1dcb8800000000000000000000000000000000000000000000275e9e74755d786ea12d",
            "debugEnable": true,
            "errorInfo": "",
            "eventCount": 1,
            "feeRecipient": "0x388c818ca8b9251b393131c08a736a67ccb19297",
            "formatValue": "0",
            "gasLimit": 92998,
            "gasPrice": "21",
            "gasUsed": 57199,
            "intTxnCount": 0,
            "internalRevert": false,
            "internalRevertMessage": "",
            "isContractCreation": false,
            "isFlashloan": false,
            "maxFee": "",
            "nonce": 5009,
            "overwritedBlockNumber": -1,
            "priorityFee": "",
            "receiver": "0x198065e69a86cb8a9154b333aad8efe7a3c256f8",
            "revertMessage": "",
            "sender": "0x599e4f6a0b24af263b212fb731b733309a201c28",
            "simulationEnable": true,
            "sourceTxnHash": "0x1914ab594a8d8341e72a8f3176fc9397e3372773230b3cc607bc5aa1638f3fbd",
            "status": true,
            "timestamp": "2023-06-24T19:24:23Z",
            "transactionFee": "0.001201179",
            "txnHash": "0x1914ab594a8d8341e72a8f3176fc9397e3372773230b3cc607bc5aa1638f3fbd",
            "txnIndex": 6,
            "type": 0,
            "value": "0"
        },
        "fund_flow": [
            {
                "amount": "185,917.704654844465160493",
                "from": "0x599e4f6a0b24af263b212fb731b733309a201c28",
                "id": 1,
                "isERC1155": false,
                "isERC721": false,
                "isReverted": false,
                "order": 1,
                "to": "0x75e89d5979e4f6fba9f97c104c2f0afb3f1dcb88",
                "token": "0x198065e69a86cb8a9154b333aad8efe7a3c256f8"
            }
        ],
        "token_infos": [
            {
                "address": "0x198065e69a86cb8a9154b333aad8efe7a3c256f8",
                "decimals": 18
            },
            {
                "address": "0xc02aaa39b223fe8d0a0e5c4f27ead9083c756cc2",
                "decimals": 18
            },
            {
                "address": "0xeeeeeeeeeeeeeeeeeeeeeeeeeeeeeeeeeeeeeeee",
                "decimals": 18
            }
        ]
    },
    "address_label": {
        "labels": [
            {
                "address": "0x599e4f6a0b24af263b212fb731b733309a201c28",
                "label": "MEXC"
            },
            {
                "address": "0x75e89d5979e4f6fba9f97c104c2f0afb3f1dcb88",
                "label": "MEXC 1"
            },
            {
                "address": "0x198065e69a86cb8a9154b333aad8efe7a3c256f8",
                "label": "Koyo: KOY Token"
            },
            {
                "address": "0x0000000000000000000000000000000000000003",
                "label": "Precompiled"
            },
            {
                "address": "0x0000000000000000000000000000000000000004",
                "label": "Precompiled"
            },
            {
                "address": "0xeeeeeeeeeeeeeeeeeeeeeeeeeeeeeeeeeeeeeeee",
                "label": "Ether"
            },
            {
                "address": "0x388c818ca8b9251b393131c08a736a67ccb19297",
                "label": "LidoExecutionLayerRewardsVault"
            },
            {
                "address": "0x0000000000000000000000000000000000000001",
                "label": "Precompiled"
            },
            {
                "address": "0x0000000000000000000000000000000000000002",
                "label": "Precompiled"
            }
        ]
    },
    "trace": {
        "accountLabels": null,
        "dataMap": {
            "-1": {
                "invocation": {
                    "address": "0x599e4f6a0b24af263b212fb731b733309a201c28",
                    "callData": "",
                    "decodedMethod": null,
                    "errorInfo": "",
                    "fromAddress": "",
                    "gasUsed": 0,
                    "id": -1,
                    "methodDecoded": false,
                    "operation": "",
                    "output": "",
                    "revert": false,
                    "revertMessage": "",
                    "selector": "",
                    "status": false,
                    "value": ""
                },
                "nodeType": 0
            },
            "0": {
                "invocation": {
                    "address": "0x198065e69a86cb8a9154b333aad8efe7a3c256f8",
                    "callData": "0x00000000000000000000000075e89d5979e4f6fba9f97c104c2f0afb3f1dcb8800000000000000000000000000000000000000000000275e9e74755d786ea12d",
                    "decodedMethod": {
                        "callParams": [
                            {
                                "name": "to",
                                "type": "address",
                                "value": "0x75e89d5979e4f6fba9f97c104c2f0afb3f1dcb88"
                            },
                            {
                                "decimalAvailable": true,
                                "name": "amount",
                                "type": "uint256",
                                "value": "185,917,704,654,844,465,160,493"
                            }
                        ],
                        "constructorArguments": "",
                        "name": "transfer",
                        "returnParams": [
                            {
                                "name": "",
                                "type": "bool",
                                "value": true
                            }
                        ],
                        "signature": "transfer(address,uint256)"
                    },
                    "errorInfo": "",
                    "fromAddress": "0x599e4f6a0b24af263b212fb731b733309a201c28",
                    "gasUsed": 57199,
                    "id": 0,
                    "methodDecoded": true,
                    "operation": "CALL",
                    "output": "0x0000000000000000000000000000000000000000000000000000000000000001",
                    "revert": false,
                    "revertMessage": "",
                    "selector": "0xa9059cbb",
                    "status": true,
                    "value": "0"
                },
                "nodeType": 0
            },
            "1": {
                "event": {
                    "contract": "0x198065e69a86cb8a9154b333aad8efe7a3c256f8",
                    "decodedLog": {
                        "name": "Transfer",
                        "params": [
                            {
                                "name": "from",
                                "type": "address",
                                "value": "0x599e4f6a0b24af263b212fb731b733309a201c28"
                            },
                            {
                                "name": "to",
                                "type": "address",
                                "value": "0x75e89d5979e4f6fba9f97c104c2f0afb3f1dcb88"
                            },
                            {
                                "decimalAvailable": true,
                                "name": "value",
                                "type": "uint256",
                                "value": "185,917,704,654,844,465,160,493"
                            }
                        ],
                        "signature": "Transfer(address,address,uint256)"
                    },
                    "id": 1,
                    "logData": "0x00000000000000000000000000000000000000000000275e9e74755d786ea12d",
                    "logDecoded": true,
                    "operation": "EVENT",
                    "revert": false,
                    "status": true,
                    "topics": [
                        "0xddf252ad1be2c89b69c2b068fc378daa952ba7f163c4a11628f55a4df523b3ef",
                        "0x000000000000000000000000599e4f6a0b24af263b212fb731b733309a201c28",
                        "0x00000000000000000000000075e89d5979e4f6fba9f97c104c2f0afb3f1dcb88"
                    ]
                },
                "nodeType": 1
            }
        },
        "gasFlame": [
            {
                "children": [
                    {
                        "children": [
                            {
                                "children": [],
                                "depth": 0,
                                "name": "Initial Gas",
                                "value": 21680
                            },
                            {
                                "children": [],
                                "depth": 0,
                                "name": "Executed Gas",
                                "value": 40319
                            }
                        ],
                        "depth": -1,
                        "name": "Actual Gas Used",
                        "value": 57199
                    },
                    {
                        "children": [],
                        "depth": -1,
                        "name": "Refunded Gas",
                        "value": 4800
                    }
                ],
                "depth": -2,
                "name": "Total Gas",
                "value": 61999
            }
        ],
        "isConfirmed": true,
        "mainTrace": [
            {
                "children": [
                    {
                        "children": [
                            {
                                "children": [],
                                "depth": 1,
                                "id": 1,
                                "order": 1
                            }
                        ],
                        "depth": 0,
                        "id": 0,
                        "order": 0
                    }
                ],
                "depth": -1,
                "id": -1,
                "order": -1
            }
        ],
        "mainTraceNodeCount": 2,
        "parentIdMap": {
            "0": -1,
            "1": 0
        },
        "tidyTrace": [
            {
                "children": [
                    {
                        "children": [
                            {
                                "children": [],
                                "depth": 1,
                                "id": 1,
                                "order": 1
                            }
                        ],
                        "depth": 0,
                        "id": 0,
                        "order": 0
                    }
                ],
                "depth": -1,
                "id": -1,
                "order": -1
            }
        ],
        "tidyTraceNodeCount": 2
    },
    "state_change": {
        "stateChanges": [
            {
                "address": "0x198065e69a86cb8a9154b333aad8efe7a3c256f8",
                "erc": "ERC-20",
                "slots": [
                    {
                        "current": "0x0000000000000000000000000000000000000000000000000000000000000000",
                        "key": "0x81565a981391a486ebe3d25a44ab295d9f0dd4e08ce15a1772e30a6d7498b9fd",
                        "prev": "0x00000000000000000000000000000000000000000000275e9e74755d786ea12d"
                    },
                    {
                        "current": "0x0000000000000000000000000000000000000000001a5244b9db86a0f0145eb5",
                        "key": "0x0c1c0c914f45c000744875af89164f0c3fa7a95c88dac7dd52278df3ccdd7017",
                        "prev": "0x0000000000000000000000000000000000000000001a2ae61b67114377a5bd88"
                    }
                ],
                "storageVariables": [
                    {
                        "name": "_balances",
                        "type": "mapping(address => uint256)",
                        "value": {
                            "pairs": [
                                {
                                    "key": "0x599e4f6a0b24af263b212fb731b733309a201c28",
                                    "value": {
                                        "current": "0",
                                        "prev": "185917704654844465160493",
                                        "typeTag": 1
                                    }
                                },
                                {
                                    "key": "0x75e89d5979e4f6fba9f97c104c2f0afb3f1dcb88",
                                    "value": {
                                        "current": "31820573132618624396451509",
                                        "prev": "31634655427963779931291016",
                                        "typeTag": 1
                                    }
                                }
                            ],
                            "typeTag": 4
                        }
                    }
                ]
            }
        ]
    }
}