{
    "balance_change": {
        "balanceChanges": [
            {
                "account": "0xdfe9becd28e4e320f755b7bb7538d2ec10a6c51f",
                "assets": [
                    {
                        "address": "0x25ad43defbd8ae997f011556823b415f08936ce5",
                        "amount": "17",
                        "iconUrl": "",
                        "isERC1155": true,
                        "isERC721": false,
                        "sign": false,
                        "tokenID": "0",
                        "value": ""
                    }
                ]
            },
            {
                "account": "0x1fcb4fb1c8c239cfde95c833fe5e3564d218733b",
                "assets": [
                    {
                        "address": "0x25ad43defbd8ae997f011556823b415f08936ce5",
                        "amount": "17",
                        "iconUrl": "",
                        "isERC1155": true,
                        "isERC721": false,
                        "sign": true,
                        "tokenID": "0",
                        "value": ""
                    }
                ]
            }
        ]
    },
    "profile": {
        "basic_info": {
            "baseFee": "247.849074496",
            "blockNumber": 14050160,
            "callData": "0xf242432a000000000000000000000000dfe9becd28e4e320f755b7bb7538d2ec10a6c51f0000000000000000000000001fcb4fb1c8c239cfde95c833fe5e3564d218733b0000000000000000000000000000000000000000000000000000000000000000000000000000000000000000000000000000000000000000000000000000001100000000000000000000000000000000000000000000000000000000000000a00000000000000000000000000000000000000000000000000000000000000000",
            "debugEnable": true,
            "errorInfo": "",
            "eventCount": 1,
            "feeRecipient": "0x829bd824b016326a401d083b33d092293333a830",
            "formatValue": "0",
            "gasLimit": 57032,
            "gasPrice": "249.349074496",
            "gasUsed": 57032,
            "intTxnCount": 0,
            "internalRevert": false,
            "internalRevertMessage": "",
            "isContractCreation": false,
            "isFlashloan": false,
            "maxFee": "317.01692191",
            "nonce": 90,
            "overwritedBlockNumber": -1,
            "priorityFee": "1.5",
            "receiver": "0x25ad43defbd8ae997f011556823b415f08936ce5",
            "revertMessage": "",
            "sender": "0xdfe9becd28e4e320f755b7bb7538d2ec10a6c51f",
            "simulationEnable": true,
            "sourceTxnHash": "0x1927aa4ad93f5813513cc799ce79194ef9b0b42a699784a6fa3685c51ec9dd4a",
            "status": true,
            "timestamp": "2022-01-21T17:08:00Z",
            "transactionFee": "0.014220876416655872",
            "txnHash": "0x1927aa4ad93f5813513cc799ce79194ef9b0b42a699784a6fa3685c51ec9dd4a",
            "txnIndex": 322,
            "type": 2,
            "value": "0"
        },
        "fund_flow": [
            {
                "amount": "17",
                "from": "0xdfe9becd28e4e320f755b7bb7538d2ec10a6c51f",
                "id": 1,
                "isERC1155": true,
                "isERC721": false,
                "isReverted": false,
                "order": 1,
                "to": "0x1fcb4fb1c8c239cfde95c833fe5e3564d218733b",
                "token": "0x25ad43defbd8ae997f011556823b415f08936ce5",
                "tokenID": "0"
            }
        ],
        "token_infos": [
            {
                "address": "0xc02aaa39b223fe8d0a0e5c4f27ead9083c756cc2",
                "decimals": 18
            },
            {
                "address": "0xeeeeeeeeeeeeeeeeeeeeeeeeeeeeeeeeeeeeeeee",
                "decimals": 18
            }
        ]
    },
    "address_label": {
        "labels": [
            {
                "address": "0xeeeeeeeeeeeeeeeeeeeeeeeeeeeeeeeeeeeeeeee",
                "label": "Ether"
            },
            {
                "address": "0x25ad43defbd8ae997f011556823b415f08936ce5",
                "label": "MythDivisionAmericanApe"
            },
            {
                "address": "0x0000000000000000000000000000000000000001",
                "label": "Precompiled"
            },
            {
                "address": "0x0000000000000000000000000000000000000002",
                "label": "Precompiled"
            },
            {
                "address": "0x0000000000000000000000000000000000000003",
                "label": "Precompiled"
            },
            {
                "address": "0x0000000000000000000000000000000000000004",
                "label": "Precompiled"
            }
        ]
    },
    "trace": {
        "accountLabels": null,
        "dataMap": {
            "-1": {
                "invocation": {
                    "address": "0xdfe9becd28e4e320f755b7bb7538d2ec10a6c51f",
                    "callData": "",
                    "decodedMethod": null,
                    "errorInfo": "",
                    "fromAddress": "",
                    "gasUsed": 0,
                    "id": -1,
                    "methodDecoded": false,
                    "operation": "",
                    "output": "",
                    "revert": false,
                    "revertMessage": "",
                    "selector": "",
                    "status": false,
                    "value": ""
                },
                "nodeType": 0
            },
            "0": {
                "invocation": {
                    "address": "0x25ad43defbd8ae997f011556823b415f08936ce5",
                    "callData": "0x000000000000000000000000dfe9becd28e4e320f755b7bb7538d2ec10a6c51f0000000000000000000000001fcb4fb1c8c239cfde95c833fe5e3564d218733b0000000000000000000000000000000000000000000000000000000000000000000000000000000000000000000000000000000000000000000000000000001100000000000000000000000000000000000000000000000000000000000000a00000000000000000000000000000000000000000000000000000000000000000",
                    "decodedMethod": {
                        "callParams": [
                            {
                                "name": "from",
                                "type": "address",
                                "value": "0xdfe9becd28e4e320f755b7bb7538d2ec10a6c51f"
                            },
                            {
                                "name": "to",
                                "type": "address",
                                "value": "0x1fcb4fb1c8c239cfde95c833fe5e3564d218733b"
                            },
                            {
                                "name": "id",
                                "type": "uint256",
                                "value": "0"
                            },
                            {
                                "name": "amount",
                                "type": "uint256",
                                "value": "17"
                            },
                            {
                                "name": "data",
                                "type": "bytes",
                                "value": "0x"
                            }
                        ],
                        "constructorArguments": "",
                        "name": "safeTransferFrom",
                        "returnParams": [],
                        "signature": "safeTransferFrom(address,address,uint256,uint256,bytes)"
                    },
                    "errorInfo": "",
                    "fromAddress": "0xdfe9becd28e4e320f755b7bb7538d2ec10a6c51f",
                    "gasUsed": 57032,
                    "id": 0,
                    "methodDecoded": true,
                    "operation": "CALL",
                    "output": "",
                    "revert": false,
                    "revertMessage": "",
                    "selector": "0xf242432a",
                    "status": true,
                    "value": "0"
                },
                "nodeType": 0
            },
            "1": {
                "event": {
                    "contract": "0x25ad43defbd8ae997f011556823b415f08936ce5",
                    "decodedLog": {
                        "name": "TransferSingle",
                        "params": [
                            {
                                "name": "operator",
                                "type": "address",
                                "value": "0xdfe9becd28e4e320f755b7bb7538d2ec10a6c51f"
                            },
                            {
                                "name": "from",
                                "type": "address",
                                "value": "0xdfe9becd28e4e320f755b7bb7538d2ec10a6c51f"
                            },
                            {
                                "name": "to",
                                "type": "address",
                                "value": "0x1fcb4fb1c8c239cfde95c833fe5e3564d218733b"
                            },
                            {
                                "name": "id",
                                "type": "uint256",
                                "value": "0"
                            },
                            {
                                "name": "value",
                                "type": "uint256",
                                "value": "17"
                            }
                        ],
                        "signature": "TransferSingle(address,address,address,uint256,uint256)"
                    },
                    "id": 1,
                    "logData": "0x00000000000000000000000000000000000000000000000000000000000000000000000000000000000000000000000000000000000000000000000000000011",
                    "logDecoded": true,
                    "operation": "EVENT",
                    "revert": false,
                    "status": true,
                    "topics": [
                        "0xc3d58168c5ae7397731d063d5bbf3d657854427343f4c083240f7aacaa2d0f62",
                        "0x000000000000000000000000dfe9becd28e4e320f755b7bb7538d2ec10a6c51f",
                        "0x000000000000000000000000dfe9becd28e4e320f755b7bb7538d2ec10a6c51f",
                        "0x0000000000000000000000001fcb4fb1c8c239cfde95c833fe5e3564d218733b"
                    ]
                },
                "nodeType": 1
            }
        },
        "gasFlame": [
            {
                "children": [
                    {
                        "children": [
                            {
                                "children": [],
                                "depth": 0,
                                "name": "Initial Gas",
                                "value": 22336
                            },
                            {
                                "children": [],
                                "depth": 0,
                                "name": "Executed Gas",
                                "value": 34696
                            }
                        ],
                        "depth": -1,
                        "name": "Actual Gas Used",
                        "value": 57032
                    },
                    {
                        "children": [],
                        "depth": -1,
                        "name": "Refunded Gas",
                        "value": 0
                    }
                ],
                "depth": -2,
                "name": "Total Gas",
                "value": 57032
            }
        ],
        "isConfirmed": true,
        "mainTrace": [
            {
                "children": [
                    {
                        "children": [
                            {
                                "children": [],
                                "depth": 1,
                                "id": 1,
                                "order": 1
                            }
                        ],
                        "depth": 0,
                        "id": 0,
                        "order": 0
                    }
                ],
                "depth": -1,
                "id": -1,
                "order": -1
            }
        ],
        "mainTraceNodeCount": 2,
        "parentIdMap": {
            "0": -1,
            "1": 0
        },
        "tidyTrace": [
            {
                "children": [
                    {
                        "children": [
                            {
                                "children": [],
                                "depth": 1,
                                "id": 1,
                                "order": 1
                            }
                        ],
                        "depth": 0,
                        "id": 0,
                        "order": 0
                    }
                ],
                "depth": -1,
                "id": -1,
                "order": -1
            }
        ],
        "tidyTraceNodeCount": 2
    },
    "state_change": {
        "stateChanges": [
            {
                "address": "0x25ad43defbd8ae997f011556823b415f08936ce5",
                "erc": "ERC-1155",
                "slots": [
                    {
                        "current": "0x0000000000000000000000000000000000000000000000000000000000000012",
                        "key": "0x5d84b4acf94ebb50705a10d3f16821758a9b23284e1292abaa026bb64d1460f5",
                        "prev": "0x0000000000000000000000000000000000000000000000000000000000000023"
                    },
                    {
                        "current": "0x0000000000000000000000000000000000000000000000000000000000000011",
                        "key": "0xc15e5b513b23220d1593e10ead21f17ad977e1faf24765796f0d38e4f675003c",
                        "prev": "0x0000000000000000000000000000000000000000000000000000000000000000"
                    }
                ],
                "storageVariables": [
                    {
                        "name": "_balances",
                        "type": "mapping(uint256 => mapping(address => uint256))",
                        "value": {
                            "pairs": [
                                {
                                    "key": "0",
                                    "value": {
                                        "pairs": [
                                            {
                                                "key": "0x1fcb4fb1c8c239cfde95c833fe5e3564d218733b",
                                                "value": {
                                                    "current": "17",
                                                    "prev": "0",
                                                    "typeTag": 1
                                                }
                                            },
                                            {
                                                "key": "0xdfe9becd28e4e320f755b7bb7538d2ec10a6c51f",
                                                "value": {
                                                    "current": "18",
                                                    "prev": "35",
                                                    "typeTag": 1
                                                }
                                            }
                                        ],
                                        "typeTag": 4
                                    }
                                }
                            ],
                            "typeTag": 4
                        }
                    }
                ]
            }
        ]
    }
}