{
    "balance_change": {
        "balanceChanges": [
            {
                "account": "0x0000000000000000000000000000000000000000",
                "assets": [
                    {
                        "address": "0x3cf314571da3e56eaee61af2b30af56f75d3a602",
                        "amount": "1",
                        "iconUrl": "",
                        "isERC1155": false,
                        "isERC721": true,
                        "sign": false,
                        "tokenID": "25895",
                        "value": ""
                    }
                ]
            },
            {
                "account": "0x5f6ac3ab0e06b6ad0063a47a6b9d05e10942b2f0",
                "assets": [
                    {
                        "address": "0x3cf314571da3e56eaee61af2b30af56f75d3a602",
                        "amount": "1",
                        "iconUrl": "",
                        "isERC1155": false,
                        "isERC721": true,
                        "sign": true,
                        "tokenID": "25895",
                        "value": ""
                    }
                ]
            }
        ]
    },
    "profile": {
        "basic_info": {
            "baseFee": "23.554428064",
            "blockNumber": 16733539,
            "callData": "0x08dc9f420000000000000000000000000000000000000000000000000000000063ff39dc9917b0696ee84edc555293b73d98ce35a40775ab71d1846a1e8accf17aeafaf700000000000000000000000000000000000000000000000000000000000000600000000000000000000000000000000000000000000000000000000000000041c8211534a90b2ee114ddd445da716e1315da36b93eb903db0fe0d741aabb1f152e498806ea2d10bda3a2baed1c40aa50e6048eb3ef89a2ab9187685439094a2b1c00000000000000000000000000000000000000000000000000000000000000",
            "debugEnable": true,
            "errorInfo": "",
            "eventCount": 1,
            "feeRecipient": "0x1f9090aae28b8a3dceadf281b0f12828e676c326",
            "formatValue": "0",
            "gasLimit": 124372,
            "gasPrice": "24.054428064",
            "gasUsed": 123131,
            "intTxnCount": 2,
            "internalRevert": false,
            "internalRevertMessage": "",
            "isContractCreation": false,
            "isFlashloan": false,
            "maxFee": "33.361735973",
            "nonce": 509,
            "overwritedBlockNumber": -1,
            "priorityFee": "0.5",
            "receiver": "0x6c6e21ff463f406745b665322c7157b1d7c0ac6b",
            "revertMessage": "",
            "sender": "0x5f6ac3ab0e06b6ad0063a47a6b9d05e10942b2f0",
            "simulationEnable": true,
            "sourceTxnHash": "0x19bf3192ef65bc3380e5e487dc4d86ffb38dee5faeb6c19e2f0e8849fd4e518a",
            "status": true,
            "timestamp": "2023-03-01T11:41:35Z",
            "transactionFee": "0.002961845781948384",
            "txnHash": "0x19bf3192ef65bc3380e5e487dc4d86ffb38dee5faeb6c19e2f0e8849fd4e518a",
            "txnIndex": 111,
            "type": 2,
            "value": "0"
        },
        "fund_flow": [
            {
                "amount": "1",
                "from": "0x0000000000000000000000000000000000000000",
                "id": 1,
                "isERC1155": false,
                "isERC721": true,
                "isReverted": false,
                "order": 1,
                "to": "0x5f6ac3ab0e06b6ad0063a47a6b9d05e10942b2f0",
                "token": "0x3cf314571da3e56eaee61af2b30af56f75d3a602",
                "tokenID": "25895"
            }
        ],
        "token_infos": [
            {
                "address": "0xc02aaa39b223fe8d0a0e5c4f27ead9083c756cc2",
                "decimals": 18
            },
            {
                "address": "0xeeeeeeeeeeeeeeeeeeeeeeeeeeeeeeeeeeeeeeee",
                "decimals": 18
            }
        ]
    },
    "address_label": {
        "labels": [
            {
                "address": "0xeeeeeeeeeeeeeeeeeeeeeeeeeeeeeeeeeeeeeeee",
                "label": "Ether"
            },
            {
                "address": "0x6c6e21ff463f406745b665322c7157b1d7c0ac6b",
                "label": "ERC721PepeMinter"
            },
            {
                "address": "0x3cf314571da3e56eaee61af2b30af56f75d3a602",
                "label": "ERC721Pepe (MCPEPES)"
            },
            {
                "address": "0x0000000000000000000000000000000000000001",
                "label": "Precompiled"
            },
            {
                "address": "0x0000000000000000000000000000000000000002",
                "label": "Precompiled"
            },
            {
                "address": "0x0000000000000000000000000000000000000003",
                "label": "Precompiled"
            },
            {
                "address": "0x0000000000000000000000000000000000000004",
                "label": "Precompiled"
            }
        ]
    },
    "trace": {
        "accountLabels": null,
        "dataMap": {
            "-1": {
                "invocation": {
                    "address": "0x5f6ac3ab0e06b6ad0063a47a6b9d05e10942b2f0",
                    "callData": "",
                    "decodedMethod": null,
                    "errorInfo": "",
                    "fromAddress": "",
                    "gasUsed": 0,
                    "id": -1,
                    "methodDecoded": false,
                    "operation": "",
                    "output": "",
                    "revert": false,
                    "revertMessage": "",
                    "selector": "",
                    "status": false,
                    "value": ""
                },
                "nodeType": 0
            },
            "0": {
                "invocation": {
                    "address": "0x6c6e21ff463f406745b665322c7157b1d7c0ac6b",
                    "callData": "0x0000000000000000000000000000000000000000000000000000000063ff39dc9917b0696ee84edc555293b73d98ce35a40775ab71d1846a1e8accf17aeafaf700000000000000000000000000000000000000000000000000000000000000600000000000000000000000000000000000000000000000000000000000000041c8211534a90b2ee114ddd445da716e1315da36b93eb903db0fe0d741aabb1f152e498806ea2d10bda3a2baed1c40aa50e6048eb3ef89a2ab9187685439094a2b1c00000000000000000000000000000000000000000000000000000000000000",
                    "decodedMethod": {
                        "callParams": [
                            {
                                "name": "timestamp",
                                "type": "uint256",
                                "value": "1,677,670,876"
                            },
                            {
                                "name": "imageHash",
                                "type": "uint256",
                                "value": "69,245,720,865,561,013,522,830,637,024,471,914,331,579,343,867,177,414,816,542,049,337,337,052,855,031"
                            },
                            {
                                "name": "signature",
                                "type": "bytes",
                                "value": "0xc8211534a90b2ee114ddd445da716e1315da36b93eb903db0fe0d741aabb1f152e498806ea2d10bda3a2baed1c40aa50e6048eb3ef89a2ab9187685439094a2b1c"
                            }
                        ],
                        "constructorArguments": "",
                        "name": "mint",
                        "returnParams": [],
                        "signature": "mint(uint256,uint256,bytes)"
                    },
                    "errorInfo": "",
                    "fromAddress": "0x5f6ac3ab0e06b6ad0063a47a6b9d05e10942b2f0",
                    "gasUsed": 123131,
                    "id": 0,
                    "methodDecoded": true,
                    "operation": "CALL",
                    "output": "",
                    "revert": false,
                    "revertMessage": "",
                    "selector": "0x08dc9f42",
                    "status": true,
                    "value": "0"
                },
                "nodeType": 0
            },
            "1": {
                "invocation": {
                    "address": "0x0000000000000000000000000000000000000001",
                    "callData": "0xc3c02432a87d6b9724ed3a30621c2717189e61d28fec229a8900f655000000000000000000000000000000000000000000000000000000000000001cc8211534a90b2ee114ddd445da716e1315da36b93eb903db0fe0d741aabb1f152e498806ea2d10bda3a2baed1c40aa50e6048eb3ef89a2ab9187685439094a2b",
                    "decodedMethod": {
                        "callParams": [
                            {
                                "name": "hash",
                                "type": "bytes32",
                                "value": "0x6756a186c3c02432a87d6b9724ed3a30621c2717189e61d28fec229a8900f655"
                            },
                            {
                                "name": "v",
                                "type": "uint256",
                                "value": "28"
                            },
                            {
                                "name": "r",
                                "type": "bytes32",
                                "value": "0xc8211534a90b2ee114ddd445da716e1315da36b93eb903db0fe0d741aabb1f15"
                            },
                            {
                                "name": "s",
                                "type": "bytes32",
                                "value": "0x2e498806ea2d10bda3a2baed1c40aa50e6048eb3ef89a2ab9187685439094a2b"
                            }
                        ],
                        "constructorArguments": "",
                        "name": "ecrecover",
                        "returnParams": [
                            {
                                "name": "",
                                "type": "address",
                                "value": "0xc1a8d67fa85cc49971b98992def84759ca416e9a"
                            }
                        ],
                        "signature": "ecrecover(bytes32,uint256,bytes32,bytes32)"
                    },
                    "errorInfo": "",
                    "fromAddress": "0x6c6e21ff463f406745b665322c7157b1d7c0ac6b",
                    "gasUsed": 3000,
                    "id": 1,
                    "methodDecoded": true,
                    "operation": "STATICCALL",
                    "output": "0x000000000000000000000000c1a8d67fa85cc49971b98992def84759ca416e9a",
                    "revert": false,
                    "revertMessage": "",
                    "selector": "0x6756a186",
                    "status": true,
                    "value": "0"
                },
                "nodeType": 0
            },
            "2": {
                "invocation": {
                    "address": "0x3cf314571da3e56eaee61af2b30af56f75d3a602",
                    "callData": "0x0000000000000000000000005f6ac3ab0e06b6ad0063a47a6b9d05e10942b2f09917b0696ee84edc555293b73d98ce35a40775ab71d1846a1e8accf17aeafaf7",
                    "decodedMethod": {
                        "callParams": [
                            {
                                "name": "to",
                                "type": "address",
                                "value": "0x5f6ac3ab0e06b6ad0063a47a6b9d05e10942b2f0"
                            },
                            {
                                "name": "imageHash",
                                "type": "uint256",
                                "value": "69,245,720,865,561,013,522,830,637,024,471,914,331,579,343,867,177,414,816,542,049,337,337,052,855,031"
                            }
                        ],
                        "constructorArguments": "",
                        "name": "mint",
                        "returnParams": [],
                        "signature": "mint(address,uint256)"
                    },
                    "errorInfo": "",
                    "fromAddress": "0x6c6e21ff463f406745b665322c7157b1d7c0ac6b",
                    "gasUsed": 81861,
                    "id": 2,
                    "methodDecoded": true,
                    "operation": "CALL",
                    "output": "",
                    "revert": false,
                    "revertMessage": "",
                    "selector": "0x40c10f19",
                    "status": true,
                    "value": "0"
                },
                "nodeType": 0
            },
            "3": {
                "event": {
                    "contract": "0x3cf314571da3e56eaee61af2b30af56f75d3a602",
                    "decodedLog": {
                        "name": "Transfer",
                        "params": [
                            {
                                "name": "from",
                                "type": "address",
                                "value": "0x0000000000000000000000000000000000000000"
                            },
                            {
                                "name": "to",
                                "type": "address",
                                "value": "0x5f6ac3ab0e06b6ad0063a47a6b9d05e10942b2f0"
                            },
                            {
                                "decimalAvailable": true,
                                "name": "tokenId",
                                "type": "uint256",
                                "value": "25,895"
                            }
                        ],
                        "signature": "Transfer(address,address,uint256)"
                    },
                    "id": 3,
                    "logData": "0x",
                    "logDecoded": true,
                    "operation": "EVENT",
                    "revert": false,
                    "status": true,
                    "topics": [
                        "0xddf252ad1be2c89b69c2b068fc378daa952ba7f163c4a11628f55a4df523b3ef",
                        "0x0000000000000000000000000000000000000000000000000000000000000000",
                        "0x0000000000000000000000005f6ac3ab0e06b6ad0063a47a6b9d05e10942b2f0",
                        "0x0000000000000000000000000000000000000000000000000000000000006527"
                    ]
                },
                "nodeType": 1
            }
        },
        "gasFlame": [
            {
                "children": [
                    {
                        "children": [
                            {
                                "children": [],
                                "depth": 0,
                                "name": "Initial Gas",
                                "value": 23196
                            },
                            {
                                "children": [
                                    {
                                        "children": [],
                                        "depth": 1,
                                        "name": "ecrecover",
                                        "value": 3000
                                    },
                                    {
                                        "children": [],
                                        "depth": 1,
                                        "name": "mint",
                                        "value": 81861
                                    }
                                ],
                                "depth": 0,
                                "name": "Executed Gas",
                                "value": 99935
                            }
                        ],
                        "depth": -1,
                        "name": "Actual Gas Used",
                        "value": 123131
                    },
                    {
                        "children": [],
                        "depth": -1,
                        "name": "Refunded Gas",
                        "value": 0
                    }
                ],
                "depth": -2,
                "name": "Total Gas",
                "value": 123131
            }
        ],
        "isConfirmed": true,
        "mainTrace": [
            {
                "children": [
                    {
                        "children": [
                            {
                                "children": [],
                                "depth": 1,
                                "id": 1,
                                "order": 1
                            },
                            {
                                "children": [
                                    {
                                        "children": [],
                                        "depth": 2,
                                        "id": 3,
                                        "order": 3
                                    }
                                ],
                                "depth": 1,
                                "id": 2,
                                "order": 2
                            }
                        ],
                        "depth": 0,
                        "id": 0,
                        "order": 0
                    }
                ],
                "depth": -1,
                "id": -1,
                "order": -1
            }
        ],
        "mainTraceNodeCount": 4,
        "parentIdMap": {
            "0": -1,
            "1": 0,
            "2": 0,
            "3": 2
        },
        "tidyTrace": [
            {
                "children": [
                    {
                        "children": [
                            {
                                "children": [
                                    {
                                        "children": [],
                                        "depth": 2,
                                        "id": 3,
                                        "order": 3
                                    }
                                ],
                                "depth": 1,
                                "id": 2,
                                "order": 2
                            }
                        ],
                        "depth": 0,
                        "id": 0,
                        "order": 0
                    }
                ],
                "depth": -1,
                "id": -1,
                "order": -1
            }
        ],
        "tidyTraceNodeCount": 3
    },
    "state_change": {
        "stateChanges": [
            {
                "address": "0x3cf314571da3e56eaee61af2b30af56f75d3a602",
                "erc": "ERC-721",
                "slots": [
                    {
                        "current": "0x0000000000000000000000000000000000000000000000000000000000000003",
                        "key": "0x00cfcfbd1fe0ef6993a6c8c6f1e1ae3f05a0c513e801be2890f75ec3d3c0c171",
                        "prev": "0x0000000000000000000000000000000000000000000000000000000000000002"
                    },
                    {
                        "current": "0x0000000000000000000000005f6ac3ab0e06b6ad0063a47a6b9d05e10942b2f0",
                        "key": "0x9a791527034e154920ed9f549b1a215c0b6f1c42dbe3b7d045ddd8c2bc83ac14",
                        "prev": "0x0000000000000000000000000000000000000000000000000000000000000000"
                    },
                    {
                        "current": "0x0000000000000000000000000000000000000000000000000000000000006527",
                        "key": "0xf4ea03d7fca2f91d129cab83c5423a8129f53b9f9190699f22713636f23f1deb",
                        "prev": "0x0000000000000000000000000000000000000000000000000000000000000000"
                    },
                    {
                        "current": "0x9917b0696ee84edc555293b73d98ce35a40775ab71d1846a1e8accf17aeafaf7",
                        "key": "0x04d3d61675d93a151135cd478b064897138611634af073ffbfde84e5dd5d1236",
                        "prev": "0x0000000000000000000000000000000000000000000000000000000000000000"
                    },
                    {
                        "current": "0x0000000000000000000000000000000000000000000000000000000000006528",
                        "key": "0x0000000000000000000000000000000000000000000000000000000000000009",
                        "prev": "0x0000000000000000000000000000000000000000000000000000000000006527"
                    }
                ],
                "storageVariables": [
                    {
                        "name": "_owners",
                        "type": "mapping(uint256 => address)",
                        "value": {
                            "pairs": [
                                {
                                    "key": "25895",
                                    "value": {
                                        "current": "0x5f6ac3ab0e06b6ad0063a47a6b9d05e10942b2f0",
                                        "prev": "0x0000000000000000000000000000000000000000",
                                        "typeTag": 1
                                    }
                                }
                            ],
                            "typeTag": 4
                        }
                    },
                    {
                        "name": "imageHashTokenIds",
                        "type": "mapping(uint256 => uint256)",
                        "value": {
                            "pairs": [
                                {
                                    "key": "69245720865561013522830637024471914331579343867177414816542049337337052855031",
                                    "value": {
                                        "current": "25895",
                                        "prev": "0",
                                        "typeTag": 1
                                    }
                                }
                            ],
                            "typeTag": 4
                        }
                    },
                    {
                        "name": "tokenIdImageHashes",
                        "type": "mapping(uint256 => uint256)",
                        "value": {
                            "pairs": [
                                {
                                    "key": "25895",
                                    "value": {
                                        "current": "69245720865561013522830637024471914331579343867177414816542049337337052855031",
                                        "prev": "0",
                                        "typeTag": 1
                                    }
                                }
                            ],
                            "typeTag": 4
                        }
                    },
                    {
                        "name": "tokenId",
                        "type": "uint256",
                        "value": {
                            "current": "25896",
                            "prev": "25895",
                            "typeTag": 1
                        }
                    },
                    {
                        "name": "_balances",
                        "type": "mapping(address => uint256)",
                        "value": {
                            "pairs": [
                                {
                                    "key": "0x5f6ac3ab0e06b6ad0063a47a6b9d05e10942b2f0",
                                    "value": {
                                        "current": "3",
                                        "prev": "2",
                                        "typeTag": 1
                                    }
                                }
                            ],
                            "typeTag": 4
                        }
                    }
                ]
            }
        ]
    }
}