{
    "balance_change": {
        "balanceChanges": [
            {
                "account": "0xf48906a0191fe68fa18cff00b05c7f4e8c8d7f80",
                "assets": [
                    {
                        "address": "0xeeeeeeeeeeeeeeeeeeeeeeeeeeeeeeeeeeeeeeee",
                        "amount": "0.01194",
                        "iconUrl": "https://assets.blocksec.com/image/1663669189317-3.png",
                        "isERC1155": false,
                        "isERC721": false,
                        "sign": true,
                        "value": ""
                    }
                ]
            },
            {
                "account": "0x000000000000000000000000000000000000dead",
                "assets": [
                    {
                        "address": "0xeeeeeeeeeeeeeeeeeeeeeeeeeeeeeeeeeeeeeeee",
                        "amount": "0.00006",
                        "iconUrl": "https://assets.blocksec.com/image/1663669189317-3.png",
                        "isERC1155": false,
                        "isERC721": false,
                        "sign": true,
                        "value": ""
                    }
                ]
            },
            {
                "account": "0x8678d753f522bcf4422aa3a765e67589714f5146",
                "assets": [
                    {
                        "address": "0xeeeeeeeeeeeeeeeeeeeeeeeeeeeeeeeeeeeeeeee",
                        "amount": "0.012",
                        "iconUrl": "https://assets.blocksec.com/image/1663669189317-3.png",
                        "isERC1155": false,
                        "isERC721": false,
                        "sign": false,
                        "value": ""
                    }
                ]
            }
        ]
    },
    "profile": {
        "basic_info": {
            "baseFee": "",
            "blockNumber": 3747148,
            "callData": "0x47872b42432087c4513c6fcdd625e5699122b736c5021563a52bb1f8b41ec53e40bfaef9000000000000000000000000000000000000000000000000002aa1efb94e0000cff8d07c5f095e6f9567c3e3db5e8c505f1792b8cee9a5911e6aa31b5ed61a22",
            "debugEnable": true,
            "errorInfo": "",
            "eventCount": 2,
            "feeRecipient": "0xea674fdde714fd979de3edf0f56aa9716b898ec8",
            "formatValue": "0",
            "gasLimit": 150000,
            "gasPrice": "21",
            "gasUsed": 50242,
            "intTxnCount": 8,
            "internalRevert": false,
            "internalRevertMessage": "",
            "isContractCreation": false,
            "isFlashloan": false,
            "maxFee": "",
            "nonce": 5214,
            "overwritedBlockNumber": -1,
            "priorityFee": "",
            "receiver": "0x6090a6e47849629b7245dfa1ca21d94cd15878ef",
            "revertMessage": "",
            "sender": "0xf48906a0191fe68fa18cff00b05c7f4e8c8d7f80",
            "simulationEnable": true,
            "sourceTxnHash": "0x197cb9039e074cd91d65080917937340fa3a87689ee71071727d12573358c895",
            "status": true,
            "timestamp": "2017-05-22T04:50:44Z",
            "transactionFee": "0.001055082",
            "txnHash": "0x197cb9039e074cd91d65080917937340fa3a87689ee71071727d12573358c895",
            "txnIndex": 56,
            "type": 0,
            "value": "0"
        },
        "fund_flow": [
            {
                "amount": "0.00006",
                "from": "0x8678d753f522bcf4422aa3a765e67589714f5146",
                "id": 1,
                "isERC1155": false,
                "isERC721": false,
                "isReverted": false,
                "order": 1,
                "to": "0x000000000000000000000000000000000000dead",
                "token": "0xeeeeeeeeeeeeeeeeeeeeeeeeeeeeeeeeeeeeeeee"
            },
            {
                "amount": "0.01194",
                "from": "0x8678d753f522bcf4422aa3a765e67589714f5146",
                "id": 2,
                "isERC1155": false,
                "isERC721": false,
                "isReverted": false,
                "order": 2,
                "to": "0xf48906a0191fe68fa18cff00b05c7f4e8c8d7f80",
                "token": "0xeeeeeeeeeeeeeeeeeeeeeeeeeeeeeeeeeeeeeeee"
            }
        ],
        "token_infos": [
            {
                "address": "0xc02aaa39b223fe8d0a0e5c4f27ead9083c756cc2",
                "decimals": 18
            },
            {
                "address": "0xeeeeeeeeeeeeeeeeeeeeeeeeeeeeeeeeeeeeeeee",
                "decimals": 18
            }
        ]
    },
    "address_label": {
        "labels": [
            {
                "address": "0x8678d753f522bcf4422aa3a765e67589714f5146",
                "label": "Deed"
            },
            {
                "address": "0x0000000000000000000000000000000000000001",
                "label": "Precompiled"
            },
            {
                "address": "0x0000000000000000000000000000000000000002",
                "label": "Precompiled"
            },
            {
                "address": "0x0000000000000000000000000000000000000003",
                "label": "Precompiled"
            },
            {
                "address": "0x0000000000000000000000000000000000000004",
                "label": "Precompiled"
            },
            {
                "address": "0xeeeeeeeeeeeeeeeeeeeeeeeeeeeeeeeeeeeeeeee",
                "label": "Ether"
            },
            {
                "address": "0x6090a6e47849629b7245dfa1ca21d94cd15878ef",
                "label": "ENS: Old Registrar"
            },
            {
                "address": "0x000000000000000000000000000000000000dead",
                "label": "Null: 0x00...dEaD"
            }
        ]
    },
    "trace": {
        "accountLabels": null,
        "dataMap": {
            "-1": {
                "invocation": {
                    "address": "0xf48906a0191fe68fa18cff00b05c7f4e8c8d7f80",
                    "callData": "",
                    "decodedMethod": null,
                    "errorInfo": "",
                    "fromAddress": "",
                    "gasUsed": 0,
                    "id": -1,
                    "methodDecoded": false,
                    "operation": "",
                    "output": "",
                    "revert": false,
                    "revertMessage": "",
                    "selector": "",
                    "status": false,
                    "value": ""
                },
                "nodeType": 0
            },
            "0": {
                "invocation": {
                    "address": "0x6090a6e47849629b7245dfa1ca21d94cd15878ef",
                    "callData": "0x432087c4513c6fcdd625e5699122b736c5021563a52bb1f8b41ec53e40bfaef9000000000000000000000000000000000000000000000000002aa1efb94e0000cff8d07c5f095e6f9567c3e3db5e8c505f1792b8cee9a5911e6aa31b5ed61a22",
                    "decodedMethod": {
                        "callParams": [
                            {
                                "name": "_hash",
                                "type": "bytes32",
                                "value": "0x432087c4513c6fcdd625e5699122b736c5021563a52bb1f8b41ec53e40bfaef9"
                            },
                            {
                                "name": "_value",
                                "type": "uint256",
                                "value": "12,000,000,000,000,000"
                            },
                            {
                                "name": "_salt",
                                "type": "bytes32",
                                "value": "0xcff8d07c5f095e6f9567c3e3db5e8c505f1792b8cee9a5911e6aa31b5ed61a22"
                            }
                        ],
                        "constructorArguments": "",
                        "name": "unsealBid",
                        "returnParams": [],
                        "signature": "unsealBid(bytes32,uint256,bytes32)"
                    },
                    "errorInfo": "",
                    "fromAddress": "0xf48906a0191fe68fa18cff00b05c7f4e8c8d7f80",
                    "gasUsed": 50242,
                    "id": 0,
                    "methodDecoded": true,
                    "operation": "CALL",
                    "output": "",
                    "revert": false,
                    "revertMessage": "",
                    "selector": "0x47872b42",
                    "status": true,
                    "value": "0"
                },
                "nodeType": 0
            },
            "1": {
                "invocation": {
                    "address": "0x8678d753f522bcf4422aa3a765e67589714f5146",
                    "callData": "0x",
                    "decodedMethod": {
                        "callParams": [],
                        "constructorArguments": "",
                        "name": "value",
                        "returnParams": [
                            {
                                "name": "",
                                "type": "uint256",
                                "value": "12,000,000,000,000,000"
                            }
                        ],
                        "signature": "value()"
                    },
                    "errorInfo": "",
                    "fromAddress": "0x6090a6e47849629b7245dfa1ca21d94cd15878ef",
                    "gasUsed": 524,
                    "id": 1,
                    "methodDecoded": true,
                    "operation": "CALL",
                    "output": "0x000000000000000000000000000000000000000000000000002aa1efb94e0000",
                    "revert": false,
                    "revertMessage": "",
                    "selector": "0x3fa4f245",
                    "status": true,
                    "value": "0"
                },
                "nodeType": 0
            },
            "10": {
                "event": {
                    "contract": "0x6090a6e47849629b7245dfa1ca21d94cd15878ef",
                    "decodedLog": {
                        "name": "BidRevealed",
                        "params": [
                            {
                                "name": "hash",
                                "type": "bytes32",
                                "value": "0x432087c4513c6fcdd625e5699122b736c5021563a52bb1f8b41ec53e40bfaef9"
                            },
                            {
                                "name": "owner",
                                "type": "address",
                                "value": "0xf48906a0191fe68fa18cff00b05c7f4e8c8d7f80"
                            },
                            {
                                "name": "value",
                                "type": "uint256",
                                "value": "12,000,000,000,000,000"
                            },
                            {
                                "name": "status",
                                "type": "uint8",
                                "value": "3"
                            }
                        ],
                        "signature": "BidRevealed(bytes32,address,uint256,uint8)"
                    },
                    "id": 10,
                    "logData": "0x000000000000000000000000000000000000000000000000002aa1efb94e00000000000000000000000000000000000000000000000000000000000000000003",
                    "logDecoded": true,
                    "operation": "EVENT",
                    "revert": false,
                    "status": true,
                    "topics": [
                        "0x7b6c4b278d165a6b33958f8ea5dfb00c8c9d4d0acf1985bef5d10786898bc3e7",
                        "0x432087c4513c6fcdd625e5699122b736c5021563a52bb1f8b41ec53e40bfaef9",
                        "0x000000000000000000000000f48906a0191fe68fa18cff00b05c7f4e8c8d7f80"
                    ]
                },
                "nodeType": 1
            },
            "2": {
                "invocation": {
                    "address": "0x8678d753f522bcf4422aa3a765e67589714f5146",
                    "callData": "0x000000000000000000000000000000000000000000000000002aa1efb94e00000000000000000000000000000000000000000000000000000000000000000001",
                    "decodedMethod": {
                        "callParams": [
                            {
                                "name": "newValue",
                                "type": "uint256",
                                "value": "12,000,000,000,000,000"
                            },
                            {
                                "name": "throwOnFailure",
                                "type": "bool",
                                "value": true
                            }
                        ],
                        "constructorArguments": "",
                        "name": "setBalance",
                        "returnParams": [],
                        "signature": "setBalance(uint256,bool)"
                    },
                    "errorInfo": "",
                    "fromAddress": "0x6090a6e47849629b7245dfa1ca21d94cd15878ef",
                    "gasUsed": 7633,
                    "id": 2,
                    "methodDecoded": true,
                    "operation": "CALL",
                    "output": "",
                    "revert": false,
                    "revertMessage": "",
                    "selector": "0xb0c80972",
                    "status": true,
                    "value": "0"
                },
                "nodeType": 0
            },
            "3": {
                "invocation": {
                    "address": "0xf48906a0191fe68fa18cff00b05c7f4e8c8d7f80",
                    "callData": "0x",
                    "decodedMethod": null,
                    "errorInfo": "",
                    "fromAddress": "0x8678d753f522bcf4422aa3a765e67589714f5146",
                    "gasUsed": 0,
                    "id": 3,
                    "methodDecoded": false,
                    "operation": "CALL",
                    "output": "",
                    "revert": false,
                    "revertMessage": "",
                    "selector": "fallback",
                    "status": true,
                    "value": "0"
                },
                "nodeType": 0
            },
            "4": {
                "invocation": {
                    "address": "0x8678d753f522bcf4422aa3a765e67589714f5146",
                    "callData": "0x",
                    "decodedMethod": {
                        "callParams": [],
                        "constructorArguments": "",
                        "name": "creationDate",
                        "returnParams": [
                            {
                                "name": "",
                                "type": "uint256",
                                "value": "1,495,275,957"
                            }
                        ],
                        "signature": "creationDate()"
                    },
                    "errorInfo": "",
                    "fromAddress": "0x6090a6e47849629b7245dfa1ca21d94cd15878ef",
                    "gasUsed": 436,
                    "id": 4,
                    "methodDecoded": true,
                    "operation": "CALL",
                    "output": "0x00000000000000000000000000000000000000000000000000000000592019b5",
                    "revert": false,
                    "revertMessage": "",
                    "selector": "0x05b34410",
                    "status": true,
                    "value": "0"
                },
                "nodeType": 0
            },
            "5": {
                "invocation": {
                    "address": "0x8678d753f522bcf4422aa3a765e67589714f5146",
                    "callData": "0x00000000000000000000000000000000000000000000000000000000000003e3",
                    "decodedMethod": {
                        "callParams": [
                            {
                                "name": "refundRatio",
                                "type": "uint256",
                                "value": "995"
                            }
                        ],
                        "constructorArguments": "",
                        "name": "closeDeed",
                        "returnParams": [],
                        "signature": "closeDeed(uint256)"
                    },
                    "errorInfo": "",
                    "fromAddress": "0x6090a6e47849629b7245dfa1ca21d94cd15878ef",
                    "gasUsed": 28282,
                    "id": 5,
                    "methodDecoded": true,
                    "operation": "CALL",
                    "output": "",
                    "revert": false,
                    "revertMessage": "",
                    "selector": "0xbbe42771",
                    "status": true,
                    "value": "0"
                },
                "nodeType": 0
            },
            "6": {
                "invocation": {
                    "address": "0x000000000000000000000000000000000000dead",
                    "callData": "0x",
                    "decodedMethod": null,
                    "errorInfo": "",
                    "fromAddress": "0x8678d753f522bcf4422aa3a765e67589714f5146",
                    "gasUsed": 0,
                    "id": 6,
                    "methodDecoded": false,
                    "operation": "CALL",
                    "output": "",
                    "revert": false,
                    "revertMessage": "",
                    "selector": "fallback",
                    "status": true,
                    "value": "0.00006"
                },
                "nodeType": 0
            },
            "7": {
                "event": {
                    "contract": "0x8678d753f522bcf4422aa3a765e67589714f5146",
                    "decodedLog": {
                        "name": "DeedClosed",
                        "params": [],
                        "signature": "DeedClosed()"
                    },
                    "id": 7,
                    "logData": "0x",
                    "logDecoded": true,
                    "operation": "EVENT",
                    "revert": false,
                    "status": true,
                    "topics": [
                        "0xbb2ce2f51803bba16bc85282b47deeea9a5c6223eabea1077be696b3f265cf13"
                    ]
                },
                "nodeType": 1
            },
            "8": {
                "invocation": {
                    "address": "0xf48906a0191fe68fa18cff00b05c7f4e8c8d7f80",
                    "callData": "0x",
                    "decodedMethod": null,
                    "errorInfo": "",
                    "fromAddress": "0x8678d753f522bcf4422aa3a765e67589714f5146",
                    "gasUsed": 0,
                    "id": 8,
                    "methodDecoded": false,
                    "operation": "CALL",
                    "output": "",
                    "revert": false,
                    "revertMessage": "",
                    "selector": "fallback",
                    "status": true,
                    "value": "0.01194"
                },
                "nodeType": 0
            },
            "9": {
                "invocation": {
                    "address": "0x000000000000000000000000000000000000dead",
                    "callData": "",
                    "decodedMethod": null,
                    "errorInfo": "",
                    "fromAddress": "0x8678d753f522bcf4422aa3a765e67589714f5146",
                    "gasUsed": 0,
                    "id": 9,
                    "methodDecoded": false,
                    "operation": "SELFDESTRUCT",
                    "output": "",
                    "revert": false,
                    "revertMessage": "",
                    "selector": "",
                    "status": true,
                    "value": "0"
                },
                "nodeType": 0
            }
        },
        "gasFlame": [
            {
                "children": [
                    {
                        "children": [
                            {
                                "children": [],
                                "depth": 0,
                                "name": "Initial Gas",
                                "value": 26072
                            },
                            {
                                "children": [
                                    {
                                        "children": [],
                                        "depth": 1,
                                        "name": "value",
                                        "value": 524
                                    },
                                    {
                                        "children": [
                                            {
                                                "children": [],
                                                "depth": 2,
                                                "name": "fallback",
                                                "value": 0
                                            }
                                        ],
                                        "depth": 1,
                                        "name": "setBalance",
                                        "value": 7633
                                    },
                                    {
                                        "children": [],
                                        "depth": 1,
                                        "name": "creationDate",
                                        "value": 436
                                    },
                                    {
                                        "children": [
                                            {
                                                "children": [],
                                                "depth": 2,
                                                "name": "fallback",
                                                "value": 0
                                            },
                                            {
                                                "children": [],
                                                "depth": 2,
                                                "name": "fallback",
                                                "value": 0
                                            },
                                            {
                                                "children": [],
                                                "depth": 2,
                                                "name": "",
                                                "value": 0
                                            }
                                        ],
                                        "depth": 1,
                                        "name": "closeDeed",
                                        "value": 28282
                                    }
                                ],
                                "depth": 0,
                                "name": "Executed Gas",
                                "value": 74412
                            }
                        ],
                        "depth": -1,
                        "name": "Actual Gas Used",
                        "value": 50242
                    },
                    {
                        "children": [],
                        "depth": -1,
                        "name": "Refunded Gas",
                        "value": 50242
                    }
                ],
                "depth": -2,
                "name": "Total Gas",
                "value": 100484
            }
        ],
        "isConfirmed": true,
        "mainTrace": [
            {
                "children": [
                    {
                        "children": [
                            {
                                "children": [],
                                "depth": 1,
                                "id": 1,
                                "order": 1
                            },
                            {
                                "children": [
                                    {
                                        "children": [],
                                        "depth": 2,
                                        "id": 3,
                                        "order": 3
                                    }
                                ],
                                "depth": 1,
                                "id": 2,
                                "order": 2
                            },
                            {
                                "children": [],
                                "depth": 1,
                                "id": 4,
                                "order": 4
                            },
                            {
                                "children": [
                                    {
                                        "children": [],
                                        "depth": 2,
                                        "id": 6,
                                        "order": 6
                                    },
                                    {
                                        "children": [],
                                        "depth": 2,
                                        "id": 7,
                                        "order": 7
                                    },
                                    {
                                        "children": [],
                                        "depth": 2,
                                        "id": 8,
                                        "order": 8
                                    },
                                    {
                                        "children": [],
                                        "depth": 2,
                                        "id": 9,
                                        "order": 9
                                    }
                                ],
                                "depth": 1,
                                "id": 5,
                                "order": 5
                            },
                            {
                                "children": [],
                                "depth": 1,
                                "id": 10,
                                "order": 10
                            }
                        ],
                        "depth": 0,
                        "id": 0,
                        "order": 0
                    }
                ],
                "depth": -1,
                "id": -1,
                "order": -1
            }
        ],
        "mainTraceNodeCount": 11,
        "parentIdMap": {
            "0": -1,
            "1": 0,
            "10": 0,
            "2": 0,
            "3": 2,
            "4": 0,
            "5": 0,
            "6": 5,
            "7": 5,
            "8": 5,
            "9": 5
        },
        "tidyTrace": [
            {
                "children": [
                    {
                        "children": [
                            {
                                "children": [],
                                "depth": 1,
                                "id": 1,
                                "order": 1
                            },
                            {
                                "children": [
                                    {
                                        "children": [],
                                        "depth": 2,
                                        "id": 3,
                                        "order": 3
                                    }
                                ],
                                "depth": 1,
                                "id": 2,
                                "order": 2
                            },
                            {
                                "children": [],
                                "depth": 1,
                                "id": 4,
                                "order": 4
                            },
                            {
                                "children": [
                                    {
                                        "children": [],
                                        "depth": 2,
                                        "id": 6,
                                        "order": 6
                                    },
                                    {
                                        "children": [],
                                        "depth": 2,
                                        "id": 7,
                                        "order": 7
                                    },
                                    {
                                        "children": [],
                                        "depth": 2,
                                        "id": 8,
                                        "order": 8
                                    },
                                    {
                                        "children": [],
                                        "depth": 2,
                                        "id": 9,
                                        "order": 9
                                    }
                                ],
                                "depth": 1,
                                "id": 5,
                                "order": 5
                            },
                            {
                                "children": [],
                                "depth": 1,
                                "id": 10,
                                "order": 10
                            }
                        ],
                        "depth": 0,
                        "id": 0,
                        "order": 0
                    }
                ],
                "depth": -1,
                "id": -1,
                "order": -1
            }
        ],
        "tidyTraceNodeCount": 11
    },
    "state_change": {
        "stateChanges": [
            {
                "address": "0x6090a6e47849629b7245dfa1ca21d94cd15878ef",
                "erc": "",
                "slots": [
                    {
                        "current": "0x0000000000000000000000000000000000000000000000000000000000000000",
                        "key": "0xa7b66bcad208257da47082db8f52de10cf6ddeb981797ac353edf15962e5eb1c",
                        "prev": "0x0000000000000000000000008678d753f522bcf4422aa3a765e67589714f5146"
                    },
                    {
                        "current": "0x000000000000000000000000000000000000000000000000002aa1efb94e0000",
                        "key": "0xf079e9b5a4de5462b024eef437bb90a710dd3cad4c4f4a46a759848e7f61e033",
                        "prev": "0x0000000000000000000000000000000000000000000000000000000000000000"
                    }
                ],
                "storageVariables": []
            },
            {
                "address": "0x8678d753f522bcf4422aa3a765e67589714f5146",
                "erc": "",
                "slots": [
                    {
                        "current": "0x0000000000000000000000000000000000000000000000000000000000000000",
                        "key": "0x0000000000000000000000000000000000000000000000000000000000000005",
                        "prev": "0x0000000000000000000000000000000000000000000000000000000000000001"
                    }
                ],
                "storageVariables": []
            }
        ]
    }
}