{
    "balance_change": {
        "balanceChanges": [
            {
                "account": "0x48ec5560bfd59b95859965cce48cc244cfdf6b0c",
                "assets": [
                    {
                        "address": "0xdac17f958d2ee523a2206206994597c13d831ec7",
                        "amount": "195.74752",
                        "iconUrl": "https://assets.blocksec.com/icon/fcea71f3193ce895be44bfdf941f7e4c9381dd587f273c2d1a27f1263d84e4ea.png",
                        "isERC1155": false,
                        "isERC721": false,
                        "sign": false,
                        "value": "195.66922099200000863"
                    }
                ]
            },
            {
                "account": "0x15d5a503c6abd07e6c4b654af1e15863beed68f5",
                "assets": [
                    {
                        "address": "0xdac17f958d2ee523a2206206994597c13d831ec7",
                        "amount": "195.74752",
                        "iconUrl": "https://assets.blocksec.com/icon/fcea71f3193ce895be44bfdf941f7e4c9381dd587f273c2d1a27f1263d84e4ea.png",
                        "isERC1155": false,
                        "isERC721": false,
                        "sign": true,
                        "value": "195.66922099200000863"
                    }
                ]
            }
        ]
    },
    "profile": {
        "basic_info": {
            "baseFee": "34.643892015",
            "blockNumber": 17414413,
            "callData": "0x0dcd7a6c00000000000000000000000015d5a503c6abd07e6c4b654af1e15863beed68f5000000000000000000000000000000000000000000000000000000000baadec0000000000000000000000000dac17f958d2ee523a2206206994597c13d831ec700000000000000000000000000000000000000000000000000000000648713ae000000000000000000000000000000000000000000000000000000000000e71800000000000000000000000000000000000000000000000000000000000000c0000000000000000000000000000000000000000000000000000000000000004150c677e5ae7469ddf4105c2591a6bbe514b6135300b71621144270deecd1097477fc877d22f994b7a0588fa4161c6199c468909b9a42169e96ac7e3b906d84691c00000000000000000000000000000000000000000000000000000000000000",
            "debugEnable": true,
            "errorInfo": "",
            "eventCount": 1,
            "feeRecipient": "0x95222290dd7278aa3ddd389cc1e1d165cc4bafe5",
            "formatValue": "0",
            "gasLimit": 212487,
            "gasPrice": "35.690392015",
            "gasUsed": 110684,
            "intTxnCount": 3,
            "internalRevert": false,
            "internalRevertMessage": "",
            "isContractCreation": false,
            "isFlashloan": false,
            "maxFee": "74.256831838",
            "nonce": 61907,
            "overwritedBlockNumber": -1,
            "priorityFee": "1.0465",
            "receiver": "0x48ec5560bfd59b95859965cce48cc244cfdf6b0c",
            "revertMessage": "",
            "sender": "0x538d72ded42a76a30f730292da939e0577f22f57",
            "simulationEnable": true,
            "sourceTxnHash": "0x193dcc7e5e80f07c4a4c0372cd507fa67061aeebec223f025292730546466c2a",
            "status": true,
            "timestamp": "2023-06-05T12:46:59Z",
            "transactionFee": "0.00395035534978826",
            "txnHash": "0x193dcc7e5e80f07c4a4c0372cd507fa67061aeebec223f025292730546466c2a",
            "txnIndex": 71,
            "type": 2,
            "value": "0"
        },
        "fund_flow": [
            {
                "amount": "195.74752",
                "from": "0x48ec5560bfd59b95859965cce48cc244cfdf6b0c",
                "id": 1,
                "isERC1155": false,
                "isERC721": false,
                "isReverted": false,
                "order": 1,
                "to": "0x15d5a503c6abd07e6c4b654af1e15863beed68f5",
                "token": "0xdac17f958d2ee523a2206206994597c13d831ec7"
            }
        ],
        "token_infos": [
            {
                "address": "0xc02aaa39b223fe8d0a0e5c4f27ead9083c756cc2",
                "decimals": 18
            },
            {
                "address": "0xdac17f958d2ee523a2206206994597c13d831ec7",
                "decimals": 6
            },
            {
                "address": "0xeeeeeeeeeeeeeeeeeeeeeeeeeeeeeeeeeeeeeeee",
                "decimals": 18
            }
        ]
    },
    "address_label": {
        "labels": [
            {
                "address": "0x15d5a503c6abd07e6c4b654af1e15863beed68f5",
                "label": "BINANCE"
            },
            {
                "address": "0xdac17f958d2ee523a2206206994597c13d831ec7",
                "label": "Tether: USDT Stablecoin"
            },
            {
                "address": "0x538d72ded42a76a30f730292da939e0577f22f57",
                "label": "Bitstamp: Deployer"
            },
            {
                "address": "0x0000000000000000000000000000000000000001",
                "label": "Precompiled"
            },
            {
                "address": "0x0000000000000000000000000000000000000004",
                "label": "Precompiled"
            },
            {
                "address": "0xeeeeeeeeeeeeeeeeeeeeeeeeeeeeeeeeeeeeeeee",
                "label": "Ether"
            },
            {
                "address": "0x48ec5560bfd59b95859965cce48cc244cfdf6b0c",
                "label": "Bitstamp: Wallet"
            },
            {
                "address": "0xe8e847cf573fc8ed75621660a36affd18c543d7e",
                "label": "WalletSimple"
            },
            {
                "address": "0x0000000000000000000000000000000000000002",
                "label": "Precompiled"
            },
            {
                "address": "0x0000000000000000000000000000000000000003",
                "label": "Precompiled"
            }
        ]
    },
    "trace": {
        "accountLabels": null,
        "dataMap": {
            "-1": {
                "invocation": {
                    "address": "0x538d72ded42a76a30f730292da939e0577f22f57",
                    "callData": "",
                    "decodedMethod": null,
                    "errorInfo": "",
                    "fromAddress": "",
                    "gasUsed": 0,
                    "id": -1,
                    "methodDecoded": false,
                    "operation": "",
                    "output": "",
                    "revert": false,
                    "revertMessage": "",
                    "selector": "",
                    "status": false,
                    "value": ""
                },
                "nodeType": 0
            },
            "0": {
                "invocation": {
                    "address": "0x48ec5560bfd59b95859965cce48cc244cfdf6b0c",
                    "callData": "0x00000000000000000000000015d5a503c6abd07e6c4b654af1e15863beed68f5000000000000000000000000000000000000000000000000000000000baadec0000000000000000000000000dac17f958d2ee523a2206206994597c13d831ec700000000000000000000000000000000000000000000000000000000648713ae000000000000000000000000000000000000000000000000000000000000e71800000000000000000000000000000000000000000000000000000000000000c0000000000000000000000000000000000000000000000000000000000000004150c677e5ae7469ddf4105c2591a6bbe514b6135300b71621144270deecd1097477fc877d22f994b7a0588fa4161c6199c468909b9a42169e96ac7e3b906d84691c00000000000000000000000000000000000000000000000000000000000000",
                    "decodedMethod": {
                        "callParams": [
                            {
                                "name": "toAddress",
                                "type": "address",
                                "value": "0x15d5a503c6abd07e6c4b654af1e15863beed68f5"
                            },
                            {
                                "name": "value",
                                "type": "uint256",
                                "value": "195,747,520"
                            },
                            {
                                "name": "tokenContractAddress",
                                "type": "address",
                                "value": "0xdac17f958d2ee523a2206206994597c13d831ec7"
                            },
                            {
                                "name": "expireTime",
                                "type": "uint256",
                                "value": "1,686,573,998"
                            },
                            {
                                "name": "sequenceId",
                                "type": "uint256",
                                "value": "59,160"
                            },
                            {
                                "name": "signature",
                                "type": "bytes",
                                "value": "0x50c677e5ae7469ddf4105c2591a6bbe514b6135300b71621144270deecd1097477fc877d22f994b7a0588fa4161c6199c468909b9a42169e96ac7e3b906d84691c"
                            }
                        ],
                        "constructorArguments": "",
                        "name": "sendMultiSigToken",
                        "returnParams": [],
                        "signature": "sendMultiSigToken(address,uint256,address,uint256,uint256,bytes)"
                    },
                    "errorInfo": "",
                    "fromAddress": "0x538d72ded42a76a30f730292da939e0577f22f57",
                    "gasUsed": 110684,
                    "id": 0,
                    "methodDecoded": true,
                    "operation": "CALL",
                    "output": "",
                    "revert": false,
                    "revertMessage": "",
                    "selector": "0x0dcd7a6c",
                    "status": true,
                    "value": "0"
                },
                "nodeType": 0
            },
            "1": {
                "invocation": {
                    "address": "0xe8e847cf573fc8ed75621660a36affd18c543d7e",
                    "callData": "0x00000000000000000000000015d5a503c6abd07e6c4b654af1e15863beed68f5000000000000000000000000000000000000000000000000000000000baadec0000000000000000000000000dac17f958d2ee523a2206206994597c13d831ec700000000000000000000000000000000000000000000000000000000648713ae000000000000000000000000000000000000000000000000000000000000e71800000000000000000000000000000000000000000000000000000000000000c0000000000000000000000000000000000000000000000000000000000000004150c677e5ae7469ddf4105c2591a6bbe514b6135300b71621144270deecd1097477fc877d22f994b7a0588fa4161c6199c468909b9a42169e96ac7e3b906d84691c00000000000000000000000000000000000000000000000000000000000000",
                    "decodedMethod": {
                        "callParams": [
                            {
                                "name": "toAddress",
                                "type": "address",
                                "value": "0x15d5a503c6abd07e6c4b654af1e15863beed68f5"
                            },
                            {
                                "name": "value",
                                "type": "uint256",
                                "value": "195,747,520"
                            },
                            {
                                "name": "tokenContractAddress",
                                "type": "address",
                                "value": "0xdac17f958d2ee523a2206206994597c13d831ec7"
                            },
                            {
                                "name": "expireTime",
                                "type": "uint256",
                                "value": "1,686,573,998"
                            },
                            {
                                "name": "sequenceId",
                                "type": "uint256",
                                "value": "59,160"
                            },
                            {
                                "name": "signature",
                                "type": "bytes",
                                "value": "0x50c677e5ae7469ddf4105c2591a6bbe514b6135300b71621144270deecd1097477fc877d22f994b7a0588fa4161c6199c468909b9a42169e96ac7e3b906d84691c"
                            }
                        ],
                        "constructorArguments": "",
                        "name": "sendMultiSigToken",
                        "returnParams": [],
                        "signature": "sendMultiSigToken(address,uint256,address,uint256,uint256,bytes)"
                    },
                    "errorInfo": "",
                    "fromAddress": "0x48ec5560bfd59b95859965cce48cc244cfdf6b0c",
                    "gasUsed": 84225,
                    "id": 1,
                    "methodDecoded": true,
                    "operation": "DELEGATECALL",
                    "output": "",
                    "revert": false,
                    "revertMessage": "",
                    "selector": "0x0dcd7a6c",
                    "status": true,
                    "value": "0"
                },
                "nodeType": 0
            },
            "2": {
                "invocation": {
                    "address": "0x0000000000000000000000000000000000000001",
                    "callData": "0xdc1f9c241f06cc346545aea776b1ca942f2583a55df162520ef770ea000000000000000000000000000000000000000000000000000000000000001c50c677e5ae7469ddf4105c2591a6bbe514b6135300b71621144270deecd1097477fc877d22f994b7a0588fa4161c6199c468909b9a42169e96ac7e3b906d8469",
                    "decodedMethod": {
                        "callParams": [
                            {
                                "name": "hash",
                                "type": "bytes32",
                                "value": "0xcb3faa9adc1f9c241f06cc346545aea776b1ca942f2583a55df162520ef770ea"
                            },
                            {
                                "name": "v",
                                "type": "uint256",
                                "value": "28"
                            },
                            {
                                "name": "r",
                                "type": "bytes32",
                                "value": "0x50c677e5ae7469ddf4105c2591a6bbe514b6135300b71621144270deecd10974"
                            },
                            {
                                "name": "s",
                                "type": "bytes32",
                                "value": "0x77fc877d22f994b7a0588fa4161c6199c468909b9a42169e96ac7e3b906d8469"
                            }
                        ],
                        "constructorArguments": "",
                        "name": "ecrecover",
                        "returnParams": [
                            {
                                "name": "",
                                "type": "address",
                                "value": "0x7e06ec2471f9fa456d30f854b45567efbb70c85e"
                            }
                        ],
                        "signature": "ecrecover(bytes32,uint256,bytes32,bytes32)"
                    },
                    "errorInfo": "",
                    "fromAddress": "0x48ec5560bfd59b95859965cce48cc244cfdf6b0c",
                    "gasUsed": 3000,
                    "id": 2,
                    "methodDecoded": true,
                    "operation": "STATICCALL",
                    "output": "0x0000000000000000000000007e06ec2471f9fa456d30f854b45567efbb70c85e",
                    "revert": false,
                    "revertMessage": "",
                    "selector": "0xcb3faa9a",
                    "status": true,
                    "value": "0"
                },
                "nodeType": 0
            },
            "3": {
                "invocation": {
                    "address": "0xdac17f958d2ee523a2206206994597c13d831ec7",
                    "callData": "0x00000000000000000000000015d5a503c6abd07e6c4b654af1e15863beed68f5000000000000000000000000000000000000000000000000000000000baadec0",
                    "decodedMethod": {
                        "callParams": [
                            {
                                "name": "_to",
                                "type": "address",
                                "value": "0x15d5a503c6abd07e6c4b654af1e15863beed68f5"
                            },
                            {
                                "decimalAvailable": true,
                                "name": "_value",
                                "type": "uint256",
                                "value": "195,747,520"
                            }
                        ],
                        "constructorArguments": "",
                        "name": "transfer",
                        "returnParams": [],
                        "signature": "transfer(address,uint256)"
                    },
                    "errorInfo": "",
                    "fromAddress": "0x48ec5560bfd59b95859965cce48cc244cfdf6b0c",
                    "gasUsed": 41601,
                    "id": 3,
                    "methodDecoded": true,
                    "operation": "CALL",
                    "output": "",
                    "revert": false,
                    "revertMessage": "",
                    "selector": "0xa9059cbb",
                    "status": true,
                    "value": "0"
                },
                "nodeType": 0
            },
            "4": {
                "event": {
                    "contract": "0xdac17f958d2ee523a2206206994597c13d831ec7",
                    "decodedLog": {
                        "name": "Transfer",
                        "params": [
                            {
                                "name": "from",
                                "type": "address",
                                "value": "0x48ec5560bfd59b95859965cce48cc244cfdf6b0c"
                            },
                            {
                                "name": "to",
                                "type": "address",
                                "value": "0x15d5a503c6abd07e6c4b654af1e15863beed68f5"
                            },
                            {
                                "decimalAvailable": true,
                                "name": "value",
                                "type": "uint256",
                                "value": "195,747,520"
                            }
                        ],
                        "signature": "Transfer(address,address,uint256)"
                    },
                    "id": 4,
                    "logData": "0x000000000000000000000000000000000000000000000000000000000baadec0",
                    "logDecoded": true,
                    "operation": "EVENT",
                    "revert": false,
                    "status": true,
                    "topics": [
                        "0xddf252ad1be2c89b69c2b068fc378daa952ba7f163c4a11628f55a4df523b3ef",
                        "0x00000000000000000000000048ec5560bfd59b95859965cce48cc244cfdf6b0c",
                        "0x00000000000000000000000015d5a503c6abd07e6c4b654af1e15863beed68f5"
                    ]
                },
                "nodeType": 1
            }
        },
        "gasFlame": [
            {
                "children": [
                    {
                        "children": [
                            {
                                "children": [],
                                "depth": 0,
                                "name": "Initial Gas",
                                "value": 23736
                            },
                            {
                                "children": [
                                    {
                                        "children": [
                                            {
                                                "children": [],
                                                "depth": 2,
                                                "name": "ecrecover",
                                                "value": 3000
                                            },
                                            {
                                                "children": [],
                                                "depth": 2,
                                                "name": "transfer",
                                                "value": 41601
                                            }
                                        ],
                                        "depth": 1,
                                        "name": "sendMultiSigToken",
                                        "value": 84225
                                    }
                                ],
                                "depth": 0,
                                "name": "Executed Gas",
                                "value": 86948
                            }
                        ],
                        "depth": -1,
                        "name": "Actual Gas Used",
                        "value": 110684
                    },
                    {
                        "children": [],
                        "depth": -1,
                        "name": "Refunded Gas",
                        "value": 0
                    }
                ],
                "depth": -2,
                "name": "Total Gas",
                "value": 110684
            }
        ],
        "isConfirmed": true,
        "mainTrace": [
            {
                "children": [
                    {
                        "children": [
                            {
                                "children": [
                                    {
                                        "children": [],
                                        "depth": 2,
                                        "id": 2,
                                        "order": 2
                                    },
                                    {
                                        "children": [
                                            {
                                                "children": [],
                                                "depth": 3,
                                                "id": 4,
                                                "order": 4
                                            }
                                        ],
                                        "depth": 2,
                                        "id": 3,
                                        "order": 3
                                    }
                                ],
                                "depth": 1,
                                "id": 1,
                                "order": 1
                            }
                        ],
                        "depth": 0,
                        "id": 0,
                        "order": 0
                    }
                ],
                "depth": -1,
                "id": -1,
                "order": -1
            }
        ],
        "mainTraceNodeCount": 5,
        "parentIdMap": {
            "0": -1,
            "1": 0,
            "2": 1,
            "3": 1,
            "4": 3
        },
        "tidyTrace": [
            {
                "children": [
                    {
                        "children": [
                            {
                                "children": [
                                    {
                                        "children": [
                                            {
                                                "children": [],
                                                "depth": 3,
                                                "id": 4,
                                                "order": 4
                                            }
                                        ],
                                        "depth": 2,
                                        "id": 3,
                                        "order": 3
                                    }
                                ],
                                "depth": 1,
                                "id": 1,
                                "order": 1
                            }
                        ],
                        "depth": 0,
                        "id": 0,
                        "order": 0
                    }
                ],
                "depth": -1,
                "id": -1,
                "order": -1
            }
        ],
        "tidyTraceNodeCount": 4
    },
    "state_change": {
        "stateChanges": [
            {
                "address": "0x48ec5560bfd59b95859965cce48cc244cfdf6b0c",
                "erc": "",
                "slots": [
                    {
                        "current": "0x000000000000000000000000000000000000000000000000000000000000e718",
                        "key": "0x000000000000000000000000000000000000000000000000000000000000000a",
                        "prev": "0x000000000000000000000000000000000000000000000000000000000000e70e"
                    }
                ],
                "storageVariables": []
            },
            {
                "address": "0xdac17f958d2ee523a2206206994597c13d831ec7",
                "erc": "ERC-20",
                "slots": [
                    {
                        "current": "0x0000000000000000000000000000000000000000000000000000087e8e52d8f7",
                        "key": "0x57a447c8f45a2a1918dc21d387312c2756bbcb67362b6a8416ae0f56adc2420a",
                        "prev": "0x0000000000000000000000000000000000000000000000000000087e99fdb7b7"
                    },
                    {
                        "current": "0x000000000000000000000000000000000000000000000000000000000baadec0",
                        "key": "0x243e53342735c37417431880182de1684b2834c4ee625dcb929db2157e6735f4",
                        "prev": "0x0000000000000000000000000000000000000000000000000000000000000000"
                    }
                ],
                "storageVariables": [
                    {
                        "name": "balances",
                        "type": "mapping(address => uint256)",
                        "value": {
                            "pairs": [
                                {
                                    "key": "0x15d5a503c6abd07e6c4b654af1e15863beed68f5",
                                    "value": {
                                        "current": "195747520",
                                        "prev": "0",
                                        "typeTag": 1
                                    }
                                },
                                {
                                    "key": "0x48ec5560bfd59b95859965cce48cc244cfdf6b0c",
                                    "value": {
                                        "current": "9339646695671",
                                        "prev": "9339842443191",
                                        "typeTag": 1
                                    }
                                }
                            ],
                            "typeTag": 4
                        }
                    }
                ]
            }
        ]
    }
}