{
    "balance_change": {
        "balanceChanges": [
            {
                "account": "0x7407ee6e48f481d9742f9ef4bc4aae4be401dbf6",
                "assets": [
                    {
                        "address": "0xc02aaa39b223fe8d0a0e5c4f27ead9083c756cc2",
                        "amount": "0.118524376903619773",
                        "iconUrl": "https://assets.blocksec.com/icon/f1cb2d02c471d545bbc7722daf3277fd852d98e63d118771af7047bd8256c516.png",
                        "isERC1155": false,
                        "isERC721": false,
                        "sign": true,
                        "value": "244.32615054166001078"
                    },
                    {
                        "address": "0xcaa79bf8b1d00bf3d4f6dbec6221955871c04618",
                        "amount": "196,256.528524493185408132",
                        "iconUrl": "",
                        "isERC1155": false,
                        "isERC721": false,
                        "sign": false,
                        "value": "258.9935555"
                    }
                ]
            },
            {
                "account": "0x6b268960693359f8c64e043d72ce7580867521b2",
                "assets": [
                    {
                        "address": "0xcaa79bf8b1d00bf3d4f6dbec6221955871c04618",
                        "amount": "186,443.702098268526137726",
                        "iconUrl": "",
                        "isERC1155": false,
                        "isERC721": false,
                        "sign": true,
                        "value": "245.1421673"
                    },
                    {
                        "address": "0xc02aaa39b223fe8d0a0e5c4f27ead9083c756cc2",
                        "amount": "0.118881019963510303",
                        "iconUrl": "https://assets.blocksec.com/icon/f1cb2d02c471d545bbc7722daf3277fd852d98e63d118771af7047bd8256c516.png",
                        "isERC1155": false,
                        "isERC721": false,
                        "sign": false,
                        "value": "245.06133462800001081"
                    }
                ]
            },
            {
                "account": "0x96c195f6643a3d797cb90cb6ba0ae2776d51b5f3",
                "assets": [
                    {
                        "address": "0xc02aaa39b223fe8d0a0e5c4f27ead9083c756cc2",
                        "amount": "0.00035664305989053",
                        "iconUrl": "https://assets.blocksec.com/icon/f1cb2d02c471d545bbc7722daf3277fd852d98e63d118771af7047bd8256c516.png",
                        "isERC1155": false,
                        "isERC721": false,
                        "sign": true,
                        "value": "0.73518400367786003246"
                    }
                ]
            },
            {
                "account": "0xcaa79bf8b1d00bf3d4f6dbec6221955871c04618",
                "assets": [
                    {
                        "address": "0xcaa79bf8b1d00bf3d4f6dbec6221955871c04618",
                        "amount": "9,812.826426224659270406",
                        "iconUrl": "",
                        "isERC1155": false,
                        "isERC721": false,
                        "sign": true,
                        "value": "12.92529517"
                    }
                ]
            }
        ]
    },
    "profile": {
        "basic_info": {
            "baseFee": "55.947695676",
            "blockNumber": 18671734,
            "callData": "0x8af033fb000000000000000000000000f081470f5c6fbccf48cc4e5b82dd926409dcdd67000000000000000000000000000000000000000000000000000000000000008000000000000000000000000000000000000000000000000000000000000002c00000000000000000000000000000000000000000000000000000000000000680000000000000000000000000caa79bf8b1d00bf3d4f6dbec6221955871c04618000000000000000000000000c02aaa39b223fe8d0a0e5c4f27ead9083c756cc20000000000000000000000000000000000000000000000000000000000000160000000000000000000000000000000000000000000000000000000000000018000000000000000000000000000000000000000000000000000000000000001a000000000000000000000000000000000000000000000000000000000000001e00000000000000000000000007407ee6e48f481d9742f9ef4bc4aae4be401dbf600000000000000000000000000000000000000000000298f1675715fc5e8dc84000000000000000000000000000000000000000000000000019ef1372dfd2cbb00000000000000000000000000000000000000000000000000000000000000e0000000000000000000000000000000000000000000000000000000000000022000000000000000000000000000000000000000000000000000000000000000000000000000000000000000000000000000000000000000000000000000000000000000000000000000000000000000000000000000000000000000000000000100000000000000000000000096c195f6643a3d797cb90cb6ba0ae2776d51b5f30000000000000000000000000000000000000000000000000000000000000001000000000000000000000000000000000000000000000000000000000000001e000000000000000000000000000000000000000000000000000000000000000000000000000000000000000000000000000000000000000000000000000003a0000000000000000000000000000000000000000000000000000000000000002000000000000000000000000000000000000000000000000000000000000000a000000000000000000000000000000000000000000000000000000000000000e000000000000000000000000000000000000000000000000000000000000001200000000000000000000000000000000000000000000000000000000065662bcb000000000000000000000000000000000000000000000000000000000000034000000000000000000000000000000000000000000000000000000000000000010000000000000000000000006b268960693359f8c64e043d72ce7580867521b2000000000000000000000000000000000000000000000000000000000000000100000000000000000000000000000000000000000000298f1675715fc5e8dc840000000000000000000000000000000000000000000000000000000000000001000000000000000000000000000000000000000000000000000000000000002000000000000000000000000000000000000000000000000000000000000001c00000000000000000000000000000000000000000000000000000000000000020000000000000000000000000000000000000000000000000000000000000000100000000000000000000000000000000000000000000000000000000000000200000000000000000000000000000000000000000000000000000000000000040593611990000000000000000000000000000000000000000000000000000000200000000000000000000000000000000000000000000000000000000000001000000000000000000000000006b268960693359f8c64e043d72ce7580867521b2000000000000000000000000caa79bf8b1d00bf3d4f6dbec6221955871c04618000000000000000000000000c02aaa39b223fe8d0a0e5c4f27ead9083c756cc2000000000000000000000000f081470f5c6fbccf48cc4e5b82dd926409dcdd670000000000000000000000000000000000000000000000000000000000000000000000000000000000000000000000000000000000000000000000000000001e00000000000000000000000000000000000000000000000000000000000027100000000000000000000000000000000000000000000000000000000000000032000000000000000000000000000000000000000000000000000000000000002000000000000000000000001ccd4f03fc000000000000000001b77bc2ee9198b900000000000000000000000000000000000000000000000000000000000001f97b22536f75726365223a22646578746f6f6c73222c22416d6f756e74496e555344223a223235352e3435373331303335333930363534222c22416d6f756e744f7574555344223a223235352e3534323631323732393430343432222c22526566657272616c223a22222c22466c616773223a312c22496e74656772697479496e666f223a7b224b65794944223a2231222c225369676e6174757265223a2243557766796f4c54736669556b6b50674469496a5633744757564841755a6b4a4d5a4d746d5a325454475034466b6d433249656f33794d32564d626a34705375702f65413736465a2b4f646e705879477565797048455253616c387553612f3550556538792f69453046374a78613441686f645368695638636a5748546b52495475527732527061314356304d62723748626d6552676b58344b6b72755543314a476a39676474743655516a716546726b6d4a597774334e6a6d637941697345553951346455356a55776162386f4f7179626e4b497a596b6e45456c6c6c596c6c31594d626a6c642b7661496f48416771447a35534a426b3144424c6a694e716273576261575477443162513977763734774172723544616a3270534c6a756569466e4579716d4e625a3178614354644b4161624a50704d345666686f6e6f39664a36613234734e3574333464507659345930566e513d3d227d7d00000000000000",
            "debugEnable": true,
            "errorInfo": "",
            "eventCount": 13,
            "feeRecipient": "0x976868c1de3b3ef448ec5e20e6a8470508b9467d",
            "formatValue": "0",
            "gasLimit": 305014,
            "gasPrice": "56.831947745",
            "gasUsed": 264085,
            "intTxnCount": 26,
            "internalRevert": false,
            "internalRevertMessage": "",
            "isContractCreation": false,
            "isFlashloan": false,
            "maxFee": "56.831947745",
            "nonce": 83,
            "overwritedBlockNumber": -1,
            "priorityFee": "56.831947745",
            "receiver": "0x6131b5fae19ea4f9d964eac0408e4408b66337b5",
            "revertMessage": "",
            "sender": "0x7407ee6e48f481d9742f9ef4bc4aae4be401dbf6",
            "simulationEnable": true,
            "sourceTxnHash": "0x191e6413dc399b4b919318f0945cb33d212645e329c41faaea382050f62376e2",
            "status": true,
            "timestamp": "2023-11-28T17:53:35Z",
            "transactionFee": "0.015008464920238325",
            "txnHash": "0x191e6413dc399b4b919318f0945cb33d212645e329c41faaea382050f62376e2",
            "txnIndex": 65,
            "type": 2,
            "value": "0"
        },
        "fund_flow": [
            {
                "amount": "9,812.826426224659270406",
                "from": "0x7407ee6e48f481d9742f9ef4bc4aae4be401dbf6",
                "id": 1,
                "isERC1155": false,
                "isERC721": false,
                "isReverted": false,
                "order": 1,
                "to": "0xcaa79bf8b1d00bf3d4f6dbec6221955871c04618",
                "token": "0xcaa79bf8b1d00bf3d4f6dbec6221955871c04618"
            },
            {
                "amount": "186,443.702098268526137726",
                "from": "0x7407ee6e48f481d9742f9ef4bc4aae4be401dbf6",
                "id": 2,
                "isERC1155": false,
                "isERC721": false,
                "isReverted": false,
                "order": 2,
                "to": "0x6b268960693359f8c64e043d72ce7580867521b2",
                "token": "0xcaa79bf8b1d00bf3d4f6dbec6221955871c04618"
            },
            {
                "amount": "0.118881019963510303",
                "from": "0x6b268960693359f8c64e043d72ce7580867521b2",
                "id": 3,
                "isERC1155": false,
                "isERC721": false,
                "isReverted": false,
                "order": 3,
                "to": "0xf081470f5c6fbccf48cc4e5b82dd926409dcdd67",
                "token": "0xc02aaa39b223fe8d0a0e5c4f27ead9083c756cc2"
            },
            {
                "amount": "0.118881019963510303",
                "from": "0xf081470f5c6fbccf48cc4e5b82dd926409dcdd67",
                "id": 4,
                "isERC1155": false,
                "isERC721": false,
                "isReverted": false,
                "order": 4,
                "to": "0x6131b5fae19ea4f9d964eac0408e4408b66337b5",
                "token": "0xc02aaa39b223fe8d0a0e5c4f27ead9083c756cc2"
            },
            {
                "amount": "0.00035664305989053",
                "from": "0x6131b5fae19ea4f9d964eac0408e4408b66337b5",
                "id": 5,
                "isERC1155": false,
                "isERC721": false,
                "isReverted": false,
                "order": 5,
                "to": "0x96c195f6643a3d797cb90cb6ba0ae2776d51b5f3",
                "token": "0xc02aaa39b223fe8d0a0e5c4f27ead9083c756cc2"
            },
            {
                "amount": "0.118524376903619773",
                "from": "0x6131b5fae19ea4f9d964eac0408e4408b66337b5",
                "id": 6,
                "isERC1155": false,
                "isERC721": false,
                "isReverted": false,
                "order": 6,
                "to": "0x7407ee6e48f481d9742f9ef4bc4aae4be401dbf6",
                "token": "0xc02aaa39b223fe8d0a0e5c4f27ead9083c756cc2"
            }
        ],
        "token_infos": [
            {
                "address": "0xc02aaa39b223fe8d0a0e5c4f27ead9083c756cc2",
                "decimals": 18
            },
            {
                "address": "0xcaa79bf8b1d00bf3d4f6dbec6221955871c04618",
                "decimals": 18
            },
            {
                "address": "0xeeeeeeeeeeeeeeeeeeeeeeeeeeeeeeeeeeeeeeee",
                "decimals": 18
            }
        ]
    },
    "address_label": {
        "labels": [
            {
                "address": "0xcaa79bf8b1d00bf3d4f6dbec6221955871c04618",
                "label": "CrocBot: CROC Token"
            },
            {
                "address": "0x0000000000000000000000000000000000000002",
                "label": "Precompiled"
            },
            {
                "address": "0x0000000000000000000000000000000000000003",
                "label": "Precompiled"
            },
            {
                "address": "0x0000000000000000000000000000000000000004",
                "label": "Precompiled"
            },
            {
                "address": "0xeeeeeeeeeeeeeeeeeeeeeeeeeeeeeeeeeeeeeeee",
                "label": "Ether"
            },
            {
                "address": "0xc02aaa39b223fe8d0a0e5c4f27ead9083c756cc2",
                "label": "Wrapped Ether (WETH)"
            },
            {
                "address": "0x6131b5fae19ea4f9d964eac0408e4408b66337b5",
                "label": "KyberSwap: Meta Aggregation Router v2"
            },
            {
                "address": "0xf081470f5c6fbccf48cc4e5b82dd926409dcdd67",
                "label": "Kyber Network 0xf08147"
            },
            {
                "address": "0x6b268960693359f8c64e043d72ce7580867521b2",
                "label": "Uniswap V2: CROC 24"
            },
            {
                "address": "0x0000000000000000000000000000000000000001",
                "label": "Precompiled"
            }
        ]
    },
    "trace": {
        "accountLabels": null,
        "dataMap": {
            "-1": {
                "invocation": {
                    "address": "0x7407ee6e48f481d9742f9ef4bc4aae4be401dbf6",
                    "callData": "",
                    "decodedMethod": null,
                    "errorInfo": "",
                    "fromAddress": "",
                    "gasUsed": 0,
                    "id": -1,
                    "methodDecoded": false,
                    "operation": "",
                    "output": "",
                    "revert": false,
                    "revertMessage": "",
                    "selector": "",
                    "status": false,
                    "value": ""
                },
                "nodeType": 0
            },
            "0": {
                "invocation": {
                    "address": "0x6131b5fae19ea4f9d964eac0408e4408b66337b5",
                    "callData": "0x000000000000000000000000f081470f5c6fbccf48cc4e5b82dd926409dcdd67000000000000000000000000000000000000000000000000000000000000008000000000000000000000000000000000000000000000000000000000000002c00000000000000000000000000000000000000000000000000000000000000680000000000000000000000000caa79bf8b1d00bf3d4f6dbec6221955871c04618000000000000000000000000c02aaa39b223fe8d0a0e5c4f27ead9083c756cc20000000000000000000000000000000000000000000000000000000000000160000000000000000000000000000000000000000000000000000000000000018000000000000000000000000000000000000000000000000000000000000001a000000000000000000000000000000000000000000000000000000000000001e00000000000000000000000007407ee6e48f481d9742f9ef4bc4aae4be401dbf600000000000000000000000000000000000000000000298f1675715fc5e8dc84000000000000000000000000000000000000000000000000019ef1372dfd2cbb00000000000000000000000000000000000000000000000000000000000000e0000000000000000000000000000000000000000000000000000000000000022000000000000000000000000000000000000000000000000000000000000000000000000000000000000000000000000000000000000000000000000000000000000000000000000000000000000000000000000000000000000000000000000100000000000000000000000096c195f6643a3d797cb90cb6ba0ae2776d51b5f30000000000000000000000000000000000000000000000000000000000000001000000000000000000000000000000000000000000000000000000000000001e000000000000000000000000000000000000000000000000000000000000000000000000000000000000000000000000000000000000000000000000000003a0000000000000000000000000000000000000000000000000000000000000002000000000000000000000000000000000000000000000000000000000000000a000000000000000000000000000000000000000000000000000000000000000e000000000000000000000000000000000000000000000000000000000000001200000000000000000000000000000000000000000000000000000000065662bcb000000000000000000000000000000000000000000000000000000000000034000000000000000000000000000000000000000000000000000000000000000010000000000000000000000006b268960693359f8c64e043d72ce7580867521b2000000000000000000000000000000000000000000000000000000000000000100000000000000000000000000000000000000000000298f1675715fc5e8dc840000000000000000000000000000000000000000000000000000000000000001000000000000000000000000000000000000000000000000000000000000002000000000000000000000000000000000000000000000000000000000000001c00000000000000000000000000000000000000000000000000000000000000020000000000000000000000000000000000000000000000000000000000000000100000000000000000000000000000000000000000000000000000000000000200000000000000000000000000000000000000000000000000000000000000040593611990000000000000000000000000000000000000000000000000000000200000000000000000000000000000000000000000000000000000000000001000000000000000000000000006b268960693359f8c64e043d72ce7580867521b2000000000000000000000000caa79bf8b1d00bf3d4f6dbec6221955871c04618000000000000000000000000c02aaa39b223fe8d0a0e5c4f27ead9083c756cc2000000000000000000000000f081470f5c6fbccf48cc4e5b82dd926409dcdd670000000000000000000000000000000000000000000000000000000000000000000000000000000000000000000000000000000000000000000000000000001e00000000000000000000000000000000000000000000000000000000000027100000000000000000000000000000000000000000000000000000000000000032000000000000000000000000000000000000000000000000000000000000002000000000000000000000001ccd4f03fc000000000000000001b77bc2ee9198b900000000000000000000000000000000000000000000000000000000000001f97b22536f75726365223a22646578746f6f6c73222c22416d6f756e74496e555344223a223235352e3435373331303335333930363534222c22416d6f756e744f7574555344223a223235352e3534323631323732393430343432222c22526566657272616c223a22222c22466c616773223a312c22496e74656772697479496e666f223a7b224b65794944223a2231222c225369676e6174757265223a2243557766796f4c54736669556b6b50674469496a5633744757564841755a6b4a4d5a4d746d5a325454475034466b6d433249656f33794d32564d626a34705375702f65413736465a2b4f646e705879477565797048455253616c387553612f3550556538792f69453046374a78613441686f645368695638636a5748546b52495475527732527061314356304d62723748626d6552676b58344b6b72755543314a476a39676474743655516a716546726b6d4a597774334e6a6d637941697345553951346455356a55776162386f4f7179626e4b497a596b6e45456c6c6c596c6c31594d626a6c642b7661496f48416771447a35534a426b3144424c6a694e716273576261575477443162513977763734774172723544616a3270534c6a756569466e4579716d4e625a3178614354644b4161624a50704d345666686f6e6f39664a36613234734e3574333464507659345930566e513d3d227d7d00000000000000",
                    "decodedMethod": {
                        "callParams": [
                            {
                                "name": "caller",
                                "type": "address",
                                "value": "0xf081470f5c6fbccf48cc4e5b82dd926409dcdd67"
                            },
                            {
                                "name": "desc",
                                "type": "(address,address,address[],uint256[],address[],uint256[],address,uint256,uint256,uint256,bytes)",
                                "value": [
                                    {
                                        "name": "srcToken",
                                        "type": "address",
                                        "value": "0xcaa79bf8b1d00bf3d4f6dbec6221955871c04618"
                                    },
                                    {
                                        "name": "dstToken",
                                        "type": "address",
                                        "value": "0xc02aaa39b223fe8d0a0e5c4f27ead9083c756cc2"
                                    },
                                    {
                                        "name": "srcReceivers",
                                        "type": "address[]",
                                        "value": []
                                    },
                                    {
                                        "name": "srcAmounts",
                                        "type": "uint256[]",
                                        "value": []
                                    },
                                    {
                                        "name": "feeReceivers",
                                        "type": "address[]",
                                        "value": [
                                            "0x96c195f6643a3d797cb90cb6ba0ae2776d51b5f3"
                                        ]
                                    },
                                    {
                                        "name": "feeAmounts",
                                        "type": "uint256[]",
                                        "value": [
                                            "30"
                                        ]
                                    },
                                    {
                                        "name": "dstReceiver",
                                        "type": "address",
                                        "value": "0x7407ee6e48f481d9742f9ef4bc4aae4be401dbf6"
                                    },
                                    {
                                        "name": "amount",
                                        "type": "uint256",
                                        "value": "196,256,528,524,493,185,408,132"
                                    },
                                    {
                                        "name": "minReturnAmount",
                                        "type": "uint256",
                                        "value": "116,795,859,655,273,659"
                                    },
                                    {
                                        "name": "flags",
                                        "type": "uint256",
                                        "value": "224"
                                    },
                                    {
                                        "name": "permit",
                                        "type": "bytes",
                                        "value": "0x"
                                    }
                                ]
                            },
                            {
                                "name": "executorData",
                                "type": "bytes",
                                "value": "0x000000000000000000000000000000000000000000000000000000000000002000000000000000000000000000000000000000000000000000000000000000a000000000000000000000000000000000000000000000000000000000000000e000000000000000000000000000000000000000000000000000000000000001200000000000000000000000000000000000000000000000000000000065662bcb000000000000000000000000000000000000000000000000000000000000034000000000000000000000000000000000000000000000000000000000000000010000000000000000000000006b268960693359f8c64e043d72ce7580867521b2000000000000000000000000000000000000000000000000000000000000000100000000000000000000000000000000000000000000298f1675715fc5e8dc840000000000000000000000000000000000000000000000000000000000000001000000000000000000000000000000000000000000000000000000000000002000000000000000000000000000000000000000000000000000000000000001c00000000000000000000000000000000000000000000000000000000000000020000000000000000000000000000000000000000000000000000000000000000100000000000000000000000000000000000000000000000000000000000000200000000000000000000000000000000000000000000000000000000000000040593611990000000000000000000000000000000000000000000000000000000200000000000000000000000000000000000000000000000000000000000001000000000000000000000000006b268960693359f8c64e043d72ce7580867521b2000000000000000000000000caa79bf8b1d00bf3d4f6dbec6221955871c04618000000000000000000000000c02aaa39b223fe8d0a0e5c4f27ead9083c756cc2000000000000000000000000f081470f5c6fbccf48cc4e5b82dd926409dcdd670000000000000000000000000000000000000000000000000000000000000000000000000000000000000000000000000000000000000000000000000000001e00000000000000000000000000000000000000000000000000000000000027100000000000000000000000000000000000000000000000000000000000000032000000000000000000000000000000000000000000000000000000000000002000000000000000000000001ccd4f03fc000000000000000001b77bc2ee9198b9"
                            },
                            {
                                "name": "clientData",
                                "type": "bytes",
                                "value": "0x7b22536f75726365223a22646578746f6f6c73222c22416d6f756e74496e555344223a223235352e3435373331303335333930363534222c22416d6f756e744f7574555344223a223235352e3534323631323732393430343432222c22526566657272616c223a22222c22466c616773223a312c22496e74656772697479496e666f223a7b224b65794944223a2231222c225369676e6174757265223a2243557766796f4c54736669556b6b50674469496a5633744757564841755a6b4a4d5a4d746d5a325454475034466b6d433249656f33794d32564d626a34705375702f65413736465a2b4f646e705879477565797048455253616c387553612f3550556538792f69453046374a78613441686f645368695638636a5748546b52495475527732527061314356304d62723748626d6552676b58344b6b72755543314a476a39676474743655516a716546726b6d4a597774334e6a6d637941697345553951346455356a55776162386f4f7179626e4b497a596b6e45456c6c6c596c6c31594d626a6c642b7661496f48416771447a35534a426b3144424c6a694e716273576261575477443162513977763734774172723544616a3270534c6a756569466e4579716d4e625a3178614354644b4161624a50704d345666686f6e6f39664a36613234734e3574333464507659345930566e513d3d227d7d"
                            }
                        ],
                        "constructorArguments": "",
                        "name": "swapSimpleMode",
                        "returnParams": [
                            {
                                "name": "returnAmount",
                                "type": "uint256",
                                "value": "118,524,376,903,619,773"
                            },
                            {
                                "name": "gasUsed",
                                "type": "uint256",
                                "value": "233,766"
                            }
                        ],
                        "signature": "swapSimpleMode(address,(address,address,address[],uint256[],address[],uint256[],address,uint256,uint256,uint256,bytes),bytes,bytes)"
                    },
                    "errorInfo": "",
                    "fromAddress": "0x7407ee6e48f481d9742f9ef4bc4aae4be401dbf6",
                    "gasUsed": 264085,
                    "id": 0,
                    "methodDecoded": true,
                    "operation": "CALL",
                    "output": "0x00000000000000000000000000000000000000000000000001a5154af69094bd0000000000000000000000000000000000000000000000000000000000039126",
                    "revert": false,
                    "revertMessage": "",
                    "selector": "0x8af033fb",
                    "status": true,
                    "value": "0"
                },
                "nodeType": 0
            },
            "1": {
                "invocation": {
                    "address": "0xc02aaa39b223fe8d0a0e5c4f27ead9083c756cc2",
                    "callData": "0x0000000000000000000000006131b5fae19ea4f9d964eac0408e4408b66337b5",
                    "decodedMethod": {
                        "callParams": [
                            {
                                "name": "",
                                "type": "address",
                                "value": "0x6131b5fae19ea4f9d964eac0408e4408b66337b5"
                            }
                        ],
                        "constructorArguments": "",
                        "name": "balanceOf",
                        "returnParams": [
                            {
                                "decimalAvailable": true,
                                "name": "",
                                "type": "uint256",
                                "value": "323,969,038,103,202,607"
                            }
                        ],
                        "signature": "balanceOf(address)"
                    },
                    "errorInfo": "",
                    "fromAddress": "0x6131b5fae19ea4f9d964eac0408e4408b66337b5",
                    "gasUsed": 2534,
                    "id": 1,
                    "methodDecoded": true,
                    "operation": "STATICCALL",
                    "output": "0x000000000000000000000000000000000000000000000000047ef81faa5dcb2f",
                    "revert": false,
                    "revertMessage": "",
                    "selector": "0x70a08231",
                    "status": true,
                    "value": "0"
                },
                "nodeType": 0
            },
            "10": {
                "invocation": {
                    "address": "0x6b268960693359f8c64e043d72ce7580867521b2",
                    "callData": "0x",
                    "decodedMethod": {
                        "callParams": [],
                        "constructorArguments": "",
                        "name": "getReserves",
                        "returnParams": [
                            {
                                "name": "_reserve0",
                                "type": "uint112",
                                "value": "69,971,298,910,315,662,763"
                            },
                            {
                                "name": "_reserve1",
                                "type": "uint112",
                                "value": "109,222,420,583,219,212,106,896,734"
                            },
                            {
                                "name": "_blockTimestampLast",
                                "type": "uint32",
                                "value": "1,701,193,763"
                            }
                        ],
                        "signature": "getReserves()"
                    },
                    "errorInfo": "",
                    "fromAddress": "0xf081470f5c6fbccf48cc4e5b82dd926409dcdd67",
                    "gasUsed": 2504,
                    "id": 10,
                    "methodDecoded": true,
                    "operation": "STATICCALL",
                    "output": "0x000000000000000000000000000000000000000000000003cb0bfda2960acdab0000000000000000000000000000000000000000005a58bf48b5b44bc7a0955e0000000000000000000000000000000000000000000000000000000065662823",
                    "revert": false,
                    "revertMessage": "",
                    "selector": "0x0902f1ac",
                    "status": true,
                    "value": "0"
                },
                "nodeType": 0
            },
            "11": {
                "invocation": {
                    "address": "0xcaa79bf8b1d00bf3d4f6dbec6221955871c04618",
                    "callData": "0x0000000000000000000000006b268960693359f8c64e043d72ce7580867521b2",
                    "decodedMethod": {
                        "callParams": [
                            {
                                "name": "account",
                                "type": "address",
                                "value": "0x6b268960693359f8c64e043d72ce7580867521b2"
                            }
                        ],
                        "constructorArguments": "",
                        "name": "balanceOf",
                        "returnParams": [
                            {
                                "decimalAvailable": true,
                                "name": "",
                                "type": "uint256",
                                "value": "109,408,864,285,317,480,633,034,460"
                            }
                        ],
                        "signature": "balanceOf(address)"
                    },
                    "errorInfo": "",
                    "fromAddress": "0xf081470f5c6fbccf48cc4e5b82dd926409dcdd67",
                    "gasUsed": 646,
                    "id": 11,
                    "methodDecoded": true,
                    "operation": "STATICCALL",
                    "output": "0x0000000000000000000000000000000000000000005a803a6ad87999f6d766dc",
                    "revert": false,
                    "revertMessage": "",
                    "selector": "0x70a08231",
                    "status": true,
                    "value": "0"
                },
                "nodeType": 0
            },
            "12": {
                "invocation": {
                    "address": "0xcde3eb49d53d932c605efbc1bc425c6affa5eac2",
                    "callData": "0x00000000000000000000000000000000000000000000277b2222c54e2f36d17e0000000000000000000000000000000000000000005a58bf48b5b44bc7a0955e000000000000000000000000000000000000000000000003cb0bfda2960acdab00000000000000000000000000000000000000000000000000000000000000320000000000000000000000000000000000000000000000000000000000000032000000000000000000000000000000000000000000000000000000000000001e0000000000000000000000000000000000000000000000000000000000002710",
                    "decodedMethod": null,
                    "errorInfo": "",
                    "fromAddress": "0xf081470f5c6fbccf48cc4e5b82dd926409dcdd67",
                    "gasUsed": 1515,
                    "id": 12,
                    "methodDecoded": false,
                    "operation": "STATICCALL",
                    "output": "0x00000000000000000000000000000000000000000000000001a659a865760e1f",
                    "revert": false,
                    "revertMessage": "",
                    "selector": "0xf87576e8",
                    "status": true,
                    "value": "0"
                },
                "nodeType": 0
            },
            "13": {
                "invocation": {
                    "address": "0x6b268960693359f8c64e043d72ce7580867521b2",
                    "callData": "0x00000000000000000000000000000000000000000000000001a659a865760e1f0000000000000000000000000000000000000000000000000000000000000000000000000000000000000000f081470f5c6fbccf48cc4e5b82dd926409dcdd6700000000000000000000000000000000000000000000000000000000000000800000000000000000000000000000000000000000000000000000000000000000",
                    "decodedMethod": {
                        "callParams": [
                            {
                                "name": "amount0Out",
                                "type": "uint256",
                                "value": "118,881,019,963,510,303"
                            },
                            {
                                "name": "amount1Out",
                                "type": "uint256",
                                "value": "0"
                            },
                            {
                                "name": "to",
                                "type": "address",
                                "value": "0xf081470f5c6fbccf48cc4e5b82dd926409dcdd67"
                            },
                            {
                                "name": "data",
                                "type": "bytes",
                                "value": "0x"
                            }
                        ],
                        "constructorArguments": "",
                        "name": "swap",
                        "returnParams": [],
                        "signature": "swap(uint256,uint256,address,bytes)"
                    },
                    "errorInfo": "",
                    "fromAddress": "0xf081470f5c6fbccf48cc4e5b82dd926409dcdd67",
                    "gasUsed": 45365,
                    "id": 13,
                    "methodDecoded": true,
                    "operation": "CALL",
                    "output": "",
                    "revert": false,
                    "revertMessage": "",
                    "selector": "0x022c0d9f",
                    "status": true,
                    "value": "0"
                },
                "nodeType": 0
            },
            "14": {
                "invocation": {
                    "address": "0xc02aaa39b223fe8d0a0e5c4f27ead9083c756cc2",
                    "callData": "0x000000000000000000000000f081470f5c6fbccf48cc4e5b82dd926409dcdd6700000000000000000000000000000000000000000000000001a659a865760e1f",
                    "decodedMethod": {
                        "callParams": [
                            {
                                "name": "dst",
                                "type": "address",
                                "value": "0xf081470f5c6fbccf48cc4e5b82dd926409dcdd67"
                            },
                            {
                                "decimalAvailable": true,
                                "name": "wad",
                                "type": "uint256",
                                "value": "118,881,019,963,510,303"
                            }
                        ],
                        "constructorArguments": "",
                        "name": "transfer",
                        "returnParams": [
                            {
                                "name": "",
                                "type": "bool",
                                "value": true
                            }
                        ],
                        "signature": "transfer(address,uint256)"
                    },
                    "errorInfo": "",
                    "fromAddress": "0x6b268960693359f8c64e043d72ce7580867521b2",
                    "gasUsed": 12862,
                    "id": 14,
                    "methodDecoded": true,
                    "operation": "CALL",
                    "output": "0x0000000000000000000000000000000000000000000000000000000000000001",
                    "revert": false,
                    "revertMessage": "",
                    "selector": "0xa9059cbb",
                    "status": true,
                    "value": "0"
                },
                "nodeType": 0
            },
            "15": {
                "event": {
                    "contract": "0xc02aaa39b223fe8d0a0e5c4f27ead9083c756cc2",
                    "decodedLog": {
                        "name": "Transfer",
                        "params": [
                            {
                                "name": "src",
                                "type": "address",
                                "value": "0x6b268960693359f8c64e043d72ce7580867521b2"
                            },
                            {
                                "name": "dst",
                                "type": "address",
                                "value": "0xf081470f5c6fbccf48cc4e5b82dd926409dcdd67"
                            },
                            {
                                "decimalAvailable": true,
                                "name": "wad",
                                "type": "uint256",
                                "value": "118,881,019,963,510,303"
                            }
                        ],
                        "signature": "Transfer(address,address,uint256)"
                    },
                    "id": 15,
                    "logData": "0x00000000000000000000000000000000000000000000000001a659a865760e1f",
                    "logDecoded": true,
                    "operation": "EVENT",
                    "revert": false,
                    "status": true,
                    "topics": [
                        "0xddf252ad1be2c89b69c2b068fc378daa952ba7f163c4a11628f55a4df523b3ef",
                        "0x0000000000000000000000006b268960693359f8c64e043d72ce7580867521b2",
                        "0x000000000000000000000000f081470f5c6fbccf48cc4e5b82dd926409dcdd67"
                    ]
                },
                "nodeType": 1
            },
            "16": {
                "invocation": {
                    "address": "0xc02aaa39b223fe8d0a0e5c4f27ead9083c756cc2",
                    "callData": "0x0000000000000000000000006b268960693359f8c64e043d72ce7580867521b2",
                    "decodedMethod": {
                        "callParams": [
                            {
                                "name": "",
                                "type": "address",
                                "value": "0x6b268960693359f8c64e043d72ce7580867521b2"
                            }
                        ],
                        "constructorArguments": "",
                        "name": "balanceOf",
                        "returnParams": [
                            {
                                "decimalAvailable": true,
                                "name": "",
                                "type": "uint256",
                                "value": "69,852,417,890,352,152,460"
                            }
                        ],
                        "signature": "balanceOf(address)"
                    },
                    "errorInfo": "",
                    "fromAddress": "0x6b268960693359f8c64e043d72ce7580867521b2",
                    "gasUsed": 534,
                    "id": 16,
                    "methodDecoded": true,
                    "operation": "STATICCALL",
                    "output": "0x000000000000000000000000000000000000000000000003c965a3fa3094bf8c",
                    "revert": false,
                    "revertMessage": "",
                    "selector": "0x70a08231",
                    "status": true,
                    "value": "0"
                },
                "nodeType": 0
            },
            "17": {
                "invocation": {
                    "address": "0xcaa79bf8b1d00bf3d4f6dbec6221955871c04618",
                    "callData": "0x0000000000000000000000006b268960693359f8c64e043d72ce7580867521b2",
                    "decodedMethod": {
                        "callParams": [
                            {
                                "name": "account",
                                "type": "address",
                                "value": "0x6b268960693359f8c64e043d72ce7580867521b2"
                            }
                        ],
                        "constructorArguments": "",
                        "name": "balanceOf",
                        "returnParams": [
                            {
                                "decimalAvailable": true,
                                "name": "",
                                "type": "uint256",
                                "value": "109,408,864,285,317,480,633,034,460"
                            }
                        ],
                        "signature": "balanceOf(address)"
                    },
                    "errorInfo": "",
                    "fromAddress": "0x6b268960693359f8c64e043d72ce7580867521b2",
                    "gasUsed": 646,
                    "id": 17,
                    "methodDecoded": true,
                    "operation": "STATICCALL",
                    "output": "0x0000000000000000000000000000000000000000005a803a6ad87999f6d766dc",
                    "revert": false,
                    "revertMessage": "",
                    "selector": "0x70a08231",
                    "status": true,
                    "value": "0"
                },
                "nodeType": 0
            },
            "18": {
                "event": {
                    "contract": "0x6b268960693359f8c64e043d72ce7580867521b2",
                    "decodedLog": {
                        "name": "Sync",
                        "params": [
                            {
                                "name": "reserve0",
                                "type": "uint112",
                                "value": "69,852,417,890,352,152,460"
                            },
                            {
                                "name": "reserve1",
                                "type": "uint112",
                                "value": "109,408,864,285,317,480,633,034,460"
                            }
                        ],
                        "signature": "Sync(uint112,uint112)"
                    },
                    "id": 18,
                    "logData": "0x000000000000000000000000000000000000000000000003c965a3fa3094bf8c0000000000000000000000000000000000000000005a803a6ad87999f6d766dc",
                    "logDecoded": true,
                    "operation": "EVENT",
                    "revert": false,
                    "status": true,
                    "topics": [
                        "0x1c411e9a96e071241c2f21f7726b17ae89e3cab4c78be50e062b03a9fffbbad1"
                    ]
                },
                "nodeType": 1
            },
            "19": {
                "event": {
                    "contract": "0x6b268960693359f8c64e043d72ce7580867521b2",
                    "decodedLog": {
                        "name": "Swap",
                        "params": [
                            {
                                "name": "sender",
                                "type": "address",
                                "value": "0xf081470f5c6fbccf48cc4e5b82dd926409dcdd67"
                            },
                            {
                                "name": "to",
                                "type": "address",
                                "value": "0xf081470f5c6fbccf48cc4e5b82dd926409dcdd67"
                            },
                            {
                                "name": "amount0In",
                                "type": "uint256",
                                "value": "0"
                            },
                            {
                                "name": "amount1In",
                                "type": "uint256",
                                "value": "186,443,702,098,268,526,137,726"
                            },
                            {
                                "name": "amount0Out",
                                "type": "uint256",
                                "value": "118,881,019,963,510,303"
                            },
                            {
                                "name": "amount1Out",
                                "type": "uint256",
                                "value": "0"
                            }
                        ],
                        "signature": "Swap(address,uint256,uint256,uint256,uint256,address)"
                    },
                    "id": 19,
                    "logData": "0x000000000000000000000000000000000000000000000000000000000000000000000000000000000000000000000000000000000000277b2222c54e2f36d17e00000000000000000000000000000000000000000000000001a659a865760e1f0000000000000000000000000000000000000000000000000000000000000000",
                    "logDecoded": true,
                    "operation": "EVENT",
                    "revert": false,
                    "status": true,
                    "topics": [
                        "0xd78ad95fa46c994b6551d0da85fc275fe613ce37657fb8d5e3d130840159d822",
                        "0x000000000000000000000000f081470f5c6fbccf48cc4e5b82dd926409dcdd67",
                        "0x000000000000000000000000f081470f5c6fbccf48cc4e5b82dd926409dcdd67"
                    ]
                },
                "nodeType": 1
            },
            "2": {
                "invocation": {
                    "address": "0xcaa79bf8b1d00bf3d4f6dbec6221955871c04618",
                    "callData": "0x0000000000000000000000007407ee6e48f481d9742f9ef4bc4aae4be401dbf6",
                    "decodedMethod": {
                        "callParams": [
                            {
                                "name": "account",
                                "type": "address",
                                "value": "0x7407ee6e48f481d9742f9ef4bc4aae4be401dbf6"
                            }
                        ],
                        "constructorArguments": "",
                        "name": "balanceOf",
                        "returnParams": [
                            {
                                "decimalAvailable": true,
                                "name": "",
                                "type": "uint256",
                                "value": "196,256,528,524,493,185,408,132"
                            }
                        ],
                        "signature": "balanceOf(address)"
                    },
                    "errorInfo": "",
                    "fromAddress": "0x6131b5fae19ea4f9d964eac0408e4408b66337b5",
                    "gasUsed": 2646,
                    "id": 2,
                    "methodDecoded": true,
                    "operation": "STATICCALL",
                    "output": "0x00000000000000000000000000000000000000000000298f1675715fc5e8dc84",
                    "revert": false,
                    "revertMessage": "",
                    "selector": "0x70a08231",
                    "status": true,
                    "value": "0"
                },
                "nodeType": 0
            },
            "20": {
                "event": {
                    "contract": "0xf081470f5c6fbccf48cc4e5b82dd926409dcdd67",
                    "decodedLog": {
                        "name": "Exchange",
                        "params": [
                            {
                                "name": "pair",
                                "type": "address",
                                "value": "0x6b268960693359f8c64e043d72ce7580867521b2"
                            },
                            {
                                "name": "amountOut",
                                "type": "uint256",
                                "value": "118,881,019,963,510,303"
                            },
                            {
                                "name": "output",
                                "type": "address",
                                "value": "0xc02aaa39b223fe8d0a0e5c4f27ead9083c756cc2"
                            }
                        ],
                        "signature": "Exchange(address,uint256,address)"
                    },
                    "id": 20,
                    "logData": "0x0000000000000000000000006b268960693359f8c64e043d72ce7580867521b200000000000000000000000000000000000000000000000001a659a865760e1f000000000000000000000000c02aaa39b223fe8d0a0e5c4f27ead9083c756cc2",
                    "logDecoded": true,
                    "operation": "EVENT",
                    "revert": false,
                    "status": true,
                    "topics": [
                        "0xddac40937f35385a34f721af292e5a83fc5b840f722bff57c2fc71adba708c48"
                    ]
                },
                "nodeType": 1
            },
            "21": {
                "invocation": {
                    "address": "0xf081470f5c6fbccf48cc4e5b82dd926409dcdd67",
                    "callData": "0x000000000000000000000000caa79bf8b1d00bf3d4f6dbec6221955871c04618000000000000000000000000c02aaa39b223fe8d0a0e5c4f27ead9083c756cc20000000000000000000000006131b5fae19ea4f9d964eac0408e4408b66337b50000000000000000000000000000000000000000000000000000000000000080000000000000000000000000000000000000000000000000000000000000002000000000000000000000001ccd4f03fc000000000000000001b77bc2ee9198b9",
                    "decodedMethod": null,
                    "errorInfo": "",
                    "fromAddress": "0x6131b5fae19ea4f9d964eac0408e4408b66337b5",
                    "gasUsed": 13306,
                    "id": 21,
                    "methodDecoded": false,
                    "operation": "CALL",
                    "output": "",
                    "revert": false,
                    "revertMessage": "",
                    "selector": "0x774b6b7e",
                    "status": true,
                    "value": "0"
                },
                "nodeType": 0
            },
            "22": {
                "invocation": {
                    "address": "0xc02aaa39b223fe8d0a0e5c4f27ead9083c756cc2",
                    "callData": "0x000000000000000000000000f081470f5c6fbccf48cc4e5b82dd926409dcdd67",
                    "decodedMethod": {
                        "callParams": [
                            {
                                "name": "",
                                "type": "address",
                                "value": "0xf081470f5c6fbccf48cc4e5b82dd926409dcdd67"
                            }
                        ],
                        "constructorArguments": "",
                        "name": "balanceOf",
                        "returnParams": [
                            {
                                "decimalAvailable": true,
                                "name": "",
                                "type": "uint256",
                                "value": "118,881,019,963,510,304"
                            }
                        ],
                        "signature": "balanceOf(address)"
                    },
                    "errorInfo": "",
                    "fromAddress": "0xf081470f5c6fbccf48cc4e5b82dd926409dcdd67",
                    "gasUsed": 534,
                    "id": 22,
                    "methodDecoded": true,
                    "operation": "STATICCALL",
                    "output": "0x00000000000000000000000000000000000000000000000001a659a865760e20",
                    "revert": false,
                    "revertMessage": "",
                    "selector": "0x70a08231",
                    "status": true,
                    "value": "0"
                },
                "nodeType": 0
            },
            "23": {
                "invocation": {
                    "address": "0xcaa79bf8b1d00bf3d4f6dbec6221955871c04618",
                    "callData": "0x000000000000000000000000f081470f5c6fbccf48cc4e5b82dd926409dcdd67",
                    "decodedMethod": {
                        "callParams": [
                            {
                                "name": "account",
                                "type": "address",
                                "value": "0xf081470f5c6fbccf48cc4e5b82dd926409dcdd67"
                            }
                        ],
                        "constructorArguments": "",
                        "name": "balanceOf",
                        "returnParams": [
                            {
                                "decimalAvailable": true,
                                "name": "",
                                "type": "uint256",
                                "value": "1"
                            }
                        ],
                        "signature": "balanceOf(address)"
                    },
                    "errorInfo": "",
                    "fromAddress": "0xf081470f5c6fbccf48cc4e5b82dd926409dcdd67",
                    "gasUsed": 2646,
                    "id": 23,
                    "methodDecoded": true,
                    "operation": "STATICCALL",
                    "output": "0x0000000000000000000000000000000000000000000000000000000000000001",
                    "revert": false,
                    "revertMessage": "",
                    "selector": "0x70a08231",
                    "status": true,
                    "value": "0"
                },
                "nodeType": 0
            },
            "24": {
                "invocation": {
                    "address": "0xc02aaa39b223fe8d0a0e5c4f27ead9083c756cc2",
                    "callData": "0x0000000000000000000000006131b5fae19ea4f9d964eac0408e4408b66337b500000000000000000000000000000000000000000000000001a659a865760e1f",
                    "decodedMethod": {
                        "callParams": [
                            {
                                "name": "dst",
                                "type": "address",
                                "value": "0x6131b5fae19ea4f9d964eac0408e4408b66337b5"
                            },
                            {
                                "decimalAvailable": true,
                                "name": "wad",
                                "type": "uint256",
                                "value": "118,881,019,963,510,303"
                            }
                        ],
                        "constructorArguments": "",
                        "name": "transfer",
                        "returnParams": [
                            {
                                "name": "",
                                "type": "bool",
                                "value": true
                            }
                        ],
                        "signature": "transfer(address,uint256)"
                    },
                    "errorInfo": "",
                    "fromAddress": "0xf081470f5c6fbccf48cc4e5b82dd926409dcdd67",
                    "gasUsed": 6062,
                    "id": 24,
                    "methodDecoded": true,
                    "operation": "CALL",
                    "output": "0x0000000000000000000000000000000000000000000000000000000000000001",
                    "revert": false,
                    "revertMessage": "",
                    "selector": "0xa9059cbb",
                    "status": true,
                    "value": "0"
                },
                "nodeType": 0
            },
            "25": {
                "event": {
                    "contract": "0xc02aaa39b223fe8d0a0e5c4f27ead9083c756cc2",
                    "decodedLog": {
                        "name": "Transfer",
                        "params": [
                            {
                                "name": "src",
                                "type": "address",
                                "value": "0xf081470f5c6fbccf48cc4e5b82dd926409dcdd67"
                            },
                            {
                                "name": "dst",
                                "type": "address",
                                "value": "0x6131b5fae19ea4f9d964eac0408e4408b66337b5"
                            },
                            {
                                "decimalAvailable": true,
                                "name": "wad",
                                "type": "uint256",
                                "value": "118,881,019,963,510,303"
                            }
                        ],
                        "signature": "Transfer(address,address,uint256)"
                    },
                    "id": 25,
                    "logData": "0x00000000000000000000000000000000000000000000000001a659a865760e1f",
                    "logDecoded": true,
                    "operation": "EVENT",
                    "revert": false,
                    "status": true,
                    "topics": [
                        "0xddf252ad1be2c89b69c2b068fc378daa952ba7f163c4a11628f55a4df523b3ef",
                        "0x000000000000000000000000f081470f5c6fbccf48cc4e5b82dd926409dcdd67",
                        "0x0000000000000000000000006131b5fae19ea4f9d964eac0408e4408b66337b5"
                    ]
                },
                "nodeType": 1
            },
            "26": {
                "invocation": {
                    "address": "0xc02aaa39b223fe8d0a0e5c4f27ead9083c756cc2",
                    "callData": "0x0000000000000000000000006131b5fae19ea4f9d964eac0408e4408b66337b5",
                    "decodedMethod": {
                        "callParams": [
                            {
                                "name": "",
                                "type": "address",
                                "value": "0x6131b5fae19ea4f9d964eac0408e4408b66337b5"
                            }
                        ],
                        "constructorArguments": "",
                        "name": "balanceOf",
                        "returnParams": [
                            {
                                "decimalAvailable": true,
                                "name": "",
                                "type": "uint256",
                                "value": "442,850,058,066,712,910"
                            }
                        ],
                        "signature": "balanceOf(address)"
                    },
                    "errorInfo": "",
                    "fromAddress": "0x6131b5fae19ea4f9d964eac0408e4408b66337b5",
                    "gasUsed": 534,
                    "id": 26,
                    "methodDecoded": true,
                    "operation": "STATICCALL",
                    "output": "0x000000000000000000000000000000000000000000000000062551c80fd3d94e",
                    "revert": false,
                    "revertMessage": "",
                    "selector": "0x70a08231",
                    "status": true,
                    "value": "0"
                },
                "nodeType": 0
            },
            "27": {
                "invocation": {
                    "address": "0xc02aaa39b223fe8d0a0e5c4f27ead9083c756cc2",
                    "callData": "0x0000000000000000000000006131b5fae19ea4f9d964eac0408e4408b66337b5",
                    "decodedMethod": {
                        "callParams": [
                            {
                                "name": "",
                                "type": "address",
                                "value": "0x6131b5fae19ea4f9d964eac0408e4408b66337b5"
                            }
                        ],
                        "constructorArguments": "",
                        "name": "balanceOf",
                        "returnParams": [
                            {
                                "decimalAvailable": true,
                                "name": "",
                                "type": "uint256",
                                "value": "442,850,058,066,712,910"
                            }
                        ],
                        "signature": "balanceOf(address)"
                    },
                    "errorInfo": "",
                    "fromAddress": "0x6131b5fae19ea4f9d964eac0408e4408b66337b5",
                    "gasUsed": 534,
                    "id": 27,
                    "methodDecoded": true,
                    "operation": "STATICCALL",
                    "output": "0x000000000000000000000000000000000000000000000000062551c80fd3d94e",
                    "revert": false,
                    "revertMessage": "",
                    "selector": "0x70a08231",
                    "status": true,
                    "value": "0"
                },
                "nodeType": 0
            },
            "28": {
                "invocation": {
                    "address": "0xc02aaa39b223fe8d0a0e5c4f27ead9083c756cc2",
                    "callData": "0x00000000000000000000000096c195f6643a3d797cb90cb6ba0ae2776d51b5f30000000000000000000000000000000000000000000000000001445d6ee57962",
                    "decodedMethod": {
                        "callParams": [
                            {
                                "name": "dst",
                                "type": "address",
                                "value": "0x96c195f6643a3d797cb90cb6ba0ae2776d51b5f3"
                            },
                            {
                                "decimalAvailable": true,
                                "name": "wad",
                                "type": "uint256",
                                "value": "356,643,059,890,530"
                            }
                        ],
                        "constructorArguments": "",
                        "name": "transfer",
                        "returnParams": [
                            {
                                "name": "",
                                "type": "bool",
                                "value": true
                            }
                        ],
                        "signature": "transfer(address,uint256)"
                    },
                    "errorInfo": "",
                    "fromAddress": "0x6131b5fae19ea4f9d964eac0408e4408b66337b5",
                    "gasUsed": 8062,
                    "id": 28,
                    "methodDecoded": true,
                    "operation": "CALL",
                    "output": "0x0000000000000000000000000000000000000000000000000000000000000001",
                    "revert": false,
                    "revertMessage": "",
                    "selector": "0xa9059cbb",
                    "status": true,
                    "value": "0"
                },
                "nodeType": 0
            },
            "29": {
                "event": {
                    "contract": "0xc02aaa39b223fe8d0a0e5c4f27ead9083c756cc2",
                    "decodedLog": {
                        "name": "Transfer",
                        "params": [
                            {
                                "name": "src",
                                "type": "address",
                                "value": "0x6131b5fae19ea4f9d964eac0408e4408b66337b5"
                            },
                            {
                                "name": "dst",
                                "type": "address",
                                "value": "0x96c195f6643a3d797cb90cb6ba0ae2776d51b5f3"
                            },
                            {
                                "decimalAvailable": true,
                                "name": "wad",
                                "type": "uint256",
                                "value": "356,643,059,890,530"
                            }
                        ],
                        "signature": "Transfer(address,address,uint256)"
                    },
                    "id": 29,
                    "logData": "0x0000000000000000000000000000000000000000000000000001445d6ee57962",
                    "logDecoded": true,
                    "operation": "EVENT",
                    "revert": false,
                    "status": true,
                    "topics": [
                        "0xddf252ad1be2c89b69c2b068fc378daa952ba7f163c4a11628f55a4df523b3ef",
                        "0x0000000000000000000000006131b5fae19ea4f9d964eac0408e4408b66337b5",
                        "0x00000000000000000000000096c195f6643a3d797cb90cb6ba0ae2776d51b5f3"
                    ]
                },
                "nodeType": 1
            },
            "3": {
                "invocation": {
                    "address": "0xcaa79bf8b1d00bf3d4f6dbec6221955871c04618",
                    "callData": "0x0000000000000000000000007407ee6e48f481d9742f9ef4bc4aae4be401dbf6",
                    "decodedMethod": {
                        "callParams": [
                            {
                                "name": "account",
                                "type": "address",
                                "value": "0x7407ee6e48f481d9742f9ef4bc4aae4be401dbf6"
                            }
                        ],
                        "constructorArguments": "",
                        "name": "balanceOf",
                        "returnParams": [
                            {
                                "decimalAvailable": true,
                                "name": "",
                                "type": "uint256",
                                "value": "196,256,528,524,493,185,408,132"
                            }
                        ],
                        "signature": "balanceOf(address)"
                    },
                    "errorInfo": "",
                    "fromAddress": "0x6131b5fae19ea4f9d964eac0408e4408b66337b5",
                    "gasUsed": 646,
                    "id": 3,
                    "methodDecoded": true,
                    "operation": "STATICCALL",
                    "output": "0x00000000000000000000000000000000000000000000298f1675715fc5e8dc84",
                    "revert": false,
                    "revertMessage": "",
                    "selector": "0x70a08231",
                    "status": true,
                    "value": "0"
                },
                "nodeType": 0
            },
            "30": {
                "invocation": {
                    "address": "0xc02aaa39b223fe8d0a0e5c4f27ead9083c756cc2",
                    "callData": "0x0000000000000000000000006131b5fae19ea4f9d964eac0408e4408b66337b5",
                    "decodedMethod": {
                        "callParams": [
                            {
                                "name": "",
                                "type": "address",
                                "value": "0x6131b5fae19ea4f9d964eac0408e4408b66337b5"
                            }
                        ],
                        "constructorArguments": "",
                        "name": "balanceOf",
                        "returnParams": [
                            {
                                "decimalAvailable": true,
                                "name": "",
                                "type": "uint256",
                                "value": "442,493,415,006,822,380"
                            }
                        ],
                        "signature": "balanceOf(address)"
                    },
                    "errorInfo": "",
                    "fromAddress": "0x6131b5fae19ea4f9d964eac0408e4408b66337b5",
                    "gasUsed": 534,
                    "id": 30,
                    "methodDecoded": true,
                    "operation": "STATICCALL",
                    "output": "0x00000000000000000000000000000000000000000000000006240d6aa0ee5fec",
                    "revert": false,
                    "revertMessage": "",
                    "selector": "0x70a08231",
                    "status": true,
                    "value": "0"
                },
                "nodeType": 0
            },
            "31": {
                "event": {
                    "contract": "0x6131b5fae19ea4f9d964eac0408e4408b66337b5",
                    "decodedLog": {
                        "name": "Fee",
                        "params": [
                            {
                                "name": "token",
                                "type": "address",
                                "value": "0xc02aaa39b223fe8d0a0e5c4f27ead9083c756cc2"
                            },
                            {
                                "name": "totalAmount",
                                "type": "uint256",
                                "value": "118,881,019,963,510,303"
                            },
                            {
                                "name": "totalFee",
                                "type": "uint256",
                                "value": "356,643,059,890,530"
                            },
                            {
                                "name": "recipients",
                                "type": "address[]",
                                "value": [
                                    "0x96c195f6643a3d797cb90cb6ba0ae2776d51b5f3"
                                ]
                            },
                            {
                                "name": "amounts",
                                "type": "uint256[]",
                                "value": [
                                    "30"
                                ]
                            },
                            {
                                "name": "isBps",
                                "type": "bool",
                                "value": true
                            }
                        ],
                        "signature": "Fee(address,uint256,uint256,address[],uint256[],bool)"
                    },
                    "id": 31,
                    "logData": "0x000000000000000000000000c02aaa39b223fe8d0a0e5c4f27ead9083c756cc200000000000000000000000000000000000000000000000001a659a865760e1f0000000000000000000000000000000000000000000000000001445d6ee5796200000000000000000000000000000000000000000000000000000000000000c000000000000000000000000000000000000000000000000000000000000001000000000000000000000000000000000000000000000000000000000000000001000000000000000000000000000000000000000000000000000000000000000100000000000000000000000096c195f6643a3d797cb90cb6ba0ae2776d51b5f30000000000000000000000000000000000000000000000000000000000000001000000000000000000000000000000000000000000000000000000000000001e",
                    "logDecoded": true,
                    "operation": "EVENT",
                    "revert": false,
                    "status": true,
                    "topics": [
                        "0x4c39b7ce5f4f514f45cb6f82b171b8b0b7f2cbf488ad28e4eff451588e2f014b"
                    ]
                },
                "nodeType": 1
            },
            "32": {
                "invocation": {
                    "address": "0xc02aaa39b223fe8d0a0e5c4f27ead9083c756cc2",
                    "callData": "0x0000000000000000000000007407ee6e48f481d9742f9ef4bc4aae4be401dbf6",
                    "decodedMethod": {
                        "callParams": [
                            {
                                "name": "",
                                "type": "address",
                                "value": "0x7407ee6e48f481d9742f9ef4bc4aae4be401dbf6"
                            }
                        ],
                        "constructorArguments": "",
                        "name": "balanceOf",
                        "returnParams": [
                            {
                                "decimalAvailable": true,
                                "name": "",
                                "type": "uint256",
                                "value": "0"
                            }
                        ],
                        "signature": "balanceOf(address)"
                    },
                    "errorInfo": "",
                    "fromAddress": "0x6131b5fae19ea4f9d964eac0408e4408b66337b5",
                    "gasUsed": 2534,
                    "id": 32,
                    "methodDecoded": true,
                    "operation": "STATICCALL",
                    "output": "0x0000000000000000000000000000000000000000000000000000000000000000",
                    "revert": false,
                    "revertMessage": "",
                    "selector": "0x70a08231",
                    "status": true,
                    "value": "0"
                },
                "nodeType": 0
            },
            "33": {
                "invocation": {
                    "address": "0xc02aaa39b223fe8d0a0e5c4f27ead9083c756cc2",
                    "callData": "0x0000000000000000000000007407ee6e48f481d9742f9ef4bc4aae4be401dbf600000000000000000000000000000000000000000000000001a5154af69094bd",
                    "decodedMethod": {
                        "callParams": [
                            {
                                "name": "dst",
                                "type": "address",
                                "value": "0x7407ee6e48f481d9742f9ef4bc4aae4be401dbf6"
                            },
                            {
                                "decimalAvailable": true,
                                "name": "wad",
                                "type": "uint256",
                                "value": "118,524,376,903,619,773"
                            }
                        ],
                        "constructorArguments": "",
                        "name": "transfer",
                        "returnParams": [
                            {
                                "name": "",
                                "type": "bool",
                                "value": true
                            }
                        ],
                        "signature": "transfer(address,uint256)"
                    },
                    "errorInfo": "",
                    "fromAddress": "0x6131b5fae19ea4f9d964eac0408e4408b66337b5",
                    "gasUsed": 23162,
                    "id": 33,
                    "methodDecoded": true,
                    "operation": "CALL",
                    "output": "0x0000000000000000000000000000000000000000000000000000000000000001",
                    "revert": false,
                    "revertMessage": "",
                    "selector": "0xa9059cbb",
                    "status": true,
                    "value": "0"
                },
                "nodeType": 0
            },
            "34": {
                "event": {
                    "contract": "0xc02aaa39b223fe8d0a0e5c4f27ead9083c756cc2",
                    "decodedLog": {
                        "name": "Transfer",
                        "params": [
                            {
                                "name": "src",
                                "type": "address",
                                "value": "0x6131b5fae19ea4f9d964eac0408e4408b66337b5"
                            },
                            {
                                "name": "dst",
                                "type": "address",
                                "value": "0x7407ee6e48f481d9742f9ef4bc4aae4be401dbf6"
                            },
                            {
                                "decimalAvailable": true,
                                "name": "wad",
                                "type": "uint256",
                                "value": "118,524,376,903,619,773"
                            }
                        ],
                        "signature": "Transfer(address,address,uint256)"
                    },
                    "id": 34,
                    "logData": "0x00000000000000000000000000000000000000000000000001a5154af69094bd",
                    "logDecoded": true,
                    "operation": "EVENT",
                    "revert": false,
                    "status": true,
                    "topics": [
                        "0xddf252ad1be2c89b69c2b068fc378daa952ba7f163c4a11628f55a4df523b3ef",
                        "0x0000000000000000000000006131b5fae19ea4f9d964eac0408e4408b66337b5",
                        "0x0000000000000000000000007407ee6e48f481d9742f9ef4bc4aae4be401dbf6"
                    ]
                },
                "nodeType": 1
            },
            "35": {
                "invocation": {
                    "address": "0xc02aaa39b223fe8d0a0e5c4f27ead9083c756cc2",
                    "callData": "0x0000000000000000000000007407ee6e48f481d9742f9ef4bc4aae4be401dbf6",
                    "decodedMethod": {
                        "callParams": [
                            {
                                "name": "",
                                "type": "address",
                                "value": "0x7407ee6e48f481d9742f9ef4bc4aae4be401dbf6"
                            }
                        ],
                        "constructorArguments": "",
                        "name": "balanceOf",
                        "returnParams": [
                            {
                                "decimalAvailable": true,
                                "name": "",
                                "type": "uint256",
                                "value": "118,524,376,903,619,773"
                            }
                        ],
                        "signature": "balanceOf(address)"
                    },
                    "errorInfo": "",
                    "fromAddress": "0x6131b5fae19ea4f9d964eac0408e4408b66337b5",
                    "gasUsed": 534,
                    "id": 35,
                    "methodDecoded": true,
                    "operation": "STATICCALL",
                    "output": "0x00000000000000000000000000000000000000000000000001a5154af69094bd",
                    "revert": false,
                    "revertMessage": "",
                    "selector": "0x70a08231",
                    "status": true,
                    "value": "0"
                },
                "nodeType": 0
            },
            "36": {
                "invocation": {
                    "address": "0xcaa79bf8b1d00bf3d4f6dbec6221955871c04618",
                    "callData": "0x0000000000000000000000007407ee6e48f481d9742f9ef4bc4aae4be401dbf6",
                    "decodedMethod": {
                        "callParams": [
                            {
                                "name": "account",
                                "type": "address",
                                "value": "0x7407ee6e48f481d9742f9ef4bc4aae4be401dbf6"
                            }
                        ],
                        "constructorArguments": "",
                        "name": "balanceOf",
                        "returnParams": [
                            {
                                "decimalAvailable": true,
                                "name": "",
                                "type": "uint256",
                                "value": "0"
                            }
                        ],
                        "signature": "balanceOf(address)"
                    },
                    "errorInfo": "",
                    "fromAddress": "0x6131b5fae19ea4f9d964eac0408e4408b66337b5",
                    "gasUsed": 646,
                    "id": 36,
                    "methodDecoded": true,
                    "operation": "STATICCALL",
                    "output": "0x0000000000000000000000000000000000000000000000000000000000000000",
                    "revert": false,
                    "revertMessage": "",
                    "selector": "0x70a08231",
                    "status": true,
                    "value": "0"
                },
                "nodeType": 0
            },
            "37": {
                "event": {
                    "contract": "0x6131b5fae19ea4f9d964eac0408e4408b66337b5",
                    "decodedLog": {
                        "name": "Swapped",
                        "params": [
                            {
                                "name": "sender",
                                "type": "address",
                                "value": "0x7407ee6e48f481d9742f9ef4bc4aae4be401dbf6"
                            },
                            {
                                "name": "srcToken",
                                "type": "address",
                                "value": "0xcaa79bf8b1d00bf3d4f6dbec6221955871c04618"
                            },
                            {
                                "name": "dstToken",
                                "type": "address",
                                "value": "0xc02aaa39b223fe8d0a0e5c4f27ead9083c756cc2"
                            },
                            {
                                "name": "dstReceiver",
                                "type": "address",
                                "value": "0x7407ee6e48f481d9742f9ef4bc4aae4be401dbf6"
                            },
                            {
                                "name": "spentAmount",
                                "type": "uint256",
                                "value": "196,256,528,524,493,185,408,132"
                            },
                            {
                                "name": "returnAmount",
                                "type": "uint256",
                                "value": "118,524,376,903,619,773"
                            }
                        ],
                        "signature": "Swapped(address,address,address,address,uint256,uint256)"
                    },
                    "id": 37,
                    "logData": "0x0000000000000000000000007407ee6e48f481d9742f9ef4bc4aae4be401dbf6000000000000000000000000caa79bf8b1d00bf3d4f6dbec6221955871c04618000000000000000000000000c02aaa39b223fe8d0a0e5c4f27ead9083c756cc20000000000000000000000007407ee6e48f481d9742f9ef4bc4aae4be401dbf600000000000000000000000000000000000000000000298f1675715fc5e8dc8400000000000000000000000000000000000000000000000001a5154af69094bd",
                    "logDecoded": true,
                    "operation": "EVENT",
                    "revert": false,
                    "status": true,
                    "topics": [
                        "0xd6d4f5681c246c9f42c203e287975af1601f8df8035a9251f79aab5c8f09e2f8"
                    ]
                },
                "nodeType": 1
            },
            "38": {
                "event": {
                    "contract": "0x6131b5fae19ea4f9d964eac0408e4408b66337b5",
                    "decodedLog": {
                        "name": "Exchange",
                        "params": [
                            {
                                "name": "pair",
                                "type": "address",
                                "value": "0xf081470f5c6fbccf48cc4e5b82dd926409dcdd67"
                            },
                            {
                                "name": "amountOut",
                                "type": "uint256",
                                "value": "118,524,376,903,619,773"
                            },
                            {
                                "name": "output",
                                "type": "address",
                                "value": "0xc02aaa39b223fe8d0a0e5c4f27ead9083c756cc2"
                            }
                        ],
                        "signature": "Exchange(address,uint256,address)"
                    },
                    "id": 38,
                    "logData": "0x000000000000000000000000f081470f5c6fbccf48cc4e5b82dd926409dcdd6700000000000000000000000000000000000000000000000001a5154af69094bd000000000000000000000000c02aaa39b223fe8d0a0e5c4f27ead9083c756cc2",
                    "logDecoded": true,
                    "operation": "EVENT",
                    "revert": false,
                    "status": true,
                    "topics": [
                        "0xddac40937f35385a34f721af292e5a83fc5b840f722bff57c2fc71adba708c48"
                    ]
                },
                "nodeType": 1
            },
            "39": {
                "event": {
                    "contract": "0x6131b5fae19ea4f9d964eac0408e4408b66337b5",
                    "decodedLog": {
                        "name": "ClientData",
                        "params": [
                            {
                                "name": "clientData",
                                "type": "bytes",
                                "value": "0x7b22536f75726365223a22646578746f6f6c73222c22416d6f756e74496e555344223a223235352e3435373331303335333930363534222c22416d6f756e744f7574555344223a223235352e3534323631323732393430343432222c22526566657272616c223a22222c22466c616773223a312c22496e74656772697479496e666f223a7b224b65794944223a2231222c225369676e6174757265223a2243557766796f4c54736669556b6b50674469496a5633744757564841755a6b4a4d5a4d746d5a325454475034466b6d433249656f33794d32564d626a34705375702f65413736465a2b4f646e705879477565797048455253616c387553612f3550556538792f69453046374a78613441686f645368695638636a5748546b52495475527732527061314356304d62723748626d6552676b58344b6b72755543314a476a39676474743655516a716546726b6d4a597774334e6a6d637941697345553951346455356a55776162386f4f7179626e4b497a596b6e45456c6c6c596c6c31594d626a6c642b7661496f48416771447a35534a426b3144424c6a694e716273576261575477443162513977763734774172723544616a3270534c6a756569466e4579716d4e625a3178614354644b4161624a50704d345666686f6e6f39664a36613234734e3574333464507659345930566e513d3d227d7d"
                            }
                        ],
                        "signature": "ClientData(bytes)"
                    },
                    "id": 39,
                    "logData": "0x000000000000000000000000000000000000000000000000000000000000002000000000000000000000000000000000000000000000000000000000000001f97b22536f75726365223a22646578746f6f6c73222c22416d6f756e74496e555344223a223235352e3435373331303335333930363534222c22416d6f756e744f7574555344223a223235352e3534323631323732393430343432222c22526566657272616c223a22222c22466c616773223a312c22496e74656772697479496e666f223a7b224b65794944223a2231222c225369676e6174757265223a2243557766796f4c54736669556b6b50674469496a5633744757564841755a6b4a4d5a4d746d5a325454475034466b6d433249656f33794d32564d626a34705375702f65413736465a2b4f646e705879477565797048455253616c387553612f3550556538792f69453046374a78613441686f645368695638636a5748546b52495475527732527061314356304d62723748626d6552676b58344b6b72755543314a476a39676474743655516a716546726b6d4a597774334e6a6d637941697345553951346455356a55776162386f4f7179626e4b497a596b6e45456c6c6c596c6c31594d626a6c642b7661496f48416771447a35534a426b3144424c6a694e716273576261575477443162513977763734774172723544616a3270534c6a756569466e4579716d4e625a3178614354644b4161624a50704d345666686f6e6f39664a36613234734e3574333464507659345930566e513d3d227d7d00000000000000",
                    "logDecoded": true,
                    "operation": "EVENT",
                    "revert": false,
                    "status": true,
                    "topics": [
                        "0x095e66fa4dd6a6f7b43fb8444a7bd0edb870508c7abf639bc216efb0bcff9779"
                    ]
                },
                "nodeType": 1
            },
            "4": {
                "invocation": {
                    "address": "0xcaa79bf8b1d00bf3d4f6dbec6221955871c04618",
                    "callData": "0x0000000000000000000000007407ee6e48f481d9742f9ef4bc4aae4be401dbf60000000000000000000000006b268960693359f8c64e043d72ce7580867521b200000000000000000000000000000000000000000000298f1675715fc5e8dc84",
                    "decodedMethod": {
                        "callParams": [
                            {
                                "name": "from",
                                "type": "address",
                                "value": "0x7407ee6e48f481d9742f9ef4bc4aae4be401dbf6"
                            },
                            {
                                "name": "to",
                                "type": "address",
                                "value": "0x6b268960693359f8c64e043d72ce7580867521b2"
                            },
                            {
                                "decimalAvailable": true,
                                "name": "amount",
                                "type": "uint256",
                                "value": "196,256,528,524,493,185,408,132"
                            }
                        ],
                        "constructorArguments": "",
                        "name": "transferFrom",
                        "returnParams": [
                            {
                                "name": "",
                                "type": "bool",
                                "value": true
                            }
                        ],
                        "signature": "transferFrom(address,address,uint256)"
                    },
                    "errorInfo": "",
                    "fromAddress": "0x6131b5fae19ea4f9d964eac0408e4408b66337b5",
                    "gasUsed": 63254,
                    "id": 4,
                    "methodDecoded": true,
                    "operation": "CALL",
                    "output": "0x0000000000000000000000000000000000000000000000000000000000000001",
                    "revert": false,
                    "revertMessage": "",
                    "selector": "0x23b872dd",
                    "status": true,
                    "value": "0"
                },
                "nodeType": 0
            },
            "5": {
                "event": {
                    "contract": "0xcaa79bf8b1d00bf3d4f6dbec6221955871c04618",
                    "decodedLog": {
                        "name": "Transfer",
                        "params": [
                            {
                                "name": "from",
                                "type": "address",
                                "value": "0x7407ee6e48f481d9742f9ef4bc4aae4be401dbf6"
                            },
                            {
                                "name": "to",
                                "type": "address",
                                "value": "0xcaa79bf8b1d00bf3d4f6dbec6221955871c04618"
                            },
                            {
                                "decimalAvailable": true,
                                "name": "value",
                                "type": "uint256",
                                "value": "9,812,826,426,224,659,270,406"
                            }
                        ],
                        "signature": "Transfer(address,address,uint256)"
                    },
                    "id": 5,
                    "logData": "0x000000000000000000000000000000000000000000000213f452ac1196b20b06",
                    "logDecoded": true,
                    "operation": "EVENT",
                    "revert": false,
                    "status": true,
                    "topics": [
                        "0xddf252ad1be2c89b69c2b068fc378daa952ba7f163c4a11628f55a4df523b3ef",
                        "0x0000000000000000000000007407ee6e48f481d9742f9ef4bc4aae4be401dbf6",
                        "0x000000000000000000000000caa79bf8b1d00bf3d4f6dbec6221955871c04618"
                    ]
                },
                "nodeType": 1
            },
            "6": {
                "event": {
                    "contract": "0xcaa79bf8b1d00bf3d4f6dbec6221955871c04618",
                    "decodedLog": {
                        "name": "Transfer",
                        "params": [
                            {
                                "name": "from",
                                "type": "address",
                                "value": "0x7407ee6e48f481d9742f9ef4bc4aae4be401dbf6"
                            },
                            {
                                "name": "to",
                                "type": "address",
                                "value": "0x6b268960693359f8c64e043d72ce7580867521b2"
                            },
                            {
                                "decimalAvailable": true,
                                "name": "value",
                                "type": "uint256",
                                "value": "186,443,702,098,268,526,137,726"
                            }
                        ],
                        "signature": "Transfer(address,address,uint256)"
                    },
                    "id": 6,
                    "logData": "0x00000000000000000000000000000000000000000000277b2222c54e2f36d17e",
                    "logDecoded": true,
                    "operation": "EVENT",
                    "revert": false,
                    "status": true,
                    "topics": [
                        "0xddf252ad1be2c89b69c2b068fc378daa952ba7f163c4a11628f55a4df523b3ef",
                        "0x0000000000000000000000007407ee6e48f481d9742f9ef4bc4aae4be401dbf6",
                        "0x0000000000000000000000006b268960693359f8c64e043d72ce7580867521b2"
                    ]
                },
                "nodeType": 1
            },
            "7": {
                "invocation": {
                    "address": "0xcaa79bf8b1d00bf3d4f6dbec6221955871c04618",
                    "callData": "0x0000000000000000000000007407ee6e48f481d9742f9ef4bc4aae4be401dbf6",
                    "decodedMethod": {
                        "callParams": [
                            {
                                "name": "account",
                                "type": "address",
                                "value": "0x7407ee6e48f481d9742f9ef4bc4aae4be401dbf6"
                            }
                        ],
                        "constructorArguments": "",
                        "name": "balanceOf",
                        "returnParams": [
                            {
                                "decimalAvailable": true,
                                "name": "",
                                "type": "uint256",
                                "value": "0"
                            }
                        ],
                        "signature": "balanceOf(address)"
                    },
                    "errorInfo": "",
                    "fromAddress": "0x6131b5fae19ea4f9d964eac0408e4408b66337b5",
                    "gasUsed": 646,
                    "id": 7,
                    "methodDecoded": true,
                    "operation": "STATICCALL",
                    "output": "0x0000000000000000000000000000000000000000000000000000000000000000",
                    "revert": false,
                    "revertMessage": "",
                    "selector": "0x70a08231",
                    "status": true,
                    "value": "0"
                },
                "nodeType": 0
            },
            "8": {
                "invocation": {
                    "address": "0xf081470f5c6fbccf48cc4e5b82dd926409dcdd67",
                    "callData": "0x000000000000000000000000000000000000000000000000000000000000002000000000000000000000000000000000000000000000000000000000000001c00000000000000000000000000000000000000000000000000000000000000020000000000000000000000000000000000000000000000000000000000000000100000000000000000000000000000000000000000000000000000000000000200000000000000000000000000000000000000000000000000000000000000040593611990000000000000000000000000000000000000000000000000000000200000000000000000000000000000000000000000000000000000000000001000000000000000000000000006b268960693359f8c64e043d72ce7580867521b2000000000000000000000000caa79bf8b1d00bf3d4f6dbec6221955871c04618000000000000000000000000c02aaa39b223fe8d0a0e5c4f27ead9083c756cc2000000000000000000000000f081470f5c6fbccf48cc4e5b82dd926409dcdd670000000000000000000000000000000000000000000000000000000000000000000000000000000000000000000000000000000000000000000000000000001e00000000000000000000000000000000000000000000000000000000000027100000000000000000000000000000000000000000000000000000000000000032",
                    "decodedMethod": null,
                    "errorInfo": "",
                    "fromAddress": "0x6131b5fae19ea4f9d964eac0408e4408b66337b5",
                    "gasUsed": 73661,
                    "id": 8,
                    "methodDecoded": false,
                    "operation": "CALL",
                    "output": "",
                    "revert": false,
                    "revertMessage": "",
                    "selector": "0x8b674f5d",
                    "status": true,
                    "value": "0"
                },
                "nodeType": 0
            },
            "9": {
                "invocation": {
                    "address": "0x9f52c30f29bfc5514d79a587d61ace79ebde82da",
                    "callData": "0x0000000000000000000000000000000000000000000000000000000000000040000000020000000000000000000000000000000000000000000000000000000000000000000000000000000000000000000000000000000000000000000001000000000000000000000000006b268960693359f8c64e043d72ce7580867521b2000000000000000000000000caa79bf8b1d00bf3d4f6dbec6221955871c04618000000000000000000000000c02aaa39b223fe8d0a0e5c4f27ead9083c756cc2000000000000000000000000f081470f5c6fbccf48cc4e5b82dd926409dcdd670000000000000000000000000000000000000000000000000000000000000000000000000000000000000000000000000000000000000000000000000000001e00000000000000000000000000000000000000000000000000000000000027100000000000000000000000000000000000000000000000000000000000000032",
                    "decodedMethod": null,
                    "errorInfo": "",
                    "fromAddress": "0xf081470f5c6fbccf48cc4e5b82dd926409dcdd67",
                    "gasUsed": 61434,
                    "id": 9,
                    "methodDecoded": false,
                    "operation": "DELEGATECALL",
                    "output": "0x00000000000000000000000000000000000000000000000001a659a865760e1e",
                    "revert": false,
                    "revertMessage": "",
                    "selector": "0x59361199",
                    "status": true,
                    "value": "0"
                },
                "nodeType": 0
            }
        },
        "gasFlame": [
            {
                "children": [
                    {
                        "children": [
                            {
                                "children": [],
                                "depth": 0,
                                "name": "Initial Gas",
                                "value": 39508
                            },
                            {
                                "children": [
                                    {
                                        "children": [],
                                        "depth": 1,
                                        "name": "balanceOf",
                                        "value": 2534
                                    },
                                    {
                                        "children": [],
                                        "depth": 1,
                                        "name": "balanceOf",
                                        "value": 2646
                                    },
                                    {
                                        "children": [],
                                        "depth": 1,
                                        "name": "balanceOf",
                                        "value": 646
                                    },
                                    {
                                        "children": [],
                                        "depth": 1,
                                        "name": "transferFrom",
                                        "value": 63254
                                    },
                                    {
                                        "children": [],
                                        "depth": 1,
                                        "name": "balanceOf",
                                        "value": 646
                                    },
                                    {
                                        "children": [
                                            {
                                                "children": [
                                                    {
                                                        "children": [],
                                                        "depth": 3,
                                                        "name": "getReserves",
                                                        "value": 2504
                                                    },
                                                    {
                                                        "children": [],
                                                        "depth": 3,
                                                        "name": "balanceOf",
                                                        "value": 646
                                                    },
                                                    {
                                                        "children": [],
                                                        "depth": 3,
                                                        "name": "0xf87576e8",
                                                        "value": 1515
                                                    },
                                                    {
                                                        "children": [
                                                            {
                                                                "children": [],
                                                                "depth": 4,
                                                                "name": "transfer",
                                                                "value": 12862
                                                            },
                                                            {
                                                                "children": [],
                                                                "depth": 4,
                                                                "name": "balanceOf",
                                                                "value": 534
                                                            },
                                                            {
                                                                "children": [],
                                                                "depth": 4,
                                                                "name": "balanceOf",
                                                                "value": 646
                                                            }
                                                        ],
                                                        "depth": 3,
                                                        "name": "swap",
                                                        "value": 45365
                                                    }
                                                ],
                                                "depth": 2,
                                                "name": "0x59361199",
                                                "value": 61434
                                            }
                                        ],
                                        "depth": 1,
                                        "name": "0x8b674f5d",
                                        "value": 73661
                                    },
                                    {
                                        "children": [
                                            {
                                                "children": [],
                                                "depth": 2,
                                                "name": "balanceOf",
                                                "value": 534
                                            },
                                            {
                                                "children": [],
                                                "depth": 2,
                                                "name": "balanceOf",
                                                "value": 2646
                                            },
                                            {
                                                "children": [],
                                                "depth": 2,
                                                "name": "transfer",
                                                "value": 6062
                                            }
                                        ],
                                        "depth": 1,
                                        "name": "0x774b6b7e",
                                        "value": 13306
                                    },
                                    {
                                        "children": [],
                                        "depth": 1,
                                        "name": "balanceOf",
                                        "value": 534
                                    },
                                    {
                                        "children": [],
                                        "depth": 1,
                                        "name": "balanceOf",
                                        "value": 534
                                    },
                                    {
                                        "children": [],
                                        "depth": 1,
                                        "name": "transfer",
                                        "value": 8062
                                    },
                                    {
                                        "children": [],
                                        "depth": 1,
                                        "name": "balanceOf",
                                        "value": 534
                                    },
                                    {
                                        "children": [],
                                        "depth": 1,
                                        "name": "balanceOf",
                                        "value": 2534
                                    },
                                    {
                                        "children": [],
                                        "depth": 1,
                                        "name": "transfer",
                                        "value": 23162
                                    },
                                    {
                                        "children": [],
                                        "depth": 1,
                                        "name": "balanceOf",
                                        "value": 534
                                    },
                                    {
                                        "children": [],
                                        "depth": 1,
                                        "name": "balanceOf",
                                        "value": 646
                                    }
                                ],
                                "depth": 0,
                                "name": "Executed Gas",
                                "value": 237777
                            }
                        ],
                        "depth": -1,
                        "name": "Actual Gas Used",
                        "value": 264085
                    },
                    {
                        "children": [],
                        "depth": -1,
                        "name": "Refunded Gas",
                        "value": 13200
                    }
                ],
                "depth": -2,
                "name": "Total Gas",
                "value": 277285
            }
        ],
        "isConfirmed": true,
        "mainTrace": [
            {
                "children": [
                    {
                        "children": [
                            {
                                "children": [],
                                "depth": 1,
                                "id": 1,
                                "order": 1
                            },
                            {
                                "children": [],
                                "depth": 1,
                                "id": 2,
                                "order": 2
                            },
                            {
                                "children": [],
                                "depth": 1,
                                "id": 3,
                                "order": 3
                            },
                            {
                                "children": [
                                    {
                                        "children": [],
                                        "depth": 2,
                                        "id": 5,
                                        "order": 5
                                    },
                                    {
                                        "children": [],
                                        "depth": 2,
                                        "id": 6,
                                        "order": 6
                                    }
                                ],
                                "depth": 1,
                                "id": 4,
                                "order": 4
                            },
                            {
                                "children": [],
                                "depth": 1,
                                "id": 7,
                                "order": 7
                            },
                            {
                                "children": [
                                    {
                                        "children": [
                                            {
                                                "children": [],
                                                "depth": 3,
                                                "id": 10,
                                                "order": 10
                                            },
                                            {
                                                "children": [],
                                                "depth": 3,
                                                "id": 11,
                                                "order": 11
                                            },
                                            {
                                                "children": [],
                                                "depth": 3,
                                                "id": 12,
                                                "order": 12
                                            },
                                            {
                                                "children": [
                                                    {
                                                        "children": [
                                                            {
                                                                "children": [],
                                                                "depth": 5,
                                                                "id": 15,
                                                                "order": 15
                                                            }
                                                        ],
                                                        "depth": 4,
                                                        "id": 14,
                                                        "order": 14
                                                    },
                                                    {
                                                        "children": [],
                                                        "depth": 4,
                                                        "id": 16,
                                                        "order": 16
                                                    },
                                                    {
                                                        "children": [],
                                                        "depth": 4,
                                                        "id": 17,
                                                        "order": 17
                                                    },
                                                    {
                                                        "children": [],
                                                        "depth": 4,
                                                        "id": 18,
                                                        "order": 18
                                                    },
                                                    {
                                                        "children": [],
                                                        "depth": 4,
                                                        "id": 19,
                                                        "order": 19
                                                    }
                                                ],
                                                "depth": 3,
                                                "id": 13,
                                                "order": 13
                                            },
                                            {
                                                "children": [],
                                                "depth": 3,
                                                "id": 20,
                                                "order": 20
                                            }
                                        ],
                                        "depth": 2,
                                        "id": 9,
                                        "order": 9
                                    }
                                ],
                                "depth": 1,
                                "id": 8,
                                "order": 8
                            },
                            {
                                "children": [
                                    {
                                        "children": [],
                                        "depth": 2,
                                        "id": 22,
                                        "order": 22
                                    },
                                    {
                                        "children": [],
                                        "depth": 2,
                                        "id": 23,
                                        "order": 23
                                    },
                                    {
                                        "children": [
                                            {
                                                "children": [],
                                                "depth": 3,
                                                "id": 25,
                                                "order": 25
                                            }
                                        ],
                                        "depth": 2,
                                        "id": 24,
                                        "order": 24
                                    }
                                ],
                                "depth": 1,
                                "id": 21,
                                "order": 21
                            },
                            {
                                "children": [],
                                "depth": 1,
                                "id": 26,
                                "order": 26
                            },
                            {
                                "children": [],
                                "depth": 1,
                                "id": 27,
                                "order": 27
                            },
                            {
                                "children": [
                                    {
                                        "children": [],
                                        "depth": 2,
                                        "id": 29,
                                        "order": 29
                                    }
                                ],
                                "depth": 1,
                                "id": 28,
                                "order": 28
                            },
                            {
                                "children": [],
                                "depth": 1,
                                "id": 30,
                                "order": 30
                            },
                            {
                                "children": [],
                                "depth": 1,
                                "id": 31,
                                "order": 31
                            },
                            {
                                "children": [],
                                "depth": 1,
                                "id": 32,
                                "order": 32
                            },
                            {
                                "children": [
                                    {
                                        "children": [],
                                        "depth": 2,
                                        "id": 34,
                                        "order": 34
                                    }
                                ],
                                "depth": 1,
                                "id": 33,
                                "order": 33
                            },
                            {
                                "children": [],
                                "depth": 1,
                                "id": 35,
                                "order": 35
                            },
                            {
                                "children": [],
                                "depth": 1,
                                "id": 36,
                                "order": 36
                            },
                            {
                                "children": [],
                                "depth": 1,
                                "id": 37,
                                "order": 37
                            },
                            {
                                "children": [],
                                "depth": 1,
                                "id": 38,
                                "order": 38
                            },
                            {
                                "children": [],
                                "depth": 1,
                                "id": 39,
                                "order": 39
                            }
                        ],
                        "depth": 0,
                        "id": 0,
                        "order": 0
                    }
                ],
                "depth": -1,
                "id": -1,
                "order": -1
            }
        ],
        "mainTraceNodeCount": 40,
        "parentIdMap": {
            "0": -1,
            "1": 0,
            "10": 9,
            "11": 9,
            "12": 9,
            "13": 9,
            "14": 13,
            "15": 14,
            "16": 13,
            "17": 13,
            "18": 13,
            "19": 13,
            "2": 0,
            "20": 9,
            "21": 0,
            "22": 21,
            "23": 21,
            "24": 21,
            "25": 24,
            "26": 0,
            "27": 0,
            "28": 0,
            "29": 28,
            "3": 0,
            "30": 0,
            "31": 0,
            "32": 0,
            "33": 0,
            "34": 33,
            "35": 0,
            "36": 0,
            "37": 0,
            "38": 0,
            "39": 0,
            "4": 0,
            "5": 4,
            "6": 4,
            "7": 0,
            "8": 0,
            "9": 8
        },
        "tidyTrace": [
            {
                "children": [
                    {
                        "children": [
                            {
                                "children": [
                                    {
                                        "children": [],
                                        "depth": 2,
                                        "id": 5,
                                        "order": 5
                                    },
                                    {
                                        "children": [],
                                        "depth": 2,
                                        "id": 6,
                                        "order": 6
                                    }
                                ],
                                "depth": 1,
                                "id": 4,
                                "order": 4
                            },
                            {
                                "children": [
                                    {
                                        "children": [
                                            {
                                                "children": [
                                                    {
                                                        "children": [
                                                            {
                                                                "children": [],
                                                                "depth": 5,
                                                                "id": 15,
                                                                "order": 15
                                                            }
                                                        ],
                                                        "depth": 4,
                                                        "id": 14,
                                                        "order": 14
                                                    },
                                                    {
                                                        "children": [],
                                                        "depth": 4,
                                                        "id": 18,
                                                        "order": 18
                                                    },
                                                    {
                                                        "children": [],
                                                        "depth": 4,
                                                        "id": 19,
                                                        "order": 19
                                                    }
                                                ],
                                                "depth": 3,
                                                "id": 13,
                                                "order": 13
                                            },
                                            {
                                                "children": [],
                                                "depth": 3,
                                                "id": 20,
                                                "order": 20
                                            }
                                        ],
                                        "depth": 2,
                                        "id": 9,
                                        "order": 9
                                    }
                                ],
                                "depth": 1,
                                "id": 8,
                                "order": 8
                            },
                            {
                                "children": [
                                    {
                                        "children": [
                                            {
                                                "children": [],
                                                "depth": 3,
                                                "id": 25,
                                                "order": 25
                                            }
                                        ],
                                        "depth": 2,
                                        "id": 24,
                                        "order": 24
                                    }
                                ],
                                "depth": 1,
                                "id": 21,
                                "order": 21
                            },
                            {
                                "children": [
                                    {
                                        "children": [],
                                        "depth": 2,
                                        "id": 29,
                                        "order": 29
                                    }
                                ],
                                "depth": 1,
                                "id": 28,
                                "order": 28
                            },
                            {
                                "children": [],
                                "depth": 1,
                                "id": 31,
                                "order": 31
                            },
                            {
                                "children": [
                                    {
                                        "children": [],
                                        "depth": 2,
                                        "id": 34,
                                        "order": 34
                                    }
                                ],
                                "depth": 1,
                                "id": 33,
                                "order": 33
                            },
                            {
                                "children": [],
                                "depth": 1,
                                "id": 37,
                                "order": 37
                            },
                            {
                                "children": [],
                                "depth": 1,
                                "id": 38,
                                "order": 38
                            },
                            {
                                "children": [],
                                "depth": 1,
                                "id": 39,
                                "order": 39
                            }
                        ],
                        "depth": 0,
                        "id": 0,
                        "order": 0
                    }
                ],
                "depth": -1,
                "id": -1,
                "order": -1
            }
        ],
        "tidyTraceNodeCount": 23
    },
    "state_change": {
        "stateChanges": [
            {
                "address": "0x6b268960693359f8c64e043d72ce7580867521b2",
                "erc": "ERC-20",
                "slots": [
                    {
                        "current": "0x00000000000000000000000013dbaa3d5323a5fb1406e8e8ca6645cae1a92950",
                        "key": "0x0000000000000000000000000000000000000000000000000000000000000009",
                        "prev": "0x00000000000000000000000013db92cb18d501825ca026f9ece49d442086c684"
                    },
                    {
                        "current": "0x000000000000000000000000000000000005f7f540e92c1ba28271778af4f68c",
                        "key": "0x000000000000000000000000000000000000000000000000000000000000000a",
                        "prev": "0x000000000000000000000000000000000005f7eaac699824f47b99d4ac7dffc0"
                    },
                    {
                        "current": "0x6566291f0000005a803a6ad87999f6d766dc000000000003c965a3fa3094bf8c",
                        "key": "0x0000000000000000000000000000000000000000000000000000000000000008",
                        "prev": "0x656628230000005a58bf48b5b44bc7a0955e000000000003cb0bfda2960acdab"
                    }
                ],
                "storageVariables": [
                    {
                        "name": "price0CumulativeLast",
                        "type": "uint256",
                        "value": {
                            "current": "113369517800474959377850436967219007264913959248",
                            "prev": "113367475348205141115387408969784628019733120644",
                            "typeTag": 1
                        }
                    },
                    {
                        "name": "price1CumulativeLast",
                        "type": "uint256",
                        "value": {
                            "current": "30990670453520733933753860984469132",
                            "prev": "30989832213881820328278571716837312",
                            "typeTag": 1
                        }
                    },
                    {
                        "name": "reserve0",
                        "type": "uint112",
                        "value": {
                            "current": "69852417890352152460",
                            "prev": "69971298910315662763",
                            "typeTag": 1
                        }
                    },
                    {
                        "name": "reserve1",
                        "type": "uint112",
                        "value": {
                            "current": "109408864285317480633034460",
                            "prev": "109222420583219212106896734",
                            "typeTag": 1
                        }
                    },
                    {
                        "name": "blockTimestampLast",
                        "type": "uint32",
                        "value": {
                            "current": "1701194015",
                            "prev": "1701193763",
                            "typeTag": 1
                        }
                    }
                ]
            },
            {
                "address": "0xc02aaa39b223fe8d0a0e5c4f27ead9083c756cc2",
                "erc": "ERC-20",
                "slots": [
                    {
                        "current": "0x000000000000000000000000000000000000000000000000150c975ca1d4b725",
                        "key": "0x9430add66773c2bdb7122070c814d0a4111ed3d6567c99fa257916de743de433",
                        "prev": "0x000000000000000000000000000000000000000000000000150b52ff32ef3dc3"
                    },
                    {
                        "current": "0x00000000000000000000000000000000000000000000000001a5154af69094bd",
                        "key": "0x8dcdb8a257fb3220a3635c5524f0092128007dfb74e9513d59af269c39a7b036",
                        "prev": "0x0000000000000000000000000000000000000000000000000000000000000000"
                    },
                    {
                        "current": "0x000000000000000000000000000000000000000000000003c965a3fa3094bf8c",
                        "key": "0x48be93d49a05798abf195e7bbe84f3b83ce2eeee0364d2685cec8748a4fe1cf9",
                        "prev": "0x000000000000000000000000000000000000000000000003cb0bfda2960acdab"
                    }
                ],
                "storageVariables": [
                    {
                        "name": "balanceOf",
                        "type": "mapping(address => uint256)",
                        "value": {
                            "pairs": [
                                {
                                    "key": "0x6b268960693359f8c64e043d72ce7580867521b2",
                                    "value": {
                                        "current": "69852417890352152460",
                                        "prev": "69971298910315662763",
                                        "typeTag": 1
                                    }
                                },
                                {
                                    "key": "0x7407ee6e48f481d9742f9ef4bc4aae4be401dbf6",
                                    "value": {
                                        "current": "118524376903619773",
                                        "prev": "0",
                                        "typeTag": 1
                                    }
                                },
                                {
                                    "key": "0x96c195f6643a3d797cb90cb6ba0ae2776d51b5f3",
                                    "value": {
                                        "current": "1516753598624872229",
                                        "prev": "1516396955564981699",
                                        "typeTag": 1
                                    }
                                }
                            ],
                            "typeTag": 4
                        }
                    }
                ]
            },
            {
                "address": "0xcaa79bf8b1d00bf3d4f6dbec6221955871c04618",
                "erc": "ERC-20",
                "slots": [
                    {
                        "current": "0x000000000000000000000000000000000000000000001af2ee67bfc86a496d94",
                        "key": "0x0000000000000000000000000000000000000000000000000000000000000010",
                        "prev": "0x000000000000000000000000000000000000000000001a1e2646ae27c79bcf92"
                    },
                    {
                        "current": "0x000000000000000000000000000000000000000000001af2ee67bfc86a496d94",
                        "key": "0x000000000000000000000000000000000000000000000000000000000000000e",
                        "prev": "0x000000000000000000000000000000000000000000001a1e2646ae27c79bcf92"
                    },
                    {
                        "current": "0x0000000000000000000000000000000000000000000000000000000000000000",
                        "key": "0x521528c7e313f9a2b56993384ea418f9d5110e9a5aacb3d0e8acd275d30b4a26",
                        "prev": "0x00000000000000000000000000000000000000000000298f1675715fc5e8dc84"
                    },
                    {
                        "current": "0x00000000000000000000000000000000000000000000435f54035f7509b79202",
                        "key": "0xee1019bd099648c445a31f9961ee9089ce36583414f597d08f6deba971616f27",
                        "prev": "0x00000000000000000000000000000000000000000000414b5fb0b363730586fc"
                    },
                    {
                        "current": "0x0000000000000000000000000000000000000000005a803a6ad87999f6d766dc",
                        "key": "0x68c9aa9473a664d0713c06717980ed7678676c11f7595c662158ddd6cf5be016",
                        "prev": "0x0000000000000000000000000000000000000000005a58bf48b5b44bc7a0955e"
                    },
                    {
                        "current": "0x000000000000000000000000000000000000000000000d797733dfe43524b6c6",
                        "key": "0x000000000000000000000000000000000000000000000000000000000000000f",
                        "prev": "0x000000000000000000000000000000000000000000000d0f13235713e3cde7c5"
                    }
                ],
                "storageVariables": [
                    {
                        "name": "tokensForLiquidity",
                        "type": "uint256",
                        "value": {
                            "current": "63631409765309806327494",
                            "prev": "61668844480064874473413",
                            "typeTag": 1
                        }
                    },
                    {
                        "name": "tokensForTeam",
                        "type": "uint256",
                        "value": {
                            "current": "127262819530619612654996",
                            "prev": "123337688960129748946834",
                            "typeTag": 1
                        }
                    },
                    {
                        "name": "tokensForRevShare",
                        "type": "uint256",
                        "value": {
                            "current": "127262819530619612654996",
                            "prev": "123337688960129748946834",
                            "typeTag": 1
                        }
                    },
                    {
                        "name": "_balances",
                        "type": "mapping(address => uint256)",
                        "value": {
                            "pairs": [
                                {
                                    "key": "0x6b268960693359f8c64e043d72ce7580867521b2",
                                    "value": {
                                        "current": "109408864285317480633034460",
                                        "prev": "109222420583219212106896734",
                                        "typeTag": 1
                                    }
                                },
                                {
                                    "key": "0x7407ee6e48f481d9742f9ef4bc4aae4be401dbf6",
                                    "value": {
                                        "current": "0",
                                        "prev": "196256528524493185408132",
                                        "typeTag": 1
                                    }
                                },
                                {
                                    "key": "0xcaa79bf8b1d00bf3d4f6dbec6221955871c04618",
                                    "value": {
                                        "current": "318157048826549031637506",
                                        "prev": "308344222400324372367100",
                                        "typeTag": 1
                                    }
                                }
                            ],
                            "typeTag": 4
                        }
                    }
                ]
            }
        ]
    }
}