{
    "balance_change": {
        "balanceChanges": []
    },
    "profile": {
        "basic_info": {
            "baseFee": "31.479039382",
            "blockNumber": 15539793,
            "callData": "0x304e6adead935df5f54ea9cbf83b776eb4a0696c64f93b44f5569d7957ad2edf05400edc0000000000000000000000000000000000000000000000000000000000000040000000000000000000000000000000000000000000000000000000000000002ae50101720024080112200eb2a9005f59b016f24e8abb1169b934675a67ac43ae8bd234fe7ecc9cfe034b00000000000000000000000000000000000000000000",
            "debugEnable": true,
            "errorInfo": "",
            "eventCount": 1,
            "feeRecipient": "0xe94f1fa4f27d9d288ffea234bb62e1fbc086ca0c",
            "formatValue": "0",
            "gasLimit": 101221,
            "gasPrice": "32.979039382",
            "gasUsed": 101221,
            "intTxnCount": 1,
            "internalRevert": false,
            "internalRevertMessage": "",
            "isContractCreation": false,
            "isFlashloan": false,
            "maxFee": "43.855987764",
            "nonce": 13,
            "overwritedBlockNumber": -1,
            "priorityFee": "1.5",
            "receiver": "0x4976fb03c32e5b8cfe2b6ccb31c09ba78ebaba41",
            "revertMessage": "",
            "sender": "0xab758e61e20602b187d13022ba7e8def3c0fc353",
            "simulationEnable": true,
            "sourceTxnHash": "0x1a92c4220a31aa2b12aef4a2968ec82118fb89f6adbed4252bc19a60db250fb8",
            "status": true,
            "timestamp": "2022-09-15T14:48:59Z",
            "transactionFee": "0.003338171345285422",
            "txnHash": "0x1a92c4220a31aa2b12aef4a2968ec82118fb89f6adbed4252bc19a60db250fb8",
            "txnIndex": 204,
            "type": 2,
            "value": "0"
        },
        "fund_flow": [],
        "token_infos": [
            {
                "address": "0xc02aaa39b223fe8d0a0e5c4f27ead9083c756cc2",
                "decimals": 18
            },
            {
                "address": "0xeeeeeeeeeeeeeeeeeeeeeeeeeeeeeeeeeeeeeeee",
                "decimals": 18
            }
        ]
    },
    "address_label": {
        "labels": [
            {
                "address": "0xeeeeeeeeeeeeeeeeeeeeeeeeeeeeeeeeeeeeeeee",
                "label": "Ether"
            },
            {
                "address": "0x00000000000c2e074ec69a0dfb2997ba6c7d2e1e",
                "label": "ENS: Registry with Fallback"
            },
            {
                "address": "0x4976fb03c32e5b8cfe2b6ccb31c09ba78ebaba41",
                "label": "ENS: Public Resolver 2"
            },
            {
                "address": "0x0000000000000000000000000000000000000001",
                "label": "Precompiled"
            },
            {
                "address": "0x0000000000000000000000000000000000000002",
                "label": "Precompiled"
            },
            {
                "address": "0x0000000000000000000000000000000000000003",
                "label": "Precompiled"
            },
            {
                "address": "0x0000000000000000000000000000000000000004",
                "label": "Precompiled"
            }
        ]
    },
    "trace": {
        "accountLabels": null,
        "dataMap": {
            "-1": {
                "invocation": {
                    "address": "0xab758e61e20602b187d13022ba7e8def3c0fc353",
                    "callData": "",
                    "decodedMethod": null,
                    "errorInfo": "",
                    "fromAddress": "",
                    "gasUsed": 0,
                    "id": -1,
                    "methodDecoded": false,
                    "operation": "",
                    "output": "",
                    "revert": false,
                    "revertMessage": "",
                    "selector": "",
                    "status": false,
                    "value": ""
                },
                "nodeType": 0
            },
            "0": {
                "invocation": {
                    "address": "0x4976fb03c32e5b8cfe2b6ccb31c09ba78ebaba41",
                    "callData": "0xad935df5f54ea9cbf83b776eb4a0696c64f93b44f5569d7957ad2edf05400edc0000000000000000000000000000000000000000000000000000000000000040000000000000000000000000000000000000000000000000000000000000002ae50101720024080112200eb2a9005f59b016f24e8abb1169b934675a67ac43ae8bd234fe7ecc9cfe034b00000000000000000000000000000000000000000000",
                    "decodedMethod": {
                        "callParams": [
                            {
                                "name": "node",
                                "type": "bytes32",
                                "value": "0xad935df5f54ea9cbf83b776eb4a0696c64f93b44f5569d7957ad2edf05400edc"
                            },
                            {
                                "name": "hash",
                                "type": "bytes",
                                "value": "0xe50101720024080112200eb2a9005f59b016f24e8abb1169b934675a67ac43ae8bd234fe7ecc9cfe034b"
                            }
                        ],
                        "constructorArguments": "",
                        "name": "setContenthash",
                        "returnParams": [],
                        "signature": "setContenthash(bytes32,bytes)"
                    },
                    "errorInfo": "",
                    "fromAddress": "0xab758e61e20602b187d13022ba7e8def3c0fc353",
                    "gasUsed": 101221,
                    "id": 0,
                    "methodDecoded": true,
                    "operation": "CALL",
                    "output": "",
                    "revert": false,
                    "revertMessage": "",
                    "selector": "0x304e6ade",
                    "status": true,
                    "value": "0"
                },
                "nodeType": 0
            },
            "1": {
                "invocation": {
                    "address": "0x00000000000c2e074ec69a0dfb2997ba6c7d2e1e",
                    "callData": "0xad935df5f54ea9cbf83b776eb4a0696c64f93b44f5569d7957ad2edf05400edc",
                    "decodedMethod": {
                        "callParams": [
                            {
                                "name": "node",
                                "type": "bytes32",
                                "value": "0xad935df5f54ea9cbf83b776eb4a0696c64f93b44f5569d7957ad2edf05400edc"
                            }
                        ],
                        "constructorArguments": "",
                        "name": "owner",
                        "returnParams": [
                            {
                                "name": "",
                                "type": "address",
                                "value": "0xab758e61e20602b187d13022ba7e8def3c0fc353"
                            }
                        ],
                        "signature": "owner(bytes32)"
                    },
                    "errorInfo": "",
                    "fromAddress": "0x4976fb03c32e5b8cfe2b6ccb31c09ba78ebaba41",
                    "gasUsed": 2951,
                    "id": 1,
                    "methodDecoded": true,
                    "operation": "STATICCALL",
                    "output": "0x000000000000000000000000ab758e61e20602b187d13022ba7e8def3c0fc353",
                    "revert": false,
                    "revertMessage": "",
                    "selector": "0x02571be3",
                    "status": true,
                    "value": "0"
                },
                "nodeType": 0
            },
            "2": {
                "event": {
                    "contract": "0x4976fb03c32e5b8cfe2b6ccb31c09ba78ebaba41",
                    "decodedLog": {
                        "name": "ContenthashChanged",
                        "params": [
                            {
                                "name": "node",
                                "type": "bytes32",
                                "value": "0xad935df5f54ea9cbf83b776eb4a0696c64f93b44f5569d7957ad2edf05400edc"
                            },
                            {
                                "name": "hash",
                                "type": "bytes",
                                "value": "0xe50101720024080112200eb2a9005f59b016f24e8abb1169b934675a67ac43ae8bd234fe7ecc9cfe034b"
                            }
                        ],
                        "signature": "ContenthashChanged(bytes32,bytes)"
                    },
                    "id": 2,
                    "logData": "0x0000000000000000000000000000000000000000000000000000000000000020000000000000000000000000000000000000000000000000000000000000002ae50101720024080112200eb2a9005f59b016f24e8abb1169b934675a67ac43ae8bd234fe7ecc9cfe034b00000000000000000000000000000000000000000000",
                    "logDecoded": true,
                    "operation": "EVENT",
                    "revert": false,
                    "status": true,
                    "topics": [
                        "0xe379c1624ed7e714cc0937528a32359d69d5281337765313dba4e081b72d7578",
                        "0xad935df5f54ea9cbf83b776eb4a0696c64f93b44f5569d7957ad2edf05400edc"
                    ]
                },
                "nodeType": 1
            }
        },
        "gasFlame": [
            {
                "children": [
                    {
                        "children": [
                            {
                                "children": [],
                                "depth": 0,
                                "name": "Initial Gas",
                                "value": 22592
                            },
                            {
                                "children": [
                                    {
                                        "children": [],
                                        "depth": 1,
                                        "name": "owner",
                                        "value": 2951
                                    }
                                ],
                                "depth": 0,
                                "name": "Executed Gas",
                                "value": 78629
                            }
                        ],
                        "depth": -1,
                        "name": "Actual Gas Used",
                        "value": 101221
                    },
                    {
                        "children": [],
                        "depth": -1,
                        "name": "Refunded Gas",
                        "value": 0
                    }
                ],
                "depth": -2,
                "name": "Total Gas",
                "value": 101221
            }
        ],
        "isConfirmed": true,
        "mainTrace": [
            {
                "children": [
                    {
                        "children": [
                            {
                                "children": [],
                                "depth": 1,
                                "id": 1,
                                "order": 1
                            },
                            {
                                "children": [],
                                "depth": 1,
                                "id": 2,
                                "order": 2
                            }
                        ],
                        "depth": 0,
                        "id": 0,
                        "order": 0
                    }
                ],
                "depth": -1,
                "id": -1,
                "order": -1
            }
        ],
        "mainTraceNodeCount": 3,
        "parentIdMap": {
            "0": -1,
            "1": 0,
            "2": 0
        },
        "tidyTrace": [
            {
                "children": [
                    {
                        "children": [
                            {
                                "children": [],
                                "depth": 1,
                                "id": 2,
                                "order": 2
                            }
                        ],
                        "depth": 0,
                        "id": 0,
                        "order": 0
                    }
                ],
                "depth": -1,
                "id": -1,
                "order": -1
            }
        ],
        "tidyTraceNodeCount": 2
    },
    "state_change": {
        "stateChanges": [
            {
                "address": "0x4976fb03c32e5b8cfe2b6ccb31c09ba78ebaba41",
                "erc": "",
                "slots": [
                    {
                        "current": "0x8bd234fe7ecc9cfe034b00000000000000000000000000000000000000000000",
                        "key": "0xbcb0c456521a38d8893a2d0314de5cfc98b50aef44c0e1768269beb40242a3b2",
                        "prev": "0x0000000000000000000000000000000000000000000000000000000000000000"
                    },
                    {
                        "current": "0x0000000000000000000000000000000000000000000000000000000000000055",
                        "key": "0x4ca3b53b7c59e4e415d80cd32eb4b61d3bbd95c6bff5201649e85ad6893eb1a3",
                        "prev": "0x0000000000000000000000000000000000000000000000000000000000000000"
                    },
                    {
                        "current": "0xe50101720024080112200eb2a9005f59b016f24e8abb1169b934675a67ac43ae",
                        "key": "0xbcb0c456521a38d8893a2d0314de5cfc98b50aef44c0e1768269beb40242a3b1",
                        "prev": "0x0000000000000000000000000000000000000000000000000000000000000000"
                    }
                ],
                "storageVariables": [
                    {
                        "name": "hashes",
                        "type": "mapping(bytes32 => bytes)",
                        "value": {
                            "pairs": [
                                {
                                    "key": "0xad935df5f54ea9cbf83b776eb4a0696c64f93b44f5569d7957ad2edf05400edc",
                                    "value": {
                                        "current": "0xe50101720024080112200eb2a9005f59b016f24e8abb1169b934675a67ac43ae0x8bd234fe7ecc9cfe034b",
                                        "prev": "0x",
                                        "typeTag": 1
                                    }
                                }
                            ],
                            "typeTag": 4
                        }
                    }
                ]
            }
        ]
    }
}