{
    "balance_change": {
        "balanceChanges": [
            {
                "account": "0xfe4ebb9b848e8855826dbb8d450b2d43c7cd97a5",
                "assets": [
                    {
                        "address": "0x84ca8bc7997272c7cfb4d0cd3d55cd942b3c9419",
                        "amount": "479.3",
                        "iconUrl": "https://assets.blocksec.com/icon/2219462661e8097d048a77bd8c50725ac627a0d15849a0a1119853c7e36e8ced.png",
                        "isERC1155": false,
                        "isERC721": false,
                        "sign": false,
                        "value": "1656.14104"
                    }
                ]
            },
            {
                "account": "0xb784bef2dcb04219be302579a1c492ed7d530203",
                "assets": [
                    {
                        "address": "0x84ca8bc7997272c7cfb4d0cd3d55cd942b3c9419",
                        "amount": "479.3",
                        "iconUrl": "https://assets.blocksec.com/icon/2219462661e8097d048a77bd8c50725ac627a0d15849a0a1119853c7e36e8ced.png",
                        "isERC1155": false,
                        "isERC721": false,
                        "sign": true,
                        "value": "1656.14104"
                    }
                ]
            }
        ]
    },
    "profile": {
        "basic_info": {
            "baseFee": "",
            "blockNumber": 10684439,
            "callData": "0xa9059cbb000000000000000000000000b784bef2dcb04219be302579a1c492ed7d530203000000000000000000000000000000000000000000000019fb9faa8f4cba0000",
            "debugEnable": true,
            "errorInfo": "",
            "eventCount": 1,
            "feeRecipient": "0xea674fdde714fd979de3edf0f56aa9716b898ec8",
            "formatValue": "0",
            "gasLimit": 66713,
            "gasPrice": "160",
            "gasUsed": 36318,
            "intTxnCount": 0,
            "internalRevert": false,
            "internalRevertMessage": "",
            "isContractCreation": false,
            "isFlashloan": false,
            "maxFee": "",
            "nonce": 8,
            "overwritedBlockNumber": -1,
            "priorityFee": "",
            "receiver": "0x84ca8bc7997272c7cfb4d0cd3d55cd942b3c9419",
            "revertMessage": "",
            "sender": "0xfe4ebb9b848e8855826dbb8d450b2d43c7cd97a5",
            "simulationEnable": true,
            "sourceTxnHash": "0x1a92bbb963e8da8968d19635ae23d8d291c62244acdcbe64ad06721b6bf7bd92",
            "status": true,
            "timestamp": "2020-08-18T14:07:34Z",
            "transactionFee": "0.00581088",
            "txnHash": "0x1a92bbb963e8da8968d19635ae23d8d291c62244acdcbe64ad06721b6bf7bd92",
            "txnIndex": 121,
            "type": 0,
            "value": "0"
        },
        "fund_flow": [
            {
                "amount": "479.3",
                "from": "0xfe4ebb9b848e8855826dbb8d450b2d43c7cd97a5",
                "id": 1,
                "isERC1155": false,
                "isERC721": false,
                "isReverted": false,
                "order": 1,
                "to": "0xb784bef2dcb04219be302579a1c492ed7d530203",
                "token": "0x84ca8bc7997272c7cfb4d0cd3d55cd942b3c9419"
            }
        ],
        "token_infos": [
            {
                "address": "0x84ca8bc7997272c7cfb4d0cd3d55cd942b3c9419",
                "decimals": 18
            },
            {
                "address": "0xc02aaa39b223fe8d0a0e5c4f27ead9083c756cc2",
                "decimals": 18
            },
            {
                "address": "0xeeeeeeeeeeeeeeeeeeeeeeeeeeeeeeeeeeeeeeee",
                "decimals": 18
            }
        ]
    },
    "address_label": {
        "labels": [
            {
                "address": "0x0000000000000000000000000000000000000002",
                "label": "Precompiled"
            },
            {
                "address": "0x0000000000000000000000000000000000000003",
                "label": "Precompiled"
            },
            {
                "address": "0x0000000000000000000000000000000000000004",
                "label": "Precompiled"
            },
            {
                "address": "0xeeeeeeeeeeeeeeeeeeeeeeeeeeeeeeeeeeeeeeee",
                "label": "Ether"
            },
            {
                "address": "0xb784bef2dcb04219be302579a1c492ed7d530203",
                "label": "OKEX"
            },
            {
                "address": "0x84ca8bc7997272c7cfb4d0cd3d55cd942b3c9419",
                "label": "DIA Data: DIA Token"
            },
            {
                "address": "0x0000000000000000000000000000000000000001",
                "label": "Precompiled"
            }
        ]
    },
    "trace": {
        "accountLabels": null,
        "dataMap": {
            "-1": {
                "invocation": {
                    "address": "0xfe4ebb9b848e8855826dbb8d450b2d43c7cd97a5",
                    "callData": "",
                    "decodedMethod": null,
                    "errorInfo": "",
                    "fromAddress": "",
                    "gasUsed": 0,
                    "id": -1,
                    "methodDecoded": false,
                    "operation": "",
                    "output": "",
                    "revert": false,
                    "revertMessage": "",
                    "selector": "",
                    "status": false,
                    "value": ""
                },
                "nodeType": 0
            },
            "0": {
                "invocation": {
                    "address": "0x84ca8bc7997272c7cfb4d0cd3d55cd942b3c9419",
                    "callData": "0x000000000000000000000000b784bef2dcb04219be302579a1c492ed7d530203000000000000000000000000000000000000000000000019fb9faa8f4cba0000",
                    "decodedMethod": {
                        "callParams": [
                            {
                                "name": "recipient",
                                "type": "address",
                                "value": "0xb784bef2dcb04219be302579a1c492ed7d530203"
                            },
                            {
                                "decimalAvailable": true,
                                "name": "amount",
                                "type": "uint256",
                                "value": "479,300,000,000,000,000,000"
                            }
                        ],
                        "constructorArguments": "",
                        "name": "transfer",
                        "returnParams": [
                            {
                                "name": "",
                                "type": "bool",
                                "value": true
                            }
                        ],
                        "signature": "transfer(address,uint256)"
                    },
                    "errorInfo": "",
                    "fromAddress": "0xfe4ebb9b848e8855826dbb8d450b2d43c7cd97a5",
                    "gasUsed": 36318,
                    "id": 0,
                    "methodDecoded": true,
                    "operation": "CALL",
                    "output": "0x0000000000000000000000000000000000000000000000000000000000000001",
                    "revert": false,
                    "revertMessage": "",
                    "selector": "0xa9059cbb",
                    "status": true,
                    "value": "0"
                },
                "nodeType": 0
            },
            "1": {
                "event": {
                    "contract": "0x84ca8bc7997272c7cfb4d0cd3d55cd942b3c9419",
                    "decodedLog": {
                        "name": "Transfer",
                        "params": [
                            {
                                "name": "from",
                                "type": "address",
                                "value": "0xfe4ebb9b848e8855826dbb8d450b2d43c7cd97a5"
                            },
                            {
                                "name": "to",
                                "type": "address",
                                "value": "0xb784bef2dcb04219be302579a1c492ed7d530203"
                            },
                            {
                                "decimalAvailable": true,
                                "name": "value",
                                "type": "uint256",
                                "value": "479,300,000,000,000,000,000"
                            }
                        ],
                        "signature": "Transfer(address,address,uint256)"
                    },
                    "id": 1,
                    "logData": "0x000000000000000000000000000000000000000000000019fb9faa8f4cba0000",
                    "logDecoded": true,
                    "operation": "EVENT",
                    "revert": false,
                    "status": true,
                    "topics": [
                        "0xddf252ad1be2c89b69c2b068fc378daa952ba7f163c4a11628f55a4df523b3ef",
                        "0x000000000000000000000000fe4ebb9b848e8855826dbb8d450b2d43c7cd97a5",
                        "0x000000000000000000000000b784bef2dcb04219be302579a1c492ed7d530203"
                    ]
                },
                "nodeType": 1
            }
        },
        "gasFlame": [
            {
                "children": [
                    {
                        "children": [
                            {
                                "children": [],
                                "depth": 0,
                                "name": "Initial Gas",
                                "value": 21644
                            },
                            {
                                "children": [],
                                "depth": 0,
                                "name": "Executed Gas",
                                "value": 29674
                            }
                        ],
                        "depth": -1,
                        "name": "Actual Gas Used",
                        "value": 36318
                    },
                    {
                        "children": [],
                        "depth": -1,
                        "name": "Refunded Gas",
                        "value": 15000
                    }
                ],
                "depth": -2,
                "name": "Total Gas",
                "value": 51318
            }
        ],
        "isConfirmed": true,
        "mainTrace": [
            {
                "children": [
                    {
                        "children": [
                            {
                                "children": [],
                                "depth": 1,
                                "id": 1,
                                "order": 1
                            }
                        ],
                        "depth": 0,
                        "id": 0,
                        "order": 0
                    }
                ],
                "depth": -1,
                "id": -1,
                "order": -1
            }
        ],
        "mainTraceNodeCount": 2,
        "parentIdMap": {
            "0": -1,
            "1": 0
        },
        "tidyTrace": [
            {
                "children": [
                    {
                        "children": [
                            {
                                "children": [],
                                "depth": 1,
                                "id": 1,
                                "order": 1
                            }
                        ],
                        "depth": 0,
                        "id": 0,
                        "order": 0
                    }
                ],
                "depth": -1,
                "id": -1,
                "order": -1
            }
        ],
        "tidyTraceNodeCount": 2
    },
    "state_change": {
        "stateChanges": [
            {
                "address": "0x84ca8bc7997272c7cfb4d0cd3d55cd942b3c9419",
                "erc": "ERC-20",
                "slots": [
                    {
                        "current": "0x000000000000000000000000000000000000000000000019fb9faa8f4cba0000",
                        "key": "0x562c623612839234dd4663cdf55fe3ac04cc7477c7dd1639fdc096de31e1da55",
                        "prev": "0x0000000000000000000000000000000000000000000000000000000000000000"
                    },
                    {
                        "current": "0x0000000000000000000000000000000000000000000000000000000000000000",
                        "key": "0xdee1e2927f32245e2338efff809f61d5803f86cdcf4fa556345ce4ade0606fff",
                        "prev": "0x000000000000000000000000000000000000000000000019fb9faa8f4cba0000"
                    }
                ],
                "storageVariables": [
                    {
                        "name": "_balances",
                        "type": "mapping(address => uint256)",
                        "value": {
                            "pairs": [
                                {
                                    "key": "0xb784bef2dcb04219be302579a1c492ed7d530203",
                                    "value": {
                                        "current": "479300000000000000000",
                                        "prev": "0",
                                        "typeTag": 1
                                    }
                                },
                                {
                                    "key": "0xfe4ebb9b848e8855826dbb8d450b2d43c7cd97a5",
                                    "value": {
                                        "current": "0",
                                        "prev": "479300000000000000000",
                                        "typeTag": 1
                                    }
                                }
                            ],
                            "typeTag": 4
                        }
                    }
                ]
            }
        ]
    }
}