{
    "balance_change": {
        "balanceChanges": [
            {
                "account": "0x58eae5a835a2da8815028cc56b4a1490f3d49d5e",
                "assets": [
                    {
                        "address": "0x58b6a8a3302369daec383334672404ee733ab239",
                        "amount": "8,353.149367389649923896",
                        "iconUrl": "https://assets.blocksec.com/icon/732387d21af82c0f5932849582211e4d00c69c14ec3316a4b5b817f9a5fb46c4.png",
                        "isERC1155": false,
                        "isERC721": false,
                        "sign": true,
                        "value": ""
                    }
                ]
            },
            {
                "account": "0xa8d99aaa9bcc25ffd0bd4155661b686d65df58d9",
                "assets": [
                    {
                        "address": "0x58b6a8a3302369daec383334672404ee733ab239",
                        "amount": "8,353.149367389649923896",
                        "iconUrl": "https://assets.blocksec.com/icon/732387d21af82c0f5932849582211e4d00c69c14ec3316a4b5b817f9a5fb46c4.png",
                        "isERC1155": false,
                        "isERC721": false,
                        "sign": false,
                        "value": ""
                    }
                ]
            }
        ]
    },
    "profile": {
        "basic_info": {
            "baseFee": "",
            "blockNumber": 8446615,
            "callData": "0x1916558700000000000000000000000058b6a8a3302369daec383334672404ee733ab239",
            "debugEnable": true,
            "errorInfo": "",
            "eventCount": 2,
            "feeRecipient": "0x5a0b54d5dc17e0aadc383d2db43b0a0d3e029c4c",
            "formatValue": "0",
            "gasLimit": 51180,
            "gasPrice": "100",
            "gasUsed": 51180,
            "intTxnCount": 2,
            "internalRevert": false,
            "internalRevertMessage": "",
            "isContractCreation": false,
            "isFlashloan": false,
            "maxFee": "",
            "nonce": 333,
            "overwritedBlockNumber": -1,
            "priorityFee": "",
            "receiver": "0xa8d99aaa9bcc25ffd0bd4155661b686d65df58d9",
            "revertMessage": "",
            "sender": "0x58eae5a835a2da8815028cc56b4a1490f3d49d5e",
            "simulationEnable": true,
            "sourceTxnHash": "0x1b95fee8765738093a5b152b20bcf24f7fa3aa381543f338316bcdb3981276f4",
            "status": true,
            "timestamp": "2019-08-29T17:57:58Z",
            "transactionFee": "0.005118",
            "txnHash": "0x1b95fee8765738093a5b152b20bcf24f7fa3aa381543f338316bcdb3981276f4",
            "txnIndex": 0,
            "type": 0,
            "value": "0"
        },
        "fund_flow": [
            {
                "amount": "8,353.149367389649923896",
                "from": "0xa8d99aaa9bcc25ffd0bd4155661b686d65df58d9",
                "id": 1,
                "isERC1155": false,
                "isERC721": false,
                "isReverted": false,
                "order": 1,
                "to": "0x58eae5a835a2da8815028cc56b4a1490f3d49d5e",
                "token": "0x58b6a8a3302369daec383334672404ee733ab239"
            }
        ],
        "token_infos": [
            {
                "address": "0xc02aaa39b223fe8d0a0e5c4f27ead9083c756cc2",
                "decimals": 18
            },
            {
                "address": "0xeeeeeeeeeeeeeeeeeeeeeeeeeeeeeeeeeeeeeeee",
                "decimals": 18
            },
            {
                "address": "0x58b6a8a3302369daec383334672404ee733ab239",
                "decimals": 18
            }
        ]
    },
    "address_label": {
        "labels": [
            {
                "address": "0xeeeeeeeeeeeeeeeeeeeeeeeeeeeeeeeeeeeeeeee",
                "label": "Ether"
            },
            {
                "address": "0x58b6a8a3302369daec383334672404ee733ab239",
                "label": "Livepeer: LPT Token"
            },
            {
                "address": "0xa8d99aaa9bcc25ffd0bd4155661b686d65df58d9",
                "label": "TokenVesting"
            },
            {
                "address": "0x0000000000000000000000000000000000000001",
                "label": "Precompiled"
            },
            {
                "address": "0x0000000000000000000000000000000000000002",
                "label": "Precompiled"
            },
            {
                "address": "0x0000000000000000000000000000000000000003",
                "label": "Precompiled"
            },
            {
                "address": "0x0000000000000000000000000000000000000004",
                "label": "Precompiled"
            }
        ]
    },
    "trace": {
        "accountLabels": null,
        "dataMap": {
            "-1": {
                "invocation": {
                    "address": "0x58eae5a835a2da8815028cc56b4a1490f3d49d5e",
                    "callData": "",
                    "decodedMethod": null,
                    "errorInfo": "",
                    "fromAddress": "",
                    "gasUsed": 0,
                    "id": -1,
                    "methodDecoded": false,
                    "operation": "",
                    "output": "",
                    "revert": false,
                    "revertMessage": "",
                    "selector": "",
                    "status": false,
                    "value": ""
                },
                "nodeType": 0
            },
            "0": {
                "invocation": {
                    "address": "0xa8d99aaa9bcc25ffd0bd4155661b686d65df58d9",
                    "callData": "0x00000000000000000000000058b6a8a3302369daec383334672404ee733ab239",
                    "decodedMethod": {
                        "callParams": [
                            {
                                "name": "token",
                                "type": "address",
                                "value": "0x58b6a8a3302369daec383334672404ee733ab239"
                            }
                        ],
                        "constructorArguments": "",
                        "name": "release",
                        "returnParams": [],
                        "signature": "release(address)"
                    },
                    "errorInfo": "",
                    "fromAddress": "0x58eae5a835a2da8815028cc56b4a1490f3d49d5e",
                    "gasUsed": 51180,
                    "id": 0,
                    "methodDecoded": true,
                    "operation": "CALL",
                    "output": "",
                    "revert": false,
                    "revertMessage": "",
                    "selector": "0x19165587",
                    "status": true,
                    "value": "0"
                },
                "nodeType": 0
            },
            "1": {
                "invocation": {
                    "address": "0x58b6a8a3302369daec383334672404ee733ab239",
                    "callData": "0x000000000000000000000000a8d99aaa9bcc25ffd0bd4155661b686d65df58d9",
                    "decodedMethod": {
                        "callParams": [
                            {
                                "name": "_owner",
                                "type": "address",
                                "value": "0xa8d99aaa9bcc25ffd0bd4155661b686d65df58d9"
                            }
                        ],
                        "constructorArguments": "",
                        "name": "balanceOf",
                        "returnParams": [
                            {
                                "decimalAvailable": true,
                                "name": "balance",
                                "type": "uint256",
                                "value": "47,630,230,473,934,550,989,346"
                            }
                        ],
                        "signature": "balanceOf(address)"
                    },
                    "errorInfo": "",
                    "fromAddress": "0xa8d99aaa9bcc25ffd0bd4155661b686d65df58d9",
                    "gasUsed": 815,
                    "id": 1,
                    "methodDecoded": true,
                    "operation": "CALL",
                    "output": "0x000000000000000000000000000000000000000000000a160a3b5444565dfa22",
                    "revert": false,
                    "revertMessage": "",
                    "selector": "0x70a08231",
                    "status": true,
                    "value": "0"
                },
                "nodeType": 0
            },
            "2": {
                "invocation": {
                    "address": "0x58b6a8a3302369daec383334672404ee733ab239",
                    "callData": "0x00000000000000000000000058eae5a835a2da8815028cc56b4a1490f3d49d5e0000000000000000000000000000000000000000000001c4d33c04c23f006f38",
                    "decodedMethod": {
                        "callParams": [
                            {
                                "name": "_to",
                                "type": "address",
                                "value": "0x58eae5a835a2da8815028cc56b4a1490f3d49d5e"
                            },
                            {
                                "decimalAvailable": true,
                                "name": "_value",
                                "type": "uint256",
                                "value": "8,353,149,367,389,649,923,896"
                            }
                        ],
                        "constructorArguments": "",
                        "name": "transfer",
                        "returnParams": [
                            {
                                "name": "",
                                "type": "bool",
                                "value": true
                            }
                        ],
                        "signature": "transfer(address,uint256)"
                    },
                    "errorInfo": "",
                    "fromAddress": "0xa8d99aaa9bcc25ffd0bd4155661b686d65df58d9",
                    "gasUsed": 13965,
                    "id": 2,
                    "methodDecoded": true,
                    "operation": "CALL",
                    "output": "0x0000000000000000000000000000000000000000000000000000000000000001",
                    "revert": false,
                    "revertMessage": "",
                    "selector": "0xa9059cbb",
                    "status": true,
                    "value": "0"
                },
                "nodeType": 0
            },
            "3": {
                "event": {
                    "contract": "0x58b6a8a3302369daec383334672404ee733ab239",
                    "decodedLog": {
                        "name": "Transfer",
                        "params": [
                            {
                                "name": "from",
                                "type": "address",
                                "value": "0xa8d99aaa9bcc25ffd0bd4155661b686d65df58d9"
                            },
                            {
                                "name": "to",
                                "type": "address",
                                "value": "0x58eae5a835a2da8815028cc56b4a1490f3d49d5e"
                            },
                            {
                                "decimalAvailable": true,
                                "name": "value",
                                "type": "uint256",
                                "value": "8,353,149,367,389,649,923,896"
                            }
                        ],
                        "signature": "Transfer(address,address,uint256)"
                    },
                    "id": 3,
                    "logData": "0x0000000000000000000000000000000000000000000001c4d33c04c23f006f38",
                    "logDecoded": true,
                    "operation": "EVENT",
                    "revert": false,
                    "status": true,
                    "topics": [
                        "0xddf252ad1be2c89b69c2b068fc378daa952ba7f163c4a11628f55a4df523b3ef",
                        "0x000000000000000000000000a8d99aaa9bcc25ffd0bd4155661b686d65df58d9",
                        "0x00000000000000000000000058eae5a835a2da8815028cc56b4a1490f3d49d5e"
                    ]
                },
                "nodeType": 1
            },
            "4": {
                "event": {
                    "contract": "0xa8d99aaa9bcc25ffd0bd4155661b686d65df58d9",
                    "decodedLog": {
                        "name": "Released",
                        "params": [
                            {
                                "name": "amount",
                                "type": "uint256",
                                "value": "8,353,149,367,389,649,923,896"
                            }
                        ],
                        "signature": "Released(uint256)"
                    },
                    "id": 4,
                    "logData": "0x0000000000000000000000000000000000000000000001c4d33c04c23f006f38",
                    "logDecoded": true,
                    "operation": "EVENT",
                    "revert": false,
                    "status": true,
                    "topics": [
                        "0xfb81f9b30d73d830c3544b34d827c08142579ee75710b490bab0b3995468c565"
                    ]
                },
                "nodeType": 1
            }
        },
        "gasFlame": [
            {
                "children": [
                    {
                        "children": [
                            {
                                "children": [],
                                "depth": 0,
                                "name": "Initial Gas",
                                "value": 22680
                            },
                            {
                                "children": [
                                    {
                                        "children": [],
                                        "depth": 1,
                                        "name": "balanceOf",
                                        "value": 815
                                    },
                                    {
                                        "children": [],
                                        "depth": 1,
                                        "name": "transfer",
                                        "value": 13965
                                    }
                                ],
                                "depth": 0,
                                "name": "Executed Gas",
                                "value": 28500
                            }
                        ],
                        "depth": -1,
                        "name": "Actual Gas Used",
                        "value": 51180
                    },
                    {
                        "children": [],
                        "depth": -1,
                        "name": "Refunded Gas",
                        "value": 0
                    }
                ],
                "depth": -2,
                "name": "Total Gas",
                "value": 51180
            }
        ],
        "isConfirmed": true,
        "mainTrace": [
            {
                "children": [
                    {
                        "children": [
                            {
                                "children": [],
                                "depth": 1,
                                "id": 1,
                                "order": 1
                            },
                            {
                                "children": [
                                    {
                                        "children": [],
                                        "depth": 2,
                                        "id": 3,
                                        "order": 3
                                    }
                                ],
                                "depth": 1,
                                "id": 2,
                                "order": 2
                            },
                            {
                                "children": [],
                                "depth": 1,
                                "id": 4,
                                "order": 4
                            }
                        ],
                        "depth": 0,
                        "id": 0,
                        "order": 0
                    }
                ],
                "depth": -1,
                "id": -1,
                "order": -1
            }
        ],
        "mainTraceNodeCount": 5,
        "parentIdMap": {
            "0": -1,
            "1": 0,
            "2": 0,
            "3": 2,
            "4": 0
        },
        "tidyTrace": [
            {
                "children": [
                    {
                        "children": [
                            {
                                "children": [],
                                "depth": 1,
                                "id": 1,
                                "order": 1
                            },
                            {
                                "children": [
                                    {
                                        "children": [],
                                        "depth": 2,
                                        "id": 3,
                                        "order": 3
                                    }
                                ],
                                "depth": 1,
                                "id": 2,
                                "order": 2
                            },
                            {
                                "children": [],
                                "depth": 1,
                                "id": 4,
                                "order": 4
                            }
                        ],
                        "depth": 0,
                        "id": 0,
                        "order": 0
                    }
                ],
                "depth": -1,
                "id": -1,
                "order": -1
            }
        ],
        "tidyTraceNodeCount": 5
    },
    "state_change": {
        "stateChanges": [
            {
                "address": "0x58b6a8a3302369daec383334672404ee733ab239",
                "erc": "ERC-20",
                "slots": [
                    {
                        "current": "0x00000000000000000000000000000000000000000000085136ff4f82175d8aea",
                        "key": "0x96706751e623d2bce7138b4fedb52996844449f047e7657a1fc97c97922e3830",
                        "prev": "0x000000000000000000000000000000000000000000000a160a3b5444565dfa22"
                    },
                    {
                        "current": "0x0000000000000000000000000000000000000000000004916227180383d03f38",
                        "key": "0xc59868cd31bf1ff41594b9de4c2651cc27a8e91c13b803a19528cb97f1720244",
                        "prev": "0x0000000000000000000000000000000000000000000002cc8eeb134144cfd000"
                    }
                ],
                "storageVariables": [
                    {
                        "name": "balances",
                        "type": "mapping(address => uint256)",
                        "value": {
                            "pairs": [
                                {
                                    "key": "0x58eae5a835a2da8815028cc56b4a1490f3d49d5e",
                                    "value": {
                                        "current": "21571316470309649923896",
                                        "prev": "13218167102920000000000",
                                        "typeTag": 1
                                    }
                                },
                                {
                                    "key": "0xa8d99aaa9bcc25ffd0bd4155661b686d65df58d9",
                                    "value": {
                                        "current": "39277081106544901065450",
                                        "prev": "47630230473934550989346",
                                        "typeTag": 1
                                    }
                                }
                            ],
                            "typeTag": 4
                        }
                    }
                ]
            },
            {
                "address": "0xa8d99aaa9bcc25ffd0bd4155661b686d65df58d9",
                "erc": "",
                "slots": [
                    {
                        "current": "0x0000000000000000000000000000000000000000000041620464bed70a5e7516",
                        "key": "0xefb260c8d900d8566188325f9a50e88cb83ab9fa4bcd0bc136d7f95d5fddec60",
                        "prev": "0x000000000000000000000000000000000000000000003f9d3128ba14cb5e05de"
                    }
                ],
                "storageVariables": [
                    {
                        "name": "released",
                        "type": "mapping(address => uint256)",
                        "value": {
                            "pairs": [
                                {
                                    "key": "0x58b6a8a3302369daec383334672404ee733ab239",
                                    "value": {
                                        "current": "308761918893455098934550",
                                        "prev": "300408769526065449010654",
                                        "typeTag": 1
                                    }
                                }
                            ],
                            "typeTag": 4
                        }
                    }
                ]
            }
        ]
    }
}