{
    "balance_change": {
        "balanceChanges": [
            {
                "account": "0x09fceaa93836e23d84513469e934e194147d91a8",
                "assets": [
                    {
                        "address": "0xeeeeeeeeeeeeeeeeeeeeeeeeeeeeeeeeeeeeeeee",
                        "amount": "0.01",
                        "iconUrl": "https://assets.blocksec.com/image/1663669189317-3.png",
                        "isERC1155": false,
                        "isERC721": false,
                        "sign": false,
                        "value": "4.0952"
                    }
                ]
            },
            {
                "account": "0xcc6fcfb8b3988043e382a481d6bf482d68897024",
                "assets": [
                    {
                        "address": "0xeeeeeeeeeeeeeeeeeeeeeeeeeeeeeeeeeeeeeeee",
                        "amount": "0.01",
                        "iconUrl": "https://assets.blocksec.com/image/1663669189317-3.png",
                        "isERC1155": false,
                        "isERC721": false,
                        "sign": true,
                        "value": "4.0952"
                    }
                ]
            }
        ]
    },
    "profile": {
        "basic_info": {
            "baseFee": "",
            "blockNumber": 10726228,
            "callData": "0x39125215000000000000000000000000fd3d7a9896e451ed922a4e7e3e5303293ac672a6000000000000000000000000000000000000000000000000002386f26fc1000000000000000000000000000000000000000000000000000000000000000000c0000000000000000000000000000000000000000000000000000000005f4d8c8b000000000000000000000000000000000000000000000000000000000000004400000000000000000000000000000000000000000000000000000000000000e000000000000000000000000000000000000000000000000000000000000000000000000000000000000000000000000000000000000000000000000000000041e49cba59cec62e92f3652bb9096b7023327929cdb3ed5bc96ba41d6bd8cb53e336819d09bec20dd32d6b89b39a33b98084bf3d6f47d16684ae6e613b8d260d861c00000000000000000000000000000000000000000000000000000000000000",
            "debugEnable": true,
            "errorInfo": "",
            "eventCount": 2,
            "feeRecipient": "0xb3b7874f13387d44a3398d298b075b7a3505d8d4",
            "formatValue": "0",
            "gasLimit": 195648,
            "gasPrice": "64",
            "gasUsed": 103640,
            "intTxnCount": 3,
            "internalRevert": false,
            "internalRevertMessage": "",
            "isContractCreation": false,
            "isFlashloan": false,
            "maxFee": "",
            "nonce": 19909,
            "overwritedBlockNumber": -1,
            "priorityFee": "",
            "receiver": "0x09fceaa93836e23d84513469e934e194147d91a8",
            "revertMessage": "",
            "sender": "0xe01ed9e684de649bfec799cd79f6c27335c23cb9",
            "simulationEnable": true,
            "sourceTxnHash": "0x1b1c4f3658d731373485f38e3bbe75011eeeb73b3359707484445e1473356cee",
            "status": true,
            "timestamp": "2020-08-24T23:52:13Z",
            "transactionFee": "0.00663296",
            "txnHash": "0x1b1c4f3658d731373485f38e3bbe75011eeeb73b3359707484445e1473356cee",
            "txnIndex": 74,
            "type": 0,
            "value": "0"
        },
        "fund_flow": [
            {
                "amount": "0.01",
                "from": "0x09fceaa93836e23d84513469e934e194147d91a8",
                "id": 1,
                "isERC1155": false,
                "isERC721": false,
                "isReverted": false,
                "order": 1,
                "to": "0xfd3d7a9896e451ed922a4e7e3e5303293ac672a6",
                "token": "0xeeeeeeeeeeeeeeeeeeeeeeeeeeeeeeeeeeeeeeee"
            },
            {
                "amount": "0.01",
                "from": "0xfd3d7a9896e451ed922a4e7e3e5303293ac672a6",
                "id": 2,
                "isERC1155": false,
                "isERC721": false,
                "isReverted": false,
                "order": 2,
                "to": "0xcc6fcfb8b3988043e382a481d6bf482d68897024",
                "token": "0xeeeeeeeeeeeeeeeeeeeeeeeeeeeeeeeeeeeeeeee"
            }
        ],
        "token_infos": [
            {
                "address": "0xc02aaa39b223fe8d0a0e5c4f27ead9083c756cc2",
                "decimals": 18
            },
            {
                "address": "0xeeeeeeeeeeeeeeeeeeeeeeeeeeeeeeeeeeeeeeee",
                "decimals": 18
            }
        ]
    },
    "address_label": {
        "labels": [
            {
                "address": "0xeeeeeeeeeeeeeeeeeeeeeeeeeeeeeeeeeeeeeeee",
                "label": "Ether"
            },
            {
                "address": "0x0000000000000000000000000000000000000001",
                "label": "Precompiled"
            },
            {
                "address": "0x0000000000000000000000000000000000000002",
                "label": "Precompiled"
            },
            {
                "address": "0x0000000000000000000000000000000000000003",
                "label": "Precompiled"
            },
            {
                "address": "0x0000000000000000000000000000000000000004",
                "label": "Precompiled"
            }
        ]
    },
    "trace": {
        "accountLabels": null,
        "dataMap": {
            "-1": {
                "invocation": {
                    "address": "0xe01ed9e684de649bfec799cd79f6c27335c23cb9",
                    "callData": "",
                    "decodedMethod": null,
                    "errorInfo": "",
                    "fromAddress": "",
                    "gasUsed": 0,
                    "id": -1,
                    "methodDecoded": false,
                    "operation": "",
                    "output": "",
                    "revert": false,
                    "revertMessage": "",
                    "selector": "",
                    "status": false,
                    "value": ""
                },
                "nodeType": 0
            },
            "0": {
                "invocation": {
                    "address": "0x09fceaa93836e23d84513469e934e194147d91a8",
                    "callData": "0x000000000000000000000000fd3d7a9896e451ed922a4e7e3e5303293ac672a6000000000000000000000000000000000000000000000000002386f26fc1000000000000000000000000000000000000000000000000000000000000000000c0000000000000000000000000000000000000000000000000000000005f4d8c8b000000000000000000000000000000000000000000000000000000000000004400000000000000000000000000000000000000000000000000000000000000e000000000000000000000000000000000000000000000000000000000000000000000000000000000000000000000000000000000000000000000000000000041e49cba59cec62e92f3652bb9096b7023327929cdb3ed5bc96ba41d6bd8cb53e336819d09bec20dd32d6b89b39a33b98084bf3d6f47d16684ae6e613b8d260d861c00000000000000000000000000000000000000000000000000000000000000",
                    "decodedMethod": {
                        "callParams": [
                            {
                                "name": "toAddress",
                                "type": "address",
                                "value": "0xfd3d7a9896e451ed922a4e7e3e5303293ac672a6"
                            },
                            {
                                "name": "value",
                                "type": "uint256",
                                "value": "10,000,000,000,000,000"
                            },
                            {
                                "name": "data",
                                "type": "bytes",
                                "value": "0x"
                            },
                            {
                                "name": "expireTime",
                                "type": "uint256",
                                "value": "1,598,917,771"
                            },
                            {
                                "name": "sequenceId",
                                "type": "uint256",
                                "value": "68"
                            },
                            {
                                "name": "signature",
                                "type": "bytes",
                                "value": "0xe49cba59cec62e92f3652bb9096b7023327929cdb3ed5bc96ba41d6bd8cb53e336819d09bec20dd32d6b89b39a33b98084bf3d6f47d16684ae6e613b8d260d861c"
                            }
                        ],
                        "constructorArguments": "",
                        "name": "sendMultiSig",
                        "returnParams": [],
                        "signature": "sendMultiSig(address,uint256,bytes,uint256,uint256,bytes)"
                    },
                    "errorInfo": "",
                    "fromAddress": "0xe01ed9e684de649bfec799cd79f6c27335c23cb9",
                    "gasUsed": 103640,
                    "id": 0,
                    "methodDecoded": true,
                    "operation": "CALL",
                    "output": "",
                    "revert": false,
                    "revertMessage": "",
                    "selector": "0x39125215",
                    "status": true,
                    "value": "0"
                },
                "nodeType": 0
            },
            "1": {
                "invocation": {
                    "address": "0x0000000000000000000000000000000000000001",
                    "callData": "0x8d905aefbd0db503bcbbe4b01d1292730f0bdaba4e7ac1ca0bb7aed5000000000000000000000000000000000000000000000000000000000000001ce49cba59cec62e92f3652bb9096b7023327929cdb3ed5bc96ba41d6bd8cb53e336819d09bec20dd32d6b89b39a33b98084bf3d6f47d16684ae6e613b8d260d86",
                    "decodedMethod": {
                        "callParams": [
                            {
                                "name": "hash",
                                "type": "bytes32",
                                "value": "0xe3a49a538d905aefbd0db503bcbbe4b01d1292730f0bdaba4e7ac1ca0bb7aed5"
                            },
                            {
                                "name": "v",
                                "type": "uint256",
                                "value": "28"
                            },
                            {
                                "name": "r",
                                "type": "bytes32",
                                "value": "0xe49cba59cec62e92f3652bb9096b7023327929cdb3ed5bc96ba41d6bd8cb53e3"
                            },
                            {
                                "name": "s",
                                "type": "bytes32",
                                "value": "0x36819d09bec20dd32d6b89b39a33b98084bf3d6f47d16684ae6e613b8d260d86"
                            }
                        ],
                        "constructorArguments": "",
                        "name": "ecrecover",
                        "returnParams": [
                            {
                                "name": "",
                                "type": "address",
                                "value": "0x58da3357b9bd895862e958206f088ba127eb7baa"
                            }
                        ],
                        "signature": "ecrecover(bytes32,uint256,bytes32,bytes32)"
                    },
                    "errorInfo": "",
                    "fromAddress": "0x09fceaa93836e23d84513469e934e194147d91a8",
                    "gasUsed": 3000,
                    "id": 1,
                    "methodDecoded": true,
                    "operation": "CALL",
                    "output": "0x00000000000000000000000058da3357b9bd895862e958206f088ba127eb7baa",
                    "revert": false,
                    "revertMessage": "",
                    "selector": "0xe3a49a53",
                    "status": true,
                    "value": "0"
                },
                "nodeType": 0
            },
            "2": {
                "invocation": {
                    "address": "0xfd3d7a9896e451ed922a4e7e3e5303293ac672a6",
                    "callData": "0x",
                    "decodedMethod": null,
                    "errorInfo": "",
                    "fromAddress": "0x09fceaa93836e23d84513469e934e194147d91a8",
                    "gasUsed": 11044,
                    "id": 2,
                    "methodDecoded": false,
                    "operation": "CALL",
                    "output": "",
                    "revert": false,
                    "revertMessage": "",
                    "selector": "fallback",
                    "status": true,
                    "value": "0.01"
                },
                "nodeType": 0
            },
            "3": {
                "invocation": {
                    "address": "0xcc6fcfb8b3988043e382a481d6bf482d68897024",
                    "callData": "0x00000000000000000000000000000000000000000000000000000000",
                    "decodedMethod": {
                        "callParams": [],
                        "constructorArguments": "",
                        "name": "execute_44g58pv",
                        "returnParams": [],
                        "signature": "execute_44g58pv()"
                    },
                    "errorInfo": "",
                    "fromAddress": "0xfd3d7a9896e451ed922a4e7e3e5303293ac672a6",
                    "gasUsed": 148,
                    "id": 3,
                    "methodDecoded": true,
                    "operation": "CALL",
                    "output": "",
                    "revert": false,
                    "revertMessage": "",
                    "selector": "0x00000000",
                    "status": true,
                    "value": "0.01"
                },
                "nodeType": 0
            },
            "4": {
                "event": {
                    "contract": "0xfd3d7a9896e451ed922a4e7e3e5303293ac672a6",
                    "decodedLog": {
                        "name": "Deposit",
                        "params": [
                            {
                                "name": "depositor",
                                "type": "address",
                                "value": "0xcc6fcfb8b3988043e382a481d6bf482d68897024"
                            },
                            {
                                "name": "token",
                                "type": "address",
                                "value": "0x09fceaa93836e23d84513469e934e194147d91a8"
                            },
                            {
                                "name": "amount",
                                "type": "uint256",
                                "value": "10,000,000,000,000,000"
                            }
                        ],
                        "signature": "Deposit(address,address,uint256)"
                    },
                    "id": 4,
                    "logData": "0x000000000000000000000000cc6fcfb8b3988043e382a481d6bf482d6889702400000000000000000000000009fceaa93836e23d84513469e934e194147d91a8000000000000000000000000000000000000000000000000002386f26fc10000",
                    "logDecoded": true,
                    "operation": "EVENT",
                    "revert": false,
                    "status": true,
                    "topics": [
                        "0x5548c837ab068cf56a2c2479df0882a4922fd203edb7517321831d95078c5f62"
                    ]
                },
                "nodeType": 1
            },
            "5": {
                "event": {
                    "contract": "0x09fceaa93836e23d84513469e934e194147d91a8",
                    "decodedLog": {
                        "name": "Transacted",
                        "params": [
                            {
                                "name": "msgSender",
                                "type": "address",
                                "value": "0xe01ed9e684de649bfec799cd79f6c27335c23cb9"
                            },
                            {
                                "name": "otherSigner",
                                "type": "address",
                                "value": "0x58da3357b9bd895862e958206f088ba127eb7baa"
                            },
                            {
                                "name": "operation",
                                "type": "bytes32",
                                "value": "0xe3a49a538d905aefbd0db503bcbbe4b01d1292730f0bdaba4e7ac1ca0bb7aed5"
                            },
                            {
                                "name": "toAddress",
                                "type": "address",
                                "value": "0xfd3d7a9896e451ed922a4e7e3e5303293ac672a6"
                            },
                            {
                                "name": "value",
                                "type": "uint256",
                                "value": "10,000,000,000,000,000"
                            },
                            {
                                "name": "data",
                                "type": "bytes",
                                "value": "0x"
                            }
                        ],
                        "signature": "Transacted(address,address,bytes32,address,uint256,bytes)"
                    },
                    "id": 5,
                    "logData": "0x000000000000000000000000e01ed9e684de649bfec799cd79f6c27335c23cb900000000000000000000000058da3357b9bd895862e958206f088ba127eb7baae3a49a538d905aefbd0db503bcbbe4b01d1292730f0bdaba4e7ac1ca0bb7aed5000000000000000000000000fd3d7a9896e451ed922a4e7e3e5303293ac672a6000000000000000000000000000000000000000000000000002386f26fc1000000000000000000000000000000000000000000000000000000000000000000c00000000000000000000000000000000000000000000000000000000000000000",
                    "logDecoded": true,
                    "operation": "EVENT",
                    "revert": false,
                    "status": true,
                    "topics": [
                        "0x59bed9ab5d78073465dd642a9e3e76dfdb7d53bcae9d09df7d0b8f5234d5a806"
                    ]
                },
                "nodeType": 1
            }
        },
        "gasFlame": [
            {
                "children": [
                    {
                        "children": [
                            {
                                "children": [],
                                "depth": 0,
                                "name": "Initial Gas",
                                "value": 23648
                            },
                            {
                                "children": [
                                    {
                                        "children": [],
                                        "depth": 1,
                                        "name": "ecrecover",
                                        "value": 3000
                                    },
                                    {
                                        "children": [
                                            {
                                                "children": [],
                                                "depth": 2,
                                                "name": "execute_44g58pv",
                                                "value": 148
                                            }
                                        ],
                                        "depth": 1,
                                        "name": "fallback",
                                        "value": 11044
                                    }
                                ],
                                "depth": 0,
                                "name": "Executed Gas",
                                "value": 79992
                            }
                        ],
                        "depth": -1,
                        "name": "Actual Gas Used",
                        "value": 103640
                    },
                    {
                        "children": [],
                        "depth": -1,
                        "name": "Refunded Gas",
                        "value": 0
                    }
                ],
                "depth": -2,
                "name": "Total Gas",
                "value": 103640
            }
        ],
        "isConfirmed": true,
        "mainTrace": [
            {
                "children": [
                    {
                        "children": [
                            {
                                "children": [],
                                "depth": 1,
                                "id": 1,
                                "order": 1
                            },
                            {
                                "children": [
                                    {
                                        "children": [],
                                        "depth": 2,
                                        "id": 3,
                                        "order": 3
                                    },
                                    {
                                        "children": [],
                                        "depth": 2,
                                        "id": 4,
                                        "order": 4
                                    }
                                ],
                                "depth": 1,
                                "id": 2,
                                "order": 2
                            },
                            {
                                "children": [],
                                "depth": 1,
                                "id": 5,
                                "order": 5
                            }
                        ],
                        "depth": 0,
                        "id": 0,
                        "order": 0
                    }
                ],
                "depth": -1,
                "id": -1,
                "order": -1
            }
        ],
        "mainTraceNodeCount": 6,
        "parentIdMap": {
            "0": -1,
            "1": 0,
            "2": 0,
            "3": 2,
            "4": 2,
            "5": 0
        },
        "tidyTrace": [
            {
                "children": [
                    {
                        "children": [
                            {
                                "children": [],
                                "depth": 1,
                                "id": 1,
                                "order": 1
                            },
                            {
                                "children": [
                                    {
                                        "children": [],
                                        "depth": 2,
                                        "id": 3,
                                        "order": 3
                                    },
                                    {
                                        "children": [],
                                        "depth": 2,
                                        "id": 4,
                                        "order": 4
                                    }
                                ],
                                "depth": 1,
                                "id": 2,
                                "order": 2
                            },
                            {
                                "children": [],
                                "depth": 1,
                                "id": 5,
                                "order": 5
                            }
                        ],
                        "depth": 0,
                        "id": 0,
                        "order": 0
                    }
                ],
                "depth": -1,
                "id": -1,
                "order": -1
            }
        ],
        "tidyTraceNodeCount": 6
    },
    "state_change": {
        "stateChanges": [
            {
                "address": "0x09fceaa93836e23d84513469e934e194147d91a8",
                "erc": "",
                "slots": [
                    {
                        "current": "0x0000000000000000000000000000000000000000000000000000000000000044",
                        "key": "0x0000000000000000000000000000000000000000000000000000000000000008",
                        "prev": "0x0000000000000000000000000000000000000000000000000000000000000039"
                    }
                ],
                "storageVariables": []
            }
        ]
    }
}