{
    "balance_change": {
        "balanceChanges": [
            {
                "account": "0xef8801eaf234ff82801821ffe2d78d60a0237f97",
                "assets": [
                    {
                        "address": "0xdac17f958d2ee523a2206206994597c13d831ec7",
                        "amount": "600",
                        "iconUrl": "https://assets.blocksec.com/icon/fcea71f3193ce895be44bfdf941f7e4c9381dd587f273c2d1a27f1263d84e4ea.png",
                        "isERC1155": false,
                        "isERC721": false,
                        "sign": false,
                        "value": "600"
                    }
                ]
            },
            {
                "account": "0xfa8e110ed04211fd0907cf89473f720d68ba1a62",
                "assets": [
                    {
                        "address": "0xdac17f958d2ee523a2206206994597c13d831ec7",
                        "amount": "600",
                        "iconUrl": "https://assets.blocksec.com/icon/fcea71f3193ce895be44bfdf941f7e4c9381dd587f273c2d1a27f1263d84e4ea.png",
                        "isERC1155": false,
                        "isERC721": false,
                        "sign": true,
                        "value": "600"
                    }
                ]
            }
        ]
    },
    "profile": {
        "basic_info": {
            "baseFee": "13.323310595",
            "blockNumber": 17674317,
            "callData": "0xa9059cbb000000000000000000000000fa8e110ed04211fd0907cf89473f720d68ba1a620000000000000000000000000000000000000000000000000000000023c34600",
            "debugEnable": true,
            "errorInfo": "",
            "eventCount": 1,
            "feeRecipient": "0x690b9a9e9aa1c9db991c7721a92d351db4fac990",
            "formatValue": "0",
            "gasLimit": 146097,
            "gasPrice": "13.391848322",
            "gasUsed": 46097,
            "intTxnCount": 0,
            "internalRevert": false,
            "internalRevertMessage": "",
            "isContractCreation": false,
            "isFlashloan": false,
            "maxFee": "26.698186289",
            "nonce": 111892,
            "overwritedBlockNumber": -1,
            "priorityFee": "0.068537727",
            "receiver": "0xdac17f958d2ee523a2206206994597c13d831ec7",
            "revertMessage": "",
            "sender": "0xef8801eaf234ff82801821ffe2d78d60a0237f97",
            "simulationEnable": true,
            "sourceTxnHash": "0x1bf17f23c8d678ec9f2bb8fe7852def07bff176ef77cf57c9495f8909d6d3f3b",
            "status": true,
            "timestamp": "2023-07-12T01:46:47Z",
            "transactionFee": "0.000617324032099234",
            "txnHash": "0x1bf17f23c8d678ec9f2bb8fe7852def07bff176ef77cf57c9495f8909d6d3f3b",
            "txnIndex": 150,
            "type": 2,
            "value": "0"
        },
        "fund_flow": [
            {
                "amount": "600",
                "from": "0xef8801eaf234ff82801821ffe2d78d60a0237f97",
                "id": 1,
                "isERC1155": false,
                "isERC721": false,
                "isReverted": false,
                "order": 1,
                "to": "0xfa8e110ed04211fd0907cf89473f720d68ba1a62",
                "token": "0xdac17f958d2ee523a2206206994597c13d831ec7"
            }
        ],
        "token_infos": [
            {
                "address": "0xc02aaa39b223fe8d0a0e5c4f27ead9083c756cc2",
                "decimals": 18
            },
            {
                "address": "0xdac17f958d2ee523a2206206994597c13d831ec7",
                "decimals": 6
            },
            {
                "address": "0xeeeeeeeeeeeeeeeeeeeeeeeeeeeeeeeeeeeeeeee",
                "decimals": 18
            }
        ]
    },
    "address_label": {
        "labels": [
            {
                "address": "0xdac17f958d2ee523a2206206994597c13d831ec7",
                "label": "Tether: USDT Stablecoin"
            },
            {
                "address": "0x0000000000000000000000000000000000000001",
                "label": "Precompiled"
            },
            {
                "address": "0x0000000000000000000000000000000000000002",
                "label": "Precompiled"
            },
            {
                "address": "0x0000000000000000000000000000000000000003",
                "label": "Precompiled"
            },
            {
                "address": "0x0000000000000000000000000000000000000004",
                "label": "Precompiled"
            },
            {
                "address": "0xeeeeeeeeeeeeeeeeeeeeeeeeeeeeeeeeeeeeeeee",
                "label": "Ether"
            },
            {
                "address": "0xef8801eaf234ff82801821ffe2d78d60a0237f97",
                "label": "Rollbit: ERC-20 Hot Wallet"
            }
        ]
    },
    "trace": {
        "accountLabels": null,
        "dataMap": {
            "-1": {
                "invocation": {
                    "address": "0xef8801eaf234ff82801821ffe2d78d60a0237f97",
                    "callData": "",
                    "decodedMethod": null,
                    "errorInfo": "",
                    "fromAddress": "",
                    "gasUsed": 0,
                    "id": -1,
                    "methodDecoded": false,
                    "operation": "",
                    "output": "",
                    "revert": false,
                    "revertMessage": "",
                    "selector": "",
                    "status": false,
                    "value": ""
                },
                "nodeType": 0
            },
            "0": {
                "invocation": {
                    "address": "0xdac17f958d2ee523a2206206994597c13d831ec7",
                    "callData": "0x000000000000000000000000fa8e110ed04211fd0907cf89473f720d68ba1a620000000000000000000000000000000000000000000000000000000023c34600",
                    "decodedMethod": {
                        "callParams": [
                            {
                                "name": "_to",
                                "type": "address",
                                "value": "0xfa8e110ed04211fd0907cf89473f720d68ba1a62"
                            },
                            {
                                "decimalAvailable": true,
                                "name": "_value",
                                "type": "uint256",
                                "value": "600,000,000"
                            }
                        ],
                        "constructorArguments": "",
                        "name": "transfer",
                        "returnParams": [],
                        "signature": "transfer(address,uint256)"
                    },
                    "errorInfo": "",
                    "fromAddress": "0xef8801eaf234ff82801821ffe2d78d60a0237f97",
                    "gasUsed": 46097,
                    "id": 0,
                    "methodDecoded": true,
                    "operation": "CALL",
                    "output": "",
                    "revert": false,
                    "revertMessage": "",
                    "selector": "0xa9059cbb",
                    "status": true,
                    "value": "0"
                },
                "nodeType": 0
            },
            "1": {
                "event": {
                    "contract": "0xdac17f958d2ee523a2206206994597c13d831ec7",
                    "decodedLog": {
                        "name": "Transfer",
                        "params": [
                            {
                                "name": "from",
                                "type": "address",
                                "value": "0xef8801eaf234ff82801821ffe2d78d60a0237f97"
                            },
                            {
                                "name": "to",
                                "type": "address",
                                "value": "0xfa8e110ed04211fd0907cf89473f720d68ba1a62"
                            },
                            {
                                "decimalAvailable": true,
                                "name": "value",
                                "type": "uint256",
                                "value": "600,000,000"
                            }
                        ],
                        "signature": "Transfer(address,address,uint256)"
                    },
                    "id": 1,
                    "logData": "0x0000000000000000000000000000000000000000000000000000000023c34600",
                    "logDecoded": true,
                    "operation": "EVENT",
                    "revert": false,
                    "status": true,
                    "topics": [
                        "0xddf252ad1be2c89b69c2b068fc378daa952ba7f163c4a11628f55a4df523b3ef",
                        "0x000000000000000000000000ef8801eaf234ff82801821ffe2d78d60a0237f97",
                        "0x000000000000000000000000fa8e110ed04211fd0907cf89473f720d68ba1a62"
                    ]
                },
                "nodeType": 1
            }
        },
        "gasFlame": [
            {
                "children": [
                    {
                        "children": [
                            {
                                "children": [],
                                "depth": 0,
                                "name": "Initial Gas",
                                "value": 21596
                            },
                            {
                                "children": [],
                                "depth": 0,
                                "name": "Executed Gas",
                                "value": 24501
                            }
                        ],
                        "depth": -1,
                        "name": "Actual Gas Used",
                        "value": 46097
                    },
                    {
                        "children": [],
                        "depth": -1,
                        "name": "Refunded Gas",
                        "value": 0
                    }
                ],
                "depth": -2,
                "name": "Total Gas",
                "value": 46097
            }
        ],
        "isConfirmed": true,
        "mainTrace": [
            {
                "children": [
                    {
                        "children": [
                            {
                                "children": [],
                                "depth": 1,
                                "id": 1,
                                "order": 1
                            }
                        ],
                        "depth": 0,
                        "id": 0,
                        "order": 0
                    }
                ],
                "depth": -1,
                "id": -1,
                "order": -1
            }
        ],
        "mainTraceNodeCount": 2,
        "parentIdMap": {
            "0": -1,
            "1": 0
        },
        "tidyTrace": [
            {
                "children": [
                    {
                        "children": [
                            {
                                "children": [],
                                "depth": 1,
                                "id": 1,
                                "order": 1
                            }
                        ],
                        "depth": 0,
                        "id": 0,
                        "order": 0
                    }
                ],
                "depth": -1,
                "id": -1,
                "order": -1
            }
        ],
        "tidyTraceNodeCount": 2
    },
    "state_change": {
        "stateChanges": [
            {
                "address": "0xdac17f958d2ee523a2206206994597c13d831ec7",
                "erc": "ERC-20",
                "slots": [
                    {
                        "current": "0x00000000000000000000000000000000000000000000000000000558b603168b",
                        "key": "0x12304d65d6e3d6929492ede4d2306f33a2674640b88203af4f58a24a2d710df5",
                        "prev": "0x00000000000000000000000000000000000000000000000000000558d9c65c8b"
                    },
                    {
                        "current": "0x00000000000000000000000000000000000000000000000000000001064c0264",
                        "key": "0x437635177f2a09af7379bb3c6ce0244eb644b046e43d85eee653083ae01f9b52",
                        "prev": "0x00000000000000000000000000000000000000000000000000000000e288bc64"
                    }
                ],
                "storageVariables": [
                    {
                        "name": "balances",
                        "type": "mapping(address => uint256)",
                        "value": {
                            "pairs": [
                                {
                                    "key": "0xef8801eaf234ff82801821ffe2d78d60a0237f97",
                                    "value": {
                                        "current": "5878568916619",
                                        "prev": "5879168916619",
                                        "typeTag": 1
                                    }
                                },
                                {
                                    "key": "0xfa8e110ed04211fd0907cf89473f720d68ba1a62",
                                    "value": {
                                        "current": "4400611940",
                                        "prev": "3800611940",
                                        "typeTag": 1
                                    }
                                }
                            ],
                            "typeTag": 4
                        }
                    }
                ]
            }
        ]
    }
}