{
    "balance_change": {
        "balanceChanges": [
            {
                "account": "0xc060aa421c321af92535274b8bb62896b1dc921b",
                "assets": [
                    {
                        "address": "0x0d51a44a0c6610f0918f8b5201efe1ff3e3a93cc",
                        "amount": "1,000,000,000,000",
                        "iconUrl": "",
                        "isERC1155": false,
                        "isERC721": false,
                        "sign": false,
                        "value": ""
                    }
                ]
            },
            {
                "account": "0x13285ea887d56fb16c1b0951ae8083687c8b7499",
                "assets": [
                    {
                        "address": "0x0d51a44a0c6610f0918f8b5201efe1ff3e3a93cc",
                        "amount": "1,000,000,000,000",
                        "iconUrl": "",
                        "isERC1155": false,
                        "isERC721": false,
                        "sign": true,
                        "value": ""
                    }
                ]
            }
        ]
    },
    "profile": {
        "basic_info": {
            "baseFee": "",
            "blockNumber": 5630876,
            "callData": "0xa9059cbb00000000000000000000000013285ea887d56fb16c1b0951ae8083687c8b7499000000000000000000000000000000000000000000000000000000e8d4a51000",
            "debugEnable": true,
            "errorInfo": "",
            "eventCount": 1,
            "feeRecipient": "0x00ff662dedf49679e5d8391f2280e52500570900",
            "formatValue": "0",
            "gasLimit": 53000,
            "gasPrice": "9",
            "gasUsed": 22253,
            "intTxnCount": 0,
            "internalRevert": false,
            "internalRevertMessage": "",
            "isContractCreation": false,
            "isFlashloan": false,
            "maxFee": "",
            "nonce": 0,
            "overwritedBlockNumber": -1,
            "priorityFee": "",
            "receiver": "0x0d51a44a0c6610f0918f8b5201efe1ff3e3a93cc",
            "revertMessage": "",
            "sender": "0xc060aa421c321af92535274b8bb62896b1dc921b",
            "simulationEnable": true,
            "sourceTxnHash": "0x1b20ca409855cdf7e89d15b876673b3b6068b8f25fe600ec942a31d4cf447940",
            "status": true,
            "timestamp": "2018-05-17T19:21:29Z",
            "transactionFee": "0.000200277",
            "txnHash": "0x1b20ca409855cdf7e89d15b876673b3b6068b8f25fe600ec942a31d4cf447940",
            "txnIndex": 68,
            "type": 0,
            "value": "0"
        },
        "fund_flow": [
            {
                "amount": "1,000,000,000,000",
                "from": "0xc060aa421c321af92535274b8bb62896b1dc921b",
                "id": 1,
                "isERC1155": false,
                "isERC721": false,
                "isReverted": false,
                "order": 1,
                "to": "0x13285ea887d56fb16c1b0951ae8083687c8b7499",
                "token": "0x0d51a44a0c6610f0918f8b5201efe1ff3e3a93cc"
            }
        ],
        "token_infos": [
            {
                "address": "0xc02aaa39b223fe8d0a0e5c4f27ead9083c756cc2",
                "decimals": 18
            },
            {
                "address": "0xeeeeeeeeeeeeeeeeeeeeeeeeeeeeeeeeeeeeeeee",
                "decimals": 18
            }
        ]
    },
    "address_label": {
        "labels": [
            {
                "address": "0x0000000000000000000000000000000000000004",
                "label": "Precompiled"
            },
            {
                "address": "0xeeeeeeeeeeeeeeeeeeeeeeeeeeeeeeeeeeeeeeee",
                "label": "Ether"
            },
            {
                "address": "0x0000000000000000000000000000000000000001",
                "label": "Precompiled"
            },
            {
                "address": "0x0000000000000000000000000000000000000002",
                "label": "Precompiled"
            },
            {
                "address": "0x0000000000000000000000000000000000000003",
                "label": "Precompiled"
            }
        ]
    },
    "trace": {
        "accountLabels": null,
        "dataMap": {
            "-1": {
                "invocation": {
                    "address": "0xc060aa421c321af92535274b8bb62896b1dc921b",
                    "callData": "",
                    "decodedMethod": null,
                    "errorInfo": "",
                    "fromAddress": "",
                    "gasUsed": 0,
                    "id": -1,
                    "methodDecoded": false,
                    "operation": "",
                    "output": "",
                    "revert": false,
                    "revertMessage": "",
                    "selector": "",
                    "status": false,
                    "value": ""
                },
                "nodeType": 0
            },
            "0": {
                "invocation": {
                    "address": "0x0d51a44a0c6610f0918f8b5201efe1ff3e3a93cc",
                    "callData": "0x00000000000000000000000013285ea887d56fb16c1b0951ae8083687c8b7499000000000000000000000000000000000000000000000000000000e8d4a51000",
                    "decodedMethod": {
                        "callParams": [
                            {
                                "name": "_to",
                                "type": "address",
                                "value": "0x13285ea887d56fb16c1b0951ae8083687c8b7499"
                            },
                            {
                                "decimalAvailable": true,
                                "name": "_value",
                                "type": "uint256",
                                "value": "1,000,000,000,000"
                            }
                        ],
                        "constructorArguments": "",
                        "name": "transfer",
                        "returnParams": [],
                        "signature": "transfer(address,uint256)"
                    },
                    "errorInfo": "",
                    "fromAddress": "0xc060aa421c321af92535274b8bb62896b1dc921b",
                    "gasUsed": 22253,
                    "id": 0,
                    "methodDecoded": true,
                    "operation": "CALL",
                    "output": "",
                    "revert": false,
                    "revertMessage": "",
                    "selector": "0xa9059cbb",
                    "status": true,
                    "value": "0"
                },
                "nodeType": 0
            },
            "1": {
                "event": {
                    "contract": "0x0d51a44a0c6610f0918f8b5201efe1ff3e3a93cc",
                    "decodedLog": {
                        "name": "Transfer",
                        "params": [
                            {
                                "name": "from",
                                "type": "address",
                                "value": "0xc060aa421c321af92535274b8bb62896b1dc921b"
                            },
                            {
                                "name": "to",
                                "type": "address",
                                "value": "0x13285ea887d56fb16c1b0951ae8083687c8b7499"
                            },
                            {
                                "decimalAvailable": true,
                                "name": "value",
                                "type": "uint256",
                                "value": "1,000,000,000,000"
                            }
                        ],
                        "signature": "Transfer(address,address,uint256)"
                    },
                    "id": 1,
                    "logData": "0x000000000000000000000000000000000000000000000000000000e8d4a51000",
                    "logDecoded": true,
                    "operation": "EVENT",
                    "revert": false,
                    "status": true,
                    "topics": [
                        "0xddf252ad1be2c89b69c2b068fc378daa952ba7f163c4a11628f55a4df523b3ef",
                        "0x000000000000000000000000c060aa421c321af92535274b8bb62896b1dc921b",
                        "0x00000000000000000000000013285ea887d56fb16c1b0951ae8083687c8b7499"
                    ]
                },
                "nodeType": 1
            }
        },
        "gasFlame": [
            {
                "children": [
                    {
                        "children": [
                            {
                                "children": [],
                                "depth": 0,
                                "name": "Initial Gas",
                                "value": 23064
                            },
                            {
                                "children": [],
                                "depth": 0,
                                "name": "Executed Gas",
                                "value": 14189
                            }
                        ],
                        "depth": -1,
                        "name": "Actual Gas Used",
                        "value": 22253
                    },
                    {
                        "children": [],
                        "depth": -1,
                        "name": "Refunded Gas",
                        "value": 15000
                    }
                ],
                "depth": -2,
                "name": "Total Gas",
                "value": 37253
            }
        ],
        "isConfirmed": true,
        "mainTrace": [
            {
                "children": [
                    {
                        "children": [
                            {
                                "children": [],
                                "depth": 1,
                                "id": 1,
                                "order": 1
                            }
                        ],
                        "depth": 0,
                        "id": 0,
                        "order": 0
                    }
                ],
                "depth": -1,
                "id": -1,
                "order": -1
            }
        ],
        "mainTraceNodeCount": 2,
        "parentIdMap": {
            "0": -1,
            "1": 0
        },
        "tidyTrace": [
            {
                "children": [
                    {
                        "children": [
                            {
                                "children": [],
                                "depth": 1,
                                "id": 1,
                                "order": 1
                            }
                        ],
                        "depth": 0,
                        "id": 0,
                        "order": 0
                    }
                ],
                "depth": -1,
                "id": -1,
                "order": -1
            }
        ],
        "tidyTraceNodeCount": 2
    },
    "state_change": {
        "stateChanges": [
            {
                "address": "0x0d51a44a0c6610f0918f8b5201efe1ff3e3a93cc",
                "erc": "",
                "slots": [
                    {
                        "current": "0x0000000000000000000000000000000000000000000000000000000000000000",
                        "key": "0xcb8d258f979b9dfaa50249e2c015e636598d3096929a743ecd3f4e4a71458632",
                        "prev": "0x000000000000000000000000000000000000000000000000000000e8d4a51000"
                    },
                    {
                        "current": "0x00000000000000000000000000000000000000000000000000129e79f861c41e",
                        "key": "0x0e77cc2551c3563ae814928da2b04ba2de00c1908bb870d90b26a242fbdc4cad",
                        "prev": "0x00000000000000000000000000000000000000000000000000129d9123bcb41e"
                    }
                ],
                "storageVariables": []
            }
        ]
    }
}