{
    "balance_change": {
        "balanceChanges": []
    },
    "profile": {
        "basic_info": {
            "baseFee": "29.507376081",
            "blockNumber": 15030964,
            "callData": "0xf14fcbc831be2deedc0a2dda245b1d43b223fb241717220edaf69dd679b8951b7fc95304",
            "debugEnable": true,
            "errorInfo": "",
            "eventCount": 0,
            "feeRecipient": "0x2daa35962a6d43eb54c48367b33d0b379c930e5e",
            "formatValue": "0",
            "gasLimit": 46267,
            "gasPrice": "31.007376081",
            "gasUsed": 46267,
            "intTxnCount": 0,
            "internalRevert": false,
            "internalRevertMessage": "",
            "isContractCreation": false,
            "isFlashloan": false,
            "maxFee": "41.971566894",
            "nonce": 25,
            "overwritedBlockNumber": -1,
            "priorityFee": "1.5",
            "receiver": "0x283af0b28c62c092c9727f1ee09c02ca627eb7f5",
            "revertMessage": "",
            "sender": "0x1e7ebe5c8b3e69ad062ce12eeaf33ee76603c1fe",
            "simulationEnable": true,
            "sourceTxnHash": "0x1baf8fc98c35c3f0c484c9e05628b3207cb421bb0b0685e2cb090286fc63da9f",
            "status": true,
            "timestamp": "2022-06-26T21:24:47Z",
            "transactionFee": "0.001434618269139627",
            "txnHash": "0x1baf8fc98c35c3f0c484c9e05628b3207cb421bb0b0685e2cb090286fc63da9f",
            "txnIndex": 150,
            "type": 2,
            "value": "0"
        },
        "fund_flow": [],
        "token_infos": [
            {
                "address": "0xeeeeeeeeeeeeeeeeeeeeeeeeeeeeeeeeeeeeeeee",
                "decimals": 18
            },
            {
                "address": "0xc02aaa39b223fe8d0a0e5c4f27ead9083c756cc2",
                "decimals": 18
            }
        ]
    },
    "address_label": {
        "labels": [
            {
                "address": "0xeeeeeeeeeeeeeeeeeeeeeeeeeeeeeeeeeeeeeeee",
                "label": "Ether"
            },
            {
                "address": "0x283af0b28c62c092c9727f1ee09c02ca627eb7f5",
                "label": "ENS: Old ETH Registrar Controller"
            },
            {
                "address": "0x0000000000000000000000000000000000000001",
                "label": "Precompiled"
            },
            {
                "address": "0x0000000000000000000000000000000000000002",
                "label": "Precompiled"
            },
            {
                "address": "0x0000000000000000000000000000000000000003",
                "label": "Precompiled"
            },
            {
                "address": "0x0000000000000000000000000000000000000004",
                "label": "Precompiled"
            }
        ]
    },
    "trace": {
        "accountLabels": null,
        "dataMap": {
            "-1": {
                "invocation": {
                    "address": "0x1e7ebe5c8b3e69ad062ce12eeaf33ee76603c1fe",
                    "callData": "",
                    "decodedMethod": null,
                    "errorInfo": "",
                    "fromAddress": "",
                    "gasUsed": 0,
                    "id": -1,
                    "methodDecoded": false,
                    "operation": "",
                    "output": "",
                    "revert": false,
                    "revertMessage": "",
                    "selector": "",
                    "status": false,
                    "value": ""
                },
                "nodeType": 0
            },
            "0": {
                "invocation": {
                    "address": "0x283af0b28c62c092c9727f1ee09c02ca627eb7f5",
                    "callData": "0x31be2deedc0a2dda245b1d43b223fb241717220edaf69dd679b8951b7fc95304",
                    "decodedMethod": {
                        "callParams": [
                            {
                                "name": "commitment",
                                "type": "bytes32",
                                "value": "0x31be2deedc0a2dda245b1d43b223fb241717220edaf69dd679b8951b7fc95304"
                            }
                        ],
                        "constructorArguments": "",
                        "name": "commit",
                        "returnParams": [],
                        "signature": "commit(bytes32)"
                    },
                    "errorInfo": "",
                    "fromAddress": "0x1e7ebe5c8b3e69ad062ce12eeaf33ee76603c1fe",
                    "gasUsed": 46267,
                    "id": 0,
                    "methodDecoded": true,
                    "operation": "CALL",
                    "output": "",
                    "revert": false,
                    "revertMessage": "",
                    "selector": "0xf14fcbc8",
                    "status": true,
                    "value": "0"
                },
                "nodeType": 0
            }
        },
        "gasFlame": [
            {
                "children": [
                    {
                        "children": [
                            {
                                "children": [],
                                "depth": 0,
                                "name": "Initial Gas",
                                "value": 21576
                            },
                            {
                                "children": [],
                                "depth": 0,
                                "name": "Executed Gas",
                                "value": 24691
                            }
                        ],
                        "depth": -1,
                        "name": "Actual Gas Used",
                        "value": 46267
                    },
                    {
                        "children": [],
                        "depth": -1,
                        "name": "Refunded Gas",
                        "value": 0
                    }
                ],
                "depth": -2,
                "name": "Total Gas",
                "value": 46267
            }
        ],
        "isConfirmed": true,
        "mainTrace": [
            {
                "children": [
                    {
                        "children": [],
                        "depth": 0,
                        "id": 0,
                        "order": 0
                    }
                ],
                "depth": -1,
                "id": -1,
                "order": -1
            }
        ],
        "mainTraceNodeCount": 1,
        "parentIdMap": {
            "0": -1
        },
        "tidyTrace": [
            {
                "children": [
                    {
                        "children": [],
                        "depth": 0,
                        "id": 0,
                        "order": 0
                    }
                ],
                "depth": -1,
                "id": -1,
                "order": -1
            }
        ],
        "tidyTraceNodeCount": 1
    },
    "state_change": {
        "stateChanges": [
            {
                "address": "0x283af0b28c62c092c9727f1ee09c02ca627eb7f5",
                "erc": "",
                "slots": [
                    {
                        "current": "0x0000000000000000000000000000000000000000000000000000000062b8ce9f",
                        "key": "0xf0fa79e70a14fd8f769243d0ea161986e37a35bf55a59a0ccee173823d902cf0",
                        "prev": "0x0000000000000000000000000000000000000000000000000000000000000000"
                    }
                ],
                "storageVariables": [
                    {
                        "name": "commitments",
                        "type": "mapping(bytes32 => uint256)",
                        "value": {
                            "pairs": [
                                {
                                    "key": "0x31be2deedc0a2dda245b1d43b223fb241717220edaf69dd679b8951b7fc95304",
                                    "value": {
                                        "current": "1656278687",
                                        "prev": "0",
                                        "typeTag": 1
                                    }
                                }
                            ],
                            "typeTag": 4
                        }
                    }
                ]
            }
        ]
    }
}