{
    "balance_change": {
        "balanceChanges": [
            {
                "account": "0xbaeea44ec9890f34790b75de947666a4cd2f14a4",
                "assets": [
                    {
                        "address": "0xec53bf9167f50cdeb3ae105f56099aaab9061f83",
                        "amount": "4.556109113437771",
                        "iconUrl": "",
                        "isERC1155": false,
                        "isERC721": false,
                        "sign": true,
                        "value": ""
                    }
                ]
            },
            {
                "account": "0xa105c3abedbaf4295ac6149bf24d5311f629934c",
                "assets": [
                    {
                        "address": "0xec53bf9167f50cdeb3ae105f56099aaab9061f83",
                        "amount": "4.556109113437771",
                        "iconUrl": "",
                        "isERC1155": false,
                        "isERC721": false,
                        "sign": false,
                        "value": ""
                    }
                ]
            }
        ]
    },
    "profile": {
        "basic_info": {
            "baseFee": "2.317574055",
            "blockNumber": 20768877,
            "callData": "0x9a15bf920000000000000000000000000000000000000000000000003f3a8d197060d4f8000000000000000000000000000000000000000000000000000000000000006000000000000000000000000000000000000000000000000000000000000002c0000000000000000000000000000000000000000000000000000000000000001219fb25603a55197ed70c4ffc712a711904e2a93c23e895f6999c52f83d9e4efd588e93f5b0219f9dfe99bb18d0450876effa72ac724560ce02976b4a42d057dd47839015cd6fad6f84f19486bd47d3addb26737dde0439fc95222b7fffe32d2b336e8b8b480d4dad34aa3277a7ae87eac9a760d31ca8e86fcd174624e76dbc97c1f6a24f450cc3e7fc61eaaac7b7c8f07c7548a64dba078cd363276ee8d8fa28b72e72fe0ade257f210b1026ca38adcbcae995e1d6cc11f34c658d0670204198c829fa88ba44872893cdad12715919f145b5573e2d308edd74e8b064265f501be931840ef354d0b57e0a6e641c982305d23150a00915aea0c0bcf39aebf288ec73fd1f1dc35a52d98b6f96e942e1403bdfb3b5469bc00e70947dd1d31d8b8ffbdb6c3b8c72e4c25bbaeb543821f364904ab653f31a2b9906417bf313d630bc6ab9d3ae5ff4254dad8e8a2a224a6dab8cf6dc4150f97b121c41e6affb189417765ee0ab64f007b5380b65ecd6af2b2c648bc8618bf6008632c18ec848a925f3996cf32c1f6994658239b6afcd5b07f79b0a127f050e7c0262b322d1bfd987a3b18d1a25459e92f753eacfbb191a7fa7755b9a1ccae233f9f0dce7cb9c11a6069c4787cc19e0d9fbee71c63811dc991d775806b732c2c0b0cfb224f6ce2f8c8f252920e7618b8376440216e46dabe94cdc48b98eb370a1fa06ad11d966e21486134210d254e1c13a68d42df95fc25a029a9d25eb3026d5d22962c5d5a8623d7213f05ec29c33c42e3b4ed5acf678f0c92688667d9a077c19573d1001ad813b33a700000000000000000000000000000000000000000000000000000000000000419472b10e888ed0b496456927ab3ca2a85601b3faed804c165cff805dbda625f22dd3454262c2988fcfa327563538b3527b4dad34a00f1407445eac6a2d6eed651c00000000000000000000000000000000000000000000000000000000000000",
            "debugEnable": true,
            "errorInfo": "",
            "eventCount": 2,
            "feeRecipient": "0x95222290dd7278aa3ddd389cc1e1d165cc4bafe5",
            "formatValue": "0",
            "gasLimit": 177118,
            "gasPrice": "2.817574055",
            "gasUsed": 117032,
            "intTxnCount": 3,
            "internalRevert": false,
            "internalRevertMessage": "",
            "isContractCreation": false,
            "isFlashloan": false,
            "maxFee": "3.323491937",
            "nonce": 20,
            "overwritedBlockNumber": -1,
            "priorityFee": "0.5",
            "receiver": "0xa105c3abedbaf4295ac6149bf24d5311f629934c",
            "revertMessage": "",
            "sender": "0xbaeea44ec9890f34790b75de947666a4cd2f14a4",
            "simulationEnable": true,
            "sourceTxnHash": "0x1bdece91b8ab6b4776249b30fd6b5772d427fc8dce8930572f0af52ff6e8658b",
            "status": true,
            "timestamp": "2024-09-17T07:36:23Z",
            "transactionFee": "0.00032974632680476",
            "txnHash": "0x1bdece91b8ab6b4776249b30fd6b5772d427fc8dce8930572f0af52ff6e8658b",
            "txnIndex": 38,
            "type": 2,
            "value": "0"
        },
        "fund_flow": [
            {
                "amount": "4.556109113437771",
                "from": "0xa105c3abedbaf4295ac6149bf24d5311f629934c",
                "id": 1,
                "isERC1155": false,
                "isERC721": false,
                "isReverted": false,
                "order": 1,
                "to": "0xbaeea44ec9890f34790b75de947666a4cd2f14a4",
                "token": "0xec53bf9167f50cdeb3ae105f56099aaab9061f83"
            }
        ],
        "token_infos": [
            {
                "address": "0xc02aaa39b223fe8d0a0e5c4f27ead9083c756cc2",
                "decimals": 18
            },
            {
                "address": "0xec53bf9167f50cdeb3ae105f56099aaab9061f83",
                "decimals": 18
            },
            {
                "address": "0xeeeeeeeeeeeeeeeeeeeeeeeeeeeeeeeeeeeeeeee",
                "decimals": 18
            }
        ]
    },
    "address_label": {
        "labels": [
            {
                "address": "0xa105c3abedbaf4295ac6149bf24d5311f629934c",
                "label": "EigenLayer: Airdrop Distributor 3"
            },
            {
                "address": "0x7ec354c84680112d3cff1544ec1eb19ca583700b",
                "label": "Eigen"
            },
            {
                "address": "0x0000000000000000000000000000000000000001",
                "label": "Precompiled"
            },
            {
                "address": "0x0000000000000000000000000000000000000002",
                "label": "Precompiled"
            },
            {
                "address": "0x0000000000000000000000000000000000000003",
                "label": "Precompiled"
            },
            {
                "address": "0x0000000000000000000000000000000000000004",
                "label": "Precompiled"
            },
            {
                "address": "0xeeeeeeeeeeeeeeeeeeeeeeeeeeeeeeeeeeeeeeee",
                "label": "Ether"
            },
            {
                "address": "0xec53bf9167f50cdeb3ae105f56099aaab9061f83",
                "label": "EigenLayer: EIGEN Token"
            }
        ]
    },
    "trace": {
        "accountLabels": null,
        "dataMap": {
            "-1": {
                "invocation": {
                    "address": "0xbaeea44ec9890f34790b75de947666a4cd2f14a4",
                    "callData": "",
                    "decodedMethod": null,
                    "errorInfo": "",
                    "fromAddress": "",
                    "gasUsed": 0,
                    "id": -1,
                    "methodDecoded": false,
                    "operation": "",
                    "output": "",
                    "revert": false,
                    "revertMessage": "",
                    "selector": "",
                    "status": false,
                    "value": ""
                },
                "nodeType": 0
            },
            "0": {
                "invocation": {
                    "address": "0xa105c3abedbaf4295ac6149bf24d5311f629934c",
                    "callData": "0x0000000000000000000000000000000000000000000000003f3a8d197060d4f8000000000000000000000000000000000000000000000000000000000000006000000000000000000000000000000000000000000000000000000000000002c0000000000000000000000000000000000000000000000000000000000000001219fb25603a55197ed70c4ffc712a711904e2a93c23e895f6999c52f83d9e4efd588e93f5b0219f9dfe99bb18d0450876effa72ac724560ce02976b4a42d057dd47839015cd6fad6f84f19486bd47d3addb26737dde0439fc95222b7fffe32d2b336e8b8b480d4dad34aa3277a7ae87eac9a760d31ca8e86fcd174624e76dbc97c1f6a24f450cc3e7fc61eaaac7b7c8f07c7548a64dba078cd363276ee8d8fa28b72e72fe0ade257f210b1026ca38adcbcae995e1d6cc11f34c658d0670204198c829fa88ba44872893cdad12715919f145b5573e2d308edd74e8b064265f501be931840ef354d0b57e0a6e641c982305d23150a00915aea0c0bcf39aebf288ec73fd1f1dc35a52d98b6f96e942e1403bdfb3b5469bc00e70947dd1d31d8b8ffbdb6c3b8c72e4c25bbaeb543821f364904ab653f31a2b9906417bf313d630bc6ab9d3ae5ff4254dad8e8a2a224a6dab8cf6dc4150f97b121c41e6affb189417765ee0ab64f007b5380b65ecd6af2b2c648bc8618bf6008632c18ec848a925f3996cf32c1f6994658239b6afcd5b07f79b0a127f050e7c0262b322d1bfd987a3b18d1a25459e92f753eacfbb191a7fa7755b9a1ccae233f9f0dce7cb9c11a6069c4787cc19e0d9fbee71c63811dc991d775806b732c2c0b0cfb224f6ce2f8c8f252920e7618b8376440216e46dabe94cdc48b98eb370a1fa06ad11d966e21486134210d254e1c13a68d42df95fc25a029a9d25eb3026d5d22962c5d5a8623d7213f05ec29c33c42e3b4ed5acf678f0c92688667d9a077c19573d1001ad813b33a700000000000000000000000000000000000000000000000000000000000000419472b10e888ed0b496456927ab3ca2a85601b3faed804c165cff805dbda625f22dd3454262c2988fcfa327563538b3527b4dad34a00f1407445eac6a2d6eed651c00000000000000000000000000000000000000000000000000000000000000",
                    "decodedMethod": {
                        "callParams": [
                            {
                                "name": "amount",
                                "type": "uint256",
                                "value": "4,556,109,113,437,771,000"
                            },
                            {
                                "name": "merkleProof",
                                "type": "bytes32[]",
                                "value": [
                                    "0x19fb25603a55197ed70c4ffc712a711904e2a93c23e895f6999c52f83d9e4efd",
                                    "0x588e93f5b0219f9dfe99bb18d0450876effa72ac724560ce02976b4a42d057dd",
                                    "0x47839015cd6fad6f84f19486bd47d3addb26737dde0439fc95222b7fffe32d2b",
                                    "0x336e8b8b480d4dad34aa3277a7ae87eac9a760d31ca8e86fcd174624e76dbc97",
                                    "0xc1f6a24f450cc3e7fc61eaaac7b7c8f07c7548a64dba078cd363276ee8d8fa28",
                                    "0xb72e72fe0ade257f210b1026ca38adcbcae995e1d6cc11f34c658d0670204198",
                                    "0xc829fa88ba44872893cdad12715919f145b5573e2d308edd74e8b064265f501b",
                                    "0xe931840ef354d0b57e0a6e641c982305d23150a00915aea0c0bcf39aebf288ec",
                                    "0x73fd1f1dc35a52d98b6f96e942e1403bdfb3b5469bc00e70947dd1d31d8b8ffb",
                                    "0xdb6c3b8c72e4c25bbaeb543821f364904ab653f31a2b9906417bf313d630bc6a",
                                    "0xb9d3ae5ff4254dad8e8a2a224a6dab8cf6dc4150f97b121c41e6affb18941776",
                                    "0x5ee0ab64f007b5380b65ecd6af2b2c648bc8618bf6008632c18ec848a925f399",
                                    "0x6cf32c1f6994658239b6afcd5b07f79b0a127f050e7c0262b322d1bfd987a3b1",
                                    "0x8d1a25459e92f753eacfbb191a7fa7755b9a1ccae233f9f0dce7cb9c11a6069c",
                                    "0x4787cc19e0d9fbee71c63811dc991d775806b732c2c0b0cfb224f6ce2f8c8f25",
                                    "0x2920e7618b8376440216e46dabe94cdc48b98eb370a1fa06ad11d966e2148613",
                                    "0x4210d254e1c13a68d42df95fc25a029a9d25eb3026d5d22962c5d5a8623d7213",
                                    "0xf05ec29c33c42e3b4ed5acf678f0c92688667d9a077c19573d1001ad813b33a7"
                                ]
                            },
                            {
                                "name": "signature",
                                "type": "bytes",
                                "value": "0x9472b10e888ed0b496456927ab3ca2a85601b3faed804c165cff805dbda625f22dd3454262c2988fcfa327563538b3527b4dad34a00f1407445eac6a2d6eed651c"
                            }
                        ],
                        "constructorArguments": "",
                        "name": "claim",
                        "returnParams": [],
                        "signature": "claim(uint256,bytes32[],bytes)"
                    },
                    "errorInfo": "",
                    "fromAddress": "0xbaeea44ec9890f34790b75de947666a4cd2f14a4",
                    "gasUsed": 117032,
                    "id": 0,
                    "methodDecoded": true,
                    "operation": "CALL",
                    "output": "",
                    "revert": false,
                    "revertMessage": "",
                    "selector": "0x9a15bf92",
                    "status": true,
                    "value": "0"
                },
                "nodeType": 0
            },
            "1": {
                "invocation": {
                    "address": "0x0000000000000000000000000000000000000001",
                    "callData": "0xfd3d475af035009180f0244b1e0ea4c9c0d94cf688c6676d92198830000000000000000000000000000000000000000000000000000000000000001c9472b10e888ed0b496456927ab3ca2a85601b3faed804c165cff805dbda625f22dd3454262c2988fcfa327563538b3527b4dad34a00f1407445eac6a2d6eed65",
                    "decodedMethod": {
                        "callParams": [
                            {
                                "name": "hash",
                                "type": "bytes32",
                                "value": "0x2214100cfd3d475af035009180f0244b1e0ea4c9c0d94cf688c6676d92198830"
                            },
                            {
                                "name": "v",
                                "type": "uint256",
                                "value": "28"
                            },
                            {
                                "name": "r",
                                "type": "bytes32",
                                "value": "0x9472b10e888ed0b496456927ab3ca2a85601b3faed804c165cff805dbda625f2"
                            },
                            {
                                "name": "s",
                                "type": "bytes32",
                                "value": "0x2dd3454262c2988fcfa327563538b3527b4dad34a00f1407445eac6a2d6eed65"
                            }
                        ],
                        "constructorArguments": "",
                        "name": "ecrecover",
                        "returnParams": [
                            {
                                "name": "",
                                "type": "address",
                                "value": "0x4655101da9f03f825fa04b962d7c62fc32283582"
                            }
                        ],
                        "signature": "ecrecover(bytes32,uint256,bytes32,bytes32)"
                    },
                    "errorInfo": "",
                    "fromAddress": "0xa105c3abedbaf4295ac6149bf24d5311f629934c",
                    "gasUsed": 3000,
                    "id": 1,
                    "methodDecoded": true,
                    "operation": "STATICCALL",
                    "output": "0x0000000000000000000000004655101da9f03f825fa04b962d7c62fc32283582",
                    "revert": false,
                    "revertMessage": "",
                    "selector": "0x2214100c",
                    "status": true,
                    "value": "0"
                },
                "nodeType": 0
            },
            "2": {
                "invocation": {
                    "address": "0xec53bf9167f50cdeb3ae105f56099aaab9061f83",
                    "callData": "0x000000000000000000000000baeea44ec9890f34790b75de947666a4cd2f14a40000000000000000000000000000000000000000000000003f3a8d197060d4f8",
                    "decodedMethod": {
                        "callParams": [
                            {
                                "name": "to",
                                "type": "address",
                                "value": "0xbaeea44ec9890f34790b75de947666a4cd2f14a4"
                            },
                            {
                                "decimalAvailable": true,
                                "name": "amount",
                                "type": "uint256",
                                "value": "4,556,109,113,437,771,000"
                            }
                        ],
                        "constructorArguments": "",
                        "name": "transfer",
                        "returnParams": [
                            {
                                "name": "",
                                "type": "bool",
                                "value": true
                            }
                        ],
                        "signature": "transfer(address,uint256)"
                    },
                    "errorInfo": "",
                    "fromAddress": "0xa105c3abedbaf4295ac6149bf24d5311f629934c",
                    "gasUsed": 45970,
                    "id": 2,
                    "methodDecoded": true,
                    "operation": "CALL",
                    "output": "0x0000000000000000000000000000000000000000000000000000000000000001",
                    "revert": false,
                    "revertMessage": "",
                    "selector": "0xa9059cbb",
                    "status": true,
                    "value": "0"
                },
                "nodeType": 0
            },
            "3": {
                "invocation": {
                    "address": "0x7ec354c84680112d3cff1544ec1eb19ca583700b",
                    "callData": "0x000000000000000000000000baeea44ec9890f34790b75de947666a4cd2f14a40000000000000000000000000000000000000000000000003f3a8d197060d4f8",
                    "decodedMethod": {
                        "callParams": [
                            {
                                "name": "to",
                                "type": "address",
                                "value": "0xbaeea44ec9890f34790b75de947666a4cd2f14a4"
                            },
                            {
                                "decimalAvailable": true,
                                "name": "amount",
                                "type": "uint256",
                                "value": "4,556,109,113,437,771,000"
                            }
                        ],
                        "constructorArguments": "",
                        "name": "transfer",
                        "returnParams": [
                            {
                                "name": "",
                                "type": "bool",
                                "value": true
                            }
                        ],
                        "signature": "transfer(address,uint256)"
                    },
                    "errorInfo": "",
                    "fromAddress": "0xec53bf9167f50cdeb3ae105f56099aaab9061f83",
                    "gasUsed": 38828,
                    "id": 3,
                    "methodDecoded": true,
                    "operation": "DELEGATECALL",
                    "output": "0x0000000000000000000000000000000000000000000000000000000000000001",
                    "revert": false,
                    "revertMessage": "",
                    "selector": "0xa9059cbb",
                    "status": true,
                    "value": "0"
                },
                "nodeType": 0
            },
            "4": {
                "event": {
                    "contract": "0xec53bf9167f50cdeb3ae105f56099aaab9061f83",
                    "decodedLog": {
                        "name": "Transfer",
                        "params": [
                            {
                                "name": "from",
                                "type": "address",
                                "value": "0xa105c3abedbaf4295ac6149bf24d5311f629934c"
                            },
                            {
                                "name": "to",
                                "type": "address",
                                "value": "0xbaeea44ec9890f34790b75de947666a4cd2f14a4"
                            },
                            {
                                "decimalAvailable": true,
                                "name": "value",
                                "type": "uint256",
                                "value": "4,556,109,113,437,771,000"
                            }
                        ],
                        "signature": "Transfer(address,address,uint256)"
                    },
                    "id": 4,
                    "logData": "0x0000000000000000000000000000000000000000000000003f3a8d197060d4f8",
                    "logDecoded": true,
                    "operation": "EVENT",
                    "revert": false,
                    "status": true,
                    "topics": [
                        "0xddf252ad1be2c89b69c2b068fc378daa952ba7f163c4a11628f55a4df523b3ef",
                        "0x000000000000000000000000a105c3abedbaf4295ac6149bf24d5311f629934c",
                        "0x000000000000000000000000baeea44ec9890f34790b75de947666a4cd2f14a4"
                    ]
                },
                "nodeType": 1
            },
            "5": {
                "event": {
                    "contract": "0xa105c3abedbaf4295ac6149bf24d5311f629934c",
                    "decodedLog": {
                        "name": "Claimed",
                        "params": [
                            {
                                "name": "account",
                                "type": "address",
                                "value": "0xbaeea44ec9890f34790b75de947666a4cd2f14a4"
                            },
                            {
                                "name": "amount",
                                "type": "uint256",
                                "value": "4,556,109,113,437,771,000"
                            }
                        ],
                        "signature": "Claimed(address,uint256)"
                    },
                    "id": 5,
                    "logData": "0x0000000000000000000000000000000000000000000000003f3a8d197060d4f8",
                    "logDecoded": true,
                    "operation": "EVENT",
                    "revert": false,
                    "status": true,
                    "topics": [
                        "0xd8138f8a3f377c5259ca548e70e4c2de94f129f5a11036a15b69513cba2b426a",
                        "0x000000000000000000000000baeea44ec9890f34790b75de947666a4cd2f14a4"
                    ]
                },
                "nodeType": 1
            }
        },
        "gasFlame": [
            {
                "children": [
                    {
                        "children": [
                            {
                                "children": [],
                                "depth": 0,
                                "name": "Initial Gas",
                                "value": 32228
                            },
                            {
                                "children": [
                                    {
                                        "children": [],
                                        "depth": 1,
                                        "name": "ecrecover",
                                        "value": 3000
                                    },
                                    {
                                        "children": [
                                            {
                                                "children": [],
                                                "depth": 2,
                                                "name": "transfer",
                                                "value": 38828
                                            }
                                        ],
                                        "depth": 1,
                                        "name": "transfer",
                                        "value": 45970
                                    }
                                ],
                                "depth": 0,
                                "name": "Executed Gas",
                                "value": 84804
                            }
                        ],
                        "depth": -1,
                        "name": "Actual Gas Used",
                        "value": 117032
                    },
                    {
                        "children": [],
                        "depth": -1,
                        "name": "Refunded Gas",
                        "value": 0
                    }
                ],
                "depth": -2,
                "name": "Total Gas",
                "value": 117032
            }
        ],
        "isConfirmed": true,
        "mainTrace": [
            {
                "children": [
                    {
                        "children": [
                            {
                                "children": [],
                                "depth": 1,
                                "id": 1,
                                "order": 1
                            },
                            {
                                "children": [
                                    {
                                        "children": [
                                            {
                                                "children": [],
                                                "depth": 3,
                                                "id": 4,
                                                "order": 4
                                            }
                                        ],
                                        "depth": 2,
                                        "id": 3,
                                        "order": 3
                                    }
                                ],
                                "depth": 1,
                                "id": 2,
                                "order": 2
                            },
                            {
                                "children": [],
                                "depth": 1,
                                "id": 5,
                                "order": 5
                            }
                        ],
                        "depth": 0,
                        "id": 0,
                        "order": 0
                    }
                ],
                "depth": -1,
                "id": -1,
                "order": -1
            }
        ],
        "mainTraceNodeCount": 6,
        "parentIdMap": {
            "0": -1,
            "1": 0,
            "2": 0,
            "3": 2,
            "4": 3,
            "5": 0
        },
        "tidyTrace": [
            {
                "children": [
                    {
                        "children": [
                            {
                                "children": [
                                    {
                                        "children": [
                                            {
                                                "children": [],
                                                "depth": 3,
                                                "id": 4,
                                                "order": 4
                                            }
                                        ],
                                        "depth": 2,
                                        "id": 3,
                                        "order": 3
                                    }
                                ],
                                "depth": 1,
                                "id": 2,
                                "order": 2
                            },
                            {
                                "children": [],
                                "depth": 1,
                                "id": 5,
                                "order": 5
                            }
                        ],
                        "depth": 0,
                        "id": 0,
                        "order": 0
                    }
                ],
                "depth": -1,
                "id": -1,
                "order": -1
            }
        ],
        "tidyTraceNodeCount": 5
    },
    "state_change": {
        "stateChanges": [
            {
                "address": "0xa105c3abedbaf4295ac6149bf24d5311f629934c",
                "erc": "",
                "slots": [
                    {
                        "current": "0x0000000000000000000000000000000000000000000000000000000000000001",
                        "key": "0xf4ffdb4e3e7e6fd687c5ba1625e79ca9783b1e0c33848f5f65375ff668bcfe07",
                        "prev": "0x0000000000000000000000000000000000000000000000000000000000000000"
                    }
                ],
                "storageVariables": []
            },
            {
                "address": "0xec53bf9167f50cdeb3ae105f56099aaab9061f83",
                "erc": "ERC-20",
                "slots": [
                    {
                        "current": "0x0000000000000000000000000000000000000000002ba74c5d128d8d9cfc7931",
                        "key": "0x9489ee4ab06e53ab291e6561d8d25473fc6e54ea16f2f3c8956efeb4bdc5252e",
                        "prev": "0x0000000000000000000000000000000000000000002ba74c9c4d1aa70d5d4e29"
                    },
                    {
                        "current": "0x0000000000000000000000000000000000000000000000003f3a8d197060d4f8",
                        "key": "0x8fea7bef700077aa83069d5e45e50844127e03dcccd4300a3023ac97e66afe0f",
                        "prev": "0x0000000000000000000000000000000000000000000000000000000000000000"
                    }
                ],
                "storageVariables": [
                    {
                        "name": "_balances",
                        "type": "mapping(address => uint256)",
                        "value": {
                            "pairs": [
                                {
                                    "key": "0xa105c3abedbaf4295ac6149bf24d5311f629934c",
                                    "value": {
                                        "current": "52773854105196321660762417",
                                        "prev": "52773858661305435098533417",
                                        "typeTag": 1
                                    }
                                },
                                {
                                    "key": "0xbaeea44ec9890f34790b75de947666a4cd2f14a4",
                                    "value": {
                                        "current": "4556109113437771000",
                                        "prev": "0",
                                        "typeTag": 1
                                    }
                                }
                            ],
                            "typeTag": 4
                        }
                    }
                ]
            }
        ]
    }
}