{
    "balance_change": {
        "balanceChanges": [
            {
                "account": "0x025ca61141f669a3086d965e427a43d8df92b829",
                "assets": [
                    {
                        "address": "0x3ca08ba283642854dce16294e9239ca214c9f186",
                        "amount": "0.49362199",
                        "iconUrl": "",
                        "isERC1155": false,
                        "isERC721": false,
                        "sign": false,
                        "value": ""
                    }
                ]
            },
            {
                "account": "0x3821742f69f480e19bc510b2156a40b244bc4b53",
                "assets": [
                    {
                        "address": "0xf79c4b90d7b362261f342358de6a4565e9a154e6",
                        "amount": "50",
                        "iconUrl": "",
                        "isERC1155": false,
                        "isERC721": false,
                        "sign": false,
                        "value": ""
                    }
                ]
            },
            {
                "account": "0x694e5e0081849bc09be3ee872b8f2bd8fbd0999e",
                "assets": [
                    {
                        "address": "0xf79c4b90d7b362261f342358de6a4565e9a154e6",
                        "amount": "25.022317",
                        "iconUrl": "",
                        "isERC1155": false,
                        "isERC721": false,
                        "sign": true,
                        "value": ""
                    }
                ]
            },
            {
                "account": "0x6e5bd4fc889fd5a85abdc2f3b5c68d4f6e587bfd",
                "assets": [
                    {
                        "address": "0x3ca08ba283642854dce16294e9239ca214c9f186",
                        "amount": "1.089241561101005312",
                        "iconUrl": "",
                        "isERC1155": false,
                        "isERC721": false,
                        "sign": false,
                        "value": ""
                    }
                ]
            },
            {
                "account": "0x861716b206ce006973f140b0912b22fe5348a9e0",
                "assets": [
                    {
                        "address": "0x3ca08ba283642854dce16294e9239ca214c9f186",
                        "amount": "0.544620780550502656",
                        "iconUrl": "",
                        "isERC1155": false,
                        "isERC721": false,
                        "sign": true,
                        "value": ""
                    }
                ]
            },
            {
                "account": "0x861d338ff08c743ea7ec35d8734db2fa5e48a9e0",
                "assets": [
                    {
                        "address": "0x3ca08ba283642854dce16294e9239ca214c9f186",
                        "amount": "0.544620780550502656",
                        "iconUrl": "",
                        "isERC1155": false,
                        "isERC721": false,
                        "sign": true,
                        "value": ""
                    }
                ]
            },
            {
                "account": "0x923d9ff7984159beefd838d21c7e6caa3c2a0f8c",
                "assets": [
                    {
                        "address": "0xf79c4b90d7b362261f342358de6a4565e9a154e6",
                        "amount": "100",
                        "iconUrl": "",
                        "isERC1155": false,
                        "isERC721": false,
                        "sign": false,
                        "value": ""
                    }
                ]
            },
            {
                "account": "0x981b62a5048d7c205f87f2127b16515893e2da0c",
                "assets": [
                    {
                        "address": "0xf79c4b90d7b362261f342358de6a4565e9a154e6",
                        "amount": "100",
                        "iconUrl": "",
                        "isERC1155": false,
                        "isERC721": false,
                        "sign": true,
                        "value": ""
                    }
                ]
            },
            {
                "account": "0xc6fd4bcfbe17b274a7c34a45a9c576772bbde62e",
                "assets": [
                    {
                        "address": "0xf79c4b90d7b362261f342358de6a4565e9a154e6",
                        "amount": "50",
                        "iconUrl": "",
                        "isERC1155": false,
                        "isERC721": false,
                        "sign": true,
                        "value": ""
                    }
                ]
            },
            {
                "account": "0xd3b419e2b3d87150af892968303fb9170ffe26c8",
                "assets": [
                    {
                        "address": "0x3ca08ba283642854dce16294e9239ca214c9f186",
                        "amount": "0.49362199",
                        "iconUrl": "",
                        "isERC1155": false,
                        "isERC721": false,
                        "sign": true,
                        "value": ""
                    }
                ]
            },
            {
                "account": "0xfaf637ff935ffefa0b44630787ee5df5e2417c1d",
                "assets": [
                    {
                        "address": "0xf79c4b90d7b362261f342358de6a4565e9a154e6",
                        "amount": "25.022317",
                        "iconUrl": "",
                        "isERC1155": false,
                        "isERC721": false,
                        "sign": false,
                        "value": ""
                    }
                ]
            }
        ]
    },
    "profile": {
        "basic_info": {
            "baseFee": "24.8990869",
            "blockNumber": 17841829,
            "callData": "0xe19c2253000000000000000000000000000000000000000000000000000000000000008000000000000000000000000000000000000000000000000000000000000001600000000000000000000000000000000000000000000000000000000000000240000000000000000000000000000000000000000000000000000000000000032000000000000000000000000000000000000000000000000000000000000000060000000000000000000000003ca08ba283642854dce16294e9239ca214c9f1860000000000000000000000003ca08ba283642854dce16294e9239ca214c9f1860000000000000000000000003ca08ba283642854dce16294e9239ca214c9f186000000000000000000000000f79c4b90d7b362261f342358de6a4565e9a154e6000000000000000000000000f79c4b90d7b362261f342358de6a4565e9a154e6000000000000000000000000f79c4b90d7b362261f342358de6a4565e9a154e60000000000000000000000000000000000000000000000000000000000000006000000000000000000000000025ca61141f669a3086d965e427a43d8df92b8290000000000000000000000006e5bd4fc889fd5a85abdc2f3b5c68d4f6e587bfd0000000000000000000000006e5bd4fc889fd5a85abdc2f3b5c68d4f6e587bfd000000000000000000000000faf637ff935ffefa0b44630787ee5df5e2417c1d0000000000000000000000003821742f69f480e19bc510b2156a40b244bc4b53000000000000000000000000923d9ff7984159beefd838d21c7e6caa3c2a0f8c0000000000000000000000000000000000000000000000000000000000000006000000000000000000000000d3b419e2b3d87150af892968303fb9170ffe26c8000000000000000000000000861d338ff08c743ea7ec35d8734db2fa5e48a9e0000000000000000000000000861716b206ce006973f140b0912b22fe5348a9e0000000000000000000000000694e5e0081849bc09be3ee872b8f2bd8fbd0999e000000000000000000000000c6fd4bcfbe17b274a7c34a45a9c576772bbde62e000000000000000000000000981b62a5048d7c205f87f2127b16515893e2da0c000000000000000000000000000000000000000000000000000000000000000600000000000000000000000000000000000000000000000006d9b295a7457c00000000000000000000000000000000000000000000000000078ee1b6e2023900000000000000000000000000000000000000000000000000078ee1b6e202390000000000000000000000000000000000000000000000000000000000017dcf6d0000000000000000000000000000000000000000000000000000000002faf0800000000000000000000000000000000000000000000000000000000005f5e100",
            "debugEnable": true,
            "errorInfo": "",
            "eventCount": 6,
            "feeRecipient": "0x690b9a9e9aa1c9db991c7721a92d351db4fac990",
            "formatValue": "0",
            "gasLimit": 70350,
            "gasPrice": "26.3990869",
            "gasUsed": 63955,
            "intTxnCount": 6,
            "internalRevert": false,
            "internalRevertMessage": "",
            "isContractCreation": false,
            "isFlashloan": false,
            "maxFee": "76.771626888",
            "nonce": 2401,
            "overwritedBlockNumber": -1,
            "priorityFee": "1.5",
            "receiver": "0xfddddc0780c4e71e9bc41661fb4a0e14e0f01b15",
            "revertMessage": "",
            "sender": "0xebf1bd44c230084809ff723a53c76fdbe196513f",
            "simulationEnable": true,
            "sourceTxnHash": "0x1cfaaace6d5dfadd4c3039bc95852602d9cdd6eeb7576a070f5a25a548c1edac",
            "status": true,
            "timestamp": "2023-08-04T13:10:11Z",
            "transactionFee": "0.0016883536026895",
            "txnHash": "0x1cfaaace6d5dfadd4c3039bc95852602d9cdd6eeb7576a070f5a25a548c1edac",
            "txnIndex": 96,
            "type": 2,
            "value": "0"
        },
        "fund_flow": [
            {
                "amount": "0.49362199",
                "from": "0x025ca61141f669a3086d965e427a43d8df92b829",
                "id": 1,
                "isERC1155": false,
                "isERC721": false,
                "isReverted": false,
                "order": 1,
                "to": "0xd3b419e2b3d87150af892968303fb9170ffe26c8",
                "token": "0x3ca08ba283642854dce16294e9239ca214c9f186"
            },
            {
                "amount": "0.544620780550502656",
                "from": "0x6e5bd4fc889fd5a85abdc2f3b5c68d4f6e587bfd",
                "id": 2,
                "isERC1155": false,
                "isERC721": false,
                "isReverted": false,
                "order": 2,
                "to": "0x861d338ff08c743ea7ec35d8734db2fa5e48a9e0",
                "token": "0x3ca08ba283642854dce16294e9239ca214c9f186"
            },
            {
                "amount": "0.544620780550502656",
                "from": "0x6e5bd4fc889fd5a85abdc2f3b5c68d4f6e587bfd",
                "id": 3,
                "isERC1155": false,
                "isERC721": false,
                "isReverted": false,
                "order": 3,
                "to": "0x861716b206ce006973f140b0912b22fe5348a9e0",
                "token": "0x3ca08ba283642854dce16294e9239ca214c9f186"
            },
            {
                "amount": "25.022317",
                "from": "0xfaf637ff935ffefa0b44630787ee5df5e2417c1d",
                "id": 4,
                "isERC1155": false,
                "isERC721": false,
                "isReverted": false,
                "order": 4,
                "to": "0x694e5e0081849bc09be3ee872b8f2bd8fbd0999e",
                "token": "0xf79c4b90d7b362261f342358de6a4565e9a154e6"
            },
            {
                "amount": "50",
                "from": "0x3821742f69f480e19bc510b2156a40b244bc4b53",
                "id": 5,
                "isERC1155": false,
                "isERC721": false,
                "isReverted": false,
                "order": 5,
                "to": "0xc6fd4bcfbe17b274a7c34a45a9c576772bbde62e",
                "token": "0xf79c4b90d7b362261f342358de6a4565e9a154e6"
            },
            {
                "amount": "100",
                "from": "0x923d9ff7984159beefd838d21c7e6caa3c2a0f8c",
                "id": 6,
                "isERC1155": false,
                "isERC721": false,
                "isReverted": false,
                "order": 6,
                "to": "0x981b62a5048d7c205f87f2127b16515893e2da0c",
                "token": "0xf79c4b90d7b362261f342358de6a4565e9a154e6"
            }
        ],
        "token_infos": [
            {
                "address": "0x3ca08ba283642854dce16294e9239ca214c9f186",
                "decimals": 18
            },
            {
                "address": "0xc02aaa39b223fe8d0a0e5c4f27ead9083c756cc2",
                "decimals": 18
            },
            {
                "address": "0xf79c4b90d7b362261f342358de6a4565e9a154e6",
                "decimals": 6
            },
            {
                "address": "0xeeeeeeeeeeeeeeeeeeeeeeeeeeeeeeeeeeeeeeee",
                "decimals": 18
            }
        ]
    },
    "address_label": {
        "labels": [
            {
                "address": "0x0000000000000000000000000000000000000002",
                "label": "Precompiled"
            },
            {
                "address": "0x0000000000000000000000000000000000000003",
                "label": "Precompiled"
            },
            {
                "address": "0x0000000000000000000000000000000000000004",
                "label": "Precompiled"
            },
            {
                "address": "0xeeeeeeeeeeeeeeeeeeeeeeeeeeeeeeeeeeeeeeee",
                "label": "Ether"
            },
            {
                "address": "0xebf1bd44c230084809ff723a53c76fdbe196513f",
                "label": "Fake_Phishing186078"
            },
            {
                "address": "0x3ca08ba283642854dce16294e9239ca214c9f186",
                "label": "\u0415TH"
            },
            {
                "address": "0xf79c4b90d7b362261f342358de6a4565e9a154e6",
                "label": "USD\u0422"
            },
            {
                "address": "0x0000000000000000000000000000000000000001",
                "label": "Precompiled"
            }
        ]
    },
    "trace": {
        "accountLabels": null,
        "dataMap": {
            "-1": {
                "invocation": {
                    "address": "0xebf1bd44c230084809ff723a53c76fdbe196513f",
                    "callData": "",
                    "decodedMethod": null,
                    "errorInfo": "",
                    "fromAddress": "",
                    "gasUsed": 0,
                    "id": -1,
                    "methodDecoded": false,
                    "operation": "",
                    "output": "",
                    "revert": false,
                    "revertMessage": "",
                    "selector": "",
                    "status": false,
                    "value": ""
                },
                "nodeType": 0
            },
            "0": {
                "invocation": {
                    "address": "0xfddddc0780c4e71e9bc41661fb4a0e14e0f01b15",
                    "callData": "0x000000000000000000000000000000000000000000000000000000000000008000000000000000000000000000000000000000000000000000000000000001600000000000000000000000000000000000000000000000000000000000000240000000000000000000000000000000000000000000000000000000000000032000000000000000000000000000000000000000000000000000000000000000060000000000000000000000003ca08ba283642854dce16294e9239ca214c9f1860000000000000000000000003ca08ba283642854dce16294e9239ca214c9f1860000000000000000000000003ca08ba283642854dce16294e9239ca214c9f186000000000000000000000000f79c4b90d7b362261f342358de6a4565e9a154e6000000000000000000000000f79c4b90d7b362261f342358de6a4565e9a154e6000000000000000000000000f79c4b90d7b362261f342358de6a4565e9a154e60000000000000000000000000000000000000000000000000000000000000006000000000000000000000000025ca61141f669a3086d965e427a43d8df92b8290000000000000000000000006e5bd4fc889fd5a85abdc2f3b5c68d4f6e587bfd0000000000000000000000006e5bd4fc889fd5a85abdc2f3b5c68d4f6e587bfd000000000000000000000000faf637ff935ffefa0b44630787ee5df5e2417c1d0000000000000000000000003821742f69f480e19bc510b2156a40b244bc4b53000000000000000000000000923d9ff7984159beefd838d21c7e6caa3c2a0f8c0000000000000000000000000000000000000000000000000000000000000006000000000000000000000000d3b419e2b3d87150af892968303fb9170ffe26c8000000000000000000000000861d338ff08c743ea7ec35d8734db2fa5e48a9e0000000000000000000000000861716b206ce006973f140b0912b22fe5348a9e0000000000000000000000000694e5e0081849bc09be3ee872b8f2bd8fbd0999e000000000000000000000000c6fd4bcfbe17b274a7c34a45a9c576772bbde62e000000000000000000000000981b62a5048d7c205f87f2127b16515893e2da0c000000000000000000000000000000000000000000000000000000000000000600000000000000000000000000000000000000000000000006d9b295a7457c00000000000000000000000000000000000000000000000000078ee1b6e2023900000000000000000000000000000000000000000000000000078ee1b6e202390000000000000000000000000000000000000000000000000000000000017dcf6d0000000000000000000000000000000000000000000000000000000002faf0800000000000000000000000000000000000000000000000000000000005f5e100",
                    "decodedMethod": {
                        "callParams": [
                            {
                                "name": "tokens",
                                "type": "address[]",
                                "value": [
                                    "0x3ca08ba283642854dce16294e9239ca214c9f186",
                                    "0x3ca08ba283642854dce16294e9239ca214c9f186",
                                    "0x3ca08ba283642854dce16294e9239ca214c9f186",
                                    "0xf79c4b90d7b362261f342358de6a4565e9a154e6",
                                    "0xf79c4b90d7b362261f342358de6a4565e9a154e6",
                                    "0xf79c4b90d7b362261f342358de6a4565e9a154e6"
                                ]
                            },
                            {
                                "name": "sender",
                                "type": "address[]",
                                "value": [
                                    "0x025ca61141f669a3086d965e427a43d8df92b829",
                                    "0x6e5bd4fc889fd5a85abdc2f3b5c68d4f6e587bfd",
                                    "0x6e5bd4fc889fd5a85abdc2f3b5c68d4f6e587bfd",
                                    "0xfaf637ff935ffefa0b44630787ee5df5e2417c1d",
                                    "0x3821742f69f480e19bc510b2156a40b244bc4b53",
                                    "0x923d9ff7984159beefd838d21c7e6caa3c2a0f8c"
                                ]
                            },
                            {
                                "name": "recipient",
                                "type": "address[]",
                                "value": [
                                    "0xd3b419e2b3d87150af892968303fb9170ffe26c8",
                                    "0x861d338ff08c743ea7ec35d8734db2fa5e48a9e0",
                                    "0x861716b206ce006973f140b0912b22fe5348a9e0",
                                    "0x694e5e0081849bc09be3ee872b8f2bd8fbd0999e",
                                    "0xc6fd4bcfbe17b274a7c34a45a9c576772bbde62e",
                                    "0x981b62a5048d7c205f87f2127b16515893e2da0c"
                                ]
                            },
                            {
                                "name": "amount",
                                "type": "uint256[]",
                                "value": [
                                    "493,621,990,000,000,000",
                                    "544,620,780,550,502,656",
                                    "544,620,780,550,502,656",
                                    "25,022,317",
                                    "50,000,000",
                                    "100,000,000"
                                ]
                            }
                        ],
                        "constructorArguments": "",
                        "name": "transfer",
                        "returnParams": [],
                        "signature": "transfer(address[],address[],address[],uint256[])"
                    },
                    "errorInfo": "",
                    "fromAddress": "0xebf1bd44c230084809ff723a53c76fdbe196513f",
                    "gasUsed": 63955,
                    "id": 0,
                    "methodDecoded": true,
                    "operation": "CALL",
                    "output": "",
                    "revert": false,
                    "revertMessage": "",
                    "selector": "0xe19c2253",
                    "status": true,
                    "value": "0"
                },
                "nodeType": 0
            },
            "1": {
                "invocation": {
                    "address": "0x3ca08ba283642854dce16294e9239ca214c9f186",
                    "callData": "0x000000000000000000000000025ca61141f669a3086d965e427a43d8df92b829000000000000000000000000d3b419e2b3d87150af892968303fb9170ffe26c800000000000000000000000000000000000000000000000006d9b295a7457c00",
                    "decodedMethod": {
                        "callParams": [
                            {
                                "name": "sender",
                                "type": "address",
                                "value": "0x025ca61141f669a3086d965e427a43d8df92b829"
                            },
                            {
                                "name": "recipient",
                                "type": "address",
                                "value": "0xd3b419e2b3d87150af892968303fb9170ffe26c8"
                            },
                            {
                                "decimalAvailable": true,
                                "name": "amount",
                                "type": "uint256",
                                "value": "493,621,990,000,000,000"
                            }
                        ],
                        "constructorArguments": "",
                        "name": "transferFrom",
                        "returnParams": [
                            {
                                "name": "",
                                "type": "bool",
                                "value": true
                            }
                        ],
                        "signature": "transferFrom(address,address,uint256)"
                    },
                    "errorInfo": "",
                    "fromAddress": "0xfddddc0780c4e71e9bc41661fb4a0e14e0f01b15",
                    "gasUsed": 4617,
                    "id": 1,
                    "methodDecoded": true,
                    "operation": "CALL",
                    "output": "0x0000000000000000000000000000000000000000000000000000000000000001",
                    "revert": false,
                    "revertMessage": "",
                    "selector": "0x23b872dd",
                    "status": true,
                    "value": "0"
                },
                "nodeType": 0
            },
            "10": {
                "event": {
                    "contract": "0xf79c4b90d7b362261f342358de6a4565e9a154e6",
                    "decodedLog": {
                        "name": "Transfer",
                        "params": [
                            {
                                "name": "from",
                                "type": "address",
                                "value": "0x3821742f69f480e19bc510b2156a40b244bc4b53"
                            },
                            {
                                "name": "to",
                                "type": "address",
                                "value": "0xc6fd4bcfbe17b274a7c34a45a9c576772bbde62e"
                            },
                            {
                                "decimalAvailable": true,
                                "name": "value",
                                "type": "uint256",
                                "value": "50,000,000"
                            }
                        ],
                        "signature": "Transfer(address,address,uint256)"
                    },
                    "id": 10,
                    "logData": "0x0000000000000000000000000000000000000000000000000000000002faf080",
                    "logDecoded": true,
                    "operation": "EVENT",
                    "revert": false,
                    "status": true,
                    "topics": [
                        "0xddf252ad1be2c89b69c2b068fc378daa952ba7f163c4a11628f55a4df523b3ef",
                        "0x0000000000000000000000003821742f69f480e19bc510b2156a40b244bc4b53",
                        "0x000000000000000000000000c6fd4bcfbe17b274a7c34a45a9c576772bbde62e"
                    ]
                },
                "nodeType": 1
            },
            "11": {
                "invocation": {
                    "address": "0xf79c4b90d7b362261f342358de6a4565e9a154e6",
                    "callData": "0x000000000000000000000000923d9ff7984159beefd838d21c7e6caa3c2a0f8c000000000000000000000000981b62a5048d7c205f87f2127b16515893e2da0c0000000000000000000000000000000000000000000000000000000005f5e100",
                    "decodedMethod": {
                        "callParams": [
                            {
                                "name": "sender",
                                "type": "address",
                                "value": "0x923d9ff7984159beefd838d21c7e6caa3c2a0f8c"
                            },
                            {
                                "name": "recipient",
                                "type": "address",
                                "value": "0x981b62a5048d7c205f87f2127b16515893e2da0c"
                            },
                            {
                                "decimalAvailable": true,
                                "name": "amount",
                                "type": "uint256",
                                "value": "100,000,000"
                            }
                        ],
                        "constructorArguments": "",
                        "name": "transferFrom",
                        "returnParams": [
                            {
                                "name": "",
                                "type": "bool",
                                "value": true
                            }
                        ],
                        "signature": "transferFrom(address,address,uint256)"
                    },
                    "errorInfo": "",
                    "fromAddress": "0xfddddc0780c4e71e9bc41661fb4a0e14e0f01b15",
                    "gasUsed": 2617,
                    "id": 11,
                    "methodDecoded": true,
                    "operation": "CALL",
                    "output": "0x0000000000000000000000000000000000000000000000000000000000000001",
                    "revert": false,
                    "revertMessage": "",
                    "selector": "0x23b872dd",
                    "status": true,
                    "value": "0"
                },
                "nodeType": 0
            },
            "12": {
                "event": {
                    "contract": "0xf79c4b90d7b362261f342358de6a4565e9a154e6",
                    "decodedLog": {
                        "name": "Transfer",
                        "params": [
                            {
                                "name": "from",
                                "type": "address",
                                "value": "0x923d9ff7984159beefd838d21c7e6caa3c2a0f8c"
                            },
                            {
                                "name": "to",
                                "type": "address",
                                "value": "0x981b62a5048d7c205f87f2127b16515893e2da0c"
                            },
                            {
                                "decimalAvailable": true,
                                "name": "value",
                                "type": "uint256",
                                "value": "100,000,000"
                            }
                        ],
                        "signature": "Transfer(address,address,uint256)"
                    },
                    "id": 12,
                    "logData": "0x0000000000000000000000000000000000000000000000000000000005f5e100",
                    "logDecoded": true,
                    "operation": "EVENT",
                    "revert": false,
                    "status": true,
                    "topics": [
                        "0xddf252ad1be2c89b69c2b068fc378daa952ba7f163c4a11628f55a4df523b3ef",
                        "0x000000000000000000000000923d9ff7984159beefd838d21c7e6caa3c2a0f8c",
                        "0x000000000000000000000000981b62a5048d7c205f87f2127b16515893e2da0c"
                    ]
                },
                "nodeType": 1
            },
            "2": {
                "event": {
                    "contract": "0x3ca08ba283642854dce16294e9239ca214c9f186",
                    "decodedLog": {
                        "name": "Transfer",
                        "params": [
                            {
                                "name": "from",
                                "type": "address",
                                "value": "0x025ca61141f669a3086d965e427a43d8df92b829"
                            },
                            {
                                "name": "to",
                                "type": "address",
                                "value": "0xd3b419e2b3d87150af892968303fb9170ffe26c8"
                            },
                            {
                                "decimalAvailable": true,
                                "name": "value",
                                "type": "uint256",
                                "value": "493,621,990,000,000,000"
                            }
                        ],
                        "signature": "Transfer(address,address,uint256)"
                    },
                    "id": 2,
                    "logData": "0x00000000000000000000000000000000000000000000000006d9b295a7457c00",
                    "logDecoded": true,
                    "operation": "EVENT",
                    "revert": false,
                    "status": true,
                    "topics": [
                        "0xddf252ad1be2c89b69c2b068fc378daa952ba7f163c4a11628f55a4df523b3ef",
                        "0x000000000000000000000000025ca61141f669a3086d965e427a43d8df92b829",
                        "0x000000000000000000000000d3b419e2b3d87150af892968303fb9170ffe26c8"
                    ]
                },
                "nodeType": 1
            },
            "3": {
                "invocation": {
                    "address": "0x3ca08ba283642854dce16294e9239ca214c9f186",
                    "callData": "0x0000000000000000000000006e5bd4fc889fd5a85abdc2f3b5c68d4f6e587bfd000000000000000000000000861d338ff08c743ea7ec35d8734db2fa5e48a9e0000000000000000000000000000000000000000000000000078ee1b6e2023900",
                    "decodedMethod": {
                        "callParams": [
                            {
                                "name": "sender",
                                "type": "address",
                                "value": "0x6e5bd4fc889fd5a85abdc2f3b5c68d4f6e587bfd"
                            },
                            {
                                "name": "recipient",
                                "type": "address",
                                "value": "0x861d338ff08c743ea7ec35d8734db2fa5e48a9e0"
                            },
                            {
                                "decimalAvailable": true,
                                "name": "amount",
                                "type": "uint256",
                                "value": "544,620,780,550,502,656"
                            }
                        ],
                        "constructorArguments": "",
                        "name": "transferFrom",
                        "returnParams": [
                            {
                                "name": "",
                                "type": "bool",
                                "value": true
                            }
                        ],
                        "signature": "transferFrom(address,address,uint256)"
                    },
                    "errorInfo": "",
                    "fromAddress": "0xfddddc0780c4e71e9bc41661fb4a0e14e0f01b15",
                    "gasUsed": 2617,
                    "id": 3,
                    "methodDecoded": true,
                    "operation": "CALL",
                    "output": "0x0000000000000000000000000000000000000000000000000000000000000001",
                    "revert": false,
                    "revertMessage": "",
                    "selector": "0x23b872dd",
                    "status": true,
                    "value": "0"
                },
                "nodeType": 0
            },
            "4": {
                "event": {
                    "contract": "0x3ca08ba283642854dce16294e9239ca214c9f186",
                    "decodedLog": {
                        "name": "Transfer",
                        "params": [
                            {
                                "name": "from",
                                "type": "address",
                                "value": "0x6e5bd4fc889fd5a85abdc2f3b5c68d4f6e587bfd"
                            },
                            {
                                "name": "to",
                                "type": "address",
                                "value": "0x861d338ff08c743ea7ec35d8734db2fa5e48a9e0"
                            },
                            {
                                "decimalAvailable": true,
                                "name": "value",
                                "type": "uint256",
                                "value": "544,620,780,550,502,656"
                            }
                        ],
                        "signature": "Transfer(address,address,uint256)"
                    },
                    "id": 4,
                    "logData": "0x000000000000000000000000000000000000000000000000078ee1b6e2023900",
                    "logDecoded": true,
                    "operation": "EVENT",
                    "revert": false,
                    "status": true,
                    "topics": [
                        "0xddf252ad1be2c89b69c2b068fc378daa952ba7f163c4a11628f55a4df523b3ef",
                        "0x0000000000000000000000006e5bd4fc889fd5a85abdc2f3b5c68d4f6e587bfd",
                        "0x000000000000000000000000861d338ff08c743ea7ec35d8734db2fa5e48a9e0"
                    ]
                },
                "nodeType": 1
            },
            "5": {
                "invocation": {
                    "address": "0x3ca08ba283642854dce16294e9239ca214c9f186",
                    "callData": "0x0000000000000000000000006e5bd4fc889fd5a85abdc2f3b5c68d4f6e587bfd000000000000000000000000861716b206ce006973f140b0912b22fe5348a9e0000000000000000000000000000000000000000000000000078ee1b6e2023900",
                    "decodedMethod": {
                        "callParams": [
                            {
                                "name": "sender",
                                "type": "address",
                                "value": "0x6e5bd4fc889fd5a85abdc2f3b5c68d4f6e587bfd"
                            },
                            {
                                "name": "recipient",
                                "type": "address",
                                "value": "0x861716b206ce006973f140b0912b22fe5348a9e0"
                            },
                            {
                                "decimalAvailable": true,
                                "name": "amount",
                                "type": "uint256",
                                "value": "544,620,780,550,502,656"
                            }
                        ],
                        "constructorArguments": "",
                        "name": "transferFrom",
                        "returnParams": [
                            {
                                "name": "",
                                "type": "bool",
                                "value": true
                            }
                        ],
                        "signature": "transferFrom(address,address,uint256)"
                    },
                    "errorInfo": "",
                    "fromAddress": "0xfddddc0780c4e71e9bc41661fb4a0e14e0f01b15",
                    "gasUsed": 2617,
                    "id": 5,
                    "methodDecoded": true,
                    "operation": "CALL",
                    "output": "0x0000000000000000000000000000000000000000000000000000000000000001",
                    "revert": false,
                    "revertMessage": "",
                    "selector": "0x23b872dd",
                    "status": true,
                    "value": "0"
                },
                "nodeType": 0
            },
            "6": {
                "event": {
                    "contract": "0x3ca08ba283642854dce16294e9239ca214c9f186",
                    "decodedLog": {
                        "name": "Transfer",
                        "params": [
                            {
                                "name": "from",
                                "type": "address",
                                "value": "0x6e5bd4fc889fd5a85abdc2f3b5c68d4f6e587bfd"
                            },
                            {
                                "name": "to",
                                "type": "address",
                                "value": "0x861716b206ce006973f140b0912b22fe5348a9e0"
                            },
                            {
                                "decimalAvailable": true,
                                "name": "value",
                                "type": "uint256",
                                "value": "544,620,780,550,502,656"
                            }
                        ],
                        "signature": "Transfer(address,address,uint256)"
                    },
                    "id": 6,
                    "logData": "0x000000000000000000000000000000000000000000000000078ee1b6e2023900",
                    "logDecoded": true,
                    "operation": "EVENT",
                    "revert": false,
                    "status": true,
                    "topics": [
                        "0xddf252ad1be2c89b69c2b068fc378daa952ba7f163c4a11628f55a4df523b3ef",
                        "0x0000000000000000000000006e5bd4fc889fd5a85abdc2f3b5c68d4f6e587bfd",
                        "0x000000000000000000000000861716b206ce006973f140b0912b22fe5348a9e0"
                    ]
                },
                "nodeType": 1
            },
            "7": {
                "invocation": {
                    "address": "0xf79c4b90d7b362261f342358de6a4565e9a154e6",
                    "callData": "0x000000000000000000000000faf637ff935ffefa0b44630787ee5df5e2417c1d000000000000000000000000694e5e0081849bc09be3ee872b8f2bd8fbd0999e00000000000000000000000000000000000000000000000000000000017dcf6d",
                    "decodedMethod": {
                        "callParams": [
                            {
                                "name": "sender",
                                "type": "address",
                                "value": "0xfaf637ff935ffefa0b44630787ee5df5e2417c1d"
                            },
                            {
                                "name": "recipient",
                                "type": "address",
                                "value": "0x694e5e0081849bc09be3ee872b8f2bd8fbd0999e"
                            },
                            {
                                "decimalAvailable": true,
                                "name": "amount",
                                "type": "uint256",
                                "value": "25,022,317"
                            }
                        ],
                        "constructorArguments": "",
                        "name": "transferFrom",
                        "returnParams": [
                            {
                                "name": "",
                                "type": "bool",
                                "value": true
                            }
                        ],
                        "signature": "transferFrom(address,address,uint256)"
                    },
                    "errorInfo": "",
                    "fromAddress": "0xfddddc0780c4e71e9bc41661fb4a0e14e0f01b15",
                    "gasUsed": 4617,
                    "id": 7,
                    "methodDecoded": true,
                    "operation": "CALL",
                    "output": "0x0000000000000000000000000000000000000000000000000000000000000001",
                    "revert": false,
                    "revertMessage": "",
                    "selector": "0x23b872dd",
                    "status": true,
                    "value": "0"
                },
                "nodeType": 0
            },
            "8": {
                "event": {
                    "contract": "0xf79c4b90d7b362261f342358de6a4565e9a154e6",
                    "decodedLog": {
                        "name": "Transfer",
                        "params": [
                            {
                                "name": "from",
                                "type": "address",
                                "value": "0xfaf637ff935ffefa0b44630787ee5df5e2417c1d"
                            },
                            {
                                "name": "to",
                                "type": "address",
                                "value": "0x694e5e0081849bc09be3ee872b8f2bd8fbd0999e"
                            },
                            {
                                "decimalAvailable": true,
                                "name": "value",
                                "type": "uint256",
                                "value": "25,022,317"
                            }
                        ],
                        "signature": "Transfer(address,address,uint256)"
                    },
                    "id": 8,
                    "logData": "0x00000000000000000000000000000000000000000000000000000000017dcf6d",
                    "logDecoded": true,
                    "operation": "EVENT",
                    "revert": false,
                    "status": true,
                    "topics": [
                        "0xddf252ad1be2c89b69c2b068fc378daa952ba7f163c4a11628f55a4df523b3ef",
                        "0x000000000000000000000000faf637ff935ffefa0b44630787ee5df5e2417c1d",
                        "0x000000000000000000000000694e5e0081849bc09be3ee872b8f2bd8fbd0999e"
                    ]
                },
                "nodeType": 1
            },
            "9": {
                "invocation": {
                    "address": "0xf79c4b90d7b362261f342358de6a4565e9a154e6",
                    "callData": "0x0000000000000000000000003821742f69f480e19bc510b2156a40b244bc4b53000000000000000000000000c6fd4bcfbe17b274a7c34a45a9c576772bbde62e0000000000000000000000000000000000000000000000000000000002faf080",
                    "decodedMethod": {
                        "callParams": [
                            {
                                "name": "sender",
                                "type": "address",
                                "value": "0x3821742f69f480e19bc510b2156a40b244bc4b53"
                            },
                            {
                                "name": "recipient",
                                "type": "address",
                                "value": "0xc6fd4bcfbe17b274a7c34a45a9c576772bbde62e"
                            },
                            {
                                "decimalAvailable": true,
                                "name": "amount",
                                "type": "uint256",
                                "value": "50,000,000"
                            }
                        ],
                        "constructorArguments": "",
                        "name": "transferFrom",
                        "returnParams": [
                            {
                                "name": "",
                                "type": "bool",
                                "value": true
                            }
                        ],
                        "signature": "transferFrom(address,address,uint256)"
                    },
                    "errorInfo": "",
                    "fromAddress": "0xfddddc0780c4e71e9bc41661fb4a0e14e0f01b15",
                    "gasUsed": 2617,
                    "id": 9,
                    "methodDecoded": true,
                    "operation": "CALL",
                    "output": "0x0000000000000000000000000000000000000000000000000000000000000001",
                    "revert": false,
                    "revertMessage": "",
                    "selector": "0x23b872dd",
                    "status": true,
                    "value": "0"
                },
                "nodeType": 0
            }
        },
        "gasFlame": [
            {
                "children": [
                    {
                        "children": [
                            {
                                "children": [],
                                "depth": 0,
                                "name": "Initial Gas",
                                "value": 29972
                            },
                            {
                                "children": [
                                    {
                                        "children": [],
                                        "depth": 1,
                                        "name": "transferFrom",
                                        "value": 4617
                                    },
                                    {
                                        "children": [],
                                        "depth": 1,
                                        "name": "transferFrom",
                                        "value": 2617
                                    },
                                    {
                                        "children": [],
                                        "depth": 1,
                                        "name": "transferFrom",
                                        "value": 2617
                                    },
                                    {
                                        "children": [],
                                        "depth": 1,
                                        "name": "transferFrom",
                                        "value": 4617
                                    },
                                    {
                                        "children": [],
                                        "depth": 1,
                                        "name": "transferFrom",
                                        "value": 2617
                                    },
                                    {
                                        "children": [],
                                        "depth": 1,
                                        "name": "transferFrom",
                                        "value": 2617
                                    }
                                ],
                                "depth": 0,
                                "name": "Executed Gas",
                                "value": 33983
                            }
                        ],
                        "depth": -1,
                        "name": "Actual Gas Used",
                        "value": 63955
                    },
                    {
                        "children": [],
                        "depth": -1,
                        "name": "Refunded Gas",
                        "value": 0
                    }
                ],
                "depth": -2,
                "name": "Total Gas",
                "value": 63955
            }
        ],
        "isConfirmed": true,
        "mainTrace": [
            {
                "children": [
                    {
                        "children": [
                            {
                                "children": [
                                    {
                                        "children": [],
                                        "depth": 2,
                                        "id": 2,
                                        "order": 2
                                    }
                                ],
                                "depth": 1,
                                "id": 1,
                                "order": 1
                            },
                            {
                                "children": [
                                    {
                                        "children": [],
                                        "depth": 2,
                                        "id": 4,
                                        "order": 4
                                    }
                                ],
                                "depth": 1,
                                "id": 3,
                                "order": 3
                            },
                            {
                                "children": [
                                    {
                                        "children": [],
                                        "depth": 2,
                                        "id": 6,
                                        "order": 6
                                    }
                                ],
                                "depth": 1,
                                "id": 5,
                                "order": 5
                            },
                            {
                                "children": [
                                    {
                                        "children": [],
                                        "depth": 2,
                                        "id": 8,
                                        "order": 8
                                    }
                                ],
                                "depth": 1,
                                "id": 7,
                                "order": 7
                            },
                            {
                                "children": [
                                    {
                                        "children": [],
                                        "depth": 2,
                                        "id": 10,
                                        "order": 10
                                    }
                                ],
                                "depth": 1,
                                "id": 9,
                                "order": 9
                            },
                            {
                                "children": [
                                    {
                                        "children": [],
                                        "depth": 2,
                                        "id": 12,
                                        "order": 12
                                    }
                                ],
                                "depth": 1,
                                "id": 11,
                                "order": 11
                            }
                        ],
                        "depth": 0,
                        "id": 0,
                        "order": 0
                    }
                ],
                "depth": -1,
                "id": -1,
                "order": -1
            }
        ],
        "mainTraceNodeCount": 13,
        "parentIdMap": {
            "0": -1,
            "1": 0,
            "10": 9,
            "11": 0,
            "12": 11,
            "2": 1,
            "3": 0,
            "4": 3,
            "5": 0,
            "6": 5,
            "7": 0,
            "8": 7,
            "9": 0
        },
        "tidyTrace": [
            {
                "children": [
                    {
                        "children": [
                            {
                                "children": [
                                    {
                                        "children": [],
                                        "depth": 2,
                                        "id": 2,
                                        "order": 2
                                    }
                                ],
                                "depth": 1,
                                "id": 1,
                                "order": 1
                            },
                            {
                                "children": [
                                    {
                                        "children": [],
                                        "depth": 2,
                                        "id": 4,
                                        "order": 4
                                    }
                                ],
                                "depth": 1,
                                "id": 3,
                                "order": 3
                            },
                            {
                                "children": [
                                    {
                                        "children": [],
                                        "depth": 2,
                                        "id": 6,
                                        "order": 6
                                    }
                                ],
                                "depth": 1,
                                "id": 5,
                                "order": 5
                            },
                            {
                                "children": [
                                    {
                                        "children": [],
                                        "depth": 2,
                                        "id": 8,
                                        "order": 8
                                    }
                                ],
                                "depth": 1,
                                "id": 7,
                                "order": 7
                            },
                            {
                                "children": [
                                    {
                                        "children": [],
                                        "depth": 2,
                                        "id": 10,
                                        "order": 10
                                    }
                                ],
                                "depth": 1,
                                "id": 9,
                                "order": 9
                            },
                            {
                                "children": [
                                    {
                                        "children": [],
                                        "depth": 2,
                                        "id": 12,
                                        "order": 12
                                    }
                                ],
                                "depth": 1,
                                "id": 11,
                                "order": 11
                            }
                        ],
                        "depth": 0,
                        "id": 0,
                        "order": 0
                    }
                ],
                "depth": -1,
                "id": -1,
                "order": -1
            }
        ],
        "tidyTraceNodeCount": 13
    },
    "state_change": {
        "stateChanges": []
    }
}