{
    "balance_change": {
        "balanceChanges": []
    },
    "profile": {
        "basic_info": {
            "baseFee": "32.867314559",
            "blockNumber": 13293434,
            "callData": "0xab834bab0000000000000000000000007be8076f4ea4a4ad08075c2508e481d6c946d12b000000000000000000000000b218f49bec830c700de1e9b542cea7886571eaee000000000000000000000000e3c25109d06dc7c47033d50a8f26640175e69b870000000000000000000000000000000000000000000000000000000000000000000000000000000000000000320e2fa93a4010ba47edcde762802374bac8d3f7000000000000000000000000000000000000000000000000000000000000000000000000000000000000000000000000000000000000000000000000000000000000000000000000000000007be8076f4ea4a4ad08075c2508e481d6c946d12b000000000000000000000000e3c25109d06dc7c47033d50a8f26640175e69b8700000000000000000000000000000000000000000000000000000000000000000000000000000000000000005b3256965e7c3cf26e11fcaf296dfc8807c01073000000000000000000000000320e2fa93a4010ba47edcde762802374bac8d3f70000000000000000000000000000000000000000000000000000000000000000000000000000000000000000000000000000000000000000000000000000000000000000000000000000000000000000000000000000000000000000000003e8000000000000000000000000000000000000000000000000000000000000000000000000000000000000000000000000000000000000000000000000000000000000000000000000000000000000000000000000000000000000000000000000000000000000000000000000000000000000000000000000015fb7f9b8c38000000000000000000000000000000000000000000000000000000000000000000000000000000000000000000000000000000000000000000000000000614ec6f300000000000000000000000000000000000000000000000000000000000000008faa3df6f44b0078b5e0c4a622f81ad660c9ce1f7e08f11b62df86ce96bad0fd00000000000000000000000000000000000000000000000000000000000003e8000000000000000000000000000000000000000000000000000000000000000000000000000000000000000000000000000000000000000000000000000000000000000000000000000000000000000000000000000000000000000000000000000000000000000000000000000000000000000000000000015fb7f9b8c38000000000000000000000000000000000000000000000000000000000000000000000000000000000000000000000000000000000000000000000000000614ec5d4000000000000000000000000000000000000000000000000000000006152bab5670eb2587f0d8033a897d4d6d0841c4fc5ce72a7a383d1b4195bdf2fd2bbd6440000000000000000000000000000000000000000000000000000000000000001000000000000000000000000000000000000000000000000000000000000000000000000000000000000000000000000000000000000000000000000000000000000000000000000000000000000000000000000000000000000000000000000000000000000000000000000000000000000000000000000000000000000000100000000000000000000000000000000000000000000000000000000000000010000000000000000000000000000000000000000000000000000000000000000000000000000000000000000000000000000000000000000000000000000000000000000000000000000000000000000000000000000000000000000000006a0000000000000000000000000000000000000000000000000000000000000074000000000000000000000000000000000000000000000000000000000000007e0000000000000000000000000000000000000000000000000000000000000088000000000000000000000000000000000000000000000000000000000000009200000000000000000000000000000000000000000000000000000000000000940000000000000000000000000000000000000000000000000000000000000001c000000000000000000000000000000000000000000000000000000000000001c6c7af0b8f41d468aab33cfacc8c6e82fcbe602103afba919a9de326bb8be9ffc1b2b818a2c31ac0480bde86b5efb8912d2a2b39699c9fec194d5e116124b9e0c6c7af0b8f41d468aab33cfacc8c6e82fcbe602103afba919a9de326bb8be9ffc1b2b818a2c31ac0480bde86b5efb8912d2a2b39699c9fec194d5e116124b9e0c0000000000000000000000000000000000000000000000000000000000000000000000000000000000000000000000000000000000000000000000000000006423b872dd0000000000000000000000000000000000000000000000000000000000000000000000000000000000000000b218f49bec830c700de1e9b542cea7886571eaee000000000000000000000000000000000000000000000000000000000000073000000000000000000000000000000000000000000000000000000000000000000000000000000000000000000000000000000000000000000000006423b872dd000000000000000000000000e3c25109d06dc7c47033d50a8f26640175e69b870000000000000000000000000000000000000000000000000000000000000000000000000000000000000000000000000000000000000000000000000000073000000000000000000000000000000000000000000000000000000000000000000000000000000000000000000000000000000000000000000000006400000000ffffffffffffffffffffffffffffffffffffffffffffffffffffffffffffffff00000000000000000000000000000000000000000000000000000000000000000000000000000000000000000000000000000000000000000000000000000000000000000000000000000000000000000000000000000000000000000000000000000000000000000000000000000000000000000000000000000064000000000000000000000000000000000000000000000000000000000000000000000000ffffffffffffffffffffffffffffffffffffffffffffffffffffffffffffffff00000000000000000000000000000000000000000000000000000000000000000000000000000000000000000000000000000000000000000000000000000000000000000000000000000000000000000000000000000000000000000000000000000000000000000000000000000000000000000000000000000000",
            "debugEnable": true,
            "errorInfo": "execution reverted",
            "eventCount": 0,
            "feeRecipient": "0xea674fdde714fd979de3edf0f56aa9716b898ec8",
            "formatValue": "0.099",
            "gasLimit": 316840,
            "gasPrice": "34.367314559",
            "gasUsed": 64736,
            "intTxnCount": 0,
            "internalRevert": false,
            "internalRevertMessage": "",
            "isContractCreation": false,
            "isFlashloan": false,
            "maxFee": "43.01952782",
            "nonce": 32,
            "overwritedBlockNumber": -1,
            "priorityFee": "1.5",
            "receiver": "0x7be8076f4ea4a4ad08075c2508e481d6c946d12b",
            "revertMessage": "",
            "sender": "0xb218f49bec830c700de1e9b542cea7886571eaee",
            "simulationEnable": true,
            "sourceTxnHash": "0x1ca0e5a862bd3c08faeb19e842913743706827f26bf484089f49221dd10a1799",
            "status": false,
            "timestamp": "2021-09-25T06:53:35Z",
            "transactionFee": "0.002224802475291424",
            "txnHash": "0x1ca0e5a862bd3c08faeb19e842913743706827f26bf484089f49221dd10a1799",
            "txnIndex": 59,
            "type": 2,
            "value": "99000000000000000"
        },
        "fund_flow": [],
        "token_infos": [
            {
                "address": "0xc02aaa39b223fe8d0a0e5c4f27ead9083c756cc2",
                "decimals": 18
            },
            {
                "address": "0xeeeeeeeeeeeeeeeeeeeeeeeeeeeeeeeeeeeeeeee",
                "decimals": 18
            }
        ]
    },
    "address_label": {
        "labels": [
            {
                "address": "0x0000000000000000000000000000000000000003",
                "label": "Precompiled"
            },
            {
                "address": "0xeeeeeeeeeeeeeeeeeeeeeeeeeeeeeeeeeeeeeeee",
                "label": "Ether"
            },
            {
                "address": "0x0000000000000000000000000000000000000000",
                "label": "Null Address"
            },
            {
                "address": "0x0000000000000000000000000000000000000001",
                "label": "Precompiled"
            },
            {
                "address": "0x0000000000000000000000000000000000000002",
                "label": "Precompiled"
            },
            {
                "address": "0x0000000000000000000000000000000000000004",
                "label": "Precompiled"
            },
            {
                "address": "0x5b3256965e7c3cf26e11fcaf296dfc8807c01073",
                "label": "OpenSea: Wallet"
            },
            {
                "address": "0x7be8076f4ea4a4ad08075c2508e481d6c946d12b",
                "label": "OpenSea: Wyvern Exchange v1"
            },
            {
                "address": "0x320e2fa93a4010ba47edcde762802374bac8d3f7",
                "label": "Genetic Chain: GCP1 Token"
            }
        ]
    },
    "trace": {
        "accountLabels": null,
        "dataMap": {
            "-1": {
                "invocation": {
                    "address": "0xb218f49bec830c700de1e9b542cea7886571eaee",
                    "callData": "",
                    "decodedMethod": null,
                    "errorInfo": "",
                    "fromAddress": "",
                    "gasUsed": 0,
                    "id": -1,
                    "methodDecoded": false,
                    "operation": "",
                    "output": "",
                    "revert": false,
                    "revertMessage": "",
                    "selector": "",
                    "status": false,
                    "value": ""
                },
                "nodeType": 0
            },
            "0": {
                "invocation": {
                    "address": "0x7be8076f4ea4a4ad08075c2508e481d6c946d12b",
                    "callData": "0x0000000000000000000000007be8076f4ea4a4ad08075c2508e481d6c946d12b000000000000000000000000b218f49bec830c700de1e9b542cea7886571eaee000000000000000000000000e3c25109d06dc7c47033d50a8f26640175e69b870000000000000000000000000000000000000000000000000000000000000000000000000000000000000000320e2fa93a4010ba47edcde762802374bac8d3f7000000000000000000000000000000000000000000000000000000000000000000000000000000000000000000000000000000000000000000000000000000000000000000000000000000007be8076f4ea4a4ad08075c2508e481d6c946d12b000000000000000000000000e3c25109d06dc7c47033d50a8f26640175e69b8700000000000000000000000000000000000000000000000000000000000000000000000000000000000000005b3256965e7c3cf26e11fcaf296dfc8807c01073000000000000000000000000320e2fa93a4010ba47edcde762802374bac8d3f70000000000000000000000000000000000000000000000000000000000000000000000000000000000000000000000000000000000000000000000000000000000000000000000000000000000000000000000000000000000000000000003e8000000000000000000000000000000000000000000000000000000000000000000000000000000000000000000000000000000000000000000000000000000000000000000000000000000000000000000000000000000000000000000000000000000000000000000000000000000000000000000000000015fb7f9b8c38000000000000000000000000000000000000000000000000000000000000000000000000000000000000000000000000000000000000000000000000000614ec6f300000000000000000000000000000000000000000000000000000000000000008faa3df6f44b0078b5e0c4a622f81ad660c9ce1f7e08f11b62df86ce96bad0fd00000000000000000000000000000000000000000000000000000000000003e8000000000000000000000000000000000000000000000000000000000000000000000000000000000000000000000000000000000000000000000000000000000000000000000000000000000000000000000000000000000000000000000000000000000000000000000000000000000000000000000000015fb7f9b8c38000000000000000000000000000000000000000000000000000000000000000000000000000000000000000000000000000000000000000000000000000614ec5d4000000000000000000000000000000000000000000000000000000006152bab5670eb2587f0d8033a897d4d6d0841c4fc5ce72a7a383d1b4195bdf2fd2bbd6440000000000000000000000000000000000000000000000000000000000000001000000000000000000000000000000000000000000000000000000000000000000000000000000000000000000000000000000000000000000000000000000000000000000000000000000000000000000000000000000000000000000000000000000000000000000000000000000000000000000000000000000000000000100000000000000000000000000000000000000000000000000000000000000010000000000000000000000000000000000000000000000000000000000000000000000000000000000000000000000000000000000000000000000000000000000000000000000000000000000000000000000000000000000000000000006a0000000000000000000000000000000000000000000000000000000000000074000000000000000000000000000000000000000000000000000000000000007e0000000000000000000000000000000000000000000000000000000000000088000000000000000000000000000000000000000000000000000000000000009200000000000000000000000000000000000000000000000000000000000000940000000000000000000000000000000000000000000000000000000000000001c000000000000000000000000000000000000000000000000000000000000001c6c7af0b8f41d468aab33cfacc8c6e82fcbe602103afba919a9de326bb8be9ffc1b2b818a2c31ac0480bde86b5efb8912d2a2b39699c9fec194d5e116124b9e0c6c7af0b8f41d468aab33cfacc8c6e82fcbe602103afba919a9de326bb8be9ffc1b2b818a2c31ac0480bde86b5efb8912d2a2b39699c9fec194d5e116124b9e0c0000000000000000000000000000000000000000000000000000000000000000000000000000000000000000000000000000000000000000000000000000006423b872dd0000000000000000000000000000000000000000000000000000000000000000000000000000000000000000b218f49bec830c700de1e9b542cea7886571eaee000000000000000000000000000000000000000000000000000000000000073000000000000000000000000000000000000000000000000000000000000000000000000000000000000000000000000000000000000000000000006423b872dd000000000000000000000000e3c25109d06dc7c47033d50a8f26640175e69b870000000000000000000000000000000000000000000000000000000000000000000000000000000000000000000000000000000000000000000000000000073000000000000000000000000000000000000000000000000000000000000000000000000000000000000000000000000000000000000000000000006400000000ffffffffffffffffffffffffffffffffffffffffffffffffffffffffffffffff00000000000000000000000000000000000000000000000000000000000000000000000000000000000000000000000000000000000000000000000000000000000000000000000000000000000000000000000000000000000000000000000000000000000000000000000000000000000000000000000000000064000000000000000000000000000000000000000000000000000000000000000000000000ffffffffffffffffffffffffffffffffffffffffffffffffffffffffffffffff00000000000000000000000000000000000000000000000000000000000000000000000000000000000000000000000000000000000000000000000000000000000000000000000000000000000000000000000000000000000000000000000000000000000000000000000000000000000000000000000000000000",
                    "decodedMethod": {
                        "callParams": [
                            {
                                "name": "addrs",
                                "type": "address[14]",
                                "value": [
                                    "0x7be8076f4ea4a4ad08075c2508e481d6c946d12b",
                                    "0xb218f49bec830c700de1e9b542cea7886571eaee",
                                    "0xe3c25109d06dc7c47033d50a8f26640175e69b87",
                                    "0x0000000000000000000000000000000000000000",
                                    "0x320e2fa93a4010ba47edcde762802374bac8d3f7",
                                    "0x0000000000000000000000000000000000000000",
                                    "0x0000000000000000000000000000000000000000",
                                    "0x7be8076f4ea4a4ad08075c2508e481d6c946d12b",
                                    "0xe3c25109d06dc7c47033d50a8f26640175e69b87",
                                    "0x0000000000000000000000000000000000000000",
                                    "0x5b3256965e7c3cf26e11fcaf296dfc8807c01073",
                                    "0x320e2fa93a4010ba47edcde762802374bac8d3f7",
                                    "0x0000000000000000000000000000000000000000",
                                    "0x0000000000000000000000000000000000000000"
                                ]
                            },
                            {
                                "name": "uints",
                                "type": "uint256[18]",
                                "value": [
                                    "1,000",
                                    "0",
                                    "0",
                                    "0",
                                    "99,000,000,000,000,000",
                                    "0",
                                    "1,632,552,691",
                                    "0",
                                    "64,981,529,012,820,506,352,152,508,503,535,265,266,791,473,248,430,038,694,242,959,118,446,521,667,837",
                                    "1,000",
                                    "0",
                                    "0",
                                    "0",
                                    "99,000,000,000,000,000",
                                    "0",
                                    "1,632,552,404",
                                    "1,632,811,701",
                                    "46,614,190,159,688,585,756,730,820,840,672,129,679,192,454,839,038,984,778,337,906,273,528,068,167,236"
                                ]
                            },
                            {
                                "name": "feeMethodsSidesKindsHowToCalls",
                                "type": "uint8[8]",
                                "value": [
                                    "1",
                                    "0",
                                    "0",
                                    "0",
                                    "1",
                                    "1",
                                    "0",
                                    "0"
                                ]
                            },
                            {
                                "name": "calldataBuy",
                                "type": "bytes",
                                "value": "0x23b872dd0000000000000000000000000000000000000000000000000000000000000000000000000000000000000000b218f49bec830c700de1e9b542cea7886571eaee0000000000000000000000000000000000000000000000000000000000000730"
                            },
                            {
                                "name": "calldataSell",
                                "type": "bytes",
                                "value": "0x23b872dd000000000000000000000000e3c25109d06dc7c47033d50a8f26640175e69b8700000000000000000000000000000000000000000000000000000000000000000000000000000000000000000000000000000000000000000000000000000730"
                            },
                            {
                                "name": "replacementPatternBuy",
                                "type": "bytes",
                                "value": "0x00000000ffffffffffffffffffffffffffffffffffffffffffffffffffffffffffffffff00000000000000000000000000000000000000000000000000000000000000000000000000000000000000000000000000000000000000000000000000000000"
                            },
                            {
                                "name": "replacementPatternSell",
                                "type": "bytes",
                                "value": "0x000000000000000000000000000000000000000000000000000000000000000000000000ffffffffffffffffffffffffffffffffffffffffffffffffffffffffffffffff0000000000000000000000000000000000000000000000000000000000000000"
                            },
                            {
                                "name": "staticExtradataBuy",
                                "type": "bytes",
                                "value": "0x"
                            },
                            {
                                "name": "staticExtradataSell",
                                "type": "bytes",
                                "value": "0x"
                            },
                            {
                                "name": "vs",
                                "type": "uint8[2]",
                                "value": [
                                    "28",
                                    "28"
                                ]
                            },
                            {
                                "name": "rssMetadata",
                                "type": "bytes32[5]",
                                "value": [
                                    "0x6c7af0b8f41d468aab33cfacc8c6e82fcbe602103afba919a9de326bb8be9ffc",
                                    "0x1b2b818a2c31ac0480bde86b5efb8912d2a2b39699c9fec194d5e116124b9e0c",
                                    "0x6c7af0b8f41d468aab33cfacc8c6e82fcbe602103afba919a9de326bb8be9ffc",
                                    "0x1b2b818a2c31ac0480bde86b5efb8912d2a2b39699c9fec194d5e116124b9e0c",
                                    "0x0000000000000000000000000000000000000000000000000000000000000000"
                                ]
                            }
                        ],
                        "constructorArguments": "",
                        "name": "atomicMatch_",
                        "returnParams": [],
                        "signature": "atomicMatch_(address[14],uint256[18],uint8[8],bytes,bytes,bytes,bytes,bytes,bytes,uint8[2],bytes32[5])"
                    },
                    "errorInfo": "execution reverted",
                    "fromAddress": "0xb218f49bec830c700de1e9b542cea7886571eaee",
                    "gasUsed": 64736,
                    "id": 0,
                    "methodDecoded": true,
                    "operation": "CALL",
                    "output": "",
                    "revert": true,
                    "revertMessage": "",
                    "selector": "0xab834bab",
                    "status": false,
                    "value": "0.099"
                },
                "nodeType": 0
            }
        },
        "gasFlame": [
            {
                "children": [
                    {
                        "children": [
                            {
                                "children": [],
                                "depth": 0,
                                "name": "Initial Gas",
                                "value": 36880
                            },
                            {
                                "children": [],
                                "depth": 0,
                                "name": "Executed Gas",
                                "value": 27856
                            }
                        ],
                        "depth": -1,
                        "name": "Actual Gas Used",
                        "value": 64736
                    },
                    {
                        "children": [],
                        "depth": -1,
                        "name": "Refunded Gas",
                        "value": 0
                    }
                ],
                "depth": -2,
                "name": "Total Gas",
                "value": 64736
            }
        ],
        "isConfirmed": true,
        "mainTrace": [
            {
                "children": [
                    {
                        "children": [],
                        "depth": 0,
                        "id": 0,
                        "order": 0
                    }
                ],
                "depth": -1,
                "id": -1,
                "order": -1
            }
        ],
        "mainTraceNodeCount": 1,
        "parentIdMap": {
            "0": -1
        },
        "tidyTrace": [
            {
                "children": [
                    {
                        "children": [],
                        "depth": 0,
                        "id": 0,
                        "order": 0
                    }
                ],
                "depth": -1,
                "id": -1,
                "order": -1
            }
        ],
        "tidyTraceNodeCount": 1
    },
    "state_change": {
        "stateChanges": []
    }
}