{
    "balance_change": {
        "balanceChanges": [
            {
                "account": "0x0000000000000000000000000000000000000000",
                "assets": [
                    {
                        "address": "0x11801ca8a1873e16ec0f11758eb642e7ced2d8ec",
                        "amount": "1",
                        "iconUrl": "",
                        "isERC1155": false,
                        "isERC721": true,
                        "sign": false,
                        "tokenID": "9615",
                        "value": ""
                    },
                    {
                        "address": "0x11801ca8a1873e16ec0f11758eb642e7ced2d8ec",
                        "amount": "1",
                        "iconUrl": "",
                        "isERC1155": false,
                        "isERC721": true,
                        "sign": false,
                        "tokenID": "9619",
                        "value": ""
                    },
                    {
                        "address": "0x11801ca8a1873e16ec0f11758eb642e7ced2d8ec",
                        "amount": "1",
                        "iconUrl": "",
                        "isERC1155": false,
                        "isERC721": true,
                        "sign": false,
                        "tokenID": "9625",
                        "value": ""
                    },
                    {
                        "address": "0x11801ca8a1873e16ec0f11758eb642e7ced2d8ec",
                        "amount": "1",
                        "iconUrl": "",
                        "isERC1155": false,
                        "isERC721": true,
                        "sign": false,
                        "tokenID": "9621",
                        "value": ""
                    },
                    {
                        "address": "0x11801ca8a1873e16ec0f11758eb642e7ced2d8ec",
                        "amount": "1",
                        "iconUrl": "",
                        "isERC1155": false,
                        "isERC721": true,
                        "sign": false,
                        "tokenID": "9622",
                        "value": ""
                    },
                    {
                        "address": "0x11801ca8a1873e16ec0f11758eb642e7ced2d8ec",
                        "amount": "1",
                        "iconUrl": "",
                        "isERC1155": false,
                        "isERC721": true,
                        "sign": false,
                        "tokenID": "9626",
                        "value": ""
                    },
                    {
                        "address": "0x11801ca8a1873e16ec0f11758eb642e7ced2d8ec",
                        "amount": "1",
                        "iconUrl": "",
                        "isERC1155": false,
                        "isERC721": true,
                        "sign": false,
                        "tokenID": "9611",
                        "value": ""
                    },
                    {
                        "address": "0x11801ca8a1873e16ec0f11758eb642e7ced2d8ec",
                        "amount": "1",
                        "iconUrl": "",
                        "isERC1155": false,
                        "isERC721": true,
                        "sign": false,
                        "tokenID": "9613",
                        "value": ""
                    },
                    {
                        "address": "0x11801ca8a1873e16ec0f11758eb642e7ced2d8ec",
                        "amount": "1",
                        "iconUrl": "",
                        "isERC1155": false,
                        "isERC721": true,
                        "sign": false,
                        "tokenID": "9616",
                        "value": ""
                    },
                    {
                        "address": "0x11801ca8a1873e16ec0f11758eb642e7ced2d8ec",
                        "amount": "1",
                        "iconUrl": "",
                        "isERC1155": false,
                        "isERC721": true,
                        "sign": false,
                        "tokenID": "9617",
                        "value": ""
                    },
                    {
                        "address": "0x11801ca8a1873e16ec0f11758eb642e7ced2d8ec",
                        "amount": "1",
                        "iconUrl": "",
                        "isERC1155": false,
                        "isERC721": true,
                        "sign": false,
                        "tokenID": "9620",
                        "value": ""
                    },
                    {
                        "address": "0x11801ca8a1873e16ec0f11758eb642e7ced2d8ec",
                        "amount": "1",
                        "iconUrl": "",
                        "isERC1155": false,
                        "isERC721": true,
                        "sign": false,
                        "tokenID": "9623",
                        "value": ""
                    },
                    {
                        "address": "0x11801ca8a1873e16ec0f11758eb642e7ced2d8ec",
                        "amount": "1",
                        "iconUrl": "",
                        "isERC1155": false,
                        "isERC721": true,
                        "sign": false,
                        "tokenID": "9624",
                        "value": ""
                    },
                    {
                        "address": "0x11801ca8a1873e16ec0f11758eb642e7ced2d8ec",
                        "amount": "1",
                        "iconUrl": "",
                        "isERC1155": false,
                        "isERC721": true,
                        "sign": false,
                        "tokenID": "9627",
                        "value": ""
                    },
                    {
                        "address": "0x11801ca8a1873e16ec0f11758eb642e7ced2d8ec",
                        "amount": "1",
                        "iconUrl": "",
                        "isERC1155": false,
                        "isERC721": true,
                        "sign": false,
                        "tokenID": "9610",
                        "value": ""
                    },
                    {
                        "address": "0x11801ca8a1873e16ec0f11758eb642e7ced2d8ec",
                        "amount": "1",
                        "iconUrl": "",
                        "isERC1155": false,
                        "isERC721": true,
                        "sign": false,
                        "tokenID": "9612",
                        "value": ""
                    },
                    {
                        "address": "0x11801ca8a1873e16ec0f11758eb642e7ced2d8ec",
                        "amount": "1",
                        "iconUrl": "",
                        "isERC1155": false,
                        "isERC721": true,
                        "sign": false,
                        "tokenID": "9614",
                        "value": ""
                    },
                    {
                        "address": "0x11801ca8a1873e16ec0f11758eb642e7ced2d8ec",
                        "amount": "1",
                        "iconUrl": "",
                        "isERC1155": false,
                        "isERC721": true,
                        "sign": false,
                        "tokenID": "9618",
                        "value": ""
                    },
                    {
                        "address": "0x11801ca8a1873e16ec0f11758eb642e7ced2d8ec",
                        "amount": "1",
                        "iconUrl": "",
                        "isERC1155": false,
                        "isERC721": true,
                        "sign": false,
                        "tokenID": "9628",
                        "value": ""
                    },
                    {
                        "address": "0x11801ca8a1873e16ec0f11758eb642e7ced2d8ec",
                        "amount": "1",
                        "iconUrl": "",
                        "isERC1155": false,
                        "isERC721": true,
                        "sign": false,
                        "tokenID": "9629",
                        "value": ""
                    }
                ]
            },
            {
                "account": "0xa632aa397d0bdb51aa542d7ddc1f33085b3b15ed",
                "assets": [
                    {
                        "address": "0x11801ca8a1873e16ec0f11758eb642e7ced2d8ec",
                        "amount": "1",
                        "iconUrl": "",
                        "isERC1155": false,
                        "isERC721": true,
                        "sign": true,
                        "tokenID": "9629",
                        "value": ""
                    },
                    {
                        "address": "0x11801ca8a1873e16ec0f11758eb642e7ced2d8ec",
                        "amount": "1",
                        "iconUrl": "",
                        "isERC1155": false,
                        "isERC721": true,
                        "sign": true,
                        "tokenID": "9610",
                        "value": ""
                    },
                    {
                        "address": "0x11801ca8a1873e16ec0f11758eb642e7ced2d8ec",
                        "amount": "1",
                        "iconUrl": "",
                        "isERC1155": false,
                        "isERC721": true,
                        "sign": true,
                        "tokenID": "9614",
                        "value": ""
                    },
                    {
                        "address": "0x11801ca8a1873e16ec0f11758eb642e7ced2d8ec",
                        "amount": "1",
                        "iconUrl": "",
                        "isERC1155": false,
                        "isERC721": true,
                        "sign": true,
                        "tokenID": "9615",
                        "value": ""
                    },
                    {
                        "address": "0x11801ca8a1873e16ec0f11758eb642e7ced2d8ec",
                        "amount": "1",
                        "iconUrl": "",
                        "isERC1155": false,
                        "isERC721": true,
                        "sign": true,
                        "tokenID": "9624",
                        "value": ""
                    },
                    {
                        "address": "0x11801ca8a1873e16ec0f11758eb642e7ced2d8ec",
                        "amount": "1",
                        "iconUrl": "",
                        "isERC1155": false,
                        "isERC721": true,
                        "sign": true,
                        "tokenID": "9628",
                        "value": ""
                    },
                    {
                        "address": "0x11801ca8a1873e16ec0f11758eb642e7ced2d8ec",
                        "amount": "1",
                        "iconUrl": "",
                        "isERC1155": false,
                        "isERC721": true,
                        "sign": true,
                        "tokenID": "9623",
                        "value": ""
                    },
                    {
                        "address": "0x11801ca8a1873e16ec0f11758eb642e7ced2d8ec",
                        "amount": "1",
                        "iconUrl": "",
                        "isERC1155": false,
                        "isERC721": true,
                        "sign": true,
                        "tokenID": "9625",
                        "value": ""
                    },
                    {
                        "address": "0x11801ca8a1873e16ec0f11758eb642e7ced2d8ec",
                        "amount": "1",
                        "iconUrl": "",
                        "isERC1155": false,
                        "isERC721": true,
                        "sign": true,
                        "tokenID": "9612",
                        "value": ""
                    },
                    {
                        "address": "0x11801ca8a1873e16ec0f11758eb642e7ced2d8ec",
                        "amount": "1",
                        "iconUrl": "",
                        "isERC1155": false,
                        "isERC721": true,
                        "sign": true,
                        "tokenID": "9613",
                        "value": ""
                    },
                    {
                        "address": "0x11801ca8a1873e16ec0f11758eb642e7ced2d8ec",
                        "amount": "1",
                        "iconUrl": "",
                        "isERC1155": false,
                        "isERC721": true,
                        "sign": true,
                        "tokenID": "9616",
                        "value": ""
                    },
                    {
                        "address": "0x11801ca8a1873e16ec0f11758eb642e7ced2d8ec",
                        "amount": "1",
                        "iconUrl": "",
                        "isERC1155": false,
                        "isERC721": true,
                        "sign": true,
                        "tokenID": "9618",
                        "value": ""
                    },
                    {
                        "address": "0x11801ca8a1873e16ec0f11758eb642e7ced2d8ec",
                        "amount": "1",
                        "iconUrl": "",
                        "isERC1155": false,
                        "isERC721": true,
                        "sign": true,
                        "tokenID": "9621",
                        "value": ""
                    },
                    {
                        "address": "0x11801ca8a1873e16ec0f11758eb642e7ced2d8ec",
                        "amount": "1",
                        "iconUrl": "",
                        "isERC1155": false,
                        "isERC721": true,
                        "sign": true,
                        "tokenID": "9622",
                        "value": ""
                    },
                    {
                        "address": "0x11801ca8a1873e16ec0f11758eb642e7ced2d8ec",
                        "amount": "1",
                        "iconUrl": "",
                        "isERC1155": false,
                        "isERC721": true,
                        "sign": true,
                        "tokenID": "9627",
                        "value": ""
                    },
                    {
                        "address": "0x11801ca8a1873e16ec0f11758eb642e7ced2d8ec",
                        "amount": "1",
                        "iconUrl": "",
                        "isERC1155": false,
                        "isERC721": true,
                        "sign": true,
                        "tokenID": "9611",
                        "value": ""
                    },
                    {
                        "address": "0x11801ca8a1873e16ec0f11758eb642e7ced2d8ec",
                        "amount": "1",
                        "iconUrl": "",
                        "isERC1155": false,
                        "isERC721": true,
                        "sign": true,
                        "tokenID": "9617",
                        "value": ""
                    },
                    {
                        "address": "0x11801ca8a1873e16ec0f11758eb642e7ced2d8ec",
                        "amount": "1",
                        "iconUrl": "",
                        "isERC1155": false,
                        "isERC721": true,
                        "sign": true,
                        "tokenID": "9619",
                        "value": ""
                    },
                    {
                        "address": "0x11801ca8a1873e16ec0f11758eb642e7ced2d8ec",
                        "amount": "1",
                        "iconUrl": "",
                        "isERC1155": false,
                        "isERC721": true,
                        "sign": true,
                        "tokenID": "9620",
                        "value": ""
                    },
                    {
                        "address": "0x11801ca8a1873e16ec0f11758eb642e7ced2d8ec",
                        "amount": "1",
                        "iconUrl": "",
                        "isERC1155": false,
                        "isERC721": true,
                        "sign": true,
                        "tokenID": "9626",
                        "value": ""
                    }
                ]
            }
        ]
    },
    "profile": {
        "basic_info": {
            "baseFee": "15.490165143",
            "blockNumber": 15118418,
            "callData": "0xa0712d680000000000000000000000000000000000000000000000000000000000000014",
            "debugEnable": true,
            "errorInfo": "",
            "eventCount": 20,
            "feeRecipient": "0x2a20380dca5bc24d052acfbf79ba23e988ad0050",
            "formatValue": "0",
            "gasLimit": 187481,
            "gasPrice": "19.490165143",
            "gasUsed": 142031,
            "intTxnCount": 0,
            "internalRevert": false,
            "internalRevertMessage": "",
            "isContractCreation": false,
            "isFlashloan": false,
            "maxFee": "150",
            "nonce": 8,
            "overwritedBlockNumber": -1,
            "priorityFee": "4",
            "receiver": "0x11801ca8a1873e16ec0f11758eb642e7ced2d8ec",
            "revertMessage": "",
            "sender": "0xa632aa397d0bdb51aa542d7ddc1f33085b3b15ed",
            "simulationEnable": true,
            "sourceTxnHash": "0x1c8ee69cfba3fe73b9c0af201eff5a2715b56824d6f74afbe0c9790fb7654466",
            "status": true,
            "timestamp": "2022-07-11T01:35:13Z",
            "transactionFee": "0.002768207645425433",
            "txnHash": "0x1c8ee69cfba3fe73b9c0af201eff5a2715b56824d6f74afbe0c9790fb7654466",
            "txnIndex": 6,
            "type": 2,
            "value": "0"
        },
        "fund_flow": [
            {
                "amount": "1",
                "from": "0x0000000000000000000000000000000000000000",
                "id": 1,
                "isERC1155": false,
                "isERC721": true,
                "isReverted": false,
                "order": 1,
                "to": "0xa632aa397d0bdb51aa542d7ddc1f33085b3b15ed",
                "token": "0x11801ca8a1873e16ec0f11758eb642e7ced2d8ec",
                "tokenID": "9610"
            },
            {
                "amount": "1",
                "from": "0x0000000000000000000000000000000000000000",
                "id": 2,
                "isERC1155": false,
                "isERC721": true,
                "isReverted": false,
                "order": 2,
                "to": "0xa632aa397d0bdb51aa542d7ddc1f33085b3b15ed",
                "token": "0x11801ca8a1873e16ec0f11758eb642e7ced2d8ec",
                "tokenID": "9611"
            },
            {
                "amount": "1",
                "from": "0x0000000000000000000000000000000000000000",
                "id": 3,
                "isERC1155": false,
                "isERC721": true,
                "isReverted": false,
                "order": 3,
                "to": "0xa632aa397d0bdb51aa542d7ddc1f33085b3b15ed",
                "token": "0x11801ca8a1873e16ec0f11758eb642e7ced2d8ec",
                "tokenID": "9612"
            },
            {
                "amount": "1",
                "from": "0x0000000000000000000000000000000000000000",
                "id": 4,
                "isERC1155": false,
                "isERC721": true,
                "isReverted": false,
                "order": 4,
                "to": "0xa632aa397d0bdb51aa542d7ddc1f33085b3b15ed",
                "token": "0x11801ca8a1873e16ec0f11758eb642e7ced2d8ec",
                "tokenID": "9613"
            },
            {
                "amount": "1",
                "from": "0x0000000000000000000000000000000000000000",
                "id": 5,
                "isERC1155": false,
                "isERC721": true,
                "isReverted": false,
                "order": 5,
                "to": "0xa632aa397d0bdb51aa542d7ddc1f33085b3b15ed",
                "token": "0x11801ca8a1873e16ec0f11758eb642e7ced2d8ec",
                "tokenID": "9614"
            },
            {
                "amount": "1",
                "from": "0x0000000000000000000000000000000000000000",
                "id": 6,
                "isERC1155": false,
                "isERC721": true,
                "isReverted": false,
                "order": 6,
                "to": "0xa632aa397d0bdb51aa542d7ddc1f33085b3b15ed",
                "token": "0x11801ca8a1873e16ec0f11758eb642e7ced2d8ec",
                "tokenID": "9615"
            },
            {
                "amount": "1",
                "from": "0x0000000000000000000000000000000000000000",
                "id": 7,
                "isERC1155": false,
                "isERC721": true,
                "isReverted": false,
                "order": 7,
                "to": "0xa632aa397d0bdb51aa542d7ddc1f33085b3b15ed",
                "token": "0x11801ca8a1873e16ec0f11758eb642e7ced2d8ec",
                "tokenID": "9616"
            },
            {
                "amount": "1",
                "from": "0x0000000000000000000000000000000000000000",
                "id": 8,
                "isERC1155": false,
                "isERC721": true,
                "isReverted": false,
                "order": 8,
                "to": "0xa632aa397d0bdb51aa542d7ddc1f33085b3b15ed",
                "token": "0x11801ca8a1873e16ec0f11758eb642e7ced2d8ec",
                "tokenID": "9617"
            },
            {
                "amount": "1",
                "from": "0x0000000000000000000000000000000000000000",
                "id": 9,
                "isERC1155": false,
                "isERC721": true,
                "isReverted": false,
                "order": 9,
                "to": "0xa632aa397d0bdb51aa542d7ddc1f33085b3b15ed",
                "token": "0x11801ca8a1873e16ec0f11758eb642e7ced2d8ec",
                "tokenID": "9618"
            },
            {
                "amount": "1",
                "from": "0x0000000000000000000000000000000000000000",
                "id": 10,
                "isERC1155": false,
                "isERC721": true,
                "isReverted": false,
                "order": 10,
                "to": "0xa632aa397d0bdb51aa542d7ddc1f33085b3b15ed",
                "token": "0x11801ca8a1873e16ec0f11758eb642e7ced2d8ec",
                "tokenID": "9619"
            },
            {
                "amount": "1",
                "from": "0x0000000000000000000000000000000000000000",
                "id": 11,
                "isERC1155": false,
                "isERC721": true,
                "isReverted": false,
                "order": 11,
                "to": "0xa632aa397d0bdb51aa542d7ddc1f33085b3b15ed",
                "token": "0x11801ca8a1873e16ec0f11758eb642e7ced2d8ec",
                "tokenID": "9620"
            },
            {
                "amount": "1",
                "from": "0x0000000000000000000000000000000000000000",
                "id": 12,
                "isERC1155": false,
                "isERC721": true,
                "isReverted": false,
                "order": 12,
                "to": "0xa632aa397d0bdb51aa542d7ddc1f33085b3b15ed",
                "token": "0x11801ca8a1873e16ec0f11758eb642e7ced2d8ec",
                "tokenID": "9621"
            },
            {
                "amount": "1",
                "from": "0x0000000000000000000000000000000000000000",
                "id": 13,
                "isERC1155": false,
                "isERC721": true,
                "isReverted": false,
                "order": 13,
                "to": "0xa632aa397d0bdb51aa542d7ddc1f33085b3b15ed",
                "token": "0x11801ca8a1873e16ec0f11758eb642e7ced2d8ec",
                "tokenID": "9622"
            },
            {
                "amount": "1",
                "from": "0x0000000000000000000000000000000000000000",
                "id": 14,
                "isERC1155": false,
                "isERC721": true,
                "isReverted": false,
                "order": 14,
                "to": "0xa632aa397d0bdb51aa542d7ddc1f33085b3b15ed",
                "token": "0x11801ca8a1873e16ec0f11758eb642e7ced2d8ec",
                "tokenID": "9623"
            },
            {
                "amount": "1",
                "from": "0x0000000000000000000000000000000000000000",
                "id": 15,
                "isERC1155": false,
                "isERC721": true,
                "isReverted": false,
                "order": 15,
                "to": "0xa632aa397d0bdb51aa542d7ddc1f33085b3b15ed",
                "token": "0x11801ca8a1873e16ec0f11758eb642e7ced2d8ec",
                "tokenID": "9624"
            },
            {
                "amount": "1",
                "from": "0x0000000000000000000000000000000000000000",
                "id": 16,
                "isERC1155": false,
                "isERC721": true,
                "isReverted": false,
                "order": 16,
                "to": "0xa632aa397d0bdb51aa542d7ddc1f33085b3b15ed",
                "token": "0x11801ca8a1873e16ec0f11758eb642e7ced2d8ec",
                "tokenID": "9625"
            },
            {
                "amount": "1",
                "from": "0x0000000000000000000000000000000000000000",
                "id": 17,
                "isERC1155": false,
                "isERC721": true,
                "isReverted": false,
                "order": 17,
                "to": "0xa632aa397d0bdb51aa542d7ddc1f33085b3b15ed",
                "token": "0x11801ca8a1873e16ec0f11758eb642e7ced2d8ec",
                "tokenID": "9626"
            },
            {
                "amount": "1",
                "from": "0x0000000000000000000000000000000000000000",
                "id": 18,
                "isERC1155": false,
                "isERC721": true,
                "isReverted": false,
                "order": 18,
                "to": "0xa632aa397d0bdb51aa542d7ddc1f33085b3b15ed",
                "token": "0x11801ca8a1873e16ec0f11758eb642e7ced2d8ec",
                "tokenID": "9627"
            },
            {
                "amount": "1",
                "from": "0x0000000000000000000000000000000000000000",
                "id": 19,
                "isERC1155": false,
                "isERC721": true,
                "isReverted": false,
                "order": 19,
                "to": "0xa632aa397d0bdb51aa542d7ddc1f33085b3b15ed",
                "token": "0x11801ca8a1873e16ec0f11758eb642e7ced2d8ec",
                "tokenID": "9628"
            },
            {
                "amount": "1",
                "from": "0x0000000000000000000000000000000000000000",
                "id": 20,
                "isERC1155": false,
                "isERC721": true,
                "isReverted": false,
                "order": 20,
                "to": "0xa632aa397d0bdb51aa542d7ddc1f33085b3b15ed",
                "token": "0x11801ca8a1873e16ec0f11758eb642e7ced2d8ec",
                "tokenID": "9629"
            }
        ],
        "token_infos": [
            {
                "address": "0xeeeeeeeeeeeeeeeeeeeeeeeeeeeeeeeeeeeeeeee",
                "decimals": 18
            },
            {
                "address": "0xc02aaa39b223fe8d0a0e5c4f27ead9083c756cc2",
                "decimals": 18
            }
        ]
    },
    "address_label": {
        "labels": [
            {
                "address": "0x0000000000000000000000000000000000000001",
                "label": "Precompiled"
            },
            {
                "address": "0x0000000000000000000000000000000000000002",
                "label": "Precompiled"
            },
            {
                "address": "0x0000000000000000000000000000000000000003",
                "label": "Precompiled"
            },
            {
                "address": "0x0000000000000000000000000000000000000004",
                "label": "Precompiled"
            },
            {
                "address": "0xeeeeeeeeeeeeeeeeeeeeeeeeeeeeeeeeeeeeeeee",
                "label": "Ether"
            },
            {
                "address": "0x11801ca8a1873e16ec0f11758eb642e7ced2d8ec",
                "label": "Kicktoons"
            }
        ]
    },
    "trace": {
        "accountLabels": null,
        "dataMap": {
            "-1": {
                "invocation": {
                    "address": "0xa632aa397d0bdb51aa542d7ddc1f33085b3b15ed",
                    "callData": "",
                    "decodedMethod": null,
                    "errorInfo": "",
                    "fromAddress": "",
                    "gasUsed": 0,
                    "id": -1,
                    "methodDecoded": false,
                    "operation": "",
                    "output": "",
                    "revert": false,
                    "revertMessage": "",
                    "selector": "",
                    "status": false,
                    "value": ""
                },
                "nodeType": 0
            },
            "0": {
                "invocation": {
                    "address": "0x11801ca8a1873e16ec0f11758eb642e7ced2d8ec",
                    "callData": "0x0000000000000000000000000000000000000000000000000000000000000014",
                    "decodedMethod": {
                        "callParams": [
                            {
                                "name": "qty",
                                "type": "uint256",
                                "value": "20"
                            }
                        ],
                        "constructorArguments": "",
                        "name": "mint",
                        "returnParams": [],
                        "signature": "mint(uint256)"
                    },
                    "errorInfo": "",
                    "fromAddress": "0xa632aa397d0bdb51aa542d7ddc1f33085b3b15ed",
                    "gasUsed": 142031,
                    "id": 0,
                    "methodDecoded": true,
                    "operation": "CALL",
                    "output": "",
                    "revert": false,
                    "revertMessage": "",
                    "selector": "0xa0712d68",
                    "status": true,
                    "value": "0"
                },
                "nodeType": 0
            },
            "1": {
                "event": {
                    "contract": "0x11801ca8a1873e16ec0f11758eb642e7ced2d8ec",
                    "decodedLog": {
                        "name": "Transfer",
                        "params": [
                            {
                                "name": "from",
                                "type": "address",
                                "value": "0x0000000000000000000000000000000000000000"
                            },
                            {
                                "name": "to",
                                "type": "address",
                                "value": "0xa632aa397d0bdb51aa542d7ddc1f33085b3b15ed"
                            },
                            {
                                "decimalAvailable": true,
                                "name": "tokenId",
                                "type": "uint256",
                                "value": "9,610"
                            }
                        ],
                        "signature": "Transfer(address,address,uint256)"
                    },
                    "id": 1,
                    "logData": "0x",
                    "logDecoded": true,
                    "operation": "EVENT",
                    "revert": false,
                    "status": true,
                    "topics": [
                        "0xddf252ad1be2c89b69c2b068fc378daa952ba7f163c4a11628f55a4df523b3ef",
                        "0x0000000000000000000000000000000000000000000000000000000000000000",
                        "0x000000000000000000000000a632aa397d0bdb51aa542d7ddc1f33085b3b15ed",
                        "0x000000000000000000000000000000000000000000000000000000000000258a"
                    ]
                },
                "nodeType": 1
            },
            "10": {
                "event": {
                    "contract": "0x11801ca8a1873e16ec0f11758eb642e7ced2d8ec",
                    "decodedLog": {
                        "name": "Transfer",
                        "params": [
                            {
                                "name": "from",
                                "type": "address",
                                "value": "0x0000000000000000000000000000000000000000"
                            },
                            {
                                "name": "to",
                                "type": "address",
                                "value": "0xa632aa397d0bdb51aa542d7ddc1f33085b3b15ed"
                            },
                            {
                                "decimalAvailable": true,
                                "name": "tokenId",
                                "type": "uint256",
                                "value": "9,619"
                            }
                        ],
                        "signature": "Transfer(address,address,uint256)"
                    },
                    "id": 10,
                    "logData": "0x",
                    "logDecoded": true,
                    "operation": "EVENT",
                    "revert": false,
                    "status": true,
                    "topics": [
                        "0xddf252ad1be2c89b69c2b068fc378daa952ba7f163c4a11628f55a4df523b3ef",
                        "0x0000000000000000000000000000000000000000000000000000000000000000",
                        "0x000000000000000000000000a632aa397d0bdb51aa542d7ddc1f33085b3b15ed",
                        "0x0000000000000000000000000000000000000000000000000000000000002593"
                    ]
                },
                "nodeType": 1
            },
            "11": {
                "event": {
                    "contract": "0x11801ca8a1873e16ec0f11758eb642e7ced2d8ec",
                    "decodedLog": {
                        "name": "Transfer",
                        "params": [
                            {
                                "name": "from",
                                "type": "address",
                                "value": "0x0000000000000000000000000000000000000000"
                            },
                            {
                                "name": "to",
                                "type": "address",
                                "value": "0xa632aa397d0bdb51aa542d7ddc1f33085b3b15ed"
                            },
                            {
                                "decimalAvailable": true,
                                "name": "tokenId",
                                "type": "uint256",
                                "value": "9,620"
                            }
                        ],
                        "signature": "Transfer(address,address,uint256)"
                    },
                    "id": 11,
                    "logData": "0x",
                    "logDecoded": true,
                    "operation": "EVENT",
                    "revert": false,
                    "status": true,
                    "topics": [
                        "0xddf252ad1be2c89b69c2b068fc378daa952ba7f163c4a11628f55a4df523b3ef",
                        "0x0000000000000000000000000000000000000000000000000000000000000000",
                        "0x000000000000000000000000a632aa397d0bdb51aa542d7ddc1f33085b3b15ed",
                        "0x0000000000000000000000000000000000000000000000000000000000002594"
                    ]
                },
                "nodeType": 1
            },
            "12": {
                "event": {
                    "contract": "0x11801ca8a1873e16ec0f11758eb642e7ced2d8ec",
                    "decodedLog": {
                        "name": "Transfer",
                        "params": [
                            {
                                "name": "from",
                                "type": "address",
                                "value": "0x0000000000000000000000000000000000000000"
                            },
                            {
                                "name": "to",
                                "type": "address",
                                "value": "0xa632aa397d0bdb51aa542d7ddc1f33085b3b15ed"
                            },
                            {
                                "decimalAvailable": true,
                                "name": "tokenId",
                                "type": "uint256",
                                "value": "9,621"
                            }
                        ],
                        "signature": "Transfer(address,address,uint256)"
                    },
                    "id": 12,
                    "logData": "0x",
                    "logDecoded": true,
                    "operation": "EVENT",
                    "revert": false,
                    "status": true,
                    "topics": [
                        "0xddf252ad1be2c89b69c2b068fc378daa952ba7f163c4a11628f55a4df523b3ef",
                        "0x0000000000000000000000000000000000000000000000000000000000000000",
                        "0x000000000000000000000000a632aa397d0bdb51aa542d7ddc1f33085b3b15ed",
                        "0x0000000000000000000000000000000000000000000000000000000000002595"
                    ]
                },
                "nodeType": 1
            },
            "13": {
                "event": {
                    "contract": "0x11801ca8a1873e16ec0f11758eb642e7ced2d8ec",
                    "decodedLog": {
                        "name": "Transfer",
                        "params": [
                            {
                                "name": "from",
                                "type": "address",
                                "value": "0x0000000000000000000000000000000000000000"
                            },
                            {
                                "name": "to",
                                "type": "address",
                                "value": "0xa632aa397d0bdb51aa542d7ddc1f33085b3b15ed"
                            },
                            {
                                "decimalAvailable": true,
                                "name": "tokenId",
                                "type": "uint256",
                                "value": "9,622"
                            }
                        ],
                        "signature": "Transfer(address,address,uint256)"
                    },
                    "id": 13,
                    "logData": "0x",
                    "logDecoded": true,
                    "operation": "EVENT",
                    "revert": false,
                    "status": true,
                    "topics": [
                        "0xddf252ad1be2c89b69c2b068fc378daa952ba7f163c4a11628f55a4df523b3ef",
                        "0x0000000000000000000000000000000000000000000000000000000000000000",
                        "0x000000000000000000000000a632aa397d0bdb51aa542d7ddc1f33085b3b15ed",
                        "0x0000000000000000000000000000000000000000000000000000000000002596"
                    ]
                },
                "nodeType": 1
            },
            "14": {
                "event": {
                    "contract": "0x11801ca8a1873e16ec0f11758eb642e7ced2d8ec",
                    "decodedLog": {
                        "name": "Transfer",
                        "params": [
                            {
                                "name": "from",
                                "type": "address",
                                "value": "0x0000000000000000000000000000000000000000"
                            },
                            {
                                "name": "to",
                                "type": "address",
                                "value": "0xa632aa397d0bdb51aa542d7ddc1f33085b3b15ed"
                            },
                            {
                                "decimalAvailable": true,
                                "name": "tokenId",
                                "type": "uint256",
                                "value": "9,623"
                            }
                        ],
                        "signature": "Transfer(address,address,uint256)"
                    },
                    "id": 14,
                    "logData": "0x",
                    "logDecoded": true,
                    "operation": "EVENT",
                    "revert": false,
                    "status": true,
                    "topics": [
                        "0xddf252ad1be2c89b69c2b068fc378daa952ba7f163c4a11628f55a4df523b3ef",
                        "0x0000000000000000000000000000000000000000000000000000000000000000",
                        "0x000000000000000000000000a632aa397d0bdb51aa542d7ddc1f33085b3b15ed",
                        "0x0000000000000000000000000000000000000000000000000000000000002597"
                    ]
                },
                "nodeType": 1
            },
            "15": {
                "event": {
                    "contract": "0x11801ca8a1873e16ec0f11758eb642e7ced2d8ec",
                    "decodedLog": {
                        "name": "Transfer",
                        "params": [
                            {
                                "name": "from",
                                "type": "address",
                                "value": "0x0000000000000000000000000000000000000000"
                            },
                            {
                                "name": "to",
                                "type": "address",
                                "value": "0xa632aa397d0bdb51aa542d7ddc1f33085b3b15ed"
                            },
                            {
                                "decimalAvailable": true,
                                "name": "tokenId",
                                "type": "uint256",
                                "value": "9,624"
                            }
                        ],
                        "signature": "Transfer(address,address,uint256)"
                    },
                    "id": 15,
                    "logData": "0x",
                    "logDecoded": true,
                    "operation": "EVENT",
                    "revert": false,
                    "status": true,
                    "topics": [
                        "0xddf252ad1be2c89b69c2b068fc378daa952ba7f163c4a11628f55a4df523b3ef",
                        "0x0000000000000000000000000000000000000000000000000000000000000000",
                        "0x000000000000000000000000a632aa397d0bdb51aa542d7ddc1f33085b3b15ed",
                        "0x0000000000000000000000000000000000000000000000000000000000002598"
                    ]
                },
                "nodeType": 1
            },
            "16": {
                "event": {
                    "contract": "0x11801ca8a1873e16ec0f11758eb642e7ced2d8ec",
                    "decodedLog": {
                        "name": "Transfer",
                        "params": [
                            {
                                "name": "from",
                                "type": "address",
                                "value": "0x0000000000000000000000000000000000000000"
                            },
                            {
                                "name": "to",
                                "type": "address",
                                "value": "0xa632aa397d0bdb51aa542d7ddc1f33085b3b15ed"
                            },
                            {
                                "decimalAvailable": true,
                                "name": "tokenId",
                                "type": "uint256",
                                "value": "9,625"
                            }
                        ],
                        "signature": "Transfer(address,address,uint256)"
                    },
                    "id": 16,
                    "logData": "0x",
                    "logDecoded": true,
                    "operation": "EVENT",
                    "revert": false,
                    "status": true,
                    "topics": [
                        "0xddf252ad1be2c89b69c2b068fc378daa952ba7f163c4a11628f55a4df523b3ef",
                        "0x0000000000000000000000000000000000000000000000000000000000000000",
                        "0x000000000000000000000000a632aa397d0bdb51aa542d7ddc1f33085b3b15ed",
                        "0x0000000000000000000000000000000000000000000000000000000000002599"
                    ]
                },
                "nodeType": 1
            },
            "17": {
                "event": {
                    "contract": "0x11801ca8a1873e16ec0f11758eb642e7ced2d8ec",
                    "decodedLog": {
                        "name": "Transfer",
                        "params": [
                            {
                                "name": "from",
                                "type": "address",
                                "value": "0x0000000000000000000000000000000000000000"
                            },
                            {
                                "name": "to",
                                "type": "address",
                                "value": "0xa632aa397d0bdb51aa542d7ddc1f33085b3b15ed"
                            },
                            {
                                "decimalAvailable": true,
                                "name": "tokenId",
                                "type": "uint256",
                                "value": "9,626"
                            }
                        ],
                        "signature": "Transfer(address,address,uint256)"
                    },
                    "id": 17,
                    "logData": "0x",
                    "logDecoded": true,
                    "operation": "EVENT",
                    "revert": false,
                    "status": true,
                    "topics": [
                        "0xddf252ad1be2c89b69c2b068fc378daa952ba7f163c4a11628f55a4df523b3ef",
                        "0x0000000000000000000000000000000000000000000000000000000000000000",
                        "0x000000000000000000000000a632aa397d0bdb51aa542d7ddc1f33085b3b15ed",
                        "0x000000000000000000000000000000000000000000000000000000000000259a"
                    ]
                },
                "nodeType": 1
            },
            "18": {
                "event": {
                    "contract": "0x11801ca8a1873e16ec0f11758eb642e7ced2d8ec",
                    "decodedLog": {
                        "name": "Transfer",
                        "params": [
                            {
                                "name": "from",
                                "type": "address",
                                "value": "0x0000000000000000000000000000000000000000"
                            },
                            {
                                "name": "to",
                                "type": "address",
                                "value": "0xa632aa397d0bdb51aa542d7ddc1f33085b3b15ed"
                            },
                            {
                                "decimalAvailable": true,
                                "name": "tokenId",
                                "type": "uint256",
                                "value": "9,627"
                            }
                        ],
                        "signature": "Transfer(address,address,uint256)"
                    },
                    "id": 18,
                    "logData": "0x",
                    "logDecoded": true,
                    "operation": "EVENT",
                    "revert": false,
                    "status": true,
                    "topics": [
                        "0xddf252ad1be2c89b69c2b068fc378daa952ba7f163c4a11628f55a4df523b3ef",
                        "0x0000000000000000000000000000000000000000000000000000000000000000",
                        "0x000000000000000000000000a632aa397d0bdb51aa542d7ddc1f33085b3b15ed",
                        "0x000000000000000000000000000000000000000000000000000000000000259b"
                    ]
                },
                "nodeType": 1
            },
            "19": {
                "event": {
                    "contract": "0x11801ca8a1873e16ec0f11758eb642e7ced2d8ec",
                    "decodedLog": {
                        "name": "Transfer",
                        "params": [
                            {
                                "name": "from",
                                "type": "address",
                                "value": "0x0000000000000000000000000000000000000000"
                            },
                            {
                                "name": "to",
                                "type": "address",
                                "value": "0xa632aa397d0bdb51aa542d7ddc1f33085b3b15ed"
                            },
                            {
                                "decimalAvailable": true,
                                "name": "tokenId",
                                "type": "uint256",
                                "value": "9,628"
                            }
                        ],
                        "signature": "Transfer(address,address,uint256)"
                    },
                    "id": 19,
                    "logData": "0x",
                    "logDecoded": true,
                    "operation": "EVENT",
                    "revert": false,
                    "status": true,
                    "topics": [
                        "0xddf252ad1be2c89b69c2b068fc378daa952ba7f163c4a11628f55a4df523b3ef",
                        "0x0000000000000000000000000000000000000000000000000000000000000000",
                        "0x000000000000000000000000a632aa397d0bdb51aa542d7ddc1f33085b3b15ed",
                        "0x000000000000000000000000000000000000000000000000000000000000259c"
                    ]
                },
                "nodeType": 1
            },
            "2": {
                "event": {
                    "contract": "0x11801ca8a1873e16ec0f11758eb642e7ced2d8ec",
                    "decodedLog": {
                        "name": "Transfer",
                        "params": [
                            {
                                "name": "from",
                                "type": "address",
                                "value": "0x0000000000000000000000000000000000000000"
                            },
                            {
                                "name": "to",
                                "type": "address",
                                "value": "0xa632aa397d0bdb51aa542d7ddc1f33085b3b15ed"
                            },
                            {
                                "decimalAvailable": true,
                                "name": "tokenId",
                                "type": "uint256",
                                "value": "9,611"
                            }
                        ],
                        "signature": "Transfer(address,address,uint256)"
                    },
                    "id": 2,
                    "logData": "0x",
                    "logDecoded": true,
                    "operation": "EVENT",
                    "revert": false,
                    "status": true,
                    "topics": [
                        "0xddf252ad1be2c89b69c2b068fc378daa952ba7f163c4a11628f55a4df523b3ef",
                        "0x0000000000000000000000000000000000000000000000000000000000000000",
                        "0x000000000000000000000000a632aa397d0bdb51aa542d7ddc1f33085b3b15ed",
                        "0x000000000000000000000000000000000000000000000000000000000000258b"
                    ]
                },
                "nodeType": 1
            },
            "20": {
                "event": {
                    "contract": "0x11801ca8a1873e16ec0f11758eb642e7ced2d8ec",
                    "decodedLog": {
                        "name": "Transfer",
                        "params": [
                            {
                                "name": "from",
                                "type": "address",
                                "value": "0x0000000000000000000000000000000000000000"
                            },
                            {
                                "name": "to",
                                "type": "address",
                                "value": "0xa632aa397d0bdb51aa542d7ddc1f33085b3b15ed"
                            },
                            {
                                "decimalAvailable": true,
                                "name": "tokenId",
                                "type": "uint256",
                                "value": "9,629"
                            }
                        ],
                        "signature": "Transfer(address,address,uint256)"
                    },
                    "id": 20,
                    "logData": "0x",
                    "logDecoded": true,
                    "operation": "EVENT",
                    "revert": false,
                    "status": true,
                    "topics": [
                        "0xddf252ad1be2c89b69c2b068fc378daa952ba7f163c4a11628f55a4df523b3ef",
                        "0x0000000000000000000000000000000000000000000000000000000000000000",
                        "0x000000000000000000000000a632aa397d0bdb51aa542d7ddc1f33085b3b15ed",
                        "0x000000000000000000000000000000000000000000000000000000000000259d"
                    ]
                },
                "nodeType": 1
            },
            "3": {
                "event": {
                    "contract": "0x11801ca8a1873e16ec0f11758eb642e7ced2d8ec",
                    "decodedLog": {
                        "name": "Transfer",
                        "params": [
                            {
                                "name": "from",
                                "type": "address",
                                "value": "0x0000000000000000000000000000000000000000"
                            },
                            {
                                "name": "to",
                                "type": "address",
                                "value": "0xa632aa397d0bdb51aa542d7ddc1f33085b3b15ed"
                            },
                            {
                                "decimalAvailable": true,
                                "name": "tokenId",
                                "type": "uint256",
                                "value": "9,612"
                            }
                        ],
                        "signature": "Transfer(address,address,uint256)"
                    },
                    "id": 3,
                    "logData": "0x",
                    "logDecoded": true,
                    "operation": "EVENT",
                    "revert": false,
                    "status": true,
                    "topics": [
                        "0xddf252ad1be2c89b69c2b068fc378daa952ba7f163c4a11628f55a4df523b3ef",
                        "0x0000000000000000000000000000000000000000000000000000000000000000",
                        "0x000000000000000000000000a632aa397d0bdb51aa542d7ddc1f33085b3b15ed",
                        "0x000000000000000000000000000000000000000000000000000000000000258c"
                    ]
                },
                "nodeType": 1
            },
            "4": {
                "event": {
                    "contract": "0x11801ca8a1873e16ec0f11758eb642e7ced2d8ec",
                    "decodedLog": {
                        "name": "Transfer",
                        "params": [
                            {
                                "name": "from",
                                "type": "address",
                                "value": "0x0000000000000000000000000000000000000000"
                            },
                            {
                                "name": "to",
                                "type": "address",
                                "value": "0xa632aa397d0bdb51aa542d7ddc1f33085b3b15ed"
                            },
                            {
                                "decimalAvailable": true,
                                "name": "tokenId",
                                "type": "uint256",
                                "value": "9,613"
                            }
                        ],
                        "signature": "Transfer(address,address,uint256)"
                    },
                    "id": 4,
                    "logData": "0x",
                    "logDecoded": true,
                    "operation": "EVENT",
                    "revert": false,
                    "status": true,
                    "topics": [
                        "0xddf252ad1be2c89b69c2b068fc378daa952ba7f163c4a11628f55a4df523b3ef",
                        "0x0000000000000000000000000000000000000000000000000000000000000000",
                        "0x000000000000000000000000a632aa397d0bdb51aa542d7ddc1f33085b3b15ed",
                        "0x000000000000000000000000000000000000000000000000000000000000258d"
                    ]
                },
                "nodeType": 1
            },
            "5": {
                "event": {
                    "contract": "0x11801ca8a1873e16ec0f11758eb642e7ced2d8ec",
                    "decodedLog": {
                        "name": "Transfer",
                        "params": [
                            {
                                "name": "from",
                                "type": "address",
                                "value": "0x0000000000000000000000000000000000000000"
                            },
                            {
                                "name": "to",
                                "type": "address",
                                "value": "0xa632aa397d0bdb51aa542d7ddc1f33085b3b15ed"
                            },
                            {
                                "decimalAvailable": true,
                                "name": "tokenId",
                                "type": "uint256",
                                "value": "9,614"
                            }
                        ],
                        "signature": "Transfer(address,address,uint256)"
                    },
                    "id": 5,
                    "logData": "0x",
                    "logDecoded": true,
                    "operation": "EVENT",
                    "revert": false,
                    "status": true,
                    "topics": [
                        "0xddf252ad1be2c89b69c2b068fc378daa952ba7f163c4a11628f55a4df523b3ef",
                        "0x0000000000000000000000000000000000000000000000000000000000000000",
                        "0x000000000000000000000000a632aa397d0bdb51aa542d7ddc1f33085b3b15ed",
                        "0x000000000000000000000000000000000000000000000000000000000000258e"
                    ]
                },
                "nodeType": 1
            },
            "6": {
                "event": {
                    "contract": "0x11801ca8a1873e16ec0f11758eb642e7ced2d8ec",
                    "decodedLog": {
                        "name": "Transfer",
                        "params": [
                            {
                                "name": "from",
                                "type": "address",
                                "value": "0x0000000000000000000000000000000000000000"
                            },
                            {
                                "name": "to",
                                "type": "address",
                                "value": "0xa632aa397d0bdb51aa542d7ddc1f33085b3b15ed"
                            },
                            {
                                "decimalAvailable": true,
                                "name": "tokenId",
                                "type": "uint256",
                                "value": "9,615"
                            }
                        ],
                        "signature": "Transfer(address,address,uint256)"
                    },
                    "id": 6,
                    "logData": "0x",
                    "logDecoded": true,
                    "operation": "EVENT",
                    "revert": false,
                    "status": true,
                    "topics": [
                        "0xddf252ad1be2c89b69c2b068fc378daa952ba7f163c4a11628f55a4df523b3ef",
                        "0x0000000000000000000000000000000000000000000000000000000000000000",
                        "0x000000000000000000000000a632aa397d0bdb51aa542d7ddc1f33085b3b15ed",
                        "0x000000000000000000000000000000000000000000000000000000000000258f"
                    ]
                },
                "nodeType": 1
            },
            "7": {
                "event": {
                    "contract": "0x11801ca8a1873e16ec0f11758eb642e7ced2d8ec",
                    "decodedLog": {
                        "name": "Transfer",
                        "params": [
                            {
                                "name": "from",
                                "type": "address",
                                "value": "0x0000000000000000000000000000000000000000"
                            },
                            {
                                "name": "to",
                                "type": "address",
                                "value": "0xa632aa397d0bdb51aa542d7ddc1f33085b3b15ed"
                            },
                            {
                                "decimalAvailable": true,
                                "name": "tokenId",
                                "type": "uint256",
                                "value": "9,616"
                            }
                        ],
                        "signature": "Transfer(address,address,uint256)"
                    },
                    "id": 7,
                    "logData": "0x",
                    "logDecoded": true,
                    "operation": "EVENT",
                    "revert": false,
                    "status": true,
                    "topics": [
                        "0xddf252ad1be2c89b69c2b068fc378daa952ba7f163c4a11628f55a4df523b3ef",
                        "0x0000000000000000000000000000000000000000000000000000000000000000",
                        "0x000000000000000000000000a632aa397d0bdb51aa542d7ddc1f33085b3b15ed",
                        "0x0000000000000000000000000000000000000000000000000000000000002590"
                    ]
                },
                "nodeType": 1
            },
            "8": {
                "event": {
                    "contract": "0x11801ca8a1873e16ec0f11758eb642e7ced2d8ec",
                    "decodedLog": {
                        "name": "Transfer",
                        "params": [
                            {
                                "name": "from",
                                "type": "address",
                                "value": "0x0000000000000000000000000000000000000000"
                            },
                            {
                                "name": "to",
                                "type": "address",
                                "value": "0xa632aa397d0bdb51aa542d7ddc1f33085b3b15ed"
                            },
                            {
                                "decimalAvailable": true,
                                "name": "tokenId",
                                "type": "uint256",
                                "value": "9,617"
                            }
                        ],
                        "signature": "Transfer(address,address,uint256)"
                    },
                    "id": 8,
                    "logData": "0x",
                    "logDecoded": true,
                    "operation": "EVENT",
                    "revert": false,
                    "status": true,
                    "topics": [
                        "0xddf252ad1be2c89b69c2b068fc378daa952ba7f163c4a11628f55a4df523b3ef",
                        "0x0000000000000000000000000000000000000000000000000000000000000000",
                        "0x000000000000000000000000a632aa397d0bdb51aa542d7ddc1f33085b3b15ed",
                        "0x0000000000000000000000000000000000000000000000000000000000002591"
                    ]
                },
                "nodeType": 1
            },
            "9": {
                "event": {
                    "contract": "0x11801ca8a1873e16ec0f11758eb642e7ced2d8ec",
                    "decodedLog": {
                        "name": "Transfer",
                        "params": [
                            {
                                "name": "from",
                                "type": "address",
                                "value": "0x0000000000000000000000000000000000000000"
                            },
                            {
                                "name": "to",
                                "type": "address",
                                "value": "0xa632aa397d0bdb51aa542d7ddc1f33085b3b15ed"
                            },
                            {
                                "decimalAvailable": true,
                                "name": "tokenId",
                                "type": "uint256",
                                "value": "9,618"
                            }
                        ],
                        "signature": "Transfer(address,address,uint256)"
                    },
                    "id": 9,
                    "logData": "0x",
                    "logDecoded": true,
                    "operation": "EVENT",
                    "revert": false,
                    "status": true,
                    "topics": [
                        "0xddf252ad1be2c89b69c2b068fc378daa952ba7f163c4a11628f55a4df523b3ef",
                        "0x0000000000000000000000000000000000000000000000000000000000000000",
                        "0x000000000000000000000000a632aa397d0bdb51aa542d7ddc1f33085b3b15ed",
                        "0x0000000000000000000000000000000000000000000000000000000000002592"
                    ]
                },
                "nodeType": 1
            }
        },
        "gasFlame": [
            {
                "children": [
                    {
                        "children": [
                            {
                                "children": [],
                                "depth": 0,
                                "name": "Initial Gas",
                                "value": 21204
                            },
                            {
                                "children": [],
                                "depth": 0,
                                "name": "Executed Gas",
                                "value": 120827
                            }
                        ],
                        "depth": -1,
                        "name": "Actual Gas Used",
                        "value": 142031
                    },
                    {
                        "children": [],
                        "depth": -1,
                        "name": "Refunded Gas",
                        "value": 0
                    }
                ],
                "depth": -2,
                "name": "Total Gas",
                "value": 142031
            }
        ],
        "isConfirmed": true,
        "mainTrace": [
            {
                "children": [
                    {
                        "children": [
                            {
                                "children": [],
                                "depth": 1,
                                "id": 1,
                                "order": 1
                            },
                            {
                                "children": [],
                                "depth": 1,
                                "id": 2,
                                "order": 2
                            },
                            {
                                "children": [],
                                "depth": 1,
                                "id": 3,
                                "order": 3
                            },
                            {
                                "children": [],
                                "depth": 1,
                                "id": 4,
                                "order": 4
                            },
                            {
                                "children": [],
                                "depth": 1,
                                "id": 5,
                                "order": 5
                            },
                            {
                                "children": [],
                                "depth": 1,
                                "id": 6,
                                "order": 6
                            },
                            {
                                "children": [],
                                "depth": 1,
                                "id": 7,
                                "order": 7
                            },
                            {
                                "children": [],
                                "depth": 1,
                                "id": 8,
                                "order": 8
                            },
                            {
                                "children": [],
                                "depth": 1,
                                "id": 9,
                                "order": 9
                            },
                            {
                                "children": [],
                                "depth": 1,
                                "id": 10,
                                "order": 10
                            },
                            {
                                "children": [],
                                "depth": 1,
                                "id": 11,
                                "order": 11
                            },
                            {
                                "children": [],
                                "depth": 1,
                                "id": 12,
                                "order": 12
                            },
                            {
                                "children": [],
                                "depth": 1,
                                "id": 13,
                                "order": 13
                            },
                            {
                                "children": [],
                                "depth": 1,
                                "id": 14,
                                "order": 14
                            },
                            {
                                "children": [],
                                "depth": 1,
                                "id": 15,
                                "order": 15
                            },
                            {
                                "children": [],
                                "depth": 1,
                                "id": 16,
                                "order": 16
                            },
                            {
                                "children": [],
                                "depth": 1,
                                "id": 17,
                                "order": 17
                            },
                            {
                                "children": [],
                                "depth": 1,
                                "id": 18,
                                "order": 18
                            },
                            {
                                "children": [],
                                "depth": 1,
                                "id": 19,
                                "order": 19
                            },
                            {
                                "children": [],
                                "depth": 1,
                                "id": 20,
                                "order": 20
                            }
                        ],
                        "depth": 0,
                        "id": 0,
                        "order": 0
                    }
                ],
                "depth": -1,
                "id": -1,
                "order": -1
            }
        ],
        "mainTraceNodeCount": 21,
        "parentIdMap": {
            "0": -1,
            "1": 0,
            "10": 0,
            "11": 0,
            "12": 0,
            "13": 0,
            "14": 0,
            "15": 0,
            "16": 0,
            "17": 0,
            "18": 0,
            "19": 0,
            "2": 0,
            "20": 0,
            "3": 0,
            "4": 0,
            "5": 0,
            "6": 0,
            "7": 0,
            "8": 0,
            "9": 0
        },
        "tidyTrace": [
            {
                "children": [
                    {
                        "children": [
                            {
                                "children": [],
                                "depth": 1,
                                "id": 1,
                                "order": 1
                            },
                            {
                                "children": [],
                                "depth": 1,
                                "id": 2,
                                "order": 2
                            },
                            {
                                "children": [],
                                "depth": 1,
                                "id": 3,
                                "order": 3
                            },
                            {
                                "children": [],
                                "depth": 1,
                                "id": 4,
                                "order": 4
                            },
                            {
                                "children": [],
                                "depth": 1,
                                "id": 5,
                                "order": 5
                            },
                            {
                                "children": [],
                                "depth": 1,
                                "id": 6,
                                "order": 6
                            },
                            {
                                "children": [],
                                "depth": 1,
                                "id": 7,
                                "order": 7
                            },
                            {
                                "children": [],
                                "depth": 1,
                                "id": 8,
                                "order": 8
                            },
                            {
                                "children": [],
                                "depth": 1,
                                "id": 9,
                                "order": 9
                            },
                            {
                                "children": [],
                                "depth": 1,
                                "id": 10,
                                "order": 10
                            },
                            {
                                "children": [],
                                "depth": 1,
                                "id": 11,
                                "order": 11
                            },
                            {
                                "children": [],
                                "depth": 1,
                                "id": 12,
                                "order": 12
                            },
                            {
                                "children": [],
                                "depth": 1,
                                "id": 13,
                                "order": 13
                            },
                            {
                                "children": [],
                                "depth": 1,
                                "id": 14,
                                "order": 14
                            },
                            {
                                "children": [],
                                "depth": 1,
                                "id": 15,
                                "order": 15
                            },
                            {
                                "children": [],
                                "depth": 1,
                                "id": 16,
                                "order": 16
                            },
                            {
                                "children": [],
                                "depth": 1,
                                "id": 17,
                                "order": 17
                            },
                            {
                                "children": [],
                                "depth": 1,
                                "id": 18,
                                "order": 18
                            },
                            {
                                "children": [],
                                "depth": 1,
                                "id": 19,
                                "order": 19
                            },
                            {
                                "children": [],
                                "depth": 1,
                                "id": 20,
                                "order": 20
                            }
                        ],
                        "depth": 0,
                        "id": 0,
                        "order": 0
                    }
                ],
                "depth": -1,
                "id": -1,
                "order": -1
            }
        ],
        "tidyTraceNodeCount": 21
    },
    "state_change": {
        "stateChanges": [
            {
                "address": "0x11801ca8a1873e16ec0f11758eb642e7ced2d8ec",
                "erc": "ERC-721",
                "slots": [
                    {
                        "current": "0x000000000000000000000000000000000000000000000000000000000000259e",
                        "key": "0x0000000000000000000000000000000000000000000000000000000000000000",
                        "prev": "0x000000000000000000000000000000000000000000000000000000000000258a"
                    },
                    {
                        "current": "0x0000000000000000000000000000000000000000000000000000000000000014",
                        "key": "0x97b74b67cc234fa5208ce1148c9bd1d871c9281d51771d72609c902129471d3d",
                        "prev": "0x0000000000000000000000000000000000000000000000000000000000000000"
                    },
                    {
                        "current": "0x0000000000000000000000000000000000000000000000140000000000000014",
                        "key": "0xf62e25555066518cdcc11c6b65b1eaae230bdc11d9cff6b2ddc49f46fd1b7940",
                        "prev": "0x0000000000000000000000000000000000000000000000000000000000000000"
                    },
                    {
                        "current": "0x000000000000000062cb7e51a632aa397d0bdb51aa542d7ddc1f33085b3b15ed",
                        "key": "0x52abaeef5688021e3aba0d3f0a0fefa38cefa80646e76efaff856c98e1a3c7a5",
                        "prev": "0x0000000000000000000000000000000000000000000000000000000000000000"
                    }
                ],
                "storageVariables": [
                    {
                        "name": "_ownerships",
                        "type": "mapping(uint256 => struct ERC721A.TokenOwnership)",
                        "value": {
                            "pairs": [
                                {
                                    "key": "9610",
                                    "value": {
                                        "fields": [
                                            {
                                                "name": "addr",
                                                "type": "address",
                                                "value": {
                                                    "current": "0xa632aa397d0bdb51aa542d7ddc1f33085b3b15ed",
                                                    "prev": "0x0000000000000000000000000000000000000000",
                                                    "typeTag": 1
                                                }
                                            },
                                            {
                                                "name": "startTimestamp",
                                                "type": "uint64",
                                                "value": {
                                                    "current": "1657503313",
                                                    "prev": "0",
                                                    "typeTag": 1
                                                }
                                            },
                                            {
                                                "name": "burned",
                                                "type": "bool",
                                                "value": {
                                                    "current": "false",
                                                    "prev": "false",
                                                    "typeTag": 1
                                                }
                                            }
                                        ],
                                        "typeTag": 3
                                    }
                                }
                            ],
                            "typeTag": 4
                        }
                    },
                    {
                        "name": "_currentIndex",
                        "type": "uint256",
                        "value": {
                            "current": "9630",
                            "prev": "9610",
                            "typeTag": 1
                        }
                    },
                    {
                        "name": "addressMintBalance",
                        "type": "mapping(address => uint256)",
                        "value": {
                            "pairs": [
                                {
                                    "key": "0xa632aa397d0bdb51aa542d7ddc1f33085b3b15ed",
                                    "value": {
                                        "current": "20",
                                        "prev": "0",
                                        "typeTag": 1
                                    }
                                }
                            ],
                            "typeTag": 4
                        }
                    },
                    {
                        "name": "_addressData",
                        "type": "mapping(address => struct ERC721A.AddressData)",
                        "value": {
                            "pairs": [
                                {
                                    "key": "0xa632aa397d0bdb51aa542d7ddc1f33085b3b15ed",
                                    "value": {
                                        "fields": [
                                            {
                                                "name": "balance",
                                                "type": "uint64",
                                                "value": {
                                                    "current": "20",
                                                    "prev": "0",
                                                    "typeTag": 1
                                                }
                                            },
                                            {
                                                "name": "numberMinted",
                                                "type": "uint64",
                                                "value": {
                                                    "current": "20",
                                                    "prev": "0",
                                                    "typeTag": 1
                                                }
                                            },
                                            {
                                                "name": "numberBurned",
                                                "type": "uint64",
                                                "value": {
                                                    "current": "0",
                                                    "prev": "0",
                                                    "typeTag": 1
                                                }
                                            },
                                            {
                                                "name": "aux",
                                                "type": "uint64",
                                                "value": {
                                                    "current": "0",
                                                    "prev": "0",
                                                    "typeTag": 1
                                                }
                                            }
                                        ],
                                        "typeTag": 3
                                    }
                                }
                            ],
                            "typeTag": 4
                        }
                    }
                ]
            }
        ]
    }
}