{
    "balance_change": {
        "balanceChanges": [
            {
                "account": "0x2e46956565cebdcbbb39ecd22af02e1916a2fe37",
                "assets": [
                    {
                        "address": "0x744d70fdbe2ba4cf95131626614a1763df805b9e",
                        "amount": "10,000",
                        "iconUrl": "https://assets.blocksec.com/icon/122cbce3f18317d2e72ada02bb0ad90b741b42246dc91c7b27b8eb5443557bd4.png",
                        "isERC1155": false,
                        "isERC721": false,
                        "sign": false,
                        "value": ""
                    }
                ]
            },
            {
                "account": "0x2ec49725460cf74a432d5595a5c4075d39dc549d",
                "assets": [
                    {
                        "address": "0x744d70fdbe2ba4cf95131626614a1763df805b9e",
                        "amount": "10,000",
                        "iconUrl": "https://assets.blocksec.com/icon/122cbce3f18317d2e72ada02bb0ad90b741b42246dc91c7b27b8eb5443557bd4.png",
                        "isERC1155": false,
                        "isERC721": false,
                        "sign": true,
                        "value": ""
                    }
                ]
            }
        ]
    },
    "profile": {
        "basic_info": {
            "baseFee": "",
            "blockNumber": 4578726,
            "callData": "0xa9059cbb0000000000000000000000002ec49725460cf74a432d5595a5c4075d39dc549d00000000000000000000000000000000000000000000021e19e0c9bab2400000",
            "debugEnable": true,
            "errorInfo": "",
            "eventCount": 1,
            "feeRecipient": "0x829bd824b016326a401d083b33d092293333a830",
            "formatValue": "0",
            "gasLimit": 300000,
            "gasPrice": "30",
            "gasUsed": 103563,
            "intTxnCount": 1,
            "internalRevert": false,
            "internalRevertMessage": "",
            "isContractCreation": false,
            "isFlashloan": false,
            "maxFee": "",
            "nonce": 4425,
            "overwritedBlockNumber": -1,
            "priorityFee": "",
            "receiver": "0x744d70fdbe2ba4cf95131626614a1763df805b9e",
            "revertMessage": "",
            "sender": "0x2e46956565cebdcbbb39ecd22af02e1916a2fe37",
            "simulationEnable": true,
            "sourceTxnHash": "0x1c84d4a45398a2d143a773bb592b24298a1d9f2f7b9c2cd940f924165875e9ec",
            "status": true,
            "timestamp": "2017-11-18T23:32:20Z",
            "transactionFee": "0.00310689",
            "txnHash": "0x1c84d4a45398a2d143a773bb592b24298a1d9f2f7b9c2cd940f924165875e9ec",
            "txnIndex": 2,
            "type": 0,
            "value": "0"
        },
        "fund_flow": [
            {
                "amount": "10,000",
                "from": "0x2e46956565cebdcbbb39ecd22af02e1916a2fe37",
                "id": 1,
                "isERC1155": false,
                "isERC721": false,
                "isReverted": false,
                "order": 1,
                "to": "0x2ec49725460cf74a432d5595a5c4075d39dc549d",
                "token": "0x744d70fdbe2ba4cf95131626614a1763df805b9e"
            }
        ],
        "token_infos": [
            {
                "address": "0xc02aaa39b223fe8d0a0e5c4f27ead9083c756cc2",
                "decimals": 18
            },
            {
                "address": "0xeeeeeeeeeeeeeeeeeeeeeeeeeeeeeeeeeeeeeeee",
                "decimals": 18
            },
            {
                "address": "0x744d70fdbe2ba4cf95131626614a1763df805b9e",
                "decimals": 18
            }
        ]
    },
    "address_label": {
        "labels": [
            {
                "address": "0xeeeeeeeeeeeeeeeeeeeeeeeeeeeeeeeeeeeeeeee",
                "label": "Ether"
            },
            {
                "address": "0x52ae2b53c847327f95a5084a7c38c0adb12fd302",
                "label": "SNTPlaceHolder"
            },
            {
                "address": "0x744d70fdbe2ba4cf95131626614a1763df805b9e",
                "label": "Status Network: SNT Token"
            },
            {
                "address": "0x0000000000000000000000000000000000000001",
                "label": "Precompiled"
            },
            {
                "address": "0x0000000000000000000000000000000000000002",
                "label": "Precompiled"
            },
            {
                "address": "0x0000000000000000000000000000000000000003",
                "label": "Precompiled"
            },
            {
                "address": "0x0000000000000000000000000000000000000004",
                "label": "Precompiled"
            }
        ]
    },
    "trace": {
        "accountLabels": null,
        "dataMap": {
            "-1": {
                "invocation": {
                    "address": "0x2e46956565cebdcbbb39ecd22af02e1916a2fe37",
                    "callData": "",
                    "decodedMethod": null,
                    "errorInfo": "",
                    "fromAddress": "",
                    "gasUsed": 0,
                    "id": -1,
                    "methodDecoded": false,
                    "operation": "",
                    "output": "",
                    "revert": false,
                    "revertMessage": "",
                    "selector": "",
                    "status": false,
                    "value": ""
                },
                "nodeType": 0
            },
            "0": {
                "invocation": {
                    "address": "0x744d70fdbe2ba4cf95131626614a1763df805b9e",
                    "callData": "0x0000000000000000000000002ec49725460cf74a432d5595a5c4075d39dc549d00000000000000000000000000000000000000000000021e19e0c9bab2400000",
                    "decodedMethod": {
                        "callParams": [
                            {
                                "name": "_to",
                                "type": "address",
                                "value": "0x2ec49725460cf74a432d5595a5c4075d39dc549d"
                            },
                            {
                                "decimalAvailable": true,
                                "name": "_amount",
                                "type": "uint256",
                                "value": "10,000,000,000,000,000,000,000"
                            }
                        ],
                        "constructorArguments": "",
                        "name": "transfer",
                        "returnParams": [
                            {
                                "name": "success",
                                "type": "bool",
                                "value": true
                            }
                        ],
                        "signature": "transfer(address,uint256)"
                    },
                    "errorInfo": "",
                    "fromAddress": "0x2e46956565cebdcbbb39ecd22af02e1916a2fe37",
                    "gasUsed": 103563,
                    "id": 0,
                    "methodDecoded": true,
                    "operation": "CALL",
                    "output": "0x0000000000000000000000000000000000000000000000000000000000000001",
                    "revert": false,
                    "revertMessage": "",
                    "selector": "0xa9059cbb",
                    "status": true,
                    "value": "0"
                },
                "nodeType": 0
            },
            "1": {
                "invocation": {
                    "address": "0x52ae2b53c847327f95a5084a7c38c0adb12fd302",
                    "callData": "0x0000000000000000000000002e46956565cebdcbbb39ecd22af02e1916a2fe370000000000000000000000002ec49725460cf74a432d5595a5c4075d39dc549d00000000000000000000000000000000000000000000021e19e0c9bab2400000",
                    "decodedMethod": {
                        "callParams": [
                            {
                                "name": "_from",
                                "type": "address",
                                "value": "0x2e46956565cebdcbbb39ecd22af02e1916a2fe37"
                            },
                            {
                                "name": "",
                                "type": "address",
                                "value": "0x2ec49725460cf74a432d5595a5c4075d39dc549d"
                            },
                            {
                                "name": "",
                                "type": "uint256",
                                "value": "10,000,000,000,000,000,000,000"
                            }
                        ],
                        "constructorArguments": "",
                        "name": "onTransfer",
                        "returnParams": [
                            {
                                "name": "",
                                "type": "bool",
                                "value": true
                            }
                        ],
                        "signature": "onTransfer(address,address,uint256)"
                    },
                    "errorInfo": "",
                    "fromAddress": "0x744d70fdbe2ba4cf95131626614a1763df805b9e",
                    "gasUsed": 869,
                    "id": 1,
                    "methodDecoded": true,
                    "operation": "CALL",
                    "output": "0x0000000000000000000000000000000000000000000000000000000000000001",
                    "revert": false,
                    "revertMessage": "",
                    "selector": "0x4a393149",
                    "status": true,
                    "value": "0"
                },
                "nodeType": 0
            },
            "2": {
                "event": {
                    "contract": "0x744d70fdbe2ba4cf95131626614a1763df805b9e",
                    "decodedLog": {
                        "name": "Transfer",
                        "params": [
                            {
                                "name": "_from",
                                "type": "address",
                                "value": "0x2e46956565cebdcbbb39ecd22af02e1916a2fe37"
                            },
                            {
                                "name": "_to",
                                "type": "address",
                                "value": "0x2ec49725460cf74a432d5595a5c4075d39dc549d"
                            },
                            {
                                "decimalAvailable": true,
                                "name": "_amount",
                                "type": "uint256",
                                "value": "10,000,000,000,000,000,000,000"
                            }
                        ],
                        "signature": "Transfer(address,address,uint256)"
                    },
                    "id": 2,
                    "logData": "0x00000000000000000000000000000000000000000000021e19e0c9bab2400000",
                    "logDecoded": true,
                    "operation": "EVENT",
                    "revert": false,
                    "status": true,
                    "topics": [
                        "0xddf252ad1be2c89b69c2b068fc378daa952ba7f163c4a11628f55a4df523b3ef",
                        "0x0000000000000000000000002e46956565cebdcbbb39ecd22af02e1916a2fe37",
                        "0x0000000000000000000000002ec49725460cf74a432d5595a5c4075d39dc549d"
                    ]
                },
                "nodeType": 1
            }
        },
        "gasFlame": [
            {
                "children": [
                    {
                        "children": [
                            {
                                "children": [],
                                "depth": 0,
                                "name": "Initial Gas",
                                "value": 23320
                            },
                            {
                                "children": [
                                    {
                                        "children": [],
                                        "depth": 1,
                                        "name": "onTransfer",
                                        "value": 869
                                    }
                                ],
                                "depth": 0,
                                "name": "Executed Gas",
                                "value": 80243
                            }
                        ],
                        "depth": -1,
                        "name": "Actual Gas Used",
                        "value": 103563
                    },
                    {
                        "children": [],
                        "depth": -1,
                        "name": "Refunded Gas",
                        "value": 0
                    }
                ],
                "depth": -2,
                "name": "Total Gas",
                "value": 103563
            }
        ],
        "isConfirmed": true,
        "mainTrace": [
            {
                "children": [
                    {
                        "children": [
                            {
                                "children": [],
                                "depth": 1,
                                "id": 1,
                                "order": 1
                            },
                            {
                                "children": [],
                                "depth": 1,
                                "id": 2,
                                "order": 2
                            }
                        ],
                        "depth": 0,
                        "id": 0,
                        "order": 0
                    }
                ],
                "depth": -1,
                "id": -1,
                "order": -1
            }
        ],
        "mainTraceNodeCount": 3,
        "parentIdMap": {
            "0": -1,
            "1": 0,
            "2": 0
        },
        "tidyTrace": [
            {
                "children": [
                    {
                        "children": [
                            {
                                "children": [],
                                "depth": 1,
                                "id": 1,
                                "order": 1
                            },
                            {
                                "children": [],
                                "depth": 1,
                                "id": 2,
                                "order": 2
                            }
                        ],
                        "depth": 0,
                        "id": 0,
                        "order": 0
                    }
                ],
                "depth": -1,
                "id": -1,
                "order": -1
            }
        ],
        "tidyTraceNodeCount": 3
    },
    "state_change": {
        "stateChanges": [
            {
                "address": "0x744d70fdbe2ba4cf95131626614a1763df805b9e",
                "erc": "ERC-20",
                "slots": [
                    {
                        "current": "0x0000000000000000000000000000000000000000000000000000000000001ac2",
                        "key": "0x8e1969dd8bb87cc4b43a21a3bca06e021e45c00b32d01e919002b06ca2b30c3b",
                        "prev": "0x0000000000000000000000000000000000000000000000000000000000001ac1"
                    },
                    {
                        "current": "0x00000000000089cafc613735739fd6710000000000000000000000000045dda6",
                        "key": "0x45e52f8ffd047c510d35b7f1d930dd598ee89f8e44306201b686d6c93b1f539e",
                        "prev": "0x0000000000000000000000000000000000000000000000000000000000000000"
                    },
                    {
                        "current": "0x0000000000000000000000000000000000000000000000000000000000000001",
                        "key": "0x2cba101843ab7681bcd31d0f19411d86aa6edc4036604899e48bc5708d0c262e",
                        "prev": "0x0000000000000000000000000000000000000000000000000000000000000000"
                    },
                    {
                        "current": "0x000000000000021e19e0c9bab24000000000000000000000000000000045dda6",
                        "key": "0x699f77bdb2666c4ea528149db19784b5de2bcab147b11615df2f00d3374baf72",
                        "prev": "0x0000000000000000000000000000000000000000000000000000000000000000"
                    }
                ],
                "storageVariables": []
            }
        ]
    }
}