{
    "balance_change": {
        "balanceChanges": [
            {
                "account": "0x3c02290922a3618a4646e3bbca65853ea45fe7c6",
                "assets": [
                    {
                        "address": "0x6982508145454ce325ddbe47a25d4ec3d2311933",
                        "amount": "2,317,205,586",
                        "iconUrl": "https://assets.blocksec.com/icon/99f1a626358e559d9a9d6dc4254c663e595a9ebcd362efa2d4cd902a8d75ea2c.png",
                        "isERC1155": false,
                        "isERC721": false,
                        "sign": false,
                        "value": ""
                    }
                ]
            },
            {
                "account": "0xfed2399b20011af1fc985d5354f12cbc57ed48f9",
                "assets": [
                    {
                        "address": "0x6982508145454ce325ddbe47a25d4ec3d2311933",
                        "amount": "2,317,205,586",
                        "iconUrl": "https://assets.blocksec.com/icon/99f1a626358e559d9a9d6dc4254c663e595a9ebcd362efa2d4cd902a8d75ea2c.png",
                        "isERC1155": false,
                        "isERC721": false,
                        "sign": true,
                        "value": ""
                    }
                ]
            }
        ]
    },
    "profile": {
        "basic_info": {
            "baseFee": "8.826335738",
            "blockNumber": 20126525,
            "callData": "0xa9059cbb000000000000000000000000fed2399b20011af1fc985d5354f12cbc57ed48f90000000000000000000000000000000000000000077cbf5e8597216a9e080000",
            "debugEnable": true,
            "errorInfo": "",
            "eventCount": 1,
            "feeRecipient": "0x1f9090aae28b8a3dceadf281b0f12828e676c326",
            "formatValue": "0",
            "gasLimit": 260000,
            "gasPrice": "11.826335738",
            "gasUsed": 43386,
            "intTxnCount": 0,
            "internalRevert": false,
            "internalRevertMessage": "",
            "isContractCreation": false,
            "isFlashloan": false,
            "maxFee": "28",
            "nonce": 725941,
            "overwritedBlockNumber": -1,
            "priorityFee": "3",
            "receiver": "0x6982508145454ce325ddbe47a25d4ec3d2311933",
            "revertMessage": "",
            "sender": "0x3c02290922a3618a4646e3bbca65853ea45fe7c6",
            "simulationEnable": true,
            "sourceTxnHash": "0x1c1f3fc888fb6d2ac9ebab85f3ed50eceba6cef6c3887cea3b83532154487580",
            "status": true,
            "timestamp": "2024-06-19T14:57:23Z",
            "transactionFee": "0.000513097402328868",
            "txnHash": "0x1c1f3fc888fb6d2ac9ebab85f3ed50eceba6cef6c3887cea3b83532154487580",
            "txnIndex": 41,
            "type": 2,
            "value": "0"
        },
        "fund_flow": [
            {
                "amount": "2,317,205,586",
                "from": "0x3c02290922a3618a4646e3bbca65853ea45fe7c6",
                "id": 1,
                "isERC1155": false,
                "isERC721": false,
                "isReverted": false,
                "order": 1,
                "to": "0xfed2399b20011af1fc985d5354f12cbc57ed48f9",
                "token": "0x6982508145454ce325ddbe47a25d4ec3d2311933"
            }
        ],
        "token_infos": [
            {
                "address": "0x6982508145454ce325ddbe47a25d4ec3d2311933",
                "decimals": 18
            },
            {
                "address": "0xc02aaa39b223fe8d0a0e5c4f27ead9083c756cc2",
                "decimals": 18
            },
            {
                "address": "0xeeeeeeeeeeeeeeeeeeeeeeeeeeeeeeeeeeeeeeee",
                "decimals": 18
            }
        ]
    },
    "address_label": {
        "labels": [
            {
                "address": "0x0000000000000000000000000000000000000004",
                "label": "Precompiled"
            },
            {
                "address": "0xeeeeeeeeeeeeeeeeeeeeeeeeeeeeeeeeeeeeeeee",
                "label": "Ether"
            },
            {
                "address": "0x3c02290922a3618a4646e3bbca65853ea45fe7c6",
                "label": "Indodax 5"
            },
            {
                "address": "0x6982508145454ce325ddbe47a25d4ec3d2311933",
                "label": "Pepe: PEPE Token"
            },
            {
                "address": "0x0000000000000000000000000000000000000001",
                "label": "Precompiled"
            },
            {
                "address": "0x0000000000000000000000000000000000000002",
                "label": "Precompiled"
            },
            {
                "address": "0x0000000000000000000000000000000000000003",
                "label": "Precompiled"
            }
        ]
    },
    "trace": {
        "accountLabels": null,
        "dataMap": {
            "-1": {
                "invocation": {
                    "address": "0x3c02290922a3618a4646e3bbca65853ea45fe7c6",
                    "callData": "",
                    "decodedMethod": null,
                    "errorInfo": "",
                    "fromAddress": "",
                    "gasUsed": 0,
                    "id": -1,
                    "methodDecoded": false,
                    "operation": "",
                    "output": "",
                    "revert": false,
                    "revertMessage": "",
                    "selector": "",
                    "status": false,
                    "value": ""
                },
                "nodeType": 0
            },
            "0": {
                "invocation": {
                    "address": "0x6982508145454ce325ddbe47a25d4ec3d2311933",
                    "callData": "0x000000000000000000000000fed2399b20011af1fc985d5354f12cbc57ed48f90000000000000000000000000000000000000000077cbf5e8597216a9e080000",
                    "decodedMethod": {
                        "callParams": [
                            {
                                "name": "recipient",
                                "type": "address",
                                "value": "0xfed2399b20011af1fc985d5354f12cbc57ed48f9"
                            },
                            {
                                "decimalAvailable": true,
                                "name": "amount",
                                "type": "uint256",
                                "value": "2,317,205,586,000,000,000,000,000,000"
                            }
                        ],
                        "constructorArguments": "",
                        "name": "transfer",
                        "returnParams": [
                            {
                                "name": "",
                                "type": "bool",
                                "value": true
                            }
                        ],
                        "signature": "transfer(address,uint256)"
                    },
                    "errorInfo": "",
                    "fromAddress": "0x3c02290922a3618a4646e3bbca65853ea45fe7c6",
                    "gasUsed": 43386,
                    "id": 0,
                    "methodDecoded": true,
                    "operation": "CALL",
                    "output": "0x0000000000000000000000000000000000000000000000000000000000000001",
                    "revert": false,
                    "revertMessage": "",
                    "selector": "0xa9059cbb",
                    "status": true,
                    "value": "0"
                },
                "nodeType": 0
            },
            "1": {
                "event": {
                    "contract": "0x6982508145454ce325ddbe47a25d4ec3d2311933",
                    "decodedLog": {
                        "name": "Transfer",
                        "params": [
                            {
                                "name": "from",
                                "type": "address",
                                "value": "0x3c02290922a3618a4646e3bbca65853ea45fe7c6"
                            },
                            {
                                "name": "to",
                                "type": "address",
                                "value": "0xfed2399b20011af1fc985d5354f12cbc57ed48f9"
                            },
                            {
                                "decimalAvailable": true,
                                "name": "value",
                                "type": "uint256",
                                "value": "2,317,205,586,000,000,000,000,000,000"
                            }
                        ],
                        "signature": "Transfer(address,address,uint256)"
                    },
                    "id": 1,
                    "logData": "0x0000000000000000000000000000000000000000077cbf5e8597216a9e080000",
                    "logDecoded": true,
                    "operation": "EVENT",
                    "revert": false,
                    "status": true,
                    "topics": [
                        "0xddf252ad1be2c89b69c2b068fc378daa952ba7f163c4a11628f55a4df523b3ef",
                        "0x0000000000000000000000003c02290922a3618a4646e3bbca65853ea45fe7c6",
                        "0x000000000000000000000000fed2399b20011af1fc985d5354f12cbc57ed48f9"
                    ]
                },
                "nodeType": 1
            }
        },
        "gasFlame": [
            {
                "children": [
                    {
                        "children": [
                            {
                                "children": [],
                                "depth": 0,
                                "name": "Initial Gas",
                                "value": 21680
                            },
                            {
                                "children": [],
                                "depth": 0,
                                "name": "Executed Gas",
                                "value": 21706
                            }
                        ],
                        "depth": -1,
                        "name": "Actual Gas Used",
                        "value": 43386
                    },
                    {
                        "children": [],
                        "depth": -1,
                        "name": "Refunded Gas",
                        "value": 0
                    }
                ],
                "depth": -2,
                "name": "Total Gas",
                "value": 43386
            }
        ],
        "isConfirmed": true,
        "mainTrace": [
            {
                "children": [
                    {
                        "children": [
                            {
                                "children": [],
                                "depth": 1,
                                "id": 1,
                                "order": 1
                            }
                        ],
                        "depth": 0,
                        "id": 0,
                        "order": 0
                    }
                ],
                "depth": -1,
                "id": -1,
                "order": -1
            }
        ],
        "mainTraceNodeCount": 2,
        "parentIdMap": {
            "0": -1,
            "1": 0
        },
        "tidyTrace": [
            {
                "children": [
                    {
                        "children": [
                            {
                                "children": [],
                                "depth": 1,
                                "id": 1,
                                "order": 1
                            }
                        ],
                        "depth": 0,
                        "id": 0,
                        "order": 0
                    }
                ],
                "depth": -1,
                "id": -1,
                "order": -1
            }
        ],
        "tidyTraceNodeCount": 2
    },
    "state_change": {
        "stateChanges": [
            {
                "address": "0x6982508145454ce325ddbe47a25d4ec3d2311933",
                "erc": "ERC-20",
                "slots": [
                    {
                        "current": "0x0000000000000000000000000000000000000003208435e17407852415d96400",
                        "key": "0xee6816aebd1ef108c406d3e964fd5703c7d294df2edbb50a90ed6b5ce98897fb",
                        "prev": "0x00000000000000000000000000000000000000032800f53ff99ea68eb3e16400"
                    },
                    {
                        "current": "0x0000000000000000000000000000000000000000109be0df2b0cf1d505080000",
                        "key": "0xd50cd6cf58a15b2ea60f3eb12d12ee67f8339f04e3b4b60a021d6de5c1810c31",
                        "prev": "0x0000000000000000000000000000000000000000091f2180a575d06a67000000"
                    }
                ],
                "storageVariables": [
                    {
                        "name": "_balances",
                        "type": "mapping(address => uint256)",
                        "value": {
                            "pairs": [
                                {
                                    "key": "0x3c02290922a3618a4646e3bbca65853ea45fe7c6",
                                    "value": {
                                        "current": "247747840509566992330000000000",
                                        "prev": "250065046095566992330000000000",
                                        "typeTag": 1
                                    }
                                },
                                {
                                    "key": "0xfed2399b20011af1fc985d5354f12cbc57ed48f9",
                                    "value": {
                                        "current": "5140205586000000000000000000",
                                        "prev": "2823000000000000000000000000",
                                        "typeTag": 1
                                    }
                                }
                            ],
                            "typeTag": 4
                        }
                    }
                ]
            }
        ]
    }
}