{
    "balance_change": {
        "balanceChanges": []
    },
    "profile": {
        "basic_info": {
            "baseFee": "",
            "blockNumber": 2821453,
            "callData": "0x9960d94700000000000000000000000038bc64cb1f97d7a4b0a60de2d610198096d945980000000000000000000000000000000000000000000000000000000000000001",
            "debugEnable": true,
            "errorInfo": "",
            "eventCount": 0,
            "feeRecipient": "0x1a060b0604883a99809eb3f798df71bef6c358f1",
            "formatValue": "0",
            "gasLimit": 1000000,
            "gasPrice": "55",
            "gasUsed": 50565,
            "intTxnCount": 0,
            "internalRevert": false,
            "internalRevertMessage": "",
            "isContractCreation": false,
            "isFlashloan": false,
            "maxFee": "",
            "nonce": 2684,
            "overwritedBlockNumber": -1,
            "priorityFee": "",
            "receiver": "0x5e569e1ecd56fe30dd97ee233ec1675b60fb6680",
            "revertMessage": "",
            "sender": "0x7baf96ee63017cc63d7da8df51fb04d4c3a7ef7b",
            "simulationEnable": true,
            "sourceTxnHash": "0x1c4509dcc48b7ba18e46833920d9fadead25b5176587d32fe41c7c93a7b4c88e",
            "status": true,
            "timestamp": "2016-12-16T23:03:03Z",
            "transactionFee": "0.002781075",
            "txnHash": "0x1c4509dcc48b7ba18e46833920d9fadead25b5176587d32fe41c7c93a7b4c88e",
            "txnIndex": 0,
            "type": 0,
            "value": "0"
        },
        "fund_flow": [],
        "token_infos": [
            {
                "address": "0xeeeeeeeeeeeeeeeeeeeeeeeeeeeeeeeeeeeeeeee",
                "decimals": 18
            },
            {
                "address": "0xc02aaa39b223fe8d0a0e5c4f27ead9083c756cc2",
                "decimals": 18
            }
        ]
    },
    "address_label": {
        "labels": [
            {
                "address": "0xeeeeeeeeeeeeeeeeeeeeeeeeeeeeeeeeeeeeeeee",
                "label": "Ether"
            },
            {
                "address": "0x5e569e1ecd56fe30dd97ee233ec1675b60fb6680",
                "label": "ProjectKudos"
            },
            {
                "address": "0x0000000000000000000000000000000000000001",
                "label": "Precompiled"
            },
            {
                "address": "0x0000000000000000000000000000000000000002",
                "label": "Precompiled"
            },
            {
                "address": "0x0000000000000000000000000000000000000003",
                "label": "Precompiled"
            },
            {
                "address": "0x0000000000000000000000000000000000000004",
                "label": "Precompiled"
            }
        ]
    },
    "trace": {
        "accountLabels": null,
        "dataMap": {
            "-1": {
                "invocation": {
                    "address": "0x7baf96ee63017cc63d7da8df51fb04d4c3a7ef7b",
                    "callData": "",
                    "decodedMethod": null,
                    "errorInfo": "",
                    "fromAddress": "",
                    "gasUsed": 0,
                    "id": -1,
                    "methodDecoded": false,
                    "operation": "",
                    "output": "",
                    "revert": false,
                    "revertMessage": "",
                    "selector": "",
                    "status": false,
                    "value": ""
                },
                "nodeType": 0
            },
            "0": {
                "invocation": {
                    "address": "0x5e569e1ecd56fe30dd97ee233ec1675b60fb6680",
                    "callData": "0x00000000000000000000000038bc64cb1f97d7a4b0a60de2d610198096d945980000000000000000000000000000000000000000000000000000000000000001",
                    "decodedMethod": {
                        "callParams": [
                            {
                                "name": "userToGrant",
                                "type": "address",
                                "value": "0x38bc64cb1f97d7a4b0a60de2d610198096d94598"
                            },
                            {
                                "name": "reason",
                                "type": "uint256",
                                "value": "1"
                            }
                        ],
                        "constructorArguments": "",
                        "name": "grantKudos",
                        "returnParams": [],
                        "signature": "grantKudos(address,uint256)"
                    },
                    "errorInfo": "",
                    "fromAddress": "0x7baf96ee63017cc63d7da8df51fb04d4c3a7ef7b",
                    "gasUsed": 50565,
                    "id": 0,
                    "methodDecoded": true,
                    "operation": "CALL",
                    "output": "",
                    "revert": false,
                    "revertMessage": "",
                    "selector": "0x9960d947",
                    "status": true,
                    "value": "0"
                },
                "nodeType": 0
            }
        },
        "gasFlame": [
            {
                "children": [
                    {
                        "children": [
                            {
                                "children": [],
                                "depth": 0,
                                "name": "Initial Gas",
                                "value": 22872
                            },
                            {
                                "children": [],
                                "depth": 0,
                                "name": "Executed Gas",
                                "value": 27693
                            }
                        ],
                        "depth": -1,
                        "name": "Actual Gas Used",
                        "value": 50565
                    },
                    {
                        "children": [],
                        "depth": -1,
                        "name": "Refunded Gas",
                        "value": 0
                    }
                ],
                "depth": -2,
                "name": "Total Gas",
                "value": 50565
            }
        ],
        "isConfirmed": true,
        "mainTrace": [
            {
                "children": [
                    {
                        "children": [],
                        "depth": 0,
                        "id": 0,
                        "order": 0
                    }
                ],
                "depth": -1,
                "id": -1,
                "order": -1
            }
        ],
        "mainTraceNodeCount": 1,
        "parentIdMap": {
            "0": -1
        },
        "tidyTrace": [
            {
                "children": [
                    {
                        "children": [],
                        "depth": 0,
                        "id": 0,
                        "order": 0
                    }
                ],
                "depth": -1,
                "id": -1,
                "order": -1
            }
        ],
        "tidyTraceNodeCount": 1
    },
    "state_change": {
        "stateChanges": [
            {
                "address": "0x5e569e1ecd56fe30dd97ee233ec1675b60fb6680",
                "erc": "",
                "slots": [
                    {
                        "current": "0x00000000000000000000000000000000000000000000000000000000000000d2",
                        "key": "0x64bd6f6b14c70681d4572e8fce7ec11b16659feeedbfd4d0516736606820d46a",
                        "prev": "0x000000000000000000000000000000000000000000000000000000000000006e"
                    },
                    {
                        "current": "0x0000000000000000000000000000000000000000000000000000000000000001",
                        "key": "0x003aba19333f8e0af63e3a2269cb6bdd2ec7d18cca551bdc3afb63568b720d70",
                        "prev": "0x0000000000000000000000000000000000000000000000000000000000000000"
                    }
                ],
                "storageVariables": []
            }
        ]
    }
}