{
    "balance_change": {
        "balanceChanges": []
    },
    "profile": {
        "basic_info": {
            "baseFee": "",
            "blockNumber": 9627379,
            "callData": "0x4f9559b100000000000000000000000000000000000000000000000000000170b770c5b3",
            "debugEnable": true,
            "errorInfo": "",
            "eventCount": 1,
            "feeRecipient": "0x829bd824b016326a401d083b33d092293333a830",
            "formatValue": "0",
            "gasLimit": 41953,
            "gasPrice": "5",
            "gasUsed": 36272,
            "intTxnCount": 0,
            "internalRevert": false,
            "internalRevertMessage": "",
            "isContractCreation": false,
            "isFlashloan": false,
            "maxFee": "",
            "nonce": 161401,
            "overwritedBlockNumber": -1,
            "priorityFee": "",
            "receiver": "0x61935cbdd02287b511119ddb11aeb42f1593b7ef",
            "revertMessage": "",
            "sender": "0x998497ffc64240d6a70c38e544521d09dcd23293",
            "simulationEnable": true,
            "sourceTxnHash": "0x1cad34f265bbcd2521c0f0dc9ab8d4aae04cb58f38436881fcb58571d2de995e",
            "status": true,
            "timestamp": "2020-03-08T00:01:49Z",
            "transactionFee": "0.00018136",
            "txnHash": "0x1cad34f265bbcd2521c0f0dc9ab8d4aae04cb58f38436881fcb58571d2de995e",
            "txnIndex": 44,
            "type": 0,
            "value": "0"
        },
        "fund_flow": [],
        "token_infos": [
            {
                "address": "0xc02aaa39b223fe8d0a0e5c4f27ead9083c756cc2",
                "decimals": 18
            },
            {
                "address": "0xeeeeeeeeeeeeeeeeeeeeeeeeeeeeeeeeeeeeeeee",
                "decimals": 18
            }
        ]
    },
    "address_label": {
        "labels": [
            {
                "address": "0xeeeeeeeeeeeeeeeeeeeeeeeeeeeeeeeeeeeeeeee",
                "label": "Ether"
            },
            {
                "address": "0x61935cbdd02287b511119ddb11aeb42f1593b7ef",
                "label": "0x: Exchange v3"
            },
            {
                "address": "0x0000000000000000000000000000000000000001",
                "label": "Precompiled"
            },
            {
                "address": "0x0000000000000000000000000000000000000002",
                "label": "Precompiled"
            },
            {
                "address": "0x0000000000000000000000000000000000000003",
                "label": "Precompiled"
            },
            {
                "address": "0x0000000000000000000000000000000000000004",
                "label": "Precompiled"
            }
        ]
    },
    "trace": {
        "accountLabels": null,
        "dataMap": {
            "-1": {
                "invocation": {
                    "address": "0x998497ffc64240d6a70c38e544521d09dcd23293",
                    "callData": "",
                    "decodedMethod": null,
                    "errorInfo": "",
                    "fromAddress": "",
                    "gasUsed": 0,
                    "id": -1,
                    "methodDecoded": false,
                    "operation": "",
                    "output": "",
                    "revert": false,
                    "revertMessage": "",
                    "selector": "",
                    "status": false,
                    "value": ""
                },
                "nodeType": 0
            },
            "0": {
                "invocation": {
                    "address": "0x61935cbdd02287b511119ddb11aeb42f1593b7ef",
                    "callData": "0x00000000000000000000000000000000000000000000000000000170b770c5b3",
                    "decodedMethod": {
                        "callParams": [
                            {
                                "name": "targetOrderEpoch",
                                "type": "uint256",
                                "value": "1,583,625,586,099"
                            }
                        ],
                        "constructorArguments": "",
                        "name": "cancelOrdersUpTo",
                        "returnParams": [],
                        "signature": "cancelOrdersUpTo(uint256)"
                    },
                    "errorInfo": "",
                    "fromAddress": "0x998497ffc64240d6a70c38e544521d09dcd23293",
                    "gasUsed": 36272,
                    "id": 0,
                    "methodDecoded": true,
                    "operation": "CALL",
                    "output": "",
                    "revert": false,
                    "revertMessage": "",
                    "selector": "0x4f9559b1",
                    "status": true,
                    "value": "0"
                },
                "nodeType": 0
            },
            "1": {
                "event": {
                    "contract": "0x61935cbdd02287b511119ddb11aeb42f1593b7ef",
                    "decodedLog": {
                        "name": "CancelUpTo",
                        "params": [
                            {
                                "name": "makerAddress",
                                "type": "address",
                                "value": "0x998497ffc64240d6a70c38e544521d09dcd23293"
                            },
                            {
                                "name": "orderSenderAddress",
                                "type": "address",
                                "value": "0x0000000000000000000000000000000000000000"
                            },
                            {
                                "name": "orderEpoch",
                                "type": "uint256",
                                "value": "1,583,625,586,100"
                            }
                        ],
                        "signature": "CancelUpTo(address,address,uint256)"
                    },
                    "id": 1,
                    "logData": "0x00000000000000000000000000000000000000000000000000000170b770c5b4",
                    "logDecoded": true,
                    "operation": "EVENT",
                    "revert": false,
                    "status": true,
                    "topics": [
                        "0x82af639571738f4ebd4268fb0363d8957ebe1bbb9e78dba5ebd69eed39b154f0",
                        "0x000000000000000000000000998497ffc64240d6a70c38e544521d09dcd23293",
                        "0x0000000000000000000000000000000000000000000000000000000000000000"
                    ]
                },
                "nodeType": 1
            }
        },
        "gasFlame": [
            {
                "children": [
                    {
                        "children": [
                            {
                                "children": [],
                                "depth": 0,
                                "name": "Initial Gas",
                                "value": 21264
                            },
                            {
                                "children": [],
                                "depth": 0,
                                "name": "Executed Gas",
                                "value": 19208
                            }
                        ],
                        "depth": -1,
                        "name": "Actual Gas Used",
                        "value": 36272
                    },
                    {
                        "children": [],
                        "depth": -1,
                        "name": "Refunded Gas",
                        "value": 4200
                    }
                ],
                "depth": -2,
                "name": "Total Gas",
                "value": 40472
            }
        ],
        "isConfirmed": true,
        "mainTrace": [
            {
                "children": [
                    {
                        "children": [
                            {
                                "children": [],
                                "depth": 1,
                                "id": 1,
                                "order": 1
                            }
                        ],
                        "depth": 0,
                        "id": 0,
                        "order": 0
                    }
                ],
                "depth": -1,
                "id": -1,
                "order": -1
            }
        ],
        "mainTraceNodeCount": 2,
        "parentIdMap": {
            "0": -1,
            "1": 0
        },
        "tidyTrace": [
            {
                "children": [
                    {
                        "children": [
                            {
                                "children": [],
                                "depth": 1,
                                "id": 1,
                                "order": 1
                            }
                        ],
                        "depth": 0,
                        "id": 0,
                        "order": 0
                    }
                ],
                "depth": -1,
                "id": -1,
                "order": -1
            }
        ],
        "tidyTraceNodeCount": 2
    },
    "state_change": {
        "stateChanges": [
            {
                "address": "0x61935cbdd02287b511119ddb11aeb42f1593b7ef",
                "erc": "",
                "slots": [
                    {
                        "current": "0x00000000000000000000000000000000000000000000000000000170b770c5b4",
                        "key": "0x4e0446da0d1ac332c102760c07e7195b97ba03da4671d1015cf95127b7c1a471",
                        "prev": "0x00000000000000000000000000000000000000000000000000000170b770c5a0"
                    }
                ],
                "storageVariables": [
                    {
                        "name": "orderEpoch",
                        "type": "mapping(address => mapping(address => uint256))",
                        "value": {
                            "pairs": [
                                {
                                    "key": "0x998497ffc64240d6a70c38e544521d09dcd23293",
                                    "value": {
                                        "pairs": [
                                            {
                                                "key": "0x0000000000000000000000000000000000000000",
                                                "value": {
                                                    "current": "1583625586100",
                                                    "prev": "1583625586080",
                                                    "typeTag": 1
                                                }
                                            }
                                        ],
                                        "typeTag": 4
                                    }
                                }
                            ],
                            "typeTag": 4
                        }
                    }
                ]
            }
        ]
    }
}