{
    "balance_change": {
        "balanceChanges": [
            {
                "account": "0x4b798306763d6d89e5cb11e6e859462bf4e8062a",
                "assets": [
                    {
                        "address": "0xeeeeeeeeeeeeeeeeeeeeeeeeeeeeeeeeeeeeeeee",
                        "amount": "6.5",
                        "iconUrl": "https://assets.blocksec.com/image/1663669189317-3.png",
                        "isERC1155": false,
                        "isERC721": false,
                        "sign": false,
                        "value": "12156.8849999999997635"
                    },
                    {
                        "address": "0xbd3531da5cf5857e7cfaa92426877b022e612cf8",
                        "amount": "1",
                        "iconUrl": "https://assets.blocksec.com/nft/icon/nft_99cc3bfb-e114-4c2c-a0ba-8295bd540bc4.png",
                        "isERC1155": false,
                        "isERC721": true,
                        "sign": true,
                        "tokenID": "3298",
                        "value": ""
                    }
                ]
            },
            {
                "account": "0x04fa5c3869ded7d00f36f13597a2f46aee4c9220",
                "assets": [
                    {
                        "address": "0xeeeeeeeeeeeeeeeeeeeeeeeeeeeeeeeeeeeeeeee",
                        "amount": "6.4675",
                        "iconUrl": "https://assets.blocksec.com/image/1663669189317-3.png",
                        "isERC1155": false,
                        "isERC721": false,
                        "sign": true,
                        "value": "12096.100574999999765"
                    },
                    {
                        "address": "0xbd3531da5cf5857e7cfaa92426877b022e612cf8",
                        "amount": "1",
                        "iconUrl": "https://assets.blocksec.com/nft/icon/nft_99cc3bfb-e114-4c2c-a0ba-8295bd540bc4.png",
                        "isERC1155": false,
                        "isERC721": true,
                        "sign": false,
                        "tokenID": "3298",
                        "value": ""
                    }
                ]
            },
            {
                "account": "0x1afa64e9b8e3090f2001f66d9c9a74cde646738a",
                "assets": [
                    {
                        "address": "0xeeeeeeeeeeeeeeeeeeeeeeeeeeeeeeeeeeeeeeee",
                        "amount": "0.0325",
                        "iconUrl": "https://assets.blocksec.com/image/1663669189317-3.png",
                        "isERC1155": false,
                        "isERC721": false,
                        "sign": true,
                        "value": "60.784424999999998814"
                    }
                ]
            }
        ]
    },
    "profile": {
        "basic_info": {
            "baseFee": "36.984248671",
            "blockNumber": 17126998,
            "callData": "0x9a1fc3a7000000000000000000000000000000000000000000000000000000000000004000000000000000000000000000000000000000000000000000000000000003e000000000000000000000000000000000000000000000000000000000000000e0000000000000000000000000000000000000000000000000000000000000001cae24e23192fe06bf7bb24911018d6cfd6249057565386030f4d3ee6c7e9d889858749b56e7df13914ba9a65d529d8149e04df451accbff207b9656afa16b8af000000000000000000000000000000000000000000000000000000000000003200000000000000000000000000000000000000000000000000000000000000000000000000000000000000000000000000000000000000000000000000105565400000000000000000000000004fa5c3869ded7d00f36f13597a2f46aee4c922000000000000000000000000000000000000000000000000000000000000000010000000000000000000000000000000000dab4a563819e8fd93dba3b25bc3495000000000000000000000000bd3531da5cf5857e7cfaa92426877b022e612cf80000000000000000000000000000000000000000000000000000000000000ce2000000000000000000000000000000000000000000000000000000000000000100000000000000000000000000000000000000000000000000000000000000000000000000000000000000000000000000000000000000005a34a38fc00a00000000000000000000000000000000000000000000000000000000000064310f300000000000000000000000000000000000000000000000000000000064589c3000000000000000000000000000000000000000000000000000000000000001a000000000000000000000000000000000e748820bd10e95fcff4b55a8b69b92700000000000000000000000000000000000000000000000000000000000000200000000000000000000000000000000000000000000000000000000000000000100000000000000000000000000000000000000000000000000000000000000320000000000000000000000001afa64e9b8e3090f2001f66d9c9a74cde646738a000000000000000000000000000000000000000000000000000000000000000101000000000000000000000000000000000000000000000000000000000000000000000000000000000000000000000000000000000000000000000000000060000000000000000000000000000000000000000000000000000000000000001b53dfced6f582c3ca1c158b9d2386bd06ad6d4c0c4bab2b3e674a5ba2eeaab3c3265b60683667b4426403c66ee53a93beaa225fe919cdfba7c3962928226e713800000000000000000000000000000000000000000000000000000000000000e000000000000000000000000000000000000000000000000000000000000000000000000000000000000000000000000000000000000000000000000000000000000000000000000000000000000000000000000000000000000000000000000000000000000000000000000000000000000000000000000000000000000002e0000000000000000000000000000000000000000000000000000000000000000000000000000000000000000000000000000000000000000000000000010556540000000000000000000000004b798306763d6d89e5cb11e6e859462bf4e8062a00000000000000000000000000000000000000000000000000000000000000000000000000000000000000000000000000dab4a563819e8fd93dba3b25bc3495000000000000000000000000bd3531da5cf5857e7cfaa92426877b022e612cf80000000000000000000000000000000000000000000000000000000000000ce2000000000000000000000000000000000000000000000000000000000000000100000000000000000000000000000000000000000000000000000000000000000000000000000000000000000000000000000000000000005a34a38fc00a00000000000000000000000000000000000000000000000000000000000064310f3100000000000000000000000000000000000000000000000000000000644885ba00000000000000000000000000000000000000000000000000000000000001a00000000000000000000000000000000060d793b01d17e5820e2828e1caa90a5f00000000000000000000000000000000000000000000000000000000000001c00000000000000000000000000000000000000000000000000000000000000000000000000000000000000000000000000000000000000000000000000000000101000000000000000000000000000000000000000000000000000000000000000000000000000000000000000000000000000000000000000000000000000060000000000000000000000000000000000000000000000000000000000000001c25406998dc806bad39b7ae7ce70721c295ddf1054f118f03601590281ed154253a0e9e1614e36863bbe7219ff76f991a8b4b0607152a9f05a69f6fb7ff94dea0",
            "debugEnable": true,
            "errorInfo": "",
            "eventCount": 3,
            "feeRecipient": "0x690b9a9e9aa1c9db991c7721a92d351db4fac990",
            "formatValue": "6.5",
            "gasLimit": 446970,
            "gasPrice": "38.484248671",
            "gasUsed": 264769,
            "intTxnCount": 10,
            "internalRevert": false,
            "internalRevertMessage": "",
            "isContractCreation": false,
            "isFlashloan": false,
            "maxFee": "60.36791301",
            "nonce": 17,
            "overwritedBlockNumber": -1,
            "priorityFee": "1.5",
            "receiver": "0x000000000000ad05ccc4f10045630fb830b95127",
            "revertMessage": "",
            "sender": "0x4b798306763d6d89e5cb11e6e859462bf4e8062a",
            "simulationEnable": true,
            "sourceTxnHash": "0x1df8ca2817c843cf9ad6622703a3e635022ac0d6b7c6524a1f834185fa7a41ff",
            "status": true,
            "timestamp": "2023-04-26T01:00:47Z",
            "transactionFee": "0.010189436036371999",
            "txnHash": "0x1df8ca2817c843cf9ad6622703a3e635022ac0d6b7c6524a1f834185fa7a41ff",
            "txnIndex": 89,
            "type": 2,
            "value": "6500000000000000000"
        },
        "fund_flow": [
            {
                "amount": "6.5",
                "from": "0x4b798306763d6d89e5cb11e6e859462bf4e8062a",
                "id": 1,
                "isERC1155": false,
                "isERC721": false,
                "isReverted": false,
                "order": 1,
                "to": "0x000000000000ad05ccc4f10045630fb830b95127",
                "token": "0xeeeeeeeeeeeeeeeeeeeeeeeeeeeeeeeeeeeeeeee"
            },
            {
                "amount": "0.0325",
                "from": "0x000000000000ad05ccc4f10045630fb830b95127",
                "id": 2,
                "isERC1155": false,
                "isERC721": false,
                "isReverted": false,
                "order": 2,
                "to": "0x1afa64e9b8e3090f2001f66d9c9a74cde646738a",
                "token": "0xeeeeeeeeeeeeeeeeeeeeeeeeeeeeeeeeeeeeeeee"
            },
            {
                "amount": "6.4675",
                "from": "0x000000000000ad05ccc4f10045630fb830b95127",
                "id": 3,
                "isERC1155": false,
                "isERC721": false,
                "isReverted": false,
                "order": 3,
                "to": "0x04fa5c3869ded7d00f36f13597a2f46aee4c9220",
                "token": "0xeeeeeeeeeeeeeeeeeeeeeeeeeeeeeeeeeeeeeeee"
            },
            {
                "amount": "1",
                "from": "0x04fa5c3869ded7d00f36f13597a2f46aee4c9220",
                "id": 4,
                "isERC1155": false,
                "isERC721": true,
                "isReverted": false,
                "order": 4,
                "to": "0x4b798306763d6d89e5cb11e6e859462bf4e8062a",
                "token": "0xbd3531da5cf5857e7cfaa92426877b022e612cf8",
                "tokenID": "3298"
            }
        ],
        "token_infos": [
            {
                "address": "0xc02aaa39b223fe8d0a0e5c4f27ead9083c756cc2",
                "decimals": 18
            },
            {
                "address": "0xeeeeeeeeeeeeeeeeeeeeeeeeeeeeeeeeeeeeeeee",
                "decimals": 18
            }
        ]
    },
    "address_label": {
        "labels": [
            {
                "address": "0x3a35a3102b5c6bd1e4d3237248be071ef53c8331",
                "label": "PolicyManager"
            },
            {
                "address": "0x0000000000000000000000000000000000000000",
                "label": "Null Address"
            },
            {
                "address": "0x0000000000000000000000000000000000000002",
                "label": "Precompiled"
            },
            {
                "address": "0x0000000000000000000000000000000000000003",
                "label": "Precompiled"
            },
            {
                "address": "0x0000000000000000000000000000000000000004",
                "label": "Precompiled"
            },
            {
                "address": "0xbd3531da5cf5857e7cfaa92426877b022e612cf8",
                "label": "Pudgy Penguins: PPG Token"
            },
            {
                "address": "0x00000000000111abe46ff893f3b2fdf1f759a8a8",
                "label": "Blur: Execution Delegate"
            },
            {
                "address": "0x983e96c26782a8db500a6fb8ab47a52e1b44862d",
                "label": "BlurExchange"
            },
            {
                "address": "0x0000000000dab4a563819e8fd93dba3b25bc3495",
                "label": "StandardPolicyERC721"
            },
            {
                "address": "0x0000000000000000000000000000000000000001",
                "label": "Precompiled"
            },
            {
                "address": "0xeeeeeeeeeeeeeeeeeeeeeeeeeeeeeeeeeeeeeeee",
                "label": "Ether"
            },
            {
                "address": "0x000000000000ad05ccc4f10045630fb830b95127",
                "label": "Blur.io: Marketplace"
            }
        ]
    },
    "trace": {
        "accountLabels": null,
        "dataMap": {
            "-1": {
                "invocation": {
                    "address": "0x4b798306763d6d89e5cb11e6e859462bf4e8062a",
                    "callData": "",
                    "decodedMethod": null,
                    "errorInfo": "",
                    "fromAddress": "",
                    "gasUsed": 0,
                    "id": -1,
                    "methodDecoded": false,
                    "operation": "",
                    "output": "",
                    "revert": false,
                    "revertMessage": "",
                    "selector": "",
                    "status": false,
                    "value": ""
                },
                "nodeType": 0
            },
            "0": {
                "invocation": {
                    "address": "0x000000000000ad05ccc4f10045630fb830b95127",
                    "callData": "0x000000000000000000000000000000000000000000000000000000000000004000000000000000000000000000000000000000000000000000000000000003e000000000000000000000000000000000000000000000000000000000000000e0000000000000000000000000000000000000000000000000000000000000001cae24e23192fe06bf7bb24911018d6cfd6249057565386030f4d3ee6c7e9d889858749b56e7df13914ba9a65d529d8149e04df451accbff207b9656afa16b8af000000000000000000000000000000000000000000000000000000000000003200000000000000000000000000000000000000000000000000000000000000000000000000000000000000000000000000000000000000000000000000105565400000000000000000000000004fa5c3869ded7d00f36f13597a2f46aee4c922000000000000000000000000000000000000000000000000000000000000000010000000000000000000000000000000000dab4a563819e8fd93dba3b25bc3495000000000000000000000000bd3531da5cf5857e7cfaa92426877b022e612cf80000000000000000000000000000000000000000000000000000000000000ce2000000000000000000000000000000000000000000000000000000000000000100000000000000000000000000000000000000000000000000000000000000000000000000000000000000000000000000000000000000005a34a38fc00a00000000000000000000000000000000000000000000000000000000000064310f300000000000000000000000000000000000000000000000000000000064589c3000000000000000000000000000000000000000000000000000000000000001a000000000000000000000000000000000e748820bd10e95fcff4b55a8b69b92700000000000000000000000000000000000000000000000000000000000000200000000000000000000000000000000000000000000000000000000000000000100000000000000000000000000000000000000000000000000000000000000320000000000000000000000001afa64e9b8e3090f2001f66d9c9a74cde646738a000000000000000000000000000000000000000000000000000000000000000101000000000000000000000000000000000000000000000000000000000000000000000000000000000000000000000000000000000000000000000000000060000000000000000000000000000000000000000000000000000000000000001b53dfced6f582c3ca1c158b9d2386bd06ad6d4c0c4bab2b3e674a5ba2eeaab3c3265b60683667b4426403c66ee53a93beaa225fe919cdfba7c3962928226e713800000000000000000000000000000000000000000000000000000000000000e000000000000000000000000000000000000000000000000000000000000000000000000000000000000000000000000000000000000000000000000000000000000000000000000000000000000000000000000000000000000000000000000000000000000000000000000000000000000000000000000000000000000002e0000000000000000000000000000000000000000000000000000000000000000000000000000000000000000000000000000000000000000000000000010556540000000000000000000000004b798306763d6d89e5cb11e6e859462bf4e8062a00000000000000000000000000000000000000000000000000000000000000000000000000000000000000000000000000dab4a563819e8fd93dba3b25bc3495000000000000000000000000bd3531da5cf5857e7cfaa92426877b022e612cf80000000000000000000000000000000000000000000000000000000000000ce2000000000000000000000000000000000000000000000000000000000000000100000000000000000000000000000000000000000000000000000000000000000000000000000000000000000000000000000000000000005a34a38fc00a00000000000000000000000000000000000000000000000000000000000064310f3100000000000000000000000000000000000000000000000000000000644885ba00000000000000000000000000000000000000000000000000000000000001a00000000000000000000000000000000060d793b01d17e5820e2828e1caa90a5f00000000000000000000000000000000000000000000000000000000000001c00000000000000000000000000000000000000000000000000000000000000000000000000000000000000000000000000000000000000000000000000000000101000000000000000000000000000000000000000000000000000000000000000000000000000000000000000000000000000000000000000000000000000060000000000000000000000000000000000000000000000000000000000000001c25406998dc806bad39b7ae7ce70721c295ddf1054f118f03601590281ed154253a0e9e1614e36863bbe7219ff76f991a8b4b0607152a9f05a69f6fb7ff94dea0",
                    "decodedMethod": {
                        "callParams": [
                            {
                                "name": "sell",
                                "type": "((address,uint8,address,address,uint256,uint256,address,uint256,uint256,uint256,(uint16,address)[],uint256,bytes),uint8,bytes32,bytes32,bytes,uint8,uint256)",
                                "value": [
                                    {
                                        "name": "order",
                                        "type": "(address,uint8,address,address,uint256,uint256,address,uint256,uint256,uint256,(uint16,address)[],uint256,bytes)",
                                        "value": [
                                            {
                                                "name": "trader",
                                                "type": "address",
                                                "value": "0x04fa5c3869ded7d00f36f13597a2f46aee4c9220"
                                            },
                                            {
                                                "name": "side",
                                                "type": "uint8",
                                                "value": "1"
                                            },
                                            {
                                                "name": "matchingPolicy",
                                                "type": "address",
                                                "value": "0x0000000000dab4a563819e8fd93dba3b25bc3495"
                                            },
                                            {
                                                "name": "collection",
                                                "type": "address",
                                                "value": "0xbd3531da5cf5857e7cfaa92426877b022e612cf8"
                                            },
                                            {
                                                "name": "tokenId",
                                                "type": "uint256",
                                                "value": "3,298"
                                            },
                                            {
                                                "name": "amount",
                                                "type": "uint256",
                                                "value": "1"
                                            },
                                            {
                                                "name": "paymentToken",
                                                "type": "address",
                                                "value": "0x0000000000000000000000000000000000000000"
                                            },
                                            {
                                                "name": "price",
                                                "type": "uint256",
                                                "value": "6,500,000,000,000,000,000"
                                            },
                                            {
                                                "name": "listingTime",
                                                "type": "uint256",
                                                "value": "1,680,936,752"
                                            },
                                            {
                                                "name": "expirationTime",
                                                "type": "uint256",
                                                "value": "1,683,528,752"
                                            },
                                            {
                                                "name": "fees",
                                                "type": "(uint16,address)[]",
                                                "value": [
                                                    [
                                                        {
                                                            "name": "rate",
                                                            "type": "uint16",
                                                            "value": "50"
                                                        },
                                                        {
                                                            "name": "recipient",
                                                            "type": "address",
                                                            "value": "0x1afa64e9b8e3090f2001f66d9c9a74cde646738a"
                                                        }
                                                    ]
                                                ]
                                            },
                                            {
                                                "name": "salt",
                                                "type": "uint256",
                                                "value": "307,428,150,049,588,336,917,813,522,942,014,493,296"
                                            },
                                            {
                                                "name": "extraParams",
                                                "type": "bytes",
                                                "value": "0x01"
                                            }
                                        ]
                                    },
                                    {
                                        "name": "v",
                                        "type": "uint8",
                                        "value": "28"
                                    },
                                    {
                                        "name": "r",
                                        "type": "bytes32",
                                        "value": "0xae24e23192fe06bf7bb24911018d6cfd6249057565386030f4d3ee6c7e9d8898"
                                    },
                                    {
                                        "name": "s",
                                        "type": "bytes32",
                                        "value": "0x58749b56e7df13914ba9a65d529d8149e04df451accbff207b9656afa16b8af0"
                                    },
                                    {
                                        "name": "extraSignature",
                                        "type": "bytes",
                                        "value": "0x000000000000000000000000000000000000000000000000000000000000001b53dfced6f582c3ca1c158b9d2386bd06ad6d4c0c4bab2b3e674a5ba2eeaab3c3265b60683667b4426403c66ee53a93beaa225fe919cdfba7c3962928226e7138"
                                    },
                                    {
                                        "name": "signatureVersion",
                                        "type": "uint8",
                                        "value": "0"
                                    },
                                    {
                                        "name": "blockNumber",
                                        "type": "uint256",
                                        "value": "17,126,996"
                                    }
                                ]
                            },
                            {
                                "name": "buy",
                                "type": "((address,uint8,address,address,uint256,uint256,address,uint256,uint256,uint256,(uint16,address)[],uint256,bytes),uint8,bytes32,bytes32,bytes,uint8,uint256)",
                                "value": [
                                    {
                                        "name": "order",
                                        "type": "(address,uint8,address,address,uint256,uint256,address,uint256,uint256,uint256,(uint16,address)[],uint256,bytes)",
                                        "value": [
                                            {
                                                "name": "trader",
                                                "type": "address",
                                                "value": "0x4b798306763d6d89e5cb11e6e859462bf4e8062a"
                                            },
                                            {
                                                "name": "side",
                                                "type": "uint8",
                                                "value": "0"
                                            },
                                            {
                                                "name": "matchingPolicy",
                                                "type": "address",
                                                "value": "0x0000000000dab4a563819e8fd93dba3b25bc3495"
                                            },
                                            {
                                                "name": "collection",
                                                "type": "address",
                                                "value": "0xbd3531da5cf5857e7cfaa92426877b022e612cf8"
                                            },
                                            {
                                                "name": "tokenId",
                                                "type": "uint256",
                                                "value": "3,298"
                                            },
                                            {
                                                "name": "amount",
                                                "type": "uint256",
                                                "value": "1"
                                            },
                                            {
                                                "name": "paymentToken",
                                                "type": "address",
                                                "value": "0x0000000000000000000000000000000000000000"
                                            },
                                            {
                                                "name": "price",
                                                "type": "uint256",
                                                "value": "6,500,000,000,000,000,000"
                                            },
                                            {
                                                "name": "listingTime",
                                                "type": "uint256",
                                                "value": "1,680,936,753"
                                            },
                                            {
                                                "name": "expirationTime",
                                                "type": "uint256",
                                                "value": "1,682,474,426"
                                            },
                                            {
                                                "name": "fees",
                                                "type": "(uint16,address)[]",
                                                "value": []
                                            },
                                            {
                                                "name": "salt",
                                                "type": "uint256",
                                                "value": "128,725,226,887,309,205,444,666,831,668,234,488,415"
                                            },
                                            {
                                                "name": "extraParams",
                                                "type": "bytes",
                                                "value": "0x01"
                                            }
                                        ]
                                    },
                                    {
                                        "name": "v",
                                        "type": "uint8",
                                        "value": "0"
                                    },
                                    {
                                        "name": "r",
                                        "type": "bytes32",
                                        "value": "0x0000000000000000000000000000000000000000000000000000000000000000"
                                    },
                                    {
                                        "name": "s",
                                        "type": "bytes32",
                                        "value": "0x0000000000000000000000000000000000000000000000000000000000000000"
                                    },
                                    {
                                        "name": "extraSignature",
                                        "type": "bytes",
                                        "value": "0x000000000000000000000000000000000000000000000000000000000000001c25406998dc806bad39b7ae7ce70721c295ddf1054f118f03601590281ed154253a0e9e1614e36863bbe7219ff76f991a8b4b0607152a9f05a69f6fb7ff94dea0"
                                    },
                                    {
                                        "name": "signatureVersion",
                                        "type": "uint8",
                                        "value": "0"
                                    },
                                    {
                                        "name": "blockNumber",
                                        "type": "uint256",
                                        "value": "17,126,996"
                                    }
                                ]
                            }
                        ],
                        "constructorArguments": "",
                        "name": "execute",
                        "returnParams": [],
                        "signature": "execute(((address,uint8,address,address,uint256,uint256,address,uint256,uint256,uint256,(uint16,address)[],uint256,bytes),uint8,bytes32,bytes32,bytes,uint8,uint256),((address,uint8,address,address,uint256,uint256,address,uint256,uint256,uint256,(uint16,address)[],uint256,bytes),uint8,bytes32,bytes32,bytes,uint8,uint256))"
                    },
                    "errorInfo": "",
                    "fromAddress": "0x4b798306763d6d89e5cb11e6e859462bf4e8062a",
                    "gasUsed": 264769,
                    "id": 0,
                    "methodDecoded": true,
                    "operation": "CALL",
                    "output": "",
                    "revert": false,
                    "revertMessage": "",
                    "selector": "0x9a1fc3a7",
                    "status": true,
                    "value": "6.5"
                },
                "nodeType": 0
            },
            "1": {
                "invocation": {
                    "address": "0x983e96c26782a8db500a6fb8ab47a52e1b44862d",
                    "callData": "0x000000000000000000000000000000000000000000000000000000000000004000000000000000000000000000000000000000000000000000000000000003e000000000000000000000000000000000000000000000000000000000000000e0000000000000000000000000000000000000000000000000000000000000001cae24e23192fe06bf7bb24911018d6cfd6249057565386030f4d3ee6c7e9d889858749b56e7df13914ba9a65d529d8149e04df451accbff207b9656afa16b8af000000000000000000000000000000000000000000000000000000000000003200000000000000000000000000000000000000000000000000000000000000000000000000000000000000000000000000000000000000000000000000105565400000000000000000000000004fa5c3869ded7d00f36f13597a2f46aee4c922000000000000000000000000000000000000000000000000000000000000000010000000000000000000000000000000000dab4a563819e8fd93dba3b25bc3495000000000000000000000000bd3531da5cf5857e7cfaa92426877b022e612cf80000000000000000000000000000000000000000000000000000000000000ce2000000000000000000000000000000000000000000000000000000000000000100000000000000000000000000000000000000000000000000000000000000000000000000000000000000000000000000000000000000005a34a38fc00a00000000000000000000000000000000000000000000000000000000000064310f300000000000000000000000000000000000000000000000000000000064589c3000000000000000000000000000000000000000000000000000000000000001a000000000000000000000000000000000e748820bd10e95fcff4b55a8b69b92700000000000000000000000000000000000000000000000000000000000000200000000000000000000000000000000000000000000000000000000000000000100000000000000000000000000000000000000000000000000000000000000320000000000000000000000001afa64e9b8e3090f2001f66d9c9a74cde646738a000000000000000000000000000000000000000000000000000000000000000101000000000000000000000000000000000000000000000000000000000000000000000000000000000000000000000000000000000000000000000000000060000000000000000000000000000000000000000000000000000000000000001b53dfced6f582c3ca1c158b9d2386bd06ad6d4c0c4bab2b3e674a5ba2eeaab3c3265b60683667b4426403c66ee53a93beaa225fe919cdfba7c3962928226e713800000000000000000000000000000000000000000000000000000000000000e000000000000000000000000000000000000000000000000000000000000000000000000000000000000000000000000000000000000000000000000000000000000000000000000000000000000000000000000000000000000000000000000000000000000000000000000000000000000000000000000000000000000002e0000000000000000000000000000000000000000000000000000000000000000000000000000000000000000000000000000000000000000000000000010556540000000000000000000000004b798306763d6d89e5cb11e6e859462bf4e8062a00000000000000000000000000000000000000000000000000000000000000000000000000000000000000000000000000dab4a563819e8fd93dba3b25bc3495000000000000000000000000bd3531da5cf5857e7cfaa92426877b022e612cf80000000000000000000000000000000000000000000000000000000000000ce2000000000000000000000000000000000000000000000000000000000000000100000000000000000000000000000000000000000000000000000000000000000000000000000000000000000000000000000000000000005a34a38fc00a00000000000000000000000000000000000000000000000000000000000064310f3100000000000000000000000000000000000000000000000000000000644885ba00000000000000000000000000000000000000000000000000000000000001a00000000000000000000000000000000060d793b01d17e5820e2828e1caa90a5f00000000000000000000000000000000000000000000000000000000000001c00000000000000000000000000000000000000000000000000000000000000000000000000000000000000000000000000000000000000000000000000000000101000000000000000000000000000000000000000000000000000000000000000000000000000000000000000000000000000000000000000000000000000060000000000000000000000000000000000000000000000000000000000000001c25406998dc806bad39b7ae7ce70721c295ddf1054f118f03601590281ed154253a0e9e1614e36863bbe7219ff76f991a8b4b0607152a9f05a69f6fb7ff94dea0",
                    "decodedMethod": {
                        "callParams": [
                            {
                                "name": "sell",
                                "type": "((address,uint8,address,address,uint256,uint256,address,uint256,uint256,uint256,(uint16,address)[],uint256,bytes),uint8,bytes32,bytes32,bytes,uint8,uint256)",
                                "value": [
                                    {
                                        "name": "order",
                                        "type": "(address,uint8,address,address,uint256,uint256,address,uint256,uint256,uint256,(uint16,address)[],uint256,bytes)",
                                        "value": [
                                            {
                                                "name": "trader",
                                                "type": "address",
                                                "value": "0x04fa5c3869ded7d00f36f13597a2f46aee4c9220"
                                            },
                                            {
                                                "name": "side",
                                                "type": "uint8",
                                                "value": "1"
                                            },
                                            {
                                                "name": "matchingPolicy",
                                                "type": "address",
                                                "value": "0x0000000000dab4a563819e8fd93dba3b25bc3495"
                                            },
                                            {
                                                "name": "collection",
                                                "type": "address",
                                                "value": "0xbd3531da5cf5857e7cfaa92426877b022e612cf8"
                                            },
                                            {
                                                "name": "tokenId",
                                                "type": "uint256",
                                                "value": "3,298"
                                            },
                                            {
                                                "name": "amount",
                                                "type": "uint256",
                                                "value": "1"
                                            },
                                            {
                                                "name": "paymentToken",
                                                "type": "address",
                                                "value": "0x0000000000000000000000000000000000000000"
                                            },
                                            {
                                                "name": "price",
                                                "type": "uint256",
                                                "value": "6,500,000,000,000,000,000"
                                            },
                                            {
                                                "name": "listingTime",
                                                "type": "uint256",
                                                "value": "1,680,936,752"
                                            },
                                            {
                                                "name": "expirationTime",
                                                "type": "uint256",
                                                "value": "1,683,528,752"
                                            },
                                            {
                                                "name": "fees",
                                                "type": "(uint16,address)[]",
                                                "value": [
                                                    [
                                                        {
                                                            "name": "rate",
                                                            "type": "uint16",
                                                            "value": "50"
                                                        },
                                                        {
                                                            "name": "recipient",
                                                            "type": "address",
                                                            "value": "0x1afa64e9b8e3090f2001f66d9c9a74cde646738a"
                                                        }
                                                    ]
                                                ]
                                            },
                                            {
                                                "name": "salt",
                                                "type": "uint256",
                                                "value": "307,428,150,049,588,336,917,813,522,942,014,493,296"
                                            },
                                            {
                                                "name": "extraParams",
                                                "type": "bytes",
                                                "value": "0x01"
                                            }
                                        ]
                                    },
                                    {
                                        "name": "v",
                                        "type": "uint8",
                                        "value": "28"
                                    },
                                    {
                                        "name": "r",
                                        "type": "bytes32",
                                        "value": "0xae24e23192fe06bf7bb24911018d6cfd6249057565386030f4d3ee6c7e9d8898"
                                    },
                                    {
                                        "name": "s",
                                        "type": "bytes32",
                                        "value": "0x58749b56e7df13914ba9a65d529d8149e04df451accbff207b9656afa16b8af0"
                                    },
                                    {
                                        "name": "extraSignature",
                                        "type": "bytes",
                                        "value": "0x000000000000000000000000000000000000000000000000000000000000001b53dfced6f582c3ca1c158b9d2386bd06ad6d4c0c4bab2b3e674a5ba2eeaab3c3265b60683667b4426403c66ee53a93beaa225fe919cdfba7c3962928226e7138"
                                    },
                                    {
                                        "name": "signatureVersion",
                                        "type": "uint8",
                                        "value": "0"
                                    },
                                    {
                                        "name": "blockNumber",
                                        "type": "uint256",
                                        "value": "17,126,996"
                                    }
                                ]
                            },
                            {
                                "name": "buy",
                                "type": "((address,uint8,address,address,uint256,uint256,address,uint256,uint256,uint256,(uint16,address)[],uint256,bytes),uint8,bytes32,bytes32,bytes,uint8,uint256)",
                                "value": [
                                    {
                                        "name": "order",
                                        "type": "(address,uint8,address,address,uint256,uint256,address,uint256,uint256,uint256,(uint16,address)[],uint256,bytes)",
                                        "value": [
                                            {
                                                "name": "trader",
                                                "type": "address",
                                                "value": "0x4b798306763d6d89e5cb11e6e859462bf4e8062a"
                                            },
                                            {
                                                "name": "side",
                                                "type": "uint8",
                                                "value": "0"
                                            },
                                            {
                                                "name": "matchingPolicy",
                                                "type": "address",
                                                "value": "0x0000000000dab4a563819e8fd93dba3b25bc3495"
                                            },
                                            {
                                                "name": "collection",
                                                "type": "address",
                                                "value": "0xbd3531da5cf5857e7cfaa92426877b022e612cf8"
                                            },
                                            {
                                                "name": "tokenId",
                                                "type": "uint256",
                                                "value": "3,298"
                                            },
                                            {
                                                "name": "amount",
                                                "type": "uint256",
                                                "value": "1"
                                            },
                                            {
                                                "name": "paymentToken",
                                                "type": "address",
                                                "value": "0x0000000000000000000000000000000000000000"
                                            },
                                            {
                                                "name": "price",
                                                "type": "uint256",
                                                "value": "6,500,000,000,000,000,000"
                                            },
                                            {
                                                "name": "listingTime",
                                                "type": "uint256",
                                                "value": "1,680,936,753"
                                            },
                                            {
                                                "name": "expirationTime",
                                                "type": "uint256",
                                                "value": "1,682,474,426"
                                            },
                                            {
                                                "name": "fees",
                                                "type": "(uint16,address)[]",
                                                "value": []
                                            },
                                            {
                                                "name": "salt",
                                                "type": "uint256",
                                                "value": "128,725,226,887,309,205,444,666,831,668,234,488,415"
                                            },
                                            {
                                                "name": "extraParams",
                                                "type": "bytes",
                                                "value": "0x01"
                                            }
                                        ]
                                    },
                                    {
                                        "name": "v",
                                        "type": "uint8",
                                        "value": "0"
                                    },
                                    {
                                        "name": "r",
                                        "type": "bytes32",
                                        "value": "0x0000000000000000000000000000000000000000000000000000000000000000"
                                    },
                                    {
                                        "name": "s",
                                        "type": "bytes32",
                                        "value": "0x0000000000000000000000000000000000000000000000000000000000000000"
                                    },
                                    {
                                        "name": "extraSignature",
                                        "type": "bytes",
                                        "value": "0x000000000000000000000000000000000000000000000000000000000000001c25406998dc806bad39b7ae7ce70721c295ddf1054f118f03601590281ed154253a0e9e1614e36863bbe7219ff76f991a8b4b0607152a9f05a69f6fb7ff94dea0"
                                    },
                                    {
                                        "name": "signatureVersion",
                                        "type": "uint8",
                                        "value": "0"
                                    },
                                    {
                                        "name": "blockNumber",
                                        "type": "uint256",
                                        "value": "17,126,996"
                                    }
                                ]
                            }
                        ],
                        "constructorArguments": "",
                        "name": "execute",
                        "returnParams": [],
                        "signature": "execute(((address,uint8,address,address,uint256,uint256,address,uint256,uint256,uint256,(uint16,address)[],uint256,bytes),uint8,bytes32,bytes32,bytes,uint8,uint256),((address,uint8,address,address,uint256,uint256,address,uint256,uint256,uint256,(uint16,address)[],uint256,bytes),uint8,bytes32,bytes32,bytes,uint8,uint256))"
                    },
                    "errorInfo": "",
                    "fromAddress": "0x000000000000ad05ccc4f10045630fb830b95127",
                    "gasUsed": 290465,
                    "id": 1,
                    "methodDecoded": true,
                    "operation": "DELEGATECALL",
                    "output": "",
                    "revert": false,
                    "revertMessage": "",
                    "selector": "0x9a1fc3a7",
                    "status": true,
                    "value": "6.5"
                },
                "nodeType": 0
            },
            "10": {
                "invocation": {
                    "address": "0xbd3531da5cf5857e7cfaa92426877b022e612cf8",
                    "callData": "0x00000000000000000000000004fa5c3869ded7d00f36f13597a2f46aee4c92200000000000000000000000004b798306763d6d89e5cb11e6e859462bf4e8062a0000000000000000000000000000000000000000000000000000000000000ce2",
                    "decodedMethod": {
                        "callParams": [
                            {
                                "name": "from",
                                "type": "address",
                                "value": "0x04fa5c3869ded7d00f36f13597a2f46aee4c9220"
                            },
                            {
                                "name": "to",
                                "type": "address",
                                "value": "0x4b798306763d6d89e5cb11e6e859462bf4e8062a"
                            },
                            {
                                "name": "tokenId",
                                "type": "uint256",
                                "value": "3,298"
                            }
                        ],
                        "constructorArguments": "",
                        "name": "safeTransferFrom",
                        "returnParams": [],
                        "signature": "safeTransferFrom(address,address,uint256)"
                    },
                    "errorInfo": "",
                    "fromAddress": "0x00000000000111abe46ff893f3b2fdf1f759a8a8",
                    "gasUsed": 64168,
                    "id": 10,
                    "methodDecoded": true,
                    "operation": "CALL",
                    "output": "",
                    "revert": false,
                    "revertMessage": "",
                    "selector": "0x42842e0e",
                    "status": true,
                    "value": "0"
                },
                "nodeType": 0
            },
            "11": {
                "event": {
                    "contract": "0xbd3531da5cf5857e7cfaa92426877b022e612cf8",
                    "decodedLog": {
                        "name": "Approval",
                        "params": [
                            {
                                "name": "owner",
                                "type": "address",
                                "value": "0x04fa5c3869ded7d00f36f13597a2f46aee4c9220"
                            },
                            {
                                "name": "approved",
                                "type": "address",
                                "value": "0x0000000000000000000000000000000000000000"
                            },
                            {
                                "decimalAvailable": true,
                                "name": "tokenId",
                                "type": "uint256",
                                "value": "3,298"
                            }
                        ],
                        "signature": "Approval(address,address,uint256)"
                    },
                    "id": 11,
                    "logData": "0x",
                    "logDecoded": true,
                    "operation": "EVENT",
                    "revert": false,
                    "status": true,
                    "topics": [
                        "0x8c5be1e5ebec7d5bd14f71427d1e84f3dd0314c0f7b2291e5b200ac8c7c3b925",
                        "0x00000000000000000000000004fa5c3869ded7d00f36f13597a2f46aee4c9220",
                        "0x0000000000000000000000000000000000000000000000000000000000000000",
                        "0x0000000000000000000000000000000000000000000000000000000000000ce2"
                    ]
                },
                "nodeType": 1
            },
            "12": {
                "event": {
                    "contract": "0xbd3531da5cf5857e7cfaa92426877b022e612cf8",
                    "decodedLog": {
                        "name": "Transfer",
                        "params": [
                            {
                                "name": "from",
                                "type": "address",
                                "value": "0x04fa5c3869ded7d00f36f13597a2f46aee4c9220"
                            },
                            {
                                "name": "to",
                                "type": "address",
                                "value": "0x4b798306763d6d89e5cb11e6e859462bf4e8062a"
                            },
                            {
                                "decimalAvailable": true,
                                "name": "tokenId",
                                "type": "uint256",
                                "value": "3,298"
                            }
                        ],
                        "signature": "Transfer(address,address,uint256)"
                    },
                    "id": 12,
                    "logData": "0x",
                    "logDecoded": true,
                    "operation": "EVENT",
                    "revert": false,
                    "status": true,
                    "topics": [
                        "0xddf252ad1be2c89b69c2b068fc378daa952ba7f163c4a11628f55a4df523b3ef",
                        "0x00000000000000000000000004fa5c3869ded7d00f36f13597a2f46aee4c9220",
                        "0x0000000000000000000000004b798306763d6d89e5cb11e6e859462bf4e8062a",
                        "0x0000000000000000000000000000000000000000000000000000000000000ce2"
                    ]
                },
                "nodeType": 1
            },
            "13": {
                "event": {
                    "contract": "0x000000000000ad05ccc4f10045630fb830b95127",
                    "decodedLog": {
                        "name": "OrdersMatched",
                        "params": [
                            {
                                "name": "maker",
                                "type": "address",
                                "value": "0x04fa5c3869ded7d00f36f13597a2f46aee4c9220"
                            },
                            {
                                "name": "taker",
                                "type": "address",
                                "value": "0x4b798306763d6d89e5cb11e6e859462bf4e8062a"
                            },
                            {
                                "name": "sell",
                                "type": "(address,uint8,address,address,uint256,uint256,address,uint256,uint256,uint256,(uint16,address)[],uint256,bytes)",
                                "value": [
                                    {
                                        "name": "trader",
                                        "type": "address",
                                        "value": "0x04fa5c3869ded7d00f36f13597a2f46aee4c9220"
                                    },
                                    {
                                        "name": "side",
                                        "type": "uint8",
                                        "value": "1"
                                    },
                                    {
                                        "name": "matchingPolicy",
                                        "type": "address",
                                        "value": "0x0000000000dab4a563819e8fd93dba3b25bc3495"
                                    },
                                    {
                                        "name": "collection",
                                        "type": "address",
                                        "value": "0xbd3531da5cf5857e7cfaa92426877b022e612cf8"
                                    },
                                    {
                                        "name": "tokenId",
                                        "type": "uint256",
                                        "value": "3,298"
                                    },
                                    {
                                        "name": "amount",
                                        "type": "uint256",
                                        "value": "1"
                                    },
                                    {
                                        "name": "paymentToken",
                                        "type": "address",
                                        "value": "0x0000000000000000000000000000000000000000"
                                    },
                                    {
                                        "name": "price",
                                        "type": "uint256",
                                        "value": "6,500,000,000,000,000,000"
                                    },
                                    {
                                        "name": "listingTime",
                                        "type": "uint256",
                                        "value": "1,680,936,752"
                                    },
                                    {
                                        "name": "expirationTime",
                                        "type": "uint256",
                                        "value": "1,683,528,752"
                                    },
                                    {
                                        "name": "fees",
                                        "type": "(uint16,address)[]",
                                        "value": [
                                            [
                                                {
                                                    "name": "rate",
                                                    "type": "uint16",
                                                    "value": "50"
                                                },
                                                {
                                                    "name": "recipient",
                                                    "type": "address",
                                                    "value": "0x1afa64e9b8e3090f2001f66d9c9a74cde646738a"
                                                }
                                            ]
                                        ]
                                    },
                                    {
                                        "name": "salt",
                                        "type": "uint256",
                                        "value": "307,428,150,049,588,336,917,813,522,942,014,493,296"
                                    },
                                    {
                                        "name": "extraParams",
                                        "type": "bytes",
                                        "value": "0x01"
                                    }
                                ]
                            },
                            {
                                "name": "sellHash",
                                "type": "bytes32",
                                "value": "0x0d5340c1eb6accc8990e6b7ee9ed4b90726a2adbba086819d6ee82c2863d768f"
                            },
                            {
                                "name": "buy",
                                "type": "(address,uint8,address,address,uint256,uint256,address,uint256,uint256,uint256,(uint16,address)[],uint256,bytes)",
                                "value": [
                                    {
                                        "name": "trader",
                                        "type": "address",
                                        "value": "0x4b798306763d6d89e5cb11e6e859462bf4e8062a"
                                    },
                                    {
                                        "name": "side",
                                        "type": "uint8",
                                        "value": "0"
                                    },
                                    {
                                        "name": "matchingPolicy",
                                        "type": "address",
                                        "value": "0x0000000000dab4a563819e8fd93dba3b25bc3495"
                                    },
                                    {
                                        "name": "collection",
                                        "type": "address",
                                        "value": "0xbd3531da5cf5857e7cfaa92426877b022e612cf8"
                                    },
                                    {
                                        "name": "tokenId",
                                        "type": "uint256",
                                        "value": "3,298"
                                    },
                                    {
                                        "name": "amount",
                                        "type": "uint256",
                                        "value": "1"
                                    },
                                    {
                                        "name": "paymentToken",
                                        "type": "address",
                                        "value": "0x0000000000000000000000000000000000000000"
                                    },
                                    {
                                        "name": "price",
                                        "type": "uint256",
                                        "value": "6,500,000,000,000,000,000"
                                    },
                                    {
                                        "name": "listingTime",
                                        "type": "uint256",
                                        "value": "1,680,936,753"
                                    },
                                    {
                                        "name": "expirationTime",
                                        "type": "uint256",
                                        "value": "1,682,474,426"
                                    },
                                    {
                                        "name": "fees",
                                        "type": "(uint16,address)[]",
                                        "value": []
                                    },
                                    {
                                        "name": "salt",
                                        "type": "uint256",
                                        "value": "128,725,226,887,309,205,444,666,831,668,234,488,415"
                                    },
                                    {
                                        "name": "extraParams",
                                        "type": "bytes",
                                        "value": "0x01"
                                    }
                                ]
                            },
                            {
                                "name": "buyHash",
                                "type": "bytes32",
                                "value": "0xe3819477ae0862b383ad782e2387d0e670b14308d52759cdcfbb9b126eff279e"
                            }
                        ],
                        "signature": "OrdersMatched(address,address,(address,uint8,address,address,uint256,uint256,address,uint256,uint256,uint256,(uint16,address)[],uint256,bytes),bytes32,(address,uint8,address,address,uint256,uint256,address,uint256,uint256,uint256,(uint16,address)[],uint256,bytes),bytes32)"
                    },
                    "id": 13,
                    "logData": "0x00000000000000000000000000000000000000000000000000000000000000800d5340c1eb6accc8990e6b7ee9ed4b90726a2adbba086819d6ee82c2863d768f00000000000000000000000000000000000000000000000000000000000002c0e3819477ae0862b383ad782e2387d0e670b14308d52759cdcfbb9b126eff279e00000000000000000000000004fa5c3869ded7d00f36f13597a2f46aee4c922000000000000000000000000000000000000000000000000000000000000000010000000000000000000000000000000000dab4a563819e8fd93dba3b25bc3495000000000000000000000000bd3531da5cf5857e7cfaa92426877b022e612cf80000000000000000000000000000000000000000000000000000000000000ce2000000000000000000000000000000000000000000000000000000000000000100000000000000000000000000000000000000000000000000000000000000000000000000000000000000000000000000000000000000005a34a38fc00a00000000000000000000000000000000000000000000000000000000000064310f300000000000000000000000000000000000000000000000000000000064589c3000000000000000000000000000000000000000000000000000000000000001a000000000000000000000000000000000e748820bd10e95fcff4b55a8b69b92700000000000000000000000000000000000000000000000000000000000000200000000000000000000000000000000000000000000000000000000000000000100000000000000000000000000000000000000000000000000000000000000320000000000000000000000001afa64e9b8e3090f2001f66d9c9a74cde646738a000000000000000000000000000000000000000000000000000000000000000101000000000000000000000000000000000000000000000000000000000000000000000000000000000000004b798306763d6d89e5cb11e6e859462bf4e8062a00000000000000000000000000000000000000000000000000000000000000000000000000000000000000000000000000dab4a563819e8fd93dba3b25bc3495000000000000000000000000bd3531da5cf5857e7cfaa92426877b022e612cf80000000000000000000000000000000000000000000000000000000000000ce2000000000000000000000000000000000000000000000000000000000000000100000000000000000000000000000000000000000000000000000000000000000000000000000000000000000000000000000000000000005a34a38fc00a00000000000000000000000000000000000000000000000000000000000064310f3100000000000000000000000000000000000000000000000000000000644885ba00000000000000000000000000000000000000000000000000000000000001a00000000000000000000000000000000060d793b01d17e5820e2828e1caa90a5f00000000000000000000000000000000000000000000000000000000000001c0000000000000000000000000000000000000000000000000000000000000000000000000000000000000000000000000000000000000000000000000000000010100000000000000000000000000000000000000000000000000000000000000",
                    "logDecoded": true,
                    "operation": "EVENT",
                    "revert": false,
                    "status": true,
                    "topics": [
                        "0x61cbb2a3dee0b6064c2e681aadd61677fb4ef319f0b547508d495626f5a62f64",
                        "0x00000000000000000000000004fa5c3869ded7d00f36f13597a2f46aee4c9220",
                        "0x0000000000000000000000004b798306763d6d89e5cb11e6e859462bf4e8062a"
                    ]
                },
                "nodeType": 1
            },
            "2": {
                "invocation": {
                    "address": "0x0000000000000000000000000000000000000001",
                    "callData": "0x2d54c994b47f53bfb32a88e24a9f919818aecc8e4612bb6c1835c9c5000000000000000000000000000000000000000000000000000000000000001b53dfced6f582c3ca1c158b9d2386bd06ad6d4c0c4bab2b3e674a5ba2eeaab3c3265b60683667b4426403c66ee53a93beaa225fe919cdfba7c3962928226e7138",
                    "decodedMethod": {
                        "callParams": [
                            {
                                "name": "hash",
                                "type": "bytes32",
                                "value": "0xa044d4142d54c994b47f53bfb32a88e24a9f919818aecc8e4612bb6c1835c9c5"
                            },
                            {
                                "name": "v",
                                "type": "uint256",
                                "value": "27"
                            },
                            {
                                "name": "r",
                                "type": "bytes32",
                                "value": "0x53dfced6f582c3ca1c158b9d2386bd06ad6d4c0c4bab2b3e674a5ba2eeaab3c3"
                            },
                            {
                                "name": "s",
                                "type": "bytes32",
                                "value": "0x265b60683667b4426403c66ee53a93beaa225fe919cdfba7c3962928226e7138"
                            }
                        ],
                        "constructorArguments": "",
                        "name": "ecrecover",
                        "returnParams": [
                            {
                                "name": "",
                                "type": "address",
                                "value": "0xd44feab097e5fee7fd54c9481f56b806f7f3ddc1"
                            }
                        ],
                        "signature": "ecrecover(bytes32,uint256,bytes32,bytes32)"
                    },
                    "errorInfo": "",
                    "fromAddress": "0x000000000000ad05ccc4f10045630fb830b95127",
                    "gasUsed": 3000,
                    "id": 2,
                    "methodDecoded": true,
                    "operation": "STATICCALL",
                    "output": "0x000000000000000000000000d44feab097e5fee7fd54c9481f56b806f7f3ddc1",
                    "revert": false,
                    "revertMessage": "",
                    "selector": "0xa044d414",
                    "status": true,
                    "value": "0"
                },
                "nodeType": 0
            },
            "3": {
                "invocation": {
                    "address": "0x0000000000000000000000000000000000000001",
                    "callData": "0x1fc9b513bdf3b7585137d990c97d8fb5803649b4c506cd9b60c364e0000000000000000000000000000000000000000000000000000000000000001cae24e23192fe06bf7bb24911018d6cfd6249057565386030f4d3ee6c7e9d889858749b56e7df13914ba9a65d529d8149e04df451accbff207b9656afa16b8af0",
                    "decodedMethod": {
                        "callParams": [
                            {
                                "name": "hash",
                                "type": "bytes32",
                                "value": "0x7a5733b51fc9b513bdf3b7585137d990c97d8fb5803649b4c506cd9b60c364e0"
                            },
                            {
                                "name": "v",
                                "type": "uint256",
                                "value": "28"
                            },
                            {
                                "name": "r",
                                "type": "bytes32",
                                "value": "0xae24e23192fe06bf7bb24911018d6cfd6249057565386030f4d3ee6c7e9d8898"
                            },
                            {
                                "name": "s",
                                "type": "bytes32",
                                "value": "0x58749b56e7df13914ba9a65d529d8149e04df451accbff207b9656afa16b8af0"
                            }
                        ],
                        "constructorArguments": "",
                        "name": "ecrecover",
                        "returnParams": [
                            {
                                "name": "",
                                "type": "address",
                                "value": "0x04fa5c3869ded7d00f36f13597a2f46aee4c9220"
                            }
                        ],
                        "signature": "ecrecover(bytes32,uint256,bytes32,bytes32)"
                    },
                    "errorInfo": "",
                    "fromAddress": "0x000000000000ad05ccc4f10045630fb830b95127",
                    "gasUsed": 3000,
                    "id": 3,
                    "methodDecoded": true,
                    "operation": "STATICCALL",
                    "output": "0x00000000000000000000000004fa5c3869ded7d00f36f13597a2f46aee4c9220",
                    "revert": false,
                    "revertMessage": "",
                    "selector": "0x7a5733b5",
                    "status": true,
                    "value": "0"
                },
                "nodeType": 0
            },
            "4": {
                "invocation": {
                    "address": "0x0000000000000000000000000000000000000001",
                    "callData": "0x3855d72b1bf7419bf53df2da4b991414ab1b054ef561865eb552691b000000000000000000000000000000000000000000000000000000000000001c25406998dc806bad39b7ae7ce70721c295ddf1054f118f03601590281ed154253a0e9e1614e36863bbe7219ff76f991a8b4b0607152a9f05a69f6fb7ff94dea0",
                    "decodedMethod": {
                        "callParams": [
                            {
                                "name": "hash",
                                "type": "bytes32",
                                "value": "0xb2a553a03855d72b1bf7419bf53df2da4b991414ab1b054ef561865eb552691b"
                            },
                            {
                                "name": "v",
                                "type": "uint256",
                                "value": "28"
                            },
                            {
                                "name": "r",
                                "type": "bytes32",
                                "value": "0x25406998dc806bad39b7ae7ce70721c295ddf1054f118f03601590281ed15425"
                            },
                            {
                                "name": "s",
                                "type": "bytes32",
                                "value": "0x3a0e9e1614e36863bbe7219ff76f991a8b4b0607152a9f05a69f6fb7ff94dea0"
                            }
                        ],
                        "constructorArguments": "",
                        "name": "ecrecover",
                        "returnParams": [
                            {
                                "name": "",
                                "type": "address",
                                "value": "0xd44feab097e5fee7fd54c9481f56b806f7f3ddc1"
                            }
                        ],
                        "signature": "ecrecover(bytes32,uint256,bytes32,bytes32)"
                    },
                    "errorInfo": "",
                    "fromAddress": "0x000000000000ad05ccc4f10045630fb830b95127",
                    "gasUsed": 3000,
                    "id": 4,
                    "methodDecoded": true,
                    "operation": "STATICCALL",
                    "output": "0x000000000000000000000000d44feab097e5fee7fd54c9481f56b806f7f3ddc1",
                    "revert": false,
                    "revertMessage": "",
                    "selector": "0xb2a553a0",
                    "status": true,
                    "value": "0"
                },
                "nodeType": 0
            },
            "5": {
                "invocation": {
                    "address": "0x3a35a3102b5c6bd1e4d3237248be071ef53c8331",
                    "callData": "0x0000000000000000000000000000000000dab4a563819e8fd93dba3b25bc3495",
                    "decodedMethod": {
                        "callParams": [
                            {
                                "name": "policy",
                                "type": "address",
                                "value": "0x0000000000dab4a563819e8fd93dba3b25bc3495"
                            }
                        ],
                        "constructorArguments": "",
                        "name": "isPolicyWhitelisted",
                        "returnParams": [
                            {
                                "name": "",
                                "type": "bool",
                                "value": true
                            }
                        ],
                        "signature": "isPolicyWhitelisted(address)"
                    },
                    "errorInfo": "",
                    "fromAddress": "0x000000000000ad05ccc4f10045630fb830b95127",
                    "gasUsed": 2666,
                    "id": 5,
                    "methodDecoded": true,
                    "operation": "STATICCALL",
                    "output": "0x0000000000000000000000000000000000000000000000000000000000000001",
                    "revert": false,
                    "revertMessage": "",
                    "selector": "0x874516cd",
                    "status": true,
                    "value": "0"
                },
                "nodeType": 0
            },
            "6": {
                "invocation": {
                    "address": "0x0000000000dab4a563819e8fd93dba3b25bc3495",
                    "callData": "0x0000000000000000000000000000000000000000000000000000000000000040000000000000000000000000000000000000000000000000000000000000028000000000000000000000000004fa5c3869ded7d00f36f13597a2f46aee4c922000000000000000000000000000000000000000000000000000000000000000010000000000000000000000000000000000dab4a563819e8fd93dba3b25bc3495000000000000000000000000bd3531da5cf5857e7cfaa92426877b022e612cf80000000000000000000000000000000000000000000000000000000000000ce2000000000000000000000000000000000000000000000000000000000000000100000000000000000000000000000000000000000000000000000000000000000000000000000000000000000000000000000000000000005a34a38fc00a00000000000000000000000000000000000000000000000000000000000064310f300000000000000000000000000000000000000000000000000000000064589c3000000000000000000000000000000000000000000000000000000000000001a000000000000000000000000000000000e748820bd10e95fcff4b55a8b69b92700000000000000000000000000000000000000000000000000000000000000200000000000000000000000000000000000000000000000000000000000000000100000000000000000000000000000000000000000000000000000000000000320000000000000000000000001afa64e9b8e3090f2001f66d9c9a74cde646738a000000000000000000000000000000000000000000000000000000000000000101000000000000000000000000000000000000000000000000000000000000000000000000000000000000004b798306763d6d89e5cb11e6e859462bf4e8062a00000000000000000000000000000000000000000000000000000000000000000000000000000000000000000000000000dab4a563819e8fd93dba3b25bc3495000000000000000000000000bd3531da5cf5857e7cfaa92426877b022e612cf80000000000000000000000000000000000000000000000000000000000000ce2000000000000000000000000000000000000000000000000000000000000000100000000000000000000000000000000000000000000000000000000000000000000000000000000000000000000000000000000000000005a34a38fc00a00000000000000000000000000000000000000000000000000000000000064310f3100000000000000000000000000000000000000000000000000000000644885ba00000000000000000000000000000000000000000000000000000000000001a00000000000000000000000000000000060d793b01d17e5820e2828e1caa90a5f00000000000000000000000000000000000000000000000000000000000001c0000000000000000000000000000000000000000000000000000000000000000000000000000000000000000000000000000000000000000000000000000000010100000000000000000000000000000000000000000000000000000000000000",
                    "decodedMethod": {
                        "callParams": [
                            {
                                "name": "makerAsk",
                                "type": "(address,uint8,address,address,uint256,uint256,address,uint256,uint256,uint256,(uint16,address)[],uint256,bytes)",
                                "value": [
                                    {
                                        "name": "trader",
                                        "type": "address",
                                        "value": "0x04fa5c3869ded7d00f36f13597a2f46aee4c9220"
                                    },
                                    {
                                        "name": "side",
                                        "type": "uint8",
                                        "value": "1"
                                    },
                                    {
                                        "name": "matchingPolicy",
                                        "type": "address",
                                        "value": "0x0000000000dab4a563819e8fd93dba3b25bc3495"
                                    },
                                    {
                                        "name": "collection",
                                        "type": "address",
                                        "value": "0xbd3531da5cf5857e7cfaa92426877b022e612cf8"
                                    },
                                    {
                                        "name": "tokenId",
                                        "type": "uint256",
                                        "value": "3,298"
                                    },
                                    {
                                        "name": "amount",
                                        "type": "uint256",
                                        "value": "1"
                                    },
                                    {
                                        "name": "paymentToken",
                                        "type": "address",
                                        "value": "0x0000000000000000000000000000000000000000"
                                    },
                                    {
                                        "name": "price",
                                        "type": "uint256",
                                        "value": "6,500,000,000,000,000,000"
                                    },
                                    {
                                        "name": "listingTime",
                                        "type": "uint256",
                                        "value": "1,680,936,752"
                                    },
                                    {
                                        "name": "expirationTime",
                                        "type": "uint256",
                                        "value": "1,683,528,752"
                                    },
                                    {
                                        "name": "fees",
                                        "type": "(uint16,address)[]",
                                        "value": [
                                            [
                                                {
                                                    "name": "rate",
                                                    "type": "uint16",
                                                    "value": "50"
                                                },
                                                {
                                                    "name": "recipient",
                                                    "type": "address",
                                                    "value": "0x1afa64e9b8e3090f2001f66d9c9a74cde646738a"
                                                }
                                            ]
                                        ]
                                    },
                                    {
                                        "name": "salt",
                                        "type": "uint256",
                                        "value": "307,428,150,049,588,336,917,813,522,942,014,493,296"
                                    },
                                    {
                                        "name": "extraParams",
                                        "type": "bytes",
                                        "value": "0x01"
                                    }
                                ]
                            },
                            {
                                "name": "takerBid",
                                "type": "(address,uint8,address,address,uint256,uint256,address,uint256,uint256,uint256,(uint16,address)[],uint256,bytes)",
                                "value": [
                                    {
                                        "name": "trader",
                                        "type": "address",
                                        "value": "0x4b798306763d6d89e5cb11e6e859462bf4e8062a"
                                    },
                                    {
                                        "name": "side",
                                        "type": "uint8",
                                        "value": "0"
                                    },
                                    {
                                        "name": "matchingPolicy",
                                        "type": "address",
                                        "value": "0x0000000000dab4a563819e8fd93dba3b25bc3495"
                                    },
                                    {
                                        "name": "collection",
                                        "type": "address",
                                        "value": "0xbd3531da5cf5857e7cfaa92426877b022e612cf8"
                                    },
                                    {
                                        "name": "tokenId",
                                        "type": "uint256",
                                        "value": "3,298"
                                    },
                                    {
                                        "name": "amount",
                                        "type": "uint256",
                                        "value": "1"
                                    },
                                    {
                                        "name": "paymentToken",
                                        "type": "address",
                                        "value": "0x0000000000000000000000000000000000000000"
                                    },
                                    {
                                        "name": "price",
                                        "type": "uint256",
                                        "value": "6,500,000,000,000,000,000"
                                    },
                                    {
                                        "name": "listingTime",
                                        "type": "uint256",
                                        "value": "1,680,936,753"
                                    },
                                    {
                                        "name": "expirationTime",
                                        "type": "uint256",
                                        "value": "1,682,474,426"
                                    },
                                    {
                                        "name": "fees",
                                        "type": "(uint16,address)[]",
                                        "value": []
                                    },
                                    {
                                        "name": "salt",
                                        "type": "uint256",
                                        "value": "128,725,226,887,309,205,444,666,831,668,234,488,415"
                                    },
                                    {
                                        "name": "extraParams",
                                        "type": "bytes",
                                        "value": "0x01"
                                    }
                                ]
                            }
                        ],
                        "constructorArguments": "",
                        "name": "canMatchMakerAsk",
                        "returnParams": [
                            {
                                "name": "",
                                "type": "bool",
                                "value": true
                            },
                            {
                                "name": "",
                                "type": "uint256",
                                "value": "6,500,000,000,000,000,000"
                            },
                            {
                                "name": "",
                                "type": "uint256",
                                "value": "3,298"
                            },
                            {
                                "name": "",
                                "type": "uint256",
                                "value": "1"
                            },
                            {
                                "name": "",
                                "type": "uint8",
                                "value": "0"
                            }
                        ],
                        "signature": "canMatchMakerAsk((address,uint8,address,address,uint256,uint256,address,uint256,uint256,uint256,(uint16,address)[],uint256,bytes),(address,uint8,address,address,uint256,uint256,address,uint256,uint256,uint256,(uint16,address)[],uint256,bytes))"
                    },
                    "errorInfo": "",
                    "fromAddress": "0x000000000000ad05ccc4f10045630fb830b95127",
                    "gasUsed": 3230,
                    "id": 6,
                    "methodDecoded": true,
                    "operation": "STATICCALL",
                    "output": "0x00000000000000000000000000000000000000000000000000000000000000010000000000000000000000000000000000000000000000005a34a38fc00a00000000000000000000000000000000000000000000000000000000000000000ce200000000000000000000000000000000000000000000000000000000000000010000000000000000000000000000000000000000000000000000000000000000",
                    "revert": false,
                    "revertMessage": "",
                    "selector": "0xd5ec8c77",
                    "status": true,
                    "value": "0"
                },
                "nodeType": 0
            },
            "7": {
                "invocation": {
                    "address": "0x1afa64e9b8e3090f2001f66d9c9a74cde646738a",
                    "callData": "0x",
                    "decodedMethod": null,
                    "errorInfo": "",
                    "fromAddress": "0x000000000000ad05ccc4f10045630fb830b95127",
                    "gasUsed": 0,
                    "id": 7,
                    "methodDecoded": false,
                    "operation": "CALL",
                    "output": "",
                    "revert": false,
                    "revertMessage": "",
                    "selector": "fallback",
                    "status": true,
                    "value": "0.0325"
                },
                "nodeType": 0
            },
            "8": {
                "invocation": {
                    "address": "0x04fa5c3869ded7d00f36f13597a2f46aee4c9220",
                    "callData": "0x",
                    "decodedMethod": null,
                    "errorInfo": "",
                    "fromAddress": "0x000000000000ad05ccc4f10045630fb830b95127",
                    "gasUsed": 0,
                    "id": 8,
                    "methodDecoded": false,
                    "operation": "CALL",
                    "output": "",
                    "revert": false,
                    "revertMessage": "",
                    "selector": "fallback",
                    "status": true,
                    "value": "6.4675"
                },
                "nodeType": 0
            },
            "9": {
                "invocation": {
                    "address": "0x00000000000111abe46ff893f3b2fdf1f759a8a8",
                    "callData": "0x000000000000000000000000bd3531da5cf5857e7cfaa92426877b022e612cf800000000000000000000000004fa5c3869ded7d00f36f13597a2f46aee4c92200000000000000000000000004b798306763d6d89e5cb11e6e859462bf4e8062a0000000000000000000000000000000000000000000000000000000000000ce2",
                    "decodedMethod": {
                        "callParams": [
                            {
                                "name": "collection",
                                "type": "address",
                                "value": "0xbd3531da5cf5857e7cfaa92426877b022e612cf8"
                            },
                            {
                                "name": "from",
                                "type": "address",
                                "value": "0x04fa5c3869ded7d00f36f13597a2f46aee4c9220"
                            },
                            {
                                "name": "to",
                                "type": "address",
                                "value": "0x4b798306763d6d89e5cb11e6e859462bf4e8062a"
                            },
                            {
                                "name": "tokenId",
                                "type": "uint256",
                                "value": "3,298"
                            }
                        ],
                        "constructorArguments": "",
                        "name": "transferERC721",
                        "returnParams": [],
                        "signature": "transferERC721(address,address,address,uint256)"
                    },
                    "errorInfo": "",
                    "fromAddress": "0x000000000000ad05ccc4f10045630fb830b95127",
                    "gasUsed": 72089,
                    "id": 9,
                    "methodDecoded": true,
                    "operation": "CALL",
                    "output": "",
                    "revert": false,
                    "revertMessage": "",
                    "selector": "0x789f93f6",
                    "status": true,
                    "value": "0"
                },
                "nodeType": 0
            }
        },
        "gasFlame": [
            {
                "children": [
                    {
                        "children": [
                            {
                                "children": [],
                                "depth": 0,
                                "name": "Initial Gas",
                                "value": 33576
                            },
                            {
                                "children": [
                                    {
                                        "children": [
                                            {
                                                "children": [],
                                                "depth": 2,
                                                "name": "ecrecover",
                                                "value": 3000
                                            },
                                            {
                                                "children": [],
                                                "depth": 2,
                                                "name": "ecrecover",
                                                "value": 3000
                                            },
                                            {
                                                "children": [],
                                                "depth": 2,
                                                "name": "ecrecover",
                                                "value": 3000
                                            },
                                            {
                                                "children": [],
                                                "depth": 2,
                                                "name": "isPolicyWhitelisted",
                                                "value": 2666
                                            },
                                            {
                                                "children": [],
                                                "depth": 2,
                                                "name": "canMatchMakerAsk",
                                                "value": 3230
                                            },
                                            {
                                                "children": [],
                                                "depth": 2,
                                                "name": "fallback",
                                                "value": 0
                                            },
                                            {
                                                "children": [],
                                                "depth": 2,
                                                "name": "fallback",
                                                "value": 0
                                            },
                                            {
                                                "children": [
                                                    {
                                                        "children": [],
                                                        "depth": 3,
                                                        "name": "safeTransferFrom",
                                                        "value": 64168
                                                    }
                                                ],
                                                "depth": 2,
                                                "name": "transferERC721",
                                                "value": 72089
                                            }
                                        ],
                                        "depth": 1,
                                        "name": "execute",
                                        "value": 290465
                                    }
                                ],
                                "depth": 0,
                                "name": "Executed Gas",
                                "value": 295693
                            }
                        ],
                        "depth": -1,
                        "name": "Actual Gas Used",
                        "value": 264769
                    },
                    {
                        "children": [],
                        "depth": -1,
                        "name": "Refunded Gas",
                        "value": 64500
                    }
                ],
                "depth": -2,
                "name": "Total Gas",
                "value": 329269
            }
        ],
        "isConfirmed": true,
        "mainTrace": [
            {
                "children": [
                    {
                        "children": [
                            {
                                "children": [
                                    {
                                        "children": [],
                                        "depth": 2,
                                        "id": 2,
                                        "order": 2
                                    },
                                    {
                                        "children": [],
                                        "depth": 2,
                                        "id": 3,
                                        "order": 3
                                    },
                                    {
                                        "children": [],
                                        "depth": 2,
                                        "id": 4,
                                        "order": 4
                                    },
                                    {
                                        "children": [],
                                        "depth": 2,
                                        "id": 5,
                                        "order": 5
                                    },
                                    {
                                        "children": [],
                                        "depth": 2,
                                        "id": 6,
                                        "order": 6
                                    },
                                    {
                                        "children": [],
                                        "depth": 2,
                                        "id": 7,
                                        "order": 7
                                    },
                                    {
                                        "children": [],
                                        "depth": 2,
                                        "id": 8,
                                        "order": 8
                                    },
                                    {
                                        "children": [
                                            {
                                                "children": [
                                                    {
                                                        "children": [],
                                                        "depth": 4,
                                                        "id": 11,
                                                        "order": 11
                                                    },
                                                    {
                                                        "children": [],
                                                        "depth": 4,
                                                        "id": 12,
                                                        "order": 12
                                                    }
                                                ],
                                                "depth": 3,
                                                "id": 10,
                                                "order": 10
                                            }
                                        ],
                                        "depth": 2,
                                        "id": 9,
                                        "order": 9
                                    },
                                    {
                                        "children": [],
                                        "depth": 2,
                                        "id": 13,
                                        "order": 13
                                    }
                                ],
                                "depth": 1,
                                "id": 1,
                                "order": 1
                            }
                        ],
                        "depth": 0,
                        "id": 0,
                        "order": 0
                    }
                ],
                "depth": -1,
                "id": -1,
                "order": -1
            }
        ],
        "mainTraceNodeCount": 14,
        "parentIdMap": {
            "0": -1,
            "1": 0,
            "10": 9,
            "11": 10,
            "12": 10,
            "13": 1,
            "2": 1,
            "3": 1,
            "4": 1,
            "5": 1,
            "6": 1,
            "7": 1,
            "8": 1,
            "9": 1
        },
        "tidyTrace": [
            {
                "children": [
                    {
                        "children": [
                            {
                                "children": [
                                    {
                                        "children": [],
                                        "depth": 2,
                                        "id": 7,
                                        "order": 7
                                    },
                                    {
                                        "children": [],
                                        "depth": 2,
                                        "id": 8,
                                        "order": 8
                                    },
                                    {
                                        "children": [
                                            {
                                                "children": [
                                                    {
                                                        "children": [],
                                                        "depth": 4,
                                                        "id": 11,
                                                        "order": 11
                                                    },
                                                    {
                                                        "children": [],
                                                        "depth": 4,
                                                        "id": 12,
                                                        "order": 12
                                                    }
                                                ],
                                                "depth": 3,
                                                "id": 10,
                                                "order": 10
                                            }
                                        ],
                                        "depth": 2,
                                        "id": 9,
                                        "order": 9
                                    },
                                    {
                                        "children": [],
                                        "depth": 2,
                                        "id": 13,
                                        "order": 13
                                    }
                                ],
                                "depth": 1,
                                "id": 1,
                                "order": 1
                            }
                        ],
                        "depth": 0,
                        "id": 0,
                        "order": 0
                    }
                ],
                "depth": -1,
                "id": -1,
                "order": -1
            }
        ],
        "tidyTraceNodeCount": 9
    },
    "state_change": {
        "stateChanges": [
            {
                "address": "0x000000000000ad05ccc4f10045630fb830b95127",
                "erc": "",
                "slots": [
                    {
                        "current": "0x0000000000000000000000000000000000000000000000000000000000000001",
                        "key": "0xf6d2813874cbee90ac89b7003296d2d0aee400823c390516f56c3310a472d069",
                        "prev": "0x0000000000000000000000000000000000000000000000000000000000000000"
                    },
                    {
                        "current": "0x0000000000000000000000000000000000000000000000000000000000000001",
                        "key": "0xbc7f11c91b43fbb380e93960bda28a4bb3183ec46ac63f2386a93116c5d4cfb3",
                        "prev": "0x0000000000000000000000000000000000000000000000000000000000000000"
                    }
                ],
                "storageVariables": [
                    {
                        "name": "cancelledOrFilled",
                        "type": "mapping(bytes32 => bool)",
                        "value": {
                            "pairs": [
                                {
                                    "key": "0x0d5340c1eb6accc8990e6b7ee9ed4b90726a2adbba086819d6ee82c2863d768f",
                                    "value": {
                                        "current": "true",
                                        "prev": "false",
                                        "typeTag": 1
                                    }
                                },
                                {
                                    "key": "0xe3819477ae0862b383ad782e2387d0e670b14308d52759cdcfbb9b126eff279e",
                                    "value": {
                                        "current": "true",
                                        "prev": "false",
                                        "typeTag": 1
                                    }
                                }
                            ],
                            "typeTag": 4
                        }
                    }
                ]
            },
            {
                "address": "0xbd3531da5cf5857e7cfaa92426877b022e612cf8",
                "erc": "ERC-721",
                "slots": [
                    {
                        "current": "0x0000000000000000000000000000000000000000000000000000000000000000",
                        "key": "0xc18949b195a3a17d162b7a46ffc3da0196df3ba3a448dd6188d1746ed847850a",
                        "prev": "0x0000000000000000000000000000000000000000000000000000000000000ce2"
                    },
                    {
                        "current": "0x0000000000000000000000000000000000000000000000000000000000000ce2",
                        "key": "0xe1a7b76eb866c41e45426e1696a0178043897b33cab9ba391f15e0ea90c6ff8a",
                        "prev": "0x0000000000000000000000000000000000000000000000000000000000000000"
                    },
                    {
                        "current": "0x0000000000000000000000000000000000000000000000000000000000000002",
                        "key": "0xdcdf982c61e8b33316b6692146388269de4fe0b7e2d331f7ee3b02d50cdbb72d",
                        "prev": "0x0000000000000000000000000000000000000000000000000000000000000003"
                    },
                    {
                        "current": "0x0000000000000000000000000000000000000000000000000000000000000002",
                        "key": "0x6b3ac6afbea37fe4a7605f2b240348ad33d0d1a2275b1f831dfa12c0b6c5747e",
                        "prev": "0x0000000000000000000000000000000000000000000000000000000000000001"
                    },
                    {
                        "current": "0x0000000000000000000000004b798306763d6d89e5cb11e6e859462bf4e8062a",
                        "key": "0xbfef7652e3be4737aa3d3dff96e7d284b97f477a6c0a2b37a9d1b82314beabc3",
                        "prev": "0x00000000000000000000000004fa5c3869ded7d00f36f13597a2f46aee4c9220"
                    },
                    {
                        "current": "0x0000000000000000000000000000000000000000000000000000000000000001",
                        "key": "0xbd14d66879478834c12507a85eff12f9db75cc5f7198ab66edbe7aa99c15b751",
                        "prev": "0x0000000000000000000000000000000000000000000000000000000000000002"
                    }
                ],
                "storageVariables": [
                    {
                        "name": "_ownedTokens",
                        "type": "mapping(address => mapping(uint256 => uint256))",
                        "value": {
                            "pairs": [
                                {
                                    "key": "0x04fa5c3869ded7d00f36f13597a2f46aee4c9220",
                                    "value": {
                                        "pairs": [
                                            {
                                                "key": "2",
                                                "value": {
                                                    "current": "0",
                                                    "prev": "3298",
                                                    "typeTag": 1
                                                }
                                            }
                                        ],
                                        "typeTag": 4
                                    }
                                },
                                {
                                    "key": "0x4b798306763d6d89e5cb11e6e859462bf4e8062a",
                                    "value": {
                                        "pairs": [
                                            {
                                                "key": "1",
                                                "value": {
                                                    "current": "3298",
                                                    "prev": "0",
                                                    "typeTag": 1
                                                }
                                            }
                                        ],
                                        "typeTag": 4
                                    }
                                }
                            ],
                            "typeTag": 4
                        }
                    },
                    {
                        "name": "_balances",
                        "type": "mapping(address => uint256)",
                        "value": {
                            "pairs": [
                                {
                                    "key": "0x04fa5c3869ded7d00f36f13597a2f46aee4c9220",
                                    "value": {
                                        "current": "2",
                                        "prev": "3",
                                        "typeTag": 1
                                    }
                                },
                                {
                                    "key": "0x4b798306763d6d89e5cb11e6e859462bf4e8062a",
                                    "value": {
                                        "current": "2",
                                        "prev": "1",
                                        "typeTag": 1
                                    }
                                }
                            ],
                            "typeTag": 4
                        }
                    },
                    {
                        "name": "_owners",
                        "type": "mapping(uint256 => address)",
                        "value": {
                            "pairs": [
                                {
                                    "key": "3298",
                                    "value": {
                                        "current": "0x4b798306763d6d89e5cb11e6e859462bf4e8062a",
                                        "prev": "0x04fa5c3869ded7d00f36f13597a2f46aee4c9220",
                                        "typeTag": 1
                                    }
                                }
                            ],
                            "typeTag": 4
                        }
                    },
                    {
                        "name": "_ownedTokensIndex",
                        "type": "mapping(uint256 => uint256)",
                        "value": {
                            "pairs": [
                                {
                                    "key": "3298",
                                    "value": {
                                        "current": "1",
                                        "prev": "2",
                                        "typeTag": 1
                                    }
                                }
                            ],
                            "typeTag": 4
                        }
                    }
                ]
            }
        ]
    }
}