{
    "balance_change": {
        "balanceChanges": [
            {
                "account": "0x69cdb2d1f6fdaec3d2cc35e7649004011aad81a8",
                "assets": [
                    {
                        "address": "0xeeeeeeeeeeeeeeeeeeeeeeeeeeeeeeeeeeeeeeee",
                        "amount": "0.5",
                        "iconUrl": "https://assets.blocksec.com/image/1663669189317-3.png",
                        "isERC1155": false,
                        "isERC721": false,
                        "sign": false,
                        "value": "1159.597781"
                    },
                    {
                        "address": "0x5218e472cfcfe0b64a064f055b43b4cdc9efd3a6",
                        "amount": "1,709.178469714865714854",
                        "iconUrl": "https://assets.blocksec.com/icon/98c61d8ed239025130d41b9a3cd33240a382065291aafaa8025d30e5655a0954.png",
                        "isERC1155": false,
                        "isERC721": false,
                        "sign": true,
                        "value": "1142.427454"
                    }
                ]
            },
            {
                "account": "0x11ededebf63bef0ea2d2d071bdf88f71543ec6fb",
                "assets": [
                    {
                        "address": "0xeeeeeeeeeeeeeeeeeeeeeeeeeeeeeeeeeeeeeeee",
                        "amount": "0.004375",
                        "iconUrl": "https://assets.blocksec.com/image/1663669189317-3.png",
                        "isERC1155": false,
                        "isERC721": false,
                        "sign": true,
                        "value": "10.14648058"
                    }
                ]
            },
            {
                "account": "0x7ba9b94127d434182287de708643932ec036d365",
                "assets": [
                    {
                        "address": "0xc02aaa39b223fe8d0a0e5c4f27ead9083c756cc2",
                        "amount": "0.495625",
                        "iconUrl": "https://assets.blocksec.com/icon/f1cb2d02c471d545bbc7722daf3277fd852d98e63d118771af7047bd8256c516.png",
                        "isERC1155": false,
                        "isERC721": false,
                        "sign": true,
                        "value": "1149.4513"
                    },
                    {
                        "address": "0x5218e472cfcfe0b64a064f055b43b4cdc9efd3a6",
                        "amount": "1,709.178469714865714854",
                        "iconUrl": "https://assets.blocksec.com/icon/98c61d8ed239025130d41b9a3cd33240a382065291aafaa8025d30e5655a0954.png",
                        "isERC1155": false,
                        "isERC721": false,
                        "sign": false,
                        "value": "1142.427454"
                    }
                ]
            },
            {
                "account": "0xc02aaa39b223fe8d0a0e5c4f27ead9083c756cc2",
                "assets": [
                    {
                        "address": "0xeeeeeeeeeeeeeeeeeeeeeeeeeeeeeeeeeeeeeeee",
                        "amount": "0.495625",
                        "iconUrl": "https://assets.blocksec.com/image/1663669189317-3.png",
                        "isERC1155": false,
                        "isERC721": false,
                        "sign": true,
                        "value": "1149.4513"
                    },
                    {
                        "address": "0xc02aaa39b223fe8d0a0e5c4f27ead9083c756cc2",
                        "amount": "0.495625",
                        "iconUrl": "https://assets.blocksec.com/icon/f1cb2d02c471d545bbc7722daf3277fd852d98e63d118771af7047bd8256c516.png",
                        "isERC1155": false,
                        "isERC721": false,
                        "sign": false,
                        "value": "1149.4513"
                    }
                ]
            }
        ]
    },
    "profile": {
        "basic_info": {
            "baseFee": "",
            "blockNumber": 12297526,
            "callData": "0x5f5755290000000000000000000000000000000000000000000000000000000000000080000000000000000000000000000000000000000000000000000000000000000000000000000000000000000000000000000000000000000006f05b59d3b2000000000000000000000000000000000000000000000000000000000000000000c000000000000000000000000000000000000000000000000000000000000000096f6e65496e63685633000000000000000000000000000000000000000000000000000000000000000000000000000000000000000000000000000000000001e000000000000000000000000000000000000000000000000000000000000000000000000000000000000000005218e472cfcfe0b64a064f055b43b4cdc9efd3a600000000000000000000000000000000000000000000000006e0d04fc2cd9000000000000000000000000000000000000000000000000059dfbf5b2e909f7d000000000000000000000000000000000000000000000000000000000000000100000000000000000000000000000000000000000000000000000f8b0a10e4700000000000000000000000000011ededebf63bef0ea2d2d071bdf88f71543ec6fb00000000000000000000000000000000000000000000000000000000000000c42e95b6c8000000000000000000000000000000000000000000000000000000000000000000000000000000000000000000000000000000000000000006e0d04fc2cd9000000000000000000000000000000000000000000000000059dfbf5b2e909f7d000000000000000000000000000000000000000000000000000000000000000080000000000000000000000000000000000000000000000000000000000000000180000000000000003b6d03407ba9b94127d434182287de708643932ec036d36500000000000000000000000000000000000000000000000000000000d5",
            "debugEnable": true,
            "errorInfo": "",
            "eventCount": 7,
            "feeRecipient": "0x5a0b54d5dc17e0aadc383d2db43b0a0d3e029c4c",
            "formatValue": "0.5",
            "gasLimit": 224312,
            "gasPrice": "95",
            "gasUsed": 155785,
            "intTxnCount": 13,
            "internalRevert": false,
            "internalRevertMessage": "",
            "isContractCreation": false,
            "isFlashloan": false,
            "maxFee": "",
            "nonce": 8,
            "overwritedBlockNumber": -1,
            "priorityFee": "",
            "receiver": "0x881d40237659c251811cec9c364ef91dc08d300c",
            "revertMessage": "",
            "sender": "0x69cdb2d1f6fdaec3d2cc35e7649004011aad81a8",
            "simulationEnable": true,
            "sourceTxnHash": "0x1d211cd64ce3f6b51073c318ba96556b85ea89e9df868ea21757977f78c24c29",
            "status": true,
            "timestamp": "2021-04-23T16:25:30Z",
            "transactionFee": "0.014799575",
            "txnHash": "0x1d211cd64ce3f6b51073c318ba96556b85ea89e9df868ea21757977f78c24c29",
            "txnIndex": 173,
            "type": 0,
            "value": "500000000000000000"
        },
        "fund_flow": [
            {
                "amount": "0.5",
                "from": "0x69cdb2d1f6fdaec3d2cc35e7649004011aad81a8",
                "id": 1,
                "isERC1155": false,
                "isERC721": false,
                "isReverted": false,
                "order": 1,
                "to": "0x881d40237659c251811cec9c364ef91dc08d300c",
                "token": "0xeeeeeeeeeeeeeeeeeeeeeeeeeeeeeeeeeeeeeeee"
            },
            {
                "amount": "0.5",
                "from": "0x881d40237659c251811cec9c364ef91dc08d300c",
                "id": 2,
                "isERC1155": false,
                "isERC721": false,
                "isReverted": false,
                "order": 2,
                "to": "0x74de5d4fcbf63e00296fd95d33236b9794016631",
                "token": "0xeeeeeeeeeeeeeeeeeeeeeeeeeeeeeeeeeeeeeeee"
            },
            {
                "amount": "0.004375",
                "from": "0x74de5d4fcbf63e00296fd95d33236b9794016631",
                "id": 3,
                "isERC1155": false,
                "isERC721": false,
                "isReverted": false,
                "order": 3,
                "to": "0x11ededebf63bef0ea2d2d071bdf88f71543ec6fb",
                "token": "0xeeeeeeeeeeeeeeeeeeeeeeeeeeeeeeeeeeeeeeee"
            },
            {
                "amount": "0.495625",
                "from": "0x74de5d4fcbf63e00296fd95d33236b9794016631",
                "id": 4,
                "isERC1155": false,
                "isERC721": false,
                "isReverted": false,
                "order": 4,
                "to": "0x11111112542d85b3ef69ae05771c2dccff4faa26",
                "token": "0xeeeeeeeeeeeeeeeeeeeeeeeeeeeeeeeeeeeeeeee"
            },
            {
                "amount": "0.495625",
                "from": "0x11111112542d85b3ef69ae05771c2dccff4faa26",
                "id": 5,
                "isERC1155": false,
                "isERC721": false,
                "isReverted": false,
                "order": 5,
                "to": "0xc02aaa39b223fe8d0a0e5c4f27ead9083c756cc2",
                "token": "0xeeeeeeeeeeeeeeeeeeeeeeeeeeeeeeeeeeeeeeee"
            },
            {
                "amount": "0.495625",
                "from": "0xc02aaa39b223fe8d0a0e5c4f27ead9083c756cc2",
                "id": 6,
                "isERC1155": false,
                "isERC721": false,
                "isReverted": false,
                "order": 6,
                "to": "0x11111112542d85b3ef69ae05771c2dccff4faa26",
                "token": "0xc02aaa39b223fe8d0a0e5c4f27ead9083c756cc2"
            },
            {
                "amount": "0.495625",
                "from": "0x11111112542d85b3ef69ae05771c2dccff4faa26",
                "id": 7,
                "isERC1155": false,
                "isERC721": false,
                "isReverted": false,
                "order": 7,
                "to": "0x7ba9b94127d434182287de708643932ec036d365",
                "token": "0xc02aaa39b223fe8d0a0e5c4f27ead9083c756cc2"
            },
            {
                "amount": "1,709.178469714865714854",
                "from": "0x7ba9b94127d434182287de708643932ec036d365",
                "id": 8,
                "isERC1155": false,
                "isERC721": false,
                "isReverted": false,
                "order": 8,
                "to": "0x74de5d4fcbf63e00296fd95d33236b9794016631",
                "token": "0x5218e472cfcfe0b64a064f055b43b4cdc9efd3a6"
            },
            {
                "amount": "1,709.178469714865714854",
                "from": "0x74de5d4fcbf63e00296fd95d33236b9794016631",
                "id": 9,
                "isERC1155": false,
                "isERC721": false,
                "isReverted": false,
                "order": 9,
                "to": "0x69cdb2d1f6fdaec3d2cc35e7649004011aad81a8",
                "token": "0x5218e472cfcfe0b64a064f055b43b4cdc9efd3a6"
            }
        ],
        "token_infos": [
            {
                "address": "0x5218e472cfcfe0b64a064f055b43b4cdc9efd3a6",
                "decimals": 18
            },
            {
                "address": "0xc02aaa39b223fe8d0a0e5c4f27ead9083c756cc2",
                "decimals": 18
            },
            {
                "address": "0xeeeeeeeeeeeeeeeeeeeeeeeeeeeeeeeeeeeeeeee",
                "decimals": 18
            }
        ]
    },
    "address_label": {
        "labels": [
            {
                "address": "0x881d40237659c251811cec9c364ef91dc08d300c",
                "label": "Metamask: Swap Router"
            },
            {
                "address": "0x5218e472cfcfe0b64a064f055b43b4cdc9efd3a6",
                "label": "UnFederalReserve: eRSDL Token"
            },
            {
                "address": "0x0000000000000000000000000000000000000003",
                "label": "Precompiled"
            },
            {
                "address": "0x0000000000000000000000000000000000000004",
                "label": "Precompiled"
            },
            {
                "address": "0xeeeeeeeeeeeeeeeeeeeeeeeeeeeeeeeeeeeeeeee",
                "label": "Ether"
            },
            {
                "address": "0x11ededebf63bef0ea2d2d071bdf88f71543ec6fb",
                "label": "Metamask: Fees"
            },
            {
                "address": "0xc02aaa39b223fe8d0a0e5c4f27ead9083c756cc2",
                "label": "Wrapped Ether (WETH)"
            },
            {
                "address": "0x0000000000000000000000000000000000000000",
                "label": "Null Address"
            },
            {
                "address": "0x0000000000000000000000000000000000000001",
                "label": "Precompiled"
            },
            {
                "address": "0x7ba9b94127d434182287de708643932ec036d365",
                "label": "Uniswap V2: eRSDL 2"
            },
            {
                "address": "0x11111112542d85b3ef69ae05771c2dccff4faa26",
                "label": "1inch v3: Aggregation Router"
            },
            {
                "address": "0x74de5d4fcbf63e00296fd95d33236b9794016631",
                "label": "MetaMask: Swaps Spender"
            },
            {
                "address": "0x0000000000000000000000000000000000000002",
                "label": "Precompiled"
            }
        ]
    },
    "trace": {
        "accountLabels": null,
        "dataMap": {
            "-1": {
                "invocation": {
                    "address": "0x69cdb2d1f6fdaec3d2cc35e7649004011aad81a8",
                    "callData": "",
                    "decodedMethod": null,
                    "errorInfo": "",
                    "fromAddress": "",
                    "gasUsed": 0,
                    "id": -1,
                    "methodDecoded": false,
                    "operation": "",
                    "output": "",
                    "revert": false,
                    "revertMessage": "",
                    "selector": "",
                    "status": false,
                    "value": ""
                },
                "nodeType": 0
            },
            "0": {
                "invocation": {
                    "address": "0x881d40237659c251811cec9c364ef91dc08d300c",
                    "callData": "0x0000000000000000000000000000000000000000000000000000000000000080000000000000000000000000000000000000000000000000000000000000000000000000000000000000000000000000000000000000000006f05b59d3b2000000000000000000000000000000000000000000000000000000000000000000c000000000000000000000000000000000000000000000000000000000000000096f6e65496e63685633000000000000000000000000000000000000000000000000000000000000000000000000000000000000000000000000000000000001e000000000000000000000000000000000000000000000000000000000000000000000000000000000000000005218e472cfcfe0b64a064f055b43b4cdc9efd3a600000000000000000000000000000000000000000000000006e0d04fc2cd9000000000000000000000000000000000000000000000000059dfbf5b2e909f7d000000000000000000000000000000000000000000000000000000000000000100000000000000000000000000000000000000000000000000000f8b0a10e4700000000000000000000000000011ededebf63bef0ea2d2d071bdf88f71543ec6fb00000000000000000000000000000000000000000000000000000000000000c42e95b6c8000000000000000000000000000000000000000000000000000000000000000000000000000000000000000000000000000000000000000006e0d04fc2cd9000000000000000000000000000000000000000000000000059dfbf5b2e909f7d000000000000000000000000000000000000000000000000000000000000000080000000000000000000000000000000000000000000000000000000000000000180000000000000003b6d03407ba9b94127d434182287de708643932ec036d36500000000000000000000000000000000000000000000000000000000d5",
                    "decodedMethod": {
                        "callParams": [
                            {
                                "name": "aggregatorId",
                                "type": "string",
                                "value": "oneInchV3"
                            },
                            {
                                "name": "tokenFrom",
                                "type": "address",
                                "value": "0x0000000000000000000000000000000000000000"
                            },
                            {
                                "name": "amount",
                                "type": "uint256",
                                "value": "500,000,000,000,000,000"
                            },
                            {
                                "name": "data",
                                "type": "bytes",
                                "value": "0x00000000000000000000000000000000000000000000000000000000000000000000000000000000000000005218e472cfcfe0b64a064f055b43b4cdc9efd3a600000000000000000000000000000000000000000000000006e0d04fc2cd9000000000000000000000000000000000000000000000000059dfbf5b2e909f7d000000000000000000000000000000000000000000000000000000000000000100000000000000000000000000000000000000000000000000000f8b0a10e4700000000000000000000000000011ededebf63bef0ea2d2d071bdf88f71543ec6fb00000000000000000000000000000000000000000000000000000000000000c42e95b6c8000000000000000000000000000000000000000000000000000000000000000000000000000000000000000000000000000000000000000006e0d04fc2cd9000000000000000000000000000000000000000000000000059dfbf5b2e909f7d000000000000000000000000000000000000000000000000000000000000000080000000000000000000000000000000000000000000000000000000000000000180000000000000003b6d03407ba9b94127d434182287de708643932ec036d36500000000000000000000000000000000000000000000000000000000"
                            }
                        ],
                        "constructorArguments": "",
                        "name": "swap",
                        "returnParams": [],
                        "signature": "swap(string,address,uint256,bytes)"
                    },
                    "errorInfo": "",
                    "fromAddress": "0x69cdb2d1f6fdaec3d2cc35e7649004011aad81a8",
                    "gasUsed": 155785,
                    "id": 0,
                    "methodDecoded": true,
                    "operation": "CALL",
                    "output": "",
                    "revert": false,
                    "revertMessage": "",
                    "selector": "0x5f575529",
                    "status": true,
                    "value": "0.5"
                },
                "nodeType": 0
            },
            "1": {
                "invocation": {
                    "address": "0x74de5d4fcbf63e00296fd95d33236b9794016631",
                    "callData": "0x000000000000000000000000d2742961d645218fbe0b50227c9b074d4fec493700000000000000000000000000000000000000000000000000000000000000400000000000000000000000000000000000000000000000000000000000000204242fb09f00000000000000000000000069cdb2d1f6fdaec3d2cc35e7649004011aad81a800000000000000000000000000000000000000000000000000000000000000000000000000000000000000005218e472cfcfe0b64a064f055b43b4cdc9efd3a600000000000000000000000000000000000000000000000006e0d04fc2cd9000000000000000000000000000000000000000000000000059dfbf5b2e909f7d000000000000000000000000000000000000000000000000000000000000000100000000000000000000000000000000000000000000000000000f8b0a10e4700000000000000000000000000011ededebf63bef0ea2d2d071bdf88f71543ec6fb00000000000000000000000000000000000000000000000000000000000000c42e95b6c8000000000000000000000000000000000000000000000000000000000000000000000000000000000000000000000000000000000000000006e0d04fc2cd9000000000000000000000000000000000000000000000000059dfbf5b2e909f7d000000000000000000000000000000000000000000000000000000000000000080000000000000000000000000000000000000000000000000000000000000000180000000000000003b6d03407ba9b94127d434182287de708643932ec036d3650000000000000000000000000000000000000000000000000000000000000000000000000000000000000000000000000000000000000000",
                    "decodedMethod": {
                        "callParams": [
                            {
                                "name": "adapter",
                                "type": "address",
                                "value": "0xd2742961d645218fbe0b50227c9b074d4fec4937"
                            },
                            {
                                "name": "data",
                                "type": "bytes",
                                "value": "0x242fb09f00000000000000000000000069cdb2d1f6fdaec3d2cc35e7649004011aad81a800000000000000000000000000000000000000000000000000000000000000000000000000000000000000005218e472cfcfe0b64a064f055b43b4cdc9efd3a600000000000000000000000000000000000000000000000006e0d04fc2cd9000000000000000000000000000000000000000000000000059dfbf5b2e909f7d000000000000000000000000000000000000000000000000000000000000000100000000000000000000000000000000000000000000000000000f8b0a10e4700000000000000000000000000011ededebf63bef0ea2d2d071bdf88f71543ec6fb00000000000000000000000000000000000000000000000000000000000000c42e95b6c8000000000000000000000000000000000000000000000000000000000000000000000000000000000000000000000000000000000000000006e0d04fc2cd9000000000000000000000000000000000000000000000000059dfbf5b2e909f7d000000000000000000000000000000000000000000000000000000000000000080000000000000000000000000000000000000000000000000000000000000000180000000000000003b6d03407ba9b94127d434182287de708643932ec036d36500000000000000000000000000000000000000000000000000000000"
                            }
                        ],
                        "constructorArguments": "",
                        "name": "swap",
                        "returnParams": [],
                        "signature": "swap(address,bytes)"
                    },
                    "errorInfo": "",
                    "fromAddress": "0x881d40237659c251811cec9c364ef91dc08d300c",
                    "gasUsed": 150035,
                    "id": 1,
                    "methodDecoded": true,
                    "operation": "CALL",
                    "output": "",
                    "revert": false,
                    "revertMessage": "",
                    "selector": "0xe3547335",
                    "status": true,
                    "value": "0.5"
                },
                "nodeType": 0
            },
            "10": {
                "invocation": {
                    "address": "0x7ba9b94127d434182287de708643932ec036d365",
                    "callData": "0x00000000000000000000000000000000000000000000005ca79dba970c5076a6000000000000000000000000000000000000000000000000000000000000000000000000000000000000000074de5d4fcbf63e00296fd95d33236b979401663100000000000000000000000000000000000000000000000000000000000000800000000000000000000000000000000000000000000000000000000000000000",
                    "decodedMethod": {
                        "callParams": [
                            {
                                "name": "amount0Out",
                                "type": "uint256",
                                "value": "1,709,178,469,714,865,714,854"
                            },
                            {
                                "name": "amount1Out",
                                "type": "uint256",
                                "value": "0"
                            },
                            {
                                "name": "to",
                                "type": "address",
                                "value": "0x74de5d4fcbf63e00296fd95d33236b9794016631"
                            },
                            {
                                "name": "data",
                                "type": "bytes",
                                "value": "0x"
                            }
                        ],
                        "constructorArguments": "",
                        "name": "swap",
                        "returnParams": [],
                        "signature": "swap(uint256,uint256,address,bytes)"
                    },
                    "errorInfo": "",
                    "fromAddress": "0x11111112542d85b3ef69ae05771c2dccff4faa26",
                    "gasUsed": 65172,
                    "id": 10,
                    "methodDecoded": true,
                    "operation": "CALL",
                    "output": "",
                    "revert": false,
                    "revertMessage": "",
                    "selector": "0x022c0d9f",
                    "status": true,
                    "value": "0"
                },
                "nodeType": 0
            },
            "11": {
                "invocation": {
                    "address": "0x5218e472cfcfe0b64a064f055b43b4cdc9efd3a6",
                    "callData": "0x00000000000000000000000074de5d4fcbf63e00296fd95d33236b979401663100000000000000000000000000000000000000000000005ca79dba970c5076a6",
                    "decodedMethod": {
                        "callParams": [
                            {
                                "name": "recipient",
                                "type": "address",
                                "value": "0x74de5d4fcbf63e00296fd95d33236b9794016631"
                            },
                            {
                                "decimalAvailable": true,
                                "name": "amount",
                                "type": "uint256",
                                "value": "1,709,178,469,714,865,714,854"
                            }
                        ],
                        "constructorArguments": "",
                        "name": "transfer",
                        "returnParams": [
                            {
                                "name": "",
                                "type": "bool",
                                "value": true
                            }
                        ],
                        "signature": "transfer(address,uint256)"
                    },
                    "errorInfo": "",
                    "fromAddress": "0x7ba9b94127d434182287de708643932ec036d365",
                    "gasUsed": 30186,
                    "id": 11,
                    "methodDecoded": true,
                    "operation": "CALL",
                    "output": "0x0000000000000000000000000000000000000000000000000000000000000001",
                    "revert": false,
                    "revertMessage": "",
                    "selector": "0xa9059cbb",
                    "status": true,
                    "value": "0"
                },
                "nodeType": 0
            },
            "12": {
                "event": {
                    "contract": "0x5218e472cfcfe0b64a064f055b43b4cdc9efd3a6",
                    "decodedLog": {
                        "name": "Transfer",
                        "params": [
                            {
                                "name": "from",
                                "type": "address",
                                "value": "0x7ba9b94127d434182287de708643932ec036d365"
                            },
                            {
                                "name": "to",
                                "type": "address",
                                "value": "0x74de5d4fcbf63e00296fd95d33236b9794016631"
                            },
                            {
                                "decimalAvailable": true,
                                "name": "value",
                                "type": "uint256",
                                "value": "1,709,178,469,714,865,714,854"
                            }
                        ],
                        "signature": "Transfer(address,address,uint256)"
                    },
                    "id": 12,
                    "logData": "0x00000000000000000000000000000000000000000000005ca79dba970c5076a6",
                    "logDecoded": true,
                    "operation": "EVENT",
                    "revert": false,
                    "status": true,
                    "topics": [
                        "0xddf252ad1be2c89b69c2b068fc378daa952ba7f163c4a11628f55a4df523b3ef",
                        "0x0000000000000000000000007ba9b94127d434182287de708643932ec036d365",
                        "0x00000000000000000000000074de5d4fcbf63e00296fd95d33236b9794016631"
                    ]
                },
                "nodeType": 1
            },
            "13": {
                "invocation": {
                    "address": "0x5218e472cfcfe0b64a064f055b43b4cdc9efd3a6",
                    "callData": "0x0000000000000000000000007ba9b94127d434182287de708643932ec036d365",
                    "decodedMethod": {
                        "callParams": [
                            {
                                "name": "account",
                                "type": "address",
                                "value": "0x7ba9b94127d434182287de708643932ec036d365"
                            }
                        ],
                        "constructorArguments": "",
                        "name": "balanceOf",
                        "returnParams": [
                            {
                                "decimalAvailable": true,
                                "name": "",
                                "type": "uint256",
                                "value": "28,362,476,300,035,876,260,036,630"
                            }
                        ],
                        "signature": "balanceOf(address)"
                    },
                    "errorInfo": "",
                    "fromAddress": "0x7ba9b94127d434182287de708643932ec036d365",
                    "gasUsed": 629,
                    "id": 13,
                    "methodDecoded": true,
                    "operation": "STATICCALL",
                    "output": "0x0000000000000000000000000000000000000000001775fcebcbcadfd88a4016",
                    "revert": false,
                    "revertMessage": "",
                    "selector": "0x70a08231",
                    "status": true,
                    "value": "0"
                },
                "nodeType": 0
            },
            "14": {
                "invocation": {
                    "address": "0xc02aaa39b223fe8d0a0e5c4f27ead9083c756cc2",
                    "callData": "0x0000000000000000000000007ba9b94127d434182287de708643932ec036d365",
                    "decodedMethod": {
                        "callParams": [
                            {
                                "name": "",
                                "type": "address",
                                "value": "0x7ba9b94127d434182287de708643932ec036d365"
                            }
                        ],
                        "constructorArguments": "",
                        "name": "balanceOf",
                        "returnParams": [
                            {
                                "decimalAvailable": true,
                                "name": "",
                                "type": "uint256",
                                "value": "8,200,330,286,850,566,911,531"
                            }
                        ],
                        "signature": "balanceOf(address)"
                    },
                    "errorInfo": "",
                    "fromAddress": "0x7ba9b94127d434182287de708643932ec036d365",
                    "gasUsed": 534,
                    "id": 14,
                    "methodDecoded": true,
                    "operation": "STATICCALL",
                    "output": "0x0000000000000000000000000000000000000000000001bc8a7194adbd25f62b",
                    "revert": false,
                    "revertMessage": "",
                    "selector": "0x70a08231",
                    "status": true,
                    "value": "0"
                },
                "nodeType": 0
            },
            "15": {
                "event": {
                    "contract": "0x7ba9b94127d434182287de708643932ec036d365",
                    "decodedLog": {
                        "name": "Sync",
                        "params": [
                            {
                                "name": "reserve0",
                                "type": "uint112",
                                "value": "28,362,476,300,035,876,260,036,630"
                            },
                            {
                                "name": "reserve1",
                                "type": "uint112",
                                "value": "8,200,330,286,850,566,911,531"
                            }
                        ],
                        "signature": "Sync(uint112,uint112)"
                    },
                    "id": 15,
                    "logData": "0x0000000000000000000000000000000000000000001775fcebcbcadfd88a40160000000000000000000000000000000000000000000001bc8a7194adbd25f62b",
                    "logDecoded": true,
                    "operation": "EVENT",
                    "revert": false,
                    "status": true,
                    "topics": [
                        "0x1c411e9a96e071241c2f21f7726b17ae89e3cab4c78be50e062b03a9fffbbad1"
                    ]
                },
                "nodeType": 1
            },
            "16": {
                "event": {
                    "contract": "0x7ba9b94127d434182287de708643932ec036d365",
                    "decodedLog": {
                        "name": "Swap",
                        "params": [
                            {
                                "name": "sender",
                                "type": "address",
                                "value": "0x11111112542d85b3ef69ae05771c2dccff4faa26"
                            },
                            {
                                "name": "to",
                                "type": "address",
                                "value": "0x74de5d4fcbf63e00296fd95d33236b9794016631"
                            },
                            {
                                "name": "amount0In",
                                "type": "uint256",
                                "value": "0"
                            },
                            {
                                "name": "amount1In",
                                "type": "uint256",
                                "value": "495,625,000,000,000,000"
                            },
                            {
                                "name": "amount0Out",
                                "type": "uint256",
                                "value": "1,709,178,469,714,865,714,854"
                            },
                            {
                                "name": "amount1Out",
                                "type": "uint256",
                                "value": "0"
                            }
                        ],
                        "signature": "Swap(address,uint256,uint256,uint256,uint256,address)"
                    },
                    "id": 16,
                    "logData": "0x000000000000000000000000000000000000000000000000000000000000000000000000000000000000000000000000000000000000000006e0d04fc2cd900000000000000000000000000000000000000000000000005ca79dba970c5076a60000000000000000000000000000000000000000000000000000000000000000",
                    "logDecoded": true,
                    "operation": "EVENT",
                    "revert": false,
                    "status": true,
                    "topics": [
                        "0xd78ad95fa46c994b6551d0da85fc275fe613ce37657fb8d5e3d130840159d822",
                        "0x00000000000000000000000011111112542d85b3ef69ae05771c2dccff4faa26",
                        "0x00000000000000000000000074de5d4fcbf63e00296fd95d33236b9794016631"
                    ]
                },
                "nodeType": 1
            },
            "17": {
                "invocation": {
                    "address": "0x5218e472cfcfe0b64a064f055b43b4cdc9efd3a6",
                    "callData": "0x00000000000000000000000074de5d4fcbf63e00296fd95d33236b9794016631",
                    "decodedMethod": {
                        "callParams": [
                            {
                                "name": "account",
                                "type": "address",
                                "value": "0x74de5d4fcbf63e00296fd95d33236b9794016631"
                            }
                        ],
                        "constructorArguments": "",
                        "name": "balanceOf",
                        "returnParams": [
                            {
                                "decimalAvailable": true,
                                "name": "",
                                "type": "uint256",
                                "value": "1,709,178,469,714,865,714,854"
                            }
                        ],
                        "signature": "balanceOf(address)"
                    },
                    "errorInfo": "",
                    "fromAddress": "0x74de5d4fcbf63e00296fd95d33236b9794016631",
                    "gasUsed": 629,
                    "id": 17,
                    "methodDecoded": true,
                    "operation": "STATICCALL",
                    "output": "0x00000000000000000000000000000000000000000000005ca79dba970c5076a6",
                    "revert": false,
                    "revertMessage": "",
                    "selector": "0x70a08231",
                    "status": true,
                    "value": "0"
                },
                "nodeType": 0
            },
            "18": {
                "invocation": {
                    "address": "0x5218e472cfcfe0b64a064f055b43b4cdc9efd3a6",
                    "callData": "0x00000000000000000000000069cdb2d1f6fdaec3d2cc35e7649004011aad81a800000000000000000000000000000000000000000000005ca79dba970c5076a6",
                    "decodedMethod": {
                        "callParams": [
                            {
                                "name": "recipient",
                                "type": "address",
                                "value": "0x69cdb2d1f6fdaec3d2cc35e7649004011aad81a8"
                            },
                            {
                                "decimalAvailable": true,
                                "name": "amount",
                                "type": "uint256",
                                "value": "1,709,178,469,714,865,714,854"
                            }
                        ],
                        "constructorArguments": "",
                        "name": "transfer",
                        "returnParams": [
                            {
                                "name": "",
                                "type": "bool",
                                "value": true
                            }
                        ],
                        "signature": "transfer(address,uint256)"
                    },
                    "errorInfo": "",
                    "fromAddress": "0x74de5d4fcbf63e00296fd95d33236b9794016631",
                    "gasUsed": 8286,
                    "id": 18,
                    "methodDecoded": true,
                    "operation": "CALL",
                    "output": "0x0000000000000000000000000000000000000000000000000000000000000001",
                    "revert": false,
                    "revertMessage": "",
                    "selector": "0xa9059cbb",
                    "status": true,
                    "value": "0"
                },
                "nodeType": 0
            },
            "19": {
                "event": {
                    "contract": "0x5218e472cfcfe0b64a064f055b43b4cdc9efd3a6",
                    "decodedLog": {
                        "name": "Transfer",
                        "params": [
                            {
                                "name": "from",
                                "type": "address",
                                "value": "0x74de5d4fcbf63e00296fd95d33236b9794016631"
                            },
                            {
                                "name": "to",
                                "type": "address",
                                "value": "0x69cdb2d1f6fdaec3d2cc35e7649004011aad81a8"
                            },
                            {
                                "decimalAvailable": true,
                                "name": "value",
                                "type": "uint256",
                                "value": "1,709,178,469,714,865,714,854"
                            }
                        ],
                        "signature": "Transfer(address,address,uint256)"
                    },
                    "id": 19,
                    "logData": "0x00000000000000000000000000000000000000000000005ca79dba970c5076a6",
                    "logDecoded": true,
                    "operation": "EVENT",
                    "revert": false,
                    "status": true,
                    "topics": [
                        "0xddf252ad1be2c89b69c2b068fc378daa952ba7f163c4a11628f55a4df523b3ef",
                        "0x00000000000000000000000074de5d4fcbf63e00296fd95d33236b9794016631",
                        "0x00000000000000000000000069cdb2d1f6fdaec3d2cc35e7649004011aad81a8"
                    ]
                },
                "nodeType": 1
            },
            "2": {
                "invocation": {
                    "address": "0xd2742961d645218fbe0b50227c9b074d4fec4937",
                    "callData": "0x00000000000000000000000069cdb2d1f6fdaec3d2cc35e7649004011aad81a800000000000000000000000000000000000000000000000000000000000000000000000000000000000000005218e472cfcfe0b64a064f055b43b4cdc9efd3a600000000000000000000000000000000000000000000000006e0d04fc2cd9000000000000000000000000000000000000000000000000059dfbf5b2e909f7d000000000000000000000000000000000000000000000000000000000000000100000000000000000000000000000000000000000000000000000f8b0a10e4700000000000000000000000000011ededebf63bef0ea2d2d071bdf88f71543ec6fb00000000000000000000000000000000000000000000000000000000000000c42e95b6c8000000000000000000000000000000000000000000000000000000000000000000000000000000000000000000000000000000000000000006e0d04fc2cd9000000000000000000000000000000000000000000000000059dfbf5b2e909f7d000000000000000000000000000000000000000000000000000000000000000080000000000000000000000000000000000000000000000000000000000000000180000000000000003b6d03407ba9b94127d434182287de708643932ec036d36500000000000000000000000000000000000000000000000000000000",
                    "decodedMethod": null,
                    "errorInfo": "",
                    "fromAddress": "0x74de5d4fcbf63e00296fd95d33236b9794016631",
                    "gasUsed": 144999,
                    "id": 2,
                    "methodDecoded": false,
                    "operation": "DELEGATECALL",
                    "output": "",
                    "revert": false,
                    "revertMessage": "",
                    "selector": "0x242fb09f",
                    "status": true,
                    "value": "0.5"
                },
                "nodeType": 0
            },
            "20": {
                "event": {
                    "contract": "0x881d40237659c251811cec9c364ef91dc08d300c",
                    "decodedLog": {
                        "name": "Swap",
                        "params": [
                            {
                                "name": "aggregatorId",
                                "type": "string",
                                "value": "0x52b2a8c72019cec70fe7744816057066b2cdc539fd8cffc80a6d5fb10b6410a1"
                            },
                            {
                                "name": "sender",
                                "type": "address",
                                "value": "0x69cdb2d1f6fdaec3d2cc35e7649004011aad81a8"
                            }
                        ],
                        "signature": "Swap(string,address)"
                    },
                    "id": 20,
                    "logData": "0x",
                    "logDecoded": true,
                    "operation": "EVENT",
                    "revert": false,
                    "status": true,
                    "topics": [
                        "0xbeee1e6e7fe307ddcf84b0a16137a4430ad5e2480fc4f4a8e250ab56ccd7630d",
                        "0x52b2a8c72019cec70fe7744816057066b2cdc539fd8cffc80a6d5fb10b6410a1",
                        "0x00000000000000000000000069cdb2d1f6fdaec3d2cc35e7649004011aad81a8"
                    ]
                },
                "nodeType": 1
            },
            "3": {
                "invocation": {
                    "address": "0x11ededebf63bef0ea2d2d071bdf88f71543ec6fb",
                    "callData": "0x",
                    "decodedMethod": null,
                    "errorInfo": "",
                    "fromAddress": "0x74de5d4fcbf63e00296fd95d33236b9794016631",
                    "gasUsed": 0,
                    "id": 3,
                    "methodDecoded": false,
                    "operation": "CALL",
                    "output": "",
                    "revert": false,
                    "revertMessage": "",
                    "selector": "fallback",
                    "status": true,
                    "value": "0.004375"
                },
                "nodeType": 0
            },
            "4": {
                "invocation": {
                    "address": "0x11111112542d85b3ef69ae05771c2dccff4faa26",
                    "callData": "0x000000000000000000000000000000000000000000000000000000000000000000000000000000000000000000000000000000000000000006e0d04fc2cd9000000000000000000000000000000000000000000000000059dfbf5b2e909f7d000000000000000000000000000000000000000000000000000000000000000080000000000000000000000000000000000000000000000000000000000000000180000000000000003b6d03407ba9b94127d434182287de708643932ec036d365",
                    "decodedMethod": {
                        "callParams": [
                            {
                                "name": "srcToken",
                                "type": "address",
                                "value": "0x0000000000000000000000000000000000000000"
                            },
                            {
                                "name": "amount",
                                "type": "uint256",
                                "value": "495,625,000,000,000,000"
                            },
                            {
                                "name": "minReturn",
                                "type": "uint256",
                                "value": "1,657,882,928,006,712,753,408"
                            },
                            {
                                "name": "",
                                "type": "bytes32[]",
                                "value": [
                                    "0x80000000000000003b6d03407ba9b94127d434182287de708643932ec036d365"
                                ]
                            }
                        ],
                        "constructorArguments": "",
                        "name": "unoswap",
                        "returnParams": [
                            {
                                "name": "returnAmount",
                                "type": "uint256",
                                "value": "1,709,178,469,714,865,714,854"
                            }
                        ],
                        "signature": "unoswap(address,uint256,uint256,bytes32[])"
                    },
                    "errorInfo": "",
                    "fromAddress": "0x74de5d4fcbf63e00296fd95d33236b9794016631",
                    "gasUsed": 113238,
                    "id": 4,
                    "methodDecoded": true,
                    "operation": "CALL",
                    "output": "0x00000000000000000000000000000000000000000000005ca79dba970c5076a6",
                    "revert": false,
                    "revertMessage": "",
                    "selector": "0x2e95b6c8",
                    "status": true,
                    "value": "0.495625"
                },
                "nodeType": 0
            },
            "5": {
                "invocation": {
                    "address": "0xc02aaa39b223fe8d0a0e5c4f27ead9083c756cc2",
                    "callData": "0x",
                    "decodedMethod": {
                        "callParams": [],
                        "constructorArguments": "",
                        "name": "deposit",
                        "returnParams": [],
                        "signature": "deposit()"
                    },
                    "errorInfo": "",
                    "fromAddress": "0x11111112542d85b3ef69ae05771c2dccff4faa26",
                    "gasUsed": 23974,
                    "id": 5,
                    "methodDecoded": true,
                    "operation": "CALL",
                    "output": "",
                    "revert": false,
                    "revertMessage": "",
                    "selector": "0xd0e30db0",
                    "status": true,
                    "value": "0.495625"
                },
                "nodeType": 0
            },
            "6": {
                "event": {
                    "contract": "0xc02aaa39b223fe8d0a0e5c4f27ead9083c756cc2",
                    "decodedLog": {
                        "name": "Deposit",
                        "params": [
                            {
                                "name": "dst",
                                "type": "address",
                                "value": "0x11111112542d85b3ef69ae05771c2dccff4faa26"
                            },
                            {
                                "name": "wad",
                                "type": "uint256",
                                "value": "495,625,000,000,000,000"
                            }
                        ],
                        "signature": "Deposit(address,uint256)"
                    },
                    "id": 6,
                    "logData": "0x00000000000000000000000000000000000000000000000006e0d04fc2cd9000",
                    "logDecoded": true,
                    "operation": "EVENT",
                    "revert": false,
                    "status": true,
                    "topics": [
                        "0xe1fffcc4923d04b559f4d29a8bfc6cda04eb5b0d3c460751c2402c5c5cc9109c",
                        "0x00000000000000000000000011111112542d85b3ef69ae05771c2dccff4faa26"
                    ]
                },
                "nodeType": 1
            },
            "7": {
                "invocation": {
                    "address": "0xc02aaa39b223fe8d0a0e5c4f27ead9083c756cc2",
                    "callData": "0x0000000000000000000000007ba9b94127d434182287de708643932ec036d36500000000000000000000000000000000000000000000000006e0d04fc2cd9000",
                    "decodedMethod": {
                        "callParams": [
                            {
                                "name": "dst",
                                "type": "address",
                                "value": "0x7ba9b94127d434182287de708643932ec036d365"
                            },
                            {
                                "decimalAvailable": true,
                                "name": "wad",
                                "type": "uint256",
                                "value": "495,625,000,000,000,000"
                            }
                        ],
                        "constructorArguments": "",
                        "name": "transfer",
                        "returnParams": [
                            {
                                "name": "",
                                "type": "bool",
                                "value": true
                            }
                        ],
                        "signature": "transfer(address,uint256)"
                    },
                    "errorInfo": "",
                    "fromAddress": "0x11111112542d85b3ef69ae05771c2dccff4faa26",
                    "gasUsed": 8062,
                    "id": 7,
                    "methodDecoded": true,
                    "operation": "CALL",
                    "output": "0x0000000000000000000000000000000000000000000000000000000000000001",
                    "revert": false,
                    "revertMessage": "",
                    "selector": "0xa9059cbb",
                    "status": true,
                    "value": "0"
                },
                "nodeType": 0
            },
            "8": {
                "event": {
                    "contract": "0xc02aaa39b223fe8d0a0e5c4f27ead9083c756cc2",
                    "decodedLog": {
                        "name": "Transfer",
                        "params": [
                            {
                                "name": "src",
                                "type": "address",
                                "value": "0x11111112542d85b3ef69ae05771c2dccff4faa26"
                            },
                            {
                                "name": "dst",
                                "type": "address",
                                "value": "0x7ba9b94127d434182287de708643932ec036d365"
                            },
                            {
                                "decimalAvailable": true,
                                "name": "wad",
                                "type": "uint256",
                                "value": "495,625,000,000,000,000"
                            }
                        ],
                        "signature": "Transfer(address,address,uint256)"
                    },
                    "id": 8,
                    "logData": "0x00000000000000000000000000000000000000000000000006e0d04fc2cd9000",
                    "logDecoded": true,
                    "operation": "EVENT",
                    "revert": false,
                    "status": true,
                    "topics": [
                        "0xddf252ad1be2c89b69c2b068fc378daa952ba7f163c4a11628f55a4df523b3ef",
                        "0x00000000000000000000000011111112542d85b3ef69ae05771c2dccff4faa26",
                        "0x0000000000000000000000007ba9b94127d434182287de708643932ec036d365"
                    ]
                },
                "nodeType": 1
            },
            "9": {
                "invocation": {
                    "address": "0x7ba9b94127d434182287de708643932ec036d365",
                    "callData": "0x",
                    "decodedMethod": {
                        "callParams": [],
                        "constructorArguments": "",
                        "name": "getReserves",
                        "returnParams": [
                            {
                                "name": "_reserve0",
                                "type": "uint112",
                                "value": "28,364,185,478,505,591,125,751,484"
                            },
                            {
                                "name": "_reserve1",
                                "type": "uint112",
                                "value": "8,199,834,661,850,566,911,531"
                            },
                            {
                                "name": "_blockTimestampLast",
                                "type": "uint32",
                                "value": "1,619,195,018"
                            }
                        ],
                        "signature": "getReserves()"
                    },
                    "errorInfo": "",
                    "fromAddress": "0x11111112542d85b3ef69ae05771c2dccff4faa26",
                    "gasUsed": 2504,
                    "id": 9,
                    "methodDecoded": true,
                    "operation": "STATICCALL",
                    "output": "0x00000000000000000000000000000000000000000017765993698576e4dab6bc0000000000000000000000000000000000000000000001bc8390c45dfa58662b000000000000000000000000000000000000000000000000000000006082f48a",
                    "revert": false,
                    "revertMessage": "",
                    "selector": "0x0902f1ac",
                    "status": true,
                    "value": "0"
                },
                "nodeType": 0
            }
        },
        "gasFlame": [
            {
                "children": [
                    {
                        "children": [
                            {
                                "children": [],
                                "depth": 0,
                                "name": "Initial Gas",
                                "value": 25444
                            },
                            {
                                "children": [
                                    {
                                        "children": [
                                            {
                                                "children": [
                                                    {
                                                        "children": [],
                                                        "depth": 3,
                                                        "name": "fallback",
                                                        "value": 0
                                                    },
                                                    {
                                                        "children": [
                                                            {
                                                                "children": [],
                                                                "depth": 4,
                                                                "name": "deposit",
                                                                "value": 23974
                                                            },
                                                            {
                                                                "children": [],
                                                                "depth": 4,
                                                                "name": "transfer",
                                                                "value": 8062
                                                            },
                                                            {
                                                                "children": [],
                                                                "depth": 4,
                                                                "name": "getReserves",
                                                                "value": 2504
                                                            },
                                                            {
                                                                "children": [
                                                                    {
                                                                        "children": [],
                                                                        "depth": 5,
                                                                        "name": "transfer",
                                                                        "value": 30186
                                                                    },
                                                                    {
                                                                        "children": [],
                                                                        "depth": 5,
                                                                        "name": "balanceOf",
                                                                        "value": 629
                                                                    },
                                                                    {
                                                                        "children": [],
                                                                        "depth": 5,
                                                                        "name": "balanceOf",
                                                                        "value": 534
                                                                    }
                                                                ],
                                                                "depth": 4,
                                                                "name": "swap",
                                                                "value": 65172
                                                            }
                                                        ],
                                                        "depth": 3,
                                                        "name": "unoswap",
                                                        "value": 113238
                                                    },
                                                    {
                                                        "children": [],
                                                        "depth": 3,
                                                        "name": "balanceOf",
                                                        "value": 629
                                                    },
                                                    {
                                                        "children": [],
                                                        "depth": 3,
                                                        "name": "transfer",
                                                        "value": 8286
                                                    }
                                                ],
                                                "depth": 2,
                                                "name": "0x242fb09f",
                                                "value": 144999
                                            }
                                        ],
                                        "depth": 1,
                                        "name": "swap",
                                        "value": 150035
                                    }
                                ],
                                "depth": 0,
                                "name": "Executed Gas",
                                "value": 175741
                            }
                        ],
                        "depth": -1,
                        "name": "Actual Gas Used",
                        "value": 155785
                    },
                    {
                        "children": [],
                        "depth": -1,
                        "name": "Refunded Gas",
                        "value": 45400
                    }
                ],
                "depth": -2,
                "name": "Total Gas",
                "value": 201185
            }
        ],
        "isConfirmed": true,
        "mainTrace": [
            {
                "children": [
                    {
                        "children": [
                            {
                                "children": [
                                    {
                                        "children": [
                                            {
                                                "children": [],
                                                "depth": 3,
                                                "id": 3,
                                                "order": 3
                                            },
                                            {
                                                "children": [
                                                    {
                                                        "children": [
                                                            {
                                                                "children": [],
                                                                "depth": 5,
                                                                "id": 6,
                                                                "order": 6
                                                            }
                                                        ],
                                                        "depth": 4,
                                                        "id": 5,
                                                        "order": 5
                                                    },
                                                    {
                                                        "children": [
                                                            {
                                                                "children": [],
                                                                "depth": 5,
                                                                "id": 8,
                                                                "order": 8
                                                            }
                                                        ],
                                                        "depth": 4,
                                                        "id": 7,
                                                        "order": 7
                                                    },
                                                    {
                                                        "children": [],
                                                        "depth": 4,
                                                        "id": 9,
                                                        "order": 9
                                                    },
                                                    {
                                                        "children": [
                                                            {
                                                                "children": [
                                                                    {
                                                                        "children": [],
                                                                        "depth": 6,
                                                                        "id": 12,
                                                                        "order": 12
                                                                    }
                                                                ],
                                                                "depth": 5,
                                                                "id": 11,
                                                                "order": 11
                                                            },
                                                            {
                                                                "children": [],
                                                                "depth": 5,
                                                                "id": 13,
                                                                "order": 13
                                                            },
                                                            {
                                                                "children": [],
                                                                "depth": 5,
                                                                "id": 14,
                                                                "order": 14
                                                            },
                                                            {
                                                                "children": [],
                                                                "depth": 5,
                                                                "id": 15,
                                                                "order": 15
                                                            },
                                                            {
                                                                "children": [],
                                                                "depth": 5,
                                                                "id": 16,
                                                                "order": 16
                                                            }
                                                        ],
                                                        "depth": 4,
                                                        "id": 10,
                                                        "order": 10
                                                    }
                                                ],
                                                "depth": 3,
                                                "id": 4,
                                                "order": 4
                                            },
                                            {
                                                "children": [],
                                                "depth": 3,
                                                "id": 17,
                                                "order": 17
                                            },
                                            {
                                                "children": [
                                                    {
                                                        "children": [],
                                                        "depth": 4,
                                                        "id": 19,
                                                        "order": 19
                                                    }
                                                ],
                                                "depth": 3,
                                                "id": 18,
                                                "order": 18
                                            }
                                        ],
                                        "depth": 2,
                                        "id": 2,
                                        "order": 2
                                    }
                                ],
                                "depth": 1,
                                "id": 1,
                                "order": 1
                            },
                            {
                                "children": [],
                                "depth": 1,
                                "id": 20,
                                "order": 20
                            }
                        ],
                        "depth": 0,
                        "id": 0,
                        "order": 0
                    }
                ],
                "depth": -1,
                "id": -1,
                "order": -1
            }
        ],
        "mainTraceNodeCount": 21,
        "parentIdMap": {
            "0": -1,
            "1": 0,
            "10": 4,
            "11": 10,
            "12": 11,
            "13": 10,
            "14": 10,
            "15": 10,
            "16": 10,
            "17": 2,
            "18": 2,
            "19": 18,
            "2": 1,
            "20": 0,
            "3": 2,
            "4": 2,
            "5": 4,
            "6": 5,
            "7": 4,
            "8": 7,
            "9": 4
        },
        "tidyTrace": [
            {
                "children": [
                    {
                        "children": [
                            {
                                "children": [
                                    {
                                        "children": [
                                            {
                                                "children": [],
                                                "depth": 3,
                                                "id": 3,
                                                "order": 3
                                            },
                                            {
                                                "children": [
                                                    {
                                                        "children": [
                                                            {
                                                                "children": [],
                                                                "depth": 5,
                                                                "id": 6,
                                                                "order": 6
                                                            }
                                                        ],
                                                        "depth": 4,
                                                        "id": 5,
                                                        "order": 5
                                                    },
                                                    {
                                                        "children": [
                                                            {
                                                                "children": [],
                                                                "depth": 5,
                                                                "id": 8,
                                                                "order": 8
                                                            }
                                                        ],
                                                        "depth": 4,
                                                        "id": 7,
                                                        "order": 7
                                                    },
                                                    {
                                                        "children": [
                                                            {
                                                                "children": [
                                                                    {
                                                                        "children": [],
                                                                        "depth": 6,
                                                                        "id": 12,
                                                                        "order": 12
                                                                    }
                                                                ],
                                                                "depth": 5,
                                                                "id": 11,
                                                                "order": 11
                                                            },
                                                            {
                                                                "children": [],
                                                                "depth": 5,
                                                                "id": 15,
                                                                "order": 15
                                                            },
                                                            {
                                                                "children": [],
                                                                "depth": 5,
                                                                "id": 16,
                                                                "order": 16
                                                            }
                                                        ],
                                                        "depth": 4,
                                                        "id": 10,
                                                        "order": 10
                                                    }
                                                ],
                                                "depth": 3,
                                                "id": 4,
                                                "order": 4
                                            },
                                            {
                                                "children": [
                                                    {
                                                        "children": [],
                                                        "depth": 4,
                                                        "id": 19,
                                                        "order": 19
                                                    }
                                                ],
                                                "depth": 3,
                                                "id": 18,
                                                "order": 18
                                            }
                                        ],
                                        "depth": 2,
                                        "id": 2,
                                        "order": 2
                                    }
                                ],
                                "depth": 1,
                                "id": 1,
                                "order": 1
                            },
                            {
                                "children": [],
                                "depth": 1,
                                "id": 20,
                                "order": 20
                            }
                        ],
                        "depth": 0,
                        "id": 0,
                        "order": 0
                    }
                ],
                "depth": -1,
                "id": -1,
                "order": -1
            }
        ],
        "tidyTraceNodeCount": 17
    },
    "state_change": {
        "stateChanges": [
            {
                "address": "0x5218e472cfcfe0b64a064f055b43b4cdc9efd3a6",
                "erc": "ERC-20",
                "slots": [
                    {
                        "current": "0x00000000000000000000000000000000000000000000025d225cef03aebd76a1",
                        "key": "0xb0cee76859fcfece8c73b128d8e17ad3b3de1b1751bb9187b9fe3fceedc2fa56",
                        "prev": "0x0000000000000000000000000000000000000000000002007abf346ca26cfffb"
                    },
                    {
                        "current": "0x0000000000000000000000000000000000000000001775fcebcbcadfd88a4016",
                        "key": "0x4eaa54e3d01e2c413f2ee1e80d819909653206764f29143153fe06cfddd7d850",
                        "prev": "0x00000000000000000000000000000000000000000017765993698576e4dab6bc"
                    }
                ],
                "storageVariables": [
                    {
                        "name": "_balances",
                        "type": "mapping(address => uint256)",
                        "value": {
                            "pairs": [
                                {
                                    "key": "0x69cdb2d1f6fdaec3d2cc35e7649004011aad81a8",
                                    "value": {
                                        "current": "11162756281288521250465",
                                        "prev": "9453577811573655535611",
                                        "typeTag": 1
                                    }
                                },
                                {
                                    "key": "0x7ba9b94127d434182287de708643932ec036d365",
                                    "value": {
                                        "current": "28362476300035876260036630",
                                        "prev": "28364185478505591125751484",
                                        "typeTag": 1
                                    }
                                }
                            ],
                            "typeTag": 4
                        }
                    }
                ]
            },
            {
                "address": "0x7ba9b94127d434182287de708643932ec036d365",
                "erc": "ERC-20",
                "slots": [
                    {
                        "current": "0x6082f4fa0000000001bc8a7194adbd25f62b0000001775fcebcbcadfd88a4016",
                        "key": "0x0000000000000000000000000000000000000000000000000000000000000008",
                        "prev": "0x6082f48a0000000001bc8390c45dfa58662b00000017765993698576e4dab6bc"
                    },
                    {
                        "current": "0x0000000000000000000000000000000004db184647ef84d46edbacb68f1a48bc",
                        "key": "0x0000000000000000000000000000000000000000000000000000000000000009",
                        "prev": "0x0000000000000000000000000000000004db0ffc57c15589e47bddbcfa08309c"
                    },
                    {
                        "current": "0x00000000000000000000000001cbeea6e9af274eb2e1e4f3adaa482932a5277f",
                        "key": "0x000000000000000000000000000000000000000000000000000000000000000a",
                        "prev": "0x00000000000000000000000001cbeea1005213aaff21cc4a4b934f5b6bc8032f"
                    }
                ],
                "storageVariables": [
                    {
                        "name": "reserve0",
                        "type": "uint112",
                        "value": {
                            "current": "28362476300035876260036630",
                            "prev": "28364185478505591125751484",
                            "typeTag": 1
                        }
                    },
                    {
                        "name": "reserve1",
                        "type": "uint112",
                        "value": {
                            "current": "8200330286850566911531",
                            "prev": "8199834661850566911531",
                            "typeTag": 1
                        }
                    },
                    {
                        "name": "blockTimestampLast",
                        "type": "uint32",
                        "value": {
                            "current": "1619195130",
                            "prev": "1619195018",
                            "typeTag": 1
                        }
                    },
                    {
                        "name": "price0CumulativeLast",
                        "type": "uint256",
                        "value": {
                            "current": "6454517341223650620134260155291945148",
                            "prev": "6454349223958721594394462813392744604",
                            "typeTag": 1
                        }
                    },
                    {
                        "name": "price1CumulativeLast",
                        "type": "uint256",
                        "value": {
                            "current": "10256831567669796053713359097000294364750358399",
                            "prev": "10256829556064556487688898240511569596961522479",
                            "typeTag": 1
                        }
                    }
                ]
            },
            {
                "address": "0xc02aaa39b223fe8d0a0e5c4f27ead9083c756cc2",
                "erc": "ERC-20",
                "slots": [
                    {
                        "current": "0x0000000000000000000000000000000000000000000001bc8a7194adbd25f62b",
                        "key": "0x82a51c347dc0d0dc852dd785295d8468bdf9fe3eacc5e840316356cfd56acbfb",
                        "prev": "0x0000000000000000000000000000000000000000000001bc8390c45dfa58662b"
                    }
                ],
                "storageVariables": [
                    {
                        "name": "balanceOf",
                        "type": "mapping(address => uint256)",
                        "value": {
                            "pairs": [
                                {
                                    "key": "0x7ba9b94127d434182287de708643932ec036d365",
                                    "value": {
                                        "current": "8200330286850566911531",
                                        "prev": "8199834661850566911531",
                                        "typeTag": 1
                                    }
                                }
                            ],
                            "typeTag": 4
                        }
                    }
                ]
            }
        ]
    }
}