{
    "balance_change": {
        "balanceChanges": [
            {
                "account": "0xe52aaf5dc5ab9324fb77bedc321019e9ba5660df",
                "assets": [
                    {
                        "address": "0xb533687ef77459093368c43e95f8df1c2b5a1f7a",
                        "amount": "410,000",
                        "iconUrl": "",
                        "isERC1155": false,
                        "isERC721": false,
                        "sign": false,
                        "value": "14849.89285"
                    }
                ]
            },
            {
                "account": "0x69f35b047cda6512c645087be694e284270a6d3a",
                "assets": [
                    {
                        "address": "0xb533687ef77459093368c43e95f8df1c2b5a1f7a",
                        "amount": "410,000",
                        "iconUrl": "",
                        "isERC1155": false,
                        "isERC721": false,
                        "sign": true,
                        "value": "14849.89285"
                    }
                ]
            }
        ]
    },
    "profile": {
        "basic_info": {
            "baseFee": "23.470867015",
            "blockNumber": 18850498,
            "callData": "0xa9059cbb00000000000000000000000069f35b047cda6512c645087be694e284270a6d3a0000000000000000000000000000000000000000000056d225004ee68c400000",
            "debugEnable": true,
            "errorInfo": "",
            "eventCount": 1,
            "feeRecipient": "0x95222290dd7278aa3ddd389cc1e1d165cc4bafe5",
            "formatValue": "0",
            "gasLimit": 232158,
            "gasPrice": "23.570867015",
            "gasUsed": 151863,
            "intTxnCount": 2,
            "internalRevert": false,
            "internalRevertMessage": "",
            "isContractCreation": false,
            "isFlashloan": false,
            "maxFee": "29.671595585",
            "nonce": 80,
            "overwritedBlockNumber": -1,
            "priorityFee": "0.1",
            "receiver": "0xb533687ef77459093368c43e95f8df1c2b5a1f7a",
            "revertMessage": "",
            "sender": "0xe52aaf5dc5ab9324fb77bedc321019e9ba5660df",
            "simulationEnable": true,
            "sourceTxnHash": "0x1e10fd72b13dc2860e0eda82fe0558695ff37ea054e6b2750b026135840e0e7f",
            "status": true,
            "timestamp": "2023-12-23T19:08:47Z",
            "transactionFee": "0.003579542577498945",
            "txnHash": "0x1e10fd72b13dc2860e0eda82fe0558695ff37ea054e6b2750b026135840e0e7f",
            "txnIndex": 92,
            "type": 2,
            "value": "0"
        },
        "fund_flow": [
            {
                "amount": "410,000",
                "from": "0xe52aaf5dc5ab9324fb77bedc321019e9ba5660df",
                "id": 1,
                "isERC1155": false,
                "isERC721": false,
                "isReverted": false,
                "order": 1,
                "to": "0x69f35b047cda6512c645087be694e284270a6d3a",
                "token": "0xb533687ef77459093368c43e95f8df1c2b5a1f7a"
            }
        ],
        "token_infos": [
            {
                "address": "0xb533687ef77459093368c43e95f8df1c2b5a1f7a",
                "decimals": 18
            },
            {
                "address": "0xc02aaa39b223fe8d0a0e5c4f27ead9083c756cc2",
                "decimals": 18
            },
            {
                "address": "0xeeeeeeeeeeeeeeeeeeeeeeeeeeeeeeeeeeeeeeee",
                "decimals": 18
            }
        ]
    },
    "address_label": {
        "labels": [
            {
                "address": "0x0000000000000000000000000000000000000003",
                "label": "Precompiled"
            },
            {
                "address": "0x0000000000000000000000000000000000000004",
                "label": "Precompiled"
            },
            {
                "address": "0xeeeeeeeeeeeeeeeeeeeeeeeeeeeeeeeeeeeeeeee",
                "label": "Ether"
            },
            {
                "address": "0xb533687ef77459093368c43e95f8df1c2b5a1f7a",
                "label": "ASG"
            },
            {
                "address": "0x8b1916e28beee90cf7911a50b006caed2ebf8d9a",
                "label": "RevShare"
            },
            {
                "address": "0x0000000000000000000000000000000000000001",
                "label": "Precompiled"
            },
            {
                "address": "0x0000000000000000000000000000000000000002",
                "label": "Precompiled"
            }
        ]
    },
    "trace": {
        "accountLabels": null,
        "dataMap": {
            "-1": {
                "invocation": {
                    "address": "0xe52aaf5dc5ab9324fb77bedc321019e9ba5660df",
                    "callData": "",
                    "decodedMethod": null,
                    "errorInfo": "",
                    "fromAddress": "",
                    "gasUsed": 0,
                    "id": -1,
                    "methodDecoded": false,
                    "operation": "",
                    "output": "",
                    "revert": false,
                    "revertMessage": "",
                    "selector": "",
                    "status": false,
                    "value": ""
                },
                "nodeType": 0
            },
            "0": {
                "invocation": {
                    "address": "0xb533687ef77459093368c43e95f8df1c2b5a1f7a",
                    "callData": "0x00000000000000000000000069f35b047cda6512c645087be694e284270a6d3a0000000000000000000000000000000000000000000056d225004ee68c400000",
                    "decodedMethod": {
                        "callParams": [
                            {
                                "name": "to",
                                "type": "address",
                                "value": "0x69f35b047cda6512c645087be694e284270a6d3a"
                            },
                            {
                                "decimalAvailable": true,
                                "name": "amount",
                                "type": "uint256",
                                "value": "410,000,000,000,000,000,000,000"
                            }
                        ],
                        "constructorArguments": "",
                        "name": "transfer",
                        "returnParams": [
                            {
                                "name": "",
                                "type": "bool",
                                "value": true
                            }
                        ],
                        "signature": "transfer(address,uint256)"
                    },
                    "errorInfo": "",
                    "fromAddress": "0xe52aaf5dc5ab9324fb77bedc321019e9ba5660df",
                    "gasUsed": 151863,
                    "id": 0,
                    "methodDecoded": true,
                    "operation": "CALL",
                    "output": "0x0000000000000000000000000000000000000000000000000000000000000001",
                    "revert": false,
                    "revertMessage": "",
                    "selector": "0xa9059cbb",
                    "status": true,
                    "value": "0"
                },
                "nodeType": 0
            },
            "1": {
                "event": {
                    "contract": "0xb533687ef77459093368c43e95f8df1c2b5a1f7a",
                    "decodedLog": {
                        "name": "Transfer",
                        "params": [
                            {
                                "name": "from",
                                "type": "address",
                                "value": "0xe52aaf5dc5ab9324fb77bedc321019e9ba5660df"
                            },
                            {
                                "name": "to",
                                "type": "address",
                                "value": "0x69f35b047cda6512c645087be694e284270a6d3a"
                            },
                            {
                                "decimalAvailable": true,
                                "name": "value",
                                "type": "uint256",
                                "value": "410,000,000,000,000,000,000,000"
                            }
                        ],
                        "signature": "Transfer(address,address,uint256)"
                    },
                    "id": 1,
                    "logData": "0x0000000000000000000000000000000000000000000056d225004ee68c400000",
                    "logDecoded": true,
                    "operation": "EVENT",
                    "revert": false,
                    "status": true,
                    "topics": [
                        "0xddf252ad1be2c89b69c2b068fc378daa952ba7f163c4a11628f55a4df523b3ef",
                        "0x000000000000000000000000e52aaf5dc5ab9324fb77bedc321019e9ba5660df",
                        "0x00000000000000000000000069f35b047cda6512c645087be694e284270a6d3a"
                    ]
                },
                "nodeType": 1
            },
            "2": {
                "invocation": {
                    "address": "0x8b1916e28beee90cf7911a50b006caed2ebf8d9a",
                    "callData": "0x00000000000000000000000069f35b047cda6512c645087be694e284270a6d3a0000000000000000000000000000000000000000000056d225004ee68c400000",
                    "decodedMethod": {
                        "callParams": [
                            {
                                "name": "account",
                                "type": "address",
                                "value": "0x69f35b047cda6512c645087be694e284270a6d3a"
                            },
                            {
                                "name": "newBalance",
                                "type": "uint256",
                                "value": "410,000,000,000,000,000,000,000"
                            }
                        ],
                        "constructorArguments": "",
                        "name": "setBalance",
                        "returnParams": [],
                        "signature": "setBalance(address,uint256)"
                    },
                    "errorInfo": "",
                    "fromAddress": "0xb533687ef77459093368c43e95f8df1c2b5a1f7a",
                    "gasUsed": 41141,
                    "id": 2,
                    "methodDecoded": true,
                    "operation": "CALL",
                    "output": "",
                    "revert": false,
                    "revertMessage": "",
                    "selector": "0xe30443bc",
                    "status": true,
                    "value": "0"
                },
                "nodeType": 0
            },
            "3": {
                "invocation": {
                    "address": "0x8b1916e28beee90cf7911a50b006caed2ebf8d9a",
                    "callData": "0x000000000000000000000000e52aaf5dc5ab9324fb77bedc321019e9ba5660df000000000000000000000000000000000000000000005497a3ead99a575f7030",
                    "decodedMethod": {
                        "callParams": [
                            {
                                "name": "account",
                                "type": "address",
                                "value": "0xe52aaf5dc5ab9324fb77bedc321019e9ba5660df"
                            },
                            {
                                "name": "newBalance",
                                "type": "uint256",
                                "value": "399,476,054,408,409,986,854,960"
                            }
                        ],
                        "constructorArguments": "",
                        "name": "setBalance",
                        "returnParams": [],
                        "signature": "setBalance(address,uint256)"
                    },
                    "errorInfo": "",
                    "fromAddress": "0xb533687ef77459093368c43e95f8df1c2b5a1f7a",
                    "gasUsed": 15253,
                    "id": 3,
                    "methodDecoded": true,
                    "operation": "CALL",
                    "output": "",
                    "revert": false,
                    "revertMessage": "",
                    "selector": "0xe30443bc",
                    "status": true,
                    "value": "0"
                },
                "nodeType": 0
            }
        },
        "gasFlame": [
            {
                "children": [
                    {
                        "children": [
                            {
                                "children": [],
                                "depth": 0,
                                "name": "Initial Gas",
                                "value": 21644
                            },
                            {
                                "children": [
                                    {
                                        "children": [],
                                        "depth": 1,
                                        "name": "setBalance",
                                        "value": 41141
                                    },
                                    {
                                        "children": [],
                                        "depth": 1,
                                        "name": "setBalance",
                                        "value": 15253
                                    }
                                ],
                                "depth": 0,
                                "name": "Executed Gas",
                                "value": 133019
                            }
                        ],
                        "depth": -1,
                        "name": "Actual Gas Used",
                        "value": 151863
                    },
                    {
                        "children": [],
                        "depth": -1,
                        "name": "Refunded Gas",
                        "value": 2800
                    }
                ],
                "depth": -2,
                "name": "Total Gas",
                "value": 154663
            }
        ],
        "isConfirmed": true,
        "mainTrace": [
            {
                "children": [
                    {
                        "children": [
                            {
                                "children": [],
                                "depth": 1,
                                "id": 1,
                                "order": 1
                            },
                            {
                                "children": [],
                                "depth": 1,
                                "id": 2,
                                "order": 2
                            },
                            {
                                "children": [],
                                "depth": 1,
                                "id": 3,
                                "order": 3
                            }
                        ],
                        "depth": 0,
                        "id": 0,
                        "order": 0
                    }
                ],
                "depth": -1,
                "id": -1,
                "order": -1
            }
        ],
        "mainTraceNodeCount": 4,
        "parentIdMap": {
            "0": -1,
            "1": 0,
            "2": 0,
            "3": 0
        },
        "tidyTrace": [
            {
                "children": [
                    {
                        "children": [
                            {
                                "children": [],
                                "depth": 1,
                                "id": 1,
                                "order": 1
                            },
                            {
                                "children": [],
                                "depth": 1,
                                "id": 2,
                                "order": 2
                            },
                            {
                                "children": [],
                                "depth": 1,
                                "id": 3,
                                "order": 3
                            }
                        ],
                        "depth": 0,
                        "id": 0,
                        "order": 0
                    }
                ],
                "depth": -1,
                "id": -1,
                "order": -1
            }
        ],
        "tidyTraceNodeCount": 4
    },
    "state_change": {
        "stateChanges": [
            {
                "address": "0x8b1916e28beee90cf7911a50b006caed2ebf8d9a",
                "erc": "",
                "slots": [
                    {
                        "current": "0x0000000000000000000000000000000000000000000056d225004ee68c400000",
                        "key": "0x2a49015e6626349c188d6588e5a64d0e196e7f5cbcb464d421ccf9d33df1ba20",
                        "prev": "0x0000000000000000000000000000000000000000000000000000000000000000"
                    },
                    {
                        "current": "0x000000000000000000000000000000000000000000005497a3ead99a575f7030",
                        "key": "0xeb3dae98fe6c6cc227d053912b0ce485e769298fb2382ad41fa00e468d863f85",
                        "prev": "0x00000000000000000000000000000000000000000000ab69c8eb2880e39f7030"
                    }
                ],
                "storageVariables": [
                    {
                        "name": "holderBalance",
                        "type": "mapping(address => uint256)",
                        "value": {
                            "pairs": [
                                {
                                    "key": "0x69f35b047cda6512c645087be694e284270a6d3a",
                                    "value": {
                                        "current": "410000000000000000000000",
                                        "prev": "0",
                                        "typeTag": 1
                                    }
                                },
                                {
                                    "key": "0xe52aaf5dc5ab9324fb77bedc321019e9ba5660df",
                                    "value": {
                                        "current": "399476054408409986854960",
                                        "prev": "809476054408409986854960",
                                        "typeTag": 1
                                    }
                                }
                            ],
                            "typeTag": 4
                        }
                    }
                ]
            },
            {
                "address": "0xb533687ef77459093368c43e95f8df1c2b5a1f7a",
                "erc": "ERC-20",
                "slots": [
                    {
                        "current": "0x00000000000000000000000000000000000000000000000000000000011fa2c2",
                        "key": "0xb040d12da7a74f6ca8544554b231acc4c4d66ff46f312240683afe47744987bf",
                        "prev": "0x00000000000000000000000000000000000000000000000000000000011f9970"
                    },
                    {
                        "current": "0x000000000000000000000000000000000000000000005497a3ead99a575f7030",
                        "key": "0xf40ae248f741b1ce7016de25d2eeab1a5fa5a37ae8374cc7726fa857652fc223",
                        "prev": "0x00000000000000000000000000000000000000000000ab69c8eb2880e39f7030"
                    },
                    {
                        "current": "0x0000000000000000000000000000000000000000000056d225004ee68c400000",
                        "key": "0x2a3bdc78a566cc6dcdd31de2381e3824e88f4446393804e279ade65839b1663d",
                        "prev": "0x0000000000000000000000000000000000000000000000000000000000000000"
                    },
                    {
                        "current": "0x00000000000000000000000000000000000000000000000000000000011fa2c2",
                        "key": "0x51e804b638c686a80fe699604032c7d023090c9035613e3692428b08b8f6a2bd",
                        "prev": "0x0000000000000000000000000000000000000000000000000000000000000000"
                    }
                ],
                "storageVariables": [
                    {
                        "name": "_holderLastTransferBlock",
                        "type": "mapping(address => uint256)",
                        "value": {
                            "pairs": [
                                {
                                    "key": "0x69f35b047cda6512c645087be694e284270a6d3a",
                                    "value": {
                                        "current": "18850498",
                                        "prev": "0",
                                        "typeTag": 1
                                    }
                                },
                                {
                                    "key": "0xe52aaf5dc5ab9324fb77bedc321019e9ba5660df",
                                    "value": {
                                        "current": "18850498",
                                        "prev": "18848112",
                                        "typeTag": 1
                                    }
                                }
                            ],
                            "typeTag": 4
                        }
                    },
                    {
                        "name": "_balances",
                        "type": "mapping(address => uint256)",
                        "value": {
                            "pairs": [
                                {
                                    "key": "0x69f35b047cda6512c645087be694e284270a6d3a",
                                    "value": {
                                        "current": "410000000000000000000000",
                                        "prev": "0",
                                        "typeTag": 1
                                    }
                                },
                                {
                                    "key": "0xe52aaf5dc5ab9324fb77bedc321019e9ba5660df",
                                    "value": {
                                        "current": "399476054408409986854960",
                                        "prev": "809476054408409986854960",
                                        "typeTag": 1
                                    }
                                }
                            ],
                            "typeTag": 4
                        }
                    }
                ]
            }
        ]
    }
}