{
    "balance_change": {
        "balanceChanges": [
            {
                "account": "0x645ced8e431a7638f12b46e88eac7ecabc771159",
                "assets": [
                    {
                        "address": "0xa88fc5e2b9aa4e3bb40d67fa553517a1569c8e72",
                        "amount": "103",
                        "iconUrl": "",
                        "isERC1155": false,
                        "isERC721": false,
                        "sign": false,
                        "value": ""
                    }
                ]
            },
            {
                "account": "0x2105c74daf879067f6926f6066216e9d8cf90c78",
                "assets": [
                    {
                        "address": "0xa88fc5e2b9aa4e3bb40d67fa553517a1569c8e72",
                        "amount": "103",
                        "iconUrl": "",
                        "isERC1155": false,
                        "isERC721": false,
                        "sign": true,
                        "value": ""
                    }
                ]
            }
        ]
    },
    "profile": {
        "basic_info": {
            "baseFee": "",
            "blockNumber": 8764404,
            "callData": "0xa9059cbb0000000000000000000000002105c74daf879067f6926f6066216e9d8cf90c7800000000000000000000000000000000000000000000000595698248593c0000",
            "debugEnable": true,
            "errorInfo": "",
            "eventCount": 1,
            "feeRecipient": "0x829bd824b016326a401d083b33d092293333a830",
            "formatValue": "0",
            "gasLimit": 120000,
            "gasPrice": "27",
            "gasUsed": 39700,
            "intTxnCount": 0,
            "internalRevert": false,
            "internalRevertMessage": "",
            "isContractCreation": false,
            "isFlashloan": false,
            "maxFee": "",
            "nonce": 11966,
            "overwritedBlockNumber": -1,
            "priorityFee": "",
            "receiver": "0xa88fc5e2b9aa4e3bb40d67fa553517a1569c8e72",
            "revertMessage": "",
            "sender": "0x645ced8e431a7638f12b46e88eac7ecabc771159",
            "simulationEnable": true,
            "sourceTxnHash": "0x1ef129a6923f484ce93aad7cdd3a95e41d9c4183a9fa0f853a7163d6a6867ffc",
            "status": true,
            "timestamp": "2019-10-18T10:42:04Z",
            "transactionFee": "0.0010719",
            "txnHash": "0x1ef129a6923f484ce93aad7cdd3a95e41d9c4183a9fa0f853a7163d6a6867ffc",
            "txnIndex": 58,
            "type": 0,
            "value": "0"
        },
        "fund_flow": [
            {
                "amount": "103",
                "from": "0x645ced8e431a7638f12b46e88eac7ecabc771159",
                "id": 1,
                "isERC1155": false,
                "isERC721": false,
                "isReverted": false,
                "order": 1,
                "to": "0x2105c74daf879067f6926f6066216e9d8cf90c78",
                "token": "0xa88fc5e2b9aa4e3bb40d67fa553517a1569c8e72"
            }
        ],
        "token_infos": [
            {
                "address": "0xa88fc5e2b9aa4e3bb40d67fa553517a1569c8e72",
                "decimals": 18
            },
            {
                "address": "0xc02aaa39b223fe8d0a0e5c4f27ead9083c756cc2",
                "decimals": 18
            },
            {
                "address": "0xeeeeeeeeeeeeeeeeeeeeeeeeeeeeeeeeeeeeeeee",
                "decimals": 18
            }
        ]
    },
    "address_label": {
        "labels": [
            {
                "address": "0xeeeeeeeeeeeeeeeeeeeeeeeeeeeeeeeeeeeeeeee",
                "label": "Ether"
            },
            {
                "address": "0xa88fc5e2b9aa4e3bb40d67fa553517a1569c8e72",
                "label": "GMPC"
            },
            {
                "address": "0x0000000000000000000000000000000000000001",
                "label": "Precompiled"
            },
            {
                "address": "0x0000000000000000000000000000000000000002",
                "label": "Precompiled"
            },
            {
                "address": "0x0000000000000000000000000000000000000003",
                "label": "Precompiled"
            },
            {
                "address": "0x0000000000000000000000000000000000000004",
                "label": "Precompiled"
            }
        ]
    },
    "trace": {
        "accountLabels": null,
        "dataMap": {
            "-1": {
                "invocation": {
                    "address": "0x645ced8e431a7638f12b46e88eac7ecabc771159",
                    "callData": "",
                    "decodedMethod": null,
                    "errorInfo": "",
                    "fromAddress": "",
                    "gasUsed": 0,
                    "id": -1,
                    "methodDecoded": false,
                    "operation": "",
                    "output": "",
                    "revert": false,
                    "revertMessage": "",
                    "selector": "",
                    "status": false,
                    "value": ""
                },
                "nodeType": 0
            },
            "0": {
                "invocation": {
                    "address": "0xa88fc5e2b9aa4e3bb40d67fa553517a1569c8e72",
                    "callData": "0x0000000000000000000000002105c74daf879067f6926f6066216e9d8cf90c7800000000000000000000000000000000000000000000000595698248593c0000",
                    "decodedMethod": {
                        "callParams": [
                            {
                                "name": "_to",
                                "type": "address",
                                "value": "0x2105c74daf879067f6926f6066216e9d8cf90c78"
                            },
                            {
                                "decimalAvailable": true,
                                "name": "_value",
                                "type": "uint256",
                                "value": "103,000,000,000,000,000,000"
                            }
                        ],
                        "constructorArguments": "",
                        "name": "transfer",
                        "returnParams": [
                            {
                                "name": "success",
                                "type": "bool",
                                "value": true
                            }
                        ],
                        "signature": "transfer(address,uint256)"
                    },
                    "errorInfo": "",
                    "fromAddress": "0x645ced8e431a7638f12b46e88eac7ecabc771159",
                    "gasUsed": 39700,
                    "id": 0,
                    "methodDecoded": true,
                    "operation": "CALL",
                    "output": "0x0000000000000000000000000000000000000000000000000000000000000001",
                    "revert": false,
                    "revertMessage": "",
                    "selector": "0xa9059cbb",
                    "status": true,
                    "value": "0"
                },
                "nodeType": 0
            },
            "1": {
                "event": {
                    "contract": "0xa88fc5e2b9aa4e3bb40d67fa553517a1569c8e72",
                    "decodedLog": {
                        "name": "Transfer",
                        "params": [
                            {
                                "name": "from",
                                "type": "address",
                                "value": "0x645ced8e431a7638f12b46e88eac7ecabc771159"
                            },
                            {
                                "name": "to",
                                "type": "address",
                                "value": "0x2105c74daf879067f6926f6066216e9d8cf90c78"
                            },
                            {
                                "decimalAvailable": true,
                                "name": "value",
                                "type": "uint256",
                                "value": "103,000,000,000,000,000,000"
                            }
                        ],
                        "signature": "Transfer(address,address,uint256)"
                    },
                    "id": 1,
                    "logData": "0x00000000000000000000000000000000000000000000000595698248593c0000",
                    "logDecoded": true,
                    "operation": "EVENT",
                    "revert": false,
                    "status": true,
                    "topics": [
                        "0xddf252ad1be2c89b69c2b068fc378daa952ba7f163c4a11628f55a4df523b3ef",
                        "0x000000000000000000000000645ced8e431a7638f12b46e88eac7ecabc771159",
                        "0x0000000000000000000000002105c74daf879067f6926f6066216e9d8cf90c78"
                    ]
                },
                "nodeType": 1
            }
        },
        "gasFlame": [
            {
                "children": [
                    {
                        "children": [
                            {
                                "children": [],
                                "depth": 0,
                                "name": "Initial Gas",
                                "value": 23256
                            },
                            {
                                "children": [],
                                "depth": 0,
                                "name": "Executed Gas",
                                "value": 16444
                            }
                        ],
                        "depth": -1,
                        "name": "Actual Gas Used",
                        "value": 39700
                    },
                    {
                        "children": [],
                        "depth": -1,
                        "name": "Refunded Gas",
                        "value": 0
                    }
                ],
                "depth": -2,
                "name": "Total Gas",
                "value": 39700
            }
        ],
        "isConfirmed": true,
        "mainTrace": [
            {
                "children": [
                    {
                        "children": [
                            {
                                "children": [],
                                "depth": 1,
                                "id": 1,
                                "order": 1
                            }
                        ],
                        "depth": 0,
                        "id": 0,
                        "order": 0
                    }
                ],
                "depth": -1,
                "id": -1,
                "order": -1
            }
        ],
        "mainTraceNodeCount": 2,
        "parentIdMap": {
            "0": -1,
            "1": 0
        },
        "tidyTrace": [
            {
                "children": [
                    {
                        "children": [
                            {
                                "children": [],
                                "depth": 1,
                                "id": 1,
                                "order": 1
                            }
                        ],
                        "depth": 0,
                        "id": 0,
                        "order": 0
                    }
                ],
                "depth": -1,
                "id": -1,
                "order": -1
            }
        ],
        "tidyTraceNodeCount": 2
    },
    "state_change": {
        "stateChanges": [
            {
                "address": "0xa88fc5e2b9aa4e3bb40d67fa553517a1569c8e72",
                "erc": "",
                "slots": [
                    {
                        "current": "0x000000000000000000000000000000000000000000067b3cbb73820e74f16c00",
                        "key": "0x37563ff6efdb8e4bcab27ec4a0843bf4afdf38b677785255e6a51232ee3f0719",
                        "prev": "0x000000000000000000000000000000000000000000067b4250dd0456ce2d6c00"
                    },
                    {
                        "current": "0x0000000000000000000000000000000000000000000005dfeb793a568f7c0000",
                        "key": "0x21d416a7653904aa525d42ae52303a1c1c66a8894e04cdfefdda49a79e2f1cf8",
                        "prev": "0x0000000000000000000000000000000000000000000005da560fb80e36400000"
                    }
                ],
                "storageVariables": [
                    {
                        "name": "balanceOf",
                        "type": "mapping(address => uint256)",
                        "value": {
                            "pairs": [
                                {
                                    "key": "0x2105c74daf879067f6926f6066216e9d8cf90c78",
                                    "value": {
                                        "current": "27742424000000000000000",
                                        "prev": "27639424000000000000000",
                                        "typeTag": 1
                                    }
                                },
                                {
                                    "key": "0x645ced8e431a7638f12b46e88eac7ecabc771159",
                                    "value": {
                                        "current": "7835526307007870000000000",
                                        "prev": "7835629307007870000000000",
                                        "typeTag": 1
                                    }
                                }
                            ],
                            "typeTag": 4
                        }
                    }
                ]
            }
        ]
    }
}