{
    "balance_change": {
        "balanceChanges": [
            {
                "account": "0x60cc341520235d654bc7ca626cc1382a17ef118e",
                "assets": [
                    {
                        "address": "0xeeeeeeeeeeeeeeeeeeeeeeeeeeeeeeeeeeeeeeee",
                        "amount": "0.01",
                        "iconUrl": "https://assets.blocksec.com/image/1663669189317-3.png",
                        "isERC1155": false,
                        "isERC721": false,
                        "sign": false,
                        "value": "24.857369359999997869"
                    }
                ]
            },
            {
                "account": "0x00000000000e1a99dddd5610111884278bdbda1d",
                "assets": [
                    {
                        "address": "0xeeeeeeeeeeeeeeeeeeeeeeeeeeeeeeeeeeeeeeee",
                        "amount": "0.01",
                        "iconUrl": "https://assets.blocksec.com/image/1663669189317-3.png",
                        "isERC1155": false,
                        "isERC721": false,
                        "sign": true,
                        "value": "24.857369359999997869"
                    }
                ]
            }
        ]
    },
    "profile": {
        "basic_info": {
            "baseFee": "69.451635489",
            "blockNumber": 19192284,
            "callData": "0x497ecfc57375707468650000000000000000000000000000000000000000000000000000",
            "debugEnable": true,
            "errorInfo": "",
            "eventCount": 1,
            "feeRecipient": "0x1f9090aae28b8a3dceadf281b0f12828e676c326",
            "formatValue": "0.01",
            "gasLimit": 45138,
            "gasPrice": "69.458352891",
            "gasUsed": 30059,
            "intTxnCount": 1,
            "internalRevert": false,
            "internalRevertMessage": "",
            "isContractCreation": false,
            "isFlashloan": false,
            "maxFee": "70.591634549",
            "nonce": 34,
            "overwritedBlockNumber": -1,
            "priorityFee": "0.006717402",
            "receiver": "0x00000000000e1a99dddd5610111884278bdbda1d",
            "revertMessage": "",
            "sender": "0x60cc341520235d654bc7ca626cc1382a17ef118e",
            "simulationEnable": true,
            "sourceTxnHash": "0x1e02a738caa929d6bc6d3d0b5ecfd03af5b4f7ae5fe040552ac7a9db6aebd7f2",
            "status": true,
            "timestamp": "2024-02-09T18:14:59Z",
            "transactionFee": "0.002087848629550569",
            "txnHash": "0x1e02a738caa929d6bc6d3d0b5ecfd03af5b4f7ae5fe040552ac7a9db6aebd7f2",
            "txnIndex": 108,
            "type": 2,
            "value": "10000000000000000"
        },
        "fund_flow": [
            {
                "amount": "0.01",
                "from": "0x60cc341520235d654bc7ca626cc1382a17ef118e",
                "id": 1,
                "isERC1155": false,
                "isERC721": false,
                "isReverted": false,
                "order": 1,
                "to": "0x00000000000e1a99dddd5610111884278bdbda1d",
                "token": "0xeeeeeeeeeeeeeeeeeeeeeeeeeeeeeeeeeeeeeeee"
            }
        ],
        "token_infos": [
            {
                "address": "0xeeeeeeeeeeeeeeeeeeeeeeeeeeeeeeeeeeeeeeee",
                "decimals": 18
            },
            {
                "address": "0xc02aaa39b223fe8d0a0e5c4f27ead9083c756cc2",
                "decimals": 18
            }
        ]
    },
    "address_label": {
        "labels": [
            {
                "address": "0xfd26af596c7b7a4a8cfb930a4144bfe30eec1f61",
                "label": "ClustersBeta"
            },
            {
                "address": "0x0000000000000000000000000000000000000001",
                "label": "Precompiled"
            },
            {
                "address": "0x0000000000000000000000000000000000000002",
                "label": "Precompiled"
            },
            {
                "address": "0x0000000000000000000000000000000000000003",
                "label": "Precompiled"
            },
            {
                "address": "0x0000000000000000000000000000000000000004",
                "label": "Precompiled"
            },
            {
                "address": "0xeeeeeeeeeeeeeeeeeeeeeeeeeeeeeeeeeeeeeeee",
                "label": "Ether"
            },
            {
                "address": "0x00000000000e1a99dddd5610111884278bdbda1d",
                "label": "Clusters: Beta"
            }
        ]
    },
    "trace": {
        "accountLabels": null,
        "dataMap": {
            "-1": {
                "invocation": {
                    "address": "0x60cc341520235d654bc7ca626cc1382a17ef118e",
                    "callData": "",
                    "decodedMethod": null,
                    "errorInfo": "",
                    "fromAddress": "",
                    "gasUsed": 0,
                    "id": -1,
                    "methodDecoded": false,
                    "operation": "",
                    "output": "",
                    "revert": false,
                    "revertMessage": "",
                    "selector": "",
                    "status": false,
                    "value": ""
                },
                "nodeType": 0
            },
            "0": {
                "invocation": {
                    "address": "0x00000000000e1a99dddd5610111884278bdbda1d",
                    "callData": "0x7375707468650000000000000000000000000000000000000000000000000000",
                    "decodedMethod": {
                        "callParams": [
                            {
                                "name": "name",
                                "type": "bytes32",
                                "value": "0x7375707468650000000000000000000000000000000000000000000000000000"
                            }
                        ],
                        "constructorArguments": "",
                        "name": "placeBid",
                        "returnParams": [],
                        "signature": "placeBid(bytes32)"
                    },
                    "errorInfo": "",
                    "fromAddress": "0x60cc341520235d654bc7ca626cc1382a17ef118e",
                    "gasUsed": 30059,
                    "id": 0,
                    "methodDecoded": true,
                    "operation": "CALL",
                    "output": "",
                    "revert": false,
                    "revertMessage": "",
                    "selector": "0x497ecfc5",
                    "status": true,
                    "value": "0.01"
                },
                "nodeType": 0
            },
            "1": {
                "invocation": {
                    "address": "0xfd26af596c7b7a4a8cfb930a4144bfe30eec1f61",
                    "callData": "0x7375707468650000000000000000000000000000000000000000000000000000",
                    "decodedMethod": {
                        "callParams": [
                            {
                                "name": "name",
                                "type": "bytes32",
                                "value": "0x7375707468650000000000000000000000000000000000000000000000000000"
                            }
                        ],
                        "constructorArguments": "",
                        "name": "placeBid",
                        "returnParams": [],
                        "signature": "placeBid(bytes32)"
                    },
                    "errorInfo": "",
                    "fromAddress": "0x00000000000e1a99dddd5610111884278bdbda1d",
                    "gasUsed": 4031,
                    "id": 1,
                    "methodDecoded": true,
                    "operation": "DELEGATECALL",
                    "output": "",
                    "revert": false,
                    "revertMessage": "",
                    "selector": "0x497ecfc5",
                    "status": true,
                    "value": "0.01"
                },
                "nodeType": 0
            },
            "2": {
                "event": {
                    "contract": "0x00000000000e1a99dddd5610111884278bdbda1d",
                    "decodedLog": {
                        "name": "Bid",
                        "params": [
                            {
                                "name": "from",
                                "type": "bytes32",
                                "value": "0x00000000000000000000000060cc341520235d654bc7ca626cc1382a17ef118e"
                            },
                            {
                                "name": "amount",
                                "type": "uint256",
                                "value": "10,000,000,000,000,000"
                            },
                            {
                                "name": "name",
                                "type": "bytes32",
                                "value": "0x7375707468650000000000000000000000000000000000000000000000000000"
                            }
                        ],
                        "signature": "Bid(bytes32,uint256,bytes32)"
                    },
                    "id": 2,
                    "logData": "0x00000000000000000000000060cc341520235d654bc7ca626cc1382a17ef118e000000000000000000000000000000000000000000000000002386f26fc100007375707468650000000000000000000000000000000000000000000000000000",
                    "logDecoded": true,
                    "operation": "EVENT",
                    "revert": false,
                    "status": true,
                    "topics": [
                        "0xfab4f0f69fcc31fb7e2f7506221ad6c20a0d46cec98ee895500cdf264493ec68"
                    ]
                },
                "nodeType": 1
            }
        },
        "gasFlame": [
            {
                "children": [
                    {
                        "children": [
                            {
                                "children": [],
                                "depth": 0,
                                "name": "Initial Gas",
                                "value": 21264
                            },
                            {
                                "children": [
                                    {
                                        "children": [],
                                        "depth": 1,
                                        "name": "placeBid",
                                        "value": 4031
                                    }
                                ],
                                "depth": 0,
                                "name": "Executed Gas",
                                "value": 8795
                            }
                        ],
                        "depth": -1,
                        "name": "Actual Gas Used",
                        "value": 30059
                    },
                    {
                        "children": [],
                        "depth": -1,
                        "name": "Refunded Gas",
                        "value": 0
                    }
                ],
                "depth": -2,
                "name": "Total Gas",
                "value": 30059
            }
        ],
        "isConfirmed": true,
        "mainTrace": [
            {
                "children": [
                    {
                        "children": [
                            {
                                "children": [
                                    {
                                        "children": [],
                                        "depth": 2,
                                        "id": 2,
                                        "order": 2
                                    }
                                ],
                                "depth": 1,
                                "id": 1,
                                "order": 1
                            }
                        ],
                        "depth": 0,
                        "id": 0,
                        "order": 0
                    }
                ],
                "depth": -1,
                "id": -1,
                "order": -1
            }
        ],
        "mainTraceNodeCount": 3,
        "parentIdMap": {
            "0": -1,
            "1": 0,
            "2": 1
        },
        "tidyTrace": [
            {
                "children": [
                    {
                        "children": [
                            {
                                "children": [
                                    {
                                        "children": [],
                                        "depth": 2,
                                        "id": 2,
                                        "order": 2
                                    }
                                ],
                                "depth": 1,
                                "id": 1,
                                "order": 1
                            }
                        ],
                        "depth": 0,
                        "id": 0,
                        "order": 0
                    }
                ],
                "depth": -1,
                "id": -1,
                "order": -1
            }
        ],
        "tidyTraceNodeCount": 3
    },
    "state_change": {
        "stateChanges": []
    }
}