{
    "balance_change": {
        "balanceChanges": [
            {
                "account": "0x40708977621a59ccc6072c5d5ea89e7a0bf3a033",
                "assets": [
                    {
                        "address": "0xc4131c1893576e078a0b637b653f3e6a18e137ac",
                        "amount": "1,100",
                        "iconUrl": "",
                        "isERC1155": false,
                        "isERC721": false,
                        "sign": false,
                        "value": ""
                    }
                ]
            },
            {
                "account": "0xfe5854255eb1eb921525fa856a3947ed2412a1d7",
                "assets": [
                    {
                        "address": "0xc4131c1893576e078a0b637b653f3e6a18e137ac",
                        "amount": "1,100",
                        "iconUrl": "",
                        "isERC1155": false,
                        "isERC721": false,
                        "sign": true,
                        "value": ""
                    }
                ]
            }
        ]
    },
    "profile": {
        "basic_info": {
            "baseFee": "",
            "blockNumber": 7512615,
            "callData": "0xa9059cbb000000000000000000000000fe5854255eb1eb921525fa856a3947ed2412a1d70000000000000000000000000000000000000000000000000000000000a7d8c0",
            "debugEnable": true,
            "errorInfo": "",
            "eventCount": 1,
            "feeRecipient": "0xea674fdde714fd979de3edf0f56aa9716b898ec8",
            "formatValue": "0",
            "gasLimit": 120000,
            "gasPrice": "2.6",
            "gasUsed": 21319,
            "intTxnCount": 0,
            "internalRevert": false,
            "internalRevertMessage": "",
            "isContractCreation": false,
            "isFlashloan": false,
            "maxFee": "",
            "nonce": 0,
            "overwritedBlockNumber": -1,
            "priorityFee": "",
            "receiver": "0xc4131c1893576e078a0b637b653f3e6a18e137ac",
            "revertMessage": "",
            "sender": "0x40708977621a59ccc6072c5d5ea89e7a0bf3a033",
            "simulationEnable": true,
            "sourceTxnHash": "0x1ef1823c3d0cca921215d25b381a48b9513742be47bda35821382e638dfef0e0",
            "status": true,
            "timestamp": "2019-04-06T05:13:37Z",
            "transactionFee": "0.0000554294",
            "txnHash": "0x1ef1823c3d0cca921215d25b381a48b9513742be47bda35821382e638dfef0e0",
            "txnIndex": 73,
            "type": 0,
            "value": "0"
        },
        "fund_flow": [
            {
                "amount": "1,100",
                "from": "0x40708977621a59ccc6072c5d5ea89e7a0bf3a033",
                "id": 1,
                "isERC1155": false,
                "isERC721": false,
                "isReverted": false,
                "order": 1,
                "to": "0xfe5854255eb1eb921525fa856a3947ed2412a1d7",
                "token": "0xc4131c1893576e078a0b637b653f3e6a18e137ac"
            }
        ],
        "token_infos": [
            {
                "address": "0xc4131c1893576e078a0b637b653f3e6a18e137ac",
                "decimals": 4
            },
            {
                "address": "0xeeeeeeeeeeeeeeeeeeeeeeeeeeeeeeeeeeeeeeee",
                "decimals": 18
            },
            {
                "address": "0xc02aaa39b223fe8d0a0e5c4f27ead9083c756cc2",
                "decimals": 18
            }
        ]
    },
    "address_label": {
        "labels": [
            {
                "address": "0xeeeeeeeeeeeeeeeeeeeeeeeeeeeeeeeeeeeeeeee",
                "label": "Ether"
            },
            {
                "address": "0xc4131c1893576e078a0b637b653f3e6a18e137ac",
                "label": "YB"
            },
            {
                "address": "0x0000000000000000000000000000000000000001",
                "label": "Precompiled"
            },
            {
                "address": "0x0000000000000000000000000000000000000002",
                "label": "Precompiled"
            },
            {
                "address": "0x0000000000000000000000000000000000000003",
                "label": "Precompiled"
            },
            {
                "address": "0x0000000000000000000000000000000000000004",
                "label": "Precompiled"
            }
        ]
    },
    "trace": {
        "accountLabels": null,
        "dataMap": {
            "-1": {
                "invocation": {
                    "address": "0x40708977621a59ccc6072c5d5ea89e7a0bf3a033",
                    "callData": "",
                    "decodedMethod": null,
                    "errorInfo": "",
                    "fromAddress": "",
                    "gasUsed": 0,
                    "id": -1,
                    "methodDecoded": false,
                    "operation": "",
                    "output": "",
                    "revert": false,
                    "revertMessage": "",
                    "selector": "",
                    "status": false,
                    "value": ""
                },
                "nodeType": 0
            },
            "0": {
                "invocation": {
                    "address": "0xc4131c1893576e078a0b637b653f3e6a18e137ac",
                    "callData": "0x000000000000000000000000fe5854255eb1eb921525fa856a3947ed2412a1d70000000000000000000000000000000000000000000000000000000000a7d8c0",
                    "decodedMethod": {
                        "callParams": [
                            {
                                "name": "_to",
                                "type": "address",
                                "value": "0xfe5854255eb1eb921525fa856a3947ed2412a1d7"
                            },
                            {
                                "decimalAvailable": true,
                                "name": "_value",
                                "type": "uint256",
                                "value": "11,000,000"
                            }
                        ],
                        "constructorArguments": "",
                        "name": "transfer",
                        "returnParams": [
                            {
                                "name": "success",
                                "type": "bool",
                                "value": true
                            }
                        ],
                        "signature": "transfer(address,uint256)"
                    },
                    "errorInfo": "",
                    "fromAddress": "0x40708977621a59ccc6072c5d5ea89e7a0bf3a033",
                    "gasUsed": 21319,
                    "id": 0,
                    "methodDecoded": true,
                    "operation": "CALL",
                    "output": "0x0000000000000000000000000000000000000000000000000000000000000001",
                    "revert": false,
                    "revertMessage": "",
                    "selector": "0xa9059cbb",
                    "status": true,
                    "value": "0"
                },
                "nodeType": 0
            },
            "1": {
                "event": {
                    "contract": "0xc4131c1893576e078a0b637b653f3e6a18e137ac",
                    "decodedLog": {
                        "name": "Transfer",
                        "params": [
                            {
                                "name": "_from",
                                "type": "address",
                                "value": "0x40708977621a59ccc6072c5d5ea89e7a0bf3a033"
                            },
                            {
                                "name": "_to",
                                "type": "address",
                                "value": "0xfe5854255eb1eb921525fa856a3947ed2412a1d7"
                            },
                            {
                                "decimalAvailable": true,
                                "name": "_value",
                                "type": "uint256",
                                "value": "11,000,000"
                            }
                        ],
                        "signature": "Transfer(address,address,uint256)"
                    },
                    "id": 1,
                    "logData": "0x0000000000000000000000000000000000000000000000000000000000a7d8c0",
                    "logDecoded": true,
                    "operation": "EVENT",
                    "revert": false,
                    "status": true,
                    "topics": [
                        "0xddf252ad1be2c89b69c2b068fc378daa952ba7f163c4a11628f55a4df523b3ef",
                        "0x00000000000000000000000040708977621a59ccc6072c5d5ea89e7a0bf3a033",
                        "0x000000000000000000000000fe5854255eb1eb921525fa856a3947ed2412a1d7"
                    ]
                },
                "nodeType": 1
            }
        },
        "gasFlame": [
            {
                "children": [
                    {
                        "children": [
                            {
                                "children": [],
                                "depth": 0,
                                "name": "Initial Gas",
                                "value": 23000
                            },
                            {
                                "children": [],
                                "depth": 0,
                                "name": "Executed Gas",
                                "value": 13319
                            }
                        ],
                        "depth": -1,
                        "name": "Actual Gas Used",
                        "value": 21319
                    },
                    {
                        "children": [],
                        "depth": -1,
                        "name": "Refunded Gas",
                        "value": 15000
                    }
                ],
                "depth": -2,
                "name": "Total Gas",
                "value": 36319
            }
        ],
        "isConfirmed": true,
        "mainTrace": [
            {
                "children": [
                    {
                        "children": [
                            {
                                "children": [],
                                "depth": 1,
                                "id": 1,
                                "order": 1
                            }
                        ],
                        "depth": 0,
                        "id": 0,
                        "order": 0
                    }
                ],
                "depth": -1,
                "id": -1,
                "order": -1
            }
        ],
        "mainTraceNodeCount": 2,
        "parentIdMap": {
            "0": -1,
            "1": 0
        },
        "tidyTrace": [
            {
                "children": [
                    {
                        "children": [
                            {
                                "children": [],
                                "depth": 1,
                                "id": 1,
                                "order": 1
                            }
                        ],
                        "depth": 0,
                        "id": 0,
                        "order": 0
                    }
                ],
                "depth": -1,
                "id": -1,
                "order": -1
            }
        ],
        "tidyTraceNodeCount": 2
    },
    "state_change": {
        "stateChanges": [
            {
                "address": "0xc4131c1893576e078a0b637b653f3e6a18e137ac",
                "erc": "ERC-20",
                "slots": [
                    {
                        "current": "0x0000000000000000000000000000000000000000000000000000000000000000",
                        "key": "0xc7156b4cd38441162b276605872be1d6fc6a929efebf4450873a5011fc5891c2",
                        "prev": "0x0000000000000000000000000000000000000000000000000000000000a7d8c0"
                    },
                    {
                        "current": "0x000000000000000000000000000000000000000000000000000000000930e7c0",
                        "key": "0xa5675060c7cce7346e0bf41c15cc5487c591f8ec625c0cef4518b14cf7bb3ca0",
                        "prev": "0x0000000000000000000000000000000000000000000000000000000008890f00"
                    }
                ],
                "storageVariables": [
                    {
                        "name": "balances",
                        "type": "mapping(address => uint256)",
                        "value": {
                            "pairs": [
                                {
                                    "key": "0x40708977621a59ccc6072c5d5ea89e7a0bf3a033",
                                    "value": {
                                        "current": "0",
                                        "prev": "11000000",
                                        "typeTag": 1
                                    }
                                },
                                {
                                    "key": "0xfe5854255eb1eb921525fa856a3947ed2412a1d7",
                                    "value": {
                                        "current": "154200000",
                                        "prev": "143200000",
                                        "typeTag": 1
                                    }
                                }
                            ],
                            "typeTag": 4
                        }
                    }
                ]
            }
        ]
    }
}