{
    "balance_change": {
        "balanceChanges": [
            {
                "account": "0x5f65f7b609678448494de4c87521cdf6cef1e932",
                "assets": [
                    {
                        "address": "0xeeeeeeeeeeeeeeeeeeeeeeeeeeeeeeeeeeeeeeee",
                        "amount": "0.205620457943821984",
                        "iconUrl": "https://assets.blocksec.com/image/1663669189317-3.png",
                        "isERC1155": false,
                        "isERC721": false,
                        "sign": true,
                        "value": "69.22104579404690605"
                    }
                ]
            },
            {
                "account": "0xddcc00451532c696e51cc78bf53badabf4885478",
                "assets": [
                    {
                        "address": "0xeeeeeeeeeeeeeeeeeeeeeeeeeeeeeeeeeeeeeeee",
                        "amount": "0.205620457943821984",
                        "iconUrl": "https://assets.blocksec.com/image/1663669189317-3.png",
                        "isERC1155": false,
                        "isERC721": false,
                        "sign": false,
                        "value": "69.22104579404690605"
                    }
                ]
            }
        ]
    },
    "profile": {
        "basic_info": {
            "baseFee": "",
            "blockNumber": 10864637,
            "callData": "0x96aa736800000000000000000000000000000000000000000000000000000000000000200000000000000000000000000000000000000000000000000000000000000001000000000000000000000000ddcc00451532c696e51cc78bf53badabf4885478",
            "debugEnable": true,
            "errorInfo": "",
            "eventCount": 1,
            "feeRecipient": "0x35f61dfb08ada13eba64bf156b80df3d5b3a738d",
            "formatValue": "0",
            "gasLimit": 64200,
            "gasPrice": "152",
            "gasUsed": 34498,
            "intTxnCount": 3,
            "internalRevert": false,
            "internalRevertMessage": "",
            "isContractCreation": false,
            "isFlashloan": false,
            "maxFee": "",
            "nonce": 690725,
            "overwritedBlockNumber": -1,
            "priorityFee": "",
            "receiver": "0x5f65f7b609678448494de4c87521cdf6cef1e932",
            "revertMessage": "",
            "sender": "0xd24400ae8bfebb18ca49be86258a3c749cf46853",
            "simulationEnable": true,
            "sourceTxnHash": "0x1ea221de4117b2bb83aa15428a0c44d496c7f556c927f41bf96edab294b4d358",
            "status": true,
            "timestamp": "2020-09-15T05:10:29Z",
            "transactionFee": "0.005243696",
            "txnHash": "0x1ea221de4117b2bb83aa15428a0c44d496c7f556c927f41bf96edab294b4d358",
            "txnIndex": 107,
            "type": 0,
            "value": "0"
        },
        "fund_flow": [
            {
                "amount": "0.205620457943821984",
                "from": "0xddcc00451532c696e51cc78bf53badabf4885478",
                "id": 1,
                "isERC1155": false,
                "isERC721": false,
                "isReverted": false,
                "order": 1,
                "to": "0x5f65f7b609678448494de4c87521cdf6cef1e932",
                "token": "0xeeeeeeeeeeeeeeeeeeeeeeeeeeeeeeeeeeeeeeee"
            }
        ],
        "token_infos": [
            {
                "address": "0xc02aaa39b223fe8d0a0e5c4f27ead9083c756cc2",
                "decimals": 18
            },
            {
                "address": "0xeeeeeeeeeeeeeeeeeeeeeeeeeeeeeeeeeeeeeeee",
                "decimals": 18
            }
        ]
    },
    "address_label": {
        "labels": [
            {
                "address": "0xeeeeeeeeeeeeeeeeeeeeeeeeeeeeeeeeeeeeeeee",
                "label": "Ether"
            },
            {
                "address": "0xd24400ae8bfebb18ca49be86258a3c749cf46853",
                "label": "Gemini"
            },
            {
                "address": "0x5f65f7b609678448494de4c87521cdf6cef1e932",
                "label": "0x5f65_GEMINI"
            },
            {
                "address": "0xddcc00451532c696e51cc78bf53badabf4885478",
                "label": "0xddcc_GEMINI"
            },
            {
                "address": "0x0000000000000000000000000000000000000001",
                "label": "Precompiled"
            },
            {
                "address": "0x0000000000000000000000000000000000000002",
                "label": "Precompiled"
            },
            {
                "address": "0x0000000000000000000000000000000000000003",
                "label": "Precompiled"
            },
            {
                "address": "0x0000000000000000000000000000000000000004",
                "label": "Precompiled"
            }
        ]
    },
    "trace": {
        "accountLabels": null,
        "dataMap": {
            "-1": {
                "invocation": {
                    "address": "0xd24400ae8bfebb18ca49be86258a3c749cf46853",
                    "callData": "",
                    "decodedMethod": null,
                    "errorInfo": "",
                    "fromAddress": "",
                    "gasUsed": 0,
                    "id": -1,
                    "methodDecoded": false,
                    "operation": "",
                    "output": "",
                    "revert": false,
                    "revertMessage": "",
                    "selector": "",
                    "status": false,
                    "value": ""
                },
                "nodeType": 0
            },
            "0": {
                "invocation": {
                    "address": "0x5f65f7b609678448494de4c87521cdf6cef1e932",
                    "callData": "0x00000000000000000000000000000000000000000000000000000000000000200000000000000000000000000000000000000000000000000000000000000001000000000000000000000000ddcc00451532c696e51cc78bf53badabf4885478",
                    "decodedMethod": null,
                    "errorInfo": "",
                    "fromAddress": "0xd24400ae8bfebb18ca49be86258a3c749cf46853",
                    "gasUsed": 34498,
                    "id": 0,
                    "methodDecoded": false,
                    "operation": "CALL",
                    "output": "",
                    "revert": false,
                    "revertMessage": "",
                    "selector": "0x96aa7368",
                    "status": true,
                    "value": "0"
                },
                "nodeType": 0
            },
            "1": {
                "invocation": {
                    "address": "0xddcc00451532c696e51cc78bf53badabf4885478",
                    "callData": "0x",
                    "decodedMethod": {
                        "callParams": [],
                        "constructorArguments": "",
                        "name": "sweepEther",
                        "returnParams": [],
                        "signature": "sweepEther()"
                    },
                    "errorInfo": "",
                    "fromAddress": "0x5f65f7b609678448494de4c87521cdf6cef1e932",
                    "gasUsed": 9787,
                    "id": 1,
                    "methodDecoded": true,
                    "operation": "CALL",
                    "output": "",
                    "revert": false,
                    "revertMessage": "",
                    "selector": "0x90ec71bd",
                    "status": true,
                    "value": "0"
                },
                "nodeType": 0
            },
            "2": {
                "invocation": {
                    "address": "0x39778bc77bd7a9456655b19fd4c5d0bf2071104e",
                    "callData": "0x",
                    "decodedMethod": {
                        "callParams": [],
                        "constructorArguments": "",
                        "name": "sweepEther",
                        "returnParams": [],
                        "signature": "sweepEther()"
                    },
                    "errorInfo": "",
                    "fromAddress": "0xddcc00451532c696e51cc78bf53badabf4885478",
                    "gasUsed": 9024,
                    "id": 2,
                    "methodDecoded": true,
                    "operation": "DELEGATECALL",
                    "output": "",
                    "revert": false,
                    "revertMessage": "",
                    "selector": "0x90ec71bd",
                    "status": true,
                    "value": "0"
                },
                "nodeType": 0
            },
            "3": {
                "invocation": {
                    "address": "0x5f65f7b609678448494de4c87521cdf6cef1e932",
                    "callData": "0x",
                    "decodedMethod": null,
                    "errorInfo": "",
                    "fromAddress": "0xddcc00451532c696e51cc78bf53badabf4885478",
                    "gasUsed": 1378,
                    "id": 3,
                    "methodDecoded": false,
                    "operation": "CALL",
                    "output": "",
                    "revert": false,
                    "revertMessage": "",
                    "selector": "fallback",
                    "status": true,
                    "value": "0.205620457943821984"
                },
                "nodeType": 0
            },
            "4": {
                "event": {
                    "contract": "0x5f65f7b609678448494de4c87521cdf6cef1e932",
                    "decodedLog": {
                        "name": "ReceivedEther",
                        "params": [
                            {
                                "name": "sender",
                                "type": "address",
                                "value": "0xddcc00451532c696e51cc78bf53badabf4885478"
                            },
                            {
                                "name": "amount",
                                "type": "uint256",
                                "value": "205,620,457,943,821,984"
                            }
                        ],
                        "signature": "ReceivedEther(address,uint256)"
                    },
                    "id": 4,
                    "logData": "0x000000000000000000000000ddcc00451532c696e51cc78bf53badabf488547800000000000000000000000000000000000000000000000002da82b7924b6ea0",
                    "logDecoded": true,
                    "operation": "EVENT",
                    "revert": false,
                    "status": true,
                    "topics": [
                        "0xa419615bc8fda4c87663805ee2a3597a6d71c1d476911d9892f340d965bc7bf1"
                    ]
                },
                "nodeType": 1
            }
        },
        "gasFlame": [
            {
                "children": [
                    {
                        "children": [
                            {
                                "children": [],
                                "depth": 0,
                                "name": "Initial Gas",
                                "value": 21700
                            },
                            {
                                "children": [
                                    {
                                        "children": [
                                            {
                                                "children": [
                                                    {
                                                        "children": [],
                                                        "depth": 3,
                                                        "name": "fallback",
                                                        "value": 1378
                                                    }
                                                ],
                                                "depth": 2,
                                                "name": "sweepEther",
                                                "value": 9024
                                            }
                                        ],
                                        "depth": 1,
                                        "name": "sweepEther",
                                        "value": 9787
                                    }
                                ],
                                "depth": 0,
                                "name": "Executed Gas",
                                "value": 12798
                            }
                        ],
                        "depth": -1,
                        "name": "Actual Gas Used",
                        "value": 34498
                    },
                    {
                        "children": [],
                        "depth": -1,
                        "name": "Refunded Gas",
                        "value": 0
                    }
                ],
                "depth": -2,
                "name": "Total Gas",
                "value": 34498
            }
        ],
        "isConfirmed": true,
        "mainTrace": [
            {
                "children": [
                    {
                        "children": [
                            {
                                "children": [
                                    {
                                        "children": [
                                            {
                                                "children": [
                                                    {
                                                        "children": [],
                                                        "depth": 4,
                                                        "id": 4,
                                                        "order": 4
                                                    }
                                                ],
                                                "depth": 3,
                                                "id": 3,
                                                "order": 3
                                            }
                                        ],
                                        "depth": 2,
                                        "id": 2,
                                        "order": 2
                                    }
                                ],
                                "depth": 1,
                                "id": 1,
                                "order": 1
                            }
                        ],
                        "depth": 0,
                        "id": 0,
                        "order": 0
                    }
                ],
                "depth": -1,
                "id": -1,
                "order": -1
            }
        ],
        "mainTraceNodeCount": 5,
        "parentIdMap": {
            "0": -1,
            "1": 0,
            "2": 1,
            "3": 2,
            "4": 3
        },
        "tidyTrace": [
            {
                "children": [
                    {
                        "children": [
                            {
                                "children": [
                                    {
                                        "children": [
                                            {
                                                "children": [
                                                    {
                                                        "children": [],
                                                        "depth": 4,
                                                        "id": 4,
                                                        "order": 4
                                                    }
                                                ],
                                                "depth": 3,
                                                "id": 3,
                                                "order": 3
                                            }
                                        ],
                                        "depth": 2,
                                        "id": 2,
                                        "order": 2
                                    }
                                ],
                                "depth": 1,
                                "id": 1,
                                "order": 1
                            }
                        ],
                        "depth": 0,
                        "id": 0,
                        "order": 0
                    }
                ],
                "depth": -1,
                "id": -1,
                "order": -1
            }
        ],
        "tidyTraceNodeCount": 5
    },
    "state_change": {
        "stateChanges": []
    }
}