{
    "balance_change": {
        "balanceChanges": [
            {
                "account": "0x1692ed8a4c20910e96b6cf3e37146789a6bddbc8",
                "assets": [
                    {
                        "address": "0xeeeeeeeeeeeeeeeeeeeeeeeeeeeeeeeeeeeeeeee",
                        "amount": "0.000000000000012396",
                        "iconUrl": "https://assets.blocksec.com/image/1663669189317-3.png",
                        "isERC1155": false,
                        "isERC721": false,
                        "sign": false,
                        "value": "0.000000000030571387080000000227"
                    }
                ]
            },
            {
                "account": "0x6f1cdbbb4d53d226cf4b917bf768b94acbab6168",
                "assets": [
                    {
                        "address": "0xeeeeeeeeeeeeeeeeeeeeeeeeeeeeeeeeeeeeeeee",
                        "amount": "0.000000000000012396",
                        "iconUrl": "https://assets.blocksec.com/image/1663669189317-3.png",
                        "isERC1155": false,
                        "isERC721": false,
                        "sign": true,
                        "value": "0.000000000030571387080000000227"
                    },
                    {
                        "address": "0xc02aaa39b223fe8d0a0e5c4f27ead9083c756cc2",
                        "amount": "8.609135972658485883",
                        "iconUrl": "https://assets.blocksec.com/icon/f1cb2d02c471d545bbc7722daf3277fd852d98e63d118771af7047bd8256c516.png",
                        "isERC1155": false,
                        "isERC721": false,
                        "sign": true,
                        "value": "21232.109410691790156"
                    },
                    {
                        "address": "0x514910771af9ca656af840dff83e8264ecf986ca",
                        "amount": "1,449.590017499783233536",
                        "iconUrl": "https://assets.blocksec.com/icon/f97453a18956674db69f16b525216d646fc76f3c7f90f0cd6147f8534d5af3e9.png",
                        "isERC1155": false,
                        "isERC721": false,
                        "sign": false,
                        "value": "21207.501948710001134"
                    }
                ]
            },
            {
                "account": "0xa6cc3c2531fdaa6ae1a3ca84c2855806728693e8",
                "assets": [
                    {
                        "address": "0xc02aaa39b223fe8d0a0e5c4f27ead9083c756cc2",
                        "amount": "8.609135972658485883",
                        "iconUrl": "https://assets.blocksec.com/icon/f1cb2d02c471d545bbc7722daf3277fd852d98e63d118771af7047bd8256c516.png",
                        "isERC1155": false,
                        "isERC721": false,
                        "sign": false,
                        "value": "21232.109410691790156"
                    },
                    {
                        "address": "0x514910771af9ca656af840dff83e8264ecf986ca",
                        "amount": "1,449.590017499783233536",
                        "iconUrl": "https://assets.blocksec.com/icon/f97453a18956674db69f16b525216d646fc76f3c7f90f0cd6147f8534d5af3e9.png",
                        "isERC1155": false,
                        "isERC721": false,
                        "sign": true,
                        "value": "21207.501948710001134"
                    }
                ]
            }
        ]
    },
    "profile": {
        "basic_info": {
            "baseFee": "32.349238442",
            "blockNumber": 19036452,
            "callData": "0xceb5748e000000000000000000000000a6cc3c2531fdaa6ae1a3ca84c2855806728693e8000000000000000000000000514910771af9ca656af840dff83e8264ecf986ca000000000000000000000000c02aaa39b223fe8d0a0e5c4f27ead9083c756cc20000000000000000000000000000000000000000000000000000000000000bb800000000000000000000000000000000000000000000004e951a48a8b2dc00000000000000000000000000000000000000000000000000007779cb8dd1589a7a000000000000000000000000000000000000000013c1e52e2e779d27e970648e00000000000000000000000000000000000000000000000000000000012279250000000000000000000000000000000000000000000000000000000000000000",
            "debugEnable": true,
            "errorInfo": "",
            "eventCount": 3,
            "feeRecipient": "0x1f9090aae28b8a3dceadf281b0f12828e676c326",
            "formatValue": "0.000000000000012396",
            "gasLimit": 166776,
            "gasPrice": "226.759688897",
            "gasUsed": 103183,
            "intTxnCount": 6,
            "internalRevert": false,
            "internalRevertMessage": "",
            "isContractCreation": false,
            "isFlashloan": false,
            "maxFee": "226.759688897",
            "nonce": 8452,
            "overwritedBlockNumber": -1,
            "priorityFee": "194.410450455",
            "receiver": "0x6f1cdbbb4d53d226cf4b917bf768b94acbab6168",
            "revertMessage": "",
            "sender": "0x1692ed8a4c20910e96b6cf3e37146789a6bddbc8",
            "simulationEnable": true,
            "sourceTxnHash": "0x1fe4d483db26a3b67519ea9f73836f6b2df203b5efed5126656b82c7af27159b",
            "status": true,
            "timestamp": "2024-01-18T21:32:59Z",
            "transactionFee": "0.023397744979459151",
            "txnHash": "0x1fe4d483db26a3b67519ea9f73836f6b2df203b5efed5126656b82c7af27159b",
            "txnIndex": 0,
            "type": 2,
            "value": "12396"
        },
        "fund_flow": [
            {
                "amount": "0.000000000000012396",
                "from": "0x1692ed8a4c20910e96b6cf3e37146789a6bddbc8",
                "id": 1,
                "isERC1155": false,
                "isERC721": false,
                "isReverted": false,
                "order": 1,
                "to": "0x6f1cdbbb4d53d226cf4b917bf768b94acbab6168",
                "token": "0xeeeeeeeeeeeeeeeeeeeeeeeeeeeeeeeeeeeeeeee"
            },
            {
                "amount": "8.609135972658485883",
                "from": "0xa6cc3c2531fdaa6ae1a3ca84c2855806728693e8",
                "id": 2,
                "isERC1155": false,
                "isERC721": false,
                "isReverted": false,
                "order": 2,
                "to": "0x6f1cdbbb4d53d226cf4b917bf768b94acbab6168",
                "token": "0xc02aaa39b223fe8d0a0e5c4f27ead9083c756cc2"
            },
            {
                "amount": "1,449.590017499783233536",
                "from": "0x6f1cdbbb4d53d226cf4b917bf768b94acbab6168",
                "id": 3,
                "isERC1155": false,
                "isERC721": false,
                "isReverted": false,
                "order": 3,
                "to": "0xa6cc3c2531fdaa6ae1a3ca84c2855806728693e8",
                "token": "0x514910771af9ca656af840dff83e8264ecf986ca"
            }
        ],
        "token_infos": [
            {
                "address": "0x514910771af9ca656af840dff83e8264ecf986ca",
                "decimals": 18
            },
            {
                "address": "0xc02aaa39b223fe8d0a0e5c4f27ead9083c756cc2",
                "decimals": 18
            },
            {
                "address": "0xeeeeeeeeeeeeeeeeeeeeeeeeeeeeeeeeeeeeeeee",
                "decimals": 18
            }
        ]
    },
    "address_label": {
        "labels": [
            {
                "address": "0xeeeeeeeeeeeeeeeeeeeeeeeeeeeeeeeeeeeeeeee",
                "label": "Ether"
            },
            {
                "address": "0x514910771af9ca656af840dff83e8264ecf986ca",
                "label": "Chainlink: LINK Token"
            },
            {
                "address": "0x6f1cdbbb4d53d226cf4b917bf768b94acbab6168",
                "label": "MEV Bot: 0x6f1\u2026168"
            },
            {
                "address": "0xc02aaa39b223fe8d0a0e5c4f27ead9083c756cc2",
                "label": "Wrapped Ether (WETH)"
            },
            {
                "address": "0xa6cc3c2531fdaa6ae1a3ca84c2855806728693e8",
                "label": "Uniswap V3: LINK"
            },
            {
                "address": "0x0000000000000000000000000000000000000001",
                "label": "Precompiled"
            },
            {
                "address": "0x0000000000000000000000000000000000000002",
                "label": "Precompiled"
            },
            {
                "address": "0x0000000000000000000000000000000000000003",
                "label": "Precompiled"
            },
            {
                "address": "0x0000000000000000000000000000000000000004",
                "label": "Precompiled"
            }
        ]
    },
    "trace": {
        "accountLabels": null,
        "dataMap": {
            "-1": {
                "invocation": {
                    "address": "0x1692ed8a4c20910e96b6cf3e37146789a6bddbc8",
                    "callData": "",
                    "decodedMethod": null,
                    "errorInfo": "",
                    "fromAddress": "",
                    "gasUsed": 0,
                    "id": -1,
                    "methodDecoded": false,
                    "operation": "",
                    "output": "",
                    "revert": false,
                    "revertMessage": "",
                    "selector": "",
                    "status": false,
                    "value": ""
                },
                "nodeType": 0
            },
            "0": {
                "invocation": {
                    "address": "0x6f1cdbbb4d53d226cf4b917bf768b94acbab6168",
                    "callData": "0x000000000000000000000000a6cc3c2531fdaa6ae1a3ca84c2855806728693e8000000000000000000000000514910771af9ca656af840dff83e8264ecf986ca000000000000000000000000c02aaa39b223fe8d0a0e5c4f27ead9083c756cc20000000000000000000000000000000000000000000000000000000000000bb800000000000000000000000000000000000000000000004e951a48a8b2dc00000000000000000000000000000000000000000000000000007779cb8dd1589a7a000000000000000000000000000000000000000013c1e52e2e779d27e970648e00000000000000000000000000000000000000000000000000000000012279250000000000000000000000000000000000000000000000000000000000000000",
                    "decodedMethod": null,
                    "errorInfo": "",
                    "fromAddress": "0x1692ed8a4c20910e96b6cf3e37146789a6bddbc8",
                    "gasUsed": 103183,
                    "id": 0,
                    "methodDecoded": false,
                    "operation": "CALL",
                    "output": "",
                    "revert": false,
                    "revertMessage": "",
                    "selector": "0xceb5748e",
                    "status": true,
                    "value": "0.000000000000012396"
                },
                "nodeType": 0
            },
            "1": {
                "invocation": {
                    "address": "0xa6cc3c2531fdaa6ae1a3ca84c2855806728693e8",
                    "callData": "0x0000000000000000000000006f1cdbbb4d53d226cf4b917bf768b94acbab6168000000000000000000000000000000000000000000000000000000000000000100000000000000000000000000000000000000000000004e951a48a8b2dc0000000000000000000000000000000000000000000013c1e52e2e779d27e970648e00000000000000000000000000000000000000000000000000000000000000a0000000000000000000000000000000000000000000000000000000000000002b514910771af9ca656af840dff83e8264ecf986ca000bb8c02aaa39b223fe8d0a0e5c4f27ead9083c756cc2000000000000000000000000000000000000000000",
                    "decodedMethod": {
                        "callParams": [
                            {
                                "name": "recipient",
                                "type": "address",
                                "value": "0x6f1cdbbb4d53d226cf4b917bf768b94acbab6168"
                            },
                            {
                                "name": "zeroForOne",
                                "type": "bool",
                                "value": true
                            },
                            {
                                "name": "amountSpecified",
                                "type": "int256",
                                "value": "1,449,590,017,499,783,233,536"
                            },
                            {
                                "name": "sqrtPriceLimitX96",
                                "type": "uint160",
                                "value": "6,114,620,143,614,301,918,601,438,350"
                            },
                            {
                                "name": "data",
                                "type": "bytes",
                                "value": "0x514910771af9ca656af840dff83e8264ecf986ca000bb8c02aaa39b223fe8d0a0e5c4f27ead9083c756cc2"
                            }
                        ],
                        "constructorArguments": "",
                        "name": "swap",
                        "returnParams": [
                            {
                                "name": "amount0",
                                "type": "int256",
                                "value": "1,449,590,017,499,783,233,536"
                            },
                            {
                                "name": "amount1",
                                "type": "int256",
                                "value": "-8,609,135,972,658,485,883"
                            }
                        ],
                        "signature": "swap(address,bool,int256,uint160,bytes)"
                    },
                    "errorInfo": "",
                    "fromAddress": "0x6f1cdbbb4d53d226cf4b917bf768b94acbab6168",
                    "gasUsed": 74857,
                    "id": 1,
                    "methodDecoded": true,
                    "operation": "CALL",
                    "output": "0x00000000000000000000000000000000000000000000004e951a48a8b2dc0000ffffffffffffffffffffffffffffffffffffffffffffffff888634722ea76585",
                    "revert": false,
                    "revertMessage": "",
                    "selector": "0x128acb08",
                    "status": true,
                    "value": "0"
                },
                "nodeType": 0
            },
            "2": {
                "invocation": {
                    "address": "0xc02aaa39b223fe8d0a0e5c4f27ead9083c756cc2",
                    "callData": "0x0000000000000000000000006f1cdbbb4d53d226cf4b917bf768b94acbab61680000000000000000000000000000000000000000000000007779cb8dd1589a7b",
                    "decodedMethod": {
                        "callParams": [
                            {
                                "name": "dst",
                                "type": "address",
                                "value": "0x6f1cdbbb4d53d226cf4b917bf768b94acbab6168"
                            },
                            {
                                "decimalAvailable": true,
                                "name": "wad",
                                "type": "uint256",
                                "value": "8,609,135,972,658,485,883"
                            }
                        ],
                        "constructorArguments": "",
                        "name": "transfer",
                        "returnParams": [
                            {
                                "name": "",
                                "type": "bool",
                                "value": true
                            }
                        ],
                        "signature": "transfer(address,uint256)"
                    },
                    "errorInfo": "",
                    "fromAddress": "0xa6cc3c2531fdaa6ae1a3ca84c2855806728693e8",
                    "gasUsed": 12862,
                    "id": 2,
                    "methodDecoded": true,
                    "operation": "CALL",
                    "output": "0x0000000000000000000000000000000000000000000000000000000000000001",
                    "revert": false,
                    "revertMessage": "",
                    "selector": "0xa9059cbb",
                    "status": true,
                    "value": "0"
                },
                "nodeType": 0
            },
            "3": {
                "event": {
                    "contract": "0xc02aaa39b223fe8d0a0e5c4f27ead9083c756cc2",
                    "decodedLog": {
                        "name": "Transfer",
                        "params": [
                            {
                                "name": "src",
                                "type": "address",
                                "value": "0xa6cc3c2531fdaa6ae1a3ca84c2855806728693e8"
                            },
                            {
                                "name": "dst",
                                "type": "address",
                                "value": "0x6f1cdbbb4d53d226cf4b917bf768b94acbab6168"
                            },
                            {
                                "decimalAvailable": true,
                                "name": "wad",
                                "type": "uint256",
                                "value": "8,609,135,972,658,485,883"
                            }
                        ],
                        "signature": "Transfer(address,address,uint256)"
                    },
                    "id": 3,
                    "logData": "0x0000000000000000000000000000000000000000000000007779cb8dd1589a7b",
                    "logDecoded": true,
                    "operation": "EVENT",
                    "revert": false,
                    "status": true,
                    "topics": [
                        "0xddf252ad1be2c89b69c2b068fc378daa952ba7f163c4a11628f55a4df523b3ef",
                        "0x000000000000000000000000a6cc3c2531fdaa6ae1a3ca84c2855806728693e8",
                        "0x0000000000000000000000006f1cdbbb4d53d226cf4b917bf768b94acbab6168"
                    ]
                },
                "nodeType": 1
            },
            "4": {
                "invocation": {
                    "address": "0x514910771af9ca656af840dff83e8264ecf986ca",
                    "callData": "0x000000000000000000000000a6cc3c2531fdaa6ae1a3ca84c2855806728693e8",
                    "decodedMethod": {
                        "callParams": [
                            {
                                "name": "_owner",
                                "type": "address",
                                "value": "0xa6cc3c2531fdaa6ae1a3ca84c2855806728693e8"
                            }
                        ],
                        "constructorArguments": "",
                        "name": "balanceOf",
                        "returnParams": [
                            {
                                "decimalAvailable": true,
                                "name": "balance",
                                "type": "uint256",
                                "value": "1,422,295,813,073,050,320,694,855"
                            }
                        ],
                        "signature": "balanceOf(address)"
                    },
                    "errorInfo": "",
                    "fromAddress": "0xa6cc3c2531fdaa6ae1a3ca84c2855806728693e8",
                    "gasUsed": 2655,
                    "id": 4,
                    "methodDecoded": true,
                    "operation": "STATICCALL",
                    "output": "0x000000000000000000000000000000000000000000012d2ecf7e67c225caee47",
                    "revert": false,
                    "revertMessage": "",
                    "selector": "0x70a08231",
                    "status": true,
                    "value": "0"
                },
                "nodeType": 0
            },
            "5": {
                "invocation": {
                    "address": "0x6f1cdbbb4d53d226cf4b917bf768b94acbab6168",
                    "callData": "0x00000000000000000000000000000000000000000000004e951a48a8b2dc0000ffffffffffffffffffffffffffffffffffffffffffffffff888634722ea765850000000000000000000000000000000000000000000000000000000000000060000000000000000000000000000000000000000000000000000000000000002b514910771af9ca656af840dff83e8264ecf986ca000bb8c02aaa39b223fe8d0a0e5c4f27ead9083c756cc2000000000000000000000000000000000000000000",
                    "decodedMethod": {
                        "callParams": [
                            {
                                "name": "amount0Delta",
                                "type": "int256",
                                "value": "1,449,590,017,499,783,233,536"
                            },
                            {
                                "name": "amount1Delta",
                                "type": "int256",
                                "value": "-8,609,135,972,658,485,883"
                            },
                            {
                                "name": "data",
                                "type": "bytes",
                                "value": "0x514910771af9ca656af840dff83e8264ecf986ca000bb8c02aaa39b223fe8d0a0e5c4f27ead9083c756cc2"
                            }
                        ],
                        "constructorArguments": "",
                        "name": "uniswapV3SwapCallback",
                        "returnParams": [],
                        "signature": "uniswapV3SwapCallback(int256,int256,bytes)"
                    },
                    "errorInfo": "",
                    "fromAddress": "0xa6cc3c2531fdaa6ae1a3ca84c2855806728693e8",
                    "gasUsed": 13860,
                    "id": 5,
                    "methodDecoded": true,
                    "operation": "CALL",
                    "output": "",
                    "revert": false,
                    "revertMessage": "",
                    "selector": "0xfa461e33",
                    "status": true,
                    "value": "0"
                },
                "nodeType": 0
            },
            "6": {
                "invocation": {
                    "address": "0x514910771af9ca656af840dff83e8264ecf986ca",
                    "callData": "0x000000000000000000000000a6cc3c2531fdaa6ae1a3ca84c2855806728693e800000000000000000000000000000000000000000000004e951a48a8b2dc0000",
                    "decodedMethod": {
                        "callParams": [
                            {
                                "name": "_to",
                                "type": "address",
                                "value": "0xa6cc3c2531fdaa6ae1a3ca84c2855806728693e8"
                            },
                            {
                                "decimalAvailable": true,
                                "name": "_value",
                                "type": "uint256",
                                "value": "1,449,590,017,499,783,233,536"
                            }
                        ],
                        "constructorArguments": "",
                        "name": "transfer",
                        "returnParams": [
                            {
                                "name": "success",
                                "type": "bool",
                                "value": true
                            }
                        ],
                        "signature": "transfer(address,uint256)"
                    },
                    "errorInfo": "",
                    "fromAddress": "0x6f1cdbbb4d53d226cf4b917bf768b94acbab6168",
                    "gasUsed": 11345,
                    "id": 6,
                    "methodDecoded": true,
                    "operation": "CALL",
                    "output": "0x0000000000000000000000000000000000000000000000000000000000000001",
                    "revert": false,
                    "revertMessage": "",
                    "selector": "0xa9059cbb",
                    "status": true,
                    "value": "0"
                },
                "nodeType": 0
            },
            "7": {
                "event": {
                    "contract": "0x514910771af9ca656af840dff83e8264ecf986ca",
                    "decodedLog": {
                        "name": "Transfer",
                        "params": [
                            {
                                "name": "from",
                                "type": "address",
                                "value": "0x6f1cdbbb4d53d226cf4b917bf768b94acbab6168"
                            },
                            {
                                "name": "to",
                                "type": "address",
                                "value": "0xa6cc3c2531fdaa6ae1a3ca84c2855806728693e8"
                            },
                            {
                                "decimalAvailable": true,
                                "name": "value",
                                "type": "uint256",
                                "value": "1,449,590,017,499,783,233,536"
                            }
                        ],
                        "signature": "Transfer(address,address,uint256)"
                    },
                    "id": 7,
                    "logData": "0x00000000000000000000000000000000000000000000004e951a48a8b2dc0000",
                    "logDecoded": true,
                    "operation": "EVENT",
                    "revert": false,
                    "status": true,
                    "topics": [
                        "0xddf252ad1be2c89b69c2b068fc378daa952ba7f163c4a11628f55a4df523b3ef",
                        "0x0000000000000000000000006f1cdbbb4d53d226cf4b917bf768b94acbab6168",
                        "0x000000000000000000000000a6cc3c2531fdaa6ae1a3ca84c2855806728693e8"
                    ]
                },
                "nodeType": 1
            },
            "8": {
                "invocation": {
                    "address": "0x514910771af9ca656af840dff83e8264ecf986ca",
                    "callData": "0x000000000000000000000000a6cc3c2531fdaa6ae1a3ca84c2855806728693e8",
                    "decodedMethod": {
                        "callParams": [
                            {
                                "name": "_owner",
                                "type": "address",
                                "value": "0xa6cc3c2531fdaa6ae1a3ca84c2855806728693e8"
                            }
                        ],
                        "constructorArguments": "",
                        "name": "balanceOf",
                        "returnParams": [
                            {
                                "decimalAvailable": true,
                                "name": "balance",
                                "type": "uint256",
                                "value": "1,423,745,403,090,550,103,928,391"
                            }
                        ],
                        "signature": "balanceOf(address)"
                    },
                    "errorInfo": "",
                    "fromAddress": "0xa6cc3c2531fdaa6ae1a3ca84c2855806728693e8",
                    "gasUsed": 655,
                    "id": 8,
                    "methodDecoded": true,
                    "operation": "STATICCALL",
                    "output": "0x000000000000000000000000000000000000000000012d7d6498b06ad8a6ee47",
                    "revert": false,
                    "revertMessage": "",
                    "selector": "0x70a08231",
                    "status": true,
                    "value": "0"
                },
                "nodeType": 0
            },
            "9": {
                "event": {
                    "contract": "0xa6cc3c2531fdaa6ae1a3ca84c2855806728693e8",
                    "decodedLog": {
                        "name": "Swap",
                        "params": [
                            {
                                "name": "sender",
                                "type": "address",
                                "value": "0x6f1cdbbb4d53d226cf4b917bf768b94acbab6168"
                            },
                            {
                                "name": "recipient",
                                "type": "address",
                                "value": "0x6f1cdbbb4d53d226cf4b917bf768b94acbab6168"
                            },
                            {
                                "name": "amount0",
                                "type": "int256",
                                "value": "1,449,590,017,499,783,233,536"
                            },
                            {
                                "name": "amount1",
                                "type": "int256",
                                "value": "-8,609,135,972,658,485,883"
                            },
                            {
                                "name": "sqrtPriceX96",
                                "type": "uint160",
                                "value": "6,114,620,143,614,301,918,601,438,350"
                            },
                            {
                                "name": "liquidity",
                                "type": "uint128",
                                "value": "1,228,862,283,599,601,195,379,261"
                            },
                            {
                                "name": "tick",
                                "type": "int24",
                                "value": "-51,236"
                            }
                        ],
                        "signature": "Swap(address,address,int256,int256,uint160,uint128,int24)"
                    },
                    "id": 9,
                    "logData": "0x00000000000000000000000000000000000000000000004e951a48a8b2dc0000ffffffffffffffffffffffffffffffffffffffffffffffff888634722ea76585000000000000000000000000000000000000000013c1e52e2e779d27e970648e000000000000000000000000000000000000000000010438c2044e6b39e96a3dffffffffffffffffffffffffffffffffffffffffffffffffffffffffffff37dc",
                    "logDecoded": true,
                    "operation": "EVENT",
                    "revert": false,
                    "status": true,
                    "topics": [
                        "0xc42079f94a6350d7e6235f29174924f928cc2ac818eb64fed8004e115fbcca67",
                        "0x0000000000000000000000006f1cdbbb4d53d226cf4b917bf768b94acbab6168",
                        "0x0000000000000000000000006f1cdbbb4d53d226cf4b917bf768b94acbab6168"
                    ]
                },
                "nodeType": 1
            }
        },
        "gasFlame": [
            {
                "children": [
                    {
                        "children": [
                            {
                                "children": [],
                                "depth": 0,
                                "name": "Initial Gas",
                                "value": 23332
                            },
                            {
                                "children": [
                                    {
                                        "children": [
                                            {
                                                "children": [],
                                                "depth": 2,
                                                "name": "transfer",
                                                "value": 12862
                                            },
                                            {
                                                "children": [],
                                                "depth": 2,
                                                "name": "balanceOf",
                                                "value": 2655
                                            },
                                            {
                                                "children": [
                                                    {
                                                        "children": [],
                                                        "depth": 3,
                                                        "name": "transfer",
                                                        "value": 11345
                                                    }
                                                ],
                                                "depth": 2,
                                                "name": "uniswapV3SwapCallback",
                                                "value": 13860
                                            },
                                            {
                                                "children": [],
                                                "depth": 2,
                                                "name": "balanceOf",
                                                "value": 655
                                            }
                                        ],
                                        "depth": 1,
                                        "name": "swap",
                                        "value": 74857
                                    }
                                ],
                                "depth": 0,
                                "name": "Executed Gas",
                                "value": 79851
                            }
                        ],
                        "depth": -1,
                        "name": "Actual Gas Used",
                        "value": 103183
                    },
                    {
                        "children": [],
                        "depth": -1,
                        "name": "Refunded Gas",
                        "value": 0
                    }
                ],
                "depth": -2,
                "name": "Total Gas",
                "value": 103183
            }
        ],
        "isConfirmed": true,
        "mainTrace": [
            {
                "children": [
                    {
                        "children": [
                            {
                                "children": [
                                    {
                                        "children": [
                                            {
                                                "children": [],
                                                "depth": 3,
                                                "id": 3,
                                                "order": 3
                                            }
                                        ],
                                        "depth": 2,
                                        "id": 2,
                                        "order": 2
                                    },
                                    {
                                        "children": [],
                                        "depth": 2,
                                        "id": 4,
                                        "order": 4
                                    },
                                    {
                                        "children": [
                                            {
                                                "children": [
                                                    {
                                                        "children": [],
                                                        "depth": 4,
                                                        "id": 7,
                                                        "order": 7
                                                    }
                                                ],
                                                "depth": 3,
                                                "id": 6,
                                                "order": 6
                                            }
                                        ],
                                        "depth": 2,
                                        "id": 5,
                                        "order": 5
                                    },
                                    {
                                        "children": [],
                                        "depth": 2,
                                        "id": 8,
                                        "order": 8
                                    },
                                    {
                                        "children": [],
                                        "depth": 2,
                                        "id": 9,
                                        "order": 9
                                    }
                                ],
                                "depth": 1,
                                "id": 1,
                                "order": 1
                            }
                        ],
                        "depth": 0,
                        "id": 0,
                        "order": 0
                    }
                ],
                "depth": -1,
                "id": -1,
                "order": -1
            }
        ],
        "mainTraceNodeCount": 10,
        "parentIdMap": {
            "0": -1,
            "1": 0,
            "2": 1,
            "3": 2,
            "4": 1,
            "5": 1,
            "6": 5,
            "7": 6,
            "8": 1,
            "9": 1
        },
        "tidyTrace": [
            {
                "children": [
                    {
                        "children": [
                            {
                                "children": [
                                    {
                                        "children": [
                                            {
                                                "children": [],
                                                "depth": 3,
                                                "id": 3,
                                                "order": 3
                                            }
                                        ],
                                        "depth": 2,
                                        "id": 2,
                                        "order": 2
                                    },
                                    {
                                        "children": [
                                            {
                                                "children": [
                                                    {
                                                        "children": [],
                                                        "depth": 4,
                                                        "id": 7,
                                                        "order": 7
                                                    }
                                                ],
                                                "depth": 3,
                                                "id": 6,
                                                "order": 6
                                            }
                                        ],
                                        "depth": 2,
                                        "id": 5,
                                        "order": 5
                                    },
                                    {
                                        "children": [],
                                        "depth": 2,
                                        "id": 9,
                                        "order": 9
                                    }
                                ],
                                "depth": 1,
                                "id": 1,
                                "order": 1
                            }
                        ],
                        "depth": 0,
                        "id": 0,
                        "order": 0
                    }
                ],
                "depth": -1,
                "id": -1,
                "order": -1
            }
        ],
        "tidyTraceNodeCount": 8
    },
    "state_change": {
        "stateChanges": [
            {
                "address": "0x514910771af9ca656af840dff83e8264ecf986ca",
                "erc": "",
                "slots": [
                    {
                        "current": "0x000000000000000000000000000000000000000000000000000526655077967e",
                        "key": "0xd935273714584852c3ba0131790b038726c844381a944d5eebed579e4cb56254",
                        "prev": "0x00000000000000000000000000000000000000000000004e951f6f0e0353967e"
                    },
                    {
                        "current": "0x000000000000000000000000000000000000000000012d7d6498b06ad8a6ee47",
                        "key": "0x9422ae262bd5bbe8254768a185116d59ff7f53e5e813d9c0ea3840cf28c230a0",
                        "prev": "0x000000000000000000000000000000000000000000012d2ecf7e67c225caee47"
                    }
                ],
                "storageVariables": [
                    {
                        "name": "balances",
                        "type": "mapping(address => uint256)",
                        "value": {
                            "pairs": [
                                {
                                    "key": "0x6f1cdbbb4d53d226cf4b917bf768b94acbab6168",
                                    "value": {
                                        "current": "1449591467120254",
                                        "prev": "1449591467091250353790",
                                        "typeTag": 1
                                    }
                                },
                                {
                                    "key": "0xa6cc3c2531fdaa6ae1a3ca84c2855806728693e8",
                                    "value": {
                                        "current": "1423745403090550103928391",
                                        "prev": "1422295813073050320694855",
                                        "typeTag": 1
                                    }
                                }
                            ],
                            "typeTag": 4
                        }
                    }
                ]
            },
            {
                "address": "0xa6cc3c2531fdaa6ae1a3ca84c2855806728693e8",
                "erc": "",
                "slots": [
                    {
                        "current": "0x00010000b400b40028ff37dc000000000000000013c1e52e2e779d27e970648e",
                        "key": "0x0000000000000000000000000000000000000000000000000000000000000000",
                        "prev": "0x00010000b400b40027ff37de000000000000000013c25ab7c4803c4730717654"
                    },
                    {
                        "current": "0x01000049a500000000000023bc8a25ba7eaeb77c1cfffbede51f7a2665a9990b",
                        "key": "0x0000000000000000000000000000000000000000000000000000000000000030",
                        "prev": "0x01000049a500000000000023bc06649518527de64ffffbee4e2a543265a9128f"
                    },
                    {
                        "current": "0x0000000000000000000000000000000253d310873e1240e716b67df29ca3ddd0",
                        "key": "0x0000000000000000000000000000000000000000000000000000000000000001",
                        "prev": "0x0000000000000000000000000000000253d2d527f5b843f6c52c8f8a9e5b7bda"
                    }
                ],
                "storageVariables": []
            },
            {
                "address": "0xc02aaa39b223fe8d0a0e5c4f27ead9083c756cc2",
                "erc": "ERC-20",
                "slots": [
                    {
                        "current": "0x00000000000000000000000000000000000000000000013922a6080275a3c5ab",
                        "key": "0x2152d1f752d5b88a3178a813eda1508fbde034f11b826cc92dea66732e3d19a1",
                        "prev": "0x0000000000000000000000000000000000000000000001399a1fd39046fc6026"
                    },
                    {
                        "current": "0x00000000000000000000000000000000000000000000001bd7a34c1dc4b45684",
                        "key": "0x7e30eb9dc7afa207fc50215e1f206b733ee6736b28e7b0dd2ef6cba16ab88ea0",
                        "prev": "0x00000000000000000000000000000000000000000000001b6029808ff35bbc09"
                    }
                ],
                "storageVariables": [
                    {
                        "name": "balanceOf",
                        "type": "mapping(address => uint256)",
                        "value": {
                            "pairs": [
                                {
                                    "key": "0x6f1cdbbb4d53d226cf4b917bf768b94acbab6168",
                                    "value": {
                                        "current": "513600436820254152324",
                                        "prev": "504991300847595666441",
                                        "typeTag": 1
                                    }
                                },
                                {
                                    "key": "0xa6cc3c2531fdaa6ae1a3ca84c2855806728693e8",
                                    "value": {
                                        "current": "5776327586921169798571",
                                        "prev": "5784936722893828284454",
                                        "typeTag": 1
                                    }
                                }
                            ],
                            "typeTag": 4
                        }
                    }
                ]
            }
        ]
    }
}