{
    "balance_change": {
        "balanceChanges": []
    },
    "profile": {
        "basic_info": {
            "baseFee": "",
            "blockNumber": 2670067,
            "callData": "0xa9059cbb000000000000000000000000b2d955733e6a470533f68f72d0af442070f24f55000000000000000000000000000000000000000000000003da10b58419f34800",
            "debugEnable": true,
            "errorInfo": "invalid jump destination",
            "eventCount": 0,
            "feeRecipient": "0x4bb96091ee9d802ed039c4d1a5f6216f90f81b01",
            "formatValue": "0",
            "gasLimit": 90000,
            "gasPrice": "30",
            "gasUsed": 90000,
            "intTxnCount": 0,
            "internalRevert": false,
            "internalRevertMessage": "",
            "isContractCreation": false,
            "isFlashloan": false,
            "maxFee": "",
            "nonce": 592,
            "overwritedBlockNumber": -1,
            "priorityFee": "",
            "receiver": "0x48c80f1f4d53d5951e5d5438b54cba84f29f32a5",
            "revertMessage": "",
            "sender": "0x3a088473a45ef73c40add2d2af2b5b0106fe2e8f",
            "simulationEnable": true,
            "sourceTxnHash": "0x1fe9f895c8f0a955498529849b159da9428dc90db278c1b50057241dac34c2d4",
            "status": false,
            "timestamp": "2016-11-21T20:28:50Z",
            "transactionFee": "0.0027",
            "txnHash": "0x1fe9f895c8f0a955498529849b159da9428dc90db278c1b50057241dac34c2d4",
            "txnIndex": 1,
            "type": 0,
            "value": "0"
        },
        "fund_flow": [],
        "token_infos": [
            {
                "address": "0xc02aaa39b223fe8d0a0e5c4f27ead9083c756cc2",
                "decimals": 18
            },
            {
                "address": "0xeeeeeeeeeeeeeeeeeeeeeeeeeeeeeeeeeeeeeeee",
                "decimals": 18
            }
        ]
    },
    "address_label": {
        "labels": [
            {
                "address": "0xeeeeeeeeeeeeeeeeeeeeeeeeeeeeeeeeeeeeeeee",
                "label": "Ether"
            },
            {
                "address": "0x48c80f1f4d53d5951e5d5438b54cba84f29f32a5",
                "label": "Augur: Old Token"
            },
            {
                "address": "0x0000000000000000000000000000000000000001",
                "label": "Precompiled"
            },
            {
                "address": "0x0000000000000000000000000000000000000002",
                "label": "Precompiled"
            },
            {
                "address": "0x0000000000000000000000000000000000000003",
                "label": "Precompiled"
            },
            {
                "address": "0x0000000000000000000000000000000000000004",
                "label": "Precompiled"
            }
        ]
    },
    "trace": {
        "accountLabels": null,
        "dataMap": {
            "-1": {
                "invocation": {
                    "address": "0x3a088473a45ef73c40add2d2af2b5b0106fe2e8f",
                    "callData": "",
                    "decodedMethod": null,
                    "errorInfo": "",
                    "fromAddress": "",
                    "gasUsed": 0,
                    "id": -1,
                    "methodDecoded": false,
                    "operation": "",
                    "output": "",
                    "revert": false,
                    "revertMessage": "",
                    "selector": "",
                    "status": false,
                    "value": ""
                },
                "nodeType": 0
            },
            "0": {
                "invocation": {
                    "address": "0x48c80f1f4d53d5951e5d5438b54cba84f29f32a5",
                    "callData": "0x000000000000000000000000b2d955733e6a470533f68f72d0af442070f24f55000000000000000000000000000000000000000000000003da10b58419f34800",
                    "decodedMethod": {
                        "callParams": [
                            {
                                "name": "recipient",
                                "type": "address",
                                "value": "0xb2d955733e6a470533f68f72d0af442070f24f55"
                            },
                            {
                                "decimalAvailable": true,
                                "name": "amount",
                                "type": "uint256",
                                "value": "71,053,490,900,000,000,000"
                            }
                        ],
                        "constructorArguments": "",
                        "name": "transfer",
                        "returnParams": [],
                        "signature": "transfer(address,uint256)"
                    },
                    "errorInfo": "invalid jump destination",
                    "fromAddress": "0x3a088473a45ef73c40add2d2af2b5b0106fe2e8f",
                    "gasUsed": 90000,
                    "id": 0,
                    "methodDecoded": true,
                    "operation": "CALL",
                    "output": "",
                    "revert": true,
                    "revertMessage": "",
                    "selector": "0xa9059cbb",
                    "status": false,
                    "value": "0"
                },
                "nodeType": 0
            }
        },
        "gasFlame": [
            {
                "children": [
                    {
                        "children": [
                            {
                                "children": [],
                                "depth": 0,
                                "name": "Initial Gas",
                                "value": 23320
                            },
                            {
                                "children": [],
                                "depth": 0,
                                "name": "Executed Gas",
                                "value": 66680
                            }
                        ],
                        "depth": -1,
                        "name": "Actual Gas Used",
                        "value": 90000
                    },
                    {
                        "children": [],
                        "depth": -1,
                        "name": "Refunded Gas",
                        "value": 0
                    }
                ],
                "depth": -2,
                "name": "Total Gas",
                "value": 90000
            }
        ],
        "isConfirmed": true,
        "mainTrace": [
            {
                "children": [
                    {
                        "children": [],
                        "depth": 0,
                        "id": 0,
                        "order": 0
                    }
                ],
                "depth": -1,
                "id": -1,
                "order": -1
            }
        ],
        "mainTraceNodeCount": 1,
        "parentIdMap": {
            "0": -1
        },
        "tidyTrace": [
            {
                "children": [
                    {
                        "children": [],
                        "depth": 0,
                        "id": 0,
                        "order": 0
                    }
                ],
                "depth": -1,
                "id": -1,
                "order": -1
            }
        ],
        "tidyTraceNodeCount": 1
    },
    "state_change": {
        "stateChanges": []
    }
}