{
    "balance_change": {
        "balanceChanges": [
            {
                "account": "0xc942bbdfcb2b2d90728f17dad6940cf8a13dc68d",
                "assets": [
                    {
                        "address": "0xeeeeeeeeeeeeeeeeeeeeeeeeeeeeeeeeeeeeeeee",
                        "amount": "0.0988823776001548",
                        "iconUrl": "https://assets.blocksec.com/image/1663669189317-3.png",
                        "isERC1155": false,
                        "isERC721": false,
                        "sign": false,
                        "value": ""
                    }
                ]
            },
            {
                "account": "0xa2af1e296c6ea70a007565b8029389add01fb943",
                "assets": [
                    {
                        "address": "0xeeeeeeeeeeeeeeeeeeeeeeeeeeeeeeeeeeeeeeee",
                        "amount": "0.0988823776001548",
                        "iconUrl": "https://assets.blocksec.com/image/1663669189317-3.png",
                        "isERC1155": false,
                        "isERC721": false,
                        "sign": true,
                        "value": ""
                    }
                ]
            }
        ]
    },
    "profile": {
        "basic_info": {
            "baseFee": "",
            "blockNumber": 2076579,
            "callData": "0x0f2c9329000000000000000000000000a2af1e296c6ea70a007565b8029389add01fb943000000000000000000000000c942bbdfcb2b2d90728f17dad6940cf8a13dc68d",
            "debugEnable": true,
            "errorInfo": "",
            "eventCount": 0,
            "feeRecipient": "0xea674fdde714fd979de3edf0f56aa9716b898ec8",
            "formatValue": "0.0988823776001548",
            "gasLimit": 90000,
            "gasPrice": "20",
            "gasUsed": 31497,
            "intTxnCount": 2,
            "internalRevert": false,
            "internalRevertMessage": "",
            "isContractCreation": false,
            "isFlashloan": false,
            "maxFee": "",
            "nonce": 1,
            "overwritedBlockNumber": -1,
            "priorityFee": "",
            "receiver": "0xaa1a6e3e6ef20068f7f8d8c835d2d22fd5116444",
            "revertMessage": "",
            "sender": "0xc942bbdfcb2b2d90728f17dad6940cf8a13dc68d",
            "simulationEnable": true,
            "sourceTxnHash": "0x1f6bcb00c4030ed09d242adb0fc89cca3b7690caa94d5bb87d1df29422e5e7da",
            "status": true,
            "timestamp": "2016-08-15T13:11:35Z",
            "transactionFee": "0.00062994",
            "txnHash": "0x1f6bcb00c4030ed09d242adb0fc89cca3b7690caa94d5bb87d1df29422e5e7da",
            "txnIndex": 8,
            "type": 0,
            "value": "98882377600154800"
        },
        "fund_flow": [
            {
                "amount": "0.0988823776001548",
                "from": "0xc942bbdfcb2b2d90728f17dad6940cf8a13dc68d",
                "id": 1,
                "isERC1155": false,
                "isERC721": false,
                "isReverted": false,
                "order": 1,
                "to": "0xaa1a6e3e6ef20068f7f8d8c835d2d22fd5116444",
                "token": "0xeeeeeeeeeeeeeeeeeeeeeeeeeeeeeeeeeeeeeeee"
            },
            {
                "amount": "0.0988823776001548",
                "from": "0xaa1a6e3e6ef20068f7f8d8c835d2d22fd5116444",
                "id": 2,
                "isERC1155": false,
                "isERC721": false,
                "isReverted": false,
                "order": 2,
                "to": "0xa2af1e296c6ea70a007565b8029389add01fb943",
                "token": "0xeeeeeeeeeeeeeeeeeeeeeeeeeeeeeeeeeeeeeeee"
            }
        ],
        "token_infos": [
            {
                "address": "0xc02aaa39b223fe8d0a0e5c4f27ead9083c756cc2",
                "decimals": 18
            },
            {
                "address": "0xeeeeeeeeeeeeeeeeeeeeeeeeeeeeeeeeeeeeeeee",
                "decimals": 18
            }
        ]
    },
    "address_label": {
        "labels": [
            {
                "address": "0xaa1a6e3e6ef20068f7f8d8c835d2d22fd5116444",
                "label": "ReplaySafeSplit"
            },
            {
                "address": "0x0000000000000000000000000000000000000001",
                "label": "Precompiled"
            },
            {
                "address": "0x0000000000000000000000000000000000000002",
                "label": "Precompiled"
            },
            {
                "address": "0x0000000000000000000000000000000000000003",
                "label": "Precompiled"
            },
            {
                "address": "0x0000000000000000000000000000000000000004",
                "label": "Precompiled"
            },
            {
                "address": "0xeeeeeeeeeeeeeeeeeeeeeeeeeeeeeeeeeeeeeeee",
                "label": "Ether"
            },
            {
                "address": "0x2bd2326c993dfaef84f696526064ff22eba5b362",
                "label": "AmIOnTheFork"
            }
        ]
    },
    "trace": {
        "accountLabels": null,
        "dataMap": {
            "-1": {
                "invocation": {
                    "address": "0xc942bbdfcb2b2d90728f17dad6940cf8a13dc68d",
                    "callData": "",
                    "decodedMethod": null,
                    "errorInfo": "",
                    "fromAddress": "",
                    "gasUsed": 0,
                    "id": -1,
                    "methodDecoded": false,
                    "operation": "",
                    "output": "",
                    "revert": false,
                    "revertMessage": "",
                    "selector": "",
                    "status": false,
                    "value": ""
                },
                "nodeType": 0
            },
            "0": {
                "invocation": {
                    "address": "0xaa1a6e3e6ef20068f7f8d8c835d2d22fd5116444",
                    "callData": "0x000000000000000000000000a2af1e296c6ea70a007565b8029389add01fb943000000000000000000000000c942bbdfcb2b2d90728f17dad6940cf8a13dc68d",
                    "decodedMethod": {
                        "callParams": [
                            {
                                "name": "targetFork",
                                "type": "address",
                                "value": "0xa2af1e296c6ea70a007565b8029389add01fb943"
                            },
                            {
                                "name": "targetNoFork",
                                "type": "address",
                                "value": "0xc942bbdfcb2b2d90728f17dad6940cf8a13dc68d"
                            }
                        ],
                        "constructorArguments": "",
                        "name": "split",
                        "returnParams": [
                            {
                                "name": "",
                                "type": "bool",
                                "value": true
                            }
                        ],
                        "signature": "split(address,address)"
                    },
                    "errorInfo": "",
                    "fromAddress": "0xc942bbdfcb2b2d90728f17dad6940cf8a13dc68d",
                    "gasUsed": 31497,
                    "id": 0,
                    "methodDecoded": true,
                    "operation": "CALL",
                    "output": "0x0000000000000000000000000000000000000000000000000000000000000001",
                    "revert": false,
                    "revertMessage": "",
                    "selector": "0x0f2c9329",
                    "status": true,
                    "value": "0.0988823776001548"
                },
                "nodeType": 0
            },
            "1": {
                "invocation": {
                    "address": "0x2bd2326c993dfaef84f696526064ff22eba5b362",
                    "callData": "0x",
                    "decodedMethod": {
                        "callParams": [],
                        "constructorArguments": "",
                        "name": "forked",
                        "returnParams": [
                            {
                                "name": "",
                                "type": "bool",
                                "value": true
                            }
                        ],
                        "signature": "forked()"
                    },
                    "errorInfo": "",
                    "fromAddress": "0xaa1a6e3e6ef20068f7f8d8c835d2d22fd5116444",
                    "gasUsed": 197,
                    "id": 1,
                    "methodDecoded": true,
                    "operation": "CALL",
                    "output": "0x0000000000000000000000000000000000000000000000000000000000000001",
                    "revert": false,
                    "revertMessage": "",
                    "selector": "0x16c72721",
                    "status": true,
                    "value": "0"
                },
                "nodeType": 0
            },
            "2": {
                "invocation": {
                    "address": "0xa2af1e296c6ea70a007565b8029389add01fb943",
                    "callData": "0x",
                    "decodedMethod": null,
                    "errorInfo": "",
                    "fromAddress": "0xaa1a6e3e6ef20068f7f8d8c835d2d22fd5116444",
                    "gasUsed": 0,
                    "id": 2,
                    "methodDecoded": false,
                    "operation": "CALL",
                    "output": "",
                    "revert": false,
                    "revertMessage": "",
                    "selector": "fallback",
                    "status": true,
                    "value": "0.0988823776001548"
                },
                "nodeType": 0
            }
        },
        "gasFlame": [
            {
                "children": [
                    {
                        "children": [
                            {
                                "children": [],
                                "depth": 0,
                                "name": "Initial Gas",
                                "value": 24024
                            },
                            {
                                "children": [
                                    {
                                        "children": [],
                                        "depth": 1,
                                        "name": "forked",
                                        "value": 197
                                    },
                                    {
                                        "children": [],
                                        "depth": 1,
                                        "name": "fallback",
                                        "value": 0
                                    }
                                ],
                                "depth": 0,
                                "name": "Executed Gas",
                                "value": 7473
                            }
                        ],
                        "depth": -1,
                        "name": "Actual Gas Used",
                        "value": 31497
                    },
                    {
                        "children": [],
                        "depth": -1,
                        "name": "Refunded Gas",
                        "value": 0
                    }
                ],
                "depth": -2,
                "name": "Total Gas",
                "value": 31497
            }
        ],
        "isConfirmed": true,
        "mainTrace": [
            {
                "children": [
                    {
                        "children": [
                            {
                                "children": [],
                                "depth": 1,
                                "id": 1,
                                "order": 1
                            },
                            {
                                "children": [],
                                "depth": 1,
                                "id": 2,
                                "order": 2
                            }
                        ],
                        "depth": 0,
                        "id": 0,
                        "order": 0
                    }
                ],
                "depth": -1,
                "id": -1,
                "order": -1
            }
        ],
        "mainTraceNodeCount": 3,
        "parentIdMap": {
            "0": -1,
            "1": 0,
            "2": 0
        },
        "tidyTrace": [
            {
                "children": [
                    {
                        "children": [
                            {
                                "children": [],
                                "depth": 1,
                                "id": 1,
                                "order": 1
                            },
                            {
                                "children": [],
                                "depth": 1,
                                "id": 2,
                                "order": 2
                            }
                        ],
                        "depth": 0,
                        "id": 0,
                        "order": 0
                    }
                ],
                "depth": -1,
                "id": -1,
                "order": -1
            }
        ],
        "tidyTraceNodeCount": 3
    },
    "state_change": {
        "stateChanges": []
    }
}