{
    "balance_change": {
        "balanceChanges": [
            {
                "account": "0x75e89d5979e4f6fba9f97c104c2f0afb3f1dcb88",
                "assets": [
                    {
                        "address": "0xf36c5f04127f7470834ed6f98bddc1be62aba48d",
                        "amount": "90,735.27",
                        "iconUrl": "",
                        "isERC1155": false,
                        "isERC721": false,
                        "sign": false,
                        "value": "5019.355973"
                    }
                ]
            },
            {
                "account": "0xb14aa9e3e83aa173a2bdfe57f87d2d0c47307bd4",
                "assets": [
                    {
                        "address": "0xf36c5f04127f7470834ed6f98bddc1be62aba48d",
                        "amount": "90,735.27",
                        "iconUrl": "",
                        "isERC1155": false,
                        "isERC721": false,
                        "sign": true,
                        "value": "5019.355973"
                    }
                ]
            }
        ]
    },
    "profile": {
        "basic_info": {
            "baseFee": "20.280446847",
            "blockNumber": 16871635,
            "callData": "0xa9059cbb000000000000000000000000b14aa9e3e83aa173a2bdfe57f87d2d0c47307bd4000000000000000000000000000000000000000000001336c4d2e0efa5b70000",
            "debugEnable": true,
            "errorInfo": "",
            "eventCount": 1,
            "feeRecipient": "0xdafea492d9c6733ae3d56b7ed1adb60692c98bc5",
            "formatValue": "0",
            "gasLimit": 118551,
            "gasPrice": "29.094719105",
            "gasUsed": 61934,
            "intTxnCount": 0,
            "internalRevert": false,
            "internalRevertMessage": "",
            "isContractCreation": false,
            "isFlashloan": false,
            "maxFee": "",
            "nonce": 2868855,
            "overwritedBlockNumber": -1,
            "priorityFee": "",
            "receiver": "0xf36c5f04127f7470834ed6f98bddc1be62aba48d",
            "revertMessage": "",
            "sender": "0x75e89d5979e4f6fba9f97c104c2f0afb3f1dcb88",
            "simulationEnable": true,
            "sourceTxnHash": "0x1f0a699b43a8c8c5528c17624b0278d332a32726d90fc4a644d248cc013a6816",
            "status": true,
            "timestamp": "2023-03-20T21:43:11Z",
            "transactionFee": "0.00180195233304907",
            "txnHash": "0x1f0a699b43a8c8c5528c17624b0278d332a32726d90fc4a644d248cc013a6816",
            "txnIndex": 13,
            "type": 0,
            "value": "0"
        },
        "fund_flow": [
            {
                "amount": "90,735.27",
                "from": "0x75e89d5979e4f6fba9f97c104c2f0afb3f1dcb88",
                "id": 1,
                "isERC1155": false,
                "isERC721": false,
                "isReverted": false,
                "order": 1,
                "to": "0xb14aa9e3e83aa173a2bdfe57f87d2d0c47307bd4",
                "token": "0xf36c5f04127f7470834ed6f98bddc1be62aba48d"
            }
        ],
        "token_infos": [
            {
                "address": "0xf36c5f04127f7470834ed6f98bddc1be62aba48d",
                "decimals": 18
            },
            {
                "address": "0xeeeeeeeeeeeeeeeeeeeeeeeeeeeeeeeeeeeeeeee",
                "decimals": 18
            },
            {
                "address": "0xc02aaa39b223fe8d0a0e5c4f27ead9083c756cc2",
                "decimals": 18
            }
        ]
    },
    "address_label": {
        "labels": [
            {
                "address": "0x0000000000000000000000000000000000000003",
                "label": "Precompiled"
            },
            {
                "address": "0x0000000000000000000000000000000000000004",
                "label": "Precompiled"
            },
            {
                "address": "0xeeeeeeeeeeeeeeeeeeeeeeeeeeeeeeeeeeeeeeee",
                "label": "Ether"
            },
            {
                "address": "0x75e89d5979e4f6fba9f97c104c2f0afb3f1dcb88",
                "label": "MEXC 1"
            },
            {
                "address": "0xf36c5f04127f7470834ed6f98bddc1be62aba48d",
                "label": "Crypto AI: CAI Token"
            },
            {
                "address": "0x0000000000000000000000000000000000000001",
                "label": "Precompiled"
            },
            {
                "address": "0x0000000000000000000000000000000000000002",
                "label": "Precompiled"
            }
        ]
    },
    "trace": {
        "accountLabels": null,
        "dataMap": {
            "-1": {
                "invocation": {
                    "address": "0x75e89d5979e4f6fba9f97c104c2f0afb3f1dcb88",
                    "callData": "",
                    "decodedMethod": null,
                    "errorInfo": "",
                    "fromAddress": "",
                    "gasUsed": 0,
                    "id": -1,
                    "methodDecoded": false,
                    "operation": "",
                    "output": "",
                    "revert": false,
                    "revertMessage": "",
                    "selector": "",
                    "status": false,
                    "value": ""
                },
                "nodeType": 0
            },
            "0": {
                "invocation": {
                    "address": "0xf36c5f04127f7470834ed6f98bddc1be62aba48d",
                    "callData": "0x000000000000000000000000b14aa9e3e83aa173a2bdfe57f87d2d0c47307bd4000000000000000000000000000000000000000000001336c4d2e0efa5b70000",
                    "decodedMethod": {
                        "callParams": [
                            {
                                "name": "recipient",
                                "type": "address",
                                "value": "0xb14aa9e3e83aa173a2bdfe57f87d2d0c47307bd4"
                            },
                            {
                                "decimalAvailable": true,
                                "name": "amount",
                                "type": "uint256",
                                "value": "90,735,270,000,000,000,000,000"
                            }
                        ],
                        "constructorArguments": "",
                        "name": "transfer",
                        "returnParams": [
                            {
                                "name": "",
                                "type": "bool",
                                "value": true
                            }
                        ],
                        "signature": "transfer(address,uint256)"
                    },
                    "errorInfo": "",
                    "fromAddress": "0x75e89d5979e4f6fba9f97c104c2f0afb3f1dcb88",
                    "gasUsed": 61934,
                    "id": 0,
                    "methodDecoded": true,
                    "operation": "CALL",
                    "output": "0x0000000000000000000000000000000000000000000000000000000000000001",
                    "revert": false,
                    "revertMessage": "",
                    "selector": "0xa9059cbb",
                    "status": true,
                    "value": "0"
                },
                "nodeType": 0
            },
            "1": {
                "event": {
                    "contract": "0xf36c5f04127f7470834ed6f98bddc1be62aba48d",
                    "decodedLog": {
                        "name": "Transfer",
                        "params": [
                            {
                                "name": "from",
                                "type": "address",
                                "value": "0x75e89d5979e4f6fba9f97c104c2f0afb3f1dcb88"
                            },
                            {
                                "name": "to",
                                "type": "address",
                                "value": "0xb14aa9e3e83aa173a2bdfe57f87d2d0c47307bd4"
                            },
                            {
                                "decimalAvailable": true,
                                "name": "value",
                                "type": "uint256",
                                "value": "90,735,270,000,000,000,000,000"
                            }
                        ],
                        "signature": "Transfer(address,address,uint256)"
                    },
                    "id": 1,
                    "logData": "0x000000000000000000000000000000000000000000001336c4d2e0efa5b70000",
                    "logDecoded": true,
                    "operation": "EVENT",
                    "revert": false,
                    "status": true,
                    "topics": [
                        "0xddf252ad1be2c89b69c2b068fc378daa952ba7f163c4a11628f55a4df523b3ef",
                        "0x00000000000000000000000075e89d5979e4f6fba9f97c104c2f0afb3f1dcb88",
                        "0x000000000000000000000000b14aa9e3e83aa173a2bdfe57f87d2d0c47307bd4"
                    ]
                },
                "nodeType": 1
            }
        },
        "gasFlame": [
            {
                "children": [
                    {
                        "children": [
                            {
                                "children": [],
                                "depth": 0,
                                "name": "Initial Gas",
                                "value": 21656
                            },
                            {
                                "children": [],
                                "depth": 0,
                                "name": "Executed Gas",
                                "value": 40278
                            }
                        ],
                        "depth": -1,
                        "name": "Actual Gas Used",
                        "value": 61934
                    },
                    {
                        "children": [],
                        "depth": -1,
                        "name": "Refunded Gas",
                        "value": 0
                    }
                ],
                "depth": -2,
                "name": "Total Gas",
                "value": 61934
            }
        ],
        "isConfirmed": true,
        "mainTrace": [
            {
                "children": [
                    {
                        "children": [
                            {
                                "children": [],
                                "depth": 1,
                                "id": 1,
                                "order": 1
                            }
                        ],
                        "depth": 0,
                        "id": 0,
                        "order": 0
                    }
                ],
                "depth": -1,
                "id": -1,
                "order": -1
            }
        ],
        "mainTraceNodeCount": 2,
        "parentIdMap": {
            "0": -1,
            "1": 0
        },
        "tidyTrace": [
            {
                "children": [
                    {
                        "children": [
                            {
                                "children": [],
                                "depth": 1,
                                "id": 1,
                                "order": 1
                            }
                        ],
                        "depth": 0,
                        "id": 0,
                        "order": 0
                    }
                ],
                "depth": -1,
                "id": -1,
                "order": -1
            }
        ],
        "tidyTraceNodeCount": 2
    },
    "state_change": {
        "stateChanges": [
            {
                "address": "0xf36c5f04127f7470834ed6f98bddc1be62aba48d",
                "erc": "ERC-20",
                "slots": [
                    {
                        "current": "0x0000000000000000000000000000000000000000000088dbcc294ff859c70000",
                        "key": "0xf2465eb39d10a4f579d386305fa16a4ceadc0f54c89b4f7eb75943e574754db9",
                        "prev": "0x0000000000000000000000000000000000000000000075a507566f08b4100000"
                    },
                    {
                        "current": "0x0000000000000000000000000000000000000000000833a019a750168960ff00",
                        "key": "0x0c1c0c914f45c000744875af89164f0c3fa7a95c88dac7dd52278df3ccdd7017",
                        "prev": "0x0000000000000000000000000000000000000000000846d6de7a31062f17ff00"
                    }
                ],
                "storageVariables": [
                    {
                        "name": "_balances",
                        "type": "mapping(address => uint256)",
                        "value": {
                            "pairs": [
                                {
                                    "key": "0x75e89d5979e4f6fba9f97c104c2f0afb3f1dcb88",
                                    "value": {
                                        "current": "9915200575129408615022336",
                                        "prev": "10005935845129408615022336",
                                        "typeTag": 1
                                    }
                                },
                                {
                                    "key": "0xb14aa9e3e83aa173a2bdfe57f87d2d0c47307bd4",
                                    "value": {
                                        "current": "646296390000000000000000",
                                        "prev": "555561120000000000000000",
                                        "typeTag": 1
                                    }
                                }
                            ],
                            "typeTag": 4
                        }
                    }
                ]
            }
        ]
    }
}