{
    "balance_change": {
        "balanceChanges": [
            {
                "account": "0x46340b20830761efd32832a74d7169b29feb9758",
                "assets": [
                    {
                        "address": "0x6b0b3a982b4634ac68dd83a4dbf02311ce324181",
                        "amount": "2,839.38002407",
                        "iconUrl": "",
                        "isERC1155": false,
                        "isERC721": false,
                        "sign": false,
                        "value": "66.157554559200003594"
                    }
                ]
            },
            {
                "account": "0x7a8a7bd68e146ebfad8802982e0c8a16f4407fb6",
                "assets": [
                    {
                        "address": "0x6b0b3a982b4634ac68dd83a4dbf02311ce324181",
                        "amount": "2,839.38002407",
                        "iconUrl": "",
                        "isERC1155": false,
                        "isERC721": false,
                        "sign": true,
                        "value": "66.157554559200003594"
                    }
                ]
            }
        ]
    },
    "profile": {
        "basic_info": {
            "baseFee": "19.897941539",
            "blockNumber": 17448811,
            "callData": "0xa9059cbb0000000000000000000000007a8a7bd68e146ebfad8802982e0c8a16f4407fb6000000000000000000000000000000000000000000000099ec504036286ebc00",
            "debugEnable": true,
            "errorInfo": "",
            "eventCount": 2,
            "feeRecipient": "0x1f9090aae28b8a3dceadf281b0f12828e676c326",
            "formatValue": "0",
            "gasLimit": 350000,
            "gasPrice": "29.603256873",
            "gasUsed": 61626,
            "intTxnCount": 0,
            "internalRevert": false,
            "internalRevertMessage": "",
            "isContractCreation": false,
            "isFlashloan": false,
            "maxFee": "",
            "nonce": 8931120,
            "overwritedBlockNumber": -1,
            "priorityFee": "",
            "receiver": "0x6b0b3a982b4634ac68dd83a4dbf02311ce324181",
            "revertMessage": "",
            "sender": "0x46340b20830761efd32832a74d7169b29feb9758",
            "simulationEnable": true,
            "sourceTxnHash": "0x1f787dbef5bdfa2f832e2d5b11d718db14ec4e135324a45237efe73866dc1242",
            "status": true,
            "timestamp": "2023-06-10T09:13:47Z",
            "transactionFee": "0.001824330308055498",
            "txnHash": "0x1f787dbef5bdfa2f832e2d5b11d718db14ec4e135324a45237efe73866dc1242",
            "txnIndex": 22,
            "type": 0,
            "value": "0"
        },
        "fund_flow": [
            {
                "amount": "2,839.38002407",
                "from": "0x46340b20830761efd32832a74d7169b29feb9758",
                "id": 1,
                "isERC1155": false,
                "isERC721": false,
                "isReverted": false,
                "order": 1,
                "to": "0x7a8a7bd68e146ebfad8802982e0c8a16f4407fb6",
                "token": "0x6b0b3a982b4634ac68dd83a4dbf02311ce324181"
            }
        ],
        "token_infos": [
            {
                "address": "0x6b0b3a982b4634ac68dd83a4dbf02311ce324181",
                "decimals": 18
            },
            {
                "address": "0xc02aaa39b223fe8d0a0e5c4f27ead9083c756cc2",
                "decimals": 18
            },
            {
                "address": "0xeeeeeeeeeeeeeeeeeeeeeeeeeeeeeeeeeeeeeeee",
                "decimals": 18
            }
        ]
    },
    "address_label": {
        "labels": [
            {
                "address": "0xeeeeeeeeeeeeeeeeeeeeeeeeeeeeeeeeeeeeeeee",
                "label": "Ether"
            },
            {
                "address": "0x6b0b3a982b4634ac68dd83a4dbf02311ce324181",
                "label": "Alethea AI: ALI Token"
            },
            {
                "address": "0x46340b20830761efd32832a74d7169b29feb9758",
                "label": "Crypto.com 2"
            },
            {
                "address": "0x0000000000000000000000000000000000000001",
                "label": "Precompiled"
            },
            {
                "address": "0x0000000000000000000000000000000000000002",
                "label": "Precompiled"
            },
            {
                "address": "0x0000000000000000000000000000000000000003",
                "label": "Precompiled"
            },
            {
                "address": "0x0000000000000000000000000000000000000004",
                "label": "Precompiled"
            }
        ]
    },
    "trace": {
        "accountLabels": null,
        "dataMap": {
            "-1": {
                "invocation": {
                    "address": "0x46340b20830761efd32832a74d7169b29feb9758",
                    "callData": "",
                    "decodedMethod": null,
                    "errorInfo": "",
                    "fromAddress": "",
                    "gasUsed": 0,
                    "id": -1,
                    "methodDecoded": false,
                    "operation": "",
                    "output": "",
                    "revert": false,
                    "revertMessage": "",
                    "selector": "",
                    "status": false,
                    "value": ""
                },
                "nodeType": 0
            },
            "0": {
                "invocation": {
                    "address": "0x6b0b3a982b4634ac68dd83a4dbf02311ce324181",
                    "callData": "0x0000000000000000000000007a8a7bd68e146ebfad8802982e0c8a16f4407fb6000000000000000000000000000000000000000000000099ec504036286ebc00",
                    "decodedMethod": {
                        "callParams": [
                            {
                                "name": "_to",
                                "type": "address",
                                "value": "0x7a8a7bd68e146ebfad8802982e0c8a16f4407fb6"
                            },
                            {
                                "decimalAvailable": true,
                                "name": "_value",
                                "type": "uint256",
                                "value": "2,839,380,024,070,000,000,000"
                            }
                        ],
                        "constructorArguments": "",
                        "name": "transfer",
                        "returnParams": [
                            {
                                "name": "success",
                                "type": "bool",
                                "value": true
                            }
                        ],
                        "signature": "transfer(address,uint256)"
                    },
                    "errorInfo": "",
                    "fromAddress": "0x46340b20830761efd32832a74d7169b29feb9758",
                    "gasUsed": 61626,
                    "id": 0,
                    "methodDecoded": true,
                    "operation": "CALL",
                    "output": "0x0000000000000000000000000000000000000000000000000000000000000001",
                    "revert": false,
                    "revertMessage": "",
                    "selector": "0xa9059cbb",
                    "status": true,
                    "value": "0"
                },
                "nodeType": 0
            },
            "1": {
                "event": {
                    "contract": "0x6b0b3a982b4634ac68dd83a4dbf02311ce324181",
                    "decodedLog": {
                        "name": "Transfer",
                        "params": [
                            {
                                "name": "by",
                                "type": "address",
                                "value": "0x46340b20830761efd32832a74d7169b29feb9758"
                            },
                            {
                                "name": "from",
                                "type": "address",
                                "value": "0x46340b20830761efd32832a74d7169b29feb9758"
                            },
                            {
                                "name": "to",
                                "type": "address",
                                "value": "0x7a8a7bd68e146ebfad8802982e0c8a16f4407fb6"
                            },
                            {
                                "name": "value",
                                "type": "uint256",
                                "value": "2,839,380,024,070,000,000,000"
                            }
                        ],
                        "signature": "Transfer(address,address,address,uint256)"
                    },
                    "id": 1,
                    "logData": "0x000000000000000000000000000000000000000000000099ec504036286ebc00",
                    "logDecoded": true,
                    "operation": "EVENT",
                    "revert": false,
                    "status": true,
                    "topics": [
                        "0xd1398bee19313d6bf672ccb116e51f4a1a947e91c757907f51fbb5b5e56c698f",
                        "0x00000000000000000000000046340b20830761efd32832a74d7169b29feb9758",
                        "0x00000000000000000000000046340b20830761efd32832a74d7169b29feb9758",
                        "0x0000000000000000000000007a8a7bd68e146ebfad8802982e0c8a16f4407fb6"
                    ]
                },
                "nodeType": 1
            },
            "2": {
                "event": {
                    "contract": "0x6b0b3a982b4634ac68dd83a4dbf02311ce324181",
                    "decodedLog": {
                        "name": "Transfer",
                        "params": [
                            {
                                "name": "from",
                                "type": "address",
                                "value": "0x46340b20830761efd32832a74d7169b29feb9758"
                            },
                            {
                                "name": "to",
                                "type": "address",
                                "value": "0x7a8a7bd68e146ebfad8802982e0c8a16f4407fb6"
                            },
                            {
                                "decimalAvailable": true,
                                "name": "value",
                                "type": "uint256",
                                "value": "2,839,380,024,070,000,000,000"
                            }
                        ],
                        "signature": "Transfer(address,address,uint256)"
                    },
                    "id": 2,
                    "logData": "0x000000000000000000000000000000000000000000000099ec504036286ebc00",
                    "logDecoded": true,
                    "operation": "EVENT",
                    "revert": false,
                    "status": true,
                    "topics": [
                        "0xddf252ad1be2c89b69c2b068fc378daa952ba7f163c4a11628f55a4df523b3ef",
                        "0x00000000000000000000000046340b20830761efd32832a74d7169b29feb9758",
                        "0x0000000000000000000000007a8a7bd68e146ebfad8802982e0c8a16f4407fb6"
                    ]
                },
                "nodeType": 1
            }
        },
        "gasFlame": [
            {
                "children": [
                    {
                        "children": [
                            {
                                "children": [],
                                "depth": 0,
                                "name": "Initial Gas",
                                "value": 21656
                            },
                            {
                                "children": [],
                                "depth": 0,
                                "name": "Executed Gas",
                                "value": 39970
                            }
                        ],
                        "depth": -1,
                        "name": "Actual Gas Used",
                        "value": 61626
                    },
                    {
                        "children": [],
                        "depth": -1,
                        "name": "Refunded Gas",
                        "value": 0
                    }
                ],
                "depth": -2,
                "name": "Total Gas",
                "value": 61626
            }
        ],
        "isConfirmed": true,
        "mainTrace": [
            {
                "children": [
                    {
                        "children": [
                            {
                                "children": [],
                                "depth": 1,
                                "id": 1,
                                "order": 1
                            },
                            {
                                "children": [],
                                "depth": 1,
                                "id": 2,
                                "order": 2
                            }
                        ],
                        "depth": 0,
                        "id": 0,
                        "order": 0
                    }
                ],
                "depth": -1,
                "id": -1,
                "order": -1
            }
        ],
        "mainTraceNodeCount": 3,
        "parentIdMap": {
            "0": -1,
            "1": 0,
            "2": 0
        },
        "tidyTrace": [
            {
                "children": [
                    {
                        "children": [
                            {
                                "children": [],
                                "depth": 1,
                                "id": 1,
                                "order": 1
                            },
                            {
                                "children": [],
                                "depth": 1,
                                "id": 2,
                                "order": 2
                            }
                        ],
                        "depth": 0,
                        "id": 0,
                        "order": 0
                    }
                ],
                "depth": -1,
                "id": -1,
                "order": -1
            }
        ],
        "tidyTraceNodeCount": 3
    },
    "state_change": {
        "stateChanges": [
            {
                "address": "0x6b0b3a982b4634ac68dd83a4dbf02311ce324181",
                "erc": "ERC-20",
                "slots": [
                    {
                        "current": "0x000000000000000000000000000000000000000000014caf9a68e1eba3cd5fc0",
                        "key": "0xfec1b1259f1b4c5b13b2e3b744ed4c90ed15fecc17f3a59cf9e3b807ab5883b9",
                        "prev": "0x000000000000000000000000000000000000000000014d4986b92221cc3c1bc0"
                    },
                    {
                        "current": "0x000000000000000000000000000000000000000000000099ec504036286ebc00",
                        "key": "0xafc5b7108c161534e81ce34b538b14b102c70dc153d363740bfedc657fb545f6",
                        "prev": "0x0000000000000000000000000000000000000000000000000000000000000000"
                    }
                ],
                "storageVariables": [
                    {
                        "name": "tokenBalances",
                        "type": "mapping(address => uint256)",
                        "value": {
                            "pairs": [
                                {
                                    "key": "0x46340b20830761efd32832a74d7169b29feb9758",
                                    "value": {
                                        "current": "1571064978916902983000000",
                                        "prev": "1573904358940972983000000",
                                        "typeTag": 1
                                    }
                                },
                                {
                                    "key": "0x7a8a7bd68e146ebfad8802982e0c8a16f4407fb6",
                                    "value": {
                                        "current": "2839380024070000000000",
                                        "prev": "0",
                                        "typeTag": 1
                                    }
                                }
                            ],
                            "typeTag": 4
                        }
                    }
                ]
            }
        ]
    }
}