{
    "balance_change": {
        "balanceChanges": [
            {
                "account": "0xaa805a36c07e68d3be328ad496f2327daa9d4c14",
                "assets": [
                    {
                        "address": "0x8182b2010f98fcb4a89738090ed25622780a2452",
                        "amount": "1",
                        "iconUrl": "",
                        "isERC1155": false,
                        "isERC721": true,
                        "sign": false,
                        "tokenID": "1329",
                        "value": ""
                    }
                ]
            },
            {
                "account": "0x4f5afcf92a982b1ba8de38d9b6247e257ee1c193",
                "assets": [
                    {
                        "address": "0x8182b2010f98fcb4a89738090ed25622780a2452",
                        "amount": "1",
                        "iconUrl": "",
                        "isERC1155": false,
                        "isERC721": true,
                        "sign": true,
                        "tokenID": "1329",
                        "value": ""
                    }
                ]
            }
        ]
    },
    "profile": {
        "basic_info": {
            "baseFee": "28.009370598",
            "blockNumber": 17368730,
            "callData": "0x23b872dd000000000000000000000000aa805a36c07e68d3be328ad496f2327daa9d4c140000000000000000000000004f5afcf92a982b1ba8de38d9b6247e257ee1c1930000000000000000000000000000000000000000000000000000000000000531",
            "debugEnable": true,
            "errorInfo": "",
            "eventCount": 1,
            "feeRecipient": "0x95222290dd7278aa3ddd389cc1e1d165cc4bafe5",
            "formatValue": "0",
            "gasLimit": 68409,
            "gasPrice": "28.109370598",
            "gasUsed": 40511,
            "intTxnCount": 1,
            "internalRevert": false,
            "internalRevertMessage": "",
            "isContractCreation": false,
            "isFlashloan": false,
            "maxFee": "35.585161193",
            "nonce": 168,
            "overwritedBlockNumber": -1,
            "priorityFee": "0.1",
            "receiver": "0x8182b2010f98fcb4a89738090ed25622780a2452",
            "revertMessage": "",
            "sender": "0xaa805a36c07e68d3be328ad496f2327daa9d4c14",
            "simulationEnable": true,
            "sourceTxnHash": "0x1f6199fc8b987dd0c3bfb2dce782ed83f380b281e6b8c724f14d885a93342e8b",
            "status": true,
            "timestamp": "2023-05-30T02:17:23Z",
            "transactionFee": "0.001138738712295578",
            "txnHash": "0x1f6199fc8b987dd0c3bfb2dce782ed83f380b281e6b8c724f14d885a93342e8b",
            "txnIndex": 74,
            "type": 2,
            "value": "0"
        },
        "fund_flow": [
            {
                "amount": "1",
                "from": "0xaa805a36c07e68d3be328ad496f2327daa9d4c14",
                "id": 1,
                "isERC1155": false,
                "isERC721": true,
                "isReverted": false,
                "order": 1,
                "to": "0x4f5afcf92a982b1ba8de38d9b6247e257ee1c193",
                "token": "0x8182b2010f98fcb4a89738090ed25622780a2452",
                "tokenID": "1329"
            }
        ],
        "token_infos": [
            {
                "address": "0xc02aaa39b223fe8d0a0e5c4f27ead9083c756cc2",
                "decimals": 18
            },
            {
                "address": "0xeeeeeeeeeeeeeeeeeeeeeeeeeeeeeeeeeeeeeeee",
                "decimals": 18
            }
        ]
    },
    "address_label": {
        "labels": [
            {
                "address": "0x0000000000000000000000000000000000000003",
                "label": "Precompiled"
            },
            {
                "address": "0x0000000000000000000000000000000000000004",
                "label": "Precompiled"
            },
            {
                "address": "0xeeeeeeeeeeeeeeeeeeeeeeeeeeeeeeeeeeeeeeee",
                "label": "Ether"
            },
            {
                "address": "0x8182b2010f98fcb4a89738090ed25622780a2452",
                "label": "Bitcoin Miladys (BTCMIL)"
            },
            {
                "address": "0x47957cf51808f0b0f5c5b953a2a2b6b2b228ca33",
                "label": "Archetype"
            },
            {
                "address": "0x0000000000000000000000000000000000000001",
                "label": "Precompiled"
            },
            {
                "address": "0x0000000000000000000000000000000000000002",
                "label": "Precompiled"
            }
        ]
    },
    "trace": {
        "accountLabels": null,
        "dataMap": {
            "-1": {
                "invocation": {
                    "address": "0xaa805a36c07e68d3be328ad496f2327daa9d4c14",
                    "callData": "",
                    "decodedMethod": null,
                    "errorInfo": "",
                    "fromAddress": "",
                    "gasUsed": 0,
                    "id": -1,
                    "methodDecoded": false,
                    "operation": "",
                    "output": "",
                    "revert": false,
                    "revertMessage": "",
                    "selector": "",
                    "status": false,
                    "value": ""
                },
                "nodeType": 0
            },
            "0": {
                "invocation": {
                    "address": "0x8182b2010f98fcb4a89738090ed25622780a2452",
                    "callData": "0x000000000000000000000000aa805a36c07e68d3be328ad496f2327daa9d4c140000000000000000000000004f5afcf92a982b1ba8de38d9b6247e257ee1c1930000000000000000000000000000000000000000000000000000000000000531",
                    "decodedMethod": {
                        "callParams": [
                            {
                                "name": "from",
                                "type": "address",
                                "value": "0xaa805a36c07e68d3be328ad496f2327daa9d4c14"
                            },
                            {
                                "name": "to",
                                "type": "address",
                                "value": "0x4f5afcf92a982b1ba8de38d9b6247e257ee1c193"
                            },
                            {
                                "decimalAvailable": true,
                                "name": "tokenId",
                                "type": "uint256",
                                "value": "1,329"
                            }
                        ],
                        "constructorArguments": "",
                        "name": "transferFrom",
                        "returnParams": [],
                        "signature": "transferFrom(address,address,uint256)"
                    },
                    "errorInfo": "",
                    "fromAddress": "0xaa805a36c07e68d3be328ad496f2327daa9d4c14",
                    "gasUsed": 40511,
                    "id": 0,
                    "methodDecoded": true,
                    "operation": "CALL",
                    "output": "",
                    "revert": false,
                    "revertMessage": "",
                    "selector": "0x23b872dd",
                    "status": true,
                    "value": "0"
                },
                "nodeType": 0
            },
            "1": {
                "invocation": {
                    "address": "0x47957cf51808f0b0f5c5b953a2a2b6b2b228ca33",
                    "callData": "0x000000000000000000000000aa805a36c07e68d3be328ad496f2327daa9d4c140000000000000000000000004f5afcf92a982b1ba8de38d9b6247e257ee1c1930000000000000000000000000000000000000000000000000000000000000531",
                    "decodedMethod": {
                        "callParams": [
                            {
                                "name": "from",
                                "type": "address",
                                "value": "0xaa805a36c07e68d3be328ad496f2327daa9d4c14"
                            },
                            {
                                "name": "to",
                                "type": "address",
                                "value": "0x4f5afcf92a982b1ba8de38d9b6247e257ee1c193"
                            },
                            {
                                "decimalAvailable": true,
                                "name": "tokenId",
                                "type": "uint256",
                                "value": "1,329"
                            }
                        ],
                        "constructorArguments": "",
                        "name": "transferFrom",
                        "returnParams": [],
                        "signature": "transferFrom(address,address,uint256)"
                    },
                    "errorInfo": "",
                    "fromAddress": "0x8182b2010f98fcb4a89738090ed25622780a2452",
                    "gasUsed": 20678,
                    "id": 1,
                    "methodDecoded": true,
                    "operation": "DELEGATECALL",
                    "output": "",
                    "revert": false,
                    "revertMessage": "",
                    "selector": "0x23b872dd",
                    "status": true,
                    "value": "0"
                },
                "nodeType": 0
            },
            "2": {
                "event": {
                    "contract": "0x8182b2010f98fcb4a89738090ed25622780a2452",
                    "decodedLog": {
                        "name": "Transfer",
                        "params": [
                            {
                                "name": "from",
                                "type": "address",
                                "value": "0xaa805a36c07e68d3be328ad496f2327daa9d4c14"
                            },
                            {
                                "name": "to",
                                "type": "address",
                                "value": "0x4f5afcf92a982b1ba8de38d9b6247e257ee1c193"
                            },
                            {
                                "decimalAvailable": true,
                                "name": "tokenId",
                                "type": "uint256",
                                "value": "1,329"
                            }
                        ],
                        "signature": "Transfer(address,address,uint256)"
                    },
                    "id": 2,
                    "logData": "0x",
                    "logDecoded": true,
                    "operation": "EVENT",
                    "revert": false,
                    "status": true,
                    "topics": [
                        "0xddf252ad1be2c89b69c2b068fc378daa952ba7f163c4a11628f55a4df523b3ef",
                        "0x000000000000000000000000aa805a36c07e68d3be328ad496f2327daa9d4c14",
                        "0x0000000000000000000000004f5afcf92a982b1ba8de38d9b6247e257ee1c193",
                        "0x0000000000000000000000000000000000000000000000000000000000000531"
                    ]
                },
                "nodeType": 1
            }
        },
        "gasFlame": [
            {
                "children": [
                    {
                        "children": [
                            {
                                "children": [],
                                "depth": 0,
                                "name": "Initial Gas",
                                "value": 21952
                            },
                            {
                                "children": [
                                    {
                                        "children": [],
                                        "depth": 1,
                                        "name": "transferFrom",
                                        "value": 20678
                                    }
                                ],
                                "depth": 0,
                                "name": "Executed Gas",
                                "value": 23359
                            }
                        ],
                        "depth": -1,
                        "name": "Actual Gas Used",
                        "value": 40511
                    },
                    {
                        "children": [],
                        "depth": -1,
                        "name": "Refunded Gas",
                        "value": 4800
                    }
                ],
                "depth": -2,
                "name": "Total Gas",
                "value": 45311
            }
        ],
        "isConfirmed": true,
        "mainTrace": [
            {
                "children": [
                    {
                        "children": [
                            {
                                "children": [
                                    {
                                        "children": [],
                                        "depth": 2,
                                        "id": 2,
                                        "order": 2
                                    }
                                ],
                                "depth": 1,
                                "id": 1,
                                "order": 1
                            }
                        ],
                        "depth": 0,
                        "id": 0,
                        "order": 0
                    }
                ],
                "depth": -1,
                "id": -1,
                "order": -1
            }
        ],
        "mainTraceNodeCount": 3,
        "parentIdMap": {
            "0": -1,
            "1": 0,
            "2": 1
        },
        "tidyTrace": [
            {
                "children": [
                    {
                        "children": [
                            {
                                "children": [
                                    {
                                        "children": [],
                                        "depth": 2,
                                        "id": 2,
                                        "order": 2
                                    }
                                ],
                                "depth": 1,
                                "id": 1,
                                "order": 1
                            }
                        ],
                        "depth": 0,
                        "id": 0,
                        "order": 0
                    }
                ],
                "depth": -1,
                "id": -1,
                "order": -1
            }
        ],
        "tidyTraceNodeCount": 3
    },
    "state_change": {
        "stateChanges": [
            {
                "address": "0x8182b2010f98fcb4a89738090ed25622780a2452",
                "erc": "ERC-721",
                "slots": [
                    {
                        "current": "0x0000000000000000000000000000000000000000000000000000000000000000",
                        "key": "0x2952700680c02337fa66db57d66622859f17dd96447641af1c22dcd0f8bc78bc",
                        "prev": "0x0000000000000000000000000000000000000000000000000000000000000001"
                    },
                    {
                        "current": "0x0000000000000000000000000000000000000000000000000000000000000003",
                        "key": "0xc261e3773bde997a9f8dd35dae795a4c1c47ab7e6fcf26b8d01a731d4d9a6522",
                        "prev": "0x0000000000000000000000000000000000000000000000000000000000000002"
                    },
                    {
                        "current": "0x000000020000000064755cb34f5afcf92a982b1ba8de38d9b6247e257ee1c193",
                        "key": "0xb63f675cb24340e8046eee1921d7d8a05b7e223a8d72fd057c68ca6389d5c47d",
                        "prev": "0x0000000200000000647505bfaa805a36c07e68d3be328ad496f2327daa9d4c14"
                    }
                ],
                "storageVariables": []
            }
        ]
    }
}