{
    "balance_change": {
        "balanceChanges": [
            {
                "account": "0xa83d4f84330b1f439469048fa66ad97354cd5ad9",
                "assets": [
                    {
                        "address": "0xeeeeeeeeeeeeeeeeeeeeeeeeeeeeeeeeeeeeeeee",
                        "amount": "0.00311023622047244",
                        "iconUrl": "https://assets.blocksec.com/image/1663669189317-3.png",
                        "isERC1155": false,
                        "isERC721": false,
                        "sign": false,
                        "value": "4.112292125359600198"
                    }
                ]
            },
            {
                "account": "0x4b5057b2c87ec9e7c047fb00c0e406dff2fdacad",
                "assets": [
                    {
                        "address": "0xeeeeeeeeeeeeeeeeeeeeeeeeeeeeeeeeeeeeeeee",
                        "amount": "0.00311023622047244",
                        "iconUrl": "https://assets.blocksec.com/image/1663669189317-3.png",
                        "isERC1155": false,
                        "isERC721": false,
                        "sign": true,
                        "value": "4.112292125359600198"
                    }
                ]
            }
        ]
    },
    "profile": {
        "basic_info": {
            "baseFee": "8.38849704",
            "blockNumber": 15592391,
            "callData": "0x3761cf4a000000000000000000000000000000000000000000000000000000000000000f00000000000000000000000000000000000000000000000044dd6d966536aa0a00000000000000000000000000000000000000000000000000000000000000600000000000000000000000000000000000000000000000000000000000000041a8272742dc7b05acc385afb2b7fdbf93ab859570075c6e35bbc6be2537fb5eac7d39175ed402b7bd069e49ff3c11e5c631817a4d68e86ca1c24cac09a2efcd391c00000000000000000000000000000000000000000000000000000000000000",
            "debugEnable": true,
            "errorInfo": "",
            "eventCount": 1,
            "feeRecipient": "0x388c818ca8b9251b393131c08a736a67ccb19297",
            "formatValue": "0.00311023622047244",
            "gasLimit": 72878,
            "gasPrice": "9.88849704",
            "gasUsed": 70060,
            "intTxnCount": 2,
            "internalRevert": false,
            "internalRevertMessage": "",
            "isContractCreation": false,
            "isFlashloan": false,
            "maxFee": "13.443526381",
            "nonce": 227,
            "overwritedBlockNumber": -1,
            "priorityFee": "1.5",
            "receiver": "0xfbddadd80fe7bda00b901fbaf73803f2238ae655",
            "revertMessage": "",
            "sender": "0xa83d4f84330b1f439469048fa66ad97354cd5ad9",
            "simulationEnable": true,
            "sourceTxnHash": "0x1f06b7f76b0096b895ca1e9fdce8b517d69f9fe50bbf197477d34214e0f593d4",
            "status": true,
            "timestamp": "2022-09-23T00:13:23Z",
            "transactionFee": "0.0006927881026224",
            "txnHash": "0x1f06b7f76b0096b895ca1e9fdce8b517d69f9fe50bbf197477d34214e0f593d4",
            "txnIndex": 14,
            "type": 2,
            "value": "3110236220472440"
        },
        "fund_flow": [
            {
                "amount": "0.00311023622047244",
                "from": "0xa83d4f84330b1f439469048fa66ad97354cd5ad9",
                "id": 1,
                "isERC1155": false,
                "isERC721": false,
                "isReverted": false,
                "order": 1,
                "to": "0xfbddadd80fe7bda00b901fbaf73803f2238ae655",
                "token": "0xeeeeeeeeeeeeeeeeeeeeeeeeeeeeeeeeeeeeeeee"
            },
            {
                "amount": "0.00311023622047244",
                "from": "0xfbddadd80fe7bda00b901fbaf73803f2238ae655",
                "id": 2,
                "isERC1155": false,
                "isERC721": false,
                "isReverted": false,
                "order": 2,
                "to": "0x4b5057b2c87ec9e7c047fb00c0e406dff2fdacad",
                "token": "0xeeeeeeeeeeeeeeeeeeeeeeeeeeeeeeeeeeeeeeee"
            }
        ],
        "token_infos": [
            {
                "address": "0xc02aaa39b223fe8d0a0e5c4f27ead9083c756cc2",
                "decimals": 18
            },
            {
                "address": "0xeeeeeeeeeeeeeeeeeeeeeeeeeeeeeeeeeeeeeeee",
                "decimals": 18
            }
        ]
    },
    "address_label": {
        "labels": [
            {
                "address": "0x0000000000000000000000000000000000000003",
                "label": "Precompiled"
            },
            {
                "address": "0x0000000000000000000000000000000000000004",
                "label": "Precompiled"
            },
            {
                "address": "0xeeeeeeeeeeeeeeeeeeeeeeeeeeeeeeeeeeeeeeee",
                "label": "Ether"
            },
            {
                "address": "0xfbddadd80fe7bda00b901fbaf73803f2238ae655",
                "label": "StrongBlock: Service"
            },
            {
                "address": "0x218365abf9d79ae2bd81faf859392a33897b4272",
                "label": "ServiceV25"
            },
            {
                "address": "0x388c818ca8b9251b393131c08a736a67ccb19297",
                "label": "LidoExecutionLayerRewardsVault"
            },
            {
                "address": "0x0000000000000000000000000000000000000001",
                "label": "Precompiled"
            },
            {
                "address": "0x0000000000000000000000000000000000000002",
                "label": "Precompiled"
            }
        ]
    },
    "trace": {
        "accountLabels": null,
        "dataMap": {
            "-1": {
                "invocation": {
                    "address": "0xa83d4f84330b1f439469048fa66ad97354cd5ad9",
                    "callData": "",
                    "decodedMethod": null,
                    "errorInfo": "",
                    "fromAddress": "",
                    "gasUsed": 0,
                    "id": -1,
                    "methodDecoded": false,
                    "operation": "",
                    "output": "",
                    "revert": false,
                    "revertMessage": "",
                    "selector": "",
                    "status": false,
                    "value": ""
                },
                "nodeType": 0
            },
            "0": {
                "invocation": {
                    "address": "0xfbddadd80fe7bda00b901fbaf73803f2238ae655",
                    "callData": "0x000000000000000000000000000000000000000000000000000000000000000f00000000000000000000000000000000000000000000000044dd6d966536aa0a00000000000000000000000000000000000000000000000000000000000000600000000000000000000000000000000000000000000000000000000000000041a8272742dc7b05acc385afb2b7fdbf93ab859570075c6e35bbc6be2537fb5eac7d39175ed402b7bd069e49ff3c11e5c631817a4d68e86ca1c24cac09a2efcd391c00000000000000000000000000000000000000000000000000000000000000",
                    "decodedMethod": {
                        "callParams": [
                            {
                                "name": "nodeId",
                                "type": "uint128",
                                "value": "15"
                            },
                            {
                                "name": "claimedTotal",
                                "type": "uint256",
                                "value": "4,962,242,857,142,757,898"
                            },
                            {
                                "name": "signature",
                                "type": "bytes",
                                "value": "0xa8272742dc7b05acc385afb2b7fdbf93ab859570075c6e35bbc6be2537fb5eac7d39175ed402b7bd069e49ff3c11e5c631817a4d68e86ca1c24cac09a2efcd391c"
                            }
                        ],
                        "constructorArguments": "",
                        "name": "payFee",
                        "returnParams": [],
                        "signature": "payFee(uint128,uint256,bytes)"
                    },
                    "errorInfo": "",
                    "fromAddress": "0xa83d4f84330b1f439469048fa66ad97354cd5ad9",
                    "gasUsed": 70060,
                    "id": 0,
                    "methodDecoded": true,
                    "operation": "CALL",
                    "output": "",
                    "revert": false,
                    "revertMessage": "",
                    "selector": "0x3761cf4a",
                    "status": true,
                    "value": "0.00311023622047244"
                },
                "nodeType": 0
            },
            "1": {
                "invocation": {
                    "address": "0x218365abf9d79ae2bd81faf859392a33897b4272",
                    "callData": "0x000000000000000000000000000000000000000000000000000000000000000f00000000000000000000000000000000000000000000000044dd6d966536aa0a00000000000000000000000000000000000000000000000000000000000000600000000000000000000000000000000000000000000000000000000000000041a8272742dc7b05acc385afb2b7fdbf93ab859570075c6e35bbc6be2537fb5eac7d39175ed402b7bd069e49ff3c11e5c631817a4d68e86ca1c24cac09a2efcd391c00000000000000000000000000000000000000000000000000000000000000",
                    "decodedMethod": {
                        "callParams": [
                            {
                                "name": "nodeId",
                                "type": "uint128",
                                "value": "15"
                            },
                            {
                                "name": "claimedTotal",
                                "type": "uint256",
                                "value": "4,962,242,857,142,757,898"
                            },
                            {
                                "name": "signature",
                                "type": "bytes",
                                "value": "0xa8272742dc7b05acc385afb2b7fdbf93ab859570075c6e35bbc6be2537fb5eac7d39175ed402b7bd069e49ff3c11e5c631817a4d68e86ca1c24cac09a2efcd391c"
                            }
                        ],
                        "constructorArguments": "",
                        "name": "payFee",
                        "returnParams": [],
                        "signature": "payFee(uint128,uint256,bytes)"
                    },
                    "errorInfo": "",
                    "fromAddress": "0xfbddadd80fe7bda00b901fbaf73803f2238ae655",
                    "gasUsed": 39882,
                    "id": 1,
                    "methodDecoded": true,
                    "operation": "DELEGATECALL",
                    "output": "",
                    "revert": false,
                    "revertMessage": "",
                    "selector": "0x3761cf4a",
                    "status": true,
                    "value": "0.00311023622047244"
                },
                "nodeType": 0
            },
            "2": {
                "event": {
                    "contract": "0xfbddadd80fe7bda00b901fbaf73803f2238ae655",
                    "decodedLog": {
                        "name": "Paid",
                        "params": [
                            {
                                "name": "entity",
                                "type": "address",
                                "value": "0xa83d4f84330b1f439469048fa66ad97354cd5ad9"
                            },
                            {
                                "name": "nodeId",
                                "type": "uint128",
                                "value": "15"
                            },
                            {
                                "name": "isBYON",
                                "type": "bool",
                                "value": false
                            },
                            {
                                "name": "isRenewal",
                                "type": "bool",
                                "value": true
                            },
                            {
                                "name": "upToBlockNumber",
                                "type": "uint256",
                                "value": "15,644,030"
                            }
                        ],
                        "signature": "Paid(address,uint128,bool,bool,uint256)"
                    },
                    "id": 2,
                    "logData": "0x000000000000000000000000000000000000000000000000000000000000000f000000000000000000000000000000000000000000000000000000000000000000000000000000000000000000000000000000000000000000000000000000010000000000000000000000000000000000000000000000000000000000eeb57e",
                    "logDecoded": true,
                    "operation": "EVENT",
                    "revert": false,
                    "status": true,
                    "topics": [
                        "0x39b0a0620bb668047ab7248973ddfd93d53dff1d4952bd2d56bbf5934edc1fd0",
                        "0x000000000000000000000000a83d4f84330b1f439469048fa66ad97354cd5ad9"
                    ]
                },
                "nodeType": 1
            },
            "3": {
                "invocation": {
                    "address": "0x4b5057b2c87ec9e7c047fb00c0e406dff2fdacad",
                    "callData": "0x",
                    "decodedMethod": null,
                    "errorInfo": "",
                    "fromAddress": "0xfbddadd80fe7bda00b901fbaf73803f2238ae655",
                    "gasUsed": 0,
                    "id": 3,
                    "methodDecoded": false,
                    "operation": "CALL",
                    "output": "",
                    "revert": false,
                    "revertMessage": "",
                    "selector": "fallback",
                    "status": true,
                    "value": "0.00311023622047244"
                },
                "nodeType": 0
            }
        },
        "gasFlame": [
            {
                "children": [
                    {
                        "children": [
                            {
                                "children": [],
                                "depth": 0,
                                "name": "Initial Gas",
                                "value": 22872
                            },
                            {
                                "children": [
                                    {
                                        "children": [
                                            {
                                                "children": [],
                                                "depth": 2,
                                                "name": "fallback",
                                                "value": 0
                                            }
                                        ],
                                        "depth": 1,
                                        "name": "payFee",
                                        "value": 39882
                                    }
                                ],
                                "depth": 0,
                                "name": "Executed Gas",
                                "value": 47188
                            }
                        ],
                        "depth": -1,
                        "name": "Actual Gas Used",
                        "value": 70060
                    },
                    {
                        "children": [],
                        "depth": -1,
                        "name": "Refunded Gas",
                        "value": 0
                    }
                ],
                "depth": -2,
                "name": "Total Gas",
                "value": 70060
            }
        ],
        "isConfirmed": true,
        "mainTrace": [
            {
                "children": [
                    {
                        "children": [
                            {
                                "children": [
                                    {
                                        "children": [],
                                        "depth": 2,
                                        "id": 2,
                                        "order": 2
                                    },
                                    {
                                        "children": [],
                                        "depth": 2,
                                        "id": 3,
                                        "order": 3
                                    }
                                ],
                                "depth": 1,
                                "id": 1,
                                "order": 1
                            }
                        ],
                        "depth": 0,
                        "id": 0,
                        "order": 0
                    }
                ],
                "depth": -1,
                "id": -1,
                "order": -1
            }
        ],
        "mainTraceNodeCount": 4,
        "parentIdMap": {
            "0": -1,
            "1": 0,
            "2": 1,
            "3": 1
        },
        "tidyTrace": [
            {
                "children": [
                    {
                        "children": [
                            {
                                "children": [
                                    {
                                        "children": [],
                                        "depth": 2,
                                        "id": 2,
                                        "order": 2
                                    },
                                    {
                                        "children": [],
                                        "depth": 2,
                                        "id": 3,
                                        "order": 3
                                    }
                                ],
                                "depth": 1,
                                "id": 1,
                                "order": 1
                            }
                        ],
                        "depth": 0,
                        "id": 0,
                        "order": 0
                    }
                ],
                "depth": -1,
                "id": -1,
                "order": -1
            }
        ],
        "tidyTraceNodeCount": 4
    },
    "state_change": {
        "stateChanges": [
            {
                "address": "0xfbddadd80fe7bda00b901fbaf73803f2238ae655",
                "erc": "",
                "slots": [
                    {
                        "current": "0x0000000000000000000000000000000000000000000000000000000000eeb57e",
                        "key": "0x5846ce3bcf1c4959fb42d166963d2c33ec7bc16bff90fa1c3c883fc9f99de8e6",
                        "prev": "0x0000000000000000000000000000000000000000000000000000000000ebafde"
                    }
                ],
                "storageVariables": [
                    {
                        "name": "entityNodePaidOnBlock",
                        "type": "mapping(bytes => uint256)",
                        "value": {
                            "pairs": [
                                {
                                    "key": "0xa83d4f84330b1f439469048fa66ad97354cd5ad90000000000000000000000000000000f",
                                    "value": {
                                        "current": "15644030",
                                        "prev": "15445982",
                                        "typeTag": 1
                                    }
                                }
                            ],
                            "typeTag": 4
                        }
                    }
                ]
            }
        ]
    }
}