{
    "balance_change": {
        "balanceChanges": [
            {
                "account": "0x7158ce25c928a2747fda6ccf50f9496dca4d47ce",
                "assets": [
                    {
                        "address": "0x6bc1f3a1ae56231dbb64d3e82e070857eae86045",
                        "amount": "4,495.5",
                        "iconUrl": "",
                        "isERC1155": false,
                        "isERC721": false,
                        "sign": false,
                        "value": ""
                    }
                ]
            },
            {
                "account": "0x49890d7e5ecd485f1a9f36bcfd60c6f77d272308",
                "assets": [
                    {
                        "address": "0x6bc1f3a1ae56231dbb64d3e82e070857eae86045",
                        "amount": "4,495.5",
                        "iconUrl": "",
                        "isERC1155": false,
                        "isERC721": false,
                        "sign": true,
                        "value": ""
                    }
                ]
            }
        ]
    },
    "profile": {
        "basic_info": {
            "baseFee": "",
            "blockNumber": 10780248,
            "callData": "0xa9059cbb00000000000000000000000049890d7e5ecd485f1a9f36bcfd60c6f77d2723080000000000000000000000000000000000000000000000f3b39857d1f88e0000",
            "debugEnable": true,
            "errorInfo": "",
            "eventCount": 1,
            "feeRecipient": "0x99c85bb64564d9ef9a99621301f22c9993cb89e3",
            "formatValue": "0",
            "gasLimit": 305000,
            "gasPrice": "576",
            "gasUsed": 39450,
            "intTxnCount": 0,
            "internalRevert": false,
            "internalRevertMessage": "",
            "isContractCreation": false,
            "isFlashloan": false,
            "maxFee": "",
            "nonce": 179684,
            "overwritedBlockNumber": -1,
            "priorityFee": "",
            "receiver": "0x6bc1f3a1ae56231dbb64d3e82e070857eae86045",
            "revertMessage": "",
            "sender": "0x7158ce25c928a2747fda6ccf50f9496dca4d47ce",
            "simulationEnable": true,
            "sourceTxnHash": "0x1f7588569b25e22de9f65f5cb8942ee2ea6ea791db168a8fd3fa3802c24613ea",
            "status": true,
            "timestamp": "2020-09-02T06:43:09Z",
            "transactionFee": "0.0227232",
            "txnHash": "0x1f7588569b25e22de9f65f5cb8942ee2ea6ea791db168a8fd3fa3802c24613ea",
            "txnIndex": 173,
            "type": 0,
            "value": "0"
        },
        "fund_flow": [
            {
                "amount": "4,495.5",
                "from": "0x7158ce25c928a2747fda6ccf50f9496dca4d47ce",
                "id": 1,
                "isERC1155": false,
                "isERC721": false,
                "isReverted": false,
                "order": 1,
                "to": "0x49890d7e5ecd485f1a9f36bcfd60c6f77d272308",
                "token": "0x6bc1f3a1ae56231dbb64d3e82e070857eae86045"
            }
        ],
        "token_infos": [
            {
                "address": "0xeeeeeeeeeeeeeeeeeeeeeeeeeeeeeeeeeeeeeeee",
                "decimals": 18
            },
            {
                "address": "0x6bc1f3a1ae56231dbb64d3e82e070857eae86045",
                "decimals": 18
            },
            {
                "address": "0xc02aaa39b223fe8d0a0e5c4f27ead9083c756cc2",
                "decimals": 18
            }
        ]
    },
    "address_label": {
        "labels": [
            {
                "address": "0xeeeeeeeeeeeeeeeeeeeeeeeeeeeeeeeeeeeeeeee",
                "label": "Ether"
            },
            {
                "address": "0x6bc1f3a1ae56231dbb64d3e82e070857eae86045",
                "label": "xensor (XSR)"
            },
            {
                "address": "0x0000000000000000000000000000000000000001",
                "label": "Precompiled"
            },
            {
                "address": "0x0000000000000000000000000000000000000002",
                "label": "Precompiled"
            },
            {
                "address": "0x0000000000000000000000000000000000000003",
                "label": "Precompiled"
            },
            {
                "address": "0x0000000000000000000000000000000000000004",
                "label": "Precompiled"
            }
        ]
    },
    "trace": {
        "accountLabels": null,
        "dataMap": {
            "-1": {
                "invocation": {
                    "address": "0x7158ce25c928a2747fda6ccf50f9496dca4d47ce",
                    "callData": "",
                    "decodedMethod": null,
                    "errorInfo": "",
                    "fromAddress": "",
                    "gasUsed": 0,
                    "id": -1,
                    "methodDecoded": false,
                    "operation": "",
                    "output": "",
                    "revert": false,
                    "revertMessage": "",
                    "selector": "",
                    "status": false,
                    "value": ""
                },
                "nodeType": 0
            },
            "0": {
                "invocation": {
                    "address": "0x6bc1f3a1ae56231dbb64d3e82e070857eae86045",
                    "callData": "0x00000000000000000000000049890d7e5ecd485f1a9f36bcfd60c6f77d2723080000000000000000000000000000000000000000000000f3b39857d1f88e0000",
                    "decodedMethod": {
                        "callParams": [
                            {
                                "name": "to",
                                "type": "address",
                                "value": "0x49890d7e5ecd485f1a9f36bcfd60c6f77d272308"
                            },
                            {
                                "decimalAvailable": true,
                                "name": "value",
                                "type": "uint256",
                                "value": "4,495,500,000,000,000,000,000"
                            }
                        ],
                        "constructorArguments": "",
                        "name": "transfer",
                        "returnParams": [
                            {
                                "name": "",
                                "type": "bool",
                                "value": true
                            }
                        ],
                        "signature": "transfer(address,uint256)"
                    },
                    "errorInfo": "",
                    "fromAddress": "0x7158ce25c928a2747fda6ccf50f9496dca4d47ce",
                    "gasUsed": 39450,
                    "id": 0,
                    "methodDecoded": true,
                    "operation": "CALL",
                    "output": "0x0000000000000000000000000000000000000000000000000000000000000001",
                    "revert": false,
                    "revertMessage": "",
                    "selector": "0xa9059cbb",
                    "status": true,
                    "value": "0"
                },
                "nodeType": 0
            },
            "1": {
                "event": {
                    "contract": "0x6bc1f3a1ae56231dbb64d3e82e070857eae86045",
                    "decodedLog": {
                        "name": "Transfer",
                        "params": [
                            {
                                "name": "from",
                                "type": "address",
                                "value": "0x7158ce25c928a2747fda6ccf50f9496dca4d47ce"
                            },
                            {
                                "name": "to",
                                "type": "address",
                                "value": "0x49890d7e5ecd485f1a9f36bcfd60c6f77d272308"
                            },
                            {
                                "decimalAvailable": true,
                                "name": "value",
                                "type": "uint256",
                                "value": "4,495,500,000,000,000,000,000"
                            }
                        ],
                        "signature": "Transfer(address,address,uint256)"
                    },
                    "id": 1,
                    "logData": "0x0000000000000000000000000000000000000000000000f3b39857d1f88e0000",
                    "logDecoded": true,
                    "operation": "EVENT",
                    "revert": false,
                    "status": true,
                    "topics": [
                        "0xddf252ad1be2c89b69c2b068fc378daa952ba7f163c4a11628f55a4df523b3ef",
                        "0x0000000000000000000000007158ce25c928a2747fda6ccf50f9496dca4d47ce",
                        "0x00000000000000000000000049890d7e5ecd485f1a9f36bcfd60c6f77d272308"
                    ]
                },
                "nodeType": 1
            }
        },
        "gasFlame": [
            {
                "children": [
                    {
                        "children": [
                            {
                                "children": [],
                                "depth": 0,
                                "name": "Initial Gas",
                                "value": 21644
                            },
                            {
                                "children": [],
                                "depth": 0,
                                "name": "Executed Gas",
                                "value": 17806
                            }
                        ],
                        "depth": -1,
                        "name": "Actual Gas Used",
                        "value": 39450
                    },
                    {
                        "children": [],
                        "depth": -1,
                        "name": "Refunded Gas",
                        "value": 0
                    }
                ],
                "depth": -2,
                "name": "Total Gas",
                "value": 39450
            }
        ],
        "isConfirmed": true,
        "mainTrace": [
            {
                "children": [
                    {
                        "children": [
                            {
                                "children": [],
                                "depth": 1,
                                "id": 1,
                                "order": 1
                            }
                        ],
                        "depth": 0,
                        "id": 0,
                        "order": 0
                    }
                ],
                "depth": -1,
                "id": -1,
                "order": -1
            }
        ],
        "mainTraceNodeCount": 2,
        "parentIdMap": {
            "0": -1,
            "1": 0
        },
        "tidyTrace": [
            {
                "children": [
                    {
                        "children": [
                            {
                                "children": [],
                                "depth": 1,
                                "id": 1,
                                "order": 1
                            }
                        ],
                        "depth": 0,
                        "id": 0,
                        "order": 0
                    }
                ],
                "depth": -1,
                "id": -1,
                "order": -1
            }
        ],
        "tidyTraceNodeCount": 2
    },
    "state_change": {
        "stateChanges": [
            {
                "address": "0x6bc1f3a1ae56231dbb64d3e82e070857eae86045",
                "erc": "ERC-20",
                "slots": [
                    {
                        "current": "0x0000000000000000000000000000000000000000000348f2f4db6a51bb099b70",
                        "key": "0x8980fe9ea470c107e7e4485d2bcd392a5b0850766fe939f9cfc94c4e422239ec",
                        "prev": "0x0000000000000000000000000000000000000000000349e6a873c223b3979b70"
                    },
                    {
                        "current": "0x0000000000000000000000000000000000000000000061198eb2fda908940000",
                        "key": "0xa5fb9bf4eba3d108c3bb3672c1d14d2bfbff39f8dafc3fdee078075f37704cab",
                        "prev": "0x000000000000000000000000000000000000000000006025db1aa5d710060000"
                    }
                ],
                "storageVariables": [
                    {
                        "name": "_balances",
                        "type": "mapping(address => uint256)",
                        "value": {
                            "pairs": [
                                {
                                    "key": "0x49890d7e5ecd485f1a9f36bcfd60c6f77d272308",
                                    "value": {
                                        "current": "458541000000000000000000",
                                        "prev": "454045500000000000000000",
                                        "typeTag": 1
                                    }
                                },
                                {
                                    "key": "0x7158ce25c928a2747fda6ccf50f9496dca4d47ce",
                                    "value": {
                                        "current": "3971269601489204107910000",
                                        "prev": "3975765101489204107910000",
                                        "typeTag": 1
                                    }
                                }
                            ],
                            "typeTag": 4
                        }
                    }
                ]
            }
        ]
    }
}