{
    "balance_change": {
        "balanceChanges": [
            {
                "account": "0xa1d8d972560c2f8144af871db508f0b0b10a3fbf",
                "assets": [
                    {
                        "address": "0xbb0e17ef65f82ab018d8edd776e8dd940327b28b",
                        "amount": "93.13302629",
                        "iconUrl": "",
                        "isERC1155": false,
                        "isERC721": false,
                        "sign": false,
                        "value": "9545.944904"
                    }
                ]
            },
            {
                "account": "0x99085578cb78830f0a1abd85251b3637b9dabec5",
                "assets": [
                    {
                        "address": "0xbb0e17ef65f82ab018d8edd776e8dd940327b28b",
                        "amount": "93.13302629",
                        "iconUrl": "",
                        "isERC1155": false,
                        "isERC721": false,
                        "sign": true,
                        "value": "9545.944904"
                    }
                ]
            }
        ]
    },
    "profile": {
        "basic_info": {
            "baseFee": "68.848274999",
            "blockNumber": 13793759,
            "callData": "0xa9059cbb00000000000000000000000099085578cb78830f0a1abd85251b3637b9dabec50000000000000000000000000000000000000000000000050c7af9f88890f400",
            "debugEnable": true,
            "errorInfo": "",
            "eventCount": 1,
            "feeRecipient": "0xea674fdde714fd979de3edf0f56aa9716b898ec8",
            "formatValue": "0",
            "gasLimit": 127117,
            "gasPrice": "101.731253305",
            "gasUsed": 51629,
            "intTxnCount": 0,
            "internalRevert": false,
            "internalRevertMessage": "",
            "isContractCreation": false,
            "isFlashloan": false,
            "maxFee": "",
            "nonce": 1953803,
            "overwritedBlockNumber": -1,
            "priorityFee": "",
            "receiver": "0xbb0e17ef65f82ab018d8edd776e8dd940327b28b",
            "revertMessage": "",
            "sender": "0xa1d8d972560c2f8144af871db508f0b0b10a3fbf",
            "simulationEnable": true,
            "sourceTxnHash": "0x1f3d4b604fee66de1b2f42041b79785bd2576af9939a597e85e7174de1a0a151",
            "status": true,
            "timestamp": "2021-12-13T00:56:25Z",
            "transactionFee": "0.005252282876883845",
            "txnHash": "0x1f3d4b604fee66de1b2f42041b79785bd2576af9939a597e85e7174de1a0a151",
            "txnIndex": 12,
            "type": 0,
            "value": "0"
        },
        "fund_flow": [
            {
                "amount": "93.13302629",
                "from": "0xa1d8d972560c2f8144af871db508f0b0b10a3fbf",
                "id": 1,
                "isERC1155": false,
                "isERC721": false,
                "isReverted": false,
                "order": 1,
                "to": "0x99085578cb78830f0a1abd85251b3637b9dabec5",
                "token": "0xbb0e17ef65f82ab018d8edd776e8dd940327b28b"
            }
        ],
        "token_infos": [
            {
                "address": "0xbb0e17ef65f82ab018d8edd776e8dd940327b28b",
                "decimals": 18
            },
            {
                "address": "0xc02aaa39b223fe8d0a0e5c4f27ead9083c756cc2",
                "decimals": 18
            },
            {
                "address": "0xeeeeeeeeeeeeeeeeeeeeeeeeeeeeeeeeeeeeeeee",
                "decimals": 18
            }
        ]
    },
    "address_label": {
        "labels": [
            {
                "address": "0x0000000000000000000000000000000000000001",
                "label": "Precompiled"
            },
            {
                "address": "0x0000000000000000000000000000000000000002",
                "label": "Precompiled"
            },
            {
                "address": "0x0000000000000000000000000000000000000003",
                "label": "Precompiled"
            },
            {
                "address": "0x0000000000000000000000000000000000000004",
                "label": "Precompiled"
            },
            {
                "address": "0xeeeeeeeeeeeeeeeeeeeeeeeeeeeeeeeeeeeeeeee",
                "label": "Ether"
            },
            {
                "address": "0xa1d8d972560c2f8144af871db508f0b0b10a3fbf",
                "label": "KuCoin 3"
            },
            {
                "address": "0xbb0e17ef65f82ab018d8edd776e8dd940327b28b",
                "label": "Axie Infinity: AXS Token"
            }
        ]
    },
    "trace": {
        "accountLabels": null,
        "dataMap": {
            "-1": {
                "invocation": {
                    "address": "0xa1d8d972560c2f8144af871db508f0b0b10a3fbf",
                    "callData": "",
                    "decodedMethod": null,
                    "errorInfo": "",
                    "fromAddress": "",
                    "gasUsed": 0,
                    "id": -1,
                    "methodDecoded": false,
                    "operation": "",
                    "output": "",
                    "revert": false,
                    "revertMessage": "",
                    "selector": "",
                    "status": false,
                    "value": ""
                },
                "nodeType": 0
            },
            "0": {
                "invocation": {
                    "address": "0xbb0e17ef65f82ab018d8edd776e8dd940327b28b",
                    "callData": "0x00000000000000000000000099085578cb78830f0a1abd85251b3637b9dabec50000000000000000000000000000000000000000000000050c7af9f88890f400",
                    "decodedMethod": {
                        "callParams": [
                            {
                                "name": "_to",
                                "type": "address",
                                "value": "0x99085578cb78830f0a1abd85251b3637b9dabec5"
                            },
                            {
                                "decimalAvailable": true,
                                "name": "_value",
                                "type": "uint256",
                                "value": "93,133,026,290,000,000,000"
                            }
                        ],
                        "constructorArguments": "",
                        "name": "transfer",
                        "returnParams": [
                            {
                                "name": "_success",
                                "type": "bool",
                                "value": true
                            }
                        ],
                        "signature": "transfer(address,uint256)"
                    },
                    "errorInfo": "",
                    "fromAddress": "0xa1d8d972560c2f8144af871db508f0b0b10a3fbf",
                    "gasUsed": 51629,
                    "id": 0,
                    "methodDecoded": true,
                    "operation": "CALL",
                    "output": "0x0000000000000000000000000000000000000000000000000000000000000001",
                    "revert": false,
                    "revertMessage": "",
                    "selector": "0xa9059cbb",
                    "status": true,
                    "value": "0"
                },
                "nodeType": 0
            },
            "1": {
                "event": {
                    "contract": "0xbb0e17ef65f82ab018d8edd776e8dd940327b28b",
                    "decodedLog": {
                        "name": "Transfer",
                        "params": [
                            {
                                "name": "_from",
                                "type": "address",
                                "value": "0xa1d8d972560c2f8144af871db508f0b0b10a3fbf"
                            },
                            {
                                "name": "_to",
                                "type": "address",
                                "value": "0x99085578cb78830f0a1abd85251b3637b9dabec5"
                            },
                            {
                                "decimalAvailable": true,
                                "name": "_value",
                                "type": "uint256",
                                "value": "93,133,026,290,000,000,000"
                            }
                        ],
                        "signature": "Transfer(address,address,uint256)"
                    },
                    "id": 1,
                    "logData": "0x0000000000000000000000000000000000000000000000050c7af9f88890f400",
                    "logDecoded": true,
                    "operation": "EVENT",
                    "revert": false,
                    "status": true,
                    "topics": [
                        "0xddf252ad1be2c89b69c2b068fc378daa952ba7f163c4a11628f55a4df523b3ef",
                        "0x000000000000000000000000a1d8d972560c2f8144af871db508f0b0b10a3fbf",
                        "0x00000000000000000000000099085578cb78830f0a1abd85251b3637b9dabec5"
                    ]
                },
                "nodeType": 1
            }
        },
        "gasFlame": [
            {
                "children": [
                    {
                        "children": [
                            {
                                "children": [],
                                "depth": 0,
                                "name": "Initial Gas",
                                "value": 21656
                            },
                            {
                                "children": [],
                                "depth": 0,
                                "name": "Executed Gas",
                                "value": 29973
                            }
                        ],
                        "depth": -1,
                        "name": "Actual Gas Used",
                        "value": 51629
                    },
                    {
                        "children": [],
                        "depth": -1,
                        "name": "Refunded Gas",
                        "value": 0
                    }
                ],
                "depth": -2,
                "name": "Total Gas",
                "value": 51629
            }
        ],
        "isConfirmed": true,
        "mainTrace": [
            {
                "children": [
                    {
                        "children": [
                            {
                                "children": [],
                                "depth": 1,
                                "id": 1,
                                "order": 1
                            }
                        ],
                        "depth": 0,
                        "id": 0,
                        "order": 0
                    }
                ],
                "depth": -1,
                "id": -1,
                "order": -1
            }
        ],
        "mainTraceNodeCount": 2,
        "parentIdMap": {
            "0": -1,
            "1": 0
        },
        "tidyTrace": [
            {
                "children": [
                    {
                        "children": [
                            {
                                "children": [],
                                "depth": 1,
                                "id": 1,
                                "order": 1
                            }
                        ],
                        "depth": 0,
                        "id": 0,
                        "order": 0
                    }
                ],
                "depth": -1,
                "id": -1,
                "order": -1
            }
        ],
        "tidyTraceNodeCount": 2
    },
    "state_change": {
        "stateChanges": [
            {
                "address": "0xbb0e17ef65f82ab018d8edd776e8dd940327b28b",
                "erc": "ERC-20",
                "slots": [
                    {
                        "current": "0x0000000000000000000000000000000000000000000000050c7af9f88890f400",
                        "key": "0xfcfb610d860519683c292cb468e1614499d6926318abf80bc9af910e679ca2e1",
                        "prev": "0x0000000000000000000000000000000000000000000000000000000000000000"
                    },
                    {
                        "current": "0x0000000000000000000000000000000000000000000001c9613afc3ce7730c88",
                        "key": "0xad09cfea9af29dc0f8b5c30f1b51ef8bab156b735629c3220c4f2f8ed93aeee8",
                        "prev": "0x0000000000000000000000000000000000000000000001ce6db5f63570040088"
                    }
                ],
                "storageVariables": [
                    {
                        "name": "balanceOf",
                        "type": "mapping(address => uint256)",
                        "value": {
                            "pairs": [
                                {
                                    "key": "0x99085578cb78830f0a1abd85251b3637b9dabec5",
                                    "value": {
                                        "current": "93133026290000000000",
                                        "prev": "0",
                                        "typeTag": 1
                                    }
                                },
                                {
                                    "key": "0xa1d8d972560c2f8144af871db508f0b0b10a3fbf",
                                    "value": {
                                        "current": "8437168231194104630408",
                                        "prev": "8530301257484104630408",
                                        "typeTag": 1
                                    }
                                }
                            ],
                            "typeTag": 4
                        }
                    }
                ]
            }
        ]
    }
}