{
    "balance_change": {
        "balanceChanges": [
            {
                "account": "0x41a7e990fa393cbf1bbc5d5feed01a8a261fb00f",
                "assets": [
                    {
                        "address": "0xeeeeeeeeeeeeeeeeeeeeeeeeeeeeeeeeeeeeeeee",
                        "amount": "0.5",
                        "iconUrl": "https://assets.blocksec.com/image/1663669189317-3.png",
                        "isERC1155": false,
                        "isERC721": false,
                        "sign": false,
                        "value": "1080.063521"
                    },
                    {
                        "address": "0xbfd815347d024f449886c171f78fa5b8e6790811",
                        "amount": "49.397638659428807197",
                        "iconUrl": "",
                        "isERC1155": false,
                        "isERC721": false,
                        "sign": true,
                        "value": "1060.711095"
                    }
                ]
            },
            {
                "account": "0x11ededebf63bef0ea2d2d071bdf88f71543ec6fb",
                "assets": [
                    {
                        "address": "0xeeeeeeeeeeeeeeeeeeeeeeeeeeeeeeeeeeeeeeee",
                        "amount": "0.004375",
                        "iconUrl": "https://assets.blocksec.com/image/1663669189317-3.png",
                        "isERC1155": false,
                        "isERC721": false,
                        "sign": true,
                        "value": "9.45055581"
                    }
                ]
            },
            {
                "account": "0xc02aaa39b223fe8d0a0e5c4f27ead9083c756cc2",
                "assets": [
                    {
                        "address": "0xeeeeeeeeeeeeeeeeeeeeeeeeeeeeeeeeeeeeeeee",
                        "amount": "0.495625",
                        "iconUrl": "https://assets.blocksec.com/image/1663669189317-3.png",
                        "isERC1155": false,
                        "isERC721": false,
                        "sign": true,
                        "value": "1070.612966"
                    },
                    {
                        "address": "0xc02aaa39b223fe8d0a0e5c4f27ead9083c756cc2",
                        "amount": "0.495625",
                        "iconUrl": "https://assets.blocksec.com/icon/f1cb2d02c471d545bbc7722daf3277fd852d98e63d118771af7047bd8256c516.png",
                        "isERC1155": false,
                        "isERC721": false,
                        "sign": false,
                        "value": "1070.612966"
                    }
                ]
            },
            {
                "account": "0xc8e78ad2573f5e16a286443aea2a6f1ba0c06b96",
                "assets": [
                    {
                        "address": "0xbfd815347d024f449886c171f78fa5b8e6790811",
                        "amount": "49.397638659428807197",
                        "iconUrl": "",
                        "isERC1155": false,
                        "isERC721": false,
                        "sign": false,
                        "value": "1060.711095"
                    },
                    {
                        "address": "0xc02aaa39b223fe8d0a0e5c4f27ead9083c756cc2",
                        "amount": "0.495625",
                        "iconUrl": "https://assets.blocksec.com/icon/f1cb2d02c471d545bbc7722daf3277fd852d98e63d118771af7047bd8256c516.png",
                        "isERC1155": false,
                        "isERC721": false,
                        "sign": true,
                        "value": "1070.612966"
                    }
                ]
            }
        ]
    },
    "profile": {
        "basic_info": {
            "baseFee": "",
            "blockNumber": 12211882,
            "callData": "0x5f5755290000000000000000000000000000000000000000000000000000000000000080000000000000000000000000000000000000000000000000000000000000000000000000000000000000000000000000000000000000000006f05b59d3b2000000000000000000000000000000000000000000000000000000000000000000c000000000000000000000000000000000000000000000000000000000000000096f6e65496e63685633000000000000000000000000000000000000000000000000000000000000000000000000000000000000000000000000000000000001e00000000000000000000000000000000000000000000000000000000000000000000000000000000000000000bfd815347d024f449886c171f78fa5b8e679081100000000000000000000000000000000000000000000000006e0d04fc2cd900000000000000000000000000000000000000000000000000298f6cbebef34dcc50000000000000000000000000000000000000000000000000000000000000100000000000000000000000000000000000000000000000000000f8b0a10e4700000000000000000000000000011ededebf63bef0ea2d2d071bdf88f71543ec6fb00000000000000000000000000000000000000000000000000000000000000c42e95b6c8000000000000000000000000000000000000000000000000000000000000000000000000000000000000000000000000000000000000000006e0d04fc2cd900000000000000000000000000000000000000000000000000298f6cbebef34dcc50000000000000000000000000000000000000000000000000000000000000080000000000000000000000000000000000000000000000000000000000000000180000000000000003b6d0340c8e78ad2573f5e16a286443aea2a6f1ba0c06b960000000000000000000000000000000000000000000000000000000006",
            "debugEnable": true,
            "errorInfo": "",
            "eventCount": 7,
            "feeRecipient": "0x3ecef08d0e2dad803847e052249bb4f8bff2d5bb",
            "formatValue": "0.5",
            "gasLimit": 225964,
            "gasPrice": "95",
            "gasUsed": 156375,
            "intTxnCount": 13,
            "internalRevert": false,
            "internalRevertMessage": "",
            "isContractCreation": false,
            "isFlashloan": false,
            "maxFee": "",
            "nonce": 49,
            "overwritedBlockNumber": -1,
            "priorityFee": "",
            "receiver": "0x881d40237659c251811cec9c364ef91dc08d300c",
            "revertMessage": "",
            "sender": "0x41a7e990fa393cbf1bbc5d5feed01a8a261fb00f",
            "simulationEnable": true,
            "sourceTxnHash": "0x1f688d7a064ad78623362d2ef1897040eb7f33b3de9da0e85474ed37fb6f07ef",
            "status": true,
            "timestamp": "2021-04-10T11:32:10Z",
            "transactionFee": "0.014855625",
            "txnHash": "0x1f688d7a064ad78623362d2ef1897040eb7f33b3de9da0e85474ed37fb6f07ef",
            "txnIndex": 180,
            "type": 0,
            "value": "500000000000000000"
        },
        "fund_flow": [
            {
                "amount": "0.5",
                "from": "0x41a7e990fa393cbf1bbc5d5feed01a8a261fb00f",
                "id": 1,
                "isERC1155": false,
                "isERC721": false,
                "isReverted": false,
                "order": 1,
                "to": "0x881d40237659c251811cec9c364ef91dc08d300c",
                "token": "0xeeeeeeeeeeeeeeeeeeeeeeeeeeeeeeeeeeeeeeee"
            },
            {
                "amount": "0.5",
                "from": "0x881d40237659c251811cec9c364ef91dc08d300c",
                "id": 2,
                "isERC1155": false,
                "isERC721": false,
                "isReverted": false,
                "order": 2,
                "to": "0x74de5d4fcbf63e00296fd95d33236b9794016631",
                "token": "0xeeeeeeeeeeeeeeeeeeeeeeeeeeeeeeeeeeeeeeee"
            },
            {
                "amount": "0.004375",
                "from": "0x74de5d4fcbf63e00296fd95d33236b9794016631",
                "id": 3,
                "isERC1155": false,
                "isERC721": false,
                "isReverted": false,
                "order": 3,
                "to": "0x11ededebf63bef0ea2d2d071bdf88f71543ec6fb",
                "token": "0xeeeeeeeeeeeeeeeeeeeeeeeeeeeeeeeeeeeeeeee"
            },
            {
                "amount": "0.495625",
                "from": "0x74de5d4fcbf63e00296fd95d33236b9794016631",
                "id": 4,
                "isERC1155": false,
                "isERC721": false,
                "isReverted": false,
                "order": 4,
                "to": "0x11111112542d85b3ef69ae05771c2dccff4faa26",
                "token": "0xeeeeeeeeeeeeeeeeeeeeeeeeeeeeeeeeeeeeeeee"
            },
            {
                "amount": "0.495625",
                "from": "0x11111112542d85b3ef69ae05771c2dccff4faa26",
                "id": 5,
                "isERC1155": false,
                "isERC721": false,
                "isReverted": false,
                "order": 5,
                "to": "0xc02aaa39b223fe8d0a0e5c4f27ead9083c756cc2",
                "token": "0xeeeeeeeeeeeeeeeeeeeeeeeeeeeeeeeeeeeeeeee"
            },
            {
                "amount": "0.495625",
                "from": "0xc02aaa39b223fe8d0a0e5c4f27ead9083c756cc2",
                "id": 6,
                "isERC1155": false,
                "isERC721": false,
                "isReverted": false,
                "order": 6,
                "to": "0x11111112542d85b3ef69ae05771c2dccff4faa26",
                "token": "0xc02aaa39b223fe8d0a0e5c4f27ead9083c756cc2"
            },
            {
                "amount": "0.495625",
                "from": "0x11111112542d85b3ef69ae05771c2dccff4faa26",
                "id": 7,
                "isERC1155": false,
                "isERC721": false,
                "isReverted": false,
                "order": 7,
                "to": "0xc8e78ad2573f5e16a286443aea2a6f1ba0c06b96",
                "token": "0xc02aaa39b223fe8d0a0e5c4f27ead9083c756cc2"
            },
            {
                "amount": "49.397638659428807197",
                "from": "0xc8e78ad2573f5e16a286443aea2a6f1ba0c06b96",
                "id": 8,
                "isERC1155": false,
                "isERC721": false,
                "isReverted": false,
                "order": 8,
                "to": "0x74de5d4fcbf63e00296fd95d33236b9794016631",
                "token": "0xbfd815347d024f449886c171f78fa5b8e6790811"
            },
            {
                "amount": "49.397638659428807197",
                "from": "0x74de5d4fcbf63e00296fd95d33236b9794016631",
                "id": 9,
                "isERC1155": false,
                "isERC721": false,
                "isReverted": false,
                "order": 9,
                "to": "0x41a7e990fa393cbf1bbc5d5feed01a8a261fb00f",
                "token": "0xbfd815347d024f449886c171f78fa5b8e6790811"
            }
        ],
        "token_infos": [
            {
                "address": "0xbfd815347d024f449886c171f78fa5b8e6790811",
                "decimals": 18
            },
            {
                "address": "0xc02aaa39b223fe8d0a0e5c4f27ead9083c756cc2",
                "decimals": 18
            },
            {
                "address": "0xeeeeeeeeeeeeeeeeeeeeeeeeeeeeeeeeeeeeeeee",
                "decimals": 18
            }
        ]
    },
    "address_label": {
        "labels": [
            {
                "address": "0x0000000000000000000000000000000000000000",
                "label": "Null Address"
            },
            {
                "address": "0xc8e78ad2573f5e16a286443aea2a6f1ba0c06b96",
                "label": "Uniswap V2: AAPX 2"
            },
            {
                "address": "0x0000000000000000000000000000000000000003",
                "label": "Precompiled"
            },
            {
                "address": "0x0000000000000000000000000000000000000004",
                "label": "Precompiled"
            },
            {
                "address": "0x11111112542d85b3ef69ae05771c2dccff4faa26",
                "label": "1inch v3: Aggregation Router"
            },
            {
                "address": "0x11ededebf63bef0ea2d2d071bdf88f71543ec6fb",
                "label": "Metamask: Fees"
            },
            {
                "address": "0xc02aaa39b223fe8d0a0e5c4f27ead9083c756cc2",
                "label": "Wrapped Ether (WETH)"
            },
            {
                "address": "0xbfd815347d024f449886c171f78fa5b8e6790811",
                "label": "AMPnet APX Token: AAPX Token"
            },
            {
                "address": "0x74de5d4fcbf63e00296fd95d33236b9794016631",
                "label": "MetaMask: Swaps Spender"
            },
            {
                "address": "0xeeeeeeeeeeeeeeeeeeeeeeeeeeeeeeeeeeeeeeee",
                "label": "Ether"
            },
            {
                "address": "0x881d40237659c251811cec9c364ef91dc08d300c",
                "label": "Metamask: Swap Router"
            },
            {
                "address": "0x0000000000000000000000000000000000000001",
                "label": "Precompiled"
            },
            {
                "address": "0x0000000000000000000000000000000000000002",
                "label": "Precompiled"
            }
        ]
    },
    "trace": {
        "accountLabels": null,
        "dataMap": {
            "-1": {
                "invocation": {
                    "address": "0x41a7e990fa393cbf1bbc5d5feed01a8a261fb00f",
                    "callData": "",
                    "decodedMethod": null,
                    "errorInfo": "",
                    "fromAddress": "",
                    "gasUsed": 0,
                    "id": -1,
                    "methodDecoded": false,
                    "operation": "",
                    "output": "",
                    "revert": false,
                    "revertMessage": "",
                    "selector": "",
                    "status": false,
                    "value": ""
                },
                "nodeType": 0
            },
            "0": {
                "invocation": {
                    "address": "0x881d40237659c251811cec9c364ef91dc08d300c",
                    "callData": "0x0000000000000000000000000000000000000000000000000000000000000080000000000000000000000000000000000000000000000000000000000000000000000000000000000000000000000000000000000000000006f05b59d3b2000000000000000000000000000000000000000000000000000000000000000000c000000000000000000000000000000000000000000000000000000000000000096f6e65496e63685633000000000000000000000000000000000000000000000000000000000000000000000000000000000000000000000000000000000001e00000000000000000000000000000000000000000000000000000000000000000000000000000000000000000bfd815347d024f449886c171f78fa5b8e679081100000000000000000000000000000000000000000000000006e0d04fc2cd900000000000000000000000000000000000000000000000000298f6cbebef34dcc50000000000000000000000000000000000000000000000000000000000000100000000000000000000000000000000000000000000000000000f8b0a10e4700000000000000000000000000011ededebf63bef0ea2d2d071bdf88f71543ec6fb00000000000000000000000000000000000000000000000000000000000000c42e95b6c8000000000000000000000000000000000000000000000000000000000000000000000000000000000000000000000000000000000000000006e0d04fc2cd900000000000000000000000000000000000000000000000000298f6cbebef34dcc50000000000000000000000000000000000000000000000000000000000000080000000000000000000000000000000000000000000000000000000000000000180000000000000003b6d0340c8e78ad2573f5e16a286443aea2a6f1ba0c06b960000000000000000000000000000000000000000000000000000000006",
                    "decodedMethod": {
                        "callParams": [
                            {
                                "name": "aggregatorId",
                                "type": "string",
                                "value": "oneInchV3"
                            },
                            {
                                "name": "tokenFrom",
                                "type": "address",
                                "value": "0x0000000000000000000000000000000000000000"
                            },
                            {
                                "name": "amount",
                                "type": "uint256",
                                "value": "500,000,000,000,000,000"
                            },
                            {
                                "name": "data",
                                "type": "bytes",
                                "value": "0x0000000000000000000000000000000000000000000000000000000000000000000000000000000000000000bfd815347d024f449886c171f78fa5b8e679081100000000000000000000000000000000000000000000000006e0d04fc2cd900000000000000000000000000000000000000000000000000298f6cbebef34dcc50000000000000000000000000000000000000000000000000000000000000100000000000000000000000000000000000000000000000000000f8b0a10e4700000000000000000000000000011ededebf63bef0ea2d2d071bdf88f71543ec6fb00000000000000000000000000000000000000000000000000000000000000c42e95b6c8000000000000000000000000000000000000000000000000000000000000000000000000000000000000000000000000000000000000000006e0d04fc2cd900000000000000000000000000000000000000000000000000298f6cbebef34dcc50000000000000000000000000000000000000000000000000000000000000080000000000000000000000000000000000000000000000000000000000000000180000000000000003b6d0340c8e78ad2573f5e16a286443aea2a6f1ba0c06b9600000000000000000000000000000000000000000000000000000000"
                            }
                        ],
                        "constructorArguments": "",
                        "name": "swap",
                        "returnParams": [],
                        "signature": "swap(string,address,uint256,bytes)"
                    },
                    "errorInfo": "",
                    "fromAddress": "0x41a7e990fa393cbf1bbc5d5feed01a8a261fb00f",
                    "gasUsed": 156375,
                    "id": 0,
                    "methodDecoded": true,
                    "operation": "CALL",
                    "output": "",
                    "revert": false,
                    "revertMessage": "",
                    "selector": "0x5f575529",
                    "status": true,
                    "value": "0.5"
                },
                "nodeType": 0
            },
            "1": {
                "invocation": {
                    "address": "0x74de5d4fcbf63e00296fd95d33236b9794016631",
                    "callData": "0x000000000000000000000000d2742961d645218fbe0b50227c9b074d4fec493700000000000000000000000000000000000000000000000000000000000000400000000000000000000000000000000000000000000000000000000000000204242fb09f00000000000000000000000041a7e990fa393cbf1bbc5d5feed01a8a261fb00f0000000000000000000000000000000000000000000000000000000000000000000000000000000000000000bfd815347d024f449886c171f78fa5b8e679081100000000000000000000000000000000000000000000000006e0d04fc2cd900000000000000000000000000000000000000000000000000298f6cbebef34dcc50000000000000000000000000000000000000000000000000000000000000100000000000000000000000000000000000000000000000000000f8b0a10e4700000000000000000000000000011ededebf63bef0ea2d2d071bdf88f71543ec6fb00000000000000000000000000000000000000000000000000000000000000c42e95b6c8000000000000000000000000000000000000000000000000000000000000000000000000000000000000000000000000000000000000000006e0d04fc2cd900000000000000000000000000000000000000000000000000298f6cbebef34dcc50000000000000000000000000000000000000000000000000000000000000080000000000000000000000000000000000000000000000000000000000000000180000000000000003b6d0340c8e78ad2573f5e16a286443aea2a6f1ba0c06b960000000000000000000000000000000000000000000000000000000000000000000000000000000000000000000000000000000000000000",
                    "decodedMethod": {
                        "callParams": [
                            {
                                "name": "adapter",
                                "type": "address",
                                "value": "0xd2742961d645218fbe0b50227c9b074d4fec4937"
                            },
                            {
                                "name": "data",
                                "type": "bytes",
                                "value": "0x242fb09f00000000000000000000000041a7e990fa393cbf1bbc5d5feed01a8a261fb00f0000000000000000000000000000000000000000000000000000000000000000000000000000000000000000bfd815347d024f449886c171f78fa5b8e679081100000000000000000000000000000000000000000000000006e0d04fc2cd900000000000000000000000000000000000000000000000000298f6cbebef34dcc50000000000000000000000000000000000000000000000000000000000000100000000000000000000000000000000000000000000000000000f8b0a10e4700000000000000000000000000011ededebf63bef0ea2d2d071bdf88f71543ec6fb00000000000000000000000000000000000000000000000000000000000000c42e95b6c8000000000000000000000000000000000000000000000000000000000000000000000000000000000000000000000000000000000000000006e0d04fc2cd900000000000000000000000000000000000000000000000000298f6cbebef34dcc50000000000000000000000000000000000000000000000000000000000000080000000000000000000000000000000000000000000000000000000000000000180000000000000003b6d0340c8e78ad2573f5e16a286443aea2a6f1ba0c06b9600000000000000000000000000000000000000000000000000000000"
                            }
                        ],
                        "constructorArguments": "",
                        "name": "swap",
                        "returnParams": [],
                        "signature": "swap(address,bytes)"
                    },
                    "errorInfo": "",
                    "fromAddress": "0x881d40237659c251811cec9c364ef91dc08d300c",
                    "gasUsed": 155701,
                    "id": 1,
                    "methodDecoded": true,
                    "operation": "CALL",
                    "output": "",
                    "revert": false,
                    "revertMessage": "",
                    "selector": "0xe3547335",
                    "status": true,
                    "value": "0.5"
                },
                "nodeType": 0
            },
            "10": {
                "invocation": {
                    "address": "0xc8e78ad2573f5e16a286443aea2a6f1ba0c06b96",
                    "callData": "0x000000000000000000000000000000000000000000000002ad87aaa40e5b721d000000000000000000000000000000000000000000000000000000000000000000000000000000000000000074de5d4fcbf63e00296fd95d33236b979401663100000000000000000000000000000000000000000000000000000000000000800000000000000000000000000000000000000000000000000000000000000000",
                    "decodedMethod": {
                        "callParams": [
                            {
                                "name": "amount0Out",
                                "type": "uint256",
                                "value": "49,397,638,659,428,807,197"
                            },
                            {
                                "name": "amount1Out",
                                "type": "uint256",
                                "value": "0"
                            },
                            {
                                "name": "to",
                                "type": "address",
                                "value": "0x74de5d4fcbf63e00296fd95d33236b9794016631"
                            },
                            {
                                "name": "data",
                                "type": "bytes",
                                "value": "0x"
                            }
                        ],
                        "constructorArguments": "",
                        "name": "swap",
                        "returnParams": [],
                        "signature": "swap(uint256,uint256,address,bytes)"
                    },
                    "errorInfo": "",
                    "fromAddress": "0x11111112542d85b3ef69ae05771c2dccff4faa26",
                    "gasUsed": 72105,
                    "id": 10,
                    "methodDecoded": true,
                    "operation": "CALL",
                    "output": "",
                    "revert": false,
                    "revertMessage": "",
                    "selector": "0x022c0d9f",
                    "status": true,
                    "value": "0"
                },
                "nodeType": 0
            },
            "11": {
                "invocation": {
                    "address": "0xbfd815347d024f449886c171f78fa5b8e6790811",
                    "callData": "0x00000000000000000000000074de5d4fcbf63e00296fd95d33236b9794016631000000000000000000000000000000000000000000000002ad87aaa40e5b721d",
                    "decodedMethod": {
                        "callParams": [
                            {
                                "name": "to",
                                "type": "address",
                                "value": "0x74de5d4fcbf63e00296fd95d33236b9794016631"
                            },
                            {
                                "decimalAvailable": true,
                                "name": "value",
                                "type": "uint256",
                                "value": "49,397,638,659,428,807,197"
                            }
                        ],
                        "constructorArguments": "",
                        "name": "transfer",
                        "returnParams": [
                            {
                                "name": "",
                                "type": "bool",
                                "value": true
                            }
                        ],
                        "signature": "transfer(address,uint256)"
                    },
                    "errorInfo": "",
                    "fromAddress": "0xc8e78ad2573f5e16a286443aea2a6f1ba0c06b96",
                    "gasUsed": 30557,
                    "id": 11,
                    "methodDecoded": true,
                    "operation": "CALL",
                    "output": "0x0000000000000000000000000000000000000000000000000000000000000001",
                    "revert": false,
                    "revertMessage": "",
                    "selector": "0xa9059cbb",
                    "status": true,
                    "value": "0"
                },
                "nodeType": 0
            },
            "12": {
                "event": {
                    "contract": "0xbfd815347d024f449886c171f78fa5b8e6790811",
                    "decodedLog": {
                        "name": "Transfer",
                        "params": [
                            {
                                "name": "from",
                                "type": "address",
                                "value": "0xc8e78ad2573f5e16a286443aea2a6f1ba0c06b96"
                            },
                            {
                                "name": "to",
                                "type": "address",
                                "value": "0x74de5d4fcbf63e00296fd95d33236b9794016631"
                            },
                            {
                                "decimalAvailable": true,
                                "name": "value",
                                "type": "uint256",
                                "value": "49,397,638,659,428,807,197"
                            }
                        ],
                        "signature": "Transfer(address,address,uint256)"
                    },
                    "id": 12,
                    "logData": "0x000000000000000000000000000000000000000000000002ad87aaa40e5b721d",
                    "logDecoded": true,
                    "operation": "EVENT",
                    "revert": false,
                    "status": true,
                    "topics": [
                        "0xddf252ad1be2c89b69c2b068fc378daa952ba7f163c4a11628f55a4df523b3ef",
                        "0x000000000000000000000000c8e78ad2573f5e16a286443aea2a6f1ba0c06b96",
                        "0x00000000000000000000000074de5d4fcbf63e00296fd95d33236b9794016631"
                    ]
                },
                "nodeType": 1
            },
            "13": {
                "invocation": {
                    "address": "0xbfd815347d024f449886c171f78fa5b8e6790811",
                    "callData": "0x000000000000000000000000c8e78ad2573f5e16a286443aea2a6f1ba0c06b96",
                    "decodedMethod": {
                        "callParams": [
                            {
                                "name": "owner",
                                "type": "address",
                                "value": "0xc8e78ad2573f5e16a286443aea2a6f1ba0c06b96"
                            }
                        ],
                        "constructorArguments": "",
                        "name": "balanceOf",
                        "returnParams": [
                            {
                                "decimalAvailable": true,
                                "name": "",
                                "type": "uint256",
                                "value": "30,000,345,363,808,437,639,511"
                            }
                        ],
                        "signature": "balanceOf(address)"
                    },
                    "errorInfo": "",
                    "fromAddress": "0xc8e78ad2573f5e16a286443aea2a6f1ba0c06b96",
                    "gasUsed": 1291,
                    "id": 13,
                    "methodDecoded": true,
                    "operation": "STATICCALL",
                    "output": "0x00000000000000000000000000000000000000000000065a526d57bde6f39957",
                    "revert": false,
                    "revertMessage": "",
                    "selector": "0x70a08231",
                    "status": true,
                    "value": "0"
                },
                "nodeType": 0
            },
            "14": {
                "invocation": {
                    "address": "0xc02aaa39b223fe8d0a0e5c4f27ead9083c756cc2",
                    "callData": "0x000000000000000000000000c8e78ad2573f5e16a286443aea2a6f1ba0c06b96",
                    "decodedMethod": {
                        "callParams": [
                            {
                                "name": "",
                                "type": "address",
                                "value": "0xc8e78ad2573f5e16a286443aea2a6f1ba0c06b96"
                            }
                        ],
                        "constructorArguments": "",
                        "name": "balanceOf",
                        "returnParams": [
                            {
                                "decimalAvailable": true,
                                "name": "",
                                "type": "uint256",
                                "value": "300,597,306,168,015,575,641"
                            }
                        ],
                        "signature": "balanceOf(address)"
                    },
                    "errorInfo": "",
                    "fromAddress": "0xc8e78ad2573f5e16a286443aea2a6f1ba0c06b96",
                    "gasUsed": 1234,
                    "id": 14,
                    "methodDecoded": true,
                    "operation": "STATICCALL",
                    "output": "0x0000000000000000000000000000000000000000000000104ba02953b7e7da59",
                    "revert": false,
                    "revertMessage": "",
                    "selector": "0x70a08231",
                    "status": true,
                    "value": "0"
                },
                "nodeType": 0
            },
            "15": {
                "event": {
                    "contract": "0xc8e78ad2573f5e16a286443aea2a6f1ba0c06b96",
                    "decodedLog": {
                        "name": "Sync",
                        "params": [
                            {
                                "name": "reserve0",
                                "type": "uint112",
                                "value": "30,000,345,363,808,437,639,511"
                            },
                            {
                                "name": "reserve1",
                                "type": "uint112",
                                "value": "300,597,306,168,015,575,641"
                            }
                        ],
                        "signature": "Sync(uint112,uint112)"
                    },
                    "id": 15,
                    "logData": "0x00000000000000000000000000000000000000000000065a526d57bde6f399570000000000000000000000000000000000000000000000104ba02953b7e7da59",
                    "logDecoded": true,
                    "operation": "EVENT",
                    "revert": false,
                    "status": true,
                    "topics": [
                        "0x1c411e9a96e071241c2f21f7726b17ae89e3cab4c78be50e062b03a9fffbbad1"
                    ]
                },
                "nodeType": 1
            },
            "16": {
                "event": {
                    "contract": "0xc8e78ad2573f5e16a286443aea2a6f1ba0c06b96",
                    "decodedLog": {
                        "name": "Swap",
                        "params": [
                            {
                                "name": "sender",
                                "type": "address",
                                "value": "0x11111112542d85b3ef69ae05771c2dccff4faa26"
                            },
                            {
                                "name": "to",
                                "type": "address",
                                "value": "0x74de5d4fcbf63e00296fd95d33236b9794016631"
                            },
                            {
                                "name": "amount0In",
                                "type": "uint256",
                                "value": "0"
                            },
                            {
                                "name": "amount1In",
                                "type": "uint256",
                                "value": "495,625,000,000,000,000"
                            },
                            {
                                "name": "amount0Out",
                                "type": "uint256",
                                "value": "49,397,638,659,428,807,197"
                            },
                            {
                                "name": "amount1Out",
                                "type": "uint256",
                                "value": "0"
                            }
                        ],
                        "signature": "Swap(address,uint256,uint256,uint256,uint256,address)"
                    },
                    "id": 16,
                    "logData": "0x000000000000000000000000000000000000000000000000000000000000000000000000000000000000000000000000000000000000000006e0d04fc2cd9000000000000000000000000000000000000000000000000002ad87aaa40e5b721d0000000000000000000000000000000000000000000000000000000000000000",
                    "logDecoded": true,
                    "operation": "EVENT",
                    "revert": false,
                    "status": true,
                    "topics": [
                        "0xd78ad95fa46c994b6551d0da85fc275fe613ce37657fb8d5e3d130840159d822",
                        "0x00000000000000000000000011111112542d85b3ef69ae05771c2dccff4faa26",
                        "0x00000000000000000000000074de5d4fcbf63e00296fd95d33236b9794016631"
                    ]
                },
                "nodeType": 1
            },
            "17": {
                "invocation": {
                    "address": "0xbfd815347d024f449886c171f78fa5b8e6790811",
                    "callData": "0x00000000000000000000000074de5d4fcbf63e00296fd95d33236b9794016631",
                    "decodedMethod": {
                        "callParams": [
                            {
                                "name": "owner",
                                "type": "address",
                                "value": "0x74de5d4fcbf63e00296fd95d33236b9794016631"
                            }
                        ],
                        "constructorArguments": "",
                        "name": "balanceOf",
                        "returnParams": [
                            {
                                "decimalAvailable": true,
                                "name": "",
                                "type": "uint256",
                                "value": "49,397,638,659,428,807,197"
                            }
                        ],
                        "signature": "balanceOf(address)"
                    },
                    "errorInfo": "",
                    "fromAddress": "0x74de5d4fcbf63e00296fd95d33236b9794016631",
                    "gasUsed": 1291,
                    "id": 17,
                    "methodDecoded": true,
                    "operation": "STATICCALL",
                    "output": "0x000000000000000000000000000000000000000000000002ad87aaa40e5b721d",
                    "revert": false,
                    "revertMessage": "",
                    "selector": "0x70a08231",
                    "status": true,
                    "value": "0"
                },
                "nodeType": 0
            },
            "18": {
                "invocation": {
                    "address": "0xbfd815347d024f449886c171f78fa5b8e6790811",
                    "callData": "0x00000000000000000000000041a7e990fa393cbf1bbc5d5feed01a8a261fb00f000000000000000000000000000000000000000000000002ad87aaa40e5b721d",
                    "decodedMethod": {
                        "callParams": [
                            {
                                "name": "to",
                                "type": "address",
                                "value": "0x41a7e990fa393cbf1bbc5d5feed01a8a261fb00f"
                            },
                            {
                                "decimalAvailable": true,
                                "name": "value",
                                "type": "uint256",
                                "value": "49,397,638,659,428,807,197"
                            }
                        ],
                        "constructorArguments": "",
                        "name": "transfer",
                        "returnParams": [
                            {
                                "name": "",
                                "type": "bool",
                                "value": true
                            }
                        ],
                        "signature": "transfer(address,uint256)"
                    },
                    "errorInfo": "",
                    "fromAddress": "0x74de5d4fcbf63e00296fd95d33236b9794016631",
                    "gasUsed": 11357,
                    "id": 18,
                    "methodDecoded": true,
                    "operation": "CALL",
                    "output": "0x0000000000000000000000000000000000000000000000000000000000000001",
                    "revert": false,
                    "revertMessage": "",
                    "selector": "0xa9059cbb",
                    "status": true,
                    "value": "0"
                },
                "nodeType": 0
            },
            "19": {
                "event": {
                    "contract": "0xbfd815347d024f449886c171f78fa5b8e6790811",
                    "decodedLog": {
                        "name": "Transfer",
                        "params": [
                            {
                                "name": "from",
                                "type": "address",
                                "value": "0x74de5d4fcbf63e00296fd95d33236b9794016631"
                            },
                            {
                                "name": "to",
                                "type": "address",
                                "value": "0x41a7e990fa393cbf1bbc5d5feed01a8a261fb00f"
                            },
                            {
                                "decimalAvailable": true,
                                "name": "value",
                                "type": "uint256",
                                "value": "49,397,638,659,428,807,197"
                            }
                        ],
                        "signature": "Transfer(address,address,uint256)"
                    },
                    "id": 19,
                    "logData": "0x000000000000000000000000000000000000000000000002ad87aaa40e5b721d",
                    "logDecoded": true,
                    "operation": "EVENT",
                    "revert": false,
                    "status": true,
                    "topics": [
                        "0xddf252ad1be2c89b69c2b068fc378daa952ba7f163c4a11628f55a4df523b3ef",
                        "0x00000000000000000000000074de5d4fcbf63e00296fd95d33236b9794016631",
                        "0x00000000000000000000000041a7e990fa393cbf1bbc5d5feed01a8a261fb00f"
                    ]
                },
                "nodeType": 1
            },
            "2": {
                "invocation": {
                    "address": "0xd2742961d645218fbe0b50227c9b074d4fec4937",
                    "callData": "0x00000000000000000000000041a7e990fa393cbf1bbc5d5feed01a8a261fb00f0000000000000000000000000000000000000000000000000000000000000000000000000000000000000000bfd815347d024f449886c171f78fa5b8e679081100000000000000000000000000000000000000000000000006e0d04fc2cd900000000000000000000000000000000000000000000000000298f6cbebef34dcc50000000000000000000000000000000000000000000000000000000000000100000000000000000000000000000000000000000000000000000f8b0a10e4700000000000000000000000000011ededebf63bef0ea2d2d071bdf88f71543ec6fb00000000000000000000000000000000000000000000000000000000000000c42e95b6c8000000000000000000000000000000000000000000000000000000000000000000000000000000000000000000000000000000000000000006e0d04fc2cd900000000000000000000000000000000000000000000000000298f6cbebef34dcc50000000000000000000000000000000000000000000000000000000000000080000000000000000000000000000000000000000000000000000000000000000180000000000000003b6d0340c8e78ad2573f5e16a286443aea2a6f1ba0c06b9600000000000000000000000000000000000000000000000000000000",
                    "decodedMethod": null,
                    "errorInfo": "",
                    "fromAddress": "0x74de5d4fcbf63e00296fd95d33236b9794016631",
                    "gasUsed": 152565,
                    "id": 2,
                    "methodDecoded": false,
                    "operation": "DELEGATECALL",
                    "output": "",
                    "revert": false,
                    "revertMessage": "",
                    "selector": "0x242fb09f",
                    "status": true,
                    "value": "0.5"
                },
                "nodeType": 0
            },
            "20": {
                "event": {
                    "contract": "0x881d40237659c251811cec9c364ef91dc08d300c",
                    "decodedLog": {
                        "name": "Swap",
                        "params": [
                            {
                                "name": "aggregatorId",
                                "type": "string",
                                "value": "0x52b2a8c72019cec70fe7744816057066b2cdc539fd8cffc80a6d5fb10b6410a1"
                            },
                            {
                                "name": "sender",
                                "type": "address",
                                "value": "0x41a7e990fa393cbf1bbc5d5feed01a8a261fb00f"
                            }
                        ],
                        "signature": "Swap(string,address)"
                    },
                    "id": 20,
                    "logData": "0x",
                    "logDecoded": true,
                    "operation": "EVENT",
                    "revert": false,
                    "status": true,
                    "topics": [
                        "0xbeee1e6e7fe307ddcf84b0a16137a4430ad5e2480fc4f4a8e250ab56ccd7630d",
                        "0x52b2a8c72019cec70fe7744816057066b2cdc539fd8cffc80a6d5fb10b6410a1",
                        "0x00000000000000000000000041a7e990fa393cbf1bbc5d5feed01a8a261fb00f"
                    ]
                },
                "nodeType": 1
            },
            "3": {
                "invocation": {
                    "address": "0x11ededebf63bef0ea2d2d071bdf88f71543ec6fb",
                    "callData": "0x",
                    "decodedMethod": null,
                    "errorInfo": "",
                    "fromAddress": "0x74de5d4fcbf63e00296fd95d33236b9794016631",
                    "gasUsed": 0,
                    "id": 3,
                    "methodDecoded": false,
                    "operation": "CALL",
                    "output": "",
                    "revert": false,
                    "revertMessage": "",
                    "selector": "fallback",
                    "status": true,
                    "value": "0.004375"
                },
                "nodeType": 0
            },
            "4": {
                "invocation": {
                    "address": "0x11111112542d85b3ef69ae05771c2dccff4faa26",
                    "callData": "0x000000000000000000000000000000000000000000000000000000000000000000000000000000000000000000000000000000000000000006e0d04fc2cd900000000000000000000000000000000000000000000000000298f6cbebef34dcc50000000000000000000000000000000000000000000000000000000000000080000000000000000000000000000000000000000000000000000000000000000180000000000000003b6d0340c8e78ad2573f5e16a286443aea2a6f1ba0c06b96",
                    "decodedMethod": {
                        "callParams": [
                            {
                                "name": "srcToken",
                                "type": "address",
                                "value": "0x0000000000000000000000000000000000000000"
                            },
                            {
                                "name": "amount",
                                "type": "uint256",
                                "value": "495,625,000,000,000,000"
                            },
                            {
                                "name": "minReturn",
                                "type": "uint256",
                                "value": "47,915,709,499,645,942,981"
                            },
                            {
                                "name": "",
                                "type": "bytes32[]",
                                "value": [
                                    "0x80000000000000003b6d0340c8e78ad2573f5e16a286443aea2a6f1ba0c06b96"
                                ]
                            }
                        ],
                        "constructorArguments": "",
                        "name": "unoswap",
                        "returnParams": [
                            {
                                "name": "returnAmount",
                                "type": "uint256",
                                "value": "49,397,638,659,428,807,197"
                            }
                        ],
                        "signature": "unoswap(address,uint256,uint256,bytes32[])"
                    },
                    "errorInfo": "",
                    "fromAddress": "0x74de5d4fcbf63e00296fd95d33236b9794016631",
                    "gasUsed": 117871,
                    "id": 4,
                    "methodDecoded": true,
                    "operation": "CALL",
                    "output": "0x000000000000000000000000000000000000000000000002ad87aaa40e5b721d",
                    "revert": false,
                    "revertMessage": "",
                    "selector": "0x2e95b6c8",
                    "status": true,
                    "value": "0.495625"
                },
                "nodeType": 0
            },
            "5": {
                "invocation": {
                    "address": "0xc02aaa39b223fe8d0a0e5c4f27ead9083c756cc2",
                    "callData": "0x",
                    "decodedMethod": {
                        "callParams": [],
                        "constructorArguments": "",
                        "name": "deposit",
                        "returnParams": [],
                        "signature": "deposit()"
                    },
                    "errorInfo": "",
                    "fromAddress": "0x11111112542d85b3ef69ae05771c2dccff4faa26",
                    "gasUsed": 22674,
                    "id": 5,
                    "methodDecoded": true,
                    "operation": "CALL",
                    "output": "",
                    "revert": false,
                    "revertMessage": "",
                    "selector": "0xd0e30db0",
                    "status": true,
                    "value": "0.495625"
                },
                "nodeType": 0
            },
            "6": {
                "event": {
                    "contract": "0xc02aaa39b223fe8d0a0e5c4f27ead9083c756cc2",
                    "decodedLog": {
                        "name": "Deposit",
                        "params": [
                            {
                                "name": "dst",
                                "type": "address",
                                "value": "0x11111112542d85b3ef69ae05771c2dccff4faa26"
                            },
                            {
                                "name": "wad",
                                "type": "uint256",
                                "value": "495,625,000,000,000,000"
                            }
                        ],
                        "signature": "Deposit(address,uint256)"
                    },
                    "id": 6,
                    "logData": "0x00000000000000000000000000000000000000000000000006e0d04fc2cd9000",
                    "logDecoded": true,
                    "operation": "EVENT",
                    "revert": false,
                    "status": true,
                    "topics": [
                        "0xe1fffcc4923d04b559f4d29a8bfc6cda04eb5b0d3c460751c2402c5c5cc9109c",
                        "0x00000000000000000000000011111112542d85b3ef69ae05771c2dccff4faa26"
                    ]
                },
                "nodeType": 1
            },
            "7": {
                "invocation": {
                    "address": "0xc02aaa39b223fe8d0a0e5c4f27ead9083c756cc2",
                    "callData": "0x000000000000000000000000c8e78ad2573f5e16a286443aea2a6f1ba0c06b9600000000000000000000000000000000000000000000000006e0d04fc2cd9000",
                    "decodedMethod": {
                        "callParams": [
                            {
                                "name": "dst",
                                "type": "address",
                                "value": "0xc8e78ad2573f5e16a286443aea2a6f1ba0c06b96"
                            },
                            {
                                "decimalAvailable": true,
                                "name": "wad",
                                "type": "uint256",
                                "value": "495,625,000,000,000,000"
                            }
                        ],
                        "constructorArguments": "",
                        "name": "transfer",
                        "returnParams": [
                            {
                                "name": "",
                                "type": "bool",
                                "value": true
                            }
                        ],
                        "signature": "transfer(address,uint256)"
                    },
                    "errorInfo": "",
                    "fromAddress": "0x11111112542d85b3ef69ae05771c2dccff4faa26",
                    "gasUsed": 10962,
                    "id": 7,
                    "methodDecoded": true,
                    "operation": "CALL",
                    "output": "0x0000000000000000000000000000000000000000000000000000000000000001",
                    "revert": false,
                    "revertMessage": "",
                    "selector": "0xa9059cbb",
                    "status": true,
                    "value": "0"
                },
                "nodeType": 0
            },
            "8": {
                "event": {
                    "contract": "0xc02aaa39b223fe8d0a0e5c4f27ead9083c756cc2",
                    "decodedLog": {
                        "name": "Transfer",
                        "params": [
                            {
                                "name": "src",
                                "type": "address",
                                "value": "0x11111112542d85b3ef69ae05771c2dccff4faa26"
                            },
                            {
                                "name": "dst",
                                "type": "address",
                                "value": "0xc8e78ad2573f5e16a286443aea2a6f1ba0c06b96"
                            },
                            {
                                "decimalAvailable": true,
                                "name": "wad",
                                "type": "uint256",
                                "value": "495,625,000,000,000,000"
                            }
                        ],
                        "signature": "Transfer(address,address,uint256)"
                    },
                    "id": 8,
                    "logData": "0x00000000000000000000000000000000000000000000000006e0d04fc2cd9000",
                    "logDecoded": true,
                    "operation": "EVENT",
                    "revert": false,
                    "status": true,
                    "topics": [
                        "0xddf252ad1be2c89b69c2b068fc378daa952ba7f163c4a11628f55a4df523b3ef",
                        "0x00000000000000000000000011111112542d85b3ef69ae05771c2dccff4faa26",
                        "0x000000000000000000000000c8e78ad2573f5e16a286443aea2a6f1ba0c06b96"
                    ]
                },
                "nodeType": 1
            },
            "9": {
                "invocation": {
                    "address": "0xc8e78ad2573f5e16a286443aea2a6f1ba0c06b96",
                    "callData": "0x",
                    "decodedMethod": {
                        "callParams": [],
                        "constructorArguments": "",
                        "name": "getReserves",
                        "returnParams": [
                            {
                                "name": "_reserve0",
                                "type": "uint112",
                                "value": "30,049,743,002,467,866,446,708"
                            },
                            {
                                "name": "_reserve1",
                                "type": "uint112",
                                "value": "300,101,681,168,015,575,641"
                            },
                            {
                                "name": "_blockTimestampLast",
                                "type": "uint32",
                                "value": "1,618,054,133"
                            }
                        ],
                        "signature": "getReserves()"
                    },
                    "errorInfo": "",
                    "fromAddress": "0x11111112542d85b3ef69ae05771c2dccff4faa26",
                    "gasUsed": 1204,
                    "id": 9,
                    "methodDecoded": true,
                    "operation": "STATICCALL",
                    "output": "0x00000000000000000000000000000000000000000000065cfff50261f54f0b7400000000000000000000000000000000000000000000001044bf5903f51a4a590000000000000000000000000000000000000000000000000000000060718bf5",
                    "revert": false,
                    "revertMessage": "",
                    "selector": "0x0902f1ac",
                    "status": true,
                    "value": "0"
                },
                "nodeType": 0
            }
        },
        "gasFlame": [
            {
                "children": [
                    {
                        "children": [
                            {
                                "children": [],
                                "depth": 0,
                                "name": "Initial Gas",
                                "value": 25468
                            },
                            {
                                "children": [
                                    {
                                        "children": [
                                            {
                                                "children": [
                                                    {
                                                        "children": [],
                                                        "depth": 3,
                                                        "name": "fallback",
                                                        "value": 0
                                                    },
                                                    {
                                                        "children": [
                                                            {
                                                                "children": [],
                                                                "depth": 4,
                                                                "name": "deposit",
                                                                "value": 22674
                                                            },
                                                            {
                                                                "children": [],
                                                                "depth": 4,
                                                                "name": "transfer",
                                                                "value": 10962
                                                            },
                                                            {
                                                                "children": [],
                                                                "depth": 4,
                                                                "name": "getReserves",
                                                                "value": 1204
                                                            },
                                                            {
                                                                "children": [
                                                                    {
                                                                        "children": [],
                                                                        "depth": 5,
                                                                        "name": "transfer",
                                                                        "value": 30557
                                                                    },
                                                                    {
                                                                        "children": [],
                                                                        "depth": 5,
                                                                        "name": "balanceOf",
                                                                        "value": 1291
                                                                    },
                                                                    {
                                                                        "children": [],
                                                                        "depth": 5,
                                                                        "name": "balanceOf",
                                                                        "value": 1234
                                                                    }
                                                                ],
                                                                "depth": 4,
                                                                "name": "swap",
                                                                "value": 72105
                                                            }
                                                        ],
                                                        "depth": 3,
                                                        "name": "unoswap",
                                                        "value": 117871
                                                    },
                                                    {
                                                        "children": [],
                                                        "depth": 3,
                                                        "name": "balanceOf",
                                                        "value": 1291
                                                    },
                                                    {
                                                        "children": [],
                                                        "depth": 3,
                                                        "name": "transfer",
                                                        "value": 11357
                                                    }
                                                ],
                                                "depth": 2,
                                                "name": "0x242fb09f",
                                                "value": 152565
                                            }
                                        ],
                                        "depth": 1,
                                        "name": "swap",
                                        "value": 155701
                                    }
                                ],
                                "depth": 0,
                                "name": "Executed Gas",
                                "value": 177707
                            }
                        ],
                        "depth": -1,
                        "name": "Actual Gas Used",
                        "value": 156375
                    },
                    {
                        "children": [],
                        "depth": -1,
                        "name": "Refunded Gas",
                        "value": 46800
                    }
                ],
                "depth": -2,
                "name": "Total Gas",
                "value": 203175
            }
        ],
        "isConfirmed": true,
        "mainTrace": [
            {
                "children": [
                    {
                        "children": [
                            {
                                "children": [
                                    {
                                        "children": [
                                            {
                                                "children": [],
                                                "depth": 3,
                                                "id": 3,
                                                "order": 3
                                            },
                                            {
                                                "children": [
                                                    {
                                                        "children": [
                                                            {
                                                                "children": [],
                                                                "depth": 5,
                                                                "id": 6,
                                                                "order": 6
                                                            }
                                                        ],
                                                        "depth": 4,
                                                        "id": 5,
                                                        "order": 5
                                                    },
                                                    {
                                                        "children": [
                                                            {
                                                                "children": [],
                                                                "depth": 5,
                                                                "id": 8,
                                                                "order": 8
                                                            }
                                                        ],
                                                        "depth": 4,
                                                        "id": 7,
                                                        "order": 7
                                                    },
                                                    {
                                                        "children": [],
                                                        "depth": 4,
                                                        "id": 9,
                                                        "order": 9
                                                    },
                                                    {
                                                        "children": [
                                                            {
                                                                "children": [
                                                                    {
                                                                        "children": [],
                                                                        "depth": 6,
                                                                        "id": 12,
                                                                        "order": 12
                                                                    }
                                                                ],
                                                                "depth": 5,
                                                                "id": 11,
                                                                "order": 11
                                                            },
                                                            {
                                                                "children": [],
                                                                "depth": 5,
                                                                "id": 13,
                                                                "order": 13
                                                            },
                                                            {
                                                                "children": [],
                                                                "depth": 5,
                                                                "id": 14,
                                                                "order": 14
                                                            },
                                                            {
                                                                "children": [],
                                                                "depth": 5,
                                                                "id": 15,
                                                                "order": 15
                                                            },
                                                            {
                                                                "children": [],
                                                                "depth": 5,
                                                                "id": 16,
                                                                "order": 16
                                                            }
                                                        ],
                                                        "depth": 4,
                                                        "id": 10,
                                                        "order": 10
                                                    }
                                                ],
                                                "depth": 3,
                                                "id": 4,
                                                "order": 4
                                            },
                                            {
                                                "children": [],
                                                "depth": 3,
                                                "id": 17,
                                                "order": 17
                                            },
                                            {
                                                "children": [
                                                    {
                                                        "children": [],
                                                        "depth": 4,
                                                        "id": 19,
                                                        "order": 19
                                                    }
                                                ],
                                                "depth": 3,
                                                "id": 18,
                                                "order": 18
                                            }
                                        ],
                                        "depth": 2,
                                        "id": 2,
                                        "order": 2
                                    }
                                ],
                                "depth": 1,
                                "id": 1,
                                "order": 1
                            },
                            {
                                "children": [],
                                "depth": 1,
                                "id": 20,
                                "order": 20
                            }
                        ],
                        "depth": 0,
                        "id": 0,
                        "order": 0
                    }
                ],
                "depth": -1,
                "id": -1,
                "order": -1
            }
        ],
        "mainTraceNodeCount": 21,
        "parentIdMap": {
            "0": -1,
            "1": 0,
            "10": 4,
            "11": 10,
            "12": 11,
            "13": 10,
            "14": 10,
            "15": 10,
            "16": 10,
            "17": 2,
            "18": 2,
            "19": 18,
            "2": 1,
            "20": 0,
            "3": 2,
            "4": 2,
            "5": 4,
            "6": 5,
            "7": 4,
            "8": 7,
            "9": 4
        },
        "tidyTrace": [
            {
                "children": [
                    {
                        "children": [
                            {
                                "children": [
                                    {
                                        "children": [
                                            {
                                                "children": [],
                                                "depth": 3,
                                                "id": 3,
                                                "order": 3
                                            },
                                            {
                                                "children": [
                                                    {
                                                        "children": [
                                                            {
                                                                "children": [],
                                                                "depth": 5,
                                                                "id": 6,
                                                                "order": 6
                                                            }
                                                        ],
                                                        "depth": 4,
                                                        "id": 5,
                                                        "order": 5
                                                    },
                                                    {
                                                        "children": [
                                                            {
                                                                "children": [],
                                                                "depth": 5,
                                                                "id": 8,
                                                                "order": 8
                                                            }
                                                        ],
                                                        "depth": 4,
                                                        "id": 7,
                                                        "order": 7
                                                    },
                                                    {
                                                        "children": [
                                                            {
                                                                "children": [
                                                                    {
                                                                        "children": [],
                                                                        "depth": 6,
                                                                        "id": 12,
                                                                        "order": 12
                                                                    }
                                                                ],
                                                                "depth": 5,
                                                                "id": 11,
                                                                "order": 11
                                                            },
                                                            {
                                                                "children": [],
                                                                "depth": 5,
                                                                "id": 15,
                                                                "order": 15
                                                            },
                                                            {
                                                                "children": [],
                                                                "depth": 5,
                                                                "id": 16,
                                                                "order": 16
                                                            }
                                                        ],
                                                        "depth": 4,
                                                        "id": 10,
                                                        "order": 10
                                                    }
                                                ],
                                                "depth": 3,
                                                "id": 4,
                                                "order": 4
                                            },
                                            {
                                                "children": [
                                                    {
                                                        "children": [],
                                                        "depth": 4,
                                                        "id": 19,
                                                        "order": 19
                                                    }
                                                ],
                                                "depth": 3,
                                                "id": 18,
                                                "order": 18
                                            }
                                        ],
                                        "depth": 2,
                                        "id": 2,
                                        "order": 2
                                    }
                                ],
                                "depth": 1,
                                "id": 1,
                                "order": 1
                            },
                            {
                                "children": [],
                                "depth": 1,
                                "id": 20,
                                "order": 20
                            }
                        ],
                        "depth": 0,
                        "id": 0,
                        "order": 0
                    }
                ],
                "depth": -1,
                "id": -1,
                "order": -1
            }
        ],
        "tidyTraceNodeCount": 17
    },
    "state_change": {
        "stateChanges": [
            {
                "address": "0xbfd815347d024f449886c171f78fa5b8e6790811",
                "erc": "ERC-20",
                "slots": [
                    {
                        "current": "0x00000000000000000000000000000000000000000000065a526d57bde6f39957",
                        "key": "0xeb0d15fc318b5ac51e3e9540fcaa40f51f383304796c3459d4e431bda78c66d1",
                        "prev": "0x00000000000000000000000000000000000000000000065cfff50261f54f0b74"
                    },
                    {
                        "current": "0x00000000000000000000000000000000000000000000000e3faba76411468e8c",
                        "key": "0xd040d3c6be824512de05b7859ef8f5fcf383f57bd2125c68d6295d2efb78efc9",
                        "prev": "0x00000000000000000000000000000000000000000000000b9223fcc002eb1c6f"
                    }
                ],
                "storageVariables": [
                    {
                        "name": "_balances",
                        "type": "mapping(address => uint256)",
                        "value": {
                            "pairs": [
                                {
                                    "key": "0x41a7e990fa393cbf1bbc5d5feed01a8a261fb00f",
                                    "value": {
                                        "current": "262842361725569109644",
                                        "prev": "213444723066140302447",
                                        "typeTag": 1
                                    }
                                },
                                {
                                    "key": "0xc8e78ad2573f5e16a286443aea2a6f1ba0c06b96",
                                    "value": {
                                        "current": "30000345363808437639511",
                                        "prev": "30049743002467866446708",
                                        "typeTag": 1
                                    }
                                }
                            ],
                            "typeTag": 4
                        }
                    }
                ]
            },
            {
                "address": "0xc02aaa39b223fe8d0a0e5c4f27ead9083c756cc2",
                "erc": "ERC-20",
                "slots": [
                    {
                        "current": "0x0000000000000000000000000000000000000000000000104ba02953b7e7da59",
                        "key": "0x3c2138e8e60ad53918c42938eaf9870622160593eaffee006ac85fed888582b9",
                        "prev": "0x00000000000000000000000000000000000000000000001044bf5903f51a4a59"
                    }
                ],
                "storageVariables": [
                    {
                        "name": "balanceOf",
                        "type": "mapping(address => uint256)",
                        "value": {
                            "pairs": [
                                {
                                    "key": "0xc8e78ad2573f5e16a286443aea2a6f1ba0c06b96",
                                    "value": {
                                        "current": "300597306168015575641",
                                        "prev": "300101681168015575641",
                                        "typeTag": 1
                                    }
                                }
                            ],
                            "typeTag": 4
                        }
                    }
                ]
            },
            {
                "address": "0xc8e78ad2573f5e16a286443aea2a6f1ba0c06b96",
                "erc": "ERC-20",
                "slots": [
                    {
                        "current": "0x000000000000000000000000000000007b2759e9d8b02e36d86ba7062d03de0b",
                        "key": "0x0000000000000000000000000000000000000000000000000000000000000009",
                        "prev": "0x000000000000000000000000000000007b256241f4cc88fd54197767da0259e7"
                    },
                    {
                        "current": "0x00000000000000000000000000000ecc8f592aedd285222cc55c9976814c3da6",
                        "key": "0x000000000000000000000000000000000000000000000000000000000000000a",
                        "prev": "0x00000000000000000000000000000ecc424b3061892245ff3a7db89f9133a04b"
                    },
                    {
                        "current": "0x60718cba0000000000104ba02953b7e7da5900000000065a526d57bde6f39957",
                        "key": "0x0000000000000000000000000000000000000000000000000000000000000008",
                        "prev": "0x60718bf500000000001044bf5903f51a4a5900000000065cfff50261f54f0b74"
                    }
                ],
                "storageVariables": [
                    {
                        "name": "price0CumulativeLast",
                        "type": "uint256",
                        "value": {
                            "current": "163699366720705852773179191715390807563",
                            "prev": "163689151367043772458844895291925223911",
                            "typeTag": 1
                        }
                    },
                    {
                        "name": "price1CumulativeLast",
                        "type": "uint256",
                        "value": {
                            "current": "1289180148485035982838580832168167026212262",
                            "prev": "1289077725347784327778485438057213458620491",
                            "typeTag": 1
                        }
                    },
                    {
                        "name": "reserve0",
                        "type": "uint112",
                        "value": {
                            "current": "30000345363808437639511",
                            "prev": "30049743002467866446708",
                            "typeTag": 1
                        }
                    },
                    {
                        "name": "reserve1",
                        "type": "uint112",
                        "value": {
                            "current": "300597306168015575641",
                            "prev": "300101681168015575641",
                            "typeTag": 1
                        }
                    },
                    {
                        "name": "blockTimestampLast",
                        "type": "uint32",
                        "value": {
                            "current": "1618054330",
                            "prev": "1618054133",
                            "typeTag": 1
                        }
                    }
                ]
            }
        ]
    }
}