{
    "balance_change": {
        "balanceChanges": []
    },
    "profile": {
        "basic_info": {
            "baseFee": "",
            "blockNumber": 7078311,
            "callData": "0xfc63e81c00000000000000000000000000000000000000000000000000000000000000200000000000000000000000000000000000000000000000000000000000000048373633653762383962633864353666396538376636623964333138646439393466623165396431666462386434633164363132616166343834623239343361643030303030303032000000000000000000000000000000000000000000000000",
            "debugEnable": true,
            "errorInfo": "",
            "eventCount": 4,
            "feeRecipient": "0x5a0b54d5dc17e0aadc383d2db43b0a0d3e029c4c",
            "formatValue": "0",
            "gasLimit": 4500000,
            "gasPrice": "20",
            "gasUsed": 284152,
            "intTxnCount": 3,
            "internalRevert": false,
            "internalRevertMessage": "",
            "isContractCreation": false,
            "isFlashloan": false,
            "maxFee": "",
            "nonce": 93,
            "overwritedBlockNumber": -1,
            "priorityFee": "",
            "receiver": "0x13492019d9ff6978fe4e1fc030d4e1b811f31750",
            "revertMessage": "",
            "sender": "0xcf546ac19453269f220ca9c68fc692b574cd764d",
            "simulationEnable": true,
            "sourceTxnHash": "0x207610e6bf2b1c8e2fc55f6935b36ab276e13b89211e51b46c42d95b3bb9fbfb",
            "status": true,
            "timestamp": "2019-01-16T22:40:41Z",
            "transactionFee": "0.00568304",
            "txnHash": "0x207610e6bf2b1c8e2fc55f6935b36ab276e13b89211e51b46c42d95b3bb9fbfb",
            "txnIndex": 45,
            "type": 0,
            "value": "0"
        },
        "fund_flow": [],
        "token_infos": [
            {
                "address": "0xc02aaa39b223fe8d0a0e5c4f27ead9083c756cc2",
                "decimals": 18
            },
            {
                "address": "0xeeeeeeeeeeeeeeeeeeeeeeeeeeeeeeeeeeeeeeee",
                "decimals": 18
            }
        ]
    },
    "address_label": {
        "labels": [
            {
                "address": "0xeeeeeeeeeeeeeeeeeeeeeeeeeeeeeeeeeeeeeeee",
                "label": "Ether"
            },
            {
                "address": "0x13492019d9ff6978fe4e1fc030d4e1b811f31750",
                "label": "CryptoKanojo (KNJ)"
            },
            {
                "address": "0x0000000000000000000000000000000000000001",
                "label": "Precompiled"
            },
            {
                "address": "0x0000000000000000000000000000000000000002",
                "label": "Precompiled"
            },
            {
                "address": "0x0000000000000000000000000000000000000003",
                "label": "Precompiled"
            },
            {
                "address": "0x0000000000000000000000000000000000000004",
                "label": "Precompiled"
            }
        ]
    },
    "trace": {
        "accountLabels": null,
        "dataMap": {
            "-1": {
                "invocation": {
                    "address": "0xcf546ac19453269f220ca9c68fc692b574cd764d",
                    "callData": "",
                    "decodedMethod": null,
                    "errorInfo": "",
                    "fromAddress": "",
                    "gasUsed": 0,
                    "id": -1,
                    "methodDecoded": false,
                    "operation": "",
                    "output": "",
                    "revert": false,
                    "revertMessage": "",
                    "selector": "",
                    "status": false,
                    "value": ""
                },
                "nodeType": 0
            },
            "0": {
                "invocation": {
                    "address": "0x13492019d9ff6978fe4e1fc030d4e1b811f31750",
                    "callData": "0x00000000000000000000000000000000000000000000000000000000000000200000000000000000000000000000000000000000000000000000000000000048373633653762383962633864353666396538376636623964333138646439393466623165396431666462386434633164363132616166343834623239343361643030303030303032000000000000000000000000000000000000000000000000",
                    "decodedMethod": null,
                    "errorInfo": "",
                    "fromAddress": "0xcf546ac19453269f220ca9c68fc692b574cd764d",
                    "gasUsed": 284152,
                    "id": 0,
                    "methodDecoded": false,
                    "operation": "CALL",
                    "output": "",
                    "revert": false,
                    "revertMessage": "",
                    "selector": "0xfc63e81c",
                    "status": true,
                    "value": "0"
                },
                "nodeType": 0
            },
            "1": {
                "event": {
                    "contract": "0x13492019d9ff6978fe4e1fc030d4e1b811f31750",
                    "decodedLog": null,
                    "id": 1,
                    "logData": "0x00000000000000000000000013492019d9ff6978fe4e1fc030d4e1b811f3175000000000000000000000000000000000000000000000000000000000000011640000000000000000000000000000000000000000000000000000000000000000000000000000000000000000000000000000000000000000000000000000000000000000000000000000000000000000000000000000000000000000000000a00000000000000000000000000000000000000000000000000000000000000048373633653762383962633864353666396538376636623964333138646439393466623165396431666462386434633164363132616166343834623239343361643030303030303032000000000000000000000000000000000000000000000000",
                    "logDecoded": false,
                    "operation": "EVENT",
                    "revert": false,
                    "status": true,
                    "topics": [
                        "0x4e6455c91928c274385a73f9a414dadc99be42d2c970d057edbebcf5aa131222"
                    ]
                },
                "nodeType": 1
            },
            "2": {
                "event": {
                    "contract": "0x13492019d9ff6978fe4e1fc030d4e1b811f31750",
                    "decodedLog": {
                        "name": "Transfer",
                        "params": [
                            {
                                "name": "from",
                                "type": "address",
                                "value": "0x0000000000000000000000000000000000000000"
                            },
                            {
                                "name": "to",
                                "type": "address",
                                "value": "0x13492019d9ff6978fe4e1fc030d4e1b811f31750"
                            },
                            {
                                "decimalAvailable": true,
                                "name": "tokenId",
                                "type": "uint256",
                                "value": "4,452"
                            }
                        ],
                        "signature": "Transfer(address,address,uint256)"
                    },
                    "id": 2,
                    "logData": "0x000000000000000000000000000000000000000000000000000000000000000000000000000000000000000013492019d9ff6978fe4e1fc030d4e1b811f317500000000000000000000000000000000000000000000000000000000000001164",
                    "logDecoded": true,
                    "operation": "EVENT",
                    "revert": false,
                    "status": true,
                    "topics": [
                        "0xddf252ad1be2c89b69c2b068fc378daa952ba7f163c4a11628f55a4df523b3ef"
                    ]
                },
                "nodeType": 1
            },
            "3": {
                "invocation": {
                    "address": "0x7ab8efa04ba8e0d73c1d205153d29fa678a44b76",
                    "callData": "0x",
                    "decodedMethod": {
                        "callParams": [],
                        "constructorArguments": "",
                        "name": "averageGen0SalePrice",
                        "returnParams": [
                            {
                                "name": "",
                                "type": "uint256",
                                "value": "200,000,000,000,000,000"
                            }
                        ],
                        "signature": "averageGen0SalePrice()"
                    },
                    "errorInfo": "",
                    "fromAddress": "0x13492019d9ff6978fe4e1fc030d4e1b811f31750",
                    "gasUsed": 2125,
                    "id": 3,
                    "methodDecoded": true,
                    "operation": "CALL",
                    "output": "0x00000000000000000000000000000000000000000000000002c68af0bb140000",
                    "revert": false,
                    "revertMessage": "",
                    "selector": "0xeac9d94c",
                    "status": true,
                    "value": "0"
                },
                "nodeType": 0
            },
            "4": {
                "invocation": {
                    "address": "0x7ab8efa04ba8e0d73c1d205153d29fa678a44b76",
                    "callData": "0x000000000000000000000000000000000000000000000000000000000000116400000000000000000000000000000000000000000000000006f05b59d3b200000000000000000000000000000000000000000000000000000000000000000000000000000000000000000000000000000000000000000000000000000001518000000000000000000000000013492019d9ff6978fe4e1fc030d4e1b811f31750",
                    "decodedMethod": {
                        "callParams": [
                            {
                                "name": "_tokenId",
                                "type": "uint256",
                                "value": "4,452"
                            },
                            {
                                "name": "_startingPrice",
                                "type": "uint256",
                                "value": "500,000,000,000,000,000"
                            },
                            {
                                "name": "_endingPrice",
                                "type": "uint256",
                                "value": "0"
                            },
                            {
                                "name": "_duration",
                                "type": "uint256",
                                "value": "86,400"
                            },
                            {
                                "name": "_seller",
                                "type": "address",
                                "value": "0x13492019d9ff6978fe4e1fc030d4e1b811f31750"
                            }
                        ],
                        "constructorArguments": "",
                        "name": "createAuction",
                        "returnParams": [],
                        "signature": "createAuction(uint256,uint256,uint256,uint256,address)"
                    },
                    "errorInfo": "",
                    "fromAddress": "0x13492019d9ff6978fe4e1fc030d4e1b811f31750",
                    "gasUsed": 98044,
                    "id": 4,
                    "methodDecoded": true,
                    "operation": "CALL",
                    "output": "",
                    "revert": false,
                    "revertMessage": "",
                    "selector": "0x27ebe40a",
                    "status": true,
                    "value": "0"
                },
                "nodeType": 0
            },
            "5": {
                "invocation": {
                    "address": "0x13492019d9ff6978fe4e1fc030d4e1b811f31750",
                    "callData": "0x00000000000000000000000013492019d9ff6978fe4e1fc030d4e1b811f317500000000000000000000000007ab8efa04ba8e0d73c1d205153d29fa678a44b760000000000000000000000000000000000000000000000000000000000001164",
                    "decodedMethod": {
                        "callParams": [
                            {
                                "name": "from",
                                "type": "address",
                                "value": "0x13492019d9ff6978fe4e1fc030d4e1b811f31750"
                            },
                            {
                                "name": "to",
                                "type": "address",
                                "value": "0x7ab8efa04ba8e0d73c1d205153d29fa678a44b76"
                            },
                            {
                                "decimalAvailable": true,
                                "name": "tokenId",
                                "type": "uint256",
                                "value": "4,452"
                            }
                        ],
                        "constructorArguments": "",
                        "name": "transferFrom",
                        "returnParams": [],
                        "signature": "transferFrom(address,address,uint256)"
                    },
                    "errorInfo": "",
                    "fromAddress": "0x7ab8efa04ba8e0d73c1d205153d29fa678a44b76",
                    "gasUsed": 30441,
                    "id": 5,
                    "methodDecoded": true,
                    "operation": "CALL",
                    "output": "",
                    "revert": false,
                    "revertMessage": "",
                    "selector": "0x23b872dd",
                    "status": true,
                    "value": "0"
                },
                "nodeType": 0
            },
            "6": {
                "event": {
                    "contract": "0x13492019d9ff6978fe4e1fc030d4e1b811f31750",
                    "decodedLog": {
                        "name": "Transfer",
                        "params": [
                            {
                                "name": "from",
                                "type": "address",
                                "value": "0x13492019d9ff6978fe4e1fc030d4e1b811f31750"
                            },
                            {
                                "name": "to",
                                "type": "address",
                                "value": "0x7ab8efa04ba8e0d73c1d205153d29fa678a44b76"
                            },
                            {
                                "decimalAvailable": true,
                                "name": "tokenId",
                                "type": "uint256",
                                "value": "4,452"
                            }
                        ],
                        "signature": "Transfer(address,address,uint256)"
                    },
                    "id": 6,
                    "logData": "0x00000000000000000000000013492019d9ff6978fe4e1fc030d4e1b811f317500000000000000000000000007ab8efa04ba8e0d73c1d205153d29fa678a44b760000000000000000000000000000000000000000000000000000000000001164",
                    "logDecoded": true,
                    "operation": "EVENT",
                    "revert": false,
                    "status": true,
                    "topics": [
                        "0xddf252ad1be2c89b69c2b068fc378daa952ba7f163c4a11628f55a4df523b3ef"
                    ]
                },
                "nodeType": 1
            },
            "7": {
                "event": {
                    "contract": "0x7ab8efa04ba8e0d73c1d205153d29fa678a44b76",
                    "decodedLog": null,
                    "id": 7,
                    "logData": "0x00000000000000000000000000000000000000000000000006f05b59d3b2000000000000000000000000000000000000000000000000000006f05b59d3b200000000000000000000000000000000000000000000000000000000000000015180",
                    "logDecoded": false,
                    "operation": "EVENT",
                    "revert": false,
                    "status": true,
                    "topics": [
                        "0xfe21114808b55d6a54bec91c46a20e8dfe7f033edf3f058a5012a829d8d0e3ca",
                        "0x0000000000000000000000000000000000000000000000000000000000001164",
                        "0x00000000000000000000000013492019d9ff6978fe4e1fc030d4e1b811f31750"
                    ]
                },
                "nodeType": 1
            }
        },
        "gasFlame": [
            {
                "children": [
                    {
                        "children": [
                            {
                                "children": [],
                                "depth": 0,
                                "name": "Initial Gas",
                                "value": 26648
                            },
                            {
                                "children": [
                                    {
                                        "children": [],
                                        "depth": 1,
                                        "name": "averageGen0SalePrice",
                                        "value": 2125
                                    },
                                    {
                                        "children": [
                                            {
                                                "children": [],
                                                "depth": 2,
                                                "name": "transferFrom",
                                                "value": 30441
                                            }
                                        ],
                                        "depth": 1,
                                        "name": "createAuction",
                                        "value": 98044
                                    }
                                ],
                                "depth": 0,
                                "name": "Executed Gas",
                                "value": 287504
                            }
                        ],
                        "depth": -1,
                        "name": "Actual Gas Used",
                        "value": 284152
                    },
                    {
                        "children": [],
                        "depth": -1,
                        "name": "Refunded Gas",
                        "value": 30000
                    }
                ],
                "depth": -2,
                "name": "Total Gas",
                "value": 314152
            }
        ],
        "isConfirmed": true,
        "mainTrace": [
            {
                "children": [
                    {
                        "children": [
                            {
                                "children": [],
                                "depth": 1,
                                "id": 1,
                                "order": 1
                            },
                            {
                                "children": [],
                                "depth": 1,
                                "id": 2,
                                "order": 2
                            },
                            {
                                "children": [],
                                "depth": 1,
                                "id": 3,
                                "order": 3
                            },
                            {
                                "children": [
                                    {
                                        "children": [
                                            {
                                                "children": [],
                                                "depth": 3,
                                                "id": 6,
                                                "order": 6
                                            }
                                        ],
                                        "depth": 2,
                                        "id": 5,
                                        "order": 5
                                    },
                                    {
                                        "children": [],
                                        "depth": 2,
                                        "id": 7,
                                        "order": 7
                                    }
                                ],
                                "depth": 1,
                                "id": 4,
                                "order": 4
                            }
                        ],
                        "depth": 0,
                        "id": 0,
                        "order": 0
                    }
                ],
                "depth": -1,
                "id": -1,
                "order": -1
            }
        ],
        "mainTraceNodeCount": 8,
        "parentIdMap": {
            "0": -1,
            "1": 0,
            "2": 0,
            "3": 0,
            "4": 0,
            "5": 4,
            "6": 5,
            "7": 4
        },
        "tidyTrace": [
            {
                "children": [
                    {
                        "children": [
                            {
                                "children": [],
                                "depth": 1,
                                "id": 1,
                                "order": 1
                            },
                            {
                                "children": [],
                                "depth": 1,
                                "id": 2,
                                "order": 2
                            },
                            {
                                "children": [],
                                "depth": 1,
                                "id": 3,
                                "order": 3
                            },
                            {
                                "children": [
                                    {
                                        "children": [
                                            {
                                                "children": [],
                                                "depth": 3,
                                                "id": 6,
                                                "order": 6
                                            }
                                        ],
                                        "depth": 2,
                                        "id": 5,
                                        "order": 5
                                    },
                                    {
                                        "children": [],
                                        "depth": 2,
                                        "id": 7,
                                        "order": 7
                                    }
                                ],
                                "depth": 1,
                                "id": 4,
                                "order": 4
                            }
                        ],
                        "depth": 0,
                        "id": 0,
                        "order": 0
                    }
                ],
                "depth": -1,
                "id": -1,
                "order": -1
            }
        ],
        "tidyTraceNodeCount": 8
    },
    "state_change": {
        "stateChanges": [
            {
                "address": "0x13492019d9ff6978fe4e1fc030d4e1b811f31750",
                "erc": "",
                "slots": [
                    {
                        "current": "0x3736336537623839626338643536663965383766366239643331386464393934",
                        "key": "0x897fc8d1b9fc3eb703fb6b127d56c9ad9483847137dfc0c239a07413a6173632",
                        "prev": "0x0000000000000000000000000000000000000000000000000000000000000000"
                    },
                    {
                        "current": "0x000000000000000000000000000000000000000000000000000000005c3fb2e9",
                        "key": "0xf652222313e28459528d920b65115c16c04f3efc82aaedc97be59f3f377c3008",
                        "prev": "0x0000000000000000000000000000000000000000000000000000000000000000"
                    },
                    {
                        "current": "0x6662316539643166646238643463316436313261616634383462323934336164",
                        "key": "0x897fc8d1b9fc3eb703fb6b127d56c9ad9483847137dfc0c239a07413a6173633",
                        "prev": "0x0000000000000000000000000000000000000000000000000000000000000000"
                    },
                    {
                        "current": "0x3030303030303032000000000000000000000000000000000000000000000000",
                        "key": "0x897fc8d1b9fc3eb703fb6b127d56c9ad9483847137dfc0c239a07413a6173634",
                        "prev": "0x0000000000000000000000000000000000000000000000000000000000000000"
                    },
                    {
                        "current": "0x0000000000000000000000000000000000000000000000000000000000000091",
                        "key": "0xf652222313e28459528d920b65115c16c04f3efc82aaedc97be59f3f377c3007",
                        "prev": "0x0000000000000000000000000000000000000000000000000000000000000000"
                    },
                    {
                        "current": "0x000000000000000000000000000000000000000000000000000000000000005e",
                        "key": "0x0000000000000000000000000000000000000000000000000000000000000016",
                        "prev": "0x000000000000000000000000000000000000000000000000000000000000005d"
                    },
                    {
                        "current": "0x0000000000000000000000007ab8efa04ba8e0d73c1d205153d29fa678a44b76",
                        "key": "0x18be1aa336e8d310ab3f243bfeef0d3e1f1287756e2bf693181dd38d1d3a24d9",
                        "prev": "0x0000000000000000000000000000000000000000000000000000000000000000"
                    },
                    {
                        "current": "0x0000000000000000000000000000000000000000000000000000000000001165",
                        "key": "0x0000000000000000000000000000000000000000000000000000000000000006",
                        "prev": "0x0000000000000000000000000000000000000000000000000000000000001164"
                    },
                    {
                        "current": "0x000000000000000000000000000000000000000000000000000000000000005f",
                        "key": "0xa5cbf5cd8fed7dece76acc4190bc8059669dfa3279c11756a4f785b704770e1c",
                        "prev": "0x000000000000000000000000000000000000000000000000000000000000005e"
                    }
                ],
                "storageVariables": []
            },
            {
                "address": "0x7ab8efa04ba8e0d73c1d205153d29fa678a44b76",
                "erc": "",
                "slots": [
                    {
                        "current": "0x00000000000000000000000013492019d9ff6978fe4e1fc030d4e1b811f31750",
                        "key": "0x5cbd81640a5738712b6b37a44952c5ad25f0821c9afb5571ac56e2a6c1b60d6b",
                        "prev": "0x0000000000000000000000000000000000000000000000000000000000000000"
                    },
                    {
                        "current": "0x000000000000000006f05b59d3b20000000000000000000006f05b59d3b20000",
                        "key": "0x5cbd81640a5738712b6b37a44952c5ad25f0821c9afb5571ac56e2a6c1b60d6c",
                        "prev": "0x0000000000000000000000000000000000000000000000000000000000000000"
                    },
                    {
                        "current": "0x00000000000000000000000000000000000000005c3fb2e90000000000015180",
                        "key": "0x5cbd81640a5738712b6b37a44952c5ad25f0821c9afb5571ac56e2a6c1b60d6d",
                        "prev": "0x0000000000000000000000000000000000000000000000000000000000000000"
                    }
                ],
                "storageVariables": []
            }
        ]
    }
}