{
    "balance_change": {
        "balanceChanges": []
    },
    "profile": {
        "basic_info": {
            "baseFee": "",
            "blockNumber": 9267537,
            "callData": "0xf14fcbc895fabc5c5ce14c1e5789e661f117ea502590f6d61e0059b42e7a839756e38271",
            "debugEnable": true,
            "errorInfo": "",
            "eventCount": 0,
            "feeRecipient": "0x5a0b54d5dc17e0aadc383d2db43b0a0d3e029c4c",
            "formatValue": "0",
            "gasLimit": 43655,
            "gasPrice": "1",
            "gasUsed": 43655,
            "intTxnCount": 0,
            "internalRevert": false,
            "internalRevertMessage": "",
            "isContractCreation": false,
            "isFlashloan": false,
            "maxFee": "",
            "nonce": 109,
            "overwritedBlockNumber": -1,
            "priorityFee": "",
            "receiver": "0xb22c1c159d12461ea124b0deb4b5b93020e6ad16",
            "revertMessage": "",
            "sender": "0x5f2b0d9c8d30d9f1b5116091c48dcdfc2508760d",
            "simulationEnable": true,
            "sourceTxnHash": "0x202610f124bf7e6b9a79d076a80ed9757bd00c1b552679b05eb2bb939dd904fc",
            "status": true,
            "timestamp": "2020-01-12T17:45:54Z",
            "transactionFee": "0.000043655",
            "txnHash": "0x202610f124bf7e6b9a79d076a80ed9757bd00c1b552679b05eb2bb939dd904fc",
            "txnIndex": 106,
            "type": 0,
            "value": "0"
        },
        "fund_flow": [],
        "token_infos": [
            {
                "address": "0xc02aaa39b223fe8d0a0e5c4f27ead9083c756cc2",
                "decimals": 18
            },
            {
                "address": "0xeeeeeeeeeeeeeeeeeeeeeeeeeeeeeeeeeeeeeeee",
                "decimals": 18
            }
        ]
    },
    "address_label": {
        "labels": [
            {
                "address": "0xeeeeeeeeeeeeeeeeeeeeeeeeeeeeeeeeeeeeeeee",
                "label": "Ether"
            },
            {
                "address": "0xb22c1c159d12461ea124b0deb4b5b93020e6ad16",
                "label": "ENS: Old ETH Registrar Controller 2"
            },
            {
                "address": "0x0000000000000000000000000000000000000001",
                "label": "Precompiled"
            },
            {
                "address": "0x0000000000000000000000000000000000000002",
                "label": "Precompiled"
            },
            {
                "address": "0x0000000000000000000000000000000000000003",
                "label": "Precompiled"
            },
            {
                "address": "0x0000000000000000000000000000000000000004",
                "label": "Precompiled"
            }
        ]
    },
    "trace": {
        "accountLabels": null,
        "dataMap": {
            "-1": {
                "invocation": {
                    "address": "0x5f2b0d9c8d30d9f1b5116091c48dcdfc2508760d",
                    "callData": "",
                    "decodedMethod": null,
                    "errorInfo": "",
                    "fromAddress": "",
                    "gasUsed": 0,
                    "id": -1,
                    "methodDecoded": false,
                    "operation": "",
                    "output": "",
                    "revert": false,
                    "revertMessage": "",
                    "selector": "",
                    "status": false,
                    "value": ""
                },
                "nodeType": 0
            },
            "0": {
                "invocation": {
                    "address": "0xb22c1c159d12461ea124b0deb4b5b93020e6ad16",
                    "callData": "0x95fabc5c5ce14c1e5789e661f117ea502590f6d61e0059b42e7a839756e38271",
                    "decodedMethod": {
                        "callParams": [
                            {
                                "name": "commitment",
                                "type": "bytes32",
                                "value": "0x95fabc5c5ce14c1e5789e661f117ea502590f6d61e0059b42e7a839756e38271"
                            }
                        ],
                        "constructorArguments": "",
                        "name": "commit",
                        "returnParams": [],
                        "signature": "commit(bytes32)"
                    },
                    "errorInfo": "",
                    "fromAddress": "0x5f2b0d9c8d30d9f1b5116091c48dcdfc2508760d",
                    "gasUsed": 43655,
                    "id": 0,
                    "methodDecoded": true,
                    "operation": "CALL",
                    "output": "",
                    "revert": false,
                    "revertMessage": "",
                    "selector": "0xf14fcbc8",
                    "status": true,
                    "value": "0"
                },
                "nodeType": 0
            }
        },
        "gasFlame": [
            {
                "children": [
                    {
                        "children": [
                            {
                                "children": [],
                                "depth": 0,
                                "name": "Initial Gas",
                                "value": 21564
                            },
                            {
                                "children": [],
                                "depth": 0,
                                "name": "Executed Gas",
                                "value": 22091
                            }
                        ],
                        "depth": -1,
                        "name": "Actual Gas Used",
                        "value": 43655
                    },
                    {
                        "children": [],
                        "depth": -1,
                        "name": "Refunded Gas",
                        "value": 0
                    }
                ],
                "depth": -2,
                "name": "Total Gas",
                "value": 43655
            }
        ],
        "isConfirmed": true,
        "mainTrace": [
            {
                "children": [
                    {
                        "children": [],
                        "depth": 0,
                        "id": 0,
                        "order": 0
                    }
                ],
                "depth": -1,
                "id": -1,
                "order": -1
            }
        ],
        "mainTraceNodeCount": 1,
        "parentIdMap": {
            "0": -1
        },
        "tidyTrace": [
            {
                "children": [
                    {
                        "children": [],
                        "depth": 0,
                        "id": 0,
                        "order": 0
                    }
                ],
                "depth": -1,
                "id": -1,
                "order": -1
            }
        ],
        "tidyTraceNodeCount": 1
    },
    "state_change": {
        "stateChanges": [
            {
                "address": "0xb22c1c159d12461ea124b0deb4b5b93020e6ad16",
                "erc": "",
                "slots": [
                    {
                        "current": "0x000000000000000000000000000000000000000000000000000000005e1b5b52",
                        "key": "0xfc124d3f3d90a4616cdfc52c3bc037c8f9e35f7df2177d235fe473ce4adbca85",
                        "prev": "0x0000000000000000000000000000000000000000000000000000000000000000"
                    }
                ],
                "storageVariables": [
                    {
                        "name": "commitments",
                        "type": "mapping(bytes32 => uint256)",
                        "value": {
                            "pairs": [
                                {
                                    "key": "0x95fabc5c5ce14c1e5789e661f117ea502590f6d61e0059b42e7a839756e38271",
                                    "value": {
                                        "current": "1578851154",
                                        "prev": "0",
                                        "typeTag": 1
                                    }
                                }
                            ],
                            "typeTag": 4
                        }
                    }
                ]
            }
        ]
    }
}