{
    "balance_change": {
        "balanceChanges": []
    },
    "profile": {
        "basic_info": {
            "baseFee": "",
            "blockNumber": 4340699,
            "callData": "0xa9059cbb0000000000000000000000001700cded59521126679477407056540be538d982000000000000000000000000000000000000000000000000000000037e11d600",
            "debugEnable": true,
            "errorInfo": "",
            "eventCount": 0,
            "feeRecipient": "0xf3b9d2c81f2b24b0fa0acaaa865b7d9ced5fc2fb",
            "formatValue": "0",
            "gasLimit": 34708,
            "gasPrice": "26",
            "gasUsed": 34708,
            "intTxnCount": 0,
            "internalRevert": false,
            "internalRevertMessage": "",
            "isContractCreation": false,
            "isFlashloan": false,
            "maxFee": "",
            "nonce": 908,
            "overwritedBlockNumber": -1,
            "priorityFee": "",
            "receiver": "0x7742708c5bbc8c4249cecd684031650d62323535",
            "revertMessage": "",
            "sender": "0xda775882e86c901ce80f4b14ee5a5ff700e90e37",
            "simulationEnable": true,
            "sourceTxnHash": "0x207ec506ba15e13bc0ecf59df9715af21c41f406b315c7b69c2adb9784fd7610",
            "status": true,
            "timestamp": "2017-10-06T02:11:25Z",
            "transactionFee": "0.000902408",
            "txnHash": "0x207ec506ba15e13bc0ecf59df9715af21c41f406b315c7b69c2adb9784fd7610",
            "txnIndex": 80,
            "type": 0,
            "value": "0"
        },
        "fund_flow": [],
        "token_infos": [
            {
                "address": "0xc02aaa39b223fe8d0a0e5c4f27ead9083c756cc2",
                "decimals": 18
            },
            {
                "address": "0xeeeeeeeeeeeeeeeeeeeeeeeeeeeeeeeeeeeeeeee",
                "decimals": 18
            }
        ]
    },
    "address_label": {
        "labels": [
            {
                "address": "0xeeeeeeeeeeeeeeeeeeeeeeeeeeeeeeeeeeeeeeee",
                "label": "Ether"
            },
            {
                "address": "0x7742708c5bbc8c4249cecd684031650d62323535",
                "label": "SoMee: Old Token"
            },
            {
                "address": "0x0000000000000000000000000000000000000001",
                "label": "Precompiled"
            },
            {
                "address": "0x0000000000000000000000000000000000000002",
                "label": "Precompiled"
            },
            {
                "address": "0x0000000000000000000000000000000000000003",
                "label": "Precompiled"
            },
            {
                "address": "0x0000000000000000000000000000000000000004",
                "label": "Precompiled"
            }
        ]
    },
    "trace": {
        "accountLabels": null,
        "dataMap": {
            "-1": {
                "invocation": {
                    "address": "0xda775882e86c901ce80f4b14ee5a5ff700e90e37",
                    "callData": "",
                    "decodedMethod": null,
                    "errorInfo": "",
                    "fromAddress": "",
                    "gasUsed": 0,
                    "id": -1,
                    "methodDecoded": false,
                    "operation": "",
                    "output": "",
                    "revert": false,
                    "revertMessage": "",
                    "selector": "",
                    "status": false,
                    "value": ""
                },
                "nodeType": 0
            },
            "0": {
                "invocation": {
                    "address": "0x7742708c5bbc8c4249cecd684031650d62323535",
                    "callData": "0x0000000000000000000000001700cded59521126679477407056540be538d982000000000000000000000000000000000000000000000000000000037e11d600",
                    "decodedMethod": {
                        "callParams": [
                            {
                                "name": "_to",
                                "type": "address",
                                "value": "0x1700cded59521126679477407056540be538d982"
                            },
                            {
                                "decimalAvailable": true,
                                "name": "_value",
                                "type": "uint256",
                                "value": "15,000,000,000"
                            }
                        ],
                        "constructorArguments": "",
                        "name": "transfer",
                        "returnParams": [],
                        "signature": "transfer(address,uint256)"
                    },
                    "errorInfo": "",
                    "fromAddress": "0xda775882e86c901ce80f4b14ee5a5ff700e90e37",
                    "gasUsed": 34708,
                    "id": 0,
                    "methodDecoded": true,
                    "operation": "CALL",
                    "output": "",
                    "revert": false,
                    "revertMessage": "",
                    "selector": "0xa9059cbb",
                    "status": true,
                    "value": "0"
                },
                "nodeType": 0
            }
        },
        "gasFlame": [
            {
                "children": [
                    {
                        "children": [
                            {
                                "children": [],
                                "depth": 0,
                                "name": "Initial Gas",
                                "value": 23000
                            },
                            {
                                "children": [],
                                "depth": 0,
                                "name": "Executed Gas",
                                "value": 11708
                            }
                        ],
                        "depth": -1,
                        "name": "Actual Gas Used",
                        "value": 34708
                    },
                    {
                        "children": [],
                        "depth": -1,
                        "name": "Refunded Gas",
                        "value": 0
                    }
                ],
                "depth": -2,
                "name": "Total Gas",
                "value": 34708
            }
        ],
        "isConfirmed": true,
        "mainTrace": [
            {
                "children": [
                    {
                        "children": [],
                        "depth": 0,
                        "id": 0,
                        "order": 0
                    }
                ],
                "depth": -1,
                "id": -1,
                "order": -1
            }
        ],
        "mainTraceNodeCount": 1,
        "parentIdMap": {
            "0": -1
        },
        "tidyTrace": [
            {
                "children": [
                    {
                        "children": [],
                        "depth": 0,
                        "id": 0,
                        "order": 0
                    }
                ],
                "depth": -1,
                "id": -1,
                "order": -1
            }
        ],
        "tidyTraceNodeCount": 1
    },
    "state_change": {
        "stateChanges": [
            {
                "address": "0x7742708c5bbc8c4249cecd684031650d62323535",
                "erc": "",
                "slots": [
                    {
                        "current": "0x00000000000000000000000000000000000000000000000000000005d21dba00",
                        "key": "0x02b145ef73207fdef26df42289f11fd72e733b63a552eab05b580b9724f2732a",
                        "prev": "0x00000000000000000000000000000000000000000000000000000002540be400"
                    },
                    {
                        "current": "0x0000000000000000000000000000000000000000000000000015fbe5ac140700",
                        "key": "0x3ef69e6df9203ef9703b6fb15cedcd1305ee79d40edd23858244f29961d2fe13",
                        "prev": "0x0000000000000000000000000000000000000000000000000015fbe92a25dd00"
                    }
                ],
                "storageVariables": []
            }
        ]
    }
}