{
    "balance_change": {
        "balanceChanges": [
            {
                "account": "0x0ffdf189a1319f4a68ad32ad30fed6c648ad1bda",
                "assets": [
                    {
                        "address": "0x2a58d1e1ec0373f4d31b4d4c970d2769d9a392f7",
                        "amount": "200",
                        "iconUrl": "",
                        "isERC1155": false,
                        "isERC721": false,
                        "sign": false,
                        "value": ""
                    }
                ]
            },
            {
                "account": "0x11ac2de65f1e8e4886625340fa1fd6b49194fc16",
                "assets": [
                    {
                        "address": "0x97a2b84115c88c1acdea263221278c36c0959dba",
                        "amount": "10,380",
                        "iconUrl": "",
                        "isERC1155": false,
                        "isERC721": false,
                        "sign": false,
                        "value": ""
                    }
                ]
            },
            {
                "account": "0x311ebd7b664d8959d4371e001226a1b193a14795",
                "assets": [
                    {
                        "address": "0x2a58d1e1ec0373f4d31b4d4c970d2769d9a392f7",
                        "amount": "6,000",
                        "iconUrl": "",
                        "isERC1155": false,
                        "isERC721": false,
                        "sign": true,
                        "value": ""
                    }
                ]
            },
            {
                "account": "0x319e1023aacd42d81a44e01d3254df12a6cb6c23",
                "assets": [
                    {
                        "address": "0x97a2b84115c88c1acdea263221278c36c0959dba",
                        "amount": "3,150",
                        "iconUrl": "",
                        "isERC1155": false,
                        "isERC721": false,
                        "sign": true,
                        "value": ""
                    }
                ]
            },
            {
                "account": "0x337f006b629e39f05f7241107f7766c88627ac94",
                "assets": [
                    {
                        "address": "0x426bf9e13b0bbd075cf8630817d5a8ce53f23156",
                        "amount": "2.5",
                        "iconUrl": "",
                        "isERC1155": false,
                        "isERC721": false,
                        "sign": false,
                        "value": ""
                    }
                ]
            },
            {
                "account": "0x4493669df58986ed2814a2b01bf593e436851b63",
                "assets": [
                    {
                        "address": "0x97a2b84115c88c1acdea263221278c36c0959dba",
                        "amount": "1,668.93",
                        "iconUrl": "",
                        "isERC1155": false,
                        "isERC721": false,
                        "sign": true,
                        "value": ""
                    }
                ]
            },
            {
                "account": "0x4552554cac8522902c09d955d1e46a2ee02e4ad5",
                "assets": [
                    {
                        "address": "0x2a58d1e1ec0373f4d31b4d4c970d2769d9a392f7",
                        "amount": "640",
                        "iconUrl": "",
                        "isERC1155": false,
                        "isERC721": false,
                        "sign": true,
                        "value": ""
                    }
                ]
            },
            {
                "account": "0x46aecd8e0e96a4e4f58b251a70ce1c402db82926",
                "assets": [
                    {
                        "address": "0x97a2b84115c88c1acdea263221278c36c0959dba",
                        "amount": "2,400",
                        "iconUrl": "",
                        "isERC1155": false,
                        "isERC721": false,
                        "sign": true,
                        "value": ""
                    }
                ]
            },
            {
                "account": "0x54a0c6bc4b6167ac3ef9fe3b488c83d8d97ee3b5",
                "assets": [
                    {
                        "address": "0x426bf9e13b0bbd075cf8630817d5a8ce53f23156",
                        "amount": "1",
                        "iconUrl": "",
                        "isERC1155": false,
                        "isERC721": false,
                        "sign": true,
                        "value": ""
                    }
                ]
            },
            {
                "account": "0x5d244f8b1d331e707d1eedf5504131402ff948da",
                "assets": [
                    {
                        "address": "0x2a58d1e1ec0373f4d31b4d4c970d2769d9a392f7",
                        "amount": "6,000",
                        "iconUrl": "",
                        "isERC1155": false,
                        "isERC721": false,
                        "sign": false,
                        "value": ""
                    }
                ]
            },
            {
                "account": "0x9045e4a8cfcec1e965877ca9ce69a85e2aaaaeb4",
                "assets": [
                    {
                        "address": "0x2a58d1e1ec0373f4d31b4d4c970d2769d9a392f7",
                        "amount": "100,000",
                        "iconUrl": "",
                        "isERC1155": false,
                        "isERC721": false,
                        "sign": false,
                        "value": ""
                    }
                ]
            },
            {
                "account": "0x96fd2f35a59e88ab6e2dd67a9b2efae80e090bcd",
                "assets": [
                    {
                        "address": "0x2a58d1e1ec0373f4d31b4d4c970d2769d9a392f7",
                        "amount": "100,000",
                        "iconUrl": "",
                        "isERC1155": false,
                        "isERC721": false,
                        "sign": true,
                        "value": ""
                    }
                ]
            },
            {
                "account": "0x9f0cd9a51e20f676f87c95d1ab28fdf509185c1a",
                "assets": [
                    {
                        "address": "0x97a2b84115c88c1acdea263221278c36c0959dba",
                        "amount": "1,668.93",
                        "iconUrl": "",
                        "isERC1155": false,
                        "isERC721": false,
                        "sign": false,
                        "value": ""
                    }
                ]
            },
            {
                "account": "0xa15cae593233eb21838da7dc38c528f76b9704b6",
                "assets": [
                    {
                        "address": "0x426bf9e13b0bbd075cf8630817d5a8ce53f23156",
                        "amount": "1",
                        "iconUrl": "",
                        "isERC1155": false,
                        "isERC721": false,
                        "sign": false,
                        "value": ""
                    }
                ]
            },
            {
                "account": "0xaad40b953129a7e0c7246ec05e6fdb3716d37e7e",
                "assets": [
                    {
                        "address": "0x426bf9e13b0bbd075cf8630817d5a8ce53f23156",
                        "amount": "2.5",
                        "iconUrl": "",
                        "isERC1155": false,
                        "isERC721": false,
                        "sign": true,
                        "value": ""
                    }
                ]
            },
            {
                "account": "0xb1c2e6888ffe3e43051cc7cd7968ee2d3df99716",
                "assets": [
                    {
                        "address": "0x2a58d1e1ec0373f4d31b4d4c970d2769d9a392f7",
                        "amount": "640",
                        "iconUrl": "",
                        "isERC1155": false,
                        "isERC721": false,
                        "sign": false,
                        "value": ""
                    }
                ]
            },
            {
                "account": "0xdf8d3400d072cab8cd2d3683970a192ee6f62cb3",
                "assets": [
                    {
                        "address": "0x2a58d1e1ec0373f4d31b4d4c970d2769d9a392f7",
                        "amount": "200",
                        "iconUrl": "",
                        "isERC1155": false,
                        "isERC721": false,
                        "sign": true,
                        "value": ""
                    }
                ]
            },
            {
                "account": "0xf31ab569381ffdaa73c484e3b24befb163cd0a7c",
                "assets": [
                    {
                        "address": "0x97a2b84115c88c1acdea263221278c36c0959dba",
                        "amount": "4,830",
                        "iconUrl": "",
                        "isERC1155": false,
                        "isERC721": false,
                        "sign": true,
                        "value": ""
                    }
                ]
            }
        ]
    },
    "profile": {
        "basic_info": {
            "baseFee": "25.442748337",
            "blockNumber": 17750361,
            "callData": "0xa9059cbb000000000000000000000000000000000000000000000000000000000000008000000000000000000000000000000000000000000000000000000000000001e0000000000000000000000000000000000000000000000000000000000000034000000000000000000000000000000000000000000000000000000000000004a0000000000000000000000000000000000000000000000000000000000000000a0000000000000000000000009045e4a8cfcec1e965877ca9ce69a85e2aaaaeb400000000000000000000000011ac2de65f1e8e4886625340fa1fd6b49194fc160000000000000000000000000ffdf189a1319f4a68ad32ad30fed6c648ad1bda0000000000000000000000009f0cd9a51e20f676f87c95d1ab28fdf509185c1a00000000000000000000000011ac2de65f1e8e4886625340fa1fd6b49194fc16000000000000000000000000337f006b629e39f05f7241107f7766c88627ac94000000000000000000000000a15cae593233eb21838da7dc38c528f76b9704b6000000000000000000000000b1c2e6888ffe3e43051cc7cd7968ee2d3df997160000000000000000000000005d244f8b1d331e707d1eedf5504131402ff948da00000000000000000000000011ac2de65f1e8e4886625340fa1fd6b49194fc16000000000000000000000000000000000000000000000000000000000000000a00000000000000000000000096fd2f35a59e88ab6e2dd67a9b2efae80e090bcd000000000000000000000000f31ab569381ffdaa73c484e3b24befb163cd0a7c000000000000000000000000df8d3400d072cab8cd2d3683970a192ee6f62cb30000000000000000000000004493669df58986ed2814a2b01bf593e436851b6300000000000000000000000046aecd8e0e96a4e4f58b251a70ce1c402db82926000000000000000000000000aad40b953129a7e0c7246ec05e6fdb3716d37e7e00000000000000000000000054a0c6bc4b6167ac3ef9fe3b488c83d8d97ee3b50000000000000000000000004552554cac8522902c09d955d1e46a2ee02e4ad5000000000000000000000000311ebd7b664d8959d4371e001226a1b193a14795000000000000000000000000319e1023aacd42d81a44e01d3254df12a6cb6c23000000000000000000000000000000000000000000000000000000000000000a0000000000000000000000002a58d1e1ec0373f4d31b4d4c970d2769d9a392f700000000000000000000000097a2b84115c88c1acdea263221278c36c0959dba0000000000000000000000002a58d1e1ec0373f4d31b4d4c970d2769d9a392f700000000000000000000000097a2b84115c88c1acdea263221278c36c0959dba00000000000000000000000097a2b84115c88c1acdea263221278c36c0959dba000000000000000000000000426bf9e13b0bbd075cf8630817d5a8ce53f23156000000000000000000000000426bf9e13b0bbd075cf8630817d5a8ce53f231560000000000000000000000002a58d1e1ec0373f4d31b4d4c970d2769d9a392f70000000000000000000000002a58d1e1ec0373f4d31b4d4c970d2769d9a392f700000000000000000000000097a2b84115c88c1acdea263221278c36c0959dba000000000000000000000000000000000000000000000000000000000000000a000000000000000000000000000000000000000000000000000000174876e800000000000000000000000000000000000000000000000000000000011fe3f380000000000000000000000000000000000000000000000000000000000bebc200000000000000000000000000000000000000000000000000000000006379d9d0000000000000000000000000000000000000000000000000000000008f0d180000000000000000000000000000000000000000000000000022b1c8c1227a00000000000000000000000000000000000000000000000000000de0b6b3a7640000000000000000000000000000000000000000000000000000000000002625a0000000000000000000000000000000000000000000000000000000000165a0bc0000000000000000000000000000000000000000000000000000000000bbc12f80",
            "debugEnable": true,
            "errorInfo": "",
            "eventCount": 10,
            "feeRecipient": "0x5124fcc2b3f99f571ad67d075643c743f38f1c34",
            "formatValue": "0",
            "gasLimit": 100000,
            "gasPrice": "25.542748337",
            "gasUsed": 84988,
            "intTxnCount": 10,
            "internalRevert": false,
            "internalRevertMessage": "",
            "isContractCreation": false,
            "isFlashloan": false,
            "maxFee": "36.050042054",
            "nonce": 72,
            "overwritedBlockNumber": -1,
            "priorityFee": "0.1",
            "receiver": "0x05e25e2823022a43049504cc987d4f08e040f35d",
            "revertMessage": "",
            "sender": "0xe20ec8562d529b6b4aab774834c05b61d51b940a",
            "simulationEnable": true,
            "sourceTxnHash": "0x20cdb608e0290f19f75f239157d06e548e4db5f868d4edb0a11d9a3fba237da2",
            "status": true,
            "timestamp": "2023-07-22T18:09:11Z",
            "transactionFee": "0.002170827095664956",
            "txnHash": "0x20cdb608e0290f19f75f239157d06e548e4db5f868d4edb0a11d9a3fba237da2",
            "txnIndex": 110,
            "type": 2,
            "value": "0"
        },
        "fund_flow": [
            {
                "amount": "100,000",
                "from": "0x9045e4a8cfcec1e965877ca9ce69a85e2aaaaeb4",
                "id": 1,
                "isERC1155": false,
                "isERC721": false,
                "isReverted": false,
                "order": 1,
                "to": "0x96fd2f35a59e88ab6e2dd67a9b2efae80e090bcd",
                "token": "0x2a58d1e1ec0373f4d31b4d4c970d2769d9a392f7"
            },
            {
                "amount": "4,830",
                "from": "0x11ac2de65f1e8e4886625340fa1fd6b49194fc16",
                "id": 2,
                "isERC1155": false,
                "isERC721": false,
                "isReverted": false,
                "order": 2,
                "to": "0xf31ab569381ffdaa73c484e3b24befb163cd0a7c",
                "token": "0x97a2b84115c88c1acdea263221278c36c0959dba"
            },
            {
                "amount": "200",
                "from": "0x0ffdf189a1319f4a68ad32ad30fed6c648ad1bda",
                "id": 3,
                "isERC1155": false,
                "isERC721": false,
                "isReverted": false,
                "order": 3,
                "to": "0xdf8d3400d072cab8cd2d3683970a192ee6f62cb3",
                "token": "0x2a58d1e1ec0373f4d31b4d4c970d2769d9a392f7"
            },
            {
                "amount": "1,668.93",
                "from": "0x9f0cd9a51e20f676f87c95d1ab28fdf509185c1a",
                "id": 4,
                "isERC1155": false,
                "isERC721": false,
                "isReverted": false,
                "order": 4,
                "to": "0x4493669df58986ed2814a2b01bf593e436851b63",
                "token": "0x97a2b84115c88c1acdea263221278c36c0959dba"
            },
            {
                "amount": "2,400",
                "from": "0x11ac2de65f1e8e4886625340fa1fd6b49194fc16",
                "id": 5,
                "isERC1155": false,
                "isERC721": false,
                "isReverted": false,
                "order": 5,
                "to": "0x46aecd8e0e96a4e4f58b251a70ce1c402db82926",
                "token": "0x97a2b84115c88c1acdea263221278c36c0959dba"
            },
            {
                "amount": "2.5",
                "from": "0x337f006b629e39f05f7241107f7766c88627ac94",
                "id": 6,
                "isERC1155": false,
                "isERC721": false,
                "isReverted": false,
                "order": 6,
                "to": "0xaad40b953129a7e0c7246ec05e6fdb3716d37e7e",
                "token": "0x426bf9e13b0bbd075cf8630817d5a8ce53f23156"
            },
            {
                "amount": "1",
                "from": "0xa15cae593233eb21838da7dc38c528f76b9704b6",
                "id": 7,
                "isERC1155": false,
                "isERC721": false,
                "isReverted": false,
                "order": 7,
                "to": "0x54a0c6bc4b6167ac3ef9fe3b488c83d8d97ee3b5",
                "token": "0x426bf9e13b0bbd075cf8630817d5a8ce53f23156"
            },
            {
                "amount": "640",
                "from": "0xb1c2e6888ffe3e43051cc7cd7968ee2d3df99716",
                "id": 8,
                "isERC1155": false,
                "isERC721": false,
                "isReverted": false,
                "order": 8,
                "to": "0x4552554cac8522902c09d955d1e46a2ee02e4ad5",
                "token": "0x2a58d1e1ec0373f4d31b4d4c970d2769d9a392f7"
            },
            {
                "amount": "6,000",
                "from": "0x5d244f8b1d331e707d1eedf5504131402ff948da",
                "id": 9,
                "isERC1155": false,
                "isERC721": false,
                "isReverted": false,
                "order": 9,
                "to": "0x311ebd7b664d8959d4371e001226a1b193a14795",
                "token": "0x2a58d1e1ec0373f4d31b4d4c970d2769d9a392f7"
            },
            {
                "amount": "3,150",
                "from": "0x11ac2de65f1e8e4886625340fa1fd6b49194fc16",
                "id": 10,
                "isERC1155": false,
                "isERC721": false,
                "isReverted": false,
                "order": 10,
                "to": "0x319e1023aacd42d81a44e01d3254df12a6cb6c23",
                "token": "0x97a2b84115c88c1acdea263221278c36c0959dba"
            }
        ],
        "token_infos": [
            {
                "address": "0x2a58d1e1ec0373f4d31b4d4c970d2769d9a392f7",
                "decimals": 6
            },
            {
                "address": "0x426bf9e13b0bbd075cf8630817d5a8ce53f23156",
                "decimals": 18
            },
            {
                "address": "0x97a2b84115c88c1acdea263221278c36c0959dba",
                "decimals": 6
            },
            {
                "address": "0xc02aaa39b223fe8d0a0e5c4f27ead9083c756cc2",
                "decimals": 18
            },
            {
                "address": "0xeeeeeeeeeeeeeeeeeeeeeeeeeeeeeeeeeeeeeeee",
                "decimals": 18
            }
        ]
    },
    "address_label": {
        "labels": [
            {
                "address": "0x0000000000000000000000000000000000000002",
                "label": "Precompiled"
            },
            {
                "address": "0x0000000000000000000000000000000000000003",
                "label": "Precompiled"
            },
            {
                "address": "0x0000000000000000000000000000000000000004",
                "label": "Precompiled"
            },
            {
                "address": "0x97a2b84115c88c1acdea263221278c36c0959dba",
                "label": "Fake_Phishing185284"
            },
            {
                "address": "0x2a58d1e1ec0373f4d31b4d4c970d2769d9a392f7",
                "label": "Tet.....D"
            },
            {
                "address": "0x0000000000000000000000000000000000000001",
                "label": "Precompiled"
            },
            {
                "address": "0xeeeeeeeeeeeeeeeeeeeeeeeeeeeeeeeeeeeeeeee",
                "label": "Ether"
            },
            {
                "address": "0x9045e4a8cfcec1e965877ca9ce69a85e2aaaaeb4",
                "label": "OKEX"
            },
            {
                "address": "0x426bf9e13b0bbd075cf8630817d5a8ce53f23156",
                "label": "ETH"
            }
        ]
    },
    "trace": {
        "accountLabels": null,
        "dataMap": {
            "-1": {
                "invocation": {
                    "address": "0xe20ec8562d529b6b4aab774834c05b61d51b940a",
                    "callData": "",
                    "decodedMethod": null,
                    "errorInfo": "",
                    "fromAddress": "",
                    "gasUsed": 0,
                    "id": -1,
                    "methodDecoded": false,
                    "operation": "",
                    "output": "",
                    "revert": false,
                    "revertMessage": "",
                    "selector": "",
                    "status": false,
                    "value": ""
                },
                "nodeType": 0
            },
            "0": {
                "invocation": {
                    "address": "0x05e25e2823022a43049504cc987d4f08e040f35d",
                    "callData": "0x000000000000000000000000000000000000000000000000000000000000008000000000000000000000000000000000000000000000000000000000000001e0000000000000000000000000000000000000000000000000000000000000034000000000000000000000000000000000000000000000000000000000000004a0000000000000000000000000000000000000000000000000000000000000000a0000000000000000000000009045e4a8cfcec1e965877ca9ce69a85e2aaaaeb400000000000000000000000011ac2de65f1e8e4886625340fa1fd6b49194fc160000000000000000000000000ffdf189a1319f4a68ad32ad30fed6c648ad1bda0000000000000000000000009f0cd9a51e20f676f87c95d1ab28fdf509185c1a00000000000000000000000011ac2de65f1e8e4886625340fa1fd6b49194fc16000000000000000000000000337f006b629e39f05f7241107f7766c88627ac94000000000000000000000000a15cae593233eb21838da7dc38c528f76b9704b6000000000000000000000000b1c2e6888ffe3e43051cc7cd7968ee2d3df997160000000000000000000000005d244f8b1d331e707d1eedf5504131402ff948da00000000000000000000000011ac2de65f1e8e4886625340fa1fd6b49194fc16000000000000000000000000000000000000000000000000000000000000000a00000000000000000000000096fd2f35a59e88ab6e2dd67a9b2efae80e090bcd000000000000000000000000f31ab569381ffdaa73c484e3b24befb163cd0a7c000000000000000000000000df8d3400d072cab8cd2d3683970a192ee6f62cb30000000000000000000000004493669df58986ed2814a2b01bf593e436851b6300000000000000000000000046aecd8e0e96a4e4f58b251a70ce1c402db82926000000000000000000000000aad40b953129a7e0c7246ec05e6fdb3716d37e7e00000000000000000000000054a0c6bc4b6167ac3ef9fe3b488c83d8d97ee3b50000000000000000000000004552554cac8522902c09d955d1e46a2ee02e4ad5000000000000000000000000311ebd7b664d8959d4371e001226a1b193a14795000000000000000000000000319e1023aacd42d81a44e01d3254df12a6cb6c23000000000000000000000000000000000000000000000000000000000000000a0000000000000000000000002a58d1e1ec0373f4d31b4d4c970d2769d9a392f700000000000000000000000097a2b84115c88c1acdea263221278c36c0959dba0000000000000000000000002a58d1e1ec0373f4d31b4d4c970d2769d9a392f700000000000000000000000097a2b84115c88c1acdea263221278c36c0959dba00000000000000000000000097a2b84115c88c1acdea263221278c36c0959dba000000000000000000000000426bf9e13b0bbd075cf8630817d5a8ce53f23156000000000000000000000000426bf9e13b0bbd075cf8630817d5a8ce53f231560000000000000000000000002a58d1e1ec0373f4d31b4d4c970d2769d9a392f70000000000000000000000002a58d1e1ec0373f4d31b4d4c970d2769d9a392f700000000000000000000000097a2b84115c88c1acdea263221278c36c0959dba000000000000000000000000000000000000000000000000000000000000000a000000000000000000000000000000000000000000000000000000174876e800000000000000000000000000000000000000000000000000000000011fe3f380000000000000000000000000000000000000000000000000000000000bebc200000000000000000000000000000000000000000000000000000000006379d9d0000000000000000000000000000000000000000000000000000000008f0d180000000000000000000000000000000000000000000000000022b1c8c1227a00000000000000000000000000000000000000000000000000000de0b6b3a7640000000000000000000000000000000000000000000000000000000000002625a0000000000000000000000000000000000000000000000000000000000165a0bc0000000000000000000000000000000000000000000000000000000000bbc12f80",
                    "decodedMethod": {
                        "callParams": [
                            {
                                "name": "_to",
                                "type": "address",
                                "value": "0x0000000000000000000000000000000000000080"
                            },
                            {
                                "decimalAvailable": true,
                                "name": "_value",
                                "type": "uint256",
                                "value": "480"
                            }
                        ],
                        "constructorArguments": "",
                        "name": "transfer",
                        "returnParams": [],
                        "signature": "transfer(address,uint256)"
                    },
                    "errorInfo": "",
                    "fromAddress": "0xe20ec8562d529b6b4aab774834c05b61d51b940a",
                    "gasUsed": 84988,
                    "id": 0,
                    "methodDecoded": true,
                    "operation": "CALL",
                    "output": "",
                    "revert": false,
                    "revertMessage": "",
                    "selector": "0xa9059cbb",
                    "status": true,
                    "value": "0"
                },
                "nodeType": 0
            },
            "1": {
                "invocation": {
                    "address": "0x2a58d1e1ec0373f4d31b4d4c970d2769d9a392f7",
                    "callData": "0x0000000000000000000000009045e4a8cfcec1e965877ca9ce69a85e2aaaaeb400000000000000000000000096fd2f35a59e88ab6e2dd67a9b2efae80e090bcd000000000000000000000000000000000000000000000000000000174876e800",
                    "decodedMethod": {
                        "callParams": [
                            {
                                "name": "_from",
                                "type": "address",
                                "value": "0x9045e4a8cfcec1e965877ca9ce69a85e2aaaaeb4"
                            },
                            {
                                "name": "_to",
                                "type": "address",
                                "value": "0x96fd2f35a59e88ab6e2dd67a9b2efae80e090bcd"
                            },
                            {
                                "name": "_wad",
                                "type": "uint256",
                                "value": "100,000,000,000"
                            }
                        ],
                        "constructorArguments": "",
                        "name": "transfer",
                        "returnParams": [],
                        "signature": "transfer(address,address,uint256)"
                    },
                    "errorInfo": "",
                    "fromAddress": "0x05e25e2823022a43049504cc987d4f08e040f35d",
                    "gasUsed": 4500,
                    "id": 1,
                    "methodDecoded": true,
                    "operation": "CALL",
                    "output": "",
                    "revert": false,
                    "revertMessage": "",
                    "selector": "0xbeabacc8",
                    "status": true,
                    "value": "0"
                },
                "nodeType": 0
            },
            "10": {
                "event": {
                    "contract": "0x97a2b84115c88c1acdea263221278c36c0959dba",
                    "decodedLog": {
                        "name": "Transfer",
                        "params": [
                            {
                                "name": "from",
                                "type": "address",
                                "value": "0x11ac2de65f1e8e4886625340fa1fd6b49194fc16"
                            },
                            {
                                "name": "to",
                                "type": "address",
                                "value": "0x46aecd8e0e96a4e4f58b251a70ce1c402db82926"
                            },
                            {
                                "decimalAvailable": true,
                                "name": "value",
                                "type": "uint256",
                                "value": "2,400,000,000"
                            }
                        ],
                        "signature": "Transfer(address,address,uint256)"
                    },
                    "id": 10,
                    "logData": "0x000000000000000000000000000000000000000000000000000000008f0d1800",
                    "logDecoded": true,
                    "operation": "EVENT",
                    "revert": false,
                    "status": true,
                    "topics": [
                        "0xddf252ad1be2c89b69c2b068fc378daa952ba7f163c4a11628f55a4df523b3ef",
                        "0x00000000000000000000000011ac2de65f1e8e4886625340fa1fd6b49194fc16",
                        "0x00000000000000000000000046aecd8e0e96a4e4f58b251a70ce1c402db82926"
                    ]
                },
                "nodeType": 1
            },
            "11": {
                "invocation": {
                    "address": "0x426bf9e13b0bbd075cf8630817d5a8ce53f23156",
                    "callData": "0x000000000000000000000000337f006b629e39f05f7241107f7766c88627ac94000000000000000000000000aad40b953129a7e0c7246ec05e6fdb3716d37e7e00000000000000000000000000000000000000000000000022b1c8c1227a0000",
                    "decodedMethod": {
                        "callParams": [
                            {
                                "name": "_from",
                                "type": "address",
                                "value": "0x337f006b629e39f05f7241107f7766c88627ac94"
                            },
                            {
                                "name": "_to",
                                "type": "address",
                                "value": "0xaad40b953129a7e0c7246ec05e6fdb3716d37e7e"
                            },
                            {
                                "name": "_wad",
                                "type": "uint256",
                                "value": "2,500,000,000,000,000,000"
                            }
                        ],
                        "constructorArguments": "",
                        "name": "transfer",
                        "returnParams": [],
                        "signature": "transfer(address,address,uint256)"
                    },
                    "errorInfo": "",
                    "fromAddress": "0x05e25e2823022a43049504cc987d4f08e040f35d",
                    "gasUsed": 2382,
                    "id": 11,
                    "methodDecoded": true,
                    "operation": "CALL",
                    "output": "",
                    "revert": false,
                    "revertMessage": "",
                    "selector": "0xbeabacc8",
                    "status": true,
                    "value": "0"
                },
                "nodeType": 0
            },
            "12": {
                "event": {
                    "contract": "0x426bf9e13b0bbd075cf8630817d5a8ce53f23156",
                    "decodedLog": {
                        "name": "Transfer",
                        "params": [
                            {
                                "name": "from",
                                "type": "address",
                                "value": "0x337f006b629e39f05f7241107f7766c88627ac94"
                            },
                            {
                                "name": "to",
                                "type": "address",
                                "value": "0xaad40b953129a7e0c7246ec05e6fdb3716d37e7e"
                            },
                            {
                                "decimalAvailable": true,
                                "name": "value",
                                "type": "uint256",
                                "value": "2,500,000,000,000,000,000"
                            }
                        ],
                        "signature": "Transfer(address,address,uint256)"
                    },
                    "id": 12,
                    "logData": "0x00000000000000000000000000000000000000000000000022b1c8c1227a0000",
                    "logDecoded": true,
                    "operation": "EVENT",
                    "revert": false,
                    "status": true,
                    "topics": [
                        "0xddf252ad1be2c89b69c2b068fc378daa952ba7f163c4a11628f55a4df523b3ef",
                        "0x000000000000000000000000337f006b629e39f05f7241107f7766c88627ac94",
                        "0x000000000000000000000000aad40b953129a7e0c7246ec05e6fdb3716d37e7e"
                    ]
                },
                "nodeType": 1
            },
            "13": {
                "invocation": {
                    "address": "0x426bf9e13b0bbd075cf8630817d5a8ce53f23156",
                    "callData": "0x000000000000000000000000a15cae593233eb21838da7dc38c528f76b9704b600000000000000000000000054a0c6bc4b6167ac3ef9fe3b488c83d8d97ee3b50000000000000000000000000000000000000000000000000de0b6b3a7640000",
                    "decodedMethod": {
                        "callParams": [
                            {
                                "name": "_from",
                                "type": "address",
                                "value": "0xa15cae593233eb21838da7dc38c528f76b9704b6"
                            },
                            {
                                "name": "_to",
                                "type": "address",
                                "value": "0x54a0c6bc4b6167ac3ef9fe3b488c83d8d97ee3b5"
                            },
                            {
                                "name": "_wad",
                                "type": "uint256",
                                "value": "1,000,000,000,000,000,000"
                            }
                        ],
                        "constructorArguments": "",
                        "name": "transfer",
                        "returnParams": [],
                        "signature": "transfer(address,address,uint256)"
                    },
                    "errorInfo": "",
                    "fromAddress": "0x05e25e2823022a43049504cc987d4f08e040f35d",
                    "gasUsed": 2382,
                    "id": 13,
                    "methodDecoded": true,
                    "operation": "CALL",
                    "output": "",
                    "revert": false,
                    "revertMessage": "",
                    "selector": "0xbeabacc8",
                    "status": true,
                    "value": "0"
                },
                "nodeType": 0
            },
            "14": {
                "event": {
                    "contract": "0x426bf9e13b0bbd075cf8630817d5a8ce53f23156",
                    "decodedLog": {
                        "name": "Transfer",
                        "params": [
                            {
                                "name": "from",
                                "type": "address",
                                "value": "0xa15cae593233eb21838da7dc38c528f76b9704b6"
                            },
                            {
                                "name": "to",
                                "type": "address",
                                "value": "0x54a0c6bc4b6167ac3ef9fe3b488c83d8d97ee3b5"
                            },
                            {
                                "decimalAvailable": true,
                                "name": "value",
                                "type": "uint256",
                                "value": "1,000,000,000,000,000,000"
                            }
                        ],
                        "signature": "Transfer(address,address,uint256)"
                    },
                    "id": 14,
                    "logData": "0x0000000000000000000000000000000000000000000000000de0b6b3a7640000",
                    "logDecoded": true,
                    "operation": "EVENT",
                    "revert": false,
                    "status": true,
                    "topics": [
                        "0xddf252ad1be2c89b69c2b068fc378daa952ba7f163c4a11628f55a4df523b3ef",
                        "0x000000000000000000000000a15cae593233eb21838da7dc38c528f76b9704b6",
                        "0x00000000000000000000000054a0c6bc4b6167ac3ef9fe3b488c83d8d97ee3b5"
                    ]
                },
                "nodeType": 1
            },
            "15": {
                "invocation": {
                    "address": "0x2a58d1e1ec0373f4d31b4d4c970d2769d9a392f7",
                    "callData": "0x000000000000000000000000b1c2e6888ffe3e43051cc7cd7968ee2d3df997160000000000000000000000004552554cac8522902c09d955d1e46a2ee02e4ad5000000000000000000000000000000000000000000000000000000002625a000",
                    "decodedMethod": {
                        "callParams": [
                            {
                                "name": "_from",
                                "type": "address",
                                "value": "0xb1c2e6888ffe3e43051cc7cd7968ee2d3df99716"
                            },
                            {
                                "name": "_to",
                                "type": "address",
                                "value": "0x4552554cac8522902c09d955d1e46a2ee02e4ad5"
                            },
                            {
                                "name": "_wad",
                                "type": "uint256",
                                "value": "640,000,000"
                            }
                        ],
                        "constructorArguments": "",
                        "name": "transfer",
                        "returnParams": [],
                        "signature": "transfer(address,address,uint256)"
                    },
                    "errorInfo": "",
                    "fromAddress": "0x05e25e2823022a43049504cc987d4f08e040f35d",
                    "gasUsed": 2500,
                    "id": 15,
                    "methodDecoded": true,
                    "operation": "CALL",
                    "output": "",
                    "revert": false,
                    "revertMessage": "",
                    "selector": "0xbeabacc8",
                    "status": true,
                    "value": "0"
                },
                "nodeType": 0
            },
            "16": {
                "event": {
                    "contract": "0x2a58d1e1ec0373f4d31b4d4c970d2769d9a392f7",
                    "decodedLog": {
                        "name": "Transfer",
                        "params": [
                            {
                                "name": "from",
                                "type": "address",
                                "value": "0xb1c2e6888ffe3e43051cc7cd7968ee2d3df99716"
                            },
                            {
                                "name": "to",
                                "type": "address",
                                "value": "0x4552554cac8522902c09d955d1e46a2ee02e4ad5"
                            },
                            {
                                "decimalAvailable": true,
                                "name": "value",
                                "type": "uint256",
                                "value": "640,000,000"
                            }
                        ],
                        "signature": "Transfer(address,address,uint256)"
                    },
                    "id": 16,
                    "logData": "0x000000000000000000000000000000000000000000000000000000002625a000",
                    "logDecoded": true,
                    "operation": "EVENT",
                    "revert": false,
                    "status": true,
                    "topics": [
                        "0xddf252ad1be2c89b69c2b068fc378daa952ba7f163c4a11628f55a4df523b3ef",
                        "0x000000000000000000000000b1c2e6888ffe3e43051cc7cd7968ee2d3df99716",
                        "0x0000000000000000000000004552554cac8522902c09d955d1e46a2ee02e4ad5"
                    ]
                },
                "nodeType": 1
            },
            "17": {
                "invocation": {
                    "address": "0x2a58d1e1ec0373f4d31b4d4c970d2769d9a392f7",
                    "callData": "0x0000000000000000000000005d244f8b1d331e707d1eedf5504131402ff948da000000000000000000000000311ebd7b664d8959d4371e001226a1b193a147950000000000000000000000000000000000000000000000000000000165a0bc00",
                    "decodedMethod": {
                        "callParams": [
                            {
                                "name": "_from",
                                "type": "address",
                                "value": "0x5d244f8b1d331e707d1eedf5504131402ff948da"
                            },
                            {
                                "name": "_to",
                                "type": "address",
                                "value": "0x311ebd7b664d8959d4371e001226a1b193a14795"
                            },
                            {
                                "name": "_wad",
                                "type": "uint256",
                                "value": "6,000,000,000"
                            }
                        ],
                        "constructorArguments": "",
                        "name": "transfer",
                        "returnParams": [],
                        "signature": "transfer(address,address,uint256)"
                    },
                    "errorInfo": "",
                    "fromAddress": "0x05e25e2823022a43049504cc987d4f08e040f35d",
                    "gasUsed": 2500,
                    "id": 17,
                    "methodDecoded": true,
                    "operation": "CALL",
                    "output": "",
                    "revert": false,
                    "revertMessage": "",
                    "selector": "0xbeabacc8",
                    "status": true,
                    "value": "0"
                },
                "nodeType": 0
            },
            "18": {
                "event": {
                    "contract": "0x2a58d1e1ec0373f4d31b4d4c970d2769d9a392f7",
                    "decodedLog": {
                        "name": "Transfer",
                        "params": [
                            {
                                "name": "from",
                                "type": "address",
                                "value": "0x5d244f8b1d331e707d1eedf5504131402ff948da"
                            },
                            {
                                "name": "to",
                                "type": "address",
                                "value": "0x311ebd7b664d8959d4371e001226a1b193a14795"
                            },
                            {
                                "decimalAvailable": true,
                                "name": "value",
                                "type": "uint256",
                                "value": "6,000,000,000"
                            }
                        ],
                        "signature": "Transfer(address,address,uint256)"
                    },
                    "id": 18,
                    "logData": "0x0000000000000000000000000000000000000000000000000000000165a0bc00",
                    "logDecoded": true,
                    "operation": "EVENT",
                    "revert": false,
                    "status": true,
                    "topics": [
                        "0xddf252ad1be2c89b69c2b068fc378daa952ba7f163c4a11628f55a4df523b3ef",
                        "0x0000000000000000000000005d244f8b1d331e707d1eedf5504131402ff948da",
                        "0x000000000000000000000000311ebd7b664d8959d4371e001226a1b193a14795"
                    ]
                },
                "nodeType": 1
            },
            "19": {
                "invocation": {
                    "address": "0x97a2b84115c88c1acdea263221278c36c0959dba",
                    "callData": "0x00000000000000000000000011ac2de65f1e8e4886625340fa1fd6b49194fc16000000000000000000000000319e1023aacd42d81a44e01d3254df12a6cb6c2300000000000000000000000000000000000000000000000000000000bbc12f80",
                    "decodedMethod": {
                        "callParams": [
                            {
                                "name": "_from",
                                "type": "address",
                                "value": "0x11ac2de65f1e8e4886625340fa1fd6b49194fc16"
                            },
                            {
                                "name": "_to",
                                "type": "address",
                                "value": "0x319e1023aacd42d81a44e01d3254df12a6cb6c23"
                            },
                            {
                                "name": "_wad",
                                "type": "uint256",
                                "value": "3,150,000,000"
                            }
                        ],
                        "constructorArguments": "",
                        "name": "transfer",
                        "returnParams": [],
                        "signature": "transfer(address,address,uint256)"
                    },
                    "errorInfo": "",
                    "fromAddress": "0x05e25e2823022a43049504cc987d4f08e040f35d",
                    "gasUsed": 2500,
                    "id": 19,
                    "methodDecoded": true,
                    "operation": "CALL",
                    "output": "",
                    "revert": false,
                    "revertMessage": "",
                    "selector": "0xbeabacc8",
                    "status": true,
                    "value": "0"
                },
                "nodeType": 0
            },
            "2": {
                "event": {
                    "contract": "0x2a58d1e1ec0373f4d31b4d4c970d2769d9a392f7",
                    "decodedLog": {
                        "name": "Transfer",
                        "params": [
                            {
                                "name": "from",
                                "type": "address",
                                "value": "0x9045e4a8cfcec1e965877ca9ce69a85e2aaaaeb4"
                            },
                            {
                                "name": "to",
                                "type": "address",
                                "value": "0x96fd2f35a59e88ab6e2dd67a9b2efae80e090bcd"
                            },
                            {
                                "decimalAvailable": true,
                                "name": "value",
                                "type": "uint256",
                                "value": "100,000,000,000"
                            }
                        ],
                        "signature": "Transfer(address,address,uint256)"
                    },
                    "id": 2,
                    "logData": "0x000000000000000000000000000000000000000000000000000000174876e800",
                    "logDecoded": true,
                    "operation": "EVENT",
                    "revert": false,
                    "status": true,
                    "topics": [
                        "0xddf252ad1be2c89b69c2b068fc378daa952ba7f163c4a11628f55a4df523b3ef",
                        "0x0000000000000000000000009045e4a8cfcec1e965877ca9ce69a85e2aaaaeb4",
                        "0x00000000000000000000000096fd2f35a59e88ab6e2dd67a9b2efae80e090bcd"
                    ]
                },
                "nodeType": 1
            },
            "20": {
                "event": {
                    "contract": "0x97a2b84115c88c1acdea263221278c36c0959dba",
                    "decodedLog": {
                        "name": "Transfer",
                        "params": [
                            {
                                "name": "from",
                                "type": "address",
                                "value": "0x11ac2de65f1e8e4886625340fa1fd6b49194fc16"
                            },
                            {
                                "name": "to",
                                "type": "address",
                                "value": "0x319e1023aacd42d81a44e01d3254df12a6cb6c23"
                            },
                            {
                                "decimalAvailable": true,
                                "name": "value",
                                "type": "uint256",
                                "value": "3,150,000,000"
                            }
                        ],
                        "signature": "Transfer(address,address,uint256)"
                    },
                    "id": 20,
                    "logData": "0x00000000000000000000000000000000000000000000000000000000bbc12f80",
                    "logDecoded": true,
                    "operation": "EVENT",
                    "revert": false,
                    "status": true,
                    "topics": [
                        "0xddf252ad1be2c89b69c2b068fc378daa952ba7f163c4a11628f55a4df523b3ef",
                        "0x00000000000000000000000011ac2de65f1e8e4886625340fa1fd6b49194fc16",
                        "0x000000000000000000000000319e1023aacd42d81a44e01d3254df12a6cb6c23"
                    ]
                },
                "nodeType": 1
            },
            "3": {
                "invocation": {
                    "address": "0x97a2b84115c88c1acdea263221278c36c0959dba",
                    "callData": "0x00000000000000000000000011ac2de65f1e8e4886625340fa1fd6b49194fc16000000000000000000000000f31ab569381ffdaa73c484e3b24befb163cd0a7c000000000000000000000000000000000000000000000000000000011fe3f380",
                    "decodedMethod": {
                        "callParams": [
                            {
                                "name": "_from",
                                "type": "address",
                                "value": "0x11ac2de65f1e8e4886625340fa1fd6b49194fc16"
                            },
                            {
                                "name": "_to",
                                "type": "address",
                                "value": "0xf31ab569381ffdaa73c484e3b24befb163cd0a7c"
                            },
                            {
                                "name": "_wad",
                                "type": "uint256",
                                "value": "4,830,000,000"
                            }
                        ],
                        "constructorArguments": "",
                        "name": "transfer",
                        "returnParams": [],
                        "signature": "transfer(address,address,uint256)"
                    },
                    "errorInfo": "",
                    "fromAddress": "0x05e25e2823022a43049504cc987d4f08e040f35d",
                    "gasUsed": 4500,
                    "id": 3,
                    "methodDecoded": true,
                    "operation": "CALL",
                    "output": "",
                    "revert": false,
                    "revertMessage": "",
                    "selector": "0xbeabacc8",
                    "status": true,
                    "value": "0"
                },
                "nodeType": 0
            },
            "4": {
                "event": {
                    "contract": "0x97a2b84115c88c1acdea263221278c36c0959dba",
                    "decodedLog": {
                        "name": "Transfer",
                        "params": [
                            {
                                "name": "from",
                                "type": "address",
                                "value": "0x11ac2de65f1e8e4886625340fa1fd6b49194fc16"
                            },
                            {
                                "name": "to",
                                "type": "address",
                                "value": "0xf31ab569381ffdaa73c484e3b24befb163cd0a7c"
                            },
                            {
                                "decimalAvailable": true,
                                "name": "value",
                                "type": "uint256",
                                "value": "4,830,000,000"
                            }
                        ],
                        "signature": "Transfer(address,address,uint256)"
                    },
                    "id": 4,
                    "logData": "0x000000000000000000000000000000000000000000000000000000011fe3f380",
                    "logDecoded": true,
                    "operation": "EVENT",
                    "revert": false,
                    "status": true,
                    "topics": [
                        "0xddf252ad1be2c89b69c2b068fc378daa952ba7f163c4a11628f55a4df523b3ef",
                        "0x00000000000000000000000011ac2de65f1e8e4886625340fa1fd6b49194fc16",
                        "0x000000000000000000000000f31ab569381ffdaa73c484e3b24befb163cd0a7c"
                    ]
                },
                "nodeType": 1
            },
            "5": {
                "invocation": {
                    "address": "0x2a58d1e1ec0373f4d31b4d4c970d2769d9a392f7",
                    "callData": "0x0000000000000000000000000ffdf189a1319f4a68ad32ad30fed6c648ad1bda000000000000000000000000df8d3400d072cab8cd2d3683970a192ee6f62cb3000000000000000000000000000000000000000000000000000000000bebc200",
                    "decodedMethod": {
                        "callParams": [
                            {
                                "name": "_from",
                                "type": "address",
                                "value": "0x0ffdf189a1319f4a68ad32ad30fed6c648ad1bda"
                            },
                            {
                                "name": "_to",
                                "type": "address",
                                "value": "0xdf8d3400d072cab8cd2d3683970a192ee6f62cb3"
                            },
                            {
                                "name": "_wad",
                                "type": "uint256",
                                "value": "200,000,000"
                            }
                        ],
                        "constructorArguments": "",
                        "name": "transfer",
                        "returnParams": [],
                        "signature": "transfer(address,address,uint256)"
                    },
                    "errorInfo": "",
                    "fromAddress": "0x05e25e2823022a43049504cc987d4f08e040f35d",
                    "gasUsed": 2500,
                    "id": 5,
                    "methodDecoded": true,
                    "operation": "CALL",
                    "output": "",
                    "revert": false,
                    "revertMessage": "",
                    "selector": "0xbeabacc8",
                    "status": true,
                    "value": "0"
                },
                "nodeType": 0
            },
            "6": {
                "event": {
                    "contract": "0x2a58d1e1ec0373f4d31b4d4c970d2769d9a392f7",
                    "decodedLog": {
                        "name": "Transfer",
                        "params": [
                            {
                                "name": "from",
                                "type": "address",
                                "value": "0x0ffdf189a1319f4a68ad32ad30fed6c648ad1bda"
                            },
                            {
                                "name": "to",
                                "type": "address",
                                "value": "0xdf8d3400d072cab8cd2d3683970a192ee6f62cb3"
                            },
                            {
                                "decimalAvailable": true,
                                "name": "value",
                                "type": "uint256",
                                "value": "200,000,000"
                            }
                        ],
                        "signature": "Transfer(address,address,uint256)"
                    },
                    "id": 6,
                    "logData": "0x000000000000000000000000000000000000000000000000000000000bebc200",
                    "logDecoded": true,
                    "operation": "EVENT",
                    "revert": false,
                    "status": true,
                    "topics": [
                        "0xddf252ad1be2c89b69c2b068fc378daa952ba7f163c4a11628f55a4df523b3ef",
                        "0x0000000000000000000000000ffdf189a1319f4a68ad32ad30fed6c648ad1bda",
                        "0x000000000000000000000000df8d3400d072cab8cd2d3683970a192ee6f62cb3"
                    ]
                },
                "nodeType": 1
            },
            "7": {
                "invocation": {
                    "address": "0x97a2b84115c88c1acdea263221278c36c0959dba",
                    "callData": "0x0000000000000000000000009f0cd9a51e20f676f87c95d1ab28fdf509185c1a0000000000000000000000004493669df58986ed2814a2b01bf593e436851b63000000000000000000000000000000000000000000000000000000006379d9d0",
                    "decodedMethod": {
                        "callParams": [
                            {
                                "name": "_from",
                                "type": "address",
                                "value": "0x9f0cd9a51e20f676f87c95d1ab28fdf509185c1a"
                            },
                            {
                                "name": "_to",
                                "type": "address",
                                "value": "0x4493669df58986ed2814a2b01bf593e436851b63"
                            },
                            {
                                "name": "_wad",
                                "type": "uint256",
                                "value": "1,668,930,000"
                            }
                        ],
                        "constructorArguments": "",
                        "name": "transfer",
                        "returnParams": [],
                        "signature": "transfer(address,address,uint256)"
                    },
                    "errorInfo": "",
                    "fromAddress": "0x05e25e2823022a43049504cc987d4f08e040f35d",
                    "gasUsed": 2500,
                    "id": 7,
                    "methodDecoded": true,
                    "operation": "CALL",
                    "output": "",
                    "revert": false,
                    "revertMessage": "",
                    "selector": "0xbeabacc8",
                    "status": true,
                    "value": "0"
                },
                "nodeType": 0
            },
            "8": {
                "event": {
                    "contract": "0x97a2b84115c88c1acdea263221278c36c0959dba",
                    "decodedLog": {
                        "name": "Transfer",
                        "params": [
                            {
                                "name": "from",
                                "type": "address",
                                "value": "0x9f0cd9a51e20f676f87c95d1ab28fdf509185c1a"
                            },
                            {
                                "name": "to",
                                "type": "address",
                                "value": "0x4493669df58986ed2814a2b01bf593e436851b63"
                            },
                            {
                                "decimalAvailable": true,
                                "name": "value",
                                "type": "uint256",
                                "value": "1,668,930,000"
                            }
                        ],
                        "signature": "Transfer(address,address,uint256)"
                    },
                    "id": 8,
                    "logData": "0x000000000000000000000000000000000000000000000000000000006379d9d0",
                    "logDecoded": true,
                    "operation": "EVENT",
                    "revert": false,
                    "status": true,
                    "topics": [
                        "0xddf252ad1be2c89b69c2b068fc378daa952ba7f163c4a11628f55a4df523b3ef",
                        "0x0000000000000000000000009f0cd9a51e20f676f87c95d1ab28fdf509185c1a",
                        "0x0000000000000000000000004493669df58986ed2814a2b01bf593e436851b63"
                    ]
                },
                "nodeType": 1
            },
            "9": {
                "invocation": {
                    "address": "0x97a2b84115c88c1acdea263221278c36c0959dba",
                    "callData": "0x00000000000000000000000011ac2de65f1e8e4886625340fa1fd6b49194fc1600000000000000000000000046aecd8e0e96a4e4f58b251a70ce1c402db82926000000000000000000000000000000000000000000000000000000008f0d1800",
                    "decodedMethod": {
                        "callParams": [
                            {
                                "name": "_from",
                                "type": "address",
                                "value": "0x11ac2de65f1e8e4886625340fa1fd6b49194fc16"
                            },
                            {
                                "name": "_to",
                                "type": "address",
                                "value": "0x46aecd8e0e96a4e4f58b251a70ce1c402db82926"
                            },
                            {
                                "name": "_wad",
                                "type": "uint256",
                                "value": "2,400,000,000"
                            }
                        ],
                        "constructorArguments": "",
                        "name": "transfer",
                        "returnParams": [],
                        "signature": "transfer(address,address,uint256)"
                    },
                    "errorInfo": "",
                    "fromAddress": "0x05e25e2823022a43049504cc987d4f08e040f35d",
                    "gasUsed": 2500,
                    "id": 9,
                    "methodDecoded": true,
                    "operation": "CALL",
                    "output": "",
                    "revert": false,
                    "revertMessage": "",
                    "selector": "0xbeabacc8",
                    "status": true,
                    "value": "0"
                },
                "nodeType": 0
            }
        },
        "gasFlame": [
            {
                "children": [
                    {
                        "children": [
                            {
                                "children": [],
                                "depth": 0,
                                "name": "Initial Gas",
                                "value": 35008
                            },
                            {
                                "children": [
                                    {
                                        "children": [],
                                        "depth": 1,
                                        "name": "transfer",
                                        "value": 4500
                                    },
                                    {
                                        "children": [],
                                        "depth": 1,
                                        "name": "transfer",
                                        "value": 4500
                                    },
                                    {
                                        "children": [],
                                        "depth": 1,
                                        "name": "transfer",
                                        "value": 2500
                                    },
                                    {
                                        "children": [],
                                        "depth": 1,
                                        "name": "transfer",
                                        "value": 2500
                                    },
                                    {
                                        "children": [],
                                        "depth": 1,
                                        "name": "transfer",
                                        "value": 2500
                                    },
                                    {
                                        "children": [],
                                        "depth": 1,
                                        "name": "transfer",
                                        "value": 2382
                                    },
                                    {
                                        "children": [],
                                        "depth": 1,
                                        "name": "transfer",
                                        "value": 2382
                                    },
                                    {
                                        "children": [],
                                        "depth": 1,
                                        "name": "transfer",
                                        "value": 2500
                                    },
                                    {
                                        "children": [],
                                        "depth": 1,
                                        "name": "transfer",
                                        "value": 2500
                                    },
                                    {
                                        "children": [],
                                        "depth": 1,
                                        "name": "transfer",
                                        "value": 2500
                                    }
                                ],
                                "depth": 0,
                                "name": "Executed Gas",
                                "value": 49980
                            }
                        ],
                        "depth": -1,
                        "name": "Actual Gas Used",
                        "value": 84988
                    },
                    {
                        "children": [],
                        "depth": -1,
                        "name": "Refunded Gas",
                        "value": 0
                    }
                ],
                "depth": -2,
                "name": "Total Gas",
                "value": 84988
            }
        ],
        "isConfirmed": true,
        "mainTrace": [
            {
                "children": [
                    {
                        "children": [
                            {
                                "children": [
                                    {
                                        "children": [],
                                        "depth": 2,
                                        "id": 2,
                                        "order": 2
                                    }
                                ],
                                "depth": 1,
                                "id": 1,
                                "order": 1
                            },
                            {
                                "children": [
                                    {
                                        "children": [],
                                        "depth": 2,
                                        "id": 4,
                                        "order": 4
                                    }
                                ],
                                "depth": 1,
                                "id": 3,
                                "order": 3
                            },
                            {
                                "children": [
                                    {
                                        "children": [],
                                        "depth": 2,
                                        "id": 6,
                                        "order": 6
                                    }
                                ],
                                "depth": 1,
                                "id": 5,
                                "order": 5
                            },
                            {
                                "children": [
                                    {
                                        "children": [],
                                        "depth": 2,
                                        "id": 8,
                                        "order": 8
                                    }
                                ],
                                "depth": 1,
                                "id": 7,
                                "order": 7
                            },
                            {
                                "children": [
                                    {
                                        "children": [],
                                        "depth": 2,
                                        "id": 10,
                                        "order": 10
                                    }
                                ],
                                "depth": 1,
                                "id": 9,
                                "order": 9
                            },
                            {
                                "children": [
                                    {
                                        "children": [],
                                        "depth": 2,
                                        "id": 12,
                                        "order": 12
                                    }
                                ],
                                "depth": 1,
                                "id": 11,
                                "order": 11
                            },
                            {
                                "children": [
                                    {
                                        "children": [],
                                        "depth": 2,
                                        "id": 14,
                                        "order": 14
                                    }
                                ],
                                "depth": 1,
                                "id": 13,
                                "order": 13
                            },
                            {
                                "children": [
                                    {
                                        "children": [],
                                        "depth": 2,
                                        "id": 16,
                                        "order": 16
                                    }
                                ],
                                "depth": 1,
                                "id": 15,
                                "order": 15
                            },
                            {
                                "children": [
                                    {
                                        "children": [],
                                        "depth": 2,
                                        "id": 18,
                                        "order": 18
                                    }
                                ],
                                "depth": 1,
                                "id": 17,
                                "order": 17
                            },
                            {
                                "children": [
                                    {
                                        "children": [],
                                        "depth": 2,
                                        "id": 20,
                                        "order": 20
                                    }
                                ],
                                "depth": 1,
                                "id": 19,
                                "order": 19
                            }
                        ],
                        "depth": 0,
                        "id": 0,
                        "order": 0
                    }
                ],
                "depth": -1,
                "id": -1,
                "order": -1
            }
        ],
        "mainTraceNodeCount": 21,
        "parentIdMap": {
            "0": -1,
            "1": 0,
            "10": 9,
            "11": 0,
            "12": 11,
            "13": 0,
            "14": 13,
            "15": 0,
            "16": 15,
            "17": 0,
            "18": 17,
            "19": 0,
            "2": 1,
            "20": 19,
            "3": 0,
            "4": 3,
            "5": 0,
            "6": 5,
            "7": 0,
            "8": 7,
            "9": 0
        },
        "tidyTrace": [
            {
                "children": [
                    {
                        "children": [
                            {
                                "children": [
                                    {
                                        "children": [],
                                        "depth": 2,
                                        "id": 2,
                                        "order": 2
                                    }
                                ],
                                "depth": 1,
                                "id": 1,
                                "order": 1
                            },
                            {
                                "children": [
                                    {
                                        "children": [],
                                        "depth": 2,
                                        "id": 4,
                                        "order": 4
                                    }
                                ],
                                "depth": 1,
                                "id": 3,
                                "order": 3
                            },
                            {
                                "children": [
                                    {
                                        "children": [],
                                        "depth": 2,
                                        "id": 6,
                                        "order": 6
                                    }
                                ],
                                "depth": 1,
                                "id": 5,
                                "order": 5
                            },
                            {
                                "children": [
                                    {
                                        "children": [],
                                        "depth": 2,
                                        "id": 8,
                                        "order": 8
                                    }
                                ],
                                "depth": 1,
                                "id": 7,
                                "order": 7
                            },
                            {
                                "children": [
                                    {
                                        "children": [],
                                        "depth": 2,
                                        "id": 10,
                                        "order": 10
                                    }
                                ],
                                "depth": 1,
                                "id": 9,
                                "order": 9
                            },
                            {
                                "children": [
                                    {
                                        "children": [],
                                        "depth": 2,
                                        "id": 12,
                                        "order": 12
                                    }
                                ],
                                "depth": 1,
                                "id": 11,
                                "order": 11
                            },
                            {
                                "children": [
                                    {
                                        "children": [],
                                        "depth": 2,
                                        "id": 14,
                                        "order": 14
                                    }
                                ],
                                "depth": 1,
                                "id": 13,
                                "order": 13
                            },
                            {
                                "children": [
                                    {
                                        "children": [],
                                        "depth": 2,
                                        "id": 16,
                                        "order": 16
                                    }
                                ],
                                "depth": 1,
                                "id": 15,
                                "order": 15
                            },
                            {
                                "children": [
                                    {
                                        "children": [],
                                        "depth": 2,
                                        "id": 18,
                                        "order": 18
                                    }
                                ],
                                "depth": 1,
                                "id": 17,
                                "order": 17
                            },
                            {
                                "children": [
                                    {
                                        "children": [],
                                        "depth": 2,
                                        "id": 20,
                                        "order": 20
                                    }
                                ],
                                "depth": 1,
                                "id": 19,
                                "order": 19
                            }
                        ],
                        "depth": 0,
                        "id": 0,
                        "order": 0
                    }
                ],
                "depth": -1,
                "id": -1,
                "order": -1
            }
        ],
        "tidyTraceNodeCount": 21
    },
    "state_change": {
        "stateChanges": []
    }
}