{
    "balance_change": {
        "balanceChanges": [
            {
                "account": "0xc4ba1bd37c356e088a952d63f74099d1e611a3f9",
                "assets": [
                    {
                        "address": "0xeeeeeeeeeeeeeeeeeeeeeeeeeeeeeeeeeeeeeeee",
                        "amount": "0.03",
                        "iconUrl": "https://assets.blocksec.com/image/1663669189317-3.png",
                        "isERC1155": false,
                        "isERC721": false,
                        "sign": false,
                        "value": "3.8648573699999997188"
                    }
                ]
            },
            {
                "account": "0x9308e7e07ed533847f494099867e24092ca94a30",
                "assets": [
                    {
                        "address": "0xeeeeeeeeeeeeeeeeeeeeeeeeeeeeeeeeeeeeeeee",
                        "amount": "0.03",
                        "iconUrl": "https://assets.blocksec.com/image/1663669189317-3.png",
                        "isERC1155": false,
                        "isERC721": false,
                        "sign": true,
                        "value": "3.8648573699999997188"
                    }
                ]
            }
        ]
    },
    "profile": {
        "basic_info": {
            "baseFee": "",
            "blockNumber": 9338985,
            "callData": "0x8853b53e000000000000000000000000000000000000000000000000000000000001125a",
            "debugEnable": true,
            "errorInfo": "",
            "eventCount": 2,
            "feeRecipient": "0xea674fdde714fd979de3edf0f56aa9716b898ec8",
            "formatValue": "0.03",
            "gasLimit": 258389,
            "gasPrice": "15",
            "gasUsed": 198761,
            "intTxnCount": 1,
            "internalRevert": false,
            "internalRevertMessage": "",
            "isContractCreation": false,
            "isFlashloan": false,
            "maxFee": "",
            "nonce": 1,
            "overwritedBlockNumber": -1,
            "priorityFee": "",
            "receiver": "0xbcf935d206ca32929e1b887a07ed240f0d8ccd22",
            "revertMessage": "",
            "sender": "0xc4ba1bd37c356e088a952d63f74099d1e611a3f9",
            "simulationEnable": true,
            "sourceTxnHash": "0x20a930c9cc87bbe776fe5031e2d1f17479230c7b3f8e36f3a5e744a014427758",
            "status": true,
            "timestamp": "2020-01-23T16:18:45Z",
            "transactionFee": "0.002981415",
            "txnHash": "0x20a930c9cc87bbe776fe5031e2d1f17479230c7b3f8e36f3a5e744a014427758",
            "txnIndex": 10,
            "type": 0,
            "value": "30000000000000000"
        },
        "fund_flow": [
            {
                "amount": "0.03",
                "from": "0xc4ba1bd37c356e088a952d63f74099d1e611a3f9",
                "id": 1,
                "isERC1155": false,
                "isERC721": false,
                "isReverted": false,
                "order": 1,
                "to": "0xbcf935d206ca32929e1b887a07ed240f0d8ccd22",
                "token": "0xeeeeeeeeeeeeeeeeeeeeeeeeeeeeeeeeeeeeeeee"
            },
            {
                "amount": "0.03",
                "from": "0xbcf935d206ca32929e1b887a07ed240f0d8ccd22",
                "id": 2,
                "isERC1155": false,
                "isERC721": false,
                "isReverted": false,
                "order": 2,
                "to": "0x9308e7e07ed533847f494099867e24092ca94a30",
                "token": "0xeeeeeeeeeeeeeeeeeeeeeeeeeeeeeeeeeeeeeeee"
            }
        ],
        "token_infos": [
            {
                "address": "0xc02aaa39b223fe8d0a0e5c4f27ead9083c756cc2",
                "decimals": 18
            },
            {
                "address": "0xeeeeeeeeeeeeeeeeeeeeeeeeeeeeeeeeeeeeeeee",
                "decimals": 18
            }
        ]
    },
    "address_label": {
        "labels": [
            {
                "address": "0xbcf935d206ca32929e1b887a07ed240f0d8ccd22",
                "label": "Million.Money"
            },
            {
                "address": "0x0000000000000000000000000000000000000001",
                "label": "Precompiled"
            },
            {
                "address": "0x0000000000000000000000000000000000000002",
                "label": "Precompiled"
            },
            {
                "address": "0x0000000000000000000000000000000000000003",
                "label": "Precompiled"
            },
            {
                "address": "0x0000000000000000000000000000000000000004",
                "label": "Precompiled"
            },
            {
                "address": "0xeeeeeeeeeeeeeeeeeeeeeeeeeeeeeeeeeeeeeeee",
                "label": "Ether"
            }
        ]
    },
    "trace": {
        "accountLabels": null,
        "dataMap": {
            "-1": {
                "invocation": {
                    "address": "0xc4ba1bd37c356e088a952d63f74099d1e611a3f9",
                    "callData": "",
                    "decodedMethod": null,
                    "errorInfo": "",
                    "fromAddress": "",
                    "gasUsed": 0,
                    "id": -1,
                    "methodDecoded": false,
                    "operation": "",
                    "output": "",
                    "revert": false,
                    "revertMessage": "",
                    "selector": "",
                    "status": false,
                    "value": ""
                },
                "nodeType": 0
            },
            "0": {
                "invocation": {
                    "address": "0xbcf935d206ca32929e1b887a07ed240f0d8ccd22",
                    "callData": "0x000000000000000000000000000000000000000000000000000000000001125a",
                    "decodedMethod": {
                        "callParams": [
                            {
                                "name": "_referrerID",
                                "type": "uint256",
                                "value": "70,234"
                            }
                        ],
                        "constructorArguments": "",
                        "name": "regUser",
                        "returnParams": [],
                        "signature": "regUser(uint256)"
                    },
                    "errorInfo": "",
                    "fromAddress": "0xc4ba1bd37c356e088a952d63f74099d1e611a3f9",
                    "gasUsed": 198761,
                    "id": 0,
                    "methodDecoded": true,
                    "operation": "CALL",
                    "output": "",
                    "revert": false,
                    "revertMessage": "",
                    "selector": "0x8853b53e",
                    "status": true,
                    "value": "0.03"
                },
                "nodeType": 0
            },
            "1": {
                "invocation": {
                    "address": "0x9308e7e07ed533847f494099867e24092ca94a30",
                    "callData": "0x",
                    "decodedMethod": null,
                    "errorInfo": "",
                    "fromAddress": "0xbcf935d206ca32929e1b887a07ed240f0d8ccd22",
                    "gasUsed": 0,
                    "id": 1,
                    "methodDecoded": false,
                    "operation": "CALL",
                    "output": "",
                    "revert": false,
                    "revertMessage": "",
                    "selector": "fallback",
                    "status": true,
                    "value": "0.03"
                },
                "nodeType": 0
            },
            "2": {
                "event": {
                    "contract": "0xbcf935d206ca32929e1b887a07ed240f0d8ccd22",
                    "decodedLog": {
                        "name": "getMoneyForLevelEvent",
                        "params": [
                            {
                                "name": "_user",
                                "type": "address",
                                "value": "0x9308e7e07ed533847f494099867e24092ca94a30"
                            },
                            {
                                "name": "_referral",
                                "type": "address",
                                "value": "0xc4ba1bd37c356e088a952d63f74099d1e611a3f9"
                            },
                            {
                                "name": "_level",
                                "type": "uint256",
                                "value": "1"
                            },
                            {
                                "name": "_time",
                                "type": "uint256",
                                "value": "1,579,796,325"
                            }
                        ],
                        "signature": "getMoneyForLevelEvent(address,address,uint256,uint256)"
                    },
                    "id": 2,
                    "logData": "0x0000000000000000000000000000000000000000000000000000000000000001000000000000000000000000000000000000000000000000000000005e29c765",
                    "logDecoded": true,
                    "operation": "EVENT",
                    "revert": false,
                    "status": true,
                    "topics": [
                        "0xce7dc747411ac40191c5335943fcc79d8c2d8c01ca5ae83d9fed160409fa6120",
                        "0x0000000000000000000000009308e7e07ed533847f494099867e24092ca94a30",
                        "0x000000000000000000000000c4ba1bd37c356e088a952d63f74099d1e611a3f9"
                    ]
                },
                "nodeType": 1
            },
            "3": {
                "event": {
                    "contract": "0xbcf935d206ca32929e1b887a07ed240f0d8ccd22",
                    "decodedLog": {
                        "name": "regLevelEvent",
                        "params": [
                            {
                                "name": "_user",
                                "type": "address",
                                "value": "0xc4ba1bd37c356e088a952d63f74099d1e611a3f9"
                            },
                            {
                                "name": "_referrer",
                                "type": "address",
                                "value": "0x9308e7e07ed533847f494099867e24092ca94a30"
                            },
                            {
                                "name": "_time",
                                "type": "uint256",
                                "value": "1,579,796,325"
                            }
                        ],
                        "signature": "regLevelEvent(address,address,uint256)"
                    },
                    "id": 3,
                    "logData": "0x000000000000000000000000000000000000000000000000000000005e29c765",
                    "logDecoded": true,
                    "operation": "EVENT",
                    "revert": false,
                    "status": true,
                    "topics": [
                        "0x788c06d2405ae89dd3f0528d38be7691289474d72176408bc2c2406dc5e342f1",
                        "0x000000000000000000000000c4ba1bd37c356e088a952d63f74099d1e611a3f9",
                        "0x0000000000000000000000009308e7e07ed533847f494099867e24092ca94a30"
                    ]
                },
                "nodeType": 1
            }
        },
        "gasFlame": [
            {
                "children": [
                    {
                        "children": [
                            {
                                "children": [],
                                "depth": 0,
                                "name": "Initial Gas",
                                "value": 21228
                            },
                            {
                                "children": [
                                    {
                                        "children": [],
                                        "depth": 1,
                                        "name": "fallback",
                                        "value": 0
                                    }
                                ],
                                "depth": 0,
                                "name": "Executed Gas",
                                "value": 177533
                            }
                        ],
                        "depth": -1,
                        "name": "Actual Gas Used",
                        "value": 198761
                    },
                    {
                        "children": [],
                        "depth": -1,
                        "name": "Refunded Gas",
                        "value": 0
                    }
                ],
                "depth": -2,
                "name": "Total Gas",
                "value": 198761
            }
        ],
        "isConfirmed": true,
        "mainTrace": [
            {
                "children": [
                    {
                        "children": [
                            {
                                "children": [],
                                "depth": 1,
                                "id": 1,
                                "order": 1
                            },
                            {
                                "children": [],
                                "depth": 1,
                                "id": 2,
                                "order": 2
                            },
                            {
                                "children": [],
                                "depth": 1,
                                "id": 3,
                                "order": 3
                            }
                        ],
                        "depth": 0,
                        "id": 0,
                        "order": 0
                    }
                ],
                "depth": -1,
                "id": -1,
                "order": -1
            }
        ],
        "mainTraceNodeCount": 4,
        "parentIdMap": {
            "0": -1,
            "1": 0,
            "2": 0,
            "3": 0
        },
        "tidyTrace": [
            {
                "children": [
                    {
                        "children": [
                            {
                                "children": [],
                                "depth": 1,
                                "id": 1,
                                "order": 1
                            },
                            {
                                "children": [],
                                "depth": 1,
                                "id": 2,
                                "order": 2
                            },
                            {
                                "children": [],
                                "depth": 1,
                                "id": 3,
                                "order": 3
                            }
                        ],
                        "depth": 0,
                        "id": 0,
                        "order": 0
                    }
                ],
                "depth": -1,
                "id": -1,
                "order": -1
            }
        ],
        "tidyTraceNodeCount": 4
    },
    "state_change": {
        "stateChanges": [
            {
                "address": "0xbcf935d206ca32929e1b887a07ed240f0d8ccd22",
                "erc": "",
                "slots": [
                    {
                        "current": "0x000000000000000000000000000000000000000000000000000000000001125a",
                        "key": "0x5a408d46634b349173a86719d6a6f76f23ecd77328c8d95a07af526c3ef238f7",
                        "prev": "0x0000000000000000000000000000000000000000000000000000000000000000"
                    },
                    {
                        "current": "0x000000000000000000000000c4ba1bd37c356e088a952d63f74099d1e611a3f9",
                        "key": "0x96b07b8ca6c552731c8f385ee77199d56393dbc87463b7e3e942909310f91f18",
                        "prev": "0x0000000000000000000000000000000000000000000000000000000000000000"
                    },
                    {
                        "current": "0x000000000000000000000000000000000000000000000000000000005ead9d65",
                        "key": "0x244bbf5bcfe23ac730456166436c0b967aa347808d613e4a9ce81e41f3820f99",
                        "prev": "0x0000000000000000000000000000000000000000000000000000000000000000"
                    },
                    {
                        "current": "0x0000000000000000000000000000000000000000000000000000000000000001",
                        "key": "0x6ee69bdb1bd2c634d9c2e95c97bd993d19bddcd42d30975129dfe19748a3c103",
                        "prev": "0x0000000000000000000000000000000000000000000000000000000000000000"
                    },
                    {
                        "current": "0x000000000000000000000000c4ba1bd37c356e088a952d63f74099d1e611a3f9",
                        "key": "0x0a629bbbe2935da0f1d41e2359fb61f18a2f6719b98524ff3e78c6d8513640e8",
                        "prev": "0x0000000000000000000000000000000000000000000000000000000000000000"
                    },
                    {
                        "current": "0x000000000000000000000000000000000000000000000000000000000001391b",
                        "key": "0x0000000000000000000000000000000000000000000000000000000000000008",
                        "prev": "0x000000000000000000000000000000000000000000000000000000000001391a"
                    },
                    {
                        "current": "0x0000000000000000000000000000000000000000000000000000000000000001",
                        "key": "0x5a408d46634b349173a86719d6a6f76f23ecd77328c8d95a07af526c3ef238f5",
                        "prev": "0x0000000000000000000000000000000000000000000000000000000000000000"
                    },
                    {
                        "current": "0x000000000000000000000000000000000000000000000000000000000001391b",
                        "key": "0x5a408d46634b349173a86719d6a6f76f23ecd77328c8d95a07af526c3ef238f6",
                        "prev": "0x0000000000000000000000000000000000000000000000000000000000000000"
                    }
                ],
                "storageVariables": [
                    {
                        "name": "userList",
                        "type": "mapping(uint256 => address)",
                        "value": {
                            "pairs": [
                                {
                                    "key": "80155",
                                    "value": {
                                        "current": "0xc4ba1bd37c356e088a952d63f74099d1e611a3f9",
                                        "prev": "0x0000000000000000000000000000000000000000",
                                        "typeTag": 1
                                    }
                                }
                            ],
                            "typeTag": 4
                        }
                    },
                    {
                        "name": "users",
                        "type": "mapping(address => struct MillionMoney.UserStruct)",
                        "value": {
                            "pairs": [
                                {
                                    "key": "0x9308e7e07ed533847f494099867e24092ca94a30",
                                    "value": {
                                        "fields": [
                                            {
                                                "name": "referral",
                                                "type": "address[]",
                                                "value": {
                                                    "elemType": "address",
                                                    "elems": [
                                                        {
                                                            "index": 0,
                                                            "value": {
                                                                "current": "0xc4ba1bd37c356e088a952d63f74099d1e611a3f9",
                                                                "prev": "0x0000000000000000000000000000000000000000",
                                                                "typeTag": 1
                                                            }
                                                        }
                                                    ],
                                                    "typeTag": 2
                                                }
                                            }
                                        ],
                                        "typeTag": 3
                                    }
                                },
                                {
                                    "key": "0xc4ba1bd37c356e088a952d63f74099d1e611a3f9",
                                    "value": {
                                        "fields": [
                                            {
                                                "name": "isExist",
                                                "type": "bool",
                                                "value": {
                                                    "current": "true",
                                                    "prev": "false",
                                                    "typeTag": 1
                                                }
                                            },
                                            {
                                                "name": "id",
                                                "type": "uint256",
                                                "value": {
                                                    "current": "80155",
                                                    "prev": "0",
                                                    "typeTag": 1
                                                }
                                            },
                                            {
                                                "name": "referrerID",
                                                "type": "uint256",
                                                "value": {
                                                    "current": "70234",
                                                    "prev": "0",
                                                    "typeTag": 1
                                                }
                                            },
                                            {
                                                "name": "levelExpired",
                                                "type": "mapping(uint256 => uint256)",
                                                "value": {
                                                    "pairs": [
                                                        {
                                                            "key": "1",
                                                            "value": {
                                                                "current": "1588436325",
                                                                "prev": "0",
                                                                "typeTag": 1
                                                            }
                                                        }
                                                    ],
                                                    "typeTag": 4
                                                }
                                            }
                                        ],
                                        "typeTag": 3
                                    }
                                }
                            ],
                            "typeTag": 4
                        }
                    },
                    {
                        "name": "currUserID",
                        "type": "uint256",
                        "value": {
                            "current": "80155",
                            "prev": "80154",
                            "typeTag": 1
                        }
                    }
                ]
            }
        ]
    }
}