{
    "balance_change": {
        "balanceChanges": [
            {
                "account": "0xcbbe381fb789245ea45d5bbed966266ac84ec857",
                "assets": [
                    {
                        "address": "0xeeeeeeeeeeeeeeeeeeeeeeeeeeeeeeeeeeeeeeee",
                        "amount": "0.00132",
                        "iconUrl": "https://assets.blocksec.com/image/1663669189317-3.png",
                        "isERC1155": false,
                        "isERC721": false,
                        "sign": false,
                        "value": "1.61409599999999994"
                    },
                    {
                        "address": "0xf4d2888d29d722226fafa5d9b24f9164c092421e",
                        "amount": "10.961748212215401782",
                        "iconUrl": "",
                        "isERC1155": false,
                        "isERC721": false,
                        "sign": true,
                        "value": "3.80643762"
                    }
                ]
            },
            {
                "account": "0x4b5ab61593a2401b1075b90c04cbcdd3f87ce011",
                "assets": [
                    {
                        "address": "0xf4d2888d29d722226fafa5d9b24f9164c092421e",
                        "amount": "10.961748212215401782",
                        "iconUrl": "",
                        "isERC1155": false,
                        "isERC721": false,
                        "sign": false,
                        "value": "3.80643762"
                    },
                    {
                        "address": "0xc02aaa39b223fe8d0a0e5c4f27ead9083c756cc2",
                        "amount": "0.00132",
                        "iconUrl": "https://assets.blocksec.com/icon/f1cb2d02c471d545bbc7722daf3277fd852d98e63d118771af7047bd8256c516.png",
                        "isERC1155": false,
                        "isERC721": false,
                        "sign": true,
                        "value": "1.61409599999999994"
                    }
                ]
            },
            {
                "account": "0xc02aaa39b223fe8d0a0e5c4f27ead9083c756cc2",
                "assets": [
                    {
                        "address": "0xeeeeeeeeeeeeeeeeeeeeeeeeeeeeeeeeeeeeeeee",
                        "amount": "0.00132",
                        "iconUrl": "https://assets.blocksec.com/image/1663669189317-3.png",
                        "isERC1155": false,
                        "isERC721": false,
                        "sign": true,
                        "value": "1.61409599999999994"
                    },
                    {
                        "address": "0xc02aaa39b223fe8d0a0e5c4f27ead9083c756cc2",
                        "amount": "0.00132",
                        "iconUrl": "https://assets.blocksec.com/icon/f1cb2d02c471d545bbc7722daf3277fd852d98e63d118771af7047bd8256c516.png",
                        "isERC1155": false,
                        "isERC721": false,
                        "sign": false,
                        "value": "1.61409599999999994"
                    }
                ]
            }
        ]
    },
    "profile": {
        "basic_info": {
            "baseFee": "11.625424042",
            "blockNumber": 16247030,
            "callData": "0x5ae401dc0000000000000000000000000000000000000000000000000000000063a5936b00000000000000000000000000000000000000000000000000000000000000400000000000000000000000000000000000000000000000000000000000000001000000000000000000000000000000000000000000000000000000000000002000000000000000000000000000000000000000000000000000000000000000e404e45aaf000000000000000000000000c02aaa39b223fe8d0a0e5c4f27ead9083c756cc2000000000000000000000000f4d2888d29d722226fafa5d9b24f9164c092421e0000000000000000000000000000000000000000000000000000000000000bb8000000000000000000000000cbbe381fb789245ea45d5bbed966266ac84ec8570000000000000000000000000000000000000000000000000004b088731a800000000000000000000000000000000000000000000000000089da17742c71a120000000000000000000000000000000000000000000000000000000000000000000000000000000000000000000000000000000000000000000000000",
            "debugEnable": true,
            "errorInfo": "",
            "eventCount": 4,
            "feeRecipient": "0xbd3afb0bb76683ecb4225f9dbc91f998713c3b01",
            "formatValue": "0.00132",
            "gasLimit": 157975,
            "gasPrice": "13.125424042",
            "gasUsed": 107720,
            "intTxnCount": 8,
            "internalRevert": false,
            "internalRevertMessage": "",
            "isContractCreation": false,
            "isFlashloan": false,
            "maxFee": "16.53948668",
            "nonce": 23,
            "overwritedBlockNumber": -1,
            "priorityFee": "1.5",
            "receiver": "0x68b3465833fb72a70ecdf485e0e4c7bd8665fc45",
            "revertMessage": "",
            "sender": "0xcbbe381fb789245ea45d5bbed966266ac84ec857",
            "simulationEnable": true,
            "sourceTxnHash": "0x2000fb703e6651ad417c2d733fc6f6dd80e1a091614912e17ec22723714c3bf9",
            "status": true,
            "timestamp": "2022-12-23T11:09:59Z",
            "transactionFee": "0.00141387067780424",
            "txnHash": "0x2000fb703e6651ad417c2d733fc6f6dd80e1a091614912e17ec22723714c3bf9",
            "txnIndex": 60,
            "type": 2,
            "value": "1320000000000000"
        },
        "fund_flow": [
            {
                "amount": "0.00132",
                "from": "0xcbbe381fb789245ea45d5bbed966266ac84ec857",
                "id": 1,
                "isERC1155": false,
                "isERC721": false,
                "isReverted": false,
                "order": 1,
                "to": "0x68b3465833fb72a70ecdf485e0e4c7bd8665fc45",
                "token": "0xeeeeeeeeeeeeeeeeeeeeeeeeeeeeeeeeeeeeeeee"
            },
            {
                "amount": "10.961748212215401782",
                "from": "0x4b5ab61593a2401b1075b90c04cbcdd3f87ce011",
                "id": 2,
                "isERC1155": false,
                "isERC721": false,
                "isReverted": false,
                "order": 2,
                "to": "0xcbbe381fb789245ea45d5bbed966266ac84ec857",
                "token": "0xf4d2888d29d722226fafa5d9b24f9164c092421e"
            },
            {
                "amount": "0.00132",
                "from": "0x68b3465833fb72a70ecdf485e0e4c7bd8665fc45",
                "id": 3,
                "isERC1155": false,
                "isERC721": false,
                "isReverted": false,
                "order": 3,
                "to": "0xc02aaa39b223fe8d0a0e5c4f27ead9083c756cc2",
                "token": "0xeeeeeeeeeeeeeeeeeeeeeeeeeeeeeeeeeeeeeeee"
            },
            {
                "amount": "0.00132",
                "from": "0xc02aaa39b223fe8d0a0e5c4f27ead9083c756cc2",
                "id": 4,
                "isERC1155": false,
                "isERC721": false,
                "isReverted": false,
                "order": 4,
                "to": "0x68b3465833fb72a70ecdf485e0e4c7bd8665fc45",
                "token": "0xc02aaa39b223fe8d0a0e5c4f27ead9083c756cc2"
            },
            {
                "amount": "0.00132",
                "from": "0x68b3465833fb72a70ecdf485e0e4c7bd8665fc45",
                "id": 5,
                "isERC1155": false,
                "isERC721": false,
                "isReverted": false,
                "order": 5,
                "to": "0x4b5ab61593a2401b1075b90c04cbcdd3f87ce011",
                "token": "0xc02aaa39b223fe8d0a0e5c4f27ead9083c756cc2"
            }
        ],
        "token_infos": [
            {
                "address": "0xc02aaa39b223fe8d0a0e5c4f27ead9083c756cc2",
                "decimals": 18
            },
            {
                "address": "0xf4d2888d29d722226fafa5d9b24f9164c092421e",
                "decimals": 18
            },
            {
                "address": "0xeeeeeeeeeeeeeeeeeeeeeeeeeeeeeeeeeeeeeeee",
                "decimals": 18
            }
        ]
    },
    "address_label": {
        "labels": [
            {
                "address": "0x0000000000000000000000000000000000000003",
                "label": "Precompiled"
            },
            {
                "address": "0x0000000000000000000000000000000000000004",
                "label": "Precompiled"
            },
            {
                "address": "0xc02aaa39b223fe8d0a0e5c4f27ead9083c756cc2",
                "label": "Wrapped Ether (WETH)"
            },
            {
                "address": "0x0000000000000000000000000000000000000002",
                "label": "Precompiled"
            },
            {
                "address": "0x68b3465833fb72a70ecdf485e0e4c7bd8665fc45",
                "label": "Uniswap V3: Router 2"
            },
            {
                "address": "0xf4d2888d29d722226fafa5d9b24f9164c092421e",
                "label": "LooksRare: LOOKS Token"
            },
            {
                "address": "0x0000000000000000000000000000000000000001",
                "label": "Precompiled"
            },
            {
                "address": "0xeeeeeeeeeeeeeeeeeeeeeeeeeeeeeeeeeeeeeeee",
                "label": "Ether"
            },
            {
                "address": "0x4b5ab61593a2401b1075b90c04cbcdd3f87ce011",
                "label": "Uniswap V3: LOOKS 2"
            }
        ]
    },
    "trace": {
        "accountLabels": null,
        "dataMap": {
            "-1": {
                "invocation": {
                    "address": "0xcbbe381fb789245ea45d5bbed966266ac84ec857",
                    "callData": "",
                    "decodedMethod": null,
                    "errorInfo": "",
                    "fromAddress": "",
                    "gasUsed": 0,
                    "id": -1,
                    "methodDecoded": false,
                    "operation": "",
                    "output": "",
                    "revert": false,
                    "revertMessage": "",
                    "selector": "",
                    "status": false,
                    "value": ""
                },
                "nodeType": 0
            },
            "0": {
                "invocation": {
                    "address": "0x68b3465833fb72a70ecdf485e0e4c7bd8665fc45",
                    "callData": "0x0000000000000000000000000000000000000000000000000000000063a5936b00000000000000000000000000000000000000000000000000000000000000400000000000000000000000000000000000000000000000000000000000000001000000000000000000000000000000000000000000000000000000000000002000000000000000000000000000000000000000000000000000000000000000e404e45aaf000000000000000000000000c02aaa39b223fe8d0a0e5c4f27ead9083c756cc2000000000000000000000000f4d2888d29d722226fafa5d9b24f9164c092421e0000000000000000000000000000000000000000000000000000000000000bb8000000000000000000000000cbbe381fb789245ea45d5bbed966266ac84ec8570000000000000000000000000000000000000000000000000004b088731a800000000000000000000000000000000000000000000000000089da17742c71a120000000000000000000000000000000000000000000000000000000000000000000000000000000000000000000000000000000000000000000000000",
                    "decodedMethod": {
                        "callParams": [
                            {
                                "name": "deadline",
                                "type": "uint256",
                                "value": "1,671,795,563"
                            },
                            {
                                "name": "data",
                                "type": "bytes[]",
                                "value": [
                                    "0x04e45aaf000000000000000000000000c02aaa39b223fe8d0a0e5c4f27ead9083c756cc2000000000000000000000000f4d2888d29d722226fafa5d9b24f9164c092421e0000000000000000000000000000000000000000000000000000000000000bb8000000000000000000000000cbbe381fb789245ea45d5bbed966266ac84ec8570000000000000000000000000000000000000000000000000004b088731a800000000000000000000000000000000000000000000000000089da17742c71a1200000000000000000000000000000000000000000000000000000000000000000"
                                ]
                            }
                        ],
                        "constructorArguments": "",
                        "name": "multicall",
                        "returnParams": [
                            {
                                "name": "",
                                "type": "bytes[]",
                                "value": [
                                    "0x000000000000000000000000000000000000000000000000981ff3ebd25f4d36"
                                ]
                            }
                        ],
                        "signature": "multicall(uint256,bytes[])"
                    },
                    "errorInfo": "",
                    "fromAddress": "0xcbbe381fb789245ea45d5bbed966266ac84ec857",
                    "gasUsed": 107720,
                    "id": 0,
                    "methodDecoded": true,
                    "operation": "CALL",
                    "output": "0x0000000000000000000000000000000000000000000000000000000000000020000000000000000000000000000000000000000000000000000000000000000100000000000000000000000000000000000000000000000000000000000000200000000000000000000000000000000000000000000000000000000000000020000000000000000000000000000000000000000000000000981ff3ebd25f4d36",
                    "revert": false,
                    "revertMessage": "",
                    "selector": "0x5ae401dc",
                    "status": true,
                    "value": "0.00132"
                },
                "nodeType": 0
            },
            "1": {
                "invocation": {
                    "address": "0x68b3465833fb72a70ecdf485e0e4c7bd8665fc45",
                    "callData": "0x000000000000000000000000c02aaa39b223fe8d0a0e5c4f27ead9083c756cc2000000000000000000000000f4d2888d29d722226fafa5d9b24f9164c092421e0000000000000000000000000000000000000000000000000000000000000bb8000000000000000000000000cbbe381fb789245ea45d5bbed966266ac84ec8570000000000000000000000000000000000000000000000000004b088731a800000000000000000000000000000000000000000000000000089da17742c71a1200000000000000000000000000000000000000000000000000000000000000000",
                    "decodedMethod": {
                        "callParams": [
                            {
                                "name": "params",
                                "type": "(address,address,uint24,address,uint256,uint256,uint160)",
                                "value": [
                                    {
                                        "name": "tokenIn",
                                        "type": "address",
                                        "value": "0xc02aaa39b223fe8d0a0e5c4f27ead9083c756cc2"
                                    },
                                    {
                                        "name": "tokenOut",
                                        "type": "address",
                                        "value": "0xf4d2888d29d722226fafa5d9b24f9164c092421e"
                                    },
                                    {
                                        "name": "fee",
                                        "type": "uint24",
                                        "value": "3,000"
                                    },
                                    {
                                        "name": "recipient",
                                        "type": "address",
                                        "value": "0xcbbe381fb789245ea45d5bbed966266ac84ec857"
                                    },
                                    {
                                        "name": "amountIn",
                                        "type": "uint256",
                                        "value": "1,320,000,000,000,000"
                                    },
                                    {
                                        "name": "amountOutMinimum",
                                        "type": "uint256",
                                        "value": "9,933,277,715,848,339,744"
                                    },
                                    {
                                        "name": "sqrtPriceLimitX96",
                                        "type": "uint160",
                                        "value": "0"
                                    }
                                ]
                            }
                        ],
                        "constructorArguments": "",
                        "name": "exactInputSingle",
                        "returnParams": [
                            {
                                "name": "amountOut",
                                "type": "uint256",
                                "value": "10,961,748,212,215,401,782"
                            }
                        ],
                        "signature": "exactInputSingle((address,address,uint24,address,uint256,uint256,uint160))"
                    },
                    "errorInfo": "",
                    "fromAddress": "0x68b3465833fb72a70ecdf485e0e4c7bd8665fc45",
                    "gasUsed": 101658,
                    "id": 1,
                    "methodDecoded": true,
                    "operation": "DELEGATECALL",
                    "output": "0x000000000000000000000000000000000000000000000000981ff3ebd25f4d36",
                    "revert": false,
                    "revertMessage": "",
                    "selector": "0x04e45aaf",
                    "status": true,
                    "value": "0.00132"
                },
                "nodeType": 0
            },
            "10": {
                "event": {
                    "contract": "0xc02aaa39b223fe8d0a0e5c4f27ead9083c756cc2",
                    "decodedLog": {
                        "name": "Transfer",
                        "params": [
                            {
                                "name": "src",
                                "type": "address",
                                "value": "0x68b3465833fb72a70ecdf485e0e4c7bd8665fc45"
                            },
                            {
                                "name": "dst",
                                "type": "address",
                                "value": "0x4b5ab61593a2401b1075b90c04cbcdd3f87ce011"
                            },
                            {
                                "decimalAvailable": true,
                                "name": "wad",
                                "type": "uint256",
                                "value": "1,320,000,000,000,000"
                            }
                        ],
                        "signature": "Transfer(address,address,uint256)"
                    },
                    "id": 10,
                    "logData": "0x0000000000000000000000000000000000000000000000000004b088731a8000",
                    "logDecoded": true,
                    "operation": "EVENT",
                    "revert": false,
                    "status": true,
                    "topics": [
                        "0xddf252ad1be2c89b69c2b068fc378daa952ba7f163c4a11628f55a4df523b3ef",
                        "0x00000000000000000000000068b3465833fb72a70ecdf485e0e4c7bd8665fc45",
                        "0x0000000000000000000000004b5ab61593a2401b1075b90c04cbcdd3f87ce011"
                    ]
                },
                "nodeType": 1
            },
            "11": {
                "invocation": {
                    "address": "0xc02aaa39b223fe8d0a0e5c4f27ead9083c756cc2",
                    "callData": "0x0000000000000000000000004b5ab61593a2401b1075b90c04cbcdd3f87ce011",
                    "decodedMethod": {
                        "callParams": [
                            {
                                "name": "",
                                "type": "address",
                                "value": "0x4b5ab61593a2401b1075b90c04cbcdd3f87ce011"
                            }
                        ],
                        "constructorArguments": "",
                        "name": "balanceOf",
                        "returnParams": [
                            {
                                "decimalAvailable": true,
                                "name": "",
                                "type": "uint256",
                                "value": "1,183,195,265,303,252,970,012"
                            }
                        ],
                        "signature": "balanceOf(address)"
                    },
                    "errorInfo": "",
                    "fromAddress": "0x4b5ab61593a2401b1075b90c04cbcdd3f87ce011",
                    "gasUsed": 534,
                    "id": 11,
                    "methodDecoded": true,
                    "operation": "STATICCALL",
                    "output": "0x000000000000000000000000000000000000000000000040242200f4c4762a1c",
                    "revert": false,
                    "revertMessage": "",
                    "selector": "0x70a08231",
                    "status": true,
                    "value": "0"
                },
                "nodeType": 0
            },
            "12": {
                "event": {
                    "contract": "0x4b5ab61593a2401b1075b90c04cbcdd3f87ce011",
                    "decodedLog": {
                        "name": "Swap",
                        "params": [
                            {
                                "name": "sender",
                                "type": "address",
                                "value": "0x68b3465833fb72a70ecdf485e0e4c7bd8665fc45"
                            },
                            {
                                "name": "recipient",
                                "type": "address",
                                "value": "0xcbbe381fb789245ea45d5bbed966266ac84ec857"
                            },
                            {
                                "name": "amount0",
                                "type": "int256",
                                "value": "1,320,000,000,000,000"
                            },
                            {
                                "name": "amount1",
                                "type": "int256",
                                "value": "-10,961,748,212,215,401,782"
                            },
                            {
                                "name": "sqrtPriceX96",
                                "type": "uint160",
                                "value": "7,230,775,836,966,889,909,623,102,706,519"
                            },
                            {
                                "name": "liquidity",
                                "type": "uint128",
                                "value": "501,241,894,598,037,916,093,291"
                            },
                            {
                                "name": "tick",
                                "type": "int24",
                                "value": "90,279"
                            }
                        ],
                        "signature": "Swap(address,address,int256,int256,uint160,uint128,int24)"
                    },
                    "id": 12,
                    "logData": "0x0000000000000000000000000000000000000000000000000004b088731a8000ffffffffffffffffffffffffffffffffffffffffffffffff67e00c142da0b2ca000000000000000000000000000000000000005b43e59607c27a97ad94151357000000000000000000000000000000000000000000006a2460a7538a3f040b6b00000000000000000000000000000000000000000000000000000000000160a7",
                    "logDecoded": true,
                    "operation": "EVENT",
                    "revert": false,
                    "status": true,
                    "topics": [
                        "0xc42079f94a6350d7e6235f29174924f928cc2ac818eb64fed8004e115fbcca67",
                        "0x00000000000000000000000068b3465833fb72a70ecdf485e0e4c7bd8665fc45",
                        "0x000000000000000000000000cbbe381fb789245ea45d5bbed966266ac84ec857"
                    ]
                },
                "nodeType": 1
            },
            "2": {
                "invocation": {
                    "address": "0x4b5ab61593a2401b1075b90c04cbcdd3f87ce011",
                    "callData": "0x000000000000000000000000cbbe381fb789245ea45d5bbed966266ac84ec85700000000000000000000000000000000000000000000000000000000000000010000000000000000000000000000000000000000000000000004b088731a800000000000000000000000000000000000000000000000000000000001000276a400000000000000000000000000000000000000000000000000000000000000a000000000000000000000000000000000000000000000000000000000000000c000000000000000000000000000000000000000000000000000000000000000200000000000000000000000000000000000000000000000000000000000000040000000000000000000000000cbbe381fb789245ea45d5bbed966266ac84ec857000000000000000000000000000000000000000000000000000000000000002bc02aaa39b223fe8d0a0e5c4f27ead9083c756cc2000bb8f4d2888d29d722226fafa5d9b24f9164c092421e000000000000000000000000000000000000000000",
                    "decodedMethod": {
                        "callParams": [
                            {
                                "name": "recipient",
                                "type": "address",
                                "value": "0xcbbe381fb789245ea45d5bbed966266ac84ec857"
                            },
                            {
                                "name": "zeroForOne",
                                "type": "bool",
                                "value": true
                            },
                            {
                                "name": "amountSpecified",
                                "type": "int256",
                                "value": "1,320,000,000,000,000"
                            },
                            {
                                "name": "sqrtPriceLimitX96",
                                "type": "uint160",
                                "value": "4,295,128,740"
                            },
                            {
                                "name": "data",
                                "type": "bytes",
                                "value": "0x00000000000000000000000000000000000000000000000000000000000000200000000000000000000000000000000000000000000000000000000000000040000000000000000000000000cbbe381fb789245ea45d5bbed966266ac84ec857000000000000000000000000000000000000000000000000000000000000002bc02aaa39b223fe8d0a0e5c4f27ead9083c756cc2000bb8f4d2888d29d722226fafa5d9b24f9164c092421e000000000000000000000000000000000000000000"
                            }
                        ],
                        "constructorArguments": "",
                        "name": "swap",
                        "returnParams": [
                            {
                                "name": "amount0",
                                "type": "int256",
                                "value": "1,320,000,000,000,000"
                            },
                            {
                                "name": "amount1",
                                "type": "int256",
                                "value": "-10,961,748,212,215,401,782"
                            }
                        ],
                        "signature": "swap(address,bool,int256,uint160,bytes)"
                    },
                    "errorInfo": "",
                    "fromAddress": "0x68b3465833fb72a70ecdf485e0e4c7bd8665fc45",
                    "gasUsed": 94262,
                    "id": 2,
                    "methodDecoded": true,
                    "operation": "CALL",
                    "output": "0x0000000000000000000000000000000000000000000000000004b088731a8000ffffffffffffffffffffffffffffffffffffffffffffffff67e00c142da0b2ca",
                    "revert": false,
                    "revertMessage": "",
                    "selector": "0x128acb08",
                    "status": true,
                    "value": "0"
                },
                "nodeType": 0
            },
            "3": {
                "invocation": {
                    "address": "0xf4d2888d29d722226fafa5d9b24f9164c092421e",
                    "callData": "0x000000000000000000000000cbbe381fb789245ea45d5bbed966266ac84ec857000000000000000000000000000000000000000000000000981ff3ebd25f4d36",
                    "decodedMethod": {
                        "callParams": [
                            {
                                "name": "recipient",
                                "type": "address",
                                "value": "0xcbbe381fb789245ea45d5bbed966266ac84ec857"
                            },
                            {
                                "decimalAvailable": true,
                                "name": "amount",
                                "type": "uint256",
                                "value": "10,961,748,212,215,401,782"
                            }
                        ],
                        "constructorArguments": "",
                        "name": "transfer",
                        "returnParams": [
                            {
                                "name": "",
                                "type": "bool",
                                "value": true
                            }
                        ],
                        "signature": "transfer(address,uint256)"
                    },
                    "errorInfo": "",
                    "fromAddress": "0x4b5ab61593a2401b1075b90c04cbcdd3f87ce011",
                    "gasUsed": 12726,
                    "id": 3,
                    "methodDecoded": true,
                    "operation": "CALL",
                    "output": "0x0000000000000000000000000000000000000000000000000000000000000001",
                    "revert": false,
                    "revertMessage": "",
                    "selector": "0xa9059cbb",
                    "status": true,
                    "value": "0"
                },
                "nodeType": 0
            },
            "4": {
                "event": {
                    "contract": "0xf4d2888d29d722226fafa5d9b24f9164c092421e",
                    "decodedLog": {
                        "name": "Transfer",
                        "params": [
                            {
                                "name": "from",
                                "type": "address",
                                "value": "0x4b5ab61593a2401b1075b90c04cbcdd3f87ce011"
                            },
                            {
                                "name": "to",
                                "type": "address",
                                "value": "0xcbbe381fb789245ea45d5bbed966266ac84ec857"
                            },
                            {
                                "decimalAvailable": true,
                                "name": "value",
                                "type": "uint256",
                                "value": "10,961,748,212,215,401,782"
                            }
                        ],
                        "signature": "Transfer(address,address,uint256)"
                    },
                    "id": 4,
                    "logData": "0x000000000000000000000000000000000000000000000000981ff3ebd25f4d36",
                    "logDecoded": true,
                    "operation": "EVENT",
                    "revert": false,
                    "status": true,
                    "topics": [
                        "0xddf252ad1be2c89b69c2b068fc378daa952ba7f163c4a11628f55a4df523b3ef",
                        "0x0000000000000000000000004b5ab61593a2401b1075b90c04cbcdd3f87ce011",
                        "0x000000000000000000000000cbbe381fb789245ea45d5bbed966266ac84ec857"
                    ]
                },
                "nodeType": 1
            },
            "5": {
                "invocation": {
                    "address": "0xc02aaa39b223fe8d0a0e5c4f27ead9083c756cc2",
                    "callData": "0x0000000000000000000000004b5ab61593a2401b1075b90c04cbcdd3f87ce011",
                    "decodedMethod": {
                        "callParams": [
                            {
                                "name": "",
                                "type": "address",
                                "value": "0x4b5ab61593a2401b1075b90c04cbcdd3f87ce011"
                            }
                        ],
                        "constructorArguments": "",
                        "name": "balanceOf",
                        "returnParams": [
                            {
                                "decimalAvailable": true,
                                "name": "",
                                "type": "uint256",
                                "value": "1,183,193,945,303,252,970,012"
                            }
                        ],
                        "signature": "balanceOf(address)"
                    },
                    "errorInfo": "",
                    "fromAddress": "0x4b5ab61593a2401b1075b90c04cbcdd3f87ce011",
                    "gasUsed": 2534,
                    "id": 5,
                    "methodDecoded": true,
                    "operation": "STATICCALL",
                    "output": "0x000000000000000000000000000000000000000000000040241d506c515baa1c",
                    "revert": false,
                    "revertMessage": "",
                    "selector": "0x70a08231",
                    "status": true,
                    "value": "0"
                },
                "nodeType": 0
            },
            "6": {
                "invocation": {
                    "address": "0x68b3465833fb72a70ecdf485e0e4c7bd8665fc45",
                    "callData": "0x0000000000000000000000000000000000000000000000000004b088731a8000ffffffffffffffffffffffffffffffffffffffffffffffff67e00c142da0b2ca000000000000000000000000000000000000000000000000000000000000006000000000000000000000000000000000000000000000000000000000000000c000000000000000000000000000000000000000000000000000000000000000200000000000000000000000000000000000000000000000000000000000000040000000000000000000000000cbbe381fb789245ea45d5bbed966266ac84ec857000000000000000000000000000000000000000000000000000000000000002bc02aaa39b223fe8d0a0e5c4f27ead9083c756cc2000bb8f4d2888d29d722226fafa5d9b24f9164c092421e000000000000000000000000000000000000000000",
                    "decodedMethod": {
                        "callParams": [
                            {
                                "name": "amount0Delta",
                                "type": "int256",
                                "value": "1,320,000,000,000,000"
                            },
                            {
                                "name": "amount1Delta",
                                "type": "int256",
                                "value": "-10,961,748,212,215,401,782"
                            },
                            {
                                "name": "_data",
                                "type": "bytes",
                                "value": "0x00000000000000000000000000000000000000000000000000000000000000200000000000000000000000000000000000000000000000000000000000000040000000000000000000000000cbbe381fb789245ea45d5bbed966266ac84ec857000000000000000000000000000000000000000000000000000000000000002bc02aaa39b223fe8d0a0e5c4f27ead9083c756cc2000bb8f4d2888d29d722226fafa5d9b24f9164c092421e000000000000000000000000000000000000000000"
                            }
                        ],
                        "constructorArguments": "",
                        "name": "uniswapV3SwapCallback",
                        "returnParams": [],
                        "signature": "uniswapV3SwapCallback(int256,int256,bytes)"
                    },
                    "errorInfo": "",
                    "fromAddress": "0x4b5ab61593a2401b1075b90c04cbcdd3f87ce011",
                    "gasUsed": 40515,
                    "id": 6,
                    "methodDecoded": true,
                    "operation": "CALL",
                    "output": "",
                    "revert": false,
                    "revertMessage": "",
                    "selector": "0xfa461e33",
                    "status": true,
                    "value": "0"
                },
                "nodeType": 0
            },
            "7": {
                "invocation": {
                    "address": "0xc02aaa39b223fe8d0a0e5c4f27ead9083c756cc2",
                    "callData": "0x",
                    "decodedMethod": {
                        "callParams": [],
                        "constructorArguments": "",
                        "name": "deposit",
                        "returnParams": [],
                        "signature": "deposit()"
                    },
                    "errorInfo": "",
                    "fromAddress": "0x68b3465833fb72a70ecdf485e0e4c7bd8665fc45",
                    "gasUsed": 23974,
                    "id": 7,
                    "methodDecoded": true,
                    "operation": "CALL",
                    "output": "",
                    "revert": false,
                    "revertMessage": "",
                    "selector": "0xd0e30db0",
                    "status": true,
                    "value": "0.00132"
                },
                "nodeType": 0
            },
            "8": {
                "event": {
                    "contract": "0xc02aaa39b223fe8d0a0e5c4f27ead9083c756cc2",
                    "decodedLog": {
                        "name": "Deposit",
                        "params": [
                            {
                                "name": "dst",
                                "type": "address",
                                "value": "0x68b3465833fb72a70ecdf485e0e4c7bd8665fc45"
                            },
                            {
                                "name": "wad",
                                "type": "uint256",
                                "value": "1,320,000,000,000,000"
                            }
                        ],
                        "signature": "Deposit(address,uint256)"
                    },
                    "id": 8,
                    "logData": "0x0000000000000000000000000000000000000000000000000004b088731a8000",
                    "logDecoded": true,
                    "operation": "EVENT",
                    "revert": false,
                    "status": true,
                    "topics": [
                        "0xe1fffcc4923d04b559f4d29a8bfc6cda04eb5b0d3c460751c2402c5c5cc9109c",
                        "0x00000000000000000000000068b3465833fb72a70ecdf485e0e4c7bd8665fc45"
                    ]
                },
                "nodeType": 1
            },
            "9": {
                "invocation": {
                    "address": "0xc02aaa39b223fe8d0a0e5c4f27ead9083c756cc2",
                    "callData": "0x0000000000000000000000004b5ab61593a2401b1075b90c04cbcdd3f87ce0110000000000000000000000000000000000000000000000000004b088731a8000",
                    "decodedMethod": {
                        "callParams": [
                            {
                                "name": "dst",
                                "type": "address",
                                "value": "0x4b5ab61593a2401b1075b90c04cbcdd3f87ce011"
                            },
                            {
                                "decimalAvailable": true,
                                "name": "wad",
                                "type": "uint256",
                                "value": "1,320,000,000,000,000"
                            }
                        ],
                        "constructorArguments": "",
                        "name": "transfer",
                        "returnParams": [
                            {
                                "name": "",
                                "type": "bool",
                                "value": true
                            }
                        ],
                        "signature": "transfer(address,uint256)"
                    },
                    "errorInfo": "",
                    "fromAddress": "0x68b3465833fb72a70ecdf485e0e4c7bd8665fc45",
                    "gasUsed": 6062,
                    "id": 9,
                    "methodDecoded": true,
                    "operation": "CALL",
                    "output": "0x0000000000000000000000000000000000000000000000000000000000000001",
                    "revert": false,
                    "revertMessage": "",
                    "selector": "0xa9059cbb",
                    "status": true,
                    "value": "0"
                },
                "nodeType": 0
            }
        },
        "gasFlame": [
            {
                "children": [
                    {
                        "children": [
                            {
                                "children": [],
                                "depth": 0,
                                "name": "Initial Gas",
                                "value": 23784
                            },
                            {
                                "children": [
                                    {
                                        "children": [
                                            {
                                                "children": [
                                                    {
                                                        "children": [],
                                                        "depth": 3,
                                                        "name": "transfer",
                                                        "value": 12726
                                                    },
                                                    {
                                                        "children": [],
                                                        "depth": 3,
                                                        "name": "balanceOf",
                                                        "value": 2534
                                                    },
                                                    {
                                                        "children": [
                                                            {
                                                                "children": [],
                                                                "depth": 4,
                                                                "name": "deposit",
                                                                "value": 23974
                                                            },
                                                            {
                                                                "children": [],
                                                                "depth": 4,
                                                                "name": "transfer",
                                                                "value": 6062
                                                            }
                                                        ],
                                                        "depth": 3,
                                                        "name": "uniswapV3SwapCallback",
                                                        "value": 40515
                                                    },
                                                    {
                                                        "children": [],
                                                        "depth": 3,
                                                        "name": "balanceOf",
                                                        "value": 534
                                                    }
                                                ],
                                                "depth": 2,
                                                "name": "swap",
                                                "value": 94262
                                            }
                                        ],
                                        "depth": 1,
                                        "name": "exactInputSingle",
                                        "value": 101658
                                    }
                                ],
                                "depth": 0,
                                "name": "Executed Gas",
                                "value": 103836
                            }
                        ],
                        "depth": -1,
                        "name": "Actual Gas Used",
                        "value": 107720
                    },
                    {
                        "children": [],
                        "depth": -1,
                        "name": "Refunded Gas",
                        "value": 19900
                    }
                ],
                "depth": -2,
                "name": "Total Gas",
                "value": 127620
            }
        ],
        "isConfirmed": true,
        "mainTrace": [
            {
                "children": [
                    {
                        "children": [
                            {
                                "children": [
                                    {
                                        "children": [
                                            {
                                                "children": [
                                                    {
                                                        "children": [],
                                                        "depth": 4,
                                                        "id": 4,
                                                        "order": 4
                                                    }
                                                ],
                                                "depth": 3,
                                                "id": 3,
                                                "order": 3
                                            },
                                            {
                                                "children": [],
                                                "depth": 3,
                                                "id": 5,
                                                "order": 5
                                            },
                                            {
                                                "children": [
                                                    {
                                                        "children": [
                                                            {
                                                                "children": [],
                                                                "depth": 5,
                                                                "id": 8,
                                                                "order": 8
                                                            }
                                                        ],
                                                        "depth": 4,
                                                        "id": 7,
                                                        "order": 7
                                                    },
                                                    {
                                                        "children": [
                                                            {
                                                                "children": [],
                                                                "depth": 5,
                                                                "id": 10,
                                                                "order": 10
                                                            }
                                                        ],
                                                        "depth": 4,
                                                        "id": 9,
                                                        "order": 9
                                                    }
                                                ],
                                                "depth": 3,
                                                "id": 6,
                                                "order": 6
                                            },
                                            {
                                                "children": [],
                                                "depth": 3,
                                                "id": 11,
                                                "order": 11
                                            },
                                            {
                                                "children": [],
                                                "depth": 3,
                                                "id": 12,
                                                "order": 12
                                            }
                                        ],
                                        "depth": 2,
                                        "id": 2,
                                        "order": 2
                                    }
                                ],
                                "depth": 1,
                                "id": 1,
                                "order": 1
                            }
                        ],
                        "depth": 0,
                        "id": 0,
                        "order": 0
                    }
                ],
                "depth": -1,
                "id": -1,
                "order": -1
            }
        ],
        "mainTraceNodeCount": 13,
        "parentIdMap": {
            "0": -1,
            "1": 0,
            "10": 9,
            "11": 2,
            "12": 2,
            "2": 1,
            "3": 2,
            "4": 3,
            "5": 2,
            "6": 2,
            "7": 6,
            "8": 7,
            "9": 6
        },
        "tidyTrace": [
            {
                "children": [
                    {
                        "children": [
                            {
                                "children": [
                                    {
                                        "children": [
                                            {
                                                "children": [
                                                    {
                                                        "children": [],
                                                        "depth": 4,
                                                        "id": 4,
                                                        "order": 4
                                                    }
                                                ],
                                                "depth": 3,
                                                "id": 3,
                                                "order": 3
                                            },
                                            {
                                                "children": [
                                                    {
                                                        "children": [
                                                            {
                                                                "children": [],
                                                                "depth": 5,
                                                                "id": 8,
                                                                "order": 8
                                                            }
                                                        ],
                                                        "depth": 4,
                                                        "id": 7,
                                                        "order": 7
                                                    },
                                                    {
                                                        "children": [
                                                            {
                                                                "children": [],
                                                                "depth": 5,
                                                                "id": 10,
                                                                "order": 10
                                                            }
                                                        ],
                                                        "depth": 4,
                                                        "id": 9,
                                                        "order": 9
                                                    }
                                                ],
                                                "depth": 3,
                                                "id": 6,
                                                "order": 6
                                            },
                                            {
                                                "children": [],
                                                "depth": 3,
                                                "id": 12,
                                                "order": 12
                                            }
                                        ],
                                        "depth": 2,
                                        "id": 2,
                                        "order": 2
                                    }
                                ],
                                "depth": 1,
                                "id": 1,
                                "order": 1
                            }
                        ],
                        "depth": 0,
                        "id": 0,
                        "order": 0
                    }
                ],
                "depth": -1,
                "id": -1,
                "order": -1
            }
        ],
        "tidyTraceNodeCount": 11
    },
    "state_change": {
        "stateChanges": [
            {
                "address": "0x4b5ab61593a2401b1075b90c04cbcdd3f87ce011",
                "erc": "",
                "slots": [
                    {
                        "current": "0x000100012c012c00040160a7000000000000005b43e59607c27a97ad94151357",
                        "key": "0x0000000000000000000000000000000000000000000000000000000000000000",
                        "prev": "0x000100012c012c00040160a7000000000000005b43e704ef29f9cf3042fb42fd"
                    },
                    {
                        "current": "0x000000000000000000000000000000000378f577d905ff66cf18c067019f2c1c",
                        "key": "0x0000000000000000000000000000000000000000000000000000000000000001",
                        "prev": "0x000000000000000000000000000000000378f577d0563d3bd4c366708e77d48d"
                    }
                ],
                "storageVariables": []
            },
            {
                "address": "0xc02aaa39b223fe8d0a0e5c4f27ead9083c756cc2",
                "erc": "ERC-20",
                "slots": [
                    {
                        "current": "0x000000000000000000000000000000000000000000000040242200f4c4762a1c",
                        "key": "0x52b7ea9479ce8c84ede63d305072922b62f50f29a7d38dc3d0ef8c96a79ef7f9",
                        "prev": "0x000000000000000000000000000000000000000000000040241d506c515baa1c"
                    }
                ],
                "storageVariables": [
                    {
                        "name": "balanceOf",
                        "type": "mapping(address => uint256)",
                        "value": {
                            "pairs": [
                                {
                                    "key": "0x4b5ab61593a2401b1075b90c04cbcdd3f87ce011",
                                    "value": {
                                        "current": "1183195265303252970012",
                                        "prev": "1183193945303252970012",
                                        "typeTag": 1
                                    }
                                }
                            ],
                            "typeTag": 4
                        }
                    }
                ]
            },
            {
                "address": "0xf4d2888d29d722226fafa5d9b24f9164c092421e",
                "erc": "ERC-20",
                "slots": [
                    {
                        "current": "0x0000000000000000000000000000000000000000000aef5ac7f34667784e8fe3",
                        "key": "0x7bdce474ea635d9e7ef759fddc0978d2c3d79e6777486ca13c0f727c67563c17",
                        "prev": "0x0000000000000000000000000000000000000000000aef5b60133a534aaddd19"
                    },
                    {
                        "current": "0x000000000000000000000000000000000000000000000000a0337742d9e5f271",
                        "key": "0x2951bb630461db0aa5109351a14420394196d4665d5e53315104ba6c5fa180c9",
                        "prev": "0x000000000000000000000000000000000000000000000000081383570786a53b"
                    }
                ],
                "storageVariables": [
                    {
                        "name": "_balances",
                        "type": "mapping(address => uint256)",
                        "value": {
                            "pairs": [
                                {
                                    "key": "0x4b5ab61593a2401b1075b90c04cbcdd3f87ce011",
                                    "value": {
                                        "current": "13219578400455813915119587",
                                        "prev": "13219589362204026130521369",
                                        "typeTag": 1
                                    }
                                },
                                {
                                    "key": "0xcbbe381fb789245ea45d5bbed966266ac84ec857",
                                    "value": {
                                        "current": "11543701398887985777",
                                        "prev": "581953186672583995",
                                        "typeTag": 1
                                    }
                                }
                            ],
                            "typeTag": 4
                        }
                    }
                ]
            }
        ]
    }
}