{
    "balance_change": {
        "balanceChanges": [
            {
                "account": "0x846a3e111c00511b987dc07f714b098c46debe5a",
                "assets": [
                    {
                        "address": "0xeeeeeeeeeeeeeeeeeeeeeeeeeeeeeeeeeeeeeeee",
                        "amount": "0.32507539",
                        "iconUrl": "https://assets.blocksec.com/image/1663669189317-3.png",
                        "isERC1155": false,
                        "isERC721": false,
                        "sign": false,
                        "value": "746.29182659250000004"
                    }
                ]
            },
            {
                "account": "0xae78736cd615f374d3085123a210448e74fc6393",
                "assets": [
                    {
                        "address": "0xeeeeeeeeeeeeeeeeeeeeeeeeeeeeeeeeeeeeeeee",
                        "amount": "0.20967362655",
                        "iconUrl": "https://assets.blocksec.com/image/1663669189317-3.png",
                        "isERC1155": false,
                        "isERC721": false,
                        "sign": true,
                        "value": "481.35822826695"
                    }
                ]
            },
            {
                "account": "0xf3abdc098391ed66be20345b1726266103bba80b",
                "assets": [
                    {
                        "address": "0xeeeeeeeeeeeeeeeeeeeeeeeeeeeeeeeeeeeeeeee",
                        "amount": "0.11540176345",
                        "iconUrl": "https://assets.blocksec.com/image/1663669189317-3.png",
                        "isERC1155": false,
                        "isERC721": false,
                        "sign": true,
                        "value": "264.933598555125"
                    }
                ]
            }
        ]
    },
    "profile": {
        "basic_info": {
            "baseFee": "13.194709421",
            "blockNumber": 18901632,
            "callData": "0x54efc6e50000000000000000000000000000000000000000000000000000000000000001",
            "debugEnable": true,
            "errorInfo": "",
            "eventCount": 2,
            "feeRecipient": "0xdafea492d9c6733ae3d56b7ed1adb60692c98bc5",
            "formatValue": "0",
            "gasLimit": 157101,
            "gasPrice": "15.194709421",
            "gasUsed": 82457,
            "intTxnCount": 6,
            "internalRevert": false,
            "internalRevertMessage": "",
            "isContractCreation": false,
            "isFlashloan": false,
            "maxFee": "28.188504998",
            "nonce": 700,
            "overwritedBlockNumber": -1,
            "priorityFee": "2",
            "receiver": "0x846a3e111c00511b987dc07f714b098c46debe5a",
            "revertMessage": "",
            "sender": "0xd5c4d2d852a75b54daf2138492b2e1f25a36fabe",
            "simulationEnable": true,
            "sourceTxnHash": "0x20b0606f902d2d0fb10db75925e8aca1c91a8e6a4e748b2b830fab620cc135c8",
            "status": true,
            "timestamp": "2023-12-30T23:34:47Z",
            "transactionFee": "0.001252910154727397",
            "txnHash": "0x20b0606f902d2d0fb10db75925e8aca1c91a8e6a4e748b2b830fab620cc135c8",
            "txnIndex": 19,
            "type": 2,
            "value": "0"
        },
        "fund_flow": [
            {
                "amount": "0.20967362655",
                "from": "0x846a3e111c00511b987dc07f714b098c46debe5a",
                "id": 1,
                "isERC1155": false,
                "isERC721": false,
                "isReverted": false,
                "order": 1,
                "to": "0xae78736cd615f374d3085123a210448e74fc6393",
                "token": "0xeeeeeeeeeeeeeeeeeeeeeeeeeeeeeeeeeeeeeeee"
            },
            {
                "amount": "0.11540176345",
                "from": "0x846a3e111c00511b987dc07f714b098c46debe5a",
                "id": 2,
                "isERC1155": false,
                "isERC721": false,
                "isReverted": false,
                "order": 2,
                "to": "0xf3abdc098391ed66be20345b1726266103bba80b",
                "token": "0xeeeeeeeeeeeeeeeeeeeeeeeeeeeeeeeeeeeeeeee"
            }
        ],
        "token_infos": [
            {
                "address": "0xc02aaa39b223fe8d0a0e5c4f27ead9083c756cc2",
                "decimals": 18
            },
            {
                "address": "0xeeeeeeeeeeeeeeeeeeeeeeeeeeeeeeeeeeeeeeee",
                "decimals": 18
            }
        ]
    },
    "address_label": {
        "labels": [
            {
                "address": "0xeeeeeeeeeeeeeeeeeeeeeeeeeeeeeeeeeeeeeeee",
                "label": "Ether"
            },
            {
                "address": "0x0000000000000000000000000000000000000002",
                "label": "Precompiled"
            },
            {
                "address": "0x0000000000000000000000000000000000000003",
                "label": "Precompiled"
            },
            {
                "address": "0x1d8f8f00cfa6758d7be78336684788fb0ee0fa46",
                "label": "Rocket Pool: Storage"
            },
            {
                "address": "0x0000000000000000000000000000000000000001",
                "label": "Precompiled"
            },
            {
                "address": "0x0000000000000000000000000000000000000004",
                "label": "Precompiled"
            },
            {
                "address": "0xa347c391bc8f740caba37672157c8aacd08ac567",
                "label": "Rocket Pool: Minipool Delegate"
            },
            {
                "address": "0x560656c8947564363497e9c78a8bdeff8d3eff33",
                "label": "Rocket Pool: Mini pool Base"
            },
            {
                "address": "0xae78736cd615f374d3085123a210448e74fc6393",
                "label": "Rocket Pool: rETH Token"
            }
        ]
    },
    "trace": {
        "accountLabels": null,
        "dataMap": {
            "-1": {
                "invocation": {
                    "address": "0xd5c4d2d852a75b54daf2138492b2e1f25a36fabe",
                    "callData": "",
                    "decodedMethod": null,
                    "errorInfo": "",
                    "fromAddress": "",
                    "gasUsed": 0,
                    "id": -1,
                    "methodDecoded": false,
                    "operation": "",
                    "output": "",
                    "revert": false,
                    "revertMessage": "",
                    "selector": "",
                    "status": false,
                    "value": ""
                },
                "nodeType": 0
            },
            "0": {
                "invocation": {
                    "address": "0x846a3e111c00511b987dc07f714b098c46debe5a",
                    "callData": "0x0000000000000000000000000000000000000000000000000000000000000001",
                    "decodedMethod": {
                        "callParams": [
                            {
                                "name": "_rewardsOnly",
                                "type": "bool",
                                "value": true
                            }
                        ],
                        "constructorArguments": "",
                        "name": "distributeBalance",
                        "returnParams": [],
                        "signature": "distributeBalance(bool)"
                    },
                    "errorInfo": "",
                    "fromAddress": "0xd5c4d2d852a75b54daf2138492b2e1f25a36fabe",
                    "gasUsed": 82457,
                    "id": 0,
                    "methodDecoded": true,
                    "operation": "CALL",
                    "output": "",
                    "revert": false,
                    "revertMessage": "",
                    "selector": "0x54efc6e5",
                    "status": true,
                    "value": "0"
                },
                "nodeType": 0
            },
            "1": {
                "invocation": {
                    "address": "0x560656c8947564363497e9c78a8bdeff8d3eff33",
                    "callData": "0x0000000000000000000000000000000000000000000000000000000000000001",
                    "decodedMethod": {
                        "callParams": [
                            {
                                "name": "_rewardsOnly",
                                "type": "bool",
                                "value": true
                            }
                        ],
                        "constructorArguments": "",
                        "name": "distributeBalance",
                        "returnParams": [],
                        "signature": "distributeBalance(bool)"
                    },
                    "errorInfo": "",
                    "fromAddress": "0x846a3e111c00511b987dc07f714b098c46debe5a",
                    "gasUsed": 78484,
                    "id": 1,
                    "methodDecoded": true,
                    "operation": "DELEGATECALL",
                    "output": "",
                    "revert": false,
                    "revertMessage": "",
                    "selector": "0x54efc6e5",
                    "status": true,
                    "value": "0"
                },
                "nodeType": 0
            },
            "2": {
                "invocation": {
                    "address": "0xa347c391bc8f740caba37672157c8aacd08ac567",
                    "callData": "0x0000000000000000000000000000000000000000000000000000000000000001",
                    "decodedMethod": {
                        "callParams": [
                            {
                                "name": "_rewardsOnly",
                                "type": "bool",
                                "value": true
                            }
                        ],
                        "constructorArguments": "",
                        "name": "distributeBalance",
                        "returnParams": [],
                        "signature": "distributeBalance(bool)"
                    },
                    "errorInfo": "",
                    "fromAddress": "0x846a3e111c00511b987dc07f714b098c46debe5a",
                    "gasUsed": 73034,
                    "id": 2,
                    "methodDecoded": true,
                    "operation": "DELEGATECALL",
                    "output": "",
                    "revert": false,
                    "revertMessage": "",
                    "selector": "0x54efc6e5",
                    "status": true,
                    "value": "0"
                },
                "nodeType": 0
            },
            "3": {
                "invocation": {
                    "address": "0x1d8f8f00cfa6758d7be78336684788fb0ee0fa46",
                    "callData": "0x000000000000000000000000d5c4d2d852a75b54daf2138492b2e1f25a36fabe",
                    "decodedMethod": {
                        "callParams": [
                            {
                                "name": "_nodeAddress",
                                "type": "address",
                                "value": "0xd5c4d2d852a75b54daf2138492b2e1f25a36fabe"
                            }
                        ],
                        "constructorArguments": "",
                        "name": "getNodeWithdrawalAddress",
                        "returnParams": [
                            {
                                "name": "",
                                "type": "address",
                                "value": "0xf3abdc098391ed66be20345b1726266103bba80b"
                            }
                        ],
                        "signature": "getNodeWithdrawalAddress(address)"
                    },
                    "errorInfo": "",
                    "fromAddress": "0x846a3e111c00511b987dc07f714b098c46debe5a",
                    "gasUsed": 2534,
                    "id": 3,
                    "methodDecoded": true,
                    "operation": "STATICCALL",
                    "output": "0x000000000000000000000000f3abdc098391ed66be20345b1726266103bba80b",
                    "revert": false,
                    "revertMessage": "",
                    "selector": "0x5b49ff62",
                    "status": true,
                    "value": "0"
                },
                "nodeType": 0
            },
            "4": {
                "invocation": {
                    "address": "0xae78736cd615f374d3085123a210448e74fc6393",
                    "callData": "0x",
                    "decodedMethod": null,
                    "errorInfo": "",
                    "fromAddress": "0x846a3e111c00511b987dc07f714b098c46debe5a",
                    "gasUsed": 1764,
                    "id": 4,
                    "methodDecoded": false,
                    "operation": "CALL",
                    "output": "",
                    "revert": false,
                    "revertMessage": "",
                    "selector": "fallback",
                    "status": true,
                    "value": "0.20967362655"
                },
                "nodeType": 0
            },
            "5": {
                "event": {
                    "contract": "0xae78736cd615f374d3085123a210448e74fc6393",
                    "decodedLog": {
                        "name": "EtherDeposited",
                        "params": [
                            {
                                "name": "from",
                                "type": "address",
                                "value": "0x846a3e111c00511b987dc07f714b098c46debe5a"
                            },
                            {
                                "name": "amount",
                                "type": "uint256",
                                "value": "209,673,626,550,000,000"
                            },
                            {
                                "name": "time",
                                "type": "uint256",
                                "value": "1,703,979,287"
                            }
                        ],
                        "signature": "EtherDeposited(address,uint256,uint256)"
                    },
                    "id": 5,
                    "logData": "0x00000000000000000000000000000000000000000000000002e8e90d6d47d980000000000000000000000000000000000000000000000000000000006590a917",
                    "logDecoded": true,
                    "operation": "EVENT",
                    "revert": false,
                    "status": true,
                    "topics": [
                        "0xef51b4c870b8b0100eae2072e91db01222a303072af3728e58c9d4d2da33127f",
                        "0x000000000000000000000000846a3e111c00511b987dc07f714b098c46debe5a"
                    ]
                },
                "nodeType": 1
            },
            "6": {
                "invocation": {
                    "address": "0x1d8f8f00cfa6758d7be78336684788fb0ee0fa46",
                    "callData": "0x000000000000000000000000d5c4d2d852a75b54daf2138492b2e1f25a36fabe",
                    "decodedMethod": {
                        "callParams": [
                            {
                                "name": "_nodeAddress",
                                "type": "address",
                                "value": "0xd5c4d2d852a75b54daf2138492b2e1f25a36fabe"
                            }
                        ],
                        "constructorArguments": "",
                        "name": "getNodeWithdrawalAddress",
                        "returnParams": [
                            {
                                "name": "",
                                "type": "address",
                                "value": "0xf3abdc098391ed66be20345b1726266103bba80b"
                            }
                        ],
                        "signature": "getNodeWithdrawalAddress(address)"
                    },
                    "errorInfo": "",
                    "fromAddress": "0x846a3e111c00511b987dc07f714b098c46debe5a",
                    "gasUsed": 534,
                    "id": 6,
                    "methodDecoded": true,
                    "operation": "STATICCALL",
                    "output": "0x000000000000000000000000f3abdc098391ed66be20345b1726266103bba80b",
                    "revert": false,
                    "revertMessage": "",
                    "selector": "0x5b49ff62",
                    "status": true,
                    "value": "0"
                },
                "nodeType": 0
            },
            "7": {
                "invocation": {
                    "address": "0xf3abdc098391ed66be20345b1726266103bba80b",
                    "callData": "0x",
                    "decodedMethod": null,
                    "errorInfo": "",
                    "fromAddress": "0x846a3e111c00511b987dc07f714b098c46debe5a",
                    "gasUsed": 0,
                    "id": 7,
                    "methodDecoded": false,
                    "operation": "CALL",
                    "output": "",
                    "revert": false,
                    "revertMessage": "",
                    "selector": "fallback",
                    "status": true,
                    "value": "0.11540176345"
                },
                "nodeType": 0
            },
            "8": {
                "event": {
                    "contract": "0x846a3e111c00511b987dc07f714b098c46debe5a",
                    "decodedLog": {
                        "name": "EtherWithdrawn",
                        "params": [
                            {
                                "name": "to",
                                "type": "address",
                                "value": "0xf3abdc098391ed66be20345b1726266103bba80b"
                            },
                            {
                                "name": "amount",
                                "type": "uint256",
                                "value": "115,401,763,450,000,000"
                            },
                            {
                                "name": "time",
                                "type": "uint256",
                                "value": "1,703,979,287"
                            }
                        ],
                        "signature": "EtherWithdrawn(address,uint256,uint256)"
                    },
                    "id": 8,
                    "logData": "0x0000000000000000000000000000000000000000000000000199fd4adce41280000000000000000000000000000000000000000000000000000000006590a917",
                    "logDecoded": true,
                    "operation": "EVENT",
                    "revert": false,
                    "status": true,
                    "topics": [
                        "0xd5ca65e1ec4f4864fea7b9c5cb1ec3087a0dbf9c74641db3f6458edf445c4051",
                        "0x000000000000000000000000f3abdc098391ed66be20345b1726266103bba80b"
                    ]
                },
                "nodeType": 1
            }
        },
        "gasFlame": [
            {
                "children": [
                    {
                        "children": [
                            {
                                "children": [],
                                "depth": 0,
                                "name": "Initial Gas",
                                "value": 21204
                            },
                            {
                                "children": [
                                    {
                                        "children": [
                                            {
                                                "children": [
                                                    {
                                                        "children": [],
                                                        "depth": 3,
                                                        "name": "getNodeWithdrawalAddress",
                                                        "value": 2534
                                                    },
                                                    {
                                                        "children": [],
                                                        "depth": 3,
                                                        "name": "fallback",
                                                        "value": 1764
                                                    },
                                                    {
                                                        "children": [],
                                                        "depth": 3,
                                                        "name": "getNodeWithdrawalAddress",
                                                        "value": 534
                                                    },
                                                    {
                                                        "children": [],
                                                        "depth": 3,
                                                        "name": "fallback",
                                                        "value": 0
                                                    }
                                                ],
                                                "depth": 2,
                                                "name": "distributeBalance",
                                                "value": 73034
                                            }
                                        ],
                                        "depth": 1,
                                        "name": "distributeBalance",
                                        "value": 78484
                                    }
                                ],
                                "depth": 0,
                                "name": "Executed Gas",
                                "value": 81153
                            }
                        ],
                        "depth": -1,
                        "name": "Actual Gas Used",
                        "value": 82457
                    },
                    {
                        "children": [],
                        "depth": -1,
                        "name": "Refunded Gas",
                        "value": 19900
                    }
                ],
                "depth": -2,
                "name": "Total Gas",
                "value": 102357
            }
        ],
        "isConfirmed": true,
        "mainTrace": [
            {
                "children": [
                    {
                        "children": [
                            {
                                "children": [
                                    {
                                        "children": [
                                            {
                                                "children": [],
                                                "depth": 3,
                                                "id": 3,
                                                "order": 3
                                            },
                                            {
                                                "children": [
                                                    {
                                                        "children": [],
                                                        "depth": 4,
                                                        "id": 5,
                                                        "order": 5
                                                    }
                                                ],
                                                "depth": 3,
                                                "id": 4,
                                                "order": 4
                                            },
                                            {
                                                "children": [],
                                                "depth": 3,
                                                "id": 6,
                                                "order": 6
                                            },
                                            {
                                                "children": [],
                                                "depth": 3,
                                                "id": 7,
                                                "order": 7
                                            },
                                            {
                                                "children": [],
                                                "depth": 3,
                                                "id": 8,
                                                "order": 8
                                            }
                                        ],
                                        "depth": 2,
                                        "id": 2,
                                        "order": 2
                                    }
                                ],
                                "depth": 1,
                                "id": 1,
                                "order": 1
                            }
                        ],
                        "depth": 0,
                        "id": 0,
                        "order": 0
                    }
                ],
                "depth": -1,
                "id": -1,
                "order": -1
            }
        ],
        "mainTraceNodeCount": 9,
        "parentIdMap": {
            "0": -1,
            "1": 0,
            "2": 1,
            "3": 2,
            "4": 2,
            "5": 4,
            "6": 2,
            "7": 2,
            "8": 2
        },
        "tidyTrace": [
            {
                "children": [
                    {
                        "children": [
                            {
                                "children": [
                                    {
                                        "children": [
                                            {
                                                "children": [
                                                    {
                                                        "children": [],
                                                        "depth": 4,
                                                        "id": 5,
                                                        "order": 5
                                                    }
                                                ],
                                                "depth": 3,
                                                "id": 4,
                                                "order": 4
                                            },
                                            {
                                                "children": [],
                                                "depth": 3,
                                                "id": 7,
                                                "order": 7
                                            },
                                            {
                                                "children": [],
                                                "depth": 3,
                                                "id": 8,
                                                "order": 8
                                            }
                                        ],
                                        "depth": 2,
                                        "id": 2,
                                        "order": 2
                                    }
                                ],
                                "depth": 1,
                                "id": 1,
                                "order": 1
                            }
                        ],
                        "depth": 0,
                        "id": 0,
                        "order": 0
                    }
                ],
                "depth": -1,
                "id": -1,
                "order": -1
            }
        ],
        "tidyTraceNodeCount": 7
    },
    "state_change": {
        "stateChanges": []
    }
}