{
    "balance_change": {
        "balanceChanges": [
            {
                "account": "0x99531aa682dca2570555e052b33531d77081e5b1",
                "assets": [
                    {
                        "address": "0xeeeeeeeeeeeeeeeeeeeeeeeeeeeeeeeeeeeeeeee",
                        "amount": "0.013999999999999998",
                        "iconUrl": "https://assets.blocksec.com/image/1663669189317-3.png",
                        "isERC1155": false,
                        "isERC721": false,
                        "sign": false,
                        "value": ""
                    }
                ]
            },
            {
                "account": "0x47a778209f0b0933d855d8bff426e967db1a1963",
                "assets": [
                    {
                        "address": "0xeeeeeeeeeeeeeeeeeeeeeeeeeeeeeeeeeeeeeeee",
                        "amount": "0.00056",
                        "iconUrl": "https://assets.blocksec.com/image/1663669189317-3.png",
                        "isERC1155": false,
                        "isERC721": false,
                        "sign": true,
                        "value": ""
                    }
                ]
            },
            {
                "account": "0xb1edb99b3dae91a2d260455c4bbd36872f3d82c5",
                "assets": [
                    {
                        "address": "0xeeeeeeeeeeeeeeeeeeeeeeeeeeeeeeeeeeeeeeee",
                        "amount": "0.013439999999999998",
                        "iconUrl": "https://assets.blocksec.com/image/1663669189317-3.png",
                        "isERC1155": false,
                        "isERC721": false,
                        "sign": true,
                        "value": ""
                    }
                ]
            }
        ]
    },
    "profile": {
        "basic_info": {
            "baseFee": "",
            "blockNumber": 8155457,
            "callData": "0x9ad73f2000000000000000000000000047a778209f0b0933d855d8bff426e967db1a1963000000000000000000000000000000000000000000000000000000000312def000000000000000000000000000000000000000000000000000000000000000000000000000000000000000000000000000000000000000000031bced02dafffe00000000000000005d302147b1edb99b3dae91a2d260455c4bbd36872f3d82c5000000000000000000000000000000000000000000000000000000000000001c3e05193e150559c6adbc5c794b3649a5f393db24de6024e5e418b980d314d0957302faca46b8e28be146c14d0269c8e470b8d1166e66d0464f85dcd424e5854f",
            "debugEnable": true,
            "errorInfo": "",
            "eventCount": 1,
            "feeRecipient": "0x5a0b54d5dc17e0aadc383d2db43b0a0d3e029c4c",
            "formatValue": "0.013999999999999998",
            "gasLimit": 117505,
            "gasPrice": "1.221",
            "gasUsed": 76017,
            "intTxnCount": 3,
            "internalRevert": false,
            "internalRevertMessage": "",
            "isContractCreation": false,
            "isFlashloan": false,
            "maxFee": "",
            "nonce": 5176,
            "overwritedBlockNumber": -1,
            "priorityFee": "",
            "receiver": "0xf93be1f6c7336e78f4a3859a9d01f44595a82ab4",
            "revertMessage": "",
            "sender": "0x99531aa682dca2570555e052b33531d77081e5b1",
            "simulationEnable": true,
            "sourceTxnHash": "0x21a74ec6c4c35893942a386b5f00d4687eef285414b8e4315168d14f8ac94cbf",
            "status": true,
            "timestamp": "2019-07-15T11:57:28Z",
            "transactionFee": "0.000092816757",
            "txnHash": "0x21a74ec6c4c35893942a386b5f00d4687eef285414b8e4315168d14f8ac94cbf",
            "txnIndex": 71,
            "type": 0,
            "value": "13999999999999998"
        },
        "fund_flow": [
            {
                "amount": "0.013999999999999998",
                "from": "0x99531aa682dca2570555e052b33531d77081e5b1",
                "id": 1,
                "isERC1155": false,
                "isERC721": false,
                "isReverted": false,
                "order": 1,
                "to": "0xf93be1f6c7336e78f4a3859a9d01f44595a82ab4",
                "token": "0xeeeeeeeeeeeeeeeeeeeeeeeeeeeeeeeeeeeeeeee"
            },
            {
                "amount": "0.013999999999999998",
                "from": "0xf93be1f6c7336e78f4a3859a9d01f44595a82ab4",
                "id": 2,
                "isERC1155": false,
                "isERC721": false,
                "isReverted": false,
                "order": 2,
                "to": "0x47a778209f0b0933d855d8bff426e967db1a1963",
                "token": "0xeeeeeeeeeeeeeeeeeeeeeeeeeeeeeeeeeeeeeeee"
            },
            {
                "amount": "0.013439999999999998",
                "from": "0x47a778209f0b0933d855d8bff426e967db1a1963",
                "id": 3,
                "isERC1155": false,
                "isERC721": false,
                "isReverted": false,
                "order": 3,
                "to": "0xb1edb99b3dae91a2d260455c4bbd36872f3d82c5",
                "token": "0xeeeeeeeeeeeeeeeeeeeeeeeeeeeeeeeeeeeeeeee"
            }
        ],
        "token_infos": [
            {
                "address": "0xc02aaa39b223fe8d0a0e5c4f27ead9083c756cc2",
                "decimals": 18
            },
            {
                "address": "0xeeeeeeeeeeeeeeeeeeeeeeeeeeeeeeeeeeeeeeee",
                "decimals": 18
            }
        ]
    },
    "address_label": {
        "labels": [
            {
                "address": "0x47a778209f0b0933d855d8bff426e967db1a1963",
                "label": "ItemMarket"
            },
            {
                "address": "0x0000000000000000000000000000000000000001",
                "label": "Precompiled"
            },
            {
                "address": "0x0000000000000000000000000000000000000002",
                "label": "Precompiled"
            },
            {
                "address": "0x0000000000000000000000000000000000000003",
                "label": "Precompiled"
            },
            {
                "address": "0x0000000000000000000000000000000000000004",
                "label": "Precompiled"
            },
            {
                "address": "0xeeeeeeeeeeeeeeeeeeeeeeeeeeeeeeeeeeeeeeee",
                "label": "Ether"
            },
            {
                "address": "0xf93be1f6c7336e78f4a3859a9d01f44595a82ab4",
                "label": "Plugins"
            }
        ]
    },
    "trace": {
        "accountLabels": null,
        "dataMap": {
            "-1": {
                "invocation": {
                    "address": "0x99531aa682dca2570555e052b33531d77081e5b1",
                    "callData": "",
                    "decodedMethod": null,
                    "errorInfo": "",
                    "fromAddress": "",
                    "gasUsed": 0,
                    "id": -1,
                    "methodDecoded": false,
                    "operation": "",
                    "output": "",
                    "revert": false,
                    "revertMessage": "",
                    "selector": "",
                    "status": false,
                    "value": ""
                },
                "nodeType": 0
            },
            "0": {
                "invocation": {
                    "address": "0xf93be1f6c7336e78f4a3859a9d01f44595a82ab4",
                    "callData": "0x00000000000000000000000047a778209f0b0933d855d8bff426e967db1a1963000000000000000000000000000000000000000000000000000000000312def000000000000000000000000000000000000000000000000000000000000000000000000000000000000000000000000000000000000000000031bced02dafffe00000000000000005d302147b1edb99b3dae91a2d260455c4bbd36872f3d82c5000000000000000000000000000000000000000000000000000000000000001c3e05193e150559c6adbc5c794b3649a5f393db24de6024e5e418b980d314d0957302faca46b8e28be146c14d0269c8e470b8d1166e66d0464f85dcd424e5854f",
                    "decodedMethod": {
                        "callParams": [
                            {
                                "name": "_pluginAddress",
                                "type": "address",
                                "value": "0x47a778209f0b0933d855d8bff426e967db1a1963"
                            },
                            {
                                "name": "_signId",
                                "type": "uint40",
                                "value": "51,568,368"
                            },
                            {
                                "name": "_cutieId",
                                "type": "uint40",
                                "value": "0"
                            },
                            {
                                "name": "_value",
                                "type": "uint128",
                                "value": "13,999,999,999,999,998"
                            },
                            {
                                "name": "_parameter",
                                "type": "uint256",
                                "value": "2,284,963,302,979,281,521,420,780,517,782,830,818,180,458,338,208,953,762,501"
                            },
                            {
                                "name": "_v",
                                "type": "uint8",
                                "value": "28"
                            },
                            {
                                "name": "_r",
                                "type": "bytes32",
                                "value": "0x3e05193e150559c6adbc5c794b3649a5f393db24de6024e5e418b980d314d095"
                            },
                            {
                                "name": "_s",
                                "type": "bytes32",
                                "value": "0x7302faca46b8e28be146c14d0269c8e470b8d1166e66d0464f85dcd424e5854f"
                            }
                        ],
                        "constructorArguments": "",
                        "name": "runPluginSigned",
                        "returnParams": [],
                        "signature": "runPluginSigned(address,uint40,uint40,uint128,uint256,uint8,bytes32,bytes32)"
                    },
                    "errorInfo": "",
                    "fromAddress": "0x99531aa682dca2570555e052b33531d77081e5b1",
                    "gasUsed": 76017,
                    "id": 0,
                    "methodDecoded": true,
                    "operation": "CALL",
                    "output": "",
                    "revert": false,
                    "revertMessage": "",
                    "selector": "0x9ad73f20",
                    "status": true,
                    "value": "0.013999999999999998"
                },
                "nodeType": 0
            },
            "1": {
                "invocation": {
                    "address": "0x0000000000000000000000000000000000000001",
                    "callData": "0x2199c71e308b208655dba9f714623342274131393ae7b4ffa8dfbc37000000000000000000000000000000000000000000000000000000000000001c3e05193e150559c6adbc5c794b3649a5f393db24de6024e5e418b980d314d0957302faca46b8e28be146c14d0269c8e470b8d1166e66d0464f85dcd424e5854f",
                    "decodedMethod": {
                        "callParams": [
                            {
                                "name": "hash",
                                "type": "bytes32",
                                "value": "0xc1b9f0f12199c71e308b208655dba9f714623342274131393ae7b4ffa8dfbc37"
                            },
                            {
                                "name": "v",
                                "type": "uint256",
                                "value": "28"
                            },
                            {
                                "name": "r",
                                "type": "bytes32",
                                "value": "0x3e05193e150559c6adbc5c794b3649a5f393db24de6024e5e418b980d314d095"
                            },
                            {
                                "name": "s",
                                "type": "bytes32",
                                "value": "0x7302faca46b8e28be146c14d0269c8e470b8d1166e66d0464f85dcd424e5854f"
                            }
                        ],
                        "constructorArguments": "",
                        "name": "ecrecover",
                        "returnParams": [
                            {
                                "name": "",
                                "type": "address",
                                "value": "0x04ff7c9dcc4b711f5991350b7ca92223f9b148e8"
                            }
                        ],
                        "signature": "ecrecover(bytes32,uint256,bytes32,bytes32)"
                    },
                    "errorInfo": "",
                    "fromAddress": "0xf93be1f6c7336e78f4a3859a9d01f44595a82ab4",
                    "gasUsed": 3000,
                    "id": 1,
                    "methodDecoded": true,
                    "operation": "CALL",
                    "output": "0x00000000000000000000000004ff7c9dcc4b711f5991350b7ca92223f9b148e8",
                    "revert": false,
                    "revertMessage": "",
                    "selector": "0xc1b9f0f1",
                    "status": true,
                    "value": "0"
                },
                "nodeType": 0
            },
            "2": {
                "event": {
                    "contract": "0xf93be1f6c7336e78f4a3859a9d01f44595a82ab4",
                    "decodedLog": {
                        "name": "SignUsed",
                        "params": [
                            {
                                "name": "signId",
                                "type": "uint40",
                                "value": "51,568,368"
                            },
                            {
                                "name": "sender",
                                "type": "address",
                                "value": "0x99531aa682dca2570555e052b33531d77081e5b1"
                            }
                        ],
                        "signature": "SignUsed(uint40,address)"
                    },
                    "id": 2,
                    "logData": "0x000000000000000000000000000000000000000000000000000000000312def000000000000000000000000099531aa682dca2570555e052b33531d77081e5b1",
                    "logDecoded": true,
                    "operation": "EVENT",
                    "revert": false,
                    "status": true,
                    "topics": [
                        "0x3b213e544d7183ac9b8a682aa7ad1d52d0b2c05c7aba9bf7bc025d7b3847b63e"
                    ]
                },
                "nodeType": 1
            },
            "3": {
                "invocation": {
                    "address": "0x47a778209f0b0933d855d8bff426e967db1a1963",
                    "callData": "0x000000000000000000000000000000000000000000000000000000000000000000000000000000005d302147b1edb99b3dae91a2d260455c4bbd36872f3d82c500000000000000000000000099531aa682dca2570555e052b33531d77081e5b1",
                    "decodedMethod": {
                        "callParams": [
                            {
                                "name": "",
                                "type": "uint40",
                                "value": "0"
                            },
                            {
                                "name": "_parameter",
                                "type": "uint256",
                                "value": "2,284,963,302,979,281,521,420,780,517,782,830,818,180,458,338,208,953,762,501"
                            },
                            {
                                "name": "",
                                "type": "address",
                                "value": "0x99531aa682dca2570555e052b33531d77081e5b1"
                            }
                        ],
                        "constructorArguments": "",
                        "name": "runSigned",
                        "returnParams": [],
                        "signature": "runSigned(uint40,uint256,address)"
                    },
                    "errorInfo": "",
                    "fromAddress": "0xf93be1f6c7336e78f4a3859a9d01f44595a82ab4",
                    "gasUsed": 8447,
                    "id": 3,
                    "methodDecoded": true,
                    "operation": "CALL",
                    "output": "",
                    "revert": false,
                    "revertMessage": "",
                    "selector": "0x9652713e",
                    "status": true,
                    "value": "0.013999999999999998"
                },
                "nodeType": 0
            },
            "4": {
                "invocation": {
                    "address": "0xb1edb99b3dae91a2d260455c4bbd36872f3d82c5",
                    "callData": "0x",
                    "decodedMethod": null,
                    "errorInfo": "",
                    "fromAddress": "0x47a778209f0b0933d855d8bff426e967db1a1963",
                    "gasUsed": 0,
                    "id": 4,
                    "methodDecoded": false,
                    "operation": "CALL",
                    "output": "",
                    "revert": false,
                    "revertMessage": "",
                    "selector": "fallback",
                    "status": true,
                    "value": "0.013439999999999998"
                },
                "nodeType": 0
            }
        },
        "gasFlame": [
            {
                "children": [
                    {
                        "children": [
                            {
                                "children": [],
                                "depth": 0,
                                "name": "Initial Gas",
                                "value": 29976
                            },
                            {
                                "children": [
                                    {
                                        "children": [],
                                        "depth": 1,
                                        "name": "ecrecover",
                                        "value": 3000
                                    },
                                    {
                                        "children": [
                                            {
                                                "children": [],
                                                "depth": 2,
                                                "name": "fallback",
                                                "value": 0
                                            }
                                        ],
                                        "depth": 1,
                                        "name": "runSigned",
                                        "value": 8447
                                    }
                                ],
                                "depth": 0,
                                "name": "Executed Gas",
                                "value": 46041
                            }
                        ],
                        "depth": -1,
                        "name": "Actual Gas Used",
                        "value": 76017
                    },
                    {
                        "children": [],
                        "depth": -1,
                        "name": "Refunded Gas",
                        "value": 0
                    }
                ],
                "depth": -2,
                "name": "Total Gas",
                "value": 76017
            }
        ],
        "isConfirmed": true,
        "mainTrace": [
            {
                "children": [
                    {
                        "children": [
                            {
                                "children": [],
                                "depth": 1,
                                "id": 1,
                                "order": 1
                            },
                            {
                                "children": [],
                                "depth": 1,
                                "id": 2,
                                "order": 2
                            },
                            {
                                "children": [
                                    {
                                        "children": [],
                                        "depth": 2,
                                        "id": 4,
                                        "order": 4
                                    }
                                ],
                                "depth": 1,
                                "id": 3,
                                "order": 3
                            }
                        ],
                        "depth": 0,
                        "id": 0,
                        "order": 0
                    }
                ],
                "depth": -1,
                "id": -1,
                "order": -1
            }
        ],
        "mainTraceNodeCount": 5,
        "parentIdMap": {
            "0": -1,
            "1": 0,
            "2": 0,
            "3": 0,
            "4": 3
        },
        "tidyTrace": [
            {
                "children": [
                    {
                        "children": [
                            {
                                "children": [],
                                "depth": 1,
                                "id": 1,
                                "order": 1
                            },
                            {
                                "children": [],
                                "depth": 1,
                                "id": 2,
                                "order": 2
                            },
                            {
                                "children": [
                                    {
                                        "children": [],
                                        "depth": 2,
                                        "id": 4,
                                        "order": 4
                                    }
                                ],
                                "depth": 1,
                                "id": 3,
                                "order": 3
                            }
                        ],
                        "depth": 0,
                        "id": 0,
                        "order": 0
                    }
                ],
                "depth": -1,
                "id": -1,
                "order": -1
            }
        ],
        "tidyTraceNodeCount": 5
    },
    "state_change": {
        "stateChanges": [
            {
                "address": "0xf93be1f6c7336e78f4a3859a9d01f44595a82ab4",
                "erc": "",
                "slots": [
                    {
                        "current": "0x00000000000000000000000099531aa682dca2570555e052b33531d77081e5b1",
                        "key": "0xbddf9f44bb2317e22d3bff6cf8304049eda0c219cbf181d561795b05df524af7",
                        "prev": "0x0000000000000000000000000000000000000000000000000000000000000000"
                    }
                ],
                "storageVariables": [
                    {
                        "name": "usedSignes",
                        "type": "mapping(uint40 => address)",
                        "value": {
                            "pairs": [
                                {
                                    "key": "51568368",
                                    "value": {
                                        "current": "0x99531aa682dca2570555e052b33531d77081e5b1",
                                        "prev": "0x0000000000000000000000000000000000000000",
                                        "typeTag": 1
                                    }
                                }
                            ],
                            "typeTag": 4
                        }
                    }
                ]
            }
        ]
    }
}