{
    "balance_change": {
        "balanceChanges": [
            {
                "account": "0x32358b8f361980737dd6ba40342990ffd791fd38",
                "assets": [
                    {
                        "address": "0x39bb259f66e1c59d5abef88375979b4d20d98022",
                        "amount": "200",
                        "iconUrl": "https://assets.blocksec.com/icon/0885e0310f89cb98f379dfdea248b0459387007823a091809ba0b31906b1ccbe.png",
                        "isERC1155": false,
                        "isERC721": false,
                        "sign": false,
                        "value": ""
                    }
                ]
            },
            {
                "account": "0x0000000000000000000000000053352140942228",
                "assets": [
                    {
                        "address": "0x39bb259f66e1c59d5abef88375979b4d20d98022",
                        "amount": "200",
                        "iconUrl": "https://assets.blocksec.com/icon/0885e0310f89cb98f379dfdea248b0459387007823a091809ba0b31906b1ccbe.png",
                        "isERC1155": false,
                        "isERC721": false,
                        "sign": true,
                        "value": ""
                    }
                ]
            }
        ]
    },
    "profile": {
        "basic_info": {
            "baseFee": "",
            "blockNumber": 8449264,
            "callData": "0xa9059cbb000000000000000000000000000000000000000000000000005335214094222800000000000000000000000000000000000000000000000000000004a817c800",
            "debugEnable": true,
            "errorInfo": "",
            "eventCount": 1,
            "feeRecipient": "0xea674fdde714fd979de3edf0f56aa9716b898ec8",
            "formatValue": "0",
            "gasLimit": 250000,
            "gasPrice": "6",
            "gasUsed": 51361,
            "intTxnCount": 0,
            "internalRevert": false,
            "internalRevertMessage": "",
            "isContractCreation": false,
            "isFlashloan": false,
            "maxFee": "",
            "nonce": 10,
            "overwritedBlockNumber": -1,
            "priorityFee": "",
            "receiver": "0x39bb259f66e1c59d5abef88375979b4d20d98022",
            "revertMessage": "",
            "sender": "0x32358b8f361980737dd6ba40342990ffd791fd38",
            "simulationEnable": true,
            "sourceTxnHash": "0x21b9a2709bf104d2b620ca3263319be071077ec576f58363f7f7c5b9fa8e08ec",
            "status": true,
            "timestamp": "2019-08-30T03:57:44Z",
            "transactionFee": "0.000308166",
            "txnHash": "0x21b9a2709bf104d2b620ca3263319be071077ec576f58363f7f7c5b9fa8e08ec",
            "txnIndex": 45,
            "type": 0,
            "value": "0"
        },
        "fund_flow": [
            {
                "amount": "200",
                "from": "0x32358b8f361980737dd6ba40342990ffd791fd38",
                "id": 1,
                "isERC1155": false,
                "isERC721": false,
                "isReverted": false,
                "order": 1,
                "to": "0x0000000000000000000000000053352140942228",
                "token": "0x39bb259f66e1c59d5abef88375979b4d20d98022"
            }
        ],
        "token_infos": [
            {
                "address": "0x39bb259f66e1c59d5abef88375979b4d20d98022",
                "decimals": 8
            },
            {
                "address": "0xc02aaa39b223fe8d0a0e5c4f27ead9083c756cc2",
                "decimals": 18
            },
            {
                "address": "0xeeeeeeeeeeeeeeeeeeeeeeeeeeeeeeeeeeeeeeee",
                "decimals": 18
            }
        ]
    },
    "address_label": {
        "labels": [
            {
                "address": "0xeeeeeeeeeeeeeeeeeeeeeeeeeeeeeeeeeeeeeeee",
                "label": "Ether"
            },
            {
                "address": "0x39bb259f66e1c59d5abef88375979b4d20d98022",
                "label": "Worldwide Asset eXchange: WAX Token"
            },
            {
                "address": "0x0000000000000000000000000000000000000001",
                "label": "Precompiled"
            },
            {
                "address": "0x0000000000000000000000000000000000000002",
                "label": "Precompiled"
            },
            {
                "address": "0x0000000000000000000000000000000000000003",
                "label": "Precompiled"
            },
            {
                "address": "0x0000000000000000000000000000000000000004",
                "label": "Precompiled"
            }
        ]
    },
    "trace": {
        "accountLabels": null,
        "dataMap": {
            "-1": {
                "invocation": {
                    "address": "0x32358b8f361980737dd6ba40342990ffd791fd38",
                    "callData": "",
                    "decodedMethod": null,
                    "errorInfo": "",
                    "fromAddress": "",
                    "gasUsed": 0,
                    "id": -1,
                    "methodDecoded": false,
                    "operation": "",
                    "output": "",
                    "revert": false,
                    "revertMessage": "",
                    "selector": "",
                    "status": false,
                    "value": ""
                },
                "nodeType": 0
            },
            "0": {
                "invocation": {
                    "address": "0x39bb259f66e1c59d5abef88375979b4d20d98022",
                    "callData": "0x000000000000000000000000000000000000000000000000005335214094222800000000000000000000000000000000000000000000000000000004a817c800",
                    "decodedMethod": {
                        "callParams": [
                            {
                                "name": "_to",
                                "type": "address",
                                "value": "0x0000000000000000000000000053352140942228"
                            },
                            {
                                "decimalAvailable": true,
                                "name": "_value",
                                "type": "uint256",
                                "value": "20,000,000,000"
                            }
                        ],
                        "constructorArguments": "",
                        "name": "transfer",
                        "returnParams": [
                            {
                                "name": "",
                                "type": "bool",
                                "value": true
                            }
                        ],
                        "signature": "transfer(address,uint256)"
                    },
                    "errorInfo": "",
                    "fromAddress": "0x32358b8f361980737dd6ba40342990ffd791fd38",
                    "gasUsed": 51361,
                    "id": 0,
                    "methodDecoded": true,
                    "operation": "CALL",
                    "output": "0x0000000000000000000000000000000000000000000000000000000000000001",
                    "revert": false,
                    "revertMessage": "",
                    "selector": "0xa9059cbb",
                    "status": true,
                    "value": "0"
                },
                "nodeType": 0
            },
            "1": {
                "event": {
                    "contract": "0x39bb259f66e1c59d5abef88375979b4d20d98022",
                    "decodedLog": {
                        "name": "Transfer",
                        "params": [
                            {
                                "name": "from",
                                "type": "address",
                                "value": "0x32358b8f361980737dd6ba40342990ffd791fd38"
                            },
                            {
                                "name": "to",
                                "type": "address",
                                "value": "0x0000000000000000000000000053352140942228"
                            },
                            {
                                "decimalAvailable": true,
                                "name": "value",
                                "type": "uint256",
                                "value": "20,000,000,000"
                            }
                        ],
                        "signature": "Transfer(address,address,uint256)"
                    },
                    "id": 1,
                    "logData": "0x00000000000000000000000000000000000000000000000000000004a817c800",
                    "logDecoded": true,
                    "operation": "EVENT",
                    "revert": false,
                    "status": true,
                    "topics": [
                        "0xddf252ad1be2c89b69c2b068fc378daa952ba7f163c4a11628f55a4df523b3ef",
                        "0x00000000000000000000000032358b8f361980737dd6ba40342990ffd791fd38",
                        "0x0000000000000000000000000000000000000000000000000053352140942228"
                    ]
                },
                "nodeType": 1
            }
        },
        "gasFlame": [
            {
                "children": [
                    {
                        "children": [
                            {
                                "children": [],
                                "depth": 0,
                                "name": "Initial Gas",
                                "value": 22232
                            },
                            {
                                "children": [],
                                "depth": 0,
                                "name": "Executed Gas",
                                "value": 29129
                            }
                        ],
                        "depth": -1,
                        "name": "Actual Gas Used",
                        "value": 51361
                    },
                    {
                        "children": [],
                        "depth": -1,
                        "name": "Refunded Gas",
                        "value": 0
                    }
                ],
                "depth": -2,
                "name": "Total Gas",
                "value": 51361
            }
        ],
        "isConfirmed": true,
        "mainTrace": [
            {
                "children": [
                    {
                        "children": [
                            {
                                "children": [],
                                "depth": 1,
                                "id": 1,
                                "order": 1
                            }
                        ],
                        "depth": 0,
                        "id": 0,
                        "order": 0
                    }
                ],
                "depth": -1,
                "id": -1,
                "order": -1
            }
        ],
        "mainTraceNodeCount": 2,
        "parentIdMap": {
            "0": -1,
            "1": 0
        },
        "tidyTrace": [
            {
                "children": [
                    {
                        "children": [
                            {
                                "children": [],
                                "depth": 1,
                                "id": 1,
                                "order": 1
                            }
                        ],
                        "depth": 0,
                        "id": 0,
                        "order": 0
                    }
                ],
                "depth": -1,
                "id": -1,
                "order": -1
            }
        ],
        "tidyTraceNodeCount": 2
    },
    "state_change": {
        "stateChanges": [
            {
                "address": "0x39bb259f66e1c59d5abef88375979b4d20d98022",
                "erc": "ERC-20",
                "slots": [
                    {
                        "current": "0x0000000000000000000000000000000000000000000000000000002d0b12fcb2",
                        "key": "0x9b2ec4fe7494e6c2b63423483310dd4354528aa3752f8a6a9f9b18ebb21d0578",
                        "prev": "0x00000000000000000000000000000000000000000000000000000031b32ac4b2"
                    },
                    {
                        "current": "0x00000000000000000000000000000000000000000000000000000004a817c800",
                        "key": "0x693d4d7a51cda6fe278148b92c1c6bab06e9d772c7b060556cde61b9439644ce",
                        "prev": "0x0000000000000000000000000000000000000000000000000000000000000000"
                    }
                ],
                "storageVariables": [
                    {
                        "name": "balances",
                        "type": "mapping(address => uint256)",
                        "value": {
                            "pairs": [
                                {
                                    "key": "0x0000000000000000000000000053352140942228",
                                    "value": {
                                        "current": "20000000000",
                                        "prev": "0",
                                        "typeTag": 1
                                    }
                                },
                                {
                                    "key": "0x32358b8f361980737dd6ba40342990ffd791fd38",
                                    "value": {
                                        "current": "193459322034",
                                        "prev": "213459322034",
                                        "typeTag": 1
                                    }
                                }
                            ],
                            "typeTag": 4
                        }
                    }
                ]
            }
        ]
    }
}