{
    "balance_change": {
        "balanceChanges": [
            {
                "account": "0x56eddb7aa87536c09ccc2793473599fd21a8b17f",
                "assets": [
                    {
                        "address": "0xdac17f958d2ee523a2206206994597c13d831ec7",
                        "amount": "12,763.72",
                        "iconUrl": "https://assets.blocksec.com/icon/fcea71f3193ce895be44bfdf941f7e4c9381dd587f273c2d1a27f1263d84e4ea.png",
                        "isERC1155": false,
                        "isERC721": false,
                        "sign": false,
                        "value": "12827.6534734800005255"
                    }
                ]
            },
            {
                "account": "0x8903e3ad4dbe9acc7052e981d26753f5c5a34bc1",
                "assets": [
                    {
                        "address": "0xdac17f958d2ee523a2206206994597c13d831ec7",
                        "amount": "12,763.72",
                        "iconUrl": "https://assets.blocksec.com/icon/fcea71f3193ce895be44bfdf941f7e4c9381dd587f273c2d1a27f1263d84e4ea.png",
                        "isERC1155": false,
                        "isERC721": false,
                        "sign": true,
                        "value": "12827.6534734800005255"
                    }
                ]
            }
        ]
    },
    "profile": {
        "basic_info": {
            "baseFee": "90.110390448",
            "blockNumber": 13607833,
            "callData": "0xa9059cbb0000000000000000000000008903e3ad4dbe9acc7052e981d26753f5c5a34bc100000000000000000000000000000000000000000000000000000002f8c6e940",
            "debugEnable": true,
            "errorInfo": "",
            "eventCount": 1,
            "feeRecipient": "0xea674fdde714fd979de3edf0f56aa9716b898ec8",
            "formatValue": "0",
            "gasLimit": 207128,
            "gasPrice": "145",
            "gasUsed": 46121,
            "intTxnCount": 0,
            "internalRevert": false,
            "internalRevertMessage": "",
            "isContractCreation": false,
            "isFlashloan": false,
            "maxFee": "",
            "nonce": 1796276,
            "overwritedBlockNumber": -1,
            "priorityFee": "",
            "receiver": "0xdac17f958d2ee523a2206206994597c13d831ec7",
            "revertMessage": "",
            "sender": "0x56eddb7aa87536c09ccc2793473599fd21a8b17f",
            "simulationEnable": true,
            "sourceTxnHash": "0x218584dc8ba66f1315b833b7c6ae12176c88eb881c7591901f9b42ba059a14f1",
            "status": true,
            "timestamp": "2021-11-13T13:02:52Z",
            "transactionFee": "0.006687545",
            "txnHash": "0x218584dc8ba66f1315b833b7c6ae12176c88eb881c7591901f9b42ba059a14f1",
            "txnIndex": 92,
            "type": 0,
            "value": "0"
        },
        "fund_flow": [
            {
                "amount": "12,763.72",
                "from": "0x56eddb7aa87536c09ccc2793473599fd21a8b17f",
                "id": 1,
                "isERC1155": false,
                "isERC721": false,
                "isReverted": false,
                "order": 1,
                "to": "0x8903e3ad4dbe9acc7052e981d26753f5c5a34bc1",
                "token": "0xdac17f958d2ee523a2206206994597c13d831ec7"
            }
        ],
        "token_infos": [
            {
                "address": "0xc02aaa39b223fe8d0a0e5c4f27ead9083c756cc2",
                "decimals": 18
            },
            {
                "address": "0xdac17f958d2ee523a2206206994597c13d831ec7",
                "decimals": 6
            },
            {
                "address": "0xeeeeeeeeeeeeeeeeeeeeeeeeeeeeeeeeeeeeeeee",
                "decimals": 18
            }
        ]
    },
    "address_label": {
        "labels": [
            {
                "address": "0x0000000000000000000000000000000000000004",
                "label": "Precompiled"
            },
            {
                "address": "0xeeeeeeeeeeeeeeeeeeeeeeeeeeeeeeeeeeeeeeee",
                "label": "Ether"
            },
            {
                "address": "0x56eddb7aa87536c09ccc2793473599fd21a8b17f",
                "label": "Binance 17"
            },
            {
                "address": "0xdac17f958d2ee523a2206206994597c13d831ec7",
                "label": "Tether: USDT Stablecoin"
            },
            {
                "address": "0x0000000000000000000000000000000000000001",
                "label": "Precompiled"
            },
            {
                "address": "0x0000000000000000000000000000000000000002",
                "label": "Precompiled"
            },
            {
                "address": "0x0000000000000000000000000000000000000003",
                "label": "Precompiled"
            }
        ]
    },
    "trace": {
        "accountLabels": null,
        "dataMap": {
            "-1": {
                "invocation": {
                    "address": "0x56eddb7aa87536c09ccc2793473599fd21a8b17f",
                    "callData": "",
                    "decodedMethod": null,
                    "errorInfo": "",
                    "fromAddress": "",
                    "gasUsed": 0,
                    "id": -1,
                    "methodDecoded": false,
                    "operation": "",
                    "output": "",
                    "revert": false,
                    "revertMessage": "",
                    "selector": "",
                    "status": false,
                    "value": ""
                },
                "nodeType": 0
            },
            "0": {
                "invocation": {
                    "address": "0xdac17f958d2ee523a2206206994597c13d831ec7",
                    "callData": "0x0000000000000000000000008903e3ad4dbe9acc7052e981d26753f5c5a34bc100000000000000000000000000000000000000000000000000000002f8c6e940",
                    "decodedMethod": {
                        "callParams": [
                            {
                                "name": "_to",
                                "type": "address",
                                "value": "0x8903e3ad4dbe9acc7052e981d26753f5c5a34bc1"
                            },
                            {
                                "decimalAvailable": true,
                                "name": "_value",
                                "type": "uint256",
                                "value": "12,763,720,000"
                            }
                        ],
                        "constructorArguments": "",
                        "name": "transfer",
                        "returnParams": [],
                        "signature": "transfer(address,uint256)"
                    },
                    "errorInfo": "",
                    "fromAddress": "0x56eddb7aa87536c09ccc2793473599fd21a8b17f",
                    "gasUsed": 46121,
                    "id": 0,
                    "methodDecoded": true,
                    "operation": "CALL",
                    "output": "",
                    "revert": false,
                    "revertMessage": "",
                    "selector": "0xa9059cbb",
                    "status": true,
                    "value": "0"
                },
                "nodeType": 0
            },
            "1": {
                "event": {
                    "contract": "0xdac17f958d2ee523a2206206994597c13d831ec7",
                    "decodedLog": {
                        "name": "Transfer",
                        "params": [
                            {
                                "name": "from",
                                "type": "address",
                                "value": "0x56eddb7aa87536c09ccc2793473599fd21a8b17f"
                            },
                            {
                                "name": "to",
                                "type": "address",
                                "value": "0x8903e3ad4dbe9acc7052e981d26753f5c5a34bc1"
                            },
                            {
                                "decimalAvailable": true,
                                "name": "value",
                                "type": "uint256",
                                "value": "12,763,720,000"
                            }
                        ],
                        "signature": "Transfer(address,address,uint256)"
                    },
                    "id": 1,
                    "logData": "0x00000000000000000000000000000000000000000000000000000002f8c6e940",
                    "logDecoded": true,
                    "operation": "EVENT",
                    "revert": false,
                    "status": true,
                    "topics": [
                        "0xddf252ad1be2c89b69c2b068fc378daa952ba7f163c4a11628f55a4df523b3ef",
                        "0x00000000000000000000000056eddb7aa87536c09ccc2793473599fd21a8b17f",
                        "0x0000000000000000000000008903e3ad4dbe9acc7052e981d26753f5c5a34bc1"
                    ]
                },
                "nodeType": 1
            }
        },
        "gasFlame": [
            {
                "children": [
                    {
                        "children": [
                            {
                                "children": [],
                                "depth": 0,
                                "name": "Initial Gas",
                                "value": 21620
                            },
                            {
                                "children": [],
                                "depth": 0,
                                "name": "Executed Gas",
                                "value": 24501
                            }
                        ],
                        "depth": -1,
                        "name": "Actual Gas Used",
                        "value": 46121
                    },
                    {
                        "children": [],
                        "depth": -1,
                        "name": "Refunded Gas",
                        "value": 0
                    }
                ],
                "depth": -2,
                "name": "Total Gas",
                "value": 46121
            }
        ],
        "isConfirmed": true,
        "mainTrace": [
            {
                "children": [
                    {
                        "children": [
                            {
                                "children": [],
                                "depth": 1,
                                "id": 1,
                                "order": 1
                            }
                        ],
                        "depth": 0,
                        "id": 0,
                        "order": 0
                    }
                ],
                "depth": -1,
                "id": -1,
                "order": -1
            }
        ],
        "mainTraceNodeCount": 2,
        "parentIdMap": {
            "0": -1,
            "1": 0
        },
        "tidyTrace": [
            {
                "children": [
                    {
                        "children": [
                            {
                                "children": [],
                                "depth": 1,
                                "id": 1,
                                "order": 1
                            }
                        ],
                        "depth": 0,
                        "id": 0,
                        "order": 0
                    }
                ],
                "depth": -1,
                "id": -1,
                "order": -1
            }
        ],
        "tidyTraceNodeCount": 2
    },
    "state_change": {
        "stateChanges": [
            {
                "address": "0xdac17f958d2ee523a2206206994597c13d831ec7",
                "erc": "ERC-20",
                "slots": [
                    {
                        "current": "0x0000000000000000000000000000000000000000000000000000caa201d6e39f",
                        "key": "0x4966c331fd21bb95e5096f54ff5bc865ffddab6a0f3c4edcb615c80b8d472ba5",
                        "prev": "0x0000000000000000000000000000000000000000000000000000caa4fa9dccdf"
                    },
                    {
                        "current": "0x0000000000000000000000000000000000000000000000000000001165f32e80",
                        "key": "0xd851506fc557ad76c7494a4c179611297cab6eb7febb2e64929bbed71c4fe0cd",
                        "prev": "0x0000000000000000000000000000000000000000000000000000000e6d2c4540"
                    }
                ],
                "storageVariables": [
                    {
                        "name": "balances",
                        "type": "mapping(address => uint256)",
                        "value": {
                            "pairs": [
                                {
                                    "key": "0x56eddb7aa87536c09ccc2793473599fd21a8b17f",
                                    "value": {
                                        "current": "222797164372895",
                                        "prev": "222809928092895",
                                        "typeTag": 1
                                    }
                                },
                                {
                                    "key": "0x8903e3ad4dbe9acc7052e981d26753f5c5a34bc1",
                                    "value": {
                                        "current": "74724880000",
                                        "prev": "61961160000",
                                        "typeTag": 1
                                    }
                                }
                            ],
                            "typeTag": 4
                        }
                    }
                ]
            }
        ]
    }
}