{
    "balance_change": {
        "balanceChanges": [
            {
                "account": "0xae1d081e0ad07a8e5fa8097968857655c930252d",
                "assets": [
                    {
                        "address": "0xe530441f4f73bdb6dc2fa5af7c3fc5fd551ec838",
                        "amount": "4.34",
                        "iconUrl": "https://assets.blocksec.com/icon/f962fdaabc2a2beafaad1960afcd305031c665fb5b04f8cadda8adc1c1fba949.png",
                        "isERC1155": false,
                        "isERC721": false,
                        "sign": false,
                        "value": ""
                    }
                ]
            },
            {
                "account": "0x20c15bc1671fd84fc6d04be5ce4d546db2f39d35",
                "assets": [
                    {
                        "address": "0xe530441f4f73bdb6dc2fa5af7c3fc5fd551ec838",
                        "amount": "4.34",
                        "iconUrl": "https://assets.blocksec.com/icon/f962fdaabc2a2beafaad1960afcd305031c665fb5b04f8cadda8adc1c1fba949.png",
                        "isERC1155": false,
                        "isERC721": false,
                        "sign": true,
                        "value": ""
                    }
                ]
            }
        ]
    },
    "profile": {
        "basic_info": {
            "baseFee": "",
            "blockNumber": 6185289,
            "callData": "0xa9059cbb00000000000000000000000020c15bc1671fd84fc6d04be5ce4d546db2f39d35000000000000000000000000000000000000000000000000000000000000a988",
            "debugEnable": true,
            "errorInfo": "",
            "eventCount": 1,
            "feeRecipient": "0xb2930b35844a230f00e51431acae96fe543a0347",
            "formatValue": "0",
            "gasLimit": 37686,
            "gasPrice": "2.1",
            "gasUsed": 37622,
            "intTxnCount": 0,
            "internalRevert": false,
            "internalRevertMessage": "",
            "isContractCreation": false,
            "isFlashloan": false,
            "maxFee": "",
            "nonce": 2,
            "overwritedBlockNumber": -1,
            "priorityFee": "",
            "receiver": "0xe530441f4f73bdb6dc2fa5af7c3fc5fd551ec838",
            "revertMessage": "",
            "sender": "0xae1d081e0ad07a8e5fa8097968857655c930252d",
            "simulationEnable": true,
            "sourceTxnHash": "0x21682282e6bc270a125606838f89e4c0606ea7043ee54937b9b6ebad3aeba0fd",
            "status": true,
            "timestamp": "2018-08-21T04:16:16Z",
            "transactionFee": "0.0000790062",
            "txnHash": "0x21682282e6bc270a125606838f89e4c0606ea7043ee54937b9b6ebad3aeba0fd",
            "txnIndex": 157,
            "type": 0,
            "value": "0"
        },
        "fund_flow": [
            {
                "amount": "4.34",
                "from": "0xae1d081e0ad07a8e5fa8097968857655c930252d",
                "id": 1,
                "isERC1155": false,
                "isERC721": false,
                "isReverted": false,
                "order": 1,
                "to": "0x20c15bc1671fd84fc6d04be5ce4d546db2f39d35",
                "token": "0xe530441f4f73bdb6dc2fa5af7c3fc5fd551ec838"
            }
        ],
        "token_infos": [
            {
                "address": "0xc02aaa39b223fe8d0a0e5c4f27ead9083c756cc2",
                "decimals": 18
            },
            {
                "address": "0xe530441f4f73bdb6dc2fa5af7c3fc5fd551ec838",
                "decimals": 4
            },
            {
                "address": "0xeeeeeeeeeeeeeeeeeeeeeeeeeeeeeeeeeeeeeeee",
                "decimals": 18
            }
        ]
    },
    "address_label": {
        "labels": [
            {
                "address": "0x0000000000000000000000000000000000000001",
                "label": "Precompiled"
            },
            {
                "address": "0x0000000000000000000000000000000000000002",
                "label": "Precompiled"
            },
            {
                "address": "0x0000000000000000000000000000000000000003",
                "label": "Precompiled"
            },
            {
                "address": "0x0000000000000000000000000000000000000004",
                "label": "Precompiled"
            },
            {
                "address": "0xeeeeeeeeeeeeeeeeeeeeeeeeeeeeeeeeeeeeeeee",
                "label": "Ether"
            },
            {
                "address": "0xe530441f4f73bdb6dc2fa5af7c3fc5fd551ec838",
                "label": "GSENetwork Token"
            }
        ]
    },
    "trace": {
        "accountLabels": null,
        "dataMap": {
            "-1": {
                "invocation": {
                    "address": "0xae1d081e0ad07a8e5fa8097968857655c930252d",
                    "callData": "",
                    "decodedMethod": null,
                    "errorInfo": "",
                    "fromAddress": "",
                    "gasUsed": 0,
                    "id": -1,
                    "methodDecoded": false,
                    "operation": "",
                    "output": "",
                    "revert": false,
                    "revertMessage": "",
                    "selector": "",
                    "status": false,
                    "value": ""
                },
                "nodeType": 0
            },
            "0": {
                "invocation": {
                    "address": "0xe530441f4f73bdb6dc2fa5af7c3fc5fd551ec838",
                    "callData": "0x00000000000000000000000020c15bc1671fd84fc6d04be5ce4d546db2f39d35000000000000000000000000000000000000000000000000000000000000a988",
                    "decodedMethod": {
                        "callParams": [
                            {
                                "name": "_to",
                                "type": "address",
                                "value": "0x20c15bc1671fd84fc6d04be5ce4d546db2f39d35"
                            },
                            {
                                "decimalAvailable": true,
                                "name": "_value",
                                "type": "uint256",
                                "value": "43,400"
                            }
                        ],
                        "constructorArguments": "",
                        "name": "transfer",
                        "returnParams": [
                            {
                                "name": "",
                                "type": "bool",
                                "value": true
                            }
                        ],
                        "signature": "transfer(address,uint256)"
                    },
                    "errorInfo": "",
                    "fromAddress": "0xae1d081e0ad07a8e5fa8097968857655c930252d",
                    "gasUsed": 37622,
                    "id": 0,
                    "methodDecoded": true,
                    "operation": "CALL",
                    "output": "0x0000000000000000000000000000000000000000000000000000000000000001",
                    "revert": false,
                    "revertMessage": "",
                    "selector": "0xa9059cbb",
                    "status": true,
                    "value": "0"
                },
                "nodeType": 0
            },
            "1": {
                "event": {
                    "contract": "0xe530441f4f73bdb6dc2fa5af7c3fc5fd551ec838",
                    "decodedLog": {
                        "name": "Transfer",
                        "params": [
                            {
                                "name": "from",
                                "type": "address",
                                "value": "0xae1d081e0ad07a8e5fa8097968857655c930252d"
                            },
                            {
                                "name": "to",
                                "type": "address",
                                "value": "0x20c15bc1671fd84fc6d04be5ce4d546db2f39d35"
                            },
                            {
                                "decimalAvailable": true,
                                "name": "value",
                                "type": "uint256",
                                "value": "43,400"
                            }
                        ],
                        "signature": "Transfer(address,address,uint256)"
                    },
                    "id": 1,
                    "logData": "0x000000000000000000000000000000000000000000000000000000000000a988",
                    "logDecoded": true,
                    "operation": "EVENT",
                    "revert": false,
                    "status": true,
                    "topics": [
                        "0xddf252ad1be2c89b69c2b068fc378daa952ba7f163c4a11628f55a4df523b3ef",
                        "0x000000000000000000000000ae1d081e0ad07a8e5fa8097968857655c930252d",
                        "0x00000000000000000000000020c15bc1671fd84fc6d04be5ce4d546db2f39d35"
                    ]
                },
                "nodeType": 1
            }
        },
        "gasFlame": [
            {
                "children": [
                    {
                        "children": [
                            {
                                "children": [],
                                "depth": 0,
                                "name": "Initial Gas",
                                "value": 22936
                            },
                            {
                                "children": [],
                                "depth": 0,
                                "name": "Executed Gas",
                                "value": 14686
                            }
                        ],
                        "depth": -1,
                        "name": "Actual Gas Used",
                        "value": 37622
                    },
                    {
                        "children": [],
                        "depth": -1,
                        "name": "Refunded Gas",
                        "value": 0
                    }
                ],
                "depth": -2,
                "name": "Total Gas",
                "value": 37622
            }
        ],
        "isConfirmed": true,
        "mainTrace": [
            {
                "children": [
                    {
                        "children": [
                            {
                                "children": [],
                                "depth": 1,
                                "id": 1,
                                "order": 1
                            }
                        ],
                        "depth": 0,
                        "id": 0,
                        "order": 0
                    }
                ],
                "depth": -1,
                "id": -1,
                "order": -1
            }
        ],
        "mainTraceNodeCount": 2,
        "parentIdMap": {
            "0": -1,
            "1": 0
        },
        "tidyTrace": [
            {
                "children": [
                    {
                        "children": [
                            {
                                "children": [],
                                "depth": 1,
                                "id": 1,
                                "order": 1
                            }
                        ],
                        "depth": 0,
                        "id": 0,
                        "order": 0
                    }
                ],
                "depth": -1,
                "id": -1,
                "order": -1
            }
        ],
        "tidyTraceNodeCount": 2
    },
    "state_change": {
        "stateChanges": [
            {
                "address": "0xe530441f4f73bdb6dc2fa5af7c3fc5fd551ec838",
                "erc": "ERC-20",
                "slots": [
                    {
                        "current": "0x0000000000000000000000000000000000000000000000000000000000119e8c",
                        "key": "0x6f129f549f282cf8a29b18680dfe54d54ae9560a1be389cad28a3745b3f66196",
                        "prev": "0x0000000000000000000000000000000000000000000000000000000000124814"
                    },
                    {
                        "current": "0x0000000000000000000000000000000000000000000000000000000000037a4f",
                        "key": "0x8d950e2c3df06f0f69b70f261a02bfe4489f62f11804e9e0c94aba4290d525bc",
                        "prev": "0x000000000000000000000000000000000000000000000000000000000002d0c7"
                    }
                ],
                "storageVariables": [
                    {
                        "name": "balances",
                        "type": "mapping(address => uint256)",
                        "value": {
                            "pairs": [
                                {
                                    "key": "0x20c15bc1671fd84fc6d04be5ce4d546db2f39d35",
                                    "value": {
                                        "current": "227919",
                                        "prev": "184519",
                                        "typeTag": 1
                                    }
                                },
                                {
                                    "key": "0xae1d081e0ad07a8e5fa8097968857655c930252d",
                                    "value": {
                                        "current": "1154700",
                                        "prev": "1198100",
                                        "typeTag": 1
                                    }
                                }
                            ],
                            "typeTag": 4
                        }
                    }
                ]
            }
        ]
    }
}