{
    "balance_change": {
        "balanceChanges": [
            {
                "account": "0xf07d98ca27ac18776b4b5a34c2e252cd1d1df4db",
                "assets": [
                    {
                        "address": "0x3495ffcee09012ab7d827abf3e3b3ae428a38443",
                        "amount": "5,000",
                        "iconUrl": "",
                        "isERC1155": false,
                        "isERC721": false,
                        "sign": false,
                        "value": ""
                    }
                ]
            },
            {
                "account": "0xf1543b23175ceec40d89a66c0a096e0a47f6fda4",
                "assets": [
                    {
                        "address": "0x3495ffcee09012ab7d827abf3e3b3ae428a38443",
                        "amount": "5,000",
                        "iconUrl": "",
                        "isERC1155": false,
                        "isERC721": false,
                        "sign": true,
                        "value": ""
                    }
                ]
            }
        ]
    },
    "profile": {
        "basic_info": {
            "baseFee": "",
            "blockNumber": 6040123,
            "callData": "0xa9059cbb000000000000000000000000f1543b23175ceec40d89a66c0a096e0a47f6fda400000000000000000000000000000000000000000000010f0cf064dd59200000",
            "debugEnable": true,
            "errorInfo": "",
            "eventCount": 1,
            "feeRecipient": "0xea674fdde714fd979de3edf0f56aa9716b898ec8",
            "formatValue": "0",
            "gasLimit": 60000,
            "gasPrice": "3.675",
            "gasUsed": 37479,
            "intTxnCount": 0,
            "internalRevert": false,
            "internalRevertMessage": "",
            "isContractCreation": false,
            "isFlashloan": false,
            "maxFee": "",
            "nonce": 436,
            "overwritedBlockNumber": -1,
            "priorityFee": "",
            "receiver": "0x3495ffcee09012ab7d827abf3e3b3ae428a38443",
            "revertMessage": "",
            "sender": "0xf07d98ca27ac18776b4b5a34c2e252cd1d1df4db",
            "simulationEnable": true,
            "sourceTxnHash": "0x21d46b86289005b15cfcf5480ee7a5a73a0860f6dbd122ff1e959481155c8a10",
            "status": true,
            "timestamp": "2018-07-27T16:12:59Z",
            "transactionFee": "0.000137735325",
            "txnHash": "0x21d46b86289005b15cfcf5480ee7a5a73a0860f6dbd122ff1e959481155c8a10",
            "txnIndex": 179,
            "type": 0,
            "value": "0"
        },
        "fund_flow": [
            {
                "amount": "5,000",
                "from": "0xf07d98ca27ac18776b4b5a34c2e252cd1d1df4db",
                "id": 1,
                "isERC1155": false,
                "isERC721": false,
                "isReverted": false,
                "order": 1,
                "to": "0xf1543b23175ceec40d89a66c0a096e0a47f6fda4",
                "token": "0x3495ffcee09012ab7d827abf3e3b3ae428a38443"
            }
        ],
        "token_infos": [
            {
                "address": "0x3495ffcee09012ab7d827abf3e3b3ae428a38443",
                "decimals": 18
            },
            {
                "address": "0xc02aaa39b223fe8d0a0e5c4f27ead9083c756cc2",
                "decimals": 18
            },
            {
                "address": "0xeeeeeeeeeeeeeeeeeeeeeeeeeeeeeeeeeeeeeeee",
                "decimals": 18
            }
        ]
    },
    "address_label": {
        "labels": [
            {
                "address": "0xeeeeeeeeeeeeeeeeeeeeeeeeeeeeeeeeeeeeeeee",
                "label": "Ether"
            },
            {
                "address": "0x3495ffcee09012ab7d827abf3e3b3ae428a38443",
                "label": "BeautyChain (BEC)"
            },
            {
                "address": "0x0000000000000000000000000000000000000001",
                "label": "Precompiled"
            },
            {
                "address": "0x0000000000000000000000000000000000000002",
                "label": "Precompiled"
            },
            {
                "address": "0x0000000000000000000000000000000000000003",
                "label": "Precompiled"
            },
            {
                "address": "0x0000000000000000000000000000000000000004",
                "label": "Precompiled"
            }
        ]
    },
    "trace": {
        "accountLabels": null,
        "dataMap": {
            "-1": {
                "invocation": {
                    "address": "0xf07d98ca27ac18776b4b5a34c2e252cd1d1df4db",
                    "callData": "",
                    "decodedMethod": null,
                    "errorInfo": "",
                    "fromAddress": "",
                    "gasUsed": 0,
                    "id": -1,
                    "methodDecoded": false,
                    "operation": "",
                    "output": "",
                    "revert": false,
                    "revertMessage": "",
                    "selector": "",
                    "status": false,
                    "value": ""
                },
                "nodeType": 0
            },
            "0": {
                "invocation": {
                    "address": "0x3495ffcee09012ab7d827abf3e3b3ae428a38443",
                    "callData": "0x000000000000000000000000f1543b23175ceec40d89a66c0a096e0a47f6fda400000000000000000000000000000000000000000000010f0cf064dd59200000",
                    "decodedMethod": {
                        "callParams": [
                            {
                                "name": "_to",
                                "type": "address",
                                "value": "0xf1543b23175ceec40d89a66c0a096e0a47f6fda4"
                            },
                            {
                                "decimalAvailable": true,
                                "name": "_value",
                                "type": "uint256",
                                "value": "5,000,000,000,000,000,000,000"
                            }
                        ],
                        "constructorArguments": "",
                        "name": "transfer",
                        "returnParams": [
                            {
                                "name": "",
                                "type": "bool",
                                "value": true
                            }
                        ],
                        "signature": "transfer(address,uint256)"
                    },
                    "errorInfo": "",
                    "fromAddress": "0xf07d98ca27ac18776b4b5a34c2e252cd1d1df4db",
                    "gasUsed": 37479,
                    "id": 0,
                    "methodDecoded": true,
                    "operation": "CALL",
                    "output": "0x0000000000000000000000000000000000000000000000000000000000000001",
                    "revert": false,
                    "revertMessage": "",
                    "selector": "0xa9059cbb",
                    "status": true,
                    "value": "0"
                },
                "nodeType": 0
            },
            "1": {
                "event": {
                    "contract": "0x3495ffcee09012ab7d827abf3e3b3ae428a38443",
                    "decodedLog": {
                        "name": "Transfer",
                        "params": [
                            {
                                "name": "from",
                                "type": "address",
                                "value": "0xf07d98ca27ac18776b4b5a34c2e252cd1d1df4db"
                            },
                            {
                                "name": "to",
                                "type": "address",
                                "value": "0xf1543b23175ceec40d89a66c0a096e0a47f6fda4"
                            },
                            {
                                "decimalAvailable": true,
                                "name": "value",
                                "type": "uint256",
                                "value": "5,000,000,000,000,000,000,000"
                            }
                        ],
                        "signature": "Transfer(address,address,uint256)"
                    },
                    "id": 1,
                    "logData": "0x00000000000000000000000000000000000000000000010f0cf064dd59200000",
                    "logDecoded": true,
                    "operation": "EVENT",
                    "revert": false,
                    "status": true,
                    "topics": [
                        "0xddf252ad1be2c89b69c2b068fc378daa952ba7f163c4a11628f55a4df523b3ef",
                        "0x000000000000000000000000f07d98ca27ac18776b4b5a34c2e252cd1d1df4db",
                        "0x000000000000000000000000f1543b23175ceec40d89a66c0a096e0a47f6fda4"
                    ]
                },
                "nodeType": 1
            }
        },
        "gasFlame": [
            {
                "children": [
                    {
                        "children": [
                            {
                                "children": [],
                                "depth": 0,
                                "name": "Initial Gas",
                                "value": 23320
                            },
                            {
                                "children": [],
                                "depth": 0,
                                "name": "Executed Gas",
                                "value": 14159
                            }
                        ],
                        "depth": -1,
                        "name": "Actual Gas Used",
                        "value": 37479
                    },
                    {
                        "children": [],
                        "depth": -1,
                        "name": "Refunded Gas",
                        "value": 0
                    }
                ],
                "depth": -2,
                "name": "Total Gas",
                "value": 37479
            }
        ],
        "isConfirmed": true,
        "mainTrace": [
            {
                "children": [
                    {
                        "children": [
                            {
                                "children": [],
                                "depth": 1,
                                "id": 1,
                                "order": 1
                            }
                        ],
                        "depth": 0,
                        "id": 0,
                        "order": 0
                    }
                ],
                "depth": -1,
                "id": -1,
                "order": -1
            }
        ],
        "mainTraceNodeCount": 2,
        "parentIdMap": {
            "0": -1,
            "1": 0
        },
        "tidyTrace": [
            {
                "children": [
                    {
                        "children": [
                            {
                                "children": [],
                                "depth": 1,
                                "id": 1,
                                "order": 1
                            }
                        ],
                        "depth": 0,
                        "id": 0,
                        "order": 0
                    }
                ],
                "depth": -1,
                "id": -1,
                "order": -1
            }
        ],
        "tidyTraceNodeCount": 2
    },
    "state_change": {
        "stateChanges": [
            {
                "address": "0x3495ffcee09012ab7d827abf3e3b3ae428a38443",
                "erc": "ERC-20",
                "slots": [
                    {
                        "current": "0x0000000000000000000000000000000000000000000023274fcc63eb96e00000",
                        "key": "0x4cbc8ac091fedd20c7c78264ad4b84c7c9811c4c4de82980d014c185b3131e97",
                        "prev": "0x0000000000000000000000000000000000000000000024365cbcc8c8f0000000"
                    },
                    {
                        "current": "0x0000000000000000000000000000000000000000000001113d77ebaac9100000",
                        "key": "0x7466d728de6ab3b746bdb48a92a80a9ecf9358d1b758699886c6626968825ec8",
                        "prev": "0x000000000000000000000000000000000000000000000002308786cd6ff00000"
                    }
                ],
                "storageVariables": [
                    {
                        "name": "balances",
                        "type": "mapping(address => uint256)",
                        "value": {
                            "pairs": [
                                {
                                    "key": "0xf07d98ca27ac18776b4b5a34c2e252cd1d1df4db",
                                    "value": {
                                        "current": "166008000000000000000000",
                                        "prev": "171008000000000000000000",
                                        "typeTag": 1
                                    }
                                },
                                {
                                    "key": "0xf1543b23175ceec40d89a66c0a096e0a47f6fda4",
                                    "value": {
                                        "current": "5040390400000000000000",
                                        "prev": "40390400000000000000",
                                        "typeTag": 1
                                    }
                                }
                            ],
                            "typeTag": 4
                        }
                    }
                ]
            }
        ]
    }
}