{
    "balance_change": {
        "balanceChanges": []
    },
    "profile": {
        "basic_info": {
            "baseFee": "",
            "blockNumber": 2850381,
            "callData": "0x2d0b104c0000000000000000000000000000000000000000000000000000000000000003000000000000000000000000ccd9ef7deab394937731a9f362bee1fc2c7d65060000000000000000000000006176730eee1fec6aee33a2b86aab9f4334b2c44d00000000000000000000000000000000000000000000000000000000000000db",
            "debugEnable": true,
            "errorInfo": "",
            "eventCount": 2,
            "feeRecipient": "0x52bc44d5378309ee2abf1539bf71de1b7d7be3b5",
            "formatValue": "0",
            "gasLimit": 200000,
            "gasPrice": "48",
            "gasUsed": 168757,
            "intTxnCount": 1,
            "internalRevert": false,
            "internalRevertMessage": "",
            "isContractCreation": false,
            "isFlashloan": false,
            "maxFee": "",
            "nonce": 155,
            "overwritedBlockNumber": -1,
            "priorityFee": "",
            "receiver": "0x754993f9179b424a97f698ee62813d5c444948b3",
            "revertMessage": "",
            "sender": "0x9b94bfed85f81daea63818a6236895c8776a5b9f",
            "simulationEnable": true,
            "sourceTxnHash": "0x229248cab2f7d2bae7ce6ceaedbdd5a40de8fbda9eab580d343bcde7f7bcb88e",
            "status": true,
            "timestamp": "2016-12-21T17:11:32Z",
            "transactionFee": "0.008100336",
            "txnHash": "0x229248cab2f7d2bae7ce6ceaedbdd5a40de8fbda9eab580d343bcde7f7bcb88e",
            "txnIndex": 0,
            "type": 0,
            "value": "0"
        },
        "fund_flow": [],
        "token_infos": [
            {
                "address": "0xc02aaa39b223fe8d0a0e5c4f27ead9083c756cc2",
                "decimals": 18
            },
            {
                "address": "0xeeeeeeeeeeeeeeeeeeeeeeeeeeeeeeeeeeeeeeee",
                "decimals": 18
            }
        ]
    },
    "address_label": {
        "labels": [
            {
                "address": "0xeeeeeeeeeeeeeeeeeeeeeeeeeeeeeeeeeeeeeeee",
                "label": "Ether"
            },
            {
                "address": "0x0000000000000000000000000000000000000001",
                "label": "Precompiled"
            },
            {
                "address": "0x0000000000000000000000000000000000000002",
                "label": "Precompiled"
            },
            {
                "address": "0x0000000000000000000000000000000000000003",
                "label": "Precompiled"
            },
            {
                "address": "0x0000000000000000000000000000000000000004",
                "label": "Precompiled"
            }
        ]
    },
    "trace": {
        "accountLabels": null,
        "dataMap": {
            "-1": {
                "invocation": {
                    "address": "0x9b94bfed85f81daea63818a6236895c8776a5b9f",
                    "callData": "",
                    "decodedMethod": null,
                    "errorInfo": "",
                    "fromAddress": "",
                    "gasUsed": 0,
                    "id": -1,
                    "methodDecoded": false,
                    "operation": "",
                    "output": "",
                    "revert": false,
                    "revertMessage": "",
                    "selector": "",
                    "status": false,
                    "value": ""
                },
                "nodeType": 0
            },
            "0": {
                "invocation": {
                    "address": "0x754993f9179b424a97f698ee62813d5c444948b3",
                    "callData": "0x0000000000000000000000000000000000000000000000000000000000000003000000000000000000000000ccd9ef7deab394937731a9f362bee1fc2c7d65060000000000000000000000006176730eee1fec6aee33a2b86aab9f4334b2c44d00000000000000000000000000000000000000000000000000000000000000db",
                    "decodedMethod": null,
                    "errorInfo": "",
                    "fromAddress": "0x9b94bfed85f81daea63818a6236895c8776a5b9f",
                    "gasUsed": 168757,
                    "id": 0,
                    "methodDecoded": false,
                    "operation": "CALL",
                    "output": "0x0000000000000000000000000000000000000000000000000000000000000001",
                    "revert": false,
                    "revertMessage": "",
                    "selector": "0x2d0b104c",
                    "status": true,
                    "value": "0"
                },
                "nodeType": 0
            },
            "1": {
                "invocation": {
                    "address": "0x270fc4524617c084890ae020eef60966cf934b35",
                    "callData": "0x626f6e6400000000000000000000000000000000000000000000000000000000",
                    "decodedMethod": {
                        "callParams": [
                            {
                                "name": "salt",
                                "type": "bytes32",
                                "value": "0x626f6e6400000000000000000000000000000000000000000000000000000000"
                            }
                        ],
                        "constructorArguments": "",
                        "name": "addressOf",
                        "returnParams": [
                            {
                                "name": "",
                                "type": "address",
                                "value": "0x659d88559d8ddf24bcbc47e76b5b5c64e3e6446c"
                            }
                        ],
                        "signature": "addressOf(bytes32)"
                    },
                    "errorInfo": "",
                    "fromAddress": "0x754993f9179b424a97f698ee62813d5c444948b3",
                    "gasUsed": 701,
                    "id": 1,
                    "methodDecoded": true,
                    "operation": "CALL",
                    "output": "0x000000000000000000000000659d88559d8ddf24bcbc47e76b5b5c64e3e6446c",
                    "revert": false,
                    "revertMessage": "",
                    "selector": "0xbb34534c",
                    "status": true,
                    "value": "0"
                },
                "nodeType": 0
            },
            "2": {
                "event": {
                    "contract": "0x754993f9179b424a97f698ee62813d5c444948b3",
                    "decodedLog": null,
                    "id": 2,
                    "logData": "0x0000000000000000000000000000000000000000000000000000000000000003000000000000000000000000ccd9ef7deab394937731a9f362bee1fc2c7d6506000000000000000000000000000000000000000000000000000000000003a8a500000000000000000000000000000000000000000000000000000000000000000000000000000000000000000000000000000000000000000000000000000001",
                    "logDecoded": false,
                    "operation": "EVENT",
                    "revert": false,
                    "status": true,
                    "topics": [
                        "0x3ecb3e909c65ed5290fa61ad8891381f8d8bcf52a9d6a6d71b2dc5138d47471e",
                        "0x0000000000000000000000000000000000000000000000000000000000000006",
                        "0x0000000000000000000000000000000000000000000000000000000000000004"
                    ]
                },
                "nodeType": 1
            },
            "3": {
                "event": {
                    "contract": "0x754993f9179b424a97f698ee62813d5c444948b3",
                    "decodedLog": null,
                    "id": 3,
                    "logData": "0x00000000000000000000000000000000000000000000000000000000000000000000000000000000000000000000000000000000000000000000000000000000000000000000000000000000000000000000000000000000000000000000000000000000000000000000000000000000000000000000000000000000000000000000000000000000000000000000000000000000000000000000000000000000",
                    "logDecoded": false,
                    "operation": "EVENT",
                    "revert": false,
                    "status": true,
                    "topics": [
                        "0x3ecb3e909c65ed5290fa61ad8891381f8d8bcf52a9d6a6d71b2dc5138d47471e",
                        "0x0000000000000000000000000000000000000000000000000000000000000006",
                        "0x0000000000000000000000000000000000000000000000000000000000000000"
                    ]
                },
                "nodeType": 1
            }
        },
        "gasFlame": [
            {
                "children": [
                    {
                        "children": [
                            {
                                "children": [],
                                "depth": 0,
                                "name": "Initial Gas",
                                "value": 24472
                            },
                            {
                                "children": [
                                    {
                                        "children": [],
                                        "depth": 1,
                                        "name": "addressOf",
                                        "value": 701
                                    }
                                ],
                                "depth": 0,
                                "name": "Executed Gas",
                                "value": 144285
                            }
                        ],
                        "depth": -1,
                        "name": "Actual Gas Used",
                        "value": 168757
                    },
                    {
                        "children": [],
                        "depth": -1,
                        "name": "Refunded Gas",
                        "value": 0
                    }
                ],
                "depth": -2,
                "name": "Total Gas",
                "value": 168757
            }
        ],
        "isConfirmed": true,
        "mainTrace": [
            {
                "children": [
                    {
                        "children": [
                            {
                                "children": [],
                                "depth": 1,
                                "id": 1,
                                "order": 1
                            },
                            {
                                "children": [],
                                "depth": 1,
                                "id": 2,
                                "order": 2
                            },
                            {
                                "children": [],
                                "depth": 1,
                                "id": 3,
                                "order": 3
                            }
                        ],
                        "depth": 0,
                        "id": 0,
                        "order": 0
                    }
                ],
                "depth": -1,
                "id": -1,
                "order": -1
            }
        ],
        "mainTraceNodeCount": 4,
        "parentIdMap": {
            "0": -1,
            "1": 0,
            "2": 0,
            "3": 0
        },
        "tidyTrace": [
            {
                "children": [
                    {
                        "children": [
                            {
                                "children": [],
                                "depth": 1,
                                "id": 1,
                                "order": 1
                            },
                            {
                                "children": [],
                                "depth": 1,
                                "id": 2,
                                "order": 2
                            },
                            {
                                "children": [],
                                "depth": 1,
                                "id": 3,
                                "order": 3
                            }
                        ],
                        "depth": 0,
                        "id": 0,
                        "order": 0
                    }
                ],
                "depth": -1,
                "id": -1,
                "order": -1
            }
        ],
        "tidyTraceNodeCount": 4
    },
    "state_change": {
        "stateChanges": [
            {
                "address": "0x754993f9179b424a97f698ee62813d5c444948b3",
                "erc": "",
                "slots": [
                    {
                        "current": "0x0000000000000000000000006176730eee1fec6aee33a2b86aab9f4334b2c44d",
                        "key": "0xfc80cd5fe514767bc6e66ec558e68a5429ea70b50fa6caa3b53fc9278e918634",
                        "prev": "0x0000000000000000000000000000000000000000000000000000000000000000"
                    },
                    {
                        "current": "0x00000000000000000000000000000000000000000000000000000000000000db",
                        "key": "0xfc80cd5fe514767bc6e66ec558e68a5429ea70b50fa6caa3b53fc9278e918635",
                        "prev": "0x0000000000000000000000000000000000000000000000000000000000000000"
                    },
                    {
                        "current": "0x0000000000000000000000000000000000000000000000000000000000000001",
                        "key": "0xfc80cd5fe514767bc6e66ec558e68a5429ea70b50fa6caa3b53fc9278e918637",
                        "prev": "0x0000000000000000000000000000000000000000000000000000000000000000"
                    },
                    {
                        "current": "0x000000000000000000000000000000000000000000000000000000000000000b",
                        "key": "0x98ab30a3dda60b302fb8f013573a475a4b425da51d93f4abdbd2269e88107c0f",
                        "prev": "0x0000000000000000000000000000000000000000000000000000000000000000"
                    },
                    {
                        "current": "0x000000000000000000000000000000000000000000000000000000000003a8a5",
                        "key": "0xedc95719e9a3b28dd8e80877cb5880a9be7de1a13fc8b05e7999683b6b567646",
                        "prev": "0x000000000000000000000000000000000000000000000000000000000003a980"
                    },
                    {
                        "current": "0x000000000000000000000000000000000000000000000000000000000000000c",
                        "key": "0x0000000000000000000000000000000000000000000000000000000000000003",
                        "prev": "0x000000000000000000000000000000000000000000000000000000000000000b"
                    },
                    {
                        "current": "0x000000000000000000000000000000000000000000000000000000000000000b",
                        "key": "0xfc80cd5fe514767bc6e66ec558e68a5429ea70b50fa6caa3b53fc9278e918632",
                        "prev": "0x0000000000000000000000000000000000000000000000000000000000000000"
                    },
                    {
                        "current": "0x0000000000000000000000000000000000000000000000000000000000000003",
                        "key": "0xfc80cd5fe514767bc6e66ec558e68a5429ea70b50fa6caa3b53fc9278e918633",
                        "prev": "0x0000000000000000000000000000000000000000000000000000000000000000"
                    }
                ],
                "storageVariables": []
            }
        ]
    }
}