{
    "balance_change": {
        "balanceChanges": [
            {
                "account": "0x00e695c5d7b2f6a2e83e1b34db1390f89e2741ef",
                "assets": [
                    {
                        "address": "0xeeeeeeeeeeeeeeeeeeeeeeeeeeeeeeeeeeeeeeee",
                        "amount": "1",
                        "iconUrl": "https://assets.blocksec.com/image/1663669189317-3.png",
                        "isERC1155": false,
                        "isERC721": false,
                        "sign": false,
                        "value": ""
                    }
                ]
            },
            {
                "account": "0x048717ea892f23fb0126f00640e2b18072efd9d2",
                "assets": [
                    {
                        "address": "0xeeeeeeeeeeeeeeeeeeeeeeeeeeeeeeeeeeeeeeee",
                        "amount": "1",
                        "iconUrl": "https://assets.blocksec.com/image/1663669189317-3.png",
                        "isERC1155": false,
                        "isERC721": false,
                        "sign": true,
                        "value": ""
                    }
                ]
            }
        ]
    },
    "profile": {
        "basic_info": {
            "baseFee": "",
            "blockNumber": 5874238,
            "callData": "0xdc6dd1520000000000000000000000000000000000000000000000000000000000000022",
            "debugEnable": true,
            "errorInfo": "",
            "eventCount": 2,
            "feeRecipient": "0x52e44f279f4203dcf680395379e5f9990a69f13c",
            "formatValue": "1",
            "gasLimit": 250000,
            "gasPrice": "20",
            "gasUsed": 177773,
            "intTxnCount": 3,
            "internalRevert": false,
            "internalRevertMessage": "",
            "isContractCreation": false,
            "isFlashloan": false,
            "maxFee": "",
            "nonce": 12043,
            "overwritedBlockNumber": -1,
            "priorityFee": "",
            "receiver": "0x048717ea892f23fb0126f00640e2b18072efd9d2",
            "revertMessage": "",
            "sender": "0x00e695c5d7b2f6a2e83e1b34db1390f89e2741ef",
            "simulationEnable": true,
            "sourceTxnHash": "0x22afad0b72502f7732c4fc50911fc2298ef4f7691a70d2c018ab22cf413a4de1",
            "status": true,
            "timestamp": "2018-06-29T10:03:20Z",
            "transactionFee": "0.00355546",
            "txnHash": "0x22afad0b72502f7732c4fc50911fc2298ef4f7691a70d2c018ab22cf413a4de1",
            "txnIndex": 86,
            "type": 0,
            "value": "1000000000000000000"
        },
        "fund_flow": [
            {
                "amount": "1",
                "from": "0x00e695c5d7b2f6a2e83e1b34db1390f89e2741ef",
                "id": 1,
                "isERC1155": false,
                "isERC721": false,
                "isReverted": false,
                "order": 1,
                "to": "0x048717ea892f23fb0126f00640e2b18072efd9d2",
                "token": "0xeeeeeeeeeeeeeeeeeeeeeeeeeeeeeeeeeeeeeeee"
            }
        ],
        "token_infos": [
            {
                "address": "0xc02aaa39b223fe8d0a0e5c4f27ead9083c756cc2",
                "decimals": 18
            },
            {
                "address": "0xeeeeeeeeeeeeeeeeeeeeeeeeeeeeeeeeeeeeeeee",
                "decimals": 18
            }
        ]
    },
    "address_label": {
        "labels": [
            {
                "address": "0x0000000000000000000000000000000000000002",
                "label": "Precompiled"
            },
            {
                "address": "0x0000000000000000000000000000000000000003",
                "label": "Precompiled"
            },
            {
                "address": "0x0000000000000000000000000000000000000004",
                "label": "Precompiled"
            },
            {
                "address": "0xeeeeeeeeeeeeeeeeeeeeeeeeeeeeeeeeeeeeeeee",
                "label": "Ether"
            },
            {
                "address": "0x1d3b2638a7cc9f2cb3d298a3da7a90b67e5506ed",
                "label": "OraclizeAddrResolver"
            },
            {
                "address": "0x048717ea892f23fb0126f00640e2b18072efd9d2",
                "label": "Etheroll"
            },
            {
                "address": "0x3dbdc81a6edc94c720b0b88fb65dbd7e395fdcf6",
                "label": "Oraclize"
            },
            {
                "address": "0x0000000000000000000000000000000000000001",
                "label": "Precompiled"
            }
        ]
    },
    "trace": {
        "accountLabels": null,
        "dataMap": {
            "-1": {
                "invocation": {
                    "address": "0x00e695c5d7b2f6a2e83e1b34db1390f89e2741ef",
                    "callData": "",
                    "decodedMethod": null,
                    "errorInfo": "",
                    "fromAddress": "",
                    "gasUsed": 0,
                    "id": -1,
                    "methodDecoded": false,
                    "operation": "",
                    "output": "",
                    "revert": false,
                    "revertMessage": "",
                    "selector": "",
                    "status": false,
                    "value": ""
                },
                "nodeType": 0
            },
            "0": {
                "invocation": {
                    "address": "0x048717ea892f23fb0126f00640e2b18072efd9d2",
                    "callData": "0x0000000000000000000000000000000000000000000000000000000000000022",
                    "decodedMethod": {
                        "callParams": [
                            {
                                "name": "rollUnder",
                                "type": "uint256",
                                "value": "34"
                            }
                        ],
                        "constructorArguments": "",
                        "name": "playerRollDice",
                        "returnParams": [],
                        "signature": "playerRollDice(uint256)"
                    },
                    "errorInfo": "",
                    "fromAddress": "0x00e695c5d7b2f6a2e83e1b34db1390f89e2741ef",
                    "gasUsed": 177773,
                    "id": 0,
                    "methodDecoded": true,
                    "operation": "CALL",
                    "output": "",
                    "revert": false,
                    "revertMessage": "",
                    "selector": "0xdc6dd152",
                    "status": true,
                    "value": "1"
                },
                "nodeType": 0
            },
            "1": {
                "invocation": {
                    "address": "0x1d3b2638a7cc9f2cb3d298a3da7a90b67e5506ed",
                    "callData": "0x",
                    "decodedMethod": {
                        "callParams": [],
                        "constructorArguments": "",
                        "name": "getAddress",
                        "returnParams": [
                            {
                                "name": "oaddr",
                                "type": "address",
                                "value": "0x3dbdc81a6edc94c720b0b88fb65dbd7e395fdcf6"
                            }
                        ],
                        "signature": "getAddress()"
                    },
                    "errorInfo": "",
                    "fromAddress": "0x048717ea892f23fb0126f00640e2b18072efd9d2",
                    "gasUsed": 418,
                    "id": 1,
                    "methodDecoded": true,
                    "operation": "CALL",
                    "output": "0x0000000000000000000000003dbdc81a6edc94c720b0b88fb65dbd7e395fdcf6",
                    "revert": false,
                    "revertMessage": "",
                    "selector": "0x38cc4831",
                    "status": true,
                    "value": "0"
                },
                "nodeType": 0
            },
            "2": {
                "invocation": {
                    "address": "0x3dbdc81a6edc94c720b0b88fb65dbd7e395fdcf6",
                    "callData": "0x000000000000000000000000000000000000000000000000000000000000004000000000000000000000000000000000000000000000000000000000000395f800000000000000000000000000000000000000000000000000000000000000066e65737465640000000000000000000000000000000000000000000000000000",
                    "decodedMethod": {
                        "callParams": [
                            {
                                "name": "_datasource",
                                "type": "string",
                                "value": "nested"
                            },
                            {
                                "name": "_gaslimit",
                                "type": "uint256",
                                "value": "235,000"
                            }
                        ],
                        "constructorArguments": "",
                        "name": "getPrice",
                        "returnParams": [
                            {
                                "name": "_dsprice",
                                "type": "uint256",
                                "value": "0"
                            }
                        ],
                        "signature": "getPrice(string,uint256)"
                    },
                    "errorInfo": "",
                    "fromAddress": "0x048717ea892f23fb0126f00640e2b18072efd9d2",
                    "gasUsed": 1101,
                    "id": 2,
                    "methodDecoded": true,
                    "operation": "CALL",
                    "output": "0x0000000000000000000000000000000000000000000000000000000000000000",
                    "revert": false,
                    "revertMessage": "",
                    "selector": "0x2ef3accc",
                    "status": true,
                    "value": "0"
                },
                "nodeType": 0
            },
            "3": {
                "invocation": {
                    "address": "0x3dbdc81a6edc94c720b0b88fb65dbd7e395fdcf6",
                    "callData": "0x0000000000000000000000000000000000000000000000000000000000000000000000000000000000000000000000000000000000000000000000000000008000000000000000000000000000000000000000000000000000000000000000c000000000000000000000000000000000000000000000000000000000000395f800000000000000000000000000000000000000000000000000000000000000066e6573746564000000000000000000000000000000000000000000000000000000000000000000000000000000000000000000000000000000000000000001b85b55524c5d205b276a736f6e2868747470733a2f2f6170692e72616e646f6d2e6f72672f6a736f6e2d7270632f312f696e766f6b65292e726573756c742e72616e646f6d5b2273657269616c4e756d626572222c2264617461225d272c20275c6e7b226a736f6e727063223a22322e30222c226d6574686f64223a2267656e65726174655369676e6564496e746567657273222c22706172616d73223a7b226170694b6579223a247b5b646563727970745d20424a38424d454e476e61666d566369394f45356e39384d475a5255363234722f51574f516939305977755a7a484c326a614b32534366354c333867737944336b4734435333736a5a564c5064707266626f2b4c396c55585174564a622f385350496a6b4d55336c6b393433763630436f322b6f4c4d56675352744e4b41417a485336444a50654c4f596144484c6862434c4f526f55743266504b53703837453d7d2c226e223a312c226d696e223a312c226d6178223a3130302c227265706c6163656d656e74223a747275652c2262617365223a3130247b5b6964656e746974795d20227d227d2c226964223a3831303539247b5b6964656e746974795d20227d227d275d0000000000000000",
                    "decodedMethod": {
                        "callParams": [
                            {
                                "name": "_timestamp",
                                "type": "uint256",
                                "value": "0"
                            },
                            {
                                "name": "_datasource",
                                "type": "string",
                                "value": "nested"
                            },
                            {
                                "name": "_arg",
                                "type": "string",
                                "value": "[URL] ['json(https://api.random.org/json-rpc/1/invoke).result.random[\"serialNumber\",\"data\"]', '\\n{\"jsonrpc\":\"2.0\",\"method\":\"generateSignedIntegers\",\"params\":{\"apiKey\":${[decrypt] BJ8BMENGnafmVci9OE5n98MGZRU624r/QWOQi90YwuZzHL2jaK2SCf5L38gsyD3kG4CS3sjZVLPdprfbo+L9lUXQtVJb/8SPIjkMU3lk943v60Co2+oLMVgSRtNKAAzHS6DJPeLOYaDHLhbCLORoUt2fPKSp87E=},\"n\":1,\"min\":1,\"max\":100,\"replacement\":true,\"base\":10${[identity] \"}\"},\"id\":81059${[identity] \"}\"}']"
                            },
                            {
                                "name": "_gaslimit",
                                "type": "uint256",
                                "value": "235,000"
                            }
                        ],
                        "constructorArguments": "",
                        "name": "query_withGasLimit",
                        "returnParams": [
                            {
                                "name": "_id",
                                "type": "bytes32",
                                "value": "0xe2b0f4c4448fcc5e2b6e9baa61465075e50e812560c294b9f8e7fa120ed38180"
                            }
                        ],
                        "signature": "query_withGasLimit(uint256,string,string,uint256)"
                    },
                    "errorInfo": "",
                    "fromAddress": "0x048717ea892f23fb0126f00640e2b18072efd9d2",
                    "gasUsed": 18102,
                    "id": 3,
                    "methodDecoded": true,
                    "operation": "CALL",
                    "output": "0xe2b0f4c4448fcc5e2b6e9baa61465075e50e812560c294b9f8e7fa120ed38180",
                    "revert": false,
                    "revertMessage": "",
                    "selector": "0xc51be90f",
                    "status": true,
                    "value": "0"
                },
                "nodeType": 0
            },
            "4": {
                "event": {
                    "contract": "0x3dbdc81a6edc94c720b0b88fb65dbd7e395fdcf6",
                    "decodedLog": {
                        "name": "Log1",
                        "params": [
                            {
                                "name": "sender",
                                "type": "address",
                                "value": "0x048717ea892f23fb0126f00640e2b18072efd9d2"
                            },
                            {
                                "name": "cid",
                                "type": "bytes32",
                                "value": "0xe2b0f4c4448fcc5e2b6e9baa61465075e50e812560c294b9f8e7fa120ed38180"
                            },
                            {
                                "name": "timestamp",
                                "type": "uint256",
                                "value": "0"
                            },
                            {
                                "name": "datasource",
                                "type": "string",
                                "value": "nested"
                            },
                            {
                                "name": "arg",
                                "type": "string",
                                "value": "[URL] ['json(https://api.random.org/json-rpc/1/invoke).result.random[\"serialNumber\",\"data\"]', '\\n{\"jsonrpc\":\"2.0\",\"method\":\"generateSignedIntegers\",\"params\":{\"apiKey\":${[decrypt] BJ8BMENGnafmVci9OE5n98MGZRU624r/QWOQi90YwuZzHL2jaK2SCf5L38gsyD3kG4CS3sjZVLPdprfbo+L9lUXQtVJb/8SPIjkMU3lk943v60Co2+oLMVgSRtNKAAzHS6DJPeLOYaDHLhbCLORoUt2fPKSp87E=},\"n\":1,\"min\":1,\"max\":100,\"replacement\":true,\"base\":10${[identity] \"}\"},\"id\":81059${[identity] \"}\"}']"
                            },
                            {
                                "name": "gaslimit",
                                "type": "uint256",
                                "value": "235,000"
                            },
                            {
                                "name": "proofType",
                                "type": "bytes1",
                                "value": "0x11"
                            },
                            {
                                "name": "gasPrice",
                                "type": "uint256",
                                "value": "5,000,000,000"
                            }
                        ],
                        "signature": "Log1(address,bytes32,uint256,string,string,uint256,bytes1,uint256)"
                    },
                    "id": 4,
                    "logData": "0x000000000000000000000000048717ea892f23fb0126f00640e2b18072efd9d2e2b0f4c4448fcc5e2b6e9baa61465075e50e812560c294b9f8e7fa120ed3818000000000000000000000000000000000000000000000000000000000000000000000000000000000000000000000000000000000000000000000000000000100000000000000000000000000000000000000000000000000000000000000014000000000000000000000000000000000000000000000000000000000000395f81100000000000000000000000000000000000000000000000000000000000000000000000000000000000000000000000000000000000000000000012a05f20000000000000000000000000000000000000000000000000000000000000000066e6573746564000000000000000000000000000000000000000000000000000000000000000000000000000000000000000000000000000000000000000001b85b55524c5d205b276a736f6e2868747470733a2f2f6170692e72616e646f6d2e6f72672f6a736f6e2d7270632f312f696e766f6b65292e726573756c742e72616e646f6d5b2273657269616c4e756d626572222c2264617461225d272c20275c6e7b226a736f6e727063223a22322e30222c226d6574686f64223a2267656e65726174655369676e6564496e746567657273222c22706172616d73223a7b226170694b6579223a247b5b646563727970745d20424a38424d454e476e61666d566369394f45356e39384d475a5255363234722f51574f516939305977755a7a484c326a614b32534366354c333867737944336b4734435333736a5a564c5064707266626f2b4c396c55585174564a622f385350496a6b4d55336c6b393433763630436f322b6f4c4d56675352744e4b41417a485336444a50654c4f596144484c6862434c4f526f55743266504b53703837453d7d2c226e223a312c226d696e223a312c226d6178223a3130302c227265706c6163656d656e74223a747275652c2262617365223a3130247b5b6964656e746974795d20227d227d2c226964223a3831303539247b5b6964656e746974795d20227d227d275d0000000000000000",
                    "logDecoded": true,
                    "operation": "EVENT",
                    "revert": false,
                    "status": true,
                    "topics": [
                        "0xb76d0edd90c6a07aa3ff7a222d7f5933e29c6acc660c059c97837f05c4ca1a84"
                    ]
                },
                "nodeType": 1
            },
            "5": {
                "event": {
                    "contract": "0x048717ea892f23fb0126f00640e2b18072efd9d2",
                    "decodedLog": {
                        "name": "LogBet",
                        "params": [
                            {
                                "name": "BetID",
                                "type": "bytes32",
                                "value": "0xe2b0f4c4448fcc5e2b6e9baa61465075e50e812560c294b9f8e7fa120ed38180"
                            },
                            {
                                "name": "PlayerAddress",
                                "type": "address",
                                "value": "0x00e695c5d7b2f6a2e83e1b34db1390f89e2741ef"
                            },
                            {
                                "name": "RewardValue",
                                "type": "uint256",
                                "value": "2,999,999,999,999,999,999"
                            },
                            {
                                "name": "ProfitValue",
                                "type": "uint256",
                                "value": "1,999,999,999,999,999,999"
                            },
                            {
                                "name": "BetValue",
                                "type": "uint256",
                                "value": "1,000,000,000,000,000,000"
                            },
                            {
                                "name": "PlayerNumber",
                                "type": "uint256",
                                "value": "34"
                            },
                            {
                                "name": "RandomQueryID",
                                "type": "uint256",
                                "value": "81,059"
                            }
                        ],
                        "signature": "LogBet(bytes32,address,uint256,uint256,uint256,uint256,uint256)"
                    },
                    "id": 5,
                    "logData": "0x0000000000000000000000000000000000000000000000001bc16d674ec7ffff0000000000000000000000000000000000000000000000000de0b6b3a764000000000000000000000000000000000000000000000000000000000000000000220000000000000000000000000000000000000000000000000000000000013ca3",
                    "logDecoded": true,
                    "operation": "EVENT",
                    "revert": false,
                    "status": true,
                    "topics": [
                        "0x56b3f1a6cd856076d6f8adbf8170c43a0b0f532fc5696a2699a0e0cabc704163",
                        "0xe2b0f4c4448fcc5e2b6e9baa61465075e50e812560c294b9f8e7fa120ed38180",
                        "0x00000000000000000000000000e695c5d7b2f6a2e83e1b34db1390f89e2741ef",
                        "0x00000000000000000000000000000000000000000000000029a2241af62bffff"
                    ]
                },
                "nodeType": 1
            }
        },
        "gasFlame": [
            {
                "children": [
                    {
                        "children": [
                            {
                                "children": [],
                                "depth": 0,
                                "name": "Initial Gas",
                                "value": 21464
                            },
                            {
                                "children": [
                                    {
                                        "children": [],
                                        "depth": 1,
                                        "name": "getAddress",
                                        "value": 418
                                    },
                                    {
                                        "children": [],
                                        "depth": 1,
                                        "name": "getPrice",
                                        "value": 1101
                                    },
                                    {
                                        "children": [],
                                        "depth": 1,
                                        "name": "query_withGasLimit",
                                        "value": 18102
                                    }
                                ],
                                "depth": 0,
                                "name": "Executed Gas",
                                "value": 156309
                            }
                        ],
                        "depth": -1,
                        "name": "Actual Gas Used",
                        "value": 177773
                    },
                    {
                        "children": [],
                        "depth": -1,
                        "name": "Refunded Gas",
                        "value": 0
                    }
                ],
                "depth": -2,
                "name": "Total Gas",
                "value": 177773
            }
        ],
        "isConfirmed": true,
        "mainTrace": [
            {
                "children": [
                    {
                        "children": [
                            {
                                "children": [],
                                "depth": 1,
                                "id": 1,
                                "order": 1
                            },
                            {
                                "children": [],
                                "depth": 1,
                                "id": 2,
                                "order": 2
                            },
                            {
                                "children": [
                                    {
                                        "children": [],
                                        "depth": 2,
                                        "id": 4,
                                        "order": 4
                                    }
                                ],
                                "depth": 1,
                                "id": 3,
                                "order": 3
                            },
                            {
                                "children": [],
                                "depth": 1,
                                "id": 5,
                                "order": 5
                            }
                        ],
                        "depth": 0,
                        "id": 0,
                        "order": 0
                    }
                ],
                "depth": -1,
                "id": -1,
                "order": -1
            }
        ],
        "mainTraceNodeCount": 6,
        "parentIdMap": {
            "0": -1,
            "1": 0,
            "2": 0,
            "3": 0,
            "4": 3,
            "5": 0
        },
        "tidyTrace": [
            {
                "children": [
                    {
                        "children": [
                            {
                                "children": [],
                                "depth": 1,
                                "id": 1,
                                "order": 1
                            },
                            {
                                "children": [],
                                "depth": 1,
                                "id": 2,
                                "order": 2
                            },
                            {
                                "children": [
                                    {
                                        "children": [],
                                        "depth": 2,
                                        "id": 4,
                                        "order": 4
                                    }
                                ],
                                "depth": 1,
                                "id": 3,
                                "order": 3
                            },
                            {
                                "children": [],
                                "depth": 1,
                                "id": 5,
                                "order": 5
                            }
                        ],
                        "depth": 0,
                        "id": 0,
                        "order": 0
                    }
                ],
                "depth": -1,
                "id": -1,
                "order": -1
            }
        ],
        "tidyTraceNodeCount": 6
    },
    "state_change": {
        "stateChanges": [
            {
                "address": "0x048717ea892f23fb0126f00640e2b18072efd9d2",
                "erc": "",
                "slots": [
                    {
                        "current": "0x000000000000000000000000000000000000000000000000bf209bc7b34651a2",
                        "key": "0x000000000000000000000000000000000000000000000000000000000000000d",
                        "prev": "0x000000000000000000000000000000000000000000000000a35f2e60647e51a3"
                    },
                    {
                        "current": "0xe2b0f4c4448fcc5e2b6e9baa61465075e50e812560c294b9f8e7fa120ed38180",
                        "key": "0x9b182221c01508443ff6a774ce520e3ca2e1566e6a6fe99de3147eb0bb98ebed",
                        "prev": "0x0000000000000000000000000000000000000000000000000000000000000000"
                    },
                    {
                        "current": "0x0000000000000000000000000000000000000000000000000000000000000022",
                        "key": "0x8e40fb18a4114c57a4f8ee3004fe0fe3d51096ef238ccb98d2b3cffbf4c3ebea",
                        "prev": "0x0000000000000000000000000000000000000000000000000000000000000000"
                    },
                    {
                        "current": "0x0000000000000000000000000000000000000000000000000000000000013ca3",
                        "key": "0x0000000000000000000000000000000000000000000000000000000000000010",
                        "prev": "0x0000000000000000000000000000000000000000000000000000000000013ca2"
                    },
                    {
                        "current": "0x0000000000000000000000000000000000000000000000000de0b6b3a7640000",
                        "key": "0x563498681af6e625f676b8bac6002052ab44060ad5759760af06cb07a2c20831",
                        "prev": "0x0000000000000000000000000000000000000000000000000000000000000000"
                    },
                    {
                        "current": "0x00000000000000000000000000e695c5d7b2f6a2e83e1b34db1390f89e2741ef",
                        "key": "0x443b8459a86650bd113de8cf178afcc3a1c9b582952cc9dfce301eb620daacd4",
                        "prev": "0x0000000000000000000000000000000000000000000000000000000000000000"
                    },
                    {
                        "current": "0x0000000000000000000000000000000000000000000000001bc16d674ec7ffff",
                        "key": "0x73ef4862a30bdcf2284a973d0b2a29b5badea160f74c7b152479bbfc2b1530ca",
                        "prev": "0x0000000000000000000000000000000000000000000000000000000000000000"
                    }
                ],
                "storageVariables": [
                    {
                        "name": "playerBetValue",
                        "type": "mapping(bytes32 => uint256)",
                        "value": {
                            "pairs": [
                                {
                                    "key": "0xe2b0f4c4448fcc5e2b6e9baa61465075e50e812560c294b9f8e7fa120ed38180",
                                    "value": {
                                        "current": "1000000000000000000",
                                        "prev": "0",
                                        "typeTag": 1
                                    }
                                }
                            ],
                            "typeTag": 4
                        }
                    },
                    {
                        "name": "playerAddress",
                        "type": "mapping(bytes32 => address)",
                        "value": {
                            "pairs": [
                                {
                                    "key": "0xe2b0f4c4448fcc5e2b6e9baa61465075e50e812560c294b9f8e7fa120ed38180",
                                    "value": {
                                        "current": "0x00e695c5d7b2f6a2e83e1b34db1390f89e2741ef",
                                        "prev": "0x0000000000000000000000000000000000000000",
                                        "typeTag": 1
                                    }
                                }
                            ],
                            "typeTag": 4
                        }
                    },
                    {
                        "name": "playerProfit",
                        "type": "mapping(bytes32 => uint256)",
                        "value": {
                            "pairs": [
                                {
                                    "key": "0xe2b0f4c4448fcc5e2b6e9baa61465075e50e812560c294b9f8e7fa120ed38180",
                                    "value": {
                                        "current": "1999999999999999999",
                                        "prev": "0",
                                        "typeTag": 1
                                    }
                                }
                            ],
                            "typeTag": 4
                        }
                    },
                    {
                        "name": "maxPendingPayouts",
                        "type": "uint256",
                        "value": {
                            "current": "13772178942507504034",
                            "prev": "11772178942507504035",
                            "typeTag": 1
                        }
                    },
                    {
                        "name": "playerBetId",
                        "type": "mapping(bytes32 => bytes32)",
                        "value": {
                            "pairs": [
                                {
                                    "key": "0xe2b0f4c4448fcc5e2b6e9baa61465075e50e812560c294b9f8e7fa120ed38180",
                                    "value": {
                                        "current": "0xe2b0f4c4448fcc5e2b6e9baa61465075e50e812560c294b9f8e7fa120ed38180",
                                        "prev": "0x0000000000000000000000000000000000000000000000000000000000000000",
                                        "typeTag": 1
                                    }
                                }
                            ],
                            "typeTag": 4
                        }
                    },
                    {
                        "name": "playerNumber",
                        "type": "mapping(bytes32 => uint256)",
                        "value": {
                            "pairs": [
                                {
                                    "key": "0xe2b0f4c4448fcc5e2b6e9baa61465075e50e812560c294b9f8e7fa120ed38180",
                                    "value": {
                                        "current": "34",
                                        "prev": "0",
                                        "typeTag": 1
                                    }
                                }
                            ],
                            "typeTag": 4
                        }
                    },
                    {
                        "name": "randomQueryID",
                        "type": "uint256",
                        "value": {
                            "current": "81059",
                            "prev": "81058",
                            "typeTag": 1
                        }
                    }
                ]
            },
            {
                "address": "0x3dbdc81a6edc94c720b0b88fb65dbd7e395fdcf6",
                "erc": "",
                "slots": [
                    {
                        "current": "0x0000000000000000000000000000000000000000000000000000000000013ca3",
                        "key": "0xf29febcef069155ab2d36c89e0ac297c89fe35fd2f845420e63b79b4462cd8f6",
                        "prev": "0x0000000000000000000000000000000000000000000000000000000000013ca2"
                    }
                ],
                "storageVariables": [
                    {
                        "name": "reqc",
                        "type": "mapping(address => uint256)",
                        "value": {
                            "pairs": [
                                {
                                    "key": "0x048717ea892f23fb0126f00640e2b18072efd9d2",
                                    "value": {
                                        "current": "81059",
                                        "prev": "81058",
                                        "typeTag": 1
                                    }
                                }
                            ],
                            "typeTag": 4
                        }
                    }
                ]
            }
        ]
    }
}