{
    "balance_change": {
        "balanceChanges": [
            {
                "account": "0x0000000000000000000000000000000000000000",
                "assets": [
                    {
                        "address": "0x7b00ae36c7485b678fe945c2dd9349eb5baf7b6b",
                        "amount": "1",
                        "iconUrl": "",
                        "isERC1155": false,
                        "isERC721": true,
                        "sign": false,
                        "tokenID": "16661682764241574624805936283981600",
                        "value": ""
                    }
                ]
            },
            {
                "account": "0xdd4e0a06fb47a8bee50cd8d583fbc398029a9e38",
                "assets": [
                    {
                        "address": "0x7b00ae36c7485b678fe945c2dd9349eb5baf7b6b",
                        "amount": "1",
                        "iconUrl": "",
                        "isERC1155": false,
                        "isERC721": true,
                        "sign": true,
                        "tokenID": "16661682764241574624805936283981600",
                        "value": ""
                    }
                ]
            }
        ]
    },
    "profile": {
        "basic_info": {
            "baseFee": "",
            "blockNumber": 7369286,
            "callData": "0x30be79be000000000000000000000000000000000003357c009b16ee000335ae009b1720000000000000000000000000000000000000000000000000000000005c9d2f61000000000000000000000000000000000000000000000000000000000000001b0e57f90cd5a08b8ccc977df0ac6bb5fdbf149a5348463c8e24dcfaffbd57c82e426d16826114ce17fda02e3c1e7ded444d8d9c19c54c28d49ea16175a86678a2",
            "debugEnable": true,
            "errorInfo": "",
            "eventCount": 1,
            "feeRecipient": "0x9d6d492bd500da5b33cf95a5d610a73360fcaaa0",
            "formatValue": "0",
            "gasLimit": 233641,
            "gasPrice": "0.5",
            "gasUsed": 153820,
            "intTxnCount": 2,
            "internalRevert": false,
            "internalRevertMessage": "",
            "isContractCreation": false,
            "isFlashloan": false,
            "maxFee": "",
            "nonce": 2960,
            "overwritedBlockNumber": -1,
            "priorityFee": "",
            "receiver": "0x7b00ae36c7485b678fe945c2dd9349eb5baf7b6b",
            "revertMessage": "",
            "sender": "0xdd4e0a06fb47a8bee50cd8d583fbc398029a9e38",
            "simulationEnable": true,
            "sourceTxnHash": "0x2200646a25a3e82e3e83ad49e68b69675f48f72cda9041f96120af340a5e7a7b",
            "status": true,
            "timestamp": "2019-03-14T20:36:48Z",
            "transactionFee": "0.00007691",
            "txnHash": "0x2200646a25a3e82e3e83ad49e68b69675f48f72cda9041f96120af340a5e7a7b",
            "txnIndex": 12,
            "type": 0,
            "value": "0"
        },
        "fund_flow": [
            {
                "amount": "1",
                "from": "0x0000000000000000000000000000000000000000",
                "id": 1,
                "isERC1155": false,
                "isERC721": true,
                "isReverted": false,
                "order": 1,
                "to": "0xdd4e0a06fb47a8bee50cd8d583fbc398029a9e38",
                "token": "0x7b00ae36c7485b678fe945c2dd9349eb5baf7b6b",
                "tokenID": "16661682764241574624805936283981600"
            }
        ],
        "token_infos": [
            {
                "address": "0xc02aaa39b223fe8d0a0e5c4f27ead9083c756cc2",
                "decimals": 18
            },
            {
                "address": "0xeeeeeeeeeeeeeeeeeeeeeeeeeeeeeeeeeeeeeeee",
                "decimals": 18
            }
        ]
    },
    "address_label": {
        "labels": [
            {
                "address": "0xeeeeeeeeeeeeeeeeeeeeeeeeeeeeeeeeeeeeeeee",
                "label": "Ether"
            },
            {
                "address": "0x7b00ae36c7485b678fe945c2dd9349eb5baf7b6b",
                "label": "Spheroid Universe: SPACE Token"
            },
            {
                "address": "0x0ba64224c056532a880bdcc8ab035715bcf70a0b",
                "label": "Space"
            },
            {
                "address": "0x0000000000000000000000000000000000000001",
                "label": "Precompiled"
            },
            {
                "address": "0x0000000000000000000000000000000000000002",
                "label": "Precompiled"
            },
            {
                "address": "0x0000000000000000000000000000000000000003",
                "label": "Precompiled"
            },
            {
                "address": "0x0000000000000000000000000000000000000004",
                "label": "Precompiled"
            }
        ]
    },
    "trace": {
        "accountLabels": null,
        "dataMap": {
            "-1": {
                "invocation": {
                    "address": "0xdd4e0a06fb47a8bee50cd8d583fbc398029a9e38",
                    "callData": "",
                    "decodedMethod": null,
                    "errorInfo": "",
                    "fromAddress": "",
                    "gasUsed": 0,
                    "id": -1,
                    "methodDecoded": false,
                    "operation": "",
                    "output": "",
                    "revert": false,
                    "revertMessage": "",
                    "selector": "",
                    "status": false,
                    "value": ""
                },
                "nodeType": 0
            },
            "0": {
                "invocation": {
                    "address": "0x7b00ae36c7485b678fe945c2dd9349eb5baf7b6b",
                    "callData": "0x000000000000000000000000000000000003357c009b16ee000335ae009b1720000000000000000000000000000000000000000000000000000000005c9d2f61000000000000000000000000000000000000000000000000000000000000001b0e57f90cd5a08b8ccc977df0ac6bb5fdbf149a5348463c8e24dcfaffbd57c82e426d16826114ce17fda02e3c1e7ded444d8d9c19c54c28d49ea16175a86678a2",
                    "decodedMethod": {
                        "callParams": [
                            {
                                "name": "tokenId",
                                "type": "uint256",
                                "value": "16,661,682,764,241,574,624,805,936,283,981,600"
                            },
                            {
                                "name": "expires",
                                "type": "uint256",
                                "value": "1,553,805,153"
                            },
                            {
                                "name": "v",
                                "type": "uint8",
                                "value": "27"
                            },
                            {
                                "name": "r",
                                "type": "bytes32",
                                "value": "0x0e57f90cd5a08b8ccc977df0ac6bb5fdbf149a5348463c8e24dcfaffbd57c82e"
                            },
                            {
                                "name": "s",
                                "type": "bytes32",
                                "value": "0x426d16826114ce17fda02e3c1e7ded444d8d9c19c54c28d49ea16175a86678a2"
                            }
                        ],
                        "constructorArguments": "",
                        "name": "withdraw",
                        "returnParams": [
                            {
                                "name": "",
                                "type": "bool",
                                "value": true
                            }
                        ],
                        "signature": "withdraw(uint256,uint256,uint8,bytes32,bytes32)"
                    },
                    "errorInfo": "",
                    "fromAddress": "0xdd4e0a06fb47a8bee50cd8d583fbc398029a9e38",
                    "gasUsed": 153820,
                    "id": 0,
                    "methodDecoded": true,
                    "operation": "CALL",
                    "output": "0x0000000000000000000000000000000000000000000000000000000000000001",
                    "revert": false,
                    "revertMessage": "",
                    "selector": "0x30be79be",
                    "status": true,
                    "value": "0"
                },
                "nodeType": 0
            },
            "1": {
                "invocation": {
                    "address": "0x0ba64224c056532a880bdcc8ab035715bcf70a0b",
                    "callData": "0x000000000000000000000000000000000003357c009b16ee000335ae009b1720000000000000000000000000000000000000000000000000000000005c9d2f61000000000000000000000000000000000000000000000000000000000000001b0e57f90cd5a08b8ccc977df0ac6bb5fdbf149a5348463c8e24dcfaffbd57c82e426d16826114ce17fda02e3c1e7ded444d8d9c19c54c28d49ea16175a86678a2",
                    "decodedMethod": {
                        "callParams": [
                            {
                                "name": "tokenId",
                                "type": "uint256",
                                "value": "16,661,682,764,241,574,624,805,936,283,981,600"
                            },
                            {
                                "name": "expires",
                                "type": "uint256",
                                "value": "1,553,805,153"
                            },
                            {
                                "name": "v",
                                "type": "uint8",
                                "value": "27"
                            },
                            {
                                "name": "r",
                                "type": "bytes32",
                                "value": "0x0e57f90cd5a08b8ccc977df0ac6bb5fdbf149a5348463c8e24dcfaffbd57c82e"
                            },
                            {
                                "name": "s",
                                "type": "bytes32",
                                "value": "0x426d16826114ce17fda02e3c1e7ded444d8d9c19c54c28d49ea16175a86678a2"
                            }
                        ],
                        "constructorArguments": "",
                        "name": "withdraw",
                        "returnParams": [
                            {
                                "name": "",
                                "type": "bool",
                                "value": true
                            }
                        ],
                        "signature": "withdraw(uint256,uint256,uint8,bytes32,bytes32)"
                    },
                    "errorInfo": "",
                    "fromAddress": "0x7b00ae36c7485b678fe945c2dd9349eb5baf7b6b",
                    "gasUsed": 125117,
                    "id": 1,
                    "methodDecoded": true,
                    "operation": "DELEGATECALL",
                    "output": "0x0000000000000000000000000000000000000000000000000000000000000001",
                    "revert": false,
                    "revertMessage": "",
                    "selector": "0x30be79be",
                    "status": true,
                    "value": "0"
                },
                "nodeType": 0
            },
            "2": {
                "invocation": {
                    "address": "0x0000000000000000000000000000000000000001",
                    "callData": "0x5b3ddf4085cd34e1d6aa3b6142648ddfe651faf1a3368752d506f087000000000000000000000000000000000000000000000000000000000000001b0e57f90cd5a08b8ccc977df0ac6bb5fdbf149a5348463c8e24dcfaffbd57c82e426d16826114ce17fda02e3c1e7ded444d8d9c19c54c28d49ea16175a86678a2",
                    "decodedMethod": {
                        "callParams": [
                            {
                                "name": "hash",
                                "type": "bytes32",
                                "value": "0xf7dd91815b3ddf4085cd34e1d6aa3b6142648ddfe651faf1a3368752d506f087"
                            },
                            {
                                "name": "v",
                                "type": "uint256",
                                "value": "27"
                            },
                            {
                                "name": "r",
                                "type": "bytes32",
                                "value": "0x0e57f90cd5a08b8ccc977df0ac6bb5fdbf149a5348463c8e24dcfaffbd57c82e"
                            },
                            {
                                "name": "s",
                                "type": "bytes32",
                                "value": "0x426d16826114ce17fda02e3c1e7ded444d8d9c19c54c28d49ea16175a86678a2"
                            }
                        ],
                        "constructorArguments": "",
                        "name": "ecrecover",
                        "returnParams": [
                            {
                                "name": "",
                                "type": "address",
                                "value": "0x1e8c6cb7e2942cf7c25e153274899c6527693be0"
                            }
                        ],
                        "signature": "ecrecover(bytes32,uint256,bytes32,bytes32)"
                    },
                    "errorInfo": "",
                    "fromAddress": "0x7b00ae36c7485b678fe945c2dd9349eb5baf7b6b",
                    "gasUsed": 3000,
                    "id": 2,
                    "methodDecoded": true,
                    "operation": "CALL",
                    "output": "0x0000000000000000000000001e8c6cb7e2942cf7c25e153274899c6527693be0",
                    "revert": false,
                    "revertMessage": "",
                    "selector": "0xf7dd9181",
                    "status": true,
                    "value": "0"
                },
                "nodeType": 0
            },
            "3": {
                "event": {
                    "contract": "0x7b00ae36c7485b678fe945c2dd9349eb5baf7b6b",
                    "decodedLog": {
                        "name": "Transfer",
                        "params": [
                            {
                                "name": "from",
                                "type": "address",
                                "value": "0x0000000000000000000000000000000000000000"
                            },
                            {
                                "name": "to",
                                "type": "address",
                                "value": "0xdd4e0a06fb47a8bee50cd8d583fbc398029a9e38"
                            },
                            {
                                "decimalAvailable": true,
                                "name": "tokenId",
                                "type": "uint256",
                                "value": "16,661,682,764,241,574,624,805,936,283,981,600"
                            }
                        ],
                        "signature": "Transfer(address,address,uint256)"
                    },
                    "id": 3,
                    "logData": "0x",
                    "logDecoded": true,
                    "operation": "EVENT",
                    "revert": false,
                    "status": true,
                    "topics": [
                        "0xddf252ad1be2c89b69c2b068fc378daa952ba7f163c4a11628f55a4df523b3ef",
                        "0x0000000000000000000000000000000000000000000000000000000000000000",
                        "0x000000000000000000000000dd4e0a06fb47a8bee50cd8d583fbc398029a9e38",
                        "0x000000000000000000000000000000000003357c009b16ee000335ae009b1720"
                    ]
                },
                "nodeType": 1
            }
        },
        "gasFlame": [
            {
                "children": [
                    {
                        "children": [
                            {
                                "children": [],
                                "depth": 0,
                                "name": "Initial Gas",
                                "value": 27096
                            },
                            {
                                "children": [
                                    {
                                        "children": [
                                            {
                                                "children": [],
                                                "depth": 2,
                                                "name": "ecrecover",
                                                "value": 3000
                                            }
                                        ],
                                        "depth": 1,
                                        "name": "withdraw",
                                        "value": 125117
                                    }
                                ],
                                "depth": 0,
                                "name": "Executed Gas",
                                "value": 126724
                            }
                        ],
                        "depth": -1,
                        "name": "Actual Gas Used",
                        "value": 153820
                    },
                    {
                        "children": [],
                        "depth": -1,
                        "name": "Refunded Gas",
                        "value": 0
                    }
                ],
                "depth": -2,
                "name": "Total Gas",
                "value": 153820
            }
        ],
        "isConfirmed": true,
        "mainTrace": [
            {
                "children": [
                    {
                        "children": [
                            {
                                "children": [
                                    {
                                        "children": [],
                                        "depth": 2,
                                        "id": 2,
                                        "order": 2
                                    },
                                    {
                                        "children": [],
                                        "depth": 2,
                                        "id": 3,
                                        "order": 3
                                    }
                                ],
                                "depth": 1,
                                "id": 1,
                                "order": 1
                            }
                        ],
                        "depth": 0,
                        "id": 0,
                        "order": 0
                    }
                ],
                "depth": -1,
                "id": -1,
                "order": -1
            }
        ],
        "mainTraceNodeCount": 4,
        "parentIdMap": {
            "0": -1,
            "1": 0,
            "2": 1,
            "3": 1
        },
        "tidyTrace": [
            {
                "children": [
                    {
                        "children": [
                            {
                                "children": [
                                    {
                                        "children": [],
                                        "depth": 2,
                                        "id": 2,
                                        "order": 2
                                    },
                                    {
                                        "children": [],
                                        "depth": 2,
                                        "id": 3,
                                        "order": 3
                                    }
                                ],
                                "depth": 1,
                                "id": 1,
                                "order": 1
                            }
                        ],
                        "depth": 0,
                        "id": 0,
                        "order": 0
                    }
                ],
                "depth": -1,
                "id": -1,
                "order": -1
            }
        ],
        "tidyTraceNodeCount": 4
    },
    "state_change": {
        "stateChanges": [
            {
                "address": "0x7b00ae36c7485b678fe945c2dd9349eb5baf7b6b",
                "erc": "ERC-721",
                "slots": [
                    {
                        "current": "0x000000000000000000000000dd4e0a06fb47a8bee50cd8d583fbc398029a9e38",
                        "key": "0x6299b5f3bd8021db80926d22536c48b3359a40436e683b39a6ab01a5bd7e607b",
                        "prev": "0x0000000000000000000000000000000000000000000000000000000000000000"
                    },
                    {
                        "current": "0x00000000000000000000000000000000000000000000000000000000000009ef",
                        "key": "0x97c48cdd4e750a580e6d60713987f4cf7d8173766b20dd5bb1cdbea915968efc",
                        "prev": "0x00000000000000000000000000000000000000000000000000000000000009ee"
                    },
                    {
                        "current": "0x00000000000000000000000000000000000000000000000000000000000009ef",
                        "key": "0x365b3c405e58c44cfd31d4de0368673b6d912f0618393772300ce9cc74cf3474",
                        "prev": "0x00000000000000000000000000000000000000000000000000000000000009ee"
                    },
                    {
                        "current": "0x000000000000000000000000000000000003357c009b16ee000335ae009b1720",
                        "key": "0x776fda56629ee45442ec9f2b9bf310d498b175ff00df7dcefd812c9243982a5a",
                        "prev": "0x0000000000000000000000000000000000000000000000000000000000000000"
                    },
                    {
                        "current": "0x00000000000000000000000000000000000000000000000000000000000009ee",
                        "key": "0xcc83080c949e7e1b2ed11ef36fcf77be333645cc053bd667e2aec5d2d6b49470",
                        "prev": "0x0000000000000000000000000000000000000000000000000000000000000000"
                    },
                    {
                        "current": "0x0000000000000000000000000000000000000000000000000000000000007b43",
                        "key": "0xb0ac63779e91ae151d1355010473a489a63c7e5965d2007ecca37404a0928ca7",
                        "prev": "0x0000000000000000000000000000000000000000000000000000000000000000"
                    },
                    {
                        "current": "0x0000000000000000000000000000000000000000000000000000000000007b44",
                        "key": "0x00000000000000000000000000000000000000000000000000000000000004ec",
                        "prev": "0x0000000000000000000000000000000000000000000000000000000000007b43"
                    },
                    {
                        "current": "0x000000000000000000000000000000000003357c009b16ee000335ae009b1720",
                        "key": "0x20bc42a272e69e0373bb0441ce625a3a4b1f1dff9bdc93ac74b9009820c455f0",
                        "prev": "0x0000000000000000000000000000000000000000000000000000000000000000"
                    }
                ],
                "storageVariables": [
                    {
                        "name": "_tokenOwner",
                        "type": "mapping(uint256 => address)",
                        "value": {
                            "pairs": [
                                {
                                    "key": "16661682764241574624805936283981600",
                                    "value": {
                                        "current": "0xdd4e0a06fb47a8bee50cd8d583fbc398029a9e38",
                                        "prev": "0x0000000000000000000000000000000000000000",
                                        "typeTag": 1
                                    }
                                }
                            ],
                            "typeTag": 4
                        }
                    },
                    {
                        "name": "_ownedTokensCount",
                        "type": "mapping(address => uint256)",
                        "value": {
                            "pairs": [
                                {
                                    "key": "0xdd4e0a06fb47a8bee50cd8d583fbc398029a9e38",
                                    "value": {
                                        "current": "2543",
                                        "prev": "2542",
                                        "typeTag": 1
                                    }
                                }
                            ],
                            "typeTag": 4
                        }
                    },
                    {
                        "name": "_ownedTokens",
                        "type": "mapping(address => uint256[])",
                        "value": {
                            "pairs": [
                                {
                                    "key": "0xdd4e0a06fb47a8bee50cd8d583fbc398029a9e38",
                                    "value": {
                                        "elemType": "uint256",
                                        "elems": [
                                            {
                                                "index": 2542,
                                                "value": {
                                                    "current": "16661682764241574624805936283981600",
                                                    "prev": "0",
                                                    "typeTag": 1
                                                }
                                            }
                                        ],
                                        "typeTag": 2
                                    }
                                }
                            ],
                            "typeTag": 4
                        }
                    },
                    {
                        "name": "_ownedTokensIndex",
                        "type": "mapping(uint256 => uint256)",
                        "value": {
                            "pairs": [
                                {
                                    "key": "16661682764241574624805936283981600",
                                    "value": {
                                        "current": "2542",
                                        "prev": "0",
                                        "typeTag": 1
                                    }
                                }
                            ],
                            "typeTag": 4
                        }
                    },
                    {
                        "name": "_allTokensIndex",
                        "type": "mapping(uint256 => uint256)",
                        "value": {
                            "pairs": [
                                {
                                    "key": "16661682764241574624805936283981600",
                                    "value": {
                                        "current": "31555",
                                        "prev": "0",
                                        "typeTag": 1
                                    }
                                }
                            ],
                            "typeTag": 4
                        }
                    },
                    {
                        "name": "_allTokens",
                        "type": "uint256[]",
                        "value": {
                            "elemType": "uint256",
                            "elems": [
                                {
                                    "index": 31555,
                                    "value": {
                                        "current": "16661682764241574624805936283981600",
                                        "prev": "0",
                                        "typeTag": 1
                                    }
                                }
                            ],
                            "typeTag": 2
                        }
                    }
                ]
            }
        ]
    }
}