{
    "balance_change": {
        "balanceChanges": [
            {
                "account": "0x0391f37084da54608e7d9cf3837867631c7a2fc4",
                "assets": [
                    {
                        "address": "0xeeeeeeeeeeeeeeeeeeeeeeeeeeeeeeeeeeeeeeee",
                        "amount": "0.59",
                        "iconUrl": "https://assets.blocksec.com/image/1663669189317-3.png",
                        "isERC1155": false,
                        "isERC721": false,
                        "sign": false,
                        "value": "1516.9017999999999892"
                    }
                ]
            },
            {
                "account": "0x19c10fff96b80208f454034c046ccc4445cd20ba",
                "assets": [
                    {
                        "address": "0xeeeeeeeeeeeeeeeeeeeeeeeeeeeeeeeeeeeeeeee",
                        "amount": "0.59",
                        "iconUrl": "https://assets.blocksec.com/image/1663669189317-3.png",
                        "isERC1155": false,
                        "isERC721": false,
                        "sign": true,
                        "value": "1516.9017999999999892"
                    }
                ]
            }
        ]
    },
    "profile": {
        "basic_info": {
            "baseFee": "51.326995054",
            "blockNumber": 18980138,
            "callData": "0x886f9ece000000000000000000000000000000000000000000000000083019dfc17b00000000000000000000000000000000000000000000000000000000000000000000000000000000000000000000000000000000000000000000000000000000000100000000000000000000000000000000000000000000000000000000659f3a8700000000000000000000000000000000000000000000000000000000000000a0000000000000000000000000000000000000000000000000000000000000004121115fa44f3a7032e3cdb2290bacb05532ab9c633b1ca4ace7b710bc6440f6613f0fa2de7b4926e76c9386576a18b0ca0202d195069eb27fdbf5cc15af3f36f31b00000000000000000000000000000000000000000000000000000000000000",
            "debugEnable": true,
            "errorInfo": "",
            "eventCount": 1,
            "feeRecipient": "0x388c818ca8b9251b393131c08a736a67ccb19297",
            "formatValue": "0.59",
            "gasLimit": 230000,
            "gasPrice": "51.426995054",
            "gasUsed": 206248,
            "intTxnCount": 4,
            "internalRevert": false,
            "internalRevertMessage": "",
            "isContractCreation": false,
            "isFlashloan": false,
            "maxFee": "55",
            "nonce": 0,
            "overwritedBlockNumber": -1,
            "priorityFee": "0.1",
            "receiver": "0x19c10fff96b80208f454034c046ccc4445cd20ba",
            "revertMessage": "",
            "sender": "0x0391f37084da54608e7d9cf3837867631c7a2fc4",
            "simulationEnable": true,
            "sourceTxnHash": "0x2260ad46539d6cb1b3ced088927c2c846b479183981a6d8d26285f3b44ee61d6",
            "status": true,
            "timestamp": "2024-01-11T00:32:11Z",
            "transactionFee": "0.010606714875897392",
            "txnHash": "0x2260ad46539d6cb1b3ced088927c2c846b479183981a6d8d26285f3b44ee61d6",
            "txnIndex": 84,
            "type": 2,
            "value": "590000000000000000"
        },
        "fund_flow": [
            {
                "amount": "0.59",
                "from": "0x0391f37084da54608e7d9cf3837867631c7a2fc4",
                "id": 1,
                "isERC1155": false,
                "isERC721": false,
                "isReverted": false,
                "order": 1,
                "to": "0x19c10fff96b80208f454034c046ccc4445cd20ba",
                "token": "0xeeeeeeeeeeeeeeeeeeeeeeeeeeeeeeeeeeeeeeee"
            }
        ],
        "token_infos": [
            {
                "address": "0xc02aaa39b223fe8d0a0e5c4f27ead9083c756cc2",
                "decimals": 18
            },
            {
                "address": "0xeeeeeeeeeeeeeeeeeeeeeeeeeeeeeeeeeeeeeeee",
                "decimals": 18
            }
        ]
    },
    "address_label": {
        "labels": [
            {
                "address": "0xeeeeeeeeeeeeeeeeeeeeeeeeeeeeeeeeeeeeeeee",
                "label": "Ether"
            },
            {
                "address": "0xf4ecc1c74d120649f6598c7a217abaffdf76cd4f",
                "label": "Age of Dino: DINOSTY Token"
            },
            {
                "address": "0x19c10fff96b80208f454034c046ccc4445cd20ba",
                "label": "AuctionMinter"
            },
            {
                "address": "0x7127f0feaef8143241a5fac62ac5b7be02ef26a9",
                "label": "TransparentUpgradeableProxy"
            },
            {
                "address": "0x388c818ca8b9251b393131c08a736a67ccb19297",
                "label": "LidoExecutionLayerRewardsVault"
            },
            {
                "address": "0xf0232b1fac7de145c458c26a2a8a9c00f1d58535",
                "label": "TokenGateway"
            },
            {
                "address": "0x0000000000000000000000000000000000000001",
                "label": "Precompiled"
            },
            {
                "address": "0x0000000000000000000000000000000000000003",
                "label": "Precompiled"
            },
            {
                "address": "0x0000000000000000000000000000000000000004",
                "label": "Precompiled"
            },
            {
                "address": "0x13c18669179ded9abdc0e3ec90349af52589dded",
                "label": "Age of Dino: Deployer"
            },
            {
                "address": "0x0000000000000000000000000000000000000002",
                "label": "Precompiled"
            }
        ]
    },
    "trace": {
        "accountLabels": null,
        "dataMap": {
            "-1": {
                "invocation": {
                    "address": "0x0391f37084da54608e7d9cf3837867631c7a2fc4",
                    "callData": "",
                    "decodedMethod": null,
                    "errorInfo": "",
                    "fromAddress": "",
                    "gasUsed": 0,
                    "id": -1,
                    "methodDecoded": false,
                    "operation": "",
                    "output": "",
                    "revert": false,
                    "revertMessage": "",
                    "selector": "",
                    "status": false,
                    "value": ""
                },
                "nodeType": 0
            },
            "0": {
                "invocation": {
                    "address": "0x19c10fff96b80208f454034c046ccc4445cd20ba",
                    "callData": "0x000000000000000000000000000000000000000000000000083019dfc17b00000000000000000000000000000000000000000000000000000000000000000000000000000000000000000000000000000000000000000000000000000000000100000000000000000000000000000000000000000000000000000000659f3a8700000000000000000000000000000000000000000000000000000000000000a0000000000000000000000000000000000000000000000000000000000000004121115fa44f3a7032e3cdb2290bacb05532ab9c633b1ca4ace7b710bc6440f6613f0fa2de7b4926e76c9386576a18b0ca0202d195069eb27fdbf5cc15af3f36f31b00000000000000000000000000000000000000000000000000000000000000",
                    "decodedMethod": {
                        "callParams": [
                            {
                                "name": "bidPrice",
                                "type": "uint256",
                                "value": "590,000,000,000,000,000"
                            },
                            {
                                "name": "limitForBuyerID",
                                "type": "uint256",
                                "value": "0"
                            },
                            {
                                "name": "limitForBuyerAmount",
                                "type": "uint256",
                                "value": "1"
                            },
                            {
                                "name": "expireTime",
                                "type": "uint256",
                                "value": "1,704,934,023"
                            },
                            {
                                "name": "_sig",
                                "type": "bytes",
                                "value": "0x21115fa44f3a7032e3cdb2290bacb05532ab9c633b1ca4ace7b710bc6440f6613f0fa2de7b4926e76c9386576a18b0ca0202d195069eb27fdbf5cc15af3f36f31b"
                            }
                        ],
                        "constructorArguments": "",
                        "name": "placeBid",
                        "returnParams": [],
                        "signature": "placeBid(uint256,uint256,uint256,uint256,bytes)"
                    },
                    "errorInfo": "",
                    "fromAddress": "0x0391f37084da54608e7d9cf3837867631c7a2fc4",
                    "gasUsed": 206248,
                    "id": 0,
                    "methodDecoded": true,
                    "operation": "CALL",
                    "output": "",
                    "revert": false,
                    "revertMessage": "",
                    "selector": "0x886f9ece",
                    "status": true,
                    "value": "0.59"
                },
                "nodeType": 0
            },
            "1": {
                "invocation": {
                    "address": "0x7127f0feaef8143241a5fac62ac5b7be02ef26a9",
                    "callData": "0x000000000000000000000000f4ecc1c74d120649f6598c7a217abaffdf76cd4f",
                    "decodedMethod": {
                        "callParams": [
                            {
                                "name": "_tokenContract",
                                "type": "address",
                                "value": "0xf4ecc1c74d120649f6598c7a217abaffdf76cd4f"
                            }
                        ],
                        "constructorArguments": "",
                        "name": "nftManager",
                        "returnParams": [
                            {
                                "name": "",
                                "type": "address",
                                "value": "0x13c18669179ded9abdc0e3ec90349af52589dded"
                            }
                        ],
                        "signature": "nftManager(address)"
                    },
                    "errorInfo": "",
                    "fromAddress": "0x19c10fff96b80208f454034c046ccc4445cd20ba",
                    "gasUsed": 15226,
                    "id": 1,
                    "methodDecoded": true,
                    "operation": "STATICCALL",
                    "output": "0x00000000000000000000000013c18669179ded9abdc0e3ec90349af52589dded",
                    "revert": false,
                    "revertMessage": "",
                    "selector": "0x9cb9f9d3",
                    "status": true,
                    "value": "0"
                },
                "nodeType": 0
            },
            "2": {
                "invocation": {
                    "address": "0xf0232b1fac7de145c458c26a2a8a9c00f1d58535",
                    "callData": "0x000000000000000000000000f4ecc1c74d120649f6598c7a217abaffdf76cd4f",
                    "decodedMethod": {
                        "callParams": [
                            {
                                "name": "_tokenContract",
                                "type": "address",
                                "value": "0xf4ecc1c74d120649f6598c7a217abaffdf76cd4f"
                            }
                        ],
                        "constructorArguments": "",
                        "name": "nftManager",
                        "returnParams": [
                            {
                                "name": "",
                                "type": "address",
                                "value": "0x13c18669179ded9abdc0e3ec90349af52589dded"
                            }
                        ],
                        "signature": "nftManager(address)"
                    },
                    "errorInfo": "",
                    "fromAddress": "0x7127f0feaef8143241a5fac62ac5b7be02ef26a9",
                    "gasUsed": 8066,
                    "id": 2,
                    "methodDecoded": true,
                    "operation": "DELEGATECALL",
                    "output": "0x00000000000000000000000013c18669179ded9abdc0e3ec90349af52589dded",
                    "revert": false,
                    "revertMessage": "",
                    "selector": "0x9cb9f9d3",
                    "status": true,
                    "value": "0"
                },
                "nodeType": 0
            },
            "3": {
                "invocation": {
                    "address": "0xf4ecc1c74d120649f6598c7a217abaffdf76cd4f",
                    "callData": "0x",
                    "decodedMethod": {
                        "callParams": [],
                        "constructorArguments": "",
                        "name": "owner",
                        "returnParams": [
                            {
                                "name": "",
                                "type": "address",
                                "value": "0x13c18669179ded9abdc0e3ec90349af52589dded"
                            }
                        ],
                        "signature": "owner()"
                    },
                    "errorInfo": "",
                    "fromAddress": "0x7127f0feaef8143241a5fac62ac5b7be02ef26a9",
                    "gasUsed": 2431,
                    "id": 3,
                    "methodDecoded": true,
                    "operation": "STATICCALL",
                    "output": "0x00000000000000000000000013c18669179ded9abdc0e3ec90349af52589dded",
                    "revert": false,
                    "revertMessage": "",
                    "selector": "0x8da5cb5b",
                    "status": true,
                    "value": "0"
                },
                "nodeType": 0
            },
            "4": {
                "invocation": {
                    "address": "0x0000000000000000000000000000000000000001",
                    "callData": "0x2fb8e497e2e1a3f9f602ada2e9995b9400ea2feaddc0db7ab7a216dc000000000000000000000000000000000000000000000000000000000000001b21115fa44f3a7032e3cdb2290bacb05532ab9c633b1ca4ace7b710bc6440f6613f0fa2de7b4926e76c9386576a18b0ca0202d195069eb27fdbf5cc15af3f36f3",
                    "decodedMethod": {
                        "callParams": [
                            {
                                "name": "hash",
                                "type": "bytes32",
                                "value": "0x5a7834c42fb8e497e2e1a3f9f602ada2e9995b9400ea2feaddc0db7ab7a216dc"
                            },
                            {
                                "name": "v",
                                "type": "uint256",
                                "value": "27"
                            },
                            {
                                "name": "r",
                                "type": "bytes32",
                                "value": "0x21115fa44f3a7032e3cdb2290bacb05532ab9c633b1ca4ace7b710bc6440f661"
                            },
                            {
                                "name": "s",
                                "type": "bytes32",
                                "value": "0x3f0fa2de7b4926e76c9386576a18b0ca0202d195069eb27fdbf5cc15af3f36f3"
                            }
                        ],
                        "constructorArguments": "",
                        "name": "ecrecover",
                        "returnParams": [
                            {
                                "name": "",
                                "type": "address",
                                "value": "0x13c18669179ded9abdc0e3ec90349af52589dded"
                            }
                        ],
                        "signature": "ecrecover(bytes32,uint256,bytes32,bytes32)"
                    },
                    "errorInfo": "",
                    "fromAddress": "0x19c10fff96b80208f454034c046ccc4445cd20ba",
                    "gasUsed": 3000,
                    "id": 4,
                    "methodDecoded": true,
                    "operation": "STATICCALL",
                    "output": "0x00000000000000000000000013c18669179ded9abdc0e3ec90349af52589dded",
                    "revert": false,
                    "revertMessage": "",
                    "selector": "0x5a7834c4",
                    "status": true,
                    "value": "0"
                },
                "nodeType": 0
            },
            "5": {
                "event": {
                    "contract": "0x19c10fff96b80208f454034c046ccc4445cd20ba",
                    "decodedLog": {
                        "name": "Bid",
                        "params": [
                            {
                                "name": "buyer",
                                "type": "address",
                                "value": "0x0391f37084da54608e7d9cf3837867631c7a2fc4"
                            },
                            {
                                "name": "bidPrice",
                                "type": "uint256",
                                "value": "590,000,000,000,000,000"
                            }
                        ],
                        "signature": "Bid(address,uint256)"
                    },
                    "id": 5,
                    "logData": "0x000000000000000000000000000000000000000000000000083019dfc17b0000",
                    "logDecoded": true,
                    "operation": "EVENT",
                    "revert": false,
                    "status": true,
                    "topics": [
                        "0xe684a55f31b79eca403df938249029212a5925ec6be8012e099b45bc1019e5d2",
                        "0x0000000000000000000000000391f37084da54608e7d9cf3837867631c7a2fc4"
                    ]
                },
                "nodeType": 1
            }
        },
        "gasFlame": [
            {
                "children": [
                    {
                        "children": [
                            {
                                "children": [],
                                "depth": 0,
                                "name": "Initial Gas",
                                "value": 23152
                            },
                            {
                                "children": [
                                    {
                                        "children": [
                                            {
                                                "children": [
                                                    {
                                                        "children": [],
                                                        "depth": 3,
                                                        "name": "owner",
                                                        "value": 2431
                                                    }
                                                ],
                                                "depth": 2,
                                                "name": "nftManager",
                                                "value": 8066
                                            }
                                        ],
                                        "depth": 1,
                                        "name": "nftManager",
                                        "value": 15226
                                    },
                                    {
                                        "children": [],
                                        "depth": 1,
                                        "name": "ecrecover",
                                        "value": 3000
                                    }
                                ],
                                "depth": 0,
                                "name": "Executed Gas",
                                "value": 183096
                            }
                        ],
                        "depth": -1,
                        "name": "Actual Gas Used",
                        "value": 206248
                    },
                    {
                        "children": [],
                        "depth": -1,
                        "name": "Refunded Gas",
                        "value": 0
                    }
                ],
                "depth": -2,
                "name": "Total Gas",
                "value": 206248
            }
        ],
        "isConfirmed": true,
        "mainTrace": [
            {
                "children": [
                    {
                        "children": [
                            {
                                "children": [
                                    {
                                        "children": [
                                            {
                                                "children": [],
                                                "depth": 3,
                                                "id": 3,
                                                "order": 3
                                            }
                                        ],
                                        "depth": 2,
                                        "id": 2,
                                        "order": 2
                                    }
                                ],
                                "depth": 1,
                                "id": 1,
                                "order": 1
                            },
                            {
                                "children": [],
                                "depth": 1,
                                "id": 4,
                                "order": 4
                            },
                            {
                                "children": [],
                                "depth": 1,
                                "id": 5,
                                "order": 5
                            }
                        ],
                        "depth": 0,
                        "id": 0,
                        "order": 0
                    }
                ],
                "depth": -1,
                "id": -1,
                "order": -1
            }
        ],
        "mainTraceNodeCount": 6,
        "parentIdMap": {
            "0": -1,
            "1": 0,
            "2": 1,
            "3": 2,
            "4": 0,
            "5": 0
        },
        "tidyTrace": [
            {
                "children": [
                    {
                        "children": [
                            {
                                "children": [],
                                "depth": 1,
                                "id": 5,
                                "order": 5
                            }
                        ],
                        "depth": 0,
                        "id": 0,
                        "order": 0
                    }
                ],
                "depth": -1,
                "id": -1,
                "order": -1
            }
        ],
        "tidyTraceNodeCount": 2
    },
    "state_change": {
        "stateChanges": [
            {
                "address": "0x19c10fff96b80208f454034c046ccc4445cd20ba",
                "erc": "",
                "slots": [
                    {
                        "current": "0x0000000000000000000000000000000000000000000000000000000000000001",
                        "key": "0x42bd9786244e3da4ca22936c4c9a42e407034771643084a30a616e3a6d06d1b6",
                        "prev": "0x0000000000000000000000000000000000000000000000000000000000000000"
                    },
                    {
                        "current": "0x0000000000000000000000000000000000000000000000000000000000004536",
                        "key": "0x5cbc2589524c20e6732810006473cfd201b594bbad750e537ea92bb03b47909d",
                        "prev": "0x0000000000000000000000000000000000000000000000000000000000000000"
                    },
                    {
                        "current": "0x0000000000000000000000000391f37084da54608e7d9cf3837867631c7a2fc4",
                        "key": "0x5cbc2589524c20e6732810006473cfd201b594bbad750e537ea92bb03b47909e",
                        "prev": "0x0000000000000000000000000000000000000000000000000000000000000000"
                    },
                    {
                        "current": "0x000000000000000000000000000000000000000000000000083019dfc17b0000",
                        "key": "0x5cbc2589524c20e6732810006473cfd201b594bbad750e537ea92bb03b47909f",
                        "prev": "0x0000000000000000000000000000000000000000000000000000000000000000"
                    },
                    {
                        "current": "0x00000000000000000000000000000000000000000000000000000000659f370b",
                        "key": "0x5cbc2589524c20e6732810006473cfd201b594bbad750e537ea92bb03b4790a0",
                        "prev": "0x0000000000000000000000000000000000000000000000000000000000000000"
                    },
                    {
                        "current": "0x0000000000000000000000000000000000000000000000000000000000000001",
                        "key": "0x25eaa99a55fe4990c153c82a1d648b1ec937a9d02740a91d6a3aa24bba1d610c",
                        "prev": "0x0000000000000000000000000000000000000000000000000000000000000000"
                    },
                    {
                        "current": "0x0000000000000000000000000000000000000000000000000000000000004536",
                        "key": "0x0000000000000000000000000000000000000000000000000000000000000003",
                        "prev": "0x0000000000000000000000000000000000000000000000000000000000004535"
                    }
                ],
                "storageVariables": [
                    {
                        "name": "_idCounter",
                        "type": "struct Counters.Counter",
                        "value": {
                            "fields": [
                                {
                                    "name": "_value",
                                    "type": "uint256",
                                    "value": {
                                        "current": "17718",
                                        "prev": "17717",
                                        "typeTag": 1
                                    }
                                }
                            ],
                            "typeTag": 3
                        }
                    },
                    {
                        "name": "userBids",
                        "type": "mapping(address => struct BidHeap.Bid[])",
                        "value": {
                            "pairs": [
                                {
                                    "key": "0x0391f37084da54608e7d9cf3837867631c7a2fc4",
                                    "value": {
                                        "elemType": "struct BidHeap.Bid",
                                        "elems": [
                                            {
                                                "index": 0,
                                                "value": {
                                                    "fields": [
                                                        {
                                                            "name": "id",
                                                            "type": "uint256",
                                                            "value": {
                                                                "current": "17718",
                                                                "prev": "0",
                                                                "typeTag": 1
                                                            }
                                                        },
                                                        {
                                                            "name": "bidder",
                                                            "type": "address",
                                                            "value": {
                                                                "current": "0x0391f37084da54608e7d9cf3837867631c7a2fc4",
                                                                "prev": "0x0000000000000000000000000000000000000000",
                                                                "typeTag": 1
                                                            }
                                                        },
                                                        {
                                                            "name": "price",
                                                            "type": "uint256",
                                                            "value": {
                                                                "current": "590000000000000000",
                                                                "prev": "0",
                                                                "typeTag": 1
                                                            }
                                                        },
                                                        {
                                                            "name": "timestamp",
                                                            "type": "uint256",
                                                            "value": {
                                                                "current": "1704933131",
                                                                "prev": "0",
                                                                "typeTag": 1
                                                            }
                                                        }
                                                    ],
                                                    "typeTag": 3
                                                }
                                            }
                                        ],
                                        "typeTag": 2
                                    }
                                }
                            ],
                            "typeTag": 4
                        }
                    },
                    {
                        "name": "buyerBidCount",
                        "type": "mapping(address => mapping(uint256 => uint256))",
                        "value": {
                            "pairs": [
                                {
                                    "key": "0x0391f37084da54608e7d9cf3837867631c7a2fc4",
                                    "value": {
                                        "pairs": [
                                            {
                                                "key": "0",
                                                "value": {
                                                    "current": "1",
                                                    "prev": "0",
                                                    "typeTag": 1
                                                }
                                            }
                                        ],
                                        "typeTag": 4
                                    }
                                }
                            ],
                            "typeTag": 4
                        }
                    }
                ]
            }
        ]
    }
}