{
    "balance_change": {
        "balanceChanges": [
            {
                "account": "0x854465cbebbcc7dbaa318a224a8c8d33729e3e47",
                "assets": [
                    {
                        "address": "0x990f341946a3fdb507ae7e52d17851b87168017c",
                        "amount": "94.7314285714285714",
                        "iconUrl": "",
                        "isERC1155": false,
                        "isERC721": false,
                        "sign": false,
                        "value": "55820.18689"
                    }
                ]
            },
            {
                "account": "0xd79828916927c0b8185b4ca3889972bea4a222d7",
                "assets": [
                    {
                        "address": "0x990f341946a3fdb507ae7e52d17851b87168017c",
                        "amount": "94.7314285714285714",
                        "iconUrl": "",
                        "isERC1155": false,
                        "isERC721": false,
                        "sign": true,
                        "value": "55820.18689"
                    }
                ]
            }
        ]
    },
    "profile": {
        "basic_info": {
            "baseFee": "291.285495843",
            "blockNumber": 13968817,
            "callData": "0xa9059cbb000000000000000000000000d79828916927c0b8185b4ca3889972bea4a222d700000000000000000000000000000000000000000000000522a9a460894a4908",
            "debugEnable": true,
            "errorInfo": "",
            "eventCount": 1,
            "feeRecipient": "0x829bd824b016326a401d083b33d092293333a830",
            "formatValue": "0",
            "gasLimit": 52195,
            "gasPrice": "292.535126189",
            "gasUsed": 29997,
            "intTxnCount": 0,
            "internalRevert": false,
            "internalRevertMessage": "",
            "isContractCreation": false,
            "isFlashloan": false,
            "maxFee": "292.535126189",
            "nonce": 271,
            "overwritedBlockNumber": -1,
            "priorityFee": "1.8818",
            "receiver": "0x990f341946a3fdb507ae7e52d17851b87168017c",
            "revertMessage": "",
            "sender": "0x854465cbebbcc7dbaa318a224a8c8d33729e3e47",
            "simulationEnable": true,
            "sourceTxnHash": "0x225566feaf828243fefac74cfa7281261e29be8c216084095851052c4fc3fcf9",
            "status": true,
            "timestamp": "2022-01-09T03:08:24Z",
            "transactionFee": "0.008775176180291433",
            "txnHash": "0x225566feaf828243fefac74cfa7281261e29be8c216084095851052c4fc3fcf9",
            "txnIndex": 39,
            "type": 2,
            "value": "0"
        },
        "fund_flow": [
            {
                "amount": "94.7314285714285714",
                "from": "0x854465cbebbcc7dbaa318a224a8c8d33729e3e47",
                "id": 1,
                "isERC1155": false,
                "isERC721": false,
                "isReverted": false,
                "order": 1,
                "to": "0xd79828916927c0b8185b4ca3889972bea4a222d7",
                "token": "0x990f341946a3fdb507ae7e52d17851b87168017c"
            }
        ],
        "token_infos": [
            {
                "address": "0x990f341946a3fdb507ae7e52d17851b87168017c",
                "decimals": 18
            },
            {
                "address": "0xc02aaa39b223fe8d0a0e5c4f27ead9083c756cc2",
                "decimals": 18
            },
            {
                "address": "0xeeeeeeeeeeeeeeeeeeeeeeeeeeeeeeeeeeeeeeee",
                "decimals": 18
            }
        ]
    },
    "address_label": {
        "labels": [
            {
                "address": "0xeeeeeeeeeeeeeeeeeeeeeeeeeeeeeeeeeeeeeeee",
                "label": "Ether"
            },
            {
                "address": "0x990f341946a3fdb507ae7e52d17851b87168017c",
                "label": "StrongBlock: STRONG Token"
            },
            {
                "address": "0x0000000000000000000000000000000000000001",
                "label": "Precompiled"
            },
            {
                "address": "0x0000000000000000000000000000000000000002",
                "label": "Precompiled"
            },
            {
                "address": "0x0000000000000000000000000000000000000003",
                "label": "Precompiled"
            },
            {
                "address": "0x0000000000000000000000000000000000000004",
                "label": "Precompiled"
            }
        ]
    },
    "trace": {
        "accountLabels": null,
        "dataMap": {
            "-1": {
                "invocation": {
                    "address": "0x854465cbebbcc7dbaa318a224a8c8d33729e3e47",
                    "callData": "",
                    "decodedMethod": null,
                    "errorInfo": "",
                    "fromAddress": "",
                    "gasUsed": 0,
                    "id": -1,
                    "methodDecoded": false,
                    "operation": "",
                    "output": "",
                    "revert": false,
                    "revertMessage": "",
                    "selector": "",
                    "status": false,
                    "value": ""
                },
                "nodeType": 0
            },
            "0": {
                "invocation": {
                    "address": "0x990f341946a3fdb507ae7e52d17851b87168017c",
                    "callData": "0x000000000000000000000000d79828916927c0b8185b4ca3889972bea4a222d700000000000000000000000000000000000000000000000522a9a460894a4908",
                    "decodedMethod": {
                        "callParams": [
                            {
                                "name": "recipient",
                                "type": "address",
                                "value": "0xd79828916927c0b8185b4ca3889972bea4a222d7"
                            },
                            {
                                "decimalAvailable": true,
                                "name": "amount",
                                "type": "uint256",
                                "value": "94,731,428,571,428,571,400"
                            }
                        ],
                        "constructorArguments": "",
                        "name": "transfer",
                        "returnParams": [
                            {
                                "name": "",
                                "type": "bool",
                                "value": true
                            }
                        ],
                        "signature": "transfer(address,uint256)"
                    },
                    "errorInfo": "",
                    "fromAddress": "0x854465cbebbcc7dbaa318a224a8c8d33729e3e47",
                    "gasUsed": 29997,
                    "id": 0,
                    "methodDecoded": true,
                    "operation": "CALL",
                    "output": "0x0000000000000000000000000000000000000000000000000000000000000001",
                    "revert": false,
                    "revertMessage": "",
                    "selector": "0xa9059cbb",
                    "status": true,
                    "value": "0"
                },
                "nodeType": 0
            },
            "1": {
                "event": {
                    "contract": "0x990f341946a3fdb507ae7e52d17851b87168017c",
                    "decodedLog": {
                        "name": "Transfer",
                        "params": [
                            {
                                "name": "from",
                                "type": "address",
                                "value": "0x854465cbebbcc7dbaa318a224a8c8d33729e3e47"
                            },
                            {
                                "name": "to",
                                "type": "address",
                                "value": "0xd79828916927c0b8185b4ca3889972bea4a222d7"
                            },
                            {
                                "decimalAvailable": true,
                                "name": "value",
                                "type": "uint256",
                                "value": "94,731,428,571,428,571,400"
                            }
                        ],
                        "signature": "Transfer(address,address,uint256)"
                    },
                    "id": 1,
                    "logData": "0x00000000000000000000000000000000000000000000000522a9a460894a4908",
                    "logDecoded": true,
                    "operation": "EVENT",
                    "revert": false,
                    "status": true,
                    "topics": [
                        "0xddf252ad1be2c89b69c2b068fc378daa952ba7f163c4a11628f55a4df523b3ef",
                        "0x000000000000000000000000854465cbebbcc7dbaa318a224a8c8d33729e3e47",
                        "0x000000000000000000000000d79828916927c0b8185b4ca3889972bea4a222d7"
                    ]
                },
                "nodeType": 1
            }
        },
        "gasFlame": [
            {
                "children": [
                    {
                        "children": [
                            {
                                "children": [],
                                "depth": 0,
                                "name": "Initial Gas",
                                "value": 21668
                            },
                            {
                                "children": [],
                                "depth": 0,
                                "name": "Executed Gas",
                                "value": 13129
                            }
                        ],
                        "depth": -1,
                        "name": "Actual Gas Used",
                        "value": 29997
                    },
                    {
                        "children": [],
                        "depth": -1,
                        "name": "Refunded Gas",
                        "value": 4800
                    }
                ],
                "depth": -2,
                "name": "Total Gas",
                "value": 34797
            }
        ],
        "isConfirmed": true,
        "mainTrace": [
            {
                "children": [
                    {
                        "children": [
                            {
                                "children": [],
                                "depth": 1,
                                "id": 1,
                                "order": 1
                            }
                        ],
                        "depth": 0,
                        "id": 0,
                        "order": 0
                    }
                ],
                "depth": -1,
                "id": -1,
                "order": -1
            }
        ],
        "mainTraceNodeCount": 2,
        "parentIdMap": {
            "0": -1,
            "1": 0
        },
        "tidyTrace": [
            {
                "children": [
                    {
                        "children": [
                            {
                                "children": [],
                                "depth": 1,
                                "id": 1,
                                "order": 1
                            }
                        ],
                        "depth": 0,
                        "id": 0,
                        "order": 0
                    }
                ],
                "depth": -1,
                "id": -1,
                "order": -1
            }
        ],
        "tidyTraceNodeCount": 2
    },
    "state_change": {
        "stateChanges": [
            {
                "address": "0x990f341946a3fdb507ae7e52d17851b87168017c",
                "erc": "ERC-20",
                "slots": [
                    {
                        "current": "0x0000000000000000000000000000000000000000000000000000000000000000",
                        "key": "0xa8494ca19382d0809ba3fa56463d6047fc6fbda2f5da37a9852f7a67934a4553",
                        "prev": "0x00000000000000000000000000000000000000000000000522a9a460894a4908"
                    },
                    {
                        "current": "0x00000000000000000000000000000000000000000000000f94137f25ce5d8eba",
                        "key": "0x0e8423e66a5df492f3459fc82856608309b7090b2a51a24a6d83e1ced54b98a6",
                        "prev": "0x00000000000000000000000000000000000000000000000a7169dac5451345b2"
                    }
                ],
                "storageVariables": [
                    {
                        "name": "_balances",
                        "type": "mapping(address => uint256)",
                        "value": {
                            "pairs": [
                                {
                                    "key": "0x854465cbebbcc7dbaa318a224a8c8d33729e3e47",
                                    "value": {
                                        "current": "0",
                                        "prev": "94731428571428571400",
                                        "typeTag": 1
                                    }
                                },
                                {
                                    "key": "0xd79828916927c0b8185b4ca3889972bea4a222d7",
                                    "value": {
                                        "current": "287371172848166866618",
                                        "prev": "192639744276738295218",
                                        "typeTag": 1
                                    }
                                }
                            ],
                            "typeTag": 4
                        }
                    }
                ]
            }
        ]
    }
}