{
    "balance_change": {
        "balanceChanges": []
    },
    "profile": {
        "basic_info": {
            "baseFee": "",
            "blockNumber": 7932129,
            "callData": "0xef3435880000000000000000000000000000000000000000000000000d280d60dd85154e0000000000000000000000000000000000000000000002234f5529fa5e077c0c000000000000000000000000000000000000000000000000000000000002e63000000000000000000000000000000000000000000000000000000000000000510000000000000000000000000000000000000000000000000d280d60dd85154e000000000000000000000000000000000000000000000000000000000000067b00000000000000000000000000000000000000000000000000038d7ea4c6800000000000000000000000000000000000000000000000000000170844dae0a33c0000000000000000000000000000000000000000000000000000000000000000000000000000000000000000971d048e737619884f2df75e31c7eb6412392328000000000000000000000000b1856317f728b7a08ed22e8dce9d54cc0849a24d0000000000000000000000005f0b1301c7572fa1bc66da0e10d015d2b5cf8dbe000000000000000000000000000000000000000000000000000000000000001b000000000000000000000000000000000000000000000000000000000000001ceb624ab6b7aa55876f07a6d091b7ea5bf4d6ed81b0be3f80c617dfb02f85ff0e1627f1c3b01e48c120b9e9a439751620afb6843782830ccad579d2399db36e922015ceff651c28cf2c7620a2ab3000f780beaa92dbc688cb10115bb4a66e74b53b4b946692d9e9a69f66af489ec5ca7e15bc34aa547a4de606f33a11b01c75ec",
            "debugEnable": true,
            "errorInfo": "",
            "eventCount": 0,
            "feeRecipient": "0x829bd824b016326a401d083b33d092293333a830",
            "formatValue": "0",
            "gasLimit": 400000,
            "gasPrice": "21",
            "gasUsed": 127836,
            "intTxnCount": 2,
            "internalRevert": false,
            "internalRevertMessage": "",
            "isContractCreation": false,
            "isFlashloan": false,
            "maxFee": "",
            "nonce": 3413967,
            "overwritedBlockNumber": -1,
            "priorityFee": "",
            "receiver": "0x2a0c0dbecc7e4d658f48e01e3fa353f44050c208",
            "revertMessage": "",
            "sender": "0xa7a7899d944fe658c4b0a1803bab2f490bd3849e",
            "simulationEnable": true,
            "sourceTxnHash": "0x2252a32098ba6589390b9f5fca14a25507cb7ecc625ada4c6849e3c019863904",
            "status": true,
            "timestamp": "2019-06-10T16:02:47Z",
            "transactionFee": "0.002684556",
            "txnHash": "0x2252a32098ba6589390b9f5fca14a25507cb7ecc625ada4c6849e3c019863904",
            "txnIndex": 14,
            "type": 0,
            "value": "0"
        },
        "fund_flow": [],
        "token_infos": [
            {
                "address": "0xc02aaa39b223fe8d0a0e5c4f27ead9083c756cc2",
                "decimals": 18
            },
            {
                "address": "0xeeeeeeeeeeeeeeeeeeeeeeeeeeeeeeeeeeeeeeee",
                "decimals": 18
            }
        ]
    },
    "address_label": {
        "labels": [
            {
                "address": "0x0000000000000000000000000000000000000000",
                "label": "Null Address"
            },
            {
                "address": "0x0000000000000000000000000000000000000002",
                "label": "Precompiled"
            },
            {
                "address": "0xa7a7899d944fe658c4b0a1803bab2f490bd3849e",
                "label": "IDEX 2"
            },
            {
                "address": "0x2a0c0dbecc7e4d658f48e01e3fa353f44050c208",
                "label": "IDEX"
            },
            {
                "address": "0x0000000000000000000000000000000000000001",
                "label": "Precompiled"
            },
            {
                "address": "0x0000000000000000000000000000000000000003",
                "label": "Precompiled"
            },
            {
                "address": "0x0000000000000000000000000000000000000004",
                "label": "Precompiled"
            },
            {
                "address": "0xeeeeeeeeeeeeeeeeeeeeeeeeeeeeeeeeeeeeeeee",
                "label": "Ether"
            },
            {
                "address": "0x971d048e737619884f2df75e31c7eb6412392328",
                "label": "Old Sparkster Token"
            }
        ]
    },
    "trace": {
        "accountLabels": null,
        "dataMap": {
            "-1": {
                "invocation": {
                    "address": "0xa7a7899d944fe658c4b0a1803bab2f490bd3849e",
                    "callData": "",
                    "decodedMethod": null,
                    "errorInfo": "",
                    "fromAddress": "",
                    "gasUsed": 0,
                    "id": -1,
                    "methodDecoded": false,
                    "operation": "",
                    "output": "",
                    "revert": false,
                    "revertMessage": "",
                    "selector": "",
                    "status": false,
                    "value": ""
                },
                "nodeType": 0
            },
            "0": {
                "invocation": {
                    "address": "0x2a0c0dbecc7e4d658f48e01e3fa353f44050c208",
                    "callData": "0x0000000000000000000000000000000000000000000000000d280d60dd85154e0000000000000000000000000000000000000000000002234f5529fa5e077c0c000000000000000000000000000000000000000000000000000000000002e63000000000000000000000000000000000000000000000000000000000000000510000000000000000000000000000000000000000000000000d280d60dd85154e000000000000000000000000000000000000000000000000000000000000067b00000000000000000000000000000000000000000000000000038d7ea4c6800000000000000000000000000000000000000000000000000000170844dae0a33c0000000000000000000000000000000000000000000000000000000000000000000000000000000000000000971d048e737619884f2df75e31c7eb6412392328000000000000000000000000b1856317f728b7a08ed22e8dce9d54cc0849a24d0000000000000000000000005f0b1301c7572fa1bc66da0e10d015d2b5cf8dbe000000000000000000000000000000000000000000000000000000000000001b000000000000000000000000000000000000000000000000000000000000001ceb624ab6b7aa55876f07a6d091b7ea5bf4d6ed81b0be3f80c617dfb02f85ff0e1627f1c3b01e48c120b9e9a439751620afb6843782830ccad579d2399db36e922015ceff651c28cf2c7620a2ab3000f780beaa92dbc688cb10115bb4a66e74b53b4b946692d9e9a69f66af489ec5ca7e15bc34aa547a4de606f33a11b01c75ec",
                    "decodedMethod": {
                        "callParams": [
                            {
                                "name": "tradeValues",
                                "type": "uint256[8]",
                                "value": [
                                    "948,022,431,245,997,390",
                                    "10,096,085,529,776,437,558,284",
                                    "190,000",
                                    "81",
                                    "948,022,431,245,997,390",
                                    "1,659",
                                    "1,000,000,000,000,000",
                                    "6,483,016,287,298,364"
                                ]
                            },
                            {
                                "name": "tradeAddresses",
                                "type": "address[4]",
                                "value": [
                                    "0x0000000000000000000000000000000000000000",
                                    "0x971d048e737619884f2df75e31c7eb6412392328",
                                    "0xb1856317f728b7a08ed22e8dce9d54cc0849a24d",
                                    "0x5f0b1301c7572fa1bc66da0e10d015d2b5cf8dbe"
                                ]
                            },
                            {
                                "name": "v",
                                "type": "uint8[2]",
                                "value": [
                                    "27",
                                    "28"
                                ]
                            },
                            {
                                "name": "rs",
                                "type": "bytes32[4]",
                                "value": [
                                    "0xeb624ab6b7aa55876f07a6d091b7ea5bf4d6ed81b0be3f80c617dfb02f85ff0e",
                                    "0x1627f1c3b01e48c120b9e9a439751620afb6843782830ccad579d2399db36e92",
                                    "0x2015ceff651c28cf2c7620a2ab3000f780beaa92dbc688cb10115bb4a66e74b5",
                                    "0x3b4b946692d9e9a69f66af489ec5ca7e15bc34aa547a4de606f33a11b01c75ec"
                                ]
                            }
                        ],
                        "constructorArguments": "",
                        "name": "trade",
                        "returnParams": [
                            {
                                "name": "success",
                                "type": "bool",
                                "value": false
                            }
                        ],
                        "signature": "trade(uint256[8],address[4],uint8[2],bytes32[4])"
                    },
                    "errorInfo": "",
                    "fromAddress": "0xa7a7899d944fe658c4b0a1803bab2f490bd3849e",
                    "gasUsed": 127836,
                    "id": 0,
                    "methodDecoded": true,
                    "operation": "CALL",
                    "output": "0x0000000000000000000000000000000000000000000000000000000000000000",
                    "revert": false,
                    "revertMessage": "",
                    "selector": "0xef343588",
                    "status": true,
                    "value": "0"
                },
                "nodeType": 0
            },
            "1": {
                "invocation": {
                    "address": "0x0000000000000000000000000000000000000001",
                    "callData": "0xbba4d89938c928248915d5fa55690599c0d87fadb8f75968b79fe04c000000000000000000000000000000000000000000000000000000000000001beb624ab6b7aa55876f07a6d091b7ea5bf4d6ed81b0be3f80c617dfb02f85ff0e1627f1c3b01e48c120b9e9a439751620afb6843782830ccad579d2399db36e92",
                    "decodedMethod": {
                        "callParams": [
                            {
                                "name": "hash",
                                "type": "bytes32",
                                "value": "0x2f8ea132bba4d89938c928248915d5fa55690599c0d87fadb8f75968b79fe04c"
                            },
                            {
                                "name": "v",
                                "type": "uint256",
                                "value": "27"
                            },
                            {
                                "name": "r",
                                "type": "bytes32",
                                "value": "0xeb624ab6b7aa55876f07a6d091b7ea5bf4d6ed81b0be3f80c617dfb02f85ff0e"
                            },
                            {
                                "name": "s",
                                "type": "bytes32",
                                "value": "0x1627f1c3b01e48c120b9e9a439751620afb6843782830ccad579d2399db36e92"
                            }
                        ],
                        "constructorArguments": "",
                        "name": "ecrecover",
                        "returnParams": [
                            {
                                "name": "",
                                "type": "address",
                                "value": "0xb1856317f728b7a08ed22e8dce9d54cc0849a24d"
                            }
                        ],
                        "signature": "ecrecover(bytes32,uint256,bytes32,bytes32)"
                    },
                    "errorInfo": "",
                    "fromAddress": "0x2a0c0dbecc7e4d658f48e01e3fa353f44050c208",
                    "gasUsed": 3000,
                    "id": 1,
                    "methodDecoded": true,
                    "operation": "CALL",
                    "output": "0x000000000000000000000000b1856317f728b7a08ed22e8dce9d54cc0849a24d",
                    "revert": false,
                    "revertMessage": "",
                    "selector": "0x2f8ea132",
                    "status": true,
                    "value": "0"
                },
                "nodeType": 0
            },
            "2": {
                "invocation": {
                    "address": "0x0000000000000000000000000000000000000001",
                    "callData": "0xfd101ebe40f4ce0d36c34dd662a630588f0a2bebbea81eae5647bcdf000000000000000000000000000000000000000000000000000000000000001c2015ceff651c28cf2c7620a2ab3000f780beaa92dbc688cb10115bb4a66e74b53b4b946692d9e9a69f66af489ec5ca7e15bc34aa547a4de606f33a11b01c75ec",
                    "decodedMethod": {
                        "callParams": [
                            {
                                "name": "hash",
                                "type": "bytes32",
                                "value": "0x8fb21375fd101ebe40f4ce0d36c34dd662a630588f0a2bebbea81eae5647bcdf"
                            },
                            {
                                "name": "v",
                                "type": "uint256",
                                "value": "28"
                            },
                            {
                                "name": "r",
                                "type": "bytes32",
                                "value": "0x2015ceff651c28cf2c7620a2ab3000f780beaa92dbc688cb10115bb4a66e74b5"
                            },
                            {
                                "name": "s",
                                "type": "bytes32",
                                "value": "0x3b4b946692d9e9a69f66af489ec5ca7e15bc34aa547a4de606f33a11b01c75ec"
                            }
                        ],
                        "constructorArguments": "",
                        "name": "ecrecover",
                        "returnParams": [
                            {
                                "name": "",
                                "type": "address",
                                "value": "0x5f0b1301c7572fa1bc66da0e10d015d2b5cf8dbe"
                            }
                        ],
                        "signature": "ecrecover(bytes32,uint256,bytes32,bytes32)"
                    },
                    "errorInfo": "",
                    "fromAddress": "0x2a0c0dbecc7e4d658f48e01e3fa353f44050c208",
                    "gasUsed": 3000,
                    "id": 2,
                    "methodDecoded": true,
                    "operation": "CALL",
                    "output": "0x0000000000000000000000005f0b1301c7572fa1bc66da0e10d015d2b5cf8dbe",
                    "revert": false,
                    "revertMessage": "",
                    "selector": "0x8fb21375",
                    "status": true,
                    "value": "0"
                },
                "nodeType": 0
            }
        },
        "gasFlame": [
            {
                "children": [
                    {
                        "children": [
                            {
                                "children": [],
                                "depth": 0,
                                "name": "Initial Gas",
                                "value": 38552
                            },
                            {
                                "children": [
                                    {
                                        "children": [],
                                        "depth": 1,
                                        "name": "ecrecover",
                                        "value": 3000
                                    },
                                    {
                                        "children": [],
                                        "depth": 1,
                                        "name": "ecrecover",
                                        "value": 3000
                                    }
                                ],
                                "depth": 0,
                                "name": "Executed Gas",
                                "value": 104284
                            }
                        ],
                        "depth": -1,
                        "name": "Actual Gas Used",
                        "value": 127836
                    },
                    {
                        "children": [],
                        "depth": -1,
                        "name": "Refunded Gas",
                        "value": 15000
                    }
                ],
                "depth": -2,
                "name": "Total Gas",
                "value": 142836
            }
        ],
        "isConfirmed": true,
        "mainTrace": [
            {
                "children": [
                    {
                        "children": [
                            {
                                "children": [],
                                "depth": 1,
                                "id": 1,
                                "order": 1
                            },
                            {
                                "children": [],
                                "depth": 1,
                                "id": 2,
                                "order": 2
                            }
                        ],
                        "depth": 0,
                        "id": 0,
                        "order": 0
                    }
                ],
                "depth": -1,
                "id": -1,
                "order": -1
            }
        ],
        "mainTraceNodeCount": 3,
        "parentIdMap": {
            "0": -1,
            "1": 0,
            "2": 0
        },
        "tidyTrace": [
            {
                "children": [
                    {
                        "children": [
                            {
                                "children": [],
                                "depth": 1,
                                "id": 1,
                                "order": 1
                            },
                            {
                                "children": [],
                                "depth": 1,
                                "id": 2,
                                "order": 2
                            }
                        ],
                        "depth": 0,
                        "id": 0,
                        "order": 0
                    }
                ],
                "depth": -1,
                "id": -1,
                "order": -1
            }
        ],
        "tidyTraceNodeCount": 3
    },
    "state_change": {
        "stateChanges": [
            {
                "address": "0x2a0c0dbecc7e4d658f48e01e3fa353f44050c208",
                "erc": "",
                "slots": [
                    {
                        "current": "0x00000000000000000000000000000000000000000000000000000000007908e1",
                        "key": "0xb43c38921c9657c4f470a7999564c1614480ed51fa2a413a79a74cbb3da8b526",
                        "prev": "0x00000000000000000000000000000000000000000000000000000000007908df"
                    },
                    {
                        "current": "0x0000000000000000000000000000000000000000000000000000000000000000",
                        "key": "0xdab60bf49215eaf3e682a9cbedaf2ac63c468679cb447dc99252173bf3c2d00e",
                        "prev": "0x0000000000000000000000000000000000000000000002234f5529fa5e077c0c"
                    },
                    {
                        "current": "0x000000000000000000000000000000000000000000000230da2bc34d98eeabc5",
                        "key": "0xa5aa9b962fbd35e281b57a830c2db4fb94cbac39588e71e4bb1371274cfb0ea0",
                        "prev": "0x00000000000000000000000000000000000000000000022d4dd3af8722a6d097"
                    },
                    {
                        "current": "0x0000000000000000000000000000000000000000000000000d280d60dd85154e",
                        "key": "0x0f75dcb4ca4380f7f8e283047426c332608a5817252b64bdeb1591443be2ed55",
                        "prev": "0x0000000000000000000000000000000000000000000000000000000000000000"
                    },
                    {
                        "current": "0x00000000000000000000000000000000000000000000000000000000007908e1",
                        "key": "0xe23581c3318146cb4db28b8b0cc2eed46b65395b5cf3d0f0c434a09d04a5a340",
                        "prev": "0x00000000000000000000000000000000000000000000000000000000007908df"
                    },
                    {
                        "current": "0x0000000000000000000000000000000000000000000000000000000000000001",
                        "key": "0x31619093955ba5f12b1593e5e4bd1379896a94e031a7735886d6cff599352113",
                        "prev": "0x0000000000000000000000000000000000000000000000000000000000000000"
                    },
                    {
                        "current": "0x000000000000000000000000000000000000000000000001eef548569565df53",
                        "key": "0x3ccb72d91c5c66cba135a4135963ed23443b8a63817f501517468fcd5097e277",
                        "prev": "0x000000000000000000000000000000000000000000000001eef1ea1de924f8a6"
                    },
                    {
                        "current": "0x0000000000000000000000000000000000000000000000003cf2eafceb1e39ed",
                        "key": "0x26cb9ee9fd483352d8e3cc380befa320026715b4b7972f75a5e9eee93b240a90",
                        "prev": "0x0000000000000000000000000000000000000000000000004a1af85dc8a34f3b"
                    },
                    {
                        "current": "0x0000000000000000000000000000000000000000000000004f4bb39ffe7e851b",
                        "key": "0x1aa4174e6d6928d1df7858d9c4116071defd2192b9e48af07bcd07fd4cb26d8c",
                        "prev": "0x00000000000000000000000000000000000000000000000042270477cd3a567b"
                    },
                    {
                        "current": "0x00000000000000000000000000000000000000000000179c84684a35c10320ab",
                        "key": "0x08c9c2d386b6b2854aaf832f08a8c190ce3a2d0945980b271363a1bfefd9400d",
                        "prev": "0x00000000000000000000000000000000000000000000157cc16b3401d9437fce"
                    }
                ],
                "storageVariables": [
                    {
                        "name": "orderFills",
                        "type": "mapping(bytes32 => uint256)",
                        "value": {
                            "pairs": [
                                {
                                    "key": "0xee116324f4f9b531756d40e9bae28c85198eab4491651f1525253b4c86372522",
                                    "value": {
                                        "current": "948022431245997390",
                                        "prev": "0",
                                        "typeTag": 1
                                    }
                                }
                            ],
                            "typeTag": 4
                        }
                    },
                    {
                        "name": "tokens",
                        "type": "mapping(address => mapping(address => uint256))",
                        "value": {
                            "pairs": [
                                {
                                    "key": "0x0000000000000000000000000000000000000000",
                                    "value": {
                                        "pairs": [
                                            {
                                                "key": "0x034767f3c519f361c5ecf46ebfc08981c629d381",
                                                "value": {
                                                    "current": "35665492360741379923",
                                                    "prev": "35664544338310133926",
                                                    "typeTag": 1
                                                }
                                            },
                                            {
                                                "key": "0x5f0b1301c7572fa1bc66da0e10d015d2b5cf8dbe",
                                                "value": {
                                                    "current": "4391830958636939757",
                                                    "prev": "5339853389882937147",
                                                    "typeTag": 1
                                                }
                                            },
                                            {
                                                "key": "0xb1856317f728b7a08ed22e8dce9d54cc0849a24d",
                                                "value": {
                                                    "current": "5713858052000482587",
                                                    "prev": "4766783643185731195",
                                                    "typeTag": 1
                                                }
                                            }
                                        ],
                                        "typeTag": 4
                                    }
                                },
                                {
                                    "key": "0x971d048e737619884f2df75e31c7eb6412392328",
                                    "value": {
                                        "pairs": [
                                            {
                                                "key": "0x034767f3c519f361c5ecf46ebfc08981c629d381",
                                                "value": {
                                                    "current": "10345897554939661429701",
                                                    "prev": "10280444468012163453079",
                                                    "typeTag": 1
                                                }
                                            },
                                            {
                                                "key": "0x5f0b1301c7572fa1bc66da0e10d015d2b5cf8dbe",
                                                "value": {
                                                    "current": "111501662138905846292651",
                                                    "prev": "101471029696056906710990",
                                                    "typeTag": 1
                                                }
                                            },
                                            {
                                                "key": "0xb1856317f728b7a08ed22e8dce9d54cc0849a24d",
                                                "value": {
                                                    "current": "0",
                                                    "prev": "10096085529776437558284",
                                                    "typeTag": 1
                                                }
                                            }
                                        ],
                                        "typeTag": 4
                                    }
                                }
                            ],
                            "typeTag": 4
                        }
                    },
                    {
                        "name": "lastActiveTransaction",
                        "type": "mapping(address => uint256)",
                        "value": {
                            "pairs": [
                                {
                                    "key": "0x5f0b1301c7572fa1bc66da0e10d015d2b5cf8dbe",
                                    "value": {
                                        "current": "7932129",
                                        "prev": "7932127",
                                        "typeTag": 1
                                    }
                                },
                                {
                                    "key": "0xb1856317f728b7a08ed22e8dce9d54cc0849a24d",
                                    "value": {
                                        "current": "7932129",
                                        "prev": "7932127",
                                        "typeTag": 1
                                    }
                                }
                            ],
                            "typeTag": 4
                        }
                    },
                    {
                        "name": "traded",
                        "type": "mapping(bytes32 => bool)",
                        "value": {
                            "pairs": [
                                {
                                    "key": "0xcc87a0e25d500ab54ab40f3ce3535ffcb9d4e1b46bb14a663abb1d9c06b24567",
                                    "value": {
                                        "current": "true",
                                        "prev": "false",
                                        "typeTag": 1
                                    }
                                }
                            ],
                            "typeTag": 4
                        }
                    }
                ]
            }
        ]
    }
}