{
    "balance_change": {
        "balanceChanges": [
            {
                "account": "0x792d7c4974bd7ad17258881d71ac1ed21767a2b6",
                "assets": [
                    {
                        "address": "0xeeeeeeeeeeeeeeeeeeeeeeeeeeeeeeeeeeeeeeee",
                        "amount": "15",
                        "iconUrl": "https://assets.blocksec.com/image/1663669189317-3.png",
                        "isERC1155": false,
                        "isERC721": false,
                        "sign": true,
                        "value": ""
                    }
                ]
            },
            {
                "account": "0x4ddc2d193948926d02f9b1fe9e1daa0718270ed5",
                "assets": [
                    {
                        "address": "0xeeeeeeeeeeeeeeeeeeeeeeeeeeeeeeeeeeeeeeee",
                        "amount": "15",
                        "iconUrl": "https://assets.blocksec.com/image/1663669189317-3.png",
                        "isERC1155": false,
                        "isERC721": false,
                        "sign": false,
                        "value": ""
                    }
                ]
            }
        ]
    },
    "profile": {
        "basic_info": {
            "baseFee": "",
            "blockNumber": 10348485,
            "callData": "0xc5ebeaec000000000000000000000000000000000000000000000000d02ab486cedc0000",
            "debugEnable": true,
            "errorInfo": "",
            "eventCount": 3,
            "feeRecipient": "0x04668ec2f57cc15c381b461b9fedab5d451c8f7f",
            "formatValue": "0",
            "gasLimit": 372020,
            "gasPrice": "41.5",
            "gasUsed": 240168,
            "intTxnCount": 23,
            "internalRevert": false,
            "internalRevertMessage": "",
            "isContractCreation": false,
            "isFlashloan": false,
            "maxFee": "",
            "nonce": 206,
            "overwritedBlockNumber": -1,
            "priorityFee": "",
            "receiver": "0x4ddc2d193948926d02f9b1fe9e1daa0718270ed5",
            "revertMessage": "",
            "sender": "0x792d7c4974bd7ad17258881d71ac1ed21767a2b6",
            "simulationEnable": true,
            "sourceTxnHash": "0x23f5dba5130e254d9141dd6523e7046ebe780008791b13e60959fee7fda3d499",
            "status": true,
            "timestamp": "2020-06-27T14:52:19Z",
            "transactionFee": "0.009966972",
            "txnHash": "0x23f5dba5130e254d9141dd6523e7046ebe780008791b13e60959fee7fda3d499",
            "txnIndex": 137,
            "type": 0,
            "value": "0"
        },
        "fund_flow": [
            {
                "amount": "15",
                "from": "0x4ddc2d193948926d02f9b1fe9e1daa0718270ed5",
                "id": 1,
                "isERC1155": false,
                "isERC721": false,
                "isReverted": false,
                "order": 1,
                "to": "0x792d7c4974bd7ad17258881d71ac1ed21767a2b6",
                "token": "0xeeeeeeeeeeeeeeeeeeeeeeeeeeeeeeeeeeeeeeee"
            }
        ],
        "token_infos": [
            {
                "address": "0xc02aaa39b223fe8d0a0e5c4f27ead9083c756cc2",
                "decimals": 18
            },
            {
                "address": "0xeeeeeeeeeeeeeeeeeeeeeeeeeeeeeeeeeeeeeeee",
                "decimals": 18
            }
        ]
    },
    "address_label": {
        "labels": [
            {
                "address": "0x0000000000000000000000000000000000000003",
                "label": "Precompiled"
            },
            {
                "address": "0x0000000000000000000000000000000000000004",
                "label": "Precompiled"
            },
            {
                "address": "0xeeeeeeeeeeeeeeeeeeeeeeeeeeeeeeeeeeeeeeee",
                "label": "Ether"
            },
            {
                "address": "0xdac17f958d2ee523a2206206994597c13d831ec7",
                "label": "Tether: USDT Stablecoin"
            },
            {
                "address": "0xf650c3d88d12db855b8bf7d11be6c55a4e07dcc9",
                "label": "Compound: cUSDT Token"
            },
            {
                "address": "0x0000000000000000000000000000000000000001",
                "label": "Precompiled"
            },
            {
                "address": "0x0d8775f648430679a709e98d2b0cb6250d2887ef",
                "label": "Basic Attention: BAT Token"
            },
            {
                "address": "0x0c3f8df27e1a00b47653fde878d68d35f00714c0",
                "label": "WhitePaperInterestRateModel"
            },
            {
                "address": "0x0000000000000000000000000000000000000002",
                "label": "Precompiled"
            },
            {
                "address": "0x976aa93ca5aaa569109f4267589c619a097f001d",
                "label": "CErc20Delegate"
            },
            {
                "address": "0x4ddc2d193948926d02f9b1fe9e1daa0718270ed5",
                "label": "Compound: cETH Token"
            },
            {
                "address": "0xddc46a3b076aec7ab3fc37420a8edd2959764ec4",
                "label": "Compound: Price Oracle Proxy"
            },
            {
                "address": "0x3d9819210a31b4961b30ef54be2aed79b9c9cd3b",
                "label": "Compound: Comptroller"
            },
            {
                "address": "0x02557a5e05defeffd4cae6d83ea3d173b272c904",
                "label": "Compound: Oracle"
            },
            {
                "address": "0x6c8c6b02e7b2be14d4fa6022dfd6d75921d90e4e",
                "label": "Compound: cBAT Token"
            },
            {
                "address": "0x9d0a0443ff4bb04391655b8cd205683d9fa75550",
                "label": "Comptroller"
            }
        ]
    },
    "trace": {
        "accountLabels": null,
        "dataMap": {
            "-1": {
                "invocation": {
                    "address": "0x792d7c4974bd7ad17258881d71ac1ed21767a2b6",
                    "callData": "",
                    "decodedMethod": null,
                    "errorInfo": "",
                    "fromAddress": "",
                    "gasUsed": 0,
                    "id": -1,
                    "methodDecoded": false,
                    "operation": "",
                    "output": "",
                    "revert": false,
                    "revertMessage": "",
                    "selector": "",
                    "status": false,
                    "value": ""
                },
                "nodeType": 0
            },
            "0": {
                "invocation": {
                    "address": "0x4ddc2d193948926d02f9b1fe9e1daa0718270ed5",
                    "callData": "0x000000000000000000000000000000000000000000000000d02ab486cedc0000",
                    "decodedMethod": {
                        "callParams": [
                            {
                                "name": "borrowAmount",
                                "type": "uint256",
                                "value": "15,000,000,000,000,000,000"
                            }
                        ],
                        "constructorArguments": "",
                        "name": "borrow",
                        "returnParams": [
                            {
                                "name": "",
                                "type": "uint256",
                                "value": "0"
                            }
                        ],
                        "signature": "borrow(uint256)"
                    },
                    "errorInfo": "",
                    "fromAddress": "0x792d7c4974bd7ad17258881d71ac1ed21767a2b6",
                    "gasUsed": 240168,
                    "id": 0,
                    "methodDecoded": true,
                    "operation": "CALL",
                    "output": "0x0000000000000000000000000000000000000000000000000000000000000000",
                    "revert": false,
                    "revertMessage": "",
                    "selector": "0xc5ebeaec",
                    "status": true,
                    "value": "0"
                },
                "nodeType": 0
            },
            "1": {
                "invocation": {
                    "address": "0x0c3f8df27e1a00b47653fde878d68d35f00714c0",
                    "callData": "0x00000000000000000000000000000000000000000000d984638ceedccf4652c900000000000000000000000000000000000000000000004ff024466606f48db70000000000000000000000000000000000000000000000007988335f13976eb3",
                    "decodedMethod": {
                        "callParams": [
                            {
                                "name": "cash",
                                "type": "uint256",
                                "value": "1,027,195,670,371,381,304,251,081"
                            },
                            {
                                "name": "borrows",
                                "type": "uint256",
                                "value": "1,474,596,814,895,336,164,791"
                            },
                            {
                                "name": "_reserves",
                                "type": "uint256",
                                "value": "8,757,305,958,865,530,547"
                            }
                        ],
                        "constructorArguments": "",
                        "name": "getBorrowRate",
                        "returnParams": [
                            {
                                "name": "",
                                "type": "uint256",
                                "value": "0"
                            },
                            {
                                "name": "",
                                "type": "uint256",
                                "value": "9,581,121,482"
                            }
                        ],
                        "signature": "getBorrowRate(uint256,uint256,uint256)"
                    },
                    "errorInfo": "",
                    "fromAddress": "0x4ddc2d193948926d02f9b1fe9e1daa0718270ed5",
                    "gasUsed": 5403,
                    "id": 1,
                    "methodDecoded": true,
                    "operation": "STATICCALL",
                    "output": "0x0000000000000000000000000000000000000000000000000000000000000000000000000000000000000000000000000000000000000000000000023b144fca",
                    "revert": false,
                    "revertMessage": "",
                    "selector": "0x15f24053",
                    "status": true,
                    "value": "0"
                },
                "nodeType": 0
            },
            "10": {
                "invocation": {
                    "address": "0xddc46a3b076aec7ab3fc37420a8edd2959764ec4",
                    "callData": "0x000000000000000000000000f650c3d88d12db855b8bf7d11be6c55a4e07dcc9",
                    "decodedMethod": {
                        "callParams": [
                            {
                                "name": "cToken",
                                "type": "address",
                                "value": "0xf650c3d88d12db855b8bf7d11be6c55a4e07dcc9"
                            }
                        ],
                        "constructorArguments": "",
                        "name": "getUnderlyingPrice",
                        "returnParams": [
                            {
                                "name": "",
                                "type": "uint256",
                                "value": "4,343,939,918,513,041,000,000,000,000"
                            }
                        ],
                        "signature": "getUnderlyingPrice(address)"
                    },
                    "errorInfo": "",
                    "fromAddress": "0x3d9819210a31b4961b30ef54be2aed79b9c9cd3b",
                    "gasUsed": 8674,
                    "id": 10,
                    "methodDecoded": true,
                    "operation": "STATICCALL",
                    "output": "0x00000000000000000000000000000000000000000e09390ed704d06a6cae1000",
                    "revert": false,
                    "revertMessage": "",
                    "selector": "0xfc57d4df",
                    "status": true,
                    "value": "0"
                },
                "nodeType": 0
            },
            "11": {
                "invocation": {
                    "address": "0x02557a5e05defeffd4cae6d83ea3d173b272c904",
                    "callData": "0x0000000000000000000000000000000000000000000000000000000000000001",
                    "decodedMethod": {
                        "callParams": [
                            {
                                "name": "asset",
                                "type": "address",
                                "value": "0x0000000000000000000000000000000000000001"
                            }
                        ],
                        "constructorArguments": "",
                        "name": "assetPrices",
                        "returnParams": [
                            {
                                "name": "",
                                "type": "uint256",
                                "value": "4,343,939,918,513,041,000,000,000,000"
                            }
                        ],
                        "signature": "assetPrices(address)"
                    },
                    "errorInfo": "",
                    "fromAddress": "0xddc46a3b076aec7ab3fc37420a8edd2959764ec4",
                    "gasUsed": 3344,
                    "id": 11,
                    "methodDecoded": true,
                    "operation": "STATICCALL",
                    "output": "0x00000000000000000000000000000000000000000e09390ed704d06a6cae1000",
                    "revert": false,
                    "revertMessage": "",
                    "selector": "0x5e9a523c",
                    "status": true,
                    "value": "0"
                },
                "nodeType": 0
            },
            "12": {
                "invocation": {
                    "address": "0x4ddc2d193948926d02f9b1fe9e1daa0718270ed5",
                    "callData": "0x000000000000000000000000792d7c4974bd7ad17258881d71ac1ed21767a2b6",
                    "decodedMethod": {
                        "callParams": [
                            {
                                "name": "account",
                                "type": "address",
                                "value": "0x792d7c4974bd7ad17258881d71ac1ed21767a2b6"
                            }
                        ],
                        "constructorArguments": "",
                        "name": "getAccountSnapshot",
                        "returnParams": [
                            {
                                "name": "",
                                "type": "uint256",
                                "value": "0"
                            },
                            {
                                "name": "",
                                "type": "uint256",
                                "value": "0"
                            },
                            {
                                "name": "",
                                "type": "uint256",
                                "value": "0"
                            },
                            {
                                "name": "",
                                "type": "uint256",
                                "value": "200,121,687,080,605,201,517,738,421"
                            }
                        ],
                        "signature": "getAccountSnapshot(address)"
                    },
                    "errorInfo": "",
                    "fromAddress": "0x3d9819210a31b4961b30ef54be2aed79b9c9cd3b",
                    "gasUsed": 7747,
                    "id": 12,
                    "methodDecoded": true,
                    "operation": "STATICCALL",
                    "output": "0x000000000000000000000000000000000000000000000000000000000000000000000000000000000000000000000000000000000000000000000000000000000000000000000000000000000000000000000000000000000000000000000000000000000000000000000000000000000000000000a5896a650be64b2a7f79b5",
                    "revert": false,
                    "revertMessage": "",
                    "selector": "0xc37f68e2",
                    "status": true,
                    "value": "0"
                },
                "nodeType": 0
            },
            "13": {
                "invocation": {
                    "address": "0xddc46a3b076aec7ab3fc37420a8edd2959764ec4",
                    "callData": "0x0000000000000000000000004ddc2d193948926d02f9b1fe9e1daa0718270ed5",
                    "decodedMethod": {
                        "callParams": [
                            {
                                "name": "cToken",
                                "type": "address",
                                "value": "0x4ddc2d193948926d02f9b1fe9e1daa0718270ed5"
                            }
                        ],
                        "constructorArguments": "",
                        "name": "getUnderlyingPrice",
                        "returnParams": [
                            {
                                "name": "",
                                "type": "uint256",
                                "value": "1,000,000,000,000,000,000"
                            }
                        ],
                        "signature": "getUnderlyingPrice(address)"
                    },
                    "errorInfo": "",
                    "fromAddress": "0x3d9819210a31b4961b30ef54be2aed79b9c9cd3b",
                    "gasUsed": 1190,
                    "id": 13,
                    "methodDecoded": true,
                    "operation": "STATICCALL",
                    "output": "0x0000000000000000000000000000000000000000000000000de0b6b3a7640000",
                    "revert": false,
                    "revertMessage": "",
                    "selector": "0xfc57d4df",
                    "status": true,
                    "value": "0"
                },
                "nodeType": 0
            },
            "14": {
                "invocation": {
                    "address": "0x6c8c6b02e7b2be14d4fa6022dfd6d75921d90e4e",
                    "callData": "0x000000000000000000000000792d7c4974bd7ad17258881d71ac1ed21767a2b6",
                    "decodedMethod": {
                        "callParams": [
                            {
                                "name": "account",
                                "type": "address",
                                "value": "0x792d7c4974bd7ad17258881d71ac1ed21767a2b6"
                            }
                        ],
                        "constructorArguments": "",
                        "name": "getAccountSnapshot",
                        "returnParams": [
                            {
                                "name": "",
                                "type": "uint256",
                                "value": "0"
                            },
                            {
                                "name": "",
                                "type": "uint256",
                                "value": "402,283,472,464,229"
                            },
                            {
                                "name": "",
                                "type": "uint256",
                                "value": "0"
                            },
                            {
                                "name": "",
                                "type": "uint256",
                                "value": "203,330,607,500,554,053,506,964,378"
                            }
                        ],
                        "signature": "getAccountSnapshot(address)"
                    },
                    "errorInfo": "",
                    "fromAddress": "0x3d9819210a31b4961b30ef54be2aed79b9c9cd3b",
                    "gasUsed": 10848,
                    "id": 14,
                    "methodDecoded": true,
                    "operation": "STATICCALL",
                    "output": "0x000000000000000000000000000000000000000000000000000000000000000000000000000000000000000000000000000000000000000000016ddfeb79a9650000000000000000000000000000000000000000000000000000000000000000000000000000000000000000000000000000000000a830ee51ba08bc01861b9a",
                    "revert": false,
                    "revertMessage": "",
                    "selector": "0xc37f68e2",
                    "status": true,
                    "value": "0"
                },
                "nodeType": 0
            },
            "15": {
                "invocation": {
                    "address": "0x0d8775f648430679a709e98d2b0cb6250d2887ef",
                    "callData": "0x0000000000000000000000006c8c6b02e7b2be14d4fa6022dfd6d75921d90e4e",
                    "decodedMethod": {
                        "callParams": [
                            {
                                "name": "_owner",
                                "type": "address",
                                "value": "0x6c8c6b02e7b2be14d4fa6022dfd6d75921d90e4e"
                            }
                        ],
                        "constructorArguments": "",
                        "name": "balanceOf",
                        "returnParams": [
                            {
                                "decimalAvailable": true,
                                "name": "balance",
                                "type": "uint256",
                                "value": "143,623,113,526,379,421,263,836,465"
                            }
                        ],
                        "signature": "balanceOf(address)"
                    },
                    "errorInfo": "",
                    "fromAddress": "0x6c8c6b02e7b2be14d4fa6022dfd6d75921d90e4e",
                    "gasUsed": 1531,
                    "id": 15,
                    "methodDecoded": true,
                    "operation": "STATICCALL",
                    "output": "0x00000000000000000000000000000000000000000076cd6095d115de0f05b531",
                    "revert": false,
                    "revertMessage": "",
                    "selector": "0x70a08231",
                    "status": true,
                    "value": "0"
                },
                "nodeType": 0
            },
            "16": {
                "invocation": {
                    "address": "0xddc46a3b076aec7ab3fc37420a8edd2959764ec4",
                    "callData": "0x0000000000000000000000006c8c6b02e7b2be14d4fa6022dfd6d75921d90e4e",
                    "decodedMethod": {
                        "callParams": [
                            {
                                "name": "cToken",
                                "type": "address",
                                "value": "0x6c8c6b02e7b2be14d4fa6022dfd6d75921d90e4e"
                            }
                        ],
                        "constructorArguments": "",
                        "name": "getUnderlyingPrice",
                        "returnParams": [
                            {
                                "name": "",
                                "type": "uint256",
                                "value": "1,254,717,500,000,000"
                            }
                        ],
                        "signature": "getUnderlyingPrice(address)"
                    },
                    "errorInfo": "",
                    "fromAddress": "0x3d9819210a31b4961b30ef54be2aed79b9c9cd3b",
                    "gasUsed": 13090,
                    "id": 16,
                    "methodDecoded": true,
                    "operation": "STATICCALL",
                    "output": "0x00000000000000000000000000000000000000000000000000047528aee18700",
                    "revert": false,
                    "revertMessage": "",
                    "selector": "0xfc57d4df",
                    "status": true,
                    "value": "0"
                },
                "nodeType": 0
            },
            "17": {
                "invocation": {
                    "address": "0x6c8c6b02e7b2be14d4fa6022dfd6d75921d90e4e",
                    "callData": "0x",
                    "decodedMethod": {
                        "callParams": [],
                        "constructorArguments": "",
                        "name": "underlying",
                        "returnParams": [
                            {
                                "name": "",
                                "type": "address",
                                "value": "0x0d8775f648430679a709e98d2b0cb6250d2887ef"
                            }
                        ],
                        "signature": "underlying()"
                    },
                    "errorInfo": "",
                    "fromAddress": "0xddc46a3b076aec7ab3fc37420a8edd2959764ec4",
                    "gasUsed": 1126,
                    "id": 17,
                    "methodDecoded": true,
                    "operation": "STATICCALL",
                    "output": "0x0000000000000000000000000d8775f648430679a709e98d2b0cb6250d2887ef",
                    "revert": false,
                    "revertMessage": "",
                    "selector": "0x6f307dc3",
                    "status": true,
                    "value": "0"
                },
                "nodeType": 0
            },
            "18": {
                "invocation": {
                    "address": "0x02557a5e05defeffd4cae6d83ea3d173b272c904",
                    "callData": "0x0000000000000000000000000d8775f648430679a709e98d2b0cb6250d2887ef",
                    "decodedMethod": {
                        "callParams": [
                            {
                                "name": "asset",
                                "type": "address",
                                "value": "0x0d8775f648430679a709e98d2b0cb6250d2887ef"
                            }
                        ],
                        "constructorArguments": "",
                        "name": "assetPrices",
                        "returnParams": [
                            {
                                "name": "",
                                "type": "uint256",
                                "value": "1,254,717,500,000,000"
                            }
                        ],
                        "signature": "assetPrices(address)"
                    },
                    "errorInfo": "",
                    "fromAddress": "0xddc46a3b076aec7ab3fc37420a8edd2959764ec4",
                    "gasUsed": 3344,
                    "id": 18,
                    "methodDecoded": true,
                    "operation": "STATICCALL",
                    "output": "0x00000000000000000000000000000000000000000000000000047528aee18700",
                    "revert": false,
                    "revertMessage": "",
                    "selector": "0x5e9a523c",
                    "status": true,
                    "value": "0"
                },
                "nodeType": 0
            },
            "19": {
                "invocation": {
                    "address": "0x4ddc2d193948926d02f9b1fe9e1daa0718270ed5",
                    "callData": "0x",
                    "decodedMethod": {
                        "callParams": [],
                        "constructorArguments": "",
                        "name": "borrowIndex",
                        "returnParams": [
                            {
                                "name": "",
                                "type": "uint256",
                                "value": "1,029,016,573,600,670,798"
                            }
                        ],
                        "signature": "borrowIndex()"
                    },
                    "errorInfo": "",
                    "fromAddress": "0x3d9819210a31b4961b30ef54be2aed79b9c9cd3b",
                    "gasUsed": 1043,
                    "id": 19,
                    "methodDecoded": true,
                    "operation": "STATICCALL",
                    "output": "0x0000000000000000000000000000000000000000000000000e47cd1f2975244e",
                    "revert": false,
                    "revertMessage": "",
                    "selector": "0xaa5af0fd",
                    "status": true,
                    "value": "0"
                },
                "nodeType": 0
            },
            "2": {
                "event": {
                    "contract": "0x4ddc2d193948926d02f9b1fe9e1daa0718270ed5",
                    "decodedLog": {
                        "name": "AccrueInterest",
                        "params": [
                            {
                                "name": "interestAccumulated",
                                "type": "uint256",
                                "value": "0"
                            },
                            {
                                "name": "borrowIndex",
                                "type": "uint256",
                                "value": "1,029,016,573,600,670,798"
                            },
                            {
                                "name": "totalBorrows",
                                "type": "uint256",
                                "value": "1,474,596,814,895,336,164,791"
                            }
                        ],
                        "signature": "AccrueInterest(uint256,uint256,uint256)"
                    },
                    "id": 2,
                    "logData": "0x00000000000000000000000000000000000000000000000000000000000000000000000000000000000000000000000000000000000000000e47cd1f2975244e00000000000000000000000000000000000000000000004ff024466606f48db7",
                    "logDecoded": true,
                    "operation": "EVENT",
                    "revert": false,
                    "status": true,
                    "topics": [
                        "0x875352fb3fadeb8c0be7cbbe8ff761b308fa7033470cd0287f02f3436fd76cb9"
                    ]
                },
                "nodeType": 1
            },
            "20": {
                "invocation": {
                    "address": "0x4ddc2d193948926d02f9b1fe9e1daa0718270ed5",
                    "callData": "0x",
                    "decodedMethod": {
                        "callParams": [],
                        "constructorArguments": "",
                        "name": "totalBorrows",
                        "returnParams": [
                            {
                                "name": "",
                                "type": "uint256",
                                "value": "1,474,596,814,895,336,164,791"
                            }
                        ],
                        "signature": "totalBorrows()"
                    },
                    "errorInfo": "",
                    "fromAddress": "0x3d9819210a31b4961b30ef54be2aed79b9c9cd3b",
                    "gasUsed": 1088,
                    "id": 20,
                    "methodDecoded": true,
                    "operation": "STATICCALL",
                    "output": "0x00000000000000000000000000000000000000000000004ff024466606f48db7",
                    "revert": false,
                    "revertMessage": "",
                    "selector": "0x47bd3718",
                    "status": true,
                    "value": "0"
                },
                "nodeType": 0
            },
            "21": {
                "invocation": {
                    "address": "0x4ddc2d193948926d02f9b1fe9e1daa0718270ed5",
                    "callData": "0x000000000000000000000000792d7c4974bd7ad17258881d71ac1ed21767a2b6",
                    "decodedMethod": {
                        "callParams": [
                            {
                                "name": "account",
                                "type": "address",
                                "value": "0x792d7c4974bd7ad17258881d71ac1ed21767a2b6"
                            }
                        ],
                        "constructorArguments": "",
                        "name": "borrowBalanceStored",
                        "returnParams": [
                            {
                                "name": "",
                                "type": "uint256",
                                "value": "0"
                            }
                        ],
                        "signature": "borrowBalanceStored(address)"
                    },
                    "errorInfo": "",
                    "fromAddress": "0x3d9819210a31b4961b30ef54be2aed79b9c9cd3b",
                    "gasUsed": 1429,
                    "id": 21,
                    "methodDecoded": true,
                    "operation": "STATICCALL",
                    "output": "0x0000000000000000000000000000000000000000000000000000000000000000",
                    "revert": false,
                    "revertMessage": "",
                    "selector": "0x95dd9193",
                    "status": true,
                    "value": "0"
                },
                "nodeType": 0
            },
            "22": {
                "event": {
                    "contract": "0x3d9819210a31b4961b30ef54be2aed79b9c9cd3b",
                    "decodedLog": {
                        "name": "DistributedBorrowerComp",
                        "params": [
                            {
                                "name": "cToken",
                                "type": "address",
                                "value": "0x4ddc2d193948926d02f9b1fe9e1daa0718270ed5"
                            },
                            {
                                "name": "borrower",
                                "type": "address",
                                "value": "0x792d7c4974bd7ad17258881d71ac1ed21767a2b6"
                            },
                            {
                                "name": "compDelta",
                                "type": "uint256",
                                "value": "0"
                            },
                            {
                                "name": "compBorrowIndex",
                                "type": "uint256",
                                "value": "9,088,667,384,839,391,561,536,939,199,807,625"
                            }
                        ],
                        "signature": "DistributedBorrowerComp(address,address,uint256,uint256)"
                    },
                    "id": 22,
                    "logData": "0x0000000000000000000000000000000000000000000000000000000000000000000000000000000000000000000000000001c01b1c2eaea2d36a09c23d5fc089",
                    "logDecoded": true,
                    "operation": "EVENT",
                    "revert": false,
                    "status": true,
                    "topics": [
                        "0x1fc3ecc087d8d2d15e23d0032af5a47059c3892d003d8e139fdcb6bb327c99a6",
                        "0x0000000000000000000000004ddc2d193948926d02f9b1fe9e1daa0718270ed5",
                        "0x000000000000000000000000792d7c4974bd7ad17258881d71ac1ed21767a2b6"
                    ]
                },
                "nodeType": 1
            },
            "23": {
                "invocation": {
                    "address": "0x792d7c4974bd7ad17258881d71ac1ed21767a2b6",
                    "callData": "0x",
                    "decodedMethod": null,
                    "errorInfo": "",
                    "fromAddress": "0x4ddc2d193948926d02f9b1fe9e1daa0718270ed5",
                    "gasUsed": 0,
                    "id": 23,
                    "methodDecoded": false,
                    "operation": "CALL",
                    "output": "",
                    "revert": false,
                    "revertMessage": "",
                    "selector": "fallback",
                    "status": true,
                    "value": "15"
                },
                "nodeType": 0
            },
            "24": {
                "event": {
                    "contract": "0x4ddc2d193948926d02f9b1fe9e1daa0718270ed5",
                    "decodedLog": {
                        "name": "Borrow",
                        "params": [
                            {
                                "name": "borrower",
                                "type": "address",
                                "value": "0x792d7c4974bd7ad17258881d71ac1ed21767a2b6"
                            },
                            {
                                "name": "borrowAmount",
                                "type": "uint256",
                                "value": "15,000,000,000,000,000,000"
                            },
                            {
                                "name": "accountBorrows",
                                "type": "uint256",
                                "value": "15,000,000,000,000,000,000"
                            },
                            {
                                "name": "totalBorrows",
                                "type": "uint256",
                                "value": "1,489,596,814,895,336,164,791"
                            }
                        ],
                        "signature": "Borrow(address,uint256,uint256,uint256)"
                    },
                    "id": 24,
                    "logData": "0x000000000000000000000000792d7c4974bd7ad17258881d71ac1ed21767a2b6000000000000000000000000000000000000000000000000d02ab486cedc0000000000000000000000000000000000000000000000000000d02ab486cedc0000000000000000000000000000000000000000000000000050c04efaecd5d08db7",
                    "logDecoded": true,
                    "operation": "EVENT",
                    "revert": false,
                    "status": true,
                    "topics": [
                        "0x13ed6866d4e1ee6da46f845c46d7e54120883d75c5ea9a2dacc1c4ca8984ab80"
                    ]
                },
                "nodeType": 1
            },
            "25": {
                "invocation": {
                    "address": "0x3d9819210a31b4961b30ef54be2aed79b9c9cd3b",
                    "callData": "0x0000000000000000000000004ddc2d193948926d02f9b1fe9e1daa0718270ed5000000000000000000000000792d7c4974bd7ad17258881d71ac1ed21767a2b6000000000000000000000000000000000000000000000000d02ab486cedc0000",
                    "decodedMethod": {
                        "callParams": [
                            {
                                "name": "cToken",
                                "type": "address",
                                "value": "0x4ddc2d193948926d02f9b1fe9e1daa0718270ed5"
                            },
                            {
                                "name": "borrower",
                                "type": "address",
                                "value": "0x792d7c4974bd7ad17258881d71ac1ed21767a2b6"
                            },
                            {
                                "name": "borrowAmount",
                                "type": "uint256",
                                "value": "15,000,000,000,000,000,000"
                            }
                        ],
                        "constructorArguments": "",
                        "name": "borrowVerify",
                        "returnParams": [],
                        "signature": "borrowVerify(address,address,uint256)"
                    },
                    "errorInfo": "",
                    "fromAddress": "0x4ddc2d193948926d02f9b1fe9e1daa0718270ed5",
                    "gasUsed": 2305,
                    "id": 25,
                    "methodDecoded": true,
                    "operation": "CALL",
                    "output": "",
                    "revert": false,
                    "revertMessage": "",
                    "selector": "0x5c778605",
                    "status": true,
                    "value": "0"
                },
                "nodeType": 0
            },
            "26": {
                "invocation": {
                    "address": "0x9d0a0443ff4bb04391655b8cd205683d9fa75550",
                    "callData": "0x0000000000000000000000004ddc2d193948926d02f9b1fe9e1daa0718270ed5000000000000000000000000792d7c4974bd7ad17258881d71ac1ed21767a2b6000000000000000000000000000000000000000000000000d02ab486cedc0000",
                    "decodedMethod": {
                        "callParams": [
                            {
                                "name": "cToken",
                                "type": "address",
                                "value": "0x4ddc2d193948926d02f9b1fe9e1daa0718270ed5"
                            },
                            {
                                "name": "borrower",
                                "type": "address",
                                "value": "0x792d7c4974bd7ad17258881d71ac1ed21767a2b6"
                            },
                            {
                                "name": "borrowAmount",
                                "type": "uint256",
                                "value": "15,000,000,000,000,000,000"
                            }
                        ],
                        "constructorArguments": "",
                        "name": "borrowVerify",
                        "returnParams": [],
                        "signature": "borrowVerify(address,address,uint256)"
                    },
                    "errorInfo": "",
                    "fromAddress": "0x3d9819210a31b4961b30ef54be2aed79b9c9cd3b",
                    "gasUsed": 398,
                    "id": 26,
                    "methodDecoded": true,
                    "operation": "DELEGATECALL",
                    "output": "",
                    "revert": false,
                    "revertMessage": "",
                    "selector": "0x5c778605",
                    "status": true,
                    "value": "0"
                },
                "nodeType": 0
            },
            "3": {
                "invocation": {
                    "address": "0x3d9819210a31b4961b30ef54be2aed79b9c9cd3b",
                    "callData": "0x0000000000000000000000004ddc2d193948926d02f9b1fe9e1daa0718270ed5000000000000000000000000792d7c4974bd7ad17258881d71ac1ed21767a2b6000000000000000000000000000000000000000000000000d02ab486cedc0000",
                    "decodedMethod": {
                        "callParams": [
                            {
                                "name": "cToken",
                                "type": "address",
                                "value": "0x4ddc2d193948926d02f9b1fe9e1daa0718270ed5"
                            },
                            {
                                "name": "borrower",
                                "type": "address",
                                "value": "0x792d7c4974bd7ad17258881d71ac1ed21767a2b6"
                            },
                            {
                                "name": "borrowAmount",
                                "type": "uint256",
                                "value": "15,000,000,000,000,000,000"
                            }
                        ],
                        "constructorArguments": "",
                        "name": "borrowAllowed",
                        "returnParams": [
                            {
                                "name": "",
                                "type": "uint256",
                                "value": "0"
                            }
                        ],
                        "signature": "borrowAllowed(address,address,uint256)"
                    },
                    "errorInfo": "",
                    "fromAddress": "0x4ddc2d193948926d02f9b1fe9e1daa0718270ed5",
                    "gasUsed": 134711,
                    "id": 3,
                    "methodDecoded": true,
                    "operation": "CALL",
                    "output": "0x0000000000000000000000000000000000000000000000000000000000000000",
                    "revert": false,
                    "revertMessage": "",
                    "selector": "0xda3d454c",
                    "status": true,
                    "value": "0"
                },
                "nodeType": 0
            },
            "4": {
                "invocation": {
                    "address": "0x9d0a0443ff4bb04391655b8cd205683d9fa75550",
                    "callData": "0x0000000000000000000000004ddc2d193948926d02f9b1fe9e1daa0718270ed5000000000000000000000000792d7c4974bd7ad17258881d71ac1ed21767a2b6000000000000000000000000000000000000000000000000d02ab486cedc0000",
                    "decodedMethod": {
                        "callParams": [
                            {
                                "name": "cToken",
                                "type": "address",
                                "value": "0x4ddc2d193948926d02f9b1fe9e1daa0718270ed5"
                            },
                            {
                                "name": "borrower",
                                "type": "address",
                                "value": "0x792d7c4974bd7ad17258881d71ac1ed21767a2b6"
                            },
                            {
                                "name": "borrowAmount",
                                "type": "uint256",
                                "value": "15,000,000,000,000,000,000"
                            }
                        ],
                        "constructorArguments": "",
                        "name": "borrowAllowed",
                        "returnParams": [
                            {
                                "name": "",
                                "type": "uint256",
                                "value": "0"
                            }
                        ],
                        "signature": "borrowAllowed(address,address,uint256)"
                    },
                    "errorInfo": "",
                    "fromAddress": "0x3d9819210a31b4961b30ef54be2aed79b9c9cd3b",
                    "gasUsed": 132731,
                    "id": 4,
                    "methodDecoded": true,
                    "operation": "DELEGATECALL",
                    "output": "0x0000000000000000000000000000000000000000000000000000000000000000",
                    "revert": false,
                    "revertMessage": "",
                    "selector": "0xda3d454c",
                    "status": true,
                    "value": "0"
                },
                "nodeType": 0
            },
            "5": {
                "invocation": {
                    "address": "0xddc46a3b076aec7ab3fc37420a8edd2959764ec4",
                    "callData": "0x0000000000000000000000004ddc2d193948926d02f9b1fe9e1daa0718270ed5",
                    "decodedMethod": {
                        "callParams": [
                            {
                                "name": "cToken",
                                "type": "address",
                                "value": "0x4ddc2d193948926d02f9b1fe9e1daa0718270ed5"
                            }
                        ],
                        "constructorArguments": "",
                        "name": "getUnderlyingPrice",
                        "returnParams": [
                            {
                                "name": "",
                                "type": "uint256",
                                "value": "1,000,000,000,000,000,000"
                            }
                        ],
                        "signature": "getUnderlyingPrice(address)"
                    },
                    "errorInfo": "",
                    "fromAddress": "0x3d9819210a31b4961b30ef54be2aed79b9c9cd3b",
                    "gasUsed": 1190,
                    "id": 5,
                    "methodDecoded": true,
                    "operation": "STATICCALL",
                    "output": "0x0000000000000000000000000000000000000000000000000de0b6b3a7640000",
                    "revert": false,
                    "revertMessage": "",
                    "selector": "0xfc57d4df",
                    "status": true,
                    "value": "0"
                },
                "nodeType": 0
            },
            "6": {
                "invocation": {
                    "address": "0xf650c3d88d12db855b8bf7d11be6c55a4e07dcc9",
                    "callData": "0x000000000000000000000000792d7c4974bd7ad17258881d71ac1ed21767a2b6",
                    "decodedMethod": {
                        "callParams": [
                            {
                                "name": "account",
                                "type": "address",
                                "value": "0x792d7c4974bd7ad17258881d71ac1ed21767a2b6"
                            }
                        ],
                        "constructorArguments": "",
                        "name": "getAccountSnapshot",
                        "returnParams": [
                            {
                                "name": "",
                                "type": "uint256",
                                "value": "0"
                            },
                            {
                                "name": "",
                                "type": "uint256",
                                "value": "0"
                            },
                            {
                                "name": "",
                                "type": "uint256",
                                "value": "4,001,959,139"
                            },
                            {
                                "name": "",
                                "type": "uint256",
                                "value": "201,142,832,451,806"
                            }
                        ],
                        "signature": "getAccountSnapshot(address)"
                    },
                    "errorInfo": "",
                    "fromAddress": "0x3d9819210a31b4961b30ef54be2aed79b9c9cd3b",
                    "gasUsed": 19027,
                    "id": 6,
                    "methodDecoded": true,
                    "operation": "STATICCALL",
                    "output": "0x0000000000000000000000000000000000000000000000000000000000000000000000000000000000000000000000000000000000000000000000000000000000000000000000000000000000000000000000000000000000000000ee890ce30000000000000000000000000000000000000000000000000000b6f03713d0de00000000000000000000000000000000000000000000000000000000000000000000000000000000000000000000000000000000000000000000000000000000",
                    "revert": false,
                    "revertMessage": "",
                    "selector": "0xc37f68e2",
                    "status": true,
                    "value": "0"
                },
                "nodeType": 0
            },
            "7": {
                "invocation": {
                    "address": "0xf650c3d88d12db855b8bf7d11be6c55a4e07dcc9",
                    "callData": "0x00000000000000000000000000000000000000000000000000000000000000200000000000000000000000000000000000000000000000000000000000000024c37f68e2000000000000000000000000792d7c4974bd7ad17258881d71ac1ed21767a2b600000000000000000000000000000000000000000000000000000000",
                    "decodedMethod": {
                        "callParams": [
                            {
                                "name": "data",
                                "type": "bytes",
                                "value": "0xc37f68e2000000000000000000000000792d7c4974bd7ad17258881d71ac1ed21767a2b6"
                            }
                        ],
                        "constructorArguments": "",
                        "name": "delegateToImplementation",
                        "returnParams": [
                            {
                                "name": "",
                                "type": "bytes",
                                "value": "0x0000000000000000000000000000000000000000000000000000000000000000000000000000000000000000000000000000000000000000000000000000000000000000000000000000000000000000000000000000000000000000ee890ce30000000000000000000000000000000000000000000000000000b6f03713d0de"
                            }
                        ],
                        "signature": "delegateToImplementation(bytes)"
                    },
                    "errorInfo": "",
                    "fromAddress": "0xf650c3d88d12db855b8bf7d11be6c55a4e07dcc9",
                    "gasUsed": 16924,
                    "id": 7,
                    "methodDecoded": true,
                    "operation": "STATICCALL",
                    "output": "0x000000000000000000000000000000000000000000000000000000000000002000000000000000000000000000000000000000000000000000000000000000800000000000000000000000000000000000000000000000000000000000000000000000000000000000000000000000000000000000000000000000000000000000000000000000000000000000000000000000000000000000000000ee890ce30000000000000000000000000000000000000000000000000000b6f03713d0de",
                    "revert": false,
                    "revertMessage": "",
                    "selector": "0x0933c1ed",
                    "status": true,
                    "value": "0"
                },
                "nodeType": 0
            },
            "8": {
                "invocation": {
                    "address": "0x976aa93ca5aaa569109f4267589c619a097f001d",
                    "callData": "0x000000000000000000000000792d7c4974bd7ad17258881d71ac1ed21767a2b6",
                    "decodedMethod": {
                        "callParams": [
                            {
                                "name": "account",
                                "type": "address",
                                "value": "0x792d7c4974bd7ad17258881d71ac1ed21767a2b6"
                            }
                        ],
                        "constructorArguments": "",
                        "name": "getAccountSnapshot",
                        "returnParams": [
                            {
                                "name": "",
                                "type": "uint256",
                                "value": "0"
                            },
                            {
                                "name": "",
                                "type": "uint256",
                                "value": "0"
                            },
                            {
                                "name": "",
                                "type": "uint256",
                                "value": "4,001,959,139"
                            },
                            {
                                "name": "",
                                "type": "uint256",
                                "value": "201,142,832,451,806"
                            }
                        ],
                        "signature": "getAccountSnapshot(address)"
                    },
                    "errorInfo": "",
                    "fromAddress": "0xf650c3d88d12db855b8bf7d11be6c55a4e07dcc9",
                    "gasUsed": 13739,
                    "id": 8,
                    "methodDecoded": true,
                    "operation": "DELEGATECALL",
                    "output": "0x0000000000000000000000000000000000000000000000000000000000000000000000000000000000000000000000000000000000000000000000000000000000000000000000000000000000000000000000000000000000000000ee890ce30000000000000000000000000000000000000000000000000000b6f03713d0de",
                    "revert": false,
                    "revertMessage": "",
                    "selector": "0xc37f68e2",
                    "status": true,
                    "value": "0"
                },
                "nodeType": 0
            },
            "9": {
                "invocation": {
                    "address": "0xdac17f958d2ee523a2206206994597c13d831ec7",
                    "callData": "0x000000000000000000000000f650c3d88d12db855b8bf7d11be6c55a4e07dcc9",
                    "decodedMethod": {
                        "callParams": [
                            {
                                "name": "who",
                                "type": "address",
                                "value": "0xf650c3d88d12db855b8bf7d11be6c55a4e07dcc9"
                            }
                        ],
                        "constructorArguments": "",
                        "name": "balanceOf",
                        "returnParams": [
                            {
                                "decimalAvailable": true,
                                "name": "",
                                "type": "uint256",
                                "value": "61,762,310,082,929"
                            }
                        ],
                        "signature": "balanceOf(address)"
                    },
                    "errorInfo": "",
                    "fromAddress": "0xf650c3d88d12db855b8bf7d11be6c55a4e07dcc9",
                    "gasUsed": 2431,
                    "id": 9,
                    "methodDecoded": true,
                    "operation": "STATICCALL",
                    "output": "0x0000000000000000000000000000000000000000000000000000382c288d9171",
                    "revert": false,
                    "revertMessage": "",
                    "selector": "0x70a08231",
                    "status": true,
                    "value": "0"
                },
                "nodeType": 0
            }
        },
        "gasFlame": [
            {
                "children": [
                    {
                        "children": [
                            {
                                "children": [],
                                "depth": 0,
                                "name": "Initial Gas",
                                "value": 21264
                            },
                            {
                                "children": [
                                    {
                                        "children": [],
                                        "depth": 1,
                                        "name": "getBorrowRate",
                                        "value": 5403
                                    },
                                    {
                                        "children": [
                                            {
                                                "children": [
                                                    {
                                                        "children": [],
                                                        "depth": 3,
                                                        "name": "getUnderlyingPrice",
                                                        "value": 1190
                                                    },
                                                    {
                                                        "children": [
                                                            {
                                                                "children": [
                                                                    {
                                                                        "children": [
                                                                            {
                                                                                "children": [],
                                                                                "depth": 6,
                                                                                "name": "balanceOf",
                                                                                "value": 2431
                                                                            }
                                                                        ],
                                                                        "depth": 5,
                                                                        "name": "getAccountSnapshot",
                                                                        "value": 13739
                                                                    }
                                                                ],
                                                                "depth": 4,
                                                                "name": "delegateToImplementation",
                                                                "value": 16924
                                                            }
                                                        ],
                                                        "depth": 3,
                                                        "name": "getAccountSnapshot",
                                                        "value": 19027
                                                    },
                                                    {
                                                        "children": [
                                                            {
                                                                "children": [],
                                                                "depth": 4,
                                                                "name": "assetPrices",
                                                                "value": 3344
                                                            }
                                                        ],
                                                        "depth": 3,
                                                        "name": "getUnderlyingPrice",
                                                        "value": 8674
                                                    },
                                                    {
                                                        "children": [],
                                                        "depth": 3,
                                                        "name": "getAccountSnapshot",
                                                        "value": 7747
                                                    },
                                                    {
                                                        "children": [],
                                                        "depth": 3,
                                                        "name": "getUnderlyingPrice",
                                                        "value": 1190
                                                    },
                                                    {
                                                        "children": [
                                                            {
                                                                "children": [],
                                                                "depth": 4,
                                                                "name": "balanceOf",
                                                                "value": 1531
                                                            }
                                                        ],
                                                        "depth": 3,
                                                        "name": "getAccountSnapshot",
                                                        "value": 10848
                                                    },
                                                    {
                                                        "children": [
                                                            {
                                                                "children": [],
                                                                "depth": 4,
                                                                "name": "underlying",
                                                                "value": 1126
                                                            },
                                                            {
                                                                "children": [],
                                                                "depth": 4,
                                                                "name": "assetPrices",
                                                                "value": 3344
                                                            }
                                                        ],
                                                        "depth": 3,
                                                        "name": "getUnderlyingPrice",
                                                        "value": 13090
                                                    },
                                                    {
                                                        "children": [],
                                                        "depth": 3,
                                                        "name": "borrowIndex",
                                                        "value": 1043
                                                    },
                                                    {
                                                        "children": [],
                                                        "depth": 3,
                                                        "name": "totalBorrows",
                                                        "value": 1088
                                                    },
                                                    {
                                                        "children": [],
                                                        "depth": 3,
                                                        "name": "borrowBalanceStored",
                                                        "value": 1429
                                                    }
                                                ],
                                                "depth": 2,
                                                "name": "borrowAllowed",
                                                "value": 132731
                                            }
                                        ],
                                        "depth": 1,
                                        "name": "borrowAllowed",
                                        "value": 134711
                                    },
                                    {
                                        "children": [],
                                        "depth": 1,
                                        "name": "fallback",
                                        "value": 0
                                    },
                                    {
                                        "children": [
                                            {
                                                "children": [],
                                                "depth": 2,
                                                "name": "borrowVerify",
                                                "value": 398
                                            }
                                        ],
                                        "depth": 1,
                                        "name": "borrowVerify",
                                        "value": 2305
                                    }
                                ],
                                "depth": 0,
                                "name": "Executed Gas",
                                "value": 218904
                            }
                        ],
                        "depth": -1,
                        "name": "Actual Gas Used",
                        "value": 240168
                    },
                    {
                        "children": [],
                        "depth": -1,
                        "name": "Refunded Gas",
                        "value": 0
                    }
                ],
                "depth": -2,
                "name": "Total Gas",
                "value": 240168
            }
        ],
        "isConfirmed": true,
        "mainTrace": [
            {
                "children": [
                    {
                        "children": [
                            {
                                "children": [],
                                "depth": 1,
                                "id": 1,
                                "order": 1
                            },
                            {
                                "children": [],
                                "depth": 1,
                                "id": 2,
                                "order": 2
                            },
                            {
                                "children": [
                                    {
                                        "children": [
                                            {
                                                "children": [],
                                                "depth": 3,
                                                "id": 5,
                                                "order": 5
                                            },
                                            {
                                                "children": [
                                                    {
                                                        "children": [
                                                            {
                                                                "children": [
                                                                    {
                                                                        "children": [],
                                                                        "depth": 6,
                                                                        "id": 9,
                                                                        "order": 9
                                                                    }
                                                                ],
                                                                "depth": 5,
                                                                "id": 8,
                                                                "order": 8
                                                            }
                                                        ],
                                                        "depth": 4,
                                                        "id": 7,
                                                        "order": 7
                                                    }
                                                ],
                                                "depth": 3,
                                                "id": 6,
                                                "order": 6
                                            },
                                            {
                                                "children": [
                                                    {
                                                        "children": [],
                                                        "depth": 4,
                                                        "id": 11,
                                                        "order": 11
                                                    }
                                                ],
                                                "depth": 3,
                                                "id": 10,
                                                "order": 10
                                            },
                                            {
                                                "children": [],
                                                "depth": 3,
                                                "id": 12,
                                                "order": 12
                                            },
                                            {
                                                "children": [],
                                                "depth": 3,
                                                "id": 13,
                                                "order": 13
                                            },
                                            {
                                                "children": [
                                                    {
                                                        "children": [],
                                                        "depth": 4,
                                                        "id": 15,
                                                        "order": 15
                                                    }
                                                ],
                                                "depth": 3,
                                                "id": 14,
                                                "order": 14
                                            },
                                            {
                                                "children": [
                                                    {
                                                        "children": [],
                                                        "depth": 4,
                                                        "id": 17,
                                                        "order": 17
                                                    },
                                                    {
                                                        "children": [],
                                                        "depth": 4,
                                                        "id": 18,
                                                        "order": 18
                                                    }
                                                ],
                                                "depth": 3,
                                                "id": 16,
                                                "order": 16
                                            },
                                            {
                                                "children": [],
                                                "depth": 3,
                                                "id": 19,
                                                "order": 19
                                            },
                                            {
                                                "children": [],
                                                "depth": 3,
                                                "id": 20,
                                                "order": 20
                                            },
                                            {
                                                "children": [],
                                                "depth": 3,
                                                "id": 21,
                                                "order": 21
                                            },
                                            {
                                                "children": [],
                                                "depth": 3,
                                                "id": 22,
                                                "order": 22
                                            }
                                        ],
                                        "depth": 2,
                                        "id": 4,
                                        "order": 4
                                    }
                                ],
                                "depth": 1,
                                "id": 3,
                                "order": 3
                            },
                            {
                                "children": [],
                                "depth": 1,
                                "id": 23,
                                "order": 23
                            },
                            {
                                "children": [],
                                "depth": 1,
                                "id": 24,
                                "order": 24
                            },
                            {
                                "children": [
                                    {
                                        "children": [],
                                        "depth": 2,
                                        "id": 26,
                                        "order": 26
                                    }
                                ],
                                "depth": 1,
                                "id": 25,
                                "order": 25
                            }
                        ],
                        "depth": 0,
                        "id": 0,
                        "order": 0
                    }
                ],
                "depth": -1,
                "id": -1,
                "order": -1
            }
        ],
        "mainTraceNodeCount": 27,
        "parentIdMap": {
            "0": -1,
            "1": 0,
            "10": 4,
            "11": 10,
            "12": 4,
            "13": 4,
            "14": 4,
            "15": 14,
            "16": 4,
            "17": 16,
            "18": 16,
            "19": 4,
            "2": 0,
            "20": 4,
            "21": 4,
            "22": 4,
            "23": 0,
            "24": 0,
            "25": 0,
            "26": 25,
            "3": 0,
            "4": 3,
            "5": 4,
            "6": 4,
            "7": 6,
            "8": 7,
            "9": 8
        },
        "tidyTrace": [
            {
                "children": [
                    {
                        "children": [
                            {
                                "children": [],
                                "depth": 1,
                                "id": 2,
                                "order": 2
                            },
                            {
                                "children": [
                                    {
                                        "children": [
                                            {
                                                "children": [],
                                                "depth": 3,
                                                "id": 22,
                                                "order": 22
                                            }
                                        ],
                                        "depth": 2,
                                        "id": 4,
                                        "order": 4
                                    }
                                ],
                                "depth": 1,
                                "id": 3,
                                "order": 3
                            },
                            {
                                "children": [],
                                "depth": 1,
                                "id": 23,
                                "order": 23
                            },
                            {
                                "children": [],
                                "depth": 1,
                                "id": 24,
                                "order": 24
                            },
                            {
                                "children": [
                                    {
                                        "children": [],
                                        "depth": 2,
                                        "id": 26,
                                        "order": 26
                                    }
                                ],
                                "depth": 1,
                                "id": 25,
                                "order": 25
                            }
                        ],
                        "depth": 0,
                        "id": 0,
                        "order": 0
                    }
                ],
                "depth": -1,
                "id": -1,
                "order": -1
            }
        ],
        "tidyTraceNodeCount": 9
    },
    "state_change": {
        "stateChanges": [
            {
                "address": "0x3d9819210a31b4961b30ef54be2aed79b9c9cd3b",
                "erc": "",
                "slots": [
                    {
                        "current": "0x009de7c50000000000000000000000000001c01b1c2eaea2d36a09c23d5fc089",
                        "key": "0x194bd890ade91a910ec79bbd9c039fb22b6e8578eac0284b3f49ce8248e26b39",
                        "prev": "0x009de7bb0000000000000000000000000001c019688aa3ecd2f9d4b14bf04c1c"
                    },
                    {
                        "current": "0x000000000000000000000000000000000001c01b1c2eaea2d36a09c23d5fc089",
                        "key": "0x359d99fee47232e42bf2b250aca51fac10dbc6e084902dbcc7353e89acb55b56",
                        "prev": "0x000000000000000000000000000000000001afccc5fa0b4139f57d9b14600696"
                    }
                ],
                "storageVariables": [
                    {
                        "name": "compBorrowState",
                        "type": "mapping(address => struct ComptrollerV3Storage.CompMarketState)",
                        "value": {
                            "pairs": [
                                {
                                    "key": "0x4ddc2d193948926d02f9b1fe9e1daa0718270ed5",
                                    "value": {
                                        "fields": [
                                            {
                                                "name": "index",
                                                "type": "uint224",
                                                "value": {
                                                    "current": "9088667384839391561536939199807625",
                                                    "prev": "9088532560545703855799203399748636",
                                                    "typeTag": 1
                                                }
                                            },
                                            {
                                                "name": "block",
                                                "type": "uint32",
                                                "value": {
                                                    "current": "10348485",
                                                    "prev": "10348475",
                                                    "typeTag": 1
                                                }
                                            }
                                        ],
                                        "typeTag": 3
                                    }
                                }
                            ],
                            "typeTag": 4
                        }
                    },
                    {
                        "name": "compBorrowerIndex",
                        "type": "mapping(address => mapping(address => uint256))",
                        "value": {
                            "pairs": [
                                {
                                    "key": "0x4ddc2d193948926d02f9b1fe9e1daa0718270ed5",
                                    "value": {
                                        "pairs": [
                                            {
                                                "key": "0x792d7c4974bd7ad17258881d71ac1ed21767a2b6",
                                                "value": {
                                                    "current": "9088667384839391561536939199807625",
                                                    "prev": "8757942355158318832284872418002582",
                                                    "typeTag": 1
                                                }
                                            }
                                        ],
                                        "typeTag": 4
                                    }
                                }
                            ],
                            "typeTag": 4
                        }
                    }
                ]
            },
            {
                "address": "0x4ddc2d193948926d02f9b1fe9e1daa0718270ed5",
                "erc": "ERC-20",
                "slots": [
                    {
                        "current": "0x000000000000000000000000000000000000000000000000000000000001b2fd",
                        "key": "0x0000000000000000000000000000000000000000000000000000000000000000",
                        "prev": "0x000000000000000000000000000000000000000000000000000000000001b2fc"
                    },
                    {
                        "current": "0x000000000000000000000000000000000000000000000000d02ab486cedc0000",
                        "key": "0xa79ead79cb3eb914c9f0999f026f90bd818724c93adf5f4c563fadea82e40981",
                        "prev": "0x0000000000000000000000000000000000000000000000000000000000000000"
                    },
                    {
                        "current": "0x0000000000000000000000000000000000000000000000000e47cd1f2975244e",
                        "key": "0xa79ead79cb3eb914c9f0999f026f90bd818724c93adf5f4c563fadea82e40982",
                        "prev": "0x0000000000000000000000000000000000000000000000000e4711a8c31976ff"
                    },
                    {
                        "current": "0x000000000000000000000000000000000000000000000050c04efaecd5d08db7",
                        "key": "0x000000000000000000000000000000000000000000000000000000000000000c",
                        "prev": "0x00000000000000000000000000000000000000000000004ff024466606f48db7"
                    }
                ],
                "storageVariables": [
                    {
                        "name": "_guardCounter",
                        "type": "uint256",
                        "value": {
                            "current": "111357",
                            "prev": "111356",
                            "typeTag": 1
                        }
                    },
                    {
                        "name": "accountBorrows",
                        "type": "mapping(address => struct CToken.BorrowSnapshot)",
                        "value": {
                            "pairs": [
                                {
                                    "key": "0x792d7c4974bd7ad17258881d71ac1ed21767a2b6",
                                    "value": {
                                        "fields": [
                                            {
                                                "name": "principal",
                                                "type": "uint256",
                                                "value": {
                                                    "current": "15000000000000000000",
                                                    "prev": "0",
                                                    "typeTag": 1
                                                }
                                            },
                                            {
                                                "name": "interestIndex",
                                                "type": "uint256",
                                                "value": {
                                                    "current": "1029016573600670798",
                                                    "prev": "1028810456402851583",
                                                    "typeTag": 1
                                                }
                                            }
                                        ],
                                        "typeTag": 3
                                    }
                                }
                            ],
                            "typeTag": 4
                        }
                    },
                    {
                        "name": "totalBorrows",
                        "type": "uint256",
                        "value": {
                            "current": "1489596814895336164791",
                            "prev": "1474596814895336164791",
                            "typeTag": 1
                        }
                    }
                ]
            }
        ]
    }
}