{
    "balance_change": {
        "balanceChanges": [
            {
                "account": "0xe6ec0ff9859220a24553cc31415d322d66c39607",
                "assets": [
                    {
                        "address": "0xeeeeeeeeeeeeeeeeeeeeeeeeeeeeeeeeeeeeeeee",
                        "amount": "0.04690196078431376",
                        "iconUrl": "https://assets.blocksec.com/image/1663669189317-3.png",
                        "isERC1155": false,
                        "isERC721": false,
                        "sign": false,
                        "value": "131.14624242778118929"
                    }
                ]
            },
            {
                "account": "0x4b5057b2c87ec9e7c047fb00c0e406dff2fdacad",
                "assets": [
                    {
                        "address": "0xeeeeeeeeeeeeeeeeeeeeeeeeeeeeeeeeeeeeeeee",
                        "amount": "0.04690196078431376",
                        "iconUrl": "https://assets.blocksec.com/image/1663669189317-3.png",
                        "isERC1155": false,
                        "isERC721": false,
                        "sign": true,
                        "value": "131.14624242778118929"
                    }
                ]
            }
        ]
    },
    "profile": {
        "basic_info": {
            "baseFee": "67.668802482",
            "blockNumber": 14295836,
            "callData": "0xe0b5485900000000000000000000000000000000000000000000000000000000000000000000000000000000000000000000000000000000000000000000000000000000",
            "debugEnable": true,
            "errorInfo": "",
            "eventCount": 8,
            "feeRecipient": "0xea674fdde714fd979de3edf0f56aa9716b898ec8",
            "formatValue": "0.04690196078431376",
            "gasLimit": 332513,
            "gasPrice": "69.168802482",
            "gasUsed": 322817,
            "intTxnCount": 9,
            "internalRevert": false,
            "internalRevertMessage": "",
            "isContractCreation": false,
            "isFlashloan": false,
            "maxFee": "69.93873576",
            "nonce": 142,
            "overwritedBlockNumber": -1,
            "priorityFee": "1.5",
            "receiver": "0xc5622f143972a5da6aabc5f5379311ee5eb48568",
            "revertMessage": "",
            "sender": "0xe6ec0ff9859220a24553cc31415d322d66c39607",
            "simulationEnable": true,
            "sourceTxnHash": "0x23f0460dbaaed80053a69c90ca90174143f146a87b22ea541dc6910914d3b9f4",
            "status": true,
            "timestamp": "2022-02-28T16:55:23Z",
            "transactionFee": "0.022328865310831794",
            "txnHash": "0x23f0460dbaaed80053a69c90ca90174143f146a87b22ea541dc6910914d3b9f4",
            "txnIndex": 264,
            "type": 2,
            "value": "46901960784313760"
        },
        "fund_flow": [
            {
                "amount": "0.04690196078431376",
                "from": "0xe6ec0ff9859220a24553cc31415d322d66c39607",
                "id": 1,
                "isERC1155": false,
                "isERC721": false,
                "isReverted": false,
                "order": 1,
                "to": "0xc5622f143972a5da6aabc5f5379311ee5eb48568",
                "token": "0xeeeeeeeeeeeeeeeeeeeeeeeeeeeeeeeeeeeeeeee"
            },
            {
                "amount": "0.04690196078431376",
                "from": "0xc5622f143972a5da6aabc5f5379311ee5eb48568",
                "id": 2,
                "isERC1155": false,
                "isERC721": false,
                "isReverted": false,
                "order": 2,
                "to": "0x4b5057b2c87ec9e7c047fb00c0e406dff2fdacad",
                "token": "0xeeeeeeeeeeeeeeeeeeeeeeeeeeeeeeeeeeeeeeee"
            }
        ],
        "token_infos": [
            {
                "address": "0xc02aaa39b223fe8d0a0e5c4f27ead9083c756cc2",
                "decimals": 18
            },
            {
                "address": "0xeeeeeeeeeeeeeeeeeeeeeeeeeeeeeeeeeeeeeeee",
                "decimals": 18
            }
        ]
    },
    "address_label": {
        "labels": [
            {
                "address": "0xeeeeeeeeeeeeeeeeeeeeeeeeeeeeeeeeeeeeeeee",
                "label": "Ether"
            },
            {
                "address": "0xc5622f143972a5da6aabc5f5379311ee5eb48568",
                "label": "StrongBlock: Node Rewards"
            },
            {
                "address": "0x6edc2904d1079d4f49fffcdc14bf2e9aa6a02f5e",
                "label": "MultiNodeV1"
            },
            {
                "address": "0x0000000000000000000000000000000000000001",
                "label": "Precompiled"
            },
            {
                "address": "0x0000000000000000000000000000000000000002",
                "label": "Precompiled"
            },
            {
                "address": "0x0000000000000000000000000000000000000003",
                "label": "Precompiled"
            },
            {
                "address": "0x0000000000000000000000000000000000000004",
                "label": "Precompiled"
            }
        ]
    },
    "trace": {
        "accountLabels": null,
        "dataMap": {
            "-1": {
                "invocation": {
                    "address": "0xe6ec0ff9859220a24553cc31415d322d66c39607",
                    "callData": "",
                    "decodedMethod": null,
                    "errorInfo": "",
                    "fromAddress": "",
                    "gasUsed": 0,
                    "id": -1,
                    "methodDecoded": false,
                    "operation": "",
                    "output": "",
                    "revert": false,
                    "revertMessage": "",
                    "selector": "",
                    "status": false,
                    "value": ""
                },
                "nodeType": 0
            },
            "0": {
                "invocation": {
                    "address": "0xc5622f143972a5da6aabc5f5379311ee5eb48568",
                    "callData": "0x00000000000000000000000000000000000000000000000000000000000000000000000000000000000000000000000000000000000000000000000000000000",
                    "decodedMethod": {
                        "callParams": [
                            {
                                "name": "_fromNode",
                                "type": "uint256",
                                "value": "0"
                            },
                            {
                                "name": "_toNode",
                                "type": "uint256",
                                "value": "0"
                            }
                        ],
                        "constructorArguments": "",
                        "name": "payAll",
                        "returnParams": [],
                        "signature": "payAll(uint256,uint256)"
                    },
                    "errorInfo": "",
                    "fromAddress": "0xe6ec0ff9859220a24553cc31415d322d66c39607",
                    "gasUsed": 322817,
                    "id": 0,
                    "methodDecoded": true,
                    "operation": "CALL",
                    "output": "",
                    "revert": false,
                    "revertMessage": "",
                    "selector": "0xe0b54859",
                    "status": true,
                    "value": "0.04690196078431376"
                },
                "nodeType": 0
            },
            "1": {
                "invocation": {
                    "address": "0x6edc2904d1079d4f49fffcdc14bf2e9aa6a02f5e",
                    "callData": "0x00000000000000000000000000000000000000000000000000000000000000000000000000000000000000000000000000000000000000000000000000000000",
                    "decodedMethod": {
                        "callParams": [
                            {
                                "name": "_fromNode",
                                "type": "uint256",
                                "value": "0"
                            },
                            {
                                "name": "_toNode",
                                "type": "uint256",
                                "value": "0"
                            }
                        ],
                        "constructorArguments": "",
                        "name": "payAll",
                        "returnParams": [],
                        "signature": "payAll(uint256,uint256)"
                    },
                    "errorInfo": "",
                    "fromAddress": "0xc5622f143972a5da6aabc5f5379311ee5eb48568",
                    "gasUsed": 296966,
                    "id": 1,
                    "methodDecoded": true,
                    "operation": "DELEGATECALL",
                    "output": "",
                    "revert": false,
                    "revertMessage": "",
                    "selector": "0xe0b54859",
                    "status": true,
                    "value": "0.04690196078431376"
                },
                "nodeType": 0
            },
            "10": {
                "event": {
                    "contract": "0xc5622f143972a5da6aabc5f5379311ee5eb48568",
                    "decodedLog": {
                        "name": "Paid",
                        "params": [
                            {
                                "name": "entity",
                                "type": "address",
                                "value": "0xe6ec0ff9859220a24553cc31415d322d66c39607"
                            },
                            {
                                "name": "nodeType",
                                "type": "uint256",
                                "value": "2"
                            },
                            {
                                "name": "nodeId",
                                "type": "uint256",
                                "value": "5"
                            },
                            {
                                "name": "timestamp",
                                "type": "uint256",
                                "value": "1,650,064,529"
                            }
                        ],
                        "signature": "Paid(address,uint256,uint256,uint256)"
                    },
                    "id": 10,
                    "logData": "0x00000000000000000000000000000000000000000000000000000000000000020000000000000000000000000000000000000000000000000000000000000005000000000000000000000000000000000000000000000000000000006259fc91",
                    "logDecoded": true,
                    "operation": "EVENT",
                    "revert": false,
                    "status": true,
                    "topics": [
                        "0x1ff60751a354563b8db02f735046d6cecdd1ec33b27b453a7925da806b529adb",
                        "0x000000000000000000000000e6ec0ff9859220a24553cc31415d322d66c39607"
                    ]
                },
                "nodeType": 1
            },
            "11": {
                "invocation": {
                    "address": "0x4b5057b2c87ec9e7c047fb00c0e406dff2fdacad",
                    "callData": "0x",
                    "decodedMethod": null,
                    "errorInfo": "",
                    "fromAddress": "0xc5622f143972a5da6aabc5f5379311ee5eb48568",
                    "gasUsed": 0,
                    "id": 11,
                    "methodDecoded": false,
                    "operation": "CALL",
                    "output": "",
                    "revert": false,
                    "revertMessage": "",
                    "selector": "fallback",
                    "status": true,
                    "value": "0.00586274509803922"
                },
                "nodeType": 0
            },
            "12": {
                "event": {
                    "contract": "0xc5622f143972a5da6aabc5f5379311ee5eb48568",
                    "decodedLog": {
                        "name": "Paid",
                        "params": [
                            {
                                "name": "entity",
                                "type": "address",
                                "value": "0xe6ec0ff9859220a24553cc31415d322d66c39607"
                            },
                            {
                                "name": "nodeType",
                                "type": "uint256",
                                "value": "2"
                            },
                            {
                                "name": "nodeId",
                                "type": "uint256",
                                "value": "6"
                            },
                            {
                                "name": "timestamp",
                                "type": "uint256",
                                "value": "1,650,187,348"
                            }
                        ],
                        "signature": "Paid(address,uint256,uint256,uint256)"
                    },
                    "id": 12,
                    "logData": "0x0000000000000000000000000000000000000000000000000000000000000002000000000000000000000000000000000000000000000000000000000000000600000000000000000000000000000000000000000000000000000000625bdc54",
                    "logDecoded": true,
                    "operation": "EVENT",
                    "revert": false,
                    "status": true,
                    "topics": [
                        "0x1ff60751a354563b8db02f735046d6cecdd1ec33b27b453a7925da806b529adb",
                        "0x000000000000000000000000e6ec0ff9859220a24553cc31415d322d66c39607"
                    ]
                },
                "nodeType": 1
            },
            "13": {
                "invocation": {
                    "address": "0x4b5057b2c87ec9e7c047fb00c0e406dff2fdacad",
                    "callData": "0x",
                    "decodedMethod": null,
                    "errorInfo": "",
                    "fromAddress": "0xc5622f143972a5da6aabc5f5379311ee5eb48568",
                    "gasUsed": 0,
                    "id": 13,
                    "methodDecoded": false,
                    "operation": "CALL",
                    "output": "",
                    "revert": false,
                    "revertMessage": "",
                    "selector": "fallback",
                    "status": true,
                    "value": "0.00586274509803922"
                },
                "nodeType": 0
            },
            "14": {
                "event": {
                    "contract": "0xc5622f143972a5da6aabc5f5379311ee5eb48568",
                    "decodedLog": {
                        "name": "Paid",
                        "params": [
                            {
                                "name": "entity",
                                "type": "address",
                                "value": "0xe6ec0ff9859220a24553cc31415d322d66c39607"
                            },
                            {
                                "name": "nodeType",
                                "type": "uint256",
                                "value": "2"
                            },
                            {
                                "name": "nodeId",
                                "type": "uint256",
                                "value": "7"
                            },
                            {
                                "name": "timestamp",
                                "type": "uint256",
                                "value": "1,647,868,583"
                            }
                        ],
                        "signature": "Paid(address,uint256,uint256,uint256)"
                    },
                    "id": 14,
                    "logData": "0x000000000000000000000000000000000000000000000000000000000000000200000000000000000000000000000000000000000000000000000000000000070000000000000000000000000000000000000000000000000000000062387aa7",
                    "logDecoded": true,
                    "operation": "EVENT",
                    "revert": false,
                    "status": true,
                    "topics": [
                        "0x1ff60751a354563b8db02f735046d6cecdd1ec33b27b453a7925da806b529adb",
                        "0x000000000000000000000000e6ec0ff9859220a24553cc31415d322d66c39607"
                    ]
                },
                "nodeType": 1
            },
            "15": {
                "invocation": {
                    "address": "0x4b5057b2c87ec9e7c047fb00c0e406dff2fdacad",
                    "callData": "0x",
                    "decodedMethod": null,
                    "errorInfo": "",
                    "fromAddress": "0xc5622f143972a5da6aabc5f5379311ee5eb48568",
                    "gasUsed": 0,
                    "id": 15,
                    "methodDecoded": false,
                    "operation": "CALL",
                    "output": "",
                    "revert": false,
                    "revertMessage": "",
                    "selector": "fallback",
                    "status": true,
                    "value": "0.00586274509803922"
                },
                "nodeType": 0
            },
            "16": {
                "event": {
                    "contract": "0xc5622f143972a5da6aabc5f5379311ee5eb48568",
                    "decodedLog": {
                        "name": "Paid",
                        "params": [
                            {
                                "name": "entity",
                                "type": "address",
                                "value": "0xe6ec0ff9859220a24553cc31415d322d66c39607"
                            },
                            {
                                "name": "nodeType",
                                "type": "uint256",
                                "value": "2"
                            },
                            {
                                "name": "nodeId",
                                "type": "uint256",
                                "value": "8"
                            },
                            {
                                "name": "timestamp",
                                "type": "uint256",
                                "value": "1,648,556,671"
                            }
                        ],
                        "signature": "Paid(address,uint256,uint256,uint256)"
                    },
                    "id": 16,
                    "logData": "0x00000000000000000000000000000000000000000000000000000000000000020000000000000000000000000000000000000000000000000000000000000008000000000000000000000000000000000000000000000000000000006242fa7f",
                    "logDecoded": true,
                    "operation": "EVENT",
                    "revert": false,
                    "status": true,
                    "topics": [
                        "0x1ff60751a354563b8db02f735046d6cecdd1ec33b27b453a7925da806b529adb",
                        "0x000000000000000000000000e6ec0ff9859220a24553cc31415d322d66c39607"
                    ]
                },
                "nodeType": 1
            },
            "17": {
                "invocation": {
                    "address": "0x4b5057b2c87ec9e7c047fb00c0e406dff2fdacad",
                    "callData": "0x",
                    "decodedMethod": null,
                    "errorInfo": "",
                    "fromAddress": "0xc5622f143972a5da6aabc5f5379311ee5eb48568",
                    "gasUsed": 0,
                    "id": 17,
                    "methodDecoded": false,
                    "operation": "CALL",
                    "output": "",
                    "revert": false,
                    "revertMessage": "",
                    "selector": "fallback",
                    "status": true,
                    "value": "0.00586274509803922"
                },
                "nodeType": 0
            },
            "2": {
                "event": {
                    "contract": "0xc5622f143972a5da6aabc5f5379311ee5eb48568",
                    "decodedLog": {
                        "name": "Paid",
                        "params": [
                            {
                                "name": "entity",
                                "type": "address",
                                "value": "0xe6ec0ff9859220a24553cc31415d322d66c39607"
                            },
                            {
                                "name": "nodeType",
                                "type": "uint256",
                                "value": "2"
                            },
                            {
                                "name": "nodeId",
                                "type": "uint256",
                                "value": "1"
                            },
                            {
                                "name": "timestamp",
                                "type": "uint256",
                                "value": "1,650,706,632"
                            }
                        ],
                        "signature": "Paid(address,uint256,uint256,uint256)"
                    },
                    "id": 2,
                    "logData": "0x00000000000000000000000000000000000000000000000000000000000000020000000000000000000000000000000000000000000000000000000000000001000000000000000000000000000000000000000000000000000000006263c8c8",
                    "logDecoded": true,
                    "operation": "EVENT",
                    "revert": false,
                    "status": true,
                    "topics": [
                        "0x1ff60751a354563b8db02f735046d6cecdd1ec33b27b453a7925da806b529adb",
                        "0x000000000000000000000000e6ec0ff9859220a24553cc31415d322d66c39607"
                    ]
                },
                "nodeType": 1
            },
            "3": {
                "invocation": {
                    "address": "0x4b5057b2c87ec9e7c047fb00c0e406dff2fdacad",
                    "callData": "0x",
                    "decodedMethod": null,
                    "errorInfo": "",
                    "fromAddress": "0xc5622f143972a5da6aabc5f5379311ee5eb48568",
                    "gasUsed": 0,
                    "id": 3,
                    "methodDecoded": false,
                    "operation": "CALL",
                    "output": "",
                    "revert": false,
                    "revertMessage": "",
                    "selector": "fallback",
                    "status": true,
                    "value": "0.00586274509803922"
                },
                "nodeType": 0
            },
            "4": {
                "event": {
                    "contract": "0xc5622f143972a5da6aabc5f5379311ee5eb48568",
                    "decodedLog": {
                        "name": "Paid",
                        "params": [
                            {
                                "name": "entity",
                                "type": "address",
                                "value": "0xe6ec0ff9859220a24553cc31415d322d66c39607"
                            },
                            {
                                "name": "nodeType",
                                "type": "uint256",
                                "value": "2"
                            },
                            {
                                "name": "nodeId",
                                "type": "uint256",
                                "value": "2"
                            },
                            {
                                "name": "timestamp",
                                "type": "uint256",
                                "value": "1,649,118,436"
                            }
                        ],
                        "signature": "Paid(address,uint256,uint256,uint256)"
                    },
                    "id": 4,
                    "logData": "0x0000000000000000000000000000000000000000000000000000000000000002000000000000000000000000000000000000000000000000000000000000000200000000000000000000000000000000000000000000000000000000624b8ce4",
                    "logDecoded": true,
                    "operation": "EVENT",
                    "revert": false,
                    "status": true,
                    "topics": [
                        "0x1ff60751a354563b8db02f735046d6cecdd1ec33b27b453a7925da806b529adb",
                        "0x000000000000000000000000e6ec0ff9859220a24553cc31415d322d66c39607"
                    ]
                },
                "nodeType": 1
            },
            "5": {
                "invocation": {
                    "address": "0x4b5057b2c87ec9e7c047fb00c0e406dff2fdacad",
                    "callData": "0x",
                    "decodedMethod": null,
                    "errorInfo": "",
                    "fromAddress": "0xc5622f143972a5da6aabc5f5379311ee5eb48568",
                    "gasUsed": 0,
                    "id": 5,
                    "methodDecoded": false,
                    "operation": "CALL",
                    "output": "",
                    "revert": false,
                    "revertMessage": "",
                    "selector": "fallback",
                    "status": true,
                    "value": "0.00586274509803922"
                },
                "nodeType": 0
            },
            "6": {
                "event": {
                    "contract": "0xc5622f143972a5da6aabc5f5379311ee5eb48568",
                    "decodedLog": {
                        "name": "Paid",
                        "params": [
                            {
                                "name": "entity",
                                "type": "address",
                                "value": "0xe6ec0ff9859220a24553cc31415d322d66c39607"
                            },
                            {
                                "name": "nodeType",
                                "type": "uint256",
                                "value": "2"
                            },
                            {
                                "name": "nodeId",
                                "type": "uint256",
                                "value": "3"
                            },
                            {
                                "name": "timestamp",
                                "type": "uint256",
                                "value": "1,649,194,945"
                            }
                        ],
                        "signature": "Paid(address,uint256,uint256,uint256)"
                    },
                    "id": 6,
                    "logData": "0x0000000000000000000000000000000000000000000000000000000000000002000000000000000000000000000000000000000000000000000000000000000300000000000000000000000000000000000000000000000000000000624cb7c1",
                    "logDecoded": true,
                    "operation": "EVENT",
                    "revert": false,
                    "status": true,
                    "topics": [
                        "0x1ff60751a354563b8db02f735046d6cecdd1ec33b27b453a7925da806b529adb",
                        "0x000000000000000000000000e6ec0ff9859220a24553cc31415d322d66c39607"
                    ]
                },
                "nodeType": 1
            },
            "7": {
                "invocation": {
                    "address": "0x4b5057b2c87ec9e7c047fb00c0e406dff2fdacad",
                    "callData": "0x",
                    "decodedMethod": null,
                    "errorInfo": "",
                    "fromAddress": "0xc5622f143972a5da6aabc5f5379311ee5eb48568",
                    "gasUsed": 0,
                    "id": 7,
                    "methodDecoded": false,
                    "operation": "CALL",
                    "output": "",
                    "revert": false,
                    "revertMessage": "",
                    "selector": "fallback",
                    "status": true,
                    "value": "0.00586274509803922"
                },
                "nodeType": 0
            },
            "8": {
                "event": {
                    "contract": "0xc5622f143972a5da6aabc5f5379311ee5eb48568",
                    "decodedLog": {
                        "name": "Paid",
                        "params": [
                            {
                                "name": "entity",
                                "type": "address",
                                "value": "0xe6ec0ff9859220a24553cc31415d322d66c39607"
                            },
                            {
                                "name": "nodeType",
                                "type": "uint256",
                                "value": "2"
                            },
                            {
                                "name": "nodeId",
                                "type": "uint256",
                                "value": "4"
                            },
                            {
                                "name": "timestamp",
                                "type": "uint256",
                                "value": "1,649,643,219"
                            }
                        ],
                        "signature": "Paid(address,uint256,uint256,uint256)"
                    },
                    "id": 8,
                    "logData": "0x000000000000000000000000000000000000000000000000000000000000000200000000000000000000000000000000000000000000000000000000000000040000000000000000000000000000000000000000000000000000000062538ed3",
                    "logDecoded": true,
                    "operation": "EVENT",
                    "revert": false,
                    "status": true,
                    "topics": [
                        "0x1ff60751a354563b8db02f735046d6cecdd1ec33b27b453a7925da806b529adb",
                        "0x000000000000000000000000e6ec0ff9859220a24553cc31415d322d66c39607"
                    ]
                },
                "nodeType": 1
            },
            "9": {
                "invocation": {
                    "address": "0x4b5057b2c87ec9e7c047fb00c0e406dff2fdacad",
                    "callData": "0x",
                    "decodedMethod": null,
                    "errorInfo": "",
                    "fromAddress": "0xc5622f143972a5da6aabc5f5379311ee5eb48568",
                    "gasUsed": 0,
                    "id": 9,
                    "methodDecoded": false,
                    "operation": "CALL",
                    "output": "",
                    "revert": false,
                    "revertMessage": "",
                    "selector": "fallback",
                    "status": true,
                    "value": "0.00586274509803922"
                },
                "nodeType": 0
            }
        },
        "gasFlame": [
            {
                "children": [
                    {
                        "children": [
                            {
                                "children": [],
                                "depth": 0,
                                "name": "Initial Gas",
                                "value": 21320
                            },
                            {
                                "children": [
                                    {
                                        "children": [
                                            {
                                                "children": [],
                                                "depth": 2,
                                                "name": "fallback",
                                                "value": 0
                                            },
                                            {
                                                "children": [],
                                                "depth": 2,
                                                "name": "fallback",
                                                "value": 0
                                            },
                                            {
                                                "children": [],
                                                "depth": 2,
                                                "name": "fallback",
                                                "value": 0
                                            },
                                            {
                                                "children": [],
                                                "depth": 2,
                                                "name": "fallback",
                                                "value": 0
                                            },
                                            {
                                                "children": [],
                                                "depth": 2,
                                                "name": "fallback",
                                                "value": 0
                                            },
                                            {
                                                "children": [],
                                                "depth": 2,
                                                "name": "fallback",
                                                "value": 0
                                            },
                                            {
                                                "children": [],
                                                "depth": 2,
                                                "name": "fallback",
                                                "value": 0
                                            },
                                            {
                                                "children": [],
                                                "depth": 2,
                                                "name": "fallback",
                                                "value": 0
                                            }
                                        ],
                                        "depth": 1,
                                        "name": "payAll",
                                        "value": 296966
                                    }
                                ],
                                "depth": 0,
                                "name": "Executed Gas",
                                "value": 304297
                            }
                        ],
                        "depth": -1,
                        "name": "Actual Gas Used",
                        "value": 322817
                    },
                    {
                        "children": [],
                        "depth": -1,
                        "name": "Refunded Gas",
                        "value": 2800
                    }
                ],
                "depth": -2,
                "name": "Total Gas",
                "value": 325617
            }
        ],
        "isConfirmed": true,
        "mainTrace": [
            {
                "children": [
                    {
                        "children": [
                            {
                                "children": [
                                    {
                                        "children": [],
                                        "depth": 2,
                                        "id": 2,
                                        "order": 2
                                    },
                                    {
                                        "children": [],
                                        "depth": 2,
                                        "id": 3,
                                        "order": 3
                                    },
                                    {
                                        "children": [],
                                        "depth": 2,
                                        "id": 4,
                                        "order": 4
                                    },
                                    {
                                        "children": [],
                                        "depth": 2,
                                        "id": 5,
                                        "order": 5
                                    },
                                    {
                                        "children": [],
                                        "depth": 2,
                                        "id": 6,
                                        "order": 6
                                    },
                                    {
                                        "children": [],
                                        "depth": 2,
                                        "id": 7,
                                        "order": 7
                                    },
                                    {
                                        "children": [],
                                        "depth": 2,
                                        "id": 8,
                                        "order": 8
                                    },
                                    {
                                        "children": [],
                                        "depth": 2,
                                        "id": 9,
                                        "order": 9
                                    },
                                    {
                                        "children": [],
                                        "depth": 2,
                                        "id": 10,
                                        "order": 10
                                    },
                                    {
                                        "children": [],
                                        "depth": 2,
                                        "id": 11,
                                        "order": 11
                                    },
                                    {
                                        "children": [],
                                        "depth": 2,
                                        "id": 12,
                                        "order": 12
                                    },
                                    {
                                        "children": [],
                                        "depth": 2,
                                        "id": 13,
                                        "order": 13
                                    },
                                    {
                                        "children": [],
                                        "depth": 2,
                                        "id": 14,
                                        "order": 14
                                    },
                                    {
                                        "children": [],
                                        "depth": 2,
                                        "id": 15,
                                        "order": 15
                                    },
                                    {
                                        "children": [],
                                        "depth": 2,
                                        "id": 16,
                                        "order": 16
                                    },
                                    {
                                        "children": [],
                                        "depth": 2,
                                        "id": 17,
                                        "order": 17
                                    }
                                ],
                                "depth": 1,
                                "id": 1,
                                "order": 1
                            }
                        ],
                        "depth": 0,
                        "id": 0,
                        "order": 0
                    }
                ],
                "depth": -1,
                "id": -1,
                "order": -1
            }
        ],
        "mainTraceNodeCount": 18,
        "parentIdMap": {
            "0": -1,
            "1": 0,
            "10": 1,
            "11": 1,
            "12": 1,
            "13": 1,
            "14": 1,
            "15": 1,
            "16": 1,
            "17": 1,
            "2": 1,
            "3": 1,
            "4": 1,
            "5": 1,
            "6": 1,
            "7": 1,
            "8": 1,
            "9": 1
        },
        "tidyTrace": [
            {
                "children": [
                    {
                        "children": [
                            {
                                "children": [
                                    {
                                        "children": [],
                                        "depth": 2,
                                        "id": 2,
                                        "order": 2
                                    },
                                    {
                                        "children": [],
                                        "depth": 2,
                                        "id": 3,
                                        "order": 3
                                    },
                                    {
                                        "children": [],
                                        "depth": 2,
                                        "id": 4,
                                        "order": 4
                                    },
                                    {
                                        "children": [],
                                        "depth": 2,
                                        "id": 5,
                                        "order": 5
                                    },
                                    {
                                        "children": [],
                                        "depth": 2,
                                        "id": 6,
                                        "order": 6
                                    },
                                    {
                                        "children": [],
                                        "depth": 2,
                                        "id": 7,
                                        "order": 7
                                    },
                                    {
                                        "children": [],
                                        "depth": 2,
                                        "id": 8,
                                        "order": 8
                                    },
                                    {
                                        "children": [],
                                        "depth": 2,
                                        "id": 9,
                                        "order": 9
                                    },
                                    {
                                        "children": [],
                                        "depth": 2,
                                        "id": 10,
                                        "order": 10
                                    },
                                    {
                                        "children": [],
                                        "depth": 2,
                                        "id": 11,
                                        "order": 11
                                    },
                                    {
                                        "children": [],
                                        "depth": 2,
                                        "id": 12,
                                        "order": 12
                                    },
                                    {
                                        "children": [],
                                        "depth": 2,
                                        "id": 13,
                                        "order": 13
                                    },
                                    {
                                        "children": [],
                                        "depth": 2,
                                        "id": 14,
                                        "order": 14
                                    },
                                    {
                                        "children": [],
                                        "depth": 2,
                                        "id": 15,
                                        "order": 15
                                    },
                                    {
                                        "children": [],
                                        "depth": 2,
                                        "id": 16,
                                        "order": 16
                                    },
                                    {
                                        "children": [],
                                        "depth": 2,
                                        "id": 17,
                                        "order": 17
                                    }
                                ],
                                "depth": 1,
                                "id": 1,
                                "order": 1
                            }
                        ],
                        "depth": 0,
                        "id": 0,
                        "order": 0
                    }
                ],
                "depth": -1,
                "id": -1,
                "order": -1
            }
        ],
        "tidyTraceNodeCount": 18
    },
    "state_change": {
        "stateChanges": [
            {
                "address": "0xc5622f143972a5da6aabc5f5379311ee5eb48568",
                "erc": "",
                "slots": [
                    {
                        "current": "0x000000000000000000000000000000000000000000000000000000006242fa7f",
                        "key": "0x05aecdd1ca1c29eb3f497b352d965d6892cee9f7b4b600d2388a791db664e67b",
                        "prev": "0x00000000000000000000000000000000000000000000000000000000621ae0df"
                    },
                    {
                        "current": "0x000000000000000000000000000000000000000000000000000000006263c8c8",
                        "key": "0x40141056d6fa9d9e1c031a9a9ebd2d70441250936b9e88f587077dd14fc7f7ee",
                        "prev": "0x00000000000000000000000000000000000000000000000000000000623baf28"
                    },
                    {
                        "current": "0x00000000000000000000000000000000000000000000000000000000624cb7c1",
                        "key": "0x23706b775aebfcc8704ed6bb96bfbadfb131a8c6f9d45e930275a00404cd482e",
                        "prev": "0x0000000000000000000000000000000000000000000000000000000062249e21"
                    },
                    {
                        "current": "0x0000000000000000000000000000000000000000000000000000000062538ed3",
                        "key": "0x20080262c20cecbb7e9b940779e04ea2d8483e345b85cec10e393414e28f7c78",
                        "prev": "0x00000000000000000000000000000000000000000000000000000000622b7533"
                    },
                    {
                        "current": "0x000000000000000000000000000000000000000000000000000000006259fc91",
                        "key": "0xed020b2162d73dcc64c6de9378593dbed48058edf1e662cb4d049c626eaf1ec4",
                        "prev": "0x000000000000000000000000000000000000000000000000000000006231e2f1"
                    },
                    {
                        "current": "0x0000000000000000000000000000000000000000000000000000000062387aa7",
                        "key": "0xc925fa951bbb83628cc999c4aa9ec737f647aca0ea36abe966e56b1aa13d9487",
                        "prev": "0x0000000000000000000000000000000000000000000000000000000062106107"
                    },
                    {
                        "current": "0x00000000000000000000000000000000000000000000000000000000624b8ce4",
                        "key": "0x13f34a67b0c83048bbf83bb7df4afa23d8af9e4a7311cf607153fb9c923bca39",
                        "prev": "0x0000000000000000000000000000000000000000000000000000000062237344"
                    },
                    {
                        "current": "0x00000000000000000000000000000000000000000000000000000000625bdc54",
                        "key": "0xde7d3d453590bdceb72c97d331e1a0cc87dbf14d5d5df467580804d414f7ef9d",
                        "prev": "0x000000000000000000000000000000000000000000000000000000006233c2b4"
                    }
                ],
                "storageVariables": [
                    {
                        "name": "entityNodeLastPaidAt",
                        "type": "mapping(bytes => uint256)",
                        "value": {
                            "pairs": [
                                {
                                    "key": "0xe6ec0ff9859220a24553cc31415d322d66c396070000000000000000000000000000000000000000000000000000000000000001",
                                    "value": {
                                        "current": "1650706632",
                                        "prev": "1648078632",
                                        "typeTag": 1
                                    }
                                },
                                {
                                    "key": "0xe6ec0ff9859220a24553cc31415d322d66c396070000000000000000000000000000000000000000000000000000000000000002",
                                    "value": {
                                        "current": "1649118436",
                                        "prev": "1646490436",
                                        "typeTag": 1
                                    }
                                },
                                {
                                    "key": "0xe6ec0ff9859220a24553cc31415d322d66c396070000000000000000000000000000000000000000000000000000000000000003",
                                    "value": {
                                        "current": "1649194945",
                                        "prev": "1646566945",
                                        "typeTag": 1
                                    }
                                },
                                {
                                    "key": "0xe6ec0ff9859220a24553cc31415d322d66c396070000000000000000000000000000000000000000000000000000000000000004",
                                    "value": {
                                        "current": "1649643219",
                                        "prev": "1647015219",
                                        "typeTag": 1
                                    }
                                },
                                {
                                    "key": "0xe6ec0ff9859220a24553cc31415d322d66c396070000000000000000000000000000000000000000000000000000000000000005",
                                    "value": {
                                        "current": "1650064529",
                                        "prev": "1647436529",
                                        "typeTag": 1
                                    }
                                },
                                {
                                    "key": "0xe6ec0ff9859220a24553cc31415d322d66c396070000000000000000000000000000000000000000000000000000000000000006",
                                    "value": {
                                        "current": "1650187348",
                                        "prev": "1647559348",
                                        "typeTag": 1
                                    }
                                },
                                {
                                    "key": "0xe6ec0ff9859220a24553cc31415d322d66c396070000000000000000000000000000000000000000000000000000000000000007",
                                    "value": {
                                        "current": "1647868583",
                                        "prev": "1645240583",
                                        "typeTag": 1
                                    }
                                },
                                {
                                    "key": "0xe6ec0ff9859220a24553cc31415d322d66c396070000000000000000000000000000000000000000000000000000000000000008",
                                    "value": {
                                        "current": "1648556671",
                                        "prev": "1645928671",
                                        "typeTag": 1
                                    }
                                }
                            ],
                            "typeTag": 4
                        }
                    }
                ]
            }
        ]
    }
}