{
    "balance_change": {
        "balanceChanges": [
            {
                "account": "0x6dbe09a3355f39027e938a3c2f693b2cc6c8ba70",
                "assets": [
                    {
                        "address": "0xa6714a2e5f0b1bdb97b895b0913b4fcd3a775e4d",
                        "amount": "170",
                        "iconUrl": "https://assets.blocksec.com/icon/2003e98f634d8ce86e89f8011c566cf08264f3509f82fdf696768eb5fed1af2b.png",
                        "isERC1155": false,
                        "isERC721": false,
                        "sign": false,
                        "value": ""
                    }
                ]
            },
            {
                "account": "0xcee03e4d1a7a8f1a41855bd90e23d2f07835de1c",
                "assets": [
                    {
                        "address": "0xa6714a2e5f0b1bdb97b895b0913b4fcd3a775e4d",
                        "amount": "170",
                        "iconUrl": "https://assets.blocksec.com/icon/2003e98f634d8ce86e89f8011c566cf08264f3509f82fdf696768eb5fed1af2b.png",
                        "isERC1155": false,
                        "isERC721": false,
                        "sign": true,
                        "value": ""
                    }
                ]
            }
        ]
    },
    "profile": {
        "basic_info": {
            "baseFee": "",
            "blockNumber": 5625703,
            "callData": "0xa9059cbb000000000000000000000000cee03e4d1a7a8f1a41855bd90e23d2f07835de1c0000000000000000000000000000000000000000000000000000000001036640",
            "debugEnable": true,
            "errorInfo": "",
            "eventCount": 1,
            "feeRecipient": "0xea674fdde714fd979de3edf0f56aa9716b898ec8",
            "formatValue": "0",
            "gasLimit": 60000,
            "gasPrice": "7.1",
            "gasUsed": 22030,
            "intTxnCount": 0,
            "internalRevert": false,
            "internalRevertMessage": "",
            "isContractCreation": false,
            "isFlashloan": false,
            "maxFee": "",
            "nonce": 0,
            "overwritedBlockNumber": -1,
            "priorityFee": "",
            "receiver": "0xa6714a2e5f0b1bdb97b895b0913b4fcd3a775e4d",
            "revertMessage": "",
            "sender": "0x6dbe09a3355f39027e938a3c2f693b2cc6c8ba70",
            "simulationEnable": true,
            "sourceTxnHash": "0x243dee7ab001ba96cebcc986ab0c92b18a234da1ca0694bd7689d81a82fbc056",
            "status": true,
            "timestamp": "2018-05-16T21:36:17Z",
            "transactionFee": "0.000156413",
            "txnHash": "0x243dee7ab001ba96cebcc986ab0c92b18a234da1ca0694bd7689d81a82fbc056",
            "txnIndex": 45,
            "type": 0,
            "value": "0"
        },
        "fund_flow": [
            {
                "amount": "170",
                "from": "0x6dbe09a3355f39027e938a3c2f693b2cc6c8ba70",
                "id": 1,
                "isERC1155": false,
                "isERC721": false,
                "isReverted": false,
                "order": 1,
                "to": "0xcee03e4d1a7a8f1a41855bd90e23d2f07835de1c",
                "token": "0xa6714a2e5f0b1bdb97b895b0913b4fcd3a775e4d"
            }
        ],
        "token_infos": [
            {
                "address": "0xa6714a2e5f0b1bdb97b895b0913b4fcd3a775e4d",
                "decimals": 5
            },
            {
                "address": "0xc02aaa39b223fe8d0a0e5c4f27ead9083c756cc2",
                "decimals": 18
            },
            {
                "address": "0xeeeeeeeeeeeeeeeeeeeeeeeeeeeeeeeeeeeeeeee",
                "decimals": 18
            }
        ]
    },
    "address_label": {
        "labels": [
            {
                "address": "0xa6714a2e5f0b1bdb97b895b0913b4fcd3a775e4d",
                "label": "PromotionCoin (PC)"
            },
            {
                "address": "0x0000000000000000000000000000000000000001",
                "label": "Precompiled"
            },
            {
                "address": "0x0000000000000000000000000000000000000002",
                "label": "Precompiled"
            },
            {
                "address": "0x0000000000000000000000000000000000000003",
                "label": "Precompiled"
            },
            {
                "address": "0x0000000000000000000000000000000000000004",
                "label": "Precompiled"
            },
            {
                "address": "0xeeeeeeeeeeeeeeeeeeeeeeeeeeeeeeeeeeeeeeee",
                "label": "Ether"
            }
        ]
    },
    "trace": {
        "accountLabels": null,
        "dataMap": {
            "-1": {
                "invocation": {
                    "address": "0x6dbe09a3355f39027e938a3c2f693b2cc6c8ba70",
                    "callData": "",
                    "decodedMethod": null,
                    "errorInfo": "",
                    "fromAddress": "",
                    "gasUsed": 0,
                    "id": -1,
                    "methodDecoded": false,
                    "operation": "",
                    "output": "",
                    "revert": false,
                    "revertMessage": "",
                    "selector": "",
                    "status": false,
                    "value": ""
                },
                "nodeType": 0
            },
            "0": {
                "invocation": {
                    "address": "0xa6714a2e5f0b1bdb97b895b0913b4fcd3a775e4d",
                    "callData": "0x000000000000000000000000cee03e4d1a7a8f1a41855bd90e23d2f07835de1c0000000000000000000000000000000000000000000000000000000001036640",
                    "decodedMethod": {
                        "callParams": [
                            {
                                "name": "_to",
                                "type": "address",
                                "value": "0xcee03e4d1a7a8f1a41855bd90e23d2f07835de1c"
                            },
                            {
                                "decimalAvailable": true,
                                "name": "_value",
                                "type": "uint256",
                                "value": "17,000,000"
                            }
                        ],
                        "constructorArguments": "",
                        "name": "transfer",
                        "returnParams": [
                            {
                                "name": "",
                                "type": "bool",
                                "value": false
                            }
                        ],
                        "signature": "transfer(address,uint256)"
                    },
                    "errorInfo": "",
                    "fromAddress": "0x6dbe09a3355f39027e938a3c2f693b2cc6c8ba70",
                    "gasUsed": 22030,
                    "id": 0,
                    "methodDecoded": true,
                    "operation": "CALL",
                    "output": "0x0000000000000000000000000000000000000000000000000000000000000000",
                    "revert": false,
                    "revertMessage": "",
                    "selector": "0xa9059cbb",
                    "status": true,
                    "value": "0"
                },
                "nodeType": 0
            },
            "1": {
                "event": {
                    "contract": "0xa6714a2e5f0b1bdb97b895b0913b4fcd3a775e4d",
                    "decodedLog": {
                        "name": "Transfer",
                        "params": [
                            {
                                "name": "from",
                                "type": "address",
                                "value": "0x6dbe09a3355f39027e938a3c2f693b2cc6c8ba70"
                            },
                            {
                                "name": "to",
                                "type": "address",
                                "value": "0xcee03e4d1a7a8f1a41855bd90e23d2f07835de1c"
                            },
                            {
                                "decimalAvailable": true,
                                "name": "value",
                                "type": "uint256",
                                "value": "17,000,000"
                            }
                        ],
                        "signature": "Transfer(address,address,uint256)"
                    },
                    "id": 1,
                    "logData": "0x0000000000000000000000000000000000000000000000000000000001036640",
                    "logDecoded": true,
                    "operation": "EVENT",
                    "revert": false,
                    "status": true,
                    "topics": [
                        "0xddf252ad1be2c89b69c2b068fc378daa952ba7f163c4a11628f55a4df523b3ef",
                        "0x0000000000000000000000006dbe09a3355f39027e938a3c2f693b2cc6c8ba70",
                        "0x000000000000000000000000cee03e4d1a7a8f1a41855bd90e23d2f07835de1c"
                    ]
                },
                "nodeType": 1
            }
        },
        "gasFlame": [
            {
                "children": [
                    {
                        "children": [
                            {
                                "children": [],
                                "depth": 0,
                                "name": "Initial Gas",
                                "value": 23064
                            },
                            {
                                "children": [],
                                "depth": 0,
                                "name": "Executed Gas",
                                "value": 13966
                            }
                        ],
                        "depth": -1,
                        "name": "Actual Gas Used",
                        "value": 22030
                    },
                    {
                        "children": [],
                        "depth": -1,
                        "name": "Refunded Gas",
                        "value": 15000
                    }
                ],
                "depth": -2,
                "name": "Total Gas",
                "value": 37030
            }
        ],
        "isConfirmed": true,
        "mainTrace": [
            {
                "children": [
                    {
                        "children": [
                            {
                                "children": [],
                                "depth": 1,
                                "id": 1,
                                "order": 1
                            }
                        ],
                        "depth": 0,
                        "id": 0,
                        "order": 0
                    }
                ],
                "depth": -1,
                "id": -1,
                "order": -1
            }
        ],
        "mainTraceNodeCount": 2,
        "parentIdMap": {
            "0": -1,
            "1": 0
        },
        "tidyTrace": [
            {
                "children": [
                    {
                        "children": [
                            {
                                "children": [],
                                "depth": 1,
                                "id": 1,
                                "order": 1
                            }
                        ],
                        "depth": 0,
                        "id": 0,
                        "order": 0
                    }
                ],
                "depth": -1,
                "id": -1,
                "order": -1
            }
        ],
        "tidyTraceNodeCount": 2
    },
    "state_change": {
        "stateChanges": [
            {
                "address": "0xa6714a2e5f0b1bdb97b895b0913b4fcd3a775e4d",
                "erc": "ERC-20",
                "slots": [
                    {
                        "current": "0x0000000000000000000000000000000000000000000000000000000000000000",
                        "key": "0x919c4f9852864632f3773cc7838f95e346255d2e15347bd70dec11f20d7d53f7",
                        "prev": "0x0000000000000000000000000000000000000000000000000000000001036640"
                    },
                    {
                        "current": "0x0000000000000000000000000000000000000000000000000000000004692680",
                        "key": "0x9ed19740582d0bcdf69b41d8a998a60793dd2ab1dd26495fe7f4a022c57468ca",
                        "prev": "0x000000000000000000000000000000000000000000000000000000000365c040"
                    }
                ],
                "storageVariables": [
                    {
                        "name": "balances",
                        "type": "mapping(address => uint256)",
                        "value": {
                            "pairs": [
                                {
                                    "key": "0x6dbe09a3355f39027e938a3c2f693b2cc6c8ba70",
                                    "value": {
                                        "current": "0",
                                        "prev": "17000000",
                                        "typeTag": 1
                                    }
                                },
                                {
                                    "key": "0xcee03e4d1a7a8f1a41855bd90e23d2f07835de1c",
                                    "value": {
                                        "current": "74000000",
                                        "prev": "57000000",
                                        "typeTag": 1
                                    }
                                }
                            ],
                            "typeTag": 4
                        }
                    }
                ]
            }
        ]
    }
}