{
    "balance_change": {
        "balanceChanges": [
            {
                "account": "0xe766aa312cbe1f99200773dc6a3465d054a4a5c1",
                "assets": [
                    {
                        "address": "0xeeeeeeeeeeeeeeeeeeeeeeeeeeeeeeeeeeeeeeee",
                        "amount": "0.003138748419317967",
                        "iconUrl": "https://assets.blocksec.com/image/1663669189317-3.png",
                        "isERC1155": false,
                        "isERC721": false,
                        "sign": false,
                        "value": "3.729570150120755621"
                    },
                    {
                        "address": "0x57f1887a8bf19b14fc0df6fd9b2acc9af147ea85",
                        "amount": "1",
                        "iconUrl": "https://assets.blocksec.com/nft/icon/nft_be0542b7-4f14-457c-a46f-8a69d57f084c.png",
                        "isERC1155": false,
                        "isERC721": true,
                        "sign": true,
                        "tokenID": "11261819720574241376580926317004811901290400244084354718363279482130993826173",
                        "value": ""
                    }
                ]
            },
            {
                "account": "0x283af0b28c62c092c9727f1ee09c02ca627eb7f5",
                "assets": [
                    {
                        "address": "0xeeeeeeeeeeeeeeeeeeeeeeeeeeeeeeeeeeeeeeee",
                        "amount": "0.003138748419317967",
                        "iconUrl": "https://assets.blocksec.com/image/1663669189317-3.png",
                        "isERC1155": false,
                        "isERC721": false,
                        "sign": true,
                        "value": "3.729570150120755621"
                    }
                ]
            },
            {
                "account": "0x0000000000000000000000000000000000000000",
                "assets": [
                    {
                        "address": "0x57f1887a8bf19b14fc0df6fd9b2acc9af147ea85",
                        "amount": "1",
                        "iconUrl": "https://assets.blocksec.com/nft/icon/nft_be0542b7-4f14-457c-a46f-8a69d57f084c.png",
                        "isERC1155": false,
                        "isERC721": true,
                        "sign": false,
                        "tokenID": "11261819720574241376580926317004811901290400244084354718363279482130993826173",
                        "value": ""
                    }
                ]
            }
        ]
    },
    "profile": {
        "basic_info": {
            "baseFee": "18.945762481",
            "blockNumber": 15179112,
            "callData": "0xf7a1696300000000000000000000000000000000000000000000000000000000000000c0000000000000000000000000e766aa312cbe1f99200773dc6a3465d054a4a5c10000000000000000000000000000000000000000000000000000000001e185584ab610a6a3f0dbc4db8273fe90f48830aad1fccf7c97a1b190486849a6fb23280000000000000000000000004976fb03c32e5b8cfe2b6ccb31c09ba78ebaba41000000000000000000000000e766aa312cbe1f99200773dc6a3465d054a4a5c1000000000000000000000000000000000000000000000000000000000000000870756e6b39363534000000000000000000000000000000000000000000000000",
            "debugEnable": true,
            "errorInfo": "",
            "eventCount": 9,
            "feeRecipient": "0x03e75d7dd38cce2e20ffee35ec914c57780a8e29",
            "formatValue": "0.003452623261249763",
            "gasLimit": 288832,
            "gasPrice": "20.445762481",
            "gasUsed": 258000,
            "intTxnCount": 19,
            "internalRevert": false,
            "internalRevertMessage": "",
            "isContractCreation": false,
            "isFlashloan": false,
            "maxFee": "24.119734387",
            "nonce": 1756,
            "overwritedBlockNumber": -1,
            "priorityFee": "1.5",
            "receiver": "0x283af0b28c62c092c9727f1ee09c02ca627eb7f5",
            "revertMessage": "",
            "sender": "0xe766aa312cbe1f99200773dc6a3465d054a4a5c1",
            "simulationEnable": true,
            "sourceTxnHash": "0x2421f78d8bdf8c01823e86a8c508e5cb9316c614471ab2706e4ec8339b113887",
            "status": true,
            "timestamp": "2022-07-20T11:08:12Z",
            "transactionFee": "0.005275006720098",
            "txnHash": "0x2421f78d8bdf8c01823e86a8c508e5cb9316c614471ab2706e4ec8339b113887",
            "txnIndex": 123,
            "type": 2,
            "value": "3452623261249763"
        },
        "fund_flow": [
            {
                "amount": "0.003452623261249763",
                "from": "0xe766aa312cbe1f99200773dc6a3465d054a4a5c1",
                "id": 1,
                "isERC1155": false,
                "isERC721": false,
                "isReverted": false,
                "order": 1,
                "to": "0x283af0b28c62c092c9727f1ee09c02ca627eb7f5",
                "token": "0xeeeeeeeeeeeeeeeeeeeeeeeeeeeeeeeeeeeeeeee"
            },
            {
                "amount": "1",
                "from": "0x0000000000000000000000000000000000000000",
                "id": 2,
                "isERC1155": false,
                "isERC721": true,
                "isReverted": false,
                "order": 2,
                "to": "0x283af0b28c62c092c9727f1ee09c02ca627eb7f5",
                "token": "0x57f1887a8bf19b14fc0df6fd9b2acc9af147ea85",
                "tokenID": "11261819720574241376580926317004811901290400244084354718363279482130993826173"
            },
            {
                "amount": "1",
                "from": "0x283af0b28c62c092c9727f1ee09c02ca627eb7f5",
                "id": 3,
                "isERC1155": false,
                "isERC721": true,
                "isReverted": false,
                "order": 3,
                "to": "0xe766aa312cbe1f99200773dc6a3465d054a4a5c1",
                "token": "0x57f1887a8bf19b14fc0df6fd9b2acc9af147ea85",
                "tokenID": "11261819720574241376580926317004811901290400244084354718363279482130993826173"
            },
            {
                "amount": "0.000313874841931796",
                "from": "0x283af0b28c62c092c9727f1ee09c02ca627eb7f5",
                "id": 4,
                "isERC1155": false,
                "isERC721": false,
                "isReverted": false,
                "order": 4,
                "to": "0xe766aa312cbe1f99200773dc6a3465d054a4a5c1",
                "token": "0xeeeeeeeeeeeeeeeeeeeeeeeeeeeeeeeeeeeeeeee"
            }
        ],
        "token_infos": [
            {
                "address": "0xeeeeeeeeeeeeeeeeeeeeeeeeeeeeeeeeeeeeeeee",
                "decimals": 18
            },
            {
                "address": "0xc02aaa39b223fe8d0a0e5c4f27ead9083c756cc2",
                "decimals": 18
            }
        ]
    },
    "address_label": {
        "labels": [
            {
                "address": "0x5f4ec3df9cbd43714fe2740f5e3616155c5b8419",
                "label": "EACAggregatorProxy"
            },
            {
                "address": "0x0000000000000000000000000000000000000001",
                "label": "Precompiled"
            },
            {
                "address": "0x0000000000000000000000000000000000000002",
                "label": "Precompiled"
            },
            {
                "address": "0x0000000000000000000000000000000000000003",
                "label": "Precompiled"
            },
            {
                "address": "0xeeeeeeeeeeeeeeeeeeeeeeeeeeeeeeeeeeeeeeee",
                "label": "Ether"
            },
            {
                "address": "0x57f1887a8bf19b14fc0df6fd9b2acc9af147ea85",
                "label": "ENS: Base Registrar Implementation"
            },
            {
                "address": "0xcf7fe2e614f568989869f4aade060f4eb8a105be",
                "label": "ExponentialPremiumPriceOracle"
            },
            {
                "address": "0x4976fb03c32e5b8cfe2b6ccb31c09ba78ebaba41",
                "label": "ENS: Public Resolver 2"
            },
            {
                "address": "0x37bc7498f4ff12c19678ee8fe19d713b87f6a9e6",
                "label": "AccessControlledOffchainAggregator"
            },
            {
                "address": "0x00000000000c2e074ec69a0dfb2997ba6c7d2e1e",
                "label": "ENS: Registry with Fallback"
            },
            {
                "address": "0x283af0b28c62c092c9727f1ee09c02ca627eb7f5",
                "label": "ENS: Old ETH Registrar Controller"
            },
            {
                "address": "0x0000000000000000000000000000000000000004",
                "label": "Precompiled"
            }
        ]
    },
    "trace": {
        "accountLabels": null,
        "dataMap": {
            "-1": {
                "invocation": {
                    "address": "0xe766aa312cbe1f99200773dc6a3465d054a4a5c1",
                    "callData": "",
                    "decodedMethod": null,
                    "errorInfo": "",
                    "fromAddress": "",
                    "gasUsed": 0,
                    "id": -1,
                    "methodDecoded": false,
                    "operation": "",
                    "output": "",
                    "revert": false,
                    "revertMessage": "",
                    "selector": "",
                    "status": false,
                    "value": ""
                },
                "nodeType": 0
            },
            "0": {
                "invocation": {
                    "address": "0x283af0b28c62c092c9727f1ee09c02ca627eb7f5",
                    "callData": "0x00000000000000000000000000000000000000000000000000000000000000c0000000000000000000000000e766aa312cbe1f99200773dc6a3465d054a4a5c10000000000000000000000000000000000000000000000000000000001e185584ab610a6a3f0dbc4db8273fe90f48830aad1fccf7c97a1b190486849a6fb23280000000000000000000000004976fb03c32e5b8cfe2b6ccb31c09ba78ebaba41000000000000000000000000e766aa312cbe1f99200773dc6a3465d054a4a5c1000000000000000000000000000000000000000000000000000000000000000870756e6b39363534000000000000000000000000000000000000000000000000",
                    "decodedMethod": {
                        "callParams": [
                            {
                                "name": "name",
                                "type": "string",
                                "value": "punk9654"
                            },
                            {
                                "name": "owner",
                                "type": "address",
                                "value": "0xe766aa312cbe1f99200773dc6a3465d054a4a5c1"
                            },
                            {
                                "name": "duration",
                                "type": "uint256",
                                "value": "31,556,952"
                            },
                            {
                                "name": "secret",
                                "type": "bytes32",
                                "value": "0x4ab610a6a3f0dbc4db8273fe90f48830aad1fccf7c97a1b190486849a6fb2328"
                            },
                            {
                                "name": "resolver",
                                "type": "address",
                                "value": "0x4976fb03c32e5b8cfe2b6ccb31c09ba78ebaba41"
                            },
                            {
                                "name": "addr",
                                "type": "address",
                                "value": "0xe766aa312cbe1f99200773dc6a3465d054a4a5c1"
                            }
                        ],
                        "constructorArguments": "",
                        "name": "registerWithConfig",
                        "returnParams": [],
                        "signature": "registerWithConfig(string,address,uint256,bytes32,address,address)"
                    },
                    "errorInfo": "",
                    "fromAddress": "0xe766aa312cbe1f99200773dc6a3465d054a4a5c1",
                    "gasUsed": 258000,
                    "id": 0,
                    "methodDecoded": true,
                    "operation": "CALL",
                    "output": "",
                    "revert": false,
                    "revertMessage": "",
                    "selector": "0xf7a16963",
                    "status": true,
                    "value": "0.003452623261249763"
                },
                "nodeType": 0
            },
            "1": {
                "invocation": {
                    "address": "0x57f1887a8bf19b14fc0df6fd9b2acc9af147ea85",
                    "callData": "0x18e5f6cdc13f13cbbf447a59e1c037d1e7a7397919b0ce2e4bec4152f480c97d",
                    "decodedMethod": {
                        "callParams": [
                            {
                                "name": "id",
                                "type": "uint256",
                                "value": "11,261,819,720,574,241,376,580,926,317,004,811,901,290,400,244,084,354,718,363,279,482,130,993,826,173"
                            }
                        ],
                        "constructorArguments": "",
                        "name": "available",
                        "returnParams": [
                            {
                                "name": "",
                                "type": "bool",
                                "value": true
                            }
                        ],
                        "signature": "available(uint256)"
                    },
                    "errorInfo": "",
                    "fromAddress": "0x283af0b28c62c092c9727f1ee09c02ca627eb7f5",
                    "gasUsed": 2569,
                    "id": 1,
                    "methodDecoded": true,
                    "operation": "STATICCALL",
                    "output": "0x0000000000000000000000000000000000000000000000000000000000000001",
                    "revert": false,
                    "revertMessage": "",
                    "selector": "0x96e494e8",
                    "status": true,
                    "value": "0"
                },
                "nodeType": 0
            },
            "10": {
                "event": {
                    "contract": "0x00000000000c2e074ec69a0dfb2997ba6c7d2e1e",
                    "decodedLog": {
                        "name": "NewOwner",
                        "params": [
                            {
                                "name": "node",
                                "type": "bytes32",
                                "value": "0x93cdeb708b7545dc668eb9280176169d1c33cfd8ed6f04690a0bcc88a93fc4ae"
                            },
                            {
                                "name": "label",
                                "type": "bytes32",
                                "value": "0x18e5f6cdc13f13cbbf447a59e1c037d1e7a7397919b0ce2e4bec4152f480c97d"
                            },
                            {
                                "name": "owner",
                                "type": "address",
                                "value": "0x283af0b28c62c092c9727f1ee09c02ca627eb7f5"
                            }
                        ],
                        "signature": "NewOwner(bytes32,bytes32,address)"
                    },
                    "id": 10,
                    "logData": "0x000000000000000000000000283af0b28c62c092c9727f1ee09c02ca627eb7f5",
                    "logDecoded": true,
                    "operation": "EVENT",
                    "revert": false,
                    "status": true,
                    "topics": [
                        "0xce0457fe73731f824cc272376169235128c118b49d344817417c6d108d155e82",
                        "0x93cdeb708b7545dc668eb9280176169d1c33cfd8ed6f04690a0bcc88a93fc4ae",
                        "0x18e5f6cdc13f13cbbf447a59e1c037d1e7a7397919b0ce2e4bec4152f480c97d"
                    ]
                },
                "nodeType": 1
            },
            "11": {
                "event": {
                    "contract": "0x57f1887a8bf19b14fc0df6fd9b2acc9af147ea85",
                    "decodedLog": {
                        "name": "NameRegistered",
                        "params": [
                            {
                                "name": "id",
                                "type": "uint256",
                                "value": "11,261,819,720,574,241,376,580,926,317,004,811,901,290,400,244,084,354,718,363,279,482,130,993,826,173"
                            },
                            {
                                "name": "owner",
                                "type": "address",
                                "value": "0x283af0b28c62c092c9727f1ee09c02ca627eb7f5"
                            },
                            {
                                "name": "expires",
                                "type": "uint256",
                                "value": "1,689,872,244"
                            }
                        ],
                        "signature": "NameRegistered(uint256,address,uint256)"
                    },
                    "id": 11,
                    "logData": "0x0000000000000000000000000000000000000000000000000000000064b96774",
                    "logDecoded": true,
                    "operation": "EVENT",
                    "revert": false,
                    "status": true,
                    "topics": [
                        "0xb3d987963d01b2f68493b4bdb130988f157ea43070d4ad840fee0466ed9370d9",
                        "0x18e5f6cdc13f13cbbf447a59e1c037d1e7a7397919b0ce2e4bec4152f480c97d",
                        "0x000000000000000000000000283af0b28c62c092c9727f1ee09c02ca627eb7f5"
                    ]
                },
                "nodeType": 1
            },
            "12": {
                "invocation": {
                    "address": "0x57f1887a8bf19b14fc0df6fd9b2acc9af147ea85",
                    "callData": "0x",
                    "decodedMethod": {
                        "callParams": [],
                        "constructorArguments": "",
                        "name": "baseNode",
                        "returnParams": [
                            {
                                "name": "",
                                "type": "bytes32",
                                "value": "0x93cdeb708b7545dc668eb9280176169d1c33cfd8ed6f04690a0bcc88a93fc4ae"
                            }
                        ],
                        "signature": "baseNode()"
                    },
                    "errorInfo": "",
                    "fromAddress": "0x283af0b28c62c092c9727f1ee09c02ca627eb7f5",
                    "gasUsed": 394,
                    "id": 12,
                    "methodDecoded": true,
                    "operation": "STATICCALL",
                    "output": "0x93cdeb708b7545dc668eb9280176169d1c33cfd8ed6f04690a0bcc88a93fc4ae",
                    "revert": false,
                    "revertMessage": "",
                    "selector": "0xddf7fcb0",
                    "status": true,
                    "value": "0"
                },
                "nodeType": 0
            },
            "13": {
                "invocation": {
                    "address": "0x57f1887a8bf19b14fc0df6fd9b2acc9af147ea85",
                    "callData": "0x",
                    "decodedMethod": {
                        "callParams": [],
                        "constructorArguments": "",
                        "name": "ens",
                        "returnParams": [
                            {
                                "name": "",
                                "type": "address",
                                "value": "0x00000000000c2e074ec69a0dfb2997ba6c7d2e1e"
                            }
                        ],
                        "signature": "ens()"
                    },
                    "errorInfo": "",
                    "fromAddress": "0x283af0b28c62c092c9727f1ee09c02ca627eb7f5",
                    "gasUsed": 399,
                    "id": 13,
                    "methodDecoded": true,
                    "operation": "STATICCALL",
                    "output": "0x00000000000000000000000000000000000c2e074ec69a0dfb2997ba6c7d2e1e",
                    "revert": false,
                    "revertMessage": "",
                    "selector": "0x3f15457f",
                    "status": true,
                    "value": "0"
                },
                "nodeType": 0
            },
            "14": {
                "invocation": {
                    "address": "0x00000000000c2e074ec69a0dfb2997ba6c7d2e1e",
                    "callData": "0x733a3055bf015e14638f5f220d1116d2db786d9446fee8da8572cc797bfed3840000000000000000000000004976fb03c32e5b8cfe2b6ccb31c09ba78ebaba41",
                    "decodedMethod": {
                        "callParams": [
                            {
                                "name": "node",
                                "type": "bytes32",
                                "value": "0x733a3055bf015e14638f5f220d1116d2db786d9446fee8da8572cc797bfed384"
                            },
                            {
                                "name": "resolver",
                                "type": "address",
                                "value": "0x4976fb03c32e5b8cfe2b6ccb31c09ba78ebaba41"
                            }
                        ],
                        "constructorArguments": "",
                        "name": "setResolver",
                        "returnParams": [],
                        "signature": "setResolver(bytes32,address)"
                    },
                    "errorInfo": "",
                    "fromAddress": "0x283af0b28c62c092c9727f1ee09c02ca627eb7f5",
                    "gasUsed": 24371,
                    "id": 14,
                    "methodDecoded": true,
                    "operation": "CALL",
                    "output": "",
                    "revert": false,
                    "revertMessage": "",
                    "selector": "0x1896f70a",
                    "status": true,
                    "value": "0"
                },
                "nodeType": 0
            },
            "15": {
                "event": {
                    "contract": "0x00000000000c2e074ec69a0dfb2997ba6c7d2e1e",
                    "decodedLog": {
                        "name": "NewResolver",
                        "params": [
                            {
                                "name": "node",
                                "type": "bytes32",
                                "value": "0x733a3055bf015e14638f5f220d1116d2db786d9446fee8da8572cc797bfed384"
                            },
                            {
                                "name": "resolver",
                                "type": "address",
                                "value": "0x4976fb03c32e5b8cfe2b6ccb31c09ba78ebaba41"
                            }
                        ],
                        "signature": "NewResolver(bytes32,address)"
                    },
                    "id": 15,
                    "logData": "0x0000000000000000000000004976fb03c32e5b8cfe2b6ccb31c09ba78ebaba41",
                    "logDecoded": true,
                    "operation": "EVENT",
                    "revert": false,
                    "status": true,
                    "topics": [
                        "0x335721b01866dc23fbee8b6b2c7b1e14d6f05c28cd35a2c934239f94095602a0",
                        "0x733a3055bf015e14638f5f220d1116d2db786d9446fee8da8572cc797bfed384"
                    ]
                },
                "nodeType": 1
            },
            "16": {
                "invocation": {
                    "address": "0x4976fb03c32e5b8cfe2b6ccb31c09ba78ebaba41",
                    "callData": "0x733a3055bf015e14638f5f220d1116d2db786d9446fee8da8572cc797bfed384000000000000000000000000e766aa312cbe1f99200773dc6a3465d054a4a5c1",
                    "decodedMethod": {
                        "callParams": [
                            {
                                "name": "node",
                                "type": "bytes32",
                                "value": "0x733a3055bf015e14638f5f220d1116d2db786d9446fee8da8572cc797bfed384"
                            },
                            {
                                "name": "a",
                                "type": "address",
                                "value": "0xe766aa312cbe1f99200773dc6a3465d054a4a5c1"
                            }
                        ],
                        "constructorArguments": "",
                        "name": "setAddr",
                        "returnParams": [],
                        "signature": "setAddr(bytes32,address)"
                    },
                    "errorInfo": "",
                    "fromAddress": "0x283af0b28c62c092c9727f1ee09c02ca627eb7f5",
                    "gasUsed": 34332,
                    "id": 16,
                    "methodDecoded": true,
                    "operation": "CALL",
                    "output": "",
                    "revert": false,
                    "revertMessage": "",
                    "selector": "0xd5fa2b00",
                    "status": true,
                    "value": "0"
                },
                "nodeType": 0
            },
            "17": {
                "invocation": {
                    "address": "0x00000000000c2e074ec69a0dfb2997ba6c7d2e1e",
                    "callData": "0x733a3055bf015e14638f5f220d1116d2db786d9446fee8da8572cc797bfed384",
                    "decodedMethod": {
                        "callParams": [
                            {
                                "name": "node",
                                "type": "bytes32",
                                "value": "0x733a3055bf015e14638f5f220d1116d2db786d9446fee8da8572cc797bfed384"
                            }
                        ],
                        "constructorArguments": "",
                        "name": "owner",
                        "returnParams": [
                            {
                                "name": "",
                                "type": "address",
                                "value": "0x283af0b28c62c092c9727f1ee09c02ca627eb7f5"
                            }
                        ],
                        "signature": "owner(bytes32)"
                    },
                    "errorInfo": "",
                    "fromAddress": "0x4976fb03c32e5b8cfe2b6ccb31c09ba78ebaba41",
                    "gasUsed": 951,
                    "id": 17,
                    "methodDecoded": true,
                    "operation": "STATICCALL",
                    "output": "0x000000000000000000000000283af0b28c62c092c9727f1ee09c02ca627eb7f5",
                    "revert": false,
                    "revertMessage": "",
                    "selector": "0x02571be3",
                    "status": true,
                    "value": "0"
                },
                "nodeType": 0
            },
            "18": {
                "invocation": {
                    "address": "0x00000000000c2e074ec69a0dfb2997ba6c7d2e1e",
                    "callData": "0x733a3055bf015e14638f5f220d1116d2db786d9446fee8da8572cc797bfed384",
                    "decodedMethod": {
                        "callParams": [
                            {
                                "name": "node",
                                "type": "bytes32",
                                "value": "0x733a3055bf015e14638f5f220d1116d2db786d9446fee8da8572cc797bfed384"
                            }
                        ],
                        "constructorArguments": "",
                        "name": "owner",
                        "returnParams": [
                            {
                                "name": "",
                                "type": "address",
                                "value": "0x283af0b28c62c092c9727f1ee09c02ca627eb7f5"
                            }
                        ],
                        "signature": "owner(bytes32)"
                    },
                    "errorInfo": "",
                    "fromAddress": "0x4976fb03c32e5b8cfe2b6ccb31c09ba78ebaba41",
                    "gasUsed": 951,
                    "id": 18,
                    "methodDecoded": true,
                    "operation": "STATICCALL",
                    "output": "0x000000000000000000000000283af0b28c62c092c9727f1ee09c02ca627eb7f5",
                    "revert": false,
                    "revertMessage": "",
                    "selector": "0x02571be3",
                    "status": true,
                    "value": "0"
                },
                "nodeType": 0
            },
            "19": {
                "event": {
                    "contract": "0x4976fb03c32e5b8cfe2b6ccb31c09ba78ebaba41",
                    "decodedLog": {
                        "name": "AddressChanged",
                        "params": [
                            {
                                "name": "node",
                                "type": "bytes32",
                                "value": "0x733a3055bf015e14638f5f220d1116d2db786d9446fee8da8572cc797bfed384"
                            },
                            {
                                "name": "coinType",
                                "type": "uint256",
                                "value": "60"
                            },
                            {
                                "name": "newAddress",
                                "type": "bytes",
                                "value": "0xe766aa312cbe1f99200773dc6a3465d054a4a5c1"
                            }
                        ],
                        "signature": "AddressChanged(bytes32,uint256,bytes)"
                    },
                    "id": 19,
                    "logData": "0x000000000000000000000000000000000000000000000000000000000000003c00000000000000000000000000000000000000000000000000000000000000400000000000000000000000000000000000000000000000000000000000000014e766aa312cbe1f99200773dc6a3465d054a4a5c1000000000000000000000000",
                    "logDecoded": true,
                    "operation": "EVENT",
                    "revert": false,
                    "status": true,
                    "topics": [
                        "0x65412581168e88a1e60c6459d7f44ae83ad0832e670826c05a4e2476b57af752",
                        "0x733a3055bf015e14638f5f220d1116d2db786d9446fee8da8572cc797bfed384"
                    ]
                },
                "nodeType": 1
            },
            "2": {
                "invocation": {
                    "address": "0x57f1887a8bf19b14fc0df6fd9b2acc9af147ea85",
                    "callData": "0x18e5f6cdc13f13cbbf447a59e1c037d1e7a7397919b0ce2e4bec4152f480c97d",
                    "decodedMethod": {
                        "callParams": [
                            {
                                "name": "id",
                                "type": "uint256",
                                "value": "11,261,819,720,574,241,376,580,926,317,004,811,901,290,400,244,084,354,718,363,279,482,130,993,826,173"
                            }
                        ],
                        "constructorArguments": "",
                        "name": "nameExpires",
                        "returnParams": [
                            {
                                "name": "",
                                "type": "uint256",
                                "value": "0"
                            }
                        ],
                        "signature": "nameExpires(uint256)"
                    },
                    "errorInfo": "",
                    "fromAddress": "0x283af0b28c62c092c9727f1ee09c02ca627eb7f5",
                    "gasUsed": 523,
                    "id": 2,
                    "methodDecoded": true,
                    "operation": "STATICCALL",
                    "output": "0x0000000000000000000000000000000000000000000000000000000000000000",
                    "revert": false,
                    "revertMessage": "",
                    "selector": "0xd6e4fa86",
                    "status": true,
                    "value": "0"
                },
                "nodeType": 0
            },
            "20": {
                "event": {
                    "contract": "0x4976fb03c32e5b8cfe2b6ccb31c09ba78ebaba41",
                    "decodedLog": {
                        "name": "AddrChanged",
                        "params": [
                            {
                                "name": "node",
                                "type": "bytes32",
                                "value": "0x733a3055bf015e14638f5f220d1116d2db786d9446fee8da8572cc797bfed384"
                            },
                            {
                                "name": "a",
                                "type": "address",
                                "value": "0xe766aa312cbe1f99200773dc6a3465d054a4a5c1"
                            }
                        ],
                        "signature": "AddrChanged(bytes32,address)"
                    },
                    "id": 20,
                    "logData": "0x000000000000000000000000e766aa312cbe1f99200773dc6a3465d054a4a5c1",
                    "logDecoded": true,
                    "operation": "EVENT",
                    "revert": false,
                    "status": true,
                    "topics": [
                        "0x52d7d861f09ab3d26239d492e8968629f95e9e318cf0b73bfddc441522a15fd2",
                        "0x733a3055bf015e14638f5f220d1116d2db786d9446fee8da8572cc797bfed384"
                    ]
                },
                "nodeType": 1
            },
            "21": {
                "invocation": {
                    "address": "0x57f1887a8bf19b14fc0df6fd9b2acc9af147ea85",
                    "callData": "0x18e5f6cdc13f13cbbf447a59e1c037d1e7a7397919b0ce2e4bec4152f480c97d000000000000000000000000e766aa312cbe1f99200773dc6a3465d054a4a5c1",
                    "decodedMethod": {
                        "callParams": [
                            {
                                "name": "id",
                                "type": "uint256",
                                "value": "11,261,819,720,574,241,376,580,926,317,004,811,901,290,400,244,084,354,718,363,279,482,130,993,826,173"
                            },
                            {
                                "name": "owner",
                                "type": "address",
                                "value": "0xe766aa312cbe1f99200773dc6a3465d054a4a5c1"
                            }
                        ],
                        "constructorArguments": "",
                        "name": "reclaim",
                        "returnParams": [],
                        "signature": "reclaim(uint256,address)"
                    },
                    "errorInfo": "",
                    "fromAddress": "0x283af0b28c62c092c9727f1ee09c02ca627eb7f5",
                    "gasUsed": 6652,
                    "id": 21,
                    "methodDecoded": true,
                    "operation": "CALL",
                    "output": "",
                    "revert": false,
                    "revertMessage": "",
                    "selector": "0x28ed4f6c",
                    "status": true,
                    "value": "0"
                },
                "nodeType": 0
            },
            "22": {
                "invocation": {
                    "address": "0x00000000000c2e074ec69a0dfb2997ba6c7d2e1e",
                    "callData": "0x93cdeb708b7545dc668eb9280176169d1c33cfd8ed6f04690a0bcc88a93fc4ae",
                    "decodedMethod": {
                        "callParams": [
                            {
                                "name": "node",
                                "type": "bytes32",
                                "value": "0x93cdeb708b7545dc668eb9280176169d1c33cfd8ed6f04690a0bcc88a93fc4ae"
                            }
                        ],
                        "constructorArguments": "",
                        "name": "owner",
                        "returnParams": [
                            {
                                "name": "",
                                "type": "address",
                                "value": "0x57f1887a8bf19b14fc0df6fd9b2acc9af147ea85"
                            }
                        ],
                        "signature": "owner(bytes32)"
                    },
                    "errorInfo": "",
                    "fromAddress": "0x57f1887a8bf19b14fc0df6fd9b2acc9af147ea85",
                    "gasUsed": 951,
                    "id": 22,
                    "methodDecoded": true,
                    "operation": "STATICCALL",
                    "output": "0x00000000000000000000000057f1887a8bf19b14fc0df6fd9b2acc9af147ea85",
                    "revert": false,
                    "revertMessage": "",
                    "selector": "0x02571be3",
                    "status": true,
                    "value": "0"
                },
                "nodeType": 0
            },
            "23": {
                "invocation": {
                    "address": "0x00000000000c2e074ec69a0dfb2997ba6c7d2e1e",
                    "callData": "0x93cdeb708b7545dc668eb9280176169d1c33cfd8ed6f04690a0bcc88a93fc4ae18e5f6cdc13f13cbbf447a59e1c037d1e7a7397919b0ce2e4bec4152f480c97d000000000000000000000000e766aa312cbe1f99200773dc6a3465d054a4a5c1",
                    "decodedMethod": {
                        "callParams": [
                            {
                                "name": "node",
                                "type": "bytes32",
                                "value": "0x93cdeb708b7545dc668eb9280176169d1c33cfd8ed6f04690a0bcc88a93fc4ae"
                            },
                            {
                                "name": "label",
                                "type": "bytes32",
                                "value": "0x18e5f6cdc13f13cbbf447a59e1c037d1e7a7397919b0ce2e4bec4152f480c97d"
                            },
                            {
                                "name": "owner",
                                "type": "address",
                                "value": "0xe766aa312cbe1f99200773dc6a3465d054a4a5c1"
                            }
                        ],
                        "constructorArguments": "",
                        "name": "setSubnodeOwner",
                        "returnParams": [
                            {
                                "name": "",
                                "type": "bytes32",
                                "value": "0x733a3055bf015e14638f5f220d1116d2db786d9446fee8da8572cc797bfed384"
                            }
                        ],
                        "signature": "setSubnodeOwner(bytes32,bytes32,address)"
                    },
                    "errorInfo": "",
                    "fromAddress": "0x57f1887a8bf19b14fc0df6fd9b2acc9af147ea85",
                    "gasUsed": 3169,
                    "id": 23,
                    "methodDecoded": true,
                    "operation": "CALL",
                    "output": "0x733a3055bf015e14638f5f220d1116d2db786d9446fee8da8572cc797bfed384",
                    "revert": false,
                    "revertMessage": "",
                    "selector": "0x06ab5923",
                    "status": true,
                    "value": "0"
                },
                "nodeType": 0
            },
            "24": {
                "event": {
                    "contract": "0x00000000000c2e074ec69a0dfb2997ba6c7d2e1e",
                    "decodedLog": {
                        "name": "NewOwner",
                        "params": [
                            {
                                "name": "node",
                                "type": "bytes32",
                                "value": "0x93cdeb708b7545dc668eb9280176169d1c33cfd8ed6f04690a0bcc88a93fc4ae"
                            },
                            {
                                "name": "label",
                                "type": "bytes32",
                                "value": "0x18e5f6cdc13f13cbbf447a59e1c037d1e7a7397919b0ce2e4bec4152f480c97d"
                            },
                            {
                                "name": "owner",
                                "type": "address",
                                "value": "0xe766aa312cbe1f99200773dc6a3465d054a4a5c1"
                            }
                        ],
                        "signature": "NewOwner(bytes32,bytes32,address)"
                    },
                    "id": 24,
                    "logData": "0x000000000000000000000000e766aa312cbe1f99200773dc6a3465d054a4a5c1",
                    "logDecoded": true,
                    "operation": "EVENT",
                    "revert": false,
                    "status": true,
                    "topics": [
                        "0xce0457fe73731f824cc272376169235128c118b49d344817417c6d108d155e82",
                        "0x93cdeb708b7545dc668eb9280176169d1c33cfd8ed6f04690a0bcc88a93fc4ae",
                        "0x18e5f6cdc13f13cbbf447a59e1c037d1e7a7397919b0ce2e4bec4152f480c97d"
                    ]
                },
                "nodeType": 1
            },
            "25": {
                "invocation": {
                    "address": "0x57f1887a8bf19b14fc0df6fd9b2acc9af147ea85",
                    "callData": "0x000000000000000000000000283af0b28c62c092c9727f1ee09c02ca627eb7f5000000000000000000000000e766aa312cbe1f99200773dc6a3465d054a4a5c118e5f6cdc13f13cbbf447a59e1c037d1e7a7397919b0ce2e4bec4152f480c97d",
                    "decodedMethod": {
                        "callParams": [
                            {
                                "name": "from",
                                "type": "address",
                                "value": "0x283af0b28c62c092c9727f1ee09c02ca627eb7f5"
                            },
                            {
                                "name": "to",
                                "type": "address",
                                "value": "0xe766aa312cbe1f99200773dc6a3465d054a4a5c1"
                            },
                            {
                                "decimalAvailable": true,
                                "name": "tokenId",
                                "type": "uint256",
                                "value": "11,261,819,720,574,241,376,580,926,317,004,811,901,290,400,244,084,354,718,363,279,482,130,993,826,173"
                            }
                        ],
                        "constructorArguments": "",
                        "name": "transferFrom",
                        "returnParams": [],
                        "signature": "transferFrom(address,address,uint256)"
                    },
                    "errorInfo": "",
                    "fromAddress": "0x283af0b28c62c092c9727f1ee09c02ca627eb7f5",
                    "gasUsed": 12103,
                    "id": 25,
                    "methodDecoded": true,
                    "operation": "CALL",
                    "output": "",
                    "revert": false,
                    "revertMessage": "",
                    "selector": "0x23b872dd",
                    "status": true,
                    "value": "0"
                },
                "nodeType": 0
            },
            "26": {
                "event": {
                    "contract": "0x57f1887a8bf19b14fc0df6fd9b2acc9af147ea85",
                    "decodedLog": {
                        "name": "Transfer",
                        "params": [
                            {
                                "name": "from",
                                "type": "address",
                                "value": "0x283af0b28c62c092c9727f1ee09c02ca627eb7f5"
                            },
                            {
                                "name": "to",
                                "type": "address",
                                "value": "0xe766aa312cbe1f99200773dc6a3465d054a4a5c1"
                            },
                            {
                                "decimalAvailable": true,
                                "name": "tokenId",
                                "type": "uint256",
                                "value": "11,261,819,720,574,241,376,580,926,317,004,811,901,290,400,244,084,354,718,363,279,482,130,993,826,173"
                            }
                        ],
                        "signature": "Transfer(address,address,uint256)"
                    },
                    "id": 26,
                    "logData": "0x",
                    "logDecoded": true,
                    "operation": "EVENT",
                    "revert": false,
                    "status": true,
                    "topics": [
                        "0xddf252ad1be2c89b69c2b068fc378daa952ba7f163c4a11628f55a4df523b3ef",
                        "0x000000000000000000000000283af0b28c62c092c9727f1ee09c02ca627eb7f5",
                        "0x000000000000000000000000e766aa312cbe1f99200773dc6a3465d054a4a5c1",
                        "0x18e5f6cdc13f13cbbf447a59e1c037d1e7a7397919b0ce2e4bec4152f480c97d"
                    ]
                },
                "nodeType": 1
            },
            "27": {
                "event": {
                    "contract": "0x283af0b28c62c092c9727f1ee09c02ca627eb7f5",
                    "decodedLog": {
                        "name": "NameRegistered",
                        "params": [
                            {
                                "name": "label",
                                "type": "bytes32",
                                "value": "0x18e5f6cdc13f13cbbf447a59e1c037d1e7a7397919b0ce2e4bec4152f480c97d"
                            },
                            {
                                "name": "owner",
                                "type": "address",
                                "value": "0xe766aa312cbe1f99200773dc6a3465d054a4a5c1"
                            },
                            {
                                "name": "name",
                                "type": "string",
                                "value": "punk9654"
                            },
                            {
                                "name": "cost",
                                "type": "uint256",
                                "value": "3,138,748,419,317,967"
                            },
                            {
                                "name": "expires",
                                "type": "uint256",
                                "value": "1,689,872,244"
                            }
                        ],
                        "signature": "NameRegistered(string,bytes32,address,uint256,uint256)"
                    },
                    "id": 27,
                    "logData": "0x0000000000000000000000000000000000000000000000000000000000000060000000000000000000000000000000000000000000000000000b26acd092a0cf0000000000000000000000000000000000000000000000000000000064b96774000000000000000000000000000000000000000000000000000000000000000870756e6b39363534000000000000000000000000000000000000000000000000",
                    "logDecoded": true,
                    "operation": "EVENT",
                    "revert": false,
                    "status": true,
                    "topics": [
                        "0xca6abbe9d7f11422cb6ca7629fbf6fe9efb1c621f71ce8f02b9f2a230097404f",
                        "0x18e5f6cdc13f13cbbf447a59e1c037d1e7a7397919b0ce2e4bec4152f480c97d",
                        "0x000000000000000000000000e766aa312cbe1f99200773dc6a3465d054a4a5c1"
                    ]
                },
                "nodeType": 1
            },
            "28": {
                "invocation": {
                    "address": "0xe766aa312cbe1f99200773dc6a3465d054a4a5c1",
                    "callData": "0x",
                    "decodedMethod": null,
                    "errorInfo": "",
                    "fromAddress": "0x283af0b28c62c092c9727f1ee09c02ca627eb7f5",
                    "gasUsed": 0,
                    "id": 28,
                    "methodDecoded": false,
                    "operation": "CALL",
                    "output": "",
                    "revert": false,
                    "revertMessage": "",
                    "selector": "fallback",
                    "status": true,
                    "value": "0.000313874841931796"
                },
                "nodeType": 0
            },
            "3": {
                "invocation": {
                    "address": "0xcf7fe2e614f568989869f4aade060f4eb8a105be",
                    "callData": "0x000000000000000000000000000000000000000000000000000000000000006000000000000000000000000000000000000000000000000000000000000000000000000000000000000000000000000000000000000000000000000001e18558000000000000000000000000000000000000000000000000000000000000000870756e6b39363534000000000000000000000000000000000000000000000000",
                    "decodedMethod": {
                        "callParams": [
                            {
                                "name": "name",
                                "type": "string",
                                "value": "punk9654"
                            },
                            {
                                "name": "expires",
                                "type": "uint256",
                                "value": "0"
                            },
                            {
                                "name": "duration",
                                "type": "uint256",
                                "value": "31,556,952"
                            }
                        ],
                        "constructorArguments": "",
                        "name": "price",
                        "returnParams": [
                            {
                                "name": "",
                                "type": "uint256",
                                "value": "3,138,748,419,317,967"
                            }
                        ],
                        "signature": "price(string,uint256,uint256)"
                    },
                    "errorInfo": "",
                    "fromAddress": "0x283af0b28c62c092c9727f1ee09c02ca627eb7f5",
                    "gasUsed": 29025,
                    "id": 3,
                    "methodDecoded": true,
                    "operation": "STATICCALL",
                    "output": "0x000000000000000000000000000000000000000000000000000b26acd092a0cf",
                    "revert": false,
                    "revertMessage": "",
                    "selector": "0x50e9a715",
                    "status": true,
                    "value": "0"
                },
                "nodeType": 0
            },
            "4": {
                "invocation": {
                    "address": "0x5f4ec3df9cbd43714fe2740f5e3616155c5b8419",
                    "callData": "0x",
                    "decodedMethod": {
                        "callParams": [],
                        "constructorArguments": "",
                        "name": "latestAnswer",
                        "returnParams": [
                            {
                                "name": "",
                                "type": "int256",
                                "value": "159,405,000,000"
                            }
                        ],
                        "signature": "latestAnswer()"
                    },
                    "errorInfo": "",
                    "fromAddress": "0xcf7fe2e614f568989869f4aade060f4eb8a105be",
                    "gasUsed": 14637,
                    "id": 4,
                    "methodDecoded": true,
                    "operation": "STATICCALL",
                    "output": "0x000000000000000000000000000000000000000000000000000000251d474540",
                    "revert": false,
                    "revertMessage": "",
                    "selector": "0x50d25bcd",
                    "status": true,
                    "value": "0"
                },
                "nodeType": 0
            },
            "5": {
                "invocation": {
                    "address": "0x37bc7498f4ff12c19678ee8fe19d713b87f6a9e6",
                    "callData": "0x",
                    "decodedMethod": {
                        "callParams": [],
                        "constructorArguments": "",
                        "name": "latestAnswer",
                        "returnParams": [
                            {
                                "name": "",
                                "type": "int256",
                                "value": "159,405,000,000"
                            }
                        ],
                        "signature": "latestAnswer()"
                    },
                    "errorInfo": "",
                    "fromAddress": "0x5f4ec3df9cbd43714fe2740f5e3616155c5b8419",
                    "gasUsed": 7141,
                    "id": 5,
                    "methodDecoded": true,
                    "operation": "STATICCALL",
                    "output": "0x000000000000000000000000000000000000000000000000000000251d474540",
                    "revert": false,
                    "revertMessage": "",
                    "selector": "0x50d25bcd",
                    "status": true,
                    "value": "0"
                },
                "nodeType": 0
            },
            "6": {
                "invocation": {
                    "address": "0x57f1887a8bf19b14fc0df6fd9b2acc9af147ea85",
                    "callData": "0x18e5f6cdc13f13cbbf447a59e1c037d1e7a7397919b0ce2e4bec4152f480c97d000000000000000000000000283af0b28c62c092c9727f1ee09c02ca627eb7f50000000000000000000000000000000000000000000000000000000001e18558",
                    "decodedMethod": {
                        "callParams": [
                            {
                                "name": "id",
                                "type": "uint256",
                                "value": "11,261,819,720,574,241,376,580,926,317,004,811,901,290,400,244,084,354,718,363,279,482,130,993,826,173"
                            },
                            {
                                "name": "owner",
                                "type": "address",
                                "value": "0x283af0b28c62c092c9727f1ee09c02ca627eb7f5"
                            },
                            {
                                "name": "duration",
                                "type": "uint256",
                                "value": "31,556,952"
                            }
                        ],
                        "constructorArguments": "",
                        "name": "register",
                        "returnParams": [
                            {
                                "name": "",
                                "type": "uint256",
                                "value": "1,689,872,244"
                            }
                        ],
                        "signature": "register(uint256,address,uint256)"
                    },
                    "errorInfo": "",
                    "fromAddress": "0x283af0b28c62c092c9727f1ee09c02ca627eb7f5",
                    "gasUsed": 91145,
                    "id": 6,
                    "methodDecoded": true,
                    "operation": "CALL",
                    "output": "0x0000000000000000000000000000000000000000000000000000000064b96774",
                    "revert": false,
                    "revertMessage": "",
                    "selector": "0xfca247ac",
                    "status": true,
                    "value": "0"
                },
                "nodeType": 0
            },
            "7": {
                "invocation": {
                    "address": "0x00000000000c2e074ec69a0dfb2997ba6c7d2e1e",
                    "callData": "0x93cdeb708b7545dc668eb9280176169d1c33cfd8ed6f04690a0bcc88a93fc4ae",
                    "decodedMethod": {
                        "callParams": [
                            {
                                "name": "node",
                                "type": "bytes32",
                                "value": "0x93cdeb708b7545dc668eb9280176169d1c33cfd8ed6f04690a0bcc88a93fc4ae"
                            }
                        ],
                        "constructorArguments": "",
                        "name": "owner",
                        "returnParams": [
                            {
                                "name": "",
                                "type": "address",
                                "value": "0x57f1887a8bf19b14fc0df6fd9b2acc9af147ea85"
                            }
                        ],
                        "signature": "owner(bytes32)"
                    },
                    "errorInfo": "",
                    "fromAddress": "0x57f1887a8bf19b14fc0df6fd9b2acc9af147ea85",
                    "gasUsed": 2951,
                    "id": 7,
                    "methodDecoded": true,
                    "operation": "STATICCALL",
                    "output": "0x00000000000000000000000057f1887a8bf19b14fc0df6fd9b2acc9af147ea85",
                    "revert": false,
                    "revertMessage": "",
                    "selector": "0x02571be3",
                    "status": true,
                    "value": "0"
                },
                "nodeType": 0
            },
            "8": {
                "event": {
                    "contract": "0x57f1887a8bf19b14fc0df6fd9b2acc9af147ea85",
                    "decodedLog": {
                        "name": "Transfer",
                        "params": [
                            {
                                "name": "from",
                                "type": "address",
                                "value": "0x0000000000000000000000000000000000000000"
                            },
                            {
                                "name": "to",
                                "type": "address",
                                "value": "0x283af0b28c62c092c9727f1ee09c02ca627eb7f5"
                            },
                            {
                                "decimalAvailable": true,
                                "name": "tokenId",
                                "type": "uint256",
                                "value": "11,261,819,720,574,241,376,580,926,317,004,811,901,290,400,244,084,354,718,363,279,482,130,993,826,173"
                            }
                        ],
                        "signature": "Transfer(address,address,uint256)"
                    },
                    "id": 8,
                    "logData": "0x",
                    "logDecoded": true,
                    "operation": "EVENT",
                    "revert": false,
                    "status": true,
                    "topics": [
                        "0xddf252ad1be2c89b69c2b068fc378daa952ba7f163c4a11628f55a4df523b3ef",
                        "0x0000000000000000000000000000000000000000000000000000000000000000",
                        "0x000000000000000000000000283af0b28c62c092c9727f1ee09c02ca627eb7f5",
                        "0x18e5f6cdc13f13cbbf447a59e1c037d1e7a7397919b0ce2e4bec4152f480c97d"
                    ]
                },
                "nodeType": 1
            },
            "9": {
                "invocation": {
                    "address": "0x00000000000c2e074ec69a0dfb2997ba6c7d2e1e",
                    "callData": "0x93cdeb708b7545dc668eb9280176169d1c33cfd8ed6f04690a0bcc88a93fc4ae18e5f6cdc13f13cbbf447a59e1c037d1e7a7397919b0ce2e4bec4152f480c97d000000000000000000000000283af0b28c62c092c9727f1ee09c02ca627eb7f5",
                    "decodedMethod": {
                        "callParams": [
                            {
                                "name": "node",
                                "type": "bytes32",
                                "value": "0x93cdeb708b7545dc668eb9280176169d1c33cfd8ed6f04690a0bcc88a93fc4ae"
                            },
                            {
                                "name": "label",
                                "type": "bytes32",
                                "value": "0x18e5f6cdc13f13cbbf447a59e1c037d1e7a7397919b0ce2e4bec4152f480c97d"
                            },
                            {
                                "name": "owner",
                                "type": "address",
                                "value": "0x283af0b28c62c092c9727f1ee09c02ca627eb7f5"
                            }
                        ],
                        "constructorArguments": "",
                        "name": "setSubnodeOwner",
                        "returnParams": [
                            {
                                "name": "",
                                "type": "bytes32",
                                "value": "0x733a3055bf015e14638f5f220d1116d2db786d9446fee8da8572cc797bfed384"
                            }
                        ],
                        "signature": "setSubnodeOwner(bytes32,bytes32,address)"
                    },
                    "errorInfo": "",
                    "fromAddress": "0x57f1887a8bf19b14fc0df6fd9b2acc9af147ea85",
                    "gasUsed": 25069,
                    "id": 9,
                    "methodDecoded": true,
                    "operation": "CALL",
                    "output": "0x733a3055bf015e14638f5f220d1116d2db786d9446fee8da8572cc797bfed384",
                    "revert": false,
                    "revertMessage": "",
                    "selector": "0x06ab5923",
                    "status": true,
                    "value": "0"
                },
                "nodeType": 0
            }
        },
        "gasFlame": [
            {
                "children": [
                    {
                        "children": [
                            {
                                "children": [],
                                "depth": 0,
                                "name": "Initial Gas",
                                "value": 23360
                            },
                            {
                                "children": [
                                    {
                                        "children": [],
                                        "depth": 1,
                                        "name": "available",
                                        "value": 2569
                                    },
                                    {
                                        "children": [],
                                        "depth": 1,
                                        "name": "nameExpires",
                                        "value": 523
                                    },
                                    {
                                        "children": [
                                            {
                                                "children": [
                                                    {
                                                        "children": [],
                                                        "depth": 3,
                                                        "name": "latestAnswer",
                                                        "value": 7141
                                                    }
                                                ],
                                                "depth": 2,
                                                "name": "latestAnswer",
                                                "value": 14637
                                            }
                                        ],
                                        "depth": 1,
                                        "name": "price",
                                        "value": 29025
                                    },
                                    {
                                        "children": [
                                            {
                                                "children": [],
                                                "depth": 2,
                                                "name": "owner",
                                                "value": 2951
                                            },
                                            {
                                                "children": [],
                                                "depth": 2,
                                                "name": "setSubnodeOwner",
                                                "value": 25069
                                            }
                                        ],
                                        "depth": 1,
                                        "name": "register",
                                        "value": 91145
                                    },
                                    {
                                        "children": [],
                                        "depth": 1,
                                        "name": "baseNode",
                                        "value": 394
                                    },
                                    {
                                        "children": [],
                                        "depth": 1,
                                        "name": "ens",
                                        "value": 399
                                    },
                                    {
                                        "children": [],
                                        "depth": 1,
                                        "name": "setResolver",
                                        "value": 24371
                                    },
                                    {
                                        "children": [
                                            {
                                                "children": [],
                                                "depth": 2,
                                                "name": "owner",
                                                "value": 951
                                            },
                                            {
                                                "children": [],
                                                "depth": 2,
                                                "name": "owner",
                                                "value": 951
                                            }
                                        ],
                                        "depth": 1,
                                        "name": "setAddr",
                                        "value": 34332
                                    },
                                    {
                                        "children": [
                                            {
                                                "children": [],
                                                "depth": 2,
                                                "name": "owner",
                                                "value": 951
                                            },
                                            {
                                                "children": [],
                                                "depth": 2,
                                                "name": "setSubnodeOwner",
                                                "value": 3169
                                            }
                                        ],
                                        "depth": 1,
                                        "name": "reclaim",
                                        "value": 6652
                                    },
                                    {
                                        "children": [],
                                        "depth": 1,
                                        "name": "transferFrom",
                                        "value": 12103
                                    },
                                    {
                                        "children": [],
                                        "depth": 1,
                                        "name": "fallback",
                                        "value": 0
                                    }
                                ],
                                "depth": 0,
                                "name": "Executed Gas",
                                "value": 242240
                            }
                        ],
                        "depth": -1,
                        "name": "Actual Gas Used",
                        "value": 258000
                    },
                    {
                        "children": [],
                        "depth": -1,
                        "name": "Refunded Gas",
                        "value": 7600
                    }
                ],
                "depth": -2,
                "name": "Total Gas",
                "value": 265600
            }
        ],
        "isConfirmed": true,
        "mainTrace": [
            {
                "children": [
                    {
                        "children": [
                            {
                                "children": [],
                                "depth": 1,
                                "id": 1,
                                "order": 1
                            },
                            {
                                "children": [],
                                "depth": 1,
                                "id": 2,
                                "order": 2
                            },
                            {
                                "children": [
                                    {
                                        "children": [
                                            {
                                                "children": [],
                                                "depth": 3,
                                                "id": 5,
                                                "order": 5
                                            }
                                        ],
                                        "depth": 2,
                                        "id": 4,
                                        "order": 4
                                    }
                                ],
                                "depth": 1,
                                "id": 3,
                                "order": 3
                            },
                            {
                                "children": [
                                    {
                                        "children": [],
                                        "depth": 2,
                                        "id": 7,
                                        "order": 7
                                    },
                                    {
                                        "children": [],
                                        "depth": 2,
                                        "id": 8,
                                        "order": 8
                                    },
                                    {
                                        "children": [
                                            {
                                                "children": [],
                                                "depth": 3,
                                                "id": 10,
                                                "order": 10
                                            }
                                        ],
                                        "depth": 2,
                                        "id": 9,
                                        "order": 9
                                    },
                                    {
                                        "children": [],
                                        "depth": 2,
                                        "id": 11,
                                        "order": 11
                                    }
                                ],
                                "depth": 1,
                                "id": 6,
                                "order": 6
                            },
                            {
                                "children": [],
                                "depth": 1,
                                "id": 12,
                                "order": 12
                            },
                            {
                                "children": [],
                                "depth": 1,
                                "id": 13,
                                "order": 13
                            },
                            {
                                "children": [
                                    {
                                        "children": [],
                                        "depth": 2,
                                        "id": 15,
                                        "order": 15
                                    }
                                ],
                                "depth": 1,
                                "id": 14,
                                "order": 14
                            },
                            {
                                "children": [
                                    {
                                        "children": [],
                                        "depth": 2,
                                        "id": 17,
                                        "order": 17
                                    },
                                    {
                                        "children": [],
                                        "depth": 2,
                                        "id": 18,
                                        "order": 18
                                    },
                                    {
                                        "children": [],
                                        "depth": 2,
                                        "id": 19,
                                        "order": 19
                                    },
                                    {
                                        "children": [],
                                        "depth": 2,
                                        "id": 20,
                                        "order": 20
                                    }
                                ],
                                "depth": 1,
                                "id": 16,
                                "order": 16
                            },
                            {
                                "children": [
                                    {
                                        "children": [],
                                        "depth": 2,
                                        "id": 22,
                                        "order": 22
                                    },
                                    {
                                        "children": [
                                            {
                                                "children": [],
                                                "depth": 3,
                                                "id": 24,
                                                "order": 24
                                            }
                                        ],
                                        "depth": 2,
                                        "id": 23,
                                        "order": 23
                                    }
                                ],
                                "depth": 1,
                                "id": 21,
                                "order": 21
                            },
                            {
                                "children": [
                                    {
                                        "children": [],
                                        "depth": 2,
                                        "id": 26,
                                        "order": 26
                                    }
                                ],
                                "depth": 1,
                                "id": 25,
                                "order": 25
                            },
                            {
                                "children": [],
                                "depth": 1,
                                "id": 27,
                                "order": 27
                            },
                            {
                                "children": [],
                                "depth": 1,
                                "id": 28,
                                "order": 28
                            }
                        ],
                        "depth": 0,
                        "id": 0,
                        "order": 0
                    }
                ],
                "depth": -1,
                "id": -1,
                "order": -1
            }
        ],
        "mainTraceNodeCount": 29,
        "parentIdMap": {
            "0": -1,
            "1": 0,
            "10": 9,
            "11": 6,
            "12": 0,
            "13": 0,
            "14": 0,
            "15": 14,
            "16": 0,
            "17": 16,
            "18": 16,
            "19": 16,
            "2": 0,
            "20": 16,
            "21": 0,
            "22": 21,
            "23": 21,
            "24": 23,
            "25": 0,
            "26": 25,
            "27": 0,
            "28": 0,
            "3": 0,
            "4": 3,
            "5": 4,
            "6": 0,
            "7": 6,
            "8": 6,
            "9": 6
        },
        "tidyTrace": [
            {
                "children": [
                    {
                        "children": [
                            {
                                "children": [
                                    {
                                        "children": [],
                                        "depth": 2,
                                        "id": 8,
                                        "order": 8
                                    },
                                    {
                                        "children": [
                                            {
                                                "children": [],
                                                "depth": 3,
                                                "id": 10,
                                                "order": 10
                                            }
                                        ],
                                        "depth": 2,
                                        "id": 9,
                                        "order": 9
                                    },
                                    {
                                        "children": [],
                                        "depth": 2,
                                        "id": 11,
                                        "order": 11
                                    }
                                ],
                                "depth": 1,
                                "id": 6,
                                "order": 6
                            },
                            {
                                "children": [
                                    {
                                        "children": [],
                                        "depth": 2,
                                        "id": 15,
                                        "order": 15
                                    }
                                ],
                                "depth": 1,
                                "id": 14,
                                "order": 14
                            },
                            {
                                "children": [
                                    {
                                        "children": [],
                                        "depth": 2,
                                        "id": 19,
                                        "order": 19
                                    },
                                    {
                                        "children": [],
                                        "depth": 2,
                                        "id": 20,
                                        "order": 20
                                    }
                                ],
                                "depth": 1,
                                "id": 16,
                                "order": 16
                            },
                            {
                                "children": [
                                    {
                                        "children": [
                                            {
                                                "children": [],
                                                "depth": 3,
                                                "id": 24,
                                                "order": 24
                                            }
                                        ],
                                        "depth": 2,
                                        "id": 23,
                                        "order": 23
                                    }
                                ],
                                "depth": 1,
                                "id": 21,
                                "order": 21
                            },
                            {
                                "children": [
                                    {
                                        "children": [],
                                        "depth": 2,
                                        "id": 26,
                                        "order": 26
                                    }
                                ],
                                "depth": 1,
                                "id": 25,
                                "order": 25
                            },
                            {
                                "children": [],
                                "depth": 1,
                                "id": 27,
                                "order": 27
                            },
                            {
                                "children": [],
                                "depth": 1,
                                "id": 28,
                                "order": 28
                            }
                        ],
                        "depth": 0,
                        "id": 0,
                        "order": 0
                    }
                ],
                "depth": -1,
                "id": -1,
                "order": -1
            }
        ],
        "tidyTraceNodeCount": 18
    },
    "state_change": {
        "stateChanges": [
            {
                "address": "0x00000000000c2e074ec69a0dfb2997ba6c7d2e1e",
                "erc": "",
                "slots": [
                    {
                        "current": "0x000000000000000000000000e766aa312cbe1f99200773dc6a3465d054a4a5c1",
                        "key": "0x6ad9bb784af8066019d0f09ccbf8c0ad689482cec85207886bfeddc3c68b7c78",
                        "prev": "0x0000000000000000000000000000000000000000000000000000000000000000"
                    },
                    {
                        "current": "0x0000000000000000000000004976fb03c32e5b8cfe2b6ccb31c09ba78ebaba41",
                        "key": "0x6ad9bb784af8066019d0f09ccbf8c0ad689482cec85207886bfeddc3c68b7c79",
                        "prev": "0x0000000000000000000000000000000000000000000000000000000000000000"
                    }
                ],
                "storageVariables": [
                    {
                        "name": "records",
                        "type": "mapping(bytes32 => struct ENSRegistry.Record)",
                        "value": {
                            "pairs": [
                                {
                                    "key": "0x733a3055bf015e14638f5f220d1116d2db786d9446fee8da8572cc797bfed384",
                                    "value": {
                                        "fields": [
                                            {
                                                "name": "owner",
                                                "type": "address",
                                                "value": {
                                                    "current": "0xe766aa312cbe1f99200773dc6a3465d054a4a5c1",
                                                    "prev": "0x0000000000000000000000000000000000000000",
                                                    "typeTag": 1
                                                }
                                            },
                                            {
                                                "name": "resolver",
                                                "type": "address",
                                                "value": {
                                                    "current": "0x4976fb03c32e5b8cfe2b6ccb31c09ba78ebaba41",
                                                    "prev": "0x0000000000000000000000000000000000000000",
                                                    "typeTag": 1
                                                }
                                            },
                                            {
                                                "name": "ttl",
                                                "type": "uint64",
                                                "value": {
                                                    "current": "0",
                                                    "prev": "0",
                                                    "typeTag": 1
                                                }
                                            }
                                        ],
                                        "typeTag": 3
                                    }
                                }
                            ],
                            "typeTag": 4
                        }
                    }
                ]
            },
            {
                "address": "0x283af0b28c62c092c9727f1ee09c02ca627eb7f5",
                "erc": "",
                "slots": [
                    {
                        "current": "0x0000000000000000000000000000000000000000000000000000000000000000",
                        "key": "0xcf6489823be98b367f42f2d48a339621352aabb2c6cae0d165ae717b03f56a44",
                        "prev": "0x0000000000000000000000000000000000000000000000000000000062d7e130"
                    }
                ],
                "storageVariables": [
                    {
                        "name": "commitments",
                        "type": "mapping(bytes32 => uint256)",
                        "value": {
                            "pairs": [
                                {
                                    "key": "0xbd3a172d0ecb8ab788580cc7dc9cabc8445d83609115649864d84dfc67a068d2",
                                    "value": {
                                        "current": "0",
                                        "prev": "1658315056",
                                        "typeTag": 1
                                    }
                                }
                            ],
                            "typeTag": 4
                        }
                    }
                ]
            },
            {
                "address": "0x4976fb03c32e5b8cfe2b6ccb31c09ba78ebaba41",
                "erc": "",
                "slots": [
                    {
                        "current": "0xe766aa312cbe1f99200773dc6a3465d054a4a5c1000000000000000000000028",
                        "key": "0x8d827481f833c990d5fe09ce3da7d4fe58af240c9ddcb421584ee662ecaa762b",
                        "prev": "0x0000000000000000000000000000000000000000000000000000000000000000"
                    }
                ],
                "storageVariables": [
                    {
                        "name": "_addresses",
                        "type": "mapping(bytes32 => mapping(uint256 => bytes))",
                        "value": {
                            "pairs": [
                                {
                                    "key": "0x733a3055bf015e14638f5f220d1116d2db786d9446fee8da8572cc797bfed384",
                                    "value": {
                                        "pairs": [
                                            {
                                                "key": "60",
                                                "value": {
                                                    "current": "0xe766aa312cbe1f99200773dc6a3465d054a4a5c1",
                                                    "prev": "0x",
                                                    "typeTag": 1
                                                }
                                            }
                                        ],
                                        "typeTag": 4
                                    }
                                }
                            ],
                            "typeTag": 4
                        }
                    }
                ]
            },
            {
                "address": "0x57f1887a8bf19b14fc0df6fd9b2acc9af147ea85",
                "erc": "ERC-721",
                "slots": [
                    {
                        "current": "0x0000000000000000000000000000000000000000000000000000000064b96774",
                        "key": "0x502239ca9d81b7cb516f4d3040226db2ae478ee35a0e14742c87d035f8a1a485",
                        "prev": "0x0000000000000000000000000000000000000000000000000000000000000000"
                    },
                    {
                        "current": "0x000000000000000000000000e766aa312cbe1f99200773dc6a3465d054a4a5c1",
                        "key": "0x6db0024c912eff685ae053cea3ce21593ae43e2ac08aa7c42daa35ee6e1cfca4",
                        "prev": "0x0000000000000000000000000000000000000000000000000000000000000000"
                    },
                    {
                        "current": "0x000000000000000000000000000000000000000000000000000000000000025c",
                        "key": "0xf7aef7c3281d7386e57f594d9a4e951f1e8ed4cb1907fc8de747c31e738bb972",
                        "prev": "0x000000000000000000000000000000000000000000000000000000000000025b"
                    }
                ],
                "storageVariables": [
                    {
                        "name": "_tokenOwner",
                        "type": "mapping(uint256 => address)",
                        "value": {
                            "pairs": [
                                {
                                    "key": "11261819720574241376580926317004811901290400244084354718363279482130993826173",
                                    "value": {
                                        "current": "0xe766aa312cbe1f99200773dc6a3465d054a4a5c1",
                                        "prev": "0x0000000000000000000000000000000000000000",
                                        "typeTag": 1
                                    }
                                }
                            ],
                            "typeTag": 4
                        }
                    },
                    {
                        "name": "_ownedTokensCount",
                        "type": "mapping(address => uint256)",
                        "value": {
                            "pairs": [
                                {
                                    "key": "0xe766aa312cbe1f99200773dc6a3465d054a4a5c1",
                                    "value": {
                                        "current": "604",
                                        "prev": "603",
                                        "typeTag": 1
                                    }
                                }
                            ],
                            "typeTag": 4
                        }
                    },
                    {
                        "name": "expiries",
                        "type": "mapping(uint256 => uint256)",
                        "value": {
                            "pairs": [
                                {
                                    "key": "11261819720574241376580926317004811901290400244084354718363279482130993826173",
                                    "value": {
                                        "current": "1689872244",
                                        "prev": "0",
                                        "typeTag": 1
                                    }
                                }
                            ],
                            "typeTag": 4
                        }
                    }
                ]
            }
        ]
    }
}