{
    "balance_change": {
        "balanceChanges": []
    },
    "profile": {
        "basic_info": {
            "baseFee": "",
            "blockNumber": 8837051,
            "callData": "0x71b773440000000000000000000000000000000000000000000000000000000000000040000000000000000000000000000000000000000000000000000000005db8d4a500000000000000000000000000000000000000000000000000000000000000415d2a982c37517a45ad8f3b5c11f7dfc79d7df68ea0a1b01df37a8de7fb174f0f00c1177aec278eadd5875e8d04b9bb291fcf18d03a9b3dd4bdbc22091d3b249b0000000000000000000000000000000000000000000000000000000000000000",
            "debugEnable": true,
            "errorInfo": "",
            "eventCount": 1,
            "feeRecipient": "0xea674fdde714fd979de3edf0f56aa9716b898ec8",
            "formatValue": "0",
            "gasLimit": 40044,
            "gasPrice": "1.020278454",
            "gasUsed": 40044,
            "intTxnCount": 1,
            "internalRevert": false,
            "internalRevertMessage": "",
            "isContractCreation": false,
            "isFlashloan": false,
            "maxFee": "",
            "nonce": 115,
            "overwritedBlockNumber": -1,
            "priorityFee": "",
            "receiver": "0x5e07b6f1b98a11f7e04e7ffa8707b63f1c177753",
            "revertMessage": "",
            "sender": "0xf4dbfa9dc428d5cd79148ec2483d54c29a83e492",
            "simulationEnable": true,
            "sourceTxnHash": "0x24bea2275c023f09e3f38e9f3e8f4b135e98d618c05aee036d21b45b91fd9730",
            "status": true,
            "timestamp": "2019-10-30T00:09:48Z",
            "transactionFee": "0.000040856030411976",
            "txnHash": "0x24bea2275c023f09e3f38e9f3e8f4b135e98d618c05aee036d21b45b91fd9730",
            "txnIndex": 75,
            "type": 0,
            "value": "0"
        },
        "fund_flow": [],
        "token_infos": [
            {
                "address": "0xc02aaa39b223fe8d0a0e5c4f27ead9083c756cc2",
                "decimals": 18
            },
            {
                "address": "0xeeeeeeeeeeeeeeeeeeeeeeeeeeeeeeeeeeeeeeee",
                "decimals": 18
            }
        ]
    },
    "address_label": {
        "labels": [
            {
                "address": "0xeeeeeeeeeeeeeeeeeeeeeeeeeeeeeeeeeeeeeeee",
                "label": "Ether"
            },
            {
                "address": "0x5e07b6f1b98a11f7e04e7ffa8707b63f1c177753",
                "label": "MCH: Daily Action 3"
            },
            {
                "address": "0x0000000000000000000000000000000000000001",
                "label": "Precompiled"
            },
            {
                "address": "0x0000000000000000000000000000000000000002",
                "label": "Precompiled"
            },
            {
                "address": "0x0000000000000000000000000000000000000003",
                "label": "Precompiled"
            },
            {
                "address": "0x0000000000000000000000000000000000000004",
                "label": "Precompiled"
            }
        ]
    },
    "trace": {
        "accountLabels": null,
        "dataMap": {
            "-1": {
                "invocation": {
                    "address": "0xf4dbfa9dc428d5cd79148ec2483d54c29a83e492",
                    "callData": "",
                    "decodedMethod": null,
                    "errorInfo": "",
                    "fromAddress": "",
                    "gasUsed": 0,
                    "id": -1,
                    "methodDecoded": false,
                    "operation": "",
                    "output": "",
                    "revert": false,
                    "revertMessage": "",
                    "selector": "",
                    "status": false,
                    "value": ""
                },
                "nodeType": 0
            },
            "0": {
                "invocation": {
                    "address": "0x5e07b6f1b98a11f7e04e7ffa8707b63f1c177753",
                    "callData": "0x0000000000000000000000000000000000000000000000000000000000000040000000000000000000000000000000000000000000000000000000005db8d4a500000000000000000000000000000000000000000000000000000000000000415d2a982c37517a45ad8f3b5c11f7dfc79d7df68ea0a1b01df37a8de7fb174f0f00c1177aec278eadd5875e8d04b9bb291fcf18d03a9b3dd4bdbc22091d3b249b0000000000000000000000000000000000000000000000000000000000000000",
                    "decodedMethod": {
                        "callParams": [
                            {
                                "name": "_signature",
                                "type": "bytes",
                                "value": "0x5d2a982c37517a45ad8f3b5c11f7dfc79d7df68ea0a1b01df37a8de7fb174f0f00c1177aec278eadd5875e8d04b9bb291fcf18d03a9b3dd4bdbc22091d3b249b00"
                            },
                            {
                                "name": "_time",
                                "type": "int64",
                                "value": "1,572,394,149"
                            }
                        ],
                        "constructorArguments": "",
                        "name": "requestDailyActionReward",
                        "returnParams": [],
                        "signature": "requestDailyActionReward(bytes,int64)"
                    },
                    "errorInfo": "",
                    "fromAddress": "0xf4dbfa9dc428d5cd79148ec2483d54c29a83e492",
                    "gasUsed": 40044,
                    "id": 0,
                    "methodDecoded": true,
                    "operation": "CALL",
                    "output": "",
                    "revert": false,
                    "revertMessage": "",
                    "selector": "0x71b77344",
                    "status": true,
                    "value": "0"
                },
                "nodeType": 0
            },
            "1": {
                "invocation": {
                    "address": "0x0000000000000000000000000000000000000001",
                    "callData": "0x1c666c61a7ebeefe2206c16fdbc52002b90720a6ed858013ccbd77fd000000000000000000000000000000000000000000000000000000000000001b5d2a982c37517a45ad8f3b5c11f7dfc79d7df68ea0a1b01df37a8de7fb174f0f00c1177aec278eadd5875e8d04b9bb291fcf18d03a9b3dd4bdbc22091d3b249b",
                    "decodedMethod": {
                        "callParams": [
                            {
                                "name": "hash",
                                "type": "bytes32",
                                "value": "0xb82e921b1c666c61a7ebeefe2206c16fdbc52002b90720a6ed858013ccbd77fd"
                            },
                            {
                                "name": "v",
                                "type": "uint256",
                                "value": "27"
                            },
                            {
                                "name": "r",
                                "type": "bytes32",
                                "value": "0x5d2a982c37517a45ad8f3b5c11f7dfc79d7df68ea0a1b01df37a8de7fb174f0f"
                            },
                            {
                                "name": "s",
                                "type": "bytes32",
                                "value": "0x00c1177aec278eadd5875e8d04b9bb291fcf18d03a9b3dd4bdbc22091d3b249b"
                            }
                        ],
                        "constructorArguments": "",
                        "name": "ecrecover",
                        "returnParams": [
                            {
                                "name": "",
                                "type": "address",
                                "value": "0x984e7b0f2cb06b847dd465eec65a3a41c1e27c06"
                            }
                        ],
                        "signature": "ecrecover(bytes32,uint256,bytes32,bytes32)"
                    },
                    "errorInfo": "",
                    "fromAddress": "0x5e07b6f1b98a11f7e04e7ffa8707b63f1c177753",
                    "gasUsed": 3000,
                    "id": 1,
                    "methodDecoded": true,
                    "operation": "STATICCALL",
                    "output": "0x000000000000000000000000984e7b0f2cb06b847dd465eec65a3a41c1e27c06",
                    "revert": false,
                    "revertMessage": "",
                    "selector": "0xb82e921b",
                    "status": true,
                    "value": "0"
                },
                "nodeType": 0
            },
            "2": {
                "event": {
                    "contract": "0x5e07b6f1b98a11f7e04e7ffa8707b63f1c177753",
                    "decodedLog": {
                        "name": "Action",
                        "params": [
                            {
                                "name": "user",
                                "type": "address",
                                "value": "0xf4dbfa9dc428d5cd79148ec2483d54c29a83e492"
                            },
                            {
                                "name": "at",
                                "type": "int64",
                                "value": "1,572,394,149"
                            }
                        ],
                        "signature": "Action(address,int64)"
                    },
                    "id": 2,
                    "logData": "0x000000000000000000000000000000000000000000000000000000005db8d4a5",
                    "logDecoded": true,
                    "operation": "EVENT",
                    "revert": false,
                    "status": true,
                    "topics": [
                        "0x708861da4aa6afa7c59ec1b6595bfacef3b852515c06faafba359c70bc640e8c",
                        "0x000000000000000000000000f4dbfa9dc428d5cd79148ec2483d54c29a83e492"
                    ]
                },
                "nodeType": 1
            }
        },
        "gasFlame": [
            {
                "children": [
                    {
                        "children": [
                            {
                                "children": [],
                                "depth": 0,
                                "name": "Initial Gas",
                                "value": 26456
                            },
                            {
                                "children": [
                                    {
                                        "children": [],
                                        "depth": 1,
                                        "name": "ecrecover",
                                        "value": 3000
                                    }
                                ],
                                "depth": 0,
                                "name": "Executed Gas",
                                "value": 13588
                            }
                        ],
                        "depth": -1,
                        "name": "Actual Gas Used",
                        "value": 40044
                    },
                    {
                        "children": [],
                        "depth": -1,
                        "name": "Refunded Gas",
                        "value": 0
                    }
                ],
                "depth": -2,
                "name": "Total Gas",
                "value": 40044
            }
        ],
        "isConfirmed": true,
        "mainTrace": [
            {
                "children": [
                    {
                        "children": [
                            {
                                "children": [],
                                "depth": 1,
                                "id": 1,
                                "order": 1
                            },
                            {
                                "children": [],
                                "depth": 1,
                                "id": 2,
                                "order": 2
                            }
                        ],
                        "depth": 0,
                        "id": 0,
                        "order": 0
                    }
                ],
                "depth": -1,
                "id": -1,
                "order": -1
            }
        ],
        "mainTraceNodeCount": 3,
        "parentIdMap": {
            "0": -1,
            "1": 0,
            "2": 0
        },
        "tidyTrace": [
            {
                "children": [
                    {
                        "children": [
                            {
                                "children": [],
                                "depth": 1,
                                "id": 2,
                                "order": 2
                            }
                        ],
                        "depth": 0,
                        "id": 0,
                        "order": 0
                    }
                ],
                "depth": -1,
                "id": -1,
                "order": -1
            }
        ],
        "tidyTraceNodeCount": 2
    },
    "state_change": {
        "stateChanges": [
            {
                "address": "0x5e07b6f1b98a11f7e04e7ffa8707b63f1c177753",
                "erc": "",
                "slots": [
                    {
                        "current": "0x0000000000000000000000000000000000000000000000000000000000004717",
                        "key": "0x1c88364817598237ff6d78b86ec9e6c941e478bc9351179855bb1427daf7c1b7",
                        "prev": "0x0000000000000000000000000000000000000000000000000000000000004716"
                    }
                ],
                "storageVariables": [
                    {
                        "name": "lastActionDate",
                        "type": "mapping(address => int64)",
                        "value": {
                            "pairs": [
                                {
                                    "key": "0xf4dbfa9dc428d5cd79148ec2483d54c29a83e492",
                                    "value": {
                                        "current": "18199",
                                        "prev": "18198",
                                        "typeTag": 1
                                    }
                                }
                            ],
                            "typeTag": 4
                        }
                    }
                ]
            }
        ]
    }
}