{
    "balance_change": {
        "balanceChanges": [
            {
                "account": "0xbca6068d1e0249ce592b293cc9c38d048d1180f9",
                "assets": [
                    {
                        "address": "0xeeeeeeeeeeeeeeeeeeeeeeeeeeeeeeeeeeeeeeee",
                        "amount": "0.118",
                        "iconUrl": "https://assets.blocksec.com/image/1663669189317-3.png",
                        "isERC1155": false,
                        "isERC721": false,
                        "sign": false,
                        "value": "216.75538000000000967"
                    },
                    {
                        "address": "0xce9ca012fa55a8b1e540df35f6c77203812df523",
                        "amount": "1",
                        "iconUrl": "",
                        "isERC1155": false,
                        "isERC721": true,
                        "sign": true,
                        "tokenID": "1431",
                        "value": ""
                    }
                ]
            },
            {
                "account": "0x528bdb07e14e0d7dd641524393aa1f4f815c2e0c",
                "assets": [
                    {
                        "address": "0xeeeeeeeeeeeeeeeeeeeeeeeeeeeeeeeeeeeeeeee",
                        "amount": "0.1121",
                        "iconUrl": "https://assets.blocksec.com/image/1663669189317-3.png",
                        "isERC1155": false,
                        "isERC721": false,
                        "sign": true,
                        "value": "205.91761100000000917"
                    },
                    {
                        "address": "0xce9ca012fa55a8b1e540df35f6c77203812df523",
                        "amount": "1",
                        "iconUrl": "",
                        "isERC1155": false,
                        "isERC721": true,
                        "sign": false,
                        "tokenID": "1431",
                        "value": ""
                    }
                ]
            },
            {
                "account": "0xe1d1fef5ec32bc6328bbf80f1863905602c80acf",
                "assets": [
                    {
                        "address": "0xeeeeeeeeeeeeeeeeeeeeeeeeeeeeeeeeeeeeeeee",
                        "amount": "0.0059",
                        "iconUrl": "https://assets.blocksec.com/image/1663669189317-3.png",
                        "isERC1155": false,
                        "isERC721": false,
                        "sign": true,
                        "value": "10.837769000000000483"
                    }
                ]
            }
        ]
    },
    "profile": {
        "basic_info": {
            "baseFee": "19.332576981",
            "blockNumber": 16863489,
            "callData": "0x9a1fc3a7000000000000000000000000000000000000000000000000000000000000004000000000000000000000000000000000000000000000000000000000000003e000000000000000000000000000000000000000000000000000000000000000e0000000000000000000000000000000000000000000000000000000000000001c7358c19524482e102cfef9900e6ffdcc9e1fc26a16ed36952885faa42f2701277f09041bf0297b9b8d2797dca70645ed6c277ef7d6d68912b35ebe78e710ec9a0000000000000000000000000000000000000000000000000000000000000320000000000000000000000000000000000000000000000000000000000000000000000000000000000000000000000000000000000000000000000000010150fe000000000000000000000000528bdb07e14e0d7dd641524393aa1f4f815c2e0c00000000000000000000000000000000000000000000000000000000000000010000000000000000000000000000000000dab4a563819e8fd93dba3b25bc3495000000000000000000000000ce9ca012fa55a8b1e540df35f6c77203812df52300000000000000000000000000000000000000000000000000000000000005970000000000000000000000000000000000000000000000000000000000000001000000000000000000000000000000000000000000000000000000000000000000000000000000000000000000000000000000000000000001a3385ff37f0000000000000000000000000000000000000000000000000000000000006415db8900000000000000000000000000000000000000000000000000000000641f160900000000000000000000000000000000000000000000000000000000000001a0000000000000000000000000000000002f73960b917568f6499f5fb5d7ac9bd50000000000000000000000000000000000000000000000000000000000000200000000000000000000000000000000000000000000000000000000000000000100000000000000000000000000000000000000000000000000000000000001f4000000000000000000000000e1d1fef5ec32bc6328bbf80f1863905602c80acf000000000000000000000000000000000000000000000000000000000000000101000000000000000000000000000000000000000000000000000000000000000000000000000000000000000000000000000000000000000000000000000060000000000000000000000000000000000000000000000000000000000000001b389c339e335be1248ed64f3e3b71ce1ac9bcb674bb62e835367b5509a8be58891ad1fa4def166390ef1182b9cc603b8598a427a753e25beb77d17643e9c3cd3700000000000000000000000000000000000000000000000000000000000000e000000000000000000000000000000000000000000000000000000000000000000000000000000000000000000000000000000000000000000000000000000000000000000000000000000000000000000000000000000000000000000000000000000000000000000000000000000000000000000000000000000000000002e0000000000000000000000000000000000000000000000000000000000000000000000000000000000000000000000000000000000000000000000000010150fe000000000000000000000000bca6068d1e0249ce592b293cc9c38d048d1180f900000000000000000000000000000000000000000000000000000000000000000000000000000000000000000000000000dab4a563819e8fd93dba3b25bc3495000000000000000000000000ce9ca012fa55a8b1e540df35f6c77203812df52300000000000000000000000000000000000000000000000000000000000005970000000000000000000000000000000000000000000000000000000000000001000000000000000000000000000000000000000000000000000000000000000000000000000000000000000000000000000000000000000001a3385ff37f0000000000000000000000000000000000000000000000000000000000006415db8a0000000000000000000000000000000000000000000000000000000064175ffa00000000000000000000000000000000000000000000000000000000000001a0000000000000000000000000000000003f310e00cc82bda107def0db913224c900000000000000000000000000000000000000000000000000000000000001c00000000000000000000000000000000000000000000000000000000000000000000000000000000000000000000000000000000000000000000000000000000101000000000000000000000000000000000000000000000000000000000000000000000000000000000000000000000000000000000000000000000000000060000000000000000000000000000000000000000000000000000000000000001bf33a95d2d0537ed38dd47c3d6ba65e1ad7623a201f2d63cc5a4c92550d2422ab32880c58deb513f67e84e3e354b5d51847ed5bd3211b037620b05aff61991be5",
            "debugEnable": true,
            "errorInfo": "",
            "eventCount": 2,
            "feeRecipient": "0xdafea492d9c6733ae3d56b7ed1adb60692c98bc5",
            "formatValue": "0.118",
            "gasLimit": 416792,
            "gasPrice": "20.832576981",
            "gasUsed": 247234,
            "intTxnCount": 13,
            "internalRevert": false,
            "internalRevertMessage": "",
            "isContractCreation": false,
            "isFlashloan": false,
            "maxFee": "30.496205476",
            "nonce": 2150,
            "overwritedBlockNumber": -1,
            "priorityFee": "1.5",
            "receiver": "0x000000000000ad05ccc4f10045630fb830b95127",
            "revertMessage": "",
            "sender": "0xbca6068d1e0249ce592b293cc9c38d048d1180f9",
            "simulationEnable": true,
            "sourceTxnHash": "0x24231f5b29f9f3b5e2be05ae06e7c2ce4d8881dffa84bf8475ad5616f6814257",
            "status": true,
            "timestamp": "2023-03-19T18:18:35Z",
            "transactionFee": "0.005150521337320554",
            "txnHash": "0x24231f5b29f9f3b5e2be05ae06e7c2ce4d8881dffa84bf8475ad5616f6814257",
            "txnIndex": 56,
            "type": 2,
            "value": "118000000000000000"
        },
        "fund_flow": [
            {
                "amount": "0.118",
                "from": "0xbca6068d1e0249ce592b293cc9c38d048d1180f9",
                "id": 1,
                "isERC1155": false,
                "isERC721": false,
                "isReverted": false,
                "order": 1,
                "to": "0x000000000000ad05ccc4f10045630fb830b95127",
                "token": "0xeeeeeeeeeeeeeeeeeeeeeeeeeeeeeeeeeeeeeeee"
            },
            {
                "amount": "0.0059",
                "from": "0x000000000000ad05ccc4f10045630fb830b95127",
                "id": 2,
                "isERC1155": false,
                "isERC721": false,
                "isReverted": false,
                "order": 2,
                "to": "0xe1d1fef5ec32bc6328bbf80f1863905602c80acf",
                "token": "0xeeeeeeeeeeeeeeeeeeeeeeeeeeeeeeeeeeeeeeee"
            },
            {
                "amount": "0.1121",
                "from": "0x000000000000ad05ccc4f10045630fb830b95127",
                "id": 3,
                "isERC1155": false,
                "isERC721": false,
                "isReverted": false,
                "order": 3,
                "to": "0x528bdb07e14e0d7dd641524393aa1f4f815c2e0c",
                "token": "0xeeeeeeeeeeeeeeeeeeeeeeeeeeeeeeeeeeeeeeee"
            },
            {
                "amount": "1",
                "from": "0x528bdb07e14e0d7dd641524393aa1f4f815c2e0c",
                "id": 4,
                "isERC1155": false,
                "isERC721": true,
                "isReverted": false,
                "order": 4,
                "to": "0xbca6068d1e0249ce592b293cc9c38d048d1180f9",
                "token": "0xce9ca012fa55a8b1e540df35f6c77203812df523",
                "tokenID": "1431"
            }
        ],
        "token_infos": [
            {
                "address": "0xc02aaa39b223fe8d0a0e5c4f27ead9083c756cc2",
                "decimals": 18
            },
            {
                "address": "0xeeeeeeeeeeeeeeeeeeeeeeeeeeeeeeeeeeeeeeee",
                "decimals": 18
            }
        ]
    },
    "address_label": {
        "labels": [
            {
                "address": "0xeeeeeeeeeeeeeeeeeeeeeeeeeeeeeeeeeeeeeeee",
                "label": "Ether"
            },
            {
                "address": "0x000000000000ad05ccc4f10045630fb830b95127",
                "label": "Blur.io: Marketplace"
            },
            {
                "address": "0x0000000000000000000000000000000000000000",
                "label": "Null Address"
            },
            {
                "address": "0x0000000000dab4a563819e8fd93dba3b25bc3495",
                "label": "StandardPolicyERC721"
            },
            {
                "address": "0x0000000000000000000000000000000000000003",
                "label": "Precompiled"
            },
            {
                "address": "0x00000000000111abe46ff893f3b2fdf1f759a8a8",
                "label": "Blur: Execution Delegate"
            },
            {
                "address": "0x983e96c26782a8db500a6fb8ab47a52e1b44862d",
                "label": "BlurExchange"
            },
            {
                "address": "0xce9ca012fa55a8b1e540df35f6c77203812df523",
                "label": "Crypto Coaster: RIDE Token"
            },
            {
                "address": "0x0000000000000000000000000000000000000004",
                "label": "Precompiled"
            },
            {
                "address": "0xe1d1fef5ec32bc6328bbf80f1863905602c80acf",
                "label": "Crypto Coaster: Deployer"
            },
            {
                "address": "0x3a35a3102b5c6bd1e4d3237248be071ef53c8331",
                "label": "PolicyManager"
            },
            {
                "address": "0x000000000000aaeb6d7670e522a718067333cd4e",
                "label": "OperatorFilterRegistry"
            },
            {
                "address": "0x0000000000000000000000000000000000000002",
                "label": "Precompiled"
            },
            {
                "address": "0x0000000000000000000000000000000000000001",
                "label": "Precompiled"
            }
        ]
    },
    "trace": {
        "accountLabels": null,
        "dataMap": {
            "-1": {
                "invocation": {
                    "address": "0xbca6068d1e0249ce592b293cc9c38d048d1180f9",
                    "callData": "",
                    "decodedMethod": null,
                    "errorInfo": "",
                    "fromAddress": "",
                    "gasUsed": 0,
                    "id": -1,
                    "methodDecoded": false,
                    "operation": "",
                    "output": "",
                    "revert": false,
                    "revertMessage": "",
                    "selector": "",
                    "status": false,
                    "value": ""
                },
                "nodeType": 0
            },
            "0": {
                "invocation": {
                    "address": "0x000000000000ad05ccc4f10045630fb830b95127",
                    "callData": "0x000000000000000000000000000000000000000000000000000000000000004000000000000000000000000000000000000000000000000000000000000003e000000000000000000000000000000000000000000000000000000000000000e0000000000000000000000000000000000000000000000000000000000000001c7358c19524482e102cfef9900e6ffdcc9e1fc26a16ed36952885faa42f2701277f09041bf0297b9b8d2797dca70645ed6c277ef7d6d68912b35ebe78e710ec9a0000000000000000000000000000000000000000000000000000000000000320000000000000000000000000000000000000000000000000000000000000000000000000000000000000000000000000000000000000000000000000010150fe000000000000000000000000528bdb07e14e0d7dd641524393aa1f4f815c2e0c00000000000000000000000000000000000000000000000000000000000000010000000000000000000000000000000000dab4a563819e8fd93dba3b25bc3495000000000000000000000000ce9ca012fa55a8b1e540df35f6c77203812df52300000000000000000000000000000000000000000000000000000000000005970000000000000000000000000000000000000000000000000000000000000001000000000000000000000000000000000000000000000000000000000000000000000000000000000000000000000000000000000000000001a3385ff37f0000000000000000000000000000000000000000000000000000000000006415db8900000000000000000000000000000000000000000000000000000000641f160900000000000000000000000000000000000000000000000000000000000001a0000000000000000000000000000000002f73960b917568f6499f5fb5d7ac9bd50000000000000000000000000000000000000000000000000000000000000200000000000000000000000000000000000000000000000000000000000000000100000000000000000000000000000000000000000000000000000000000001f4000000000000000000000000e1d1fef5ec32bc6328bbf80f1863905602c80acf000000000000000000000000000000000000000000000000000000000000000101000000000000000000000000000000000000000000000000000000000000000000000000000000000000000000000000000000000000000000000000000060000000000000000000000000000000000000000000000000000000000000001b389c339e335be1248ed64f3e3b71ce1ac9bcb674bb62e835367b5509a8be58891ad1fa4def166390ef1182b9cc603b8598a427a753e25beb77d17643e9c3cd3700000000000000000000000000000000000000000000000000000000000000e000000000000000000000000000000000000000000000000000000000000000000000000000000000000000000000000000000000000000000000000000000000000000000000000000000000000000000000000000000000000000000000000000000000000000000000000000000000000000000000000000000000000002e0000000000000000000000000000000000000000000000000000000000000000000000000000000000000000000000000000000000000000000000000010150fe000000000000000000000000bca6068d1e0249ce592b293cc9c38d048d1180f900000000000000000000000000000000000000000000000000000000000000000000000000000000000000000000000000dab4a563819e8fd93dba3b25bc3495000000000000000000000000ce9ca012fa55a8b1e540df35f6c77203812df52300000000000000000000000000000000000000000000000000000000000005970000000000000000000000000000000000000000000000000000000000000001000000000000000000000000000000000000000000000000000000000000000000000000000000000000000000000000000000000000000001a3385ff37f0000000000000000000000000000000000000000000000000000000000006415db8a0000000000000000000000000000000000000000000000000000000064175ffa00000000000000000000000000000000000000000000000000000000000001a0000000000000000000000000000000003f310e00cc82bda107def0db913224c900000000000000000000000000000000000000000000000000000000000001c00000000000000000000000000000000000000000000000000000000000000000000000000000000000000000000000000000000000000000000000000000000101000000000000000000000000000000000000000000000000000000000000000000000000000000000000000000000000000000000000000000000000000060000000000000000000000000000000000000000000000000000000000000001bf33a95d2d0537ed38dd47c3d6ba65e1ad7623a201f2d63cc5a4c92550d2422ab32880c58deb513f67e84e3e354b5d51847ed5bd3211b037620b05aff61991be5",
                    "decodedMethod": {
                        "callParams": [
                            {
                                "name": "sell",
                                "type": "((address,uint8,address,address,uint256,uint256,address,uint256,uint256,uint256,(uint16,address)[],uint256,bytes),uint8,bytes32,bytes32,bytes,uint8,uint256)",
                                "value": [
                                    {
                                        "name": "order",
                                        "type": "(address,uint8,address,address,uint256,uint256,address,uint256,uint256,uint256,(uint16,address)[],uint256,bytes)",
                                        "value": [
                                            {
                                                "name": "trader",
                                                "type": "address",
                                                "value": "0x528bdb07e14e0d7dd641524393aa1f4f815c2e0c"
                                            },
                                            {
                                                "name": "side",
                                                "type": "uint8",
                                                "value": "1"
                                            },
                                            {
                                                "name": "matchingPolicy",
                                                "type": "address",
                                                "value": "0x0000000000dab4a563819e8fd93dba3b25bc3495"
                                            },
                                            {
                                                "name": "collection",
                                                "type": "address",
                                                "value": "0xce9ca012fa55a8b1e540df35f6c77203812df523"
                                            },
                                            {
                                                "name": "tokenId",
                                                "type": "uint256",
                                                "value": "1,431"
                                            },
                                            {
                                                "name": "amount",
                                                "type": "uint256",
                                                "value": "1"
                                            },
                                            {
                                                "name": "paymentToken",
                                                "type": "address",
                                                "value": "0x0000000000000000000000000000000000000000"
                                            },
                                            {
                                                "name": "price",
                                                "type": "uint256",
                                                "value": "118,000,000,000,000,000"
                                            },
                                            {
                                                "name": "listingTime",
                                                "type": "uint256",
                                                "value": "1,679,154,057"
                                            },
                                            {
                                                "name": "expirationTime",
                                                "type": "uint256",
                                                "value": "1,679,758,857"
                                            },
                                            {
                                                "name": "fees",
                                                "type": "(uint16,address)[]",
                                                "value": [
                                                    [
                                                        {
                                                            "name": "rate",
                                                            "type": "uint16",
                                                            "value": "500"
                                                        },
                                                        {
                                                            "name": "recipient",
                                                            "type": "address",
                                                            "value": "0xe1d1fef5ec32bc6328bbf80f1863905602c80acf"
                                                        }
                                                    ]
                                                ]
                                            },
                                            {
                                                "name": "salt",
                                                "type": "uint256",
                                                "value": "63,073,873,218,590,153,025,539,515,802,576,526,293"
                                            },
                                            {
                                                "name": "extraParams",
                                                "type": "bytes",
                                                "value": "0x01"
                                            }
                                        ]
                                    },
                                    {
                                        "name": "v",
                                        "type": "uint8",
                                        "value": "28"
                                    },
                                    {
                                        "name": "r",
                                        "type": "bytes32",
                                        "value": "0x7358c19524482e102cfef9900e6ffdcc9e1fc26a16ed36952885faa42f270127"
                                    },
                                    {
                                        "name": "s",
                                        "type": "bytes32",
                                        "value": "0x7f09041bf0297b9b8d2797dca70645ed6c277ef7d6d68912b35ebe78e710ec9a"
                                    },
                                    {
                                        "name": "extraSignature",
                                        "type": "bytes",
                                        "value": "0x000000000000000000000000000000000000000000000000000000000000001b389c339e335be1248ed64f3e3b71ce1ac9bcb674bb62e835367b5509a8be58891ad1fa4def166390ef1182b9cc603b8598a427a753e25beb77d17643e9c3cd37"
                                    },
                                    {
                                        "name": "signatureVersion",
                                        "type": "uint8",
                                        "value": "0"
                                    },
                                    {
                                        "name": "blockNumber",
                                        "type": "uint256",
                                        "value": "16,863,486"
                                    }
                                ]
                            },
                            {
                                "name": "buy",
                                "type": "((address,uint8,address,address,uint256,uint256,address,uint256,uint256,uint256,(uint16,address)[],uint256,bytes),uint8,bytes32,bytes32,bytes,uint8,uint256)",
                                "value": [
                                    {
                                        "name": "order",
                                        "type": "(address,uint8,address,address,uint256,uint256,address,uint256,uint256,uint256,(uint16,address)[],uint256,bytes)",
                                        "value": [
                                            {
                                                "name": "trader",
                                                "type": "address",
                                                "value": "0xbca6068d1e0249ce592b293cc9c38d048d1180f9"
                                            },
                                            {
                                                "name": "side",
                                                "type": "uint8",
                                                "value": "0"
                                            },
                                            {
                                                "name": "matchingPolicy",
                                                "type": "address",
                                                "value": "0x0000000000dab4a563819e8fd93dba3b25bc3495"
                                            },
                                            {
                                                "name": "collection",
                                                "type": "address",
                                                "value": "0xce9ca012fa55a8b1e540df35f6c77203812df523"
                                            },
                                            {
                                                "name": "tokenId",
                                                "type": "uint256",
                                                "value": "1,431"
                                            },
                                            {
                                                "name": "amount",
                                                "type": "uint256",
                                                "value": "1"
                                            },
                                            {
                                                "name": "paymentToken",
                                                "type": "address",
                                                "value": "0x0000000000000000000000000000000000000000"
                                            },
                                            {
                                                "name": "price",
                                                "type": "uint256",
                                                "value": "118,000,000,000,000,000"
                                            },
                                            {
                                                "name": "listingTime",
                                                "type": "uint256",
                                                "value": "1,679,154,058"
                                            },
                                            {
                                                "name": "expirationTime",
                                                "type": "uint256",
                                                "value": "1,679,253,498"
                                            },
                                            {
                                                "name": "fees",
                                                "type": "(uint16,address)[]",
                                                "value": []
                                            },
                                            {
                                                "name": "salt",
                                                "type": "uint256",
                                                "value": "83,996,070,297,545,355,527,986,283,850,981,582,025"
                                            },
                                            {
                                                "name": "extraParams",
                                                "type": "bytes",
                                                "value": "0x01"
                                            }
                                        ]
                                    },
                                    {
                                        "name": "v",
                                        "type": "uint8",
                                        "value": "0"
                                    },
                                    {
                                        "name": "r",
                                        "type": "bytes32",
                                        "value": "0x0000000000000000000000000000000000000000000000000000000000000000"
                                    },
                                    {
                                        "name": "s",
                                        "type": "bytes32",
                                        "value": "0x0000000000000000000000000000000000000000000000000000000000000000"
                                    },
                                    {
                                        "name": "extraSignature",
                                        "type": "bytes",
                                        "value": "0x000000000000000000000000000000000000000000000000000000000000001bf33a95d2d0537ed38dd47c3d6ba65e1ad7623a201f2d63cc5a4c92550d2422ab32880c58deb513f67e84e3e354b5d51847ed5bd3211b037620b05aff61991be5"
                                    },
                                    {
                                        "name": "signatureVersion",
                                        "type": "uint8",
                                        "value": "0"
                                    },
                                    {
                                        "name": "blockNumber",
                                        "type": "uint256",
                                        "value": "16,863,486"
                                    }
                                ]
                            }
                        ],
                        "constructorArguments": "",
                        "name": "execute",
                        "returnParams": [],
                        "signature": "execute(((address,uint8,address,address,uint256,uint256,address,uint256,uint256,uint256,(uint16,address)[],uint256,bytes),uint8,bytes32,bytes32,bytes,uint8,uint256),((address,uint8,address,address,uint256,uint256,address,uint256,uint256,uint256,(uint16,address)[],uint256,bytes),uint8,bytes32,bytes32,bytes,uint8,uint256))"
                    },
                    "errorInfo": "",
                    "fromAddress": "0xbca6068d1e0249ce592b293cc9c38d048d1180f9",
                    "gasUsed": 247234,
                    "id": 0,
                    "methodDecoded": true,
                    "operation": "CALL",
                    "output": "",
                    "revert": false,
                    "revertMessage": "",
                    "selector": "0x9a1fc3a7",
                    "status": true,
                    "value": "0.118"
                },
                "nodeType": 0
            },
            "1": {
                "invocation": {
                    "address": "0x983e96c26782a8db500a6fb8ab47a52e1b44862d",
                    "callData": "0x000000000000000000000000000000000000000000000000000000000000004000000000000000000000000000000000000000000000000000000000000003e000000000000000000000000000000000000000000000000000000000000000e0000000000000000000000000000000000000000000000000000000000000001c7358c19524482e102cfef9900e6ffdcc9e1fc26a16ed36952885faa42f2701277f09041bf0297b9b8d2797dca70645ed6c277ef7d6d68912b35ebe78e710ec9a0000000000000000000000000000000000000000000000000000000000000320000000000000000000000000000000000000000000000000000000000000000000000000000000000000000000000000000000000000000000000000010150fe000000000000000000000000528bdb07e14e0d7dd641524393aa1f4f815c2e0c00000000000000000000000000000000000000000000000000000000000000010000000000000000000000000000000000dab4a563819e8fd93dba3b25bc3495000000000000000000000000ce9ca012fa55a8b1e540df35f6c77203812df52300000000000000000000000000000000000000000000000000000000000005970000000000000000000000000000000000000000000000000000000000000001000000000000000000000000000000000000000000000000000000000000000000000000000000000000000000000000000000000000000001a3385ff37f0000000000000000000000000000000000000000000000000000000000006415db8900000000000000000000000000000000000000000000000000000000641f160900000000000000000000000000000000000000000000000000000000000001a0000000000000000000000000000000002f73960b917568f6499f5fb5d7ac9bd50000000000000000000000000000000000000000000000000000000000000200000000000000000000000000000000000000000000000000000000000000000100000000000000000000000000000000000000000000000000000000000001f4000000000000000000000000e1d1fef5ec32bc6328bbf80f1863905602c80acf000000000000000000000000000000000000000000000000000000000000000101000000000000000000000000000000000000000000000000000000000000000000000000000000000000000000000000000000000000000000000000000060000000000000000000000000000000000000000000000000000000000000001b389c339e335be1248ed64f3e3b71ce1ac9bcb674bb62e835367b5509a8be58891ad1fa4def166390ef1182b9cc603b8598a427a753e25beb77d17643e9c3cd3700000000000000000000000000000000000000000000000000000000000000e000000000000000000000000000000000000000000000000000000000000000000000000000000000000000000000000000000000000000000000000000000000000000000000000000000000000000000000000000000000000000000000000000000000000000000000000000000000000000000000000000000000000002e0000000000000000000000000000000000000000000000000000000000000000000000000000000000000000000000000000000000000000000000000010150fe000000000000000000000000bca6068d1e0249ce592b293cc9c38d048d1180f900000000000000000000000000000000000000000000000000000000000000000000000000000000000000000000000000dab4a563819e8fd93dba3b25bc3495000000000000000000000000ce9ca012fa55a8b1e540df35f6c77203812df52300000000000000000000000000000000000000000000000000000000000005970000000000000000000000000000000000000000000000000000000000000001000000000000000000000000000000000000000000000000000000000000000000000000000000000000000000000000000000000000000001a3385ff37f0000000000000000000000000000000000000000000000000000000000006415db8a0000000000000000000000000000000000000000000000000000000064175ffa00000000000000000000000000000000000000000000000000000000000001a0000000000000000000000000000000003f310e00cc82bda107def0db913224c900000000000000000000000000000000000000000000000000000000000001c00000000000000000000000000000000000000000000000000000000000000000000000000000000000000000000000000000000000000000000000000000000101000000000000000000000000000000000000000000000000000000000000000000000000000000000000000000000000000000000000000000000000000060000000000000000000000000000000000000000000000000000000000000001bf33a95d2d0537ed38dd47c3d6ba65e1ad7623a201f2d63cc5a4c92550d2422ab32880c58deb513f67e84e3e354b5d51847ed5bd3211b037620b05aff61991be5",
                    "decodedMethod": {
                        "callParams": [
                            {
                                "name": "sell",
                                "type": "((address,uint8,address,address,uint256,uint256,address,uint256,uint256,uint256,(uint16,address)[],uint256,bytes),uint8,bytes32,bytes32,bytes,uint8,uint256)",
                                "value": [
                                    {
                                        "name": "order",
                                        "type": "(address,uint8,address,address,uint256,uint256,address,uint256,uint256,uint256,(uint16,address)[],uint256,bytes)",
                                        "value": [
                                            {
                                                "name": "trader",
                                                "type": "address",
                                                "value": "0x528bdb07e14e0d7dd641524393aa1f4f815c2e0c"
                                            },
                                            {
                                                "name": "side",
                                                "type": "uint8",
                                                "value": "1"
                                            },
                                            {
                                                "name": "matchingPolicy",
                                                "type": "address",
                                                "value": "0x0000000000dab4a563819e8fd93dba3b25bc3495"
                                            },
                                            {
                                                "name": "collection",
                                                "type": "address",
                                                "value": "0xce9ca012fa55a8b1e540df35f6c77203812df523"
                                            },
                                            {
                                                "name": "tokenId",
                                                "type": "uint256",
                                                "value": "1,431"
                                            },
                                            {
                                                "name": "amount",
                                                "type": "uint256",
                                                "value": "1"
                                            },
                                            {
                                                "name": "paymentToken",
                                                "type": "address",
                                                "value": "0x0000000000000000000000000000000000000000"
                                            },
                                            {
                                                "name": "price",
                                                "type": "uint256",
                                                "value": "118,000,000,000,000,000"
                                            },
                                            {
                                                "name": "listingTime",
                                                "type": "uint256",
                                                "value": "1,679,154,057"
                                            },
                                            {
                                                "name": "expirationTime",
                                                "type": "uint256",
                                                "value": "1,679,758,857"
                                            },
                                            {
                                                "name": "fees",
                                                "type": "(uint16,address)[]",
                                                "value": [
                                                    [
                                                        {
                                                            "name": "rate",
                                                            "type": "uint16",
                                                            "value": "500"
                                                        },
                                                        {
                                                            "name": "recipient",
                                                            "type": "address",
                                                            "value": "0xe1d1fef5ec32bc6328bbf80f1863905602c80acf"
                                                        }
                                                    ]
                                                ]
                                            },
                                            {
                                                "name": "salt",
                                                "type": "uint256",
                                                "value": "63,073,873,218,590,153,025,539,515,802,576,526,293"
                                            },
                                            {
                                                "name": "extraParams",
                                                "type": "bytes",
                                                "value": "0x01"
                                            }
                                        ]
                                    },
                                    {
                                        "name": "v",
                                        "type": "uint8",
                                        "value": "28"
                                    },
                                    {
                                        "name": "r",
                                        "type": "bytes32",
                                        "value": "0x7358c19524482e102cfef9900e6ffdcc9e1fc26a16ed36952885faa42f270127"
                                    },
                                    {
                                        "name": "s",
                                        "type": "bytes32",
                                        "value": "0x7f09041bf0297b9b8d2797dca70645ed6c277ef7d6d68912b35ebe78e710ec9a"
                                    },
                                    {
                                        "name": "extraSignature",
                                        "type": "bytes",
                                        "value": "0x000000000000000000000000000000000000000000000000000000000000001b389c339e335be1248ed64f3e3b71ce1ac9bcb674bb62e835367b5509a8be58891ad1fa4def166390ef1182b9cc603b8598a427a753e25beb77d17643e9c3cd37"
                                    },
                                    {
                                        "name": "signatureVersion",
                                        "type": "uint8",
                                        "value": "0"
                                    },
                                    {
                                        "name": "blockNumber",
                                        "type": "uint256",
                                        "value": "16,863,486"
                                    }
                                ]
                            },
                            {
                                "name": "buy",
                                "type": "((address,uint8,address,address,uint256,uint256,address,uint256,uint256,uint256,(uint16,address)[],uint256,bytes),uint8,bytes32,bytes32,bytes,uint8,uint256)",
                                "value": [
                                    {
                                        "name": "order",
                                        "type": "(address,uint8,address,address,uint256,uint256,address,uint256,uint256,uint256,(uint16,address)[],uint256,bytes)",
                                        "value": [
                                            {
                                                "name": "trader",
                                                "type": "address",
                                                "value": "0xbca6068d1e0249ce592b293cc9c38d048d1180f9"
                                            },
                                            {
                                                "name": "side",
                                                "type": "uint8",
                                                "value": "0"
                                            },
                                            {
                                                "name": "matchingPolicy",
                                                "type": "address",
                                                "value": "0x0000000000dab4a563819e8fd93dba3b25bc3495"
                                            },
                                            {
                                                "name": "collection",
                                                "type": "address",
                                                "value": "0xce9ca012fa55a8b1e540df35f6c77203812df523"
                                            },
                                            {
                                                "name": "tokenId",
                                                "type": "uint256",
                                                "value": "1,431"
                                            },
                                            {
                                                "name": "amount",
                                                "type": "uint256",
                                                "value": "1"
                                            },
                                            {
                                                "name": "paymentToken",
                                                "type": "address",
                                                "value": "0x0000000000000000000000000000000000000000"
                                            },
                                            {
                                                "name": "price",
                                                "type": "uint256",
                                                "value": "118,000,000,000,000,000"
                                            },
                                            {
                                                "name": "listingTime",
                                                "type": "uint256",
                                                "value": "1,679,154,058"
                                            },
                                            {
                                                "name": "expirationTime",
                                                "type": "uint256",
                                                "value": "1,679,253,498"
                                            },
                                            {
                                                "name": "fees",
                                                "type": "(uint16,address)[]",
                                                "value": []
                                            },
                                            {
                                                "name": "salt",
                                                "type": "uint256",
                                                "value": "83,996,070,297,545,355,527,986,283,850,981,582,025"
                                            },
                                            {
                                                "name": "extraParams",
                                                "type": "bytes",
                                                "value": "0x01"
                                            }
                                        ]
                                    },
                                    {
                                        "name": "v",
                                        "type": "uint8",
                                        "value": "0"
                                    },
                                    {
                                        "name": "r",
                                        "type": "bytes32",
                                        "value": "0x0000000000000000000000000000000000000000000000000000000000000000"
                                    },
                                    {
                                        "name": "s",
                                        "type": "bytes32",
                                        "value": "0x0000000000000000000000000000000000000000000000000000000000000000"
                                    },
                                    {
                                        "name": "extraSignature",
                                        "type": "bytes",
                                        "value": "0x000000000000000000000000000000000000000000000000000000000000001bf33a95d2d0537ed38dd47c3d6ba65e1ad7623a201f2d63cc5a4c92550d2422ab32880c58deb513f67e84e3e354b5d51847ed5bd3211b037620b05aff61991be5"
                                    },
                                    {
                                        "name": "signatureVersion",
                                        "type": "uint8",
                                        "value": "0"
                                    },
                                    {
                                        "name": "blockNumber",
                                        "type": "uint256",
                                        "value": "16,863,486"
                                    }
                                ]
                            }
                        ],
                        "constructorArguments": "",
                        "name": "execute",
                        "returnParams": [],
                        "signature": "execute(((address,uint8,address,address,uint256,uint256,address,uint256,uint256,uint256,(uint16,address)[],uint256,bytes),uint8,bytes32,bytes32,bytes,uint8,uint256),((address,uint8,address,address,uint256,uint256,address,uint256,uint256,uint256,(uint16,address)[],uint256,bytes),uint8,bytes32,bytes32,bytes,uint8,uint256))"
                    },
                    "errorInfo": "",
                    "fromAddress": "0x000000000000ad05ccc4f10045630fb830b95127",
                    "gasUsed": 268130,
                    "id": 1,
                    "methodDecoded": true,
                    "operation": "DELEGATECALL",
                    "output": "",
                    "revert": false,
                    "revertMessage": "",
                    "selector": "0x9a1fc3a7",
                    "status": true,
                    "value": "0.118"
                },
                "nodeType": 0
            },
            "10": {
                "invocation": {
                    "address": "0xce9ca012fa55a8b1e540df35f6c77203812df523",
                    "callData": "0x000000000000000000000000528bdb07e14e0d7dd641524393aa1f4f815c2e0c000000000000000000000000bca6068d1e0249ce592b293cc9c38d048d1180f90000000000000000000000000000000000000000000000000000000000000597",
                    "decodedMethod": {
                        "callParams": [
                            {
                                "name": "from",
                                "type": "address",
                                "value": "0x528bdb07e14e0d7dd641524393aa1f4f815c2e0c"
                            },
                            {
                                "name": "to",
                                "type": "address",
                                "value": "0xbca6068d1e0249ce592b293cc9c38d048d1180f9"
                            },
                            {
                                "name": "tokenId",
                                "type": "uint256",
                                "value": "1,431"
                            }
                        ],
                        "constructorArguments": "",
                        "name": "safeTransferFrom",
                        "returnParams": [],
                        "signature": "safeTransferFrom(address,address,uint256)"
                    },
                    "errorInfo": "",
                    "fromAddress": "0x00000000000111abe46ff893f3b2fdf1f759a8a8",
                    "gasUsed": 41850,
                    "id": 10,
                    "methodDecoded": true,
                    "operation": "CALL",
                    "output": "",
                    "revert": false,
                    "revertMessage": "",
                    "selector": "0x42842e0e",
                    "status": true,
                    "value": "0"
                },
                "nodeType": 0
            },
            "11": {
                "invocation": {
                    "address": "0x000000000000aaeb6d7670e522a718067333cd4e",
                    "callData": "0x000000000000000000000000ce9ca012fa55a8b1e540df35f6c77203812df52300000000000000000000000000000000000111abe46ff893f3b2fdf1f759a8a8",
                    "decodedMethod": {
                        "callParams": [
                            {
                                "name": "registrant",
                                "type": "address",
                                "value": "0xce9ca012fa55a8b1e540df35f6c77203812df523"
                            },
                            {
                                "name": "operator",
                                "type": "address",
                                "value": "0x00000000000111abe46ff893f3b2fdf1f759a8a8"
                            }
                        ],
                        "constructorArguments": "",
                        "name": "isOperatorAllowed",
                        "returnParams": [
                            {
                                "name": "",
                                "type": "bool",
                                "value": true
                            }
                        ],
                        "signature": "isOperatorAllowed(address,address)"
                    },
                    "errorInfo": "",
                    "fromAddress": "0xce9ca012fa55a8b1e540df35f6c77203812df523",
                    "gasUsed": 7627,
                    "id": 11,
                    "methodDecoded": true,
                    "operation": "STATICCALL",
                    "output": "0x0000000000000000000000000000000000000000000000000000000000000001",
                    "revert": false,
                    "revertMessage": "",
                    "selector": "0xc6171134",
                    "status": true,
                    "value": "0"
                },
                "nodeType": 0
            },
            "12": {
                "invocation": {
                    "address": "0x000000000000aaeb6d7670e522a718067333cd4e",
                    "callData": "0x000000000000000000000000ce9ca012fa55a8b1e540df35f6c77203812df52300000000000000000000000000000000000111abe46ff893f3b2fdf1f759a8a8",
                    "decodedMethod": {
                        "callParams": [
                            {
                                "name": "registrant",
                                "type": "address",
                                "value": "0xce9ca012fa55a8b1e540df35f6c77203812df523"
                            },
                            {
                                "name": "operator",
                                "type": "address",
                                "value": "0x00000000000111abe46ff893f3b2fdf1f759a8a8"
                            }
                        ],
                        "constructorArguments": "",
                        "name": "isOperatorAllowed",
                        "returnParams": [
                            {
                                "name": "",
                                "type": "bool",
                                "value": true
                            }
                        ],
                        "signature": "isOperatorAllowed(address,address)"
                    },
                    "errorInfo": "",
                    "fromAddress": "0xce9ca012fa55a8b1e540df35f6c77203812df523",
                    "gasUsed": 1627,
                    "id": 12,
                    "methodDecoded": true,
                    "operation": "STATICCALL",
                    "output": "0x0000000000000000000000000000000000000000000000000000000000000001",
                    "revert": false,
                    "revertMessage": "",
                    "selector": "0xc6171134",
                    "status": true,
                    "value": "0"
                },
                "nodeType": 0
            },
            "13": {
                "invocation": {
                    "address": "0x000000000000aaeb6d7670e522a718067333cd4e",
                    "callData": "0x000000000000000000000000ce9ca012fa55a8b1e540df35f6c77203812df52300000000000000000000000000000000000111abe46ff893f3b2fdf1f759a8a8",
                    "decodedMethod": {
                        "callParams": [
                            {
                                "name": "registrant",
                                "type": "address",
                                "value": "0xce9ca012fa55a8b1e540df35f6c77203812df523"
                            },
                            {
                                "name": "operator",
                                "type": "address",
                                "value": "0x00000000000111abe46ff893f3b2fdf1f759a8a8"
                            }
                        ],
                        "constructorArguments": "",
                        "name": "isOperatorAllowed",
                        "returnParams": [
                            {
                                "name": "",
                                "type": "bool",
                                "value": true
                            }
                        ],
                        "signature": "isOperatorAllowed(address,address)"
                    },
                    "errorInfo": "",
                    "fromAddress": "0xce9ca012fa55a8b1e540df35f6c77203812df523",
                    "gasUsed": 1627,
                    "id": 13,
                    "methodDecoded": true,
                    "operation": "STATICCALL",
                    "output": "0x0000000000000000000000000000000000000000000000000000000000000001",
                    "revert": false,
                    "revertMessage": "",
                    "selector": "0xc6171134",
                    "status": true,
                    "value": "0"
                },
                "nodeType": 0
            },
            "14": {
                "event": {
                    "contract": "0xce9ca012fa55a8b1e540df35f6c77203812df523",
                    "decodedLog": {
                        "name": "Transfer",
                        "params": [
                            {
                                "name": "from",
                                "type": "address",
                                "value": "0x528bdb07e14e0d7dd641524393aa1f4f815c2e0c"
                            },
                            {
                                "name": "to",
                                "type": "address",
                                "value": "0xbca6068d1e0249ce592b293cc9c38d048d1180f9"
                            },
                            {
                                "decimalAvailable": true,
                                "name": "tokenId",
                                "type": "uint256",
                                "value": "1,431"
                            }
                        ],
                        "signature": "Transfer(address,address,uint256)"
                    },
                    "id": 14,
                    "logData": "0x",
                    "logDecoded": true,
                    "operation": "EVENT",
                    "revert": false,
                    "status": true,
                    "topics": [
                        "0xddf252ad1be2c89b69c2b068fc378daa952ba7f163c4a11628f55a4df523b3ef",
                        "0x000000000000000000000000528bdb07e14e0d7dd641524393aa1f4f815c2e0c",
                        "0x000000000000000000000000bca6068d1e0249ce592b293cc9c38d048d1180f9",
                        "0x0000000000000000000000000000000000000000000000000000000000000597"
                    ]
                },
                "nodeType": 1
            },
            "15": {
                "event": {
                    "contract": "0x000000000000ad05ccc4f10045630fb830b95127",
                    "decodedLog": {
                        "name": "OrdersMatched",
                        "params": [
                            {
                                "name": "maker",
                                "type": "address",
                                "value": "0x528bdb07e14e0d7dd641524393aa1f4f815c2e0c"
                            },
                            {
                                "name": "taker",
                                "type": "address",
                                "value": "0xbca6068d1e0249ce592b293cc9c38d048d1180f9"
                            },
                            {
                                "name": "sell",
                                "type": "(address,uint8,address,address,uint256,uint256,address,uint256,uint256,uint256,(uint16,address)[],uint256,bytes)",
                                "value": [
                                    {
                                        "name": "trader",
                                        "type": "address",
                                        "value": "0x528bdb07e14e0d7dd641524393aa1f4f815c2e0c"
                                    },
                                    {
                                        "name": "side",
                                        "type": "uint8",
                                        "value": "1"
                                    },
                                    {
                                        "name": "matchingPolicy",
                                        "type": "address",
                                        "value": "0x0000000000dab4a563819e8fd93dba3b25bc3495"
                                    },
                                    {
                                        "name": "collection",
                                        "type": "address",
                                        "value": "0xce9ca012fa55a8b1e540df35f6c77203812df523"
                                    },
                                    {
                                        "name": "tokenId",
                                        "type": "uint256",
                                        "value": "1,431"
                                    },
                                    {
                                        "name": "amount",
                                        "type": "uint256",
                                        "value": "1"
                                    },
                                    {
                                        "name": "paymentToken",
                                        "type": "address",
                                        "value": "0x0000000000000000000000000000000000000000"
                                    },
                                    {
                                        "name": "price",
                                        "type": "uint256",
                                        "value": "118,000,000,000,000,000"
                                    },
                                    {
                                        "name": "listingTime",
                                        "type": "uint256",
                                        "value": "1,679,154,057"
                                    },
                                    {
                                        "name": "expirationTime",
                                        "type": "uint256",
                                        "value": "1,679,758,857"
                                    },
                                    {
                                        "name": "fees",
                                        "type": "(uint16,address)[]",
                                        "value": [
                                            [
                                                {
                                                    "name": "rate",
                                                    "type": "uint16",
                                                    "value": "500"
                                                },
                                                {
                                                    "name": "recipient",
                                                    "type": "address",
                                                    "value": "0xe1d1fef5ec32bc6328bbf80f1863905602c80acf"
                                                }
                                            ]
                                        ]
                                    },
                                    {
                                        "name": "salt",
                                        "type": "uint256",
                                        "value": "63,073,873,218,590,153,025,539,515,802,576,526,293"
                                    },
                                    {
                                        "name": "extraParams",
                                        "type": "bytes",
                                        "value": "0x01"
                                    }
                                ]
                            },
                            {
                                "name": "sellHash",
                                "type": "bytes32",
                                "value": "0x14481818226339c342d383780293e84b018588a824d27e2c7a8a6ec62e960ec4"
                            },
                            {
                                "name": "buy",
                                "type": "(address,uint8,address,address,uint256,uint256,address,uint256,uint256,uint256,(uint16,address)[],uint256,bytes)",
                                "value": [
                                    {
                                        "name": "trader",
                                        "type": "address",
                                        "value": "0xbca6068d1e0249ce592b293cc9c38d048d1180f9"
                                    },
                                    {
                                        "name": "side",
                                        "type": "uint8",
                                        "value": "0"
                                    },
                                    {
                                        "name": "matchingPolicy",
                                        "type": "address",
                                        "value": "0x0000000000dab4a563819e8fd93dba3b25bc3495"
                                    },
                                    {
                                        "name": "collection",
                                        "type": "address",
                                        "value": "0xce9ca012fa55a8b1e540df35f6c77203812df523"
                                    },
                                    {
                                        "name": "tokenId",
                                        "type": "uint256",
                                        "value": "1,431"
                                    },
                                    {
                                        "name": "amount",
                                        "type": "uint256",
                                        "value": "1"
                                    },
                                    {
                                        "name": "paymentToken",
                                        "type": "address",
                                        "value": "0x0000000000000000000000000000000000000000"
                                    },
                                    {
                                        "name": "price",
                                        "type": "uint256",
                                        "value": "118,000,000,000,000,000"
                                    },
                                    {
                                        "name": "listingTime",
                                        "type": "uint256",
                                        "value": "1,679,154,058"
                                    },
                                    {
                                        "name": "expirationTime",
                                        "type": "uint256",
                                        "value": "1,679,253,498"
                                    },
                                    {
                                        "name": "fees",
                                        "type": "(uint16,address)[]",
                                        "value": []
                                    },
                                    {
                                        "name": "salt",
                                        "type": "uint256",
                                        "value": "83,996,070,297,545,355,527,986,283,850,981,582,025"
                                    },
                                    {
                                        "name": "extraParams",
                                        "type": "bytes",
                                        "value": "0x01"
                                    }
                                ]
                            },
                            {
                                "name": "buyHash",
                                "type": "bytes32",
                                "value": "0x36e3febc8ea0fe3211cba857d37dd0c2307a6d7b95f9381d0ac0b52e7ab74564"
                            }
                        ],
                        "signature": "OrdersMatched(address,address,(address,uint8,address,address,uint256,uint256,address,uint256,uint256,uint256,(uint16,address)[],uint256,bytes),bytes32,(address,uint8,address,address,uint256,uint256,address,uint256,uint256,uint256,(uint16,address)[],uint256,bytes),bytes32)"
                    },
                    "id": 15,
                    "logData": "0x000000000000000000000000000000000000000000000000000000000000008014481818226339c342d383780293e84b018588a824d27e2c7a8a6ec62e960ec400000000000000000000000000000000000000000000000000000000000002c036e3febc8ea0fe3211cba857d37dd0c2307a6d7b95f9381d0ac0b52e7ab74564000000000000000000000000528bdb07e14e0d7dd641524393aa1f4f815c2e0c00000000000000000000000000000000000000000000000000000000000000010000000000000000000000000000000000dab4a563819e8fd93dba3b25bc3495000000000000000000000000ce9ca012fa55a8b1e540df35f6c77203812df52300000000000000000000000000000000000000000000000000000000000005970000000000000000000000000000000000000000000000000000000000000001000000000000000000000000000000000000000000000000000000000000000000000000000000000000000000000000000000000000000001a3385ff37f0000000000000000000000000000000000000000000000000000000000006415db8900000000000000000000000000000000000000000000000000000000641f160900000000000000000000000000000000000000000000000000000000000001a0000000000000000000000000000000002f73960b917568f6499f5fb5d7ac9bd50000000000000000000000000000000000000000000000000000000000000200000000000000000000000000000000000000000000000000000000000000000100000000000000000000000000000000000000000000000000000000000001f4000000000000000000000000e1d1fef5ec32bc6328bbf80f1863905602c80acf00000000000000000000000000000000000000000000000000000000000000010100000000000000000000000000000000000000000000000000000000000000000000000000000000000000bca6068d1e0249ce592b293cc9c38d048d1180f900000000000000000000000000000000000000000000000000000000000000000000000000000000000000000000000000dab4a563819e8fd93dba3b25bc3495000000000000000000000000ce9ca012fa55a8b1e540df35f6c77203812df52300000000000000000000000000000000000000000000000000000000000005970000000000000000000000000000000000000000000000000000000000000001000000000000000000000000000000000000000000000000000000000000000000000000000000000000000000000000000000000000000001a3385ff37f0000000000000000000000000000000000000000000000000000000000006415db8a0000000000000000000000000000000000000000000000000000000064175ffa00000000000000000000000000000000000000000000000000000000000001a0000000000000000000000000000000003f310e00cc82bda107def0db913224c900000000000000000000000000000000000000000000000000000000000001c0000000000000000000000000000000000000000000000000000000000000000000000000000000000000000000000000000000000000000000000000000000010100000000000000000000000000000000000000000000000000000000000000",
                    "logDecoded": true,
                    "operation": "EVENT",
                    "revert": false,
                    "status": true,
                    "topics": [
                        "0x61cbb2a3dee0b6064c2e681aadd61677fb4ef319f0b547508d495626f5a62f64",
                        "0x000000000000000000000000528bdb07e14e0d7dd641524393aa1f4f815c2e0c",
                        "0x000000000000000000000000bca6068d1e0249ce592b293cc9c38d048d1180f9"
                    ]
                },
                "nodeType": 1
            },
            "2": {
                "invocation": {
                    "address": "0x0000000000000000000000000000000000000001",
                    "callData": "0x92d43596e72e4cc162468503f8efe94c771b5e68c475ee0745675b87000000000000000000000000000000000000000000000000000000000000001b389c339e335be1248ed64f3e3b71ce1ac9bcb674bb62e835367b5509a8be58891ad1fa4def166390ef1182b9cc603b8598a427a753e25beb77d17643e9c3cd37",
                    "decodedMethod": {
                        "callParams": [
                            {
                                "name": "hash",
                                "type": "bytes32",
                                "value": "0x69a749b892d43596e72e4cc162468503f8efe94c771b5e68c475ee0745675b87"
                            },
                            {
                                "name": "v",
                                "type": "uint256",
                                "value": "27"
                            },
                            {
                                "name": "r",
                                "type": "bytes32",
                                "value": "0x389c339e335be1248ed64f3e3b71ce1ac9bcb674bb62e835367b5509a8be5889"
                            },
                            {
                                "name": "s",
                                "type": "bytes32",
                                "value": "0x1ad1fa4def166390ef1182b9cc603b8598a427a753e25beb77d17643e9c3cd37"
                            }
                        ],
                        "constructorArguments": "",
                        "name": "ecrecover",
                        "returnParams": [
                            {
                                "name": "",
                                "type": "address",
                                "value": "0xd44feab097e5fee7fd54c9481f56b806f7f3ddc1"
                            }
                        ],
                        "signature": "ecrecover(bytes32,uint256,bytes32,bytes32)"
                    },
                    "errorInfo": "",
                    "fromAddress": "0x000000000000ad05ccc4f10045630fb830b95127",
                    "gasUsed": 3000,
                    "id": 2,
                    "methodDecoded": true,
                    "operation": "STATICCALL",
                    "output": "0x000000000000000000000000d44feab097e5fee7fd54c9481f56b806f7f3ddc1",
                    "revert": false,
                    "revertMessage": "",
                    "selector": "0x69a749b8",
                    "status": true,
                    "value": "0"
                },
                "nodeType": 0
            },
            "3": {
                "invocation": {
                    "address": "0x0000000000000000000000000000000000000001",
                    "callData": "0x5f1837180f99f1907d4bb5d53051f3e79f244bc34f70e8840273633b000000000000000000000000000000000000000000000000000000000000001c7358c19524482e102cfef9900e6ffdcc9e1fc26a16ed36952885faa42f2701277f09041bf0297b9b8d2797dca70645ed6c277ef7d6d68912b35ebe78e710ec9a",
                    "decodedMethod": {
                        "callParams": [
                            {
                                "name": "hash",
                                "type": "bytes32",
                                "value": "0xae2a04785f1837180f99f1907d4bb5d53051f3e79f244bc34f70e8840273633b"
                            },
                            {
                                "name": "v",
                                "type": "uint256",
                                "value": "28"
                            },
                            {
                                "name": "r",
                                "type": "bytes32",
                                "value": "0x7358c19524482e102cfef9900e6ffdcc9e1fc26a16ed36952885faa42f270127"
                            },
                            {
                                "name": "s",
                                "type": "bytes32",
                                "value": "0x7f09041bf0297b9b8d2797dca70645ed6c277ef7d6d68912b35ebe78e710ec9a"
                            }
                        ],
                        "constructorArguments": "",
                        "name": "ecrecover",
                        "returnParams": [
                            {
                                "name": "",
                                "type": "address",
                                "value": "0x528bdb07e14e0d7dd641524393aa1f4f815c2e0c"
                            }
                        ],
                        "signature": "ecrecover(bytes32,uint256,bytes32,bytes32)"
                    },
                    "errorInfo": "",
                    "fromAddress": "0x000000000000ad05ccc4f10045630fb830b95127",
                    "gasUsed": 3000,
                    "id": 3,
                    "methodDecoded": true,
                    "operation": "STATICCALL",
                    "output": "0x000000000000000000000000528bdb07e14e0d7dd641524393aa1f4f815c2e0c",
                    "revert": false,
                    "revertMessage": "",
                    "selector": "0xae2a0478",
                    "status": true,
                    "value": "0"
                },
                "nodeType": 0
            },
            "4": {
                "invocation": {
                    "address": "0x0000000000000000000000000000000000000001",
                    "callData": "0xf45d956751d7df4291c9405529952e8e2b84e48f201ec9361b3841f0000000000000000000000000000000000000000000000000000000000000001bf33a95d2d0537ed38dd47c3d6ba65e1ad7623a201f2d63cc5a4c92550d2422ab32880c58deb513f67e84e3e354b5d51847ed5bd3211b037620b05aff61991be5",
                    "decodedMethod": {
                        "callParams": [
                            {
                                "name": "hash",
                                "type": "bytes32",
                                "value": "0x9c22403ef45d956751d7df4291c9405529952e8e2b84e48f201ec9361b3841f0"
                            },
                            {
                                "name": "v",
                                "type": "uint256",
                                "value": "27"
                            },
                            {
                                "name": "r",
                                "type": "bytes32",
                                "value": "0xf33a95d2d0537ed38dd47c3d6ba65e1ad7623a201f2d63cc5a4c92550d2422ab"
                            },
                            {
                                "name": "s",
                                "type": "bytes32",
                                "value": "0x32880c58deb513f67e84e3e354b5d51847ed5bd3211b037620b05aff61991be5"
                            }
                        ],
                        "constructorArguments": "",
                        "name": "ecrecover",
                        "returnParams": [
                            {
                                "name": "",
                                "type": "address",
                                "value": "0xd44feab097e5fee7fd54c9481f56b806f7f3ddc1"
                            }
                        ],
                        "signature": "ecrecover(bytes32,uint256,bytes32,bytes32)"
                    },
                    "errorInfo": "",
                    "fromAddress": "0x000000000000ad05ccc4f10045630fb830b95127",
                    "gasUsed": 3000,
                    "id": 4,
                    "methodDecoded": true,
                    "operation": "STATICCALL",
                    "output": "0x000000000000000000000000d44feab097e5fee7fd54c9481f56b806f7f3ddc1",
                    "revert": false,
                    "revertMessage": "",
                    "selector": "0x9c22403e",
                    "status": true,
                    "value": "0"
                },
                "nodeType": 0
            },
            "5": {
                "invocation": {
                    "address": "0x3a35a3102b5c6bd1e4d3237248be071ef53c8331",
                    "callData": "0x0000000000000000000000000000000000dab4a563819e8fd93dba3b25bc3495",
                    "decodedMethod": {
                        "callParams": [
                            {
                                "name": "policy",
                                "type": "address",
                                "value": "0x0000000000dab4a563819e8fd93dba3b25bc3495"
                            }
                        ],
                        "constructorArguments": "",
                        "name": "isPolicyWhitelisted",
                        "returnParams": [
                            {
                                "name": "",
                                "type": "bool",
                                "value": true
                            }
                        ],
                        "signature": "isPolicyWhitelisted(address)"
                    },
                    "errorInfo": "",
                    "fromAddress": "0x000000000000ad05ccc4f10045630fb830b95127",
                    "gasUsed": 2666,
                    "id": 5,
                    "methodDecoded": true,
                    "operation": "STATICCALL",
                    "output": "0x0000000000000000000000000000000000000000000000000000000000000001",
                    "revert": false,
                    "revertMessage": "",
                    "selector": "0x874516cd",
                    "status": true,
                    "value": "0"
                },
                "nodeType": 0
            },
            "6": {
                "invocation": {
                    "address": "0x0000000000dab4a563819e8fd93dba3b25bc3495",
                    "callData": "0x00000000000000000000000000000000000000000000000000000000000000400000000000000000000000000000000000000000000000000000000000000280000000000000000000000000528bdb07e14e0d7dd641524393aa1f4f815c2e0c00000000000000000000000000000000000000000000000000000000000000010000000000000000000000000000000000dab4a563819e8fd93dba3b25bc3495000000000000000000000000ce9ca012fa55a8b1e540df35f6c77203812df52300000000000000000000000000000000000000000000000000000000000005970000000000000000000000000000000000000000000000000000000000000001000000000000000000000000000000000000000000000000000000000000000000000000000000000000000000000000000000000000000001a3385ff37f0000000000000000000000000000000000000000000000000000000000006415db8900000000000000000000000000000000000000000000000000000000641f160900000000000000000000000000000000000000000000000000000000000001a0000000000000000000000000000000002f73960b917568f6499f5fb5d7ac9bd50000000000000000000000000000000000000000000000000000000000000200000000000000000000000000000000000000000000000000000000000000000100000000000000000000000000000000000000000000000000000000000001f4000000000000000000000000e1d1fef5ec32bc6328bbf80f1863905602c80acf00000000000000000000000000000000000000000000000000000000000000010100000000000000000000000000000000000000000000000000000000000000000000000000000000000000bca6068d1e0249ce592b293cc9c38d048d1180f900000000000000000000000000000000000000000000000000000000000000000000000000000000000000000000000000dab4a563819e8fd93dba3b25bc3495000000000000000000000000ce9ca012fa55a8b1e540df35f6c77203812df52300000000000000000000000000000000000000000000000000000000000005970000000000000000000000000000000000000000000000000000000000000001000000000000000000000000000000000000000000000000000000000000000000000000000000000000000000000000000000000000000001a3385ff37f0000000000000000000000000000000000000000000000000000000000006415db8a0000000000000000000000000000000000000000000000000000000064175ffa00000000000000000000000000000000000000000000000000000000000001a0000000000000000000000000000000003f310e00cc82bda107def0db913224c900000000000000000000000000000000000000000000000000000000000001c0000000000000000000000000000000000000000000000000000000000000000000000000000000000000000000000000000000000000000000000000000000010100000000000000000000000000000000000000000000000000000000000000",
                    "decodedMethod": {
                        "callParams": [
                            {
                                "name": "makerAsk",
                                "type": "(address,uint8,address,address,uint256,uint256,address,uint256,uint256,uint256,(uint16,address)[],uint256,bytes)",
                                "value": [
                                    {
                                        "name": "trader",
                                        "type": "address",
                                        "value": "0x528bdb07e14e0d7dd641524393aa1f4f815c2e0c"
                                    },
                                    {
                                        "name": "side",
                                        "type": "uint8",
                                        "value": "1"
                                    },
                                    {
                                        "name": "matchingPolicy",
                                        "type": "address",
                                        "value": "0x0000000000dab4a563819e8fd93dba3b25bc3495"
                                    },
                                    {
                                        "name": "collection",
                                        "type": "address",
                                        "value": "0xce9ca012fa55a8b1e540df35f6c77203812df523"
                                    },
                                    {
                                        "name": "tokenId",
                                        "type": "uint256",
                                        "value": "1,431"
                                    },
                                    {
                                        "name": "amount",
                                        "type": "uint256",
                                        "value": "1"
                                    },
                                    {
                                        "name": "paymentToken",
                                        "type": "address",
                                        "value": "0x0000000000000000000000000000000000000000"
                                    },
                                    {
                                        "name": "price",
                                        "type": "uint256",
                                        "value": "118,000,000,000,000,000"
                                    },
                                    {
                                        "name": "listingTime",
                                        "type": "uint256",
                                        "value": "1,679,154,057"
                                    },
                                    {
                                        "name": "expirationTime",
                                        "type": "uint256",
                                        "value": "1,679,758,857"
                                    },
                                    {
                                        "name": "fees",
                                        "type": "(uint16,address)[]",
                                        "value": [
                                            [
                                                {
                                                    "name": "rate",
                                                    "type": "uint16",
                                                    "value": "500"
                                                },
                                                {
                                                    "name": "recipient",
                                                    "type": "address",
                                                    "value": "0xe1d1fef5ec32bc6328bbf80f1863905602c80acf"
                                                }
                                            ]
                                        ]
                                    },
                                    {
                                        "name": "salt",
                                        "type": "uint256",
                                        "value": "63,073,873,218,590,153,025,539,515,802,576,526,293"
                                    },
                                    {
                                        "name": "extraParams",
                                        "type": "bytes",
                                        "value": "0x01"
                                    }
                                ]
                            },
                            {
                                "name": "takerBid",
                                "type": "(address,uint8,address,address,uint256,uint256,address,uint256,uint256,uint256,(uint16,address)[],uint256,bytes)",
                                "value": [
                                    {
                                        "name": "trader",
                                        "type": "address",
                                        "value": "0xbca6068d1e0249ce592b293cc9c38d048d1180f9"
                                    },
                                    {
                                        "name": "side",
                                        "type": "uint8",
                                        "value": "0"
                                    },
                                    {
                                        "name": "matchingPolicy",
                                        "type": "address",
                                        "value": "0x0000000000dab4a563819e8fd93dba3b25bc3495"
                                    },
                                    {
                                        "name": "collection",
                                        "type": "address",
                                        "value": "0xce9ca012fa55a8b1e540df35f6c77203812df523"
                                    },
                                    {
                                        "name": "tokenId",
                                        "type": "uint256",
                                        "value": "1,431"
                                    },
                                    {
                                        "name": "amount",
                                        "type": "uint256",
                                        "value": "1"
                                    },
                                    {
                                        "name": "paymentToken",
                                        "type": "address",
                                        "value": "0x0000000000000000000000000000000000000000"
                                    },
                                    {
                                        "name": "price",
                                        "type": "uint256",
                                        "value": "118,000,000,000,000,000"
                                    },
                                    {
                                        "name": "listingTime",
                                        "type": "uint256",
                                        "value": "1,679,154,058"
                                    },
                                    {
                                        "name": "expirationTime",
                                        "type": "uint256",
                                        "value": "1,679,253,498"
                                    },
                                    {
                                        "name": "fees",
                                        "type": "(uint16,address)[]",
                                        "value": []
                                    },
                                    {
                                        "name": "salt",
                                        "type": "uint256",
                                        "value": "83,996,070,297,545,355,527,986,283,850,981,582,025"
                                    },
                                    {
                                        "name": "extraParams",
                                        "type": "bytes",
                                        "value": "0x01"
                                    }
                                ]
                            }
                        ],
                        "constructorArguments": "",
                        "name": "canMatchMakerAsk",
                        "returnParams": [
                            {
                                "name": "",
                                "type": "bool",
                                "value": true
                            },
                            {
                                "name": "",
                                "type": "uint256",
                                "value": "118,000,000,000,000,000"
                            },
                            {
                                "name": "",
                                "type": "uint256",
                                "value": "1,431"
                            },
                            {
                                "name": "",
                                "type": "uint256",
                                "value": "1"
                            },
                            {
                                "name": "",
                                "type": "uint8",
                                "value": "0"
                            }
                        ],
                        "signature": "canMatchMakerAsk((address,uint8,address,address,uint256,uint256,address,uint256,uint256,uint256,(uint16,address)[],uint256,bytes),(address,uint8,address,address,uint256,uint256,address,uint256,uint256,uint256,(uint16,address)[],uint256,bytes))"
                    },
                    "errorInfo": "",
                    "fromAddress": "0x000000000000ad05ccc4f10045630fb830b95127",
                    "gasUsed": 3230,
                    "id": 6,
                    "methodDecoded": true,
                    "operation": "STATICCALL",
                    "output": "0x000000000000000000000000000000000000000000000000000000000000000100000000000000000000000000000000000000000000000001a3385ff37f0000000000000000000000000000000000000000000000000000000000000000059700000000000000000000000000000000000000000000000000000000000000010000000000000000000000000000000000000000000000000000000000000000",
                    "revert": false,
                    "revertMessage": "",
                    "selector": "0xd5ec8c77",
                    "status": true,
                    "value": "0"
                },
                "nodeType": 0
            },
            "7": {
                "invocation": {
                    "address": "0xe1d1fef5ec32bc6328bbf80f1863905602c80acf",
                    "callData": "0x",
                    "decodedMethod": null,
                    "errorInfo": "",
                    "fromAddress": "0x000000000000ad05ccc4f10045630fb830b95127",
                    "gasUsed": 0,
                    "id": 7,
                    "methodDecoded": false,
                    "operation": "CALL",
                    "output": "",
                    "revert": false,
                    "revertMessage": "",
                    "selector": "fallback",
                    "status": true,
                    "value": "0.0059"
                },
                "nodeType": 0
            },
            "8": {
                "invocation": {
                    "address": "0x528bdb07e14e0d7dd641524393aa1f4f815c2e0c",
                    "callData": "0x",
                    "decodedMethod": null,
                    "errorInfo": "",
                    "fromAddress": "0x000000000000ad05ccc4f10045630fb830b95127",
                    "gasUsed": 0,
                    "id": 8,
                    "methodDecoded": false,
                    "operation": "CALL",
                    "output": "",
                    "revert": false,
                    "revertMessage": "",
                    "selector": "fallback",
                    "status": true,
                    "value": "0.1121"
                },
                "nodeType": 0
            },
            "9": {
                "invocation": {
                    "address": "0x00000000000111abe46ff893f3b2fdf1f759a8a8",
                    "callData": "0x000000000000000000000000ce9ca012fa55a8b1e540df35f6c77203812df523000000000000000000000000528bdb07e14e0d7dd641524393aa1f4f815c2e0c000000000000000000000000bca6068d1e0249ce592b293cc9c38d048d1180f90000000000000000000000000000000000000000000000000000000000000597",
                    "decodedMethod": {
                        "callParams": [
                            {
                                "name": "collection",
                                "type": "address",
                                "value": "0xce9ca012fa55a8b1e540df35f6c77203812df523"
                            },
                            {
                                "name": "from",
                                "type": "address",
                                "value": "0x528bdb07e14e0d7dd641524393aa1f4f815c2e0c"
                            },
                            {
                                "name": "to",
                                "type": "address",
                                "value": "0xbca6068d1e0249ce592b293cc9c38d048d1180f9"
                            },
                            {
                                "name": "tokenId",
                                "type": "uint256",
                                "value": "1,431"
                            }
                        ],
                        "constructorArguments": "",
                        "name": "transferERC721",
                        "returnParams": [],
                        "signature": "transferERC721(address,address,address,uint256)"
                    },
                    "errorInfo": "",
                    "fromAddress": "0x000000000000ad05ccc4f10045630fb830b95127",
                    "gasUsed": 49771,
                    "id": 9,
                    "methodDecoded": true,
                    "operation": "CALL",
                    "output": "",
                    "revert": false,
                    "revertMessage": "",
                    "selector": "0x789f93f6",
                    "status": true,
                    "value": "0"
                },
                "nodeType": 0
            }
        },
        "gasFlame": [
            {
                "children": [
                    {
                        "children": [
                            {
                                "children": [],
                                "depth": 0,
                                "name": "Initial Gas",
                                "value": 33576
                            },
                            {
                                "children": [
                                    {
                                        "children": [
                                            {
                                                "children": [],
                                                "depth": 2,
                                                "name": "ecrecover",
                                                "value": 3000
                                            },
                                            {
                                                "children": [],
                                                "depth": 2,
                                                "name": "ecrecover",
                                                "value": 3000
                                            },
                                            {
                                                "children": [],
                                                "depth": 2,
                                                "name": "ecrecover",
                                                "value": 3000
                                            },
                                            {
                                                "children": [],
                                                "depth": 2,
                                                "name": "isPolicyWhitelisted",
                                                "value": 2666
                                            },
                                            {
                                                "children": [],
                                                "depth": 2,
                                                "name": "canMatchMakerAsk",
                                                "value": 3230
                                            },
                                            {
                                                "children": [],
                                                "depth": 2,
                                                "name": "fallback",
                                                "value": 0
                                            },
                                            {
                                                "children": [],
                                                "depth": 2,
                                                "name": "fallback",
                                                "value": 0
                                            },
                                            {
                                                "children": [
                                                    {
                                                        "children": [
                                                            {
                                                                "children": [],
                                                                "depth": 4,
                                                                "name": "isOperatorAllowed",
                                                                "value": 7627
                                                            },
                                                            {
                                                                "children": [],
                                                                "depth": 4,
                                                                "name": "isOperatorAllowed",
                                                                "value": 1627
                                                            },
                                                            {
                                                                "children": [],
                                                                "depth": 4,
                                                                "name": "isOperatorAllowed",
                                                                "value": 1627
                                                            }
                                                        ],
                                                        "depth": 3,
                                                        "name": "safeTransferFrom",
                                                        "value": 41850
                                                    }
                                                ],
                                                "depth": 2,
                                                "name": "transferERC721",
                                                "value": 49771
                                            }
                                        ],
                                        "depth": 1,
                                        "name": "execute",
                                        "value": 268130
                                    }
                                ],
                                "depth": 0,
                                "name": "Executed Gas",
                                "value": 273358
                            }
                        ],
                        "depth": -1,
                        "name": "Actual Gas Used",
                        "value": 247234
                    },
                    {
                        "children": [],
                        "depth": -1,
                        "name": "Refunded Gas",
                        "value": 59700
                    }
                ],
                "depth": -2,
                "name": "Total Gas",
                "value": 306934
            }
        ],
        "isConfirmed": true,
        "mainTrace": [
            {
                "children": [
                    {
                        "children": [
                            {
                                "children": [
                                    {
                                        "children": [],
                                        "depth": 2,
                                        "id": 2,
                                        "order": 2
                                    },
                                    {
                                        "children": [],
                                        "depth": 2,
                                        "id": 3,
                                        "order": 3
                                    },
                                    {
                                        "children": [],
                                        "depth": 2,
                                        "id": 4,
                                        "order": 4
                                    },
                                    {
                                        "children": [],
                                        "depth": 2,
                                        "id": 5,
                                        "order": 5
                                    },
                                    {
                                        "children": [],
                                        "depth": 2,
                                        "id": 6,
                                        "order": 6
                                    },
                                    {
                                        "children": [],
                                        "depth": 2,
                                        "id": 7,
                                        "order": 7
                                    },
                                    {
                                        "children": [],
                                        "depth": 2,
                                        "id": 8,
                                        "order": 8
                                    },
                                    {
                                        "children": [
                                            {
                                                "children": [
                                                    {
                                                        "children": [],
                                                        "depth": 4,
                                                        "id": 11,
                                                        "order": 11
                                                    },
                                                    {
                                                        "children": [],
                                                        "depth": 4,
                                                        "id": 12,
                                                        "order": 12
                                                    },
                                                    {
                                                        "children": [],
                                                        "depth": 4,
                                                        "id": 13,
                                                        "order": 13
                                                    },
                                                    {
                                                        "children": [],
                                                        "depth": 4,
                                                        "id": 14,
                                                        "order": 14
                                                    }
                                                ],
                                                "depth": 3,
                                                "id": 10,
                                                "order": 10
                                            }
                                        ],
                                        "depth": 2,
                                        "id": 9,
                                        "order": 9
                                    },
                                    {
                                        "children": [],
                                        "depth": 2,
                                        "id": 15,
                                        "order": 15
                                    }
                                ],
                                "depth": 1,
                                "id": 1,
                                "order": 1
                            }
                        ],
                        "depth": 0,
                        "id": 0,
                        "order": 0
                    }
                ],
                "depth": -1,
                "id": -1,
                "order": -1
            }
        ],
        "mainTraceNodeCount": 16,
        "parentIdMap": {
            "0": -1,
            "1": 0,
            "10": 9,
            "11": 10,
            "12": 10,
            "13": 10,
            "14": 10,
            "15": 1,
            "2": 1,
            "3": 1,
            "4": 1,
            "5": 1,
            "6": 1,
            "7": 1,
            "8": 1,
            "9": 1
        },
        "tidyTrace": [
            {
                "children": [
                    {
                        "children": [
                            {
                                "children": [
                                    {
                                        "children": [],
                                        "depth": 2,
                                        "id": 7,
                                        "order": 7
                                    },
                                    {
                                        "children": [],
                                        "depth": 2,
                                        "id": 8,
                                        "order": 8
                                    },
                                    {
                                        "children": [
                                            {
                                                "children": [
                                                    {
                                                        "children": [],
                                                        "depth": 4,
                                                        "id": 14,
                                                        "order": 14
                                                    }
                                                ],
                                                "depth": 3,
                                                "id": 10,
                                                "order": 10
                                            }
                                        ],
                                        "depth": 2,
                                        "id": 9,
                                        "order": 9
                                    },
                                    {
                                        "children": [],
                                        "depth": 2,
                                        "id": 15,
                                        "order": 15
                                    }
                                ],
                                "depth": 1,
                                "id": 1,
                                "order": 1
                            }
                        ],
                        "depth": 0,
                        "id": 0,
                        "order": 0
                    }
                ],
                "depth": -1,
                "id": -1,
                "order": -1
            }
        ],
        "tidyTraceNodeCount": 8
    },
    "state_change": {
        "stateChanges": [
            {
                "address": "0x000000000000ad05ccc4f10045630fb830b95127",
                "erc": "",
                "slots": [
                    {
                        "current": "0x0000000000000000000000000000000000000000000000000000000000000001",
                        "key": "0x90b0ae57d8874cebd85ab9164899c8a06bd21cfedfce057de4fd3e4e04e545e3",
                        "prev": "0x0000000000000000000000000000000000000000000000000000000000000000"
                    },
                    {
                        "current": "0x0000000000000000000000000000000000000000000000000000000000000001",
                        "key": "0x69de120d5b3412d1f4e3b6570ff193a265fdefd54191c9830539e7fb490bf6a8",
                        "prev": "0x0000000000000000000000000000000000000000000000000000000000000000"
                    }
                ],
                "storageVariables": [
                    {
                        "name": "cancelledOrFilled",
                        "type": "mapping(bytes32 => bool)",
                        "value": {
                            "pairs": [
                                {
                                    "key": "0x14481818226339c342d383780293e84b018588a824d27e2c7a8a6ec62e960ec4",
                                    "value": {
                                        "current": "true",
                                        "prev": "false",
                                        "typeTag": 1
                                    }
                                },
                                {
                                    "key": "0x36e3febc8ea0fe3211cba857d37dd0c2307a6d7b95f9381d0ac0b52e7ab74564",
                                    "value": {
                                        "current": "true",
                                        "prev": "false",
                                        "typeTag": 1
                                    }
                                }
                            ],
                            "typeTag": 4
                        }
                    }
                ]
            },
            {
                "address": "0xce9ca012fa55a8b1e540df35f6c77203812df523",
                "erc": "ERC-721",
                "slots": [
                    {
                        "current": "0x0000000000000000000000000000000000000000000000000000000000000017",
                        "key": "0xb96c90254f1e745585f32b4360f12900e4648ea71645da746117547dd46c1613",
                        "prev": "0x0000000000000000000000000000000000000000000000000000000000000016"
                    },
                    {
                        "current": "0x0000000200000000641751fbbca6068d1e0249ce592b293cc9c38d048d1180f9",
                        "key": "0xea3fad67b33b1cd71b0025072f1908070e997141ffa91e1127c94944620e16e6",
                        "prev": "0x0000000200000000640f673f528bdb07e14e0d7dd641524393aa1f4f815c2e0c"
                    },
                    {
                        "current": "0x0000000000000000000000000000000000000000000000010000000000000000",
                        "key": "0xe828b0336c3c2f1b979ebaf952ec97c2627d584b4cbd4b6e722da294751c306f",
                        "prev": "0x0000000000000000000000000000000000000000000000010000000000000001"
                    }
                ],
                "storageVariables": [
                    {
                        "name": "_packedAddressData",
                        "type": "mapping(address => uint256)",
                        "value": {
                            "pairs": [
                                {
                                    "key": "0x528bdb07e14e0d7dd641524393aa1f4f815c2e0c",
                                    "value": {
                                        "current": "18446744073709551616",
                                        "prev": "18446744073709551617",
                                        "typeTag": 1
                                    }
                                },
                                {
                                    "key": "0xbca6068d1e0249ce592b293cc9c38d048d1180f9",
                                    "value": {
                                        "current": "23",
                                        "prev": "22",
                                        "typeTag": 1
                                    }
                                }
                            ],
                            "typeTag": 4
                        }
                    },
                    {
                        "name": "_packedOwnerships",
                        "type": "mapping(uint256 => uint256)",
                        "value": {
                            "pairs": [
                                {
                                    "key": "1431",
                                    "value": {
                                        "current": "53919893336755506090671302485617307017142788966068287614432790544633",
                                        "prev": "53919893336754747798710046538374586376038652305978014758372204359180",
                                        "typeTag": 1
                                    }
                                }
                            ],
                            "typeTag": 4
                        }
                    }
                ]
            }
        ]
    }
}