{
    "balance_change": {
        "balanceChanges": [
            {
                "account": "0x0f3fe948d25ddf2f7e8212145cef84ac6f20d904",
                "assets": [
                    {
                        "address": "0x8080b66e7505db9bd1d7bb44a7b9518754c8d26b",
                        "amount": "50",
                        "iconUrl": "",
                        "isERC1155": false,
                        "isERC721": false,
                        "sign": false,
                        "value": ""
                    }
                ]
            },
            {
                "account": "0x99d6a3e29cf2c90a926e88cfc1a09cb76824a2ef",
                "assets": [
                    {
                        "address": "0x8080b66e7505db9bd1d7bb44a7b9518754c8d26b",
                        "amount": "50",
                        "iconUrl": "",
                        "isERC1155": false,
                        "isERC721": false,
                        "sign": true,
                        "value": ""
                    }
                ]
            }
        ]
    },
    "profile": {
        "basic_info": {
            "baseFee": "",
            "blockNumber": 7342570,
            "callData": "0xa9059cbb00000000000000000000000099d6a3e29cf2c90a926e88cfc1a09cb76824a2ef000000000000000000000000000000000000000000000002b5e3af16b1880000",
            "debugEnable": true,
            "errorInfo": "",
            "eventCount": 1,
            "feeRecipient": "0x5a0b54d5dc17e0aadc383d2db43b0a0d3e029c4c",
            "formatValue": "0",
            "gasLimit": 64167,
            "gasPrice": "3",
            "gasUsed": 53473,
            "intTxnCount": 0,
            "internalRevert": false,
            "internalRevertMessage": "",
            "isContractCreation": false,
            "isFlashloan": false,
            "maxFee": "",
            "nonce": 66345,
            "overwritedBlockNumber": -1,
            "priorityFee": "",
            "receiver": "0x8080b66e7505db9bd1d7bb44a7b9518754c8d26b",
            "revertMessage": "",
            "sender": "0x0f3fe948d25ddf2f7e8212145cef84ac6f20d904",
            "simulationEnable": true,
            "sourceTxnHash": "0x24a905c756cbaf60bbba10c0181258087efa78c0acec5d86d093e7dfc573ab9a",
            "status": true,
            "timestamp": "2019-03-10T16:43:21Z",
            "transactionFee": "0.000160419",
            "txnHash": "0x24a905c756cbaf60bbba10c0181258087efa78c0acec5d86d093e7dfc573ab9a",
            "txnIndex": 42,
            "type": 0,
            "value": "0"
        },
        "fund_flow": [
            {
                "amount": "50",
                "from": "0x0f3fe948d25ddf2f7e8212145cef84ac6f20d904",
                "id": 1,
                "isERC1155": false,
                "isERC721": false,
                "isReverted": false,
                "order": 1,
                "to": "0x99d6a3e29cf2c90a926e88cfc1a09cb76824a2ef",
                "token": "0x8080b66e7505db9bd1d7bb44a7b9518754c8d26b"
            }
        ],
        "token_infos": [
            {
                "address": "0x8080b66e7505db9bd1d7bb44a7b9518754c8d26b",
                "decimals": 18
            },
            {
                "address": "0xc02aaa39b223fe8d0a0e5c4f27ead9083c756cc2",
                "decimals": 18
            },
            {
                "address": "0xeeeeeeeeeeeeeeeeeeeeeeeeeeeeeeeeeeeeeeee",
                "decimals": 18
            }
        ]
    },
    "address_label": {
        "labels": [
            {
                "address": "0xeeeeeeeeeeeeeeeeeeeeeeeeeeeeeeeeeeeeeeee",
                "label": "Ether"
            },
            {
                "address": "0x8080b66e7505db9bd1d7bb44a7b9518754c8d26b",
                "label": "Yanu (YANU)"
            },
            {
                "address": "0x0000000000000000000000000000000000000001",
                "label": "Precompiled"
            },
            {
                "address": "0x0000000000000000000000000000000000000002",
                "label": "Precompiled"
            },
            {
                "address": "0x0000000000000000000000000000000000000003",
                "label": "Precompiled"
            },
            {
                "address": "0x0000000000000000000000000000000000000004",
                "label": "Precompiled"
            }
        ]
    },
    "trace": {
        "accountLabels": null,
        "dataMap": {
            "-1": {
                "invocation": {
                    "address": "0x0f3fe948d25ddf2f7e8212145cef84ac6f20d904",
                    "callData": "",
                    "decodedMethod": null,
                    "errorInfo": "",
                    "fromAddress": "",
                    "gasUsed": 0,
                    "id": -1,
                    "methodDecoded": false,
                    "operation": "",
                    "output": "",
                    "revert": false,
                    "revertMessage": "",
                    "selector": "",
                    "status": false,
                    "value": ""
                },
                "nodeType": 0
            },
            "0": {
                "invocation": {
                    "address": "0x8080b66e7505db9bd1d7bb44a7b9518754c8d26b",
                    "callData": "0x00000000000000000000000099d6a3e29cf2c90a926e88cfc1a09cb76824a2ef000000000000000000000000000000000000000000000002b5e3af16b1880000",
                    "decodedMethod": {
                        "callParams": [
                            {
                                "name": "_to",
                                "type": "address",
                                "value": "0x99d6a3e29cf2c90a926e88cfc1a09cb76824a2ef"
                            },
                            {
                                "decimalAvailable": true,
                                "name": "_value",
                                "type": "uint256",
                                "value": "50,000,000,000,000,000,000"
                            }
                        ],
                        "constructorArguments": "",
                        "name": "transfer",
                        "returnParams": [
                            {
                                "name": "",
                                "type": "bool",
                                "value": true
                            }
                        ],
                        "signature": "transfer(address,uint256)"
                    },
                    "errorInfo": "",
                    "fromAddress": "0x0f3fe948d25ddf2f7e8212145cef84ac6f20d904",
                    "gasUsed": 53473,
                    "id": 0,
                    "methodDecoded": true,
                    "operation": "CALL",
                    "output": "0x0000000000000000000000000000000000000000000000000000000000000001",
                    "revert": false,
                    "revertMessage": "",
                    "selector": "0xa9059cbb",
                    "status": true,
                    "value": "0"
                },
                "nodeType": 0
            },
            "1": {
                "event": {
                    "contract": "0x8080b66e7505db9bd1d7bb44a7b9518754c8d26b",
                    "decodedLog": {
                        "name": "Transfer",
                        "params": [
                            {
                                "name": "from",
                                "type": "address",
                                "value": "0x0f3fe948d25ddf2f7e8212145cef84ac6f20d904"
                            },
                            {
                                "name": "to",
                                "type": "address",
                                "value": "0x99d6a3e29cf2c90a926e88cfc1a09cb76824a2ef"
                            },
                            {
                                "decimalAvailable": true,
                                "name": "value",
                                "type": "uint256",
                                "value": "50,000,000,000,000,000,000"
                            }
                        ],
                        "signature": "Transfer(address,address,uint256)"
                    },
                    "id": 1,
                    "logData": "0x000000000000000000000000000000000000000000000002b5e3af16b1880000",
                    "logDecoded": true,
                    "operation": "EVENT",
                    "revert": false,
                    "status": true,
                    "topics": [
                        "0xddf252ad1be2c89b69c2b068fc378daa952ba7f163c4a11628f55a4df523b3ef",
                        "0x0000000000000000000000000f3fe948d25ddf2f7e8212145cef84ac6f20d904",
                        "0x00000000000000000000000099d6a3e29cf2c90a926e88cfc1a09cb76824a2ef"
                    ]
                },
                "nodeType": 1
            }
        },
        "gasFlame": [
            {
                "children": [
                    {
                        "children": [
                            {
                                "children": [],
                                "depth": 0,
                                "name": "Initial Gas",
                                "value": 23256
                            },
                            {
                                "children": [],
                                "depth": 0,
                                "name": "Executed Gas",
                                "value": 30217
                            }
                        ],
                        "depth": -1,
                        "name": "Actual Gas Used",
                        "value": 53473
                    },
                    {
                        "children": [],
                        "depth": -1,
                        "name": "Refunded Gas",
                        "value": 0
                    }
                ],
                "depth": -2,
                "name": "Total Gas",
                "value": 53473
            }
        ],
        "isConfirmed": true,
        "mainTrace": [
            {
                "children": [
                    {
                        "children": [
                            {
                                "children": [],
                                "depth": 1,
                                "id": 1,
                                "order": 1
                            }
                        ],
                        "depth": 0,
                        "id": 0,
                        "order": 0
                    }
                ],
                "depth": -1,
                "id": -1,
                "order": -1
            }
        ],
        "mainTraceNodeCount": 2,
        "parentIdMap": {
            "0": -1,
            "1": 0
        },
        "tidyTrace": [
            {
                "children": [
                    {
                        "children": [
                            {
                                "children": [],
                                "depth": 1,
                                "id": 1,
                                "order": 1
                            }
                        ],
                        "depth": 0,
                        "id": 0,
                        "order": 0
                    }
                ],
                "depth": -1,
                "id": -1,
                "order": -1
            }
        ],
        "tidyTraceNodeCount": 2
    },
    "state_change": {
        "stateChanges": [
            {
                "address": "0x8080b66e7505db9bd1d7bb44a7b9518754c8d26b",
                "erc": "ERC-20",
                "slots": [
                    {
                        "current": "0x0000000000000000000000000000000000000000000ce5c2e5fa7e9f4b9c0000",
                        "key": "0xaa649e6151a007f3a030a81f2c2e9c0178da822c48bc90b968b0f0ff3c4df8b3",
                        "prev": "0x0000000000000000000000000000000000000000000ce5c59bde2db5fd240000"
                    },
                    {
                        "current": "0x000000000000000000000000000000000000000000000002b5e3af16b1880000",
                        "key": "0x67890008ff8223ace32c24104856991d895b687303832237817ea543ff7f62a8",
                        "prev": "0x0000000000000000000000000000000000000000000000000000000000000000"
                    }
                ],
                "storageVariables": [
                    {
                        "name": "balances",
                        "type": "mapping(address => uint256)",
                        "value": {
                            "pairs": [
                                {
                                    "key": "0x0f3fe948d25ddf2f7e8212145cef84ac6f20d904",
                                    "value": {
                                        "current": "15592127000000000000000000",
                                        "prev": "15592177000000000000000000",
                                        "typeTag": 1
                                    }
                                },
                                {
                                    "key": "0x99d6a3e29cf2c90a926e88cfc1a09cb76824a2ef",
                                    "value": {
                                        "current": "50000000000000000000",
                                        "prev": "0",
                                        "typeTag": 1
                                    }
                                }
                            ],
                            "typeTag": 4
                        }
                    }
                ]
            }
        ]
    }
}