{
    "balance_change": {
        "balanceChanges": [
            {
                "account": "0x28c6c06298d514db089934071355e5743bf21d60",
                "assets": [
                    {
                        "address": "0x808507121b80c02388fad14726482e061b8da827",
                        "amount": "6,001.3285",
                        "iconUrl": "https://assets.blocksec.com/icon/58b3d61bebf7cd1c556b96f909a6e07345e88e9ddfa8c427541f70e3b35f85e9.png",
                        "isERC1155": false,
                        "isERC721": false,
                        "sign": false,
                        "value": "3597.1963029000002634"
                    }
                ]
            },
            {
                "account": "0xe661c4072b993b096d06b952b1be7a5e26711bc3",
                "assets": [
                    {
                        "address": "0x808507121b80c02388fad14726482e061b8da827",
                        "amount": "6,001.3285",
                        "iconUrl": "https://assets.blocksec.com/icon/58b3d61bebf7cd1c556b96f909a6e07345e88e9ddfa8c427541f70e3b35f85e9.png",
                        "isERC1155": false,
                        "isERC721": false,
                        "sign": true,
                        "value": "3597.1963029000002634"
                    }
                ]
            }
        ]
    },
    "profile": {
        "basic_info": {
            "baseFee": "31.838229573",
            "blockNumber": 17988658,
            "callData": "0xa9059cbb000000000000000000000000e661c4072b993b096d06b952b1be7a5e26711bc30000000000000000000000000000000000000000000001455529da594fdb4000",
            "debugEnable": true,
            "errorInfo": "",
            "eventCount": 1,
            "feeRecipient": "0x4838b106fce9647bdf1e7877bf73ce8b0bad5f97",
            "formatValue": "0",
            "gasLimit": 207128,
            "gasPrice": "33.838229573",
            "gasUsed": 56361,
            "intTxnCount": 0,
            "internalRevert": false,
            "internalRevertMessage": "",
            "isContractCreation": false,
            "isFlashloan": false,
            "maxFee": "102",
            "nonce": 7584279,
            "overwritedBlockNumber": -1,
            "priorityFee": "2",
            "receiver": "0x808507121b80c02388fad14726482e061b8da827",
            "revertMessage": "",
            "sender": "0x28c6c06298d514db089934071355e5743bf21d60",
            "simulationEnable": true,
            "sourceTxnHash": "0x24f3c606cba14615e313a46eb038fccdecc85e10d0592c1cf35d167aa89c740d",
            "status": true,
            "timestamp": "2023-08-25T02:12:59Z",
            "transactionFee": "0.001907156456963853",
            "txnHash": "0x24f3c606cba14615e313a46eb038fccdecc85e10d0592c1cf35d167aa89c740d",
            "txnIndex": 44,
            "type": 2,
            "value": "0"
        },
        "fund_flow": [
            {
                "amount": "6,001.3285",
                "from": "0x28c6c06298d514db089934071355e5743bf21d60",
                "id": 1,
                "isERC1155": false,
                "isERC721": false,
                "isReverted": false,
                "order": 1,
                "to": "0xe661c4072b993b096d06b952b1be7a5e26711bc3",
                "token": "0x808507121b80c02388fad14726482e061b8da827"
            }
        ],
        "token_infos": [
            {
                "address": "0x808507121b80c02388fad14726482e061b8da827",
                "decimals": 18
            },
            {
                "address": "0xc02aaa39b223fe8d0a0e5c4f27ead9083c756cc2",
                "decimals": 18
            },
            {
                "address": "0xeeeeeeeeeeeeeeeeeeeeeeeeeeeeeeeeeeeeeeee",
                "decimals": 18
            }
        ]
    },
    "address_label": {
        "labels": [
            {
                "address": "0x0000000000000000000000000000000000000003",
                "label": "Precompiled"
            },
            {
                "address": "0x0000000000000000000000000000000000000004",
                "label": "Precompiled"
            },
            {
                "address": "0xeeeeeeeeeeeeeeeeeeeeeeeeeeeeeeeeeeeeeeee",
                "label": "Ether"
            },
            {
                "address": "0x808507121b80c02388fad14726482e061b8da827",
                "label": "Pendle: PENDLE Token"
            },
            {
                "address": "0x28c6c06298d514db089934071355e5743bf21d60",
                "label": "Binance 14"
            },
            {
                "address": "0x0000000000000000000000000000000000000001",
                "label": "Precompiled"
            },
            {
                "address": "0x0000000000000000000000000000000000000002",
                "label": "Precompiled"
            }
        ]
    },
    "trace": {
        "accountLabels": null,
        "dataMap": {
            "-1": {
                "invocation": {
                    "address": "0x28c6c06298d514db089934071355e5743bf21d60",
                    "callData": "",
                    "decodedMethod": null,
                    "errorInfo": "",
                    "fromAddress": "",
                    "gasUsed": 0,
                    "id": -1,
                    "methodDecoded": false,
                    "operation": "",
                    "output": "",
                    "revert": false,
                    "revertMessage": "",
                    "selector": "",
                    "status": false,
                    "value": ""
                },
                "nodeType": 0
            },
            "0": {
                "invocation": {
                    "address": "0x808507121b80c02388fad14726482e061b8da827",
                    "callData": "0x000000000000000000000000e661c4072b993b096d06b952b1be7a5e26711bc30000000000000000000000000000000000000000000001455529da594fdb4000",
                    "decodedMethod": {
                        "callParams": [
                            {
                                "name": "dst",
                                "type": "address",
                                "value": "0xe661c4072b993b096d06b952b1be7a5e26711bc3"
                            },
                            {
                                "decimalAvailable": true,
                                "name": "amount",
                                "type": "uint256",
                                "value": "6,001,328,500,000,000,000,000"
                            }
                        ],
                        "constructorArguments": "",
                        "name": "transfer",
                        "returnParams": [
                            {
                                "name": "",
                                "type": "bool",
                                "value": true
                            }
                        ],
                        "signature": "transfer(address,uint256)"
                    },
                    "errorInfo": "",
                    "fromAddress": "0x28c6c06298d514db089934071355e5743bf21d60",
                    "gasUsed": 56361,
                    "id": 0,
                    "methodDecoded": true,
                    "operation": "CALL",
                    "output": "0x0000000000000000000000000000000000000000000000000000000000000001",
                    "revert": false,
                    "revertMessage": "",
                    "selector": "0xa9059cbb",
                    "status": true,
                    "value": "0"
                },
                "nodeType": 0
            },
            "1": {
                "event": {
                    "contract": "0x808507121b80c02388fad14726482e061b8da827",
                    "decodedLog": {
                        "name": "Transfer",
                        "params": [
                            {
                                "name": "from",
                                "type": "address",
                                "value": "0x28c6c06298d514db089934071355e5743bf21d60"
                            },
                            {
                                "name": "to",
                                "type": "address",
                                "value": "0xe661c4072b993b096d06b952b1be7a5e26711bc3"
                            },
                            {
                                "decimalAvailable": true,
                                "name": "value",
                                "type": "uint256",
                                "value": "6,001,328,500,000,000,000,000"
                            }
                        ],
                        "signature": "Transfer(address,address,uint256)"
                    },
                    "id": 1,
                    "logData": "0x0000000000000000000000000000000000000000000001455529da594fdb4000",
                    "logDecoded": true,
                    "operation": "EVENT",
                    "revert": false,
                    "status": true,
                    "topics": [
                        "0xddf252ad1be2c89b69c2b068fc378daa952ba7f163c4a11628f55a4df523b3ef",
                        "0x00000000000000000000000028c6c06298d514db089934071355e5743bf21d60",
                        "0x000000000000000000000000e661c4072b993b096d06b952b1be7a5e26711bc3"
                    ]
                },
                "nodeType": 1
            }
        },
        "gasFlame": [
            {
                "children": [
                    {
                        "children": [
                            {
                                "children": [],
                                "depth": 0,
                                "name": "Initial Gas",
                                "value": 21668
                            },
                            {
                                "children": [],
                                "depth": 0,
                                "name": "Executed Gas",
                                "value": 34693
                            }
                        ],
                        "depth": -1,
                        "name": "Actual Gas Used",
                        "value": 56361
                    },
                    {
                        "children": [],
                        "depth": -1,
                        "name": "Refunded Gas",
                        "value": 0
                    }
                ],
                "depth": -2,
                "name": "Total Gas",
                "value": 56361
            }
        ],
        "isConfirmed": true,
        "mainTrace": [
            {
                "children": [
                    {
                        "children": [
                            {
                                "children": [],
                                "depth": 1,
                                "id": 1,
                                "order": 1
                            }
                        ],
                        "depth": 0,
                        "id": 0,
                        "order": 0
                    }
                ],
                "depth": -1,
                "id": -1,
                "order": -1
            }
        ],
        "mainTraceNodeCount": 2,
        "parentIdMap": {
            "0": -1,
            "1": 0
        },
        "tidyTrace": [
            {
                "children": [
                    {
                        "children": [
                            {
                                "children": [],
                                "depth": 1,
                                "id": 1,
                                "order": 1
                            }
                        ],
                        "depth": 0,
                        "id": 0,
                        "order": 0
                    }
                ],
                "depth": -1,
                "id": -1,
                "order": -1
            }
        ],
        "tidyTraceNodeCount": 2
    },
    "state_change": {
        "stateChanges": [
            {
                "address": "0x808507121b80c02388fad14726482e061b8da827",
                "erc": "ERC-20",
                "slots": [
                    {
                        "current": "0x000000000000000000000000000000000000000000076ee99d70ea667d2a7dd7",
                        "key": "0xdf9f557a8cf58d21939114e8c88f9916ac29410c198a759b670cd83553c2af80",
                        "prev": "0x00000000000000000000000000000000000000000007702ef29ac4bfcd05bdd7"
                    },
                    {
                        "current": "0x0000000000000000000000000000000000000000000001455529da594fdb4000",
                        "key": "0xa0c698f70270a8e7142f7f3b3ee4113565359e05d5c614fc38b9fc177e5910b1",
                        "prev": "0x0000000000000000000000000000000000000000000000000000000000000000"
                    }
                ],
                "storageVariables": [
                    {
                        "name": "balances",
                        "type": "mapping(address => uint256)",
                        "value": {
                            "pairs": [
                                {
                                    "key": "0x28c6c06298d514db089934071355e5743bf21d60",
                                    "value": {
                                        "current": "8986250486612426775756247",
                                        "prev": "8992251815112426775756247",
                                        "typeTag": 1
                                    }
                                },
                                {
                                    "key": "0xe661c4072b993b096d06b952b1be7a5e26711bc3",
                                    "value": {
                                        "current": "6001328500000000000000",
                                        "prev": "0",
                                        "typeTag": 1
                                    }
                                }
                            ],
                            "typeTag": 4
                        }
                    }
                ]
            }
        ]
    }
}