{
    "balance_change": {
        "balanceChanges": [
            {
                "account": "0x68c9a01a388ab95760ac098500c415eda54f1647",
                "assets": [
                    {
                        "address": "0x1f9840a85d5af5bf1d1762f925bdaddc4201f984",
                        "amount": "1",
                        "iconUrl": "https://assets.blocksec.com/icon/a11b26a37f84e146d773ae4914e43619075ce4c922ad0a1fa46464f3049bf839.png",
                        "isERC1155": false,
                        "isERC721": false,
                        "sign": false,
                        "value": "11.349999999999999645"
                    }
                ]
            },
            {
                "account": "0x4cb4619fc2788d983001303f5e7e067c04d1301a",
                "assets": [
                    {
                        "address": "0x1f9840a85d5af5bf1d1762f925bdaddc4201f984",
                        "amount": "1",
                        "iconUrl": "https://assets.blocksec.com/icon/a11b26a37f84e146d773ae4914e43619075ce4c922ad0a1fa46464f3049bf839.png",
                        "isERC1155": false,
                        "isERC721": false,
                        "sign": true,
                        "value": "11.349999999999999645"
                    }
                ]
            }
        ]
    },
    "profile": {
        "basic_info": {
            "baseFee": "58.393121508",
            "blockNumber": 19291202,
            "callData": "0xa9059cbb0000000000000000000000004cb4619fc2788d983001303f5e7e067c04d1301a0000000000000000000000000000000000000000000000000de0b6b3a7640000",
            "debugEnable": true,
            "errorInfo": "",
            "eventCount": 1,
            "feeRecipient": "0x1f9090aae28b8a3dceadf281b0f12828e676c326",
            "formatValue": "0",
            "gasLimit": 87006,
            "gasPrice": "58.422734193",
            "gasUsed": 57194,
            "intTxnCount": 0,
            "internalRevert": false,
            "internalRevertMessage": "",
            "isContractCreation": false,
            "isFlashloan": false,
            "maxFee": "89.057976821",
            "nonce": 1,
            "overwritedBlockNumber": -1,
            "priorityFee": "0.029612685",
            "receiver": "0x1f9840a85d5af5bf1d1762f925bdaddc4201f984",
            "revertMessage": "",
            "sender": "0x68c9a01a388ab95760ac098500c415eda54f1647",
            "simulationEnable": true,
            "sourceTxnHash": "0x2585a3a44d22cc82a31574bfc47545604156cf7f3acfc7c22ad6de19997b6030",
            "status": true,
            "timestamp": "2024-02-23T15:31:59Z",
            "transactionFee": "0.003341429859434442",
            "txnHash": "0x2585a3a44d22cc82a31574bfc47545604156cf7f3acfc7c22ad6de19997b6030",
            "txnIndex": 327,
            "type": 2,
            "value": "0"
        },
        "fund_flow": [
            {
                "amount": "1",
                "from": "0x68c9a01a388ab95760ac098500c415eda54f1647",
                "id": 1,
                "isERC1155": false,
                "isERC721": false,
                "isReverted": false,
                "order": 1,
                "to": "0x4cb4619fc2788d983001303f5e7e067c04d1301a",
                "token": "0x1f9840a85d5af5bf1d1762f925bdaddc4201f984"
            }
        ],
        "token_infos": [
            {
                "address": "0x1f9840a85d5af5bf1d1762f925bdaddc4201f984",
                "decimals": 18
            },
            {
                "address": "0xc02aaa39b223fe8d0a0e5c4f27ead9083c756cc2",
                "decimals": 18
            },
            {
                "address": "0xeeeeeeeeeeeeeeeeeeeeeeeeeeeeeeeeeeeeeeee",
                "decimals": 18
            }
        ]
    },
    "address_label": {
        "labels": [
            {
                "address": "0x0000000000000000000000000000000000000002",
                "label": "Precompiled"
            },
            {
                "address": "0x0000000000000000000000000000000000000003",
                "label": "Precompiled"
            },
            {
                "address": "0x0000000000000000000000000000000000000004",
                "label": "Precompiled"
            },
            {
                "address": "0xeeeeeeeeeeeeeeeeeeeeeeeeeeeeeeeeeeeeeeee",
                "label": "Ether"
            },
            {
                "address": "0x1f9840a85d5af5bf1d1762f925bdaddc4201f984",
                "label": "Uniswap Protocol: UNI token"
            },
            {
                "address": "0x0000000000000000000000000000000000000001",
                "label": "Precompiled"
            }
        ]
    },
    "trace": {
        "accountLabels": null,
        "dataMap": {
            "-1": {
                "invocation": {
                    "address": "0x68c9a01a388ab95760ac098500c415eda54f1647",
                    "callData": "",
                    "decodedMethod": null,
                    "errorInfo": "",
                    "fromAddress": "",
                    "gasUsed": 0,
                    "id": -1,
                    "methodDecoded": false,
                    "operation": "",
                    "output": "",
                    "revert": false,
                    "revertMessage": "",
                    "selector": "",
                    "status": false,
                    "value": ""
                },
                "nodeType": 0
            },
            "0": {
                "invocation": {
                    "address": "0x1f9840a85d5af5bf1d1762f925bdaddc4201f984",
                    "callData": "0x0000000000000000000000004cb4619fc2788d983001303f5e7e067c04d1301a0000000000000000000000000000000000000000000000000de0b6b3a7640000",
                    "decodedMethod": {
                        "callParams": [
                            {
                                "name": "dst",
                                "type": "address",
                                "value": "0x4cb4619fc2788d983001303f5e7e067c04d1301a"
                            },
                            {
                                "decimalAvailable": true,
                                "name": "rawAmount",
                                "type": "uint256",
                                "value": "1,000,000,000,000,000,000"
                            }
                        ],
                        "constructorArguments": "",
                        "name": "transfer",
                        "returnParams": [
                            {
                                "name": "",
                                "type": "bool",
                                "value": true
                            }
                        ],
                        "signature": "transfer(address,uint256)"
                    },
                    "errorInfo": "",
                    "fromAddress": "0x68c9a01a388ab95760ac098500c415eda54f1647",
                    "gasUsed": 57194,
                    "id": 0,
                    "methodDecoded": true,
                    "operation": "CALL",
                    "output": "0x0000000000000000000000000000000000000000000000000000000000000001",
                    "revert": false,
                    "revertMessage": "",
                    "selector": "0xa9059cbb",
                    "status": true,
                    "value": "0"
                },
                "nodeType": 0
            },
            "1": {
                "event": {
                    "contract": "0x1f9840a85d5af5bf1d1762f925bdaddc4201f984",
                    "decodedLog": {
                        "name": "Transfer",
                        "params": [
                            {
                                "name": "from",
                                "type": "address",
                                "value": "0x68c9a01a388ab95760ac098500c415eda54f1647"
                            },
                            {
                                "name": "to",
                                "type": "address",
                                "value": "0x4cb4619fc2788d983001303f5e7e067c04d1301a"
                            },
                            {
                                "decimalAvailable": true,
                                "name": "amount",
                                "type": "uint256",
                                "value": "1,000,000,000,000,000,000"
                            }
                        ],
                        "signature": "Transfer(address,address,uint256)"
                    },
                    "id": 1,
                    "logData": "0x0000000000000000000000000000000000000000000000000de0b6b3a7640000",
                    "logDecoded": true,
                    "operation": "EVENT",
                    "revert": false,
                    "status": true,
                    "topics": [
                        "0xddf252ad1be2c89b69c2b068fc378daa952ba7f163c4a11628f55a4df523b3ef",
                        "0x00000000000000000000000068c9a01a388ab95760ac098500c415eda54f1647",
                        "0x0000000000000000000000004cb4619fc2788d983001303f5e7e067c04d1301a"
                    ]
                },
                "nodeType": 1
            }
        },
        "gasFlame": [
            {
                "children": [
                    {
                        "children": [
                            {
                                "children": [],
                                "depth": 0,
                                "name": "Initial Gas",
                                "value": 21632
                            },
                            {
                                "children": [],
                                "depth": 0,
                                "name": "Executed Gas",
                                "value": 35562
                            }
                        ],
                        "depth": -1,
                        "name": "Actual Gas Used",
                        "value": 57194
                    },
                    {
                        "children": [],
                        "depth": -1,
                        "name": "Refunded Gas",
                        "value": 0
                    }
                ],
                "depth": -2,
                "name": "Total Gas",
                "value": 57194
            }
        ],
        "isConfirmed": true,
        "mainTrace": [
            {
                "children": [
                    {
                        "children": [
                            {
                                "children": [],
                                "depth": 1,
                                "id": 1,
                                "order": 1
                            }
                        ],
                        "depth": 0,
                        "id": 0,
                        "order": 0
                    }
                ],
                "depth": -1,
                "id": -1,
                "order": -1
            }
        ],
        "mainTraceNodeCount": 2,
        "parentIdMap": {
            "0": -1,
            "1": 0
        },
        "tidyTrace": [
            {
                "children": [
                    {
                        "children": [
                            {
                                "children": [],
                                "depth": 1,
                                "id": 1,
                                "order": 1
                            }
                        ],
                        "depth": 0,
                        "id": 0,
                        "order": 0
                    }
                ],
                "depth": -1,
                "id": -1,
                "order": -1
            }
        ],
        "tidyTraceNodeCount": 2
    },
    "state_change": {
        "stateChanges": [
            {
                "address": "0x1f9840a85d5af5bf1d1762f925bdaddc4201f984",
                "erc": "ERC-20",
                "slots": [
                    {
                        "current": "0x00000000000000000000000000000000000000000000012fd879324f50f1eb00",
                        "key": "0x67694bc7c0e09436f8974fb3e8ac1d8d14af947b181c4f007838bc09b3808010",
                        "prev": "0x00000000000000000000000000000000000000000000012fe659e902f855eb00"
                    },
                    {
                        "current": "0x0000000000000000000000000000000000000000000000000de0b6b3a7640000",
                        "key": "0x7a17330dd04fdf502ec58182fda638d28206d0a440f05817a4e5edbca7ce7280",
                        "prev": "0x0000000000000000000000000000000000000000000000000000000000000000"
                    }
                ],
                "storageVariables": [
                    {
                        "name": "balances",
                        "type": "mapping(address => uint96)",
                        "value": {
                            "pairs": [
                                {
                                    "key": "0x4cb4619fc2788d983001303f5e7e067c04d1301a",
                                    "value": {
                                        "current": "1000000000000000000",
                                        "prev": "0",
                                        "typeTag": 1
                                    }
                                },
                                {
                                    "key": "0x68c9a01a388ab95760ac098500c415eda54f1647",
                                    "value": {
                                        "current": "5604962008434610400000",
                                        "prev": "5605962008434610400000",
                                        "typeTag": 1
                                    }
                                }
                            ],
                            "typeTag": 4
                        }
                    }
                ]
            }
        ]
    }
}