{
    "balance_change": {
        "balanceChanges": []
    },
    "profile": {
        "basic_info": {
            "baseFee": "31.702070744",
            "blockNumber": 14379021,
            "callData": "0xc47f00270000000000000000000000000000000000000000000000000000000000000020000000000000000000000000000000000000000000000000000000000000000938366d687a2e6574680000000000000000000000000000000000000000000000",
            "debugEnable": true,
            "errorInfo": "",
            "eventCount": 2,
            "feeRecipient": "0xeea5b82b61424df8020f5fedd81767f2d0d25bfb",
            "formatValue": "0",
            "gasLimit": 127830,
            "gasPrice": "33.202070744",
            "gasUsed": 127514,
            "intTxnCount": 8,
            "internalRevert": false,
            "internalRevertMessage": "",
            "isContractCreation": false,
            "isFlashloan": false,
            "maxFee": "33.211480434",
            "nonce": 226,
            "overwritedBlockNumber": -1,
            "priorityFee": "1.5",
            "receiver": "0x084b1c3c81545d370f3634392de611caabff8148",
            "revertMessage": "",
            "sender": "0xdc40e3dc8d8ba7c3003a283f82de554f26f2f4df",
            "simulationEnable": true,
            "sourceTxnHash": "0x253dabdc77d817e63993e379304819c16133aa51d53c8b07eb3bebbea5888d8f",
            "status": true,
            "timestamp": "2022-03-13T15:11:18Z",
            "transactionFee": "0.004233728848850416",
            "txnHash": "0x253dabdc77d817e63993e379304819c16133aa51d53c8b07eb3bebbea5888d8f",
            "txnIndex": 102,
            "type": 2,
            "value": "0"
        },
        "fund_flow": [],
        "token_infos": [
            {
                "address": "0xeeeeeeeeeeeeeeeeeeeeeeeeeeeeeeeeeeeeeeee",
                "decimals": 18
            },
            {
                "address": "0xc02aaa39b223fe8d0a0e5c4f27ead9083c756cc2",
                "decimals": 18
            }
        ]
    },
    "address_label": {
        "labels": [
            {
                "address": "0x0000000000000000000000000000000000000001",
                "label": "Precompiled"
            },
            {
                "address": "0x0000000000000000000000000000000000000002",
                "label": "Precompiled"
            },
            {
                "address": "0xeeeeeeeeeeeeeeeeeeeeeeeeeeeeeeeeeeeeeeee",
                "label": "Ether"
            },
            {
                "address": "0xa2c122be93b0074270ebee7f6b7292c7deb45047",
                "label": "ENS: Default Reverse Resolver"
            },
            {
                "address": "0x00000000000c2e074ec69a0dfb2997ba6c7d2e1e",
                "label": "ENS: Registry with Fallback"
            },
            {
                "address": "0x314159265dd8dbb310642f98f50c066173c1259b",
                "label": "ENS: Eth Name Service"
            },
            {
                "address": "0x0000000000000000000000000000000000000000",
                "label": "Null Address"
            },
            {
                "address": "0x084b1c3c81545d370f3634392de611caabff8148",
                "label": "ENS: Old Reverse Registrar 2"
            },
            {
                "address": "0x0000000000000000000000000000000000000003",
                "label": "Precompiled"
            },
            {
                "address": "0x0000000000000000000000000000000000000004",
                "label": "Precompiled"
            }
        ]
    },
    "trace": {
        "accountLabels": null,
        "dataMap": {
            "-1": {
                "invocation": {
                    "address": "0xdc40e3dc8d8ba7c3003a283f82de554f26f2f4df",
                    "callData": "",
                    "decodedMethod": null,
                    "errorInfo": "",
                    "fromAddress": "",
                    "gasUsed": 0,
                    "id": -1,
                    "methodDecoded": false,
                    "operation": "",
                    "output": "",
                    "revert": false,
                    "revertMessage": "",
                    "selector": "",
                    "status": false,
                    "value": ""
                },
                "nodeType": 0
            },
            "0": {
                "invocation": {
                    "address": "0x084b1c3c81545d370f3634392de611caabff8148",
                    "callData": "0x0000000000000000000000000000000000000000000000000000000000000020000000000000000000000000000000000000000000000000000000000000000938366d687a2e6574680000000000000000000000000000000000000000000000",
                    "decodedMethod": {
                        "callParams": [
                            {
                                "name": "name",
                                "type": "string",
                                "value": "86mhz.eth"
                            }
                        ],
                        "constructorArguments": "",
                        "name": "setName",
                        "returnParams": [
                            {
                                "name": "",
                                "type": "bytes32",
                                "value": "0x1b1ff99ceb5435459796f5094c4168cceaab843148dd19914d2c510bcfe39cde"
                            }
                        ],
                        "signature": "setName(string)"
                    },
                    "errorInfo": "",
                    "fromAddress": "0xdc40e3dc8d8ba7c3003a283f82de554f26f2f4df",
                    "gasUsed": 127514,
                    "id": 0,
                    "methodDecoded": true,
                    "operation": "CALL",
                    "output": "0x1b1ff99ceb5435459796f5094c4168cceaab843148dd19914d2c510bcfe39cde",
                    "revert": false,
                    "revertMessage": "",
                    "selector": "0xc47f0027",
                    "status": true,
                    "value": "0"
                },
                "nodeType": 0
            },
            "1": {
                "invocation": {
                    "address": "0x00000000000c2e074ec69a0dfb2997ba6c7d2e1e",
                    "callData": "0x1b1ff99ceb5435459796f5094c4168cceaab843148dd19914d2c510bcfe39cde",
                    "decodedMethod": {
                        "callParams": [
                            {
                                "name": "node",
                                "type": "bytes32",
                                "value": "0x1b1ff99ceb5435459796f5094c4168cceaab843148dd19914d2c510bcfe39cde"
                            }
                        ],
                        "constructorArguments": "",
                        "name": "owner",
                        "returnParams": [
                            {
                                "name": "",
                                "type": "address",
                                "value": "0x0000000000000000000000000000000000000000"
                            }
                        ],
                        "signature": "owner(bytes32)"
                    },
                    "errorInfo": "",
                    "fromAddress": "0x084b1c3c81545d370f3634392de611caabff8148",
                    "gasUsed": 10052,
                    "id": 1,
                    "methodDecoded": true,
                    "operation": "STATICCALL",
                    "output": "0x0000000000000000000000000000000000000000000000000000000000000000",
                    "revert": false,
                    "revertMessage": "",
                    "selector": "0x02571be3",
                    "status": true,
                    "value": "0"
                },
                "nodeType": 0
            },
            "10": {
                "invocation": {
                    "address": "0x00000000000c2e074ec69a0dfb2997ba6c7d2e1e",
                    "callData": "0x1b1ff99ceb5435459796f5094c4168cceaab843148dd19914d2c510bcfe39cde",
                    "decodedMethod": {
                        "callParams": [
                            {
                                "name": "node",
                                "type": "bytes32",
                                "value": "0x1b1ff99ceb5435459796f5094c4168cceaab843148dd19914d2c510bcfe39cde"
                            }
                        ],
                        "constructorArguments": "",
                        "name": "owner",
                        "returnParams": [
                            {
                                "name": "",
                                "type": "address",
                                "value": "0x084b1c3c81545d370f3634392de611caabff8148"
                            }
                        ],
                        "signature": "owner(bytes32)"
                    },
                    "errorInfo": "",
                    "fromAddress": "0xa2c122be93b0074270ebee7f6b7292c7deb45047",
                    "gasUsed": 951,
                    "id": 10,
                    "methodDecoded": true,
                    "operation": "STATICCALL",
                    "output": "0x000000000000000000000000084b1c3c81545d370f3634392de611caabff8148",
                    "revert": false,
                    "revertMessage": "",
                    "selector": "0x02571be3",
                    "status": true,
                    "value": "0"
                },
                "nodeType": 0
            },
            "2": {
                "invocation": {
                    "address": "0x314159265dd8dbb310642f98f50c066173c1259b",
                    "callData": "0x1b1ff99ceb5435459796f5094c4168cceaab843148dd19914d2c510bcfe39cde",
                    "decodedMethod": {
                        "callParams": [
                            {
                                "name": "node",
                                "type": "bytes32",
                                "value": "0x1b1ff99ceb5435459796f5094c4168cceaab843148dd19914d2c510bcfe39cde"
                            }
                        ],
                        "constructorArguments": "",
                        "name": "owner",
                        "returnParams": [
                            {
                                "name": "",
                                "type": "address",
                                "value": "0x0000000000000000000000000000000000000000"
                            }
                        ],
                        "signature": "owner(bytes32)"
                    },
                    "errorInfo": "",
                    "fromAddress": "0x00000000000c2e074ec69a0dfb2997ba6c7d2e1e",
                    "gasUsed": 2332,
                    "id": 2,
                    "methodDecoded": true,
                    "operation": "STATICCALL",
                    "output": "0x0000000000000000000000000000000000000000000000000000000000000000",
                    "revert": false,
                    "revertMessage": "",
                    "selector": "0x02571be3",
                    "status": true,
                    "value": "0"
                },
                "nodeType": 0
            },
            "3": {
                "invocation": {
                    "address": "0x00000000000c2e074ec69a0dfb2997ba6c7d2e1e",
                    "callData": "0x1b1ff99ceb5435459796f5094c4168cceaab843148dd19914d2c510bcfe39cde",
                    "decodedMethod": {
                        "callParams": [
                            {
                                "name": "node",
                                "type": "bytes32",
                                "value": "0x1b1ff99ceb5435459796f5094c4168cceaab843148dd19914d2c510bcfe39cde"
                            }
                        ],
                        "constructorArguments": "",
                        "name": "resolver",
                        "returnParams": [
                            {
                                "name": "",
                                "type": "address",
                                "value": "0x0000000000000000000000000000000000000000"
                            }
                        ],
                        "signature": "resolver(bytes32)"
                    },
                    "errorInfo": "",
                    "fromAddress": "0x084b1c3c81545d370f3634392de611caabff8148",
                    "gasUsed": 3424,
                    "id": 3,
                    "methodDecoded": true,
                    "operation": "STATICCALL",
                    "output": "0x0000000000000000000000000000000000000000000000000000000000000000",
                    "revert": false,
                    "revertMessage": "",
                    "selector": "0x0178b8bf",
                    "status": true,
                    "value": "0"
                },
                "nodeType": 0
            },
            "4": {
                "invocation": {
                    "address": "0x314159265dd8dbb310642f98f50c066173c1259b",
                    "callData": "0x1b1ff99ceb5435459796f5094c4168cceaab843148dd19914d2c510bcfe39cde",
                    "decodedMethod": {
                        "callParams": [
                            {
                                "name": "node",
                                "type": "bytes32",
                                "value": "0x1b1ff99ceb5435459796f5094c4168cceaab843148dd19914d2c510bcfe39cde"
                            }
                        ],
                        "constructorArguments": "",
                        "name": "resolver",
                        "returnParams": [
                            {
                                "name": "",
                                "type": "address",
                                "value": "0x0000000000000000000000000000000000000000"
                            }
                        ],
                        "signature": "resolver(bytes32)"
                    },
                    "errorInfo": "",
                    "fromAddress": "0x00000000000c2e074ec69a0dfb2997ba6c7d2e1e",
                    "gasUsed": 2226,
                    "id": 4,
                    "methodDecoded": true,
                    "operation": "STATICCALL",
                    "output": "0x0000000000000000000000000000000000000000000000000000000000000000",
                    "revert": false,
                    "revertMessage": "",
                    "selector": "0x0178b8bf",
                    "status": true,
                    "value": "0"
                },
                "nodeType": 0
            },
            "5": {
                "invocation": {
                    "address": "0x00000000000c2e074ec69a0dfb2997ba6c7d2e1e",
                    "callData": "0x91d1777781884d03a6757a803996e38de2a42967fb37eeaca72729271025a9e2d3200017ea14eb4c6e586a90c2f079b3dfbe6da54d99a3f94baca547a272e070000000000000000000000000084b1c3c81545d370f3634392de611caabff8148",
                    "decodedMethod": {
                        "callParams": [
                            {
                                "name": "node",
                                "type": "bytes32",
                                "value": "0x91d1777781884d03a6757a803996e38de2a42967fb37eeaca72729271025a9e2"
                            },
                            {
                                "name": "label",
                                "type": "bytes32",
                                "value": "0xd3200017ea14eb4c6e586a90c2f079b3dfbe6da54d99a3f94baca547a272e070"
                            },
                            {
                                "name": "owner",
                                "type": "address",
                                "value": "0x084b1c3c81545d370f3634392de611caabff8148"
                            }
                        ],
                        "constructorArguments": "",
                        "name": "setSubnodeOwner",
                        "returnParams": [
                            {
                                "name": "",
                                "type": "bytes32",
                                "value": "0x1b1ff99ceb5435459796f5094c4168cceaab843148dd19914d2c510bcfe39cde"
                            }
                        ],
                        "signature": "setSubnodeOwner(bytes32,bytes32,address)"
                    },
                    "errorInfo": "",
                    "fromAddress": "0x084b1c3c81545d370f3634392de611caabff8148",
                    "gasUsed": 25069,
                    "id": 5,
                    "methodDecoded": true,
                    "operation": "CALL",
                    "output": "0x1b1ff99ceb5435459796f5094c4168cceaab843148dd19914d2c510bcfe39cde",
                    "revert": false,
                    "revertMessage": "",
                    "selector": "0x06ab5923",
                    "status": true,
                    "value": "0"
                },
                "nodeType": 0
            },
            "6": {
                "event": {
                    "contract": "0x00000000000c2e074ec69a0dfb2997ba6c7d2e1e",
                    "decodedLog": {
                        "name": "NewOwner",
                        "params": [
                            {
                                "name": "node",
                                "type": "bytes32",
                                "value": "0x91d1777781884d03a6757a803996e38de2a42967fb37eeaca72729271025a9e2"
                            },
                            {
                                "name": "label",
                                "type": "bytes32",
                                "value": "0xd3200017ea14eb4c6e586a90c2f079b3dfbe6da54d99a3f94baca547a272e070"
                            },
                            {
                                "name": "owner",
                                "type": "address",
                                "value": "0x084b1c3c81545d370f3634392de611caabff8148"
                            }
                        ],
                        "signature": "NewOwner(bytes32,bytes32,address)"
                    },
                    "id": 6,
                    "logData": "0x000000000000000000000000084b1c3c81545d370f3634392de611caabff8148",
                    "logDecoded": true,
                    "operation": "EVENT",
                    "revert": false,
                    "status": true,
                    "topics": [
                        "0xce0457fe73731f824cc272376169235128c118b49d344817417c6d108d155e82",
                        "0x91d1777781884d03a6757a803996e38de2a42967fb37eeaca72729271025a9e2",
                        "0xd3200017ea14eb4c6e586a90c2f079b3dfbe6da54d99a3f94baca547a272e070"
                    ]
                },
                "nodeType": 1
            },
            "7": {
                "invocation": {
                    "address": "0x00000000000c2e074ec69a0dfb2997ba6c7d2e1e",
                    "callData": "0x1b1ff99ceb5435459796f5094c4168cceaab843148dd19914d2c510bcfe39cde000000000000000000000000a2c122be93b0074270ebee7f6b7292c7deb45047",
                    "decodedMethod": {
                        "callParams": [
                            {
                                "name": "node",
                                "type": "bytes32",
                                "value": "0x1b1ff99ceb5435459796f5094c4168cceaab843148dd19914d2c510bcfe39cde"
                            },
                            {
                                "name": "resolver",
                                "type": "address",
                                "value": "0xa2c122be93b0074270ebee7f6b7292c7deb45047"
                            }
                        ],
                        "constructorArguments": "",
                        "name": "setResolver",
                        "returnParams": [],
                        "signature": "setResolver(bytes32,address)"
                    },
                    "errorInfo": "",
                    "fromAddress": "0x084b1c3c81545d370f3634392de611caabff8148",
                    "gasUsed": 24371,
                    "id": 7,
                    "methodDecoded": true,
                    "operation": "CALL",
                    "output": "",
                    "revert": false,
                    "revertMessage": "",
                    "selector": "0x1896f70a",
                    "status": true,
                    "value": "0"
                },
                "nodeType": 0
            },
            "8": {
                "event": {
                    "contract": "0x00000000000c2e074ec69a0dfb2997ba6c7d2e1e",
                    "decodedLog": {
                        "name": "NewResolver",
                        "params": [
                            {
                                "name": "node",
                                "type": "bytes32",
                                "value": "0x1b1ff99ceb5435459796f5094c4168cceaab843148dd19914d2c510bcfe39cde"
                            },
                            {
                                "name": "resolver",
                                "type": "address",
                                "value": "0xa2c122be93b0074270ebee7f6b7292c7deb45047"
                            }
                        ],
                        "signature": "NewResolver(bytes32,address)"
                    },
                    "id": 8,
                    "logData": "0x000000000000000000000000a2c122be93b0074270ebee7f6b7292c7deb45047",
                    "logDecoded": true,
                    "operation": "EVENT",
                    "revert": false,
                    "status": true,
                    "topics": [
                        "0x335721b01866dc23fbee8b6b2c7b1e14d6f05c28cd35a2c934239f94095602a0",
                        "0x1b1ff99ceb5435459796f5094c4168cceaab843148dd19914d2c510bcfe39cde"
                    ]
                },
                "nodeType": 1
            },
            "9": {
                "invocation": {
                    "address": "0xa2c122be93b0074270ebee7f6b7292c7deb45047",
                    "callData": "0x1b1ff99ceb5435459796f5094c4168cceaab843148dd19914d2c510bcfe39cde0000000000000000000000000000000000000000000000000000000000000040000000000000000000000000000000000000000000000000000000000000000938366d687a2e6574680000000000000000000000000000000000000000000000",
                    "decodedMethod": {
                        "callParams": [
                            {
                                "name": "node",
                                "type": "bytes32",
                                "value": "0x1b1ff99ceb5435459796f5094c4168cceaab843148dd19914d2c510bcfe39cde"
                            },
                            {
                                "name": "_name",
                                "type": "string",
                                "value": "86mhz.eth"
                            }
                        ],
                        "constructorArguments": "",
                        "name": "setName",
                        "returnParams": [],
                        "signature": "setName(bytes32,string)"
                    },
                    "errorInfo": "",
                    "fromAddress": "0x084b1c3c81545d370f3634392de611caabff8148",
                    "gasUsed": 26698,
                    "id": 9,
                    "methodDecoded": true,
                    "operation": "CALL",
                    "output": "",
                    "revert": false,
                    "revertMessage": "",
                    "selector": "0x77372213",
                    "status": true,
                    "value": "0"
                },
                "nodeType": 0
            }
        },
        "gasFlame": [
            {
                "children": [
                    {
                        "children": [
                            {
                                "children": [],
                                "depth": 0,
                                "name": "Initial Gas",
                                "value": 21568
                            },
                            {
                                "children": [
                                    {
                                        "children": [
                                            {
                                                "children": [],
                                                "depth": 2,
                                                "name": "owner",
                                                "value": 2332
                                            }
                                        ],
                                        "depth": 1,
                                        "name": "owner",
                                        "value": 10052
                                    },
                                    {
                                        "children": [
                                            {
                                                "children": [],
                                                "depth": 2,
                                                "name": "resolver",
                                                "value": 2226
                                            }
                                        ],
                                        "depth": 1,
                                        "name": "resolver",
                                        "value": 3424
                                    },
                                    {
                                        "children": [],
                                        "depth": 1,
                                        "name": "setSubnodeOwner",
                                        "value": 25069
                                    },
                                    {
                                        "children": [],
                                        "depth": 1,
                                        "name": "setResolver",
                                        "value": 24371
                                    },
                                    {
                                        "children": [
                                            {
                                                "children": [],
                                                "depth": 2,
                                                "name": "owner",
                                                "value": 951
                                            }
                                        ],
                                        "depth": 1,
                                        "name": "setName",
                                        "value": 26698
                                    }
                                ],
                                "depth": 0,
                                "name": "Executed Gas",
                                "value": 105946
                            }
                        ],
                        "depth": -1,
                        "name": "Actual Gas Used",
                        "value": 127514
                    },
                    {
                        "children": [],
                        "depth": -1,
                        "name": "Refunded Gas",
                        "value": 0
                    }
                ],
                "depth": -2,
                "name": "Total Gas",
                "value": 127514
            }
        ],
        "isConfirmed": true,
        "mainTrace": [
            {
                "children": [
                    {
                        "children": [
                            {
                                "children": [
                                    {
                                        "children": [],
                                        "depth": 2,
                                        "id": 2,
                                        "order": 2
                                    }
                                ],
                                "depth": 1,
                                "id": 1,
                                "order": 1
                            },
                            {
                                "children": [
                                    {
                                        "children": [],
                                        "depth": 2,
                                        "id": 4,
                                        "order": 4
                                    }
                                ],
                                "depth": 1,
                                "id": 3,
                                "order": 3
                            },
                            {
                                "children": [
                                    {
                                        "children": [],
                                        "depth": 2,
                                        "id": 6,
                                        "order": 6
                                    }
                                ],
                                "depth": 1,
                                "id": 5,
                                "order": 5
                            },
                            {
                                "children": [
                                    {
                                        "children": [],
                                        "depth": 2,
                                        "id": 8,
                                        "order": 8
                                    }
                                ],
                                "depth": 1,
                                "id": 7,
                                "order": 7
                            },
                            {
                                "children": [
                                    {
                                        "children": [],
                                        "depth": 2,
                                        "id": 10,
                                        "order": 10
                                    }
                                ],
                                "depth": 1,
                                "id": 9,
                                "order": 9
                            }
                        ],
                        "depth": 0,
                        "id": 0,
                        "order": 0
                    }
                ],
                "depth": -1,
                "id": -1,
                "order": -1
            }
        ],
        "mainTraceNodeCount": 11,
        "parentIdMap": {
            "0": -1,
            "1": 0,
            "10": 9,
            "2": 1,
            "3": 0,
            "4": 3,
            "5": 0,
            "6": 5,
            "7": 0,
            "8": 7,
            "9": 0
        },
        "tidyTrace": [
            {
                "children": [
                    {
                        "children": [
                            {
                                "children": [
                                    {
                                        "children": [],
                                        "depth": 2,
                                        "id": 6,
                                        "order": 6
                                    }
                                ],
                                "depth": 1,
                                "id": 5,
                                "order": 5
                            },
                            {
                                "children": [
                                    {
                                        "children": [],
                                        "depth": 2,
                                        "id": 8,
                                        "order": 8
                                    }
                                ],
                                "depth": 1,
                                "id": 7,
                                "order": 7
                            },
                            {
                                "children": [],
                                "depth": 1,
                                "id": 9,
                                "order": 9
                            }
                        ],
                        "depth": 0,
                        "id": 0,
                        "order": 0
                    }
                ],
                "depth": -1,
                "id": -1,
                "order": -1
            }
        ],
        "tidyTraceNodeCount": 6
    },
    "state_change": {
        "stateChanges": [
            {
                "address": "0x00000000000c2e074ec69a0dfb2997ba6c7d2e1e",
                "erc": "",
                "slots": [
                    {
                        "current": "0x000000000000000000000000084b1c3c81545d370f3634392de611caabff8148",
                        "key": "0x1c7d7759d86b626ccfbc20f9d1c4458a747c6000b6326e67958e20ce48c98042",
                        "prev": "0x0000000000000000000000000000000000000000000000000000000000000000"
                    },
                    {
                        "current": "0x000000000000000000000000a2c122be93b0074270ebee7f6b7292c7deb45047",
                        "key": "0x1c7d7759d86b626ccfbc20f9d1c4458a747c6000b6326e67958e20ce48c98043",
                        "prev": "0x0000000000000000000000000000000000000000000000000000000000000000"
                    }
                ],
                "storageVariables": [
                    {
                        "name": "records",
                        "type": "mapping(bytes32 => struct ENSRegistry.Record)",
                        "value": {
                            "pairs": [
                                {
                                    "key": "0x1b1ff99ceb5435459796f5094c4168cceaab843148dd19914d2c510bcfe39cde",
                                    "value": {
                                        "fields": [
                                            {
                                                "name": "owner",
                                                "type": "address",
                                                "value": {
                                                    "current": "0x084b1c3c81545d370f3634392de611caabff8148",
                                                    "prev": "0x0000000000000000000000000000000000000000",
                                                    "typeTag": 1
                                                }
                                            },
                                            {
                                                "name": "resolver",
                                                "type": "address",
                                                "value": {
                                                    "current": "0xa2c122be93b0074270ebee7f6b7292c7deb45047",
                                                    "prev": "0x0000000000000000000000000000000000000000",
                                                    "typeTag": 1
                                                }
                                            },
                                            {
                                                "name": "ttl",
                                                "type": "uint64",
                                                "value": {
                                                    "current": "0",
                                                    "prev": "0",
                                                    "typeTag": 1
                                                }
                                            }
                                        ],
                                        "typeTag": 3
                                    }
                                }
                            ],
                            "typeTag": 4
                        }
                    }
                ]
            },
            {
                "address": "0xa2c122be93b0074270ebee7f6b7292c7deb45047",
                "erc": "",
                "slots": [
                    {
                        "current": "0x38366d687a2e6574680000000000000000000000000000000000000000000012",
                        "key": "0x1ddde8263688d4386178cf6c29d81e88ee3d3a588e42ef37d7a44f5b1698a718",
                        "prev": "0x0000000000000000000000000000000000000000000000000000000000000000"
                    }
                ],
                "storageVariables": [
                    {
                        "name": "name",
                        "type": "mapping(bytes32 => string)",
                        "value": {
                            "pairs": [
                                {
                                    "key": "0x1b1ff99ceb5435459796f5094c4168cceaab843148dd19914d2c510bcfe39cde",
                                    "value": {
                                        "current": "86mhz.eth",
                                        "prev": "",
                                        "typeTag": 1
                                    }
                                }
                            ],
                            "typeTag": 4
                        }
                    }
                ]
            }
        ]
    }
}