{
    "balance_change": {
        "balanceChanges": [
            {
                "account": "0x9fd0d228d9afedf44f262be67217fadf0531152a",
                "assets": [
                    {
                        "address": "0xeeeeeeeeeeeeeeeeeeeeeeeeeeeeeeeeeeeeeeee",
                        "amount": "2.0277981826628",
                        "iconUrl": "https://assets.blocksec.com/image/1663669189317-3.png",
                        "isERC1155": false,
                        "isERC721": false,
                        "sign": false,
                        "value": "5670.0851665829269055"
                    }
                ]
            },
            {
                "account": "0x03df236eacfcef4457ff7d6b88e8f00823014bcd",
                "assets": [
                    {
                        "address": "0xeeeeeeeeeeeeeeeeeeeeeeeeeeeeeeeeeeeeeeee",
                        "amount": "2.0277981826628",
                        "iconUrl": "https://assets.blocksec.com/image/1663669189317-3.png",
                        "isERC1155": false,
                        "isERC721": false,
                        "sign": true,
                        "value": "5670.0851665829269055"
                    }
                ]
            }
        ]
    },
    "profile": {
        "basic_info": {
            "baseFee": "34.222378718",
            "blockNumber": 14276857,
            "callData": "0x8e1e280c000000000000000000000000dac17f958d2ee523a2206206994597c13d831ec70000000000000000000000000000000000000000000000000000000000000001000000000000000000000000000000000000000000000000000000009ffda440000000000000000000000000000000000000000000001439a92a7db07de518f8",
            "debugEnable": true,
            "errorInfo": "",
            "eventCount": 2,
            "feeRecipient": "0x829bd824b016326a401d083b33d092293333a830",
            "formatValue": "2.0277981826628",
            "gasLimit": 600000,
            "gasPrice": "36.667333284",
            "gasUsed": 142120,
            "intTxnCount": 1,
            "internalRevert": false,
            "internalRevertMessage": "",
            "isContractCreation": false,
            "isFlashloan": false,
            "maxFee": "44.495456657",
            "nonce": 35360,
            "overwritedBlockNumber": -1,
            "priorityFee": "2.444954566",
            "receiver": "0x03df236eacfcef4457ff7d6b88e8f00823014bcd",
            "revertMessage": "",
            "sender": "0x9fd0d228d9afedf44f262be67217fadf0531152a",
            "simulationEnable": true,
            "sourceTxnHash": "0x25dfc54e891cf9e922cfd8dbdccec4a963fc707ab251b47d78f00cd30ca9e2f6",
            "status": true,
            "timestamp": "2022-02-25T18:23:56Z",
            "transactionFee": "0.00521116140632208",
            "txnHash": "0x25dfc54e891cf9e922cfd8dbdccec4a963fc707ab251b47d78f00cd30ca9e2f6",
            "txnIndex": 58,
            "type": 2,
            "value": "2027798182662800000"
        },
        "fund_flow": [
            {
                "amount": "2.0277981826628",
                "from": "0x9fd0d228d9afedf44f262be67217fadf0531152a",
                "id": 1,
                "isERC1155": false,
                "isERC721": false,
                "isReverted": false,
                "order": 1,
                "to": "0x03df236eacfcef4457ff7d6b88e8f00823014bcd",
                "token": "0xeeeeeeeeeeeeeeeeeeeeeeeeeeeeeeeeeeeeeeee"
            }
        ],
        "token_infos": [
            {
                "address": "0xc02aaa39b223fe8d0a0e5c4f27ead9083c756cc2",
                "decimals": 18
            },
            {
                "address": "0xeeeeeeeeeeeeeeeeeeeeeeeeeeeeeeeeeeeeeeee",
                "decimals": 18
            }
        ]
    },
    "address_label": {
        "labels": [
            {
                "address": "0x0000000000000000000000000000000000000004",
                "label": "Precompiled"
            },
            {
                "address": "0xeeeeeeeeeeeeeeeeeeeeeeeeeeeeeeeeeeeeeeee",
                "label": "Ether"
            },
            {
                "address": "0xdac17f958d2ee523a2206206994597c13d831ec7",
                "label": "Tether: USDT Stablecoin"
            },
            {
                "address": "0x03df236eacfcef4457ff7d6b88e8f00823014bcd",
                "label": "AdminUpgradeabilityProxy"
            },
            {
                "address": "0x45cef1cf7ce1c2217f123242632d5812fd10d74d",
                "label": "NestMining"
            },
            {
                "address": "0x0000000000000000000000000000000000000001",
                "label": "Precompiled"
            },
            {
                "address": "0x0000000000000000000000000000000000000002",
                "label": "Precompiled"
            },
            {
                "address": "0x0000000000000000000000000000000000000003",
                "label": "Precompiled"
            }
        ]
    },
    "trace": {
        "accountLabels": null,
        "dataMap": {
            "-1": {
                "invocation": {
                    "address": "0x9fd0d228d9afedf44f262be67217fadf0531152a",
                    "callData": "",
                    "decodedMethod": null,
                    "errorInfo": "",
                    "fromAddress": "",
                    "gasUsed": 0,
                    "id": -1,
                    "methodDecoded": false,
                    "operation": "",
                    "output": "",
                    "revert": false,
                    "revertMessage": "",
                    "selector": "",
                    "status": false,
                    "value": ""
                },
                "nodeType": 0
            },
            "0": {
                "invocation": {
                    "address": "0x03df236eacfcef4457ff7d6b88e8f00823014bcd",
                    "callData": "0x000000000000000000000000dac17f958d2ee523a2206206994597c13d831ec70000000000000000000000000000000000000000000000000000000000000001000000000000000000000000000000000000000000000000000000009ffda440000000000000000000000000000000000000000000001439a92a7db07de518f8",
                    "decodedMethod": {
                        "callParams": [
                            {
                                "name": "tokenAddress",
                                "type": "address",
                                "value": "0xdac17f958d2ee523a2206206994597c13d831ec7"
                            },
                            {
                                "name": "ethNum",
                                "type": "uint256",
                                "value": "1"
                            },
                            {
                                "name": "tokenAmountPerEth",
                                "type": "uint256",
                                "value": "2,684,200,000"
                            },
                            {
                                "name": "ntokenAmountPerEth",
                                "type": "uint256",
                                "value": "95,510,983,763,132,760,267,000"
                            }
                        ],
                        "constructorArguments": "",
                        "name": "post2",
                        "returnParams": [],
                        "signature": "post2(address,uint256,uint256,uint256)"
                    },
                    "errorInfo": "",
                    "fromAddress": "0x9fd0d228d9afedf44f262be67217fadf0531152a",
                    "gasUsed": 142120,
                    "id": 0,
                    "methodDecoded": true,
                    "operation": "CALL",
                    "output": "",
                    "revert": false,
                    "revertMessage": "",
                    "selector": "0x8e1e280c",
                    "status": true,
                    "value": "2.0277981826628"
                },
                "nodeType": 0
            },
            "1": {
                "invocation": {
                    "address": "0x45cef1cf7ce1c2217f123242632d5812fd10d74d",
                    "callData": "0x000000000000000000000000dac17f958d2ee523a2206206994597c13d831ec70000000000000000000000000000000000000000000000000000000000000001000000000000000000000000000000000000000000000000000000009ffda440000000000000000000000000000000000000000000001439a92a7db07de518f8",
                    "decodedMethod": {
                        "callParams": [
                            {
                                "name": "tokenAddress",
                                "type": "address",
                                "value": "0xdac17f958d2ee523a2206206994597c13d831ec7"
                            },
                            {
                                "name": "ethNum",
                                "type": "uint256",
                                "value": "1"
                            },
                            {
                                "name": "tokenAmountPerEth",
                                "type": "uint256",
                                "value": "2,684,200,000"
                            },
                            {
                                "name": "ntokenAmountPerEth",
                                "type": "uint256",
                                "value": "95,510,983,763,132,760,267,000"
                            }
                        ],
                        "constructorArguments": "",
                        "name": "post2",
                        "returnParams": [],
                        "signature": "post2(address,uint256,uint256,uint256)"
                    },
                    "errorInfo": "",
                    "fromAddress": "0x03df236eacfcef4457ff7d6b88e8f00823014bcd",
                    "gasUsed": 112869,
                    "id": 1,
                    "methodDecoded": true,
                    "operation": "DELEGATECALL",
                    "output": "",
                    "revert": false,
                    "revertMessage": "",
                    "selector": "0x8e1e280c",
                    "status": true,
                    "value": "2.0277981826628"
                },
                "nodeType": 0
            },
            "2": {
                "event": {
                    "contract": "0x03df236eacfcef4457ff7d6b88e8f00823014bcd",
                    "decodedLog": {
                        "name": "Post",
                        "params": [
                            {
                                "name": "tokenAddress",
                                "type": "address",
                                "value": "0xdac17f958d2ee523a2206206994597c13d831ec7"
                            },
                            {
                                "name": "miner",
                                "type": "address",
                                "value": "0x9fd0d228d9afedf44f262be67217fadf0531152a"
                            },
                            {
                                "name": "index",
                                "type": "uint256",
                                "value": "28,768"
                            },
                            {
                                "name": "ethNum",
                                "type": "uint256",
                                "value": "1"
                            },
                            {
                                "name": "price",
                                "type": "uint256",
                                "value": "2,684,200,000"
                            }
                        ],
                        "signature": "Post(address,address,uint256,uint256,uint256)"
                    },
                    "id": 2,
                    "logData": "0x000000000000000000000000dac17f958d2ee523a2206206994597c13d831ec70000000000000000000000009fd0d228d9afedf44f262be67217fadf0531152a00000000000000000000000000000000000000000000000000000000000070600000000000000000000000000000000000000000000000000000000000000001000000000000000000000000000000000000000000000000000000009ffda440",
                    "logDecoded": true,
                    "operation": "EVENT",
                    "revert": false,
                    "status": true,
                    "topics": [
                        "0xd23e2c75c57c7692ea5f2b56bbcc696fd4481bfeeeda58dd5e6b5b9a0e429c10"
                    ]
                },
                "nodeType": 1
            },
            "3": {
                "event": {
                    "contract": "0x03df236eacfcef4457ff7d6b88e8f00823014bcd",
                    "decodedLog": {
                        "name": "Post",
                        "params": [
                            {
                                "name": "tokenAddress",
                                "type": "address",
                                "value": "0x04abeda201850ac0124161f037efd70c74ddc74c"
                            },
                            {
                                "name": "miner",
                                "type": "address",
                                "value": "0x9fd0d228d9afedf44f262be67217fadf0531152a"
                            },
                            {
                                "name": "index",
                                "type": "uint256",
                                "value": "28,482"
                            },
                            {
                                "name": "ethNum",
                                "type": "uint256",
                                "value": "1"
                            },
                            {
                                "name": "price",
                                "type": "uint256",
                                "value": "95,510,983,763,132,760,267,000"
                            }
                        ],
                        "signature": "Post(address,address,uint256,uint256,uint256)"
                    },
                    "id": 3,
                    "logData": "0x00000000000000000000000004abeda201850ac0124161f037efd70c74ddc74c0000000000000000000000009fd0d228d9afedf44f262be67217fadf0531152a0000000000000000000000000000000000000000000000000000000000006f420000000000000000000000000000000000000000000000000000000000000001000000000000000000000000000000000000000000001439a92a7db07de518f8",
                    "logDecoded": true,
                    "operation": "EVENT",
                    "revert": false,
                    "status": true,
                    "topics": [
                        "0xd23e2c75c57c7692ea5f2b56bbcc696fd4481bfeeeda58dd5e6b5b9a0e429c10"
                    ]
                },
                "nodeType": 1
            }
        },
        "gasFlame": [
            {
                "children": [
                    {
                        "children": [
                            {
                                "children": [],
                                "depth": 0,
                                "name": "Initial Gas",
                                "value": 21996
                            },
                            {
                                "children": [
                                    {
                                        "children": [],
                                        "depth": 1,
                                        "name": "post2",
                                        "value": 112869
                                    }
                                ],
                                "depth": 0,
                                "name": "Executed Gas",
                                "value": 120124
                            }
                        ],
                        "depth": -1,
                        "name": "Actual Gas Used",
                        "value": 142120
                    },
                    {
                        "children": [],
                        "depth": -1,
                        "name": "Refunded Gas",
                        "value": 0
                    }
                ],
                "depth": -2,
                "name": "Total Gas",
                "value": 142120
            }
        ],
        "isConfirmed": true,
        "mainTrace": [
            {
                "children": [
                    {
                        "children": [
                            {
                                "children": [
                                    {
                                        "children": [],
                                        "depth": 2,
                                        "id": 2,
                                        "order": 2
                                    },
                                    {
                                        "children": [],
                                        "depth": 2,
                                        "id": 3,
                                        "order": 3
                                    }
                                ],
                                "depth": 1,
                                "id": 1,
                                "order": 1
                            }
                        ],
                        "depth": 0,
                        "id": 0,
                        "order": 0
                    }
                ],
                "depth": -1,
                "id": -1,
                "order": -1
            }
        ],
        "mainTraceNodeCount": 4,
        "parentIdMap": {
            "0": -1,
            "1": 0,
            "2": 1,
            "3": 1
        },
        "tidyTrace": [
            {
                "children": [
                    {
                        "children": [
                            {
                                "children": [
                                    {
                                        "children": [],
                                        "depth": 2,
                                        "id": 2,
                                        "order": 2
                                    },
                                    {
                                        "children": [],
                                        "depth": 2,
                                        "id": 3,
                                        "order": 3
                                    }
                                ],
                                "depth": 1,
                                "id": 1,
                                "order": 1
                            }
                        ],
                        "depth": 0,
                        "id": 0,
                        "order": 0
                    }
                ],
                "depth": -1,
                "id": -1,
                "order": -1
            }
        ],
        "tidyTraceNodeCount": 4
    },
    "state_change": {
        "stateChanges": [
            {
                "address": "0x03df236eacfcef4457ff7d6b88e8f00823014bcd",
                "erc": "",
                "slots": [
                    {
                        "current": "0x0000000000000000000000000000000000000000000000000000000c0e26a060",
                        "key": "0x64fd4ce5296639f79c2e67b8dd95b15ec7bc6142ac74ece19cc2de9f4a99f89c",
                        "prev": "0x0000000000000000000000000000000000000000000000000000000cae2444a0"
                    },
                    {
                        "current": "0x0000009a3b5f000028411eba80000027eaa890000000000100d9d8d300007060",
                        "key": "0xce6b0bb3482d6fcd115ad33ec4464c30e4c8b24ec6e3e5aa13819b39c576a85d",
                        "prev": "0x0000009fc99d0000284aba14c00000281705fc000000000100d9d89c0000705f"
                    },
                    {
                        "current": "0x000027ff691000010000006400000001000000010000000100d9d8f900000001",
                        "key": "0x627c920f0a7c0dfa7228b87648010a340fcc921390371e1036c3c361b95e39fe",
                        "prev": "0x0000000000000000000000000000000000000000000000000000000000000000"
                    },
                    {
                        "current": "0x0000075c2518515267221b33c750843566f749c70000000100d9d8d300006f42",
                        "key": "0x574a6d060e7c9420d1f51229816442b1e00d21e4fc2fd45d8f270a949bbccbd8",
                        "prev": "0x00000809a75c51695036e64e074fe8a50f3ed7470000000100d9d89c00006f41"
                    },
                    {
                        "current": "0x0000000000000000000000000000000000000000001083098fb88e02d04993b8",
                        "key": "0x72d645d97923a49767377aa0d5a754dfdba372d7e6871ea6d985114ff5695c87",
                        "prev": "0x00000000000000000000000000000000000000000010c19d3e72ce493b2eacb0"
                    },
                    {
                        "current": "0x8000000000000000000000000000000000000000000000000815e25460f8de00",
                        "key": "0xce6b0bb3482d6fcd115ad33ec4464c30e4c8b24ec6e3e5aa13819b39c576a85e",
                        "prev": "0x80000000000000000000000000000000000000000000000007b320079df45b80"
                    },
                    {
                        "current": "0x50e6a4a9f6c1c7000000006400000001000000010000000100d9d8f900000001",
                        "key": "0xb91edd21f7af8da19d324809dfd5f2e4cb1e6a4540360bef2c0805955861d2cb",
                        "prev": "0x0000000000000000000000000000000000000000000000000000000000000000"
                    },
                    {
                        "current": "0x0000000000000000000000000000000000000000000000000000000000007061",
                        "key": "0xce6b0bb3482d6fcd115ad33ec4464c30e4c8b24ec6e3e5aa13819b39c576a85c",
                        "prev": "0x0000000000000000000000000000000000000000000000000000000000007060"
                    },
                    {
                        "current": "0x0000000000000000000000000000000000000000000000000000000000006f43",
                        "key": "0x574a6d060e7c9420d1f51229816442b1e00d21e4fc2fd45d8f270a949bbccbd7",
                        "prev": "0x0000000000000000000000000000000000000000000000000000000000006f42"
                    }
                ],
                "storageVariables": [
                    {
                        "name": "_channels",
                        "type": "mapping(address => struct NestMining.PriceChannel)",
                        "value": {
                            "pairs": [
                                {
                                    "key": "0x04abeda201850ac0124161f037efd70c74ddc74c",
                                    "value": {
                                        "fields": [
                                            {
                                                "name": "sheets",
                                                "type": "struct NestMining.PriceSheet[]",
                                                "value": {
                                                    "elemType": "struct NestMining.PriceSheet",
                                                    "elems": [
                                                        {
                                                            "index": 28482,
                                                            "value": {
                                                                "fields": [
                                                                    {
                                                                        "name": "miner",
                                                                        "type": "uint32",
                                                                        "value": {
                                                                            "current": "1",
                                                                            "prev": "0",
                                                                            "typeTag": 1
                                                                        }
                                                                    },
                                                                    {
                                                                        "name": "height",
                                                                        "type": "uint32",
                                                                        "value": {
                                                                            "current": "14276857",
                                                                            "prev": "0",
                                                                            "typeTag": 1
                                                                        }
                                                                    },
                                                                    {
                                                                        "name": "remainNum",
                                                                        "type": "uint32",
                                                                        "value": {
                                                                            "current": "1",
                                                                            "prev": "0",
                                                                            "typeTag": 1
                                                                        }
                                                                    },
                                                                    {
                                                                        "name": "ethNumBal",
                                                                        "type": "uint32",
                                                                        "value": {
                                                                            "current": "1",
                                                                            "prev": "0",
                                                                            "typeTag": 1
                                                                        }
                                                                    },
                                                                    {
                                                                        "name": "tokenNumBal",
                                                                        "type": "uint32",
                                                                        "value": {
                                                                            "current": "1",
                                                                            "prev": "0",
                                                                            "typeTag": 1
                                                                        }
                                                                    },
                                                                    {
                                                                        "name": "nestNum1k",
                                                                        "type": "uint24",
                                                                        "value": {
                                                                            "current": "100",
                                                                            "prev": "0",
                                                                            "typeTag": 1
                                                                        }
                                                                    },
                                                                    {
                                                                        "name": "level",
                                                                        "type": "uint8",
                                                                        "value": {
                                                                            "current": "0",
                                                                            "prev": "0",
                                                                            "typeTag": 1
                                                                        }
                                                                    },
                                                                    {
                                                                        "name": "shares",
                                                                        "type": "uint8",
                                                                        "value": {
                                                                            "current": "0",
                                                                            "prev": "0",
                                                                            "typeTag": 1
                                                                        }
                                                                    },
                                                                    {
                                                                        "name": "priceFloat",
                                                                        "type": "uint56",
                                                                        "value": {
                                                                            "current": "22771593037398471",
                                                                            "prev": "0",
                                                                            "typeTag": 1
                                                                        }
                                                                    }
                                                                ],
                                                                "typeTag": 3
                                                            }
                                                        }
                                                    ],
                                                    "typeTag": 2
                                                }
                                            },
                                            {
                                                "name": "price",
                                                "type": "struct NestMining.PriceInfo",
                                                "value": {
                                                    "fields": [
                                                        {
                                                            "name": "index",
                                                            "type": "uint32",
                                                            "value": {
                                                                "current": "28482",
                                                                "prev": "28481",
                                                                "typeTag": 1
                                                            }
                                                        },
                                                        {
                                                            "name": "height",
                                                            "type": "uint32",
                                                            "value": {
                                                                "current": "14276819",
                                                                "prev": "14276764",
                                                                "typeTag": 1
                                                            }
                                                        },
                                                        {
                                                            "name": "remainNum",
                                                            "type": "uint32",
                                                            "value": {
                                                                "current": "1",
                                                                "prev": "1",
                                                                "typeTag": 1
                                                            }
                                                        },
                                                        {
                                                            "name": "priceFloat",
                                                            "type": "uint56",
                                                            "value": {
                                                                "current": "22663363032467911",
                                                                "prev": "22492318783166279",
                                                                "typeTag": 1
                                                            }
                                                        },
                                                        {
                                                            "name": "avgFloat",
                                                            "type": "uint56",
                                                            "value": {
                                                                "current": "22890076020880327",
                                                                "prev": "22915266352926215",
                                                                "typeTag": 1
                                                            }
                                                        },
                                                        {
                                                            "name": "sigmaSQ",
                                                            "type": "uint48",
                                                            "value": {
                                                                "current": "123479320",
                                                                "prev": "134850396",
                                                                "typeTag": 1
                                                            }
                                                        }
                                                    ],
                                                    "typeTag": 3
                                                }
                                            }
                                        ],
                                        "typeTag": 3
                                    }
                                },
                                {
                                    "key": "0xdac17f958d2ee523a2206206994597c13d831ec7",
                                    "value": {
                                        "fields": [
                                            {
                                                "name": "sheets",
                                                "type": "struct NestMining.PriceSheet[]",
                                                "value": {
                                                    "elemType": "struct NestMining.PriceSheet",
                                                    "elems": [
                                                        {
                                                            "index": 28768,
                                                            "value": {
                                                                "fields": [
                                                                    {
                                                                        "name": "miner",
                                                                        "type": "uint32",
                                                                        "value": {
                                                                            "current": "1",
                                                                            "prev": "0",
                                                                            "typeTag": 1
                                                                        }
                                                                    },
                                                                    {
                                                                        "name": "height",
                                                                        "type": "uint32",
                                                                        "value": {
                                                                            "current": "14276857",
                                                                            "prev": "0",
                                                                            "typeTag": 1
                                                                        }
                                                                    },
                                                                    {
                                                                        "name": "remainNum",
                                                                        "type": "uint32",
                                                                        "value": {
                                                                            "current": "1",
                                                                            "prev": "0",
                                                                            "typeTag": 1
                                                                        }
                                                                    },
                                                                    {
                                                                        "name": "ethNumBal",
                                                                        "type": "uint32",
                                                                        "value": {
                                                                            "current": "1",
                                                                            "prev": "0",
                                                                            "typeTag": 1
                                                                        }
                                                                    },
                                                                    {
                                                                        "name": "tokenNumBal",
                                                                        "type": "uint32",
                                                                        "value": {
                                                                            "current": "1",
                                                                            "prev": "0",
                                                                            "typeTag": 1
                                                                        }
                                                                    },
                                                                    {
                                                                        "name": "nestNum1k",
                                                                        "type": "uint24",
                                                                        "value": {
                                                                            "current": "100",
                                                                            "prev": "0",
                                                                            "typeTag": 1
                                                                        }
                                                                    },
                                                                    {
                                                                        "name": "level",
                                                                        "type": "uint8",
                                                                        "value": {
                                                                            "current": "0",
                                                                            "prev": "0",
                                                                            "typeTag": 1
                                                                        }
                                                                    },
                                                                    {
                                                                        "name": "shares",
                                                                        "type": "uint8",
                                                                        "value": {
                                                                            "current": "1",
                                                                            "prev": "0",
                                                                            "typeTag": 1
                                                                        }
                                                                    },
                                                                    {
                                                                        "name": "priceFloat",
                                                                        "type": "uint56",
                                                                        "value": {
                                                                            "current": "171788800000",
                                                                            "prev": "0",
                                                                            "typeTag": 1
                                                                        }
                                                                    }
                                                                ],
                                                                "typeTag": 3
                                                            }
                                                        }
                                                    ],
                                                    "typeTag": 2
                                                }
                                            },
                                            {
                                                "name": "price",
                                                "type": "struct NestMining.PriceInfo",
                                                "value": {
                                                    "fields": [
                                                        {
                                                            "name": "index",
                                                            "type": "uint32",
                                                            "value": {
                                                                "current": "28768",
                                                                "prev": "28767",
                                                                "typeTag": 1
                                                            }
                                                        },
                                                        {
                                                            "name": "height",
                                                            "type": "uint32",
                                                            "value": {
                                                                "current": "14276819",
                                                                "prev": "14276764",
                                                                "typeTag": 1
                                                            }
                                                        },
                                                        {
                                                            "name": "remainNum",
                                                            "type": "uint32",
                                                            "value": {
                                                                "current": "1",
                                                                "prev": "1",
                                                                "typeTag": 1
                                                            }
                                                        },
                                                        {
                                                            "name": "priceFloat",
                                                            "type": "uint56",
                                                            "value": {
                                                                "current": "171440640000",
                                                                "prev": "172184960000",
                                                                "typeTag": 1
                                                            }
                                                        },
                                                        {
                                                            "name": "avgFloat",
                                                            "type": "uint56",
                                                            "value": {
                                                                "current": "172891224704",
                                                                "prev": "173052400832",
                                                                "typeTag": 1
                                                            }
                                                        },
                                                        {
                                                            "name": "sigmaSQ",
                                                            "type": "uint48",
                                                            "value": {
                                                                "current": "10107743",
                                                                "prev": "10471837",
                                                                "typeTag": 1
                                                            }
                                                        }
                                                    ],
                                                    "typeTag": 3
                                                }
                                            },
                                            {
                                                "name": "feeInfo",
                                                "type": "uint256",
                                                "value": {
                                                    "current": "57896044618658097711785492504343953926634992332820282019729374624535411219968",
                                                    "prev": "57896044618658097711785492504343953926634992332820282019729346826352748419968",
                                                    "typeTag": 1
                                                }
                                            }
                                        ],
                                        "typeTag": 3
                                    }
                                }
                            ],
                            "typeTag": 4
                        }
                    },
                    {
                        "name": "_accounts",
                        "type": "struct NestMining.Account[]",
                        "value": {
                            "elemType": "struct NestMining.Account",
                            "elems": [
                                {
                                    "index": 1,
                                    "value": {
                                        "fields": [
                                            {
                                                "name": "balances",
                                                "type": "mapping(address => struct NestMining.UINT)",
                                                "value": {
                                                    "pairs": [
                                                        {
                                                            "key": "0x04abeda201850ac0124161f037efd70c74ddc74c",
                                                            "value": {
                                                                "fields": [
                                                                    {
                                                                        "name": "value",
                                                                        "type": "uint256",
                                                                        "value": {
                                                                            "current": "19961619499970139578274744",
                                                                            "prev": "20257130483733272338541744",
                                                                            "typeTag": 1
                                                                        }
                                                                    }
                                                                ],
                                                                "typeTag": 3
                                                            }
                                                        },
                                                        {
                                                            "key": "0xdac17f958d2ee523a2206206994597c13d831ec7",
                                                            "value": {
                                                                "fields": [
                                                                    {
                                                                        "name": "value",
                                                                        "type": "uint256",
                                                                        "value": {
                                                                            "current": "51777020000",
                                                                            "prev": "54461220000",
                                                                            "typeTag": 1
                                                                        }
                                                                    }
                                                                ],
                                                                "typeTag": 3
                                                            }
                                                        }
                                                    ],
                                                    "typeTag": 4
                                                }
                                            }
                                        ],
                                        "typeTag": 3
                                    }
                                }
                            ],
                            "typeTag": 2
                        }
                    }
                ]
            }
        ]
    }
}