{
    "balance_change": {
        "balanceChanges": []
    },
    "profile": {
        "basic_info": {
            "baseFee": "",
            "blockNumber": 6161313,
            "callData": "0x0d6b2df80000000000000000000000000000000000000000000000000de0b6b3a7640000000000000000000000000000000000000000000000000000000000000000000100000000000000000000000029488e24cfdaa52a0b837217926c0c0853db7962000000000000000000000000bc1483b3ea0408a0e33d5b0bfcd64c1eb6452991",
            "debugEnable": true,
            "errorInfo": "execution reverted",
            "eventCount": 0,
            "feeRecipient": "0x829bd824b016326a401d083b33d092293333a830",
            "formatValue": "0",
            "gasLimit": 2500000,
            "gasPrice": "101.9",
            "gasUsed": 29918,
            "intTxnCount": 2,
            "internalRevert": true,
            "internalRevertMessage": "",
            "isContractCreation": false,
            "isFlashloan": false,
            "maxFee": "",
            "nonce": 6026,
            "overwritedBlockNumber": -1,
            "priorityFee": "",
            "receiver": "0xb4ccf87f1e3b12b45fa898f7ddfc61ed387c595f",
            "revertMessage": "",
            "sender": "0x7f2f933ee22b802935449911fc8c7f35fb00409c",
            "simulationEnable": true,
            "sourceTxnHash": "0x26e4276af278880fd5edb830e1587ee1776c97897cb0cb417d40580bc7fb17d0",
            "status": false,
            "timestamp": "2018-08-17T02:39:04Z",
            "transactionFee": "0.0030486442",
            "txnHash": "0x26e4276af278880fd5edb830e1587ee1776c97897cb0cb417d40580bc7fb17d0",
            "txnIndex": 5,
            "type": 0,
            "value": "0"
        },
        "fund_flow": [],
        "token_infos": [
            {
                "address": "0xeeeeeeeeeeeeeeeeeeeeeeeeeeeeeeeeeeeeeeee",
                "decimals": 18
            },
            {
                "address": "0xc02aaa39b223fe8d0a0e5c4f27ead9083c756cc2",
                "decimals": 18
            }
        ]
    },
    "address_label": {
        "labels": [
            {
                "address": "0x0000000000000000000000000000000000000003",
                "label": "Precompiled"
            },
            {
                "address": "0x0000000000000000000000000000000000000004",
                "label": "Precompiled"
            },
            {
                "address": "0xeeeeeeeeeeeeeeeeeeeeeeeeeeeeeeeeeeeeeeee",
                "label": "Ether"
            },
            {
                "address": "0x29488e24cfdaa52a0b837217926c0c0853db7962",
                "label": "SuperCard"
            },
            {
                "address": "0x0000000000000000000000000000000000000001",
                "label": "Precompiled"
            },
            {
                "address": "0x0000000000000000000000000000000000000002",
                "label": "Precompiled"
            }
        ]
    },
    "trace": {
        "accountLabels": null,
        "dataMap": {
            "-1": {
                "invocation": {
                    "address": "0x7f2f933ee22b802935449911fc8c7f35fb00409c",
                    "callData": "",
                    "decodedMethod": null,
                    "errorInfo": "",
                    "fromAddress": "",
                    "gasUsed": 0,
                    "id": -1,
                    "methodDecoded": false,
                    "operation": "",
                    "output": "",
                    "revert": false,
                    "revertMessage": "",
                    "selector": "",
                    "status": false,
                    "value": ""
                },
                "nodeType": 0
            },
            "0": {
                "invocation": {
                    "address": "0xb4ccf87f1e3b12b45fa898f7ddfc61ed387c595f",
                    "callData": "0x0000000000000000000000000000000000000000000000000de0b6b3a7640000000000000000000000000000000000000000000000000000000000000000000100000000000000000000000029488e24cfdaa52a0b837217926c0c0853db7962000000000000000000000000bc1483b3ea0408a0e33d5b0bfcd64c1eb6452991",
                    "decodedMethod": null,
                    "errorInfo": "execution reverted",
                    "fromAddress": "0x7f2f933ee22b802935449911fc8c7f35fb00409c",
                    "gasUsed": 29918,
                    "id": 0,
                    "methodDecoded": false,
                    "operation": "CALL",
                    "output": "",
                    "revert": true,
                    "revertMessage": "",
                    "selector": "0x0d6b2df8",
                    "status": false,
                    "value": "0"
                },
                "nodeType": 0
            },
            "1": {
                "invocation": {
                    "address": "0x29488e24cfdaa52a0b837217926c0c0853db7962",
                    "callData": "0x",
                    "decodedMethod": {
                        "callParams": [],
                        "constructorArguments": "",
                        "name": "airDropPot_",
                        "returnParams": [
                            {
                                "name": "",
                                "type": "uint256",
                                "value": "540,015,496,242,861,481"
                            }
                        ],
                        "signature": "airDropPot_()"
                    },
                    "errorInfo": "",
                    "fromAddress": "0xb4ccf87f1e3b12b45fa898f7ddfc61ed387c595f",
                    "gasUsed": 1088,
                    "id": 1,
                    "methodDecoded": true,
                    "operation": "CALL",
                    "output": "0x000000000000000000000000000000000000000000000000077e853b92c315a9",
                    "revert": true,
                    "revertMessage": "",
                    "selector": "0xd87574e0",
                    "status": true,
                    "value": "0"
                },
                "nodeType": 0
            },
            "2": {
                "invocation": {
                    "address": "0x29488e24cfdaa52a0b837217926c0c0853db7962",
                    "callData": "0x",
                    "decodedMethod": {
                        "callParams": [],
                        "constructorArguments": "",
                        "name": "airDropTracker_",
                        "returnParams": [
                            {
                                "name": "",
                                "type": "uint256",
                                "value": "7"
                            }
                        ],
                        "signature": "airDropTracker_()"
                    },
                    "errorInfo": "",
                    "fromAddress": "0xb4ccf87f1e3b12b45fa898f7ddfc61ed387c595f",
                    "gasUsed": 494,
                    "id": 2,
                    "methodDecoded": true,
                    "operation": "CALL",
                    "output": "0x0000000000000000000000000000000000000000000000000000000000000007",
                    "revert": true,
                    "revertMessage": "",
                    "selector": "0x11a09ae7",
                    "status": true,
                    "value": "0"
                },
                "nodeType": 0
            }
        },
        "gasFlame": [
            {
                "children": [
                    {
                        "children": [
                            {
                                "children": [],
                                "depth": 0,
                                "name": "Initial Gas",
                                "value": 24792
                            },
                            {
                                "children": [
                                    {
                                        "children": [],
                                        "depth": 1,
                                        "name": "airDropPot_",
                                        "value": 1088
                                    },
                                    {
                                        "children": [],
                                        "depth": 1,
                                        "name": "airDropTracker_",
                                        "value": 494
                                    }
                                ],
                                "depth": 0,
                                "name": "Executed Gas",
                                "value": 5126
                            }
                        ],
                        "depth": -1,
                        "name": "Actual Gas Used",
                        "value": 29918
                    },
                    {
                        "children": [],
                        "depth": -1,
                        "name": "Refunded Gas",
                        "value": 0
                    }
                ],
                "depth": -2,
                "name": "Total Gas",
                "value": 29918
            }
        ],
        "isConfirmed": true,
        "mainTrace": [
            {
                "children": [
                    {
                        "children": [
                            {
                                "children": [],
                                "depth": 1,
                                "id": 1,
                                "order": 1
                            },
                            {
                                "children": [],
                                "depth": 1,
                                "id": 2,
                                "order": 2
                            }
                        ],
                        "depth": 0,
                        "id": 0,
                        "order": 0
                    }
                ],
                "depth": -1,
                "id": -1,
                "order": -1
            }
        ],
        "mainTraceNodeCount": 3,
        "parentIdMap": {
            "0": -1,
            "1": 0,
            "2": 0
        },
        "tidyTrace": [
            {
                "children": [
                    {
                        "children": [
                            {
                                "children": [],
                                "depth": 1,
                                "id": 1,
                                "order": 1
                            },
                            {
                                "children": [],
                                "depth": 1,
                                "id": 2,
                                "order": 2
                            }
                        ],
                        "depth": 0,
                        "id": 0,
                        "order": 0
                    }
                ],
                "depth": -1,
                "id": -1,
                "order": -1
            }
        ],
        "tidyTraceNodeCount": 3
    },
    "state_change": {
        "stateChanges": []
    }
}