{
    "balance_change": {
        "balanceChanges": [
            {
                "account": "0x489402a0c0b1bf77e2425be23e6db3a264cb508b",
                "assets": [
                    {
                        "address": "0x1c040c4ab9acce984d0d4c135576598013950e52",
                        "amount": "1,558",
                        "iconUrl": "",
                        "isERC1155": false,
                        "isERC721": false,
                        "sign": false,
                        "value": ""
                    }
                ]
            },
            {
                "account": "0x7b00986829a557049dfc6ed46eafbf1bfd288971",
                "assets": [
                    {
                        "address": "0x1c040c4ab9acce984d0d4c135576598013950e52",
                        "amount": "1,558",
                        "iconUrl": "",
                        "isERC1155": false,
                        "isERC721": false,
                        "sign": true,
                        "value": ""
                    }
                ]
            }
        ]
    },
    "profile": {
        "basic_info": {
            "baseFee": "",
            "blockNumber": 9783670,
            "callData": "0xa9059cbb0000000000000000000000007b00986829a557049dfc6ed46eafbf1bfd2889710000000000000000000000000000000000000000000000547597e95cba980000",
            "debugEnable": true,
            "errorInfo": "",
            "eventCount": 1,
            "feeRecipient": "0x06b8c5883ec71bc3f4b332081519f23834c8706e",
            "formatValue": "0",
            "gasLimit": 42131,
            "gasPrice": "5",
            "gasUsed": 42131,
            "intTxnCount": 0,
            "internalRevert": false,
            "internalRevertMessage": "",
            "isContractCreation": false,
            "isFlashloan": false,
            "maxFee": "",
            "nonce": 11267,
            "overwritedBlockNumber": -1,
            "priorityFee": "",
            "receiver": "0x1c040c4ab9acce984d0d4c135576598013950e52",
            "revertMessage": "",
            "sender": "0x489402a0c0b1bf77e2425be23e6db3a264cb508b",
            "simulationEnable": true,
            "sourceTxnHash": "0x26c0cb13ac9a7e518a83b814177401555f899146e2336a9544ae51faad96f16a",
            "status": true,
            "timestamp": "2020-04-01T03:52:53Z",
            "transactionFee": "0.000210655",
            "txnHash": "0x26c0cb13ac9a7e518a83b814177401555f899146e2336a9544ae51faad96f16a",
            "txnIndex": 76,
            "type": 0,
            "value": "0"
        },
        "fund_flow": [
            {
                "amount": "1,558",
                "from": "0x489402a0c0b1bf77e2425be23e6db3a264cb508b",
                "id": 1,
                "isERC1155": false,
                "isERC721": false,
                "isReverted": false,
                "order": 1,
                "to": "0x7b00986829a557049dfc6ed46eafbf1bfd288971",
                "token": "0x1c040c4ab9acce984d0d4c135576598013950e52"
            }
        ],
        "token_infos": [
            {
                "address": "0x1c040c4ab9acce984d0d4c135576598013950e52",
                "decimals": 18
            },
            {
                "address": "0xc02aaa39b223fe8d0a0e5c4f27ead9083c756cc2",
                "decimals": 18
            },
            {
                "address": "0xeeeeeeeeeeeeeeeeeeeeeeeeeeeeeeeeeeeeeeee",
                "decimals": 18
            }
        ]
    },
    "address_label": {
        "labels": [
            {
                "address": "0x1c040c4ab9acce984d0d4c135576598013950e52",
                "label": "Hurricane Network (HNW)"
            },
            {
                "address": "0x0000000000000000000000000000000000000001",
                "label": "Precompiled"
            },
            {
                "address": "0x0000000000000000000000000000000000000002",
                "label": "Precompiled"
            },
            {
                "address": "0x0000000000000000000000000000000000000003",
                "label": "Precompiled"
            },
            {
                "address": "0x0000000000000000000000000000000000000004",
                "label": "Precompiled"
            },
            {
                "address": "0xeeeeeeeeeeeeeeeeeeeeeeeeeeeeeeeeeeeeeeee",
                "label": "Ether"
            }
        ]
    },
    "trace": {
        "accountLabels": null,
        "dataMap": {
            "-1": {
                "invocation": {
                    "address": "0x489402a0c0b1bf77e2425be23e6db3a264cb508b",
                    "callData": "",
                    "decodedMethod": null,
                    "errorInfo": "",
                    "fromAddress": "",
                    "gasUsed": 0,
                    "id": -1,
                    "methodDecoded": false,
                    "operation": "",
                    "output": "",
                    "revert": false,
                    "revertMessage": "",
                    "selector": "",
                    "status": false,
                    "value": ""
                },
                "nodeType": 0
            },
            "0": {
                "invocation": {
                    "address": "0x1c040c4ab9acce984d0d4c135576598013950e52",
                    "callData": "0x0000000000000000000000007b00986829a557049dfc6ed46eafbf1bfd2889710000000000000000000000000000000000000000000000547597e95cba980000",
                    "decodedMethod": {
                        "callParams": [
                            {
                                "name": "_to",
                                "type": "address",
                                "value": "0x7b00986829a557049dfc6ed46eafbf1bfd288971"
                            },
                            {
                                "decimalAvailable": true,
                                "name": "_value",
                                "type": "uint256",
                                "value": "1,558,000,000,000,000,000,000"
                            }
                        ],
                        "constructorArguments": "",
                        "name": "transfer",
                        "returnParams": [],
                        "signature": "transfer(address,uint256)"
                    },
                    "errorInfo": "",
                    "fromAddress": "0x489402a0c0b1bf77e2425be23e6db3a264cb508b",
                    "gasUsed": 42131,
                    "id": 0,
                    "methodDecoded": true,
                    "operation": "CALL",
                    "output": "",
                    "revert": false,
                    "revertMessage": "",
                    "selector": "0xa9059cbb",
                    "status": true,
                    "value": "0"
                },
                "nodeType": 0
            },
            "1": {
                "event": {
                    "contract": "0x1c040c4ab9acce984d0d4c135576598013950e52",
                    "decodedLog": {
                        "name": "Transfer",
                        "params": [
                            {
                                "name": "from",
                                "type": "address",
                                "value": "0x489402a0c0b1bf77e2425be23e6db3a264cb508b"
                            },
                            {
                                "name": "to",
                                "type": "address",
                                "value": "0x7b00986829a557049dfc6ed46eafbf1bfd288971"
                            },
                            {
                                "decimalAvailable": true,
                                "name": "value",
                                "type": "uint256",
                                "value": "1,558,000,000,000,000,000,000"
                            }
                        ],
                        "signature": "Transfer(address,address,uint256)"
                    },
                    "id": 1,
                    "logData": "0x0000000000000000000000000000000000000000000000547597e95cba980000",
                    "logDecoded": true,
                    "operation": "EVENT",
                    "revert": false,
                    "status": true,
                    "topics": [
                        "0xddf252ad1be2c89b69c2b068fc378daa952ba7f163c4a11628f55a4df523b3ef",
                        "0x000000000000000000000000489402a0c0b1bf77e2425be23e6db3a264cb508b",
                        "0x0000000000000000000000007b00986829a557049dfc6ed46eafbf1bfd288971"
                    ]
                },
                "nodeType": 1
            }
        },
        "gasFlame": [
            {
                "children": [
                    {
                        "children": [
                            {
                                "children": [],
                                "depth": 0,
                                "name": "Initial Gas",
                                "value": 21632
                            },
                            {
                                "children": [],
                                "depth": 0,
                                "name": "Executed Gas",
                                "value": 20499
                            }
                        ],
                        "depth": -1,
                        "name": "Actual Gas Used",
                        "value": 42131
                    },
                    {
                        "children": [],
                        "depth": -1,
                        "name": "Refunded Gas",
                        "value": 0
                    }
                ],
                "depth": -2,
                "name": "Total Gas",
                "value": 42131
            }
        ],
        "isConfirmed": true,
        "mainTrace": [
            {
                "children": [
                    {
                        "children": [
                            {
                                "children": [],
                                "depth": 1,
                                "id": 1,
                                "order": 1
                            }
                        ],
                        "depth": 0,
                        "id": 0,
                        "order": 0
                    }
                ],
                "depth": -1,
                "id": -1,
                "order": -1
            }
        ],
        "mainTraceNodeCount": 2,
        "parentIdMap": {
            "0": -1,
            "1": 0
        },
        "tidyTrace": [
            {
                "children": [
                    {
                        "children": [
                            {
                                "children": [],
                                "depth": 1,
                                "id": 1,
                                "order": 1
                            }
                        ],
                        "depth": 0,
                        "id": 0,
                        "order": 0
                    }
                ],
                "depth": -1,
                "id": -1,
                "order": -1
            }
        ],
        "tidyTraceNodeCount": 2
    },
    "state_change": {
        "stateChanges": [
            {
                "address": "0x1c040c4ab9acce984d0d4c135576598013950e52",
                "erc": "",
                "slots": [
                    {
                        "current": "0x00000000000000000000000000000000000000000000141a1ca8578ca0650000",
                        "key": "0x0ff4c27d44e6b22b2180ee58e38b411726ce346ac33907113f0780fa80c81afd",
                        "prev": "0x00000000000000000000000000000000000000000000146e924040e95afd0000"
                    },
                    {
                        "current": "0x00000000000000000000000000000000000000000000012a88fa3aa9dc2c0000",
                        "key": "0x52e5ce19f9e87724be4caa94971367d1001363406bfe9281c9ca41e4b6efadb2",
                        "prev": "0x0000000000000000000000000000000000000000000000d61362514d21940000"
                    }
                ],
                "storageVariables": [
                    {
                        "name": "balanceOf",
                        "type": "mapping(address => uint256)",
                        "value": {
                            "pairs": [
                                {
                                    "key": "0x489402a0c0b1bf77e2425be23e6db3a264cb508b",
                                    "value": {
                                        "current": "94929010000000000000000",
                                        "prev": "96487010000000000000000",
                                        "typeTag": 1
                                    }
                                },
                                {
                                    "key": "0x7b00986829a557049dfc6ed46eafbf1bfd288971",
                                    "value": {
                                        "current": "5507000000000000000000",
                                        "prev": "3949000000000000000000",
                                        "typeTag": 1
                                    }
                                }
                            ],
                            "typeTag": 4
                        }
                    }
                ]
            }
        ]
    }
}