{
    "balance_change": {
        "balanceChanges": [
            {
                "account": "0x72157f28eabb7ed555947f5cb1d20c69c271b0ae",
                "assets": [
                    {
                        "address": "0x194524355f26af663468d4996f207a918c73e013",
                        "amount": "50,716.12496",
                        "iconUrl": "",
                        "isERC1155": false,
                        "isERC721": false,
                        "sign": false,
                        "value": ""
                    }
                ]
            },
            {
                "account": "0x5ba8d27b239c54afe10302cf4ed2426e4099df4a",
                "assets": [
                    {
                        "address": "0x194524355f26af663468d4996f207a918c73e013",
                        "amount": "50,716.12496",
                        "iconUrl": "",
                        "isERC1155": false,
                        "isERC721": false,
                        "sign": true,
                        "value": ""
                    }
                ]
            }
        ]
    },
    "profile": {
        "basic_info": {
            "baseFee": "",
            "blockNumber": 8543150,
            "callData": "0xa9059cbb0000000000000000000000005ba8d27b239c54afe10302cf4ed2426e4099df4a0000000000000000000000000000000000000000000000000000049cd3a94880",
            "debugEnable": true,
            "errorInfo": "",
            "eventCount": 1,
            "feeRecipient": "0x5a0b54d5dc17e0aadc383d2db43b0a0d3e029c4c",
            "formatValue": "0",
            "gasLimit": 63759,
            "gasPrice": "9",
            "gasUsed": 36933,
            "intTxnCount": 0,
            "internalRevert": false,
            "internalRevertMessage": "",
            "isContractCreation": false,
            "isFlashloan": false,
            "maxFee": "",
            "nonce": 25,
            "overwritedBlockNumber": -1,
            "priorityFee": "",
            "receiver": "0x194524355f26af663468d4996f207a918c73e013",
            "revertMessage": "",
            "sender": "0x72157f28eabb7ed555947f5cb1d20c69c271b0ae",
            "simulationEnable": true,
            "sourceTxnHash": "0x26329896789ee598ecddf79168b4baa1331c5e2861550871c243cc25a398eb6f",
            "status": true,
            "timestamp": "2019-09-13T19:27:15Z",
            "transactionFee": "0.000332397",
            "txnHash": "0x26329896789ee598ecddf79168b4baa1331c5e2861550871c243cc25a398eb6f",
            "txnIndex": 19,
            "type": 0,
            "value": "0"
        },
        "fund_flow": [
            {
                "amount": "50,716.12496",
                "from": "0x72157f28eabb7ed555947f5cb1d20c69c271b0ae",
                "id": 1,
                "isERC1155": false,
                "isERC721": false,
                "isReverted": false,
                "order": 1,
                "to": "0x5ba8d27b239c54afe10302cf4ed2426e4099df4a",
                "token": "0x194524355f26af663468d4996f207a918c73e013"
            }
        ],
        "token_infos": [
            {
                "address": "0x194524355f26af663468d4996f207a918c73e013",
                "decimals": 8
            },
            {
                "address": "0xc02aaa39b223fe8d0a0e5c4f27ead9083c756cc2",
                "decimals": 18
            },
            {
                "address": "0xeeeeeeeeeeeeeeeeeeeeeeeeeeeeeeeeeeeeeeee",
                "decimals": 18
            }
        ]
    },
    "address_label": {
        "labels": [
            {
                "address": "0x194524355f26af663468d4996f207a918c73e013",
                "label": "Dragonvein Coin (DVC)"
            },
            {
                "address": "0x0000000000000000000000000000000000000001",
                "label": "Precompiled"
            },
            {
                "address": "0x0000000000000000000000000000000000000002",
                "label": "Precompiled"
            },
            {
                "address": "0x0000000000000000000000000000000000000003",
                "label": "Precompiled"
            },
            {
                "address": "0x0000000000000000000000000000000000000004",
                "label": "Precompiled"
            },
            {
                "address": "0xeeeeeeeeeeeeeeeeeeeeeeeeeeeeeeeeeeeeeeee",
                "label": "Ether"
            }
        ]
    },
    "trace": {
        "accountLabels": null,
        "dataMap": {
            "-1": {
                "invocation": {
                    "address": "0x72157f28eabb7ed555947f5cb1d20c69c271b0ae",
                    "callData": "",
                    "decodedMethod": null,
                    "errorInfo": "",
                    "fromAddress": "",
                    "gasUsed": 0,
                    "id": -1,
                    "methodDecoded": false,
                    "operation": "",
                    "output": "",
                    "revert": false,
                    "revertMessage": "",
                    "selector": "",
                    "status": false,
                    "value": ""
                },
                "nodeType": 0
            },
            "0": {
                "invocation": {
                    "address": "0x194524355f26af663468d4996f207a918c73e013",
                    "callData": "0x0000000000000000000000005ba8d27b239c54afe10302cf4ed2426e4099df4a0000000000000000000000000000000000000000000000000000049cd3a94880",
                    "decodedMethod": {
                        "callParams": [
                            {
                                "name": "_to",
                                "type": "address",
                                "value": "0x5ba8d27b239c54afe10302cf4ed2426e4099df4a"
                            },
                            {
                                "decimalAvailable": true,
                                "name": "_value",
                                "type": "uint256",
                                "value": "5,071,612,496,000"
                            }
                        ],
                        "constructorArguments": "",
                        "name": "transfer",
                        "returnParams": [
                            {
                                "name": "",
                                "type": "bool",
                                "value": true
                            }
                        ],
                        "signature": "transfer(address,uint256)"
                    },
                    "errorInfo": "",
                    "fromAddress": "0x72157f28eabb7ed555947f5cb1d20c69c271b0ae",
                    "gasUsed": 36933,
                    "id": 0,
                    "methodDecoded": true,
                    "operation": "CALL",
                    "output": "0x0000000000000000000000000000000000000000000000000000000000000001",
                    "revert": false,
                    "revertMessage": "",
                    "selector": "0xa9059cbb",
                    "status": true,
                    "value": "0"
                },
                "nodeType": 0
            },
            "1": {
                "event": {
                    "contract": "0x194524355f26af663468d4996f207a918c73e013",
                    "decodedLog": {
                        "name": "Transfer",
                        "params": [
                            {
                                "name": "from",
                                "type": "address",
                                "value": "0x72157f28eabb7ed555947f5cb1d20c69c271b0ae"
                            },
                            {
                                "name": "to",
                                "type": "address",
                                "value": "0x5ba8d27b239c54afe10302cf4ed2426e4099df4a"
                            },
                            {
                                "decimalAvailable": true,
                                "name": "value",
                                "type": "uint256",
                                "value": "5,071,612,496,000"
                            }
                        ],
                        "signature": "Transfer(address,address,uint256)"
                    },
                    "id": 1,
                    "logData": "0x0000000000000000000000000000000000000000000000000000049cd3a94880",
                    "logDecoded": true,
                    "operation": "EVENT",
                    "revert": false,
                    "status": true,
                    "topics": [
                        "0xddf252ad1be2c89b69c2b068fc378daa952ba7f163c4a11628f55a4df523b3ef",
                        "0x00000000000000000000000072157f28eabb7ed555947f5cb1d20c69c271b0ae",
                        "0x0000000000000000000000005ba8d27b239c54afe10302cf4ed2426e4099df4a"
                    ]
                },
                "nodeType": 1
            }
        },
        "gasFlame": [
            {
                "children": [
                    {
                        "children": [
                            {
                                "children": [],
                                "depth": 0,
                                "name": "Initial Gas",
                                "value": 23192
                            },
                            {
                                "children": [],
                                "depth": 0,
                                "name": "Executed Gas",
                                "value": 13741
                            }
                        ],
                        "depth": -1,
                        "name": "Actual Gas Used",
                        "value": 36933
                    },
                    {
                        "children": [],
                        "depth": -1,
                        "name": "Refunded Gas",
                        "value": 0
                    }
                ],
                "depth": -2,
                "name": "Total Gas",
                "value": 36933
            }
        ],
        "isConfirmed": true,
        "mainTrace": [
            {
                "children": [
                    {
                        "children": [
                            {
                                "children": [],
                                "depth": 1,
                                "id": 1,
                                "order": 1
                            }
                        ],
                        "depth": 0,
                        "id": 0,
                        "order": 0
                    }
                ],
                "depth": -1,
                "id": -1,
                "order": -1
            }
        ],
        "mainTraceNodeCount": 2,
        "parentIdMap": {
            "0": -1,
            "1": 0
        },
        "tidyTrace": [
            {
                "children": [
                    {
                        "children": [
                            {
                                "children": [],
                                "depth": 1,
                                "id": 1,
                                "order": 1
                            }
                        ],
                        "depth": 0,
                        "id": 0,
                        "order": 0
                    }
                ],
                "depth": -1,
                "id": -1,
                "order": -1
            }
        ],
        "tidyTraceNodeCount": 2
    },
    "state_change": {
        "stateChanges": [
            {
                "address": "0x194524355f26af663468d4996f207a918c73e013",
                "erc": "ERC-20",
                "slots": [
                    {
                        "current": "0x00000000000000000000000000000000000000000000000000004402acbc88cc",
                        "key": "0xe5d41bf44fabf5982c1bc8a6b0b38f4ebb6bdddfce4527ab2a05ef150dd56a5d",
                        "prev": "0x0000000000000000000000000000000000000000000000000000489f8065d14c"
                    },
                    {
                        "current": "0x0000000000000000000000000000000000000000000000000000dfe806731317",
                        "key": "0x25cdade1329c4ba579b03c984ebc7c7731cdbb51a8cf46262c22a1b4d081e57c",
                        "prev": "0x0000000000000000000000000000000000000000000000000000db4b32c9ca97"
                    }
                ],
                "storageVariables": [
                    {
                        "name": "balances",
                        "type": "mapping(address => uint256)",
                        "value": {
                            "pairs": [
                                {
                                    "key": "0x5ba8d27b239c54afe10302cf4ed2426e4099df4a",
                                    "value": {
                                        "current": "246187633611543",
                                        "prev": "241116021115543",
                                        "typeTag": 1
                                    }
                                },
                                {
                                    "key": "0x72157f28eabb7ed555947f5cb1d20c69c271b0ae",
                                    "value": {
                                        "current": "74778278660300",
                                        "prev": "79849891156300",
                                        "typeTag": 1
                                    }
                                }
                            ],
                            "typeTag": 4
                        }
                    }
                ]
            }
        ]
    }
}