{
    "balance_change": {
        "balanceChanges": [
            {
                "account": "0x6857b07b45262a8721781e80f6e3b80fff4cd68b",
                "assets": [
                    {
                        "address": "0xeeeeeeeeeeeeeeeeeeeeeeeeeeeeeeeeeeeeeeee",
                        "amount": "0.18",
                        "iconUrl": "https://assets.blocksec.com/image/1663669189317-3.png",
                        "isERC1155": false,
                        "isERC721": false,
                        "sign": false,
                        "value": "380.874599999999964"
                    },
                    {
                        "address": "0x2675616c14eb3f56db556c1ff95aaf2a19c88bcb",
                        "amount": "1",
                        "iconUrl": "",
                        "isERC1155": false,
                        "isERC721": true,
                        "sign": true,
                        "tokenID": "8083",
                        "value": ""
                    },
                    {
                        "address": "0x2675616c14eb3f56db556c1ff95aaf2a19c88bcb",
                        "amount": "1",
                        "iconUrl": "",
                        "isERC1155": false,
                        "isERC721": true,
                        "sign": true,
                        "tokenID": "8084",
                        "value": ""
                    },
                    {
                        "address": "0x2675616c14eb3f56db556c1ff95aaf2a19c88bcb",
                        "amount": "1",
                        "iconUrl": "",
                        "isERC1155": false,
                        "isERC721": true,
                        "sign": true,
                        "tokenID": "8085",
                        "value": ""
                    },
                    {
                        "address": "0x2675616c14eb3f56db556c1ff95aaf2a19c88bcb",
                        "amount": "1",
                        "iconUrl": "",
                        "isERC1155": false,
                        "isERC721": true,
                        "sign": true,
                        "tokenID": "8086",
                        "value": ""
                    }
                ]
            },
            {
                "account": "0x4cc4752155877f4333f25bb9a6f8880567ee1231",
                "assets": [
                    {
                        "address": "0xeeeeeeeeeeeeeeeeeeeeeeeeeeeeeeeeeeeeeeee",
                        "amount": "0.18",
                        "iconUrl": "https://assets.blocksec.com/image/1663669189317-3.png",
                        "isERC1155": false,
                        "isERC721": false,
                        "sign": true,
                        "value": "380.874599999999964"
                    }
                ]
            },
            {
                "account": "0x0000000000000000000000000000000000000000",
                "assets": [
                    {
                        "address": "0x2675616c14eb3f56db556c1ff95aaf2a19c88bcb",
                        "amount": "1",
                        "iconUrl": "",
                        "isERC1155": false,
                        "isERC721": true,
                        "sign": false,
                        "tokenID": "8085",
                        "value": ""
                    },
                    {
                        "address": "0x2675616c14eb3f56db556c1ff95aaf2a19c88bcb",
                        "amount": "1",
                        "iconUrl": "",
                        "isERC1155": false,
                        "isERC721": true,
                        "sign": false,
                        "tokenID": "8086",
                        "value": ""
                    },
                    {
                        "address": "0x2675616c14eb3f56db556c1ff95aaf2a19c88bcb",
                        "amount": "1",
                        "iconUrl": "",
                        "isERC1155": false,
                        "isERC721": true,
                        "sign": false,
                        "tokenID": "8083",
                        "value": ""
                    },
                    {
                        "address": "0x2675616c14eb3f56db556c1ff95aaf2a19c88bcb",
                        "amount": "1",
                        "iconUrl": "",
                        "isERC1155": false,
                        "isERC721": true,
                        "sign": false,
                        "tokenID": "8084",
                        "value": ""
                    }
                ]
            }
        ]
    },
    "profile": {
        "basic_info": {
            "baseFee": "27.913424491",
            "blockNumber": 17045073,
            "callData": "0x1b7af8fc0000000000000000000000000000000000000000000000000000000000000000d82a4387000000000000000000000000000000000000000000000000000000000000000000000000000000000000000000000000000000000000000000000000000000000000000000000000000000000000000000000000000000000000000400000000000000000000000000000000000000000000000000000000000000c000000000000000000000000000000000000000000000000000000000000001000000000000000000000000000000000000000000000000000000000000000001000000000000000000000000000000000000000000000000000000000000000400000000000000000000000000000000000000000000000000000000000000411f7e71f51b4ad420ab2673149e08079871c9fc3a758ecdfb10f45ed69a9de6dd068b5590b46c3d6f4c8a7f7a1dbb461f4ed10b942c89fac2112e33033484acc11b00000000000000000000000000000000000000000000000000000000000000",
            "debugEnable": true,
            "errorInfo": "",
            "eventCount": 4,
            "feeRecipient": "0x1f9090aae28b8a3dceadf281b0f12828e676c326",
            "formatValue": "0.18",
            "gasLimit": 169976,
            "gasPrice": "29.413424491",
            "gasUsed": 134941,
            "intTxnCount": 3,
            "internalRevert": false,
            "internalRevertMessage": "",
            "isContractCreation": false,
            "isFlashloan": false,
            "maxFee": "58.87300067",
            "nonce": 0,
            "overwritedBlockNumber": -1,
            "priorityFee": "1.5",
            "receiver": "0x4cc4752155877f4333f25bb9a6f8880567ee1231",
            "revertMessage": "",
            "sender": "0x6857b07b45262a8721781e80f6e3b80fff4cd68b",
            "simulationEnable": true,
            "sourceTxnHash": "0x264561f8e01b4499bb404744c90f064e1fc3afd6989a74a6ea7e7f18977e73fa",
            "status": true,
            "timestamp": "2023-04-14T11:18:11Z",
            "transactionFee": "0.003969076914240031",
            "txnHash": "0x264561f8e01b4499bb404744c90f064e1fc3afd6989a74a6ea7e7f18977e73fa",
            "txnIndex": 68,
            "type": 2,
            "value": "180000000000000000"
        },
        "fund_flow": [
            {
                "amount": "0.18",
                "from": "0x6857b07b45262a8721781e80f6e3b80fff4cd68b",
                "id": 1,
                "isERC1155": false,
                "isERC721": false,
                "isReverted": false,
                "order": 1,
                "to": "0x4cc4752155877f4333f25bb9a6f8880567ee1231",
                "token": "0xeeeeeeeeeeeeeeeeeeeeeeeeeeeeeeeeeeeeeeee"
            },
            {
                "amount": "1",
                "from": "0x0000000000000000000000000000000000000000",
                "id": 2,
                "isERC1155": false,
                "isERC721": true,
                "isReverted": false,
                "order": 2,
                "to": "0x6857b07b45262a8721781e80f6e3b80fff4cd68b",
                "token": "0x2675616c14eb3f56db556c1ff95aaf2a19c88bcb",
                "tokenID": "8083"
            },
            {
                "amount": "1",
                "from": "0x0000000000000000000000000000000000000000",
                "id": 3,
                "isERC1155": false,
                "isERC721": true,
                "isReverted": false,
                "order": 3,
                "to": "0x6857b07b45262a8721781e80f6e3b80fff4cd68b",
                "token": "0x2675616c14eb3f56db556c1ff95aaf2a19c88bcb",
                "tokenID": "8084"
            },
            {
                "amount": "1",
                "from": "0x0000000000000000000000000000000000000000",
                "id": 4,
                "isERC1155": false,
                "isERC721": true,
                "isReverted": false,
                "order": 4,
                "to": "0x6857b07b45262a8721781e80f6e3b80fff4cd68b",
                "token": "0x2675616c14eb3f56db556c1ff95aaf2a19c88bcb",
                "tokenID": "8085"
            },
            {
                "amount": "1",
                "from": "0x0000000000000000000000000000000000000000",
                "id": 5,
                "isERC1155": false,
                "isERC721": true,
                "isReverted": false,
                "order": 5,
                "to": "0x6857b07b45262a8721781e80f6e3b80fff4cd68b",
                "token": "0x2675616c14eb3f56db556c1ff95aaf2a19c88bcb",
                "tokenID": "8086"
            }
        ],
        "token_infos": [
            {
                "address": "0xc02aaa39b223fe8d0a0e5c4f27ead9083c756cc2",
                "decimals": 18
            },
            {
                "address": "0xeeeeeeeeeeeeeeeeeeeeeeeeeeeeeeeeeeeeeeee",
                "decimals": 18
            }
        ]
    },
    "address_label": {
        "labels": [
            {
                "address": "0x2675616c14eb3f56db556c1ff95aaf2a19c88bcb",
                "label": "Element Pass Standard (EPS)"
            },
            {
                "address": "0x4cc4752155877f4333f25bb9a6f8880567ee1231",
                "label": "ElementLaunchpad"
            },
            {
                "address": "0x24f4c63625525543d093c1e0ce5559bd89df3144",
                "label": "LaunchpadFeature"
            },
            {
                "address": "0x0000000000000000000000000000000000000001",
                "label": "Precompiled"
            },
            {
                "address": "0x0000000000000000000000000000000000000002",
                "label": "Precompiled"
            },
            {
                "address": "0x0000000000000000000000000000000000000003",
                "label": "Precompiled"
            },
            {
                "address": "0x0000000000000000000000000000000000000004",
                "label": "Precompiled"
            },
            {
                "address": "0xeeeeeeeeeeeeeeeeeeeeeeeeeeeeeeeeeeeeeeee",
                "label": "Ether"
            }
        ]
    },
    "trace": {
        "accountLabels": null,
        "dataMap": {
            "-1": {
                "invocation": {
                    "address": "0x6857b07b45262a8721781e80f6e3b80fff4cd68b",
                    "callData": "",
                    "decodedMethod": null,
                    "errorInfo": "",
                    "fromAddress": "",
                    "gasUsed": 0,
                    "id": -1,
                    "methodDecoded": false,
                    "operation": "",
                    "output": "",
                    "revert": false,
                    "revertMessage": "",
                    "selector": "",
                    "status": false,
                    "value": ""
                },
                "nodeType": 0
            },
            "0": {
                "invocation": {
                    "address": "0x4cc4752155877f4333f25bb9a6f8880567ee1231",
                    "callData": "0x0000000000000000000000000000000000000000000000000000000000000000d82a4387000000000000000000000000000000000000000000000000000000000000000000000000000000000000000000000000000000000000000000000000000000000000000000000000000000000000000000000000000000000000000400000000000000000000000000000000000000000000000000000000000000c000000000000000000000000000000000000000000000000000000000000001000000000000000000000000000000000000000000000000000000000000000001000000000000000000000000000000000000000000000000000000000000000400000000000000000000000000000000000000000000000000000000000000411f7e71f51b4ad420ab2673149e08079871c9fc3a758ecdfb10f45ed69a9de6dd068b5590b46c3d6f4c8a7f7a1dbb461f4ed10b942c89fac2112e33033484acc11b00000000000000000000000000000000000000000000000000000000000000",
                    "decodedMethod": {
                        "callParams": [
                            {
                                "name": "",
                                "type": "bytes4",
                                "value": "0x00000000"
                            },
                            {
                                "name": "launchpadId",
                                "type": "bytes4",
                                "value": "0xd82a4387"
                            },
                            {
                                "name": "slotId",
                                "type": "uint256",
                                "value": "0"
                            },
                            {
                                "name": "quantity",
                                "type": "uint256",
                                "value": "4"
                            },
                            {
                                "name": "additional",
                                "type": "uint256[]",
                                "value": [
                                    "4"
                                ]
                            },
                            {
                                "name": "data",
                                "type": "bytes",
                                "value": "0x1f7e71f51b4ad420ab2673149e08079871c9fc3a758ecdfb10f45ed69a9de6dd068b5590b46c3d6f4c8a7f7a1dbb461f4ed10b942c89fac2112e33033484acc11b"
                            }
                        ],
                        "constructorArguments": "",
                        "name": "launchpadBuy",
                        "returnParams": [],
                        "signature": "launchpadBuy(bytes4,bytes4,uint256,uint256,uint256[],bytes)"
                    },
                    "errorInfo": "",
                    "fromAddress": "0x6857b07b45262a8721781e80f6e3b80fff4cd68b",
                    "gasUsed": 134941,
                    "id": 0,
                    "methodDecoded": true,
                    "operation": "CALL",
                    "output": "",
                    "revert": false,
                    "revertMessage": "",
                    "selector": "0x1b7af8fc",
                    "status": true,
                    "value": "0.18"
                },
                "nodeType": 0
            },
            "1": {
                "invocation": {
                    "address": "0x24f4c63625525543d093c1e0ce5559bd89df3144",
                    "callData": "0x0000000000000000000000000000000000000000000000000000000000000000d82a4387000000000000000000000000000000000000000000000000000000000000000000000000000000000000000000000000000000000000000000000000000000000000000000000000000000000000000000000000000000000000000400000000000000000000000000000000000000000000000000000000000000c000000000000000000000000000000000000000000000000000000000000001000000000000000000000000000000000000000000000000000000000000000001000000000000000000000000000000000000000000000000000000000000000400000000000000000000000000000000000000000000000000000000000000411f7e71f51b4ad420ab2673149e08079871c9fc3a758ecdfb10f45ed69a9de6dd068b5590b46c3d6f4c8a7f7a1dbb461f4ed10b942c89fac2112e33033484acc11b00000000000000000000000000000000000000000000000000000000000000",
                    "decodedMethod": {
                        "callParams": [
                            {
                                "name": "",
                                "type": "bytes4",
                                "value": "0x00000000"
                            },
                            {
                                "name": "launchpadId",
                                "type": "bytes4",
                                "value": "0xd82a4387"
                            },
                            {
                                "name": "slotId",
                                "type": "uint256",
                                "value": "0"
                            },
                            {
                                "name": "quantity",
                                "type": "uint256",
                                "value": "4"
                            },
                            {
                                "name": "additional",
                                "type": "uint256[]",
                                "value": [
                                    "4"
                                ]
                            },
                            {
                                "name": "data",
                                "type": "bytes",
                                "value": "0x1f7e71f51b4ad420ab2673149e08079871c9fc3a758ecdfb10f45ed69a9de6dd068b5590b46c3d6f4c8a7f7a1dbb461f4ed10b942c89fac2112e33033484acc11b"
                            }
                        ],
                        "constructorArguments": "",
                        "name": "launchpadBuy",
                        "returnParams": [],
                        "signature": "launchpadBuy(bytes4,bytes4,uint256,uint256,uint256[],bytes)"
                    },
                    "errorInfo": "",
                    "fromAddress": "0x4cc4752155877f4333f25bb9a6f8880567ee1231",
                    "gasUsed": 109134,
                    "id": 1,
                    "methodDecoded": true,
                    "operation": "DELEGATECALL",
                    "output": "",
                    "revert": false,
                    "revertMessage": "",
                    "selector": "0x1b7af8fc",
                    "status": true,
                    "value": "0.18"
                },
                "nodeType": 0
            },
            "2": {
                "invocation": {
                    "address": "0x0000000000000000000000000000000000000001",
                    "callData": "0x27889863a02c87dfeb7284d234e17f71ea4093b5768ccf2642a205e1000000000000000000000000000000000000000000000000000000000000001b1f7e71f51b4ad420ab2673149e08079871c9fc3a758ecdfb10f45ed69a9de6dd068b5590b46c3d6f4c8a7f7a1dbb461f4ed10b942c89fac2112e33033484acc1",
                    "decodedMethod": {
                        "callParams": [
                            {
                                "name": "hash",
                                "type": "bytes32",
                                "value": "0x64a5c40327889863a02c87dfeb7284d234e17f71ea4093b5768ccf2642a205e1"
                            },
                            {
                                "name": "v",
                                "type": "uint256",
                                "value": "27"
                            },
                            {
                                "name": "r",
                                "type": "bytes32",
                                "value": "0x1f7e71f51b4ad420ab2673149e08079871c9fc3a758ecdfb10f45ed69a9de6dd"
                            },
                            {
                                "name": "s",
                                "type": "bytes32",
                                "value": "0x068b5590b46c3d6f4c8a7f7a1dbb461f4ed10b942c89fac2112e33033484acc1"
                            }
                        ],
                        "constructorArguments": "",
                        "name": "ecrecover",
                        "returnParams": [
                            {
                                "name": "",
                                "type": "address",
                                "value": "0x8d38621391d663332ad24cf895b8f59f0edfd933"
                            }
                        ],
                        "signature": "ecrecover(bytes32,uint256,bytes32,bytes32)"
                    },
                    "errorInfo": "",
                    "fromAddress": "0x4cc4752155877f4333f25bb9a6f8880567ee1231",
                    "gasUsed": 3000,
                    "id": 2,
                    "methodDecoded": true,
                    "operation": "STATICCALL",
                    "output": "0x0000000000000000000000008d38621391d663332ad24cf895b8f59f0edfd933",
                    "revert": false,
                    "revertMessage": "",
                    "selector": "0x64a5c403",
                    "status": true,
                    "value": "0"
                },
                "nodeType": 0
            },
            "3": {
                "invocation": {
                    "address": "0x2675616c14eb3f56db556c1ff95aaf2a19c88bcb",
                    "callData": "0x0000000000000000000000006857b07b45262a8721781e80f6e3b80fff4cd68b0000000000000000000000000000000000000000000000000000000000000004",
                    "decodedMethod": {
                        "callParams": [
                            {
                                "name": "to",
                                "type": "address",
                                "value": "0x6857b07b45262a8721781e80f6e3b80fff4cd68b"
                            },
                            {
                                "name": "amount",
                                "type": "uint256",
                                "value": "4"
                            }
                        ],
                        "constructorArguments": "",
                        "name": "safeMint",
                        "returnParams": [],
                        "signature": "safeMint(address,uint256)"
                    },
                    "errorInfo": "",
                    "fromAddress": "0x4cc4752155877f4333f25bb9a6f8880567ee1231",
                    "gasUsed": 60409,
                    "id": 3,
                    "methodDecoded": true,
                    "operation": "CALL",
                    "output": "",
                    "revert": false,
                    "revertMessage": "",
                    "selector": "0xa1448194",
                    "status": true,
                    "value": "0"
                },
                "nodeType": 0
            },
            "4": {
                "event": {
                    "contract": "0x2675616c14eb3f56db556c1ff95aaf2a19c88bcb",
                    "decodedLog": {
                        "name": "Transfer",
                        "params": [
                            {
                                "name": "from",
                                "type": "address",
                                "value": "0x0000000000000000000000000000000000000000"
                            },
                            {
                                "name": "to",
                                "type": "address",
                                "value": "0x6857b07b45262a8721781e80f6e3b80fff4cd68b"
                            },
                            {
                                "decimalAvailable": true,
                                "name": "tokenId",
                                "type": "uint256",
                                "value": "8,083"
                            }
                        ],
                        "signature": "Transfer(address,address,uint256)"
                    },
                    "id": 4,
                    "logData": "0x",
                    "logDecoded": true,
                    "operation": "EVENT",
                    "revert": false,
                    "status": true,
                    "topics": [
                        "0xddf252ad1be2c89b69c2b068fc378daa952ba7f163c4a11628f55a4df523b3ef",
                        "0x0000000000000000000000000000000000000000000000000000000000000000",
                        "0x0000000000000000000000006857b07b45262a8721781e80f6e3b80fff4cd68b",
                        "0x0000000000000000000000000000000000000000000000000000000000001f93"
                    ]
                },
                "nodeType": 1
            },
            "5": {
                "event": {
                    "contract": "0x2675616c14eb3f56db556c1ff95aaf2a19c88bcb",
                    "decodedLog": {
                        "name": "Transfer",
                        "params": [
                            {
                                "name": "from",
                                "type": "address",
                                "value": "0x0000000000000000000000000000000000000000"
                            },
                            {
                                "name": "to",
                                "type": "address",
                                "value": "0x6857b07b45262a8721781e80f6e3b80fff4cd68b"
                            },
                            {
                                "decimalAvailable": true,
                                "name": "tokenId",
                                "type": "uint256",
                                "value": "8,084"
                            }
                        ],
                        "signature": "Transfer(address,address,uint256)"
                    },
                    "id": 5,
                    "logData": "0x",
                    "logDecoded": true,
                    "operation": "EVENT",
                    "revert": false,
                    "status": true,
                    "topics": [
                        "0xddf252ad1be2c89b69c2b068fc378daa952ba7f163c4a11628f55a4df523b3ef",
                        "0x0000000000000000000000000000000000000000000000000000000000000000",
                        "0x0000000000000000000000006857b07b45262a8721781e80f6e3b80fff4cd68b",
                        "0x0000000000000000000000000000000000000000000000000000000000001f94"
                    ]
                },
                "nodeType": 1
            },
            "6": {
                "event": {
                    "contract": "0x2675616c14eb3f56db556c1ff95aaf2a19c88bcb",
                    "decodedLog": {
                        "name": "Transfer",
                        "params": [
                            {
                                "name": "from",
                                "type": "address",
                                "value": "0x0000000000000000000000000000000000000000"
                            },
                            {
                                "name": "to",
                                "type": "address",
                                "value": "0x6857b07b45262a8721781e80f6e3b80fff4cd68b"
                            },
                            {
                                "decimalAvailable": true,
                                "name": "tokenId",
                                "type": "uint256",
                                "value": "8,085"
                            }
                        ],
                        "signature": "Transfer(address,address,uint256)"
                    },
                    "id": 6,
                    "logData": "0x",
                    "logDecoded": true,
                    "operation": "EVENT",
                    "revert": false,
                    "status": true,
                    "topics": [
                        "0xddf252ad1be2c89b69c2b068fc378daa952ba7f163c4a11628f55a4df523b3ef",
                        "0x0000000000000000000000000000000000000000000000000000000000000000",
                        "0x0000000000000000000000006857b07b45262a8721781e80f6e3b80fff4cd68b",
                        "0x0000000000000000000000000000000000000000000000000000000000001f95"
                    ]
                },
                "nodeType": 1
            },
            "7": {
                "event": {
                    "contract": "0x2675616c14eb3f56db556c1ff95aaf2a19c88bcb",
                    "decodedLog": {
                        "name": "Transfer",
                        "params": [
                            {
                                "name": "from",
                                "type": "address",
                                "value": "0x0000000000000000000000000000000000000000"
                            },
                            {
                                "name": "to",
                                "type": "address",
                                "value": "0x6857b07b45262a8721781e80f6e3b80fff4cd68b"
                            },
                            {
                                "decimalAvailable": true,
                                "name": "tokenId",
                                "type": "uint256",
                                "value": "8,086"
                            }
                        ],
                        "signature": "Transfer(address,address,uint256)"
                    },
                    "id": 7,
                    "logData": "0x",
                    "logDecoded": true,
                    "operation": "EVENT",
                    "revert": false,
                    "status": true,
                    "topics": [
                        "0xddf252ad1be2c89b69c2b068fc378daa952ba7f163c4a11628f55a4df523b3ef",
                        "0x0000000000000000000000000000000000000000000000000000000000000000",
                        "0x0000000000000000000000006857b07b45262a8721781e80f6e3b80fff4cd68b",
                        "0x0000000000000000000000000000000000000000000000000000000000001f96"
                    ]
                },
                "nodeType": 1
            }
        },
        "gasFlame": [
            {
                "children": [
                    {
                        "children": [
                            {
                                "children": [],
                                "depth": 0,
                                "name": "Initial Gas",
                                "value": 23500
                            },
                            {
                                "children": [
                                    {
                                        "children": [
                                            {
                                                "children": [],
                                                "depth": 2,
                                                "name": "ecrecover",
                                                "value": 3000
                                            },
                                            {
                                                "children": [],
                                                "depth": 2,
                                                "name": "safeMint",
                                                "value": 60409
                                            }
                                        ],
                                        "depth": 1,
                                        "name": "launchpadBuy",
                                        "value": 109134
                                    }
                                ],
                                "depth": 0,
                                "name": "Executed Gas",
                                "value": 114241
                            }
                        ],
                        "depth": -1,
                        "name": "Actual Gas Used",
                        "value": 134941
                    },
                    {
                        "children": [],
                        "depth": -1,
                        "name": "Refunded Gas",
                        "value": 2800
                    }
                ],
                "depth": -2,
                "name": "Total Gas",
                "value": 137741
            }
        ],
        "isConfirmed": true,
        "mainTrace": [
            {
                "children": [
                    {
                        "children": [
                            {
                                "children": [
                                    {
                                        "children": [],
                                        "depth": 2,
                                        "id": 2,
                                        "order": 2
                                    },
                                    {
                                        "children": [
                                            {
                                                "children": [],
                                                "depth": 3,
                                                "id": 4,
                                                "order": 4
                                            },
                                            {
                                                "children": [],
                                                "depth": 3,
                                                "id": 5,
                                                "order": 5
                                            },
                                            {
                                                "children": [],
                                                "depth": 3,
                                                "id": 6,
                                                "order": 6
                                            },
                                            {
                                                "children": [],
                                                "depth": 3,
                                                "id": 7,
                                                "order": 7
                                            }
                                        ],
                                        "depth": 2,
                                        "id": 3,
                                        "order": 3
                                    }
                                ],
                                "depth": 1,
                                "id": 1,
                                "order": 1
                            }
                        ],
                        "depth": 0,
                        "id": 0,
                        "order": 0
                    }
                ],
                "depth": -1,
                "id": -1,
                "order": -1
            }
        ],
        "mainTraceNodeCount": 8,
        "parentIdMap": {
            "0": -1,
            "1": 0,
            "2": 1,
            "3": 1,
            "4": 3,
            "5": 3,
            "6": 3,
            "7": 3
        },
        "tidyTrace": [
            {
                "children": [
                    {
                        "children": [
                            {
                                "children": [
                                    {
                                        "children": [
                                            {
                                                "children": [],
                                                "depth": 3,
                                                "id": 4,
                                                "order": 4
                                            },
                                            {
                                                "children": [],
                                                "depth": 3,
                                                "id": 5,
                                                "order": 5
                                            },
                                            {
                                                "children": [],
                                                "depth": 3,
                                                "id": 6,
                                                "order": 6
                                            },
                                            {
                                                "children": [],
                                                "depth": 3,
                                                "id": 7,
                                                "order": 7
                                            }
                                        ],
                                        "depth": 2,
                                        "id": 3,
                                        "order": 3
                                    }
                                ],
                                "depth": 1,
                                "id": 1,
                                "order": 1
                            }
                        ],
                        "depth": 0,
                        "id": 0,
                        "order": 0
                    }
                ],
                "depth": -1,
                "id": -1,
                "order": -1
            }
        ],
        "tidyTraceNodeCount": 7
    },
    "state_change": {
        "stateChanges": [
            {
                "address": "0x2675616c14eb3f56db556c1ff95aaf2a19c88bcb",
                "erc": "ERC-721",
                "slots": [
                    {
                        "current": "0x0000000000000000000000000000000000000000000000000000000000001f97",
                        "key": "0x0000000000000000000000000000000000000000000000000000000000000000",
                        "prev": "0x0000000000000000000000000000000000000000000000000000000000001f93"
                    },
                    {
                        "current": "0x0000000000000000000000000000000000000000000000040000000000000004",
                        "key": "0x08f80307bc2e285b1f7c5726bcd30e1dcff8696ebae66fead2b6600a3fff1259",
                        "prev": "0x0000000000000000000000000000000000000000000000000000000000000000"
                    },
                    {
                        "current": "0x0000000000000000643936736857b07b45262a8721781e80f6e3b80fff4cd68b",
                        "key": "0x4f8e1985bab314c0558844a6406650620270be9a5e59b3a47031ef5471f0e6f7",
                        "prev": "0x0000000000000000000000000000000000000000000000000000000000000000"
                    }
                ],
                "storageVariables": [
                    {
                        "name": "_currentIndex",
                        "type": "uint256",
                        "value": {
                            "current": "8087",
                            "prev": "8083",
                            "typeTag": 1
                        }
                    },
                    {
                        "name": "_addressData",
                        "type": "mapping(address => struct IERC721A.AddressData)",
                        "value": {
                            "pairs": [
                                {
                                    "key": "0x6857b07b45262a8721781e80f6e3b80fff4cd68b",
                                    "value": {
                                        "fields": [
                                            {
                                                "name": "balance",
                                                "type": "uint64",
                                                "value": {
                                                    "current": "4",
                                                    "prev": "0",
                                                    "typeTag": 1
                                                }
                                            },
                                            {
                                                "name": "numberMinted",
                                                "type": "uint64",
                                                "value": {
                                                    "current": "4",
                                                    "prev": "0",
                                                    "typeTag": 1
                                                }
                                            },
                                            {
                                                "name": "numberBurned",
                                                "type": "uint64",
                                                "value": {
                                                    "current": "0",
                                                    "prev": "0",
                                                    "typeTag": 1
                                                }
                                            },
                                            {
                                                "name": "aux",
                                                "type": "uint64",
                                                "value": {
                                                    "current": "0",
                                                    "prev": "0",
                                                    "typeTag": 1
                                                }
                                            }
                                        ],
                                        "typeTag": 3
                                    }
                                }
                            ],
                            "typeTag": 4
                        }
                    },
                    {
                        "name": "_ownerships",
                        "type": "mapping(uint256 => struct IERC721A.TokenOwnership)",
                        "value": {
                            "pairs": [
                                {
                                    "key": "8083",
                                    "value": {
                                        "fields": [
                                            {
                                                "name": "addr",
                                                "type": "address",
                                                "value": {
                                                    "current": "0x6857b07b45262a8721781e80f6e3b80fff4cd68b",
                                                    "prev": "0x0000000000000000000000000000000000000000",
                                                    "typeTag": 1
                                                }
                                            },
                                            {
                                                "name": "startTimestamp",
                                                "type": "uint64",
                                                "value": {
                                                    "current": "1681471091",
                                                    "prev": "0",
                                                    "typeTag": 1
                                                }
                                            },
                                            {
                                                "name": "burned",
                                                "type": "bool",
                                                "value": {
                                                    "current": "false",
                                                    "prev": "false",
                                                    "typeTag": 1
                                                }
                                            }
                                        ],
                                        "typeTag": 3
                                    }
                                }
                            ],
                            "typeTag": 4
                        }
                    }
                ]
            },
            {
                "address": "0x4cc4752155877f4333f25bb9a6f8880567ee1231",
                "erc": "",
                "slots": [
                    {
                        "current": "0x0000000000000000000000000000000000000000000000000000000000000004",
                        "key": "0x67663e26c8442b80a1ab06bccb03b604a5eb79a8c5844f264304c995ebd039a0",
                        "prev": "0x0000000000000000000000000000000000000000000000000000000000000000"
                    }
                ],
                "storageVariables": []
            }
        ]
    }
}