{
    "balance_change": {
        "balanceChanges": [
            {
                "account": "0x49f61b92fcf973a5f484a9246719167ce9784712",
                "assets": [
                    {
                        "address": "0xe4f6d46c244bb7cf3e218cdfb5c35cf9a4d9c920",
                        "amount": "20,368.18356499851116854",
                        "iconUrl": "",
                        "isERC1155": false,
                        "isERC721": false,
                        "sign": false,
                        "value": "554.0593778"
                    }
                ]
            },
            {
                "account": "0x4b41d2bf13ccae869458bfb11b93c148cc2bbe86",
                "assets": [
                    {
                        "address": "0xe4f6d46c244bb7cf3e218cdfb5c35cf9a4d9c920",
                        "amount": "20,368.18356499851116854",
                        "iconUrl": "",
                        "isERC1155": false,
                        "isERC721": false,
                        "sign": true,
                        "value": "554.0593778"
                    }
                ]
            }
        ]
    },
    "profile": {
        "basic_info": {
            "baseFee": "49.816590365",
            "blockNumber": 13867958,
            "callData": "0xa9059cbb0000000000000000000000004b41d2bf13ccae869458bfb11b93c148cc2bbe8600000000000000000000000000000000000000000000045029545d1ac5b40c1c",
            "debugEnable": true,
            "errorInfo": "",
            "eventCount": 1,
            "feeRecipient": "0xea674fdde714fd979de3edf0f56aa9716b898ec8",
            "formatValue": "0",
            "gasLimit": 77550,
            "gasPrice": "51.316590365",
            "gasUsed": 46900,
            "intTxnCount": 0,
            "internalRevert": false,
            "internalRevertMessage": "",
            "isContractCreation": false,
            "isFlashloan": false,
            "maxFee": "61.057331577",
            "nonce": 12,
            "overwritedBlockNumber": -1,
            "priorityFee": "1.5",
            "receiver": "0xe4f6d46c244bb7cf3e218cdfb5c35cf9a4d9c920",
            "revertMessage": "",
            "sender": "0x49f61b92fcf973a5f484a9246719167ce9784712",
            "simulationEnable": true,
            "sourceTxnHash": "0x263760ec0792be9fd92bba69aa9ef1279668d081e8029377c3f07ee18df56dbd",
            "status": true,
            "timestamp": "2021-12-24T12:46:22Z",
            "transactionFee": "0.0024067480881185",
            "txnHash": "0x263760ec0792be9fd92bba69aa9ef1279668d081e8029377c3f07ee18df56dbd",
            "txnIndex": 161,
            "type": 2,
            "value": "0"
        },
        "fund_flow": [
            {
                "amount": "20,368.18356499851116854",
                "from": "0x49f61b92fcf973a5f484a9246719167ce9784712",
                "id": 1,
                "isERC1155": false,
                "isERC721": false,
                "isReverted": false,
                "order": 1,
                "to": "0x4b41d2bf13ccae869458bfb11b93c148cc2bbe86",
                "token": "0xe4f6d46c244bb7cf3e218cdfb5c35cf9a4d9c920"
            }
        ],
        "token_infos": [
            {
                "address": "0xc02aaa39b223fe8d0a0e5c4f27ead9083c756cc2",
                "decimals": 18
            },
            {
                "address": "0xe4f6d46c244bb7cf3e218cdfb5c35cf9a4d9c920",
                "decimals": 18
            },
            {
                "address": "0xeeeeeeeeeeeeeeeeeeeeeeeeeeeeeeeeeeeeeeee",
                "decimals": 18
            }
        ]
    },
    "address_label": {
        "labels": [
            {
                "address": "0xeeeeeeeeeeeeeeeeeeeeeeeeeeeeeeeeeeeeeeee",
                "label": "Ether"
            },
            {
                "address": "0xe4f6d46c244bb7cf3e218cdfb5c35cf9a4d9c920",
                "label": "Donkey: DONK Token"
            },
            {
                "address": "0x0000000000000000000000000000000000000001",
                "label": "Precompiled"
            },
            {
                "address": "0x0000000000000000000000000000000000000002",
                "label": "Precompiled"
            },
            {
                "address": "0x0000000000000000000000000000000000000003",
                "label": "Precompiled"
            },
            {
                "address": "0x0000000000000000000000000000000000000004",
                "label": "Precompiled"
            }
        ]
    },
    "trace": {
        "accountLabels": null,
        "dataMap": {
            "-1": {
                "invocation": {
                    "address": "0x49f61b92fcf973a5f484a9246719167ce9784712",
                    "callData": "",
                    "decodedMethod": null,
                    "errorInfo": "",
                    "fromAddress": "",
                    "gasUsed": 0,
                    "id": -1,
                    "methodDecoded": false,
                    "operation": "",
                    "output": "",
                    "revert": false,
                    "revertMessage": "",
                    "selector": "",
                    "status": false,
                    "value": ""
                },
                "nodeType": 0
            },
            "0": {
                "invocation": {
                    "address": "0xe4f6d46c244bb7cf3e218cdfb5c35cf9a4d9c920",
                    "callData": "0x0000000000000000000000004b41d2bf13ccae869458bfb11b93c148cc2bbe8600000000000000000000000000000000000000000000045029545d1ac5b40c1c",
                    "decodedMethod": {
                        "callParams": [
                            {
                                "name": "to",
                                "type": "address",
                                "value": "0x4b41d2bf13ccae869458bfb11b93c148cc2bbe86"
                            },
                            {
                                "decimalAvailable": true,
                                "name": "tokens",
                                "type": "uint256",
                                "value": "20,368,183,564,998,511,168,540"
                            }
                        ],
                        "constructorArguments": "",
                        "name": "transfer",
                        "returnParams": [
                            {
                                "name": "success",
                                "type": "bool",
                                "value": true
                            }
                        ],
                        "signature": "transfer(address,uint256)"
                    },
                    "errorInfo": "",
                    "fromAddress": "0x49f61b92fcf973a5f484a9246719167ce9784712",
                    "gasUsed": 46900,
                    "id": 0,
                    "methodDecoded": true,
                    "operation": "CALL",
                    "output": "0x0000000000000000000000000000000000000000000000000000000000000001",
                    "revert": false,
                    "revertMessage": "",
                    "selector": "0xa9059cbb",
                    "status": true,
                    "value": "0"
                },
                "nodeType": 0
            },
            "1": {
                "event": {
                    "contract": "0xe4f6d46c244bb7cf3e218cdfb5c35cf9a4d9c920",
                    "decodedLog": {
                        "name": "Transfer",
                        "params": [
                            {
                                "name": "from",
                                "type": "address",
                                "value": "0x49f61b92fcf973a5f484a9246719167ce9784712"
                            },
                            {
                                "name": "to",
                                "type": "address",
                                "value": "0x4b41d2bf13ccae869458bfb11b93c148cc2bbe86"
                            },
                            {
                                "decimalAvailable": true,
                                "name": "tokens",
                                "type": "uint256",
                                "value": "20,368,183,564,998,511,168,540"
                            }
                        ],
                        "signature": "Transfer(address,address,uint256)"
                    },
                    "id": 1,
                    "logData": "0x00000000000000000000000000000000000000000000045029545d1ac5b40c1c",
                    "logDecoded": true,
                    "operation": "EVENT",
                    "revert": false,
                    "status": true,
                    "topics": [
                        "0xddf252ad1be2c89b69c2b068fc378daa952ba7f163c4a11628f55a4df523b3ef",
                        "0x00000000000000000000000049f61b92fcf973a5f484a9246719167ce9784712",
                        "0x0000000000000000000000004b41d2bf13ccae869458bfb11b93c148cc2bbe86"
                    ]
                },
                "nodeType": 1
            }
        },
        "gasFlame": [
            {
                "children": [
                    {
                        "children": [
                            {
                                "children": [],
                                "depth": 0,
                                "name": "Initial Gas",
                                "value": 21680
                            },
                            {
                                "children": [],
                                "depth": 0,
                                "name": "Executed Gas",
                                "value": 30020
                            }
                        ],
                        "depth": -1,
                        "name": "Actual Gas Used",
                        "value": 46900
                    },
                    {
                        "children": [],
                        "depth": -1,
                        "name": "Refunded Gas",
                        "value": 4800
                    }
                ],
                "depth": -2,
                "name": "Total Gas",
                "value": 51700
            }
        ],
        "isConfirmed": true,
        "mainTrace": [
            {
                "children": [
                    {
                        "children": [
                            {
                                "children": [],
                                "depth": 1,
                                "id": 1,
                                "order": 1
                            }
                        ],
                        "depth": 0,
                        "id": 0,
                        "order": 0
                    }
                ],
                "depth": -1,
                "id": -1,
                "order": -1
            }
        ],
        "mainTraceNodeCount": 2,
        "parentIdMap": {
            "0": -1,
            "1": 0
        },
        "tidyTrace": [
            {
                "children": [
                    {
                        "children": [
                            {
                                "children": [],
                                "depth": 1,
                                "id": 1,
                                "order": 1
                            }
                        ],
                        "depth": 0,
                        "id": 0,
                        "order": 0
                    }
                ],
                "depth": -1,
                "id": -1,
                "order": -1
            }
        ],
        "tidyTraceNodeCount": 2
    },
    "state_change": {
        "stateChanges": [
            {
                "address": "0xe4f6d46c244bb7cf3e218cdfb5c35cf9a4d9c920",
                "erc": "ERC-20",
                "slots": [
                    {
                        "current": "0x00000000000000000000000000000000000000000000045029545d1ac5b40c1c",
                        "key": "0xecdd3cb3979d4fb5025e6ac526795c759ad803b075f421b95abfe84ce87196cd",
                        "prev": "0x0000000000000000000000000000000000000000000000000000000000000000"
                    },
                    {
                        "current": "0x0000000000000000000000000000000000000000000000000000000000000000",
                        "key": "0x6e01cc7052d4921b3899c776f794933b480b16460a4bb4eb338e1448c79baf86",
                        "prev": "0x00000000000000000000000000000000000000000000045029545d1ac5b40c1c"
                    }
                ],
                "storageVariables": [
                    {
                        "name": "balances",
                        "type": "mapping(address => uint256)",
                        "value": {
                            "pairs": [
                                {
                                    "key": "0x49f61b92fcf973a5f484a9246719167ce9784712",
                                    "value": {
                                        "current": "0",
                                        "prev": "20368183564998511168540",
                                        "typeTag": 1
                                    }
                                },
                                {
                                    "key": "0x4b41d2bf13ccae869458bfb11b93c148cc2bbe86",
                                    "value": {
                                        "current": "20368183564998511168540",
                                        "prev": "0",
                                        "typeTag": 1
                                    }
                                }
                            ],
                            "typeTag": 4
                        }
                    }
                ]
            }
        ]
    }
}