{
    "balance_change": {
        "balanceChanges": [
            {
                "account": "0x786df032e6c027dc04e8ba02356bf856e31a62c7",
                "assets": [
                    {
                        "address": "0x559ebc30b0e58a45cc9ff573f77ef1e5eb1b3e18",
                        "amount": "271.217572639503648297",
                        "iconUrl": "",
                        "isERC1155": false,
                        "isERC721": false,
                        "sign": false,
                        "value": "279.9580751"
                    },
                    {
                        "address": "0xa0b86991c6218b36c1d19d4a2e9eb0ce3606eb48",
                        "amount": "288.130011",
                        "iconUrl": "https://assets.blocksec.com/icon/0347a86cc07dbd03fdc5db01a4e5ac7e1217f90e0b6e4bb0f75cbcca09160989.png",
                        "isERC1155": false,
                        "isERC721": false,
                        "sign": true,
                        "value": "287.9283199922999902"
                    }
                ]
            },
            {
                "account": "0x0b9a7ea2fca868c93640dd77cf44df335095f501",
                "assets": [
                    {
                        "address": "0x559ebc30b0e58a45cc9ff573f77ef1e5eb1b3e18",
                        "amount": "271.217572639503648297",
                        "iconUrl": "",
                        "isERC1155": false,
                        "isERC721": false,
                        "sign": true,
                        "value": "279.9580751"
                    },
                    {
                        "address": "0xa0b86991c6218b36c1d19d4a2e9eb0ce3606eb48",
                        "amount": "288.130011",
                        "iconUrl": "https://assets.blocksec.com/icon/0347a86cc07dbd03fdc5db01a4e5ac7e1217f90e0b6e4bb0f75cbcca09160989.png",
                        "isERC1155": false,
                        "isERC721": false,
                        "sign": false,
                        "value": "287.9283199922999902"
                    }
                ]
            }
        ]
    },
    "profile": {
        "basic_info": {
            "baseFee": "29.627771578",
            "blockNumber": 16721649,
            "callData": "0x2b83cccd000000000000000000000000786df032e6c027dc04e8ba02356bf856e31a62c700000000000000000000000000000000000000000000000eb3e66157e55186280000000000000000000000000000000000000000000000000000000000000000",
            "debugEnable": true,
            "errorInfo": "",
            "eventCount": 4,
            "feeRecipient": "0x1f9090aae28b8a3dceadf281b0f12828e676c326",
            "formatValue": "0",
            "gasLimit": 278370,
            "gasPrice": "31.127771578",
            "gasUsed": 129447,
            "intTxnCount": 6,
            "internalRevert": false,
            "internalRevertMessage": "",
            "isContractCreation": false,
            "isFlashloan": false,
            "maxFee": "43.862033092",
            "nonce": 71,
            "overwritedBlockNumber": -1,
            "priorityFee": "1.5",
            "receiver": "0x0b9a7ea2fca868c93640dd77cf44df335095f501",
            "revertMessage": "",
            "sender": "0x786df032e6c027dc04e8ba02356bf856e31a62c7",
            "simulationEnable": true,
            "sourceTxnHash": "0x264d2e801b9900549b1bc2dcf5e56d60bbeb8b8abbda2f03d844b665fa69a7ef",
            "status": true,
            "timestamp": "2023-02-27T19:35:35Z",
            "transactionFee": "0.004029396647457366",
            "txnHash": "0x264d2e801b9900549b1bc2dcf5e56d60bbeb8b8abbda2f03d844b665fa69a7ef",
            "txnIndex": 96,
            "type": 2,
            "value": "0"
        },
        "fund_flow": [
            {
                "amount": "271.217572639503648297",
                "from": "0x786df032e6c027dc04e8ba02356bf856e31a62c7",
                "id": 1,
                "isERC1155": false,
                "isERC721": false,
                "isReverted": false,
                "order": 1,
                "to": "0x0b9a7ea2fca868c93640dd77cf44df335095f501",
                "token": "0x559ebc30b0e58a45cc9ff573f77ef1e5eb1b3e18"
            },
            {
                "amount": "288.130011",
                "from": "0x0b9a7ea2fca868c93640dd77cf44df335095f501",
                "id": 2,
                "isERC1155": false,
                "isERC721": false,
                "isReverted": false,
                "order": 2,
                "to": "0x786df032e6c027dc04e8ba02356bf856e31a62c7",
                "token": "0xa0b86991c6218b36c1d19d4a2e9eb0ce3606eb48"
            }
        ],
        "token_infos": [
            {
                "address": "0xa0b86991c6218b36c1d19d4a2e9eb0ce3606eb48",
                "decimals": 6
            },
            {
                "address": "0xc02aaa39b223fe8d0a0e5c4f27ead9083c756cc2",
                "decimals": 18
            },
            {
                "address": "0xeeeeeeeeeeeeeeeeeeeeeeeeeeeeeeeeeeeeeeee",
                "decimals": 18
            },
            {
                "address": "0x559ebc30b0e58a45cc9ff573f77ef1e5eb1b3e18",
                "decimals": 18
            }
        ]
    },
    "address_label": {
        "labels": [
            {
                "address": "0xa2327a938febf5fec13bacfb16ae10ecbc4cbdcf",
                "label": "FiatTokenV2_1"
            },
            {
                "address": "0xb8ac4931a618b06498966cba3a560b867d8f567f",
                "label": "VoltSystemOracle"
            },
            {
                "address": "0x0000000000000000000000000000000000000001",
                "label": "Precompiled"
            },
            {
                "address": "0x0000000000000000000000000000000000000002",
                "label": "Precompiled"
            },
            {
                "address": "0x0000000000000000000000000000000000000004",
                "label": "Precompiled"
            },
            {
                "address": "0xeeeeeeeeeeeeeeeeeeeeeeeeeeeeeeeeeeeeeeee",
                "label": "Ether"
            },
            {
                "address": "0x559ebc30b0e58a45cc9ff573f77ef1e5eb1b3e18",
                "label": "Volt Protocol: VOLT Token"
            },
            {
                "address": "0xe733985a92bfd5bc676095561bace90e04606e4a",
                "label": "OraclePassThrough"
            },
            {
                "address": "0x0000000000000000000000000000000000000003",
                "label": "Precompiled"
            },
            {
                "address": "0x0b9a7ea2fca868c93640dd77cf44df335095f501",
                "label": "PriceBoundPSM"
            },
            {
                "address": "0xa0b86991c6218b36c1d19d4a2e9eb0ce3606eb48",
                "label": "Circle: USDC Token"
            }
        ]
    },
    "trace": {
        "accountLabels": null,
        "dataMap": {
            "-1": {
                "invocation": {
                    "address": "0x786df032e6c027dc04e8ba02356bf856e31a62c7",
                    "callData": "",
                    "decodedMethod": null,
                    "errorInfo": "",
                    "fromAddress": "",
                    "gasUsed": 0,
                    "id": -1,
                    "methodDecoded": false,
                    "operation": "",
                    "output": "",
                    "revert": false,
                    "revertMessage": "",
                    "selector": "",
                    "status": false,
                    "value": ""
                },
                "nodeType": 0
            },
            "0": {
                "invocation": {
                    "address": "0x0b9a7ea2fca868c93640dd77cf44df335095f501",
                    "callData": "0x000000000000000000000000786df032e6c027dc04e8ba02356bf856e31a62c700000000000000000000000000000000000000000000000eb3e66157e55186280000000000000000000000000000000000000000000000000000000000000000",
                    "decodedMethod": {
                        "callParams": [
                            {
                                "name": "to",
                                "type": "address",
                                "value": "0x786df032e6c027dc04e8ba02356bf856e31a62c7"
                            },
                            {
                                "name": "amountFeiIn",
                                "type": "uint256",
                                "value": "271,217,572,639,503,648,296"
                            },
                            {
                                "name": "minAmountOut",
                                "type": "uint256",
                                "value": "0"
                            }
                        ],
                        "constructorArguments": "",
                        "name": "redeem",
                        "returnParams": [
                            {
                                "name": "amountOut",
                                "type": "uint256",
                                "value": "288,130,011"
                            }
                        ],
                        "signature": "redeem(address,uint256,uint256)"
                    },
                    "errorInfo": "",
                    "fromAddress": "0x786df032e6c027dc04e8ba02356bf856e31a62c7",
                    "gasUsed": 129447,
                    "id": 0,
                    "methodDecoded": true,
                    "operation": "CALL",
                    "output": "0x00000000000000000000000000000000000000000000000000000000112c83db",
                    "revert": false,
                    "revertMessage": "",
                    "selector": "0x2b83cccd",
                    "status": true,
                    "value": "0"
                },
                "nodeType": 0
            },
            "1": {
                "invocation": {
                    "address": "0xe733985a92bfd5bc676095561bace90e04606e4a",
                    "callData": "0x",
                    "decodedMethod": {
                        "callParams": [],
                        "constructorArguments": "",
                        "name": "update",
                        "returnParams": [],
                        "signature": "update()"
                    },
                    "errorInfo": "",
                    "fromAddress": "0x0b9a7ea2fca868c93640dd77cf44df335095f501",
                    "gasUsed": 164,
                    "id": 1,
                    "methodDecoded": true,
                    "operation": "CALL",
                    "output": "",
                    "revert": false,
                    "revertMessage": "",
                    "selector": "0xa2e62045",
                    "status": true,
                    "value": "0"
                },
                "nodeType": 0
            },
            "10": {
                "event": {
                    "contract": "0x0b9a7ea2fca868c93640dd77cf44df335095f501",
                    "decodedLog": {
                        "name": "Redeem",
                        "params": [
                            {
                                "name": "to",
                                "type": "address",
                                "value": "0x786df032e6c027dc04e8ba02356bf856e31a62c7"
                            },
                            {
                                "name": "amountFeiIn",
                                "type": "uint256",
                                "value": "271,217,572,639,503,648,296"
                            },
                            {
                                "name": "amountAssetOut",
                                "type": "uint256",
                                "value": "288,130,011"
                            }
                        ],
                        "signature": "Redeem(address,uint256,uint256)"
                    },
                    "id": 10,
                    "logData": "0x000000000000000000000000786df032e6c027dc04e8ba02356bf856e31a62c700000000000000000000000000000000000000000000000eb3e66157e551862800000000000000000000000000000000000000000000000000000000112c83db",
                    "logDecoded": true,
                    "operation": "EVENT",
                    "revert": false,
                    "status": true,
                    "topics": [
                        "0xe5b754fb1abb7f01b499791d0b820ae3b6af3424ac1c59768edb53f4ec31a929"
                    ]
                },
                "nodeType": 1
            },
            "2": {
                "invocation": {
                    "address": "0xe733985a92bfd5bc676095561bace90e04606e4a",
                    "callData": "0x",
                    "decodedMethod": {
                        "callParams": [],
                        "constructorArguments": "",
                        "name": "read",
                        "returnParams": [
                            {
                                "name": "price",
                                "type": "(uint256)",
                                "value": [
                                    {
                                        "name": "value",
                                        "type": "uint256",
                                        "value": "1,062,357,459,096,536,295"
                                    }
                                ]
                            },
                            {
                                "name": "valid",
                                "type": "bool",
                                "value": true
                            }
                        ],
                        "signature": "read()"
                    },
                    "errorInfo": "",
                    "fromAddress": "0x0b9a7ea2fca868c93640dd77cf44df335095f501",
                    "gasUsed": 10783,
                    "id": 2,
                    "methodDecoded": true,
                    "operation": "STATICCALL",
                    "output": "0x0000000000000000000000000000000000000000000000000ebe407afdef84e70000000000000000000000000000000000000000000000000000000000000001",
                    "revert": false,
                    "revertMessage": "",
                    "selector": "0x57de26a4",
                    "status": true,
                    "value": "0"
                },
                "nodeType": 0
            },
            "3": {
                "invocation": {
                    "address": "0xb8ac4931a618b06498966cba3a560b867d8f567f",
                    "callData": "0x",
                    "decodedMethod": {
                        "callParams": [],
                        "constructorArguments": "",
                        "name": "getCurrentOraclePrice",
                        "returnParams": [
                            {
                                "name": "",
                                "type": "uint256",
                                "value": "1,062,357,459,096,536,295"
                            }
                        ],
                        "signature": "getCurrentOraclePrice()"
                    },
                    "errorInfo": "",
                    "fromAddress": "0xe733985a92bfd5bc676095561bace90e04606e4a",
                    "gasUsed": 4983,
                    "id": 3,
                    "methodDecoded": true,
                    "operation": "STATICCALL",
                    "output": "0x0000000000000000000000000000000000000000000000000ebe407afdef84e7",
                    "revert": false,
                    "revertMessage": "",
                    "selector": "0xa1b58a77",
                    "status": true,
                    "value": "0"
                },
                "nodeType": 0
            },
            "4": {
                "invocation": {
                    "address": "0x559ebc30b0e58a45cc9ff573f77ef1e5eb1b3e18",
                    "callData": "0x000000000000000000000000786df032e6c027dc04e8ba02356bf856e31a62c70000000000000000000000000b9a7ea2fca868c93640dd77cf44df335095f50100000000000000000000000000000000000000000000000eb3e66157e5518628",
                    "decodedMethod": {
                        "callParams": [
                            {
                                "name": "sender",
                                "type": "address",
                                "value": "0x786df032e6c027dc04e8ba02356bf856e31a62c7"
                            },
                            {
                                "name": "recipient",
                                "type": "address",
                                "value": "0x0b9a7ea2fca868c93640dd77cf44df335095f501"
                            },
                            {
                                "decimalAvailable": true,
                                "name": "amount",
                                "type": "uint256",
                                "value": "271,217,572,639,503,648,296"
                            }
                        ],
                        "constructorArguments": "",
                        "name": "transferFrom",
                        "returnParams": [
                            {
                                "name": "",
                                "type": "bool",
                                "value": true
                            }
                        ],
                        "signature": "transferFrom(address,address,uint256)"
                    },
                    "errorInfo": "",
                    "fromAddress": "0x0b9a7ea2fca868c93640dd77cf44df335095f501",
                    "gasUsed": 20246,
                    "id": 4,
                    "methodDecoded": true,
                    "operation": "CALL",
                    "output": "0x0000000000000000000000000000000000000000000000000000000000000001",
                    "revert": false,
                    "revertMessage": "",
                    "selector": "0x23b872dd",
                    "status": true,
                    "value": "0"
                },
                "nodeType": 0
            },
            "5": {
                "event": {
                    "contract": "0x559ebc30b0e58a45cc9ff573f77ef1e5eb1b3e18",
                    "decodedLog": {
                        "name": "Transfer",
                        "params": [
                            {
                                "name": "from",
                                "type": "address",
                                "value": "0x786df032e6c027dc04e8ba02356bf856e31a62c7"
                            },
                            {
                                "name": "to",
                                "type": "address",
                                "value": "0x0b9a7ea2fca868c93640dd77cf44df335095f501"
                            },
                            {
                                "decimalAvailable": true,
                                "name": "value",
                                "type": "uint256",
                                "value": "271,217,572,639,503,648,296"
                            }
                        ],
                        "signature": "Transfer(address,address,uint256)"
                    },
                    "id": 5,
                    "logData": "0x00000000000000000000000000000000000000000000000eb3e66157e5518628",
                    "logDecoded": true,
                    "operation": "EVENT",
                    "revert": false,
                    "status": true,
                    "topics": [
                        "0xddf252ad1be2c89b69c2b068fc378daa952ba7f163c4a11628f55a4df523b3ef",
                        "0x000000000000000000000000786df032e6c027dc04e8ba02356bf856e31a62c7",
                        "0x0000000000000000000000000b9a7ea2fca868c93640dd77cf44df335095f501"
                    ]
                },
                "nodeType": 1
            },
            "6": {
                "event": {
                    "contract": "0x559ebc30b0e58a45cc9ff573f77ef1e5eb1b3e18",
                    "decodedLog": {
                        "name": "Approval",
                        "params": [
                            {
                                "name": "owner",
                                "type": "address",
                                "value": "0x786df032e6c027dc04e8ba02356bf856e31a62c7"
                            },
                            {
                                "name": "spender",
                                "type": "address",
                                "value": "0x0b9a7ea2fca868c93640dd77cf44df335095f501"
                            },
                            {
                                "decimalAvailable": true,
                                "name": "value",
                                "type": "uint256",
                                "value": "115,792,089,237,316,195,423,570,985,008,687,907,853,269,984,665,640,564,039,186,366,435,273,625,991,639"
                            }
                        ],
                        "signature": "Approval(address,address,uint256)"
                    },
                    "id": 6,
                    "logData": "0xfffffffffffffffffffffffffffffffffffffffffffffff14c199ea81aae79d7",
                    "logDecoded": true,
                    "operation": "EVENT",
                    "revert": false,
                    "status": true,
                    "topics": [
                        "0x8c5be1e5ebec7d5bd14f71427d1e84f3dd0314c0f7b2291e5b200ac8c7c3b925",
                        "0x000000000000000000000000786df032e6c027dc04e8ba02356bf856e31a62c7",
                        "0x0000000000000000000000000b9a7ea2fca868c93640dd77cf44df335095f501"
                    ]
                },
                "nodeType": 1
            },
            "7": {
                "invocation": {
                    "address": "0xa0b86991c6218b36c1d19d4a2e9eb0ce3606eb48",
                    "callData": "0x000000000000000000000000786df032e6c027dc04e8ba02356bf856e31a62c700000000000000000000000000000000000000000000000000000000112c83db",
                    "decodedMethod": {
                        "callParams": [
                            {
                                "name": "to",
                                "type": "address",
                                "value": "0x786df032e6c027dc04e8ba02356bf856e31a62c7"
                            },
                            {
                                "decimalAvailable": true,
                                "name": "value",
                                "type": "uint256",
                                "value": "288,130,011"
                            }
                        ],
                        "constructorArguments": "",
                        "name": "transfer",
                        "returnParams": [
                            {
                                "name": "",
                                "type": "bool",
                                "value": true
                            }
                        ],
                        "signature": "transfer(address,uint256)"
                    },
                    "errorInfo": "",
                    "fromAddress": "0x0b9a7ea2fca868c93640dd77cf44df335095f501",
                    "gasUsed": 44017,
                    "id": 7,
                    "methodDecoded": true,
                    "operation": "CALL",
                    "output": "0x0000000000000000000000000000000000000000000000000000000000000001",
                    "revert": false,
                    "revertMessage": "",
                    "selector": "0xa9059cbb",
                    "status": true,
                    "value": "0"
                },
                "nodeType": 0
            },
            "8": {
                "invocation": {
                    "address": "0xa2327a938febf5fec13bacfb16ae10ecbc4cbdcf",
                    "callData": "0x000000000000000000000000786df032e6c027dc04e8ba02356bf856e31a62c700000000000000000000000000000000000000000000000000000000112c83db",
                    "decodedMethod": {
                        "callParams": [
                            {
                                "name": "to",
                                "type": "address",
                                "value": "0x786df032e6c027dc04e8ba02356bf856e31a62c7"
                            },
                            {
                                "decimalAvailable": true,
                                "name": "value",
                                "type": "uint256",
                                "value": "288,130,011"
                            }
                        ],
                        "constructorArguments": "",
                        "name": "transfer",
                        "returnParams": [
                            {
                                "name": "",
                                "type": "bool",
                                "value": true
                            }
                        ],
                        "signature": "transfer(address,uint256)"
                    },
                    "errorInfo": "",
                    "fromAddress": "0xa0b86991c6218b36c1d19d4a2e9eb0ce3606eb48",
                    "gasUsed": 36728,
                    "id": 8,
                    "methodDecoded": true,
                    "operation": "DELEGATECALL",
                    "output": "0x0000000000000000000000000000000000000000000000000000000000000001",
                    "revert": false,
                    "revertMessage": "",
                    "selector": "0xa9059cbb",
                    "status": true,
                    "value": "0"
                },
                "nodeType": 0
            },
            "9": {
                "event": {
                    "contract": "0xa0b86991c6218b36c1d19d4a2e9eb0ce3606eb48",
                    "decodedLog": {
                        "name": "Transfer",
                        "params": [
                            {
                                "name": "from",
                                "type": "address",
                                "value": "0x0b9a7ea2fca868c93640dd77cf44df335095f501"
                            },
                            {
                                "name": "to",
                                "type": "address",
                                "value": "0x786df032e6c027dc04e8ba02356bf856e31a62c7"
                            },
                            {
                                "decimalAvailable": true,
                                "name": "value",
                                "type": "uint256",
                                "value": "288,130,011"
                            }
                        ],
                        "signature": "Transfer(address,address,uint256)"
                    },
                    "id": 9,
                    "logData": "0x00000000000000000000000000000000000000000000000000000000112c83db",
                    "logDecoded": true,
                    "operation": "EVENT",
                    "revert": false,
                    "status": true,
                    "topics": [
                        "0xddf252ad1be2c89b69c2b068fc378daa952ba7f163c4a11628f55a4df523b3ef",
                        "0x0000000000000000000000000b9a7ea2fca868c93640dd77cf44df335095f501",
                        "0x000000000000000000000000786df032e6c027dc04e8ba02356bf856e31a62c7"
                    ]
                },
                "nodeType": 1
            }
        },
        "gasFlame": [
            {
                "children": [
                    {
                        "children": [
                            {
                                "children": [],
                                "depth": 0,
                                "name": "Initial Gas",
                                "value": 21796
                            },
                            {
                                "children": [
                                    {
                                        "children": [],
                                        "depth": 1,
                                        "name": "update",
                                        "value": 164
                                    },
                                    {
                                        "children": [
                                            {
                                                "children": [],
                                                "depth": 2,
                                                "name": "getCurrentOraclePrice",
                                                "value": 4983
                                            }
                                        ],
                                        "depth": 1,
                                        "name": "read",
                                        "value": 10783
                                    },
                                    {
                                        "children": [],
                                        "depth": 1,
                                        "name": "transferFrom",
                                        "value": 20246
                                    },
                                    {
                                        "children": [
                                            {
                                                "children": [],
                                                "depth": 2,
                                                "name": "transfer",
                                                "value": 36728
                                            }
                                        ],
                                        "depth": 1,
                                        "name": "transfer",
                                        "value": 44017
                                    }
                                ],
                                "depth": 0,
                                "name": "Executed Gas",
                                "value": 115251
                            }
                        ],
                        "depth": -1,
                        "name": "Actual Gas Used",
                        "value": 129447
                    },
                    {
                        "children": [],
                        "depth": -1,
                        "name": "Refunded Gas",
                        "value": 7600
                    }
                ],
                "depth": -2,
                "name": "Total Gas",
                "value": 137047
            }
        ],
        "isConfirmed": true,
        "mainTrace": [
            {
                "children": [
                    {
                        "children": [
                            {
                                "children": [],
                                "depth": 1,
                                "id": 1,
                                "order": 1
                            },
                            {
                                "children": [
                                    {
                                        "children": [],
                                        "depth": 2,
                                        "id": 3,
                                        "order": 3
                                    }
                                ],
                                "depth": 1,
                                "id": 2,
                                "order": 2
                            },
                            {
                                "children": [
                                    {
                                        "children": [],
                                        "depth": 2,
                                        "id": 5,
                                        "order": 5
                                    },
                                    {
                                        "children": [],
                                        "depth": 2,
                                        "id": 6,
                                        "order": 6
                                    }
                                ],
                                "depth": 1,
                                "id": 4,
                                "order": 4
                            },
                            {
                                "children": [
                                    {
                                        "children": [
                                            {
                                                "children": [],
                                                "depth": 3,
                                                "id": 9,
                                                "order": 9
                                            }
                                        ],
                                        "depth": 2,
                                        "id": 8,
                                        "order": 8
                                    }
                                ],
                                "depth": 1,
                                "id": 7,
                                "order": 7
                            },
                            {
                                "children": [],
                                "depth": 1,
                                "id": 10,
                                "order": 10
                            }
                        ],
                        "depth": 0,
                        "id": 0,
                        "order": 0
                    }
                ],
                "depth": -1,
                "id": -1,
                "order": -1
            }
        ],
        "mainTraceNodeCount": 11,
        "parentIdMap": {
            "0": -1,
            "1": 0,
            "10": 0,
            "2": 0,
            "3": 2,
            "4": 0,
            "5": 4,
            "6": 4,
            "7": 0,
            "8": 7,
            "9": 8
        },
        "tidyTrace": [
            {
                "children": [
                    {
                        "children": [
                            {
                                "children": [],
                                "depth": 1,
                                "id": 1,
                                "order": 1
                            },
                            {
                                "children": [
                                    {
                                        "children": [],
                                        "depth": 2,
                                        "id": 5,
                                        "order": 5
                                    },
                                    {
                                        "children": [],
                                        "depth": 2,
                                        "id": 6,
                                        "order": 6
                                    }
                                ],
                                "depth": 1,
                                "id": 4,
                                "order": 4
                            },
                            {
                                "children": [
                                    {
                                        "children": [
                                            {
                                                "children": [],
                                                "depth": 3,
                                                "id": 9,
                                                "order": 9
                                            }
                                        ],
                                        "depth": 2,
                                        "id": 8,
                                        "order": 8
                                    }
                                ],
                                "depth": 1,
                                "id": 7,
                                "order": 7
                            },
                            {
                                "children": [],
                                "depth": 1,
                                "id": 10,
                                "order": 10
                            }
                        ],
                        "depth": 0,
                        "id": 0,
                        "order": 0
                    }
                ],
                "depth": -1,
                "id": -1,
                "order": -1
            }
        ],
        "tidyTraceNodeCount": 9
    },
    "state_change": {
        "stateChanges": [
            {
                "address": "0x559ebc30b0e58a45cc9ff573f77ef1e5eb1b3e18",
                "erc": "ERC-20",
                "slots": [
                    {
                        "current": "0x0000000000000000000000000000000000000000000000000000000000000000",
                        "key": "0x3f97f778d344554d0c29e24364c806b5df03b19602d714219fd5e9c8d236cceb",
                        "prev": "0x00000000000000000000000000000000000000000000000eb3e66157e5518628"
                    },
                    {
                        "current": "0x00000000000000000000000000000000000000000000982a621be6f3232f5543",
                        "key": "0x10883eb7dbe8cf35aa071a4329f016cd066fca4a7e8b5f8b168fe3182f7692cf",
                        "prev": "0x00000000000000000000000000000000000000000000981bae35859b3dddcf1b"
                    },
                    {
                        "current": "0xfffffffffffffffffffffffffffffffffffffffffffffff14c199ea81aae79d7",
                        "key": "0x52c484786e3a26e8ad3afa84305780bd26bfbc03b99758fab9ba7f92d071ce5d",
                        "prev": "0xffffffffffffffffffffffffffffffffffffffffffffffffffffffffffffffff"
                    }
                ],
                "storageVariables": [
                    {
                        "name": "_balances",
                        "type": "mapping(address => uint256)",
                        "value": {
                            "pairs": [
                                {
                                    "key": "0x0b9a7ea2fca868c93640dd77cf44df335095f501",
                                    "value": {
                                        "current": "718581538145253903521091",
                                        "prev": "718310320572614399872795",
                                        "typeTag": 1
                                    }
                                },
                                {
                                    "key": "0x786df032e6c027dc04e8ba02356bf856e31a62c7",
                                    "value": {
                                        "current": "0",
                                        "prev": "271217572639503648296",
                                        "typeTag": 1
                                    }
                                }
                            ],
                            "typeTag": 4
                        }
                    },
                    {
                        "name": "_allowances",
                        "type": "mapping(address => mapping(address => uint256))",
                        "value": {
                            "pairs": [
                                {
                                    "key": "0x786df032e6c027dc04e8ba02356bf856e31a62c7",
                                    "value": {
                                        "pairs": [
                                            {
                                                "key": "0x0b9a7ea2fca868c93640dd77cf44df335095f501",
                                                "value": {
                                                    "current": "115792089237316195423570985008687907853269984665640564039186366435273625991639",
                                                    "prev": "115792089237316195423570985008687907853269984665640564039457584007913129639935",
                                                    "typeTag": 1
                                                }
                                            }
                                        ],
                                        "typeTag": 4
                                    }
                                }
                            ],
                            "typeTag": 4
                        }
                    }
                ]
            },
            {
                "address": "0xa0b86991c6218b36c1d19d4a2e9eb0ce3606eb48",
                "erc": "ERC-20",
                "slots": [
                    {
                        "current": "0x00000000000000000000000000000000000000000000000000000008ab13690d",
                        "key": "0x16a174e0bdd8ab4f373b51900880d9543962fb3d211484edd92152a083bd289a",
                        "prev": "0x00000000000000000000000000000000000000000000000000000008bc3fece8"
                    },
                    {
                        "current": "0x00000000000000000000000000000000000000000000000000000000112c83db",
                        "key": "0x39e7803690c7cdd74f4a74dbe55057719d44b7e93c5e59e595a0a69d4f3e5ea4",
                        "prev": "0x0000000000000000000000000000000000000000000000000000000000000000"
                    }
                ],
                "storageVariables": [
                    {
                        "name": "balances",
                        "type": "mapping(address => uint256)",
                        "value": {
                            "pairs": [
                                {
                                    "key": "0x0b9a7ea2fca868c93640dd77cf44df335095f501",
                                    "value": {
                                        "current": "37229914381",
                                        "prev": "37518044392",
                                        "typeTag": 1
                                    }
                                },
                                {
                                    "key": "0x786df032e6c027dc04e8ba02356bf856e31a62c7",
                                    "value": {
                                        "current": "288130011",
                                        "prev": "0",
                                        "typeTag": 1
                                    }
                                }
                            ],
                            "typeTag": 4
                        }
                    }
                ]
            }
        ]
    }
}