{
    "balance_change": {
        "balanceChanges": [
            {
                "account": "0x3e87c05290bede7aae85be2d5836bb0e18b211d4",
                "assets": [
                    {
                        "address": "0xeeeeeeeeeeeeeeeeeeeeeeeeeeeeeeeeeeeeeeee",
                        "amount": "0.000051547317927586",
                        "iconUrl": "https://assets.blocksec.com/image/1663669189317-3.png",
                        "isERC1155": false,
                        "isERC721": false,
                        "sign": false,
                        "value": "0.08757448705297529313"
                    },
                    {
                        "address": "0xa0b86991c6218b36c1d19d4a2e9eb0ce3606eb48",
                        "amount": "3,000",
                        "iconUrl": "https://assets.blocksec.com/icon/0347a86cc07dbd03fdc5db01a4e5ac7e1217f90e0b6e4bb0f75cbcca09160989.png",
                        "isERC1155": false,
                        "isERC721": false,
                        "sign": false,
                        "value": "2998.5359999999998681"
                    }
                ]
            },
            {
                "account": "0x011b6e24ffb0b5f5fcc564cf4183c5bbbc96d515",
                "assets": [
                    {
                        "address": "0xeeeeeeeeeeeeeeeeeeeeeeeeeeeeeeeeeeeeeeee",
                        "amount": "0.000051547317927586",
                        "iconUrl": "https://assets.blocksec.com/image/1663669189317-3.png",
                        "isERC1155": false,
                        "isERC721": false,
                        "sign": true,
                        "value": "0.08757448705297529313"
                    }
                ]
            },
            {
                "account": "0xcee284f754e854890e311e3280b767f80797180d",
                "assets": [
                    {
                        "address": "0xa0b86991c6218b36c1d19d4a2e9eb0ce3606eb48",
                        "amount": "3,000",
                        "iconUrl": "https://assets.blocksec.com/icon/0347a86cc07dbd03fdc5db01a4e5ac7e1217f90e0b6e4bb0f75cbcca09160989.png",
                        "isERC1155": false,
                        "isERC721": false,
                        "sign": true,
                        "value": "2998.5359999999998681"
                    }
                ]
            }
        ]
    },
    "profile": {
        "basic_info": {
            "baseFee": "17.688233827",
            "blockNumber": 15372894,
            "callData": "0xd2ce7d65000000000000000000000000a0b86991c6218b36c1d19d4a2e9eb0ce3606eb480000000000000000000000003e87c05290bede7aae85be2d5836bb0e18b211d400000000000000000000000000000000000000000000000000000000b2d05e000000000000000000000000000000000000000000000000000000000000043238000000000000000000000000000000000000000000000000000000000b22bf1a00000000000000000000000000000000000000000000000000000000000000c0000000000000000000000000000000000000000000000000000000000000006000000000000000000000000000000000000000000000000000000027963e1cf200000000000000000000000000000000000000000000000000000000000000400000000000000000000000000000000000000000000000000000000000000000",
            "debugEnable": true,
            "errorInfo": "",
            "eventCount": 6,
            "feeRecipient": "0xc365c3315cf926351ccaf13fa7d19c8c4058c8e1",
            "formatValue": "0.000051547317927586",
            "gasLimit": 216385,
            "gasPrice": "19.688233827",
            "gasUsed": 204704,
            "intTxnCount": 13,
            "internalRevert": false,
            "internalRevertMessage": "",
            "isContractCreation": false,
            "isFlashloan": false,
            "maxFee": "39.792075524",
            "nonce": 96,
            "overwritedBlockNumber": -1,
            "priorityFee": "2",
            "receiver": "0x72ce9c846789fdb6fc1f34ac4ad25dd9ef7031ef",
            "revertMessage": "",
            "sender": "0x3e87c05290bede7aae85be2d5836bb0e18b211d4",
            "simulationEnable": true,
            "sourceTxnHash": "0x26ba5cda85267a6c8e493a22e6477d039bac04ea9b984769941d91d3f221210f",
            "status": true,
            "timestamp": "2022-08-19T18:28:46Z",
            "transactionFee": "0.004030260217322208",
            "txnHash": "0x26ba5cda85267a6c8e493a22e6477d039bac04ea9b984769941d91d3f221210f",
            "txnIndex": 58,
            "type": 2,
            "value": "51547317927586"
        },
        "fund_flow": [
            {
                "amount": "0.000051547317927586",
                "from": "0x3e87c05290bede7aae85be2d5836bb0e18b211d4",
                "id": 1,
                "isERC1155": false,
                "isERC721": false,
                "isReverted": false,
                "order": 1,
                "to": "0x72ce9c846789fdb6fc1f34ac4ad25dd9ef7031ef",
                "token": "0xeeeeeeeeeeeeeeeeeeeeeeeeeeeeeeeeeeeeeeee"
            },
            {
                "amount": "0.000051547317927586",
                "from": "0x72ce9c846789fdb6fc1f34ac4ad25dd9ef7031ef",
                "id": 2,
                "isERC1155": false,
                "isERC721": false,
                "isReverted": false,
                "order": 2,
                "to": "0xcee284f754e854890e311e3280b767f80797180d",
                "token": "0xeeeeeeeeeeeeeeeeeeeeeeeeeeeeeeeeeeeeeeee"
            },
            {
                "amount": "3,000",
                "from": "0x3e87c05290bede7aae85be2d5836bb0e18b211d4",
                "id": 3,
                "isERC1155": false,
                "isERC721": false,
                "isReverted": false,
                "order": 3,
                "to": "0xcee284f754e854890e311e3280b767f80797180d",
                "token": "0xa0b86991c6218b36c1d19d4a2e9eb0ce3606eb48"
            },
            {
                "amount": "0.000051547317927586",
                "from": "0xcee284f754e854890e311e3280b767f80797180d",
                "id": 4,
                "isERC1155": false,
                "isERC721": false,
                "isReverted": false,
                "order": 4,
                "to": "0x4dbd4fc535ac27206064b68ffcf827b0a60bab3f",
                "token": "0xeeeeeeeeeeeeeeeeeeeeeeeeeeeeeeeeeeeeeeee"
            },
            {
                "amount": "0.000051547317927586",
                "from": "0x4dbd4fc535ac27206064b68ffcf827b0a60bab3f",
                "id": 5,
                "isERC1155": false,
                "isERC721": false,
                "isReverted": false,
                "order": 5,
                "to": "0x011b6e24ffb0b5f5fcc564cf4183c5bbbc96d515",
                "token": "0xeeeeeeeeeeeeeeeeeeeeeeeeeeeeeeeeeeeeeeee"
            }
        ],
        "token_infos": [
            {
                "address": "0xc02aaa39b223fe8d0a0e5c4f27ead9083c756cc2",
                "decimals": 18
            },
            {
                "address": "0xeeeeeeeeeeeeeeeeeeeeeeeeeeeeeeeeeeeeeeee",
                "decimals": 18
            },
            {
                "address": "0xa0b86991c6218b36c1d19d4a2e9eb0ce3606eb48",
                "decimals": 6
            }
        ]
    },
    "address_label": {
        "labels": [
            {
                "address": "0xa2327a938febf5fec13bacfb16ae10ecbc4cbdcf",
                "label": "FiatTokenV2_1"
            },
            {
                "address": "0xc23e3f20340f8ef09c8861a724c29db43ba3eed4",
                "label": "Inbox"
            },
            {
                "address": "0x72ce9c846789fdb6fc1f34ac4ad25dd9ef7031ef",
                "label": "Arbitrum One: L1 Gateway Router"
            },
            {
                "address": "0x096760f208390250649e3e8763348e783aef5562",
                "label": "L2CustomGateway (Proxy)"
            },
            {
                "address": "0x0000000000000000000000000000000000000003",
                "label": "Precompiled"
            },
            {
                "address": "0x0000000000000000000000000000000000000004",
                "label": "Precompiled"
            },
            {
                "address": "0xc8d26ab9e132c79140b3376a0ac7932e4680aa45",
                "label": "L1CustomGateway"
            },
            {
                "address": "0x2f06e43d850ac75926fa2866e40139475b58cb16",
                "label": "Arbitrum: Bridge 2"
            },
            {
                "address": "0x6d1c576fe3e54313990450f5fa322306b4ccb47b",
                "label": "L1GatewayRouter"
            },
            {
                "address": "0x4dbd4fc535ac27206064b68ffcf827b0a60bab3f",
                "label": "Arbitrum: Delayed Inbox"
            },
            {
                "address": "0x011b6e24ffb0b5f5fcc564cf4183c5bbbc96d515",
                "label": "Arbitrum: Old Bridge"
            },
            {
                "address": "0x0000000000000000000000000000000000000001",
                "label": "Precompiled"
            },
            {
                "address": "0x0000000000000000000000000000000000000002",
                "label": "Precompiled"
            },
            {
                "address": "0xeeeeeeeeeeeeeeeeeeeeeeeeeeeeeeeeeeeeeeee",
                "label": "Ether"
            },
            {
                "address": "0xa0b86991c6218b36c1d19d4a2e9eb0ce3606eb48",
                "label": "Circle: USDC Token"
            },
            {
                "address": "0xcee284f754e854890e311e3280b767f80797180d",
                "label": "TransparentUpgradeableProxy"
            }
        ]
    },
    "trace": {
        "accountLabels": null,
        "dataMap": {
            "-1": {
                "invocation": {
                    "address": "0x3e87c05290bede7aae85be2d5836bb0e18b211d4",
                    "callData": "",
                    "decodedMethod": null,
                    "errorInfo": "",
                    "fromAddress": "",
                    "gasUsed": 0,
                    "id": -1,
                    "methodDecoded": false,
                    "operation": "",
                    "output": "",
                    "revert": false,
                    "revertMessage": "",
                    "selector": "",
                    "status": false,
                    "value": ""
                },
                "nodeType": 0
            },
            "0": {
                "invocation": {
                    "address": "0x72ce9c846789fdb6fc1f34ac4ad25dd9ef7031ef",
                    "callData": "0x000000000000000000000000a0b86991c6218b36c1d19d4a2e9eb0ce3606eb480000000000000000000000003e87c05290bede7aae85be2d5836bb0e18b211d400000000000000000000000000000000000000000000000000000000b2d05e000000000000000000000000000000000000000000000000000000000000043238000000000000000000000000000000000000000000000000000000000b22bf1a00000000000000000000000000000000000000000000000000000000000000c0000000000000000000000000000000000000000000000000000000000000006000000000000000000000000000000000000000000000000000000027963e1cf200000000000000000000000000000000000000000000000000000000000000400000000000000000000000000000000000000000000000000000000000000000",
                    "decodedMethod": {
                        "callParams": [
                            {
                                "name": "_token",
                                "type": "address",
                                "value": "0xa0b86991c6218b36c1d19d4a2e9eb0ce3606eb48"
                            },
                            {
                                "name": "_to",
                                "type": "address",
                                "value": "0x3e87c05290bede7aae85be2d5836bb0e18b211d4"
                            },
                            {
                                "name": "_amount",
                                "type": "uint256",
                                "value": "3,000,000,000"
                            },
                            {
                                "name": "_maxGas",
                                "type": "uint256",
                                "value": "275,000"
                            },
                            {
                                "name": "_gasPriceBid",
                                "type": "uint256",
                                "value": "186,826,522"
                            },
                            {
                                "name": "_data",
                                "type": "bytes",
                                "value": "0x00000000000000000000000000000000000000000000000000000027963e1cf200000000000000000000000000000000000000000000000000000000000000400000000000000000000000000000000000000000000000000000000000000000"
                            }
                        ],
                        "constructorArguments": "",
                        "name": "outboundTransfer",
                        "returnParams": [
                            {
                                "name": "",
                                "type": "bytes",
                                "value": "0x00000000000000000000000000000000000000000000000000000000000b2050"
                            }
                        ],
                        "signature": "outboundTransfer(address,address,uint256,uint256,uint256,bytes)"
                    },
                    "errorInfo": "",
                    "fromAddress": "0x3e87c05290bede7aae85be2d5836bb0e18b211d4",
                    "gasUsed": 204704,
                    "id": 0,
                    "methodDecoded": true,
                    "operation": "CALL",
                    "output": "0x0000000000000000000000000000000000000000000000000000000000000020000000000000000000000000000000000000000000000000000000000000002000000000000000000000000000000000000000000000000000000000000b2050",
                    "revert": false,
                    "revertMessage": "",
                    "selector": "0xd2ce7d65",
                    "status": true,
                    "value": "0.000051547317927586"
                },
                "nodeType": 0
            },
            "1": {
                "invocation": {
                    "address": "0x6d1c576fe3e54313990450f5fa322306b4ccb47b",
                    "callData": "0x000000000000000000000000a0b86991c6218b36c1d19d4a2e9eb0ce3606eb480000000000000000000000003e87c05290bede7aae85be2d5836bb0e18b211d400000000000000000000000000000000000000000000000000000000b2d05e000000000000000000000000000000000000000000000000000000000000043238000000000000000000000000000000000000000000000000000000000b22bf1a00000000000000000000000000000000000000000000000000000000000000c0000000000000000000000000000000000000000000000000000000000000006000000000000000000000000000000000000000000000000000000027963e1cf200000000000000000000000000000000000000000000000000000000000000400000000000000000000000000000000000000000000000000000000000000000",
                    "decodedMethod": {
                        "callParams": [
                            {
                                "name": "_token",
                                "type": "address",
                                "value": "0xa0b86991c6218b36c1d19d4a2e9eb0ce3606eb48"
                            },
                            {
                                "name": "_to",
                                "type": "address",
                                "value": "0x3e87c05290bede7aae85be2d5836bb0e18b211d4"
                            },
                            {
                                "name": "_amount",
                                "type": "uint256",
                                "value": "3,000,000,000"
                            },
                            {
                                "name": "_maxGas",
                                "type": "uint256",
                                "value": "275,000"
                            },
                            {
                                "name": "_gasPriceBid",
                                "type": "uint256",
                                "value": "186,826,522"
                            },
                            {
                                "name": "_data",
                                "type": "bytes",
                                "value": "0x00000000000000000000000000000000000000000000000000000027963e1cf200000000000000000000000000000000000000000000000000000000000000400000000000000000000000000000000000000000000000000000000000000000"
                            }
                        ],
                        "constructorArguments": "",
                        "name": "outboundTransfer",
                        "returnParams": [
                            {
                                "name": "",
                                "type": "bytes",
                                "value": "0x00000000000000000000000000000000000000000000000000000000000b2050"
                            }
                        ],
                        "signature": "outboundTransfer(address,address,uint256,uint256,uint256,bytes)"
                    },
                    "errorInfo": "",
                    "fromAddress": "0x72ce9c846789fdb6fc1f34ac4ad25dd9ef7031ef",
                    "gasUsed": 177164,
                    "id": 1,
                    "methodDecoded": true,
                    "operation": "DELEGATECALL",
                    "output": "0x0000000000000000000000000000000000000000000000000000000000000020000000000000000000000000000000000000000000000000000000000000002000000000000000000000000000000000000000000000000000000000000b2050",
                    "revert": false,
                    "revertMessage": "",
                    "selector": "0xd2ce7d65",
                    "status": true,
                    "value": "0.000051547317927586"
                },
                "nodeType": 0
            },
            "10": {
                "invocation": {
                    "address": "0xa0b86991c6218b36c1d19d4a2e9eb0ce3606eb48",
                    "callData": "0x000000000000000000000000cee284f754e854890e311e3280b767f80797180d",
                    "decodedMethod": {
                        "callParams": [
                            {
                                "name": "account",
                                "type": "address",
                                "value": "0xcee284f754e854890e311e3280b767f80797180d"
                            }
                        ],
                        "constructorArguments": "",
                        "name": "balanceOf",
                        "returnParams": [
                            {
                                "decimalAvailable": true,
                                "name": "",
                                "type": "uint256",
                                "value": "845,881,437,042,524"
                            }
                        ],
                        "signature": "balanceOf(address)"
                    },
                    "errorInfo": "",
                    "fromAddress": "0xcee284f754e854890e311e3280b767f80797180d",
                    "gasUsed": 1315,
                    "id": 10,
                    "methodDecoded": true,
                    "operation": "STATICCALL",
                    "output": "0x000000000000000000000000000000000000000000000000000301531e93b75c",
                    "revert": false,
                    "revertMessage": "",
                    "selector": "0x70a08231",
                    "status": true,
                    "value": "0"
                },
                "nodeType": 0
            },
            "11": {
                "invocation": {
                    "address": "0xa2327a938febf5fec13bacfb16ae10ecbc4cbdcf",
                    "callData": "0x000000000000000000000000cee284f754e854890e311e3280b767f80797180d",
                    "decodedMethod": {
                        "callParams": [
                            {
                                "name": "account",
                                "type": "address",
                                "value": "0xcee284f754e854890e311e3280b767f80797180d"
                            }
                        ],
                        "constructorArguments": "",
                        "name": "balanceOf",
                        "returnParams": [
                            {
                                "decimalAvailable": true,
                                "name": "",
                                "type": "uint256",
                                "value": "845,881,437,042,524"
                            }
                        ],
                        "signature": "balanceOf(address)"
                    },
                    "errorInfo": "",
                    "fromAddress": "0xa0b86991c6218b36c1d19d4a2e9eb0ce3606eb48",
                    "gasUsed": 529,
                    "id": 11,
                    "methodDecoded": true,
                    "operation": "DELEGATECALL",
                    "output": "0x000000000000000000000000000000000000000000000000000301531e93b75c",
                    "revert": false,
                    "revertMessage": "",
                    "selector": "0x70a08231",
                    "status": true,
                    "value": "0"
                },
                "nodeType": 0
            },
            "12": {
                "invocation": {
                    "address": "0x4dbd4fc535ac27206064b68ffcf827b0a60bab3f",
                    "callData": "0x000000000000000000000000096760f208390250649e3e8763348e783aef5562000000000000000000000000000000000000000000000000000000000000000000000000000000000000000000000000000000000000000000000027963e1cf20000000000000000000000003e87c05290bede7aae85be2d5836bb0e18b211d40000000000000000000000003e87c05290bede7aae85be2d5836bb0e18b211d40000000000000000000000000000000000000000000000000000000000043238000000000000000000000000000000000000000000000000000000000b22bf1a000000000000000000000000000000000000000000000000000000000000010000000000000000000000000000000000000000000000000000000000000001442e567b36000000000000000000000000a0b86991c6218b36c1d19d4a2e9eb0ce3606eb480000000000000000000000003e87c05290bede7aae85be2d5836bb0e18b211d40000000000000000000000003e87c05290bede7aae85be2d5836bb0e18b211d400000000000000000000000000000000000000000000000000000000b2d05e0000000000000000000000000000000000000000000000000000000000000000a00000000000000000000000000000000000000000000000000000000000000080000000000000000000000000000000000000000000000000000000000000004000000000000000000000000000000000000000000000000000000000000000600000000000000000000000000000000000000000000000000000000000000000000000000000000000000000000000000000000000000000000000000000000000000000000000000000000000000000000000000000000000000000",
                    "decodedMethod": {
                        "callParams": [
                            {
                                "name": "destAddr",
                                "type": "address",
                                "value": "0x096760f208390250649e3e8763348e783aef5562"
                            },
                            {
                                "name": "l2CallValue",
                                "type": "uint256",
                                "value": "0"
                            },
                            {
                                "name": "maxSubmissionCost",
                                "type": "uint256",
                                "value": "170,024,377,586"
                            },
                            {
                                "name": "excessFeeRefundAddress",
                                "type": "address",
                                "value": "0x3e87c05290bede7aae85be2d5836bb0e18b211d4"
                            },
                            {
                                "name": "callValueRefundAddress",
                                "type": "address",
                                "value": "0x3e87c05290bede7aae85be2d5836bb0e18b211d4"
                            },
                            {
                                "name": "maxGas",
                                "type": "uint256",
                                "value": "275,000"
                            },
                            {
                                "name": "gasPriceBid",
                                "type": "uint256",
                                "value": "186,826,522"
                            },
                            {
                                "name": "data",
                                "type": "bytes",
                                "value": "0x2e567b36000000000000000000000000a0b86991c6218b36c1d19d4a2e9eb0ce3606eb480000000000000000000000003e87c05290bede7aae85be2d5836bb0e18b211d40000000000000000000000003e87c05290bede7aae85be2d5836bb0e18b211d400000000000000000000000000000000000000000000000000000000b2d05e0000000000000000000000000000000000000000000000000000000000000000a000000000000000000000000000000000000000000000000000000000000000800000000000000000000000000000000000000000000000000000000000000040000000000000000000000000000000000000000000000000000000000000006000000000000000000000000000000000000000000000000000000000000000000000000000000000000000000000000000000000000000000000000000000000"
                            }
                        ],
                        "constructorArguments": "",
                        "name": "createRetryableTicket",
                        "returnParams": [
                            {
                                "name": "",
                                "type": "uint256",
                                "value": "729,168"
                            }
                        ],
                        "signature": "createRetryableTicket(address,uint256,uint256,address,address,uint256,uint256,bytes)"
                    },
                    "errorInfo": "",
                    "fromAddress": "0xcee284f754e854890e311e3280b767f80797180d",
                    "gasUsed": 74757,
                    "id": 12,
                    "methodDecoded": true,
                    "operation": "CALL",
                    "output": "0x00000000000000000000000000000000000000000000000000000000000b2050",
                    "revert": false,
                    "revertMessage": "",
                    "selector": "0x679b6ded",
                    "status": true,
                    "value": "0.000051547317927586"
                },
                "nodeType": 0
            },
            "13": {
                "invocation": {
                    "address": "0xc23e3f20340f8ef09c8861a724c29db43ba3eed4",
                    "callData": "0x000000000000000000000000096760f208390250649e3e8763348e783aef5562000000000000000000000000000000000000000000000000000000000000000000000000000000000000000000000000000000000000000000000027963e1cf20000000000000000000000003e87c05290bede7aae85be2d5836bb0e18b211d40000000000000000000000003e87c05290bede7aae85be2d5836bb0e18b211d40000000000000000000000000000000000000000000000000000000000043238000000000000000000000000000000000000000000000000000000000b22bf1a000000000000000000000000000000000000000000000000000000000000010000000000000000000000000000000000000000000000000000000000000001442e567b36000000000000000000000000a0b86991c6218b36c1d19d4a2e9eb0ce3606eb480000000000000000000000003e87c05290bede7aae85be2d5836bb0e18b211d40000000000000000000000003e87c05290bede7aae85be2d5836bb0e18b211d400000000000000000000000000000000000000000000000000000000b2d05e0000000000000000000000000000000000000000000000000000000000000000a00000000000000000000000000000000000000000000000000000000000000080000000000000000000000000000000000000000000000000000000000000004000000000000000000000000000000000000000000000000000000000000000600000000000000000000000000000000000000000000000000000000000000000000000000000000000000000000000000000000000000000000000000000000000000000000000000000000000000000000000000000000000000000",
                    "decodedMethod": {
                        "callParams": [
                            {
                                "name": "destAddr",
                                "type": "address",
                                "value": "0x096760f208390250649e3e8763348e783aef5562"
                            },
                            {
                                "name": "l2CallValue",
                                "type": "uint256",
                                "value": "0"
                            },
                            {
                                "name": "maxSubmissionCost",
                                "type": "uint256",
                                "value": "170,024,377,586"
                            },
                            {
                                "name": "excessFeeRefundAddress",
                                "type": "address",
                                "value": "0x3e87c05290bede7aae85be2d5836bb0e18b211d4"
                            },
                            {
                                "name": "callValueRefundAddress",
                                "type": "address",
                                "value": "0x3e87c05290bede7aae85be2d5836bb0e18b211d4"
                            },
                            {
                                "name": "maxGas",
                                "type": "uint256",
                                "value": "275,000"
                            },
                            {
                                "name": "gasPriceBid",
                                "type": "uint256",
                                "value": "186,826,522"
                            },
                            {
                                "name": "data",
                                "type": "bytes",
                                "value": "0x2e567b36000000000000000000000000a0b86991c6218b36c1d19d4a2e9eb0ce3606eb480000000000000000000000003e87c05290bede7aae85be2d5836bb0e18b211d40000000000000000000000003e87c05290bede7aae85be2d5836bb0e18b211d400000000000000000000000000000000000000000000000000000000b2d05e0000000000000000000000000000000000000000000000000000000000000000a000000000000000000000000000000000000000000000000000000000000000800000000000000000000000000000000000000000000000000000000000000040000000000000000000000000000000000000000000000000000000000000006000000000000000000000000000000000000000000000000000000000000000000000000000000000000000000000000000000000000000000000000000000000"
                            }
                        ],
                        "constructorArguments": "",
                        "name": "createRetryableTicket",
                        "returnParams": [
                            {
                                "name": "",
                                "type": "uint256",
                                "value": "729,168"
                            }
                        ],
                        "signature": "createRetryableTicket(address,uint256,uint256,address,address,uint256,uint256,bytes)"
                    },
                    "errorInfo": "",
                    "fromAddress": "0x4dbd4fc535ac27206064b68ffcf827b0a60bab3f",
                    "gasUsed": 67403,
                    "id": 13,
                    "methodDecoded": true,
                    "operation": "DELEGATECALL",
                    "output": "0x00000000000000000000000000000000000000000000000000000000000b2050",
                    "revert": false,
                    "revertMessage": "",
                    "selector": "0x679b6ded",
                    "status": true,
                    "value": "0.000051547317927586"
                },
                "nodeType": 0
            },
            "14": {
                "invocation": {
                    "address": "0x011b6e24ffb0b5f5fcc564cf4183c5bbbc96d515",
                    "callData": "0x0000000000000000000000000000000000000000000000000000000000000009000000000000000000000000cee284f754e854890e311e3280b767f80797180d772d907d36b39b7f64c5f6b8d386800df478bdd711ebd06d900d0c236271818d",
                    "decodedMethod": {
                        "callParams": [
                            {
                                "name": "kind",
                                "type": "uint8",
                                "value": "9"
                            },
                            {
                                "name": "sender",
                                "type": "address",
                                "value": "0xcee284f754e854890e311e3280b767f80797180d"
                            },
                            {
                                "name": "messageDataHash",
                                "type": "bytes32",
                                "value": "0x772d907d36b39b7f64c5f6b8d386800df478bdd711ebd06d900d0c236271818d"
                            }
                        ],
                        "constructorArguments": "",
                        "name": "deliverMessageToInbox",
                        "returnParams": [
                            {
                                "name": "",
                                "type": "uint256",
                                "value": "729,168"
                            }
                        ],
                        "signature": "deliverMessageToInbox(uint8,address,bytes32)"
                    },
                    "errorInfo": "",
                    "fromAddress": "0x4dbd4fc535ac27206064b68ffcf827b0a60bab3f",
                    "gasUsed": 42605,
                    "id": 14,
                    "methodDecoded": true,
                    "operation": "CALL",
                    "output": "0x00000000000000000000000000000000000000000000000000000000000b2050",
                    "revert": false,
                    "revertMessage": "",
                    "selector": "0x02bbfad1",
                    "status": true,
                    "value": "0.000051547317927586"
                },
                "nodeType": 0
            },
            "15": {
                "invocation": {
                    "address": "0x2f06e43d850ac75926fa2866e40139475b58cb16",
                    "callData": "0x0000000000000000000000000000000000000000000000000000000000000009000000000000000000000000cee284f754e854890e311e3280b767f80797180d772d907d36b39b7f64c5f6b8d386800df478bdd711ebd06d900d0c236271818d",
                    "decodedMethod": {
                        "callParams": [
                            {
                                "name": "kind",
                                "type": "uint8",
                                "value": "9"
                            },
                            {
                                "name": "sender",
                                "type": "address",
                                "value": "0xcee284f754e854890e311e3280b767f80797180d"
                            },
                            {
                                "name": "messageDataHash",
                                "type": "bytes32",
                                "value": "0x772d907d36b39b7f64c5f6b8d386800df478bdd711ebd06d900d0c236271818d"
                            }
                        ],
                        "constructorArguments": "",
                        "name": "deliverMessageToInbox",
                        "returnParams": [
                            {
                                "name": "",
                                "type": "uint256",
                                "value": "729,168"
                            }
                        ],
                        "signature": "deliverMessageToInbox(uint8,address,bytes32)"
                    },
                    "errorInfo": "",
                    "fromAddress": "0x011b6e24ffb0b5f5fcc564cf4183c5bbbc96d515",
                    "gasUsed": 35353,
                    "id": 15,
                    "methodDecoded": true,
                    "operation": "DELEGATECALL",
                    "output": "0x00000000000000000000000000000000000000000000000000000000000b2050",
                    "revert": false,
                    "revertMessage": "",
                    "selector": "0x02bbfad1",
                    "status": true,
                    "value": "0.000051547317927586"
                },
                "nodeType": 0
            },
            "16": {
                "event": {
                    "contract": "0x011b6e24ffb0b5f5fcc564cf4183c5bbbc96d515",
                    "decodedLog": {
                        "name": "MessageDelivered",
                        "params": [
                            {
                                "name": "messageIndex",
                                "type": "uint256",
                                "value": "729,168"
                            },
                            {
                                "name": "beforeInboxAcc",
                                "type": "bytes32",
                                "value": "0x2d163a18c2d35622ec08d72262c7484faf46c91e69ea2d5f37e80ac9867e78bc"
                            },
                            {
                                "name": "inbox",
                                "type": "address",
                                "value": "0x4dbd4fc535ac27206064b68ffcf827b0a60bab3f"
                            },
                            {
                                "name": "kind",
                                "type": "uint8",
                                "value": "9"
                            },
                            {
                                "name": "sender",
                                "type": "address",
                                "value": "0xcee284f754e854890e311e3280b767f80797180d"
                            },
                            {
                                "name": "messageDataHash",
                                "type": "bytes32",
                                "value": "0x772d907d36b39b7f64c5f6b8d386800df478bdd711ebd06d900d0c236271818d"
                            }
                        ],
                        "signature": "MessageDelivered(uint256,bytes32,address,uint8,address,bytes32)"
                    },
                    "id": 16,
                    "logData": "0x0000000000000000000000004dbd4fc535ac27206064b68ffcf827b0a60bab3f0000000000000000000000000000000000000000000000000000000000000009000000000000000000000000cee284f754e854890e311e3280b767f80797180d772d907d36b39b7f64c5f6b8d386800df478bdd711ebd06d900d0c236271818d",
                    "logDecoded": true,
                    "operation": "EVENT",
                    "revert": false,
                    "status": true,
                    "topics": [
                        "0x23be8e12e420b5da9fb98d8102572f640fb3c11a0085060472dfc0ed194b3cf7",
                        "0x00000000000000000000000000000000000000000000000000000000000b2050",
                        "0x2d163a18c2d35622ec08d72262c7484faf46c91e69ea2d5f37e80ac9867e78bc"
                    ]
                },
                "nodeType": 1
            },
            "17": {
                "event": {
                    "contract": "0x4dbd4fc535ac27206064b68ffcf827b0a60bab3f",
                    "decodedLog": {
                        "name": "InboxMessageDelivered",
                        "params": [
                            {
                                "name": "messageNum",
                                "type": "uint256",
                                "value": "729,168"
                            },
                            {
                                "name": "data",
                                "type": "bytes",
                                "value": "0x000000000000000000000000096760f208390250649e3e8763348e783aef5562000000000000000000000000000000000000000000000000000000000000000000000000000000000000000000000000000000000000000000002ee1cb92fea200000000000000000000000000000000000000000000000000000027963e1cf20000000000000000000000003e87c05290bede7aae85be2d5836bb0e18b211d40000000000000000000000003e87c05290bede7aae85be2d5836bb0e18b211d40000000000000000000000000000000000000000000000000000000000043238000000000000000000000000000000000000000000000000000000000b22bf1a00000000000000000000000000000000000000000000000000000000000001442e567b36000000000000000000000000a0b86991c6218b36c1d19d4a2e9eb0ce3606eb480000000000000000000000003e87c05290bede7aae85be2d5836bb0e18b211d40000000000000000000000003e87c05290bede7aae85be2d5836bb0e18b211d400000000000000000000000000000000000000000000000000000000b2d05e0000000000000000000000000000000000000000000000000000000000000000a000000000000000000000000000000000000000000000000000000000000000800000000000000000000000000000000000000000000000000000000000000040000000000000000000000000000000000000000000000000000000000000006000000000000000000000000000000000000000000000000000000000000000000000000000000000000000000000000000000000000000000000000000000000"
                            }
                        ],
                        "signature": "InboxMessageDelivered(uint256,bytes)"
                    },
                    "id": 17,
                    "logData": "0x00000000000000000000000000000000000000000000000000000000000000200000000000000000000000000000000000000000000000000000000000000264000000000000000000000000096760f208390250649e3e8763348e783aef5562000000000000000000000000000000000000000000000000000000000000000000000000000000000000000000000000000000000000000000002ee1cb92fea200000000000000000000000000000000000000000000000000000027963e1cf20000000000000000000000003e87c05290bede7aae85be2d5836bb0e18b211d40000000000000000000000003e87c05290bede7aae85be2d5836bb0e18b211d40000000000000000000000000000000000000000000000000000000000043238000000000000000000000000000000000000000000000000000000000b22bf1a00000000000000000000000000000000000000000000000000000000000001442e567b36000000000000000000000000a0b86991c6218b36c1d19d4a2e9eb0ce3606eb480000000000000000000000003e87c05290bede7aae85be2d5836bb0e18b211d40000000000000000000000003e87c05290bede7aae85be2d5836bb0e18b211d400000000000000000000000000000000000000000000000000000000b2d05e0000000000000000000000000000000000000000000000000000000000000000a00000000000000000000000000000000000000000000000000000000000000080000000000000000000000000000000000000000000000000000000000000004000000000000000000000000000000000000000000000000000000000000000600000000000000000000000000000000000000000000000000000000000000000000000000000000000000000000000000000000000000000000000000000000000000000000000000000000000000000000000000000000000000000",
                    "logDecoded": true,
                    "operation": "EVENT",
                    "revert": false,
                    "status": true,
                    "topics": [
                        "0xff64905f73a67fb594e0f940a8075a860db489ad991e032f48c81123eb52d60b",
                        "0x00000000000000000000000000000000000000000000000000000000000b2050"
                    ]
                },
                "nodeType": 1
            },
            "18": {
                "event": {
                    "contract": "0xcee284f754e854890e311e3280b767f80797180d",
                    "decodedLog": {
                        "name": "TxToL2",
                        "params": [
                            {
                                "name": "_from",
                                "type": "address",
                                "value": "0x3e87c05290bede7aae85be2d5836bb0e18b211d4"
                            },
                            {
                                "name": "_to",
                                "type": "address",
                                "value": "0x096760f208390250649e3e8763348e783aef5562"
                            },
                            {
                                "name": "_seqNum",
                                "type": "uint256",
                                "value": "729,168"
                            },
                            {
                                "name": "_data",
                                "type": "bytes",
                                "value": "0x2e567b36000000000000000000000000a0b86991c6218b36c1d19d4a2e9eb0ce3606eb480000000000000000000000003e87c05290bede7aae85be2d5836bb0e18b211d40000000000000000000000003e87c05290bede7aae85be2d5836bb0e18b211d400000000000000000000000000000000000000000000000000000000b2d05e0000000000000000000000000000000000000000000000000000000000000000a000000000000000000000000000000000000000000000000000000000000000800000000000000000000000000000000000000000000000000000000000000040000000000000000000000000000000000000000000000000000000000000006000000000000000000000000000000000000000000000000000000000000000000000000000000000000000000000000000000000000000000000000000000000"
                            }
                        ],
                        "signature": "TxToL2(address,address,uint256,bytes)"
                    },
                    "id": 18,
                    "logData": "0x000000000000000000000000000000000000000000000000000000000000002000000000000000000000000000000000000000000000000000000000000001442e567b36000000000000000000000000a0b86991c6218b36c1d19d4a2e9eb0ce3606eb480000000000000000000000003e87c05290bede7aae85be2d5836bb0e18b211d40000000000000000000000003e87c05290bede7aae85be2d5836bb0e18b211d400000000000000000000000000000000000000000000000000000000b2d05e0000000000000000000000000000000000000000000000000000000000000000a00000000000000000000000000000000000000000000000000000000000000080000000000000000000000000000000000000000000000000000000000000004000000000000000000000000000000000000000000000000000000000000000600000000000000000000000000000000000000000000000000000000000000000000000000000000000000000000000000000000000000000000000000000000000000000000000000000000000000000000000000000000000000000",
                    "logDecoded": true,
                    "operation": "EVENT",
                    "revert": false,
                    "status": true,
                    "topics": [
                        "0xc1d1490cf25c3b40d600dfb27c7680340ed1ab901b7e8f3551280968a3b372b0",
                        "0x0000000000000000000000003e87c05290bede7aae85be2d5836bb0e18b211d4",
                        "0x000000000000000000000000096760f208390250649e3e8763348e783aef5562",
                        "0x00000000000000000000000000000000000000000000000000000000000b2050"
                    ]
                },
                "nodeType": 1
            },
            "19": {
                "event": {
                    "contract": "0xcee284f754e854890e311e3280b767f80797180d",
                    "decodedLog": {
                        "name": "DepositInitiated",
                        "params": [
                            {
                                "name": "_from",
                                "type": "address",
                                "value": "0x3e87c05290bede7aae85be2d5836bb0e18b211d4"
                            },
                            {
                                "name": "_to",
                                "type": "address",
                                "value": "0x3e87c05290bede7aae85be2d5836bb0e18b211d4"
                            },
                            {
                                "name": "_sequenceNumber",
                                "type": "uint256",
                                "value": "729,168"
                            },
                            {
                                "name": "l1Token",
                                "type": "address",
                                "value": "0xa0b86991c6218b36c1d19d4a2e9eb0ce3606eb48"
                            },
                            {
                                "name": "_amount",
                                "type": "uint256",
                                "value": "3,000,000,000"
                            }
                        ],
                        "signature": "DepositInitiated(address,address,address,uint256,uint256)"
                    },
                    "id": 19,
                    "logData": "0x000000000000000000000000a0b86991c6218b36c1d19d4a2e9eb0ce3606eb4800000000000000000000000000000000000000000000000000000000b2d05e00",
                    "logDecoded": true,
                    "operation": "EVENT",
                    "revert": false,
                    "status": true,
                    "topics": [
                        "0xb8910b9960c443aac3240b98585384e3a6f109fbf6969e264c3f183d69aba7e1",
                        "0x0000000000000000000000003e87c05290bede7aae85be2d5836bb0e18b211d4",
                        "0x0000000000000000000000003e87c05290bede7aae85be2d5836bb0e18b211d4",
                        "0x00000000000000000000000000000000000000000000000000000000000b2050"
                    ]
                },
                "nodeType": 1
            },
            "2": {
                "event": {
                    "contract": "0x72ce9c846789fdb6fc1f34ac4ad25dd9ef7031ef",
                    "decodedLog": {
                        "name": "TransferRouted",
                        "params": [
                            {
                                "name": "token",
                                "type": "address",
                                "value": "0xa0b86991c6218b36c1d19d4a2e9eb0ce3606eb48"
                            },
                            {
                                "name": "_userFrom",
                                "type": "address",
                                "value": "0x3e87c05290bede7aae85be2d5836bb0e18b211d4"
                            },
                            {
                                "name": "_userTo",
                                "type": "address",
                                "value": "0x3e87c05290bede7aae85be2d5836bb0e18b211d4"
                            },
                            {
                                "name": "gateway",
                                "type": "address",
                                "value": "0xcee284f754e854890e311e3280b767f80797180d"
                            }
                        ],
                        "signature": "TransferRouted(address,address,address,address)"
                    },
                    "id": 2,
                    "logData": "0x000000000000000000000000cee284f754e854890e311e3280b767f80797180d",
                    "logDecoded": true,
                    "operation": "EVENT",
                    "revert": false,
                    "status": true,
                    "topics": [
                        "0x85291dff2161a93c2f12c819d31889c96c63042116f5bc5a205aa701c2c429f5",
                        "0x000000000000000000000000a0b86991c6218b36c1d19d4a2e9eb0ce3606eb48",
                        "0x0000000000000000000000003e87c05290bede7aae85be2d5836bb0e18b211d4",
                        "0x0000000000000000000000003e87c05290bede7aae85be2d5836bb0e18b211d4"
                    ]
                },
                "nodeType": 1
            },
            "3": {
                "invocation": {
                    "address": "0xcee284f754e854890e311e3280b767f80797180d",
                    "callData": "0x000000000000000000000000a0b86991c6218b36c1d19d4a2e9eb0ce3606eb480000000000000000000000003e87c05290bede7aae85be2d5836bb0e18b211d400000000000000000000000000000000000000000000000000000000b2d05e000000000000000000000000000000000000000000000000000000000000043238000000000000000000000000000000000000000000000000000000000b22bf1a00000000000000000000000000000000000000000000000000000000000000c000000000000000000000000000000000000000000000000000000000000000c00000000000000000000000003e87c05290bede7aae85be2d5836bb0e18b211d40000000000000000000000000000000000000000000000000000000000000040000000000000000000000000000000000000000000000000000000000000006000000000000000000000000000000000000000000000000000000027963e1cf200000000000000000000000000000000000000000000000000000000000000400000000000000000000000000000000000000000000000000000000000000000",
                    "decodedMethod": {
                        "callParams": [
                            {
                                "name": "_token",
                                "type": "address",
                                "value": "0xa0b86991c6218b36c1d19d4a2e9eb0ce3606eb48"
                            },
                            {
                                "name": "_to",
                                "type": "address",
                                "value": "0x3e87c05290bede7aae85be2d5836bb0e18b211d4"
                            },
                            {
                                "name": "_amount",
                                "type": "uint256",
                                "value": "3,000,000,000"
                            },
                            {
                                "name": "_maxGas",
                                "type": "uint256",
                                "value": "275,000"
                            },
                            {
                                "name": "_gasPriceBid",
                                "type": "uint256",
                                "value": "186,826,522"
                            },
                            {
                                "name": "_data",
                                "type": "bytes",
                                "value": "0x0000000000000000000000003e87c05290bede7aae85be2d5836bb0e18b211d40000000000000000000000000000000000000000000000000000000000000040000000000000000000000000000000000000000000000000000000000000006000000000000000000000000000000000000000000000000000000027963e1cf200000000000000000000000000000000000000000000000000000000000000400000000000000000000000000000000000000000000000000000000000000000"
                            }
                        ],
                        "constructorArguments": "",
                        "name": "outboundTransfer",
                        "returnParams": [
                            {
                                "name": "",
                                "type": "bytes",
                                "value": "0x00000000000000000000000000000000000000000000000000000000000b2050"
                            }
                        ],
                        "signature": "outboundTransfer(address,address,uint256,uint256,uint256,bytes)"
                    },
                    "errorInfo": "",
                    "fromAddress": "0x72ce9c846789fdb6fc1f34ac4ad25dd9ef7031ef",
                    "gasUsed": 160309,
                    "id": 3,
                    "methodDecoded": true,
                    "operation": "CALL",
                    "output": "0x0000000000000000000000000000000000000000000000000000000000000020000000000000000000000000000000000000000000000000000000000000002000000000000000000000000000000000000000000000000000000000000b2050",
                    "revert": false,
                    "revertMessage": "",
                    "selector": "0xd2ce7d65",
                    "status": true,
                    "value": "0.000051547317927586"
                },
                "nodeType": 0
            },
            "4": {
                "invocation": {
                    "address": "0xc8d26ab9e132c79140b3376a0ac7932e4680aa45",
                    "callData": "0x000000000000000000000000a0b86991c6218b36c1d19d4a2e9eb0ce3606eb480000000000000000000000003e87c05290bede7aae85be2d5836bb0e18b211d400000000000000000000000000000000000000000000000000000000b2d05e000000000000000000000000000000000000000000000000000000000000043238000000000000000000000000000000000000000000000000000000000b22bf1a00000000000000000000000000000000000000000000000000000000000000c000000000000000000000000000000000000000000000000000000000000000c00000000000000000000000003e87c05290bede7aae85be2d5836bb0e18b211d40000000000000000000000000000000000000000000000000000000000000040000000000000000000000000000000000000000000000000000000000000006000000000000000000000000000000000000000000000000000000027963e1cf200000000000000000000000000000000000000000000000000000000000000400000000000000000000000000000000000000000000000000000000000000000",
                    "decodedMethod": {
                        "callParams": [
                            {
                                "name": "_l1Token",
                                "type": "address",
                                "value": "0xa0b86991c6218b36c1d19d4a2e9eb0ce3606eb48"
                            },
                            {
                                "name": "_to",
                                "type": "address",
                                "value": "0x3e87c05290bede7aae85be2d5836bb0e18b211d4"
                            },
                            {
                                "name": "_amount",
                                "type": "uint256",
                                "value": "3,000,000,000"
                            },
                            {
                                "name": "_maxGas",
                                "type": "uint256",
                                "value": "275,000"
                            },
                            {
                                "name": "_gasPriceBid",
                                "type": "uint256",
                                "value": "186,826,522"
                            },
                            {
                                "name": "_data",
                                "type": "bytes",
                                "value": "0x0000000000000000000000003e87c05290bede7aae85be2d5836bb0e18b211d40000000000000000000000000000000000000000000000000000000000000040000000000000000000000000000000000000000000000000000000000000006000000000000000000000000000000000000000000000000000000027963e1cf200000000000000000000000000000000000000000000000000000000000000400000000000000000000000000000000000000000000000000000000000000000"
                            }
                        ],
                        "constructorArguments": "",
                        "name": "outboundTransfer",
                        "returnParams": [
                            {
                                "name": "res",
                                "type": "bytes",
                                "value": "0x00000000000000000000000000000000000000000000000000000000000b2050"
                            }
                        ],
                        "signature": "outboundTransfer(address,address,uint256,uint256,uint256,bytes)"
                    },
                    "errorInfo": "",
                    "fromAddress": "0xcee284f754e854890e311e3280b767f80797180d",
                    "gasUsed": 152991,
                    "id": 4,
                    "methodDecoded": true,
                    "operation": "DELEGATECALL",
                    "output": "0x0000000000000000000000000000000000000000000000000000000000000020000000000000000000000000000000000000000000000000000000000000002000000000000000000000000000000000000000000000000000000000000b2050",
                    "revert": false,
                    "revertMessage": "",
                    "selector": "0xd2ce7d65",
                    "status": true,
                    "value": "0.000051547317927586"
                },
                "nodeType": 0
            },
            "5": {
                "invocation": {
                    "address": "0xa0b86991c6218b36c1d19d4a2e9eb0ce3606eb48",
                    "callData": "0x000000000000000000000000cee284f754e854890e311e3280b767f80797180d",
                    "decodedMethod": {
                        "callParams": [
                            {
                                "name": "account",
                                "type": "address",
                                "value": "0xcee284f754e854890e311e3280b767f80797180d"
                            }
                        ],
                        "constructorArguments": "",
                        "name": "balanceOf",
                        "returnParams": [
                            {
                                "decimalAvailable": true,
                                "name": "",
                                "type": "uint256",
                                "value": "845,878,437,042,524"
                            }
                        ],
                        "signature": "balanceOf(address)"
                    },
                    "errorInfo": "",
                    "fromAddress": "0xcee284f754e854890e311e3280b767f80797180d",
                    "gasUsed": 9815,
                    "id": 5,
                    "methodDecoded": true,
                    "operation": "STATICCALL",
                    "output": "0x000000000000000000000000000000000000000000000000000301526bc3595c",
                    "revert": false,
                    "revertMessage": "",
                    "selector": "0x70a08231",
                    "status": true,
                    "value": "0"
                },
                "nodeType": 0
            },
            "6": {
                "invocation": {
                    "address": "0xa2327a938febf5fec13bacfb16ae10ecbc4cbdcf",
                    "callData": "0x000000000000000000000000cee284f754e854890e311e3280b767f80797180d",
                    "decodedMethod": {
                        "callParams": [
                            {
                                "name": "account",
                                "type": "address",
                                "value": "0xcee284f754e854890e311e3280b767f80797180d"
                            }
                        ],
                        "constructorArguments": "",
                        "name": "balanceOf",
                        "returnParams": [
                            {
                                "decimalAvailable": true,
                                "name": "",
                                "type": "uint256",
                                "value": "845,878,437,042,524"
                            }
                        ],
                        "signature": "balanceOf(address)"
                    },
                    "errorInfo": "",
                    "fromAddress": "0xa0b86991c6218b36c1d19d4a2e9eb0ce3606eb48",
                    "gasUsed": 2529,
                    "id": 6,
                    "methodDecoded": true,
                    "operation": "DELEGATECALL",
                    "output": "0x000000000000000000000000000000000000000000000000000301526bc3595c",
                    "revert": false,
                    "revertMessage": "",
                    "selector": "0x70a08231",
                    "status": true,
                    "value": "0"
                },
                "nodeType": 0
            },
            "7": {
                "invocation": {
                    "address": "0xa0b86991c6218b36c1d19d4a2e9eb0ce3606eb48",
                    "callData": "0x0000000000000000000000003e87c05290bede7aae85be2d5836bb0e18b211d4000000000000000000000000cee284f754e854890e311e3280b767f80797180d00000000000000000000000000000000000000000000000000000000b2d05e00",
                    "decodedMethod": {
                        "callParams": [
                            {
                                "name": "from",
                                "type": "address",
                                "value": "0x3e87c05290bede7aae85be2d5836bb0e18b211d4"
                            },
                            {
                                "name": "to",
                                "type": "address",
                                "value": "0xcee284f754e854890e311e3280b767f80797180d"
                            },
                            {
                                "decimalAvailable": true,
                                "name": "value",
                                "type": "uint256",
                                "value": "3,000,000,000"
                            }
                        ],
                        "constructorArguments": "",
                        "name": "transferFrom",
                        "returnParams": [
                            {
                                "name": "",
                                "type": "bool",
                                "value": true
                            }
                        ],
                        "signature": "transferFrom(address,address,uint256)"
                    },
                    "errorInfo": "",
                    "fromAddress": "0xcee284f754e854890e311e3280b767f80797180d",
                    "gasUsed": 24392,
                    "id": 7,
                    "methodDecoded": true,
                    "operation": "CALL",
                    "output": "0x0000000000000000000000000000000000000000000000000000000000000001",
                    "revert": false,
                    "revertMessage": "",
                    "selector": "0x23b872dd",
                    "status": true,
                    "value": "0"
                },
                "nodeType": 0
            },
            "8": {
                "invocation": {
                    "address": "0xa2327a938febf5fec13bacfb16ae10ecbc4cbdcf",
                    "callData": "0x0000000000000000000000003e87c05290bede7aae85be2d5836bb0e18b211d4000000000000000000000000cee284f754e854890e311e3280b767f80797180d00000000000000000000000000000000000000000000000000000000b2d05e00",
                    "decodedMethod": {
                        "callParams": [
                            {
                                "name": "from",
                                "type": "address",
                                "value": "0x3e87c05290bede7aae85be2d5836bb0e18b211d4"
                            },
                            {
                                "name": "to",
                                "type": "address",
                                "value": "0xcee284f754e854890e311e3280b767f80797180d"
                            },
                            {
                                "decimalAvailable": true,
                                "name": "value",
                                "type": "uint256",
                                "value": "3,000,000,000"
                            }
                        ],
                        "constructorArguments": "",
                        "name": "transferFrom",
                        "returnParams": [
                            {
                                "name": "",
                                "type": "bool",
                                "value": true
                            }
                        ],
                        "signature": "transferFrom(address,address,uint256)"
                    },
                    "errorInfo": "",
                    "fromAddress": "0xa0b86991c6218b36c1d19d4a2e9eb0ce3606eb48",
                    "gasUsed": 23597,
                    "id": 8,
                    "methodDecoded": true,
                    "operation": "DELEGATECALL",
                    "output": "0x0000000000000000000000000000000000000000000000000000000000000001",
                    "revert": false,
                    "revertMessage": "",
                    "selector": "0x23b872dd",
                    "status": true,
                    "value": "0"
                },
                "nodeType": 0
            },
            "9": {
                "event": {
                    "contract": "0xa0b86991c6218b36c1d19d4a2e9eb0ce3606eb48",
                    "decodedLog": {
                        "name": "Transfer",
                        "params": [
                            {
                                "name": "from",
                                "type": "address",
                                "value": "0x3e87c05290bede7aae85be2d5836bb0e18b211d4"
                            },
                            {
                                "name": "to",
                                "type": "address",
                                "value": "0xcee284f754e854890e311e3280b767f80797180d"
                            },
                            {
                                "decimalAvailable": true,
                                "name": "value",
                                "type": "uint256",
                                "value": "3,000,000,000"
                            }
                        ],
                        "signature": "Transfer(address,address,uint256)"
                    },
                    "id": 9,
                    "logData": "0x00000000000000000000000000000000000000000000000000000000b2d05e00",
                    "logDecoded": true,
                    "operation": "EVENT",
                    "revert": false,
                    "status": true,
                    "topics": [
                        "0xddf252ad1be2c89b69c2b068fc378daa952ba7f163c4a11628f55a4df523b3ef",
                        "0x0000000000000000000000003e87c05290bede7aae85be2d5836bb0e18b211d4",
                        "0x000000000000000000000000cee284f754e854890e311e3280b767f80797180d"
                    ]
                },
                "nodeType": 1
            }
        },
        "gasFlame": [
            {
                "children": [
                    {
                        "children": [
                            {
                                "children": [],
                                "depth": 0,
                                "name": "Initial Gas",
                                "value": 23040
                            },
                            {
                                "children": [
                                    {
                                        "children": [
                                            {
                                                "children": [
                                                    {
                                                        "children": [
                                                            {
                                                                "children": [
                                                                    {
                                                                        "children": [],
                                                                        "depth": 5,
                                                                        "name": "balanceOf",
                                                                        "value": 2529
                                                                    }
                                                                ],
                                                                "depth": 4,
                                                                "name": "balanceOf",
                                                                "value": 9815
                                                            },
                                                            {
                                                                "children": [
                                                                    {
                                                                        "children": [],
                                                                        "depth": 5,
                                                                        "name": "transferFrom",
                                                                        "value": 23597
                                                                    }
                                                                ],
                                                                "depth": 4,
                                                                "name": "transferFrom",
                                                                "value": 24392
                                                            },
                                                            {
                                                                "children": [
                                                                    {
                                                                        "children": [],
                                                                        "depth": 5,
                                                                        "name": "balanceOf",
                                                                        "value": 529
                                                                    }
                                                                ],
                                                                "depth": 4,
                                                                "name": "balanceOf",
                                                                "value": 1315
                                                            },
                                                            {
                                                                "children": [
                                                                    {
                                                                        "children": [
                                                                            {
                                                                                "children": [
                                                                                    {
                                                                                        "children": [],
                                                                                        "depth": 7,
                                                                                        "name": "deliverMessageToInbox",
                                                                                        "value": 35353
                                                                                    }
                                                                                ],
                                                                                "depth": 6,
                                                                                "name": "deliverMessageToInbox",
                                                                                "value": 42605
                                                                            }
                                                                        ],
                                                                        "depth": 5,
                                                                        "name": "createRetryableTicket",
                                                                        "value": 67403
                                                                    }
                                                                ],
                                                                "depth": 4,
                                                                "name": "createRetryableTicket",
                                                                "value": 74757
                                                            }
                                                        ],
                                                        "depth": 3,
                                                        "name": "outboundTransfer",
                                                        "value": 152991
                                                    }
                                                ],
                                                "depth": 2,
                                                "name": "outboundTransfer",
                                                "value": 160309
                                            }
                                        ],
                                        "depth": 1,
                                        "name": "outboundTransfer",
                                        "value": 177164
                                    }
                                ],
                                "depth": 0,
                                "name": "Executed Gas",
                                "value": 184464
                            }
                        ],
                        "depth": -1,
                        "name": "Actual Gas Used",
                        "value": 204704
                    },
                    {
                        "children": [],
                        "depth": -1,
                        "name": "Refunded Gas",
                        "value": 2800
                    }
                ],
                "depth": -2,
                "name": "Total Gas",
                "value": 207504
            }
        ],
        "isConfirmed": true,
        "mainTrace": [
            {
                "children": [
                    {
                        "children": [
                            {
                                "children": [
                                    {
                                        "children": [],
                                        "depth": 2,
                                        "id": 2,
                                        "order": 2
                                    },
                                    {
                                        "children": [
                                            {
                                                "children": [
                                                    {
                                                        "children": [
                                                            {
                                                                "children": [],
                                                                "depth": 5,
                                                                "id": 6,
                                                                "order": 6
                                                            }
                                                        ],
                                                        "depth": 4,
                                                        "id": 5,
                                                        "order": 5
                                                    },
                                                    {
                                                        "children": [
                                                            {
                                                                "children": [
                                                                    {
                                                                        "children": [],
                                                                        "depth": 6,
                                                                        "id": 9,
                                                                        "order": 9
                                                                    }
                                                                ],
                                                                "depth": 5,
                                                                "id": 8,
                                                                "order": 8
                                                            }
                                                        ],
                                                        "depth": 4,
                                                        "id": 7,
                                                        "order": 7
                                                    },
                                                    {
                                                        "children": [
                                                            {
                                                                "children": [],
                                                                "depth": 5,
                                                                "id": 11,
                                                                "order": 11
                                                            }
                                                        ],
                                                        "depth": 4,
                                                        "id": 10,
                                                        "order": 10
                                                    },
                                                    {
                                                        "children": [
                                                            {
                                                                "children": [
                                                                    {
                                                                        "children": [
                                                                            {
                                                                                "children": [
                                                                                    {
                                                                                        "children": [],
                                                                                        "depth": 8,
                                                                                        "id": 16,
                                                                                        "order": 16
                                                                                    }
                                                                                ],
                                                                                "depth": 7,
                                                                                "id": 15,
                                                                                "order": 15
                                                                            }
                                                                        ],
                                                                        "depth": 6,
                                                                        "id": 14,
                                                                        "order": 14
                                                                    },
                                                                    {
                                                                        "children": [],
                                                                        "depth": 6,
                                                                        "id": 17,
                                                                        "order": 17
                                                                    }
                                                                ],
                                                                "depth": 5,
                                                                "id": 13,
                                                                "order": 13
                                                            }
                                                        ],
                                                        "depth": 4,
                                                        "id": 12,
                                                        "order": 12
                                                    },
                                                    {
                                                        "children": [],
                                                        "depth": 4,
                                                        "id": 18,
                                                        "order": 18
                                                    },
                                                    {
                                                        "children": [],
                                                        "depth": 4,
                                                        "id": 19,
                                                        "order": 19
                                                    }
                                                ],
                                                "depth": 3,
                                                "id": 4,
                                                "order": 4
                                            }
                                        ],
                                        "depth": 2,
                                        "id": 3,
                                        "order": 3
                                    }
                                ],
                                "depth": 1,
                                "id": 1,
                                "order": 1
                            }
                        ],
                        "depth": 0,
                        "id": 0,
                        "order": 0
                    }
                ],
                "depth": -1,
                "id": -1,
                "order": -1
            }
        ],
        "mainTraceNodeCount": 20,
        "parentIdMap": {
            "0": -1,
            "1": 0,
            "10": 4,
            "11": 10,
            "12": 4,
            "13": 12,
            "14": 13,
            "15": 14,
            "16": 15,
            "17": 13,
            "18": 4,
            "19": 4,
            "2": 1,
            "3": 1,
            "4": 3,
            "5": 4,
            "6": 5,
            "7": 4,
            "8": 7,
            "9": 8
        },
        "tidyTrace": [
            {
                "children": [
                    {
                        "children": [
                            {
                                "children": [
                                    {
                                        "children": [],
                                        "depth": 2,
                                        "id": 2,
                                        "order": 2
                                    },
                                    {
                                        "children": [
                                            {
                                                "children": [
                                                    {
                                                        "children": [
                                                            {
                                                                "children": [
                                                                    {
                                                                        "children": [],
                                                                        "depth": 6,
                                                                        "id": 9,
                                                                        "order": 9
                                                                    }
                                                                ],
                                                                "depth": 5,
                                                                "id": 8,
                                                                "order": 8
                                                            }
                                                        ],
                                                        "depth": 4,
                                                        "id": 7,
                                                        "order": 7
                                                    },
                                                    {
                                                        "children": [
                                                            {
                                                                "children": [
                                                                    {
                                                                        "children": [
                                                                            {
                                                                                "children": [
                                                                                    {
                                                                                        "children": [],
                                                                                        "depth": 8,
                                                                                        "id": 16,
                                                                                        "order": 16
                                                                                    }
                                                                                ],
                                                                                "depth": 7,
                                                                                "id": 15,
                                                                                "order": 15
                                                                            }
                                                                        ],
                                                                        "depth": 6,
                                                                        "id": 14,
                                                                        "order": 14
                                                                    },
                                                                    {
                                                                        "children": [],
                                                                        "depth": 6,
                                                                        "id": 17,
                                                                        "order": 17
                                                                    }
                                                                ],
                                                                "depth": 5,
                                                                "id": 13,
                                                                "order": 13
                                                            }
                                                        ],
                                                        "depth": 4,
                                                        "id": 12,
                                                        "order": 12
                                                    },
                                                    {
                                                        "children": [],
                                                        "depth": 4,
                                                        "id": 18,
                                                        "order": 18
                                                    },
                                                    {
                                                        "children": [],
                                                        "depth": 4,
                                                        "id": 19,
                                                        "order": 19
                                                    }
                                                ],
                                                "depth": 3,
                                                "id": 4,
                                                "order": 4
                                            }
                                        ],
                                        "depth": 2,
                                        "id": 3,
                                        "order": 3
                                    }
                                ],
                                "depth": 1,
                                "id": 1,
                                "order": 1
                            }
                        ],
                        "depth": 0,
                        "id": 0,
                        "order": 0
                    }
                ],
                "depth": -1,
                "id": -1,
                "order": -1
            }
        ],
        "tidyTraceNodeCount": 16
    },
    "state_change": {
        "stateChanges": [
            {
                "address": "0x011b6e24ffb0b5f5fcc564cf4183c5bbbc96d515",
                "erc": "",
                "slots": [
                    {
                        "current": "0x87ef981b68e437cdec4e3b8eb8fa0ceff714a66c537fd5b983b22d37cc77e085",
                        "key": "0x116fea137db6e131133e7f2bab296045d8f41cc5607279db17b218cab09dbaa1",
                        "prev": "0x0000000000000000000000000000000000000000000000000000000000000000"
                    },
                    {
                        "current": "0x00000000000000000000000000000000000000000000000000000000000b2051",
                        "key": "0x000000000000000000000000000000000000000000000000000000000000006a",
                        "prev": "0x00000000000000000000000000000000000000000000000000000000000b2050"
                    }
                ],
                "storageVariables": [
                    {
                        "name": "inboxAccs",
                        "type": "bytes32[]",
                        "value": {
                            "elemType": "bytes32",
                            "elems": [
                                {
                                    "index": 729168,
                                    "value": {
                                        "current": "0x87ef981b68e437cdec4e3b8eb8fa0ceff714a66c537fd5b983b22d37cc77e085",
                                        "prev": "0x0000000000000000000000000000000000000000000000000000000000000000",
                                        "typeTag": 1
                                    }
                                }
                            ],
                            "typeTag": 2
                        }
                    }
                ]
            },
            {
                "address": "0xa0b86991c6218b36c1d19d4a2e9eb0ce3606eb48",
                "erc": "ERC-20",
                "slots": [
                    {
                        "current": "0x000000000000000000000000000000000000000000000000000301531e93b75c",
                        "key": "0xe662039a65ca5042e7bf9cd555c85673904cb7f77f060e9932ce299a47545319",
                        "prev": "0x000000000000000000000000000000000000000000000000000301526bc3595c"
                    },
                    {
                        "current": "0xffffffffffffffffffffffffffffffffffffffffffffffffffffffff4d2fa1ff",
                        "key": "0xdc535013dc797b2137e6791a98812f1d8479a5739c5c1e533435d64596ef7e0b",
                        "prev": "0xffffffffffffffffffffffffffffffffffffffffffffffffffffffffffffffff"
                    },
                    {
                        "current": "0x0000000000000000000000000000000000000000000000000000000e422b39fa",
                        "key": "0x9c82ac4cbcfa4c36948bfd6d467f60de199e45ef66b8a2eede34f50851043251",
                        "prev": "0x0000000000000000000000000000000000000000000000000000000ef4fb97fa"
                    }
                ],
                "storageVariables": [
                    {
                        "name": "allowed",
                        "type": "mapping(address => mapping(address => uint256))",
                        "value": {
                            "pairs": [
                                {
                                    "key": "0x3e87c05290bede7aae85be2d5836bb0e18b211d4",
                                    "value": {
                                        "pairs": [
                                            {
                                                "key": "0xcee284f754e854890e311e3280b767f80797180d",
                                                "value": {
                                                    "current": "115792089237316195423570985008687907853269984665640564039457584007910129639935",
                                                    "prev": "115792089237316195423570985008687907853269984665640564039457584007913129639935",
                                                    "typeTag": 1
                                                }
                                            }
                                        ],
                                        "typeTag": 4
                                    }
                                }
                            ],
                            "typeTag": 4
                        }
                    },
                    {
                        "name": "balances",
                        "type": "mapping(address => uint256)",
                        "value": {
                            "pairs": [
                                {
                                    "key": "0x3e87c05290bede7aae85be2d5836bb0e18b211d4",
                                    "value": {
                                        "current": "61239671290",
                                        "prev": "64239671290",
                                        "typeTag": 1
                                    }
                                },
                                {
                                    "key": "0xcee284f754e854890e311e3280b767f80797180d",
                                    "value": {
                                        "current": "845881437042524",
                                        "prev": "845878437042524",
                                        "typeTag": 1
                                    }
                                }
                            ],
                            "typeTag": 4
                        }
                    }
                ]
            }
        ]
    }
}