{
    "balance_change": {
        "balanceChanges": []
    },
    "profile": {
        "basic_info": {
            "baseFee": "",
            "blockNumber": 3439902,
            "callData": "0xa9059cbb000000000000000000000000b3c818c909fe211ed6ce1b2c74a91a6089f2972600000000000000000000000000000000000000000000000016f9847a91a8c000",
            "debugEnable": true,
            "errorInfo": "",
            "eventCount": 1,
            "feeRecipient": "0x52bc44d5378309ee2abf1539bf71de1b7d7be3b5",
            "formatValue": "0",
            "gasLimit": 165000,
            "gasPrice": "20",
            "gasUsed": 37358,
            "intTxnCount": 0,
            "internalRevert": false,
            "internalRevertMessage": "",
            "isContractCreation": false,
            "isFlashloan": false,
            "maxFee": "",
            "nonce": 417098,
            "overwritedBlockNumber": -1,
            "priorityFee": "",
            "receiver": "0x37a9679c41e99db270bda88de8ff50c0cd23f326",
            "revertMessage": "",
            "sender": "0x9e0b9ddba97dd4f7addab0b5f67036eebe687606",
            "simulationEnable": true,
            "sourceTxnHash": "0x260fcd730d534f604be9b8043fb1fd939e98b9ec2a7e931a16d980d688498109",
            "status": true,
            "timestamp": "2017-03-29T12:59:33Z",
            "transactionFee": "0.00074716",
            "txnHash": "0x260fcd730d534f604be9b8043fb1fd939e98b9ec2a7e931a16d980d688498109",
            "txnIndex": 0,
            "type": 0,
            "value": "0"
        },
        "fund_flow": [],
        "token_infos": [
            {
                "address": "0xc02aaa39b223fe8d0a0e5c4f27ead9083c756cc2",
                "decimals": 18
            },
            {
                "address": "0xeeeeeeeeeeeeeeeeeeeeeeeeeeeeeeeeeeeeeeee",
                "decimals": 18
            }
        ]
    },
    "address_label": {
        "labels": [
            {
                "address": "0x37a9679c41e99db270bda88de8ff50c0cd23f326",
                "label": "YoCoin"
            },
            {
                "address": "0x0000000000000000000000000000000000000001",
                "label": "Precompiled"
            },
            {
                "address": "0x0000000000000000000000000000000000000002",
                "label": "Precompiled"
            },
            {
                "address": "0x0000000000000000000000000000000000000003",
                "label": "Precompiled"
            },
            {
                "address": "0x0000000000000000000000000000000000000004",
                "label": "Precompiled"
            },
            {
                "address": "0xeeeeeeeeeeeeeeeeeeeeeeeeeeeeeeeeeeeeeeee",
                "label": "Ether"
            }
        ]
    },
    "trace": {
        "accountLabels": null,
        "dataMap": {
            "-1": {
                "invocation": {
                    "address": "0x9e0b9ddba97dd4f7addab0b5f67036eebe687606",
                    "callData": "",
                    "decodedMethod": null,
                    "errorInfo": "",
                    "fromAddress": "",
                    "gasUsed": 0,
                    "id": -1,
                    "methodDecoded": false,
                    "operation": "",
                    "output": "",
                    "revert": false,
                    "revertMessage": "",
                    "selector": "",
                    "status": false,
                    "value": ""
                },
                "nodeType": 0
            },
            "0": {
                "invocation": {
                    "address": "0x37a9679c41e99db270bda88de8ff50c0cd23f326",
                    "callData": "0x000000000000000000000000b3c818c909fe211ed6ce1b2c74a91a6089f2972600000000000000000000000000000000000000000000000016f9847a91a8c000",
                    "decodedMethod": {
                        "callParams": [
                            {
                                "name": "_to",
                                "type": "address",
                                "value": "0xb3c818c909fe211ed6ce1b2c74a91a6089f29726"
                            },
                            {
                                "decimalAvailable": true,
                                "name": "_value",
                                "type": "uint256",
                                "value": "1,655,500,000,000,000,000"
                            }
                        ],
                        "constructorArguments": "",
                        "name": "transfer",
                        "returnParams": [],
                        "signature": "transfer(address,uint256)"
                    },
                    "errorInfo": "",
                    "fromAddress": "0x9e0b9ddba97dd4f7addab0b5f67036eebe687606",
                    "gasUsed": 37358,
                    "id": 0,
                    "methodDecoded": true,
                    "operation": "CALL",
                    "output": "",
                    "revert": false,
                    "revertMessage": "",
                    "selector": "0xa9059cbb",
                    "status": true,
                    "value": "0"
                },
                "nodeType": 0
            },
            "1": {
                "event": {
                    "contract": "0x37a9679c41e99db270bda88de8ff50c0cd23f326",
                    "decodedLog": {
                        "name": "Transfer",
                        "params": [
                            {
                                "name": "from",
                                "type": "address",
                                "value": "0x9e0b9ddba97dd4f7addab0b5f67036eebe687606"
                            },
                            {
                                "name": "to",
                                "type": "address",
                                "value": "0xb3c818c909fe211ed6ce1b2c74a91a6089f29726"
                            },
                            {
                                "name": "value",
                                "type": "int256",
                                "value": "1,655,500,000,000,000,000"
                            }
                        ],
                        "signature": "Transfer(address,address,int256)"
                    },
                    "id": 1,
                    "logData": "0x00000000000000000000000000000000000000000000000016f9847a91a8c000",
                    "logDecoded": true,
                    "operation": "EVENT",
                    "revert": false,
                    "status": true,
                    "topics": [
                        "0x8b0c34a52f9e28d78caaa7066cd047b398dae74941a208b77777420f492bd7e1",
                        "0x0000000000000000000000009e0b9ddba97dd4f7addab0b5f67036eebe687606",
                        "0x000000000000000000000000b3c818c909fe211ed6ce1b2c74a91a6089f29726"
                    ]
                },
                "nodeType": 1
            }
        },
        "gasFlame": [
            {
                "children": [
                    {
                        "children": [
                            {
                                "children": [],
                                "depth": 0,
                                "name": "Initial Gas",
                                "value": 23256
                            },
                            {
                                "children": [],
                                "depth": 0,
                                "name": "Executed Gas",
                                "value": 14102
                            }
                        ],
                        "depth": -1,
                        "name": "Actual Gas Used",
                        "value": 37358
                    },
                    {
                        "children": [],
                        "depth": -1,
                        "name": "Refunded Gas",
                        "value": 0
                    }
                ],
                "depth": -2,
                "name": "Total Gas",
                "value": 37358
            }
        ],
        "isConfirmed": true,
        "mainTrace": [
            {
                "children": [
                    {
                        "children": [
                            {
                                "children": [],
                                "depth": 1,
                                "id": 1,
                                "order": 1
                            }
                        ],
                        "depth": 0,
                        "id": 0,
                        "order": 0
                    }
                ],
                "depth": -1,
                "id": -1,
                "order": -1
            }
        ],
        "mainTraceNodeCount": 2,
        "parentIdMap": {
            "0": -1,
            "1": 0
        },
        "tidyTrace": [
            {
                "children": [
                    {
                        "children": [
                            {
                                "children": [],
                                "depth": 1,
                                "id": 1,
                                "order": 1
                            }
                        ],
                        "depth": 0,
                        "id": 0,
                        "order": 0
                    }
                ],
                "depth": -1,
                "id": -1,
                "order": -1
            }
        ],
        "tidyTraceNodeCount": 2
    },
    "state_change": {
        "stateChanges": [
            {
                "address": "0x37a9679c41e99db270bda88de8ff50c0cd23f326",
                "erc": "",
                "slots": [
                    {
                        "current": "0x000000000000000000000000000000000000000000000aec9b138b74b9d0ea00",
                        "key": "0xde9e05d799821d025edb97284e7d7b6d2ce368ed5f0071af3b56e75c418aadd4",
                        "prev": "0x000000000000000000000000000000000000000000000aecb20d0fef4b79aa00"
                    },
                    {
                        "current": "0x0000000000000000000000000000000000000000000000002f0d79c94ef64000",
                        "key": "0x80824591f62c016fbe70a36744f9ec330797a7f0d7fc3de5968b08625a46f621",
                        "prev": "0x0000000000000000000000000000000000000000000000001813f54ebd4d8000"
                    }
                ],
                "storageVariables": []
            }
        ]
    }
}