{
    "balance_change": {
        "balanceChanges": [
            {
                "account": "0x40e6d35d1e551af00bc93c944c1ec3b9ec9cdb0f",
                "assets": [
                    {
                        "address": "0x50bc2ecc0bfdf5666640048038c1aba7b7525683",
                        "amount": "57,237.51",
                        "iconUrl": "https://assets.blocksec.com/icon/76690abfc83994bc1ebe8e4ab3cd774273bf1e0074756d9ec58c937d2505adc7.png",
                        "isERC1155": false,
                        "isERC721": false,
                        "sign": false,
                        "value": "31.16125201"
                    }
                ]
            },
            {
                "account": "0xa1d8d972560c2f8144af871db508f0b0b10a3fbf",
                "assets": [
                    {
                        "address": "0x50bc2ecc0bfdf5666640048038c1aba7b7525683",
                        "amount": "57,237.51",
                        "iconUrl": "https://assets.blocksec.com/icon/76690abfc83994bc1ebe8e4ab3cd774273bf1e0074756d9ec58c937d2505adc7.png",
                        "isERC1155": false,
                        "isERC721": false,
                        "sign": true,
                        "value": "31.16125201"
                    }
                ]
            }
        ]
    },
    "profile": {
        "basic_info": {
            "baseFee": "",
            "blockNumber": 12728605,
            "callData": "0xa9059cbb000000000000000000000000a1d8d972560c2f8144af871db508f0b0b10a3fbf000000000000000000000000000000000000000000000c1eda04b7accca70000",
            "debugEnable": true,
            "errorInfo": "",
            "eventCount": 1,
            "feeRecipient": "0x5a0b54d5dc17e0aadc383d2db43b0a0d3e029c4c",
            "formatValue": "0",
            "gasLimit": 101696,
            "gasPrice": "22",
            "gasUsed": 19464,
            "intTxnCount": 0,
            "internalRevert": false,
            "internalRevertMessage": "",
            "isContractCreation": false,
            "isFlashloan": false,
            "maxFee": "",
            "nonce": 0,
            "overwritedBlockNumber": -1,
            "priorityFee": "",
            "receiver": "0x50bc2ecc0bfdf5666640048038c1aba7b7525683",
            "revertMessage": "",
            "sender": "0x40e6d35d1e551af00bc93c944c1ec3b9ec9cdb0f",
            "simulationEnable": true,
            "sourceTxnHash": "0x26f8aca2e3f914eeef1052418c29fad3e55ae33d8a1a72e61f1b097c0bdeb7c0",
            "status": true,
            "timestamp": "2021-06-29T11:06:50Z",
            "transactionFee": "0.000428208",
            "txnHash": "0x26f8aca2e3f914eeef1052418c29fad3e55ae33d8a1a72e61f1b097c0bdeb7c0",
            "txnIndex": 22,
            "type": 0,
            "value": "0"
        },
        "fund_flow": [
            {
                "amount": "57,237.51",
                "from": "0x40e6d35d1e551af00bc93c944c1ec3b9ec9cdb0f",
                "id": 1,
                "isERC1155": false,
                "isERC721": false,
                "isReverted": false,
                "order": 1,
                "to": "0xa1d8d972560c2f8144af871db508f0b0b10a3fbf",
                "token": "0x50bc2ecc0bfdf5666640048038c1aba7b7525683"
            }
        ],
        "token_infos": [
            {
                "address": "0xeeeeeeeeeeeeeeeeeeeeeeeeeeeeeeeeeeeeeeee",
                "decimals": 18
            },
            {
                "address": "0x50bc2ecc0bfdf5666640048038c1aba7b7525683",
                "decimals": 18
            },
            {
                "address": "0xc02aaa39b223fe8d0a0e5c4f27ead9083c756cc2",
                "decimals": 18
            }
        ]
    },
    "address_label": {
        "labels": [
            {
                "address": "0x0000000000000000000000000000000000000001",
                "label": "Precompiled"
            },
            {
                "address": "0x0000000000000000000000000000000000000002",
                "label": "Precompiled"
            },
            {
                "address": "0x0000000000000000000000000000000000000003",
                "label": "Precompiled"
            },
            {
                "address": "0x0000000000000000000000000000000000000004",
                "label": "Precompiled"
            },
            {
                "address": "0xeeeeeeeeeeeeeeeeeeeeeeeeeeeeeeeeeeeeeeee",
                "label": "Ether"
            },
            {
                "address": "0xa1d8d972560c2f8144af871db508f0b0b10a3fbf",
                "label": "KuCoin 3"
            },
            {
                "address": "0x50bc2ecc0bfdf5666640048038c1aba7b7525683",
                "label": "carVertical: cV Token"
            },
            {
                "address": "0x40e6d35d1e551af00bc93c944c1ec3b9ec9cdb0f",
                "label": "KUCOIN"
            }
        ]
    },
    "trace": {
        "accountLabels": null,
        "dataMap": {
            "-1": {
                "invocation": {
                    "address": "0x40e6d35d1e551af00bc93c944c1ec3b9ec9cdb0f",
                    "callData": "",
                    "decodedMethod": null,
                    "errorInfo": "",
                    "fromAddress": "",
                    "gasUsed": 0,
                    "id": -1,
                    "methodDecoded": false,
                    "operation": "",
                    "output": "",
                    "revert": false,
                    "revertMessage": "",
                    "selector": "",
                    "status": false,
                    "value": ""
                },
                "nodeType": 0
            },
            "0": {
                "invocation": {
                    "address": "0x50bc2ecc0bfdf5666640048038c1aba7b7525683",
                    "callData": "0x000000000000000000000000a1d8d972560c2f8144af871db508f0b0b10a3fbf000000000000000000000000000000000000000000000c1eda04b7accca70000",
                    "decodedMethod": {
                        "callParams": [
                            {
                                "name": "recipient",
                                "type": "address",
                                "value": "0xa1d8d972560c2f8144af871db508f0b0b10a3fbf"
                            },
                            {
                                "decimalAvailable": true,
                                "name": "amount",
                                "type": "uint256",
                                "value": "57,237,510,000,000,000,000,000"
                            }
                        ],
                        "constructorArguments": "",
                        "name": "transfer",
                        "returnParams": [
                            {
                                "name": "",
                                "type": "bool",
                                "value": true
                            }
                        ],
                        "signature": "transfer(address,uint256)"
                    },
                    "errorInfo": "",
                    "fromAddress": "0x40e6d35d1e551af00bc93c944c1ec3b9ec9cdb0f",
                    "gasUsed": 19464,
                    "id": 0,
                    "methodDecoded": true,
                    "operation": "CALL",
                    "output": "0x0000000000000000000000000000000000000000000000000000000000000001",
                    "revert": false,
                    "revertMessage": "",
                    "selector": "0xa9059cbb",
                    "status": true,
                    "value": "0"
                },
                "nodeType": 0
            },
            "1": {
                "event": {
                    "contract": "0x50bc2ecc0bfdf5666640048038c1aba7b7525683",
                    "decodedLog": {
                        "name": "Transfer",
                        "params": [
                            {
                                "name": "from",
                                "type": "address",
                                "value": "0x40e6d35d1e551af00bc93c944c1ec3b9ec9cdb0f"
                            },
                            {
                                "name": "to",
                                "type": "address",
                                "value": "0xa1d8d972560c2f8144af871db508f0b0b10a3fbf"
                            },
                            {
                                "decimalAvailable": true,
                                "name": "value",
                                "type": "uint256",
                                "value": "57,237,510,000,000,000,000,000"
                            }
                        ],
                        "signature": "Transfer(address,address,uint256)"
                    },
                    "id": 1,
                    "logData": "0x000000000000000000000000000000000000000000000c1eda04b7accca70000",
                    "logDecoded": true,
                    "operation": "EVENT",
                    "revert": false,
                    "status": true,
                    "topics": [
                        "0xddf252ad1be2c89b69c2b068fc378daa952ba7f163c4a11628f55a4df523b3ef",
                        "0x00000000000000000000000040e6d35d1e551af00bc93c944c1ec3b9ec9cdb0f",
                        "0x000000000000000000000000a1d8d972560c2f8144af871db508f0b0b10a3fbf"
                    ]
                },
                "nodeType": 1
            }
        },
        "gasFlame": [
            {
                "children": [
                    {
                        "children": [
                            {
                                "children": [],
                                "depth": 0,
                                "name": "Initial Gas",
                                "value": 21656
                            },
                            {
                                "children": [],
                                "depth": 0,
                                "name": "Executed Gas",
                                "value": 12808
                            }
                        ],
                        "depth": -1,
                        "name": "Actual Gas Used",
                        "value": 19464
                    },
                    {
                        "children": [],
                        "depth": -1,
                        "name": "Refunded Gas",
                        "value": 15000
                    }
                ],
                "depth": -2,
                "name": "Total Gas",
                "value": 34464
            }
        ],
        "isConfirmed": true,
        "mainTrace": [
            {
                "children": [
                    {
                        "children": [
                            {
                                "children": [],
                                "depth": 1,
                                "id": 1,
                                "order": 1
                            }
                        ],
                        "depth": 0,
                        "id": 0,
                        "order": 0
                    }
                ],
                "depth": -1,
                "id": -1,
                "order": -1
            }
        ],
        "mainTraceNodeCount": 2,
        "parentIdMap": {
            "0": -1,
            "1": 0
        },
        "tidyTrace": [
            {
                "children": [
                    {
                        "children": [
                            {
                                "children": [],
                                "depth": 1,
                                "id": 1,
                                "order": 1
                            }
                        ],
                        "depth": 0,
                        "id": 0,
                        "order": 0
                    }
                ],
                "depth": -1,
                "id": -1,
                "order": -1
            }
        ],
        "tidyTraceNodeCount": 2
    },
    "state_change": {
        "stateChanges": [
            {
                "address": "0x50bc2ecc0bfdf5666640048038c1aba7b7525683",
                "erc": "ERC-20",
                "slots": [
                    {
                        "current": "0x0000000000000000000000000000000000000000000000000000000000000000",
                        "key": "0xf4634c795448eea4d40108ebc92d24f09b2b3341e7c8e25b27cef3fb6ce00624",
                        "prev": "0x000000000000000000000000000000000000000000000c1eda04b7accca70000"
                    },
                    {
                        "current": "0x000000000000000000000000000000000000000002356fc43a51e90b7274c71e",
                        "key": "0xafc5f481f14d1eb83fe7f19a09740d72f8952faf1081bc7638153606ddef18cd",
                        "prev": "0x0000000000000000000000000000000000000000023563a5604d315ea5cdc71e"
                    }
                ],
                "storageVariables": [
                    {
                        "name": "_balances",
                        "type": "mapping(address => uint256)",
                        "value": {
                            "pairs": [
                                {
                                    "key": "0x40e6d35d1e551af00bc93c944c1ec3b9ec9cdb0f",
                                    "value": {
                                        "current": "0",
                                        "prev": "57237510000000000000000",
                                        "typeTag": 1
                                    }
                                },
                                {
                                    "key": "0xa1d8d972560c2f8144af871db508f0b0b10a3fbf",
                                    "value": {
                                        "current": "683570890526098624087377694",
                                        "prev": "683513653016098624087377694",
                                        "typeTag": 1
                                    }
                                }
                            ],
                            "typeTag": 4
                        }
                    }
                ]
            }
        ]
    }
}