{
    "balance_change": {
        "balanceChanges": [
            {
                "account": "0xf33fe08604b009f55a7b898ee9b8d19688b0ac25",
                "assets": [
                    {
                        "address": "0x589891a198195061cb8ad1a75357a3b7dbadd7bc",
                        "amount": "995",
                        "iconUrl": "",
                        "isERC1155": false,
                        "isERC721": false,
                        "sign": false,
                        "value": ""
                    }
                ]
            },
            {
                "account": "0x87e3e99fef65ee68372dac412e234c3cba2d77f8",
                "assets": [
                    {
                        "address": "0x589891a198195061cb8ad1a75357a3b7dbadd7bc",
                        "amount": "995",
                        "iconUrl": "",
                        "isERC1155": false,
                        "isERC721": false,
                        "sign": true,
                        "value": ""
                    }
                ]
            }
        ]
    },
    "profile": {
        "basic_info": {
            "baseFee": "",
            "blockNumber": 7721044,
            "callData": "0xa9059cbb00000000000000000000000087e3e99fef65ee68372dac412e234c3cba2d77f8000000000000000000000000000000000000000000000035f0661c4399ac0000",
            "debugEnable": true,
            "errorInfo": "",
            "eventCount": 1,
            "feeRecipient": "0x52bc44d5378309ee2abf1539bf71de1b7d7be3b5",
            "formatValue": "0",
            "gasLimit": 151754,
            "gasPrice": "4.1",
            "gasUsed": 39336,
            "intTxnCount": 0,
            "internalRevert": false,
            "internalRevertMessage": "",
            "isContractCreation": false,
            "isFlashloan": false,
            "maxFee": "",
            "nonce": 27635,
            "overwritedBlockNumber": -1,
            "priorityFee": "",
            "receiver": "0x589891a198195061cb8ad1a75357a3b7dbadd7bc",
            "revertMessage": "",
            "sender": "0xf33fe08604b009f55a7b898ee9b8d19688b0ac25",
            "simulationEnable": true,
            "sourceTxnHash": "0x272f01ed7cabe356df84815601f5def044f5b60ce5113386d81018a5735eccba",
            "status": true,
            "timestamp": "2019-05-08T16:16:12Z",
            "transactionFee": "0.0001612776",
            "txnHash": "0x272f01ed7cabe356df84815601f5def044f5b60ce5113386d81018a5735eccba",
            "txnIndex": 20,
            "type": 0,
            "value": "0"
        },
        "fund_flow": [
            {
                "amount": "995",
                "from": "0xf33fe08604b009f55a7b898ee9b8d19688b0ac25",
                "id": 1,
                "isERC1155": false,
                "isERC721": false,
                "isReverted": false,
                "order": 1,
                "to": "0x87e3e99fef65ee68372dac412e234c3cba2d77f8",
                "token": "0x589891a198195061cb8ad1a75357a3b7dbadd7bc"
            }
        ],
        "token_infos": [
            {
                "address": "0xc02aaa39b223fe8d0a0e5c4f27ead9083c756cc2",
                "decimals": 18
            },
            {
                "address": "0xeeeeeeeeeeeeeeeeeeeeeeeeeeeeeeeeeeeeeeee",
                "decimals": 18
            },
            {
                "address": "0x589891a198195061cb8ad1a75357a3b7dbadd7bc",
                "decimals": 18
            }
        ]
    },
    "address_label": {
        "labels": [
            {
                "address": "0x589891a198195061cb8ad1a75357a3b7dbadd7bc",
                "label": "Contentos: COS Token"
            },
            {
                "address": "0x0000000000000000000000000000000000000001",
                "label": "Precompiled"
            },
            {
                "address": "0x0000000000000000000000000000000000000002",
                "label": "Precompiled"
            },
            {
                "address": "0x0000000000000000000000000000000000000003",
                "label": "Precompiled"
            },
            {
                "address": "0x0000000000000000000000000000000000000004",
                "label": "Precompiled"
            },
            {
                "address": "0xeeeeeeeeeeeeeeeeeeeeeeeeeeeeeeeeeeeeeeee",
                "label": "Ether"
            }
        ]
    },
    "trace": {
        "accountLabels": null,
        "dataMap": {
            "-1": {
                "invocation": {
                    "address": "0xf33fe08604b009f55a7b898ee9b8d19688b0ac25",
                    "callData": "",
                    "decodedMethod": null,
                    "errorInfo": "",
                    "fromAddress": "",
                    "gasUsed": 0,
                    "id": -1,
                    "methodDecoded": false,
                    "operation": "",
                    "output": "",
                    "revert": false,
                    "revertMessage": "",
                    "selector": "",
                    "status": false,
                    "value": ""
                },
                "nodeType": 0
            },
            "0": {
                "invocation": {
                    "address": "0x589891a198195061cb8ad1a75357a3b7dbadd7bc",
                    "callData": "0x00000000000000000000000087e3e99fef65ee68372dac412e234c3cba2d77f8000000000000000000000000000000000000000000000035f0661c4399ac0000",
                    "decodedMethod": {
                        "callParams": [
                            {
                                "name": "_to",
                                "type": "address",
                                "value": "0x87e3e99fef65ee68372dac412e234c3cba2d77f8"
                            },
                            {
                                "decimalAvailable": true,
                                "name": "_value",
                                "type": "uint256",
                                "value": "995,000,000,000,000,000,000"
                            }
                        ],
                        "constructorArguments": "",
                        "name": "transfer",
                        "returnParams": [
                            {
                                "name": "",
                                "type": "bool",
                                "value": true
                            }
                        ],
                        "signature": "transfer(address,uint256)"
                    },
                    "errorInfo": "",
                    "fromAddress": "0xf33fe08604b009f55a7b898ee9b8d19688b0ac25",
                    "gasUsed": 39336,
                    "id": 0,
                    "methodDecoded": true,
                    "operation": "CALL",
                    "output": "0x0000000000000000000000000000000000000000000000000000000000000001",
                    "revert": false,
                    "revertMessage": "",
                    "selector": "0xa9059cbb",
                    "status": true,
                    "value": "0"
                },
                "nodeType": 0
            },
            "1": {
                "event": {
                    "contract": "0x589891a198195061cb8ad1a75357a3b7dbadd7bc",
                    "decodedLog": {
                        "name": "Transfer",
                        "params": [
                            {
                                "name": "_from",
                                "type": "address",
                                "value": "0xf33fe08604b009f55a7b898ee9b8d19688b0ac25"
                            },
                            {
                                "name": "_to",
                                "type": "address",
                                "value": "0x87e3e99fef65ee68372dac412e234c3cba2d77f8"
                            },
                            {
                                "decimalAvailable": true,
                                "name": "_value",
                                "type": "uint256",
                                "value": "995,000,000,000,000,000,000"
                            }
                        ],
                        "signature": "Transfer(address,address,uint256)"
                    },
                    "id": 1,
                    "logData": "0x000000000000000000000000000000000000000000000035f0661c4399ac0000",
                    "logDecoded": true,
                    "operation": "EVENT",
                    "revert": false,
                    "status": true,
                    "topics": [
                        "0xddf252ad1be2c89b69c2b068fc378daa952ba7f163c4a11628f55a4df523b3ef",
                        "0x000000000000000000000000f33fe08604b009f55a7b898ee9b8d19688b0ac25",
                        "0x00000000000000000000000087e3e99fef65ee68372dac412e234c3cba2d77f8"
                    ]
                },
                "nodeType": 1
            }
        },
        "gasFlame": [
            {
                "children": [
                    {
                        "children": [
                            {
                                "children": [],
                                "depth": 0,
                                "name": "Initial Gas",
                                "value": 23256
                            },
                            {
                                "children": [],
                                "depth": 0,
                                "name": "Executed Gas",
                                "value": 16080
                            }
                        ],
                        "depth": -1,
                        "name": "Actual Gas Used",
                        "value": 39336
                    },
                    {
                        "children": [],
                        "depth": -1,
                        "name": "Refunded Gas",
                        "value": 0
                    }
                ],
                "depth": -2,
                "name": "Total Gas",
                "value": 39336
            }
        ],
        "isConfirmed": true,
        "mainTrace": [
            {
                "children": [
                    {
                        "children": [
                            {
                                "children": [],
                                "depth": 1,
                                "id": 1,
                                "order": 1
                            }
                        ],
                        "depth": 0,
                        "id": 0,
                        "order": 0
                    }
                ],
                "depth": -1,
                "id": -1,
                "order": -1
            }
        ],
        "mainTraceNodeCount": 2,
        "parentIdMap": {
            "0": -1,
            "1": 0
        },
        "tidyTrace": [
            {
                "children": [
                    {
                        "children": [
                            {
                                "children": [],
                                "depth": 1,
                                "id": 1,
                                "order": 1
                            }
                        ],
                        "depth": 0,
                        "id": 0,
                        "order": 0
                    }
                ],
                "depth": -1,
                "id": -1,
                "order": -1
            }
        ],
        "tidyTraceNodeCount": 2
    },
    "state_change": {
        "stateChanges": [
            {
                "address": "0x589891a198195061cb8ad1a75357a3b7dbadd7bc",
                "erc": "ERC-20",
                "slots": [
                    {
                        "current": "0x0000000000000000000000000000000000000000000013197b124268c56c0000",
                        "key": "0x33599fa29d9174d397a6b914a24995cd6ed596789ab5ecd6257bc7438b19c96f",
                        "prev": "0x00000000000000000000000000000000000000000000134f6b785eac5f180000"
                    },
                    {
                        "current": "0x000000000000000000000000000000000000000000000050e8992a6566820000",
                        "key": "0xabbc57efa4df1425c015f04db391241e83f317b5697782ae7aaf74fe7ad5c5a5",
                        "prev": "0x00000000000000000000000000000000000000000000001af8330e21ccd60000"
                    }
                ],
                "storageVariables": [
                    {
                        "name": "balances",
                        "type": "mapping(address => uint256)",
                        "value": {
                            "pairs": [
                                {
                                    "key": "0x87e3e99fef65ee68372dac412e234c3cba2d77f8",
                                    "value": {
                                        "current": "1492500000000000000000",
                                        "prev": "497500000000000000000",
                                        "typeTag": 1
                                    }
                                },
                                {
                                    "key": "0xf33fe08604b009f55a7b898ee9b8d19688b0ac25",
                                    "value": {
                                        "current": "90195000000000000000000",
                                        "prev": "91190000000000000000000",
                                        "typeTag": 1
                                    }
                                }
                            ],
                            "typeTag": 4
                        }
                    }
                ]
            }
        ]
    }
}