{
    "balance_change": {
        "balanceChanges": [
            {
                "account": "0xfdb16996831753d5331ff813c29a93c76834a0ad",
                "assets": [
                    {
                        "address": "0xb37a769b37224449d92aac57de379e1267cd3b00",
                        "amount": "1,012,221.07986",
                        "iconUrl": "https://assets.blocksec.com/icon/da044af4999e6eb46a9913f16f2712f8e92416b047768fee2eb69260e248f4c5.png",
                        "isERC1155": false,
                        "isERC721": false,
                        "sign": false,
                        "value": ""
                    }
                ]
            },
            {
                "account": "0x7500d6ea6f829f060b789702000e22a294a290c2",
                "assets": [
                    {
                        "address": "0xb37a769b37224449d92aac57de379e1267cd3b00",
                        "amount": "1,012,221.07986",
                        "iconUrl": "https://assets.blocksec.com/icon/da044af4999e6eb46a9913f16f2712f8e92416b047768fee2eb69260e248f4c5.png",
                        "isERC1155": false,
                        "isERC721": false,
                        "sign": true,
                        "value": ""
                    }
                ]
            }
        ]
    },
    "profile": {
        "basic_info": {
            "baseFee": "",
            "blockNumber": 9837697,
            "callData": "0xa9059cbb0000000000000000000000007500d6ea6f829f060b789702000e22a294a290c200000000000000000000000000000000000000000000d6589d5c638ac5974000",
            "debugEnable": true,
            "errorInfo": "",
            "eventCount": 1,
            "feeRecipient": "0x5a0b54d5dc17e0aadc383d2db43b0a0d3e029c4c",
            "formatValue": "0",
            "gasLimit": 140000,
            "gasPrice": "51",
            "gasUsed": 52137,
            "intTxnCount": 0,
            "internalRevert": false,
            "internalRevertMessage": "",
            "isContractCreation": false,
            "isFlashloan": false,
            "maxFee": "",
            "nonce": 536510,
            "overwritedBlockNumber": -1,
            "priorityFee": "",
            "receiver": "0xb37a769b37224449d92aac57de379e1267cd3b00",
            "revertMessage": "",
            "sender": "0xfdb16996831753d5331ff813c29a93c76834a0ad",
            "simulationEnable": true,
            "sourceTxnHash": "0x274ba0e18aa1460337e6998197ce8a0a6b91756cce9df32b31745f355ce10632",
            "status": true,
            "timestamp": "2020-04-09T11:15:29Z",
            "transactionFee": "0.002658987",
            "txnHash": "0x274ba0e18aa1460337e6998197ce8a0a6b91756cce9df32b31745f355ce10632",
            "txnIndex": 16,
            "type": 0,
            "value": "0"
        },
        "fund_flow": [
            {
                "amount": "1,012,221.07986",
                "from": "0xfdb16996831753d5331ff813c29a93c76834a0ad",
                "id": 1,
                "isERC1155": false,
                "isERC721": false,
                "isReverted": false,
                "order": 1,
                "to": "0x7500d6ea6f829f060b789702000e22a294a290c2",
                "token": "0xb37a769b37224449d92aac57de379e1267cd3b00"
            }
        ],
        "token_infos": [
            {
                "address": "0xb37a769b37224449d92aac57de379e1267cd3b00",
                "decimals": 18
            },
            {
                "address": "0xc02aaa39b223fe8d0a0e5c4f27ead9083c756cc2",
                "decimals": 18
            },
            {
                "address": "0xeeeeeeeeeeeeeeeeeeeeeeeeeeeeeeeeeeeeeeee",
                "decimals": 18
            }
        ]
    },
    "address_label": {
        "labels": [
            {
                "address": "0x0000000000000000000000000000000000000001",
                "label": "Precompiled"
            },
            {
                "address": "0x0000000000000000000000000000000000000002",
                "label": "Precompiled"
            },
            {
                "address": "0x0000000000000000000000000000000000000003",
                "label": "Precompiled"
            },
            {
                "address": "0x0000000000000000000000000000000000000004",
                "label": "Precompiled"
            },
            {
                "address": "0xeeeeeeeeeeeeeeeeeeeeeeeeeeeeeeeeeeeeeeee",
                "label": "Ether"
            },
            {
                "address": "0x7500d6ea6f829f060b789702000e22a294a290c2",
                "label": "ASCENDEX"
            },
            {
                "address": "0xb37a769b37224449d92aac57de379e1267cd3b00",
                "label": "COVA Unity: COVA Token"
            },
            {
                "address": "0xfdb16996831753d5331ff813c29a93c76834a0ad",
                "label": "HTX 3"
            }
        ]
    },
    "trace": {
        "accountLabels": null,
        "dataMap": {
            "-1": {
                "invocation": {
                    "address": "0xfdb16996831753d5331ff813c29a93c76834a0ad",
                    "callData": "",
                    "decodedMethod": null,
                    "errorInfo": "",
                    "fromAddress": "",
                    "gasUsed": 0,
                    "id": -1,
                    "methodDecoded": false,
                    "operation": "",
                    "output": "",
                    "revert": false,
                    "revertMessage": "",
                    "selector": "",
                    "status": false,
                    "value": ""
                },
                "nodeType": 0
            },
            "0": {
                "invocation": {
                    "address": "0xb37a769b37224449d92aac57de379e1267cd3b00",
                    "callData": "0x0000000000000000000000007500d6ea6f829f060b789702000e22a294a290c200000000000000000000000000000000000000000000d6589d5c638ac5974000",
                    "decodedMethod": {
                        "callParams": [
                            {
                                "name": "_to",
                                "type": "address",
                                "value": "0x7500d6ea6f829f060b789702000e22a294a290c2"
                            },
                            {
                                "decimalAvailable": true,
                                "name": "_value",
                                "type": "uint256",
                                "value": "1,012,221,079,860,000,000,000,000"
                            }
                        ],
                        "constructorArguments": "",
                        "name": "transfer",
                        "returnParams": [
                            {
                                "name": "",
                                "type": "bool",
                                "value": true
                            }
                        ],
                        "signature": "transfer(address,uint256)"
                    },
                    "errorInfo": "",
                    "fromAddress": "0xfdb16996831753d5331ff813c29a93c76834a0ad",
                    "gasUsed": 52137,
                    "id": 0,
                    "methodDecoded": true,
                    "operation": "CALL",
                    "output": "0x0000000000000000000000000000000000000000000000000000000000000001",
                    "revert": false,
                    "revertMessage": "",
                    "selector": "0xa9059cbb",
                    "status": true,
                    "value": "0"
                },
                "nodeType": 0
            },
            "1": {
                "event": {
                    "contract": "0xb37a769b37224449d92aac57de379e1267cd3b00",
                    "decodedLog": {
                        "name": "Transfer",
                        "params": [
                            {
                                "name": "from",
                                "type": "address",
                                "value": "0xfdb16996831753d5331ff813c29a93c76834a0ad"
                            },
                            {
                                "name": "to",
                                "type": "address",
                                "value": "0x7500d6ea6f829f060b789702000e22a294a290c2"
                            },
                            {
                                "decimalAvailable": true,
                                "name": "value",
                                "type": "uint256",
                                "value": "1,012,221,079,860,000,000,000,000"
                            }
                        ],
                        "signature": "Transfer(address,address,uint256)"
                    },
                    "id": 1,
                    "logData": "0x00000000000000000000000000000000000000000000d6589d5c638ac5974000",
                    "logDecoded": true,
                    "operation": "EVENT",
                    "revert": false,
                    "status": true,
                    "topics": [
                        "0xddf252ad1be2c89b69c2b068fc378daa952ba7f163c4a11628f55a4df523b3ef",
                        "0x000000000000000000000000fdb16996831753d5331ff813c29a93c76834a0ad",
                        "0x0000000000000000000000007500d6ea6f829f060b789702000e22a294a290c2"
                    ]
                },
                "nodeType": 1
            }
        },
        "gasFlame": [
            {
                "children": [
                    {
                        "children": [
                            {
                                "children": [],
                                "depth": 0,
                                "name": "Initial Gas",
                                "value": 21644
                            },
                            {
                                "children": [],
                                "depth": 0,
                                "name": "Executed Gas",
                                "value": 30493
                            }
                        ],
                        "depth": -1,
                        "name": "Actual Gas Used",
                        "value": 52137
                    },
                    {
                        "children": [],
                        "depth": -1,
                        "name": "Refunded Gas",
                        "value": 0
                    }
                ],
                "depth": -2,
                "name": "Total Gas",
                "value": 52137
            }
        ],
        "isConfirmed": true,
        "mainTrace": [
            {
                "children": [
                    {
                        "children": [
                            {
                                "children": [],
                                "depth": 1,
                                "id": 1,
                                "order": 1
                            }
                        ],
                        "depth": 0,
                        "id": 0,
                        "order": 0
                    }
                ],
                "depth": -1,
                "id": -1,
                "order": -1
            }
        ],
        "mainTraceNodeCount": 2,
        "parentIdMap": {
            "0": -1,
            "1": 0
        },
        "tidyTrace": [
            {
                "children": [
                    {
                        "children": [
                            {
                                "children": [],
                                "depth": 1,
                                "id": 1,
                                "order": 1
                            }
                        ],
                        "depth": 0,
                        "id": 0,
                        "order": 0
                    }
                ],
                "depth": -1,
                "id": -1,
                "order": -1
            }
        ],
        "tidyTraceNodeCount": 2
    },
    "state_change": {
        "stateChanges": [
            {
                "address": "0xb37a769b37224449d92aac57de379e1267cd3b00",
                "erc": "ERC-20",
                "slots": [
                    {
                        "current": "0x0000000000000000000000000000000000000000004fb1875d209ea9dec17000",
                        "key": "0xa77c5c3662b3f59945ca7962f889be2a7cda98e8f28b6358a732762562f1610f",
                        "prev": "0x0000000000000000000000000000000000000000005087dffa7d0234a458b000"
                    },
                    {
                        "current": "0x00000000000000000000000000000000000000000000d6589d5c638ac5974000",
                        "key": "0xda67e88d311c9f56db986ee9b6d0c9affb9fadd559bb6b4bcf81954b01351d09",
                        "prev": "0x0000000000000000000000000000000000000000000000000000000000000000"
                    }
                ],
                "storageVariables": [
                    {
                        "name": "balances",
                        "type": "mapping(address => uint256)",
                        "value": {
                            "pairs": [
                                {
                                    "key": "0x7500d6ea6f829f060b789702000e22a294a290c2",
                                    "value": {
                                        "current": "1012221079860000000000000",
                                        "prev": "0",
                                        "typeTag": 1
                                    }
                                },
                                {
                                    "key": "0xfdb16996831753d5331ff813c29a93c76834a0ad",
                                    "value": {
                                        "current": "96343495638011480000000000",
                                        "prev": "97355716717871480000000000",
                                        "typeTag": 1
                                    }
                                }
                            ],
                            "typeTag": 4
                        }
                    }
                ]
            }
        ]
    }
}