{
    "balance_change": {
        "balanceChanges": [
            {
                "account": "0x68b1f671a28372743aca3f2bfbdf026deda270f1",
                "assets": [
                    {
                        "address": "0x1e797ce986c3cff4472f7d38d5c4aba55dfefe40",
                        "amount": "1,124.135",
                        "iconUrl": "https://assets.blocksec.com/icon/e1d381c9f4ba4fe929d2dddcca8fcd17ae6a4ed5bed2d0c868ea0e5aef07760e.png",
                        "isERC1155": false,
                        "isERC721": false,
                        "sign": false,
                        "value": ""
                    }
                ]
            },
            {
                "account": "0x0d3ddfa98ed5d1711b8bcb2d861b748217fd9c83",
                "assets": [
                    {
                        "address": "0x1e797ce986c3cff4472f7d38d5c4aba55dfefe40",
                        "amount": "1,124.135",
                        "iconUrl": "https://assets.blocksec.com/icon/e1d381c9f4ba4fe929d2dddcca8fcd17ae6a4ed5bed2d0c868ea0e5aef07760e.png",
                        "isERC1155": false,
                        "isERC721": false,
                        "sign": true,
                        "value": ""
                    }
                ]
            }
        ]
    },
    "profile": {
        "basic_info": {
            "baseFee": "",
            "blockNumber": 5366306,
            "callData": "0xa9059cbb0000000000000000000000000d3ddfa98ed5d1711b8bcb2d861b748217fd9c830000000000000000000000000000000000000000000000000f99bad39a957000",
            "debugEnable": true,
            "errorInfo": "",
            "eventCount": 1,
            "feeRecipient": "0xea674fdde714fd979de3edf0f56aa9716b898ec8",
            "formatValue": "0",
            "gasLimit": 37315,
            "gasPrice": "41",
            "gasUsed": 22315,
            "intTxnCount": 0,
            "internalRevert": false,
            "internalRevertMessage": "",
            "isContractCreation": false,
            "isFlashloan": false,
            "maxFee": "",
            "nonce": 34,
            "overwritedBlockNumber": -1,
            "priorityFee": "",
            "receiver": "0x1e797ce986c3cff4472f7d38d5c4aba55dfefe40",
            "revertMessage": "",
            "sender": "0x68b1f671a28372743aca3f2bfbdf026deda270f1",
            "simulationEnable": true,
            "sourceTxnHash": "0x27ed3311feebddb18d4b49e0899b6b7c0bd262ff6b03f824be4506f1c93ff93d",
            "status": true,
            "timestamp": "2018-04-02T09:42:36Z",
            "transactionFee": "0.000914915",
            "txnHash": "0x27ed3311feebddb18d4b49e0899b6b7c0bd262ff6b03f824be4506f1c93ff93d",
            "txnIndex": 6,
            "type": 0,
            "value": "0"
        },
        "fund_flow": [
            {
                "amount": "1,124.135",
                "from": "0x68b1f671a28372743aca3f2bfbdf026deda270f1",
                "id": 1,
                "isERC1155": false,
                "isERC721": false,
                "isReverted": false,
                "order": 1,
                "to": "0x0d3ddfa98ed5d1711b8bcb2d861b748217fd9c83",
                "token": "0x1e797ce986c3cff4472f7d38d5c4aba55dfefe40"
            }
        ],
        "token_infos": [
            {
                "address": "0x1e797ce986c3cff4472f7d38d5c4aba55dfefe40",
                "decimals": 15
            },
            {
                "address": "0xc02aaa39b223fe8d0a0e5c4f27ead9083c756cc2",
                "decimals": 18
            },
            {
                "address": "0xeeeeeeeeeeeeeeeeeeeeeeeeeeeeeeeeeeeeeeee",
                "decimals": 18
            }
        ]
    },
    "address_label": {
        "labels": [
            {
                "address": "0xeeeeeeeeeeeeeeeeeeeeeeeeeeeeeeeeeeeeeeee",
                "label": "Ether"
            },
            {
                "address": "0x0d3ddfa98ed5d1711b8bcb2d861b748217fd9c83",
                "label": "GATE.IO"
            },
            {
                "address": "0x1e797ce986c3cff4472f7d38d5c4aba55dfefe40",
                "label": "BlockCDN: BCDN Token"
            },
            {
                "address": "0x0000000000000000000000000000000000000001",
                "label": "Precompiled"
            },
            {
                "address": "0x0000000000000000000000000000000000000002",
                "label": "Precompiled"
            },
            {
                "address": "0x0000000000000000000000000000000000000003",
                "label": "Precompiled"
            },
            {
                "address": "0x0000000000000000000000000000000000000004",
                "label": "Precompiled"
            }
        ]
    },
    "trace": {
        "accountLabels": null,
        "dataMap": {
            "-1": {
                "invocation": {
                    "address": "0x68b1f671a28372743aca3f2bfbdf026deda270f1",
                    "callData": "",
                    "decodedMethod": null,
                    "errorInfo": "",
                    "fromAddress": "",
                    "gasUsed": 0,
                    "id": -1,
                    "methodDecoded": false,
                    "operation": "",
                    "output": "",
                    "revert": false,
                    "revertMessage": "",
                    "selector": "",
                    "status": false,
                    "value": ""
                },
                "nodeType": 0
            },
            "0": {
                "invocation": {
                    "address": "0x1e797ce986c3cff4472f7d38d5c4aba55dfefe40",
                    "callData": "0x0000000000000000000000000d3ddfa98ed5d1711b8bcb2d861b748217fd9c830000000000000000000000000000000000000000000000000f99bad39a957000",
                    "decodedMethod": {
                        "callParams": [
                            {
                                "name": "_to",
                                "type": "address",
                                "value": "0x0d3ddfa98ed5d1711b8bcb2d861b748217fd9c83"
                            },
                            {
                                "decimalAvailable": true,
                                "name": "_value",
                                "type": "uint256",
                                "value": "1,124,135,000,000,000,000"
                            }
                        ],
                        "constructorArguments": "",
                        "name": "transfer",
                        "returnParams": [
                            {
                                "name": "success",
                                "type": "bool",
                                "value": true
                            }
                        ],
                        "signature": "transfer(address,uint256)"
                    },
                    "errorInfo": "",
                    "fromAddress": "0x68b1f671a28372743aca3f2bfbdf026deda270f1",
                    "gasUsed": 22315,
                    "id": 0,
                    "methodDecoded": true,
                    "operation": "CALL",
                    "output": "0x0000000000000000000000000000000000000000000000000000000000000001",
                    "revert": false,
                    "revertMessage": "",
                    "selector": "0xa9059cbb",
                    "status": true,
                    "value": "0"
                },
                "nodeType": 0
            },
            "1": {
                "event": {
                    "contract": "0x1e797ce986c3cff4472f7d38d5c4aba55dfefe40",
                    "decodedLog": {
                        "name": "Transfer",
                        "params": [
                            {
                                "name": "from",
                                "type": "address",
                                "value": "0x68b1f671a28372743aca3f2bfbdf026deda270f1"
                            },
                            {
                                "name": "to",
                                "type": "address",
                                "value": "0x0d3ddfa98ed5d1711b8bcb2d861b748217fd9c83"
                            },
                            {
                                "decimalAvailable": true,
                                "name": "value",
                                "type": "uint256",
                                "value": "1,124,135,000,000,000,000"
                            }
                        ],
                        "signature": "Transfer(address,address,uint256)"
                    },
                    "id": 1,
                    "logData": "0x0000000000000000000000000000000000000000000000000f99bad39a957000",
                    "logDecoded": true,
                    "operation": "EVENT",
                    "revert": false,
                    "status": true,
                    "topics": [
                        "0xddf252ad1be2c89b69c2b068fc378daa952ba7f163c4a11628f55a4df523b3ef",
                        "0x00000000000000000000000068b1f671a28372743aca3f2bfbdf026deda270f1",
                        "0x0000000000000000000000000d3ddfa98ed5d1711b8bcb2d861b748217fd9c83"
                    ]
                },
                "nodeType": 1
            }
        },
        "gasFlame": [
            {
                "children": [
                    {
                        "children": [
                            {
                                "children": [],
                                "depth": 0,
                                "name": "Initial Gas",
                                "value": 23256
                            },
                            {
                                "children": [],
                                "depth": 0,
                                "name": "Executed Gas",
                                "value": 14059
                            }
                        ],
                        "depth": -1,
                        "name": "Actual Gas Used",
                        "value": 22315
                    },
                    {
                        "children": [],
                        "depth": -1,
                        "name": "Refunded Gas",
                        "value": 15000
                    }
                ],
                "depth": -2,
                "name": "Total Gas",
                "value": 37315
            }
        ],
        "isConfirmed": true,
        "mainTrace": [
            {
                "children": [
                    {
                        "children": [
                            {
                                "children": [],
                                "depth": 1,
                                "id": 1,
                                "order": 1
                            }
                        ],
                        "depth": 0,
                        "id": 0,
                        "order": 0
                    }
                ],
                "depth": -1,
                "id": -1,
                "order": -1
            }
        ],
        "mainTraceNodeCount": 2,
        "parentIdMap": {
            "0": -1,
            "1": 0
        },
        "tidyTrace": [
            {
                "children": [
                    {
                        "children": [
                            {
                                "children": [],
                                "depth": 1,
                                "id": 1,
                                "order": 1
                            }
                        ],
                        "depth": 0,
                        "id": 0,
                        "order": 0
                    }
                ],
                "depth": -1,
                "id": -1,
                "order": -1
            }
        ],
        "tidyTraceNodeCount": 2
    },
    "state_change": {
        "stateChanges": [
            {
                "address": "0x1e797ce986c3cff4472f7d38d5c4aba55dfefe40",
                "erc": "",
                "slots": [
                    {
                        "current": "0x0000000000000000000000000000000000000000000000000000000000000000",
                        "key": "0x6a8b792d9f9498f37139da4d51db300c87347f237b657dc6b016e4da521ccaf2",
                        "prev": "0x0000000000000000000000000000000000000000000000000f99bad39a957000"
                    },
                    {
                        "current": "0x0000000000000000000000000000000000000000000000002786ee5d978717d4",
                        "key": "0x729d76cbf806b6a115ddbc8d13830085ee6c5697b8eb3da837cd61859b3728e1",
                        "prev": "0x00000000000000000000000000000000000000000000000017ed3389fcf1a7d4"
                    }
                ],
                "storageVariables": []
            }
        ]
    }
}