{
    "balance_change": {
        "balanceChanges": [
            {
                "account": "0x649f1d57c343a6372a2744653d7e60205b9d35d1",
                "assets": [
                    {
                        "address": "0xda605fd5e003e6de0f33f6474080623fa6483e3e",
                        "amount": "714.28571429",
                        "iconUrl": "",
                        "isERC1155": false,
                        "isERC721": false,
                        "sign": false,
                        "value": ""
                    }
                ]
            },
            {
                "account": "0x5fe80e3ed9be657890cc9e4da455ef6b54fdab24",
                "assets": [
                    {
                        "address": "0xda605fd5e003e6de0f33f6474080623fa6483e3e",
                        "amount": "714.28571429",
                        "iconUrl": "",
                        "isERC1155": false,
                        "isERC721": false,
                        "sign": true,
                        "value": ""
                    }
                ]
            }
        ]
    },
    "profile": {
        "basic_info": {
            "baseFee": "",
            "blockNumber": 9356548,
            "callData": "0xa9059cbb0000000000000000000000005fe80e3ed9be657890cc9e4da455ef6b54fdab2400000000000000000000000000000000000000000000000000000010a1798125",
            "debugEnable": true,
            "errorInfo": "",
            "eventCount": 1,
            "feeRecipient": "0x5a0b54d5dc17e0aadc383d2db43b0a0d3e029c4c",
            "formatValue": "0",
            "gasLimit": 55000,
            "gasPrice": "1.1",
            "gasUsed": 51709,
            "intTxnCount": 0,
            "internalRevert": false,
            "internalRevertMessage": "",
            "isContractCreation": false,
            "isFlashloan": false,
            "maxFee": "",
            "nonce": 434,
            "overwritedBlockNumber": -1,
            "priorityFee": "",
            "receiver": "0xda605fd5e003e6de0f33f6474080623fa6483e3e",
            "revertMessage": "",
            "sender": "0x649f1d57c343a6372a2744653d7e60205b9d35d1",
            "simulationEnable": true,
            "sourceTxnHash": "0x27bc4afe36c929c5a1fb1975de9aa23e85b7611184592b21f688acd7b90f0ad1",
            "status": true,
            "timestamp": "2020-01-26T09:03:22Z",
            "transactionFee": "0.0000568799",
            "txnHash": "0x27bc4afe36c929c5a1fb1975de9aa23e85b7611184592b21f688acd7b90f0ad1",
            "txnIndex": 75,
            "type": 0,
            "value": "0"
        },
        "fund_flow": [
            {
                "amount": "714.28571429",
                "from": "0x649f1d57c343a6372a2744653d7e60205b9d35d1",
                "id": 1,
                "isERC1155": false,
                "isERC721": false,
                "isReverted": false,
                "order": 1,
                "to": "0x5fe80e3ed9be657890cc9e4da455ef6b54fdab24",
                "token": "0xda605fd5e003e6de0f33f6474080623fa6483e3e"
            }
        ],
        "token_infos": [
            {
                "address": "0xc02aaa39b223fe8d0a0e5c4f27ead9083c756cc2",
                "decimals": 18
            },
            {
                "address": "0xda605fd5e003e6de0f33f6474080623fa6483e3e",
                "decimals": 8
            },
            {
                "address": "0xeeeeeeeeeeeeeeeeeeeeeeeeeeeeeeeeeeeeeeee",
                "decimals": 18
            }
        ]
    },
    "address_label": {
        "labels": [
            {
                "address": "0xda605fd5e003e6de0f33f6474080623fa6483e3e",
                "label": "Capital Coin (CPTL)"
            },
            {
                "address": "0x0000000000000000000000000000000000000001",
                "label": "Precompiled"
            },
            {
                "address": "0x0000000000000000000000000000000000000002",
                "label": "Precompiled"
            },
            {
                "address": "0x0000000000000000000000000000000000000003",
                "label": "Precompiled"
            },
            {
                "address": "0x0000000000000000000000000000000000000004",
                "label": "Precompiled"
            },
            {
                "address": "0xeeeeeeeeeeeeeeeeeeeeeeeeeeeeeeeeeeeeeeee",
                "label": "Ether"
            }
        ]
    },
    "trace": {
        "accountLabels": null,
        "dataMap": {
            "-1": {
                "invocation": {
                    "address": "0x649f1d57c343a6372a2744653d7e60205b9d35d1",
                    "callData": "",
                    "decodedMethod": null,
                    "errorInfo": "",
                    "fromAddress": "",
                    "gasUsed": 0,
                    "id": -1,
                    "methodDecoded": false,
                    "operation": "",
                    "output": "",
                    "revert": false,
                    "revertMessage": "",
                    "selector": "",
                    "status": false,
                    "value": ""
                },
                "nodeType": 0
            },
            "0": {
                "invocation": {
                    "address": "0xda605fd5e003e6de0f33f6474080623fa6483e3e",
                    "callData": "0x0000000000000000000000005fe80e3ed9be657890cc9e4da455ef6b54fdab2400000000000000000000000000000000000000000000000000000010a1798125",
                    "decodedMethod": {
                        "callParams": [
                            {
                                "name": "_to",
                                "type": "address",
                                "value": "0x5fe80e3ed9be657890cc9e4da455ef6b54fdab24"
                            },
                            {
                                "decimalAvailable": true,
                                "name": "_value",
                                "type": "uint256",
                                "value": "71,428,571,429"
                            }
                        ],
                        "constructorArguments": "",
                        "name": "transfer",
                        "returnParams": [
                            {
                                "name": "success",
                                "type": "bool",
                                "value": true
                            }
                        ],
                        "signature": "transfer(address,uint256)"
                    },
                    "errorInfo": "",
                    "fromAddress": "0x649f1d57c343a6372a2744653d7e60205b9d35d1",
                    "gasUsed": 51709,
                    "id": 0,
                    "methodDecoded": true,
                    "operation": "CALL",
                    "output": "0x0000000000000000000000000000000000000000000000000000000000000001",
                    "revert": false,
                    "revertMessage": "",
                    "selector": "0xa9059cbb",
                    "status": true,
                    "value": "0"
                },
                "nodeType": 0
            },
            "1": {
                "event": {
                    "contract": "0xda605fd5e003e6de0f33f6474080623fa6483e3e",
                    "decodedLog": {
                        "name": "Transfer",
                        "params": [
                            {
                                "name": "_from",
                                "type": "address",
                                "value": "0x649f1d57c343a6372a2744653d7e60205b9d35d1"
                            },
                            {
                                "name": "_to",
                                "type": "address",
                                "value": "0x5fe80e3ed9be657890cc9e4da455ef6b54fdab24"
                            },
                            {
                                "decimalAvailable": true,
                                "name": "_value",
                                "type": "uint256",
                                "value": "71,428,571,429"
                            }
                        ],
                        "signature": "Transfer(address,address,uint256)"
                    },
                    "id": 1,
                    "logData": "0x00000000000000000000000000000000000000000000000000000010a1798125",
                    "logDecoded": true,
                    "operation": "EVENT",
                    "revert": false,
                    "status": true,
                    "topics": [
                        "0xddf252ad1be2c89b69c2b068fc378daa952ba7f163c4a11628f55a4df523b3ef",
                        "0x000000000000000000000000649f1d57c343a6372a2744653d7e60205b9d35d1",
                        "0x0000000000000000000000005fe80e3ed9be657890cc9e4da455ef6b54fdab24"
                    ]
                },
                "nodeType": 1
            }
        },
        "gasFlame": [
            {
                "children": [
                    {
                        "children": [
                            {
                                "children": [],
                                "depth": 0,
                                "name": "Initial Gas",
                                "value": 21620
                            },
                            {
                                "children": [],
                                "depth": 0,
                                "name": "Executed Gas",
                                "value": 30089
                            }
                        ],
                        "depth": -1,
                        "name": "Actual Gas Used",
                        "value": 51709
                    },
                    {
                        "children": [],
                        "depth": -1,
                        "name": "Refunded Gas",
                        "value": 0
                    }
                ],
                "depth": -2,
                "name": "Total Gas",
                "value": 51709
            }
        ],
        "isConfirmed": true,
        "mainTrace": [
            {
                "children": [
                    {
                        "children": [
                            {
                                "children": [],
                                "depth": 1,
                                "id": 1,
                                "order": 1
                            }
                        ],
                        "depth": 0,
                        "id": 0,
                        "order": 0
                    }
                ],
                "depth": -1,
                "id": -1,
                "order": -1
            }
        ],
        "mainTraceNodeCount": 2,
        "parentIdMap": {
            "0": -1,
            "1": 0
        },
        "tidyTrace": [
            {
                "children": [
                    {
                        "children": [
                            {
                                "children": [],
                                "depth": 1,
                                "id": 1,
                                "order": 1
                            }
                        ],
                        "depth": 0,
                        "id": 0,
                        "order": 0
                    }
                ],
                "depth": -1,
                "id": -1,
                "order": -1
            }
        ],
        "tidyTraceNodeCount": 2
    },
    "state_change": {
        "stateChanges": [
            {
                "address": "0xda605fd5e003e6de0f33f6474080623fa6483e3e",
                "erc": "ERC-20",
                "slots": [
                    {
                        "current": "0x0000000000000000000000000000000000000000000000000000117d0435b0d1",
                        "key": "0x6ba4695b595664421ff49e7d16f34ffaf07dd2defa92cb6505d6ae9ff39e1385",
                        "prev": "0x0000000000000000000000000000000000000000000000000000118da5af31f6"
                    },
                    {
                        "current": "0x00000000000000000000000000000000000000000000000000000010a1798125",
                        "key": "0x60513e484a98cc20990d5a5de84d96b768be798d0aa6451fdbd03a7d02831f55",
                        "prev": "0x0000000000000000000000000000000000000000000000000000000000000000"
                    }
                ],
                "storageVariables": []
            }
        ]
    }
}