{
    "balance_change": {
        "balanceChanges": []
    },
    "profile": {
        "basic_info": {
            "baseFee": "",
            "blockNumber": 12617605,
            "callData": "0xc349026300000000000000000000000000000000000000000000000000000000000000020000000000000000000000000000000000000000000000000000000000000000",
            "debugEnable": true,
            "errorInfo": "out of gas: not enough gas for reentrancy sentry",
            "eventCount": 3,
            "feeRecipient": "0x01ca8a0ba4a80d12a8fb6e3655688f57b16608cf",
            "formatValue": "0",
            "gasLimit": 86420,
            "gasPrice": "9.000001459",
            "gasUsed": 86420,
            "intTxnCount": 2,
            "internalRevert": true,
            "internalRevertMessage": "",
            "isContractCreation": false,
            "isFlashloan": false,
            "maxFee": "",
            "nonce": 43,
            "overwritedBlockNumber": -1,
            "priorityFee": "",
            "receiver": "0x2c8652acbaba3d398952bd291b0baf29ba6f0ae8",
            "revertMessage": "",
            "sender": "0x3ca63590182721974a471fc3b5ed2c1a83ba175a",
            "simulationEnable": true,
            "sourceTxnHash": "0x277d811ae0643d8725b5c1f583ff8a9401057fe902a9d53ced8607fc145e9a55",
            "status": false,
            "timestamp": "2021-06-12T04:33:39Z",
            "transactionFee": "0.00077778012608678",
            "txnHash": "0x277d811ae0643d8725b5c1f583ff8a9401057fe902a9d53ced8607fc145e9a55",
            "txnIndex": 42,
            "type": 0,
            "value": "0"
        },
        "fund_flow": [],
        "token_infos": [
            {
                "address": "0xda86006036540822e0cd2861dbd2fd7ff9caa0e8",
                "decimals": 18
            },
            {
                "address": "0xeeeeeeeeeeeeeeeeeeeeeeeeeeeeeeeeeeeeeeee",
                "decimals": 18
            },
            {
                "address": "0xc02aaa39b223fe8d0a0e5c4f27ead9083c756cc2",
                "decimals": 18
            }
        ]
    },
    "address_label": {
        "labels": [
            {
                "address": "0xeeeeeeeeeeeeeeeeeeeeeeeeeeeeeeeeeeeeeeee",
                "label": "Ether"
            },
            {
                "address": "0xda86006036540822e0cd2861dbd2fd7ff9caa0e8",
                "label": "TUBE2 (TUBE2)"
            },
            {
                "address": "0x2c8652acbaba3d398952bd291b0baf29ba6f0ae8",
                "label": "TubeChief"
            },
            {
                "address": "0x0000000000000000000000000000000000000001",
                "label": "Precompiled"
            },
            {
                "address": "0x0000000000000000000000000000000000000002",
                "label": "Precompiled"
            },
            {
                "address": "0x0000000000000000000000000000000000000003",
                "label": "Precompiled"
            },
            {
                "address": "0x0000000000000000000000000000000000000004",
                "label": "Precompiled"
            }
        ]
    },
    "trace": {
        "accountLabels": null,
        "dataMap": {
            "-1": {
                "invocation": {
                    "address": "0x3ca63590182721974a471fc3b5ed2c1a83ba175a",
                    "callData": "",
                    "decodedMethod": null,
                    "errorInfo": "",
                    "fromAddress": "",
                    "gasUsed": 0,
                    "id": -1,
                    "methodDecoded": false,
                    "operation": "",
                    "output": "",
                    "revert": false,
                    "revertMessage": "",
                    "selector": "",
                    "status": false,
                    "value": ""
                },
                "nodeType": 0
            },
            "0": {
                "invocation": {
                    "address": "0x2c8652acbaba3d398952bd291b0baf29ba6f0ae8",
                    "callData": "0x00000000000000000000000000000000000000000000000000000000000000020000000000000000000000000000000000000000000000000000000000000000",
                    "decodedMethod": {
                        "callParams": [
                            {
                                "name": "poolId",
                                "type": "uint256",
                                "value": "2"
                            },
                            {
                                "name": "amount",
                                "type": "uint256",
                                "value": "0"
                            }
                        ],
                        "constructorArguments": "",
                        "name": "claim",
                        "returnParams": [],
                        "signature": "claim(uint256,uint256)"
                    },
                    "errorInfo": "out of gas: not enough gas for reentrancy sentry",
                    "fromAddress": "0x3ca63590182721974a471fc3b5ed2c1a83ba175a",
                    "gasUsed": 86420,
                    "id": 0,
                    "methodDecoded": true,
                    "operation": "CALL",
                    "output": "",
                    "revert": true,
                    "revertMessage": "",
                    "selector": "0xc3490263",
                    "status": false,
                    "value": "0"
                },
                "nodeType": 0
            },
            "1": {
                "invocation": {
                    "address": "0xda86006036540822e0cd2861dbd2fd7ff9caa0e8",
                    "callData": "0x0000000000000000000000002c8652acbaba3d398952bd291b0baf29ba6f0ae800000000000000000000000000000000000000000000000007714f97778e74ca",
                    "decodedMethod": {
                        "callParams": [
                            {
                                "name": "_address",
                                "type": "address",
                                "value": "0x2c8652acbaba3d398952bd291b0baf29ba6f0ae8"
                            },
                            {
                                "name": "amount",
                                "type": "uint256",
                                "value": "536,297,342,598,280,394"
                            }
                        ],
                        "constructorArguments": "",
                        "name": "farmMint",
                        "returnParams": [],
                        "signature": "farmMint(address,uint256)"
                    },
                    "errorInfo": "",
                    "fromAddress": "0x2c8652acbaba3d398952bd291b0baf29ba6f0ae8",
                    "gasUsed": 14843,
                    "id": 1,
                    "methodDecoded": true,
                    "operation": "CALL",
                    "output": "",
                    "revert": true,
                    "revertMessage": "",
                    "selector": "0x55432fb7",
                    "status": true,
                    "value": "0"
                },
                "nodeType": 0
            },
            "2": {
                "event": {
                    "contract": "0xda86006036540822e0cd2861dbd2fd7ff9caa0e8",
                    "decodedLog": {
                        "name": "Transfer",
                        "params": [
                            {
                                "name": "from",
                                "type": "address",
                                "value": "0x0000000000000000000000000000000000000000"
                            },
                            {
                                "name": "to",
                                "type": "address",
                                "value": "0x2c8652acbaba3d398952bd291b0baf29ba6f0ae8"
                            },
                            {
                                "decimalAvailable": true,
                                "name": "tokens",
                                "type": "uint256",
                                "value": "536,297,342,598,280,394"
                            }
                        ],
                        "signature": "Transfer(address,address,uint256)"
                    },
                    "id": 2,
                    "logData": "0x00000000000000000000000000000000000000000000000007714f97778e74ca",
                    "logDecoded": true,
                    "operation": "EVENT",
                    "revert": true,
                    "status": false,
                    "topics": [
                        "0xddf252ad1be2c89b69c2b068fc378daa952ba7f163c4a11628f55a4df523b3ef",
                        "0x0000000000000000000000000000000000000000000000000000000000000000",
                        "0x0000000000000000000000002c8652acbaba3d398952bd291b0baf29ba6f0ae8"
                    ]
                },
                "nodeType": 1
            },
            "3": {
                "invocation": {
                    "address": "0xda86006036540822e0cd2861dbd2fd7ff9caa0e8",
                    "callData": "0x0000000000000000000000003ca63590182721974a471fc3b5ed2c1a83ba175a00000000000000000000000000000000000000000000000007714f97778e74ca",
                    "decodedMethod": {
                        "callParams": [
                            {
                                "name": "to",
                                "type": "address",
                                "value": "0x3ca63590182721974a471fc3b5ed2c1a83ba175a"
                            },
                            {
                                "decimalAvailable": true,
                                "name": "tokens",
                                "type": "uint256",
                                "value": "536,297,342,598,280,394"
                            }
                        ],
                        "constructorArguments": "",
                        "name": "transfer",
                        "returnParams": [
                            {
                                "name": "success",
                                "type": "bool",
                                "value": true
                            }
                        ],
                        "signature": "transfer(address,uint256)"
                    },
                    "errorInfo": "",
                    "fromAddress": "0x2c8652acbaba3d398952bd291b0baf29ba6f0ae8",
                    "gasUsed": 7904,
                    "id": 3,
                    "methodDecoded": true,
                    "operation": "CALL",
                    "output": "0x0000000000000000000000000000000000000000000000000000000000000001",
                    "revert": true,
                    "revertMessage": "",
                    "selector": "0xa9059cbb",
                    "status": true,
                    "value": "0"
                },
                "nodeType": 0
            },
            "4": {
                "event": {
                    "contract": "0xda86006036540822e0cd2861dbd2fd7ff9caa0e8",
                    "decodedLog": {
                        "name": "Transfer",
                        "params": [
                            {
                                "name": "from",
                                "type": "address",
                                "value": "0x2c8652acbaba3d398952bd291b0baf29ba6f0ae8"
                            },
                            {
                                "name": "to",
                                "type": "address",
                                "value": "0x3ca63590182721974a471fc3b5ed2c1a83ba175a"
                            },
                            {
                                "decimalAvailable": true,
                                "name": "tokens",
                                "type": "uint256",
                                "value": "536,297,342,598,280,394"
                            }
                        ],
                        "signature": "Transfer(address,address,uint256)"
                    },
                    "id": 4,
                    "logData": "0x00000000000000000000000000000000000000000000000007714f97778e74ca",
                    "logDecoded": true,
                    "operation": "EVENT",
                    "revert": true,
                    "status": false,
                    "topics": [
                        "0xddf252ad1be2c89b69c2b068fc378daa952ba7f163c4a11628f55a4df523b3ef",
                        "0x0000000000000000000000002c8652acbaba3d398952bd291b0baf29ba6f0ae8",
                        "0x0000000000000000000000003ca63590182721974a471fc3b5ed2c1a83ba175a"
                    ]
                },
                "nodeType": 1
            },
            "5": {
                "event": {
                    "contract": "0x2c8652acbaba3d398952bd291b0baf29ba6f0ae8",
                    "decodedLog": {
                        "name": "Claim",
                        "params": [
                            {
                                "name": "poolId",
                                "type": "uint256",
                                "value": "2"
                            },
                            {
                                "name": "amount",
                                "type": "uint256",
                                "value": "0"
                            },
                            {
                                "name": "claimable",
                                "type": "uint256",
                                "value": "536,297,342,598,280,394"
                            }
                        ],
                        "signature": "Claim(uint256,uint256,uint256)"
                    },
                    "id": 5,
                    "logData": "0x0000000000000000000000000000000000000000000000000000000000000002000000000000000000000000000000000000000000000000000000000000000000000000000000000000000000000000000000000000000007714f97778e74ca",
                    "logDecoded": true,
                    "operation": "EVENT",
                    "revert": true,
                    "status": false,
                    "topics": [
                        "0xe630ca519fedafd2bd9bd35ad65e198e08398f47c88ca063c406740992bcd1a4"
                    ]
                },
                "nodeType": 1
            }
        },
        "gasFlame": [
            {
                "children": [
                    {
                        "children": [
                            {
                                "children": [],
                                "depth": 0,
                                "name": "Initial Gas",
                                "value": 21332
                            },
                            {
                                "children": [
                                    {
                                        "children": [],
                                        "depth": 1,
                                        "name": "farmMint",
                                        "value": 14843
                                    },
                                    {
                                        "children": [],
                                        "depth": 1,
                                        "name": "transfer",
                                        "value": 7904
                                    }
                                ],
                                "depth": 0,
                                "name": "Executed Gas",
                                "value": 65088
                            }
                        ],
                        "depth": -1,
                        "name": "Actual Gas Used",
                        "value": 86420
                    },
                    {
                        "children": [],
                        "depth": -1,
                        "name": "Refunded Gas",
                        "value": 0
                    }
                ],
                "depth": -2,
                "name": "Total Gas",
                "value": 86420
            }
        ],
        "isConfirmed": true,
        "mainTrace": [
            {
                "children": [
                    {
                        "children": [
                            {
                                "children": [
                                    {
                                        "children": [],
                                        "depth": 2,
                                        "id": 2,
                                        "order": 2
                                    }
                                ],
                                "depth": 1,
                                "id": 1,
                                "order": 1
                            },
                            {
                                "children": [
                                    {
                                        "children": [],
                                        "depth": 2,
                                        "id": 4,
                                        "order": 4
                                    }
                                ],
                                "depth": 1,
                                "id": 3,
                                "order": 3
                            },
                            {
                                "children": [],
                                "depth": 1,
                                "id": 5,
                                "order": 5
                            }
                        ],
                        "depth": 0,
                        "id": 0,
                        "order": 0
                    }
                ],
                "depth": -1,
                "id": -1,
                "order": -1
            }
        ],
        "mainTraceNodeCount": 6,
        "parentIdMap": {
            "0": -1,
            "1": 0,
            "2": 1,
            "3": 0,
            "4": 3,
            "5": 0
        },
        "tidyTrace": [
            {
                "children": [
                    {
                        "children": [
                            {
                                "children": [
                                    {
                                        "children": [],
                                        "depth": 2,
                                        "id": 2,
                                        "order": 2
                                    }
                                ],
                                "depth": 1,
                                "id": 1,
                                "order": 1
                            },
                            {
                                "children": [
                                    {
                                        "children": [],
                                        "depth": 2,
                                        "id": 4,
                                        "order": 4
                                    }
                                ],
                                "depth": 1,
                                "id": 3,
                                "order": 3
                            },
                            {
                                "children": [],
                                "depth": 1,
                                "id": 5,
                                "order": 5
                            }
                        ],
                        "depth": 0,
                        "id": 0,
                        "order": 0
                    }
                ],
                "depth": -1,
                "id": -1,
                "order": -1
            }
        ],
        "tidyTraceNodeCount": 6
    },
    "state_change": {
        "stateChanges": []
    }
}