{
    "balance_change": {
        "balanceChanges": [
            {
                "account": "0xe70af708a713f5ad607e50e70d832a94a1339d31",
                "assets": [
                    {
                        "address": "0x03cb0021808442ad5efb61197966aef72a1def96",
                        "amount": "0.002",
                        "iconUrl": "",
                        "isERC1155": false,
                        "isERC721": false,
                        "sign": false,
                        "value": ""
                    }
                ]
            },
            {
                "account": "0x105631c6cddba84d12fa916f0045b1f97ec9c268",
                "assets": [
                    {
                        "address": "0x03cb0021808442ad5efb61197966aef72a1def96",
                        "amount": "0.00182",
                        "iconUrl": "",
                        "isERC1155": false,
                        "isERC721": false,
                        "sign": true,
                        "value": ""
                    }
                ]
            },
            {
                "account": "0x62a364f7cba3be8fc9dcfdde12cabec8244af381",
                "assets": [
                    {
                        "address": "0x03cb0021808442ad5efb61197966aef72a1def96",
                        "amount": "0.00018",
                        "iconUrl": "",
                        "isERC1155": false,
                        "isERC721": false,
                        "sign": true,
                        "value": ""
                    }
                ]
            }
        ]
    },
    "profile": {
        "basic_info": {
            "baseFee": "",
            "blockNumber": 7318632,
            "callData": "0xd96a094a00000000000000000000000000000000000000000000000000071afd498d0000",
            "debugEnable": true,
            "errorInfo": "",
            "eventCount": 2,
            "feeRecipient": "0x5a0b54d5dc17e0aadc383d2db43b0a0d3e029c4c",
            "formatValue": "0",
            "gasLimit": 1000000,
            "gasPrice": "17",
            "gasUsed": 149955,
            "intTxnCount": 3,
            "internalRevert": false,
            "internalRevertMessage": "",
            "isContractCreation": false,
            "isFlashloan": false,
            "maxFee": "",
            "nonce": 409,
            "overwritedBlockNumber": -1,
            "priorityFee": "",
            "receiver": "0x105631c6cddba84d12fa916f0045b1f97ec9c268",
            "revertMessage": "",
            "sender": "0xe70af708a713f5ad607e50e70d832a94a1339d31",
            "simulationEnable": true,
            "sourceTxnHash": "0x2774dcaa6e72dae9aaa8cb8891d25b55bd20d2c7b4c9f6f762352b9b4210a7b3",
            "status": true,
            "timestamp": "2019-03-06T23:06:51Z",
            "transactionFee": "0.002549235",
            "txnHash": "0x2774dcaa6e72dae9aaa8cb8891d25b55bd20d2c7b4c9f6f762352b9b4210a7b3",
            "txnIndex": 23,
            "type": 0,
            "value": "0"
        },
        "fund_flow": [
            {
                "amount": "0.002",
                "from": "0xe70af708a713f5ad607e50e70d832a94a1339d31",
                "id": 1,
                "isERC1155": false,
                "isERC721": false,
                "isReverted": false,
                "order": 1,
                "to": "0x105631c6cddba84d12fa916f0045b1f97ec9c268",
                "token": "0x03cb0021808442ad5efb61197966aef72a1def96"
            },
            {
                "amount": "0.00018",
                "from": "0x105631c6cddba84d12fa916f0045b1f97ec9c268",
                "id": 2,
                "isERC1155": false,
                "isERC721": false,
                "isReverted": false,
                "order": 2,
                "to": "0x62a364f7cba3be8fc9dcfdde12cabec8244af381",
                "token": "0x03cb0021808442ad5efb61197966aef72a1def96"
            }
        ],
        "token_infos": [
            {
                "address": "0x03cb0021808442ad5efb61197966aef72a1def96",
                "decimals": 18
            },
            {
                "address": "0xc02aaa39b223fe8d0a0e5c4f27ead9083c756cc2",
                "decimals": 18
            },
            {
                "address": "0xeeeeeeeeeeeeeeeeeeeeeeeeeeeeeeeeeeeeeeee",
                "decimals": 18
            }
        ]
    },
    "address_label": {
        "labels": [
            {
                "address": "0xeeeeeeeeeeeeeeeeeeeeeeeeeeeeeeeeeeeeeeee",
                "label": "Ether"
            },
            {
                "address": "0x03cb0021808442ad5efb61197966aef72a1def96",
                "label": "coToken (coToken)"
            },
            {
                "address": "0x0000000000000000000000000000000000000001",
                "label": "Precompiled"
            },
            {
                "address": "0x0000000000000000000000000000000000000002",
                "label": "Precompiled"
            },
            {
                "address": "0x0000000000000000000000000000000000000003",
                "label": "Precompiled"
            },
            {
                "address": "0x0000000000000000000000000000000000000004",
                "label": "Precompiled"
            }
        ]
    },
    "trace": {
        "accountLabels": null,
        "dataMap": {
            "-1": {
                "invocation": {
                    "address": "0xe70af708a713f5ad607e50e70d832a94a1339d31",
                    "callData": "",
                    "decodedMethod": null,
                    "errorInfo": "",
                    "fromAddress": "",
                    "gasUsed": 0,
                    "id": -1,
                    "methodDecoded": false,
                    "operation": "",
                    "output": "",
                    "revert": false,
                    "revertMessage": "",
                    "selector": "",
                    "status": false,
                    "value": ""
                },
                "nodeType": 0
            },
            "0": {
                "invocation": {
                    "address": "0x105631c6cddba84d12fa916f0045b1f97ec9c268",
                    "callData": "0x00000000000000000000000000000000000000000000000000071afd498d0000",
                    "decodedMethod": {
                        "callParams": [
                            {
                                "name": "amount",
                                "type": "uint256",
                                "value": "2,000,000,000,000,000"
                            }
                        ],
                        "constructorArguments": "",
                        "name": "buy",
                        "returnParams": [],
                        "signature": "buy(uint256)"
                    },
                    "errorInfo": "",
                    "fromAddress": "0xe70af708a713f5ad607e50e70d832a94a1339d31",
                    "gasUsed": 149955,
                    "id": 0,
                    "methodDecoded": true,
                    "operation": "CALL",
                    "output": "",
                    "revert": false,
                    "revertMessage": "",
                    "selector": "0xd96a094a",
                    "status": true,
                    "value": "0"
                },
                "nodeType": 0
            },
            "1": {
                "invocation": {
                    "address": "0x03cb0021808442ad5efb61197966aef72a1def96",
                    "callData": "0x000000000000000000000000e70af708a713f5ad607e50e70d832a94a1339d3100000000000000000000000000000000000000000000000000071afd498d0000",
                    "decodedMethod": {
                        "callParams": [
                            {
                                "name": "_to",
                                "type": "address",
                                "value": "0xe70af708a713f5ad607e50e70d832a94a1339d31"
                            },
                            {
                                "name": "_value",
                                "type": "uint256",
                                "value": "2,000,000,000,000,000"
                            }
                        ],
                        "constructorArguments": "",
                        "name": "deduct",
                        "returnParams": [
                            {
                                "name": "success",
                                "type": "bool",
                                "value": true
                            }
                        ],
                        "signature": "deduct(address,uint256)"
                    },
                    "errorInfo": "",
                    "fromAddress": "0x105631c6cddba84d12fa916f0045b1f97ec9c268",
                    "gasUsed": 14038,
                    "id": 1,
                    "methodDecoded": true,
                    "operation": "CALL",
                    "output": "0x0000000000000000000000000000000000000000000000000000000000000001",
                    "revert": false,
                    "revertMessage": "",
                    "selector": "0x47055321",
                    "status": true,
                    "value": "0"
                },
                "nodeType": 0
            },
            "2": {
                "event": {
                    "contract": "0x03cb0021808442ad5efb61197966aef72a1def96",
                    "decodedLog": {
                        "name": "Transfer",
                        "params": [
                            {
                                "name": "from",
                                "type": "address",
                                "value": "0xe70af708a713f5ad607e50e70d832a94a1339d31"
                            },
                            {
                                "name": "to",
                                "type": "address",
                                "value": "0x105631c6cddba84d12fa916f0045b1f97ec9c268"
                            },
                            {
                                "decimalAvailable": true,
                                "name": "value",
                                "type": "uint256",
                                "value": "2,000,000,000,000,000"
                            }
                        ],
                        "signature": "Transfer(address,address,uint256)"
                    },
                    "id": 2,
                    "logData": "0x00000000000000000000000000000000000000000000000000071afd498d0000",
                    "logDecoded": true,
                    "operation": "EVENT",
                    "revert": false,
                    "status": true,
                    "topics": [
                        "0xddf252ad1be2c89b69c2b068fc378daa952ba7f163c4a11628f55a4df523b3ef",
                        "0x000000000000000000000000e70af708a713f5ad607e50e70d832a94a1339d31",
                        "0x000000000000000000000000105631c6cddba84d12fa916f0045b1f97ec9c268"
                    ]
                },
                "nodeType": 1
            },
            "3": {
                "invocation": {
                    "address": "0x62a364f7cba3be8fc9dcfdde12cabec8244af381",
                    "callData": "0x2c0b3ef13781075072425781bea84d5827b4bc18d4967885aff711a8ba54367600000000000000000000000000000000000000000000000000006d23ad5f800000000000000000000000000000000000000000000000000000003691d6afc000",
                    "decodedMethod": null,
                    "errorInfo": "",
                    "fromAddress": "0x105631c6cddba84d12fa916f0045b1f97ec9c268",
                    "gasUsed": 34214,
                    "id": 3,
                    "methodDecoded": false,
                    "operation": "CALL",
                    "output": "",
                    "revert": false,
                    "revertMessage": "",
                    "selector": "0x7f2dc9b5",
                    "status": true,
                    "value": "0"
                },
                "nodeType": 0
            },
            "4": {
                "invocation": {
                    "address": "0x03cb0021808442ad5efb61197966aef72a1def96",
                    "callData": "0x000000000000000000000000105631c6cddba84d12fa916f0045b1f97ec9c2680000000000000000000000000000000000000000000000000000a3b5840f4000",
                    "decodedMethod": {
                        "callParams": [
                            {
                                "name": "_to",
                                "type": "address",
                                "value": "0x105631c6cddba84d12fa916f0045b1f97ec9c268"
                            },
                            {
                                "name": "_value",
                                "type": "uint256",
                                "value": "180,000,000,000,000"
                            }
                        ],
                        "constructorArguments": "",
                        "name": "deduct",
                        "returnParams": [
                            {
                                "name": "success",
                                "type": "bool",
                                "value": true
                            }
                        ],
                        "signature": "deduct(address,uint256)"
                    },
                    "errorInfo": "",
                    "fromAddress": "0x62a364f7cba3be8fc9dcfdde12cabec8244af381",
                    "gasUsed": 14038,
                    "id": 4,
                    "methodDecoded": true,
                    "operation": "CALL",
                    "output": "0x0000000000000000000000000000000000000000000000000000000000000001",
                    "revert": false,
                    "revertMessage": "",
                    "selector": "0x47055321",
                    "status": true,
                    "value": "0"
                },
                "nodeType": 0
            },
            "5": {
                "event": {
                    "contract": "0x03cb0021808442ad5efb61197966aef72a1def96",
                    "decodedLog": {
                        "name": "Transfer",
                        "params": [
                            {
                                "name": "from",
                                "type": "address",
                                "value": "0x105631c6cddba84d12fa916f0045b1f97ec9c268"
                            },
                            {
                                "name": "to",
                                "type": "address",
                                "value": "0x62a364f7cba3be8fc9dcfdde12cabec8244af381"
                            },
                            {
                                "decimalAvailable": true,
                                "name": "value",
                                "type": "uint256",
                                "value": "180,000,000,000,000"
                            }
                        ],
                        "signature": "Transfer(address,address,uint256)"
                    },
                    "id": 5,
                    "logData": "0x0000000000000000000000000000000000000000000000000000a3b5840f4000",
                    "logDecoded": true,
                    "operation": "EVENT",
                    "revert": false,
                    "status": true,
                    "topics": [
                        "0xddf252ad1be2c89b69c2b068fc378daa952ba7f163c4a11628f55a4df523b3ef",
                        "0x000000000000000000000000105631c6cddba84d12fa916f0045b1f97ec9c268",
                        "0x00000000000000000000000062a364f7cba3be8fc9dcfdde12cabec8244af381"
                    ]
                },
                "nodeType": 1
            }
        },
        "gasFlame": [
            {
                "children": [
                    {
                        "children": [
                            {
                                "children": [],
                                "depth": 0,
                                "name": "Initial Gas",
                                "value": 21720
                            },
                            {
                                "children": [
                                    {
                                        "children": [],
                                        "depth": 1,
                                        "name": "deduct",
                                        "value": 14038
                                    },
                                    {
                                        "children": [
                                            {
                                                "children": [],
                                                "depth": 2,
                                                "name": "deduct",
                                                "value": 14038
                                            }
                                        ],
                                        "depth": 1,
                                        "name": "0x7f2dc9b5",
                                        "value": 34214
                                    }
                                ],
                                "depth": 0,
                                "name": "Executed Gas",
                                "value": 128235
                            }
                        ],
                        "depth": -1,
                        "name": "Actual Gas Used",
                        "value": 149955
                    },
                    {
                        "children": [],
                        "depth": -1,
                        "name": "Refunded Gas",
                        "value": 0
                    }
                ],
                "depth": -2,
                "name": "Total Gas",
                "value": 149955
            }
        ],
        "isConfirmed": true,
        "mainTrace": [
            {
                "children": [
                    {
                        "children": [
                            {
                                "children": [
                                    {
                                        "children": [],
                                        "depth": 2,
                                        "id": 2,
                                        "order": 2
                                    }
                                ],
                                "depth": 1,
                                "id": 1,
                                "order": 1
                            },
                            {
                                "children": [
                                    {
                                        "children": [
                                            {
                                                "children": [],
                                                "depth": 3,
                                                "id": 5,
                                                "order": 5
                                            }
                                        ],
                                        "depth": 2,
                                        "id": 4,
                                        "order": 4
                                    }
                                ],
                                "depth": 1,
                                "id": 3,
                                "order": 3
                            }
                        ],
                        "depth": 0,
                        "id": 0,
                        "order": 0
                    }
                ],
                "depth": -1,
                "id": -1,
                "order": -1
            }
        ],
        "mainTraceNodeCount": 6,
        "parentIdMap": {
            "0": -1,
            "1": 0,
            "2": 1,
            "3": 0,
            "4": 3,
            "5": 4
        },
        "tidyTrace": [
            {
                "children": [
                    {
                        "children": [
                            {
                                "children": [
                                    {
                                        "children": [],
                                        "depth": 2,
                                        "id": 2,
                                        "order": 2
                                    }
                                ],
                                "depth": 1,
                                "id": 1,
                                "order": 1
                            },
                            {
                                "children": [
                                    {
                                        "children": [
                                            {
                                                "children": [],
                                                "depth": 3,
                                                "id": 5,
                                                "order": 5
                                            }
                                        ],
                                        "depth": 2,
                                        "id": 4,
                                        "order": 4
                                    }
                                ],
                                "depth": 1,
                                "id": 3,
                                "order": 3
                            }
                        ],
                        "depth": 0,
                        "id": 0,
                        "order": 0
                    }
                ],
                "depth": -1,
                "id": -1,
                "order": -1
            }
        ],
        "tidyTraceNodeCount": 6
    },
    "state_change": {
        "stateChanges": [
            {
                "address": "0x03cb0021808442ad5efb61197966aef72a1def96",
                "erc": "",
                "slots": [
                    {
                        "current": "0x00000000000000000000000000000000000000000000000001b16e5a86990000",
                        "key": "0xea39a6ed351f933c9fc1bd90ffcdf3c6a55c4a04846345611fdacb26ae0b2a09",
                        "prev": "0x00000000000000000000000000000000000000000000000001b88957d0260000"
                    },
                    {
                        "current": "0x000000000000000000000000000000000000000000000017cbac53a10ebe3b74",
                        "key": "0x2a71b876ef1f9c4b8447a29f9cde472c80227b8618a02ea4659c6713f31d06d7",
                        "prev": "0x000000000000000000000000000000000000000000000017cba5dc5949407b74"
                    },
                    {
                        "current": "0x000000000000000000000000000000000000000000000021e3f8ca9aa7a1f170",
                        "key": "0x2ae1781e2b15e18335d21665ed35f55f4489bb9a28dc7e5c8dd1f7abd6dbaf1c",
                        "prev": "0x000000000000000000000000000000000000000000000021e3f826e52392b170"
                    }
                ],
                "storageVariables": []
            },
            {
                "address": "0x105631c6cddba84d12fa916f0045b1f97ec9c268",
                "erc": "",
                "slots": [
                    {
                        "current": "0x003c000588251d5903f60000000000005c8052ef000000005c7f911e0000001a",
                        "key": "0x0000000000000000000000000000000000000000000000000000000000000006",
                        "prev": "0x003c000588251d5903f60000000000005c8052ea000000005c7f911e0000001a"
                    },
                    {
                        "current": "0x0000000000000000000000000000000000000000000004a2037581acb86aa055",
                        "key": "0x000000000000000000000000000000000000000000000000000000000000000e",
                        "prev": "0x0000000000000000000000000000000000000000000004a2036e66af6edda055"
                    },
                    {
                        "current": "0x000000000000000000000000000000000000000000000006223fab61e3b38000",
                        "key": "0x127044a6432f2f1d14813694921b666bcb3871fb180b70d98066120dfccda6d0",
                        "prev": "0x000000000000000000000000000000000000000000000006223ef57bc2bf0000"
                    },
                    {
                        "current": "0x0000000000000000000000000002b98701aaf1880000000a8c2b6bb111b707b0",
                        "key": "0x0000000000000000000000000000000000000000000000000000000000000007",
                        "prev": "0x0000000000000000000000000002b98249dbd9450000000a8c2a9169b6f807b0"
                    },
                    {
                        "current": "0x00000000000000000000000000000000000000000000000003b389834ec14000",
                        "key": "0xb37d8be5c69aaaee282818b86615f009fc46acf8f924e10205243db06ffea194",
                        "prev": "0x00000000000000000000000000000000000000000000000003b35a381d3a0000"
                    },
                    {
                        "current": "0x0000000000000000000000000000000000000000000000000acc02e0c3410000",
                        "key": "0x6df2f8f74517fdc67e768c6967e39448a09f33dbcee73755fc578782aaf79b87",
                        "prev": "0x0000000000000000000000000000000000000000000000000ac4e7e379b40000"
                    },
                    {
                        "current": "0x0003ac4ecddfbdba4cc10003ac51fcf5796a000000041a7e36f205f800000005",
                        "key": "0x0000000000000000000000000000000000000000000000000000000000000008",
                        "prev": "0x0003ac4ecddfbdba4cc10003ac51fcf5796a000000041a771bf4bc6b00000005"
                    }
                ],
                "storageVariables": []
            },
            {
                "address": "0x62a364f7cba3be8fc9dcfdde12cabec8244af381",
                "erc": "",
                "slots": [
                    {
                        "current": "0x00000000000000000000000000000000000000000000000000096110e6350000",
                        "key": "0xfe8a7dbe0ede97ef4f7799f5a612b38cf81d503cd183de71821c93bb5f309462",
                        "prev": "0x0000000000000000000000000000000000000000000000000008f3ed38d58000"
                    },
                    {
                        "current": "0x000000000000000000000000000000000000000000000008661b8b25b603c000",
                        "key": "0x0000000000000000000000000000000000000000000000000000000000000011",
                        "prev": "0x000000000000000000000000000000000000000000000008661ae77031f48000"
                    },
                    {
                        "current": "0x00000000000000000000000000000000000000000000000000d781f2d8134000",
                        "key": "0x2b5c1abfbbd4ec2b921dcb259cd2a39032bf5588223ac5edaf4f4933216d4b99",
                        "prev": "0x00000000000000000000000000000000000000000000000000d74b6101638000"
                    }
                ],
                "storageVariables": []
            }
        ]
    }
}