{
    "balance_change": {
        "balanceChanges": [
            {
                "account": "0x6d0530de73561c370d649e5edb74cd65172a22f5",
                "assets": [
                    {
                        "address": "0x3bfcb1e14f2b1bfec9d611cd6b02d48ceef43491",
                        "amount": "218,690.557019075441915972",
                        "iconUrl": "",
                        "isERC1155": false,
                        "isERC721": false,
                        "sign": false,
                        "value": "610.6961962"
                    },
                    {
                        "address": "0x4985f5f12ff9c62b14ce74aab3f2e1c0bc864d5b",
                        "amount": "42,245,548.738209082778694172",
                        "iconUrl": "",
                        "isERC1155": false,
                        "isERC721": false,
                        "sign": true,
                        "value": ""
                    }
                ]
            },
            {
                "account": "0x91bf9b1a717219cfb42a8ef2aeba5cec6d7e5330",
                "assets": [
                    {
                        "address": "0x3bfcb1e14f2b1bfec9d611cd6b02d48ceef43491",
                        "amount": "218,690.557019075441915972",
                        "iconUrl": "",
                        "isERC1155": false,
                        "isERC721": false,
                        "sign": true,
                        "value": "610.6961962"
                    },
                    {
                        "address": "0x4985f5f12ff9c62b14ce74aab3f2e1c0bc864d5b",
                        "amount": "42,245,548.738209082778694172",
                        "iconUrl": "",
                        "isERC1155": false,
                        "isERC721": false,
                        "sign": false,
                        "value": ""
                    }
                ]
            }
        ]
    },
    "profile": {
        "basic_info": {
            "baseFee": "20.792189424",
            "blockNumber": 16600586,
            "callData": "0x3593564c000000000000000000000000000000000000000000000000000000000000006000000000000000000000000000000000000000000000000000000000000000a00000000000000000000000000000000000000000000000000000000063e6a85700000000000000000000000000000000000000000000000000000000000000020a080000000000000000000000000000000000000000000000000000000000000000000000000000000000000000000000000000000000000000000000000002000000000000000000000000000000000000000000000000000000000000004000000000000000000000000000000000000000000000000000000000000001c000000000000000000000000000000000000000000000000000000000000001600000000000000000000000003bfcb1e14f2b1bfec9d611cd6b02d48ceef43491000000000000000000000000ffffffffffffffffffffffffffffffffffffffff00000000000000000000000000000000000000000000000000000000640e2e470000000000000000000000000000000000000000000000000000000000000000000000000000000000000000ef1c6e67703c7bd7107eed8303fbe6ec2554bf6b0000000000000000000000000000000000000000000000000000000063e6a84f00000000000000000000000000000000000000000000000000000000000000e000000000000000000000000000000000000000000000000000000000000000412d0da0cf8d4a35e23f605af82c2f823e5d283ab59e1f1ddffaeff19834328ee41084d162929f8c5d657414f7a7414ba199b8c4235c184d4ce59f33421a5227201b0000000000000000000000000000000000000000000000000000000000000000000000000000000000000000000000000000000000000000000000000001000000000000000000000000000000000000000000000000000000000000000001000000000000000000000000000000000000000000002e4f3d25589e9c9cf84400000000000000000000000000000000000000000022c556135b54fd576be05800000000000000000000000000000000000000000000000000000000000000a0000000000000000000000000000000000000000000000000000000000000000100000000000000000000000000000000000000000000000000000000000000020000000000000000000000003bfcb1e14f2b1bfec9d611cd6b02d48ceef434910000000000000000000000004985f5f12ff9c62b14ce74aab3f2e1c0bc864d5b",
            "debugEnable": true,
            "errorInfo": "",
            "eventCount": 5,
            "feeRecipient": "0xdafea492d9c6733ae3d56b7ed1adb60692c98bc5",
            "formatValue": "0",
            "gasLimit": 206424,
            "gasPrice": "21.792189424",
            "gasUsed": 159428,
            "intTxnCount": 12,
            "internalRevert": false,
            "internalRevertMessage": "",
            "isContractCreation": false,
            "isFlashloan": false,
            "maxFee": "30.503356294",
            "nonce": 54,
            "overwritedBlockNumber": -1,
            "priorityFee": "1",
            "receiver": "0xef1c6e67703c7bd7107eed8303fbe6ec2554bf6b",
            "revertMessage": "",
            "sender": "0x6d0530de73561c370d649e5edb74cd65172a22f5",
            "simulationEnable": true,
            "sourceTxnHash": "0x27f575e615d0f885d9f390b196edcc0c29d49a561b2a194cc824baebe5fcf971",
            "status": true,
            "timestamp": "2023-02-10T19:56:23Z",
            "transactionFee": "0.003474285175489472",
            "txnHash": "0x27f575e615d0f885d9f390b196edcc0c29d49a561b2a194cc824baebe5fcf971",
            "txnIndex": 65,
            "type": 2,
            "value": "0"
        },
        "fund_flow": [
            {
                "amount": "218,690.557019075441915972",
                "from": "0x6d0530de73561c370d649e5edb74cd65172a22f5",
                "id": 1,
                "isERC1155": false,
                "isERC721": false,
                "isReverted": false,
                "order": 1,
                "to": "0x91bf9b1a717219cfb42a8ef2aeba5cec6d7e5330",
                "token": "0x3bfcb1e14f2b1bfec9d611cd6b02d48ceef43491"
            },
            {
                "amount": "42,245,548.738209082778694172",
                "from": "0x91bf9b1a717219cfb42a8ef2aeba5cec6d7e5330",
                "id": 2,
                "isERC1155": false,
                "isERC721": false,
                "isReverted": false,
                "order": 2,
                "to": "0x6d0530de73561c370d649e5edb74cd65172a22f5",
                "token": "0x4985f5f12ff9c62b14ce74aab3f2e1c0bc864d5b"
            }
        ],
        "token_infos": [
            {
                "address": "0x3bfcb1e14f2b1bfec9d611cd6b02d48ceef43491",
                "decimals": 18
            },
            {
                "address": "0x4985f5f12ff9c62b14ce74aab3f2e1c0bc864d5b",
                "decimals": 18
            },
            {
                "address": "0xc02aaa39b223fe8d0a0e5c4f27ead9083c756cc2",
                "decimals": 18
            },
            {
                "address": "0xeeeeeeeeeeeeeeeeeeeeeeeeeeeeeeeeeeeeeeee",
                "decimals": 18
            }
        ]
    },
    "address_label": {
        "labels": [
            {
                "address": "0x000000000022d473030f116ddee9f6b43ac78ba3",
                "label": "Permit2"
            },
            {
                "address": "0xef1c6e67703c7bd7107eed8303fbe6ec2554bf6b",
                "label": "Uniswap: Universal Router 2"
            },
            {
                "address": "0x0000000000000000000000000000000000000002",
                "label": "Precompiled"
            },
            {
                "address": "0x0000000000000000000000000000000000000003",
                "label": "Precompiled"
            },
            {
                "address": "0xeeeeeeeeeeeeeeeeeeeeeeeeeeeeeeeeeeeeeeee",
                "label": "Ether"
            },
            {
                "address": "0x3bfcb1e14f2b1bfec9d611cd6b02d48ceef43491",
                "label": "Ethereum-Peg Proof Of Memes (POM)"
            },
            {
                "address": "0x91bf9b1a717219cfb42a8ef2aeba5cec6d7e5330",
                "label": "Uniswap V2: POM-DEVAI"
            },
            {
                "address": "0x4985f5f12ff9c62b14ce74aab3f2e1c0bc864d5b",
                "label": "DEVAI"
            },
            {
                "address": "0x0000000000000000000000000000000000000001",
                "label": "Precompiled"
            },
            {
                "address": "0x0000000000000000000000000000000000000004",
                "label": "Precompiled"
            }
        ]
    },
    "trace": {
        "accountLabels": null,
        "dataMap": {
            "-1": {
                "invocation": {
                    "address": "0x6d0530de73561c370d649e5edb74cd65172a22f5",
                    "callData": "",
                    "decodedMethod": null,
                    "errorInfo": "",
                    "fromAddress": "",
                    "gasUsed": 0,
                    "id": -1,
                    "methodDecoded": false,
                    "operation": "",
                    "output": "",
                    "revert": false,
                    "revertMessage": "",
                    "selector": "",
                    "status": false,
                    "value": ""
                },
                "nodeType": 0
            },
            "0": {
                "invocation": {
                    "address": "0xef1c6e67703c7bd7107eed8303fbe6ec2554bf6b",
                    "callData": "0x000000000000000000000000000000000000000000000000000000000000006000000000000000000000000000000000000000000000000000000000000000a00000000000000000000000000000000000000000000000000000000063e6a85700000000000000000000000000000000000000000000000000000000000000020a080000000000000000000000000000000000000000000000000000000000000000000000000000000000000000000000000000000000000000000000000002000000000000000000000000000000000000000000000000000000000000004000000000000000000000000000000000000000000000000000000000000001c000000000000000000000000000000000000000000000000000000000000001600000000000000000000000003bfcb1e14f2b1bfec9d611cd6b02d48ceef43491000000000000000000000000ffffffffffffffffffffffffffffffffffffffff00000000000000000000000000000000000000000000000000000000640e2e470000000000000000000000000000000000000000000000000000000000000000000000000000000000000000ef1c6e67703c7bd7107eed8303fbe6ec2554bf6b0000000000000000000000000000000000000000000000000000000063e6a84f00000000000000000000000000000000000000000000000000000000000000e000000000000000000000000000000000000000000000000000000000000000412d0da0cf8d4a35e23f605af82c2f823e5d283ab59e1f1ddffaeff19834328ee41084d162929f8c5d657414f7a7414ba199b8c4235c184d4ce59f33421a5227201b0000000000000000000000000000000000000000000000000000000000000000000000000000000000000000000000000000000000000000000000000001000000000000000000000000000000000000000000000000000000000000000001000000000000000000000000000000000000000000002e4f3d25589e9c9cf84400000000000000000000000000000000000000000022c556135b54fd576be05800000000000000000000000000000000000000000000000000000000000000a0000000000000000000000000000000000000000000000000000000000000000100000000000000000000000000000000000000000000000000000000000000020000000000000000000000003bfcb1e14f2b1bfec9d611cd6b02d48ceef434910000000000000000000000004985f5f12ff9c62b14ce74aab3f2e1c0bc864d5b",
                    "decodedMethod": {
                        "callParams": [
                            {
                                "name": "commands",
                                "type": "bytes",
                                "value": "0x0a08"
                            },
                            {
                                "name": "inputs",
                                "type": "bytes[]",
                                "value": [
                                    "0x0000000000000000000000003bfcb1e14f2b1bfec9d611cd6b02d48ceef43491000000000000000000000000ffffffffffffffffffffffffffffffffffffffff00000000000000000000000000000000000000000000000000000000640e2e470000000000000000000000000000000000000000000000000000000000000000000000000000000000000000ef1c6e67703c7bd7107eed8303fbe6ec2554bf6b0000000000000000000000000000000000000000000000000000000063e6a84f00000000000000000000000000000000000000000000000000000000000000e000000000000000000000000000000000000000000000000000000000000000412d0da0cf8d4a35e23f605af82c2f823e5d283ab59e1f1ddffaeff19834328ee41084d162929f8c5d657414f7a7414ba199b8c4235c184d4ce59f33421a5227201b00000000000000000000000000000000000000000000000000000000000000",
                                    "0x0000000000000000000000000000000000000000000000000000000000000001000000000000000000000000000000000000000000002e4f3d25589e9c9cf84400000000000000000000000000000000000000000022c556135b54fd576be05800000000000000000000000000000000000000000000000000000000000000a0000000000000000000000000000000000000000000000000000000000000000100000000000000000000000000000000000000000000000000000000000000020000000000000000000000003bfcb1e14f2b1bfec9d611cd6b02d48ceef434910000000000000000000000004985f5f12ff9c62b14ce74aab3f2e1c0bc864d5b"
                                ]
                            },
                            {
                                "name": "deadline",
                                "type": "uint256",
                                "value": "1,676,060,759"
                            }
                        ],
                        "constructorArguments": "",
                        "name": "execute",
                        "returnParams": [],
                        "signature": "execute(bytes,bytes[],uint256)"
                    },
                    "errorInfo": "",
                    "fromAddress": "0x6d0530de73561c370d649e5edb74cd65172a22f5",
                    "gasUsed": 159428,
                    "id": 0,
                    "methodDecoded": true,
                    "operation": "CALL",
                    "output": "",
                    "revert": false,
                    "revertMessage": "",
                    "selector": "0x3593564c",
                    "status": true,
                    "value": "0"
                },
                "nodeType": 0
            },
            "1": {
                "invocation": {
                    "address": "0x000000000022d473030f116ddee9f6b43ac78ba3",
                    "callData": "0x0000000000000000000000006d0530de73561c370d649e5edb74cd65172a22f50000000000000000000000003bfcb1e14f2b1bfec9d611cd6b02d48ceef43491000000000000000000000000ffffffffffffffffffffffffffffffffffffffff00000000000000000000000000000000000000000000000000000000640e2e470000000000000000000000000000000000000000000000000000000000000000000000000000000000000000ef1c6e67703c7bd7107eed8303fbe6ec2554bf6b0000000000000000000000000000000000000000000000000000000063e6a84f000000000000000000000000000000000000000000000000000000000000010000000000000000000000000000000000000000000000000000000000000000412d0da0cf8d4a35e23f605af82c2f823e5d283ab59e1f1ddffaeff19834328ee41084d162929f8c5d657414f7a7414ba199b8c4235c184d4ce59f33421a5227201b00000000000000000000000000000000000000000000000000000000000000",
                    "decodedMethod": {
                        "callParams": [
                            {
                                "name": "owner",
                                "type": "address",
                                "value": "0x6d0530de73561c370d649e5edb74cd65172a22f5"
                            },
                            {
                                "name": "permitSingle",
                                "type": "((address,uint160,uint48,uint48),address,uint256)",
                                "value": [
                                    {
                                        "name": "details",
                                        "type": "(address,uint160,uint48,uint48)",
                                        "value": [
                                            {
                                                "name": "token",
                                                "type": "address",
                                                "value": "0x3bfcb1e14f2b1bfec9d611cd6b02d48ceef43491"
                                            },
                                            {
                                                "name": "amount",
                                                "type": "uint160",
                                                "value": "1,461,501,637,330,902,918,203,684,832,716,283,019,655,932,542,975"
                                            },
                                            {
                                                "name": "expiration",
                                                "type": "uint48",
                                                "value": "1,678,650,951"
                                            },
                                            {
                                                "name": "nonce",
                                                "type": "uint48",
                                                "value": "0"
                                            }
                                        ]
                                    },
                                    {
                                        "name": "spender",
                                        "type": "address",
                                        "value": "0xef1c6e67703c7bd7107eed8303fbe6ec2554bf6b"
                                    },
                                    {
                                        "name": "sigDeadline",
                                        "type": "uint256",
                                        "value": "1,676,060,751"
                                    }
                                ]
                            },
                            {
                                "name": "signature",
                                "type": "bytes",
                                "value": "0x2d0da0cf8d4a35e23f605af82c2f823e5d283ab59e1f1ddffaeff19834328ee41084d162929f8c5d657414f7a7414ba199b8c4235c184d4ce59f33421a5227201b"
                            }
                        ],
                        "constructorArguments": "",
                        "name": "permit",
                        "returnParams": [],
                        "signature": "permit(address,((address,uint160,uint48,uint48),address,uint256),bytes)"
                    },
                    "errorInfo": "",
                    "fromAddress": "0xef1c6e67703c7bd7107eed8303fbe6ec2554bf6b",
                    "gasUsed": 30786,
                    "id": 1,
                    "methodDecoded": true,
                    "operation": "CALL",
                    "output": "",
                    "revert": false,
                    "revertMessage": "",
                    "selector": "0x2b67b570",
                    "status": true,
                    "value": "0"
                },
                "nodeType": 0
            },
            "10": {
                "invocation": {
                    "address": "0x91bf9b1a717219cfb42a8ef2aeba5cec6d7e5330",
                    "callData": "0x000000000000000000000000000000000000000000000000000000000000000000000000000000000000000000000000000000000022f1d7c936ab2cb02db21c0000000000000000000000006d0530de73561c370d649e5edb74cd65172a22f500000000000000000000000000000000000000000000000000000000000000800000000000000000000000000000000000000000000000000000000000000000",
                    "decodedMethod": {
                        "callParams": [
                            {
                                "name": "amount0Out",
                                "type": "uint256",
                                "value": "0"
                            },
                            {
                                "name": "amount1Out",
                                "type": "uint256",
                                "value": "42,245,548,738,209,082,778,694,172"
                            },
                            {
                                "name": "to",
                                "type": "address",
                                "value": "0x6d0530de73561c370d649e5edb74cd65172a22f5"
                            },
                            {
                                "name": "data",
                                "type": "bytes",
                                "value": "0x"
                            }
                        ],
                        "constructorArguments": "",
                        "name": "swap",
                        "returnParams": [],
                        "signature": "swap(uint256,uint256,address,bytes)"
                    },
                    "errorInfo": "",
                    "fromAddress": "0xef1c6e67703c7bd7107eed8303fbe6ec2554bf6b",
                    "gasUsed": 61519,
                    "id": 10,
                    "methodDecoded": true,
                    "operation": "CALL",
                    "output": "",
                    "revert": false,
                    "revertMessage": "",
                    "selector": "0x022c0d9f",
                    "status": true,
                    "value": "0"
                },
                "nodeType": 0
            },
            "11": {
                "invocation": {
                    "address": "0x4985f5f12ff9c62b14ce74aab3f2e1c0bc864d5b",
                    "callData": "0x0000000000000000000000006d0530de73561c370d649e5edb74cd65172a22f500000000000000000000000000000000000000000022f1d7c936ab2cb02db21c",
                    "decodedMethod": {
                        "callParams": [
                            {
                                "name": "recipient",
                                "type": "address",
                                "value": "0x6d0530de73561c370d649e5edb74cd65172a22f5"
                            },
                            {
                                "decimalAvailable": true,
                                "name": "amount",
                                "type": "uint256",
                                "value": "42,245,548,738,209,082,778,694,172"
                            }
                        ],
                        "constructorArguments": "",
                        "name": "transfer",
                        "returnParams": [
                            {
                                "name": "",
                                "type": "bool",
                                "value": true
                            }
                        ],
                        "signature": "transfer(address,uint256)"
                    },
                    "errorInfo": "",
                    "fromAddress": "0x91bf9b1a717219cfb42a8ef2aeba5cec6d7e5330",
                    "gasUsed": 28748,
                    "id": 11,
                    "methodDecoded": true,
                    "operation": "CALL",
                    "output": "0x0000000000000000000000000000000000000000000000000000000000000001",
                    "revert": false,
                    "revertMessage": "",
                    "selector": "0xa9059cbb",
                    "status": true,
                    "value": "0"
                },
                "nodeType": 0
            },
            "12": {
                "event": {
                    "contract": "0x4985f5f12ff9c62b14ce74aab3f2e1c0bc864d5b",
                    "decodedLog": {
                        "name": "Transfer",
                        "params": [
                            {
                                "name": "from",
                                "type": "address",
                                "value": "0x91bf9b1a717219cfb42a8ef2aeba5cec6d7e5330"
                            },
                            {
                                "name": "to",
                                "type": "address",
                                "value": "0x6d0530de73561c370d649e5edb74cd65172a22f5"
                            },
                            {
                                "decimalAvailable": true,
                                "name": "value",
                                "type": "uint256",
                                "value": "42,245,548,738,209,082,778,694,172"
                            }
                        ],
                        "signature": "Transfer(address,address,uint256)"
                    },
                    "id": 12,
                    "logData": "0x00000000000000000000000000000000000000000022f1d7c936ab2cb02db21c",
                    "logDecoded": true,
                    "operation": "EVENT",
                    "revert": false,
                    "status": true,
                    "topics": [
                        "0xddf252ad1be2c89b69c2b068fc378daa952ba7f163c4a11628f55a4df523b3ef",
                        "0x00000000000000000000000091bf9b1a717219cfb42a8ef2aeba5cec6d7e5330",
                        "0x0000000000000000000000006d0530de73561c370d649e5edb74cd65172a22f5"
                    ]
                },
                "nodeType": 1
            },
            "13": {
                "invocation": {
                    "address": "0x3bfcb1e14f2b1bfec9d611cd6b02d48ceef43491",
                    "callData": "0x00000000000000000000000091bf9b1a717219cfb42a8ef2aeba5cec6d7e5330",
                    "decodedMethod": {
                        "callParams": [
                            {
                                "name": "account",
                                "type": "address",
                                "value": "0x91bf9b1a717219cfb42a8ef2aeba5cec6d7e5330"
                            }
                        ],
                        "constructorArguments": "",
                        "name": "balanceOf",
                        "returnParams": [
                            {
                                "decimalAvailable": true,
                                "name": "",
                                "type": "uint256",
                                "value": "40,018,859,171,914,510,732,793,437"
                            }
                        ],
                        "signature": "balanceOf(address)"
                    },
                    "errorInfo": "",
                    "fromAddress": "0x91bf9b1a717219cfb42a8ef2aeba5cec6d7e5330",
                    "gasUsed": 585,
                    "id": 13,
                    "methodDecoded": true,
                    "operation": "STATICCALL",
                    "output": "0x000000000000000000000000000000000000000000211a52b3e60d33abc2965d",
                    "revert": false,
                    "revertMessage": "",
                    "selector": "0x70a08231",
                    "status": true,
                    "value": "0"
                },
                "nodeType": 0
            },
            "14": {
                "invocation": {
                    "address": "0x4985f5f12ff9c62b14ce74aab3f2e1c0bc864d5b",
                    "callData": "0x00000000000000000000000091bf9b1a717219cfb42a8ef2aeba5cec6d7e5330",
                    "decodedMethod": {
                        "callParams": [
                            {
                                "name": "account",
                                "type": "address",
                                "value": "0x91bf9b1a717219cfb42a8ef2aeba5cec6d7e5330"
                            }
                        ],
                        "constructorArguments": "",
                        "name": "balanceOf",
                        "returnParams": [
                            {
                                "decimalAvailable": true,
                                "name": "",
                                "type": "uint256",
                                "value": "7,711,532,239,158,181,353,113,351,154"
                            }
                        ],
                        "signature": "balanceOf(address)"
                    },
                    "errorInfo": "",
                    "fromAddress": "0x91bf9b1a717219cfb42a8ef2aeba5cec6d7e5330",
                    "gasUsed": 863,
                    "id": 14,
                    "methodDecoded": true,
                    "operation": "STATICCALL",
                    "output": "0x000000000000000000000000000000000000000018ead478582853aaac4573f2",
                    "revert": false,
                    "revertMessage": "",
                    "selector": "0x70a08231",
                    "status": true,
                    "value": "0"
                },
                "nodeType": 0
            },
            "15": {
                "event": {
                    "contract": "0x91bf9b1a717219cfb42a8ef2aeba5cec6d7e5330",
                    "decodedLog": {
                        "name": "Sync",
                        "params": [
                            {
                                "name": "reserve0",
                                "type": "uint112",
                                "value": "40,018,859,171,914,510,732,793,437"
                            },
                            {
                                "name": "reserve1",
                                "type": "uint112",
                                "value": "7,711,532,239,158,181,353,113,351,154"
                            }
                        ],
                        "signature": "Sync(uint112,uint112)"
                    },
                    "id": 15,
                    "logData": "0x000000000000000000000000000000000000000000211a52b3e60d33abc2965d000000000000000000000000000000000000000018ead478582853aaac4573f2",
                    "logDecoded": true,
                    "operation": "EVENT",
                    "revert": false,
                    "status": true,
                    "topics": [
                        "0x1c411e9a96e071241c2f21f7726b17ae89e3cab4c78be50e062b03a9fffbbad1"
                    ]
                },
                "nodeType": 1
            },
            "16": {
                "event": {
                    "contract": "0x91bf9b1a717219cfb42a8ef2aeba5cec6d7e5330",
                    "decodedLog": {
                        "name": "Swap",
                        "params": [
                            {
                                "name": "sender",
                                "type": "address",
                                "value": "0xef1c6e67703c7bd7107eed8303fbe6ec2554bf6b"
                            },
                            {
                                "name": "to",
                                "type": "address",
                                "value": "0x6d0530de73561c370d649e5edb74cd65172a22f5"
                            },
                            {
                                "name": "amount0In",
                                "type": "uint256",
                                "value": "218,690,557,019,075,441,915,972"
                            },
                            {
                                "name": "amount1In",
                                "type": "uint256",
                                "value": "0"
                            },
                            {
                                "name": "amount0Out",
                                "type": "uint256",
                                "value": "0"
                            },
                            {
                                "name": "amount1Out",
                                "type": "uint256",
                                "value": "42,245,548,738,209,082,778,694,172"
                            }
                        ],
                        "signature": "Swap(address,uint256,uint256,uint256,uint256,address)"
                    },
                    "id": 16,
                    "logData": "0x000000000000000000000000000000000000000000002e4f3d25589e9c9cf8440000000000000000000000000000000000000000000000000000000000000000000000000000000000000000000000000000000000000000000000000000000000000000000000000000000000000000000000000022f1d7c936ab2cb02db21c",
                    "logDecoded": true,
                    "operation": "EVENT",
                    "revert": false,
                    "status": true,
                    "topics": [
                        "0xd78ad95fa46c994b6551d0da85fc275fe613ce37657fb8d5e3d130840159d822",
                        "0x000000000000000000000000ef1c6e67703c7bd7107eed8303fbe6ec2554bf6b",
                        "0x0000000000000000000000006d0530de73561c370d649e5edb74cd65172a22f5"
                    ]
                },
                "nodeType": 1
            },
            "17": {
                "invocation": {
                    "address": "0x4985f5f12ff9c62b14ce74aab3f2e1c0bc864d5b",
                    "callData": "0x0000000000000000000000006d0530de73561c370d649e5edb74cd65172a22f5",
                    "decodedMethod": {
                        "callParams": [
                            {
                                "name": "account",
                                "type": "address",
                                "value": "0x6d0530de73561c370d649e5edb74cd65172a22f5"
                            }
                        ],
                        "constructorArguments": "",
                        "name": "balanceOf",
                        "returnParams": [
                            {
                                "decimalAvailable": true,
                                "name": "",
                                "type": "uint256",
                                "value": "42,245,548,738,209,082,778,694,172"
                            }
                        ],
                        "signature": "balanceOf(address)"
                    },
                    "errorInfo": "",
                    "fromAddress": "0xef1c6e67703c7bd7107eed8303fbe6ec2554bf6b",
                    "gasUsed": 863,
                    "id": 17,
                    "methodDecoded": true,
                    "operation": "STATICCALL",
                    "output": "0x00000000000000000000000000000000000000000022f1d7c936ab2cb02db21c",
                    "revert": false,
                    "revertMessage": "",
                    "selector": "0x70a08231",
                    "status": true,
                    "value": "0"
                },
                "nodeType": 0
            },
            "2": {
                "invocation": {
                    "address": "0x0000000000000000000000000000000000000001",
                    "callData": "0x8b0234bc1036b1b3a9d2ac29cc1327ac3eefcb1e315f1a6f1b178c8c000000000000000000000000000000000000000000000000000000000000001b2d0da0cf8d4a35e23f605af82c2f823e5d283ab59e1f1ddffaeff19834328ee41084d162929f8c5d657414f7a7414ba199b8c4235c184d4ce59f33421a522720",
                    "decodedMethod": {
                        "callParams": [
                            {
                                "name": "hash",
                                "type": "bytes32",
                                "value": "0xa40079a78b0234bc1036b1b3a9d2ac29cc1327ac3eefcb1e315f1a6f1b178c8c"
                            },
                            {
                                "name": "v",
                                "type": "uint256",
                                "value": "27"
                            },
                            {
                                "name": "r",
                                "type": "bytes32",
                                "value": "0x2d0da0cf8d4a35e23f605af82c2f823e5d283ab59e1f1ddffaeff19834328ee4"
                            },
                            {
                                "name": "s",
                                "type": "bytes32",
                                "value": "0x1084d162929f8c5d657414f7a7414ba199b8c4235c184d4ce59f33421a522720"
                            }
                        ],
                        "constructorArguments": "",
                        "name": "ecrecover",
                        "returnParams": [
                            {
                                "name": "",
                                "type": "address",
                                "value": "0x6d0530de73561c370d649e5edb74cd65172a22f5"
                            }
                        ],
                        "signature": "ecrecover(bytes32,uint256,bytes32,bytes32)"
                    },
                    "errorInfo": "",
                    "fromAddress": "0x000000000022d473030f116ddee9f6b43ac78ba3",
                    "gasUsed": 3000,
                    "id": 2,
                    "methodDecoded": true,
                    "operation": "STATICCALL",
                    "output": "0x0000000000000000000000006d0530de73561c370d649e5edb74cd65172a22f5",
                    "revert": false,
                    "revertMessage": "",
                    "selector": "0xa40079a7",
                    "status": true,
                    "value": "0"
                },
                "nodeType": 0
            },
            "3": {
                "event": {
                    "contract": "0x000000000022d473030f116ddee9f6b43ac78ba3",
                    "decodedLog": {
                        "name": "Permit",
                        "params": [
                            {
                                "name": "owner",
                                "type": "address",
                                "value": "0x6d0530de73561c370d649e5edb74cd65172a22f5"
                            },
                            {
                                "name": "token",
                                "type": "address",
                                "value": "0x3bfcb1e14f2b1bfec9d611cd6b02d48ceef43491"
                            },
                            {
                                "name": "spender",
                                "type": "address",
                                "value": "0xef1c6e67703c7bd7107eed8303fbe6ec2554bf6b"
                            },
                            {
                                "name": "amount",
                                "type": "uint160",
                                "value": "1,461,501,637,330,902,918,203,684,832,716,283,019,655,932,542,975"
                            },
                            {
                                "name": "expiration",
                                "type": "uint48",
                                "value": "1,678,650,951"
                            },
                            {
                                "name": "nonce",
                                "type": "uint48",
                                "value": "0"
                            }
                        ],
                        "signature": "Permit(address,address,address,uint160,uint48,uint48)"
                    },
                    "id": 3,
                    "logData": "0x000000000000000000000000ffffffffffffffffffffffffffffffffffffffff00000000000000000000000000000000000000000000000000000000640e2e470000000000000000000000000000000000000000000000000000000000000000",
                    "logDecoded": true,
                    "operation": "EVENT",
                    "revert": false,
                    "status": true,
                    "topics": [
                        "0xc6a377bfc4eb120024a8ac08eef205be16b817020812c73223e81d1bdb9708ec",
                        "0x0000000000000000000000006d0530de73561c370d649e5edb74cd65172a22f5",
                        "0x0000000000000000000000003bfcb1e14f2b1bfec9d611cd6b02d48ceef43491",
                        "0x000000000000000000000000ef1c6e67703c7bd7107eed8303fbe6ec2554bf6b"
                    ]
                },
                "nodeType": 1
            },
            "4": {
                "invocation": {
                    "address": "0x000000000022d473030f116ddee9f6b43ac78ba3",
                    "callData": "0x0000000000000000000000006d0530de73561c370d649e5edb74cd65172a22f500000000000000000000000091bf9b1a717219cfb42a8ef2aeba5cec6d7e5330000000000000000000000000000000000000000000002e4f3d25589e9c9cf8440000000000000000000000003bfcb1e14f2b1bfec9d611cd6b02d48ceef43491",
                    "decodedMethod": {
                        "callParams": [
                            {
                                "name": "from",
                                "type": "address",
                                "value": "0x6d0530de73561c370d649e5edb74cd65172a22f5"
                            },
                            {
                                "name": "to",
                                "type": "address",
                                "value": "0x91bf9b1a717219cfb42a8ef2aeba5cec6d7e5330"
                            },
                            {
                                "name": "amount",
                                "type": "uint160",
                                "value": "218,690,557,019,075,441,915,972"
                            },
                            {
                                "name": "token",
                                "type": "address",
                                "value": "0x3bfcb1e14f2b1bfec9d611cd6b02d48ceef43491"
                            }
                        ],
                        "constructorArguments": "",
                        "name": "transferFrom",
                        "returnParams": [],
                        "signature": "transferFrom(address,address,uint160,address)"
                    },
                    "errorInfo": "",
                    "fromAddress": "0xef1c6e67703c7bd7107eed8303fbe6ec2554bf6b",
                    "gasUsed": 18939,
                    "id": 4,
                    "methodDecoded": true,
                    "operation": "CALL",
                    "output": "",
                    "revert": false,
                    "revertMessage": "",
                    "selector": "0x36c78516",
                    "status": true,
                    "value": "0"
                },
                "nodeType": 0
            },
            "5": {
                "invocation": {
                    "address": "0x3bfcb1e14f2b1bfec9d611cd6b02d48ceef43491",
                    "callData": "0x0000000000000000000000006d0530de73561c370d649e5edb74cd65172a22f500000000000000000000000091bf9b1a717219cfb42a8ef2aeba5cec6d7e5330000000000000000000000000000000000000000000002e4f3d25589e9c9cf844",
                    "decodedMethod": {
                        "callParams": [
                            {
                                "name": "from",
                                "type": "address",
                                "value": "0x6d0530de73561c370d649e5edb74cd65172a22f5"
                            },
                            {
                                "name": "to",
                                "type": "address",
                                "value": "0x91bf9b1a717219cfb42a8ef2aeba5cec6d7e5330"
                            },
                            {
                                "decimalAvailable": true,
                                "name": "amount",
                                "type": "uint256",
                                "value": "218,690,557,019,075,441,915,972"
                            }
                        ],
                        "constructorArguments": "",
                        "name": "transferFrom",
                        "returnParams": [
                            {
                                "name": "",
                                "type": "bool",
                                "value": true
                            }
                        ],
                        "signature": "transferFrom(address,address,uint256)"
                    },
                    "errorInfo": "",
                    "fromAddress": "0x000000000022d473030f116ddee9f6b43ac78ba3",
                    "gasUsed": 15232,
                    "id": 5,
                    "methodDecoded": true,
                    "operation": "CALL",
                    "output": "0x0000000000000000000000000000000000000000000000000000000000000001",
                    "revert": false,
                    "revertMessage": "",
                    "selector": "0x23b872dd",
                    "status": true,
                    "value": "0"
                },
                "nodeType": 0
            },
            "6": {
                "event": {
                    "contract": "0x3bfcb1e14f2b1bfec9d611cd6b02d48ceef43491",
                    "decodedLog": {
                        "name": "Transfer",
                        "params": [
                            {
                                "name": "from",
                                "type": "address",
                                "value": "0x6d0530de73561c370d649e5edb74cd65172a22f5"
                            },
                            {
                                "name": "to",
                                "type": "address",
                                "value": "0x91bf9b1a717219cfb42a8ef2aeba5cec6d7e5330"
                            },
                            {
                                "decimalAvailable": true,
                                "name": "value",
                                "type": "uint256",
                                "value": "218,690,557,019,075,441,915,972"
                            }
                        ],
                        "signature": "Transfer(address,address,uint256)"
                    },
                    "id": 6,
                    "logData": "0x000000000000000000000000000000000000000000002e4f3d25589e9c9cf844",
                    "logDecoded": true,
                    "operation": "EVENT",
                    "revert": false,
                    "status": true,
                    "topics": [
                        "0xddf252ad1be2c89b69c2b068fc378daa952ba7f163c4a11628f55a4df523b3ef",
                        "0x0000000000000000000000006d0530de73561c370d649e5edb74cd65172a22f5",
                        "0x00000000000000000000000091bf9b1a717219cfb42a8ef2aeba5cec6d7e5330"
                    ]
                },
                "nodeType": 1
            },
            "7": {
                "invocation": {
                    "address": "0x4985f5f12ff9c62b14ce74aab3f2e1c0bc864d5b",
                    "callData": "0x0000000000000000000000006d0530de73561c370d649e5edb74cd65172a22f5",
                    "decodedMethod": {
                        "callParams": [
                            {
                                "name": "account",
                                "type": "address",
                                "value": "0x6d0530de73561c370d649e5edb74cd65172a22f5"
                            }
                        ],
                        "constructorArguments": "",
                        "name": "balanceOf",
                        "returnParams": [
                            {
                                "decimalAvailable": true,
                                "name": "",
                                "type": "uint256",
                                "value": "0"
                            }
                        ],
                        "signature": "balanceOf(address)"
                    },
                    "errorInfo": "",
                    "fromAddress": "0xef1c6e67703c7bd7107eed8303fbe6ec2554bf6b",
                    "gasUsed": 2863,
                    "id": 7,
                    "methodDecoded": true,
                    "operation": "STATICCALL",
                    "output": "0x0000000000000000000000000000000000000000000000000000000000000000",
                    "revert": false,
                    "revertMessage": "",
                    "selector": "0x70a08231",
                    "status": true,
                    "value": "0"
                },
                "nodeType": 0
            },
            "8": {
                "invocation": {
                    "address": "0x91bf9b1a717219cfb42a8ef2aeba5cec6d7e5330",
                    "callData": "0x",
                    "decodedMethod": {
                        "callParams": [],
                        "constructorArguments": "",
                        "name": "getReserves",
                        "returnParams": [
                            {
                                "name": "_reserve0",
                                "type": "uint112",
                                "value": "39,800,168,614,895,435,290,877,465"
                            },
                            {
                                "name": "_reserve1",
                                "type": "uint112",
                                "value": "7,753,777,787,896,390,435,892,045,326"
                            },
                            {
                                "name": "_blockTimestampLast",
                                "type": "uint32",
                                "value": "1,676,056,991"
                            }
                        ],
                        "signature": "getReserves()"
                    },
                    "errorInfo": "",
                    "fromAddress": "0xef1c6e67703c7bd7107eed8303fbe6ec2554bf6b",
                    "gasUsed": 2504,
                    "id": 8,
                    "methodDecoded": true,
                    "operation": "STATICCALL",
                    "output": "0x00000000000000000000000000000000000000000020ec0376c0b4950f259e190000000000000000000000000000000000000000190dc650215efed75c73260e0000000000000000000000000000000000000000000000000000000063e6999f",
                    "revert": false,
                    "revertMessage": "",
                    "selector": "0x0902f1ac",
                    "status": true,
                    "value": "0"
                },
                "nodeType": 0
            },
            "9": {
                "invocation": {
                    "address": "0x3bfcb1e14f2b1bfec9d611cd6b02d48ceef43491",
                    "callData": "0x00000000000000000000000091bf9b1a717219cfb42a8ef2aeba5cec6d7e5330",
                    "decodedMethod": {
                        "callParams": [
                            {
                                "name": "account",
                                "type": "address",
                                "value": "0x91bf9b1a717219cfb42a8ef2aeba5cec6d7e5330"
                            }
                        ],
                        "constructorArguments": "",
                        "name": "balanceOf",
                        "returnParams": [
                            {
                                "decimalAvailable": true,
                                "name": "",
                                "type": "uint256",
                                "value": "40,018,859,171,914,510,732,793,437"
                            }
                        ],
                        "signature": "balanceOf(address)"
                    },
                    "errorInfo": "",
                    "fromAddress": "0xef1c6e67703c7bd7107eed8303fbe6ec2554bf6b",
                    "gasUsed": 585,
                    "id": 9,
                    "methodDecoded": true,
                    "operation": "STATICCALL",
                    "output": "0x000000000000000000000000000000000000000000211a52b3e60d33abc2965d",
                    "revert": false,
                    "revertMessage": "",
                    "selector": "0x70a08231",
                    "status": true,
                    "value": "0"
                },
                "nodeType": 0
            }
        },
        "gasFlame": [
            {
                "children": [
                    {
                        "children": [
                            {
                                "children": [],
                                "depth": 0,
                                "name": "Initial Gas",
                                "value": 27368
                            },
                            {
                                "children": [
                                    {
                                        "children": [
                                            {
                                                "children": [],
                                                "depth": 2,
                                                "name": "ecrecover",
                                                "value": 3000
                                            }
                                        ],
                                        "depth": 1,
                                        "name": "permit",
                                        "value": 30786
                                    },
                                    {
                                        "children": [
                                            {
                                                "children": [],
                                                "depth": 2,
                                                "name": "transferFrom",
                                                "value": 15232
                                            }
                                        ],
                                        "depth": 1,
                                        "name": "transferFrom",
                                        "value": 18939
                                    },
                                    {
                                        "children": [],
                                        "depth": 1,
                                        "name": "balanceOf",
                                        "value": 2863
                                    },
                                    {
                                        "children": [],
                                        "depth": 1,
                                        "name": "getReserves",
                                        "value": 2504
                                    },
                                    {
                                        "children": [],
                                        "depth": 1,
                                        "name": "balanceOf",
                                        "value": 585
                                    },
                                    {
                                        "children": [
                                            {
                                                "children": [],
                                                "depth": 2,
                                                "name": "transfer",
                                                "value": 28748
                                            },
                                            {
                                                "children": [],
                                                "depth": 2,
                                                "name": "balanceOf",
                                                "value": 585
                                            },
                                            {
                                                "children": [],
                                                "depth": 2,
                                                "name": "balanceOf",
                                                "value": 863
                                            }
                                        ],
                                        "depth": 1,
                                        "name": "swap",
                                        "value": 61519
                                    },
                                    {
                                        "children": [],
                                        "depth": 1,
                                        "name": "balanceOf",
                                        "value": 863
                                    }
                                ],
                                "depth": 0,
                                "name": "Executed Gas",
                                "value": 142460
                            }
                        ],
                        "depth": -1,
                        "name": "Actual Gas Used",
                        "value": 159428
                    },
                    {
                        "children": [],
                        "depth": -1,
                        "name": "Refunded Gas",
                        "value": 10400
                    }
                ],
                "depth": -2,
                "name": "Total Gas",
                "value": 169828
            }
        ],
        "isConfirmed": true,
        "mainTrace": [
            {
                "children": [
                    {
                        "children": [
                            {
                                "children": [
                                    {
                                        "children": [],
                                        "depth": 2,
                                        "id": 2,
                                        "order": 2
                                    },
                                    {
                                        "children": [],
                                        "depth": 2,
                                        "id": 3,
                                        "order": 3
                                    }
                                ],
                                "depth": 1,
                                "id": 1,
                                "order": 1
                            },
                            {
                                "children": [
                                    {
                                        "children": [
                                            {
                                                "children": [],
                                                "depth": 3,
                                                "id": 6,
                                                "order": 6
                                            }
                                        ],
                                        "depth": 2,
                                        "id": 5,
                                        "order": 5
                                    }
                                ],
                                "depth": 1,
                                "id": 4,
                                "order": 4
                            },
                            {
                                "children": [],
                                "depth": 1,
                                "id": 7,
                                "order": 7
                            },
                            {
                                "children": [],
                                "depth": 1,
                                "id": 8,
                                "order": 8
                            },
                            {
                                "children": [],
                                "depth": 1,
                                "id": 9,
                                "order": 9
                            },
                            {
                                "children": [
                                    {
                                        "children": [
                                            {
                                                "children": [],
                                                "depth": 3,
                                                "id": 12,
                                                "order": 12
                                            }
                                        ],
                                        "depth": 2,
                                        "id": 11,
                                        "order": 11
                                    },
                                    {
                                        "children": [],
                                        "depth": 2,
                                        "id": 13,
                                        "order": 13
                                    },
                                    {
                                        "children": [],
                                        "depth": 2,
                                        "id": 14,
                                        "order": 14
                                    },
                                    {
                                        "children": [],
                                        "depth": 2,
                                        "id": 15,
                                        "order": 15
                                    },
                                    {
                                        "children": [],
                                        "depth": 2,
                                        "id": 16,
                                        "order": 16
                                    }
                                ],
                                "depth": 1,
                                "id": 10,
                                "order": 10
                            },
                            {
                                "children": [],
                                "depth": 1,
                                "id": 17,
                                "order": 17
                            }
                        ],
                        "depth": 0,
                        "id": 0,
                        "order": 0
                    }
                ],
                "depth": -1,
                "id": -1,
                "order": -1
            }
        ],
        "mainTraceNodeCount": 18,
        "parentIdMap": {
            "0": -1,
            "1": 0,
            "10": 0,
            "11": 10,
            "12": 11,
            "13": 10,
            "14": 10,
            "15": 10,
            "16": 10,
            "17": 0,
            "2": 1,
            "3": 1,
            "4": 0,
            "5": 4,
            "6": 5,
            "7": 0,
            "8": 0,
            "9": 0
        },
        "tidyTrace": [
            {
                "children": [
                    {
                        "children": [
                            {
                                "children": [
                                    {
                                        "children": [],
                                        "depth": 2,
                                        "id": 3,
                                        "order": 3
                                    }
                                ],
                                "depth": 1,
                                "id": 1,
                                "order": 1
                            },
                            {
                                "children": [
                                    {
                                        "children": [
                                            {
                                                "children": [],
                                                "depth": 3,
                                                "id": 6,
                                                "order": 6
                                            }
                                        ],
                                        "depth": 2,
                                        "id": 5,
                                        "order": 5
                                    }
                                ],
                                "depth": 1,
                                "id": 4,
                                "order": 4
                            },
                            {
                                "children": [
                                    {
                                        "children": [
                                            {
                                                "children": [],
                                                "depth": 3,
                                                "id": 12,
                                                "order": 12
                                            }
                                        ],
                                        "depth": 2,
                                        "id": 11,
                                        "order": 11
                                    },
                                    {
                                        "children": [],
                                        "depth": 2,
                                        "id": 15,
                                        "order": 15
                                    },
                                    {
                                        "children": [],
                                        "depth": 2,
                                        "id": 16,
                                        "order": 16
                                    }
                                ],
                                "depth": 1,
                                "id": 10,
                                "order": 10
                            }
                        ],
                        "depth": 0,
                        "id": 0,
                        "order": 0
                    }
                ],
                "depth": -1,
                "id": -1,
                "order": -1
            }
        ],
        "tidyTraceNodeCount": 11
    },
    "state_change": {
        "stateChanges": [
            {
                "address": "0x000000000022d473030f116ddee9f6b43ac78ba3",
                "erc": "",
                "slots": [
                    {
                        "current": "0x0000000000010000640e2e47ffffffffffffffffffffffffffffffffffffffff",
                        "key": "0xb2fa68d7987b9642782b51a3911bf05c73652da9232662e6069184da91f86dd8",
                        "prev": "0x0000000000000000000000000000000000000000000000000000000000000000"
                    }
                ],
                "storageVariables": [
                    {
                        "name": "allowance",
                        "type": "mapping(address => mapping(address => mapping(address => struct IAllowanceTransfer.PackedAllowance)))",
                        "value": {
                            "pairs": [
                                {
                                    "key": "0x6d0530de73561c370d649e5edb74cd65172a22f5",
                                    "value": {
                                        "pairs": [
                                            {
                                                "key": "0x3bfcb1e14f2b1bfec9d611cd6b02d48ceef43491",
                                                "value": {
                                                    "pairs": [
                                                        {
                                                            "key": "0xef1c6e67703c7bd7107eed8303fbe6ec2554bf6b",
                                                            "value": {
                                                                "fields": [
                                                                    {
                                                                        "name": "amount",
                                                                        "type": "uint160",
                                                                        "value": {
                                                                            "current": "1461501637330902918203684832716283019655932542975",
                                                                            "prev": "0",
                                                                            "typeTag": 1
                                                                        }
                                                                    },
                                                                    {
                                                                        "name": "expiration",
                                                                        "type": "uint48",
                                                                        "value": {
                                                                            "current": "1678650951",
                                                                            "prev": "0",
                                                                            "typeTag": 1
                                                                        }
                                                                    },
                                                                    {
                                                                        "name": "nonce",
                                                                        "type": "uint48",
                                                                        "value": {
                                                                            "current": "1",
                                                                            "prev": "0",
                                                                            "typeTag": 1
                                                                        }
                                                                    }
                                                                ],
                                                                "typeTag": 3
                                                            }
                                                        }
                                                    ],
                                                    "typeTag": 4
                                                }
                                            }
                                        ],
                                        "typeTag": 4
                                    }
                                }
                            ],
                            "typeTag": 4
                        }
                    }
                ]
            },
            {
                "address": "0x3bfcb1e14f2b1bfec9d611cd6b02d48ceef43491",
                "erc": "ERC-20",
                "slots": [
                    {
                        "current": "0x0000000000000000000000000000000000000000000000000000000000000000",
                        "key": "0x7785687b7826d1ebae41d7abeea3debbb7552094265a0cc76da9ae1d2a8fc159",
                        "prev": "0x000000000000000000000000000000000000000000002e4f3d25589e9c9cf844"
                    },
                    {
                        "current": "0x000000000000000000000000000000000000000000211a52b3e60d33abc2965d",
                        "key": "0x235228d85b516cb3c07b648ea13cf1a83c6cdd59bdf6ea05193320acf0a24b86",
                        "prev": "0x00000000000000000000000000000000000000000020ec0376c0b4950f259e19"
                    }
                ],
                "storageVariables": [
                    {
                        "name": "_balances",
                        "type": "mapping(address => uint256)",
                        "value": {
                            "pairs": [
                                {
                                    "key": "0x6d0530de73561c370d649e5edb74cd65172a22f5",
                                    "value": {
                                        "current": "0",
                                        "prev": "218690557019075441915972",
                                        "typeTag": 1
                                    }
                                },
                                {
                                    "key": "0x91bf9b1a717219cfb42a8ef2aeba5cec6d7e5330",
                                    "value": {
                                        "current": "40018859171914510732793437",
                                        "prev": "39800168614895435290877465",
                                        "typeTag": 1
                                    }
                                }
                            ],
                            "typeTag": 4
                        }
                    }
                ]
            },
            {
                "address": "0x4985f5f12ff9c62b14ce74aab3f2e1c0bc864d5b",
                "erc": "ERC-20",
                "slots": [
                    {
                        "current": "0x000000000000000000000000000000000000000018ead478582853aaac4573f2",
                        "key": "0x235228d85b516cb3c07b648ea13cf1a83c6cdd59bdf6ea05193320acf0a24b86",
                        "prev": "0x0000000000000000000000000000000000000000190dc650215efed75c73260e"
                    },
                    {
                        "current": "0x00000000000000000000000000000000000000000022f1d7c936ab2cb02db21c",
                        "key": "0x7785687b7826d1ebae41d7abeea3debbb7552094265a0cc76da9ae1d2a8fc159",
                        "prev": "0x0000000000000000000000000000000000000000000000000000000000000000"
                    }
                ],
                "storageVariables": [
                    {
                        "name": "_balances",
                        "type": "mapping(address => uint256)",
                        "value": {
                            "pairs": [
                                {
                                    "key": "0x6d0530de73561c370d649e5edb74cd65172a22f5",
                                    "value": {
                                        "current": "42245548738209082778694172",
                                        "prev": "0",
                                        "typeTag": 1
                                    }
                                },
                                {
                                    "key": "0x91bf9b1a717219cfb42a8ef2aeba5cec6d7e5330",
                                    "value": {
                                        "current": "7711532239158181353113351154",
                                        "prev": "7753777787896390435892045326",
                                        "typeTag": 1
                                    }
                                }
                            ],
                            "typeTag": 4
                        }
                    }
                ]
            },
            {
                "address": "0x91bf9b1a717219cfb42a8ef2aeba5cec6d7e5330",
                "erc": "ERC-20",
                "slots": [
                    {
                        "current": "0x000000000000000000000000000005ae575b5de311eade35647d301d265c3c78",
                        "key": "0x0000000000000000000000000000000000000000000000000000000000000009",
                        "prev": "0x000000000000000000000000000005a86b6e7c00b1bcda9259412dc23ebacc48"
                    },
                    {
                        "current": "0x000000000000000000000000000000000197f8d1698f2d7c33bcfe2b36c28984",
                        "key": "0x000000000000000000000000000000000000000000000000000000000000000a",
                        "prev": "0x00000000000000000000000000000000018dbf3b8c561ebebb9b6ae65e9cf88c"
                    },
                    {
                        "current": "0x63e6a167000018ead478582853aaac4573f2000000211a52b3e60d33abc2965d",
                        "key": "0x0000000000000000000000000000000000000000000000000000000000000008",
                        "prev": "0x63e6999f0000190dc650215efed75c73260e00000020ec0376c0b4950f259e19"
                    }
                ],
                "storageVariables": [
                    {
                        "name": "price0CumulativeLast",
                        "type": "uint256",
                        "value": {
                            "current": "494886678741946371439505891075070858378360",
                            "prev": "492871668364796117934181424840554283977800",
                            "typeTag": 1
                        }
                    },
                    {
                        "name": "price1CumulativeLast",
                        "type": "uint256",
                        "value": {
                            "current": "2118311450360363161385860490212837764",
                            "prev": "2065220510966226564043043055599417484",
                            "typeTag": 1
                        }
                    },
                    {
                        "name": "reserve0",
                        "type": "uint112",
                        "value": {
                            "current": "40018859171914510732793437",
                            "prev": "39800168614895435290877465",
                            "typeTag": 1
                        }
                    },
                    {
                        "name": "reserve1",
                        "type": "uint112",
                        "value": {
                            "current": "7711532239158181353113351154",
                            "prev": "7753777787896390435892045326",
                            "typeTag": 1
                        }
                    },
                    {
                        "name": "blockTimestampLast",
                        "type": "uint32",
                        "value": {
                            "current": "1676058983",
                            "prev": "1676056991",
                            "typeTag": 1
                        }
                    }
                ]
            }
        ]
    }
}