{
    "balance_change": {
        "balanceChanges": [
            {
                "account": "0xde3882f4819ef222a470ba58ae58b782597f6dda",
                "assets": [
                    {
                        "address": "0xd2299b3098cf5e13144caebfdad61ebe505233dc",
                        "amount": "6,533.01",
                        "iconUrl": "",
                        "isERC1155": false,
                        "isERC721": false,
                        "sign": false,
                        "value": ""
                    }
                ]
            },
            {
                "account": "0xb02f012be950e747bd993b957e626260a7dd33a1",
                "assets": [
                    {
                        "address": "0xd2299b3098cf5e13144caebfdad61ebe505233dc",
                        "amount": "6,533.01",
                        "iconUrl": "",
                        "isERC1155": false,
                        "isERC721": false,
                        "sign": true,
                        "value": ""
                    }
                ]
            }
        ]
    },
    "profile": {
        "basic_info": {
            "baseFee": "",
            "blockNumber": 7980240,
            "callData": "0xa9059cbb000000000000000000000000b02f012be950e747bd993b957e626260a7dd33a100000000000000000000000000000000000000000000016227b9fda12ab50000",
            "debugEnable": true,
            "errorInfo": "",
            "eventCount": 1,
            "feeRecipient": "0x5a0b54d5dc17e0aadc383d2db43b0a0d3e029c4c",
            "formatValue": "0",
            "gasLimit": 116280,
            "gasPrice": "9",
            "gasUsed": 53444,
            "intTxnCount": 0,
            "internalRevert": false,
            "internalRevertMessage": "",
            "isContractCreation": false,
            "isFlashloan": false,
            "maxFee": "",
            "nonce": 10620,
            "overwritedBlockNumber": -1,
            "priorityFee": "",
            "receiver": "0xd2299b3098cf5e13144caebfdad61ebe505233dc",
            "revertMessage": "",
            "sender": "0xde3882f4819ef222a470ba58ae58b782597f6dda",
            "simulationEnable": true,
            "sourceTxnHash": "0x28190fae97aa0664f6516328cc889873b9964f18a0a3ed56ac4260c039d2e513",
            "status": true,
            "timestamp": "2019-06-18T04:45:05Z",
            "transactionFee": "0.000480996",
            "txnHash": "0x28190fae97aa0664f6516328cc889873b9964f18a0a3ed56ac4260c039d2e513",
            "txnIndex": 76,
            "type": 0,
            "value": "0"
        },
        "fund_flow": [
            {
                "amount": "6,533.01",
                "from": "0xde3882f4819ef222a470ba58ae58b782597f6dda",
                "id": 1,
                "isERC1155": false,
                "isERC721": false,
                "isReverted": false,
                "order": 1,
                "to": "0xb02f012be950e747bd993b957e626260a7dd33a1",
                "token": "0xd2299b3098cf5e13144caebfdad61ebe505233dc"
            }
        ],
        "token_infos": [
            {
                "address": "0xeeeeeeeeeeeeeeeeeeeeeeeeeeeeeeeeeeeeeeee",
                "decimals": 18
            },
            {
                "address": "0xc02aaa39b223fe8d0a0e5c4f27ead9083c756cc2",
                "decimals": 18
            },
            {
                "address": "0xd2299b3098cf5e13144caebfdad61ebe505233dc",
                "decimals": 18
            }
        ]
    },
    "address_label": {
        "labels": [
            {
                "address": "0xeeeeeeeeeeeeeeeeeeeeeeeeeeeeeeeeeeeeeeee",
                "label": "Ether"
            },
            {
                "address": "0xb02f012be950e747bd993b957e626260a7dd33a1",
                "label": "MEXC"
            },
            {
                "address": "0xd2299b3098cf5e13144caebfdad61ebe505233dc",
                "label": "Aurum0x Protocol (AO)"
            },
            {
                "address": "0x0000000000000000000000000000000000000001",
                "label": "Precompiled"
            },
            {
                "address": "0x0000000000000000000000000000000000000002",
                "label": "Precompiled"
            },
            {
                "address": "0x0000000000000000000000000000000000000003",
                "label": "Precompiled"
            },
            {
                "address": "0x0000000000000000000000000000000000000004",
                "label": "Precompiled"
            }
        ]
    },
    "trace": {
        "accountLabels": null,
        "dataMap": {
            "-1": {
                "invocation": {
                    "address": "0xde3882f4819ef222a470ba58ae58b782597f6dda",
                    "callData": "",
                    "decodedMethod": null,
                    "errorInfo": "",
                    "fromAddress": "",
                    "gasUsed": 0,
                    "id": -1,
                    "methodDecoded": false,
                    "operation": "",
                    "output": "",
                    "revert": false,
                    "revertMessage": "",
                    "selector": "",
                    "status": false,
                    "value": ""
                },
                "nodeType": 0
            },
            "0": {
                "invocation": {
                    "address": "0xd2299b3098cf5e13144caebfdad61ebe505233dc",
                    "callData": "0x000000000000000000000000b02f012be950e747bd993b957e626260a7dd33a100000000000000000000000000000000000000000000016227b9fda12ab50000",
                    "decodedMethod": {
                        "callParams": [
                            {
                                "name": "_to",
                                "type": "address",
                                "value": "0xb02f012be950e747bd993b957e626260a7dd33a1"
                            },
                            {
                                "decimalAvailable": true,
                                "name": "_value",
                                "type": "uint256",
                                "value": "6,533,010,000,000,000,000,000"
                            }
                        ],
                        "constructorArguments": "",
                        "name": "transfer",
                        "returnParams": [
                            {
                                "name": "success",
                                "type": "bool",
                                "value": true
                            }
                        ],
                        "signature": "transfer(address,uint256)"
                    },
                    "errorInfo": "",
                    "fromAddress": "0xde3882f4819ef222a470ba58ae58b782597f6dda",
                    "gasUsed": 53444,
                    "id": 0,
                    "methodDecoded": true,
                    "operation": "CALL",
                    "output": "0x0000000000000000000000000000000000000000000000000000000000000001",
                    "revert": false,
                    "revertMessage": "",
                    "selector": "0xa9059cbb",
                    "status": true,
                    "value": "0"
                },
                "nodeType": 0
            },
            "1": {
                "event": {
                    "contract": "0xd2299b3098cf5e13144caebfdad61ebe505233dc",
                    "decodedLog": {
                        "name": "Transfer",
                        "params": [
                            {
                                "name": "from",
                                "type": "address",
                                "value": "0xde3882f4819ef222a470ba58ae58b782597f6dda"
                            },
                            {
                                "name": "to",
                                "type": "address",
                                "value": "0xb02f012be950e747bd993b957e626260a7dd33a1"
                            },
                            {
                                "decimalAvailable": true,
                                "name": "value",
                                "type": "uint256",
                                "value": "6,533,010,000,000,000,000,000"
                            }
                        ],
                        "signature": "Transfer(address,address,uint256)"
                    },
                    "id": 1,
                    "logData": "0x00000000000000000000000000000000000000000000016227b9fda12ab50000",
                    "logDecoded": true,
                    "operation": "EVENT",
                    "revert": false,
                    "status": true,
                    "topics": [
                        "0xddf252ad1be2c89b69c2b068fc378daa952ba7f163c4a11628f55a4df523b3ef",
                        "0x000000000000000000000000de3882f4819ef222a470ba58ae58b782597f6dda",
                        "0x000000000000000000000000b02f012be950e747bd993b957e626260a7dd33a1"
                    ]
                },
                "nodeType": 1
            }
        },
        "gasFlame": [
            {
                "children": [
                    {
                        "children": [
                            {
                                "children": [],
                                "depth": 0,
                                "name": "Initial Gas",
                                "value": 23320
                            },
                            {
                                "children": [],
                                "depth": 0,
                                "name": "Executed Gas",
                                "value": 30124
                            }
                        ],
                        "depth": -1,
                        "name": "Actual Gas Used",
                        "value": 53444
                    },
                    {
                        "children": [],
                        "depth": -1,
                        "name": "Refunded Gas",
                        "value": 0
                    }
                ],
                "depth": -2,
                "name": "Total Gas",
                "value": 53444
            }
        ],
        "isConfirmed": true,
        "mainTrace": [
            {
                "children": [
                    {
                        "children": [
                            {
                                "children": [],
                                "depth": 1,
                                "id": 1,
                                "order": 1
                            }
                        ],
                        "depth": 0,
                        "id": 0,
                        "order": 0
                    }
                ],
                "depth": -1,
                "id": -1,
                "order": -1
            }
        ],
        "mainTraceNodeCount": 2,
        "parentIdMap": {
            "0": -1,
            "1": 0
        },
        "tidyTrace": [
            {
                "children": [
                    {
                        "children": [
                            {
                                "children": [],
                                "depth": 1,
                                "id": 1,
                                "order": 1
                            }
                        ],
                        "depth": 0,
                        "id": 0,
                        "order": 0
                    }
                ],
                "depth": -1,
                "id": -1,
                "order": -1
            }
        ],
        "tidyTraceNodeCount": 2
    },
    "state_change": {
        "stateChanges": [
            {
                "address": "0xd2299b3098cf5e13144caebfdad61ebe505233dc",
                "erc": "ERC-20",
                "slots": [
                    {
                        "current": "0x00000000000000000000000000000000000000000000016227b9fda12ab50000",
                        "key": "0x3b69f1e881ead43595ade4397ada3039bff51dcf3bdb642c0aa61e2cc9113783",
                        "prev": "0x0000000000000000000000000000000000000000000000000000000000000000"
                    },
                    {
                        "current": "0x000000000000000000000000000000000000000000071e34b024c9edeaffc000",
                        "key": "0x29275f4f96a299fe75305fca30ad3bb7f4481d00758ae0d4060667c1024567fd",
                        "prev": "0x000000000000000000000000000000000000000000071f96d7dec78f15b4c000"
                    }
                ],
                "storageVariables": [
                    {
                        "name": "balanceOf",
                        "type": "mapping(address => uint256)",
                        "value": {
                            "pairs": [
                                {
                                    "key": "0xb02f012be950e747bd993b957e626260a7dd33a1",
                                    "value": {
                                        "current": "6533010000000000000000",
                                        "prev": "0",
                                        "typeTag": 1
                                    }
                                },
                                {
                                    "key": "0xde3882f4819ef222a470ba58ae58b782597f6dda",
                                    "value": {
                                        "current": "8605123654972000000000000",
                                        "prev": "8611656664972000000000000",
                                        "typeTag": 1
                                    }
                                }
                            ],
                            "typeTag": 4
                        }
                    }
                ]
            }
        ]
    }
}