{
    "balance_change": {
        "balanceChanges": [
            {
                "account": "0x5552dcfba48c94544beaaf26470df9898e050ac2",
                "assets": [
                    {
                        "address": "0xef68e7c694f40c8202821edf525de3782458639f",
                        "amount": "4.276127875404029823",
                        "iconUrl": "",
                        "isERC1155": false,
                        "isERC721": false,
                        "sign": true,
                        "value": ""
                    }
                ]
            },
            {
                "account": "0x8e63bb7af326de3fc6e09f4c8d54a75c6e236aba",
                "assets": [
                    {
                        "address": "0xef68e7c694f40c8202821edf525de3782458639f",
                        "amount": "1.069031968851007454",
                        "iconUrl": "",
                        "isERC1155": false,
                        "isERC721": false,
                        "sign": true,
                        "value": ""
                    }
                ]
            },
            {
                "account": "0x90ccd9720c663470d4f98b4819b2851a50b91b3a",
                "assets": [
                    {
                        "address": "0xef68e7c694f40c8202821edf525de3782458639f",
                        "amount": "102.599999999999999488",
                        "iconUrl": "",
                        "isERC1155": false,
                        "isERC721": false,
                        "sign": false,
                        "value": ""
                    },
                    {
                        "address": "0xc02aaa39b223fe8d0a0e5c4f27ead9083c756cc2",
                        "amount": "0.047168540893269106",
                        "iconUrl": "https://assets.blocksec.com/icon/f1cb2d02c471d545bbc7722daf3277fd852d98e63d118771af7047bd8256c516.png",
                        "isERC1155": false,
                        "isERC721": false,
                        "sign": true,
                        "value": ""
                    }
                ]
            },
            {
                "account": "0xcea4bb1a846378bc272fe071ea088a8b05bd6100",
                "assets": [
                    {
                        "address": "0xef68e7c694f40c8202821edf525de3782458639f",
                        "amount": "97.254840155744962211",
                        "iconUrl": "",
                        "isERC1155": false,
                        "isERC721": false,
                        "sign": true,
                        "value": ""
                    },
                    {
                        "address": "0xc02aaa39b223fe8d0a0e5c4f27ead9083c756cc2",
                        "amount": "0.047168540893269106",
                        "iconUrl": "https://assets.blocksec.com/icon/f1cb2d02c471d545bbc7722daf3277fd852d98e63d118771af7047bd8256c516.png",
                        "isERC1155": false,
                        "isERC721": false,
                        "sign": false,
                        "value": ""
                    }
                ]
            }
        ]
    },
    "profile": {
        "basic_info": {
            "baseFee": "",
            "blockNumber": 6446505,
            "callData": "0xe78aadb20000000000000000000000000000000000000000000000000000000000000120000000000000000000000000000000000000000000000000000000000000024000000000000000000000000000000000000000000000000000000000000003e0000000000000000000000000000000000000000000000000000000000000044000000000000000000000000000000000000000000000000000000000000004a0000000000000000000000000000000000000000000000000000000000000054000000000000000000000000000000000000000000000000000000000000005e00000000000000000000000005552dcfba48c94544beaaf26470df9898e050ac20000000000000000000000000000000000000000000000000000000000000000000000000000000000000000000000000000000000000000000000000000000200000000000000000000000090ccd9720c663470d4f98b4819b2851a50b91b3a000000000000000000000000ef68e7c694f40c8202821edf525de3782458639f0000000000000000000000008e63bb7af326de3fc6e09f4c8d54a75c6e236aba0000000000000000000000001b7005cd259b05530a114e4e31825e4200975ad0000000000000000000000000cea4bb1a846378bc272fe071ea088a8b05bd6100000000000000000000000000c02aaa39b223fe8d0a0e5c4f27ead9083c756cc20000000000000000000000008e63bb7af326de3fc6e09f4c8d54a75c6e236aba000000000000000000000000ccba588854218c000a6c218df6d55776032833c600000000000000000000000000000000000000000000000000000000000000020000000000000000000000000000000000000000000000056bc75e2d6310000000000000000000000000000000000000000000000000000000a2e45502f39ff8000000000000000000000000000000000000000000000000000000005bb4e008000000000000000000000000000000000000000000000000000000005bb6318800000000000000000000000000000000000000000000000024150e398003fe0000000000000000000000000000000000000000000000000544fc2d1346acd1c200000000000000000000000000000000000000000000000000b503e4551cb400000000000000000000000000000000000000000000000005b12aefafa8040000000000000000000000000000000000000000000000000000000000005bb4e101000000000000000000000000000000000000000000000000000000005bb63281000000000000000000000000000000000000000000000000280067c024e99e0000000000000000000000000000000000000000000000000000aff483d2be1d0b0000000000000000000000000000000000000000000000000000000000000002000000000000000000000000000000000000000000000000000000000000003200000000000000000000000000000000000000000000000000000000000000320000000000000000000000000000000000000000000000000000000000000002000000000000000000000000000000000000000000000000000000000000000000000000000000000000000000000000000000000000000000000000000000010000000000000000000000000000000000000000000000000000000000000004000000000000000000000000000000000000000000000000000000000000001b000000000000000000000000000000000000000000000000000000000000001b000000000000000000000000000000000000000000000000000000000000001b000000000000000000000000000000000000000000000000000000000000001b0000000000000000000000000000000000000000000000000000000000000004f02e47ae20c7df8d7cc555fe39a4a9168f7222c5ba2d0f0b9c6cc0035820d1a3d0f8f8f021de3baba42393631e2767c1ae65862f71136f3dda99abb70d0edabeb7f3f607c44ec796208a45431baf582eab4724b506aa0097e58467fedcb539ef83dc241f3cc980ab0a26a976dc5f232b3d4d99cc7e558492a50de581fd010d0d00000000000000000000000000000000000000000000000000000000000000044d4c586ac7ad0f889991a0dc0e5ceecc0fed84a376dd6d458f7c1bbcda535e180322b6180dea2185b408a07d2cda227e851a0c47a5fb8f52f8fa39673e389eb604fd3cd977572ad85d4aa1e8286ddd5c7d455941ba7f0102ac6541d6ac2d97c95e4d536c43ddd74a9eea20b104b57740489f4118adf53929de2727faea9bd9ab",
            "debugEnable": true,
            "errorInfo": "",
            "eventCount": 7,
            "feeRecipient": "0xea674fdde714fd979de3edf0f56aa9716b898ec8",
            "formatValue": "0",
            "gasLimit": 400000,
            "gasPrice": "10.104890638",
            "gasUsed": 346964,
            "intTxnCount": 24,
            "internalRevert": false,
            "internalRevertMessage": "",
            "isContractCreation": false,
            "isFlashloan": false,
            "maxFee": "",
            "nonce": 16206,
            "overwritedBlockNumber": -1,
            "priorityFee": "",
            "receiver": "0x8d8812b72d1e4ffcec158d25f56748b7d67c1e78",
            "revertMessage": "",
            "sender": "0x5552dcfba48c94544beaaf26470df9898e050ac2",
            "simulationEnable": true,
            "sourceTxnHash": "0x28e67947dad06e037b7ad847c67a89041dbf661b0a941e2c3253781c3458d226",
            "status": true,
            "timestamp": "2018-10-03T15:44:17Z",
            "transactionFee": "0.003506033275323032",
            "txnHash": "0x28e67947dad06e037b7ad847c67a89041dbf661b0a941e2c3253781c3458d226",
            "txnIndex": 58,
            "type": 0,
            "value": "0"
        },
        "fund_flow": [
            {
                "amount": "97.254840155744962211",
                "from": "0x90ccd9720c663470d4f98b4819b2851a50b91b3a",
                "id": 1,
                "isERC1155": false,
                "isERC721": false,
                "isReverted": false,
                "order": 1,
                "to": "0xcea4bb1a846378bc272fe071ea088a8b05bd6100",
                "token": "0xef68e7c694f40c8202821edf525de3782458639f"
            },
            {
                "amount": "1.069031968851007454",
                "from": "0x90ccd9720c663470d4f98b4819b2851a50b91b3a",
                "id": 2,
                "isERC1155": false,
                "isERC721": false,
                "isReverted": false,
                "order": 2,
                "to": "0x8e63bb7af326de3fc6e09f4c8d54a75c6e236aba",
                "token": "0xef68e7c694f40c8202821edf525de3782458639f"
            },
            {
                "amount": "4.276127875404029823",
                "from": "0x90ccd9720c663470d4f98b4819b2851a50b91b3a",
                "id": 3,
                "isERC1155": false,
                "isERC721": false,
                "isReverted": false,
                "order": 3,
                "to": "0x5552dcfba48c94544beaaf26470df9898e050ac2",
                "token": "0xef68e7c694f40c8202821edf525de3782458639f"
            },
            {
                "amount": "0.047168540893269106",
                "from": "0xcea4bb1a846378bc272fe071ea088a8b05bd6100",
                "id": 4,
                "isERC1155": false,
                "isERC721": false,
                "isReverted": false,
                "order": 4,
                "to": "0x90ccd9720c663470d4f98b4819b2851a50b91b3a",
                "token": "0xc02aaa39b223fe8d0a0e5c4f27ead9083c756cc2"
            }
        ],
        "token_infos": [
            {
                "address": "0xef68e7c694f40c8202821edf525de3782458639f",
                "decimals": 18
            },
            {
                "address": "0xeeeeeeeeeeeeeeeeeeeeeeeeeeeeeeeeeeeeeeee",
                "decimals": 18
            },
            {
                "address": "0xc02aaa39b223fe8d0a0e5c4f27ead9083c756cc2",
                "decimals": 18
            }
        ]
    },
    "address_label": {
        "labels": [
            {
                "address": "0x8e63bb7af326de3fc6e09f4c8d54a75c6e236aba",
                "label": "Loopring: WBTC Merchant Deposit Address"
            },
            {
                "address": "0x17233e07c67d086464fd408148c3abb56245fa64",
                "label": "TokenTransferDelegateImpl"
            },
            {
                "address": "0x8d8812b72d1e4ffcec158d25f56748b7d67c1e78",
                "label": "Loopring: Old Contract"
            },
            {
                "address": "0x0000000000000000000000000000000000000001",
                "label": "Precompiled"
            },
            {
                "address": "0x0000000000000000000000000000000000000002",
                "label": "Precompiled"
            },
            {
                "address": "0x0000000000000000000000000000000000000004",
                "label": "Precompiled"
            },
            {
                "address": "0xeeeeeeeeeeeeeeeeeeeeeeeeeeeeeeeeeeeeeeee",
                "label": "Ether"
            },
            {
                "address": "0xef68e7c694f40c8202821edf525de3782458639f",
                "label": "Loopring: Old Token"
            },
            {
                "address": "0x0000000000000000000000000000000000000003",
                "label": "Precompiled"
            },
            {
                "address": "0xc02aaa39b223fe8d0a0e5c4f27ead9083c756cc2",
                "label": "Wrapped Ether (WETH)"
            },
            {
                "address": "0xabe12e3548fdb334d11fcc962c413d91ef12233f",
                "label": "TokenRegistryImpl"
            }
        ]
    },
    "trace": {
        "accountLabels": null,
        "dataMap": {
            "-1": {
                "invocation": {
                    "address": "0x5552dcfba48c94544beaaf26470df9898e050ac2",
                    "callData": "",
                    "decodedMethod": null,
                    "errorInfo": "",
                    "fromAddress": "",
                    "gasUsed": 0,
                    "id": -1,
                    "methodDecoded": false,
                    "operation": "",
                    "output": "",
                    "revert": false,
                    "revertMessage": "",
                    "selector": "",
                    "status": false,
                    "value": ""
                },
                "nodeType": 0
            },
            "0": {
                "invocation": {
                    "address": "0x8d8812b72d1e4ffcec158d25f56748b7d67c1e78",
                    "callData": "0x0000000000000000000000000000000000000000000000000000000000000120000000000000000000000000000000000000000000000000000000000000024000000000000000000000000000000000000000000000000000000000000003e0000000000000000000000000000000000000000000000000000000000000044000000000000000000000000000000000000000000000000000000000000004a0000000000000000000000000000000000000000000000000000000000000054000000000000000000000000000000000000000000000000000000000000005e00000000000000000000000005552dcfba48c94544beaaf26470df9898e050ac20000000000000000000000000000000000000000000000000000000000000000000000000000000000000000000000000000000000000000000000000000000200000000000000000000000090ccd9720c663470d4f98b4819b2851a50b91b3a000000000000000000000000ef68e7c694f40c8202821edf525de3782458639f0000000000000000000000008e63bb7af326de3fc6e09f4c8d54a75c6e236aba0000000000000000000000001b7005cd259b05530a114e4e31825e4200975ad0000000000000000000000000cea4bb1a846378bc272fe071ea088a8b05bd6100000000000000000000000000c02aaa39b223fe8d0a0e5c4f27ead9083c756cc20000000000000000000000008e63bb7af326de3fc6e09f4c8d54a75c6e236aba000000000000000000000000ccba588854218c000a6c218df6d55776032833c600000000000000000000000000000000000000000000000000000000000000020000000000000000000000000000000000000000000000056bc75e2d6310000000000000000000000000000000000000000000000000000000a2e45502f39ff8000000000000000000000000000000000000000000000000000000005bb4e008000000000000000000000000000000000000000000000000000000005bb6318800000000000000000000000000000000000000000000000024150e398003fe0000000000000000000000000000000000000000000000000544fc2d1346acd1c200000000000000000000000000000000000000000000000000b503e4551cb400000000000000000000000000000000000000000000000005b12aefafa8040000000000000000000000000000000000000000000000000000000000005bb4e101000000000000000000000000000000000000000000000000000000005bb63281000000000000000000000000000000000000000000000000280067c024e99e0000000000000000000000000000000000000000000000000000aff483d2be1d0b0000000000000000000000000000000000000000000000000000000000000002000000000000000000000000000000000000000000000000000000000000003200000000000000000000000000000000000000000000000000000000000000320000000000000000000000000000000000000000000000000000000000000002000000000000000000000000000000000000000000000000000000000000000000000000000000000000000000000000000000000000000000000000000000010000000000000000000000000000000000000000000000000000000000000004000000000000000000000000000000000000000000000000000000000000001b000000000000000000000000000000000000000000000000000000000000001b000000000000000000000000000000000000000000000000000000000000001b000000000000000000000000000000000000000000000000000000000000001b0000000000000000000000000000000000000000000000000000000000000004f02e47ae20c7df8d7cc555fe39a4a9168f7222c5ba2d0f0b9c6cc0035820d1a3d0f8f8f021de3baba42393631e2767c1ae65862f71136f3dda99abb70d0edabeb7f3f607c44ec796208a45431baf582eab4724b506aa0097e58467fedcb539ef83dc241f3cc980ab0a26a976dc5f232b3d4d99cc7e558492a50de581fd010d0d00000000000000000000000000000000000000000000000000000000000000044d4c586ac7ad0f889991a0dc0e5ceecc0fed84a376dd6d458f7c1bbcda535e180322b6180dea2185b408a07d2cda227e851a0c47a5fb8f52f8fa39673e389eb604fd3cd977572ad85d4aa1e8286ddd5c7d455941ba7f0102ac6541d6ac2d97c95e4d536c43ddd74a9eea20b104b57740489f4118adf53929de2727faea9bd9ab",
                    "decodedMethod": {
                        "callParams": [
                            {
                                "name": "addressList",
                                "type": "address[4][]",
                                "value": [
                                    [
                                        "0x90ccd9720c663470d4f98b4819b2851a50b91b3a",
                                        "0xef68e7c694f40c8202821edf525de3782458639f",
                                        "0x8e63bb7af326de3fc6e09f4c8d54a75c6e236aba",
                                        "0x1b7005cd259b05530a114e4e31825e4200975ad0"
                                    ],
                                    [
                                        "0xcea4bb1a846378bc272fe071ea088a8b05bd6100",
                                        "0xc02aaa39b223fe8d0a0e5c4f27ead9083c756cc2",
                                        "0x8e63bb7af326de3fc6e09f4c8d54a75c6e236aba",
                                        "0xccba588854218c000a6c218df6d55776032833c6"
                                    ]
                                ]
                            },
                            {
                                "name": "uintArgsList",
                                "type": "uint256[6][]",
                                "value": [
                                    [
                                        "100,000,000,000,000,000,000",
                                        "45,849,999,999,999,992",
                                        "1,538,580,488",
                                        "1,538,666,888",
                                        "2,599,999,999,999,999,488",
                                        "97,204,618,018,071,302,594"
                                    ],
                                    [
                                        "50,951,250,000,000,000",
                                        "105,000,000,000,000,000,000",
                                        "1,538,580,737",
                                        "1,538,667,137",
                                        "2,882,417,836,467,789,312",
                                        "49,526,967,937,932,555"
                                    ]
                                ]
                            },
                            {
                                "name": "uint8ArgsList",
                                "type": "uint8[1][]",
                                "value": [
                                    [
                                        "50"
                                    ],
                                    [
                                        "50"
                                    ]
                                ]
                            },
                            {
                                "name": "buyNoMoreThanAmountBList",
                                "type": "bool[]",
                                "value": [
                                    false,
                                    true
                                ]
                            },
                            {
                                "name": "vList",
                                "type": "uint8[]",
                                "value": [
                                    "27",
                                    "27",
                                    "27",
                                    "27"
                                ]
                            },
                            {
                                "name": "rList",
                                "type": "bytes32[]",
                                "value": [
                                    "0xf02e47ae20c7df8d7cc555fe39a4a9168f7222c5ba2d0f0b9c6cc0035820d1a3",
                                    "0xd0f8f8f021de3baba42393631e2767c1ae65862f71136f3dda99abb70d0edabe",
                                    "0xb7f3f607c44ec796208a45431baf582eab4724b506aa0097e58467fedcb539ef",
                                    "0x83dc241f3cc980ab0a26a976dc5f232b3d4d99cc7e558492a50de581fd010d0d"
                                ]
                            },
                            {
                                "name": "sList",
                                "type": "bytes32[]",
                                "value": [
                                    "0x4d4c586ac7ad0f889991a0dc0e5ceecc0fed84a376dd6d458f7c1bbcda535e18",
                                    "0x0322b6180dea2185b408a07d2cda227e851a0c47a5fb8f52f8fa39673e389eb6",
                                    "0x04fd3cd977572ad85d4aa1e8286ddd5c7d455941ba7f0102ac6541d6ac2d97c9",
                                    "0x5e4d536c43ddd74a9eea20b104b57740489f4118adf53929de2727faea9bd9ab"
                                ]
                            },
                            {
                                "name": "feeRecipient",
                                "type": "address",
                                "value": "0x5552dcfba48c94544beaaf26470df9898e050ac2"
                            },
                            {
                                "name": "feeSelections",
                                "type": "uint16",
                                "value": "0"
                            }
                        ],
                        "constructorArguments": "",
                        "name": "submitRing",
                        "returnParams": [],
                        "signature": "submitRing(address[4][],uint256[6][],uint8[1][],bool[],uint8[],bytes32[],bytes32[],address,uint16)"
                    },
                    "errorInfo": "",
                    "fromAddress": "0x5552dcfba48c94544beaaf26470df9898e050ac2",
                    "gasUsed": 346964,
                    "id": 0,
                    "methodDecoded": true,
                    "operation": "CALL",
                    "output": "",
                    "revert": false,
                    "revertMessage": "",
                    "selector": "0xe78aadb2",
                    "status": true,
                    "value": "0"
                },
                "nodeType": 0
            },
            "1": {
                "invocation": {
                    "address": "0x0000000000000000000000000000000000000001",
                    "callData": "0x1dfa4866ed1012d83d91b087042e2c8d9b79378a14723724fa4a6d00000000000000000000000000000000000000000000000000000000000000001bf02e47ae20c7df8d7cc555fe39a4a9168f7222c5ba2d0f0b9c6cc0035820d1a34d4c586ac7ad0f889991a0dc0e5ceecc0fed84a376dd6d458f7c1bbcda535e18",
                    "decodedMethod": {
                        "callParams": [
                            {
                                "name": "hash",
                                "type": "bytes32",
                                "value": "0x6b50e2ff1dfa4866ed1012d83d91b087042e2c8d9b79378a14723724fa4a6d00"
                            },
                            {
                                "name": "v",
                                "type": "uint256",
                                "value": "27"
                            },
                            {
                                "name": "r",
                                "type": "bytes32",
                                "value": "0xf02e47ae20c7df8d7cc555fe39a4a9168f7222c5ba2d0f0b9c6cc0035820d1a3"
                            },
                            {
                                "name": "s",
                                "type": "bytes32",
                                "value": "0x4d4c586ac7ad0f889991a0dc0e5ceecc0fed84a376dd6d458f7c1bbcda535e18"
                            }
                        ],
                        "constructorArguments": "",
                        "name": "ecrecover",
                        "returnParams": [
                            {
                                "name": "",
                                "type": "address",
                                "value": "0x90ccd9720c663470d4f98b4819b2851a50b91b3a"
                            }
                        ],
                        "signature": "ecrecover(bytes32,uint256,bytes32,bytes32)"
                    },
                    "errorInfo": "",
                    "fromAddress": "0x8d8812b72d1e4ffcec158d25f56748b7d67c1e78",
                    "gasUsed": 3000,
                    "id": 1,
                    "methodDecoded": true,
                    "operation": "CALL",
                    "output": "0x00000000000000000000000090ccd9720c663470d4f98b4819b2851a50b91b3a",
                    "revert": false,
                    "revertMessage": "",
                    "selector": "0x6b50e2ff",
                    "status": true,
                    "value": "0"
                },
                "nodeType": 0
            },
            "10": {
                "invocation": {
                    "address": "0x17233e07c67d086464fd408148c3abb56245fa64",
                    "callData": "0x881b1079f733454deb88c81ba84f82b81c89718c1c24b460604d14f33d4de60e",
                    "decodedMethod": {
                        "callParams": [
                            {
                                "name": "",
                                "type": "bytes32",
                                "value": "0x881b1079f733454deb88c81ba84f82b81c89718c1c24b460604d14f33d4de60e"
                            }
                        ],
                        "constructorArguments": "",
                        "name": "cancelledOrFilled",
                        "returnParams": [
                            {
                                "name": "",
                                "type": "uint256",
                                "value": "0"
                            }
                        ],
                        "signature": "cancelledOrFilled(bytes32)"
                    },
                    "errorInfo": "",
                    "fromAddress": "0x8d8812b72d1e4ffcec158d25f56748b7d67c1e78",
                    "gasUsed": 753,
                    "id": 10,
                    "methodDecoded": true,
                    "operation": "CALL",
                    "output": "0x0000000000000000000000000000000000000000000000000000000000000000",
                    "revert": false,
                    "revertMessage": "",
                    "selector": "0x5511f319",
                    "status": true,
                    "value": "0"
                },
                "nodeType": 0
            },
            "11": {
                "invocation": {
                    "address": "0xc02aaa39b223fe8d0a0e5c4f27ead9083c756cc2",
                    "callData": "0x000000000000000000000000cea4bb1a846378bc272fe071ea088a8b05bd610000000000000000000000000017233e07c67d086464fd408148c3abb56245fa64",
                    "decodedMethod": {
                        "callParams": [
                            {
                                "name": "",
                                "type": "address",
                                "value": "0xcea4bb1a846378bc272fe071ea088a8b05bd6100"
                            },
                            {
                                "name": "",
                                "type": "address",
                                "value": "0x17233e07c67d086464fd408148c3abb56245fa64"
                            }
                        ],
                        "constructorArguments": "",
                        "name": "allowance",
                        "returnParams": [
                            {
                                "decimalAvailable": true,
                                "name": "",
                                "type": "uint256",
                                "value": "9,223,372,036,854,775,752,395,914,911,343,437,132"
                            }
                        ],
                        "signature": "allowance(address,address)"
                    },
                    "errorInfo": "",
                    "fromAddress": "0x8d8812b72d1e4ffcec158d25f56748b7d67c1e78",
                    "gasUsed": 817,
                    "id": 11,
                    "methodDecoded": true,
                    "operation": "CALL",
                    "output": "0x0000000000000000000000000000000006f05b59d3b1fffcfc569b370607e54c",
                    "revert": false,
                    "revertMessage": "",
                    "selector": "0xdd62ed3e",
                    "status": true,
                    "value": "0"
                },
                "nodeType": 0
            },
            "12": {
                "invocation": {
                    "address": "0xc02aaa39b223fe8d0a0e5c4f27ead9083c756cc2",
                    "callData": "0x000000000000000000000000cea4bb1a846378bc272fe071ea088a8b05bd6100",
                    "decodedMethod": {
                        "callParams": [
                            {
                                "name": "",
                                "type": "address",
                                "value": "0xcea4bb1a846378bc272fe071ea088a8b05bd6100"
                            }
                        ],
                        "constructorArguments": "",
                        "name": "balanceOf",
                        "returnParams": [
                            {
                                "decimalAvailable": true,
                                "name": "",
                                "type": "uint256",
                                "value": "4,997,223,914,463,066,443"
                            }
                        ],
                        "signature": "balanceOf(address)"
                    },
                    "errorInfo": "",
                    "fromAddress": "0x8d8812b72d1e4ffcec158d25f56748b7d67c1e78",
                    "gasUsed": 634,
                    "id": 12,
                    "methodDecoded": true,
                    "operation": "CALL",
                    "output": "0x0000000000000000000000000000000000000000000000004559b4ac7ca8794b",
                    "revert": false,
                    "revertMessage": "",
                    "selector": "0x70a08231",
                    "status": true,
                    "value": "0"
                },
                "nodeType": 0
            },
            "13": {
                "invocation": {
                    "address": "0xef68e7c694f40c8202821edf525de3782458639f",
                    "callData": "0x00000000000000000000000090ccd9720c663470d4f98b4819b2851a50b91b3a00000000000000000000000017233e07c67d086464fd408148c3abb56245fa64",
                    "decodedMethod": {
                        "callParams": [
                            {
                                "name": "_owner",
                                "type": "address",
                                "value": "0x90ccd9720c663470d4f98b4819b2851a50b91b3a"
                            },
                            {
                                "name": "_spender",
                                "type": "address",
                                "value": "0x17233e07c67d086464fd408148c3abb56245fa64"
                            }
                        ],
                        "constructorArguments": "",
                        "name": "allowance",
                        "returnParams": [
                            {
                                "decimalAvailable": true,
                                "name": "remaining",
                                "type": "uint256",
                                "value": "9,223,372,036,854,709,787,785,311,937,659,895,871"
                            }
                        ],
                        "signature": "allowance(address,address)"
                    },
                    "errorInfo": "",
                    "fromAddress": "0x8d8812b72d1e4ffcec158d25f56748b7d67c1e78",
                    "gasUsed": 1221,
                    "id": 13,
                    "methodDecoded": true,
                    "operation": "CALL",
                    "output": "0x0000000000000000000000000000000006f05b59d3b1f2050978334bc9a3803f",
                    "revert": false,
                    "revertMessage": "",
                    "selector": "0xdd62ed3e",
                    "status": true,
                    "value": "0"
                },
                "nodeType": 0
            },
            "14": {
                "invocation": {
                    "address": "0xef68e7c694f40c8202821edf525de3782458639f",
                    "callData": "0x00000000000000000000000090ccd9720c663470d4f98b4819b2851a50b91b3a",
                    "decodedMethod": {
                        "callParams": [
                            {
                                "name": "_owner",
                                "type": "address",
                                "value": "0x90ccd9720c663470d4f98b4819b2851a50b91b3a"
                            }
                        ],
                        "constructorArguments": "",
                        "name": "balanceOf",
                        "returnParams": [
                            {
                                "decimalAvailable": true,
                                "name": "balance",
                                "type": "uint256",
                                "value": "39,875,244,109,826,396,562,756"
                            }
                        ],
                        "signature": "balanceOf(address)"
                    },
                    "errorInfo": "",
                    "fromAddress": "0x8d8812b72d1e4ffcec158d25f56748b7d67c1e78",
                    "gasUsed": 791,
                    "id": 14,
                    "methodDecoded": true,
                    "operation": "CALL",
                    "output": "0x000000000000000000000000000000000000000000000871a42d31ca0db8a544",
                    "revert": false,
                    "revertMessage": "",
                    "selector": "0x70a08231",
                    "status": true,
                    "value": "0"
                },
                "nodeType": 0
            },
            "15": {
                "invocation": {
                    "address": "0xef68e7c694f40c8202821edf525de3782458639f",
                    "callData": "0x000000000000000000000000cea4bb1a846378bc272fe071ea088a8b05bd610000000000000000000000000017233e07c67d086464fd408148c3abb56245fa64",
                    "decodedMethod": {
                        "callParams": [
                            {
                                "name": "_owner",
                                "type": "address",
                                "value": "0xcea4bb1a846378bc272fe071ea088a8b05bd6100"
                            },
                            {
                                "name": "_spender",
                                "type": "address",
                                "value": "0x17233e07c67d086464fd408148c3abb56245fa64"
                            }
                        ],
                        "constructorArguments": "",
                        "name": "allowance",
                        "returnParams": [
                            {
                                "decimalAvailable": true,
                                "name": "remaining",
                                "type": "uint256",
                                "value": "9,223,372,036,854,688,434,324,136,250,784,165,584"
                            }
                        ],
                        "signature": "allowance(address,address)"
                    },
                    "errorInfo": "",
                    "fromAddress": "0x8d8812b72d1e4ffcec158d25f56748b7d67c1e78",
                    "gasUsed": 1221,
                    "id": 15,
                    "methodDecoded": true,
                    "operation": "CALL",
                    "output": "0x0000000000000000000000000000000006f05b59d3b1ed7f76aa977eb2592ed0",
                    "revert": false,
                    "revertMessage": "",
                    "selector": "0xdd62ed3e",
                    "status": true,
                    "value": "0"
                },
                "nodeType": 0
            },
            "16": {
                "invocation": {
                    "address": "0xef68e7c694f40c8202821edf525de3782458639f",
                    "callData": "0x000000000000000000000000cea4bb1a846378bc272fe071ea088a8b05bd6100",
                    "decodedMethod": {
                        "callParams": [
                            {
                                "name": "_owner",
                                "type": "address",
                                "value": "0xcea4bb1a846378bc272fe071ea088a8b05bd6100"
                            }
                        ],
                        "constructorArguments": "",
                        "name": "balanceOf",
                        "returnParams": [
                            {
                                "decimalAvailable": true,
                                "name": "balance",
                                "type": "uint256",
                                "value": "14,697,988,054,733,929,230,880"
                            }
                        ],
                        "signature": "balanceOf(address)"
                    },
                    "errorInfo": "",
                    "fromAddress": "0x8d8812b72d1e4ffcec158d25f56748b7d67c1e78",
                    "gasUsed": 791,
                    "id": 16,
                    "methodDecoded": true,
                    "operation": "CALL",
                    "output": "0x00000000000000000000000000000000000000000000031cc78f36809682b220",
                    "revert": false,
                    "revertMessage": "",
                    "selector": "0x70a08231",
                    "status": true,
                    "value": "0"
                },
                "nodeType": 0
            },
            "17": {
                "invocation": {
                    "address": "0x17233e07c67d086464fd408148c3abb56245fa64",
                    "callData": "0x00000000000000000000000000000000000000000000000000000000000000200000000000000000000000000000000000000000000000000000000000000004ab0b705ef26db2be8c738d12c26afbe5cdc9b83499f7a72d301c6a30366b9ef80000000000000000000000000000000000000000000000056bc75e2d63100000881b1079f733454deb88c81ba84f82b81c89718c1c24b460604d14f33d4de60e0000000000000000000000000000000000000000000000056bc75e2d63100000",
                    "decodedMethod": {
                        "callParams": [
                            {
                                "name": "batch",
                                "type": "bytes32[]",
                                "value": [
                                    "0xab0b705ef26db2be8c738d12c26afbe5cdc9b83499f7a72d301c6a30366b9ef8",
                                    "0x0000000000000000000000000000000000000000000000056bc75e2d63100000",
                                    "0x881b1079f733454deb88c81ba84f82b81c89718c1c24b460604d14f33d4de60e",
                                    "0x0000000000000000000000000000000000000000000000056bc75e2d63100000"
                                ]
                            }
                        ],
                        "constructorArguments": "",
                        "name": "batchAddCancelledOrFilled",
                        "returnParams": [],
                        "signature": "batchAddCancelledOrFilled(bytes32[])"
                    },
                    "errorInfo": "",
                    "fromAddress": "0x8d8812b72d1e4ffcec158d25f56748b7d67c1e78",
                    "gasUsed": 42980,
                    "id": 17,
                    "methodDecoded": true,
                    "operation": "CALL",
                    "output": "",
                    "revert": false,
                    "revertMessage": "",
                    "selector": "0x73964787",
                    "status": true,
                    "value": "0"
                },
                "nodeType": 0
            },
            "18": {
                "invocation": {
                    "address": "0x17233e07c67d086464fd408148c3abb56245fa64",
                    "callData": "0x000000000000000000000000ef68e7c694f40c8202821edf525de3782458639f0000000000000000000000005552dcfba48c94544beaaf26470df9898e050ac20000000000000000000000005552dcfba48c94544beaaf26470df9898e050ac2000000000000000000000000000000000000000000000000000000000000001400000000000000000000000000000000000000000000000000000000000000a0000000000000000000000000000000000000000000000000000000000000000e00000000000000000000000090ccd9720c663470d4f98b4819b2851a50b91b3a000000000000000000000000ef68e7c694f40c8202821edf525de3782458639f00000000000000000000000000000000000000000000000545ae99d7ea9306a30000000000000000000000000000000000000000000000002618c455787cf95d000000000000000000000000000000000000000000000000000000000000000000000000000000000000000000000000000000000000000024150e398003fe000000000000000000000000008e63bb7af326de3fc6e09f4c8d54a75c6e236aba000000000000000000000000cea4bb1a846378bc272fe071ea088a8b05bd6100000000000000000000000000c02aaa39b223fe8d0a0e5c4f27ead9083c756cc200000000000000000000000000000000000000000000000000a79389bc844c720000000000000000000000000000000000000000000000000000000000000000000000000000000000000000000000000000000000000000000000000000000000000000000000000000000000000000000000000000000000000000000000000000000000000000000000008e63bb7af326de3fc6e09f4c8d54a75c6e236aba",
                    "decodedMethod": {
                        "callParams": [
                            {
                                "name": "lrcTokenAddress",
                                "type": "address",
                                "value": "0xef68e7c694f40c8202821edf525de3782458639f"
                            },
                            {
                                "name": "miner",
                                "type": "address",
                                "value": "0x5552dcfba48c94544beaaf26470df9898e050ac2"
                            },
                            {
                                "name": "feeRecipient",
                                "type": "address",
                                "value": "0x5552dcfba48c94544beaaf26470df9898e050ac2"
                            },
                            {
                                "name": "walletSplitPercentage",
                                "type": "uint8",
                                "value": "20"
                            },
                            {
                                "name": "batch",
                                "type": "bytes32[]",
                                "value": [
                                    "0x00000000000000000000000090ccd9720c663470d4f98b4819b2851a50b91b3a",
                                    "0x000000000000000000000000ef68e7c694f40c8202821edf525de3782458639f",
                                    "0x00000000000000000000000000000000000000000000000545ae99d7ea9306a3",
                                    "0x0000000000000000000000000000000000000000000000002618c455787cf95d",
                                    "0x0000000000000000000000000000000000000000000000000000000000000000",
                                    "0x00000000000000000000000000000000000000000000000024150e398003fe00",
                                    "0x0000000000000000000000008e63bb7af326de3fc6e09f4c8d54a75c6e236aba",
                                    "0x000000000000000000000000cea4bb1a846378bc272fe071ea088a8b05bd6100",
                                    "0x000000000000000000000000c02aaa39b223fe8d0a0e5c4f27ead9083c756cc2",
                                    "0x00000000000000000000000000000000000000000000000000a79389bc844c72",
                                    "0x0000000000000000000000000000000000000000000000000000000000000000",
                                    "0x0000000000000000000000000000000000000000000000000000000000000000",
                                    "0x0000000000000000000000000000000000000000000000000000000000000000",
                                    "0x0000000000000000000000008e63bb7af326de3fc6e09f4c8d54a75c6e236aba"
                                ]
                            }
                        ],
                        "constructorArguments": "",
                        "name": "batchTransferToken",
                        "returnParams": [],
                        "signature": "batchTransferToken(address,address,address,uint8,bytes32[])"
                    },
                    "errorInfo": "",
                    "fromAddress": "0x8d8812b72d1e4ffcec158d25f56748b7d67c1e78",
                    "gasUsed": 130797,
                    "id": 18,
                    "methodDecoded": true,
                    "operation": "CALL",
                    "output": "",
                    "revert": false,
                    "revertMessage": "",
                    "selector": "0x4390a4f8",
                    "status": true,
                    "value": "0"
                },
                "nodeType": 0
            },
            "19": {
                "invocation": {
                    "address": "0xef68e7c694f40c8202821edf525de3782458639f",
                    "callData": "0x00000000000000000000000090ccd9720c663470d4f98b4819b2851a50b91b3a000000000000000000000000cea4bb1a846378bc272fe071ea088a8b05bd610000000000000000000000000000000000000000000000000545ae99d7ea9306a3",
                    "decodedMethod": {
                        "callParams": [
                            {
                                "name": "_from",
                                "type": "address",
                                "value": "0x90ccd9720c663470d4f98b4819b2851a50b91b3a"
                            },
                            {
                                "name": "_to",
                                "type": "address",
                                "value": "0xcea4bb1a846378bc272fe071ea088a8b05bd6100"
                            },
                            {
                                "decimalAvailable": true,
                                "name": "_value",
                                "type": "uint256",
                                "value": "97,254,840,155,744,962,211"
                            }
                        ],
                        "constructorArguments": "",
                        "name": "transferFrom",
                        "returnParams": [],
                        "signature": "transferFrom(address,address,uint256)"
                    },
                    "errorInfo": "",
                    "fromAddress": "0x17233e07c67d086464fd408148c3abb56245fa64",
                    "gasUsed": 18951,
                    "id": 19,
                    "methodDecoded": true,
                    "operation": "CALL",
                    "output": "",
                    "revert": false,
                    "revertMessage": "",
                    "selector": "0x23b872dd",
                    "status": true,
                    "value": "0"
                },
                "nodeType": 0
            },
            "2": {
                "invocation": {
                    "address": "0x0000000000000000000000000000000000000001",
                    "callData": "0x66af8fea0f31bdbc02c034251191343d1150f0621eec1f91ba71496d000000000000000000000000000000000000000000000000000000000000001bd0f8f8f021de3baba42393631e2767c1ae65862f71136f3dda99abb70d0edabe0322b6180dea2185b408a07d2cda227e851a0c47a5fb8f52f8fa39673e389eb6",
                    "decodedMethod": {
                        "callParams": [
                            {
                                "name": "hash",
                                "type": "bytes32",
                                "value": "0xd561b9a066af8fea0f31bdbc02c034251191343d1150f0621eec1f91ba71496d"
                            },
                            {
                                "name": "v",
                                "type": "uint256",
                                "value": "27"
                            },
                            {
                                "name": "r",
                                "type": "bytes32",
                                "value": "0xd0f8f8f021de3baba42393631e2767c1ae65862f71136f3dda99abb70d0edabe"
                            },
                            {
                                "name": "s",
                                "type": "bytes32",
                                "value": "0x0322b6180dea2185b408a07d2cda227e851a0c47a5fb8f52f8fa39673e389eb6"
                            }
                        ],
                        "constructorArguments": "",
                        "name": "ecrecover",
                        "returnParams": [
                            {
                                "name": "",
                                "type": "address",
                                "value": "0xcea4bb1a846378bc272fe071ea088a8b05bd6100"
                            }
                        ],
                        "signature": "ecrecover(bytes32,uint256,bytes32,bytes32)"
                    },
                    "errorInfo": "",
                    "fromAddress": "0x8d8812b72d1e4ffcec158d25f56748b7d67c1e78",
                    "gasUsed": 3000,
                    "id": 2,
                    "methodDecoded": true,
                    "operation": "CALL",
                    "output": "0x000000000000000000000000cea4bb1a846378bc272fe071ea088a8b05bd6100",
                    "revert": false,
                    "revertMessage": "",
                    "selector": "0xd561b9a0",
                    "status": true,
                    "value": "0"
                },
                "nodeType": 0
            },
            "20": {
                "event": {
                    "contract": "0xef68e7c694f40c8202821edf525de3782458639f",
                    "decodedLog": {
                        "name": "Transfer",
                        "params": [
                            {
                                "name": "from",
                                "type": "address",
                                "value": "0x90ccd9720c663470d4f98b4819b2851a50b91b3a"
                            },
                            {
                                "name": "to",
                                "type": "address",
                                "value": "0xcea4bb1a846378bc272fe071ea088a8b05bd6100"
                            },
                            {
                                "decimalAvailable": true,
                                "name": "value",
                                "type": "uint256",
                                "value": "97,254,840,155,744,962,211"
                            }
                        ],
                        "signature": "Transfer(address,address,uint256)"
                    },
                    "id": 20,
                    "logData": "0x00000000000000000000000000000000000000000000000545ae99d7ea9306a3",
                    "logDecoded": true,
                    "operation": "EVENT",
                    "revert": false,
                    "status": true,
                    "topics": [
                        "0xddf252ad1be2c89b69c2b068fc378daa952ba7f163c4a11628f55a4df523b3ef",
                        "0x00000000000000000000000090ccd9720c663470d4f98b4819b2851a50b91b3a",
                        "0x000000000000000000000000cea4bb1a846378bc272fe071ea088a8b05bd6100"
                    ]
                },
                "nodeType": 1
            },
            "21": {
                "invocation": {
                    "address": "0xef68e7c694f40c8202821edf525de3782458639f",
                    "callData": "0x00000000000000000000000090ccd9720c663470d4f98b4819b2851a50b91b3a0000000000000000000000008e63bb7af326de3fc6e09f4c8d54a75c6e236aba000000000000000000000000000000000000000000000000079e8daab1b29845",
                    "decodedMethod": {
                        "callParams": [
                            {
                                "name": "_from",
                                "type": "address",
                                "value": "0x90ccd9720c663470d4f98b4819b2851a50b91b3a"
                            },
                            {
                                "name": "_to",
                                "type": "address",
                                "value": "0x8e63bb7af326de3fc6e09f4c8d54a75c6e236aba"
                            },
                            {
                                "decimalAvailable": true,
                                "name": "_value",
                                "type": "uint256",
                                "value": "549,031,968,851,007,557"
                            }
                        ],
                        "constructorArguments": "",
                        "name": "transferFrom",
                        "returnParams": [],
                        "signature": "transferFrom(address,address,uint256)"
                    },
                    "errorInfo": "",
                    "fromAddress": "0x17233e07c67d086464fd408148c3abb56245fa64",
                    "gasUsed": 18951,
                    "id": 21,
                    "methodDecoded": true,
                    "operation": "CALL",
                    "output": "",
                    "revert": false,
                    "revertMessage": "",
                    "selector": "0x23b872dd",
                    "status": true,
                    "value": "0"
                },
                "nodeType": 0
            },
            "22": {
                "event": {
                    "contract": "0xef68e7c694f40c8202821edf525de3782458639f",
                    "decodedLog": {
                        "name": "Transfer",
                        "params": [
                            {
                                "name": "from",
                                "type": "address",
                                "value": "0x90ccd9720c663470d4f98b4819b2851a50b91b3a"
                            },
                            {
                                "name": "to",
                                "type": "address",
                                "value": "0x8e63bb7af326de3fc6e09f4c8d54a75c6e236aba"
                            },
                            {
                                "decimalAvailable": true,
                                "name": "value",
                                "type": "uint256",
                                "value": "549,031,968,851,007,557"
                            }
                        ],
                        "signature": "Transfer(address,address,uint256)"
                    },
                    "id": 22,
                    "logData": "0x000000000000000000000000000000000000000000000000079e8daab1b29845",
                    "logDecoded": true,
                    "operation": "EVENT",
                    "revert": false,
                    "status": true,
                    "topics": [
                        "0xddf252ad1be2c89b69c2b068fc378daa952ba7f163c4a11628f55a4df523b3ef",
                        "0x00000000000000000000000090ccd9720c663470d4f98b4819b2851a50b91b3a",
                        "0x0000000000000000000000008e63bb7af326de3fc6e09f4c8d54a75c6e236aba"
                    ]
                },
                "nodeType": 1
            },
            "23": {
                "invocation": {
                    "address": "0xef68e7c694f40c8202821edf525de3782458639f",
                    "callData": "0x00000000000000000000000090ccd9720c663470d4f98b4819b2851a50b91b3a0000000000000000000000005552dcfba48c94544beaaf26470df9898e050ac20000000000000000000000000000000000000000000000001e7a36aac6ca6118",
                    "decodedMethod": {
                        "callParams": [
                            {
                                "name": "_from",
                                "type": "address",
                                "value": "0x90ccd9720c663470d4f98b4819b2851a50b91b3a"
                            },
                            {
                                "name": "_to",
                                "type": "address",
                                "value": "0x5552dcfba48c94544beaaf26470df9898e050ac2"
                            },
                            {
                                "decimalAvailable": true,
                                "name": "_value",
                                "type": "uint256",
                                "value": "2,196,127,875,404,030,232"
                            }
                        ],
                        "constructorArguments": "",
                        "name": "transferFrom",
                        "returnParams": [],
                        "signature": "transferFrom(address,address,uint256)"
                    },
                    "errorInfo": "",
                    "fromAddress": "0x17233e07c67d086464fd408148c3abb56245fa64",
                    "gasUsed": 18951,
                    "id": 23,
                    "methodDecoded": true,
                    "operation": "CALL",
                    "output": "",
                    "revert": false,
                    "revertMessage": "",
                    "selector": "0x23b872dd",
                    "status": true,
                    "value": "0"
                },
                "nodeType": 0
            },
            "24": {
                "event": {
                    "contract": "0xef68e7c694f40c8202821edf525de3782458639f",
                    "decodedLog": {
                        "name": "Transfer",
                        "params": [
                            {
                                "name": "from",
                                "type": "address",
                                "value": "0x90ccd9720c663470d4f98b4819b2851a50b91b3a"
                            },
                            {
                                "name": "to",
                                "type": "address",
                                "value": "0x5552dcfba48c94544beaaf26470df9898e050ac2"
                            },
                            {
                                "decimalAvailable": true,
                                "name": "value",
                                "type": "uint256",
                                "value": "2,196,127,875,404,030,232"
                            }
                        ],
                        "signature": "Transfer(address,address,uint256)"
                    },
                    "id": 24,
                    "logData": "0x0000000000000000000000000000000000000000000000001e7a36aac6ca6118",
                    "logDecoded": true,
                    "operation": "EVENT",
                    "revert": false,
                    "status": true,
                    "topics": [
                        "0xddf252ad1be2c89b69c2b068fc378daa952ba7f163c4a11628f55a4df523b3ef",
                        "0x00000000000000000000000090ccd9720c663470d4f98b4819b2851a50b91b3a",
                        "0x0000000000000000000000005552dcfba48c94544beaaf26470df9898e050ac2"
                    ]
                },
                "nodeType": 1
            },
            "25": {
                "invocation": {
                    "address": "0xef68e7c694f40c8202821edf525de3782458639f",
                    "callData": "0x00000000000000000000000090ccd9720c663470d4f98b4819b2851a50b91b3a0000000000000000000000008e63bb7af326de3fc6e09f4c8d54a75c6e236aba0000000000000000000000000000000000000000000000000737693eb333ff99",
                    "decodedMethod": {
                        "callParams": [
                            {
                                "name": "_from",
                                "type": "address",
                                "value": "0x90ccd9720c663470d4f98b4819b2851a50b91b3a"
                            },
                            {
                                "name": "_to",
                                "type": "address",
                                "value": "0x8e63bb7af326de3fc6e09f4c8d54a75c6e236aba"
                            },
                            {
                                "decimalAvailable": true,
                                "name": "_value",
                                "type": "uint256",
                                "value": "519,999,999,999,999,897"
                            }
                        ],
                        "constructorArguments": "",
                        "name": "transferFrom",
                        "returnParams": [],
                        "signature": "transferFrom(address,address,uint256)"
                    },
                    "errorInfo": "",
                    "fromAddress": "0x17233e07c67d086464fd408148c3abb56245fa64",
                    "gasUsed": 18951,
                    "id": 25,
                    "methodDecoded": true,
                    "operation": "CALL",
                    "output": "",
                    "revert": false,
                    "revertMessage": "",
                    "selector": "0x23b872dd",
                    "status": true,
                    "value": "0"
                },
                "nodeType": 0
            },
            "26": {
                "event": {
                    "contract": "0xef68e7c694f40c8202821edf525de3782458639f",
                    "decodedLog": {
                        "name": "Transfer",
                        "params": [
                            {
                                "name": "from",
                                "type": "address",
                                "value": "0x90ccd9720c663470d4f98b4819b2851a50b91b3a"
                            },
                            {
                                "name": "to",
                                "type": "address",
                                "value": "0x8e63bb7af326de3fc6e09f4c8d54a75c6e236aba"
                            },
                            {
                                "decimalAvailable": true,
                                "name": "value",
                                "type": "uint256",
                                "value": "519,999,999,999,999,897"
                            }
                        ],
                        "signature": "Transfer(address,address,uint256)"
                    },
                    "id": 26,
                    "logData": "0x0000000000000000000000000000000000000000000000000737693eb333ff99",
                    "logDecoded": true,
                    "operation": "EVENT",
                    "revert": false,
                    "status": true,
                    "topics": [
                        "0xddf252ad1be2c89b69c2b068fc378daa952ba7f163c4a11628f55a4df523b3ef",
                        "0x00000000000000000000000090ccd9720c663470d4f98b4819b2851a50b91b3a",
                        "0x0000000000000000000000008e63bb7af326de3fc6e09f4c8d54a75c6e236aba"
                    ]
                },
                "nodeType": 1
            },
            "27": {
                "invocation": {
                    "address": "0xef68e7c694f40c8202821edf525de3782458639f",
                    "callData": "0x00000000000000000000000090ccd9720c663470d4f98b4819b2851a50b91b3a0000000000000000000000005552dcfba48c94544beaaf26470df9898e050ac20000000000000000000000000000000000000000000000001cdda4facccffe67",
                    "decodedMethod": {
                        "callParams": [
                            {
                                "name": "_from",
                                "type": "address",
                                "value": "0x90ccd9720c663470d4f98b4819b2851a50b91b3a"
                            },
                            {
                                "name": "_to",
                                "type": "address",
                                "value": "0x5552dcfba48c94544beaaf26470df9898e050ac2"
                            },
                            {
                                "decimalAvailable": true,
                                "name": "_value",
                                "type": "uint256",
                                "value": "2,079,999,999,999,999,591"
                            }
                        ],
                        "constructorArguments": "",
                        "name": "transferFrom",
                        "returnParams": [],
                        "signature": "transferFrom(address,address,uint256)"
                    },
                    "errorInfo": "",
                    "fromAddress": "0x17233e07c67d086464fd408148c3abb56245fa64",
                    "gasUsed": 18951,
                    "id": 27,
                    "methodDecoded": true,
                    "operation": "CALL",
                    "output": "",
                    "revert": false,
                    "revertMessage": "",
                    "selector": "0x23b872dd",
                    "status": true,
                    "value": "0"
                },
                "nodeType": 0
            },
            "28": {
                "event": {
                    "contract": "0xef68e7c694f40c8202821edf525de3782458639f",
                    "decodedLog": {
                        "name": "Transfer",
                        "params": [
                            {
                                "name": "from",
                                "type": "address",
                                "value": "0x90ccd9720c663470d4f98b4819b2851a50b91b3a"
                            },
                            {
                                "name": "to",
                                "type": "address",
                                "value": "0x5552dcfba48c94544beaaf26470df9898e050ac2"
                            },
                            {
                                "decimalAvailable": true,
                                "name": "value",
                                "type": "uint256",
                                "value": "2,079,999,999,999,999,591"
                            }
                        ],
                        "signature": "Transfer(address,address,uint256)"
                    },
                    "id": 28,
                    "logData": "0x0000000000000000000000000000000000000000000000001cdda4facccffe67",
                    "logDecoded": true,
                    "operation": "EVENT",
                    "revert": false,
                    "status": true,
                    "topics": [
                        "0xddf252ad1be2c89b69c2b068fc378daa952ba7f163c4a11628f55a4df523b3ef",
                        "0x00000000000000000000000090ccd9720c663470d4f98b4819b2851a50b91b3a",
                        "0x0000000000000000000000005552dcfba48c94544beaaf26470df9898e050ac2"
                    ]
                },
                "nodeType": 1
            },
            "29": {
                "invocation": {
                    "address": "0xc02aaa39b223fe8d0a0e5c4f27ead9083c756cc2",
                    "callData": "0x000000000000000000000000cea4bb1a846378bc272fe071ea088a8b05bd610000000000000000000000000090ccd9720c663470d4f98b4819b2851a50b91b3a00000000000000000000000000000000000000000000000000a79389bc844c72",
                    "decodedMethod": {
                        "callParams": [
                            {
                                "name": "src",
                                "type": "address",
                                "value": "0xcea4bb1a846378bc272fe071ea088a8b05bd6100"
                            },
                            {
                                "name": "dst",
                                "type": "address",
                                "value": "0x90ccd9720c663470d4f98b4819b2851a50b91b3a"
                            },
                            {
                                "decimalAvailable": true,
                                "name": "wad",
                                "type": "uint256",
                                "value": "47,168,540,893,269,106"
                            }
                        ],
                        "constructorArguments": "",
                        "name": "transferFrom",
                        "returnParams": [
                            {
                                "name": "",
                                "type": "bool",
                                "value": true
                            }
                        ],
                        "signature": "transferFrom(address,address,uint256)"
                    },
                    "errorInfo": "",
                    "fromAddress": "0x17233e07c67d086464fd408148c3abb56245fa64",
                    "gasUsed": 19448,
                    "id": 29,
                    "methodDecoded": true,
                    "operation": "CALL",
                    "output": "0x0000000000000000000000000000000000000000000000000000000000000001",
                    "revert": false,
                    "revertMessage": "",
                    "selector": "0x23b872dd",
                    "status": true,
                    "value": "0"
                },
                "nodeType": 0
            },
            "3": {
                "invocation": {
                    "address": "0x17233e07c67d086464fd408148c3abb56245fa64",
                    "callData": "0x000000000000000000000000000000000000000000000000000000000000006000000000000000000000000000000000000000000000000000000000000000c00000000000000000000000000000000000000000000000000000000000000120000000000000000000000000000000000000000000000000000000000000000200000000000000000000000090ccd9720c663470d4f98b4819b2851a50b91b3a000000000000000000000000cea4bb1a846378bc272fe071ea088a8b05bd610000000000000000000000000000000000000000000000000000000000000000022f424dff26d7f20f088c429075b73a70182d0f5d0000000000000000000000002f424dff26d7f20f088c429075b73a70182d0f5d0000000000000000000000000000000000000000000000000000000000000000000000000000000000000002000000000000000000000000000000000000000000000000000000005bb4e008000000000000000000000000000000000000000000000000000000005bb4e101",
                    "decodedMethod": {
                        "callParams": [
                            {
                                "name": "owners",
                                "type": "address[]",
                                "value": [
                                    "0x90ccd9720c663470d4f98b4819b2851a50b91b3a",
                                    "0xcea4bb1a846378bc272fe071ea088a8b05bd6100"
                                ]
                            },
                            {
                                "name": "tradingPairs",
                                "type": "bytes20[]",
                                "value": [
                                    "0x2f424dff26d7f20f088c429075b73a70182d0f5d",
                                    "0x2f424dff26d7f20f088c429075b73a70182d0f5d"
                                ]
                            },
                            {
                                "name": "validSince",
                                "type": "uint256[]",
                                "value": [
                                    "1,538,580,488",
                                    "1,538,580,737"
                                ]
                            }
                        ],
                        "constructorArguments": "",
                        "name": "checkCutoffsBatch",
                        "returnParams": [],
                        "signature": "checkCutoffsBatch(address[],bytes20[],uint256[])"
                    },
                    "errorInfo": "",
                    "fromAddress": "0x8d8812b72d1e4ffcec158d25f56748b7d67c1e78",
                    "gasUsed": 3306,
                    "id": 3,
                    "methodDecoded": true,
                    "operation": "CALL",
                    "output": "",
                    "revert": false,
                    "revertMessage": "",
                    "selector": "0x00a16cab",
                    "status": true,
                    "value": "0"
                },
                "nodeType": 0
            },
            "30": {
                "event": {
                    "contract": "0xc02aaa39b223fe8d0a0e5c4f27ead9083c756cc2",
                    "decodedLog": {
                        "name": "Transfer",
                        "params": [
                            {
                                "name": "src",
                                "type": "address",
                                "value": "0xcea4bb1a846378bc272fe071ea088a8b05bd6100"
                            },
                            {
                                "name": "dst",
                                "type": "address",
                                "value": "0x90ccd9720c663470d4f98b4819b2851a50b91b3a"
                            },
                            {
                                "decimalAvailable": true,
                                "name": "wad",
                                "type": "uint256",
                                "value": "47,168,540,893,269,106"
                            }
                        ],
                        "signature": "Transfer(address,address,uint256)"
                    },
                    "id": 30,
                    "logData": "0x00000000000000000000000000000000000000000000000000a79389bc844c72",
                    "logDecoded": true,
                    "operation": "EVENT",
                    "revert": false,
                    "status": true,
                    "topics": [
                        "0xddf252ad1be2c89b69c2b068fc378daa952ba7f163c4a11628f55a4df523b3ef",
                        "0x000000000000000000000000cea4bb1a846378bc272fe071ea088a8b05bd6100",
                        "0x00000000000000000000000090ccd9720c663470d4f98b4819b2851a50b91b3a"
                    ]
                },
                "nodeType": 1
            },
            "31": {
                "event": {
                    "contract": "0x8d8812b72d1e4ffcec158d25f56748b7d67c1e78",
                    "decodedLog": {
                        "name": "RingMined",
                        "params": [
                            {
                                "name": "_ringHash",
                                "type": "bytes32",
                                "value": "0x376ef6fbad175e47102af5f2ce43721642c3508261774f6a7ec24b63f0515332"
                            },
                            {
                                "name": "_ringIndex",
                                "type": "uint256",
                                "value": "16,664"
                            },
                            {
                                "name": "_miner",
                                "type": "address",
                                "value": "0x5552dcfba48c94544beaaf26470df9898e050ac2"
                            },
                            {
                                "name": "_feeRecipient",
                                "type": "address",
                                "value": "0x5552dcfba48c94544beaaf26470df9898e050ac2"
                            },
                            {
                                "name": "_orderInfoList",
                                "type": "bytes32[]",
                                "value": [
                                    "0xab0b705ef26db2be8c738d12c26afbe5cdc9b83499f7a72d301c6a30366b9ef8",
                                    "0x00000000000000000000000090ccd9720c663470d4f98b4819b2851a50b91b3a",
                                    "0x000000000000000000000000ef68e7c694f40c8202821edf525de3782458639f",
                                    "0x0000000000000000000000000000000000000000000000056bc75e2d63100000",
                                    "0x0000000000000000000000000000000000000000000000000000000000000000",
                                    "0x00000000000000000000000000000000000000000000000024150e398003fe00",
                                    "0x0000000000000000000000000000000000000000000000000000000000000000",
                                    "0x881b1079f733454deb88c81ba84f82b81c89718c1c24b460604d14f33d4de60e",
                                    "0x000000000000000000000000cea4bb1a846378bc272fe071ea088a8b05bd6100",
                                    "0x000000000000000000000000c02aaa39b223fe8d0a0e5c4f27ead9083c756cc2",
                                    "0x00000000000000000000000000000000000000000000000000a79389bc844c72",
                                    "0x0000000000000000000000000000000000000000000000000000000000000000",
                                    "0x0000000000000000000000000000000000000000000000000000000000000000",
                                    "0xffffffffffffffffffffffffffffffffffffffffffffffffd9e73baa878306a3"
                                ]
                            }
                        ],
                        "signature": "RingMined(uint256,bytes32,address,address,bytes32[])"
                    },
                    "id": 31,
                    "logData": "0x00000000000000000000000000000000000000000000000000000000000041180000000000000000000000005552dcfba48c94544beaaf26470df9898e050ac20000000000000000000000005552dcfba48c94544beaaf26470df9898e050ac20000000000000000000000000000000000000000000000000000000000000080000000000000000000000000000000000000000000000000000000000000000eab0b705ef26db2be8c738d12c26afbe5cdc9b83499f7a72d301c6a30366b9ef800000000000000000000000090ccd9720c663470d4f98b4819b2851a50b91b3a000000000000000000000000ef68e7c694f40c8202821edf525de3782458639f0000000000000000000000000000000000000000000000056bc75e2d63100000000000000000000000000000000000000000000000000000000000000000000000000000000000000000000000000000000000000000000024150e398003fe000000000000000000000000000000000000000000000000000000000000000000881b1079f733454deb88c81ba84f82b81c89718c1c24b460604d14f33d4de60e000000000000000000000000cea4bb1a846378bc272fe071ea088a8b05bd6100000000000000000000000000c02aaa39b223fe8d0a0e5c4f27ead9083c756cc200000000000000000000000000000000000000000000000000a79389bc844c7200000000000000000000000000000000000000000000000000000000000000000000000000000000000000000000000000000000000000000000000000000000ffffffffffffffffffffffffffffffffffffffffffffffffd9e73baa878306a3",
                    "logDecoded": true,
                    "operation": "EVENT",
                    "revert": false,
                    "status": true,
                    "topics": [
                        "0x4d2a4adf7c5f6cf35d97aecc1919897bf86299dccd9b5e19b2b38ebebf07add0",
                        "0x376ef6fbad175e47102af5f2ce43721642c3508261774f6a7ec24b63f0515332"
                    ]
                },
                "nodeType": 1
            },
            "4": {
                "invocation": {
                    "address": "0x0000000000000000000000000000000000000001",
                    "callData": "0x287c038255566b9b4d03bd99a093ff3da8e955c67da4ac1e201976df000000000000000000000000000000000000000000000000000000000000001bb7f3f607c44ec796208a45431baf582eab4724b506aa0097e58467fedcb539ef04fd3cd977572ad85d4aa1e8286ddd5c7d455941ba7f0102ac6541d6ac2d97c9",
                    "decodedMethod": {
                        "callParams": [
                            {
                                "name": "hash",
                                "type": "bytes32",
                                "value": "0x0bae4b58287c038255566b9b4d03bd99a093ff3da8e955c67da4ac1e201976df"
                            },
                            {
                                "name": "v",
                                "type": "uint256",
                                "value": "27"
                            },
                            {
                                "name": "r",
                                "type": "bytes32",
                                "value": "0xb7f3f607c44ec796208a45431baf582eab4724b506aa0097e58467fedcb539ef"
                            },
                            {
                                "name": "s",
                                "type": "bytes32",
                                "value": "0x04fd3cd977572ad85d4aa1e8286ddd5c7d455941ba7f0102ac6541d6ac2d97c9"
                            }
                        ],
                        "constructorArguments": "",
                        "name": "ecrecover",
                        "returnParams": [
                            {
                                "name": "",
                                "type": "address",
                                "value": "0x1b7005cd259b05530a114e4e31825e4200975ad0"
                            }
                        ],
                        "signature": "ecrecover(bytes32,uint256,bytes32,bytes32)"
                    },
                    "errorInfo": "",
                    "fromAddress": "0x8d8812b72d1e4ffcec158d25f56748b7d67c1e78",
                    "gasUsed": 3000,
                    "id": 4,
                    "methodDecoded": true,
                    "operation": "CALL",
                    "output": "0x0000000000000000000000001b7005cd259b05530a114e4e31825e4200975ad0",
                    "revert": false,
                    "revertMessage": "",
                    "selector": "0x0bae4b58",
                    "status": true,
                    "value": "0"
                },
                "nodeType": 0
            },
            "5": {
                "invocation": {
                    "address": "0x0000000000000000000000000000000000000001",
                    "callData": "0x287c038255566b9b4d03bd99a093ff3da8e955c67da4ac1e201976df000000000000000000000000000000000000000000000000000000000000001b83dc241f3cc980ab0a26a976dc5f232b3d4d99cc7e558492a50de581fd010d0d5e4d536c43ddd74a9eea20b104b57740489f4118adf53929de2727faea9bd9ab",
                    "decodedMethod": {
                        "callParams": [
                            {
                                "name": "hash",
                                "type": "bytes32",
                                "value": "0x0bae4b58287c038255566b9b4d03bd99a093ff3da8e955c67da4ac1e201976df"
                            },
                            {
                                "name": "v",
                                "type": "uint256",
                                "value": "27"
                            },
                            {
                                "name": "r",
                                "type": "bytes32",
                                "value": "0x83dc241f3cc980ab0a26a976dc5f232b3d4d99cc7e558492a50de581fd010d0d"
                            },
                            {
                                "name": "s",
                                "type": "bytes32",
                                "value": "0x5e4d536c43ddd74a9eea20b104b57740489f4118adf53929de2727faea9bd9ab"
                            }
                        ],
                        "constructorArguments": "",
                        "name": "ecrecover",
                        "returnParams": [
                            {
                                "name": "",
                                "type": "address",
                                "value": "0xccba588854218c000a6c218df6d55776032833c6"
                            }
                        ],
                        "signature": "ecrecover(bytes32,uint256,bytes32,bytes32)"
                    },
                    "errorInfo": "",
                    "fromAddress": "0x8d8812b72d1e4ffcec158d25f56748b7d67c1e78",
                    "gasUsed": 3000,
                    "id": 5,
                    "methodDecoded": true,
                    "operation": "CALL",
                    "output": "0x000000000000000000000000ccba588854218c000a6c218df6d55776032833c6",
                    "revert": false,
                    "revertMessage": "",
                    "selector": "0x0bae4b58",
                    "status": true,
                    "value": "0"
                },
                "nodeType": 0
            },
            "6": {
                "invocation": {
                    "address": "0xabe12e3548fdb334d11fcc962c413d91ef12233f",
                    "callData": "0x00000000000000000000000000000000000000000000000000000000000000200000000000000000000000000000000000000000000000000000000000000002000000000000000000000000ef68e7c694f40c8202821edf525de3782458639f000000000000000000000000c02aaa39b223fe8d0a0e5c4f27ead9083c756cc2",
                    "decodedMethod": {
                        "callParams": [
                            {
                                "name": "addressList",
                                "type": "address[]",
                                "value": [
                                    "0xef68e7c694f40c8202821edf525de3782458639f",
                                    "0xc02aaa39b223fe8d0a0e5c4f27ead9083c756cc2"
                                ]
                            }
                        ],
                        "constructorArguments": "",
                        "name": "areAllTokensRegistered",
                        "returnParams": [
                            {
                                "name": "",
                                "type": "bool",
                                "value": true
                            }
                        ],
                        "signature": "areAllTokensRegistered(address[])"
                    },
                    "errorInfo": "",
                    "fromAddress": "0x8d8812b72d1e4ffcec158d25f56748b7d67c1e78",
                    "gasUsed": 1550,
                    "id": 6,
                    "methodDecoded": true,
                    "operation": "CALL",
                    "output": "0x0000000000000000000000000000000000000000000000000000000000000001",
                    "revert": false,
                    "revertMessage": "",
                    "selector": "0x16066e69",
                    "status": true,
                    "value": "0"
                },
                "nodeType": 0
            },
            "7": {
                "invocation": {
                    "address": "0x17233e07c67d086464fd408148c3abb56245fa64",
                    "callData": "0xab0b705ef26db2be8c738d12c26afbe5cdc9b83499f7a72d301c6a30366b9ef8",
                    "decodedMethod": {
                        "callParams": [
                            {
                                "name": "",
                                "type": "bytes32",
                                "value": "0xab0b705ef26db2be8c738d12c26afbe5cdc9b83499f7a72d301c6a30366b9ef8"
                            }
                        ],
                        "constructorArguments": "",
                        "name": "cancelledOrFilled",
                        "returnParams": [
                            {
                                "name": "",
                                "type": "uint256",
                                "value": "0"
                            }
                        ],
                        "signature": "cancelledOrFilled(bytes32)"
                    },
                    "errorInfo": "",
                    "fromAddress": "0x8d8812b72d1e4ffcec158d25f56748b7d67c1e78",
                    "gasUsed": 753,
                    "id": 7,
                    "methodDecoded": true,
                    "operation": "CALL",
                    "output": "0x0000000000000000000000000000000000000000000000000000000000000000",
                    "revert": false,
                    "revertMessage": "",
                    "selector": "0x5511f319",
                    "status": true,
                    "value": "0"
                },
                "nodeType": 0
            },
            "8": {
                "invocation": {
                    "address": "0xef68e7c694f40c8202821edf525de3782458639f",
                    "callData": "0x00000000000000000000000090ccd9720c663470d4f98b4819b2851a50b91b3a00000000000000000000000017233e07c67d086464fd408148c3abb56245fa64",
                    "decodedMethod": {
                        "callParams": [
                            {
                                "name": "_owner",
                                "type": "address",
                                "value": "0x90ccd9720c663470d4f98b4819b2851a50b91b3a"
                            },
                            {
                                "name": "_spender",
                                "type": "address",
                                "value": "0x17233e07c67d086464fd408148c3abb56245fa64"
                            }
                        ],
                        "constructorArguments": "",
                        "name": "allowance",
                        "returnParams": [
                            {
                                "decimalAvailable": true,
                                "name": "remaining",
                                "type": "uint256",
                                "value": "9,223,372,036,854,709,787,785,311,937,659,895,871"
                            }
                        ],
                        "signature": "allowance(address,address)"
                    },
                    "errorInfo": "",
                    "fromAddress": "0x8d8812b72d1e4ffcec158d25f56748b7d67c1e78",
                    "gasUsed": 1221,
                    "id": 8,
                    "methodDecoded": true,
                    "operation": "CALL",
                    "output": "0x0000000000000000000000000000000006f05b59d3b1f2050978334bc9a3803f",
                    "revert": false,
                    "revertMessage": "",
                    "selector": "0xdd62ed3e",
                    "status": true,
                    "value": "0"
                },
                "nodeType": 0
            },
            "9": {
                "invocation": {
                    "address": "0xef68e7c694f40c8202821edf525de3782458639f",
                    "callData": "0x00000000000000000000000090ccd9720c663470d4f98b4819b2851a50b91b3a",
                    "decodedMethod": {
                        "callParams": [
                            {
                                "name": "_owner",
                                "type": "address",
                                "value": "0x90ccd9720c663470d4f98b4819b2851a50b91b3a"
                            }
                        ],
                        "constructorArguments": "",
                        "name": "balanceOf",
                        "returnParams": [
                            {
                                "decimalAvailable": true,
                                "name": "balance",
                                "type": "uint256",
                                "value": "39,875,244,109,826,396,562,756"
                            }
                        ],
                        "signature": "balanceOf(address)"
                    },
                    "errorInfo": "",
                    "fromAddress": "0x8d8812b72d1e4ffcec158d25f56748b7d67c1e78",
                    "gasUsed": 791,
                    "id": 9,
                    "methodDecoded": true,
                    "operation": "CALL",
                    "output": "0x000000000000000000000000000000000000000000000871a42d31ca0db8a544",
                    "revert": false,
                    "revertMessage": "",
                    "selector": "0x70a08231",
                    "status": true,
                    "value": "0"
                },
                "nodeType": 0
            }
        },
        "gasFlame": [
            {
                "children": [
                    {
                        "children": [
                            {
                                "children": [],
                                "depth": 0,
                                "name": "Initial Gas",
                                "value": 61976
                            },
                            {
                                "children": [
                                    {
                                        "children": [],
                                        "depth": 1,
                                        "name": "ecrecover",
                                        "value": 3000
                                    },
                                    {
                                        "children": [],
                                        "depth": 1,
                                        "name": "ecrecover",
                                        "value": 3000
                                    },
                                    {
                                        "children": [],
                                        "depth": 1,
                                        "name": "checkCutoffsBatch",
                                        "value": 3306
                                    },
                                    {
                                        "children": [],
                                        "depth": 1,
                                        "name": "ecrecover",
                                        "value": 3000
                                    },
                                    {
                                        "children": [],
                                        "depth": 1,
                                        "name": "ecrecover",
                                        "value": 3000
                                    },
                                    {
                                        "children": [],
                                        "depth": 1,
                                        "name": "areAllTokensRegistered",
                                        "value": 1550
                                    },
                                    {
                                        "children": [],
                                        "depth": 1,
                                        "name": "cancelledOrFilled",
                                        "value": 753
                                    },
                                    {
                                        "children": [],
                                        "depth": 1,
                                        "name": "allowance",
                                        "value": 1221
                                    },
                                    {
                                        "children": [],
                                        "depth": 1,
                                        "name": "balanceOf",
                                        "value": 791
                                    },
                                    {
                                        "children": [],
                                        "depth": 1,
                                        "name": "cancelledOrFilled",
                                        "value": 753
                                    },
                                    {
                                        "children": [],
                                        "depth": 1,
                                        "name": "allowance",
                                        "value": 817
                                    },
                                    {
                                        "children": [],
                                        "depth": 1,
                                        "name": "balanceOf",
                                        "value": 634
                                    },
                                    {
                                        "children": [],
                                        "depth": 1,
                                        "name": "allowance",
                                        "value": 1221
                                    },
                                    {
                                        "children": [],
                                        "depth": 1,
                                        "name": "balanceOf",
                                        "value": 791
                                    },
                                    {
                                        "children": [],
                                        "depth": 1,
                                        "name": "allowance",
                                        "value": 1221
                                    },
                                    {
                                        "children": [],
                                        "depth": 1,
                                        "name": "balanceOf",
                                        "value": 791
                                    },
                                    {
                                        "children": [],
                                        "depth": 1,
                                        "name": "batchAddCancelledOrFilled",
                                        "value": 42980
                                    },
                                    {
                                        "children": [
                                            {
                                                "children": [],
                                                "depth": 2,
                                                "name": "transferFrom",
                                                "value": 18951
                                            },
                                            {
                                                "children": [],
                                                "depth": 2,
                                                "name": "transferFrom",
                                                "value": 18951
                                            },
                                            {
                                                "children": [],
                                                "depth": 2,
                                                "name": "transferFrom",
                                                "value": 18951
                                            },
                                            {
                                                "children": [],
                                                "depth": 2,
                                                "name": "transferFrom",
                                                "value": 18951
                                            },
                                            {
                                                "children": [],
                                                "depth": 2,
                                                "name": "transferFrom",
                                                "value": 18951
                                            },
                                            {
                                                "children": [],
                                                "depth": 2,
                                                "name": "transferFrom",
                                                "value": 19448
                                            }
                                        ],
                                        "depth": 1,
                                        "name": "batchTransferToken",
                                        "value": 130797
                                    }
                                ],
                                "depth": 0,
                                "name": "Executed Gas",
                                "value": 284988
                            }
                        ],
                        "depth": -1,
                        "name": "Actual Gas Used",
                        "value": 346964
                    },
                    {
                        "children": [],
                        "depth": -1,
                        "name": "Refunded Gas",
                        "value": 0
                    }
                ],
                "depth": -2,
                "name": "Total Gas",
                "value": 346964
            }
        ],
        "isConfirmed": true,
        "mainTrace": [
            {
                "children": [
                    {
                        "children": [
                            {
                                "children": [],
                                "depth": 1,
                                "id": 1,
                                "order": 1
                            },
                            {
                                "children": [],
                                "depth": 1,
                                "id": 2,
                                "order": 2
                            },
                            {
                                "children": [],
                                "depth": 1,
                                "id": 3,
                                "order": 3
                            },
                            {
                                "children": [],
                                "depth": 1,
                                "id": 4,
                                "order": 4
                            },
                            {
                                "children": [],
                                "depth": 1,
                                "id": 5,
                                "order": 5
                            },
                            {
                                "children": [],
                                "depth": 1,
                                "id": 6,
                                "order": 6
                            },
                            {
                                "children": [],
                                "depth": 1,
                                "id": 7,
                                "order": 7
                            },
                            {
                                "children": [],
                                "depth": 1,
                                "id": 8,
                                "order": 8
                            },
                            {
                                "children": [],
                                "depth": 1,
                                "id": 9,
                                "order": 9
                            },
                            {
                                "children": [],
                                "depth": 1,
                                "id": 10,
                                "order": 10
                            },
                            {
                                "children": [],
                                "depth": 1,
                                "id": 11,
                                "order": 11
                            },
                            {
                                "children": [],
                                "depth": 1,
                                "id": 12,
                                "order": 12
                            },
                            {
                                "children": [],
                                "depth": 1,
                                "id": 13,
                                "order": 13
                            },
                            {
                                "children": [],
                                "depth": 1,
                                "id": 14,
                                "order": 14
                            },
                            {
                                "children": [],
                                "depth": 1,
                                "id": 15,
                                "order": 15
                            },
                            {
                                "children": [],
                                "depth": 1,
                                "id": 16,
                                "order": 16
                            },
                            {
                                "children": [],
                                "depth": 1,
                                "id": 17,
                                "order": 17
                            },
                            {
                                "children": [
                                    {
                                        "children": [
                                            {
                                                "children": [],
                                                "depth": 3,
                                                "id": 20,
                                                "order": 20
                                            }
                                        ],
                                        "depth": 2,
                                        "id": 19,
                                        "order": 19
                                    },
                                    {
                                        "children": [
                                            {
                                                "children": [],
                                                "depth": 3,
                                                "id": 22,
                                                "order": 22
                                            }
                                        ],
                                        "depth": 2,
                                        "id": 21,
                                        "order": 21
                                    },
                                    {
                                        "children": [
                                            {
                                                "children": [],
                                                "depth": 3,
                                                "id": 24,
                                                "order": 24
                                            }
                                        ],
                                        "depth": 2,
                                        "id": 23,
                                        "order": 23
                                    },
                                    {
                                        "children": [
                                            {
                                                "children": [],
                                                "depth": 3,
                                                "id": 26,
                                                "order": 26
                                            }
                                        ],
                                        "depth": 2,
                                        "id": 25,
                                        "order": 25
                                    },
                                    {
                                        "children": [
                                            {
                                                "children": [],
                                                "depth": 3,
                                                "id": 28,
                                                "order": 28
                                            }
                                        ],
                                        "depth": 2,
                                        "id": 27,
                                        "order": 27
                                    },
                                    {
                                        "children": [
                                            {
                                                "children": [],
                                                "depth": 3,
                                                "id": 30,
                                                "order": 30
                                            }
                                        ],
                                        "depth": 2,
                                        "id": 29,
                                        "order": 29
                                    }
                                ],
                                "depth": 1,
                                "id": 18,
                                "order": 18
                            },
                            {
                                "children": [],
                                "depth": 1,
                                "id": 31,
                                "order": 31
                            }
                        ],
                        "depth": 0,
                        "id": 0,
                        "order": 0
                    }
                ],
                "depth": -1,
                "id": -1,
                "order": -1
            }
        ],
        "mainTraceNodeCount": 32,
        "parentIdMap": {
            "0": -1,
            "1": 0,
            "10": 0,
            "11": 0,
            "12": 0,
            "13": 0,
            "14": 0,
            "15": 0,
            "16": 0,
            "17": 0,
            "18": 0,
            "19": 18,
            "2": 0,
            "20": 19,
            "21": 18,
            "22": 21,
            "23": 18,
            "24": 23,
            "25": 18,
            "26": 25,
            "27": 18,
            "28": 27,
            "29": 18,
            "3": 0,
            "30": 29,
            "31": 0,
            "4": 0,
            "5": 0,
            "6": 0,
            "7": 0,
            "8": 0,
            "9": 0
        },
        "tidyTrace": [
            {
                "children": [
                    {
                        "children": [
                            {
                                "children": [],
                                "depth": 1,
                                "id": 1,
                                "order": 1
                            },
                            {
                                "children": [],
                                "depth": 1,
                                "id": 2,
                                "order": 2
                            },
                            {
                                "children": [],
                                "depth": 1,
                                "id": 3,
                                "order": 3
                            },
                            {
                                "children": [],
                                "depth": 1,
                                "id": 4,
                                "order": 4
                            },
                            {
                                "children": [],
                                "depth": 1,
                                "id": 5,
                                "order": 5
                            },
                            {
                                "children": [],
                                "depth": 1,
                                "id": 6,
                                "order": 6
                            },
                            {
                                "children": [],
                                "depth": 1,
                                "id": 7,
                                "order": 7
                            },
                            {
                                "children": [],
                                "depth": 1,
                                "id": 8,
                                "order": 8
                            },
                            {
                                "children": [],
                                "depth": 1,
                                "id": 9,
                                "order": 9
                            },
                            {
                                "children": [],
                                "depth": 1,
                                "id": 10,
                                "order": 10
                            },
                            {
                                "children": [],
                                "depth": 1,
                                "id": 11,
                                "order": 11
                            },
                            {
                                "children": [],
                                "depth": 1,
                                "id": 12,
                                "order": 12
                            },
                            {
                                "children": [],
                                "depth": 1,
                                "id": 13,
                                "order": 13
                            },
                            {
                                "children": [],
                                "depth": 1,
                                "id": 14,
                                "order": 14
                            },
                            {
                                "children": [],
                                "depth": 1,
                                "id": 15,
                                "order": 15
                            },
                            {
                                "children": [],
                                "depth": 1,
                                "id": 16,
                                "order": 16
                            },
                            {
                                "children": [],
                                "depth": 1,
                                "id": 17,
                                "order": 17
                            },
                            {
                                "children": [
                                    {
                                        "children": [
                                            {
                                                "children": [],
                                                "depth": 3,
                                                "id": 20,
                                                "order": 20
                                            }
                                        ],
                                        "depth": 2,
                                        "id": 19,
                                        "order": 19
                                    },
                                    {
                                        "children": [
                                            {
                                                "children": [],
                                                "depth": 3,
                                                "id": 22,
                                                "order": 22
                                            }
                                        ],
                                        "depth": 2,
                                        "id": 21,
                                        "order": 21
                                    },
                                    {
                                        "children": [
                                            {
                                                "children": [],
                                                "depth": 3,
                                                "id": 24,
                                                "order": 24
                                            }
                                        ],
                                        "depth": 2,
                                        "id": 23,
                                        "order": 23
                                    },
                                    {
                                        "children": [
                                            {
                                                "children": [],
                                                "depth": 3,
                                                "id": 26,
                                                "order": 26
                                            }
                                        ],
                                        "depth": 2,
                                        "id": 25,
                                        "order": 25
                                    },
                                    {
                                        "children": [
                                            {
                                                "children": [],
                                                "depth": 3,
                                                "id": 28,
                                                "order": 28
                                            }
                                        ],
                                        "depth": 2,
                                        "id": 27,
                                        "order": 27
                                    },
                                    {
                                        "children": [
                                            {
                                                "children": [],
                                                "depth": 3,
                                                "id": 30,
                                                "order": 30
                                            }
                                        ],
                                        "depth": 2,
                                        "id": 29,
                                        "order": 29
                                    }
                                ],
                                "depth": 1,
                                "id": 18,
                                "order": 18
                            },
                            {
                                "children": [],
                                "depth": 1,
                                "id": 31,
                                "order": 31
                            }
                        ],
                        "depth": 0,
                        "id": 0,
                        "order": 0
                    }
                ],
                "depth": -1,
                "id": -1,
                "order": -1
            }
        ],
        "tidyTraceNodeCount": 32
    },
    "state_change": {
        "stateChanges": [
            {
                "address": "0x17233e07c67d086464fd408148c3abb56245fa64",
                "erc": "",
                "slots": [
                    {
                        "current": "0x0000000000000000000000000000000000000000000000056bc75e2d63100000",
                        "key": "0x482f88bc0dd870efb74069275f184468323b33777f12213cfb334cae9ef1103e",
                        "prev": "0x0000000000000000000000000000000000000000000000000000000000000000"
                    },
                    {
                        "current": "0x0000000000000000000000000000000000000000000000056bc75e2d63100000",
                        "key": "0x45c98bb7d6e522a740292127cb5e93eb1d7db7b8e38a98f8299d47cc455fb93d",
                        "prev": "0x0000000000000000000000000000000000000000000000000000000000000000"
                    }
                ],
                "storageVariables": [
                    {
                        "name": "cancelledOrFilled",
                        "type": "mapping(bytes32 => uint256)",
                        "value": {
                            "pairs": [
                                {
                                    "key": "0x881b1079f733454deb88c81ba84f82b81c89718c1c24b460604d14f33d4de60e",
                                    "value": {
                                        "current": "100000000000000000000",
                                        "prev": "0",
                                        "typeTag": 1
                                    }
                                },
                                {
                                    "key": "0xab0b705ef26db2be8c738d12c26afbe5cdc9b83499f7a72d301c6a30366b9ef8",
                                    "value": {
                                        "current": "100000000000000000000",
                                        "prev": "0",
                                        "typeTag": 1
                                    }
                                }
                            ],
                            "typeTag": 4
                        }
                    }
                ]
            },
            {
                "address": "0x8d8812b72d1e4ffcec158d25f56748b7d67c1e78",
                "erc": "",
                "slots": [
                    {
                        "current": "0x0000000000000000000000000000000000000000000000000000000000004119",
                        "key": "0x0000000000000000000000000000000000000000000000000000000000000000",
                        "prev": "0x0000000000000000000000000000000000000000000000000000000000004118"
                    }
                ],
                "storageVariables": [
                    {
                        "name": "ringIndex",
                        "type": "uint64",
                        "value": {
                            "current": "16665",
                            "prev": "16664",
                            "typeTag": 1
                        }
                    }
                ]
            },
            {
                "address": "0xc02aaa39b223fe8d0a0e5c4f27ead9083c756cc2",
                "erc": "ERC-20",
                "slots": [
                    {
                        "current": "0x00000000000000000000000000000000000000000000000039a4936c33bddb52",
                        "key": "0xd47f6b056f8229c9563453c2aa7415f79d7f807f407ae1f80df3749cf42d7e0a",
                        "prev": "0x00000000000000000000000000000000000000000000000038fcffe277398ee0"
                    },
                    {
                        "current": "0x0000000000000000000000000000000006f05b59d3b1fffcfbaf07ad498398da",
                        "key": "0xadeb2878dcf68d577c536b21aefcd6ea99fa4cdc816f2019d5680dda903135e1",
                        "prev": "0x0000000000000000000000000000000006f05b59d3b1fffcfc569b370607e54c"
                    },
                    {
                        "current": "0x00000000000000000000000000000000000000000000000044b22122c0242cd9",
                        "key": "0xf714a1830e9e3d91505d393ab5cd1ab8558c299b459b9acbf9cba3411197fc88",
                        "prev": "0x0000000000000000000000000000000000000000000000004559b4ac7ca8794b"
                    }
                ],
                "storageVariables": [
                    {
                        "name": "allowance",
                        "type": "mapping(address => mapping(address => uint256))",
                        "value": {
                            "pairs": [
                                {
                                    "key": "0xcea4bb1a846378bc272fe071ea088a8b05bd6100",
                                    "value": {
                                        "pairs": [
                                            {
                                                "key": "0x17233e07c67d086464fd408148c3abb56245fa64",
                                                "value": {
                                                    "current": "9223372036854775752348746370450168026",
                                                    "prev": "9223372036854775752395914911343437132",
                                                    "typeTag": 1
                                                }
                                            }
                                        ],
                                        "typeTag": 4
                                    }
                                }
                            ],
                            "typeTag": 4
                        }
                    },
                    {
                        "name": "balanceOf",
                        "type": "mapping(address => uint256)",
                        "value": {
                            "pairs": [
                                {
                                    "key": "0x90ccd9720c663470d4f98b4819b2851a50b91b3a",
                                    "value": {
                                        "current": "4153606849276271442",
                                        "prev": "4106438308383002336",
                                        "typeTag": 1
                                    }
                                },
                                {
                                    "key": "0xcea4bb1a846378bc272fe071ea088a8b05bd6100",
                                    "value": {
                                        "current": "4950055373569797337",
                                        "prev": "4997223914463066443",
                                        "typeTag": 1
                                    }
                                }
                            ],
                            "typeTag": 4
                        }
                    }
                ]
            },
            {
                "address": "0xef68e7c694f40c8202821edf525de3782458639f",
                "erc": "ERC-20",
                "slots": [
                    {
                        "current": "0x0000000000000000000000000000000006f05b59d3b1f1ff799bc6e4e68f823f",
                        "key": "0x6c39fafaa2313c0245841c7da6d4818f2c9d3fa9a85e0c8d857d6fe26b6b4c50",
                        "prev": "0x0000000000000000000000000000000006f05b59d3b1f2050978334bc9a3803f"
                    },
                    {
                        "current": "0x0000000000000000000000000000000000000000000003220d3dd0588115b8c3",
                        "key": "0xdf4e3a0daab21be795aaefcc0a32ad120f02a6c4c777c9122305924719653f4a",
                        "prev": "0x00000000000000000000000000000000000000000000031cc78f36809682b220"
                    },
                    {
                        "current": "0x00000000000000000000000000000000000000000000006dc6a4f1354a5362f8",
                        "key": "0xa699dcbf9399f968cd4d4341d63730a0f3a059d6e78ba9f68e7cd34841bb6f51",
                        "prev": "0x00000000000000000000000000000000000000000000006db7cefa4be56ccb1a"
                    },
                    {
                        "current": "0x000000000000000000000000000000000000000000000072e22d11eba83a2a03",
                        "key": "0xe1f5a1c2c45db3f0eaac5213967d990343cab5aa4c3d4dfc793a77c111fa53e2",
                        "prev": "0x000000000000000000000000000000000000000000000072a6d53646149fca84"
                    },
                    {
                        "current": "0x00000000000000000000000000000000000000000000086c1450c5632aa4a744",
                        "key": "0x049a3fb8a1faa6d64aa0a279a85b446b8b234708b115b680cff7986ad38a3ec2",
                        "prev": "0x000000000000000000000000000000000000000000000871a42d31ca0db8a544"
                    }
                ],
                "storageVariables": [
                    {
                        "name": "allowed",
                        "type": "mapping(address => mapping(address => uint256))",
                        "value": {
                            "pairs": [
                                {
                                    "key": "0x90ccd9720c663470d4f98b4819b2851a50b91b3a",
                                    "value": {
                                        "pairs": [
                                            {
                                                "key": "0x17233e07c67d086464fd408148c3abb56245fa64",
                                                "value": {
                                                    "current": "9223372036854709685185311937659896383",
                                                    "prev": "9223372036854709787785311937659895871",
                                                    "typeTag": 1
                                                }
                                            }
                                        ],
                                        "typeTag": 4
                                    }
                                }
                            ],
                            "typeTag": 4
                        }
                    },
                    {
                        "name": "balances",
                        "type": "mapping(address => uint256)",
                        "value": {
                            "pairs": [
                                {
                                    "key": "0x5552dcfba48c94544beaaf26470df9898e050ac2",
                                    "value": {
                                        "current": "2119226526733249948163",
                                        "prev": "2114950398857845918340",
                                        "typeTag": 1
                                    }
                                },
                                {
                                    "key": "0x8e63bb7af326de3fc6e09f4c8d54a75c6e236aba",
                                    "value": {
                                        "current": "2025008934761213944568",
                                        "prev": "2023939902792362937114",
                                        "typeTag": 1
                                    }
                                },
                                {
                                    "key": "0x90ccd9720c663470d4f98b4819b2851a50b91b3a",
                                    "value": {
                                        "current": "39772644109826396563268",
                                        "prev": "39875244109826396562756",
                                        "typeTag": 1
                                    }
                                },
                                {
                                    "key": "0xcea4bb1a846378bc272fe071ea088a8b05bd6100",
                                    "value": {
                                        "current": "14795242894889674193091",
                                        "prev": "14697988054733929230880",
                                        "typeTag": 1
                                    }
                                }
                            ],
                            "typeTag": 4
                        }
                    }
                ]
            }
        ]
    }
}