{
    "balance_change": {
        "balanceChanges": [
            {
                "account": "0x1e8afd7e4fe1ed2c190ae3817eba9f942d1b1a03",
                "assets": [
                    {
                        "address": "0xf629cbd94d3791c9250152bd8dfbdf380e2a3b9c",
                        "amount": "1",
                        "iconUrl": "https://assets.blocksec.com/icon/4e91198d1517bc4aa7bfb253e3110967513d2a17a9e3cad8d288a4806c405653.png",
                        "isERC1155": false,
                        "isERC721": false,
                        "sign": false,
                        "value": ""
                    }
                ]
            },
            {
                "account": "0x0000000000000000000000000000000000000000",
                "assets": [
                    {
                        "address": "0xfaafdc07907ff5120a76b34b731b278c38d6043c",
                        "amount": "1",
                        "iconUrl": "",
                        "isERC1155": true,
                        "isERC721": false,
                        "sign": false,
                        "tokenID": "7237005577332281691819871467913404423283954254991424418075043172393664118784",
                        "value": ""
                    }
                ]
            },
            {
                "account": "0x4e643a25a64952895f553f20252861258727174e",
                "assets": [
                    {
                        "address": "0xf629cbd94d3791c9250152bd8dfbdf380e2a3b9c",
                        "amount": "1",
                        "iconUrl": "https://assets.blocksec.com/icon/4e91198d1517bc4aa7bfb253e3110967513d2a17a9e3cad8d288a4806c405653.png",
                        "isERC1155": false,
                        "isERC721": false,
                        "sign": true,
                        "value": ""
                    }
                ]
            },
            {
                "account": "0xd77e09b22d28eab54fe5a4d7294726815048d085",
                "assets": [
                    {
                        "address": "0xfaafdc07907ff5120a76b34b731b278c38d6043c",
                        "amount": "1",
                        "iconUrl": "",
                        "isERC1155": true,
                        "isERC721": false,
                        "sign": true,
                        "tokenID": "7237005577332281691819871467913404423283954254991424418075043172393664118784",
                        "value": ""
                    }
                ]
            }
        ]
    },
    "profile": {
        "basic_info": {
            "baseFee": "",
            "blockNumber": 9434506,
            "callData": "0x3d7d20a41000000000000c1f000000000000000000000000000000000000000000000000000000000000000000000000000000000000000000000000000000000000006000000000000000000000000000000000000000000000000000000000000000a00000000000000000000000000000000000000000000000000000000000000001000000000000000000000000d77e09b22d28eab54fe5a4d7294726815048d08500000000000000000000000000000000000000000000000000000000000000010000000000000000000000000000000000000000000000000000000000000001",
            "debugEnable": true,
            "errorInfo": "",
            "eventCount": 2,
            "feeRecipient": "0x5a0b54d5dc17e0aadc383d2db43b0a0d3e029c4c",
            "formatValue": "0",
            "gasLimit": 176100,
            "gasPrice": "7.2",
            "gasUsed": 126232,
            "intTxnCount": 15,
            "internalRevert": false,
            "internalRevertMessage": "",
            "isContractCreation": false,
            "isFlashloan": false,
            "maxFee": "",
            "nonce": 12100,
            "overwritedBlockNumber": -1,
            "priorityFee": "",
            "receiver": "0xfaafdc07907ff5120a76b34b731b278c38d6043c",
            "revertMessage": "",
            "sender": "0x1e8afd7e4fe1ed2c190ae3817eba9f942d1b1a03",
            "simulationEnable": true,
            "sourceTxnHash": "0x28d3887e92b2dd55a514afae58a40daa14de5c4df55c31f5df3e9bb58e82190c",
            "status": true,
            "timestamp": "2020-02-07T08:24:58Z",
            "transactionFee": "0.0009088704",
            "txnHash": "0x28d3887e92b2dd55a514afae58a40daa14de5c4df55c31f5df3e9bb58e82190c",
            "txnIndex": 26,
            "type": 0,
            "value": "0"
        },
        "fund_flow": [
            {
                "amount": "1",
                "from": "0x1e8afd7e4fe1ed2c190ae3817eba9f942d1b1a03",
                "id": 1,
                "isERC1155": false,
                "isERC721": false,
                "isReverted": false,
                "order": 1,
                "to": "0x4e643a25a64952895f553f20252861258727174e",
                "token": "0xf629cbd94d3791c9250152bd8dfbdf380e2a3b9c"
            },
            {
                "amount": "1",
                "from": "0x0000000000000000000000000000000000000000",
                "id": 2,
                "isERC1155": true,
                "isERC721": false,
                "isReverted": false,
                "order": 2,
                "to": "0xd77e09b22d28eab54fe5a4d7294726815048d085",
                "token": "0xfaafdc07907ff5120a76b34b731b278c38d6043c",
                "tokenID": "7237005577332281691819871467913404423283954254991424418075043172393664118784"
            }
        ],
        "token_infos": [
            {
                "address": "0xc02aaa39b223fe8d0a0e5c4f27ead9083c756cc2",
                "decimals": 18
            },
            {
                "address": "0xf629cbd94d3791c9250152bd8dfbdf380e2a3b9c",
                "decimals": 18
            },
            {
                "address": "0xeeeeeeeeeeeeeeeeeeeeeeeeeeeeeeeeeeeeeeee",
                "decimals": 18
            }
        ]
    },
    "address_label": {
        "labels": [
            {
                "address": "0xeeeeeeeeeeeeeeeeeeeeeeeeeeeeeeeeeeeeeeee",
                "label": "Ether"
            },
            {
                "address": "0xfaafdc07907ff5120a76b34b731b278c38d6043c",
                "label": "Enjin: X Token"
            },
            {
                "address": "0xf629cbd94d3791c9250152bd8dfbdf380e2a3b9c",
                "label": "Enjin: ENJ Token"
            },
            {
                "address": "0x0000000000000000000000000000000000000001",
                "label": "Precompiled"
            },
            {
                "address": "0x0000000000000000000000000000000000000002",
                "label": "Precompiled"
            },
            {
                "address": "0x0000000000000000000000000000000000000003",
                "label": "Precompiled"
            },
            {
                "address": "0x0000000000000000000000000000000000000004",
                "label": "Precompiled"
            }
        ]
    },
    "trace": {
        "accountLabels": null,
        "dataMap": {
            "-1": {
                "invocation": {
                    "address": "0x1e8afd7e4fe1ed2c190ae3817eba9f942d1b1a03",
                    "callData": "",
                    "decodedMethod": null,
                    "errorInfo": "",
                    "fromAddress": "",
                    "gasUsed": 0,
                    "id": -1,
                    "methodDecoded": false,
                    "operation": "",
                    "output": "",
                    "revert": false,
                    "revertMessage": "",
                    "selector": "",
                    "status": false,
                    "value": ""
                },
                "nodeType": 0
            },
            "0": {
                "invocation": {
                    "address": "0xfaafdc07907ff5120a76b34b731b278c38d6043c",
                    "callData": "0x1000000000000c1f000000000000000000000000000000000000000000000000000000000000000000000000000000000000000000000000000000000000006000000000000000000000000000000000000000000000000000000000000000a00000000000000000000000000000000000000000000000000000000000000001000000000000000000000000d77e09b22d28eab54fe5a4d7294726815048d08500000000000000000000000000000000000000000000000000000000000000010000000000000000000000000000000000000000000000000000000000000001",
                    "decodedMethod": {
                        "callParams": [
                            {
                                "name": "_id",
                                "type": "uint256",
                                "value": "7,237,005,577,332,281,691,819,871,467,913,404,423,283,954,254,991,424,418,075,043,172,393,664,118,784"
                            },
                            {
                                "name": "_to",
                                "type": "address[]",
                                "value": [
                                    "0xd77e09b22d28eab54fe5a4d7294726815048d085"
                                ]
                            },
                            {
                                "name": "_quantities",
                                "type": "uint256[]",
                                "value": [
                                    "1"
                                ]
                            }
                        ],
                        "constructorArguments": "",
                        "name": "mintFungibles",
                        "returnParams": [],
                        "signature": "mintFungibles(uint256,address[],uint256[])"
                    },
                    "errorInfo": "",
                    "fromAddress": "0x1e8afd7e4fe1ed2c190ae3817eba9f942d1b1a03",
                    "gasUsed": 126232,
                    "id": 0,
                    "methodDecoded": true,
                    "operation": "CALL",
                    "output": "",
                    "revert": false,
                    "revertMessage": "",
                    "selector": "0x3d7d20a4",
                    "status": true,
                    "value": "0"
                },
                "nodeType": 0
            },
            "1": {
                "invocation": {
                    "address": "0x0b0f98a0604ca29aca925663c8169ccd58d672f4",
                    "callData": "0x1000000000000c1f000000000000000000000000000000000000000000000000000000000000000000000000000000000000000000000000000000000000006000000000000000000000000000000000000000000000000000000000000000a00000000000000000000000000000000000000000000000000000000000000001000000000000000000000000d77e09b22d28eab54fe5a4d7294726815048d08500000000000000000000000000000000000000000000000000000000000000010000000000000000000000000000000000000000000000000000000000000001",
                    "decodedMethod": {
                        "callParams": [
                            {
                                "name": "_id",
                                "type": "uint256",
                                "value": "7,237,005,577,332,281,691,819,871,467,913,404,423,283,954,254,991,424,418,075,043,172,393,664,118,784"
                            },
                            {
                                "name": "_to",
                                "type": "address[]",
                                "value": [
                                    "0xd77e09b22d28eab54fe5a4d7294726815048d085"
                                ]
                            },
                            {
                                "name": "_quantities",
                                "type": "uint256[]",
                                "value": [
                                    "1"
                                ]
                            }
                        ],
                        "constructorArguments": "",
                        "name": "mintFungibles",
                        "returnParams": [],
                        "signature": "mintFungibles(uint256,address[],uint256[])"
                    },
                    "errorInfo": "",
                    "fromAddress": "0xfaafdc07907ff5120a76b34b731b278c38d6043c",
                    "gasUsed": 101998,
                    "id": 1,
                    "methodDecoded": true,
                    "operation": "DELEGATECALL",
                    "output": "",
                    "revert": false,
                    "revertMessage": "",
                    "selector": "0x3d7d20a4",
                    "status": true,
                    "value": "0"
                },
                "nodeType": 0
            },
            "10": {
                "invocation": {
                    "address": "0x4e643a25a64952895f553f20252861258727174e",
                    "callData": "0x1000000000000c1f0000000000000000000000000000000000000000000000000000000000000000000000000000000000000000000000000000000000000000",
                    "decodedMethod": null,
                    "errorInfo": "",
                    "fromAddress": "0xfaafdc07907ff5120a76b34b731b278c38d6043c",
                    "gasUsed": 3256,
                    "id": 10,
                    "methodDecoded": false,
                    "operation": "CALL",
                    "output": "",
                    "revert": false,
                    "revertMessage": "",
                    "selector": "0x7e686648",
                    "status": true,
                    "value": "0"
                },
                "nodeType": 0
            },
            "11": {
                "invocation": {
                    "address": "0x4e643a25a64952895f553f20252861258727174e",
                    "callData": "0x1000000000000c1f0000000000000000000000000000000000000000000000000000000000000000000000000000000000000000000000000000000000000001",
                    "decodedMethod": null,
                    "errorInfo": "",
                    "fromAddress": "0xfaafdc07907ff5120a76b34b731b278c38d6043c",
                    "gasUsed": 5545,
                    "id": 11,
                    "methodDecoded": false,
                    "operation": "CALL",
                    "output": "0x0000000000000000000000000000000000000000000000000000000000000000",
                    "revert": false,
                    "revertMessage": "",
                    "selector": "0xee6ab318",
                    "status": true,
                    "value": "0"
                },
                "nodeType": 0
            },
            "12": {
                "invocation": {
                    "address": "0x4e643a25a64952895f553f20252861258727174e",
                    "callData": "0x1000000000000c1f000000000000000000000000000000000000000000000000",
                    "decodedMethod": {
                        "callParams": [
                            {
                                "name": "tokenID",
                                "type": "uint256",
                                "value": "7,237,005,577,332,281,691,819,871,467,913,404,423,283,954,254,991,424,418,075,043,172,393,664,118,784"
                            }
                        ],
                        "constructorArguments": "",
                        "name": "getMeltValue",
                        "returnParams": [
                            {
                                "name": "value",
                                "type": "uint256",
                                "value": "1,000,000,000,000,000,000"
                            }
                        ],
                        "signature": "getMeltValue(uint256)"
                    },
                    "errorInfo": "",
                    "fromAddress": "0xfaafdc07907ff5120a76b34b731b278c38d6043c",
                    "gasUsed": 2562,
                    "id": 12,
                    "methodDecoded": true,
                    "operation": "STATICCALL",
                    "output": "0x0000000000000000000000000000000000000000000000000de0b6b3a7640000",
                    "revert": false,
                    "revertMessage": "",
                    "selector": "0x874047a8",
                    "status": true,
                    "value": "0"
                },
                "nodeType": 0
            },
            "13": {
                "invocation": {
                    "address": "0x4e643a25a64952895f553f20252861258727174e",
                    "callData": "0x",
                    "decodedMethod": null,
                    "errorInfo": "",
                    "fromAddress": "0xfaafdc07907ff5120a76b34b731b278c38d6043c",
                    "gasUsed": 3997,
                    "id": 13,
                    "methodDecoded": false,
                    "operation": "STATICCALL",
                    "output": "0x000000000000000000000000f629cbd94d3791c9250152bd8dfbdf380e2a3b9c",
                    "revert": false,
                    "revertMessage": "",
                    "selector": "0xfed57875",
                    "status": true,
                    "value": "0"
                },
                "nodeType": 0
            },
            "14": {
                "invocation": {
                    "address": "0xf629cbd94d3791c9250152bd8dfbdf380e2a3b9c",
                    "callData": "0x0000000000000000000000001e8afd7e4fe1ed2c190ae3817eba9f942d1b1a030000000000000000000000004e643a25a64952895f553f20252861258727174e0000000000000000000000000000000000000000000000000de0b6b3a7640000",
                    "decodedMethod": {
                        "callParams": [
                            {
                                "name": "_from",
                                "type": "address",
                                "value": "0x1e8afd7e4fe1ed2c190ae3817eba9f942d1b1a03"
                            },
                            {
                                "name": "_to",
                                "type": "address",
                                "value": "0x4e643a25a64952895f553f20252861258727174e"
                            },
                            {
                                "decimalAvailable": true,
                                "name": "_value",
                                "type": "uint256",
                                "value": "1,000,000,000,000,000,000"
                            }
                        ],
                        "constructorArguments": "",
                        "name": "transferFrom",
                        "returnParams": [
                            {
                                "name": "success",
                                "type": "bool",
                                "value": true
                            }
                        ],
                        "signature": "transferFrom(address,address,uint256)"
                    },
                    "errorInfo": "",
                    "fromAddress": "0xfaafdc07907ff5120a76b34b731b278c38d6043c",
                    "gasUsed": 21037,
                    "id": 14,
                    "methodDecoded": true,
                    "operation": "CALL",
                    "output": "0x0000000000000000000000000000000000000000000000000000000000000001",
                    "revert": false,
                    "revertMessage": "",
                    "selector": "0x23b872dd",
                    "status": true,
                    "value": "0"
                },
                "nodeType": 0
            },
            "15": {
                "event": {
                    "contract": "0xf629cbd94d3791c9250152bd8dfbdf380e2a3b9c",
                    "decodedLog": {
                        "name": "Transfer",
                        "params": [
                            {
                                "name": "_from",
                                "type": "address",
                                "value": "0x1e8afd7e4fe1ed2c190ae3817eba9f942d1b1a03"
                            },
                            {
                                "name": "_to",
                                "type": "address",
                                "value": "0x4e643a25a64952895f553f20252861258727174e"
                            },
                            {
                                "decimalAvailable": true,
                                "name": "_value",
                                "type": "uint256",
                                "value": "1,000,000,000,000,000,000"
                            }
                        ],
                        "signature": "Transfer(address,address,uint256)"
                    },
                    "id": 15,
                    "logData": "0x0000000000000000000000000000000000000000000000000de0b6b3a7640000",
                    "logDecoded": true,
                    "operation": "EVENT",
                    "revert": false,
                    "status": true,
                    "topics": [
                        "0xddf252ad1be2c89b69c2b068fc378daa952ba7f163c4a11628f55a4df523b3ef",
                        "0x0000000000000000000000001e8afd7e4fe1ed2c190ae3817eba9f942d1b1a03",
                        "0x0000000000000000000000004e643a25a64952895f553f20252861258727174e"
                    ]
                },
                "nodeType": 1
            },
            "16": {
                "invocation": {
                    "address": "0x4e643a25a64952895f553f20252861258727174e",
                    "callData": "0x1000000000000c1f000000000000000000000000000000000000000000000000000000000000000000000000d77e09b22d28eab54fe5a4d7294726815048d0850000000000000000000000000000000000000000000000000000000000000001",
                    "decodedMethod": {
                        "callParams": [
                            {
                                "name": "typeId",
                                "type": "uint256",
                                "value": "7,237,005,577,332,281,691,819,871,467,913,404,423,283,954,254,991,424,418,075,043,172,393,664,118,784"
                            },
                            {
                                "name": "account",
                                "type": "address",
                                "value": "0xd77e09b22d28eab54fe5a4d7294726815048d085"
                            },
                            {
                                "name": "amount",
                                "type": "uint256",
                                "value": "1"
                            }
                        ],
                        "constructorArguments": "",
                        "name": "mintFungible",
                        "returnParams": [],
                        "signature": "mintFungible(uint256,address,uint256)"
                    },
                    "errorInfo": "",
                    "fromAddress": "0xfaafdc07907ff5120a76b34b731b278c38d6043c",
                    "gasUsed": 10241,
                    "id": 16,
                    "methodDecoded": true,
                    "operation": "CALL",
                    "output": "",
                    "revert": false,
                    "revertMessage": "",
                    "selector": "0xf807393a",
                    "status": true,
                    "value": "0"
                },
                "nodeType": 0
            },
            "17": {
                "event": {
                    "contract": "0xfaafdc07907ff5120a76b34b731b278c38d6043c",
                    "decodedLog": {
                        "name": "TransferSingle",
                        "params": [
                            {
                                "name": "operator",
                                "type": "address",
                                "value": "0x1e8afd7e4fe1ed2c190ae3817eba9f942d1b1a03"
                            },
                            {
                                "name": "from",
                                "type": "address",
                                "value": "0x0000000000000000000000000000000000000000"
                            },
                            {
                                "name": "to",
                                "type": "address",
                                "value": "0xd77e09b22d28eab54fe5a4d7294726815048d085"
                            },
                            {
                                "name": "id",
                                "type": "uint256",
                                "value": "7,237,005,577,332,281,691,819,871,467,913,404,423,283,954,254,991,424,418,075,043,172,393,664,118,784"
                            },
                            {
                                "name": "value",
                                "type": "uint256",
                                "value": "1"
                            }
                        ],
                        "signature": "TransferSingle(address,address,address,uint256,uint256)"
                    },
                    "id": 17,
                    "logData": "0x1000000000000c1f0000000000000000000000000000000000000000000000000000000000000000000000000000000000000000000000000000000000000001",
                    "logDecoded": true,
                    "operation": "EVENT",
                    "revert": false,
                    "status": true,
                    "topics": [
                        "0xc3d58168c5ae7397731d063d5bbf3d657854427343f4c083240f7aacaa2d0f62",
                        "0x0000000000000000000000001e8afd7e4fe1ed2c190ae3817eba9f942d1b1a03",
                        "0x0000000000000000000000000000000000000000000000000000000000000000",
                        "0x000000000000000000000000d77e09b22d28eab54fe5a4d7294726815048d085"
                    ]
                },
                "nodeType": 1
            },
            "2": {
                "invocation": {
                    "address": "0x4e643a25a64952895f553f20252861258727174e",
                    "callData": "0x1000000000000c1f000000000000000000000000000000000000000000000000",
                    "decodedMethod": {
                        "callParams": [
                            {
                                "name": "tokenId",
                                "type": "uint256",
                                "value": "7,237,005,577,332,281,691,819,871,467,913,404,423,283,954,254,991,424,418,075,043,172,393,664,118,784"
                            }
                        ],
                        "constructorArguments": "",
                        "name": "getCreator",
                        "returnParams": [
                            {
                                "name": "",
                                "type": "address",
                                "value": "0x1e8afd7e4fe1ed2c190ae3817eba9f942d1b1a03"
                            }
                        ],
                        "signature": "getCreator(uint256)"
                    },
                    "errorInfo": "",
                    "fromAddress": "0xfaafdc07907ff5120a76b34b731b278c38d6043c",
                    "gasUsed": 3497,
                    "id": 2,
                    "methodDecoded": true,
                    "operation": "STATICCALL",
                    "output": "0x0000000000000000000000001e8afd7e4fe1ed2c190ae3817eba9f942d1b1a03",
                    "revert": false,
                    "revertMessage": "",
                    "selector": "0xd48e638a",
                    "status": true,
                    "value": "0"
                },
                "nodeType": 0
            },
            "3": {
                "invocation": {
                    "address": "0xf537d041158cad4e5ca0b89273204a751c8a1717",
                    "callData": "0x0000000000000000000000004e643a25a64952895f553f20252861258727174e1000000000000c1f000000000000000000000000000000000000000000000000000000000000000000000000000000000000000000000000000000000000008000000000000000000000000000000000000000000000000000000000000000c00000000000000000000000000000000000000000000000000000000000000001000000000000000000000000d77e09b22d28eab54fe5a4d7294726815048d08500000000000000000000000000000000000000000000000000000000000000010000000000000000000000000000000000000000000000000000000000000001",
                    "decodedMethod": null,
                    "errorInfo": "",
                    "fromAddress": "0xfaafdc07907ff5120a76b34b731b278c38d6043c",
                    "gasUsed": 92683,
                    "id": 3,
                    "methodDecoded": false,
                    "operation": "DELEGATECALL",
                    "output": "",
                    "revert": false,
                    "revertMessage": "",
                    "selector": "0x54c11483",
                    "status": true,
                    "value": "0"
                },
                "nodeType": 0
            },
            "4": {
                "invocation": {
                    "address": "0x4e643a25a64952895f553f20252861258727174e",
                    "callData": "0x1000000000000c1f000000000000000000000000000000000000000000000000",
                    "decodedMethod": null,
                    "errorInfo": "",
                    "fromAddress": "0xfaafdc07907ff5120a76b34b731b278c38d6043c",
                    "gasUsed": 3123,
                    "id": 4,
                    "methodDecoded": false,
                    "operation": "STATICCALL",
                    "output": "0x00000000000000000000000065ec007fe2f77f35fcce615b274c6312bb1eb3d9",
                    "revert": false,
                    "revertMessage": "",
                    "selector": "0xbc7a17c5",
                    "status": true,
                    "value": "0"
                },
                "nodeType": 0
            },
            "5": {
                "invocation": {
                    "address": "0x4e643a25a64952895f553f20252861258727174e",
                    "callData": "0x1000000000000c1f000000000000000000000000000000000000000000000000",
                    "decodedMethod": {
                        "callParams": [
                            {
                                "name": "NFTID",
                                "type": "uint256",
                                "value": "7,237,005,577,332,281,691,819,871,467,913,404,423,283,954,254,991,424,418,075,043,172,393,664,118,784"
                            }
                        ],
                        "constructorArguments": "",
                        "name": "getCreatedTime",
                        "returnParams": [
                            {
                                "name": "",
                                "type": "uint256",
                                "value": "1,567,845,960"
                            }
                        ],
                        "signature": "getCreatedTime(uint256)"
                    },
                    "errorInfo": "",
                    "fromAddress": "0xfaafdc07907ff5120a76b34b731b278c38d6043c",
                    "gasUsed": 4018,
                    "id": 5,
                    "methodDecoded": true,
                    "operation": "STATICCALL",
                    "output": "0x000000000000000000000000000000000000000000000000000000005d736e48",
                    "revert": false,
                    "revertMessage": "",
                    "selector": "0xf521a982",
                    "status": true,
                    "value": "0"
                },
                "nodeType": 0
            },
            "6": {
                "invocation": {
                    "address": "0x65ec007fe2f77f35fcce615b274c6312bb1eb3d9",
                    "callData": "0x1000000000000c1f000000000000000000000000000000000000000000000000000000000000000000000000000000000000000000000000000000005d736e48",
                    "decodedMethod": null,
                    "errorInfo": "",
                    "fromAddress": "0xfaafdc07907ff5120a76b34b731b278c38d6043c",
                    "gasUsed": 1081,
                    "id": 6,
                    "methodDecoded": false,
                    "operation": "STATICCALL",
                    "output": "0x00000000000000000000000000000000ffffffffffffffffffffffffffffffff",
                    "revert": false,
                    "revertMessage": "",
                    "selector": "0x4ccf9e93",
                    "status": true,
                    "value": "0"
                },
                "nodeType": 0
            },
            "7": {
                "invocation": {
                    "address": "0x4e643a25a64952895f553f20252861258727174e",
                    "callData": "0x1000000000000c1f000000000000000000000000000000000000000000000000",
                    "decodedMethod": {
                        "callParams": [
                            {
                                "name": "id",
                                "type": "uint256",
                                "value": "7,237,005,577,332,281,691,819,871,467,913,404,423,283,954,254,991,424,418,075,043,172,393,664,118,784"
                            }
                        ],
                        "constructorArguments": "",
                        "name": "getTotalSupply",
                        "returnParams": [
                            {
                                "name": "",
                                "type": "uint256",
                                "value": "140"
                            }
                        ],
                        "signature": "getTotalSupply(uint256)"
                    },
                    "errorInfo": "",
                    "fromAddress": "0xfaafdc07907ff5120a76b34b731b278c38d6043c",
                    "gasUsed": 2738,
                    "id": 7,
                    "methodDecoded": true,
                    "operation": "STATICCALL",
                    "output": "0x000000000000000000000000000000000000000000000000000000000000008c",
                    "revert": false,
                    "revertMessage": "",
                    "selector": "0x92ab723e",
                    "status": true,
                    "value": "0"
                },
                "nodeType": 0
            },
            "8": {
                "invocation": {
                    "address": "0x4e643a25a64952895f553f20252861258727174e",
                    "callData": "0x1000000000000c1f000000000000000000000000000000000000000000000000",
                    "decodedMethod": null,
                    "errorInfo": "",
                    "fromAddress": "0xfaafdc07907ff5120a76b34b731b278c38d6043c",
                    "gasUsed": 1496,
                    "id": 8,
                    "methodDecoded": false,
                    "operation": "STATICCALL",
                    "output": "0x0000000000000000000000000000000000000000000000000000000000000000",
                    "revert": false,
                    "revertMessage": "",
                    "selector": "0x2df3f42a",
                    "status": true,
                    "value": "0"
                },
                "nodeType": 0
            },
            "9": {
                "invocation": {
                    "address": "0x4e643a25a64952895f553f20252861258727174e",
                    "callData": "0x1000000000000c1f000000000000000000000000000000000000000000000000000000000000000000000000000000000000000000000000000000000000008d",
                    "decodedMethod": {
                        "callParams": [
                            {
                                "name": "tokenId",
                                "type": "uint256",
                                "value": "7,237,005,577,332,281,691,819,871,467,913,404,423,283,954,254,991,424,418,075,043,172,393,664,118,784"
                            },
                            {
                                "name": "setTotalSupply",
                                "type": "uint256",
                                "value": "141"
                            }
                        ],
                        "constructorArguments": "",
                        "name": "setTotalSupply",
                        "returnParams": [],
                        "signature": "setTotalSupply(uint256,uint256)"
                    },
                    "errorInfo": "",
                    "fromAddress": "0xfaafdc07907ff5120a76b34b731b278c38d6043c",
                    "gasUsed": 8875,
                    "id": 9,
                    "methodDecoded": true,
                    "operation": "CALL",
                    "output": "",
                    "revert": false,
                    "revertMessage": "",
                    "selector": "0xb0a4d7d3",
                    "status": true,
                    "value": "0"
                },
                "nodeType": 0
            }
        },
        "gasFlame": [
            {
                "children": [
                    {
                        "children": [
                            {
                                "children": [],
                                "depth": 0,
                                "name": "Initial Gas",
                                "value": 22296
                            },
                            {
                                "children": [
                                    {
                                        "children": [
                                            {
                                                "children": [],
                                                "depth": 2,
                                                "name": "getCreator",
                                                "value": 3497
                                            },
                                            {
                                                "children": [
                                                    {
                                                        "children": [],
                                                        "depth": 3,
                                                        "name": "0xbc7a17c5",
                                                        "value": 3123
                                                    },
                                                    {
                                                        "children": [],
                                                        "depth": 3,
                                                        "name": "getCreatedTime",
                                                        "value": 4018
                                                    },
                                                    {
                                                        "children": [],
                                                        "depth": 3,
                                                        "name": "0x4ccf9e93",
                                                        "value": 1081
                                                    },
                                                    {
                                                        "children": [],
                                                        "depth": 3,
                                                        "name": "getTotalSupply",
                                                        "value": 2738
                                                    },
                                                    {
                                                        "children": [],
                                                        "depth": 3,
                                                        "name": "0x2df3f42a",
                                                        "value": 1496
                                                    },
                                                    {
                                                        "children": [],
                                                        "depth": 3,
                                                        "name": "setTotalSupply",
                                                        "value": 8875
                                                    },
                                                    {
                                                        "children": [],
                                                        "depth": 3,
                                                        "name": "0x7e686648",
                                                        "value": 3256
                                                    },
                                                    {
                                                        "children": [],
                                                        "depth": 3,
                                                        "name": "0xee6ab318",
                                                        "value": 5545
                                                    },
                                                    {
                                                        "children": [],
                                                        "depth": 3,
                                                        "name": "getMeltValue",
                                                        "value": 2562
                                                    },
                                                    {
                                                        "children": [],
                                                        "depth": 3,
                                                        "name": "0xfed57875",
                                                        "value": 3997
                                                    },
                                                    {
                                                        "children": [],
                                                        "depth": 3,
                                                        "name": "transferFrom",
                                                        "value": 21037
                                                    },
                                                    {
                                                        "children": [],
                                                        "depth": 3,
                                                        "name": "mintFungible",
                                                        "value": 10241
                                                    }
                                                ],
                                                "depth": 2,
                                                "name": "0x54c11483",
                                                "value": 92683
                                            }
                                        ],
                                        "depth": 1,
                                        "name": "mintFungibles",
                                        "value": 101998
                                    }
                                ],
                                "depth": 0,
                                "name": "Executed Gas",
                                "value": 103936
                            }
                        ],
                        "depth": -1,
                        "name": "Actual Gas Used",
                        "value": 126232
                    },
                    {
                        "children": [],
                        "depth": -1,
                        "name": "Refunded Gas",
                        "value": 0
                    }
                ],
                "depth": -2,
                "name": "Total Gas",
                "value": 126232
            }
        ],
        "isConfirmed": true,
        "mainTrace": [
            {
                "children": [
                    {
                        "children": [
                            {
                                "children": [
                                    {
                                        "children": [],
                                        "depth": 2,
                                        "id": 2,
                                        "order": 2
                                    },
                                    {
                                        "children": [
                                            {
                                                "children": [],
                                                "depth": 3,
                                                "id": 4,
                                                "order": 4
                                            },
                                            {
                                                "children": [],
                                                "depth": 3,
                                                "id": 5,
                                                "order": 5
                                            },
                                            {
                                                "children": [],
                                                "depth": 3,
                                                "id": 6,
                                                "order": 6
                                            },
                                            {
                                                "children": [],
                                                "depth": 3,
                                                "id": 7,
                                                "order": 7
                                            },
                                            {
                                                "children": [],
                                                "depth": 3,
                                                "id": 8,
                                                "order": 8
                                            },
                                            {
                                                "children": [],
                                                "depth": 3,
                                                "id": 9,
                                                "order": 9
                                            },
                                            {
                                                "children": [],
                                                "depth": 3,
                                                "id": 10,
                                                "order": 10
                                            },
                                            {
                                                "children": [],
                                                "depth": 3,
                                                "id": 11,
                                                "order": 11
                                            },
                                            {
                                                "children": [],
                                                "depth": 3,
                                                "id": 12,
                                                "order": 12
                                            },
                                            {
                                                "children": [],
                                                "depth": 3,
                                                "id": 13,
                                                "order": 13
                                            },
                                            {
                                                "children": [
                                                    {
                                                        "children": [],
                                                        "depth": 4,
                                                        "id": 15,
                                                        "order": 15
                                                    }
                                                ],
                                                "depth": 3,
                                                "id": 14,
                                                "order": 14
                                            },
                                            {
                                                "children": [],
                                                "depth": 3,
                                                "id": 16,
                                                "order": 16
                                            },
                                            {
                                                "children": [],
                                                "depth": 3,
                                                "id": 17,
                                                "order": 17
                                            }
                                        ],
                                        "depth": 2,
                                        "id": 3,
                                        "order": 3
                                    }
                                ],
                                "depth": 1,
                                "id": 1,
                                "order": 1
                            }
                        ],
                        "depth": 0,
                        "id": 0,
                        "order": 0
                    }
                ],
                "depth": -1,
                "id": -1,
                "order": -1
            }
        ],
        "mainTraceNodeCount": 18,
        "parentIdMap": {
            "0": -1,
            "1": 0,
            "10": 3,
            "11": 3,
            "12": 3,
            "13": 3,
            "14": 3,
            "15": 14,
            "16": 3,
            "17": 3,
            "2": 1,
            "3": 1,
            "4": 3,
            "5": 3,
            "6": 3,
            "7": 3,
            "8": 3,
            "9": 3
        },
        "tidyTrace": [
            {
                "children": [
                    {
                        "children": [
                            {
                                "children": [
                                    {
                                        "children": [
                                            {
                                                "children": [],
                                                "depth": 3,
                                                "id": 9,
                                                "order": 9
                                            },
                                            {
                                                "children": [],
                                                "depth": 3,
                                                "id": 10,
                                                "order": 10
                                            },
                                            {
                                                "children": [],
                                                "depth": 3,
                                                "id": 11,
                                                "order": 11
                                            },
                                            {
                                                "children": [
                                                    {
                                                        "children": [],
                                                        "depth": 4,
                                                        "id": 15,
                                                        "order": 15
                                                    }
                                                ],
                                                "depth": 3,
                                                "id": 14,
                                                "order": 14
                                            },
                                            {
                                                "children": [],
                                                "depth": 3,
                                                "id": 16,
                                                "order": 16
                                            },
                                            {
                                                "children": [],
                                                "depth": 3,
                                                "id": 17,
                                                "order": 17
                                            }
                                        ],
                                        "depth": 2,
                                        "id": 3,
                                        "order": 3
                                    }
                                ],
                                "depth": 1,
                                "id": 1,
                                "order": 1
                            }
                        ],
                        "depth": 0,
                        "id": 0,
                        "order": 0
                    }
                ],
                "depth": -1,
                "id": -1,
                "order": -1
            }
        ],
        "tidyTraceNodeCount": 10
    },
    "state_change": {
        "stateChanges": [
            {
                "address": "0x4e643a25a64952895f553f20252861258727174e",
                "erc": "",
                "slots": [
                    {
                        "current": "0x0000000de0b6b3a76400000000000000000001000000000000008d018eb94e10",
                        "key": "0xd5149d764b6d0006e4e4e3297456f8f11ff568bdaf80dafd54672488f419fb1f",
                        "prev": "0x0000000de0b6b3a76400000000000000000001000000000000008c018eb94e10"
                    },
                    {
                        "current": "0x0000000000000000000000000000000000000000000000000000000000000004",
                        "key": "0x2f835bb1bba8255af3e131fd6a04889834a3e7350a008214579c3541bd8ec14d",
                        "prev": "0x0000000000000000000000000000000000000000000000000000000000000003"
                    }
                ],
                "storageVariables": []
            },
            {
                "address": "0xf629cbd94d3791c9250152bd8dfbdf380e2a3b9c",
                "erc": "ERC-20",
                "slots": [
                    {
                        "current": "0xffffffffffffffffffffffffffffffffffffffffffffec61f5e83f37de7dffff",
                        "key": "0x3ccc0e5a37d60545689a15dc612f99524537e808e27de0a024c0a84fb581ebb6",
                        "prev": "0xffffffffffffffffffffffffffffffffffffffffffffec6203c8f5eb85e1ffff"
                    },
                    {
                        "current": "0x0000000000000000000000000000000000000000000000156d3214e031250000",
                        "key": "0xd28003ce616e2caba07a9428622316a4b886646d5dad2405e0581083647594ae",
                        "prev": "0x0000000000000000000000000000000000000000000000157b12cb93d8890000"
                    },
                    {
                        "current": "0x000000000000000000000000000000000000000000092c1fa71630b8d3910b1f",
                        "key": "0xf7ec85381a8ec3370bb0a93ab9741d1c1b428b8880a8c09760a078514162083d",
                        "prev": "0x000000000000000000000000000000000000000000092c1f99357a052c2d0b1f"
                    }
                ],
                "storageVariables": [
                    {
                        "name": "balanceOf",
                        "type": "mapping(address => uint256)",
                        "value": {
                            "pairs": [
                                {
                                    "key": "0x1e8afd7e4fe1ed2c190ae3817eba9f942d1b1a03",
                                    "value": {
                                        "current": "395250000000000000000",
                                        "prev": "396250000000000000000",
                                        "typeTag": 1
                                    }
                                },
                                {
                                    "key": "0x4e643a25a64952895f553f20252861258727174e",
                                    "value": {
                                        "current": "11088700390708436161071903",
                                        "prev": "11088699390708436161071903",
                                        "typeTag": 1
                                    }
                                }
                            ],
                            "typeTag": 4
                        }
                    },
                    {
                        "name": "allowance",
                        "type": "mapping(address => mapping(address => uint256))",
                        "value": {
                            "pairs": [
                                {
                                    "key": "0x1e8afd7e4fe1ed2c190ae3817eba9f942d1b1a03",
                                    "value": {
                                        "pairs": [
                                            {
                                                "key": "0xfaafdc07907ff5120a76b34b731b278c38d6043c",
                                                "value": {
                                                    "current": "115792089237316195423570985008687907853269984665640563946817308007913129639935",
                                                    "prev": "115792089237316195423570985008687907853269984665640563946818308007913129639935",
                                                    "typeTag": 1
                                                }
                                            }
                                        ],
                                        "typeTag": 4
                                    }
                                }
                            ],
                            "typeTag": 4
                        }
                    }
                ]
            }
        ]
    }
}