{
    "balance_change": {
        "balanceChanges": [
            {
                "account": "0x903076a40f2ed4490c2b80dcf11452fff80c9eed",
                "assets": [
                    {
                        "address": "0xeeeeeeeeeeeeeeeeeeeeeeeeeeeeeeeeeeeeeeee",
                        "amount": "0.1",
                        "iconUrl": "https://assets.blocksec.com/image/1663669189317-3.png",
                        "isERC1155": false,
                        "isERC721": false,
                        "sign": false,
                        "value": "165.25699999999999364"
                    }
                ]
            },
            {
                "account": "0x5d22045daceab03b158031ecb7d9d06fad24609b",
                "assets": [
                    {
                        "address": "0xeeeeeeeeeeeeeeeeeeeeeeeeeeeeeeeeeeeeeeee",
                        "amount": "0.1",
                        "iconUrl": "https://assets.blocksec.com/image/1663669189317-3.png",
                        "isERC1155": false,
                        "isERC721": false,
                        "sign": true,
                        "value": "165.25699999999999364"
                    }
                ]
            }
        ]
    },
    "profile": {
        "basic_info": {
            "baseFee": "16.211748655",
            "blockNumber": 17990704,
            "callData": "0x00aeef8a02e0b7f452abf2bafe0f39c8b725caaf50af32eb3bba269c87229254ff0f1e6b00b333e3142fe16b78628f19bb15afddaef437e72d6d7f5c6c20c6801a27fba600000000000000000000000000000000000000000000000000000000509aa849",
            "debugEnable": true,
            "errorInfo": "",
            "eventCount": 1,
            "feeRecipient": "0x95222290dd7278aa3ddd389cc1e1d165cc4bafe5",
            "formatValue": "0.1",
            "gasLimit": 80000,
            "gasPrice": "18.711748655",
            "gasUsed": 75387,
            "intTxnCount": 2,
            "internalRevert": false,
            "internalRevertMessage": "",
            "isContractCreation": false,
            "isFlashloan": false,
            "maxFee": "34.820039666",
            "nonce": 4,
            "overwritedBlockNumber": -1,
            "priorityFee": "2.5",
            "receiver": "0x5d22045daceab03b158031ecb7d9d06fad24609b",
            "revertMessage": "",
            "sender": "0x903076a40f2ed4490c2b80dcf11452fff80c9eed",
            "simulationEnable": true,
            "sourceTxnHash": "0x28e0261656788e60155211f77127c1f90130a6bb631a24b109539e7dd619868d",
            "status": true,
            "timestamp": "2023-08-25T09:06:11Z",
            "transactionFee": "0.001410622595854485",
            "txnHash": "0x28e0261656788e60155211f77127c1f90130a6bb631a24b109539e7dd619868d",
            "txnIndex": 38,
            "type": 2,
            "value": "100000000000000000"
        },
        "fund_flow": [
            {
                "amount": "0.1",
                "from": "0x903076a40f2ed4490c2b80dcf11452fff80c9eed",
                "id": 1,
                "isERC1155": false,
                "isERC721": false,
                "isReverted": false,
                "order": 1,
                "to": "0x5d22045daceab03b158031ecb7d9d06fad24609b",
                "token": "0xeeeeeeeeeeeeeeeeeeeeeeeeeeeeeeeeeeeeeeee"
            }
        ],
        "token_infos": [
            {
                "address": "0xc02aaa39b223fe8d0a0e5c4f27ead9083c756cc2",
                "decimals": 18
            },
            {
                "address": "0xeeeeeeeeeeeeeeeeeeeeeeeeeeeeeeeeeeeeeeee",
                "decimals": 18
            }
        ]
    },
    "address_label": {
        "labels": [
            {
                "address": "0x2dbc18a3ac126abe1ff90a83bbc3947ff7912afb",
                "label": "TokensAndRamping"
            },
            {
                "address": "0x5d22045daceab03b158031ecb7d9d06fad24609b",
                "label": "Rhino.fi: Bridge"
            },
            {
                "address": "0x0000000000000000000000000000000000000001",
                "label": "Precompiled"
            },
            {
                "address": "0x0000000000000000000000000000000000000002",
                "label": "Precompiled"
            },
            {
                "address": "0x0000000000000000000000000000000000000003",
                "label": "Precompiled"
            },
            {
                "address": "0x0000000000000000000000000000000000000004",
                "label": "Precompiled"
            },
            {
                "address": "0xeeeeeeeeeeeeeeeeeeeeeeeeeeeeeeeeeeeeeeee",
                "label": "Ether"
            },
            {
                "address": "0xdf2f24751f7e84ccdcd39e7b49904fab0fb0f583",
                "label": "StarkExchange"
            }
        ]
    },
    "trace": {
        "accountLabels": null,
        "dataMap": {
            "-1": {
                "invocation": {
                    "address": "0x903076a40f2ed4490c2b80dcf11452fff80c9eed",
                    "callData": "",
                    "decodedMethod": null,
                    "errorInfo": "",
                    "fromAddress": "",
                    "gasUsed": 0,
                    "id": -1,
                    "methodDecoded": false,
                    "operation": "",
                    "output": "",
                    "revert": false,
                    "revertMessage": "",
                    "selector": "",
                    "status": false,
                    "value": ""
                },
                "nodeType": 0
            },
            "0": {
                "invocation": {
                    "address": "0x5d22045daceab03b158031ecb7d9d06fad24609b",
                    "callData": "0x02e0b7f452abf2bafe0f39c8b725caaf50af32eb3bba269c87229254ff0f1e6b00b333e3142fe16b78628f19bb15afddaef437e72d6d7f5c6c20c6801a27fba600000000000000000000000000000000000000000000000000000000509aa849",
                    "decodedMethod": {
                        "callParams": [
                            {
                                "name": "_amount",
                                "type": "uint256",
                                "value": "1,301,669,046,191,683,613,926,841,956,948,313,971,855,720,485,397,206,630,978,453,960,343,883,292,267"
                            },
                            {
                                "name": "_periods",
                                "type": "uint256",
                                "value": "316,623,735,692,853,304,525,146,192,642,758,839,706,355,829,840,274,185,964,789,512,850,136,103,846"
                            },
                            {
                                "name": "_userid",
                                "type": "uint256",
                                "value": "1,352,312,905"
                            }
                        ],
                        "constructorArguments": "",
                        "name": "deposit",
                        "returnParams": [],
                        "signature": "deposit(uint256,uint256,uint256)"
                    },
                    "errorInfo": "",
                    "fromAddress": "0x903076a40f2ed4490c2b80dcf11452fff80c9eed",
                    "gasUsed": 75387,
                    "id": 0,
                    "methodDecoded": true,
                    "operation": "CALL",
                    "output": "",
                    "revert": false,
                    "revertMessage": "",
                    "selector": "0x00aeef8a",
                    "status": true,
                    "value": "0.1"
                },
                "nodeType": 0
            },
            "1": {
                "invocation": {
                    "address": "0xdf2f24751f7e84ccdcd39e7b49904fab0fb0f583",
                    "callData": "0x02e0b7f452abf2bafe0f39c8b725caaf50af32eb3bba269c87229254ff0f1e6b00b333e3142fe16b78628f19bb15afddaef437e72d6d7f5c6c20c6801a27fba600000000000000000000000000000000000000000000000000000000509aa849",
                    "decodedMethod": {
                        "callParams": [
                            {
                                "name": "_amount",
                                "type": "uint256",
                                "value": "1,301,669,046,191,683,613,926,841,956,948,313,971,855,720,485,397,206,630,978,453,960,343,883,292,267"
                            },
                            {
                                "name": "_periods",
                                "type": "uint256",
                                "value": "316,623,735,692,853,304,525,146,192,642,758,839,706,355,829,840,274,185,964,789,512,850,136,103,846"
                            },
                            {
                                "name": "_userid",
                                "type": "uint256",
                                "value": "1,352,312,905"
                            }
                        ],
                        "constructorArguments": "",
                        "name": "deposit",
                        "returnParams": [],
                        "signature": "deposit(uint256,uint256,uint256)"
                    },
                    "errorInfo": "",
                    "fromAddress": "0x5d22045daceab03b158031ecb7d9d06fad24609b",
                    "gasUsed": 48087,
                    "id": 1,
                    "methodDecoded": true,
                    "operation": "DELEGATECALL",
                    "output": "",
                    "revert": false,
                    "revertMessage": "",
                    "selector": "0x00aeef8a",
                    "status": true,
                    "value": "0.1"
                },
                "nodeType": 0
            },
            "2": {
                "invocation": {
                    "address": "0x2dbc18a3ac126abe1ff90a83bbc3947ff7912afb",
                    "callData": "0x02e0b7f452abf2bafe0f39c8b725caaf50af32eb3bba269c87229254ff0f1e6b00b333e3142fe16b78628f19bb15afddaef437e72d6d7f5c6c20c6801a27fba600000000000000000000000000000000000000000000000000000000509aa849",
                    "decodedMethod": {
                        "callParams": [
                            {
                                "name": "starkKey",
                                "type": "uint256",
                                "value": "1,301,669,046,191,683,613,926,841,956,948,313,971,855,720,485,397,206,630,978,453,960,343,883,292,267"
                            },
                            {
                                "name": "assetType",
                                "type": "uint256",
                                "value": "316,623,735,692,853,304,525,146,192,642,758,839,706,355,829,840,274,185,964,789,512,850,136,103,846"
                            },
                            {
                                "name": "vaultId",
                                "type": "uint256",
                                "value": "1,352,312,905"
                            }
                        ],
                        "constructorArguments": "",
                        "name": "deposit",
                        "returnParams": [],
                        "signature": "deposit(uint256,uint256,uint256)"
                    },
                    "errorInfo": "",
                    "fromAddress": "0x5d22045daceab03b158031ecb7d9d06fad24609b",
                    "gasUsed": 42452,
                    "id": 2,
                    "methodDecoded": true,
                    "operation": "DELEGATECALL",
                    "output": "",
                    "revert": false,
                    "revertMessage": "",
                    "selector": "0x00aeef8a",
                    "status": true,
                    "value": "0.1"
                },
                "nodeType": 0
            },
            "3": {
                "event": {
                    "contract": "0x5d22045daceab03b158031ecb7d9d06fad24609b",
                    "decodedLog": {
                        "name": "LogDeposit",
                        "params": [
                            {
                                "name": "depositorEthKey",
                                "type": "address",
                                "value": "0x903076a40f2ed4490c2b80dcf11452fff80c9eed"
                            },
                            {
                                "name": "starkKey",
                                "type": "uint256",
                                "value": "1,301,669,046,191,683,613,926,841,956,948,313,971,855,720,485,397,206,630,978,453,960,343,883,292,267"
                            },
                            {
                                "name": "vaultId",
                                "type": "uint256",
                                "value": "1,352,312,905"
                            },
                            {
                                "name": "assetType",
                                "type": "uint256",
                                "value": "316,623,735,692,853,304,525,146,192,642,758,839,706,355,829,840,274,185,964,789,512,850,136,103,846"
                            },
                            {
                                "name": "nonQuantizedAmount",
                                "type": "uint256",
                                "value": "100,000,000,000,000,000"
                            },
                            {
                                "name": "quantizedAmount",
                                "type": "uint256",
                                "value": "10,000,000"
                            }
                        ],
                        "signature": "LogDeposit(address,uint256,uint256,uint256,uint256,uint256)"
                    },
                    "id": 3,
                    "logData": "0x000000000000000000000000903076a40f2ed4490c2b80dcf11452fff80c9eed02e0b7f452abf2bafe0f39c8b725caaf50af32eb3bba269c87229254ff0f1e6b00000000000000000000000000000000000000000000000000000000509aa84900b333e3142fe16b78628f19bb15afddaef437e72d6d7f5c6c20c6801a27fba6000000000000000000000000000000000000000000000000016345785d8a00000000000000000000000000000000000000000000000000000000000000989680",
                    "logDecoded": true,
                    "operation": "EVENT",
                    "revert": false,
                    "status": true,
                    "topics": [
                        "0x06724742ccc8c330a39a641ef02a0b419bd09248360680bb38159b0a8c2635d6"
                    ]
                },
                "nodeType": 1
            }
        },
        "gasFlame": [
            {
                "children": [
                    {
                        "children": [
                            {
                                "children": [],
                                "depth": 0,
                                "name": "Initial Gas",
                                "value": 22240
                            },
                            {
                                "children": [
                                    {
                                        "children": [
                                            {
                                                "children": [],
                                                "depth": 2,
                                                "name": "deposit",
                                                "value": 42452
                                            }
                                        ],
                                        "depth": 1,
                                        "name": "deposit",
                                        "value": 48087
                                    }
                                ],
                                "depth": 0,
                                "name": "Executed Gas",
                                "value": 53147
                            }
                        ],
                        "depth": -1,
                        "name": "Actual Gas Used",
                        "value": 75387
                    },
                    {
                        "children": [],
                        "depth": -1,
                        "name": "Refunded Gas",
                        "value": 0
                    }
                ],
                "depth": -2,
                "name": "Total Gas",
                "value": 75387
            }
        ],
        "isConfirmed": true,
        "mainTrace": [
            {
                "children": [
                    {
                        "children": [
                            {
                                "children": [
                                    {
                                        "children": [
                                            {
                                                "children": [],
                                                "depth": 3,
                                                "id": 3,
                                                "order": 3
                                            }
                                        ],
                                        "depth": 2,
                                        "id": 2,
                                        "order": 2
                                    }
                                ],
                                "depth": 1,
                                "id": 1,
                                "order": 1
                            }
                        ],
                        "depth": 0,
                        "id": 0,
                        "order": 0
                    }
                ],
                "depth": -1,
                "id": -1,
                "order": -1
            }
        ],
        "mainTraceNodeCount": 4,
        "parentIdMap": {
            "0": -1,
            "1": 0,
            "2": 1,
            "3": 2
        },
        "tidyTrace": [
            {
                "children": [
                    {
                        "children": [
                            {
                                "children": [
                                    {
                                        "children": [
                                            {
                                                "children": [],
                                                "depth": 3,
                                                "id": 3,
                                                "order": 3
                                            }
                                        ],
                                        "depth": 2,
                                        "id": 2,
                                        "order": 2
                                    }
                                ],
                                "depth": 1,
                                "id": 1,
                                "order": 1
                            }
                        ],
                        "depth": 0,
                        "id": 0,
                        "order": 0
                    }
                ],
                "depth": -1,
                "id": -1,
                "order": -1
            }
        ],
        "tidyTraceNodeCount": 4
    },
    "state_change": {
        "stateChanges": [
            {
                "address": "0x5d22045daceab03b158031ecb7d9d06fad24609b",
                "erc": "",
                "slots": [
                    {
                        "current": "0x0000000000000000000000000000000000000000000000000000000000989680",
                        "key": "0x243a8dc10f7bf39d6e6764aa57a0aba38b3455eec584ae29987dd440fb966489",
                        "prev": "0x0000000000000000000000000000000000000000000000000000000000000000"
                    }
                ],
                "storageVariables": [
                    {
                        "name": "pendingDeposits",
                        "type": "mapping(uint256 => mapping(uint256 => mapping(uint256 => uint256)))",
                        "value": {
                            "pairs": [
                                {
                                    "key": "1301669046191683613926841956948313971855720485397206630978453960343883292267",
                                    "value": {
                                        "pairs": [
                                            {
                                                "key": "316623735692853304525146192642758839706355829840274185964789512850136103846",
                                                "value": {
                                                    "pairs": [
                                                        {
                                                            "key": "1352312905",
                                                            "value": {
                                                                "current": "10000000",
                                                                "prev": "0",
                                                                "typeTag": 1
                                                            }
                                                        }
                                                    ],
                                                    "typeTag": 4
                                                }
                                            }
                                        ],
                                        "typeTag": 4
                                    }
                                }
                            ],
                            "typeTag": 4
                        }
                    }
                ]
            }
        ]
    }
}