{
    "balance_change": {
        "balanceChanges": [
            {
                "account": "0x718910de6efd3ed30f8e1fc22c742c906ab25b5a",
                "assets": [
                    {
                        "address": "0x29b8aaca11e888b3fec76de6970771f610ad8ae8",
                        "amount": "136,712,328,760,000,000,000",
                        "iconUrl": "",
                        "isERC1155": false,
                        "isERC721": false,
                        "sign": false,
                        "value": ""
                    }
                ]
            },
            {
                "account": "0xb27655a03addc84d85bbe92bd32491052ba66536",
                "assets": [
                    {
                        "address": "0x29b8aaca11e888b3fec76de6970771f610ad8ae8",
                        "amount": "136,712,328,760,000,000,000",
                        "iconUrl": "",
                        "isERC1155": false,
                        "isERC721": false,
                        "sign": true,
                        "value": ""
                    }
                ]
            }
        ]
    },
    "profile": {
        "basic_info": {
            "baseFee": "",
            "blockNumber": 10435674,
            "callData": "0xa9059cbb000000000000000000000000b27655a03addc84d85bbe92bd32491052ba665360000000000000000000000000000000000000000000000076943c2ac9c383000",
            "debugEnable": true,
            "errorInfo": "",
            "eventCount": 1,
            "feeRecipient": "0x5a0b54d5dc17e0aadc383d2db43b0a0d3e029c4c",
            "formatValue": "0",
            "gasLimit": 63232,
            "gasPrice": "32",
            "gasUsed": 42155,
            "intTxnCount": 0,
            "internalRevert": false,
            "internalRevertMessage": "",
            "isContractCreation": false,
            "isFlashloan": false,
            "maxFee": "",
            "nonce": 1618,
            "overwritedBlockNumber": -1,
            "priorityFee": "",
            "receiver": "0x29b8aaca11e888b3fec76de6970771f610ad8ae8",
            "revertMessage": "",
            "sender": "0x718910de6efd3ed30f8e1fc22c742c906ab25b5a",
            "simulationEnable": true,
            "sourceTxnHash": "0x29b1ba40be75424c9c5b84520322a9a04b944fb9439f0cc03775d2085dbeaa5a",
            "status": true,
            "timestamp": "2020-07-11T03:08:24Z",
            "transactionFee": "0.00134896",
            "txnHash": "0x29b1ba40be75424c9c5b84520322a9a04b944fb9439f0cc03775d2085dbeaa5a",
            "txnIndex": 121,
            "type": 0,
            "value": "0"
        },
        "fund_flow": [
            {
                "amount": "136,712,328,760,000,000,000",
                "from": "0x718910de6efd3ed30f8e1fc22c742c906ab25b5a",
                "id": 1,
                "isERC1155": false,
                "isERC721": false,
                "isReverted": false,
                "order": 1,
                "to": "0xb27655a03addc84d85bbe92bd32491052ba66536",
                "token": "0x29b8aaca11e888b3fec76de6970771f610ad8ae8"
            }
        ],
        "token_infos": [
            {
                "address": "0xc02aaa39b223fe8d0a0e5c4f27ead9083c756cc2",
                "decimals": 18
            },
            {
                "address": "0xeeeeeeeeeeeeeeeeeeeeeeeeeeeeeeeeeeeeeeee",
                "decimals": 18
            }
        ]
    },
    "address_label": {
        "labels": [
            {
                "address": "0xeeeeeeeeeeeeeeeeeeeeeeeeeeeeeeeeeeeeeeee",
                "label": "Ether"
            },
            {
                "address": "0x29b8aaca11e888b3fec76de6970771f610ad8ae8",
                "label": "CMD (CMD)"
            },
            {
                "address": "0x0000000000000000000000000000000000000001",
                "label": "Precompiled"
            },
            {
                "address": "0x0000000000000000000000000000000000000002",
                "label": "Precompiled"
            },
            {
                "address": "0x0000000000000000000000000000000000000003",
                "label": "Precompiled"
            },
            {
                "address": "0x0000000000000000000000000000000000000004",
                "label": "Precompiled"
            }
        ]
    },
    "trace": {
        "accountLabels": null,
        "dataMap": {
            "-1": {
                "invocation": {
                    "address": "0x718910de6efd3ed30f8e1fc22c742c906ab25b5a",
                    "callData": "",
                    "decodedMethod": null,
                    "errorInfo": "",
                    "fromAddress": "",
                    "gasUsed": 0,
                    "id": -1,
                    "methodDecoded": false,
                    "operation": "",
                    "output": "",
                    "revert": false,
                    "revertMessage": "",
                    "selector": "",
                    "status": false,
                    "value": ""
                },
                "nodeType": 0
            },
            "0": {
                "invocation": {
                    "address": "0x29b8aaca11e888b3fec76de6970771f610ad8ae8",
                    "callData": "0x000000000000000000000000b27655a03addc84d85bbe92bd32491052ba665360000000000000000000000000000000000000000000000076943c2ac9c383000",
                    "decodedMethod": {
                        "callParams": [
                            {
                                "name": "_to",
                                "type": "address",
                                "value": "0xb27655a03addc84d85bbe92bd32491052ba66536"
                            },
                            {
                                "decimalAvailable": true,
                                "name": "_value",
                                "type": "uint256",
                                "value": "136,712,328,760,000,000,000"
                            }
                        ],
                        "constructorArguments": "",
                        "name": "transfer",
                        "returnParams": [],
                        "signature": "transfer(address,uint256)"
                    },
                    "errorInfo": "",
                    "fromAddress": "0x718910de6efd3ed30f8e1fc22c742c906ab25b5a",
                    "gasUsed": 42155,
                    "id": 0,
                    "methodDecoded": true,
                    "operation": "CALL",
                    "output": "",
                    "revert": false,
                    "revertMessage": "",
                    "selector": "0xa9059cbb",
                    "status": true,
                    "value": "0"
                },
                "nodeType": 0
            },
            "1": {
                "event": {
                    "contract": "0x29b8aaca11e888b3fec76de6970771f610ad8ae8",
                    "decodedLog": {
                        "name": "Transfer",
                        "params": [
                            {
                                "name": "from",
                                "type": "address",
                                "value": "0x718910de6efd3ed30f8e1fc22c742c906ab25b5a"
                            },
                            {
                                "name": "to",
                                "type": "address",
                                "value": "0xb27655a03addc84d85bbe92bd32491052ba66536"
                            },
                            {
                                "decimalAvailable": true,
                                "name": "value",
                                "type": "uint256",
                                "value": "136,712,328,760,000,000,000"
                            }
                        ],
                        "signature": "Transfer(address,address,uint256)"
                    },
                    "id": 1,
                    "logData": "0x0000000000000000000000000000000000000000000000076943c2ac9c383000",
                    "logDecoded": true,
                    "operation": "EVENT",
                    "revert": false,
                    "status": true,
                    "topics": [
                        "0xddf252ad1be2c89b69c2b068fc378daa952ba7f163c4a11628f55a4df523b3ef",
                        "0x000000000000000000000000718910de6efd3ed30f8e1fc22c742c906ab25b5a",
                        "0x000000000000000000000000b27655a03addc84d85bbe92bd32491052ba66536"
                    ]
                },
                "nodeType": 1
            }
        },
        "gasFlame": [
            {
                "children": [
                    {
                        "children": [
                            {
                                "children": [],
                                "depth": 0,
                                "name": "Initial Gas",
                                "value": 21656
                            },
                            {
                                "children": [],
                                "depth": 0,
                                "name": "Executed Gas",
                                "value": 20499
                            }
                        ],
                        "depth": -1,
                        "name": "Actual Gas Used",
                        "value": 42155
                    },
                    {
                        "children": [],
                        "depth": -1,
                        "name": "Refunded Gas",
                        "value": 0
                    }
                ],
                "depth": -2,
                "name": "Total Gas",
                "value": 42155
            }
        ],
        "isConfirmed": true,
        "mainTrace": [
            {
                "children": [
                    {
                        "children": [
                            {
                                "children": [],
                                "depth": 1,
                                "id": 1,
                                "order": 1
                            }
                        ],
                        "depth": 0,
                        "id": 0,
                        "order": 0
                    }
                ],
                "depth": -1,
                "id": -1,
                "order": -1
            }
        ],
        "mainTraceNodeCount": 2,
        "parentIdMap": {
            "0": -1,
            "1": 0
        },
        "tidyTrace": [
            {
                "children": [
                    {
                        "children": [
                            {
                                "children": [],
                                "depth": 1,
                                "id": 1,
                                "order": 1
                            }
                        ],
                        "depth": 0,
                        "id": 0,
                        "order": 0
                    }
                ],
                "depth": -1,
                "id": -1,
                "order": -1
            }
        ],
        "tidyTraceNodeCount": 2
    },
    "state_change": {
        "stateChanges": [
            {
                "address": "0x29b8aaca11e888b3fec76de6970771f610ad8ae8",
                "erc": "",
                "slots": [
                    {
                        "current": "0x000000000000000000000000000000000000000000000016473351cc4babf000",
                        "key": "0xd080988d58623013f11b6d7c1529e5e98a150193021e2ed229361567e2daf4b7",
                        "prev": "0x00000000000000000000000000000000000000000000000eddef8f1faf73c000"
                    },
                    {
                        "current": "0x0000000000000000000000000000000000000000000000bb213f5e1d34983c00",
                        "key": "0x43a75e91f8586b6d882e77ff093ee7b1616b95a2b2a25a04ff14a07c84973aba",
                        "prev": "0x0000000000000000000000000000000000000000000000c28a8320c9d0d06c00"
                    }
                ],
                "storageVariables": []
            }
        ]
    }
}