{
    "balance_change": {
        "balanceChanges": [
            {
                "account": "0xc2f76c21d29d156cb07cce315547b6ac8417ee6d",
                "assets": [
                    {
                        "address": "0x6c2d0e9c479b8b3213e4acf211c928d5bdaede5d",
                        "amount": "348,134,432.146867916",
                        "iconUrl": "",
                        "isERC1155": false,
                        "isERC721": false,
                        "sign": false,
                        "value": "99.20125476"
                    },
                    {
                        "address": "0xeeeeeeeeeeeeeeeeeeeeeeeeeeeeeeeeeeeeeeee",
                        "amount": "0.040695297095805406",
                        "iconUrl": "https://assets.blocksec.com/image/1663669189317-3.png",
                        "isERC1155": false,
                        "isERC721": false,
                        "sign": true,
                        "value": "100.1674042819400037"
                    }
                ]
            },
            {
                "account": "0xc02aaa39b223fe8d0a0e5c4f27ead9083c756cc2",
                "assets": [
                    {
                        "address": "0xeeeeeeeeeeeeeeeeeeeeeeeeeeeeeeeeeeeeeeee",
                        "amount": "0.040695297095805406",
                        "iconUrl": "https://assets.blocksec.com/image/1663669189317-3.png",
                        "isERC1155": false,
                        "isERC721": false,
                        "sign": false,
                        "value": "100.1674042819400037"
                    },
                    {
                        "address": "0xc02aaa39b223fe8d0a0e5c4f27ead9083c756cc2",
                        "amount": "0.040695297095805406",
                        "iconUrl": "https://assets.blocksec.com/icon/f1cb2d02c471d545bbc7722daf3277fd852d98e63d118771af7047bd8256c516.png",
                        "isERC1155": false,
                        "isERC721": false,
                        "sign": true,
                        "value": "100.1674042819400037"
                    }
                ]
            },
            {
                "account": "0xd6ba3557bc69c02dd7270edd754ec0f860c4c4fc",
                "assets": [
                    {
                        "address": "0x6c2d0e9c479b8b3213e4acf211c928d5bdaede5d",
                        "amount": "348,134,432.146867916",
                        "iconUrl": "",
                        "isERC1155": false,
                        "isERC721": false,
                        "sign": true,
                        "value": "99.20125476"
                    },
                    {
                        "address": "0xc02aaa39b223fe8d0a0e5c4f27ead9083c756cc2",
                        "amount": "0.040695297095805406",
                        "iconUrl": "https://assets.blocksec.com/icon/f1cb2d02c471d545bbc7722daf3277fd852d98e63d118771af7047bd8256c516.png",
                        "isERC1155": false,
                        "isERC721": false,
                        "sign": false,
                        "value": "100.1674042819400037"
                    }
                ]
            }
        ]
    },
    "profile": {
        "basic_info": {
            "baseFee": "45.014729094",
            "blockNumber": 18978235,
            "callData": "0x3593564c000000000000000000000000000000000000000000000000000000000000006000000000000000000000000000000000000000000000000000000000000000a000000000000000000000000000000000000000000000000000000000659edf3f00000000000000000000000000000000000000000000000000000000000000030a080c00000000000000000000000000000000000000000000000000000000000000000000000000000000000000000000000000000000000000000000000003000000000000000000000000000000000000000000000000000000000000006000000000000000000000000000000000000000000000000000000000000001e0000000000000000000000000000000000000000000000000000000000000030000000000000000000000000000000000000000000000000000000000000001600000000000000000000000006c2d0e9c479b8b3213e4acf211c928d5bdaede5d000000000000000000000000ffffffffffffffffffffffffffffffffffffffff0000000000000000000000000000000000000000000000000000000065c669ea00000000000000000000000000000000000000000000000000000000000000000000000000000000000000003fc91a3afd70395cd496c647d5a6cc9d4b2b7fad00000000000000000000000000000000000000000000000000000000659ee3f200000000000000000000000000000000000000000000000000000000000000e00000000000000000000000000000000000000000000000000000000000000041711683cbfcdc76ea8773f78e3850d9703f461f2938901d6f8361f870737bca617fe43a131e855c530c56fd534a1ce5d5214ace5a2511a84c81ce26282bcff9c51c000000000000000000000000000000000000000000000000000000000000000000000000000000000000000000000000000000000000000000000000000100000000000000000000000000000000000000000000000000000000000000000200000000000000000000000000000000000000000000000004d4d26bea3246cc000000000000000000000000000000000000000000000000008dbe6db3d3f1d400000000000000000000000000000000000000000000000000000000000000a0000000000000000000000000000000000000000000000000000000000000000100000000000000000000000000000000000000000000000000000000000000020000000000000000000000006c2d0e9c479b8b3213e4acf211c928d5bdaede5d000000000000000000000000c02aaa39b223fe8d0a0e5c4f27ead9083c756cc200000000000000000000000000000000000000000000000000000000000000400000000000000000000000000000000000000000000000000000000000000001000000000000000000000000000000000000000000000000008dbe6db3d3f1d4",
            "debugEnable": true,
            "errorInfo": "",
            "eventCount": 7,
            "feeRecipient": "0x4675c7e5baafbffbca748158becba61ef3b0a263",
            "formatValue": "0",
            "gasLimit": 269280,
            "gasPrice": "45.014729095",
            "gasUsed": 191902,
            "intTxnCount": 16,
            "internalRevert": false,
            "internalRevertMessage": "",
            "isContractCreation": false,
            "isFlashloan": false,
            "maxFee": "52.35239968",
            "nonce": 74,
            "overwritedBlockNumber": -1,
            "priorityFee": "0.000000001",
            "receiver": "0x3fc91a3afd70395cd496c647d5a6cc9d4b2b7fad",
            "revertMessage": "",
            "sender": "0xc2f76c21d29d156cb07cce315547b6ac8417ee6d",
            "simulationEnable": true,
            "sourceTxnHash": "0x298dd8ace41abac673a7aba452be2051571060332dcc9fa49c7543b0640de09c",
            "status": true,
            "timestamp": "2024-01-10T18:07:59Z",
            "transactionFee": "0.00863841654278869",
            "txnHash": "0x298dd8ace41abac673a7aba452be2051571060332dcc9fa49c7543b0640de09c",
            "txnIndex": 111,
            "type": 2,
            "value": "0"
        },
        "fund_flow": [
            {
                "amount": "348,134,432.146867916",
                "from": "0xc2f76c21d29d156cb07cce315547b6ac8417ee6d",
                "id": 1,
                "isERC1155": false,
                "isERC721": false,
                "isReverted": false,
                "order": 1,
                "to": "0xd6ba3557bc69c02dd7270edd754ec0f860c4c4fc",
                "token": "0x6c2d0e9c479b8b3213e4acf211c928d5bdaede5d"
            },
            {
                "amount": "0.040695297095805406",
                "from": "0xd6ba3557bc69c02dd7270edd754ec0f860c4c4fc",
                "id": 2,
                "isERC1155": false,
                "isERC721": false,
                "isReverted": false,
                "order": 2,
                "to": "0x3fc91a3afd70395cd496c647d5a6cc9d4b2b7fad",
                "token": "0xc02aaa39b223fe8d0a0e5c4f27ead9083c756cc2"
            },
            {
                "amount": "0.040695297095805406",
                "from": "0xc02aaa39b223fe8d0a0e5c4f27ead9083c756cc2",
                "id": 3,
                "isERC1155": false,
                "isERC721": false,
                "isReverted": false,
                "order": 3,
                "to": "0x3fc91a3afd70395cd496c647d5a6cc9d4b2b7fad",
                "token": "0xeeeeeeeeeeeeeeeeeeeeeeeeeeeeeeeeeeeeeeee"
            },
            {
                "amount": "0.040695297095805406",
                "from": "0x3fc91a3afd70395cd496c647d5a6cc9d4b2b7fad",
                "id": 4,
                "isERC1155": false,
                "isERC721": false,
                "isReverted": false,
                "order": 4,
                "to": "0xc02aaa39b223fe8d0a0e5c4f27ead9083c756cc2",
                "token": "0xc02aaa39b223fe8d0a0e5c4f27ead9083c756cc2"
            },
            {
                "amount": "0.040695297095805406",
                "from": "0x3fc91a3afd70395cd496c647d5a6cc9d4b2b7fad",
                "id": 5,
                "isERC1155": false,
                "isERC721": false,
                "isReverted": false,
                "order": 5,
                "to": "0xc2f76c21d29d156cb07cce315547b6ac8417ee6d",
                "token": "0xeeeeeeeeeeeeeeeeeeeeeeeeeeeeeeeeeeeeeeee"
            }
        ],
        "token_infos": [
            {
                "address": "0x6c2d0e9c479b8b3213e4acf211c928d5bdaede5d",
                "decimals": 9
            },
            {
                "address": "0xc02aaa39b223fe8d0a0e5c4f27ead9083c756cc2",
                "decimals": 18
            },
            {
                "address": "0xeeeeeeeeeeeeeeeeeeeeeeeeeeeeeeeeeeeeeeee",
                "decimals": 18
            }
        ]
    },
    "address_label": {
        "labels": [
            {
                "address": "0xeeeeeeeeeeeeeeeeeeeeeeeeeeeeeeeeeeeeeeee",
                "label": "Ether"
            },
            {
                "address": "0x0000000000000000000000000000000000000004",
                "label": "Precompiled"
            },
            {
                "address": "0x0000000000000000000000000000000000000003",
                "label": "Precompiled"
            },
            {
                "address": "0x000000000022d473030f116ddee9f6b43ac78ba3",
                "label": "Permit2"
            },
            {
                "address": "0xd6ba3557bc69c02dd7270edd754ec0f860c4c4fc",
                "label": "Uniswap V2: MINNIE 7"
            },
            {
                "address": "0x3fc91a3afd70395cd496c647d5a6cc9d4b2b7fad",
                "label": "Uniswap: Universal Router"
            },
            {
                "address": "0xc02aaa39b223fe8d0a0e5c4f27ead9083c756cc2",
                "label": "Wrapped Ether (WETH)"
            },
            {
                "address": "0x6c2d0e9c479b8b3213e4acf211c928d5bdaede5d",
                "label": "MINNIE"
            },
            {
                "address": "0x0000000000000000000000000000000000000001",
                "label": "Precompiled"
            },
            {
                "address": "0x0000000000000000000000000000000000000002",
                "label": "Precompiled"
            }
        ]
    },
    "trace": {
        "accountLabels": null,
        "dataMap": {
            "-1": {
                "invocation": {
                    "address": "0xc2f76c21d29d156cb07cce315547b6ac8417ee6d",
                    "callData": "",
                    "decodedMethod": null,
                    "errorInfo": "",
                    "fromAddress": "",
                    "gasUsed": 0,
                    "id": -1,
                    "methodDecoded": false,
                    "operation": "",
                    "output": "",
                    "revert": false,
                    "revertMessage": "",
                    "selector": "",
                    "status": false,
                    "value": ""
                },
                "nodeType": 0
            },
            "0": {
                "invocation": {
                    "address": "0x3fc91a3afd70395cd496c647d5a6cc9d4b2b7fad",
                    "callData": "0x000000000000000000000000000000000000000000000000000000000000006000000000000000000000000000000000000000000000000000000000000000a000000000000000000000000000000000000000000000000000000000659edf3f00000000000000000000000000000000000000000000000000000000000000030a080c00000000000000000000000000000000000000000000000000000000000000000000000000000000000000000000000000000000000000000000000003000000000000000000000000000000000000000000000000000000000000006000000000000000000000000000000000000000000000000000000000000001e0000000000000000000000000000000000000000000000000000000000000030000000000000000000000000000000000000000000000000000000000000001600000000000000000000000006c2d0e9c479b8b3213e4acf211c928d5bdaede5d000000000000000000000000ffffffffffffffffffffffffffffffffffffffff0000000000000000000000000000000000000000000000000000000065c669ea00000000000000000000000000000000000000000000000000000000000000000000000000000000000000003fc91a3afd70395cd496c647d5a6cc9d4b2b7fad00000000000000000000000000000000000000000000000000000000659ee3f200000000000000000000000000000000000000000000000000000000000000e00000000000000000000000000000000000000000000000000000000000000041711683cbfcdc76ea8773f78e3850d9703f461f2938901d6f8361f870737bca617fe43a131e855c530c56fd534a1ce5d5214ace5a2511a84c81ce26282bcff9c51c000000000000000000000000000000000000000000000000000000000000000000000000000000000000000000000000000000000000000000000000000100000000000000000000000000000000000000000000000000000000000000000200000000000000000000000000000000000000000000000004d4d26bea3246cc000000000000000000000000000000000000000000000000008dbe6db3d3f1d400000000000000000000000000000000000000000000000000000000000000a0000000000000000000000000000000000000000000000000000000000000000100000000000000000000000000000000000000000000000000000000000000020000000000000000000000006c2d0e9c479b8b3213e4acf211c928d5bdaede5d000000000000000000000000c02aaa39b223fe8d0a0e5c4f27ead9083c756cc200000000000000000000000000000000000000000000000000000000000000400000000000000000000000000000000000000000000000000000000000000001000000000000000000000000000000000000000000000000008dbe6db3d3f1d4",
                    "decodedMethod": {
                        "callParams": [
                            {
                                "name": "commands",
                                "type": "bytes",
                                "value": "0x0a080c"
                            },
                            {
                                "name": "inputs",
                                "type": "bytes[]",
                                "value": [
                                    "0x0000000000000000000000006c2d0e9c479b8b3213e4acf211c928d5bdaede5d000000000000000000000000ffffffffffffffffffffffffffffffffffffffff0000000000000000000000000000000000000000000000000000000065c669ea00000000000000000000000000000000000000000000000000000000000000000000000000000000000000003fc91a3afd70395cd496c647d5a6cc9d4b2b7fad00000000000000000000000000000000000000000000000000000000659ee3f200000000000000000000000000000000000000000000000000000000000000e00000000000000000000000000000000000000000000000000000000000000041711683cbfcdc76ea8773f78e3850d9703f461f2938901d6f8361f870737bca617fe43a131e855c530c56fd534a1ce5d5214ace5a2511a84c81ce26282bcff9c51c00000000000000000000000000000000000000000000000000000000000000",
                                    "0x000000000000000000000000000000000000000000000000000000000000000200000000000000000000000000000000000000000000000004d4d26bea3246cc000000000000000000000000000000000000000000000000008dbe6db3d3f1d400000000000000000000000000000000000000000000000000000000000000a0000000000000000000000000000000000000000000000000000000000000000100000000000000000000000000000000000000000000000000000000000000020000000000000000000000006c2d0e9c479b8b3213e4acf211c928d5bdaede5d000000000000000000000000c02aaa39b223fe8d0a0e5c4f27ead9083c756cc2",
                                    "0x0000000000000000000000000000000000000000000000000000000000000001000000000000000000000000000000000000000000000000008dbe6db3d3f1d4"
                                ]
                            },
                            {
                                "name": "deadline",
                                "type": "uint256",
                                "value": "1,704,910,655"
                            }
                        ],
                        "constructorArguments": "",
                        "name": "execute",
                        "returnParams": [],
                        "signature": "execute(bytes,bytes[],uint256)"
                    },
                    "errorInfo": "",
                    "fromAddress": "0xc2f76c21d29d156cb07cce315547b6ac8417ee6d",
                    "gasUsed": 191902,
                    "id": 0,
                    "methodDecoded": true,
                    "operation": "CALL",
                    "output": "",
                    "revert": false,
                    "revertMessage": "",
                    "selector": "0x3593564c",
                    "status": true,
                    "value": "0"
                },
                "nodeType": 0
            },
            "1": {
                "invocation": {
                    "address": "0x000000000022d473030f116ddee9f6b43ac78ba3",
                    "callData": "0x000000000000000000000000c2f76c21d29d156cb07cce315547b6ac8417ee6d0000000000000000000000006c2d0e9c479b8b3213e4acf211c928d5bdaede5d000000000000000000000000ffffffffffffffffffffffffffffffffffffffff0000000000000000000000000000000000000000000000000000000065c669ea00000000000000000000000000000000000000000000000000000000000000000000000000000000000000003fc91a3afd70395cd496c647d5a6cc9d4b2b7fad00000000000000000000000000000000000000000000000000000000659ee3f200000000000000000000000000000000000000000000000000000000000001000000000000000000000000000000000000000000000000000000000000000041711683cbfcdc76ea8773f78e3850d9703f461f2938901d6f8361f870737bca617fe43a131e855c530c56fd534a1ce5d5214ace5a2511a84c81ce26282bcff9c51c00000000000000000000000000000000000000000000000000000000000000",
                    "decodedMethod": {
                        "callParams": [
                            {
                                "name": "owner",
                                "type": "address",
                                "value": "0xc2f76c21d29d156cb07cce315547b6ac8417ee6d"
                            },
                            {
                                "name": "permitSingle",
                                "type": "((address,uint160,uint48,uint48),address,uint256)",
                                "value": [
                                    {
                                        "name": "details",
                                        "type": "(address,uint160,uint48,uint48)",
                                        "value": [
                                            {
                                                "name": "token",
                                                "type": "address",
                                                "value": "0x6c2d0e9c479b8b3213e4acf211c928d5bdaede5d"
                                            },
                                            {
                                                "name": "amount",
                                                "type": "uint160",
                                                "value": "1,461,501,637,330,902,918,203,684,832,716,283,019,655,932,542,975"
                                            },
                                            {
                                                "name": "expiration",
                                                "type": "uint48",
                                                "value": "1,707,502,058"
                                            },
                                            {
                                                "name": "nonce",
                                                "type": "uint48",
                                                "value": "0"
                                            }
                                        ]
                                    },
                                    {
                                        "name": "spender",
                                        "type": "address",
                                        "value": "0x3fc91a3afd70395cd496c647d5a6cc9d4b2b7fad"
                                    },
                                    {
                                        "name": "sigDeadline",
                                        "type": "uint256",
                                        "value": "1,704,911,858"
                                    }
                                ]
                            },
                            {
                                "name": "signature",
                                "type": "bytes",
                                "value": "0x711683cbfcdc76ea8773f78e3850d9703f461f2938901d6f8361f870737bca617fe43a131e855c530c56fd534a1ce5d5214ace5a2511a84c81ce26282bcff9c51c"
                            }
                        ],
                        "constructorArguments": "",
                        "name": "permit",
                        "returnParams": [],
                        "signature": "permit(address,((address,uint160,uint48,uint48),address,uint256),bytes)"
                    },
                    "errorInfo": "",
                    "fromAddress": "0x3fc91a3afd70395cd496c647d5a6cc9d4b2b7fad",
                    "gasUsed": 30786,
                    "id": 1,
                    "methodDecoded": true,
                    "operation": "CALL",
                    "output": "",
                    "revert": false,
                    "revertMessage": "",
                    "selector": "0x2b67b570",
                    "status": true,
                    "value": "0"
                },
                "nodeType": 0
            },
            "10": {
                "invocation": {
                    "address": "0x6c2d0e9c479b8b3213e4acf211c928d5bdaede5d",
                    "callData": "0x000000000000000000000000d6ba3557bc69c02dd7270edd754ec0f860c4c4fc",
                    "decodedMethod": {
                        "callParams": [
                            {
                                "name": "account",
                                "type": "address",
                                "value": "0xd6ba3557bc69c02dd7270edd754ec0f860c4c4fc"
                            }
                        ],
                        "constructorArguments": "",
                        "name": "balanceOf",
                        "returnParams": [
                            {
                                "decimalAvailable": true,
                                "name": "",
                                "type": "uint256",
                                "value": "56,712,927,246,182,247,871"
                            }
                        ],
                        "signature": "balanceOf(address)"
                    },
                    "errorInfo": "",
                    "fromAddress": "0x3fc91a3afd70395cd496c647d5a6cc9d4b2b7fad",
                    "gasUsed": 940,
                    "id": 10,
                    "methodDecoded": true,
                    "operation": "STATICCALL",
                    "output": "0x000000000000000000000000000000000000000000000003130ccada3943edbf",
                    "revert": false,
                    "revertMessage": "",
                    "selector": "0x70a08231",
                    "status": true,
                    "value": "0"
                },
                "nodeType": 0
            },
            "11": {
                "invocation": {
                    "address": "0xd6ba3557bc69c02dd7270edd754ec0f860c4c4fc",
                    "callData": "0x000000000000000000000000000000000000000000000000000000000000000000000000000000000000000000000000000000000000000000909428376ca9de0000000000000000000000003fc91a3afd70395cd496c647d5a6cc9d4b2b7fad00000000000000000000000000000000000000000000000000000000000000800000000000000000000000000000000000000000000000000000000000000000",
                    "decodedMethod": {
                        "callParams": [
                            {
                                "name": "amount0Out",
                                "type": "uint256",
                                "value": "0"
                            },
                            {
                                "name": "amount1Out",
                                "type": "uint256",
                                "value": "40,695,297,095,805,406"
                            },
                            {
                                "name": "to",
                                "type": "address",
                                "value": "0x3fc91a3afd70395cd496c647d5a6cc9d4b2b7fad"
                            },
                            {
                                "name": "data",
                                "type": "bytes",
                                "value": "0x"
                            }
                        ],
                        "constructorArguments": "",
                        "name": "swap",
                        "returnParams": [],
                        "signature": "swap(uint256,uint256,address,bytes)"
                    },
                    "errorInfo": "",
                    "fromAddress": "0x3fc91a3afd70395cd496c647d5a6cc9d4b2b7fad",
                    "gasUsed": 60759,
                    "id": 11,
                    "methodDecoded": true,
                    "operation": "CALL",
                    "output": "",
                    "revert": false,
                    "revertMessage": "",
                    "selector": "0x022c0d9f",
                    "status": true,
                    "value": "0"
                },
                "nodeType": 0
            },
            "12": {
                "invocation": {
                    "address": "0xc02aaa39b223fe8d0a0e5c4f27ead9083c756cc2",
                    "callData": "0x0000000000000000000000003fc91a3afd70395cd496c647d5a6cc9d4b2b7fad00000000000000000000000000000000000000000000000000909428376ca9de",
                    "decodedMethod": {
                        "callParams": [
                            {
                                "name": "dst",
                                "type": "address",
                                "value": "0x3fc91a3afd70395cd496c647d5a6cc9d4b2b7fad"
                            },
                            {
                                "decimalAvailable": true,
                                "name": "wad",
                                "type": "uint256",
                                "value": "40,695,297,095,805,406"
                            }
                        ],
                        "constructorArguments": "",
                        "name": "transfer",
                        "returnParams": [
                            {
                                "name": "",
                                "type": "bool",
                                "value": true
                            }
                        ],
                        "signature": "transfer(address,uint256)"
                    },
                    "errorInfo": "",
                    "fromAddress": "0xd6ba3557bc69c02dd7270edd754ec0f860c4c4fc",
                    "gasUsed": 27962,
                    "id": 12,
                    "methodDecoded": true,
                    "operation": "CALL",
                    "output": "0x0000000000000000000000000000000000000000000000000000000000000001",
                    "revert": false,
                    "revertMessage": "",
                    "selector": "0xa9059cbb",
                    "status": true,
                    "value": "0"
                },
                "nodeType": 0
            },
            "13": {
                "event": {
                    "contract": "0xc02aaa39b223fe8d0a0e5c4f27ead9083c756cc2",
                    "decodedLog": {
                        "name": "Transfer",
                        "params": [
                            {
                                "name": "src",
                                "type": "address",
                                "value": "0xd6ba3557bc69c02dd7270edd754ec0f860c4c4fc"
                            },
                            {
                                "name": "dst",
                                "type": "address",
                                "value": "0x3fc91a3afd70395cd496c647d5a6cc9d4b2b7fad"
                            },
                            {
                                "decimalAvailable": true,
                                "name": "wad",
                                "type": "uint256",
                                "value": "40,695,297,095,805,406"
                            }
                        ],
                        "signature": "Transfer(address,address,uint256)"
                    },
                    "id": 13,
                    "logData": "0x00000000000000000000000000000000000000000000000000909428376ca9de",
                    "logDecoded": true,
                    "operation": "EVENT",
                    "revert": false,
                    "status": true,
                    "topics": [
                        "0xddf252ad1be2c89b69c2b068fc378daa952ba7f163c4a11628f55a4df523b3ef",
                        "0x000000000000000000000000d6ba3557bc69c02dd7270edd754ec0f860c4c4fc",
                        "0x0000000000000000000000003fc91a3afd70395cd496c647d5a6cc9d4b2b7fad"
                    ]
                },
                "nodeType": 1
            },
            "14": {
                "invocation": {
                    "address": "0x6c2d0e9c479b8b3213e4acf211c928d5bdaede5d",
                    "callData": "0x000000000000000000000000d6ba3557bc69c02dd7270edd754ec0f860c4c4fc",
                    "decodedMethod": {
                        "callParams": [
                            {
                                "name": "account",
                                "type": "address",
                                "value": "0xd6ba3557bc69c02dd7270edd754ec0f860c4c4fc"
                            }
                        ],
                        "constructorArguments": "",
                        "name": "balanceOf",
                        "returnParams": [
                            {
                                "decimalAvailable": true,
                                "name": "",
                                "type": "uint256",
                                "value": "56,712,927,246,182,247,871"
                            }
                        ],
                        "signature": "balanceOf(address)"
                    },
                    "errorInfo": "",
                    "fromAddress": "0xd6ba3557bc69c02dd7270edd754ec0f860c4c4fc",
                    "gasUsed": 940,
                    "id": 14,
                    "methodDecoded": true,
                    "operation": "STATICCALL",
                    "output": "0x000000000000000000000000000000000000000000000003130ccada3943edbf",
                    "revert": false,
                    "revertMessage": "",
                    "selector": "0x70a08231",
                    "status": true,
                    "value": "0"
                },
                "nodeType": 0
            },
            "15": {
                "invocation": {
                    "address": "0xc02aaa39b223fe8d0a0e5c4f27ead9083c756cc2",
                    "callData": "0x000000000000000000000000d6ba3557bc69c02dd7270edd754ec0f860c4c4fc",
                    "decodedMethod": {
                        "callParams": [
                            {
                                "name": "",
                                "type": "address",
                                "value": "0xd6ba3557bc69c02dd7270edd754ec0f860c4c4fc"
                            }
                        ],
                        "constructorArguments": "",
                        "name": "balanceOf",
                        "returnParams": [
                            {
                                "decimalAvailable": true,
                                "name": "",
                                "type": "uint256",
                                "value": "6,608,608,138,089,598,443"
                            }
                        ],
                        "signature": "balanceOf(address)"
                    },
                    "errorInfo": "",
                    "fromAddress": "0xd6ba3557bc69c02dd7270edd754ec0f860c4c4fc",
                    "gasUsed": 534,
                    "id": 15,
                    "methodDecoded": true,
                    "operation": "STATICCALL",
                    "output": "0x0000000000000000000000000000000000000000000000005bb67e1672960deb",
                    "revert": false,
                    "revertMessage": "",
                    "selector": "0x70a08231",
                    "status": true,
                    "value": "0"
                },
                "nodeType": 0
            },
            "16": {
                "event": {
                    "contract": "0xd6ba3557bc69c02dd7270edd754ec0f860c4c4fc",
                    "decodedLog": {
                        "name": "Sync",
                        "params": [
                            {
                                "name": "reserve0",
                                "type": "uint112",
                                "value": "56,712,927,246,182,247,871"
                            },
                            {
                                "name": "reserve1",
                                "type": "uint112",
                                "value": "6,608,608,138,089,598,443"
                            }
                        ],
                        "signature": "Sync(uint112,uint112)"
                    },
                    "id": 16,
                    "logData": "0x000000000000000000000000000000000000000000000003130ccada3943edbf0000000000000000000000000000000000000000000000005bb67e1672960deb",
                    "logDecoded": true,
                    "operation": "EVENT",
                    "revert": false,
                    "status": true,
                    "topics": [
                        "0x1c411e9a96e071241c2f21f7726b17ae89e3cab4c78be50e062b03a9fffbbad1"
                    ]
                },
                "nodeType": 1
            },
            "17": {
                "event": {
                    "contract": "0xd6ba3557bc69c02dd7270edd754ec0f860c4c4fc",
                    "decodedLog": {
                        "name": "Swap",
                        "params": [
                            {
                                "name": "sender",
                                "type": "address",
                                "value": "0x3fc91a3afd70395cd496c647d5a6cc9d4b2b7fad"
                            },
                            {
                                "name": "to",
                                "type": "address",
                                "value": "0x3fc91a3afd70395cd496c647d5a6cc9d4b2b7fad"
                            },
                            {
                                "name": "amount0In",
                                "type": "uint256",
                                "value": "348,134,432,146,867,916"
                            },
                            {
                                "name": "amount1In",
                                "type": "uint256",
                                "value": "0"
                            },
                            {
                                "name": "amount0Out",
                                "type": "uint256",
                                "value": "0"
                            },
                            {
                                "name": "amount1Out",
                                "type": "uint256",
                                "value": "40,695,297,095,805,406"
                            }
                        ],
                        "signature": "Swap(address,uint256,uint256,uint256,uint256,address)"
                    },
                    "id": 17,
                    "logData": "0x00000000000000000000000000000000000000000000000004d4d26bea3246cc0000000000000000000000000000000000000000000000000000000000000000000000000000000000000000000000000000000000000000000000000000000000000000000000000000000000000000000000000000000000909428376ca9de",
                    "logDecoded": true,
                    "operation": "EVENT",
                    "revert": false,
                    "status": true,
                    "topics": [
                        "0xd78ad95fa46c994b6551d0da85fc275fe613ce37657fb8d5e3d130840159d822",
                        "0x0000000000000000000000003fc91a3afd70395cd496c647d5a6cc9d4b2b7fad",
                        "0x0000000000000000000000003fc91a3afd70395cd496c647d5a6cc9d4b2b7fad"
                    ]
                },
                "nodeType": 1
            },
            "18": {
                "invocation": {
                    "address": "0xc02aaa39b223fe8d0a0e5c4f27ead9083c756cc2",
                    "callData": "0x0000000000000000000000003fc91a3afd70395cd496c647d5a6cc9d4b2b7fad",
                    "decodedMethod": {
                        "callParams": [
                            {
                                "name": "",
                                "type": "address",
                                "value": "0x3fc91a3afd70395cd496c647d5a6cc9d4b2b7fad"
                            }
                        ],
                        "constructorArguments": "",
                        "name": "balanceOf",
                        "returnParams": [
                            {
                                "decimalAvailable": true,
                                "name": "",
                                "type": "uint256",
                                "value": "40,695,297,095,805,406"
                            }
                        ],
                        "signature": "balanceOf(address)"
                    },
                    "errorInfo": "",
                    "fromAddress": "0x3fc91a3afd70395cd496c647d5a6cc9d4b2b7fad",
                    "gasUsed": 534,
                    "id": 18,
                    "methodDecoded": true,
                    "operation": "STATICCALL",
                    "output": "0x00000000000000000000000000000000000000000000000000909428376ca9de",
                    "revert": false,
                    "revertMessage": "",
                    "selector": "0x70a08231",
                    "status": true,
                    "value": "0"
                },
                "nodeType": 0
            },
            "19": {
                "invocation": {
                    "address": "0xc02aaa39b223fe8d0a0e5c4f27ead9083c756cc2",
                    "callData": "0x0000000000000000000000003fc91a3afd70395cd496c647d5a6cc9d4b2b7fad",
                    "decodedMethod": {
                        "callParams": [
                            {
                                "name": "",
                                "type": "address",
                                "value": "0x3fc91a3afd70395cd496c647d5a6cc9d4b2b7fad"
                            }
                        ],
                        "constructorArguments": "",
                        "name": "balanceOf",
                        "returnParams": [
                            {
                                "decimalAvailable": true,
                                "name": "",
                                "type": "uint256",
                                "value": "40,695,297,095,805,406"
                            }
                        ],
                        "signature": "balanceOf(address)"
                    },
                    "errorInfo": "",
                    "fromAddress": "0x3fc91a3afd70395cd496c647d5a6cc9d4b2b7fad",
                    "gasUsed": 534,
                    "id": 19,
                    "methodDecoded": true,
                    "operation": "STATICCALL",
                    "output": "0x00000000000000000000000000000000000000000000000000909428376ca9de",
                    "revert": false,
                    "revertMessage": "",
                    "selector": "0x70a08231",
                    "status": true,
                    "value": "0"
                },
                "nodeType": 0
            },
            "2": {
                "invocation": {
                    "address": "0x0000000000000000000000000000000000000001",
                    "callData": "0xffdf55b38544da80a19eec28d3f6099bc7c47eea13d7ca6ed909bd65000000000000000000000000000000000000000000000000000000000000001c711683cbfcdc76ea8773f78e3850d9703f461f2938901d6f8361f870737bca617fe43a131e855c530c56fd534a1ce5d5214ace5a2511a84c81ce26282bcff9c5",
                    "decodedMethod": {
                        "callParams": [
                            {
                                "name": "hash",
                                "type": "bytes32",
                                "value": "0x6595bb9affdf55b38544da80a19eec28d3f6099bc7c47eea13d7ca6ed909bd65"
                            },
                            {
                                "name": "v",
                                "type": "uint256",
                                "value": "28"
                            },
                            {
                                "name": "r",
                                "type": "bytes32",
                                "value": "0x711683cbfcdc76ea8773f78e3850d9703f461f2938901d6f8361f870737bca61"
                            },
                            {
                                "name": "s",
                                "type": "bytes32",
                                "value": "0x7fe43a131e855c530c56fd534a1ce5d5214ace5a2511a84c81ce26282bcff9c5"
                            }
                        ],
                        "constructorArguments": "",
                        "name": "ecrecover",
                        "returnParams": [
                            {
                                "name": "",
                                "type": "address",
                                "value": "0xc2f76c21d29d156cb07cce315547b6ac8417ee6d"
                            }
                        ],
                        "signature": "ecrecover(bytes32,uint256,bytes32,bytes32)"
                    },
                    "errorInfo": "",
                    "fromAddress": "0x000000000022d473030f116ddee9f6b43ac78ba3",
                    "gasUsed": 3000,
                    "id": 2,
                    "methodDecoded": true,
                    "operation": "STATICCALL",
                    "output": "0x000000000000000000000000c2f76c21d29d156cb07cce315547b6ac8417ee6d",
                    "revert": false,
                    "revertMessage": "",
                    "selector": "0x6595bb9a",
                    "status": true,
                    "value": "0"
                },
                "nodeType": 0
            },
            "20": {
                "invocation": {
                    "address": "0xc02aaa39b223fe8d0a0e5c4f27ead9083c756cc2",
                    "callData": "0x00000000000000000000000000000000000000000000000000909428376ca9de",
                    "decodedMethod": {
                        "callParams": [
                            {
                                "name": "wad",
                                "type": "uint256",
                                "value": "40,695,297,095,805,406"
                            }
                        ],
                        "constructorArguments": "",
                        "name": "withdraw",
                        "returnParams": [],
                        "signature": "withdraw(uint256)"
                    },
                    "errorInfo": "",
                    "fromAddress": "0x3fc91a3afd70395cd496c647d5a6cc9d4b2b7fad",
                    "gasUsed": 9220,
                    "id": 20,
                    "methodDecoded": true,
                    "operation": "CALL",
                    "output": "",
                    "revert": false,
                    "revertMessage": "",
                    "selector": "0x2e1a7d4d",
                    "status": true,
                    "value": "0"
                },
                "nodeType": 0
            },
            "21": {
                "invocation": {
                    "address": "0x3fc91a3afd70395cd496c647d5a6cc9d4b2b7fad",
                    "callData": "0x",
                    "decodedMethod": null,
                    "errorInfo": "",
                    "fromAddress": "0xc02aaa39b223fe8d0a0e5c4f27ead9083c756cc2",
                    "gasUsed": 80,
                    "id": 21,
                    "methodDecoded": false,
                    "operation": "CALL",
                    "output": "",
                    "revert": false,
                    "revertMessage": "",
                    "selector": "fallback",
                    "status": true,
                    "value": "0.040695297095805406"
                },
                "nodeType": 0
            },
            "22": {
                "event": {
                    "contract": "0xc02aaa39b223fe8d0a0e5c4f27ead9083c756cc2",
                    "decodedLog": {
                        "name": "Withdrawal",
                        "params": [
                            {
                                "name": "src",
                                "type": "address",
                                "value": "0x3fc91a3afd70395cd496c647d5a6cc9d4b2b7fad"
                            },
                            {
                                "name": "wad",
                                "type": "uint256",
                                "value": "40,695,297,095,805,406"
                            }
                        ],
                        "signature": "Withdrawal(address,uint256)"
                    },
                    "id": 22,
                    "logData": "0x00000000000000000000000000000000000000000000000000909428376ca9de",
                    "logDecoded": true,
                    "operation": "EVENT",
                    "revert": false,
                    "status": true,
                    "topics": [
                        "0x7fcf532c15f0a6db0bd6d0e038bea71d30d808c7d98cb3bf7268a95bf5081b65",
                        "0x0000000000000000000000003fc91a3afd70395cd496c647d5a6cc9d4b2b7fad"
                    ]
                },
                "nodeType": 1
            },
            "23": {
                "invocation": {
                    "address": "0xc2f76c21d29d156cb07cce315547b6ac8417ee6d",
                    "callData": "0x",
                    "decodedMethod": null,
                    "errorInfo": "",
                    "fromAddress": "0x3fc91a3afd70395cd496c647d5a6cc9d4b2b7fad",
                    "gasUsed": 0,
                    "id": 23,
                    "methodDecoded": false,
                    "operation": "CALL",
                    "output": "",
                    "revert": false,
                    "revertMessage": "",
                    "selector": "fallback",
                    "status": true,
                    "value": "0.040695297095805406"
                },
                "nodeType": 0
            },
            "3": {
                "event": {
                    "contract": "0x000000000022d473030f116ddee9f6b43ac78ba3",
                    "decodedLog": {
                        "name": "Permit",
                        "params": [
                            {
                                "name": "owner",
                                "type": "address",
                                "value": "0xc2f76c21d29d156cb07cce315547b6ac8417ee6d"
                            },
                            {
                                "name": "token",
                                "type": "address",
                                "value": "0x6c2d0e9c479b8b3213e4acf211c928d5bdaede5d"
                            },
                            {
                                "name": "spender",
                                "type": "address",
                                "value": "0x3fc91a3afd70395cd496c647d5a6cc9d4b2b7fad"
                            },
                            {
                                "name": "amount",
                                "type": "uint160",
                                "value": "1,461,501,637,330,902,918,203,684,832,716,283,019,655,932,542,975"
                            },
                            {
                                "name": "expiration",
                                "type": "uint48",
                                "value": "1,707,502,058"
                            },
                            {
                                "name": "nonce",
                                "type": "uint48",
                                "value": "0"
                            }
                        ],
                        "signature": "Permit(address,address,address,uint160,uint48,uint48)"
                    },
                    "id": 3,
                    "logData": "0x000000000000000000000000ffffffffffffffffffffffffffffffffffffffff0000000000000000000000000000000000000000000000000000000065c669ea0000000000000000000000000000000000000000000000000000000000000000",
                    "logDecoded": true,
                    "operation": "EVENT",
                    "revert": false,
                    "status": true,
                    "topics": [
                        "0xc6a377bfc4eb120024a8ac08eef205be16b817020812c73223e81d1bdb9708ec",
                        "0x000000000000000000000000c2f76c21d29d156cb07cce315547b6ac8417ee6d",
                        "0x0000000000000000000000006c2d0e9c479b8b3213e4acf211c928d5bdaede5d",
                        "0x0000000000000000000000003fc91a3afd70395cd496c647d5a6cc9d4b2b7fad"
                    ]
                },
                "nodeType": 1
            },
            "4": {
                "invocation": {
                    "address": "0x000000000022d473030f116ddee9f6b43ac78ba3",
                    "callData": "0x000000000000000000000000c2f76c21d29d156cb07cce315547b6ac8417ee6d000000000000000000000000d6ba3557bc69c02dd7270edd754ec0f860c4c4fc00000000000000000000000000000000000000000000000004d4d26bea3246cc0000000000000000000000006c2d0e9c479b8b3213e4acf211c928d5bdaede5d",
                    "decodedMethod": {
                        "callParams": [
                            {
                                "name": "from",
                                "type": "address",
                                "value": "0xc2f76c21d29d156cb07cce315547b6ac8417ee6d"
                            },
                            {
                                "name": "to",
                                "type": "address",
                                "value": "0xd6ba3557bc69c02dd7270edd754ec0f860c4c4fc"
                            },
                            {
                                "name": "amount",
                                "type": "uint160",
                                "value": "348,134,432,146,867,916"
                            },
                            {
                                "name": "token",
                                "type": "address",
                                "value": "0x6c2d0e9c479b8b3213e4acf211c928d5bdaede5d"
                            }
                        ],
                        "constructorArguments": "",
                        "name": "transferFrom",
                        "returnParams": [],
                        "signature": "transferFrom(address,address,uint160,address)"
                    },
                    "errorInfo": "",
                    "fromAddress": "0x3fc91a3afd70395cd496c647d5a6cc9d4b2b7fad",
                    "gasUsed": 55912,
                    "id": 4,
                    "methodDecoded": true,
                    "operation": "CALL",
                    "output": "",
                    "revert": false,
                    "revertMessage": "",
                    "selector": "0x36c78516",
                    "status": true,
                    "value": "0"
                },
                "nodeType": 0
            },
            "5": {
                "invocation": {
                    "address": "0x6c2d0e9c479b8b3213e4acf211c928d5bdaede5d",
                    "callData": "0x000000000000000000000000c2f76c21d29d156cb07cce315547b6ac8417ee6d000000000000000000000000d6ba3557bc69c02dd7270edd754ec0f860c4c4fc00000000000000000000000000000000000000000000000004d4d26bea3246cc",
                    "decodedMethod": {
                        "callParams": [
                            {
                                "name": "sender",
                                "type": "address",
                                "value": "0xc2f76c21d29d156cb07cce315547b6ac8417ee6d"
                            },
                            {
                                "name": "recipient",
                                "type": "address",
                                "value": "0xd6ba3557bc69c02dd7270edd754ec0f860c4c4fc"
                            },
                            {
                                "decimalAvailable": true,
                                "name": "amount",
                                "type": "uint256",
                                "value": "348,134,432,146,867,916"
                            }
                        ],
                        "constructorArguments": "",
                        "name": "transferFrom",
                        "returnParams": [
                            {
                                "name": "",
                                "type": "bool",
                                "value": true
                            }
                        ],
                        "signature": "transferFrom(address,address,uint256)"
                    },
                    "errorInfo": "",
                    "fromAddress": "0x000000000022d473030f116ddee9f6b43ac78ba3",
                    "gasUsed": 52205,
                    "id": 5,
                    "methodDecoded": true,
                    "operation": "CALL",
                    "output": "0x0000000000000000000000000000000000000000000000000000000000000001",
                    "revert": false,
                    "revertMessage": "",
                    "selector": "0x23b872dd",
                    "status": true,
                    "value": "0"
                },
                "nodeType": 0
            },
            "6": {
                "event": {
                    "contract": "0x6c2d0e9c479b8b3213e4acf211c928d5bdaede5d",
                    "decodedLog": {
                        "name": "Transfer",
                        "params": [
                            {
                                "name": "from",
                                "type": "address",
                                "value": "0xc2f76c21d29d156cb07cce315547b6ac8417ee6d"
                            },
                            {
                                "name": "to",
                                "type": "address",
                                "value": "0xd6ba3557bc69c02dd7270edd754ec0f860c4c4fc"
                            },
                            {
                                "decimalAvailable": true,
                                "name": "value",
                                "type": "uint256",
                                "value": "348,134,432,146,867,916"
                            }
                        ],
                        "signature": "Transfer(address,address,uint256)"
                    },
                    "id": 6,
                    "logData": "0x00000000000000000000000000000000000000000000000004d4d26bea3246cc",
                    "logDecoded": true,
                    "operation": "EVENT",
                    "revert": false,
                    "status": true,
                    "topics": [
                        "0xddf252ad1be2c89b69c2b068fc378daa952ba7f163c4a11628f55a4df523b3ef",
                        "0x000000000000000000000000c2f76c21d29d156cb07cce315547b6ac8417ee6d",
                        "0x000000000000000000000000d6ba3557bc69c02dd7270edd754ec0f860c4c4fc"
                    ]
                },
                "nodeType": 1
            },
            "7": {
                "event": {
                    "contract": "0x6c2d0e9c479b8b3213e4acf211c928d5bdaede5d",
                    "decodedLog": {
                        "name": "Approval",
                        "params": [
                            {
                                "name": "owner",
                                "type": "address",
                                "value": "0xc2f76c21d29d156cb07cce315547b6ac8417ee6d"
                            },
                            {
                                "name": "spender",
                                "type": "address",
                                "value": "0x000000000022d473030f116ddee9f6b43ac78ba3"
                            },
                            {
                                "decimalAvailable": true,
                                "name": "value",
                                "type": "uint256",
                                "value": "115,792,089,237,316,195,423,570,985,008,687,907,853,269,984,665,640,564,039,457,235,873,480,982,772,019"
                            }
                        ],
                        "signature": "Approval(address,address,uint256)"
                    },
                    "id": 7,
                    "logData": "0xfffffffffffffffffffffffffffffffffffffffffffffffffb2b2d9415cdb933",
                    "logDecoded": true,
                    "operation": "EVENT",
                    "revert": false,
                    "status": true,
                    "topics": [
                        "0x8c5be1e5ebec7d5bd14f71427d1e84f3dd0314c0f7b2291e5b200ac8c7c3b925",
                        "0x000000000000000000000000c2f76c21d29d156cb07cce315547b6ac8417ee6d",
                        "0x000000000000000000000000000000000022d473030f116ddee9f6b43ac78ba3"
                    ]
                },
                "nodeType": 1
            },
            "8": {
                "invocation": {
                    "address": "0xc02aaa39b223fe8d0a0e5c4f27ead9083c756cc2",
                    "callData": "0x0000000000000000000000003fc91a3afd70395cd496c647d5a6cc9d4b2b7fad",
                    "decodedMethod": {
                        "callParams": [
                            {
                                "name": "",
                                "type": "address",
                                "value": "0x3fc91a3afd70395cd496c647d5a6cc9d4b2b7fad"
                            }
                        ],
                        "constructorArguments": "",
                        "name": "balanceOf",
                        "returnParams": [
                            {
                                "decimalAvailable": true,
                                "name": "",
                                "type": "uint256",
                                "value": "0"
                            }
                        ],
                        "signature": "balanceOf(address)"
                    },
                    "errorInfo": "",
                    "fromAddress": "0x3fc91a3afd70395cd496c647d5a6cc9d4b2b7fad",
                    "gasUsed": 2534,
                    "id": 8,
                    "methodDecoded": true,
                    "operation": "STATICCALL",
                    "output": "0x0000000000000000000000000000000000000000000000000000000000000000",
                    "revert": false,
                    "revertMessage": "",
                    "selector": "0x70a08231",
                    "status": true,
                    "value": "0"
                },
                "nodeType": 0
            },
            "9": {
                "invocation": {
                    "address": "0xd6ba3557bc69c02dd7270edd754ec0f860c4c4fc",
                    "callData": "0x",
                    "decodedMethod": {
                        "callParams": [],
                        "constructorArguments": "",
                        "name": "getReserves",
                        "returnParams": [
                            {
                                "name": "_reserve0",
                                "type": "uint112",
                                "value": "56,364,792,814,035,379,955"
                            },
                            {
                                "name": "_reserve1",
                                "type": "uint112",
                                "value": "6,649,303,435,185,403,849"
                            },
                            {
                                "name": "_blockTimestampLast",
                                "type": "uint32",
                                "value": "1,704,909,503"
                            }
                        ],
                        "signature": "getReserves()"
                    },
                    "errorInfo": "",
                    "fromAddress": "0x3fc91a3afd70395cd496c647d5a6cc9d4b2b7fad",
                    "gasUsed": 2504,
                    "id": 9,
                    "methodDecoded": true,
                    "operation": "STATICCALL",
                    "output": "0x0000000000000000000000000000000000000000000000030e37f86e4f11a6f30000000000000000000000000000000000000000000000005c47123eaa02b7c900000000000000000000000000000000000000000000000000000000659edabf",
                    "revert": false,
                    "revertMessage": "",
                    "selector": "0x0902f1ac",
                    "status": true,
                    "value": "0"
                },
                "nodeType": 0
            }
        },
        "gasFlame": [
            {
                "children": [
                    {
                        "children": [
                            {
                                "children": [],
                                "depth": 0,
                                "name": "Initial Gas",
                                "value": 27940
                            },
                            {
                                "children": [
                                    {
                                        "children": [
                                            {
                                                "children": [],
                                                "depth": 2,
                                                "name": "ecrecover",
                                                "value": 3000
                                            }
                                        ],
                                        "depth": 1,
                                        "name": "permit",
                                        "value": 30786
                                    },
                                    {
                                        "children": [
                                            {
                                                "children": [],
                                                "depth": 2,
                                                "name": "transferFrom",
                                                "value": 52205
                                            }
                                        ],
                                        "depth": 1,
                                        "name": "transferFrom",
                                        "value": 55912
                                    },
                                    {
                                        "children": [],
                                        "depth": 1,
                                        "name": "balanceOf",
                                        "value": 2534
                                    },
                                    {
                                        "children": [],
                                        "depth": 1,
                                        "name": "getReserves",
                                        "value": 2504
                                    },
                                    {
                                        "children": [],
                                        "depth": 1,
                                        "name": "balanceOf",
                                        "value": 940
                                    },
                                    {
                                        "children": [
                                            {
                                                "children": [],
                                                "depth": 2,
                                                "name": "transfer",
                                                "value": 27962
                                            },
                                            {
                                                "children": [],
                                                "depth": 2,
                                                "name": "balanceOf",
                                                "value": 940
                                            },
                                            {
                                                "children": [],
                                                "depth": 2,
                                                "name": "balanceOf",
                                                "value": 534
                                            }
                                        ],
                                        "depth": 1,
                                        "name": "swap",
                                        "value": 60759
                                    },
                                    {
                                        "children": [],
                                        "depth": 1,
                                        "name": "balanceOf",
                                        "value": 534
                                    },
                                    {
                                        "children": [],
                                        "depth": 1,
                                        "name": "balanceOf",
                                        "value": 534
                                    },
                                    {
                                        "children": [
                                            {
                                                "children": [],
                                                "depth": 2,
                                                "name": "fallback",
                                                "value": 80
                                            }
                                        ],
                                        "depth": 1,
                                        "name": "withdraw",
                                        "value": 9220
                                    },
                                    {
                                        "children": [],
                                        "depth": 1,
                                        "name": "fallback",
                                        "value": 0
                                    }
                                ],
                                "depth": 0,
                                "name": "Executed Gas",
                                "value": 194262
                            }
                        ],
                        "depth": -1,
                        "name": "Actual Gas Used",
                        "value": 191902
                    },
                    {
                        "children": [],
                        "depth": -1,
                        "name": "Refunded Gas",
                        "value": 30300
                    }
                ],
                "depth": -2,
                "name": "Total Gas",
                "value": 222202
            }
        ],
        "isConfirmed": true,
        "mainTrace": [
            {
                "children": [
                    {
                        "children": [
                            {
                                "children": [
                                    {
                                        "children": [],
                                        "depth": 2,
                                        "id": 2,
                                        "order": 2
                                    },
                                    {
                                        "children": [],
                                        "depth": 2,
                                        "id": 3,
                                        "order": 3
                                    }
                                ],
                                "depth": 1,
                                "id": 1,
                                "order": 1
                            },
                            {
                                "children": [
                                    {
                                        "children": [
                                            {
                                                "children": [],
                                                "depth": 3,
                                                "id": 6,
                                                "order": 6
                                            },
                                            {
                                                "children": [],
                                                "depth": 3,
                                                "id": 7,
                                                "order": 7
                                            }
                                        ],
                                        "depth": 2,
                                        "id": 5,
                                        "order": 5
                                    }
                                ],
                                "depth": 1,
                                "id": 4,
                                "order": 4
                            },
                            {
                                "children": [],
                                "depth": 1,
                                "id": 8,
                                "order": 8
                            },
                            {
                                "children": [],
                                "depth": 1,
                                "id": 9,
                                "order": 9
                            },
                            {
                                "children": [],
                                "depth": 1,
                                "id": 10,
                                "order": 10
                            },
                            {
                                "children": [
                                    {
                                        "children": [
                                            {
                                                "children": [],
                                                "depth": 3,
                                                "id": 13,
                                                "order": 13
                                            }
                                        ],
                                        "depth": 2,
                                        "id": 12,
                                        "order": 12
                                    },
                                    {
                                        "children": [],
                                        "depth": 2,
                                        "id": 14,
                                        "order": 14
                                    },
                                    {
                                        "children": [],
                                        "depth": 2,
                                        "id": 15,
                                        "order": 15
                                    },
                                    {
                                        "children": [],
                                        "depth": 2,
                                        "id": 16,
                                        "order": 16
                                    },
                                    {
                                        "children": [],
                                        "depth": 2,
                                        "id": 17,
                                        "order": 17
                                    }
                                ],
                                "depth": 1,
                                "id": 11,
                                "order": 11
                            },
                            {
                                "children": [],
                                "depth": 1,
                                "id": 18,
                                "order": 18
                            },
                            {
                                "children": [],
                                "depth": 1,
                                "id": 19,
                                "order": 19
                            },
                            {
                                "children": [
                                    {
                                        "children": [],
                                        "depth": 2,
                                        "id": 21,
                                        "order": 21
                                    },
                                    {
                                        "children": [],
                                        "depth": 2,
                                        "id": 22,
                                        "order": 22
                                    }
                                ],
                                "depth": 1,
                                "id": 20,
                                "order": 20
                            },
                            {
                                "children": [],
                                "depth": 1,
                                "id": 23,
                                "order": 23
                            }
                        ],
                        "depth": 0,
                        "id": 0,
                        "order": 0
                    }
                ],
                "depth": -1,
                "id": -1,
                "order": -1
            }
        ],
        "mainTraceNodeCount": 24,
        "parentIdMap": {
            "0": -1,
            "1": 0,
            "10": 0,
            "11": 0,
            "12": 11,
            "13": 12,
            "14": 11,
            "15": 11,
            "16": 11,
            "17": 11,
            "18": 0,
            "19": 0,
            "2": 1,
            "20": 0,
            "21": 20,
            "22": 20,
            "23": 0,
            "3": 1,
            "4": 0,
            "5": 4,
            "6": 5,
            "7": 5,
            "8": 0,
            "9": 0
        },
        "tidyTrace": [
            {
                "children": [
                    {
                        "children": [
                            {
                                "children": [
                                    {
                                        "children": [],
                                        "depth": 2,
                                        "id": 3,
                                        "order": 3
                                    }
                                ],
                                "depth": 1,
                                "id": 1,
                                "order": 1
                            },
                            {
                                "children": [
                                    {
                                        "children": [
                                            {
                                                "children": [],
                                                "depth": 3,
                                                "id": 6,
                                                "order": 6
                                            },
                                            {
                                                "children": [],
                                                "depth": 3,
                                                "id": 7,
                                                "order": 7
                                            }
                                        ],
                                        "depth": 2,
                                        "id": 5,
                                        "order": 5
                                    }
                                ],
                                "depth": 1,
                                "id": 4,
                                "order": 4
                            },
                            {
                                "children": [
                                    {
                                        "children": [
                                            {
                                                "children": [],
                                                "depth": 3,
                                                "id": 13,
                                                "order": 13
                                            }
                                        ],
                                        "depth": 2,
                                        "id": 12,
                                        "order": 12
                                    },
                                    {
                                        "children": [],
                                        "depth": 2,
                                        "id": 16,
                                        "order": 16
                                    },
                                    {
                                        "children": [],
                                        "depth": 2,
                                        "id": 17,
                                        "order": 17
                                    }
                                ],
                                "depth": 1,
                                "id": 11,
                                "order": 11
                            },
                            {
                                "children": [
                                    {
                                        "children": [],
                                        "depth": 2,
                                        "id": 21,
                                        "order": 21
                                    },
                                    {
                                        "children": [],
                                        "depth": 2,
                                        "id": 22,
                                        "order": 22
                                    }
                                ],
                                "depth": 1,
                                "id": 20,
                                "order": 20
                            },
                            {
                                "children": [],
                                "depth": 1,
                                "id": 23,
                                "order": 23
                            }
                        ],
                        "depth": 0,
                        "id": 0,
                        "order": 0
                    }
                ],
                "depth": -1,
                "id": -1,
                "order": -1
            }
        ],
        "tidyTraceNodeCount": 16
    },
    "state_change": {
        "stateChanges": [
            {
                "address": "0x000000000022d473030f116ddee9f6b43ac78ba3",
                "erc": "",
                "slots": [
                    {
                        "current": "0x000000000001000065c669eaffffffffffffffffffffffffffffffffffffffff",
                        "key": "0x0b6ac8834f81586ca50d46638d0396f2968a09759dc22ea37e49c26043a56624",
                        "prev": "0x0000000000000000000000000000000000000000000000000000000000000000"
                    }
                ],
                "storageVariables": [
                    {
                        "name": "allowance",
                        "type": "mapping(address => mapping(address => mapping(address => struct IAllowanceTransfer.PackedAllowance)))",
                        "value": {
                            "pairs": [
                                {
                                    "key": "0xc2f76c21d29d156cb07cce315547b6ac8417ee6d",
                                    "value": {
                                        "pairs": [
                                            {
                                                "key": "0x6c2d0e9c479b8b3213e4acf211c928d5bdaede5d",
                                                "value": {
                                                    "pairs": [
                                                        {
                                                            "key": "0x3fc91a3afd70395cd496c647d5a6cc9d4b2b7fad",
                                                            "value": {
                                                                "fields": [
                                                                    {
                                                                        "name": "amount",
                                                                        "type": "uint160",
                                                                        "value": {
                                                                            "current": "1461501637330902918203684832716283019655932542975",
                                                                            "prev": "0",
                                                                            "typeTag": 1
                                                                        }
                                                                    },
                                                                    {
                                                                        "name": "expiration",
                                                                        "type": "uint48",
                                                                        "value": {
                                                                            "current": "1707502058",
                                                                            "prev": "0",
                                                                            "typeTag": 1
                                                                        }
                                                                    },
                                                                    {
                                                                        "name": "nonce",
                                                                        "type": "uint48",
                                                                        "value": {
                                                                            "current": "1",
                                                                            "prev": "0",
                                                                            "typeTag": 1
                                                                        }
                                                                    }
                                                                ],
                                                                "typeTag": 3
                                                            }
                                                        }
                                                    ],
                                                    "typeTag": 4
                                                }
                                            }
                                        ],
                                        "typeTag": 4
                                    }
                                }
                            ],
                            "typeTag": 4
                        }
                    }
                ]
            },
            {
                "address": "0x6c2d0e9c479b8b3213e4acf211c928d5bdaede5d",
                "erc": "ERC-20",
                "slots": [
                    {
                        "current": "0x0000000000000000000000000000000000000000000000000000000000000000",
                        "key": "0x31dc891b4d6a69dde6301d389d1a971dbb1c10efb7115395c76c9aec92283897",
                        "prev": "0x00000000000000000000000000000000000000000000000004d4d26bea3246cc"
                    },
                    {
                        "current": "0x000000000000000000000000000000000000000000000003130ccada3943edbf",
                        "key": "0x12377ddf3e19217ad38d93134c866e6aab1d79a921d1f66d8dd4785f7d0fefc1",
                        "prev": "0x0000000000000000000000000000000000000000000000030e37f86e4f11a6f3"
                    },
                    {
                        "current": "0xfffffffffffffffffffffffffffffffffffffffffffffffffb2b2d9415cdb933",
                        "key": "0x8c415c7b26e90472bed6304d3a19b469f4d63b60878fd77a227cd6143c90cc24",
                        "prev": "0xffffffffffffffffffffffffffffffffffffffffffffffffffffffffffffffff"
                    }
                ],
                "storageVariables": [
                    {
                        "name": "_allowances",
                        "type": "mapping(address => mapping(address => uint256))",
                        "value": {
                            "pairs": [
                                {
                                    "key": "0xc2f76c21d29d156cb07cce315547b6ac8417ee6d",
                                    "value": {
                                        "pairs": [
                                            {
                                                "key": "0x000000000022d473030f116ddee9f6b43ac78ba3",
                                                "value": {
                                                    "current": "115792089237316195423570985008687907853269984665640564039457235873480982772019",
                                                    "prev": "115792089237316195423570985008687907853269984665640564039457584007913129639935",
                                                    "typeTag": 1
                                                }
                                            }
                                        ],
                                        "typeTag": 4
                                    }
                                }
                            ],
                            "typeTag": 4
                        }
                    },
                    {
                        "name": "_balances",
                        "type": "mapping(address => uint256)",
                        "value": {
                            "pairs": [
                                {
                                    "key": "0xc2f76c21d29d156cb07cce315547b6ac8417ee6d",
                                    "value": {
                                        "current": "0",
                                        "prev": "348134432146867916",
                                        "typeTag": 1
                                    }
                                },
                                {
                                    "key": "0xd6ba3557bc69c02dd7270edd754ec0f860c4c4fc",
                                    "value": {
                                        "current": "56712927246182247871",
                                        "prev": "56364792814035379955",
                                        "typeTag": 1
                                    }
                                }
                            ],
                            "typeTag": 4
                        }
                    }
                ]
            },
            {
                "address": "0xc02aaa39b223fe8d0a0e5c4f27ead9083c756cc2",
                "erc": "ERC-20",
                "slots": [
                    {
                        "current": "0x0000000000000000000000000000000000000000000000005bb67e1672960deb",
                        "key": "0x452cca3680837176d5ccfc56f3011e3dc6aa8a7362723726f770449fcdcd6d21",
                        "prev": "0x0000000000000000000000000000000000000000000000005c47123eaa02b7c9"
                    }
                ],
                "storageVariables": [
                    {
                        "name": "balanceOf",
                        "type": "mapping(address => uint256)",
                        "value": {
                            "pairs": [
                                {
                                    "key": "0xd6ba3557bc69c02dd7270edd754ec0f860c4c4fc",
                                    "value": {
                                        "current": "6608608138089598443",
                                        "prev": "6649303435185403849",
                                        "typeTag": 1
                                    }
                                }
                            ],
                            "typeTag": 4
                        }
                    }
                ]
            },
            {
                "address": "0xd6ba3557bc69c02dd7270edd754ec0f860c4c4fc",
                "erc": "ERC-20",
                "slots": [
                    {
                        "current": "0x659edcff0000000000005bb67e1672960deb000000000003130ccada3943edbf",
                        "key": "0x0000000000000000000000000000000000000000000000000000000000000008",
                        "prev": "0x659edabf0000000000005c47123eaa02b7c90000000000030e37f86e4f11a6f3"
                    },
                    {
                        "current": "0x00000000000000000000000000000001a93140214d327792bb89f3f49a83f308",
                        "key": "0x0000000000000000000000000000000000000000000000000000000000000009",
                        "prev": "0x00000000000000000000000000000001a8ed4ce12ff7563fd2b449c300cba508"
                    },
                    {
                        "current": "0x0000000000000000000000000000006852910f006815c27eb35bfbb9e8dc3d48",
                        "key": "0x000000000000000000000000000000000000000000000000000000000000000a",
                        "prev": "0x000000000000000000000000000000683f7e6c7b12e952375d61f3c933170348"
                    }
                ],
                "storageVariables": [
                    {
                        "name": "reserve0",
                        "type": "uint112",
                        "value": {
                            "current": "56712927246182247871",
                            "prev": "56364792814035379955",
                            "typeTag": 1
                        }
                    },
                    {
                        "name": "reserve1",
                        "type": "uint112",
                        "value": {
                            "current": "6608608138089598443",
                            "prev": "6649303435185403849",
                            "typeTag": 1
                        }
                    },
                    {
                        "name": "blockTimestampLast",
                        "type": "uint32",
                        "value": {
                            "current": "1704910079",
                            "prev": "1704909503",
                            "typeTag": 1
                        }
                    },
                    {
                        "name": "price0CumulativeLast",
                        "type": "uint256",
                        "value": {
                            "current": "565177621467292805931120266539021103880",
                            "prev": "564824803872588334935497376142438671624",
                            "typeTag": 1
                        }
                    },
                    {
                        "name": "price1CumulativeLast",
                        "type": "uint256",
                        "value": {
                            "current": "35499116042744807653490208057713573510472",
                            "prev": "35473763953167379270248119037111507026760",
                            "typeTag": 1
                        }
                    }
                ]
            }
        ]
    }
}