{
    "balance_change": {
        "balanceChanges": [
            {
                "account": "0xb6ae52b203ca4b91130452d9bedbaea1e849d947",
                "assets": [
                    {
                        "address": "0x1a0c31837edb132a9312841b9527e6307db13509",
                        "amount": "2,506",
                        "iconUrl": "",
                        "isERC1155": false,
                        "isERC721": false,
                        "sign": false,
                        "value": ""
                    }
                ]
            },
            {
                "account": "0x32afe98bd063a9d85dd2b595c58bd4c313432d83",
                "assets": [
                    {
                        "address": "0x1a0c31837edb132a9312841b9527e6307db13509",
                        "amount": "2,506",
                        "iconUrl": "",
                        "isERC1155": false,
                        "isERC721": false,
                        "sign": true,
                        "value": ""
                    }
                ]
            }
        ]
    },
    "profile": {
        "basic_info": {
            "baseFee": "",
            "blockNumber": 6743055,
            "callData": "0xa9059cbb00000000000000000000000032afe98bd063a9d85dd2b595c58bd4c313432d83000000000000000000000000000000000000000000000087d9bc7aa498e80000",
            "debugEnable": true,
            "errorInfo": "",
            "eventCount": 1,
            "feeRecipient": "0xea674fdde714fd979de3edf0f56aa9716b898ec8",
            "formatValue": "0",
            "gasLimit": 60000,
            "gasPrice": "10",
            "gasUsed": 51947,
            "intTxnCount": 0,
            "internalRevert": false,
            "internalRevertMessage": "",
            "isContractCreation": false,
            "isFlashloan": false,
            "maxFee": "",
            "nonce": 689,
            "overwritedBlockNumber": -1,
            "priorityFee": "",
            "receiver": "0x1a0c31837edb132a9312841b9527e6307db13509",
            "revertMessage": "",
            "sender": "0xb6ae52b203ca4b91130452d9bedbaea1e849d947",
            "simulationEnable": true,
            "sourceTxnHash": "0x292355485160de558e6ceb14411a0369fec6642bee131cb3c77eb08d5241ac15",
            "status": true,
            "timestamp": "2018-11-21T02:28:39Z",
            "transactionFee": "0.00051947",
            "txnHash": "0x292355485160de558e6ceb14411a0369fec6642bee131cb3c77eb08d5241ac15",
            "txnIndex": 11,
            "type": 0,
            "value": "0"
        },
        "fund_flow": [
            {
                "amount": "2,506",
                "from": "0xb6ae52b203ca4b91130452d9bedbaea1e849d947",
                "id": 1,
                "isERC1155": false,
                "isERC721": false,
                "isReverted": false,
                "order": 1,
                "to": "0x32afe98bd063a9d85dd2b595c58bd4c313432d83",
                "token": "0x1a0c31837edb132a9312841b9527e6307db13509"
            }
        ],
        "token_infos": [
            {
                "address": "0x1a0c31837edb132a9312841b9527e6307db13509",
                "decimals": 18
            },
            {
                "address": "0xc02aaa39b223fe8d0a0e5c4f27ead9083c756cc2",
                "decimals": 18
            },
            {
                "address": "0xeeeeeeeeeeeeeeeeeeeeeeeeeeeeeeeeeeeeeeee",
                "decimals": 18
            }
        ]
    },
    "address_label": {
        "labels": [
            {
                "address": "0xeeeeeeeeeeeeeeeeeeeeeeeeeeeeeeeeeeeeeeee",
                "label": "Ether"
            },
            {
                "address": "0x1a0c31837edb132a9312841b9527e6307db13509",
                "label": "Hash Power Token"
            },
            {
                "address": "0x0000000000000000000000000000000000000001",
                "label": "Precompiled"
            },
            {
                "address": "0x0000000000000000000000000000000000000002",
                "label": "Precompiled"
            },
            {
                "address": "0x0000000000000000000000000000000000000003",
                "label": "Precompiled"
            },
            {
                "address": "0x0000000000000000000000000000000000000004",
                "label": "Precompiled"
            }
        ]
    },
    "trace": {
        "accountLabels": null,
        "dataMap": {
            "-1": {
                "invocation": {
                    "address": "0xb6ae52b203ca4b91130452d9bedbaea1e849d947",
                    "callData": "",
                    "decodedMethod": null,
                    "errorInfo": "",
                    "fromAddress": "",
                    "gasUsed": 0,
                    "id": -1,
                    "methodDecoded": false,
                    "operation": "",
                    "output": "",
                    "revert": false,
                    "revertMessage": "",
                    "selector": "",
                    "status": false,
                    "value": ""
                },
                "nodeType": 0
            },
            "0": {
                "invocation": {
                    "address": "0x1a0c31837edb132a9312841b9527e6307db13509",
                    "callData": "0x00000000000000000000000032afe98bd063a9d85dd2b595c58bd4c313432d83000000000000000000000000000000000000000000000087d9bc7aa498e80000",
                    "decodedMethod": {
                        "callParams": [
                            {
                                "name": "_to",
                                "type": "address",
                                "value": "0x32afe98bd063a9d85dd2b595c58bd4c313432d83"
                            },
                            {
                                "decimalAvailable": true,
                                "name": "_value",
                                "type": "uint256",
                                "value": "2,506,000,000,000,000,000,000"
                            }
                        ],
                        "constructorArguments": "",
                        "name": "transfer",
                        "returnParams": [
                            {
                                "name": "",
                                "type": "bool",
                                "value": true
                            }
                        ],
                        "signature": "transfer(address,uint256)"
                    },
                    "errorInfo": "",
                    "fromAddress": "0xb6ae52b203ca4b91130452d9bedbaea1e849d947",
                    "gasUsed": 51947,
                    "id": 0,
                    "methodDecoded": true,
                    "operation": "CALL",
                    "output": "0x0000000000000000000000000000000000000000000000000000000000000001",
                    "revert": false,
                    "revertMessage": "",
                    "selector": "0xa9059cbb",
                    "status": true,
                    "value": "0"
                },
                "nodeType": 0
            },
            "1": {
                "event": {
                    "contract": "0x1a0c31837edb132a9312841b9527e6307db13509",
                    "decodedLog": {
                        "name": "Transfer",
                        "params": [
                            {
                                "name": "from",
                                "type": "address",
                                "value": "0xb6ae52b203ca4b91130452d9bedbaea1e849d947"
                            },
                            {
                                "name": "to",
                                "type": "address",
                                "value": "0x32afe98bd063a9d85dd2b595c58bd4c313432d83"
                            },
                            {
                                "decimalAvailable": true,
                                "name": "value",
                                "type": "uint256",
                                "value": "2,506,000,000,000,000,000,000"
                            }
                        ],
                        "signature": "Transfer(address,address,uint256)"
                    },
                    "id": 1,
                    "logData": "0x000000000000000000000000000000000000000000000087d9bc7aa498e80000",
                    "logDecoded": true,
                    "operation": "EVENT",
                    "revert": false,
                    "status": true,
                    "topics": [
                        "0xddf252ad1be2c89b69c2b068fc378daa952ba7f163c4a11628f55a4df523b3ef",
                        "0x000000000000000000000000b6ae52b203ca4b91130452d9bedbaea1e849d947",
                        "0x00000000000000000000000032afe98bd063a9d85dd2b595c58bd4c313432d83"
                    ]
                },
                "nodeType": 1
            }
        },
        "gasFlame": [
            {
                "children": [
                    {
                        "children": [
                            {
                                "children": [],
                                "depth": 0,
                                "name": "Initial Gas",
                                "value": 23256
                            },
                            {
                                "children": [],
                                "depth": 0,
                                "name": "Executed Gas",
                                "value": 28691
                            }
                        ],
                        "depth": -1,
                        "name": "Actual Gas Used",
                        "value": 51947
                    },
                    {
                        "children": [],
                        "depth": -1,
                        "name": "Refunded Gas",
                        "value": 0
                    }
                ],
                "depth": -2,
                "name": "Total Gas",
                "value": 51947
            }
        ],
        "isConfirmed": true,
        "mainTrace": [
            {
                "children": [
                    {
                        "children": [
                            {
                                "children": [],
                                "depth": 1,
                                "id": 1,
                                "order": 1
                            }
                        ],
                        "depth": 0,
                        "id": 0,
                        "order": 0
                    }
                ],
                "depth": -1,
                "id": -1,
                "order": -1
            }
        ],
        "mainTraceNodeCount": 2,
        "parentIdMap": {
            "0": -1,
            "1": 0
        },
        "tidyTrace": [
            {
                "children": [
                    {
                        "children": [
                            {
                                "children": [],
                                "depth": 1,
                                "id": 1,
                                "order": 1
                            }
                        ],
                        "depth": 0,
                        "id": 0,
                        "order": 0
                    }
                ],
                "depth": -1,
                "id": -1,
                "order": -1
            }
        ],
        "tidyTraceNodeCount": 2
    },
    "state_change": {
        "stateChanges": [
            {
                "address": "0x1a0c31837edb132a9312841b9527e6307db13509",
                "erc": "ERC-20",
                "slots": [
                    {
                        "current": "0x000000000000000000000000000000000000000000001653e9f24af003800000",
                        "key": "0xfd0f45e829336409b57bfabb70a6e26e39ead8cb7adfd4d091297ec820a076ef",
                        "prev": "0x0000000000000000000000000000000000000000000016dbc3aec5949c680000"
                    },
                    {
                        "current": "0x000000000000000000000000000000000000000000000087d9bc7aa498e80000",
                        "key": "0xdd1c1c1cfbfcb1a7a4cf3d486fcb37d679db701cda239ef9dce55dcd96a15fac",
                        "prev": "0x0000000000000000000000000000000000000000000000000000000000000000"
                    }
                ],
                "storageVariables": [
                    {
                        "name": "balances",
                        "type": "mapping(address => uint256)",
                        "value": {
                            "pairs": [
                                {
                                    "key": "0x32afe98bd063a9d85dd2b595c58bd4c313432d83",
                                    "value": {
                                        "current": "2506000000000000000000",
                                        "prev": "0",
                                        "typeTag": 1
                                    }
                                },
                                {
                                    "key": "0xb6ae52b203ca4b91130452d9bedbaea1e849d947",
                                    "value": {
                                        "current": "105440000000000000000000",
                                        "prev": "107946000000000000000000",
                                        "typeTag": 1
                                    }
                                }
                            ],
                            "typeTag": 4
                        }
                    }
                ]
            }
        ]
    }
}