{
    "balance_change": {
        "balanceChanges": [
            {
                "account": "0x61b89bc75e6446a338ed58db20f4e8786a4ebf3b",
                "assets": [
                    {
                        "address": "0x0000000000a39bb272e79075ade125fd351887ac",
                        "amount": "4.003129369599903833",
                        "iconUrl": "",
                        "isERC1155": false,
                        "isERC721": false,
                        "sign": false,
                        "value": ""
                    }
                ]
            },
            {
                "account": "0xff9fbdd28c8d33f4cab89e469f6946c21f098be4",
                "assets": [
                    {
                        "address": "0x0000000000a39bb272e79075ade125fd351887ac",
                        "amount": "4.003129369599903833",
                        "iconUrl": "",
                        "isERC1155": false,
                        "isERC721": false,
                        "sign": true,
                        "value": ""
                    }
                ]
            }
        ]
    },
    "profile": {
        "basic_info": {
            "baseFee": "19.230292805",
            "blockNumber": 17761718,
            "callData": "0x41af3763000000000000000000000000ff9fbdd28c8d33f4cab89e469f6946c21f098be4000000000000000000000000961386bbe8b67334e9ce78528ebd7266594d51cc000000000000000000000000ed5af388653567af2f388e6224dc7c4b3241c54400000000000000000000000000000000000000000000000000000000000022c800000000000000000000000000000000000000000000000037871ad1ce2d46280000000000000000000000000000000000000000000000000000000064bcac0700000000000000000000000000000000000000000000000000000000000005f000000000000000000000000000000000000000000000000000000000010f01530000000000000000000000000000000000000000000000000000000000002328000000000000000000000000000000000000000000000000000000000000d96600000000000000000000000061b89bc75e6446a338ed58db20f4e8786a4ebf3b000000000000000000000000ed5af388653567af2f388e6224dc7c4b3241c544000000000000000000000000000000000000000000000004e26380a136b20000000000000000000000000000000000000000000000000000000000000000000000000000000000000000000000000000000000000000000038e62046fb1a00000000000000000000000000000000000000000000000000000000000000002328000000000000000000000000000000000f1c3dce4d9468968fb107081b69bf260000000000000000000000000000000000000000000000000000000064e5bd2f0000000000000000000000000000000000000000000000000000000000000000000000000000000000000000473ca1d29a136b935a96380ea342f296b4eea82c00000000000000000000000000000000000000000000000000000000000002a000000000000000000000000000000000000000000000000000000000000000a2ca8f2ce543f1194ad2e22d66c0945837db4bfe038cdf2f1bcc950a36489d6bb853fc03e6d049460f5824811397fccc127763e719572e0b16e1a36bf1f4d79c9a1cf658dcb09ecc79c23ff58060a29d91e0e9e2c79a6ddabe9684367dbc8acf374f2dbab6b02e0a01933ff575c9ea417d52498a55eaa07b28da3369b587d1034f5a1c00000000000000000000000000000000000000000000000000000000010f05a9000000000000000000000000000000000000000000000000000000000000",
            "debugEnable": true,
            "errorInfo": "",
            "eventCount": 3,
            "feeRecipient": "0xdafea492d9c6733ae3d56b7ed1adb60692c98bc5",
            "formatValue": "0",
            "gasLimit": 200000,
            "gasPrice": "21.230292805",
            "gasUsed": 120779,
            "intTxnCount": 7,
            "internalRevert": false,
            "internalRevertMessage": "",
            "isContractCreation": false,
            "isFlashloan": false,
            "maxFee": "52.799941609",
            "nonce": 20579,
            "overwritedBlockNumber": -1,
            "priorityFee": "2",
            "receiver": "0x29469395eaf6f95920e59f858042f0e28d98a20b",
            "revertMessage": "",
            "sender": "0x2129c19e9fa31d76aac3e7c865290e88aa7c2f95",
            "simulationEnable": true,
            "sourceTxnHash": "0x2ac52819620d847fbde1a7c5bbf6d10c2924a9fe0399fbfb3f233b44b323f70f",
            "status": true,
            "timestamp": "2023-07-24T08:16:59Z",
            "transactionFee": "0.002564173534695095",
            "txnHash": "0x2ac52819620d847fbde1a7c5bbf6d10c2924a9fe0399fbfb3f233b44b323f70f",
            "txnIndex": 50,
            "type": 2,
            "value": "0"
        },
        "fund_flow": [
            {
                "amount": "4.003129369599903833",
                "from": "0x61b89bc75e6446a338ed58db20f4e8786a4ebf3b",
                "id": 1,
                "isERC1155": false,
                "isERC721": false,
                "isReverted": false,
                "order": 1,
                "to": "0xff9fbdd28c8d33f4cab89e469f6946c21f098be4",
                "token": "0x0000000000a39bb272e79075ade125fd351887ac"
            }
        ],
        "token_infos": [
            {
                "address": "0x0000000000a39bb272e79075ade125fd351887ac",
                "decimals": 18
            },
            {
                "address": "0xc02aaa39b223fe8d0a0e5c4f27ead9083c756cc2",
                "decimals": 18
            },
            {
                "address": "0xeeeeeeeeeeeeeeeeeeeeeeeeeeeeeeeeeeeeeeee",
                "decimals": 18
            }
        ]
    },
    "address_label": {
        "labels": [
            {
                "address": "0x0000000000000000000000000000000000000003",
                "label": "Precompiled"
            },
            {
                "address": "0x29469395eaf6f95920e59f858042f0e28d98a20b",
                "label": "Blur: Blend"
            },
            {
                "address": "0x5c55cd67a6bd0d4c315b50cb6cd589bfb080017e",
                "label": "Helpers"
            },
            {
                "address": "0xed5af388653567af2f388e6224dc7c4b3241c544",
                "label": "Azuki: AZUKI Token"
            },
            {
                "address": "0x0000000000000000000000000000000000000002",
                "label": "Precompiled"
            },
            {
                "address": "0x0000000000000000000000000000000000000001",
                "label": "Precompiled"
            },
            {
                "address": "0x0000000000000000000000000000000000000004",
                "label": "Precompiled"
            },
            {
                "address": "0xeeeeeeeeeeeeeeeeeeeeeeeeeeeeeeeeeeeeeeee",
                "label": "Ether"
            },
            {
                "address": "0x0000000000a39bb272e79075ade125fd351887ac",
                "label": "Blur: Bidding"
            },
            {
                "address": "0x01a656024de4b89e2d0198bf4d468e8fd2358b17",
                "label": "Blur Pool"
            },
            {
                "address": "0xb258ca5559b11cd702f363796522b04d7722ea56",
                "label": "Blend"
            }
        ]
    },
    "trace": {
        "accountLabels": null,
        "dataMap": {
            "-1": {
                "invocation": {
                    "address": "0x2129c19e9fa31d76aac3e7c865290e88aa7c2f95",
                    "callData": "",
                    "decodedMethod": null,
                    "errorInfo": "",
                    "fromAddress": "",
                    "gasUsed": 0,
                    "id": -1,
                    "methodDecoded": false,
                    "operation": "",
                    "output": "",
                    "revert": false,
                    "revertMessage": "",
                    "selector": "",
                    "status": false,
                    "value": ""
                },
                "nodeType": 0
            },
            "0": {
                "invocation": {
                    "address": "0x29469395eaf6f95920e59f858042f0e28d98a20b",
                    "callData": "0x000000000000000000000000ff9fbdd28c8d33f4cab89e469f6946c21f098be4000000000000000000000000961386bbe8b67334e9ce78528ebd7266594d51cc000000000000000000000000ed5af388653567af2f388e6224dc7c4b3241c54400000000000000000000000000000000000000000000000000000000000022c800000000000000000000000000000000000000000000000037871ad1ce2d46280000000000000000000000000000000000000000000000000000000064bcac0700000000000000000000000000000000000000000000000000000000000005f000000000000000000000000000000000000000000000000000000000010f01530000000000000000000000000000000000000000000000000000000000002328000000000000000000000000000000000000000000000000000000000000d96600000000000000000000000061b89bc75e6446a338ed58db20f4e8786a4ebf3b000000000000000000000000ed5af388653567af2f388e6224dc7c4b3241c544000000000000000000000000000000000000000000000004e26380a136b20000000000000000000000000000000000000000000000000000000000000000000000000000000000000000000000000000000000000000000038e62046fb1a00000000000000000000000000000000000000000000000000000000000000002328000000000000000000000000000000000f1c3dce4d9468968fb107081b69bf260000000000000000000000000000000000000000000000000000000064e5bd2f0000000000000000000000000000000000000000000000000000000000000000000000000000000000000000473ca1d29a136b935a96380ea342f296b4eea82c00000000000000000000000000000000000000000000000000000000000002a000000000000000000000000000000000000000000000000000000000000000a2ca8f2ce543f1194ad2e22d66c0945837db4bfe038cdf2f1bcc950a36489d6bb853fc03e6d049460f5824811397fccc127763e719572e0b16e1a36bf1f4d79c9a1cf658dcb09ecc79c23ff58060a29d91e0e9e2c79a6ddabe9684367dbc8acf374f2dbab6b02e0a01933ff575c9ea417d52498a55eaa07b28da3369b587d1034f5a1c00000000000000000000000000000000000000000000000000000000010f05a9000000000000000000000000000000000000000000000000000000000000",
                    "decodedMethod": {
                        "callParams": [
                            {
                                "name": "lien",
                                "type": "(address,address,address,uint256,uint256,uint256,uint256,uint256,uint256)",
                                "value": [
                                    {
                                        "name": "lender",
                                        "type": "address",
                                        "value": "0xff9fbdd28c8d33f4cab89e469f6946c21f098be4"
                                    },
                                    {
                                        "name": "borrower",
                                        "type": "address",
                                        "value": "0x961386bbe8b67334e9ce78528ebd7266594d51cc"
                                    },
                                    {
                                        "name": "collection",
                                        "type": "address",
                                        "value": "0xed5af388653567af2f388e6224dc7c4b3241c544"
                                    },
                                    {
                                        "name": "tokenId",
                                        "type": "uint256",
                                        "value": "8,904"
                                    },
                                    {
                                        "name": "amount",
                                        "type": "uint256",
                                        "value": "4,001,196,282,351,535,656"
                                    },
                                    {
                                        "name": "startTime",
                                        "type": "uint256",
                                        "value": "1,690,086,407"
                                    },
                                    {
                                        "name": "rate",
                                        "type": "uint256",
                                        "value": "1,520"
                                    },
                                    {
                                        "name": "auctionStartBlock",
                                        "type": "uint256",
                                        "value": "17,760,595"
                                    },
                                    {
                                        "name": "auctionDuration",
                                        "type": "uint256",
                                        "value": "9,000"
                                    }
                                ]
                            },
                            {
                                "name": "lienId",
                                "type": "uint256",
                                "value": "55,654"
                            },
                            {
                                "name": "offer",
                                "type": "(address,address,uint256,uint256,uint256,uint256,uint256,uint256,uint256,address)",
                                "value": [
                                    {
                                        "name": "lender",
                                        "type": "address",
                                        "value": "0x61b89bc75e6446a338ed58db20f4e8786a4ebf3b"
                                    },
                                    {
                                        "name": "collection",
                                        "type": "address",
                                        "value": "0xed5af388653567af2f388e6224dc7c4b3241c544"
                                    },
                                    {
                                        "name": "totalAmount",
                                        "type": "uint256",
                                        "value": "90,100,000,000,000,000,000"
                                    },
                                    {
                                        "name": "minAmount",
                                        "type": "uint256",
                                        "value": "0"
                                    },
                                    {
                                        "name": "maxAmount",
                                        "type": "uint256",
                                        "value": "4,100,000,000,000,000,000"
                                    },
                                    {
                                        "name": "auctionDuration",
                                        "type": "uint256",
                                        "value": "9,000"
                                    },
                                    {
                                        "name": "salt",
                                        "type": "uint256",
                                        "value": "20,085,057,820,809,774,638,531,794,512,707,698,470"
                                    },
                                    {
                                        "name": "expirationTime",
                                        "type": "uint256",
                                        "value": "1,692,777,775"
                                    },
                                    {
                                        "name": "rate",
                                        "type": "uint256",
                                        "value": "0"
                                    },
                                    {
                                        "name": "oracle",
                                        "type": "address",
                                        "value": "0x473ca1d29a136b935a96380ea342f296b4eea82c"
                                    }
                                ]
                            },
                            {
                                "name": "signature",
                                "type": "bytes",
                                "value": "0xca8f2ce543f1194ad2e22d66c0945837db4bfe038cdf2f1bcc950a36489d6bb853fc03e6d049460f5824811397fccc127763e719572e0b16e1a36bf1f4d79c9a1cf658dcb09ecc79c23ff58060a29d91e0e9e2c79a6ddabe9684367dbc8acf374f2dbab6b02e0a01933ff575c9ea417d52498a55eaa07b28da3369b587d1034f5a1c00000000000000000000000000000000000000000000000000000000010f05a9"
                            }
                        ],
                        "constructorArguments": "",
                        "name": "refinanceAuctionByOther",
                        "returnParams": [],
                        "signature": "refinanceAuctionByOther((address,address,address,uint256,uint256,uint256,uint256,uint256,uint256),uint256,(address,address,uint256,uint256,uint256,uint256,uint256,uint256,uint256,address),bytes)"
                    },
                    "errorInfo": "",
                    "fromAddress": "0x2129c19e9fa31d76aac3e7c865290e88aa7c2f95",
                    "gasUsed": 120779,
                    "id": 0,
                    "methodDecoded": true,
                    "operation": "CALL",
                    "output": "",
                    "revert": false,
                    "revertMessage": "",
                    "selector": "0x41af3763",
                    "status": true,
                    "value": "0"
                },
                "nodeType": 0
            },
            "1": {
                "invocation": {
                    "address": "0xb258ca5559b11cd702f363796522b04d7722ea56",
                    "callData": "0x000000000000000000000000ff9fbdd28c8d33f4cab89e469f6946c21f098be4000000000000000000000000961386bbe8b67334e9ce78528ebd7266594d51cc000000000000000000000000ed5af388653567af2f388e6224dc7c4b3241c54400000000000000000000000000000000000000000000000000000000000022c800000000000000000000000000000000000000000000000037871ad1ce2d46280000000000000000000000000000000000000000000000000000000064bcac0700000000000000000000000000000000000000000000000000000000000005f000000000000000000000000000000000000000000000000000000000010f01530000000000000000000000000000000000000000000000000000000000002328000000000000000000000000000000000000000000000000000000000000d96600000000000000000000000061b89bc75e6446a338ed58db20f4e8786a4ebf3b000000000000000000000000ed5af388653567af2f388e6224dc7c4b3241c544000000000000000000000000000000000000000000000004e26380a136b20000000000000000000000000000000000000000000000000000000000000000000000000000000000000000000000000000000000000000000038e62046fb1a00000000000000000000000000000000000000000000000000000000000000002328000000000000000000000000000000000f1c3dce4d9468968fb107081b69bf260000000000000000000000000000000000000000000000000000000064e5bd2f0000000000000000000000000000000000000000000000000000000000000000000000000000000000000000473ca1d29a136b935a96380ea342f296b4eea82c00000000000000000000000000000000000000000000000000000000000002a000000000000000000000000000000000000000000000000000000000000000a2ca8f2ce543f1194ad2e22d66c0945837db4bfe038cdf2f1bcc950a36489d6bb853fc03e6d049460f5824811397fccc127763e719572e0b16e1a36bf1f4d79c9a1cf658dcb09ecc79c23ff58060a29d91e0e9e2c79a6ddabe9684367dbc8acf374f2dbab6b02e0a01933ff575c9ea417d52498a55eaa07b28da3369b587d1034f5a1c00000000000000000000000000000000000000000000000000000000010f05a9000000000000000000000000000000000000000000000000000000000000",
                    "decodedMethod": {
                        "callParams": [
                            {
                                "name": "lien",
                                "type": "(address,address,address,uint256,uint256,uint256,uint256,uint256,uint256)",
                                "value": [
                                    {
                                        "name": "lender",
                                        "type": "address",
                                        "value": "0xff9fbdd28c8d33f4cab89e469f6946c21f098be4"
                                    },
                                    {
                                        "name": "borrower",
                                        "type": "address",
                                        "value": "0x961386bbe8b67334e9ce78528ebd7266594d51cc"
                                    },
                                    {
                                        "name": "collection",
                                        "type": "address",
                                        "value": "0xed5af388653567af2f388e6224dc7c4b3241c544"
                                    },
                                    {
                                        "name": "tokenId",
                                        "type": "uint256",
                                        "value": "8,904"
                                    },
                                    {
                                        "name": "amount",
                                        "type": "uint256",
                                        "value": "4,001,196,282,351,535,656"
                                    },
                                    {
                                        "name": "startTime",
                                        "type": "uint256",
                                        "value": "1,690,086,407"
                                    },
                                    {
                                        "name": "rate",
                                        "type": "uint256",
                                        "value": "1,520"
                                    },
                                    {
                                        "name": "auctionStartBlock",
                                        "type": "uint256",
                                        "value": "17,760,595"
                                    },
                                    {
                                        "name": "auctionDuration",
                                        "type": "uint256",
                                        "value": "9,000"
                                    }
                                ]
                            },
                            {
                                "name": "lienId",
                                "type": "uint256",
                                "value": "55,654"
                            },
                            {
                                "name": "offer",
                                "type": "(address,address,uint256,uint256,uint256,uint256,uint256,uint256,uint256,address)",
                                "value": [
                                    {
                                        "name": "lender",
                                        "type": "address",
                                        "value": "0x61b89bc75e6446a338ed58db20f4e8786a4ebf3b"
                                    },
                                    {
                                        "name": "collection",
                                        "type": "address",
                                        "value": "0xed5af388653567af2f388e6224dc7c4b3241c544"
                                    },
                                    {
                                        "name": "totalAmount",
                                        "type": "uint256",
                                        "value": "90,100,000,000,000,000,000"
                                    },
                                    {
                                        "name": "minAmount",
                                        "type": "uint256",
                                        "value": "0"
                                    },
                                    {
                                        "name": "maxAmount",
                                        "type": "uint256",
                                        "value": "4,100,000,000,000,000,000"
                                    },
                                    {
                                        "name": "auctionDuration",
                                        "type": "uint256",
                                        "value": "9,000"
                                    },
                                    {
                                        "name": "salt",
                                        "type": "uint256",
                                        "value": "20,085,057,820,809,774,638,531,794,512,707,698,470"
                                    },
                                    {
                                        "name": "expirationTime",
                                        "type": "uint256",
                                        "value": "1,692,777,775"
                                    },
                                    {
                                        "name": "rate",
                                        "type": "uint256",
                                        "value": "0"
                                    },
                                    {
                                        "name": "oracle",
                                        "type": "address",
                                        "value": "0x473ca1d29a136b935a96380ea342f296b4eea82c"
                                    }
                                ]
                            },
                            {
                                "name": "signature",
                                "type": "bytes",
                                "value": "0xca8f2ce543f1194ad2e22d66c0945837db4bfe038cdf2f1bcc950a36489d6bb853fc03e6d049460f5824811397fccc127763e719572e0b16e1a36bf1f4d79c9a1cf658dcb09ecc79c23ff58060a29d91e0e9e2c79a6ddabe9684367dbc8acf374f2dbab6b02e0a01933ff575c9ea417d52498a55eaa07b28da3369b587d1034f5a1c00000000000000000000000000000000000000000000000000000000010f05a9"
                            }
                        ],
                        "constructorArguments": "",
                        "name": "refinanceAuctionByOther",
                        "returnParams": [],
                        "signature": "refinanceAuctionByOther((address,address,address,uint256,uint256,uint256,uint256,uint256,uint256),uint256,(address,address,uint256,uint256,uint256,uint256,uint256,uint256,uint256,address),bytes)"
                    },
                    "errorInfo": "",
                    "fromAddress": "0x29469395eaf6f95920e59f858042f0e28d98a20b",
                    "gasUsed": 87284,
                    "id": 1,
                    "methodDecoded": true,
                    "operation": "DELEGATECALL",
                    "output": "",
                    "revert": false,
                    "revertMessage": "",
                    "selector": "0x41af3763",
                    "status": true,
                    "value": "0"
                },
                "nodeType": 0
            },
            "10": {
                "event": {
                    "contract": "0x0000000000a39bb272e79075ade125fd351887ac",
                    "decodedLog": {
                        "name": "Transfer",
                        "params": [
                            {
                                "name": "from",
                                "type": "address",
                                "value": "0x61b89bc75e6446a338ed58db20f4e8786a4ebf3b"
                            },
                            {
                                "name": "to",
                                "type": "address",
                                "value": "0xff9fbdd28c8d33f4cab89e469f6946c21f098be4"
                            },
                            {
                                "decimalAvailable": true,
                                "name": "value",
                                "type": "uint256",
                                "value": "4,003,129,369,599,903,833"
                            }
                        ],
                        "signature": "Transfer(address,address,uint256)"
                    },
                    "id": 10,
                    "logData": "0x000000000000000000000000000000000000000000000000378df8f3c0ef8859",
                    "logDecoded": true,
                    "operation": "EVENT",
                    "revert": false,
                    "status": true,
                    "topics": [
                        "0xddf252ad1be2c89b69c2b068fc378daa952ba7f163c4a11628f55a4df523b3ef",
                        "0x00000000000000000000000061b89bc75e6446a338ed58db20f4e8786a4ebf3b",
                        "0x000000000000000000000000ff9fbdd28c8d33f4cab89e469f6946c21f098be4"
                    ]
                },
                "nodeType": 1
            },
            "2": {
                "invocation": {
                    "address": "0x5c55cd67a6bd0d4c315b50cb6cd589bfb080017e",
                    "callData": "0x00000000000000000000000000000000000000000000000000000000010f0153000000000000000000000000000000000000000000000000000000000000232800000000000000000000000000000000000000000000000000000000000005f0",
                    "decodedMethod": {
                        "callParams": [
                            {
                                "name": "startBlock",
                                "type": "uint256",
                                "value": "17,760,595"
                            },
                            {
                                "name": "auctionDuration",
                                "type": "uint256",
                                "value": "9,000"
                            },
                            {
                                "name": "oldRate",
                                "type": "uint256",
                                "value": "1,520"
                            }
                        ],
                        "constructorArguments": "",
                        "name": "calcRefinancingAuctionRate",
                        "returnParams": [
                            {
                                "name": "",
                                "type": "uint256",
                                "value": "2,112"
                            }
                        ],
                        "signature": "calcRefinancingAuctionRate(uint256,uint256,uint256)"
                    },
                    "errorInfo": "",
                    "fromAddress": "0x29469395eaf6f95920e59f858042f0e28d98a20b",
                    "gasUsed": 4096,
                    "id": 2,
                    "methodDecoded": true,
                    "operation": "DELEGATECALL",
                    "output": "0x0000000000000000000000000000000000000000000000000000000000000840",
                    "revert": false,
                    "revertMessage": "",
                    "selector": "0x7e8c1b2d",
                    "status": true,
                    "value": "0"
                },
                "nodeType": 0
            },
            "3": {
                "invocation": {
                    "address": "0x5c55cd67a6bd0d4c315b50cb6cd589bfb080017e",
                    "callData": "0x00000000000000000000000000000000000000000000000037871ad1ce2d462800000000000000000000000000000000000000000000000000000000000005f00000000000000000000000000000000000000000000000000000000064bcac07",
                    "decodedMethod": {
                        "callParams": [
                            {
                                "name": "amount",
                                "type": "uint256",
                                "value": "4,001,196,282,351,535,656"
                            },
                            {
                                "name": "rate",
                                "type": "uint256",
                                "value": "1,520"
                            },
                            {
                                "name": "startTime",
                                "type": "uint256",
                                "value": "1,690,086,407"
                            }
                        ],
                        "constructorArguments": "",
                        "name": "computeCurrentDebt",
                        "returnParams": [
                            {
                                "name": "",
                                "type": "uint256",
                                "value": "4,003,129,369,599,903,833"
                            }
                        ],
                        "signature": "computeCurrentDebt(uint256,uint256,uint256)"
                    },
                    "errorInfo": "",
                    "fromAddress": "0x29469395eaf6f95920e59f858042f0e28d98a20b",
                    "gasUsed": 1468,
                    "id": 3,
                    "methodDecoded": true,
                    "operation": "DELEGATECALL",
                    "output": "0x000000000000000000000000000000000000000000000000378df8f3c0ef8859",
                    "revert": false,
                    "revertMessage": "",
                    "selector": "0x1b70b278",
                    "status": true,
                    "value": "0"
                },
                "nodeType": 0
            },
            "4": {
                "invocation": {
                    "address": "0x0000000000000000000000000000000000000001",
                    "callData": "0x12bbce6465853a8ddea2735f59a6df34bf5c1c4448a18c1306c591f2000000000000000000000000000000000000000000000000000000000000001cca8f2ce543f1194ad2e22d66c0945837db4bfe038cdf2f1bcc950a36489d6bb853fc03e6d049460f5824811397fccc127763e719572e0b16e1a36bf1f4d79c9a",
                    "decodedMethod": {
                        "callParams": [
                            {
                                "name": "hash",
                                "type": "bytes32",
                                "value": "0x203d903f12bbce6465853a8ddea2735f59a6df34bf5c1c4448a18c1306c591f2"
                            },
                            {
                                "name": "v",
                                "type": "uint256",
                                "value": "28"
                            },
                            {
                                "name": "r",
                                "type": "bytes32",
                                "value": "0xca8f2ce543f1194ad2e22d66c0945837db4bfe038cdf2f1bcc950a36489d6bb8"
                            },
                            {
                                "name": "s",
                                "type": "bytes32",
                                "value": "0x53fc03e6d049460f5824811397fccc127763e719572e0b16e1a36bf1f4d79c9a"
                            }
                        ],
                        "constructorArguments": "",
                        "name": "ecrecover",
                        "returnParams": [
                            {
                                "name": "",
                                "type": "address",
                                "value": "0x61b89bc75e6446a338ed58db20f4e8786a4ebf3b"
                            }
                        ],
                        "signature": "ecrecover(bytes32,uint256,bytes32,bytes32)"
                    },
                    "errorInfo": "",
                    "fromAddress": "0x29469395eaf6f95920e59f858042f0e28d98a20b",
                    "gasUsed": 3000,
                    "id": 4,
                    "methodDecoded": true,
                    "operation": "STATICCALL",
                    "output": "0x00000000000000000000000061b89bc75e6446a338ed58db20f4e8786a4ebf3b",
                    "revert": false,
                    "revertMessage": "",
                    "selector": "0x203d903f",
                    "status": true,
                    "value": "0"
                },
                "nodeType": 0
            },
            "5": {
                "invocation": {
                    "address": "0x0000000000000000000000000000000000000001",
                    "callData": "0xdf0ee2a9f2341a55ba1b22108fbe3b904ee2dee36e03d393fe686fa3000000000000000000000000000000000000000000000000000000000000001cf658dcb09ecc79c23ff58060a29d91e0e9e2c79a6ddabe9684367dbc8acf374f2dbab6b02e0a01933ff575c9ea417d52498a55eaa07b28da3369b587d1034f5a",
                    "decodedMethod": {
                        "callParams": [
                            {
                                "name": "hash",
                                "type": "bytes32",
                                "value": "0x87568e21df0ee2a9f2341a55ba1b22108fbe3b904ee2dee36e03d393fe686fa3"
                            },
                            {
                                "name": "v",
                                "type": "uint256",
                                "value": "28"
                            },
                            {
                                "name": "r",
                                "type": "bytes32",
                                "value": "0xf658dcb09ecc79c23ff58060a29d91e0e9e2c79a6ddabe9684367dbc8acf374f"
                            },
                            {
                                "name": "s",
                                "type": "bytes32",
                                "value": "0x2dbab6b02e0a01933ff575c9ea417d52498a55eaa07b28da3369b587d1034f5a"
                            }
                        ],
                        "constructorArguments": "",
                        "name": "ecrecover",
                        "returnParams": [
                            {
                                "name": "",
                                "type": "address",
                                "value": "0x473ca1d29a136b935a96380ea342f296b4eea82c"
                            }
                        ],
                        "signature": "ecrecover(bytes32,uint256,bytes32,bytes32)"
                    },
                    "errorInfo": "",
                    "fromAddress": "0x29469395eaf6f95920e59f858042f0e28d98a20b",
                    "gasUsed": 3000,
                    "id": 5,
                    "methodDecoded": true,
                    "operation": "STATICCALL",
                    "output": "0x000000000000000000000000473ca1d29a136b935a96380ea342f296b4eea82c",
                    "revert": false,
                    "revertMessage": "",
                    "selector": "0x87568e21",
                    "status": true,
                    "value": "0"
                },
                "nodeType": 0
            },
            "6": {
                "event": {
                    "contract": "0x29469395eaf6f95920e59f858042f0e28d98a20b",
                    "decodedLog": {
                        "name": "LoanOfferTaken",
                        "params": [
                            {
                                "name": "offerHash",
                                "type": "bytes32",
                                "value": "0x808c38af8966c0d6caf759ceeb8d2140f4dc921610be04c71c4357c651f57372"
                            },
                            {
                                "name": "lienId",
                                "type": "uint256",
                                "value": "55,654"
                            },
                            {
                                "name": "collection",
                                "type": "address",
                                "value": "0xed5af388653567af2f388e6224dc7c4b3241c544"
                            },
                            {
                                "name": "lender",
                                "type": "address",
                                "value": "0x61b89bc75e6446a338ed58db20f4e8786a4ebf3b"
                            },
                            {
                                "name": "borrower",
                                "type": "address",
                                "value": "0x961386bbe8b67334e9ce78528ebd7266594d51cc"
                            },
                            {
                                "name": "loanAmount",
                                "type": "uint256",
                                "value": "4,003,129,369,599,903,833"
                            },
                            {
                                "name": "rate",
                                "type": "uint256",
                                "value": "0"
                            },
                            {
                                "name": "tokenId",
                                "type": "uint256",
                                "value": "8,904"
                            },
                            {
                                "name": "auctionDuration",
                                "type": "uint256",
                                "value": "9,000"
                            }
                        ],
                        "signature": "LoanOfferTaken(bytes32,uint256,address,address,address,uint256,uint256,uint256,uint256)"
                    },
                    "id": 6,
                    "logData": "0x808c38af8966c0d6caf759ceeb8d2140f4dc921610be04c71c4357c651f57372000000000000000000000000000000000000000000000000000000000000d966000000000000000000000000ed5af388653567af2f388e6224dc7c4b3241c54400000000000000000000000061b89bc75e6446a338ed58db20f4e8786a4ebf3b000000000000000000000000961386bbe8b67334e9ce78528ebd7266594d51cc000000000000000000000000000000000000000000000000378df8f3c0ef8859000000000000000000000000000000000000000000000000000000000000000000000000000000000000000000000000000000000000000000000000000022c80000000000000000000000000000000000000000000000000000000000002328",
                    "logDecoded": true,
                    "operation": "EVENT",
                    "revert": false,
                    "status": true,
                    "topics": [
                        "0x06a333c2d6fe967ca967f7a35be2eb45e8caeb6cf05e16f55d42b91b5fe31255"
                    ]
                },
                "nodeType": 1
            },
            "7": {
                "event": {
                    "contract": "0x29469395eaf6f95920e59f858042f0e28d98a20b",
                    "decodedLog": {
                        "name": "Refinance",
                        "params": [
                            {
                                "name": "loanId",
                                "type": "uint256",
                                "value": "55,654"
                            },
                            {
                                "name": "collateral",
                                "type": "address",
                                "value": "0xed5af388653567af2f388e6224dc7c4b3241c544"
                            },
                            {
                                "name": "newLender",
                                "type": "address",
                                "value": "0x61b89bc75e6446a338ed58db20f4e8786a4ebf3b"
                            },
                            {
                                "name": "newAmount",
                                "type": "uint256",
                                "value": "4,003,129,369,599,903,833"
                            },
                            {
                                "name": "newRate",
                                "type": "uint256",
                                "value": "0"
                            },
                            {
                                "name": "newAuctionDuration",
                                "type": "uint256",
                                "value": "9,000"
                            }
                        ],
                        "signature": "Refinance(uint256,address,address,uint256,uint256,uint256)"
                    },
                    "id": 7,
                    "logData": "0x000000000000000000000000000000000000000000000000000000000000d966000000000000000000000000ed5af388653567af2f388e6224dc7c4b3241c54400000000000000000000000061b89bc75e6446a338ed58db20f4e8786a4ebf3b000000000000000000000000000000000000000000000000378df8f3c0ef885900000000000000000000000000000000000000000000000000000000000000000000000000000000000000000000000000000000000000000000000000002328",
                    "logDecoded": true,
                    "operation": "EVENT",
                    "revert": false,
                    "status": true,
                    "topics": [
                        "0x558a9295c62e9e1b12a21c8fe816f4816a2e0269a53157edbfa16017b11b9ac9"
                    ]
                },
                "nodeType": 1
            },
            "8": {
                "invocation": {
                    "address": "0x0000000000a39bb272e79075ade125fd351887ac",
                    "callData": "0x00000000000000000000000061b89bc75e6446a338ed58db20f4e8786a4ebf3b000000000000000000000000ff9fbdd28c8d33f4cab89e469f6946c21f098be4000000000000000000000000000000000000000000000000378df8f3c0ef8859",
                    "decodedMethod": {
                        "callParams": [
                            {
                                "name": "from",
                                "type": "address",
                                "value": "0x61b89bc75e6446a338ed58db20f4e8786a4ebf3b"
                            },
                            {
                                "name": "to",
                                "type": "address",
                                "value": "0xff9fbdd28c8d33f4cab89e469f6946c21f098be4"
                            },
                            {
                                "decimalAvailable": true,
                                "name": "amount",
                                "type": "uint256",
                                "value": "4,003,129,369,599,903,833"
                            }
                        ],
                        "constructorArguments": "",
                        "name": "transferFrom",
                        "returnParams": [
                            {
                                "name": "",
                                "type": "bool",
                                "value": true
                            }
                        ],
                        "signature": "transferFrom(address,address,uint256)"
                    },
                    "errorInfo": "",
                    "fromAddress": "0x29469395eaf6f95920e59f858042f0e28d98a20b",
                    "gasUsed": 17864,
                    "id": 8,
                    "methodDecoded": true,
                    "operation": "CALL",
                    "output": "0x0000000000000000000000000000000000000000000000000000000000000001",
                    "revert": false,
                    "revertMessage": "",
                    "selector": "0x23b872dd",
                    "status": true,
                    "value": "0"
                },
                "nodeType": 0
            },
            "9": {
                "invocation": {
                    "address": "0x01a656024de4b89e2d0198bf4d468e8fd2358b17",
                    "callData": "0x00000000000000000000000061b89bc75e6446a338ed58db20f4e8786a4ebf3b000000000000000000000000ff9fbdd28c8d33f4cab89e469f6946c21f098be4000000000000000000000000000000000000000000000000378df8f3c0ef8859",
                    "decodedMethod": {
                        "callParams": [
                            {
                                "name": "from",
                                "type": "address",
                                "value": "0x61b89bc75e6446a338ed58db20f4e8786a4ebf3b"
                            },
                            {
                                "name": "to",
                                "type": "address",
                                "value": "0xff9fbdd28c8d33f4cab89e469f6946c21f098be4"
                            },
                            {
                                "decimalAvailable": true,
                                "name": "amount",
                                "type": "uint256",
                                "value": "4,003,129,369,599,903,833"
                            }
                        ],
                        "constructorArguments": "",
                        "name": "transferFrom",
                        "returnParams": [
                            {
                                "name": "",
                                "type": "bool",
                                "value": true
                            }
                        ],
                        "signature": "transferFrom(address,address,uint256)"
                    },
                    "errorInfo": "",
                    "fromAddress": "0x0000000000a39bb272e79075ade125fd351887ac",
                    "gasUsed": 12969,
                    "id": 9,
                    "methodDecoded": true,
                    "operation": "DELEGATECALL",
                    "output": "0x0000000000000000000000000000000000000000000000000000000000000001",
                    "revert": false,
                    "revertMessage": "",
                    "selector": "0x23b872dd",
                    "status": true,
                    "value": "0"
                },
                "nodeType": 0
            }
        },
        "gasFlame": [
            {
                "children": [
                    {
                        "children": [
                            {
                                "children": [],
                                "depth": 0,
                                "name": "Initial Gas",
                                "value": 28440
                            },
                            {
                                "children": [
                                    {
                                        "children": [
                                            {
                                                "children": [],
                                                "depth": 2,
                                                "name": "calcRefinancingAuctionRate",
                                                "value": 4096
                                            },
                                            {
                                                "children": [],
                                                "depth": 2,
                                                "name": "computeCurrentDebt",
                                                "value": 1468
                                            },
                                            {
                                                "children": [],
                                                "depth": 2,
                                                "name": "ecrecover",
                                                "value": 3000
                                            },
                                            {
                                                "children": [],
                                                "depth": 2,
                                                "name": "ecrecover",
                                                "value": 3000
                                            },
                                            {
                                                "children": [
                                                    {
                                                        "children": [],
                                                        "depth": 3,
                                                        "name": "transferFrom",
                                                        "value": 12969
                                                    }
                                                ],
                                                "depth": 2,
                                                "name": "transferFrom",
                                                "value": 17864
                                            }
                                        ],
                                        "depth": 1,
                                        "name": "refinanceAuctionByOther",
                                        "value": 87284
                                    }
                                ],
                                "depth": 0,
                                "name": "Executed Gas",
                                "value": 92339
                            }
                        ],
                        "depth": -1,
                        "name": "Actual Gas Used",
                        "value": 120779
                    },
                    {
                        "children": [],
                        "depth": -1,
                        "name": "Refunded Gas",
                        "value": 0
                    }
                ],
                "depth": -2,
                "name": "Total Gas",
                "value": 120779
            }
        ],
        "isConfirmed": true,
        "mainTrace": [
            {
                "children": [
                    {
                        "children": [
                            {
                                "children": [
                                    {
                                        "children": [],
                                        "depth": 2,
                                        "id": 2,
                                        "order": 2
                                    },
                                    {
                                        "children": [],
                                        "depth": 2,
                                        "id": 3,
                                        "order": 3
                                    },
                                    {
                                        "children": [],
                                        "depth": 2,
                                        "id": 4,
                                        "order": 4
                                    },
                                    {
                                        "children": [],
                                        "depth": 2,
                                        "id": 5,
                                        "order": 5
                                    },
                                    {
                                        "children": [],
                                        "depth": 2,
                                        "id": 6,
                                        "order": 6
                                    },
                                    {
                                        "children": [],
                                        "depth": 2,
                                        "id": 7,
                                        "order": 7
                                    },
                                    {
                                        "children": [
                                            {
                                                "children": [
                                                    {
                                                        "children": [],
                                                        "depth": 4,
                                                        "id": 10,
                                                        "order": 10
                                                    }
                                                ],
                                                "depth": 3,
                                                "id": 9,
                                                "order": 9
                                            }
                                        ],
                                        "depth": 2,
                                        "id": 8,
                                        "order": 8
                                    }
                                ],
                                "depth": 1,
                                "id": 1,
                                "order": 1
                            }
                        ],
                        "depth": 0,
                        "id": 0,
                        "order": 0
                    }
                ],
                "depth": -1,
                "id": -1,
                "order": -1
            }
        ],
        "mainTraceNodeCount": 11,
        "parentIdMap": {
            "0": -1,
            "1": 0,
            "10": 9,
            "2": 1,
            "3": 1,
            "4": 1,
            "5": 1,
            "6": 1,
            "7": 1,
            "8": 1,
            "9": 8
        },
        "tidyTrace": [
            {
                "children": [
                    {
                        "children": [
                            {
                                "children": [
                                    {
                                        "children": [],
                                        "depth": 2,
                                        "id": 2,
                                        "order": 2
                                    },
                                    {
                                        "children": [],
                                        "depth": 2,
                                        "id": 3,
                                        "order": 3
                                    },
                                    {
                                        "children": [],
                                        "depth": 2,
                                        "id": 6,
                                        "order": 6
                                    },
                                    {
                                        "children": [],
                                        "depth": 2,
                                        "id": 7,
                                        "order": 7
                                    },
                                    {
                                        "children": [
                                            {
                                                "children": [
                                                    {
                                                        "children": [],
                                                        "depth": 4,
                                                        "id": 10,
                                                        "order": 10
                                                    }
                                                ],
                                                "depth": 3,
                                                "id": 9,
                                                "order": 9
                                            }
                                        ],
                                        "depth": 2,
                                        "id": 8,
                                        "order": 8
                                    }
                                ],
                                "depth": 1,
                                "id": 1,
                                "order": 1
                            }
                        ],
                        "depth": 0,
                        "id": 0,
                        "order": 0
                    }
                ],
                "depth": -1,
                "id": -1,
                "order": -1
            }
        ],
        "tidyTraceNodeCount": 9
    },
    "state_change": {
        "stateChanges": [
            {
                "address": "0x0000000000a39bb272e79075ade125fd351887ac",
                "erc": "",
                "slots": [
                    {
                        "current": "0x000000000000000000000000000000000000000000000005742789df179f0474",
                        "key": "0xfc1d565f8b8b172c888a3c1e13f2bf233c28bf1a696fb8bd99335f94757ac0f6",
                        "prev": "0x000000000000000000000000000000000000000000000005abb582d2d88e8ccd"
                    },
                    {
                        "current": "0x0000000000000000000000000000000000000000000000190e7d9a65ecb57cdb",
                        "key": "0xc6cd67cc217237ffc825f45e9e54b46000c1395d70de8e657d8db4e95659e11d",
                        "prev": "0x000000000000000000000000000000000000000000000018d6efa1722bc5f482"
                    }
                ],
                "storageVariables": [
                    {
                        "name": "_balances",
                        "type": "mapping(address => uint256)",
                        "value": {
                            "pairs": [
                                {
                                    "key": "0x61b89bc75e6446a338ed58db20f4e8786a4ebf3b",
                                    "value": {
                                        "current": "100603530392306123892",
                                        "prev": "104606659761906027725",
                                        "typeTag": 1
                                    }
                                },
                                {
                                    "key": "0xff9fbdd28c8d33f4cab89e469f6946c21f098be4",
                                    "value": {
                                        "current": "462212762293912304859",
                                        "prev": "458209632924312401026",
                                        "typeTag": 1
                                    }
                                }
                            ],
                            "typeTag": 4
                        }
                    }
                ]
            },
            {
                "address": "0x29469395eaf6f95920e59f858042f0e28d98a20b",
                "erc": "",
                "slots": [
                    {
                        "current": "0x55dd9ae1e2d7e0d1995112fa785b61cae05464916f9ff884cadc203341f5bf3f",
                        "key": "0xfc64adea541f8f55a6ff3e64cd6a0c02f8a1ae867aadd9b5237e9f736feb9cfe",
                        "prev": "0xed558f3f8b7bf062cbfc91cce700030ddf409bff5f031695ae4d9b24de686878"
                    },
                    {
                        "current": "0x000000000000000000000000000000000000000000000000378df8f3c0ef8859",
                        "key": "0xd83b71a6be20be627513f1dc2cc46edb4bd2be8855ea9219d7241ef0b8cf3bad",
                        "prev": "0x0000000000000000000000000000000000000000000000000000000000000000"
                    }
                ],
                "storageVariables": [
                    {
                        "name": "liens",
                        "type": "mapping(uint256 => bytes32)",
                        "value": {
                            "pairs": [
                                {
                                    "key": "55654",
                                    "value": {
                                        "current": "0x55dd9ae1e2d7e0d1995112fa785b61cae05464916f9ff884cadc203341f5bf3f",
                                        "prev": "0xed558f3f8b7bf062cbfc91cce700030ddf409bff5f031695ae4d9b24de686878",
                                        "typeTag": 1
                                    }
                                }
                            ],
                            "typeTag": 4
                        }
                    },
                    {
                        "name": "amountTaken",
                        "type": "mapping(bytes32 => uint256)",
                        "value": {
                            "pairs": [
                                {
                                    "key": "0x808c38af8966c0d6caf759ceeb8d2140f4dc921610be04c71c4357c651f57372",
                                    "value": {
                                        "current": "4003129369599903833",
                                        "prev": "0",
                                        "typeTag": 1
                                    }
                                }
                            ],
                            "typeTag": 4
                        }
                    }
                ]
            }
        ]
    }
}