{
    "balance_change": {
        "balanceChanges": [
            {
                "account": "0x179288a02ee8a939668ddbb0ac21b4fc2a9606a7",
                "assets": [
                    {
                        "address": "0x9b9647431632af44be02ddd22477ed94d14aacaa",
                        "amount": "96.7900575213",
                        "iconUrl": "",
                        "isERC1155": false,
                        "isERC721": false,
                        "sign": false,
                        "value": ""
                    }
                ]
            },
            {
                "account": "0xc00b892dac724f25f97b2a284570935ae2dd485f",
                "assets": [
                    {
                        "address": "0x9b9647431632af44be02ddd22477ed94d14aacaa",
                        "amount": "96.7900575213",
                        "iconUrl": "",
                        "isERC1155": false,
                        "isERC721": false,
                        "sign": true,
                        "value": ""
                    }
                ]
            }
        ]
    },
    "profile": {
        "basic_info": {
            "baseFee": "",
            "blockNumber": 12908316,
            "callData": "0xa9059cbb000000000000000000000000c00b892dac724f25f97b2a284570935ae2dd485f0000000000000000000000000000000000000000000000053f3b5c7ffab64d00",
            "debugEnable": true,
            "errorInfo": "",
            "eventCount": 1,
            "feeRecipient": "0xc8f595e2084db484f8a80109101d58625223b7c9",
            "formatValue": "0",
            "gasLimit": 80000,
            "gasPrice": "46",
            "gasUsed": 58415,
            "intTxnCount": 0,
            "internalRevert": false,
            "internalRevertMessage": "",
            "isContractCreation": false,
            "isFlashloan": false,
            "maxFee": "",
            "nonce": 144286,
            "overwritedBlockNumber": -1,
            "priorityFee": "",
            "receiver": "0x9b9647431632af44be02ddd22477ed94d14aacaa",
            "revertMessage": "",
            "sender": "0x179288a02ee8a939668ddbb0ac21b4fc2a9606a7",
            "simulationEnable": true,
            "sourceTxnHash": "0x2ab16b69635f8bd3a4ad8b1cedd94d7c4f40b5f0d5cb72dedd4a72c9909a2d7b",
            "status": true,
            "timestamp": "2021-07-27T13:26:59Z",
            "transactionFee": "0.00268709",
            "txnHash": "0x2ab16b69635f8bd3a4ad8b1cedd94d7c4f40b5f0d5cb72dedd4a72c9909a2d7b",
            "txnIndex": 274,
            "type": 0,
            "value": "0"
        },
        "fund_flow": [
            {
                "amount": "96.7900575213",
                "from": "0x179288a02ee8a939668ddbb0ac21b4fc2a9606a7",
                "id": 1,
                "isERC1155": false,
                "isERC721": false,
                "isReverted": false,
                "order": 1,
                "to": "0xc00b892dac724f25f97b2a284570935ae2dd485f",
                "token": "0x9b9647431632af44be02ddd22477ed94d14aacaa"
            }
        ],
        "token_infos": [
            {
                "address": "0x9b9647431632af44be02ddd22477ed94d14aacaa",
                "decimals": 18
            },
            {
                "address": "0xc02aaa39b223fe8d0a0e5c4f27ead9083c756cc2",
                "decimals": 18
            },
            {
                "address": "0xeeeeeeeeeeeeeeeeeeeeeeeeeeeeeeeeeeeeeeee",
                "decimals": 18
            }
        ]
    },
    "address_label": {
        "labels": [
            {
                "address": "0xeeeeeeeeeeeeeeeeeeeeeeeeeeeeeeeeeeeeeeee",
                "label": "Ether"
            },
            {
                "address": "0x9b9647431632af44be02ddd22477ed94d14aacaa",
                "label": "KOK PLAY: KOK Token"
            },
            {
                "address": "0xc00b892dac724f25f97b2a284570935ae2dd485f",
                "label": "KUCOIN"
            },
            {
                "address": "0x0000000000000000000000000000000000000001",
                "label": "Precompiled"
            },
            {
                "address": "0x0000000000000000000000000000000000000002",
                "label": "Precompiled"
            },
            {
                "address": "0x0000000000000000000000000000000000000003",
                "label": "Precompiled"
            },
            {
                "address": "0x0000000000000000000000000000000000000004",
                "label": "Precompiled"
            }
        ]
    },
    "trace": {
        "accountLabels": null,
        "dataMap": {
            "-1": {
                "invocation": {
                    "address": "0x179288a02ee8a939668ddbb0ac21b4fc2a9606a7",
                    "callData": "",
                    "decodedMethod": null,
                    "errorInfo": "",
                    "fromAddress": "",
                    "gasUsed": 0,
                    "id": -1,
                    "methodDecoded": false,
                    "operation": "",
                    "output": "",
                    "revert": false,
                    "revertMessage": "",
                    "selector": "",
                    "status": false,
                    "value": ""
                },
                "nodeType": 0
            },
            "0": {
                "invocation": {
                    "address": "0x9b9647431632af44be02ddd22477ed94d14aacaa",
                    "callData": "0x000000000000000000000000c00b892dac724f25f97b2a284570935ae2dd485f0000000000000000000000000000000000000000000000053f3b5c7ffab64d00",
                    "decodedMethod": {
                        "callParams": [
                            {
                                "name": "_to",
                                "type": "address",
                                "value": "0xc00b892dac724f25f97b2a284570935ae2dd485f"
                            },
                            {
                                "decimalAvailable": true,
                                "name": "_value",
                                "type": "uint256",
                                "value": "96,790,057,521,300,000,000"
                            }
                        ],
                        "constructorArguments": "",
                        "name": "transfer",
                        "returnParams": [
                            {
                                "name": "success",
                                "type": "bool",
                                "value": true
                            }
                        ],
                        "signature": "transfer(address,uint256)"
                    },
                    "errorInfo": "",
                    "fromAddress": "0x179288a02ee8a939668ddbb0ac21b4fc2a9606a7",
                    "gasUsed": 58415,
                    "id": 0,
                    "methodDecoded": true,
                    "operation": "CALL",
                    "output": "0x0000000000000000000000000000000000000000000000000000000000000001",
                    "revert": false,
                    "revertMessage": "",
                    "selector": "0xa9059cbb",
                    "status": true,
                    "value": "0"
                },
                "nodeType": 0
            },
            "1": {
                "event": {
                    "contract": "0x9b9647431632af44be02ddd22477ed94d14aacaa",
                    "decodedLog": {
                        "name": "Transfer",
                        "params": [
                            {
                                "name": "_from",
                                "type": "address",
                                "value": "0x179288a02ee8a939668ddbb0ac21b4fc2a9606a7"
                            },
                            {
                                "name": "_to",
                                "type": "address",
                                "value": "0xc00b892dac724f25f97b2a284570935ae2dd485f"
                            },
                            {
                                "decimalAvailable": true,
                                "name": "_value",
                                "type": "uint256",
                                "value": "96,790,057,521,300,000,000"
                            }
                        ],
                        "signature": "Transfer(address,address,uint256)"
                    },
                    "id": 1,
                    "logData": "0x0000000000000000000000000000000000000000000000053f3b5c7ffab64d00",
                    "logDecoded": true,
                    "operation": "EVENT",
                    "revert": false,
                    "status": true,
                    "topics": [
                        "0xddf252ad1be2c89b69c2b068fc378daa952ba7f163c4a11628f55a4df523b3ef",
                        "0x000000000000000000000000179288a02ee8a939668ddbb0ac21b4fc2a9606a7",
                        "0x000000000000000000000000c00b892dac724f25f97b2a284570935ae2dd485f"
                    ]
                },
                "nodeType": 1
            }
        },
        "gasFlame": [
            {
                "children": [
                    {
                        "children": [
                            {
                                "children": [],
                                "depth": 0,
                                "name": "Initial Gas",
                                "value": 21656
                            },
                            {
                                "children": [],
                                "depth": 0,
                                "name": "Executed Gas",
                                "value": 36759
                            }
                        ],
                        "depth": -1,
                        "name": "Actual Gas Used",
                        "value": 58415
                    },
                    {
                        "children": [],
                        "depth": -1,
                        "name": "Refunded Gas",
                        "value": 0
                    }
                ],
                "depth": -2,
                "name": "Total Gas",
                "value": 58415
            }
        ],
        "isConfirmed": true,
        "mainTrace": [
            {
                "children": [
                    {
                        "children": [
                            {
                                "children": [],
                                "depth": 1,
                                "id": 1,
                                "order": 1
                            }
                        ],
                        "depth": 0,
                        "id": 0,
                        "order": 0
                    }
                ],
                "depth": -1,
                "id": -1,
                "order": -1
            }
        ],
        "mainTraceNodeCount": 2,
        "parentIdMap": {
            "0": -1,
            "1": 0
        },
        "tidyTrace": [
            {
                "children": [
                    {
                        "children": [
                            {
                                "children": [],
                                "depth": 1,
                                "id": 1,
                                "order": 1
                            }
                        ],
                        "depth": 0,
                        "id": 0,
                        "order": 0
                    }
                ],
                "depth": -1,
                "id": -1,
                "order": -1
            }
        ],
        "tidyTraceNodeCount": 2
    },
    "state_change": {
        "stateChanges": [
            {
                "address": "0x9b9647431632af44be02ddd22477ed94d14aacaa",
                "erc": "ERC-20",
                "slots": [
                    {
                        "current": "0x00000000000000000000000000000000000000000027824fef1e64dfaaf409c0",
                        "key": "0xfeaa4b0bdee9f4fa77c1a141750937d103cffdb8b8cbc002537a12bf2a9d2415",
                        "prev": "0x0000000000000000000000000000000000000000002782552e59c15fa5aa56c0"
                    },
                    {
                        "current": "0x0000000000000000000000000000000000000000000000053f3b5c7ffab64d00",
                        "key": "0x1ad4341e9ed60197f6c90fefbb7a6776c1821dd3602e39ede447b2dda8e9bf95",
                        "prev": "0x0000000000000000000000000000000000000000000000000000000000000000"
                    }
                ],
                "storageVariables": [
                    {
                        "name": "balances",
                        "type": "mapping(address => uint256)",
                        "value": {
                            "pairs": [
                                {
                                    "key": "0x179288a02ee8a939668ddbb0ac21b4fc2a9606a7",
                                    "value": {
                                        "current": "47763489130845550920600000",
                                        "prev": "47763585920903072220600000",
                                        "typeTag": 1
                                    }
                                },
                                {
                                    "key": "0xc00b892dac724f25f97b2a284570935ae2dd485f",
                                    "value": {
                                        "current": "96790057521300000000",
                                        "prev": "0",
                                        "typeTag": 1
                                    }
                                }
                            ],
                            "typeTag": 4
                        }
                    }
                ]
            }
        ]
    }
}