{
    "balance_change": {
        "balanceChanges": [
            {
                "account": "0x9882c5c5921cac0e0c0aa61eed8a84588de33e9f",
                "assets": [
                    {
                        "address": "0x115e29615d1c10c8ddf826e4faec64ef6c1e3357",
                        "amount": "933.33333333",
                        "iconUrl": "",
                        "isERC1155": false,
                        "isERC721": false,
                        "sign": false,
                        "value": ""
                    }
                ]
            },
            {
                "account": "0x5fc4019af4de3a11059dd688bda2b4bf8e0a76b4",
                "assets": [
                    {
                        "address": "0x115e29615d1c10c8ddf826e4faec64ef6c1e3357",
                        "amount": "933.33333333",
                        "iconUrl": "",
                        "isERC1155": false,
                        "isERC721": false,
                        "sign": true,
                        "value": ""
                    }
                ]
            }
        ]
    },
    "profile": {
        "basic_info": {
            "baseFee": "",
            "blockNumber": 10568907,
            "callData": "0xa9059cbb0000000000000000000000005fc4019af4de3a11059dd688bda2b4bf8e0a76b400000000000000000000000000000000000000000000000000000015bb19a555",
            "debugEnable": true,
            "errorInfo": "",
            "eventCount": 1,
            "feeRecipient": "0xea674fdde714fd979de3edf0f56aa9716b898ec8",
            "formatValue": "0",
            "gasLimit": 80000,
            "gasPrice": "88",
            "gasUsed": 36285,
            "intTxnCount": 0,
            "internalRevert": false,
            "internalRevertMessage": "",
            "isContractCreation": false,
            "isFlashloan": false,
            "maxFee": "",
            "nonce": 4329,
            "overwritedBlockNumber": -1,
            "priorityFee": "",
            "receiver": "0x115e29615d1c10c8ddf826e4faec64ef6c1e3357",
            "revertMessage": "",
            "sender": "0x9882c5c5921cac0e0c0aa61eed8a84588de33e9f",
            "simulationEnable": true,
            "sourceTxnHash": "0x2a2db097aedfd46114963a60bfe6fe5d97b43337cd19a014458caf7b4810d565",
            "status": true,
            "timestamp": "2020-07-31T18:06:30Z",
            "transactionFee": "0.00319308",
            "txnHash": "0x2a2db097aedfd46114963a60bfe6fe5d97b43337cd19a014458caf7b4810d565",
            "txnIndex": 23,
            "type": 0,
            "value": "0"
        },
        "fund_flow": [
            {
                "amount": "933.33333333",
                "from": "0x9882c5c5921cac0e0c0aa61eed8a84588de33e9f",
                "id": 1,
                "isERC1155": false,
                "isERC721": false,
                "isReverted": false,
                "order": 1,
                "to": "0x5fc4019af4de3a11059dd688bda2b4bf8e0a76b4",
                "token": "0x115e29615d1c10c8ddf826e4faec64ef6c1e3357"
            }
        ],
        "token_infos": [
            {
                "address": "0x115e29615d1c10c8ddf826e4faec64ef6c1e3357",
                "decimals": 8
            },
            {
                "address": "0xc02aaa39b223fe8d0a0e5c4f27ead9083c756cc2",
                "decimals": 18
            },
            {
                "address": "0xeeeeeeeeeeeeeeeeeeeeeeeeeeeeeeeeeeeeeeee",
                "decimals": 18
            }
        ]
    },
    "address_label": {
        "labels": [
            {
                "address": "0x0000000000000000000000000000000000000003",
                "label": "Precompiled"
            },
            {
                "address": "0x0000000000000000000000000000000000000004",
                "label": "Precompiled"
            },
            {
                "address": "0xeeeeeeeeeeeeeeeeeeeeeeeeeeeeeeeeeeeeeeee",
                "label": "Ether"
            },
            {
                "address": "0x115e29615d1c10c8ddf826e4faec64ef6c1e3357",
                "label": "CPTL Coin: CPTL Token"
            },
            {
                "address": "0x0000000000000000000000000000000000000001",
                "label": "Precompiled"
            },
            {
                "address": "0x0000000000000000000000000000000000000002",
                "label": "Precompiled"
            }
        ]
    },
    "trace": {
        "accountLabels": null,
        "dataMap": {
            "-1": {
                "invocation": {
                    "address": "0x9882c5c5921cac0e0c0aa61eed8a84588de33e9f",
                    "callData": "",
                    "decodedMethod": null,
                    "errorInfo": "",
                    "fromAddress": "",
                    "gasUsed": 0,
                    "id": -1,
                    "methodDecoded": false,
                    "operation": "",
                    "output": "",
                    "revert": false,
                    "revertMessage": "",
                    "selector": "",
                    "status": false,
                    "value": ""
                },
                "nodeType": 0
            },
            "0": {
                "invocation": {
                    "address": "0x115e29615d1c10c8ddf826e4faec64ef6c1e3357",
                    "callData": "0x0000000000000000000000005fc4019af4de3a11059dd688bda2b4bf8e0a76b400000000000000000000000000000000000000000000000000000015bb19a555",
                    "decodedMethod": {
                        "callParams": [
                            {
                                "name": "to",
                                "type": "address",
                                "value": "0x5fc4019af4de3a11059dd688bda2b4bf8e0a76b4"
                            },
                            {
                                "decimalAvailable": true,
                                "name": "tokens",
                                "type": "uint256",
                                "value": "93,333,333,333"
                            }
                        ],
                        "constructorArguments": "",
                        "name": "transfer",
                        "returnParams": [
                            {
                                "name": "success",
                                "type": "bool",
                                "value": true
                            }
                        ],
                        "signature": "transfer(address,uint256)"
                    },
                    "errorInfo": "",
                    "fromAddress": "0x9882c5c5921cac0e0c0aa61eed8a84588de33e9f",
                    "gasUsed": 36285,
                    "id": 0,
                    "methodDecoded": true,
                    "operation": "CALL",
                    "output": "0x0000000000000000000000000000000000000000000000000000000000000001",
                    "revert": false,
                    "revertMessage": "",
                    "selector": "0xa9059cbb",
                    "status": true,
                    "value": "0"
                },
                "nodeType": 0
            },
            "1": {
                "event": {
                    "contract": "0x115e29615d1c10c8ddf826e4faec64ef6c1e3357",
                    "decodedLog": {
                        "name": "Transfer",
                        "params": [
                            {
                                "name": "from",
                                "type": "address",
                                "value": "0x9882c5c5921cac0e0c0aa61eed8a84588de33e9f"
                            },
                            {
                                "name": "to",
                                "type": "address",
                                "value": "0x5fc4019af4de3a11059dd688bda2b4bf8e0a76b4"
                            },
                            {
                                "decimalAvailable": true,
                                "name": "tokens",
                                "type": "uint256",
                                "value": "93,333,333,333"
                            }
                        ],
                        "signature": "Transfer(address,address,uint256)"
                    },
                    "id": 1,
                    "logData": "0x00000000000000000000000000000000000000000000000000000015bb19a555",
                    "logDecoded": true,
                    "operation": "EVENT",
                    "revert": false,
                    "status": true,
                    "topics": [
                        "0xddf252ad1be2c89b69c2b068fc378daa952ba7f163c4a11628f55a4df523b3ef",
                        "0x0000000000000000000000009882c5c5921cac0e0c0aa61eed8a84588de33e9f",
                        "0x0000000000000000000000005fc4019af4de3a11059dd688bda2b4bf8e0a76b4"
                    ]
                },
                "nodeType": 1
            }
        },
        "gasFlame": [
            {
                "children": [
                    {
                        "children": [
                            {
                                "children": [],
                                "depth": 0,
                                "name": "Initial Gas",
                                "value": 21620
                            },
                            {
                                "children": [],
                                "depth": 0,
                                "name": "Executed Gas",
                                "value": 14665
                            }
                        ],
                        "depth": -1,
                        "name": "Actual Gas Used",
                        "value": 36285
                    },
                    {
                        "children": [],
                        "depth": -1,
                        "name": "Refunded Gas",
                        "value": 0
                    }
                ],
                "depth": -2,
                "name": "Total Gas",
                "value": 36285
            }
        ],
        "isConfirmed": true,
        "mainTrace": [
            {
                "children": [
                    {
                        "children": [
                            {
                                "children": [],
                                "depth": 1,
                                "id": 1,
                                "order": 1
                            }
                        ],
                        "depth": 0,
                        "id": 0,
                        "order": 0
                    }
                ],
                "depth": -1,
                "id": -1,
                "order": -1
            }
        ],
        "mainTraceNodeCount": 2,
        "parentIdMap": {
            "0": -1,
            "1": 0
        },
        "tidyTrace": [
            {
                "children": [
                    {
                        "children": [
                            {
                                "children": [],
                                "depth": 1,
                                "id": 1,
                                "order": 1
                            }
                        ],
                        "depth": 0,
                        "id": 0,
                        "order": 0
                    }
                ],
                "depth": -1,
                "id": -1,
                "order": -1
            }
        ],
        "tidyTraceNodeCount": 2
    },
    "state_change": {
        "stateChanges": [
            {
                "address": "0x115e29615d1c10c8ddf826e4faec64ef6c1e3357",
                "erc": "ERC-20",
                "slots": [
                    {
                        "current": "0x0000000000000000000000000000000000000000000000000000416d44b5b613",
                        "key": "0x26c5332bb3378e1f914b0bbebc4184dc612ab751edad2a04497416f78f742e92",
                        "prev": "0x00000000000000000000000000000000000000000000000000004182ffcf5b68"
                    },
                    {
                        "current": "0x000000000000000000000000000000000000000000000000000000ef1dc07963",
                        "key": "0x9ae2697e7d8b9883017cc8b548a39b421c73326fa122edac0609be5a373c8a1f",
                        "prev": "0x000000000000000000000000000000000000000000000000000000d962a6d40e"
                    }
                ],
                "storageVariables": [
                    {
                        "name": "balances",
                        "type": "mapping(address => uint256)",
                        "value": {
                            "pairs": [
                                {
                                    "key": "0x5fc4019af4de3a11059dd688bda2b4bf8e0a76b4",
                                    "value": {
                                        "current": "1026996336995",
                                        "prev": "933663003662",
                                        "typeTag": 1
                                    }
                                },
                                {
                                    "key": "0x9882c5c5921cac0e0c0aa61eed8a84588de33e9f",
                                    "value": {
                                        "current": "71937560000019",
                                        "prev": "72030893333352",
                                        "typeTag": 1
                                    }
                                }
                            ],
                            "typeTag": 4
                        }
                    }
                ]
            }
        ]
    }
}