{
    "balance_change": {
        "balanceChanges": []
    },
    "profile": {
        "basic_info": {
            "baseFee": "25.141586834",
            "blockNumber": 15227008,
            "callData": "0x755db7b3000000000000000000000000000000000000000000000000000000000000086d000000000000000000000000000000000000000000000000000000000000006000000000000000000000000000000000000000000000000000000000000000a0000000000000000000000000000000000000000000000000000000000000000100000000000000000000000000000000000000000000000000000000000000000000000000000000000000000000000000000000000000000000000000000001000000000000000000000000000000000000000000000000000000000000000f",
            "debugEnable": true,
            "errorInfo": "",
            "eventCount": 1,
            "feeRecipient": "0x00192fb10df37c9fb26829eb2cc623cd1bf599e8",
            "formatValue": "0",
            "gasLimit": 52170,
            "gasPrice": "28.047511894",
            "gasUsed": 51854,
            "intTxnCount": 1,
            "internalRevert": false,
            "internalRevertMessage": "",
            "isContractCreation": false,
            "isFlashloan": false,
            "maxFee": "",
            "nonce": 372,
            "overwritedBlockNumber": -1,
            "priorityFee": "",
            "receiver": "0xb6dae651468e9593e4581705a09c10a76ac1e0c8",
            "revertMessage": "",
            "sender": "0xf82a0e1d64327ad28f999e73ddbe08e89ff3342e",
            "simulationEnable": true,
            "sourceTxnHash": "0x2a2c7f847844f33a01bfadb76cd1ec8d0e120a895be7ac55b7c31eae8cb2c932",
            "status": true,
            "timestamp": "2022-07-27T21:36:33Z",
            "transactionFee": "0.001454375681751476",
            "txnHash": "0x2a2c7f847844f33a01bfadb76cd1ec8d0e120a895be7ac55b7c31eae8cb2c932",
            "txnIndex": 25,
            "type": 0,
            "value": "0"
        },
        "fund_flow": [],
        "token_infos": [
            {
                "address": "0xc02aaa39b223fe8d0a0e5c4f27ead9083c756cc2",
                "decimals": 18
            },
            {
                "address": "0xeeeeeeeeeeeeeeeeeeeeeeeeeeeeeeeeeeeeeeee",
                "decimals": 18
            }
        ]
    },
    "address_label": {
        "labels": [
            {
                "address": "0x0000000000000000000000000000000000000004",
                "label": "Precompiled"
            },
            {
                "address": "0xeeeeeeeeeeeeeeeeeeeeeeeeeeeeeeeeeeeeeeee",
                "label": "Ether"
            },
            {
                "address": "0xb6dae651468e9593e4581705a09c10a76ac1e0c8",
                "label": "Async Art: ASYNC-V2 Token"
            },
            {
                "address": "0x56a50f1c4b4362aeff1d9c3c1e24562a0d833488",
                "label": "AsyncArtwork_v2"
            },
            {
                "address": "0x0000000000000000000000000000000000000001",
                "label": "Precompiled"
            },
            {
                "address": "0x0000000000000000000000000000000000000002",
                "label": "Precompiled"
            },
            {
                "address": "0x0000000000000000000000000000000000000003",
                "label": "Precompiled"
            }
        ]
    },
    "trace": {
        "accountLabels": null,
        "dataMap": {
            "-1": {
                "invocation": {
                    "address": "0xf82a0e1d64327ad28f999e73ddbe08e89ff3342e",
                    "callData": "",
                    "decodedMethod": null,
                    "errorInfo": "",
                    "fromAddress": "",
                    "gasUsed": 0,
                    "id": -1,
                    "methodDecoded": false,
                    "operation": "",
                    "output": "",
                    "revert": false,
                    "revertMessage": "",
                    "selector": "",
                    "status": false,
                    "value": ""
                },
                "nodeType": 0
            },
            "0": {
                "invocation": {
                    "address": "0xb6dae651468e9593e4581705a09c10a76ac1e0c8",
                    "callData": "0x000000000000000000000000000000000000000000000000000000000000086d000000000000000000000000000000000000000000000000000000000000006000000000000000000000000000000000000000000000000000000000000000a0000000000000000000000000000000000000000000000000000000000000000100000000000000000000000000000000000000000000000000000000000000000000000000000000000000000000000000000000000000000000000000000001000000000000000000000000000000000000000000000000000000000000000f",
                    "decodedMethod": {
                        "callParams": [
                            {
                                "name": "controlTokenId",
                                "type": "uint256",
                                "value": "2,157"
                            },
                            {
                                "name": "leverIds",
                                "type": "uint256[]",
                                "value": [
                                    "0"
                                ]
                            },
                            {
                                "name": "newValues",
                                "type": "int256[]",
                                "value": [
                                    "15"
                                ]
                            }
                        ],
                        "constructorArguments": "",
                        "name": "useControlToken",
                        "returnParams": [],
                        "signature": "useControlToken(uint256,uint256[],int256[])"
                    },
                    "errorInfo": "",
                    "fromAddress": "0xf82a0e1d64327ad28f999e73ddbe08e89ff3342e",
                    "gasUsed": 51854,
                    "id": 0,
                    "methodDecoded": true,
                    "operation": "CALL",
                    "output": "",
                    "revert": false,
                    "revertMessage": "",
                    "selector": "0x755db7b3",
                    "status": true,
                    "value": "0"
                },
                "nodeType": 0
            },
            "1": {
                "invocation": {
                    "address": "0x56a50f1c4b4362aeff1d9c3c1e24562a0d833488",
                    "callData": "0x000000000000000000000000000000000000000000000000000000000000086d000000000000000000000000000000000000000000000000000000000000006000000000000000000000000000000000000000000000000000000000000000a0000000000000000000000000000000000000000000000000000000000000000100000000000000000000000000000000000000000000000000000000000000000000000000000000000000000000000000000000000000000000000000000001000000000000000000000000000000000000000000000000000000000000000f",
                    "decodedMethod": {
                        "callParams": [
                            {
                                "name": "controlTokenId",
                                "type": "uint256",
                                "value": "2,157"
                            },
                            {
                                "name": "leverIds",
                                "type": "uint256[]",
                                "value": [
                                    "0"
                                ]
                            },
                            {
                                "name": "newValues",
                                "type": "int256[]",
                                "value": [
                                    "15"
                                ]
                            }
                        ],
                        "constructorArguments": "",
                        "name": "useControlToken",
                        "returnParams": [],
                        "signature": "useControlToken(uint256,uint256[],int256[])"
                    },
                    "errorInfo": "",
                    "fromAddress": "0xb6dae651468e9593e4581705a09c10a76ac1e0c8",
                    "gasUsed": 22509,
                    "id": 1,
                    "methodDecoded": true,
                    "operation": "DELEGATECALL",
                    "output": "",
                    "revert": false,
                    "revertMessage": "",
                    "selector": "0x755db7b3",
                    "status": true,
                    "value": "0"
                },
                "nodeType": 0
            },
            "2": {
                "event": {
                    "contract": "0xb6dae651468e9593e4581705a09c10a76ac1e0c8",
                    "decodedLog": {
                        "name": "ControlLeverUpdated",
                        "params": [
                            {
                                "name": "tokenId",
                                "type": "uint256",
                                "value": "2,157"
                            },
                            {
                                "name": "priorityTip",
                                "type": "uint256",
                                "value": "0"
                            },
                            {
                                "name": "numRemainingUpdates",
                                "type": "int256",
                                "value": "-1"
                            },
                            {
                                "name": "leverIds",
                                "type": "uint256[]",
                                "value": [
                                    "0"
                                ]
                            },
                            {
                                "name": "previousValues",
                                "type": "int256[]",
                                "value": [
                                    "14"
                                ]
                            },
                            {
                                "name": "updatedValues",
                                "type": "int256[]",
                                "value": [
                                    "15"
                                ]
                            }
                        ],
                        "signature": "ControlLeverUpdated(uint256,uint256,int256,uint256[],int256[],int256[])"
                    },
                    "id": 2,
                    "logData": "0x000000000000000000000000000000000000000000000000000000000000086d0000000000000000000000000000000000000000000000000000000000000000ffffffffffffffffffffffffffffffffffffffffffffffffffffffffffffffff00000000000000000000000000000000000000000000000000000000000000c000000000000000000000000000000000000000000000000000000000000001000000000000000000000000000000000000000000000000000000000000000140000000000000000000000000000000000000000000000000000000000000000100000000000000000000000000000000000000000000000000000000000000000000000000000000000000000000000000000000000000000000000000000001000000000000000000000000000000000000000000000000000000000000000e0000000000000000000000000000000000000000000000000000000000000001000000000000000000000000000000000000000000000000000000000000000f",
                    "logDecoded": true,
                    "operation": "EVENT",
                    "revert": false,
                    "status": true,
                    "topics": [
                        "0xfc1e08f776282b1abf0734388c9042ad8206984bf5d69a721d120c9af38412fc"
                    ]
                },
                "nodeType": 1
            }
        },
        "gasFlame": [
            {
                "children": [
                    {
                        "children": [
                            {
                                "children": [],
                                "depth": 0,
                                "name": "Initial Gas",
                                "value": 22044
                            },
                            {
                                "children": [
                                    {
                                        "children": [],
                                        "depth": 1,
                                        "name": "useControlToken",
                                        "value": 22509
                                    }
                                ],
                                "depth": 0,
                                "name": "Executed Gas",
                                "value": 29810
                            }
                        ],
                        "depth": -1,
                        "name": "Actual Gas Used",
                        "value": 51854
                    },
                    {
                        "children": [],
                        "depth": -1,
                        "name": "Refunded Gas",
                        "value": 0
                    }
                ],
                "depth": -2,
                "name": "Total Gas",
                "value": 51854
            }
        ],
        "isConfirmed": true,
        "mainTrace": [
            {
                "children": [
                    {
                        "children": [
                            {
                                "children": [
                                    {
                                        "children": [],
                                        "depth": 2,
                                        "id": 2,
                                        "order": 2
                                    }
                                ],
                                "depth": 1,
                                "id": 1,
                                "order": 1
                            }
                        ],
                        "depth": 0,
                        "id": 0,
                        "order": 0
                    }
                ],
                "depth": -1,
                "id": -1,
                "order": -1
            }
        ],
        "mainTraceNodeCount": 3,
        "parentIdMap": {
            "0": -1,
            "1": 0,
            "2": 1
        },
        "tidyTrace": [
            {
                "children": [
                    {
                        "children": [
                            {
                                "children": [
                                    {
                                        "children": [],
                                        "depth": 2,
                                        "id": 2,
                                        "order": 2
                                    }
                                ],
                                "depth": 1,
                                "id": 1,
                                "order": 1
                            }
                        ],
                        "depth": 0,
                        "id": 0,
                        "order": 0
                    }
                ],
                "depth": -1,
                "id": -1,
                "order": -1
            }
        ],
        "tidyTraceNodeCount": 3
    },
    "state_change": {
        "stateChanges": [
            {
                "address": "0xb6dae651468e9593e4581705a09c10a76ac1e0c8",
                "erc": "ERC-721",
                "slots": [
                    {
                        "current": "0x000000000000000000000000000000000000000000000000000000000000000f",
                        "key": "0xea0ffc0fa260e9a24e213f09c2743add44a627258e258f99f6a1112e5de98bb5",
                        "prev": "0x000000000000000000000000000000000000000000000000000000000000000e"
                    }
                ],
                "storageVariables": [
                    {
                        "name": "controlTokenMapping",
                        "type": "mapping(uint256 => struct AsyncArtwork_v2.ControlToken)",
                        "value": {
                            "pairs": [
                                {
                                    "key": "2157",
                                    "value": {
                                        "fields": [
                                            {
                                                "name": "levers",
                                                "type": "mapping(uint256 => struct AsyncArtwork_v2.ControlLever)",
                                                "value": {
                                                    "pairs": [
                                                        {
                                                            "key": "0",
                                                            "value": {
                                                                "fields": [
                                                                    {
                                                                        "name": "currentValue",
                                                                        "type": "int256",
                                                                        "value": {
                                                                            "current": "15",
                                                                            "prev": "14",
                                                                            "typeTag": 1
                                                                        }
                                                                    }
                                                                ],
                                                                "typeTag": 3
                                                            }
                                                        }
                                                    ],
                                                    "typeTag": 4
                                                }
                                            }
                                        ],
                                        "typeTag": 3
                                    }
                                }
                            ],
                            "typeTag": 4
                        }
                    }
                ]
            }
        ]
    }
}