{
    "balance_change": {
        "balanceChanges": []
    },
    "profile": {
        "basic_info": {
            "baseFee": "9.532295179",
            "blockNumber": 18066833,
            "callData": "0x66b210ac00000000000000000000000000000000000000000000000000000000000000200000000000000000000000000000000000000000000000000058d15e17628000000000000000000000000000000000000000000000000000000001efdae3d81c00000000000000000000000000000000000000000000000000000000000000a0000000000000000000000000000000000000000000000000000000000000010000000000000000000000000077a83f5e9caafb138814b0cf7c3529b52a4d88670000000000000000000000000000000000000000000000000000000000000002000000000000000000000000c02aaa39b223fe8d0a0e5c4f27ead9083c756cc2000000000000000000000000d7780af89a01598f09fe636f3794e81e12befe160000000000000000000000000000000000000000000000000000000000000001000000000000000000000000d2a52f45c74b358abe1428bc43f0ce9ddf130780",
            "debugEnable": true,
            "errorInfo": "execution reverted",
            "eventCount": 5,
            "feeRecipient": "0x1f9090aae28b8a3dceadf281b0f12828e676c326",
            "formatValue": "0.025",
            "gasLimit": 247176,
            "gasPrice": "9.882295179",
            "gasUsed": 218501,
            "intTxnCount": 15,
            "internalRevert": true,
            "internalRevertMessage": "",
            "isContractCreation": false,
            "isFlashloan": false,
            "maxFee": "17.06",
            "nonce": 33,
            "overwritedBlockNumber": -1,
            "priorityFee": "0.35",
            "receiver": "0xb517850510997a34b4ddc8c3797b4f83fad510c4",
            "revertMessage": "&PinkRouter: INSUFFICIENT_OUTPUT_AMOUNT",
            "sender": "0x77a83f5e9caafb138814b0cf7c3529b52a4d8867",
            "simulationEnable": true,
            "sourceTxnHash": "0x2a2163071705a1adf22c1442c0c06300d6fadcc5e32997ae6454d859effeeb94",
            "status": false,
            "timestamp": "2023-09-05T00:55:11Z",
            "transactionFee": "0.002159291378906679",
            "txnHash": "0x2a2163071705a1adf22c1442c0c06300d6fadcc5e32997ae6454d859effeeb94",
            "txnIndex": 80,
            "type": 2,
            "value": "25000000000000000"
        },
        "fund_flow": [],
        "token_infos": [
            {
                "address": "0xc02aaa39b223fe8d0a0e5c4f27ead9083c756cc2",
                "decimals": 18
            },
            {
                "address": "0xd7780af89a01598f09fe636f3794e81e12befe16",
                "decimals": 8
            },
            {
                "address": "0xeeeeeeeeeeeeeeeeeeeeeeeeeeeeeeeeeeeeeeee",
                "decimals": 18
            }
        ]
    },
    "address_label": {
        "labels": [
            {
                "address": "0xd2a52f45c74b358abe1428bc43f0ce9ddf130780",
                "label": "Uniswap V2"
            },
            {
                "address": "0xc02aaa39b223fe8d0a0e5c4f27ead9083c756cc2",
                "label": "Wrapped Ether (WETH)"
            },
            {
                "address": "0x0000000000000000000000000000000000000001",
                "label": "Precompiled"
            },
            {
                "address": "0x0000000000000000000000000000000000000002",
                "label": "Precompiled"
            },
            {
                "address": "0x0000000000000000000000000000000000000004",
                "label": "Precompiled"
            },
            {
                "address": "0xeeeeeeeeeeeeeeeeeeeeeeeeeeeeeeeeeeeeeeee",
                "label": "Ether"
            },
            {
                "address": "0xb517850510997a34b4ddc8c3797b4f83fad510c4",
                "label": "ERC1967Proxy"
            },
            {
                "address": "0xd7780af89a01598f09fe636f3794e81e12befe16",
                "label": "DANKEST COIN (DANK)"
            },
            {
                "address": "0x0000000000000000000000000000000000000003",
                "label": "Precompiled"
            },
            {
                "address": "0xeddba2a0aff24a49d5e9a4b6480a881295dda133",
                "label": "Uniswap V2: DANK 37"
            }
        ]
    },
    "trace": {
        "accountLabels": null,
        "dataMap": {
            "-1": {
                "invocation": {
                    "address": "0x77a83f5e9caafb138814b0cf7c3529b52a4d8867",
                    "callData": "",
                    "decodedMethod": null,
                    "errorInfo": "",
                    "fromAddress": "",
                    "gasUsed": 0,
                    "id": -1,
                    "methodDecoded": false,
                    "operation": "",
                    "output": "",
                    "revert": false,
                    "revertMessage": "",
                    "selector": "",
                    "status": false,
                    "value": ""
                },
                "nodeType": 0
            },
            "0": {
                "invocation": {
                    "address": "0xb517850510997a34b4ddc8c3797b4f83fad510c4",
                    "callData": "0x00000000000000000000000000000000000000000000000000000000000000200000000000000000000000000000000000000000000000000058d15e17628000000000000000000000000000000000000000000000000000000001efdae3d81c00000000000000000000000000000000000000000000000000000000000000a0000000000000000000000000000000000000000000000000000000000000010000000000000000000000000077a83f5e9caafb138814b0cf7c3529b52a4d88670000000000000000000000000000000000000000000000000000000000000002000000000000000000000000c02aaa39b223fe8d0a0e5c4f27ead9083c756cc2000000000000000000000000d7780af89a01598f09fe636f3794e81e12befe160000000000000000000000000000000000000000000000000000000000000001000000000000000000000000d2a52f45c74b358abe1428bc43f0ce9ddf130780",
                    "decodedMethod": null,
                    "errorInfo": "execution reverted",
                    "fromAddress": "0x77a83f5e9caafb138814b0cf7c3529b52a4d8867",
                    "gasUsed": 218501,
                    "id": 0,
                    "methodDecoded": false,
                    "operation": "CALL",
                    "output": "0x08c379a00000000000000000000000000000000000000000000000000000000000000020000000000000000000000000000000000000000000000000000000000000002650696e6b526f757465723a20494e53554646494349454e545f4f55545055545f414d4f554e540000000000000000000000000000000000000000000000000000",
                    "revert": true,
                    "revertMessage": "&PinkRouter: INSUFFICIENT_OUTPUT_AMOUNT",
                    "selector": "0x66b210ac",
                    "status": false,
                    "value": "0.025"
                },
                "nodeType": 0
            },
            "1": {
                "invocation": {
                    "address": "0x21a8f7ff1700fb57a6376fec4d724c8d70f0c0e8",
                    "callData": "0x00000000000000000000000000000000000000000000000000000000000000200000000000000000000000000000000000000000000000000058d15e17628000000000000000000000000000000000000000000000000000000001efdae3d81c00000000000000000000000000000000000000000000000000000000000000a0000000000000000000000000000000000000000000000000000000000000010000000000000000000000000077a83f5e9caafb138814b0cf7c3529b52a4d88670000000000000000000000000000000000000000000000000000000000000002000000000000000000000000c02aaa39b223fe8d0a0e5c4f27ead9083c756cc2000000000000000000000000d7780af89a01598f09fe636f3794e81e12befe160000000000000000000000000000000000000000000000000000000000000001000000000000000000000000d2a52f45c74b358abe1428bc43f0ce9ddf130780",
                    "decodedMethod": null,
                    "errorInfo": "execution reverted",
                    "fromAddress": "0xb517850510997a34b4ddc8c3797b4f83fad510c4",
                    "gasUsed": 189897,
                    "id": 1,
                    "methodDecoded": false,
                    "operation": "DELEGATECALL",
                    "output": "0x08c379a00000000000000000000000000000000000000000000000000000000000000020000000000000000000000000000000000000000000000000000000000000002650696e6b526f757465723a20494e53554646494349454e545f4f55545055545f414d4f554e540000000000000000000000000000000000000000000000000000",
                    "revert": true,
                    "revertMessage": "&PinkRouter: INSUFFICIENT_OUTPUT_AMOUNT",
                    "selector": "0x66b210ac",
                    "status": false,
                    "value": "0.025"
                },
                "nodeType": 0
            },
            "10": {
                "invocation": {
                    "address": "0xc02aaa39b223fe8d0a0e5c4f27ead9083c756cc2",
                    "callData": "0x000000000000000000000000eddba2a0aff24a49d5e9a4b6480a881295dda133",
                    "decodedMethod": {
                        "callParams": [
                            {
                                "name": "",
                                "type": "address",
                                "value": "0xeddba2a0aff24a49d5e9a4b6480a881295dda133"
                            }
                        ],
                        "constructorArguments": "",
                        "name": "balanceOf",
                        "returnParams": [
                            {
                                "decimalAvailable": true,
                                "name": "",
                                "type": "uint256",
                                "value": "11,913,642,572,062,660,051"
                            }
                        ],
                        "signature": "balanceOf(address)"
                    },
                    "errorInfo": "",
                    "fromAddress": "0xd2a52f45c74b358abe1428bc43f0ce9ddf130780",
                    "gasUsed": 534,
                    "id": 10,
                    "methodDecoded": true,
                    "operation": "STATICCALL",
                    "output": "0x000000000000000000000000000000000000000000000000a555c2cc50c415d3",
                    "revert": true,
                    "revertMessage": "",
                    "selector": "0x70a08231",
                    "status": true,
                    "value": "0"
                },
                "nodeType": 0
            },
            "11": {
                "invocation": {
                    "address": "0xd7780af89a01598f09fe636f3794e81e12befe16",
                    "callData": "0x00000000000000000000000077a83f5e9caafb138814b0cf7c3529b52a4d8867",
                    "decodedMethod": {
                        "callParams": [
                            {
                                "name": "account",
                                "type": "address",
                                "value": "0x77a83f5e9caafb138814b0cf7c3529b52a4d8867"
                            }
                        ],
                        "constructorArguments": "",
                        "name": "balanceOf",
                        "returnParams": [
                            {
                                "decimalAvailable": true,
                                "name": "",
                                "type": "uint256",
                                "value": "0"
                            }
                        ],
                        "signature": "balanceOf(address)"
                    },
                    "errorInfo": "",
                    "fromAddress": "0xd2a52f45c74b358abe1428bc43f0ce9ddf130780",
                    "gasUsed": 617,
                    "id": 11,
                    "methodDecoded": true,
                    "operation": "STATICCALL",
                    "output": "0x0000000000000000000000000000000000000000000000000000000000000000",
                    "revert": true,
                    "revertMessage": "",
                    "selector": "0x70a08231",
                    "status": true,
                    "value": "0"
                },
                "nodeType": 0
            },
            "12": {
                "invocation": {
                    "address": "0xeddba2a0aff24a49d5e9a4b6480a881295dda133",
                    "callData": "0x0000000000000000000000000000000000000000000000000000000000000000000000000000000000000000000000000000000000000000000001eb917a768100000000000000000000000077a83f5e9caafb138814b0cf7c3529b52a4d886700000000000000000000000000000000000000000000000000000000000000800000000000000000000000000000000000000000000000000000000000000000",
                    "decodedMethod": {
                        "callParams": [
                            {
                                "name": "amount0Out",
                                "type": "uint256",
                                "value": "0"
                            },
                            {
                                "name": "amount1Out",
                                "type": "uint256",
                                "value": "2,111,269,664,385"
                            },
                            {
                                "name": "to",
                                "type": "address",
                                "value": "0x77a83f5e9caafb138814b0cf7c3529b52a4d8867"
                            },
                            {
                                "name": "data",
                                "type": "bytes",
                                "value": "0x"
                            }
                        ],
                        "constructorArguments": "",
                        "name": "swap",
                        "returnParams": [],
                        "signature": "swap(uint256,uint256,address,bytes)"
                    },
                    "errorInfo": "",
                    "fromAddress": "0xd2a52f45c74b358abe1428bc43f0ce9ddf130780",
                    "gasUsed": 107797,
                    "id": 12,
                    "methodDecoded": true,
                    "operation": "CALL",
                    "output": "",
                    "revert": true,
                    "revertMessage": "",
                    "selector": "0x022c0d9f",
                    "status": true,
                    "value": "0"
                },
                "nodeType": 0
            },
            "13": {
                "invocation": {
                    "address": "0xd7780af89a01598f09fe636f3794e81e12befe16",
                    "callData": "0x00000000000000000000000077a83f5e9caafb138814b0cf7c3529b52a4d8867000000000000000000000000000000000000000000000000000001eb917a7681",
                    "decodedMethod": {
                        "callParams": [
                            {
                                "name": "recipient",
                                "type": "address",
                                "value": "0x77a83f5e9caafb138814b0cf7c3529b52a4d8867"
                            },
                            {
                                "decimalAvailable": true,
                                "name": "amount",
                                "type": "uint256",
                                "value": "2,111,269,664,385"
                            }
                        ],
                        "constructorArguments": "",
                        "name": "transfer",
                        "returnParams": [
                            {
                                "name": "",
                                "type": "bool",
                                "value": true
                            }
                        ],
                        "signature": "transfer(address,uint256)"
                    },
                    "errorInfo": "",
                    "fromAddress": "0xeddba2a0aff24a49d5e9a4b6480a881295dda133",
                    "gasUsed": 85739,
                    "id": 13,
                    "methodDecoded": true,
                    "operation": "CALL",
                    "output": "0x0000000000000000000000000000000000000000000000000000000000000001",
                    "revert": true,
                    "revertMessage": "",
                    "selector": "0xa9059cbb",
                    "status": true,
                    "value": "0"
                },
                "nodeType": 0
            },
            "14": {
                "event": {
                    "contract": "0xd7780af89a01598f09fe636f3794e81e12befe16",
                    "decodedLog": {
                        "name": "Transfer",
                        "params": [
                            {
                                "name": "from",
                                "type": "address",
                                "value": "0xeddba2a0aff24a49d5e9a4b6480a881295dda133"
                            },
                            {
                                "name": "to",
                                "type": "address",
                                "value": "0x77a83f5e9caafb138814b0cf7c3529b52a4d8867"
                            },
                            {
                                "decimalAvailable": true,
                                "name": "value",
                                "type": "uint256",
                                "value": "2,111,269,664,385"
                            }
                        ],
                        "signature": "Transfer(address,address,uint256)"
                    },
                    "id": 14,
                    "logData": "0x000000000000000000000000000000000000000000000000000001eb917a7681",
                    "logDecoded": true,
                    "operation": "EVENT",
                    "revert": true,
                    "status": false,
                    "topics": [
                        "0xddf252ad1be2c89b69c2b068fc378daa952ba7f163c4a11628f55a4df523b3ef",
                        "0x000000000000000000000000eddba2a0aff24a49d5e9a4b6480a881295dda133",
                        "0x00000000000000000000000077a83f5e9caafb138814b0cf7c3529b52a4d8867"
                    ]
                },
                "nodeType": 1
            },
            "15": {
                "invocation": {
                    "address": "0xc02aaa39b223fe8d0a0e5c4f27ead9083c756cc2",
                    "callData": "0x000000000000000000000000eddba2a0aff24a49d5e9a4b6480a881295dda133",
                    "decodedMethod": {
                        "callParams": [
                            {
                                "name": "",
                                "type": "address",
                                "value": "0xeddba2a0aff24a49d5e9a4b6480a881295dda133"
                            }
                        ],
                        "constructorArguments": "",
                        "name": "balanceOf",
                        "returnParams": [
                            {
                                "decimalAvailable": true,
                                "name": "",
                                "type": "uint256",
                                "value": "11,913,642,572,062,660,051"
                            }
                        ],
                        "signature": "balanceOf(address)"
                    },
                    "errorInfo": "",
                    "fromAddress": "0xeddba2a0aff24a49d5e9a4b6480a881295dda133",
                    "gasUsed": 534,
                    "id": 15,
                    "methodDecoded": true,
                    "operation": "STATICCALL",
                    "output": "0x000000000000000000000000000000000000000000000000a555c2cc50c415d3",
                    "revert": true,
                    "revertMessage": "",
                    "selector": "0x70a08231",
                    "status": true,
                    "value": "0"
                },
                "nodeType": 0
            },
            "16": {
                "invocation": {
                    "address": "0xd7780af89a01598f09fe636f3794e81e12befe16",
                    "callData": "0x000000000000000000000000eddba2a0aff24a49d5e9a4b6480a881295dda133",
                    "decodedMethod": {
                        "callParams": [
                            {
                                "name": "account",
                                "type": "address",
                                "value": "0xeddba2a0aff24a49d5e9a4b6480a881295dda133"
                            }
                        ],
                        "constructorArguments": "",
                        "name": "balanceOf",
                        "returnParams": [
                            {
                                "decimalAvailable": true,
                                "name": "",
                                "type": "uint256",
                                "value": "1,007,026,295,410,890"
                            }
                        ],
                        "signature": "balanceOf(address)"
                    },
                    "errorInfo": "",
                    "fromAddress": "0xeddba2a0aff24a49d5e9a4b6480a881295dda133",
                    "gasUsed": 617,
                    "id": 16,
                    "methodDecoded": true,
                    "operation": "STATICCALL",
                    "output": "0x000000000000000000000000000000000000000000000000000393e2949e10ca",
                    "revert": true,
                    "revertMessage": "",
                    "selector": "0x70a08231",
                    "status": true,
                    "value": "0"
                },
                "nodeType": 0
            },
            "17": {
                "event": {
                    "contract": "0xeddba2a0aff24a49d5e9a4b6480a881295dda133",
                    "decodedLog": {
                        "name": "Sync",
                        "params": [
                            {
                                "name": "reserve0",
                                "type": "uint112",
                                "value": "11,913,642,572,062,660,051"
                            },
                            {
                                "name": "reserve1",
                                "type": "uint112",
                                "value": "1,007,026,295,410,890"
                            }
                        ],
                        "signature": "Sync(uint112,uint112)"
                    },
                    "id": 17,
                    "logData": "0x000000000000000000000000000000000000000000000000a555c2cc50c415d3000000000000000000000000000000000000000000000000000393e2949e10ca",
                    "logDecoded": true,
                    "operation": "EVENT",
                    "revert": true,
                    "status": false,
                    "topics": [
                        "0x1c411e9a96e071241c2f21f7726b17ae89e3cab4c78be50e062b03a9fffbbad1"
                    ]
                },
                "nodeType": 1
            },
            "18": {
                "event": {
                    "contract": "0xeddba2a0aff24a49d5e9a4b6480a881295dda133",
                    "decodedLog": {
                        "name": "Swap",
                        "params": [
                            {
                                "name": "sender",
                                "type": "address",
                                "value": "0xd2a52f45c74b358abe1428bc43f0ce9ddf130780"
                            },
                            {
                                "name": "to",
                                "type": "address",
                                "value": "0x77a83f5e9caafb138814b0cf7c3529b52a4d8867"
                            },
                            {
                                "name": "amount0In",
                                "type": "uint256",
                                "value": "25,000,000,000,000,000"
                            },
                            {
                                "name": "amount1In",
                                "type": "uint256",
                                "value": "0"
                            },
                            {
                                "name": "amount0Out",
                                "type": "uint256",
                                "value": "0"
                            },
                            {
                                "name": "amount1Out",
                                "type": "uint256",
                                "value": "2,111,269,664,385"
                            }
                        ],
                        "signature": "Swap(address,uint256,uint256,uint256,uint256,address)"
                    },
                    "id": 18,
                    "logData": "0x0000000000000000000000000000000000000000000000000058d15e1762800000000000000000000000000000000000000000000000000000000000000000000000000000000000000000000000000000000000000000000000000000000000000000000000000000000000000000000000000000000000000001eb917a7681",
                    "logDecoded": true,
                    "operation": "EVENT",
                    "revert": true,
                    "status": false,
                    "topics": [
                        "0xd78ad95fa46c994b6551d0da85fc275fe613ce37657fb8d5e3d130840159d822",
                        "0x000000000000000000000000d2a52f45c74b358abe1428bc43f0ce9ddf130780",
                        "0x00000000000000000000000077a83f5e9caafb138814b0cf7c3529b52a4d8867"
                    ]
                },
                "nodeType": 1
            },
            "19": {
                "invocation": {
                    "address": "0xd7780af89a01598f09fe636f3794e81e12befe16",
                    "callData": "0x00000000000000000000000077a83f5e9caafb138814b0cf7c3529b52a4d8867",
                    "decodedMethod": {
                        "callParams": [
                            {
                                "name": "account",
                                "type": "address",
                                "value": "0x77a83f5e9caafb138814b0cf7c3529b52a4d8867"
                            }
                        ],
                        "constructorArguments": "",
                        "name": "balanceOf",
                        "returnParams": [
                            {
                                "decimalAvailable": true,
                                "name": "",
                                "type": "uint256",
                                "value": "2,111,269,664,385"
                            }
                        ],
                        "signature": "balanceOf(address)"
                    },
                    "errorInfo": "",
                    "fromAddress": "0xd2a52f45c74b358abe1428bc43f0ce9ddf130780",
                    "gasUsed": 617,
                    "id": 19,
                    "methodDecoded": true,
                    "operation": "STATICCALL",
                    "output": "0x000000000000000000000000000000000000000000000000000001eb917a7681",
                    "revert": true,
                    "revertMessage": "",
                    "selector": "0x70a08231",
                    "status": true,
                    "value": "0"
                },
                "nodeType": 0
            },
            "2": {
                "invocation": {
                    "address": "0xc02aaa39b223fe8d0a0e5c4f27ead9083c756cc2",
                    "callData": "0x",
                    "decodedMethod": {
                        "callParams": [],
                        "constructorArguments": "",
                        "name": "deposit",
                        "returnParams": [],
                        "signature": "deposit()"
                    },
                    "errorInfo": "",
                    "fromAddress": "0xb517850510997a34b4ddc8c3797b4f83fad510c4",
                    "gasUsed": 23974,
                    "id": 2,
                    "methodDecoded": true,
                    "operation": "CALL",
                    "output": "",
                    "revert": true,
                    "revertMessage": "",
                    "selector": "0xd0e30db0",
                    "status": true,
                    "value": "0.025"
                },
                "nodeType": 0
            },
            "20": {
                "invocation": {
                    "address": "0xd7780af89a01598f09fe636f3794e81e12befe16",
                    "callData": "0x00000000000000000000000077a83f5e9caafb138814b0cf7c3529b52a4d8867",
                    "decodedMethod": {
                        "callParams": [
                            {
                                "name": "account",
                                "type": "address",
                                "value": "0x77a83f5e9caafb138814b0cf7c3529b52a4d8867"
                            }
                        ],
                        "constructorArguments": "",
                        "name": "balanceOf",
                        "returnParams": [
                            {
                                "decimalAvailable": true,
                                "name": "",
                                "type": "uint256",
                                "value": "2,111,269,664,385"
                            }
                        ],
                        "signature": "balanceOf(address)"
                    },
                    "errorInfo": "",
                    "fromAddress": "0xb517850510997a34b4ddc8c3797b4f83fad510c4",
                    "gasUsed": 617,
                    "id": 20,
                    "methodDecoded": true,
                    "operation": "STATICCALL",
                    "output": "0x000000000000000000000000000000000000000000000000000001eb917a7681",
                    "revert": true,
                    "revertMessage": "",
                    "selector": "0x70a08231",
                    "status": true,
                    "value": "0"
                },
                "nodeType": 0
            },
            "3": {
                "event": {
                    "contract": "0xc02aaa39b223fe8d0a0e5c4f27ead9083c756cc2",
                    "decodedLog": {
                        "name": "Deposit",
                        "params": [
                            {
                                "name": "dst",
                                "type": "address",
                                "value": "0xb517850510997a34b4ddc8c3797b4f83fad510c4"
                            },
                            {
                                "name": "wad",
                                "type": "uint256",
                                "value": "25,000,000,000,000,000"
                            }
                        ],
                        "signature": "Deposit(address,uint256)"
                    },
                    "id": 3,
                    "logData": "0x0000000000000000000000000000000000000000000000000058d15e17628000",
                    "logDecoded": true,
                    "operation": "EVENT",
                    "revert": true,
                    "status": false,
                    "topics": [
                        "0xe1fffcc4923d04b559f4d29a8bfc6cda04eb5b0d3c460751c2402c5c5cc9109c",
                        "0x000000000000000000000000b517850510997a34b4ddc8c3797b4f83fad510c4"
                    ]
                },
                "nodeType": 1
            },
            "4": {
                "invocation": {
                    "address": "0xd7780af89a01598f09fe636f3794e81e12befe16",
                    "callData": "0x00000000000000000000000077a83f5e9caafb138814b0cf7c3529b52a4d8867",
                    "decodedMethod": {
                        "callParams": [
                            {
                                "name": "account",
                                "type": "address",
                                "value": "0x77a83f5e9caafb138814b0cf7c3529b52a4d8867"
                            }
                        ],
                        "constructorArguments": "",
                        "name": "balanceOf",
                        "returnParams": [
                            {
                                "decimalAvailable": true,
                                "name": "",
                                "type": "uint256",
                                "value": "0"
                            }
                        ],
                        "signature": "balanceOf(address)"
                    },
                    "errorInfo": "",
                    "fromAddress": "0xb517850510997a34b4ddc8c3797b4f83fad510c4",
                    "gasUsed": 2617,
                    "id": 4,
                    "methodDecoded": true,
                    "operation": "STATICCALL",
                    "output": "0x0000000000000000000000000000000000000000000000000000000000000000",
                    "revert": true,
                    "revertMessage": "",
                    "selector": "0x70a08231",
                    "status": true,
                    "value": "0"
                },
                "nodeType": 0
            },
            "5": {
                "invocation": {
                    "address": "0xd2a52f45c74b358abe1428bc43f0ce9ddf130780",
                    "callData": "0x000000000000000000000000c02aaa39b223fe8d0a0e5c4f27ead9083c756cc2000000000000000000000000d7780af89a01598f09fe636f3794e81e12befe16",
                    "decodedMethod": null,
                    "errorInfo": "",
                    "fromAddress": "0xb517850510997a34b4ddc8c3797b4f83fad510c4",
                    "gasUsed": 5467,
                    "id": 5,
                    "methodDecoded": false,
                    "operation": "STATICCALL",
                    "output": "0x000000000000000000000000eddba2a0aff24a49d5e9a4b6480a881295dda133",
                    "revert": true,
                    "revertMessage": "",
                    "selector": "0xe98a5b85",
                    "status": true,
                    "value": "0"
                },
                "nodeType": 0
            },
            "6": {
                "invocation": {
                    "address": "0xc02aaa39b223fe8d0a0e5c4f27ead9083c756cc2",
                    "callData": "0x000000000000000000000000eddba2a0aff24a49d5e9a4b6480a881295dda1330000000000000000000000000000000000000000000000000058d15e17628000",
                    "decodedMethod": {
                        "callParams": [
                            {
                                "name": "dst",
                                "type": "address",
                                "value": "0xeddba2a0aff24a49d5e9a4b6480a881295dda133"
                            },
                            {
                                "decimalAvailable": true,
                                "name": "wad",
                                "type": "uint256",
                                "value": "25,000,000,000,000,000"
                            }
                        ],
                        "constructorArguments": "",
                        "name": "transfer",
                        "returnParams": [
                            {
                                "name": "",
                                "type": "bool",
                                "value": true
                            }
                        ],
                        "signature": "transfer(address,uint256)"
                    },
                    "errorInfo": "",
                    "fromAddress": "0xb517850510997a34b4ddc8c3797b4f83fad510c4",
                    "gasUsed": 8062,
                    "id": 6,
                    "methodDecoded": true,
                    "operation": "CALL",
                    "output": "0x0000000000000000000000000000000000000000000000000000000000000001",
                    "revert": true,
                    "revertMessage": "",
                    "selector": "0xa9059cbb",
                    "status": true,
                    "value": "0"
                },
                "nodeType": 0
            },
            "7": {
                "event": {
                    "contract": "0xc02aaa39b223fe8d0a0e5c4f27ead9083c756cc2",
                    "decodedLog": {
                        "name": "Transfer",
                        "params": [
                            {
                                "name": "src",
                                "type": "address",
                                "value": "0xb517850510997a34b4ddc8c3797b4f83fad510c4"
                            },
                            {
                                "name": "dst",
                                "type": "address",
                                "value": "0xeddba2a0aff24a49d5e9a4b6480a881295dda133"
                            },
                            {
                                "decimalAvailable": true,
                                "name": "wad",
                                "type": "uint256",
                                "value": "25,000,000,000,000,000"
                            }
                        ],
                        "signature": "Transfer(address,address,uint256)"
                    },
                    "id": 7,
                    "logData": "0x0000000000000000000000000000000000000000000000000058d15e17628000",
                    "logDecoded": true,
                    "operation": "EVENT",
                    "revert": true,
                    "status": false,
                    "topics": [
                        "0xddf252ad1be2c89b69c2b068fc378daa952ba7f163c4a11628f55a4df523b3ef",
                        "0x000000000000000000000000b517850510997a34b4ddc8c3797b4f83fad510c4",
                        "0x000000000000000000000000eddba2a0aff24a49d5e9a4b6480a881295dda133"
                    ]
                },
                "nodeType": 1
            },
            "8": {
                "invocation": {
                    "address": "0xd2a52f45c74b358abe1428bc43f0ce9ddf130780",
                    "callData": "0x0000000000000000000000000000000000000000000000000058d15e17628000000000000000000000000000c02aaa39b223fe8d0a0e5c4f27ead9083c756cc2000000000000000000000000d7780af89a01598f09fe636f3794e81e12befe1600000000000000000000000077a83f5e9caafb138814b0cf7c3529b52a4d8867",
                    "decodedMethod": {
                        "callParams": [
                            {
                                "name": "amountA",
                                "type": "uint256",
                                "value": "25,000,000,000,000,000"
                            },
                            {
                                "name": "tokenA",
                                "type": "address",
                                "value": "0xc02aaa39b223fe8d0a0e5c4f27ead9083c756cc2"
                            },
                            {
                                "name": "tokenB",
                                "type": "address",
                                "value": "0xd7780af89a01598f09fe636f3794e81e12befe16"
                            },
                            {
                                "name": "to",
                                "type": "address",
                                "value": "0x77a83f5e9caafb138814b0cf7c3529b52a4d8867"
                            }
                        ],
                        "constructorArguments": "",
                        "name": "swap",
                        "returnParams": [
                            {
                                "name": "amountReceived",
                                "type": "uint256",
                                "value": "2,111,269,664,385"
                            }
                        ],
                        "signature": "swap(uint256,address,address,address)"
                    },
                    "errorInfo": "",
                    "fromAddress": "0xb517850510997a34b4ddc8c3797b4f83fad510c4",
                    "gasUsed": 121434,
                    "id": 8,
                    "methodDecoded": true,
                    "operation": "CALL",
                    "output": "0x000000000000000000000000000000000000000000000000000001eb917a7681",
                    "revert": true,
                    "revertMessage": "",
                    "selector": "0x88156e65",
                    "status": true,
                    "value": "0"
                },
                "nodeType": 0
            },
            "9": {
                "invocation": {
                    "address": "0xeddba2a0aff24a49d5e9a4b6480a881295dda133",
                    "callData": "0x",
                    "decodedMethod": {
                        "callParams": [],
                        "constructorArguments": "",
                        "name": "getReserves",
                        "returnParams": [
                            {
                                "name": "_reserve0",
                                "type": "uint112",
                                "value": "11,888,642,572,062,660,051"
                            },
                            {
                                "name": "_reserve1",
                                "type": "uint112",
                                "value": "1,009,137,565,075,275"
                            },
                            {
                                "name": "_blockTimestampLast",
                                "type": "uint32",
                                "value": "1,693,875,311"
                            }
                        ],
                        "signature": "getReserves()"
                    },
                    "errorInfo": "",
                    "fromAddress": "0xd2a52f45c74b358abe1428bc43f0ce9ddf130780",
                    "gasUsed": 2504,
                    "id": 9,
                    "methodDecoded": true,
                    "operation": "STATICCALL",
                    "output": "0x000000000000000000000000000000000000000000000000a4fcf16e396195d3000000000000000000000000000000000000000000000000000395ce2618874b0000000000000000000000000000000000000000000000000000000064f67c6f",
                    "revert": true,
                    "revertMessage": "",
                    "selector": "0x0902f1ac",
                    "status": true,
                    "value": "0"
                },
                "nodeType": 0
            }
        },
        "gasFlame": [
            {
                "children": [
                    {
                        "children": [
                            {
                                "children": [],
                                "depth": 0,
                                "name": "Initial Gas",
                                "value": 23636
                            },
                            {
                                "children": [
                                    {
                                        "children": [
                                            {
                                                "children": [],
                                                "depth": 2,
                                                "name": "deposit",
                                                "value": 23974
                                            },
                                            {
                                                "children": [],
                                                "depth": 2,
                                                "name": "balanceOf",
                                                "value": 2617
                                            },
                                            {
                                                "children": [],
                                                "depth": 2,
                                                "name": "0xe98a5b85",
                                                "value": 5467
                                            },
                                            {
                                                "children": [],
                                                "depth": 2,
                                                "name": "transfer",
                                                "value": 8062
                                            },
                                            {
                                                "children": [
                                                    {
                                                        "children": [],
                                                        "depth": 3,
                                                        "name": "getReserves",
                                                        "value": 2504
                                                    },
                                                    {
                                                        "children": [],
                                                        "depth": 3,
                                                        "name": "balanceOf",
                                                        "value": 534
                                                    },
                                                    {
                                                        "children": [],
                                                        "depth": 3,
                                                        "name": "balanceOf",
                                                        "value": 617
                                                    },
                                                    {
                                                        "children": [
                                                            {
                                                                "children": [],
                                                                "depth": 4,
                                                                "name": "transfer",
                                                                "value": 85739
                                                            },
                                                            {
                                                                "children": [],
                                                                "depth": 4,
                                                                "name": "balanceOf",
                                                                "value": 534
                                                            },
                                                            {
                                                                "children": [],
                                                                "depth": 4,
                                                                "name": "balanceOf",
                                                                "value": 617
                                                            }
                                                        ],
                                                        "depth": 3,
                                                        "name": "swap",
                                                        "value": 107797
                                                    },
                                                    {
                                                        "children": [],
                                                        "depth": 3,
                                                        "name": "balanceOf",
                                                        "value": 617
                                                    }
                                                ],
                                                "depth": 2,
                                                "name": "swap",
                                                "value": 121434
                                            },
                                            {
                                                "children": [],
                                                "depth": 2,
                                                "name": "balanceOf",
                                                "value": 617
                                            }
                                        ],
                                        "depth": 1,
                                        "name": "0x66b210ac",
                                        "value": 189897
                                    }
                                ],
                                "depth": 0,
                                "name": "Executed Gas",
                                "value": 194865
                            }
                        ],
                        "depth": -1,
                        "name": "Actual Gas Used",
                        "value": 218501
                    },
                    {
                        "children": [],
                        "depth": -1,
                        "name": "Refunded Gas",
                        "value": 0
                    }
                ],
                "depth": -2,
                "name": "Total Gas",
                "value": 218501
            }
        ],
        "isConfirmed": true,
        "mainTrace": [
            {
                "children": [
                    {
                        "children": [
                            {
                                "children": [
                                    {
                                        "children": [
                                            {
                                                "children": [],
                                                "depth": 3,
                                                "id": 3,
                                                "order": 3
                                            }
                                        ],
                                        "depth": 2,
                                        "id": 2,
                                        "order": 2
                                    },
                                    {
                                        "children": [],
                                        "depth": 2,
                                        "id": 4,
                                        "order": 4
                                    },
                                    {
                                        "children": [],
                                        "depth": 2,
                                        "id": 5,
                                        "order": 5
                                    },
                                    {
                                        "children": [
                                            {
                                                "children": [],
                                                "depth": 3,
                                                "id": 7,
                                                "order": 7
                                            }
                                        ],
                                        "depth": 2,
                                        "id": 6,
                                        "order": 6
                                    },
                                    {
                                        "children": [
                                            {
                                                "children": [],
                                                "depth": 3,
                                                "id": 9,
                                                "order": 9
                                            },
                                            {
                                                "children": [],
                                                "depth": 3,
                                                "id": 10,
                                                "order": 10
                                            },
                                            {
                                                "children": [],
                                                "depth": 3,
                                                "id": 11,
                                                "order": 11
                                            },
                                            {
                                                "children": [
                                                    {
                                                        "children": [
                                                            {
                                                                "children": [],
                                                                "depth": 5,
                                                                "id": 14,
                                                                "order": 14
                                                            }
                                                        ],
                                                        "depth": 4,
                                                        "id": 13,
                                                        "order": 13
                                                    },
                                                    {
                                                        "children": [],
                                                        "depth": 4,
                                                        "id": 15,
                                                        "order": 15
                                                    },
                                                    {
                                                        "children": [],
                                                        "depth": 4,
                                                        "id": 16,
                                                        "order": 16
                                                    },
                                                    {
                                                        "children": [],
                                                        "depth": 4,
                                                        "id": 17,
                                                        "order": 17
                                                    },
                                                    {
                                                        "children": [],
                                                        "depth": 4,
                                                        "id": 18,
                                                        "order": 18
                                                    }
                                                ],
                                                "depth": 3,
                                                "id": 12,
                                                "order": 12
                                            },
                                            {
                                                "children": [],
                                                "depth": 3,
                                                "id": 19,
                                                "order": 19
                                            }
                                        ],
                                        "depth": 2,
                                        "id": 8,
                                        "order": 8
                                    },
                                    {
                                        "children": [],
                                        "depth": 2,
                                        "id": 20,
                                        "order": 20
                                    }
                                ],
                                "depth": 1,
                                "id": 1,
                                "order": 1
                            }
                        ],
                        "depth": 0,
                        "id": 0,
                        "order": 0
                    }
                ],
                "depth": -1,
                "id": -1,
                "order": -1
            }
        ],
        "mainTraceNodeCount": 21,
        "parentIdMap": {
            "0": -1,
            "1": 0,
            "10": 8,
            "11": 8,
            "12": 8,
            "13": 12,
            "14": 13,
            "15": 12,
            "16": 12,
            "17": 12,
            "18": 12,
            "19": 8,
            "2": 1,
            "20": 1,
            "3": 2,
            "4": 1,
            "5": 1,
            "6": 1,
            "7": 6,
            "8": 1,
            "9": 8
        },
        "tidyTrace": [
            {
                "children": [
                    {
                        "children": [
                            {
                                "children": [
                                    {
                                        "children": [
                                            {
                                                "children": [],
                                                "depth": 3,
                                                "id": 3,
                                                "order": 3
                                            }
                                        ],
                                        "depth": 2,
                                        "id": 2,
                                        "order": 2
                                    },
                                    {
                                        "children": [
                                            {
                                                "children": [],
                                                "depth": 3,
                                                "id": 7,
                                                "order": 7
                                            }
                                        ],
                                        "depth": 2,
                                        "id": 6,
                                        "order": 6
                                    },
                                    {
                                        "children": [
                                            {
                                                "children": [
                                                    {
                                                        "children": [
                                                            {
                                                                "children": [],
                                                                "depth": 5,
                                                                "id": 14,
                                                                "order": 14
                                                            }
                                                        ],
                                                        "depth": 4,
                                                        "id": 13,
                                                        "order": 13
                                                    },
                                                    {
                                                        "children": [],
                                                        "depth": 4,
                                                        "id": 17,
                                                        "order": 17
                                                    },
                                                    {
                                                        "children": [],
                                                        "depth": 4,
                                                        "id": 18,
                                                        "order": 18
                                                    }
                                                ],
                                                "depth": 3,
                                                "id": 12,
                                                "order": 12
                                            }
                                        ],
                                        "depth": 2,
                                        "id": 8,
                                        "order": 8
                                    }
                                ],
                                "depth": 1,
                                "id": 1,
                                "order": 1
                            }
                        ],
                        "depth": 0,
                        "id": 0,
                        "order": 0
                    }
                ],
                "depth": -1,
                "id": -1,
                "order": -1
            }
        ],
        "tidyTraceNodeCount": 12
    },
    "state_change": {
        "stateChanges": []
    }
}