{
    "balance_change": {
        "balanceChanges": []
    },
    "profile": {
        "basic_info": {
            "baseFee": "5.604104448",
            "blockNumber": 19751333,
            "callData": "0xb143044b00000000000000000000000000000000000000000000000000000000000000200000000000000000000000000000000000000000000000000000000000000001000000000000000000000000000000000000000000000000000000000000002000000000000000000000000000000000000000000000000000000000000000650000000000000000000000004d73adb72bc3dd368966edd0f0b2148401a178e200000000000000000000000000000000000000000000000000000000000000a000000000000000000000000000000000000000000000000000000000662e1fcf00000000000000000000000000000000000000000000000000000000000001600000000000000000000000000000000000000000000000000000000000000084704316e5000000000000000000000000000000000000000000000000000000000000006eebab6793db6f51129cb34e3002b5e5d98ebdfd25a6d728c1b3ea6cb124682a150000000000000000000000000000000000000000000000000000000000000014ebab6793db6f51129cb34e3002b5e5d98ebdfd25a6d728c1b3ea6cb124682a1500000000000000000000000000000000000000000000000000000000000000000000000000000000000000000000000000000000000000000000008277708db64274e90d93d618bf092e4f3b56ee75e83c6480a953206de8eccfc02176cfae57947cbd6310abf5eb487f3a49f58d74cb9c14dd9d522f4ddfe0f28d721c66fb5df515a4f29786a9d190f904660267559ef4b5e9f90743be80a7cf5473b2684955a972d5dc0b24d93ab88499128b8623054fd68c8ee930924e2ddd1cae271b000000000000000000000000000000000000000000000000000000000000",
            "debugEnable": true,
            "errorInfo": "",
            "eventCount": 1,
            "feeRecipient": "0x388c818ca8b9251b393131c08a736a67ccb19297",
            "formatValue": "0",
            "gasLimit": 1786064,
            "gasPrice": "6.701069289",
            "gasUsed": 76054,
            "intTxnCount": 3,
            "internalRevert": false,
            "internalRevertMessage": "",
            "isContractCreation": false,
            "isFlashloan": false,
            "maxFee": "",
            "nonce": 225023,
            "overwritedBlockNumber": -1,
            "priorityFee": "",
            "receiver": "0xd56e4eab23cb81f43168f9f45211eb027b9ac7cc",
            "revertMessage": "",
            "sender": "0x21c3de23d98caddc406e3d31b25e807addf33633",
            "simulationEnable": true,
            "sourceTxnHash": "0x2a61cb1d4b4230d7b83ca118e211f9d74f66f7a79620f5abfb2ddba4ea7c8c1b",
            "status": true,
            "timestamp": "2024-04-28T04:08:35Z",
            "transactionFee": "0.000509643123705606",
            "txnHash": "0x2a61cb1d4b4230d7b83ca118e211f9d74f66f7a79620f5abfb2ddba4ea7c8c1b",
            "txnIndex": 26,
            "type": 0,
            "value": "0"
        },
        "fund_flow": [],
        "token_infos": [
            {
                "address": "0xc02aaa39b223fe8d0a0e5c4f27ead9083c756cc2",
                "decimals": 18
            },
            {
                "address": "0xeeeeeeeeeeeeeeeeeeeeeeeeeeeeeeeeeeeeeeee",
                "decimals": 18
            }
        ]
    },
    "address_label": {
        "labels": [
            {
                "address": "0xeeeeeeeeeeeeeeeeeeeeeeeeeeeeeeeeeeeeeeee",
                "label": "Ether"
            },
            {
                "address": "0x4d73adb72bc3dd368966edd0f0b2148401a178e2",
                "label": "Layer Zero: Ultra Light Node v2"
            },
            {
                "address": "0xd56e4eab23cb81f43168f9f45211eb027b9ac7cc",
                "label": "VerifierNetwork"
            },
            {
                "address": "0x388c818ca8b9251b393131c08a736a67ccb19297",
                "label": "LidoExecutionLayerRewardsVault"
            },
            {
                "address": "0x0000000000000000000000000000000000000001",
                "label": "Precompiled"
            },
            {
                "address": "0x0000000000000000000000000000000000000002",
                "label": "Precompiled"
            },
            {
                "address": "0x0000000000000000000000000000000000000003",
                "label": "Precompiled"
            },
            {
                "address": "0x0000000000000000000000000000000000000004",
                "label": "Precompiled"
            }
        ]
    },
    "trace": {
        "accountLabels": null,
        "dataMap": {
            "-1": {
                "invocation": {
                    "address": "0x21c3de23d98caddc406e3d31b25e807addf33633",
                    "callData": "",
                    "decodedMethod": null,
                    "errorInfo": "",
                    "fromAddress": "",
                    "gasUsed": 0,
                    "id": -1,
                    "methodDecoded": false,
                    "operation": "",
                    "output": "",
                    "revert": false,
                    "revertMessage": "",
                    "selector": "",
                    "status": false,
                    "value": ""
                },
                "nodeType": 0
            },
            "0": {
                "invocation": {
                    "address": "0xd56e4eab23cb81f43168f9f45211eb027b9ac7cc",
                    "callData": "0x00000000000000000000000000000000000000000000000000000000000000200000000000000000000000000000000000000000000000000000000000000001000000000000000000000000000000000000000000000000000000000000002000000000000000000000000000000000000000000000000000000000000000650000000000000000000000004d73adb72bc3dd368966edd0f0b2148401a178e200000000000000000000000000000000000000000000000000000000000000a000000000000000000000000000000000000000000000000000000000662e1fcf00000000000000000000000000000000000000000000000000000000000001600000000000000000000000000000000000000000000000000000000000000084704316e5000000000000000000000000000000000000000000000000000000000000006eebab6793db6f51129cb34e3002b5e5d98ebdfd25a6d728c1b3ea6cb124682a150000000000000000000000000000000000000000000000000000000000000014ebab6793db6f51129cb34e3002b5e5d98ebdfd25a6d728c1b3ea6cb124682a1500000000000000000000000000000000000000000000000000000000000000000000000000000000000000000000000000000000000000000000008277708db64274e90d93d618bf092e4f3b56ee75e83c6480a953206de8eccfc02176cfae57947cbd6310abf5eb487f3a49f58d74cb9c14dd9d522f4ddfe0f28d721c66fb5df515a4f29786a9d190f904660267559ef4b5e9f90743be80a7cf5473b2684955a972d5dc0b24d93ab88499128b8623054fd68c8ee930924e2ddd1cae271b000000000000000000000000000000000000000000000000000000000000",
                    "decodedMethod": {
                        "callParams": [
                            {
                                "name": "_params",
                                "type": "(uint32,address,bytes,uint256,bytes)[]",
                                "value": [
                                    [
                                        {
                                            "name": "vid",
                                            "type": "uint32",
                                            "value": "101"
                                        },
                                        {
                                            "name": "target",
                                            "type": "address",
                                            "value": "0x4d73adb72bc3dd368966edd0f0b2148401a178e2"
                                        },
                                        {
                                            "name": "callData",
                                            "type": "bytes",
                                            "value": "0x704316e5000000000000000000000000000000000000000000000000000000000000006eebab6793db6f51129cb34e3002b5e5d98ebdfd25a6d728c1b3ea6cb124682a150000000000000000000000000000000000000000000000000000000000000014ebab6793db6f51129cb34e3002b5e5d98ebdfd25a6d728c1b3ea6cb124682a15"
                                        },
                                        {
                                            "name": "expiration",
                                            "type": "uint256",
                                            "value": "1,714,298,831"
                                        },
                                        {
                                            "name": "signatures",
                                            "type": "bytes",
                                            "value": "0x77708db64274e90d93d618bf092e4f3b56ee75e83c6480a953206de8eccfc02176cfae57947cbd6310abf5eb487f3a49f58d74cb9c14dd9d522f4ddfe0f28d721c66fb5df515a4f29786a9d190f904660267559ef4b5e9f90743be80a7cf5473b2684955a972d5dc0b24d93ab88499128b8623054fd68c8ee930924e2ddd1cae271b"
                                        }
                                    ]
                                ]
                            }
                        ],
                        "constructorArguments": "",
                        "name": "execute",
                        "returnParams": [],
                        "signature": "execute((uint32,address,bytes,uint256,bytes)[])"
                    },
                    "errorInfo": "",
                    "fromAddress": "0x21c3de23d98caddc406e3d31b25e807addf33633",
                    "gasUsed": 76054,
                    "id": 0,
                    "methodDecoded": true,
                    "operation": "CALL",
                    "output": "",
                    "revert": false,
                    "revertMessage": "",
                    "selector": "0xb143044b",
                    "status": true,
                    "value": "0"
                },
                "nodeType": 0
            },
            "1": {
                "invocation": {
                    "address": "0x0000000000000000000000000000000000000001",
                    "callData": "0x27ade5c493c5007c5eef63d607d2e85f2f0e735411824dd3a24893ac000000000000000000000000000000000000000000000000000000000000001c77708db64274e90d93d618bf092e4f3b56ee75e83c6480a953206de8eccfc02176cfae57947cbd6310abf5eb487f3a49f58d74cb9c14dd9d522f4ddfe0f28d72",
                    "decodedMethod": {
                        "callParams": [
                            {
                                "name": "hash",
                                "type": "bytes32",
                                "value": "0x97f7758827ade5c493c5007c5eef63d607d2e85f2f0e735411824dd3a24893ac"
                            },
                            {
                                "name": "v",
                                "type": "uint256",
                                "value": "28"
                            },
                            {
                                "name": "r",
                                "type": "bytes32",
                                "value": "0x77708db64274e90d93d618bf092e4f3b56ee75e83c6480a953206de8eccfc021"
                            },
                            {
                                "name": "s",
                                "type": "bytes32",
                                "value": "0x76cfae57947cbd6310abf5eb487f3a49f58d74cb9c14dd9d522f4ddfe0f28d72"
                            }
                        ],
                        "constructorArguments": "",
                        "name": "ecrecover",
                        "returnParams": [
                            {
                                "name": "",
                                "type": "address",
                                "value": "0x94bc8ba19b4cce7aac14e2679942fc567e027c67"
                            }
                        ],
                        "signature": "ecrecover(bytes32,uint256,bytes32,bytes32)"
                    },
                    "errorInfo": "",
                    "fromAddress": "0xd56e4eab23cb81f43168f9f45211eb027b9ac7cc",
                    "gasUsed": 3000,
                    "id": 1,
                    "methodDecoded": true,
                    "operation": "STATICCALL",
                    "output": "0x00000000000000000000000094bc8ba19b4cce7aac14e2679942fc567e027c67",
                    "revert": false,
                    "revertMessage": "",
                    "selector": "0x97f77588",
                    "status": true,
                    "value": "0"
                },
                "nodeType": 0
            },
            "2": {
                "invocation": {
                    "address": "0x0000000000000000000000000000000000000001",
                    "callData": "0x27ade5c493c5007c5eef63d607d2e85f2f0e735411824dd3a24893ac000000000000000000000000000000000000000000000000000000000000001b66fb5df515a4f29786a9d190f904660267559ef4b5e9f90743be80a7cf5473b2684955a972d5dc0b24d93ab88499128b8623054fd68c8ee930924e2ddd1cae27",
                    "decodedMethod": {
                        "callParams": [
                            {
                                "name": "hash",
                                "type": "bytes32",
                                "value": "0x97f7758827ade5c493c5007c5eef63d607d2e85f2f0e735411824dd3a24893ac"
                            },
                            {
                                "name": "v",
                                "type": "uint256",
                                "value": "27"
                            },
                            {
                                "name": "r",
                                "type": "bytes32",
                                "value": "0x66fb5df515a4f29786a9d190f904660267559ef4b5e9f90743be80a7cf5473b2"
                            },
                            {
                                "name": "s",
                                "type": "bytes32",
                                "value": "0x684955a972d5dc0b24d93ab88499128b8623054fd68c8ee930924e2ddd1cae27"
                            }
                        ],
                        "constructorArguments": "",
                        "name": "ecrecover",
                        "returnParams": [
                            {
                                "name": "",
                                "type": "address",
                                "value": "0xddbdc840164da20bcf6aa85c3957396c14642ab1"
                            }
                        ],
                        "signature": "ecrecover(bytes32,uint256,bytes32,bytes32)"
                    },
                    "errorInfo": "",
                    "fromAddress": "0xd56e4eab23cb81f43168f9f45211eb027b9ac7cc",
                    "gasUsed": 3000,
                    "id": 2,
                    "methodDecoded": true,
                    "operation": "STATICCALL",
                    "output": "0x000000000000000000000000ddbdc840164da20bcf6aa85c3957396c14642ab1",
                    "revert": false,
                    "revertMessage": "",
                    "selector": "0x97f77588",
                    "status": true,
                    "value": "0"
                },
                "nodeType": 0
            },
            "3": {
                "invocation": {
                    "address": "0x4d73adb72bc3dd368966edd0f0b2148401a178e2",
                    "callData": "0x000000000000000000000000000000000000000000000000000000000000006eebab6793db6f51129cb34e3002b5e5d98ebdfd25a6d728c1b3ea6cb124682a150000000000000000000000000000000000000000000000000000000000000014ebab6793db6f51129cb34e3002b5e5d98ebdfd25a6d728c1b3ea6cb124682a15",
                    "decodedMethod": {
                        "callParams": [
                            {
                                "name": "_srcChainId",
                                "type": "uint16",
                                "value": "110"
                            },
                            {
                                "name": "_lookupHash",
                                "type": "bytes32",
                                "value": "0xebab6793db6f51129cb34e3002b5e5d98ebdfd25a6d728c1b3ea6cb124682a15"
                            },
                            {
                                "name": "_confirmations",
                                "type": "uint256",
                                "value": "20"
                            },
                            {
                                "name": "_blockData",
                                "type": "bytes32",
                                "value": "0xebab6793db6f51129cb34e3002b5e5d98ebdfd25a6d728c1b3ea6cb124682a15"
                            }
                        ],
                        "constructorArguments": "",
                        "name": "updateHash",
                        "returnParams": [],
                        "signature": "updateHash(uint16,bytes32,uint256,bytes32)"
                    },
                    "errorInfo": "",
                    "fromAddress": "0xd56e4eab23cb81f43168f9f45211eb027b9ac7cc",
                    "gasUsed": 25536,
                    "id": 3,
                    "methodDecoded": true,
                    "operation": "CALL",
                    "output": "",
                    "revert": false,
                    "revertMessage": "",
                    "selector": "0x704316e5",
                    "status": true,
                    "value": "0"
                },
                "nodeType": 0
            },
            "4": {
                "event": {
                    "contract": "0x4d73adb72bc3dd368966edd0f0b2148401a178e2",
                    "decodedLog": {
                        "name": "HashReceived",
                        "params": [
                            {
                                "name": "srcChainId",
                                "type": "uint16",
                                "value": "110"
                            },
                            {
                                "name": "oracle",
                                "type": "address",
                                "value": "0xd56e4eab23cb81f43168f9f45211eb027b9ac7cc"
                            },
                            {
                                "name": "lookupHash",
                                "type": "bytes32",
                                "value": "0xebab6793db6f51129cb34e3002b5e5d98ebdfd25a6d728c1b3ea6cb124682a15"
                            },
                            {
                                "name": "blockData",
                                "type": "bytes32",
                                "value": "0xebab6793db6f51129cb34e3002b5e5d98ebdfd25a6d728c1b3ea6cb124682a15"
                            },
                            {
                                "name": "confirmations",
                                "type": "uint256",
                                "value": "20"
                            }
                        ],
                        "signature": "HashReceived(uint16,address,bytes32,bytes32,uint256)"
                    },
                    "id": 4,
                    "logData": "0xebab6793db6f51129cb34e3002b5e5d98ebdfd25a6d728c1b3ea6cb124682a15ebab6793db6f51129cb34e3002b5e5d98ebdfd25a6d728c1b3ea6cb124682a150000000000000000000000000000000000000000000000000000000000000014",
                    "logDecoded": true,
                    "operation": "EVENT",
                    "revert": false,
                    "status": true,
                    "topics": [
                        "0x74bbc026808dcba59692d6a8bb20596849ca718e10e2432c6cdf48af865bc5d9",
                        "0x000000000000000000000000000000000000000000000000000000000000006e",
                        "0x000000000000000000000000d56e4eab23cb81f43168f9f45211eb027b9ac7cc"
                    ]
                },
                "nodeType": 1
            }
        },
        "gasFlame": [
            {
                "children": [
                    {
                        "children": [
                            {
                                "children": [],
                                "depth": 0,
                                "name": "Initial Gas",
                                "value": 26420
                            },
                            {
                                "children": [
                                    {
                                        "children": [],
                                        "depth": 1,
                                        "name": "ecrecover",
                                        "value": 3000
                                    },
                                    {
                                        "children": [],
                                        "depth": 1,
                                        "name": "ecrecover",
                                        "value": 3000
                                    },
                                    {
                                        "children": [],
                                        "depth": 1,
                                        "name": "updateHash",
                                        "value": 25536
                                    }
                                ],
                                "depth": 0,
                                "name": "Executed Gas",
                                "value": 49634
                            }
                        ],
                        "depth": -1,
                        "name": "Actual Gas Used",
                        "value": 76054
                    },
                    {
                        "children": [],
                        "depth": -1,
                        "name": "Refunded Gas",
                        "value": 0
                    }
                ],
                "depth": -2,
                "name": "Total Gas",
                "value": 76054
            }
        ],
        "isConfirmed": true,
        "mainTrace": [
            {
                "children": [
                    {
                        "children": [
                            {
                                "children": [],
                                "depth": 1,
                                "id": 1,
                                "order": 1
                            },
                            {
                                "children": [],
                                "depth": 1,
                                "id": 2,
                                "order": 2
                            },
                            {
                                "children": [
                                    {
                                        "children": [],
                                        "depth": 2,
                                        "id": 4,
                                        "order": 4
                                    }
                                ],
                                "depth": 1,
                                "id": 3,
                                "order": 3
                            }
                        ],
                        "depth": 0,
                        "id": 0,
                        "order": 0
                    }
                ],
                "depth": -1,
                "id": -1,
                "order": -1
            }
        ],
        "mainTraceNodeCount": 5,
        "parentIdMap": {
            "0": -1,
            "1": 0,
            "2": 0,
            "3": 0,
            "4": 3
        },
        "tidyTrace": [
            {
                "children": [
                    {
                        "children": [
                            {
                                "children": [
                                    {
                                        "children": [],
                                        "depth": 2,
                                        "id": 4,
                                        "order": 4
                                    }
                                ],
                                "depth": 1,
                                "id": 3,
                                "order": 3
                            }
                        ],
                        "depth": 0,
                        "id": 0,
                        "order": 0
                    }
                ],
                "depth": -1,
                "id": -1,
                "order": -1
            }
        ],
        "tidyTraceNodeCount": 3
    },
    "state_change": {
        "stateChanges": [
            {
                "address": "0x4d73adb72bc3dd368966edd0f0b2148401a178e2",
                "erc": "",
                "slots": [
                    {
                        "current": "0x0000000000000000000000000000000000000000000000000000000000000014",
                        "key": "0x32a746e8e0b750630ddd9750ca49b73f87a9fa16b408e04f098f875b1ee2a75b",
                        "prev": "0x0000000000000000000000000000000000000000000000000000000000000000"
                    }
                ],
                "storageVariables": [
                    {
                        "name": "hashLookup",
                        "type": "mapping(address => mapping(uint16 => mapping(bytes32 => mapping(bytes32 => uint256))))",
                        "value": {
                            "pairs": [
                                {
                                    "key": "0xd56e4eab23cb81f43168f9f45211eb027b9ac7cc",
                                    "value": {
                                        "pairs": [
                                            {
                                                "key": "110",
                                                "value": {
                                                    "pairs": [
                                                        {
                                                            "key": "0xebab6793db6f51129cb34e3002b5e5d98ebdfd25a6d728c1b3ea6cb124682a15",
                                                            "value": {
                                                                "pairs": [
                                                                    {
                                                                        "key": "0xebab6793db6f51129cb34e3002b5e5d98ebdfd25a6d728c1b3ea6cb124682a15",
                                                                        "value": {
                                                                            "current": "20",
                                                                            "prev": "0",
                                                                            "typeTag": 1
                                                                        }
                                                                    }
                                                                ],
                                                                "typeTag": 4
                                                            }
                                                        }
                                                    ],
                                                    "typeTag": 4
                                                }
                                            }
                                        ],
                                        "typeTag": 4
                                    }
                                }
                            ],
                            "typeTag": 4
                        }
                    }
                ]
            }
        ]
    }
}