{
    "balance_change": {
        "balanceChanges": [
            {
                "account": "0x85c5489f74fe5000ff0701535d9ec8ef49dfe704",
                "assets": [
                    {
                        "address": "0x4086692d53262b2be0b13909d804f0491ff6ec3e",
                        "amount": "1",
                        "iconUrl": "",
                        "isERC1155": false,
                        "isERC721": false,
                        "sign": false,
                        "value": "18.82690543"
                    },
                    {
                        "address": "0x7777770f8a6632ff043c8833310e245eba9209e6",
                        "amount": "169.915403196685841026",
                        "iconUrl": "",
                        "isERC1155": false,
                        "isERC721": false,
                        "sign": false,
                        "value": "409.8111183"
                    },
                    {
                        "address": "0x34d0448a79f853d6e1f7ac117368c87bb7beea6b",
                        "amount": "13.022285851203281193",
                        "iconUrl": "",
                        "isERC1155": false,
                        "isERC721": false,
                        "sign": true,
                        "value": "428.6380236"
                    }
                ]
            },
            {
                "account": "0x0000000000000000000000000000000000000000",
                "assets": [
                    {
                        "address": "0x34d0448a79f853d6e1f7ac117368c87bb7beea6b",
                        "amount": "13.022285851203281193",
                        "iconUrl": "",
                        "isERC1155": false,
                        "isERC721": false,
                        "sign": false,
                        "value": "428.6380236"
                    }
                ]
            },
            {
                "account": "0x34d0448a79f853d6e1f7ac117368c87bb7beea6b",
                "assets": [
                    {
                        "address": "0x4086692d53262b2be0b13909d804f0491ff6ec3e",
                        "amount": "1",
                        "iconUrl": "",
                        "isERC1155": false,
                        "isERC721": false,
                        "sign": true,
                        "value": "18.82690543"
                    },
                    {
                        "address": "0x7777770f8a6632ff043c8833310e245eba9209e6",
                        "amount": "169.915403196685841026",
                        "iconUrl": "",
                        "isERC1155": false,
                        "isERC721": false,
                        "sign": true,
                        "value": "409.8111183"
                    }
                ]
            }
        ]
    },
    "profile": {
        "basic_info": {
            "baseFee": "",
            "blockNumber": 10823867,
            "callData": "0xe8e337000000000000000000000000004086692d53262b2be0b13909d804f0491ff6ec3e0000000000000000000000007777770f8a6632ff043c8833310e245eba9209e60000000000000000000000000000000000000000000000000de0b6b3a7640000000000000000000000000000000000000000000000000009360cc6f4fdbb72820000000000000000000000000000000000000000000000000d7621dc58210000000000000000000000000000000000000000000000000008ef4ef430338f6c8300000000000000000000000085c5489f74fe5000ff0701535d9ec8ef49dfe704000000000000000000000000000000000000000000000000000000005f580dfa",
            "debugEnable": true,
            "errorInfo": "",
            "eventCount": 5,
            "feeRecipient": "0x06b8c5883ec71bc3f4b332081519f23834c8706e",
            "formatValue": "0",
            "gasLimit": 170353,
            "gasPrice": "91",
            "gasUsed": 148264,
            "intTxnCount": 8,
            "internalRevert": false,
            "internalRevertMessage": "",
            "isContractCreation": false,
            "isFlashloan": false,
            "maxFee": "",
            "nonce": 1278,
            "overwritedBlockNumber": -1,
            "priorityFee": "",
            "receiver": "0x7a250d5630b4cf539739df2c5dacb4c659f2488d",
            "revertMessage": "",
            "sender": "0x85c5489f74fe5000ff0701535d9ec8ef49dfe704",
            "simulationEnable": true,
            "sourceTxnHash": "0x2add5ec1c837a61975553343aab64919b3dd88d09272a6b0f03642b26f65be7d",
            "status": true,
            "timestamp": "2020-09-08T22:54:29Z",
            "transactionFee": "0.013492024",
            "txnHash": "0x2add5ec1c837a61975553343aab64919b3dd88d09272a6b0f03642b26f65be7d",
            "txnIndex": 55,
            "type": 0,
            "value": "0"
        },
        "fund_flow": [
            {
                "amount": "1",
                "from": "0x85c5489f74fe5000ff0701535d9ec8ef49dfe704",
                "id": 1,
                "isERC1155": false,
                "isERC721": false,
                "isReverted": false,
                "order": 1,
                "to": "0x34d0448a79f853d6e1f7ac117368c87bb7beea6b",
                "token": "0x4086692d53262b2be0b13909d804f0491ff6ec3e"
            },
            {
                "amount": "169.915403196685841026",
                "from": "0x85c5489f74fe5000ff0701535d9ec8ef49dfe704",
                "id": 2,
                "isERC1155": false,
                "isERC721": false,
                "isReverted": false,
                "order": 2,
                "to": "0x34d0448a79f853d6e1f7ac117368c87bb7beea6b",
                "token": "0x7777770f8a6632ff043c8833310e245eba9209e6"
            },
            {
                "amount": "13.022285851203281193",
                "from": "0x0000000000000000000000000000000000000000",
                "id": 3,
                "isERC1155": false,
                "isERC721": false,
                "isReverted": false,
                "order": 3,
                "to": "0x85c5489f74fe5000ff0701535d9ec8ef49dfe704",
                "token": "0x34d0448a79f853d6e1f7ac117368c87bb7beea6b"
            }
        ],
        "token_infos": [
            {
                "address": "0xeeeeeeeeeeeeeeeeeeeeeeeeeeeeeeeeeeeeeeee",
                "decimals": 18
            },
            {
                "address": "0x34d0448a79f853d6e1f7ac117368c87bb7beea6b",
                "decimals": 18
            },
            {
                "address": "0x4086692d53262b2be0b13909d804f0491ff6ec3e",
                "decimals": 18
            },
            {
                "address": "0x7777770f8a6632ff043c8833310e245eba9209e6",
                "decimals": 18
            },
            {
                "address": "0xc02aaa39b223fe8d0a0e5c4f27ead9083c756cc2",
                "decimals": 18
            }
        ]
    },
    "address_label": {
        "labels": [
            {
                "address": "0x0000000000000000000000000000000000000004",
                "label": "Precompiled"
            },
            {
                "address": "0x7a250d5630b4cf539739df2c5dacb4c659f2488d",
                "label": "Uniswap V2: Router 2"
            },
            {
                "address": "0x5c69bee701ef814a2b6a3edd4b1652cb9cc5aa6f",
                "label": "Uniswap V2: Factory Contract"
            },
            {
                "address": "0x4086692d53262b2be0b13909d804f0491ff6ec3e",
                "label": "Yield Farming Known as Ash: YFKA Token"
            },
            {
                "address": "0x7777770f8a6632ff043c8833310e245eba9209e6",
                "label": "Tokens of Babel, Price is God (TOB)"
            },
            {
                "address": "0x0000000000000000000000000000000000000002",
                "label": "Precompiled"
            },
            {
                "address": "0x0000000000000000000000000000000000000003",
                "label": "Precompiled"
            },
            {
                "address": "0xeeeeeeeeeeeeeeeeeeeeeeeeeeeeeeeeeeeeeeee",
                "label": "Ether"
            },
            {
                "address": "0x34d0448a79f853d6e1f7ac117368c87bb7beea6b",
                "label": "Uniswap V2: YFKA-TOB"
            },
            {
                "address": "0x0000000000000000000000000000000000000000",
                "label": "Null Address"
            },
            {
                "address": "0x0000000000000000000000000000000000000001",
                "label": "Precompiled"
            }
        ]
    },
    "trace": {
        "accountLabels": null,
        "dataMap": {
            "-1": {
                "invocation": {
                    "address": "0x85c5489f74fe5000ff0701535d9ec8ef49dfe704",
                    "callData": "",
                    "decodedMethod": null,
                    "errorInfo": "",
                    "fromAddress": "",
                    "gasUsed": 0,
                    "id": -1,
                    "methodDecoded": false,
                    "operation": "",
                    "output": "",
                    "revert": false,
                    "revertMessage": "",
                    "selector": "",
                    "status": false,
                    "value": ""
                },
                "nodeType": 0
            },
            "0": {
                "invocation": {
                    "address": "0x7a250d5630b4cf539739df2c5dacb4c659f2488d",
                    "callData": "0x0000000000000000000000004086692d53262b2be0b13909d804f0491ff6ec3e0000000000000000000000007777770f8a6632ff043c8833310e245eba9209e60000000000000000000000000000000000000000000000000de0b6b3a7640000000000000000000000000000000000000000000000000009360cc6f4fdbb72820000000000000000000000000000000000000000000000000d7621dc58210000000000000000000000000000000000000000000000000008ef4ef430338f6c8300000000000000000000000085c5489f74fe5000ff0701535d9ec8ef49dfe704000000000000000000000000000000000000000000000000000000005f580dfa",
                    "decodedMethod": {
                        "callParams": [
                            {
                                "name": "tokenA",
                                "type": "address",
                                "value": "0x4086692d53262b2be0b13909d804f0491ff6ec3e"
                            },
                            {
                                "name": "tokenB",
                                "type": "address",
                                "value": "0x7777770f8a6632ff043c8833310e245eba9209e6"
                            },
                            {
                                "name": "amountADesired",
                                "type": "uint256",
                                "value": "1,000,000,000,000,000,000"
                            },
                            {
                                "name": "amountBDesired",
                                "type": "uint256",
                                "value": "169,915,403,196,685,841,026"
                            },
                            {
                                "name": "amountAMin",
                                "type": "uint256",
                                "value": "970,000,000,000,000,000"
                            },
                            {
                                "name": "amountBMin",
                                "type": "uint256",
                                "value": "164,817,941,100,785,265,795"
                            },
                            {
                                "name": "to",
                                "type": "address",
                                "value": "0x85c5489f74fe5000ff0701535d9ec8ef49dfe704"
                            },
                            {
                                "name": "deadline",
                                "type": "uint256",
                                "value": "1,599,606,266"
                            }
                        ],
                        "constructorArguments": "",
                        "name": "addLiquidity",
                        "returnParams": [
                            {
                                "name": "amountA",
                                "type": "uint256",
                                "value": "1,000,000,000,000,000,000"
                            },
                            {
                                "name": "amountB",
                                "type": "uint256",
                                "value": "169,915,403,196,685,841,026"
                            },
                            {
                                "name": "liquidity",
                                "type": "uint256",
                                "value": "13,022,285,851,203,281,193"
                            }
                        ],
                        "signature": "addLiquidity(address,address,uint256,uint256,uint256,uint256,address,uint256)"
                    },
                    "errorInfo": "",
                    "fromAddress": "0x85c5489f74fe5000ff0701535d9ec8ef49dfe704",
                    "gasUsed": 148264,
                    "id": 0,
                    "methodDecoded": true,
                    "operation": "CALL",
                    "output": "0x0000000000000000000000000000000000000000000000000de0b6b3a7640000000000000000000000000000000000000000000000000009360cc6f4fdbb7282000000000000000000000000000000000000000000000000b4b873fc94912129",
                    "revert": false,
                    "revertMessage": "",
                    "selector": "0xe8e33700",
                    "status": true,
                    "value": "0"
                },
                "nodeType": 0
            },
            "1": {
                "invocation": {
                    "address": "0x5c69bee701ef814a2b6a3edd4b1652cb9cc5aa6f",
                    "callData": "0x0000000000000000000000004086692d53262b2be0b13909d804f0491ff6ec3e0000000000000000000000007777770f8a6632ff043c8833310e245eba9209e6",
                    "decodedMethod": {
                        "callParams": [
                            {
                                "name": "",
                                "type": "address",
                                "value": "0x4086692d53262b2be0b13909d804f0491ff6ec3e"
                            },
                            {
                                "name": "",
                                "type": "address",
                                "value": "0x7777770f8a6632ff043c8833310e245eba9209e6"
                            }
                        ],
                        "constructorArguments": "",
                        "name": "getPair",
                        "returnParams": [
                            {
                                "name": "",
                                "type": "address",
                                "value": "0x34d0448a79f853d6e1f7ac117368c87bb7beea6b"
                            }
                        ],
                        "signature": "getPair(address,address)"
                    },
                    "errorInfo": "",
                    "fromAddress": "0x7a250d5630b4cf539739df2c5dacb4c659f2488d",
                    "gasUsed": 1264,
                    "id": 1,
                    "methodDecoded": true,
                    "operation": "STATICCALL",
                    "output": "0x00000000000000000000000034d0448a79f853d6e1f7ac117368c87bb7beea6b",
                    "revert": false,
                    "revertMessage": "",
                    "selector": "0xe6a43905",
                    "status": true,
                    "value": "0"
                },
                "nodeType": 0
            },
            "10": {
                "invocation": {
                    "address": "0x5c69bee701ef814a2b6a3edd4b1652cb9cc5aa6f",
                    "callData": "0x",
                    "decodedMethod": {
                        "callParams": [],
                        "constructorArguments": "",
                        "name": "feeTo",
                        "returnParams": [
                            {
                                "name": "",
                                "type": "address",
                                "value": "0x0000000000000000000000000000000000000000"
                            }
                        ],
                        "signature": "feeTo()"
                    },
                    "errorInfo": "",
                    "fromAddress": "0x34d0448a79f853d6e1f7ac117368c87bb7beea6b",
                    "gasUsed": 1014,
                    "id": 10,
                    "methodDecoded": true,
                    "operation": "STATICCALL",
                    "output": "0x0000000000000000000000000000000000000000000000000000000000000000",
                    "revert": false,
                    "revertMessage": "",
                    "selector": "0x017e7e58",
                    "status": true,
                    "value": "0"
                },
                "nodeType": 0
            },
            "11": {
                "event": {
                    "contract": "0x34d0448a79f853d6e1f7ac117368c87bb7beea6b",
                    "decodedLog": {
                        "name": "Transfer",
                        "params": [
                            {
                                "name": "from",
                                "type": "address",
                                "value": "0x0000000000000000000000000000000000000000"
                            },
                            {
                                "name": "to",
                                "type": "address",
                                "value": "0x85c5489f74fe5000ff0701535d9ec8ef49dfe704"
                            },
                            {
                                "decimalAvailable": true,
                                "name": "value",
                                "type": "uint256",
                                "value": "13,022,285,851,203,281,193"
                            }
                        ],
                        "signature": "Transfer(address,address,uint256)"
                    },
                    "id": 11,
                    "logData": "0x000000000000000000000000000000000000000000000000b4b873fc94912129",
                    "logDecoded": true,
                    "operation": "EVENT",
                    "revert": false,
                    "status": true,
                    "topics": [
                        "0xddf252ad1be2c89b69c2b068fc378daa952ba7f163c4a11628f55a4df523b3ef",
                        "0x0000000000000000000000000000000000000000000000000000000000000000",
                        "0x00000000000000000000000085c5489f74fe5000ff0701535d9ec8ef49dfe704"
                    ]
                },
                "nodeType": 1
            },
            "12": {
                "event": {
                    "contract": "0x34d0448a79f853d6e1f7ac117368c87bb7beea6b",
                    "decodedLog": {
                        "name": "Sync",
                        "params": [
                            {
                                "name": "reserve0",
                                "type": "uint112",
                                "value": "77,407,184,909,735,893,020"
                            },
                            {
                                "name": "reserve1",
                                "type": "uint112",
                                "value": "13,152,673,034,258,190,151,523"
                            }
                        ],
                        "signature": "Sync(uint112,uint112)"
                    },
                    "id": 12,
                    "logData": "0x000000000000000000000000000000000000000000000004323d908df7c9181c0000000000000000000000000000000000000000000002c9020166cf3a97af63",
                    "logDecoded": true,
                    "operation": "EVENT",
                    "revert": false,
                    "status": true,
                    "topics": [
                        "0x1c411e9a96e071241c2f21f7726b17ae89e3cab4c78be50e062b03a9fffbbad1"
                    ]
                },
                "nodeType": 1
            },
            "13": {
                "event": {
                    "contract": "0x34d0448a79f853d6e1f7ac117368c87bb7beea6b",
                    "decodedLog": {
                        "name": "Mint",
                        "params": [
                            {
                                "name": "sender",
                                "type": "address",
                                "value": "0x7a250d5630b4cf539739df2c5dacb4c659f2488d"
                            },
                            {
                                "name": "amount0",
                                "type": "uint256",
                                "value": "1,000,000,000,000,000,000"
                            },
                            {
                                "name": "amount1",
                                "type": "uint256",
                                "value": "169,915,403,196,685,841,026"
                            }
                        ],
                        "signature": "Mint(address,uint256,uint256)"
                    },
                    "id": 13,
                    "logData": "0x0000000000000000000000000000000000000000000000000de0b6b3a7640000000000000000000000000000000000000000000000000009360cc6f4fdbb7282",
                    "logDecoded": true,
                    "operation": "EVENT",
                    "revert": false,
                    "status": true,
                    "topics": [
                        "0x4c209b5fc8ad50758f13e2e1088ba56a560dff690a1c6fef26394f4c03821c4f",
                        "0x0000000000000000000000007a250d5630b4cf539739df2c5dacb4c659f2488d"
                    ]
                },
                "nodeType": 1
            },
            "2": {
                "invocation": {
                    "address": "0x34d0448a79f853d6e1f7ac117368c87bb7beea6b",
                    "callData": "0x",
                    "decodedMethod": {
                        "callParams": [],
                        "constructorArguments": "",
                        "name": "getReserves",
                        "returnParams": [
                            {
                                "name": "_reserve0",
                                "type": "uint112",
                                "value": "76,407,184,909,735,893,020"
                            },
                            {
                                "name": "_reserve1",
                                "type": "uint112",
                                "value": "12,982,757,631,061,504,310,497"
                            },
                            {
                                "name": "_blockTimestampLast",
                                "type": "uint32",
                                "value": "1,599,604,718"
                            }
                        ],
                        "signature": "getReserves()"
                    },
                    "errorInfo": "",
                    "fromAddress": "0x7a250d5630b4cf539739df2c5dacb4c659f2488d",
                    "gasUsed": 1204,
                    "id": 2,
                    "methodDecoded": true,
                    "operation": "STATICCALL",
                    "output": "0x000000000000000000000000000000000000000000000004245cd9da5065181c0000000000000000000000000000000000000000000002bfcbf49fda3cdc3ce1000000000000000000000000000000000000000000000000000000005f5807ee",
                    "revert": false,
                    "revertMessage": "",
                    "selector": "0x0902f1ac",
                    "status": true,
                    "value": "0"
                },
                "nodeType": 0
            },
            "3": {
                "invocation": {
                    "address": "0x4086692d53262b2be0b13909d804f0491ff6ec3e",
                    "callData": "0x00000000000000000000000085c5489f74fe5000ff0701535d9ec8ef49dfe70400000000000000000000000034d0448a79f853d6e1f7ac117368c87bb7beea6b0000000000000000000000000000000000000000000000000de0b6b3a7640000",
                    "decodedMethod": {
                        "callParams": [
                            {
                                "name": "from",
                                "type": "address",
                                "value": "0x85c5489f74fe5000ff0701535d9ec8ef49dfe704"
                            },
                            {
                                "name": "to",
                                "type": "address",
                                "value": "0x34d0448a79f853d6e1f7ac117368c87bb7beea6b"
                            },
                            {
                                "decimalAvailable": true,
                                "name": "tokens",
                                "type": "uint256",
                                "value": "1,000,000,000,000,000,000"
                            }
                        ],
                        "constructorArguments": "",
                        "name": "transferFrom",
                        "returnParams": [
                            {
                                "name": "success",
                                "type": "bool",
                                "value": true
                            }
                        ],
                        "signature": "transferFrom(address,address,uint256)"
                    },
                    "errorInfo": "",
                    "fromAddress": "0x7a250d5630b4cf539739df2c5dacb4c659f2488d",
                    "gasUsed": 21029,
                    "id": 3,
                    "methodDecoded": true,
                    "operation": "CALL",
                    "output": "0x0000000000000000000000000000000000000000000000000000000000000001",
                    "revert": false,
                    "revertMessage": "",
                    "selector": "0x23b872dd",
                    "status": true,
                    "value": "0"
                },
                "nodeType": 0
            },
            "4": {
                "event": {
                    "contract": "0x4086692d53262b2be0b13909d804f0491ff6ec3e",
                    "decodedLog": {
                        "name": "Transfer",
                        "params": [
                            {
                                "name": "from",
                                "type": "address",
                                "value": "0x85c5489f74fe5000ff0701535d9ec8ef49dfe704"
                            },
                            {
                                "name": "to",
                                "type": "address",
                                "value": "0x34d0448a79f853d6e1f7ac117368c87bb7beea6b"
                            },
                            {
                                "decimalAvailable": true,
                                "name": "value",
                                "type": "uint256",
                                "value": "1,000,000,000,000,000,000"
                            }
                        ],
                        "signature": "Transfer(address,address,uint256)"
                    },
                    "id": 4,
                    "logData": "0x0000000000000000000000000000000000000000000000000de0b6b3a7640000",
                    "logDecoded": true,
                    "operation": "EVENT",
                    "revert": false,
                    "status": true,
                    "topics": [
                        "0xddf252ad1be2c89b69c2b068fc378daa952ba7f163c4a11628f55a4df523b3ef",
                        "0x00000000000000000000000085c5489f74fe5000ff0701535d9ec8ef49dfe704",
                        "0x00000000000000000000000034d0448a79f853d6e1f7ac117368c87bb7beea6b"
                    ]
                },
                "nodeType": 1
            },
            "5": {
                "invocation": {
                    "address": "0x7777770f8a6632ff043c8833310e245eba9209e6",
                    "callData": "0x00000000000000000000000085c5489f74fe5000ff0701535d9ec8ef49dfe70400000000000000000000000034d0448a79f853d6e1f7ac117368c87bb7beea6b000000000000000000000000000000000000000000000009360cc6f4fdbb7282",
                    "decodedMethod": {
                        "callParams": [
                            {
                                "name": "from",
                                "type": "address",
                                "value": "0x85c5489f74fe5000ff0701535d9ec8ef49dfe704"
                            },
                            {
                                "name": "to",
                                "type": "address",
                                "value": "0x34d0448a79f853d6e1f7ac117368c87bb7beea6b"
                            },
                            {
                                "decimalAvailable": true,
                                "name": "value",
                                "type": "uint256",
                                "value": "169,915,403,196,685,841,026"
                            }
                        ],
                        "constructorArguments": "",
                        "name": "transferFrom",
                        "returnParams": [
                            {
                                "name": "",
                                "type": "bool",
                                "value": true
                            }
                        ],
                        "signature": "transferFrom(address,address,uint256)"
                    },
                    "errorInfo": "",
                    "fromAddress": "0x7a250d5630b4cf539739df2c5dacb4c659f2488d",
                    "gasUsed": 21998,
                    "id": 5,
                    "methodDecoded": true,
                    "operation": "CALL",
                    "output": "0x0000000000000000000000000000000000000000000000000000000000000001",
                    "revert": false,
                    "revertMessage": "",
                    "selector": "0x23b872dd",
                    "status": true,
                    "value": "0"
                },
                "nodeType": 0
            },
            "6": {
                "event": {
                    "contract": "0x7777770f8a6632ff043c8833310e245eba9209e6",
                    "decodedLog": {
                        "name": "Transfer",
                        "params": [
                            {
                                "name": "from",
                                "type": "address",
                                "value": "0x85c5489f74fe5000ff0701535d9ec8ef49dfe704"
                            },
                            {
                                "name": "to",
                                "type": "address",
                                "value": "0x34d0448a79f853d6e1f7ac117368c87bb7beea6b"
                            },
                            {
                                "decimalAvailable": true,
                                "name": "value",
                                "type": "uint256",
                                "value": "169,915,403,196,685,841,026"
                            }
                        ],
                        "signature": "Transfer(address,address,uint256)"
                    },
                    "id": 6,
                    "logData": "0x000000000000000000000000000000000000000000000009360cc6f4fdbb7282",
                    "logDecoded": true,
                    "operation": "EVENT",
                    "revert": false,
                    "status": true,
                    "topics": [
                        "0xddf252ad1be2c89b69c2b068fc378daa952ba7f163c4a11628f55a4df523b3ef",
                        "0x00000000000000000000000085c5489f74fe5000ff0701535d9ec8ef49dfe704",
                        "0x00000000000000000000000034d0448a79f853d6e1f7ac117368c87bb7beea6b"
                    ]
                },
                "nodeType": 1
            },
            "7": {
                "invocation": {
                    "address": "0x34d0448a79f853d6e1f7ac117368c87bb7beea6b",
                    "callData": "0x00000000000000000000000085c5489f74fe5000ff0701535d9ec8ef49dfe704",
                    "decodedMethod": {
                        "callParams": [
                            {
                                "name": "to",
                                "type": "address",
                                "value": "0x85c5489f74fe5000ff0701535d9ec8ef49dfe704"
                            }
                        ],
                        "constructorArguments": "",
                        "name": "mint",
                        "returnParams": [
                            {
                                "name": "liquidity",
                                "type": "uint256",
                                "value": "13,022,285,851,203,281,193"
                            }
                        ],
                        "signature": "mint(address)"
                    },
                    "errorInfo": "",
                    "fromAddress": "0x7a250d5630b4cf539739df2c5dacb4c659f2488d",
                    "gasUsed": 72934,
                    "id": 7,
                    "methodDecoded": true,
                    "operation": "CALL",
                    "output": "0x000000000000000000000000000000000000000000000000b4b873fc94912129",
                    "revert": false,
                    "revertMessage": "",
                    "selector": "0x6a627842",
                    "status": true,
                    "value": "0"
                },
                "nodeType": 0
            },
            "8": {
                "invocation": {
                    "address": "0x4086692d53262b2be0b13909d804f0491ff6ec3e",
                    "callData": "0x00000000000000000000000034d0448a79f853d6e1f7ac117368c87bb7beea6b",
                    "decodedMethod": {
                        "callParams": [
                            {
                                "name": "account",
                                "type": "address",
                                "value": "0x34d0448a79f853d6e1f7ac117368c87bb7beea6b"
                            }
                        ],
                        "constructorArguments": "",
                        "name": "balanceOf",
                        "returnParams": [
                            {
                                "decimalAvailable": true,
                                "name": "balance",
                                "type": "uint256",
                                "value": "77,407,184,909,735,893,020"
                            }
                        ],
                        "signature": "balanceOf(address)"
                    },
                    "errorInfo": "",
                    "fromAddress": "0x34d0448a79f853d6e1f7ac117368c87bb7beea6b",
                    "gasUsed": 1286,
                    "id": 8,
                    "methodDecoded": true,
                    "operation": "STATICCALL",
                    "output": "0x000000000000000000000000000000000000000000000004323d908df7c9181c",
                    "revert": false,
                    "revertMessage": "",
                    "selector": "0x70a08231",
                    "status": true,
                    "value": "0"
                },
                "nodeType": 0
            },
            "9": {
                "invocation": {
                    "address": "0x7777770f8a6632ff043c8833310e245eba9209e6",
                    "callData": "0x00000000000000000000000034d0448a79f853d6e1f7ac117368c87bb7beea6b",
                    "decodedMethod": {
                        "callParams": [
                            {
                                "name": "who",
                                "type": "address",
                                "value": "0x34d0448a79f853d6e1f7ac117368c87bb7beea6b"
                            }
                        ],
                        "constructorArguments": "",
                        "name": "balanceOf",
                        "returnParams": [
                            {
                                "decimalAvailable": true,
                                "name": "",
                                "type": "uint256",
                                "value": "13,152,673,034,258,190,151,523"
                            }
                        ],
                        "signature": "balanceOf(address)"
                    },
                    "errorInfo": "",
                    "fromAddress": "0x34d0448a79f853d6e1f7ac117368c87bb7beea6b",
                    "gasUsed": 2323,
                    "id": 9,
                    "methodDecoded": true,
                    "operation": "STATICCALL",
                    "output": "0x0000000000000000000000000000000000000000000002c9020166cf3a97af63",
                    "revert": false,
                    "revertMessage": "",
                    "selector": "0x70a08231",
                    "status": true,
                    "value": "0"
                },
                "nodeType": 0
            }
        },
        "gasFlame": [
            {
                "children": [
                    {
                        "children": [
                            {
                                "children": [],
                                "depth": 0,
                                "name": "Initial Gas",
                                "value": 23192
                            },
                            {
                                "children": [
                                    {
                                        "children": [],
                                        "depth": 1,
                                        "name": "getPair",
                                        "value": 1264
                                    },
                                    {
                                        "children": [],
                                        "depth": 1,
                                        "name": "getReserves",
                                        "value": 1204
                                    },
                                    {
                                        "children": [],
                                        "depth": 1,
                                        "name": "transferFrom",
                                        "value": 21029
                                    },
                                    {
                                        "children": [],
                                        "depth": 1,
                                        "name": "transferFrom",
                                        "value": 21998
                                    },
                                    {
                                        "children": [
                                            {
                                                "children": [],
                                                "depth": 2,
                                                "name": "balanceOf",
                                                "value": 1286
                                            },
                                            {
                                                "children": [],
                                                "depth": 2,
                                                "name": "balanceOf",
                                                "value": 2323
                                            },
                                            {
                                                "children": [],
                                                "depth": 2,
                                                "name": "feeTo",
                                                "value": 1014
                                            }
                                        ],
                                        "depth": 1,
                                        "name": "mint",
                                        "value": 72934
                                    }
                                ],
                                "depth": 0,
                                "name": "Executed Gas",
                                "value": 129272
                            }
                        ],
                        "depth": -1,
                        "name": "Actual Gas Used",
                        "value": 148264
                    },
                    {
                        "children": [],
                        "depth": -1,
                        "name": "Refunded Gas",
                        "value": 4200
                    }
                ],
                "depth": -2,
                "name": "Total Gas",
                "value": 152464
            }
        ],
        "isConfirmed": true,
        "mainTrace": [
            {
                "children": [
                    {
                        "children": [
                            {
                                "children": [],
                                "depth": 1,
                                "id": 1,
                                "order": 1
                            },
                            {
                                "children": [],
                                "depth": 1,
                                "id": 2,
                                "order": 2
                            },
                            {
                                "children": [
                                    {
                                        "children": [],
                                        "depth": 2,
                                        "id": 4,
                                        "order": 4
                                    }
                                ],
                                "depth": 1,
                                "id": 3,
                                "order": 3
                            },
                            {
                                "children": [
                                    {
                                        "children": [],
                                        "depth": 2,
                                        "id": 6,
                                        "order": 6
                                    }
                                ],
                                "depth": 1,
                                "id": 5,
                                "order": 5
                            },
                            {
                                "children": [
                                    {
                                        "children": [],
                                        "depth": 2,
                                        "id": 8,
                                        "order": 8
                                    },
                                    {
                                        "children": [],
                                        "depth": 2,
                                        "id": 9,
                                        "order": 9
                                    },
                                    {
                                        "children": [],
                                        "depth": 2,
                                        "id": 10,
                                        "order": 10
                                    },
                                    {
                                        "children": [],
                                        "depth": 2,
                                        "id": 11,
                                        "order": 11
                                    },
                                    {
                                        "children": [],
                                        "depth": 2,
                                        "id": 12,
                                        "order": 12
                                    },
                                    {
                                        "children": [],
                                        "depth": 2,
                                        "id": 13,
                                        "order": 13
                                    }
                                ],
                                "depth": 1,
                                "id": 7,
                                "order": 7
                            }
                        ],
                        "depth": 0,
                        "id": 0,
                        "order": 0
                    }
                ],
                "depth": -1,
                "id": -1,
                "order": -1
            }
        ],
        "mainTraceNodeCount": 14,
        "parentIdMap": {
            "0": -1,
            "1": 0,
            "10": 7,
            "11": 7,
            "12": 7,
            "13": 7,
            "2": 0,
            "3": 0,
            "4": 3,
            "5": 0,
            "6": 5,
            "7": 0,
            "8": 7,
            "9": 7
        },
        "tidyTrace": [
            {
                "children": [
                    {
                        "children": [
                            {
                                "children": [
                                    {
                                        "children": [],
                                        "depth": 2,
                                        "id": 4,
                                        "order": 4
                                    }
                                ],
                                "depth": 1,
                                "id": 3,
                                "order": 3
                            },
                            {
                                "children": [
                                    {
                                        "children": [],
                                        "depth": 2,
                                        "id": 6,
                                        "order": 6
                                    }
                                ],
                                "depth": 1,
                                "id": 5,
                                "order": 5
                            },
                            {
                                "children": [
                                    {
                                        "children": [],
                                        "depth": 2,
                                        "id": 11,
                                        "order": 11
                                    },
                                    {
                                        "children": [],
                                        "depth": 2,
                                        "id": 12,
                                        "order": 12
                                    },
                                    {
                                        "children": [],
                                        "depth": 2,
                                        "id": 13,
                                        "order": 13
                                    }
                                ],
                                "depth": 1,
                                "id": 7,
                                "order": 7
                            }
                        ],
                        "depth": 0,
                        "id": 0,
                        "order": 0
                    }
                ],
                "depth": -1,
                "id": -1,
                "order": -1
            }
        ],
        "tidyTraceNodeCount": 9
    },
    "state_change": {
        "stateChanges": [
            {
                "address": "0x34d0448a79f853d6e1f7ac117368c87bb7beea6b",
                "erc": "ERC-20",
                "slots": [
                    {
                        "current": "0x00000000000000000000000000000000004febd0d29d0df32183594db03fd5f8",
                        "key": "0x000000000000000000000000000000000000000000000000000000000000000a",
                        "prev": "0x00000000000000000000000000000000004a53023300e5ecd884f3a01fd8bbe1"
                    },
                    {
                        "current": "0x5f580ba50000000002c9020166cf3a97af63000000000004323d908df7c9181c",
                        "key": "0x0000000000000000000000000000000000000000000000000000000000000008",
                        "prev": "0x5f5807ee0000000002bfcbf49fda3cdc3ce1000000000004245cd9da5065181c"
                    },
                    {
                        "current": "0x000000000000000000000000000000000000000000000036a51112e1a5662eff",
                        "key": "0x0000000000000000000000000000000000000000000000000000000000000000",
                        "prev": "0x000000000000000000000000000000000000000000000035f0589ee510d50dd6"
                    },
                    {
                        "current": "0x000000000000000000000000000000000000000000000000b4b873fc94912129",
                        "key": "0x14dc17ca8035bc5a76d4642615c3d7db3f0436835c2d55287753547959b41465",
                        "prev": "0x0000000000000000000000000000000000000000000000000000000000000000"
                    },
                    {
                        "current": "0x00000000000000000000000000000021892d35fac20f991dc17e752a8ff7857e",
                        "key": "0x0000000000000000000000000000000000000000000000000000000000000009",
                        "prev": "0x0000000000000000000000000000001f11f7a99430e89ce7cfd5962161531e25"
                    }
                ],
                "storageVariables": [
                    {
                        "name": "totalSupply",
                        "type": "uint256",
                        "value": {
                            "current": "1008018488831529856767",
                            "prev": "994996202980326575574",
                            "typeTag": 1
                        }
                    },
                    {
                        "name": "balanceOf",
                        "type": "mapping(address => uint256)",
                        "value": {
                            "pairs": [
                                {
                                    "key": "0x85c5489f74fe5000ff0701535d9ec8ef49dfe704",
                                    "value": {
                                        "current": "13022285851203281193",
                                        "prev": "0",
                                        "typeTag": 1
                                    }
                                }
                            ],
                            "typeTag": 4
                        }
                    },
                    {
                        "name": "price0CumulativeLast",
                        "type": "uint256",
                        "value": {
                            "current": "11411657092006945407090689682717451715966",
                            "prev": "10572636187269621601098568601097752223269",
                            "typeTag": 1
                        }
                    },
                    {
                        "name": "price1CumulativeLast",
                        "type": "uint256",
                        "value": {
                            "current": "414974362720631784085676716049028600",
                            "prev": "385913581769826653531759464651733985",
                            "typeTag": 1
                        }
                    },
                    {
                        "name": "reserve0",
                        "type": "uint112",
                        "value": {
                            "current": "77407184909735893020",
                            "prev": "76407184909735893020",
                            "typeTag": 1
                        }
                    },
                    {
                        "name": "reserve1",
                        "type": "uint112",
                        "value": {
                            "current": "13152673034258190151523",
                            "prev": "12982757631061504310497",
                            "typeTag": 1
                        }
                    },
                    {
                        "name": "blockTimestampLast",
                        "type": "uint32",
                        "value": {
                            "current": "1599605669",
                            "prev": "1599604718",
                            "typeTag": 1
                        }
                    }
                ]
            },
            {
                "address": "0x4086692d53262b2be0b13909d804f0491ff6ec3e",
                "erc": "ERC-20",
                "slots": [
                    {
                        "current": "0x0000000000000000000000000000000000000000000000002e29471045727600",
                        "key": "0xd3546487d2b6f5e1ca3bb1ccbc5f6d66631d95366f3b10f6b1d4cdab3edd08e8",
                        "prev": "0x0000000000000000000000000000000000000000000000003c09fdc3ecd67600"
                    },
                    {
                        "current": "0xfffffffffffffffffffffffffffffffffffffffffffffffff21f494c589bffff",
                        "key": "0x6cdf3fdac2cefc3a0bef32dd65c1bef4abc4188c458639026d3f22d1241aac68",
                        "prev": "0xffffffffffffffffffffffffffffffffffffffffffffffffffffffffffffffff"
                    },
                    {
                        "current": "0x000000000000000000000000000000000000000000000004323d908df7c9181c",
                        "key": "0xe12cc7baf2ff2c452dc7a53586d79bffeae7003e159768fe2e8dd1a475fedbcb",
                        "prev": "0x000000000000000000000000000000000000000000000004245cd9da5065181c"
                    }
                ],
                "storageVariables": [
                    {
                        "name": "allowance",
                        "type": "mapping(address => mapping(address => uint256))",
                        "value": {
                            "pairs": [
                                {
                                    "key": "0x85c5489f74fe5000ff0701535d9ec8ef49dfe704",
                                    "value": {
                                        "pairs": [
                                            {
                                                "key": "0x7a250d5630b4cf539739df2c5dacb4c659f2488d",
                                                "value": {
                                                    "current": "115792089237316195423570985008687907853269984665640564039456584007913129639935",
                                                    "prev": "115792089237316195423570985008687907853269984665640564039457584007913129639935",
                                                    "typeTag": 1
                                                }
                                            }
                                        ],
                                        "typeTag": 4
                                    }
                                }
                            ],
                            "typeTag": 4
                        }
                    },
                    {
                        "name": "balances",
                        "type": "mapping(address => uint256)",
                        "value": {
                            "pairs": [
                                {
                                    "key": "0x34d0448a79f853d6e1f7ac117368c87bb7beea6b",
                                    "value": {
                                        "current": "77407184909735893020",
                                        "prev": "76407184909735893020",
                                        "typeTag": 1
                                    }
                                },
                                {
                                    "key": "0x85c5489f74fe5000ff0701535d9ec8ef49dfe704",
                                    "value": {
                                        "current": "3326267935000000000",
                                        "prev": "4326267935000000000",
                                        "typeTag": 1
                                    }
                                }
                            ],
                            "typeTag": 4
                        }
                    }
                ]
            },
            {
                "address": "0x7777770f8a6632ff043c8833310e245eba9209e6",
                "erc": "ERC-20",
                "slots": [
                    {
                        "current": "0xffffffffffffffffffffffffffffffffffffffffffffffe4b2e74e744dffd746",
                        "key": "0x4d35119dde37eba6a125b52fba8e47710b0c85d38a139a0c1ef8669b1400ce87",
                        "prev": "0xffffffffffffffffffffffffffffffffffffffffffffffede8f415694bbb49c8"
                    },
                    {
                        "current": "0x0003883baa3e2281cd3f099746413718769838cbd6ece5a95463f4b87dee445a",
                        "key": "0x89ef7949641aedc0baa87c28c83f9b3adfd5d30a15af0627ce473aaff7d6329a",
                        "prev": "0x000748cb48204623395f5fb7d78dce54411af4214a72de4ad8f8ecde81fc5c56"
                    },
                    {
                        "current": "0x01227252baf74b7231164993cb0fa859ac92d3bb3c9fe78d8c365931e9aeacba",
                        "key": "0x4fb6e6f1a007232c41035d4b22512bc34aa8ebcdcc4db6e3c1109df8f165ec7c",
                        "prev": "0x011eb1c31d1527d0c4f5f37339c3111de2101865c919eeec07a1610be5a094be"
                    }
                ],
                "storageVariables": [
                    {
                        "name": "_allowedFragments",
                        "type": "mapping(address => mapping(address => uint256))",
                        "value": {
                            "pairs": [
                                {
                                    "key": "0x85c5489f74fe5000ff0701535d9ec8ef49dfe704",
                                    "value": {
                                        "pairs": [
                                            {
                                                "key": "0x7a250d5630b4cf539739df2c5dacb4c659f2488d",
                                                "value": {
                                                    "current": "115792089237316195423570985008687907853269984665640564038953966532569065314118",
                                                    "prev": "115792089237316195423570985008687907853269984665640564039123881935765751155144",
                                                    "typeTag": 1
                                                }
                                            }
                                        ],
                                        "typeTag": 4
                                    }
                                }
                            ],
                            "typeTag": 4
                        }
                    },
                    {
                        "name": "_gonBalances",
                        "type": "mapping(address => uint256)",
                        "value": {
                            "pairs": [
                                {
                                    "key": "0x34d0448a79f853d6e1f7ac117368c87bb7beea6b",
                                    "value": {
                                        "current": "513174678274709680116136671297239199447226954971548054560801223536339233978",
                                        "prev": "506545129882359280790404243700563470406566137883869090718726011978109719742",
                                        "typeTag": 1
                                    }
                                },
                                {
                                    "key": "0x85c5489f74fe5000ff0701535d9ec8ef49dfe704",
                                    "value": {
                                        "current": "6240787263002386517041171123920497306357192684394724011866356540781773914",
                                        "prev": "12870335655352785842773598720596226347018009772073687853941568099011288150",
                                        "typeTag": 1
                                    }
                                }
                            ],
                            "typeTag": 4
                        }
                    }
                ]
            }
        ]
    }
}