{
    "balance_change": {
        "balanceChanges": []
    },
    "profile": {
        "basic_info": {
            "baseFee": "70.391522028",
            "blockNumber": 13282505,
            "callData": "0xab834bab0000000000000000000000007be8076f4ea4a4ad08075c2508e481d6c946d12b0000000000000000000000005e070c24af683ef391e93bc161ffb6d2326843b5000000000000000000000000afc62f09d2eaefaa7e4012feadba3073f23cd4a70000000000000000000000000000000000000000000000000000000000000000000000000000000000000000495f947276749ce646f68ac8c248420045cb7b5e000000000000000000000000000000000000000000000000000000000000000000000000000000000000000000000000000000000000000000000000000000000000000000000000000000007be8076f4ea4a4ad08075c2508e481d6c946d12b000000000000000000000000afc62f09d2eaefaa7e4012feadba3073f23cd4a700000000000000000000000000000000000000000000000000000000000000000000000000000000000000005b3256965e7c3cf26e11fcaf296dfc8807c01073000000000000000000000000495f947276749ce646f68ac8c248420045cb7b5e0000000000000000000000000000000000000000000000000000000000000000000000000000000000000000000000000000000000000000000000000000000000000000000000000000000000000000000000000000000000000000000004e2000000000000000000000000000000000000000000000000000000000000000000000000000000000000000000000000000000000000000000000000000000000000000000000000000000000000000000000000000000000000000000000000000000000000000000000000000000000000000000000000008e1bc9bf040000000000000000000000000000000000000000000000000000000000000000000000000000000000000000000000000000000000000000000000000000614c8cd6000000000000000000000000000000000000000000000000000000000000000040700b956f06a28abc11c63c05638b23834f608a0d29746f9278bf6c234722b100000000000000000000000000000000000000000000000000000000000004e2000000000000000000000000000000000000000000000000000000000000000000000000000000000000000000000000000000000000000000000000000000000000000000000000000000000000000000000000000000000000000000000000000000000000000000000000000000000000000000000000008e1bc9bf040000000000000000000000000000000000000000000000000000000000000000000000000000000000000000000000000000000000000000000000000000614c8c900000000000000000000000000000000000000000000000000000000000000000256fac06e1f578b313c0311d8e92b0b80f5ae79d47c0dd3a6fa88dce032d2b130000000000000000000000000000000000000000000000000000000000000001000000000000000000000000000000000000000000000000000000000000000000000000000000000000000000000000000000000000000000000000000000000000000000000000000000000000000000000000000000000000000000000000000000000000000000000000000000000000000000000000000000000000000100000000000000000000000000000000000000000000000000000000000000010000000000000000000000000000000000000000000000000000000000000000000000000000000000000000000000000000000000000000000000000000000000000000000000000000000000000000000000000000000000000000000006a000000000000000000000000000000000000000000000000000000000000007a000000000000000000000000000000000000000000000000000000000000008a000000000000000000000000000000000000000000000000000000000000009a00000000000000000000000000000000000000000000000000000000000000aa00000000000000000000000000000000000000000000000000000000000000ac0000000000000000000000000000000000000000000000000000000000000001c000000000000000000000000000000000000000000000000000000000000001cb7b2635daf67afe623df92a69d4f326c449a57468461e1eb1b81e5c2f17854d950f2dc14ad295f6b32d207f868cbf213f8331e97ad1d841fdc93e9b2d67bd4fbb7b2635daf67afe623df92a69d4f326c449a57468461e1eb1b81e5c2f17854d950f2dc14ad295f6b32d207f868cbf213f8331e97ad1d841fdc93e9b2d67bd4fb000000000000000000000000000000000000000000000000000000000000000000000000000000000000000000000000000000000000000000000000000000c4f242432a00000000000000000000000000000000000000000000000000000000000000000000000000000000000000005e070c24af683ef391e93bc161ffb6d2326843b5dfbaab5cd448ac5c6166d6072cc9f3c9bb473daf000000000000220000000001000000000000000000000000000000000000000000000000000000000000000100000000000000000000000000000000000000000000000000000000000000a000000000000000000000000000000000000000000000000000000000000000000000000000000000000000000000000000000000000000000000000000000000000000000000000000000000000000000000000000000000000000c4f242432a000000000000000000000000afc62f09d2eaefaa7e4012feadba3073f23cd4a70000000000000000000000000000000000000000000000000000000000000000dfbaab5cd448ac5c6166d6072cc9f3c9bb473daf000000000000220000000001000000000000000000000000000000000000000000000000000000000000000100000000000000000000000000000000000000000000000000000000000000a000000000000000000000000000000000000000000000000000000000000000000000000000000000000000000000000000000000000000000000000000000000000000000000000000000000000000000000000000000000000000c400000000ffffffffffffffffffffffffffffffffffffffffffffffffffffffffffffffff000000000000000000000000000000000000000000000000000000000000000000000000000000000000000000000000000000000000000000000000000000000000000000000000000000000000000000000000000000000000000000000000000000000000000000000000000000000000000000000000000000000000000000000000000000000000000000000000000000000000000000000000000000000000000000000000000000000000000000000000000000000000000000000000000000000000000000000000000000000000000000000000000000c4000000000000000000000000000000000000000000000000000000000000000000000000ffffffffffffffffffffffffffffffffffffffffffffffffffffffffffffffff00000000000000000000000000000000000000000000000000000000000000000000000000000000000000000000000000000000000000000000000000000000000000000000000000000000000000000000000000000000000000000000000000000000000000000000000000000000000000000000000000000000000000000000000000000000000000000000000000000000000000000000000000000000000000000000000000000000000000000000000000000000000000000000000000000000000000000000000000000000000000000000000000000000",
            "debugEnable": true,
            "errorInfo": "execution reverted",
            "eventCount": 0,
            "feeRecipient": "0x5a0b54d5dc17e0aadc383d2db43b0a0d3e029c4c",
            "formatValue": "0.04",
            "gasLimit": 258274,
            "gasPrice": "71.891522028",
            "gasUsed": 69075,
            "intTxnCount": 0,
            "internalRevert": false,
            "internalRevertMessage": "",
            "isContractCreation": false,
            "isFlashloan": false,
            "maxFee": "84.143645719",
            "nonce": 2404,
            "overwritedBlockNumber": -1,
            "priorityFee": "1.5",
            "receiver": "0x7be8076f4ea4a4ad08075c2508e481d6c946d12b",
            "revertMessage": "",
            "sender": "0x5e070c24af683ef391e93bc161ffb6d2326843b5",
            "simulationEnable": true,
            "sourceTxnHash": "0x2b25955d2bc4b92c98da6c5a4ea7dce92478bed40d8216709cab0257422f0150",
            "status": false,
            "timestamp": "2021-09-23T14:21:11Z",
            "transactionFee": "0.0049659068840841",
            "txnHash": "0x2b25955d2bc4b92c98da6c5a4ea7dce92478bed40d8216709cab0257422f0150",
            "txnIndex": 48,
            "type": 2,
            "value": "40000000000000000"
        },
        "fund_flow": [],
        "token_infos": [
            {
                "address": "0xc02aaa39b223fe8d0a0e5c4f27ead9083c756cc2",
                "decimals": 18
            },
            {
                "address": "0xeeeeeeeeeeeeeeeeeeeeeeeeeeeeeeeeeeeeeeee",
                "decimals": 18
            }
        ]
    },
    "address_label": {
        "labels": [
            {
                "address": "0x0000000000000000000000000000000000000002",
                "label": "Precompiled"
            },
            {
                "address": "0x0000000000000000000000000000000000000003",
                "label": "Precompiled"
            },
            {
                "address": "0xeeeeeeeeeeeeeeeeeeeeeeeeeeeeeeeeeeeeeeee",
                "label": "Ether"
            },
            {
                "address": "0x7be8076f4ea4a4ad08075c2508e481d6c946d12b",
                "label": "OpenSea: Wyvern Exchange v1"
            },
            {
                "address": "0x0000000000000000000000000000000000000001",
                "label": "Precompiled"
            },
            {
                "address": "0x0000000000000000000000000000000000000004",
                "label": "Precompiled"
            },
            {
                "address": "0x495f947276749ce646f68ac8c248420045cb7b5e",
                "label": "OpenSea: OPENSTORE Token"
            },
            {
                "address": "0x5b3256965e7c3cf26e11fcaf296dfc8807c01073",
                "label": "OpenSea: Wallet"
            },
            {
                "address": "0x0000000000000000000000000000000000000000",
                "label": "Null Address"
            }
        ]
    },
    "trace": {
        "accountLabels": null,
        "dataMap": {
            "-1": {
                "invocation": {
                    "address": "0x5e070c24af683ef391e93bc161ffb6d2326843b5",
                    "callData": "",
                    "decodedMethod": null,
                    "errorInfo": "",
                    "fromAddress": "",
                    "gasUsed": 0,
                    "id": -1,
                    "methodDecoded": false,
                    "operation": "",
                    "output": "",
                    "revert": false,
                    "revertMessage": "",
                    "selector": "",
                    "status": false,
                    "value": ""
                },
                "nodeType": 0
            },
            "0": {
                "invocation": {
                    "address": "0x7be8076f4ea4a4ad08075c2508e481d6c946d12b",
                    "callData": "0x0000000000000000000000007be8076f4ea4a4ad08075c2508e481d6c946d12b0000000000000000000000005e070c24af683ef391e93bc161ffb6d2326843b5000000000000000000000000afc62f09d2eaefaa7e4012feadba3073f23cd4a70000000000000000000000000000000000000000000000000000000000000000000000000000000000000000495f947276749ce646f68ac8c248420045cb7b5e000000000000000000000000000000000000000000000000000000000000000000000000000000000000000000000000000000000000000000000000000000000000000000000000000000007be8076f4ea4a4ad08075c2508e481d6c946d12b000000000000000000000000afc62f09d2eaefaa7e4012feadba3073f23cd4a700000000000000000000000000000000000000000000000000000000000000000000000000000000000000005b3256965e7c3cf26e11fcaf296dfc8807c01073000000000000000000000000495f947276749ce646f68ac8c248420045cb7b5e0000000000000000000000000000000000000000000000000000000000000000000000000000000000000000000000000000000000000000000000000000000000000000000000000000000000000000000000000000000000000000000004e2000000000000000000000000000000000000000000000000000000000000000000000000000000000000000000000000000000000000000000000000000000000000000000000000000000000000000000000000000000000000000000000000000000000000000000000000000000000000000000000000008e1bc9bf040000000000000000000000000000000000000000000000000000000000000000000000000000000000000000000000000000000000000000000000000000614c8cd6000000000000000000000000000000000000000000000000000000000000000040700b956f06a28abc11c63c05638b23834f608a0d29746f9278bf6c234722b100000000000000000000000000000000000000000000000000000000000004e2000000000000000000000000000000000000000000000000000000000000000000000000000000000000000000000000000000000000000000000000000000000000000000000000000000000000000000000000000000000000000000000000000000000000000000000000000000000000000000000000008e1bc9bf040000000000000000000000000000000000000000000000000000000000000000000000000000000000000000000000000000000000000000000000000000614c8c900000000000000000000000000000000000000000000000000000000000000000256fac06e1f578b313c0311d8e92b0b80f5ae79d47c0dd3a6fa88dce032d2b130000000000000000000000000000000000000000000000000000000000000001000000000000000000000000000000000000000000000000000000000000000000000000000000000000000000000000000000000000000000000000000000000000000000000000000000000000000000000000000000000000000000000000000000000000000000000000000000000000000000000000000000000000000100000000000000000000000000000000000000000000000000000000000000010000000000000000000000000000000000000000000000000000000000000000000000000000000000000000000000000000000000000000000000000000000000000000000000000000000000000000000000000000000000000000000006a000000000000000000000000000000000000000000000000000000000000007a000000000000000000000000000000000000000000000000000000000000008a000000000000000000000000000000000000000000000000000000000000009a00000000000000000000000000000000000000000000000000000000000000aa00000000000000000000000000000000000000000000000000000000000000ac0000000000000000000000000000000000000000000000000000000000000001c000000000000000000000000000000000000000000000000000000000000001cb7b2635daf67afe623df92a69d4f326c449a57468461e1eb1b81e5c2f17854d950f2dc14ad295f6b32d207f868cbf213f8331e97ad1d841fdc93e9b2d67bd4fbb7b2635daf67afe623df92a69d4f326c449a57468461e1eb1b81e5c2f17854d950f2dc14ad295f6b32d207f868cbf213f8331e97ad1d841fdc93e9b2d67bd4fb000000000000000000000000000000000000000000000000000000000000000000000000000000000000000000000000000000000000000000000000000000c4f242432a00000000000000000000000000000000000000000000000000000000000000000000000000000000000000005e070c24af683ef391e93bc161ffb6d2326843b5dfbaab5cd448ac5c6166d6072cc9f3c9bb473daf000000000000220000000001000000000000000000000000000000000000000000000000000000000000000100000000000000000000000000000000000000000000000000000000000000a000000000000000000000000000000000000000000000000000000000000000000000000000000000000000000000000000000000000000000000000000000000000000000000000000000000000000000000000000000000000000c4f242432a000000000000000000000000afc62f09d2eaefaa7e4012feadba3073f23cd4a70000000000000000000000000000000000000000000000000000000000000000dfbaab5cd448ac5c6166d6072cc9f3c9bb473daf000000000000220000000001000000000000000000000000000000000000000000000000000000000000000100000000000000000000000000000000000000000000000000000000000000a000000000000000000000000000000000000000000000000000000000000000000000000000000000000000000000000000000000000000000000000000000000000000000000000000000000000000000000000000000000000000c400000000ffffffffffffffffffffffffffffffffffffffffffffffffffffffffffffffff000000000000000000000000000000000000000000000000000000000000000000000000000000000000000000000000000000000000000000000000000000000000000000000000000000000000000000000000000000000000000000000000000000000000000000000000000000000000000000000000000000000000000000000000000000000000000000000000000000000000000000000000000000000000000000000000000000000000000000000000000000000000000000000000000000000000000000000000000000000000000000000000000000c4000000000000000000000000000000000000000000000000000000000000000000000000ffffffffffffffffffffffffffffffffffffffffffffffffffffffffffffffff00000000000000000000000000000000000000000000000000000000000000000000000000000000000000000000000000000000000000000000000000000000000000000000000000000000000000000000000000000000000000000000000000000000000000000000000000000000000000000000000000000000000000000000000000000000000000000000000000000000000000000000000000000000000000000000000000000000000000000000000000000000000000000000000000000000000000000000000000000000000000000000000000000000",
                    "decodedMethod": {
                        "callParams": [
                            {
                                "name": "addrs",
                                "type": "address[14]",
                                "value": [
                                    "0x7be8076f4ea4a4ad08075c2508e481d6c946d12b",
                                    "0x5e070c24af683ef391e93bc161ffb6d2326843b5",
                                    "0xafc62f09d2eaefaa7e4012feadba3073f23cd4a7",
                                    "0x0000000000000000000000000000000000000000",
                                    "0x495f947276749ce646f68ac8c248420045cb7b5e",
                                    "0x0000000000000000000000000000000000000000",
                                    "0x0000000000000000000000000000000000000000",
                                    "0x7be8076f4ea4a4ad08075c2508e481d6c946d12b",
                                    "0xafc62f09d2eaefaa7e4012feadba3073f23cd4a7",
                                    "0x0000000000000000000000000000000000000000",
                                    "0x5b3256965e7c3cf26e11fcaf296dfc8807c01073",
                                    "0x495f947276749ce646f68ac8c248420045cb7b5e",
                                    "0x0000000000000000000000000000000000000000",
                                    "0x0000000000000000000000000000000000000000"
                                ]
                            },
                            {
                                "name": "uints",
                                "type": "uint256[18]",
                                "value": [
                                    "1,250",
                                    "0",
                                    "0",
                                    "0",
                                    "40,000,000,000,000,000",
                                    "0",
                                    "1,632,406,742",
                                    "0",
                                    "29,145,989,128,518,489,829,313,554,764,026,253,393,990,424,086,298,032,678,643,264,735,906,049,237,681",
                                    "1,250",
                                    "0",
                                    "0",
                                    "0",
                                    "40,000,000,000,000,000",
                                    "0",
                                    "1,632,406,672",
                                    "0",
                                    "16,932,882,707,698,831,746,484,117,052,979,915,194,319,545,346,727,762,098,448,173,169,290,142,100,243"
                                ]
                            },
                            {
                                "name": "feeMethodsSidesKindsHowToCalls",
                                "type": "uint8[8]",
                                "value": [
                                    "1",
                                    "0",
                                    "0",
                                    "0",
                                    "1",
                                    "1",
                                    "0",
                                    "0"
                                ]
                            },
                            {
                                "name": "calldataBuy",
                                "type": "bytes",
                                "value": "0xf242432a00000000000000000000000000000000000000000000000000000000000000000000000000000000000000005e070c24af683ef391e93bc161ffb6d2326843b5dfbaab5cd448ac5c6166d6072cc9f3c9bb473daf000000000000220000000001000000000000000000000000000000000000000000000000000000000000000100000000000000000000000000000000000000000000000000000000000000a00000000000000000000000000000000000000000000000000000000000000000"
                            },
                            {
                                "name": "calldataSell",
                                "type": "bytes",
                                "value": "0xf242432a000000000000000000000000afc62f09d2eaefaa7e4012feadba3073f23cd4a70000000000000000000000000000000000000000000000000000000000000000dfbaab5cd448ac5c6166d6072cc9f3c9bb473daf000000000000220000000001000000000000000000000000000000000000000000000000000000000000000100000000000000000000000000000000000000000000000000000000000000a00000000000000000000000000000000000000000000000000000000000000000"
                            },
                            {
                                "name": "replacementPatternBuy",
                                "type": "bytes",
                                "value": "0x00000000ffffffffffffffffffffffffffffffffffffffffffffffffffffffffffffffff00000000000000000000000000000000000000000000000000000000000000000000000000000000000000000000000000000000000000000000000000000000000000000000000000000000000000000000000000000000000000000000000000000000000000000000000000000000000000000000000000000000000000000000000000000000000000000000000000000000000000000000000000000000"
                            },
                            {
                                "name": "replacementPatternSell",
                                "type": "bytes",
                                "value": "0x000000000000000000000000000000000000000000000000000000000000000000000000ffffffffffffffffffffffffffffffffffffffffffffffffffffffffffffffff0000000000000000000000000000000000000000000000000000000000000000000000000000000000000000000000000000000000000000000000000000000000000000000000000000000000000000000000000000000000000000000000000000000000000000000000000000000000000000000000000000000000000000"
                            },
                            {
                                "name": "staticExtradataBuy",
                                "type": "bytes",
                                "value": "0x"
                            },
                            {
                                "name": "staticExtradataSell",
                                "type": "bytes",
                                "value": "0x"
                            },
                            {
                                "name": "vs",
                                "type": "uint8[2]",
                                "value": [
                                    "28",
                                    "28"
                                ]
                            },
                            {
                                "name": "rssMetadata",
                                "type": "bytes32[5]",
                                "value": [
                                    "0xb7b2635daf67afe623df92a69d4f326c449a57468461e1eb1b81e5c2f17854d9",
                                    "0x50f2dc14ad295f6b32d207f868cbf213f8331e97ad1d841fdc93e9b2d67bd4fb",
                                    "0xb7b2635daf67afe623df92a69d4f326c449a57468461e1eb1b81e5c2f17854d9",
                                    "0x50f2dc14ad295f6b32d207f868cbf213f8331e97ad1d841fdc93e9b2d67bd4fb",
                                    "0x0000000000000000000000000000000000000000000000000000000000000000"
                                ]
                            }
                        ],
                        "constructorArguments": "",
                        "name": "atomicMatch_",
                        "returnParams": [],
                        "signature": "atomicMatch_(address[14],uint256[18],uint8[8],bytes,bytes,bytes,bytes,bytes,bytes,uint8[2],bytes32[5])"
                    },
                    "errorInfo": "execution reverted",
                    "fromAddress": "0x5e070c24af683ef391e93bc161ffb6d2326843b5",
                    "gasUsed": 69075,
                    "id": 0,
                    "methodDecoded": true,
                    "operation": "CALL",
                    "output": "",
                    "revert": true,
                    "revertMessage": "",
                    "selector": "0xab834bab",
                    "status": false,
                    "value": "0.04"
                },
                "nodeType": 0
            }
        },
        "gasFlame": [
            {
                "children": [
                    {
                        "children": [
                            {
                                "children": [],
                                "depth": 0,
                                "name": "Initial Gas",
                                "value": 38836
                            },
                            {
                                "children": [],
                                "depth": 0,
                                "name": "Executed Gas",
                                "value": 30239
                            }
                        ],
                        "depth": -1,
                        "name": "Actual Gas Used",
                        "value": 69075
                    },
                    {
                        "children": [],
                        "depth": -1,
                        "name": "Refunded Gas",
                        "value": 0
                    }
                ],
                "depth": -2,
                "name": "Total Gas",
                "value": 69075
            }
        ],
        "isConfirmed": true,
        "mainTrace": [
            {
                "children": [
                    {
                        "children": [],
                        "depth": 0,
                        "id": 0,
                        "order": 0
                    }
                ],
                "depth": -1,
                "id": -1,
                "order": -1
            }
        ],
        "mainTraceNodeCount": 1,
        "parentIdMap": {
            "0": -1
        },
        "tidyTrace": [
            {
                "children": [
                    {
                        "children": [],
                        "depth": 0,
                        "id": 0,
                        "order": 0
                    }
                ],
                "depth": -1,
                "id": -1,
                "order": -1
            }
        ],
        "tidyTraceNodeCount": 1
    },
    "state_change": {
        "stateChanges": []
    }
}