{
    "balance_change": {
        "balanceChanges": [
            {
                "account": "0x52a5ff2b96b7e95f6096ac42f1b20922d2f6b2f7",
                "assets": [
                    {
                        "address": "0xa7d8d9ef8d8ce8992df33d8b8cf4aebabd5bd270",
                        "amount": "1",
                        "iconUrl": "https://assets.blocksec.com/nft/icon/nft_7292d575-da8c-4a42-a0ab-da1e2c2f7507.png",
                        "isERC1155": false,
                        "isERC721": true,
                        "sign": true,
                        "tokenID": "27000181",
                        "value": ""
                    },
                    {
                        "address": "0xeeeeeeeeeeeeeeeeeeeeeeeeeeeeeeeeeeeeeeee",
                        "amount": "0.15",
                        "iconUrl": "https://assets.blocksec.com/image/1663669189317-3.png",
                        "isERC1155": false,
                        "isERC721": false,
                        "sign": false,
                        "value": "229.77749999999998637"
                    }
                ]
            },
            {
                "account": "0x0000000000000000000000000000000000000000",
                "assets": [
                    {
                        "address": "0xa7d8d9ef8d8ce8992df33d8b8cf4aebabd5bd270",
                        "amount": "1",
                        "iconUrl": "https://assets.blocksec.com/nft/icon/nft_7292d575-da8c-4a42-a0ab-da1e2c2f7507.png",
                        "isERC1155": false,
                        "isERC721": true,
                        "sign": false,
                        "tokenID": "27000181",
                        "value": ""
                    }
                ]
            },
            {
                "account": "0x2776621ff536af829919ab6cba8db434aeba43f9",
                "assets": [
                    {
                        "address": "0xeeeeeeeeeeeeeeeeeeeeeeeeeeeeeeeeeeeeeeee",
                        "amount": "0.135",
                        "iconUrl": "https://assets.blocksec.com/image/1663669189317-3.png",
                        "isERC1155": false,
                        "isERC721": false,
                        "sign": true,
                        "value": "206.79974999999998773"
                    }
                ]
            },
            {
                "account": "0x96dc73c8b5969608c77375f085949744b5177660",
                "assets": [
                    {
                        "address": "0xeeeeeeeeeeeeeeeeeeeeeeeeeeeeeeeeeeeeeeee",
                        "amount": "0.015",
                        "iconUrl": "https://assets.blocksec.com/image/1663669189317-3.png",
                        "isERC1155": false,
                        "isERC721": false,
                        "sign": true,
                        "value": "22.977749999999998636"
                    }
                ]
            }
        ]
    },
    "profile": {
        "basic_info": {
            "baseFee": "",
            "blockNumber": 11981183,
            "callData": "0xefef39a1000000000000000000000000000000000000000000000000000000000000001b",
            "debugEnable": true,
            "errorInfo": "",
            "eventCount": 2,
            "feeRecipient": "0xea674fdde714fd979de3edf0f56aa9716b898ec8",
            "formatValue": "0.15",
            "gasLimit": 487683,
            "gasPrice": "777",
            "gasUsed": 323303,
            "intTxnCount": 16,
            "internalRevert": false,
            "internalRevertMessage": "",
            "isContractCreation": false,
            "isFlashloan": false,
            "maxFee": "",
            "nonce": 520,
            "overwritedBlockNumber": -1,
            "priorityFee": "",
            "receiver": "0x1db80b860081af41bc0ceb3c877f8aca8379f869",
            "revertMessage": "",
            "sender": "0x52a5ff2b96b7e95f6096ac42f1b20922d2f6b2f7",
            "simulationEnable": true,
            "sourceTxnHash": "0x2b74223cfaabc984cbc3c61ae9d4043f77174360d6ee6f92b43bffa7ac2c2505",
            "status": true,
            "timestamp": "2021-03-05T23:01:09Z",
            "transactionFee": "0.251206431",
            "txnHash": "0x2b74223cfaabc984cbc3c61ae9d4043f77174360d6ee6f92b43bffa7ac2c2505",
            "txnIndex": 8,
            "type": 0,
            "value": "150000000000000000"
        },
        "fund_flow": [
            {
                "amount": "0.15",
                "from": "0x52a5ff2b96b7e95f6096ac42f1b20922d2f6b2f7",
                "id": 1,
                "isERC1155": false,
                "isERC721": false,
                "isReverted": false,
                "order": 1,
                "to": "0x1db80b860081af41bc0ceb3c877f8aca8379f869",
                "token": "0xeeeeeeeeeeeeeeeeeeeeeeeeeeeeeeeeeeeeeeee"
            },
            {
                "amount": "0.015",
                "from": "0x1db80b860081af41bc0ceb3c877f8aca8379f869",
                "id": 2,
                "isERC1155": false,
                "isERC721": false,
                "isReverted": false,
                "order": 2,
                "to": "0x96dc73c8b5969608c77375f085949744b5177660",
                "token": "0xeeeeeeeeeeeeeeeeeeeeeeeeeeeeeeeeeeeeeeee"
            },
            {
                "amount": "0.135",
                "from": "0x1db80b860081af41bc0ceb3c877f8aca8379f869",
                "id": 3,
                "isERC1155": false,
                "isERC721": false,
                "isReverted": false,
                "order": 3,
                "to": "0x2776621ff536af829919ab6cba8db434aeba43f9",
                "token": "0xeeeeeeeeeeeeeeeeeeeeeeeeeeeeeeeeeeeeeeee"
            },
            {
                "amount": "1",
                "from": "0x0000000000000000000000000000000000000000",
                "id": 4,
                "isERC1155": false,
                "isERC721": true,
                "isReverted": false,
                "order": 4,
                "to": "0x52a5ff2b96b7e95f6096ac42f1b20922d2f6b2f7",
                "token": "0xa7d8d9ef8d8ce8992df33d8b8cf4aebabd5bd270",
                "tokenID": "27000181"
            }
        ],
        "token_infos": [
            {
                "address": "0xc02aaa39b223fe8d0a0e5c4f27ead9083c756cc2",
                "decimals": 18
            },
            {
                "address": "0xeeeeeeeeeeeeeeeeeeeeeeeeeeeeeeeeeeeeeeee",
                "decimals": 18
            }
        ]
    },
    "address_label": {
        "labels": [
            {
                "address": "0x0000000000000000000000000000000000000001",
                "label": "Precompiled"
            },
            {
                "address": "0x0000000000000000000000000000000000000002",
                "label": "Precompiled"
            },
            {
                "address": "0x0000000000000000000000000000000000000003",
                "label": "Precompiled"
            },
            {
                "address": "0x0000000000000000000000000000000000000004",
                "label": "Precompiled"
            },
            {
                "address": "0xeeeeeeeeeeeeeeeeeeeeeeeeeeeeeeeeeeeeeeee",
                "label": "Ether"
            },
            {
                "address": "0x96dc73c8b5969608c77375f085949744b5177660",
                "label": "Art Blocks: Deployer 1"
            },
            {
                "address": "0xdac17f958d2ee523a2206206994597c13d831ec7",
                "label": "Tether: USDT Stablecoin"
            },
            {
                "address": "0xa7d8d9ef8d8ce8992df33d8b8cf4aebabd5bd270",
                "label": "Art Blocks: BLOCKS Token"
            }
        ]
    },
    "trace": {
        "accountLabels": null,
        "dataMap": {
            "-1": {
                "invocation": {
                    "address": "0x52a5ff2b96b7e95f6096ac42f1b20922d2f6b2f7",
                    "callData": "",
                    "decodedMethod": null,
                    "errorInfo": "",
                    "fromAddress": "",
                    "gasUsed": 0,
                    "id": -1,
                    "methodDecoded": false,
                    "operation": "",
                    "output": "",
                    "revert": false,
                    "revertMessage": "",
                    "selector": "",
                    "status": false,
                    "value": ""
                },
                "nodeType": 0
            },
            "0": {
                "invocation": {
                    "address": "0x1db80b860081af41bc0ceb3c877f8aca8379f869",
                    "callData": "0x000000000000000000000000000000000000000000000000000000000000001b",
                    "decodedMethod": {
                        "callParams": [
                            {
                                "name": "_tokenId",
                                "type": "uint256",
                                "value": "27"
                            }
                        ],
                        "constructorArguments": "",
                        "name": "purchase",
                        "returnParams": [],
                        "signature": "purchase(uint256)"
                    },
                    "errorInfo": "",
                    "fromAddress": "0x52a5ff2b96b7e95f6096ac42f1b20922d2f6b2f7",
                    "gasUsed": 323303,
                    "id": 0,
                    "methodDecoded": true,
                    "operation": "CALL",
                    "output": "0x00000000000000000000000000000000000000000000000000000000019bfd75",
                    "revert": false,
                    "revertMessage": "",
                    "selector": "0xefef39a1",
                    "status": true,
                    "value": "0.15"
                },
                "nodeType": 0
            },
            "1": {
                "invocation": {
                    "address": "0xa7d8d9ef8d8ce8992df33d8b8cf4aebabd5bd270",
                    "callData": "0x000000000000000000000000000000000000000000000000000000000000001b",
                    "decodedMethod": {
                        "callParams": [
                            {
                                "name": "",
                                "type": "uint256",
                                "value": "27"
                            }
                        ],
                        "constructorArguments": "",
                        "name": "projectIdToCurrencySymbol",
                        "returnParams": [
                            {
                                "name": "",
                                "type": "string",
                                "value": "ETH"
                            }
                        ],
                        "signature": "projectIdToCurrencySymbol(uint256)"
                    },
                    "errorInfo": "",
                    "fromAddress": "0x1db80b860081af41bc0ceb3c877f8aca8379f869",
                    "gasUsed": 2602,
                    "id": 1,
                    "methodDecoded": true,
                    "operation": "STATICCALL",
                    "output": "0x000000000000000000000000000000000000000000000000000000000000002000000000000000000000000000000000000000000000000000000000000000034554480000000000000000000000000000000000000000000000000000000000",
                    "revert": false,
                    "revertMessage": "",
                    "selector": "0x20927ec9",
                    "status": true,
                    "value": "0"
                },
                "nodeType": 0
            },
            "10": {
                "invocation": {
                    "address": "0x2776621ff536af829919ab6cba8db434aeba43f9",
                    "callData": "0x",
                    "decodedMethod": null,
                    "errorInfo": "",
                    "fromAddress": "0x1db80b860081af41bc0ceb3c877f8aca8379f869",
                    "gasUsed": 0,
                    "id": 10,
                    "methodDecoded": false,
                    "operation": "CALL",
                    "output": "",
                    "revert": false,
                    "revertMessage": "",
                    "selector": "fallback",
                    "status": true,
                    "value": "0.135"
                },
                "nodeType": 0
            },
            "11": {
                "invocation": {
                    "address": "0xa7d8d9ef8d8ce8992df33d8b8cf4aebabd5bd270",
                    "callData": "0x00000000000000000000000052a5ff2b96b7e95f6096ac42f1b20922d2f6b2f7000000000000000000000000000000000000000000000000000000000000001b00000000000000000000000052a5ff2b96b7e95f6096ac42f1b20922d2f6b2f7",
                    "decodedMethod": {
                        "callParams": [
                            {
                                "name": "_to",
                                "type": "address",
                                "value": "0x52a5ff2b96b7e95f6096ac42f1b20922d2f6b2f7"
                            },
                            {
                                "name": "_projectId",
                                "type": "uint256",
                                "value": "27"
                            },
                            {
                                "name": "_by",
                                "type": "address",
                                "value": "0x52a5ff2b96b7e95f6096ac42f1b20922d2f6b2f7"
                            }
                        ],
                        "constructorArguments": "",
                        "name": "mint",
                        "returnParams": [
                            {
                                "name": "_tokenId",
                                "type": "uint256",
                                "value": "27,000,181"
                            }
                        ],
                        "signature": "mint(address,uint256,address)"
                    },
                    "errorInfo": "",
                    "fromAddress": "0x1db80b860081af41bc0ceb3c877f8aca8379f869",
                    "gasUsed": 249483,
                    "id": 11,
                    "methodDecoded": true,
                    "operation": "CALL",
                    "output": "0x00000000000000000000000000000000000000000000000000000000019bfd75",
                    "revert": false,
                    "revertMessage": "",
                    "selector": "0x0d4d1513",
                    "status": true,
                    "value": "0"
                },
                "nodeType": 0
            },
            "12": {
                "invocation": {
                    "address": "0x03d37ad26961d79e52c3daea840c0095fb4729a7",
                    "callData": "0x",
                    "decodedMethod": {
                        "callParams": [],
                        "constructorArguments": "",
                        "name": "returnValue",
                        "returnParams": [
                            {
                                "name": "",
                                "type": "uint256",
                                "value": "29,040,088,993,027,971,027,834,681,479,214,279,297,521,714,513,561,813,988,089,727,902,892,146,368,781"
                            }
                        ],
                        "signature": "returnValue()"
                    },
                    "errorInfo": "",
                    "fromAddress": "0xa7d8d9ef8d8ce8992df33d8b8cf4aebabd5bd270",
                    "gasUsed": 25736,
                    "id": 12,
                    "methodDecoded": true,
                    "operation": "STATICCALL",
                    "output": "0x40341b9f1830c83357e6e32b684599d1a115fdd0940f8fa7bcff026e3da1210d",
                    "revert": false,
                    "revertMessage": "",
                    "selector": "0x990c8f79",
                    "status": true,
                    "value": "0"
                },
                "nodeType": 0
            },
            "13": {
                "invocation": {
                    "address": "0x55e6711385795999678c378ef9608d7b64bca3f6",
                    "callData": "0x",
                    "decodedMethod": {
                        "callParams": [],
                        "constructorArguments": "",
                        "name": "returnValue",
                        "returnParams": [
                            {
                                "name": "",
                                "type": "uint256",
                                "value": "38,269,451,768,869,431,415,217,821,226,922,350,064,047,806,155,381,001,042,837,810,336,370,030,323,260"
                            }
                        ],
                        "signature": "returnValue()"
                    },
                    "errorInfo": "",
                    "fromAddress": "0x03d37ad26961d79e52c3daea840c0095fb4729a7",
                    "gasUsed": 5708,
                    "id": 13,
                    "methodDecoded": true,
                    "operation": "STATICCALL",
                    "output": "0x549bbdfad863089304c603024126383350c9e93dd17a99536634e24f1570a63c",
                    "revert": false,
                    "revertMessage": "",
                    "selector": "0x990c8f79",
                    "status": true,
                    "value": "0"
                },
                "nodeType": 0
            },
            "14": {
                "invocation": {
                    "address": "0xdac17f958d2ee523a2206206994597c13d831ec7",
                    "callData": "0x",
                    "decodedMethod": {
                        "callParams": [],
                        "constructorArguments": "",
                        "name": "totalSupply",
                        "returnParams": [
                            {
                                "name": "",
                                "type": "uint256",
                                "value": "20,417,977,739,617,189"
                            }
                        ],
                        "signature": "totalSupply()"
                    },
                    "errorInfo": "",
                    "fromAddress": "0x55e6711385795999678c378ef9608d7b64bca3f6",
                    "gasUsed": 2011,
                    "id": 14,
                    "methodDecoded": true,
                    "operation": "STATICCALL",
                    "output": "0x00000000000000000000000000000000000000000000000000488a0ae633a3a5",
                    "revert": false,
                    "revertMessage": "",
                    "selector": "0x18160ddd",
                    "status": true,
                    "value": "0"
                },
                "nodeType": 0
            },
            "15": {
                "invocation": {
                    "address": "0x55e6711385795999678c378ef9608d7b64bca3f6",
                    "callData": "0x",
                    "decodedMethod": {
                        "callParams": [],
                        "constructorArguments": "",
                        "name": "returnValue",
                        "returnParams": [
                            {
                                "name": "",
                                "type": "uint256",
                                "value": "38,269,451,768,869,431,415,217,821,226,922,350,064,047,806,155,381,001,042,837,810,336,370,030,323,260"
                            }
                        ],
                        "signature": "returnValue()"
                    },
                    "errorInfo": "",
                    "fromAddress": "0x03d37ad26961d79e52c3daea840c0095fb4729a7",
                    "gasUsed": 5708,
                    "id": 15,
                    "methodDecoded": true,
                    "operation": "STATICCALL",
                    "output": "0x549bbdfad863089304c603024126383350c9e93dd17a99536634e24f1570a63c",
                    "revert": false,
                    "revertMessage": "",
                    "selector": "0x990c8f79",
                    "status": true,
                    "value": "0"
                },
                "nodeType": 0
            },
            "16": {
                "invocation": {
                    "address": "0xdac17f958d2ee523a2206206994597c13d831ec7",
                    "callData": "0x",
                    "decodedMethod": {
                        "callParams": [],
                        "constructorArguments": "",
                        "name": "totalSupply",
                        "returnParams": [
                            {
                                "name": "",
                                "type": "uint256",
                                "value": "20,417,977,739,617,189"
                            }
                        ],
                        "signature": "totalSupply()"
                    },
                    "errorInfo": "",
                    "fromAddress": "0x55e6711385795999678c378ef9608d7b64bca3f6",
                    "gasUsed": 2011,
                    "id": 16,
                    "methodDecoded": true,
                    "operation": "STATICCALL",
                    "output": "0x00000000000000000000000000000000000000000000000000488a0ae633a3a5",
                    "revert": false,
                    "revertMessage": "",
                    "selector": "0x18160ddd",
                    "status": true,
                    "value": "0"
                },
                "nodeType": 0
            },
            "17": {
                "event": {
                    "contract": "0xa7d8d9ef8d8ce8992df33d8b8cf4aebabd5bd270",
                    "decodedLog": {
                        "name": "Transfer",
                        "params": [
                            {
                                "name": "from",
                                "type": "address",
                                "value": "0x0000000000000000000000000000000000000000"
                            },
                            {
                                "name": "to",
                                "type": "address",
                                "value": "0x52a5ff2b96b7e95f6096ac42f1b20922d2f6b2f7"
                            },
                            {
                                "decimalAvailable": true,
                                "name": "tokenId",
                                "type": "uint256",
                                "value": "27,000,181"
                            }
                        ],
                        "signature": "Transfer(address,address,uint256)"
                    },
                    "id": 17,
                    "logData": "0x",
                    "logDecoded": true,
                    "operation": "EVENT",
                    "revert": false,
                    "status": true,
                    "topics": [
                        "0xddf252ad1be2c89b69c2b068fc378daa952ba7f163c4a11628f55a4df523b3ef",
                        "0x0000000000000000000000000000000000000000000000000000000000000000",
                        "0x00000000000000000000000052a5ff2b96b7e95f6096ac42f1b20922d2f6b2f7",
                        "0x00000000000000000000000000000000000000000000000000000000019bfd75"
                    ]
                },
                "nodeType": 1
            },
            "18": {
                "event": {
                    "contract": "0xa7d8d9ef8d8ce8992df33d8b8cf4aebabd5bd270",
                    "decodedLog": {
                        "name": "Mint",
                        "params": [
                            {
                                "name": "_to",
                                "type": "address",
                                "value": "0x52a5ff2b96b7e95f6096ac42f1b20922d2f6b2f7"
                            },
                            {
                                "name": "_tokenId",
                                "type": "uint256",
                                "value": "27,000,181"
                            },
                            {
                                "name": "_projectId",
                                "type": "uint256",
                                "value": "27"
                            }
                        ],
                        "signature": "Mint(address,uint256,uint256)"
                    },
                    "id": 18,
                    "logData": "0x",
                    "logDecoded": true,
                    "operation": "EVENT",
                    "revert": false,
                    "status": true,
                    "topics": [
                        "0x4c209b5fc8ad50758f13e2e1088ba56a560dff690a1c6fef26394f4c03821c4f",
                        "0x00000000000000000000000052a5ff2b96b7e95f6096ac42f1b20922d2f6b2f7",
                        "0x00000000000000000000000000000000000000000000000000000000019bfd75",
                        "0x000000000000000000000000000000000000000000000000000000000000001b"
                    ]
                },
                "nodeType": 1
            },
            "2": {
                "invocation": {
                    "address": "0xa7d8d9ef8d8ce8992df33d8b8cf4aebabd5bd270",
                    "callData": "0x000000000000000000000000000000000000000000000000000000000000001b",
                    "decodedMethod": {
                        "callParams": [
                            {
                                "name": "",
                                "type": "uint256",
                                "value": "27"
                            }
                        ],
                        "constructorArguments": "",
                        "name": "projectIdToPricePerTokenInWei",
                        "returnParams": [
                            {
                                "name": "",
                                "type": "uint256",
                                "value": "150,000,000,000,000,000"
                            }
                        ],
                        "signature": "projectIdToPricePerTokenInWei(uint256)"
                    },
                    "errorInfo": "",
                    "fromAddress": "0x1db80b860081af41bc0ceb3c877f8aca8379f869",
                    "gasUsed": 1238,
                    "id": 2,
                    "methodDecoded": true,
                    "operation": "STATICCALL",
                    "output": "0x0000000000000000000000000000000000000000000000000214e8348c4f0000",
                    "revert": false,
                    "revertMessage": "",
                    "selector": "0xf70c0f04",
                    "status": true,
                    "value": "0"
                },
                "nodeType": 0
            },
            "3": {
                "invocation": {
                    "address": "0xa7d8d9ef8d8ce8992df33d8b8cf4aebabd5bd270",
                    "callData": "0x000000000000000000000000000000000000000000000000000000000000001b",
                    "decodedMethod": {
                        "callParams": [
                            {
                                "name": "",
                                "type": "uint256",
                                "value": "27"
                            }
                        ],
                        "constructorArguments": "",
                        "name": "projectIdToPricePerTokenInWei",
                        "returnParams": [
                            {
                                "name": "",
                                "type": "uint256",
                                "value": "150,000,000,000,000,000"
                            }
                        ],
                        "signature": "projectIdToPricePerTokenInWei(uint256)"
                    },
                    "errorInfo": "",
                    "fromAddress": "0x1db80b860081af41bc0ceb3c877f8aca8379f869",
                    "gasUsed": 1238,
                    "id": 3,
                    "methodDecoded": true,
                    "operation": "STATICCALL",
                    "output": "0x0000000000000000000000000000000000000000000000000214e8348c4f0000",
                    "revert": false,
                    "revertMessage": "",
                    "selector": "0xf70c0f04",
                    "status": true,
                    "value": "0"
                },
                "nodeType": 0
            },
            "4": {
                "invocation": {
                    "address": "0xa7d8d9ef8d8ce8992df33d8b8cf4aebabd5bd270",
                    "callData": "0x000000000000000000000000000000000000000000000000000000000000001b",
                    "decodedMethod": {
                        "callParams": [
                            {
                                "name": "",
                                "type": "uint256",
                                "value": "27"
                            }
                        ],
                        "constructorArguments": "",
                        "name": "projectIdToPricePerTokenInWei",
                        "returnParams": [
                            {
                                "name": "",
                                "type": "uint256",
                                "value": "150,000,000,000,000,000"
                            }
                        ],
                        "signature": "projectIdToPricePerTokenInWei(uint256)"
                    },
                    "errorInfo": "",
                    "fromAddress": "0x1db80b860081af41bc0ceb3c877f8aca8379f869",
                    "gasUsed": 1238,
                    "id": 4,
                    "methodDecoded": true,
                    "operation": "STATICCALL",
                    "output": "0x0000000000000000000000000000000000000000000000000214e8348c4f0000",
                    "revert": false,
                    "revertMessage": "",
                    "selector": "0xf70c0f04",
                    "status": true,
                    "value": "0"
                },
                "nodeType": 0
            },
            "5": {
                "invocation": {
                    "address": "0xa7d8d9ef8d8ce8992df33d8b8cf4aebabd5bd270",
                    "callData": "0x",
                    "decodedMethod": {
                        "callParams": [],
                        "constructorArguments": "",
                        "name": "artblocksPercentage",
                        "returnParams": [
                            {
                                "name": "",
                                "type": "uint256",
                                "value": "10"
                            }
                        ],
                        "signature": "artblocksPercentage()"
                    },
                    "errorInfo": "",
                    "fromAddress": "0x1db80b860081af41bc0ceb3c877f8aca8379f869",
                    "gasUsed": 1066,
                    "id": 5,
                    "methodDecoded": true,
                    "operation": "STATICCALL",
                    "output": "0x000000000000000000000000000000000000000000000000000000000000000a",
                    "revert": false,
                    "revertMessage": "",
                    "selector": "0x4f029c39",
                    "status": true,
                    "value": "0"
                },
                "nodeType": 0
            },
            "6": {
                "invocation": {
                    "address": "0xa7d8d9ef8d8ce8992df33d8b8cf4aebabd5bd270",
                    "callData": "0x",
                    "decodedMethod": {
                        "callParams": [],
                        "constructorArguments": "",
                        "name": "artblocksAddress",
                        "returnParams": [
                            {
                                "name": "",
                                "type": "address",
                                "value": "0x96dc73c8b5969608c77375f085949744b5177660"
                            }
                        ],
                        "signature": "artblocksAddress()"
                    },
                    "errorInfo": "",
                    "fromAddress": "0x1db80b860081af41bc0ceb3c877f8aca8379f869",
                    "gasUsed": 1128,
                    "id": 6,
                    "methodDecoded": true,
                    "operation": "STATICCALL",
                    "output": "0x00000000000000000000000096dc73c8b5969608c77375f085949744b5177660",
                    "revert": false,
                    "revertMessage": "",
                    "selector": "0x3949f906",
                    "status": true,
                    "value": "0"
                },
                "nodeType": 0
            },
            "7": {
                "invocation": {
                    "address": "0x96dc73c8b5969608c77375f085949744b5177660",
                    "callData": "0x",
                    "decodedMethod": null,
                    "errorInfo": "",
                    "fromAddress": "0x1db80b860081af41bc0ceb3c877f8aca8379f869",
                    "gasUsed": 0,
                    "id": 7,
                    "methodDecoded": false,
                    "operation": "CALL",
                    "output": "",
                    "revert": false,
                    "revertMessage": "",
                    "selector": "fallback",
                    "status": true,
                    "value": "0.015"
                },
                "nodeType": 0
            },
            "8": {
                "invocation": {
                    "address": "0xa7d8d9ef8d8ce8992df33d8b8cf4aebabd5bd270",
                    "callData": "0x000000000000000000000000000000000000000000000000000000000000001b",
                    "decodedMethod": {
                        "callParams": [
                            {
                                "name": "",
                                "type": "uint256",
                                "value": "27"
                            }
                        ],
                        "constructorArguments": "",
                        "name": "projectIdToAdditionalPayeePercentage",
                        "returnParams": [
                            {
                                "name": "",
                                "type": "uint256",
                                "value": "0"
                            }
                        ],
                        "signature": "projectIdToAdditionalPayeePercentage(uint256)"
                    },
                    "errorInfo": "",
                    "fromAddress": "0x1db80b860081af41bc0ceb3c877f8aca8379f869",
                    "gasUsed": 1173,
                    "id": 8,
                    "methodDecoded": true,
                    "operation": "STATICCALL",
                    "output": "0x0000000000000000000000000000000000000000000000000000000000000000",
                    "revert": false,
                    "revertMessage": "",
                    "selector": "0xcc74234b",
                    "status": true,
                    "value": "0"
                },
                "nodeType": 0
            },
            "9": {
                "invocation": {
                    "address": "0xa7d8d9ef8d8ce8992df33d8b8cf4aebabd5bd270",
                    "callData": "0x000000000000000000000000000000000000000000000000000000000000001b",
                    "decodedMethod": {
                        "callParams": [
                            {
                                "name": "",
                                "type": "uint256",
                                "value": "27"
                            }
                        ],
                        "constructorArguments": "",
                        "name": "projectIdToArtistAddress",
                        "returnParams": [
                            {
                                "name": "",
                                "type": "address",
                                "value": "0x2776621ff536af829919ab6cba8db434aeba43f9"
                            }
                        ],
                        "signature": "projectIdToArtistAddress(uint256)"
                    },
                    "errorInfo": "",
                    "fromAddress": "0x1db80b860081af41bc0ceb3c877f8aca8379f869",
                    "gasUsed": 1301,
                    "id": 9,
                    "methodDecoded": true,
                    "operation": "STATICCALL",
                    "output": "0x0000000000000000000000002776621ff536af829919ab6cba8db434aeba43f9",
                    "revert": false,
                    "revertMessage": "",
                    "selector": "0xa47d29cb",
                    "status": true,
                    "value": "0"
                },
                "nodeType": 0
            }
        },
        "gasFlame": [
            {
                "children": [
                    {
                        "children": [
                            {
                                "children": [],
                                "depth": 0,
                                "name": "Initial Gas",
                                "value": 21204
                            },
                            {
                                "children": [
                                    {
                                        "children": [],
                                        "depth": 1,
                                        "name": "projectIdToCurrencySymbol",
                                        "value": 2602
                                    },
                                    {
                                        "children": [],
                                        "depth": 1,
                                        "name": "projectIdToPricePerTokenInWei",
                                        "value": 1238
                                    },
                                    {
                                        "children": [],
                                        "depth": 1,
                                        "name": "projectIdToPricePerTokenInWei",
                                        "value": 1238
                                    },
                                    {
                                        "children": [],
                                        "depth": 1,
                                        "name": "projectIdToPricePerTokenInWei",
                                        "value": 1238
                                    },
                                    {
                                        "children": [],
                                        "depth": 1,
                                        "name": "artblocksPercentage",
                                        "value": 1066
                                    },
                                    {
                                        "children": [],
                                        "depth": 1,
                                        "name": "artblocksAddress",
                                        "value": 1128
                                    },
                                    {
                                        "children": [],
                                        "depth": 1,
                                        "name": "fallback",
                                        "value": 0
                                    },
                                    {
                                        "children": [],
                                        "depth": 1,
                                        "name": "projectIdToAdditionalPayeePercentage",
                                        "value": 1173
                                    },
                                    {
                                        "children": [],
                                        "depth": 1,
                                        "name": "projectIdToArtistAddress",
                                        "value": 1301
                                    },
                                    {
                                        "children": [],
                                        "depth": 1,
                                        "name": "fallback",
                                        "value": 0
                                    },
                                    {
                                        "children": [
                                            {
                                                "children": [
                                                    {
                                                        "children": [
                                                            {
                                                                "children": [],
                                                                "depth": 4,
                                                                "name": "totalSupply",
                                                                "value": 2011
                                                            }
                                                        ],
                                                        "depth": 3,
                                                        "name": "returnValue",
                                                        "value": 5708
                                                    },
                                                    {
                                                        "children": [
                                                            {
                                                                "children": [],
                                                                "depth": 4,
                                                                "name": "totalSupply",
                                                                "value": 2011
                                                            }
                                                        ],
                                                        "depth": 3,
                                                        "name": "returnValue",
                                                        "value": 5708
                                                    }
                                                ],
                                                "depth": 2,
                                                "name": "returnValue",
                                                "value": 25736
                                            }
                                        ],
                                        "depth": 1,
                                        "name": "mint",
                                        "value": 249483
                                    }
                                ],
                                "depth": 0,
                                "name": "Executed Gas",
                                "value": 302099
                            }
                        ],
                        "depth": -1,
                        "name": "Actual Gas Used",
                        "value": 323303
                    },
                    {
                        "children": [],
                        "depth": -1,
                        "name": "Refunded Gas",
                        "value": 0
                    }
                ],
                "depth": -2,
                "name": "Total Gas",
                "value": 323303
            }
        ],
        "isConfirmed": true,
        "mainTrace": [
            {
                "children": [
                    {
                        "children": [
                            {
                                "children": [],
                                "depth": 1,
                                "id": 1,
                                "order": 1
                            },
                            {
                                "children": [],
                                "depth": 1,
                                "id": 2,
                                "order": 2
                            },
                            {
                                "children": [],
                                "depth": 1,
                                "id": 3,
                                "order": 3
                            },
                            {
                                "children": [],
                                "depth": 1,
                                "id": 4,
                                "order": 4
                            },
                            {
                                "children": [],
                                "depth": 1,
                                "id": 5,
                                "order": 5
                            },
                            {
                                "children": [],
                                "depth": 1,
                                "id": 6,
                                "order": 6
                            },
                            {
                                "children": [],
                                "depth": 1,
                                "id": 7,
                                "order": 7
                            },
                            {
                                "children": [],
                                "depth": 1,
                                "id": 8,
                                "order": 8
                            },
                            {
                                "children": [],
                                "depth": 1,
                                "id": 9,
                                "order": 9
                            },
                            {
                                "children": [],
                                "depth": 1,
                                "id": 10,
                                "order": 10
                            },
                            {
                                "children": [
                                    {
                                        "children": [
                                            {
                                                "children": [
                                                    {
                                                        "children": [],
                                                        "depth": 4,
                                                        "id": 14,
                                                        "order": 14
                                                    }
                                                ],
                                                "depth": 3,
                                                "id": 13,
                                                "order": 13
                                            },
                                            {
                                                "children": [
                                                    {
                                                        "children": [],
                                                        "depth": 4,
                                                        "id": 16,
                                                        "order": 16
                                                    }
                                                ],
                                                "depth": 3,
                                                "id": 15,
                                                "order": 15
                                            }
                                        ],
                                        "depth": 2,
                                        "id": 12,
                                        "order": 12
                                    },
                                    {
                                        "children": [],
                                        "depth": 2,
                                        "id": 17,
                                        "order": 17
                                    },
                                    {
                                        "children": [],
                                        "depth": 2,
                                        "id": 18,
                                        "order": 18
                                    }
                                ],
                                "depth": 1,
                                "id": 11,
                                "order": 11
                            }
                        ],
                        "depth": 0,
                        "id": 0,
                        "order": 0
                    }
                ],
                "depth": -1,
                "id": -1,
                "order": -1
            }
        ],
        "mainTraceNodeCount": 19,
        "parentIdMap": {
            "0": -1,
            "1": 0,
            "10": 0,
            "11": 0,
            "12": 11,
            "13": 12,
            "14": 13,
            "15": 12,
            "16": 15,
            "17": 11,
            "18": 11,
            "2": 0,
            "3": 0,
            "4": 0,
            "5": 0,
            "6": 0,
            "7": 0,
            "8": 0,
            "9": 0
        },
        "tidyTrace": [
            {
                "children": [
                    {
                        "children": [
                            {
                                "children": [],
                                "depth": 1,
                                "id": 7,
                                "order": 7
                            },
                            {
                                "children": [],
                                "depth": 1,
                                "id": 10,
                                "order": 10
                            },
                            {
                                "children": [
                                    {
                                        "children": [],
                                        "depth": 2,
                                        "id": 17,
                                        "order": 17
                                    },
                                    {
                                        "children": [],
                                        "depth": 2,
                                        "id": 18,
                                        "order": 18
                                    }
                                ],
                                "depth": 1,
                                "id": 11,
                                "order": 11
                            }
                        ],
                        "depth": 0,
                        "id": 0,
                        "order": 0
                    }
                ],
                "depth": -1,
                "id": -1,
                "order": -1
            }
        ],
        "tidyTraceNodeCount": 6
    },
    "state_change": {
        "stateChanges": [
            {
                "address": "0xa7d8d9ef8d8ce8992df33d8b8cf4aebabd5bd270",
                "erc": "ERC-721",
                "slots": [
                    {
                        "current": "0x00000000000000000000000000000000000000000000000000000000019bfd75",
                        "key": "0x73503ee085d6ee8695603006d2fdd769c25d4aee1cc8c343d45ebfcb03b8c2f2",
                        "prev": "0x0000000000000000000000000000000000000000000000000000000000000000"
                    },
                    {
                        "current": "0x0000000000000000000000000000000000000000000000000000000000003650",
                        "key": "0x0000000000000000000000000000000000000000000000000000000000000007",
                        "prev": "0x000000000000000000000000000000000000000000000000000000000000364f"
                    },
                    {
                        "current": "0x0000000000000000000000000000000000000000000000000000000000000009",
                        "key": "0xd3f473f3db1d60cad79e816b0a6efb67b70c4a1296a32efcb78847be24cbe981",
                        "prev": "0x0000000000000000000000000000000000000000000000000000000000000008"
                    },
                    {
                        "current": "0x0000000000000000000000000000000000000000000000000000000000000009",
                        "key": "0xc34d5c10caf8c001dbe110e296e0575b3520f4a936a04353c5b59efe267ffd8e",
                        "prev": "0x0000000000000000000000000000000000000000000000000000000000000008"
                    },
                    {
                        "current": "0x00000000000000000000000000000000000000000000000000000000019bfd75",
                        "key": "0xac6fae544c2365cbf56d48b8c2768f85f8c281a780f7551f5f00c6ab57816495",
                        "prev": "0x0000000000000000000000000000000000000000000000000000000000000000"
                    },
                    {
                        "current": "0x00000000000000000000000000000000000000000000000000000000019bfd75",
                        "key": "0xba5d36b9ef0a6a2a4f922e95591e3444122ce3114de7be139dcdb077a205fc6a",
                        "prev": "0x0000000000000000000000000000000000000000000000000000000000000000"
                    },
                    {
                        "current": "0x00000000000000000000000052a5ff2b96b7e95f6096ac42f1b20922d2f6b2f7",
                        "key": "0x34d22300b6eefc3a4097b4baa10a2a15f0d9ee03faa218932e45382544ab8d5e",
                        "prev": "0x0000000000000000000000000000000000000000000000000000000000000000"
                    },
                    {
                        "current": "0xbf8336b4c213b1a5d5a115d286351f5364f1f17b9a884fa3364266091f02615b",
                        "key": "0xd7a760f03b456b68b93f97dd83a4eeef0953287dc061c3508600307a5170165d",
                        "prev": "0x0000000000000000000000000000000000000000000000000000000000000000"
                    },
                    {
                        "current": "0x0000000000000000000000000000000000000000000000000000000000000008",
                        "key": "0x6e7140320d0dfa8e80fd3013eaa92972fd5f22094a1af50f0054d2b85ccef50c",
                        "prev": "0x0000000000000000000000000000000000000000000000000000000000000000"
                    },
                    {
                        "current": "0x000000000000000000000000000000000000000000000000000000000000001b",
                        "key": "0x69199f777b4518e7d154ecef1d95fa92954c295870b6e21c5a9d88c3c48f4249",
                        "prev": "0x0000000000000000000000000000000000000000000000000000000000000000"
                    },
                    {
                        "current": "0x00000000000000000000000000000000000000000000000000000000000000b6",
                        "key": "0xc48ec664273fd18a09aa425f8d67c83aeff4ed71afedb2c3a5d4f516e931fc63",
                        "prev": "0x00000000000000000000000000000000000000000000000000000000000000b5"
                    },
                    {
                        "current": "0x000000000000000000000000000000000000000000000000000000000000364f",
                        "key": "0x35d7f405505835ef64976669db8d7624148419da2e2ce759ad5d623efec0f82c",
                        "prev": "0x0000000000000000000000000000000000000000000000000000000000000000"
                    },
                    {
                        "current": "0x00000000000000000000000000000000000000000000000000000000019bfd75",
                        "key": "0xa66cc928b5edb82af9bd49922954155ab7b0942694bea4ce44661d9a8736fcd7",
                        "prev": "0x0000000000000000000000000000000000000000000000000000000000000000"
                    },
                    {
                        "current": "0x00000000000000000000000000000000000000000000000000000000000000b6",
                        "key": "0x693426d4b4e14c633fef30f9078c13e548d510bd2b9ddbd4fbb6d7db48c3d9bc",
                        "prev": "0x00000000000000000000000000000000000000000000000000000000000000b5"
                    }
                ],
                "storageVariables": [
                    {
                        "name": "_tokenOwner",
                        "type": "mapping(uint256 => address)",
                        "value": {
                            "pairs": [
                                {
                                    "key": "27000181",
                                    "value": {
                                        "current": "0x52a5ff2b96b7e95f6096ac42f1b20922d2f6b2f7",
                                        "prev": "0x0000000000000000000000000000000000000000",
                                        "typeTag": 1
                                    }
                                }
                            ],
                            "typeTag": 4
                        }
                    },
                    {
                        "name": "tokenIdToProjectId",
                        "type": "mapping(uint256 => uint256)",
                        "value": {
                            "pairs": [
                                {
                                    "key": "27000181",
                                    "value": {
                                        "current": "27",
                                        "prev": "0",
                                        "typeTag": 1
                                    }
                                }
                            ],
                            "typeTag": 4
                        }
                    },
                    {
                        "name": "_allTokensIndex",
                        "type": "mapping(uint256 => uint256)",
                        "value": {
                            "pairs": [
                                {
                                    "key": "27000181",
                                    "value": {
                                        "current": "13903",
                                        "prev": "0",
                                        "typeTag": 1
                                    }
                                }
                            ],
                            "typeTag": 4
                        }
                    },
                    {
                        "name": "projectIdToTokenIds",
                        "type": "mapping(uint256 => uint256[])",
                        "value": {
                            "pairs": [
                                {
                                    "key": "27",
                                    "value": {
                                        "elemType": "uint256",
                                        "elems": [
                                            {
                                                "index": 181,
                                                "value": {
                                                    "current": "27000181",
                                                    "prev": "0",
                                                    "typeTag": 1
                                                }
                                            }
                                        ],
                                        "typeTag": 2
                                    }
                                }
                            ],
                            "typeTag": 4
                        }
                    },
                    {
                        "name": "_ownedTokensCount",
                        "type": "mapping(address => struct Counters.Counter)",
                        "value": {
                            "pairs": [
                                {
                                    "key": "0x52a5ff2b96b7e95f6096ac42f1b20922d2f6b2f7",
                                    "value": {
                                        "fields": [
                                            {
                                                "name": "_value",
                                                "type": "uint256",
                                                "value": {
                                                    "current": "9",
                                                    "prev": "8",
                                                    "typeTag": 1
                                                }
                                            }
                                        ],
                                        "typeTag": 3
                                    }
                                }
                            ],
                            "typeTag": 4
                        }
                    },
                    {
                        "name": "_ownedTokensIndex",
                        "type": "mapping(uint256 => uint256)",
                        "value": {
                            "pairs": [
                                {
                                    "key": "27000181",
                                    "value": {
                                        "current": "8",
                                        "prev": "0",
                                        "typeTag": 1
                                    }
                                }
                            ],
                            "typeTag": 4
                        }
                    },
                    {
                        "name": "_ownedTokens",
                        "type": "mapping(address => uint256[])",
                        "value": {
                            "pairs": [
                                {
                                    "key": "0x52a5ff2b96b7e95f6096ac42f1b20922d2f6b2f7",
                                    "value": {
                                        "elemType": "uint256",
                                        "elems": [
                                            {
                                                "index": 8,
                                                "value": {
                                                    "current": "27000181",
                                                    "prev": "0",
                                                    "typeTag": 1
                                                }
                                            }
                                        ],
                                        "typeTag": 2
                                    }
                                }
                            ],
                            "typeTag": 4
                        }
                    },
                    {
                        "name": "tokenIdToHash",
                        "type": "mapping(uint256 => bytes32)",
                        "value": {
                            "pairs": [
                                {
                                    "key": "27000181",
                                    "value": {
                                        "current": "0xbf8336b4c213b1a5d5a115d286351f5364f1f17b9a884fa3364266091f02615b",
                                        "prev": "0x0000000000000000000000000000000000000000000000000000000000000000",
                                        "typeTag": 1
                                    }
                                }
                            ],
                            "typeTag": 4
                        }
                    },
                    {
                        "name": "_allTokens",
                        "type": "uint256[]",
                        "value": {
                            "elemType": "uint256",
                            "elems": [
                                {
                                    "index": 13903,
                                    "value": {
                                        "current": "27000181",
                                        "prev": "0",
                                        "typeTag": 1
                                    }
                                }
                            ],
                            "typeTag": 2
                        }
                    },
                    {
                        "name": "hashToTokenId",
                        "type": "mapping(bytes32 => uint256)",
                        "value": {
                            "pairs": [
                                {
                                    "key": "0xbf8336b4c213b1a5d5a115d286351f5364f1f17b9a884fa3364266091f02615b",
                                    "value": {
                                        "current": "27000181",
                                        "prev": "0",
                                        "typeTag": 1
                                    }
                                }
                            ],
                            "typeTag": 4
                        }
                    },
                    {
                        "name": "projects",
                        "type": "mapping(uint256 => struct GenArt721Core.Project)",
                        "value": {
                            "pairs": [
                                {
                                    "key": "27",
                                    "value": {
                                        "fields": [
                                            {
                                                "name": "description",
                                                "type": "string",
                                                "value": {
                                                    "current": "A real-time live interactive piece that also acts as a clock. 720 unique ways to show the current time, one per minute over twelve hours. Each clock will activate on its given minute, giving you a special moment every twelve hours to consider what one minute means to you.",
                                                    "prev": "A real-time live interactive piece that also acts as a clock. 720 unique ways to show the current time, one per minute over twelve hours. Each clock will activate on its given minute, giving you a special moment every twelve hours to consider what one minute means to you.",
                                                    "typeTag": 1
                                                }
                                            },
                                            {
                                                "name": "invocations",
                                                "type": "uint256",
                                                "value": {
                                                    "current": "182",
                                                    "prev": "181",
                                                    "typeTag": 1
                                                }
                                            },
                                            {
                                                "name": "scriptJSON",
                                                "type": "string",
                                                "value": {
                                                    "current": "{\"type\":\"js\",\"aspectRatio\":\"1\",\"instructions\":\"Watch time go by, wait for its special time. Touch/drag for some special effects.\",\"interactive\":\"true\"}",
                                                    "prev": "{\"type\":\"js\",\"aspectRatio\":\"1\",\"instructions\":\"Watch time go by, wait for its special time. Touch/drag for some special effects.\",\"interactive\":\"true\"}",
                                                    "typeTag": 1
                                                }
                                            }
                                        ],
                                        "typeTag": 3
                                    }
                                }
                            ],
                            "typeTag": 4
                        }
                    }
                ]
            }
        ]
    }
}