{
    "balance_change": {
        "balanceChanges": [
            {
                "account": "0x37dd5e2f70c88e9e797c5f8a996f8b6637cf8060",
                "assets": [
                    {
                        "address": "0x5ef696212d8f198204e2f823f9deadc5f8eaa361",
                        "amount": "66,000",
                        "iconUrl": "",
                        "isERC1155": false,
                        "isERC721": false,
                        "sign": false,
                        "value": ""
                    }
                ]
            },
            {
                "account": "0xd4525bac3f83c63df1c4cd43da05191c3803c0fa",
                "assets": [
                    {
                        "address": "0x5ef696212d8f198204e2f823f9deadc5f8eaa361",
                        "amount": "66,000",
                        "iconUrl": "",
                        "isERC1155": false,
                        "isERC721": false,
                        "sign": true,
                        "value": ""
                    }
                ]
            }
        ]
    },
    "profile": {
        "basic_info": {
            "baseFee": "",
            "blockNumber": 10124451,
            "callData": "0xa9059cbb000000000000000000000000d4525bac3f83c63df1c4cd43da05191c3803c0fa000000000000000000000000000000000000000000000df9ddfecd0365400000",
            "debugEnable": true,
            "errorInfo": "",
            "eventCount": 1,
            "feeRecipient": "0x5a0b54d5dc17e0aadc383d2db43b0a0d3e029c4c",
            "formatValue": "0",
            "gasLimit": 51739,
            "gasPrice": "11",
            "gasUsed": 51739,
            "intTxnCount": 0,
            "internalRevert": false,
            "internalRevertMessage": "",
            "isContractCreation": false,
            "isFlashloan": false,
            "maxFee": "",
            "nonce": 32644,
            "overwritedBlockNumber": -1,
            "priorityFee": "",
            "receiver": "0x5ef696212d8f198204e2f823f9deadc5f8eaa361",
            "revertMessage": "",
            "sender": "0x37dd5e2f70c88e9e797c5f8a996f8b6637cf8060",
            "simulationEnable": true,
            "sourceTxnHash": "0x2b81a015d120426f20bb51c23cca6f090d0e36f741be751d6e6020e13d247f0e",
            "status": true,
            "timestamp": "2020-05-23T21:04:23Z",
            "transactionFee": "0.000569129",
            "txnHash": "0x2b81a015d120426f20bb51c23cca6f090d0e36f741be751d6e6020e13d247f0e",
            "txnIndex": 66,
            "type": 0,
            "value": "0"
        },
        "fund_flow": [
            {
                "amount": "66,000",
                "from": "0x37dd5e2f70c88e9e797c5f8a996f8b6637cf8060",
                "id": 1,
                "isERC1155": false,
                "isERC721": false,
                "isReverted": false,
                "order": 1,
                "to": "0xd4525bac3f83c63df1c4cd43da05191c3803c0fa",
                "token": "0x5ef696212d8f198204e2f823f9deadc5f8eaa361"
            }
        ],
        "token_infos": [
            {
                "address": "0x5ef696212d8f198204e2f823f9deadc5f8eaa361",
                "decimals": 18
            },
            {
                "address": "0xc02aaa39b223fe8d0a0e5c4f27ead9083c756cc2",
                "decimals": 18
            },
            {
                "address": "0xeeeeeeeeeeeeeeeeeeeeeeeeeeeeeeeeeeeeeeee",
                "decimals": 18
            }
        ]
    },
    "address_label": {
        "labels": [
            {
                "address": "0x0000000000000000000000000000000000000001",
                "label": "Precompiled"
            },
            {
                "address": "0x0000000000000000000000000000000000000002",
                "label": "Precompiled"
            },
            {
                "address": "0x0000000000000000000000000000000000000003",
                "label": "Precompiled"
            },
            {
                "address": "0x0000000000000000000000000000000000000004",
                "label": "Precompiled"
            },
            {
                "address": "0xeeeeeeeeeeeeeeeeeeeeeeeeeeeeeeeeeeeeeeee",
                "label": "Ether"
            },
            {
                "address": "0x5ef696212d8f198204e2f823f9deadc5f8eaa361",
                "label": "EAS (EAS)"
            }
        ]
    },
    "trace": {
        "accountLabels": null,
        "dataMap": {
            "-1": {
                "invocation": {
                    "address": "0x37dd5e2f70c88e9e797c5f8a996f8b6637cf8060",
                    "callData": "",
                    "decodedMethod": null,
                    "errorInfo": "",
                    "fromAddress": "",
                    "gasUsed": 0,
                    "id": -1,
                    "methodDecoded": false,
                    "operation": "",
                    "output": "",
                    "revert": false,
                    "revertMessage": "",
                    "selector": "",
                    "status": false,
                    "value": ""
                },
                "nodeType": 0
            },
            "0": {
                "invocation": {
                    "address": "0x5ef696212d8f198204e2f823f9deadc5f8eaa361",
                    "callData": "0x000000000000000000000000d4525bac3f83c63df1c4cd43da05191c3803c0fa000000000000000000000000000000000000000000000df9ddfecd0365400000",
                    "decodedMethod": {
                        "callParams": [
                            {
                                "name": "recipient",
                                "type": "address",
                                "value": "0xd4525bac3f83c63df1c4cd43da05191c3803c0fa"
                            },
                            {
                                "decimalAvailable": true,
                                "name": "amount",
                                "type": "uint256",
                                "value": "66,000,000,000,000,000,000,000"
                            }
                        ],
                        "constructorArguments": "",
                        "name": "transfer",
                        "returnParams": [
                            {
                                "name": "",
                                "type": "bool",
                                "value": true
                            }
                        ],
                        "signature": "transfer(address,uint256)"
                    },
                    "errorInfo": "",
                    "fromAddress": "0x37dd5e2f70c88e9e797c5f8a996f8b6637cf8060",
                    "gasUsed": 51739,
                    "id": 0,
                    "methodDecoded": true,
                    "operation": "CALL",
                    "output": "0x0000000000000000000000000000000000000000000000000000000000000001",
                    "revert": false,
                    "revertMessage": "",
                    "selector": "0xa9059cbb",
                    "status": true,
                    "value": "0"
                },
                "nodeType": 0
            },
            "1": {
                "event": {
                    "contract": "0x5ef696212d8f198204e2f823f9deadc5f8eaa361",
                    "decodedLog": {
                        "name": "Transfer",
                        "params": [
                            {
                                "name": "from",
                                "type": "address",
                                "value": "0x37dd5e2f70c88e9e797c5f8a996f8b6637cf8060"
                            },
                            {
                                "name": "to",
                                "type": "address",
                                "value": "0xd4525bac3f83c63df1c4cd43da05191c3803c0fa"
                            },
                            {
                                "decimalAvailable": true,
                                "name": "value",
                                "type": "uint256",
                                "value": "66,000,000,000,000,000,000,000"
                            }
                        ],
                        "signature": "Transfer(address,address,uint256)"
                    },
                    "id": 1,
                    "logData": "0x000000000000000000000000000000000000000000000df9ddfecd0365400000",
                    "logDecoded": true,
                    "operation": "EVENT",
                    "revert": false,
                    "status": true,
                    "topics": [
                        "0xddf252ad1be2c89b69c2b068fc378daa952ba7f163c4a11628f55a4df523b3ef",
                        "0x00000000000000000000000037dd5e2f70c88e9e797c5f8a996f8b6637cf8060",
                        "0x000000000000000000000000d4525bac3f83c63df1c4cd43da05191c3803c0fa"
                    ]
                },
                "nodeType": 1
            }
        },
        "gasFlame": [
            {
                "children": [
                    {
                        "children": [
                            {
                                "children": [],
                                "depth": 0,
                                "name": "Initial Gas",
                                "value": 21656
                            },
                            {
                                "children": [],
                                "depth": 0,
                                "name": "Executed Gas",
                                "value": 30083
                            }
                        ],
                        "depth": -1,
                        "name": "Actual Gas Used",
                        "value": 51739
                    },
                    {
                        "children": [],
                        "depth": -1,
                        "name": "Refunded Gas",
                        "value": 0
                    }
                ],
                "depth": -2,
                "name": "Total Gas",
                "value": 51739
            }
        ],
        "isConfirmed": true,
        "mainTrace": [
            {
                "children": [
                    {
                        "children": [
                            {
                                "children": [],
                                "depth": 1,
                                "id": 1,
                                "order": 1
                            }
                        ],
                        "depth": 0,
                        "id": 0,
                        "order": 0
                    }
                ],
                "depth": -1,
                "id": -1,
                "order": -1
            }
        ],
        "mainTraceNodeCount": 2,
        "parentIdMap": {
            "0": -1,
            "1": 0
        },
        "tidyTrace": [
            {
                "children": [
                    {
                        "children": [
                            {
                                "children": [],
                                "depth": 1,
                                "id": 1,
                                "order": 1
                            }
                        ],
                        "depth": 0,
                        "id": 0,
                        "order": 0
                    }
                ],
                "depth": -1,
                "id": -1,
                "order": -1
            }
        ],
        "tidyTraceNodeCount": 2
    },
    "state_change": {
        "stateChanges": [
            {
                "address": "0x5ef696212d8f198204e2f823f9deadc5f8eaa361",
                "erc": "",
                "slots": [
                    {
                        "current": "0x00000000000000000000000000000000000000000390bac2bdcf828dd3f00000",
                        "key": "0xa3d280e307a7d6be92b3d8b89225f7e055b3249715de2bcfd810e350ff1b9302",
                        "prev": "0x00000000000000000000000000000000000000000390c8bc9bce4f9139300000"
                    },
                    {
                        "current": "0x000000000000000000000000000000000000000000000df9ddfecd0365400000",
                        "key": "0xf59c0dfb53088405fa7bbab3c977feec148344019074320c23c4d76e36b62924",
                        "prev": "0x0000000000000000000000000000000000000000000000000000000000000000"
                    }
                ],
                "storageVariables": []
            }
        ]
    }
}