{
    "balance_change": {
        "balanceChanges": []
    },
    "profile": {
        "basic_info": {
            "baseFee": "2.79263797",
            "blockNumber": 19909924,
            "callData": "0xeea9064b0000000000000000000000001f8c8b1d78d01bcc42ebdd34fae60181bd69766200000000000000000000000000000000000000000000000000000000000000600000000000000000000000000000000000000000000000000000000000000000000000000000000000000000000000000000000000000000000000000000004000000000000000000000000000000000000000000000000000000000000000000000000000000000000000000000000000000000000000000000000000000000",
            "debugEnable": true,
            "errorInfo": "",
            "eventCount": 2,
            "feeRecipient": "0x4838b106fce9647bdf1e7877bf73ce8b0bad5f97",
            "formatValue": "0",
            "gasLimit": 155826,
            "gasPrice": "2.802490426",
            "gasUsed": 101908,
            "intTxnCount": 5,
            "internalRevert": false,
            "internalRevertMessage": "",
            "isContractCreation": false,
            "isFlashloan": false,
            "maxFee": "4.281674628",
            "nonce": 6,
            "overwritedBlockNumber": -1,
            "priorityFee": "0.009852456",
            "receiver": "0x39053d51b77dc0d36036fc1fcc8cb819df8ef37a",
            "revertMessage": "",
            "sender": "0x0639e3814416a52403b820e2143d8a85f093977e",
            "simulationEnable": true,
            "sourceTxnHash": "0x2bff548d2a4fdea3a969d67ca77680f1fe6a4a8b962258e399418bfb322b3a3b",
            "status": true,
            "timestamp": "2024-05-20T08:23:59Z",
            "transactionFee": "0.000285596194332808",
            "txnHash": "0x2bff548d2a4fdea3a969d67ca77680f1fe6a4a8b962258e399418bfb322b3a3b",
            "txnIndex": 137,
            "type": 2,
            "value": "0"
        },
        "fund_flow": [],
        "token_infos": [
            {
                "address": "0xc02aaa39b223fe8d0a0e5c4f27ead9083c756cc2",
                "decimals": 18
            },
            {
                "address": "0xeeeeeeeeeeeeeeeeeeeeeeeeeeeeeeeeeeeeeeee",
                "decimals": 18
            }
        ]
    },
    "address_label": {
        "labels": [
            {
                "address": "0x0fe4f44bee93503346a3ac9ee5a26b130a5796d6",
                "label": "TransparentUpgradeableProxy_0fe4_96d6"
            },
            {
                "address": "0x1f8c8b1d78d01bcc42ebdd34fae60181bd697662",
                "label": "Kiln: AVS Operator"
            },
            {
                "address": "0x1784be6401339fc0fedf7e9379409f5c1bfe9dda",
                "label": "DelegationManager"
            },
            {
                "address": "0x0000000000000000000000000000000000000001",
                "label": "Precompiled"
            },
            {
                "address": "0x858646372cc42e1a627fce94aa7a7033e7cf075a",
                "label": "EigenLayer: Strategy Manager"
            },
            {
                "address": "0x91e677b07f7af907ec9a428aafa9fc14a0d3a338",
                "label": "EigenLayer: Eigen Pod Manager"
            },
            {
                "address": "0xe4297e3dadbc7d99e26a2954820f514cb50c5762",
                "label": "EigenPodManager"
            },
            {
                "address": "0x0000000000000000000000000000000000000004",
                "label": "Precompiled"
            },
            {
                "address": "0xeeeeeeeeeeeeeeeeeeeeeeeeeeeeeeeeeeeeeeee",
                "label": "Ether"
            },
            {
                "address": "0x0000000000000000000000000000000000000002",
                "label": "Precompiled"
            },
            {
                "address": "0x0000000000000000000000000000000000000003",
                "label": "Precompiled"
            },
            {
                "address": "0x39053d51b77dc0d36036fc1fcc8cb819df8ef37a",
                "label": "EigenLayer: Delegation"
            },
            {
                "address": "0x70f44c13944d49a236e3cd7a94f48f5dab6c619b",
                "label": "StrategyManager"
            }
        ]
    },
    "trace": {
        "accountLabels": null,
        "dataMap": {
            "-1": {
                "invocation": {
                    "address": "0x0639e3814416a52403b820e2143d8a85f093977e",
                    "callData": "",
                    "decodedMethod": null,
                    "errorInfo": "",
                    "fromAddress": "",
                    "gasUsed": 0,
                    "id": -1,
                    "methodDecoded": false,
                    "operation": "",
                    "output": "",
                    "revert": false,
                    "revertMessage": "",
                    "selector": "",
                    "status": false,
                    "value": ""
                },
                "nodeType": 0
            },
            "0": {
                "invocation": {
                    "address": "0x39053d51b77dc0d36036fc1fcc8cb819df8ef37a",
                    "callData": "0x0000000000000000000000001f8c8b1d78d01bcc42ebdd34fae60181bd69766200000000000000000000000000000000000000000000000000000000000000600000000000000000000000000000000000000000000000000000000000000000000000000000000000000000000000000000000000000000000000000000004000000000000000000000000000000000000000000000000000000000000000000000000000000000000000000000000000000000000000000000000000000000",
                    "decodedMethod": {
                        "callParams": [
                            {
                                "name": "operator",
                                "type": "address",
                                "value": "0x1f8c8b1d78d01bcc42ebdd34fae60181bd697662"
                            },
                            {
                                "name": "approverSignatureAndExpiry",
                                "type": "(bytes,uint256)",
                                "value": [
                                    {
                                        "name": "signature",
                                        "type": "bytes",
                                        "value": "0x"
                                    },
                                    {
                                        "name": "expiry",
                                        "type": "uint256",
                                        "value": "0"
                                    }
                                ]
                            },
                            {
                                "name": "approverSalt",
                                "type": "bytes32",
                                "value": "0x0000000000000000000000000000000000000000000000000000000000000000"
                            }
                        ],
                        "constructorArguments": "",
                        "name": "delegateTo",
                        "returnParams": [],
                        "signature": "delegateTo(address,(bytes,uint256),bytes32)"
                    },
                    "errorInfo": "",
                    "fromAddress": "0x0639e3814416a52403b820e2143d8a85f093977e",
                    "gasUsed": 101908,
                    "id": 0,
                    "methodDecoded": true,
                    "operation": "CALL",
                    "output": "",
                    "revert": false,
                    "revertMessage": "",
                    "selector": "0xeea9064b",
                    "status": true,
                    "value": "0"
                },
                "nodeType": 0
            },
            "1": {
                "invocation": {
                    "address": "0x1784be6401339fc0fedf7e9379409f5c1bfe9dda",
                    "callData": "0x0000000000000000000000001f8c8b1d78d01bcc42ebdd34fae60181bd69766200000000000000000000000000000000000000000000000000000000000000600000000000000000000000000000000000000000000000000000000000000000000000000000000000000000000000000000000000000000000000000000004000000000000000000000000000000000000000000000000000000000000000000000000000000000000000000000000000000000000000000000000000000000",
                    "decodedMethod": {
                        "callParams": [
                            {
                                "name": "operator",
                                "type": "address",
                                "value": "0x1f8c8b1d78d01bcc42ebdd34fae60181bd697662"
                            },
                            {
                                "name": "approverSignatureAndExpiry",
                                "type": "(bytes,uint256)",
                                "value": [
                                    {
                                        "name": "signature",
                                        "type": "bytes",
                                        "value": "0x"
                                    },
                                    {
                                        "name": "expiry",
                                        "type": "uint256",
                                        "value": "0"
                                    }
                                ]
                            },
                            {
                                "name": "approverSalt",
                                "type": "bytes32",
                                "value": "0x0000000000000000000000000000000000000000000000000000000000000000"
                            }
                        ],
                        "constructorArguments": "",
                        "name": "delegateTo",
                        "returnParams": [],
                        "signature": "delegateTo(address,(bytes,uint256),bytes32)"
                    },
                    "errorInfo": "",
                    "fromAddress": "0x39053d51b77dc0d36036fc1fcc8cb819df8ef37a",
                    "gasUsed": 72469,
                    "id": 1,
                    "methodDecoded": true,
                    "operation": "DELEGATECALL",
                    "output": "",
                    "revert": false,
                    "revertMessage": "",
                    "selector": "0xeea9064b",
                    "status": true,
                    "value": "0"
                },
                "nodeType": 0
            },
            "2": {
                "event": {
                    "contract": "0x39053d51b77dc0d36036fc1fcc8cb819df8ef37a",
                    "decodedLog": {
                        "name": "StakerDelegated",
                        "params": [
                            {
                                "name": "staker",
                                "type": "address",
                                "value": "0x0639e3814416a52403b820e2143d8a85f093977e"
                            },
                            {
                                "name": "operator",
                                "type": "address",
                                "value": "0x1f8c8b1d78d01bcc42ebdd34fae60181bd697662"
                            }
                        ],
                        "signature": "StakerDelegated(address,address)"
                    },
                    "id": 2,
                    "logData": "0x",
                    "logDecoded": true,
                    "operation": "EVENT",
                    "revert": false,
                    "status": true,
                    "topics": [
                        "0xc3ee9f2e5fda98e8066a1f745b2df9285f416fe98cf2559cd21484b3d8743304",
                        "0x0000000000000000000000000639e3814416a52403b820e2143d8a85f093977e",
                        "0x0000000000000000000000001f8c8b1d78d01bcc42ebdd34fae60181bd697662"
                    ]
                },
                "nodeType": 1
            },
            "3": {
                "invocation": {
                    "address": "0x91e677b07f7af907ec9a428aafa9fc14a0d3a338",
                    "callData": "0x0000000000000000000000000639e3814416a52403b820e2143d8a85f093977e",
                    "decodedMethod": {
                        "callParams": [
                            {
                                "name": "",
                                "type": "address",
                                "value": "0x0639e3814416a52403b820e2143d8a85f093977e"
                            }
                        ],
                        "constructorArguments": "",
                        "name": "podOwnerShares",
                        "returnParams": [
                            {
                                "name": "",
                                "type": "int256",
                                "value": "0"
                            }
                        ],
                        "signature": "podOwnerShares(address)"
                    },
                    "errorInfo": "",
                    "fromAddress": "0x39053d51b77dc0d36036fc1fcc8cb819df8ef37a",
                    "gasUsed": 9933,
                    "id": 3,
                    "methodDecoded": true,
                    "operation": "STATICCALL",
                    "output": "0x0000000000000000000000000000000000000000000000000000000000000000",
                    "revert": false,
                    "revertMessage": "",
                    "selector": "0x60f4062b",
                    "status": true,
                    "value": "0"
                },
                "nodeType": 0
            },
            "4": {
                "invocation": {
                    "address": "0xe4297e3dadbc7d99e26a2954820f514cb50c5762",
                    "callData": "0x0000000000000000000000000639e3814416a52403b820e2143d8a85f093977e",
                    "decodedMethod": {
                        "callParams": [
                            {
                                "name": "",
                                "type": "address",
                                "value": "0x0639e3814416a52403b820e2143d8a85f093977e"
                            }
                        ],
                        "constructorArguments": "",
                        "name": "podOwnerShares",
                        "returnParams": [
                            {
                                "name": "",
                                "type": "int256",
                                "value": "0"
                            }
                        ],
                        "signature": "podOwnerShares(address)"
                    },
                    "errorInfo": "",
                    "fromAddress": "0x91e677b07f7af907ec9a428aafa9fc14a0d3a338",
                    "gasUsed": 2614,
                    "id": 4,
                    "methodDecoded": true,
                    "operation": "DELEGATECALL",
                    "output": "0x0000000000000000000000000000000000000000000000000000000000000000",
                    "revert": false,
                    "revertMessage": "",
                    "selector": "0x60f4062b",
                    "status": true,
                    "value": "0"
                },
                "nodeType": 0
            },
            "5": {
                "invocation": {
                    "address": "0x858646372cc42e1a627fce94aa7a7033e7cf075a",
                    "callData": "0x0000000000000000000000000639e3814416a52403b820e2143d8a85f093977e",
                    "decodedMethod": {
                        "callParams": [
                            {
                                "name": "staker",
                                "type": "address",
                                "value": "0x0639e3814416a52403b820e2143d8a85f093977e"
                            }
                        ],
                        "constructorArguments": "",
                        "name": "getDeposits",
                        "returnParams": [
                            {
                                "name": "",
                                "type": "address[]",
                                "value": [
                                    "0x0fe4f44bee93503346a3ac9ee5a26b130a5796d6"
                                ]
                            },
                            {
                                "name": "",
                                "type": "uint256[]",
                                "value": [
                                    "979,258,155,405,899,929"
                                ]
                            }
                        ],
                        "signature": "getDeposits(address)"
                    },
                    "errorInfo": "",
                    "fromAddress": "0x39053d51b77dc0d36036fc1fcc8cb819df8ef37a",
                    "gasUsed": 16100,
                    "id": 5,
                    "methodDecoded": true,
                    "operation": "STATICCALL",
                    "output": "0x0000000000000000000000000000000000000000000000000000000000000040000000000000000000000000000000000000000000000000000000000000008000000000000000000000000000000000000000000000000000000000000000010000000000000000000000000fe4f44bee93503346a3ac9ee5a26b130a5796d600000000000000000000000000000000000000000000000000000000000000010000000000000000000000000000000000000000000000000d97061aa05f7899",
                    "revert": false,
                    "revertMessage": "",
                    "selector": "0x94f649dd",
                    "status": true,
                    "value": "0"
                },
                "nodeType": 0
            },
            "6": {
                "invocation": {
                    "address": "0x70f44c13944d49a236e3cd7a94f48f5dab6c619b",
                    "callData": "0x0000000000000000000000000639e3814416a52403b820e2143d8a85f093977e",
                    "decodedMethod": {
                        "callParams": [
                            {
                                "name": "staker",
                                "type": "address",
                                "value": "0x0639e3814416a52403b820e2143d8a85f093977e"
                            }
                        ],
                        "constructorArguments": "",
                        "name": "getDeposits",
                        "returnParams": [
                            {
                                "name": "",
                                "type": "address[]",
                                "value": [
                                    "0x0fe4f44bee93503346a3ac9ee5a26b130a5796d6"
                                ]
                            },
                            {
                                "name": "",
                                "type": "uint256[]",
                                "value": [
                                    "979,258,155,405,899,929"
                                ]
                            }
                        ],
                        "signature": "getDeposits(address)"
                    },
                    "errorInfo": "",
                    "fromAddress": "0x858646372cc42e1a627fce94aa7a7033e7cf075a",
                    "gasUsed": 8757,
                    "id": 6,
                    "methodDecoded": true,
                    "operation": "DELEGATECALL",
                    "output": "0x0000000000000000000000000000000000000000000000000000000000000040000000000000000000000000000000000000000000000000000000000000008000000000000000000000000000000000000000000000000000000000000000010000000000000000000000000fe4f44bee93503346a3ac9ee5a26b130a5796d600000000000000000000000000000000000000000000000000000000000000010000000000000000000000000000000000000000000000000d97061aa05f7899",
                    "revert": false,
                    "revertMessage": "",
                    "selector": "0x94f649dd",
                    "status": true,
                    "value": "0"
                },
                "nodeType": 0
            },
            "7": {
                "event": {
                    "contract": "0x39053d51b77dc0d36036fc1fcc8cb819df8ef37a",
                    "decodedLog": {
                        "name": "OperatorSharesIncreased",
                        "params": [
                            {
                                "name": "operator",
                                "type": "address",
                                "value": "0x1f8c8b1d78d01bcc42ebdd34fae60181bd697662"
                            },
                            {
                                "name": "staker",
                                "type": "address",
                                "value": "0x0639e3814416a52403b820e2143d8a85f093977e"
                            },
                            {
                                "name": "strategy",
                                "type": "address",
                                "value": "0x0fe4f44bee93503346a3ac9ee5a26b130a5796d6"
                            },
                            {
                                "name": "shares",
                                "type": "uint256",
                                "value": "979,258,155,405,899,929"
                            }
                        ],
                        "signature": "OperatorSharesIncreased(address,address,address,uint256)"
                    },
                    "id": 7,
                    "logData": "0x0000000000000000000000000639e3814416a52403b820e2143d8a85f093977e0000000000000000000000000fe4f44bee93503346a3ac9ee5a26b130a5796d60000000000000000000000000000000000000000000000000d97061aa05f7899",
                    "logDecoded": true,
                    "operation": "EVENT",
                    "revert": false,
                    "status": true,
                    "topics": [
                        "0x1ec042c965e2edd7107b51188ee0f383e22e76179041ab3a9d18ff151405166c",
                        "0x0000000000000000000000001f8c8b1d78d01bcc42ebdd34fae60181bd697662"
                    ]
                },
                "nodeType": 1
            }
        },
        "gasFlame": [
            {
                "children": [
                    {
                        "children": [
                            {
                                "children": [],
                                "depth": 0,
                                "name": "Initial Gas",
                                "value": 22096
                            },
                            {
                                "children": [
                                    {
                                        "children": [
                                            {
                                                "children": [
                                                    {
                                                        "children": [],
                                                        "depth": 3,
                                                        "name": "podOwnerShares",
                                                        "value": 2614
                                                    }
                                                ],
                                                "depth": 2,
                                                "name": "podOwnerShares",
                                                "value": 9933
                                            },
                                            {
                                                "children": [
                                                    {
                                                        "children": [],
                                                        "depth": 3,
                                                        "name": "getDeposits",
                                                        "value": 8757
                                                    }
                                                ],
                                                "depth": 2,
                                                "name": "getDeposits",
                                                "value": 16100
                                            }
                                        ],
                                        "depth": 1,
                                        "name": "delegateTo",
                                        "value": 72469
                                    }
                                ],
                                "depth": 0,
                                "name": "Executed Gas",
                                "value": 79812
                            }
                        ],
                        "depth": -1,
                        "name": "Actual Gas Used",
                        "value": 101908
                    },
                    {
                        "children": [],
                        "depth": -1,
                        "name": "Refunded Gas",
                        "value": 0
                    }
                ],
                "depth": -2,
                "name": "Total Gas",
                "value": 101908
            }
        ],
        "isConfirmed": true,
        "mainTrace": [
            {
                "children": [
                    {
                        "children": [
                            {
                                "children": [
                                    {
                                        "children": [],
                                        "depth": 2,
                                        "id": 2,
                                        "order": 2
                                    },
                                    {
                                        "children": [
                                            {
                                                "children": [],
                                                "depth": 3,
                                                "id": 4,
                                                "order": 4
                                            }
                                        ],
                                        "depth": 2,
                                        "id": 3,
                                        "order": 3
                                    },
                                    {
                                        "children": [
                                            {
                                                "children": [],
                                                "depth": 3,
                                                "id": 6,
                                                "order": 6
                                            }
                                        ],
                                        "depth": 2,
                                        "id": 5,
                                        "order": 5
                                    },
                                    {
                                        "children": [],
                                        "depth": 2,
                                        "id": 7,
                                        "order": 7
                                    }
                                ],
                                "depth": 1,
                                "id": 1,
                                "order": 1
                            }
                        ],
                        "depth": 0,
                        "id": 0,
                        "order": 0
                    }
                ],
                "depth": -1,
                "id": -1,
                "order": -1
            }
        ],
        "mainTraceNodeCount": 8,
        "parentIdMap": {
            "0": -1,
            "1": 0,
            "2": 1,
            "3": 1,
            "4": 3,
            "5": 1,
            "6": 5,
            "7": 1
        },
        "tidyTrace": [
            {
                "children": [
                    {
                        "children": [
                            {
                                "children": [
                                    {
                                        "children": [],
                                        "depth": 2,
                                        "id": 2,
                                        "order": 2
                                    },
                                    {
                                        "children": [],
                                        "depth": 2,
                                        "id": 7,
                                        "order": 7
                                    }
                                ],
                                "depth": 1,
                                "id": 1,
                                "order": 1
                            }
                        ],
                        "depth": 0,
                        "id": 0,
                        "order": 0
                    }
                ],
                "depth": -1,
                "id": -1,
                "order": -1
            }
        ],
        "tidyTraceNodeCount": 4
    },
    "state_change": {
        "stateChanges": [
            {
                "address": "0x39053d51b77dc0d36036fc1fcc8cb819df8ef37a",
                "erc": "",
                "slots": [
                    {
                        "current": "0x0000000000000000000000001f8c8b1d78d01bcc42ebdd34fae60181bd697662",
                        "key": "0x97180afb0655efd1bb6ba018461d17b1d39cad5fc8b73761b6cae95eecf4ce4b",
                        "prev": "0x0000000000000000000000000000000000000000000000000000000000000000"
                    },
                    {
                        "current": "0x0000000000000000000000000000000000000000000000330ccf48c8320d40e6",
                        "key": "0xcbd5dcd5e61698d585abacd9a390cd30eec1b03ba791ad9c6d3a35961260da25",
                        "prev": "0x000000000000000000000000000000000000000000000032ff3842ad91adc84d"
                    }
                ],
                "storageVariables": [
                    {
                        "name": "operatorShares",
                        "type": "mapping(address => mapping(contract IStrategy => uint256))",
                        "value": {
                            "pairs": [
                                {
                                    "key": "0x1f8c8b1d78d01bcc42ebdd34fae60181bd697662",
                                    "value": {
                                        "pairs": [
                                            {
                                                "key": "0x0fe4f44bee93503346a3ac9ee5a26b130a5796d6",
                                                "value": {
                                                    "current": "941706984232491761894",
                                                    "prev": "940727726077085861965",
                                                    "typeTag": 1
                                                }
                                            }
                                        ],
                                        "typeTag": 4
                                    }
                                }
                            ],
                            "typeTag": 4
                        }
                    },
                    {
                        "name": "delegatedTo",
                        "type": "mapping(address => address)",
                        "value": {
                            "pairs": [
                                {
                                    "key": "0x0639e3814416a52403b820e2143d8a85f093977e",
                                    "value": {
                                        "current": "0x1f8c8b1d78d01bcc42ebdd34fae60181bd697662",
                                        "prev": "0x0000000000000000000000000000000000000000",
                                        "typeTag": 1
                                    }
                                }
                            ],
                            "typeTag": 4
                        }
                    }
                ]
            }
        ]
    }
}