{
    "balance_change": {
        "balanceChanges": [
            {
                "account": "0xf16e9b0d03470827a95cdfd0cb8a8a3b46969b91",
                "assets": [
                    {
                        "address": "0x4691937a7508860f876c9c0a2a617e7d9e945d4b",
                        "amount": "1,000",
                        "iconUrl": "https://assets.blocksec.com/icon/f3bbe70af9fc6d1ff070cd90c3a2728ef62e522215e05a2ee9a317a0cd573736.png",
                        "isERC1155": false,
                        "isERC721": false,
                        "sign": false,
                        "value": "197.96459934845589412"
                    }
                ]
            },
            {
                "account": "0x61c579d890ea23b0e5f4fbe0603a683333d0483e",
                "assets": [
                    {
                        "address": "0x4691937a7508860f876c9c0a2a617e7d9e945d4b",
                        "amount": "1,000",
                        "iconUrl": "https://assets.blocksec.com/icon/f3bbe70af9fc6d1ff070cd90c3a2728ef62e522215e05a2ee9a317a0cd573736.png",
                        "isERC1155": false,
                        "isERC721": false,
                        "sign": true,
                        "value": "197.96459934845589412"
                    }
                ]
            }
        ]
    },
    "profile": {
        "basic_info": {
            "baseFee": "26.599722776",
            "blockNumber": 16898015,
            "callData": "0xa9059cbb00000000000000000000000061c579d890ea23b0e5f4fbe0603a683333d0483e00000000000000000000000000000000000000000000003635c9adc5dea00000",
            "debugEnable": true,
            "errorInfo": "",
            "eventCount": 1,
            "feeRecipient": "0x1f9090aae28b8a3dceadf281b0f12828e676c326",
            "formatValue": "0",
            "gasLimit": 100000,
            "gasPrice": "29.623747287",
            "gasUsed": 51530,
            "intTxnCount": 0,
            "internalRevert": false,
            "internalRevertMessage": "",
            "isContractCreation": false,
            "isFlashloan": false,
            "maxFee": "60.388685766",
            "nonce": 1712324,
            "overwritedBlockNumber": -1,
            "priorityFee": "3.024024511",
            "receiver": "0x4691937a7508860f876c9c0a2a617e7d9e945d4b",
            "revertMessage": "",
            "sender": "0xf16e9b0d03470827a95cdfd0cb8a8a3b46969b91",
            "simulationEnable": true,
            "sourceTxnHash": "0x2b328c991691b09b04f2f37daf8d0c7b3a4e25c251d6650b6d6a6f86965d4aba",
            "status": true,
            "timestamp": "2023-03-24T14:40:35Z",
            "transactionFee": "0.00152651169769911",
            "txnHash": "0x2b328c991691b09b04f2f37daf8d0c7b3a4e25c251d6650b6d6a6f86965d4aba",
            "txnIndex": 36,
            "type": 2,
            "value": "0"
        },
        "fund_flow": [
            {
                "amount": "1,000",
                "from": "0xf16e9b0d03470827a95cdfd0cb8a8a3b46969b91",
                "id": 1,
                "isERC1155": false,
                "isERC721": false,
                "isReverted": false,
                "order": 1,
                "to": "0x61c579d890ea23b0e5f4fbe0603a683333d0483e",
                "token": "0x4691937a7508860f876c9c0a2a617e7d9e945d4b"
            }
        ],
        "token_infos": [
            {
                "address": "0x4691937a7508860f876c9c0a2a617e7d9e945d4b",
                "decimals": 18
            },
            {
                "address": "0xc02aaa39b223fe8d0a0e5c4f27ead9083c756cc2",
                "decimals": 18
            },
            {
                "address": "0xeeeeeeeeeeeeeeeeeeeeeeeeeeeeeeeeeeeeeeee",
                "decimals": 18
            }
        ]
    },
    "address_label": {
        "labels": [
            {
                "address": "0xf16e9b0d03470827a95cdfd0cb8a8a3b46969b91",
                "label": "KuCoin 9"
            },
            {
                "address": "0x4691937a7508860f876c9c0a2a617e7d9e945d4b",
                "label": "Woo Network: WOO Token"
            },
            {
                "address": "0x0000000000000000000000000000000000000001",
                "label": "Precompiled"
            },
            {
                "address": "0x0000000000000000000000000000000000000002",
                "label": "Precompiled"
            },
            {
                "address": "0x0000000000000000000000000000000000000003",
                "label": "Precompiled"
            },
            {
                "address": "0x0000000000000000000000000000000000000004",
                "label": "Precompiled"
            },
            {
                "address": "0xeeeeeeeeeeeeeeeeeeeeeeeeeeeeeeeeeeeeeeee",
                "label": "Ether"
            }
        ]
    },
    "trace": {
        "accountLabels": null,
        "dataMap": {
            "-1": {
                "invocation": {
                    "address": "0xf16e9b0d03470827a95cdfd0cb8a8a3b46969b91",
                    "callData": "",
                    "decodedMethod": null,
                    "errorInfo": "",
                    "fromAddress": "",
                    "gasUsed": 0,
                    "id": -1,
                    "methodDecoded": false,
                    "operation": "",
                    "output": "",
                    "revert": false,
                    "revertMessage": "",
                    "selector": "",
                    "status": false,
                    "value": ""
                },
                "nodeType": 0
            },
            "0": {
                "invocation": {
                    "address": "0x4691937a7508860f876c9c0a2a617e7d9e945d4b",
                    "callData": "0x00000000000000000000000061c579d890ea23b0e5f4fbe0603a683333d0483e00000000000000000000000000000000000000000000003635c9adc5dea00000",
                    "decodedMethod": {
                        "callParams": [
                            {
                                "name": "_to",
                                "type": "address",
                                "value": "0x61c579d890ea23b0e5f4fbe0603a683333d0483e"
                            },
                            {
                                "decimalAvailable": true,
                                "name": "_value",
                                "type": "uint256",
                                "value": "1,000,000,000,000,000,000,000"
                            }
                        ],
                        "constructorArguments": "",
                        "name": "transfer",
                        "returnParams": [
                            {
                                "name": "success",
                                "type": "bool",
                                "value": true
                            }
                        ],
                        "signature": "transfer(address,uint256)"
                    },
                    "errorInfo": "",
                    "fromAddress": "0xf16e9b0d03470827a95cdfd0cb8a8a3b46969b91",
                    "gasUsed": 51530,
                    "id": 0,
                    "methodDecoded": true,
                    "operation": "CALL",
                    "output": "0x0000000000000000000000000000000000000000000000000000000000000001",
                    "revert": false,
                    "revertMessage": "",
                    "selector": "0xa9059cbb",
                    "status": true,
                    "value": "0"
                },
                "nodeType": 0
            },
            "1": {
                "event": {
                    "contract": "0x4691937a7508860f876c9c0a2a617e7d9e945d4b",
                    "decodedLog": {
                        "name": "Transfer",
                        "params": [
                            {
                                "name": "_from",
                                "type": "address",
                                "value": "0xf16e9b0d03470827a95cdfd0cb8a8a3b46969b91"
                            },
                            {
                                "name": "_to",
                                "type": "address",
                                "value": "0x61c579d890ea23b0e5f4fbe0603a683333d0483e"
                            },
                            {
                                "decimalAvailable": true,
                                "name": "_value",
                                "type": "uint256",
                                "value": "1,000,000,000,000,000,000,000"
                            }
                        ],
                        "signature": "Transfer(address,address,uint256)"
                    },
                    "id": 1,
                    "logData": "0x00000000000000000000000000000000000000000000003635c9adc5dea00000",
                    "logDecoded": true,
                    "operation": "EVENT",
                    "revert": false,
                    "status": true,
                    "topics": [
                        "0xddf252ad1be2c89b69c2b068fc378daa952ba7f163c4a11628f55a4df523b3ef",
                        "0x000000000000000000000000f16e9b0d03470827a95cdfd0cb8a8a3b46969b91",
                        "0x00000000000000000000000061c579d890ea23b0e5f4fbe0603a683333d0483e"
                    ]
                },
                "nodeType": 1
            }
        },
        "gasFlame": [
            {
                "children": [
                    {
                        "children": [
                            {
                                "children": [],
                                "depth": 0,
                                "name": "Initial Gas",
                                "value": 21644
                            },
                            {
                                "children": [],
                                "depth": 0,
                                "name": "Executed Gas",
                                "value": 29886
                            }
                        ],
                        "depth": -1,
                        "name": "Actual Gas Used",
                        "value": 51530
                    },
                    {
                        "children": [],
                        "depth": -1,
                        "name": "Refunded Gas",
                        "value": 0
                    }
                ],
                "depth": -2,
                "name": "Total Gas",
                "value": 51530
            }
        ],
        "isConfirmed": true,
        "mainTrace": [
            {
                "children": [
                    {
                        "children": [
                            {
                                "children": [],
                                "depth": 1,
                                "id": 1,
                                "order": 1
                            }
                        ],
                        "depth": 0,
                        "id": 0,
                        "order": 0
                    }
                ],
                "depth": -1,
                "id": -1,
                "order": -1
            }
        ],
        "mainTraceNodeCount": 2,
        "parentIdMap": {
            "0": -1,
            "1": 0
        },
        "tidyTrace": [
            {
                "children": [
                    {
                        "children": [
                            {
                                "children": [],
                                "depth": 1,
                                "id": 1,
                                "order": 1
                            }
                        ],
                        "depth": 0,
                        "id": 0,
                        "order": 0
                    }
                ],
                "depth": -1,
                "id": -1,
                "order": -1
            }
        ],
        "tidyTraceNodeCount": 2
    },
    "state_change": {
        "stateChanges": [
            {
                "address": "0x4691937a7508860f876c9c0a2a617e7d9e945d4b",
                "erc": "ERC-20",
                "slots": [
                    {
                        "current": "0x00000000000000000000000000000000000000000000abfee64a590f5c8bb2fd",
                        "key": "0xc185b7c3fae464ba8e1efbc901efa0ab96f071884e4cb2fe61774d1e6df142a4",
                        "prev": "0x00000000000000000000000000000000000000000000ac351c1406d53b2bb2fd"
                    },
                    {
                        "current": "0x00000000000000000000000000000000000000000000003635c9adc5dea00000",
                        "key": "0x4f72661a9f1b26231efcc3ee06f04fd28785b2ebc7dd16160c607e0f02de45b0",
                        "prev": "0x0000000000000000000000000000000000000000000000000000000000000000"
                    }
                ],
                "storageVariables": [
                    {
                        "name": "balances",
                        "type": "mapping(address => uint256)",
                        "value": {
                            "pairs": [
                                {
                                    "key": "0x61c579d890ea23b0e5f4fbe0603a683333d0483e",
                                    "value": {
                                        "current": "1000000000000000000000",
                                        "prev": "0",
                                        "typeTag": 1
                                    }
                                },
                                {
                                    "key": "0xf16e9b0d03470827a95cdfd0cb8a8a3b46969b91",
                                    "value": {
                                        "current": "812226735739131069707005",
                                        "prev": "813226735739131069707005",
                                        "typeTag": 1
                                    }
                                }
                            ],
                            "typeTag": 4
                        }
                    }
                ]
            }
        ]
    }
}