{
    "balance_change": {
        "balanceChanges": [
            {
                "account": "0x5a1419c485bdcd04b083b2044e34d315d23a32e9",
                "assets": [
                    {
                        "address": "0x395e65993f20be438bf3db2a1b1233485c978558",
                        "amount": "1",
                        "iconUrl": "",
                        "isERC1155": false,
                        "isERC721": true,
                        "sign": false,
                        "tokenID": "4850",
                        "value": ""
                    }
                ]
            },
            {
                "account": "0x4b0376da97d6a832700a7beb7c194333756180f4",
                "assets": [
                    {
                        "address": "0x395e65993f20be438bf3db2a1b1233485c978558",
                        "amount": "1",
                        "iconUrl": "",
                        "isERC1155": false,
                        "isERC721": true,
                        "sign": true,
                        "tokenID": "4850",
                        "value": ""
                    }
                ]
            }
        ]
    },
    "profile": {
        "basic_info": {
            "baseFee": "7.315803743",
            "blockNumber": 15862703,
            "callData": "0x42842e0e0000000000000000000000005a1419c485bdcd04b083b2044e34d315d23a32e90000000000000000000000004b0376da97d6a832700a7beb7c194333756180f400000000000000000000000000000000000000000000000000000000000012f2",
            "debugEnable": true,
            "errorInfo": "",
            "eventCount": 1,
            "feeRecipient": "0x4675c7e5baafbffbca748158becba61ef3b0a263",
            "formatValue": "0",
            "gasLimit": 57714,
            "gasPrice": "8.545803743",
            "gasUsed": 48095,
            "intTxnCount": 0,
            "internalRevert": false,
            "internalRevertMessage": "",
            "isContractCreation": false,
            "isFlashloan": false,
            "maxFee": "12.11",
            "nonce": 77,
            "overwritedBlockNumber": -1,
            "priorityFee": "1.23",
            "receiver": "0x395e65993f20be438bf3db2a1b1233485c978558",
            "revertMessage": "",
            "sender": "0x5a1419c485bdcd04b083b2044e34d315d23a32e9",
            "simulationEnable": true,
            "sourceTxnHash": "0x2b36fde54a6a7796d9ac4958aaa7118c74c16b1f7a242e7175778b6d18b5c9fa",
            "status": true,
            "timestamp": "2022-10-30T18:34:59Z",
            "transactionFee": "0.000411010431019585",
            "txnHash": "0x2b36fde54a6a7796d9ac4958aaa7118c74c16b1f7a242e7175778b6d18b5c9fa",
            "txnIndex": 74,
            "type": 2,
            "value": "0"
        },
        "fund_flow": [
            {
                "amount": "1",
                "from": "0x5a1419c485bdcd04b083b2044e34d315d23a32e9",
                "id": 1,
                "isERC1155": false,
                "isERC721": true,
                "isReverted": false,
                "order": 1,
                "to": "0x4b0376da97d6a832700a7beb7c194333756180f4",
                "token": "0x395e65993f20be438bf3db2a1b1233485c978558",
                "tokenID": "4850"
            }
        ],
        "token_infos": [
            {
                "address": "0xc02aaa39b223fe8d0a0e5c4f27ead9083c756cc2",
                "decimals": 18
            },
            {
                "address": "0xeeeeeeeeeeeeeeeeeeeeeeeeeeeeeeeeeeeeeeee",
                "decimals": 18
            }
        ]
    },
    "address_label": {
        "labels": [
            {
                "address": "0x0000000000000000000000000000000000000001",
                "label": "Precompiled"
            },
            {
                "address": "0x0000000000000000000000000000000000000002",
                "label": "Precompiled"
            },
            {
                "address": "0x0000000000000000000000000000000000000003",
                "label": "Precompiled"
            },
            {
                "address": "0x0000000000000000000000000000000000000004",
                "label": "Precompiled"
            },
            {
                "address": "0xeeeeeeeeeeeeeeeeeeeeeeeeeeeeeeeeeeeeeeee",
                "label": "Ether"
            },
            {
                "address": "0x395e65993f20be438bf3db2a1b1233485c978558",
                "label": "Sprout Academy (SPROUT)"
            }
        ]
    },
    "trace": {
        "accountLabels": null,
        "dataMap": {
            "-1": {
                "invocation": {
                    "address": "0x5a1419c485bdcd04b083b2044e34d315d23a32e9",
                    "callData": "",
                    "decodedMethod": null,
                    "errorInfo": "",
                    "fromAddress": "",
                    "gasUsed": 0,
                    "id": -1,
                    "methodDecoded": false,
                    "operation": "",
                    "output": "",
                    "revert": false,
                    "revertMessage": "",
                    "selector": "",
                    "status": false,
                    "value": ""
                },
                "nodeType": 0
            },
            "0": {
                "invocation": {
                    "address": "0x395e65993f20be438bf3db2a1b1233485c978558",
                    "callData": "0x0000000000000000000000005a1419c485bdcd04b083b2044e34d315d23a32e90000000000000000000000004b0376da97d6a832700a7beb7c194333756180f400000000000000000000000000000000000000000000000000000000000012f2",
                    "decodedMethod": {
                        "callParams": [
                            {
                                "name": "from",
                                "type": "address",
                                "value": "0x5a1419c485bdcd04b083b2044e34d315d23a32e9"
                            },
                            {
                                "name": "to",
                                "type": "address",
                                "value": "0x4b0376da97d6a832700a7beb7c194333756180f4"
                            },
                            {
                                "name": "tokenId",
                                "type": "uint256",
                                "value": "4,850"
                            }
                        ],
                        "constructorArguments": "",
                        "name": "safeTransferFrom",
                        "returnParams": [],
                        "signature": "safeTransferFrom(address,address,uint256)"
                    },
                    "errorInfo": "",
                    "fromAddress": "0x5a1419c485bdcd04b083b2044e34d315d23a32e9",
                    "gasUsed": 48095,
                    "id": 0,
                    "methodDecoded": true,
                    "operation": "CALL",
                    "output": "",
                    "revert": false,
                    "revertMessage": "",
                    "selector": "0x42842e0e",
                    "status": true,
                    "value": "0"
                },
                "nodeType": 0
            },
            "1": {
                "event": {
                    "contract": "0x395e65993f20be438bf3db2a1b1233485c978558",
                    "decodedLog": {
                        "name": "Transfer",
                        "params": [
                            {
                                "name": "from",
                                "type": "address",
                                "value": "0x5a1419c485bdcd04b083b2044e34d315d23a32e9"
                            },
                            {
                                "name": "to",
                                "type": "address",
                                "value": "0x4b0376da97d6a832700a7beb7c194333756180f4"
                            },
                            {
                                "decimalAvailable": true,
                                "name": "tokenId",
                                "type": "uint256",
                                "value": "4,850"
                            }
                        ],
                        "signature": "Transfer(address,address,uint256)"
                    },
                    "id": 1,
                    "logData": "0x",
                    "logDecoded": true,
                    "operation": "EVENT",
                    "revert": false,
                    "status": true,
                    "topics": [
                        "0xddf252ad1be2c89b69c2b068fc378daa952ba7f163c4a11628f55a4df523b3ef",
                        "0x0000000000000000000000005a1419c485bdcd04b083b2044e34d315d23a32e9",
                        "0x0000000000000000000000004b0376da97d6a832700a7beb7c194333756180f4",
                        "0x00000000000000000000000000000000000000000000000000000000000012f2"
                    ]
                },
                "nodeType": 1
            }
        },
        "gasFlame": [
            {
                "children": [
                    {
                        "children": [
                            {
                                "children": [],
                                "depth": 0,
                                "name": "Initial Gas",
                                "value": 21952
                            },
                            {
                                "children": [],
                                "depth": 0,
                                "name": "Executed Gas",
                                "value": 26143
                            }
                        ],
                        "depth": -1,
                        "name": "Actual Gas Used",
                        "value": 48095
                    },
                    {
                        "children": [],
                        "depth": -1,
                        "name": "Refunded Gas",
                        "value": 0
                    }
                ],
                "depth": -2,
                "name": "Total Gas",
                "value": 48095
            }
        ],
        "isConfirmed": true,
        "mainTrace": [
            {
                "children": [
                    {
                        "children": [
                            {
                                "children": [],
                                "depth": 1,
                                "id": 1,
                                "order": 1
                            }
                        ],
                        "depth": 0,
                        "id": 0,
                        "order": 0
                    }
                ],
                "depth": -1,
                "id": -1,
                "order": -1
            }
        ],
        "mainTraceNodeCount": 2,
        "parentIdMap": {
            "0": -1,
            "1": 0
        },
        "tidyTrace": [
            {
                "children": [
                    {
                        "children": [
                            {
                                "children": [],
                                "depth": 1,
                                "id": 1,
                                "order": 1
                            }
                        ],
                        "depth": 0,
                        "id": 0,
                        "order": 0
                    }
                ],
                "depth": -1,
                "id": -1,
                "order": -1
            }
        ],
        "tidyTraceNodeCount": 2
    },
    "state_change": {
        "stateChanges": [
            {
                "address": "0x395e65993f20be438bf3db2a1b1233485c978558",
                "erc": "ERC-721",
                "slots": [
                    {
                        "current": "0x0000000000000000000000000000000000000000000000010000000000000000",
                        "key": "0x409558835609e34de6bc21fd762fad25448431c216aac58b9a6a943077d48c6f",
                        "prev": "0x0000000000000000000000000000000000000000000000010000000000000001"
                    },
                    {
                        "current": "0x0000000000000000000000000000000000000000000000010000000000000003",
                        "key": "0x25698164fe8cb27d7e1fd6de9374b1e38a4d9f20ae59ef2b1cf88739aa2fa5d5",
                        "prev": "0x0000000000000000000000000000000000000000000000010000000000000002"
                    },
                    {
                        "current": "0x0000000200000000635ec3d34b0376da97d6a832700a7beb7c194333756180f4",
                        "key": "0x75a3dad7666ea68e605ea825bca902cdaf68444f907e515e8095d8dfac034b18",
                        "prev": "0x0000000200000000635d089f5a1419c485bdcd04b083b2044e34d315d23a32e9"
                    }
                ],
                "storageVariables": [
                    {
                        "name": "_packedAddressData",
                        "type": "mapping(address => uint256)",
                        "value": {
                            "pairs": [
                                {
                                    "key": "0x4b0376da97d6a832700a7beb7c194333756180f4",
                                    "value": {
                                        "current": "18446744073709551619",
                                        "prev": "18446744073709551618",
                                        "typeTag": 1
                                    }
                                },
                                {
                                    "key": "0x5a1419c485bdcd04b083b2044e34d315d23a32e9",
                                    "value": {
                                        "current": "18446744073709551616",
                                        "prev": "18446744073709551617",
                                        "typeTag": 1
                                    }
                                }
                            ],
                            "typeTag": 4
                        }
                    },
                    {
                        "name": "_packedOwnerships",
                        "type": "mapping(uint256 => uint256)",
                        "value": {
                            "pairs": [
                                {
                                    "key": "4850",
                                    "value": {
                                        "current": "53919893336737829204335017821896438278981980577664538192454770327796",
                                        "prev": "53919893336737663382445252122929212611873201100524893268925646254825",
                                        "typeTag": 1
                                    }
                                }
                            ],
                            "typeTag": 4
                        }
                    }
                ]
            }
        ]
    }
}