{
    "balance_change": {
        "balanceChanges": [
            {
                "account": "0x0cf420d889e6bb9027a2fa435b6ac1b15198c204",
                "assets": [
                    {
                        "address": "0xe33f363351186e185470f35f6deb94aba44347d8",
                        "amount": "12,000",
                        "iconUrl": "",
                        "isERC1155": false,
                        "isERC721": false,
                        "sign": false,
                        "value": ""
                    }
                ]
            },
            {
                "account": "0x9877e0c1e35ede82142d447217b7bfe248b734f9",
                "assets": [
                    {
                        "address": "0xe33f363351186e185470f35f6deb94aba44347d8",
                        "amount": "12,000",
                        "iconUrl": "",
                        "isERC1155": false,
                        "isERC721": false,
                        "sign": true,
                        "value": ""
                    }
                ]
            }
        ]
    },
    "profile": {
        "basic_info": {
            "baseFee": "",
            "blockNumber": 12885313,
            "callData": "0xa9059cbb0000000000000000000000009877e0c1e35ede82142d447217b7bfe248b734f900000000000000000000000000000000000000000000028a857425466f800000",
            "debugEnable": true,
            "errorInfo": "",
            "eventCount": 1,
            "feeRecipient": "0x7f101fe45e6649a6fb8f3f8b43ed03d353f2b90c",
            "formatValue": "0",
            "gasLimit": 300000,
            "gasPrice": "33",
            "gasUsed": 61433,
            "intTxnCount": 0,
            "internalRevert": false,
            "internalRevertMessage": "",
            "isContractCreation": false,
            "isFlashloan": false,
            "maxFee": "",
            "nonce": 280,
            "overwritedBlockNumber": -1,
            "priorityFee": "",
            "receiver": "0xe33f363351186e185470f35f6deb94aba44347d8",
            "revertMessage": "",
            "sender": "0x0cf420d889e6bb9027a2fa435b6ac1b15198c204",
            "simulationEnable": true,
            "sourceTxnHash": "0x2cd6811db5cdfd3e1e7c739f56a0229102f8c99e1a5cec83d3e4ead7dcbbb755",
            "status": true,
            "timestamp": "2021-07-23T22:36:27Z",
            "transactionFee": "0.002027289",
            "txnHash": "0x2cd6811db5cdfd3e1e7c739f56a0229102f8c99e1a5cec83d3e4ead7dcbbb755",
            "txnIndex": 137,
            "type": 0,
            "value": "0"
        },
        "fund_flow": [
            {
                "amount": "12,000",
                "from": "0x0cf420d889e6bb9027a2fa435b6ac1b15198c204",
                "id": 1,
                "isERC1155": false,
                "isERC721": false,
                "isReverted": false,
                "order": 1,
                "to": "0x9877e0c1e35ede82142d447217b7bfe248b734f9",
                "token": "0xe33f363351186e185470f35f6deb94aba44347d8"
            }
        ],
        "token_infos": [
            {
                "address": "0xe33f363351186e185470f35f6deb94aba44347d8",
                "decimals": 18
            },
            {
                "address": "0xeeeeeeeeeeeeeeeeeeeeeeeeeeeeeeeeeeeeeeee",
                "decimals": 18
            },
            {
                "address": "0xc02aaa39b223fe8d0a0e5c4f27ead9083c756cc2",
                "decimals": 18
            }
        ]
    },
    "address_label": {
        "labels": [
            {
                "address": "0xe33f363351186e185470f35f6deb94aba44347d8",
                "label": "BasidCoin: BASID Token"
            },
            {
                "address": "0x0000000000000000000000000000000000000001",
                "label": "Precompiled"
            },
            {
                "address": "0x0000000000000000000000000000000000000002",
                "label": "Precompiled"
            },
            {
                "address": "0x0000000000000000000000000000000000000003",
                "label": "Precompiled"
            },
            {
                "address": "0x0000000000000000000000000000000000000004",
                "label": "Precompiled"
            },
            {
                "address": "0xeeeeeeeeeeeeeeeeeeeeeeeeeeeeeeeeeeeeeeee",
                "label": "Ether"
            }
        ]
    },
    "trace": {
        "accountLabels": null,
        "dataMap": {
            "-1": {
                "invocation": {
                    "address": "0x0cf420d889e6bb9027a2fa435b6ac1b15198c204",
                    "callData": "",
                    "decodedMethod": null,
                    "errorInfo": "",
                    "fromAddress": "",
                    "gasUsed": 0,
                    "id": -1,
                    "methodDecoded": false,
                    "operation": "",
                    "output": "",
                    "revert": false,
                    "revertMessage": "",
                    "selector": "",
                    "status": false,
                    "value": ""
                },
                "nodeType": 0
            },
            "0": {
                "invocation": {
                    "address": "0xe33f363351186e185470f35f6deb94aba44347d8",
                    "callData": "0x0000000000000000000000009877e0c1e35ede82142d447217b7bfe248b734f900000000000000000000000000000000000000000000028a857425466f800000",
                    "decodedMethod": {
                        "callParams": [
                            {
                                "name": "_to",
                                "type": "address",
                                "value": "0x9877e0c1e35ede82142d447217b7bfe248b734f9"
                            },
                            {
                                "decimalAvailable": true,
                                "name": "_value",
                                "type": "uint256",
                                "value": "12,000,000,000,000,000,000,000"
                            }
                        ],
                        "constructorArguments": "",
                        "name": "transfer",
                        "returnParams": [
                            {
                                "name": "",
                                "type": "bool",
                                "value": true
                            }
                        ],
                        "signature": "transfer(address,uint256)"
                    },
                    "errorInfo": "",
                    "fromAddress": "0x0cf420d889e6bb9027a2fa435b6ac1b15198c204",
                    "gasUsed": 61433,
                    "id": 0,
                    "methodDecoded": true,
                    "operation": "CALL",
                    "output": "0x0000000000000000000000000000000000000000000000000000000000000001",
                    "revert": false,
                    "revertMessage": "",
                    "selector": "0xa9059cbb",
                    "status": true,
                    "value": "0"
                },
                "nodeType": 0
            },
            "1": {
                "event": {
                    "contract": "0xe33f363351186e185470f35f6deb94aba44347d8",
                    "decodedLog": {
                        "name": "Transfer",
                        "params": [
                            {
                                "name": "from",
                                "type": "address",
                                "value": "0x0cf420d889e6bb9027a2fa435b6ac1b15198c204"
                            },
                            {
                                "name": "to",
                                "type": "address",
                                "value": "0x9877e0c1e35ede82142d447217b7bfe248b734f9"
                            },
                            {
                                "decimalAvailable": true,
                                "name": "value",
                                "type": "uint256",
                                "value": "12,000,000,000,000,000,000,000"
                            }
                        ],
                        "signature": "Transfer(address,address,uint256)"
                    },
                    "id": 1,
                    "logData": "0x00000000000000000000000000000000000000000000028a857425466f800000",
                    "logDecoded": true,
                    "operation": "EVENT",
                    "revert": false,
                    "status": true,
                    "topics": [
                        "0xddf252ad1be2c89b69c2b068fc378daa952ba7f163c4a11628f55a4df523b3ef",
                        "0x0000000000000000000000000cf420d889e6bb9027a2fa435b6ac1b15198c204",
                        "0x0000000000000000000000009877e0c1e35ede82142d447217b7bfe248b734f9"
                    ]
                },
                "nodeType": 1
            }
        },
        "gasFlame": [
            {
                "children": [
                    {
                        "children": [
                            {
                                "children": [],
                                "depth": 0,
                                "name": "Initial Gas",
                                "value": 21656
                            },
                            {
                                "children": [],
                                "depth": 0,
                                "name": "Executed Gas",
                                "value": 39777
                            }
                        ],
                        "depth": -1,
                        "name": "Actual Gas Used",
                        "value": 61433
                    },
                    {
                        "children": [],
                        "depth": -1,
                        "name": "Refunded Gas",
                        "value": 0
                    }
                ],
                "depth": -2,
                "name": "Total Gas",
                "value": 61433
            }
        ],
        "isConfirmed": true,
        "mainTrace": [
            {
                "children": [
                    {
                        "children": [
                            {
                                "children": [],
                                "depth": 1,
                                "id": 1,
                                "order": 1
                            }
                        ],
                        "depth": 0,
                        "id": 0,
                        "order": 0
                    }
                ],
                "depth": -1,
                "id": -1,
                "order": -1
            }
        ],
        "mainTraceNodeCount": 2,
        "parentIdMap": {
            "0": -1,
            "1": 0
        },
        "tidyTrace": [
            {
                "children": [
                    {
                        "children": [
                            {
                                "children": [],
                                "depth": 1,
                                "id": 1,
                                "order": 1
                            }
                        ],
                        "depth": 0,
                        "id": 0,
                        "order": 0
                    }
                ],
                "depth": -1,
                "id": -1,
                "order": -1
            }
        ],
        "tidyTraceNodeCount": 2
    },
    "state_change": {
        "stateChanges": [
            {
                "address": "0xe33f363351186e185470f35f6deb94aba44347d8",
                "erc": "ERC-20",
                "slots": [
                    {
                        "current": "0x00000000000000000000000000000000000000000000028a857425466f800000",
                        "key": "0x8def0e22d0eecf5cb612947e10fe4d21d162ba60ad6d4e549b1a5710cc6174b2",
                        "prev": "0x0000000000000000000000000000000000000000000000000000000000000000"
                    },
                    {
                        "current": "0x00000000000000000000000000000000000000000067dd6ae37f8ce427d48400",
                        "key": "0x982ec82dec33289a2384500d6052af56ab813402636db098fd08da6f1044d373",
                        "prev": "0x00000000000000000000000000000000000000000067dff568f3b22a97548400"
                    }
                ],
                "storageVariables": [
                    {
                        "name": "balanceOf",
                        "type": "mapping(address => uint256)",
                        "value": {
                            "pairs": [
                                {
                                    "key": "0x0cf420d889e6bb9027a2fa435b6ac1b15198c204",
                                    "value": {
                                        "current": "125564974160868890000000000",
                                        "prev": "125576974160868890000000000",
                                        "typeTag": 1
                                    }
                                },
                                {
                                    "key": "0x9877e0c1e35ede82142d447217b7bfe248b734f9",
                                    "value": {
                                        "current": "12000000000000000000000",
                                        "prev": "0",
                                        "typeTag": 1
                                    }
                                }
                            ],
                            "typeTag": 4
                        }
                    }
                ]
            }
        ]
    }
}