{
    "balance_change": {
        "balanceChanges": [
            {
                "account": "0x6a3eb79e1c4023f1610ff046c5dc30f9790d326f",
                "assets": [
                    {
                        "address": "0x5362c0d267d2d5946a9291d4739c05faec636c2c",
                        "amount": "627,368.14",
                        "iconUrl": "",
                        "isERC1155": false,
                        "isERC721": false,
                        "sign": false,
                        "value": ""
                    }
                ]
            },
            {
                "account": "0xae476d34e0be1d9e99da1fea5e7490e18e6c1858",
                "assets": [
                    {
                        "address": "0x5362c0d267d2d5946a9291d4739c05faec636c2c",
                        "amount": "627,368.14",
                        "iconUrl": "",
                        "isERC1155": false,
                        "isERC721": false,
                        "sign": true,
                        "value": ""
                    }
                ]
            }
        ]
    },
    "profile": {
        "basic_info": {
            "baseFee": "",
            "blockNumber": 8448617,
            "callData": "0xa9059cbb000000000000000000000000ae476d34e0be1d9e99da1fea5e7490e18e6c18580000000000000000000000000000000000000000000084d9b1ec9f22fe2e0000",
            "debugEnable": true,
            "errorInfo": "",
            "eventCount": 1,
            "feeRecipient": "0x44fd3ab8381cc3d14afa7c4af7fd13cdc65026e1",
            "formatValue": "0",
            "gasLimit": 60000,
            "gasPrice": "20",
            "gasUsed": 52341,
            "intTxnCount": 0,
            "internalRevert": false,
            "internalRevertMessage": "",
            "isContractCreation": false,
            "isFlashloan": false,
            "maxFee": "",
            "nonce": 297009,
            "overwritedBlockNumber": -1,
            "priorityFee": "",
            "receiver": "0x5362c0d267d2d5946a9291d4739c05faec636c2c",
            "revertMessage": "",
            "sender": "0x6a3eb79e1c4023f1610ff046c5dc30f9790d326f",
            "simulationEnable": true,
            "sourceTxnHash": "0x2c8723673ef2d9b3b25bab766bc4e14a15f10dfe0233038cb93f4d4606799658",
            "status": true,
            "timestamp": "2019-08-30T01:29:58Z",
            "transactionFee": "0.00104682",
            "txnHash": "0x2c8723673ef2d9b3b25bab766bc4e14a15f10dfe0233038cb93f4d4606799658",
            "txnIndex": 87,
            "type": 0,
            "value": "0"
        },
        "fund_flow": [
            {
                "amount": "627,368.14",
                "from": "0x6a3eb79e1c4023f1610ff046c5dc30f9790d326f",
                "id": 1,
                "isERC1155": false,
                "isERC721": false,
                "isReverted": false,
                "order": 1,
                "to": "0xae476d34e0be1d9e99da1fea5e7490e18e6c1858",
                "token": "0x5362c0d267d2d5946a9291d4739c05faec636c2c"
            }
        ],
        "token_infos": [
            {
                "address": "0x5362c0d267d2d5946a9291d4739c05faec636c2c",
                "decimals": 18
            },
            {
                "address": "0xc02aaa39b223fe8d0a0e5c4f27ead9083c756cc2",
                "decimals": 18
            },
            {
                "address": "0xeeeeeeeeeeeeeeeeeeeeeeeeeeeeeeeeeeeeeeee",
                "decimals": 18
            }
        ]
    },
    "address_label": {
        "labels": [
            {
                "address": "0xeeeeeeeeeeeeeeeeeeeeeeeeeeeeeeeeeeeeeeee",
                "label": "Ether"
            },
            {
                "address": "0x5362c0d267d2d5946a9291d4739c05faec636c2c",
                "label": "B95 (B95)"
            },
            {
                "address": "0xae476d34e0be1d9e99da1fea5e7490e18e6c1858",
                "label": "ZB.COM"
            },
            {
                "address": "0x0000000000000000000000000000000000000001",
                "label": "Precompiled"
            },
            {
                "address": "0x0000000000000000000000000000000000000002",
                "label": "Precompiled"
            },
            {
                "address": "0x0000000000000000000000000000000000000003",
                "label": "Precompiled"
            },
            {
                "address": "0x0000000000000000000000000000000000000004",
                "label": "Precompiled"
            }
        ]
    },
    "trace": {
        "accountLabels": null,
        "dataMap": {
            "-1": {
                "invocation": {
                    "address": "0x6a3eb79e1c4023f1610ff046c5dc30f9790d326f",
                    "callData": "",
                    "decodedMethod": null,
                    "errorInfo": "",
                    "fromAddress": "",
                    "gasUsed": 0,
                    "id": -1,
                    "methodDecoded": false,
                    "operation": "",
                    "output": "",
                    "revert": false,
                    "revertMessage": "",
                    "selector": "",
                    "status": false,
                    "value": ""
                },
                "nodeType": 0
            },
            "0": {
                "invocation": {
                    "address": "0x5362c0d267d2d5946a9291d4739c05faec636c2c",
                    "callData": "0x000000000000000000000000ae476d34e0be1d9e99da1fea5e7490e18e6c18580000000000000000000000000000000000000000000084d9b1ec9f22fe2e0000",
                    "decodedMethod": {
                        "callParams": [
                            {
                                "name": "_to",
                                "type": "address",
                                "value": "0xae476d34e0be1d9e99da1fea5e7490e18e6c1858"
                            },
                            {
                                "decimalAvailable": true,
                                "name": "_value",
                                "type": "uint256",
                                "value": "627,368,140,000,000,000,000,000"
                            }
                        ],
                        "constructorArguments": "",
                        "name": "transfer",
                        "returnParams": [
                            {
                                "name": "",
                                "type": "bool",
                                "value": true
                            }
                        ],
                        "signature": "transfer(address,uint256)"
                    },
                    "errorInfo": "",
                    "fromAddress": "0x6a3eb79e1c4023f1610ff046c5dc30f9790d326f",
                    "gasUsed": 52341,
                    "id": 0,
                    "methodDecoded": true,
                    "operation": "CALL",
                    "output": "0x0000000000000000000000000000000000000000000000000000000000000001",
                    "revert": false,
                    "revertMessage": "",
                    "selector": "0xa9059cbb",
                    "status": true,
                    "value": "0"
                },
                "nodeType": 0
            },
            "1": {
                "event": {
                    "contract": "0x5362c0d267d2d5946a9291d4739c05faec636c2c",
                    "decodedLog": {
                        "name": "Transfer",
                        "params": [
                            {
                                "name": "from",
                                "type": "address",
                                "value": "0x6a3eb79e1c4023f1610ff046c5dc30f9790d326f"
                            },
                            {
                                "name": "to",
                                "type": "address",
                                "value": "0xae476d34e0be1d9e99da1fea5e7490e18e6c1858"
                            },
                            {
                                "decimalAvailable": true,
                                "name": "value",
                                "type": "uint256",
                                "value": "627,368,140,000,000,000,000,000"
                            }
                        ],
                        "signature": "Transfer(address,address,uint256)"
                    },
                    "id": 1,
                    "logData": "0x0000000000000000000000000000000000000000000084d9b1ec9f22fe2e0000",
                    "logDecoded": true,
                    "operation": "EVENT",
                    "revert": false,
                    "status": true,
                    "topics": [
                        "0xddf252ad1be2c89b69c2b068fc378daa952ba7f163c4a11628f55a4df523b3ef",
                        "0x0000000000000000000000006a3eb79e1c4023f1610ff046c5dc30f9790d326f",
                        "0x000000000000000000000000ae476d34e0be1d9e99da1fea5e7490e18e6c1858"
                    ]
                },
                "nodeType": 1
            }
        },
        "gasFlame": [
            {
                "children": [
                    {
                        "children": [
                            {
                                "children": [],
                                "depth": 0,
                                "name": "Initial Gas",
                                "value": 23320
                            },
                            {
                                "children": [],
                                "depth": 0,
                                "name": "Executed Gas",
                                "value": 29021
                            }
                        ],
                        "depth": -1,
                        "name": "Actual Gas Used",
                        "value": 52341
                    },
                    {
                        "children": [],
                        "depth": -1,
                        "name": "Refunded Gas",
                        "value": 0
                    }
                ],
                "depth": -2,
                "name": "Total Gas",
                "value": 52341
            }
        ],
        "isConfirmed": true,
        "mainTrace": [
            {
                "children": [
                    {
                        "children": [
                            {
                                "children": [],
                                "depth": 1,
                                "id": 1,
                                "order": 1
                            }
                        ],
                        "depth": 0,
                        "id": 0,
                        "order": 0
                    }
                ],
                "depth": -1,
                "id": -1,
                "order": -1
            }
        ],
        "mainTraceNodeCount": 2,
        "parentIdMap": {
            "0": -1,
            "1": 0
        },
        "tidyTrace": [
            {
                "children": [
                    {
                        "children": [
                            {
                                "children": [],
                                "depth": 1,
                                "id": 1,
                                "order": 1
                            }
                        ],
                        "depth": 0,
                        "id": 0,
                        "order": 0
                    }
                ],
                "depth": -1,
                "id": -1,
                "order": -1
            }
        ],
        "tidyTraceNodeCount": 2
    },
    "state_change": {
        "stateChanges": [
            {
                "address": "0x5362c0d267d2d5946a9291d4739c05faec636c2c",
                "erc": "ERC-20",
                "slots": [
                    {
                        "current": "0x0000000000000000000000000000000000000000027f4aa62a9efdc9827d5c00",
                        "key": "0x1f28ab5d98284c58d550161cb9378fbceeb8323d35390b56130d42af6865818e",
                        "prev": "0x0000000000000000000000000000000000000000027fcf7fdc8b9cec80ab5c00"
                    },
                    {
                        "current": "0x0000000000000000000000000000000000000000000084d9b1ec9f22fe2e0000",
                        "key": "0x158f248f615b88f6198e99d599654af1ceabfb6b83e4168a7978884b45c59b42",
                        "prev": "0x0000000000000000000000000000000000000000000000000000000000000000"
                    }
                ],
                "storageVariables": [
                    {
                        "name": "balances",
                        "type": "mapping(address => uint256)",
                        "value": {
                            "pairs": [
                                {
                                    "key": "0x6a3eb79e1c4023f1610ff046c5dc30f9790d326f",
                                    "value": {
                                        "current": "772856119084167670001392640",
                                        "prev": "773483487224167670001392640",
                                        "typeTag": 1
                                    }
                                },
                                {
                                    "key": "0xae476d34e0be1d9e99da1fea5e7490e18e6c1858",
                                    "value": {
                                        "current": "627368140000000000000000",
                                        "prev": "0",
                                        "typeTag": 1
                                    }
                                }
                            ],
                            "typeTag": 4
                        }
                    }
                ]
            }
        ]
    }
}