{
    "balance_change": {
        "balanceChanges": []
    },
    "profile": {
        "basic_info": {
            "baseFee": "",
            "blockNumber": 8055375,
            "callData": "0xb2658a71000000000000000000000000949e07f549351d368986be91238c503830214f9c0000000000000000000000000000000000000000000000000000000000000301",
            "debugEnable": true,
            "errorInfo": "execution reverted",
            "eventCount": 0,
            "feeRecipient": "0x52bc44d5378309ee2abf1539bf71de1b7d7be3b5",
            "formatValue": "0",
            "gasLimit": 1000000,
            "gasPrice": "5",
            "gasUsed": 32065,
            "intTxnCount": 1,
            "internalRevert": true,
            "internalRevertMessage": "",
            "isContractCreation": false,
            "isFlashloan": false,
            "maxFee": "",
            "nonce": 533,
            "overwritedBlockNumber": -1,
            "priorityFee": "",
            "receiver": "0x6ac4e0b7244ca9806cfbaf778a73650dc7b110cd",
            "revertMessage": "",
            "sender": "0x5212093b12dbfb0a09c8d8e464ebc71ee513d44f",
            "simulationEnable": true,
            "sourceTxnHash": "0x2c80a65cbdcb008bba5409a101b15b9bae66239ed263af3ee956021882e97543",
            "status": false,
            "timestamp": "2019-06-29T22:10:35Z",
            "transactionFee": "0.000160325",
            "txnHash": "0x2c80a65cbdcb008bba5409a101b15b9bae66239ed263af3ee956021882e97543",
            "txnIndex": 17,
            "type": 0,
            "value": "0"
        },
        "fund_flow": [],
        "token_infos": [
            {
                "address": "0xc02aaa39b223fe8d0a0e5c4f27ead9083c756cc2",
                "decimals": 18
            },
            {
                "address": "0xeeeeeeeeeeeeeeeeeeeeeeeeeeeeeeeeeeeeeeee",
                "decimals": 18
            }
        ]
    },
    "address_label": {
        "labels": [
            {
                "address": "0x949e07f549351d368986be91238c503830214f9c",
                "label": "CloneableWallet"
            },
            {
                "address": "0xc2d8db56c50f253d1279da6760345fe78f784ed9",
                "label": "CryptoMibs: Marble"
            },
            {
                "address": "0x0000000000000000000000000000000000000001",
                "label": "Precompiled"
            },
            {
                "address": "0x0000000000000000000000000000000000000002",
                "label": "Precompiled"
            },
            {
                "address": "0x0000000000000000000000000000000000000003",
                "label": "Precompiled"
            },
            {
                "address": "0x0000000000000000000000000000000000000004",
                "label": "Precompiled"
            },
            {
                "address": "0xeeeeeeeeeeeeeeeeeeeeeeeeeeeeeeeeeeeeeeee",
                "label": "Ether"
            }
        ]
    },
    "trace": {
        "accountLabels": null,
        "dataMap": {
            "-1": {
                "invocation": {
                    "address": "0x5212093b12dbfb0a09c8d8e464ebc71ee513d44f",
                    "callData": "",
                    "decodedMethod": null,
                    "errorInfo": "",
                    "fromAddress": "",
                    "gasUsed": 0,
                    "id": -1,
                    "methodDecoded": false,
                    "operation": "",
                    "output": "",
                    "revert": false,
                    "revertMessage": "",
                    "selector": "",
                    "status": false,
                    "value": ""
                },
                "nodeType": 0
            },
            "0": {
                "invocation": {
                    "address": "0x6ac4e0b7244ca9806cfbaf778a73650dc7b110cd",
                    "callData": "0x000000000000000000000000949e07f549351d368986be91238c503830214f9c0000000000000000000000000000000000000000000000000000000000000301",
                    "decodedMethod": null,
                    "errorInfo": "execution reverted",
                    "fromAddress": "0x5212093b12dbfb0a09c8d8e464ebc71ee513d44f",
                    "gasUsed": 32065,
                    "id": 0,
                    "methodDecoded": false,
                    "operation": "CALL",
                    "output": "",
                    "revert": true,
                    "revertMessage": "",
                    "selector": "0xb2658a71",
                    "status": false,
                    "value": "0"
                },
                "nodeType": 0
            },
            "1": {
                "invocation": {
                    "address": "0xc2d8db56c50f253d1279da6760345fe78f784ed9",
                    "callData": "0x000000000000000000000000b8d23c26aa6f35b6920489512ce9df6a81cd7fd6000000000000000000000000949e07f549351d368986be91238c503830214f9c0000000000000000000000000000000000000000000000000000000000000301",
                    "decodedMethod": {
                        "callParams": [
                            {
                                "name": "_from",
                                "type": "address",
                                "value": "0xb8d23c26aa6f35b6920489512ce9df6a81cd7fd6"
                            },
                            {
                                "name": "_to",
                                "type": "address",
                                "value": "0x949e07f549351d368986be91238c503830214f9c"
                            },
                            {
                                "name": "_tokenId",
                                "type": "uint256",
                                "value": "769"
                            }
                        ],
                        "constructorArguments": "",
                        "name": "transferPrizeFromGame",
                        "returnParams": [],
                        "signature": "transferPrizeFromGame(address,address,uint256)"
                    },
                    "errorInfo": "execution reverted",
                    "fromAddress": "0x6ac4e0b7244ca9806cfbaf778a73650dc7b110cd",
                    "gasUsed": 2155,
                    "id": 1,
                    "methodDecoded": true,
                    "operation": "CALL",
                    "output": "",
                    "revert": true,
                    "revertMessage": "",
                    "selector": "0x9b9b8aea",
                    "status": false,
                    "value": "0"
                },
                "nodeType": 0
            }
        },
        "gasFlame": [
            {
                "children": [
                    {
                        "children": [
                            {
                                "children": [],
                                "depth": 0,
                                "name": "Initial Gas",
                                "value": 22936
                            },
                            {
                                "children": [
                                    {
                                        "children": [],
                                        "depth": 1,
                                        "name": "transferPrizeFromGame",
                                        "value": 2155
                                    }
                                ],
                                "depth": 0,
                                "name": "Executed Gas",
                                "value": 9129
                            }
                        ],
                        "depth": -1,
                        "name": "Actual Gas Used",
                        "value": 32065
                    },
                    {
                        "children": [],
                        "depth": -1,
                        "name": "Refunded Gas",
                        "value": 0
                    }
                ],
                "depth": -2,
                "name": "Total Gas",
                "value": 32065
            }
        ],
        "isConfirmed": true,
        "mainTrace": [
            {
                "children": [
                    {
                        "children": [
                            {
                                "children": [],
                                "depth": 1,
                                "id": 1,
                                "order": 1
                            }
                        ],
                        "depth": 0,
                        "id": 0,
                        "order": 0
                    }
                ],
                "depth": -1,
                "id": -1,
                "order": -1
            }
        ],
        "mainTraceNodeCount": 2,
        "parentIdMap": {
            "0": -1,
            "1": 0
        },
        "tidyTrace": [
            {
                "children": [
                    {
                        "children": [
                            {
                                "children": [],
                                "depth": 1,
                                "id": 1,
                                "order": 1
                            }
                        ],
                        "depth": 0,
                        "id": 0,
                        "order": 0
                    }
                ],
                "depth": -1,
                "id": -1,
                "order": -1
            }
        ],
        "tidyTraceNodeCount": 2
    },
    "state_change": {
        "stateChanges": []
    }
}