{
    "balance_change": {
        "balanceChanges": [
            {
                "account": "0x402b9c5b6c11e3a44082c645a542062e28ad4755",
                "assets": [
                    {
                        "address": "0x88b85730bea7873984b2506525b2011261958a3d",
                        "amount": "10,000",
                        "iconUrl": "",
                        "isERC1155": false,
                        "isERC721": false,
                        "sign": false,
                        "value": ""
                    }
                ]
            },
            {
                "account": "0xc77b5a61f8a7b7d6c6b1f125a51d00cce25d564c",
                "assets": [
                    {
                        "address": "0x88b85730bea7873984b2506525b2011261958a3d",
                        "amount": "10,000",
                        "iconUrl": "",
                        "isERC1155": false,
                        "isERC721": false,
                        "sign": true,
                        "value": ""
                    }
                ]
            }
        ]
    },
    "profile": {
        "basic_info": {
            "baseFee": "",
            "blockNumber": 6691661,
            "callData": "0xa9059cbb000000000000000000000000c77b5a61f8a7b7d6c6b1f125a51d00cce25d564c00000000000000000000000000000000000000000000021e19e0c9bab2400000",
            "debugEnable": true,
            "errorInfo": "",
            "eventCount": 1,
            "feeRecipient": "0x5a0b54d5dc17e0aadc383d2db43b0a0d3e029c4c",
            "formatValue": "0",
            "gasLimit": 52966,
            "gasPrice": "41",
            "gasUsed": 52966,
            "intTxnCount": 0,
            "internalRevert": false,
            "internalRevertMessage": "",
            "isContractCreation": false,
            "isFlashloan": false,
            "maxFee": "",
            "nonce": 272,
            "overwritedBlockNumber": -1,
            "priorityFee": "",
            "receiver": "0x88b85730bea7873984b2506525b2011261958a3d",
            "revertMessage": "",
            "sender": "0x402b9c5b6c11e3a44082c645a542062e28ad4755",
            "simulationEnable": true,
            "sourceTxnHash": "0x2c4f1d198ee0b7c2bfb4e6856ae0bf91926864f392f07243a7e8c193b37a7958",
            "status": true,
            "timestamp": "2018-11-12T16:15:41Z",
            "transactionFee": "0.002171606",
            "txnHash": "0x2c4f1d198ee0b7c2bfb4e6856ae0bf91926864f392f07243a7e8c193b37a7958",
            "txnIndex": 141,
            "type": 0,
            "value": "0"
        },
        "fund_flow": [
            {
                "amount": "10,000",
                "from": "0x402b9c5b6c11e3a44082c645a542062e28ad4755",
                "id": 1,
                "isERC1155": false,
                "isERC721": false,
                "isReverted": false,
                "order": 1,
                "to": "0xc77b5a61f8a7b7d6c6b1f125a51d00cce25d564c",
                "token": "0x88b85730bea7873984b2506525b2011261958a3d"
            }
        ],
        "token_infos": [
            {
                "address": "0x88b85730bea7873984b2506525b2011261958a3d",
                "decimals": 18
            },
            {
                "address": "0xc02aaa39b223fe8d0a0e5c4f27ead9083c756cc2",
                "decimals": 18
            },
            {
                "address": "0xeeeeeeeeeeeeeeeeeeeeeeeeeeeeeeeeeeeeeeee",
                "decimals": 18
            }
        ]
    },
    "address_label": {
        "labels": [
            {
                "address": "0x0000000000000000000000000000000000000004",
                "label": "Precompiled"
            },
            {
                "address": "0xeeeeeeeeeeeeeeeeeeeeeeeeeeeeeeeeeeeeeeee",
                "label": "Ether"
            },
            {
                "address": "0x88b85730bea7873984b2506525b2011261958a3d",
                "label": "USBOOM (USB)"
            },
            {
                "address": "0x0000000000000000000000000000000000000001",
                "label": "Precompiled"
            },
            {
                "address": "0x0000000000000000000000000000000000000002",
                "label": "Precompiled"
            },
            {
                "address": "0x0000000000000000000000000000000000000003",
                "label": "Precompiled"
            }
        ]
    },
    "trace": {
        "accountLabels": null,
        "dataMap": {
            "-1": {
                "invocation": {
                    "address": "0x402b9c5b6c11e3a44082c645a542062e28ad4755",
                    "callData": "",
                    "decodedMethod": null,
                    "errorInfo": "",
                    "fromAddress": "",
                    "gasUsed": 0,
                    "id": -1,
                    "methodDecoded": false,
                    "operation": "",
                    "output": "",
                    "revert": false,
                    "revertMessage": "",
                    "selector": "",
                    "status": false,
                    "value": ""
                },
                "nodeType": 0
            },
            "0": {
                "invocation": {
                    "address": "0x88b85730bea7873984b2506525b2011261958a3d",
                    "callData": "0x000000000000000000000000c77b5a61f8a7b7d6c6b1f125a51d00cce25d564c00000000000000000000000000000000000000000000021e19e0c9bab2400000",
                    "decodedMethod": {
                        "callParams": [
                            {
                                "name": "recipient",
                                "type": "address",
                                "value": "0xc77b5a61f8a7b7d6c6b1f125a51d00cce25d564c"
                            },
                            {
                                "decimalAvailable": true,
                                "name": "amount",
                                "type": "uint256",
                                "value": "10,000,000,000,000,000,000,000"
                            }
                        ],
                        "constructorArguments": "",
                        "name": "transfer",
                        "returnParams": [
                            {
                                "name": "",
                                "type": "bool",
                                "value": true
                            }
                        ],
                        "signature": "transfer(address,uint256)"
                    },
                    "errorInfo": "",
                    "fromAddress": "0x402b9c5b6c11e3a44082c645a542062e28ad4755",
                    "gasUsed": 52966,
                    "id": 0,
                    "methodDecoded": true,
                    "operation": "CALL",
                    "output": "0x0000000000000000000000000000000000000000000000000000000000000001",
                    "revert": false,
                    "revertMessage": "",
                    "selector": "0xa9059cbb",
                    "status": true,
                    "value": "0"
                },
                "nodeType": 0
            },
            "1": {
                "event": {
                    "contract": "0x88b85730bea7873984b2506525b2011261958a3d",
                    "decodedLog": {
                        "name": "Transfer",
                        "params": [
                            {
                                "name": "from",
                                "type": "address",
                                "value": "0x402b9c5b6c11e3a44082c645a542062e28ad4755"
                            },
                            {
                                "name": "to",
                                "type": "address",
                                "value": "0xc77b5a61f8a7b7d6c6b1f125a51d00cce25d564c"
                            },
                            {
                                "decimalAvailable": true,
                                "name": "value",
                                "type": "uint256",
                                "value": "10,000,000,000,000,000,000,000"
                            }
                        ],
                        "signature": "Transfer(address,address,uint256)"
                    },
                    "id": 1,
                    "logData": "0x00000000000000000000000000000000000000000000021e19e0c9bab2400000",
                    "logDecoded": true,
                    "operation": "EVENT",
                    "revert": false,
                    "status": true,
                    "topics": [
                        "0xddf252ad1be2c89b69c2b068fc378daa952ba7f163c4a11628f55a4df523b3ef",
                        "0x000000000000000000000000402b9c5b6c11e3a44082c645a542062e28ad4755",
                        "0x000000000000000000000000c77b5a61f8a7b7d6c6b1f125a51d00cce25d564c"
                    ]
                },
                "nodeType": 1
            }
        },
        "gasFlame": [
            {
                "children": [
                    {
                        "children": [
                            {
                                "children": [],
                                "depth": 0,
                                "name": "Initial Gas",
                                "value": 23256
                            },
                            {
                                "children": [],
                                "depth": 0,
                                "name": "Executed Gas",
                                "value": 29710
                            }
                        ],
                        "depth": -1,
                        "name": "Actual Gas Used",
                        "value": 52966
                    },
                    {
                        "children": [],
                        "depth": -1,
                        "name": "Refunded Gas",
                        "value": 0
                    }
                ],
                "depth": -2,
                "name": "Total Gas",
                "value": 52966
            }
        ],
        "isConfirmed": true,
        "mainTrace": [
            {
                "children": [
                    {
                        "children": [
                            {
                                "children": [],
                                "depth": 1,
                                "id": 1,
                                "order": 1
                            }
                        ],
                        "depth": 0,
                        "id": 0,
                        "order": 0
                    }
                ],
                "depth": -1,
                "id": -1,
                "order": -1
            }
        ],
        "mainTraceNodeCount": 2,
        "parentIdMap": {
            "0": -1,
            "1": 0
        },
        "tidyTrace": [
            {
                "children": [
                    {
                        "children": [
                            {
                                "children": [],
                                "depth": 1,
                                "id": 1,
                                "order": 1
                            }
                        ],
                        "depth": 0,
                        "id": 0,
                        "order": 0
                    }
                ],
                "depth": -1,
                "id": -1,
                "order": -1
            }
        ],
        "tidyTraceNodeCount": 2
    },
    "state_change": {
        "stateChanges": [
            {
                "address": "0x88b85730bea7873984b2506525b2011261958a3d",
                "erc": "",
                "slots": [
                    {
                        "current": "0x0000000000000000000000000000000000000000000119a371c8cdfe9b400000",
                        "key": "0x2dbd80317e6b4fc0536064bc494220d852bc256828dc8934a034216caa42febb",
                        "prev": "0x000000000000000000000000000000000000000000011bc18ba997b94d800000"
                    },
                    {
                        "current": "0x00000000000000000000000000000000000000000000021e19e0c9bab2400000",
                        "key": "0xe999ee7459074722760dd6f38976e30fab5e22497ad650e36db431eb5b224518",
                        "prev": "0x0000000000000000000000000000000000000000000000000000000000000000"
                    }
                ],
                "storageVariables": []
            }
        ]
    }
}