{
    "balance_change": {
        "balanceChanges": [
            {
                "account": "0x0b779e6815558274a1b575d2f5ab195a0dddfe37",
                "assets": [
                    {
                        "address": "0x1796ae0b0fa4862485106a0de9b654efe301d0b2",
                        "amount": "230.285757952025015261",
                        "iconUrl": "https://assets.blocksec.com/icon/90f54e6b5540d760437e4b2c0a2e634653209efc0d557d41c49802cea3f3ee69.png",
                        "isERC1155": false,
                        "isERC721": false,
                        "sign": false,
                        "value": "979.5901333"
                    }
                ]
            },
            {
                "account": "0x9e9791f69faed44219eab0919ce9613c821bb7eb",
                "assets": [
                    {
                        "address": "0x1796ae0b0fa4862485106a0de9b654efe301d0b2",
                        "amount": "230.285757952025015261",
                        "iconUrl": "https://assets.blocksec.com/icon/90f54e6b5540d760437e4b2c0a2e634653209efc0d557d41c49802cea3f3ee69.png",
                        "isERC1155": false,
                        "isERC721": false,
                        "sign": true,
                        "value": "979.5901333"
                    }
                ]
            }
        ]
    },
    "profile": {
        "basic_info": {
            "baseFee": "146.996891092",
            "blockNumber": 14075906,
            "callData": "0xa9059cbb0000000000000000000000009e9791f69faed44219eab0919ce9613c821bb7eb00000000000000000000000000000000000000000000000c7bdb5cc04a09b3dd",
            "debugEnable": true,
            "errorInfo": "",
            "eventCount": 1,
            "feeRecipient": "0xea674fdde714fd979de3edf0f56aa9716b898ec8",
            "formatValue": "0",
            "gasLimit": 78805,
            "gasPrice": "148.496891092",
            "gasUsed": 47737,
            "intTxnCount": 0,
            "internalRevert": false,
            "internalRevertMessage": "",
            "isContractCreation": false,
            "isFlashloan": false,
            "maxFee": "179.92339943",
            "nonce": 35,
            "overwritedBlockNumber": -1,
            "priorityFee": "1.5",
            "receiver": "0x1796ae0b0fa4862485106a0de9b654efe301d0b2",
            "revertMessage": "",
            "sender": "0x0b779e6815558274a1b575d2f5ab195a0dddfe37",
            "simulationEnable": true,
            "sourceTxnHash": "0x2c15299a8df13c4b0f260841f6e16d674635edbbc63a5a3f0a79b9cb64ce2ec3",
            "status": true,
            "timestamp": "2022-01-25T16:44:41Z",
            "transactionFee": "0.007088796090058804",
            "txnHash": "0x2c15299a8df13c4b0f260841f6e16d674635edbbc63a5a3f0a79b9cb64ce2ec3",
            "txnIndex": 303,
            "type": 2,
            "value": "0"
        },
        "fund_flow": [
            {
                "amount": "230.285757952025015261",
                "from": "0x0b779e6815558274a1b575d2f5ab195a0dddfe37",
                "id": 1,
                "isERC1155": false,
                "isERC721": false,
                "isReverted": false,
                "order": 1,
                "to": "0x9e9791f69faed44219eab0919ce9613c821bb7eb",
                "token": "0x1796ae0b0fa4862485106a0de9b654efe301d0b2"
            }
        ],
        "token_infos": [
            {
                "address": "0x1796ae0b0fa4862485106a0de9b654efe301d0b2",
                "decimals": 18
            },
            {
                "address": "0xc02aaa39b223fe8d0a0e5c4f27ead9083c756cc2",
                "decimals": 18
            },
            {
                "address": "0xeeeeeeeeeeeeeeeeeeeeeeeeeeeeeeeeeeeeeeee",
                "decimals": 18
            }
        ]
    },
    "address_label": {
        "labels": [
            {
                "address": "0xeeeeeeeeeeeeeeeeeeeeeeeeeeeeeeeeeeeeeeee",
                "label": "Ether"
            },
            {
                "address": "0x1796ae0b0fa4862485106a0de9b654efe301d0b2",
                "label": "Polychain Monsters: PMON Token"
            },
            {
                "address": "0x0000000000000000000000000000000000000001",
                "label": "Precompiled"
            },
            {
                "address": "0x0000000000000000000000000000000000000002",
                "label": "Precompiled"
            },
            {
                "address": "0x0000000000000000000000000000000000000003",
                "label": "Precompiled"
            },
            {
                "address": "0x0000000000000000000000000000000000000004",
                "label": "Precompiled"
            }
        ]
    },
    "trace": {
        "accountLabels": null,
        "dataMap": {
            "-1": {
                "invocation": {
                    "address": "0x0b779e6815558274a1b575d2f5ab195a0dddfe37",
                    "callData": "",
                    "decodedMethod": null,
                    "errorInfo": "",
                    "fromAddress": "",
                    "gasUsed": 0,
                    "id": -1,
                    "methodDecoded": false,
                    "operation": "",
                    "output": "",
                    "revert": false,
                    "revertMessage": "",
                    "selector": "",
                    "status": false,
                    "value": ""
                },
                "nodeType": 0
            },
            "0": {
                "invocation": {
                    "address": "0x1796ae0b0fa4862485106a0de9b654efe301d0b2",
                    "callData": "0x0000000000000000000000009e9791f69faed44219eab0919ce9613c821bb7eb00000000000000000000000000000000000000000000000c7bdb5cc04a09b3dd",
                    "decodedMethod": {
                        "callParams": [
                            {
                                "name": "recipient",
                                "type": "address",
                                "value": "0x9e9791f69faed44219eab0919ce9613c821bb7eb"
                            },
                            {
                                "decimalAvailable": true,
                                "name": "amount",
                                "type": "uint256",
                                "value": "230,285,757,952,025,015,261"
                            }
                        ],
                        "constructorArguments": "",
                        "name": "transfer",
                        "returnParams": [
                            {
                                "name": "",
                                "type": "bool",
                                "value": true
                            }
                        ],
                        "signature": "transfer(address,uint256)"
                    },
                    "errorInfo": "",
                    "fromAddress": "0x0b779e6815558274a1b575d2f5ab195a0dddfe37",
                    "gasUsed": 47737,
                    "id": 0,
                    "methodDecoded": true,
                    "operation": "CALL",
                    "output": "0x0000000000000000000000000000000000000000000000000000000000000001",
                    "revert": false,
                    "revertMessage": "",
                    "selector": "0xa9059cbb",
                    "status": true,
                    "value": "0"
                },
                "nodeType": 0
            },
            "1": {
                "event": {
                    "contract": "0x1796ae0b0fa4862485106a0de9b654efe301d0b2",
                    "decodedLog": {
                        "name": "Transfer",
                        "params": [
                            {
                                "name": "from",
                                "type": "address",
                                "value": "0x0b779e6815558274a1b575d2f5ab195a0dddfe37"
                            },
                            {
                                "name": "to",
                                "type": "address",
                                "value": "0x9e9791f69faed44219eab0919ce9613c821bb7eb"
                            },
                            {
                                "decimalAvailable": true,
                                "name": "value",
                                "type": "uint256",
                                "value": "230,285,757,952,025,015,261"
                            }
                        ],
                        "signature": "Transfer(address,address,uint256)"
                    },
                    "id": 1,
                    "logData": "0x00000000000000000000000000000000000000000000000c7bdb5cc04a09b3dd",
                    "logDecoded": true,
                    "operation": "EVENT",
                    "revert": false,
                    "status": true,
                    "topics": [
                        "0xddf252ad1be2c89b69c2b068fc378daa952ba7f163c4a11628f55a4df523b3ef",
                        "0x0000000000000000000000000b779e6815558274a1b575d2f5ab195a0dddfe37",
                        "0x0000000000000000000000009e9791f69faed44219eab0919ce9613c821bb7eb"
                    ]
                },
                "nodeType": 1
            }
        },
        "gasFlame": [
            {
                "children": [
                    {
                        "children": [
                            {
                                "children": [],
                                "depth": 0,
                                "name": "Initial Gas",
                                "value": 21668
                            },
                            {
                                "children": [],
                                "depth": 0,
                                "name": "Executed Gas",
                                "value": 30869
                            }
                        ],
                        "depth": -1,
                        "name": "Actual Gas Used",
                        "value": 47737
                    },
                    {
                        "children": [],
                        "depth": -1,
                        "name": "Refunded Gas",
                        "value": 4800
                    }
                ],
                "depth": -2,
                "name": "Total Gas",
                "value": 52537
            }
        ],
        "isConfirmed": true,
        "mainTrace": [
            {
                "children": [
                    {
                        "children": [
                            {
                                "children": [],
                                "depth": 1,
                                "id": 1,
                                "order": 1
                            }
                        ],
                        "depth": 0,
                        "id": 0,
                        "order": 0
                    }
                ],
                "depth": -1,
                "id": -1,
                "order": -1
            }
        ],
        "mainTraceNodeCount": 2,
        "parentIdMap": {
            "0": -1,
            "1": 0
        },
        "tidyTrace": [
            {
                "children": [
                    {
                        "children": [
                            {
                                "children": [],
                                "depth": 1,
                                "id": 1,
                                "order": 1
                            }
                        ],
                        "depth": 0,
                        "id": 0,
                        "order": 0
                    }
                ],
                "depth": -1,
                "id": -1,
                "order": -1
            }
        ],
        "tidyTraceNodeCount": 2
    },
    "state_change": {
        "stateChanges": [
            {
                "address": "0x1796ae0b0fa4862485106a0de9b654efe301d0b2",
                "erc": "ERC-20",
                "slots": [
                    {
                        "current": "0x0000000000000000000000000000000000000000000000000000000000000000",
                        "key": "0xe516d72641d3d24011f58e871d18f60ce9243eb3f6e2212a134e5cc2b015d461",
                        "prev": "0x00000000000000000000000000000000000000000000000c7bdb5cc04a09b3dd"
                    },
                    {
                        "current": "0x00000000000000000000000000000000000000000000000c7bdb5cc04a09b3dd",
                        "key": "0xd1df91a3b90c2e0e192addaf9400245e7a0eb28ad52a7a3ebfbddaf8130bec2f",
                        "prev": "0x0000000000000000000000000000000000000000000000000000000000000000"
                    }
                ],
                "storageVariables": [
                    {
                        "name": "_balances",
                        "type": "mapping(address => uint256)",
                        "value": {
                            "pairs": [
                                {
                                    "key": "0x0b779e6815558274a1b575d2f5ab195a0dddfe37",
                                    "value": {
                                        "current": "0",
                                        "prev": "230285757952025015261",
                                        "typeTag": 1
                                    }
                                },
                                {
                                    "key": "0x9e9791f69faed44219eab0919ce9613c821bb7eb",
                                    "value": {
                                        "current": "230285757952025015261",
                                        "prev": "0",
                                        "typeTag": 1
                                    }
                                }
                            ],
                            "typeTag": 4
                        }
                    }
                ]
            }
        ]
    }
}