{
    "balance_change": {
        "balanceChanges": [
            {
                "account": "0x052a6e2e7ac259fea1ca6c2a8ce048d0a1d55621",
                "assets": [
                    {
                        "address": "0xba3335588d9403515223f109edc4eb7269a9ab5d",
                        "amount": "91,130.3322",
                        "iconUrl": "",
                        "isERC1155": false,
                        "isERC721": false,
                        "sign": false,
                        "value": "1944.7212891480001211"
                    }
                ]
            },
            {
                "account": "0x75e89d5979e4f6fba9f97c104c2f0afb3f1dcb88",
                "assets": [
                    {
                        "address": "0xba3335588d9403515223f109edc4eb7269a9ab5d",
                        "amount": "91,130.3322",
                        "iconUrl": "",
                        "isERC1155": false,
                        "isERC721": false,
                        "sign": true,
                        "value": "1944.7212891480001211"
                    }
                ]
            }
        ]
    },
    "profile": {
        "basic_info": {
            "baseFee": "25.735193773",
            "blockNumber": 19302318,
            "callData": "0xa9059cbb00000000000000000000000075e89d5979e4f6fba9f97c104c2f0afb3f1dcb8800000000000000000000000000000000000000000000134c2f69c2b4f60a8000",
            "debugEnable": true,
            "errorInfo": "",
            "eventCount": 1,
            "feeRecipient": "0x4838b106fce9647bdf1e7877bf73ce8b0bad5f97",
            "formatValue": "0",
            "gasLimit": 64210,
            "gasPrice": "32.800979978",
            "gasUsed": 37912,
            "intTxnCount": 0,
            "internalRevert": false,
            "internalRevertMessage": "",
            "isContractCreation": false,
            "isFlashloan": false,
            "maxFee": "",
            "nonce": 4903,
            "overwritedBlockNumber": -1,
            "priorityFee": "",
            "receiver": "0xba3335588d9403515223f109edc4eb7269a9ab5d",
            "revertMessage": "",
            "sender": "0x052a6e2e7ac259fea1ca6c2a8ce048d0a1d55621",
            "simulationEnable": true,
            "sourceTxnHash": "0x2dbeacd42bbf7ca8f11d9122627c94c4a060faf0d455b0545b9114f66131e47d",
            "status": true,
            "timestamp": "2024-02-25T04:49:35Z",
            "transactionFee": "0.001243550752925936",
            "txnHash": "0x2dbeacd42bbf7ca8f11d9122627c94c4a060faf0d455b0545b9114f66131e47d",
            "txnIndex": 8,
            "type": 0,
            "value": "0"
        },
        "fund_flow": [
            {
                "amount": "91,130.3322",
                "from": "0x052a6e2e7ac259fea1ca6c2a8ce048d0a1d55621",
                "id": 1,
                "isERC1155": false,
                "isERC721": false,
                "isReverted": false,
                "order": 1,
                "to": "0x75e89d5979e4f6fba9f97c104c2f0afb3f1dcb88",
                "token": "0xba3335588d9403515223f109edc4eb7269a9ab5d"
            }
        ],
        "token_infos": [
            {
                "address": "0xc02aaa39b223fe8d0a0e5c4f27ead9083c756cc2",
                "decimals": 18
            },
            {
                "address": "0xeeeeeeeeeeeeeeeeeeeeeeeeeeeeeeeeeeeeeeee",
                "decimals": 18
            },
            {
                "address": "0xba3335588d9403515223f109edc4eb7269a9ab5d",
                "decimals": 18
            }
        ]
    },
    "address_label": {
        "labels": [
            {
                "address": "0xeeeeeeeeeeeeeeeeeeeeeeeeeeeeeeeeeeeeeeee",
                "label": "Ether"
            },
            {
                "address": "0xba3335588d9403515223f109edc4eb7269a9ab5d",
                "label": "Gearbox Protocol: GEAR Token"
            },
            {
                "address": "0x75e89d5979e4f6fba9f97c104c2f0afb3f1dcb88",
                "label": "MEXC 1"
            },
            {
                "address": "0x0000000000000000000000000000000000000001",
                "label": "Precompiled"
            },
            {
                "address": "0x0000000000000000000000000000000000000002",
                "label": "Precompiled"
            },
            {
                "address": "0x0000000000000000000000000000000000000003",
                "label": "Precompiled"
            },
            {
                "address": "0x0000000000000000000000000000000000000004",
                "label": "Precompiled"
            }
        ]
    },
    "trace": {
        "accountLabels": null,
        "dataMap": {
            "-1": {
                "invocation": {
                    "address": "0x052a6e2e7ac259fea1ca6c2a8ce048d0a1d55621",
                    "callData": "",
                    "decodedMethod": null,
                    "errorInfo": "",
                    "fromAddress": "",
                    "gasUsed": 0,
                    "id": -1,
                    "methodDecoded": false,
                    "operation": "",
                    "output": "",
                    "revert": false,
                    "revertMessage": "",
                    "selector": "",
                    "status": false,
                    "value": ""
                },
                "nodeType": 0
            },
            "0": {
                "invocation": {
                    "address": "0xba3335588d9403515223f109edc4eb7269a9ab5d",
                    "callData": "0x00000000000000000000000075e89d5979e4f6fba9f97c104c2f0afb3f1dcb8800000000000000000000000000000000000000000000134c2f69c2b4f60a8000",
                    "decodedMethod": {
                        "callParams": [
                            {
                                "name": "dst",
                                "type": "address",
                                "value": "0x75e89d5979e4f6fba9f97c104c2f0afb3f1dcb88"
                            },
                            {
                                "decimalAvailable": true,
                                "name": "rawAmount",
                                "type": "uint256",
                                "value": "91,130,332,200,000,000,000,000"
                            }
                        ],
                        "constructorArguments": "",
                        "name": "transfer",
                        "returnParams": [
                            {
                                "name": "",
                                "type": "bool",
                                "value": true
                            }
                        ],
                        "signature": "transfer(address,uint256)"
                    },
                    "errorInfo": "",
                    "fromAddress": "0x052a6e2e7ac259fea1ca6c2a8ce048d0a1d55621",
                    "gasUsed": 37912,
                    "id": 0,
                    "methodDecoded": true,
                    "operation": "CALL",
                    "output": "0x0000000000000000000000000000000000000000000000000000000000000001",
                    "revert": false,
                    "revertMessage": "",
                    "selector": "0xa9059cbb",
                    "status": true,
                    "value": "0"
                },
                "nodeType": 0
            },
            "1": {
                "event": {
                    "contract": "0xba3335588d9403515223f109edc4eb7269a9ab5d",
                    "decodedLog": {
                        "name": "Transfer",
                        "params": [
                            {
                                "name": "from",
                                "type": "address",
                                "value": "0x052a6e2e7ac259fea1ca6c2a8ce048d0a1d55621"
                            },
                            {
                                "name": "to",
                                "type": "address",
                                "value": "0x75e89d5979e4f6fba9f97c104c2f0afb3f1dcb88"
                            },
                            {
                                "decimalAvailable": true,
                                "name": "amount",
                                "type": "uint256",
                                "value": "91,130,332,200,000,000,000,000"
                            }
                        ],
                        "signature": "Transfer(address,address,uint256)"
                    },
                    "id": 1,
                    "logData": "0x00000000000000000000000000000000000000000000134c2f69c2b4f60a8000",
                    "logDecoded": true,
                    "operation": "EVENT",
                    "revert": false,
                    "status": true,
                    "topics": [
                        "0xddf252ad1be2c89b69c2b068fc378daa952ba7f163c4a11628f55a4df523b3ef",
                        "0x000000000000000000000000052a6e2e7ac259fea1ca6c2a8ce048d0a1d55621",
                        "0x00000000000000000000000075e89d5979e4f6fba9f97c104c2f0afb3f1dcb88"
                    ]
                },
                "nodeType": 1
            }
        },
        "gasFlame": [
            {
                "children": [
                    {
                        "children": [
                            {
                                "children": [],
                                "depth": 0,
                                "name": "Initial Gas",
                                "value": 21668
                            },
                            {
                                "children": [],
                                "depth": 0,
                                "name": "Executed Gas",
                                "value": 21044
                            }
                        ],
                        "depth": -1,
                        "name": "Actual Gas Used",
                        "value": 37912
                    },
                    {
                        "children": [],
                        "depth": -1,
                        "name": "Refunded Gas",
                        "value": 4800
                    }
                ],
                "depth": -2,
                "name": "Total Gas",
                "value": 42712
            }
        ],
        "isConfirmed": true,
        "mainTrace": [
            {
                "children": [
                    {
                        "children": [
                            {
                                "children": [],
                                "depth": 1,
                                "id": 1,
                                "order": 1
                            }
                        ],
                        "depth": 0,
                        "id": 0,
                        "order": 0
                    }
                ],
                "depth": -1,
                "id": -1,
                "order": -1
            }
        ],
        "mainTraceNodeCount": 2,
        "parentIdMap": {
            "0": -1,
            "1": 0
        },
        "tidyTrace": [
            {
                "children": [
                    {
                        "children": [
                            {
                                "children": [],
                                "depth": 1,
                                "id": 1,
                                "order": 1
                            }
                        ],
                        "depth": 0,
                        "id": 0,
                        "order": 0
                    }
                ],
                "depth": -1,
                "id": -1,
                "order": -1
            }
        ],
        "tidyTraceNodeCount": 2
    },
    "state_change": {
        "stateChanges": [
            {
                "address": "0xba3335588d9403515223f109edc4eb7269a9ab5d",
                "erc": "ERC-20",
                "slots": [
                    {
                        "current": "0x0000000000000000000000000000000000000000000000000000000000000000",
                        "key": "0x9b6a2e9ad1c5f838d2c20a7020c3468deebb4b7784552023f7de705a0dc6f64f",
                        "prev": "0x00000000000000000000000000000000000000000000134c2f69c2b4f60a8000"
                    },
                    {
                        "current": "0x0000000000000000000000000000000000000000000ab1f4fbb33cb0143f5653",
                        "key": "0xa572b75ff8eb3dddb240f22b8eaeeed413e49a800df181233773628bfb1e7cc0",
                        "prev": "0x0000000000000000000000000000000000000000000a9ea8cc4979fb1e34d653"
                    }
                ],
                "storageVariables": [
                    {
                        "name": "balances",
                        "type": "mapping(address => uint96)",
                        "value": {
                            "pairs": [
                                {
                                    "key": "0x052a6e2e7ac259fea1ca6c2a8ce048d0a1d55621",
                                    "value": {
                                        "current": "0",
                                        "prev": "91130332200000000000000",
                                        "typeTag": 1
                                    }
                                },
                                {
                                    "key": "0x75e89d5979e4f6fba9f97c104c2f0afb3f1dcb88",
                                    "value": {
                                        "current": "12929636206075055383205459",
                                        "prev": "12838505873875055383205459",
                                        "typeTag": 1
                                    }
                                }
                            ],
                            "typeTag": 4
                        }
                    }
                ]
            }
        ]
    }
}