{
    "balance_change": {
        "balanceChanges": [
            {
                "account": "0x44d4470d66193c5789ebd99937b8d455d8de144f",
                "assets": [
                    {
                        "address": "0x0e0989b1f9b8a38983c2ba8053269ca62ec9b195",
                        "amount": "3,188",
                        "iconUrl": "https://assets.blocksec.com/icon/747f238292d552a6712390ef822a0d28e824ff957d0b82065ada121ca1bb8044.png",
                        "isERC1155": false,
                        "isERC721": false,
                        "sign": false,
                        "value": ""
                    }
                ]
            },
            {
                "account": "0xf0ea5f5a979c440516c74b72bb075d381dbca5d2",
                "assets": [
                    {
                        "address": "0x0e0989b1f9b8a38983c2ba8053269ca62ec9b195",
                        "amount": "3,188",
                        "iconUrl": "https://assets.blocksec.com/icon/747f238292d552a6712390ef822a0d28e824ff957d0b82065ada121ca1bb8044.png",
                        "isERC1155": false,
                        "isERC721": false,
                        "sign": true,
                        "value": ""
                    }
                ]
            }
        ]
    },
    "profile": {
        "basic_info": {
            "baseFee": "",
            "blockNumber": 5439244,
            "callData": "0xa9059cbb000000000000000000000000f0ea5f5a979c440516c74b72bb075d381dbca5d20000000000000000000000000000000000000000000000000000004a39f5f400",
            "debugEnable": true,
            "errorInfo": "",
            "eventCount": 1,
            "feeRecipient": "0xea674fdde714fd979de3edf0f56aa9716b898ec8",
            "formatValue": "0",
            "gasLimit": 250000,
            "gasPrice": "1",
            "gasUsed": 37087,
            "intTxnCount": 0,
            "internalRevert": false,
            "internalRevertMessage": "",
            "isContractCreation": false,
            "isFlashloan": false,
            "maxFee": "",
            "nonce": 77,
            "overwritedBlockNumber": -1,
            "priorityFee": "",
            "receiver": "0x0e0989b1f9b8a38983c2ba8053269ca62ec9b195",
            "revertMessage": "",
            "sender": "0x44d4470d66193c5789ebd99937b8d455d8de144f",
            "simulationEnable": true,
            "sourceTxnHash": "0x2de5d19b2dca99e75624f892a8b3b10c3f65d882e7dbc059f8ccfba8219107e7",
            "status": true,
            "timestamp": "2018-04-14T13:12:13Z",
            "transactionFee": "0.000037087",
            "txnHash": "0x2de5d19b2dca99e75624f892a8b3b10c3f65d882e7dbc059f8ccfba8219107e7",
            "txnIndex": 55,
            "type": 0,
            "value": "0"
        },
        "fund_flow": [
            {
                "amount": "3,188",
                "from": "0x44d4470d66193c5789ebd99937b8d455d8de144f",
                "id": 1,
                "isERC1155": false,
                "isERC721": false,
                "isReverted": false,
                "order": 1,
                "to": "0xf0ea5f5a979c440516c74b72bb075d381dbca5d2",
                "token": "0x0e0989b1f9b8a38983c2ba8053269ca62ec9b195"
            }
        ],
        "token_infos": [
            {
                "address": "0x0e0989b1f9b8a38983c2ba8053269ca62ec9b195",
                "decimals": 8
            },
            {
                "address": "0xc02aaa39b223fe8d0a0e5c4f27ead9083c756cc2",
                "decimals": 18
            },
            {
                "address": "0xeeeeeeeeeeeeeeeeeeeeeeeeeeeeeeeeeeeeeeee",
                "decimals": 18
            }
        ]
    },
    "address_label": {
        "labels": [
            {
                "address": "0x0000000000000000000000000000000000000002",
                "label": "Precompiled"
            },
            {
                "address": "0x0000000000000000000000000000000000000003",
                "label": "Precompiled"
            },
            {
                "address": "0x0000000000000000000000000000000000000004",
                "label": "Precompiled"
            },
            {
                "address": "0xeeeeeeeeeeeeeeeeeeeeeeeeeeeeeeeeeeeeeeee",
                "label": "Ether"
            },
            {
                "address": "0x0e0989b1f9b8a38983c2ba8053269ca62ec9b195",
                "label": "Po.et Token"
            },
            {
                "address": "0xf0ea5f5a979c440516c74b72bb075d381dbca5d2",
                "label": "BINANCE"
            },
            {
                "address": "0x0000000000000000000000000000000000000001",
                "label": "Precompiled"
            }
        ]
    },
    "trace": {
        "accountLabels": null,
        "dataMap": {
            "-1": {
                "invocation": {
                    "address": "0x44d4470d66193c5789ebd99937b8d455d8de144f",
                    "callData": "",
                    "decodedMethod": null,
                    "errorInfo": "",
                    "fromAddress": "",
                    "gasUsed": 0,
                    "id": -1,
                    "methodDecoded": false,
                    "operation": "",
                    "output": "",
                    "revert": false,
                    "revertMessage": "",
                    "selector": "",
                    "status": false,
                    "value": ""
                },
                "nodeType": 0
            },
            "0": {
                "invocation": {
                    "address": "0x0e0989b1f9b8a38983c2ba8053269ca62ec9b195",
                    "callData": "0x000000000000000000000000f0ea5f5a979c440516c74b72bb075d381dbca5d20000000000000000000000000000000000000000000000000000004a39f5f400",
                    "decodedMethod": {
                        "callParams": [
                            {
                                "name": "_to",
                                "type": "address",
                                "value": "0xf0ea5f5a979c440516c74b72bb075d381dbca5d2"
                            },
                            {
                                "decimalAvailable": true,
                                "name": "_value",
                                "type": "uint256",
                                "value": "318,800,000,000"
                            }
                        ],
                        "constructorArguments": "",
                        "name": "transfer",
                        "returnParams": [
                            {
                                "name": "success",
                                "type": "bool",
                                "value": true
                            }
                        ],
                        "signature": "transfer(address,uint256)"
                    },
                    "errorInfo": "",
                    "fromAddress": "0x44d4470d66193c5789ebd99937b8d455d8de144f",
                    "gasUsed": 37087,
                    "id": 0,
                    "methodDecoded": true,
                    "operation": "CALL",
                    "output": "0x0000000000000000000000000000000000000000000000000000000000000001",
                    "revert": false,
                    "revertMessage": "",
                    "selector": "0xa9059cbb",
                    "status": true,
                    "value": "0"
                },
                "nodeType": 0
            },
            "1": {
                "event": {
                    "contract": "0x0e0989b1f9b8a38983c2ba8053269ca62ec9b195",
                    "decodedLog": {
                        "name": "Transfer",
                        "params": [
                            {
                                "name": "from",
                                "type": "address",
                                "value": "0x44d4470d66193c5789ebd99937b8d455d8de144f"
                            },
                            {
                                "name": "to",
                                "type": "address",
                                "value": "0xf0ea5f5a979c440516c74b72bb075d381dbca5d2"
                            },
                            {
                                "decimalAvailable": true,
                                "name": "value",
                                "type": "uint256",
                                "value": "318,800,000,000"
                            }
                        ],
                        "signature": "Transfer(address,address,uint256)"
                    },
                    "id": 1,
                    "logData": "0x0000000000000000000000000000000000000000000000000000004a39f5f400",
                    "logDecoded": true,
                    "operation": "EVENT",
                    "revert": false,
                    "status": true,
                    "topics": [
                        "0xddf252ad1be2c89b69c2b068fc378daa952ba7f163c4a11628f55a4df523b3ef",
                        "0x00000000000000000000000044d4470d66193c5789ebd99937b8d455d8de144f",
                        "0x000000000000000000000000f0ea5f5a979c440516c74b72bb075d381dbca5d2"
                    ]
                },
                "nodeType": 1
            }
        },
        "gasFlame": [
            {
                "children": [
                    {
                        "children": [
                            {
                                "children": [],
                                "depth": 0,
                                "name": "Initial Gas",
                                "value": 23064
                            },
                            {
                                "children": [],
                                "depth": 0,
                                "name": "Executed Gas",
                                "value": 29023
                            }
                        ],
                        "depth": -1,
                        "name": "Actual Gas Used",
                        "value": 37087
                    },
                    {
                        "children": [],
                        "depth": -1,
                        "name": "Refunded Gas",
                        "value": 15000
                    }
                ],
                "depth": -2,
                "name": "Total Gas",
                "value": 52087
            }
        ],
        "isConfirmed": true,
        "mainTrace": [
            {
                "children": [
                    {
                        "children": [
                            {
                                "children": [],
                                "depth": 1,
                                "id": 1,
                                "order": 1
                            }
                        ],
                        "depth": 0,
                        "id": 0,
                        "order": 0
                    }
                ],
                "depth": -1,
                "id": -1,
                "order": -1
            }
        ],
        "mainTraceNodeCount": 2,
        "parentIdMap": {
            "0": -1,
            "1": 0
        },
        "tidyTrace": [
            {
                "children": [
                    {
                        "children": [
                            {
                                "children": [],
                                "depth": 1,
                                "id": 1,
                                "order": 1
                            }
                        ],
                        "depth": 0,
                        "id": 0,
                        "order": 0
                    }
                ],
                "depth": -1,
                "id": -1,
                "order": -1
            }
        ],
        "tidyTraceNodeCount": 2
    },
    "state_change": {
        "stateChanges": [
            {
                "address": "0x0e0989b1f9b8a38983c2ba8053269ca62ec9b195",
                "erc": "ERC-20",
                "slots": [
                    {
                        "current": "0x0000000000000000000000000000000000000000000000000000000000000000",
                        "key": "0xb16bdc69ebe331436509ad845ef224c3bea697f7a5ad007e6e7233e1b0f269b1",
                        "prev": "0x0000000000000000000000000000000000000000000000000000004a39f5f400"
                    },
                    {
                        "current": "0x0000000000000000000000000000000000000000000000000000004a39f5f400",
                        "key": "0xf90c6d2ecc8aaa1544a452417b5d637ad8f4c34998d0e19d8dadf7a7c082c748",
                        "prev": "0x0000000000000000000000000000000000000000000000000000000000000000"
                    }
                ],
                "storageVariables": [
                    {
                        "name": "balances",
                        "type": "mapping(address => uint256)",
                        "value": {
                            "pairs": [
                                {
                                    "key": "0x44d4470d66193c5789ebd99937b8d455d8de144f",
                                    "value": {
                                        "current": "0",
                                        "prev": "318800000000",
                                        "typeTag": 1
                                    }
                                },
                                {
                                    "key": "0xf0ea5f5a979c440516c74b72bb075d381dbca5d2",
                                    "value": {
                                        "current": "318800000000",
                                        "prev": "0",
                                        "typeTag": 1
                                    }
                                }
                            ],
                            "typeTag": 4
                        }
                    }
                ]
            }
        ]
    }
}