{
    "balance_change": {
        "balanceChanges": [
            {
                "account": "0x014d98f02dd38e287c3d6a5bf9356c6502c58a49",
                "assets": [
                    {
                        "address": "0x0e50e6d6bb434938d8fe670a2d7a14cd128eb50f",
                        "amount": "263.982071409",
                        "iconUrl": "",
                        "isERC1155": false,
                        "isERC721": false,
                        "sign": false,
                        "value": ""
                    }
                ]
            },
            {
                "account": "0x9fa1e3e7197dee9b3796161d09df5a70365624bc",
                "assets": [
                    {
                        "address": "0x0e50e6d6bb434938d8fe670a2d7a14cd128eb50f",
                        "amount": "263.982071409",
                        "iconUrl": "",
                        "isERC1155": false,
                        "isERC721": false,
                        "sign": true,
                        "value": ""
                    }
                ]
            }
        ]
    },
    "profile": {
        "basic_info": {
            "baseFee": "",
            "blockNumber": 7179525,
            "callData": "0xa9059cbb0000000000000000000000009fa1e3e7197dee9b3796161d09df5a70365624bc0000000000000000000000000000000000000000000000000000003d768ebe71",
            "debugEnable": true,
            "errorInfo": "",
            "eventCount": 1,
            "feeRecipient": "0x5a0b54d5dc17e0aadc383d2db43b0a0d3e029c4c",
            "formatValue": "0",
            "gasLimit": 70000,
            "gasPrice": "20",
            "gasUsed": 37838,
            "intTxnCount": 0,
            "internalRevert": false,
            "internalRevertMessage": "",
            "isContractCreation": false,
            "isFlashloan": false,
            "maxFee": "",
            "nonce": 55691,
            "overwritedBlockNumber": -1,
            "priorityFee": "",
            "receiver": "0x0e50e6d6bb434938d8fe670a2d7a14cd128eb50f",
            "revertMessage": "",
            "sender": "0x014d98f02dd38e287c3d6a5bf9356c6502c58a49",
            "simulationEnable": true,
            "sourceTxnHash": "0x2d3daeff7fa0a737818e37b89c8e72588d7b578e346e25e87ecb53789a2a5557",
            "status": true,
            "timestamp": "2019-02-05T18:34:51Z",
            "transactionFee": "0.00075676",
            "txnHash": "0x2d3daeff7fa0a737818e37b89c8e72588d7b578e346e25e87ecb53789a2a5557",
            "txnIndex": 78,
            "type": 0,
            "value": "0"
        },
        "fund_flow": [
            {
                "amount": "263.982071409",
                "from": "0x014d98f02dd38e287c3d6a5bf9356c6502c58a49",
                "id": 1,
                "isERC1155": false,
                "isERC721": false,
                "isReverted": false,
                "order": 1,
                "to": "0x9fa1e3e7197dee9b3796161d09df5a70365624bc",
                "token": "0x0e50e6d6bb434938d8fe670a2d7a14cd128eb50f"
            }
        ],
        "token_infos": [
            {
                "address": "0xc02aaa39b223fe8d0a0e5c4f27ead9083c756cc2",
                "decimals": 18
            },
            {
                "address": "0xeeeeeeeeeeeeeeeeeeeeeeeeeeeeeeeeeeeeeeee",
                "decimals": 18
            },
            {
                "address": "0x0e50e6d6bb434938d8fe670a2d7a14cd128eb50f",
                "decimals": 9
            }
        ]
    },
    "address_label": {
        "labels": [
            {
                "address": "0xeeeeeeeeeeeeeeeeeeeeeeeeeeeeeeeeeeeeeeee",
                "label": "Ether"
            },
            {
                "address": "0x0e50e6d6bb434938d8fe670a2d7a14cd128eb50f",
                "label": "SUM TOKEN: SUM Token"
            },
            {
                "address": "0x0000000000000000000000000000000000000001",
                "label": "Precompiled"
            },
            {
                "address": "0x0000000000000000000000000000000000000002",
                "label": "Precompiled"
            },
            {
                "address": "0x0000000000000000000000000000000000000003",
                "label": "Precompiled"
            },
            {
                "address": "0x0000000000000000000000000000000000000004",
                "label": "Precompiled"
            }
        ]
    },
    "trace": {
        "accountLabels": null,
        "dataMap": {
            "-1": {
                "invocation": {
                    "address": "0x014d98f02dd38e287c3d6a5bf9356c6502c58a49",
                    "callData": "",
                    "decodedMethod": null,
                    "errorInfo": "",
                    "fromAddress": "",
                    "gasUsed": 0,
                    "id": -1,
                    "methodDecoded": false,
                    "operation": "",
                    "output": "",
                    "revert": false,
                    "revertMessage": "",
                    "selector": "",
                    "status": false,
                    "value": ""
                },
                "nodeType": 0
            },
            "0": {
                "invocation": {
                    "address": "0x0e50e6d6bb434938d8fe670a2d7a14cd128eb50f",
                    "callData": "0x0000000000000000000000009fa1e3e7197dee9b3796161d09df5a70365624bc0000000000000000000000000000000000000000000000000000003d768ebe71",
                    "decodedMethod": {
                        "callParams": [
                            {
                                "name": "_to",
                                "type": "address",
                                "value": "0x9fa1e3e7197dee9b3796161d09df5a70365624bc"
                            },
                            {
                                "decimalAvailable": true,
                                "name": "_value",
                                "type": "uint256",
                                "value": "263,982,071,409"
                            }
                        ],
                        "constructorArguments": "",
                        "name": "transfer",
                        "returnParams": [
                            {
                                "name": "success",
                                "type": "bool",
                                "value": true
                            }
                        ],
                        "signature": "transfer(address,uint256)"
                    },
                    "errorInfo": "",
                    "fromAddress": "0x014d98f02dd38e287c3d6a5bf9356c6502c58a49",
                    "gasUsed": 37838,
                    "id": 0,
                    "methodDecoded": true,
                    "operation": "CALL",
                    "output": "0x0000000000000000000000000000000000000000000000000000000000000001",
                    "revert": false,
                    "revertMessage": "",
                    "selector": "0xa9059cbb",
                    "status": true,
                    "value": "0"
                },
                "nodeType": 0
            },
            "1": {
                "event": {
                    "contract": "0x0e50e6d6bb434938d8fe670a2d7a14cd128eb50f",
                    "decodedLog": {
                        "name": "Transfer",
                        "params": [
                            {
                                "name": "from",
                                "type": "address",
                                "value": "0x014d98f02dd38e287c3d6a5bf9356c6502c58a49"
                            },
                            {
                                "name": "to",
                                "type": "address",
                                "value": "0x9fa1e3e7197dee9b3796161d09df5a70365624bc"
                            },
                            {
                                "decimalAvailable": true,
                                "name": "value",
                                "type": "uint256",
                                "value": "263,982,071,409"
                            }
                        ],
                        "signature": "Transfer(address,address,uint256)"
                    },
                    "id": 1,
                    "logData": "0x0000000000000000000000000000000000000000000000000000003d768ebe71",
                    "logDecoded": true,
                    "operation": "EVENT",
                    "revert": false,
                    "status": true,
                    "topics": [
                        "0xddf252ad1be2c89b69c2b068fc378daa952ba7f163c4a11628f55a4df523b3ef",
                        "0x000000000000000000000000014d98f02dd38e287c3d6a5bf9356c6502c58a49",
                        "0x0000000000000000000000009fa1e3e7197dee9b3796161d09df5a70365624bc"
                    ]
                },
                "nodeType": 1
            }
        },
        "gasFlame": [
            {
                "children": [
                    {
                        "children": [
                            {
                                "children": [],
                                "depth": 0,
                                "name": "Initial Gas",
                                "value": 23128
                            },
                            {
                                "children": [],
                                "depth": 0,
                                "name": "Executed Gas",
                                "value": 14710
                            }
                        ],
                        "depth": -1,
                        "name": "Actual Gas Used",
                        "value": 37838
                    },
                    {
                        "children": [],
                        "depth": -1,
                        "name": "Refunded Gas",
                        "value": 0
                    }
                ],
                "depth": -2,
                "name": "Total Gas",
                "value": 37838
            }
        ],
        "isConfirmed": true,
        "mainTrace": [
            {
                "children": [
                    {
                        "children": [
                            {
                                "children": [],
                                "depth": 1,
                                "id": 1,
                                "order": 1
                            }
                        ],
                        "depth": 0,
                        "id": 0,
                        "order": 0
                    }
                ],
                "depth": -1,
                "id": -1,
                "order": -1
            }
        ],
        "mainTraceNodeCount": 2,
        "parentIdMap": {
            "0": -1,
            "1": 0
        },
        "tidyTrace": [
            {
                "children": [
                    {
                        "children": [
                            {
                                "children": [],
                                "depth": 1,
                                "id": 1,
                                "order": 1
                            }
                        ],
                        "depth": 0,
                        "id": 0,
                        "order": 0
                    }
                ],
                "depth": -1,
                "id": -1,
                "order": -1
            }
        ],
        "tidyTraceNodeCount": 2
    },
    "state_change": {
        "stateChanges": [
            {
                "address": "0x0e50e6d6bb434938d8fe670a2d7a14cd128eb50f",
                "erc": "ERC-20",
                "slots": [
                    {
                        "current": "0x0000000000000000000000000000000000000000000000000000007b31890afe",
                        "key": "0xe2ca895fd687d6f2f8b942a7b6c43dd0acd388bfc2ea94050814dc36115712ca",
                        "prev": "0x0000000000000000000000000000000000000000000000000000003dbafa4c8d"
                    },
                    {
                        "current": "0x0000000000000000000000000000000000000000000000000000f6945906816c",
                        "key": "0x55be6e96f1e4eda2a38c84b38e4c9485dd48d2d8e23f96c2444607e3a1109df8",
                        "prev": "0x0000000000000000000000000000000000000000000000000000f6d1cf953fdd"
                    }
                ],
                "storageVariables": [
                    {
                        "name": "balanceOf",
                        "type": "mapping(address => uint256)",
                        "value": {
                            "pairs": [
                                {
                                    "key": "0x014d98f02dd38e287c3d6a5bf9356c6502c58a49",
                                    "value": {
                                        "current": "271117009191276",
                                        "prev": "271380991262685",
                                        "typeTag": 1
                                    }
                                },
                                {
                                    "key": "0x9fa1e3e7197dee9b3796161d09df5a70365624bc",
                                    "value": {
                                        "current": "529112042238",
                                        "prev": "265129970829",
                                        "typeTag": 1
                                    }
                                }
                            ],
                            "typeTag": 4
                        }
                    }
                ]
            }
        ]
    }
}