{
    "balance_change": {
        "balanceChanges": [
            {
                "account": "0x48c04ed5691981c42154c6167398f95e8f38a7ff",
                "assets": [
                    {
                        "address": "0x056fd409e1d7a124bd7017459dfea2f387b6d5cd",
                        "amount": "262.92",
                        "iconUrl": "https://assets.blocksec.com/icon/4c7792fcd8cb91fc5b0ecaf5a0d4fcfa25994c9d5c4a7b9bab72f85ea3ffc566.png",
                        "isERC1155": false,
                        "isERC721": false,
                        "sign": false,
                        "value": "261.3243614"
                    }
                ]
            },
            {
                "account": "0xb3382ec98b0c4453c6a81bd095d9696fc3c7ec46",
                "assets": [
                    {
                        "address": "0x056fd409e1d7a124bd7017459dfea2f387b6d5cd",
                        "amount": "262.92",
                        "iconUrl": "https://assets.blocksec.com/icon/4c7792fcd8cb91fc5b0ecaf5a0d4fcfa25994c9d5c4a7b9bab72f85ea3ffc566.png",
                        "isERC1155": false,
                        "isERC721": false,
                        "sign": true,
                        "value": "261.3243614"
                    }
                ]
            }
        ]
    },
    "profile": {
        "basic_info": {
            "baseFee": "1.350442411",
            "blockNumber": 20403948,
            "callData": "0xa9059cbb000000000000000000000000b3382ec98b0c4453c6a81bd095d9696fc3c7ec4600000000000000000000000000000000000000000000000000000000000066b4",
            "debugEnable": true,
            "errorInfo": "",
            "eventCount": 1,
            "feeRecipient": "0x4838b106fce9647bdf1e7877bf73ce8b0bad5f97",
            "formatValue": "0",
            "gasLimit": 75000,
            "gasPrice": "2",
            "gasUsed": 54370,
            "intTxnCount": 5,
            "internalRevert": false,
            "internalRevertMessage": "",
            "isContractCreation": false,
            "isFlashloan": false,
            "maxFee": "",
            "nonce": 1122803,
            "overwritedBlockNumber": -1,
            "priorityFee": "",
            "receiver": "0x056fd409e1d7a124bd7017459dfea2f387b6d5cd",
            "revertMessage": "",
            "sender": "0x48c04ed5691981c42154c6167398f95e8f38a7ff",
            "simulationEnable": true,
            "sourceTxnHash": "0x2d2b64a500ac1226215ca4e22c6b6539d30e34cadca27d02531fe6dcdd498d8b",
            "status": true,
            "timestamp": "2024-07-28T08:47:47Z",
            "transactionFee": "0.00010874",
            "txnHash": "0x2d2b64a500ac1226215ca4e22c6b6539d30e34cadca27d02531fe6dcdd498d8b",
            "txnIndex": 59,
            "type": 0,
            "value": "0"
        },
        "fund_flow": [
            {
                "amount": "262.92",
                "from": "0x48c04ed5691981c42154c6167398f95e8f38a7ff",
                "id": 1,
                "isERC1155": false,
                "isERC721": false,
                "isReverted": false,
                "order": 1,
                "to": "0xb3382ec98b0c4453c6a81bd095d9696fc3c7ec46",
                "token": "0x056fd409e1d7a124bd7017459dfea2f387b6d5cd"
            }
        ],
        "token_infos": [
            {
                "address": "0x056fd409e1d7a124bd7017459dfea2f387b6d5cd",
                "decimals": 2
            },
            {
                "address": "0xc02aaa39b223fe8d0a0e5c4f27ead9083c756cc2",
                "decimals": 18
            },
            {
                "address": "0xeeeeeeeeeeeeeeeeeeeeeeeeeeeeeeeeeeeeeeee",
                "decimals": 18
            }
        ]
    },
    "address_label": {
        "labels": [
            {
                "address": "0xeeeeeeeeeeeeeeeeeeeeeeeeeeeeeeeeeeeeeeee",
                "label": "Ether"
            },
            {
                "address": "0x0000000000000000000000000000000000000001",
                "label": "Precompiled"
            },
            {
                "address": "0x0000000000000000000000000000000000000003",
                "label": "Precompiled"
            },
            {
                "address": "0x056fd409e1d7a124bd7017459dfea2f387b6d5cd",
                "label": "Gemini: GUSD Token"
            },
            {
                "address": "0xc42b14e49744538e3c239f8ae48a1eaaf35e68a0",
                "label": "ERC20Store"
            },
            {
                "address": "0x6704ba24b8640bccee6bf2fd276a6a1b8edf4ade",
                "label": "ERC20Impl"
            },
            {
                "address": "0x48c04ed5691981c42154c6167398f95e8f38a7ff",
                "label": "ChangeNOW 3"
            },
            {
                "address": "0x0000000000000000000000000000000000000002",
                "label": "Precompiled"
            },
            {
                "address": "0x0000000000000000000000000000000000000004",
                "label": "Precompiled"
            }
        ]
    },
    "trace": {
        "accountLabels": null,
        "dataMap": {
            "-1": {
                "invocation": {
                    "address": "0x48c04ed5691981c42154c6167398f95e8f38a7ff",
                    "callData": "",
                    "decodedMethod": null,
                    "errorInfo": "",
                    "fromAddress": "",
                    "gasUsed": 0,
                    "id": -1,
                    "methodDecoded": false,
                    "operation": "",
                    "output": "",
                    "revert": false,
                    "revertMessage": "",
                    "selector": "",
                    "status": false,
                    "value": ""
                },
                "nodeType": 0
            },
            "0": {
                "invocation": {
                    "address": "0x056fd409e1d7a124bd7017459dfea2f387b6d5cd",
                    "callData": "0x000000000000000000000000b3382ec98b0c4453c6a81bd095d9696fc3c7ec4600000000000000000000000000000000000000000000000000000000000066b4",
                    "decodedMethod": {
                        "callParams": [
                            {
                                "name": "_to",
                                "type": "address",
                                "value": "0xb3382ec98b0c4453c6a81bd095d9696fc3c7ec46"
                            },
                            {
                                "decimalAvailable": true,
                                "name": "_value",
                                "type": "uint256",
                                "value": "26,292"
                            }
                        ],
                        "constructorArguments": "",
                        "name": "transfer",
                        "returnParams": [
                            {
                                "name": "success",
                                "type": "bool",
                                "value": true
                            }
                        ],
                        "signature": "transfer(address,uint256)"
                    },
                    "errorInfo": "",
                    "fromAddress": "0x48c04ed5691981c42154c6167398f95e8f38a7ff",
                    "gasUsed": 54370,
                    "id": 0,
                    "methodDecoded": true,
                    "operation": "CALL",
                    "output": "0x0000000000000000000000000000000000000000000000000000000000000001",
                    "revert": false,
                    "revertMessage": "",
                    "selector": "0xa9059cbb",
                    "status": true,
                    "value": "0"
                },
                "nodeType": 0
            },
            "1": {
                "invocation": {
                    "address": "0x6704ba24b8640bccee6bf2fd276a6a1b8edf4ade",
                    "callData": "0x00000000000000000000000048c04ed5691981c42154c6167398f95e8f38a7ff000000000000000000000000b3382ec98b0c4453c6a81bd095d9696fc3c7ec4600000000000000000000000000000000000000000000000000000000000066b4",
                    "decodedMethod": {
                        "callParams": [
                            {
                                "name": "_sender",
                                "type": "address",
                                "value": "0x48c04ed5691981c42154c6167398f95e8f38a7ff"
                            },
                            {
                                "name": "_to",
                                "type": "address",
                                "value": "0xb3382ec98b0c4453c6a81bd095d9696fc3c7ec46"
                            },
                            {
                                "name": "_value",
                                "type": "uint256",
                                "value": "26,292"
                            }
                        ],
                        "constructorArguments": "",
                        "name": "transferWithSender",
                        "returnParams": [
                            {
                                "name": "success",
                                "type": "bool",
                                "value": true
                            }
                        ],
                        "signature": "transferWithSender(address,address,uint256)"
                    },
                    "errorInfo": "",
                    "fromAddress": "0x056fd409e1d7a124bd7017459dfea2f387b6d5cd",
                    "gasUsed": 26867,
                    "id": 1,
                    "methodDecoded": true,
                    "operation": "CALL",
                    "output": "0x0000000000000000000000000000000000000000000000000000000000000001",
                    "revert": false,
                    "revertMessage": "",
                    "selector": "0xdfe0f0ca",
                    "status": true,
                    "value": "0"
                },
                "nodeType": 0
            },
            "2": {
                "invocation": {
                    "address": "0xc42b14e49744538e3c239f8ae48a1eaaf35e68a0",
                    "callData": "0x00000000000000000000000048c04ed5691981c42154c6167398f95e8f38a7ff",
                    "decodedMethod": {
                        "callParams": [
                            {
                                "name": "",
                                "type": "address",
                                "value": "0x48c04ed5691981c42154c6167398f95e8f38a7ff"
                            }
                        ],
                        "constructorArguments": "",
                        "name": "balances",
                        "returnParams": [
                            {
                                "name": "",
                                "type": "uint256",
                                "value": "150,252"
                            }
                        ],
                        "signature": "balances(address)"
                    },
                    "errorInfo": "",
                    "fromAddress": "0x6704ba24b8640bccee6bf2fd276a6a1b8edf4ade",
                    "gasUsed": 2486,
                    "id": 2,
                    "methodDecoded": true,
                    "operation": "CALL",
                    "output": "0x0000000000000000000000000000000000000000000000000000000000024aec",
                    "revert": false,
                    "revertMessage": "",
                    "selector": "0x27e235e3",
                    "status": true,
                    "value": "0"
                },
                "nodeType": 0
            },
            "3": {
                "invocation": {
                    "address": "0xc42b14e49744538e3c239f8ae48a1eaaf35e68a0",
                    "callData": "0x00000000000000000000000048c04ed5691981c42154c6167398f95e8f38a7ff000000000000000000000000000000000000000000000000000000000001e438",
                    "decodedMethod": {
                        "callParams": [
                            {
                                "name": "_owner",
                                "type": "address",
                                "value": "0x48c04ed5691981c42154c6167398f95e8f38a7ff"
                            },
                            {
                                "name": "_newBalance",
                                "type": "uint256",
                                "value": "123,960"
                            }
                        ],
                        "constructorArguments": "",
                        "name": "setBalance",
                        "returnParams": [],
                        "signature": "setBalance(address,uint256)"
                    },
                    "errorInfo": "",
                    "fromAddress": "0x6704ba24b8640bccee6bf2fd276a6a1b8edf4ade",
                    "gasUsed": 5779,
                    "id": 3,
                    "methodDecoded": true,
                    "operation": "CALL",
                    "output": "",
                    "revert": false,
                    "revertMessage": "",
                    "selector": "0xe30443bc",
                    "status": true,
                    "value": "0"
                },
                "nodeType": 0
            },
            "4": {
                "invocation": {
                    "address": "0xc42b14e49744538e3c239f8ae48a1eaaf35e68a0",
                    "callData": "0x000000000000000000000000b3382ec98b0c4453c6a81bd095d9696fc3c7ec4600000000000000000000000000000000000000000000000000000000000066b4",
                    "decodedMethod": {
                        "callParams": [
                            {
                                "name": "_owner",
                                "type": "address",
                                "value": "0xb3382ec98b0c4453c6a81bd095d9696fc3c7ec46"
                            },
                            {
                                "name": "_balanceIncrease",
                                "type": "uint256",
                                "value": "26,292"
                            }
                        ],
                        "constructorArguments": "",
                        "name": "addBalance",
                        "returnParams": [],
                        "signature": "addBalance(address,uint256)"
                    },
                    "errorInfo": "",
                    "fromAddress": "0x6704ba24b8640bccee6bf2fd276a6a1b8edf4ade",
                    "gasUsed": 5630,
                    "id": 4,
                    "methodDecoded": true,
                    "operation": "CALL",
                    "output": "",
                    "revert": false,
                    "revertMessage": "",
                    "selector": "0x21e5383a",
                    "status": true,
                    "value": "0"
                },
                "nodeType": 0
            },
            "5": {
                "invocation": {
                    "address": "0x056fd409e1d7a124bd7017459dfea2f387b6d5cd",
                    "callData": "0x00000000000000000000000048c04ed5691981c42154c6167398f95e8f38a7ff000000000000000000000000b3382ec98b0c4453c6a81bd095d9696fc3c7ec4600000000000000000000000000000000000000000000000000000000000066b4",
                    "decodedMethod": {
                        "callParams": [
                            {
                                "name": "_from",
                                "type": "address",
                                "value": "0x48c04ed5691981c42154c6167398f95e8f38a7ff"
                            },
                            {
                                "name": "_to",
                                "type": "address",
                                "value": "0xb3382ec98b0c4453c6a81bd095d9696fc3c7ec46"
                            },
                            {
                                "name": "_value",
                                "type": "uint256",
                                "value": "26,292"
                            }
                        ],
                        "constructorArguments": "",
                        "name": "emitTransfer",
                        "returnParams": [],
                        "signature": "emitTransfer(address,address,uint256)"
                    },
                    "errorInfo": "",
                    "fromAddress": "0x6704ba24b8640bccee6bf2fd276a6a1b8edf4ade",
                    "gasUsed": 2575,
                    "id": 5,
                    "methodDecoded": true,
                    "operation": "CALL",
                    "output": "",
                    "revert": false,
                    "revertMessage": "",
                    "selector": "0x23de6651",
                    "status": true,
                    "value": "0"
                },
                "nodeType": 0
            },
            "6": {
                "event": {
                    "contract": "0x056fd409e1d7a124bd7017459dfea2f387b6d5cd",
                    "decodedLog": {
                        "name": "Transfer",
                        "params": [
                            {
                                "name": "_from",
                                "type": "address",
                                "value": "0x48c04ed5691981c42154c6167398f95e8f38a7ff"
                            },
                            {
                                "name": "_to",
                                "type": "address",
                                "value": "0xb3382ec98b0c4453c6a81bd095d9696fc3c7ec46"
                            },
                            {
                                "decimalAvailable": true,
                                "name": "_value",
                                "type": "uint256",
                                "value": "26,292"
                            }
                        ],
                        "signature": "Transfer(address,address,uint256)"
                    },
                    "id": 6,
                    "logData": "0x00000000000000000000000000000000000000000000000000000000000066b4",
                    "logDecoded": true,
                    "operation": "EVENT",
                    "revert": false,
                    "status": true,
                    "topics": [
                        "0xddf252ad1be2c89b69c2b068fc378daa952ba7f163c4a11628f55a4df523b3ef",
                        "0x00000000000000000000000048c04ed5691981c42154c6167398f95e8f38a7ff",
                        "0x000000000000000000000000b3382ec98b0c4453c6a81bd095d9696fc3c7ec46"
                    ]
                },
                "nodeType": 1
            }
        },
        "gasFlame": [
            {
                "children": [
                    {
                        "children": [
                            {
                                "children": [],
                                "depth": 0,
                                "name": "Initial Gas",
                                "value": 21584
                            },
                            {
                                "children": [
                                    {
                                        "children": [
                                            {
                                                "children": [],
                                                "depth": 2,
                                                "name": "balances",
                                                "value": 2486
                                            },
                                            {
                                                "children": [],
                                                "depth": 2,
                                                "name": "setBalance",
                                                "value": 5779
                                            },
                                            {
                                                "children": [],
                                                "depth": 2,
                                                "name": "addBalance",
                                                "value": 5630
                                            },
                                            {
                                                "children": [],
                                                "depth": 2,
                                                "name": "emitTransfer",
                                                "value": 2575
                                            }
                                        ],
                                        "depth": 1,
                                        "name": "transferWithSender",
                                        "value": 26867
                                    }
                                ],
                                "depth": 0,
                                "name": "Executed Gas",
                                "value": 32786
                            }
                        ],
                        "depth": -1,
                        "name": "Actual Gas Used",
                        "value": 54370
                    },
                    {
                        "children": [],
                        "depth": -1,
                        "name": "Refunded Gas",
                        "value": 0
                    }
                ],
                "depth": -2,
                "name": "Total Gas",
                "value": 54370
            }
        ],
        "isConfirmed": true,
        "mainTrace": [
            {
                "children": [
                    {
                        "children": [
                            {
                                "children": [
                                    {
                                        "children": [],
                                        "depth": 2,
                                        "id": 2,
                                        "order": 2
                                    },
                                    {
                                        "children": [],
                                        "depth": 2,
                                        "id": 3,
                                        "order": 3
                                    },
                                    {
                                        "children": [],
                                        "depth": 2,
                                        "id": 4,
                                        "order": 4
                                    },
                                    {
                                        "children": [
                                            {
                                                "children": [],
                                                "depth": 3,
                                                "id": 6,
                                                "order": 6
                                            }
                                        ],
                                        "depth": 2,
                                        "id": 5,
                                        "order": 5
                                    }
                                ],
                                "depth": 1,
                                "id": 1,
                                "order": 1
                            }
                        ],
                        "depth": 0,
                        "id": 0,
                        "order": 0
                    }
                ],
                "depth": -1,
                "id": -1,
                "order": -1
            }
        ],
        "mainTraceNodeCount": 7,
        "parentIdMap": {
            "0": -1,
            "1": 0,
            "2": 1,
            "3": 1,
            "4": 1,
            "5": 1,
            "6": 5
        },
        "tidyTrace": [
            {
                "children": [
                    {
                        "children": [
                            {
                                "children": [
                                    {
                                        "children": [],
                                        "depth": 2,
                                        "id": 2,
                                        "order": 2
                                    },
                                    {
                                        "children": [],
                                        "depth": 2,
                                        "id": 3,
                                        "order": 3
                                    },
                                    {
                                        "children": [],
                                        "depth": 2,
                                        "id": 4,
                                        "order": 4
                                    },
                                    {
                                        "children": [
                                            {
                                                "children": [],
                                                "depth": 3,
                                                "id": 6,
                                                "order": 6
                                            }
                                        ],
                                        "depth": 2,
                                        "id": 5,
                                        "order": 5
                                    }
                                ],
                                "depth": 1,
                                "id": 1,
                                "order": 1
                            }
                        ],
                        "depth": 0,
                        "id": 0,
                        "order": 0
                    }
                ],
                "depth": -1,
                "id": -1,
                "order": -1
            }
        ],
        "tidyTraceNodeCount": 7
    },
    "state_change": {
        "stateChanges": [
            {
                "address": "0xc42b14e49744538e3c239f8ae48a1eaaf35e68a0",
                "erc": "",
                "slots": [
                    {
                        "current": "0x000000000000000000000000000000000000000000000000000000000001e438",
                        "key": "0x2de45aa08973c6fceddda16f130e4f4a84841ca25a1fae4a4a37a89d4d2e0ea4",
                        "prev": "0x0000000000000000000000000000000000000000000000000000000000024aec"
                    },
                    {
                        "current": "0x00000000000000000000000000000000000000000000000000000000000066b5",
                        "key": "0x359122b05bcb0fc6a3f91771d6e6ad468067d5a69c196b5e7981d8a42914c200",
                        "prev": "0x0000000000000000000000000000000000000000000000000000000000000001"
                    }
                ],
                "storageVariables": [
                    {
                        "name": "balances",
                        "type": "mapping(address => uint256)",
                        "value": {
                            "pairs": [
                                {
                                    "key": "0x48c04ed5691981c42154c6167398f95e8f38a7ff",
                                    "value": {
                                        "current": "123960",
                                        "prev": "150252",
                                        "typeTag": 1
                                    }
                                },
                                {
                                    "key": "0xb3382ec98b0c4453c6a81bd095d9696fc3c7ec46",
                                    "value": {
                                        "current": "26293",
                                        "prev": "1",
                                        "typeTag": 1
                                    }
                                }
                            ],
                            "typeTag": 4
                        }
                    }
                ]
            }
        ]
    }
}