{
    "balance_change": {
        "balanceChanges": [
            {
                "account": "0xb0a10ef2bad601e59c4313446841e586b0250c19",
                "assets": [
                    {
                        "address": "0xfac77a24e52b463ba9857d6b758ba41ae20e31ff",
                        "amount": "13,600.936443096061",
                        "iconUrl": "",
                        "isERC1155": false,
                        "isERC721": false,
                        "sign": false,
                        "value": "649.1279497"
                    }
                ]
            },
            {
                "account": "0x5bdf85216ec1e38d6458c870992a69e38e03f7ef",
                "assets": [
                    {
                        "address": "0xfac77a24e52b463ba9857d6b758ba41ae20e31ff",
                        "amount": "13,600.936443096061",
                        "iconUrl": "",
                        "isERC1155": false,
                        "isERC721": false,
                        "sign": true,
                        "value": "649.1279497"
                    }
                ]
            }
        ]
    },
    "profile": {
        "basic_info": {
            "baseFee": "11.712669914",
            "blockNumber": 16881370,
            "callData": "0xa9059cbb0000000000000000000000005bdf85216ec1e38d6458c870992a69e38e03f7ef0000000000000000000000000000000000000000000002e14ee8f2256d953940",
            "debugEnable": true,
            "errorInfo": "",
            "eventCount": 1,
            "feeRecipient": "0x95222290dd7278aa3ddd389cc1e1d165cc4bafe5",
            "formatValue": "0",
            "gasLimit": 100000,
            "gasPrice": "26.523335172",
            "gasUsed": 41503,
            "intTxnCount": 1,
            "internalRevert": false,
            "internalRevertMessage": "",
            "isContractCreation": false,
            "isFlashloan": false,
            "maxFee": "",
            "nonce": 0,
            "overwritedBlockNumber": -1,
            "priorityFee": "",
            "receiver": "0xfac77a24e52b463ba9857d6b758ba41ae20e31ff",
            "revertMessage": "",
            "sender": "0xb0a10ef2bad601e59c4313446841e586b0250c19",
            "simulationEnable": true,
            "sourceTxnHash": "0x2d025cbdf585ee1fae77bf29d18ce3bacbbbe4879cc98d028a658b5bf0fe933f",
            "status": true,
            "timestamp": "2023-03-22T06:31:47Z",
            "transactionFee": "0.001100797979643516",
            "txnHash": "0x2d025cbdf585ee1fae77bf29d18ce3bacbbbe4879cc98d028a658b5bf0fe933f",
            "txnIndex": 8,
            "type": 0,
            "value": "0"
        },
        "fund_flow": [
            {
                "amount": "13,600.936443096061",
                "from": "0xb0a10ef2bad601e59c4313446841e586b0250c19",
                "id": 1,
                "isERC1155": false,
                "isERC721": false,
                "isReverted": false,
                "order": 1,
                "to": "0x5bdf85216ec1e38d6458c870992a69e38e03f7ef",
                "token": "0xfac77a24e52b463ba9857d6b758ba41ae20e31ff"
            }
        ],
        "token_infos": [
            {
                "address": "0xc02aaa39b223fe8d0a0e5c4f27ead9083c756cc2",
                "decimals": 18
            },
            {
                "address": "0xfac77a24e52b463ba9857d6b758ba41ae20e31ff",
                "decimals": 18
            },
            {
                "address": "0xeeeeeeeeeeeeeeeeeeeeeeeeeeeeeeeeeeeeeeee",
                "decimals": 18
            }
        ]
    },
    "address_label": {
        "labels": [
            {
                "address": "0xfac77a24e52b463ba9857d6b758ba41ae20e31ff",
                "label": "LSDX Finance: LSD Coin (LSD)"
            },
            {
                "address": "0x0000000000000000000000000000000000000001",
                "label": "Precompiled"
            },
            {
                "address": "0x0000000000000000000000000000000000000002",
                "label": "Precompiled"
            },
            {
                "address": "0x0000000000000000000000000000000000000003",
                "label": "Precompiled"
            },
            {
                "address": "0x0000000000000000000000000000000000000004",
                "label": "Precompiled"
            },
            {
                "address": "0xeeeeeeeeeeeeeeeeeeeeeeeeeeeeeeeeeeeeeeee",
                "label": "Ether"
            },
            {
                "address": "0xb0a10ef2bad601e59c4313446841e586b0250c19",
                "label": "BITGET"
            },
            {
                "address": "0x5bdf85216ec1e38d6458c870992a69e38e03f7ef",
                "label": "Bitget 5"
            },
            {
                "address": "0x2fa43a42883e941e38b62f0760d3a9e5b5abbef4",
                "label": "LsdCoin"
            }
        ]
    },
    "trace": {
        "accountLabels": null,
        "dataMap": {
            "-1": {
                "invocation": {
                    "address": "0xb0a10ef2bad601e59c4313446841e586b0250c19",
                    "callData": "",
                    "decodedMethod": null,
                    "errorInfo": "",
                    "fromAddress": "",
                    "gasUsed": 0,
                    "id": -1,
                    "methodDecoded": false,
                    "operation": "",
                    "output": "",
                    "revert": false,
                    "revertMessage": "",
                    "selector": "",
                    "status": false,
                    "value": ""
                },
                "nodeType": 0
            },
            "0": {
                "invocation": {
                    "address": "0xfac77a24e52b463ba9857d6b758ba41ae20e31ff",
                    "callData": "0x0000000000000000000000005bdf85216ec1e38d6458c870992a69e38e03f7ef0000000000000000000000000000000000000000000002e14ee8f2256d953940",
                    "decodedMethod": {
                        "callParams": [
                            {
                                "name": "to",
                                "type": "address",
                                "value": "0x5bdf85216ec1e38d6458c870992a69e38e03f7ef"
                            },
                            {
                                "decimalAvailable": true,
                                "name": "amount",
                                "type": "uint256",
                                "value": "13,600,936,443,096,061,000,000"
                            }
                        ],
                        "constructorArguments": "",
                        "name": "transfer",
                        "returnParams": [
                            {
                                "name": "",
                                "type": "bool",
                                "value": true
                            }
                        ],
                        "signature": "transfer(address,uint256)"
                    },
                    "errorInfo": "",
                    "fromAddress": "0xb0a10ef2bad601e59c4313446841e586b0250c19",
                    "gasUsed": 41503,
                    "id": 0,
                    "methodDecoded": true,
                    "operation": "CALL",
                    "output": "0x0000000000000000000000000000000000000000000000000000000000000001",
                    "revert": false,
                    "revertMessage": "",
                    "selector": "0xa9059cbb",
                    "status": true,
                    "value": "0"
                },
                "nodeType": 0
            },
            "1": {
                "invocation": {
                    "address": "0x2fa43a42883e941e38b62f0760d3a9e5b5abbef4",
                    "callData": "0x0000000000000000000000005bdf85216ec1e38d6458c870992a69e38e03f7ef0000000000000000000000000000000000000000000002e14ee8f2256d953940",
                    "decodedMethod": {
                        "callParams": [
                            {
                                "name": "to",
                                "type": "address",
                                "value": "0x5bdf85216ec1e38d6458c870992a69e38e03f7ef"
                            },
                            {
                                "decimalAvailable": true,
                                "name": "amount",
                                "type": "uint256",
                                "value": "13,600,936,443,096,061,000,000"
                            }
                        ],
                        "constructorArguments": "",
                        "name": "transfer",
                        "returnParams": [
                            {
                                "name": "",
                                "type": "bool",
                                "value": true
                            }
                        ],
                        "signature": "transfer(address,uint256)"
                    },
                    "errorInfo": "",
                    "fromAddress": "0xfac77a24e52b463ba9857d6b758ba41ae20e31ff",
                    "gasUsed": 14922,
                    "id": 1,
                    "methodDecoded": true,
                    "operation": "DELEGATECALL",
                    "output": "0x0000000000000000000000000000000000000000000000000000000000000001",
                    "revert": false,
                    "revertMessage": "",
                    "selector": "0xa9059cbb",
                    "status": true,
                    "value": "0"
                },
                "nodeType": 0
            },
            "2": {
                "event": {
                    "contract": "0xfac77a24e52b463ba9857d6b758ba41ae20e31ff",
                    "decodedLog": {
                        "name": "Transfer",
                        "params": [
                            {
                                "name": "from",
                                "type": "address",
                                "value": "0xb0a10ef2bad601e59c4313446841e586b0250c19"
                            },
                            {
                                "name": "to",
                                "type": "address",
                                "value": "0x5bdf85216ec1e38d6458c870992a69e38e03f7ef"
                            },
                            {
                                "decimalAvailable": true,
                                "name": "value",
                                "type": "uint256",
                                "value": "13,600,936,443,096,061,000,000"
                            }
                        ],
                        "signature": "Transfer(address,address,uint256)"
                    },
                    "id": 2,
                    "logData": "0x0000000000000000000000000000000000000000000002e14ee8f2256d953940",
                    "logDecoded": true,
                    "operation": "EVENT",
                    "revert": false,
                    "status": true,
                    "topics": [
                        "0xddf252ad1be2c89b69c2b068fc378daa952ba7f163c4a11628f55a4df523b3ef",
                        "0x000000000000000000000000b0a10ef2bad601e59c4313446841e586b0250c19",
                        "0x0000000000000000000000005bdf85216ec1e38d6458c870992a69e38e03f7ef"
                    ]
                },
                "nodeType": 1
            }
        },
        "gasFlame": [
            {
                "children": [
                    {
                        "children": [
                            {
                                "children": [],
                                "depth": 0,
                                "name": "Initial Gas",
                                "value": 21680
                            },
                            {
                                "children": [
                                    {
                                        "children": [],
                                        "depth": 1,
                                        "name": "transfer",
                                        "value": 14922
                                    }
                                ],
                                "depth": 0,
                                "name": "Executed Gas",
                                "value": 19823
                            }
                        ],
                        "depth": -1,
                        "name": "Actual Gas Used",
                        "value": 41503
                    },
                    {
                        "children": [],
                        "depth": -1,
                        "name": "Refunded Gas",
                        "value": 0
                    }
                ],
                "depth": -2,
                "name": "Total Gas",
                "value": 41503
            }
        ],
        "isConfirmed": true,
        "mainTrace": [
            {
                "children": [
                    {
                        "children": [
                            {
                                "children": [
                                    {
                                        "children": [],
                                        "depth": 2,
                                        "id": 2,
                                        "order": 2
                                    }
                                ],
                                "depth": 1,
                                "id": 1,
                                "order": 1
                            }
                        ],
                        "depth": 0,
                        "id": 0,
                        "order": 0
                    }
                ],
                "depth": -1,
                "id": -1,
                "order": -1
            }
        ],
        "mainTraceNodeCount": 3,
        "parentIdMap": {
            "0": -1,
            "1": 0,
            "2": 1
        },
        "tidyTrace": [
            {
                "children": [
                    {
                        "children": [
                            {
                                "children": [
                                    {
                                        "children": [],
                                        "depth": 2,
                                        "id": 2,
                                        "order": 2
                                    }
                                ],
                                "depth": 1,
                                "id": 1,
                                "order": 1
                            }
                        ],
                        "depth": 0,
                        "id": 0,
                        "order": 0
                    }
                ],
                "depth": -1,
                "id": -1,
                "order": -1
            }
        ],
        "tidyTraceNodeCount": 3
    },
    "state_change": {
        "stateChanges": [
            {
                "address": "0xfac77a24e52b463ba9857d6b758ba41ae20e31ff",
                "erc": "ERC-20",
                "slots": [
                    {
                        "current": "0x000000000000000000000000000000000000000000000000000000000007fab2",
                        "key": "0x25d49315f336e78f1780d32baed1eed7fd300c418698c1de8b96fd49aff41968",
                        "prev": "0x0000000000000000000000000000000000000000000002e14ee8f2256d9d33f2"
                    },
                    {
                        "current": "0x000000000000000000000000000000000000000000088a829e0a9fb2a03e4300",
                        "key": "0x4a9fe674f4636374970b45def5166b210f282099921cb220e6b1121c4272817d",
                        "prev": "0x0000000000000000000000000000000000000000000887a14f21ad8d32a909c0"
                    }
                ],
                "storageVariables": [
                    {
                        "name": "_balances",
                        "type": "mapping(address => uint256)",
                        "value": {
                            "pairs": [
                                {
                                    "key": "0x5bdf85216ec1e38d6458c870992a69e38e03f7ef",
                                    "value": {
                                        "current": "10325502596372823980000000",
                                        "prev": "10311901659929727919000000",
                                        "typeTag": 1
                                    }
                                },
                                {
                                    "key": "0xb0a10ef2bad601e59c4313446841e586b0250c19",
                                    "value": {
                                        "current": "522930",
                                        "prev": "13600936443096061522930",
                                        "typeTag": 1
                                    }
                                }
                            ],
                            "typeTag": 4
                        }
                    }
                ]
            }
        ]
    }
}