{
    "balance_change": {
        "balanceChanges": [
            {
                "account": "0xc1e6902198ba29b5a79f11cc8dd66692957218e0",
                "assets": [
                    {
                        "address": "0xeeeeeeeeeeeeeeeeeeeeeeeeeeeeeeeeeeeeeeee",
                        "amount": "0.1",
                        "iconUrl": "https://assets.blocksec.com/image/1663669189317-3.png",
                        "isERC1155": false,
                        "isERC721": false,
                        "sign": false,
                        "value": "220.80500000000001819"
                    },
                    {
                        "address": "0x423f4e6138e475d85cf7ea071ac92097ed631eea",
                        "amount": "385,133,087.037257747091200175",
                        "iconUrl": "",
                        "isERC1155": false,
                        "isERC721": false,
                        "sign": true,
                        "value": ""
                    }
                ]
            },
            {
                "account": "0x2d50efbc3690b6d0ea0b179c18f016ae9031c00a",
                "assets": [
                    {
                        "address": "0xc02aaa39b223fe8d0a0e5c4f27ead9083c756cc2",
                        "amount": "0.049862154393830282",
                        "iconUrl": "https://assets.blocksec.com/icon/f1cb2d02c471d545bbc7722daf3277fd852d98e63d118771af7047bd8256c516.png",
                        "isERC1155": false,
                        "isERC721": false,
                        "sign": true,
                        "value": "110.09813000083950907"
                    },
                    {
                        "address": "0x6982508145454ce325ddbe47a25d4ec3d2311933",
                        "amount": "91,403,792.987049760560433976",
                        "iconUrl": "https://assets.blocksec.com/icon/99f1a626358e559d9a9d6dc4254c663e595a9ebcd362efa2d4cd902a8d75ea2c.png",
                        "isERC1155": false,
                        "isERC721": false,
                        "sign": true,
                        "value": ""
                    },
                    {
                        "address": "0x423f4e6138e475d85cf7ea071ac92097ed631eea",
                        "amount": "385,133,087.037257747091200175",
                        "iconUrl": "",
                        "isERC1155": false,
                        "isERC721": false,
                        "sign": false,
                        "value": ""
                    }
                ]
            },
            {
                "account": "0x11950d141ecb863f01007add7d1a342041227b58",
                "assets": [
                    {
                        "address": "0x6982508145454ce325ddbe47a25d4ec3d2311933",
                        "amount": "91,403,792.987049760560433976",
                        "iconUrl": "https://assets.blocksec.com/icon/99f1a626358e559d9a9d6dc4254c663e595a9ebcd362efa2d4cd902a8d75ea2c.png",
                        "isERC1155": false,
                        "isERC721": false,
                        "sign": false,
                        "value": ""
                    },
                    {
                        "address": "0xc02aaa39b223fe8d0a0e5c4f27ead9083c756cc2",
                        "amount": "0.050137845606169718",
                        "iconUrl": "https://assets.blocksec.com/icon/f1cb2d02c471d545bbc7722daf3277fd852d98e63d118771af7047bd8256c516.png",
                        "isERC1155": false,
                        "isERC721": false,
                        "sign": true,
                        "value": "110.70686999916050912"
                    }
                ]
            },
            {
                "account": "0xc02aaa39b223fe8d0a0e5c4f27ead9083c756cc2",
                "assets": [
                    {
                        "address": "0xc02aaa39b223fe8d0a0e5c4f27ead9083c756cc2",
                        "amount": "0.1",
                        "iconUrl": "https://assets.blocksec.com/icon/f1cb2d02c471d545bbc7722daf3277fd852d98e63d118771af7047bd8256c516.png",
                        "isERC1155": false,
                        "isERC721": false,
                        "sign": false,
                        "value": "220.80500000000001819"
                    },
                    {
                        "address": "0xeeeeeeeeeeeeeeeeeeeeeeeeeeeeeeeeeeeeeeee",
                        "amount": "0.1",
                        "iconUrl": "https://assets.blocksec.com/image/1663669189317-3.png",
                        "isERC1155": false,
                        "isERC721": false,
                        "sign": true,
                        "value": "220.80500000000001819"
                    }
                ]
            }
        ]
    },
    "profile": {
        "basic_info": {
            "baseFee": "33.543699366",
            "blockNumber": 18930420,
            "callData": "0x2a48cd780000000000000000000000000000000000000000000000000000000000000001000000000000000000000000000000000000000000000000016345785d8a0000000000000000000000000000000000000000000000000000000000000000008000000000000000000000000000000000000000000000000000000000000000a000000000000000000000000000000000000000000000000000000000000000000000000000000000000000000000000000000000000000000000000000000000",
            "debugEnable": true,
            "errorInfo": "",
            "eventCount": 11,
            "feeRecipient": "0x1f9090aae28b8a3dceadf281b0f12828e676c326",
            "formatValue": "0.1",
            "gasLimit": 504376,
            "gasPrice": "33.643699366",
            "gasUsed": 330547,
            "intTxnCount": 20,
            "internalRevert": false,
            "internalRevertMessage": "",
            "isContractCreation": false,
            "isFlashloan": false,
            "maxFee": "44.665253637",
            "nonce": 775,
            "overwritedBlockNumber": -1,
            "priorityFee": "0.1",
            "receiver": "0x2d50efbc3690b6d0ea0b179c18f016ae9031c00a",
            "revertMessage": "",
            "sender": "0xc1e6902198ba29b5a79f11cc8dd66692957218e0",
            "simulationEnable": true,
            "sourceTxnHash": "0x2ee79698e4ee552b95e8c43073d7d708f1a659da0ba2fa217ec63d0cabc8f752",
            "status": true,
            "timestamp": "2024-01-04T00:33:35Z",
            "transactionFee": "0.011120823894333202",
            "txnHash": "0x2ee79698e4ee552b95e8c43073d7d708f1a659da0ba2fa217ec63d0cabc8f752",
            "txnIndex": 41,
            "type": 2,
            "value": "100000000000000000"
        },
        "fund_flow": [
            {
                "amount": "0.1",
                "from": "0xc1e6902198ba29b5a79f11cc8dd66692957218e0",
                "id": 1,
                "isERC1155": false,
                "isERC721": false,
                "isReverted": false,
                "order": 1,
                "to": "0x2d50efbc3690b6d0ea0b179c18f016ae9031c00a",
                "token": "0xeeeeeeeeeeeeeeeeeeeeeeeeeeeeeeeeeeeeeeee"
            },
            {
                "amount": "0.1",
                "from": "0x2d50efbc3690b6d0ea0b179c18f016ae9031c00a",
                "id": 2,
                "isERC1155": false,
                "isERC721": false,
                "isReverted": false,
                "order": 2,
                "to": "0xc02aaa39b223fe8d0a0e5c4f27ead9083c756cc2",
                "token": "0xeeeeeeeeeeeeeeeeeeeeeeeeeeeeeeeeeeeeeeee"
            },
            {
                "amount": "0.1",
                "from": "0xc02aaa39b223fe8d0a0e5c4f27ead9083c756cc2",
                "id": 3,
                "isERC1155": false,
                "isERC721": false,
                "isReverted": false,
                "order": 3,
                "to": "0x2d50efbc3690b6d0ea0b179c18f016ae9031c00a",
                "token": "0xc02aaa39b223fe8d0a0e5c4f27ead9083c756cc2"
            },
            {
                "amount": "91,762,239.234057798837136936",
                "from": "0x11950d141ecb863f01007add7d1a342041227b58",
                "id": 4,
                "isERC1155": false,
                "isERC721": false,
                "isReverted": false,
                "order": 4,
                "to": "0x2d50efbc3690b6d0ea0b179c18f016ae9031c00a",
                "token": "0x6982508145454ce325ddbe47a25d4ec3d2311933"
            },
            {
                "amount": "0.050137845606169718",
                "from": "0x2d50efbc3690b6d0ea0b179c18f016ae9031c00a",
                "id": 5,
                "isERC1155": false,
                "isERC721": false,
                "isReverted": false,
                "order": 5,
                "to": "0x11950d141ecb863f01007add7d1a342041227b58",
                "token": "0xc02aaa39b223fe8d0a0e5c4f27ead9083c756cc2"
            },
            {
                "amount": "358,446.24700803827670296",
                "from": "0x2d50efbc3690b6d0ea0b179c18f016ae9031c00a",
                "id": 6,
                "isERC1155": false,
                "isERC721": false,
                "isReverted": false,
                "order": 6,
                "to": "0x11950d141ecb863f01007add7d1a342041227b58",
                "token": "0x6982508145454ce325ddbe47a25d4ec3d2311933"
            },
            {
                "amount": "385,133,087.037257747091200175",
                "from": "0x2d50efbc3690b6d0ea0b179c18f016ae9031c00a",
                "id": 7,
                "isERC1155": false,
                "isERC721": false,
                "isReverted": false,
                "order": 7,
                "to": "0xc1e6902198ba29b5a79f11cc8dd66692957218e0",
                "token": "0x423f4e6138e475d85cf7ea071ac92097ed631eea"
            }
        ],
        "token_infos": [
            {
                "address": "0x423f4e6138e475d85cf7ea071ac92097ed631eea",
                "decimals": 18
            },
            {
                "address": "0x6982508145454ce325ddbe47a25d4ec3d2311933",
                "decimals": 18
            },
            {
                "address": "0xc02aaa39b223fe8d0a0e5c4f27ead9083c756cc2",
                "decimals": 18
            },
            {
                "address": "0xeeeeeeeeeeeeeeeeeeeeeeeeeeeeeeeeeeeeeeee",
                "decimals": 18
            }
        ]
    },
    "address_label": {
        "labels": [
            {
                "address": "0x11950d141ecb863f01007add7d1a342041227b58",
                "label": "Uniswap V3: PEPE 4"
            },
            {
                "address": "0xc02aaa39b223fe8d0a0e5c4f27ead9083c756cc2",
                "label": "Wrapped Ether (WETH)"
            },
            {
                "address": "0xc36442b4a4522e871399cd717abdd847ab11fe88",
                "label": "Uniswap V3: Positions NFT"
            },
            {
                "address": "0x0000000000000000000000000000000000000002",
                "label": "Precompiled"
            },
            {
                "address": "0x0000000000000000000000000000000000000001",
                "label": "Precompiled"
            },
            {
                "address": "0x0000000000000000000000000000000000000003",
                "label": "Precompiled"
            },
            {
                "address": "0x0000000000000000000000000000000000000004",
                "label": "Precompiled"
            },
            {
                "address": "0xeeeeeeeeeeeeeeeeeeeeeeeeeeeeeeeeeeeeeeee",
                "label": "Ether"
            },
            {
                "address": "0x423f4e6138e475d85cf7ea071ac92097ed631eea",
                "label": "Pond Coin: PNDC Token"
            },
            {
                "address": "0xe592427a0aece92de3edee1f18e0157c05861564",
                "label": "Uniswap V3: Router"
            },
            {
                "address": "0x6982508145454ce325ddbe47a25d4ec3d2311933",
                "label": "Pepe: PEPE Token"
            },
            {
                "address": "0x2d50efbc3690b6d0ea0b179c18f016ae9031c00a",
                "label": "MiningRigV3"
            }
        ]
    },
    "trace": {
        "accountLabels": null,
        "dataMap": {
            "-1": {
                "invocation": {
                    "address": "0xc1e6902198ba29b5a79f11cc8dd66692957218e0",
                    "callData": "",
                    "decodedMethod": null,
                    "errorInfo": "",
                    "fromAddress": "",
                    "gasUsed": 0,
                    "id": -1,
                    "methodDecoded": false,
                    "operation": "",
                    "output": "",
                    "revert": false,
                    "revertMessage": "",
                    "selector": "",
                    "status": false,
                    "value": ""
                },
                "nodeType": 0
            },
            "0": {
                "invocation": {
                    "address": "0x2d50efbc3690b6d0ea0b179c18f016ae9031c00a",
                    "callData": "0x0000000000000000000000000000000000000000000000000000000000000001000000000000000000000000000000000000000000000000016345785d8a0000000000000000000000000000000000000000000000000000000000000000008000000000000000000000000000000000000000000000000000000000000000a000000000000000000000000000000000000000000000000000000000000000000000000000000000000000000000000000000000000000000000000000000000",
                    "decodedMethod": {
                        "callParams": [
                            {
                                "name": "_tokenBoosterId",
                                "type": "uint256",
                                "value": "1"
                            },
                            {
                                "name": "_amount",
                                "type": "uint256",
                                "value": "100,000,000,000,000,000"
                            },
                            {
                                "name": "_userBoostIDs",
                                "type": "uint256[]",
                                "value": []
                            },
                            {
                                "name": "_userBoostMerkleProofs",
                                "type": "bytes32[][]",
                                "value": []
                            }
                        ],
                        "constructorArguments": "",
                        "name": "mine",
                        "returnParams": [
                            {
                                "name": "pndcAmount",
                                "type": "uint256",
                                "value": "385,133,087,037,257,747,091,200,175"
                            },
                            {
                                "name": "boosterMultiplier",
                                "type": "uint256",
                                "value": "1,525,000,000,000,000,000"
                            }
                        ],
                        "signature": "mine(uint256,uint256,uint256[],bytes32[][])"
                    },
                    "errorInfo": "",
                    "fromAddress": "0xc1e6902198ba29b5a79f11cc8dd66692957218e0",
                    "gasUsed": 330547,
                    "id": 0,
                    "methodDecoded": true,
                    "operation": "CALL",
                    "output": "0x0000000000000000000000000000000000000000013e931a7babedf2e99c98af0000000000000000000000000000000000000000000000001529e36b92788000",
                    "revert": false,
                    "revertMessage": "",
                    "selector": "0x2a48cd78",
                    "status": true,
                    "value": "0.1"
                },
                "nodeType": 0
            },
            "1": {
                "invocation": {
                    "address": "0xc02aaa39b223fe8d0a0e5c4f27ead9083c756cc2",
                    "callData": "0x",
                    "decodedMethod": {
                        "callParams": [],
                        "constructorArguments": "",
                        "name": "deposit",
                        "returnParams": [],
                        "signature": "deposit()"
                    },
                    "errorInfo": "",
                    "fromAddress": "0x2d50efbc3690b6d0ea0b179c18f016ae9031c00a",
                    "gasUsed": 6874,
                    "id": 1,
                    "methodDecoded": true,
                    "operation": "CALL",
                    "output": "",
                    "revert": false,
                    "revertMessage": "",
                    "selector": "0xd0e30db0",
                    "status": true,
                    "value": "0.1"
                },
                "nodeType": 0
            },
            "10": {
                "event": {
                    "contract": "0xc02aaa39b223fe8d0a0e5c4f27ead9083c756cc2",
                    "decodedLog": {
                        "name": "Transfer",
                        "params": [
                            {
                                "name": "src",
                                "type": "address",
                                "value": "0x2d50efbc3690b6d0ea0b179c18f016ae9031c00a"
                            },
                            {
                                "name": "dst",
                                "type": "address",
                                "value": "0x11950d141ecb863f01007add7d1a342041227b58"
                            },
                            {
                                "decimalAvailable": true,
                                "name": "wad",
                                "type": "uint256",
                                "value": "50,000,000,000,000,000"
                            }
                        ],
                        "signature": "Transfer(address,address,uint256)"
                    },
                    "id": 10,
                    "logData": "0x00000000000000000000000000000000000000000000000000b1a2bc2ec50000",
                    "logDecoded": true,
                    "operation": "EVENT",
                    "revert": false,
                    "status": true,
                    "topics": [
                        "0xddf252ad1be2c89b69c2b068fc378daa952ba7f163c4a11628f55a4df523b3ef",
                        "0x0000000000000000000000002d50efbc3690b6d0ea0b179c18f016ae9031c00a",
                        "0x00000000000000000000000011950d141ecb863f01007add7d1a342041227b58"
                    ]
                },
                "nodeType": 1
            },
            "11": {
                "invocation": {
                    "address": "0xc02aaa39b223fe8d0a0e5c4f27ead9083c756cc2",
                    "callData": "0x00000000000000000000000011950d141ecb863f01007add7d1a342041227b58",
                    "decodedMethod": {
                        "callParams": [
                            {
                                "name": "",
                                "type": "address",
                                "value": "0x11950d141ecb863f01007add7d1a342041227b58"
                            }
                        ],
                        "constructorArguments": "",
                        "name": "balanceOf",
                        "returnParams": [
                            {
                                "decimalAvailable": true,
                                "name": "",
                                "type": "uint256",
                                "value": "296,350,264,268,037,831,247"
                            }
                        ],
                        "signature": "balanceOf(address)"
                    },
                    "errorInfo": "",
                    "fromAddress": "0x11950d141ecb863f01007add7d1a342041227b58",
                    "gasUsed": 534,
                    "id": 11,
                    "methodDecoded": true,
                    "operation": "STATICCALL",
                    "output": "0x00000000000000000000000000000000000000000000001010afa33885883a4f",
                    "revert": false,
                    "revertMessage": "",
                    "selector": "0x70a08231",
                    "status": true,
                    "value": "0"
                },
                "nodeType": 0
            },
            "12": {
                "event": {
                    "contract": "0x11950d141ecb863f01007add7d1a342041227b58",
                    "decodedLog": {
                        "name": "Swap",
                        "params": [
                            {
                                "name": "sender",
                                "type": "address",
                                "value": "0xe592427a0aece92de3edee1f18e0157c05861564"
                            },
                            {
                                "name": "recipient",
                                "type": "address",
                                "value": "0x2d50efbc3690b6d0ea0b179c18f016ae9031c00a"
                            },
                            {
                                "name": "amount0",
                                "type": "int256",
                                "value": "-91,762,239,234,057,798,837,136,936"
                            },
                            {
                                "name": "amount1",
                                "type": "int256",
                                "value": "50,000,000,000,000,000"
                            },
                            {
                                "name": "sqrtPriceX96",
                                "type": "uint160",
                                "value": "1,846,639,974,512,766,725,301,248"
                            },
                            {
                                "name": "liquidity",
                                "type": "uint128",
                                "value": "224,473,966,311,412,025,137,294,723"
                            },
                            {
                                "name": "tick",
                                "type": "int24",
                                "value": "-213,346"
                            }
                        ],
                        "signature": "Swap(address,address,int256,int256,uint160,uint128,int24)"
                    },
                    "id": 12,
                    "logData": "0xffffffffffffffffffffffffffffffffffffffffffb418970b23cc81e1cb11d800000000000000000000000000000000000000000000000000b1a2bc2ec5000000000000000000000000000000000000000000000001870a8db94574e21aa400000000000000000000000000000000000000000000b9ae3618d928051a0fed83fffffffffffffffffffffffffffffffffffffffffffffffffffffffffffcbe9e",
                    "logDecoded": true,
                    "operation": "EVENT",
                    "revert": false,
                    "status": true,
                    "topics": [
                        "0xc42079f94a6350d7e6235f29174924f928cc2ac818eb64fed8004e115fbcca67",
                        "0x000000000000000000000000e592427a0aece92de3edee1f18e0157c05861564",
                        "0x0000000000000000000000002d50efbc3690b6d0ea0b179c18f016ae9031c00a"
                    ]
                },
                "nodeType": 1
            },
            "13": {
                "invocation": {
                    "address": "0xc36442b4a4522e871399cd717abdd847ab11fe88",
                    "callData": "0x000000000000000000000000000000000000000000000000000000000009bc1e000000000000000000000000000000000000000000004be768f4dc337e1e34ee0000000000000000000000000000000000000000000000000000b1a2bc2ec50000000000000000000000000000000000000000000000000000000000000000000000000000000000000000000000000000000000000000000000000000000000000000000000000000000000000000000000000000000000000000006595fcdf",
                    "decodedMethod": {
                        "callParams": [
                            {
                                "name": "params",
                                "type": "(uint256,uint256,uint256,uint256,uint256,uint256)",
                                "value": [
                                    {
                                        "name": "tokenId",
                                        "type": "uint256",
                                        "value": "637,982"
                                    },
                                    {
                                        "name": "amount0Desired",
                                        "type": "uint256",
                                        "value": "358,446,247,008,038,276,707,566"
                                    },
                                    {
                                        "name": "amount1Desired",
                                        "type": "uint256",
                                        "value": "195,312,500,000,000"
                                    },
                                    {
                                        "name": "amount0Min",
                                        "type": "uint256",
                                        "value": "0"
                                    },
                                    {
                                        "name": "amount1Min",
                                        "type": "uint256",
                                        "value": "0"
                                    },
                                    {
                                        "name": "deadline",
                                        "type": "uint256",
                                        "value": "1,704,328,415"
                                    }
                                ]
                            }
                        ],
                        "constructorArguments": "",
                        "name": "increaseLiquidity",
                        "returnParams": [
                            {
                                "name": "liquidity",
                                "type": "uint128",
                                "value": "132,264,043,445,176,022,278"
                            },
                            {
                                "name": "amount0",
                                "type": "uint256",
                                "value": "358,446,247,008,038,276,702,960"
                            },
                            {
                                "name": "amount1",
                                "type": "uint256",
                                "value": "137,845,606,169,718"
                            }
                        ],
                        "signature": "increaseLiquidity((uint256,uint256,uint256,uint256,uint256,uint256))"
                    },
                    "errorInfo": "",
                    "fromAddress": "0x2d50efbc3690b6d0ea0b179c18f016ae9031c00a",
                    "gasUsed": 122837,
                    "id": 13,
                    "methodDecoded": true,
                    "operation": "CALL",
                    "output": "0x0000000000000000000000000000000000000000000000072b8846bf9a8cb506000000000000000000000000000000000000000000004be768f4dc337e1e22f000000000000000000000000000000000000000000000000000007d5eae63bc76",
                    "revert": false,
                    "revertMessage": "",
                    "selector": "0x219f5d17",
                    "status": true,
                    "value": "0"
                },
                "nodeType": 0
            },
            "14": {
                "invocation": {
                    "address": "0x11950d141ecb863f01007add7d1a342041227b58",
                    "callData": "0x",
                    "decodedMethod": {
                        "callParams": [],
                        "constructorArguments": "",
                        "name": "slot0",
                        "returnParams": [
                            {
                                "name": "sqrtPriceX96",
                                "type": "uint160",
                                "value": "1,846,639,974,512,766,725,301,248"
                            },
                            {
                                "name": "tick",
                                "type": "int24",
                                "value": "-213,346"
                            },
                            {
                                "name": "observationIndex",
                                "type": "uint16",
                                "value": "22"
                            },
                            {
                                "name": "observationCardinality",
                                "type": "uint16",
                                "value": "180"
                            },
                            {
                                "name": "observationCardinalityNext",
                                "type": "uint16",
                                "value": "180"
                            },
                            {
                                "name": "feeProtocol",
                                "type": "uint8",
                                "value": "0"
                            },
                            {
                                "name": "unlocked",
                                "type": "bool",
                                "value": true
                            }
                        ],
                        "signature": "slot0()"
                    },
                    "errorInfo": "",
                    "fromAddress": "0xc36442b4a4522e871399cd717abdd847ab11fe88",
                    "gasUsed": 696,
                    "id": 14,
                    "methodDecoded": true,
                    "operation": "STATICCALL",
                    "output": "0x00000000000000000000000000000000000000000001870a8db94574e21aa400fffffffffffffffffffffffffffffffffffffffffffffffffffffffffffcbe9e000000000000000000000000000000000000000000000000000000000000001600000000000000000000000000000000000000000000000000000000000000b400000000000000000000000000000000000000000000000000000000000000b400000000000000000000000000000000000000000000000000000000000000000000000000000000000000000000000000000000000000000000000000000001",
                    "revert": false,
                    "revertMessage": "",
                    "selector": "0x3850c7bd",
                    "status": true,
                    "value": "0"
                },
                "nodeType": 0
            },
            "15": {
                "invocation": {
                    "address": "0x11950d141ecb863f01007add7d1a342041227b58",
                    "callData": "0x000000000000000000000000c36442b4a4522e871399cd717abdd847ab11fe88fffffffffffffffffffffffffffffffffffffffffffffffffffffffffffcbb0cfffffffffffffffffffffffffffffffffffffffffffffffffffffffffffcc3b80000000000000000000000000000000000000000000000072b8846bf9a8cb50600000000000000000000000000000000000000000000000000000000000000a000000000000000000000000000000000000000000000000000000000000000800000000000000000000000006982508145454ce325ddbe47a25d4ec3d2311933000000000000000000000000c02aaa39b223fe8d0a0e5c4f27ead9083c756cc20000000000000000000000000000000000000000000000000000000000000bb80000000000000000000000002d50efbc3690b6d0ea0b179c18f016ae9031c00a",
                    "decodedMethod": {
                        "callParams": [
                            {
                                "name": "recipient",
                                "type": "address",
                                "value": "0xc36442b4a4522e871399cd717abdd847ab11fe88"
                            },
                            {
                                "name": "tickLower",
                                "type": "int24",
                                "value": "-214,260"
                            },
                            {
                                "name": "tickUpper",
                                "type": "int24",
                                "value": "-212,040"
                            },
                            {
                                "name": "amount",
                                "type": "uint128",
                                "value": "132,264,043,445,176,022,278"
                            },
                            {
                                "name": "data",
                                "type": "bytes",
                                "value": "0x0000000000000000000000006982508145454ce325ddbe47a25d4ec3d2311933000000000000000000000000c02aaa39b223fe8d0a0e5c4f27ead9083c756cc20000000000000000000000000000000000000000000000000000000000000bb80000000000000000000000002d50efbc3690b6d0ea0b179c18f016ae9031c00a"
                            }
                        ],
                        "constructorArguments": "",
                        "name": "mint",
                        "returnParams": [
                            {
                                "name": "amount0",
                                "type": "uint256",
                                "value": "358,446,247,008,038,276,702,960"
                            },
                            {
                                "name": "amount1",
                                "type": "uint256",
                                "value": "137,845,606,169,718"
                            }
                        ],
                        "signature": "mint(address,int24,int24,uint128,bytes)"
                    },
                    "errorInfo": "",
                    "fromAddress": "0xc36442b4a4522e871399cd717abdd847ab11fe88",
                    "gasUsed": 87004,
                    "id": 15,
                    "methodDecoded": true,
                    "operation": "CALL",
                    "output": "0x000000000000000000000000000000000000000000004be768f4dc337e1e22f000000000000000000000000000000000000000000000000000007d5eae63bc76",
                    "revert": false,
                    "revertMessage": "",
                    "selector": "0x3c8a7d8d",
                    "status": true,
                    "value": "0"
                },
                "nodeType": 0
            },
            "16": {
                "invocation": {
                    "address": "0x6982508145454ce325ddbe47a25d4ec3d2311933",
                    "callData": "0x00000000000000000000000011950d141ecb863f01007add7d1a342041227b58",
                    "decodedMethod": {
                        "callParams": [
                            {
                                "name": "account",
                                "type": "address",
                                "value": "0x11950d141ecb863f01007add7d1a342041227b58"
                            }
                        ],
                        "constructorArguments": "",
                        "name": "balanceOf",
                        "returnParams": [
                            {
                                "decimalAvailable": true,
                                "name": "",
                                "type": "uint256",
                                "value": "1,985,672,742,188,769,075,377,308,429,320"
                            }
                        ],
                        "signature": "balanceOf(address)"
                    },
                    "errorInfo": "",
                    "fromAddress": "0x11950d141ecb863f01007add7d1a342041227b58",
                    "gasUsed": 624,
                    "id": 16,
                    "methodDecoded": true,
                    "operation": "STATICCALL",
                    "output": "0x0000000000000000000000000000000000000019100dfec650cc6d76d727ec08",
                    "revert": false,
                    "revertMessage": "",
                    "selector": "0x70a08231",
                    "status": true,
                    "value": "0"
                },
                "nodeType": 0
            },
            "17": {
                "invocation": {
                    "address": "0xc02aaa39b223fe8d0a0e5c4f27ead9083c756cc2",
                    "callData": "0x00000000000000000000000011950d141ecb863f01007add7d1a342041227b58",
                    "decodedMethod": {
                        "callParams": [
                            {
                                "name": "",
                                "type": "address",
                                "value": "0x11950d141ecb863f01007add7d1a342041227b58"
                            }
                        ],
                        "constructorArguments": "",
                        "name": "balanceOf",
                        "returnParams": [
                            {
                                "decimalAvailable": true,
                                "name": "",
                                "type": "uint256",
                                "value": "296,350,264,268,037,831,247"
                            }
                        ],
                        "signature": "balanceOf(address)"
                    },
                    "errorInfo": "",
                    "fromAddress": "0x11950d141ecb863f01007add7d1a342041227b58",
                    "gasUsed": 534,
                    "id": 17,
                    "methodDecoded": true,
                    "operation": "STATICCALL",
                    "output": "0x00000000000000000000000000000000000000000000001010afa33885883a4f",
                    "revert": false,
                    "revertMessage": "",
                    "selector": "0x70a08231",
                    "status": true,
                    "value": "0"
                },
                "nodeType": 0
            },
            "18": {
                "invocation": {
                    "address": "0xc36442b4a4522e871399cd717abdd847ab11fe88",
                    "callData": "0x000000000000000000000000000000000000000000004be768f4dc337e1e22f000000000000000000000000000000000000000000000000000007d5eae63bc76000000000000000000000000000000000000000000000000000000000000006000000000000000000000000000000000000000000000000000000000000000800000000000000000000000006982508145454ce325ddbe47a25d4ec3d2311933000000000000000000000000c02aaa39b223fe8d0a0e5c4f27ead9083c756cc20000000000000000000000000000000000000000000000000000000000000bb80000000000000000000000002d50efbc3690b6d0ea0b179c18f016ae9031c00a",
                    "decodedMethod": {
                        "callParams": [
                            {
                                "name": "amount0Owed",
                                "type": "uint256",
                                "value": "358,446,247,008,038,276,702,960"
                            },
                            {
                                "name": "amount1Owed",
                                "type": "uint256",
                                "value": "137,845,606,169,718"
                            },
                            {
                                "name": "data",
                                "type": "bytes",
                                "value": "0x0000000000000000000000006982508145454ce325ddbe47a25d4ec3d2311933000000000000000000000000c02aaa39b223fe8d0a0e5c4f27ead9083c756cc20000000000000000000000000000000000000000000000000000000000000bb80000000000000000000000002d50efbc3690b6d0ea0b179c18f016ae9031c00a"
                            }
                        ],
                        "constructorArguments": "",
                        "name": "uniswapV3MintCallback",
                        "returnParams": [],
                        "signature": "uniswapV3MintCallback(uint256,uint256,bytes)"
                    },
                    "errorInfo": "",
                    "fromAddress": "0x11950d141ecb863f01007add7d1a342041227b58",
                    "gasUsed": 21444,
                    "id": 18,
                    "methodDecoded": true,
                    "operation": "CALL",
                    "output": "",
                    "revert": false,
                    "revertMessage": "",
                    "selector": "0xd3487997",
                    "status": true,
                    "value": "0"
                },
                "nodeType": 0
            },
            "19": {
                "invocation": {
                    "address": "0x6982508145454ce325ddbe47a25d4ec3d2311933",
                    "callData": "0x0000000000000000000000002d50efbc3690b6d0ea0b179c18f016ae9031c00a00000000000000000000000011950d141ecb863f01007add7d1a342041227b58000000000000000000000000000000000000000000004be768f4dc337e1e22f0",
                    "decodedMethod": {
                        "callParams": [
                            {
                                "name": "sender",
                                "type": "address",
                                "value": "0x2d50efbc3690b6d0ea0b179c18f016ae9031c00a"
                            },
                            {
                                "name": "recipient",
                                "type": "address",
                                "value": "0x11950d141ecb863f01007add7d1a342041227b58"
                            },
                            {
                                "decimalAvailable": true,
                                "name": "amount",
                                "type": "uint256",
                                "value": "358,446,247,008,038,276,702,960"
                            }
                        ],
                        "constructorArguments": "",
                        "name": "transferFrom",
                        "returnParams": [
                            {
                                "name": "",
                                "type": "bool",
                                "value": true
                            }
                        ],
                        "signature": "transferFrom(address,address,uint256)"
                    },
                    "errorInfo": "",
                    "fromAddress": "0xc36442b4a4522e871399cd717abdd847ab11fe88",
                    "gasUsed": 11545,
                    "id": 19,
                    "methodDecoded": true,
                    "operation": "CALL",
                    "output": "0x0000000000000000000000000000000000000000000000000000000000000001",
                    "revert": false,
                    "revertMessage": "",
                    "selector": "0x23b872dd",
                    "status": true,
                    "value": "0"
                },
                "nodeType": 0
            },
            "2": {
                "event": {
                    "contract": "0xc02aaa39b223fe8d0a0e5c4f27ead9083c756cc2",
                    "decodedLog": {
                        "name": "Deposit",
                        "params": [
                            {
                                "name": "dst",
                                "type": "address",
                                "value": "0x2d50efbc3690b6d0ea0b179c18f016ae9031c00a"
                            },
                            {
                                "name": "wad",
                                "type": "uint256",
                                "value": "100,000,000,000,000,000"
                            }
                        ],
                        "signature": "Deposit(address,uint256)"
                    },
                    "id": 2,
                    "logData": "0x000000000000000000000000000000000000000000000000016345785d8a0000",
                    "logDecoded": true,
                    "operation": "EVENT",
                    "revert": false,
                    "status": true,
                    "topics": [
                        "0xe1fffcc4923d04b559f4d29a8bfc6cda04eb5b0d3c460751c2402c5c5cc9109c",
                        "0x0000000000000000000000002d50efbc3690b6d0ea0b179c18f016ae9031c00a"
                    ]
                },
                "nodeType": 1
            },
            "20": {
                "event": {
                    "contract": "0x6982508145454ce325ddbe47a25d4ec3d2311933",
                    "decodedLog": {
                        "name": "Transfer",
                        "params": [
                            {
                                "name": "from",
                                "type": "address",
                                "value": "0x2d50efbc3690b6d0ea0b179c18f016ae9031c00a"
                            },
                            {
                                "name": "to",
                                "type": "address",
                                "value": "0x11950d141ecb863f01007add7d1a342041227b58"
                            },
                            {
                                "decimalAvailable": true,
                                "name": "value",
                                "type": "uint256",
                                "value": "358,446,247,008,038,276,702,960"
                            }
                        ],
                        "signature": "Transfer(address,address,uint256)"
                    },
                    "id": 20,
                    "logData": "0x000000000000000000000000000000000000000000004be768f4dc337e1e22f0",
                    "logDecoded": true,
                    "operation": "EVENT",
                    "revert": false,
                    "status": true,
                    "topics": [
                        "0xddf252ad1be2c89b69c2b068fc378daa952ba7f163c4a11628f55a4df523b3ef",
                        "0x0000000000000000000000002d50efbc3690b6d0ea0b179c18f016ae9031c00a",
                        "0x00000000000000000000000011950d141ecb863f01007add7d1a342041227b58"
                    ]
                },
                "nodeType": 1
            },
            "21": {
                "event": {
                    "contract": "0x6982508145454ce325ddbe47a25d4ec3d2311933",
                    "decodedLog": {
                        "name": "Approval",
                        "params": [
                            {
                                "name": "owner",
                                "type": "address",
                                "value": "0x2d50efbc3690b6d0ea0b179c18f016ae9031c00a"
                            },
                            {
                                "name": "spender",
                                "type": "address",
                                "value": "0xc36442b4a4522e871399cd717abdd847ab11fe88"
                            },
                            {
                                "decimalAvailable": true,
                                "name": "value",
                                "type": "uint256",
                                "value": "115,792,089,237,316,195,423,570,985,008,687,907,853,269,984,665,628,593,319,985,029,463,337,281,312,831"
                            }
                        ],
                        "signature": "Approval(address,address,uint256)"
                    },
                    "id": 21,
                    "logData": "0xffffffffffffffffffffffffffffffffffffffffd9520d8d1503f3aa92b0d83f",
                    "logDecoded": true,
                    "operation": "EVENT",
                    "revert": false,
                    "status": true,
                    "topics": [
                        "0x8c5be1e5ebec7d5bd14f71427d1e84f3dd0314c0f7b2291e5b200ac8c7c3b925",
                        "0x0000000000000000000000002d50efbc3690b6d0ea0b179c18f016ae9031c00a",
                        "0x000000000000000000000000c36442b4a4522e871399cd717abdd847ab11fe88"
                    ]
                },
                "nodeType": 1
            },
            "22": {
                "invocation": {
                    "address": "0xc02aaa39b223fe8d0a0e5c4f27ead9083c756cc2",
                    "callData": "0x0000000000000000000000002d50efbc3690b6d0ea0b179c18f016ae9031c00a00000000000000000000000011950d141ecb863f01007add7d1a342041227b5800000000000000000000000000000000000000000000000000007d5eae63bc76",
                    "decodedMethod": {
                        "callParams": [
                            {
                                "name": "src",
                                "type": "address",
                                "value": "0x2d50efbc3690b6d0ea0b179c18f016ae9031c00a"
                            },
                            {
                                "name": "dst",
                                "type": "address",
                                "value": "0x11950d141ecb863f01007add7d1a342041227b58"
                            },
                            {
                                "decimalAvailable": true,
                                "name": "wad",
                                "type": "uint256",
                                "value": "137,845,606,169,718"
                            }
                        ],
                        "constructorArguments": "",
                        "name": "transferFrom",
                        "returnParams": [
                            {
                                "name": "",
                                "type": "bool",
                                "value": true
                            }
                        ],
                        "signature": "transferFrom(address,address,uint256)"
                    },
                    "errorInfo": "",
                    "fromAddress": "0xc36442b4a4522e871399cd717abdd847ab11fe88",
                    "gasUsed": 5425,
                    "id": 22,
                    "methodDecoded": true,
                    "operation": "CALL",
                    "output": "0x0000000000000000000000000000000000000000000000000000000000000001",
                    "revert": false,
                    "revertMessage": "",
                    "selector": "0x23b872dd",
                    "status": true,
                    "value": "0"
                },
                "nodeType": 0
            },
            "23": {
                "event": {
                    "contract": "0xc02aaa39b223fe8d0a0e5c4f27ead9083c756cc2",
                    "decodedLog": {
                        "name": "Transfer",
                        "params": [
                            {
                                "name": "src",
                                "type": "address",
                                "value": "0x2d50efbc3690b6d0ea0b179c18f016ae9031c00a"
                            },
                            {
                                "name": "dst",
                                "type": "address",
                                "value": "0x11950d141ecb863f01007add7d1a342041227b58"
                            },
                            {
                                "decimalAvailable": true,
                                "name": "wad",
                                "type": "uint256",
                                "value": "137,845,606,169,718"
                            }
                        ],
                        "signature": "Transfer(address,address,uint256)"
                    },
                    "id": 23,
                    "logData": "0x00000000000000000000000000000000000000000000000000007d5eae63bc76",
                    "logDecoded": true,
                    "operation": "EVENT",
                    "revert": false,
                    "status": true,
                    "topics": [
                        "0xddf252ad1be2c89b69c2b068fc378daa952ba7f163c4a11628f55a4df523b3ef",
                        "0x0000000000000000000000002d50efbc3690b6d0ea0b179c18f016ae9031c00a",
                        "0x00000000000000000000000011950d141ecb863f01007add7d1a342041227b58"
                    ]
                },
                "nodeType": 1
            },
            "24": {
                "invocation": {
                    "address": "0x6982508145454ce325ddbe47a25d4ec3d2311933",
                    "callData": "0x00000000000000000000000011950d141ecb863f01007add7d1a342041227b58",
                    "decodedMethod": {
                        "callParams": [
                            {
                                "name": "account",
                                "type": "address",
                                "value": "0x11950d141ecb863f01007add7d1a342041227b58"
                            }
                        ],
                        "constructorArguments": "",
                        "name": "balanceOf",
                        "returnParams": [
                            {
                                "decimalAvailable": true,
                                "name": "",
                                "type": "uint256",
                                "value": "1,985,673,100,635,016,083,415,585,132,280"
                            }
                        ],
                        "signature": "balanceOf(address)"
                    },
                    "errorInfo": "",
                    "fromAddress": "0x11950d141ecb863f01007add7d1a342041227b58",
                    "gasUsed": 624,
                    "id": 24,
                    "methodDecoded": true,
                    "operation": "STATICCALL",
                    "output": "0x0000000000000000000000000000000000000019100e4aadb9c149aa55460ef8",
                    "revert": false,
                    "revertMessage": "",
                    "selector": "0x70a08231",
                    "status": true,
                    "value": "0"
                },
                "nodeType": 0
            },
            "25": {
                "invocation": {
                    "address": "0xc02aaa39b223fe8d0a0e5c4f27ead9083c756cc2",
                    "callData": "0x00000000000000000000000011950d141ecb863f01007add7d1a342041227b58",
                    "decodedMethod": {
                        "callParams": [
                            {
                                "name": "",
                                "type": "address",
                                "value": "0x11950d141ecb863f01007add7d1a342041227b58"
                            }
                        ],
                        "constructorArguments": "",
                        "name": "balanceOf",
                        "returnParams": [
                            {
                                "decimalAvailable": true,
                                "name": "",
                                "type": "uint256",
                                "value": "296,350,402,113,644,000,965"
                            }
                        ],
                        "signature": "balanceOf(address)"
                    },
                    "errorInfo": "",
                    "fromAddress": "0x11950d141ecb863f01007add7d1a342041227b58",
                    "gasUsed": 534,
                    "id": 25,
                    "methodDecoded": true,
                    "operation": "STATICCALL",
                    "output": "0x00000000000000000000000000000000000000000000001010b0209733ebf6c5",
                    "revert": false,
                    "revertMessage": "",
                    "selector": "0x70a08231",
                    "status": true,
                    "value": "0"
                },
                "nodeType": 0
            },
            "26": {
                "event": {
                    "contract": "0x11950d141ecb863f01007add7d1a342041227b58",
                    "decodedLog": {
                        "name": "Mint",
                        "params": [
                            {
                                "name": "owner",
                                "type": "address",
                                "value": "0xc36442b4a4522e871399cd717abdd847ab11fe88"
                            },
                            {
                                "name": "tickLower",
                                "type": "int24",
                                "value": "-214,260"
                            },
                            {
                                "name": "tickUpper",
                                "type": "int24",
                                "value": "-212,040"
                            },
                            {
                                "name": "sender",
                                "type": "address",
                                "value": "0xc36442b4a4522e871399cd717abdd847ab11fe88"
                            },
                            {
                                "name": "amount",
                                "type": "uint128",
                                "value": "132,264,043,445,176,022,278"
                            },
                            {
                                "name": "amount0",
                                "type": "uint256",
                                "value": "358,446,247,008,038,276,702,960"
                            },
                            {
                                "name": "amount1",
                                "type": "uint256",
                                "value": "137,845,606,169,718"
                            }
                        ],
                        "signature": "Mint(address,address,int24,int24,uint128,uint256,uint256)"
                    },
                    "id": 26,
                    "logData": "0x000000000000000000000000c36442b4a4522e871399cd717abdd847ab11fe880000000000000000000000000000000000000000000000072b8846bf9a8cb506000000000000000000000000000000000000000000004be768f4dc337e1e22f000000000000000000000000000000000000000000000000000007d5eae63bc76",
                    "logDecoded": true,
                    "operation": "EVENT",
                    "revert": false,
                    "status": true,
                    "topics": [
                        "0x7a53080ba414158be7ec69b987b5fb7d07dee101fe85488f0853ae16239d0bde",
                        "0x000000000000000000000000c36442b4a4522e871399cd717abdd847ab11fe88",
                        "0xfffffffffffffffffffffffffffffffffffffffffffffffffffffffffffcbb0c",
                        "0xfffffffffffffffffffffffffffffffffffffffffffffffffffffffffffcc3b8"
                    ]
                },
                "nodeType": 1
            },
            "27": {
                "invocation": {
                    "address": "0x11950d141ecb863f01007add7d1a342041227b58",
                    "callData": "0x993f0807ca5deea84afe0c95f2b5395c7664b37ecd51120b14f82950025625f1",
                    "decodedMethod": {
                        "callParams": [
                            {
                                "name": "",
                                "type": "bytes32",
                                "value": "0x993f0807ca5deea84afe0c95f2b5395c7664b37ecd51120b14f82950025625f1"
                            }
                        ],
                        "constructorArguments": "",
                        "name": "positions",
                        "returnParams": [
                            {
                                "name": "liquidity",
                                "type": "uint128",
                                "value": "1,451,340,823,178,291,435,821,171"
                            },
                            {
                                "name": "feeGrowthInside0LastX128",
                                "type": "uint256",
                                "value": "29,603,267,587,118,847,629,168,996,743,359,770,301,330"
                            },
                            {
                                "name": "feeGrowthInside1LastX128",
                                "type": "uint256",
                                "value": "5,479,706,357,202,249,809,790,463,253,979"
                            },
                            {
                                "name": "tokensOwed0",
                                "type": "uint128",
                                "value": "25,832,822,878,466,128,134,881,701"
                            },
                            {
                                "name": "tokensOwed1",
                                "type": "uint128",
                                "value": "13,998,992,403,862,045"
                            }
                        ],
                        "signature": "positions(bytes32)"
                    },
                    "errorInfo": "",
                    "fromAddress": "0xc36442b4a4522e871399cd717abdd847ab11fe88",
                    "gasUsed": 1013,
                    "id": 27,
                    "methodDecoded": true,
                    "operation": "STATICCALL",
                    "output": "0x00000000000000000000000000000000000000000001335557fb1b6a9588587300000000000000000000000000000056ff05f32463fdf0e0de8a16e93b169392000000000000000000000000000000000000004529e2dc7510c0be3f32021ddb000000000000000000000000000000000000000000155e5022625b6dc6c941a50000000000000000000000000000000000000000000000000031bc026972121d",
                    "revert": false,
                    "revertMessage": "",
                    "selector": "0x514ea4bf",
                    "status": true,
                    "value": "0"
                },
                "nodeType": 0
            },
            "28": {
                "event": {
                    "contract": "0xc36442b4a4522e871399cd717abdd847ab11fe88",
                    "decodedLog": {
                        "name": "IncreaseLiquidity",
                        "params": [
                            {
                                "name": "tokenId",
                                "type": "uint256",
                                "value": "637,982"
                            },
                            {
                                "name": "liquidity",
                                "type": "uint128",
                                "value": "132,264,043,445,176,022,278"
                            },
                            {
                                "name": "amount0",
                                "type": "uint256",
                                "value": "358,446,247,008,038,276,702,960"
                            },
                            {
                                "name": "amount1",
                                "type": "uint256",
                                "value": "137,845,606,169,718"
                            }
                        ],
                        "signature": "IncreaseLiquidity(uint256,uint128,uint256,uint256)"
                    },
                    "id": 28,
                    "logData": "0x0000000000000000000000000000000000000000000000072b8846bf9a8cb506000000000000000000000000000000000000000000004be768f4dc337e1e22f000000000000000000000000000000000000000000000000000007d5eae63bc76",
                    "logDecoded": true,
                    "operation": "EVENT",
                    "revert": false,
                    "status": true,
                    "topics": [
                        "0x3067048beee31b25b2f1681f88dac838c8bba36af25bfb2b7cf7473a5847e35f",
                        "0x000000000000000000000000000000000000000000000000000000000009bc1e"
                    ]
                },
                "nodeType": 1
            },
            "29": {
                "invocation": {
                    "address": "0x423f4e6138e475d85cf7ea071ac92097ed631eea",
                    "callData": "0x000000000000000000000000c1e6902198ba29b5a79f11cc8dd66692957218e00000000000000000000000000000000000000000013e931a7babedf2e99c98af",
                    "decodedMethod": {
                        "callParams": [
                            {
                                "name": "to",
                                "type": "address",
                                "value": "0xc1e6902198ba29b5a79f11cc8dd66692957218e0"
                            },
                            {
                                "decimalAvailable": true,
                                "name": "amount",
                                "type": "uint256",
                                "value": "385,133,087,037,257,747,091,200,175"
                            }
                        ],
                        "constructorArguments": "",
                        "name": "transfer",
                        "returnParams": [
                            {
                                "name": "",
                                "type": "bool",
                                "value": true
                            }
                        ],
                        "signature": "transfer(address,uint256)"
                    },
                    "errorInfo": "",
                    "fromAddress": "0x2d50efbc3690b6d0ea0b179c18f016ae9031c00a",
                    "gasUsed": 12651,
                    "id": 29,
                    "methodDecoded": true,
                    "operation": "CALL",
                    "output": "0x0000000000000000000000000000000000000000000000000000000000000001",
                    "revert": false,
                    "revertMessage": "",
                    "selector": "0xa9059cbb",
                    "status": true,
                    "value": "0"
                },
                "nodeType": 0
            },
            "3": {
                "invocation": {
                    "address": "0xe592427a0aece92de3edee1f18e0157c05861564",
                    "callData": "0x000000000000000000000000c02aaa39b223fe8d0a0e5c4f27ead9083c756cc20000000000000000000000006982508145454ce325ddbe47a25d4ec3d23119330000000000000000000000000000000000000000000000000000000000000bb80000000000000000000000002d50efbc3690b6d0ea0b179c18f016ae9031c00a000000000000000000000000000000000000000000000000000000006595fcdf00000000000000000000000000000000000000000000000000b1a2bc2ec5000000000000000000000000000000000000000000000000000000000000000000020000000000000000000000000000000000000000000000000000000000000000",
                    "decodedMethod": {
                        "callParams": [
                            {
                                "name": "params",
                                "type": "(address,address,uint24,address,uint256,uint256,uint256,uint160)",
                                "value": [
                                    {
                                        "name": "tokenIn",
                                        "type": "address",
                                        "value": "0xc02aaa39b223fe8d0a0e5c4f27ead9083c756cc2"
                                    },
                                    {
                                        "name": "tokenOut",
                                        "type": "address",
                                        "value": "0x6982508145454ce325ddbe47a25d4ec3d2311933"
                                    },
                                    {
                                        "name": "fee",
                                        "type": "uint24",
                                        "value": "3,000"
                                    },
                                    {
                                        "name": "recipient",
                                        "type": "address",
                                        "value": "0x2d50efbc3690b6d0ea0b179c18f016ae9031c00a"
                                    },
                                    {
                                        "name": "deadline",
                                        "type": "uint256",
                                        "value": "1,704,328,415"
                                    },
                                    {
                                        "name": "amountIn",
                                        "type": "uint256",
                                        "value": "50,000,000,000,000,000"
                                    },
                                    {
                                        "name": "amountOutMinimum",
                                        "type": "uint256",
                                        "value": "2"
                                    },
                                    {
                                        "name": "sqrtPriceLimitX96",
                                        "type": "uint160",
                                        "value": "0"
                                    }
                                ]
                            }
                        ],
                        "constructorArguments": "",
                        "name": "exactInputSingle",
                        "returnParams": [
                            {
                                "name": "amountOut",
                                "type": "uint256",
                                "value": "91,762,239,234,057,798,837,136,936"
                            }
                        ],
                        "signature": "exactInputSingle((address,address,uint24,address,uint256,uint256,uint256,uint160))"
                    },
                    "errorInfo": "",
                    "fromAddress": "0x2d50efbc3690b6d0ea0b179c18f016ae9031c00a",
                    "gasUsed": 79068,
                    "id": 3,
                    "methodDecoded": true,
                    "operation": "CALL",
                    "output": "0x0000000000000000000000000000000000000000004be768f4dc337e1e34ee28",
                    "revert": false,
                    "revertMessage": "",
                    "selector": "0x414bf389",
                    "status": true,
                    "value": "0"
                },
                "nodeType": 0
            },
            "30": {
                "event": {
                    "contract": "0x423f4e6138e475d85cf7ea071ac92097ed631eea",
                    "decodedLog": {
                        "name": "Transfer",
                        "params": [
                            {
                                "name": "from",
                                "type": "address",
                                "value": "0x2d50efbc3690b6d0ea0b179c18f016ae9031c00a"
                            },
                            {
                                "name": "to",
                                "type": "address",
                                "value": "0xc1e6902198ba29b5a79f11cc8dd66692957218e0"
                            },
                            {
                                "decimalAvailable": true,
                                "name": "value",
                                "type": "uint256",
                                "value": "385,133,087,037,257,747,091,200,175"
                            }
                        ],
                        "signature": "Transfer(address,address,uint256)"
                    },
                    "id": 30,
                    "logData": "0x0000000000000000000000000000000000000000013e931a7babedf2e99c98af",
                    "logDecoded": true,
                    "operation": "EVENT",
                    "revert": false,
                    "status": true,
                    "topics": [
                        "0xddf252ad1be2c89b69c2b068fc378daa952ba7f163c4a11628f55a4df523b3ef",
                        "0x0000000000000000000000002d50efbc3690b6d0ea0b179c18f016ae9031c00a",
                        "0x000000000000000000000000c1e6902198ba29b5a79f11cc8dd66692957218e0"
                    ]
                },
                "nodeType": 1
            },
            "31": {
                "event": {
                    "contract": "0x2d50efbc3690b6d0ea0b179c18f016ae9031c00a",
                    "decodedLog": {
                        "name": "Mine",
                        "params": [
                            {
                                "name": "miner",
                                "type": "address",
                                "value": "0xc1e6902198ba29b5a79f11cc8dd66692957218e0"
                            },
                            {
                                "name": "inputAmount",
                                "type": "uint256",
                                "value": "100,000,000,000,000,000"
                            },
                            {
                                "name": "boosterId",
                                "type": "uint256",
                                "value": "1"
                            },
                            {
                                "name": "outputAmount",
                                "type": "uint256",
                                "value": "385,133,087,037,257,747,091,200,175"
                            }
                        ],
                        "signature": "Mine(address,uint256,uint256,uint256)"
                    },
                    "id": 31,
                    "logData": "0x000000000000000000000000000000000000000000000000016345785d8a000000000000000000000000000000000000000000000000000000000000000000010000000000000000000000000000000000000000013e931a7babedf2e99c98af",
                    "logDecoded": true,
                    "operation": "EVENT",
                    "revert": false,
                    "status": true,
                    "topics": [
                        "0xcbd7fd38c5a2c3881dce11aca6f92d1026e4eb58dbdba50361b165381b383ebb",
                        "0x000000000000000000000000c1e6902198ba29b5a79f11cc8dd66692957218e0"
                    ]
                },
                "nodeType": 1
            },
            "4": {
                "invocation": {
                    "address": "0x11950d141ecb863f01007add7d1a342041227b58",
                    "callData": "0x0000000000000000000000002d50efbc3690b6d0ea0b179c18f016ae9031c00a000000000000000000000000000000000000000000000000000000000000000000000000000000000000000000000000000000000000000000b1a2bc2ec50000000000000000000000000000fffd8963efd1fc6a506488495d951d5263988d2500000000000000000000000000000000000000000000000000000000000000a000000000000000000000000000000000000000000000000000000000000000c0000000000000000000000000000000000000000000000000000000000000002000000000000000000000000000000000000000000000000000000000000000400000000000000000000000002d50efbc3690b6d0ea0b179c18f016ae9031c00a000000000000000000000000000000000000000000000000000000000000002bc02aaa39b223fe8d0a0e5c4f27ead9083c756cc2000bb86982508145454ce325ddbe47a25d4ec3d2311933000000000000000000000000000000000000000000",
                    "decodedMethod": {
                        "callParams": [
                            {
                                "name": "recipient",
                                "type": "address",
                                "value": "0x2d50efbc3690b6d0ea0b179c18f016ae9031c00a"
                            },
                            {
                                "name": "zeroForOne",
                                "type": "bool",
                                "value": false
                            },
                            {
                                "name": "amountSpecified",
                                "type": "int256",
                                "value": "50,000,000,000,000,000"
                            },
                            {
                                "name": "sqrtPriceLimitX96",
                                "type": "uint160",
                                "value": "1,461,446,703,485,210,103,287,273,052,203,988,822,378,723,970,341"
                            },
                            {
                                "name": "data",
                                "type": "bytes",
                                "value": "0x000000000000000000000000000000000000000000000000000000000000002000000000000000000000000000000000000000000000000000000000000000400000000000000000000000002d50efbc3690b6d0ea0b179c18f016ae9031c00a000000000000000000000000000000000000000000000000000000000000002bc02aaa39b223fe8d0a0e5c4f27ead9083c756cc2000bb86982508145454ce325ddbe47a25d4ec3d2311933000000000000000000000000000000000000000000"
                            }
                        ],
                        "constructorArguments": "",
                        "name": "swap",
                        "returnParams": [
                            {
                                "name": "amount0",
                                "type": "int256",
                                "value": "-91,762,239,234,057,798,837,136,936"
                            },
                            {
                                "name": "amount1",
                                "type": "int256",
                                "value": "50,000,000,000,000,000"
                            }
                        ],
                        "signature": "swap(address,bool,int256,uint160,bytes)"
                    },
                    "errorInfo": "",
                    "fromAddress": "0xe592427a0aece92de3edee1f18e0157c05861564",
                    "gasUsed": 71607,
                    "id": 4,
                    "methodDecoded": true,
                    "operation": "CALL",
                    "output": "0xffffffffffffffffffffffffffffffffffffffffffb418970b23cc81e1cb11d800000000000000000000000000000000000000000000000000b1a2bc2ec50000",
                    "revert": false,
                    "revertMessage": "",
                    "selector": "0x128acb08",
                    "status": true,
                    "value": "0"
                },
                "nodeType": 0
            },
            "5": {
                "invocation": {
                    "address": "0x6982508145454ce325ddbe47a25d4ec3d2311933",
                    "callData": "0x0000000000000000000000002d50efbc3690b6d0ea0b179c18f016ae9031c00a0000000000000000000000000000000000000000004be768f4dc337e1e34ee28",
                    "decodedMethod": {
                        "callParams": [
                            {
                                "name": "recipient",
                                "type": "address",
                                "value": "0x2d50efbc3690b6d0ea0b179c18f016ae9031c00a"
                            },
                            {
                                "decimalAvailable": true,
                                "name": "amount",
                                "type": "uint256",
                                "value": "91,762,239,234,057,798,837,136,936"
                            }
                        ],
                        "constructorArguments": "",
                        "name": "transfer",
                        "returnParams": [
                            {
                                "name": "",
                                "type": "bool",
                                "value": true
                            }
                        ],
                        "signature": "transfer(address,uint256)"
                    },
                    "errorInfo": "",
                    "fromAddress": "0x11950d141ecb863f01007add7d1a342041227b58",
                    "gasUsed": 21706,
                    "id": 5,
                    "methodDecoded": true,
                    "operation": "CALL",
                    "output": "0x0000000000000000000000000000000000000000000000000000000000000001",
                    "revert": false,
                    "revertMessage": "",
                    "selector": "0xa9059cbb",
                    "status": true,
                    "value": "0"
                },
                "nodeType": 0
            },
            "6": {
                "event": {
                    "contract": "0x6982508145454ce325ddbe47a25d4ec3d2311933",
                    "decodedLog": {
                        "name": "Transfer",
                        "params": [
                            {
                                "name": "from",
                                "type": "address",
                                "value": "0x11950d141ecb863f01007add7d1a342041227b58"
                            },
                            {
                                "name": "to",
                                "type": "address",
                                "value": "0x2d50efbc3690b6d0ea0b179c18f016ae9031c00a"
                            },
                            {
                                "decimalAvailable": true,
                                "name": "value",
                                "type": "uint256",
                                "value": "91,762,239,234,057,798,837,136,936"
                            }
                        ],
                        "signature": "Transfer(address,address,uint256)"
                    },
                    "id": 6,
                    "logData": "0x0000000000000000000000000000000000000000004be768f4dc337e1e34ee28",
                    "logDecoded": true,
                    "operation": "EVENT",
                    "revert": false,
                    "status": true,
                    "topics": [
                        "0xddf252ad1be2c89b69c2b068fc378daa952ba7f163c4a11628f55a4df523b3ef",
                        "0x00000000000000000000000011950d141ecb863f01007add7d1a342041227b58",
                        "0x0000000000000000000000002d50efbc3690b6d0ea0b179c18f016ae9031c00a"
                    ]
                },
                "nodeType": 1
            },
            "7": {
                "invocation": {
                    "address": "0xc02aaa39b223fe8d0a0e5c4f27ead9083c756cc2",
                    "callData": "0x00000000000000000000000011950d141ecb863f01007add7d1a342041227b58",
                    "decodedMethod": {
                        "callParams": [
                            {
                                "name": "",
                                "type": "address",
                                "value": "0x11950d141ecb863f01007add7d1a342041227b58"
                            }
                        ],
                        "constructorArguments": "",
                        "name": "balanceOf",
                        "returnParams": [
                            {
                                "decimalAvailable": true,
                                "name": "",
                                "type": "uint256",
                                "value": "296,300,264,268,037,831,247"
                            }
                        ],
                        "signature": "balanceOf(address)"
                    },
                    "errorInfo": "",
                    "fromAddress": "0x11950d141ecb863f01007add7d1a342041227b58",
                    "gasUsed": 2534,
                    "id": 7,
                    "methodDecoded": true,
                    "operation": "STATICCALL",
                    "output": "0x0000000000000000000000000000000000000000000000100ffe007c56c33a4f",
                    "revert": false,
                    "revertMessage": "",
                    "selector": "0x70a08231",
                    "status": true,
                    "value": "0"
                },
                "nodeType": 0
            },
            "8": {
                "invocation": {
                    "address": "0xe592427a0aece92de3edee1f18e0157c05861564",
                    "callData": "0xffffffffffffffffffffffffffffffffffffffffffb418970b23cc81e1cb11d800000000000000000000000000000000000000000000000000b1a2bc2ec50000000000000000000000000000000000000000000000000000000000000000006000000000000000000000000000000000000000000000000000000000000000c0000000000000000000000000000000000000000000000000000000000000002000000000000000000000000000000000000000000000000000000000000000400000000000000000000000002d50efbc3690b6d0ea0b179c18f016ae9031c00a000000000000000000000000000000000000000000000000000000000000002bc02aaa39b223fe8d0a0e5c4f27ead9083c756cc2000bb86982508145454ce325ddbe47a25d4ec3d2311933000000000000000000000000000000000000000000",
                    "decodedMethod": {
                        "callParams": [
                            {
                                "name": "amount0Delta",
                                "type": "int256",
                                "value": "-91,762,239,234,057,798,837,136,936"
                            },
                            {
                                "name": "amount1Delta",
                                "type": "int256",
                                "value": "50,000,000,000,000,000"
                            },
                            {
                                "name": "_data",
                                "type": "bytes",
                                "value": "0x000000000000000000000000000000000000000000000000000000000000002000000000000000000000000000000000000000000000000000000000000000400000000000000000000000002d50efbc3690b6d0ea0b179c18f016ae9031c00a000000000000000000000000000000000000000000000000000000000000002bc02aaa39b223fe8d0a0e5c4f27ead9083c756cc2000bb86982508145454ce325ddbe47a25d4ec3d2311933000000000000000000000000000000000000000000"
                            }
                        ],
                        "constructorArguments": "",
                        "name": "uniswapV3SwapCallback",
                        "returnParams": [],
                        "signature": "uniswapV3SwapCallback(int256,int256,bytes)"
                    },
                    "errorInfo": "",
                    "fromAddress": "0x11950d141ecb863f01007add7d1a342041227b58",
                    "gasUsed": 12327,
                    "id": 8,
                    "methodDecoded": true,
                    "operation": "CALL",
                    "output": "",
                    "revert": false,
                    "revertMessage": "",
                    "selector": "0xfa461e33",
                    "status": true,
                    "value": "0"
                },
                "nodeType": 0
            },
            "9": {
                "invocation": {
                    "address": "0xc02aaa39b223fe8d0a0e5c4f27ead9083c756cc2",
                    "callData": "0x0000000000000000000000002d50efbc3690b6d0ea0b179c18f016ae9031c00a00000000000000000000000011950d141ecb863f01007add7d1a342041227b5800000000000000000000000000000000000000000000000000b1a2bc2ec50000",
                    "decodedMethod": {
                        "callParams": [
                            {
                                "name": "src",
                                "type": "address",
                                "value": "0x2d50efbc3690b6d0ea0b179c18f016ae9031c00a"
                            },
                            {
                                "name": "dst",
                                "type": "address",
                                "value": "0x11950d141ecb863f01007add7d1a342041227b58"
                            },
                            {
                                "decimalAvailable": true,
                                "name": "wad",
                                "type": "uint256",
                                "value": "50,000,000,000,000,000"
                            }
                        ],
                        "constructorArguments": "",
                        "name": "transferFrom",
                        "returnParams": [
                            {
                                "name": "",
                                "type": "bool",
                                "value": true
                            }
                        ],
                        "signature": "transferFrom(address,address,uint256)"
                    },
                    "errorInfo": "",
                    "fromAddress": "0xe592427a0aece92de3edee1f18e0157c05861564",
                    "gasUsed": 8225,
                    "id": 9,
                    "methodDecoded": true,
                    "operation": "CALL",
                    "output": "0x0000000000000000000000000000000000000000000000000000000000000001",
                    "revert": false,
                    "revertMessage": "",
                    "selector": "0x23b872dd",
                    "status": true,
                    "value": "0"
                },
                "nodeType": 0
            }
        },
        "gasFlame": [
            {
                "children": [
                    {
                        "children": [
                            {
                                "children": [],
                                "depth": 0,
                                "name": "Initial Gas",
                                "value": 21940
                            },
                            {
                                "children": [
                                    {
                                        "children": [],
                                        "depth": 1,
                                        "name": "deposit",
                                        "value": 6874
                                    },
                                    {
                                        "children": [
                                            {
                                                "children": [
                                                    {
                                                        "children": [],
                                                        "depth": 3,
                                                        "name": "transfer",
                                                        "value": 21706
                                                    },
                                                    {
                                                        "children": [],
                                                        "depth": 3,
                                                        "name": "balanceOf",
                                                        "value": 2534
                                                    },
                                                    {
                                                        "children": [
                                                            {
                                                                "children": [],
                                                                "depth": 4,
                                                                "name": "transferFrom",
                                                                "value": 8225
                                                            }
                                                        ],
                                                        "depth": 3,
                                                        "name": "uniswapV3SwapCallback",
                                                        "value": 12327
                                                    },
                                                    {
                                                        "children": [],
                                                        "depth": 3,
                                                        "name": "balanceOf",
                                                        "value": 534
                                                    }
                                                ],
                                                "depth": 2,
                                                "name": "swap",
                                                "value": 71607
                                            }
                                        ],
                                        "depth": 1,
                                        "name": "exactInputSingle",
                                        "value": 79068
                                    },
                                    {
                                        "children": [
                                            {
                                                "children": [],
                                                "depth": 2,
                                                "name": "slot0",
                                                "value": 696
                                            },
                                            {
                                                "children": [
                                                    {
                                                        "children": [],
                                                        "depth": 3,
                                                        "name": "balanceOf",
                                                        "value": 624
                                                    },
                                                    {
                                                        "children": [],
                                                        "depth": 3,
                                                        "name": "balanceOf",
                                                        "value": 534
                                                    },
                                                    {
                                                        "children": [
                                                            {
                                                                "children": [],
                                                                "depth": 4,
                                                                "name": "transferFrom",
                                                                "value": 11545
                                                            },
                                                            {
                                                                "children": [],
                                                                "depth": 4,
                                                                "name": "transferFrom",
                                                                "value": 5425
                                                            }
                                                        ],
                                                        "depth": 3,
                                                        "name": "uniswapV3MintCallback",
                                                        "value": 21444
                                                    },
                                                    {
                                                        "children": [],
                                                        "depth": 3,
                                                        "name": "balanceOf",
                                                        "value": 624
                                                    },
                                                    {
                                                        "children": [],
                                                        "depth": 3,
                                                        "name": "balanceOf",
                                                        "value": 534
                                                    }
                                                ],
                                                "depth": 2,
                                                "name": "mint",
                                                "value": 87004
                                            },
                                            {
                                                "children": [],
                                                "depth": 2,
                                                "name": "positions",
                                                "value": 1013
                                            }
                                        ],
                                        "depth": 1,
                                        "name": "increaseLiquidity",
                                        "value": 122837
                                    },
                                    {
                                        "children": [],
                                        "depth": 1,
                                        "name": "transfer",
                                        "value": 12651
                                    }
                                ],
                                "depth": 0,
                                "name": "Executed Gas",
                                "value": 311407
                            }
                        ],
                        "depth": -1,
                        "name": "Actual Gas Used",
                        "value": 330547
                    },
                    {
                        "children": [],
                        "depth": -1,
                        "name": "Refunded Gas",
                        "value": 2800
                    }
                ],
                "depth": -2,
                "name": "Total Gas",
                "value": 333347
            }
        ],
        "isConfirmed": true,
        "mainTrace": [
            {
                "children": [
                    {
                        "children": [
                            {
                                "children": [
                                    {
                                        "children": [],
                                        "depth": 2,
                                        "id": 2,
                                        "order": 2
                                    }
                                ],
                                "depth": 1,
                                "id": 1,
                                "order": 1
                            },
                            {
                                "children": [
                                    {
                                        "children": [
                                            {
                                                "children": [
                                                    {
                                                        "children": [],
                                                        "depth": 4,
                                                        "id": 6,
                                                        "order": 6
                                                    }
                                                ],
                                                "depth": 3,
                                                "id": 5,
                                                "order": 5
                                            },
                                            {
                                                "children": [],
                                                "depth": 3,
                                                "id": 7,
                                                "order": 7
                                            },
                                            {
                                                "children": [
                                                    {
                                                        "children": [
                                                            {
                                                                "children": [],
                                                                "depth": 5,
                                                                "id": 10,
                                                                "order": 10
                                                            }
                                                        ],
                                                        "depth": 4,
                                                        "id": 9,
                                                        "order": 9
                                                    }
                                                ],
                                                "depth": 3,
                                                "id": 8,
                                                "order": 8
                                            },
                                            {
                                                "children": [],
                                                "depth": 3,
                                                "id": 11,
                                                "order": 11
                                            },
                                            {
                                                "children": [],
                                                "depth": 3,
                                                "id": 12,
                                                "order": 12
                                            }
                                        ],
                                        "depth": 2,
                                        "id": 4,
                                        "order": 4
                                    }
                                ],
                                "depth": 1,
                                "id": 3,
                                "order": 3
                            },
                            {
                                "children": [
                                    {
                                        "children": [],
                                        "depth": 2,
                                        "id": 14,
                                        "order": 14
                                    },
                                    {
                                        "children": [
                                            {
                                                "children": [],
                                                "depth": 3,
                                                "id": 16,
                                                "order": 16
                                            },
                                            {
                                                "children": [],
                                                "depth": 3,
                                                "id": 17,
                                                "order": 17
                                            },
                                            {
                                                "children": [
                                                    {
                                                        "children": [
                                                            {
                                                                "children": [],
                                                                "depth": 5,
                                                                "id": 20,
                                                                "order": 20
                                                            },
                                                            {
                                                                "children": [],
                                                                "depth": 5,
                                                                "id": 21,
                                                                "order": 21
                                                            }
                                                        ],
                                                        "depth": 4,
                                                        "id": 19,
                                                        "order": 19
                                                    },
                                                    {
                                                        "children": [
                                                            {
                                                                "children": [],
                                                                "depth": 5,
                                                                "id": 23,
                                                                "order": 23
                                                            }
                                                        ],
                                                        "depth": 4,
                                                        "id": 22,
                                                        "order": 22
                                                    }
                                                ],
                                                "depth": 3,
                                                "id": 18,
                                                "order": 18
                                            },
                                            {
                                                "children": [],
                                                "depth": 3,
                                                "id": 24,
                                                "order": 24
                                            },
                                            {
                                                "children": [],
                                                "depth": 3,
                                                "id": 25,
                                                "order": 25
                                            },
                                            {
                                                "children": [],
                                                "depth": 3,
                                                "id": 26,
                                                "order": 26
                                            }
                                        ],
                                        "depth": 2,
                                        "id": 15,
                                        "order": 15
                                    },
                                    {
                                        "children": [],
                                        "depth": 2,
                                        "id": 27,
                                        "order": 27
                                    },
                                    {
                                        "children": [],
                                        "depth": 2,
                                        "id": 28,
                                        "order": 28
                                    }
                                ],
                                "depth": 1,
                                "id": 13,
                                "order": 13
                            },
                            {
                                "children": [
                                    {
                                        "children": [],
                                        "depth": 2,
                                        "id": 30,
                                        "order": 30
                                    }
                                ],
                                "depth": 1,
                                "id": 29,
                                "order": 29
                            },
                            {
                                "children": [],
                                "depth": 1,
                                "id": 31,
                                "order": 31
                            }
                        ],
                        "depth": 0,
                        "id": 0,
                        "order": 0
                    }
                ],
                "depth": -1,
                "id": -1,
                "order": -1
            }
        ],
        "mainTraceNodeCount": 32,
        "parentIdMap": {
            "0": -1,
            "1": 0,
            "10": 9,
            "11": 4,
            "12": 4,
            "13": 0,
            "14": 13,
            "15": 13,
            "16": 15,
            "17": 15,
            "18": 15,
            "19": 18,
            "2": 1,
            "20": 19,
            "21": 19,
            "22": 18,
            "23": 22,
            "24": 15,
            "25": 15,
            "26": 15,
            "27": 13,
            "28": 13,
            "29": 0,
            "3": 0,
            "30": 29,
            "31": 0,
            "4": 3,
            "5": 4,
            "6": 5,
            "7": 4,
            "8": 4,
            "9": 8
        },
        "tidyTrace": [
            {
                "children": [
                    {
                        "children": [
                            {
                                "children": [
                                    {
                                        "children": [],
                                        "depth": 2,
                                        "id": 2,
                                        "order": 2
                                    }
                                ],
                                "depth": 1,
                                "id": 1,
                                "order": 1
                            },
                            {
                                "children": [
                                    {
                                        "children": [
                                            {
                                                "children": [
                                                    {
                                                        "children": [],
                                                        "depth": 4,
                                                        "id": 6,
                                                        "order": 6
                                                    }
                                                ],
                                                "depth": 3,
                                                "id": 5,
                                                "order": 5
                                            },
                                            {
                                                "children": [
                                                    {
                                                        "children": [
                                                            {
                                                                "children": [],
                                                                "depth": 5,
                                                                "id": 10,
                                                                "order": 10
                                                            }
                                                        ],
                                                        "depth": 4,
                                                        "id": 9,
                                                        "order": 9
                                                    }
                                                ],
                                                "depth": 3,
                                                "id": 8,
                                                "order": 8
                                            },
                                            {
                                                "children": [],
                                                "depth": 3,
                                                "id": 12,
                                                "order": 12
                                            }
                                        ],
                                        "depth": 2,
                                        "id": 4,
                                        "order": 4
                                    }
                                ],
                                "depth": 1,
                                "id": 3,
                                "order": 3
                            },
                            {
                                "children": [
                                    {
                                        "children": [
                                            {
                                                "children": [
                                                    {
                                                        "children": [
                                                            {
                                                                "children": [],
                                                                "depth": 5,
                                                                "id": 20,
                                                                "order": 20
                                                            },
                                                            {
                                                                "children": [],
                                                                "depth": 5,
                                                                "id": 21,
                                                                "order": 21
                                                            }
                                                        ],
                                                        "depth": 4,
                                                        "id": 19,
                                                        "order": 19
                                                    },
                                                    {
                                                        "children": [
                                                            {
                                                                "children": [],
                                                                "depth": 5,
                                                                "id": 23,
                                                                "order": 23
                                                            }
                                                        ],
                                                        "depth": 4,
                                                        "id": 22,
                                                        "order": 22
                                                    }
                                                ],
                                                "depth": 3,
                                                "id": 18,
                                                "order": 18
                                            },
                                            {
                                                "children": [],
                                                "depth": 3,
                                                "id": 26,
                                                "order": 26
                                            }
                                        ],
                                        "depth": 2,
                                        "id": 15,
                                        "order": 15
                                    },
                                    {
                                        "children": [],
                                        "depth": 2,
                                        "id": 28,
                                        "order": 28
                                    }
                                ],
                                "depth": 1,
                                "id": 13,
                                "order": 13
                            },
                            {
                                "children": [
                                    {
                                        "children": [],
                                        "depth": 2,
                                        "id": 30,
                                        "order": 30
                                    }
                                ],
                                "depth": 1,
                                "id": 29,
                                "order": 29
                            },
                            {
                                "children": [],
                                "depth": 1,
                                "id": 31,
                                "order": 31
                            }
                        ],
                        "depth": 0,
                        "id": 0,
                        "order": 0
                    }
                ],
                "depth": -1,
                "id": -1,
                "order": -1
            }
        ],
        "tidyTraceNodeCount": 24
    },
    "state_change": {
        "stateChanges": [
            {
                "address": "0x11950d141ecb863f01007add7d1a342041227b58",
                "erc": "",
                "slots": [
                    {
                        "current": "0xfffffffffffc1b6f3828ce71881e0881000000000003e490c7d7318e77e1f77f",
                        "key": "0x6b9aec8700a671612b161b3f63de8c28c773ed103d624efa4b53cfde676dcc54",
                        "prev": "0xfffffffffffc1b7663b1153122aabd87000000000003e4899c4eeacedd554279"
                    },
                    {
                        "current": "0x00000000000000000000000000000000000000000001335557fb1b6a95885873",
                        "key": "0x7c75b69ae5cee2a37bde35d9bdb764e15d550de2c22e7cbb77b979e7aaf53def",
                        "prev": "0x00000000000000000000000000000000000000000001334e2c72d4aafafba36d"
                    },
                    {
                        "current": "0x000000000000000000000000000000000000004529e2dc7510c0be3f32021ddb",
                        "key": "0x7c75b69ae5cee2a37bde35d9bdb764e15d550de2c22e7cbb77b979e7aaf53df1",
                        "prev": "0x00000000000000000000000000000000000000452926c57cdf8493eea412bae7"
                    },
                    {
                        "current": "0x00000000000000000031bc026972121d0000000000155e5022625b6dc6c941a5",
                        "key": "0x7c75b69ae5cee2a37bde35d9bdb764e15d550de2c22e7cbb77b979e7aaf53df2",
                        "prev": "0x00000000000000000031bb20a076c7220000000000155e5022625b6dc6c941a5"
                    },
                    {
                        "current": "0x00010000b400b40016fcbe9e00000000000000000001870a8db94574e21aa400",
                        "key": "0x0000000000000000000000000000000000000000000000000000000000000000",
                        "prev": "0x00010000b400b40016fcbe9e000000000000000000018709998cc9424cffb56e"
                    },
                    {
                        "current": "0x000000000000000000000000000000000000e1092b336f5d222c363d3cd927c4",
                        "key": "0x0000000000000000000000000000000000000000000000000000000000000002",
                        "prev": "0x000000000000000000000000000000000000e1092a775864f0f00becaee9c4d0"
                    },
                    {
                        "current": "0x000000000000000000000000000000000000000000b9ae3d44616ec4b49ca289",
                        "key": "0x0000000000000000000000000000000000000000000000000000000000000004",
                        "prev": "0x000000000000000000000000000000000000000000b9ae3618d928051a0fed83"
                    },
                    {
                        "current": "0x0000000000025b7814fb0078c9078c9a0000000000025b7814fb0078c9078c9a",
                        "key": "0x51d11c0aa21d0fbf777f6709ec4809941265dcf9c7f3e9de15be5136b0de7c41",
                        "prev": "0x0000000000025b70e972b9b92e7ad7940000000000025b70e972b9b92e7ad794"
                    }
                ],
                "storageVariables": []
            },
            {
                "address": "0x2d50efbc3690b6d0ea0b179c18f016ae9031c00a",
                "erc": "",
                "slots": [
                    {
                        "current": "0x0000000000000000000000000000000000000000000000e2179189182f1420cf",
                        "key": "0xabd6e7cb50984ff9c2f3e18a2660c3353dadf4e3291deeb275dae2cd1e44fe0b",
                        "prev": "0x0000000000000000000000000000000000000000000000e2162e439fd18a20cf"
                    },
                    {
                        "current": "0x00000000000000000000000000000000000000000000000002c68af0bb140000",
                        "key": "0x0dfa732cebbb6e354c5c7f1138bc25e0c6918564c27f3de26ad75941d7cb1610",
                        "prev": "0x000000000000000000000000000000000000000000000000016345785d8a0000"
                    },
                    {
                        "current": "0x0000000000000000000000000000000000000000000000000000000000001b1b",
                        "key": "0xabd6e7cb50984ff9c2f3e18a2660c3353dadf4e3291deeb275dae2cd1e44fe0a",
                        "prev": "0x0000000000000000000000000000000000000000000000000000000000001b1a"
                    },
                    {
                        "current": "0x000000000000000000000000000000000000000000000000000000000000080d",
                        "key": "0x0000000000000000000000000000000000000000000000000000000000000015",
                        "prev": "0x000000000000000000000000000000000000000000000000000000000000080e"
                    }
                ],
                "storageVariables": [
                    {
                        "name": "usesLeftForSpawn",
                        "type": "uint256",
                        "value": {
                            "current": "2061",
                            "prev": "2062",
                            "typeTag": 1
                        }
                    },
                    {
                        "name": "_tokenBoosters",
                        "type": "mapping(uint256 => struct RigTokenBoosterManager.TokenBooster)",
                        "value": {
                            "pairs": [
                                {
                                    "key": "1",
                                    "value": {
                                        "fields": [
                                            {
                                                "name": "useCount",
                                                "type": "uint256",
                                                "value": {
                                                    "current": "6939",
                                                    "prev": "6938",
                                                    "typeTag": 1
                                                }
                                            },
                                            {
                                                "name": "totalDeposited",
                                                "type": "uint256",
                                                "value": {
                                                    "current": "4170662449929816121551",
                                                    "prev": "4170562449929816121551",
                                                    "typeTag": 1
                                                }
                                            }
                                        ],
                                        "typeTag": 3
                                    }
                                }
                            ],
                            "typeTag": 4
                        }
                    },
                    {
                        "name": "minedPerCycle",
                        "type": "mapping(address => mapping(uint256 => uint256))",
                        "value": {
                            "pairs": [
                                {
                                    "key": "0xc1e6902198ba29b5a79f11cc8dd66692957218e0",
                                    "value": {
                                        "pairs": [
                                            {
                                                "key": "1",
                                                "value": {
                                                    "current": "200000000000000000",
                                                    "prev": "100000000000000000",
                                                    "typeTag": 1
                                                }
                                            }
                                        ],
                                        "typeTag": 4
                                    }
                                }
                            ],
                            "typeTag": 4
                        }
                    }
                ]
            },
            {
                "address": "0x423f4e6138e475d85cf7ea071ac92097ed631eea",
                "erc": "ERC-20",
                "slots": [
                    {
                        "current": "0x000000000000000000000000000000000000042405318de0e0fc1dc1fa292de9",
                        "key": "0x285bf9dbebb4235b06bfcdb824f2dace23c16cb148eb0280a155e3e2c39ee072",
                        "prev": "0x0000000000000000000000000000000000000424067020fb5ca80bb4e3c5c698"
                    },
                    {
                        "current": "0x000000000000000000000000000000000000000005df055ae04cd6297f758aad",
                        "key": "0x853dcad226a617188e88e0223852ffc8c3ebd752b40ed441644c3297e4793090",
                        "prev": "0x000000000000000000000000000000000000000004a0724064a0e83695d8f1fe"
                    }
                ],
                "storageVariables": [
                    {
                        "name": "_balances",
                        "type": "mapping(address => uint256)",
                        "value": {
                            "pairs": [
                                {
                                    "key": "0x2d50efbc3690b6d0ea0b179c18f016ae9031c00a",
                                    "value": {
                                        "current": "83983459597536422313938276396521",
                                        "prev": "83983844730623459571685367596696",
                                        "typeTag": 1
                                    }
                                },
                                {
                                    "key": "0xc1e6902198ba29b5a79f11cc8dd66692957218e0",
                                    "value": {
                                        "current": "1817040795082697268115376813",
                                        "prev": "1431907708045439521024176638",
                                        "typeTag": 1
                                    }
                                }
                            ],
                            "typeTag": 4
                        }
                    }
                ]
            },
            {
                "address": "0x6982508145454ce325ddbe47a25d4ec3d2311933",
                "erc": "ERC-20",
                "slots": [
                    {
                        "current": "0x0000000000000000000000000000000000000019100e4aadb9c149aa55460ef8",
                        "key": "0xba43b84b17deebeec7f36d05cea2b2641fd23600f9e29f5940ca5a63978b912d",
                        "prev": "0x00000000000000000000000000000000000000191059e62f45a8a0f4f55cda30"
                    },
                    {
                        "current": "0x000000000000000000000000000000000000000bcf5e602d0e14822b3fd3b4ba",
                        "key": "0xb8f7c30664dd7ec49266228d8f5392b39532e9dd30b3a2c2d977f47d4975195b",
                        "prev": "0x000000000000000000000000000000000000000bcf12c4ab822d2ae09fbce982"
                    },
                    {
                        "current": "0xffffffffffffffffffffffffffffffffffffffffd9520d8d1503f3aa92b0d83f",
                        "key": "0x260532a3c186dca721ab61b45341c53d338ffc27d9c14d1c2b018c61273e128d",
                        "prev": "0xffffffffffffffffffffffffffffffffffffffffd95259747df8cfde10cefb2f"
                    }
                ],
                "storageVariables": [
                    {
                        "name": "_balances",
                        "type": "mapping(address => uint256)",
                        "value": {
                            "pairs": [
                                {
                                    "key": "0x11950d141ecb863f01007add7d1a342041227b58",
                                    "value": {
                                        "current": "1985673100635016083415585132280",
                                        "prev": "1985764504428003133176145566256",
                                        "typeTag": 1
                                    }
                                },
                                {
                                    "key": "0x2d50efbc3690b6d0ea0b179c18f016ae9031c00a",
                                    "value": {
                                        "current": "935687277895270335638637098170",
                                        "prev": "935595874102283285878076664194",
                                        "typeTag": 1
                                    }
                                }
                            ],
                            "typeTag": 4
                        }
                    },
                    {
                        "name": "_allowances",
                        "type": "mapping(address => mapping(address => uint256))",
                        "value": {
                            "pairs": [
                                {
                                    "key": "0x2d50efbc3690b6d0ea0b179c18f016ae9031c00a",
                                    "value": {
                                        "pairs": [
                                            {
                                                "key": "0xc36442b4a4522e871399cd717abdd847ab11fe88",
                                                "value": {
                                                    "current": "115792089237316195423570985008687907853269984665628593319985029463337281312831",
                                                    "prev": "115792089237316195423570985008687907853269984665628593678431276471375558015791",
                                                    "typeTag": 1
                                                }
                                            }
                                        ],
                                        "typeTag": 4
                                    }
                                }
                            ],
                            "typeTag": 4
                        }
                    }
                ]
            },
            {
                "address": "0xc02aaa39b223fe8d0a0e5c4f27ead9083c756cc2",
                "erc": "ERC-20",
                "slots": [
                    {
                        "current": "0x000000000000000000000000000000000000000000000070a1933e1f9d9bcfec",
                        "key": "0x81cf3fb91fc3f4981e1daa84ffa114f1b72b042d8bbe27dd8af4c9c48763ae27",
                        "prev": "0x000000000000000000000000000000000000000000000070a0e218c21d3a8c62"
                    },
                    {
                        "current": "0x00000000000000000000000000000000000000000000001010b0209733ebf6c5",
                        "key": "0xc906b0b0df36e2042f059120e95e6dd99f11c9ac2ef306a59ba0efa77fd8622d",
                        "prev": "0x0000000000000000000000000000000000000000000000100ffe007c56c33a4f"
                    }
                ],
                "storageVariables": [
                    {
                        "name": "balanceOf",
                        "type": "mapping(address => uint256)",
                        "value": {
                            "pairs": [
                                {
                                    "key": "0x11950d141ecb863f01007add7d1a342041227b58",
                                    "value": {
                                        "current": "296350402113644000965",
                                        "prev": "296300264268037831247",
                                        "typeTag": 1
                                    }
                                },
                                {
                                    "key": "0x2d50efbc3690b6d0ea0b179c18f016ae9031c00a",
                                    "value": {
                                        "current": "2077678054022661787628",
                                        "prev": "2077628191868267957346",
                                        "typeTag": 1
                                    }
                                }
                            ],
                            "typeTag": 4
                        }
                    }
                ]
            },
            {
                "address": "0xc36442b4a4522e871399cd717abdd847ab11fe88",
                "erc": "ERC-721",
                "slots": [
                    {
                        "current": "0x00000000000000000031bc026972121d0000000000155e5022625b6dc6c941a5",
                        "key": "0xd436c801991166103fc6a40e3ef32791519674b8c48a1757195f91ac7918c4b4",
                        "prev": "0x00000000000000000031bb20a076c7220000000000155e5022625b6dc6c941a5"
                    },
                    {
                        "current": "0x000000000000000000000000000000000000004529e2dc7510c0be3f32021ddb",
                        "key": "0xd436c801991166103fc6a40e3ef32791519674b8c48a1757195f91ac7918c4b3",
                        "prev": "0x00000000000000000000000000000000000000452926c57cdf8493eea412bae7"
                    },
                    {
                        "current": "0x000000000001335557fb1b6a95885873fcc3b8fcbb0c00000000000000002b8b",
                        "key": "0xd436c801991166103fc6a40e3ef32791519674b8c48a1757195f91ac7918c4b1",
                        "prev": "0x000000000001334e2c72d4aafafba36dfcc3b8fcbb0c00000000000000002b8b"
                    }
                ],
                "storageVariables": [
                    {
                        "name": "_positions",
                        "type": "mapping(uint256 => struct NonfungiblePositionManager.Position)",
                        "value": {
                            "pairs": [
                                {
                                    "key": "637982",
                                    "value": {
                                        "fields": [
                                            {
                                                "name": "poolId",
                                                "type": "uint80",
                                                "value": {
                                                    "current": "11147",
                                                    "prev": "11147",
                                                    "typeTag": 1
                                                }
                                            },
                                            {
                                                "name": "tickLower",
                                                "type": "int24",
                                                "value": {
                                                    "current": "-214260",
                                                    "prev": "-214260",
                                                    "typeTag": 1
                                                }
                                            },
                                            {
                                                "name": "tickUpper",
                                                "type": "int24",
                                                "value": {
                                                    "current": "-212040",
                                                    "prev": "-212040",
                                                    "typeTag": 1
                                                }
                                            },
                                            {
                                                "name": "liquidity",
                                                "type": "uint128",
                                                "value": {
                                                    "current": "1451340823178291435821171",
                                                    "prev": "1451208559134846259798893",
                                                    "typeTag": 1
                                                }
                                            },
                                            {
                                                "name": "feeGrowthInside1LastX128",
                                                "type": "uint256",
                                                "value": {
                                                    "current": "5479706357202249809790463253979",
                                                    "prev": "5479478970677759348961526856423",
                                                    "typeTag": 1
                                                }
                                            },
                                            {
                                                "name": "tokensOwed0",
                                                "type": "uint128",
                                                "value": {
                                                    "current": "25832822878466128134881701",
                                                    "prev": "25832822878466128134881701",
                                                    "typeTag": 1
                                                }
                                            },
                                            {
                                                "name": "tokensOwed1",
                                                "type": "uint128",
                                                "value": {
                                                    "current": "13998992403862045",
                                                    "prev": "13998022664308514",
                                                    "typeTag": 1
                                                }
                                            }
                                        ],
                                        "typeTag": 3
                                    }
                                }
                            ],
                            "typeTag": 4
                        }
                    }
                ]
            }
        ]
    }
}