{
    "balance_change": {
        "balanceChanges": []
    },
    "profile": {
        "basic_info": {
            "baseFee": "",
            "blockNumber": 5976253,
            "callData": "0xefce079e0000000000000000000000000000000000000000000000000000000000000000",
            "debugEnable": true,
            "errorInfo": "",
            "eventCount": 1,
            "feeRecipient": "0x829bd824b016326a401d083b33d092293333a830",
            "formatValue": "0",
            "gasLimit": 200000,
            "gasPrice": "5.1",
            "gasUsed": 35669,
            "intTxnCount": 0,
            "internalRevert": false,
            "internalRevertMessage": "",
            "isContractCreation": false,
            "isFlashloan": false,
            "maxFee": "",
            "nonce": 109,
            "overwritedBlockNumber": -1,
            "priorityFee": "",
            "receiver": "0x0de197dc289d680e734ccab866d529505b2638db",
            "revertMessage": "",
            "sender": "0xca35941545f3e30ed1cfdb355b077675a29b4034",
            "simulationEnable": true,
            "sourceTxnHash": "0x2e299afb263824533fe0b3daac8cb9642a0607dc419a63ad868e9060ceaa7d29",
            "status": true,
            "timestamp": "2018-07-16T18:55:39Z",
            "transactionFee": "0.0001819119",
            "txnHash": "0x2e299afb263824533fe0b3daac8cb9642a0607dc419a63ad868e9060ceaa7d29",
            "txnIndex": 88,
            "type": 0,
            "value": "0"
        },
        "fund_flow": [],
        "token_infos": [
            {
                "address": "0xc02aaa39b223fe8d0a0e5c4f27ead9083c756cc2",
                "decimals": 18
            },
            {
                "address": "0xeeeeeeeeeeeeeeeeeeeeeeeeeeeeeeeeeeeeeeee",
                "decimals": 18
            }
        ]
    },
    "address_label": {
        "labels": [
            {
                "address": "0x0000000000000000000000000000000000000001",
                "label": "Precompiled"
            },
            {
                "address": "0x0000000000000000000000000000000000000002",
                "label": "Precompiled"
            },
            {
                "address": "0x0000000000000000000000000000000000000003",
                "label": "Precompiled"
            },
            {
                "address": "0x0000000000000000000000000000000000000004",
                "label": "Precompiled"
            },
            {
                "address": "0xeeeeeeeeeeeeeeeeeeeeeeeeeeeeeeeeeeeeeeee",
                "label": "Ether"
            },
            {
                "address": "0x0de197dc289d680e734ccab866d529505b2638db",
                "label": "CryptoMiningWar"
            }
        ]
    },
    "trace": {
        "accountLabels": null,
        "dataMap": {
            "-1": {
                "invocation": {
                    "address": "0xca35941545f3e30ed1cfdb355b077675a29b4034",
                    "callData": "",
                    "decodedMethod": null,
                    "errorInfo": "",
                    "fromAddress": "",
                    "gasUsed": 0,
                    "id": -1,
                    "methodDecoded": false,
                    "operation": "",
                    "output": "",
                    "revert": false,
                    "revertMessage": "",
                    "selector": "",
                    "status": false,
                    "value": ""
                },
                "nodeType": 0
            },
            "0": {
                "invocation": {
                    "address": "0x0de197dc289d680e734ccab866d529505b2638db",
                    "callData": "0x0000000000000000000000000000000000000000000000000000000000000000",
                    "decodedMethod": {
                        "callParams": [
                            {
                                "name": "clientNumber",
                                "type": "uint256",
                                "value": "0"
                            }
                        ],
                        "constructorArguments": "",
                        "name": "doQuest",
                        "returnParams": [],
                        "signature": "doQuest(uint256)"
                    },
                    "errorInfo": "",
                    "fromAddress": "0xca35941545f3e30ed1cfdb355b077675a29b4034",
                    "gasUsed": 35669,
                    "id": 0,
                    "methodDecoded": true,
                    "operation": "CALL",
                    "output": "",
                    "revert": false,
                    "revertMessage": "",
                    "selector": "0xefce079e",
                    "status": true,
                    "value": "0"
                },
                "nodeType": 0
            },
            "1": {
                "event": {
                    "contract": "0x0de197dc289d680e734ccab866d529505b2638db",
                    "decodedLog": {
                        "name": "eventDoQuest",
                        "params": [
                            {
                                "name": "clientNumber",
                                "type": "uint256",
                                "value": "0"
                            },
                            {
                                "name": "randomNumber",
                                "type": "uint256",
                                "value": "1"
                            }
                        ],
                        "signature": "eventDoQuest(uint256,uint256)"
                    },
                    "id": 1,
                    "logData": "0x00000000000000000000000000000000000000000000000000000000000000000000000000000000000000000000000000000000000000000000000000000001",
                    "logDecoded": true,
                    "operation": "EVENT",
                    "revert": false,
                    "status": true,
                    "topics": [
                        "0x46046fe38b80ec19b608815b458b3e49c98da0ef13badaf9aa10d49c9bb2552b"
                    ]
                },
                "nodeType": 1
            }
        },
        "gasFlame": [
            {
                "children": [
                    {
                        "children": [
                            {
                                "children": [],
                                "depth": 0,
                                "name": "Initial Gas",
                                "value": 21400
                            },
                            {
                                "children": [],
                                "depth": 0,
                                "name": "Executed Gas",
                                "value": 14269
                            }
                        ],
                        "depth": -1,
                        "name": "Actual Gas Used",
                        "value": 35669
                    },
                    {
                        "children": [],
                        "depth": -1,
                        "name": "Refunded Gas",
                        "value": 0
                    }
                ],
                "depth": -2,
                "name": "Total Gas",
                "value": 35669
            }
        ],
        "isConfirmed": true,
        "mainTrace": [
            {
                "children": [
                    {
                        "children": [
                            {
                                "children": [],
                                "depth": 1,
                                "id": 1,
                                "order": 1
                            }
                        ],
                        "depth": 0,
                        "id": 0,
                        "order": 0
                    }
                ],
                "depth": -1,
                "id": -1,
                "order": -1
            }
        ],
        "mainTraceNodeCount": 2,
        "parentIdMap": {
            "0": -1,
            "1": 0
        },
        "tidyTrace": [
            {
                "children": [
                    {
                        "children": [
                            {
                                "children": [],
                                "depth": 1,
                                "id": 1,
                                "order": 1
                            }
                        ],
                        "depth": 0,
                        "id": 0,
                        "order": 0
                    }
                ],
                "depth": -1,
                "id": -1,
                "order": -1
            }
        ],
        "tidyTraceNodeCount": 2
    },
    "state_change": {
        "stateChanges": [
            {
                "address": "0x0de197dc289d680e734ccab866d529505b2638db",
                "erc": "",
                "slots": [
                    {
                        "current": "0x0000000000000000000000000000000000000000000000000000000000000096",
                        "key": "0x000000000000000000000000000000000000000000000000000000000000000c",
                        "prev": "0x0000000000000000000000000000000000000000000000000000000000000095"
                    },
                    {
                        "current": "0x0000000000000000000000000000000000000000000000000000000000000010",
                        "key": "0xe928f15b0b6faa725de1e60351e4ab337f08f49d6f7c91537d4e3d1deba0ace5",
                        "prev": "0x000000000000000000000000000000000000000000000000000000000000000f"
                    }
                ],
                "storageVariables": [
                    {
                        "name": "randNonce",
                        "type": "uint256",
                        "value": {
                            "current": "150",
                            "prev": "149",
                            "typeTag": 1
                        }
                    },
                    {
                        "name": "players",
                        "type": "mapping(address => struct CryptoMiningWar.PlayerData)",
                        "value": {
                            "pairs": [
                                {
                                    "key": "0xca35941545f3e30ed1cfdb355b077675a29b4034",
                                    "value": {
                                        "fields": [
                                            {
                                                "name": "noQuest",
                                                "type": "uint256",
                                                "value": {
                                                    "current": "16",
                                                    "prev": "15",
                                                    "typeTag": 1
                                                }
                                            }
                                        ],
                                        "typeTag": 3
                                    }
                                }
                            ],
                            "typeTag": 4
                        }
                    }
                ]
            }
        ]
    }
}