{
    "balance_change": {
        "balanceChanges": [
            {
                "account": "0x6f0c595955cb665e60909fb0046174e33b67b5b5",
                "assets": [
                    {
                        "address": "0x4b04633ee658d83a24a91e3a1b244221800d89b4",
                        "amount": "100",
                        "iconUrl": "",
                        "isERC1155": false,
                        "isERC721": false,
                        "sign": false,
                        "value": ""
                    }
                ]
            },
            {
                "account": "0x69c214d722e29bc5520878b2edec61789dfa924e",
                "assets": [
                    {
                        "address": "0x4b04633ee658d83a24a91e3a1b244221800d89b4",
                        "amount": "100",
                        "iconUrl": "",
                        "isERC1155": false,
                        "isERC721": false,
                        "sign": true,
                        "value": ""
                    }
                ]
            }
        ]
    },
    "profile": {
        "basic_info": {
            "baseFee": "",
            "blockNumber": 6244195,
            "callData": "0xa9059cbb00000000000000000000000069c214d722e29bc5520878b2edec61789dfa924e0000000000000000000000000000000000000000000000056bc75e2d63100000",
            "debugEnable": true,
            "errorInfo": "",
            "eventCount": 1,
            "feeRecipient": "0xf139f57ee08f3f7f02a6f0cebffe14147635ea2f",
            "formatValue": "0",
            "gasLimit": 55000,
            "gasPrice": "3",
            "gasUsed": 37338,
            "intTxnCount": 0,
            "internalRevert": false,
            "internalRevertMessage": "",
            "isContractCreation": false,
            "isFlashloan": false,
            "maxFee": "",
            "nonce": 5925,
            "overwritedBlockNumber": -1,
            "priorityFee": "",
            "receiver": "0x4b04633ee658d83a24a91e3a1b244221800d89b4",
            "revertMessage": "",
            "sender": "0x6f0c595955cb665e60909fb0046174e33b67b5b5",
            "simulationEnable": true,
            "sourceTxnHash": "0x2ec12fc1676ab227f2dbc91c56d3303a370988d2e5f8f11ad089f4468d6702d1",
            "status": true,
            "timestamp": "2018-08-31T02:51:27Z",
            "transactionFee": "0.000112014",
            "txnHash": "0x2ec12fc1676ab227f2dbc91c56d3303a370988d2e5f8f11ad089f4468d6702d1",
            "txnIndex": 25,
            "type": 0,
            "value": "0"
        },
        "fund_flow": [
            {
                "amount": "100",
                "from": "0x6f0c595955cb665e60909fb0046174e33b67b5b5",
                "id": 1,
                "isERC1155": false,
                "isERC721": false,
                "isReverted": false,
                "order": 1,
                "to": "0x69c214d722e29bc5520878b2edec61789dfa924e",
                "token": "0x4b04633ee658d83a24a91e3a1b244221800d89b4"
            }
        ],
        "token_infos": [
            {
                "address": "0x4b04633ee658d83a24a91e3a1b244221800d89b4",
                "decimals": 18
            },
            {
                "address": "0xc02aaa39b223fe8d0a0e5c4f27ead9083c756cc2",
                "decimals": 18
            },
            {
                "address": "0xeeeeeeeeeeeeeeeeeeeeeeeeeeeeeeeeeeeeeeee",
                "decimals": 18
            }
        ]
    },
    "address_label": {
        "labels": [
            {
                "address": "0xeeeeeeeeeeeeeeeeeeeeeeeeeeeeeeeeeeeeeeee",
                "label": "Ether"
            },
            {
                "address": "0x4b04633ee658d83a24a91e3a1b244221800d89b4",
                "label": "Global Risk Exchange Token (RISK)"
            },
            {
                "address": "0x0000000000000000000000000000000000000001",
                "label": "Precompiled"
            },
            {
                "address": "0x0000000000000000000000000000000000000002",
                "label": "Precompiled"
            },
            {
                "address": "0x0000000000000000000000000000000000000003",
                "label": "Precompiled"
            },
            {
                "address": "0x0000000000000000000000000000000000000004",
                "label": "Precompiled"
            }
        ]
    },
    "trace": {
        "accountLabels": null,
        "dataMap": {
            "-1": {
                "invocation": {
                    "address": "0x6f0c595955cb665e60909fb0046174e33b67b5b5",
                    "callData": "",
                    "decodedMethod": null,
                    "errorInfo": "",
                    "fromAddress": "",
                    "gasUsed": 0,
                    "id": -1,
                    "methodDecoded": false,
                    "operation": "",
                    "output": "",
                    "revert": false,
                    "revertMessage": "",
                    "selector": "",
                    "status": false,
                    "value": ""
                },
                "nodeType": 0
            },
            "0": {
                "invocation": {
                    "address": "0x4b04633ee658d83a24a91e3a1b244221800d89b4",
                    "callData": "0x00000000000000000000000069c214d722e29bc5520878b2edec61789dfa924e0000000000000000000000000000000000000000000000056bc75e2d63100000",
                    "decodedMethod": {
                        "callParams": [
                            {
                                "name": "_to",
                                "type": "address",
                                "value": "0x69c214d722e29bc5520878b2edec61789dfa924e"
                            },
                            {
                                "decimalAvailable": true,
                                "name": "_value",
                                "type": "uint256",
                                "value": "100,000,000,000,000,000,000"
                            }
                        ],
                        "constructorArguments": "",
                        "name": "transfer",
                        "returnParams": [
                            {
                                "name": "",
                                "type": "bool",
                                "value": true
                            }
                        ],
                        "signature": "transfer(address,uint256)"
                    },
                    "errorInfo": "",
                    "fromAddress": "0x6f0c595955cb665e60909fb0046174e33b67b5b5",
                    "gasUsed": 37338,
                    "id": 0,
                    "methodDecoded": true,
                    "operation": "CALL",
                    "output": "0x0000000000000000000000000000000000000000000000000000000000000001",
                    "revert": false,
                    "revertMessage": "",
                    "selector": "0xa9059cbb",
                    "status": true,
                    "value": "0"
                },
                "nodeType": 0
            },
            "1": {
                "event": {
                    "contract": "0x4b04633ee658d83a24a91e3a1b244221800d89b4",
                    "decodedLog": {
                        "name": "Transfer",
                        "params": [
                            {
                                "name": "from",
                                "type": "address",
                                "value": "0x6f0c595955cb665e60909fb0046174e33b67b5b5"
                            },
                            {
                                "name": "to",
                                "type": "address",
                                "value": "0x69c214d722e29bc5520878b2edec61789dfa924e"
                            },
                            {
                                "decimalAvailable": true,
                                "name": "value",
                                "type": "uint256",
                                "value": "100,000,000,000,000,000,000"
                            }
                        ],
                        "signature": "Transfer(address,address,uint256)"
                    },
                    "id": 1,
                    "logData": "0x0000000000000000000000000000000000000000000000056bc75e2d63100000",
                    "logDecoded": true,
                    "operation": "EVENT",
                    "revert": false,
                    "status": true,
                    "topics": [
                        "0xddf252ad1be2c89b69c2b068fc378daa952ba7f163c4a11628f55a4df523b3ef",
                        "0x0000000000000000000000006f0c595955cb665e60909fb0046174e33b67b5b5",
                        "0x00000000000000000000000069c214d722e29bc5520878b2edec61789dfa924e"
                    ]
                },
                "nodeType": 1
            }
        },
        "gasFlame": [
            {
                "children": [
                    {
                        "children": [
                            {
                                "children": [],
                                "depth": 0,
                                "name": "Initial Gas",
                                "value": 23256
                            },
                            {
                                "children": [],
                                "depth": 0,
                                "name": "Executed Gas",
                                "value": 14082
                            }
                        ],
                        "depth": -1,
                        "name": "Actual Gas Used",
                        "value": 37338
                    },
                    {
                        "children": [],
                        "depth": -1,
                        "name": "Refunded Gas",
                        "value": 0
                    }
                ],
                "depth": -2,
                "name": "Total Gas",
                "value": 37338
            }
        ],
        "isConfirmed": true,
        "mainTrace": [
            {
                "children": [
                    {
                        "children": [
                            {
                                "children": [],
                                "depth": 1,
                                "id": 1,
                                "order": 1
                            }
                        ],
                        "depth": 0,
                        "id": 0,
                        "order": 0
                    }
                ],
                "depth": -1,
                "id": -1,
                "order": -1
            }
        ],
        "mainTraceNodeCount": 2,
        "parentIdMap": {
            "0": -1,
            "1": 0
        },
        "tidyTrace": [
            {
                "children": [
                    {
                        "children": [
                            {
                                "children": [],
                                "depth": 1,
                                "id": 1,
                                "order": 1
                            }
                        ],
                        "depth": 0,
                        "id": 0,
                        "order": 0
                    }
                ],
                "depth": -1,
                "id": -1,
                "order": -1
            }
        ],
        "tidyTraceNodeCount": 2
    },
    "state_change": {
        "stateChanges": [
            {
                "address": "0x4b04633ee658d83a24a91e3a1b244221800d89b4",
                "erc": "ERC-20",
                "slots": [
                    {
                        "current": "0x00000000000000000000000000000000000000000000135817ea8ef4fd980000",
                        "key": "0x0c2acb24566e930db6b7a14c240ab16ea52e7763dcb9e189b5c88a0064c7b84d",
                        "prev": "0x00000000000000000000000000000000000000000000135d83b1ed2260a80000"
                    },
                    {
                        "current": "0x0000000000000000000000000000000000000000000001d9b01c201783480000",
                        "key": "0xdd7de825a56180c869e2c72cca547fdf72703cc6eed2800dbb417742cd74ce24",
                        "prev": "0x0000000000000000000000000000000000000000000001d44454c1ea20380000"
                    }
                ],
                "storageVariables": [
                    {
                        "name": "balances",
                        "type": "mapping(address => uint256)",
                        "value": {
                            "pairs": [
                                {
                                    "key": "0x69c214d722e29bc5520878b2edec61789dfa924e",
                                    "value": {
                                        "current": "8738000000000000000000",
                                        "prev": "8638000000000000000000",
                                        "typeTag": 1
                                    }
                                },
                                {
                                    "key": "0x6f0c595955cb665e60909fb0046174e33b67b5b5",
                                    "value": {
                                        "current": "91350000000000000000000",
                                        "prev": "91450000000000000000000",
                                        "typeTag": 1
                                    }
                                }
                            ],
                            "typeTag": 4
                        }
                    }
                ]
            }
        ]
    }
}