{
    "balance_change": {
        "balanceChanges": []
    },
    "profile": {
        "basic_info": {
            "baseFee": "",
            "blockNumber": 4664705,
            "callData": "0x0a19b14a00000000000000000000000011175e64c6082fa06daf689c59a510c2774253a100000000000000000000000000000000000000000000000000000000000f424000000000000000000000000000000000000000000000000000000000000000000000000000000000000000000000000000000000000000000226abadc42f800000000000000000000000000000000000000000000000000000000000004747a200000000000000000000000000000000000000000000000000000000ec90090800000000000000000000000098d7d86a36abf430d6311d8685e9760a85b222dd000000000000000000000000000000000000000000000000000000000000001c84062ebfa7001966e2ff86d9b1e0f01f29ba20852f82695b444079eb6d96a77e37a3e4823c44fb7e1e90f1326581321da019c9920718bb5e0a39a13a19520d3800000000000000000000000000000000000000000000000000000000000028e3",
            "debugEnable": true,
            "errorInfo": "",
            "eventCount": 1,
            "feeRecipient": "0xea674fdde714fd979de3edf0f56aa9716b898ec8",
            "formatValue": "0",
            "gasLimit": 250000,
            "gasPrice": "4",
            "gasUsed": 92538,
            "intTxnCount": 2,
            "internalRevert": false,
            "internalRevertMessage": "",
            "isContractCreation": false,
            "isFlashloan": false,
            "maxFee": "",
            "nonce": 307,
            "overwritedBlockNumber": -1,
            "priorityFee": "",
            "receiver": "0x8d12a197cb00d4747a1fe03395095ce2a5cc6819",
            "revertMessage": "",
            "sender": "0x8573ee5247b043fc05e1e9405286c3b3dfa27cbc",
            "simulationEnable": true,
            "sourceTxnHash": "0x2ed0f7cdbc6cdb646e3a6b227c808bb21c45c2b844490fa8b9eb0ce87d0b20e4",
            "status": true,
            "timestamp": "2017-12-02T22:19:06Z",
            "transactionFee": "0.000370152",
            "txnHash": "0x2ed0f7cdbc6cdb646e3a6b227c808bb21c45c2b844490fa8b9eb0ce87d0b20e4",
            "txnIndex": 94,
            "type": 0,
            "value": "0"
        },
        "fund_flow": [],
        "token_infos": [
            {
                "address": "0xc02aaa39b223fe8d0a0e5c4f27ead9083c756cc2",
                "decimals": 18
            },
            {
                "address": "0xeeeeeeeeeeeeeeeeeeeeeeeeeeeeeeeeeeeeeeee",
                "decimals": 18
            }
        ]
    },
    "address_label": {
        "labels": [
            {
                "address": "0x0000000000000000000000000000000000000003",
                "label": "Precompiled"
            },
            {
                "address": "0x0000000000000000000000000000000000000004",
                "label": "Precompiled"
            },
            {
                "address": "0xeeeeeeeeeeeeeeeeeeeeeeeeeeeeeeeeeeeeeeee",
                "label": "Ether"
            },
            {
                "address": "0x8d12a197cb00d4747a1fe03395095ce2a5cc6819",
                "label": "EtherDelta"
            },
            {
                "address": "0x0000000000000000000000000000000000000002",
                "label": "Precompiled"
            },
            {
                "address": "0x0000000000000000000000000000000000000000",
                "label": "Null Address"
            },
            {
                "address": "0x11175e64c6082fa06daf689c59a510c2774253a1",
                "label": "BCS"
            },
            {
                "address": "0x0000000000000000000000000000000000000001",
                "label": "Precompiled"
            }
        ]
    },
    "trace": {
        "accountLabels": null,
        "dataMap": {
            "-1": {
                "invocation": {
                    "address": "0x8573ee5247b043fc05e1e9405286c3b3dfa27cbc",
                    "callData": "",
                    "decodedMethod": null,
                    "errorInfo": "",
                    "fromAddress": "",
                    "gasUsed": 0,
                    "id": -1,
                    "methodDecoded": false,
                    "operation": "",
                    "output": "",
                    "revert": false,
                    "revertMessage": "",
                    "selector": "",
                    "status": false,
                    "value": ""
                },
                "nodeType": 0
            },
            "0": {
                "invocation": {
                    "address": "0x8d12a197cb00d4747a1fe03395095ce2a5cc6819",
                    "callData": "0x00000000000000000000000011175e64c6082fa06daf689c59a510c2774253a100000000000000000000000000000000000000000000000000000000000f424000000000000000000000000000000000000000000000000000000000000000000000000000000000000000000000000000000000000000000226abadc42f800000000000000000000000000000000000000000000000000000000000004747a200000000000000000000000000000000000000000000000000000000ec90090800000000000000000000000098d7d86a36abf430d6311d8685e9760a85b222dd000000000000000000000000000000000000000000000000000000000000001c84062ebfa7001966e2ff86d9b1e0f01f29ba20852f82695b444079eb6d96a77e37a3e4823c44fb7e1e90f1326581321da019c9920718bb5e0a39a13a19520d3800000000000000000000000000000000000000000000000000000000000028e3",
                    "decodedMethod": {
                        "callParams": [
                            {
                                "name": "tokenGet",
                                "type": "address",
                                "value": "0x11175e64c6082fa06daf689c59a510c2774253a1"
                            },
                            {
                                "name": "amountGet",
                                "type": "uint256",
                                "value": "1,000,000"
                            },
                            {
                                "name": "tokenGive",
                                "type": "address",
                                "value": "0x0000000000000000000000000000000000000000"
                            },
                            {
                                "name": "amountGive",
                                "type": "uint256",
                                "value": "155,000,000,000,000,000"
                            },
                            {
                                "name": "expires",
                                "type": "uint256",
                                "value": "4,671,394"
                            },
                            {
                                "name": "nonce",
                                "type": "uint256",
                                "value": "3,968,862,472"
                            },
                            {
                                "name": "user",
                                "type": "address",
                                "value": "0x98d7d86a36abf430d6311d8685e9760a85b222dd"
                            },
                            {
                                "name": "v",
                                "type": "uint8",
                                "value": "28"
                            },
                            {
                                "name": "r",
                                "type": "bytes32",
                                "value": "0x84062ebfa7001966e2ff86d9b1e0f01f29ba20852f82695b444079eb6d96a77e"
                            },
                            {
                                "name": "s",
                                "type": "bytes32",
                                "value": "0x37a3e4823c44fb7e1e90f1326581321da019c9920718bb5e0a39a13a19520d38"
                            },
                            {
                                "name": "amount",
                                "type": "uint256",
                                "value": "10,467"
                            }
                        ],
                        "constructorArguments": "",
                        "name": "trade",
                        "returnParams": [],
                        "signature": "trade(address,uint256,address,uint256,uint256,uint256,address,uint8,bytes32,bytes32,uint256)"
                    },
                    "errorInfo": "",
                    "fromAddress": "0x8573ee5247b043fc05e1e9405286c3b3dfa27cbc",
                    "gasUsed": 92538,
                    "id": 0,
                    "methodDecoded": true,
                    "operation": "CALL",
                    "output": "",
                    "revert": false,
                    "revertMessage": "",
                    "selector": "0x0a19b14a",
                    "status": true,
                    "value": "0"
                },
                "nodeType": 0
            },
            "1": {
                "invocation": {
                    "address": "0x0000000000000000000000000000000000000002",
                    "callData": "0xcb00d4747a1fe03395095ce2a5cc681911175e64c6082fa06daf689c59a510c2774253a100000000000000000000000000000000000000000000000000000000000f424000000000000000000000000000000000000000000000000000000000000000000000000000000000000000000226abadc42f800000000000000000000000000000000000000000000000000000000000004747a200000000000000000000000000000000000000000000000000000000ec900908",
                    "decodedMethod": {
                        "callParams": [
                            {
                                "name": "data",
                                "type": "bytes",
                                "value": "0x8d12a197cb00d4747a1fe03395095ce2a5cc681911175e64c6082fa06daf689c59a510c2774253a100000000000000000000000000000000000000000000000000000000000f424000000000000000000000000000000000000000000000000000000000000000000000000000000000000000000226abadc42f800000000000000000000000000000000000000000000000000000000000004747a200000000000000000000000000000000000000000000000000000000ec900908"
                            }
                        ],
                        "constructorArguments": "",
                        "name": "sha256hash",
                        "returnParams": [
                            {
                                "name": "hash",
                                "type": "bytes32",
                                "value": "0x208a00a34a329fa709545b65e14b9cefa6d115ae7e0d84683e23dc6b4e0f2d9b"
                            }
                        ],
                        "signature": "sha256hash(bytes)"
                    },
                    "errorInfo": "",
                    "fromAddress": "0x8d12a197cb00d4747a1fe03395095ce2a5cc6819",
                    "gasUsed": 132,
                    "id": 1,
                    "methodDecoded": true,
                    "operation": "CALL",
                    "output": "0x208a00a34a329fa709545b65e14b9cefa6d115ae7e0d84683e23dc6b4e0f2d9b",
                    "revert": false,
                    "revertMessage": "",
                    "selector": "0x8d12a197",
                    "status": true,
                    "value": "0"
                },
                "nodeType": 0
            },
            "2": {
                "invocation": {
                    "address": "0x0000000000000000000000000000000000000001",
                    "callData": "0x97d691d22ffb9ab795de97acbc6761617c4814176c0dd6a659e81d4d000000000000000000000000000000000000000000000000000000000000001c84062ebfa7001966e2ff86d9b1e0f01f29ba20852f82695b444079eb6d96a77e37a3e4823c44fb7e1e90f1326581321da019c9920718bb5e0a39a13a19520d38",
                    "decodedMethod": {
                        "callParams": [
                            {
                                "name": "hash",
                                "type": "bytes32",
                                "value": "0x1c9455d397d691d22ffb9ab795de97acbc6761617c4814176c0dd6a659e81d4d"
                            },
                            {
                                "name": "v",
                                "type": "uint256",
                                "value": "28"
                            },
                            {
                                "name": "r",
                                "type": "bytes32",
                                "value": "0x84062ebfa7001966e2ff86d9b1e0f01f29ba20852f82695b444079eb6d96a77e"
                            },
                            {
                                "name": "s",
                                "type": "bytes32",
                                "value": "0x37a3e4823c44fb7e1e90f1326581321da019c9920718bb5e0a39a13a19520d38"
                            }
                        ],
                        "constructorArguments": "",
                        "name": "ecrecover",
                        "returnParams": [
                            {
                                "name": "",
                                "type": "address",
                                "value": "0x98d7d86a36abf430d6311d8685e9760a85b222dd"
                            }
                        ],
                        "signature": "ecrecover(bytes32,uint256,bytes32,bytes32)"
                    },
                    "errorInfo": "",
                    "fromAddress": "0x8d12a197cb00d4747a1fe03395095ce2a5cc6819",
                    "gasUsed": 3000,
                    "id": 2,
                    "methodDecoded": true,
                    "operation": "CALL",
                    "output": "0x00000000000000000000000098d7d86a36abf430d6311d8685e9760a85b222dd",
                    "revert": false,
                    "revertMessage": "",
                    "selector": "0x1c9455d3",
                    "status": true,
                    "value": "0"
                },
                "nodeType": 0
            },
            "3": {
                "event": {
                    "contract": "0x8d12a197cb00d4747a1fe03395095ce2a5cc6819",
                    "decodedLog": {
                        "name": "Trade",
                        "params": [
                            {
                                "name": "tokenGet",
                                "type": "address",
                                "value": "0x11175e64c6082fa06daf689c59a510c2774253a1"
                            },
                            {
                                "name": "amountGet",
                                "type": "uint256",
                                "value": "10,467"
                            },
                            {
                                "name": "tokenGive",
                                "type": "address",
                                "value": "0x0000000000000000000000000000000000000000"
                            },
                            {
                                "name": "amountGive",
                                "type": "uint256",
                                "value": "1,622,385,000,000,000"
                            },
                            {
                                "name": "get",
                                "type": "address",
                                "value": "0x98d7d86a36abf430d6311d8685e9760a85b222dd"
                            },
                            {
                                "name": "give",
                                "type": "address",
                                "value": "0x8573ee5247b043fc05e1e9405286c3b3dfa27cbc"
                            }
                        ],
                        "signature": "Trade(address,uint256,address,uint256,address,address)"
                    },
                    "id": 3,
                    "logData": "0x00000000000000000000000011175e64c6082fa06daf689c59a510c2774253a100000000000000000000000000000000000000000000000000000000000028e300000000000000000000000000000000000000000000000000000000000000000000000000000000000000000000000000000000000000000005c38cf19d2a0000000000000000000000000098d7d86a36abf430d6311d8685e9760a85b222dd0000000000000000000000008573ee5247b043fc05e1e9405286c3b3dfa27cbc",
                    "logDecoded": true,
                    "operation": "EVENT",
                    "revert": false,
                    "status": true,
                    "topics": [
                        "0x6effdda786735d5033bfad5f53e5131abcced9e52be6c507b62d639685fbed6d"
                    ]
                },
                "nodeType": 1
            }
        },
        "gasFlame": [
            {
                "children": [
                    {
                        "children": [
                            {
                                "children": [],
                                "depth": 0,
                                "name": "Initial Gas",
                                "value": 30552
                            },
                            {
                                "children": [
                                    {
                                        "children": [],
                                        "depth": 1,
                                        "name": "sha256hash",
                                        "value": 132
                                    },
                                    {
                                        "children": [],
                                        "depth": 1,
                                        "name": "ecrecover",
                                        "value": 3000
                                    }
                                ],
                                "depth": 0,
                                "name": "Executed Gas",
                                "value": 61986
                            }
                        ],
                        "depth": -1,
                        "name": "Actual Gas Used",
                        "value": 92538
                    },
                    {
                        "children": [],
                        "depth": -1,
                        "name": "Refunded Gas",
                        "value": 0
                    }
                ],
                "depth": -2,
                "name": "Total Gas",
                "value": 92538
            }
        ],
        "isConfirmed": true,
        "mainTrace": [
            {
                "children": [
                    {
                        "children": [
                            {
                                "children": [],
                                "depth": 1,
                                "id": 1,
                                "order": 1
                            },
                            {
                                "children": [],
                                "depth": 1,
                                "id": 2,
                                "order": 2
                            },
                            {
                                "children": [],
                                "depth": 1,
                                "id": 3,
                                "order": 3
                            }
                        ],
                        "depth": 0,
                        "id": 0,
                        "order": 0
                    }
                ],
                "depth": -1,
                "id": -1,
                "order": -1
            }
        ],
        "mainTraceNodeCount": 4,
        "parentIdMap": {
            "0": -1,
            "1": 0,
            "2": 0,
            "3": 0
        },
        "tidyTrace": [
            {
                "children": [
                    {
                        "children": [
                            {
                                "children": [],
                                "depth": 1,
                                "id": 1,
                                "order": 1
                            },
                            {
                                "children": [],
                                "depth": 1,
                                "id": 2,
                                "order": 2
                            },
                            {
                                "children": [],
                                "depth": 1,
                                "id": 3,
                                "order": 3
                            }
                        ],
                        "depth": 0,
                        "id": 0,
                        "order": 0
                    }
                ],
                "depth": -1,
                "id": -1,
                "order": -1
            }
        ],
        "tidyTraceNodeCount": 4
    },
    "state_change": {
        "stateChanges": [
            {
                "address": "0x8d12a197cb00d4747a1fe03395095ce2a5cc6819",
                "erc": "",
                "slots": [
                    {
                        "current": "0x0000000000000000000000000000000000000000000000000000000000000002",
                        "key": "0xf6a1a2e02af4c56d1e26f92aa5c0fff2f2beccda4a21b1d67a7143cdbacf0893",
                        "prev": "0x0000000000000000000000000000000000000000000000000000000000002904"
                    },
                    {
                        "current": "0x000000000000000000000000000000000000000000000000000000000007368f",
                        "key": "0xc2ccc5b2e8c7ae551700cf68468ad54c7068b635d983ffd9e36590c102e54be8",
                        "prev": "0x0000000000000000000000000000000000000000000000000000000000070dac"
                    },
                    {
                        "current": "0x0000000000000000000000000000000000000000000000000000000000000e18",
                        "key": "0xaa8096297be68474dda11dae81caa3799b6392589c8918363d1410fa16b8f968",
                        "prev": "0x0000000000000000000000000000000000000000000000000000000000000df9"
                    },
                    {
                        "current": "0x0000000000000000000000000000000000000000000000001b537e66f7843897",
                        "key": "0x78a8c5c4203c80de297a6a0e3f4d5b42549fe9cdbbdb83e82630d6bbbd427e8a",
                        "prev": "0x0000000000000000000000000000000000000000000000001b5941f3e9216297"
                    },
                    {
                        "current": "0x00000000000000000000000000000000000000000000000000421b0e9361d3e6",
                        "key": "0xb238db58ba76fb167fa3b9ba58a8bce8d109c41e622bb2d37212c29e5fec03eb",
                        "prev": "0x000000000000000000000000000000000000000000000000003c5781a1c4a9e6"
                    },
                    {
                        "current": "0x00000000000000000000000000000000000000000000000000000000000028e3",
                        "key": "0x79710c7bb4eea6cb6ddc73cddb6b2fa5c6ab27989d7e217bacc3c4a6b4a6c1ba",
                        "prev": "0x0000000000000000000000000000000000000000000000000000000000000000"
                    }
                ],
                "storageVariables": []
            }
        ]
    }
}