{
    "balance_change": {
        "balanceChanges": [
            {
                "account": "0x7e053f857f4e92029a051a23016a283b456bae76",
                "assets": [
                    {
                        "address": "0x03e3f0c25965f13dbbc58246738c183e27b26a56",
                        "amount": "5,000",
                        "iconUrl": "",
                        "isERC1155": false,
                        "isERC721": false,
                        "sign": false,
                        "value": ""
                    }
                ]
            },
            {
                "account": "0x008d9baff91c6b10301f27edb10bd21426efb082",
                "assets": [
                    {
                        "address": "0x03e3f0c25965f13dbbc58246738c183e27b26a56",
                        "amount": "5,000",
                        "iconUrl": "",
                        "isERC1155": false,
                        "isERC721": false,
                        "sign": true,
                        "value": ""
                    }
                ]
            }
        ]
    },
    "profile": {
        "basic_info": {
            "baseFee": "",
            "blockNumber": 12628487,
            "callData": "0x96e4ee3d000000000000000000000000000000000000000000000000000000000000000000000000000000000000000000000000000000000000010f0cf064dd59200000",
            "debugEnable": true,
            "errorInfo": "",
            "eventCount": 2,
            "feeRecipient": "0xb3b7874f13387d44a3398d298b075b7a3505d8d4",
            "formatValue": "0",
            "gasLimit": 74097,
            "gasPrice": "13",
            "gasUsed": 39113,
            "intTxnCount": 1,
            "internalRevert": false,
            "internalRevertMessage": "",
            "isContractCreation": false,
            "isFlashloan": false,
            "maxFee": "",
            "nonce": 15,
            "overwritedBlockNumber": -1,
            "priorityFee": "",
            "receiver": "0x008d9baff91c6b10301f27edb10bd21426efb082",
            "revertMessage": "",
            "sender": "0x7e053f857f4e92029a051a23016a283b456bae76",
            "simulationEnable": true,
            "sourceTxnHash": "0x2f2b738ac7ca95b922a16d6dc3048e8bb76185e98d4d94a8f7dfe24c6027f7a3",
            "status": true,
            "timestamp": "2021-06-13T21:12:06Z",
            "transactionFee": "0.000508469",
            "txnHash": "0x2f2b738ac7ca95b922a16d6dc3048e8bb76185e98d4d94a8f7dfe24c6027f7a3",
            "txnIndex": 137,
            "type": 0,
            "value": "0"
        },
        "fund_flow": [
            {
                "amount": "5,000",
                "from": "0x7e053f857f4e92029a051a23016a283b456bae76",
                "id": 1,
                "isERC1155": false,
                "isERC721": false,
                "isReverted": false,
                "order": 1,
                "to": "0x008d9baff91c6b10301f27edb10bd21426efb082",
                "token": "0x03e3f0c25965f13dbbc58246738c183e27b26a56"
            }
        ],
        "token_infos": [
            {
                "address": "0x03e3f0c25965f13dbbc58246738c183e27b26a56",
                "decimals": 18
            },
            {
                "address": "0xc02aaa39b223fe8d0a0e5c4f27ead9083c756cc2",
                "decimals": 18
            },
            {
                "address": "0xeeeeeeeeeeeeeeeeeeeeeeeeeeeeeeeeeeeeeeee",
                "decimals": 18
            }
        ]
    },
    "address_label": {
        "labels": [
            {
                "address": "0x0000000000000000000000000000000000000001",
                "label": "Precompiled"
            },
            {
                "address": "0x0000000000000000000000000000000000000002",
                "label": "Precompiled"
            },
            {
                "address": "0x0000000000000000000000000000000000000003",
                "label": "Precompiled"
            },
            {
                "address": "0x0000000000000000000000000000000000000004",
                "label": "Precompiled"
            },
            {
                "address": "0xeeeeeeeeeeeeeeeeeeeeeeeeeeeeeeeeeeeeeeee",
                "label": "Ether"
            },
            {
                "address": "0x03e3f0c25965f13dbbc58246738c183e27b26a56",
                "label": "Disciplina: DSCP Token"
            },
            {
                "address": "0x008d9baff91c6b10301f27edb10bd21426efb082",
                "label": "Bridge"
            }
        ]
    },
    "trace": {
        "accountLabels": null,
        "dataMap": {
            "-1": {
                "invocation": {
                    "address": "0x7e053f857f4e92029a051a23016a283b456bae76",
                    "callData": "",
                    "decodedMethod": null,
                    "errorInfo": "",
                    "fromAddress": "",
                    "gasUsed": 0,
                    "id": -1,
                    "methodDecoded": false,
                    "operation": "",
                    "output": "",
                    "revert": false,
                    "revertMessage": "",
                    "selector": "",
                    "status": false,
                    "value": ""
                },
                "nodeType": 0
            },
            "0": {
                "invocation": {
                    "address": "0x008d9baff91c6b10301f27edb10bd21426efb082",
                    "callData": "0x000000000000000000000000000000000000000000000000000000000000000000000000000000000000000000000000000000000000010f0cf064dd59200000",
                    "decodedMethod": {
                        "callParams": [
                            {
                                "name": "_stakeTimeOption",
                                "type": "uint256",
                                "value": "0"
                            },
                            {
                                "name": "_amount",
                                "type": "uint256",
                                "value": "5,000,000,000,000,000,000,000"
                            }
                        ],
                        "constructorArguments": "",
                        "name": "convert",
                        "returnParams": [],
                        "signature": "convert(uint256,uint256)"
                    },
                    "errorInfo": "",
                    "fromAddress": "0x7e053f857f4e92029a051a23016a283b456bae76",
                    "gasUsed": 39113,
                    "id": 0,
                    "methodDecoded": true,
                    "operation": "CALL",
                    "output": "",
                    "revert": false,
                    "revertMessage": "",
                    "selector": "0x96e4ee3d",
                    "status": true,
                    "value": "0"
                },
                "nodeType": 0
            },
            "1": {
                "invocation": {
                    "address": "0x03e3f0c25965f13dbbc58246738c183e27b26a56",
                    "callData": "0x0000000000000000000000007e053f857f4e92029a051a23016a283b456bae76000000000000000000000000008d9baff91c6b10301f27edb10bd21426efb08200000000000000000000000000000000000000000000010f0cf064dd59200000",
                    "decodedMethod": {
                        "callParams": [
                            {
                                "name": "_from",
                                "type": "address",
                                "value": "0x7e053f857f4e92029a051a23016a283b456bae76"
                            },
                            {
                                "name": "_to",
                                "type": "address",
                                "value": "0x008d9baff91c6b10301f27edb10bd21426efb082"
                            },
                            {
                                "decimalAvailable": true,
                                "name": "_value",
                                "type": "uint256",
                                "value": "5,000,000,000,000,000,000,000"
                            }
                        ],
                        "constructorArguments": "",
                        "name": "transferFrom",
                        "returnParams": [
                            {
                                "name": "",
                                "type": "bool",
                                "value": true
                            }
                        ],
                        "signature": "transferFrom(address,address,uint256)"
                    },
                    "errorInfo": "",
                    "fromAddress": "0x008d9baff91c6b10301f27edb10bd21426efb082",
                    "gasUsed": 21252,
                    "id": 1,
                    "methodDecoded": true,
                    "operation": "CALL",
                    "output": "0x0000000000000000000000000000000000000000000000000000000000000001",
                    "revert": false,
                    "revertMessage": "",
                    "selector": "0x23b872dd",
                    "status": true,
                    "value": "0"
                },
                "nodeType": 0
            },
            "2": {
                "event": {
                    "contract": "0x03e3f0c25965f13dbbc58246738c183e27b26a56",
                    "decodedLog": {
                        "name": "Transfer",
                        "params": [
                            {
                                "name": "from",
                                "type": "address",
                                "value": "0x7e053f857f4e92029a051a23016a283b456bae76"
                            },
                            {
                                "name": "to",
                                "type": "address",
                                "value": "0x008d9baff91c6b10301f27edb10bd21426efb082"
                            },
                            {
                                "decimalAvailable": true,
                                "name": "value",
                                "type": "uint256",
                                "value": "5,000,000,000,000,000,000,000"
                            }
                        ],
                        "signature": "Transfer(address,address,uint256)"
                    },
                    "id": 2,
                    "logData": "0x00000000000000000000000000000000000000000000010f0cf064dd59200000",
                    "logDecoded": true,
                    "operation": "EVENT",
                    "revert": false,
                    "status": true,
                    "topics": [
                        "0xddf252ad1be2c89b69c2b068fc378daa952ba7f163c4a11628f55a4df523b3ef",
                        "0x0000000000000000000000007e053f857f4e92029a051a23016a283b456bae76",
                        "0x000000000000000000000000008d9baff91c6b10301f27edb10bd21426efb082"
                    ]
                },
                "nodeType": 1
            },
            "3": {
                "event": {
                    "contract": "0x008d9baff91c6b10301f27edb10bd21426efb082",
                    "decodedLog": {
                        "name": "Stake",
                        "params": [
                            {
                                "name": "user",
                                "type": "address",
                                "value": "0x7e053f857f4e92029a051a23016a283b456bae76"
                            },
                            {
                                "name": "holdTimeOption",
                                "type": "uint256",
                                "value": "0"
                            },
                            {
                                "name": "amount",
                                "type": "uint256",
                                "value": "45,000,000,000,000,000,000,000"
                            },
                            {
                                "name": "stakeTime",
                                "type": "uint256",
                                "value": "1,623,618,726"
                            },
                            {
                                "name": "id",
                                "type": "uint256",
                                "value": "5,098"
                            }
                        ],
                        "signature": "Stake(address,uint256,uint256,uint256,uint256)"
                    },
                    "id": 3,
                    "logData": "0x00000000000000000000000000000000000000000000098774738bc8222000000000000000000000000000000000000000000000000000000000000060c674a600000000000000000000000000000000000000000000000000000000000013ea",
                    "logDecoded": true,
                    "operation": "EVENT",
                    "revert": false,
                    "status": true,
                    "topics": [
                        "0x2720efa4b2dd4f3f8a347da3cbd290a522e9432da9072c5b8e6300496fdde282",
                        "0x0000000000000000000000007e053f857f4e92029a051a23016a283b456bae76",
                        "0x0000000000000000000000000000000000000000000000000000000000000000"
                    ]
                },
                "nodeType": 1
            }
        },
        "gasFlame": [
            {
                "children": [
                    {
                        "children": [
                            {
                                "children": [],
                                "depth": 0,
                                "name": "Initial Gas",
                                "value": 21416
                            },
                            {
                                "children": [
                                    {
                                        "children": [],
                                        "depth": 1,
                                        "name": "transferFrom",
                                        "value": 21252
                                    }
                                ],
                                "depth": 0,
                                "name": "Executed Gas",
                                "value": 50497
                            }
                        ],
                        "depth": -1,
                        "name": "Actual Gas Used",
                        "value": 39113
                    },
                    {
                        "children": [],
                        "depth": -1,
                        "name": "Refunded Gas",
                        "value": 32800
                    }
                ],
                "depth": -2,
                "name": "Total Gas",
                "value": 71913
            }
        ],
        "isConfirmed": true,
        "mainTrace": [
            {
                "children": [
                    {
                        "children": [
                            {
                                "children": [
                                    {
                                        "children": [],
                                        "depth": 2,
                                        "id": 2,
                                        "order": 2
                                    }
                                ],
                                "depth": 1,
                                "id": 1,
                                "order": 1
                            },
                            {
                                "children": [],
                                "depth": 1,
                                "id": 3,
                                "order": 3
                            }
                        ],
                        "depth": 0,
                        "id": 0,
                        "order": 0
                    }
                ],
                "depth": -1,
                "id": -1,
                "order": -1
            }
        ],
        "mainTraceNodeCount": 4,
        "parentIdMap": {
            "0": -1,
            "1": 0,
            "2": 1,
            "3": 0
        },
        "tidyTrace": [
            {
                "children": [
                    {
                        "children": [
                            {
                                "children": [
                                    {
                                        "children": [],
                                        "depth": 2,
                                        "id": 2,
                                        "order": 2
                                    }
                                ],
                                "depth": 1,
                                "id": 1,
                                "order": 1
                            },
                            {
                                "children": [],
                                "depth": 1,
                                "id": 3,
                                "order": 3
                            }
                        ],
                        "depth": 0,
                        "id": 0,
                        "order": 0
                    }
                ],
                "depth": -1,
                "id": -1,
                "order": -1
            }
        ],
        "tidyTraceNodeCount": 4
    },
    "state_change": {
        "stateChanges": [
            {
                "address": "0x008d9baff91c6b10301f27edb10bd21426efb082",
                "erc": "",
                "slots": [
                    {
                        "current": "0x00000000000000000000000000000000000000000000000000000000000013ea",
                        "key": "0x0000000000000000000000000000000000000000000000000000000000000002",
                        "prev": "0x00000000000000000000000000000000000000000000000000000000000013e9"
                    }
                ],
                "storageVariables": [
                    {
                        "name": "nonce",
                        "type": "uint256",
                        "value": {
                            "current": "5098",
                            "prev": "5097",
                            "typeTag": 1
                        }
                    }
                ]
            },
            {
                "address": "0x03e3f0c25965f13dbbc58246738c183e27b26a56",
                "erc": "ERC-20",
                "slots": [
                    {
                        "current": "0x0000000000000000000000000000000000000000000000000000000000000000",
                        "key": "0x888d9370226b073006f56acd9c6ad2f730300c9af446119c8e2190db832dd7a7",
                        "prev": "0x00000000000000000000000000000000000000000000010f0cf064dd59200000"
                    },
                    {
                        "current": "0x000000000000000000000000000000000000000000300e5bb5ab0d5e30b5fc45",
                        "key": "0x15f77ca086a0d3cac29282833c604e770ad56dd5c270202eeecc50f83ac0aaf9",
                        "prev": "0x000000000000000000000000000000000000000000300d4ca8baa880d795fc45"
                    },
                    {
                        "current": "0x0000000000000000000000000000000000000000000000000000000000000000",
                        "key": "0xb279e70a1d3c7ec97c38ec92f356d1efe6b84d78dfb4ecfa343f24cd154182de",
                        "prev": "0x00000000000000000000000000000000000000000000010f0cf064dd59200000"
                    }
                ],
                "storageVariables": [
                    {
                        "name": "balances",
                        "type": "mapping(address => uint256)",
                        "value": {
                            "pairs": [
                                {
                                    "key": "0x008d9baff91c6b10301f27edb10bd21426efb082",
                                    "value": {
                                        "current": "58096244216544523065883717",
                                        "prev": "58091244216544523065883717",
                                        "typeTag": 1
                                    }
                                },
                                {
                                    "key": "0x7e053f857f4e92029a051a23016a283b456bae76",
                                    "value": {
                                        "current": "0",
                                        "prev": "5000000000000000000000",
                                        "typeTag": 1
                                    }
                                }
                            ],
                            "typeTag": 4
                        }
                    },
                    {
                        "name": "allowed",
                        "type": "mapping(address => mapping(address => uint256))",
                        "value": {
                            "pairs": [
                                {
                                    "key": "0x7e053f857f4e92029a051a23016a283b456bae76",
                                    "value": {
                                        "pairs": [
                                            {
                                                "key": "0x008d9baff91c6b10301f27edb10bd21426efb082",
                                                "value": {
                                                    "current": "0",
                                                    "prev": "5000000000000000000000",
                                                    "typeTag": 1
                                                }
                                            }
                                        ],
                                        "typeTag": 4
                                    }
                                }
                            ],
                            "typeTag": 4
                        }
                    }
                ]
            }
        ]
    }
}