{
    "balance_change": {
        "balanceChanges": []
    },
    "profile": {
        "basic_info": {
            "baseFee": "",
            "blockNumber": 7400831,
            "callData": "0xe4849b320000000000000000000000000000000000000000000000028c418afbbb5c0000",
            "debugEnable": true,
            "errorInfo": "",
            "eventCount": 1,
            "feeRecipient": "0x52bc44d5378309ee2abf1539bf71de1b7d7be3b5",
            "formatValue": "0",
            "gasLimit": 200000,
            "gasPrice": "2",
            "gasUsed": 81418,
            "intTxnCount": 0,
            "internalRevert": false,
            "internalRevertMessage": "",
            "isContractCreation": false,
            "isFlashloan": false,
            "maxFee": "",
            "nonce": 77,
            "overwritedBlockNumber": -1,
            "priorityFee": "",
            "receiver": "0xbd73e675e1fa3d60a302c797df5c82e558da7ce1",
            "revertMessage": "",
            "sender": "0xda0d70f35707e1c0d332bfd536056118ce67741b",
            "simulationEnable": true,
            "sourceTxnHash": "0x2f8cbc9771526b4ac5a5ed9c38a6a66321a5ea6f7765e5c2f820b11b3eafe5ae",
            "status": true,
            "timestamp": "2019-03-19T18:16:04Z",
            "transactionFee": "0.000162836",
            "txnHash": "0x2f8cbc9771526b4ac5a5ed9c38a6a66321a5ea6f7765e5c2f820b11b3eafe5ae",
            "txnIndex": 30,
            "type": 0,
            "value": "0"
        },
        "fund_flow": [],
        "token_infos": [
            {
                "address": "0xc02aaa39b223fe8d0a0e5c4f27ead9083c756cc2",
                "decimals": 18
            },
            {
                "address": "0xeeeeeeeeeeeeeeeeeeeeeeeeeeeeeeeeeeeeeeee",
                "decimals": 18
            }
        ]
    },
    "address_label": {
        "labels": [
            {
                "address": "0xeeeeeeeeeeeeeeeeeeeeeeeeeeeeeeeeeeeeeeee",
                "label": "Ether"
            },
            {
                "address": "0xbd73e675e1fa3d60a302c797df5c82e558da7ce1",
                "label": "Pantheon Ecosystem (PAN)"
            },
            {
                "address": "0x0000000000000000000000000000000000000001",
                "label": "Precompiled"
            },
            {
                "address": "0x0000000000000000000000000000000000000002",
                "label": "Precompiled"
            },
            {
                "address": "0x0000000000000000000000000000000000000003",
                "label": "Precompiled"
            },
            {
                "address": "0x0000000000000000000000000000000000000004",
                "label": "Precompiled"
            }
        ]
    },
    "trace": {
        "accountLabels": null,
        "dataMap": {
            "-1": {
                "invocation": {
                    "address": "0xda0d70f35707e1c0d332bfd536056118ce67741b",
                    "callData": "",
                    "decodedMethod": null,
                    "errorInfo": "",
                    "fromAddress": "",
                    "gasUsed": 0,
                    "id": -1,
                    "methodDecoded": false,
                    "operation": "",
                    "output": "",
                    "revert": false,
                    "revertMessage": "",
                    "selector": "",
                    "status": false,
                    "value": ""
                },
                "nodeType": 0
            },
            "0": {
                "invocation": {
                    "address": "0xbd73e675e1fa3d60a302c797df5c82e558da7ce1",
                    "callData": "0x0000000000000000000000000000000000000000000000028c418afbbb5c0000",
                    "decodedMethod": {
                        "callParams": [
                            {
                                "name": "tokens",
                                "type": "uint256",
                                "value": "47,000,000,000,000,000,000"
                            }
                        ],
                        "constructorArguments": "",
                        "name": "sell",
                        "returnParams": [],
                        "signature": "sell(uint256)"
                    },
                    "errorInfo": "",
                    "fromAddress": "0xda0d70f35707e1c0d332bfd536056118ce67741b",
                    "gasUsed": 81418,
                    "id": 0,
                    "methodDecoded": true,
                    "operation": "CALL",
                    "output": "",
                    "revert": false,
                    "revertMessage": "",
                    "selector": "0xe4849b32",
                    "status": true,
                    "value": "0"
                },
                "nodeType": 0
            },
            "1": {
                "event": {
                    "contract": "0xbd73e675e1fa3d60a302c797df5c82e558da7ce1",
                    "decodedLog": {
                        "name": "Selling",
                        "params": [
                            {
                                "name": "addr",
                                "type": "address",
                                "value": "0xda0d70f35707e1c0d332bfd536056118ce67741b"
                            },
                            {
                                "name": "tokens",
                                "type": "uint256",
                                "value": "47,000,000,000,000,000,000"
                            },
                            {
                                "name": "funds",
                                "type": "uint256",
                                "value": "370,381,180,139,367,805"
                            },
                            {
                                "name": "price",
                                "type": "uint256",
                                "value": "7,880,220,641,263,144"
                            },
                            {
                                "name": "time",
                                "type": "uint256",
                                "value": "1,553,019,364"
                            }
                        ],
                        "signature": "Selling(address,uint256,uint256,uint256,uint256)"
                    },
                    "id": 1,
                    "logData": "0x0000000000000000000000000000000000000000000000028c418afbbb5c00000000000000000000000000000000000000000000000000000523dbb891b26d7d000000000000000000000000000000000000000000000000001bff04d812fe28000000000000000000000000000000000000000000000000000000005c9131e4",
                    "logDecoded": true,
                    "operation": "EVENT",
                    "revert": false,
                    "status": true,
                    "topics": [
                        "0xafd310387603da0dcf44f11f54b04254b548c58b194e75f85851e849f0eef307",
                        "0x000000000000000000000000da0d70f35707e1c0d332bfd536056118ce67741b"
                    ]
                },
                "nodeType": 1
            }
        },
        "gasFlame": [
            {
                "children": [
                    {
                        "children": [
                            {
                                "children": [],
                                "depth": 0,
                                "name": "Initial Gas",
                                "value": 21848
                            },
                            {
                                "children": [],
                                "depth": 0,
                                "name": "Executed Gas",
                                "value": 59570
                            }
                        ],
                        "depth": -1,
                        "name": "Actual Gas Used",
                        "value": 81418
                    },
                    {
                        "children": [],
                        "depth": -1,
                        "name": "Refunded Gas",
                        "value": 0
                    }
                ],
                "depth": -2,
                "name": "Total Gas",
                "value": 81418
            }
        ],
        "isConfirmed": true,
        "mainTrace": [
            {
                "children": [
                    {
                        "children": [
                            {
                                "children": [],
                                "depth": 1,
                                "id": 1,
                                "order": 1
                            }
                        ],
                        "depth": 0,
                        "id": 0,
                        "order": 0
                    }
                ],
                "depth": -1,
                "id": -1,
                "order": -1
            }
        ],
        "mainTraceNodeCount": 2,
        "parentIdMap": {
            "0": -1,
            "1": 0
        },
        "tidyTrace": [
            {
                "children": [
                    {
                        "children": [
                            {
                                "children": [],
                                "depth": 1,
                                "id": 1,
                                "order": 1
                            }
                        ],
                        "depth": 0,
                        "id": 0,
                        "order": 0
                    }
                ],
                "depth": -1,
                "id": -1,
                "order": -1
            }
        ],
        "tidyTraceNodeCount": 2
    },
    "state_change": {
        "stateChanges": [
            {
                "address": "0xbd73e675e1fa3d60a302c797df5c82e558da7ce1",
                "erc": "",
                "slots": [
                    {
                        "current": "0x00000000000000000000000000000000000000000000a6de3837480830913b1c",
                        "key": "0x0000000000000000000000000000000000000000000000000000000000000009",
                        "prev": "0x00000000000000000000000000000000000000000000a6e0c478d303ebed3b1c"
                    },
                    {
                        "current": "0x00000000000000000000000000000000000000000000000007cd48b7a90140ec",
                        "key": "0x6da367372f1cc9984bc01b7a6bcd2d5f0e09f4ab26b15641368b889973d2d06e",
                        "prev": "0x000000000000000000000000000000000000000000000002940ed3b3645d40ec"
                    },
                    {
                        "current": "0xffffffffffffffffffffffffffffffffffffffffffffffffffecd33a27137039",
                        "key": "0x6da367372f1cc9984bc01b7a6bcd2d5f0e09f4ab26b15641368b889973d2d071",
                        "prev": "0x000000000000000000000000000000000000000000000000011dbd761ae869ba"
                    },
                    {
                        "current": "0x00000000000000000000000000000000000000000000000004e210bc24031b37",
                        "key": "0x6da367372f1cc9984bc01b7a6bcd2d5f0e09f4ab26b15641368b889973d2d06f",
                        "prev": "0x0000000000000000000000000000000000000000000000000000000000000000"
                    },
                    {
                        "current": "0x00000000000000000000000000000000000184865e2917d2d30596e6b2d8f000",
                        "key": "0x0000000000000000000000000000000000000000000000000000000000000008",
                        "prev": "0x000000000000000000000000000000000001848c4ccffb203bd106b8a2d8f000"
                    },
                    {
                        "current": "0x00000000000000000000000000000000000000000000004e020f980a8805c908",
                        "key": "0x000000000000000000000000000000000000000000000000000000000000000a",
                        "prev": "0x00000000000000000000000000000000000000000000004e02feb74a0e2b7044"
                    }
                ],
                "storageVariables": [
                    {
                        "name": "shared_profit",
                        "type": "uint256",
                        "value": {
                            "current": "1438994542233070717192",
                            "prev": "1439061849110198579268",
                            "typeTag": 1
                        }
                    },
                    {
                        "name": "total_supply",
                        "type": "uint256",
                        "value": {
                            "current": "788012064126314480745244",
                            "prev": "788059064126314480745244",
                            "typeTag": 1
                        }
                    },
                    {
                        "name": "user_data",
                        "type": "mapping(address => struct PantheonEcoSystem.UserRecord)",
                        "value": {
                            "pairs": [
                                {
                                    "key": "0xda0d70f35707e1c0d332bfd536056118ce67741b",
                                    "value": {
                                        "fields": [
                                            {
                                                "name": "tokens",
                                                "type": "uint256",
                                                "value": {
                                                    "current": "562185482142826732",
                                                    "prev": "47562185482142826732",
                                                    "typeTag": 1
                                                }
                                            },
                                            {
                                                "name": "gained_funds",
                                                "type": "uint256",
                                                "value": {
                                                    "current": "351862121132399415",
                                                    "prev": "0",
                                                    "typeTag": 1
                                                }
                                            },
                                            {
                                                "name": "funds_correction",
                                                "type": "int256",
                                                "value": {
                                                    "current": "-5397252817063879",
                                                    "prev": "80428683317766586",
                                                    "typeTag": 1
                                                }
                                            }
                                        ],
                                        "typeTag": 3
                                    }
                                }
                            ],
                            "typeTag": 4
                        }
                    },
                    {
                        "name": "price",
                        "type": "uint256",
                        "value": {
                            "current": "7880220641263144807452440000000000",
                            "prev": "7880690641263144807452440000000000",
                            "typeTag": 1
                        }
                    }
                ]
            }
        ]
    }
}